{
	"_format": "sphinx-sol-ct-artifact-1",
	"merkleRoot": "0x11830f0fb7ad6b482466bf66cc24181095df70d9395bc2c496d5a5bd11e611a7",
	"contractName": "JBMultiTerminal",
	"address": "0x9446b613d0423AbfF13E24A57390EFCD3a0F0d17",
	"abi": [
		{
			"type": "constructor",
			"inputs": [
				{
					"name": "permissions",
					"type": "address",
					"internalType": "contract IJBPermissions"
				},
				{
					"name": "projects",
					"type": "address",
					"internalType": "contract IJBProjects"
				},
				{
					"name": "directory",
					"type": "address",
					"internalType": "contract IJBDirectory"
				},
				{
					"name": "splits",
					"type": "address",
					"internalType": "contract IJBSplits"
				},
				{
					"name": "store",
					"type": "address",
					"internalType": "contract IJBTerminalStore"
				},
				{
					"name": "feelessAddresses",
					"type": "address",
					"internalType": "contract IJBFeelessAddresses"
				},
				{
					"name": "permit2",
					"type": "address",
					"internalType": "contract IPermit2"
				},
				{
					"name": "trustedForwarder",
					"type": "address",
					"internalType": "address"
				}
			],
			"stateMutability": "nonpayable"
		},
		{
			"type": "function",
			"name": "DIRECTORY",
			"inputs": [],
			"outputs": [
				{
					"name": "",
					"type": "address",
					"internalType": "contract IJBDirectory"
				}
			],
			"stateMutability": "view"
		},
		{
			"type": "function",
			"name": "FEE",
			"inputs": [],
			"outputs": [
				{
					"name": "",
					"type": "uint256",
					"internalType": "uint256"
				}
			],
			"stateMutability": "view"
		},
		{
			"type": "function",
			"name": "FEELESS_ADDRESSES",
			"inputs": [],
			"outputs": [
				{
					"name": "",
					"type": "address",
					"internalType": "contract IJBFeelessAddresses"
				}
			],
			"stateMutability": "view"
		},
		{
			"type": "function",
			"name": "PERMISSIONS",
			"inputs": [],
			"outputs": [
				{
					"name": "",
					"type": "address",
					"internalType": "contract IJBPermissions"
				}
			],
			"stateMutability": "view"
		},
		{
			"type": "function",
			"name": "PERMIT2",
			"inputs": [],
			"outputs": [
				{
					"name": "",
					"type": "address",
					"internalType": "contract IPermit2"
				}
			],
			"stateMutability": "view"
		},
		{
			"type": "function",
			"name": "PROJECTS",
			"inputs": [],
			"outputs": [
				{
					"name": "",
					"type": "address",
					"internalType": "contract IJBProjects"
				}
			],
			"stateMutability": "view"
		},
		{
			"type": "function",
			"name": "SPLITS",
			"inputs": [],
			"outputs": [
				{
					"name": "",
					"type": "address",
					"internalType": "contract IJBSplits"
				}
			],
			"stateMutability": "view"
		},
		{
			"type": "function",
			"name": "STORE",
			"inputs": [],
			"outputs": [
				{
					"name": "",
					"type": "address",
					"internalType": "contract IJBTerminalStore"
				}
			],
			"stateMutability": "view"
		},
		{
			"type": "function",
			"name": "accountingContextForTokenOf",
			"inputs": [
				{
					"name": "projectId",
					"type": "uint256",
					"internalType": "uint256"
				},
				{
					"name": "token",
					"type": "address",
					"internalType": "address"
				}
			],
			"outputs": [
				{
					"name": "",
					"type": "tuple",
					"internalType": "struct JBAccountingContext",
					"components": [
						{
							"name": "token",
							"type": "address",
							"internalType": "address"
						},
						{
							"name": "decimals",
							"type": "uint8",
							"internalType": "uint8"
						},
						{
							"name": "currency",
							"type": "uint32",
							"internalType": "uint32"
						}
					]
				}
			],
			"stateMutability": "view"
		},
		{
			"type": "function",
			"name": "accountingContextsOf",
			"inputs": [
				{
					"name": "projectId",
					"type": "uint256",
					"internalType": "uint256"
				}
			],
			"outputs": [
				{
					"name": "",
					"type": "tuple[]",
					"internalType": "struct JBAccountingContext[]",
					"components": [
						{
							"name": "token",
							"type": "address",
							"internalType": "address"
						},
						{
							"name": "decimals",
							"type": "uint8",
							"internalType": "uint8"
						},
						{
							"name": "currency",
							"type": "uint32",
							"internalType": "uint32"
						}
					]
				}
			],
			"stateMutability": "view"
		},
		{
			"type": "function",
			"name": "addAccountingContextsFor",
			"inputs": [
				{
					"name": "projectId",
					"type": "uint256",
					"internalType": "uint256"
				},
				{
					"name": "tokens",
					"type": "address[]",
					"internalType": "address[]"
				}
			],
			"outputs": [],
			"stateMutability": "nonpayable"
		},
		{
			"type": "function",
			"name": "addToBalanceOf",
			"inputs": [
				{
					"name": "projectId",
					"type": "uint256",
					"internalType": "uint256"
				},
				{
					"name": "token",
					"type": "address",
					"internalType": "address"
				},
				{
					"name": "amount",
					"type": "uint256",
					"internalType": "uint256"
				},
				{
					"name": "shouldReturnHeldFees",
					"type": "bool",
					"internalType": "bool"
				},
				{
					"name": "memo",
					"type": "string",
					"internalType": "string"
				},
				{
					"name": "metadata",
					"type": "bytes",
					"internalType": "bytes"
				}
			],
			"outputs": [],
			"stateMutability": "payable"
		},
		{
			"type": "function",
			"name": "currentSurplusOf",
			"inputs": [
				{
					"name": "projectId",
					"type": "uint256",
					"internalType": "uint256"
				},
				{
					"name": "decimals",
					"type": "uint256",
					"internalType": "uint256"
				},
				{
					"name": "currency",
					"type": "uint256",
					"internalType": "uint256"
				}
			],
			"outputs": [
				{
					"name": "",
					"type": "uint256",
					"internalType": "uint256"
				}
			],
			"stateMutability": "view"
		},
		{
			"type": "function",
			"name": "executePayout",
			"inputs": [
				{
					"name": "split",
					"type": "tuple",
					"internalType": "struct JBSplit",
					"components": [
						{
							"name": "preferAddToBalance",
							"type": "bool",
							"internalType": "bool"
						},
						{
							"name": "percent",
							"type": "uint256",
							"internalType": "uint256"
						},
						{
							"name": "projectId",
							"type": "uint256",
							"internalType": "uint256"
						},
						{
							"name": "beneficiary",
							"type": "address",
							"internalType": "address payable"
						},
						{
							"name": "lockedUntil",
							"type": "uint256",
							"internalType": "uint256"
						},
						{
							"name": "hook",
							"type": "address",
							"internalType": "contract IJBSplitHook"
						}
					]
				},
				{
					"name": "projectId",
					"type": "uint256",
					"internalType": "uint256"
				},
				{
					"name": "token",
					"type": "address",
					"internalType": "address"
				},
				{
					"name": "amount",
					"type": "uint256",
					"internalType": "uint256"
				},
				{
					"name": "originalMessageSender",
					"type": "address",
					"internalType": "address"
				}
			],
			"outputs": [
				{
					"name": "netPayoutAmount",
					"type": "uint256",
					"internalType": "uint256"
				}
			],
			"stateMutability": "nonpayable"
		},
		{
			"type": "function",
			"name": "executeProcessFee",
			"inputs": [
				{
					"name": "projectId",
					"type": "uint256",
					"internalType": "uint256"
				},
				{
					"name": "token",
					"type": "address",
					"internalType": "address"
				},
				{
					"name": "amount",
					"type": "uint256",
					"internalType": "uint256"
				},
				{
					"name": "beneficiary",
					"type": "address",
					"internalType": "address"
				},
				{
					"name": "feeTerminal",
					"type": "address",
					"internalType": "contract IJBTerminal"
				}
			],
			"outputs": [],
			"stateMutability": "nonpayable"
		},
		{
			"type": "function",
			"name": "heldFeesOf",
			"inputs": [
				{
					"name": "projectId",
					"type": "uint256",
					"internalType": "uint256"
				},
				{
					"name": "token",
					"type": "address",
					"internalType": "address"
				}
			],
			"outputs": [
				{
					"name": "",
					"type": "tuple[]",
					"internalType": "struct JBFee[]",
					"components": [
						{
							"name": "amount",
							"type": "uint256",
							"internalType": "uint256"
						},
						{
							"name": "beneficiary",
							"type": "address",
							"internalType": "address"
						},
						{
							"name": "unlockTimestamp",
							"type": "uint256",
							"internalType": "uint256"
						}
					]
				}
			],
			"stateMutability": "view"
		},
		{
			"type": "function",
			"name": "isTrustedForwarder",
			"inputs": [
				{
					"name": "forwarder",
					"type": "address",
					"internalType": "address"
				}
			],
			"outputs": [
				{
					"name": "",
					"type": "bool",
					"internalType": "bool"
				}
			],
			"stateMutability": "view"
		},
		{
			"type": "function",
			"name": "migrateBalanceOf",
			"inputs": [
				{
					"name": "projectId",
					"type": "uint256",
					"internalType": "uint256"
				},
				{
					"name": "token",
					"type": "address",
					"internalType": "address"
				},
				{
					"name": "to",
					"type": "address",
					"internalType": "contract IJBTerminal"
				}
			],
			"outputs": [
				{
					"name": "balance",
					"type": "uint256",
					"internalType": "uint256"
				}
			],
			"stateMutability": "nonpayable"
		},
		{
			"type": "function",
			"name": "pay",
			"inputs": [
				{
					"name": "projectId",
					"type": "uint256",
					"internalType": "uint256"
				},
				{
					"name": "token",
					"type": "address",
					"internalType": "address"
				},
				{
					"name": "amount",
					"type": "uint256",
					"internalType": "uint256"
				},
				{
					"name": "beneficiary",
					"type": "address",
					"internalType": "address"
				},
				{
					"name": "minReturnedTokens",
					"type": "uint256",
					"internalType": "uint256"
				},
				{
					"name": "memo",
					"type": "string",
					"internalType": "string"
				},
				{
					"name": "metadata",
					"type": "bytes",
					"internalType": "bytes"
				}
			],
			"outputs": [
				{
					"name": "beneficiaryTokenCount",
					"type": "uint256",
					"internalType": "uint256"
				}
			],
			"stateMutability": "payable"
		},
		{
			"type": "function",
			"name": "processHeldFeesOf",
			"inputs": [
				{
					"name": "projectId",
					"type": "uint256",
					"internalType": "uint256"
				},
				{
					"name": "token",
					"type": "address",
					"internalType": "address"
				}
			],
			"outputs": [],
			"stateMutability": "nonpayable"
		},
		{
			"type": "function",
			"name": "redeemTokensOf",
			"inputs": [
				{
					"name": "holder",
					"type": "address",
					"internalType": "address"
				},
				{
					"name": "projectId",
					"type": "uint256",
					"internalType": "uint256"
				},
				{
					"name": "tokenToReclaim",
					"type": "address",
					"internalType": "address"
				},
				{
					"name": "redeemCount",
					"type": "uint256",
					"internalType": "uint256"
				},
				{
					"name": "minTokensReclaimed",
					"type": "uint256",
					"internalType": "uint256"
				},
				{
					"name": "beneficiary",
					"type": "address",
					"internalType": "address payable"
				},
				{
					"name": "metadata",
					"type": "bytes",
					"internalType": "bytes"
				}
			],
			"outputs": [
				{
					"name": "reclaimAmount",
					"type": "uint256",
					"internalType": "uint256"
				}
			],
			"stateMutability": "nonpayable"
		},
		{
			"type": "function",
			"name": "sendPayoutsOf",
			"inputs": [
				{
					"name": "projectId",
					"type": "uint256",
					"internalType": "uint256"
				},
				{
					"name": "token",
					"type": "address",
					"internalType": "address"
				},
				{
					"name": "amount",
					"type": "uint256",
					"internalType": "uint256"
				},
				{
					"name": "currency",
					"type": "uint256",
					"internalType": "uint256"
				},
				{
					"name": "minTokensPaidOut",
					"type": "uint256",
					"internalType": "uint256"
				}
			],
			"outputs": [
				{
					"name": "amountPaidOut",
					"type": "uint256",
					"internalType": "uint256"
				}
			],
			"stateMutability": "nonpayable"
		},
		{
			"type": "function",
			"name": "supportsInterface",
			"inputs": [
				{
					"name": "interfaceId",
					"type": "bytes4",
					"internalType": "bytes4"
				}
			],
			"outputs": [
				{
					"name": "",
					"type": "bool",
					"internalType": "bool"
				}
			],
			"stateMutability": "view"
		},
		{
			"type": "function",
			"name": "trustedForwarder",
			"inputs": [],
			"outputs": [
				{
					"name": "",
					"type": "address",
					"internalType": "address"
				}
			],
			"stateMutability": "view"
		},
		{
			"type": "function",
			"name": "useAllowanceOf",
			"inputs": [
				{
					"name": "projectId",
					"type": "uint256",
					"internalType": "uint256"
				},
				{
					"name": "token",
					"type": "address",
					"internalType": "address"
				},
				{
					"name": "amount",
					"type": "uint256",
					"internalType": "uint256"
				},
				{
					"name": "currency",
					"type": "uint256",
					"internalType": "uint256"
				},
				{
					"name": "minTokensPaidOut",
					"type": "uint256",
					"internalType": "uint256"
				},
				{
					"name": "beneficiary",
					"type": "address",
					"internalType": "address payable"
				},
				{
					"name": "memo",
					"type": "string",
					"internalType": "string"
				}
			],
			"outputs": [
				{
					"name": "amountPaidOut",
					"type": "uint256",
					"internalType": "uint256"
				}
			],
			"stateMutability": "nonpayable"
		},
		{
			"type": "event",
			"name": "AddToBalance",
			"inputs": [
				{
					"name": "projectId",
					"type": "uint256",
					"indexed": true,
					"internalType": "uint256"
				},
				{
					"name": "amount",
					"type": "uint256",
					"indexed": false,
					"internalType": "uint256"
				},
				{
					"name": "unlockedFees",
					"type": "uint256",
					"indexed": false,
					"internalType": "uint256"
				},
				{
					"name": "memo",
					"type": "string",
					"indexed": false,
					"internalType": "string"
				},
				{
					"name": "metadata",
					"type": "bytes",
					"indexed": false,
					"internalType": "bytes"
				},
				{
					"name": "caller",
					"type": "address",
					"indexed": false,
					"internalType": "address"
				}
			],
			"anonymous": false
		},
		{
			"type": "event",
			"name": "FeeReverted",
			"inputs": [
				{
					"name": "projectId",
					"type": "uint256",
					"indexed": true,
					"internalType": "uint256"
				},
				{
					"name": "token",
					"type": "address",
					"indexed": true,
					"internalType": "address"
				},
				{
					"name": "feeProjectId",
					"type": "uint256",
					"indexed": true,
					"internalType": "uint256"
				},
				{
					"name": "amount",
					"type": "uint256",
					"indexed": false,
					"internalType": "uint256"
				},
				{
					"name": "reason",
					"type": "bytes",
					"indexed": false,
					"internalType": "bytes"
				},
				{
					"name": "caller",
					"type": "address",
					"indexed": false,
					"internalType": "address"
				}
			],
			"anonymous": false
		},
		{
			"type": "event",
			"name": "HoldFee",
			"inputs": [
				{
					"name": "projectId",
					"type": "uint256",
					"indexed": true,
					"internalType": "uint256"
				},
				{
					"name": "token",
					"type": "address",
					"indexed": true,
					"internalType": "address"
				},
				{
					"name": "amount",
					"type": "uint256",
					"indexed": true,
					"internalType": "uint256"
				},
				{
					"name": "fee",
					"type": "uint256",
					"indexed": false,
					"internalType": "uint256"
				},
				{
					"name": "beneficiary",
					"type": "address",
					"indexed": false,
					"internalType": "address"
				},
				{
					"name": "caller",
					"type": "address",
					"indexed": false,
					"internalType": "address"
				}
			],
			"anonymous": false
		},
		{
			"type": "event",
			"name": "HookAfterRecordPay",
			"inputs": [
				{
					"name": "hook",
					"type": "address",
					"indexed": true,
					"internalType": "contract IJBPayHook"
				},
				{
					"name": "context",
					"type": "tuple",
					"indexed": false,
					"internalType": "struct JBAfterPayRecordedContext",
					"components": [
						{
							"name": "payer",
							"type": "address",
							"internalType": "address"
						},
						{
							"name": "projectId",
							"type": "uint256",
							"internalType": "uint256"
						},
						{
							"name": "rulesetId",
							"type": "uint256",
							"internalType": "uint256"
						},
						{
							"name": "amount",
							"type": "tuple",
							"internalType": "struct JBTokenAmount",
							"components": [
								{
									"name": "token",
									"type": "address",
									"internalType": "address"
								},
								{
									"name": "value",
									"type": "uint256",
									"internalType": "uint256"
								},
								{
									"name": "decimals",
									"type": "uint256",
									"internalType": "uint256"
								},
								{
									"name": "currency",
									"type": "uint256",
									"internalType": "uint256"
								}
							]
						},
						{
							"name": "forwardedAmount",
							"type": "tuple",
							"internalType": "struct JBTokenAmount",
							"components": [
								{
									"name": "token",
									"type": "address",
									"internalType": "address"
								},
								{
									"name": "value",
									"type": "uint256",
									"internalType": "uint256"
								},
								{
									"name": "decimals",
									"type": "uint256",
									"internalType": "uint256"
								},
								{
									"name": "currency",
									"type": "uint256",
									"internalType": "uint256"
								}
							]
						},
						{
							"name": "weight",
							"type": "uint256",
							"internalType": "uint256"
						},
						{
							"name": "projectTokenCount",
							"type": "uint256",
							"internalType": "uint256"
						},
						{
							"name": "beneficiary",
							"type": "address",
							"internalType": "address"
						},
						{
							"name": "hookMetadata",
							"type": "bytes",
							"internalType": "bytes"
						},
						{
							"name": "payerMetadata",
							"type": "bytes",
							"internalType": "bytes"
						}
					]
				},
				{
					"name": "specificationAmount",
					"type": "uint256",
					"indexed": false,
					"internalType": "uint256"
				},
				{
					"name": "caller",
					"type": "address",
					"indexed": false,
					"internalType": "address"
				}
			],
			"anonymous": false
		},
		{
			"type": "event",
			"name": "HookAfterRecordRedeem",
			"inputs": [
				{
					"name": "hook",
					"type": "address",
					"indexed": true,
					"internalType": "contract IJBRedeemHook"
				},
				{
					"name": "context",
					"type": "tuple",
					"indexed": false,
					"internalType": "struct JBAfterRedeemRecordedContext",
					"components": [
						{
							"name": "holder",
							"type": "address",
							"internalType": "address"
						},
						{
							"name": "projectId",
							"type": "uint256",
							"internalType": "uint256"
						},
						{
							"name": "rulesetId",
							"type": "uint256",
							"internalType": "uint256"
						},
						{
							"name": "redeemCount",
							"type": "uint256",
							"internalType": "uint256"
						},
						{
							"name": "reclaimedAmount",
							"type": "tuple",
							"internalType": "struct JBTokenAmount",
							"components": [
								{
									"name": "token",
									"type": "address",
									"internalType": "address"
								},
								{
									"name": "value",
									"type": "uint256",
									"internalType": "uint256"
								},
								{
									"name": "decimals",
									"type": "uint256",
									"internalType": "uint256"
								},
								{
									"name": "currency",
									"type": "uint256",
									"internalType": "uint256"
								}
							]
						},
						{
							"name": "forwardedAmount",
							"type": "tuple",
							"internalType": "struct JBTokenAmount",
							"components": [
								{
									"name": "token",
									"type": "address",
									"internalType": "address"
								},
								{
									"name": "value",
									"type": "uint256",
									"internalType": "uint256"
								},
								{
									"name": "decimals",
									"type": "uint256",
									"internalType": "uint256"
								},
								{
									"name": "currency",
									"type": "uint256",
									"internalType": "uint256"
								}
							]
						},
						{
							"name": "redemptionRate",
							"type": "uint256",
							"internalType": "uint256"
						},
						{
							"name": "beneficiary",
							"type": "address",
							"internalType": "address payable"
						},
						{
							"name": "hookMetadata",
							"type": "bytes",
							"internalType": "bytes"
						},
						{
							"name": "redeemerMetadata",
							"type": "bytes",
							"internalType": "bytes"
						}
					]
				},
				{
					"name": "specificationAmount",
					"type": "uint256",
					"indexed": false,
					"internalType": "uint256"
				},
				{
					"name": "fee",
					"type": "uint256",
					"indexed": false,
					"internalType": "uint256"
				},
				{
					"name": "caller",
					"type": "address",
					"indexed": false,
					"internalType": "address"
				}
			],
			"anonymous": false
		},
		{
			"type": "event",
			"name": "MigrateTerminal",
			"inputs": [
				{
					"name": "projectId",
					"type": "uint256",
					"indexed": true,
					"internalType": "uint256"
				},
				{
					"name": "token",
					"type": "address",
					"indexed": true,
					"internalType": "address"
				},
				{
					"name": "to",
					"type": "address",
					"indexed": true,
					"internalType": "contract IJBTerminal"
				},
				{
					"name": "amount",
					"type": "uint256",
					"indexed": false,
					"internalType": "uint256"
				},
				{
					"name": "caller",
					"type": "address",
					"indexed": false,
					"internalType": "address"
				}
			],
			"anonymous": false
		},
		{
			"type": "event",
			"name": "Pay",
			"inputs": [
				{
					"name": "rulesetId",
					"type": "uint256",
					"indexed": true,
					"internalType": "uint256"
				},
				{
					"name": "rulesetCycleNumber",
					"type": "uint256",
					"indexed": true,
					"internalType": "uint256"
				},
				{
					"name": "projectId",
					"type": "uint256",
					"indexed": true,
					"internalType": "uint256"
				},
				{
					"name": "payer",
					"type": "address",
					"indexed": false,
					"internalType": "address"
				},
				{
					"name": "beneficiary",
					"type": "address",
					"indexed": false,
					"internalType": "address"
				},
				{
					"name": "amount",
					"type": "uint256",
					"indexed": false,
					"internalType": "uint256"
				},
				{
					"name": "beneficiaryTokenCount",
					"type": "uint256",
					"indexed": false,
					"internalType": "uint256"
				},
				{
					"name": "memo",
					"type": "string",
					"indexed": false,
					"internalType": "string"
				},
				{
					"name": "metadata",
					"type": "bytes",
					"indexed": false,
					"internalType": "bytes"
				},
				{
					"name": "caller",
					"type": "address",
					"indexed": false,
					"internalType": "address"
				}
			],
			"anonymous": false
		},
		{
			"type": "event",
			"name": "PayoutReverted",
			"inputs": [
				{
					"name": "projectId",
					"type": "uint256",
					"indexed": true,
					"internalType": "uint256"
				},
				{
					"name": "split",
					"type": "tuple",
					"indexed": false,
					"internalType": "struct JBSplit",
					"components": [
						{
							"name": "preferAddToBalance",
							"type": "bool",
							"internalType": "bool"
						},
						{
							"name": "percent",
							"type": "uint256",
							"internalType": "uint256"
						},
						{
							"name": "projectId",
							"type": "uint256",
							"internalType": "uint256"
						},
						{
							"name": "beneficiary",
							"type": "address",
							"internalType": "address payable"
						},
						{
							"name": "lockedUntil",
							"type": "uint256",
							"internalType": "uint256"
						},
						{
							"name": "hook",
							"type": "address",
							"internalType": "contract IJBSplitHook"
						}
					]
				},
				{
					"name": "amount",
					"type": "uint256",
					"indexed": false,
					"internalType": "uint256"
				},
				{
					"name": "reason",
					"type": "bytes",
					"indexed": false,
					"internalType": "bytes"
				},
				{
					"name": "caller",
					"type": "address",
					"indexed": false,
					"internalType": "address"
				}
			],
			"anonymous": false
		},
		{
			"type": "event",
			"name": "ProcessFee",
			"inputs": [
				{
					"name": "projectId",
					"type": "uint256",
					"indexed": true,
					"internalType": "uint256"
				},
				{
					"name": "token",
					"type": "address",
					"indexed": true,
					"internalType": "address"
				},
				{
					"name": "amount",
					"type": "uint256",
					"indexed": true,
					"internalType": "uint256"
				},
				{
					"name": "wasHeld",
					"type": "bool",
					"indexed": false,
					"internalType": "bool"
				},
				{
					"name": "beneficiary",
					"type": "address",
					"indexed": false,
					"internalType": "address"
				},
				{
					"name": "caller",
					"type": "address",
					"indexed": false,
					"internalType": "address"
				}
			],
			"anonymous": false
		},
		{
			"type": "event",
			"name": "RedeemTokens",
			"inputs": [
				{
					"name": "rulesetId",
					"type": "uint256",
					"indexed": true,
					"internalType": "uint256"
				},
				{
					"name": "rulesetCycleNumber",
					"type": "uint256",
					"indexed": true,
					"internalType": "uint256"
				},
				{
					"name": "projectId",
					"type": "uint256",
					"indexed": true,
					"internalType": "uint256"
				},
				{
					"name": "holder",
					"type": "address",
					"indexed": false,
					"internalType": "address"
				},
				{
					"name": "beneficiary",
					"type": "address",
					"indexed": false,
					"internalType": "address"
				},
				{
					"name": "tokenCount",
					"type": "uint256",
					"indexed": false,
					"internalType": "uint256"
				},
				{
					"name": "redemptionRate",
					"type": "uint256",
					"indexed": false,
					"internalType": "uint256"
				},
				{
					"name": "reclaimedAmount",
					"type": "uint256",
					"indexed": false,
					"internalType": "uint256"
				},
				{
					"name": "metadata",
					"type": "bytes",
					"indexed": false,
					"internalType": "bytes"
				},
				{
					"name": "caller",
					"type": "address",
					"indexed": false,
					"internalType": "address"
				}
			],
			"anonymous": false
		},
		{
			"type": "event",
			"name": "ReturnHeldFees",
			"inputs": [
				{
					"name": "projectId",
					"type": "uint256",
					"indexed": true,
					"internalType": "uint256"
				},
				{
					"name": "token",
					"type": "address",
					"indexed": true,
					"internalType": "address"
				},
				{
					"name": "amount",
					"type": "uint256",
					"indexed": true,
					"internalType": "uint256"
				},
				{
					"name": "returnedFees",
					"type": "uint256",
					"indexed": false,
					"internalType": "uint256"
				},
				{
					"name": "leftoverAmount",
					"type": "uint256",
					"indexed": false,
					"internalType": "uint256"
				},
				{
					"name": "caller",
					"type": "address",
					"indexed": false,
					"internalType": "address"
				}
			],
			"anonymous": false
		},
		{
			"type": "event",
			"name": "SendPayoutToSplit",
			"inputs": [
				{
					"name": "projectId",
					"type": "uint256",
					"indexed": true,
					"internalType": "uint256"
				},
				{
					"name": "rulesetId",
					"type": "uint256",
					"indexed": true,
					"internalType": "uint256"
				},
				{
					"name": "group",
					"type": "uint256",
					"indexed": true,
					"internalType": "uint256"
				},
				{
					"name": "split",
					"type": "tuple",
					"indexed": false,
					"internalType": "struct JBSplit",
					"components": [
						{
							"name": "preferAddToBalance",
							"type": "bool",
							"internalType": "bool"
						},
						{
							"name": "percent",
							"type": "uint256",
							"internalType": "uint256"
						},
						{
							"name": "projectId",
							"type": "uint256",
							"internalType": "uint256"
						},
						{
							"name": "beneficiary",
							"type": "address",
							"internalType": "address payable"
						},
						{
							"name": "lockedUntil",
							"type": "uint256",
							"internalType": "uint256"
						},
						{
							"name": "hook",
							"type": "address",
							"internalType": "contract IJBSplitHook"
						}
					]
				},
				{
					"name": "amount",
					"type": "uint256",
					"indexed": false,
					"internalType": "uint256"
				},
				{
					"name": "netAmount",
					"type": "uint256",
					"indexed": false,
					"internalType": "uint256"
				},
				{
					"name": "caller",
					"type": "address",
					"indexed": false,
					"internalType": "address"
				}
			],
			"anonymous": false
		},
		{
			"type": "event",
			"name": "SendPayouts",
			"inputs": [
				{
					"name": "rulesetId",
					"type": "uint256",
					"indexed": true,
					"internalType": "uint256"
				},
				{
					"name": "rulesetCycleNumber",
					"type": "uint256",
					"indexed": true,
					"internalType": "uint256"
				},
				{
					"name": "projectId",
					"type": "uint256",
					"indexed": true,
					"internalType": "uint256"
				},
				{
					"name": "beneficiary",
					"type": "address",
					"indexed": false,
					"internalType": "address"
				},
				{
					"name": "amount",
					"type": "uint256",
					"indexed": false,
					"internalType": "uint256"
				},
				{
					"name": "amountPaidOut",
					"type": "uint256",
					"indexed": false,
					"internalType": "uint256"
				},
				{
					"name": "fee",
					"type": "uint256",
					"indexed": false,
					"internalType": "uint256"
				},
				{
					"name": "beneficiaryDistributionAmount",
					"type": "uint256",
					"indexed": false,
					"internalType": "uint256"
				},
				{
					"name": "caller",
					"type": "address",
					"indexed": false,
					"internalType": "address"
				}
			],
			"anonymous": false
		},
		{
			"type": "event",
			"name": "SetAccountingContext",
			"inputs": [
				{
					"name": "projectId",
					"type": "uint256",
					"indexed": true,
					"internalType": "uint256"
				},
				{
					"name": "token",
					"type": "address",
					"indexed": true,
					"internalType": "address"
				},
				{
					"name": "context",
					"type": "tuple",
					"indexed": false,
					"internalType": "struct JBAccountingContext",
					"components": [
						{
							"name": "token",
							"type": "address",
							"internalType": "address"
						},
						{
							"name": "decimals",
							"type": "uint8",
							"internalType": "uint8"
						},
						{
							"name": "currency",
							"type": "uint32",
							"internalType": "uint32"
						}
					]
				},
				{
					"name": "caller",
					"type": "address",
					"indexed": false,
					"internalType": "address"
				}
			],
			"anonymous": false
		},
		{
			"type": "event",
			"name": "UseAllowance",
			"inputs": [
				{
					"name": "rulesetId",
					"type": "uint256",
					"indexed": true,
					"internalType": "uint256"
				},
				{
					"name": "rulesetCycleNumber",
					"type": "uint256",
					"indexed": true,
					"internalType": "uint256"
				},
				{
					"name": "projectId",
					"type": "uint256",
					"indexed": true,
					"internalType": "uint256"
				},
				{
					"name": "beneficiary",
					"type": "address",
					"indexed": false,
					"internalType": "address"
				},
				{
					"name": "amount",
					"type": "uint256",
					"indexed": false,
					"internalType": "uint256"
				},
				{
					"name": "amountPaidOut",
					"type": "uint256",
					"indexed": false,
					"internalType": "uint256"
				},
				{
					"name": "netAmountPaidOut",
					"type": "uint256",
					"indexed": false,
					"internalType": "uint256"
				},
				{
					"name": "memo",
					"type": "string",
					"indexed": false,
					"internalType": "string"
				},
				{
					"name": "caller",
					"type": "address",
					"indexed": false,
					"internalType": "address"
				}
			],
			"anonymous": false
		},
		{
			"type": "error",
			"name": "ACCOUNTING_CONTEXT_ALREADY_SET",
			"inputs": []
		},
		{
			"type": "error",
			"name": "AddressEmptyCode",
			"inputs": [
				{
					"name": "target",
					"type": "address",
					"internalType": "address"
				}
			]
		},
		{
			"type": "error",
			"name": "AddressInsufficientBalance",
			"inputs": [
				{
					"name": "account",
					"type": "address",
					"internalType": "address"
				}
			]
		},
		{
			"type": "error",
			"name": "FailedInnerCall",
			"inputs": []
		},
		{
			"type": "error",
			"name": "INADEQUATE_PAYOUT_AMOUNT",
			"inputs": []
		},
		{
			"type": "error",
			"name": "INADEQUATE_RECLAIM_AMOUNT",
			"inputs": []
		},
		{
			"type": "error",
			"name": "NO_MSG_VALUE_ALLOWED",
			"inputs": []
		},
		{
			"type": "error",
			"name": "OVERFLOW_ALERT",
			"inputs": []
		},
		{
			"type": "error",
			"name": "PERMIT_ALLOWANCE_NOT_ENOUGH",
			"inputs": []
		},
		{
			"type": "error",
			"name": "PRBMath_MulDiv_Overflow",
			"inputs": [
				{
					"name": "x",
					"type": "uint256",
					"internalType": "uint256"
				},
				{
					"name": "y",
					"type": "uint256",
					"internalType": "uint256"
				},
				{
					"name": "denominator",
					"type": "uint256",
					"internalType": "uint256"
				}
			]
		},
		{
			"type": "error",
			"name": "SafeERC20FailedOperation",
			"inputs": [
				{
					"name": "token",
					"type": "address",
					"internalType": "address"
				}
			]
		},
		{
			"type": "error",
			"name": "TERMINAL_TOKENS_INCOMPATIBLE",
			"inputs": []
		},
		{
			"type": "error",
			"name": "TOKEN_NOT_ACCEPTED",
			"inputs": []
		},
		{
			"type": "error",
			"name": "UNAUTHORIZED",
			"inputs": []
		},
		{
			"type": "error",
			"name": "UNDER_MIN_RETURNED_TOKENS",
			"inputs": []
		}
	],
	"solcInputHash": "d72d671cb704a380777b1be08dd807eb",
	"args": [
		"0xaDa1E1EE4576Da063EAD17d1ACf49254FA881F0E",
		"0xC99C2fCc0dC51dd0dAd1fd7B58236bB4d73bAaa8",
		"0xc9cb7a0BAB7569b5B6De26A679D107D4D412B349",
		"0xBF86912A8B061a0bb03d9B7428B0e40b2a4811c7",
		"0x01c946E0978CD0D5167DCB1979B9B79B1C2E490a",
		"0x327Ef1062d1FA11F0aEC12fF6788FCE19A9cB1c3",
		"0x000000000022D473030F116dDEE9F6B43aC78BA3",
		"0xB2b5841DBeF766d4b521221732F9B618fCf34A87"
	],
	"bytecode": "0x6101806040523480156200001257600080fd5b50604051620061933803806200619383398101604081905262000035916200008b565b6001600160a01b03978816608052871660a05294861660c05292851660e0529084166101005283166101205282166101405216610160526200014c565b6001600160a01b03811681146200008857600080fd5b50565b600080600080600080600080610100898b031215620000a957600080fd5b8851620000b68162000072565b60208a0151909850620000c98162000072565b60408a0151909750620000dc8162000072565b60608a0151909650620000ef8162000072565b60808a0151909550620001028162000072565b60a08a0151909450620001158162000072565b60c08a0151909350620001288162000072565b60e08a01519092506200013b8162000072565b809150509295985092959890939650565b60805160a05160c05160e05161010051610120516101405161016051615f016200029260003960008181610443015281816120ee01526124fe01526000818161040f015281816107c901528181610b6801528181610e820152818161283101528181612cb70152613f7301526000818161031f01528181611695015281816118af01528181611b5e01528181611d7d015281816127a201528181612af501528181612e8701528181613920015261459e0152600081816101b201526141f40152600081816104aa01528181610a88015281816111e301528181611e3a0152818161225701528181612ba30152613e270152600081816101fe0152818161114d0152818161151501528181611772015281816128d20152612f2501526000818161038b015281816104740152613a4a0152600081816105c601526126dd0152615f016000f3fe6080604052600436106101665760003560e01c80636afdd850116100d1578063bb7214fe1161008a578063cfaf583911610064578063cfaf583914610574578063e28b541114610594578063f434c914146105b4578063fef43257146105e857600080fd5b8063bb7214fe1461051f578063c57981b51461053f578063cc6801271461055457600080fd5b80636afdd850146104315780637da0a8771461046557806388bc2ef31461049857806398ea47fc146104cc5780639e6eec05146104ec578063b62d17cf146104ff57600080fd5b8063507f146511610123578063507f14651461030d578063515a929314610341578063572b6c051461036e5780635f912e56146103bb57806362ef3036146103dd578063659a2047146103fd57600080fd5b806301ffc9a71461016b5780631f47ce69146101a0578063293c4999146101ec57806333b30610146102205780633a01714f1461024d57806343a89aaf146102df575b600080fd5b34801561017757600080fd5b5061018b6101863660046148a3565b6105fb565b60405190151581526020015b60405180910390f35b3480156101ac57600080fd5b506101d47f000000000000000000000000000000000000000000000000000000000000000081565b6040516001600160a01b039091168152602001610197565b3480156101f857600080fd5b506101d47f000000000000000000000000000000000000000000000000000000000000000081565b34801561022c57600080fd5b5061024061023b3660046148e2565b6106ef565b6040516101979190614912565b34801561025957600080fd5b506102d26102683660046148e2565b6040805160608082018352600080835260208084018290529284018190529485528482528285206001600160a01b03948516865282529382902082519485018352549283168452600160a01b830460ff1690840152600160a81b90910463ffffffff169082015290565b604051610197919061499f565b3480156102eb57600080fd5b506102ff6102fa3660046149ad565b61078f565b604051908152602001610197565b34801561031957600080fd5b506101d47f000000000000000000000000000000000000000000000000000000000000000081565b34801561034d57600080fd5b5061036161035c366004614a15565b610f22565b6040516101979190614a74565b34801561037a57600080fd5b5061018b610389366004614a87565b7f00000000000000000000000000000000000000000000000000000000000000006001600160a01b0390811691161490565b3480156103c757600080fd5b506103db6103d6366004614aa4565b610fbc565b005b3480156103e957600080fd5b506103db6103f83660046148e2565b611123565b34801561040957600080fd5b506101d47f000000000000000000000000000000000000000000000000000000000000000081565b34801561043d57600080fd5b506101d47f000000000000000000000000000000000000000000000000000000000000000081565b34801561047157600080fd5b507f00000000000000000000000000000000000000000000000000000000000000006101d4565b3480156104a457600080fd5b506101d47f000000000000000000000000000000000000000000000000000000000000000081565b3480156104d857600080fd5b506103db6104e7366004614af5565b611133565b6103db6104fa366004614bc2565b61146d565b34801561050b57600080fd5b506102ff61051a366004614c69565b6114f0565b34801561052b57600080fd5b506102ff61053a366004614ce3565b6115fb565b34801561054b57600080fd5b506102ff601981565b34801561056057600080fd5b506102ff61056f366004614d3f565b611670565b34801561058057600080fd5b506102ff61058f366004614d6b565b61171c565b3480156105a057600080fd5b506102ff6105af366004614db3565b61174d565b3480156105c057600080fd5b506101d47f000000000000000000000000000000000000000000000000000000000000000081565b6102ff6105f6366004614df5565b611a29565b60006001600160e01b0319821663775c5eb360e11b148061062c57506001600160e01b03198216633d0d324560e21b145b8061064757506001600160e01b03198216632f720bd160e21b145b8061066257506001600160e01b03198216635db90a7f60e11b145b8061067d57506001600160e01b03198216633a2ad55960e01b145b8061069857506001600160e01b031982166306afdd8560e41b145b806106b357506001600160e01b0319821663775c5eb360e11b145b806106ce57506001600160e01b031982166357175cc160e11b145b806106e957506001600160e01b031982166301ffc9a760e01b145b92915050565b60008281526002602090815260408083206001600160a01b03851684528252808320805482518185028101850190935280835260609492939192909184015b828210156107835760008481526020908190206040805160608101825260038602909201805483526001808201546001600160a01b03168486015260029091015491830191909152908352909201910161072e565b50505050905092915050565b600033301461079d57600080fd5b508160006107b160c0880160a08901614a87565b6001600160a01b031614610a52576001600160a01b037f00000000000000000000000000000000000000000000000000000000000000001663ae74a1b56107fe60c0890160a08a01614a87565b6040516001600160e01b031960e084901b1681526001600160a01b039091166004820152602401602060405180830381865afa158015610842573d6000803e3d6000fd5b505050506040513d601f19601f820116820180604052508101906108669190614ea8565b61088257610875836019611ae6565b61087f9082614edb565b90505b6040805160c0810182526001600160a01b0386168082526020808301859052600089815280825284812083825290915283812054600160a01b900460ff169383019390935260608201889052608082015260a081016108e6368a90038a018a614fc3565b905290506108fa60c0880160a08901614a87565b6040516301ffc9a760e01b81526312903a8560e01b60048201526001600160a01b0391909116906301ffc9a790602401602060405180830381865afa158015610947573d6000803e3d6000fd5b505050506040513d601f19601f8201168201806040525081019061096b9190614ea8565b6109a45760405162461bcd60e51b81526020600482015260056024820152643430305f3160d81b60448201526064015b60405180910390fd5b6109be6109b760c0890160a08a01614a87565b8684611b08565b60006001600160a01b03861661eeee146109d95760006109db565b825b90506109ed60c0890160a08a01614a87565b6001600160a01b03166312903a8582846040518363ffffffff1660e01b8152600401610a19919061507f565b6000604051808303818588803b158015610a3257600080fd5b505af1158015610a46573d6000803e3d6000fd5b50505050505050610f19565b604086013515610e295760408051630862026560e41b81529087013560048201526001600160a01b0385811660248301526000917f000000000000000000000000000000000000000000000000000000000000000090911690638620265090604401602060405180830381865afa158015610ad1573d6000803e3d6000fd5b505050506040513d601f19601f82011682018060405250810190610af591906150d3565b90506001600160a01b038116610b355760405162461bcd60e51b81526020600482015260056024820152641a181a2f9960d91b604482015260640161099b565b6001600160a01b0381163014801590610bd5575060405163ae74a1b560e01b81526001600160a01b0382811660048301527f0000000000000000000000000000000000000000000000000000000000000000169063ae74a1b590602401602060405180830381865afa158015610baf573d6000803e3d6000fd5b505050506040513d601f19601f82011682018060405250810190610bd39190614ea8565b155b15610bf257610be5846019611ae6565b610bef9083614edb565b91505b6001600160a01b0381163014610c0d57610c0d818684611b08565b600086604051602001610c2291815260200190565b60408051601f198184030181529190529050610c4160208901896150f0565b15610d0e57306001600160a01b03831603610c7d57610c788860400135878560006040518060200160405280600081525086611b39565b610e22565b60006001600160a01b03871661eeee14610c98576000610c9a565b835b9050826001600160a01b0316639e6eec05828b604001358a886000886040518763ffffffff1660e01b8152600401610cd695949392919061515d565b6000604051808303818588803b158015610cef57600080fd5b505af1158015610d03573d6000803e3d6000fd5b505050505050610e22565b600080610d2160808b0160608c01614a87565b6001600160a01b031603610d355784610d45565b610d4560808a0160608b01614a87565b9050306001600160a01b03841603610d7f57610d798960400135888630856040518060200160405280600081525088611c45565b50610e20565b60006001600160a01b03881661eeee14610d9a576000610d9c565b845b9050836001600160a01b031663fef43257828c604001358b898760008a6040518863ffffffff1660e01b8152600401610dda969594939291906151ab565b60206040518083038185885af1158015610df8573d6000803e3d6000fd5b50505050506040513d601f19601f82011682018060405250810190610e1d91906151f7565b50505b505b5050610f19565b600080610e3c6080890160608a01614a87565b6001600160a01b031603610e505782610e60565b610e606080880160608901614a87565b60405163ae74a1b560e01b81526001600160a01b0380831660048301529192507f00000000000000000000000000000000000000000000000000000000000000009091169063ae74a1b590602401602060405180830381865afa158015610ecb573d6000803e3d6000fd5b505050506040513d601f19601f82011682018060405250810190610eef9190614ea8565b610f0b57610efe846019611ae6565b610f089083614edb565b91505b610f1730828785611fbc565b505b95945050505050565b606060016000838152602001908152602001600020805480602002602001604051908101604052809291908181526020016000905b82821015610fb157600084815260209081902060408051606081018252918501546001600160a01b0381168352600160a01b810460ff1683850152600160a81b900463ffffffff1690820152825260019092019101610f57565b505050509050919050565b333014610fc857600080fd5b6001600160a01b0381166110065760405162461bcd60e51b81526020600482015260056024820152643430345f3160d81b604482015260640161099b565b6001600160a01b038116301461102157611021818585611b08565b60008560405160200161103691815260200190565b60408051601f198184030181529190529050306001600160a01b0383160361107d576110776001868630876040518060200160405280600081525087611c45565b5061111b565b60006001600160a01b03861661eeee1461109857600061109a565b845b9050826001600160a01b031663fef432578260018989896000896040518863ffffffff1660e01b81526004016110d5969594939291906151ab565b60206040518083038185885af11580156110f3573d6000803e3d6000fd5b50505050506040513d601f19601f8201168201806040525081019061111891906151f7565b50505b505050505050565b61112f8282600061214c565b5050565b6040516331a9108f60e11b81526004810184905261126e907f00000000000000000000000000000000000000000000000000000000000000006001600160a01b031690636352211e90602401602060405180830381865afa15801561119c573d6000803e3d6000fd5b505050506040513d601f19601f820116820180604052508101906111c091906150d3565b604051632eec7b5560e11b81526004810186905285906013906001600160a01b037f00000000000000000000000000000000000000000000000000000000000000001690635dd8f6aa90602401602060405180830381865afa15801561122a573d6000803e3d6000fd5b505050506040513d601f19601f8201168201806040525081019061124e91906150d3565b6001600160a01b031661125f612388565b6001600160a01b031614612397565b806000805b8281101561111b5784848281811061128d5761128d615210565b90506020020160208101906112a29190614a87565b6000878152602081815260408083206001600160a01b038086168552925290912080549294509116156112e85760405163b83f909160e01b815260040160405180910390fd5b80546001600160a01b0319166001600160a01b038416908117825561eeee1461137257826001600160a01b031663313ce5676040518163ffffffff1660e01b8152600401602060405180830381865afa158015611349573d6000803e3d6000fd5b505050506040513d601f19601f8201168201806040525081019061136d919061523c565b611375565b60125b815464ffffffffff60a01b1916600160a01b60ff928316810263ffffffff60a81b1990811692909217600160a81b63ffffffff888116820292909217865560008c815260016020818152604083208054928301815583529091208754910180546001600160a01b039283166001600160a01b031982168117835589546001600160a81b03199092161790869004909716909402959095178084558654941693819004909116029190911790558316877f9570de6fc0456f642bd0a001b24cd31676388c24596df64a17190c24310690a18361144e612388565b60405161145c929190615282565b60405180910390a350600101611273565b611118888861147f8b8b8b88886123a7565b8888888080601f01602080910402602001604051908101604052809392919081815260200183838082843760009201919091525050604080516020601f8c018190048102820181019092528a815292508a9150899081908401838280828437600092019190915250611b3992505050565b6040516331a9108f60e11b815260048101899052600090611588906001600160a01b037f00000000000000000000000000000000000000000000000000000000000000001690636352211e90602401602060405180830381865afa15801561155c573d6000803e3d6000fd5b505050506040513d601f19601f8201168201806040525081019061158091906150d3565b8a6010612671565b6115cc898989898888888080601f01602080910402602001604051908101604052809392919081815260200183838082843760009201919091525061276892505050565b9050848110156115ef5760405163a1a08d1760e01b815260040160405180910390fd5b98975050505050505050565b600061160989896003612671565b61164d898989898888888080601f0160208091040260200160405190810160405280939291908181526020018383808284376000920191909152506129f892505050565b9050848110156115ef5760405163f896960b60e01b815260040160405180910390fd5b600083815260016020526040808220905163d60d1a0960e01b81526001600160a01b037f0000000000000000000000000000000000000000000000000000000000000000169163d60d1a09916116d1913091899190899089906004016152a8565b602060405180830381865afa1580156116ee573d6000803e3d6000fd5b505050506040513d601f19601f8201168201806040525081019061171291906151f7565b90505b9392505050565b600061172a86868686612e4d565b905081811015610f195760405163a1a08d1760e01b815260040160405180910390fd5b6040516331a9108f60e11b8152600481018490526000906117e5906001600160a01b037f00000000000000000000000000000000000000000000000000000000000000001690636352211e90602401602060405180830381865afa1580156117b9573d6000803e3d6000fd5b505050506040513d601f19601f820116820180604052508101906117dd91906150d3565b856005612671565b604051633a01714f60e01b8152600481018590526001600160a01b038481166024830152831690633a01714f90604401606060405180830381865afa158015611832573d6000803e3d6000fd5b505050506040513d601f19601f820116820180604052508101906118569190615319565b6020015160ff1660000361187d5760405163581010ed60e01b815260040160405180910390fd5b6118898484600161214c565b6040516319781e2360e01b8152600481018590526001600160a01b0384811660248301527f000000000000000000000000000000000000000000000000000000000000000016906319781e23906044016020604051808303816000875af11580156118f8573d6000803e3d6000fd5b505050506040513d601f19601f8201168201806040525081019061191c91906151f7565b905080156119c35761192f828483611b08565b60006001600160a01b03841661eeee1461194a57600061194c565b815b6040805160208101825260008082529151639e6eec0560e01b81529293506001600160a01b03861692639e6eec0592859261198f928b928b928a9260040161515d565b6000604051808303818588803b1580156119a857600080fd5b505af11580156119bc573d6000803e3d6000fd5b5050505050505b816001600160a01b0316836001600160a01b0316857ff0aa72bb9c2a07cf43281bfe8c525ba320fdc71e18b54c9f93ab22ce074af7f684611a02612388565b604080519283526001600160a01b0390911660208301520160405180910390a49392505050565b6000611ab68a8a611a3d8d8d8d89896123a7565b611a45612388565b8b8a8a8080601f01602080910402602001604051908101604052809392919081815260200183838082843760009201919091525050604080516020601f8e018190048102820181019092528c815292508c91508b9081908401838280828437600092019190915250611c4592505050565b905085811015611ad9576040516370dc561160e11b815260040160405180910390fd5b9998505050505050505050565b6000611afe836103e8611af98186615374565b61308c565b6117159084614edb565b61eeed196001600160a01b03831601611b2057505050565b611b346001600160a01b0383168483613160565b505050565b600083611b47576000611b52565b611b528787876131ea565b90506001600160a01b037f0000000000000000000000000000000000000000000000000000000000000000166351fc17358888611b8f858a615374565b6040516001600160e01b031960e086901b16815260048101939093526001600160a01b0390911660248301526044820152606401600060405180830381600087803b158015611bdd57600080fd5b505af1158015611bf1573d6000803e3d6000fd5b50505050867f9ecaf7fc3dfffd6867c175d6e684b1f1e3aef019398ba8db2c1ffab4a09db25386838686611c23612388565b604051611c34959493929190615387565b60405180910390a250505050505050565b6000611c4f614801565b60606000611c87604051806080016040528060006001600160a01b031681526020016000815260200160008152602001600081525090565b60008060008e815260200190815260200160002060008d6001600160a01b03166001600160a01b031681526020019081526020016000206040518060600160405290816000820160009054906101000a90046001600160a01b03166001600160a01b03166001600160a01b031681526020016000820160149054906101000a900460ff1660ff1660ff1681526020016000820160159054906101000a900463ffffffff1663ffffffff1663ffffffff1681525050905060405180608001604052808d6001600160a01b031681526020018c8152602001826020015160ff168152602001826040015163ffffffff168152509150507f00000000000000000000000000000000000000000000000000000000000000006001600160a01b0316639e6840c18a838f8c8b6040518663ffffffff1660e01b8152600401611dcf9594939291906153ff565b6000604051808303816000875af1158015611dee573d6000803e3d6000fd5b505050506040513d6000823e601f3d908101601f19168201604052611e169190810190615552565b91955090935091508115611f4157604051632eec7b5560e11b8152600481018d90527f00000000000000000000000000000000000000000000000000000000000000006001600160a01b031690635dd8f6aa90602401602060405180830381865afa158015611e89573d6000803e3d6000fd5b505050506040513d601f19601f82011682018060405250810190611ead91906150d3565b6040516363fdc96f60e11b8152600481018e9052602481018490526001600160a01b038a8116604483015260a06064830152600060a483015260016084830152919091169063c7fb92de9060c4016020604051808303816000875af1158015611f1a573d6000803e3d6000fd5b505050506040513d601f19601f82011682018060405250810190611f3e91906151f7565b94505b825115611f5857611f588c84838c888d8b8d6134fa565b8b846000015185602001517f133161f1c9161488f777ab9a26aae91d47c0d9a3fafb398960f138db02c737978c8c8f8b8e8e611f92612388565b604051611fa59796959493929190615676565b60405180910390a450505050979650505050505050565b61eeed196001600160a01b03831601611fde57611fd98382613720565b612146565b306001600160a01b0385160361200257611fd96001600160a01b03831684836137b7565b604051636eb1769f60e11b81526001600160a01b03858116600483015230602483015282919084169063dd62ed3e90604401602060405180830381865afa158015612051573d6000803e3d6000fd5b505050506040513d601f19601f8201168201806040525081019061207591906151f7565b1061208f57611fd96001600160a01b038316858584613816565b6001600160a01b038111156120b757604051633062f38960e11b815260040160405180910390fd5b604051631b63c28b60e11b81526001600160a01b0385811660048301528481166024830152828116604483015283811660648301527f000000000000000000000000000000000000000000000000000000000000000016906336c7851690608401600060405180830381600087803b15801561213257600080fd5b505af1158015611118573d6000803e3d6000fd5b50505050565b60008381526002602090815260408083206001600160a01b0386168452825280832080548251818502810185019093528083529192909190849084015b828210156121de5760008481526020908190206040805160608101825260038602909201805483526001808201546001600160a01b031684860152600290910154918301919091529083529092019101612189565b50505060008681526002602090815260408083206001600160a01b03891684529091528120929350612211929150614856565b8051604080516060810182526000808252602082018190528183018190529151630862026560e41b8152600160048201526001600160a01b0387811660248301529192917f00000000000000000000000000000000000000000000000000000000000000001690638620265090604401602060405180830381865afa15801561229e573d6000803e3d6000fd5b505050506040513d601f19601f820116820180604052508101906122c291906150d3565b905060005b83811015611118578481815181106122e1576122e1615210565b60200260200101519250851580156122fc5750428360400151115b156123695760008881526002602081815260408084206001600160a01b038c811686529083528185208054600180820183559187529584902089516003909702019586559288015192850180546001600160a01b0319169390911692909217909155850151910155612380565b61238088888560000151866020015186600161384f565b6001016122c7565b6000612392613a3a565b905090565b8061214657612146848484612671565b6000858152602081815260408083206001600160a01b0388811685529252822054166123e657604051630faa917b60e11b815260040160405180910390fd5b61eeed196001600160a01b03861601612400575034610f19565b341561241f57604051635e7e9adf60e11b815260040160405180910390fd5b30612428612388565b6001600160a01b03160361243d575082610f19565b6000612467604051806040016040528060078152602001663832b936b4ba1960c91b815250613aaf565b90506000806124ac8387878080601f016020809104026020016040519081016040528093929190818152602001838380828437600092019190915250613ac392505050565b91509150811561262f576000818060200190518101906124cc91906156ec565b90508781602001516001600160a01b031610156124fc576040516317e415a160e11b815260040160405180910390fd5b7f00000000000000000000000000000000000000000000000000000000000000006001600160a01b0316632b67b570612533612388565b604051806060016040528060405180608001604052808f6001600160a01b0316815260200187602001516001600160a01b03168152602001876040015165ffffffffffff168152602001876060015165ffffffffffff168152508152602001306001600160a01b03168152602001856000015181525084608001516040518463ffffffff1660e01b81526004016125cc93929190615797565b600060405180830381600087803b1580156125e657600080fd5b505af19250505080156125f7575060015b61262d573d808015612625576040519150601f19603f3d011682016040523d82523d6000602084013e61262a565b606091505b50505b505b600061263a89613c69565b905061264f612647612388565b308b8b611fbc565b806126598a613c69565b6126639190614edb565b9a9950505050505050505050565b600061267b612388565b9050836001600160a01b0316816001600160a01b03161415801561274a5750604051631a45b42760e11b81526001600160a01b0382811660048301528581166024830152604482018590526064820184905260016084830181905260a48301527f0000000000000000000000000000000000000000000000000000000000000000169063348b684e9060c401602060405180830381865afa158015612724573d6000803e3d6000fd5b505050506040513d601f19601f820116820180604052508101906127489190614ea8565b155b156121465760405163075fd2b160e01b815260040160405180910390fd5b6000612772614801565b6000888152602081815260408083206001600160a01b038b81168552925291829020915163060f2bdf60e31b81527f0000000000000000000000000000000000000000000000000000000000000000909116916330795ef8916127dd918c918b908b9060040161580b565b610140604051808303816000875af11580156127fd573d6000803e3d6000fd5b505050506040513d601f19601f820116820180604052508101906128219190615831565b9250905060006001600160a01b037f00000000000000000000000000000000000000000000000000000000000000001663ae74a1b561285e612388565b6040516001600160e01b031960e084901b1681526001600160a01b039091166004820152602401602060405180830381865afa1580156128a2573d6000803e3d6000fd5b505050506040513d601f19601f820116820180604052508101906128c69190614ea8565b612978576129738989857f00000000000000000000000000000000000000000000000000000000000000006001600160a01b0316636352211e8e6040518263ffffffff1660e01b815260040161291e91815260200190565b602060405180830381865afa15801561293b573d6000803e3d6000fd5b505050506040513d601f19601f8201168201806040525081019061295f91906150d3565b610100870151604c1c600190811614613cf1565b61297b565b60005b6129859084614edb565b905080156129995761299930868a84611fbc565b88826000015183602001517f8657a0c05a68a912c23c1bd00124afaa8c669063b046bd9bfd22b21d573c5e6d888b88878b6129d2612388565b6040516129e496959493929190615860565b60405180910390a450509695505050505050565b6000612a02614801565b6000878152602081815260408083206001600160a01b038a8116855290835281842082516060808201855291549283168152600160a01b830460ff1681860152600160a81b90920463ffffffff16828401528b855260018452828520805484518187028101870190955280855291959492938593909290849084015b82821015612ad857600084815260209081902060408051606081018252918501546001600160a01b0381168352600160a01b810460ff1683850152600160a81b900463ffffffff1690820152825260019092019101612a7e565b5050604051630d346b8160e01b8152929350506001600160a01b037f00000000000000000000000000000000000000000000000000000000000000001691630d346b819150612b35908f908f908e90889088908f906004016158aa565b6000604051808303816000875af1158015612b54573d6000803e3d6000fd5b505050506040513d6000823e601f3d908101601f19168201604052612b7c91908101906158fc565b91985091965094509250508715612c9057604051632eec7b5560e11b8152600481018b90527f00000000000000000000000000000000000000000000000000000000000000006001600160a01b031690635dd8f6aa90602401602060405180830381865afa158015612bf2573d6000803e3d6000fd5b505050506040513d601f19601f82011682018060405250810190612c1691906150d3565b60405163516a997360e11b81526001600160a01b038d81166004830152602482018d9052604482018b90526080606483015260006084830152919091169063a2d532e69060a401600060405180830381600087803b158015612c7757600080fd5b505af1158015612c8b573d6000803e3d6000fd5b505050505b60008515612d6c5760405163ae74a1b560e01b81526001600160a01b0389811660048301527f0000000000000000000000000000000000000000000000000000000000000000169063ae74a1b590602401602060405180830381865afa158015612cfe573d6000803e3d6000fd5b505050506040513d601f19601f82011682018060405250810190612d229190614ea8565b158015612d3157506127108314155b15612d5a57612d408682615374565b9050612d4d866019611ae6565b612d579087614edb565b95505b8515612d6c57612d6c30898c89611fbc565b835115612dcb57612dbe8b60405180608001604052808d6001600160a01b03168152602001898152602001856020015160ff168152602001856040015163ffffffff168152508e8c8b8a898f8c613ea5565b612dc89082615374565b90505b80600003612dda576000612de8565b612de88b8b838b6000613cf1565b508a856000015186602001517f9565fc8bdd4f45a73582d1163dbe522a4fb0c4dbb882b5e66269f70101a2509a8f8c8e898d8f612e23612388565b604051612e369796959493929190615a28565b60405180910390a450505050509695505050505050565b6000612e57614801565b6000868152602081815260408083206001600160a01b038981168552925291829020915163181241e760e31b81527f00000000000000000000000000000000000000000000000000000000000000009091169163c0920f3891612ec2918a918990899060040161580b565b610140604051808303816000875af1158015612ee2573d6000803e3d6000fd5b505050506040513d601f19601f82011682018060405250810190612f069190615831565b6040516331a9108f60e11b8152600481018990529093509091506000907f00000000000000000000000000000000000000000000000000000000000000006001600160a01b031690636352211e90602401602060405180830381865afa158015612f74573d6000803e3d6000fd5b505050506040513d601f19601f82011682018060405250810190612f9891906150d3565b9050600080612fad89898660200151886141ba565b90925090506000612fd98a8a612fc38686615374565b6101008901518890604c1c600190811614613cf1565b90506000831561300657612fee846019611ae6565b612ff89085614edb565b905061300630868c84611fbc565b8a866000015187602001517fda42c5c18ef97738d10c32811895add569670a6fcbe9627ea198d446f3be6dea888d8c888861303f612388565b604080516001600160a01b03978816815260208101969096528501939093526060840191909152608083015290911660a082015260c00160405180910390a4505050505050949350505050565b60008080600019858709858702925082811083820303915050806000036130c6578382816130bc576130bc615a7b565b0492505050611715565b8381106130f757604051630c740aef60e31b815260048101879052602481018690526044810185905260640161099b565b60008486880960026001871981018816978890046003810283188082028403028082028403028082028403028082028403028082028403029081029092039091026000889003889004909101858311909403939093029303949094049190911702949350505050565b604051636eb1769f60e11b81523060048201526001600160a01b0383811660248301526000919085169063dd62ed3e90604401602060405180830381865afa1580156131b0573d6000803e3d6000fd5b505050506040513d601f19601f820116820180604052508101906131d491906151f7565b905061214684846131e58585615374565b614386565b60008381526002602090815260408083206001600160a01b0386168452825280832080548251818502810185019093528083528493849084015b828210156132795760008481526020908190206040805160608101825260038602909201805483526001808201546001600160a01b031684860152600290910154918301919091529083529092019101613224565b50505060008781526002602090815260408083206001600160a01b038a16845290915281209293506132ac929150614856565b8051604080516060810182526000808252602082018190529181018290528592915b82811015613490578481815181106132e8576132e8615210565b60200260200101519150836000036133625760008981526002602081815260408084206001600160a01b038d811686529083528185208054600180820183559187529584902088516003909702019586559287015192850180546001600160a01b0319169390911692909217909155840151910155613488565b600061337383600001516019611ae6565b905060008184600001516133879190614edb565b905080861061339e57968101969485900394613485565b6133a9866019614416565b9150600260008c815260200190815260200160002060008b6001600160a01b03166001600160a01b031681526020019081526020016000206040518060600160405280888403815260200186602001516001600160a01b03168152602001866040015181525090806001815401808255809150506001900390600052602060002090600302016000909190919091506000820151816000015560208201518160010160006101000a8154816001600160a01b0302191690836001600160a01b031602179055506040820151816002015550508188019750600095505b50505b6001016132ce565b5085876001600160a01b0316897fedc5125503c021a73fd7d8ed0c2456b296be2c88f39fbed068bd091cef7ca43d88876134c8612388565b6040805193845260208401929092526001600160a01b03169082015260600160405180910390a4505050509392505050565b6000604051806101400160405280876001600160a01b031681526020018a8152602001866020015181526020018881526020018881526020018660a001518152602001848152602001856001600160a01b031681526020016040518060200160405280600081525081526020018381525090506000885190506135a0604051806060016040528060006001600160a01b0316815260200160008152602001606081525090565b60005b82811015613712578a81815181106135bd576135bd615210565b6020026020010151915060405180608001604052808b600001516001600160a01b03168152602001836020015181526020018b6040015181526020018b606001518152508460800181905250816040015184610100018190525061362e82600001518b600001518460200151611b08565b89516000906001600160a01b031661eeee1461364b576000613651565b82602001515b835160405163f3c5788160e01b81529192506001600160a01b03169063f3c57881908390613683908990600401615b3d565b6000604051808303818588803b15801561369c57600080fd5b505af11580156136b0573d6000803e3d6000fd5b505050505082600001516001600160a01b03167f092bf36eb737817b64e5cea9e9b69305c423a987b5c3066516b046cad5c0bc368685602001516136f2612388565b60405161370193929190615b50565b60405180910390a2506001016135a3565b505050505050505050505050565b804710156137435760405163cd78605960e01b815230600482015260240161099b565b6000826001600160a01b03168260405160006040518083038185875af1925050503d8060008114613790576040519150601f19603f3d011682016040523d82523d6000602084013e613795565b606091505b5050905080611b3457604051630a12f52160e11b815260040160405180910390fd5b6040516001600160a01b03838116602483015260448201839052611b3491859182169063a9059cbb906064015b604051602081830303815290604052915060e01b6020820180516001600160e01b038381831617835250505050614425565b6040516001600160a01b0384811660248301528381166044830152606482018390526121469186918216906323b872dd906084016137e4565b604051632fc8972b60e11b8152600481018790526001600160a01b038087166024830152604482018690528085166064830152831660848201523090635f912e569060a401600060405180830381600087803b1580156138ae57600080fd5b505af19250505080156138bf575060015b6139d1573d8080156138ed576040519150601f19603f3d011682016040523d82523d6000602084013e6138f2565b606091505b506040516351fc173560e01b8152600481018890526001600160a01b038781166024830152604482018790527f000000000000000000000000000000000000000000000000000000000000000016906351fc173590606401600060405180830381600087803b15801561396457600080fd5b505af1158015613978573d6000803e3d6000fd5b505050506001866001600160a01b0316887f4b73f3c5cfb174c9d0494138d07ff8ee3aa400df46327d9893ed5ac122dd558a88856139b4612388565b6040516139c393929190615b83565b60405180910390a45061111b565b83856001600160a01b0316877fb514e730b3f8ad3aa94b6857bcc5ff4a46954bdcf8c4b0346705b1d0ac7a43258487613a08612388565b6040805193151584526001600160a01b03928316602085015291169082015260600160405180910390a4505050505050565b6000366014336001600160a01b037f000000000000000000000000000000000000000000000000000000000000000016148015613a775750808210155b15613aa757600036613a898385614edb565b613a94928290615bb4565b613a9d91615bde565b60601c9250505090565b339250505090565b805160208201206000903060601b186106e9565b600060606025835111613ae85750506040805160208101909152600080825290613c62565b600083613af760046020615374565b81518110613b0757613b07615210565b0160209081015160f81c91505b600085613b22600484615374565b81518110613b3257613b32615210565b01602001516001600160f81b03191614801590613b585750613b55602083615c13565b81105b15613c5f57600085613b6b600484615374565b81518110613b7b57613b7b615210565b016020908101518784019091015160f89190911c91506001600160e01b031980891690821603613c55576000613bb2602086615c13565b613bbd600986615374565b101580613bf2575087613bd1600986615374565b81518110613be157613be1615210565b01602001516001600160f81b031916155b613c2b57602088613c04600987615374565b81518110613c1457613c14615210565b0160200151613c26919060f81c615c13565b613c2e565b87515b90506001613c4789613c41602087615c13565b84614488565b965096505050505050613c62565b5050600501613b14565b50505b9250929050565b60006001600160a01b03821661eeee14613cea576040516370a0823160e01b81523060048201526001600160a01b038316906370a0823190602401602060405180830381865afa158015613cc1573d6000803e3d6000fd5b505050506040513d601f19601f82011682018060405250810190613ce591906151f7565b6106e9565b4792915050565b6000613cfe846019611ae6565b90508115613dfe5760008681526002602090815260408083206001600160a01b03808a168552908352928190208151606081018352888152938716928401929092529091908101613d526224ea0042615374565b9052815460018082018455600093845260209384902083516003909302019182559282015192810180546001600160a01b0319166001600160a01b0394851617905560409091015160029091015584908616877fef9cd8fc3b61b64b44042ada0a8a3ede1649bc1b112673da228120f13bf1381e601987613dd1612388565b604080519384526001600160a01b03928316602085015291169082015260600160405180910390a4610f19565b604051630862026560e41b8152600160048201526001600160a01b0386811660248301526000917f000000000000000000000000000000000000000000000000000000000000000090911690638620265090604401602060405180830381865afa158015613e70573d6000803e3d6000fd5b505050506040513d601f19601f82011682018060405250810190613e9491906150d3565b9050610f178787848785600061384f565b6000806040518061014001604052808a6001600160a01b031681526020018c8152602001876020015181526020018981526020018b81526020018b8152602001868152602001856001600160a01b03168152602001604051806020016040528060008152508152602001888152509050600083519050613f48604051806060016040528060006001600160a01b0316815260200160008152602001606081525090565b60005b828110156141a957858181518110613f6557613f65615210565b6020026020010151915060007f00000000000000000000000000000000000000000000000000000000000000006001600160a01b031663ae74a1b584600001516040518263ffffffff1660e01b8152600401613fd091906001600160a01b0391909116815260200190565b602060405180830381865afa158015613fed573d6000803e3d6000fd5b505050506040513d601f19601f820116820180604052508101906140119190614ea8565b6140295761402483602001516019611ae6565b61402c565b60005b9050801561405b5760208301516140439087615374565b955080836020018181516140579190614edb565b9052505b60405180608001604052808f600001516001600160a01b03168152602001846020015181526020018f6040015181526020018f606001518152508560a0018190525082604001518561010001819052506140c283600001518f600001518560200151611b08565b8d516000906001600160a01b031661eeee146140df5760006140e5565b83602001515b84516040516319bb132d60e21b81529192506001600160a01b0316906366ec4cb4908390614117908a90600401615cb9565b6000604051808303818588803b15801561413057600080fd5b505af1158015614144573d6000803e3d6000fd5b505050505083600001516001600160a01b03167f5d2ae7ac07b3a26000acaa692b550c84cbb87300557e0359791cfec9efe1615a87866020015185614187612388565b6040516141979493929190615ccc565b60405180910390a25050600101613f4b565b505050509998505050505050505050565b6040516369e11cc560e01b815260048101859052602481018390526001600160a01b0384811660448301526000918291633b9aca009183917f000000000000000000000000000000000000000000000000000000000000000016906369e11cc590606401600060405180830381865afa15801561423b573d6000803e3d6000fd5b505050506040513d6000823e601f3d908101601f191682016040526142639190810190615d04565b80516040805160c081018252600080825260208201819052918101829052606081018290526080810182905260a08101919091529192509060005b82811015614375578381815181106142b8576142b8615210565b6020026020010151915060006142d38984602001518861308c565b905060006142e3848e8e856144ce565b905080158015906142f45750818114155b15614306576143038289615374565b97505b811561431257818a0399505b8360200151870396508b6001600160a01b03168b8e7f39305f11865947ab83bc6548c8c77e5890ed5bc4a6ea54e6fe7b22f4f406f4b8878686614353612388565b6040516143639493929190615dfa565b60405180910390a4505060010161429e565b508695505050505094509492505050565b604080516001600160a01b038416602482015260448082018490528251808303909101815260649091019091526020810180516001600160e01b031663095ea7b360e01b1790526143d78482614654565b612146576040516001600160a01b0384811660248301526000604483015261440c91869182169063095ea7b3906064016137e4565b6121468482614425565b600061171583836103e861308c565b600061443a6001600160a01b038416836146f7565b9050805160001415801561445f57508080602001905181019061445d9190614ea8565b155b15611b3457604051635274afe760e01b81526001600160a01b038416600482015260240161099b565b60608282036040519150602081830101604052808252508260208501016020820160005b848110156144c45782810151828201526020016144ac565b5050509392505050565b6000306343a89aaf868686866144e2612388565b6040518663ffffffff1660e01b8152600401614502959493929190615e2e565b6020604051808303816000875af192505050801561453d575060408051601f3d908101601f1916820190925261453a918101906151f7565b60015b614649573d80801561456b576040519150601f19603f3d011682016040523d82523d6000602084013e614570565b606091505b506040516351fc173560e01b8152600481018690526001600160a01b038581166024830152604482018590527f000000000000000000000000000000000000000000000000000000000000000016906351fc173590606401600060405180830381600087803b1580156145e257600080fd5b505af11580156145f6573d6000803e3d6000fd5b50505050847f37b65da09d1a43465d8f823dcc858aa187792b35585b56afe707d57d7108d228878584614627612388565b6040516146379493929190615e6d565b60405180910390a2600091505061464c565b90505b949350505050565b6000806000846001600160a01b0316846040516146719190615eaf565b6000604051808303816000865af19150503d80600081146146ae576040519150601f19603f3d011682016040523d82523d6000602084013e6146b3565b606091505b50915091508180156146dd5750805115806146dd5750808060200190518101906146dd9190614ea8565b8015610f195750505050506001600160a01b03163b151590565b60606117158383600084600080856001600160a01b0316848660405161471d9190615eaf565b60006040518083038185875af1925050503d806000811461475a576040519150601f19603f3d011682016040523d82523d6000602084013e61475f565b606091505b509150915061476f868383614779565b9695505050505050565b60608261478e57614789826147d5565b611715565b81511580156147a557506001600160a01b0384163b155b156147ce57604051639996b31560e01b81526001600160a01b038516600482015260240161099b565b5080611715565b8051156147e55780518082602001fd5b604051630a12f52160e11b815260040160405180910390fd5b50565b6040518061012001604052806000815260200160008152602001600081526020016000815260200160008152602001600081526020016000815260200160006001600160a01b03168152602001600081525090565b50805460008255600302906000526020600020908101906147fe91905b8082111561489f5760008082556001820180546001600160a01b03191690556002820155600301614873565b5090565b6000602082840312156148b557600080fd5b81356001600160e01b03198116811461171557600080fd5b6001600160a01b03811681146147fe57600080fd5b600080604083850312156148f557600080fd5b823591506020830135614907816148cd565b809150509250929050565b602080825282518282018190526000919060409081850190868401855b8281101561496757815180518552868101516001600160a01b031687860152850151858501526060909301929085019060010161492f565b5091979650505050505050565b80516001600160a01b0316825260208082015160ff169083015260409081015163ffffffff16910152565b606081016106e98284614974565b60008060008060008587036101408112156149c757600080fd5b60c08112156149d557600080fd5b5085945060c0860135935060e08601356149ee816148cd565b92506101008601359150610120860135614a07816148cd565b809150509295509295909350565b600060208284031215614a2757600080fd5b5035919050565b60008151808452602080850194506020840160005b83811015614a6957614a56878351614974565b6060969096019590820190600101614a43565b509495945050505050565b6020815260006117156020830184614a2e565b600060208284031215614a9957600080fd5b8135611715816148cd565b600080600080600060a08688031215614abc57600080fd5b853594506020860135614ace816148cd565b9350604086013592506060860135614ae5816148cd565b91506080860135614a07816148cd565b600080600060408486031215614b0a57600080fd5b8335925060208401356001600160401b0380821115614b2857600080fd5b818601915086601f830112614b3c57600080fd5b813581811115614b4b57600080fd5b8760208260051b8501011115614b6057600080fd5b6020830194508093505050509250925092565b80151581146147fe57600080fd5b60008083601f840112614b9357600080fd5b5081356001600160401b03811115614baa57600080fd5b602083019150836020828501011115613c6257600080fd5b60008060008060008060008060c0898b031215614bde57600080fd5b883597506020890135614bf0816148cd565b9650604089013595506060890135614c0781614b73565b945060808901356001600160401b0380821115614c2357600080fd5b614c2f8c838d01614b81565b909650945060a08b0135915080821115614c4857600080fd5b50614c558b828c01614b81565b999c989b5096995094979396929594505050565b60008060008060008060008060e0898b031215614c8557600080fd5b883597506020890135614c97816148cd565b965060408901359550606089013594506080890135935060a0890135614cbc816148cd565b925060c08901356001600160401b03811115614cd757600080fd5b614c558b828c01614b81565b60008060008060008060008060e0898b031215614cff57600080fd5b8835614d0a816148cd565b9750602089013596506040890135614d21816148cd565b9550606089013594506080890135935060a0890135614cbc816148cd565b600080600060608486031215614d5457600080fd5b505081359360208301359350604090920135919050565b600080600080600060a08688031215614d8357600080fd5b853594506020860135614d95816148cd565b94979496505050506040830135926060810135926080909101359150565b600080600060608486031215614dc857600080fd5b833592506020840135614dda816148cd565b91506040840135614dea816148cd565b809150509250925092565b600080600080600080600080600060e08a8c031215614e1357600080fd5b8935985060208a0135614e25816148cd565b975060408a0135965060608a0135614e3c816148cd565b955060808a0135945060a08a01356001600160401b0380821115614e5f57600080fd5b614e6b8d838e01614b81565b909650945060c08c0135915080821115614e8457600080fd5b50614e918c828d01614b81565b915080935050809150509295985092959850929598565b600060208284031215614eba57600080fd5b815161171581614b73565b634e487b7160e01b600052601160045260246000fd5b818103818111156106e9576106e9614ec5565b634e487b7160e01b600052604160045260246000fd5b60405160c081016001600160401b0381118282101715614f2657614f26614eee565b60405290565b604051606081016001600160401b0381118282101715614f2657614f26614eee565b60405161012081016001600160401b0381118282101715614f2657614f26614eee565b60405160a081016001600160401b0381118282101715614f2657614f26614eee565b604051601f8201601f191681016001600160401b0381118282101715614fbb57614fbb614eee565b604052919050565b600060c08284031215614fd557600080fd5b614fdd614f04565b8235614fe881614b73565b808252506020830135602082015260408301356040820152606083013561500e816148cd565b60608201526080838101359082015260a083013561502b816148cd565b60a08201529392505050565b80511515825260208082015190830152604080820151908301526060808201516001600160a01b03908116918401919091526080808301519084015260a09182015116910152565b81516001600160a01b031681526020808301519082015260408083015190820152606080830151908201526080808301519082015260a0828101516101608301916150cc90840182615037565b5092915050565b6000602082840312156150e557600080fd5b8151611715816148cd565b60006020828403121561510257600080fd5b813561171581614b73565b60005b83811015615128578181015183820152602001615110565b50506000910152565b6000815180845261514981602086016020860161510d565b601f01601f19169290920160200192915050565b85815260018060a01b0385166020820152836040820152821515606082015260c06080820152600060c082015260e060a082015260006151a060e0830184615131565b979650505050505050565b868152600060018060a01b03808816602084015286604084015280861660608401525083608083015260e060a0830152600060e08301526101008060c0840152611ad981840185615131565b60006020828403121561520957600080fd5b5051919050565b634e487b7160e01b600052603260045260246000fd5b805160ff8116811461523757600080fd5b919050565b60006020828403121561524e57600080fd5b61171582615226565b546001600160a01b038116825260a081901c60ff16602083015260a81c63ffffffff16604090910152565b608081016152908285615257565b6001600160a01b039290921660609190910152919050565b6001600160a01b0386168152602080820186905260a060408301819052855490830181905260008681529182209060c0840190835b81811015615302576152ef8385615257565b60019384019360609390930192016152dd565b505060608401959095525050608001529392505050565b60006060828403121561532b57600080fd5b615333614f2c565b825161533e816148cd565b815261534c60208401615226565b6020820152604083015163ffffffff8116811461536857600080fd5b60408201529392505050565b808201808211156106e9576106e9614ec5565b85815284602082015260a0604082015260006153a660a0830186615131565b82810360608401526153b88186615131565b91505060018060a01b03831660808301529695505050505050565b80516001600160a01b031682526020808201519083015260408082015190830152606090810151910152565b6001600160a01b0386811682526000906101009061542060208501896153d3565b8660a085015280861660c0850152508060e08401526115ef81840185615131565b8051615237816148cd565b6000610120828403121561545f57600080fd5b615467614f4e565b9050815181526020820151602082015260408201516040820152606082015160608201526080820151608082015260a082015160a082015260c082015160c08201526154b560e08301615441565b60e082015261010080830151818301525092915050565b60006001600160401b038211156154e5576154e5614eee565b5060051b60200190565b600082601f83011261550057600080fd5b81516001600160401b0381111561551957615519614eee565b61552c601f8201601f1916602001614f93565b81815284602083860101111561554157600080fd5b61464c82602083016020870161510d565b6000806000610160848603121561556857600080fd5b615572858561544c565b925061012084015191506101408401516001600160401b038082111561559757600080fd5b818601915086601f8301126155ab57600080fd5b815160206155c06155bb836154cc565b614f93565b82815260059290921b8401810191818101908a8411156155df57600080fd5b8286015b84811015615665578051868111156155fa57600080fd5b87016060818e03601f1901121561561057600080fd5b615618614f2c565b85820151615625816148cd565b81526040820151868201526060820151888111156156435760008081fd5b6156518f88838601016154ef565b6040830152508452509183019183016155e3565b508096505050505050509250925092565b600060018060a01b03808a168352808916602084015287604084015286606084015260e060808401526156ac60e0840187615131565b83810360a08501526156be8187615131565b92505080841660c08401525098975050505050505050565b805165ffffffffffff8116811461523757600080fd5b6000602082840312156156fe57600080fd5b81516001600160401b038082111561571557600080fd5b9083019060a0828603121561572957600080fd5b615731614f71565b825181526020830151615743816148cd565b6020820152615754604084016156d6565b6040820152615765606084016156d6565b606082015260808301518281111561577c57600080fd5b615788878286016154ef565b60808301525095945050505050565b600061010060018060a01b0380871684528551818151166020860152816020820151166040860152604081015165ffffffffffff80821660608801528060608401511660808801525050508060208701511660a085015250604085015160c08401528060e084015261476f81840185615131565b84815260c0810161581f6020830186615257565b608082019390935260a0015292915050565b600080610140838503121561584557600080fd5b61584f848461544c565b915061012083015190509250929050565b600060018060a01b03808916835287602084015286604084015285606084015260c0608084015261589460c0840186615131565b915080841660a084015250979650505050505050565b6001600160a01b0387168152602081018690526040810185905260006101006158d66060840187614974565b8060c08401526158e881840186614a2e565b905082810360e0840152611ad98185615131565b600080600080610180858703121561591357600080fd5b61591d868661544c565b9350610120850151925061014085015191506101608501516001600160401b038082111561594a57600080fd5b818701915087601f83011261595e57600080fd5b815161596c6155bb826154cc565b8082825260208201915060208360051b86010192508a83111561598e57600080fd5b602085015b83811015615a18578051858111156159aa57600080fd5b86016060818e03601f190112156159c057600080fd5b6159c8614f2c565b60208201516159d6816148cd565b8152604082015160208201526060820151878111156159f457600080fd5b615a038f6020838601016154ef565b60408301525084525060209283019201615993565b50979a9699509497505050505050565b600060018060a01b03808a168352808916602084015287604084015286606084015285608084015260e060a0840152615a6460e0840186615131565b915080841660c08401525098975050505050505050565b634e487b7160e01b600052601260045260246000fd5b80516001600160a01b03168252600061020060208301516020850152604083015160408501526060830151615ac960608601826153d3565b506080830151615adc60e08601826153d3565b5060a083015161016085015260c083015161018085015260e08301516001600160a01b03166101a08501526101008301516101c08501829052615b2182860182615131565b9150506101208301518482036101e0860152610f198282615131565b6020815260006117156020830184615a91565b606081526000615b636060830186615a91565b6020830194909452506001600160a01b0391909116604090910152919050565b838152606060208201526000615b9c6060830185615131565b905060018060a01b0383166040830152949350505050565b60008085851115615bc457600080fd5b83861115615bd157600080fd5b5050820193919092039150565b6bffffffffffffffffffffffff198135818116916014851015615c0b5780818660140360031b1b83161692505b505092915050565b80820281158282048414176106e9576106e9614ec5565b80516001600160a01b0316825260006102006020830151602085015260408301516040850152606083015160608501526080830151615c6c60808601826153d3565b5060a0830151610100615c81818701836153d3565b60c085015161018087015260e08501516001600160a01b03166101a08701528401516101c086018390529050615b2182860182615131565b6020815260006117156020830184615c2a565b608081526000615cdf6080830187615c2a565b60208301959095525060408101929092526001600160a01b0316606090910152919050565b60006020808385031215615d1757600080fd5b82516001600160401b03811115615d2d57600080fd5b8301601f81018513615d3e57600080fd5b8051615d4c6155bb826154cc565b81815260c09182028301840191848201919088841115615d6b57600080fd5b938501935b83851015615dee5780858a031215615d885760008081fd5b615d90614f04565b8551615d9b81614b73565b8152858701518782015260408087015190820152606080870151615dbe816148cd565b908201526080868101519082015260a080870151615ddb816148cd565b9082015283529384019391850191615d70565b50979650505050505050565b6101208101615e098287615037565b60c082019490945260e08101929092526001600160a01b031661010090910152919050565b6101408101615e3d8288615037565b60c08201959095526001600160a01b0393841660e082015261010081019290925290911661012090910152919050565b6000610120615e7c8388615037565b8560c08401528060e0840152615e9481840186615131565b91505060018060a01b03831661010083015295945050505050565b60008251615ec181846020870161510d565b919091019291505056fea2646970667358221220005330afdd983bb74b661820a16abf36f038ca8dcc372e889700b25a5b45b28a64736f6c63430008170033",
	"deployedBytecode": "0x6080604052600436106101665760003560e01c80636afdd850116100d1578063bb7214fe1161008a578063cfaf583911610064578063cfaf583914610574578063e28b541114610594578063f434c914146105b4578063fef43257146105e857600080fd5b8063bb7214fe1461051f578063c57981b51461053f578063cc6801271461055457600080fd5b80636afdd850146104315780637da0a8771461046557806388bc2ef31461049857806398ea47fc146104cc5780639e6eec05146104ec578063b62d17cf146104ff57600080fd5b8063507f146511610123578063507f14651461030d578063515a929314610341578063572b6c051461036e5780635f912e56146103bb57806362ef3036146103dd578063659a2047146103fd57600080fd5b806301ffc9a71461016b5780631f47ce69146101a0578063293c4999146101ec57806333b30610146102205780633a01714f1461024d57806343a89aaf146102df575b600080fd5b34801561017757600080fd5b5061018b6101863660046148a3565b6105fb565b60405190151581526020015b60405180910390f35b3480156101ac57600080fd5b506101d47f000000000000000000000000bf86912a8b061a0bb03d9b7428b0e40b2a4811c781565b6040516001600160a01b039091168152602001610197565b3480156101f857600080fd5b506101d47f000000000000000000000000c99c2fcc0dc51dd0dad1fd7b58236bb4d73baaa881565b34801561022c57600080fd5b5061024061023b3660046148e2565b6106ef565b6040516101979190614912565b34801561025957600080fd5b506102d26102683660046148e2565b6040805160608082018352600080835260208084018290529284018190529485528482528285206001600160a01b03948516865282529382902082519485018352549283168452600160a01b830460ff1690840152600160a81b90910463ffffffff169082015290565b604051610197919061499f565b3480156102eb57600080fd5b506102ff6102fa3660046149ad565b61078f565b604051908152602001610197565b34801561031957600080fd5b506101d47f00000000000000000000000001c946e0978cd0d5167dcb1979b9b79b1c2e490a81565b34801561034d57600080fd5b5061036161035c366004614a15565b610f22565b6040516101979190614a74565b34801561037a57600080fd5b5061018b610389366004614a87565b7f000000000000000000000000b2b5841dbef766d4b521221732f9b618fcf34a876001600160a01b0390811691161490565b3480156103c757600080fd5b506103db6103d6366004614aa4565b610fbc565b005b3480156103e957600080fd5b506103db6103f83660046148e2565b611123565b34801561040957600080fd5b506101d47f000000000000000000000000327ef1062d1fa11f0aec12ff6788fce19a9cb1c381565b34801561043d57600080fd5b506101d47f000000000000000000000000000000000022d473030f116ddee9f6b43ac78ba381565b34801561047157600080fd5b507f000000000000000000000000b2b5841dbef766d4b521221732f9b618fcf34a876101d4565b3480156104a457600080fd5b506101d47f000000000000000000000000c9cb7a0bab7569b5b6de26a679d107d4d412b34981565b3480156104d857600080fd5b506103db6104e7366004614af5565b611133565b6103db6104fa366004614bc2565b61146d565b34801561050b57600080fd5b506102ff61051a366004614c69565b6114f0565b34801561052b57600080fd5b506102ff61053a366004614ce3565b6115fb565b34801561054b57600080fd5b506102ff601981565b34801561056057600080fd5b506102ff61056f366004614d3f565b611670565b34801561058057600080fd5b506102ff61058f366004614d6b565b61171c565b3480156105a057600080fd5b506102ff6105af366004614db3565b61174d565b3480156105c057600080fd5b506101d47f000000000000000000000000ada1e1ee4576da063ead17d1acf49254fa881f0e81565b6102ff6105f6366004614df5565b611a29565b60006001600160e01b0319821663775c5eb360e11b148061062c57506001600160e01b03198216633d0d324560e21b145b8061064757506001600160e01b03198216632f720bd160e21b145b8061066257506001600160e01b03198216635db90a7f60e11b145b8061067d57506001600160e01b03198216633a2ad55960e01b145b8061069857506001600160e01b031982166306afdd8560e41b145b806106b357506001600160e01b0319821663775c5eb360e11b145b806106ce57506001600160e01b031982166357175cc160e11b145b806106e957506001600160e01b031982166301ffc9a760e01b145b92915050565b60008281526002602090815260408083206001600160a01b03851684528252808320805482518185028101850190935280835260609492939192909184015b828210156107835760008481526020908190206040805160608101825260038602909201805483526001808201546001600160a01b03168486015260029091015491830191909152908352909201910161072e565b50505050905092915050565b600033301461079d57600080fd5b508160006107b160c0880160a08901614a87565b6001600160a01b031614610a52576001600160a01b037f000000000000000000000000327ef1062d1fa11f0aec12ff6788fce19a9cb1c31663ae74a1b56107fe60c0890160a08a01614a87565b6040516001600160e01b031960e084901b1681526001600160a01b039091166004820152602401602060405180830381865afa158015610842573d6000803e3d6000fd5b505050506040513d601f19601f820116820180604052508101906108669190614ea8565b61088257610875836019611ae6565b61087f9082614edb565b90505b6040805160c0810182526001600160a01b0386168082526020808301859052600089815280825284812083825290915283812054600160a01b900460ff169383019390935260608201889052608082015260a081016108e6368a90038a018a614fc3565b905290506108fa60c0880160a08901614a87565b6040516301ffc9a760e01b81526312903a8560e01b60048201526001600160a01b0391909116906301ffc9a790602401602060405180830381865afa158015610947573d6000803e3d6000fd5b505050506040513d601f19601f8201168201806040525081019061096b9190614ea8565b6109a45760405162461bcd60e51b81526020600482015260056024820152643430305f3160d81b60448201526064015b60405180910390fd5b6109be6109b760c0890160a08a01614a87565b8684611b08565b60006001600160a01b03861661eeee146109d95760006109db565b825b90506109ed60c0890160a08a01614a87565b6001600160a01b03166312903a8582846040518363ffffffff1660e01b8152600401610a19919061507f565b6000604051808303818588803b158015610a3257600080fd5b505af1158015610a46573d6000803e3d6000fd5b50505050505050610f19565b604086013515610e295760408051630862026560e41b81529087013560048201526001600160a01b0385811660248301526000917f000000000000000000000000c9cb7a0bab7569b5b6de26a679d107d4d412b34990911690638620265090604401602060405180830381865afa158015610ad1573d6000803e3d6000fd5b505050506040513d601f19601f82011682018060405250810190610af591906150d3565b90506001600160a01b038116610b355760405162461bcd60e51b81526020600482015260056024820152641a181a2f9960d91b604482015260640161099b565b6001600160a01b0381163014801590610bd5575060405163ae74a1b560e01b81526001600160a01b0382811660048301527f000000000000000000000000327ef1062d1fa11f0aec12ff6788fce19a9cb1c3169063ae74a1b590602401602060405180830381865afa158015610baf573d6000803e3d6000fd5b505050506040513d601f19601f82011682018060405250810190610bd39190614ea8565b155b15610bf257610be5846019611ae6565b610bef9083614edb565b91505b6001600160a01b0381163014610c0d57610c0d818684611b08565b600086604051602001610c2291815260200190565b60408051601f198184030181529190529050610c4160208901896150f0565b15610d0e57306001600160a01b03831603610c7d57610c788860400135878560006040518060200160405280600081525086611b39565b610e22565b60006001600160a01b03871661eeee14610c98576000610c9a565b835b9050826001600160a01b0316639e6eec05828b604001358a886000886040518763ffffffff1660e01b8152600401610cd695949392919061515d565b6000604051808303818588803b158015610cef57600080fd5b505af1158015610d03573d6000803e3d6000fd5b505050505050610e22565b600080610d2160808b0160608c01614a87565b6001600160a01b031603610d355784610d45565b610d4560808a0160608b01614a87565b9050306001600160a01b03841603610d7f57610d798960400135888630856040518060200160405280600081525088611c45565b50610e20565b60006001600160a01b03881661eeee14610d9a576000610d9c565b845b9050836001600160a01b031663fef43257828c604001358b898760008a6040518863ffffffff1660e01b8152600401610dda969594939291906151ab565b60206040518083038185885af1158015610df8573d6000803e3d6000fd5b50505050506040513d601f19601f82011682018060405250810190610e1d91906151f7565b50505b505b5050610f19565b600080610e3c6080890160608a01614a87565b6001600160a01b031603610e505782610e60565b610e606080880160608901614a87565b60405163ae74a1b560e01b81526001600160a01b0380831660048301529192507f000000000000000000000000327ef1062d1fa11f0aec12ff6788fce19a9cb1c39091169063ae74a1b590602401602060405180830381865afa158015610ecb573d6000803e3d6000fd5b505050506040513d601f19601f82011682018060405250810190610eef9190614ea8565b610f0b57610efe846019611ae6565b610f089083614edb565b91505b610f1730828785611fbc565b505b95945050505050565b606060016000838152602001908152602001600020805480602002602001604051908101604052809291908181526020016000905b82821015610fb157600084815260209081902060408051606081018252918501546001600160a01b0381168352600160a01b810460ff1683850152600160a81b900463ffffffff1690820152825260019092019101610f57565b505050509050919050565b333014610fc857600080fd5b6001600160a01b0381166110065760405162461bcd60e51b81526020600482015260056024820152643430345f3160d81b604482015260640161099b565b6001600160a01b038116301461102157611021818585611b08565b60008560405160200161103691815260200190565b60408051601f198184030181529190529050306001600160a01b0383160361107d576110776001868630876040518060200160405280600081525087611c45565b5061111b565b60006001600160a01b03861661eeee1461109857600061109a565b845b9050826001600160a01b031663fef432578260018989896000896040518863ffffffff1660e01b81526004016110d5969594939291906151ab565b60206040518083038185885af11580156110f3573d6000803e3d6000fd5b50505050506040513d601f19601f8201168201806040525081019061111891906151f7565b50505b505050505050565b61112f8282600061214c565b5050565b6040516331a9108f60e11b81526004810184905261126e907f000000000000000000000000c99c2fcc0dc51dd0dad1fd7b58236bb4d73baaa86001600160a01b031690636352211e90602401602060405180830381865afa15801561119c573d6000803e3d6000fd5b505050506040513d601f19601f820116820180604052508101906111c091906150d3565b604051632eec7b5560e11b81526004810186905285906013906001600160a01b037f000000000000000000000000c9cb7a0bab7569b5b6de26a679d107d4d412b3491690635dd8f6aa90602401602060405180830381865afa15801561122a573d6000803e3d6000fd5b505050506040513d601f19601f8201168201806040525081019061124e91906150d3565b6001600160a01b031661125f612388565b6001600160a01b031614612397565b806000805b8281101561111b5784848281811061128d5761128d615210565b90506020020160208101906112a29190614a87565b6000878152602081815260408083206001600160a01b038086168552925290912080549294509116156112e85760405163b83f909160e01b815260040160405180910390fd5b80546001600160a01b0319166001600160a01b038416908117825561eeee1461137257826001600160a01b031663313ce5676040518163ffffffff1660e01b8152600401602060405180830381865afa158015611349573d6000803e3d6000fd5b505050506040513d601f19601f8201168201806040525081019061136d919061523c565b611375565b60125b815464ffffffffff60a01b1916600160a01b60ff928316810263ffffffff60a81b1990811692909217600160a81b63ffffffff888116820292909217865560008c815260016020818152604083208054928301815583529091208754910180546001600160a01b039283166001600160a01b031982168117835589546001600160a81b03199092161790869004909716909402959095178084558654941693819004909116029190911790558316877f9570de6fc0456f642bd0a001b24cd31676388c24596df64a17190c24310690a18361144e612388565b60405161145c929190615282565b60405180910390a350600101611273565b611118888861147f8b8b8b88886123a7565b8888888080601f01602080910402602001604051908101604052809392919081815260200183838082843760009201919091525050604080516020601f8c018190048102820181019092528a815292508a9150899081908401838280828437600092019190915250611b3992505050565b6040516331a9108f60e11b815260048101899052600090611588906001600160a01b037f000000000000000000000000c99c2fcc0dc51dd0dad1fd7b58236bb4d73baaa81690636352211e90602401602060405180830381865afa15801561155c573d6000803e3d6000fd5b505050506040513d601f19601f8201168201806040525081019061158091906150d3565b8a6010612671565b6115cc898989898888888080601f01602080910402602001604051908101604052809392919081815260200183838082843760009201919091525061276892505050565b9050848110156115ef5760405163a1a08d1760e01b815260040160405180910390fd5b98975050505050505050565b600061160989896003612671565b61164d898989898888888080601f0160208091040260200160405190810160405280939291908181526020018383808284376000920191909152506129f892505050565b9050848110156115ef5760405163f896960b60e01b815260040160405180910390fd5b600083815260016020526040808220905163d60d1a0960e01b81526001600160a01b037f00000000000000000000000001c946e0978cd0d5167dcb1979b9b79b1c2e490a169163d60d1a09916116d1913091899190899089906004016152a8565b602060405180830381865afa1580156116ee573d6000803e3d6000fd5b505050506040513d601f19601f8201168201806040525081019061171291906151f7565b90505b9392505050565b600061172a86868686612e4d565b905081811015610f195760405163a1a08d1760e01b815260040160405180910390fd5b6040516331a9108f60e11b8152600481018490526000906117e5906001600160a01b037f000000000000000000000000c99c2fcc0dc51dd0dad1fd7b58236bb4d73baaa81690636352211e90602401602060405180830381865afa1580156117b9573d6000803e3d6000fd5b505050506040513d601f19601f820116820180604052508101906117dd91906150d3565b856005612671565b604051633a01714f60e01b8152600481018590526001600160a01b038481166024830152831690633a01714f90604401606060405180830381865afa158015611832573d6000803e3d6000fd5b505050506040513d601f19601f820116820180604052508101906118569190615319565b6020015160ff1660000361187d5760405163581010ed60e01b815260040160405180910390fd5b6118898484600161214c565b6040516319781e2360e01b8152600481018590526001600160a01b0384811660248301527f00000000000000000000000001c946e0978cd0d5167dcb1979b9b79b1c2e490a16906319781e23906044016020604051808303816000875af11580156118f8573d6000803e3d6000fd5b505050506040513d601f19601f8201168201806040525081019061191c91906151f7565b905080156119c35761192f828483611b08565b60006001600160a01b03841661eeee1461194a57600061194c565b815b6040805160208101825260008082529151639e6eec0560e01b81529293506001600160a01b03861692639e6eec0592859261198f928b928b928a9260040161515d565b6000604051808303818588803b1580156119a857600080fd5b505af11580156119bc573d6000803e3d6000fd5b5050505050505b816001600160a01b0316836001600160a01b0316857ff0aa72bb9c2a07cf43281bfe8c525ba320fdc71e18b54c9f93ab22ce074af7f684611a02612388565b604080519283526001600160a01b0390911660208301520160405180910390a49392505050565b6000611ab68a8a611a3d8d8d8d89896123a7565b611a45612388565b8b8a8a8080601f01602080910402602001604051908101604052809392919081815260200183838082843760009201919091525050604080516020601f8e018190048102820181019092528c815292508c91508b9081908401838280828437600092019190915250611c4592505050565b905085811015611ad9576040516370dc561160e11b815260040160405180910390fd5b9998505050505050505050565b6000611afe836103e8611af98186615374565b61308c565b6117159084614edb565b61eeed196001600160a01b03831601611b2057505050565b611b346001600160a01b0383168483613160565b505050565b600083611b47576000611b52565b611b528787876131ea565b90506001600160a01b037f00000000000000000000000001c946e0978cd0d5167dcb1979b9b79b1c2e490a166351fc17358888611b8f858a615374565b6040516001600160e01b031960e086901b16815260048101939093526001600160a01b0390911660248301526044820152606401600060405180830381600087803b158015611bdd57600080fd5b505af1158015611bf1573d6000803e3d6000fd5b50505050867f9ecaf7fc3dfffd6867c175d6e684b1f1e3aef019398ba8db2c1ffab4a09db25386838686611c23612388565b604051611c34959493929190615387565b60405180910390a250505050505050565b6000611c4f614801565b60606000611c87604051806080016040528060006001600160a01b031681526020016000815260200160008152602001600081525090565b60008060008e815260200190815260200160002060008d6001600160a01b03166001600160a01b031681526020019081526020016000206040518060600160405290816000820160009054906101000a90046001600160a01b03166001600160a01b03166001600160a01b031681526020016000820160149054906101000a900460ff1660ff1660ff1681526020016000820160159054906101000a900463ffffffff1663ffffffff1663ffffffff1681525050905060405180608001604052808d6001600160a01b031681526020018c8152602001826020015160ff168152602001826040015163ffffffff168152509150507f00000000000000000000000001c946e0978cd0d5167dcb1979b9b79b1c2e490a6001600160a01b0316639e6840c18a838f8c8b6040518663ffffffff1660e01b8152600401611dcf9594939291906153ff565b6000604051808303816000875af1158015611dee573d6000803e3d6000fd5b505050506040513d6000823e601f3d908101601f19168201604052611e169190810190615552565b91955090935091508115611f4157604051632eec7b5560e11b8152600481018d90527f000000000000000000000000c9cb7a0bab7569b5b6de26a679d107d4d412b3496001600160a01b031690635dd8f6aa90602401602060405180830381865afa158015611e89573d6000803e3d6000fd5b505050506040513d601f19601f82011682018060405250810190611ead91906150d3565b6040516363fdc96f60e11b8152600481018e9052602481018490526001600160a01b038a8116604483015260a06064830152600060a483015260016084830152919091169063c7fb92de9060c4016020604051808303816000875af1158015611f1a573d6000803e3d6000fd5b505050506040513d601f19601f82011682018060405250810190611f3e91906151f7565b94505b825115611f5857611f588c84838c888d8b8d6134fa565b8b846000015185602001517f133161f1c9161488f777ab9a26aae91d47c0d9a3fafb398960f138db02c737978c8c8f8b8e8e611f92612388565b604051611fa59796959493929190615676565b60405180910390a450505050979650505050505050565b61eeed196001600160a01b03831601611fde57611fd98382613720565b612146565b306001600160a01b0385160361200257611fd96001600160a01b03831684836137b7565b604051636eb1769f60e11b81526001600160a01b03858116600483015230602483015282919084169063dd62ed3e90604401602060405180830381865afa158015612051573d6000803e3d6000fd5b505050506040513d601f19601f8201168201806040525081019061207591906151f7565b1061208f57611fd96001600160a01b038316858584613816565b6001600160a01b038111156120b757604051633062f38960e11b815260040160405180910390fd5b604051631b63c28b60e11b81526001600160a01b0385811660048301528481166024830152828116604483015283811660648301527f000000000000000000000000000000000022d473030f116ddee9f6b43ac78ba316906336c7851690608401600060405180830381600087803b15801561213257600080fd5b505af1158015611118573d6000803e3d6000fd5b50505050565b60008381526002602090815260408083206001600160a01b0386168452825280832080548251818502810185019093528083529192909190849084015b828210156121de5760008481526020908190206040805160608101825260038602909201805483526001808201546001600160a01b031684860152600290910154918301919091529083529092019101612189565b50505060008681526002602090815260408083206001600160a01b03891684529091528120929350612211929150614856565b8051604080516060810182526000808252602082018190528183018190529151630862026560e41b8152600160048201526001600160a01b0387811660248301529192917f000000000000000000000000c9cb7a0bab7569b5b6de26a679d107d4d412b3491690638620265090604401602060405180830381865afa15801561229e573d6000803e3d6000fd5b505050506040513d601f19601f820116820180604052508101906122c291906150d3565b905060005b83811015611118578481815181106122e1576122e1615210565b60200260200101519250851580156122fc5750428360400151115b156123695760008881526002602081815260408084206001600160a01b038c811686529083528185208054600180820183559187529584902089516003909702019586559288015192850180546001600160a01b0319169390911692909217909155850151910155612380565b61238088888560000151866020015186600161384f565b6001016122c7565b6000612392613a3a565b905090565b8061214657612146848484612671565b6000858152602081815260408083206001600160a01b0388811685529252822054166123e657604051630faa917b60e11b815260040160405180910390fd5b61eeed196001600160a01b03861601612400575034610f19565b341561241f57604051635e7e9adf60e11b815260040160405180910390fd5b30612428612388565b6001600160a01b03160361243d575082610f19565b6000612467604051806040016040528060078152602001663832b936b4ba1960c91b815250613aaf565b90506000806124ac8387878080601f016020809104026020016040519081016040528093929190818152602001838380828437600092019190915250613ac392505050565b91509150811561262f576000818060200190518101906124cc91906156ec565b90508781602001516001600160a01b031610156124fc576040516317e415a160e11b815260040160405180910390fd5b7f000000000000000000000000000000000022d473030f116ddee9f6b43ac78ba36001600160a01b0316632b67b570612533612388565b604051806060016040528060405180608001604052808f6001600160a01b0316815260200187602001516001600160a01b03168152602001876040015165ffffffffffff168152602001876060015165ffffffffffff168152508152602001306001600160a01b03168152602001856000015181525084608001516040518463ffffffff1660e01b81526004016125cc93929190615797565b600060405180830381600087803b1580156125e657600080fd5b505af19250505080156125f7575060015b61262d573d808015612625576040519150601f19603f3d011682016040523d82523d6000602084013e61262a565b606091505b50505b505b600061263a89613c69565b905061264f612647612388565b308b8b611fbc565b806126598a613c69565b6126639190614edb565b9a9950505050505050505050565b600061267b612388565b9050836001600160a01b0316816001600160a01b03161415801561274a5750604051631a45b42760e11b81526001600160a01b0382811660048301528581166024830152604482018590526064820184905260016084830181905260a48301527f000000000000000000000000ada1e1ee4576da063ead17d1acf49254fa881f0e169063348b684e9060c401602060405180830381865afa158015612724573d6000803e3d6000fd5b505050506040513d601f19601f820116820180604052508101906127489190614ea8565b155b156121465760405163075fd2b160e01b815260040160405180910390fd5b6000612772614801565b6000888152602081815260408083206001600160a01b038b81168552925291829020915163060f2bdf60e31b81527f00000000000000000000000001c946e0978cd0d5167dcb1979b9b79b1c2e490a909116916330795ef8916127dd918c918b908b9060040161580b565b610140604051808303816000875af11580156127fd573d6000803e3d6000fd5b505050506040513d601f19601f820116820180604052508101906128219190615831565b9250905060006001600160a01b037f000000000000000000000000327ef1062d1fa11f0aec12ff6788fce19a9cb1c31663ae74a1b561285e612388565b6040516001600160e01b031960e084901b1681526001600160a01b039091166004820152602401602060405180830381865afa1580156128a2573d6000803e3d6000fd5b505050506040513d601f19601f820116820180604052508101906128c69190614ea8565b612978576129738989857f000000000000000000000000c99c2fcc0dc51dd0dad1fd7b58236bb4d73baaa86001600160a01b0316636352211e8e6040518263ffffffff1660e01b815260040161291e91815260200190565b602060405180830381865afa15801561293b573d6000803e3d6000fd5b505050506040513d601f19601f8201168201806040525081019061295f91906150d3565b610100870151604c1c600190811614613cf1565b61297b565b60005b6129859084614edb565b905080156129995761299930868a84611fbc565b88826000015183602001517f8657a0c05a68a912c23c1bd00124afaa8c669063b046bd9bfd22b21d573c5e6d888b88878b6129d2612388565b6040516129e496959493929190615860565b60405180910390a450509695505050505050565b6000612a02614801565b6000878152602081815260408083206001600160a01b038a8116855290835281842082516060808201855291549283168152600160a01b830460ff1681860152600160a81b90920463ffffffff16828401528b855260018452828520805484518187028101870190955280855291959492938593909290849084015b82821015612ad857600084815260209081902060408051606081018252918501546001600160a01b0381168352600160a01b810460ff1683850152600160a81b900463ffffffff1690820152825260019092019101612a7e565b5050604051630d346b8160e01b8152929350506001600160a01b037f00000000000000000000000001c946e0978cd0d5167dcb1979b9b79b1c2e490a1691630d346b819150612b35908f908f908e90889088908f906004016158aa565b6000604051808303816000875af1158015612b54573d6000803e3d6000fd5b505050506040513d6000823e601f3d908101601f19168201604052612b7c91908101906158fc565b91985091965094509250508715612c9057604051632eec7b5560e11b8152600481018b90527f000000000000000000000000c9cb7a0bab7569b5b6de26a679d107d4d412b3496001600160a01b031690635dd8f6aa90602401602060405180830381865afa158015612bf2573d6000803e3d6000fd5b505050506040513d601f19601f82011682018060405250810190612c1691906150d3565b60405163516a997360e11b81526001600160a01b038d81166004830152602482018d9052604482018b90526080606483015260006084830152919091169063a2d532e69060a401600060405180830381600087803b158015612c7757600080fd5b505af1158015612c8b573d6000803e3d6000fd5b505050505b60008515612d6c5760405163ae74a1b560e01b81526001600160a01b0389811660048301527f000000000000000000000000327ef1062d1fa11f0aec12ff6788fce19a9cb1c3169063ae74a1b590602401602060405180830381865afa158015612cfe573d6000803e3d6000fd5b505050506040513d601f19601f82011682018060405250810190612d229190614ea8565b158015612d3157506127108314155b15612d5a57612d408682615374565b9050612d4d866019611ae6565b612d579087614edb565b95505b8515612d6c57612d6c30898c89611fbc565b835115612dcb57612dbe8b60405180608001604052808d6001600160a01b03168152602001898152602001856020015160ff168152602001856040015163ffffffff168152508e8c8b8a898f8c613ea5565b612dc89082615374565b90505b80600003612dda576000612de8565b612de88b8b838b6000613cf1565b508a856000015186602001517f9565fc8bdd4f45a73582d1163dbe522a4fb0c4dbb882b5e66269f70101a2509a8f8c8e898d8f612e23612388565b604051612e369796959493929190615a28565b60405180910390a450505050509695505050505050565b6000612e57614801565b6000868152602081815260408083206001600160a01b038981168552925291829020915163181241e760e31b81527f00000000000000000000000001c946e0978cd0d5167dcb1979b9b79b1c2e490a9091169163c0920f3891612ec2918a918990899060040161580b565b610140604051808303816000875af1158015612ee2573d6000803e3d6000fd5b505050506040513d601f19601f82011682018060405250810190612f069190615831565b6040516331a9108f60e11b8152600481018990529093509091506000907f000000000000000000000000c99c2fcc0dc51dd0dad1fd7b58236bb4d73baaa86001600160a01b031690636352211e90602401602060405180830381865afa158015612f74573d6000803e3d6000fd5b505050506040513d601f19601f82011682018060405250810190612f9891906150d3565b9050600080612fad89898660200151886141ba565b90925090506000612fd98a8a612fc38686615374565b6101008901518890604c1c600190811614613cf1565b90506000831561300657612fee846019611ae6565b612ff89085614edb565b905061300630868c84611fbc565b8a866000015187602001517fda42c5c18ef97738d10c32811895add569670a6fcbe9627ea198d446f3be6dea888d8c888861303f612388565b604080516001600160a01b03978816815260208101969096528501939093526060840191909152608083015290911660a082015260c00160405180910390a4505050505050949350505050565b60008080600019858709858702925082811083820303915050806000036130c6578382816130bc576130bc615a7b565b0492505050611715565b8381106130f757604051630c740aef60e31b815260048101879052602481018690526044810185905260640161099b565b60008486880960026001871981018816978890046003810283188082028403028082028403028082028403028082028403028082028403029081029092039091026000889003889004909101858311909403939093029303949094049190911702949350505050565b604051636eb1769f60e11b81523060048201526001600160a01b0383811660248301526000919085169063dd62ed3e90604401602060405180830381865afa1580156131b0573d6000803e3d6000fd5b505050506040513d601f19601f820116820180604052508101906131d491906151f7565b905061214684846131e58585615374565b614386565b60008381526002602090815260408083206001600160a01b0386168452825280832080548251818502810185019093528083528493849084015b828210156132795760008481526020908190206040805160608101825260038602909201805483526001808201546001600160a01b031684860152600290910154918301919091529083529092019101613224565b50505060008781526002602090815260408083206001600160a01b038a16845290915281209293506132ac929150614856565b8051604080516060810182526000808252602082018190529181018290528592915b82811015613490578481815181106132e8576132e8615210565b60200260200101519150836000036133625760008981526002602081815260408084206001600160a01b038d811686529083528185208054600180820183559187529584902088516003909702019586559287015192850180546001600160a01b0319169390911692909217909155840151910155613488565b600061337383600001516019611ae6565b905060008184600001516133879190614edb565b905080861061339e57968101969485900394613485565b6133a9866019614416565b9150600260008c815260200190815260200160002060008b6001600160a01b03166001600160a01b031681526020019081526020016000206040518060600160405280888403815260200186602001516001600160a01b03168152602001866040015181525090806001815401808255809150506001900390600052602060002090600302016000909190919091506000820151816000015560208201518160010160006101000a8154816001600160a01b0302191690836001600160a01b031602179055506040820151816002015550508188019750600095505b50505b6001016132ce565b5085876001600160a01b0316897fedc5125503c021a73fd7d8ed0c2456b296be2c88f39fbed068bd091cef7ca43d88876134c8612388565b6040805193845260208401929092526001600160a01b03169082015260600160405180910390a4505050509392505050565b6000604051806101400160405280876001600160a01b031681526020018a8152602001866020015181526020018881526020018881526020018660a001518152602001848152602001856001600160a01b031681526020016040518060200160405280600081525081526020018381525090506000885190506135a0604051806060016040528060006001600160a01b0316815260200160008152602001606081525090565b60005b82811015613712578a81815181106135bd576135bd615210565b6020026020010151915060405180608001604052808b600001516001600160a01b03168152602001836020015181526020018b6040015181526020018b606001518152508460800181905250816040015184610100018190525061362e82600001518b600001518460200151611b08565b89516000906001600160a01b031661eeee1461364b576000613651565b82602001515b835160405163f3c5788160e01b81529192506001600160a01b03169063f3c57881908390613683908990600401615b3d565b6000604051808303818588803b15801561369c57600080fd5b505af11580156136b0573d6000803e3d6000fd5b505050505082600001516001600160a01b03167f092bf36eb737817b64e5cea9e9b69305c423a987b5c3066516b046cad5c0bc368685602001516136f2612388565b60405161370193929190615b50565b60405180910390a2506001016135a3565b505050505050505050505050565b804710156137435760405163cd78605960e01b815230600482015260240161099b565b6000826001600160a01b03168260405160006040518083038185875af1925050503d8060008114613790576040519150601f19603f3d011682016040523d82523d6000602084013e613795565b606091505b5050905080611b3457604051630a12f52160e11b815260040160405180910390fd5b6040516001600160a01b03838116602483015260448201839052611b3491859182169063a9059cbb906064015b604051602081830303815290604052915060e01b6020820180516001600160e01b038381831617835250505050614425565b6040516001600160a01b0384811660248301528381166044830152606482018390526121469186918216906323b872dd906084016137e4565b604051632fc8972b60e11b8152600481018790526001600160a01b038087166024830152604482018690528085166064830152831660848201523090635f912e569060a401600060405180830381600087803b1580156138ae57600080fd5b505af19250505080156138bf575060015b6139d1573d8080156138ed576040519150601f19603f3d011682016040523d82523d6000602084013e6138f2565b606091505b506040516351fc173560e01b8152600481018890526001600160a01b038781166024830152604482018790527f00000000000000000000000001c946e0978cd0d5167dcb1979b9b79b1c2e490a16906351fc173590606401600060405180830381600087803b15801561396457600080fd5b505af1158015613978573d6000803e3d6000fd5b505050506001866001600160a01b0316887f4b73f3c5cfb174c9d0494138d07ff8ee3aa400df46327d9893ed5ac122dd558a88856139b4612388565b6040516139c393929190615b83565b60405180910390a45061111b565b83856001600160a01b0316877fb514e730b3f8ad3aa94b6857bcc5ff4a46954bdcf8c4b0346705b1d0ac7a43258487613a08612388565b6040805193151584526001600160a01b03928316602085015291169082015260600160405180910390a4505050505050565b6000366014336001600160a01b037f000000000000000000000000b2b5841dbef766d4b521221732f9b618fcf34a8716148015613a775750808210155b15613aa757600036613a898385614edb565b613a94928290615bb4565b613a9d91615bde565b60601c9250505090565b339250505090565b805160208201206000903060601b186106e9565b600060606025835111613ae85750506040805160208101909152600080825290613c62565b600083613af760046020615374565b81518110613b0757613b07615210565b0160209081015160f81c91505b600085613b22600484615374565b81518110613b3257613b32615210565b01602001516001600160f81b03191614801590613b585750613b55602083615c13565b81105b15613c5f57600085613b6b600484615374565b81518110613b7b57613b7b615210565b016020908101518784019091015160f89190911c91506001600160e01b031980891690821603613c55576000613bb2602086615c13565b613bbd600986615374565b101580613bf2575087613bd1600986615374565b81518110613be157613be1615210565b01602001516001600160f81b031916155b613c2b57602088613c04600987615374565b81518110613c1457613c14615210565b0160200151613c26919060f81c615c13565b613c2e565b87515b90506001613c4789613c41602087615c13565b84614488565b965096505050505050613c62565b5050600501613b14565b50505b9250929050565b60006001600160a01b03821661eeee14613cea576040516370a0823160e01b81523060048201526001600160a01b038316906370a0823190602401602060405180830381865afa158015613cc1573d6000803e3d6000fd5b505050506040513d601f19601f82011682018060405250810190613ce591906151f7565b6106e9565b4792915050565b6000613cfe846019611ae6565b90508115613dfe5760008681526002602090815260408083206001600160a01b03808a168552908352928190208151606081018352888152938716928401929092529091908101613d526224ea0042615374565b9052815460018082018455600093845260209384902083516003909302019182559282015192810180546001600160a01b0319166001600160a01b0394851617905560409091015160029091015584908616877fef9cd8fc3b61b64b44042ada0a8a3ede1649bc1b112673da228120f13bf1381e601987613dd1612388565b604080519384526001600160a01b03928316602085015291169082015260600160405180910390a4610f19565b604051630862026560e41b8152600160048201526001600160a01b0386811660248301526000917f000000000000000000000000c9cb7a0bab7569b5b6de26a679d107d4d412b34990911690638620265090604401602060405180830381865afa158015613e70573d6000803e3d6000fd5b505050506040513d601f19601f82011682018060405250810190613e9491906150d3565b9050610f178787848785600061384f565b6000806040518061014001604052808a6001600160a01b031681526020018c8152602001876020015181526020018981526020018b81526020018b8152602001868152602001856001600160a01b03168152602001604051806020016040528060008152508152602001888152509050600083519050613f48604051806060016040528060006001600160a01b0316815260200160008152602001606081525090565b60005b828110156141a957858181518110613f6557613f65615210565b6020026020010151915060007f000000000000000000000000327ef1062d1fa11f0aec12ff6788fce19a9cb1c36001600160a01b031663ae74a1b584600001516040518263ffffffff1660e01b8152600401613fd091906001600160a01b0391909116815260200190565b602060405180830381865afa158015613fed573d6000803e3d6000fd5b505050506040513d601f19601f820116820180604052508101906140119190614ea8565b6140295761402483602001516019611ae6565b61402c565b60005b9050801561405b5760208301516140439087615374565b955080836020018181516140579190614edb565b9052505b60405180608001604052808f600001516001600160a01b03168152602001846020015181526020018f6040015181526020018f606001518152508560a0018190525082604001518561010001819052506140c283600001518f600001518560200151611b08565b8d516000906001600160a01b031661eeee146140df5760006140e5565b83602001515b84516040516319bb132d60e21b81529192506001600160a01b0316906366ec4cb4908390614117908a90600401615cb9565b6000604051808303818588803b15801561413057600080fd5b505af1158015614144573d6000803e3d6000fd5b505050505083600001516001600160a01b03167f5d2ae7ac07b3a26000acaa692b550c84cbb87300557e0359791cfec9efe1615a87866020015185614187612388565b6040516141979493929190615ccc565b60405180910390a25050600101613f4b565b505050509998505050505050505050565b6040516369e11cc560e01b815260048101859052602481018390526001600160a01b0384811660448301526000918291633b9aca009183917f000000000000000000000000bf86912a8b061a0bb03d9b7428b0e40b2a4811c716906369e11cc590606401600060405180830381865afa15801561423b573d6000803e3d6000fd5b505050506040513d6000823e601f3d908101601f191682016040526142639190810190615d04565b80516040805160c081018252600080825260208201819052918101829052606081018290526080810182905260a08101919091529192509060005b82811015614375578381815181106142b8576142b8615210565b6020026020010151915060006142d38984602001518861308c565b905060006142e3848e8e856144ce565b905080158015906142f45750818114155b15614306576143038289615374565b97505b811561431257818a0399505b8360200151870396508b6001600160a01b03168b8e7f39305f11865947ab83bc6548c8c77e5890ed5bc4a6ea54e6fe7b22f4f406f4b8878686614353612388565b6040516143639493929190615dfa565b60405180910390a4505060010161429e565b508695505050505094509492505050565b604080516001600160a01b038416602482015260448082018490528251808303909101815260649091019091526020810180516001600160e01b031663095ea7b360e01b1790526143d78482614654565b612146576040516001600160a01b0384811660248301526000604483015261440c91869182169063095ea7b3906064016137e4565b6121468482614425565b600061171583836103e861308c565b600061443a6001600160a01b038416836146f7565b9050805160001415801561445f57508080602001905181019061445d9190614ea8565b155b15611b3457604051635274afe760e01b81526001600160a01b038416600482015260240161099b565b60608282036040519150602081830101604052808252508260208501016020820160005b848110156144c45782810151828201526020016144ac565b5050509392505050565b6000306343a89aaf868686866144e2612388565b6040518663ffffffff1660e01b8152600401614502959493929190615e2e565b6020604051808303816000875af192505050801561453d575060408051601f3d908101601f1916820190925261453a918101906151f7565b60015b614649573d80801561456b576040519150601f19603f3d011682016040523d82523d6000602084013e614570565b606091505b506040516351fc173560e01b8152600481018690526001600160a01b038581166024830152604482018590527f00000000000000000000000001c946e0978cd0d5167dcb1979b9b79b1c2e490a16906351fc173590606401600060405180830381600087803b1580156145e257600080fd5b505af11580156145f6573d6000803e3d6000fd5b50505050847f37b65da09d1a43465d8f823dcc858aa187792b35585b56afe707d57d7108d228878584614627612388565b6040516146379493929190615e6d565b60405180910390a2600091505061464c565b90505b949350505050565b6000806000846001600160a01b0316846040516146719190615eaf565b6000604051808303816000865af19150503d80600081146146ae576040519150601f19603f3d011682016040523d82523d6000602084013e6146b3565b606091505b50915091508180156146dd5750805115806146dd5750808060200190518101906146dd9190614ea8565b8015610f195750505050506001600160a01b03163b151590565b60606117158383600084600080856001600160a01b0316848660405161471d9190615eaf565b60006040518083038185875af1925050503d806000811461475a576040519150601f19603f3d011682016040523d82523d6000602084013e61475f565b606091505b509150915061476f868383614779565b9695505050505050565b60608261478e57614789826147d5565b611715565b81511580156147a557506001600160a01b0384163b155b156147ce57604051639996b31560e01b81526001600160a01b038516600482015260240161099b565b5080611715565b8051156147e55780518082602001fd5b604051630a12f52160e11b815260040160405180910390fd5b50565b6040518061012001604052806000815260200160008152602001600081526020016000815260200160008152602001600081526020016000815260200160006001600160a01b03168152602001600081525090565b50805460008255600302906000526020600020908101906147fe91905b8082111561489f5760008082556001820180546001600160a01b03191690556002820155600301614873565b5090565b6000602082840312156148b557600080fd5b81356001600160e01b03198116811461171557600080fd5b6001600160a01b03811681146147fe57600080fd5b600080604083850312156148f557600080fd5b823591506020830135614907816148cd565b809150509250929050565b602080825282518282018190526000919060409081850190868401855b8281101561496757815180518552868101516001600160a01b031687860152850151858501526060909301929085019060010161492f565b5091979650505050505050565b80516001600160a01b0316825260208082015160ff169083015260409081015163ffffffff16910152565b606081016106e98284614974565b60008060008060008587036101408112156149c757600080fd5b60c08112156149d557600080fd5b5085945060c0860135935060e08601356149ee816148cd565b92506101008601359150610120860135614a07816148cd565b809150509295509295909350565b600060208284031215614a2757600080fd5b5035919050565b60008151808452602080850194506020840160005b83811015614a6957614a56878351614974565b6060969096019590820190600101614a43565b509495945050505050565b6020815260006117156020830184614a2e565b600060208284031215614a9957600080fd5b8135611715816148cd565b600080600080600060a08688031215614abc57600080fd5b853594506020860135614ace816148cd565b9350604086013592506060860135614ae5816148cd565b91506080860135614a07816148cd565b600080600060408486031215614b0a57600080fd5b8335925060208401356001600160401b0380821115614b2857600080fd5b818601915086601f830112614b3c57600080fd5b813581811115614b4b57600080fd5b8760208260051b8501011115614b6057600080fd5b6020830194508093505050509250925092565b80151581146147fe57600080fd5b60008083601f840112614b9357600080fd5b5081356001600160401b03811115614baa57600080fd5b602083019150836020828501011115613c6257600080fd5b60008060008060008060008060c0898b031215614bde57600080fd5b883597506020890135614bf0816148cd565b9650604089013595506060890135614c0781614b73565b945060808901356001600160401b0380821115614c2357600080fd5b614c2f8c838d01614b81565b909650945060a08b0135915080821115614c4857600080fd5b50614c558b828c01614b81565b999c989b5096995094979396929594505050565b60008060008060008060008060e0898b031215614c8557600080fd5b883597506020890135614c97816148cd565b965060408901359550606089013594506080890135935060a0890135614cbc816148cd565b925060c08901356001600160401b03811115614cd757600080fd5b614c558b828c01614b81565b60008060008060008060008060e0898b031215614cff57600080fd5b8835614d0a816148cd565b9750602089013596506040890135614d21816148cd565b9550606089013594506080890135935060a0890135614cbc816148cd565b600080600060608486031215614d5457600080fd5b505081359360208301359350604090920135919050565b600080600080600060a08688031215614d8357600080fd5b853594506020860135614d95816148cd565b94979496505050506040830135926060810135926080909101359150565b600080600060608486031215614dc857600080fd5b833592506020840135614dda816148cd565b91506040840135614dea816148cd565b809150509250925092565b600080600080600080600080600060e08a8c031215614e1357600080fd5b8935985060208a0135614e25816148cd565b975060408a0135965060608a0135614e3c816148cd565b955060808a0135945060a08a01356001600160401b0380821115614e5f57600080fd5b614e6b8d838e01614b81565b909650945060c08c0135915080821115614e8457600080fd5b50614e918c828d01614b81565b915080935050809150509295985092959850929598565b600060208284031215614eba57600080fd5b815161171581614b73565b634e487b7160e01b600052601160045260246000fd5b818103818111156106e9576106e9614ec5565b634e487b7160e01b600052604160045260246000fd5b60405160c081016001600160401b0381118282101715614f2657614f26614eee565b60405290565b604051606081016001600160401b0381118282101715614f2657614f26614eee565b60405161012081016001600160401b0381118282101715614f2657614f26614eee565b60405160a081016001600160401b0381118282101715614f2657614f26614eee565b604051601f8201601f191681016001600160401b0381118282101715614fbb57614fbb614eee565b604052919050565b600060c08284031215614fd557600080fd5b614fdd614f04565b8235614fe881614b73565b808252506020830135602082015260408301356040820152606083013561500e816148cd565b60608201526080838101359082015260a083013561502b816148cd565b60a08201529392505050565b80511515825260208082015190830152604080820151908301526060808201516001600160a01b03908116918401919091526080808301519084015260a09182015116910152565b81516001600160a01b031681526020808301519082015260408083015190820152606080830151908201526080808301519082015260a0828101516101608301916150cc90840182615037565b5092915050565b6000602082840312156150e557600080fd5b8151611715816148cd565b60006020828403121561510257600080fd5b813561171581614b73565b60005b83811015615128578181015183820152602001615110565b50506000910152565b6000815180845261514981602086016020860161510d565b601f01601f19169290920160200192915050565b85815260018060a01b0385166020820152836040820152821515606082015260c06080820152600060c082015260e060a082015260006151a060e0830184615131565b979650505050505050565b868152600060018060a01b03808816602084015286604084015280861660608401525083608083015260e060a0830152600060e08301526101008060c0840152611ad981840185615131565b60006020828403121561520957600080fd5b5051919050565b634e487b7160e01b600052603260045260246000fd5b805160ff8116811461523757600080fd5b919050565b60006020828403121561524e57600080fd5b61171582615226565b546001600160a01b038116825260a081901c60ff16602083015260a81c63ffffffff16604090910152565b608081016152908285615257565b6001600160a01b039290921660609190910152919050565b6001600160a01b0386168152602080820186905260a060408301819052855490830181905260008681529182209060c0840190835b81811015615302576152ef8385615257565b60019384019360609390930192016152dd565b505060608401959095525050608001529392505050565b60006060828403121561532b57600080fd5b615333614f2c565b825161533e816148cd565b815261534c60208401615226565b6020820152604083015163ffffffff8116811461536857600080fd5b60408201529392505050565b808201808211156106e9576106e9614ec5565b85815284602082015260a0604082015260006153a660a0830186615131565b82810360608401526153b88186615131565b91505060018060a01b03831660808301529695505050505050565b80516001600160a01b031682526020808201519083015260408082015190830152606090810151910152565b6001600160a01b0386811682526000906101009061542060208501896153d3565b8660a085015280861660c0850152508060e08401526115ef81840185615131565b8051615237816148cd565b6000610120828403121561545f57600080fd5b615467614f4e565b9050815181526020820151602082015260408201516040820152606082015160608201526080820151608082015260a082015160a082015260c082015160c08201526154b560e08301615441565b60e082015261010080830151818301525092915050565b60006001600160401b038211156154e5576154e5614eee565b5060051b60200190565b600082601f83011261550057600080fd5b81516001600160401b0381111561551957615519614eee565b61552c601f8201601f1916602001614f93565b81815284602083860101111561554157600080fd5b61464c82602083016020870161510d565b6000806000610160848603121561556857600080fd5b615572858561544c565b925061012084015191506101408401516001600160401b038082111561559757600080fd5b818601915086601f8301126155ab57600080fd5b815160206155c06155bb836154cc565b614f93565b82815260059290921b8401810191818101908a8411156155df57600080fd5b8286015b84811015615665578051868111156155fa57600080fd5b87016060818e03601f1901121561561057600080fd5b615618614f2c565b85820151615625816148cd565b81526040820151868201526060820151888111156156435760008081fd5b6156518f88838601016154ef565b6040830152508452509183019183016155e3565b508096505050505050509250925092565b600060018060a01b03808a168352808916602084015287604084015286606084015260e060808401526156ac60e0840187615131565b83810360a08501526156be8187615131565b92505080841660c08401525098975050505050505050565b805165ffffffffffff8116811461523757600080fd5b6000602082840312156156fe57600080fd5b81516001600160401b038082111561571557600080fd5b9083019060a0828603121561572957600080fd5b615731614f71565b825181526020830151615743816148cd565b6020820152615754604084016156d6565b6040820152615765606084016156d6565b606082015260808301518281111561577c57600080fd5b615788878286016154ef565b60808301525095945050505050565b600061010060018060a01b0380871684528551818151166020860152816020820151166040860152604081015165ffffffffffff80821660608801528060608401511660808801525050508060208701511660a085015250604085015160c08401528060e084015261476f81840185615131565b84815260c0810161581f6020830186615257565b608082019390935260a0015292915050565b600080610140838503121561584557600080fd5b61584f848461544c565b915061012083015190509250929050565b600060018060a01b03808916835287602084015286604084015285606084015260c0608084015261589460c0840186615131565b915080841660a084015250979650505050505050565b6001600160a01b0387168152602081018690526040810185905260006101006158d66060840187614974565b8060c08401526158e881840186614a2e565b905082810360e0840152611ad98185615131565b600080600080610180858703121561591357600080fd5b61591d868661544c565b9350610120850151925061014085015191506101608501516001600160401b038082111561594a57600080fd5b818701915087601f83011261595e57600080fd5b815161596c6155bb826154cc565b8082825260208201915060208360051b86010192508a83111561598e57600080fd5b602085015b83811015615a18578051858111156159aa57600080fd5b86016060818e03601f190112156159c057600080fd5b6159c8614f2c565b60208201516159d6816148cd565b8152604082015160208201526060820151878111156159f457600080fd5b615a038f6020838601016154ef565b60408301525084525060209283019201615993565b50979a9699509497505050505050565b600060018060a01b03808a168352808916602084015287604084015286606084015285608084015260e060a0840152615a6460e0840186615131565b915080841660c08401525098975050505050505050565b634e487b7160e01b600052601260045260246000fd5b80516001600160a01b03168252600061020060208301516020850152604083015160408501526060830151615ac960608601826153d3565b506080830151615adc60e08601826153d3565b5060a083015161016085015260c083015161018085015260e08301516001600160a01b03166101a08501526101008301516101c08501829052615b2182860182615131565b9150506101208301518482036101e0860152610f198282615131565b6020815260006117156020830184615a91565b606081526000615b636060830186615a91565b6020830194909452506001600160a01b0391909116604090910152919050565b838152606060208201526000615b9c6060830185615131565b905060018060a01b0383166040830152949350505050565b60008085851115615bc457600080fd5b83861115615bd157600080fd5b5050820193919092039150565b6bffffffffffffffffffffffff198135818116916014851015615c0b5780818660140360031b1b83161692505b505092915050565b80820281158282048414176106e9576106e9614ec5565b80516001600160a01b0316825260006102006020830151602085015260408301516040850152606083015160608501526080830151615c6c60808601826153d3565b5060a0830151610100615c81818701836153d3565b60c085015161018087015260e08501516001600160a01b03166101a08701528401516101c086018390529050615b2182860182615131565b6020815260006117156020830184615c2a565b608081526000615cdf6080830187615c2a565b60208301959095525060408101929092526001600160a01b0316606090910152919050565b60006020808385031215615d1757600080fd5b82516001600160401b03811115615d2d57600080fd5b8301601f81018513615d3e57600080fd5b8051615d4c6155bb826154cc565b81815260c09182028301840191848201919088841115615d6b57600080fd5b938501935b83851015615dee5780858a031215615d885760008081fd5b615d90614f04565b8551615d9b81614b73565b8152858701518782015260408087015190820152606080870151615dbe816148cd565b908201526080868101519082015260a080870151615ddb816148cd565b9082015283529384019391850191615d70565b50979650505050505050565b6101208101615e098287615037565b60c082019490945260e08101929092526001600160a01b031661010090910152919050565b6101408101615e3d8288615037565b60c08201959095526001600160a01b0393841660e082015261010081019290925290911661012090910152919050565b6000610120615e7c8388615037565b8560c08401528060e0840152615e9481840186615131565b91505060018060a01b03831661010083015295945050505050565b60008251615ec181846020870161510d565b919091019291505056fea2646970667358221220005330afdd983bb74b661820a16abf36f038ca8dcc372e889700b25a5b45b28a64736f6c63430008170033",
	"devdoc": {
		"kind": "dev",
		"methods": {
			"accountingContextForTokenOf(uint256,address)": {
				"details": "See the `JBAccountingContext` struct for more information.",
				"params": {
					"projectId": "The ID of the project to get token accounting context of.",
					"token": "The token to check the accounting context of."
				},
				"returns": {
					"_0": "The token's accounting context for the token."
				}
			},
			"accountingContextsOf(uint256)": {
				"params": {
					"projectId": "The ID of the project to get the accepted tokens of."
				},
				"returns": {
					"_0": "tokenContexts The accounting contexts of the accepted tokens."
				}
			},
			"addAccountingContextsFor(uint256,address[])": {
				"details": "Only a project's owner, an operator with the `ADD_ACCOUNTING_CONTEXTS` permission from that owner, or a project's controller can add accounting contexts for the project.",
				"params": {
					"projectId": "The ID of the project having to add accounting contexts for.",
					"tokens": "The tokens to add accounting contexts for."
				}
			},
			"addToBalanceOf(uint256,address,uint256,bool,string,bytes)": {
				"details": "Adding to balance can unlock held fees if `shouldUnlockHeldFees` is true.",
				"params": {
					"amount": "The amount of tokens to add to the balance, as a fixed point number with the same number of decimals as this terminal. If this is a native token terminal, this is ignored and `msg.value` is used instead.",
					"memo": "A memo to pass along to the emitted event.",
					"metadata": "Extra data to pass along to the emitted event.",
					"projectId": "The ID of the project to add funds to the balance of.",
					"shouldReturnHeldFees": "A flag indicating if held fees should be returned based on the amount being added.",
					"token": "The token being added to the balance."
				}
			},
			"constructor": {
				"params": {
					"directory": "A contract storing directories of terminals and controllers for each project.",
					"feelessAddresses": "A contract that stores addresses that shouldn't incur fees when being paid towards or from.",
					"permissions": "A contract storing permissions.",
					"permit2": "A permit2 utility.",
					"projects": "A contract which mints ERC-721s that represent project ownership and transfers.",
					"splits": "A contract that stores splits for each project.",
					"store": "A contract that stores the terminal's data.",
					"trustedForwarder": "A trusted forwarder of transactions to this contract."
				}
			},
			"currentSurplusOf(uint256,uint256,uint256)": {
				"details": "This total surplus only includes tokens that the project accepts (as returned by `accountingContextsOf(...)`).",
				"params": {
					"currency": "The currency to express the returned value in terms of.",
					"decimals": "The number of decimals to include in the fixed point returned value.",
					"projectId": "The ID of the project to get the current total surplus of."
				},
				"returns": {
					"_0": "The current surplus amount the project has in this terminal, in terms of `currency` and with the specified number of decimals."
				}
			},
			"executePayout((bool,uint256,uint256,address,uint256,address),uint256,address,uint256,address)": {
				"details": "Only accepts calls from this terminal itself.",
				"params": {
					"amount": "The total amount being paid to the split, as a fixed point number with the same number of decimals as this terminal.",
					"projectId": "The ID of the project the split belongs to.",
					"split": "The split to pay.",
					"token": "The address of the token being paid to the split."
				},
				"returns": {
					"netPayoutAmount": "The amount sent to the split after subtracting fees."
				}
			},
			"executeProcessFee(uint256,address,uint256,address,address)": {
				"details": "Only accepts calls from this terminal itself.",
				"params": {
					"amount": "The fee amount, as a fixed point number with 18 decimals.",
					"beneficiary": "The address to mint tokens to (from the project which receives fees), and pass along to the ruleset's data hook and pay hook if applicable.",
					"feeTerminal": "The terminal that'll receive the fees.",
					"projectId": "The ID of the project paying the fee.",
					"token": "The token the fee is being paid in."
				}
			},
			"heldFeesOf(uint256,address)": {
				"details": "Projects can temporarily hold fees and unlock them later by adding funds to the project's balance.Held fees can be processed at any time by this terminal's owner.",
				"params": {
					"projectId": "The ID of the project that is holding fees.",
					"token": "The token that the fees are held in."
				}
			},
			"isTrustedForwarder(address)": {
				"details": "Indicates whether any particular address is the trusted forwarder."
			},
			"migrateBalanceOf(uint256,address,address)": {
				"details": "Only a project's owner or an operator with the `MIGRATE_TERMINAL` permission from that owner can migrate the project's terminal.",
				"params": {
					"projectId": "The ID of the project being migrated.",
					"to": "The terminal contract being migrated to, which will receive the project's funds and operations.",
					"token": "The address of the token being migrated."
				},
				"returns": {
					"balance": "The amount of funds that were migrated, as a fixed point number with the same amount of decimals as this terminal."
				}
			},
			"pay(uint256,address,uint256,address,uint256,string,bytes)": {
				"params": {
					"amount": "The amount of terminal tokens being received, as a fixed point number with the same number of decimals as this terminal. If this terminal's token is native, this is ignored and `msg.value` is used in its place.",
					"beneficiary": "The address to mint tokens to, and pass along to the ruleset's data hook and pay hook if applicable.",
					"memo": "A memo to pass along to the emitted event.",
					"metadata": "Bytes to pass along to the emitted event, as well as the data hook and pay hook if applicable.",
					"minReturnedTokens": "The minimum number of project tokens expected in return for this payment, as a fixed point number with the same number of decimals as this terminal. If the amount of tokens minted for the beneficiary would be less than this amount, the payment is reverted.",
					"projectId": "The ID of the project being paid.",
					"token": "The token being paid."
				},
				"returns": {
					"beneficiaryTokenCount": "The number of tokens minted to the beneficiary, as a fixed point number with 18 decimals."
				}
			},
			"processHeldFeesOf(uint256,address)": {
				"params": {
					"projectId": "The ID of the project to process held fees for.",
					"token": "The token to process held fees for."
				}
			},
			"redeemTokensOf(address,uint256,address,uint256,uint256,address,bytes)": {
				"details": "Only a token's holder or an operator with the `REDEEM_TOKENS` permission from that holder can redeem those tokens.",
				"params": {
					"beneficiary": "The address to send the reclaimed terminal tokens to, and to pass along to the ruleset's data hook and redeem hook if applicable.",
					"holder": "The account whose tokens are being redeemed.",
					"metadata": "Bytes to send along to the emitted event, as well as the data hook and redeem hook if applicable.",
					"minTokensReclaimed": "The minimum number of terminal tokens expected in return, as a fixed point number with the same number of decimals as this terminal. If the amount of tokens minted for the beneficiary would be less than this amount, the redemption is reverted.",
					"projectId": "The ID of the project the project tokens belong to.",
					"redeemCount": "The number of project tokens to redeem, as a fixed point number with 18 decimals.",
					"tokenToReclaim": "The token being reclaimed."
				},
				"returns": {
					"reclaimAmount": "The amount of terminal tokens that the project tokens were redeemed for, as a fixed point number with 18 decimals."
				}
			},
			"sendPayoutsOf(uint256,address,uint256,uint256,uint256)": {
				"details": "If the percentages of the splits in the project's payout split group do not add up to 100%, the remainder is sent to the project's owner.Anyone can send payouts on a project's behalf. Projects can include a wildcard split (a split with no `hook`, `projectId`, or `beneficiary`) to send funds to the `_msgSender()` which calls this function. This can be used to incentivize calling this function.payouts sent to addresses which aren't feeless incur the protocol fee.Payouts a projects don't incur fees if its terminal is feeless.",
				"params": {
					"amount": "The total number of terminal tokens to send, as a fixed point number with same number of decimals as this terminal.",
					"currency": "The expected currency of the payouts being sent. Must match the currency of one of the project's current ruleset's payout limits.",
					"minTokensPaidOut": "The minimum number of terminal tokens that the `amount` should be worth (if expressed in terms of this terminal's currency), as a fixed point number with the same number of decimals as this terminal. If the amount of tokens paid out would be less than this amount, the send is reverted.",
					"projectId": "The ID of the project having its payouts sent.",
					"token": "The token being sent."
				},
				"returns": {
					"amountPaidOut": "The total amount paid out."
				}
			},
			"supportsInterface(bytes4)": {
				"details": "See {IERC165-supportsInterface}.",
				"params": {
					"interfaceId": "The ID of the interface to check for adherence to."
				},
				"returns": {
					"_0": "A flag indicating if the provided interface ID is supported."
				}
			},
			"trustedForwarder()": {
				"details": "Returns the address of the trusted forwarder."
			},
			"useAllowanceOf(uint256,address,uint256,uint256,uint256,address,string)": {
				"details": "Only a project's owner or an operator with the `USE_ALLOWANCE` permission from that owner can use the surplus allowance.Incurs the protocol fee unless the caller is a feeless address.",
				"params": {
					"amount": "The amount of terminal tokens to use from the project's current surplus allowance, as a fixed point number with the same amount of decimals as this terminal.",
					"beneficiary": "The address to send the surplus funds to.",
					"currency": "The expected currency of the amount being paid out. Must match the currency of one of the project's current ruleset's surplus allowances.",
					"memo": "A memo to pass along to the emitted event.",
					"minTokensPaidOut": "The minimum number of terminal tokens that should be used from the surplus allowance (including fees), as a fixed point number with 18 decimals. If the amount of surplus used would be less than this amount, the transaction is reverted.",
					"projectId": "The ID of the project to use the surplus allowance of.",
					"token": "The token being paid out from the surplus."
				},
				"returns": {
					"amountPaidOut": "The number of tokens that were sent to the beneficiary, as a fixed point number with the same amount of decimals as the terminal."
				}
			}
		},
		"version": 1
	},
	"userdoc": {
		"kind": "user",
		"methods": {
			"DIRECTORY()": {
				"notice": "The directory of terminals and controllers for PROJECTS."
			},
			"FEE()": {
				"notice": "This terminal's fee (as a fraction out of `JBConstants.MAX_FEE`)."
			},
			"FEELESS_ADDRESSES()": {
				"notice": "The contract that stores addresses that shouldn't incur fees when being paid towards or from."
			},
			"PERMISSIONS()": {
				"notice": "A contract storing permissions."
			},
			"PERMIT2()": {
				"notice": "The permit2 utility."
			},
			"PROJECTS()": {
				"notice": "Mints ERC-721s that represent project ownership and transfers."
			},
			"SPLITS()": {
				"notice": "The contract that stores splits for each project."
			},
			"STORE()": {
				"notice": "The contract that stores and manages the terminal's data."
			},
			"accountingContextForTokenOf(uint256,address)": {
				"notice": "A project's accounting context for a token."
			},
			"accountingContextsOf(uint256)": {
				"notice": "The tokens accepted by a project."
			},
			"addAccountingContextsFor(uint256,address[])": {
				"notice": "Adds accounting contexts for a project to this terminal so the project can begin accepting the tokens in those contexts."
			},
			"addToBalanceOf(uint256,address,uint256,bool,string,bytes)": {
				"notice": "Adds funds to a project's balance without minting tokens."
			},
			"currentSurplusOf(uint256,uint256,uint256)": {
				"notice": "Gets the total current surplus amount in this terminal for a project, in terms of a given currency."
			},
			"executePayout((bool,uint256,uint256,address,uint256,address),uint256,address,uint256,address)": {
				"notice": "Executes a payout to a split."
			},
			"executeProcessFee(uint256,address,uint256,address,address)": {
				"notice": "Process a specified amount of fees for a project."
			},
			"heldFeesOf(uint256,address)": {
				"notice": "Fees that are being held for a project."
			},
			"migrateBalanceOf(uint256,address,address)": {
				"notice": "Migrate a project's funds and operations to a new terminal that accepts the same token type."
			},
			"pay(uint256,address,uint256,address,uint256,string,bytes)": {
				"notice": "Pay a project with tokens."
			},
			"processHeldFeesOf(uint256,address)": {
				"notice": "Process any fees that are being held for the project."
			},
			"redeemTokensOf(address,uint256,address,uint256,uint256,address,bytes)": {
				"notice": "Holders can redeem a project's tokens to reclaim some of that project's surplus tokens, or to trigger rules determined by the current ruleset's data hook and redeem hook."
			},
			"sendPayoutsOf(uint256,address,uint256,uint256,uint256)": {
				"notice": "Sends payouts to a project's current payout split group, according to its ruleset, up to its current payout limit."
			},
			"supportsInterface(bytes4)": {
				"notice": "Indicates whether this contract adheres to the specified interface."
			},
			"useAllowanceOf(uint256,address,uint256,uint256,uint256,address,string)": {
				"notice": "Allows a project to pay out funds from its surplus up to the current surplus allowance."
			}
		},
		"version": 1
	},
	"gitCommit": "bc6005ccb14408c1b996cf6facda0642da82e682",
	"sourceName": "src/JBMultiTerminal.sol",
	"chainId": "84532",
	"linkReferences": {},
	"deployedLinkReferences": {},
	"history": [
		{
			"_format": "sphinx-sol-ct-artifact-1",
			"merkleRoot": "0xeb76efeb8f97c5cb80ab72b380ea5b356ede5f4abbf2a0c560104f8a80b45857",
			"contractName": "JBMultiTerminal",
			"address": "0x966Ff291e13C5f8901a9ae5776813B89d772fDB9",
			"abi": [
				{
					"type": "constructor",
					"inputs": [
						{
							"name": "permissions",
							"type": "address",
							"internalType": "contract IJBPermissions"
						},
						{
							"name": "projects",
							"type": "address",
							"internalType": "contract IJBProjects"
						},
						{
							"name": "directory",
							"type": "address",
							"internalType": "contract IJBDirectory"
						},
						{
							"name": "splits",
							"type": "address",
							"internalType": "contract IJBSplits"
						},
						{
							"name": "store",
							"type": "address",
							"internalType": "contract IJBTerminalStore"
						},
						{
							"name": "feelessAddresses",
							"type": "address",
							"internalType": "contract IJBFeelessAddresses"
						},
						{
							"name": "permit2",
							"type": "address",
							"internalType": "contract IPermit2"
						},
						{
							"name": "trustedForwarder",
							"type": "address",
							"internalType": "address"
						}
					],
					"stateMutability": "nonpayable"
				},
				{
					"type": "function",
					"name": "DIRECTORY",
					"inputs": [],
					"outputs": [
						{
							"name": "",
							"type": "address",
							"internalType": "contract IJBDirectory"
						}
					],
					"stateMutability": "view"
				},
				{
					"type": "function",
					"name": "FEE",
					"inputs": [],
					"outputs": [
						{
							"name": "",
							"type": "uint256",
							"internalType": "uint256"
						}
					],
					"stateMutability": "view"
				},
				{
					"type": "function",
					"name": "FEELESS_ADDRESSES",
					"inputs": [],
					"outputs": [
						{
							"name": "",
							"type": "address",
							"internalType": "contract IJBFeelessAddresses"
						}
					],
					"stateMutability": "view"
				},
				{
					"type": "function",
					"name": "PERMISSIONS",
					"inputs": [],
					"outputs": [
						{
							"name": "",
							"type": "address",
							"internalType": "contract IJBPermissions"
						}
					],
					"stateMutability": "view"
				},
				{
					"type": "function",
					"name": "PERMIT2",
					"inputs": [],
					"outputs": [
						{
							"name": "",
							"type": "address",
							"internalType": "contract IPermit2"
						}
					],
					"stateMutability": "view"
				},
				{
					"type": "function",
					"name": "PROJECTS",
					"inputs": [],
					"outputs": [
						{
							"name": "",
							"type": "address",
							"internalType": "contract IJBProjects"
						}
					],
					"stateMutability": "view"
				},
				{
					"type": "function",
					"name": "SPLITS",
					"inputs": [],
					"outputs": [
						{
							"name": "",
							"type": "address",
							"internalType": "contract IJBSplits"
						}
					],
					"stateMutability": "view"
				},
				{
					"type": "function",
					"name": "STORE",
					"inputs": [],
					"outputs": [
						{
							"name": "",
							"type": "address",
							"internalType": "contract IJBTerminalStore"
						}
					],
					"stateMutability": "view"
				},
				{
					"type": "function",
					"name": "accountingContextForTokenOf",
					"inputs": [
						{
							"name": "projectId",
							"type": "uint256",
							"internalType": "uint256"
						},
						{
							"name": "token",
							"type": "address",
							"internalType": "address"
						}
					],
					"outputs": [
						{
							"name": "",
							"type": "tuple",
							"internalType": "struct JBAccountingContext",
							"components": [
								{
									"name": "token",
									"type": "address",
									"internalType": "address"
								},
								{
									"name": "decimals",
									"type": "uint8",
									"internalType": "uint8"
								},
								{
									"name": "currency",
									"type": "uint32",
									"internalType": "uint32"
								}
							]
						}
					],
					"stateMutability": "view"
				},
				{
					"type": "function",
					"name": "accountingContextsOf",
					"inputs": [
						{
							"name": "projectId",
							"type": "uint256",
							"internalType": "uint256"
						}
					],
					"outputs": [
						{
							"name": "",
							"type": "tuple[]",
							"internalType": "struct JBAccountingContext[]",
							"components": [
								{
									"name": "token",
									"type": "address",
									"internalType": "address"
								},
								{
									"name": "decimals",
									"type": "uint8",
									"internalType": "uint8"
								},
								{
									"name": "currency",
									"type": "uint32",
									"internalType": "uint32"
								}
							]
						}
					],
					"stateMutability": "view"
				},
				{
					"type": "function",
					"name": "addAccountingContextsFor",
					"inputs": [
						{
							"name": "projectId",
							"type": "uint256",
							"internalType": "uint256"
						},
						{
							"name": "tokens",
							"type": "address[]",
							"internalType": "address[]"
						}
					],
					"outputs": [],
					"stateMutability": "nonpayable"
				},
				{
					"type": "function",
					"name": "addToBalanceOf",
					"inputs": [
						{
							"name": "projectId",
							"type": "uint256",
							"internalType": "uint256"
						},
						{
							"name": "token",
							"type": "address",
							"internalType": "address"
						},
						{
							"name": "amount",
							"type": "uint256",
							"internalType": "uint256"
						},
						{
							"name": "shouldReturnHeldFees",
							"type": "bool",
							"internalType": "bool"
						},
						{
							"name": "memo",
							"type": "string",
							"internalType": "string"
						},
						{
							"name": "metadata",
							"type": "bytes",
							"internalType": "bytes"
						}
					],
					"outputs": [],
					"stateMutability": "payable"
				},
				{
					"type": "function",
					"name": "currentSurplusOf",
					"inputs": [
						{
							"name": "projectId",
							"type": "uint256",
							"internalType": "uint256"
						},
						{
							"name": "decimals",
							"type": "uint256",
							"internalType": "uint256"
						},
						{
							"name": "currency",
							"type": "uint256",
							"internalType": "uint256"
						}
					],
					"outputs": [
						{
							"name": "",
							"type": "uint256",
							"internalType": "uint256"
						}
					],
					"stateMutability": "view"
				},
				{
					"type": "function",
					"name": "executePayout",
					"inputs": [
						{
							"name": "split",
							"type": "tuple",
							"internalType": "struct JBSplit",
							"components": [
								{
									"name": "preferAddToBalance",
									"type": "bool",
									"internalType": "bool"
								},
								{
									"name": "percent",
									"type": "uint256",
									"internalType": "uint256"
								},
								{
									"name": "projectId",
									"type": "uint256",
									"internalType": "uint256"
								},
								{
									"name": "beneficiary",
									"type": "address",
									"internalType": "address payable"
								},
								{
									"name": "lockedUntil",
									"type": "uint256",
									"internalType": "uint256"
								},
								{
									"name": "hook",
									"type": "address",
									"internalType": "contract IJBSplitHook"
								}
							]
						},
						{
							"name": "projectId",
							"type": "uint256",
							"internalType": "uint256"
						},
						{
							"name": "token",
							"type": "address",
							"internalType": "address"
						},
						{
							"name": "amount",
							"type": "uint256",
							"internalType": "uint256"
						},
						{
							"name": "originalMessageSender",
							"type": "address",
							"internalType": "address"
						}
					],
					"outputs": [
						{
							"name": "netPayoutAmount",
							"type": "uint256",
							"internalType": "uint256"
						}
					],
					"stateMutability": "nonpayable"
				},
				{
					"type": "function",
					"name": "executeProcessFee",
					"inputs": [
						{
							"name": "projectId",
							"type": "uint256",
							"internalType": "uint256"
						},
						{
							"name": "token",
							"type": "address",
							"internalType": "address"
						},
						{
							"name": "amount",
							"type": "uint256",
							"internalType": "uint256"
						},
						{
							"name": "beneficiary",
							"type": "address",
							"internalType": "address"
						},
						{
							"name": "feeTerminal",
							"type": "address",
							"internalType": "contract IJBTerminal"
						}
					],
					"outputs": [],
					"stateMutability": "nonpayable"
				},
				{
					"type": "function",
					"name": "heldFeesOf",
					"inputs": [
						{
							"name": "projectId",
							"type": "uint256",
							"internalType": "uint256"
						},
						{
							"name": "token",
							"type": "address",
							"internalType": "address"
						}
					],
					"outputs": [
						{
							"name": "",
							"type": "tuple[]",
							"internalType": "struct JBFee[]",
							"components": [
								{
									"name": "amount",
									"type": "uint256",
									"internalType": "uint256"
								},
								{
									"name": "beneficiary",
									"type": "address",
									"internalType": "address"
								},
								{
									"name": "unlockTimestamp",
									"type": "uint256",
									"internalType": "uint256"
								}
							]
						}
					],
					"stateMutability": "view"
				},
				{
					"type": "function",
					"name": "isTrustedForwarder",
					"inputs": [
						{
							"name": "forwarder",
							"type": "address",
							"internalType": "address"
						}
					],
					"outputs": [
						{
							"name": "",
							"type": "bool",
							"internalType": "bool"
						}
					],
					"stateMutability": "view"
				},
				{
					"type": "function",
					"name": "migrateBalanceOf",
					"inputs": [
						{
							"name": "projectId",
							"type": "uint256",
							"internalType": "uint256"
						},
						{
							"name": "token",
							"type": "address",
							"internalType": "address"
						},
						{
							"name": "to",
							"type": "address",
							"internalType": "contract IJBTerminal"
						}
					],
					"outputs": [
						{
							"name": "balance",
							"type": "uint256",
							"internalType": "uint256"
						}
					],
					"stateMutability": "nonpayable"
				},
				{
					"type": "function",
					"name": "pay",
					"inputs": [
						{
							"name": "projectId",
							"type": "uint256",
							"internalType": "uint256"
						},
						{
							"name": "token",
							"type": "address",
							"internalType": "address"
						},
						{
							"name": "amount",
							"type": "uint256",
							"internalType": "uint256"
						},
						{
							"name": "beneficiary",
							"type": "address",
							"internalType": "address"
						},
						{
							"name": "minReturnedTokens",
							"type": "uint256",
							"internalType": "uint256"
						},
						{
							"name": "memo",
							"type": "string",
							"internalType": "string"
						},
						{
							"name": "metadata",
							"type": "bytes",
							"internalType": "bytes"
						}
					],
					"outputs": [
						{
							"name": "beneficiaryTokenCount",
							"type": "uint256",
							"internalType": "uint256"
						}
					],
					"stateMutability": "payable"
				},
				{
					"type": "function",
					"name": "processHeldFeesOf",
					"inputs": [
						{
							"name": "projectId",
							"type": "uint256",
							"internalType": "uint256"
						},
						{
							"name": "token",
							"type": "address",
							"internalType": "address"
						}
					],
					"outputs": [],
					"stateMutability": "nonpayable"
				},
				{
					"type": "function",
					"name": "redeemTokensOf",
					"inputs": [
						{
							"name": "holder",
							"type": "address",
							"internalType": "address"
						},
						{
							"name": "projectId",
							"type": "uint256",
							"internalType": "uint256"
						},
						{
							"name": "tokenToReclaim",
							"type": "address",
							"internalType": "address"
						},
						{
							"name": "redeemCount",
							"type": "uint256",
							"internalType": "uint256"
						},
						{
							"name": "minTokensReclaimed",
							"type": "uint256",
							"internalType": "uint256"
						},
						{
							"name": "beneficiary",
							"type": "address",
							"internalType": "address payable"
						},
						{
							"name": "metadata",
							"type": "bytes",
							"internalType": "bytes"
						}
					],
					"outputs": [
						{
							"name": "reclaimAmount",
							"type": "uint256",
							"internalType": "uint256"
						}
					],
					"stateMutability": "nonpayable"
				},
				{
					"type": "function",
					"name": "sendPayoutsOf",
					"inputs": [
						{
							"name": "projectId",
							"type": "uint256",
							"internalType": "uint256"
						},
						{
							"name": "token",
							"type": "address",
							"internalType": "address"
						},
						{
							"name": "amount",
							"type": "uint256",
							"internalType": "uint256"
						},
						{
							"name": "currency",
							"type": "uint256",
							"internalType": "uint256"
						},
						{
							"name": "minTokensPaidOut",
							"type": "uint256",
							"internalType": "uint256"
						}
					],
					"outputs": [
						{
							"name": "amountPaidOut",
							"type": "uint256",
							"internalType": "uint256"
						}
					],
					"stateMutability": "nonpayable"
				},
				{
					"type": "function",
					"name": "supportsInterface",
					"inputs": [
						{
							"name": "interfaceId",
							"type": "bytes4",
							"internalType": "bytes4"
						}
					],
					"outputs": [
						{
							"name": "",
							"type": "bool",
							"internalType": "bool"
						}
					],
					"stateMutability": "view"
				},
				{
					"type": "function",
					"name": "trustedForwarder",
					"inputs": [],
					"outputs": [
						{
							"name": "",
							"type": "address",
							"internalType": "address"
						}
					],
					"stateMutability": "view"
				},
				{
					"type": "function",
					"name": "useAllowanceOf",
					"inputs": [
						{
							"name": "projectId",
							"type": "uint256",
							"internalType": "uint256"
						},
						{
							"name": "token",
							"type": "address",
							"internalType": "address"
						},
						{
							"name": "amount",
							"type": "uint256",
							"internalType": "uint256"
						},
						{
							"name": "currency",
							"type": "uint256",
							"internalType": "uint256"
						},
						{
							"name": "minTokensPaidOut",
							"type": "uint256",
							"internalType": "uint256"
						},
						{
							"name": "beneficiary",
							"type": "address",
							"internalType": "address payable"
						},
						{
							"name": "memo",
							"type": "string",
							"internalType": "string"
						}
					],
					"outputs": [
						{
							"name": "amountPaidOut",
							"type": "uint256",
							"internalType": "uint256"
						}
					],
					"stateMutability": "nonpayable"
				},
				{
					"type": "event",
					"name": "AddToBalance",
					"inputs": [
						{
							"name": "projectId",
							"type": "uint256",
							"indexed": true,
							"internalType": "uint256"
						},
						{
							"name": "amount",
							"type": "uint256",
							"indexed": false,
							"internalType": "uint256"
						},
						{
							"name": "unlockedFees",
							"type": "uint256",
							"indexed": false,
							"internalType": "uint256"
						},
						{
							"name": "memo",
							"type": "string",
							"indexed": false,
							"internalType": "string"
						},
						{
							"name": "metadata",
							"type": "bytes",
							"indexed": false,
							"internalType": "bytes"
						},
						{
							"name": "caller",
							"type": "address",
							"indexed": false,
							"internalType": "address"
						}
					],
					"anonymous": false
				},
				{
					"type": "event",
					"name": "FeeReverted",
					"inputs": [
						{
							"name": "projectId",
							"type": "uint256",
							"indexed": true,
							"internalType": "uint256"
						},
						{
							"name": "token",
							"type": "address",
							"indexed": true,
							"internalType": "address"
						},
						{
							"name": "feeProjectId",
							"type": "uint256",
							"indexed": true,
							"internalType": "uint256"
						},
						{
							"name": "amount",
							"type": "uint256",
							"indexed": false,
							"internalType": "uint256"
						},
						{
							"name": "reason",
							"type": "bytes",
							"indexed": false,
							"internalType": "bytes"
						},
						{
							"name": "caller",
							"type": "address",
							"indexed": false,
							"internalType": "address"
						}
					],
					"anonymous": false
				},
				{
					"type": "event",
					"name": "HoldFee",
					"inputs": [
						{
							"name": "projectId",
							"type": "uint256",
							"indexed": true,
							"internalType": "uint256"
						},
						{
							"name": "token",
							"type": "address",
							"indexed": true,
							"internalType": "address"
						},
						{
							"name": "amount",
							"type": "uint256",
							"indexed": true,
							"internalType": "uint256"
						},
						{
							"name": "fee",
							"type": "uint256",
							"indexed": false,
							"internalType": "uint256"
						},
						{
							"name": "beneficiary",
							"type": "address",
							"indexed": false,
							"internalType": "address"
						},
						{
							"name": "caller",
							"type": "address",
							"indexed": false,
							"internalType": "address"
						}
					],
					"anonymous": false
				},
				{
					"type": "event",
					"name": "HookAfterRecordPay",
					"inputs": [
						{
							"name": "hook",
							"type": "address",
							"indexed": true,
							"internalType": "contract IJBPayHook"
						},
						{
							"name": "context",
							"type": "tuple",
							"indexed": false,
							"internalType": "struct JBAfterPayRecordedContext",
							"components": [
								{
									"name": "payer",
									"type": "address",
									"internalType": "address"
								},
								{
									"name": "projectId",
									"type": "uint256",
									"internalType": "uint256"
								},
								{
									"name": "rulesetId",
									"type": "uint256",
									"internalType": "uint256"
								},
								{
									"name": "amount",
									"type": "tuple",
									"internalType": "struct JBTokenAmount",
									"components": [
										{
											"name": "token",
											"type": "address",
											"internalType": "address"
										},
										{
											"name": "value",
											"type": "uint256",
											"internalType": "uint256"
										},
										{
											"name": "decimals",
											"type": "uint256",
											"internalType": "uint256"
										},
										{
											"name": "currency",
											"type": "uint256",
											"internalType": "uint256"
										}
									]
								},
								{
									"name": "forwardedAmount",
									"type": "tuple",
									"internalType": "struct JBTokenAmount",
									"components": [
										{
											"name": "token",
											"type": "address",
											"internalType": "address"
										},
										{
											"name": "value",
											"type": "uint256",
											"internalType": "uint256"
										},
										{
											"name": "decimals",
											"type": "uint256",
											"internalType": "uint256"
										},
										{
											"name": "currency",
											"type": "uint256",
											"internalType": "uint256"
										}
									]
								},
								{
									"name": "weight",
									"type": "uint256",
									"internalType": "uint256"
								},
								{
									"name": "projectTokenCount",
									"type": "uint256",
									"internalType": "uint256"
								},
								{
									"name": "beneficiary",
									"type": "address",
									"internalType": "address"
								},
								{
									"name": "hookMetadata",
									"type": "bytes",
									"internalType": "bytes"
								},
								{
									"name": "payerMetadata",
									"type": "bytes",
									"internalType": "bytes"
								}
							]
						},
						{
							"name": "specificationAmount",
							"type": "uint256",
							"indexed": false,
							"internalType": "uint256"
						},
						{
							"name": "caller",
							"type": "address",
							"indexed": false,
							"internalType": "address"
						}
					],
					"anonymous": false
				},
				{
					"type": "event",
					"name": "HookAfterRecordRedeem",
					"inputs": [
						{
							"name": "hook",
							"type": "address",
							"indexed": true,
							"internalType": "contract IJBRedeemHook"
						},
						{
							"name": "context",
							"type": "tuple",
							"indexed": false,
							"internalType": "struct JBAfterRedeemRecordedContext",
							"components": [
								{
									"name": "holder",
									"type": "address",
									"internalType": "address"
								},
								{
									"name": "projectId",
									"type": "uint256",
									"internalType": "uint256"
								},
								{
									"name": "rulesetId",
									"type": "uint256",
									"internalType": "uint256"
								},
								{
									"name": "redeemCount",
									"type": "uint256",
									"internalType": "uint256"
								},
								{
									"name": "reclaimedAmount",
									"type": "tuple",
									"internalType": "struct JBTokenAmount",
									"components": [
										{
											"name": "token",
											"type": "address",
											"internalType": "address"
										},
										{
											"name": "value",
											"type": "uint256",
											"internalType": "uint256"
										},
										{
											"name": "decimals",
											"type": "uint256",
											"internalType": "uint256"
										},
										{
											"name": "currency",
											"type": "uint256",
											"internalType": "uint256"
										}
									]
								},
								{
									"name": "forwardedAmount",
									"type": "tuple",
									"internalType": "struct JBTokenAmount",
									"components": [
										{
											"name": "token",
											"type": "address",
											"internalType": "address"
										},
										{
											"name": "value",
											"type": "uint256",
											"internalType": "uint256"
										},
										{
											"name": "decimals",
											"type": "uint256",
											"internalType": "uint256"
										},
										{
											"name": "currency",
											"type": "uint256",
											"internalType": "uint256"
										}
									]
								},
								{
									"name": "redemptionRate",
									"type": "uint256",
									"internalType": "uint256"
								},
								{
									"name": "beneficiary",
									"type": "address",
									"internalType": "address payable"
								},
								{
									"name": "hookMetadata",
									"type": "bytes",
									"internalType": "bytes"
								},
								{
									"name": "redeemerMetadata",
									"type": "bytes",
									"internalType": "bytes"
								}
							]
						},
						{
							"name": "specificationAmount",
							"type": "uint256",
							"indexed": false,
							"internalType": "uint256"
						},
						{
							"name": "fee",
							"type": "uint256",
							"indexed": false,
							"internalType": "uint256"
						},
						{
							"name": "caller",
							"type": "address",
							"indexed": false,
							"internalType": "address"
						}
					],
					"anonymous": false
				},
				{
					"type": "event",
					"name": "MigrateTerminal",
					"inputs": [
						{
							"name": "projectId",
							"type": "uint256",
							"indexed": true,
							"internalType": "uint256"
						},
						{
							"name": "token",
							"type": "address",
							"indexed": true,
							"internalType": "address"
						},
						{
							"name": "to",
							"type": "address",
							"indexed": true,
							"internalType": "contract IJBTerminal"
						},
						{
							"name": "amount",
							"type": "uint256",
							"indexed": false,
							"internalType": "uint256"
						},
						{
							"name": "caller",
							"type": "address",
							"indexed": false,
							"internalType": "address"
						}
					],
					"anonymous": false
				},
				{
					"type": "event",
					"name": "Pay",
					"inputs": [
						{
							"name": "rulesetId",
							"type": "uint256",
							"indexed": true,
							"internalType": "uint256"
						},
						{
							"name": "rulesetCycleNumber",
							"type": "uint256",
							"indexed": true,
							"internalType": "uint256"
						},
						{
							"name": "projectId",
							"type": "uint256",
							"indexed": true,
							"internalType": "uint256"
						},
						{
							"name": "payer",
							"type": "address",
							"indexed": false,
							"internalType": "address"
						},
						{
							"name": "beneficiary",
							"type": "address",
							"indexed": false,
							"internalType": "address"
						},
						{
							"name": "amount",
							"type": "uint256",
							"indexed": false,
							"internalType": "uint256"
						},
						{
							"name": "beneficiaryTokenCount",
							"type": "uint256",
							"indexed": false,
							"internalType": "uint256"
						},
						{
							"name": "memo",
							"type": "string",
							"indexed": false,
							"internalType": "string"
						},
						{
							"name": "metadata",
							"type": "bytes",
							"indexed": false,
							"internalType": "bytes"
						},
						{
							"name": "caller",
							"type": "address",
							"indexed": false,
							"internalType": "address"
						}
					],
					"anonymous": false
				},
				{
					"type": "event",
					"name": "PayoutReverted",
					"inputs": [
						{
							"name": "projectId",
							"type": "uint256",
							"indexed": true,
							"internalType": "uint256"
						},
						{
							"name": "split",
							"type": "tuple",
							"indexed": false,
							"internalType": "struct JBSplit",
							"components": [
								{
									"name": "preferAddToBalance",
									"type": "bool",
									"internalType": "bool"
								},
								{
									"name": "percent",
									"type": "uint256",
									"internalType": "uint256"
								},
								{
									"name": "projectId",
									"type": "uint256",
									"internalType": "uint256"
								},
								{
									"name": "beneficiary",
									"type": "address",
									"internalType": "address payable"
								},
								{
									"name": "lockedUntil",
									"type": "uint256",
									"internalType": "uint256"
								},
								{
									"name": "hook",
									"type": "address",
									"internalType": "contract IJBSplitHook"
								}
							]
						},
						{
							"name": "amount",
							"type": "uint256",
							"indexed": false,
							"internalType": "uint256"
						},
						{
							"name": "reason",
							"type": "bytes",
							"indexed": false,
							"internalType": "bytes"
						},
						{
							"name": "caller",
							"type": "address",
							"indexed": false,
							"internalType": "address"
						}
					],
					"anonymous": false
				},
				{
					"type": "event",
					"name": "ProcessFee",
					"inputs": [
						{
							"name": "projectId",
							"type": "uint256",
							"indexed": true,
							"internalType": "uint256"
						},
						{
							"name": "token",
							"type": "address",
							"indexed": true,
							"internalType": "address"
						},
						{
							"name": "amount",
							"type": "uint256",
							"indexed": true,
							"internalType": "uint256"
						},
						{
							"name": "wasHeld",
							"type": "bool",
							"indexed": false,
							"internalType": "bool"
						},
						{
							"name": "beneficiary",
							"type": "address",
							"indexed": false,
							"internalType": "address"
						},
						{
							"name": "caller",
							"type": "address",
							"indexed": false,
							"internalType": "address"
						}
					],
					"anonymous": false
				},
				{
					"type": "event",
					"name": "RedeemTokens",
					"inputs": [
						{
							"name": "rulesetId",
							"type": "uint256",
							"indexed": true,
							"internalType": "uint256"
						},
						{
							"name": "rulesetCycleNumber",
							"type": "uint256",
							"indexed": true,
							"internalType": "uint256"
						},
						{
							"name": "projectId",
							"type": "uint256",
							"indexed": true,
							"internalType": "uint256"
						},
						{
							"name": "holder",
							"type": "address",
							"indexed": false,
							"internalType": "address"
						},
						{
							"name": "beneficiary",
							"type": "address",
							"indexed": false,
							"internalType": "address"
						},
						{
							"name": "tokenCount",
							"type": "uint256",
							"indexed": false,
							"internalType": "uint256"
						},
						{
							"name": "redemptionRate",
							"type": "uint256",
							"indexed": false,
							"internalType": "uint256"
						},
						{
							"name": "reclaimedAmount",
							"type": "uint256",
							"indexed": false,
							"internalType": "uint256"
						},
						{
							"name": "metadata",
							"type": "bytes",
							"indexed": false,
							"internalType": "bytes"
						},
						{
							"name": "caller",
							"type": "address",
							"indexed": false,
							"internalType": "address"
						}
					],
					"anonymous": false
				},
				{
					"type": "event",
					"name": "ReturnHeldFees",
					"inputs": [
						{
							"name": "projectId",
							"type": "uint256",
							"indexed": true,
							"internalType": "uint256"
						},
						{
							"name": "token",
							"type": "address",
							"indexed": true,
							"internalType": "address"
						},
						{
							"name": "amount",
							"type": "uint256",
							"indexed": true,
							"internalType": "uint256"
						},
						{
							"name": "returnedFees",
							"type": "uint256",
							"indexed": false,
							"internalType": "uint256"
						},
						{
							"name": "leftoverAmount",
							"type": "uint256",
							"indexed": false,
							"internalType": "uint256"
						},
						{
							"name": "caller",
							"type": "address",
							"indexed": false,
							"internalType": "address"
						}
					],
					"anonymous": false
				},
				{
					"type": "event",
					"name": "SendPayoutToSplit",
					"inputs": [
						{
							"name": "projectId",
							"type": "uint256",
							"indexed": true,
							"internalType": "uint256"
						},
						{
							"name": "rulesetId",
							"type": "uint256",
							"indexed": true,
							"internalType": "uint256"
						},
						{
							"name": "group",
							"type": "uint256",
							"indexed": true,
							"internalType": "uint256"
						},
						{
							"name": "split",
							"type": "tuple",
							"indexed": false,
							"internalType": "struct JBSplit",
							"components": [
								{
									"name": "preferAddToBalance",
									"type": "bool",
									"internalType": "bool"
								},
								{
									"name": "percent",
									"type": "uint256",
									"internalType": "uint256"
								},
								{
									"name": "projectId",
									"type": "uint256",
									"internalType": "uint256"
								},
								{
									"name": "beneficiary",
									"type": "address",
									"internalType": "address payable"
								},
								{
									"name": "lockedUntil",
									"type": "uint256",
									"internalType": "uint256"
								},
								{
									"name": "hook",
									"type": "address",
									"internalType": "contract IJBSplitHook"
								}
							]
						},
						{
							"name": "amount",
							"type": "uint256",
							"indexed": false,
							"internalType": "uint256"
						},
						{
							"name": "netAmount",
							"type": "uint256",
							"indexed": false,
							"internalType": "uint256"
						},
						{
							"name": "caller",
							"type": "address",
							"indexed": false,
							"internalType": "address"
						}
					],
					"anonymous": false
				},
				{
					"type": "event",
					"name": "SendPayouts",
					"inputs": [
						{
							"name": "rulesetId",
							"type": "uint256",
							"indexed": true,
							"internalType": "uint256"
						},
						{
							"name": "rulesetCycleNumber",
							"type": "uint256",
							"indexed": true,
							"internalType": "uint256"
						},
						{
							"name": "projectId",
							"type": "uint256",
							"indexed": true,
							"internalType": "uint256"
						},
						{
							"name": "beneficiary",
							"type": "address",
							"indexed": false,
							"internalType": "address"
						},
						{
							"name": "amount",
							"type": "uint256",
							"indexed": false,
							"internalType": "uint256"
						},
						{
							"name": "amountPaidOut",
							"type": "uint256",
							"indexed": false,
							"internalType": "uint256"
						},
						{
							"name": "fee",
							"type": "uint256",
							"indexed": false,
							"internalType": "uint256"
						},
						{
							"name": "beneficiaryDistributionAmount",
							"type": "uint256",
							"indexed": false,
							"internalType": "uint256"
						},
						{
							"name": "caller",
							"type": "address",
							"indexed": false,
							"internalType": "address"
						}
					],
					"anonymous": false
				},
				{
					"type": "event",
					"name": "SetAccountingContext",
					"inputs": [
						{
							"name": "projectId",
							"type": "uint256",
							"indexed": true,
							"internalType": "uint256"
						},
						{
							"name": "token",
							"type": "address",
							"indexed": true,
							"internalType": "address"
						},
						{
							"name": "context",
							"type": "tuple",
							"indexed": false,
							"internalType": "struct JBAccountingContext",
							"components": [
								{
									"name": "token",
									"type": "address",
									"internalType": "address"
								},
								{
									"name": "decimals",
									"type": "uint8",
									"internalType": "uint8"
								},
								{
									"name": "currency",
									"type": "uint32",
									"internalType": "uint32"
								}
							]
						},
						{
							"name": "caller",
							"type": "address",
							"indexed": false,
							"internalType": "address"
						}
					],
					"anonymous": false
				},
				{
					"type": "event",
					"name": "UseAllowance",
					"inputs": [
						{
							"name": "rulesetId",
							"type": "uint256",
							"indexed": true,
							"internalType": "uint256"
						},
						{
							"name": "rulesetCycleNumber",
							"type": "uint256",
							"indexed": true,
							"internalType": "uint256"
						},
						{
							"name": "projectId",
							"type": "uint256",
							"indexed": true,
							"internalType": "uint256"
						},
						{
							"name": "beneficiary",
							"type": "address",
							"indexed": false,
							"internalType": "address"
						},
						{
							"name": "amount",
							"type": "uint256",
							"indexed": false,
							"internalType": "uint256"
						},
						{
							"name": "amountPaidOut",
							"type": "uint256",
							"indexed": false,
							"internalType": "uint256"
						},
						{
							"name": "netAmountPaidOut",
							"type": "uint256",
							"indexed": false,
							"internalType": "uint256"
						},
						{
							"name": "memo",
							"type": "string",
							"indexed": false,
							"internalType": "string"
						},
						{
							"name": "caller",
							"type": "address",
							"indexed": false,
							"internalType": "address"
						}
					],
					"anonymous": false
				},
				{
					"type": "error",
					"name": "ACCOUNTING_CONTEXT_ALREADY_SET",
					"inputs": []
				},
				{
					"type": "error",
					"name": "AddressEmptyCode",
					"inputs": [
						{
							"name": "target",
							"type": "address",
							"internalType": "address"
						}
					]
				},
				{
					"type": "error",
					"name": "AddressInsufficientBalance",
					"inputs": [
						{
							"name": "account",
							"type": "address",
							"internalType": "address"
						}
					]
				},
				{
					"type": "error",
					"name": "FailedInnerCall",
					"inputs": []
				},
				{
					"type": "error",
					"name": "INADEQUATE_PAYOUT_AMOUNT",
					"inputs": []
				},
				{
					"type": "error",
					"name": "INADEQUATE_RECLAIM_AMOUNT",
					"inputs": []
				},
				{
					"type": "error",
					"name": "NO_MSG_VALUE_ALLOWED",
					"inputs": []
				},
				{
					"type": "error",
					"name": "OVERFLOW_ALERT",
					"inputs": []
				},
				{
					"type": "error",
					"name": "PERMIT_ALLOWANCE_NOT_ENOUGH",
					"inputs": []
				},
				{
					"type": "error",
					"name": "PRBMath_MulDiv_Overflow",
					"inputs": [
						{
							"name": "x",
							"type": "uint256",
							"internalType": "uint256"
						},
						{
							"name": "y",
							"type": "uint256",
							"internalType": "uint256"
						},
						{
							"name": "denominator",
							"type": "uint256",
							"internalType": "uint256"
						}
					]
				},
				{
					"type": "error",
					"name": "SafeERC20FailedOperation",
					"inputs": [
						{
							"name": "token",
							"type": "address",
							"internalType": "address"
						}
					]
				},
				{
					"type": "error",
					"name": "TERMINAL_TOKENS_INCOMPATIBLE",
					"inputs": []
				},
				{
					"type": "error",
					"name": "TOKEN_NOT_ACCEPTED",
					"inputs": []
				},
				{
					"type": "error",
					"name": "UNAUTHORIZED",
					"inputs": []
				},
				{
					"type": "error",
					"name": "UNDER_MIN_RETURNED_TOKENS",
					"inputs": []
				}
			],
			"solcInputHash": "5d4c706d93c97620ff427d8d75b46099",
			"receipt": {
				"blockHash": "0x9211bd623a1f2eb8a24d8bedc865aa0f3523267ae6fc1d2fb9874d908a712cd8",
				"blockNumber": 8984627,
				"contractAddress": null,
				"cumulativeGasUsed": "9991309",
				"from": "0xC034550B542b83BA1De312b21d1C94a9a52B1595",
				"gasPrice": "1000288",
				"gasUsed": "9752782",
				"hash": "0x41a5058c31afe1a9f25f04287f475dc03ca2ec540ca946abbc0afa864c337ca0",
				"index": 4,
				"logs": [
					{
						"address": "0xB5E96127D417b1B3ef8438496a38A143167209c7",
						"blockHash": "0x9211bd623a1f2eb8a24d8bedc865aa0f3523267ae6fc1d2fb9874d908a712cd8",
						"blockNumber": 8984627,
						"data": "0x0000000000000000000000000000000000000000000000000000000000000000",
						"index": 2,
						"topics": [
							"0x572f161235911da04685a68c06adf558fc7e4a36909dca394650e0adc19cc93d",
							"0x000000000000000000000000c034550b542b83ba1de312b21d1c94a9a52b1595",
							"0x000000000000000000000000ef1be3c049809cace5bc203bbe4ec1ab284bf75c",
							"0xdd5049fc0d16dadf2e25454227c3becec71d30df67e9612ddd659f24bd8c39b9"
						],
						"transactionHash": "0x41a5058c31afe1a9f25f04287f475dc03ca2ec540ca946abbc0afa864c337ca0",
						"transactionIndex": 4
					},
					{
						"address": "0x6B33bf264D01Ed2660D4F6E4e96BB56F784B1e8f",
						"blockHash": "0x9211bd623a1f2eb8a24d8bedc865aa0f3523267ae6fc1d2fb9874d908a712cd8",
						"blockNumber": 8984627,
						"data": "0x",
						"index": 3,
						"topics": [
							"0x8be0079c531659141344cd1fd0a4f28419497f9722a3daafe3b4186f6b6457e0",
							"0x0000000000000000000000000000000000000000000000000000000000000000",
							"0x0000000000000000000000001081b5aa9d9d4862a3da4d469433fb36ed80fa2a"
						],
						"transactionHash": "0x41a5058c31afe1a9f25f04287f475dc03ca2ec540ca946abbc0afa864c337ca0",
						"transactionIndex": 4
					},
					{
						"address": "0x1081B5AA9D9d4862A3dA4d469433FB36Ed80FA2A",
						"blockHash": "0x9211bd623a1f2eb8a24d8bedc865aa0f3523267ae6fc1d2fb9874d908a712cd8",
						"blockNumber": 8984627,
						"data": "0x",
						"index": 4,
						"topics": [
							"0x6895c13664aa4f67288b25d7a21d7aaa34916e355fb9b6fae0a139a9085becb8",
							"0x000000000000000000000000ef1be3c049809cace5bc203bbe4ec1ab284bf75c"
						],
						"transactionHash": "0x41a5058c31afe1a9f25f04287f475dc03ca2ec540ca946abbc0afa864c337ca0",
						"transactionIndex": 4
					},
					{
						"address": "0xEf1Be3C049809caCe5Bc203BBe4Ec1Ab284bF75c",
						"blockHash": "0x9211bd623a1f2eb8a24d8bedc865aa0f3523267ae6fc1d2fb9874d908a712cd8",
						"blockNumber": 8984627,
						"data": "0x000000000000000000000000000000000000000000000000000000000000000c",
						"index": 5,
						"topics": [
							"0xa65fb05c5808f5f389d72edeaf719ce38f4cc55c1f69ca3cbfb31c21501caa07",
							"0xeb76efeb8f97c5cb80ab72b380ea5b356ede5f4abbf2a0c560104f8a80b45857"
						],
						"transactionHash": "0x41a5058c31afe1a9f25f04287f475dc03ca2ec540ca946abbc0afa864c337ca0",
						"transactionIndex": 4
					},
					{
						"address": "0x1081B5AA9D9d4862A3dA4d469433FB36Ed80FA2A",
						"blockHash": "0x9211bd623a1f2eb8a24d8bedc865aa0f3523267ae6fc1d2fb9874d908a712cd8",
						"blockNumber": 8984627,
						"data": "0x",
						"index": 6,
						"topics": [
							"0x6895c13664aa4f67288b25d7a21d7aaa34916e355fb9b6fae0a139a9085becb8",
							"0x000000000000000000000000ef1be3c049809cace5bc203bbe4ec1ab284bf75c"
						],
						"transactionHash": "0x41a5058c31afe1a9f25f04287f475dc03ca2ec540ca946abbc0afa864c337ca0",
						"transactionIndex": 4
					},
					{
						"address": "0xEf1Be3C049809caCe5Bc203BBe4Ec1Ab284bF75c",
						"blockHash": "0x9211bd623a1f2eb8a24d8bedc865aa0f3523267ae6fc1d2fb9874d908a712cd8",
						"blockNumber": 8984627,
						"data": "0x000000000000000000000000000000000000000000000000000000000000000d",
						"index": 7,
						"topics": [
							"0xa65fb05c5808f5f389d72edeaf719ce38f4cc55c1f69ca3cbfb31c21501caa07",
							"0xeb76efeb8f97c5cb80ab72b380ea5b356ede5f4abbf2a0c560104f8a80b45857"
						],
						"transactionHash": "0x41a5058c31afe1a9f25f04287f475dc03ca2ec540ca946abbc0afa864c337ca0",
						"transactionIndex": 4
					},
					{
						"address": "0x1081B5AA9D9d4862A3dA4d469433FB36Ed80FA2A",
						"blockHash": "0x9211bd623a1f2eb8a24d8bedc865aa0f3523267ae6fc1d2fb9874d908a712cd8",
						"blockNumber": 8984627,
						"data": "0x",
						"index": 8,
						"topics": [
							"0x6895c13664aa4f67288b25d7a21d7aaa34916e355fb9b6fae0a139a9085becb8",
							"0x000000000000000000000000ef1be3c049809cace5bc203bbe4ec1ab284bf75c"
						],
						"transactionHash": "0x41a5058c31afe1a9f25f04287f475dc03ca2ec540ca946abbc0afa864c337ca0",
						"transactionIndex": 4
					},
					{
						"address": "0xEf1Be3C049809caCe5Bc203BBe4Ec1Ab284bF75c",
						"blockHash": "0x9211bd623a1f2eb8a24d8bedc865aa0f3523267ae6fc1d2fb9874d908a712cd8",
						"blockNumber": 8984627,
						"data": "0x000000000000000000000000000000000000000000000000000000000000000e",
						"index": 9,
						"topics": [
							"0xa65fb05c5808f5f389d72edeaf719ce38f4cc55c1f69ca3cbfb31c21501caa07",
							"0xeb76efeb8f97c5cb80ab72b380ea5b356ede5f4abbf2a0c560104f8a80b45857"
						],
						"transactionHash": "0x41a5058c31afe1a9f25f04287f475dc03ca2ec540ca946abbc0afa864c337ca0",
						"transactionIndex": 4
					},
					{
						"address": "0xf9dadA4628Eb3992202CF253625d4ECebBC1592f",
						"blockHash": "0x9211bd623a1f2eb8a24d8bedc865aa0f3523267ae6fc1d2fb9874d908a712cd8",
						"blockNumber": 8984627,
						"data": "0x",
						"index": 10,
						"topics": [
							"0xddf252ad1be2c89b69c2b068fc378daa952ba7f163c4a11628f55a4df523b3ef",
							"0x0000000000000000000000001081b5aa9d9d4862a3da4d469433fb36ed80fa2a",
							"0x0000000000000000000000001f96512db9a74b8805d900c8e553879c0cb8bb2a",
							"0x0000000000000000000000000000000000000000000000000000000000000001"
						],
						"transactionHash": "0x41a5058c31afe1a9f25f04287f475dc03ca2ec540ca946abbc0afa864c337ca0",
						"transactionIndex": 4
					},
					{
						"address": "0x1081B5AA9D9d4862A3dA4d469433FB36Ed80FA2A",
						"blockHash": "0x9211bd623a1f2eb8a24d8bedc865aa0f3523267ae6fc1d2fb9874d908a712cd8",
						"blockNumber": 8984627,
						"data": "0x",
						"index": 11,
						"topics": [
							"0x6895c13664aa4f67288b25d7a21d7aaa34916e355fb9b6fae0a139a9085becb8",
							"0x000000000000000000000000ef1be3c049809cace5bc203bbe4ec1ab284bf75c"
						],
						"transactionHash": "0x41a5058c31afe1a9f25f04287f475dc03ca2ec540ca946abbc0afa864c337ca0",
						"transactionIndex": 4
					},
					{
						"address": "0xEf1Be3C049809caCe5Bc203BBe4Ec1Ab284bF75c",
						"blockHash": "0x9211bd623a1f2eb8a24d8bedc865aa0f3523267ae6fc1d2fb9874d908a712cd8",
						"blockNumber": 8984627,
						"data": "0x000000000000000000000000000000000000000000000000000000000000000f",
						"index": 12,
						"topics": [
							"0xa65fb05c5808f5f389d72edeaf719ce38f4cc55c1f69ca3cbfb31c21501caa07",
							"0xeb76efeb8f97c5cb80ab72b380ea5b356ede5f4abbf2a0c560104f8a80b45857"
						],
						"transactionHash": "0x41a5058c31afe1a9f25f04287f475dc03ca2ec540ca946abbc0afa864c337ca0",
						"transactionIndex": 4
					},
					{
						"address": "0xEf1Be3C049809caCe5Bc203BBe4Ec1Ab284bF75c",
						"blockHash": "0x9211bd623a1f2eb8a24d8bedc865aa0f3523267ae6fc1d2fb9874d908a712cd8",
						"blockNumber": 8984627,
						"data": "0x",
						"index": 13,
						"topics": [
							"0x4383d976757d67ca920616be0b6430a681ea9d3dcce8d6d61d4603ca4a9bff63",
							"0xeb76efeb8f97c5cb80ab72b380ea5b356ede5f4abbf2a0c560104f8a80b45857"
						],
						"transactionHash": "0x41a5058c31afe1a9f25f04287f475dc03ca2ec540ca946abbc0afa864c337ca0",
						"transactionIndex": 4
					}
				],
				"logsBloom": "0x0000000008001000000800000008000000000000000800000080000000400000006000800000000000000000004008000000000000000000000000000004001000000000000020040000000800000000040100000004000000020000000000000004040002000004000000000000080100000010000000000000001000000040000100000000000000010000000000000000000000000000000081002000000000400080001000000000000000000002020000000000000000000000000e00000000000200080020000000000800000000000000000000000000000000006000000000000000020c00000000000000020000000000000000000000040a000100",
				"status": 1,
				"to": "0xB5E96127D417b1B3ef8438496a38A143167209c7"
			},
			"metadata": "{\"compiler\":{\"version\":\"0.8.23+commit.f704f362\"},\"language\":\"Solidity\",\"output\":{\"abi\":[{\"inputs\":[{\"internalType\":\"contract IJBPermissions\",\"name\":\"permissions\",\"type\":\"address\"},{\"internalType\":\"contract IJBProjects\",\"name\":\"projects\",\"type\":\"address\"},{\"internalType\":\"contract IJBDirectory\",\"name\":\"directory\",\"type\":\"address\"},{\"internalType\":\"contract IJBSplits\",\"name\":\"splits\",\"type\":\"address\"},{\"internalType\":\"contract IJBTerminalStore\",\"name\":\"store\",\"type\":\"address\"},{\"internalType\":\"contract IJBFeelessAddresses\",\"name\":\"feelessAddresses\",\"type\":\"address\"},{\"internalType\":\"contract IPermit2\",\"name\":\"permit2\",\"type\":\"address\"},{\"internalType\":\"address\",\"name\":\"trustedForwarder\",\"type\":\"address\"}],\"stateMutability\":\"nonpayable\",\"type\":\"constructor\"},{\"inputs\":[],\"type\":\"error\",\"name\":\"ACCOUNTING_CONTEXT_ALREADY_SET\"},{\"inputs\":[{\"internalType\":\"address\",\"name\":\"target\",\"type\":\"address\"}],\"type\":\"error\",\"name\":\"AddressEmptyCode\"},{\"inputs\":[{\"internalType\":\"address\",\"name\":\"account\",\"type\":\"address\"}],\"type\":\"error\",\"name\":\"AddressInsufficientBalance\"},{\"inputs\":[],\"type\":\"error\",\"name\":\"FailedInnerCall\"},{\"inputs\":[],\"type\":\"error\",\"name\":\"INADEQUATE_PAYOUT_AMOUNT\"},{\"inputs\":[],\"type\":\"error\",\"name\":\"INADEQUATE_RECLAIM_AMOUNT\"},{\"inputs\":[],\"type\":\"error\",\"name\":\"NO_MSG_VALUE_ALLOWED\"},{\"inputs\":[],\"type\":\"error\",\"name\":\"OVERFLOW_ALERT\"},{\"inputs\":[],\"type\":\"error\",\"name\":\"PERMIT_ALLOWANCE_NOT_ENOUGH\"},{\"inputs\":[{\"internalType\":\"uint256\",\"name\":\"x\",\"type\":\"uint256\"},{\"internalType\":\"uint256\",\"name\":\"y\",\"type\":\"uint256\"},{\"internalType\":\"uint256\",\"name\":\"denominator\",\"type\":\"uint256\"}],\"type\":\"error\",\"name\":\"PRBMath_MulDiv_Overflow\"},{\"inputs\":[{\"internalType\":\"address\",\"name\":\"token\",\"type\":\"address\"}],\"type\":\"error\",\"name\":\"SafeERC20FailedOperation\"},{\"inputs\":[],\"type\":\"error\",\"name\":\"TERMINAL_TOKENS_INCOMPATIBLE\"},{\"inputs\":[],\"type\":\"error\",\"name\":\"TOKEN_NOT_ACCEPTED\"},{\"inputs\":[],\"type\":\"error\",\"name\":\"UNAUTHORIZED\"},{\"inputs\":[],\"type\":\"error\",\"name\":\"UNDER_MIN_RETURNED_TOKENS\"},{\"inputs\":[{\"internalType\":\"uint256\",\"name\":\"projectId\",\"type\":\"uint256\",\"indexed\":true},{\"internalType\":\"uint256\",\"name\":\"amount\",\"type\":\"uint256\",\"indexed\":false},{\"internalType\":\"uint256\",\"name\":\"unlockedFees\",\"type\":\"uint256\",\"indexed\":false},{\"internalType\":\"string\",\"name\":\"memo\",\"type\":\"string\",\"indexed\":false},{\"internalType\":\"bytes\",\"name\":\"metadata\",\"type\":\"bytes\",\"indexed\":false},{\"internalType\":\"address\",\"name\":\"caller\",\"type\":\"address\",\"indexed\":false}],\"type\":\"event\",\"name\":\"AddToBalance\",\"anonymous\":false},{\"inputs\":[{\"internalType\":\"uint256\",\"name\":\"projectId\",\"type\":\"uint256\",\"indexed\":true},{\"internalType\":\"address\",\"name\":\"token\",\"type\":\"address\",\"indexed\":true},{\"internalType\":\"uint256\",\"name\":\"feeProjectId\",\"type\":\"uint256\",\"indexed\":true},{\"internalType\":\"uint256\",\"name\":\"amount\",\"type\":\"uint256\",\"indexed\":false},{\"internalType\":\"bytes\",\"name\":\"reason\",\"type\":\"bytes\",\"indexed\":false},{\"internalType\":\"address\",\"name\":\"caller\",\"type\":\"address\",\"indexed\":false}],\"type\":\"event\",\"name\":\"FeeReverted\",\"anonymous\":false},{\"inputs\":[{\"internalType\":\"uint256\",\"name\":\"projectId\",\"type\":\"uint256\",\"indexed\":true},{\"internalType\":\"address\",\"name\":\"token\",\"type\":\"address\",\"indexed\":true},{\"internalType\":\"uint256\",\"name\":\"amount\",\"type\":\"uint256\",\"indexed\":true},{\"internalType\":\"uint256\",\"name\":\"fee\",\"type\":\"uint256\",\"indexed\":false},{\"internalType\":\"address\",\"name\":\"beneficiary\",\"type\":\"address\",\"indexed\":false},{\"internalType\":\"address\",\"name\":\"caller\",\"type\":\"address\",\"indexed\":false}],\"type\":\"event\",\"name\":\"HoldFee\",\"anonymous\":false},{\"inputs\":[{\"internalType\":\"contract IJBPayHook\",\"name\":\"hook\",\"type\":\"address\",\"indexed\":true},{\"internalType\":\"struct JBAfterPayRecordedContext\",\"name\":\"context\",\"type\":\"tuple\",\"components\":[{\"internalType\":\"address\",\"name\":\"payer\",\"type\":\"address\"},{\"internalType\":\"uint256\",\"name\":\"projectId\",\"type\":\"uint256\"},{\"internalType\":\"uint256\",\"name\":\"rulesetId\",\"type\":\"uint256\"},{\"internalType\":\"struct JBTokenAmount\",\"name\":\"amount\",\"type\":\"tuple\",\"components\":[{\"internalType\":\"address\",\"name\":\"token\",\"type\":\"address\"},{\"internalType\":\"uint256\",\"name\":\"value\",\"type\":\"uint256\"},{\"internalType\":\"uint256\",\"name\":\"decimals\",\"type\":\"uint256\"},{\"internalType\":\"uint256\",\"name\":\"currency\",\"type\":\"uint256\"}]},{\"internalType\":\"struct JBTokenAmount\",\"name\":\"forwardedAmount\",\"type\":\"tuple\",\"components\":[{\"internalType\":\"address\",\"name\":\"token\",\"type\":\"address\"},{\"internalType\":\"uint256\",\"name\":\"value\",\"type\":\"uint256\"},{\"internalType\":\"uint256\",\"name\":\"decimals\",\"type\":\"uint256\"},{\"internalType\":\"uint256\",\"name\":\"currency\",\"type\":\"uint256\"}]},{\"internalType\":\"uint256\",\"name\":\"weight\",\"type\":\"uint256\"},{\"internalType\":\"uint256\",\"name\":\"projectTokenCount\",\"type\":\"uint256\"},{\"internalType\":\"address\",\"name\":\"beneficiary\",\"type\":\"address\"},{\"internalType\":\"bytes\",\"name\":\"hookMetadata\",\"type\":\"bytes\"},{\"internalType\":\"bytes\",\"name\":\"payerMetadata\",\"type\":\"bytes\"}],\"indexed\":false},{\"internalType\":\"uint256\",\"name\":\"specificationAmount\",\"type\":\"uint256\",\"indexed\":false},{\"internalType\":\"address\",\"name\":\"caller\",\"type\":\"address\",\"indexed\":false}],\"type\":\"event\",\"name\":\"HookAfterRecordPay\",\"anonymous\":false},{\"inputs\":[{\"internalType\":\"contract IJBRedeemHook\",\"name\":\"hook\",\"type\":\"address\",\"indexed\":true},{\"internalType\":\"struct JBAfterRedeemRecordedContext\",\"name\":\"context\",\"type\":\"tuple\",\"components\":[{\"internalType\":\"address\",\"name\":\"holder\",\"type\":\"address\"},{\"internalType\":\"uint256\",\"name\":\"projectId\",\"type\":\"uint256\"},{\"internalType\":\"uint256\",\"name\":\"rulesetId\",\"type\":\"uint256\"},{\"internalType\":\"uint256\",\"name\":\"redeemCount\",\"type\":\"uint256\"},{\"internalType\":\"struct JBTokenAmount\",\"name\":\"reclaimedAmount\",\"type\":\"tuple\",\"components\":[{\"internalType\":\"address\",\"name\":\"token\",\"type\":\"address\"},{\"internalType\":\"uint256\",\"name\":\"value\",\"type\":\"uint256\"},{\"internalType\":\"uint256\",\"name\":\"decimals\",\"type\":\"uint256\"},{\"internalType\":\"uint256\",\"name\":\"currency\",\"type\":\"uint256\"}]},{\"internalType\":\"struct JBTokenAmount\",\"name\":\"forwardedAmount\",\"type\":\"tuple\",\"components\":[{\"internalType\":\"address\",\"name\":\"token\",\"type\":\"address\"},{\"internalType\":\"uint256\",\"name\":\"value\",\"type\":\"uint256\"},{\"internalType\":\"uint256\",\"name\":\"decimals\",\"type\":\"uint256\"},{\"internalType\":\"uint256\",\"name\":\"currency\",\"type\":\"uint256\"}]},{\"internalType\":\"uint256\",\"name\":\"redemptionRate\",\"type\":\"uint256\"},{\"internalType\":\"address payable\",\"name\":\"beneficiary\",\"type\":\"address\"},{\"internalType\":\"bytes\",\"name\":\"hookMetadata\",\"type\":\"bytes\"},{\"internalType\":\"bytes\",\"name\":\"redeemerMetadata\",\"type\":\"bytes\"}],\"indexed\":false},{\"internalType\":\"uint256\",\"name\":\"specificationAmount\",\"type\":\"uint256\",\"indexed\":false},{\"internalType\":\"uint256\",\"name\":\"fee\",\"type\":\"uint256\",\"indexed\":false},{\"internalType\":\"address\",\"name\":\"caller\",\"type\":\"address\",\"indexed\":false}],\"type\":\"event\",\"name\":\"HookAfterRecordRedeem\",\"anonymous\":false},{\"inputs\":[{\"internalType\":\"uint256\",\"name\":\"projectId\",\"type\":\"uint256\",\"indexed\":true},{\"internalType\":\"address\",\"name\":\"token\",\"type\":\"address\",\"indexed\":true},{\"internalType\":\"contract IJBTerminal\",\"name\":\"to\",\"type\":\"address\",\"indexed\":true},{\"internalType\":\"uint256\",\"name\":\"amount\",\"type\":\"uint256\",\"indexed\":false},{\"internalType\":\"address\",\"name\":\"caller\",\"type\":\"address\",\"indexed\":false}],\"type\":\"event\",\"name\":\"MigrateTerminal\",\"anonymous\":false},{\"inputs\":[{\"internalType\":\"uint256\",\"name\":\"rulesetId\",\"type\":\"uint256\",\"indexed\":true},{\"internalType\":\"uint256\",\"name\":\"rulesetCycleNumber\",\"type\":\"uint256\",\"indexed\":true},{\"internalType\":\"uint256\",\"name\":\"projectId\",\"type\":\"uint256\",\"indexed\":true},{\"internalType\":\"address\",\"name\":\"payer\",\"type\":\"address\",\"indexed\":false},{\"internalType\":\"address\",\"name\":\"beneficiary\",\"type\":\"address\",\"indexed\":false},{\"internalType\":\"uint256\",\"name\":\"amount\",\"type\":\"uint256\",\"indexed\":false},{\"internalType\":\"uint256\",\"name\":\"beneficiaryTokenCount\",\"type\":\"uint256\",\"indexed\":false},{\"internalType\":\"string\",\"name\":\"memo\",\"type\":\"string\",\"indexed\":false},{\"internalType\":\"bytes\",\"name\":\"metadata\",\"type\":\"bytes\",\"indexed\":false},{\"internalType\":\"address\",\"name\":\"caller\",\"type\":\"address\",\"indexed\":false}],\"type\":\"event\",\"name\":\"Pay\",\"anonymous\":false},{\"inputs\":[{\"internalType\":\"uint256\",\"name\":\"projectId\",\"type\":\"uint256\",\"indexed\":true},{\"internalType\":\"struct JBSplit\",\"name\":\"split\",\"type\":\"tuple\",\"components\":[{\"internalType\":\"bool\",\"name\":\"preferAddToBalance\",\"type\":\"bool\"},{\"internalType\":\"uint256\",\"name\":\"percent\",\"type\":\"uint256\"},{\"internalType\":\"uint256\",\"name\":\"projectId\",\"type\":\"uint256\"},{\"internalType\":\"address payable\",\"name\":\"beneficiary\",\"type\":\"address\"},{\"internalType\":\"uint256\",\"name\":\"lockedUntil\",\"type\":\"uint256\"},{\"internalType\":\"contract IJBSplitHook\",\"name\":\"hook\",\"type\":\"address\"}],\"indexed\":false},{\"internalType\":\"uint256\",\"name\":\"amount\",\"type\":\"uint256\",\"indexed\":false},{\"internalType\":\"bytes\",\"name\":\"reason\",\"type\":\"bytes\",\"indexed\":false},{\"internalType\":\"address\",\"name\":\"caller\",\"type\":\"address\",\"indexed\":false}],\"type\":\"event\",\"name\":\"PayoutReverted\",\"anonymous\":false},{\"inputs\":[{\"internalType\":\"uint256\",\"name\":\"projectId\",\"type\":\"uint256\",\"indexed\":true},{\"internalType\":\"address\",\"name\":\"token\",\"type\":\"address\",\"indexed\":true},{\"internalType\":\"uint256\",\"name\":\"amount\",\"type\":\"uint256\",\"indexed\":true},{\"internalType\":\"bool\",\"name\":\"wasHeld\",\"type\":\"bool\",\"indexed\":false},{\"internalType\":\"address\",\"name\":\"beneficiary\",\"type\":\"address\",\"indexed\":false},{\"internalType\":\"address\",\"name\":\"caller\",\"type\":\"address\",\"indexed\":false}],\"type\":\"event\",\"name\":\"ProcessFee\",\"anonymous\":false},{\"inputs\":[{\"internalType\":\"uint256\",\"name\":\"rulesetId\",\"type\":\"uint256\",\"indexed\":true},{\"internalType\":\"uint256\",\"name\":\"rulesetCycleNumber\",\"type\":\"uint256\",\"indexed\":true},{\"internalType\":\"uint256\",\"name\":\"projectId\",\"type\":\"uint256\",\"indexed\":true},{\"internalType\":\"address\",\"name\":\"holder\",\"type\":\"address\",\"indexed\":false},{\"internalType\":\"address\",\"name\":\"beneficiary\",\"type\":\"address\",\"indexed\":false},{\"internalType\":\"uint256\",\"name\":\"tokenCount\",\"type\":\"uint256\",\"indexed\":false},{\"internalType\":\"uint256\",\"name\":\"redemptionRate\",\"type\":\"uint256\",\"indexed\":false},{\"internalType\":\"uint256\",\"name\":\"reclaimedAmount\",\"type\":\"uint256\",\"indexed\":false},{\"internalType\":\"bytes\",\"name\":\"metadata\",\"type\":\"bytes\",\"indexed\":false},{\"internalType\":\"address\",\"name\":\"caller\",\"type\":\"address\",\"indexed\":false}],\"type\":\"event\",\"name\":\"RedeemTokens\",\"anonymous\":false},{\"inputs\":[{\"internalType\":\"uint256\",\"name\":\"projectId\",\"type\":\"uint256\",\"indexed\":true},{\"internalType\":\"address\",\"name\":\"token\",\"type\":\"address\",\"indexed\":true},{\"internalType\":\"uint256\",\"name\":\"amount\",\"type\":\"uint256\",\"indexed\":true},{\"internalType\":\"uint256\",\"name\":\"returnedFees\",\"type\":\"uint256\",\"indexed\":false},{\"internalType\":\"uint256\",\"name\":\"leftoverAmount\",\"type\":\"uint256\",\"indexed\":false},{\"internalType\":\"address\",\"name\":\"caller\",\"type\":\"address\",\"indexed\":false}],\"type\":\"event\",\"name\":\"ReturnHeldFees\",\"anonymous\":false},{\"inputs\":[{\"internalType\":\"uint256\",\"name\":\"projectId\",\"type\":\"uint256\",\"indexed\":true},{\"internalType\":\"uint256\",\"name\":\"rulesetId\",\"type\":\"uint256\",\"indexed\":true},{\"internalType\":\"uint256\",\"name\":\"group\",\"type\":\"uint256\",\"indexed\":true},{\"internalType\":\"struct JBSplit\",\"name\":\"split\",\"type\":\"tuple\",\"components\":[{\"internalType\":\"bool\",\"name\":\"preferAddToBalance\",\"type\":\"bool\"},{\"internalType\":\"uint256\",\"name\":\"percent\",\"type\":\"uint256\"},{\"internalType\":\"uint256\",\"name\":\"projectId\",\"type\":\"uint256\"},{\"internalType\":\"address payable\",\"name\":\"beneficiary\",\"type\":\"address\"},{\"internalType\":\"uint256\",\"name\":\"lockedUntil\",\"type\":\"uint256\"},{\"internalType\":\"contract IJBSplitHook\",\"name\":\"hook\",\"type\":\"address\"}],\"indexed\":false},{\"internalType\":\"uint256\",\"name\":\"amount\",\"type\":\"uint256\",\"indexed\":false},{\"internalType\":\"uint256\",\"name\":\"netAmount\",\"type\":\"uint256\",\"indexed\":false},{\"internalType\":\"address\",\"name\":\"caller\",\"type\":\"address\",\"indexed\":false}],\"type\":\"event\",\"name\":\"SendPayoutToSplit\",\"anonymous\":false},{\"inputs\":[{\"internalType\":\"uint256\",\"name\":\"rulesetId\",\"type\":\"uint256\",\"indexed\":true},{\"internalType\":\"uint256\",\"name\":\"rulesetCycleNumber\",\"type\":\"uint256\",\"indexed\":true},{\"internalType\":\"uint256\",\"name\":\"projectId\",\"type\":\"uint256\",\"indexed\":true},{\"internalType\":\"address\",\"name\":\"beneficiary\",\"type\":\"address\",\"indexed\":false},{\"internalType\":\"uint256\",\"name\":\"amount\",\"type\":\"uint256\",\"indexed\":false},{\"internalType\":\"uint256\",\"name\":\"amountPaidOut\",\"type\":\"uint256\",\"indexed\":false},{\"internalType\":\"uint256\",\"name\":\"fee\",\"type\":\"uint256\",\"indexed\":false},{\"internalType\":\"uint256\",\"name\":\"beneficiaryDistributionAmount\",\"type\":\"uint256\",\"indexed\":false},{\"internalType\":\"address\",\"name\":\"caller\",\"type\":\"address\",\"indexed\":false}],\"type\":\"event\",\"name\":\"SendPayouts\",\"anonymous\":false},{\"inputs\":[{\"internalType\":\"uint256\",\"name\":\"projectId\",\"type\":\"uint256\",\"indexed\":true},{\"internalType\":\"address\",\"name\":\"token\",\"type\":\"address\",\"indexed\":true},{\"internalType\":\"struct JBAccountingContext\",\"name\":\"context\",\"type\":\"tuple\",\"components\":[{\"internalType\":\"address\",\"name\":\"token\",\"type\":\"address\"},{\"internalType\":\"uint8\",\"name\":\"decimals\",\"type\":\"uint8\"},{\"internalType\":\"uint32\",\"name\":\"currency\",\"type\":\"uint32\"}],\"indexed\":false},{\"internalType\":\"address\",\"name\":\"caller\",\"type\":\"address\",\"indexed\":false}],\"type\":\"event\",\"name\":\"SetAccountingContext\",\"anonymous\":false},{\"inputs\":[{\"internalType\":\"uint256\",\"name\":\"rulesetId\",\"type\":\"uint256\",\"indexed\":true},{\"internalType\":\"uint256\",\"name\":\"rulesetCycleNumber\",\"type\":\"uint256\",\"indexed\":true},{\"internalType\":\"uint256\",\"name\":\"projectId\",\"type\":\"uint256\",\"indexed\":true},{\"internalType\":\"address\",\"name\":\"beneficiary\",\"type\":\"address\",\"indexed\":false},{\"internalType\":\"uint256\",\"name\":\"amount\",\"type\":\"uint256\",\"indexed\":false},{\"internalType\":\"uint256\",\"name\":\"amountPaidOut\",\"type\":\"uint256\",\"indexed\":false},{\"internalType\":\"uint256\",\"name\":\"netAmountPaidOut\",\"type\":\"uint256\",\"indexed\":false},{\"internalType\":\"string\",\"name\":\"memo\",\"type\":\"string\",\"indexed\":false},{\"internalType\":\"address\",\"name\":\"caller\",\"type\":\"address\",\"indexed\":false}],\"type\":\"event\",\"name\":\"UseAllowance\",\"anonymous\":false},{\"inputs\":[],\"stateMutability\":\"view\",\"type\":\"function\",\"name\":\"DIRECTORY\",\"outputs\":[{\"internalType\":\"contract IJBDirectory\",\"name\":\"\",\"type\":\"address\"}]},{\"inputs\":[],\"stateMutability\":\"view\",\"type\":\"function\",\"name\":\"FEE\",\"outputs\":[{\"internalType\":\"uint256\",\"name\":\"\",\"type\":\"uint256\"}]},{\"inputs\":[],\"stateMutability\":\"view\",\"type\":\"function\",\"name\":\"FEELESS_ADDRESSES\",\"outputs\":[{\"internalType\":\"contract IJBFeelessAddresses\",\"name\":\"\",\"type\":\"address\"}]},{\"inputs\":[],\"stateMutability\":\"view\",\"type\":\"function\",\"name\":\"PERMISSIONS\",\"outputs\":[{\"internalType\":\"contract IJBPermissions\",\"name\":\"\",\"type\":\"address\"}]},{\"inputs\":[],\"stateMutability\":\"view\",\"type\":\"function\",\"name\":\"PERMIT2\",\"outputs\":[{\"internalType\":\"contract IPermit2\",\"name\":\"\",\"type\":\"address\"}]},{\"inputs\":[],\"stateMutability\":\"view\",\"type\":\"function\",\"name\":\"PROJECTS\",\"outputs\":[{\"internalType\":\"contract IJBProjects\",\"name\":\"\",\"type\":\"address\"}]},{\"inputs\":[],\"stateMutability\":\"view\",\"type\":\"function\",\"name\":\"SPLITS\",\"outputs\":[{\"internalType\":\"contract IJBSplits\",\"name\":\"\",\"type\":\"address\"}]},{\"inputs\":[],\"stateMutability\":\"view\",\"type\":\"function\",\"name\":\"STORE\",\"outputs\":[{\"internalType\":\"contract IJBTerminalStore\",\"name\":\"\",\"type\":\"address\"}]},{\"inputs\":[{\"internalType\":\"uint256\",\"name\":\"projectId\",\"type\":\"uint256\"},{\"internalType\":\"address\",\"name\":\"token\",\"type\":\"address\"}],\"stateMutability\":\"view\",\"type\":\"function\",\"name\":\"accountingContextForTokenOf\",\"outputs\":[{\"internalType\":\"struct JBAccountingContext\",\"name\":\"\",\"type\":\"tuple\",\"components\":[{\"internalType\":\"address\",\"name\":\"token\",\"type\":\"address\"},{\"internalType\":\"uint8\",\"name\":\"decimals\",\"type\":\"uint8\"},{\"internalType\":\"uint32\",\"name\":\"currency\",\"type\":\"uint32\"}]}]},{\"inputs\":[{\"internalType\":\"uint256\",\"name\":\"projectId\",\"type\":\"uint256\"}],\"stateMutability\":\"view\",\"type\":\"function\",\"name\":\"accountingContextsOf\",\"outputs\":[{\"internalType\":\"struct JBAccountingContext[]\",\"name\":\"\",\"type\":\"tuple[]\",\"components\":[{\"internalType\":\"address\",\"name\":\"token\",\"type\":\"address\"},{\"internalType\":\"uint8\",\"name\":\"decimals\",\"type\":\"uint8\"},{\"internalType\":\"uint32\",\"name\":\"currency\",\"type\":\"uint32\"}]}]},{\"inputs\":[{\"internalType\":\"uint256\",\"name\":\"projectId\",\"type\":\"uint256\"},{\"internalType\":\"address[]\",\"name\":\"tokens\",\"type\":\"address[]\"}],\"stateMutability\":\"nonpayable\",\"type\":\"function\",\"name\":\"addAccountingContextsFor\"},{\"inputs\":[{\"internalType\":\"uint256\",\"name\":\"projectId\",\"type\":\"uint256\"},{\"internalType\":\"address\",\"name\":\"token\",\"type\":\"address\"},{\"internalType\":\"uint256\",\"name\":\"amount\",\"type\":\"uint256\"},{\"internalType\":\"bool\",\"name\":\"shouldReturnHeldFees\",\"type\":\"bool\"},{\"internalType\":\"string\",\"name\":\"memo\",\"type\":\"string\"},{\"internalType\":\"bytes\",\"name\":\"metadata\",\"type\":\"bytes\"}],\"stateMutability\":\"payable\",\"type\":\"function\",\"name\":\"addToBalanceOf\"},{\"inputs\":[{\"internalType\":\"uint256\",\"name\":\"projectId\",\"type\":\"uint256\"},{\"internalType\":\"uint256\",\"name\":\"decimals\",\"type\":\"uint256\"},{\"internalType\":\"uint256\",\"name\":\"currency\",\"type\":\"uint256\"}],\"stateMutability\":\"view\",\"type\":\"function\",\"name\":\"currentSurplusOf\",\"outputs\":[{\"internalType\":\"uint256\",\"name\":\"\",\"type\":\"uint256\"}]},{\"inputs\":[{\"internalType\":\"struct JBSplit\",\"name\":\"split\",\"type\":\"tuple\",\"components\":[{\"internalType\":\"bool\",\"name\":\"preferAddToBalance\",\"type\":\"bool\"},{\"internalType\":\"uint256\",\"name\":\"percent\",\"type\":\"uint256\"},{\"internalType\":\"uint256\",\"name\":\"projectId\",\"type\":\"uint256\"},{\"internalType\":\"address payable\",\"name\":\"beneficiary\",\"type\":\"address\"},{\"internalType\":\"uint256\",\"name\":\"lockedUntil\",\"type\":\"uint256\"},{\"internalType\":\"contract IJBSplitHook\",\"name\":\"hook\",\"type\":\"address\"}]},{\"internalType\":\"uint256\",\"name\":\"projectId\",\"type\":\"uint256\"},{\"internalType\":\"address\",\"name\":\"token\",\"type\":\"address\"},{\"internalType\":\"uint256\",\"name\":\"amount\",\"type\":\"uint256\"},{\"internalType\":\"address\",\"name\":\"originalMessageSender\",\"type\":\"address\"}],\"stateMutability\":\"nonpayable\",\"type\":\"function\",\"name\":\"executePayout\",\"outputs\":[{\"internalType\":\"uint256\",\"name\":\"netPayoutAmount\",\"type\":\"uint256\"}]},{\"inputs\":[{\"internalType\":\"uint256\",\"name\":\"projectId\",\"type\":\"uint256\"},{\"internalType\":\"address\",\"name\":\"token\",\"type\":\"address\"},{\"internalType\":\"uint256\",\"name\":\"amount\",\"type\":\"uint256\"},{\"internalType\":\"address\",\"name\":\"beneficiary\",\"type\":\"address\"},{\"internalType\":\"contract IJBTerminal\",\"name\":\"feeTerminal\",\"type\":\"address\"}],\"stateMutability\":\"nonpayable\",\"type\":\"function\",\"name\":\"executeProcessFee\"},{\"inputs\":[{\"internalType\":\"uint256\",\"name\":\"projectId\",\"type\":\"uint256\"},{\"internalType\":\"address\",\"name\":\"token\",\"type\":\"address\"}],\"stateMutability\":\"view\",\"type\":\"function\",\"name\":\"heldFeesOf\",\"outputs\":[{\"internalType\":\"struct JBFee[]\",\"name\":\"\",\"type\":\"tuple[]\",\"components\":[{\"internalType\":\"uint256\",\"name\":\"amount\",\"type\":\"uint256\"},{\"internalType\":\"address\",\"name\":\"beneficiary\",\"type\":\"address\"},{\"internalType\":\"uint256\",\"name\":\"unlockTimestamp\",\"type\":\"uint256\"}]}]},{\"inputs\":[{\"internalType\":\"address\",\"name\":\"forwarder\",\"type\":\"address\"}],\"stateMutability\":\"view\",\"type\":\"function\",\"name\":\"isTrustedForwarder\",\"outputs\":[{\"internalType\":\"bool\",\"name\":\"\",\"type\":\"bool\"}]},{\"inputs\":[{\"internalType\":\"uint256\",\"name\":\"projectId\",\"type\":\"uint256\"},{\"internalType\":\"address\",\"name\":\"token\",\"type\":\"address\"},{\"internalType\":\"contract IJBTerminal\",\"name\":\"to\",\"type\":\"address\"}],\"stateMutability\":\"nonpayable\",\"type\":\"function\",\"name\":\"migrateBalanceOf\",\"outputs\":[{\"internalType\":\"uint256\",\"name\":\"balance\",\"type\":\"uint256\"}]},{\"inputs\":[{\"internalType\":\"uint256\",\"name\":\"projectId\",\"type\":\"uint256\"},{\"internalType\":\"address\",\"name\":\"token\",\"type\":\"address\"},{\"internalType\":\"uint256\",\"name\":\"amount\",\"type\":\"uint256\"},{\"internalType\":\"address\",\"name\":\"beneficiary\",\"type\":\"address\"},{\"internalType\":\"uint256\",\"name\":\"minReturnedTokens\",\"type\":\"uint256\"},{\"internalType\":\"string\",\"name\":\"memo\",\"type\":\"string\"},{\"internalType\":\"bytes\",\"name\":\"metadata\",\"type\":\"bytes\"}],\"stateMutability\":\"payable\",\"type\":\"function\",\"name\":\"pay\",\"outputs\":[{\"internalType\":\"uint256\",\"name\":\"beneficiaryTokenCount\",\"type\":\"uint256\"}]},{\"inputs\":[{\"internalType\":\"uint256\",\"name\":\"projectId\",\"type\":\"uint256\"},{\"internalType\":\"address\",\"name\":\"token\",\"type\":\"address\"}],\"stateMutability\":\"nonpayable\",\"type\":\"function\",\"name\":\"processHeldFeesOf\"},{\"inputs\":[{\"internalType\":\"address\",\"name\":\"holder\",\"type\":\"address\"},{\"internalType\":\"uint256\",\"name\":\"projectId\",\"type\":\"uint256\"},{\"internalType\":\"address\",\"name\":\"tokenToReclaim\",\"type\":\"address\"},{\"internalType\":\"uint256\",\"name\":\"redeemCount\",\"type\":\"uint256\"},{\"internalType\":\"uint256\",\"name\":\"minTokensReclaimed\",\"type\":\"uint256\"},{\"internalType\":\"address payable\",\"name\":\"beneficiary\",\"type\":\"address\"},{\"internalType\":\"bytes\",\"name\":\"metadata\",\"type\":\"bytes\"}],\"stateMutability\":\"nonpayable\",\"type\":\"function\",\"name\":\"redeemTokensOf\",\"outputs\":[{\"internalType\":\"uint256\",\"name\":\"reclaimAmount\",\"type\":\"uint256\"}]},{\"inputs\":[{\"internalType\":\"uint256\",\"name\":\"projectId\",\"type\":\"uint256\"},{\"internalType\":\"address\",\"name\":\"token\",\"type\":\"address\"},{\"internalType\":\"uint256\",\"name\":\"amount\",\"type\":\"uint256\"},{\"internalType\":\"uint256\",\"name\":\"currency\",\"type\":\"uint256\"},{\"internalType\":\"uint256\",\"name\":\"minTokensPaidOut\",\"type\":\"uint256\"}],\"stateMutability\":\"nonpayable\",\"type\":\"function\",\"name\":\"sendPayoutsOf\",\"outputs\":[{\"internalType\":\"uint256\",\"name\":\"amountPaidOut\",\"type\":\"uint256\"}]},{\"inputs\":[{\"internalType\":\"bytes4\",\"name\":\"interfaceId\",\"type\":\"bytes4\"}],\"stateMutability\":\"view\",\"type\":\"function\",\"name\":\"supportsInterface\",\"outputs\":[{\"internalType\":\"bool\",\"name\":\"\",\"type\":\"bool\"}]},{\"inputs\":[],\"stateMutability\":\"view\",\"type\":\"function\",\"name\":\"trustedForwarder\",\"outputs\":[{\"internalType\":\"address\",\"name\":\"\",\"type\":\"address\"}]},{\"inputs\":[{\"internalType\":\"uint256\",\"name\":\"projectId\",\"type\":\"uint256\"},{\"internalType\":\"address\",\"name\":\"token\",\"type\":\"address\"},{\"internalType\":\"uint256\",\"name\":\"amount\",\"type\":\"uint256\"},{\"internalType\":\"uint256\",\"name\":\"currency\",\"type\":\"uint256\"},{\"internalType\":\"uint256\",\"name\":\"minTokensPaidOut\",\"type\":\"uint256\"},{\"internalType\":\"address payable\",\"name\":\"beneficiary\",\"type\":\"address\"},{\"internalType\":\"string\",\"name\":\"memo\",\"type\":\"string\"}],\"stateMutability\":\"nonpayable\",\"type\":\"function\",\"name\":\"useAllowanceOf\",\"outputs\":[{\"internalType\":\"uint256\",\"name\":\"amountPaidOut\",\"type\":\"uint256\"}]}],\"devdoc\":{\"kind\":\"dev\",\"methods\":{\"accountingContextForTokenOf(uint256,address)\":{\"details\":\"See the `JBAccountingContext` struct for more information.\",\"params\":{\"projectId\":\"The ID of the project to get token accounting context of.\",\"token\":\"The token to check the accounting context of.\"},\"returns\":{\"_0\":\"The token's accounting context for the token.\"}},\"accountingContextsOf(uint256)\":{\"params\":{\"projectId\":\"The ID of the project to get the accepted tokens of.\"},\"returns\":{\"_0\":\"tokenContexts The accounting contexts of the accepted tokens.\"}},\"addAccountingContextsFor(uint256,address[])\":{\"details\":\"Only a project's owner, an operator with the `ADD_ACCOUNTING_CONTEXTS` permission from that owner, or a project's controller can add accounting contexts for the project.\",\"params\":{\"projectId\":\"The ID of the project having to add accounting contexts for.\",\"tokens\":\"The tokens to add accounting contexts for.\"}},\"addToBalanceOf(uint256,address,uint256,bool,string,bytes)\":{\"details\":\"Adding to balance can unlock held fees if `shouldUnlockHeldFees` is true.\",\"params\":{\"amount\":\"The amount of tokens to add to the balance, as a fixed point number with the same number of decimals as this terminal. If this is a native token terminal, this is ignored and `msg.value` is used instead.\",\"memo\":\"A memo to pass along to the emitted event.\",\"metadata\":\"Extra data to pass along to the emitted event.\",\"projectId\":\"The ID of the project to add funds to the balance of.\",\"shouldReturnHeldFees\":\"A flag indicating if held fees should be returned based on the amount being added.\",\"token\":\"The token being added to the balance.\"}},\"constructor\":{\"params\":{\"directory\":\"A contract storing directories of terminals and controllers for each project.\",\"feelessAddresses\":\"A contract that stores addresses that shouldn't incur fees when being paid towards or from.\",\"permissions\":\"A contract storing permissions.\",\"permit2\":\"A permit2 utility.\",\"projects\":\"A contract which mints ERC-721s that represent project ownership and transfers.\",\"splits\":\"A contract that stores splits for each project.\",\"store\":\"A contract that stores the terminal's data.\",\"trustedForwarder\":\"A trusted forwarder of transactions to this contract.\"}},\"currentSurplusOf(uint256,uint256,uint256)\":{\"details\":\"This total surplus only includes tokens that the project accepts (as returned by `accountingContextsOf(...)`).\",\"params\":{\"currency\":\"The currency to express the returned value in terms of.\",\"decimals\":\"The number of decimals to include in the fixed point returned value.\",\"projectId\":\"The ID of the project to get the current total surplus of.\"},\"returns\":{\"_0\":\"The current surplus amount the project has in this terminal, in terms of `currency` and with the specified number of decimals.\"}},\"executePayout((bool,uint256,uint256,address,uint256,address),uint256,address,uint256,address)\":{\"details\":\"Only accepts calls from this terminal itself.\",\"params\":{\"amount\":\"The total amount being paid to the split, as a fixed point number with the same number of decimals as this terminal.\",\"projectId\":\"The ID of the project the split belongs to.\",\"split\":\"The split to pay.\",\"token\":\"The address of the token being paid to the split.\"},\"returns\":{\"netPayoutAmount\":\"The amount sent to the split after subtracting fees.\"}},\"executeProcessFee(uint256,address,uint256,address,address)\":{\"details\":\"Only accepts calls from this terminal itself.\",\"params\":{\"amount\":\"The fee amount, as a fixed point number with 18 decimals.\",\"beneficiary\":\"The address to mint tokens to (from the project which receives fees), and pass along to the ruleset's data hook and pay hook if applicable.\",\"feeTerminal\":\"The terminal that'll receive the fees.\",\"projectId\":\"The ID of the project paying the fee.\",\"token\":\"The token the fee is being paid in.\"}},\"heldFeesOf(uint256,address)\":{\"details\":\"Projects can temporarily hold fees and unlock them later by adding funds to the project's balance.Held fees can be processed at any time by this terminal's owner.\",\"params\":{\"projectId\":\"The ID of the project that is holding fees.\",\"token\":\"The token that the fees are held in.\"}},\"isTrustedForwarder(address)\":{\"details\":\"Indicates whether any particular address is the trusted forwarder.\"},\"migrateBalanceOf(uint256,address,address)\":{\"details\":\"Only a project's owner or an operator with the `MIGRATE_TERMINAL` permission from that owner can migrate the project's terminal.\",\"params\":{\"projectId\":\"The ID of the project being migrated.\",\"to\":\"The terminal contract being migrated to, which will receive the project's funds and operations.\",\"token\":\"The address of the token being migrated.\"},\"returns\":{\"balance\":\"The amount of funds that were migrated, as a fixed point number with the same amount of decimals as this terminal.\"}},\"pay(uint256,address,uint256,address,uint256,string,bytes)\":{\"params\":{\"amount\":\"The amount of terminal tokens being received, as a fixed point number with the same number of decimals as this terminal. If this terminal's token is native, this is ignored and `msg.value` is used in its place.\",\"beneficiary\":\"The address to mint tokens to, and pass along to the ruleset's data hook and pay hook if applicable.\",\"memo\":\"A memo to pass along to the emitted event.\",\"metadata\":\"Bytes to pass along to the emitted event, as well as the data hook and pay hook if applicable.\",\"minReturnedTokens\":\"The minimum number of project tokens expected in return for this payment, as a fixed point number with the same number of decimals as this terminal. If the amount of tokens minted for the beneficiary would be less than this amount, the payment is reverted.\",\"projectId\":\"The ID of the project being paid.\",\"token\":\"The token being paid.\"},\"returns\":{\"beneficiaryTokenCount\":\"The number of tokens minted to the beneficiary, as a fixed point number with 18 decimals.\"}},\"processHeldFeesOf(uint256,address)\":{\"params\":{\"projectId\":\"The ID of the project to process held fees for.\",\"token\":\"The token to process held fees for.\"}},\"redeemTokensOf(address,uint256,address,uint256,uint256,address,bytes)\":{\"details\":\"Only a token's holder or an operator with the `REDEEM_TOKENS` permission from that holder can redeem those tokens.\",\"params\":{\"beneficiary\":\"The address to send the reclaimed terminal tokens to, and to pass along to the ruleset's data hook and redeem hook if applicable.\",\"holder\":\"The account whose tokens are being redeemed.\",\"metadata\":\"Bytes to send along to the emitted event, as well as the data hook and redeem hook if applicable.\",\"minTokensReclaimed\":\"The minimum number of terminal tokens expected in return, as a fixed point number with the same number of decimals as this terminal. If the amount of tokens minted for the beneficiary would be less than this amount, the redemption is reverted.\",\"projectId\":\"The ID of the project the project tokens belong to.\",\"redeemCount\":\"The number of project tokens to redeem, as a fixed point number with 18 decimals.\",\"tokenToReclaim\":\"The token being reclaimed.\"},\"returns\":{\"reclaimAmount\":\"The amount of terminal tokens that the project tokens were redeemed for, as a fixed point number with 18 decimals.\"}},\"sendPayoutsOf(uint256,address,uint256,uint256,uint256)\":{\"details\":\"If the percentages of the splits in the project's payout split group do not add up to 100%, the remainder is sent to the project's owner.Anyone can send payouts on a project's behalf. Projects can include a wildcard split (a split with no `hook`, `projectId`, or `beneficiary`) to send funds to the `_msgSender()` which calls this function. This can be used to incentivize calling this function.payouts sent to addresses which aren't feeless incur the protocol fee.Payouts a projects don't incur fees if its terminal is feeless.\",\"params\":{\"amount\":\"The total number of terminal tokens to send, as a fixed point number with same number of decimals as this terminal.\",\"currency\":\"The expected currency of the payouts being sent. Must match the currency of one of the project's current ruleset's payout limits.\",\"minTokensPaidOut\":\"The minimum number of terminal tokens that the `amount` should be worth (if expressed in terms of this terminal's currency), as a fixed point number with the same number of decimals as this terminal. If the amount of tokens paid out would be less than this amount, the send is reverted.\",\"projectId\":\"The ID of the project having its payouts sent.\",\"token\":\"The token being sent.\"},\"returns\":{\"amountPaidOut\":\"The total amount paid out.\"}},\"supportsInterface(bytes4)\":{\"details\":\"See {IERC165-supportsInterface}.\",\"params\":{\"interfaceId\":\"The ID of the interface to check for adherence to.\"},\"returns\":{\"_0\":\"A flag indicating if the provided interface ID is supported.\"}},\"trustedForwarder()\":{\"details\":\"Returns the address of the trusted forwarder.\"},\"useAllowanceOf(uint256,address,uint256,uint256,uint256,address,string)\":{\"details\":\"Only a project's owner or an operator with the `USE_ALLOWANCE` permission from that owner can use the surplus allowance.Incurs the protocol fee unless the caller is a feeless address.\",\"params\":{\"amount\":\"The amount of terminal tokens to use from the project's current surplus allowance, as a fixed point number with the same amount of decimals as this terminal.\",\"beneficiary\":\"The address to send the surplus funds to.\",\"currency\":\"The expected currency of the amount being paid out. Must match the currency of one of the project's current ruleset's surplus allowances.\",\"memo\":\"A memo to pass along to the emitted event.\",\"minTokensPaidOut\":\"The minimum number of terminal tokens that should be used from the surplus allowance (including fees), as a fixed point number with 18 decimals. If the amount of surplus used would be less than this amount, the transaction is reverted.\",\"projectId\":\"The ID of the project to use the surplus allowance of.\",\"token\":\"The token being paid out from the surplus.\"},\"returns\":{\"amountPaidOut\":\"The number of tokens that were sent to the beneficiary, as a fixed point number with the same amount of decimals as the terminal.\"}}},\"version\":1},\"userdoc\":{\"kind\":\"user\",\"methods\":{\"DIRECTORY()\":{\"notice\":\"The directory of terminals and controllers for PROJECTS.\"},\"FEE()\":{\"notice\":\"This terminal's fee (as a fraction out of `JBConstants.MAX_FEE`).\"},\"FEELESS_ADDRESSES()\":{\"notice\":\"The contract that stores addresses that shouldn't incur fees when being paid towards or from.\"},\"PERMISSIONS()\":{\"notice\":\"A contract storing permissions.\"},\"PERMIT2()\":{\"notice\":\"The permit2 utility.\"},\"PROJECTS()\":{\"notice\":\"Mints ERC-721s that represent project ownership and transfers.\"},\"SPLITS()\":{\"notice\":\"The contract that stores splits for each project.\"},\"STORE()\":{\"notice\":\"The contract that stores and manages the terminal's data.\"},\"accountingContextForTokenOf(uint256,address)\":{\"notice\":\"A project's accounting context for a token.\"},\"accountingContextsOf(uint256)\":{\"notice\":\"The tokens accepted by a project.\"},\"addAccountingContextsFor(uint256,address[])\":{\"notice\":\"Adds accounting contexts for a project to this terminal so the project can begin accepting the tokens in those contexts.\"},\"addToBalanceOf(uint256,address,uint256,bool,string,bytes)\":{\"notice\":\"Adds funds to a project's balance without minting tokens.\"},\"currentSurplusOf(uint256,uint256,uint256)\":{\"notice\":\"Gets the total current surplus amount in this terminal for a project, in terms of a given currency.\"},\"executePayout((bool,uint256,uint256,address,uint256,address),uint256,address,uint256,address)\":{\"notice\":\"Executes a payout to a split.\"},\"executeProcessFee(uint256,address,uint256,address,address)\":{\"notice\":\"Process a specified amount of fees for a project.\"},\"heldFeesOf(uint256,address)\":{\"notice\":\"Fees that are being held for a project.\"},\"migrateBalanceOf(uint256,address,address)\":{\"notice\":\"Migrate a project's funds and operations to a new terminal that accepts the same token type.\"},\"pay(uint256,address,uint256,address,uint256,string,bytes)\":{\"notice\":\"Pay a project with tokens.\"},\"processHeldFeesOf(uint256,address)\":{\"notice\":\"Process any fees that are being held for the project.\"},\"redeemTokensOf(address,uint256,address,uint256,uint256,address,bytes)\":{\"notice\":\"Holders can redeem a project's tokens to reclaim some of that project's surplus tokens, or to trigger rules determined by the current ruleset's data hook and redeem hook.\"},\"sendPayoutsOf(uint256,address,uint256,uint256,uint256)\":{\"notice\":\"Sends payouts to a project's current payout split group, according to its ruleset, up to its current payout limit.\"},\"supportsInterface(bytes4)\":{\"notice\":\"Indicates whether this contract adheres to the specified interface.\"},\"useAllowanceOf(uint256,address,uint256,uint256,uint256,address,string)\":{\"notice\":\"Allows a project to pay out funds from its surplus up to the current surplus allowance.\"}},\"version\":1}},\"settings\":{\"remappings\":[\"@bananapus/=node_modules/@bananapus/\",\"@chainlink/=node_modules/@chainlink/\",\"@eth-optimism/=node_modules/@eth-optimism/\",\"@openzeppelin/=node_modules/@openzeppelin/\",\"@prb/=node_modules/@prb/\",\"@scroll-tech/=node_modules/@scroll-tech/\",\"@sphinx-labs/contracts/=lib/sphinx/packages/contracts/contracts/foundry/\",\"@uniswap/=node_modules/@uniswap/\",\"ds-test/=lib/forge-std/lib/ds-test/src/\",\"forge-std/=lib/forge-std/src/\",\"hardhat/=node_modules/hardhat/\",\"solmate/=node_modules/solmate/\",\"sphinx/=lib/sphinx/\"],\"optimizer\":{\"enabled\":true,\"runs\":200},\"metadata\":{\"bytecodeHash\":\"ipfs\"},\"compilationTarget\":{\"src/JBMultiTerminal.sol\":\"JBMultiTerminal\"},\"evmVersion\":\"paris\",\"libraries\":{}},\"sources\":{\"node_modules/@bananapus/permission-ids/src/JBPermissionIds.sol\":{\"keccak256\":\"0xf61109f6b217a80d5e5391f548fb6f2e451f7dbee3fabfc04cf17e88722203bc\",\"urls\":[\"bzz-raw://ac776ab1cd621c22bd7973471acdfa187f3abc659ad9a3ef6ed10b6447dfcf9c\",\"dweb:/ipfs/QmYLbaHt68qcuMzkiKpe96jMjiWUq1F3u8yMhxmZ3pnnWu\"],\"license\":\"MIT\"},\"node_modules/@openzeppelin/contracts/metatx/ERC2771Context.sol\":{\"keccak256\":\"0x98256cf37b71a69b2f5a8a6fe975ea03590dff703102bd141a830f94e8adebf6\",\"urls\":[\"bzz-raw://6251fe1f6a1e45e6d619d150c123afc88b8646b38ee26a136efa9a6988a31d3f\",\"dweb:/ipfs/QmeXDT85wSZdP31wkz3ah3KhponCiksJLP5o2LR5e1JxcK\"],\"license\":\"MIT\"},\"node_modules/@openzeppelin/contracts/token/ERC20/IERC20.sol\":{\"keccak256\":\"0xc6a8ff0ea489379b61faa647490411b80102578440ab9d84e9a957cc12164e70\",\"urls\":[\"bzz-raw://0ea104e577e63faea3b69c415637e99e755dcbf64c5833d7140c35a714d6d90c\",\"dweb:/ipfs/Qmau6x4Ns9XdyynRCNNp3RhLqijJjFm7z5fyZazfYFGYdq\"],\"license\":\"MIT\"},\"node_modules/@openzeppelin/contracts/token/ERC20/extensions/IERC20Metadata.sol\":{\"keccak256\":\"0xaa761817f6cd7892fcf158b3c776b34551cde36f48ff9703d53898bc45a94ea2\",\"urls\":[\"bzz-raw://0ad7c8d4d08938c8dfc43d75a148863fb324b80cf53e0a36f7e5a4ac29008850\",\"dweb:/ipfs/QmcrhfPgVNf5mkdhQvy1pMv51TFokD3Y4Wa5WZhFqVh8UV\"],\"license\":\"MIT\"},\"node_modules/@openzeppelin/contracts/token/ERC20/extensions/IERC20Permit.sol\":{\"keccak256\":\"0x6008dabfe393240d73d7dd7688033f72740d570aa422254d29a7dce8568f3aff\",\"urls\":[\"bzz-raw://f5196ec75139918c6c7bb4251b36395e668f1fa6d206beba7e7520e74913940d\",\"dweb:/ipfs/QmSyqjksXxmm2mCG6qRd1yuwLykypkSVBbnBnGqJRcuJMi\"],\"license\":\"MIT\"},\"node_modules/@openzeppelin/contracts/token/ERC20/utils/SafeERC20.sol\":{\"keccak256\":\"0x37bb49513c49c87c4642a891b13b63571bc87013dde806617aa1efb54605f386\",\"urls\":[\"bzz-raw://b3036b3a83b7c48f96641f2a9002b9f2dcb6a5958dd670894ada21ae8229b3d0\",\"dweb:/ipfs/QmUNfSBdoVtjhETaUJCYcaC7pTMgbhht926tJ2uXJbiVd3\"],\"license\":\"MIT\"},\"node_modules/@openzeppelin/contracts/token/ERC721/IERC721.sol\":{\"keccak256\":\"0x5ef46daa3b58ef2702279d514780316efaa952915ee1aa3396f041ee2982b0b4\",\"urls\":[\"bzz-raw://2f8f2a76e23b02fc69e8cd24c3cb47da6c7af3a2d6c3a382f8ac25c6e094ade7\",\"dweb:/ipfs/QmPV4ZS4tPVv4mTCf9ejyZ1ai57EEibDRj7mN2ARDCLV5n\"],\"license\":\"MIT\"},\"node_modules/@openzeppelin/contracts/utils/Address.sol\":{\"keccak256\":\"0xc300fa83999c2c466f69cfaa6398540169d91b051ff7b013196f526589e17499\",\"urls\":[\"bzz-raw://b32a3f30e5fc755fbded19db4ba3ef686811933ae07084313095666154877bf0\",\"dweb:/ipfs/QmV1hoYPcZaNhSVAV84sN3eJ5WahmvNYYpStJvttKfzRjf\"],\"license\":\"MIT\"},\"node_modules/@openzeppelin/contracts/utils/Context.sol\":{\"keccak256\":\"0x493033a8d1b176a037b2cc6a04dad01a5c157722049bbecf632ca876224dd4b2\",\"urls\":[\"bzz-raw://6a708e8a5bdb1011c2c381c9a5cfd8a9a956d7d0a9dc1bd8bcdaf52f76ef2f12\",\"dweb:/ipfs/Qmax9WHBnVsZP46ZxEMNRQpLQnrdE4dK8LehML1Py8FowF\"],\"license\":\"MIT\"},\"node_modules/@openzeppelin/contracts/utils/introspection/ERC165Checker.sol\":{\"keccak256\":\"0xac3d50e321a48a40b4496970ce725900f13aeb2255b7c1203f5adbe98c4a911a\",\"urls\":[\"bzz-raw://1d7b235b578347dce2d831a76f122e820a7db7e73fd2e47f13bafdcd61c5b066\",\"dweb:/ipfs/QmVAELwambfJa55HfiCoz1kFFh7iYwRYeW5x8si6AFM4iX\"],\"license\":\"MIT\"},\"node_modules/@openzeppelin/contracts/utils/introspection/IERC165.sol\":{\"keccak256\":\"0x4296879f55019b23e135000eb36896057e7101fb7fb859c5ef690cf14643757b\",\"urls\":[\"bzz-raw://87b3541437c8c443ccd36795e56a338ed12855eec17f8da624511b8d1a7e14df\",\"dweb:/ipfs/QmeJQCtZrQjtJLr6u7ZHWeH3pBnjtLWzvRrKViAi7UZqxL\"],\"license\":\"MIT\"},\"node_modules/@prb/math/src/Common.sol\":{\"keccak256\":\"0xaa374e2c26cc93e8c22a6953804ee05f811597ef5fa82f76824378b22944778b\",\"urls\":[\"bzz-raw://279c732e161d623cf4d8a9519ca4c42c0c2db99842d0eb2a20c10fde3fa722c9\",\"dweb:/ipfs/QmVViuUXbinQGqtG5M21SgVzKihiCbFUChd4tDhtvwRmxH\"],\"license\":\"MIT\"},\"node_modules/@uniswap/permit2/src/interfaces/IAllowanceTransfer.sol\":{\"keccak256\":\"0x37f0ac203b6ef605c9533e1a739477e8e9dcea90710b40e645a367f8a21ace29\",\"urls\":[\"bzz-raw://e0104d72aeaec1cd66cc232e7de7b7ead08608efcc179491b8a66387614670b0\",\"dweb:/ipfs/QmfAZDyuNC9FXXbnJUwqHNwmAK6uRrXxtWEytLsxjskPsN\"],\"license\":\"MIT\"},\"node_modules/@uniswap/permit2/src/interfaces/IEIP712.sol\":{\"keccak256\":\"0xfdccf2b9639070803cd0e4198427fb0df3cc452ca59bd3b8a0d957a9a4254138\",\"urls\":[\"bzz-raw://f7c936ac42ce89e827db905a1544397f8bdf46db34cdb6aa1b90dea42fdb4c72\",\"dweb:/ipfs/QmVgurxo1N31qZqkPBirw9Z7S9tLYmv6jSwQp8R8ur2cBk\"],\"license\":\"MIT\"},\"node_modules/@uniswap/permit2/src/interfaces/IPermit2.sol\":{\"keccak256\":\"0xaa631cc9f53e699301d94233007110a345e6779011def484e8dd97b8fe0af771\",\"urls\":[\"bzz-raw://fc0502cf19c9c18f320a3001201e89e350393b75837f6b7971de18b2de06f30d\",\"dweb:/ipfs/QmT9SfhdJ7VJNNrf94g4H5usyi7ShqWGx7Cqsz9jZTjX96\"],\"license\":\"MIT\"},\"node_modules/@uniswap/permit2/src/interfaces/ISignatureTransfer.sol\":{\"keccak256\":\"0xe6df9966f8841dc3958ee86169c89de97e7f614c81c28b9dc947b12d732df64e\",\"urls\":[\"bzz-raw://3d4eafdee7f48c3be8350a94eb6edd0bfb2af2c105df65787a77174f356c0317\",\"dweb:/ipfs/QmY1j2adeeAhNpn6cUuthemxGCdLXHTfyMh9yTKsY4mZ2d\"],\"license\":\"MIT\"},\"src/JBMultiTerminal.sol\":{\"keccak256\":\"0xdee99ca12f9e758e7547bd0d9027383150aa9abdbda8ff55fa64fd85de3c8c89\",\"urls\":[\"bzz-raw://0bf09f52423cf573ddc9382f1da0c2966c6283c0908e4eb6efc191319d98e9d7\",\"dweb:/ipfs/QmTLLPnFmAPfhYN8YkGg4LvhvK7RusRAGUvAXYiNfmKK4B\"],\"license\":\"MIT\"},\"src/abstract/JBPermissioned.sol\":{\"keccak256\":\"0xe08c8a7eeac9d1c7c2e0db6d5b98d1af09889300835a3d47d9f29319fecce703\",\"urls\":[\"bzz-raw://42645cf52bcc45053ef650790916faed5d0a74cecef336b217433fdd2c5c4166\",\"dweb:/ipfs/QmdMmxG1tSGucQwz4LYbVnuj7HU23YvqLH6xfrNWv5Bmus\"],\"license\":\"MIT\"},\"src/enums/JBApprovalStatus.sol\":{\"keccak256\":\"0x61c69b6bac7d24b566d87cda23a77e4ca9cdb87200b106aba8534cb9a0973e33\",\"urls\":[\"bzz-raw://6a9ca7249de76f77a8252eefe6bd1b63d47952f25a2acfa2c8db967cdff4470c\",\"dweb:/ipfs/QmaxSxptRQNj8bNy96EreENmrnRWdKmhyihBcxyWzBX5BN\"],\"license\":\"MIT\"},\"src/interfaces/IJBController.sol\":{\"keccak256\":\"0xe0b84058192f89e461c4b604388aa11a2f92f0f9969fb70fb3c18706d6f3e16b\",\"urls\":[\"bzz-raw://984fdcff63a17ccab65ff7723a628967e40965fcb4d47909cf8e314e8f044576\",\"dweb:/ipfs/QmaaHZWuaaH3oYxCDrip1rr4u4H1XtR3RcwwKAE73GAqkd\"],\"license\":\"MIT\"},\"src/interfaces/IJBDirectory.sol\":{\"keccak256\":\"0x9cc380844aef60078ee47a61861e55a29c4a8c947efd556ebd36e6909f7b9d62\",\"urls\":[\"bzz-raw://9f5190ec8b6683d9781ee6e9eedcc91294753242748875d4a06349077e4cbaaf\",\"dweb:/ipfs/QmTQrPuXT9TCA4txwrperMeXSGvGxP8iokUK47f62F388i\"],\"license\":\"MIT\"},\"src/interfaces/IJBDirectoryAccessControl.sol\":{\"keccak256\":\"0x1e67f56849320a46f834aaa9bd62b170ff8ada7b224b4a81136193740fa0be4d\",\"urls\":[\"bzz-raw://ea8fbcec44abfe49d137bcae129b67e5479d6b17879301f88534c8a7fab00be4\",\"dweb:/ipfs/QmT6wrtYX4GRpffHUzupNwYebJ1dqkkKZLEewWsoyunsqw\"],\"license\":\"MIT\"},\"src/interfaces/IJBFeeTerminal.sol\":{\"keccak256\":\"0xdb6f3349cbe2078faa8421dec892136693748d8a60b70a1dee3bce2cfc5274fc\",\"urls\":[\"bzz-raw://ccc6a67fc72726c6180c41523cc2a43562864347770a86ff54532fb6ca09e7c3\",\"dweb:/ipfs/QmZinV1LoRsmTq713YGvNShaPtGaxLqwJ6u2EwwGKEKCgu\"],\"license\":\"MIT\"},\"src/interfaces/IJBFeelessAddresses.sol\":{\"keccak256\":\"0xe5df42cfa71c5fa41b905c122de5825df13c2aab2f9cc4cf4bafa331dd69c27e\",\"urls\":[\"bzz-raw://3773bf3b42cc57d1e4086147e52135ff1dbff4309c45ca0398f821dfaa071563\",\"dweb:/ipfs/QmXUEJssHaxYKfV33tMZGf81JTR5a5yxEVshzNus84xLuT\"],\"license\":\"MIT\"},\"src/interfaces/IJBFundAccessLimits.sol\":{\"keccak256\":\"0xf5fd6bdd723b60d490ccbe22cdf1cfe43663d23e6ee48badcd1b71e3282cb16b\",\"urls\":[\"bzz-raw://fe692f0b843ea5fccdfcb68f4ec16e1c0add945bb74b303c9866342be0e31fbf\",\"dweb:/ipfs/QmSRmzpgp3DhNEhNDiLsSu7yEiTeywbzEFbwyGyDazjgKt\"],\"license\":\"MIT\"},\"src/interfaces/IJBMigratable.sol\":{\"keccak256\":\"0xd69bd5aba01a68d82c303ef3adde47532abcace030a94296c3ea6988b401789c\",\"urls\":[\"bzz-raw://88f11a1c89899327746beba4fc830abf3ac2eb9c152c778e884a6eed6564971f\",\"dweb:/ipfs/QmTpKhSTVewpz7VyKcz6BJwH2LFKMwT7Qi5HNWmjEjwsdK\"],\"license\":\"MIT\"},\"src/interfaces/IJBMultiTerminal.sol\":{\"keccak256\":\"0xefd98d88f6d1a091e77edd76163d6950e0b0dcde9dc39a1fd1112ff3981fc767\",\"urls\":[\"bzz-raw://fe2ca9467481f2f9f3a36a658b4e8da9305a43a142016f4ba7f90f596ff84cd2\",\"dweb:/ipfs/QmeGdDmTzsg9E2XjPDpBQWxvMqw5JHiC9hutEvfhH6M8Ap\"],\"license\":\"MIT\"},\"src/interfaces/IJBPayHook.sol\":{\"keccak256\":\"0x9438866782c652c2942f4d114e35f393cd3c8b0334abce8387eed90bca35e8b2\",\"urls\":[\"bzz-raw://cfd99daf57213f92325aad7d7d16e98476d38e870470e95ba01e3ae3cdecc95d\",\"dweb:/ipfs/QmUKKAVGf7ki8BHksr99tFcRW8APveeB5tNH63ctTbbCW8\"],\"license\":\"MIT\"},\"src/interfaces/IJBPayoutTerminal.sol\":{\"keccak256\":\"0xd0f9374470591c4afb2525c9c7b1bdad577765857c404b22ee5d8d2997a18fad\",\"urls\":[\"bzz-raw://4529c066b2014ee64b8fb16981a9fd5badf64dea7ac6c07dd1b1e7ab5cdc1d8a\",\"dweb:/ipfs/QmYxTdPjRAZ8iThUoNmJuivEaRaB3xXpyHdhCU7my1UHZy\"],\"license\":\"MIT\"},\"src/interfaces/IJBPermissioned.sol\":{\"keccak256\":\"0x5b038d4dee116584e88b230920e56d48e135053e3f7e5642eaea14a775c1dad7\",\"urls\":[\"bzz-raw://19e43102f349fd4a1da1c0943ffb8f2950007fe4bb4bb7e8f74fc142575d091b\",\"dweb:/ipfs/QmXHAt4KzDTdDZgDDefEXH2WKi7NcfkJb9R7nxW5uDqsNp\"],\"license\":\"MIT\"},\"src/interfaces/IJBPermissions.sol\":{\"keccak256\":\"0x18870e500edf0fbadc353e273a5574701fb80466376b908c65e7cc3f11044d4d\",\"urls\":[\"bzz-raw://352a47c45853aec80e7acf0d286ade3106eb4cb456776b28a3c2f3f1091bed90\",\"dweb:/ipfs/QmQeYd3YbudYZy2hfbfht9kwhxhw4tuuLKMEYy9UY6dcSy\"],\"license\":\"MIT\"},\"src/interfaces/IJBPermitTerminal.sol\":{\"keccak256\":\"0xd6bd30842273f5b794f82219fefdd4953f5343328d2cfdb684b7d826cc0c769c\",\"urls\":[\"bzz-raw://ca1195fd5572060b36fc7e45f46d59f974e3a908248edcfadeb8cb06247075f0\",\"dweb:/ipfs/QmYTpDXKTXqi8GQFsNqB8LiGFTZjSPY3PA8vKqZBraVdqD\"],\"license\":\"MIT\"},\"src/interfaces/IJBPriceFeed.sol\":{\"keccak256\":\"0x4bd84c0f1a5d4729ed709bcddd43f4c50ec4a165ece79780af8dce482ed07d4a\",\"urls\":[\"bzz-raw://62bac4bfb6982fb002f620c77e5c445e62d50241a5aa64a07e51d929f5a42180\",\"dweb:/ipfs/QmWgJUDreVY2BuMX38a1iUUR5kNbMwGnKG3VvurB7oZtuM\"],\"license\":\"MIT\"},\"src/interfaces/IJBPrices.sol\":{\"keccak256\":\"0x99525f31440b955742dce84ba57de9fc1221139b5367c1f834723bef9e13e6e1\",\"urls\":[\"bzz-raw://6fa03f0cd4ad87dd7cbae7bf7f54463450874291773c8f70f2c31ef2cae62bb0\",\"dweb:/ipfs/QmSPajPV5ismteJuB6Spzm9VmhTj2iS3eVrfpJC1Zuzg8n\"],\"license\":\"MIT\"},\"src/interfaces/IJBProjectUriRegistry.sol\":{\"keccak256\":\"0x2799475228987e4f8334ac33d3935f759c9b8133db7383b4f622dde7a5dc0502\",\"urls\":[\"bzz-raw://d751731740f45df74eea48c9667e847ee2cddb2980ab4939c86bd17e6c6ed89b\",\"dweb:/ipfs/QmXW8SLTuhdUpfn7pRpdsYdcyuim8RTyagU37ULcj5UZhT\"],\"license\":\"MIT\"},\"src/interfaces/IJBProjects.sol\":{\"keccak256\":\"0x735c2fb8f1fa827f054ee77f7a0ae4b312656217acb75b624d2c8fd9dc40151b\",\"urls\":[\"bzz-raw://ee7fc92299a8633a80693ae63ab494dcd125f1789487a54a39dc0e5696e5996f\",\"dweb:/ipfs/QmX7YJD4pS2XhgQb7p3JbBAXynT7YGPXcZe92BiWWRrsCL\"],\"license\":\"MIT\"},\"src/interfaces/IJBRedeemHook.sol\":{\"keccak256\":\"0x8ab46fcd7d0e739661eb76056ad93ff99106f38420ef0b4eb97fa9f4bb71a68a\",\"urls\":[\"bzz-raw://0ef96fcb7ad26281d444d8e0c677b25114fdd63b1c172d477e030dce8ba53b62\",\"dweb:/ipfs/Qmcx1jRQuwU4pZFuLxsSsx4oMbRaDfktHrPnXextgbWc5m\"],\"license\":\"MIT\"},\"src/interfaces/IJBRedeemTerminal.sol\":{\"keccak256\":\"0xd1b4aa38154e08f1474745ea6bc8f8823fe8aa68c124d596742597f2296ea16d\",\"urls\":[\"bzz-raw://9bd254e833702dfe5e28db5fee76478947ab45b501c966501f719e73bbf0397a\",\"dweb:/ipfs/QmZ3Ng7TmVxL6ozSUhx4kYdQdZhoYi4t43cYZVAMz7Fn5M\"],\"license\":\"MIT\"},\"src/interfaces/IJBRulesetApprovalHook.sol\":{\"keccak256\":\"0x592e95d159494421c6b1bcb362d0cee1df0132921697351304e9cd7af4fbd386\",\"urls\":[\"bzz-raw://5bebfd5fa67c1b6ea16fa2e76e9520e9dfe52a579f48dd94d0c2ec45f78ad178\",\"dweb:/ipfs/QmRUawEGtfYoYSHmHELGhvJoWuMsxLPKtqAXgsrb7fJboP\"],\"license\":\"MIT\"},\"src/interfaces/IJBRulesets.sol\":{\"keccak256\":\"0xd3f817d22ecbe24da63c552c069bf0c4fbbf3bcd5c3b5633002afd24aacf6882\",\"urls\":[\"bzz-raw://c1185aec0f6b6f0f4d93ffeeed0972ccf38420b00fe570b5e1838ed2b1f5db49\",\"dweb:/ipfs/QmWz36azGTFnjFXpFSh6BHt4nactgjtF64L3PeTqs4ZqSR\"],\"license\":\"MIT\"},\"src/interfaces/IJBSplitHook.sol\":{\"keccak256\":\"0xeb8dfac7a4b81897a1c3b5d0d853a406bcff33720fb187d5ca5bb3dcc0ba3a12\",\"urls\":[\"bzz-raw://36aaeef6107cfe5b0127e063ea215aac7200f8af02e28a48e61111abd3254688\",\"dweb:/ipfs/QmQ8yQANXnhQCAWBGKsKCDsJ3A8hnTKNg5tyo79GfWXTcV\"],\"license\":\"MIT\"},\"src/interfaces/IJBSplits.sol\":{\"keccak256\":\"0x92deeb9e22ce2aaafc608b85e9250b8ea2deed1ebf64b7442038b157b2bfe0e6\",\"urls\":[\"bzz-raw://08bf29f0c13c2e8be46065277f67e44ecaea960cb5474f13775eece0672566c2\",\"dweb:/ipfs/QmeGu9C6tuBjfmeizmpzptxgGmch6Mbtm34NFwZxzMvqc4\"],\"license\":\"MIT\"},\"src/interfaces/IJBTerminal.sol\":{\"keccak256\":\"0x19dc9bf8cbdc8f13ee5da9dc3a87047eacb94a3fc19740a286c1f0bad2cc39ca\",\"urls\":[\"bzz-raw://0b05ae6fda9a85672508232fd992b8a5f5ffd8096622eeb12c8a7b3317eb3867\",\"dweb:/ipfs/QmNh9Quj37BXYGdTdcCD1Q58PchRsE5TLbEZep56qS3MpV\"],\"license\":\"MIT\"},\"src/interfaces/IJBTerminalStore.sol\":{\"keccak256\":\"0x140159d66d729f6aeed0fe1f7c655619985146ec00e8c68cbd9b5d30d4dc7d23\",\"urls\":[\"bzz-raw://f972ecb52bcfcd2852c9e7264b1ecc504ce94bd6e12c034b93c1768cd372954e\",\"dweb:/ipfs/QmRu7in5iJSWHLTcFPbJmiK1rCHFbwNY7qzY4cG6kgfYcr\"],\"license\":\"MIT\"},\"src/interfaces/IJBToken.sol\":{\"keccak256\":\"0x71b1f9c3a0edd41910f77396e0be2c65596571176d53eb87e887c3c0da56c0fb\",\"urls\":[\"bzz-raw://6e956f0582f4525e83d845ee9b4a89959abc4f821414f6accbbee5b38960482d\",\"dweb:/ipfs/QmbSvjgmCgnfVmcCTGu8XwrV1Rufsf3M8hB8unFq6fTMdH\"],\"license\":\"MIT\"},\"src/interfaces/IJBTokenUriResolver.sol\":{\"keccak256\":\"0xfa5cb00dcd6085d1ef912d071fe73c63f9478a2cd0f9d8bddaf659b6af2d0967\",\"urls\":[\"bzz-raw://282e4e7c342d65f77cde0e9a08fcaf20ef5cf379c7a48b639842c0ffd0b2afb8\",\"dweb:/ipfs/QmbnN3PEQeZaXdPLT75V1J79kMg7KqSMru37RHrL3z8Yf2\"],\"license\":\"MIT\"},\"src/interfaces/IJBTokens.sol\":{\"keccak256\":\"0x6fd67af915dd541d9547c8297aa9ae269690e4ee23531db43f021bcacec6076f\",\"urls\":[\"bzz-raw://2e5e11954e9ab2319fffccb6563f3db400b8f7760d4ffe2165048a02c9c37fa6\",\"dweb:/ipfs/QmbDXtV83dK8EfiTjsTRf55R2XqPZzDKcjtYbW8sxQ5CFm\"],\"license\":\"MIT\"},\"src/libraries/JBConstants.sol\":{\"keccak256\":\"0x9d3a9a953f859d8ec79a599577f8972de6da7199cc1bfa7fdad017d4d722bcb4\",\"urls\":[\"bzz-raw://f151fcb53a8d2684eff8b9e56ac790bcbcadd8199a4fd4d17c5b224b22936722\",\"dweb:/ipfs/QmdAz1ZtCE8nTiC4AxQNLfJhnY3ndGum2Lbef7seKdvTdR\"],\"license\":\"MIT\"},\"src/libraries/JBFees.sol\":{\"keccak256\":\"0xd1491c7266f8a6944615a940c686d5ce8f8a51651cbaabece1e0a38154901028\",\"urls\":[\"bzz-raw://89d3d4424cf80e5b1a3dec3b23f6606b937c73c1160d0dc9eb8ddc7951293949\",\"dweb:/ipfs/QmRo7WCrTRkoCwj5FZ3G9CuxLM9a18Kh9tgs3rAnnKABAv\"],\"license\":\"MIT\"},\"src/libraries/JBMetadataResolver.sol\":{\"keccak256\":\"0x900731084917f812806a35dab2c7ae65a6f07506d6c953ae0cd6d993fe85560f\",\"urls\":[\"bzz-raw://2002892aef205b5192fa5c2d1cf1698ba0836bed7eaba839444cd0f93b4fb050\",\"dweb:/ipfs/QmPRGSNRdpST1xt2brhGWSDsEYD29j5QwaJ3SA518UUXWs\"],\"license\":\"MIT\"},\"src/libraries/JBRulesetMetadataResolver.sol\":{\"keccak256\":\"0x83f25c531d9e212379b4326fd93bf658a0f6d0e839bbd67bff7b66b9b55fb670\",\"urls\":[\"bzz-raw://3eb4a41ececec705febac7b799d7224e67f12761ae3975d49dd8bddaac608ecd\",\"dweb:/ipfs/QmNgL5VccDhP5xofEcGWNKk3v4KG23wGF9vc3d4YJ5MLnv\"],\"license\":\"MIT\"},\"src/structs/JBAccountingContext.sol\":{\"keccak256\":\"0x2907ff54d1e903cc7e0390dd88c3975884702dc2673642aacbe22b66560b56de\",\"urls\":[\"bzz-raw://a66a5381ce877b32f0e0058ceeaf843e9b6b2bc8af666c0c9f4a9d01091da004\",\"dweb:/ipfs/QmQynCetUr37dBkS1YwDS8evxuXGiqanW6THmeUxXtim8w\"],\"license\":\"MIT\"},\"src/structs/JBAfterPayRecordedContext.sol\":{\"keccak256\":\"0xd26c3a774ff38be79064085970454fe2603a23a638c76270d5b1b3829206c3e8\",\"urls\":[\"bzz-raw://3b55dbe3bf1ef625b7ca04efab3de35406e6041d5b3d82c7265469c500e2b702\",\"dweb:/ipfs/QmUdBDo4Lt3mcsFcsXT2mqq3czFwZjQJFPLM89YA2VtD7k\"],\"license\":\"MIT\"},\"src/structs/JBAfterRedeemRecordedContext.sol\":{\"keccak256\":\"0x521f5d23a36f0da72362cd84890cc867bd83baa8dc836ba6c5066d51dba2f163\",\"urls\":[\"bzz-raw://6cc461313286dde62d045d6288e87bae5032e035796326f5b1ed6218e58aa9da\",\"dweb:/ipfs/QmQS2AkQwf2ANQieDuaUnpJEdXChoLv4CCbZqHkfywYPSR\"],\"license\":\"MIT\"},\"src/structs/JBCurrencyAmount.sol\":{\"keccak256\":\"0x12fe4b43f4824994624d4fe0abbd88c3fe7867fd637edb65c7f456dab27e2d6e\",\"urls\":[\"bzz-raw://8003a3e8f932cf891e86b827e67c9d31b0d34c2712e18c2bc333cfe5284ba6d5\",\"dweb:/ipfs/QmSoA6RsDcSnNzk6CB7KZtALkHmeSDAi2g6fg3TDmLDkWX\"],\"license\":\"MIT\"},\"src/structs/JBFee.sol\":{\"keccak256\":\"0x90531b42853517d6e1d1955966ee6ffef38db901cb96770cfcbb6955f760aab0\",\"urls\":[\"bzz-raw://0fc1971f6fba2ec6092544d3eeea0121a078d9c7967a006029d1ef9d87bda805\",\"dweb:/ipfs/QmYyhRHKGCbSETczF848BHJfqMMGTQw5TeFeTu2nbbHX33\"],\"license\":\"MIT\"},\"src/structs/JBFundAccessLimitGroup.sol\":{\"keccak256\":\"0x9fdaa8d017b72da25f583700a444a86849df053f7fb8eac874ec5139bcf651e5\",\"urls\":[\"bzz-raw://c8e44c49ee444a98424a0dbeb6897a76a0bf00d88a613f62ac2012afdac754ee\",\"dweb:/ipfs/QmdYkAiRi5bXM1YYNkc7BiqimHSFodMGn1cjHR5hcpm4xH\"],\"license\":\"MIT\"},\"src/structs/JBPayHookSpecification.sol\":{\"keccak256\":\"0x955f0bfca97300b9e5927dc181753830ee362f83fa9ca32a90daade32aa0cfd5\",\"urls\":[\"bzz-raw://f517af1597c7c40f8d3da53f7a6684a3e162950a16559d6bf6ea3b727bb11546\",\"dweb:/ipfs/QmRWo2ZTYXmVZTzNJDYhsJNsEaHphjpUfx9eNz2cciyz86\"],\"license\":\"MIT\"},\"src/structs/JBPermissionsData.sol\":{\"keccak256\":\"0x8f0f69a6ebf5f3704e3dfcb3712fb9d3f94ae7c1ab89bf3e37bad42a3e7a0487\",\"urls\":[\"bzz-raw://57b0c5e52843e2217082889ed47b4da3943e0da4590d5768dcebfe3edad4a6b8\",\"dweb:/ipfs/QmRz48vuWLw81kUP836rh1qzqWiJFGbksgRUA9xGEDNKTY\"],\"license\":\"MIT\"},\"src/structs/JBRedeemHookSpecification.sol\":{\"keccak256\":\"0x673d16ee1a91bf8de3b37e57284e60451b70a9c2d748c9cdc7a151f5624af18f\",\"urls\":[\"bzz-raw://ceeb5e81effa0f076c5630c756dfcf1548d09f822b255a0a6ee01e54de8c8ae2\",\"dweb:/ipfs/QmSMoMNPRhPMnuJNvWa6S59XRfycGz9o2ApNp63bUW6TdX\"],\"license\":\"MIT\"},\"src/structs/JBRuleset.sol\":{\"keccak256\":\"0x15b2bf3174d84846a91ccbf5a344dfb125b55ed9cf50102db8d6868844225189\",\"urls\":[\"bzz-raw://647416b025dbd941094db89cbc69f755c155bd6c87be3f322394ccc4a8e0442d\",\"dweb:/ipfs/QmTCL9xcHnxQ4t5AmCPoZvXDUPW5xhzhyyXYbkMdyg44au\"],\"license\":\"MIT\"},\"src/structs/JBRulesetConfig.sol\":{\"keccak256\":\"0x0be470df286939259a6b98bc71459e661e81d56a58226d6a574ae1484f8f8e6c\",\"urls\":[\"bzz-raw://64592c279ba7518ac180c835a539897163f299a439065f2cc8aa54086a2c9ad7\",\"dweb:/ipfs/QmaEepVvFJdXcDBMMr7SQYjZSDJXPtCca95kQY5rZbra6U\"],\"license\":\"MIT\"},\"src/structs/JBRulesetMetadata.sol\":{\"keccak256\":\"0xfea54c9f98416d2aa05309e7ff76967d6968a614850a1e33e48fde793ea8b514\",\"urls\":[\"bzz-raw://bf55386cbab90dbc1296b2b0cbfdc217a4500d67702e4a093a4c78bd127ecd5c\",\"dweb:/ipfs/QmTRq9mZrNSXu7oCZwti4JbBFrbY6A5msRqi9RbtL49NAj\"],\"license\":\"MIT\"},\"src/structs/JBRulesetWithMetadata.sol\":{\"keccak256\":\"0x1bcfadf20488f6df65227f8d4d0fbf9b7539456a2389567f7fe3900d23289bc3\",\"urls\":[\"bzz-raw://0a15c399a71e5373f8c0484c6d6b83521eda31e063a2c53e4c5cec4e74550343\",\"dweb:/ipfs/QmQwi8zkjoTVXbK89NeETYimWCacTrNsesJdpLSvGdqMPX\"],\"license\":\"MIT\"},\"src/structs/JBSingleAllowanceContext.sol\":{\"keccak256\":\"0x5bcd5b3abafe9137ee451b112fcac473b4d48858544279d38d0c56dea5271f44\",\"urls\":[\"bzz-raw://5f17a870c2f1797a18918ab3dc6f404f0224d9e415815c708654a17686cd62c0\",\"dweb:/ipfs/QmWMDffMMrj7ZXquTHSQt8VQm5owo94BdPpJ93NfSp2jrn\"],\"license\":\"MIT\"},\"src/structs/JBSplit.sol\":{\"keccak256\":\"0x1d40fa4f1c911a53b9139f3d44d27cb58fa5c5d2cd793c7a21ccf52b9e61f848\",\"urls\":[\"bzz-raw://9897d2c29fc65fe16e4eac0b7b8b6fd8ef0b0cc501986f7f0c3a78c4ec1dbb60\",\"dweb:/ipfs/QmXcHoVjCYWWCz4hm2KZ6JxtB4YNq7jmXa2evLkga59Xwq\"],\"license\":\"MIT\"},\"src/structs/JBSplitGroup.sol\":{\"keccak256\":\"0xda7da6e88aac2906c7ea4027660088daf217edc632bebca4d72795aae8921564\",\"urls\":[\"bzz-raw://ae1939d17e94cb51484f31ce64cf0df990445a338fb9b38d39a7baf28275ae4a\",\"dweb:/ipfs/QmUhPnJiWnYhFdtLvZnrPopAdbYXxETpGjvxjPDignpTGY\"],\"license\":\"MIT\"},\"src/structs/JBSplitHookContext.sol\":{\"keccak256\":\"0xfe34e6860b00ca93d71f44e72882281b2c57c31303151af05795c74cfdd2e51d\",\"urls\":[\"bzz-raw://08acab094888e9c929b6f6f972d89ddbb31e5867675e7e7c602d25fcb2c0f402\",\"dweb:/ipfs/QmPNdXM185cTyXQSodVr4JMviHx88jrWu7dipgkp9xTNgJ\"],\"license\":\"MIT\"},\"src/structs/JBTerminalConfig.sol\":{\"keccak256\":\"0xd162f3821a1ccafbc8d7d108369e39ac3048445a8c7fe7a3fa97a6343f9eefaa\",\"urls\":[\"bzz-raw://82172ea0407b6d9edc45e408c7e8edb8e129adf49a94349fe3a5862da9bc044e\",\"dweb:/ipfs/QmWheF5Tjq2hcabnSzfYqdFHUA1YxYEdAPZaRw9N166V1d\"],\"license\":\"MIT\"},\"src/structs/JBTokenAmount.sol\":{\"keccak256\":\"0x5cf0626b73a596c1e2da17c89ae039a7c0374310b060d48568d3b6c11fbe6180\",\"urls\":[\"bzz-raw://63348b50be95e2995409394a17caffc563a646f0972650a1230bf864fbd3219b\",\"dweb:/ipfs/QmZXZpS3SbFD5nWaCauf6AqbEhLURv5qsKHpThBvQgDU6u\"],\"license\":\"MIT\"}},\"version\":1}",
			"args": [
				"0x1e2E8562b635fe19978640C784e47865A83d6605",
				"0xf9dadA4628Eb3992202CF253625d4ECebBC1592f",
				"0xCD8c4da77dfb15C05486D3F71Ee4C2C0dfdbc94e",
				"0xf271e7329eD20B9b61BD5A13593e1F5bB6098644",
				"0x07cE005F3Baf3cc2E9CdB1EB21f6eF9112223085",
				"0x6c8352F6Cc457021cD537C2a6D0D4e7f1Ed29e1E",
				"0x000000000022D473030F116dDEE9F6B43aC78BA3",
				"0xB2b5841DBeF766d4b521221732F9B618fCf34A87"
			],
			"bytecode": "0x6101806040523480156200001257600080fd5b50604051620061df380380620061df83398101604081905262000035916200008b565b6001600160a01b03978816608052871660a05294861660c05292851660e0529084166101005283166101205282166101405216610160526200014c565b6001600160a01b03811681146200008857600080fd5b50565b600080600080600080600080610100898b031215620000a957600080fd5b8851620000b68162000072565b60208a0151909850620000c98162000072565b60408a0151909750620000dc8162000072565b60608a0151909650620000ef8162000072565b60808a0151909550620001028162000072565b60a08a0151909450620001158162000072565b60c08a0151909350620001288162000072565b60e08a01519092506200013b8162000072565b809150509295985092959890939650565b60805160a05160c05160e05161010051610120516101405161016051615f466200029960003960008181610443015281816120ee01526124fe01526000818161040f015281816107c901528181610b6801528181610e820152818161289d01528181612d230152613fb801526000818161031f01528181611695015281816118af01528181611b5e01528181611d7d0152818161280e01528181612b6101528181612ef30152818161396501526145e30152600081816101b201526142390152600081816104aa01528181610a88015281816111e301528181611e3a0152818161225701528181612c0f0152613e6c0152600081816101fe0152818161114d01528181611515015281816117720152818161293e0152612f9101526000818161038b015281816104740152613a8f0152600081816105c6015281816126a001526127490152615f466000f3fe6080604052600436106101665760003560e01c80636afdd850116100d1578063bb7214fe1161008a578063cfaf583911610064578063cfaf583914610574578063e28b541114610594578063f434c914146105b4578063fef43257146105e857600080fd5b8063bb7214fe1461051f578063c57981b51461053f578063cc6801271461055457600080fd5b80636afdd850146104315780637da0a8771461046557806388bc2ef31461049857806398ea47fc146104cc5780639e6eec05146104ec578063b62d17cf146104ff57600080fd5b8063507f146511610123578063507f14651461030d578063515a929314610341578063572b6c051461036e5780635f912e56146103bb57806362ef3036146103dd578063659a2047146103fd57600080fd5b806301ffc9a71461016b5780631f47ce69146101a0578063293c4999146101ec57806333b30610146102205780633a01714f1461024d57806343a89aaf146102df575b600080fd5b34801561017757600080fd5b5061018b6101863660046148e8565b6105fb565b60405190151581526020015b60405180910390f35b3480156101ac57600080fd5b506101d47f000000000000000000000000000000000000000000000000000000000000000081565b6040516001600160a01b039091168152602001610197565b3480156101f857600080fd5b506101d47f000000000000000000000000000000000000000000000000000000000000000081565b34801561022c57600080fd5b5061024061023b366004614927565b6106ef565b6040516101979190614957565b34801561025957600080fd5b506102d2610268366004614927565b6040805160608082018352600080835260208084018290529284018190529485528482528285206001600160a01b03948516865282529382902082519485018352549283168452600160a01b830460ff1690840152600160a81b90910463ffffffff169082015290565b60405161019791906149e4565b3480156102eb57600080fd5b506102ff6102fa3660046149f2565b61078f565b604051908152602001610197565b34801561031957600080fd5b506101d47f000000000000000000000000000000000000000000000000000000000000000081565b34801561034d57600080fd5b5061036161035c366004614a5a565b610f22565b6040516101979190614ab9565b34801561037a57600080fd5b5061018b610389366004614acc565b7f00000000000000000000000000000000000000000000000000000000000000006001600160a01b0390811691161490565b3480156103c757600080fd5b506103db6103d6366004614ae9565b610fbc565b005b3480156103e957600080fd5b506103db6103f8366004614927565b611123565b34801561040957600080fd5b506101d47f000000000000000000000000000000000000000000000000000000000000000081565b34801561043d57600080fd5b506101d47f000000000000000000000000000000000000000000000000000000000000000081565b34801561047157600080fd5b507f00000000000000000000000000000000000000000000000000000000000000006101d4565b3480156104a457600080fd5b506101d47f000000000000000000000000000000000000000000000000000000000000000081565b3480156104d857600080fd5b506103db6104e7366004614b3a565b611133565b6103db6104fa366004614c07565b61146d565b34801561050b57600080fd5b506102ff61051a366004614cae565b6114f0565b34801561052b57600080fd5b506102ff61053a366004614d28565b6115fb565b34801561054b57600080fd5b506102ff601981565b34801561056057600080fd5b506102ff61056f366004614d84565b611670565b34801561058057600080fd5b506102ff61058f366004614db0565b61171c565b3480156105a057600080fd5b506102ff6105af366004614df8565b61174d565b3480156105c057600080fd5b506101d47f000000000000000000000000000000000000000000000000000000000000000081565b6102ff6105f6366004614e3a565b611a29565b60006001600160e01b0319821663775c5eb360e11b148061062c57506001600160e01b03198216633d0d324560e21b145b8061064757506001600160e01b03198216632f720bd160e21b145b8061066257506001600160e01b03198216635db90a7f60e11b145b8061067d57506001600160e01b03198216633a2ad55960e01b145b8061069857506001600160e01b031982166306afdd8560e41b145b806106b357506001600160e01b0319821663775c5eb360e11b145b806106ce57506001600160e01b031982166357175cc160e11b145b806106e957506001600160e01b031982166301ffc9a760e01b145b92915050565b60008281526002602090815260408083206001600160a01b03851684528252808320805482518185028101850190935280835260609492939192909184015b828210156107835760008481526020908190206040805160608101825260038602909201805483526001808201546001600160a01b03168486015260029091015491830191909152908352909201910161072e565b50505050905092915050565b600033301461079d57600080fd5b508160006107b160c0880160a08901614acc565b6001600160a01b031614610a52576001600160a01b037f00000000000000000000000000000000000000000000000000000000000000001663ae74a1b56107fe60c0890160a08a01614acc565b6040516001600160e01b031960e084901b1681526001600160a01b039091166004820152602401602060405180830381865afa158015610842573d6000803e3d6000fd5b505050506040513d601f19601f820116820180604052508101906108669190614eed565b61088257610875836019611ae6565b61087f9082614f20565b90505b6040805160c0810182526001600160a01b0386168082526020808301859052600089815280825284812083825290915283812054600160a01b900460ff169383019390935260608201889052608082015260a081016108e6368a90038a018a615008565b905290506108fa60c0880160a08901614acc565b6040516301ffc9a760e01b81526312903a8560e01b60048201526001600160a01b0391909116906301ffc9a790602401602060405180830381865afa158015610947573d6000803e3d6000fd5b505050506040513d601f19601f8201168201806040525081019061096b9190614eed565b6109a45760405162461bcd60e51b81526020600482015260056024820152643430305f3160d81b60448201526064015b60405180910390fd5b6109be6109b760c0890160a08a01614acc565b8684611b08565b60006001600160a01b03861661eeee146109d95760006109db565b825b90506109ed60c0890160a08a01614acc565b6001600160a01b03166312903a8582846040518363ffffffff1660e01b8152600401610a1991906150c4565b6000604051808303818588803b158015610a3257600080fd5b505af1158015610a46573d6000803e3d6000fd5b50505050505050610f19565b604086013515610e295760408051630862026560e41b81529087013560048201526001600160a01b0385811660248301526000917f000000000000000000000000000000000000000000000000000000000000000090911690638620265090604401602060405180830381865afa158015610ad1573d6000803e3d6000fd5b505050506040513d601f19601f82011682018060405250810190610af59190615118565b90506001600160a01b038116610b355760405162461bcd60e51b81526020600482015260056024820152641a181a2f9960d91b604482015260640161099b565b6001600160a01b0381163014801590610bd5575060405163ae74a1b560e01b81526001600160a01b0382811660048301527f0000000000000000000000000000000000000000000000000000000000000000169063ae74a1b590602401602060405180830381865afa158015610baf573d6000803e3d6000fd5b505050506040513d601f19601f82011682018060405250810190610bd39190614eed565b155b15610bf257610be5846019611ae6565b610bef9083614f20565b91505b6001600160a01b0381163014610c0d57610c0d818684611b08565b600086604051602001610c2291815260200190565b60408051601f198184030181529190529050610c416020890189615135565b15610d0e57306001600160a01b03831603610c7d57610c788860400135878560006040518060200160405280600081525086611b39565b610e22565b60006001600160a01b03871661eeee14610c98576000610c9a565b835b9050826001600160a01b0316639e6eec05828b604001358a886000886040518763ffffffff1660e01b8152600401610cd69594939291906151a2565b6000604051808303818588803b158015610cef57600080fd5b505af1158015610d03573d6000803e3d6000fd5b505050505050610e22565b600080610d2160808b0160608c01614acc565b6001600160a01b031603610d355784610d45565b610d4560808a0160608b01614acc565b9050306001600160a01b03841603610d7f57610d798960400135888630856040518060200160405280600081525088611c45565b50610e20565b60006001600160a01b03881661eeee14610d9a576000610d9c565b845b9050836001600160a01b031663fef43257828c604001358b898760008a6040518863ffffffff1660e01b8152600401610dda969594939291906151f0565b60206040518083038185885af1158015610df8573d6000803e3d6000fd5b50505050506040513d601f19601f82011682018060405250810190610e1d919061523c565b50505b505b5050610f19565b600080610e3c6080890160608a01614acc565b6001600160a01b031603610e505782610e60565b610e606080880160608901614acc565b60405163ae74a1b560e01b81526001600160a01b0380831660048301529192507f00000000000000000000000000000000000000000000000000000000000000009091169063ae74a1b590602401602060405180830381865afa158015610ecb573d6000803e3d6000fd5b505050506040513d601f19601f82011682018060405250810190610eef9190614eed565b610f0b57610efe846019611ae6565b610f089083614f20565b91505b610f1730828785611fbc565b505b95945050505050565b606060016000838152602001908152602001600020805480602002602001604051908101604052809291908181526020016000905b82821015610fb157600084815260209081902060408051606081018252918501546001600160a01b0381168352600160a01b810460ff1683850152600160a81b900463ffffffff1690820152825260019092019101610f57565b505050509050919050565b333014610fc857600080fd5b6001600160a01b0381166110065760405162461bcd60e51b81526020600482015260056024820152643430345f3160d81b604482015260640161099b565b6001600160a01b038116301461102157611021818585611b08565b60008560405160200161103691815260200190565b60408051601f198184030181529190529050306001600160a01b0383160361107d576110776001868630876040518060200160405280600081525087611c45565b5061111b565b60006001600160a01b03861661eeee1461109857600061109a565b845b9050826001600160a01b031663fef432578260018989896000896040518863ffffffff1660e01b81526004016110d5969594939291906151f0565b60206040518083038185885af11580156110f3573d6000803e3d6000fd5b50505050506040513d601f19601f82011682018060405250810190611118919061523c565b50505b505050505050565b61112f8282600061214c565b5050565b6040516331a9108f60e11b81526004810184905261126e907f00000000000000000000000000000000000000000000000000000000000000006001600160a01b031690636352211e90602401602060405180830381865afa15801561119c573d6000803e3d6000fd5b505050506040513d601f19601f820116820180604052508101906111c09190615118565b604051632eec7b5560e11b81526004810186905285906013906001600160a01b037f00000000000000000000000000000000000000000000000000000000000000001690635dd8f6aa90602401602060405180830381865afa15801561122a573d6000803e3d6000fd5b505050506040513d601f19601f8201168201806040525081019061124e9190615118565b6001600160a01b031661125f612388565b6001600160a01b031614612397565b806000805b8281101561111b5784848281811061128d5761128d615255565b90506020020160208101906112a29190614acc565b6000878152602081815260408083206001600160a01b038086168552925290912080549294509116156112e85760405163b83f909160e01b815260040160405180910390fd5b80546001600160a01b0319166001600160a01b038416908117825561eeee1461137257826001600160a01b031663313ce5676040518163ffffffff1660e01b8152600401602060405180830381865afa158015611349573d6000803e3d6000fd5b505050506040513d601f19601f8201168201806040525081019061136d9190615281565b611375565b60125b815464ffffffffff60a01b1916600160a01b60ff928316810263ffffffff60a81b1990811692909217600160a81b63ffffffff888116820292909217865560008c815260016020818152604083208054928301815583529091208754910180546001600160a01b039283166001600160a01b031982168117835589546001600160a81b03199092161790869004909716909402959095178084558654941693819004909116029190911790558316877f9570de6fc0456f642bd0a001b24cd31676388c24596df64a17190c24310690a18361144e612388565b60405161145c9291906152c7565b60405180910390a350600101611273565b611118888861147f8b8b8b88886123a7565b8888888080601f01602080910402602001604051908101604052809392919081815260200183838082843760009201919091525050604080516020601f8c018190048102820181019092528a815292508a9150899081908401838280828437600092019190915250611b3992505050565b6040516331a9108f60e11b815260048101899052600090611588906001600160a01b037f00000000000000000000000000000000000000000000000000000000000000001690636352211e90602401602060405180830381865afa15801561155c573d6000803e3d6000fd5b505050506040513d601f19601f820116820180604052508101906115809190615118565b8a6010612642565b6115cc898989898888888080601f0160208091040260200160405190810160405280939291908181526020018383808284376000920191909152506127d492505050565b9050848110156115ef5760405163a1a08d1760e01b815260040160405180910390fd5b98975050505050505050565b600061160989896003612642565b61164d898989898888888080601f016020809104026020016040519081016040528093929190818152602001838380828437600092019190915250612a6492505050565b9050848110156115ef5760405163f896960b60e01b815260040160405180910390fd5b600083815260016020526040808220905163d60d1a0960e01b81526001600160a01b037f0000000000000000000000000000000000000000000000000000000000000000169163d60d1a09916116d1913091899190899089906004016152ed565b602060405180830381865afa1580156116ee573d6000803e3d6000fd5b505050506040513d601f19601f82011682018060405250810190611712919061523c565b90505b9392505050565b600061172a86868686612eb9565b905081811015610f195760405163a1a08d1760e01b815260040160405180910390fd5b6040516331a9108f60e11b8152600481018490526000906117e5906001600160a01b037f00000000000000000000000000000000000000000000000000000000000000001690636352211e90602401602060405180830381865afa1580156117b9573d6000803e3d6000fd5b505050506040513d601f19601f820116820180604052508101906117dd9190615118565b856005612642565b604051633a01714f60e01b8152600481018590526001600160a01b038481166024830152831690633a01714f90604401606060405180830381865afa158015611832573d6000803e3d6000fd5b505050506040513d601f19601f82011682018060405250810190611856919061535e565b6020015160ff1660000361187d5760405163581010ed60e01b815260040160405180910390fd5b6118898484600161214c565b6040516319781e2360e01b8152600481018590526001600160a01b0384811660248301527f000000000000000000000000000000000000000000000000000000000000000016906319781e23906044016020604051808303816000875af11580156118f8573d6000803e3d6000fd5b505050506040513d601f19601f8201168201806040525081019061191c919061523c565b905080156119c35761192f828483611b08565b60006001600160a01b03841661eeee1461194a57600061194c565b815b6040805160208101825260008082529151639e6eec0560e01b81529293506001600160a01b03861692639e6eec0592859261198f928b928b928a926004016151a2565b6000604051808303818588803b1580156119a857600080fd5b505af11580156119bc573d6000803e3d6000fd5b5050505050505b816001600160a01b0316836001600160a01b0316857ff0aa72bb9c2a07cf43281bfe8c525ba320fdc71e18b54c9f93ab22ce074af7f684611a02612388565b604080519283526001600160a01b0390911660208301520160405180910390a49392505050565b6000611ab68a8a611a3d8d8d8d89896123a7565b611a45612388565b8b8a8a8080601f01602080910402602001604051908101604052809392919081815260200183838082843760009201919091525050604080516020601f8e018190048102820181019092528c815292508c91508b9081908401838280828437600092019190915250611c4592505050565b905085811015611ad9576040516370dc561160e11b815260040160405180910390fd5b9998505050505050505050565b6000611afe836103e8611af981866153b9565b6130f8565b6117159084614f20565b61eeed196001600160a01b03831601611b2057505050565b611b346001600160a01b03831684836131cc565b505050565b600083611b47576000611b52565b611b52878787613256565b90506001600160a01b037f0000000000000000000000000000000000000000000000000000000000000000166351fc17358888611b8f858a6153b9565b6040516001600160e01b031960e086901b16815260048101939093526001600160a01b0390911660248301526044820152606401600060405180830381600087803b158015611bdd57600080fd5b505af1158015611bf1573d6000803e3d6000fd5b50505050867f9ecaf7fc3dfffd6867c175d6e684b1f1e3aef019398ba8db2c1ffab4a09db25386838686611c23612388565b604051611c349594939291906153cc565b60405180910390a250505050505050565b6000611c4f614846565b60606000611c87604051806080016040528060006001600160a01b031681526020016000815260200160008152602001600081525090565b60008060008e815260200190815260200160002060008d6001600160a01b03166001600160a01b031681526020019081526020016000206040518060600160405290816000820160009054906101000a90046001600160a01b03166001600160a01b03166001600160a01b031681526020016000820160149054906101000a900460ff1660ff1660ff1681526020016000820160159054906101000a900463ffffffff1663ffffffff1663ffffffff1681525050905060405180608001604052808d6001600160a01b031681526020018c8152602001826020015160ff168152602001826040015163ffffffff168152509150507f00000000000000000000000000000000000000000000000000000000000000006001600160a01b0316639e6840c18a838f8c8b6040518663ffffffff1660e01b8152600401611dcf959493929190615444565b6000604051808303816000875af1158015611dee573d6000803e3d6000fd5b505050506040513d6000823e601f3d908101601f19168201604052611e169190810190615597565b91955090935091508115611f4157604051632eec7b5560e11b8152600481018d90527f00000000000000000000000000000000000000000000000000000000000000006001600160a01b031690635dd8f6aa90602401602060405180830381865afa158015611e89573d6000803e3d6000fd5b505050506040513d601f19601f82011682018060405250810190611ead9190615118565b6040516363fdc96f60e11b8152600481018e9052602481018490526001600160a01b038a8116604483015260a06064830152600060a483015260016084830152919091169063c7fb92de9060c4016020604051808303816000875af1158015611f1a573d6000803e3d6000fd5b505050506040513d601f19601f82011682018060405250810190611f3e919061523c565b94505b825115611f5857611f588c84838c888d8b8d613566565b8b846000015185602001517f133161f1c9161488f777ab9a26aae91d47c0d9a3fafb398960f138db02c737978c8c8f8b8e8e611f92612388565b604051611fa597969594939291906156bb565b60405180910390a450505050979650505050505050565b61eeed196001600160a01b03831601611fde57611fd9838261378c565b612146565b306001600160a01b0385160361200257611fd96001600160a01b03831684836137fc565b604051636eb1769f60e11b81526001600160a01b03858116600483015230602483015282919084169063dd62ed3e90604401602060405180830381865afa158015612051573d6000803e3d6000fd5b505050506040513d601f19601f82011682018060405250810190612075919061523c565b1061208f57611fd96001600160a01b03831685858461385b565b6001600160a01b038111156120b757604051633062f38960e11b815260040160405180910390fd5b604051631b63c28b60e11b81526001600160a01b0385811660048301528481166024830152828116604483015283811660648301527f000000000000000000000000000000000000000000000000000000000000000016906336c7851690608401600060405180830381600087803b15801561213257600080fd5b505af1158015611118573d6000803e3d6000fd5b50505050565b60008381526002602090815260408083206001600160a01b0386168452825280832080548251818502810185019093528083529192909190849084015b828210156121de5760008481526020908190206040805160608101825260038602909201805483526001808201546001600160a01b031684860152600290910154918301919091529083529092019101612189565b50505060008681526002602090815260408083206001600160a01b0389168452909152812092935061221192915061489b565b8051604080516060810182526000808252602082018190528183018190529151630862026560e41b8152600160048201526001600160a01b0387811660248301529192917f00000000000000000000000000000000000000000000000000000000000000001690638620265090604401602060405180830381865afa15801561229e573d6000803e3d6000fd5b505050506040513d601f19601f820116820180604052508101906122c29190615118565b905060005b83811015611118578481815181106122e1576122e1615255565b60200260200101519250851580156122fc5750428360400151115b156123695760008881526002602081815260408084206001600160a01b038c811686529083528185208054600180820183559187529584902089516003909702019586559288015192850180546001600160a01b0319169390911692909217909155850151910155612380565b612380888885600001518660200151866001613894565b6001016122c7565b6000612392613a7f565b905090565b8061214657612146848484612642565b6000858152602081815260408083206001600160a01b0388811685529252822054166123e657604051630faa917b60e11b815260040160405180910390fd5b61eeed196001600160a01b03861601612400575034610f19565b341561241f57604051635e7e9adf60e11b815260040160405180910390fd5b30612428612388565b6001600160a01b03160361243d575082610f19565b6000612467604051806040016040528060078152602001663832b936b4ba1960c91b815250613af4565b90506000806124ac8387878080601f016020809104026020016040519081016040528093929190818152602001838380828437600092019190915250613b0892505050565b915091508115612600576000818060200190518101906124cc9190615731565b90508781602001516001600160a01b031610156124fc576040516317e415a160e11b815260040160405180910390fd5b7f00000000000000000000000000000000000000000000000000000000000000006001600160a01b0316632b67b570612533612388565b604051806060016040528060405180608001604052808f6001600160a01b0316815260200187602001516001600160a01b03168152602001876040015165ffffffffffff168152602001876060015165ffffffffffff168152508152602001306001600160a01b03168152602001856000015181525084608001516040518463ffffffff1660e01b81526004016125cc939291906157dc565b600060405180830381600087803b1580156125e657600080fd5b505af11580156125fa573d6000803e3d6000fd5b50505050505b600061260b89613cae565b9050612620612618612388565b308b8b611fbc565b8061262a8a613cae565b6126349190614f20565b9a9950505050505050505050565b600061264c612388565b9050836001600160a01b0316816001600160a01b03161415801561270d575060405163c161c93f60e01b81526001600160a01b038281166004830152858116602483015260448201859052606482018490527f0000000000000000000000000000000000000000000000000000000000000000169063c161c93f90608401602060405180830381865afa1580156126e7573d6000803e3d6000fd5b505050506040513d601f19601f8201168201806040525081019061270b9190614eed565b155b80156127b6575060405163c161c93f60e01b81526001600160a01b038281166004830152858116602483015260006044830152606482018490527f0000000000000000000000000000000000000000000000000000000000000000169063c161c93f90608401602060405180830381865afa158015612790573d6000803e3d6000fd5b505050506040513d601f19601f820116820180604052508101906127b49190614eed565b155b156121465760405163075fd2b160e01b815260040160405180910390fd5b60006127de614846565b6000888152602081815260408083206001600160a01b038b81168552925291829020915163060f2bdf60e31b81527f0000000000000000000000000000000000000000000000000000000000000000909116916330795ef891612849918c918b908b90600401615850565b610140604051808303816000875af1158015612869573d6000803e3d6000fd5b505050506040513d601f19601f8201168201806040525081019061288d9190615876565b9250905060006001600160a01b037f00000000000000000000000000000000000000000000000000000000000000001663ae74a1b56128ca612388565b6040516001600160e01b031960e084901b1681526001600160a01b039091166004820152602401602060405180830381865afa15801561290e573d6000803e3d6000fd5b505050506040513d601f19601f820116820180604052508101906129329190614eed565b6129e4576129df8989857f00000000000000000000000000000000000000000000000000000000000000006001600160a01b0316636352211e8e6040518263ffffffff1660e01b815260040161298a91815260200190565b602060405180830381865afa1580156129a7573d6000803e3d6000fd5b505050506040513d601f19601f820116820180604052508101906129cb9190615118565b610100870151604b1c600190811614613d36565b6129e7565b60005b6129f19084614f20565b90508015612a0557612a0530868a84611fbc565b88826000015183602001517f8657a0c05a68a912c23c1bd00124afaa8c669063b046bd9bfd22b21d573c5e6d888b88878b612a3e612388565b604051612a50969594939291906158a5565b60405180910390a450509695505050505050565b6000612a6e614846565b6000878152602081815260408083206001600160a01b038a8116855290835281842082516060808201855291549283168152600160a01b830460ff1681860152600160a81b90920463ffffffff16828401528b855260018452828520805484518187028101870190955280855291959492938593909290849084015b82821015612b4457600084815260209081902060408051606081018252918501546001600160a01b0381168352600160a01b810460ff1683850152600160a81b900463ffffffff1690820152825260019092019101612aea565b5050604051630d346b8160e01b8152929350506001600160a01b037f00000000000000000000000000000000000000000000000000000000000000001691630d346b819150612ba1908f908f908e90889088908f906004016158ef565b6000604051808303816000875af1158015612bc0573d6000803e3d6000fd5b505050506040513d6000823e601f3d908101601f19168201604052612be89190810190615941565b91985091965094509250508715612cfc57604051632eec7b5560e11b8152600481018b90527f00000000000000000000000000000000000000000000000000000000000000006001600160a01b031690635dd8f6aa90602401602060405180830381865afa158015612c5e573d6000803e3d6000fd5b505050506040513d601f19601f82011682018060405250810190612c829190615118565b60405163516a997360e11b81526001600160a01b038d81166004830152602482018d9052604482018b90526080606483015260006084830152919091169063a2d532e69060a401600060405180830381600087803b158015612ce357600080fd5b505af1158015612cf7573d6000803e3d6000fd5b505050505b60008515612dd85760405163ae74a1b560e01b81526001600160a01b0389811660048301527f0000000000000000000000000000000000000000000000000000000000000000169063ae74a1b590602401602060405180830381865afa158015612d6a573d6000803e3d6000fd5b505050506040513d601f19601f82011682018060405250810190612d8e9190614eed565b158015612d9d57506127108314155b15612dc657612dac86826153b9565b9050612db9866019611ae6565b612dc39087614f20565b95505b8515612dd857612dd830898c89611fbc565b835115612e3757612e2a8b60405180608001604052808d6001600160a01b03168152602001898152602001856020015160ff168152602001856040015163ffffffff168152508e8c8b8a898f8c613eea565b612e3490826153b9565b90505b80600003612e46576000612e54565b612e548b8b838b6000613d36565b508a856000015186602001517f9565fc8bdd4f45a73582d1163dbe522a4fb0c4dbb882b5e66269f70101a2509a8f8c8e898d8f612e8f612388565b604051612ea29796959493929190615a6d565b60405180910390a450505050509695505050505050565b6000612ec3614846565b6000868152602081815260408083206001600160a01b038981168552925291829020915163181241e760e31b81527f00000000000000000000000000000000000000000000000000000000000000009091169163c0920f3891612f2e918a9189908990600401615850565b610140604051808303816000875af1158015612f4e573d6000803e3d6000fd5b505050506040513d601f19601f82011682018060405250810190612f729190615876565b6040516331a9108f60e11b8152600481018990529093509091506000907f00000000000000000000000000000000000000000000000000000000000000006001600160a01b031690636352211e90602401602060405180830381865afa158015612fe0573d6000803e3d6000fd5b505050506040513d601f19601f820116820180604052508101906130049190615118565b905060008061301989898660200151886141ff565b909250905060006130458a8a61302f86866153b9565b6101008901518890604b1c600190811614613d36565b9050600083156130725761305a846019611ae6565b6130649085614f20565b905061307230868c84611fbc565b8a866000015187602001517fda42c5c18ef97738d10c32811895add569670a6fcbe9627ea198d446f3be6dea888d8c88886130ab612388565b604080516001600160a01b03978816815260208101969096528501939093526060840191909152608083015290911660a082015260c00160405180910390a4505050505050949350505050565b60008080600019858709858702925082811083820303915050806000036131325783828161312857613128615ac0565b0492505050611715565b83811061316357604051630c740aef60e31b815260048101879052602481018690526044810185905260640161099b565b60008486880960026001871981018816978890046003810283188082028403028082028403028082028403028082028403028082028403029081029092039091026000889003889004909101858311909403939093029303949094049190911702949350505050565b604051636eb1769f60e11b81523060048201526001600160a01b0383811660248301526000919085169063dd62ed3e90604401602060405180830381865afa15801561321c573d6000803e3d6000fd5b505050506040513d601f19601f82011682018060405250810190613240919061523c565b9050612146848461325185856153b9565b6143cb565b60008381526002602090815260408083206001600160a01b0386168452825280832080548251818502810185019093528083528493849084015b828210156132e55760008481526020908190206040805160608101825260038602909201805483526001808201546001600160a01b031684860152600290910154918301919091529083529092019101613290565b50505060008781526002602090815260408083206001600160a01b038a168452909152812092935061331892915061489b565b8051604080516060810182526000808252602082018190529181018290528592915b828110156134fc5784818151811061335457613354615255565b60200260200101519150836000036133ce5760008981526002602081815260408084206001600160a01b038d811686529083528185208054600180820183559187529584902088516003909702019586559287015192850180546001600160a01b03191693909116929092179091558401519101556134f4565b60006133df83600001516019611ae6565b905060008184600001516133f39190614f20565b905080861061340a579681019694859003946134f1565b61341586601961445b565b9150600260008c815260200190815260200160002060008b6001600160a01b03166001600160a01b031681526020019081526020016000206040518060600160405280888403815260200186602001516001600160a01b03168152602001866040015181525090806001815401808255809150506001900390600052602060002090600302016000909190919091506000820151816000015560208201518160010160006101000a8154816001600160a01b0302191690836001600160a01b031602179055506040820151816002015550508188019750600095505b50505b60010161333a565b5085876001600160a01b0316897fedc5125503c021a73fd7d8ed0c2456b296be2c88f39fbed068bd091cef7ca43d8887613534612388565b6040805193845260208401929092526001600160a01b03169082015260600160405180910390a4505050509392505050565b6000604051806101400160405280876001600160a01b031681526020018a8152602001866020015181526020018881526020018881526020018660a001518152602001848152602001856001600160a01b0316815260200160405180602001604052806000815250815260200183815250905060008851905061360c604051806060016040528060006001600160a01b0316815260200160008152602001606081525090565b60005b8281101561377e578a818151811061362957613629615255565b6020026020010151915060405180608001604052808b600001516001600160a01b03168152602001836020015181526020018b6040015181526020018b606001518152508460800181905250816040015184610100018190525061369a82600001518b600001518460200151611b08565b89516000906001600160a01b031661eeee146136b75760006136bd565b82602001515b835160405163f3c5788160e01b81529192506001600160a01b03169063f3c578819083906136ef908990600401615b82565b6000604051808303818588803b15801561370857600080fd5b505af115801561371c573d6000803e3d6000fd5b505050505082600001516001600160a01b03167f092bf36eb737817b64e5cea9e9b69305c423a987b5c3066516b046cad5c0bc3686856020015161375e612388565b60405161376d93929190615b95565b60405180910390a25060010161360f565b505050505050505050505050565b804710156137af5760405163cd78605960e01b815230600482015260240161099b565b6000826001600160a01b03168260405160006040518083038185875af1925050503d806000811461111b576040519150601f19603f3d011682016040523d82523d6000602084013e61111b565b6040516001600160a01b03838116602483015260448201839052611b3491859182169063a9059cbb906064015b604051602081830303815290604052915060e01b6020820180516001600160e01b03838183161783525050505061446a565b6040516001600160a01b0384811660248301528381166044830152606482018390526121469186918216906323b872dd90608401613829565b604051632fc8972b60e11b8152600481018790526001600160a01b038087166024830152604482018690528085166064830152831660848201523090635f912e569060a401600060405180830381600087803b1580156138f357600080fd5b505af1925050508015613904575060015b613a16573d808015613932576040519150601f19603f3d011682016040523d82523d6000602084013e613937565b606091505b506040516351fc173560e01b8152600481018890526001600160a01b038781166024830152604482018790527f000000000000000000000000000000000000000000000000000000000000000016906351fc173590606401600060405180830381600087803b1580156139a957600080fd5b505af11580156139bd573d6000803e3d6000fd5b505050506001866001600160a01b0316887f4b73f3c5cfb174c9d0494138d07ff8ee3aa400df46327d9893ed5ac122dd558a88856139f9612388565b604051613a0893929190615bc8565b60405180910390a45061111b565b83856001600160a01b0316877fb514e730b3f8ad3aa94b6857bcc5ff4a46954bdcf8c4b0346705b1d0ac7a43258487613a4d612388565b6040805193151584526001600160a01b03928316602085015291169082015260600160405180910390a4505050505050565b6000366014336001600160a01b037f000000000000000000000000000000000000000000000000000000000000000016148015613abc5750808210155b15613aec57600036613ace8385614f20565b613ad9928290615bf9565b613ae291615c23565b60601c9250505090565b339250505090565b805160208201206000903060601b186106e9565b600060606025835111613b2d5750506040805160208101909152600080825290613ca7565b600083613b3c600460206153b9565b81518110613b4c57613b4c615255565b0160209081015160f81c91505b600085613b676004846153b9565b81518110613b7757613b77615255565b01602001516001600160f81b03191614801590613b9d5750613b9a602083615c58565b81105b15613ca457600085613bb06004846153b9565b81518110613bc057613bc0615255565b016020908101518784019091015160f89190911c91506001600160e01b031980891690821603613c9a576000613bf7602086615c58565b613c026009866153b9565b101580613c37575087613c166009866153b9565b81518110613c2657613c26615255565b01602001516001600160f81b031916155b613c7057602088613c496009876153b9565b81518110613c5957613c59615255565b0160200151613c6b919060f81c615c58565b613c73565b87515b90506001613c8c89613c86602087615c58565b846144cd565b965096505050505050613ca7565b5050600501613b59565b50505b9250929050565b60006001600160a01b03821661eeee14613d2f576040516370a0823160e01b81523060048201526001600160a01b038316906370a0823190602401602060405180830381865afa158015613d06573d6000803e3d6000fd5b505050506040513d601f19601f82011682018060405250810190613d2a919061523c565b6106e9565b4792915050565b6000613d43846019611ae6565b90508115613e435760008681526002602090815260408083206001600160a01b03808a168552908352928190208151606081018352888152938716928401929092529091908101613d976224ea00426153b9565b9052815460018082018455600093845260209384902083516003909302019182559282015192810180546001600160a01b0319166001600160a01b0394851617905560409091015160029091015584908616877fef9cd8fc3b61b64b44042ada0a8a3ede1649bc1b112673da228120f13bf1381e601987613e16612388565b604080519384526001600160a01b03928316602085015291169082015260600160405180910390a4610f19565b604051630862026560e41b8152600160048201526001600160a01b0386811660248301526000917f000000000000000000000000000000000000000000000000000000000000000090911690638620265090604401602060405180830381865afa158015613eb5573d6000803e3d6000fd5b505050506040513d601f19601f82011682018060405250810190613ed99190615118565b9050610f1787878487856000613894565b6000806040518061014001604052808a6001600160a01b031681526020018c8152602001876020015181526020018981526020018b81526020018b8152602001868152602001856001600160a01b03168152602001604051806020016040528060008152508152602001888152509050600083519050613f8d604051806060016040528060006001600160a01b0316815260200160008152602001606081525090565b60005b828110156141ee57858181518110613faa57613faa615255565b6020026020010151915060007f00000000000000000000000000000000000000000000000000000000000000006001600160a01b031663ae74a1b584600001516040518263ffffffff1660e01b815260040161401591906001600160a01b0391909116815260200190565b602060405180830381865afa158015614032573d6000803e3d6000fd5b505050506040513d601f19601f820116820180604052508101906140569190614eed565b61406e5761406983602001516019611ae6565b614071565b60005b905080156140a057602083015161408890876153b9565b9550808360200181815161409c9190614f20565b9052505b60405180608001604052808f600001516001600160a01b03168152602001846020015181526020018f6040015181526020018f606001518152508560a00181905250826040015185610100018190525061410783600001518f600001518560200151611b08565b8d516000906001600160a01b031661eeee1461412457600061412a565b83602001515b84516040516319bb132d60e21b81529192506001600160a01b0316906366ec4cb490839061415c908a90600401615cfe565b6000604051808303818588803b15801561417557600080fd5b505af1158015614189573d6000803e3d6000fd5b505050505083600001516001600160a01b03167f5d2ae7ac07b3a26000acaa692b550c84cbb87300557e0359791cfec9efe1615a878660200151856141cc612388565b6040516141dc9493929190615d11565b60405180910390a25050600101613f90565b505050509998505050505050505050565b6040516369e11cc560e01b815260048101859052602481018390526001600160a01b0384811660448301526000918291633b9aca009183917f000000000000000000000000000000000000000000000000000000000000000016906369e11cc590606401600060405180830381865afa158015614280573d6000803e3d6000fd5b505050506040513d6000823e601f3d908101601f191682016040526142a89190810190615d49565b80516040805160c081018252600080825260208201819052918101829052606081018290526080810182905260a08101919091529192509060005b828110156143ba578381815181106142fd576142fd615255565b602002602001015191506000614318898460200151886130f8565b90506000614328848e8e85614513565b905080158015906143395750818114155b1561434b5761434882896153b9565b97505b811561435757818a0399505b8360200151870396508b6001600160a01b03168b8e7f39305f11865947ab83bc6548c8c77e5890ed5bc4a6ea54e6fe7b22f4f406f4b8878686614398612388565b6040516143a89493929190615e3f565b60405180910390a450506001016142e3565b508695505050505094509492505050565b604080516001600160a01b038416602482015260448082018490528251808303909101815260649091019091526020810180516001600160e01b031663095ea7b360e01b17905261441c8482614699565b612146576040516001600160a01b0384811660248301526000604483015261445191869182169063095ea7b390606401613829565b612146848261446a565b600061171583836103e86130f8565b600061447f6001600160a01b0384168361473c565b905080516000141580156144a45750808060200190518101906144a29190614eed565b155b15611b3457604051635274afe760e01b81526001600160a01b038416600482015260240161099b565b60608282036040519150602081830101604052808252508260208501016020820160005b848110156145095782810151828201526020016144f1565b5050509392505050565b6000306343a89aaf86868686614527612388565b6040518663ffffffff1660e01b8152600401614547959493929190615e73565b6020604051808303816000875af1925050508015614582575060408051601f3d908101601f1916820190925261457f9181019061523c565b60015b61468e573d8080156145b0576040519150601f19603f3d011682016040523d82523d6000602084013e6145b5565b606091505b506040516351fc173560e01b8152600481018690526001600160a01b038581166024830152604482018590527f000000000000000000000000000000000000000000000000000000000000000016906351fc173590606401600060405180830381600087803b15801561462757600080fd5b505af115801561463b573d6000803e3d6000fd5b50505050847f37b65da09d1a43465d8f823dcc858aa187792b35585b56afe707d57d7108d22887858461466c612388565b60405161467c9493929190615eb2565b60405180910390a26000915050614691565b90505b949350505050565b6000806000846001600160a01b0316846040516146b69190615ef4565b6000604051808303816000865af19150503d80600081146146f3576040519150601f19603f3d011682016040523d82523d6000602084013e6146f8565b606091505b50915091508180156147225750805115806147225750808060200190518101906147229190614eed565b8015610f195750505050506001600160a01b03163b151590565b60606117158383600084600080856001600160a01b031684866040516147629190615ef4565b60006040518083038185875af1925050503d806000811461479f576040519150601f19603f3d011682016040523d82523d6000602084013e6147a4565b606091505b50915091506147b48683836147be565b9695505050505050565b6060826147d3576147ce8261481a565b611715565b81511580156147ea57506001600160a01b0384163b155b1561481357604051639996b31560e01b81526001600160a01b038516600482015260240161099b565b5080611715565b80511561482a5780518082602001fd5b604051630a12f52160e11b815260040160405180910390fd5b50565b6040518061012001604052806000815260200160008152602001600081526020016000815260200160008152602001600081526020016000815260200160006001600160a01b03168152602001600081525090565b508054600082556003029060005260206000209081019061484391905b808211156148e45760008082556001820180546001600160a01b031916905560028201556003016148b8565b5090565b6000602082840312156148fa57600080fd5b81356001600160e01b03198116811461171557600080fd5b6001600160a01b038116811461484357600080fd5b6000806040838503121561493a57600080fd5b82359150602083013561494c81614912565b809150509250929050565b602080825282518282018190526000919060409081850190868401855b828110156149ac57815180518552868101516001600160a01b0316878601528501518585015260609093019290850190600101614974565b5091979650505050505050565b80516001600160a01b0316825260208082015160ff169083015260409081015163ffffffff16910152565b606081016106e982846149b9565b6000806000806000858703610140811215614a0c57600080fd5b60c0811215614a1a57600080fd5b5085945060c0860135935060e0860135614a3381614912565b92506101008601359150610120860135614a4c81614912565b809150509295509295909350565b600060208284031215614a6c57600080fd5b5035919050565b60008151808452602080850194506020840160005b83811015614aae57614a9b8783516149b9565b6060969096019590820190600101614a88565b509495945050505050565b6020815260006117156020830184614a73565b600060208284031215614ade57600080fd5b813561171581614912565b600080600080600060a08688031215614b0157600080fd5b853594506020860135614b1381614912565b9350604086013592506060860135614b2a81614912565b91506080860135614a4c81614912565b600080600060408486031215614b4f57600080fd5b8335925060208401356001600160401b0380821115614b6d57600080fd5b818601915086601f830112614b8157600080fd5b813581811115614b9057600080fd5b8760208260051b8501011115614ba557600080fd5b6020830194508093505050509250925092565b801515811461484357600080fd5b60008083601f840112614bd857600080fd5b5081356001600160401b03811115614bef57600080fd5b602083019150836020828501011115613ca757600080fd5b60008060008060008060008060c0898b031215614c2357600080fd5b883597506020890135614c3581614912565b9650604089013595506060890135614c4c81614bb8565b945060808901356001600160401b0380821115614c6857600080fd5b614c748c838d01614bc6565b909650945060a08b0135915080821115614c8d57600080fd5b50614c9a8b828c01614bc6565b999c989b5096995094979396929594505050565b60008060008060008060008060e0898b031215614cca57600080fd5b883597506020890135614cdc81614912565b965060408901359550606089013594506080890135935060a0890135614d0181614912565b925060c08901356001600160401b03811115614d1c57600080fd5b614c9a8b828c01614bc6565b60008060008060008060008060e0898b031215614d4457600080fd5b8835614d4f81614912565b9750602089013596506040890135614d6681614912565b9550606089013594506080890135935060a0890135614d0181614912565b600080600060608486031215614d9957600080fd5b505081359360208301359350604090920135919050565b600080600080600060a08688031215614dc857600080fd5b853594506020860135614dda81614912565b94979496505050506040830135926060810135926080909101359150565b600080600060608486031215614e0d57600080fd5b833592506020840135614e1f81614912565b91506040840135614e2f81614912565b809150509250925092565b600080600080600080600080600060e08a8c031215614e5857600080fd5b8935985060208a0135614e6a81614912565b975060408a0135965060608a0135614e8181614912565b955060808a0135945060a08a01356001600160401b0380821115614ea457600080fd5b614eb08d838e01614bc6565b909650945060c08c0135915080821115614ec957600080fd5b50614ed68c828d01614bc6565b915080935050809150509295985092959850929598565b600060208284031215614eff57600080fd5b815161171581614bb8565b634e487b7160e01b600052601160045260246000fd5b818103818111156106e9576106e9614f0a565b634e487b7160e01b600052604160045260246000fd5b60405160c081016001600160401b0381118282101715614f6b57614f6b614f33565b60405290565b604051606081016001600160401b0381118282101715614f6b57614f6b614f33565b60405161012081016001600160401b0381118282101715614f6b57614f6b614f33565b60405160a081016001600160401b0381118282101715614f6b57614f6b614f33565b604051601f8201601f191681016001600160401b038111828210171561500057615000614f33565b604052919050565b600060c0828403121561501a57600080fd5b615022614f49565b823561502d81614bb8565b808252506020830135602082015260408301356040820152606083013561505381614912565b60608201526080838101359082015260a083013561507081614912565b60a08201529392505050565b80511515825260208082015190830152604080820151908301526060808201516001600160a01b03908116918401919091526080808301519084015260a09182015116910152565b81516001600160a01b031681526020808301519082015260408083015190820152606080830151908201526080808301519082015260a0828101516101608301916151119084018261507c565b5092915050565b60006020828403121561512a57600080fd5b815161171581614912565b60006020828403121561514757600080fd5b813561171581614bb8565b60005b8381101561516d578181015183820152602001615155565b50506000910152565b6000815180845261518e816020860160208601615152565b601f01601f19169290920160200192915050565b85815260018060a01b0385166020820152836040820152821515606082015260c06080820152600060c082015260e060a082015260006151e560e0830184615176565b979650505050505050565b868152600060018060a01b03808816602084015286604084015280861660608401525083608083015260e060a0830152600060e08301526101008060c0840152611ad981840185615176565b60006020828403121561524e57600080fd5b5051919050565b634e487b7160e01b600052603260045260246000fd5b805160ff8116811461527c57600080fd5b919050565b60006020828403121561529357600080fd5b6117158261526b565b546001600160a01b038116825260a081901c60ff16602083015260a81c63ffffffff16604090910152565b608081016152d5828561529c565b6001600160a01b039290921660609190910152919050565b6001600160a01b0386168152602080820186905260a060408301819052855490830181905260008681529182209060c0840190835b8181101561534757615334838561529c565b6001938401936060939093019201615322565b505060608401959095525050608001529392505050565b60006060828403121561537057600080fd5b615378614f71565b825161538381614912565b81526153916020840161526b565b6020820152604083015163ffffffff811681146153ad57600080fd5b60408201529392505050565b808201808211156106e9576106e9614f0a565b85815284602082015260a0604082015260006153eb60a0830186615176565b82810360608401526153fd8186615176565b91505060018060a01b03831660808301529695505050505050565b80516001600160a01b031682526020808201519083015260408082015190830152606090810151910152565b6001600160a01b038681168252600090610100906154656020850189615418565b8660a085015280861660c0850152508060e08401526115ef81840185615176565b805161527c81614912565b600061012082840312156154a457600080fd5b6154ac614f93565b9050815181526020820151602082015260408201516040820152606082015160608201526080820151608082015260a082015160a082015260c082015160c08201526154fa60e08301615486565b60e082015261010080830151818301525092915050565b60006001600160401b0382111561552a5761552a614f33565b5060051b60200190565b600082601f83011261554557600080fd5b81516001600160401b0381111561555e5761555e614f33565b615571601f8201601f1916602001614fd8565b81815284602083860101111561558657600080fd5b614691826020830160208701615152565b600080600061016084860312156155ad57600080fd5b6155b78585615491565b925061012084015191506101408401516001600160401b03808211156155dc57600080fd5b818601915086601f8301126155f057600080fd5b8151602061560561560083615511565b614fd8565b82815260059290921b8401810191818101908a84111561562457600080fd5b8286015b848110156156aa5780518681111561563f57600080fd5b87016060818e03601f1901121561565557600080fd5b61565d614f71565b8582015161566a81614912565b81526040820151868201526060820151888111156156885760008081fd5b6156968f8883860101615534565b604083015250845250918301918301615628565b508096505050505050509250925092565b600060018060a01b03808a168352808916602084015287604084015286606084015260e060808401526156f160e0840187615176565b83810360a08501526157038187615176565b92505080841660c08401525098975050505050505050565b805165ffffffffffff8116811461527c57600080fd5b60006020828403121561574357600080fd5b81516001600160401b038082111561575a57600080fd5b9083019060a0828603121561576e57600080fd5b615776614fb6565b82518152602083015161578881614912565b60208201526157996040840161571b565b60408201526157aa6060840161571b565b60608201526080830151828111156157c157600080fd5b6157cd87828601615534565b60808301525095945050505050565b600061010060018060a01b0380871684528551818151166020860152816020820151166040860152604081015165ffffffffffff80821660608801528060608401511660808801525050508060208701511660a085015250604085015160c08401528060e08401526147b481840185615176565b84815260c08101615864602083018661529c565b608082019390935260a0015292915050565b600080610140838503121561588a57600080fd5b6158948484615491565b915061012083015190509250929050565b600060018060a01b03808916835287602084015286604084015285606084015260c060808401526158d960c0840186615176565b915080841660a084015250979650505050505050565b6001600160a01b03871681526020810186905260408101859052600061010061591b60608401876149b9565b8060c084015261592d81840186614a73565b905082810360e0840152611ad98185615176565b600080600080610180858703121561595857600080fd5b6159628686615491565b9350610120850151925061014085015191506101608501516001600160401b038082111561598f57600080fd5b818701915087601f8301126159a357600080fd5b81516159b161560082615511565b8082825260208201915060208360051b86010192508a8311156159d357600080fd5b602085015b83811015615a5d578051858111156159ef57600080fd5b86016060818e03601f19011215615a0557600080fd5b615a0d614f71565b6020820151615a1b81614912565b815260408201516020820152606082015187811115615a3957600080fd5b615a488f602083860101615534565b604083015250845250602092830192016159d8565b50979a9699509497505050505050565b600060018060a01b03808a168352808916602084015287604084015286606084015285608084015260e060a0840152615aa960e0840186615176565b915080841660c08401525098975050505050505050565b634e487b7160e01b600052601260045260246000fd5b80516001600160a01b03168252600061020060208301516020850152604083015160408501526060830151615b0e6060860182615418565b506080830151615b2160e0860182615418565b5060a083015161016085015260c083015161018085015260e08301516001600160a01b03166101a08501526101008301516101c08501829052615b6682860182615176565b9150506101208301518482036101e0860152610f198282615176565b6020815260006117156020830184615ad6565b606081526000615ba86060830186615ad6565b6020830194909452506001600160a01b0391909116604090910152919050565b838152606060208201526000615be16060830185615176565b905060018060a01b0383166040830152949350505050565b60008085851115615c0957600080fd5b83861115615c1657600080fd5b5050820193919092039150565b6bffffffffffffffffffffffff198135818116916014851015615c505780818660140360031b1b83161692505b505092915050565b80820281158282048414176106e9576106e9614f0a565b80516001600160a01b0316825260006102006020830151602085015260408301516040850152606083015160608501526080830151615cb16080860182615418565b5060a0830151610100615cc681870183615418565b60c085015161018087015260e08501516001600160a01b03166101a08701528401516101c086018390529050615b6682860182615176565b6020815260006117156020830184615c6f565b608081526000615d246080830187615c6f565b60208301959095525060408101929092526001600160a01b0316606090910152919050565b60006020808385031215615d5c57600080fd5b82516001600160401b03811115615d7257600080fd5b8301601f81018513615d8357600080fd5b8051615d9161560082615511565b81815260c09182028301840191848201919088841115615db057600080fd5b938501935b83851015615e335780858a031215615dcd5760008081fd5b615dd5614f49565b8551615de081614bb8565b8152858701518782015260408087015190820152606080870151615e0381614912565b908201526080868101519082015260a080870151615e2081614912565b9082015283529384019391850191615db5565b50979650505050505050565b6101208101615e4e828761507c565b60c082019490945260e08101929092526001600160a01b031661010090910152919050565b6101408101615e82828861507c565b60c08201959095526001600160a01b0393841660e082015261010081019290925290911661012090910152919050565b6000610120615ec1838861507c565b8560c08401528060e0840152615ed981840186615176565b91505060018060a01b03831661010083015295945050505050565b60008251615f06818460208701615152565b919091019291505056fea26469706673582212204f8cdb26bba6053ac1d5d324368a9c802d4d3b8382eccab39f19cd038616d91064736f6c63430008170033",
			"deployedBytecode": "0x6080604052600436106101665760003560e01c80636afdd850116100d1578063bb7214fe1161008a578063cfaf583911610064578063cfaf583914610574578063e28b541114610594578063f434c914146105b4578063fef43257146105e857600080fd5b8063bb7214fe1461051f578063c57981b51461053f578063cc6801271461055457600080fd5b80636afdd850146104315780637da0a8771461046557806388bc2ef31461049857806398ea47fc146104cc5780639e6eec05146104ec578063b62d17cf146104ff57600080fd5b8063507f146511610123578063507f14651461030d578063515a929314610341578063572b6c051461036e5780635f912e56146103bb57806362ef3036146103dd578063659a2047146103fd57600080fd5b806301ffc9a71461016b5780631f47ce69146101a0578063293c4999146101ec57806333b30610146102205780633a01714f1461024d57806343a89aaf146102df575b600080fd5b34801561017757600080fd5b5061018b6101863660046148e8565b6105fb565b60405190151581526020015b60405180910390f35b3480156101ac57600080fd5b506101d47f000000000000000000000000f271e7329ed20b9b61bd5a13593e1f5bb609864481565b6040516001600160a01b039091168152602001610197565b3480156101f857600080fd5b506101d47f000000000000000000000000f9dada4628eb3992202cf253625d4ecebbc1592f81565b34801561022c57600080fd5b5061024061023b366004614927565b6106ef565b6040516101979190614957565b34801561025957600080fd5b506102d2610268366004614927565b6040805160608082018352600080835260208084018290529284018190529485528482528285206001600160a01b03948516865282529382902082519485018352549283168452600160a01b830460ff1690840152600160a81b90910463ffffffff169082015290565b60405161019791906149e4565b3480156102eb57600080fd5b506102ff6102fa3660046149f2565b61078f565b604051908152602001610197565b34801561031957600080fd5b506101d47f00000000000000000000000007ce005f3baf3cc2e9cdb1eb21f6ef911222308581565b34801561034d57600080fd5b5061036161035c366004614a5a565b610f22565b6040516101979190614ab9565b34801561037a57600080fd5b5061018b610389366004614acc565b7f000000000000000000000000b2b5841dbef766d4b521221732f9b618fcf34a876001600160a01b0390811691161490565b3480156103c757600080fd5b506103db6103d6366004614ae9565b610fbc565b005b3480156103e957600080fd5b506103db6103f8366004614927565b611123565b34801561040957600080fd5b506101d47f0000000000000000000000006c8352f6cc457021cd537c2a6d0d4e7f1ed29e1e81565b34801561043d57600080fd5b506101d47f000000000000000000000000000000000022d473030f116ddee9f6b43ac78ba381565b34801561047157600080fd5b507f000000000000000000000000b2b5841dbef766d4b521221732f9b618fcf34a876101d4565b3480156104a457600080fd5b506101d47f000000000000000000000000cd8c4da77dfb15c05486d3f71ee4c2c0dfdbc94e81565b3480156104d857600080fd5b506103db6104e7366004614b3a565b611133565b6103db6104fa366004614c07565b61146d565b34801561050b57600080fd5b506102ff61051a366004614cae565b6114f0565b34801561052b57600080fd5b506102ff61053a366004614d28565b6115fb565b34801561054b57600080fd5b506102ff601981565b34801561056057600080fd5b506102ff61056f366004614d84565b611670565b34801561058057600080fd5b506102ff61058f366004614db0565b61171c565b3480156105a057600080fd5b506102ff6105af366004614df8565b61174d565b3480156105c057600080fd5b506101d47f0000000000000000000000001e2e8562b635fe19978640c784e47865a83d660581565b6102ff6105f6366004614e3a565b611a29565b60006001600160e01b0319821663775c5eb360e11b148061062c57506001600160e01b03198216633d0d324560e21b145b8061064757506001600160e01b03198216632f720bd160e21b145b8061066257506001600160e01b03198216635db90a7f60e11b145b8061067d57506001600160e01b03198216633a2ad55960e01b145b8061069857506001600160e01b031982166306afdd8560e41b145b806106b357506001600160e01b0319821663775c5eb360e11b145b806106ce57506001600160e01b031982166357175cc160e11b145b806106e957506001600160e01b031982166301ffc9a760e01b145b92915050565b60008281526002602090815260408083206001600160a01b03851684528252808320805482518185028101850190935280835260609492939192909184015b828210156107835760008481526020908190206040805160608101825260038602909201805483526001808201546001600160a01b03168486015260029091015491830191909152908352909201910161072e565b50505050905092915050565b600033301461079d57600080fd5b508160006107b160c0880160a08901614acc565b6001600160a01b031614610a52576001600160a01b037f0000000000000000000000006c8352f6cc457021cd537c2a6d0d4e7f1ed29e1e1663ae74a1b56107fe60c0890160a08a01614acc565b6040516001600160e01b031960e084901b1681526001600160a01b039091166004820152602401602060405180830381865afa158015610842573d6000803e3d6000fd5b505050506040513d601f19601f820116820180604052508101906108669190614eed565b61088257610875836019611ae6565b61087f9082614f20565b90505b6040805160c0810182526001600160a01b0386168082526020808301859052600089815280825284812083825290915283812054600160a01b900460ff169383019390935260608201889052608082015260a081016108e6368a90038a018a615008565b905290506108fa60c0880160a08901614acc565b6040516301ffc9a760e01b81526312903a8560e01b60048201526001600160a01b0391909116906301ffc9a790602401602060405180830381865afa158015610947573d6000803e3d6000fd5b505050506040513d601f19601f8201168201806040525081019061096b9190614eed565b6109a45760405162461bcd60e51b81526020600482015260056024820152643430305f3160d81b60448201526064015b60405180910390fd5b6109be6109b760c0890160a08a01614acc565b8684611b08565b60006001600160a01b03861661eeee146109d95760006109db565b825b90506109ed60c0890160a08a01614acc565b6001600160a01b03166312903a8582846040518363ffffffff1660e01b8152600401610a1991906150c4565b6000604051808303818588803b158015610a3257600080fd5b505af1158015610a46573d6000803e3d6000fd5b50505050505050610f19565b604086013515610e295760408051630862026560e41b81529087013560048201526001600160a01b0385811660248301526000917f000000000000000000000000cd8c4da77dfb15c05486d3f71ee4c2c0dfdbc94e90911690638620265090604401602060405180830381865afa158015610ad1573d6000803e3d6000fd5b505050506040513d601f19601f82011682018060405250810190610af59190615118565b90506001600160a01b038116610b355760405162461bcd60e51b81526020600482015260056024820152641a181a2f9960d91b604482015260640161099b565b6001600160a01b0381163014801590610bd5575060405163ae74a1b560e01b81526001600160a01b0382811660048301527f0000000000000000000000006c8352f6cc457021cd537c2a6d0d4e7f1ed29e1e169063ae74a1b590602401602060405180830381865afa158015610baf573d6000803e3d6000fd5b505050506040513d601f19601f82011682018060405250810190610bd39190614eed565b155b15610bf257610be5846019611ae6565b610bef9083614f20565b91505b6001600160a01b0381163014610c0d57610c0d818684611b08565b600086604051602001610c2291815260200190565b60408051601f198184030181529190529050610c416020890189615135565b15610d0e57306001600160a01b03831603610c7d57610c788860400135878560006040518060200160405280600081525086611b39565b610e22565b60006001600160a01b03871661eeee14610c98576000610c9a565b835b9050826001600160a01b0316639e6eec05828b604001358a886000886040518763ffffffff1660e01b8152600401610cd69594939291906151a2565b6000604051808303818588803b158015610cef57600080fd5b505af1158015610d03573d6000803e3d6000fd5b505050505050610e22565b600080610d2160808b0160608c01614acc565b6001600160a01b031603610d355784610d45565b610d4560808a0160608b01614acc565b9050306001600160a01b03841603610d7f57610d798960400135888630856040518060200160405280600081525088611c45565b50610e20565b60006001600160a01b03881661eeee14610d9a576000610d9c565b845b9050836001600160a01b031663fef43257828c604001358b898760008a6040518863ffffffff1660e01b8152600401610dda969594939291906151f0565b60206040518083038185885af1158015610df8573d6000803e3d6000fd5b50505050506040513d601f19601f82011682018060405250810190610e1d919061523c565b50505b505b5050610f19565b600080610e3c6080890160608a01614acc565b6001600160a01b031603610e505782610e60565b610e606080880160608901614acc565b60405163ae74a1b560e01b81526001600160a01b0380831660048301529192507f0000000000000000000000006c8352f6cc457021cd537c2a6d0d4e7f1ed29e1e9091169063ae74a1b590602401602060405180830381865afa158015610ecb573d6000803e3d6000fd5b505050506040513d601f19601f82011682018060405250810190610eef9190614eed565b610f0b57610efe846019611ae6565b610f089083614f20565b91505b610f1730828785611fbc565b505b95945050505050565b606060016000838152602001908152602001600020805480602002602001604051908101604052809291908181526020016000905b82821015610fb157600084815260209081902060408051606081018252918501546001600160a01b0381168352600160a01b810460ff1683850152600160a81b900463ffffffff1690820152825260019092019101610f57565b505050509050919050565b333014610fc857600080fd5b6001600160a01b0381166110065760405162461bcd60e51b81526020600482015260056024820152643430345f3160d81b604482015260640161099b565b6001600160a01b038116301461102157611021818585611b08565b60008560405160200161103691815260200190565b60408051601f198184030181529190529050306001600160a01b0383160361107d576110776001868630876040518060200160405280600081525087611c45565b5061111b565b60006001600160a01b03861661eeee1461109857600061109a565b845b9050826001600160a01b031663fef432578260018989896000896040518863ffffffff1660e01b81526004016110d5969594939291906151f0565b60206040518083038185885af11580156110f3573d6000803e3d6000fd5b50505050506040513d601f19601f82011682018060405250810190611118919061523c565b50505b505050505050565b61112f8282600061214c565b5050565b6040516331a9108f60e11b81526004810184905261126e907f000000000000000000000000f9dada4628eb3992202cf253625d4ecebbc1592f6001600160a01b031690636352211e90602401602060405180830381865afa15801561119c573d6000803e3d6000fd5b505050506040513d601f19601f820116820180604052508101906111c09190615118565b604051632eec7b5560e11b81526004810186905285906013906001600160a01b037f000000000000000000000000cd8c4da77dfb15c05486d3f71ee4c2c0dfdbc94e1690635dd8f6aa90602401602060405180830381865afa15801561122a573d6000803e3d6000fd5b505050506040513d601f19601f8201168201806040525081019061124e9190615118565b6001600160a01b031661125f612388565b6001600160a01b031614612397565b806000805b8281101561111b5784848281811061128d5761128d615255565b90506020020160208101906112a29190614acc565b6000878152602081815260408083206001600160a01b038086168552925290912080549294509116156112e85760405163b83f909160e01b815260040160405180910390fd5b80546001600160a01b0319166001600160a01b038416908117825561eeee1461137257826001600160a01b031663313ce5676040518163ffffffff1660e01b8152600401602060405180830381865afa158015611349573d6000803e3d6000fd5b505050506040513d601f19601f8201168201806040525081019061136d9190615281565b611375565b60125b815464ffffffffff60a01b1916600160a01b60ff928316810263ffffffff60a81b1990811692909217600160a81b63ffffffff888116820292909217865560008c815260016020818152604083208054928301815583529091208754910180546001600160a01b039283166001600160a01b031982168117835589546001600160a81b03199092161790869004909716909402959095178084558654941693819004909116029190911790558316877f9570de6fc0456f642bd0a001b24cd31676388c24596df64a17190c24310690a18361144e612388565b60405161145c9291906152c7565b60405180910390a350600101611273565b611118888861147f8b8b8b88886123a7565b8888888080601f01602080910402602001604051908101604052809392919081815260200183838082843760009201919091525050604080516020601f8c018190048102820181019092528a815292508a9150899081908401838280828437600092019190915250611b3992505050565b6040516331a9108f60e11b815260048101899052600090611588906001600160a01b037f000000000000000000000000f9dada4628eb3992202cf253625d4ecebbc1592f1690636352211e90602401602060405180830381865afa15801561155c573d6000803e3d6000fd5b505050506040513d601f19601f820116820180604052508101906115809190615118565b8a6010612642565b6115cc898989898888888080601f0160208091040260200160405190810160405280939291908181526020018383808284376000920191909152506127d492505050565b9050848110156115ef5760405163a1a08d1760e01b815260040160405180910390fd5b98975050505050505050565b600061160989896003612642565b61164d898989898888888080601f016020809104026020016040519081016040528093929190818152602001838380828437600092019190915250612a6492505050565b9050848110156115ef5760405163f896960b60e01b815260040160405180910390fd5b600083815260016020526040808220905163d60d1a0960e01b81526001600160a01b037f00000000000000000000000007ce005f3baf3cc2e9cdb1eb21f6ef9112223085169163d60d1a09916116d1913091899190899089906004016152ed565b602060405180830381865afa1580156116ee573d6000803e3d6000fd5b505050506040513d601f19601f82011682018060405250810190611712919061523c565b90505b9392505050565b600061172a86868686612eb9565b905081811015610f195760405163a1a08d1760e01b815260040160405180910390fd5b6040516331a9108f60e11b8152600481018490526000906117e5906001600160a01b037f000000000000000000000000f9dada4628eb3992202cf253625d4ecebbc1592f1690636352211e90602401602060405180830381865afa1580156117b9573d6000803e3d6000fd5b505050506040513d601f19601f820116820180604052508101906117dd9190615118565b856005612642565b604051633a01714f60e01b8152600481018590526001600160a01b038481166024830152831690633a01714f90604401606060405180830381865afa158015611832573d6000803e3d6000fd5b505050506040513d601f19601f82011682018060405250810190611856919061535e565b6020015160ff1660000361187d5760405163581010ed60e01b815260040160405180910390fd5b6118898484600161214c565b6040516319781e2360e01b8152600481018590526001600160a01b0384811660248301527f00000000000000000000000007ce005f3baf3cc2e9cdb1eb21f6ef911222308516906319781e23906044016020604051808303816000875af11580156118f8573d6000803e3d6000fd5b505050506040513d601f19601f8201168201806040525081019061191c919061523c565b905080156119c35761192f828483611b08565b60006001600160a01b03841661eeee1461194a57600061194c565b815b6040805160208101825260008082529151639e6eec0560e01b81529293506001600160a01b03861692639e6eec0592859261198f928b928b928a926004016151a2565b6000604051808303818588803b1580156119a857600080fd5b505af11580156119bc573d6000803e3d6000fd5b5050505050505b816001600160a01b0316836001600160a01b0316857ff0aa72bb9c2a07cf43281bfe8c525ba320fdc71e18b54c9f93ab22ce074af7f684611a02612388565b604080519283526001600160a01b0390911660208301520160405180910390a49392505050565b6000611ab68a8a611a3d8d8d8d89896123a7565b611a45612388565b8b8a8a8080601f01602080910402602001604051908101604052809392919081815260200183838082843760009201919091525050604080516020601f8e018190048102820181019092528c815292508c91508b9081908401838280828437600092019190915250611c4592505050565b905085811015611ad9576040516370dc561160e11b815260040160405180910390fd5b9998505050505050505050565b6000611afe836103e8611af981866153b9565b6130f8565b6117159084614f20565b61eeed196001600160a01b03831601611b2057505050565b611b346001600160a01b03831684836131cc565b505050565b600083611b47576000611b52565b611b52878787613256565b90506001600160a01b037f00000000000000000000000007ce005f3baf3cc2e9cdb1eb21f6ef9112223085166351fc17358888611b8f858a6153b9565b6040516001600160e01b031960e086901b16815260048101939093526001600160a01b0390911660248301526044820152606401600060405180830381600087803b158015611bdd57600080fd5b505af1158015611bf1573d6000803e3d6000fd5b50505050867f9ecaf7fc3dfffd6867c175d6e684b1f1e3aef019398ba8db2c1ffab4a09db25386838686611c23612388565b604051611c349594939291906153cc565b60405180910390a250505050505050565b6000611c4f614846565b60606000611c87604051806080016040528060006001600160a01b031681526020016000815260200160008152602001600081525090565b60008060008e815260200190815260200160002060008d6001600160a01b03166001600160a01b031681526020019081526020016000206040518060600160405290816000820160009054906101000a90046001600160a01b03166001600160a01b03166001600160a01b031681526020016000820160149054906101000a900460ff1660ff1660ff1681526020016000820160159054906101000a900463ffffffff1663ffffffff1663ffffffff1681525050905060405180608001604052808d6001600160a01b031681526020018c8152602001826020015160ff168152602001826040015163ffffffff168152509150507f00000000000000000000000007ce005f3baf3cc2e9cdb1eb21f6ef91122230856001600160a01b0316639e6840c18a838f8c8b6040518663ffffffff1660e01b8152600401611dcf959493929190615444565b6000604051808303816000875af1158015611dee573d6000803e3d6000fd5b505050506040513d6000823e601f3d908101601f19168201604052611e169190810190615597565b91955090935091508115611f4157604051632eec7b5560e11b8152600481018d90527f000000000000000000000000cd8c4da77dfb15c05486d3f71ee4c2c0dfdbc94e6001600160a01b031690635dd8f6aa90602401602060405180830381865afa158015611e89573d6000803e3d6000fd5b505050506040513d601f19601f82011682018060405250810190611ead9190615118565b6040516363fdc96f60e11b8152600481018e9052602481018490526001600160a01b038a8116604483015260a06064830152600060a483015260016084830152919091169063c7fb92de9060c4016020604051808303816000875af1158015611f1a573d6000803e3d6000fd5b505050506040513d601f19601f82011682018060405250810190611f3e919061523c565b94505b825115611f5857611f588c84838c888d8b8d613566565b8b846000015185602001517f133161f1c9161488f777ab9a26aae91d47c0d9a3fafb398960f138db02c737978c8c8f8b8e8e611f92612388565b604051611fa597969594939291906156bb565b60405180910390a450505050979650505050505050565b61eeed196001600160a01b03831601611fde57611fd9838261378c565b612146565b306001600160a01b0385160361200257611fd96001600160a01b03831684836137fc565b604051636eb1769f60e11b81526001600160a01b03858116600483015230602483015282919084169063dd62ed3e90604401602060405180830381865afa158015612051573d6000803e3d6000fd5b505050506040513d601f19601f82011682018060405250810190612075919061523c565b1061208f57611fd96001600160a01b03831685858461385b565b6001600160a01b038111156120b757604051633062f38960e11b815260040160405180910390fd5b604051631b63c28b60e11b81526001600160a01b0385811660048301528481166024830152828116604483015283811660648301527f000000000000000000000000000000000022d473030f116ddee9f6b43ac78ba316906336c7851690608401600060405180830381600087803b15801561213257600080fd5b505af1158015611118573d6000803e3d6000fd5b50505050565b60008381526002602090815260408083206001600160a01b0386168452825280832080548251818502810185019093528083529192909190849084015b828210156121de5760008481526020908190206040805160608101825260038602909201805483526001808201546001600160a01b031684860152600290910154918301919091529083529092019101612189565b50505060008681526002602090815260408083206001600160a01b0389168452909152812092935061221192915061489b565b8051604080516060810182526000808252602082018190528183018190529151630862026560e41b8152600160048201526001600160a01b0387811660248301529192917f000000000000000000000000cd8c4da77dfb15c05486d3f71ee4c2c0dfdbc94e1690638620265090604401602060405180830381865afa15801561229e573d6000803e3d6000fd5b505050506040513d601f19601f820116820180604052508101906122c29190615118565b905060005b83811015611118578481815181106122e1576122e1615255565b60200260200101519250851580156122fc5750428360400151115b156123695760008881526002602081815260408084206001600160a01b038c811686529083528185208054600180820183559187529584902089516003909702019586559288015192850180546001600160a01b0319169390911692909217909155850151910155612380565b612380888885600001518660200151866001613894565b6001016122c7565b6000612392613a7f565b905090565b8061214657612146848484612642565b6000858152602081815260408083206001600160a01b0388811685529252822054166123e657604051630faa917b60e11b815260040160405180910390fd5b61eeed196001600160a01b03861601612400575034610f19565b341561241f57604051635e7e9adf60e11b815260040160405180910390fd5b30612428612388565b6001600160a01b03160361243d575082610f19565b6000612467604051806040016040528060078152602001663832b936b4ba1960c91b815250613af4565b90506000806124ac8387878080601f016020809104026020016040519081016040528093929190818152602001838380828437600092019190915250613b0892505050565b915091508115612600576000818060200190518101906124cc9190615731565b90508781602001516001600160a01b031610156124fc576040516317e415a160e11b815260040160405180910390fd5b7f000000000000000000000000000000000022d473030f116ddee9f6b43ac78ba36001600160a01b0316632b67b570612533612388565b604051806060016040528060405180608001604052808f6001600160a01b0316815260200187602001516001600160a01b03168152602001876040015165ffffffffffff168152602001876060015165ffffffffffff168152508152602001306001600160a01b03168152602001856000015181525084608001516040518463ffffffff1660e01b81526004016125cc939291906157dc565b600060405180830381600087803b1580156125e657600080fd5b505af11580156125fa573d6000803e3d6000fd5b50505050505b600061260b89613cae565b9050612620612618612388565b308b8b611fbc565b8061262a8a613cae565b6126349190614f20565b9a9950505050505050505050565b600061264c612388565b9050836001600160a01b0316816001600160a01b03161415801561270d575060405163c161c93f60e01b81526001600160a01b038281166004830152858116602483015260448201859052606482018490527f0000000000000000000000001e2e8562b635fe19978640c784e47865a83d6605169063c161c93f90608401602060405180830381865afa1580156126e7573d6000803e3d6000fd5b505050506040513d601f19601f8201168201806040525081019061270b9190614eed565b155b80156127b6575060405163c161c93f60e01b81526001600160a01b038281166004830152858116602483015260006044830152606482018490527f0000000000000000000000001e2e8562b635fe19978640c784e47865a83d6605169063c161c93f90608401602060405180830381865afa158015612790573d6000803e3d6000fd5b505050506040513d601f19601f820116820180604052508101906127b49190614eed565b155b156121465760405163075fd2b160e01b815260040160405180910390fd5b60006127de614846565b6000888152602081815260408083206001600160a01b038b81168552925291829020915163060f2bdf60e31b81527f00000000000000000000000007ce005f3baf3cc2e9cdb1eb21f6ef9112223085909116916330795ef891612849918c918b908b90600401615850565b610140604051808303816000875af1158015612869573d6000803e3d6000fd5b505050506040513d601f19601f8201168201806040525081019061288d9190615876565b9250905060006001600160a01b037f0000000000000000000000006c8352f6cc457021cd537c2a6d0d4e7f1ed29e1e1663ae74a1b56128ca612388565b6040516001600160e01b031960e084901b1681526001600160a01b039091166004820152602401602060405180830381865afa15801561290e573d6000803e3d6000fd5b505050506040513d601f19601f820116820180604052508101906129329190614eed565b6129e4576129df8989857f000000000000000000000000f9dada4628eb3992202cf253625d4ecebbc1592f6001600160a01b0316636352211e8e6040518263ffffffff1660e01b815260040161298a91815260200190565b602060405180830381865afa1580156129a7573d6000803e3d6000fd5b505050506040513d601f19601f820116820180604052508101906129cb9190615118565b610100870151604b1c600190811614613d36565b6129e7565b60005b6129f19084614f20565b90508015612a0557612a0530868a84611fbc565b88826000015183602001517f8657a0c05a68a912c23c1bd00124afaa8c669063b046bd9bfd22b21d573c5e6d888b88878b612a3e612388565b604051612a50969594939291906158a5565b60405180910390a450509695505050505050565b6000612a6e614846565b6000878152602081815260408083206001600160a01b038a8116855290835281842082516060808201855291549283168152600160a01b830460ff1681860152600160a81b90920463ffffffff16828401528b855260018452828520805484518187028101870190955280855291959492938593909290849084015b82821015612b4457600084815260209081902060408051606081018252918501546001600160a01b0381168352600160a01b810460ff1683850152600160a81b900463ffffffff1690820152825260019092019101612aea565b5050604051630d346b8160e01b8152929350506001600160a01b037f00000000000000000000000007ce005f3baf3cc2e9cdb1eb21f6ef91122230851691630d346b819150612ba1908f908f908e90889088908f906004016158ef565b6000604051808303816000875af1158015612bc0573d6000803e3d6000fd5b505050506040513d6000823e601f3d908101601f19168201604052612be89190810190615941565b91985091965094509250508715612cfc57604051632eec7b5560e11b8152600481018b90527f000000000000000000000000cd8c4da77dfb15c05486d3f71ee4c2c0dfdbc94e6001600160a01b031690635dd8f6aa90602401602060405180830381865afa158015612c5e573d6000803e3d6000fd5b505050506040513d601f19601f82011682018060405250810190612c829190615118565b60405163516a997360e11b81526001600160a01b038d81166004830152602482018d9052604482018b90526080606483015260006084830152919091169063a2d532e69060a401600060405180830381600087803b158015612ce357600080fd5b505af1158015612cf7573d6000803e3d6000fd5b505050505b60008515612dd85760405163ae74a1b560e01b81526001600160a01b0389811660048301527f0000000000000000000000006c8352f6cc457021cd537c2a6d0d4e7f1ed29e1e169063ae74a1b590602401602060405180830381865afa158015612d6a573d6000803e3d6000fd5b505050506040513d601f19601f82011682018060405250810190612d8e9190614eed565b158015612d9d57506127108314155b15612dc657612dac86826153b9565b9050612db9866019611ae6565b612dc39087614f20565b95505b8515612dd857612dd830898c89611fbc565b835115612e3757612e2a8b60405180608001604052808d6001600160a01b03168152602001898152602001856020015160ff168152602001856040015163ffffffff168152508e8c8b8a898f8c613eea565b612e3490826153b9565b90505b80600003612e46576000612e54565b612e548b8b838b6000613d36565b508a856000015186602001517f9565fc8bdd4f45a73582d1163dbe522a4fb0c4dbb882b5e66269f70101a2509a8f8c8e898d8f612e8f612388565b604051612ea29796959493929190615a6d565b60405180910390a450505050509695505050505050565b6000612ec3614846565b6000868152602081815260408083206001600160a01b038981168552925291829020915163181241e760e31b81527f00000000000000000000000007ce005f3baf3cc2e9cdb1eb21f6ef91122230859091169163c0920f3891612f2e918a9189908990600401615850565b610140604051808303816000875af1158015612f4e573d6000803e3d6000fd5b505050506040513d601f19601f82011682018060405250810190612f729190615876565b6040516331a9108f60e11b8152600481018990529093509091506000907f000000000000000000000000f9dada4628eb3992202cf253625d4ecebbc1592f6001600160a01b031690636352211e90602401602060405180830381865afa158015612fe0573d6000803e3d6000fd5b505050506040513d601f19601f820116820180604052508101906130049190615118565b905060008061301989898660200151886141ff565b909250905060006130458a8a61302f86866153b9565b6101008901518890604b1c600190811614613d36565b9050600083156130725761305a846019611ae6565b6130649085614f20565b905061307230868c84611fbc565b8a866000015187602001517fda42c5c18ef97738d10c32811895add569670a6fcbe9627ea198d446f3be6dea888d8c88886130ab612388565b604080516001600160a01b03978816815260208101969096528501939093526060840191909152608083015290911660a082015260c00160405180910390a4505050505050949350505050565b60008080600019858709858702925082811083820303915050806000036131325783828161312857613128615ac0565b0492505050611715565b83811061316357604051630c740aef60e31b815260048101879052602481018690526044810185905260640161099b565b60008486880960026001871981018816978890046003810283188082028403028082028403028082028403028082028403028082028403029081029092039091026000889003889004909101858311909403939093029303949094049190911702949350505050565b604051636eb1769f60e11b81523060048201526001600160a01b0383811660248301526000919085169063dd62ed3e90604401602060405180830381865afa15801561321c573d6000803e3d6000fd5b505050506040513d601f19601f82011682018060405250810190613240919061523c565b9050612146848461325185856153b9565b6143cb565b60008381526002602090815260408083206001600160a01b0386168452825280832080548251818502810185019093528083528493849084015b828210156132e55760008481526020908190206040805160608101825260038602909201805483526001808201546001600160a01b031684860152600290910154918301919091529083529092019101613290565b50505060008781526002602090815260408083206001600160a01b038a168452909152812092935061331892915061489b565b8051604080516060810182526000808252602082018190529181018290528592915b828110156134fc5784818151811061335457613354615255565b60200260200101519150836000036133ce5760008981526002602081815260408084206001600160a01b038d811686529083528185208054600180820183559187529584902088516003909702019586559287015192850180546001600160a01b03191693909116929092179091558401519101556134f4565b60006133df83600001516019611ae6565b905060008184600001516133f39190614f20565b905080861061340a579681019694859003946134f1565b61341586601961445b565b9150600260008c815260200190815260200160002060008b6001600160a01b03166001600160a01b031681526020019081526020016000206040518060600160405280888403815260200186602001516001600160a01b03168152602001866040015181525090806001815401808255809150506001900390600052602060002090600302016000909190919091506000820151816000015560208201518160010160006101000a8154816001600160a01b0302191690836001600160a01b031602179055506040820151816002015550508188019750600095505b50505b60010161333a565b5085876001600160a01b0316897fedc5125503c021a73fd7d8ed0c2456b296be2c88f39fbed068bd091cef7ca43d8887613534612388565b6040805193845260208401929092526001600160a01b03169082015260600160405180910390a4505050509392505050565b6000604051806101400160405280876001600160a01b031681526020018a8152602001866020015181526020018881526020018881526020018660a001518152602001848152602001856001600160a01b0316815260200160405180602001604052806000815250815260200183815250905060008851905061360c604051806060016040528060006001600160a01b0316815260200160008152602001606081525090565b60005b8281101561377e578a818151811061362957613629615255565b6020026020010151915060405180608001604052808b600001516001600160a01b03168152602001836020015181526020018b6040015181526020018b606001518152508460800181905250816040015184610100018190525061369a82600001518b600001518460200151611b08565b89516000906001600160a01b031661eeee146136b75760006136bd565b82602001515b835160405163f3c5788160e01b81529192506001600160a01b03169063f3c578819083906136ef908990600401615b82565b6000604051808303818588803b15801561370857600080fd5b505af115801561371c573d6000803e3d6000fd5b505050505082600001516001600160a01b03167f092bf36eb737817b64e5cea9e9b69305c423a987b5c3066516b046cad5c0bc3686856020015161375e612388565b60405161376d93929190615b95565b60405180910390a25060010161360f565b505050505050505050505050565b804710156137af5760405163cd78605960e01b815230600482015260240161099b565b6000826001600160a01b03168260405160006040518083038185875af1925050503d806000811461111b576040519150601f19603f3d011682016040523d82523d6000602084013e61111b565b6040516001600160a01b03838116602483015260448201839052611b3491859182169063a9059cbb906064015b604051602081830303815290604052915060e01b6020820180516001600160e01b03838183161783525050505061446a565b6040516001600160a01b0384811660248301528381166044830152606482018390526121469186918216906323b872dd90608401613829565b604051632fc8972b60e11b8152600481018790526001600160a01b038087166024830152604482018690528085166064830152831660848201523090635f912e569060a401600060405180830381600087803b1580156138f357600080fd5b505af1925050508015613904575060015b613a16573d808015613932576040519150601f19603f3d011682016040523d82523d6000602084013e613937565b606091505b506040516351fc173560e01b8152600481018890526001600160a01b038781166024830152604482018790527f00000000000000000000000007ce005f3baf3cc2e9cdb1eb21f6ef911222308516906351fc173590606401600060405180830381600087803b1580156139a957600080fd5b505af11580156139bd573d6000803e3d6000fd5b505050506001866001600160a01b0316887f4b73f3c5cfb174c9d0494138d07ff8ee3aa400df46327d9893ed5ac122dd558a88856139f9612388565b604051613a0893929190615bc8565b60405180910390a45061111b565b83856001600160a01b0316877fb514e730b3f8ad3aa94b6857bcc5ff4a46954bdcf8c4b0346705b1d0ac7a43258487613a4d612388565b6040805193151584526001600160a01b03928316602085015291169082015260600160405180910390a4505050505050565b6000366014336001600160a01b037f000000000000000000000000b2b5841dbef766d4b521221732f9b618fcf34a8716148015613abc5750808210155b15613aec57600036613ace8385614f20565b613ad9928290615bf9565b613ae291615c23565b60601c9250505090565b339250505090565b805160208201206000903060601b186106e9565b600060606025835111613b2d5750506040805160208101909152600080825290613ca7565b600083613b3c600460206153b9565b81518110613b4c57613b4c615255565b0160209081015160f81c91505b600085613b676004846153b9565b81518110613b7757613b77615255565b01602001516001600160f81b03191614801590613b9d5750613b9a602083615c58565b81105b15613ca457600085613bb06004846153b9565b81518110613bc057613bc0615255565b016020908101518784019091015160f89190911c91506001600160e01b031980891690821603613c9a576000613bf7602086615c58565b613c026009866153b9565b101580613c37575087613c166009866153b9565b81518110613c2657613c26615255565b01602001516001600160f81b031916155b613c7057602088613c496009876153b9565b81518110613c5957613c59615255565b0160200151613c6b919060f81c615c58565b613c73565b87515b90506001613c8c89613c86602087615c58565b846144cd565b965096505050505050613ca7565b5050600501613b59565b50505b9250929050565b60006001600160a01b03821661eeee14613d2f576040516370a0823160e01b81523060048201526001600160a01b038316906370a0823190602401602060405180830381865afa158015613d06573d6000803e3d6000fd5b505050506040513d601f19601f82011682018060405250810190613d2a919061523c565b6106e9565b4792915050565b6000613d43846019611ae6565b90508115613e435760008681526002602090815260408083206001600160a01b03808a168552908352928190208151606081018352888152938716928401929092529091908101613d976224ea00426153b9565b9052815460018082018455600093845260209384902083516003909302019182559282015192810180546001600160a01b0319166001600160a01b0394851617905560409091015160029091015584908616877fef9cd8fc3b61b64b44042ada0a8a3ede1649bc1b112673da228120f13bf1381e601987613e16612388565b604080519384526001600160a01b03928316602085015291169082015260600160405180910390a4610f19565b604051630862026560e41b8152600160048201526001600160a01b0386811660248301526000917f000000000000000000000000cd8c4da77dfb15c05486d3f71ee4c2c0dfdbc94e90911690638620265090604401602060405180830381865afa158015613eb5573d6000803e3d6000fd5b505050506040513d601f19601f82011682018060405250810190613ed99190615118565b9050610f1787878487856000613894565b6000806040518061014001604052808a6001600160a01b031681526020018c8152602001876020015181526020018981526020018b81526020018b8152602001868152602001856001600160a01b03168152602001604051806020016040528060008152508152602001888152509050600083519050613f8d604051806060016040528060006001600160a01b0316815260200160008152602001606081525090565b60005b828110156141ee57858181518110613faa57613faa615255565b6020026020010151915060007f0000000000000000000000006c8352f6cc457021cd537c2a6d0d4e7f1ed29e1e6001600160a01b031663ae74a1b584600001516040518263ffffffff1660e01b815260040161401591906001600160a01b0391909116815260200190565b602060405180830381865afa158015614032573d6000803e3d6000fd5b505050506040513d601f19601f820116820180604052508101906140569190614eed565b61406e5761406983602001516019611ae6565b614071565b60005b905080156140a057602083015161408890876153b9565b9550808360200181815161409c9190614f20565b9052505b60405180608001604052808f600001516001600160a01b03168152602001846020015181526020018f6040015181526020018f606001518152508560a00181905250826040015185610100018190525061410783600001518f600001518560200151611b08565b8d516000906001600160a01b031661eeee1461412457600061412a565b83602001515b84516040516319bb132d60e21b81529192506001600160a01b0316906366ec4cb490839061415c908a90600401615cfe565b6000604051808303818588803b15801561417557600080fd5b505af1158015614189573d6000803e3d6000fd5b505050505083600001516001600160a01b03167f5d2ae7ac07b3a26000acaa692b550c84cbb87300557e0359791cfec9efe1615a878660200151856141cc612388565b6040516141dc9493929190615d11565b60405180910390a25050600101613f90565b505050509998505050505050505050565b6040516369e11cc560e01b815260048101859052602481018390526001600160a01b0384811660448301526000918291633b9aca009183917f000000000000000000000000f271e7329ed20b9b61bd5a13593e1f5bb609864416906369e11cc590606401600060405180830381865afa158015614280573d6000803e3d6000fd5b505050506040513d6000823e601f3d908101601f191682016040526142a89190810190615d49565b80516040805160c081018252600080825260208201819052918101829052606081018290526080810182905260a08101919091529192509060005b828110156143ba578381815181106142fd576142fd615255565b602002602001015191506000614318898460200151886130f8565b90506000614328848e8e85614513565b905080158015906143395750818114155b1561434b5761434882896153b9565b97505b811561435757818a0399505b8360200151870396508b6001600160a01b03168b8e7f39305f11865947ab83bc6548c8c77e5890ed5bc4a6ea54e6fe7b22f4f406f4b8878686614398612388565b6040516143a89493929190615e3f565b60405180910390a450506001016142e3565b508695505050505094509492505050565b604080516001600160a01b038416602482015260448082018490528251808303909101815260649091019091526020810180516001600160e01b031663095ea7b360e01b17905261441c8482614699565b612146576040516001600160a01b0384811660248301526000604483015261445191869182169063095ea7b390606401613829565b612146848261446a565b600061171583836103e86130f8565b600061447f6001600160a01b0384168361473c565b905080516000141580156144a45750808060200190518101906144a29190614eed565b155b15611b3457604051635274afe760e01b81526001600160a01b038416600482015260240161099b565b60608282036040519150602081830101604052808252508260208501016020820160005b848110156145095782810151828201526020016144f1565b5050509392505050565b6000306343a89aaf86868686614527612388565b6040518663ffffffff1660e01b8152600401614547959493929190615e73565b6020604051808303816000875af1925050508015614582575060408051601f3d908101601f1916820190925261457f9181019061523c565b60015b61468e573d8080156145b0576040519150601f19603f3d011682016040523d82523d6000602084013e6145b5565b606091505b506040516351fc173560e01b8152600481018690526001600160a01b038581166024830152604482018590527f00000000000000000000000007ce005f3baf3cc2e9cdb1eb21f6ef911222308516906351fc173590606401600060405180830381600087803b15801561462757600080fd5b505af115801561463b573d6000803e3d6000fd5b50505050847f37b65da09d1a43465d8f823dcc858aa187792b35585b56afe707d57d7108d22887858461466c612388565b60405161467c9493929190615eb2565b60405180910390a26000915050614691565b90505b949350505050565b6000806000846001600160a01b0316846040516146b69190615ef4565b6000604051808303816000865af19150503d80600081146146f3576040519150601f19603f3d011682016040523d82523d6000602084013e6146f8565b606091505b50915091508180156147225750805115806147225750808060200190518101906147229190614eed565b8015610f195750505050506001600160a01b03163b151590565b60606117158383600084600080856001600160a01b031684866040516147629190615ef4565b60006040518083038185875af1925050503d806000811461479f576040519150601f19603f3d011682016040523d82523d6000602084013e6147a4565b606091505b50915091506147b48683836147be565b9695505050505050565b6060826147d3576147ce8261481a565b611715565b81511580156147ea57506001600160a01b0384163b155b1561481357604051639996b31560e01b81526001600160a01b038516600482015260240161099b565b5080611715565b80511561482a5780518082602001fd5b604051630a12f52160e11b815260040160405180910390fd5b50565b6040518061012001604052806000815260200160008152602001600081526020016000815260200160008152602001600081526020016000815260200160006001600160a01b03168152602001600081525090565b508054600082556003029060005260206000209081019061484391905b808211156148e45760008082556001820180546001600160a01b031916905560028201556003016148b8565b5090565b6000602082840312156148fa57600080fd5b81356001600160e01b03198116811461171557600080fd5b6001600160a01b038116811461484357600080fd5b6000806040838503121561493a57600080fd5b82359150602083013561494c81614912565b809150509250929050565b602080825282518282018190526000919060409081850190868401855b828110156149ac57815180518552868101516001600160a01b0316878601528501518585015260609093019290850190600101614974565b5091979650505050505050565b80516001600160a01b0316825260208082015160ff169083015260409081015163ffffffff16910152565b606081016106e982846149b9565b6000806000806000858703610140811215614a0c57600080fd5b60c0811215614a1a57600080fd5b5085945060c0860135935060e0860135614a3381614912565b92506101008601359150610120860135614a4c81614912565b809150509295509295909350565b600060208284031215614a6c57600080fd5b5035919050565b60008151808452602080850194506020840160005b83811015614aae57614a9b8783516149b9565b6060969096019590820190600101614a88565b509495945050505050565b6020815260006117156020830184614a73565b600060208284031215614ade57600080fd5b813561171581614912565b600080600080600060a08688031215614b0157600080fd5b853594506020860135614b1381614912565b9350604086013592506060860135614b2a81614912565b91506080860135614a4c81614912565b600080600060408486031215614b4f57600080fd5b8335925060208401356001600160401b0380821115614b6d57600080fd5b818601915086601f830112614b8157600080fd5b813581811115614b9057600080fd5b8760208260051b8501011115614ba557600080fd5b6020830194508093505050509250925092565b801515811461484357600080fd5b60008083601f840112614bd857600080fd5b5081356001600160401b03811115614bef57600080fd5b602083019150836020828501011115613ca757600080fd5b60008060008060008060008060c0898b031215614c2357600080fd5b883597506020890135614c3581614912565b9650604089013595506060890135614c4c81614bb8565b945060808901356001600160401b0380821115614c6857600080fd5b614c748c838d01614bc6565b909650945060a08b0135915080821115614c8d57600080fd5b50614c9a8b828c01614bc6565b999c989b5096995094979396929594505050565b60008060008060008060008060e0898b031215614cca57600080fd5b883597506020890135614cdc81614912565b965060408901359550606089013594506080890135935060a0890135614d0181614912565b925060c08901356001600160401b03811115614d1c57600080fd5b614c9a8b828c01614bc6565b60008060008060008060008060e0898b031215614d4457600080fd5b8835614d4f81614912565b9750602089013596506040890135614d6681614912565b9550606089013594506080890135935060a0890135614d0181614912565b600080600060608486031215614d9957600080fd5b505081359360208301359350604090920135919050565b600080600080600060a08688031215614dc857600080fd5b853594506020860135614dda81614912565b94979496505050506040830135926060810135926080909101359150565b600080600060608486031215614e0d57600080fd5b833592506020840135614e1f81614912565b91506040840135614e2f81614912565b809150509250925092565b600080600080600080600080600060e08a8c031215614e5857600080fd5b8935985060208a0135614e6a81614912565b975060408a0135965060608a0135614e8181614912565b955060808a0135945060a08a01356001600160401b0380821115614ea457600080fd5b614eb08d838e01614bc6565b909650945060c08c0135915080821115614ec957600080fd5b50614ed68c828d01614bc6565b915080935050809150509295985092959850929598565b600060208284031215614eff57600080fd5b815161171581614bb8565b634e487b7160e01b600052601160045260246000fd5b818103818111156106e9576106e9614f0a565b634e487b7160e01b600052604160045260246000fd5b60405160c081016001600160401b0381118282101715614f6b57614f6b614f33565b60405290565b604051606081016001600160401b0381118282101715614f6b57614f6b614f33565b60405161012081016001600160401b0381118282101715614f6b57614f6b614f33565b60405160a081016001600160401b0381118282101715614f6b57614f6b614f33565b604051601f8201601f191681016001600160401b038111828210171561500057615000614f33565b604052919050565b600060c0828403121561501a57600080fd5b615022614f49565b823561502d81614bb8565b808252506020830135602082015260408301356040820152606083013561505381614912565b60608201526080838101359082015260a083013561507081614912565b60a08201529392505050565b80511515825260208082015190830152604080820151908301526060808201516001600160a01b03908116918401919091526080808301519084015260a09182015116910152565b81516001600160a01b031681526020808301519082015260408083015190820152606080830151908201526080808301519082015260a0828101516101608301916151119084018261507c565b5092915050565b60006020828403121561512a57600080fd5b815161171581614912565b60006020828403121561514757600080fd5b813561171581614bb8565b60005b8381101561516d578181015183820152602001615155565b50506000910152565b6000815180845261518e816020860160208601615152565b601f01601f19169290920160200192915050565b85815260018060a01b0385166020820152836040820152821515606082015260c06080820152600060c082015260e060a082015260006151e560e0830184615176565b979650505050505050565b868152600060018060a01b03808816602084015286604084015280861660608401525083608083015260e060a0830152600060e08301526101008060c0840152611ad981840185615176565b60006020828403121561524e57600080fd5b5051919050565b634e487b7160e01b600052603260045260246000fd5b805160ff8116811461527c57600080fd5b919050565b60006020828403121561529357600080fd5b6117158261526b565b546001600160a01b038116825260a081901c60ff16602083015260a81c63ffffffff16604090910152565b608081016152d5828561529c565b6001600160a01b039290921660609190910152919050565b6001600160a01b0386168152602080820186905260a060408301819052855490830181905260008681529182209060c0840190835b8181101561534757615334838561529c565b6001938401936060939093019201615322565b505060608401959095525050608001529392505050565b60006060828403121561537057600080fd5b615378614f71565b825161538381614912565b81526153916020840161526b565b6020820152604083015163ffffffff811681146153ad57600080fd5b60408201529392505050565b808201808211156106e9576106e9614f0a565b85815284602082015260a0604082015260006153eb60a0830186615176565b82810360608401526153fd8186615176565b91505060018060a01b03831660808301529695505050505050565b80516001600160a01b031682526020808201519083015260408082015190830152606090810151910152565b6001600160a01b038681168252600090610100906154656020850189615418565b8660a085015280861660c0850152508060e08401526115ef81840185615176565b805161527c81614912565b600061012082840312156154a457600080fd5b6154ac614f93565b9050815181526020820151602082015260408201516040820152606082015160608201526080820151608082015260a082015160a082015260c082015160c08201526154fa60e08301615486565b60e082015261010080830151818301525092915050565b60006001600160401b0382111561552a5761552a614f33565b5060051b60200190565b600082601f83011261554557600080fd5b81516001600160401b0381111561555e5761555e614f33565b615571601f8201601f1916602001614fd8565b81815284602083860101111561558657600080fd5b614691826020830160208701615152565b600080600061016084860312156155ad57600080fd5b6155b78585615491565b925061012084015191506101408401516001600160401b03808211156155dc57600080fd5b818601915086601f8301126155f057600080fd5b8151602061560561560083615511565b614fd8565b82815260059290921b8401810191818101908a84111561562457600080fd5b8286015b848110156156aa5780518681111561563f57600080fd5b87016060818e03601f1901121561565557600080fd5b61565d614f71565b8582015161566a81614912565b81526040820151868201526060820151888111156156885760008081fd5b6156968f8883860101615534565b604083015250845250918301918301615628565b508096505050505050509250925092565b600060018060a01b03808a168352808916602084015287604084015286606084015260e060808401526156f160e0840187615176565b83810360a08501526157038187615176565b92505080841660c08401525098975050505050505050565b805165ffffffffffff8116811461527c57600080fd5b60006020828403121561574357600080fd5b81516001600160401b038082111561575a57600080fd5b9083019060a0828603121561576e57600080fd5b615776614fb6565b82518152602083015161578881614912565b60208201526157996040840161571b565b60408201526157aa6060840161571b565b60608201526080830151828111156157c157600080fd5b6157cd87828601615534565b60808301525095945050505050565b600061010060018060a01b0380871684528551818151166020860152816020820151166040860152604081015165ffffffffffff80821660608801528060608401511660808801525050508060208701511660a085015250604085015160c08401528060e08401526147b481840185615176565b84815260c08101615864602083018661529c565b608082019390935260a0015292915050565b600080610140838503121561588a57600080fd5b6158948484615491565b915061012083015190509250929050565b600060018060a01b03808916835287602084015286604084015285606084015260c060808401526158d960c0840186615176565b915080841660a084015250979650505050505050565b6001600160a01b03871681526020810186905260408101859052600061010061591b60608401876149b9565b8060c084015261592d81840186614a73565b905082810360e0840152611ad98185615176565b600080600080610180858703121561595857600080fd5b6159628686615491565b9350610120850151925061014085015191506101608501516001600160401b038082111561598f57600080fd5b818701915087601f8301126159a357600080fd5b81516159b161560082615511565b8082825260208201915060208360051b86010192508a8311156159d357600080fd5b602085015b83811015615a5d578051858111156159ef57600080fd5b86016060818e03601f19011215615a0557600080fd5b615a0d614f71565b6020820151615a1b81614912565b815260408201516020820152606082015187811115615a3957600080fd5b615a488f602083860101615534565b604083015250845250602092830192016159d8565b50979a9699509497505050505050565b600060018060a01b03808a168352808916602084015287604084015286606084015285608084015260e060a0840152615aa960e0840186615176565b915080841660c08401525098975050505050505050565b634e487b7160e01b600052601260045260246000fd5b80516001600160a01b03168252600061020060208301516020850152604083015160408501526060830151615b0e6060860182615418565b506080830151615b2160e0860182615418565b5060a083015161016085015260c083015161018085015260e08301516001600160a01b03166101a08501526101008301516101c08501829052615b6682860182615176565b9150506101208301518482036101e0860152610f198282615176565b6020815260006117156020830184615ad6565b606081526000615ba86060830186615ad6565b6020830194909452506001600160a01b0391909116604090910152919050565b838152606060208201526000615be16060830185615176565b905060018060a01b0383166040830152949350505050565b60008085851115615c0957600080fd5b83861115615c1657600080fd5b5050820193919092039150565b6bffffffffffffffffffffffff198135818116916014851015615c505780818660140360031b1b83161692505b505092915050565b80820281158282048414176106e9576106e9614f0a565b80516001600160a01b0316825260006102006020830151602085015260408301516040850152606083015160608501526080830151615cb16080860182615418565b5060a0830151610100615cc681870183615418565b60c085015161018087015260e08501516001600160a01b03166101a08701528401516101c086018390529050615b6682860182615176565b6020815260006117156020830184615c6f565b608081526000615d246080830187615c6f565b60208301959095525060408101929092526001600160a01b0316606090910152919050565b60006020808385031215615d5c57600080fd5b82516001600160401b03811115615d7257600080fd5b8301601f81018513615d8357600080fd5b8051615d9161560082615511565b81815260c09182028301840191848201919088841115615db057600080fd5b938501935b83851015615e335780858a031215615dcd5760008081fd5b615dd5614f49565b8551615de081614bb8565b8152858701518782015260408087015190820152606080870151615e0381614912565b908201526080868101519082015260a080870151615e2081614912565b9082015283529384019391850191615db5565b50979650505050505050565b6101208101615e4e828761507c565b60c082019490945260e08101929092526001600160a01b031661010090910152919050565b6101408101615e82828861507c565b60c08201959095526001600160a01b0393841660e082015261010081019290925290911661012090910152919050565b6000610120615ec1838861507c565b8560c08401528060e0840152615ed981840186615176565b91505060018060a01b03831661010083015295945050505050565b60008251615f06818460208701615152565b919091019291505056fea26469706673582212204f8cdb26bba6053ac1d5d324368a9c802d4d3b8382eccab39f19cd038616d91064736f6c63430008170033",
			"devdoc": {
				"kind": "dev",
				"methods": {
					"accountingContextForTokenOf(uint256,address)": {
						"details": "See the `JBAccountingContext` struct for more information.",
						"params": {
							"projectId": "The ID of the project to get token accounting context of.",
							"token": "The token to check the accounting context of."
						},
						"returns": {
							"_0": "The token's accounting context for the token."
						}
					},
					"accountingContextsOf(uint256)": {
						"params": {
							"projectId": "The ID of the project to get the accepted tokens of."
						},
						"returns": {
							"_0": "tokenContexts The accounting contexts of the accepted tokens."
						}
					},
					"addAccountingContextsFor(uint256,address[])": {
						"details": "Only a project's owner, an operator with the `ADD_ACCOUNTING_CONTEXTS` permission from that owner, or a project's controller can add accounting contexts for the project.",
						"params": {
							"projectId": "The ID of the project having to add accounting contexts for.",
							"tokens": "The tokens to add accounting contexts for."
						}
					},
					"addToBalanceOf(uint256,address,uint256,bool,string,bytes)": {
						"details": "Adding to balance can unlock held fees if `shouldUnlockHeldFees` is true.",
						"params": {
							"amount": "The amount of tokens to add to the balance, as a fixed point number with the same number of decimals as this terminal. If this is a native token terminal, this is ignored and `msg.value` is used instead.",
							"memo": "A memo to pass along to the emitted event.",
							"metadata": "Extra data to pass along to the emitted event.",
							"projectId": "The ID of the project to add funds to the balance of.",
							"shouldReturnHeldFees": "A flag indicating if held fees should be returned based on the amount being added.",
							"token": "The token being added to the balance."
						}
					},
					"constructor": {
						"params": {
							"directory": "A contract storing directories of terminals and controllers for each project.",
							"feelessAddresses": "A contract that stores addresses that shouldn't incur fees when being paid towards or from.",
							"permissions": "A contract storing permissions.",
							"permit2": "A permit2 utility.",
							"projects": "A contract which mints ERC-721s that represent project ownership and transfers.",
							"splits": "A contract that stores splits for each project.",
							"store": "A contract that stores the terminal's data.",
							"trustedForwarder": "A trusted forwarder of transactions to this contract."
						}
					},
					"currentSurplusOf(uint256,uint256,uint256)": {
						"details": "This total surplus only includes tokens that the project accepts (as returned by `accountingContextsOf(...)`).",
						"params": {
							"currency": "The currency to express the returned value in terms of.",
							"decimals": "The number of decimals to include in the fixed point returned value.",
							"projectId": "The ID of the project to get the current total surplus of."
						},
						"returns": {
							"_0": "The current surplus amount the project has in this terminal, in terms of `currency` and with the specified number of decimals."
						}
					},
					"executePayout((bool,uint256,uint256,address,uint256,address),uint256,address,uint256,address)": {
						"details": "Only accepts calls from this terminal itself.",
						"params": {
							"amount": "The total amount being paid to the split, as a fixed point number with the same number of decimals as this terminal.",
							"projectId": "The ID of the project the split belongs to.",
							"split": "The split to pay.",
							"token": "The address of the token being paid to the split."
						},
						"returns": {
							"netPayoutAmount": "The amount sent to the split after subtracting fees."
						}
					},
					"executeProcessFee(uint256,address,uint256,address,address)": {
						"details": "Only accepts calls from this terminal itself.",
						"params": {
							"amount": "The fee amount, as a fixed point number with 18 decimals.",
							"beneficiary": "The address to mint tokens to (from the project which receives fees), and pass along to the ruleset's data hook and pay hook if applicable.",
							"feeTerminal": "The terminal that'll receive the fees.",
							"projectId": "The ID of the project paying the fee.",
							"token": "The token the fee is being paid in."
						}
					},
					"heldFeesOf(uint256,address)": {
						"details": "Projects can temporarily hold fees and unlock them later by adding funds to the project's balance.Held fees can be processed at any time by this terminal's owner.",
						"params": {
							"projectId": "The ID of the project that is holding fees.",
							"token": "The token that the fees are held in."
						}
					},
					"isTrustedForwarder(address)": {
						"details": "Indicates whether any particular address is the trusted forwarder."
					},
					"migrateBalanceOf(uint256,address,address)": {
						"details": "Only a project's owner or an operator with the `MIGRATE_TERMINAL` permission from that owner can migrate the project's terminal.",
						"params": {
							"projectId": "The ID of the project being migrated.",
							"to": "The terminal contract being migrated to, which will receive the project's funds and operations.",
							"token": "The address of the token being migrated."
						},
						"returns": {
							"balance": "The amount of funds that were migrated, as a fixed point number with the same amount of decimals as this terminal."
						}
					},
					"pay(uint256,address,uint256,address,uint256,string,bytes)": {
						"params": {
							"amount": "The amount of terminal tokens being received, as a fixed point number with the same number of decimals as this terminal. If this terminal's token is native, this is ignored and `msg.value` is used in its place.",
							"beneficiary": "The address to mint tokens to, and pass along to the ruleset's data hook and pay hook if applicable.",
							"memo": "A memo to pass along to the emitted event.",
							"metadata": "Bytes to pass along to the emitted event, as well as the data hook and pay hook if applicable.",
							"minReturnedTokens": "The minimum number of project tokens expected in return for this payment, as a fixed point number with the same number of decimals as this terminal. If the amount of tokens minted for the beneficiary would be less than this amount, the payment is reverted.",
							"projectId": "The ID of the project being paid.",
							"token": "The token being paid."
						},
						"returns": {
							"beneficiaryTokenCount": "The number of tokens minted to the beneficiary, as a fixed point number with 18 decimals."
						}
					},
					"processHeldFeesOf(uint256,address)": {
						"params": {
							"projectId": "The ID of the project to process held fees for.",
							"token": "The token to process held fees for."
						}
					},
					"redeemTokensOf(address,uint256,address,uint256,uint256,address,bytes)": {
						"details": "Only a token's holder or an operator with the `REDEEM_TOKENS` permission from that holder can redeem those tokens.",
						"params": {
							"beneficiary": "The address to send the reclaimed terminal tokens to, and to pass along to the ruleset's data hook and redeem hook if applicable.",
							"holder": "The account whose tokens are being redeemed.",
							"metadata": "Bytes to send along to the emitted event, as well as the data hook and redeem hook if applicable.",
							"minTokensReclaimed": "The minimum number of terminal tokens expected in return, as a fixed point number with the same number of decimals as this terminal. If the amount of tokens minted for the beneficiary would be less than this amount, the redemption is reverted.",
							"projectId": "The ID of the project the project tokens belong to.",
							"redeemCount": "The number of project tokens to redeem, as a fixed point number with 18 decimals.",
							"tokenToReclaim": "The token being reclaimed."
						},
						"returns": {
							"reclaimAmount": "The amount of terminal tokens that the project tokens were redeemed for, as a fixed point number with 18 decimals."
						}
					},
					"sendPayoutsOf(uint256,address,uint256,uint256,uint256)": {
						"details": "If the percentages of the splits in the project's payout split group do not add up to 100%, the remainder is sent to the project's owner.Anyone can send payouts on a project's behalf. Projects can include a wildcard split (a split with no `hook`, `projectId`, or `beneficiary`) to send funds to the `_msgSender()` which calls this function. This can be used to incentivize calling this function.payouts sent to addresses which aren't feeless incur the protocol fee.Payouts a projects don't incur fees if its terminal is feeless.",
						"params": {
							"amount": "The total number of terminal tokens to send, as a fixed point number with same number of decimals as this terminal.",
							"currency": "The expected currency of the payouts being sent. Must match the currency of one of the project's current ruleset's payout limits.",
							"minTokensPaidOut": "The minimum number of terminal tokens that the `amount` should be worth (if expressed in terms of this terminal's currency), as a fixed point number with the same number of decimals as this terminal. If the amount of tokens paid out would be less than this amount, the send is reverted.",
							"projectId": "The ID of the project having its payouts sent.",
							"token": "The token being sent."
						},
						"returns": {
							"amountPaidOut": "The total amount paid out."
						}
					},
					"supportsInterface(bytes4)": {
						"details": "See {IERC165-supportsInterface}.",
						"params": {
							"interfaceId": "The ID of the interface to check for adherence to."
						},
						"returns": {
							"_0": "A flag indicating if the provided interface ID is supported."
						}
					},
					"trustedForwarder()": {
						"details": "Returns the address of the trusted forwarder."
					},
					"useAllowanceOf(uint256,address,uint256,uint256,uint256,address,string)": {
						"details": "Only a project's owner or an operator with the `USE_ALLOWANCE` permission from that owner can use the surplus allowance.Incurs the protocol fee unless the caller is a feeless address.",
						"params": {
							"amount": "The amount of terminal tokens to use from the project's current surplus allowance, as a fixed point number with the same amount of decimals as this terminal.",
							"beneficiary": "The address to send the surplus funds to.",
							"currency": "The expected currency of the amount being paid out. Must match the currency of one of the project's current ruleset's surplus allowances.",
							"memo": "A memo to pass along to the emitted event.",
							"minTokensPaidOut": "The minimum number of terminal tokens that should be used from the surplus allowance (including fees), as a fixed point number with 18 decimals. If the amount of surplus used would be less than this amount, the transaction is reverted.",
							"projectId": "The ID of the project to use the surplus allowance of.",
							"token": "The token being paid out from the surplus."
						},
						"returns": {
							"amountPaidOut": "The number of tokens that were sent to the beneficiary, as a fixed point number with the same amount of decimals as the terminal."
						}
					}
				},
				"version": 1
			},
			"userdoc": {
				"kind": "user",
				"methods": {
					"DIRECTORY()": {
						"notice": "The directory of terminals and controllers for PROJECTS."
					},
					"FEE()": {
						"notice": "This terminal's fee (as a fraction out of `JBConstants.MAX_FEE`)."
					},
					"FEELESS_ADDRESSES()": {
						"notice": "The contract that stores addresses that shouldn't incur fees when being paid towards or from."
					},
					"PERMISSIONS()": {
						"notice": "A contract storing permissions."
					},
					"PERMIT2()": {
						"notice": "The permit2 utility."
					},
					"PROJECTS()": {
						"notice": "Mints ERC-721s that represent project ownership and transfers."
					},
					"SPLITS()": {
						"notice": "The contract that stores splits for each project."
					},
					"STORE()": {
						"notice": "The contract that stores and manages the terminal's data."
					},
					"accountingContextForTokenOf(uint256,address)": {
						"notice": "A project's accounting context for a token."
					},
					"accountingContextsOf(uint256)": {
						"notice": "The tokens accepted by a project."
					},
					"addAccountingContextsFor(uint256,address[])": {
						"notice": "Adds accounting contexts for a project to this terminal so the project can begin accepting the tokens in those contexts."
					},
					"addToBalanceOf(uint256,address,uint256,bool,string,bytes)": {
						"notice": "Adds funds to a project's balance without minting tokens."
					},
					"currentSurplusOf(uint256,uint256,uint256)": {
						"notice": "Gets the total current surplus amount in this terminal for a project, in terms of a given currency."
					},
					"executePayout((bool,uint256,uint256,address,uint256,address),uint256,address,uint256,address)": {
						"notice": "Executes a payout to a split."
					},
					"executeProcessFee(uint256,address,uint256,address,address)": {
						"notice": "Process a specified amount of fees for a project."
					},
					"heldFeesOf(uint256,address)": {
						"notice": "Fees that are being held for a project."
					},
					"migrateBalanceOf(uint256,address,address)": {
						"notice": "Migrate a project's funds and operations to a new terminal that accepts the same token type."
					},
					"pay(uint256,address,uint256,address,uint256,string,bytes)": {
						"notice": "Pay a project with tokens."
					},
					"processHeldFeesOf(uint256,address)": {
						"notice": "Process any fees that are being held for the project."
					},
					"redeemTokensOf(address,uint256,address,uint256,uint256,address,bytes)": {
						"notice": "Holders can redeem a project's tokens to reclaim some of that project's surplus tokens, or to trigger rules determined by the current ruleset's data hook and redeem hook."
					},
					"sendPayoutsOf(uint256,address,uint256,uint256,uint256)": {
						"notice": "Sends payouts to a project's current payout split group, according to its ruleset, up to its current payout limit."
					},
					"supportsInterface(bytes4)": {
						"notice": "Indicates whether this contract adheres to the specified interface."
					},
					"useAllowanceOf(uint256,address,uint256,uint256,uint256,address,string)": {
						"notice": "Allows a project to pay out funds from its surplus up to the current surplus allowance."
					}
				},
				"version": 1
			},
			"gitCommit": "8e6924651d1e8038d6c2982d6d0c09a070b141a7",
			"sourceName": "src/JBMultiTerminal.sol",
			"chainId": "84532",
			"linkReferences": {},
			"deployedLinkReferences": {}
		},
		{
			"_format": "sphinx-sol-ct-artifact-1",
			"merkleRoot": "0x1c031ac0217a16bc8b880bc3a6e637a3fb319bf6343a8af2f9d37587d2ef9836",
			"contractName": "JBMultiTerminal",
			"address": "0xdf75f3CDf0277633A1C8dcEfc3f2538e0D42F990",
			"abi": [
				{
					"type": "constructor",
					"inputs": [
						{
							"name": "permissions",
							"type": "address",
							"internalType": "contract IJBPermissions"
						},
						{
							"name": "projects",
							"type": "address",
							"internalType": "contract IJBProjects"
						},
						{
							"name": "directory",
							"type": "address",
							"internalType": "contract IJBDirectory"
						},
						{
							"name": "splits",
							"type": "address",
							"internalType": "contract IJBSplits"
						},
						{
							"name": "store",
							"type": "address",
							"internalType": "contract IJBTerminalStore"
						},
						{
							"name": "feelessAddresses",
							"type": "address",
							"internalType": "contract IJBFeelessAddresses"
						},
						{
							"name": "permit2",
							"type": "address",
							"internalType": "contract IPermit2"
						},
						{
							"name": "trustedForwarder",
							"type": "address",
							"internalType": "address"
						}
					],
					"stateMutability": "nonpayable"
				},
				{
					"type": "function",
					"name": "DIRECTORY",
					"inputs": [],
					"outputs": [
						{
							"name": "",
							"type": "address",
							"internalType": "contract IJBDirectory"
						}
					],
					"stateMutability": "view"
				},
				{
					"type": "function",
					"name": "FEE",
					"inputs": [],
					"outputs": [
						{
							"name": "",
							"type": "uint256",
							"internalType": "uint256"
						}
					],
					"stateMutability": "view"
				},
				{
					"type": "function",
					"name": "FEELESS_ADDRESSES",
					"inputs": [],
					"outputs": [
						{
							"name": "",
							"type": "address",
							"internalType": "contract IJBFeelessAddresses"
						}
					],
					"stateMutability": "view"
				},
				{
					"type": "function",
					"name": "PERMISSIONS",
					"inputs": [],
					"outputs": [
						{
							"name": "",
							"type": "address",
							"internalType": "contract IJBPermissions"
						}
					],
					"stateMutability": "view"
				},
				{
					"type": "function",
					"name": "PERMIT2",
					"inputs": [],
					"outputs": [
						{
							"name": "",
							"type": "address",
							"internalType": "contract IPermit2"
						}
					],
					"stateMutability": "view"
				},
				{
					"type": "function",
					"name": "PROJECTS",
					"inputs": [],
					"outputs": [
						{
							"name": "",
							"type": "address",
							"internalType": "contract IJBProjects"
						}
					],
					"stateMutability": "view"
				},
				{
					"type": "function",
					"name": "SPLITS",
					"inputs": [],
					"outputs": [
						{
							"name": "",
							"type": "address",
							"internalType": "contract IJBSplits"
						}
					],
					"stateMutability": "view"
				},
				{
					"type": "function",
					"name": "STORE",
					"inputs": [],
					"outputs": [
						{
							"name": "",
							"type": "address",
							"internalType": "contract IJBTerminalStore"
						}
					],
					"stateMutability": "view"
				},
				{
					"type": "function",
					"name": "accountingContextForTokenOf",
					"inputs": [
						{
							"name": "projectId",
							"type": "uint256",
							"internalType": "uint256"
						},
						{
							"name": "token",
							"type": "address",
							"internalType": "address"
						}
					],
					"outputs": [
						{
							"name": "",
							"type": "tuple",
							"internalType": "struct JBAccountingContext",
							"components": [
								{
									"name": "token",
									"type": "address",
									"internalType": "address"
								},
								{
									"name": "decimals",
									"type": "uint8",
									"internalType": "uint8"
								},
								{
									"name": "currency",
									"type": "uint32",
									"internalType": "uint32"
								}
							]
						}
					],
					"stateMutability": "view"
				},
				{
					"type": "function",
					"name": "accountingContextsOf",
					"inputs": [
						{
							"name": "projectId",
							"type": "uint256",
							"internalType": "uint256"
						}
					],
					"outputs": [
						{
							"name": "",
							"type": "tuple[]",
							"internalType": "struct JBAccountingContext[]",
							"components": [
								{
									"name": "token",
									"type": "address",
									"internalType": "address"
								},
								{
									"name": "decimals",
									"type": "uint8",
									"internalType": "uint8"
								},
								{
									"name": "currency",
									"type": "uint32",
									"internalType": "uint32"
								}
							]
						}
					],
					"stateMutability": "view"
				},
				{
					"type": "function",
					"name": "addAccountingContextsFor",
					"inputs": [
						{
							"name": "projectId",
							"type": "uint256",
							"internalType": "uint256"
						},
						{
							"name": "tokens",
							"type": "address[]",
							"internalType": "address[]"
						}
					],
					"outputs": [],
					"stateMutability": "nonpayable"
				},
				{
					"type": "function",
					"name": "addToBalanceOf",
					"inputs": [
						{
							"name": "projectId",
							"type": "uint256",
							"internalType": "uint256"
						},
						{
							"name": "token",
							"type": "address",
							"internalType": "address"
						},
						{
							"name": "amount",
							"type": "uint256",
							"internalType": "uint256"
						},
						{
							"name": "shouldReturnHeldFees",
							"type": "bool",
							"internalType": "bool"
						},
						{
							"name": "memo",
							"type": "string",
							"internalType": "string"
						},
						{
							"name": "metadata",
							"type": "bytes",
							"internalType": "bytes"
						}
					],
					"outputs": [],
					"stateMutability": "payable"
				},
				{
					"type": "function",
					"name": "currentSurplusOf",
					"inputs": [
						{
							"name": "projectId",
							"type": "uint256",
							"internalType": "uint256"
						},
						{
							"name": "decimals",
							"type": "uint256",
							"internalType": "uint256"
						},
						{
							"name": "currency",
							"type": "uint256",
							"internalType": "uint256"
						}
					],
					"outputs": [
						{
							"name": "",
							"type": "uint256",
							"internalType": "uint256"
						}
					],
					"stateMutability": "view"
				},
				{
					"type": "function",
					"name": "executePayout",
					"inputs": [
						{
							"name": "split",
							"type": "tuple",
							"internalType": "struct JBSplit",
							"components": [
								{
									"name": "preferAddToBalance",
									"type": "bool",
									"internalType": "bool"
								},
								{
									"name": "percent",
									"type": "uint256",
									"internalType": "uint256"
								},
								{
									"name": "projectId",
									"type": "uint256",
									"internalType": "uint256"
								},
								{
									"name": "beneficiary",
									"type": "address",
									"internalType": "address payable"
								},
								{
									"name": "lockedUntil",
									"type": "uint256",
									"internalType": "uint256"
								},
								{
									"name": "hook",
									"type": "address",
									"internalType": "contract IJBSplitHook"
								}
							]
						},
						{
							"name": "projectId",
							"type": "uint256",
							"internalType": "uint256"
						},
						{
							"name": "token",
							"type": "address",
							"internalType": "address"
						},
						{
							"name": "amount",
							"type": "uint256",
							"internalType": "uint256"
						},
						{
							"name": "originalMessageSender",
							"type": "address",
							"internalType": "address"
						}
					],
					"outputs": [
						{
							"name": "netPayoutAmount",
							"type": "uint256",
							"internalType": "uint256"
						}
					],
					"stateMutability": "nonpayable"
				},
				{
					"type": "function",
					"name": "executeProcessFee",
					"inputs": [
						{
							"name": "projectId",
							"type": "uint256",
							"internalType": "uint256"
						},
						{
							"name": "token",
							"type": "address",
							"internalType": "address"
						},
						{
							"name": "amount",
							"type": "uint256",
							"internalType": "uint256"
						},
						{
							"name": "beneficiary",
							"type": "address",
							"internalType": "address"
						},
						{
							"name": "feeTerminal",
							"type": "address",
							"internalType": "contract IJBTerminal"
						}
					],
					"outputs": [],
					"stateMutability": "nonpayable"
				},
				{
					"type": "function",
					"name": "heldFeesOf",
					"inputs": [
						{
							"name": "projectId",
							"type": "uint256",
							"internalType": "uint256"
						},
						{
							"name": "token",
							"type": "address",
							"internalType": "address"
						}
					],
					"outputs": [
						{
							"name": "",
							"type": "tuple[]",
							"internalType": "struct JBFee[]",
							"components": [
								{
									"name": "amount",
									"type": "uint256",
									"internalType": "uint256"
								},
								{
									"name": "beneficiary",
									"type": "address",
									"internalType": "address"
								},
								{
									"name": "unlockTimestamp",
									"type": "uint256",
									"internalType": "uint256"
								}
							]
						}
					],
					"stateMutability": "view"
				},
				{
					"type": "function",
					"name": "isTrustedForwarder",
					"inputs": [
						{
							"name": "forwarder",
							"type": "address",
							"internalType": "address"
						}
					],
					"outputs": [
						{
							"name": "",
							"type": "bool",
							"internalType": "bool"
						}
					],
					"stateMutability": "view"
				},
				{
					"type": "function",
					"name": "migrateBalanceOf",
					"inputs": [
						{
							"name": "projectId",
							"type": "uint256",
							"internalType": "uint256"
						},
						{
							"name": "token",
							"type": "address",
							"internalType": "address"
						},
						{
							"name": "to",
							"type": "address",
							"internalType": "contract IJBTerminal"
						}
					],
					"outputs": [
						{
							"name": "balance",
							"type": "uint256",
							"internalType": "uint256"
						}
					],
					"stateMutability": "nonpayable"
				},
				{
					"type": "function",
					"name": "pay",
					"inputs": [
						{
							"name": "projectId",
							"type": "uint256",
							"internalType": "uint256"
						},
						{
							"name": "token",
							"type": "address",
							"internalType": "address"
						},
						{
							"name": "amount",
							"type": "uint256",
							"internalType": "uint256"
						},
						{
							"name": "beneficiary",
							"type": "address",
							"internalType": "address"
						},
						{
							"name": "minReturnedTokens",
							"type": "uint256",
							"internalType": "uint256"
						},
						{
							"name": "memo",
							"type": "string",
							"internalType": "string"
						},
						{
							"name": "metadata",
							"type": "bytes",
							"internalType": "bytes"
						}
					],
					"outputs": [
						{
							"name": "beneficiaryTokenCount",
							"type": "uint256",
							"internalType": "uint256"
						}
					],
					"stateMutability": "payable"
				},
				{
					"type": "function",
					"name": "processHeldFeesOf",
					"inputs": [
						{
							"name": "projectId",
							"type": "uint256",
							"internalType": "uint256"
						},
						{
							"name": "token",
							"type": "address",
							"internalType": "address"
						}
					],
					"outputs": [],
					"stateMutability": "nonpayable"
				},
				{
					"type": "function",
					"name": "redeemTokensOf",
					"inputs": [
						{
							"name": "holder",
							"type": "address",
							"internalType": "address"
						},
						{
							"name": "projectId",
							"type": "uint256",
							"internalType": "uint256"
						},
						{
							"name": "tokenToReclaim",
							"type": "address",
							"internalType": "address"
						},
						{
							"name": "redeemCount",
							"type": "uint256",
							"internalType": "uint256"
						},
						{
							"name": "minTokensReclaimed",
							"type": "uint256",
							"internalType": "uint256"
						},
						{
							"name": "beneficiary",
							"type": "address",
							"internalType": "address payable"
						},
						{
							"name": "metadata",
							"type": "bytes",
							"internalType": "bytes"
						}
					],
					"outputs": [
						{
							"name": "reclaimAmount",
							"type": "uint256",
							"internalType": "uint256"
						}
					],
					"stateMutability": "nonpayable"
				},
				{
					"type": "function",
					"name": "sendPayoutsOf",
					"inputs": [
						{
							"name": "projectId",
							"type": "uint256",
							"internalType": "uint256"
						},
						{
							"name": "token",
							"type": "address",
							"internalType": "address"
						},
						{
							"name": "amount",
							"type": "uint256",
							"internalType": "uint256"
						},
						{
							"name": "currency",
							"type": "uint256",
							"internalType": "uint256"
						},
						{
							"name": "minTokensPaidOut",
							"type": "uint256",
							"internalType": "uint256"
						}
					],
					"outputs": [
						{
							"name": "amountPaidOut",
							"type": "uint256",
							"internalType": "uint256"
						}
					],
					"stateMutability": "nonpayable"
				},
				{
					"type": "function",
					"name": "supportsInterface",
					"inputs": [
						{
							"name": "interfaceId",
							"type": "bytes4",
							"internalType": "bytes4"
						}
					],
					"outputs": [
						{
							"name": "",
							"type": "bool",
							"internalType": "bool"
						}
					],
					"stateMutability": "view"
				},
				{
					"type": "function",
					"name": "trustedForwarder",
					"inputs": [],
					"outputs": [
						{
							"name": "",
							"type": "address",
							"internalType": "address"
						}
					],
					"stateMutability": "view"
				},
				{
					"type": "function",
					"name": "useAllowanceOf",
					"inputs": [
						{
							"name": "projectId",
							"type": "uint256",
							"internalType": "uint256"
						},
						{
							"name": "token",
							"type": "address",
							"internalType": "address"
						},
						{
							"name": "amount",
							"type": "uint256",
							"internalType": "uint256"
						},
						{
							"name": "currency",
							"type": "uint256",
							"internalType": "uint256"
						},
						{
							"name": "minTokensPaidOut",
							"type": "uint256",
							"internalType": "uint256"
						},
						{
							"name": "beneficiary",
							"type": "address",
							"internalType": "address payable"
						},
						{
							"name": "memo",
							"type": "string",
							"internalType": "string"
						}
					],
					"outputs": [
						{
							"name": "amountPaidOut",
							"type": "uint256",
							"internalType": "uint256"
						}
					],
					"stateMutability": "nonpayable"
				},
				{
					"type": "event",
					"name": "AddToBalance",
					"inputs": [
						{
							"name": "projectId",
							"type": "uint256",
							"indexed": true,
							"internalType": "uint256"
						},
						{
							"name": "amount",
							"type": "uint256",
							"indexed": false,
							"internalType": "uint256"
						},
						{
							"name": "unlockedFees",
							"type": "uint256",
							"indexed": false,
							"internalType": "uint256"
						},
						{
							"name": "memo",
							"type": "string",
							"indexed": false,
							"internalType": "string"
						},
						{
							"name": "metadata",
							"type": "bytes",
							"indexed": false,
							"internalType": "bytes"
						},
						{
							"name": "caller",
							"type": "address",
							"indexed": false,
							"internalType": "address"
						}
					],
					"anonymous": false
				},
				{
					"type": "event",
					"name": "FeeReverted",
					"inputs": [
						{
							"name": "projectId",
							"type": "uint256",
							"indexed": true,
							"internalType": "uint256"
						},
						{
							"name": "token",
							"type": "address",
							"indexed": true,
							"internalType": "address"
						},
						{
							"name": "feeProjectId",
							"type": "uint256",
							"indexed": true,
							"internalType": "uint256"
						},
						{
							"name": "amount",
							"type": "uint256",
							"indexed": false,
							"internalType": "uint256"
						},
						{
							"name": "reason",
							"type": "bytes",
							"indexed": false,
							"internalType": "bytes"
						},
						{
							"name": "caller",
							"type": "address",
							"indexed": false,
							"internalType": "address"
						}
					],
					"anonymous": false
				},
				{
					"type": "event",
					"name": "HoldFee",
					"inputs": [
						{
							"name": "projectId",
							"type": "uint256",
							"indexed": true,
							"internalType": "uint256"
						},
						{
							"name": "token",
							"type": "address",
							"indexed": true,
							"internalType": "address"
						},
						{
							"name": "amount",
							"type": "uint256",
							"indexed": true,
							"internalType": "uint256"
						},
						{
							"name": "fee",
							"type": "uint256",
							"indexed": false,
							"internalType": "uint256"
						},
						{
							"name": "beneficiary",
							"type": "address",
							"indexed": false,
							"internalType": "address"
						},
						{
							"name": "caller",
							"type": "address",
							"indexed": false,
							"internalType": "address"
						}
					],
					"anonymous": false
				},
				{
					"type": "event",
					"name": "HookAfterRecordPay",
					"inputs": [
						{
							"name": "hook",
							"type": "address",
							"indexed": true,
							"internalType": "contract IJBPayHook"
						},
						{
							"name": "context",
							"type": "tuple",
							"indexed": false,
							"internalType": "struct JBAfterPayRecordedContext",
							"components": [
								{
									"name": "payer",
									"type": "address",
									"internalType": "address"
								},
								{
									"name": "projectId",
									"type": "uint256",
									"internalType": "uint256"
								},
								{
									"name": "rulesetId",
									"type": "uint256",
									"internalType": "uint256"
								},
								{
									"name": "amount",
									"type": "tuple",
									"internalType": "struct JBTokenAmount",
									"components": [
										{
											"name": "token",
											"type": "address",
											"internalType": "address"
										},
										{
											"name": "value",
											"type": "uint256",
											"internalType": "uint256"
										},
										{
											"name": "decimals",
											"type": "uint256",
											"internalType": "uint256"
										},
										{
											"name": "currency",
											"type": "uint256",
											"internalType": "uint256"
										}
									]
								},
								{
									"name": "forwardedAmount",
									"type": "tuple",
									"internalType": "struct JBTokenAmount",
									"components": [
										{
											"name": "token",
											"type": "address",
											"internalType": "address"
										},
										{
											"name": "value",
											"type": "uint256",
											"internalType": "uint256"
										},
										{
											"name": "decimals",
											"type": "uint256",
											"internalType": "uint256"
										},
										{
											"name": "currency",
											"type": "uint256",
											"internalType": "uint256"
										}
									]
								},
								{
									"name": "weight",
									"type": "uint256",
									"internalType": "uint256"
								},
								{
									"name": "projectTokenCount",
									"type": "uint256",
									"internalType": "uint256"
								},
								{
									"name": "beneficiary",
									"type": "address",
									"internalType": "address"
								},
								{
									"name": "hookMetadata",
									"type": "bytes",
									"internalType": "bytes"
								},
								{
									"name": "payerMetadata",
									"type": "bytes",
									"internalType": "bytes"
								}
							]
						},
						{
							"name": "specificationAmount",
							"type": "uint256",
							"indexed": false,
							"internalType": "uint256"
						},
						{
							"name": "caller",
							"type": "address",
							"indexed": false,
							"internalType": "address"
						}
					],
					"anonymous": false
				},
				{
					"type": "event",
					"name": "HookAfterRecordRedeem",
					"inputs": [
						{
							"name": "hook",
							"type": "address",
							"indexed": true,
							"internalType": "contract IJBRedeemHook"
						},
						{
							"name": "context",
							"type": "tuple",
							"indexed": false,
							"internalType": "struct JBAfterRedeemRecordedContext",
							"components": [
								{
									"name": "holder",
									"type": "address",
									"internalType": "address"
								},
								{
									"name": "projectId",
									"type": "uint256",
									"internalType": "uint256"
								},
								{
									"name": "rulesetId",
									"type": "uint256",
									"internalType": "uint256"
								},
								{
									"name": "redeemCount",
									"type": "uint256",
									"internalType": "uint256"
								},
								{
									"name": "reclaimedAmount",
									"type": "tuple",
									"internalType": "struct JBTokenAmount",
									"components": [
										{
											"name": "token",
											"type": "address",
											"internalType": "address"
										},
										{
											"name": "value",
											"type": "uint256",
											"internalType": "uint256"
										},
										{
											"name": "decimals",
											"type": "uint256",
											"internalType": "uint256"
										},
										{
											"name": "currency",
											"type": "uint256",
											"internalType": "uint256"
										}
									]
								},
								{
									"name": "forwardedAmount",
									"type": "tuple",
									"internalType": "struct JBTokenAmount",
									"components": [
										{
											"name": "token",
											"type": "address",
											"internalType": "address"
										},
										{
											"name": "value",
											"type": "uint256",
											"internalType": "uint256"
										},
										{
											"name": "decimals",
											"type": "uint256",
											"internalType": "uint256"
										},
										{
											"name": "currency",
											"type": "uint256",
											"internalType": "uint256"
										}
									]
								},
								{
									"name": "redemptionRate",
									"type": "uint256",
									"internalType": "uint256"
								},
								{
									"name": "beneficiary",
									"type": "address",
									"internalType": "address payable"
								},
								{
									"name": "hookMetadata",
									"type": "bytes",
									"internalType": "bytes"
								},
								{
									"name": "redeemerMetadata",
									"type": "bytes",
									"internalType": "bytes"
								}
							]
						},
						{
							"name": "specificationAmount",
							"type": "uint256",
							"indexed": false,
							"internalType": "uint256"
						},
						{
							"name": "fee",
							"type": "uint256",
							"indexed": false,
							"internalType": "uint256"
						},
						{
							"name": "caller",
							"type": "address",
							"indexed": false,
							"internalType": "address"
						}
					],
					"anonymous": false
				},
				{
					"type": "event",
					"name": "MigrateTerminal",
					"inputs": [
						{
							"name": "projectId",
							"type": "uint256",
							"indexed": true,
							"internalType": "uint256"
						},
						{
							"name": "token",
							"type": "address",
							"indexed": true,
							"internalType": "address"
						},
						{
							"name": "to",
							"type": "address",
							"indexed": true,
							"internalType": "contract IJBTerminal"
						},
						{
							"name": "amount",
							"type": "uint256",
							"indexed": false,
							"internalType": "uint256"
						},
						{
							"name": "caller",
							"type": "address",
							"indexed": false,
							"internalType": "address"
						}
					],
					"anonymous": false
				},
				{
					"type": "event",
					"name": "Pay",
					"inputs": [
						{
							"name": "rulesetId",
							"type": "uint256",
							"indexed": true,
							"internalType": "uint256"
						},
						{
							"name": "rulesetCycleNumber",
							"type": "uint256",
							"indexed": true,
							"internalType": "uint256"
						},
						{
							"name": "projectId",
							"type": "uint256",
							"indexed": true,
							"internalType": "uint256"
						},
						{
							"name": "payer",
							"type": "address",
							"indexed": false,
							"internalType": "address"
						},
						{
							"name": "beneficiary",
							"type": "address",
							"indexed": false,
							"internalType": "address"
						},
						{
							"name": "amount",
							"type": "uint256",
							"indexed": false,
							"internalType": "uint256"
						},
						{
							"name": "beneficiaryTokenCount",
							"type": "uint256",
							"indexed": false,
							"internalType": "uint256"
						},
						{
							"name": "memo",
							"type": "string",
							"indexed": false,
							"internalType": "string"
						},
						{
							"name": "metadata",
							"type": "bytes",
							"indexed": false,
							"internalType": "bytes"
						},
						{
							"name": "caller",
							"type": "address",
							"indexed": false,
							"internalType": "address"
						}
					],
					"anonymous": false
				},
				{
					"type": "event",
					"name": "PayoutReverted",
					"inputs": [
						{
							"name": "projectId",
							"type": "uint256",
							"indexed": true,
							"internalType": "uint256"
						},
						{
							"name": "split",
							"type": "tuple",
							"indexed": false,
							"internalType": "struct JBSplit",
							"components": [
								{
									"name": "preferAddToBalance",
									"type": "bool",
									"internalType": "bool"
								},
								{
									"name": "percent",
									"type": "uint256",
									"internalType": "uint256"
								},
								{
									"name": "projectId",
									"type": "uint256",
									"internalType": "uint256"
								},
								{
									"name": "beneficiary",
									"type": "address",
									"internalType": "address payable"
								},
								{
									"name": "lockedUntil",
									"type": "uint256",
									"internalType": "uint256"
								},
								{
									"name": "hook",
									"type": "address",
									"internalType": "contract IJBSplitHook"
								}
							]
						},
						{
							"name": "amount",
							"type": "uint256",
							"indexed": false,
							"internalType": "uint256"
						},
						{
							"name": "reason",
							"type": "bytes",
							"indexed": false,
							"internalType": "bytes"
						},
						{
							"name": "caller",
							"type": "address",
							"indexed": false,
							"internalType": "address"
						}
					],
					"anonymous": false
				},
				{
					"type": "event",
					"name": "ProcessFee",
					"inputs": [
						{
							"name": "projectId",
							"type": "uint256",
							"indexed": true,
							"internalType": "uint256"
						},
						{
							"name": "token",
							"type": "address",
							"indexed": true,
							"internalType": "address"
						},
						{
							"name": "amount",
							"type": "uint256",
							"indexed": true,
							"internalType": "uint256"
						},
						{
							"name": "wasHeld",
							"type": "bool",
							"indexed": false,
							"internalType": "bool"
						},
						{
							"name": "beneficiary",
							"type": "address",
							"indexed": false,
							"internalType": "address"
						},
						{
							"name": "caller",
							"type": "address",
							"indexed": false,
							"internalType": "address"
						}
					],
					"anonymous": false
				},
				{
					"type": "event",
					"name": "RedeemTokens",
					"inputs": [
						{
							"name": "rulesetId",
							"type": "uint256",
							"indexed": true,
							"internalType": "uint256"
						},
						{
							"name": "rulesetCycleNumber",
							"type": "uint256",
							"indexed": true,
							"internalType": "uint256"
						},
						{
							"name": "projectId",
							"type": "uint256",
							"indexed": true,
							"internalType": "uint256"
						},
						{
							"name": "holder",
							"type": "address",
							"indexed": false,
							"internalType": "address"
						},
						{
							"name": "beneficiary",
							"type": "address",
							"indexed": false,
							"internalType": "address"
						},
						{
							"name": "tokenCount",
							"type": "uint256",
							"indexed": false,
							"internalType": "uint256"
						},
						{
							"name": "redemptionRate",
							"type": "uint256",
							"indexed": false,
							"internalType": "uint256"
						},
						{
							"name": "reclaimedAmount",
							"type": "uint256",
							"indexed": false,
							"internalType": "uint256"
						},
						{
							"name": "metadata",
							"type": "bytes",
							"indexed": false,
							"internalType": "bytes"
						},
						{
							"name": "caller",
							"type": "address",
							"indexed": false,
							"internalType": "address"
						}
					],
					"anonymous": false
				},
				{
					"type": "event",
					"name": "ReturnHeldFees",
					"inputs": [
						{
							"name": "projectId",
							"type": "uint256",
							"indexed": true,
							"internalType": "uint256"
						},
						{
							"name": "token",
							"type": "address",
							"indexed": true,
							"internalType": "address"
						},
						{
							"name": "amount",
							"type": "uint256",
							"indexed": true,
							"internalType": "uint256"
						},
						{
							"name": "returnedFees",
							"type": "uint256",
							"indexed": false,
							"internalType": "uint256"
						},
						{
							"name": "leftoverAmount",
							"type": "uint256",
							"indexed": false,
							"internalType": "uint256"
						},
						{
							"name": "caller",
							"type": "address",
							"indexed": false,
							"internalType": "address"
						}
					],
					"anonymous": false
				},
				{
					"type": "event",
					"name": "SendPayoutToSplit",
					"inputs": [
						{
							"name": "projectId",
							"type": "uint256",
							"indexed": true,
							"internalType": "uint256"
						},
						{
							"name": "rulesetId",
							"type": "uint256",
							"indexed": true,
							"internalType": "uint256"
						},
						{
							"name": "group",
							"type": "uint256",
							"indexed": true,
							"internalType": "uint256"
						},
						{
							"name": "split",
							"type": "tuple",
							"indexed": false,
							"internalType": "struct JBSplit",
							"components": [
								{
									"name": "preferAddToBalance",
									"type": "bool",
									"internalType": "bool"
								},
								{
									"name": "percent",
									"type": "uint256",
									"internalType": "uint256"
								},
								{
									"name": "projectId",
									"type": "uint256",
									"internalType": "uint256"
								},
								{
									"name": "beneficiary",
									"type": "address",
									"internalType": "address payable"
								},
								{
									"name": "lockedUntil",
									"type": "uint256",
									"internalType": "uint256"
								},
								{
									"name": "hook",
									"type": "address",
									"internalType": "contract IJBSplitHook"
								}
							]
						},
						{
							"name": "amount",
							"type": "uint256",
							"indexed": false,
							"internalType": "uint256"
						},
						{
							"name": "netAmount",
							"type": "uint256",
							"indexed": false,
							"internalType": "uint256"
						},
						{
							"name": "caller",
							"type": "address",
							"indexed": false,
							"internalType": "address"
						}
					],
					"anonymous": false
				},
				{
					"type": "event",
					"name": "SendPayouts",
					"inputs": [
						{
							"name": "rulesetId",
							"type": "uint256",
							"indexed": true,
							"internalType": "uint256"
						},
						{
							"name": "rulesetCycleNumber",
							"type": "uint256",
							"indexed": true,
							"internalType": "uint256"
						},
						{
							"name": "projectId",
							"type": "uint256",
							"indexed": true,
							"internalType": "uint256"
						},
						{
							"name": "beneficiary",
							"type": "address",
							"indexed": false,
							"internalType": "address"
						},
						{
							"name": "amount",
							"type": "uint256",
							"indexed": false,
							"internalType": "uint256"
						},
						{
							"name": "amountPaidOut",
							"type": "uint256",
							"indexed": false,
							"internalType": "uint256"
						},
						{
							"name": "fee",
							"type": "uint256",
							"indexed": false,
							"internalType": "uint256"
						},
						{
							"name": "beneficiaryDistributionAmount",
							"type": "uint256",
							"indexed": false,
							"internalType": "uint256"
						},
						{
							"name": "caller",
							"type": "address",
							"indexed": false,
							"internalType": "address"
						}
					],
					"anonymous": false
				},
				{
					"type": "event",
					"name": "SetAccountingContext",
					"inputs": [
						{
							"name": "projectId",
							"type": "uint256",
							"indexed": true,
							"internalType": "uint256"
						},
						{
							"name": "token",
							"type": "address",
							"indexed": true,
							"internalType": "address"
						},
						{
							"name": "context",
							"type": "tuple",
							"indexed": false,
							"internalType": "struct JBAccountingContext",
							"components": [
								{
									"name": "token",
									"type": "address",
									"internalType": "address"
								},
								{
									"name": "decimals",
									"type": "uint8",
									"internalType": "uint8"
								},
								{
									"name": "currency",
									"type": "uint32",
									"internalType": "uint32"
								}
							]
						},
						{
							"name": "caller",
							"type": "address",
							"indexed": false,
							"internalType": "address"
						}
					],
					"anonymous": false
				},
				{
					"type": "event",
					"name": "UseAllowance",
					"inputs": [
						{
							"name": "rulesetId",
							"type": "uint256",
							"indexed": true,
							"internalType": "uint256"
						},
						{
							"name": "rulesetCycleNumber",
							"type": "uint256",
							"indexed": true,
							"internalType": "uint256"
						},
						{
							"name": "projectId",
							"type": "uint256",
							"indexed": true,
							"internalType": "uint256"
						},
						{
							"name": "beneficiary",
							"type": "address",
							"indexed": false,
							"internalType": "address"
						},
						{
							"name": "amount",
							"type": "uint256",
							"indexed": false,
							"internalType": "uint256"
						},
						{
							"name": "amountPaidOut",
							"type": "uint256",
							"indexed": false,
							"internalType": "uint256"
						},
						{
							"name": "netAmountPaidOut",
							"type": "uint256",
							"indexed": false,
							"internalType": "uint256"
						},
						{
							"name": "memo",
							"type": "string",
							"indexed": false,
							"internalType": "string"
						},
						{
							"name": "caller",
							"type": "address",
							"indexed": false,
							"internalType": "address"
						}
					],
					"anonymous": false
				},
				{
					"type": "error",
					"name": "ACCOUNTING_CONTEXT_ALREADY_SET",
					"inputs": []
				},
				{
					"type": "error",
					"name": "AddressEmptyCode",
					"inputs": [
						{
							"name": "target",
							"type": "address",
							"internalType": "address"
						}
					]
				},
				{
					"type": "error",
					"name": "AddressInsufficientBalance",
					"inputs": [
						{
							"name": "account",
							"type": "address",
							"internalType": "address"
						}
					]
				},
				{
					"type": "error",
					"name": "FailedInnerCall",
					"inputs": []
				},
				{
					"type": "error",
					"name": "INADEQUATE_PAYOUT_AMOUNT",
					"inputs": []
				},
				{
					"type": "error",
					"name": "INADEQUATE_RECLAIM_AMOUNT",
					"inputs": []
				},
				{
					"type": "error",
					"name": "NO_MSG_VALUE_ALLOWED",
					"inputs": []
				},
				{
					"type": "error",
					"name": "OVERFLOW_ALERT",
					"inputs": []
				},
				{
					"type": "error",
					"name": "PERMIT_ALLOWANCE_NOT_ENOUGH",
					"inputs": []
				},
				{
					"type": "error",
					"name": "PRBMath_MulDiv_Overflow",
					"inputs": [
						{
							"name": "x",
							"type": "uint256",
							"internalType": "uint256"
						},
						{
							"name": "y",
							"type": "uint256",
							"internalType": "uint256"
						},
						{
							"name": "denominator",
							"type": "uint256",
							"internalType": "uint256"
						}
					]
				},
				{
					"type": "error",
					"name": "SafeERC20FailedOperation",
					"inputs": [
						{
							"name": "token",
							"type": "address",
							"internalType": "address"
						}
					]
				},
				{
					"type": "error",
					"name": "TERMINAL_TOKENS_INCOMPATIBLE",
					"inputs": []
				},
				{
					"type": "error",
					"name": "TOKEN_NOT_ACCEPTED",
					"inputs": []
				},
				{
					"type": "error",
					"name": "UNAUTHORIZED",
					"inputs": []
				},
				{
					"type": "error",
					"name": "UNDER_MIN_RETURNED_TOKENS",
					"inputs": []
				}
			],
			"solcInputHash": "5d7a79485a8a4fd8d39819ca7cc29822",
			"receipt": {
				"blockHash": "0x663ae55d143679add7f9653636d93ec88ec3d3102f12fe973b495ae0a4e9b55e",
				"blockNumber": 9448384,
				"contractAddress": null,
				"cumulativeGasUsed": "10158205",
				"from": "0xC034550B542b83BA1De312b21d1C94a9a52B1595",
				"gasPrice": "1000304",
				"gasUsed": "9761685",
				"hash": "0x76fef0330bbd03fbf24dc9aa45e050740913e5f61a3e104c3b5035c10294eb36",
				"index": 2,
				"logs": [
					{
						"address": "0xB5E96127D417b1B3ef8438496a38A143167209c7",
						"blockHash": "0x663ae55d143679add7f9653636d93ec88ec3d3102f12fe973b495ae0a4e9b55e",
						"blockNumber": 9448384,
						"data": "0x0000000000000000000000000000000000000000000000000000000000000000",
						"index": 5,
						"topics": [
							"0x572f161235911da04685a68c06adf558fc7e4a36909dca394650e0adc19cc93d",
							"0x000000000000000000000000c034550b542b83ba1de312b21d1c94a9a52b1595",
							"0x000000000000000000000000ef1be3c049809cace5bc203bbe4ec1ab284bf75c",
							"0x0d863a10e9c86fc2b32d9841b9602f2a842d928fd076735786c136afd13920d5"
						],
						"transactionHash": "0x76fef0330bbd03fbf24dc9aa45e050740913e5f61a3e104c3b5035c10294eb36",
						"transactionIndex": 2
					},
					{
						"address": "0x3C61761293b40003584ad6269e06B26eA651c9AB",
						"blockHash": "0x663ae55d143679add7f9653636d93ec88ec3d3102f12fe973b495ae0a4e9b55e",
						"blockNumber": 9448384,
						"data": "0x",
						"index": 6,
						"topics": [
							"0x8be0079c531659141344cd1fd0a4f28419497f9722a3daafe3b4186f6b6457e0",
							"0x0000000000000000000000000000000000000000000000000000000000000000",
							"0x0000000000000000000000001081b5aa9d9d4862a3da4d469433fb36ed80fa2a"
						],
						"transactionHash": "0x76fef0330bbd03fbf24dc9aa45e050740913e5f61a3e104c3b5035c10294eb36",
						"transactionIndex": 2
					},
					{
						"address": "0x1081B5AA9D9d4862A3dA4d469433FB36Ed80FA2A",
						"blockHash": "0x663ae55d143679add7f9653636d93ec88ec3d3102f12fe973b495ae0a4e9b55e",
						"blockNumber": 9448384,
						"data": "0x",
						"index": 7,
						"topics": [
							"0x6895c13664aa4f67288b25d7a21d7aaa34916e355fb9b6fae0a139a9085becb8",
							"0x000000000000000000000000ef1be3c049809cace5bc203bbe4ec1ab284bf75c"
						],
						"transactionHash": "0x76fef0330bbd03fbf24dc9aa45e050740913e5f61a3e104c3b5035c10294eb36",
						"transactionIndex": 2
					},
					{
						"address": "0xEf1Be3C049809caCe5Bc203BBe4Ec1Ab284bF75c",
						"blockHash": "0x663ae55d143679add7f9653636d93ec88ec3d3102f12fe973b495ae0a4e9b55e",
						"blockNumber": 9448384,
						"data": "0x000000000000000000000000000000000000000000000000000000000000000c",
						"index": 8,
						"topics": [
							"0xa65fb05c5808f5f389d72edeaf719ce38f4cc55c1f69ca3cbfb31c21501caa07",
							"0x1c031ac0217a16bc8b880bc3a6e637a3fb319bf6343a8af2f9d37587d2ef9836"
						],
						"transactionHash": "0x76fef0330bbd03fbf24dc9aa45e050740913e5f61a3e104c3b5035c10294eb36",
						"transactionIndex": 2
					},
					{
						"address": "0x1081B5AA9D9d4862A3dA4d469433FB36Ed80FA2A",
						"blockHash": "0x663ae55d143679add7f9653636d93ec88ec3d3102f12fe973b495ae0a4e9b55e",
						"blockNumber": 9448384,
						"data": "0x",
						"index": 9,
						"topics": [
							"0x6895c13664aa4f67288b25d7a21d7aaa34916e355fb9b6fae0a139a9085becb8",
							"0x000000000000000000000000ef1be3c049809cace5bc203bbe4ec1ab284bf75c"
						],
						"transactionHash": "0x76fef0330bbd03fbf24dc9aa45e050740913e5f61a3e104c3b5035c10294eb36",
						"transactionIndex": 2
					},
					{
						"address": "0xEf1Be3C049809caCe5Bc203BBe4Ec1Ab284bF75c",
						"blockHash": "0x663ae55d143679add7f9653636d93ec88ec3d3102f12fe973b495ae0a4e9b55e",
						"blockNumber": 9448384,
						"data": "0x000000000000000000000000000000000000000000000000000000000000000d",
						"index": 10,
						"topics": [
							"0xa65fb05c5808f5f389d72edeaf719ce38f4cc55c1f69ca3cbfb31c21501caa07",
							"0x1c031ac0217a16bc8b880bc3a6e637a3fb319bf6343a8af2f9d37587d2ef9836"
						],
						"transactionHash": "0x76fef0330bbd03fbf24dc9aa45e050740913e5f61a3e104c3b5035c10294eb36",
						"transactionIndex": 2
					},
					{
						"address": "0x1081B5AA9D9d4862A3dA4d469433FB36Ed80FA2A",
						"blockHash": "0x663ae55d143679add7f9653636d93ec88ec3d3102f12fe973b495ae0a4e9b55e",
						"blockNumber": 9448384,
						"data": "0x",
						"index": 11,
						"topics": [
							"0x6895c13664aa4f67288b25d7a21d7aaa34916e355fb9b6fae0a139a9085becb8",
							"0x000000000000000000000000ef1be3c049809cace5bc203bbe4ec1ab284bf75c"
						],
						"transactionHash": "0x76fef0330bbd03fbf24dc9aa45e050740913e5f61a3e104c3b5035c10294eb36",
						"transactionIndex": 2
					},
					{
						"address": "0xEf1Be3C049809caCe5Bc203BBe4Ec1Ab284bF75c",
						"blockHash": "0x663ae55d143679add7f9653636d93ec88ec3d3102f12fe973b495ae0a4e9b55e",
						"blockNumber": 9448384,
						"data": "0x000000000000000000000000000000000000000000000000000000000000000e",
						"index": 12,
						"topics": [
							"0xa65fb05c5808f5f389d72edeaf719ce38f4cc55c1f69ca3cbfb31c21501caa07",
							"0x1c031ac0217a16bc8b880bc3a6e637a3fb319bf6343a8af2f9d37587d2ef9836"
						],
						"transactionHash": "0x76fef0330bbd03fbf24dc9aa45e050740913e5f61a3e104c3b5035c10294eb36",
						"transactionIndex": 2
					},
					{
						"address": "0x2ca466eB84DD69A99E25d10BBbdA6e1B3c562c49",
						"blockHash": "0x663ae55d143679add7f9653636d93ec88ec3d3102f12fe973b495ae0a4e9b55e",
						"blockNumber": 9448384,
						"data": "0x",
						"index": 13,
						"topics": [
							"0xddf252ad1be2c89b69c2b068fc378daa952ba7f163c4a11628f55a4df523b3ef",
							"0x0000000000000000000000001081b5aa9d9d4862a3da4d469433fb36ed80fa2a",
							"0x0000000000000000000000001f96512db9a74b8805d900c8e553879c0cb8bb2a",
							"0x0000000000000000000000000000000000000000000000000000000000000001"
						],
						"transactionHash": "0x76fef0330bbd03fbf24dc9aa45e050740913e5f61a3e104c3b5035c10294eb36",
						"transactionIndex": 2
					},
					{
						"address": "0x1081B5AA9D9d4862A3dA4d469433FB36Ed80FA2A",
						"blockHash": "0x663ae55d143679add7f9653636d93ec88ec3d3102f12fe973b495ae0a4e9b55e",
						"blockNumber": 9448384,
						"data": "0x",
						"index": 14,
						"topics": [
							"0x6895c13664aa4f67288b25d7a21d7aaa34916e355fb9b6fae0a139a9085becb8",
							"0x000000000000000000000000ef1be3c049809cace5bc203bbe4ec1ab284bf75c"
						],
						"transactionHash": "0x76fef0330bbd03fbf24dc9aa45e050740913e5f61a3e104c3b5035c10294eb36",
						"transactionIndex": 2
					},
					{
						"address": "0xEf1Be3C049809caCe5Bc203BBe4Ec1Ab284bF75c",
						"blockHash": "0x663ae55d143679add7f9653636d93ec88ec3d3102f12fe973b495ae0a4e9b55e",
						"blockNumber": 9448384,
						"data": "0x000000000000000000000000000000000000000000000000000000000000000f",
						"index": 15,
						"topics": [
							"0xa65fb05c5808f5f389d72edeaf719ce38f4cc55c1f69ca3cbfb31c21501caa07",
							"0x1c031ac0217a16bc8b880bc3a6e637a3fb319bf6343a8af2f9d37587d2ef9836"
						],
						"transactionHash": "0x76fef0330bbd03fbf24dc9aa45e050740913e5f61a3e104c3b5035c10294eb36",
						"transactionIndex": 2
					},
					{
						"address": "0xEf1Be3C049809caCe5Bc203BBe4Ec1Ab284bF75c",
						"blockHash": "0x663ae55d143679add7f9653636d93ec88ec3d3102f12fe973b495ae0a4e9b55e",
						"blockNumber": 9448384,
						"data": "0x",
						"index": 16,
						"topics": [
							"0x4383d976757d67ca920616be0b6430a681ea9d3dcce8d6d61d4603ca4a9bff63",
							"0x1c031ac0217a16bc8b880bc3a6e637a3fb319bf6343a8af2f9d37587d2ef9836"
						],
						"transactionHash": "0x76fef0330bbd03fbf24dc9aa45e050740913e5f61a3e104c3b5035c10294eb36",
						"transactionIndex": 2
					}
				],
				"logsBloom": "0x000000000800100000080000000800000000000000080000008000000040000000600080000000000000000000404800000000000000000000000000001400000000000000002004000000080100000000010000000c000000020000000000000000000002000004000000000000080008000010000000000000001000000040000100080000000000010000000000000000000000000000000080000000000000400080001000000100000000000002020800000000000001000000000600000000000200000020000000000800000000000000000000000000000000006000000040000000020c000008000000000200000000000000000040000008000000",
				"status": 1,
				"to": "0xB5E96127D417b1B3ef8438496a38A143167209c7"
			},
			"metadata": "{\"compiler\":{\"version\":\"0.8.23+commit.f704f362\"},\"language\":\"Solidity\",\"output\":{\"abi\":[{\"inputs\":[{\"internalType\":\"contract IJBPermissions\",\"name\":\"permissions\",\"type\":\"address\"},{\"internalType\":\"contract IJBProjects\",\"name\":\"projects\",\"type\":\"address\"},{\"internalType\":\"contract IJBDirectory\",\"name\":\"directory\",\"type\":\"address\"},{\"internalType\":\"contract IJBSplits\",\"name\":\"splits\",\"type\":\"address\"},{\"internalType\":\"contract IJBTerminalStore\",\"name\":\"store\",\"type\":\"address\"},{\"internalType\":\"contract IJBFeelessAddresses\",\"name\":\"feelessAddresses\",\"type\":\"address\"},{\"internalType\":\"contract IPermit2\",\"name\":\"permit2\",\"type\":\"address\"},{\"internalType\":\"address\",\"name\":\"trustedForwarder\",\"type\":\"address\"}],\"stateMutability\":\"nonpayable\",\"type\":\"constructor\"},{\"inputs\":[],\"type\":\"error\",\"name\":\"ACCOUNTING_CONTEXT_ALREADY_SET\"},{\"inputs\":[{\"internalType\":\"address\",\"name\":\"target\",\"type\":\"address\"}],\"type\":\"error\",\"name\":\"AddressEmptyCode\"},{\"inputs\":[{\"internalType\":\"address\",\"name\":\"account\",\"type\":\"address\"}],\"type\":\"error\",\"name\":\"AddressInsufficientBalance\"},{\"inputs\":[],\"type\":\"error\",\"name\":\"FailedInnerCall\"},{\"inputs\":[],\"type\":\"error\",\"name\":\"INADEQUATE_PAYOUT_AMOUNT\"},{\"inputs\":[],\"type\":\"error\",\"name\":\"INADEQUATE_RECLAIM_AMOUNT\"},{\"inputs\":[],\"type\":\"error\",\"name\":\"NO_MSG_VALUE_ALLOWED\"},{\"inputs\":[],\"type\":\"error\",\"name\":\"OVERFLOW_ALERT\"},{\"inputs\":[],\"type\":\"error\",\"name\":\"PERMIT_ALLOWANCE_NOT_ENOUGH\"},{\"inputs\":[{\"internalType\":\"uint256\",\"name\":\"x\",\"type\":\"uint256\"},{\"internalType\":\"uint256\",\"name\":\"y\",\"type\":\"uint256\"},{\"internalType\":\"uint256\",\"name\":\"denominator\",\"type\":\"uint256\"}],\"type\":\"error\",\"name\":\"PRBMath_MulDiv_Overflow\"},{\"inputs\":[{\"internalType\":\"address\",\"name\":\"token\",\"type\":\"address\"}],\"type\":\"error\",\"name\":\"SafeERC20FailedOperation\"},{\"inputs\":[],\"type\":\"error\",\"name\":\"TERMINAL_TOKENS_INCOMPATIBLE\"},{\"inputs\":[],\"type\":\"error\",\"name\":\"TOKEN_NOT_ACCEPTED\"},{\"inputs\":[],\"type\":\"error\",\"name\":\"UNAUTHORIZED\"},{\"inputs\":[],\"type\":\"error\",\"name\":\"UNDER_MIN_RETURNED_TOKENS\"},{\"inputs\":[{\"internalType\":\"uint256\",\"name\":\"projectId\",\"type\":\"uint256\",\"indexed\":true},{\"internalType\":\"uint256\",\"name\":\"amount\",\"type\":\"uint256\",\"indexed\":false},{\"internalType\":\"uint256\",\"name\":\"unlockedFees\",\"type\":\"uint256\",\"indexed\":false},{\"internalType\":\"string\",\"name\":\"memo\",\"type\":\"string\",\"indexed\":false},{\"internalType\":\"bytes\",\"name\":\"metadata\",\"type\":\"bytes\",\"indexed\":false},{\"internalType\":\"address\",\"name\":\"caller\",\"type\":\"address\",\"indexed\":false}],\"type\":\"event\",\"name\":\"AddToBalance\",\"anonymous\":false},{\"inputs\":[{\"internalType\":\"uint256\",\"name\":\"projectId\",\"type\":\"uint256\",\"indexed\":true},{\"internalType\":\"address\",\"name\":\"token\",\"type\":\"address\",\"indexed\":true},{\"internalType\":\"uint256\",\"name\":\"feeProjectId\",\"type\":\"uint256\",\"indexed\":true},{\"internalType\":\"uint256\",\"name\":\"amount\",\"type\":\"uint256\",\"indexed\":false},{\"internalType\":\"bytes\",\"name\":\"reason\",\"type\":\"bytes\",\"indexed\":false},{\"internalType\":\"address\",\"name\":\"caller\",\"type\":\"address\",\"indexed\":false}],\"type\":\"event\",\"name\":\"FeeReverted\",\"anonymous\":false},{\"inputs\":[{\"internalType\":\"uint256\",\"name\":\"projectId\",\"type\":\"uint256\",\"indexed\":true},{\"internalType\":\"address\",\"name\":\"token\",\"type\":\"address\",\"indexed\":true},{\"internalType\":\"uint256\",\"name\":\"amount\",\"type\":\"uint256\",\"indexed\":true},{\"internalType\":\"uint256\",\"name\":\"fee\",\"type\":\"uint256\",\"indexed\":false},{\"internalType\":\"address\",\"name\":\"beneficiary\",\"type\":\"address\",\"indexed\":false},{\"internalType\":\"address\",\"name\":\"caller\",\"type\":\"address\",\"indexed\":false}],\"type\":\"event\",\"name\":\"HoldFee\",\"anonymous\":false},{\"inputs\":[{\"internalType\":\"contract IJBPayHook\",\"name\":\"hook\",\"type\":\"address\",\"indexed\":true},{\"internalType\":\"struct JBAfterPayRecordedContext\",\"name\":\"context\",\"type\":\"tuple\",\"components\":[{\"internalType\":\"address\",\"name\":\"payer\",\"type\":\"address\"},{\"internalType\":\"uint256\",\"name\":\"projectId\",\"type\":\"uint256\"},{\"internalType\":\"uint256\",\"name\":\"rulesetId\",\"type\":\"uint256\"},{\"internalType\":\"struct JBTokenAmount\",\"name\":\"amount\",\"type\":\"tuple\",\"components\":[{\"internalType\":\"address\",\"name\":\"token\",\"type\":\"address\"},{\"internalType\":\"uint256\",\"name\":\"value\",\"type\":\"uint256\"},{\"internalType\":\"uint256\",\"name\":\"decimals\",\"type\":\"uint256\"},{\"internalType\":\"uint256\",\"name\":\"currency\",\"type\":\"uint256\"}]},{\"internalType\":\"struct JBTokenAmount\",\"name\":\"forwardedAmount\",\"type\":\"tuple\",\"components\":[{\"internalType\":\"address\",\"name\":\"token\",\"type\":\"address\"},{\"internalType\":\"uint256\",\"name\":\"value\",\"type\":\"uint256\"},{\"internalType\":\"uint256\",\"name\":\"decimals\",\"type\":\"uint256\"},{\"internalType\":\"uint256\",\"name\":\"currency\",\"type\":\"uint256\"}]},{\"internalType\":\"uint256\",\"name\":\"weight\",\"type\":\"uint256\"},{\"internalType\":\"uint256\",\"name\":\"projectTokenCount\",\"type\":\"uint256\"},{\"internalType\":\"address\",\"name\":\"beneficiary\",\"type\":\"address\"},{\"internalType\":\"bytes\",\"name\":\"hookMetadata\",\"type\":\"bytes\"},{\"internalType\":\"bytes\",\"name\":\"payerMetadata\",\"type\":\"bytes\"}],\"indexed\":false},{\"internalType\":\"uint256\",\"name\":\"specificationAmount\",\"type\":\"uint256\",\"indexed\":false},{\"internalType\":\"address\",\"name\":\"caller\",\"type\":\"address\",\"indexed\":false}],\"type\":\"event\",\"name\":\"HookAfterRecordPay\",\"anonymous\":false},{\"inputs\":[{\"internalType\":\"contract IJBRedeemHook\",\"name\":\"hook\",\"type\":\"address\",\"indexed\":true},{\"internalType\":\"struct JBAfterRedeemRecordedContext\",\"name\":\"context\",\"type\":\"tuple\",\"components\":[{\"internalType\":\"address\",\"name\":\"holder\",\"type\":\"address\"},{\"internalType\":\"uint256\",\"name\":\"projectId\",\"type\":\"uint256\"},{\"internalType\":\"uint256\",\"name\":\"rulesetId\",\"type\":\"uint256\"},{\"internalType\":\"uint256\",\"name\":\"redeemCount\",\"type\":\"uint256\"},{\"internalType\":\"struct JBTokenAmount\",\"name\":\"reclaimedAmount\",\"type\":\"tuple\",\"components\":[{\"internalType\":\"address\",\"name\":\"token\",\"type\":\"address\"},{\"internalType\":\"uint256\",\"name\":\"value\",\"type\":\"uint256\"},{\"internalType\":\"uint256\",\"name\":\"decimals\",\"type\":\"uint256\"},{\"internalType\":\"uint256\",\"name\":\"currency\",\"type\":\"uint256\"}]},{\"internalType\":\"struct JBTokenAmount\",\"name\":\"forwardedAmount\",\"type\":\"tuple\",\"components\":[{\"internalType\":\"address\",\"name\":\"token\",\"type\":\"address\"},{\"internalType\":\"uint256\",\"name\":\"value\",\"type\":\"uint256\"},{\"internalType\":\"uint256\",\"name\":\"decimals\",\"type\":\"uint256\"},{\"internalType\":\"uint256\",\"name\":\"currency\",\"type\":\"uint256\"}]},{\"internalType\":\"uint256\",\"name\":\"redemptionRate\",\"type\":\"uint256\"},{\"internalType\":\"address payable\",\"name\":\"beneficiary\",\"type\":\"address\"},{\"internalType\":\"bytes\",\"name\":\"hookMetadata\",\"type\":\"bytes\"},{\"internalType\":\"bytes\",\"name\":\"redeemerMetadata\",\"type\":\"bytes\"}],\"indexed\":false},{\"internalType\":\"uint256\",\"name\":\"specificationAmount\",\"type\":\"uint256\",\"indexed\":false},{\"internalType\":\"uint256\",\"name\":\"fee\",\"type\":\"uint256\",\"indexed\":false},{\"internalType\":\"address\",\"name\":\"caller\",\"type\":\"address\",\"indexed\":false}],\"type\":\"event\",\"name\":\"HookAfterRecordRedeem\",\"anonymous\":false},{\"inputs\":[{\"internalType\":\"uint256\",\"name\":\"projectId\",\"type\":\"uint256\",\"indexed\":true},{\"internalType\":\"address\",\"name\":\"token\",\"type\":\"address\",\"indexed\":true},{\"internalType\":\"contract IJBTerminal\",\"name\":\"to\",\"type\":\"address\",\"indexed\":true},{\"internalType\":\"uint256\",\"name\":\"amount\",\"type\":\"uint256\",\"indexed\":false},{\"internalType\":\"address\",\"name\":\"caller\",\"type\":\"address\",\"indexed\":false}],\"type\":\"event\",\"name\":\"MigrateTerminal\",\"anonymous\":false},{\"inputs\":[{\"internalType\":\"uint256\",\"name\":\"rulesetId\",\"type\":\"uint256\",\"indexed\":true},{\"internalType\":\"uint256\",\"name\":\"rulesetCycleNumber\",\"type\":\"uint256\",\"indexed\":true},{\"internalType\":\"uint256\",\"name\":\"projectId\",\"type\":\"uint256\",\"indexed\":true},{\"internalType\":\"address\",\"name\":\"payer\",\"type\":\"address\",\"indexed\":false},{\"internalType\":\"address\",\"name\":\"beneficiary\",\"type\":\"address\",\"indexed\":false},{\"internalType\":\"uint256\",\"name\":\"amount\",\"type\":\"uint256\",\"indexed\":false},{\"internalType\":\"uint256\",\"name\":\"beneficiaryTokenCount\",\"type\":\"uint256\",\"indexed\":false},{\"internalType\":\"string\",\"name\":\"memo\",\"type\":\"string\",\"indexed\":false},{\"internalType\":\"bytes\",\"name\":\"metadata\",\"type\":\"bytes\",\"indexed\":false},{\"internalType\":\"address\",\"name\":\"caller\",\"type\":\"address\",\"indexed\":false}],\"type\":\"event\",\"name\":\"Pay\",\"anonymous\":false},{\"inputs\":[{\"internalType\":\"uint256\",\"name\":\"projectId\",\"type\":\"uint256\",\"indexed\":true},{\"internalType\":\"struct JBSplit\",\"name\":\"split\",\"type\":\"tuple\",\"components\":[{\"internalType\":\"bool\",\"name\":\"preferAddToBalance\",\"type\":\"bool\"},{\"internalType\":\"uint256\",\"name\":\"percent\",\"type\":\"uint256\"},{\"internalType\":\"uint256\",\"name\":\"projectId\",\"type\":\"uint256\"},{\"internalType\":\"address payable\",\"name\":\"beneficiary\",\"type\":\"address\"},{\"internalType\":\"uint256\",\"name\":\"lockedUntil\",\"type\":\"uint256\"},{\"internalType\":\"contract IJBSplitHook\",\"name\":\"hook\",\"type\":\"address\"}],\"indexed\":false},{\"internalType\":\"uint256\",\"name\":\"amount\",\"type\":\"uint256\",\"indexed\":false},{\"internalType\":\"bytes\",\"name\":\"reason\",\"type\":\"bytes\",\"indexed\":false},{\"internalType\":\"address\",\"name\":\"caller\",\"type\":\"address\",\"indexed\":false}],\"type\":\"event\",\"name\":\"PayoutReverted\",\"anonymous\":false},{\"inputs\":[{\"internalType\":\"uint256\",\"name\":\"projectId\",\"type\":\"uint256\",\"indexed\":true},{\"internalType\":\"address\",\"name\":\"token\",\"type\":\"address\",\"indexed\":true},{\"internalType\":\"uint256\",\"name\":\"amount\",\"type\":\"uint256\",\"indexed\":true},{\"internalType\":\"bool\",\"name\":\"wasHeld\",\"type\":\"bool\",\"indexed\":false},{\"internalType\":\"address\",\"name\":\"beneficiary\",\"type\":\"address\",\"indexed\":false},{\"internalType\":\"address\",\"name\":\"caller\",\"type\":\"address\",\"indexed\":false}],\"type\":\"event\",\"name\":\"ProcessFee\",\"anonymous\":false},{\"inputs\":[{\"internalType\":\"uint256\",\"name\":\"rulesetId\",\"type\":\"uint256\",\"indexed\":true},{\"internalType\":\"uint256\",\"name\":\"rulesetCycleNumber\",\"type\":\"uint256\",\"indexed\":true},{\"internalType\":\"uint256\",\"name\":\"projectId\",\"type\":\"uint256\",\"indexed\":true},{\"internalType\":\"address\",\"name\":\"holder\",\"type\":\"address\",\"indexed\":false},{\"internalType\":\"address\",\"name\":\"beneficiary\",\"type\":\"address\",\"indexed\":false},{\"internalType\":\"uint256\",\"name\":\"tokenCount\",\"type\":\"uint256\",\"indexed\":false},{\"internalType\":\"uint256\",\"name\":\"redemptionRate\",\"type\":\"uint256\",\"indexed\":false},{\"internalType\":\"uint256\",\"name\":\"reclaimedAmount\",\"type\":\"uint256\",\"indexed\":false},{\"internalType\":\"bytes\",\"name\":\"metadata\",\"type\":\"bytes\",\"indexed\":false},{\"internalType\":\"address\",\"name\":\"caller\",\"type\":\"address\",\"indexed\":false}],\"type\":\"event\",\"name\":\"RedeemTokens\",\"anonymous\":false},{\"inputs\":[{\"internalType\":\"uint256\",\"name\":\"projectId\",\"type\":\"uint256\",\"indexed\":true},{\"internalType\":\"address\",\"name\":\"token\",\"type\":\"address\",\"indexed\":true},{\"internalType\":\"uint256\",\"name\":\"amount\",\"type\":\"uint256\",\"indexed\":true},{\"internalType\":\"uint256\",\"name\":\"returnedFees\",\"type\":\"uint256\",\"indexed\":false},{\"internalType\":\"uint256\",\"name\":\"leftoverAmount\",\"type\":\"uint256\",\"indexed\":false},{\"internalType\":\"address\",\"name\":\"caller\",\"type\":\"address\",\"indexed\":false}],\"type\":\"event\",\"name\":\"ReturnHeldFees\",\"anonymous\":false},{\"inputs\":[{\"internalType\":\"uint256\",\"name\":\"projectId\",\"type\":\"uint256\",\"indexed\":true},{\"internalType\":\"uint256\",\"name\":\"rulesetId\",\"type\":\"uint256\",\"indexed\":true},{\"internalType\":\"uint256\",\"name\":\"group\",\"type\":\"uint256\",\"indexed\":true},{\"internalType\":\"struct JBSplit\",\"name\":\"split\",\"type\":\"tuple\",\"components\":[{\"internalType\":\"bool\",\"name\":\"preferAddToBalance\",\"type\":\"bool\"},{\"internalType\":\"uint256\",\"name\":\"percent\",\"type\":\"uint256\"},{\"internalType\":\"uint256\",\"name\":\"projectId\",\"type\":\"uint256\"},{\"internalType\":\"address payable\",\"name\":\"beneficiary\",\"type\":\"address\"},{\"internalType\":\"uint256\",\"name\":\"lockedUntil\",\"type\":\"uint256\"},{\"internalType\":\"contract IJBSplitHook\",\"name\":\"hook\",\"type\":\"address\"}],\"indexed\":false},{\"internalType\":\"uint256\",\"name\":\"amount\",\"type\":\"uint256\",\"indexed\":false},{\"internalType\":\"uint256\",\"name\":\"netAmount\",\"type\":\"uint256\",\"indexed\":false},{\"internalType\":\"address\",\"name\":\"caller\",\"type\":\"address\",\"indexed\":false}],\"type\":\"event\",\"name\":\"SendPayoutToSplit\",\"anonymous\":false},{\"inputs\":[{\"internalType\":\"uint256\",\"name\":\"rulesetId\",\"type\":\"uint256\",\"indexed\":true},{\"internalType\":\"uint256\",\"name\":\"rulesetCycleNumber\",\"type\":\"uint256\",\"indexed\":true},{\"internalType\":\"uint256\",\"name\":\"projectId\",\"type\":\"uint256\",\"indexed\":true},{\"internalType\":\"address\",\"name\":\"beneficiary\",\"type\":\"address\",\"indexed\":false},{\"internalType\":\"uint256\",\"name\":\"amount\",\"type\":\"uint256\",\"indexed\":false},{\"internalType\":\"uint256\",\"name\":\"amountPaidOut\",\"type\":\"uint256\",\"indexed\":false},{\"internalType\":\"uint256\",\"name\":\"fee\",\"type\":\"uint256\",\"indexed\":false},{\"internalType\":\"uint256\",\"name\":\"beneficiaryDistributionAmount\",\"type\":\"uint256\",\"indexed\":false},{\"internalType\":\"address\",\"name\":\"caller\",\"type\":\"address\",\"indexed\":false}],\"type\":\"event\",\"name\":\"SendPayouts\",\"anonymous\":false},{\"inputs\":[{\"internalType\":\"uint256\",\"name\":\"projectId\",\"type\":\"uint256\",\"indexed\":true},{\"internalType\":\"address\",\"name\":\"token\",\"type\":\"address\",\"indexed\":true},{\"internalType\":\"struct JBAccountingContext\",\"name\":\"context\",\"type\":\"tuple\",\"components\":[{\"internalType\":\"address\",\"name\":\"token\",\"type\":\"address\"},{\"internalType\":\"uint8\",\"name\":\"decimals\",\"type\":\"uint8\"},{\"internalType\":\"uint32\",\"name\":\"currency\",\"type\":\"uint32\"}],\"indexed\":false},{\"internalType\":\"address\",\"name\":\"caller\",\"type\":\"address\",\"indexed\":false}],\"type\":\"event\",\"name\":\"SetAccountingContext\",\"anonymous\":false},{\"inputs\":[{\"internalType\":\"uint256\",\"name\":\"rulesetId\",\"type\":\"uint256\",\"indexed\":true},{\"internalType\":\"uint256\",\"name\":\"rulesetCycleNumber\",\"type\":\"uint256\",\"indexed\":true},{\"internalType\":\"uint256\",\"name\":\"projectId\",\"type\":\"uint256\",\"indexed\":true},{\"internalType\":\"address\",\"name\":\"beneficiary\",\"type\":\"address\",\"indexed\":false},{\"internalType\":\"uint256\",\"name\":\"amount\",\"type\":\"uint256\",\"indexed\":false},{\"internalType\":\"uint256\",\"name\":\"amountPaidOut\",\"type\":\"uint256\",\"indexed\":false},{\"internalType\":\"uint256\",\"name\":\"netAmountPaidOut\",\"type\":\"uint256\",\"indexed\":false},{\"internalType\":\"string\",\"name\":\"memo\",\"type\":\"string\",\"indexed\":false},{\"internalType\":\"address\",\"name\":\"caller\",\"type\":\"address\",\"indexed\":false}],\"type\":\"event\",\"name\":\"UseAllowance\",\"anonymous\":false},{\"inputs\":[],\"stateMutability\":\"view\",\"type\":\"function\",\"name\":\"DIRECTORY\",\"outputs\":[{\"internalType\":\"contract IJBDirectory\",\"name\":\"\",\"type\":\"address\"}]},{\"inputs\":[],\"stateMutability\":\"view\",\"type\":\"function\",\"name\":\"FEE\",\"outputs\":[{\"internalType\":\"uint256\",\"name\":\"\",\"type\":\"uint256\"}]},{\"inputs\":[],\"stateMutability\":\"view\",\"type\":\"function\",\"name\":\"FEELESS_ADDRESSES\",\"outputs\":[{\"internalType\":\"contract IJBFeelessAddresses\",\"name\":\"\",\"type\":\"address\"}]},{\"inputs\":[],\"stateMutability\":\"view\",\"type\":\"function\",\"name\":\"PERMISSIONS\",\"outputs\":[{\"internalType\":\"contract IJBPermissions\",\"name\":\"\",\"type\":\"address\"}]},{\"inputs\":[],\"stateMutability\":\"view\",\"type\":\"function\",\"name\":\"PERMIT2\",\"outputs\":[{\"internalType\":\"contract IPermit2\",\"name\":\"\",\"type\":\"address\"}]},{\"inputs\":[],\"stateMutability\":\"view\",\"type\":\"function\",\"name\":\"PROJECTS\",\"outputs\":[{\"internalType\":\"contract IJBProjects\",\"name\":\"\",\"type\":\"address\"}]},{\"inputs\":[],\"stateMutability\":\"view\",\"type\":\"function\",\"name\":\"SPLITS\",\"outputs\":[{\"internalType\":\"contract IJBSplits\",\"name\":\"\",\"type\":\"address\"}]},{\"inputs\":[],\"stateMutability\":\"view\",\"type\":\"function\",\"name\":\"STORE\",\"outputs\":[{\"internalType\":\"contract IJBTerminalStore\",\"name\":\"\",\"type\":\"address\"}]},{\"inputs\":[{\"internalType\":\"uint256\",\"name\":\"projectId\",\"type\":\"uint256\"},{\"internalType\":\"address\",\"name\":\"token\",\"type\":\"address\"}],\"stateMutability\":\"view\",\"type\":\"function\",\"name\":\"accountingContextForTokenOf\",\"outputs\":[{\"internalType\":\"struct JBAccountingContext\",\"name\":\"\",\"type\":\"tuple\",\"components\":[{\"internalType\":\"address\",\"name\":\"token\",\"type\":\"address\"},{\"internalType\":\"uint8\",\"name\":\"decimals\",\"type\":\"uint8\"},{\"internalType\":\"uint32\",\"name\":\"currency\",\"type\":\"uint32\"}]}]},{\"inputs\":[{\"internalType\":\"uint256\",\"name\":\"projectId\",\"type\":\"uint256\"}],\"stateMutability\":\"view\",\"type\":\"function\",\"name\":\"accountingContextsOf\",\"outputs\":[{\"internalType\":\"struct JBAccountingContext[]\",\"name\":\"\",\"type\":\"tuple[]\",\"components\":[{\"internalType\":\"address\",\"name\":\"token\",\"type\":\"address\"},{\"internalType\":\"uint8\",\"name\":\"decimals\",\"type\":\"uint8\"},{\"internalType\":\"uint32\",\"name\":\"currency\",\"type\":\"uint32\"}]}]},{\"inputs\":[{\"internalType\":\"uint256\",\"name\":\"projectId\",\"type\":\"uint256\"},{\"internalType\":\"address[]\",\"name\":\"tokens\",\"type\":\"address[]\"}],\"stateMutability\":\"nonpayable\",\"type\":\"function\",\"name\":\"addAccountingContextsFor\"},{\"inputs\":[{\"internalType\":\"uint256\",\"name\":\"projectId\",\"type\":\"uint256\"},{\"internalType\":\"address\",\"name\":\"token\",\"type\":\"address\"},{\"internalType\":\"uint256\",\"name\":\"amount\",\"type\":\"uint256\"},{\"internalType\":\"bool\",\"name\":\"shouldReturnHeldFees\",\"type\":\"bool\"},{\"internalType\":\"string\",\"name\":\"memo\",\"type\":\"string\"},{\"internalType\":\"bytes\",\"name\":\"metadata\",\"type\":\"bytes\"}],\"stateMutability\":\"payable\",\"type\":\"function\",\"name\":\"addToBalanceOf\"},{\"inputs\":[{\"internalType\":\"uint256\",\"name\":\"projectId\",\"type\":\"uint256\"},{\"internalType\":\"uint256\",\"name\":\"decimals\",\"type\":\"uint256\"},{\"internalType\":\"uint256\",\"name\":\"currency\",\"type\":\"uint256\"}],\"stateMutability\":\"view\",\"type\":\"function\",\"name\":\"currentSurplusOf\",\"outputs\":[{\"internalType\":\"uint256\",\"name\":\"\",\"type\":\"uint256\"}]},{\"inputs\":[{\"internalType\":\"struct JBSplit\",\"name\":\"split\",\"type\":\"tuple\",\"components\":[{\"internalType\":\"bool\",\"name\":\"preferAddToBalance\",\"type\":\"bool\"},{\"internalType\":\"uint256\",\"name\":\"percent\",\"type\":\"uint256\"},{\"internalType\":\"uint256\",\"name\":\"projectId\",\"type\":\"uint256\"},{\"internalType\":\"address payable\",\"name\":\"beneficiary\",\"type\":\"address\"},{\"internalType\":\"uint256\",\"name\":\"lockedUntil\",\"type\":\"uint256\"},{\"internalType\":\"contract IJBSplitHook\",\"name\":\"hook\",\"type\":\"address\"}]},{\"internalType\":\"uint256\",\"name\":\"projectId\",\"type\":\"uint256\"},{\"internalType\":\"address\",\"name\":\"token\",\"type\":\"address\"},{\"internalType\":\"uint256\",\"name\":\"amount\",\"type\":\"uint256\"},{\"internalType\":\"address\",\"name\":\"originalMessageSender\",\"type\":\"address\"}],\"stateMutability\":\"nonpayable\",\"type\":\"function\",\"name\":\"executePayout\",\"outputs\":[{\"internalType\":\"uint256\",\"name\":\"netPayoutAmount\",\"type\":\"uint256\"}]},{\"inputs\":[{\"internalType\":\"uint256\",\"name\":\"projectId\",\"type\":\"uint256\"},{\"internalType\":\"address\",\"name\":\"token\",\"type\":\"address\"},{\"internalType\":\"uint256\",\"name\":\"amount\",\"type\":\"uint256\"},{\"internalType\":\"address\",\"name\":\"beneficiary\",\"type\":\"address\"},{\"internalType\":\"contract IJBTerminal\",\"name\":\"feeTerminal\",\"type\":\"address\"}],\"stateMutability\":\"nonpayable\",\"type\":\"function\",\"name\":\"executeProcessFee\"},{\"inputs\":[{\"internalType\":\"uint256\",\"name\":\"projectId\",\"type\":\"uint256\"},{\"internalType\":\"address\",\"name\":\"token\",\"type\":\"address\"}],\"stateMutability\":\"view\",\"type\":\"function\",\"name\":\"heldFeesOf\",\"outputs\":[{\"internalType\":\"struct JBFee[]\",\"name\":\"\",\"type\":\"tuple[]\",\"components\":[{\"internalType\":\"uint256\",\"name\":\"amount\",\"type\":\"uint256\"},{\"internalType\":\"address\",\"name\":\"beneficiary\",\"type\":\"address\"},{\"internalType\":\"uint256\",\"name\":\"unlockTimestamp\",\"type\":\"uint256\"}]}]},{\"inputs\":[{\"internalType\":\"address\",\"name\":\"forwarder\",\"type\":\"address\"}],\"stateMutability\":\"view\",\"type\":\"function\",\"name\":\"isTrustedForwarder\",\"outputs\":[{\"internalType\":\"bool\",\"name\":\"\",\"type\":\"bool\"}]},{\"inputs\":[{\"internalType\":\"uint256\",\"name\":\"projectId\",\"type\":\"uint256\"},{\"internalType\":\"address\",\"name\":\"token\",\"type\":\"address\"},{\"internalType\":\"contract IJBTerminal\",\"name\":\"to\",\"type\":\"address\"}],\"stateMutability\":\"nonpayable\",\"type\":\"function\",\"name\":\"migrateBalanceOf\",\"outputs\":[{\"internalType\":\"uint256\",\"name\":\"balance\",\"type\":\"uint256\"}]},{\"inputs\":[{\"internalType\":\"uint256\",\"name\":\"projectId\",\"type\":\"uint256\"},{\"internalType\":\"address\",\"name\":\"token\",\"type\":\"address\"},{\"internalType\":\"uint256\",\"name\":\"amount\",\"type\":\"uint256\"},{\"internalType\":\"address\",\"name\":\"beneficiary\",\"type\":\"address\"},{\"internalType\":\"uint256\",\"name\":\"minReturnedTokens\",\"type\":\"uint256\"},{\"internalType\":\"string\",\"name\":\"memo\",\"type\":\"string\"},{\"internalType\":\"bytes\",\"name\":\"metadata\",\"type\":\"bytes\"}],\"stateMutability\":\"payable\",\"type\":\"function\",\"name\":\"pay\",\"outputs\":[{\"internalType\":\"uint256\",\"name\":\"beneficiaryTokenCount\",\"type\":\"uint256\"}]},{\"inputs\":[{\"internalType\":\"uint256\",\"name\":\"projectId\",\"type\":\"uint256\"},{\"internalType\":\"address\",\"name\":\"token\",\"type\":\"address\"}],\"stateMutability\":\"nonpayable\",\"type\":\"function\",\"name\":\"processHeldFeesOf\"},{\"inputs\":[{\"internalType\":\"address\",\"name\":\"holder\",\"type\":\"address\"},{\"internalType\":\"uint256\",\"name\":\"projectId\",\"type\":\"uint256\"},{\"internalType\":\"address\",\"name\":\"tokenToReclaim\",\"type\":\"address\"},{\"internalType\":\"uint256\",\"name\":\"redeemCount\",\"type\":\"uint256\"},{\"internalType\":\"uint256\",\"name\":\"minTokensReclaimed\",\"type\":\"uint256\"},{\"internalType\":\"address payable\",\"name\":\"beneficiary\",\"type\":\"address\"},{\"internalType\":\"bytes\",\"name\":\"metadata\",\"type\":\"bytes\"}],\"stateMutability\":\"nonpayable\",\"type\":\"function\",\"name\":\"redeemTokensOf\",\"outputs\":[{\"internalType\":\"uint256\",\"name\":\"reclaimAmount\",\"type\":\"uint256\"}]},{\"inputs\":[{\"internalType\":\"uint256\",\"name\":\"projectId\",\"type\":\"uint256\"},{\"internalType\":\"address\",\"name\":\"token\",\"type\":\"address\"},{\"internalType\":\"uint256\",\"name\":\"amount\",\"type\":\"uint256\"},{\"internalType\":\"uint256\",\"name\":\"currency\",\"type\":\"uint256\"},{\"internalType\":\"uint256\",\"name\":\"minTokensPaidOut\",\"type\":\"uint256\"}],\"stateMutability\":\"nonpayable\",\"type\":\"function\",\"name\":\"sendPayoutsOf\",\"outputs\":[{\"internalType\":\"uint256\",\"name\":\"amountPaidOut\",\"type\":\"uint256\"}]},{\"inputs\":[{\"internalType\":\"bytes4\",\"name\":\"interfaceId\",\"type\":\"bytes4\"}],\"stateMutability\":\"view\",\"type\":\"function\",\"name\":\"supportsInterface\",\"outputs\":[{\"internalType\":\"bool\",\"name\":\"\",\"type\":\"bool\"}]},{\"inputs\":[],\"stateMutability\":\"view\",\"type\":\"function\",\"name\":\"trustedForwarder\",\"outputs\":[{\"internalType\":\"address\",\"name\":\"\",\"type\":\"address\"}]},{\"inputs\":[{\"internalType\":\"uint256\",\"name\":\"projectId\",\"type\":\"uint256\"},{\"internalType\":\"address\",\"name\":\"token\",\"type\":\"address\"},{\"internalType\":\"uint256\",\"name\":\"amount\",\"type\":\"uint256\"},{\"internalType\":\"uint256\",\"name\":\"currency\",\"type\":\"uint256\"},{\"internalType\":\"uint256\",\"name\":\"minTokensPaidOut\",\"type\":\"uint256\"},{\"internalType\":\"address payable\",\"name\":\"beneficiary\",\"type\":\"address\"},{\"internalType\":\"string\",\"name\":\"memo\",\"type\":\"string\"}],\"stateMutability\":\"nonpayable\",\"type\":\"function\",\"name\":\"useAllowanceOf\",\"outputs\":[{\"internalType\":\"uint256\",\"name\":\"amountPaidOut\",\"type\":\"uint256\"}]}],\"devdoc\":{\"kind\":\"dev\",\"methods\":{\"accountingContextForTokenOf(uint256,address)\":{\"details\":\"See the `JBAccountingContext` struct for more information.\",\"params\":{\"projectId\":\"The ID of the project to get token accounting context of.\",\"token\":\"The token to check the accounting context of.\"},\"returns\":{\"_0\":\"The token's accounting context for the token.\"}},\"accountingContextsOf(uint256)\":{\"params\":{\"projectId\":\"The ID of the project to get the accepted tokens of.\"},\"returns\":{\"_0\":\"tokenContexts The accounting contexts of the accepted tokens.\"}},\"addAccountingContextsFor(uint256,address[])\":{\"details\":\"Only a project's owner, an operator with the `ADD_ACCOUNTING_CONTEXTS` permission from that owner, or a project's controller can add accounting contexts for the project.\",\"params\":{\"projectId\":\"The ID of the project having to add accounting contexts for.\",\"tokens\":\"The tokens to add accounting contexts for.\"}},\"addToBalanceOf(uint256,address,uint256,bool,string,bytes)\":{\"details\":\"Adding to balance can unlock held fees if `shouldUnlockHeldFees` is true.\",\"params\":{\"amount\":\"The amount of tokens to add to the balance, as a fixed point number with the same number of decimals as this terminal. If this is a native token terminal, this is ignored and `msg.value` is used instead.\",\"memo\":\"A memo to pass along to the emitted event.\",\"metadata\":\"Extra data to pass along to the emitted event.\",\"projectId\":\"The ID of the project to add funds to the balance of.\",\"shouldReturnHeldFees\":\"A flag indicating if held fees should be returned based on the amount being added.\",\"token\":\"The token being added to the balance.\"}},\"constructor\":{\"params\":{\"directory\":\"A contract storing directories of terminals and controllers for each project.\",\"feelessAddresses\":\"A contract that stores addresses that shouldn't incur fees when being paid towards or from.\",\"permissions\":\"A contract storing permissions.\",\"permit2\":\"A permit2 utility.\",\"projects\":\"A contract which mints ERC-721s that represent project ownership and transfers.\",\"splits\":\"A contract that stores splits for each project.\",\"store\":\"A contract that stores the terminal's data.\",\"trustedForwarder\":\"A trusted forwarder of transactions to this contract.\"}},\"currentSurplusOf(uint256,uint256,uint256)\":{\"details\":\"This total surplus only includes tokens that the project accepts (as returned by `accountingContextsOf(...)`).\",\"params\":{\"currency\":\"The currency to express the returned value in terms of.\",\"decimals\":\"The number of decimals to include in the fixed point returned value.\",\"projectId\":\"The ID of the project to get the current total surplus of.\"},\"returns\":{\"_0\":\"The current surplus amount the project has in this terminal, in terms of `currency` and with the specified number of decimals.\"}},\"executePayout((bool,uint256,uint256,address,uint256,address),uint256,address,uint256,address)\":{\"details\":\"Only accepts calls from this terminal itself.\",\"params\":{\"amount\":\"The total amount being paid to the split, as a fixed point number with the same number of decimals as this terminal.\",\"projectId\":\"The ID of the project the split belongs to.\",\"split\":\"The split to pay.\",\"token\":\"The address of the token being paid to the split.\"},\"returns\":{\"netPayoutAmount\":\"The amount sent to the split after subtracting fees.\"}},\"executeProcessFee(uint256,address,uint256,address,address)\":{\"details\":\"Only accepts calls from this terminal itself.\",\"params\":{\"amount\":\"The fee amount, as a fixed point number with 18 decimals.\",\"beneficiary\":\"The address to mint tokens to (from the project which receives fees), and pass along to the ruleset's data hook and pay hook if applicable.\",\"feeTerminal\":\"The terminal that'll receive the fees.\",\"projectId\":\"The ID of the project paying the fee.\",\"token\":\"The token the fee is being paid in.\"}},\"heldFeesOf(uint256,address)\":{\"details\":\"Projects can temporarily hold fees and unlock them later by adding funds to the project's balance.Held fees can be processed at any time by this terminal's owner.\",\"params\":{\"projectId\":\"The ID of the project that is holding fees.\",\"token\":\"The token that the fees are held in.\"}},\"isTrustedForwarder(address)\":{\"details\":\"Indicates whether any particular address is the trusted forwarder.\"},\"migrateBalanceOf(uint256,address,address)\":{\"details\":\"Only a project's owner or an operator with the `MIGRATE_TERMINAL` permission from that owner can migrate the project's terminal.\",\"params\":{\"projectId\":\"The ID of the project being migrated.\",\"to\":\"The terminal contract being migrated to, which will receive the project's funds and operations.\",\"token\":\"The address of the token being migrated.\"},\"returns\":{\"balance\":\"The amount of funds that were migrated, as a fixed point number with the same amount of decimals as this terminal.\"}},\"pay(uint256,address,uint256,address,uint256,string,bytes)\":{\"params\":{\"amount\":\"The amount of terminal tokens being received, as a fixed point number with the same number of decimals as this terminal. If this terminal's token is native, this is ignored and `msg.value` is used in its place.\",\"beneficiary\":\"The address to mint tokens to, and pass along to the ruleset's data hook and pay hook if applicable.\",\"memo\":\"A memo to pass along to the emitted event.\",\"metadata\":\"Bytes to pass along to the emitted event, as well as the data hook and pay hook if applicable.\",\"minReturnedTokens\":\"The minimum number of project tokens expected in return for this payment, as a fixed point number with the same number of decimals as this terminal. If the amount of tokens minted for the beneficiary would be less than this amount, the payment is reverted.\",\"projectId\":\"The ID of the project being paid.\",\"token\":\"The token being paid.\"},\"returns\":{\"beneficiaryTokenCount\":\"The number of tokens minted to the beneficiary, as a fixed point number with 18 decimals.\"}},\"processHeldFeesOf(uint256,address)\":{\"params\":{\"projectId\":\"The ID of the project to process held fees for.\",\"token\":\"The token to process held fees for.\"}},\"redeemTokensOf(address,uint256,address,uint256,uint256,address,bytes)\":{\"details\":\"Only a token's holder or an operator with the `REDEEM_TOKENS` permission from that holder can redeem those tokens.\",\"params\":{\"beneficiary\":\"The address to send the reclaimed terminal tokens to, and to pass along to the ruleset's data hook and redeem hook if applicable.\",\"holder\":\"The account whose tokens are being redeemed.\",\"metadata\":\"Bytes to send along to the emitted event, as well as the data hook and redeem hook if applicable.\",\"minTokensReclaimed\":\"The minimum number of terminal tokens expected in return, as a fixed point number with the same number of decimals as this terminal. If the amount of tokens minted for the beneficiary would be less than this amount, the redemption is reverted.\",\"projectId\":\"The ID of the project the project tokens belong to.\",\"redeemCount\":\"The number of project tokens to redeem, as a fixed point number with 18 decimals.\",\"tokenToReclaim\":\"The token being reclaimed.\"},\"returns\":{\"reclaimAmount\":\"The amount of terminal tokens that the project tokens were redeemed for, as a fixed point number with 18 decimals.\"}},\"sendPayoutsOf(uint256,address,uint256,uint256,uint256)\":{\"details\":\"If the percentages of the splits in the project's payout split group do not add up to 100%, the remainder is sent to the project's owner.Anyone can send payouts on a project's behalf. Projects can include a wildcard split (a split with no `hook`, `projectId`, or `beneficiary`) to send funds to the `_msgSender()` which calls this function. This can be used to incentivize calling this function.payouts sent to addresses which aren't feeless incur the protocol fee.Payouts a projects don't incur fees if its terminal is feeless.\",\"params\":{\"amount\":\"The total number of terminal tokens to send, as a fixed point number with same number of decimals as this terminal.\",\"currency\":\"The expected currency of the payouts being sent. Must match the currency of one of the project's current ruleset's payout limits.\",\"minTokensPaidOut\":\"The minimum number of terminal tokens that the `amount` should be worth (if expressed in terms of this terminal's currency), as a fixed point number with the same number of decimals as this terminal. If the amount of tokens paid out would be less than this amount, the send is reverted.\",\"projectId\":\"The ID of the project having its payouts sent.\",\"token\":\"The token being sent.\"},\"returns\":{\"amountPaidOut\":\"The total amount paid out.\"}},\"supportsInterface(bytes4)\":{\"details\":\"See {IERC165-supportsInterface}.\",\"params\":{\"interfaceId\":\"The ID of the interface to check for adherence to.\"},\"returns\":{\"_0\":\"A flag indicating if the provided interface ID is supported.\"}},\"trustedForwarder()\":{\"details\":\"Returns the address of the trusted forwarder.\"},\"useAllowanceOf(uint256,address,uint256,uint256,uint256,address,string)\":{\"details\":\"Only a project's owner or an operator with the `USE_ALLOWANCE` permission from that owner can use the surplus allowance.Incurs the protocol fee unless the caller is a feeless address.\",\"params\":{\"amount\":\"The amount of terminal tokens to use from the project's current surplus allowance, as a fixed point number with the same amount of decimals as this terminal.\",\"beneficiary\":\"The address to send the surplus funds to.\",\"currency\":\"The expected currency of the amount being paid out. Must match the currency of one of the project's current ruleset's surplus allowances.\",\"memo\":\"A memo to pass along to the emitted event.\",\"minTokensPaidOut\":\"The minimum number of terminal tokens that should be used from the surplus allowance (including fees), as a fixed point number with 18 decimals. If the amount of surplus used would be less than this amount, the transaction is reverted.\",\"projectId\":\"The ID of the project to use the surplus allowance of.\",\"token\":\"The token being paid out from the surplus.\"},\"returns\":{\"amountPaidOut\":\"The number of tokens that were sent to the beneficiary, as a fixed point number with the same amount of decimals as the terminal.\"}}},\"version\":1},\"userdoc\":{\"kind\":\"user\",\"methods\":{\"DIRECTORY()\":{\"notice\":\"The directory of terminals and controllers for PROJECTS.\"},\"FEE()\":{\"notice\":\"This terminal's fee (as a fraction out of `JBConstants.MAX_FEE`).\"},\"FEELESS_ADDRESSES()\":{\"notice\":\"The contract that stores addresses that shouldn't incur fees when being paid towards or from.\"},\"PERMISSIONS()\":{\"notice\":\"A contract storing permissions.\"},\"PERMIT2()\":{\"notice\":\"The permit2 utility.\"},\"PROJECTS()\":{\"notice\":\"Mints ERC-721s that represent project ownership and transfers.\"},\"SPLITS()\":{\"notice\":\"The contract that stores splits for each project.\"},\"STORE()\":{\"notice\":\"The contract that stores and manages the terminal's data.\"},\"accountingContextForTokenOf(uint256,address)\":{\"notice\":\"A project's accounting context for a token.\"},\"accountingContextsOf(uint256)\":{\"notice\":\"The tokens accepted by a project.\"},\"addAccountingContextsFor(uint256,address[])\":{\"notice\":\"Adds accounting contexts for a project to this terminal so the project can begin accepting the tokens in those contexts.\"},\"addToBalanceOf(uint256,address,uint256,bool,string,bytes)\":{\"notice\":\"Adds funds to a project's balance without minting tokens.\"},\"currentSurplusOf(uint256,uint256,uint256)\":{\"notice\":\"Gets the total current surplus amount in this terminal for a project, in terms of a given currency.\"},\"executePayout((bool,uint256,uint256,address,uint256,address),uint256,address,uint256,address)\":{\"notice\":\"Executes a payout to a split.\"},\"executeProcessFee(uint256,address,uint256,address,address)\":{\"notice\":\"Process a specified amount of fees for a project.\"},\"heldFeesOf(uint256,address)\":{\"notice\":\"Fees that are being held for a project.\"},\"migrateBalanceOf(uint256,address,address)\":{\"notice\":\"Migrate a project's funds and operations to a new terminal that accepts the same token type.\"},\"pay(uint256,address,uint256,address,uint256,string,bytes)\":{\"notice\":\"Pay a project with tokens.\"},\"processHeldFeesOf(uint256,address)\":{\"notice\":\"Process any fees that are being held for the project.\"},\"redeemTokensOf(address,uint256,address,uint256,uint256,address,bytes)\":{\"notice\":\"Holders can redeem a project's tokens to reclaim some of that project's surplus tokens, or to trigger rules determined by the current ruleset's data hook and redeem hook.\"},\"sendPayoutsOf(uint256,address,uint256,uint256,uint256)\":{\"notice\":\"Sends payouts to a project's current payout split group, according to its ruleset, up to its current payout limit.\"},\"supportsInterface(bytes4)\":{\"notice\":\"Indicates whether this contract adheres to the specified interface.\"},\"useAllowanceOf(uint256,address,uint256,uint256,uint256,address,string)\":{\"notice\":\"Allows a project to pay out funds from its surplus up to the current surplus allowance.\"}},\"version\":1}},\"settings\":{\"remappings\":[\"@bananapus/=node_modules/@bananapus/\",\"@chainlink/=node_modules/@chainlink/\",\"@eth-optimism/=node_modules/@eth-optimism/\",\"@openzeppelin/=node_modules/@openzeppelin/\",\"@prb/=node_modules/@prb/\",\"@scroll-tech/=node_modules/@scroll-tech/\",\"@sphinx-labs/contracts/=lib/sphinx/packages/contracts/contracts/foundry/\",\"@uniswap/=node_modules/@uniswap/\",\"ds-test/=lib/forge-std/lib/ds-test/src/\",\"forge-std/=lib/forge-std/src/\",\"hardhat/=node_modules/hardhat/\",\"solmate/=node_modules/solmate/\",\"sphinx/=lib/sphinx/\"],\"optimizer\":{\"enabled\":true,\"runs\":200},\"metadata\":{\"bytecodeHash\":\"ipfs\"},\"compilationTarget\":{\"src/JBMultiTerminal.sol\":\"JBMultiTerminal\"},\"evmVersion\":\"paris\",\"libraries\":{}},\"sources\":{\"node_modules/@bananapus/permission-ids/src/JBPermissionIds.sol\":{\"keccak256\":\"0xf61109f6b217a80d5e5391f548fb6f2e451f7dbee3fabfc04cf17e88722203bc\",\"urls\":[\"bzz-raw://ac776ab1cd621c22bd7973471acdfa187f3abc659ad9a3ef6ed10b6447dfcf9c\",\"dweb:/ipfs/QmYLbaHt68qcuMzkiKpe96jMjiWUq1F3u8yMhxmZ3pnnWu\"],\"license\":\"MIT\"},\"node_modules/@openzeppelin/contracts/metatx/ERC2771Context.sol\":{\"keccak256\":\"0x98256cf37b71a69b2f5a8a6fe975ea03590dff703102bd141a830f94e8adebf6\",\"urls\":[\"bzz-raw://6251fe1f6a1e45e6d619d150c123afc88b8646b38ee26a136efa9a6988a31d3f\",\"dweb:/ipfs/QmeXDT85wSZdP31wkz3ah3KhponCiksJLP5o2LR5e1JxcK\"],\"license\":\"MIT\"},\"node_modules/@openzeppelin/contracts/token/ERC20/IERC20.sol\":{\"keccak256\":\"0xc6a8ff0ea489379b61faa647490411b80102578440ab9d84e9a957cc12164e70\",\"urls\":[\"bzz-raw://0ea104e577e63faea3b69c415637e99e755dcbf64c5833d7140c35a714d6d90c\",\"dweb:/ipfs/Qmau6x4Ns9XdyynRCNNp3RhLqijJjFm7z5fyZazfYFGYdq\"],\"license\":\"MIT\"},\"node_modules/@openzeppelin/contracts/token/ERC20/extensions/IERC20Metadata.sol\":{\"keccak256\":\"0xaa761817f6cd7892fcf158b3c776b34551cde36f48ff9703d53898bc45a94ea2\",\"urls\":[\"bzz-raw://0ad7c8d4d08938c8dfc43d75a148863fb324b80cf53e0a36f7e5a4ac29008850\",\"dweb:/ipfs/QmcrhfPgVNf5mkdhQvy1pMv51TFokD3Y4Wa5WZhFqVh8UV\"],\"license\":\"MIT\"},\"node_modules/@openzeppelin/contracts/token/ERC20/extensions/IERC20Permit.sol\":{\"keccak256\":\"0x6008dabfe393240d73d7dd7688033f72740d570aa422254d29a7dce8568f3aff\",\"urls\":[\"bzz-raw://f5196ec75139918c6c7bb4251b36395e668f1fa6d206beba7e7520e74913940d\",\"dweb:/ipfs/QmSyqjksXxmm2mCG6qRd1yuwLykypkSVBbnBnGqJRcuJMi\"],\"license\":\"MIT\"},\"node_modules/@openzeppelin/contracts/token/ERC20/utils/SafeERC20.sol\":{\"keccak256\":\"0x37bb49513c49c87c4642a891b13b63571bc87013dde806617aa1efb54605f386\",\"urls\":[\"bzz-raw://b3036b3a83b7c48f96641f2a9002b9f2dcb6a5958dd670894ada21ae8229b3d0\",\"dweb:/ipfs/QmUNfSBdoVtjhETaUJCYcaC7pTMgbhht926tJ2uXJbiVd3\"],\"license\":\"MIT\"},\"node_modules/@openzeppelin/contracts/token/ERC721/IERC721.sol\":{\"keccak256\":\"0x5ef46daa3b58ef2702279d514780316efaa952915ee1aa3396f041ee2982b0b4\",\"urls\":[\"bzz-raw://2f8f2a76e23b02fc69e8cd24c3cb47da6c7af3a2d6c3a382f8ac25c6e094ade7\",\"dweb:/ipfs/QmPV4ZS4tPVv4mTCf9ejyZ1ai57EEibDRj7mN2ARDCLV5n\"],\"license\":\"MIT\"},\"node_modules/@openzeppelin/contracts/utils/Address.sol\":{\"keccak256\":\"0xc300fa83999c2c466f69cfaa6398540169d91b051ff7b013196f526589e17499\",\"urls\":[\"bzz-raw://b32a3f30e5fc755fbded19db4ba3ef686811933ae07084313095666154877bf0\",\"dweb:/ipfs/QmV1hoYPcZaNhSVAV84sN3eJ5WahmvNYYpStJvttKfzRjf\"],\"license\":\"MIT\"},\"node_modules/@openzeppelin/contracts/utils/Context.sol\":{\"keccak256\":\"0x493033a8d1b176a037b2cc6a04dad01a5c157722049bbecf632ca876224dd4b2\",\"urls\":[\"bzz-raw://6a708e8a5bdb1011c2c381c9a5cfd8a9a956d7d0a9dc1bd8bcdaf52f76ef2f12\",\"dweb:/ipfs/Qmax9WHBnVsZP46ZxEMNRQpLQnrdE4dK8LehML1Py8FowF\"],\"license\":\"MIT\"},\"node_modules/@openzeppelin/contracts/utils/introspection/ERC165Checker.sol\":{\"keccak256\":\"0xac3d50e321a48a40b4496970ce725900f13aeb2255b7c1203f5adbe98c4a911a\",\"urls\":[\"bzz-raw://1d7b235b578347dce2d831a76f122e820a7db7e73fd2e47f13bafdcd61c5b066\",\"dweb:/ipfs/QmVAELwambfJa55HfiCoz1kFFh7iYwRYeW5x8si6AFM4iX\"],\"license\":\"MIT\"},\"node_modules/@openzeppelin/contracts/utils/introspection/IERC165.sol\":{\"keccak256\":\"0x4296879f55019b23e135000eb36896057e7101fb7fb859c5ef690cf14643757b\",\"urls\":[\"bzz-raw://87b3541437c8c443ccd36795e56a338ed12855eec17f8da624511b8d1a7e14df\",\"dweb:/ipfs/QmeJQCtZrQjtJLr6u7ZHWeH3pBnjtLWzvRrKViAi7UZqxL\"],\"license\":\"MIT\"},\"node_modules/@prb/math/src/Common.sol\":{\"keccak256\":\"0xaa374e2c26cc93e8c22a6953804ee05f811597ef5fa82f76824378b22944778b\",\"urls\":[\"bzz-raw://279c732e161d623cf4d8a9519ca4c42c0c2db99842d0eb2a20c10fde3fa722c9\",\"dweb:/ipfs/QmVViuUXbinQGqtG5M21SgVzKihiCbFUChd4tDhtvwRmxH\"],\"license\":\"MIT\"},\"node_modules/@uniswap/permit2/src/interfaces/IAllowanceTransfer.sol\":{\"keccak256\":\"0x37f0ac203b6ef605c9533e1a739477e8e9dcea90710b40e645a367f8a21ace29\",\"urls\":[\"bzz-raw://e0104d72aeaec1cd66cc232e7de7b7ead08608efcc179491b8a66387614670b0\",\"dweb:/ipfs/QmfAZDyuNC9FXXbnJUwqHNwmAK6uRrXxtWEytLsxjskPsN\"],\"license\":\"MIT\"},\"node_modules/@uniswap/permit2/src/interfaces/IEIP712.sol\":{\"keccak256\":\"0xfdccf2b9639070803cd0e4198427fb0df3cc452ca59bd3b8a0d957a9a4254138\",\"urls\":[\"bzz-raw://f7c936ac42ce89e827db905a1544397f8bdf46db34cdb6aa1b90dea42fdb4c72\",\"dweb:/ipfs/QmVgurxo1N31qZqkPBirw9Z7S9tLYmv6jSwQp8R8ur2cBk\"],\"license\":\"MIT\"},\"node_modules/@uniswap/permit2/src/interfaces/IPermit2.sol\":{\"keccak256\":\"0xaa631cc9f53e699301d94233007110a345e6779011def484e8dd97b8fe0af771\",\"urls\":[\"bzz-raw://fc0502cf19c9c18f320a3001201e89e350393b75837f6b7971de18b2de06f30d\",\"dweb:/ipfs/QmT9SfhdJ7VJNNrf94g4H5usyi7ShqWGx7Cqsz9jZTjX96\"],\"license\":\"MIT\"},\"node_modules/@uniswap/permit2/src/interfaces/ISignatureTransfer.sol\":{\"keccak256\":\"0xe6df9966f8841dc3958ee86169c89de97e7f614c81c28b9dc947b12d732df64e\",\"urls\":[\"bzz-raw://3d4eafdee7f48c3be8350a94eb6edd0bfb2af2c105df65787a77174f356c0317\",\"dweb:/ipfs/QmY1j2adeeAhNpn6cUuthemxGCdLXHTfyMh9yTKsY4mZ2d\"],\"license\":\"MIT\"},\"src/JBMultiTerminal.sol\":{\"keccak256\":\"0xdee99ca12f9e758e7547bd0d9027383150aa9abdbda8ff55fa64fd85de3c8c89\",\"urls\":[\"bzz-raw://0bf09f52423cf573ddc9382f1da0c2966c6283c0908e4eb6efc191319d98e9d7\",\"dweb:/ipfs/QmTLLPnFmAPfhYN8YkGg4LvhvK7RusRAGUvAXYiNfmKK4B\"],\"license\":\"MIT\"},\"src/abstract/JBPermissioned.sol\":{\"keccak256\":\"0xe08c8a7eeac9d1c7c2e0db6d5b98d1af09889300835a3d47d9f29319fecce703\",\"urls\":[\"bzz-raw://42645cf52bcc45053ef650790916faed5d0a74cecef336b217433fdd2c5c4166\",\"dweb:/ipfs/QmdMmxG1tSGucQwz4LYbVnuj7HU23YvqLH6xfrNWv5Bmus\"],\"license\":\"MIT\"},\"src/enums/JBApprovalStatus.sol\":{\"keccak256\":\"0x61c69b6bac7d24b566d87cda23a77e4ca9cdb87200b106aba8534cb9a0973e33\",\"urls\":[\"bzz-raw://6a9ca7249de76f77a8252eefe6bd1b63d47952f25a2acfa2c8db967cdff4470c\",\"dweb:/ipfs/QmaxSxptRQNj8bNy96EreENmrnRWdKmhyihBcxyWzBX5BN\"],\"license\":\"MIT\"},\"src/interfaces/IJBController.sol\":{\"keccak256\":\"0xe0b84058192f89e461c4b604388aa11a2f92f0f9969fb70fb3c18706d6f3e16b\",\"urls\":[\"bzz-raw://984fdcff63a17ccab65ff7723a628967e40965fcb4d47909cf8e314e8f044576\",\"dweb:/ipfs/QmaaHZWuaaH3oYxCDrip1rr4u4H1XtR3RcwwKAE73GAqkd\"],\"license\":\"MIT\"},\"src/interfaces/IJBDirectory.sol\":{\"keccak256\":\"0x9cc380844aef60078ee47a61861e55a29c4a8c947efd556ebd36e6909f7b9d62\",\"urls\":[\"bzz-raw://9f5190ec8b6683d9781ee6e9eedcc91294753242748875d4a06349077e4cbaaf\",\"dweb:/ipfs/QmTQrPuXT9TCA4txwrperMeXSGvGxP8iokUK47f62F388i\"],\"license\":\"MIT\"},\"src/interfaces/IJBDirectoryAccessControl.sol\":{\"keccak256\":\"0x1e67f56849320a46f834aaa9bd62b170ff8ada7b224b4a81136193740fa0be4d\",\"urls\":[\"bzz-raw://ea8fbcec44abfe49d137bcae129b67e5479d6b17879301f88534c8a7fab00be4\",\"dweb:/ipfs/QmT6wrtYX4GRpffHUzupNwYebJ1dqkkKZLEewWsoyunsqw\"],\"license\":\"MIT\"},\"src/interfaces/IJBFeeTerminal.sol\":{\"keccak256\":\"0xdb6f3349cbe2078faa8421dec892136693748d8a60b70a1dee3bce2cfc5274fc\",\"urls\":[\"bzz-raw://ccc6a67fc72726c6180c41523cc2a43562864347770a86ff54532fb6ca09e7c3\",\"dweb:/ipfs/QmZinV1LoRsmTq713YGvNShaPtGaxLqwJ6u2EwwGKEKCgu\"],\"license\":\"MIT\"},\"src/interfaces/IJBFeelessAddresses.sol\":{\"keccak256\":\"0xe5df42cfa71c5fa41b905c122de5825df13c2aab2f9cc4cf4bafa331dd69c27e\",\"urls\":[\"bzz-raw://3773bf3b42cc57d1e4086147e52135ff1dbff4309c45ca0398f821dfaa071563\",\"dweb:/ipfs/QmXUEJssHaxYKfV33tMZGf81JTR5a5yxEVshzNus84xLuT\"],\"license\":\"MIT\"},\"src/interfaces/IJBFundAccessLimits.sol\":{\"keccak256\":\"0xf5fd6bdd723b60d490ccbe22cdf1cfe43663d23e6ee48badcd1b71e3282cb16b\",\"urls\":[\"bzz-raw://fe692f0b843ea5fccdfcb68f4ec16e1c0add945bb74b303c9866342be0e31fbf\",\"dweb:/ipfs/QmSRmzpgp3DhNEhNDiLsSu7yEiTeywbzEFbwyGyDazjgKt\"],\"license\":\"MIT\"},\"src/interfaces/IJBMigratable.sol\":{\"keccak256\":\"0xd69bd5aba01a68d82c303ef3adde47532abcace030a94296c3ea6988b401789c\",\"urls\":[\"bzz-raw://88f11a1c89899327746beba4fc830abf3ac2eb9c152c778e884a6eed6564971f\",\"dweb:/ipfs/QmTpKhSTVewpz7VyKcz6BJwH2LFKMwT7Qi5HNWmjEjwsdK\"],\"license\":\"MIT\"},\"src/interfaces/IJBMultiTerminal.sol\":{\"keccak256\":\"0xefd98d88f6d1a091e77edd76163d6950e0b0dcde9dc39a1fd1112ff3981fc767\",\"urls\":[\"bzz-raw://fe2ca9467481f2f9f3a36a658b4e8da9305a43a142016f4ba7f90f596ff84cd2\",\"dweb:/ipfs/QmeGdDmTzsg9E2XjPDpBQWxvMqw5JHiC9hutEvfhH6M8Ap\"],\"license\":\"MIT\"},\"src/interfaces/IJBPayHook.sol\":{\"keccak256\":\"0x9438866782c652c2942f4d114e35f393cd3c8b0334abce8387eed90bca35e8b2\",\"urls\":[\"bzz-raw://cfd99daf57213f92325aad7d7d16e98476d38e870470e95ba01e3ae3cdecc95d\",\"dweb:/ipfs/QmUKKAVGf7ki8BHksr99tFcRW8APveeB5tNH63ctTbbCW8\"],\"license\":\"MIT\"},\"src/interfaces/IJBPayoutTerminal.sol\":{\"keccak256\":\"0xd0f9374470591c4afb2525c9c7b1bdad577765857c404b22ee5d8d2997a18fad\",\"urls\":[\"bzz-raw://4529c066b2014ee64b8fb16981a9fd5badf64dea7ac6c07dd1b1e7ab5cdc1d8a\",\"dweb:/ipfs/QmYxTdPjRAZ8iThUoNmJuivEaRaB3xXpyHdhCU7my1UHZy\"],\"license\":\"MIT\"},\"src/interfaces/IJBPermissioned.sol\":{\"keccak256\":\"0x5b038d4dee116584e88b230920e56d48e135053e3f7e5642eaea14a775c1dad7\",\"urls\":[\"bzz-raw://19e43102f349fd4a1da1c0943ffb8f2950007fe4bb4bb7e8f74fc142575d091b\",\"dweb:/ipfs/QmXHAt4KzDTdDZgDDefEXH2WKi7NcfkJb9R7nxW5uDqsNp\"],\"license\":\"MIT\"},\"src/interfaces/IJBPermissions.sol\":{\"keccak256\":\"0x18870e500edf0fbadc353e273a5574701fb80466376b908c65e7cc3f11044d4d\",\"urls\":[\"bzz-raw://352a47c45853aec80e7acf0d286ade3106eb4cb456776b28a3c2f3f1091bed90\",\"dweb:/ipfs/QmQeYd3YbudYZy2hfbfht9kwhxhw4tuuLKMEYy9UY6dcSy\"],\"license\":\"MIT\"},\"src/interfaces/IJBPermitTerminal.sol\":{\"keccak256\":\"0xd6bd30842273f5b794f82219fefdd4953f5343328d2cfdb684b7d826cc0c769c\",\"urls\":[\"bzz-raw://ca1195fd5572060b36fc7e45f46d59f974e3a908248edcfadeb8cb06247075f0\",\"dweb:/ipfs/QmYTpDXKTXqi8GQFsNqB8LiGFTZjSPY3PA8vKqZBraVdqD\"],\"license\":\"MIT\"},\"src/interfaces/IJBPriceFeed.sol\":{\"keccak256\":\"0x4bd84c0f1a5d4729ed709bcddd43f4c50ec4a165ece79780af8dce482ed07d4a\",\"urls\":[\"bzz-raw://62bac4bfb6982fb002f620c77e5c445e62d50241a5aa64a07e51d929f5a42180\",\"dweb:/ipfs/QmWgJUDreVY2BuMX38a1iUUR5kNbMwGnKG3VvurB7oZtuM\"],\"license\":\"MIT\"},\"src/interfaces/IJBPrices.sol\":{\"keccak256\":\"0x99525f31440b955742dce84ba57de9fc1221139b5367c1f834723bef9e13e6e1\",\"urls\":[\"bzz-raw://6fa03f0cd4ad87dd7cbae7bf7f54463450874291773c8f70f2c31ef2cae62bb0\",\"dweb:/ipfs/QmSPajPV5ismteJuB6Spzm9VmhTj2iS3eVrfpJC1Zuzg8n\"],\"license\":\"MIT\"},\"src/interfaces/IJBProjectUriRegistry.sol\":{\"keccak256\":\"0x2799475228987e4f8334ac33d3935f759c9b8133db7383b4f622dde7a5dc0502\",\"urls\":[\"bzz-raw://d751731740f45df74eea48c9667e847ee2cddb2980ab4939c86bd17e6c6ed89b\",\"dweb:/ipfs/QmXW8SLTuhdUpfn7pRpdsYdcyuim8RTyagU37ULcj5UZhT\"],\"license\":\"MIT\"},\"src/interfaces/IJBProjects.sol\":{\"keccak256\":\"0x735c2fb8f1fa827f054ee77f7a0ae4b312656217acb75b624d2c8fd9dc40151b\",\"urls\":[\"bzz-raw://ee7fc92299a8633a80693ae63ab494dcd125f1789487a54a39dc0e5696e5996f\",\"dweb:/ipfs/QmX7YJD4pS2XhgQb7p3JbBAXynT7YGPXcZe92BiWWRrsCL\"],\"license\":\"MIT\"},\"src/interfaces/IJBRedeemHook.sol\":{\"keccak256\":\"0x8ab46fcd7d0e739661eb76056ad93ff99106f38420ef0b4eb97fa9f4bb71a68a\",\"urls\":[\"bzz-raw://0ef96fcb7ad26281d444d8e0c677b25114fdd63b1c172d477e030dce8ba53b62\",\"dweb:/ipfs/Qmcx1jRQuwU4pZFuLxsSsx4oMbRaDfktHrPnXextgbWc5m\"],\"license\":\"MIT\"},\"src/interfaces/IJBRedeemTerminal.sol\":{\"keccak256\":\"0xd1b4aa38154e08f1474745ea6bc8f8823fe8aa68c124d596742597f2296ea16d\",\"urls\":[\"bzz-raw://9bd254e833702dfe5e28db5fee76478947ab45b501c966501f719e73bbf0397a\",\"dweb:/ipfs/QmZ3Ng7TmVxL6ozSUhx4kYdQdZhoYi4t43cYZVAMz7Fn5M\"],\"license\":\"MIT\"},\"src/interfaces/IJBRulesetApprovalHook.sol\":{\"keccak256\":\"0x592e95d159494421c6b1bcb362d0cee1df0132921697351304e9cd7af4fbd386\",\"urls\":[\"bzz-raw://5bebfd5fa67c1b6ea16fa2e76e9520e9dfe52a579f48dd94d0c2ec45f78ad178\",\"dweb:/ipfs/QmRUawEGtfYoYSHmHELGhvJoWuMsxLPKtqAXgsrb7fJboP\"],\"license\":\"MIT\"},\"src/interfaces/IJBRulesets.sol\":{\"keccak256\":\"0xd3f817d22ecbe24da63c552c069bf0c4fbbf3bcd5c3b5633002afd24aacf6882\",\"urls\":[\"bzz-raw://c1185aec0f6b6f0f4d93ffeeed0972ccf38420b00fe570b5e1838ed2b1f5db49\",\"dweb:/ipfs/QmWz36azGTFnjFXpFSh6BHt4nactgjtF64L3PeTqs4ZqSR\"],\"license\":\"MIT\"},\"src/interfaces/IJBSplitHook.sol\":{\"keccak256\":\"0xeb8dfac7a4b81897a1c3b5d0d853a406bcff33720fb187d5ca5bb3dcc0ba3a12\",\"urls\":[\"bzz-raw://36aaeef6107cfe5b0127e063ea215aac7200f8af02e28a48e61111abd3254688\",\"dweb:/ipfs/QmQ8yQANXnhQCAWBGKsKCDsJ3A8hnTKNg5tyo79GfWXTcV\"],\"license\":\"MIT\"},\"src/interfaces/IJBSplits.sol\":{\"keccak256\":\"0x92deeb9e22ce2aaafc608b85e9250b8ea2deed1ebf64b7442038b157b2bfe0e6\",\"urls\":[\"bzz-raw://08bf29f0c13c2e8be46065277f67e44ecaea960cb5474f13775eece0672566c2\",\"dweb:/ipfs/QmeGu9C6tuBjfmeizmpzptxgGmch6Mbtm34NFwZxzMvqc4\"],\"license\":\"MIT\"},\"src/interfaces/IJBTerminal.sol\":{\"keccak256\":\"0x19dc9bf8cbdc8f13ee5da9dc3a87047eacb94a3fc19740a286c1f0bad2cc39ca\",\"urls\":[\"bzz-raw://0b05ae6fda9a85672508232fd992b8a5f5ffd8096622eeb12c8a7b3317eb3867\",\"dweb:/ipfs/QmNh9Quj37BXYGdTdcCD1Q58PchRsE5TLbEZep56qS3MpV\"],\"license\":\"MIT\"},\"src/interfaces/IJBTerminalStore.sol\":{\"keccak256\":\"0x140159d66d729f6aeed0fe1f7c655619985146ec00e8c68cbd9b5d30d4dc7d23\",\"urls\":[\"bzz-raw://f972ecb52bcfcd2852c9e7264b1ecc504ce94bd6e12c034b93c1768cd372954e\",\"dweb:/ipfs/QmRu7in5iJSWHLTcFPbJmiK1rCHFbwNY7qzY4cG6kgfYcr\"],\"license\":\"MIT\"},\"src/interfaces/IJBToken.sol\":{\"keccak256\":\"0x71b1f9c3a0edd41910f77396e0be2c65596571176d53eb87e887c3c0da56c0fb\",\"urls\":[\"bzz-raw://6e956f0582f4525e83d845ee9b4a89959abc4f821414f6accbbee5b38960482d\",\"dweb:/ipfs/QmbSvjgmCgnfVmcCTGu8XwrV1Rufsf3M8hB8unFq6fTMdH\"],\"license\":\"MIT\"},\"src/interfaces/IJBTokenUriResolver.sol\":{\"keccak256\":\"0xfa5cb00dcd6085d1ef912d071fe73c63f9478a2cd0f9d8bddaf659b6af2d0967\",\"urls\":[\"bzz-raw://282e4e7c342d65f77cde0e9a08fcaf20ef5cf379c7a48b639842c0ffd0b2afb8\",\"dweb:/ipfs/QmbnN3PEQeZaXdPLT75V1J79kMg7KqSMru37RHrL3z8Yf2\"],\"license\":\"MIT\"},\"src/interfaces/IJBTokens.sol\":{\"keccak256\":\"0x6fd67af915dd541d9547c8297aa9ae269690e4ee23531db43f021bcacec6076f\",\"urls\":[\"bzz-raw://2e5e11954e9ab2319fffccb6563f3db400b8f7760d4ffe2165048a02c9c37fa6\",\"dweb:/ipfs/QmbDXtV83dK8EfiTjsTRf55R2XqPZzDKcjtYbW8sxQ5CFm\"],\"license\":\"MIT\"},\"src/libraries/JBConstants.sol\":{\"keccak256\":\"0x9d3a9a953f859d8ec79a599577f8972de6da7199cc1bfa7fdad017d4d722bcb4\",\"urls\":[\"bzz-raw://f151fcb53a8d2684eff8b9e56ac790bcbcadd8199a4fd4d17c5b224b22936722\",\"dweb:/ipfs/QmdAz1ZtCE8nTiC4AxQNLfJhnY3ndGum2Lbef7seKdvTdR\"],\"license\":\"MIT\"},\"src/libraries/JBFees.sol\":{\"keccak256\":\"0xd1491c7266f8a6944615a940c686d5ce8f8a51651cbaabece1e0a38154901028\",\"urls\":[\"bzz-raw://89d3d4424cf80e5b1a3dec3b23f6606b937c73c1160d0dc9eb8ddc7951293949\",\"dweb:/ipfs/QmRo7WCrTRkoCwj5FZ3G9CuxLM9a18Kh9tgs3rAnnKABAv\"],\"license\":\"MIT\"},\"src/libraries/JBMetadataResolver.sol\":{\"keccak256\":\"0xea4318b305f26587c79aeea37e66735b74c72ebd9846e73980ea93242c717eec\",\"urls\":[\"bzz-raw://d00769ea990593a917f7be9eddc844ed47a4f92aa6bc7006b09c07291d1dc670\",\"dweb:/ipfs/QmNiptYFMPJH6QggcZnLo6ttqeKD7ksujRJRAKFYaRYjpg\"],\"license\":\"MIT\"},\"src/libraries/JBRulesetMetadataResolver.sol\":{\"keccak256\":\"0x83f25c531d9e212379b4326fd93bf658a0f6d0e839bbd67bff7b66b9b55fb670\",\"urls\":[\"bzz-raw://3eb4a41ececec705febac7b799d7224e67f12761ae3975d49dd8bddaac608ecd\",\"dweb:/ipfs/QmNgL5VccDhP5xofEcGWNKk3v4KG23wGF9vc3d4YJ5MLnv\"],\"license\":\"MIT\"},\"src/structs/JBAccountingContext.sol\":{\"keccak256\":\"0x2907ff54d1e903cc7e0390dd88c3975884702dc2673642aacbe22b66560b56de\",\"urls\":[\"bzz-raw://a66a5381ce877b32f0e0058ceeaf843e9b6b2bc8af666c0c9f4a9d01091da004\",\"dweb:/ipfs/QmQynCetUr37dBkS1YwDS8evxuXGiqanW6THmeUxXtim8w\"],\"license\":\"MIT\"},\"src/structs/JBAfterPayRecordedContext.sol\":{\"keccak256\":\"0xd26c3a774ff38be79064085970454fe2603a23a638c76270d5b1b3829206c3e8\",\"urls\":[\"bzz-raw://3b55dbe3bf1ef625b7ca04efab3de35406e6041d5b3d82c7265469c500e2b702\",\"dweb:/ipfs/QmUdBDo4Lt3mcsFcsXT2mqq3czFwZjQJFPLM89YA2VtD7k\"],\"license\":\"MIT\"},\"src/structs/JBAfterRedeemRecordedContext.sol\":{\"keccak256\":\"0x521f5d23a36f0da72362cd84890cc867bd83baa8dc836ba6c5066d51dba2f163\",\"urls\":[\"bzz-raw://6cc461313286dde62d045d6288e87bae5032e035796326f5b1ed6218e58aa9da\",\"dweb:/ipfs/QmQS2AkQwf2ANQieDuaUnpJEdXChoLv4CCbZqHkfywYPSR\"],\"license\":\"MIT\"},\"src/structs/JBCurrencyAmount.sol\":{\"keccak256\":\"0x12fe4b43f4824994624d4fe0abbd88c3fe7867fd637edb65c7f456dab27e2d6e\",\"urls\":[\"bzz-raw://8003a3e8f932cf891e86b827e67c9d31b0d34c2712e18c2bc333cfe5284ba6d5\",\"dweb:/ipfs/QmSoA6RsDcSnNzk6CB7KZtALkHmeSDAi2g6fg3TDmLDkWX\"],\"license\":\"MIT\"},\"src/structs/JBFee.sol\":{\"keccak256\":\"0x90531b42853517d6e1d1955966ee6ffef38db901cb96770cfcbb6955f760aab0\",\"urls\":[\"bzz-raw://0fc1971f6fba2ec6092544d3eeea0121a078d9c7967a006029d1ef9d87bda805\",\"dweb:/ipfs/QmYyhRHKGCbSETczF848BHJfqMMGTQw5TeFeTu2nbbHX33\"],\"license\":\"MIT\"},\"src/structs/JBFundAccessLimitGroup.sol\":{\"keccak256\":\"0x9fdaa8d017b72da25f583700a444a86849df053f7fb8eac874ec5139bcf651e5\",\"urls\":[\"bzz-raw://c8e44c49ee444a98424a0dbeb6897a76a0bf00d88a613f62ac2012afdac754ee\",\"dweb:/ipfs/QmdYkAiRi5bXM1YYNkc7BiqimHSFodMGn1cjHR5hcpm4xH\"],\"license\":\"MIT\"},\"src/structs/JBPayHookSpecification.sol\":{\"keccak256\":\"0x955f0bfca97300b9e5927dc181753830ee362f83fa9ca32a90daade32aa0cfd5\",\"urls\":[\"bzz-raw://f517af1597c7c40f8d3da53f7a6684a3e162950a16559d6bf6ea3b727bb11546\",\"dweb:/ipfs/QmRWo2ZTYXmVZTzNJDYhsJNsEaHphjpUfx9eNz2cciyz86\"],\"license\":\"MIT\"},\"src/structs/JBPermissionsData.sol\":{\"keccak256\":\"0x8f0f69a6ebf5f3704e3dfcb3712fb9d3f94ae7c1ab89bf3e37bad42a3e7a0487\",\"urls\":[\"bzz-raw://57b0c5e52843e2217082889ed47b4da3943e0da4590d5768dcebfe3edad4a6b8\",\"dweb:/ipfs/QmRz48vuWLw81kUP836rh1qzqWiJFGbksgRUA9xGEDNKTY\"],\"license\":\"MIT\"},\"src/structs/JBRedeemHookSpecification.sol\":{\"keccak256\":\"0x673d16ee1a91bf8de3b37e57284e60451b70a9c2d748c9cdc7a151f5624af18f\",\"urls\":[\"bzz-raw://ceeb5e81effa0f076c5630c756dfcf1548d09f822b255a0a6ee01e54de8c8ae2\",\"dweb:/ipfs/QmSMoMNPRhPMnuJNvWa6S59XRfycGz9o2ApNp63bUW6TdX\"],\"license\":\"MIT\"},\"src/structs/JBRuleset.sol\":{\"keccak256\":\"0x15b2bf3174d84846a91ccbf5a344dfb125b55ed9cf50102db8d6868844225189\",\"urls\":[\"bzz-raw://647416b025dbd941094db89cbc69f755c155bd6c87be3f322394ccc4a8e0442d\",\"dweb:/ipfs/QmTCL9xcHnxQ4t5AmCPoZvXDUPW5xhzhyyXYbkMdyg44au\"],\"license\":\"MIT\"},\"src/structs/JBRulesetConfig.sol\":{\"keccak256\":\"0x0be470df286939259a6b98bc71459e661e81d56a58226d6a574ae1484f8f8e6c\",\"urls\":[\"bzz-raw://64592c279ba7518ac180c835a539897163f299a439065f2cc8aa54086a2c9ad7\",\"dweb:/ipfs/QmaEepVvFJdXcDBMMr7SQYjZSDJXPtCca95kQY5rZbra6U\"],\"license\":\"MIT\"},\"src/structs/JBRulesetMetadata.sol\":{\"keccak256\":\"0xfea54c9f98416d2aa05309e7ff76967d6968a614850a1e33e48fde793ea8b514\",\"urls\":[\"bzz-raw://bf55386cbab90dbc1296b2b0cbfdc217a4500d67702e4a093a4c78bd127ecd5c\",\"dweb:/ipfs/QmTRq9mZrNSXu7oCZwti4JbBFrbY6A5msRqi9RbtL49NAj\"],\"license\":\"MIT\"},\"src/structs/JBRulesetWithMetadata.sol\":{\"keccak256\":\"0x1bcfadf20488f6df65227f8d4d0fbf9b7539456a2389567f7fe3900d23289bc3\",\"urls\":[\"bzz-raw://0a15c399a71e5373f8c0484c6d6b83521eda31e063a2c53e4c5cec4e74550343\",\"dweb:/ipfs/QmQwi8zkjoTVXbK89NeETYimWCacTrNsesJdpLSvGdqMPX\"],\"license\":\"MIT\"},\"src/structs/JBSingleAllowanceContext.sol\":{\"keccak256\":\"0x5bcd5b3abafe9137ee451b112fcac473b4d48858544279d38d0c56dea5271f44\",\"urls\":[\"bzz-raw://5f17a870c2f1797a18918ab3dc6f404f0224d9e415815c708654a17686cd62c0\",\"dweb:/ipfs/QmWMDffMMrj7ZXquTHSQt8VQm5owo94BdPpJ93NfSp2jrn\"],\"license\":\"MIT\"},\"src/structs/JBSplit.sol\":{\"keccak256\":\"0x1d40fa4f1c911a53b9139f3d44d27cb58fa5c5d2cd793c7a21ccf52b9e61f848\",\"urls\":[\"bzz-raw://9897d2c29fc65fe16e4eac0b7b8b6fd8ef0b0cc501986f7f0c3a78c4ec1dbb60\",\"dweb:/ipfs/QmXcHoVjCYWWCz4hm2KZ6JxtB4YNq7jmXa2evLkga59Xwq\"],\"license\":\"MIT\"},\"src/structs/JBSplitGroup.sol\":{\"keccak256\":\"0xda7da6e88aac2906c7ea4027660088daf217edc632bebca4d72795aae8921564\",\"urls\":[\"bzz-raw://ae1939d17e94cb51484f31ce64cf0df990445a338fb9b38d39a7baf28275ae4a\",\"dweb:/ipfs/QmUhPnJiWnYhFdtLvZnrPopAdbYXxETpGjvxjPDignpTGY\"],\"license\":\"MIT\"},\"src/structs/JBSplitHookContext.sol\":{\"keccak256\":\"0xfe34e6860b00ca93d71f44e72882281b2c57c31303151af05795c74cfdd2e51d\",\"urls\":[\"bzz-raw://08acab094888e9c929b6f6f972d89ddbb31e5867675e7e7c602d25fcb2c0f402\",\"dweb:/ipfs/QmPNdXM185cTyXQSodVr4JMviHx88jrWu7dipgkp9xTNgJ\"],\"license\":\"MIT\"},\"src/structs/JBTerminalConfig.sol\":{\"keccak256\":\"0xd162f3821a1ccafbc8d7d108369e39ac3048445a8c7fe7a3fa97a6343f9eefaa\",\"urls\":[\"bzz-raw://82172ea0407b6d9edc45e408c7e8edb8e129adf49a94349fe3a5862da9bc044e\",\"dweb:/ipfs/QmWheF5Tjq2hcabnSzfYqdFHUA1YxYEdAPZaRw9N166V1d\"],\"license\":\"MIT\"},\"src/structs/JBTokenAmount.sol\":{\"keccak256\":\"0x5cf0626b73a596c1e2da17c89ae039a7c0374310b060d48568d3b6c11fbe6180\",\"urls\":[\"bzz-raw://63348b50be95e2995409394a17caffc563a646f0972650a1230bf864fbd3219b\",\"dweb:/ipfs/QmZXZpS3SbFD5nWaCauf6AqbEhLURv5qsKHpThBvQgDU6u\"],\"license\":\"MIT\"}},\"version\":1}",
			"args": [
				"0x6B8340b759d72E08b3fb674B48547E80631007cb",
				"0x2ca466eB84DD69A99E25d10BBbdA6e1B3c562c49",
				"0xCd7112aE7c3b2505F0795c1ba965e5694c25d696",
				"0xD685A38eA59b8Fca6dfed1AF41924a9B327af936",
				"0xbE1FFCeA127bbD53C0c3D68615572c0CBaa8d929",
				"0x5F4b3b392930cB3D4bd836c7b3B1fa66d971b578",
				"0x000000000022D473030F116dDEE9F6B43aC78BA3",
				"0xB2b5841DBeF766d4b521221732F9B618fCf34A87"
			],
			"bytecode": "0x6101806040523480156200001257600080fd5b50604051620061df380380620061df83398101604081905262000035916200008b565b6001600160a01b03978816608052871660a05294861660c05292851660e0529084166101005283166101205282166101405216610160526200014c565b6001600160a01b03811681146200008857600080fd5b50565b600080600080600080600080610100898b031215620000a957600080fd5b8851620000b68162000072565b60208a0151909850620000c98162000072565b60408a0151909750620000dc8162000072565b60608a0151909650620000ef8162000072565b60808a0151909550620001028162000072565b60a08a0151909450620001158162000072565b60c08a0151909350620001288162000072565b60e08a01519092506200013b8162000072565b809150509295985092959890939650565b60805160a05160c05160e05161010051610120516101405161016051615f466200029960003960008181610443015281816120ee01526124fe01526000818161040f015281816107c901528181610b6801528181610e820152818161289d01528181612d230152613fb801526000818161031f01528181611695015281816118af01528181611b5e01528181611d7d0152818161280e01528181612b6101528181612ef30152818161396501526145e30152600081816101b201526142390152600081816104aa01528181610a88015281816111e301528181611e3a0152818161225701528181612c0f0152613e6c0152600081816101fe0152818161114d01528181611515015281816117720152818161293e0152612f9101526000818161038b015281816104740152613a8f0152600081816105c6015281816126a001526127490152615f466000f3fe6080604052600436106101665760003560e01c80636afdd850116100d1578063bb7214fe1161008a578063cfaf583911610064578063cfaf583914610574578063e28b541114610594578063f434c914146105b4578063fef43257146105e857600080fd5b8063bb7214fe1461051f578063c57981b51461053f578063cc6801271461055457600080fd5b80636afdd850146104315780637da0a8771461046557806388bc2ef31461049857806398ea47fc146104cc5780639e6eec05146104ec578063b62d17cf146104ff57600080fd5b8063507f146511610123578063507f14651461030d578063515a929314610341578063572b6c051461036e5780635f912e56146103bb57806362ef3036146103dd578063659a2047146103fd57600080fd5b806301ffc9a71461016b5780631f47ce69146101a0578063293c4999146101ec57806333b30610146102205780633a01714f1461024d57806343a89aaf146102df575b600080fd5b34801561017757600080fd5b5061018b6101863660046148e8565b6105fb565b60405190151581526020015b60405180910390f35b3480156101ac57600080fd5b506101d47f000000000000000000000000000000000000000000000000000000000000000081565b6040516001600160a01b039091168152602001610197565b3480156101f857600080fd5b506101d47f000000000000000000000000000000000000000000000000000000000000000081565b34801561022c57600080fd5b5061024061023b366004614927565b6106ef565b6040516101979190614957565b34801561025957600080fd5b506102d2610268366004614927565b6040805160608082018352600080835260208084018290529284018190529485528482528285206001600160a01b03948516865282529382902082519485018352549283168452600160a01b830460ff1690840152600160a81b90910463ffffffff169082015290565b60405161019791906149e4565b3480156102eb57600080fd5b506102ff6102fa3660046149f2565b61078f565b604051908152602001610197565b34801561031957600080fd5b506101d47f000000000000000000000000000000000000000000000000000000000000000081565b34801561034d57600080fd5b5061036161035c366004614a5a565b610f22565b6040516101979190614ab9565b34801561037a57600080fd5b5061018b610389366004614acc565b7f00000000000000000000000000000000000000000000000000000000000000006001600160a01b0390811691161490565b3480156103c757600080fd5b506103db6103d6366004614ae9565b610fbc565b005b3480156103e957600080fd5b506103db6103f8366004614927565b611123565b34801561040957600080fd5b506101d47f000000000000000000000000000000000000000000000000000000000000000081565b34801561043d57600080fd5b506101d47f000000000000000000000000000000000000000000000000000000000000000081565b34801561047157600080fd5b507f00000000000000000000000000000000000000000000000000000000000000006101d4565b3480156104a457600080fd5b506101d47f000000000000000000000000000000000000000000000000000000000000000081565b3480156104d857600080fd5b506103db6104e7366004614b3a565b611133565b6103db6104fa366004614c07565b61146d565b34801561050b57600080fd5b506102ff61051a366004614cae565b6114f0565b34801561052b57600080fd5b506102ff61053a366004614d28565b6115fb565b34801561054b57600080fd5b506102ff601981565b34801561056057600080fd5b506102ff61056f366004614d84565b611670565b34801561058057600080fd5b506102ff61058f366004614db0565b61171c565b3480156105a057600080fd5b506102ff6105af366004614df8565b61174d565b3480156105c057600080fd5b506101d47f000000000000000000000000000000000000000000000000000000000000000081565b6102ff6105f6366004614e3a565b611a29565b60006001600160e01b0319821663775c5eb360e11b148061062c57506001600160e01b03198216633d0d324560e21b145b8061064757506001600160e01b03198216632f720bd160e21b145b8061066257506001600160e01b03198216635db90a7f60e11b145b8061067d57506001600160e01b03198216633a2ad55960e01b145b8061069857506001600160e01b031982166306afdd8560e41b145b806106b357506001600160e01b0319821663775c5eb360e11b145b806106ce57506001600160e01b031982166357175cc160e11b145b806106e957506001600160e01b031982166301ffc9a760e01b145b92915050565b60008281526002602090815260408083206001600160a01b03851684528252808320805482518185028101850190935280835260609492939192909184015b828210156107835760008481526020908190206040805160608101825260038602909201805483526001808201546001600160a01b03168486015260029091015491830191909152908352909201910161072e565b50505050905092915050565b600033301461079d57600080fd5b508160006107b160c0880160a08901614acc565b6001600160a01b031614610a52576001600160a01b037f00000000000000000000000000000000000000000000000000000000000000001663ae74a1b56107fe60c0890160a08a01614acc565b6040516001600160e01b031960e084901b1681526001600160a01b039091166004820152602401602060405180830381865afa158015610842573d6000803e3d6000fd5b505050506040513d601f19601f820116820180604052508101906108669190614eed565b61088257610875836019611ae6565b61087f9082614f20565b90505b6040805160c0810182526001600160a01b0386168082526020808301859052600089815280825284812083825290915283812054600160a01b900460ff169383019390935260608201889052608082015260a081016108e6368a90038a018a615008565b905290506108fa60c0880160a08901614acc565b6040516301ffc9a760e01b81526312903a8560e01b60048201526001600160a01b0391909116906301ffc9a790602401602060405180830381865afa158015610947573d6000803e3d6000fd5b505050506040513d601f19601f8201168201806040525081019061096b9190614eed565b6109a45760405162461bcd60e51b81526020600482015260056024820152643430305f3160d81b60448201526064015b60405180910390fd5b6109be6109b760c0890160a08a01614acc565b8684611b08565b60006001600160a01b03861661eeee146109d95760006109db565b825b90506109ed60c0890160a08a01614acc565b6001600160a01b03166312903a8582846040518363ffffffff1660e01b8152600401610a1991906150c4565b6000604051808303818588803b158015610a3257600080fd5b505af1158015610a46573d6000803e3d6000fd5b50505050505050610f19565b604086013515610e295760408051630862026560e41b81529087013560048201526001600160a01b0385811660248301526000917f000000000000000000000000000000000000000000000000000000000000000090911690638620265090604401602060405180830381865afa158015610ad1573d6000803e3d6000fd5b505050506040513d601f19601f82011682018060405250810190610af59190615118565b90506001600160a01b038116610b355760405162461bcd60e51b81526020600482015260056024820152641a181a2f9960d91b604482015260640161099b565b6001600160a01b0381163014801590610bd5575060405163ae74a1b560e01b81526001600160a01b0382811660048301527f0000000000000000000000000000000000000000000000000000000000000000169063ae74a1b590602401602060405180830381865afa158015610baf573d6000803e3d6000fd5b505050506040513d601f19601f82011682018060405250810190610bd39190614eed565b155b15610bf257610be5846019611ae6565b610bef9083614f20565b91505b6001600160a01b0381163014610c0d57610c0d818684611b08565b600086604051602001610c2291815260200190565b60408051601f198184030181529190529050610c416020890189615135565b15610d0e57306001600160a01b03831603610c7d57610c788860400135878560006040518060200160405280600081525086611b39565b610e22565b60006001600160a01b03871661eeee14610c98576000610c9a565b835b9050826001600160a01b0316639e6eec05828b604001358a886000886040518763ffffffff1660e01b8152600401610cd69594939291906151a2565b6000604051808303818588803b158015610cef57600080fd5b505af1158015610d03573d6000803e3d6000fd5b505050505050610e22565b600080610d2160808b0160608c01614acc565b6001600160a01b031603610d355784610d45565b610d4560808a0160608b01614acc565b9050306001600160a01b03841603610d7f57610d798960400135888630856040518060200160405280600081525088611c45565b50610e20565b60006001600160a01b03881661eeee14610d9a576000610d9c565b845b9050836001600160a01b031663fef43257828c604001358b898760008a6040518863ffffffff1660e01b8152600401610dda969594939291906151f0565b60206040518083038185885af1158015610df8573d6000803e3d6000fd5b50505050506040513d601f19601f82011682018060405250810190610e1d919061523c565b50505b505b5050610f19565b600080610e3c6080890160608a01614acc565b6001600160a01b031603610e505782610e60565b610e606080880160608901614acc565b60405163ae74a1b560e01b81526001600160a01b0380831660048301529192507f00000000000000000000000000000000000000000000000000000000000000009091169063ae74a1b590602401602060405180830381865afa158015610ecb573d6000803e3d6000fd5b505050506040513d601f19601f82011682018060405250810190610eef9190614eed565b610f0b57610efe846019611ae6565b610f089083614f20565b91505b610f1730828785611fbc565b505b95945050505050565b606060016000838152602001908152602001600020805480602002602001604051908101604052809291908181526020016000905b82821015610fb157600084815260209081902060408051606081018252918501546001600160a01b0381168352600160a01b810460ff1683850152600160a81b900463ffffffff1690820152825260019092019101610f57565b505050509050919050565b333014610fc857600080fd5b6001600160a01b0381166110065760405162461bcd60e51b81526020600482015260056024820152643430345f3160d81b604482015260640161099b565b6001600160a01b038116301461102157611021818585611b08565b60008560405160200161103691815260200190565b60408051601f198184030181529190529050306001600160a01b0383160361107d576110776001868630876040518060200160405280600081525087611c45565b5061111b565b60006001600160a01b03861661eeee1461109857600061109a565b845b9050826001600160a01b031663fef432578260018989896000896040518863ffffffff1660e01b81526004016110d5969594939291906151f0565b60206040518083038185885af11580156110f3573d6000803e3d6000fd5b50505050506040513d601f19601f82011682018060405250810190611118919061523c565b50505b505050505050565b61112f8282600061214c565b5050565b6040516331a9108f60e11b81526004810184905261126e907f00000000000000000000000000000000000000000000000000000000000000006001600160a01b031690636352211e90602401602060405180830381865afa15801561119c573d6000803e3d6000fd5b505050506040513d601f19601f820116820180604052508101906111c09190615118565b604051632eec7b5560e11b81526004810186905285906013906001600160a01b037f00000000000000000000000000000000000000000000000000000000000000001690635dd8f6aa90602401602060405180830381865afa15801561122a573d6000803e3d6000fd5b505050506040513d601f19601f8201168201806040525081019061124e9190615118565b6001600160a01b031661125f612388565b6001600160a01b031614612397565b806000805b8281101561111b5784848281811061128d5761128d615255565b90506020020160208101906112a29190614acc565b6000878152602081815260408083206001600160a01b038086168552925290912080549294509116156112e85760405163b83f909160e01b815260040160405180910390fd5b80546001600160a01b0319166001600160a01b038416908117825561eeee1461137257826001600160a01b031663313ce5676040518163ffffffff1660e01b8152600401602060405180830381865afa158015611349573d6000803e3d6000fd5b505050506040513d601f19601f8201168201806040525081019061136d9190615281565b611375565b60125b815464ffffffffff60a01b1916600160a01b60ff928316810263ffffffff60a81b1990811692909217600160a81b63ffffffff888116820292909217865560008c815260016020818152604083208054928301815583529091208754910180546001600160a01b039283166001600160a01b031982168117835589546001600160a81b03199092161790869004909716909402959095178084558654941693819004909116029190911790558316877f9570de6fc0456f642bd0a001b24cd31676388c24596df64a17190c24310690a18361144e612388565b60405161145c9291906152c7565b60405180910390a350600101611273565b611118888861147f8b8b8b88886123a7565b8888888080601f01602080910402602001604051908101604052809392919081815260200183838082843760009201919091525050604080516020601f8c018190048102820181019092528a815292508a9150899081908401838280828437600092019190915250611b3992505050565b6040516331a9108f60e11b815260048101899052600090611588906001600160a01b037f00000000000000000000000000000000000000000000000000000000000000001690636352211e90602401602060405180830381865afa15801561155c573d6000803e3d6000fd5b505050506040513d601f19601f820116820180604052508101906115809190615118565b8a6010612642565b6115cc898989898888888080601f0160208091040260200160405190810160405280939291908181526020018383808284376000920191909152506127d492505050565b9050848110156115ef5760405163a1a08d1760e01b815260040160405180910390fd5b98975050505050505050565b600061160989896003612642565b61164d898989898888888080601f016020809104026020016040519081016040528093929190818152602001838380828437600092019190915250612a6492505050565b9050848110156115ef5760405163f896960b60e01b815260040160405180910390fd5b600083815260016020526040808220905163d60d1a0960e01b81526001600160a01b037f0000000000000000000000000000000000000000000000000000000000000000169163d60d1a09916116d1913091899190899089906004016152ed565b602060405180830381865afa1580156116ee573d6000803e3d6000fd5b505050506040513d601f19601f82011682018060405250810190611712919061523c565b90505b9392505050565b600061172a86868686612eb9565b905081811015610f195760405163a1a08d1760e01b815260040160405180910390fd5b6040516331a9108f60e11b8152600481018490526000906117e5906001600160a01b037f00000000000000000000000000000000000000000000000000000000000000001690636352211e90602401602060405180830381865afa1580156117b9573d6000803e3d6000fd5b505050506040513d601f19601f820116820180604052508101906117dd9190615118565b856005612642565b604051633a01714f60e01b8152600481018590526001600160a01b038481166024830152831690633a01714f90604401606060405180830381865afa158015611832573d6000803e3d6000fd5b505050506040513d601f19601f82011682018060405250810190611856919061535e565b6020015160ff1660000361187d5760405163581010ed60e01b815260040160405180910390fd5b6118898484600161214c565b6040516319781e2360e01b8152600481018590526001600160a01b0384811660248301527f000000000000000000000000000000000000000000000000000000000000000016906319781e23906044016020604051808303816000875af11580156118f8573d6000803e3d6000fd5b505050506040513d601f19601f8201168201806040525081019061191c919061523c565b905080156119c35761192f828483611b08565b60006001600160a01b03841661eeee1461194a57600061194c565b815b6040805160208101825260008082529151639e6eec0560e01b81529293506001600160a01b03861692639e6eec0592859261198f928b928b928a926004016151a2565b6000604051808303818588803b1580156119a857600080fd5b505af11580156119bc573d6000803e3d6000fd5b5050505050505b816001600160a01b0316836001600160a01b0316857ff0aa72bb9c2a07cf43281bfe8c525ba320fdc71e18b54c9f93ab22ce074af7f684611a02612388565b604080519283526001600160a01b0390911660208301520160405180910390a49392505050565b6000611ab68a8a611a3d8d8d8d89896123a7565b611a45612388565b8b8a8a8080601f01602080910402602001604051908101604052809392919081815260200183838082843760009201919091525050604080516020601f8e018190048102820181019092528c815292508c91508b9081908401838280828437600092019190915250611c4592505050565b905085811015611ad9576040516370dc561160e11b815260040160405180910390fd5b9998505050505050505050565b6000611afe836103e8611af981866153b9565b6130f8565b6117159084614f20565b61eeed196001600160a01b03831601611b2057505050565b611b346001600160a01b03831684836131cc565b505050565b600083611b47576000611b52565b611b52878787613256565b90506001600160a01b037f0000000000000000000000000000000000000000000000000000000000000000166351fc17358888611b8f858a6153b9565b6040516001600160e01b031960e086901b16815260048101939093526001600160a01b0390911660248301526044820152606401600060405180830381600087803b158015611bdd57600080fd5b505af1158015611bf1573d6000803e3d6000fd5b50505050867f9ecaf7fc3dfffd6867c175d6e684b1f1e3aef019398ba8db2c1ffab4a09db25386838686611c23612388565b604051611c349594939291906153cc565b60405180910390a250505050505050565b6000611c4f614846565b60606000611c87604051806080016040528060006001600160a01b031681526020016000815260200160008152602001600081525090565b60008060008e815260200190815260200160002060008d6001600160a01b03166001600160a01b031681526020019081526020016000206040518060600160405290816000820160009054906101000a90046001600160a01b03166001600160a01b03166001600160a01b031681526020016000820160149054906101000a900460ff1660ff1660ff1681526020016000820160159054906101000a900463ffffffff1663ffffffff1663ffffffff1681525050905060405180608001604052808d6001600160a01b031681526020018c8152602001826020015160ff168152602001826040015163ffffffff168152509150507f00000000000000000000000000000000000000000000000000000000000000006001600160a01b0316639e6840c18a838f8c8b6040518663ffffffff1660e01b8152600401611dcf959493929190615444565b6000604051808303816000875af1158015611dee573d6000803e3d6000fd5b505050506040513d6000823e601f3d908101601f19168201604052611e169190810190615597565b91955090935091508115611f4157604051632eec7b5560e11b8152600481018d90527f00000000000000000000000000000000000000000000000000000000000000006001600160a01b031690635dd8f6aa90602401602060405180830381865afa158015611e89573d6000803e3d6000fd5b505050506040513d601f19601f82011682018060405250810190611ead9190615118565b6040516363fdc96f60e11b8152600481018e9052602481018490526001600160a01b038a8116604483015260a06064830152600060a483015260016084830152919091169063c7fb92de9060c4016020604051808303816000875af1158015611f1a573d6000803e3d6000fd5b505050506040513d601f19601f82011682018060405250810190611f3e919061523c565b94505b825115611f5857611f588c84838c888d8b8d613566565b8b846000015185602001517f133161f1c9161488f777ab9a26aae91d47c0d9a3fafb398960f138db02c737978c8c8f8b8e8e611f92612388565b604051611fa597969594939291906156bb565b60405180910390a450505050979650505050505050565b61eeed196001600160a01b03831601611fde57611fd9838261378c565b612146565b306001600160a01b0385160361200257611fd96001600160a01b03831684836137fc565b604051636eb1769f60e11b81526001600160a01b03858116600483015230602483015282919084169063dd62ed3e90604401602060405180830381865afa158015612051573d6000803e3d6000fd5b505050506040513d601f19601f82011682018060405250810190612075919061523c565b1061208f57611fd96001600160a01b03831685858461385b565b6001600160a01b038111156120b757604051633062f38960e11b815260040160405180910390fd5b604051631b63c28b60e11b81526001600160a01b0385811660048301528481166024830152828116604483015283811660648301527f000000000000000000000000000000000000000000000000000000000000000016906336c7851690608401600060405180830381600087803b15801561213257600080fd5b505af1158015611118573d6000803e3d6000fd5b50505050565b60008381526002602090815260408083206001600160a01b0386168452825280832080548251818502810185019093528083529192909190849084015b828210156121de5760008481526020908190206040805160608101825260038602909201805483526001808201546001600160a01b031684860152600290910154918301919091529083529092019101612189565b50505060008681526002602090815260408083206001600160a01b0389168452909152812092935061221192915061489b565b8051604080516060810182526000808252602082018190528183018190529151630862026560e41b8152600160048201526001600160a01b0387811660248301529192917f00000000000000000000000000000000000000000000000000000000000000001690638620265090604401602060405180830381865afa15801561229e573d6000803e3d6000fd5b505050506040513d601f19601f820116820180604052508101906122c29190615118565b905060005b83811015611118578481815181106122e1576122e1615255565b60200260200101519250851580156122fc5750428360400151115b156123695760008881526002602081815260408084206001600160a01b038c811686529083528185208054600180820183559187529584902089516003909702019586559288015192850180546001600160a01b0319169390911692909217909155850151910155612380565b612380888885600001518660200151866001613894565b6001016122c7565b6000612392613a7f565b905090565b8061214657612146848484612642565b6000858152602081815260408083206001600160a01b0388811685529252822054166123e657604051630faa917b60e11b815260040160405180910390fd5b61eeed196001600160a01b03861601612400575034610f19565b341561241f57604051635e7e9adf60e11b815260040160405180910390fd5b30612428612388565b6001600160a01b03160361243d575082610f19565b6000612467604051806040016040528060078152602001663832b936b4ba1960c91b815250613af4565b90506000806124ac8387878080601f016020809104026020016040519081016040528093929190818152602001838380828437600092019190915250613b0892505050565b915091508115612600576000818060200190518101906124cc9190615731565b90508781602001516001600160a01b031610156124fc576040516317e415a160e11b815260040160405180910390fd5b7f00000000000000000000000000000000000000000000000000000000000000006001600160a01b0316632b67b570612533612388565b604051806060016040528060405180608001604052808f6001600160a01b0316815260200187602001516001600160a01b03168152602001876040015165ffffffffffff168152602001876060015165ffffffffffff168152508152602001306001600160a01b03168152602001856000015181525084608001516040518463ffffffff1660e01b81526004016125cc939291906157dc565b600060405180830381600087803b1580156125e657600080fd5b505af11580156125fa573d6000803e3d6000fd5b50505050505b600061260b89613cae565b9050612620612618612388565b308b8b611fbc565b8061262a8a613cae565b6126349190614f20565b9a9950505050505050505050565b600061264c612388565b9050836001600160a01b0316816001600160a01b03161415801561270d575060405163c161c93f60e01b81526001600160a01b038281166004830152858116602483015260448201859052606482018490527f0000000000000000000000000000000000000000000000000000000000000000169063c161c93f90608401602060405180830381865afa1580156126e7573d6000803e3d6000fd5b505050506040513d601f19601f8201168201806040525081019061270b9190614eed565b155b80156127b6575060405163c161c93f60e01b81526001600160a01b038281166004830152858116602483015260006044830152606482018490527f0000000000000000000000000000000000000000000000000000000000000000169063c161c93f90608401602060405180830381865afa158015612790573d6000803e3d6000fd5b505050506040513d601f19601f820116820180604052508101906127b49190614eed565b155b156121465760405163075fd2b160e01b815260040160405180910390fd5b60006127de614846565b6000888152602081815260408083206001600160a01b038b81168552925291829020915163060f2bdf60e31b81527f0000000000000000000000000000000000000000000000000000000000000000909116916330795ef891612849918c918b908b90600401615850565b610140604051808303816000875af1158015612869573d6000803e3d6000fd5b505050506040513d601f19601f8201168201806040525081019061288d9190615876565b9250905060006001600160a01b037f00000000000000000000000000000000000000000000000000000000000000001663ae74a1b56128ca612388565b6040516001600160e01b031960e084901b1681526001600160a01b039091166004820152602401602060405180830381865afa15801561290e573d6000803e3d6000fd5b505050506040513d601f19601f820116820180604052508101906129329190614eed565b6129e4576129df8989857f00000000000000000000000000000000000000000000000000000000000000006001600160a01b0316636352211e8e6040518263ffffffff1660e01b815260040161298a91815260200190565b602060405180830381865afa1580156129a7573d6000803e3d6000fd5b505050506040513d601f19601f820116820180604052508101906129cb9190615118565b610100870151604b1c600190811614613d36565b6129e7565b60005b6129f19084614f20565b90508015612a0557612a0530868a84611fbc565b88826000015183602001517f8657a0c05a68a912c23c1bd00124afaa8c669063b046bd9bfd22b21d573c5e6d888b88878b612a3e612388565b604051612a50969594939291906158a5565b60405180910390a450509695505050505050565b6000612a6e614846565b6000878152602081815260408083206001600160a01b038a8116855290835281842082516060808201855291549283168152600160a01b830460ff1681860152600160a81b90920463ffffffff16828401528b855260018452828520805484518187028101870190955280855291959492938593909290849084015b82821015612b4457600084815260209081902060408051606081018252918501546001600160a01b0381168352600160a01b810460ff1683850152600160a81b900463ffffffff1690820152825260019092019101612aea565b5050604051630d346b8160e01b8152929350506001600160a01b037f00000000000000000000000000000000000000000000000000000000000000001691630d346b819150612ba1908f908f908e90889088908f906004016158ef565b6000604051808303816000875af1158015612bc0573d6000803e3d6000fd5b505050506040513d6000823e601f3d908101601f19168201604052612be89190810190615941565b91985091965094509250508715612cfc57604051632eec7b5560e11b8152600481018b90527f00000000000000000000000000000000000000000000000000000000000000006001600160a01b031690635dd8f6aa90602401602060405180830381865afa158015612c5e573d6000803e3d6000fd5b505050506040513d601f19601f82011682018060405250810190612c829190615118565b60405163516a997360e11b81526001600160a01b038d81166004830152602482018d9052604482018b90526080606483015260006084830152919091169063a2d532e69060a401600060405180830381600087803b158015612ce357600080fd5b505af1158015612cf7573d6000803e3d6000fd5b505050505b60008515612dd85760405163ae74a1b560e01b81526001600160a01b0389811660048301527f0000000000000000000000000000000000000000000000000000000000000000169063ae74a1b590602401602060405180830381865afa158015612d6a573d6000803e3d6000fd5b505050506040513d601f19601f82011682018060405250810190612d8e9190614eed565b158015612d9d57506127108314155b15612dc657612dac86826153b9565b9050612db9866019611ae6565b612dc39087614f20565b95505b8515612dd857612dd830898c89611fbc565b835115612e3757612e2a8b60405180608001604052808d6001600160a01b03168152602001898152602001856020015160ff168152602001856040015163ffffffff168152508e8c8b8a898f8c613eea565b612e3490826153b9565b90505b80600003612e46576000612e54565b612e548b8b838b6000613d36565b508a856000015186602001517f9565fc8bdd4f45a73582d1163dbe522a4fb0c4dbb882b5e66269f70101a2509a8f8c8e898d8f612e8f612388565b604051612ea29796959493929190615a6d565b60405180910390a450505050509695505050505050565b6000612ec3614846565b6000868152602081815260408083206001600160a01b038981168552925291829020915163181241e760e31b81527f00000000000000000000000000000000000000000000000000000000000000009091169163c0920f3891612f2e918a9189908990600401615850565b610140604051808303816000875af1158015612f4e573d6000803e3d6000fd5b505050506040513d601f19601f82011682018060405250810190612f729190615876565b6040516331a9108f60e11b8152600481018990529093509091506000907f00000000000000000000000000000000000000000000000000000000000000006001600160a01b031690636352211e90602401602060405180830381865afa158015612fe0573d6000803e3d6000fd5b505050506040513d601f19601f820116820180604052508101906130049190615118565b905060008061301989898660200151886141ff565b909250905060006130458a8a61302f86866153b9565b6101008901518890604b1c600190811614613d36565b9050600083156130725761305a846019611ae6565b6130649085614f20565b905061307230868c84611fbc565b8a866000015187602001517fda42c5c18ef97738d10c32811895add569670a6fcbe9627ea198d446f3be6dea888d8c88886130ab612388565b604080516001600160a01b03978816815260208101969096528501939093526060840191909152608083015290911660a082015260c00160405180910390a4505050505050949350505050565b60008080600019858709858702925082811083820303915050806000036131325783828161312857613128615ac0565b0492505050611715565b83811061316357604051630c740aef60e31b815260048101879052602481018690526044810185905260640161099b565b60008486880960026001871981018816978890046003810283188082028403028082028403028082028403028082028403028082028403029081029092039091026000889003889004909101858311909403939093029303949094049190911702949350505050565b604051636eb1769f60e11b81523060048201526001600160a01b0383811660248301526000919085169063dd62ed3e90604401602060405180830381865afa15801561321c573d6000803e3d6000fd5b505050506040513d601f19601f82011682018060405250810190613240919061523c565b9050612146848461325185856153b9565b6143cb565b60008381526002602090815260408083206001600160a01b0386168452825280832080548251818502810185019093528083528493849084015b828210156132e55760008481526020908190206040805160608101825260038602909201805483526001808201546001600160a01b031684860152600290910154918301919091529083529092019101613290565b50505060008781526002602090815260408083206001600160a01b038a168452909152812092935061331892915061489b565b8051604080516060810182526000808252602082018190529181018290528592915b828110156134fc5784818151811061335457613354615255565b60200260200101519150836000036133ce5760008981526002602081815260408084206001600160a01b038d811686529083528185208054600180820183559187529584902088516003909702019586559287015192850180546001600160a01b03191693909116929092179091558401519101556134f4565b60006133df83600001516019611ae6565b905060008184600001516133f39190614f20565b905080861061340a579681019694859003946134f1565b61341586601961445b565b9150600260008c815260200190815260200160002060008b6001600160a01b03166001600160a01b031681526020019081526020016000206040518060600160405280888403815260200186602001516001600160a01b03168152602001866040015181525090806001815401808255809150506001900390600052602060002090600302016000909190919091506000820151816000015560208201518160010160006101000a8154816001600160a01b0302191690836001600160a01b031602179055506040820151816002015550508188019750600095505b50505b60010161333a565b5085876001600160a01b0316897fedc5125503c021a73fd7d8ed0c2456b296be2c88f39fbed068bd091cef7ca43d8887613534612388565b6040805193845260208401929092526001600160a01b03169082015260600160405180910390a4505050509392505050565b6000604051806101400160405280876001600160a01b031681526020018a8152602001866020015181526020018881526020018881526020018660a001518152602001848152602001856001600160a01b0316815260200160405180602001604052806000815250815260200183815250905060008851905061360c604051806060016040528060006001600160a01b0316815260200160008152602001606081525090565b60005b8281101561377e578a818151811061362957613629615255565b6020026020010151915060405180608001604052808b600001516001600160a01b03168152602001836020015181526020018b6040015181526020018b606001518152508460800181905250816040015184610100018190525061369a82600001518b600001518460200151611b08565b89516000906001600160a01b031661eeee146136b75760006136bd565b82602001515b835160405163f3c5788160e01b81529192506001600160a01b03169063f3c578819083906136ef908990600401615b82565b6000604051808303818588803b15801561370857600080fd5b505af115801561371c573d6000803e3d6000fd5b505050505082600001516001600160a01b03167f092bf36eb737817b64e5cea9e9b69305c423a987b5c3066516b046cad5c0bc3686856020015161375e612388565b60405161376d93929190615b95565b60405180910390a25060010161360f565b505050505050505050505050565b804710156137af5760405163cd78605960e01b815230600482015260240161099b565b6000826001600160a01b03168260405160006040518083038185875af1925050503d806000811461111b576040519150601f19603f3d011682016040523d82523d6000602084013e61111b565b6040516001600160a01b03838116602483015260448201839052611b3491859182169063a9059cbb906064015b604051602081830303815290604052915060e01b6020820180516001600160e01b03838183161783525050505061446a565b6040516001600160a01b0384811660248301528381166044830152606482018390526121469186918216906323b872dd90608401613829565b604051632fc8972b60e11b8152600481018790526001600160a01b038087166024830152604482018690528085166064830152831660848201523090635f912e569060a401600060405180830381600087803b1580156138f357600080fd5b505af1925050508015613904575060015b613a16573d808015613932576040519150601f19603f3d011682016040523d82523d6000602084013e613937565b606091505b506040516351fc173560e01b8152600481018890526001600160a01b038781166024830152604482018790527f000000000000000000000000000000000000000000000000000000000000000016906351fc173590606401600060405180830381600087803b1580156139a957600080fd5b505af11580156139bd573d6000803e3d6000fd5b505050506001866001600160a01b0316887f4b73f3c5cfb174c9d0494138d07ff8ee3aa400df46327d9893ed5ac122dd558a88856139f9612388565b604051613a0893929190615bc8565b60405180910390a45061111b565b83856001600160a01b0316877fb514e730b3f8ad3aa94b6857bcc5ff4a46954bdcf8c4b0346705b1d0ac7a43258487613a4d612388565b6040805193151584526001600160a01b03928316602085015291169082015260600160405180910390a4505050505050565b6000366014336001600160a01b037f000000000000000000000000000000000000000000000000000000000000000016148015613abc5750808210155b15613aec57600036613ace8385614f20565b613ad9928290615bf9565b613ae291615c23565b60601c9250505090565b339250505090565b805160208201206000903060601b186106e9565b600060606025835111613b2d5750506040805160208101909152600080825290613ca7565b600083613b3c600460206153b9565b81518110613b4c57613b4c615255565b0160209081015160f81c91505b600085613b676004846153b9565b81518110613b7757613b77615255565b01602001516001600160f81b03191614801590613b9d5750613b9a602083615c58565b81105b15613ca457600085613bb06004846153b9565b81518110613bc057613bc0615255565b016020908101518784019091015160f89190911c91506001600160e01b031980891690821603613c9a576000613bf7602086615c58565b613c026009866153b9565b101580613c37575087613c166009866153b9565b81518110613c2657613c26615255565b01602001516001600160f81b031916155b613c7057602088613c496009876153b9565b81518110613c5957613c59615255565b0160200151613c6b919060f81c615c58565b613c73565b87515b90506001613c8c89613c86602087615c58565b846144cd565b965096505050505050613ca7565b5050600501613b59565b50505b9250929050565b60006001600160a01b03821661eeee14613d2f576040516370a0823160e01b81523060048201526001600160a01b038316906370a0823190602401602060405180830381865afa158015613d06573d6000803e3d6000fd5b505050506040513d601f19601f82011682018060405250810190613d2a919061523c565b6106e9565b4792915050565b6000613d43846019611ae6565b90508115613e435760008681526002602090815260408083206001600160a01b03808a168552908352928190208151606081018352888152938716928401929092529091908101613d976224ea00426153b9565b9052815460018082018455600093845260209384902083516003909302019182559282015192810180546001600160a01b0319166001600160a01b0394851617905560409091015160029091015584908616877fef9cd8fc3b61b64b44042ada0a8a3ede1649bc1b112673da228120f13bf1381e601987613e16612388565b604080519384526001600160a01b03928316602085015291169082015260600160405180910390a4610f19565b604051630862026560e41b8152600160048201526001600160a01b0386811660248301526000917f000000000000000000000000000000000000000000000000000000000000000090911690638620265090604401602060405180830381865afa158015613eb5573d6000803e3d6000fd5b505050506040513d601f19601f82011682018060405250810190613ed99190615118565b9050610f1787878487856000613894565b6000806040518061014001604052808a6001600160a01b031681526020018c8152602001876020015181526020018981526020018b81526020018b8152602001868152602001856001600160a01b03168152602001604051806020016040528060008152508152602001888152509050600083519050613f8d604051806060016040528060006001600160a01b0316815260200160008152602001606081525090565b60005b828110156141ee57858181518110613faa57613faa615255565b6020026020010151915060007f00000000000000000000000000000000000000000000000000000000000000006001600160a01b031663ae74a1b584600001516040518263ffffffff1660e01b815260040161401591906001600160a01b0391909116815260200190565b602060405180830381865afa158015614032573d6000803e3d6000fd5b505050506040513d601f19601f820116820180604052508101906140569190614eed565b61406e5761406983602001516019611ae6565b614071565b60005b905080156140a057602083015161408890876153b9565b9550808360200181815161409c9190614f20565b9052505b60405180608001604052808f600001516001600160a01b03168152602001846020015181526020018f6040015181526020018f606001518152508560a00181905250826040015185610100018190525061410783600001518f600001518560200151611b08565b8d516000906001600160a01b031661eeee1461412457600061412a565b83602001515b84516040516319bb132d60e21b81529192506001600160a01b0316906366ec4cb490839061415c908a90600401615cfe565b6000604051808303818588803b15801561417557600080fd5b505af1158015614189573d6000803e3d6000fd5b505050505083600001516001600160a01b03167f5d2ae7ac07b3a26000acaa692b550c84cbb87300557e0359791cfec9efe1615a878660200151856141cc612388565b6040516141dc9493929190615d11565b60405180910390a25050600101613f90565b505050509998505050505050505050565b6040516369e11cc560e01b815260048101859052602481018390526001600160a01b0384811660448301526000918291633b9aca009183917f000000000000000000000000000000000000000000000000000000000000000016906369e11cc590606401600060405180830381865afa158015614280573d6000803e3d6000fd5b505050506040513d6000823e601f3d908101601f191682016040526142a89190810190615d49565b80516040805160c081018252600080825260208201819052918101829052606081018290526080810182905260a08101919091529192509060005b828110156143ba578381815181106142fd576142fd615255565b602002602001015191506000614318898460200151886130f8565b90506000614328848e8e85614513565b905080158015906143395750818114155b1561434b5761434882896153b9565b97505b811561435757818a0399505b8360200151870396508b6001600160a01b03168b8e7f39305f11865947ab83bc6548c8c77e5890ed5bc4a6ea54e6fe7b22f4f406f4b8878686614398612388565b6040516143a89493929190615e3f565b60405180910390a450506001016142e3565b508695505050505094509492505050565b604080516001600160a01b038416602482015260448082018490528251808303909101815260649091019091526020810180516001600160e01b031663095ea7b360e01b17905261441c8482614699565b612146576040516001600160a01b0384811660248301526000604483015261445191869182169063095ea7b390606401613829565b612146848261446a565b600061171583836103e86130f8565b600061447f6001600160a01b0384168361473c565b905080516000141580156144a45750808060200190518101906144a29190614eed565b155b15611b3457604051635274afe760e01b81526001600160a01b038416600482015260240161099b565b60608282036040519150602081830101604052808252508260208501016020820160005b848110156145095782810151828201526020016144f1565b5050509392505050565b6000306343a89aaf86868686614527612388565b6040518663ffffffff1660e01b8152600401614547959493929190615e73565b6020604051808303816000875af1925050508015614582575060408051601f3d908101601f1916820190925261457f9181019061523c565b60015b61468e573d8080156145b0576040519150601f19603f3d011682016040523d82523d6000602084013e6145b5565b606091505b506040516351fc173560e01b8152600481018690526001600160a01b038581166024830152604482018590527f000000000000000000000000000000000000000000000000000000000000000016906351fc173590606401600060405180830381600087803b15801561462757600080fd5b505af115801561463b573d6000803e3d6000fd5b50505050847f37b65da09d1a43465d8f823dcc858aa187792b35585b56afe707d57d7108d22887858461466c612388565b60405161467c9493929190615eb2565b60405180910390a26000915050614691565b90505b949350505050565b6000806000846001600160a01b0316846040516146b69190615ef4565b6000604051808303816000865af19150503d80600081146146f3576040519150601f19603f3d011682016040523d82523d6000602084013e6146f8565b606091505b50915091508180156147225750805115806147225750808060200190518101906147229190614eed565b8015610f195750505050506001600160a01b03163b151590565b60606117158383600084600080856001600160a01b031684866040516147629190615ef4565b60006040518083038185875af1925050503d806000811461479f576040519150601f19603f3d011682016040523d82523d6000602084013e6147a4565b606091505b50915091506147b48683836147be565b9695505050505050565b6060826147d3576147ce8261481a565b611715565b81511580156147ea57506001600160a01b0384163b155b1561481357604051639996b31560e01b81526001600160a01b038516600482015260240161099b565b5080611715565b80511561482a5780518082602001fd5b604051630a12f52160e11b815260040160405180910390fd5b50565b6040518061012001604052806000815260200160008152602001600081526020016000815260200160008152602001600081526020016000815260200160006001600160a01b03168152602001600081525090565b508054600082556003029060005260206000209081019061484391905b808211156148e45760008082556001820180546001600160a01b031916905560028201556003016148b8565b5090565b6000602082840312156148fa57600080fd5b81356001600160e01b03198116811461171557600080fd5b6001600160a01b038116811461484357600080fd5b6000806040838503121561493a57600080fd5b82359150602083013561494c81614912565b809150509250929050565b602080825282518282018190526000919060409081850190868401855b828110156149ac57815180518552868101516001600160a01b0316878601528501518585015260609093019290850190600101614974565b5091979650505050505050565b80516001600160a01b0316825260208082015160ff169083015260409081015163ffffffff16910152565b606081016106e982846149b9565b6000806000806000858703610140811215614a0c57600080fd5b60c0811215614a1a57600080fd5b5085945060c0860135935060e0860135614a3381614912565b92506101008601359150610120860135614a4c81614912565b809150509295509295909350565b600060208284031215614a6c57600080fd5b5035919050565b60008151808452602080850194506020840160005b83811015614aae57614a9b8783516149b9565b6060969096019590820190600101614a88565b509495945050505050565b6020815260006117156020830184614a73565b600060208284031215614ade57600080fd5b813561171581614912565b600080600080600060a08688031215614b0157600080fd5b853594506020860135614b1381614912565b9350604086013592506060860135614b2a81614912565b91506080860135614a4c81614912565b600080600060408486031215614b4f57600080fd5b8335925060208401356001600160401b0380821115614b6d57600080fd5b818601915086601f830112614b8157600080fd5b813581811115614b9057600080fd5b8760208260051b8501011115614ba557600080fd5b6020830194508093505050509250925092565b801515811461484357600080fd5b60008083601f840112614bd857600080fd5b5081356001600160401b03811115614bef57600080fd5b602083019150836020828501011115613ca757600080fd5b60008060008060008060008060c0898b031215614c2357600080fd5b883597506020890135614c3581614912565b9650604089013595506060890135614c4c81614bb8565b945060808901356001600160401b0380821115614c6857600080fd5b614c748c838d01614bc6565b909650945060a08b0135915080821115614c8d57600080fd5b50614c9a8b828c01614bc6565b999c989b5096995094979396929594505050565b60008060008060008060008060e0898b031215614cca57600080fd5b883597506020890135614cdc81614912565b965060408901359550606089013594506080890135935060a0890135614d0181614912565b925060c08901356001600160401b03811115614d1c57600080fd5b614c9a8b828c01614bc6565b60008060008060008060008060e0898b031215614d4457600080fd5b8835614d4f81614912565b9750602089013596506040890135614d6681614912565b9550606089013594506080890135935060a0890135614d0181614912565b600080600060608486031215614d9957600080fd5b505081359360208301359350604090920135919050565b600080600080600060a08688031215614dc857600080fd5b853594506020860135614dda81614912565b94979496505050506040830135926060810135926080909101359150565b600080600060608486031215614e0d57600080fd5b833592506020840135614e1f81614912565b91506040840135614e2f81614912565b809150509250925092565b600080600080600080600080600060e08a8c031215614e5857600080fd5b8935985060208a0135614e6a81614912565b975060408a0135965060608a0135614e8181614912565b955060808a0135945060a08a01356001600160401b0380821115614ea457600080fd5b614eb08d838e01614bc6565b909650945060c08c0135915080821115614ec957600080fd5b50614ed68c828d01614bc6565b915080935050809150509295985092959850929598565b600060208284031215614eff57600080fd5b815161171581614bb8565b634e487b7160e01b600052601160045260246000fd5b818103818111156106e9576106e9614f0a565b634e487b7160e01b600052604160045260246000fd5b60405160c081016001600160401b0381118282101715614f6b57614f6b614f33565b60405290565b604051606081016001600160401b0381118282101715614f6b57614f6b614f33565b60405161012081016001600160401b0381118282101715614f6b57614f6b614f33565b60405160a081016001600160401b0381118282101715614f6b57614f6b614f33565b604051601f8201601f191681016001600160401b038111828210171561500057615000614f33565b604052919050565b600060c0828403121561501a57600080fd5b615022614f49565b823561502d81614bb8565b808252506020830135602082015260408301356040820152606083013561505381614912565b60608201526080838101359082015260a083013561507081614912565b60a08201529392505050565b80511515825260208082015190830152604080820151908301526060808201516001600160a01b03908116918401919091526080808301519084015260a09182015116910152565b81516001600160a01b031681526020808301519082015260408083015190820152606080830151908201526080808301519082015260a0828101516101608301916151119084018261507c565b5092915050565b60006020828403121561512a57600080fd5b815161171581614912565b60006020828403121561514757600080fd5b813561171581614bb8565b60005b8381101561516d578181015183820152602001615155565b50506000910152565b6000815180845261518e816020860160208601615152565b601f01601f19169290920160200192915050565b85815260018060a01b0385166020820152836040820152821515606082015260c06080820152600060c082015260e060a082015260006151e560e0830184615176565b979650505050505050565b868152600060018060a01b03808816602084015286604084015280861660608401525083608083015260e060a0830152600060e08301526101008060c0840152611ad981840185615176565b60006020828403121561524e57600080fd5b5051919050565b634e487b7160e01b600052603260045260246000fd5b805160ff8116811461527c57600080fd5b919050565b60006020828403121561529357600080fd5b6117158261526b565b546001600160a01b038116825260a081901c60ff16602083015260a81c63ffffffff16604090910152565b608081016152d5828561529c565b6001600160a01b039290921660609190910152919050565b6001600160a01b0386168152602080820186905260a060408301819052855490830181905260008681529182209060c0840190835b8181101561534757615334838561529c565b6001938401936060939093019201615322565b505060608401959095525050608001529392505050565b60006060828403121561537057600080fd5b615378614f71565b825161538381614912565b81526153916020840161526b565b6020820152604083015163ffffffff811681146153ad57600080fd5b60408201529392505050565b808201808211156106e9576106e9614f0a565b85815284602082015260a0604082015260006153eb60a0830186615176565b82810360608401526153fd8186615176565b91505060018060a01b03831660808301529695505050505050565b80516001600160a01b031682526020808201519083015260408082015190830152606090810151910152565b6001600160a01b038681168252600090610100906154656020850189615418565b8660a085015280861660c0850152508060e08401526115ef81840185615176565b805161527c81614912565b600061012082840312156154a457600080fd5b6154ac614f93565b9050815181526020820151602082015260408201516040820152606082015160608201526080820151608082015260a082015160a082015260c082015160c08201526154fa60e08301615486565b60e082015261010080830151818301525092915050565b60006001600160401b0382111561552a5761552a614f33565b5060051b60200190565b600082601f83011261554557600080fd5b81516001600160401b0381111561555e5761555e614f33565b615571601f8201601f1916602001614fd8565b81815284602083860101111561558657600080fd5b614691826020830160208701615152565b600080600061016084860312156155ad57600080fd5b6155b78585615491565b925061012084015191506101408401516001600160401b03808211156155dc57600080fd5b818601915086601f8301126155f057600080fd5b8151602061560561560083615511565b614fd8565b82815260059290921b8401810191818101908a84111561562457600080fd5b8286015b848110156156aa5780518681111561563f57600080fd5b87016060818e03601f1901121561565557600080fd5b61565d614f71565b8582015161566a81614912565b81526040820151868201526060820151888111156156885760008081fd5b6156968f8883860101615534565b604083015250845250918301918301615628565b508096505050505050509250925092565b600060018060a01b03808a168352808916602084015287604084015286606084015260e060808401526156f160e0840187615176565b83810360a08501526157038187615176565b92505080841660c08401525098975050505050505050565b805165ffffffffffff8116811461527c57600080fd5b60006020828403121561574357600080fd5b81516001600160401b038082111561575a57600080fd5b9083019060a0828603121561576e57600080fd5b615776614fb6565b82518152602083015161578881614912565b60208201526157996040840161571b565b60408201526157aa6060840161571b565b60608201526080830151828111156157c157600080fd5b6157cd87828601615534565b60808301525095945050505050565b600061010060018060a01b0380871684528551818151166020860152816020820151166040860152604081015165ffffffffffff80821660608801528060608401511660808801525050508060208701511660a085015250604085015160c08401528060e08401526147b481840185615176565b84815260c08101615864602083018661529c565b608082019390935260a0015292915050565b600080610140838503121561588a57600080fd5b6158948484615491565b915061012083015190509250929050565b600060018060a01b03808916835287602084015286604084015285606084015260c060808401526158d960c0840186615176565b915080841660a084015250979650505050505050565b6001600160a01b03871681526020810186905260408101859052600061010061591b60608401876149b9565b8060c084015261592d81840186614a73565b905082810360e0840152611ad98185615176565b600080600080610180858703121561595857600080fd5b6159628686615491565b9350610120850151925061014085015191506101608501516001600160401b038082111561598f57600080fd5b818701915087601f8301126159a357600080fd5b81516159b161560082615511565b8082825260208201915060208360051b86010192508a8311156159d357600080fd5b602085015b83811015615a5d578051858111156159ef57600080fd5b86016060818e03601f19011215615a0557600080fd5b615a0d614f71565b6020820151615a1b81614912565b815260408201516020820152606082015187811115615a3957600080fd5b615a488f602083860101615534565b604083015250845250602092830192016159d8565b50979a9699509497505050505050565b600060018060a01b03808a168352808916602084015287604084015286606084015285608084015260e060a0840152615aa960e0840186615176565b915080841660c08401525098975050505050505050565b634e487b7160e01b600052601260045260246000fd5b80516001600160a01b03168252600061020060208301516020850152604083015160408501526060830151615b0e6060860182615418565b506080830151615b2160e0860182615418565b5060a083015161016085015260c083015161018085015260e08301516001600160a01b03166101a08501526101008301516101c08501829052615b6682860182615176565b9150506101208301518482036101e0860152610f198282615176565b6020815260006117156020830184615ad6565b606081526000615ba86060830186615ad6565b6020830194909452506001600160a01b0391909116604090910152919050565b838152606060208201526000615be16060830185615176565b905060018060a01b0383166040830152949350505050565b60008085851115615c0957600080fd5b83861115615c1657600080fd5b5050820193919092039150565b6bffffffffffffffffffffffff198135818116916014851015615c505780818660140360031b1b83161692505b505092915050565b80820281158282048414176106e9576106e9614f0a565b80516001600160a01b0316825260006102006020830151602085015260408301516040850152606083015160608501526080830151615cb16080860182615418565b5060a0830151610100615cc681870183615418565b60c085015161018087015260e08501516001600160a01b03166101a08701528401516101c086018390529050615b6682860182615176565b6020815260006117156020830184615c6f565b608081526000615d246080830187615c6f565b60208301959095525060408101929092526001600160a01b0316606090910152919050565b60006020808385031215615d5c57600080fd5b82516001600160401b03811115615d7257600080fd5b8301601f81018513615d8357600080fd5b8051615d9161560082615511565b81815260c09182028301840191848201919088841115615db057600080fd5b938501935b83851015615e335780858a031215615dcd5760008081fd5b615dd5614f49565b8551615de081614bb8565b8152858701518782015260408087015190820152606080870151615e0381614912565b908201526080868101519082015260a080870151615e2081614912565b9082015283529384019391850191615db5565b50979650505050505050565b6101208101615e4e828761507c565b60c082019490945260e08101929092526001600160a01b031661010090910152919050565b6101408101615e82828861507c565b60c08201959095526001600160a01b0393841660e082015261010081019290925290911661012090910152919050565b6000610120615ec1838861507c565b8560c08401528060e0840152615ed981840186615176565b91505060018060a01b03831661010083015295945050505050565b60008251615f06818460208701615152565b919091019291505056fea264697066735822122007900eb815a96465fceb92cf01f0631000e05751ba1cf3a6aa5d7d423ca8124e64736f6c63430008170033",
			"deployedBytecode": "0x6080604052600436106101665760003560e01c80636afdd850116100d1578063bb7214fe1161008a578063cfaf583911610064578063cfaf583914610574578063e28b541114610594578063f434c914146105b4578063fef43257146105e857600080fd5b8063bb7214fe1461051f578063c57981b51461053f578063cc6801271461055457600080fd5b80636afdd850146104315780637da0a8771461046557806388bc2ef31461049857806398ea47fc146104cc5780639e6eec05146104ec578063b62d17cf146104ff57600080fd5b8063507f146511610123578063507f14651461030d578063515a929314610341578063572b6c051461036e5780635f912e56146103bb57806362ef3036146103dd578063659a2047146103fd57600080fd5b806301ffc9a71461016b5780631f47ce69146101a0578063293c4999146101ec57806333b30610146102205780633a01714f1461024d57806343a89aaf146102df575b600080fd5b34801561017757600080fd5b5061018b6101863660046148e8565b6105fb565b60405190151581526020015b60405180910390f35b3480156101ac57600080fd5b506101d47f000000000000000000000000d685a38ea59b8fca6dfed1af41924a9b327af93681565b6040516001600160a01b039091168152602001610197565b3480156101f857600080fd5b506101d47f0000000000000000000000002ca466eb84dd69a99e25d10bbbda6e1b3c562c4981565b34801561022c57600080fd5b5061024061023b366004614927565b6106ef565b6040516101979190614957565b34801561025957600080fd5b506102d2610268366004614927565b6040805160608082018352600080835260208084018290529284018190529485528482528285206001600160a01b03948516865282529382902082519485018352549283168452600160a01b830460ff1690840152600160a81b90910463ffffffff169082015290565b60405161019791906149e4565b3480156102eb57600080fd5b506102ff6102fa3660046149f2565b61078f565b604051908152602001610197565b34801561031957600080fd5b506101d47f000000000000000000000000be1ffcea127bbd53c0c3d68615572c0cbaa8d92981565b34801561034d57600080fd5b5061036161035c366004614a5a565b610f22565b6040516101979190614ab9565b34801561037a57600080fd5b5061018b610389366004614acc565b7f000000000000000000000000b2b5841dbef766d4b521221732f9b618fcf34a876001600160a01b0390811691161490565b3480156103c757600080fd5b506103db6103d6366004614ae9565b610fbc565b005b3480156103e957600080fd5b506103db6103f8366004614927565b611123565b34801561040957600080fd5b506101d47f0000000000000000000000005f4b3b392930cb3d4bd836c7b3b1fa66d971b57881565b34801561043d57600080fd5b506101d47f000000000000000000000000000000000022d473030f116ddee9f6b43ac78ba381565b34801561047157600080fd5b507f000000000000000000000000b2b5841dbef766d4b521221732f9b618fcf34a876101d4565b3480156104a457600080fd5b506101d47f000000000000000000000000cd7112ae7c3b2505f0795c1ba965e5694c25d69681565b3480156104d857600080fd5b506103db6104e7366004614b3a565b611133565b6103db6104fa366004614c07565b61146d565b34801561050b57600080fd5b506102ff61051a366004614cae565b6114f0565b34801561052b57600080fd5b506102ff61053a366004614d28565b6115fb565b34801561054b57600080fd5b506102ff601981565b34801561056057600080fd5b506102ff61056f366004614d84565b611670565b34801561058057600080fd5b506102ff61058f366004614db0565b61171c565b3480156105a057600080fd5b506102ff6105af366004614df8565b61174d565b3480156105c057600080fd5b506101d47f0000000000000000000000006b8340b759d72e08b3fb674b48547e80631007cb81565b6102ff6105f6366004614e3a565b611a29565b60006001600160e01b0319821663775c5eb360e11b148061062c57506001600160e01b03198216633d0d324560e21b145b8061064757506001600160e01b03198216632f720bd160e21b145b8061066257506001600160e01b03198216635db90a7f60e11b145b8061067d57506001600160e01b03198216633a2ad55960e01b145b8061069857506001600160e01b031982166306afdd8560e41b145b806106b357506001600160e01b0319821663775c5eb360e11b145b806106ce57506001600160e01b031982166357175cc160e11b145b806106e957506001600160e01b031982166301ffc9a760e01b145b92915050565b60008281526002602090815260408083206001600160a01b03851684528252808320805482518185028101850190935280835260609492939192909184015b828210156107835760008481526020908190206040805160608101825260038602909201805483526001808201546001600160a01b03168486015260029091015491830191909152908352909201910161072e565b50505050905092915050565b600033301461079d57600080fd5b508160006107b160c0880160a08901614acc565b6001600160a01b031614610a52576001600160a01b037f0000000000000000000000005f4b3b392930cb3d4bd836c7b3b1fa66d971b5781663ae74a1b56107fe60c0890160a08a01614acc565b6040516001600160e01b031960e084901b1681526001600160a01b039091166004820152602401602060405180830381865afa158015610842573d6000803e3d6000fd5b505050506040513d601f19601f820116820180604052508101906108669190614eed565b61088257610875836019611ae6565b61087f9082614f20565b90505b6040805160c0810182526001600160a01b0386168082526020808301859052600089815280825284812083825290915283812054600160a01b900460ff169383019390935260608201889052608082015260a081016108e6368a90038a018a615008565b905290506108fa60c0880160a08901614acc565b6040516301ffc9a760e01b81526312903a8560e01b60048201526001600160a01b0391909116906301ffc9a790602401602060405180830381865afa158015610947573d6000803e3d6000fd5b505050506040513d601f19601f8201168201806040525081019061096b9190614eed565b6109a45760405162461bcd60e51b81526020600482015260056024820152643430305f3160d81b60448201526064015b60405180910390fd5b6109be6109b760c0890160a08a01614acc565b8684611b08565b60006001600160a01b03861661eeee146109d95760006109db565b825b90506109ed60c0890160a08a01614acc565b6001600160a01b03166312903a8582846040518363ffffffff1660e01b8152600401610a1991906150c4565b6000604051808303818588803b158015610a3257600080fd5b505af1158015610a46573d6000803e3d6000fd5b50505050505050610f19565b604086013515610e295760408051630862026560e41b81529087013560048201526001600160a01b0385811660248301526000917f000000000000000000000000cd7112ae7c3b2505f0795c1ba965e5694c25d69690911690638620265090604401602060405180830381865afa158015610ad1573d6000803e3d6000fd5b505050506040513d601f19601f82011682018060405250810190610af59190615118565b90506001600160a01b038116610b355760405162461bcd60e51b81526020600482015260056024820152641a181a2f9960d91b604482015260640161099b565b6001600160a01b0381163014801590610bd5575060405163ae74a1b560e01b81526001600160a01b0382811660048301527f0000000000000000000000005f4b3b392930cb3d4bd836c7b3b1fa66d971b578169063ae74a1b590602401602060405180830381865afa158015610baf573d6000803e3d6000fd5b505050506040513d601f19601f82011682018060405250810190610bd39190614eed565b155b15610bf257610be5846019611ae6565b610bef9083614f20565b91505b6001600160a01b0381163014610c0d57610c0d818684611b08565b600086604051602001610c2291815260200190565b60408051601f198184030181529190529050610c416020890189615135565b15610d0e57306001600160a01b03831603610c7d57610c788860400135878560006040518060200160405280600081525086611b39565b610e22565b60006001600160a01b03871661eeee14610c98576000610c9a565b835b9050826001600160a01b0316639e6eec05828b604001358a886000886040518763ffffffff1660e01b8152600401610cd69594939291906151a2565b6000604051808303818588803b158015610cef57600080fd5b505af1158015610d03573d6000803e3d6000fd5b505050505050610e22565b600080610d2160808b0160608c01614acc565b6001600160a01b031603610d355784610d45565b610d4560808a0160608b01614acc565b9050306001600160a01b03841603610d7f57610d798960400135888630856040518060200160405280600081525088611c45565b50610e20565b60006001600160a01b03881661eeee14610d9a576000610d9c565b845b9050836001600160a01b031663fef43257828c604001358b898760008a6040518863ffffffff1660e01b8152600401610dda969594939291906151f0565b60206040518083038185885af1158015610df8573d6000803e3d6000fd5b50505050506040513d601f19601f82011682018060405250810190610e1d919061523c565b50505b505b5050610f19565b600080610e3c6080890160608a01614acc565b6001600160a01b031603610e505782610e60565b610e606080880160608901614acc565b60405163ae74a1b560e01b81526001600160a01b0380831660048301529192507f0000000000000000000000005f4b3b392930cb3d4bd836c7b3b1fa66d971b5789091169063ae74a1b590602401602060405180830381865afa158015610ecb573d6000803e3d6000fd5b505050506040513d601f19601f82011682018060405250810190610eef9190614eed565b610f0b57610efe846019611ae6565b610f089083614f20565b91505b610f1730828785611fbc565b505b95945050505050565b606060016000838152602001908152602001600020805480602002602001604051908101604052809291908181526020016000905b82821015610fb157600084815260209081902060408051606081018252918501546001600160a01b0381168352600160a01b810460ff1683850152600160a81b900463ffffffff1690820152825260019092019101610f57565b505050509050919050565b333014610fc857600080fd5b6001600160a01b0381166110065760405162461bcd60e51b81526020600482015260056024820152643430345f3160d81b604482015260640161099b565b6001600160a01b038116301461102157611021818585611b08565b60008560405160200161103691815260200190565b60408051601f198184030181529190529050306001600160a01b0383160361107d576110776001868630876040518060200160405280600081525087611c45565b5061111b565b60006001600160a01b03861661eeee1461109857600061109a565b845b9050826001600160a01b031663fef432578260018989896000896040518863ffffffff1660e01b81526004016110d5969594939291906151f0565b60206040518083038185885af11580156110f3573d6000803e3d6000fd5b50505050506040513d601f19601f82011682018060405250810190611118919061523c565b50505b505050505050565b61112f8282600061214c565b5050565b6040516331a9108f60e11b81526004810184905261126e907f0000000000000000000000002ca466eb84dd69a99e25d10bbbda6e1b3c562c496001600160a01b031690636352211e90602401602060405180830381865afa15801561119c573d6000803e3d6000fd5b505050506040513d601f19601f820116820180604052508101906111c09190615118565b604051632eec7b5560e11b81526004810186905285906013906001600160a01b037f000000000000000000000000cd7112ae7c3b2505f0795c1ba965e5694c25d6961690635dd8f6aa90602401602060405180830381865afa15801561122a573d6000803e3d6000fd5b505050506040513d601f19601f8201168201806040525081019061124e9190615118565b6001600160a01b031661125f612388565b6001600160a01b031614612397565b806000805b8281101561111b5784848281811061128d5761128d615255565b90506020020160208101906112a29190614acc565b6000878152602081815260408083206001600160a01b038086168552925290912080549294509116156112e85760405163b83f909160e01b815260040160405180910390fd5b80546001600160a01b0319166001600160a01b038416908117825561eeee1461137257826001600160a01b031663313ce5676040518163ffffffff1660e01b8152600401602060405180830381865afa158015611349573d6000803e3d6000fd5b505050506040513d601f19601f8201168201806040525081019061136d9190615281565b611375565b60125b815464ffffffffff60a01b1916600160a01b60ff928316810263ffffffff60a81b1990811692909217600160a81b63ffffffff888116820292909217865560008c815260016020818152604083208054928301815583529091208754910180546001600160a01b039283166001600160a01b031982168117835589546001600160a81b03199092161790869004909716909402959095178084558654941693819004909116029190911790558316877f9570de6fc0456f642bd0a001b24cd31676388c24596df64a17190c24310690a18361144e612388565b60405161145c9291906152c7565b60405180910390a350600101611273565b611118888861147f8b8b8b88886123a7565b8888888080601f01602080910402602001604051908101604052809392919081815260200183838082843760009201919091525050604080516020601f8c018190048102820181019092528a815292508a9150899081908401838280828437600092019190915250611b3992505050565b6040516331a9108f60e11b815260048101899052600090611588906001600160a01b037f0000000000000000000000002ca466eb84dd69a99e25d10bbbda6e1b3c562c491690636352211e90602401602060405180830381865afa15801561155c573d6000803e3d6000fd5b505050506040513d601f19601f820116820180604052508101906115809190615118565b8a6010612642565b6115cc898989898888888080601f0160208091040260200160405190810160405280939291908181526020018383808284376000920191909152506127d492505050565b9050848110156115ef5760405163a1a08d1760e01b815260040160405180910390fd5b98975050505050505050565b600061160989896003612642565b61164d898989898888888080601f016020809104026020016040519081016040528093929190818152602001838380828437600092019190915250612a6492505050565b9050848110156115ef5760405163f896960b60e01b815260040160405180910390fd5b600083815260016020526040808220905163d60d1a0960e01b81526001600160a01b037f000000000000000000000000be1ffcea127bbd53c0c3d68615572c0cbaa8d929169163d60d1a09916116d1913091899190899089906004016152ed565b602060405180830381865afa1580156116ee573d6000803e3d6000fd5b505050506040513d601f19601f82011682018060405250810190611712919061523c565b90505b9392505050565b600061172a86868686612eb9565b905081811015610f195760405163a1a08d1760e01b815260040160405180910390fd5b6040516331a9108f60e11b8152600481018490526000906117e5906001600160a01b037f0000000000000000000000002ca466eb84dd69a99e25d10bbbda6e1b3c562c491690636352211e90602401602060405180830381865afa1580156117b9573d6000803e3d6000fd5b505050506040513d601f19601f820116820180604052508101906117dd9190615118565b856005612642565b604051633a01714f60e01b8152600481018590526001600160a01b038481166024830152831690633a01714f90604401606060405180830381865afa158015611832573d6000803e3d6000fd5b505050506040513d601f19601f82011682018060405250810190611856919061535e565b6020015160ff1660000361187d5760405163581010ed60e01b815260040160405180910390fd5b6118898484600161214c565b6040516319781e2360e01b8152600481018590526001600160a01b0384811660248301527f000000000000000000000000be1ffcea127bbd53c0c3d68615572c0cbaa8d92916906319781e23906044016020604051808303816000875af11580156118f8573d6000803e3d6000fd5b505050506040513d601f19601f8201168201806040525081019061191c919061523c565b905080156119c35761192f828483611b08565b60006001600160a01b03841661eeee1461194a57600061194c565b815b6040805160208101825260008082529151639e6eec0560e01b81529293506001600160a01b03861692639e6eec0592859261198f928b928b928a926004016151a2565b6000604051808303818588803b1580156119a857600080fd5b505af11580156119bc573d6000803e3d6000fd5b5050505050505b816001600160a01b0316836001600160a01b0316857ff0aa72bb9c2a07cf43281bfe8c525ba320fdc71e18b54c9f93ab22ce074af7f684611a02612388565b604080519283526001600160a01b0390911660208301520160405180910390a49392505050565b6000611ab68a8a611a3d8d8d8d89896123a7565b611a45612388565b8b8a8a8080601f01602080910402602001604051908101604052809392919081815260200183838082843760009201919091525050604080516020601f8e018190048102820181019092528c815292508c91508b9081908401838280828437600092019190915250611c4592505050565b905085811015611ad9576040516370dc561160e11b815260040160405180910390fd5b9998505050505050505050565b6000611afe836103e8611af981866153b9565b6130f8565b6117159084614f20565b61eeed196001600160a01b03831601611b2057505050565b611b346001600160a01b03831684836131cc565b505050565b600083611b47576000611b52565b611b52878787613256565b90506001600160a01b037f000000000000000000000000be1ffcea127bbd53c0c3d68615572c0cbaa8d929166351fc17358888611b8f858a6153b9565b6040516001600160e01b031960e086901b16815260048101939093526001600160a01b0390911660248301526044820152606401600060405180830381600087803b158015611bdd57600080fd5b505af1158015611bf1573d6000803e3d6000fd5b50505050867f9ecaf7fc3dfffd6867c175d6e684b1f1e3aef019398ba8db2c1ffab4a09db25386838686611c23612388565b604051611c349594939291906153cc565b60405180910390a250505050505050565b6000611c4f614846565b60606000611c87604051806080016040528060006001600160a01b031681526020016000815260200160008152602001600081525090565b60008060008e815260200190815260200160002060008d6001600160a01b03166001600160a01b031681526020019081526020016000206040518060600160405290816000820160009054906101000a90046001600160a01b03166001600160a01b03166001600160a01b031681526020016000820160149054906101000a900460ff1660ff1660ff1681526020016000820160159054906101000a900463ffffffff1663ffffffff1663ffffffff1681525050905060405180608001604052808d6001600160a01b031681526020018c8152602001826020015160ff168152602001826040015163ffffffff168152509150507f000000000000000000000000be1ffcea127bbd53c0c3d68615572c0cbaa8d9296001600160a01b0316639e6840c18a838f8c8b6040518663ffffffff1660e01b8152600401611dcf959493929190615444565b6000604051808303816000875af1158015611dee573d6000803e3d6000fd5b505050506040513d6000823e601f3d908101601f19168201604052611e169190810190615597565b91955090935091508115611f4157604051632eec7b5560e11b8152600481018d90527f000000000000000000000000cd7112ae7c3b2505f0795c1ba965e5694c25d6966001600160a01b031690635dd8f6aa90602401602060405180830381865afa158015611e89573d6000803e3d6000fd5b505050506040513d601f19601f82011682018060405250810190611ead9190615118565b6040516363fdc96f60e11b8152600481018e9052602481018490526001600160a01b038a8116604483015260a06064830152600060a483015260016084830152919091169063c7fb92de9060c4016020604051808303816000875af1158015611f1a573d6000803e3d6000fd5b505050506040513d601f19601f82011682018060405250810190611f3e919061523c565b94505b825115611f5857611f588c84838c888d8b8d613566565b8b846000015185602001517f133161f1c9161488f777ab9a26aae91d47c0d9a3fafb398960f138db02c737978c8c8f8b8e8e611f92612388565b604051611fa597969594939291906156bb565b60405180910390a450505050979650505050505050565b61eeed196001600160a01b03831601611fde57611fd9838261378c565b612146565b306001600160a01b0385160361200257611fd96001600160a01b03831684836137fc565b604051636eb1769f60e11b81526001600160a01b03858116600483015230602483015282919084169063dd62ed3e90604401602060405180830381865afa158015612051573d6000803e3d6000fd5b505050506040513d601f19601f82011682018060405250810190612075919061523c565b1061208f57611fd96001600160a01b03831685858461385b565b6001600160a01b038111156120b757604051633062f38960e11b815260040160405180910390fd5b604051631b63c28b60e11b81526001600160a01b0385811660048301528481166024830152828116604483015283811660648301527f000000000000000000000000000000000022d473030f116ddee9f6b43ac78ba316906336c7851690608401600060405180830381600087803b15801561213257600080fd5b505af1158015611118573d6000803e3d6000fd5b50505050565b60008381526002602090815260408083206001600160a01b0386168452825280832080548251818502810185019093528083529192909190849084015b828210156121de5760008481526020908190206040805160608101825260038602909201805483526001808201546001600160a01b031684860152600290910154918301919091529083529092019101612189565b50505060008681526002602090815260408083206001600160a01b0389168452909152812092935061221192915061489b565b8051604080516060810182526000808252602082018190528183018190529151630862026560e41b8152600160048201526001600160a01b0387811660248301529192917f000000000000000000000000cd7112ae7c3b2505f0795c1ba965e5694c25d6961690638620265090604401602060405180830381865afa15801561229e573d6000803e3d6000fd5b505050506040513d601f19601f820116820180604052508101906122c29190615118565b905060005b83811015611118578481815181106122e1576122e1615255565b60200260200101519250851580156122fc5750428360400151115b156123695760008881526002602081815260408084206001600160a01b038c811686529083528185208054600180820183559187529584902089516003909702019586559288015192850180546001600160a01b0319169390911692909217909155850151910155612380565b612380888885600001518660200151866001613894565b6001016122c7565b6000612392613a7f565b905090565b8061214657612146848484612642565b6000858152602081815260408083206001600160a01b0388811685529252822054166123e657604051630faa917b60e11b815260040160405180910390fd5b61eeed196001600160a01b03861601612400575034610f19565b341561241f57604051635e7e9adf60e11b815260040160405180910390fd5b30612428612388565b6001600160a01b03160361243d575082610f19565b6000612467604051806040016040528060078152602001663832b936b4ba1960c91b815250613af4565b90506000806124ac8387878080601f016020809104026020016040519081016040528093929190818152602001838380828437600092019190915250613b0892505050565b915091508115612600576000818060200190518101906124cc9190615731565b90508781602001516001600160a01b031610156124fc576040516317e415a160e11b815260040160405180910390fd5b7f000000000000000000000000000000000022d473030f116ddee9f6b43ac78ba36001600160a01b0316632b67b570612533612388565b604051806060016040528060405180608001604052808f6001600160a01b0316815260200187602001516001600160a01b03168152602001876040015165ffffffffffff168152602001876060015165ffffffffffff168152508152602001306001600160a01b03168152602001856000015181525084608001516040518463ffffffff1660e01b81526004016125cc939291906157dc565b600060405180830381600087803b1580156125e657600080fd5b505af11580156125fa573d6000803e3d6000fd5b50505050505b600061260b89613cae565b9050612620612618612388565b308b8b611fbc565b8061262a8a613cae565b6126349190614f20565b9a9950505050505050505050565b600061264c612388565b9050836001600160a01b0316816001600160a01b03161415801561270d575060405163c161c93f60e01b81526001600160a01b038281166004830152858116602483015260448201859052606482018490527f0000000000000000000000006b8340b759d72e08b3fb674b48547e80631007cb169063c161c93f90608401602060405180830381865afa1580156126e7573d6000803e3d6000fd5b505050506040513d601f19601f8201168201806040525081019061270b9190614eed565b155b80156127b6575060405163c161c93f60e01b81526001600160a01b038281166004830152858116602483015260006044830152606482018490527f0000000000000000000000006b8340b759d72e08b3fb674b48547e80631007cb169063c161c93f90608401602060405180830381865afa158015612790573d6000803e3d6000fd5b505050506040513d601f19601f820116820180604052508101906127b49190614eed565b155b156121465760405163075fd2b160e01b815260040160405180910390fd5b60006127de614846565b6000888152602081815260408083206001600160a01b038b81168552925291829020915163060f2bdf60e31b81527f000000000000000000000000be1ffcea127bbd53c0c3d68615572c0cbaa8d929909116916330795ef891612849918c918b908b90600401615850565b610140604051808303816000875af1158015612869573d6000803e3d6000fd5b505050506040513d601f19601f8201168201806040525081019061288d9190615876565b9250905060006001600160a01b037f0000000000000000000000005f4b3b392930cb3d4bd836c7b3b1fa66d971b5781663ae74a1b56128ca612388565b6040516001600160e01b031960e084901b1681526001600160a01b039091166004820152602401602060405180830381865afa15801561290e573d6000803e3d6000fd5b505050506040513d601f19601f820116820180604052508101906129329190614eed565b6129e4576129df8989857f0000000000000000000000002ca466eb84dd69a99e25d10bbbda6e1b3c562c496001600160a01b0316636352211e8e6040518263ffffffff1660e01b815260040161298a91815260200190565b602060405180830381865afa1580156129a7573d6000803e3d6000fd5b505050506040513d601f19601f820116820180604052508101906129cb9190615118565b610100870151604b1c600190811614613d36565b6129e7565b60005b6129f19084614f20565b90508015612a0557612a0530868a84611fbc565b88826000015183602001517f8657a0c05a68a912c23c1bd00124afaa8c669063b046bd9bfd22b21d573c5e6d888b88878b612a3e612388565b604051612a50969594939291906158a5565b60405180910390a450509695505050505050565b6000612a6e614846565b6000878152602081815260408083206001600160a01b038a8116855290835281842082516060808201855291549283168152600160a01b830460ff1681860152600160a81b90920463ffffffff16828401528b855260018452828520805484518187028101870190955280855291959492938593909290849084015b82821015612b4457600084815260209081902060408051606081018252918501546001600160a01b0381168352600160a01b810460ff1683850152600160a81b900463ffffffff1690820152825260019092019101612aea565b5050604051630d346b8160e01b8152929350506001600160a01b037f000000000000000000000000be1ffcea127bbd53c0c3d68615572c0cbaa8d9291691630d346b819150612ba1908f908f908e90889088908f906004016158ef565b6000604051808303816000875af1158015612bc0573d6000803e3d6000fd5b505050506040513d6000823e601f3d908101601f19168201604052612be89190810190615941565b91985091965094509250508715612cfc57604051632eec7b5560e11b8152600481018b90527f000000000000000000000000cd7112ae7c3b2505f0795c1ba965e5694c25d6966001600160a01b031690635dd8f6aa90602401602060405180830381865afa158015612c5e573d6000803e3d6000fd5b505050506040513d601f19601f82011682018060405250810190612c829190615118565b60405163516a997360e11b81526001600160a01b038d81166004830152602482018d9052604482018b90526080606483015260006084830152919091169063a2d532e69060a401600060405180830381600087803b158015612ce357600080fd5b505af1158015612cf7573d6000803e3d6000fd5b505050505b60008515612dd85760405163ae74a1b560e01b81526001600160a01b0389811660048301527f0000000000000000000000005f4b3b392930cb3d4bd836c7b3b1fa66d971b578169063ae74a1b590602401602060405180830381865afa158015612d6a573d6000803e3d6000fd5b505050506040513d601f19601f82011682018060405250810190612d8e9190614eed565b158015612d9d57506127108314155b15612dc657612dac86826153b9565b9050612db9866019611ae6565b612dc39087614f20565b95505b8515612dd857612dd830898c89611fbc565b835115612e3757612e2a8b60405180608001604052808d6001600160a01b03168152602001898152602001856020015160ff168152602001856040015163ffffffff168152508e8c8b8a898f8c613eea565b612e3490826153b9565b90505b80600003612e46576000612e54565b612e548b8b838b6000613d36565b508a856000015186602001517f9565fc8bdd4f45a73582d1163dbe522a4fb0c4dbb882b5e66269f70101a2509a8f8c8e898d8f612e8f612388565b604051612ea29796959493929190615a6d565b60405180910390a450505050509695505050505050565b6000612ec3614846565b6000868152602081815260408083206001600160a01b038981168552925291829020915163181241e760e31b81527f000000000000000000000000be1ffcea127bbd53c0c3d68615572c0cbaa8d9299091169163c0920f3891612f2e918a9189908990600401615850565b610140604051808303816000875af1158015612f4e573d6000803e3d6000fd5b505050506040513d601f19601f82011682018060405250810190612f729190615876565b6040516331a9108f60e11b8152600481018990529093509091506000907f0000000000000000000000002ca466eb84dd69a99e25d10bbbda6e1b3c562c496001600160a01b031690636352211e90602401602060405180830381865afa158015612fe0573d6000803e3d6000fd5b505050506040513d601f19601f820116820180604052508101906130049190615118565b905060008061301989898660200151886141ff565b909250905060006130458a8a61302f86866153b9565b6101008901518890604b1c600190811614613d36565b9050600083156130725761305a846019611ae6565b6130649085614f20565b905061307230868c84611fbc565b8a866000015187602001517fda42c5c18ef97738d10c32811895add569670a6fcbe9627ea198d446f3be6dea888d8c88886130ab612388565b604080516001600160a01b03978816815260208101969096528501939093526060840191909152608083015290911660a082015260c00160405180910390a4505050505050949350505050565b60008080600019858709858702925082811083820303915050806000036131325783828161312857613128615ac0565b0492505050611715565b83811061316357604051630c740aef60e31b815260048101879052602481018690526044810185905260640161099b565b60008486880960026001871981018816978890046003810283188082028403028082028403028082028403028082028403028082028403029081029092039091026000889003889004909101858311909403939093029303949094049190911702949350505050565b604051636eb1769f60e11b81523060048201526001600160a01b0383811660248301526000919085169063dd62ed3e90604401602060405180830381865afa15801561321c573d6000803e3d6000fd5b505050506040513d601f19601f82011682018060405250810190613240919061523c565b9050612146848461325185856153b9565b6143cb565b60008381526002602090815260408083206001600160a01b0386168452825280832080548251818502810185019093528083528493849084015b828210156132e55760008481526020908190206040805160608101825260038602909201805483526001808201546001600160a01b031684860152600290910154918301919091529083529092019101613290565b50505060008781526002602090815260408083206001600160a01b038a168452909152812092935061331892915061489b565b8051604080516060810182526000808252602082018190529181018290528592915b828110156134fc5784818151811061335457613354615255565b60200260200101519150836000036133ce5760008981526002602081815260408084206001600160a01b038d811686529083528185208054600180820183559187529584902088516003909702019586559287015192850180546001600160a01b03191693909116929092179091558401519101556134f4565b60006133df83600001516019611ae6565b905060008184600001516133f39190614f20565b905080861061340a579681019694859003946134f1565b61341586601961445b565b9150600260008c815260200190815260200160002060008b6001600160a01b03166001600160a01b031681526020019081526020016000206040518060600160405280888403815260200186602001516001600160a01b03168152602001866040015181525090806001815401808255809150506001900390600052602060002090600302016000909190919091506000820151816000015560208201518160010160006101000a8154816001600160a01b0302191690836001600160a01b031602179055506040820151816002015550508188019750600095505b50505b60010161333a565b5085876001600160a01b0316897fedc5125503c021a73fd7d8ed0c2456b296be2c88f39fbed068bd091cef7ca43d8887613534612388565b6040805193845260208401929092526001600160a01b03169082015260600160405180910390a4505050509392505050565b6000604051806101400160405280876001600160a01b031681526020018a8152602001866020015181526020018881526020018881526020018660a001518152602001848152602001856001600160a01b0316815260200160405180602001604052806000815250815260200183815250905060008851905061360c604051806060016040528060006001600160a01b0316815260200160008152602001606081525090565b60005b8281101561377e578a818151811061362957613629615255565b6020026020010151915060405180608001604052808b600001516001600160a01b03168152602001836020015181526020018b6040015181526020018b606001518152508460800181905250816040015184610100018190525061369a82600001518b600001518460200151611b08565b89516000906001600160a01b031661eeee146136b75760006136bd565b82602001515b835160405163f3c5788160e01b81529192506001600160a01b03169063f3c578819083906136ef908990600401615b82565b6000604051808303818588803b15801561370857600080fd5b505af115801561371c573d6000803e3d6000fd5b505050505082600001516001600160a01b03167f092bf36eb737817b64e5cea9e9b69305c423a987b5c3066516b046cad5c0bc3686856020015161375e612388565b60405161376d93929190615b95565b60405180910390a25060010161360f565b505050505050505050505050565b804710156137af5760405163cd78605960e01b815230600482015260240161099b565b6000826001600160a01b03168260405160006040518083038185875af1925050503d806000811461111b576040519150601f19603f3d011682016040523d82523d6000602084013e61111b565b6040516001600160a01b03838116602483015260448201839052611b3491859182169063a9059cbb906064015b604051602081830303815290604052915060e01b6020820180516001600160e01b03838183161783525050505061446a565b6040516001600160a01b0384811660248301528381166044830152606482018390526121469186918216906323b872dd90608401613829565b604051632fc8972b60e11b8152600481018790526001600160a01b038087166024830152604482018690528085166064830152831660848201523090635f912e569060a401600060405180830381600087803b1580156138f357600080fd5b505af1925050508015613904575060015b613a16573d808015613932576040519150601f19603f3d011682016040523d82523d6000602084013e613937565b606091505b506040516351fc173560e01b8152600481018890526001600160a01b038781166024830152604482018790527f000000000000000000000000be1ffcea127bbd53c0c3d68615572c0cbaa8d92916906351fc173590606401600060405180830381600087803b1580156139a957600080fd5b505af11580156139bd573d6000803e3d6000fd5b505050506001866001600160a01b0316887f4b73f3c5cfb174c9d0494138d07ff8ee3aa400df46327d9893ed5ac122dd558a88856139f9612388565b604051613a0893929190615bc8565b60405180910390a45061111b565b83856001600160a01b0316877fb514e730b3f8ad3aa94b6857bcc5ff4a46954bdcf8c4b0346705b1d0ac7a43258487613a4d612388565b6040805193151584526001600160a01b03928316602085015291169082015260600160405180910390a4505050505050565b6000366014336001600160a01b037f000000000000000000000000b2b5841dbef766d4b521221732f9b618fcf34a8716148015613abc5750808210155b15613aec57600036613ace8385614f20565b613ad9928290615bf9565b613ae291615c23565b60601c9250505090565b339250505090565b805160208201206000903060601b186106e9565b600060606025835111613b2d5750506040805160208101909152600080825290613ca7565b600083613b3c600460206153b9565b81518110613b4c57613b4c615255565b0160209081015160f81c91505b600085613b676004846153b9565b81518110613b7757613b77615255565b01602001516001600160f81b03191614801590613b9d5750613b9a602083615c58565b81105b15613ca457600085613bb06004846153b9565b81518110613bc057613bc0615255565b016020908101518784019091015160f89190911c91506001600160e01b031980891690821603613c9a576000613bf7602086615c58565b613c026009866153b9565b101580613c37575087613c166009866153b9565b81518110613c2657613c26615255565b01602001516001600160f81b031916155b613c7057602088613c496009876153b9565b81518110613c5957613c59615255565b0160200151613c6b919060f81c615c58565b613c73565b87515b90506001613c8c89613c86602087615c58565b846144cd565b965096505050505050613ca7565b5050600501613b59565b50505b9250929050565b60006001600160a01b03821661eeee14613d2f576040516370a0823160e01b81523060048201526001600160a01b038316906370a0823190602401602060405180830381865afa158015613d06573d6000803e3d6000fd5b505050506040513d601f19601f82011682018060405250810190613d2a919061523c565b6106e9565b4792915050565b6000613d43846019611ae6565b90508115613e435760008681526002602090815260408083206001600160a01b03808a168552908352928190208151606081018352888152938716928401929092529091908101613d976224ea00426153b9565b9052815460018082018455600093845260209384902083516003909302019182559282015192810180546001600160a01b0319166001600160a01b0394851617905560409091015160029091015584908616877fef9cd8fc3b61b64b44042ada0a8a3ede1649bc1b112673da228120f13bf1381e601987613e16612388565b604080519384526001600160a01b03928316602085015291169082015260600160405180910390a4610f19565b604051630862026560e41b8152600160048201526001600160a01b0386811660248301526000917f000000000000000000000000cd7112ae7c3b2505f0795c1ba965e5694c25d69690911690638620265090604401602060405180830381865afa158015613eb5573d6000803e3d6000fd5b505050506040513d601f19601f82011682018060405250810190613ed99190615118565b9050610f1787878487856000613894565b6000806040518061014001604052808a6001600160a01b031681526020018c8152602001876020015181526020018981526020018b81526020018b8152602001868152602001856001600160a01b03168152602001604051806020016040528060008152508152602001888152509050600083519050613f8d604051806060016040528060006001600160a01b0316815260200160008152602001606081525090565b60005b828110156141ee57858181518110613faa57613faa615255565b6020026020010151915060007f0000000000000000000000005f4b3b392930cb3d4bd836c7b3b1fa66d971b5786001600160a01b031663ae74a1b584600001516040518263ffffffff1660e01b815260040161401591906001600160a01b0391909116815260200190565b602060405180830381865afa158015614032573d6000803e3d6000fd5b505050506040513d601f19601f820116820180604052508101906140569190614eed565b61406e5761406983602001516019611ae6565b614071565b60005b905080156140a057602083015161408890876153b9565b9550808360200181815161409c9190614f20565b9052505b60405180608001604052808f600001516001600160a01b03168152602001846020015181526020018f6040015181526020018f606001518152508560a00181905250826040015185610100018190525061410783600001518f600001518560200151611b08565b8d516000906001600160a01b031661eeee1461412457600061412a565b83602001515b84516040516319bb132d60e21b81529192506001600160a01b0316906366ec4cb490839061415c908a90600401615cfe565b6000604051808303818588803b15801561417557600080fd5b505af1158015614189573d6000803e3d6000fd5b505050505083600001516001600160a01b03167f5d2ae7ac07b3a26000acaa692b550c84cbb87300557e0359791cfec9efe1615a878660200151856141cc612388565b6040516141dc9493929190615d11565b60405180910390a25050600101613f90565b505050509998505050505050505050565b6040516369e11cc560e01b815260048101859052602481018390526001600160a01b0384811660448301526000918291633b9aca009183917f000000000000000000000000d685a38ea59b8fca6dfed1af41924a9b327af93616906369e11cc590606401600060405180830381865afa158015614280573d6000803e3d6000fd5b505050506040513d6000823e601f3d908101601f191682016040526142a89190810190615d49565b80516040805160c081018252600080825260208201819052918101829052606081018290526080810182905260a08101919091529192509060005b828110156143ba578381815181106142fd576142fd615255565b602002602001015191506000614318898460200151886130f8565b90506000614328848e8e85614513565b905080158015906143395750818114155b1561434b5761434882896153b9565b97505b811561435757818a0399505b8360200151870396508b6001600160a01b03168b8e7f39305f11865947ab83bc6548c8c77e5890ed5bc4a6ea54e6fe7b22f4f406f4b8878686614398612388565b6040516143a89493929190615e3f565b60405180910390a450506001016142e3565b508695505050505094509492505050565b604080516001600160a01b038416602482015260448082018490528251808303909101815260649091019091526020810180516001600160e01b031663095ea7b360e01b17905261441c8482614699565b612146576040516001600160a01b0384811660248301526000604483015261445191869182169063095ea7b390606401613829565b612146848261446a565b600061171583836103e86130f8565b600061447f6001600160a01b0384168361473c565b905080516000141580156144a45750808060200190518101906144a29190614eed565b155b15611b3457604051635274afe760e01b81526001600160a01b038416600482015260240161099b565b60608282036040519150602081830101604052808252508260208501016020820160005b848110156145095782810151828201526020016144f1565b5050509392505050565b6000306343a89aaf86868686614527612388565b6040518663ffffffff1660e01b8152600401614547959493929190615e73565b6020604051808303816000875af1925050508015614582575060408051601f3d908101601f1916820190925261457f9181019061523c565b60015b61468e573d8080156145b0576040519150601f19603f3d011682016040523d82523d6000602084013e6145b5565b606091505b506040516351fc173560e01b8152600481018690526001600160a01b038581166024830152604482018590527f000000000000000000000000be1ffcea127bbd53c0c3d68615572c0cbaa8d92916906351fc173590606401600060405180830381600087803b15801561462757600080fd5b505af115801561463b573d6000803e3d6000fd5b50505050847f37b65da09d1a43465d8f823dcc858aa187792b35585b56afe707d57d7108d22887858461466c612388565b60405161467c9493929190615eb2565b60405180910390a26000915050614691565b90505b949350505050565b6000806000846001600160a01b0316846040516146b69190615ef4565b6000604051808303816000865af19150503d80600081146146f3576040519150601f19603f3d011682016040523d82523d6000602084013e6146f8565b606091505b50915091508180156147225750805115806147225750808060200190518101906147229190614eed565b8015610f195750505050506001600160a01b03163b151590565b60606117158383600084600080856001600160a01b031684866040516147629190615ef4565b60006040518083038185875af1925050503d806000811461479f576040519150601f19603f3d011682016040523d82523d6000602084013e6147a4565b606091505b50915091506147b48683836147be565b9695505050505050565b6060826147d3576147ce8261481a565b611715565b81511580156147ea57506001600160a01b0384163b155b1561481357604051639996b31560e01b81526001600160a01b038516600482015260240161099b565b5080611715565b80511561482a5780518082602001fd5b604051630a12f52160e11b815260040160405180910390fd5b50565b6040518061012001604052806000815260200160008152602001600081526020016000815260200160008152602001600081526020016000815260200160006001600160a01b03168152602001600081525090565b508054600082556003029060005260206000209081019061484391905b808211156148e45760008082556001820180546001600160a01b031916905560028201556003016148b8565b5090565b6000602082840312156148fa57600080fd5b81356001600160e01b03198116811461171557600080fd5b6001600160a01b038116811461484357600080fd5b6000806040838503121561493a57600080fd5b82359150602083013561494c81614912565b809150509250929050565b602080825282518282018190526000919060409081850190868401855b828110156149ac57815180518552868101516001600160a01b0316878601528501518585015260609093019290850190600101614974565b5091979650505050505050565b80516001600160a01b0316825260208082015160ff169083015260409081015163ffffffff16910152565b606081016106e982846149b9565b6000806000806000858703610140811215614a0c57600080fd5b60c0811215614a1a57600080fd5b5085945060c0860135935060e0860135614a3381614912565b92506101008601359150610120860135614a4c81614912565b809150509295509295909350565b600060208284031215614a6c57600080fd5b5035919050565b60008151808452602080850194506020840160005b83811015614aae57614a9b8783516149b9565b6060969096019590820190600101614a88565b509495945050505050565b6020815260006117156020830184614a73565b600060208284031215614ade57600080fd5b813561171581614912565b600080600080600060a08688031215614b0157600080fd5b853594506020860135614b1381614912565b9350604086013592506060860135614b2a81614912565b91506080860135614a4c81614912565b600080600060408486031215614b4f57600080fd5b8335925060208401356001600160401b0380821115614b6d57600080fd5b818601915086601f830112614b8157600080fd5b813581811115614b9057600080fd5b8760208260051b8501011115614ba557600080fd5b6020830194508093505050509250925092565b801515811461484357600080fd5b60008083601f840112614bd857600080fd5b5081356001600160401b03811115614bef57600080fd5b602083019150836020828501011115613ca757600080fd5b60008060008060008060008060c0898b031215614c2357600080fd5b883597506020890135614c3581614912565b9650604089013595506060890135614c4c81614bb8565b945060808901356001600160401b0380821115614c6857600080fd5b614c748c838d01614bc6565b909650945060a08b0135915080821115614c8d57600080fd5b50614c9a8b828c01614bc6565b999c989b5096995094979396929594505050565b60008060008060008060008060e0898b031215614cca57600080fd5b883597506020890135614cdc81614912565b965060408901359550606089013594506080890135935060a0890135614d0181614912565b925060c08901356001600160401b03811115614d1c57600080fd5b614c9a8b828c01614bc6565b60008060008060008060008060e0898b031215614d4457600080fd5b8835614d4f81614912565b9750602089013596506040890135614d6681614912565b9550606089013594506080890135935060a0890135614d0181614912565b600080600060608486031215614d9957600080fd5b505081359360208301359350604090920135919050565b600080600080600060a08688031215614dc857600080fd5b853594506020860135614dda81614912565b94979496505050506040830135926060810135926080909101359150565b600080600060608486031215614e0d57600080fd5b833592506020840135614e1f81614912565b91506040840135614e2f81614912565b809150509250925092565b600080600080600080600080600060e08a8c031215614e5857600080fd5b8935985060208a0135614e6a81614912565b975060408a0135965060608a0135614e8181614912565b955060808a0135945060a08a01356001600160401b0380821115614ea457600080fd5b614eb08d838e01614bc6565b909650945060c08c0135915080821115614ec957600080fd5b50614ed68c828d01614bc6565b915080935050809150509295985092959850929598565b600060208284031215614eff57600080fd5b815161171581614bb8565b634e487b7160e01b600052601160045260246000fd5b818103818111156106e9576106e9614f0a565b634e487b7160e01b600052604160045260246000fd5b60405160c081016001600160401b0381118282101715614f6b57614f6b614f33565b60405290565b604051606081016001600160401b0381118282101715614f6b57614f6b614f33565b60405161012081016001600160401b0381118282101715614f6b57614f6b614f33565b60405160a081016001600160401b0381118282101715614f6b57614f6b614f33565b604051601f8201601f191681016001600160401b038111828210171561500057615000614f33565b604052919050565b600060c0828403121561501a57600080fd5b615022614f49565b823561502d81614bb8565b808252506020830135602082015260408301356040820152606083013561505381614912565b60608201526080838101359082015260a083013561507081614912565b60a08201529392505050565b80511515825260208082015190830152604080820151908301526060808201516001600160a01b03908116918401919091526080808301519084015260a09182015116910152565b81516001600160a01b031681526020808301519082015260408083015190820152606080830151908201526080808301519082015260a0828101516101608301916151119084018261507c565b5092915050565b60006020828403121561512a57600080fd5b815161171581614912565b60006020828403121561514757600080fd5b813561171581614bb8565b60005b8381101561516d578181015183820152602001615155565b50506000910152565b6000815180845261518e816020860160208601615152565b601f01601f19169290920160200192915050565b85815260018060a01b0385166020820152836040820152821515606082015260c06080820152600060c082015260e060a082015260006151e560e0830184615176565b979650505050505050565b868152600060018060a01b03808816602084015286604084015280861660608401525083608083015260e060a0830152600060e08301526101008060c0840152611ad981840185615176565b60006020828403121561524e57600080fd5b5051919050565b634e487b7160e01b600052603260045260246000fd5b805160ff8116811461527c57600080fd5b919050565b60006020828403121561529357600080fd5b6117158261526b565b546001600160a01b038116825260a081901c60ff16602083015260a81c63ffffffff16604090910152565b608081016152d5828561529c565b6001600160a01b039290921660609190910152919050565b6001600160a01b0386168152602080820186905260a060408301819052855490830181905260008681529182209060c0840190835b8181101561534757615334838561529c565b6001938401936060939093019201615322565b505060608401959095525050608001529392505050565b60006060828403121561537057600080fd5b615378614f71565b825161538381614912565b81526153916020840161526b565b6020820152604083015163ffffffff811681146153ad57600080fd5b60408201529392505050565b808201808211156106e9576106e9614f0a565b85815284602082015260a0604082015260006153eb60a0830186615176565b82810360608401526153fd8186615176565b91505060018060a01b03831660808301529695505050505050565b80516001600160a01b031682526020808201519083015260408082015190830152606090810151910152565b6001600160a01b038681168252600090610100906154656020850189615418565b8660a085015280861660c0850152508060e08401526115ef81840185615176565b805161527c81614912565b600061012082840312156154a457600080fd5b6154ac614f93565b9050815181526020820151602082015260408201516040820152606082015160608201526080820151608082015260a082015160a082015260c082015160c08201526154fa60e08301615486565b60e082015261010080830151818301525092915050565b60006001600160401b0382111561552a5761552a614f33565b5060051b60200190565b600082601f83011261554557600080fd5b81516001600160401b0381111561555e5761555e614f33565b615571601f8201601f1916602001614fd8565b81815284602083860101111561558657600080fd5b614691826020830160208701615152565b600080600061016084860312156155ad57600080fd5b6155b78585615491565b925061012084015191506101408401516001600160401b03808211156155dc57600080fd5b818601915086601f8301126155f057600080fd5b8151602061560561560083615511565b614fd8565b82815260059290921b8401810191818101908a84111561562457600080fd5b8286015b848110156156aa5780518681111561563f57600080fd5b87016060818e03601f1901121561565557600080fd5b61565d614f71565b8582015161566a81614912565b81526040820151868201526060820151888111156156885760008081fd5b6156968f8883860101615534565b604083015250845250918301918301615628565b508096505050505050509250925092565b600060018060a01b03808a168352808916602084015287604084015286606084015260e060808401526156f160e0840187615176565b83810360a08501526157038187615176565b92505080841660c08401525098975050505050505050565b805165ffffffffffff8116811461527c57600080fd5b60006020828403121561574357600080fd5b81516001600160401b038082111561575a57600080fd5b9083019060a0828603121561576e57600080fd5b615776614fb6565b82518152602083015161578881614912565b60208201526157996040840161571b565b60408201526157aa6060840161571b565b60608201526080830151828111156157c157600080fd5b6157cd87828601615534565b60808301525095945050505050565b600061010060018060a01b0380871684528551818151166020860152816020820151166040860152604081015165ffffffffffff80821660608801528060608401511660808801525050508060208701511660a085015250604085015160c08401528060e08401526147b481840185615176565b84815260c08101615864602083018661529c565b608082019390935260a0015292915050565b600080610140838503121561588a57600080fd5b6158948484615491565b915061012083015190509250929050565b600060018060a01b03808916835287602084015286604084015285606084015260c060808401526158d960c0840186615176565b915080841660a084015250979650505050505050565b6001600160a01b03871681526020810186905260408101859052600061010061591b60608401876149b9565b8060c084015261592d81840186614a73565b905082810360e0840152611ad98185615176565b600080600080610180858703121561595857600080fd5b6159628686615491565b9350610120850151925061014085015191506101608501516001600160401b038082111561598f57600080fd5b818701915087601f8301126159a357600080fd5b81516159b161560082615511565b8082825260208201915060208360051b86010192508a8311156159d357600080fd5b602085015b83811015615a5d578051858111156159ef57600080fd5b86016060818e03601f19011215615a0557600080fd5b615a0d614f71565b6020820151615a1b81614912565b815260408201516020820152606082015187811115615a3957600080fd5b615a488f602083860101615534565b604083015250845250602092830192016159d8565b50979a9699509497505050505050565b600060018060a01b03808a168352808916602084015287604084015286606084015285608084015260e060a0840152615aa960e0840186615176565b915080841660c08401525098975050505050505050565b634e487b7160e01b600052601260045260246000fd5b80516001600160a01b03168252600061020060208301516020850152604083015160408501526060830151615b0e6060860182615418565b506080830151615b2160e0860182615418565b5060a083015161016085015260c083015161018085015260e08301516001600160a01b03166101a08501526101008301516101c08501829052615b6682860182615176565b9150506101208301518482036101e0860152610f198282615176565b6020815260006117156020830184615ad6565b606081526000615ba86060830186615ad6565b6020830194909452506001600160a01b0391909116604090910152919050565b838152606060208201526000615be16060830185615176565b905060018060a01b0383166040830152949350505050565b60008085851115615c0957600080fd5b83861115615c1657600080fd5b5050820193919092039150565b6bffffffffffffffffffffffff198135818116916014851015615c505780818660140360031b1b83161692505b505092915050565b80820281158282048414176106e9576106e9614f0a565b80516001600160a01b0316825260006102006020830151602085015260408301516040850152606083015160608501526080830151615cb16080860182615418565b5060a0830151610100615cc681870183615418565b60c085015161018087015260e08501516001600160a01b03166101a08701528401516101c086018390529050615b6682860182615176565b6020815260006117156020830184615c6f565b608081526000615d246080830187615c6f565b60208301959095525060408101929092526001600160a01b0316606090910152919050565b60006020808385031215615d5c57600080fd5b82516001600160401b03811115615d7257600080fd5b8301601f81018513615d8357600080fd5b8051615d9161560082615511565b81815260c09182028301840191848201919088841115615db057600080fd5b938501935b83851015615e335780858a031215615dcd5760008081fd5b615dd5614f49565b8551615de081614bb8565b8152858701518782015260408087015190820152606080870151615e0381614912565b908201526080868101519082015260a080870151615e2081614912565b9082015283529384019391850191615db5565b50979650505050505050565b6101208101615e4e828761507c565b60c082019490945260e08101929092526001600160a01b031661010090910152919050565b6101408101615e82828861507c565b60c08201959095526001600160a01b0393841660e082015261010081019290925290911661012090910152919050565b6000610120615ec1838861507c565b8560c08401528060e0840152615ed981840186615176565b91505060018060a01b03831661010083015295945050505050565b60008251615f06818460208701615152565b919091019291505056fea264697066735822122007900eb815a96465fceb92cf01f0631000e05751ba1cf3a6aa5d7d423ca8124e64736f6c63430008170033",
			"devdoc": {
				"kind": "dev",
				"methods": {
					"accountingContextForTokenOf(uint256,address)": {
						"details": "See the `JBAccountingContext` struct for more information.",
						"params": {
							"projectId": "The ID of the project to get token accounting context of.",
							"token": "The token to check the accounting context of."
						},
						"returns": {
							"_0": "The token's accounting context for the token."
						}
					},
					"accountingContextsOf(uint256)": {
						"params": {
							"projectId": "The ID of the project to get the accepted tokens of."
						},
						"returns": {
							"_0": "tokenContexts The accounting contexts of the accepted tokens."
						}
					},
					"addAccountingContextsFor(uint256,address[])": {
						"details": "Only a project's owner, an operator with the `ADD_ACCOUNTING_CONTEXTS` permission from that owner, or a project's controller can add accounting contexts for the project.",
						"params": {
							"projectId": "The ID of the project having to add accounting contexts for.",
							"tokens": "The tokens to add accounting contexts for."
						}
					},
					"addToBalanceOf(uint256,address,uint256,bool,string,bytes)": {
						"details": "Adding to balance can unlock held fees if `shouldUnlockHeldFees` is true.",
						"params": {
							"amount": "The amount of tokens to add to the balance, as a fixed point number with the same number of decimals as this terminal. If this is a native token terminal, this is ignored and `msg.value` is used instead.",
							"memo": "A memo to pass along to the emitted event.",
							"metadata": "Extra data to pass along to the emitted event.",
							"projectId": "The ID of the project to add funds to the balance of.",
							"shouldReturnHeldFees": "A flag indicating if held fees should be returned based on the amount being added.",
							"token": "The token being added to the balance."
						}
					},
					"constructor": {
						"params": {
							"directory": "A contract storing directories of terminals and controllers for each project.",
							"feelessAddresses": "A contract that stores addresses that shouldn't incur fees when being paid towards or from.",
							"permissions": "A contract storing permissions.",
							"permit2": "A permit2 utility.",
							"projects": "A contract which mints ERC-721s that represent project ownership and transfers.",
							"splits": "A contract that stores splits for each project.",
							"store": "A contract that stores the terminal's data.",
							"trustedForwarder": "A trusted forwarder of transactions to this contract."
						}
					},
					"currentSurplusOf(uint256,uint256,uint256)": {
						"details": "This total surplus only includes tokens that the project accepts (as returned by `accountingContextsOf(...)`).",
						"params": {
							"currency": "The currency to express the returned value in terms of.",
							"decimals": "The number of decimals to include in the fixed point returned value.",
							"projectId": "The ID of the project to get the current total surplus of."
						},
						"returns": {
							"_0": "The current surplus amount the project has in this terminal, in terms of `currency` and with the specified number of decimals."
						}
					},
					"executePayout((bool,uint256,uint256,address,uint256,address),uint256,address,uint256,address)": {
						"details": "Only accepts calls from this terminal itself.",
						"params": {
							"amount": "The total amount being paid to the split, as a fixed point number with the same number of decimals as this terminal.",
							"projectId": "The ID of the project the split belongs to.",
							"split": "The split to pay.",
							"token": "The address of the token being paid to the split."
						},
						"returns": {
							"netPayoutAmount": "The amount sent to the split after subtracting fees."
						}
					},
					"executeProcessFee(uint256,address,uint256,address,address)": {
						"details": "Only accepts calls from this terminal itself.",
						"params": {
							"amount": "The fee amount, as a fixed point number with 18 decimals.",
							"beneficiary": "The address to mint tokens to (from the project which receives fees), and pass along to the ruleset's data hook and pay hook if applicable.",
							"feeTerminal": "The terminal that'll receive the fees.",
							"projectId": "The ID of the project paying the fee.",
							"token": "The token the fee is being paid in."
						}
					},
					"heldFeesOf(uint256,address)": {
						"details": "Projects can temporarily hold fees and unlock them later by adding funds to the project's balance.Held fees can be processed at any time by this terminal's owner.",
						"params": {
							"projectId": "The ID of the project that is holding fees.",
							"token": "The token that the fees are held in."
						}
					},
					"isTrustedForwarder(address)": {
						"details": "Indicates whether any particular address is the trusted forwarder."
					},
					"migrateBalanceOf(uint256,address,address)": {
						"details": "Only a project's owner or an operator with the `MIGRATE_TERMINAL` permission from that owner can migrate the project's terminal.",
						"params": {
							"projectId": "The ID of the project being migrated.",
							"to": "The terminal contract being migrated to, which will receive the project's funds and operations.",
							"token": "The address of the token being migrated."
						},
						"returns": {
							"balance": "The amount of funds that were migrated, as a fixed point number with the same amount of decimals as this terminal."
						}
					},
					"pay(uint256,address,uint256,address,uint256,string,bytes)": {
						"params": {
							"amount": "The amount of terminal tokens being received, as a fixed point number with the same number of decimals as this terminal. If this terminal's token is native, this is ignored and `msg.value` is used in its place.",
							"beneficiary": "The address to mint tokens to, and pass along to the ruleset's data hook and pay hook if applicable.",
							"memo": "A memo to pass along to the emitted event.",
							"metadata": "Bytes to pass along to the emitted event, as well as the data hook and pay hook if applicable.",
							"minReturnedTokens": "The minimum number of project tokens expected in return for this payment, as a fixed point number with the same number of decimals as this terminal. If the amount of tokens minted for the beneficiary would be less than this amount, the payment is reverted.",
							"projectId": "The ID of the project being paid.",
							"token": "The token being paid."
						},
						"returns": {
							"beneficiaryTokenCount": "The number of tokens minted to the beneficiary, as a fixed point number with 18 decimals."
						}
					},
					"processHeldFeesOf(uint256,address)": {
						"params": {
							"projectId": "The ID of the project to process held fees for.",
							"token": "The token to process held fees for."
						}
					},
					"redeemTokensOf(address,uint256,address,uint256,uint256,address,bytes)": {
						"details": "Only a token's holder or an operator with the `REDEEM_TOKENS` permission from that holder can redeem those tokens.",
						"params": {
							"beneficiary": "The address to send the reclaimed terminal tokens to, and to pass along to the ruleset's data hook and redeem hook if applicable.",
							"holder": "The account whose tokens are being redeemed.",
							"metadata": "Bytes to send along to the emitted event, as well as the data hook and redeem hook if applicable.",
							"minTokensReclaimed": "The minimum number of terminal tokens expected in return, as a fixed point number with the same number of decimals as this terminal. If the amount of tokens minted for the beneficiary would be less than this amount, the redemption is reverted.",
							"projectId": "The ID of the project the project tokens belong to.",
							"redeemCount": "The number of project tokens to redeem, as a fixed point number with 18 decimals.",
							"tokenToReclaim": "The token being reclaimed."
						},
						"returns": {
							"reclaimAmount": "The amount of terminal tokens that the project tokens were redeemed for, as a fixed point number with 18 decimals."
						}
					},
					"sendPayoutsOf(uint256,address,uint256,uint256,uint256)": {
						"details": "If the percentages of the splits in the project's payout split group do not add up to 100%, the remainder is sent to the project's owner.Anyone can send payouts on a project's behalf. Projects can include a wildcard split (a split with no `hook`, `projectId`, or `beneficiary`) to send funds to the `_msgSender()` which calls this function. This can be used to incentivize calling this function.payouts sent to addresses which aren't feeless incur the protocol fee.Payouts a projects don't incur fees if its terminal is feeless.",
						"params": {
							"amount": "The total number of terminal tokens to send, as a fixed point number with same number of decimals as this terminal.",
							"currency": "The expected currency of the payouts being sent. Must match the currency of one of the project's current ruleset's payout limits.",
							"minTokensPaidOut": "The minimum number of terminal tokens that the `amount` should be worth (if expressed in terms of this terminal's currency), as a fixed point number with the same number of decimals as this terminal. If the amount of tokens paid out would be less than this amount, the send is reverted.",
							"projectId": "The ID of the project having its payouts sent.",
							"token": "The token being sent."
						},
						"returns": {
							"amountPaidOut": "The total amount paid out."
						}
					},
					"supportsInterface(bytes4)": {
						"details": "See {IERC165-supportsInterface}.",
						"params": {
							"interfaceId": "The ID of the interface to check for adherence to."
						},
						"returns": {
							"_0": "A flag indicating if the provided interface ID is supported."
						}
					},
					"trustedForwarder()": {
						"details": "Returns the address of the trusted forwarder."
					},
					"useAllowanceOf(uint256,address,uint256,uint256,uint256,address,string)": {
						"details": "Only a project's owner or an operator with the `USE_ALLOWANCE` permission from that owner can use the surplus allowance.Incurs the protocol fee unless the caller is a feeless address.",
						"params": {
							"amount": "The amount of terminal tokens to use from the project's current surplus allowance, as a fixed point number with the same amount of decimals as this terminal.",
							"beneficiary": "The address to send the surplus funds to.",
							"currency": "The expected currency of the amount being paid out. Must match the currency of one of the project's current ruleset's surplus allowances.",
							"memo": "A memo to pass along to the emitted event.",
							"minTokensPaidOut": "The minimum number of terminal tokens that should be used from the surplus allowance (including fees), as a fixed point number with 18 decimals. If the amount of surplus used would be less than this amount, the transaction is reverted.",
							"projectId": "The ID of the project to use the surplus allowance of.",
							"token": "The token being paid out from the surplus."
						},
						"returns": {
							"amountPaidOut": "The number of tokens that were sent to the beneficiary, as a fixed point number with the same amount of decimals as the terminal."
						}
					}
				},
				"version": 1
			},
			"userdoc": {
				"kind": "user",
				"methods": {
					"DIRECTORY()": {
						"notice": "The directory of terminals and controllers for PROJECTS."
					},
					"FEE()": {
						"notice": "This terminal's fee (as a fraction out of `JBConstants.MAX_FEE`)."
					},
					"FEELESS_ADDRESSES()": {
						"notice": "The contract that stores addresses that shouldn't incur fees when being paid towards or from."
					},
					"PERMISSIONS()": {
						"notice": "A contract storing permissions."
					},
					"PERMIT2()": {
						"notice": "The permit2 utility."
					},
					"PROJECTS()": {
						"notice": "Mints ERC-721s that represent project ownership and transfers."
					},
					"SPLITS()": {
						"notice": "The contract that stores splits for each project."
					},
					"STORE()": {
						"notice": "The contract that stores and manages the terminal's data."
					},
					"accountingContextForTokenOf(uint256,address)": {
						"notice": "A project's accounting context for a token."
					},
					"accountingContextsOf(uint256)": {
						"notice": "The tokens accepted by a project."
					},
					"addAccountingContextsFor(uint256,address[])": {
						"notice": "Adds accounting contexts for a project to this terminal so the project can begin accepting the tokens in those contexts."
					},
					"addToBalanceOf(uint256,address,uint256,bool,string,bytes)": {
						"notice": "Adds funds to a project's balance without minting tokens."
					},
					"currentSurplusOf(uint256,uint256,uint256)": {
						"notice": "Gets the total current surplus amount in this terminal for a project, in terms of a given currency."
					},
					"executePayout((bool,uint256,uint256,address,uint256,address),uint256,address,uint256,address)": {
						"notice": "Executes a payout to a split."
					},
					"executeProcessFee(uint256,address,uint256,address,address)": {
						"notice": "Process a specified amount of fees for a project."
					},
					"heldFeesOf(uint256,address)": {
						"notice": "Fees that are being held for a project."
					},
					"migrateBalanceOf(uint256,address,address)": {
						"notice": "Migrate a project's funds and operations to a new terminal that accepts the same token type."
					},
					"pay(uint256,address,uint256,address,uint256,string,bytes)": {
						"notice": "Pay a project with tokens."
					},
					"processHeldFeesOf(uint256,address)": {
						"notice": "Process any fees that are being held for the project."
					},
					"redeemTokensOf(address,uint256,address,uint256,uint256,address,bytes)": {
						"notice": "Holders can redeem a project's tokens to reclaim some of that project's surplus tokens, or to trigger rules determined by the current ruleset's data hook and redeem hook."
					},
					"sendPayoutsOf(uint256,address,uint256,uint256,uint256)": {
						"notice": "Sends payouts to a project's current payout split group, according to its ruleset, up to its current payout limit."
					},
					"supportsInterface(bytes4)": {
						"notice": "Indicates whether this contract adheres to the specified interface."
					},
					"useAllowanceOf(uint256,address,uint256,uint256,uint256,address,string)": {
						"notice": "Allows a project to pay out funds from its surplus up to the current surplus allowance."
					}
				},
				"version": 1
			},
			"gitCommit": "cfb1d4cd4e79bed840a9c8fcd17a0f397da3e3bf",
			"sourceName": "src/JBMultiTerminal.sol",
			"chainId": "84532",
			"linkReferences": {},
			"deployedLinkReferences": {}
		}
	]
}