{
	"_format": "sphinx-sol-ct-artifact-1",
	"merkleRoot": "0xeb76efeb8f97c5cb80ab72b380ea5b356ede5f4abbf2a0c560104f8a80b45857",
	"contractName": "JBPermissions",
	"address": "0x1e2E8562b635fe19978640C784e47865A83d6605",
	"abi": [
		{
			"type": "function",
			"name": "hasPermission",
			"inputs": [
				{
					"name": "operator",
					"type": "address",
					"internalType": "address"
				},
				{
					"name": "account",
					"type": "address",
					"internalType": "address"
				},
				{
					"name": "projectId",
					"type": "uint256",
					"internalType": "uint256"
				},
				{
					"name": "permissionId",
					"type": "uint256",
					"internalType": "uint256"
				}
			],
			"outputs": [
				{
					"name": "",
					"type": "bool",
					"internalType": "bool"
				}
			],
			"stateMutability": "view"
		},
		{
			"type": "function",
			"name": "hasPermissions",
			"inputs": [
				{
					"name": "operator",
					"type": "address",
					"internalType": "address"
				},
				{
					"name": "account",
					"type": "address",
					"internalType": "address"
				},
				{
					"name": "projectId",
					"type": "uint256",
					"internalType": "uint256"
				},
				{
					"name": "permissionIds",
					"type": "uint256[]",
					"internalType": "uint256[]"
				}
			],
			"outputs": [
				{
					"name": "",
					"type": "bool",
					"internalType": "bool"
				}
			],
			"stateMutability": "view"
		},
		{
			"type": "function",
			"name": "permissionsOf",
			"inputs": [
				{
					"name": "operator",
					"type": "address",
					"internalType": "address"
				},
				{
					"name": "account",
					"type": "address",
					"internalType": "address"
				},
				{
					"name": "projectId",
					"type": "uint256",
					"internalType": "uint256"
				}
			],
			"outputs": [
				{
					"name": "",
					"type": "uint256",
					"internalType": "uint256"
				}
			],
			"stateMutability": "view"
		},
		{
			"type": "function",
			"name": "setPermissionsFor",
			"inputs": [
				{
					"name": "account",
					"type": "address",
					"internalType": "address"
				},
				{
					"name": "permissionsData",
					"type": "tuple",
					"internalType": "struct JBPermissionsData",
					"components": [
						{
							"name": "operator",
							"type": "address",
							"internalType": "address"
						},
						{
							"name": "projectId",
							"type": "uint256",
							"internalType": "uint256"
						},
						{
							"name": "permissionIds",
							"type": "uint256[]",
							"internalType": "uint256[]"
						}
					]
				}
			],
			"outputs": [],
			"stateMutability": "nonpayable"
		},
		{
			"type": "event",
			"name": "OperatorPermissionsSet",
			"inputs": [
				{
					"name": "operator",
					"type": "address",
					"indexed": true,
					"internalType": "address"
				},
				{
					"name": "account",
					"type": "address",
					"indexed": true,
					"internalType": "address"
				},
				{
					"name": "projectId",
					"type": "uint256",
					"indexed": true,
					"internalType": "uint256"
				},
				{
					"name": "permissionIds",
					"type": "uint256[]",
					"indexed": false,
					"internalType": "uint256[]"
				},
				{
					"name": "packed",
					"type": "uint256",
					"indexed": false,
					"internalType": "uint256"
				},
				{
					"name": "caller",
					"type": "address",
					"indexed": false,
					"internalType": "address"
				}
			],
			"anonymous": false
		},
		{
			"type": "error",
			"name": "PERMISSION_ID_OUT_OF_BOUNDS",
			"inputs": []
		},
		{
			"type": "error",
			"name": "UNAUTHORIZED",
			"inputs": []
		}
	],
	"solcInputHash": "5d4c706d93c97620ff427d8d75b46099",
	"args": [],
	"bytecode": "0x608060405234801561001057600080fd5b5061060e806100206000396000f3fe608060405234801561001057600080fd5b506004361061004c5760003560e01c806305d2912e146100515780630f5932f01461006657806380deb2301461008e578063c161c93f146100cc575b600080fd5b61006461005f36600461038f565b6100df565b005b6100796100743660046103e4565b610206565b60405190151581526020015b60405180910390f35b6100be61009c366004610482565b6000602081815293815260408082208552928152828120909352825290205481565b604051908152602001610085565b6100796100da3660046104be565b6102af565b336001600160a01b0383161480159061010657506101043383836020013560016102af565b155b801561011d575061011b3383600060016102af565b155b1561013b5760405163075fd2b160e01b815260040160405180910390fd5b600061015261014d6040840184610500565b610310565b9050806000806101656020860186610551565b6001600160a01b039081168252602080830193909352604091820160009081209188168082529184528281208785018035808452919095529290209390935591906101b09085610551565b6001600160a01b03167ff8cdf10a0ce6189c6d069e97320ef146e2bcbd32d6c0b86dcbfbf3bd8578fa706101e76040870187610500565b86336040516101f99493929190610573565b60405180910390a4505050565b6001600160a01b0380861660009081526020818152604080832093881683529281528282208683529052908120548190815b8481101561029e57858582818110610252576102526105c2565b90506020020135925060ff83111561027d576040516334f9a01d60e21b815260040160405180910390fd5b600182841c1660000361029657600093505050506102a6565b600101610238565b506001925050505b95945050505050565b600060ff8211156102d3576040516334f9a01d60e21b815260040160405180910390fd5b506001600160a01b03808516600090815260208181526040808320938716835292815282822085835290522054600190821c811614949350505050565b60008060005b8381101561036b57848482818110610330576103306105c2565b90506020020135915060ff82111561035b576040516334f9a01d60e21b815260040160405180910390fd5b600180831b939093179201610316565b505092915050565b80356001600160a01b038116811461038a57600080fd5b919050565b600080604083850312156103a257600080fd5b6103ab83610373565b9150602083013567ffffffffffffffff8111156103c757600080fd5b8301606081860312156103d957600080fd5b809150509250929050565b6000806000806000608086880312156103fc57600080fd5b61040586610373565b945061041360208701610373565b935060408601359250606086013567ffffffffffffffff8082111561043757600080fd5b818801915088601f83011261044b57600080fd5b81358181111561045a57600080fd5b8960208260051b850101111561046f57600080fd5b9699959850939650602001949392505050565b60008060006060848603121561049757600080fd5b6104a084610373565b92506104ae60208501610373565b9150604084013590509250925092565b600080600080608085870312156104d457600080fd5b6104dd85610373565b93506104eb60208601610373565b93969395505050506040820135916060013590565b6000808335601e1984360301811261051757600080fd5b83018035915067ffffffffffffffff82111561053257600080fd5b6020019150600581901b360382131561054a57600080fd5b9250929050565b60006020828403121561056357600080fd5b61056c82610373565b9392505050565b6060808252810184905260006001600160fb1b0385111561059357600080fd5b8460051b808760808501376020830194909452506001600160a01b039190911660408201520160800192915050565b634e487b7160e01b600052603260045260246000fdfea2646970667358221220af2a43546322ac5181258b7151c830c3d5604e3c70bfff4c9d0d6c6757eae96064736f6c63430008170033",
	"devdoc": {
		"kind": "dev",
		"methods": {
			"hasPermission(address,address,uint256,uint256)": {
				"params": {
					"account": "The account being operated on behalf of.",
					"operator": "The operator to check.",
					"permissionId": "The permission ID to check for.",
					"projectId": "The project ID that the operator has permission to operate under. 0 represents all projects."
				},
				"returns": {
					"_0": "A flag indicating whether the operator has the specified permission."
				}
			},
			"hasPermissions(address,address,uint256,uint256[])": {
				"params": {
					"account": "The account being operated on behalf of.",
					"operator": "The operator to check.",
					"permissionIds": "An array of permission IDs to check for.",
					"projectId": "The project ID that the operator has permission to operate under. 0 represents all projects."
				},
				"returns": {
					"_0": "A flag indicating whether the operator has all specified permissions."
				}
			},
			"setPermissionsFor(address,(address,uint256,uint256[]))": {
				"details": "Only an address can give permissions to or revoke permissions from its operators.",
				"params": {
					"account": "The account setting its operators' permissions.",
					"permissionsData": "The data which specifies the permissions the operator is being given."
				}
			}
		},
		"version": 1
	},
	"userdoc": {
		"kind": "user",
		"methods": {
			"hasPermission(address,address,uint256,uint256)": {
				"notice": "Check if an operator has a specific permission for a specific address and project ID."
			},
			"hasPermissions(address,address,uint256,uint256[])": {
				"notice": "Check if an operator has all of the specified permissions for a specific address and project ID."
			},
			"permissionsOf(address,address,uint256)": {
				"notice": "The permissions that an operator has been given by an account for a specific project."
			},
			"setPermissionsFor(address,(address,uint256,uint256[]))": {
				"notice": "Sets permissions for an operator."
			}
		},
		"version": 1
	},
	"gitCommit": "8e6924651d1e8038d6c2982d6d0c09a070b141a7",
	"sourceName": "src/JBPermissions.sol",
	"chainId": "84532",
	"linkReferences": {},
	"deployedLinkReferences": {},
	"history": []
}