{
	"_format": "sphinx-sol-ct-artifact-1",
	"merkleRoot": "0xf2f568380a2bcc4e7f89e08ff84563991af602cb04fda6b9476ae81ed75161f7",
	"contractName": "JBController",
	"address": "0x1e4c8DFfE8D72aeB63e8dDbE9eF89bc368cbbE99",
	"abi": [
		{
			"type": "constructor",
			"inputs": [
				{
					"name": "permissions",
					"type": "address",
					"internalType": "contract IJBPermissions"
				},
				{
					"name": "projects",
					"type": "address",
					"internalType": "contract IJBProjects"
				},
				{
					"name": "directory",
					"type": "address",
					"internalType": "contract IJBDirectory"
				},
				{
					"name": "rulesets",
					"type": "address",
					"internalType": "contract IJBRulesets"
				},
				{
					"name": "tokens",
					"type": "address",
					"internalType": "contract IJBTokens"
				},
				{
					"name": "splits",
					"type": "address",
					"internalType": "contract IJBSplits"
				},
				{
					"name": "fundAccessLimits",
					"type": "address",
					"internalType": "contract IJBFundAccessLimits"
				},
				{
					"name": "prices",
					"type": "address",
					"internalType": "contract IJBPrices"
				},
				{
					"name": "trustedForwarder",
					"type": "address",
					"internalType": "address"
				}
			],
			"stateMutability": "nonpayable"
		},
		{
			"type": "function",
			"name": "DIRECTORY",
			"inputs": [],
			"outputs": [
				{
					"name": "",
					"type": "address",
					"internalType": "contract IJBDirectory"
				}
			],
			"stateMutability": "view"
		},
		{
			"type": "function",
			"name": "FUND_ACCESS_LIMITS",
			"inputs": [],
			"outputs": [
				{
					"name": "",
					"type": "address",
					"internalType": "contract IJBFundAccessLimits"
				}
			],
			"stateMutability": "view"
		},
		{
			"type": "function",
			"name": "PERMISSIONS",
			"inputs": [],
			"outputs": [
				{
					"name": "",
					"type": "address",
					"internalType": "contract IJBPermissions"
				}
			],
			"stateMutability": "view"
		},
		{
			"type": "function",
			"name": "PRICES",
			"inputs": [],
			"outputs": [
				{
					"name": "",
					"type": "address",
					"internalType": "contract IJBPrices"
				}
			],
			"stateMutability": "view"
		},
		{
			"type": "function",
			"name": "PROJECTS",
			"inputs": [],
			"outputs": [
				{
					"name": "",
					"type": "address",
					"internalType": "contract IJBProjects"
				}
			],
			"stateMutability": "view"
		},
		{
			"type": "function",
			"name": "RULESETS",
			"inputs": [],
			"outputs": [
				{
					"name": "",
					"type": "address",
					"internalType": "contract IJBRulesets"
				}
			],
			"stateMutability": "view"
		},
		{
			"type": "function",
			"name": "SPLITS",
			"inputs": [],
			"outputs": [
				{
					"name": "",
					"type": "address",
					"internalType": "contract IJBSplits"
				}
			],
			"stateMutability": "view"
		},
		{
			"type": "function",
			"name": "TOKENS",
			"inputs": [],
			"outputs": [
				{
					"name": "",
					"type": "address",
					"internalType": "contract IJBTokens"
				}
			],
			"stateMutability": "view"
		},
		{
			"type": "function",
			"name": "addPriceFeed",
			"inputs": [
				{
					"name": "projectId",
					"type": "uint256",
					"internalType": "uint256"
				},
				{
					"name": "pricingCurrency",
					"type": "uint256",
					"internalType": "uint256"
				},
				{
					"name": "unitCurrency",
					"type": "uint256",
					"internalType": "uint256"
				},
				{
					"name": "feed",
					"type": "address",
					"internalType": "contract IJBPriceFeed"
				}
			],
			"outputs": [],
			"stateMutability": "nonpayable"
		},
		{
			"type": "function",
			"name": "burnTokensOf",
			"inputs": [
				{
					"name": "holder",
					"type": "address",
					"internalType": "address"
				},
				{
					"name": "projectId",
					"type": "uint256",
					"internalType": "uint256"
				},
				{
					"name": "tokenCount",
					"type": "uint256",
					"internalType": "uint256"
				},
				{
					"name": "memo",
					"type": "string",
					"internalType": "string"
				}
			],
			"outputs": [],
			"stateMutability": "nonpayable"
		},
		{
			"type": "function",
			"name": "claimTokensFor",
			"inputs": [
				{
					"name": "holder",
					"type": "address",
					"internalType": "address"
				},
				{
					"name": "projectId",
					"type": "uint256",
					"internalType": "uint256"
				},
				{
					"name": "amount",
					"type": "uint256",
					"internalType": "uint256"
				},
				{
					"name": "beneficiary",
					"type": "address",
					"internalType": "address"
				}
			],
			"outputs": [],
			"stateMutability": "nonpayable"
		},
		{
			"type": "function",
			"name": "currentRulesetOf",
			"inputs": [
				{
					"name": "projectId",
					"type": "uint256",
					"internalType": "uint256"
				}
			],
			"outputs": [
				{
					"name": "ruleset",
					"type": "tuple",
					"internalType": "struct JBRuleset",
					"components": [
						{
							"name": "cycleNumber",
							"type": "uint48",
							"internalType": "uint48"
						},
						{
							"name": "id",
							"type": "uint48",
							"internalType": "uint48"
						},
						{
							"name": "basedOnId",
							"type": "uint48",
							"internalType": "uint48"
						},
						{
							"name": "start",
							"type": "uint48",
							"internalType": "uint48"
						},
						{
							"name": "duration",
							"type": "uint32",
							"internalType": "uint32"
						},
						{
							"name": "weight",
							"type": "uint112",
							"internalType": "uint112"
						},
						{
							"name": "decayPercent",
							"type": "uint32",
							"internalType": "uint32"
						},
						{
							"name": "approvalHook",
							"type": "address",
							"internalType": "contract IJBRulesetApprovalHook"
						},
						{
							"name": "metadata",
							"type": "uint256",
							"internalType": "uint256"
						}
					]
				},
				{
					"name": "metadata",
					"type": "tuple",
					"internalType": "struct JBRulesetMetadata",
					"components": [
						{
							"name": "reservedPercent",
							"type": "uint16",
							"internalType": "uint16"
						},
						{
							"name": "redemptionRate",
							"type": "uint16",
							"internalType": "uint16"
						},
						{
							"name": "baseCurrency",
							"type": "uint32",
							"internalType": "uint32"
						},
						{
							"name": "pausePay",
							"type": "bool",
							"internalType": "bool"
						},
						{
							"name": "pauseCreditTransfers",
							"type": "bool",
							"internalType": "bool"
						},
						{
							"name": "allowOwnerMinting",
							"type": "bool",
							"internalType": "bool"
						},
						{
							"name": "allowSetCustomToken",
							"type": "bool",
							"internalType": "bool"
						},
						{
							"name": "allowTerminalMigration",
							"type": "bool",
							"internalType": "bool"
						},
						{
							"name": "allowSetTerminals",
							"type": "bool",
							"internalType": "bool"
						},
						{
							"name": "allowSetController",
							"type": "bool",
							"internalType": "bool"
						},
						{
							"name": "allowAddAccountingContext",
							"type": "bool",
							"internalType": "bool"
						},
						{
							"name": "allowAddPriceFeed",
							"type": "bool",
							"internalType": "bool"
						},
						{
							"name": "ownerMustSendPayouts",
							"type": "bool",
							"internalType": "bool"
						},
						{
							"name": "holdFees",
							"type": "bool",
							"internalType": "bool"
						},
						{
							"name": "useTotalSurplusForRedemptions",
							"type": "bool",
							"internalType": "bool"
						},
						{
							"name": "useDataHookForPay",
							"type": "bool",
							"internalType": "bool"
						},
						{
							"name": "useDataHookForRedeem",
							"type": "bool",
							"internalType": "bool"
						},
						{
							"name": "dataHook",
							"type": "address",
							"internalType": "address"
						},
						{
							"name": "metadata",
							"type": "uint16",
							"internalType": "uint16"
						}
					]
				}
			],
			"stateMutability": "view"
		},
		{
			"type": "function",
			"name": "deployERC20For",
			"inputs": [
				{
					"name": "projectId",
					"type": "uint256",
					"internalType": "uint256"
				},
				{
					"name": "name",
					"type": "string",
					"internalType": "string"
				},
				{
					"name": "symbol",
					"type": "string",
					"internalType": "string"
				},
				{
					"name": "salt",
					"type": "bytes32",
					"internalType": "bytes32"
				}
			],
			"outputs": [
				{
					"name": "token",
					"type": "address",
					"internalType": "contract IJBToken"
				}
			],
			"stateMutability": "nonpayable"
		},
		{
			"type": "function",
			"name": "executePayReservedTokenToTerminal",
			"inputs": [
				{
					"name": "terminal",
					"type": "address",
					"internalType": "contract IJBTerminal"
				},
				{
					"name": "projectId",
					"type": "uint256",
					"internalType": "uint256"
				},
				{
					"name": "token",
					"type": "address",
					"internalType": "contract IJBToken"
				},
				{
					"name": "splitAmount",
					"type": "uint256",
					"internalType": "uint256"
				},
				{
					"name": "beneficiary",
					"type": "address",
					"internalType": "address"
				},
				{
					"name": "metadata",
					"type": "bytes",
					"internalType": "bytes"
				}
			],
			"outputs": [],
			"stateMutability": "nonpayable"
		},
		{
			"type": "function",
			"name": "getRulesetOf",
			"inputs": [
				{
					"name": "projectId",
					"type": "uint256",
					"internalType": "uint256"
				},
				{
					"name": "rulesetId",
					"type": "uint256",
					"internalType": "uint256"
				}
			],
			"outputs": [
				{
					"name": "ruleset",
					"type": "tuple",
					"internalType": "struct JBRuleset",
					"components": [
						{
							"name": "cycleNumber",
							"type": "uint48",
							"internalType": "uint48"
						},
						{
							"name": "id",
							"type": "uint48",
							"internalType": "uint48"
						},
						{
							"name": "basedOnId",
							"type": "uint48",
							"internalType": "uint48"
						},
						{
							"name": "start",
							"type": "uint48",
							"internalType": "uint48"
						},
						{
							"name": "duration",
							"type": "uint32",
							"internalType": "uint32"
						},
						{
							"name": "weight",
							"type": "uint112",
							"internalType": "uint112"
						},
						{
							"name": "decayPercent",
							"type": "uint32",
							"internalType": "uint32"
						},
						{
							"name": "approvalHook",
							"type": "address",
							"internalType": "contract IJBRulesetApprovalHook"
						},
						{
							"name": "metadata",
							"type": "uint256",
							"internalType": "uint256"
						}
					]
				},
				{
					"name": "metadata",
					"type": "tuple",
					"internalType": "struct JBRulesetMetadata",
					"components": [
						{
							"name": "reservedPercent",
							"type": "uint16",
							"internalType": "uint16"
						},
						{
							"name": "redemptionRate",
							"type": "uint16",
							"internalType": "uint16"
						},
						{
							"name": "baseCurrency",
							"type": "uint32",
							"internalType": "uint32"
						},
						{
							"name": "pausePay",
							"type": "bool",
							"internalType": "bool"
						},
						{
							"name": "pauseCreditTransfers",
							"type": "bool",
							"internalType": "bool"
						},
						{
							"name": "allowOwnerMinting",
							"type": "bool",
							"internalType": "bool"
						},
						{
							"name": "allowSetCustomToken",
							"type": "bool",
							"internalType": "bool"
						},
						{
							"name": "allowTerminalMigration",
							"type": "bool",
							"internalType": "bool"
						},
						{
							"name": "allowSetTerminals",
							"type": "bool",
							"internalType": "bool"
						},
						{
							"name": "allowSetController",
							"type": "bool",
							"internalType": "bool"
						},
						{
							"name": "allowAddAccountingContext",
							"type": "bool",
							"internalType": "bool"
						},
						{
							"name": "allowAddPriceFeed",
							"type": "bool",
							"internalType": "bool"
						},
						{
							"name": "ownerMustSendPayouts",
							"type": "bool",
							"internalType": "bool"
						},
						{
							"name": "holdFees",
							"type": "bool",
							"internalType": "bool"
						},
						{
							"name": "useTotalSurplusForRedemptions",
							"type": "bool",
							"internalType": "bool"
						},
						{
							"name": "useDataHookForPay",
							"type": "bool",
							"internalType": "bool"
						},
						{
							"name": "useDataHookForRedeem",
							"type": "bool",
							"internalType": "bool"
						},
						{
							"name": "dataHook",
							"type": "address",
							"internalType": "address"
						},
						{
							"name": "metadata",
							"type": "uint16",
							"internalType": "uint16"
						}
					]
				}
			],
			"stateMutability": "view"
		},
		{
			"type": "function",
			"name": "isTrustedForwarder",
			"inputs": [
				{
					"name": "forwarder",
					"type": "address",
					"internalType": "address"
				}
			],
			"outputs": [
				{
					"name": "",
					"type": "bool",
					"internalType": "bool"
				}
			],
			"stateMutability": "view"
		},
		{
			"type": "function",
			"name": "latestQueuedRulesetOf",
			"inputs": [
				{
					"name": "projectId",
					"type": "uint256",
					"internalType": "uint256"
				}
			],
			"outputs": [
				{
					"name": "ruleset",
					"type": "tuple",
					"internalType": "struct JBRuleset",
					"components": [
						{
							"name": "cycleNumber",
							"type": "uint48",
							"internalType": "uint48"
						},
						{
							"name": "id",
							"type": "uint48",
							"internalType": "uint48"
						},
						{
							"name": "basedOnId",
							"type": "uint48",
							"internalType": "uint48"
						},
						{
							"name": "start",
							"type": "uint48",
							"internalType": "uint48"
						},
						{
							"name": "duration",
							"type": "uint32",
							"internalType": "uint32"
						},
						{
							"name": "weight",
							"type": "uint112",
							"internalType": "uint112"
						},
						{
							"name": "decayPercent",
							"type": "uint32",
							"internalType": "uint32"
						},
						{
							"name": "approvalHook",
							"type": "address",
							"internalType": "contract IJBRulesetApprovalHook"
						},
						{
							"name": "metadata",
							"type": "uint256",
							"internalType": "uint256"
						}
					]
				},
				{
					"name": "metadata",
					"type": "tuple",
					"internalType": "struct JBRulesetMetadata",
					"components": [
						{
							"name": "reservedPercent",
							"type": "uint16",
							"internalType": "uint16"
						},
						{
							"name": "redemptionRate",
							"type": "uint16",
							"internalType": "uint16"
						},
						{
							"name": "baseCurrency",
							"type": "uint32",
							"internalType": "uint32"
						},
						{
							"name": "pausePay",
							"type": "bool",
							"internalType": "bool"
						},
						{
							"name": "pauseCreditTransfers",
							"type": "bool",
							"internalType": "bool"
						},
						{
							"name": "allowOwnerMinting",
							"type": "bool",
							"internalType": "bool"
						},
						{
							"name": "allowSetCustomToken",
							"type": "bool",
							"internalType": "bool"
						},
						{
							"name": "allowTerminalMigration",
							"type": "bool",
							"internalType": "bool"
						},
						{
							"name": "allowSetTerminals",
							"type": "bool",
							"internalType": "bool"
						},
						{
							"name": "allowSetController",
							"type": "bool",
							"internalType": "bool"
						},
						{
							"name": "allowAddAccountingContext",
							"type": "bool",
							"internalType": "bool"
						},
						{
							"name": "allowAddPriceFeed",
							"type": "bool",
							"internalType": "bool"
						},
						{
							"name": "ownerMustSendPayouts",
							"type": "bool",
							"internalType": "bool"
						},
						{
							"name": "holdFees",
							"type": "bool",
							"internalType": "bool"
						},
						{
							"name": "useTotalSurplusForRedemptions",
							"type": "bool",
							"internalType": "bool"
						},
						{
							"name": "useDataHookForPay",
							"type": "bool",
							"internalType": "bool"
						},
						{
							"name": "useDataHookForRedeem",
							"type": "bool",
							"internalType": "bool"
						},
						{
							"name": "dataHook",
							"type": "address",
							"internalType": "address"
						},
						{
							"name": "metadata",
							"type": "uint16",
							"internalType": "uint16"
						}
					]
				},
				{
					"name": "approvalStatus",
					"type": "uint8",
					"internalType": "enum JBApprovalStatus"
				}
			],
			"stateMutability": "view"
		},
		{
			"type": "function",
			"name": "launchProjectFor",
			"inputs": [
				{
					"name": "owner",
					"type": "address",
					"internalType": "address"
				},
				{
					"name": "projectUri",
					"type": "string",
					"internalType": "string"
				},
				{
					"name": "rulesetConfigurations",
					"type": "tuple[]",
					"internalType": "struct JBRulesetConfig[]",
					"components": [
						{
							"name": "mustStartAtOrAfter",
							"type": "uint48",
							"internalType": "uint48"
						},
						{
							"name": "duration",
							"type": "uint32",
							"internalType": "uint32"
						},
						{
							"name": "weight",
							"type": "uint112",
							"internalType": "uint112"
						},
						{
							"name": "decayPercent",
							"type": "uint32",
							"internalType": "uint32"
						},
						{
							"name": "approvalHook",
							"type": "address",
							"internalType": "contract IJBRulesetApprovalHook"
						},
						{
							"name": "metadata",
							"type": "tuple",
							"internalType": "struct JBRulesetMetadata",
							"components": [
								{
									"name": "reservedPercent",
									"type": "uint16",
									"internalType": "uint16"
								},
								{
									"name": "redemptionRate",
									"type": "uint16",
									"internalType": "uint16"
								},
								{
									"name": "baseCurrency",
									"type": "uint32",
									"internalType": "uint32"
								},
								{
									"name": "pausePay",
									"type": "bool",
									"internalType": "bool"
								},
								{
									"name": "pauseCreditTransfers",
									"type": "bool",
									"internalType": "bool"
								},
								{
									"name": "allowOwnerMinting",
									"type": "bool",
									"internalType": "bool"
								},
								{
									"name": "allowSetCustomToken",
									"type": "bool",
									"internalType": "bool"
								},
								{
									"name": "allowTerminalMigration",
									"type": "bool",
									"internalType": "bool"
								},
								{
									"name": "allowSetTerminals",
									"type": "bool",
									"internalType": "bool"
								},
								{
									"name": "allowSetController",
									"type": "bool",
									"internalType": "bool"
								},
								{
									"name": "allowAddAccountingContext",
									"type": "bool",
									"internalType": "bool"
								},
								{
									"name": "allowAddPriceFeed",
									"type": "bool",
									"internalType": "bool"
								},
								{
									"name": "ownerMustSendPayouts",
									"type": "bool",
									"internalType": "bool"
								},
								{
									"name": "holdFees",
									"type": "bool",
									"internalType": "bool"
								},
								{
									"name": "useTotalSurplusForRedemptions",
									"type": "bool",
									"internalType": "bool"
								},
								{
									"name": "useDataHookForPay",
									"type": "bool",
									"internalType": "bool"
								},
								{
									"name": "useDataHookForRedeem",
									"type": "bool",
									"internalType": "bool"
								},
								{
									"name": "dataHook",
									"type": "address",
									"internalType": "address"
								},
								{
									"name": "metadata",
									"type": "uint16",
									"internalType": "uint16"
								}
							]
						},
						{
							"name": "splitGroups",
							"type": "tuple[]",
							"internalType": "struct JBSplitGroup[]",
							"components": [
								{
									"name": "groupId",
									"type": "uint256",
									"internalType": "uint256"
								},
								{
									"name": "splits",
									"type": "tuple[]",
									"internalType": "struct JBSplit[]",
									"components": [
										{
											"name": "preferAddToBalance",
											"type": "bool",
											"internalType": "bool"
										},
										{
											"name": "percent",
											"type": "uint32",
											"internalType": "uint32"
										},
										{
											"name": "projectId",
											"type": "uint56",
											"internalType": "uint56"
										},
										{
											"name": "beneficiary",
											"type": "address",
											"internalType": "address payable"
										},
										{
											"name": "lockedUntil",
											"type": "uint48",
											"internalType": "uint48"
										},
										{
											"name": "hook",
											"type": "address",
											"internalType": "contract IJBSplitHook"
										}
									]
								}
							]
						},
						{
							"name": "fundAccessLimitGroups",
							"type": "tuple[]",
							"internalType": "struct JBFundAccessLimitGroup[]",
							"components": [
								{
									"name": "terminal",
									"type": "address",
									"internalType": "address"
								},
								{
									"name": "token",
									"type": "address",
									"internalType": "address"
								},
								{
									"name": "payoutLimits",
									"type": "tuple[]",
									"internalType": "struct JBCurrencyAmount[]",
									"components": [
										{
											"name": "amount",
											"type": "uint224",
											"internalType": "uint224"
										},
										{
											"name": "currency",
											"type": "uint32",
											"internalType": "uint32"
										}
									]
								},
								{
									"name": "surplusAllowances",
									"type": "tuple[]",
									"internalType": "struct JBCurrencyAmount[]",
									"components": [
										{
											"name": "amount",
											"type": "uint224",
											"internalType": "uint224"
										},
										{
											"name": "currency",
											"type": "uint32",
											"internalType": "uint32"
										}
									]
								}
							]
						}
					]
				},
				{
					"name": "terminalConfigurations",
					"type": "tuple[]",
					"internalType": "struct JBTerminalConfig[]",
					"components": [
						{
							"name": "terminal",
							"type": "address",
							"internalType": "contract IJBTerminal"
						},
						{
							"name": "accountingContextsToAccept",
							"type": "tuple[]",
							"internalType": "struct JBAccountingContext[]",
							"components": [
								{
									"name": "token",
									"type": "address",
									"internalType": "address"
								},
								{
									"name": "decimals",
									"type": "uint8",
									"internalType": "uint8"
								},
								{
									"name": "currency",
									"type": "uint32",
									"internalType": "uint32"
								}
							]
						}
					]
				},
				{
					"name": "memo",
					"type": "string",
					"internalType": "string"
				}
			],
			"outputs": [
				{
					"name": "projectId",
					"type": "uint256",
					"internalType": "uint256"
				}
			],
			"stateMutability": "nonpayable"
		},
		{
			"type": "function",
			"name": "launchRulesetsFor",
			"inputs": [
				{
					"name": "projectId",
					"type": "uint256",
					"internalType": "uint256"
				},
				{
					"name": "rulesetConfigurations",
					"type": "tuple[]",
					"internalType": "struct JBRulesetConfig[]",
					"components": [
						{
							"name": "mustStartAtOrAfter",
							"type": "uint48",
							"internalType": "uint48"
						},
						{
							"name": "duration",
							"type": "uint32",
							"internalType": "uint32"
						},
						{
							"name": "weight",
							"type": "uint112",
							"internalType": "uint112"
						},
						{
							"name": "decayPercent",
							"type": "uint32",
							"internalType": "uint32"
						},
						{
							"name": "approvalHook",
							"type": "address",
							"internalType": "contract IJBRulesetApprovalHook"
						},
						{
							"name": "metadata",
							"type": "tuple",
							"internalType": "struct JBRulesetMetadata",
							"components": [
								{
									"name": "reservedPercent",
									"type": "uint16",
									"internalType": "uint16"
								},
								{
									"name": "redemptionRate",
									"type": "uint16",
									"internalType": "uint16"
								},
								{
									"name": "baseCurrency",
									"type": "uint32",
									"internalType": "uint32"
								},
								{
									"name": "pausePay",
									"type": "bool",
									"internalType": "bool"
								},
								{
									"name": "pauseCreditTransfers",
									"type": "bool",
									"internalType": "bool"
								},
								{
									"name": "allowOwnerMinting",
									"type": "bool",
									"internalType": "bool"
								},
								{
									"name": "allowSetCustomToken",
									"type": "bool",
									"internalType": "bool"
								},
								{
									"name": "allowTerminalMigration",
									"type": "bool",
									"internalType": "bool"
								},
								{
									"name": "allowSetTerminals",
									"type": "bool",
									"internalType": "bool"
								},
								{
									"name": "allowSetController",
									"type": "bool",
									"internalType": "bool"
								},
								{
									"name": "allowAddAccountingContext",
									"type": "bool",
									"internalType": "bool"
								},
								{
									"name": "allowAddPriceFeed",
									"type": "bool",
									"internalType": "bool"
								},
								{
									"name": "ownerMustSendPayouts",
									"type": "bool",
									"internalType": "bool"
								},
								{
									"name": "holdFees",
									"type": "bool",
									"internalType": "bool"
								},
								{
									"name": "useTotalSurplusForRedemptions",
									"type": "bool",
									"internalType": "bool"
								},
								{
									"name": "useDataHookForPay",
									"type": "bool",
									"internalType": "bool"
								},
								{
									"name": "useDataHookForRedeem",
									"type": "bool",
									"internalType": "bool"
								},
								{
									"name": "dataHook",
									"type": "address",
									"internalType": "address"
								},
								{
									"name": "metadata",
									"type": "uint16",
									"internalType": "uint16"
								}
							]
						},
						{
							"name": "splitGroups",
							"type": "tuple[]",
							"internalType": "struct JBSplitGroup[]",
							"components": [
								{
									"name": "groupId",
									"type": "uint256",
									"internalType": "uint256"
								},
								{
									"name": "splits",
									"type": "tuple[]",
									"internalType": "struct JBSplit[]",
									"components": [
										{
											"name": "preferAddToBalance",
											"type": "bool",
											"internalType": "bool"
										},
										{
											"name": "percent",
											"type": "uint32",
											"internalType": "uint32"
										},
										{
											"name": "projectId",
											"type": "uint56",
											"internalType": "uint56"
										},
										{
											"name": "beneficiary",
											"type": "address",
											"internalType": "address payable"
										},
										{
											"name": "lockedUntil",
											"type": "uint48",
											"internalType": "uint48"
										},
										{
											"name": "hook",
											"type": "address",
											"internalType": "contract IJBSplitHook"
										}
									]
								}
							]
						},
						{
							"name": "fundAccessLimitGroups",
							"type": "tuple[]",
							"internalType": "struct JBFundAccessLimitGroup[]",
							"components": [
								{
									"name": "terminal",
									"type": "address",
									"internalType": "address"
								},
								{
									"name": "token",
									"type": "address",
									"internalType": "address"
								},
								{
									"name": "payoutLimits",
									"type": "tuple[]",
									"internalType": "struct JBCurrencyAmount[]",
									"components": [
										{
											"name": "amount",
											"type": "uint224",
											"internalType": "uint224"
										},
										{
											"name": "currency",
											"type": "uint32",
											"internalType": "uint32"
										}
									]
								},
								{
									"name": "surplusAllowances",
									"type": "tuple[]",
									"internalType": "struct JBCurrencyAmount[]",
									"components": [
										{
											"name": "amount",
											"type": "uint224",
											"internalType": "uint224"
										},
										{
											"name": "currency",
											"type": "uint32",
											"internalType": "uint32"
										}
									]
								}
							]
						}
					]
				},
				{
					"name": "terminalConfigurations",
					"type": "tuple[]",
					"internalType": "struct JBTerminalConfig[]",
					"components": [
						{
							"name": "terminal",
							"type": "address",
							"internalType": "contract IJBTerminal"
						},
						{
							"name": "accountingContextsToAccept",
							"type": "tuple[]",
							"internalType": "struct JBAccountingContext[]",
							"components": [
								{
									"name": "token",
									"type": "address",
									"internalType": "address"
								},
								{
									"name": "decimals",
									"type": "uint8",
									"internalType": "uint8"
								},
								{
									"name": "currency",
									"type": "uint32",
									"internalType": "uint32"
								}
							]
						}
					]
				},
				{
					"name": "memo",
					"type": "string",
					"internalType": "string"
				}
			],
			"outputs": [
				{
					"name": "rulesetId",
					"type": "uint256",
					"internalType": "uint256"
				}
			],
			"stateMutability": "nonpayable"
		},
		{
			"type": "function",
			"name": "migrate",
			"inputs": [
				{
					"name": "projectId",
					"type": "uint256",
					"internalType": "uint256"
				},
				{
					"name": "to",
					"type": "address",
					"internalType": "contract IERC165"
				}
			],
			"outputs": [],
			"stateMutability": "nonpayable"
		},
		{
			"type": "function",
			"name": "mintTokensOf",
			"inputs": [
				{
					"name": "projectId",
					"type": "uint256",
					"internalType": "uint256"
				},
				{
					"name": "tokenCount",
					"type": "uint256",
					"internalType": "uint256"
				},
				{
					"name": "beneficiary",
					"type": "address",
					"internalType": "address"
				},
				{
					"name": "memo",
					"type": "string",
					"internalType": "string"
				},
				{
					"name": "useReservedPercent",
					"type": "bool",
					"internalType": "bool"
				}
			],
			"outputs": [
				{
					"name": "beneficiaryTokenCount",
					"type": "uint256",
					"internalType": "uint256"
				}
			],
			"stateMutability": "nonpayable"
		},
		{
			"type": "function",
			"name": "pendingReservedTokenBalanceOf",
			"inputs": [
				{
					"name": "projectId",
					"type": "uint256",
					"internalType": "uint256"
				}
			],
			"outputs": [
				{
					"name": "",
					"type": "uint256",
					"internalType": "uint256"
				}
			],
			"stateMutability": "view"
		},
		{
			"type": "function",
			"name": "queueRulesetsOf",
			"inputs": [
				{
					"name": "projectId",
					"type": "uint256",
					"internalType": "uint256"
				},
				{
					"name": "rulesetConfigurations",
					"type": "tuple[]",
					"internalType": "struct JBRulesetConfig[]",
					"components": [
						{
							"name": "mustStartAtOrAfter",
							"type": "uint48",
							"internalType": "uint48"
						},
						{
							"name": "duration",
							"type": "uint32",
							"internalType": "uint32"
						},
						{
							"name": "weight",
							"type": "uint112",
							"internalType": "uint112"
						},
						{
							"name": "decayPercent",
							"type": "uint32",
							"internalType": "uint32"
						},
						{
							"name": "approvalHook",
							"type": "address",
							"internalType": "contract IJBRulesetApprovalHook"
						},
						{
							"name": "metadata",
							"type": "tuple",
							"internalType": "struct JBRulesetMetadata",
							"components": [
								{
									"name": "reservedPercent",
									"type": "uint16",
									"internalType": "uint16"
								},
								{
									"name": "redemptionRate",
									"type": "uint16",
									"internalType": "uint16"
								},
								{
									"name": "baseCurrency",
									"type": "uint32",
									"internalType": "uint32"
								},
								{
									"name": "pausePay",
									"type": "bool",
									"internalType": "bool"
								},
								{
									"name": "pauseCreditTransfers",
									"type": "bool",
									"internalType": "bool"
								},
								{
									"name": "allowOwnerMinting",
									"type": "bool",
									"internalType": "bool"
								},
								{
									"name": "allowSetCustomToken",
									"type": "bool",
									"internalType": "bool"
								},
								{
									"name": "allowTerminalMigration",
									"type": "bool",
									"internalType": "bool"
								},
								{
									"name": "allowSetTerminals",
									"type": "bool",
									"internalType": "bool"
								},
								{
									"name": "allowSetController",
									"type": "bool",
									"internalType": "bool"
								},
								{
									"name": "allowAddAccountingContext",
									"type": "bool",
									"internalType": "bool"
								},
								{
									"name": "allowAddPriceFeed",
									"type": "bool",
									"internalType": "bool"
								},
								{
									"name": "ownerMustSendPayouts",
									"type": "bool",
									"internalType": "bool"
								},
								{
									"name": "holdFees",
									"type": "bool",
									"internalType": "bool"
								},
								{
									"name": "useTotalSurplusForRedemptions",
									"type": "bool",
									"internalType": "bool"
								},
								{
									"name": "useDataHookForPay",
									"type": "bool",
									"internalType": "bool"
								},
								{
									"name": "useDataHookForRedeem",
									"type": "bool",
									"internalType": "bool"
								},
								{
									"name": "dataHook",
									"type": "address",
									"internalType": "address"
								},
								{
									"name": "metadata",
									"type": "uint16",
									"internalType": "uint16"
								}
							]
						},
						{
							"name": "splitGroups",
							"type": "tuple[]",
							"internalType": "struct JBSplitGroup[]",
							"components": [
								{
									"name": "groupId",
									"type": "uint256",
									"internalType": "uint256"
								},
								{
									"name": "splits",
									"type": "tuple[]",
									"internalType": "struct JBSplit[]",
									"components": [
										{
											"name": "preferAddToBalance",
											"type": "bool",
											"internalType": "bool"
										},
										{
											"name": "percent",
											"type": "uint32",
											"internalType": "uint32"
										},
										{
											"name": "projectId",
											"type": "uint56",
											"internalType": "uint56"
										},
										{
											"name": "beneficiary",
											"type": "address",
											"internalType": "address payable"
										},
										{
											"name": "lockedUntil",
											"type": "uint48",
											"internalType": "uint48"
										},
										{
											"name": "hook",
											"type": "address",
											"internalType": "contract IJBSplitHook"
										}
									]
								}
							]
						},
						{
							"name": "fundAccessLimitGroups",
							"type": "tuple[]",
							"internalType": "struct JBFundAccessLimitGroup[]",
							"components": [
								{
									"name": "terminal",
									"type": "address",
									"internalType": "address"
								},
								{
									"name": "token",
									"type": "address",
									"internalType": "address"
								},
								{
									"name": "payoutLimits",
									"type": "tuple[]",
									"internalType": "struct JBCurrencyAmount[]",
									"components": [
										{
											"name": "amount",
											"type": "uint224",
											"internalType": "uint224"
										},
										{
											"name": "currency",
											"type": "uint32",
											"internalType": "uint32"
										}
									]
								},
								{
									"name": "surplusAllowances",
									"type": "tuple[]",
									"internalType": "struct JBCurrencyAmount[]",
									"components": [
										{
											"name": "amount",
											"type": "uint224",
											"internalType": "uint224"
										},
										{
											"name": "currency",
											"type": "uint32",
											"internalType": "uint32"
										}
									]
								}
							]
						}
					]
				},
				{
					"name": "memo",
					"type": "string",
					"internalType": "string"
				}
			],
			"outputs": [
				{
					"name": "rulesetId",
					"type": "uint256",
					"internalType": "uint256"
				}
			],
			"stateMutability": "nonpayable"
		},
		{
			"type": "function",
			"name": "receiveMigrationFrom",
			"inputs": [
				{
					"name": "from",
					"type": "address",
					"internalType": "contract IERC165"
				},
				{
					"name": "projectId",
					"type": "uint256",
					"internalType": "uint256"
				}
			],
			"outputs": [],
			"stateMutability": "nonpayable"
		},
		{
			"type": "function",
			"name": "rulesetsOf",
			"inputs": [
				{
					"name": "projectId",
					"type": "uint256",
					"internalType": "uint256"
				},
				{
					"name": "startingId",
					"type": "uint256",
					"internalType": "uint256"
				},
				{
					"name": "size",
					"type": "uint256",
					"internalType": "uint256"
				}
			],
			"outputs": [
				{
					"name": "rulesets",
					"type": "tuple[]",
					"internalType": "struct JBRulesetWithMetadata[]",
					"components": [
						{
							"name": "ruleset",
							"type": "tuple",
							"internalType": "struct JBRuleset",
							"components": [
								{
									"name": "cycleNumber",
									"type": "uint48",
									"internalType": "uint48"
								},
								{
									"name": "id",
									"type": "uint48",
									"internalType": "uint48"
								},
								{
									"name": "basedOnId",
									"type": "uint48",
									"internalType": "uint48"
								},
								{
									"name": "start",
									"type": "uint48",
									"internalType": "uint48"
								},
								{
									"name": "duration",
									"type": "uint32",
									"internalType": "uint32"
								},
								{
									"name": "weight",
									"type": "uint112",
									"internalType": "uint112"
								},
								{
									"name": "decayPercent",
									"type": "uint32",
									"internalType": "uint32"
								},
								{
									"name": "approvalHook",
									"type": "address",
									"internalType": "contract IJBRulesetApprovalHook"
								},
								{
									"name": "metadata",
									"type": "uint256",
									"internalType": "uint256"
								}
							]
						},
						{
							"name": "metadata",
							"type": "tuple",
							"internalType": "struct JBRulesetMetadata",
							"components": [
								{
									"name": "reservedPercent",
									"type": "uint16",
									"internalType": "uint16"
								},
								{
									"name": "redemptionRate",
									"type": "uint16",
									"internalType": "uint16"
								},
								{
									"name": "baseCurrency",
									"type": "uint32",
									"internalType": "uint32"
								},
								{
									"name": "pausePay",
									"type": "bool",
									"internalType": "bool"
								},
								{
									"name": "pauseCreditTransfers",
									"type": "bool",
									"internalType": "bool"
								},
								{
									"name": "allowOwnerMinting",
									"type": "bool",
									"internalType": "bool"
								},
								{
									"name": "allowSetCustomToken",
									"type": "bool",
									"internalType": "bool"
								},
								{
									"name": "allowTerminalMigration",
									"type": "bool",
									"internalType": "bool"
								},
								{
									"name": "allowSetTerminals",
									"type": "bool",
									"internalType": "bool"
								},
								{
									"name": "allowSetController",
									"type": "bool",
									"internalType": "bool"
								},
								{
									"name": "allowAddAccountingContext",
									"type": "bool",
									"internalType": "bool"
								},
								{
									"name": "allowAddPriceFeed",
									"type": "bool",
									"internalType": "bool"
								},
								{
									"name": "ownerMustSendPayouts",
									"type": "bool",
									"internalType": "bool"
								},
								{
									"name": "holdFees",
									"type": "bool",
									"internalType": "bool"
								},
								{
									"name": "useTotalSurplusForRedemptions",
									"type": "bool",
									"internalType": "bool"
								},
								{
									"name": "useDataHookForPay",
									"type": "bool",
									"internalType": "bool"
								},
								{
									"name": "useDataHookForRedeem",
									"type": "bool",
									"internalType": "bool"
								},
								{
									"name": "dataHook",
									"type": "address",
									"internalType": "address"
								},
								{
									"name": "metadata",
									"type": "uint16",
									"internalType": "uint16"
								}
							]
						}
					]
				}
			],
			"stateMutability": "view"
		},
		{
			"type": "function",
			"name": "sendReservedTokensToSplitsOf",
			"inputs": [
				{
					"name": "projectId",
					"type": "uint256",
					"internalType": "uint256"
				}
			],
			"outputs": [
				{
					"name": "",
					"type": "uint256",
					"internalType": "uint256"
				}
			],
			"stateMutability": "nonpayable"
		},
		{
			"type": "function",
			"name": "setControllerAllowed",
			"inputs": [
				{
					"name": "projectId",
					"type": "uint256",
					"internalType": "uint256"
				}
			],
			"outputs": [
				{
					"name": "",
					"type": "bool",
					"internalType": "bool"
				}
			],
			"stateMutability": "view"
		},
		{
			"type": "function",
			"name": "setSplitGroupsOf",
			"inputs": [
				{
					"name": "projectId",
					"type": "uint256",
					"internalType": "uint256"
				},
				{
					"name": "rulesetId",
					"type": "uint256",
					"internalType": "uint256"
				},
				{
					"name": "splitGroups",
					"type": "tuple[]",
					"internalType": "struct JBSplitGroup[]",
					"components": [
						{
							"name": "groupId",
							"type": "uint256",
							"internalType": "uint256"
						},
						{
							"name": "splits",
							"type": "tuple[]",
							"internalType": "struct JBSplit[]",
							"components": [
								{
									"name": "preferAddToBalance",
									"type": "bool",
									"internalType": "bool"
								},
								{
									"name": "percent",
									"type": "uint32",
									"internalType": "uint32"
								},
								{
									"name": "projectId",
									"type": "uint56",
									"internalType": "uint56"
								},
								{
									"name": "beneficiary",
									"type": "address",
									"internalType": "address payable"
								},
								{
									"name": "lockedUntil",
									"type": "uint48",
									"internalType": "uint48"
								},
								{
									"name": "hook",
									"type": "address",
									"internalType": "contract IJBSplitHook"
								}
							]
						}
					]
				}
			],
			"outputs": [],
			"stateMutability": "nonpayable"
		},
		{
			"type": "function",
			"name": "setTerminalsAllowed",
			"inputs": [
				{
					"name": "projectId",
					"type": "uint256",
					"internalType": "uint256"
				}
			],
			"outputs": [
				{
					"name": "",
					"type": "bool",
					"internalType": "bool"
				}
			],
			"stateMutability": "view"
		},
		{
			"type": "function",
			"name": "setTokenFor",
			"inputs": [
				{
					"name": "projectId",
					"type": "uint256",
					"internalType": "uint256"
				},
				{
					"name": "token",
					"type": "address",
					"internalType": "contract IJBToken"
				}
			],
			"outputs": [],
			"stateMutability": "nonpayable"
		},
		{
			"type": "function",
			"name": "setUriOf",
			"inputs": [
				{
					"name": "projectId",
					"type": "uint256",
					"internalType": "uint256"
				},
				{
					"name": "metadata",
					"type": "string",
					"internalType": "string"
				}
			],
			"outputs": [],
			"stateMutability": "nonpayable"
		},
		{
			"type": "function",
			"name": "supportsInterface",
			"inputs": [
				{
					"name": "interfaceId",
					"type": "bytes4",
					"internalType": "bytes4"
				}
			],
			"outputs": [
				{
					"name": "",
					"type": "bool",
					"internalType": "bool"
				}
			],
			"stateMutability": "pure"
		},
		{
			"type": "function",
			"name": "totalTokenSupplyWithReservedTokensOf",
			"inputs": [
				{
					"name": "projectId",
					"type": "uint256",
					"internalType": "uint256"
				}
			],
			"outputs": [
				{
					"name": "",
					"type": "uint256",
					"internalType": "uint256"
				}
			],
			"stateMutability": "view"
		},
		{
			"type": "function",
			"name": "transferCreditsFrom",
			"inputs": [
				{
					"name": "holder",
					"type": "address",
					"internalType": "address"
				},
				{
					"name": "projectId",
					"type": "uint256",
					"internalType": "uint256"
				},
				{
					"name": "recipient",
					"type": "address",
					"internalType": "address"
				},
				{
					"name": "amount",
					"type": "uint256",
					"internalType": "uint256"
				}
			],
			"outputs": [],
			"stateMutability": "nonpayable"
		},
		{
			"type": "function",
			"name": "trustedForwarder",
			"inputs": [],
			"outputs": [
				{
					"name": "",
					"type": "address",
					"internalType": "address"
				}
			],
			"stateMutability": "view"
		},
		{
			"type": "function",
			"name": "upcomingRulesetOf",
			"inputs": [
				{
					"name": "projectId",
					"type": "uint256",
					"internalType": "uint256"
				}
			],
			"outputs": [
				{
					"name": "ruleset",
					"type": "tuple",
					"internalType": "struct JBRuleset",
					"components": [
						{
							"name": "cycleNumber",
							"type": "uint48",
							"internalType": "uint48"
						},
						{
							"name": "id",
							"type": "uint48",
							"internalType": "uint48"
						},
						{
							"name": "basedOnId",
							"type": "uint48",
							"internalType": "uint48"
						},
						{
							"name": "start",
							"type": "uint48",
							"internalType": "uint48"
						},
						{
							"name": "duration",
							"type": "uint32",
							"internalType": "uint32"
						},
						{
							"name": "weight",
							"type": "uint112",
							"internalType": "uint112"
						},
						{
							"name": "decayPercent",
							"type": "uint32",
							"internalType": "uint32"
						},
						{
							"name": "approvalHook",
							"type": "address",
							"internalType": "contract IJBRulesetApprovalHook"
						},
						{
							"name": "metadata",
							"type": "uint256",
							"internalType": "uint256"
						}
					]
				},
				{
					"name": "metadata",
					"type": "tuple",
					"internalType": "struct JBRulesetMetadata",
					"components": [
						{
							"name": "reservedPercent",
							"type": "uint16",
							"internalType": "uint16"
						},
						{
							"name": "redemptionRate",
							"type": "uint16",
							"internalType": "uint16"
						},
						{
							"name": "baseCurrency",
							"type": "uint32",
							"internalType": "uint32"
						},
						{
							"name": "pausePay",
							"type": "bool",
							"internalType": "bool"
						},
						{
							"name": "pauseCreditTransfers",
							"type": "bool",
							"internalType": "bool"
						},
						{
							"name": "allowOwnerMinting",
							"type": "bool",
							"internalType": "bool"
						},
						{
							"name": "allowSetCustomToken",
							"type": "bool",
							"internalType": "bool"
						},
						{
							"name": "allowTerminalMigration",
							"type": "bool",
							"internalType": "bool"
						},
						{
							"name": "allowSetTerminals",
							"type": "bool",
							"internalType": "bool"
						},
						{
							"name": "allowSetController",
							"type": "bool",
							"internalType": "bool"
						},
						{
							"name": "allowAddAccountingContext",
							"type": "bool",
							"internalType": "bool"
						},
						{
							"name": "allowAddPriceFeed",
							"type": "bool",
							"internalType": "bool"
						},
						{
							"name": "ownerMustSendPayouts",
							"type": "bool",
							"internalType": "bool"
						},
						{
							"name": "holdFees",
							"type": "bool",
							"internalType": "bool"
						},
						{
							"name": "useTotalSurplusForRedemptions",
							"type": "bool",
							"internalType": "bool"
						},
						{
							"name": "useDataHookForPay",
							"type": "bool",
							"internalType": "bool"
						},
						{
							"name": "useDataHookForRedeem",
							"type": "bool",
							"internalType": "bool"
						},
						{
							"name": "dataHook",
							"type": "address",
							"internalType": "address"
						},
						{
							"name": "metadata",
							"type": "uint16",
							"internalType": "uint16"
						}
					]
				}
			],
			"stateMutability": "view"
		},
		{
			"type": "function",
			"name": "uriOf",
			"inputs": [
				{
					"name": "projectId",
					"type": "uint256",
					"internalType": "uint256"
				}
			],
			"outputs": [
				{
					"name": "",
					"type": "string",
					"internalType": "string"
				}
			],
			"stateMutability": "view"
		},
		{
			"type": "event",
			"name": "BurnTokens",
			"inputs": [
				{
					"name": "holder",
					"type": "address",
					"indexed": true,
					"internalType": "address"
				},
				{
					"name": "projectId",
					"type": "uint256",
					"indexed": true,
					"internalType": "uint256"
				},
				{
					"name": "tokenCount",
					"type": "uint256",
					"indexed": false,
					"internalType": "uint256"
				},
				{
					"name": "memo",
					"type": "string",
					"indexed": false,
					"internalType": "string"
				},
				{
					"name": "caller",
					"type": "address",
					"indexed": false,
					"internalType": "address"
				}
			],
			"anonymous": false
		},
		{
			"type": "event",
			"name": "LaunchProject",
			"inputs": [
				{
					"name": "rulesetId",
					"type": "uint256",
					"indexed": false,
					"internalType": "uint256"
				},
				{
					"name": "projectId",
					"type": "uint256",
					"indexed": false,
					"internalType": "uint256"
				},
				{
					"name": "metadata",
					"type": "string",
					"indexed": false,
					"internalType": "string"
				},
				{
					"name": "memo",
					"type": "string",
					"indexed": false,
					"internalType": "string"
				},
				{
					"name": "caller",
					"type": "address",
					"indexed": false,
					"internalType": "address"
				}
			],
			"anonymous": false
		},
		{
			"type": "event",
			"name": "LaunchRulesets",
			"inputs": [
				{
					"name": "rulesetId",
					"type": "uint256",
					"indexed": false,
					"internalType": "uint256"
				},
				{
					"name": "projectId",
					"type": "uint256",
					"indexed": false,
					"internalType": "uint256"
				},
				{
					"name": "memo",
					"type": "string",
					"indexed": false,
					"internalType": "string"
				},
				{
					"name": "caller",
					"type": "address",
					"indexed": false,
					"internalType": "address"
				}
			],
			"anonymous": false
		},
		{
			"type": "event",
			"name": "Migrate",
			"inputs": [
				{
					"name": "projectId",
					"type": "uint256",
					"indexed": true,
					"internalType": "uint256"
				},
				{
					"name": "to",
					"type": "address",
					"indexed": false,
					"internalType": "contract IERC165"
				},
				{
					"name": "caller",
					"type": "address",
					"indexed": false,
					"internalType": "address"
				}
			],
			"anonymous": false
		},
		{
			"type": "event",
			"name": "MintTokens",
			"inputs": [
				{
					"name": "beneficiary",
					"type": "address",
					"indexed": true,
					"internalType": "address"
				},
				{
					"name": "projectId",
					"type": "uint256",
					"indexed": true,
					"internalType": "uint256"
				},
				{
					"name": "tokenCount",
					"type": "uint256",
					"indexed": false,
					"internalType": "uint256"
				},
				{
					"name": "beneficiaryTokenCount",
					"type": "uint256",
					"indexed": false,
					"internalType": "uint256"
				},
				{
					"name": "memo",
					"type": "string",
					"indexed": false,
					"internalType": "string"
				},
				{
					"name": "reservedPercent",
					"type": "uint256",
					"indexed": false,
					"internalType": "uint256"
				},
				{
					"name": "caller",
					"type": "address",
					"indexed": false,
					"internalType": "address"
				}
			],
			"anonymous": false
		},
		{
			"type": "event",
			"name": "PrepMigration",
			"inputs": [
				{
					"name": "projectId",
					"type": "uint256",
					"indexed": true,
					"internalType": "uint256"
				},
				{
					"name": "from",
					"type": "address",
					"indexed": false,
					"internalType": "address"
				},
				{
					"name": "caller",
					"type": "address",
					"indexed": false,
					"internalType": "address"
				}
			],
			"anonymous": false
		},
		{
			"type": "event",
			"name": "QueueRulesets",
			"inputs": [
				{
					"name": "rulesetId",
					"type": "uint256",
					"indexed": false,
					"internalType": "uint256"
				},
				{
					"name": "projectId",
					"type": "uint256",
					"indexed": false,
					"internalType": "uint256"
				},
				{
					"name": "memo",
					"type": "string",
					"indexed": false,
					"internalType": "string"
				},
				{
					"name": "caller",
					"type": "address",
					"indexed": false,
					"internalType": "address"
				}
			],
			"anonymous": false
		},
		{
			"type": "event",
			"name": "ReservedDistributionReverted",
			"inputs": [
				{
					"name": "projectId",
					"type": "uint256",
					"indexed": true,
					"internalType": "uint256"
				},
				{
					"name": "split",
					"type": "tuple",
					"indexed": false,
					"internalType": "struct JBSplit",
					"components": [
						{
							"name": "preferAddToBalance",
							"type": "bool",
							"internalType": "bool"
						},
						{
							"name": "percent",
							"type": "uint32",
							"internalType": "uint32"
						},
						{
							"name": "projectId",
							"type": "uint56",
							"internalType": "uint56"
						},
						{
							"name": "beneficiary",
							"type": "address",
							"internalType": "address payable"
						},
						{
							"name": "lockedUntil",
							"type": "uint48",
							"internalType": "uint48"
						},
						{
							"name": "hook",
							"type": "address",
							"internalType": "contract IJBSplitHook"
						}
					]
				},
				{
					"name": "amount",
					"type": "uint256",
					"indexed": false,
					"internalType": "uint256"
				},
				{
					"name": "reason",
					"type": "bytes",
					"indexed": false,
					"internalType": "bytes"
				},
				{
					"name": "caller",
					"type": "address",
					"indexed": false,
					"internalType": "address"
				}
			],
			"anonymous": false
		},
		{
			"type": "event",
			"name": "SendReservedTokensToSplit",
			"inputs": [
				{
					"name": "projectId",
					"type": "uint256",
					"indexed": true,
					"internalType": "uint256"
				},
				{
					"name": "rulesetId",
					"type": "uint256",
					"indexed": true,
					"internalType": "uint256"
				},
				{
					"name": "group",
					"type": "uint256",
					"indexed": true,
					"internalType": "uint256"
				},
				{
					"name": "split",
					"type": "tuple",
					"indexed": false,
					"internalType": "struct JBSplit",
					"components": [
						{
							"name": "preferAddToBalance",
							"type": "bool",
							"internalType": "bool"
						},
						{
							"name": "percent",
							"type": "uint32",
							"internalType": "uint32"
						},
						{
							"name": "projectId",
							"type": "uint56",
							"internalType": "uint56"
						},
						{
							"name": "beneficiary",
							"type": "address",
							"internalType": "address payable"
						},
						{
							"name": "lockedUntil",
							"type": "uint48",
							"internalType": "uint48"
						},
						{
							"name": "hook",
							"type": "address",
							"internalType": "contract IJBSplitHook"
						}
					]
				},
				{
					"name": "tokenCount",
					"type": "uint256",
					"indexed": false,
					"internalType": "uint256"
				},
				{
					"name": "caller",
					"type": "address",
					"indexed": false,
					"internalType": "address"
				}
			],
			"anonymous": false
		},
		{
			"type": "event",
			"name": "SendReservedTokensToSplits",
			"inputs": [
				{
					"name": "rulesetId",
					"type": "uint256",
					"indexed": true,
					"internalType": "uint256"
				},
				{
					"name": "rulesetCycleNumber",
					"type": "uint256",
					"indexed": true,
					"internalType": "uint256"
				},
				{
					"name": "projectId",
					"type": "uint256",
					"indexed": true,
					"internalType": "uint256"
				},
				{
					"name": "beneficiary",
					"type": "address",
					"indexed": false,
					"internalType": "address"
				},
				{
					"name": "tokenCount",
					"type": "uint256",
					"indexed": false,
					"internalType": "uint256"
				},
				{
					"name": "beneficiaryTokenCount",
					"type": "uint256",
					"indexed": false,
					"internalType": "uint256"
				},
				{
					"name": "caller",
					"type": "address",
					"indexed": false,
					"internalType": "address"
				}
			],
			"anonymous": false
		},
		{
			"type": "event",
			"name": "SetMetadata",
			"inputs": [
				{
					"name": "projectId",
					"type": "uint256",
					"indexed": true,
					"internalType": "uint256"
				},
				{
					"name": "metadata",
					"type": "string",
					"indexed": false,
					"internalType": "string"
				},
				{
					"name": "caller",
					"type": "address",
					"indexed": false,
					"internalType": "address"
				}
			],
			"anonymous": false
		},
		{
			"type": "error",
			"name": "ADDING_PRICE_FEED_NOT_ALLOWED",
			"inputs": []
		},
		{
			"type": "error",
			"name": "AddressEmptyCode",
			"inputs": [
				{
					"name": "target",
					"type": "address",
					"internalType": "address"
				}
			]
		},
		{
			"type": "error",
			"name": "AddressInsufficientBalance",
			"inputs": [
				{
					"name": "account",
					"type": "address",
					"internalType": "address"
				}
			]
		},
		{
			"type": "error",
			"name": "CREDIT_TRANSFERS_PAUSED",
			"inputs": []
		},
		{
			"type": "error",
			"name": "FailedInnerCall",
			"inputs": []
		},
		{
			"type": "error",
			"name": "INVALID_REDEMPTION_RATE",
			"inputs": []
		},
		{
			"type": "error",
			"name": "INVALID_RESERVED_PERCENT",
			"inputs": []
		},
		{
			"type": "error",
			"name": "MINT_NOT_ALLOWED_AND_NOT_TERMINAL_OR_HOOK",
			"inputs": []
		},
		{
			"type": "error",
			"name": "NO_BURNABLE_TOKENS",
			"inputs": []
		},
		{
			"type": "error",
			"name": "NO_RESERVED_TOKENS",
			"inputs": []
		},
		{
			"type": "error",
			"name": "PRBMath_MulDiv_Overflow",
			"inputs": [
				{
					"name": "x",
					"type": "uint256",
					"internalType": "uint256"
				},
				{
					"name": "y",
					"type": "uint256",
					"internalType": "uint256"
				},
				{
					"name": "denominator",
					"type": "uint256",
					"internalType": "uint256"
				}
			]
		},
		{
			"type": "error",
			"name": "RULESETS_ALREADY_LAUNCHED",
			"inputs": []
		},
		{
			"type": "error",
			"name": "RULESETS_ARRAY_EMPTY",
			"inputs": []
		},
		{
			"type": "error",
			"name": "RULESET_SET_TOKEN_DISABLED",
			"inputs": []
		},
		{
			"type": "error",
			"name": "SafeERC20FailedOperation",
			"inputs": [
				{
					"name": "token",
					"type": "address",
					"internalType": "address"
				}
			]
		},
		{
			"type": "error",
			"name": "UNAUTHORIZED",
			"inputs": []
		},
		{
			"type": "error",
			"name": "ZERO_TOKENS_TO_MINT",
			"inputs": []
		}
	],
	"solcInputHash": "b34eb54cebcd0145c48d9e3a1ef16244",
	"args": [
		"0x9CA9BC9d5e7e20fC2f1D750807fA30c86b7989F8",
		"0xE802B15A90A8AEd41797cF535c6AeE697F18E0b1",
		"0x992f9e3a81c77Cb940A29311558343E1AC66c40F",
		"0xaE02b43798E4c23e3a6Ffe570ea1612d0e7F5069",
		"0x78BB9e2C5F534A7B94608becAfF491c57e2cD819",
		"0xCfD7082857eBA8dc3322880d19d2DEcBA1989191",
		"0xcFE2A4A7AbFAD602dC4d9f734B686895Ec3b81f0",
		"0xB989eeecf03a0e5a06099F1a381e66493bFeeDEA",
		"0xB2b5841DBeF766d4b521221732F9B618fCf34A87"
	],
	"bytecode": "0x6101a06040523480156200001257600080fd5b50604051620060c5380380620060c5833981016040819052620000359162000091565b6001600160a01b03988916608052881660a05295871660c05293861660e05291851661010052841661012052831661014052821661016052166101805262000168565b6001600160a01b03811681146200008e57600080fd5b50565b60008060008060008060008060006101208a8c031215620000b157600080fd5b8951620000be8162000078565b60208b0151909950620000d18162000078565b60408b0151909850620000e48162000078565b60608b0151909750620000f78162000078565b60808b01519096506200010a8162000078565b60a08b01519095506200011d8162000078565b60c08b0151909450620001308162000078565b60e08b0151909350620001438162000078565b6101008b0151909250620001578162000078565b809150509295985092959850929598565b60805160a05160c05160e0516101005161012051610140516101605161018051615da362000322600039600081816102b901526108b201526000818161062a0152612b220152600081816102e001528181611d4901528181612a9b0152612f2e01526000818161027a0152818161095701528181610b8e01528181610eb6015281816110ad0152818161157c01528181611b9e01528181611e98015281816122480152818161305b015281816130dd015281816132490152818161339c0152818161342301526135d20152600081816105900152818161072701528181611386015281816115dd015281816117630152818161268a0152818161297a0152612c8f01526000818161046f015281816109c501528181610cdb01528181611434015281816118700152818161285301528181612bed0152613303015260008181610328015281816107c901528181610c2d01528181610dd601528181610f5d0152818161125d015281816112f2015281816119ed01528181611cb701528181611d9e01528181611f35015261218b0152600081816103ee0152818161044601526138610152600081816105dd01526125db0152615da36000f3fe608060405234801561001057600080fd5b50600436106102275760003560e01c806388bc2ef311610130578063c1ec61ee116100b8578063f12b64a51161007c578063f12b64a5146105c5578063f434c914146105d8578063f905007a146105ff578063fb61b4e314610612578063ffa082441461062557600080fd5b8063c1ec61ee14610543578063c5b19b0e14610565578063c7fb92de14610578578063d4a1b4b11461058b578063ed115957146105b257600080fd5b8063b1a50e33116100ff578063b1a50e33146104d7578063b1d59685146104ea578063b1e6d2a1146104fd578063b51d624414610510578063c02c63ad1461053057600080fd5b806388bc2ef31461046a57806399d25a3414610491578063a2d532e6146104a4578063a312889b146104b757600080fd5b806339975571116101b35780634fb99a3f116101825780634fb99a3f146103cb578063572b6c05146103de578063581781911461041e578063702a3977146104315780637da0a8771461044457600080fd5b80633997557114610372578063405b84fa1461039257806341929626146103a55780634da781a9146103b857600080fd5b80631f47ce69116101fa5780631f47ce69146102db57806325a61d5c14610302578063293c4999146103235780632fa902031461034a578063303f5dfa1461035f57600080fd5b806301ffc9a71461022c578063090db2f1146102545780631d831d5c146102755780631eabcd34146102b4575b600080fd5b61023f61023a366004613c65565b61064c565b60405190151581526020015b60405180910390f35b610267610262366004613c8f565b6106ef565b60405190815260200161024b565b61029c7f000000000000000000000000000000000000000000000000000000000000000081565b6040516001600160a01b03909116815260200161024b565b61029c7f000000000000000000000000000000000000000000000000000000000000000081565b61029c7f000000000000000000000000000000000000000000000000000000000000000081565b610315610310366004613ca8565b6106fa565b60405161024b929190613eb4565b61029c7f000000000000000000000000000000000000000000000000000000000000000081565b61035d610358366004613ee6565b6107af565b005b61035d61036d366004613f37565b610916565b610267610380366004613c8f565b60006020819052908152604090205481565b61035d6103a0366004613f76565b6109ba565b6103156103b3366004613c8f565b610b3e565b6102676103c6366004613c8f565b610b69565b6102676103d9366004614032565b610c0b565b61023f6103ec36600461410a565b7f00000000000000000000000000000000000000000000000000000000000000006001600160a01b0390811691161490565b61029c61042c366004614127565b610db1565b61035d61043f3660046141a8565b610f43565b7f000000000000000000000000000000000000000000000000000000000000000061029c565b61029c7f000000000000000000000000000000000000000000000000000000000000000081565b61023f61049f366004613c8f565b61103a565b61035d6104b23660046141f3565b611058565b6104ca6104c5366004613c8f565b61116e565b60405161024b91906142ac565b61023f6104e5366004613c8f565b611208565b6102676104f83660046142bf565b611221565b61035d61050b366004614362565b611501565b61052361051e3660046143aa565b6115ab565b60405161024b91906143d6565b61031561053e366004613c8f565b611721565b610556610551366004613c8f565b61173a565b60405161024b93929190614439565b61035d610573366004614483565b6117ee565b6102676105863660046144c8565b611999565b61029c7f000000000000000000000000000000000000000000000000000000000000000081565b61035d6105c0366004614543565b611c9d565b61035d6105d3366004613f76565b611d84565b61029c7f000000000000000000000000000000000000000000000000000000000000000081565b61026761060d366004614595565b611ef9565b61035d6106203660046145fd565b61200c565b61029c7f000000000000000000000000000000000000000000000000000000000000000081565b60006001600160e01b03198216632420f5f560e11b148061067d57506001600160e01b031982166334ce2c7b60e21b145b8061069857506001600160e01b03198216632877540760e01b145b806106b357506001600160e01b0319821663217a87fd60e21b145b806106ce57506001600160e01b03198216633d0d324560e21b145b806106e957506001600160e01b031982166301ffc9a760e01b145b92915050565b60006106e982612126565b610702613b0c565b61070a613b58565b604051630969875760e21b815260048101859052602481018490527f00000000000000000000000000000000000000000000000000000000000000006001600160a01b0316906325a61d5c9060440161012060405180830381865afa158015610777573d6000803e3d6000fd5b505050506040513d601f19601f8201168201806040525081019061079b91906148cd565b91506107a682612335565b90509250929050565b6040516331a9108f60e11b815260048101859052610844907f00000000000000000000000000000000000000000000000000000000000000006001600160a01b031690636352211e90602401602060405180830381865afa158015610818573d6000803e3d6000fd5b505050506040513d601f19601f8201168201806040525081019061083c91906148ea565b85601261256f565b600061084f8561266c565b610100810151909150604c1c60019081161461087e5760405163236c758760e21b815260040160405180910390fd5b60405163c6081d7160e01b81526004810186905260248101859052604481018490526001600160a01b0383811660648301527f0000000000000000000000000000000000000000000000000000000000000000169063c6081d71906084015b600060405180830381600087803b1580156108f757600080fd5b505af115801561090b573d6000803e3d6000fd5b505050505050505050565b6109228484600b61256f565b60405163181faefd60e11b81526001600160a01b038581166004830152602482018590526044820184905282811660648301527f0000000000000000000000000000000000000000000000000000000000000000169063303f5dfa906084015b600060405180830381600087803b15801561099c57600080fd5b505af11580156109b0573d6000803e3d6000fd5b5050505050505050565b336001600160a01b037f00000000000000000000000000000000000000000000000000000000000000001614610a035760405163075fd2b160e01b815260040160405180910390fd5b60008281526020819052604090205415610a2257610a2082612126565b505b6040516301ffc9a760e01b815263217a87fd60e21b60048201526001600160a01b038216906301ffc9a790602401602060405180830381865afa158015610a6d573d6000803e3d6000fd5b505050506040513d601f19601f82011682018060405250810190610a919190614907565b15610af7576040516362d8cd8760e11b8152306004820152602481018390526001600160a01b0382169063c5b19b0e90604401600060405180830381600087803b158015610ade57600080fd5b505af1158015610af2573d6000803e3d6000fd5b505050505b604080516001600160a01b038316815233602082015283917f01f954abace731a88ab86e71186040cc2be49fe517ea06bc0d24f25b82b83456910160405180910390a25050565b610b46613b0c565b610b4e613b58565b610b578361266c565b9150610b6282612335565b9050915091565b6000818152602081905260408082205490516375b0d9cd60e01b8152600481018490527f00000000000000000000000000000000000000000000000000000000000000006001600160a01b0316906375b0d9cd90602401602060405180830381865afa158015610bdd573d6000803e3d6000fd5b505050506040513d601f19601f82011682018060405250810190610c019190614924565b6106e99190614953565b60405163180e2b1160e31b81526001600160a01b038a811660048301526000917f00000000000000000000000000000000000000000000000000000000000000009091169063c0715888906024016020604051808303816000875af1158015610c78573d6000803e3d6000fd5b505050506040513d601f19601f82011682018060405250810190610c9c9190614924565b90508715610cbf576000818152600160205260409020610cbd898b836149e8565b505b6040516338a73f9960e11b8152600481018290523060248201527f00000000000000000000000000000000000000000000000000000000000000006001600160a01b03169063714e7f3290604401600060405180830381600087803b158015610d2757600080fd5b505af1158015610d3b573d6000803e3d6000fd5b50505050610d4a8186866126ff565b6000610d578289896128c5565b90507f8dac501f24f52bda9ebdfa6a1789878c1d1e23823c771f7d52b5ba41261b0f4581838c8c8888610d88612bb5565b604051610d9b9796959493929190614ad1565b60405180910390a1509998505050505050505050565b6040516331a9108f60e11b815260048101879052600090610e49906001600160a01b037f00000000000000000000000000000000000000000000000000000000000000001690636352211e90602401602060405180830381865afa158015610e1d573d6000803e3d6000fd5b505050506040513d601f19601f82011682018060405250810190610e4191906148ea565b88600761256f565b8115610e9f57610e57612bb5565b82604051602001610e8692919060609290921b6bffffffffffffffffffffffff19168252601482015260340190565b6040516020818303038152906040528051906020012091505b604051635817819160e01b81526001600160a01b037f00000000000000000000000000000000000000000000000000000000000000001690635817819190610ef5908a908a908a908a908a908a90600401614b21565b6020604051808303816000875af1158015610f14573d6000803e3d6000fd5b505050506040513d601f19601f82011682018060405250810190610f3891906148ea565b979650505050505050565b6040516331a9108f60e11b815260048101849052610fd8907f00000000000000000000000000000000000000000000000000000000000000006001600160a01b031690636352211e90602401602060405180830381865afa158015610fac573d6000803e3d6000fd5b505050506040513d601f19601f82011682018060405250810190610fd091906148ea565b84600661256f565b6000838152600160205260409020610ff18284836149e8565b50827f76f445b3718cf71aa0c056105beab456eba31f72f5cc5a60fde060fd14ea1684838361101e612bb5565b60405161102d93929190614b62565b60405180910390a2505050565b600061104d6110488361266c565b612335565b610120015192915050565b6110758585600a6110708261106b612bb5565b612bc4565b612c61565b8260000361109657604051637b38547b60e01b815260040160405180910390fd5b60405163124d91e560e01b81526001600160a01b037f0000000000000000000000000000000000000000000000000000000000000000169063124d91e5906110e690889088908890600401614b8e565b600060405180830381600087803b15801561110057600080fd5b505af1158015611114573d6000803e3d6000fd5b5050505083856001600160a01b03167fdf04e13ee4fcd48a81ab2fd114757093740a3efa9b6475d86e05878b4c59d07985858561114f612bb5565b60405161115f9493929190614baf565b60405180910390a35050505050565b6001602052600090815260409020805461118790614966565b80601f01602080910402602001604051908101604052809291908181526020018280546111b390614966565b80156112005780601f106111d557610100808354040283529160200191611200565b820191906000526020600020905b8154815290600101906020018083116111e357829003601f168201915b505050505081565b60006112166110488361266c565b610100015192915050565b600085810361124357604051631ec6004f60e01b815260040160405180910390fd5b6040516331a9108f60e11b8152600481018990526112d8907f00000000000000000000000000000000000000000000000000000000000000006001600160a01b031690636352211e90602401602060405180830381865afa1580156112ac573d6000803e3d6000fd5b505050506040513d601f19601f820116820180604052508101906112d091906148ea565b89600261256f565b6040516331a9108f60e11b81526004810189905261136d907f00000000000000000000000000000000000000000000000000000000000000006001600160a01b031690636352211e90602401602060405180830381865afa158015611341573d6000803e3d6000fd5b505050506040513d601f19601f8201168201806040525081019061136591906148ea565b89600e61256f565b6040516319fade8560e11b8152600481018990526000907f00000000000000000000000000000000000000000000000000000000000000006001600160a01b0316906333f5bd0a90602401602060405180830381865afa1580156113d5573d6000803e3d6000fd5b505050506040513d601f19601f820116820180604052508101906113f99190614924565b111561141857604051639115381560e01b815260040160405180910390fd5b6040516338a73f9960e11b8152600481018990523060248201527f00000000000000000000000000000000000000000000000000000000000000006001600160a01b03169063714e7f3290604401600060405180830381600087803b15801561148057600080fd5b505af1158015611494573d6000803e3d6000fd5b505050506114a38886866126ff565b6114ae8888886128c5565b90507f23164adda696b19106c2eef50ba44461997682bf5aeb9fdb383117fa9952cc75818985856114dd612bb5565b6040516114ee959493929190614be2565b60405180910390a1979650505050505050565b61150d8484600c61256f565b60006115188461266c565b61010081015190915060451c6001908116036115475760405163063a016960e01b815260040160405180910390fd5b60405163b1e6d2a160e01b81526001600160a01b038681166004830152602482018690528481166044830152606482018490527f0000000000000000000000000000000000000000000000000000000000000000169063b1e6d2a1906084016108dd565b604051632d47589160e21b81526004810184905260248101839052604481018290526060906000906001600160a01b037f0000000000000000000000000000000000000000000000000000000000000000169063b51d624490606401600060405180830381865afa158015611624573d6000803e3d6000fd5b505050506040513d6000823e601f3d908101601f1916820160405261164c9190810190614c3f565b8051909150806001600160401b0381111561166957611669614678565b6040519080825280602002602001820160405280156116a257816020015b61168f613bf4565b8152602001906001900390816116875790505b5092506116ad613b0c565b60005b82811015611716578381815181106116ca576116ca614ce4565b6020026020010151915060405180604001604052808381526020016116ee84612335565b81525085828151811061170357611703614ce4565b60209081029190910101526001016116b0565b505050509392505050565b611729613b0c565b611731613b58565b610b5783612c71565b611742613b0c565b61174a613b58565b60405163855a54ed60e01b8152600481018490526000907f00000000000000000000000000000000000000000000000000000000000000006001600160a01b03169063855a54ed9060240161014060405180830381865afa1580156117b3573d6000803e3d6000fd5b505050506040513d601f19601f820116820180604052508101906117d79190614cfa565b90935090506117e583612335565b91509193909250565b6040516301ffc9a760e01b81526334ce2c7b60e21b60048201526001600160a01b038316906301ffc9a790602401602060405180830381865afa158015611839573d6000803e3d6000fd5b505050506040513d601f19601f8201168201806040525081019061185d9190614907565b80156119085750816001600160a01b03167f00000000000000000000000000000000000000000000000000000000000000006001600160a01b0316635dd8f6aa836040518263ffffffff1660e01b81526004016118bc91815260200190565b602060405180830381865afa1580156118d9573d6000803e3d6000fd5b505050506040513d601f19601f820116820180604052508101906118fd91906148ea565b6001600160a01b0316145b156119955760405163a312889b60e01b8152600481018290526001600160a01b0383169063a312889b90602401600060405180830381865afa158015611952573d6000803e3d6000fd5b505050506040513d6000823e601f3d908101601f1916820160405261197a9190810190614d2d565b6000828152600160205260409020906119939082614dc0565b505b5050565b6000856000036119bc576040516327f44f9560e21b815260040160405180910390fd5b6000806119c88961266c565b6040516331a9108f60e11b8152600481018b9052909150611aaa906001600160a01b037f00000000000000000000000000000000000000000000000000000000000000001690636352211e90602401602060405180830381865afa158015611a34573d6000803e3d6000fd5b505050506040513d601f19601f82011682018060405250810190611a5891906148ea565b8a6009611a678261106b612bb5565b80611a92575061010085015160521c6001600160a01b0316611a87612bb5565b6001600160a01b0316145b8061107057506110708d86611aa5612bb5565b612cc6565b602081015165ffffffffffff1615801590611ad1575061010081015160461c600190811614155b8015611ae65750611ae48961106b612bb5565b155b8015611b13575061010081015160521c6001600160a01b0316611b07612bb5565b6001600160a01b031614155b8015611b295750611b278982611aa5612bb5565b155b15611b4757604051633022e3df60e11b815260040160405180910390fd5b83611b53576000611b5d565b61010081015160041c5b61ffff1691506127108214611c0a57611b8488611b7c84612710614e7f565b612710612d6e565b60405163aab68bdb60e01b81529093506001600160a01b037f0000000000000000000000000000000000000000000000000000000000000000169063aab68bdb90611bd7908a908d908890600401614b8e565b600060405180830381600087803b158015611bf157600080fd5b505af1158015611c05573d6000803e3d6000fd5b505050505b8115611c3e57611c1a8389614e7f565b60008a81526020819052604081208054909190611c38908490614953565b90915550505b88876001600160a01b03167fe6fee9c572244c0c2238c3112ac12d411750a7ee00eeebd32521c3e5a666c14b8a868a8a88611c77612bb5565b604051611c8996959493929190614e92565b60405180910390a350509695505050505050565b6040516331a9108f60e11b815260048101859052611d32907f00000000000000000000000000000000000000000000000000000000000000006001600160a01b031690636352211e90602401602060405180830381865afa158015611d06573d6000803e3d6000fd5b505050506040513d601f19601f82011682018060405250810190611d2a91906148ea565b85601161256f565b60405163ed11595760e01b81526001600160a01b037f0000000000000000000000000000000000000000000000000000000000000000169063ed11595790610982908790879087908790600401614f00565b6040516331a9108f60e11b815260048101839052611e19907f00000000000000000000000000000000000000000000000000000000000000006001600160a01b031690636352211e90602401602060405180830381865afa158015611ded573d6000803e3d6000fd5b505050506040513d601f19601f82011682018060405250810190611e1191906148ea565b83600861256f565b6000611e248361266c565b9050806020015165ffffffffffff16600003611e4657611e4383612c71565b90505b61010081015160471c600190811614611e72576040516345d4504960e11b815260040160405180910390fd5b60405163f12b64a560e01b8152600481018490526001600160a01b0383811660248301527f0000000000000000000000000000000000000000000000000000000000000000169063f12b64a590604401600060405180830381600087803b158015611edc57600080fd5b505af1158015611ef0573d6000803e3d6000fd5b50505050505050565b6000838103611f1b57604051631ec6004f60e01b815260040160405180910390fd5b6040516331a9108f60e11b815260048101879052611fb0907f00000000000000000000000000000000000000000000000000000000000000006001600160a01b031690636352211e90602401602060405180830381865afa158015611f84573d6000803e3d6000fd5b505050506040513d601f19601f82011682018060405250810190611fa891906148ea565b87600261256f565b611fbb8686866128c5565b90507f24d02d612b06648bfa2000859f3de7e6f336139eaf5877c24b0d21320625286281878585611fea612bb5565b604051611ffb959493929190614be2565b60405180910390a195945050505050565b33301461201857600080fd5b61202c6001600160a01b0386168886612e47565b60405163fef4325760e01b81526001600160a01b0388169063fef43257906120659089908990899089906000908a908a90600401615089565b6020604051808303816000875af1158015612084573d6000803e3d6000fd5b505050506040513d601f19601f820116820180604052508101906120a89190614924565b50604051636eb1769f60e11b81523060048201526001600160a01b03888116602483015286169063dd62ed3e90604401602060405180830381865afa1580156120f5573d6000803e3d6000fd5b505050506040513d601f19601f820116820180604052508101906121199190614924565b15611ef057611ef06150e4565b60008181526020819052604081205490819003612156576040516318615bc360e31b815260040160405180910390fd5b60006121618361266c565b600084815260208190526040808220829055516331a9108f60e11b815260048101869052919250907f00000000000000000000000000000000000000000000000000000000000000006001600160a01b031690636352211e90602401602060405180830381865afa1580156121da573d6000803e3d6000fd5b505050506040513d601f19601f820116820180604052508101906121fe91906148ea565b9050600083156122265761222185846020015165ffffffffffff16600187612f05565b612229565b60005b905080156122b45760405163aab68bdb60e01b81526001600160a01b037f0000000000000000000000000000000000000000000000000000000000000000169063aab68bdb9061228190859089908690600401614b8e565b600060405180830381600087803b15801561229b57600080fd5b505af11580156122af573d6000803e3d6000fd5b505050505b84836000015165ffffffffffff16846020015165ffffffffffff167f32411cac611c47cfe73afc187645c9cf3aec828d5f91780138d8421378fc0edb8588866122fb612bb5565b604080516001600160a01b0395861681526020810194909452830191909152909116606082015260800160405180910390a4505050919050565b61233d613b58565b60405180610260016040528061235884610100015160041c90565b61ffff16815260200161237084610100015160141c90565b61ffff16815260200161238884610100015160241c90565b63ffffffff1681526020016123aa846101000151600160449190911c81161490565b151581526020016123c8846101000151600160459190911c81161490565b151581526020016123e6846101000151600160469190911c81161490565b15158152602001612404846101000151600160479190911c81161490565b15158152602001612422846101000151600160489190911c81161490565b15158152602001612440846101000151600160499190911c81161490565b1515815260200161245e8461010001516001604a9190911c81161490565b1515815260200161247c8461010001516001604b9190911c81161490565b1515815260200161249a8461010001516001604c9190911c81161490565b151581526020016124b88461010001516001604d9190911c81161490565b151581526020016124d68461010001516001604e9190911c81161490565b151581526020016124f48461010001516001604f9190911c81161490565b15158152602001612512846101000151600160509190911c81161490565b15158152602001612530846101000151600160519190911c81161490565b1515815260200161254684610100015160521c90565b6001600160a01b0316815260200161256384610100015160f21c90565b61ffff16905292915050565b6000612579612bb5565b9050836001600160a01b0316816001600160a01b0316141580156126485750604051631a45b42760e11b81526001600160a01b0382811660048301528581166024830152604482018590526064820184905260016084830181905260a48301527f0000000000000000000000000000000000000000000000000000000000000000169063348b684e9060c401602060405180830381865afa158015612622573d6000803e3d6000fd5b505050506040513d601f19601f820116820180604052508101906126469190614907565b155b156126665760405163075fd2b160e01b815260040160405180910390fd5b50505050565b612674613b0c565b6040516321d1336160e11b8152600481018390527f00000000000000000000000000000000000000000000000000000000000000006001600160a01b0316906343a266c2906024015b61012060405180830381865afa1580156126db573d6000803e3d6000fd5b505050506040513d601f19601f820116820180604052508101906106e991906148cd565b806000816001600160401b0381111561271a5761271a614678565b604051908082528060200260200182016040528015612743578160200160208202803683370190505b5060408051808201909152600081526060602082015290915060005b838110156128355785858281811061277957612779614ce4565b905060200281019061278b91906150fa565b6127949061511a565b805160208201516040516304a6e43960e31b81529294506001600160a01b039091169163253721c8916127cc918b9190600401615217565b600060405180830381600087803b1580156127e657600080fd5b505af11580156127fa573d6000803e3d6000fd5b50505050816000015183828151811061281557612815614ce4565b6001600160a01b039092166020928302919091019091015260010161275f565b5082156128bd5760405163104373fb60e31b81526001600160a01b037f0000000000000000000000000000000000000000000000000000000000000000169063821b9fd89061288a908990869060040161528f565b600060405180830381600087803b1580156128a457600080fd5b505af11580156128b8573d6000803e3d6000fd5b505050505b505050505050565b6000816128d0613c19565b6128d8613b0c565b60005b83811015611716578686828181106128f5576128f5614ce4565b905060200281019061290791906152e8565b612910906157cb565b925061271061ffff168360a001516000015161ffff1611156129455760405163806a0d3160e01b815260040160405180910390fd5b61271061ffff168360a001516020015161ffff16111561297857604051639db9ee9360e01b815260040160405180910390fd5b7f00000000000000000000000000000000000000000000000000000000000000006001600160a01b03166370174dcc8985602001518660400151876060015188608001516129c98a60a001516136a7565b8a5160405160e089901b6001600160e01b0319168152600481019790975263ffffffff95861660248801526001600160701b0390941660448701529390911660648501526001600160a01b0316608484015260a483019190915265ffffffffffff1660c482015260e401610120604051808303816000875af1158015612a53573d6000803e3d6000fd5b505050506040513d601f19601f82011682018060405250810190612a7791906148cd565b602081015160c085015160405163ed11595760e01b81529294506001600160a01b037f0000000000000000000000000000000000000000000000000000000000000000169263ed11595792612ad0928d92600401615900565b600060405180830381600087803b158015612aea57600080fd5b505af1158015612afe573d6000803e3d6000fd5b505050602083015160e08501516040516323c620f360e21b81526001600160a01b037f0000000000000000000000000000000000000000000000000000000000000000169350638f1883cc92612b58928d92600401615a19565b600060405180830381600087803b158015612b7257600080fd5b505af1158015612b86573d6000803e3d6000fd5b50505050600184612b979190614e7f565b8103612bad57816020015165ffffffffffff1694505b6001016128db565b6000612bbf613851565b905090565b604051636e49181f60e01b8152600481018390526001600160a01b0382811660248301526000917f000000000000000000000000000000000000000000000000000000000000000090911690636e49181f90604401602060405180830381865afa158015612c36573d6000803e3d6000fd5b505050506040513d601f19601f82011682018060405250810190612c5a9190614907565b9392505050565b806126665761266684848461256f565b612c79613b0c565b604051631735e2c560e11b8152600481018390527f00000000000000000000000000000000000000000000000000000000000000006001600160a01b031690632e6bc58a906024016126bd565b600080612cd884610100015160521c90565b6001600160a01b031614158015612d66575061010083015160521c604051630cef9c1160e31b8152600481018690526001600160a01b038481166024830152919091169063677ce08890604401602060405180830381865afa158015612d42573d6000803e3d6000fd5b505050506040513d601f19601f82011682018060405250810190612d669190614907565b949350505050565b6000808060001985870985870292508281108382030391505080600003612da857838281612d9e57612d9e615ac7565b0492505050612c5a565b838110612dde57604051630c740aef60e31b81526004810187905260248101869052604481018590526064015b60405180910390fd5b60008486880960026001871981018816978890046003810283188082028403028082028403028082028403028082028403028082028403029081029092039091026000889003889004909101858311909403939093029303949094049190911702949350505050565b604080516001600160a01b038416602482015260448082018490528251808303909101815260649091019091526020810180516001600160e01b031663095ea7b360e01b179052612e9884826138c6565b612666576040516001600160a01b03848116602483015260006044830152612efb91869182169063095ea7b3906064015b604051602081830303815290604052915060e01b6020820180516001600160e01b03838183161783525050505061396e565b612666848261396e565b6040516369e11cc560e01b815260048101859052602481018490526044810183905281906000907f00000000000000000000000000000000000000000000000000000000000000006001600160a01b0316906369e11cc590606401600060405180830381865afa158015612f7d573d6000803e3d6000fd5b505050506040513d6000823e601f3d908101601f19168201604052612fa59190810190615add565b80516040805160c081018252600080825260208201819052918101829052606081018290526080810182905260a0810191909152919250906000805b8381101561369a57848181518110612ffb57612ffb614ce4565b6020026020010151925061302487846020015163ffffffff16633b9aca0063ffffffff16612d6e565b9150811561364d5760a08301516001600160a01b0316156131f15760a083015160405163aab68bdb60e01b81526001600160a01b037f0000000000000000000000000000000000000000000000000000000000000000169163aab68bdb9161309391908e908790600401614b8e565b600060405180830381600087803b1580156130ad57600080fd5b505af11580156130c1573d6000803e3d6000fd5b505060405163ea78803f60e01b8152600481018d9052600092507f00000000000000000000000000000000000000000000000000000000000000006001600160a01b0316915063ea78803f90602401602060405180830381865afa15801561312d573d6000803e3d6000fd5b505050506040513d601f19601f8201168201806040525081019061315191906148ea565b90508360a001516001600160a01b0316630dcdc5706040518060c00160405280846001600160a01b03168152602001868152602001601281526020018e81526020018c8152602001878152506040518263ffffffff1660e01b81526004016131b99190615be2565b600060405180830381600087803b1580156131d357600080fd5b505af11580156131e7573d6000803e3d6000fd5b5050505050613640565b60608301516000906001600160a01b03166132135761320e612bb5565b613219565b83606001515b9050836040015166ffffffffffffff166000146135bb5760405163ea78803f60e01b8152600481018c90526000907f00000000000000000000000000000000000000000000000000000000000000006001600160a01b03169063ea78803f90602401602060405180830381865afa158015613298573d6000803e3d6000fd5b505050506040513d601f19601f820116820180604052508101906132bc91906148ea565b905060006001600160a01b03821615613373576040868101519051630862026560e41b815266ffffffffffffff90911660048201526001600160a01b0383811660248301527f00000000000000000000000000000000000000000000000000000000000000001690638620265090604401602060405180830381865afa15801561334a573d6000803e3d6000fd5b505050506040513d601f19601f8201168201806040525081019061336e91906148ea565b613376565b60005b90506001600160a01b038216158061339557506001600160a01b038116155b15613421577f00000000000000000000000000000000000000000000000000000000000000006001600160a01b031663aab68bdb848f886040518463ffffffff1660e01b81526004016133ea93929190614b8e565b600060405180830381600087803b15801561340457600080fd5b505af1158015613418573d6000803e3d6000fd5b505050506135b4565b7f00000000000000000000000000000000000000000000000000000000000000006001600160a01b031663aab68bdb308f886040518463ffffffff1660e01b815260040161347193929190614b8e565b600060405180830381600087803b15801561348b57600080fd5b505af115801561349f573d6000803e3d6000fd5b5050505060008d6040516020016134b891815260200190565b60408051601f198184030181528282529089015163fb61b4e360e01b8352909250309163fb61b4e3916134f89186919088908c908b908990600401615c36565b600060405180830381600087803b15801561351257600080fd5b505af1925050508015613523575060015b6135b2573d808015613551576040519150601f19603f3d011682016040523d82523d6000602084013e613556565b606091505b5061356b6001600160a01b03851686896139d1565b8e7f96c3ac00fad4cbb9b9ae8df2dbf20a95984c04efde99cdeeaae754dbb44106ce898984613598612bb5565b6040516135a89493929190615c8c565b60405180910390a2505b505b505061363e565b60405163aab68bdb60e01b81526001600160a01b037f0000000000000000000000000000000000000000000000000000000000000000169063aab68bdb9061360b9084908f908890600401614b8e565b600060405180830381600087803b15801561362557600080fd5b505af1158015613639573d6000803e3d6000fd5b505050505b505b61364a8287614e7f565b95505b87898b7f61e0b98c9423afbd069cc95184e80d30166d0e9a3f747259d6a434491f478e22868661367b612bb5565b60405161368a93929190615cce565b60405180910390a4600101612fe1565b5050505050949350505050565b6000600190506004826000015161ffff16901b811790506014826020015161ffff16901b811790506024826040015163ffffffff16901b811790508160600151156136f85768100000000000000000175b81608001511561370e5768200000000000000000175b8160a00151156137245768400000000000000000175b8160c001511561373a5768800000000000000000175b8160e0015115613751576901000000000000000000175b81610100015115613769576902000000000000000000175b81610120015115613781576904000000000000000000175b81610140015115613799576908000000000000000000175b816101600151156137b1576910000000000000000000175b816101800151156137c9576920000000000000000000175b816101a00151156137e1576940000000000000000000175b816101c00151156137f9576980000000000000000000175b816101e001511561380b57600160501b175b8161020001511561381d57600160511b175b6102208201516102409092015160529290921b600160521b600160f21b03161760f09190911b6001600160f21b0319161790565b6000366014336001600160a01b037f00000000000000000000000000000000000000000000000000000000000000001614801561388e5750808210155b156138be576000366138a08385614e7f565b6138ab928290615cfc565b6138b491615d26565b60601c9250505090565b339250505090565b6000806000846001600160a01b0316846040516138e39190615d5b565b6000604051808303816000865af19150503d8060008114613920576040519150601f19603f3d011682016040523d82523d6000602084013e613925565b606091505b509150915081801561394f57508051158061394f57508080602001905181019061394f9190614907565b801561396557506000856001600160a01b03163b115b95945050505050565b60006139836001600160a01b03841683613a02565b905080516000141580156139a85750808060200190518101906139a69190614907565b155b1561199357604051635274afe760e01b81526001600160a01b0384166004820152602401612dd5565b6040516001600160a01b0383811660248301526044820183905261199391859182169063a9059cbb90606401612ec9565b6060612c5a8383600084600080856001600160a01b03168486604051613a289190615d5b565b60006040518083038185875af1925050503d8060008114613a65576040519150601f19603f3d011682016040523d82523d6000602084013e613a6a565b606091505b5091509150613a7a868383613a84565b9695505050505050565b606082613a9957613a9482613ae0565b612c5a565b8151158015613ab057506001600160a01b0384163b155b15613ad957604051639996b31560e01b81526001600160a01b0385166004820152602401612dd5565b5080612c5a565b805115613af05780518082602001fd5b604051630a12f52160e11b815260040160405180910390fd5b50565b6040805161012081018252600080825260208201819052918101829052606081018290526080810182905260a0810182905260c0810182905260e0810182905261010081019190915290565b6040805161026081018252600080825260208201819052918101829052606081018290526080810182905260a0810182905260c0810182905260e08101829052610100810182905261012081018290526101408101829052610160810182905261018081018290526101a081018290526101c081018290526101e081018290526102008101829052610220810182905261024081019190915290565b6040518060400160405280613c07613b0c565b8152602001613c14613b58565b905290565b604080516101008101825260008082526020820181905291810182905260608101829052608081019190915260a08101613c51613b58565b815260200160608152602001606081525090565b600060208284031215613c7757600080fd5b81356001600160e01b031981168114612c5a57600080fd5b600060208284031215613ca157600080fd5b5035919050565b60008060408385031215613cbb57600080fd5b50508035926020909101359150565b65ffffffffffff808251168352806020830151166020840152806040830151166040840152506060810151613d09606084018265ffffffffffff169052565b506080810151613d21608084018263ffffffff169052565b5060a0810151613d3c60a08401826001600160701b03169052565b5060c0810151613d5460c084018263ffffffff169052565b5060e0810151613d6f60e08401826001600160a01b03169052565b5061010090810151910152565b805161ffff1682526020810151613d99602084018261ffff169052565b506040810151613db1604084018263ffffffff169052565b506060810151613dc5606084018215159052565b506080810151613dd9608084018215159052565b5060a0810151613ded60a084018215159052565b5060c0810151613e0160c084018215159052565b5060e0810151613e1560e084018215159052565b5061010081810151151590830152610120808201511515908301526101408082015115159083015261016080820151151590830152610180808201511515908301526101a0808201511515908301526101c0808201511515908301526101e08082015115159083015261020080820151151590830152610220808201516001600160a01b0316908301526102408082015161ffff811682850152612666565b6103808101613ec38285613cca565b612c5a610120830184613d7c565b6001600160a01b0381168114613b0957600080fd5b60008060008060808587031215613efc57600080fd5b8435935060208501359250604085013591506060850135613f1c81613ed1565b939692955090935050565b8035613f3281613ed1565b919050565b60008060008060808587031215613f4d57600080fd5b8435613f5881613ed1565b935060208501359250604085013591506060850135613f1c81613ed1565b60008060408385031215613f8957600080fd5b823591506020830135613f9b81613ed1565b809150509250929050565b60008083601f840112613fb857600080fd5b5081356001600160401b03811115613fcf57600080fd5b602083019150836020828501011115613fe757600080fd5b9250929050565b60008083601f84011261400057600080fd5b5081356001600160401b0381111561401757600080fd5b6020830191508360208260051b8501011115613fe757600080fd5b600080600080600080600080600060a08a8c03121561405057600080fd5b893561405b81613ed1565b985060208a01356001600160401b038082111561407757600080fd5b6140838d838e01613fa6565b909a50985060408c013591508082111561409c57600080fd5b6140a88d838e01613fee565b909850965060608c01359150808211156140c157600080fd5b6140cd8d838e01613fee565b909650945060808c01359150808211156140e657600080fd5b506140f38c828d01613fa6565b915080935050809150509295985092959850929598565b60006020828403121561411c57600080fd5b8135612c5a81613ed1565b6000806000806000806080878903121561414057600080fd5b8635955060208701356001600160401b038082111561415e57600080fd5b61416a8a838b01613fa6565b9097509550604089013591508082111561418357600080fd5b5061419089828a01613fa6565b979a9699509497949695606090950135949350505050565b6000806000604084860312156141bd57600080fd5b8335925060208401356001600160401b038111156141da57600080fd5b6141e686828701613fa6565b9497909650939450505050565b60008060008060006080868803121561420b57600080fd5b853561421681613ed1565b9450602086013593506040860135925060608601356001600160401b0381111561423f57600080fd5b61424b88828901613fa6565b969995985093965092949392505050565b60005b8381101561427757818101518382015260200161425f565b50506000910152565b6000815180845261429881602086016020860161425c565b601f01601f19169290920160200192915050565b602081526000612c5a6020830184614280565b60008060008060008060006080888a0312156142da57600080fd5b8735965060208801356001600160401b03808211156142f857600080fd5b6143048b838c01613fee565b909850965060408a013591508082111561431d57600080fd5b6143298b838c01613fee565b909650945060608a013591508082111561434257600080fd5b5061434f8a828b01613fa6565b989b979a50959850939692959293505050565b6000806000806080858703121561437857600080fd5b843561438381613ed1565b935060208501359250604085013561439a81613ed1565b9396929550929360600135925050565b6000806000606084860312156143bf57600080fd5b505081359360208301359350604090920135919050565b6020808252825182820181905260009190848201906040850190845b8181101561442d578351614407848251613cca565b850151614418610120850182613d7c565b509284019261038092909201916001016143f2565b50909695505050505050565b6103a081016144488286613cca565b614456610120830185613d7c565b6006831061447457634e487b7160e01b600052602160045260246000fd5b82610380830152949350505050565b6000806040838503121561449657600080fd5b82356144a181613ed1565b946020939093013593505050565b8015158114613b0957600080fd5b8035613f32816144af565b60008060008060008060a087890312156144e157600080fd5b863595506020870135945060408701356144fa81613ed1565b935060608701356001600160401b0381111561451557600080fd5b61452189828a01613fa6565b9094509250506080870135614535816144af565b809150509295509295509295565b6000806000806060858703121561455957600080fd5b843593506020850135925060408501356001600160401b0381111561457d57600080fd5b61458987828801613fee565b95989497509550505050565b6000806000806000606086880312156145ad57600080fd5b8535945060208601356001600160401b03808211156145cb57600080fd5b6145d789838a01613fee565b909650945060408801359150808211156145f057600080fd5b5061424b88828901613fa6565b600080600080600080600060c0888a03121561461857600080fd5b873561462381613ed1565b965060208801359550604088013561463a81613ed1565b945060608801359350608088013561465181613ed1565b925060a08801356001600160401b0381111561466c57600080fd5b61434f8a828b01613fa6565b634e487b7160e01b600052604160045260246000fd5b60405161012081016001600160401b03811182821017156146b1576146b1614678565b60405290565b604080519081016001600160401b03811182821017156146b1576146b1614678565b604051606081016001600160401b03811182821017156146b1576146b1614678565b60405161026081016001600160401b03811182821017156146b1576146b1614678565b60405160c081016001600160401b03811182821017156146b1576146b1614678565b604051608081016001600160401b03811182821017156146b1576146b1614678565b60405161010081016001600160401b03811182821017156146b1576146b1614678565b604051601f8201601f191681016001600160401b03811182821017156147ad576147ad614678565b604052919050565b65ffffffffffff81168114613b0957600080fd5b8051613f32816147b5565b63ffffffff81168114613b0957600080fd5b8051613f32816147d4565b6001600160701b0381168114613b0957600080fd5b8051613f32816147f1565b8051613f3281613ed1565b6000610120828403121561482f57600080fd5b61483761468e565b9050614842826147c9565b8152614850602083016147c9565b6020820152614861604083016147c9565b6040820152614872606083016147c9565b6060820152614883608083016147e6565b608082015261489460a08301614806565b60a08201526148a560c083016147e6565b60c08201526148b660e08301614811565b60e082015261010080830151818301525092915050565b600061012082840312156148e057600080fd5b612c5a838361481c565b6000602082840312156148fc57600080fd5b8151612c5a81613ed1565b60006020828403121561491957600080fd5b8151612c5a816144af565b60006020828403121561493657600080fd5b5051919050565b634e487b7160e01b600052601160045260246000fd5b808201808211156106e9576106e961493d565b600181811c9082168061497a57607f821691505b60208210810361499a57634e487b7160e01b600052602260045260246000fd5b50919050565b601f821115611993576000816000526020600020601f850160051c810160208610156149c95750805b601f850160051c820191505b818110156128bd578281556001016149d5565b6001600160401b038311156149ff576149ff614678565b614a1383614a0d8354614966565b836149a0565b6000601f841160018114614a475760008515614a2f5750838201355b600019600387901b1c1916600186901b178355614aa1565b600083815260209020601f19861690835b82811015614a785786850135825560209485019460019092019101614a58565b5086821015614a955760001960f88860031b161c19848701351681555b505060018560011b0183555b5050505050565b81835281816020850137506000828201602090810191909152601f909101601f19169091010190565b87815286602082015260a060408201526000614af160a083018789614aa8565b8281036060840152614b04818688614aa8565b91505060018060a01b038316608083015298975050505050505050565b868152608060208201526000614b3b608083018789614aa8565b8281036040840152614b4e818688614aa8565b915050826060830152979650505050505050565b604081526000614b76604083018587614aa8565b905060018060a01b0383166020830152949350505050565b6001600160a01b039390931683526020830191909152604082015260600190565b848152606060208201526000614bc9606083018587614aa8565b905060018060a01b038316604083015295945050505050565b858152846020820152608060408201526000614c02608083018587614aa8565b905060018060a01b03831660608301529695505050505050565b60006001600160401b03821115614c3557614c35614678565b5060051b60200190565b60006020808385031215614c5257600080fd5b82516001600160401b03811115614c6857600080fd5b8301601f81018513614c7957600080fd5b8051614c8c614c8782614c1c565b614785565b808282526020820191506101206020818502860101935088841115614cb057600080fd5b6020850194505b83851015614cd857614cc9898661481c565b83529384019391850191614cb7565b50979650505050505050565b634e487b7160e01b600052603260045260246000fd5b6000806101408385031215614d0e57600080fd5b614d18848461481c565b915061012083015160068110613f9b57600080fd5b600060208284031215614d3f57600080fd5b81516001600160401b0380821115614d5657600080fd5b818401915084601f830112614d6a57600080fd5b815181811115614d7c57614d7c614678565b614d8f601f8201601f1916602001614785565b9150808252856020828501011115614da657600080fd5b614db781602084016020860161425c565b50949350505050565b81516001600160401b03811115614dd957614dd9614678565b614ded81614de78454614966565b846149a0565b602080601f831160018114614e225760008415614e0a5750858301515b600019600386901b1c1916600185901b1785556128bd565b600085815260208120601f198616915b82811015614e5157888601518255948401946001909101908401614e32565b5085821015614e6f5787850151600019600388901b60f8161c191681555b5050505050600190811b01905550565b818103818111156106e9576106e961493d565b86815285602082015260a060408201526000614eb260a083018688614aa8565b6060830194909452506001600160a01b0391909116608090910152949350505050565b8035613f32816147d4565b66ffffffffffffff81168114613b0957600080fd5b8035613f32816147b5565b6000606080830187845260208781860152604060606040870152828784526080935060808701905060808860051b8801018960005b8a81101561507757898303607f190184528135368d9003603e19018112614f5b57600080fd5b8c01803584528386018782013536839003601e19018112614f7b57600080fd5b9091018781019190356001600160401b03811115614f9857600080fd5b60c08082023603841315614fab57600080fd5b868a01899052918190526000918b87015b82841015615061578435614fcf816144af565b15158152848b0135614fe0816147d4565b63ffffffff16818c0152848a0135614ff781614ee0565b66ffffffffffffff16818b0152848d013561501181613ed1565b6001600160a01b0316818e0152615029858d01614ef5565b65ffffffffffff168c82015260a0615042868201613f27565b6001600160a01b03169082015293810193600193909301928101614fbc565b978a019796505050928701925050600101614f35565b50909c9b505050505050505050505050565b878152600060018060a01b03808916602084015287604084015280871660608401525084608083015260e060a0830152600060e08301526101008060c08401526150d68184018587614aa8565b9a9950505050505050505050565b634e487b7160e01b600052600160045260246000fd5b60008235603e1983360301811261511057600080fd5b9190910192915050565b6000604080833603121561512d57600080fd5b6151356146b7565b833561514081613ed1565b81526020848101356001600160401b0381111561515c57600080fd5b850136601f82011261516d57600080fd5b803561517b614c8782614c1c565b8181526060918202830184019184820191903684111561519a57600080fd5b938501935b83851015615204578085360312156151b75760008081fd5b6151bf6146d9565b85356151ca81613ed1565b81528587013560ff811681146151e05760008081fd5b81880152858901356151f1816147d4565b818a01528352938401939185019161519f565b5093850193909352509195945050505050565b60006040808301858452602060406020860152818651808452606093506060870191506020880160005b8281101561528057815180516001600160a01b031685528581015160ff168686015287015163ffffffff16878501529285019290840190600101615241565b50919998505050505050505050565b60006040820184835260206040602085015281855180845260608601915060208701935060005b818110156152db5784516001600160a01b0316835293830193918301916001016152b6565b5090979650505050505050565b6000823561033e1983360301811261511057600080fd5b8035613f32816147f1565b803561ffff81168114613f3257600080fd5b6000610260828403121561532f57600080fd5b6153376146fb565b90506153428261530a565b81526153506020830161530a565b602082015261536160408301614ed5565b6040820152615372606083016144bd565b6060820152615383608083016144bd565b608082015261539460a083016144bd565b60a08201526153a560c083016144bd565b60c08201526153b660e083016144bd565b60e08201526101006153c98184016144bd565b908201526101206153db8382016144bd565b908201526101406153ed8382016144bd565b908201526101606153ff8382016144bd565b908201526101806154118382016144bd565b908201526101a06154238382016144bd565b908201526101c06154358382016144bd565b908201526101e06154478382016144bd565b908201526102006154598382016144bd565b9082015261022061546b838201613f27565b9082015261024061547d83820161530a565b9082015292915050565b600082601f83011261549857600080fd5b813560206154a8614c8783614c1c565b82815260059290921b840181019181810190868411156154c757600080fd5b8286015b8481101561561b5780356001600160401b03808211156154ea57600080fd5b908801906040828b03601f190181131561550357600080fd5b61550b6146b7565b878401358152818401358381111561552257600080fd5b8085019450508b603f85011261553757600080fd5b878401359250615549614c8784614c1c565b83815260c09093028401820192888101908d85111561556757600080fd5b948301945b848610156156065760c0868f03121561558457600080fd5b61558c61471e565b8635615597816144af565b8152868b01356155a6816147d4565b818c0152868501356155b781614ee0565b8186015260608701356155c981613ed1565b606082015260808701356155dc816147b5565b608082015260a08701356155ef81613ed1565b60a0820152825260c095909501949089019061556c565b828a01525086525050509183019183016154cb565b509695505050505050565b600082601f83011261563757600080fd5b81356020615647614c8783614c1c565b82815260069290921b8401810191818101908684111561566657600080fd5b8286015b8481101561561b57604081890312156156835760008081fd5b61568b6146b7565b81356001600160e01b03811681146156a35760008081fd5b8152818501356156b2816147d4565b8186015283529183019160400161566a565b600082601f8301126156d557600080fd5b813560206156e5614c8783614c1c565b82815260059290921b8401810191818101908684111561570457600080fd5b8286015b8481101561561b5780356001600160401b03808211156157285760008081fd5b908801906080828b03601f19018113156157425760008081fd5b61574a614740565b8784013561575781613ed1565b815260408481013561576881613ed1565b828a0152606085810135858111156157805760008081fd5b61578e8f8c838a0101615626565b84840152509285013592848411156157a857600091508182fd5b6157b68e8b86890101615626565b90830152508652505050918301918301615708565b600061034082360312156157de57600080fd5b6157e6614762565b6157ef83614ef5565b81526157fd60208401614ed5565b602082015261580e604084016152ff565b604082015261581f60608401614ed5565b606082015261583060808401613f27565b60808201526158423660a0850161531c565b60a08201526103008301356001600160401b038082111561586257600080fd5b61586e36838701615487565b60c084015261032085013591508082111561588857600080fd5b50615895368286016156c4565b60e08301525092915050565b80511515825260208082015163ffffffff169083015260408082015166ffffffffffffff16908301526060808201516001600160a01b039081169184019190915260808083015165ffffffffffff169084015260a09182015116910152565b60006060808301868452602065ffffffffffff87168186015260406060604087015282875180855260808801915060808160051b89010194508389016000805b838110156159b1578a8803607f190185528251805189528701518789018790528051878a018190529088019083908b8b01905b8083101561599c576159868285516158a1565b60c0820191508a84019350600183019250615973565b50995050509386019391860191600101615940565b50959c9b505050505050505050505050565b60008151808452602080850194506020840160005b83811015615a0e57815180516001600160e01b0316885283015163ffffffff1683880152604090960195908201906001016159d8565b509495945050505050565b60006060808301868452602065ffffffffffff8716818601526040606060408701528287518085526080945060808801915060808160051b890101848a0160005b83811015615077578a8303607f19018552815180516001600160a01b039081168552888201511688850152868101518785018a9052615a9b8a8601826159c3565b918b0151858303868d0152919050615ab381836159c3565b968901969450505090860190600101615a5a565b634e487b7160e01b600052601260045260246000fd5b60006020808385031215615af057600080fd5b82516001600160401b03811115615b0657600080fd5b8301601f81018513615b1757600080fd5b8051615b25614c8782614c1c565b81815260c09182028301840191848201919088841115615b4457600080fd5b938501935b83851015614cd85780858a031215615b615760008081fd5b615b6961471e565b8551615b74816144af565b815285870151615b83816147d4565b81880152604086810151615b9681614ee0565b90820152606086810151615ba981613ed1565b90820152608086810151615bbc816147b5565b9082015260a086810151615bcf81613ed1565b9082015283529384019391850191615b49565b81516001600160a01b031681526020808301519082015260408083015190820152606080830151908201526080808301519082015260a082810151610160830191615c2f908401826158a1565b5092915050565b6001600160a01b03878116825266ffffffffffffff871660208301528581166040830152606082018590528316608082015260c060a08201819052600090615c8090830184614280565b98975050505050505050565b6000610120615c9b83886158a1565b8560c08401528060e0840152615cb381840186614280565b91505060018060a01b03831661010083015295945050505050565b6101008101615cdd82866158a1565b60c08201939093526001600160a01b039190911660e090910152919050565b60008085851115615d0c57600080fd5b83861115615d1957600080fd5b5050820193919092039150565b6bffffffffffffffffffffffff198135818116916014851015615d535780818660140360031b1b83161692505b505092915050565b6000825161511081846020870161425c56fea2646970667358221220b83fbdf87b9e2962d49447c0964b32d394a0b465efcb3c8930a5cdb72e1ee0d964736f6c63430008170033",
	"deployedBytecode": "0x608060405234801561001057600080fd5b50600436106102275760003560e01c806388bc2ef311610130578063c1ec61ee116100b8578063f12b64a51161007c578063f12b64a5146105c5578063f434c914146105d8578063f905007a146105ff578063fb61b4e314610612578063ffa082441461062557600080fd5b8063c1ec61ee14610543578063c5b19b0e14610565578063c7fb92de14610578578063d4a1b4b11461058b578063ed115957146105b257600080fd5b8063b1a50e33116100ff578063b1a50e33146104d7578063b1d59685146104ea578063b1e6d2a1146104fd578063b51d624414610510578063c02c63ad1461053057600080fd5b806388bc2ef31461046a57806399d25a3414610491578063a2d532e6146104a4578063a312889b146104b757600080fd5b806339975571116101b35780634fb99a3f116101825780634fb99a3f146103cb578063572b6c05146103de578063581781911461041e578063702a3977146104315780637da0a8771461044457600080fd5b80633997557114610372578063405b84fa1461039257806341929626146103a55780634da781a9146103b857600080fd5b80631f47ce69116101fa5780631f47ce69146102db57806325a61d5c14610302578063293c4999146103235780632fa902031461034a578063303f5dfa1461035f57600080fd5b806301ffc9a71461022c578063090db2f1146102545780631d831d5c146102755780631eabcd34146102b4575b600080fd5b61023f61023a366004613c65565b61064c565b60405190151581526020015b60405180910390f35b610267610262366004613c8f565b6106ef565b60405190815260200161024b565b61029c7f00000000000000000000000078bb9e2c5f534a7b94608becaff491c57e2cd81981565b6040516001600160a01b03909116815260200161024b565b61029c7f000000000000000000000000b989eeecf03a0e5a06099f1a381e66493bfeedea81565b61029c7f000000000000000000000000cfd7082857eba8dc3322880d19d2decba198919181565b610315610310366004613ca8565b6106fa565b60405161024b929190613eb4565b61029c7f000000000000000000000000e802b15a90a8aed41797cf535c6aee697f18e0b181565b61035d610358366004613ee6565b6107af565b005b61035d61036d366004613f37565b610916565b610267610380366004613c8f565b60006020819052908152604090205481565b61035d6103a0366004613f76565b6109ba565b6103156103b3366004613c8f565b610b3e565b6102676103c6366004613c8f565b610b69565b6102676103d9366004614032565b610c0b565b61023f6103ec36600461410a565b7f000000000000000000000000b2b5841dbef766d4b521221732f9b618fcf34a876001600160a01b0390811691161490565b61029c61042c366004614127565b610db1565b61035d61043f3660046141a8565b610f43565b7f000000000000000000000000b2b5841dbef766d4b521221732f9b618fcf34a8761029c565b61029c7f000000000000000000000000992f9e3a81c77cb940a29311558343e1ac66c40f81565b61023f61049f366004613c8f565b61103a565b61035d6104b23660046141f3565b611058565b6104ca6104c5366004613c8f565b61116e565b60405161024b91906142ac565b61023f6104e5366004613c8f565b611208565b6102676104f83660046142bf565b611221565b61035d61050b366004614362565b611501565b61052361051e3660046143aa565b6115ab565b60405161024b91906143d6565b61031561053e366004613c8f565b611721565b610556610551366004613c8f565b61173a565b60405161024b93929190614439565b61035d610573366004614483565b6117ee565b6102676105863660046144c8565b611999565b61029c7f000000000000000000000000ae02b43798e4c23e3a6ffe570ea1612d0e7f506981565b61035d6105c0366004614543565b611c9d565b61035d6105d3366004613f76565b611d84565b61029c7f0000000000000000000000009ca9bc9d5e7e20fc2f1d750807fa30c86b7989f881565b61026761060d366004614595565b611ef9565b61035d6106203660046145fd565b61200c565b61029c7f000000000000000000000000cfe2a4a7abfad602dc4d9f734b686895ec3b81f081565b60006001600160e01b03198216632420f5f560e11b148061067d57506001600160e01b031982166334ce2c7b60e21b145b8061069857506001600160e01b03198216632877540760e01b145b806106b357506001600160e01b0319821663217a87fd60e21b145b806106ce57506001600160e01b03198216633d0d324560e21b145b806106e957506001600160e01b031982166301ffc9a760e01b145b92915050565b60006106e982612126565b610702613b0c565b61070a613b58565b604051630969875760e21b815260048101859052602481018490527f000000000000000000000000ae02b43798e4c23e3a6ffe570ea1612d0e7f50696001600160a01b0316906325a61d5c9060440161012060405180830381865afa158015610777573d6000803e3d6000fd5b505050506040513d601f19601f8201168201806040525081019061079b91906148cd565b91506107a682612335565b90509250929050565b6040516331a9108f60e11b815260048101859052610844907f000000000000000000000000e802b15a90a8aed41797cf535c6aee697f18e0b16001600160a01b031690636352211e90602401602060405180830381865afa158015610818573d6000803e3d6000fd5b505050506040513d601f19601f8201168201806040525081019061083c91906148ea565b85601261256f565b600061084f8561266c565b610100810151909150604c1c60019081161461087e5760405163236c758760e21b815260040160405180910390fd5b60405163c6081d7160e01b81526004810186905260248101859052604481018490526001600160a01b0383811660648301527f000000000000000000000000b989eeecf03a0e5a06099f1a381e66493bfeedea169063c6081d71906084015b600060405180830381600087803b1580156108f757600080fd5b505af115801561090b573d6000803e3d6000fd5b505050505050505050565b6109228484600b61256f565b60405163181faefd60e11b81526001600160a01b038581166004830152602482018590526044820184905282811660648301527f00000000000000000000000078bb9e2c5f534a7b94608becaff491c57e2cd819169063303f5dfa906084015b600060405180830381600087803b15801561099c57600080fd5b505af11580156109b0573d6000803e3d6000fd5b5050505050505050565b336001600160a01b037f000000000000000000000000992f9e3a81c77cb940a29311558343e1ac66c40f1614610a035760405163075fd2b160e01b815260040160405180910390fd5b60008281526020819052604090205415610a2257610a2082612126565b505b6040516301ffc9a760e01b815263217a87fd60e21b60048201526001600160a01b038216906301ffc9a790602401602060405180830381865afa158015610a6d573d6000803e3d6000fd5b505050506040513d601f19601f82011682018060405250810190610a919190614907565b15610af7576040516362d8cd8760e11b8152306004820152602481018390526001600160a01b0382169063c5b19b0e90604401600060405180830381600087803b158015610ade57600080fd5b505af1158015610af2573d6000803e3d6000fd5b505050505b604080516001600160a01b038316815233602082015283917f01f954abace731a88ab86e71186040cc2be49fe517ea06bc0d24f25b82b83456910160405180910390a25050565b610b46613b0c565b610b4e613b58565b610b578361266c565b9150610b6282612335565b9050915091565b6000818152602081905260408082205490516375b0d9cd60e01b8152600481018490527f00000000000000000000000078bb9e2c5f534a7b94608becaff491c57e2cd8196001600160a01b0316906375b0d9cd90602401602060405180830381865afa158015610bdd573d6000803e3d6000fd5b505050506040513d601f19601f82011682018060405250810190610c019190614924565b6106e99190614953565b60405163180e2b1160e31b81526001600160a01b038a811660048301526000917f000000000000000000000000e802b15a90a8aed41797cf535c6aee697f18e0b19091169063c0715888906024016020604051808303816000875af1158015610c78573d6000803e3d6000fd5b505050506040513d601f19601f82011682018060405250810190610c9c9190614924565b90508715610cbf576000818152600160205260409020610cbd898b836149e8565b505b6040516338a73f9960e11b8152600481018290523060248201527f000000000000000000000000992f9e3a81c77cb940a29311558343e1ac66c40f6001600160a01b03169063714e7f3290604401600060405180830381600087803b158015610d2757600080fd5b505af1158015610d3b573d6000803e3d6000fd5b50505050610d4a8186866126ff565b6000610d578289896128c5565b90507f8dac501f24f52bda9ebdfa6a1789878c1d1e23823c771f7d52b5ba41261b0f4581838c8c8888610d88612bb5565b604051610d9b9796959493929190614ad1565b60405180910390a1509998505050505050505050565b6040516331a9108f60e11b815260048101879052600090610e49906001600160a01b037f000000000000000000000000e802b15a90a8aed41797cf535c6aee697f18e0b11690636352211e90602401602060405180830381865afa158015610e1d573d6000803e3d6000fd5b505050506040513d601f19601f82011682018060405250810190610e4191906148ea565b88600761256f565b8115610e9f57610e57612bb5565b82604051602001610e8692919060609290921b6bffffffffffffffffffffffff19168252601482015260340190565b6040516020818303038152906040528051906020012091505b604051635817819160e01b81526001600160a01b037f00000000000000000000000078bb9e2c5f534a7b94608becaff491c57e2cd8191690635817819190610ef5908a908a908a908a908a908a90600401614b21565b6020604051808303816000875af1158015610f14573d6000803e3d6000fd5b505050506040513d601f19601f82011682018060405250810190610f3891906148ea565b979650505050505050565b6040516331a9108f60e11b815260048101849052610fd8907f000000000000000000000000e802b15a90a8aed41797cf535c6aee697f18e0b16001600160a01b031690636352211e90602401602060405180830381865afa158015610fac573d6000803e3d6000fd5b505050506040513d601f19601f82011682018060405250810190610fd091906148ea565b84600661256f565b6000838152600160205260409020610ff18284836149e8565b50827f76f445b3718cf71aa0c056105beab456eba31f72f5cc5a60fde060fd14ea1684838361101e612bb5565b60405161102d93929190614b62565b60405180910390a2505050565b600061104d6110488361266c565b612335565b610120015192915050565b6110758585600a6110708261106b612bb5565b612bc4565b612c61565b8260000361109657604051637b38547b60e01b815260040160405180910390fd5b60405163124d91e560e01b81526001600160a01b037f00000000000000000000000078bb9e2c5f534a7b94608becaff491c57e2cd819169063124d91e5906110e690889088908890600401614b8e565b600060405180830381600087803b15801561110057600080fd5b505af1158015611114573d6000803e3d6000fd5b5050505083856001600160a01b03167fdf04e13ee4fcd48a81ab2fd114757093740a3efa9b6475d86e05878b4c59d07985858561114f612bb5565b60405161115f9493929190614baf565b60405180910390a35050505050565b6001602052600090815260409020805461118790614966565b80601f01602080910402602001604051908101604052809291908181526020018280546111b390614966565b80156112005780601f106111d557610100808354040283529160200191611200565b820191906000526020600020905b8154815290600101906020018083116111e357829003601f168201915b505050505081565b60006112166110488361266c565b610100015192915050565b600085810361124357604051631ec6004f60e01b815260040160405180910390fd5b6040516331a9108f60e11b8152600481018990526112d8907f000000000000000000000000e802b15a90a8aed41797cf535c6aee697f18e0b16001600160a01b031690636352211e90602401602060405180830381865afa1580156112ac573d6000803e3d6000fd5b505050506040513d601f19601f820116820180604052508101906112d091906148ea565b89600261256f565b6040516331a9108f60e11b81526004810189905261136d907f000000000000000000000000e802b15a90a8aed41797cf535c6aee697f18e0b16001600160a01b031690636352211e90602401602060405180830381865afa158015611341573d6000803e3d6000fd5b505050506040513d601f19601f8201168201806040525081019061136591906148ea565b89600e61256f565b6040516319fade8560e11b8152600481018990526000907f000000000000000000000000ae02b43798e4c23e3a6ffe570ea1612d0e7f50696001600160a01b0316906333f5bd0a90602401602060405180830381865afa1580156113d5573d6000803e3d6000fd5b505050506040513d601f19601f820116820180604052508101906113f99190614924565b111561141857604051639115381560e01b815260040160405180910390fd5b6040516338a73f9960e11b8152600481018990523060248201527f000000000000000000000000992f9e3a81c77cb940a29311558343e1ac66c40f6001600160a01b03169063714e7f3290604401600060405180830381600087803b15801561148057600080fd5b505af1158015611494573d6000803e3d6000fd5b505050506114a38886866126ff565b6114ae8888886128c5565b90507f23164adda696b19106c2eef50ba44461997682bf5aeb9fdb383117fa9952cc75818985856114dd612bb5565b6040516114ee959493929190614be2565b60405180910390a1979650505050505050565b61150d8484600c61256f565b60006115188461266c565b61010081015190915060451c6001908116036115475760405163063a016960e01b815260040160405180910390fd5b60405163b1e6d2a160e01b81526001600160a01b038681166004830152602482018690528481166044830152606482018490527f00000000000000000000000078bb9e2c5f534a7b94608becaff491c57e2cd819169063b1e6d2a1906084016108dd565b604051632d47589160e21b81526004810184905260248101839052604481018290526060906000906001600160a01b037f000000000000000000000000ae02b43798e4c23e3a6ffe570ea1612d0e7f5069169063b51d624490606401600060405180830381865afa158015611624573d6000803e3d6000fd5b505050506040513d6000823e601f3d908101601f1916820160405261164c9190810190614c3f565b8051909150806001600160401b0381111561166957611669614678565b6040519080825280602002602001820160405280156116a257816020015b61168f613bf4565b8152602001906001900390816116875790505b5092506116ad613b0c565b60005b82811015611716578381815181106116ca576116ca614ce4565b6020026020010151915060405180604001604052808381526020016116ee84612335565b81525085828151811061170357611703614ce4565b60209081029190910101526001016116b0565b505050509392505050565b611729613b0c565b611731613b58565b610b5783612c71565b611742613b0c565b61174a613b58565b60405163855a54ed60e01b8152600481018490526000907f000000000000000000000000ae02b43798e4c23e3a6ffe570ea1612d0e7f50696001600160a01b03169063855a54ed9060240161014060405180830381865afa1580156117b3573d6000803e3d6000fd5b505050506040513d601f19601f820116820180604052508101906117d79190614cfa565b90935090506117e583612335565b91509193909250565b6040516301ffc9a760e01b81526334ce2c7b60e21b60048201526001600160a01b038316906301ffc9a790602401602060405180830381865afa158015611839573d6000803e3d6000fd5b505050506040513d601f19601f8201168201806040525081019061185d9190614907565b80156119085750816001600160a01b03167f000000000000000000000000992f9e3a81c77cb940a29311558343e1ac66c40f6001600160a01b0316635dd8f6aa836040518263ffffffff1660e01b81526004016118bc91815260200190565b602060405180830381865afa1580156118d9573d6000803e3d6000fd5b505050506040513d601f19601f820116820180604052508101906118fd91906148ea565b6001600160a01b0316145b156119955760405163a312889b60e01b8152600481018290526001600160a01b0383169063a312889b90602401600060405180830381865afa158015611952573d6000803e3d6000fd5b505050506040513d6000823e601f3d908101601f1916820160405261197a9190810190614d2d565b6000828152600160205260409020906119939082614dc0565b505b5050565b6000856000036119bc576040516327f44f9560e21b815260040160405180910390fd5b6000806119c88961266c565b6040516331a9108f60e11b8152600481018b9052909150611aaa906001600160a01b037f000000000000000000000000e802b15a90a8aed41797cf535c6aee697f18e0b11690636352211e90602401602060405180830381865afa158015611a34573d6000803e3d6000fd5b505050506040513d601f19601f82011682018060405250810190611a5891906148ea565b8a6009611a678261106b612bb5565b80611a92575061010085015160521c6001600160a01b0316611a87612bb5565b6001600160a01b0316145b8061107057506110708d86611aa5612bb5565b612cc6565b602081015165ffffffffffff1615801590611ad1575061010081015160461c600190811614155b8015611ae65750611ae48961106b612bb5565b155b8015611b13575061010081015160521c6001600160a01b0316611b07612bb5565b6001600160a01b031614155b8015611b295750611b278982611aa5612bb5565b155b15611b4757604051633022e3df60e11b815260040160405180910390fd5b83611b53576000611b5d565b61010081015160041c5b61ffff1691506127108214611c0a57611b8488611b7c84612710614e7f565b612710612d6e565b60405163aab68bdb60e01b81529093506001600160a01b037f00000000000000000000000078bb9e2c5f534a7b94608becaff491c57e2cd819169063aab68bdb90611bd7908a908d908890600401614b8e565b600060405180830381600087803b158015611bf157600080fd5b505af1158015611c05573d6000803e3d6000fd5b505050505b8115611c3e57611c1a8389614e7f565b60008a81526020819052604081208054909190611c38908490614953565b90915550505b88876001600160a01b03167fe6fee9c572244c0c2238c3112ac12d411750a7ee00eeebd32521c3e5a666c14b8a868a8a88611c77612bb5565b604051611c8996959493929190614e92565b60405180910390a350509695505050505050565b6040516331a9108f60e11b815260048101859052611d32907f000000000000000000000000e802b15a90a8aed41797cf535c6aee697f18e0b16001600160a01b031690636352211e90602401602060405180830381865afa158015611d06573d6000803e3d6000fd5b505050506040513d601f19601f82011682018060405250810190611d2a91906148ea565b85601161256f565b60405163ed11595760e01b81526001600160a01b037f000000000000000000000000cfd7082857eba8dc3322880d19d2decba1989191169063ed11595790610982908790879087908790600401614f00565b6040516331a9108f60e11b815260048101839052611e19907f000000000000000000000000e802b15a90a8aed41797cf535c6aee697f18e0b16001600160a01b031690636352211e90602401602060405180830381865afa158015611ded573d6000803e3d6000fd5b505050506040513d601f19601f82011682018060405250810190611e1191906148ea565b83600861256f565b6000611e248361266c565b9050806020015165ffffffffffff16600003611e4657611e4383612c71565b90505b61010081015160471c600190811614611e72576040516345d4504960e11b815260040160405180910390fd5b60405163f12b64a560e01b8152600481018490526001600160a01b0383811660248301527f00000000000000000000000078bb9e2c5f534a7b94608becaff491c57e2cd819169063f12b64a590604401600060405180830381600087803b158015611edc57600080fd5b505af1158015611ef0573d6000803e3d6000fd5b50505050505050565b6000838103611f1b57604051631ec6004f60e01b815260040160405180910390fd5b6040516331a9108f60e11b815260048101879052611fb0907f000000000000000000000000e802b15a90a8aed41797cf535c6aee697f18e0b16001600160a01b031690636352211e90602401602060405180830381865afa158015611f84573d6000803e3d6000fd5b505050506040513d601f19601f82011682018060405250810190611fa891906148ea565b87600261256f565b611fbb8686866128c5565b90507f24d02d612b06648bfa2000859f3de7e6f336139eaf5877c24b0d21320625286281878585611fea612bb5565b604051611ffb959493929190614be2565b60405180910390a195945050505050565b33301461201857600080fd5b61202c6001600160a01b0386168886612e47565b60405163fef4325760e01b81526001600160a01b0388169063fef43257906120659089908990899089906000908a908a90600401615089565b6020604051808303816000875af1158015612084573d6000803e3d6000fd5b505050506040513d601f19601f820116820180604052508101906120a89190614924565b50604051636eb1769f60e11b81523060048201526001600160a01b03888116602483015286169063dd62ed3e90604401602060405180830381865afa1580156120f5573d6000803e3d6000fd5b505050506040513d601f19601f820116820180604052508101906121199190614924565b15611ef057611ef06150e4565b60008181526020819052604081205490819003612156576040516318615bc360e31b815260040160405180910390fd5b60006121618361266c565b600084815260208190526040808220829055516331a9108f60e11b815260048101869052919250907f000000000000000000000000e802b15a90a8aed41797cf535c6aee697f18e0b16001600160a01b031690636352211e90602401602060405180830381865afa1580156121da573d6000803e3d6000fd5b505050506040513d601f19601f820116820180604052508101906121fe91906148ea565b9050600083156122265761222185846020015165ffffffffffff16600187612f05565b612229565b60005b905080156122b45760405163aab68bdb60e01b81526001600160a01b037f00000000000000000000000078bb9e2c5f534a7b94608becaff491c57e2cd819169063aab68bdb9061228190859089908690600401614b8e565b600060405180830381600087803b15801561229b57600080fd5b505af11580156122af573d6000803e3d6000fd5b505050505b84836000015165ffffffffffff16846020015165ffffffffffff167f32411cac611c47cfe73afc187645c9cf3aec828d5f91780138d8421378fc0edb8588866122fb612bb5565b604080516001600160a01b0395861681526020810194909452830191909152909116606082015260800160405180910390a4505050919050565b61233d613b58565b60405180610260016040528061235884610100015160041c90565b61ffff16815260200161237084610100015160141c90565b61ffff16815260200161238884610100015160241c90565b63ffffffff1681526020016123aa846101000151600160449190911c81161490565b151581526020016123c8846101000151600160459190911c81161490565b151581526020016123e6846101000151600160469190911c81161490565b15158152602001612404846101000151600160479190911c81161490565b15158152602001612422846101000151600160489190911c81161490565b15158152602001612440846101000151600160499190911c81161490565b1515815260200161245e8461010001516001604a9190911c81161490565b1515815260200161247c8461010001516001604b9190911c81161490565b1515815260200161249a8461010001516001604c9190911c81161490565b151581526020016124b88461010001516001604d9190911c81161490565b151581526020016124d68461010001516001604e9190911c81161490565b151581526020016124f48461010001516001604f9190911c81161490565b15158152602001612512846101000151600160509190911c81161490565b15158152602001612530846101000151600160519190911c81161490565b1515815260200161254684610100015160521c90565b6001600160a01b0316815260200161256384610100015160f21c90565b61ffff16905292915050565b6000612579612bb5565b9050836001600160a01b0316816001600160a01b0316141580156126485750604051631a45b42760e11b81526001600160a01b0382811660048301528581166024830152604482018590526064820184905260016084830181905260a48301527f0000000000000000000000009ca9bc9d5e7e20fc2f1d750807fa30c86b7989f8169063348b684e9060c401602060405180830381865afa158015612622573d6000803e3d6000fd5b505050506040513d601f19601f820116820180604052508101906126469190614907565b155b156126665760405163075fd2b160e01b815260040160405180910390fd5b50505050565b612674613b0c565b6040516321d1336160e11b8152600481018390527f000000000000000000000000ae02b43798e4c23e3a6ffe570ea1612d0e7f50696001600160a01b0316906343a266c2906024015b61012060405180830381865afa1580156126db573d6000803e3d6000fd5b505050506040513d601f19601f820116820180604052508101906106e991906148cd565b806000816001600160401b0381111561271a5761271a614678565b604051908082528060200260200182016040528015612743578160200160208202803683370190505b5060408051808201909152600081526060602082015290915060005b838110156128355785858281811061277957612779614ce4565b905060200281019061278b91906150fa565b6127949061511a565b805160208201516040516304a6e43960e31b81529294506001600160a01b039091169163253721c8916127cc918b9190600401615217565b600060405180830381600087803b1580156127e657600080fd5b505af11580156127fa573d6000803e3d6000fd5b50505050816000015183828151811061281557612815614ce4565b6001600160a01b039092166020928302919091019091015260010161275f565b5082156128bd5760405163104373fb60e31b81526001600160a01b037f000000000000000000000000992f9e3a81c77cb940a29311558343e1ac66c40f169063821b9fd89061288a908990869060040161528f565b600060405180830381600087803b1580156128a457600080fd5b505af11580156128b8573d6000803e3d6000fd5b505050505b505050505050565b6000816128d0613c19565b6128d8613b0c565b60005b83811015611716578686828181106128f5576128f5614ce4565b905060200281019061290791906152e8565b612910906157cb565b925061271061ffff168360a001516000015161ffff1611156129455760405163806a0d3160e01b815260040160405180910390fd5b61271061ffff168360a001516020015161ffff16111561297857604051639db9ee9360e01b815260040160405180910390fd5b7f000000000000000000000000ae02b43798e4c23e3a6ffe570ea1612d0e7f50696001600160a01b03166370174dcc8985602001518660400151876060015188608001516129c98a60a001516136a7565b8a5160405160e089901b6001600160e01b0319168152600481019790975263ffffffff95861660248801526001600160701b0390941660448701529390911660648501526001600160a01b0316608484015260a483019190915265ffffffffffff1660c482015260e401610120604051808303816000875af1158015612a53573d6000803e3d6000fd5b505050506040513d601f19601f82011682018060405250810190612a7791906148cd565b602081015160c085015160405163ed11595760e01b81529294506001600160a01b037f000000000000000000000000cfd7082857eba8dc3322880d19d2decba1989191169263ed11595792612ad0928d92600401615900565b600060405180830381600087803b158015612aea57600080fd5b505af1158015612afe573d6000803e3d6000fd5b505050602083015160e08501516040516323c620f360e21b81526001600160a01b037f000000000000000000000000cfe2a4a7abfad602dc4d9f734b686895ec3b81f0169350638f1883cc92612b58928d92600401615a19565b600060405180830381600087803b158015612b7257600080fd5b505af1158015612b86573d6000803e3d6000fd5b50505050600184612b979190614e7f565b8103612bad57816020015165ffffffffffff1694505b6001016128db565b6000612bbf613851565b905090565b604051636e49181f60e01b8152600481018390526001600160a01b0382811660248301526000917f000000000000000000000000992f9e3a81c77cb940a29311558343e1ac66c40f90911690636e49181f90604401602060405180830381865afa158015612c36573d6000803e3d6000fd5b505050506040513d601f19601f82011682018060405250810190612c5a9190614907565b9392505050565b806126665761266684848461256f565b612c79613b0c565b604051631735e2c560e11b8152600481018390527f000000000000000000000000ae02b43798e4c23e3a6ffe570ea1612d0e7f50696001600160a01b031690632e6bc58a906024016126bd565b600080612cd884610100015160521c90565b6001600160a01b031614158015612d66575061010083015160521c604051630cef9c1160e31b8152600481018690526001600160a01b038481166024830152919091169063677ce08890604401602060405180830381865afa158015612d42573d6000803e3d6000fd5b505050506040513d601f19601f82011682018060405250810190612d669190614907565b949350505050565b6000808060001985870985870292508281108382030391505080600003612da857838281612d9e57612d9e615ac7565b0492505050612c5a565b838110612dde57604051630c740aef60e31b81526004810187905260248101869052604481018590526064015b60405180910390fd5b60008486880960026001871981018816978890046003810283188082028403028082028403028082028403028082028403028082028403029081029092039091026000889003889004909101858311909403939093029303949094049190911702949350505050565b604080516001600160a01b038416602482015260448082018490528251808303909101815260649091019091526020810180516001600160e01b031663095ea7b360e01b179052612e9884826138c6565b612666576040516001600160a01b03848116602483015260006044830152612efb91869182169063095ea7b3906064015b604051602081830303815290604052915060e01b6020820180516001600160e01b03838183161783525050505061396e565b612666848261396e565b6040516369e11cc560e01b815260048101859052602481018490526044810183905281906000907f000000000000000000000000cfd7082857eba8dc3322880d19d2decba19891916001600160a01b0316906369e11cc590606401600060405180830381865afa158015612f7d573d6000803e3d6000fd5b505050506040513d6000823e601f3d908101601f19168201604052612fa59190810190615add565b80516040805160c081018252600080825260208201819052918101829052606081018290526080810182905260a0810191909152919250906000805b8381101561369a57848181518110612ffb57612ffb614ce4565b6020026020010151925061302487846020015163ffffffff16633b9aca0063ffffffff16612d6e565b9150811561364d5760a08301516001600160a01b0316156131f15760a083015160405163aab68bdb60e01b81526001600160a01b037f00000000000000000000000078bb9e2c5f534a7b94608becaff491c57e2cd819169163aab68bdb9161309391908e908790600401614b8e565b600060405180830381600087803b1580156130ad57600080fd5b505af11580156130c1573d6000803e3d6000fd5b505060405163ea78803f60e01b8152600481018d9052600092507f00000000000000000000000078bb9e2c5f534a7b94608becaff491c57e2cd8196001600160a01b0316915063ea78803f90602401602060405180830381865afa15801561312d573d6000803e3d6000fd5b505050506040513d601f19601f8201168201806040525081019061315191906148ea565b90508360a001516001600160a01b0316630dcdc5706040518060c00160405280846001600160a01b03168152602001868152602001601281526020018e81526020018c8152602001878152506040518263ffffffff1660e01b81526004016131b99190615be2565b600060405180830381600087803b1580156131d357600080fd5b505af11580156131e7573d6000803e3d6000fd5b5050505050613640565b60608301516000906001600160a01b03166132135761320e612bb5565b613219565b83606001515b9050836040015166ffffffffffffff166000146135bb5760405163ea78803f60e01b8152600481018c90526000907f00000000000000000000000078bb9e2c5f534a7b94608becaff491c57e2cd8196001600160a01b03169063ea78803f90602401602060405180830381865afa158015613298573d6000803e3d6000fd5b505050506040513d601f19601f820116820180604052508101906132bc91906148ea565b905060006001600160a01b03821615613373576040868101519051630862026560e41b815266ffffffffffffff90911660048201526001600160a01b0383811660248301527f000000000000000000000000992f9e3a81c77cb940a29311558343e1ac66c40f1690638620265090604401602060405180830381865afa15801561334a573d6000803e3d6000fd5b505050506040513d601f19601f8201168201806040525081019061336e91906148ea565b613376565b60005b90506001600160a01b038216158061339557506001600160a01b038116155b15613421577f00000000000000000000000078bb9e2c5f534a7b94608becaff491c57e2cd8196001600160a01b031663aab68bdb848f886040518463ffffffff1660e01b81526004016133ea93929190614b8e565b600060405180830381600087803b15801561340457600080fd5b505af1158015613418573d6000803e3d6000fd5b505050506135b4565b7f00000000000000000000000078bb9e2c5f534a7b94608becaff491c57e2cd8196001600160a01b031663aab68bdb308f886040518463ffffffff1660e01b815260040161347193929190614b8e565b600060405180830381600087803b15801561348b57600080fd5b505af115801561349f573d6000803e3d6000fd5b5050505060008d6040516020016134b891815260200190565b60408051601f198184030181528282529089015163fb61b4e360e01b8352909250309163fb61b4e3916134f89186919088908c908b908990600401615c36565b600060405180830381600087803b15801561351257600080fd5b505af1925050508015613523575060015b6135b2573d808015613551576040519150601f19603f3d011682016040523d82523d6000602084013e613556565b606091505b5061356b6001600160a01b03851686896139d1565b8e7f96c3ac00fad4cbb9b9ae8df2dbf20a95984c04efde99cdeeaae754dbb44106ce898984613598612bb5565b6040516135a89493929190615c8c565b60405180910390a2505b505b505061363e565b60405163aab68bdb60e01b81526001600160a01b037f00000000000000000000000078bb9e2c5f534a7b94608becaff491c57e2cd819169063aab68bdb9061360b9084908f908890600401614b8e565b600060405180830381600087803b15801561362557600080fd5b505af1158015613639573d6000803e3d6000fd5b505050505b505b61364a8287614e7f565b95505b87898b7f61e0b98c9423afbd069cc95184e80d30166d0e9a3f747259d6a434491f478e22868661367b612bb5565b60405161368a93929190615cce565b60405180910390a4600101612fe1565b5050505050949350505050565b6000600190506004826000015161ffff16901b811790506014826020015161ffff16901b811790506024826040015163ffffffff16901b811790508160600151156136f85768100000000000000000175b81608001511561370e5768200000000000000000175b8160a00151156137245768400000000000000000175b8160c001511561373a5768800000000000000000175b8160e0015115613751576901000000000000000000175b81610100015115613769576902000000000000000000175b81610120015115613781576904000000000000000000175b81610140015115613799576908000000000000000000175b816101600151156137b1576910000000000000000000175b816101800151156137c9576920000000000000000000175b816101a00151156137e1576940000000000000000000175b816101c00151156137f9576980000000000000000000175b816101e001511561380b57600160501b175b8161020001511561381d57600160511b175b6102208201516102409092015160529290921b600160521b600160f21b03161760f09190911b6001600160f21b0319161790565b6000366014336001600160a01b037f000000000000000000000000b2b5841dbef766d4b521221732f9b618fcf34a871614801561388e5750808210155b156138be576000366138a08385614e7f565b6138ab928290615cfc565b6138b491615d26565b60601c9250505090565b339250505090565b6000806000846001600160a01b0316846040516138e39190615d5b565b6000604051808303816000865af19150503d8060008114613920576040519150601f19603f3d011682016040523d82523d6000602084013e613925565b606091505b509150915081801561394f57508051158061394f57508080602001905181019061394f9190614907565b801561396557506000856001600160a01b03163b115b95945050505050565b60006139836001600160a01b03841683613a02565b905080516000141580156139a85750808060200190518101906139a69190614907565b155b1561199357604051635274afe760e01b81526001600160a01b0384166004820152602401612dd5565b6040516001600160a01b0383811660248301526044820183905261199391859182169063a9059cbb90606401612ec9565b6060612c5a8383600084600080856001600160a01b03168486604051613a289190615d5b565b60006040518083038185875af1925050503d8060008114613a65576040519150601f19603f3d011682016040523d82523d6000602084013e613a6a565b606091505b5091509150613a7a868383613a84565b9695505050505050565b606082613a9957613a9482613ae0565b612c5a565b8151158015613ab057506001600160a01b0384163b155b15613ad957604051639996b31560e01b81526001600160a01b0385166004820152602401612dd5565b5080612c5a565b805115613af05780518082602001fd5b604051630a12f52160e11b815260040160405180910390fd5b50565b6040805161012081018252600080825260208201819052918101829052606081018290526080810182905260a0810182905260c0810182905260e0810182905261010081019190915290565b6040805161026081018252600080825260208201819052918101829052606081018290526080810182905260a0810182905260c0810182905260e08101829052610100810182905261012081018290526101408101829052610160810182905261018081018290526101a081018290526101c081018290526101e081018290526102008101829052610220810182905261024081019190915290565b6040518060400160405280613c07613b0c565b8152602001613c14613b58565b905290565b604080516101008101825260008082526020820181905291810182905260608101829052608081019190915260a08101613c51613b58565b815260200160608152602001606081525090565b600060208284031215613c7757600080fd5b81356001600160e01b031981168114612c5a57600080fd5b600060208284031215613ca157600080fd5b5035919050565b60008060408385031215613cbb57600080fd5b50508035926020909101359150565b65ffffffffffff808251168352806020830151166020840152806040830151166040840152506060810151613d09606084018265ffffffffffff169052565b506080810151613d21608084018263ffffffff169052565b5060a0810151613d3c60a08401826001600160701b03169052565b5060c0810151613d5460c084018263ffffffff169052565b5060e0810151613d6f60e08401826001600160a01b03169052565b5061010090810151910152565b805161ffff1682526020810151613d99602084018261ffff169052565b506040810151613db1604084018263ffffffff169052565b506060810151613dc5606084018215159052565b506080810151613dd9608084018215159052565b5060a0810151613ded60a084018215159052565b5060c0810151613e0160c084018215159052565b5060e0810151613e1560e084018215159052565b5061010081810151151590830152610120808201511515908301526101408082015115159083015261016080820151151590830152610180808201511515908301526101a0808201511515908301526101c0808201511515908301526101e08082015115159083015261020080820151151590830152610220808201516001600160a01b0316908301526102408082015161ffff811682850152612666565b6103808101613ec38285613cca565b612c5a610120830184613d7c565b6001600160a01b0381168114613b0957600080fd5b60008060008060808587031215613efc57600080fd5b8435935060208501359250604085013591506060850135613f1c81613ed1565b939692955090935050565b8035613f3281613ed1565b919050565b60008060008060808587031215613f4d57600080fd5b8435613f5881613ed1565b935060208501359250604085013591506060850135613f1c81613ed1565b60008060408385031215613f8957600080fd5b823591506020830135613f9b81613ed1565b809150509250929050565b60008083601f840112613fb857600080fd5b5081356001600160401b03811115613fcf57600080fd5b602083019150836020828501011115613fe757600080fd5b9250929050565b60008083601f84011261400057600080fd5b5081356001600160401b0381111561401757600080fd5b6020830191508360208260051b8501011115613fe757600080fd5b600080600080600080600080600060a08a8c03121561405057600080fd5b893561405b81613ed1565b985060208a01356001600160401b038082111561407757600080fd5b6140838d838e01613fa6565b909a50985060408c013591508082111561409c57600080fd5b6140a88d838e01613fee565b909850965060608c01359150808211156140c157600080fd5b6140cd8d838e01613fee565b909650945060808c01359150808211156140e657600080fd5b506140f38c828d01613fa6565b915080935050809150509295985092959850929598565b60006020828403121561411c57600080fd5b8135612c5a81613ed1565b6000806000806000806080878903121561414057600080fd5b8635955060208701356001600160401b038082111561415e57600080fd5b61416a8a838b01613fa6565b9097509550604089013591508082111561418357600080fd5b5061419089828a01613fa6565b979a9699509497949695606090950135949350505050565b6000806000604084860312156141bd57600080fd5b8335925060208401356001600160401b038111156141da57600080fd5b6141e686828701613fa6565b9497909650939450505050565b60008060008060006080868803121561420b57600080fd5b853561421681613ed1565b9450602086013593506040860135925060608601356001600160401b0381111561423f57600080fd5b61424b88828901613fa6565b969995985093965092949392505050565b60005b8381101561427757818101518382015260200161425f565b50506000910152565b6000815180845261429881602086016020860161425c565b601f01601f19169290920160200192915050565b602081526000612c5a6020830184614280565b60008060008060008060006080888a0312156142da57600080fd5b8735965060208801356001600160401b03808211156142f857600080fd5b6143048b838c01613fee565b909850965060408a013591508082111561431d57600080fd5b6143298b838c01613fee565b909650945060608a013591508082111561434257600080fd5b5061434f8a828b01613fa6565b989b979a50959850939692959293505050565b6000806000806080858703121561437857600080fd5b843561438381613ed1565b935060208501359250604085013561439a81613ed1565b9396929550929360600135925050565b6000806000606084860312156143bf57600080fd5b505081359360208301359350604090920135919050565b6020808252825182820181905260009190848201906040850190845b8181101561442d578351614407848251613cca565b850151614418610120850182613d7c565b509284019261038092909201916001016143f2565b50909695505050505050565b6103a081016144488286613cca565b614456610120830185613d7c565b6006831061447457634e487b7160e01b600052602160045260246000fd5b82610380830152949350505050565b6000806040838503121561449657600080fd5b82356144a181613ed1565b946020939093013593505050565b8015158114613b0957600080fd5b8035613f32816144af565b60008060008060008060a087890312156144e157600080fd5b863595506020870135945060408701356144fa81613ed1565b935060608701356001600160401b0381111561451557600080fd5b61452189828a01613fa6565b9094509250506080870135614535816144af565b809150509295509295509295565b6000806000806060858703121561455957600080fd5b843593506020850135925060408501356001600160401b0381111561457d57600080fd5b61458987828801613fee565b95989497509550505050565b6000806000806000606086880312156145ad57600080fd5b8535945060208601356001600160401b03808211156145cb57600080fd5b6145d789838a01613fee565b909650945060408801359150808211156145f057600080fd5b5061424b88828901613fa6565b600080600080600080600060c0888a03121561461857600080fd5b873561462381613ed1565b965060208801359550604088013561463a81613ed1565b945060608801359350608088013561465181613ed1565b925060a08801356001600160401b0381111561466c57600080fd5b61434f8a828b01613fa6565b634e487b7160e01b600052604160045260246000fd5b60405161012081016001600160401b03811182821017156146b1576146b1614678565b60405290565b604080519081016001600160401b03811182821017156146b1576146b1614678565b604051606081016001600160401b03811182821017156146b1576146b1614678565b60405161026081016001600160401b03811182821017156146b1576146b1614678565b60405160c081016001600160401b03811182821017156146b1576146b1614678565b604051608081016001600160401b03811182821017156146b1576146b1614678565b60405161010081016001600160401b03811182821017156146b1576146b1614678565b604051601f8201601f191681016001600160401b03811182821017156147ad576147ad614678565b604052919050565b65ffffffffffff81168114613b0957600080fd5b8051613f32816147b5565b63ffffffff81168114613b0957600080fd5b8051613f32816147d4565b6001600160701b0381168114613b0957600080fd5b8051613f32816147f1565b8051613f3281613ed1565b6000610120828403121561482f57600080fd5b61483761468e565b9050614842826147c9565b8152614850602083016147c9565b6020820152614861604083016147c9565b6040820152614872606083016147c9565b6060820152614883608083016147e6565b608082015261489460a08301614806565b60a08201526148a560c083016147e6565b60c08201526148b660e08301614811565b60e082015261010080830151818301525092915050565b600061012082840312156148e057600080fd5b612c5a838361481c565b6000602082840312156148fc57600080fd5b8151612c5a81613ed1565b60006020828403121561491957600080fd5b8151612c5a816144af565b60006020828403121561493657600080fd5b5051919050565b634e487b7160e01b600052601160045260246000fd5b808201808211156106e9576106e961493d565b600181811c9082168061497a57607f821691505b60208210810361499a57634e487b7160e01b600052602260045260246000fd5b50919050565b601f821115611993576000816000526020600020601f850160051c810160208610156149c95750805b601f850160051c820191505b818110156128bd578281556001016149d5565b6001600160401b038311156149ff576149ff614678565b614a1383614a0d8354614966565b836149a0565b6000601f841160018114614a475760008515614a2f5750838201355b600019600387901b1c1916600186901b178355614aa1565b600083815260209020601f19861690835b82811015614a785786850135825560209485019460019092019101614a58565b5086821015614a955760001960f88860031b161c19848701351681555b505060018560011b0183555b5050505050565b81835281816020850137506000828201602090810191909152601f909101601f19169091010190565b87815286602082015260a060408201526000614af160a083018789614aa8565b8281036060840152614b04818688614aa8565b91505060018060a01b038316608083015298975050505050505050565b868152608060208201526000614b3b608083018789614aa8565b8281036040840152614b4e818688614aa8565b915050826060830152979650505050505050565b604081526000614b76604083018587614aa8565b905060018060a01b0383166020830152949350505050565b6001600160a01b039390931683526020830191909152604082015260600190565b848152606060208201526000614bc9606083018587614aa8565b905060018060a01b038316604083015295945050505050565b858152846020820152608060408201526000614c02608083018587614aa8565b905060018060a01b03831660608301529695505050505050565b60006001600160401b03821115614c3557614c35614678565b5060051b60200190565b60006020808385031215614c5257600080fd5b82516001600160401b03811115614c6857600080fd5b8301601f81018513614c7957600080fd5b8051614c8c614c8782614c1c565b614785565b808282526020820191506101206020818502860101935088841115614cb057600080fd5b6020850194505b83851015614cd857614cc9898661481c565b83529384019391850191614cb7565b50979650505050505050565b634e487b7160e01b600052603260045260246000fd5b6000806101408385031215614d0e57600080fd5b614d18848461481c565b915061012083015160068110613f9b57600080fd5b600060208284031215614d3f57600080fd5b81516001600160401b0380821115614d5657600080fd5b818401915084601f830112614d6a57600080fd5b815181811115614d7c57614d7c614678565b614d8f601f8201601f1916602001614785565b9150808252856020828501011115614da657600080fd5b614db781602084016020860161425c565b50949350505050565b81516001600160401b03811115614dd957614dd9614678565b614ded81614de78454614966565b846149a0565b602080601f831160018114614e225760008415614e0a5750858301515b600019600386901b1c1916600185901b1785556128bd565b600085815260208120601f198616915b82811015614e5157888601518255948401946001909101908401614e32565b5085821015614e6f5787850151600019600388901b60f8161c191681555b5050505050600190811b01905550565b818103818111156106e9576106e961493d565b86815285602082015260a060408201526000614eb260a083018688614aa8565b6060830194909452506001600160a01b0391909116608090910152949350505050565b8035613f32816147d4565b66ffffffffffffff81168114613b0957600080fd5b8035613f32816147b5565b6000606080830187845260208781860152604060606040870152828784526080935060808701905060808860051b8801018960005b8a81101561507757898303607f190184528135368d9003603e19018112614f5b57600080fd5b8c01803584528386018782013536839003601e19018112614f7b57600080fd5b9091018781019190356001600160401b03811115614f9857600080fd5b60c08082023603841315614fab57600080fd5b868a01899052918190526000918b87015b82841015615061578435614fcf816144af565b15158152848b0135614fe0816147d4565b63ffffffff16818c0152848a0135614ff781614ee0565b66ffffffffffffff16818b0152848d013561501181613ed1565b6001600160a01b0316818e0152615029858d01614ef5565b65ffffffffffff168c82015260a0615042868201613f27565b6001600160a01b03169082015293810193600193909301928101614fbc565b978a019796505050928701925050600101614f35565b50909c9b505050505050505050505050565b878152600060018060a01b03808916602084015287604084015280871660608401525084608083015260e060a0830152600060e08301526101008060c08401526150d68184018587614aa8565b9a9950505050505050505050565b634e487b7160e01b600052600160045260246000fd5b60008235603e1983360301811261511057600080fd5b9190910192915050565b6000604080833603121561512d57600080fd5b6151356146b7565b833561514081613ed1565b81526020848101356001600160401b0381111561515c57600080fd5b850136601f82011261516d57600080fd5b803561517b614c8782614c1c565b8181526060918202830184019184820191903684111561519a57600080fd5b938501935b83851015615204578085360312156151b75760008081fd5b6151bf6146d9565b85356151ca81613ed1565b81528587013560ff811681146151e05760008081fd5b81880152858901356151f1816147d4565b818a01528352938401939185019161519f565b5093850193909352509195945050505050565b60006040808301858452602060406020860152818651808452606093506060870191506020880160005b8281101561528057815180516001600160a01b031685528581015160ff168686015287015163ffffffff16878501529285019290840190600101615241565b50919998505050505050505050565b60006040820184835260206040602085015281855180845260608601915060208701935060005b818110156152db5784516001600160a01b0316835293830193918301916001016152b6565b5090979650505050505050565b6000823561033e1983360301811261511057600080fd5b8035613f32816147f1565b803561ffff81168114613f3257600080fd5b6000610260828403121561532f57600080fd5b6153376146fb565b90506153428261530a565b81526153506020830161530a565b602082015261536160408301614ed5565b6040820152615372606083016144bd565b6060820152615383608083016144bd565b608082015261539460a083016144bd565b60a08201526153a560c083016144bd565b60c08201526153b660e083016144bd565b60e08201526101006153c98184016144bd565b908201526101206153db8382016144bd565b908201526101406153ed8382016144bd565b908201526101606153ff8382016144bd565b908201526101806154118382016144bd565b908201526101a06154238382016144bd565b908201526101c06154358382016144bd565b908201526101e06154478382016144bd565b908201526102006154598382016144bd565b9082015261022061546b838201613f27565b9082015261024061547d83820161530a565b9082015292915050565b600082601f83011261549857600080fd5b813560206154a8614c8783614c1c565b82815260059290921b840181019181810190868411156154c757600080fd5b8286015b8481101561561b5780356001600160401b03808211156154ea57600080fd5b908801906040828b03601f190181131561550357600080fd5b61550b6146b7565b878401358152818401358381111561552257600080fd5b8085019450508b603f85011261553757600080fd5b878401359250615549614c8784614c1c565b83815260c09093028401820192888101908d85111561556757600080fd5b948301945b848610156156065760c0868f03121561558457600080fd5b61558c61471e565b8635615597816144af565b8152868b01356155a6816147d4565b818c0152868501356155b781614ee0565b8186015260608701356155c981613ed1565b606082015260808701356155dc816147b5565b608082015260a08701356155ef81613ed1565b60a0820152825260c095909501949089019061556c565b828a01525086525050509183019183016154cb565b509695505050505050565b600082601f83011261563757600080fd5b81356020615647614c8783614c1c565b82815260069290921b8401810191818101908684111561566657600080fd5b8286015b8481101561561b57604081890312156156835760008081fd5b61568b6146b7565b81356001600160e01b03811681146156a35760008081fd5b8152818501356156b2816147d4565b8186015283529183019160400161566a565b600082601f8301126156d557600080fd5b813560206156e5614c8783614c1c565b82815260059290921b8401810191818101908684111561570457600080fd5b8286015b8481101561561b5780356001600160401b03808211156157285760008081fd5b908801906080828b03601f19018113156157425760008081fd5b61574a614740565b8784013561575781613ed1565b815260408481013561576881613ed1565b828a0152606085810135858111156157805760008081fd5b61578e8f8c838a0101615626565b84840152509285013592848411156157a857600091508182fd5b6157b68e8b86890101615626565b90830152508652505050918301918301615708565b600061034082360312156157de57600080fd5b6157e6614762565b6157ef83614ef5565b81526157fd60208401614ed5565b602082015261580e604084016152ff565b604082015261581f60608401614ed5565b606082015261583060808401613f27565b60808201526158423660a0850161531c565b60a08201526103008301356001600160401b038082111561586257600080fd5b61586e36838701615487565b60c084015261032085013591508082111561588857600080fd5b50615895368286016156c4565b60e08301525092915050565b80511515825260208082015163ffffffff169083015260408082015166ffffffffffffff16908301526060808201516001600160a01b039081169184019190915260808083015165ffffffffffff169084015260a09182015116910152565b60006060808301868452602065ffffffffffff87168186015260406060604087015282875180855260808801915060808160051b89010194508389016000805b838110156159b1578a8803607f190185528251805189528701518789018790528051878a018190529088019083908b8b01905b8083101561599c576159868285516158a1565b60c0820191508a84019350600183019250615973565b50995050509386019391860191600101615940565b50959c9b505050505050505050505050565b60008151808452602080850194506020840160005b83811015615a0e57815180516001600160e01b0316885283015163ffffffff1683880152604090960195908201906001016159d8565b509495945050505050565b60006060808301868452602065ffffffffffff8716818601526040606060408701528287518085526080945060808801915060808160051b890101848a0160005b83811015615077578a8303607f19018552815180516001600160a01b039081168552888201511688850152868101518785018a9052615a9b8a8601826159c3565b918b0151858303868d0152919050615ab381836159c3565b968901969450505090860190600101615a5a565b634e487b7160e01b600052601260045260246000fd5b60006020808385031215615af057600080fd5b82516001600160401b03811115615b0657600080fd5b8301601f81018513615b1757600080fd5b8051615b25614c8782614c1c565b81815260c09182028301840191848201919088841115615b4457600080fd5b938501935b83851015614cd85780858a031215615b615760008081fd5b615b6961471e565b8551615b74816144af565b815285870151615b83816147d4565b81880152604086810151615b9681614ee0565b90820152606086810151615ba981613ed1565b90820152608086810151615bbc816147b5565b9082015260a086810151615bcf81613ed1565b9082015283529384019391850191615b49565b81516001600160a01b031681526020808301519082015260408083015190820152606080830151908201526080808301519082015260a082810151610160830191615c2f908401826158a1565b5092915050565b6001600160a01b03878116825266ffffffffffffff871660208301528581166040830152606082018590528316608082015260c060a08201819052600090615c8090830184614280565b98975050505050505050565b6000610120615c9b83886158a1565b8560c08401528060e0840152615cb381840186614280565b91505060018060a01b03831661010083015295945050505050565b6101008101615cdd82866158a1565b60c08201939093526001600160a01b039190911660e090910152919050565b60008085851115615d0c57600080fd5b83861115615d1957600080fd5b5050820193919092039150565b6bffffffffffffffffffffffff198135818116916014851015615d535780818660140360031b1b83161692505b505092915050565b6000825161511081846020870161425c56fea2646970667358221220b83fbdf87b9e2962d49447c0964b32d394a0b465efcb3c8930a5cdb72e1ee0d964736f6c63430008170033",
	"devdoc": {
		"kind": "dev",
		"methods": {
			"addPriceFeed(uint256,uint256,uint256,address)": {
				"details": "Can only be called by the project's owner or an address with the owner's permission to `ADD_PRICE_FEED`.",
				"params": {
					"feed": "The address of the price feed to add.",
					"pricingCurrency": "The currency the feed's output price is in terms of.",
					"projectId": "The ID of the project to add the feed for.",
					"unitCurrency": "The currency being priced by the feed."
				}
			},
			"burnTokensOf(address,uint256,uint256,string)": {
				"details": "Can only be called by the holder, an address with the holder's permission to `BURN_TOKENS`, or a project's terminal.",
				"params": {
					"holder": "The address whose tokens are being burned.",
					"memo": "A memo to pass along to the emitted event.",
					"projectId": "The ID of the project whose tokens are being burned.",
					"tokenCount": "The number of tokens to burn."
				}
			},
			"claimTokensFor(address,uint256,uint256,address)": {
				"details": "Can only be called by the credit holder or an address with the holder's permission to `CLAIM_TOKENS`.",
				"params": {
					"amount": "The amount of tokens to claim.",
					"beneficiary": "The account the claimed tokens will go to.",
					"holder": "The address to redeem credits from.",
					"projectId": "The ID of the project whose tokens are being claimed."
				}
			},
			"constructor": {
				"params": {
					"directory": "A contract storing directories of terminals and controllers for each project.",
					"fundAccessLimits": "A contract that stores fund access limits for each project.",
					"permissions": "A contract storing permissions.",
					"prices": "A contract that stores prices for each project.",
					"projects": "A contract which mints ERC-721s that represent project ownership and transfers.",
					"rulesets": "A contract storing and managing project rulesets.",
					"splits": "A contract that stores splits for each project.",
					"tokens": "A contract that manages token minting and burning."
				}
			},
			"currentRulesetOf(uint256)": {
				"params": {
					"projectId": "The ID of the project to get the current ruleset of."
				},
				"returns": {
					"metadata": "The current ruleset's metadata.",
					"ruleset": "The current ruleset's struct."
				}
			},
			"deployERC20For(uint256,string,string,bytes32)": {
				"details": "Deploys the project's ERC-20 contract.Can only be called by the project's owner or an address with the owner's permission to `DEPLOY_ERC20`.",
				"params": {
					"name": "The ERC-20's name.",
					"projectId": "The ID of the project to deploy the ERC-20 for.",
					"salt": "The salt used for ERC-1167 clone deployment. Pass a non-zero salt for deterministic deployment based on `msg.sender` and the `TOKEN` implementation address.",
					"symbol": "The ERC-20's symbol."
				},
				"returns": {
					"token": "The address of the token that was deployed."
				}
			},
			"executePayReservedTokenToTerminal(address,uint256,address,uint256,address,bytes)": {
				"details": "Can only be called by this controller.",
				"params": {
					"beneficiary": "The payment's beneficiary.",
					"metadata": "The pay metadata sent to the terminal.",
					"projectId": "The ID of the project being paid.",
					"splitAmount": "The amount of tokens being paid.",
					"terminal": "The terminal to pay.",
					"token": "The token being paid with."
				}
			},
			"getRulesetOf(uint256,uint256)": {
				"params": {
					"projectId": "The ID of the project the ruleset belongs to."
				},
				"returns": {
					"metadata": "The ruleset's metadata.",
					"ruleset": "The ruleset's struct."
				}
			},
			"isTrustedForwarder(address)": {
				"details": "Indicates whether any particular address is the trusted forwarder."
			},
			"latestQueuedRulesetOf(uint256)": {
				"details": "The 'latest queued ruleset' is the ruleset initialized furthest in the future (at the end of the ruleset queue).",
				"params": {
					"projectId": "The ID of the project to get the latest ruleset of."
				},
				"returns": {
					"approvalStatus": "The ruleset's approval status.",
					"metadata": "The ruleset's metadata.",
					"ruleset": "The struct for the project's latest queued ruleset."
				}
			},
			"launchProjectFor(address,string,(uint48,uint32,uint112,uint32,address,(uint16,uint16,uint32,bool,bool,bool,bool,bool,bool,bool,bool,bool,bool,bool,bool,bool,bool,address,uint16),(uint256,(bool,uint32,uint56,address,uint48,address)[])[],(address,address,(uint224,uint32)[],(uint224,uint32)[])[])[],(address,(address,uint8,uint32)[])[],string)": {
				"details": "This will mint the project's ERC-721 to the `owner`'s address, queue the specified rulesets, and set up the specified splits and terminals. Each operation within this transaction can be done in sequence separately.Anyone can deploy a project to any `owner`'s address.",
				"params": {
					"memo": "A memo to pass along to the emitted event.",
					"owner": "The project's owner. The project ERC-721 will be minted to this address.",
					"projectUri": "The project's metadata URI. This is typically an IPFS hash, optionally with the `ipfs://` prefix. This can be updated by the project's owner.",
					"rulesetConfigurations": "The rulesets to queue.",
					"terminalConfigurations": "The terminals to set up for the project."
				},
				"returns": {
					"projectId": "The project's ID."
				}
			},
			"launchRulesetsFor(uint256,(uint48,uint32,uint112,uint32,address,(uint16,uint16,uint32,bool,bool,bool,bool,bool,bool,bool,bool,bool,bool,bool,bool,bool,bool,address,uint16),(uint256,(bool,uint32,uint56,address,uint48,address)[])[],(address,address,(uint224,uint32)[],(uint224,uint32)[])[])[],(address,(address,uint8,uint32)[])[],string)": {
				"details": "Each operation within this transaction can be done in sequence separately.Can only be called by the project's owner or an address with the owner's permission to `QUEUE_RULESETS`.",
				"params": {
					"memo": "A memo to pass along to the emitted event.",
					"projectId": "The ID of the project to launch rulesets for.",
					"rulesetConfigurations": "The rulesets to queue.",
					"terminalConfigurations": "The terminals to set up."
				},
				"returns": {
					"rulesetId": "The ID of the last successfully queued ruleset."
				}
			},
			"migrate(uint256,address)": {
				"details": "Can only be called by the directory.",
				"params": {
					"projectId": "The ID of the project to migrate.",
					"to": "The controller to migrate the project to."
				}
			},
			"mintTokensOf(uint256,uint256,address,string,bool)": {
				"details": "Can only be called by the project's owner, an address with the owner's permission to `MINT_TOKENS`, one of the project's terminals, or the project's data hook.If the ruleset's metadata has `allowOwnerMinting` set to `false`, this function can only be called by the project's terminals or data hook.",
				"params": {
					"beneficiary": "The address which will receive the (non-reserved) tokens.",
					"memo": "A memo to pass along to the emitted event.",
					"projectId": "The ID of the project whose tokens are being minted.",
					"tokenCount": "The number of tokens to mint, including any reserved tokens.",
					"useReservedPercent": "Whether to apply the ruleset's reserved percent."
				},
				"returns": {
					"beneficiaryTokenCount": "The number of tokens minted for the `beneficiary`."
				}
			},
			"queueRulesetsOf(uint256,(uint48,uint32,uint112,uint32,address,(uint16,uint16,uint32,bool,bool,bool,bool,bool,bool,bool,bool,bool,bool,bool,bool,bool,bool,address,uint16),(uint256,(bool,uint32,uint56,address,uint48,address)[])[],(address,address,(uint224,uint32)[],(uint224,uint32)[])[])[],string)": {
				"details": "Can only be called by the project's owner or an address with the owner's permission to `QUEUE_RULESETS`.",
				"params": {
					"memo": "A memo to pass along to the emitted event.",
					"projectId": "The ID of the project to queue rulesets for.",
					"rulesetConfigurations": "The rulesets to queue."
				},
				"returns": {
					"rulesetId": "The ID of the last ruleset which was successfully queued."
				}
			},
			"receiveMigrationFrom(address,uint256)": {
				"details": "This controller should not be the project's controller yet.",
				"params": {
					"from": "The controller being migrated from.",
					"projectId": "The ID of the project that will migrate to this controller."
				}
			},
			"rulesetsOf(uint256,uint256,uint256)": {
				"params": {
					"projectId": "The ID of the project to get the rulesets of.",
					"size": "The maximum number of rulesets to return.",
					"startingId": "The ID of the ruleset to begin with. This will be the latest ruleset in the result. If the `startingId` is 0, passed, the project's latest ruleset will be used."
				},
				"returns": {
					"rulesets": "The array of rulesets with their metadata."
				}
			},
			"sendReservedTokensToSplitsOf(uint256)": {
				"details": "If the project has no reserved token splits, or if they don't add up to 100%, leftover tokens are sent to the project's owner.",
				"params": {
					"projectId": "The ID of the project to send reserved tokens for."
				},
				"returns": {
					"_0": "The amount of reserved tokens minted and sent."
				}
			},
			"setControllerAllowed(uint256)": {
				"params": {
					"projectId": "The ID of the project to check."
				},
				"returns": {
					"_0": "A `bool` which is true if the project allows controllers to be set."
				}
			},
			"setSplitGroupsOf(uint256,uint256,(uint256,(bool,uint32,uint56,address,uint48,address)[])[])": {
				"details": "Can only be called by the project's owner or an address with the owner's permission to `SET_SPLIT_GROUPS`.",
				"params": {
					"projectId": "The ID of the project to set the split groups of.",
					"rulesetId": "The ID of the ruleset the split groups should be active in. Use a `rulesetId` of 0 to set the default split groups, which are used when a ruleset has no splits set. If there are no default splits and no splits are set, all splits are sent to the project's owner.",
					"splitGroups": "An array of split groups to set."
				}
			},
			"setTerminalsAllowed(uint256)": {
				"params": {
					"projectId": "The ID of the project to check."
				},
				"returns": {
					"_0": "A `bool` which is true if the project allows terminals to be set."
				}
			},
			"setTokenFor(uint256,address)": {
				"details": "Can only be called by the project's owner or an address with the owner's permission to `SET_TOKEN`.",
				"params": {
					"projectId": "The ID of the project to set the token of.",
					"token": "The new token's address."
				}
			},
			"setUriOf(uint256,string)": {
				"details": "This is typically an IPFS hash, optionally with an `ipfs://` prefix.Can only be called by the project's owner or an address with the owner's permission to `SET_PROJECT_URI`.",
				"params": {
					"metadata": "The metadata URI to set.",
					"projectId": "The ID of the project to set the metadata URI of."
				}
			},
			"supportsInterface(bytes4)": {
				"details": "See {IERC165-supportsInterface}.",
				"params": {
					"interfaceId": "The ID of the interface to check for adherence to."
				},
				"returns": {
					"_0": "A flag indicating if the provided interface ID is supported."
				}
			},
			"totalTokenSupplyWithReservedTokensOf(uint256)": {
				"params": {
					"projectId": "The ID of the project to get the total token supply of."
				},
				"returns": {
					"_0": "The total supply of the project's token, including pending reserved tokens."
				}
			},
			"transferCreditsFrom(address,uint256,address,uint256)": {
				"details": "Can only be called by the credit holder or an address with the holder's permission to `TRANSFER_CREDITS`.",
				"params": {
					"amount": "The amount of credits to transfer.",
					"holder": "The address to transfer credits from.",
					"projectId": "The ID of the project whose credits are being transferred.",
					"recipient": "The address to transfer credits to."
				}
			},
			"trustedForwarder()": {
				"details": "Returns the address of the trusted forwarder."
			},
			"upcomingRulesetOf(uint256)": {
				"details": "If an upcoming ruleset isn't found, returns an empty ruleset with all properties set to 0.",
				"params": {
					"projectId": "The ID of the project to get the next ruleset of."
				},
				"returns": {
					"metadata": "The upcoming ruleset's metadata.",
					"ruleset": "The upcoming ruleset's struct."
				}
			}
		},
		"version": 1
	},
	"userdoc": {
		"kind": "user",
		"methods": {
			"DIRECTORY()": {
				"notice": "The directory of terminals and controllers for projects."
			},
			"FUND_ACCESS_LIMITS()": {
				"notice": "A contract that stores fund access limits for each project."
			},
			"PERMISSIONS()": {
				"notice": "A contract storing permissions."
			},
			"PRICES()": {
				"notice": "A contract that stores prices for each project."
			},
			"PROJECTS()": {
				"notice": "Mints ERC-721s that represent project ownership and transfers."
			},
			"RULESETS()": {
				"notice": "The contract storing and managing project rulesets."
			},
			"SPLITS()": {
				"notice": "The contract that stores splits for each project."
			},
			"TOKENS()": {
				"notice": "The contract that manages token minting and burning."
			},
			"addPriceFeed(uint256,uint256,uint256,address)": {
				"notice": "Add a price feed for a project."
			},
			"burnTokensOf(address,uint256,uint256,string)": {
				"notice": "Burns a project's tokens or credits from the specific holder's balance."
			},
			"claimTokensFor(address,uint256,uint256,address)": {
				"notice": "Redeem credits to claim tokens into a `beneficiary`'s account."
			},
			"currentRulesetOf(uint256)": {
				"notice": "A project's currently active ruleset and its metadata."
			},
			"deployERC20For(uint256,string,string,bytes32)": {
				"notice": "Deploys an ERC-20 token for a project. It will be used when claiming tokens (with credits)."
			},
			"executePayReservedTokenToTerminal(address,uint256,address,uint256,address,bytes)": {
				"notice": "When a project receives reserved tokens, if it has a terminal for the token, this is used to pay the terminal."
			},
			"getRulesetOf(uint256,uint256)": {
				"notice": "Get the `JBRuleset` and `JBRulesetMetadata` corresponding to the specified `rulesetId`."
			},
			"latestQueuedRulesetOf(uint256)": {
				"notice": "Gets the latest ruleset queued for a project, its approval status, and its metadata."
			},
			"launchProjectFor(address,string,(uint48,uint32,uint112,uint32,address,(uint16,uint16,uint32,bool,bool,bool,bool,bool,bool,bool,bool,bool,bool,bool,bool,bool,bool,address,uint16),(uint256,(bool,uint32,uint56,address,uint48,address)[])[],(address,address,(uint224,uint32)[],(uint224,uint32)[])[])[],(address,(address,uint8,uint32)[])[],string)": {
				"notice": "Creates a project."
			},
			"launchRulesetsFor(uint256,(uint48,uint32,uint112,uint32,address,(uint16,uint16,uint32,bool,bool,bool,bool,bool,bool,bool,bool,bool,bool,bool,bool,bool,bool,address,uint16),(uint256,(bool,uint32,uint56,address,uint48,address)[])[],(address,address,(uint224,uint32)[],(uint224,uint32)[])[])[],(address,(address,uint8,uint32)[])[],string)": {
				"notice": "Queue a project's initial rulesets and set up terminals for it. Projects which already have rulesets should use `queueRulesetsOf(...)`."
			},
			"migrate(uint256,address)": {
				"notice": "Migrate a project from this controller to another one."
			},
			"mintTokensOf(uint256,uint256,address,string,bool)": {
				"notice": "Add new project tokens or credits to the specified beneficiary's balance. Optionally, reserve a portion according to the ruleset's reserved percent."
			},
			"pendingReservedTokenBalanceOf(uint256)": {
				"notice": "A project's unrealized reserved token balance (i.e. reserved tokens which haven't been sent out to the reserved token split group yet)."
			},
			"queueRulesetsOf(uint256,(uint48,uint32,uint112,uint32,address,(uint16,uint16,uint32,bool,bool,bool,bool,bool,bool,bool,bool,bool,bool,bool,bool,bool,bool,address,uint16),(uint256,(bool,uint32,uint56,address,uint48,address)[])[],(address,address,(uint224,uint32)[],(uint224,uint32)[])[])[],string)": {
				"notice": "Add one or more rulesets to the end of a project's ruleset queue. Rulesets take effect after the previous ruleset in the queue ends, and only if they are approved by the previous ruleset's approval hook."
			},
			"receiveMigrationFrom(address,uint256)": {
				"notice": "Prepares this controller to receive a project being migrated from another controller."
			},
			"rulesetsOf(uint256,uint256,uint256)": {
				"notice": "Get an array of a project's rulesets (with metadata) up to a maximum array size, sorted from latest to earliest."
			},
			"sendReservedTokensToSplitsOf(uint256)": {
				"notice": "Sends a project's pending reserved tokens to its reserved token splits."
			},
			"setControllerAllowed(uint256)": {
				"notice": "Check whether the project's controller can currently be set."
			},
			"setSplitGroupsOf(uint256,uint256,(uint256,(bool,uint32,uint56,address,uint48,address)[])[])": {
				"notice": "Sets a project's split groups. The new split groups must include any current splits which are locked."
			},
			"setTerminalsAllowed(uint256)": {
				"notice": "Check whether the project's terminals can currently be set."
			},
			"setTokenFor(uint256,address)": {
				"notice": "Set a project's token. If the project's token is already set, this will revert."
			},
			"setUriOf(uint256,string)": {
				"notice": "Set a project's metadata URI."
			},
			"supportsInterface(bytes4)": {
				"notice": "Indicates whether this contract adheres to the specified interface."
			},
			"totalTokenSupplyWithReservedTokensOf(uint256)": {
				"notice": "Gets the a project token's total supply, including pending reserved tokens."
			},
			"transferCreditsFrom(address,uint256,address,uint256)": {
				"notice": "Allows a credit holder to transfer credits to another address."
			},
			"upcomingRulesetOf(uint256)": {
				"notice": "A project's next ruleset along with its metadata."
			},
			"uriOf(uint256)": {
				"notice": "The metadata URI for each project. This is typically an IPFS hash, optionally with an `ipfs://` prefix."
			}
		},
		"version": 1
	},
	"gitCommit": "897be4ac937fa10ecfddb2c6008cf3edd084beef",
	"sourceName": "src/JBController.sol",
	"chainId": "11155111",
	"linkReferences": {},
	"deployedLinkReferences": {},
	"history": []
}