{
	"_format": "sphinx-sol-ct-artifact-1",
	"merkleRoot": "0x732be88c08b5a2d625882757714ef23a3a10316e007749118eaca4a956dc9f8a",
	"contractName": "JBController",
	"address": "0x74fc0e2cB3Eb5A2742f8B9F0D6F1263dD3664b5D",
	"abi": [
		{
			"type": "constructor",
			"inputs": [
				{
					"name": "directory",
					"type": "address",
					"internalType": "contract IJBDirectory"
				},
				{
					"name": "fundAccessLimits",
					"type": "address",
					"internalType": "contract IJBFundAccessLimits"
				},
				{
					"name": "permissions",
					"type": "address",
					"internalType": "contract IJBPermissions"
				},
				{
					"name": "prices",
					"type": "address",
					"internalType": "contract IJBPrices"
				},
				{
					"name": "projects",
					"type": "address",
					"internalType": "contract IJBProjects"
				},
				{
					"name": "rulesets",
					"type": "address",
					"internalType": "contract IJBRulesets"
				},
				{
					"name": "splits",
					"type": "address",
					"internalType": "contract IJBSplits"
				},
				{
					"name": "tokens",
					"type": "address",
					"internalType": "contract IJBTokens"
				},
				{
					"name": "trustedForwarder",
					"type": "address",
					"internalType": "address"
				}
			],
			"stateMutability": "nonpayable"
		},
		{
			"type": "function",
			"name": "DIRECTORY",
			"inputs": [],
			"outputs": [
				{
					"name": "",
					"type": "address",
					"internalType": "contract IJBDirectory"
				}
			],
			"stateMutability": "view"
		},
		{
			"type": "function",
			"name": "FUND_ACCESS_LIMITS",
			"inputs": [],
			"outputs": [
				{
					"name": "",
					"type": "address",
					"internalType": "contract IJBFundAccessLimits"
				}
			],
			"stateMutability": "view"
		},
		{
			"type": "function",
			"name": "PERMISSIONS",
			"inputs": [],
			"outputs": [
				{
					"name": "",
					"type": "address",
					"internalType": "contract IJBPermissions"
				}
			],
			"stateMutability": "view"
		},
		{
			"type": "function",
			"name": "PRICES",
			"inputs": [],
			"outputs": [
				{
					"name": "",
					"type": "address",
					"internalType": "contract IJBPrices"
				}
			],
			"stateMutability": "view"
		},
		{
			"type": "function",
			"name": "PROJECTS",
			"inputs": [],
			"outputs": [
				{
					"name": "",
					"type": "address",
					"internalType": "contract IJBProjects"
				}
			],
			"stateMutability": "view"
		},
		{
			"type": "function",
			"name": "RULESETS",
			"inputs": [],
			"outputs": [
				{
					"name": "",
					"type": "address",
					"internalType": "contract IJBRulesets"
				}
			],
			"stateMutability": "view"
		},
		{
			"type": "function",
			"name": "SPLITS",
			"inputs": [],
			"outputs": [
				{
					"name": "",
					"type": "address",
					"internalType": "contract IJBSplits"
				}
			],
			"stateMutability": "view"
		},
		{
			"type": "function",
			"name": "TOKENS",
			"inputs": [],
			"outputs": [
				{
					"name": "",
					"type": "address",
					"internalType": "contract IJBTokens"
				}
			],
			"stateMutability": "view"
		},
		{
			"type": "function",
			"name": "addPriceFeed",
			"inputs": [
				{
					"name": "projectId",
					"type": "uint256",
					"internalType": "uint256"
				},
				{
					"name": "pricingCurrency",
					"type": "uint256",
					"internalType": "uint256"
				},
				{
					"name": "unitCurrency",
					"type": "uint256",
					"internalType": "uint256"
				},
				{
					"name": "feed",
					"type": "address",
					"internalType": "contract IJBPriceFeed"
				}
			],
			"outputs": [],
			"stateMutability": "nonpayable"
		},
		{
			"type": "function",
			"name": "allRulesetsOf",
			"inputs": [
				{
					"name": "projectId",
					"type": "uint256",
					"internalType": "uint256"
				},
				{
					"name": "startingId",
					"type": "uint256",
					"internalType": "uint256"
				},
				{
					"name": "size",
					"type": "uint256",
					"internalType": "uint256"
				}
			],
			"outputs": [
				{
					"name": "rulesets",
					"type": "tuple[]",
					"internalType": "struct JBRulesetWithMetadata[]",
					"components": [
						{
							"name": "ruleset",
							"type": "tuple",
							"internalType": "struct JBRuleset",
							"components": [
								{
									"name": "cycleNumber",
									"type": "uint48",
									"internalType": "uint48"
								},
								{
									"name": "id",
									"type": "uint48",
									"internalType": "uint48"
								},
								{
									"name": "basedOnId",
									"type": "uint48",
									"internalType": "uint48"
								},
								{
									"name": "start",
									"type": "uint48",
									"internalType": "uint48"
								},
								{
									"name": "duration",
									"type": "uint32",
									"internalType": "uint32"
								},
								{
									"name": "weight",
									"type": "uint112",
									"internalType": "uint112"
								},
								{
									"name": "weightCutPercent",
									"type": "uint32",
									"internalType": "uint32"
								},
								{
									"name": "approvalHook",
									"type": "address",
									"internalType": "contract IJBRulesetApprovalHook"
								},
								{
									"name": "metadata",
									"type": "uint256",
									"internalType": "uint256"
								}
							]
						},
						{
							"name": "metadata",
							"type": "tuple",
							"internalType": "struct JBRulesetMetadata",
							"components": [
								{
									"name": "reservedPercent",
									"type": "uint16",
									"internalType": "uint16"
								},
								{
									"name": "cashOutTaxRate",
									"type": "uint16",
									"internalType": "uint16"
								},
								{
									"name": "baseCurrency",
									"type": "uint32",
									"internalType": "uint32"
								},
								{
									"name": "pausePay",
									"type": "bool",
									"internalType": "bool"
								},
								{
									"name": "pauseCreditTransfers",
									"type": "bool",
									"internalType": "bool"
								},
								{
									"name": "allowOwnerMinting",
									"type": "bool",
									"internalType": "bool"
								},
								{
									"name": "allowSetCustomToken",
									"type": "bool",
									"internalType": "bool"
								},
								{
									"name": "allowTerminalMigration",
									"type": "bool",
									"internalType": "bool"
								},
								{
									"name": "allowSetTerminals",
									"type": "bool",
									"internalType": "bool"
								},
								{
									"name": "allowSetController",
									"type": "bool",
									"internalType": "bool"
								},
								{
									"name": "allowAddAccountingContext",
									"type": "bool",
									"internalType": "bool"
								},
								{
									"name": "allowAddPriceFeed",
									"type": "bool",
									"internalType": "bool"
								},
								{
									"name": "ownerMustSendPayouts",
									"type": "bool",
									"internalType": "bool"
								},
								{
									"name": "holdFees",
									"type": "bool",
									"internalType": "bool"
								},
								{
									"name": "useTotalSurplusForCashOuts",
									"type": "bool",
									"internalType": "bool"
								},
								{
									"name": "useDataHookForPay",
									"type": "bool",
									"internalType": "bool"
								},
								{
									"name": "useDataHookForCashOut",
									"type": "bool",
									"internalType": "bool"
								},
								{
									"name": "dataHook",
									"type": "address",
									"internalType": "address"
								},
								{
									"name": "metadata",
									"type": "uint16",
									"internalType": "uint16"
								}
							]
						}
					]
				}
			],
			"stateMutability": "view"
		},
		{
			"type": "function",
			"name": "burnTokensOf",
			"inputs": [
				{
					"name": "holder",
					"type": "address",
					"internalType": "address"
				},
				{
					"name": "projectId",
					"type": "uint256",
					"internalType": "uint256"
				},
				{
					"name": "tokenCount",
					"type": "uint256",
					"internalType": "uint256"
				},
				{
					"name": "memo",
					"type": "string",
					"internalType": "string"
				}
			],
			"outputs": [],
			"stateMutability": "nonpayable"
		},
		{
			"type": "function",
			"name": "claimTokensFor",
			"inputs": [
				{
					"name": "holder",
					"type": "address",
					"internalType": "address"
				},
				{
					"name": "projectId",
					"type": "uint256",
					"internalType": "uint256"
				},
				{
					"name": "tokenCount",
					"type": "uint256",
					"internalType": "uint256"
				},
				{
					"name": "beneficiary",
					"type": "address",
					"internalType": "address"
				}
			],
			"outputs": [],
			"stateMutability": "nonpayable"
		},
		{
			"type": "function",
			"name": "currentRulesetOf",
			"inputs": [
				{
					"name": "projectId",
					"type": "uint256",
					"internalType": "uint256"
				}
			],
			"outputs": [
				{
					"name": "ruleset",
					"type": "tuple",
					"internalType": "struct JBRuleset",
					"components": [
						{
							"name": "cycleNumber",
							"type": "uint48",
							"internalType": "uint48"
						},
						{
							"name": "id",
							"type": "uint48",
							"internalType": "uint48"
						},
						{
							"name": "basedOnId",
							"type": "uint48",
							"internalType": "uint48"
						},
						{
							"name": "start",
							"type": "uint48",
							"internalType": "uint48"
						},
						{
							"name": "duration",
							"type": "uint32",
							"internalType": "uint32"
						},
						{
							"name": "weight",
							"type": "uint112",
							"internalType": "uint112"
						},
						{
							"name": "weightCutPercent",
							"type": "uint32",
							"internalType": "uint32"
						},
						{
							"name": "approvalHook",
							"type": "address",
							"internalType": "contract IJBRulesetApprovalHook"
						},
						{
							"name": "metadata",
							"type": "uint256",
							"internalType": "uint256"
						}
					]
				},
				{
					"name": "metadata",
					"type": "tuple",
					"internalType": "struct JBRulesetMetadata",
					"components": [
						{
							"name": "reservedPercent",
							"type": "uint16",
							"internalType": "uint16"
						},
						{
							"name": "cashOutTaxRate",
							"type": "uint16",
							"internalType": "uint16"
						},
						{
							"name": "baseCurrency",
							"type": "uint32",
							"internalType": "uint32"
						},
						{
							"name": "pausePay",
							"type": "bool",
							"internalType": "bool"
						},
						{
							"name": "pauseCreditTransfers",
							"type": "bool",
							"internalType": "bool"
						},
						{
							"name": "allowOwnerMinting",
							"type": "bool",
							"internalType": "bool"
						},
						{
							"name": "allowSetCustomToken",
							"type": "bool",
							"internalType": "bool"
						},
						{
							"name": "allowTerminalMigration",
							"type": "bool",
							"internalType": "bool"
						},
						{
							"name": "allowSetTerminals",
							"type": "bool",
							"internalType": "bool"
						},
						{
							"name": "allowSetController",
							"type": "bool",
							"internalType": "bool"
						},
						{
							"name": "allowAddAccountingContext",
							"type": "bool",
							"internalType": "bool"
						},
						{
							"name": "allowAddPriceFeed",
							"type": "bool",
							"internalType": "bool"
						},
						{
							"name": "ownerMustSendPayouts",
							"type": "bool",
							"internalType": "bool"
						},
						{
							"name": "holdFees",
							"type": "bool",
							"internalType": "bool"
						},
						{
							"name": "useTotalSurplusForCashOuts",
							"type": "bool",
							"internalType": "bool"
						},
						{
							"name": "useDataHookForPay",
							"type": "bool",
							"internalType": "bool"
						},
						{
							"name": "useDataHookForCashOut",
							"type": "bool",
							"internalType": "bool"
						},
						{
							"name": "dataHook",
							"type": "address",
							"internalType": "address"
						},
						{
							"name": "metadata",
							"type": "uint16",
							"internalType": "uint16"
						}
					]
				}
			],
			"stateMutability": "view"
		},
		{
			"type": "function",
			"name": "deployERC20For",
			"inputs": [
				{
					"name": "projectId",
					"type": "uint256",
					"internalType": "uint256"
				},
				{
					"name": "name",
					"type": "string",
					"internalType": "string"
				},
				{
					"name": "symbol",
					"type": "string",
					"internalType": "string"
				},
				{
					"name": "salt",
					"type": "bytes32",
					"internalType": "bytes32"
				}
			],
			"outputs": [
				{
					"name": "token",
					"type": "address",
					"internalType": "contract IJBToken"
				}
			],
			"stateMutability": "nonpayable"
		},
		{
			"type": "function",
			"name": "executePayReservedTokenToTerminal",
			"inputs": [
				{
					"name": "terminal",
					"type": "address",
					"internalType": "contract IJBTerminal"
				},
				{
					"name": "projectId",
					"type": "uint256",
					"internalType": "uint256"
				},
				{
					"name": "token",
					"type": "address",
					"internalType": "contract IJBToken"
				},
				{
					"name": "splitTokenCount",
					"type": "uint256",
					"internalType": "uint256"
				},
				{
					"name": "beneficiary",
					"type": "address",
					"internalType": "address"
				},
				{
					"name": "metadata",
					"type": "bytes",
					"internalType": "bytes"
				}
			],
			"outputs": [],
			"stateMutability": "nonpayable"
		},
		{
			"type": "function",
			"name": "getRulesetOf",
			"inputs": [
				{
					"name": "projectId",
					"type": "uint256",
					"internalType": "uint256"
				},
				{
					"name": "rulesetId",
					"type": "uint256",
					"internalType": "uint256"
				}
			],
			"outputs": [
				{
					"name": "ruleset",
					"type": "tuple",
					"internalType": "struct JBRuleset",
					"components": [
						{
							"name": "cycleNumber",
							"type": "uint48",
							"internalType": "uint48"
						},
						{
							"name": "id",
							"type": "uint48",
							"internalType": "uint48"
						},
						{
							"name": "basedOnId",
							"type": "uint48",
							"internalType": "uint48"
						},
						{
							"name": "start",
							"type": "uint48",
							"internalType": "uint48"
						},
						{
							"name": "duration",
							"type": "uint32",
							"internalType": "uint32"
						},
						{
							"name": "weight",
							"type": "uint112",
							"internalType": "uint112"
						},
						{
							"name": "weightCutPercent",
							"type": "uint32",
							"internalType": "uint32"
						},
						{
							"name": "approvalHook",
							"type": "address",
							"internalType": "contract IJBRulesetApprovalHook"
						},
						{
							"name": "metadata",
							"type": "uint256",
							"internalType": "uint256"
						}
					]
				},
				{
					"name": "metadata",
					"type": "tuple",
					"internalType": "struct JBRulesetMetadata",
					"components": [
						{
							"name": "reservedPercent",
							"type": "uint16",
							"internalType": "uint16"
						},
						{
							"name": "cashOutTaxRate",
							"type": "uint16",
							"internalType": "uint16"
						},
						{
							"name": "baseCurrency",
							"type": "uint32",
							"internalType": "uint32"
						},
						{
							"name": "pausePay",
							"type": "bool",
							"internalType": "bool"
						},
						{
							"name": "pauseCreditTransfers",
							"type": "bool",
							"internalType": "bool"
						},
						{
							"name": "allowOwnerMinting",
							"type": "bool",
							"internalType": "bool"
						},
						{
							"name": "allowSetCustomToken",
							"type": "bool",
							"internalType": "bool"
						},
						{
							"name": "allowTerminalMigration",
							"type": "bool",
							"internalType": "bool"
						},
						{
							"name": "allowSetTerminals",
							"type": "bool",
							"internalType": "bool"
						},
						{
							"name": "allowSetController",
							"type": "bool",
							"internalType": "bool"
						},
						{
							"name": "allowAddAccountingContext",
							"type": "bool",
							"internalType": "bool"
						},
						{
							"name": "allowAddPriceFeed",
							"type": "bool",
							"internalType": "bool"
						},
						{
							"name": "ownerMustSendPayouts",
							"type": "bool",
							"internalType": "bool"
						},
						{
							"name": "holdFees",
							"type": "bool",
							"internalType": "bool"
						},
						{
							"name": "useTotalSurplusForCashOuts",
							"type": "bool",
							"internalType": "bool"
						},
						{
							"name": "useDataHookForPay",
							"type": "bool",
							"internalType": "bool"
						},
						{
							"name": "useDataHookForCashOut",
							"type": "bool",
							"internalType": "bool"
						},
						{
							"name": "dataHook",
							"type": "address",
							"internalType": "address"
						},
						{
							"name": "metadata",
							"type": "uint16",
							"internalType": "uint16"
						}
					]
				}
			],
			"stateMutability": "view"
		},
		{
			"type": "function",
			"name": "isTrustedForwarder",
			"inputs": [
				{
					"name": "forwarder",
					"type": "address",
					"internalType": "address"
				}
			],
			"outputs": [
				{
					"name": "",
					"type": "bool",
					"internalType": "bool"
				}
			],
			"stateMutability": "view"
		},
		{
			"type": "function",
			"name": "latestQueuedRulesetOf",
			"inputs": [
				{
					"name": "projectId",
					"type": "uint256",
					"internalType": "uint256"
				}
			],
			"outputs": [
				{
					"name": "ruleset",
					"type": "tuple",
					"internalType": "struct JBRuleset",
					"components": [
						{
							"name": "cycleNumber",
							"type": "uint48",
							"internalType": "uint48"
						},
						{
							"name": "id",
							"type": "uint48",
							"internalType": "uint48"
						},
						{
							"name": "basedOnId",
							"type": "uint48",
							"internalType": "uint48"
						},
						{
							"name": "start",
							"type": "uint48",
							"internalType": "uint48"
						},
						{
							"name": "duration",
							"type": "uint32",
							"internalType": "uint32"
						},
						{
							"name": "weight",
							"type": "uint112",
							"internalType": "uint112"
						},
						{
							"name": "weightCutPercent",
							"type": "uint32",
							"internalType": "uint32"
						},
						{
							"name": "approvalHook",
							"type": "address",
							"internalType": "contract IJBRulesetApprovalHook"
						},
						{
							"name": "metadata",
							"type": "uint256",
							"internalType": "uint256"
						}
					]
				},
				{
					"name": "metadata",
					"type": "tuple",
					"internalType": "struct JBRulesetMetadata",
					"components": [
						{
							"name": "reservedPercent",
							"type": "uint16",
							"internalType": "uint16"
						},
						{
							"name": "cashOutTaxRate",
							"type": "uint16",
							"internalType": "uint16"
						},
						{
							"name": "baseCurrency",
							"type": "uint32",
							"internalType": "uint32"
						},
						{
							"name": "pausePay",
							"type": "bool",
							"internalType": "bool"
						},
						{
							"name": "pauseCreditTransfers",
							"type": "bool",
							"internalType": "bool"
						},
						{
							"name": "allowOwnerMinting",
							"type": "bool",
							"internalType": "bool"
						},
						{
							"name": "allowSetCustomToken",
							"type": "bool",
							"internalType": "bool"
						},
						{
							"name": "allowTerminalMigration",
							"type": "bool",
							"internalType": "bool"
						},
						{
							"name": "allowSetTerminals",
							"type": "bool",
							"internalType": "bool"
						},
						{
							"name": "allowSetController",
							"type": "bool",
							"internalType": "bool"
						},
						{
							"name": "allowAddAccountingContext",
							"type": "bool",
							"internalType": "bool"
						},
						{
							"name": "allowAddPriceFeed",
							"type": "bool",
							"internalType": "bool"
						},
						{
							"name": "ownerMustSendPayouts",
							"type": "bool",
							"internalType": "bool"
						},
						{
							"name": "holdFees",
							"type": "bool",
							"internalType": "bool"
						},
						{
							"name": "useTotalSurplusForCashOuts",
							"type": "bool",
							"internalType": "bool"
						},
						{
							"name": "useDataHookForPay",
							"type": "bool",
							"internalType": "bool"
						},
						{
							"name": "useDataHookForCashOut",
							"type": "bool",
							"internalType": "bool"
						},
						{
							"name": "dataHook",
							"type": "address",
							"internalType": "address"
						},
						{
							"name": "metadata",
							"type": "uint16",
							"internalType": "uint16"
						}
					]
				},
				{
					"name": "approvalStatus",
					"type": "uint8",
					"internalType": "enum JBApprovalStatus"
				}
			],
			"stateMutability": "view"
		},
		{
			"type": "function",
			"name": "launchProjectFor",
			"inputs": [
				{
					"name": "owner",
					"type": "address",
					"internalType": "address"
				},
				{
					"name": "projectUri",
					"type": "string",
					"internalType": "string"
				},
				{
					"name": "rulesetConfigurations",
					"type": "tuple[]",
					"internalType": "struct JBRulesetConfig[]",
					"components": [
						{
							"name": "mustStartAtOrAfter",
							"type": "uint48",
							"internalType": "uint48"
						},
						{
							"name": "duration",
							"type": "uint32",
							"internalType": "uint32"
						},
						{
							"name": "weight",
							"type": "uint112",
							"internalType": "uint112"
						},
						{
							"name": "weightCutPercent",
							"type": "uint32",
							"internalType": "uint32"
						},
						{
							"name": "approvalHook",
							"type": "address",
							"internalType": "contract IJBRulesetApprovalHook"
						},
						{
							"name": "metadata",
							"type": "tuple",
							"internalType": "struct JBRulesetMetadata",
							"components": [
								{
									"name": "reservedPercent",
									"type": "uint16",
									"internalType": "uint16"
								},
								{
									"name": "cashOutTaxRate",
									"type": "uint16",
									"internalType": "uint16"
								},
								{
									"name": "baseCurrency",
									"type": "uint32",
									"internalType": "uint32"
								},
								{
									"name": "pausePay",
									"type": "bool",
									"internalType": "bool"
								},
								{
									"name": "pauseCreditTransfers",
									"type": "bool",
									"internalType": "bool"
								},
								{
									"name": "allowOwnerMinting",
									"type": "bool",
									"internalType": "bool"
								},
								{
									"name": "allowSetCustomToken",
									"type": "bool",
									"internalType": "bool"
								},
								{
									"name": "allowTerminalMigration",
									"type": "bool",
									"internalType": "bool"
								},
								{
									"name": "allowSetTerminals",
									"type": "bool",
									"internalType": "bool"
								},
								{
									"name": "allowSetController",
									"type": "bool",
									"internalType": "bool"
								},
								{
									"name": "allowAddAccountingContext",
									"type": "bool",
									"internalType": "bool"
								},
								{
									"name": "allowAddPriceFeed",
									"type": "bool",
									"internalType": "bool"
								},
								{
									"name": "ownerMustSendPayouts",
									"type": "bool",
									"internalType": "bool"
								},
								{
									"name": "holdFees",
									"type": "bool",
									"internalType": "bool"
								},
								{
									"name": "useTotalSurplusForCashOuts",
									"type": "bool",
									"internalType": "bool"
								},
								{
									"name": "useDataHookForPay",
									"type": "bool",
									"internalType": "bool"
								},
								{
									"name": "useDataHookForCashOut",
									"type": "bool",
									"internalType": "bool"
								},
								{
									"name": "dataHook",
									"type": "address",
									"internalType": "address"
								},
								{
									"name": "metadata",
									"type": "uint16",
									"internalType": "uint16"
								}
							]
						},
						{
							"name": "splitGroups",
							"type": "tuple[]",
							"internalType": "struct JBSplitGroup[]",
							"components": [
								{
									"name": "groupId",
									"type": "uint256",
									"internalType": "uint256"
								},
								{
									"name": "splits",
									"type": "tuple[]",
									"internalType": "struct JBSplit[]",
									"components": [
										{
											"name": "preferAddToBalance",
											"type": "bool",
											"internalType": "bool"
										},
										{
											"name": "percent",
											"type": "uint32",
											"internalType": "uint32"
										},
										{
											"name": "projectId",
											"type": "uint56",
											"internalType": "uint56"
										},
										{
											"name": "beneficiary",
											"type": "address",
											"internalType": "address payable"
										},
										{
											"name": "lockedUntil",
											"type": "uint48",
											"internalType": "uint48"
										},
										{
											"name": "hook",
											"type": "address",
											"internalType": "contract IJBSplitHook"
										}
									]
								}
							]
						},
						{
							"name": "fundAccessLimitGroups",
							"type": "tuple[]",
							"internalType": "struct JBFundAccessLimitGroup[]",
							"components": [
								{
									"name": "terminal",
									"type": "address",
									"internalType": "address"
								},
								{
									"name": "token",
									"type": "address",
									"internalType": "address"
								},
								{
									"name": "payoutLimits",
									"type": "tuple[]",
									"internalType": "struct JBCurrencyAmount[]",
									"components": [
										{
											"name": "amount",
											"type": "uint224",
											"internalType": "uint224"
										},
										{
											"name": "currency",
											"type": "uint32",
											"internalType": "uint32"
										}
									]
								},
								{
									"name": "surplusAllowances",
									"type": "tuple[]",
									"internalType": "struct JBCurrencyAmount[]",
									"components": [
										{
											"name": "amount",
											"type": "uint224",
											"internalType": "uint224"
										},
										{
											"name": "currency",
											"type": "uint32",
											"internalType": "uint32"
										}
									]
								}
							]
						}
					]
				},
				{
					"name": "terminalConfigurations",
					"type": "tuple[]",
					"internalType": "struct JBTerminalConfig[]",
					"components": [
						{
							"name": "terminal",
							"type": "address",
							"internalType": "contract IJBTerminal"
						},
						{
							"name": "accountingContextsToAccept",
							"type": "tuple[]",
							"internalType": "struct JBAccountingContext[]",
							"components": [
								{
									"name": "token",
									"type": "address",
									"internalType": "address"
								},
								{
									"name": "decimals",
									"type": "uint8",
									"internalType": "uint8"
								},
								{
									"name": "currency",
									"type": "uint32",
									"internalType": "uint32"
								}
							]
						}
					]
				},
				{
					"name": "memo",
					"type": "string",
					"internalType": "string"
				}
			],
			"outputs": [
				{
					"name": "projectId",
					"type": "uint256",
					"internalType": "uint256"
				}
			],
			"stateMutability": "nonpayable"
		},
		{
			"type": "function",
			"name": "launchRulesetsFor",
			"inputs": [
				{
					"name": "projectId",
					"type": "uint256",
					"internalType": "uint256"
				},
				{
					"name": "rulesetConfigurations",
					"type": "tuple[]",
					"internalType": "struct JBRulesetConfig[]",
					"components": [
						{
							"name": "mustStartAtOrAfter",
							"type": "uint48",
							"internalType": "uint48"
						},
						{
							"name": "duration",
							"type": "uint32",
							"internalType": "uint32"
						},
						{
							"name": "weight",
							"type": "uint112",
							"internalType": "uint112"
						},
						{
							"name": "weightCutPercent",
							"type": "uint32",
							"internalType": "uint32"
						},
						{
							"name": "approvalHook",
							"type": "address",
							"internalType": "contract IJBRulesetApprovalHook"
						},
						{
							"name": "metadata",
							"type": "tuple",
							"internalType": "struct JBRulesetMetadata",
							"components": [
								{
									"name": "reservedPercent",
									"type": "uint16",
									"internalType": "uint16"
								},
								{
									"name": "cashOutTaxRate",
									"type": "uint16",
									"internalType": "uint16"
								},
								{
									"name": "baseCurrency",
									"type": "uint32",
									"internalType": "uint32"
								},
								{
									"name": "pausePay",
									"type": "bool",
									"internalType": "bool"
								},
								{
									"name": "pauseCreditTransfers",
									"type": "bool",
									"internalType": "bool"
								},
								{
									"name": "allowOwnerMinting",
									"type": "bool",
									"internalType": "bool"
								},
								{
									"name": "allowSetCustomToken",
									"type": "bool",
									"internalType": "bool"
								},
								{
									"name": "allowTerminalMigration",
									"type": "bool",
									"internalType": "bool"
								},
								{
									"name": "allowSetTerminals",
									"type": "bool",
									"internalType": "bool"
								},
								{
									"name": "allowSetController",
									"type": "bool",
									"internalType": "bool"
								},
								{
									"name": "allowAddAccountingContext",
									"type": "bool",
									"internalType": "bool"
								},
								{
									"name": "allowAddPriceFeed",
									"type": "bool",
									"internalType": "bool"
								},
								{
									"name": "ownerMustSendPayouts",
									"type": "bool",
									"internalType": "bool"
								},
								{
									"name": "holdFees",
									"type": "bool",
									"internalType": "bool"
								},
								{
									"name": "useTotalSurplusForCashOuts",
									"type": "bool",
									"internalType": "bool"
								},
								{
									"name": "useDataHookForPay",
									"type": "bool",
									"internalType": "bool"
								},
								{
									"name": "useDataHookForCashOut",
									"type": "bool",
									"internalType": "bool"
								},
								{
									"name": "dataHook",
									"type": "address",
									"internalType": "address"
								},
								{
									"name": "metadata",
									"type": "uint16",
									"internalType": "uint16"
								}
							]
						},
						{
							"name": "splitGroups",
							"type": "tuple[]",
							"internalType": "struct JBSplitGroup[]",
							"components": [
								{
									"name": "groupId",
									"type": "uint256",
									"internalType": "uint256"
								},
								{
									"name": "splits",
									"type": "tuple[]",
									"internalType": "struct JBSplit[]",
									"components": [
										{
											"name": "preferAddToBalance",
											"type": "bool",
											"internalType": "bool"
										},
										{
											"name": "percent",
											"type": "uint32",
											"internalType": "uint32"
										},
										{
											"name": "projectId",
											"type": "uint56",
											"internalType": "uint56"
										},
										{
											"name": "beneficiary",
											"type": "address",
											"internalType": "address payable"
										},
										{
											"name": "lockedUntil",
											"type": "uint48",
											"internalType": "uint48"
										},
										{
											"name": "hook",
											"type": "address",
											"internalType": "contract IJBSplitHook"
										}
									]
								}
							]
						},
						{
							"name": "fundAccessLimitGroups",
							"type": "tuple[]",
							"internalType": "struct JBFundAccessLimitGroup[]",
							"components": [
								{
									"name": "terminal",
									"type": "address",
									"internalType": "address"
								},
								{
									"name": "token",
									"type": "address",
									"internalType": "address"
								},
								{
									"name": "payoutLimits",
									"type": "tuple[]",
									"internalType": "struct JBCurrencyAmount[]",
									"components": [
										{
											"name": "amount",
											"type": "uint224",
											"internalType": "uint224"
										},
										{
											"name": "currency",
											"type": "uint32",
											"internalType": "uint32"
										}
									]
								},
								{
									"name": "surplusAllowances",
									"type": "tuple[]",
									"internalType": "struct JBCurrencyAmount[]",
									"components": [
										{
											"name": "amount",
											"type": "uint224",
											"internalType": "uint224"
										},
										{
											"name": "currency",
											"type": "uint32",
											"internalType": "uint32"
										}
									]
								}
							]
						}
					]
				},
				{
					"name": "terminalConfigurations",
					"type": "tuple[]",
					"internalType": "struct JBTerminalConfig[]",
					"components": [
						{
							"name": "terminal",
							"type": "address",
							"internalType": "contract IJBTerminal"
						},
						{
							"name": "accountingContextsToAccept",
							"type": "tuple[]",
							"internalType": "struct JBAccountingContext[]",
							"components": [
								{
									"name": "token",
									"type": "address",
									"internalType": "address"
								},
								{
									"name": "decimals",
									"type": "uint8",
									"internalType": "uint8"
								},
								{
									"name": "currency",
									"type": "uint32",
									"internalType": "uint32"
								}
							]
						}
					]
				},
				{
					"name": "memo",
					"type": "string",
					"internalType": "string"
				}
			],
			"outputs": [
				{
					"name": "rulesetId",
					"type": "uint256",
					"internalType": "uint256"
				}
			],
			"stateMutability": "nonpayable"
		},
		{
			"type": "function",
			"name": "migrate",
			"inputs": [
				{
					"name": "projectId",
					"type": "uint256",
					"internalType": "uint256"
				},
				{
					"name": "to",
					"type": "address",
					"internalType": "contract IERC165"
				}
			],
			"outputs": [],
			"stateMutability": "nonpayable"
		},
		{
			"type": "function",
			"name": "mintTokensOf",
			"inputs": [
				{
					"name": "projectId",
					"type": "uint256",
					"internalType": "uint256"
				},
				{
					"name": "tokenCount",
					"type": "uint256",
					"internalType": "uint256"
				},
				{
					"name": "beneficiary",
					"type": "address",
					"internalType": "address"
				},
				{
					"name": "memo",
					"type": "string",
					"internalType": "string"
				},
				{
					"name": "useReservedPercent",
					"type": "bool",
					"internalType": "bool"
				}
			],
			"outputs": [
				{
					"name": "beneficiaryTokenCount",
					"type": "uint256",
					"internalType": "uint256"
				}
			],
			"stateMutability": "nonpayable"
		},
		{
			"type": "function",
			"name": "pendingReservedTokenBalanceOf",
			"inputs": [
				{
					"name": "projectId",
					"type": "uint256",
					"internalType": "uint256"
				}
			],
			"outputs": [
				{
					"name": "",
					"type": "uint256",
					"internalType": "uint256"
				}
			],
			"stateMutability": "view"
		},
		{
			"type": "function",
			"name": "queueRulesetsOf",
			"inputs": [
				{
					"name": "projectId",
					"type": "uint256",
					"internalType": "uint256"
				},
				{
					"name": "rulesetConfigurations",
					"type": "tuple[]",
					"internalType": "struct JBRulesetConfig[]",
					"components": [
						{
							"name": "mustStartAtOrAfter",
							"type": "uint48",
							"internalType": "uint48"
						},
						{
							"name": "duration",
							"type": "uint32",
							"internalType": "uint32"
						},
						{
							"name": "weight",
							"type": "uint112",
							"internalType": "uint112"
						},
						{
							"name": "weightCutPercent",
							"type": "uint32",
							"internalType": "uint32"
						},
						{
							"name": "approvalHook",
							"type": "address",
							"internalType": "contract IJBRulesetApprovalHook"
						},
						{
							"name": "metadata",
							"type": "tuple",
							"internalType": "struct JBRulesetMetadata",
							"components": [
								{
									"name": "reservedPercent",
									"type": "uint16",
									"internalType": "uint16"
								},
								{
									"name": "cashOutTaxRate",
									"type": "uint16",
									"internalType": "uint16"
								},
								{
									"name": "baseCurrency",
									"type": "uint32",
									"internalType": "uint32"
								},
								{
									"name": "pausePay",
									"type": "bool",
									"internalType": "bool"
								},
								{
									"name": "pauseCreditTransfers",
									"type": "bool",
									"internalType": "bool"
								},
								{
									"name": "allowOwnerMinting",
									"type": "bool",
									"internalType": "bool"
								},
								{
									"name": "allowSetCustomToken",
									"type": "bool",
									"internalType": "bool"
								},
								{
									"name": "allowTerminalMigration",
									"type": "bool",
									"internalType": "bool"
								},
								{
									"name": "allowSetTerminals",
									"type": "bool",
									"internalType": "bool"
								},
								{
									"name": "allowSetController",
									"type": "bool",
									"internalType": "bool"
								},
								{
									"name": "allowAddAccountingContext",
									"type": "bool",
									"internalType": "bool"
								},
								{
									"name": "allowAddPriceFeed",
									"type": "bool",
									"internalType": "bool"
								},
								{
									"name": "ownerMustSendPayouts",
									"type": "bool",
									"internalType": "bool"
								},
								{
									"name": "holdFees",
									"type": "bool",
									"internalType": "bool"
								},
								{
									"name": "useTotalSurplusForCashOuts",
									"type": "bool",
									"internalType": "bool"
								},
								{
									"name": "useDataHookForPay",
									"type": "bool",
									"internalType": "bool"
								},
								{
									"name": "useDataHookForCashOut",
									"type": "bool",
									"internalType": "bool"
								},
								{
									"name": "dataHook",
									"type": "address",
									"internalType": "address"
								},
								{
									"name": "metadata",
									"type": "uint16",
									"internalType": "uint16"
								}
							]
						},
						{
							"name": "splitGroups",
							"type": "tuple[]",
							"internalType": "struct JBSplitGroup[]",
							"components": [
								{
									"name": "groupId",
									"type": "uint256",
									"internalType": "uint256"
								},
								{
									"name": "splits",
									"type": "tuple[]",
									"internalType": "struct JBSplit[]",
									"components": [
										{
											"name": "preferAddToBalance",
											"type": "bool",
											"internalType": "bool"
										},
										{
											"name": "percent",
											"type": "uint32",
											"internalType": "uint32"
										},
										{
											"name": "projectId",
											"type": "uint56",
											"internalType": "uint56"
										},
										{
											"name": "beneficiary",
											"type": "address",
											"internalType": "address payable"
										},
										{
											"name": "lockedUntil",
											"type": "uint48",
											"internalType": "uint48"
										},
										{
											"name": "hook",
											"type": "address",
											"internalType": "contract IJBSplitHook"
										}
									]
								}
							]
						},
						{
							"name": "fundAccessLimitGroups",
							"type": "tuple[]",
							"internalType": "struct JBFundAccessLimitGroup[]",
							"components": [
								{
									"name": "terminal",
									"type": "address",
									"internalType": "address"
								},
								{
									"name": "token",
									"type": "address",
									"internalType": "address"
								},
								{
									"name": "payoutLimits",
									"type": "tuple[]",
									"internalType": "struct JBCurrencyAmount[]",
									"components": [
										{
											"name": "amount",
											"type": "uint224",
											"internalType": "uint224"
										},
										{
											"name": "currency",
											"type": "uint32",
											"internalType": "uint32"
										}
									]
								},
								{
									"name": "surplusAllowances",
									"type": "tuple[]",
									"internalType": "struct JBCurrencyAmount[]",
									"components": [
										{
											"name": "amount",
											"type": "uint224",
											"internalType": "uint224"
										},
										{
											"name": "currency",
											"type": "uint32",
											"internalType": "uint32"
										}
									]
								}
							]
						}
					]
				},
				{
					"name": "memo",
					"type": "string",
					"internalType": "string"
				}
			],
			"outputs": [
				{
					"name": "rulesetId",
					"type": "uint256",
					"internalType": "uint256"
				}
			],
			"stateMutability": "nonpayable"
		},
		{
			"type": "function",
			"name": "receiveMigrationFrom",
			"inputs": [
				{
					"name": "from",
					"type": "address",
					"internalType": "contract IERC165"
				},
				{
					"name": "projectId",
					"type": "uint256",
					"internalType": "uint256"
				}
			],
			"outputs": [],
			"stateMutability": "nonpayable"
		},
		{
			"type": "function",
			"name": "sendReservedTokensToSplitsOf",
			"inputs": [
				{
					"name": "projectId",
					"type": "uint256",
					"internalType": "uint256"
				}
			],
			"outputs": [
				{
					"name": "",
					"type": "uint256",
					"internalType": "uint256"
				}
			],
			"stateMutability": "nonpayable"
		},
		{
			"type": "function",
			"name": "setControllerAllowed",
			"inputs": [
				{
					"name": "projectId",
					"type": "uint256",
					"internalType": "uint256"
				}
			],
			"outputs": [
				{
					"name": "",
					"type": "bool",
					"internalType": "bool"
				}
			],
			"stateMutability": "view"
		},
		{
			"type": "function",
			"name": "setSplitGroupsOf",
			"inputs": [
				{
					"name": "projectId",
					"type": "uint256",
					"internalType": "uint256"
				},
				{
					"name": "rulesetId",
					"type": "uint256",
					"internalType": "uint256"
				},
				{
					"name": "splitGroups",
					"type": "tuple[]",
					"internalType": "struct JBSplitGroup[]",
					"components": [
						{
							"name": "groupId",
							"type": "uint256",
							"internalType": "uint256"
						},
						{
							"name": "splits",
							"type": "tuple[]",
							"internalType": "struct JBSplit[]",
							"components": [
								{
									"name": "preferAddToBalance",
									"type": "bool",
									"internalType": "bool"
								},
								{
									"name": "percent",
									"type": "uint32",
									"internalType": "uint32"
								},
								{
									"name": "projectId",
									"type": "uint56",
									"internalType": "uint56"
								},
								{
									"name": "beneficiary",
									"type": "address",
									"internalType": "address payable"
								},
								{
									"name": "lockedUntil",
									"type": "uint48",
									"internalType": "uint48"
								},
								{
									"name": "hook",
									"type": "address",
									"internalType": "contract IJBSplitHook"
								}
							]
						}
					]
				}
			],
			"outputs": [],
			"stateMutability": "nonpayable"
		},
		{
			"type": "function",
			"name": "setTerminalsAllowed",
			"inputs": [
				{
					"name": "projectId",
					"type": "uint256",
					"internalType": "uint256"
				}
			],
			"outputs": [
				{
					"name": "",
					"type": "bool",
					"internalType": "bool"
				}
			],
			"stateMutability": "view"
		},
		{
			"type": "function",
			"name": "setTokenFor",
			"inputs": [
				{
					"name": "projectId",
					"type": "uint256",
					"internalType": "uint256"
				},
				{
					"name": "token",
					"type": "address",
					"internalType": "contract IJBToken"
				}
			],
			"outputs": [],
			"stateMutability": "nonpayable"
		},
		{
			"type": "function",
			"name": "setUriOf",
			"inputs": [
				{
					"name": "projectId",
					"type": "uint256",
					"internalType": "uint256"
				},
				{
					"name": "uri",
					"type": "string",
					"internalType": "string"
				}
			],
			"outputs": [],
			"stateMutability": "nonpayable"
		},
		{
			"type": "function",
			"name": "supportsInterface",
			"inputs": [
				{
					"name": "interfaceId",
					"type": "bytes4",
					"internalType": "bytes4"
				}
			],
			"outputs": [
				{
					"name": "",
					"type": "bool",
					"internalType": "bool"
				}
			],
			"stateMutability": "pure"
		},
		{
			"type": "function",
			"name": "totalTokenSupplyWithReservedTokensOf",
			"inputs": [
				{
					"name": "projectId",
					"type": "uint256",
					"internalType": "uint256"
				}
			],
			"outputs": [
				{
					"name": "",
					"type": "uint256",
					"internalType": "uint256"
				}
			],
			"stateMutability": "view"
		},
		{
			"type": "function",
			"name": "transferCreditsFrom",
			"inputs": [
				{
					"name": "holder",
					"type": "address",
					"internalType": "address"
				},
				{
					"name": "projectId",
					"type": "uint256",
					"internalType": "uint256"
				},
				{
					"name": "recipient",
					"type": "address",
					"internalType": "address"
				},
				{
					"name": "creditCount",
					"type": "uint256",
					"internalType": "uint256"
				}
			],
			"outputs": [],
			"stateMutability": "nonpayable"
		},
		{
			"type": "function",
			"name": "trustedForwarder",
			"inputs": [],
			"outputs": [
				{
					"name": "",
					"type": "address",
					"internalType": "address"
				}
			],
			"stateMutability": "view"
		},
		{
			"type": "function",
			"name": "upcomingRulesetOf",
			"inputs": [
				{
					"name": "projectId",
					"type": "uint256",
					"internalType": "uint256"
				}
			],
			"outputs": [
				{
					"name": "ruleset",
					"type": "tuple",
					"internalType": "struct JBRuleset",
					"components": [
						{
							"name": "cycleNumber",
							"type": "uint48",
							"internalType": "uint48"
						},
						{
							"name": "id",
							"type": "uint48",
							"internalType": "uint48"
						},
						{
							"name": "basedOnId",
							"type": "uint48",
							"internalType": "uint48"
						},
						{
							"name": "start",
							"type": "uint48",
							"internalType": "uint48"
						},
						{
							"name": "duration",
							"type": "uint32",
							"internalType": "uint32"
						},
						{
							"name": "weight",
							"type": "uint112",
							"internalType": "uint112"
						},
						{
							"name": "weightCutPercent",
							"type": "uint32",
							"internalType": "uint32"
						},
						{
							"name": "approvalHook",
							"type": "address",
							"internalType": "contract IJBRulesetApprovalHook"
						},
						{
							"name": "metadata",
							"type": "uint256",
							"internalType": "uint256"
						}
					]
				},
				{
					"name": "metadata",
					"type": "tuple",
					"internalType": "struct JBRulesetMetadata",
					"components": [
						{
							"name": "reservedPercent",
							"type": "uint16",
							"internalType": "uint16"
						},
						{
							"name": "cashOutTaxRate",
							"type": "uint16",
							"internalType": "uint16"
						},
						{
							"name": "baseCurrency",
							"type": "uint32",
							"internalType": "uint32"
						},
						{
							"name": "pausePay",
							"type": "bool",
							"internalType": "bool"
						},
						{
							"name": "pauseCreditTransfers",
							"type": "bool",
							"internalType": "bool"
						},
						{
							"name": "allowOwnerMinting",
							"type": "bool",
							"internalType": "bool"
						},
						{
							"name": "allowSetCustomToken",
							"type": "bool",
							"internalType": "bool"
						},
						{
							"name": "allowTerminalMigration",
							"type": "bool",
							"internalType": "bool"
						},
						{
							"name": "allowSetTerminals",
							"type": "bool",
							"internalType": "bool"
						},
						{
							"name": "allowSetController",
							"type": "bool",
							"internalType": "bool"
						},
						{
							"name": "allowAddAccountingContext",
							"type": "bool",
							"internalType": "bool"
						},
						{
							"name": "allowAddPriceFeed",
							"type": "bool",
							"internalType": "bool"
						},
						{
							"name": "ownerMustSendPayouts",
							"type": "bool",
							"internalType": "bool"
						},
						{
							"name": "holdFees",
							"type": "bool",
							"internalType": "bool"
						},
						{
							"name": "useTotalSurplusForCashOuts",
							"type": "bool",
							"internalType": "bool"
						},
						{
							"name": "useDataHookForPay",
							"type": "bool",
							"internalType": "bool"
						},
						{
							"name": "useDataHookForCashOut",
							"type": "bool",
							"internalType": "bool"
						},
						{
							"name": "dataHook",
							"type": "address",
							"internalType": "address"
						},
						{
							"name": "metadata",
							"type": "uint16",
							"internalType": "uint16"
						}
					]
				}
			],
			"stateMutability": "view"
		},
		{
			"type": "function",
			"name": "uriOf",
			"inputs": [
				{
					"name": "projectId",
					"type": "uint256",
					"internalType": "uint256"
				}
			],
			"outputs": [
				{
					"name": "",
					"type": "string",
					"internalType": "string"
				}
			],
			"stateMutability": "view"
		},
		{
			"type": "event",
			"name": "BurnTokens",
			"inputs": [
				{
					"name": "holder",
					"type": "address",
					"indexed": true,
					"internalType": "address"
				},
				{
					"name": "projectId",
					"type": "uint256",
					"indexed": true,
					"internalType": "uint256"
				},
				{
					"name": "tokenCount",
					"type": "uint256",
					"indexed": false,
					"internalType": "uint256"
				},
				{
					"name": "memo",
					"type": "string",
					"indexed": false,
					"internalType": "string"
				},
				{
					"name": "caller",
					"type": "address",
					"indexed": false,
					"internalType": "address"
				}
			],
			"anonymous": false
		},
		{
			"type": "event",
			"name": "LaunchProject",
			"inputs": [
				{
					"name": "rulesetId",
					"type": "uint256",
					"indexed": false,
					"internalType": "uint256"
				},
				{
					"name": "projectId",
					"type": "uint256",
					"indexed": false,
					"internalType": "uint256"
				},
				{
					"name": "projectUri",
					"type": "string",
					"indexed": false,
					"internalType": "string"
				},
				{
					"name": "memo",
					"type": "string",
					"indexed": false,
					"internalType": "string"
				},
				{
					"name": "caller",
					"type": "address",
					"indexed": false,
					"internalType": "address"
				}
			],
			"anonymous": false
		},
		{
			"type": "event",
			"name": "LaunchRulesets",
			"inputs": [
				{
					"name": "rulesetId",
					"type": "uint256",
					"indexed": false,
					"internalType": "uint256"
				},
				{
					"name": "projectId",
					"type": "uint256",
					"indexed": false,
					"internalType": "uint256"
				},
				{
					"name": "memo",
					"type": "string",
					"indexed": false,
					"internalType": "string"
				},
				{
					"name": "caller",
					"type": "address",
					"indexed": false,
					"internalType": "address"
				}
			],
			"anonymous": false
		},
		{
			"type": "event",
			"name": "Migrate",
			"inputs": [
				{
					"name": "projectId",
					"type": "uint256",
					"indexed": true,
					"internalType": "uint256"
				},
				{
					"name": "to",
					"type": "address",
					"indexed": false,
					"internalType": "contract IERC165"
				},
				{
					"name": "caller",
					"type": "address",
					"indexed": false,
					"internalType": "address"
				}
			],
			"anonymous": false
		},
		{
			"type": "event",
			"name": "MintTokens",
			"inputs": [
				{
					"name": "beneficiary",
					"type": "address",
					"indexed": true,
					"internalType": "address"
				},
				{
					"name": "projectId",
					"type": "uint256",
					"indexed": true,
					"internalType": "uint256"
				},
				{
					"name": "tokenCount",
					"type": "uint256",
					"indexed": false,
					"internalType": "uint256"
				},
				{
					"name": "beneficiaryTokenCount",
					"type": "uint256",
					"indexed": false,
					"internalType": "uint256"
				},
				{
					"name": "memo",
					"type": "string",
					"indexed": false,
					"internalType": "string"
				},
				{
					"name": "reservedPercent",
					"type": "uint256",
					"indexed": false,
					"internalType": "uint256"
				},
				{
					"name": "caller",
					"type": "address",
					"indexed": false,
					"internalType": "address"
				}
			],
			"anonymous": false
		},
		{
			"type": "event",
			"name": "PrepMigration",
			"inputs": [
				{
					"name": "projectId",
					"type": "uint256",
					"indexed": true,
					"internalType": "uint256"
				},
				{
					"name": "from",
					"type": "address",
					"indexed": false,
					"internalType": "address"
				},
				{
					"name": "caller",
					"type": "address",
					"indexed": false,
					"internalType": "address"
				}
			],
			"anonymous": false
		},
		{
			"type": "event",
			"name": "QueueRulesets",
			"inputs": [
				{
					"name": "rulesetId",
					"type": "uint256",
					"indexed": false,
					"internalType": "uint256"
				},
				{
					"name": "projectId",
					"type": "uint256",
					"indexed": false,
					"internalType": "uint256"
				},
				{
					"name": "memo",
					"type": "string",
					"indexed": false,
					"internalType": "string"
				},
				{
					"name": "caller",
					"type": "address",
					"indexed": false,
					"internalType": "address"
				}
			],
			"anonymous": false
		},
		{
			"type": "event",
			"name": "ReservedDistributionReverted",
			"inputs": [
				{
					"name": "projectId",
					"type": "uint256",
					"indexed": true,
					"internalType": "uint256"
				},
				{
					"name": "split",
					"type": "tuple",
					"indexed": false,
					"internalType": "struct JBSplit",
					"components": [
						{
							"name": "preferAddToBalance",
							"type": "bool",
							"internalType": "bool"
						},
						{
							"name": "percent",
							"type": "uint32",
							"internalType": "uint32"
						},
						{
							"name": "projectId",
							"type": "uint56",
							"internalType": "uint56"
						},
						{
							"name": "beneficiary",
							"type": "address",
							"internalType": "address payable"
						},
						{
							"name": "lockedUntil",
							"type": "uint48",
							"internalType": "uint48"
						},
						{
							"name": "hook",
							"type": "address",
							"internalType": "contract IJBSplitHook"
						}
					]
				},
				{
					"name": "tokenCount",
					"type": "uint256",
					"indexed": false,
					"internalType": "uint256"
				},
				{
					"name": "reason",
					"type": "bytes",
					"indexed": false,
					"internalType": "bytes"
				},
				{
					"name": "caller",
					"type": "address",
					"indexed": false,
					"internalType": "address"
				}
			],
			"anonymous": false
		},
		{
			"type": "event",
			"name": "SendReservedTokensToSplit",
			"inputs": [
				{
					"name": "projectId",
					"type": "uint256",
					"indexed": true,
					"internalType": "uint256"
				},
				{
					"name": "rulesetId",
					"type": "uint256",
					"indexed": true,
					"internalType": "uint256"
				},
				{
					"name": "groupId",
					"type": "uint256",
					"indexed": true,
					"internalType": "uint256"
				},
				{
					"name": "split",
					"type": "tuple",
					"indexed": false,
					"internalType": "struct JBSplit",
					"components": [
						{
							"name": "preferAddToBalance",
							"type": "bool",
							"internalType": "bool"
						},
						{
							"name": "percent",
							"type": "uint32",
							"internalType": "uint32"
						},
						{
							"name": "projectId",
							"type": "uint56",
							"internalType": "uint56"
						},
						{
							"name": "beneficiary",
							"type": "address",
							"internalType": "address payable"
						},
						{
							"name": "lockedUntil",
							"type": "uint48",
							"internalType": "uint48"
						},
						{
							"name": "hook",
							"type": "address",
							"internalType": "contract IJBSplitHook"
						}
					]
				},
				{
					"name": "tokenCount",
					"type": "uint256",
					"indexed": false,
					"internalType": "uint256"
				},
				{
					"name": "caller",
					"type": "address",
					"indexed": false,
					"internalType": "address"
				}
			],
			"anonymous": false
		},
		{
			"type": "event",
			"name": "SendReservedTokensToSplits",
			"inputs": [
				{
					"name": "rulesetId",
					"type": "uint256",
					"indexed": true,
					"internalType": "uint256"
				},
				{
					"name": "rulesetCycleNumber",
					"type": "uint256",
					"indexed": true,
					"internalType": "uint256"
				},
				{
					"name": "projectId",
					"type": "uint256",
					"indexed": true,
					"internalType": "uint256"
				},
				{
					"name": "owner",
					"type": "address",
					"indexed": false,
					"internalType": "address"
				},
				{
					"name": "tokenCount",
					"type": "uint256",
					"indexed": false,
					"internalType": "uint256"
				},
				{
					"name": "leftoverAmount",
					"type": "uint256",
					"indexed": false,
					"internalType": "uint256"
				},
				{
					"name": "caller",
					"type": "address",
					"indexed": false,
					"internalType": "address"
				}
			],
			"anonymous": false
		},
		{
			"type": "event",
			"name": "SetUri",
			"inputs": [
				{
					"name": "projectId",
					"type": "uint256",
					"indexed": true,
					"internalType": "uint256"
				},
				{
					"name": "uri",
					"type": "string",
					"indexed": false,
					"internalType": "string"
				},
				{
					"name": "caller",
					"type": "address",
					"indexed": false,
					"internalType": "address"
				}
			],
			"anonymous": false
		},
		{
			"type": "error",
			"name": "JBController_AddingPriceFeedNotAllowed",
			"inputs": []
		},
		{
			"type": "error",
			"name": "JBController_CreditTransfersPaused",
			"inputs": []
		},
		{
			"type": "error",
			"name": "JBController_InvalidCashOutTaxRate",
			"inputs": [
				{
					"name": "rate",
					"type": "uint256",
					"internalType": "uint256"
				},
				{
					"name": "limit",
					"type": "uint256",
					"internalType": "uint256"
				}
			]
		},
		{
			"type": "error",
			"name": "JBController_InvalidReservedPercent",
			"inputs": [
				{
					"name": "percent",
					"type": "uint256",
					"internalType": "uint256"
				},
				{
					"name": "limit",
					"type": "uint256",
					"internalType": "uint256"
				}
			]
		},
		{
			"type": "error",
			"name": "JBController_MintNotAllowedAndNotTerminalOrHook",
			"inputs": []
		},
		{
			"type": "error",
			"name": "JBController_NoReservedTokens",
			"inputs": []
		},
		{
			"type": "error",
			"name": "JBController_OnlyDirectory",
			"inputs": [
				{
					"name": "sender",
					"type": "address",
					"internalType": "address"
				},
				{
					"name": "directory",
					"type": "address",
					"internalType": "contract IJBDirectory"
				}
			]
		},
		{
			"type": "error",
			"name": "JBController_OnlyFromTargetTerminal",
			"inputs": [
				{
					"name": "sender",
					"type": "address",
					"internalType": "address"
				},
				{
					"name": "targetTerminal",
					"type": "address",
					"internalType": "address"
				}
			]
		},
		{
			"type": "error",
			"name": "JBController_RulesetSetTokenNotAllowed",
			"inputs": []
		},
		{
			"type": "error",
			"name": "JBController_RulesetsAlreadyLaunched",
			"inputs": []
		},
		{
			"type": "error",
			"name": "JBController_RulesetsArrayEmpty",
			"inputs": []
		},
		{
			"type": "error",
			"name": "JBController_ZeroTokensToBurn",
			"inputs": []
		},
		{
			"type": "error",
			"name": "JBController_ZeroTokensToMint",
			"inputs": []
		},
		{
			"type": "error",
			"name": "JBPermissioned_Unauthorized",
			"inputs": [
				{
					"name": "account",
					"type": "address",
					"internalType": "address"
				},
				{
					"name": "sender",
					"type": "address",
					"internalType": "address"
				},
				{
					"name": "projectId",
					"type": "uint256",
					"internalType": "uint256"
				},
				{
					"name": "permissionId",
					"type": "uint256",
					"internalType": "uint256"
				}
			]
		},
		{
			"type": "error",
			"name": "PRBMath_MulDiv_Overflow",
			"inputs": [
				{
					"name": "x",
					"type": "uint256",
					"internalType": "uint256"
				},
				{
					"name": "y",
					"type": "uint256",
					"internalType": "uint256"
				},
				{
					"name": "denominator",
					"type": "uint256",
					"internalType": "uint256"
				}
			]
		},
		{
			"type": "error",
			"name": "SafeERC20FailedOperation",
			"inputs": [
				{
					"name": "token",
					"type": "address",
					"internalType": "address"
				}
			]
		}
	],
	"solcInputHash": "b6c351fd96634234999dc102235e550e",
	"args": [
		"0x5ADb234602D074064C216C1fDB23c6c2031F0C75",
		"0x348B92CE8584332DF6272a348D4DDB14A5ec1DCC",
		"0x4886C30C81a17a3A1084fd1812008fA0f71a20B9",
		"0x8c88469cA3aA9dE6Ab22c5113Ae2A8E20329fd8c",
		"0x9B52A59F108e36cE0a8Eba595Eca22DbadbE655F",
		"0xC052725ff9888CE3148Aa8bFB5063f1a5028946D",
		"0x53A4354b7c6f83b0b2B7d559451a5180a410aB25",
		"0x94Db7C71D9E4bcDE99686bE9570C68BF12708D3e",
		"0xB2b5841DBeF766d4b521221732F9B618fCf34A87"
	],
	"bytecode": "0x6101a06040523480156200001257600080fd5b5060405162005f3938038062005f39833981016040819052620000359162000092565b6001600160a01b03968716608052861660a05296851660c05294841660e0529183166101005282166101205281166101405290811661016052166101805262000169565b6001600160a01b03811681146200008f57600080fd5b50565b60008060008060008060008060006101208a8c031215620000b257600080fd5b8951620000bf8162000079565b60208b0151909950620000d28162000079565b60408b0151909850620000e58162000079565b60608b0151909750620000f88162000079565b60808b01519096506200010b8162000079565b60a08b01519095506200011e8162000079565b60c08b0151909450620001318162000079565b60e08b0151909350620001448162000079565b6101008b0151909250620001588162000079565b809150509295985092959850929598565b60805160a05160c05160e0516101005161012051610140516101605161018051615c0f6200032a6000396000818161027a0152818161095701528181610bc401528181610eec015281816112a2015281816116e901528181611be701528181611ee10152818161229101528181613065015281816130e701528181613253015281816133a60152818161342d01526135ee0152600081816102e001528181611d9201528181612acf0152612f680152600081816105900152818161072701528181610fab015281816114f30152818161175a015281816126ee015281816129ae0152612cce015260008181610328015281816107c901528181610c6301528181610e0c01528181611103015281816113ca0152818161145f01528181611a3601528181611d0001528181611de701528181611f7e01526121d40152600081816102b901526108b201526000818161062a0152612b5601526000818161048f015281816109c501528181610a0701528181610d11015281816115a1015281816118b8015281816128a301528181612c2c015261330d0152600081816103ee01528181610466015261387d0152600081816105dd01526126240152615c0f6000f3fe608060405234801561001057600080fd5b50600436106102275760003560e01c80637da0a87711610130578063c1ec61ee116100b8578063f12b64a51161007c578063f12b64a5146105c5578063f434c914146105d8578063f905007a146105ff578063fb61b4e314610612578063ffa082441461062557600080fd5b8063c1ec61ee14610543578063c5b19b0e14610565578063c7fb92de14610578578063d4a1b4b11461058b578063ed115957146105b257600080fd5b8063a312889b116100ff578063a312889b146104d7578063b1a50e33146104f7578063b1d596851461050a578063b1e6d2a11461051d578063c02c63ad1461053057600080fd5b80637da0a8771461046457806388bc2ef31461048a57806399d25a34146104b1578063a2d532e6146104c457600080fd5b806339975571116101b35780634fb99a3f116101825780634fb99a3f146103cb578063572b6c05146103de578063581781911461041e5780636567b40614610431578063702a39771461045157600080fd5b80633997557114610372578063405b84fa1461039257806341929626146103a55780634da781a9146103b857600080fd5b80631f47ce69116101fa5780631f47ce69146102db57806325a61d5c14610302578063293c4999146103235780632fa902031461034a578063303f5dfa1461035f57600080fd5b806301ffc9a71461022c578063090db2f1146102545780631d831d5c146102755780631eabcd34146102b4575b600080fd5b61023f61023a366004613ae0565b61064c565b60405190151581526020015b60405180910390f35b610267610262366004613b0a565b6106ef565b60405190815260200161024b565b61029c7f000000000000000000000000000000000000000000000000000000000000000081565b6040516001600160a01b03909116815260200161024b565b61029c7f000000000000000000000000000000000000000000000000000000000000000081565b61029c7f000000000000000000000000000000000000000000000000000000000000000081565b610315610310366004613b23565b6106fa565b60405161024b929190613d2f565b61029c7f000000000000000000000000000000000000000000000000000000000000000081565b61035d610358366004613d64565b6107af565b005b61035d61036d366004613db5565b610916565b610267610380366004613b0a565b60006020819052908152604090205481565b61035d6103a0366004613df4565b6109ba565b6103156103b3366004613b0a565b610b74565b6102676103c6366004613b0a565b610b9f565b6102676103d9366004613eb0565b610c41565b61023f6103ec366004613f88565b7f00000000000000000000000000000000000000000000000000000000000000006001600160a01b0390811691161490565b61029c61042c366004613fa5565b610de7565b61044461043f366004614026565b610f79565b60405161024b9190614052565b61035d61045f3660046140b5565b6110e9565b7f000000000000000000000000000000000000000000000000000000000000000061029c565b61029c7f000000000000000000000000000000000000000000000000000000000000000081565b61023f6104bf366004613b0a565b6111e0565b61035d6104d2366004614100565b6111fe565b6104ea6104e5366004613b0a565b6112db565b60405161024b91906141b9565b61023f610505366004613b0a565b611375565b6102676105183660046141cc565b61138e565b61035d61052b36600461426f565b61166e565b61031561053e366004613b0a565b611718565b610556610551366004613b0a565b611731565b60405161024b939291906142b7565b61035d610573366004614301565b6117e5565b610267610586366004614346565b6119e2565b61029c7f000000000000000000000000000000000000000000000000000000000000000081565b61035d6105c03660046143c1565b611ce6565b61035d6105d3366004613df4565b611dcd565b61029c7f000000000000000000000000000000000000000000000000000000000000000081565b61026761060d366004614413565b611f42565b61035d61062036600461447b565b612055565b61029c7f000000000000000000000000000000000000000000000000000000000000000081565b60006001600160e01b0319821663635a894b60e01b148061067d57506001600160e01b031982166334ce2c7b60e21b145b8061069857506001600160e01b03198216632877540760e01b145b806106b357506001600160e01b0319821663217a87fd60e21b145b806106ce57506001600160e01b03198216633d0d324560e21b145b806106e957506001600160e01b031982166301ffc9a760e01b145b92915050565b60006106e98261216f565b6107026139d3565b61070a613a1f565b604051630969875760e21b815260048101859052602481018490527f00000000000000000000000000000000000000000000000000000000000000006001600160a01b0316906325a61d5c9060440161012060405180830381865afa158015610777573d6000803e3d6000fd5b505050506040513d601f19601f8201168201806040525081019061079b919061474b565b91506107a68261237e565b90509250929050565b6040516331a9108f60e11b815260048101859052610844907f00000000000000000000000000000000000000000000000000000000000000006001600160a01b031690636352211e90602401602060405180830381865afa158015610818573d6000803e3d6000fd5b505050506040513d601f19601f8201168201806040525081019061083c9190614768565b8560126125b8565b600061084f856126d0565b610100810151909150604c1c60019081161461087e576040516383d788ab60e01b815260040160405180910390fd5b60405163c6081d7160e01b81526004810186905260248101859052604481018490526001600160a01b0383811660648301527f0000000000000000000000000000000000000000000000000000000000000000169063c6081d71906084015b600060405180830381600087803b1580156108f757600080fd5b505af115801561090b573d6000803e3d6000fd5b505050505050505050565b6109228484600b6125b8565b60405163181faefd60e11b81526001600160a01b038581166004830152602482018590526044820184905282811660648301527f0000000000000000000000000000000000000000000000000000000000000000169063303f5dfa906084015b600060405180830381600087803b15801561099c57600080fd5b505af11580156109b0573d6000803e3d6000fd5b5050505050505050565b336001600160a01b037f00000000000000000000000000000000000000000000000000000000000000001614610a3957604051639653dbed60e01b81523360048201526001600160a01b037f00000000000000000000000000000000000000000000000000000000000000001660248201526044015b60405180910390fd5b604080516001600160a01b038316815233602082015283917f01f954abace731a88ab86e71186040cc2be49fe517ea06bc0d24f25b82b83456910160405180910390a260008281526020819052604090205415610a9b57610a998261216f565b505b6040516301ffc9a760e01b815263217a87fd60e21b60048201526001600160a01b038216906301ffc9a790602401602060405180830381865afa158015610ae6573d6000803e3d6000fd5b505050506040513d601f19601f82011682018060405250810190610b0a9190614785565b15610b70576040516362d8cd8760e11b8152306004820152602481018390526001600160a01b0382169063c5b19b0e90604401600060405180830381600087803b158015610b5757600080fd5b505af1158015610b6b573d6000803e3d6000fd5b505050505b5050565b610b7c6139d3565b610b84613a1f565b610b8d836126d0565b9150610b988261237e565b9050915091565b6000818152602081905260408082205490516375b0d9cd60e01b8152600481018490527f00000000000000000000000000000000000000000000000000000000000000006001600160a01b0316906375b0d9cd90602401602060405180830381865afa158015610c13573d6000803e3d6000fd5b505050506040513d601f19601f82011682018060405250810190610c3791906147a2565b6106e991906147d1565b60405163180e2b1160e31b81526001600160a01b038a811660048301526000917f00000000000000000000000000000000000000000000000000000000000000009091169063c0715888906024016020604051808303816000875af1158015610cae573d6000803e3d6000fd5b505050506040513d601f19601f82011682018060405250810190610cd291906147a2565b90508715610cf5576000818152600160205260409020610cf3898b83614866565b505b6040516338a73f9960e11b8152600481018290523060248201527f00000000000000000000000000000000000000000000000000000000000000006001600160a01b03169063714e7f3290604401600060405180830381600087803b158015610d5d57600080fd5b505af1158015610d71573d6000803e3d6000fd5b50505050610d80818686612763565b6000610d8d8289896128da565b90507f8dac501f24f52bda9ebdfa6a1789878c1d1e23823c771f7d52b5ba41261b0f4581838c8c8888610dbe612bf4565b604051610dd1979695949392919061494f565b60405180910390a1509998505050505050505050565b6040516331a9108f60e11b815260048101879052600090610e7f906001600160a01b037f00000000000000000000000000000000000000000000000000000000000000001690636352211e90602401602060405180830381865afa158015610e53573d6000803e3d6000fd5b505050506040513d601f19601f82011682018060405250810190610e779190614768565b8860076125b8565b8115610ed557610e8d612bf4565b82604051602001610ebc92919060609290921b6bffffffffffffffffffffffff19168252601482015260340190565b6040516020818303038152906040528051906020012091505b604051635817819160e01b81526001600160a01b037f00000000000000000000000000000000000000000000000000000000000000001690635817819190610f2b908a908a908a908a908a908a9060040161499f565b6020604051808303816000875af1158015610f4a573d6000803e3d6000fd5b505050506040513d601f19601f82011682018060405250810190610f6e9190614768565b979650505050505050565b6040516301fd03bb60e71b81526004810184905260248101839052604481018290526060906000906001600160a01b037f0000000000000000000000000000000000000000000000000000000000000000169063fe81dd8090606401600060405180830381865afa158015610ff2573d6000803e3d6000fd5b505050506040513d6000823e601f3d908101601f1916820160405261101a9190810190614a03565b8051909150806001600160401b03811115611037576110376144f6565b60405190808252806020026020018201604052801561107057816020015b61105d613abb565b8152602001906001900390816110555790505b50925060005b818110156110df57600083828151811061109257611092614aa8565b6020026020010151905060405180604001604052808281526020016110b68361237e565b8152508583815181106110cb576110cb614aa8565b602090810291909101015250600101611076565b5050509392505050565b6040516331a9108f60e11b81526004810184905261117e907f00000000000000000000000000000000000000000000000000000000000000006001600160a01b031690636352211e90602401602060405180830381865afa158015611152573d6000803e3d6000fd5b505050506040513d601f19601f820116820180604052508101906111769190614768565b8460066125b8565b6000838152600160205260409020611197828483614866565b50827f0f3d240fe5efaeda774d27bf0425f932ddd2098297b26de8070d6c8bef534b1683836111c4612bf4565b6040516111d393929190614abe565b60405180910390a2505050565b60006111f36111ee836126d0565b61237e565b610120015192915050565b61121b8585600a61121682611211612bf4565b612c03565b612ca0565b8260000361123c576040516346545c9960e11b815260040160405180910390fd5b83856001600160a01b03167fdf04e13ee4fcd48a81ab2fd114757093740a3efa9b6475d86e05878b4c59d079858585611273612bf4565b6040516112839493929190614aea565b60405180910390a360405163124d91e560e01b81526001600160a01b037f0000000000000000000000000000000000000000000000000000000000000000169063124d91e5906108dd90889088908890600401614b1d565b600160205260009081526040902080546112f4906147e4565b80601f0160208091040260200160405190810160405280929190818152602001828054611320906147e4565b801561136d5780601f106113425761010080835404028352916020019161136d565b820191906000526020600020905b81548152906001019060200180831161135057829003601f168201915b505050505081565b60006113836111ee836126d0565b610100015192915050565b60008581036113b057604051632b72d06560e01b815260040160405180910390fd5b6040516331a9108f60e11b815260048101899052611445907f00000000000000000000000000000000000000000000000000000000000000006001600160a01b031690636352211e90602401602060405180830381865afa158015611419573d6000803e3d6000fd5b505050506040513d601f19601f8201168201806040525081019061143d9190614768565b8960026125b8565b6040516331a9108f60e11b8152600481018990526114da907f00000000000000000000000000000000000000000000000000000000000000006001600160a01b031690636352211e90602401602060405180830381865afa1580156114ae573d6000803e3d6000fd5b505050506040513d601f19601f820116820180604052508101906114d29190614768565b89600e6125b8565b6040516319fade8560e11b8152600481018990526000907f00000000000000000000000000000000000000000000000000000000000000006001600160a01b0316906333f5bd0a90602401602060405180830381865afa158015611542573d6000803e3d6000fd5b505050506040513d601f19601f8201168201806040525081019061156691906147a2565b1115611585576040516319d957db60e01b815260040160405180910390fd5b6040516338a73f9960e11b8152600481018990523060248201527f00000000000000000000000000000000000000000000000000000000000000006001600160a01b03169063714e7f3290604401600060405180830381600087803b1580156115ed57600080fd5b505af1158015611601573d6000803e3d6000fd5b50505050611610888686612763565b61161b8888886128da565b90507f23164adda696b19106c2eef50ba44461997682bf5aeb9fdb383117fa9952cc758189858561164a612bf4565b60405161165b959493929190614b3e565b60405180910390a1979650505050505050565b61167a8484600c6125b8565b6000611685846126d0565b61010081015190915060451c6001908116036116b457604051636af4c57760e01b815260040160405180910390fd5b60405163b1e6d2a160e01b81526001600160a01b038681166004830152602482018690528481166044830152606482018490527f0000000000000000000000000000000000000000000000000000000000000000169063b1e6d2a1906084016108dd565b6117206139d3565b611728613a1f565b610b8d83612cb0565b6117396139d3565b611741613a1f565b60405163855a54ed60e01b8152600481018490526000907f00000000000000000000000000000000000000000000000000000000000000006001600160a01b03169063855a54ed9060240161014060405180830381865afa1580156117aa573d6000803e3d6000fd5b505050506040513d601f19601f820116820180604052508101906117ce9190614b78565b90935090506117dc8361237e565b91509193909250565b60006117ef612bf4565b9050826001600160a01b0316816001600160a01b03161461183657604051635284422b60e11b81526001600160a01b03808316600483015284166024820152604401610a30565b6040516301ffc9a760e01b81526334ce2c7b60e21b60048201526001600160a01b038416906301ffc9a790602401602060405180830381865afa158015611881573d6000803e3d6000fd5b505050506040513d601f19601f820116820180604052508101906118a59190614785565b80156119505750826001600160a01b03167f00000000000000000000000000000000000000000000000000000000000000006001600160a01b0316635dd8f6aa846040518263ffffffff1660e01b815260040161190491815260200190565b602060405180830381865afa158015611921573d6000803e3d6000fd5b505050506040513d601f19601f820116820180604052508101906119459190614768565b6001600160a01b0316145b156119dd5760405163a312889b60e01b8152600481018390526001600160a01b0384169063a312889b90602401600060405180830381865afa15801561199a573d6000803e3d6000fd5b505050506040513d6000823e601f3d908101601f191682016040526119c29190810190614bab565b6000838152600160205260409020906119db9082614c3e565b505b505050565b600085600003611a055760405163064fae8d60e41b815260040160405180910390fd5b600080611a11896126d0565b6040516331a9108f60e11b8152600481018b9052909150611af3906001600160a01b037f00000000000000000000000000000000000000000000000000000000000000001690636352211e90602401602060405180830381865afa158015611a7d573d6000803e3d6000fd5b505050506040513d601f19601f82011682018060405250810190611aa19190614768565b8a6009611ab082611211612bf4565b80611adb575061010085015160521c6001600160a01b0316611ad0612bf4565b6001600160a01b0316145b8061121657506112168d86611aee612bf4565b612d05565b602081015165ffffffffffff1615801590611b1a575061010081015160461c600190811614155b8015611b2f5750611b2d89611211612bf4565b155b8015611b5c575061010081015160521c6001600160a01b0316611b50612bf4565b6001600160a01b031614155b8015611b725750611b708982611aee612bf4565b155b15611b9057604051632475c19d60e21b815260040160405180910390fd5b83611b9c576000611ba6565b61010081015160041c5b61ffff1691506127108214611c5357611bcd88611bc584612710614cfd565b612710612dad565b60405163aab68bdb60e01b81529093506001600160a01b037f0000000000000000000000000000000000000000000000000000000000000000169063aab68bdb90611c20908a908d908890600401614b1d565b600060405180830381600087803b158015611c3a57600080fd5b505af1158015611c4e573d6000803e3d6000fd5b505050505b88876001600160a01b03167fe6fee9c572244c0c2238c3112ac12d411750a7ee00eeebd32521c3e5a666c14b8a868a8a88611c8c612bf4565b604051611c9e96959493929190614d10565b60405180910390a38115611cda57611cb68389614cfd565b60008a81526020819052604081208054909190611cd49084906147d1565b90915550505b50509695505050505050565b6040516331a9108f60e11b815260048101859052611d7b907f00000000000000000000000000000000000000000000000000000000000000006001600160a01b031690636352211e90602401602060405180830381865afa158015611d4f573d6000803e3d6000fd5b505050506040513d601f19601f82011682018060405250810190611d739190614768565b8560116125b8565b60405163ed11595760e01b81526001600160a01b037f0000000000000000000000000000000000000000000000000000000000000000169063ed11595790610982908790879087908790600401614d7e565b6040516331a9108f60e11b815260048101839052611e62907f00000000000000000000000000000000000000000000000000000000000000006001600160a01b031690636352211e90602401602060405180830381865afa158015611e36573d6000803e3d6000fd5b505050506040513d601f19601f82011682018060405250810190611e5a9190614768565b8360086125b8565b6000611e6d836126d0565b9050806020015165ffffffffffff16600003611e8f57611e8c83612cb0565b90505b61010081015160471c600190811614611ebb57604051631b6846ab60e01b815260040160405180910390fd5b60405163f12b64a560e01b8152600481018490526001600160a01b0383811660248301527f0000000000000000000000000000000000000000000000000000000000000000169063f12b64a590604401600060405180830381600087803b158015611f2557600080fd5b505af1158015611f39573d6000803e3d6000fd5b50505050505050565b6000838103611f6457604051632b72d06560e01b815260040160405180910390fd5b6040516331a9108f60e11b815260048101879052611ff9907f00000000000000000000000000000000000000000000000000000000000000006001600160a01b031690636352211e90602401602060405180830381865afa158015611fcd573d6000803e3d6000fd5b505050506040513d601f19601f82011682018060405250810190611ff19190614768565b8760026125b8565b6120048686866128da565b90507f24d02d612b06648bfa2000859f3de7e6f336139eaf5877c24b0d21320625286281878585612033612bf4565b604051612044959493929190614b3e565b60405180910390a195945050505050565b33301461206157600080fd5b6120756001600160a01b0386168886612e81565b60405163fef4325760e01b81526001600160a01b0388169063fef43257906120ae9089908990899089906000908a908a90600401614f07565b6020604051808303816000875af11580156120cd573d6000803e3d6000fd5b505050506040513d601f19601f820116820180604052508101906120f191906147a2565b50604051636eb1769f60e11b81523060048201526001600160a01b03888116602483015286169063dd62ed3e90604401602060405180830381865afa15801561213e573d6000803e3d6000fd5b505050506040513d601f19601f8201168201806040525081019061216291906147a2565b15611f3957611f39614f62565b6000818152602081905260408120549081900361219f576040516364d7bdaf60e01b815260040160405180910390fd5b60006121aa836126d0565b600084815260208190526040808220829055516331a9108f60e11b815260048101869052919250907f00000000000000000000000000000000000000000000000000000000000000006001600160a01b031690636352211e90602401602060405180830381865afa158015612223573d6000803e3d6000fd5b505050506040513d601f19601f820116820180604052508101906122479190614768565b90506000831561226f5761226a85846020015165ffffffffffff16600187612f3f565b612272565b60005b905080156122fd5760405163aab68bdb60e01b81526001600160a01b037f0000000000000000000000000000000000000000000000000000000000000000169063aab68bdb906122ca90859089908690600401614b1d565b600060405180830381600087803b1580156122e457600080fd5b505af11580156122f8573d6000803e3d6000fd5b505050505b84836000015165ffffffffffff16846020015165ffffffffffff167f32411cac611c47cfe73afc187645c9cf3aec828d5f91780138d8421378fc0edb858886612344612bf4565b604080516001600160a01b0395861681526020810194909452830191909152909116606082015260800160405180910390a4505050919050565b612386613a1f565b6040518061026001604052806123a184610100015160041c90565b61ffff1681526020016123b984610100015160141c90565b61ffff1681526020016123d184610100015160241c90565b63ffffffff1681526020016123f3846101000151600160449190911c81161490565b15158152602001612411846101000151600160459190911c81161490565b1515815260200161242f846101000151600160469190911c81161490565b1515815260200161244d846101000151600160479190911c81161490565b1515815260200161246b846101000151600160489190911c81161490565b15158152602001612489846101000151600160499190911c81161490565b151581526020016124a78461010001516001604a9190911c81161490565b151581526020016124c58461010001516001604b9190911c81161490565b151581526020016124e38461010001516001604c9190911c81161490565b151581526020016125018461010001516001604d9190911c81161490565b1515815260200161251f8461010001516001604e9190911c81161490565b1515815260200161253d8461010001516001604f9190911c81161490565b1515815260200161255b846101000151600160509190911c81161490565b15158152602001612579846101000151600160519190911c81161490565b1515815260200161258f84610100015160521c90565b6001600160a01b031681526020016125ac84610100015160f21c90565b61ffff16905292915050565b60006125c2612bf4565b9050836001600160a01b0316816001600160a01b0316141580156126915750604051631a45b42760e11b81526001600160a01b0382811660048301528581166024830152604482018590526064820184905260016084830181905260a48301527f0000000000000000000000000000000000000000000000000000000000000000169063348b684e9060c401602060405180830381865afa15801561266b573d6000803e3d6000fd5b505050506040513d601f19601f8201168201806040525081019061268f9190614785565b155b156119db57604051631326f75560e11b81526001600160a01b038086166004830152821660248201526044810184905260648101839052608401610a30565b6126d86139d3565b6040516321d1336160e11b8152600481018390527f00000000000000000000000000000000000000000000000000000000000000006001600160a01b0316906343a266c2906024015b61012060405180830381865afa15801561273f573d6000803e3d6000fd5b505050506040513d601f19601f820116820180604052508101906106e9919061474b565b6000816001600160401b0381111561277d5761277d6144f6565b6040519080825280602002602001820160405280156127a6578160200160208202803683370190505b50905060005b828110156128855760008484838181106127c8576127c8614aa8565b90506020028101906127da9190614f78565b6127e390614f98565b805160208201516040516304a6e43960e31b81529293506001600160a01b039091169163253721c89161281b918a9190600401615095565b600060405180830381600087803b15801561283557600080fd5b505af1158015612849573d6000803e3d6000fd5b50505050806000015183838151811061286457612864614aa8565b6001600160a01b0390921660209283029190910190910152506001016127ac565b5081156119db5760405163104373fb60e31b81526001600160a01b037f0000000000000000000000000000000000000000000000000000000000000000169063821b9fd890610982908790859060040161510d565b6000805b82811015612bec5760008484838181106128fa576128fa614aa8565b905060200281019061290c9190615166565b61291590615649565b905061271061ffff168160a001516000015161ffff16111561295f5760a08101515160405163a162453f60e01b815261ffff90911660048201526127106024820152604401610a30565b61271061ffff168160a001516020015161ffff1611156129aa5760a0810151602001516040516318e037d360e11b815261ffff90911660048201526127106024820152604401610a30565b60007f00000000000000000000000000000000000000000000000000000000000000006001600160a01b03166370174dcc8884602001518560400151866060015187608001516129fd8960a001516136c3565b895160405160e089901b6001600160e01b0319168152600481019790975263ffffffff95861660248801526001600160701b0390941660448701529390911660648501526001600160a01b0316608484015260a483019190915265ffffffffffff1660c482015260e401610120604051808303816000875af1158015612a87573d6000803e3d6000fd5b505050506040513d601f19601f82011682018060405250810190612aab919061474b565b602081015160c084015160405163ed11595760e01b81529293506001600160a01b037f0000000000000000000000000000000000000000000000000000000000000000169263ed11595792612b04928c9260040161577e565b600060405180830381600087803b158015612b1e57600080fd5b505af1158015612b32573d6000803e3d6000fd5b505050602082015160e08401516040516323c620f360e21b81526001600160a01b037f0000000000000000000000000000000000000000000000000000000000000000169350638f1883cc92612b8c928c92600401615897565b600060405180830381600087803b158015612ba657600080fd5b505af1158015612bba573d6000803e3d6000fd5b50612bcc925060019150879050614cfd565b8303612be257806020015165ffffffffffff1693505b50506001016128de565b509392505050565b6000612bfe61386d565b905090565b604051636e49181f60e01b8152600481018390526001600160a01b0382811660248301526000917f000000000000000000000000000000000000000000000000000000000000000090911690636e49181f90604401602060405180830381865afa158015612c75573d6000803e3d6000fd5b505050506040513d601f19601f82011682018060405250810190612c999190614785565b9392505050565b806119db576119db8484846125b8565b612cb86139d3565b604051631735e2c560e11b8152600481018390527f00000000000000000000000000000000000000000000000000000000000000006001600160a01b031690632e6bc58a90602401612721565b600080612d1784610100015160521c90565b6001600160a01b031614158015612da5575061010083015160521c604051630cef9c1160e31b8152600481018690526001600160a01b038481166024830152919091169063677ce08890604401602060405180830381865afa158015612d81573d6000803e3d6000fd5b505050506040513d601f19601f82011682018060405250810190612da59190614785565b949350505050565b6000808060001985870985870292508281108382030391505080600003612de757838281612ddd57612ddd615945565b0492505050612c99565b838110612e1857604051630c740aef60e31b8152600481018790526024810186905260448101859052606401610a30565b60008486880960026001871981018816978890046003810283188082028403028082028403028082028403028082028403028082028403029081029092039091026000889003889004909101858311909403939093029303949094049190911702949350505050565b604080516001600160a01b038416602482015260448082018490528251808303909101815260649091019091526020810180516001600160e01b031663095ea7b360e01b179052612ed284826138e2565b6119db576040516001600160a01b03848116602483015260006044830152612f3591869182169063095ea7b3906064015b604051602081830303815290604052915060e01b6020820180516001600160e01b038381831617835250505050613931565b6119db8482613931565b6040516369e11cc560e01b815260048101859052602481018490526044810183905281906000907f00000000000000000000000000000000000000000000000000000000000000006001600160a01b0316906369e11cc590606401600060405180830381865afa158015612fb7573d6000803e3d6000fd5b505050506040513d6000823e601f3d908101601f19168201604052612fdf919081019061595b565b805190915060005b818110156136b857600083828151811061300357613003614aa8565b60200260200101519050600061302e87836020015163ffffffff16633b9aca0063ffffffff16612dad565b905080156136695760a08201516001600160a01b0316156131fb5760a082015160405163aab68bdb60e01b81526001600160a01b037f0000000000000000000000000000000000000000000000000000000000000000169163aab68bdb9161309d91908e908690600401614b1d565b600060405180830381600087803b1580156130b757600080fd5b505af11580156130cb573d6000803e3d6000fd5b505060405163ea78803f60e01b8152600481018d9052600092507f00000000000000000000000000000000000000000000000000000000000000006001600160a01b0316915063ea78803f90602401602060405180830381865afa158015613137573d6000803e3d6000fd5b505050506040513d601f19601f8201168201806040525081019061315b9190614768565b90508260a001516001600160a01b0316630dcdc5706040518060c00160405280846001600160a01b03168152602001858152602001601281526020018e81526020018c8152602001868152506040518263ffffffff1660e01b81526004016131c39190615a60565b600060405180830381600087803b1580156131dd57600080fd5b505af11580156131f1573d6000803e3d6000fd5b505050505061365c565b60608201516000906001600160a01b031661321d57613218612bf4565b613223565b82606001515b9050826040015166ffffffffffffff166000146135c55760405163ea78803f60e01b8152600481018c90526000907f00000000000000000000000000000000000000000000000000000000000000006001600160a01b03169063ea78803f90602401602060405180830381865afa1580156132a2573d6000803e3d6000fd5b505050506040513d601f19601f820116820180604052508101906132c69190614768565b905060006001600160a01b0382161561337d576040858101519051630862026560e41b815266ffffffffffffff90911660048201526001600160a01b0383811660248301527f00000000000000000000000000000000000000000000000000000000000000001690638620265090604401602060405180830381865afa158015613354573d6000803e3d6000fd5b505050506040513d601f19601f820116820180604052508101906133789190614768565b613380565b60005b90506001600160a01b038216158061339f57506001600160a01b038116155b1561342b577f00000000000000000000000000000000000000000000000000000000000000006001600160a01b031663aab68bdb848f876040518463ffffffff1660e01b81526004016133f493929190614b1d565b600060405180830381600087803b15801561340e57600080fd5b505af1158015613422573d6000803e3d6000fd5b505050506135be565b7f00000000000000000000000000000000000000000000000000000000000000006001600160a01b031663aab68bdb308f876040518463ffffffff1660e01b815260040161347b93929190614b1d565b600060405180830381600087803b15801561349557600080fd5b505af11580156134a9573d6000803e3d6000fd5b5050505060008d6040516020016134c291815260200190565b60408051601f198184030181528282529088015163fb61b4e360e01b8352909250309163fb61b4e3916135029186919088908b908b908990600401615ab4565b600060405180830381600087803b15801561351c57600080fd5b505af192505050801561352d575060015b6135bc573d80801561355b576040519150601f19603f3d011682016040523d82523d6000602084013e613560565b606091505b508e7f96c3ac00fad4cbb9b9ae8df2dbf20a95984c04efde99cdeeaae754dbb44106ce88888461358e612bf4565b60405161359e9493929190615b0a565b60405180910390a26135ba6001600160a01b03851686886139a2565b505b505b505061365a565b6001600160a01b03811661dead1461365a5760405163aab68bdb60e01b81526001600160a01b037f0000000000000000000000000000000000000000000000000000000000000000169063aab68bdb906136279084908f908790600401614b1d565b600060405180830381600087803b15801561364157600080fd5b505af1158015613655573d6000803e3d6000fd5b505050505b505b6136668187614cfd565b95505b87898b7f61e0b98c9423afbd069cc95184e80d30166d0e9a3f747259d6a434491f478e228585613697612bf4565b6040516136a693929190615b4c565b60405180910390a45050600101612fe7565b505050949350505050565b6000600190506004826000015161ffff16901b811790506014826020015161ffff16901b811790506024826040015163ffffffff16901b811790508160600151156137145768100000000000000000175b81608001511561372a5768200000000000000000175b8160a00151156137405768400000000000000000175b8160c00151156137565768800000000000000000175b8160e001511561376d576901000000000000000000175b81610100015115613785576902000000000000000000175b8161012001511561379d576904000000000000000000175b816101400151156137b5576908000000000000000000175b816101600151156137cd576910000000000000000000175b816101800151156137e5576920000000000000000000175b816101a00151156137fd576940000000000000000000175b816101c0015115613815576980000000000000000000175b816101e001511561382757600160501b175b8161020001511561383957600160511b175b6102208201516102409092015160529290921b600160521b600160f21b03161760f29190911b6001600160f21b0319161790565b6000366014336001600160a01b037f0000000000000000000000000000000000000000000000000000000000000000161480156138aa5750808210155b156138da576000366138bc8385614cfd565b6138c7928290615b7a565b6138d091615ba4565b60601c9250505090565b339250505090565b6000806000806020600086516020880160008a5af192503d91506000519050828015613927575081156139185780600114613927565b6000866001600160a01b03163b115b9695505050505050565b600080602060008451602086016000885af180613954576040513d6000823e3d81fd5b50506000513d9150811561396c578060011415613979565b6001600160a01b0384163b155b156119db57604051635274afe760e01b81526001600160a01b0385166004820152602401610a30565b6040516001600160a01b038381166024830152604482018390526119dd91859182169063a9059cbb90606401612f03565b6040805161012081018252600080825260208201819052918101829052606081018290526080810182905260a0810182905260c0810182905260e0810182905261010081019190915290565b6040805161026081018252600080825260208201819052918101829052606081018290526080810182905260a0810182905260c0810182905260e08101829052610100810182905261012081018290526101408101829052610160810182905261018081018290526101a081018290526101c081018290526101e081018290526102008101829052610220810182905261024081019190915290565b6040518060400160405280613ace6139d3565b8152602001613adb613a1f565b905290565b600060208284031215613af257600080fd5b81356001600160e01b031981168114612c9957600080fd5b600060208284031215613b1c57600080fd5b5035919050565b60008060408385031215613b3657600080fd5b50508035926020909101359150565b65ffffffffffff808251168352806020830151166020840152806040830151166040840152506060810151613b84606084018265ffffffffffff169052565b506080810151613b9c608084018263ffffffff169052565b5060a0810151613bb760a08401826001600160701b03169052565b5060c0810151613bcf60c084018263ffffffff169052565b5060e0810151613bea60e08401826001600160a01b03169052565b5061010090810151910152565b805161ffff1682526020810151613c14602084018261ffff169052565b506040810151613c2c604084018263ffffffff169052565b506060810151613c40606084018215159052565b506080810151613c54608084018215159052565b5060a0810151613c6860a084018215159052565b5060c0810151613c7c60c084018215159052565b5060e0810151613c9060e084018215159052565b5061010081810151151590830152610120808201511515908301526101408082015115159083015261016080820151151590830152610180808201511515908301526101a0808201511515908301526101c0808201511515908301526101e08082015115159083015261020080820151151590830152610220808201516001600160a01b0316908301526102408082015161ffff8116828501526119db565b6103808101613d3e8285613b45565b612c99610120830184613bf7565b6001600160a01b0381168114613d6157600080fd5b50565b60008060008060808587031215613d7a57600080fd5b8435935060208501359250604085013591506060850135613d9a81613d4c565b939692955090935050565b8035613db081613d4c565b919050565b60008060008060808587031215613dcb57600080fd5b8435613dd681613d4c565b935060208501359250604085013591506060850135613d9a81613d4c565b60008060408385031215613e0757600080fd5b823591506020830135613e1981613d4c565b809150509250929050565b60008083601f840112613e3657600080fd5b5081356001600160401b03811115613e4d57600080fd5b602083019150836020828501011115613e6557600080fd5b9250929050565b60008083601f840112613e7e57600080fd5b5081356001600160401b03811115613e9557600080fd5b6020830191508360208260051b8501011115613e6557600080fd5b600080600080600080600080600060a08a8c031215613ece57600080fd5b8935613ed981613d4c565b985060208a01356001600160401b0380821115613ef557600080fd5b613f018d838e01613e24565b909a50985060408c0135915080821115613f1a57600080fd5b613f268d838e01613e6c565b909850965060608c0135915080821115613f3f57600080fd5b613f4b8d838e01613e6c565b909650945060808c0135915080821115613f6457600080fd5b50613f718c828d01613e24565b915080935050809150509295985092959850929598565b600060208284031215613f9a57600080fd5b8135612c9981613d4c565b60008060008060008060808789031215613fbe57600080fd5b8635955060208701356001600160401b0380821115613fdc57600080fd5b613fe88a838b01613e24565b9097509550604089013591508082111561400157600080fd5b5061400e89828a01613e24565b979a9699509497949695606090950135949350505050565b60008060006060848603121561403b57600080fd5b505081359360208301359350604090920135919050565b6020808252825182820181905260009190848201906040850190845b818110156140a9578351614083848251613b45565b850151614094610120850182613bf7565b5092840192610380929092019160010161406e565b50909695505050505050565b6000806000604084860312156140ca57600080fd5b8335925060208401356001600160401b038111156140e757600080fd5b6140f386828701613e24565b9497909650939450505050565b60008060008060006080868803121561411857600080fd5b853561412381613d4c565b9450602086013593506040860135925060608601356001600160401b0381111561414c57600080fd5b61415888828901613e24565b969995985093965092949392505050565b60005b8381101561418457818101518382015260200161416c565b50506000910152565b600081518084526141a5816020860160208601614169565b601f01601f19169290920160200192915050565b602081526000612c99602083018461418d565b60008060008060008060006080888a0312156141e757600080fd5b8735965060208801356001600160401b038082111561420557600080fd5b6142118b838c01613e6c565b909850965060408a013591508082111561422a57600080fd5b6142368b838c01613e6c565b909650945060608a013591508082111561424f57600080fd5b5061425c8a828b01613e24565b989b979a50959850939692959293505050565b6000806000806080858703121561428557600080fd5b843561429081613d4c565b93506020850135925060408501356142a781613d4c565b9396929550929360600135925050565b6103a081016142c68286613b45565b6142d4610120830185613bf7565b600683106142f257634e487b7160e01b600052602160045260246000fd5b82610380830152949350505050565b6000806040838503121561431457600080fd5b823561431f81613d4c565b946020939093013593505050565b8015158114613d6157600080fd5b8035613db08161432d565b60008060008060008060a0878903121561435f57600080fd5b8635955060208701359450604087013561437881613d4c565b935060608701356001600160401b0381111561439357600080fd5b61439f89828a01613e24565b90945092505060808701356143b38161432d565b809150509295509295509295565b600080600080606085870312156143d757600080fd5b843593506020850135925060408501356001600160401b038111156143fb57600080fd5b61440787828801613e6c565b95989497509550505050565b60008060008060006060868803121561442b57600080fd5b8535945060208601356001600160401b038082111561444957600080fd5b61445589838a01613e6c565b9096509450604088013591508082111561446e57600080fd5b5061415888828901613e24565b600080600080600080600060c0888a03121561449657600080fd5b87356144a181613d4c565b96506020880135955060408801356144b881613d4c565b94506060880135935060808801356144cf81613d4c565b925060a08801356001600160401b038111156144ea57600080fd5b61425c8a828b01613e24565b634e487b7160e01b600052604160045260246000fd5b60405161012081016001600160401b038111828210171561452f5761452f6144f6565b60405290565b604080519081016001600160401b038111828210171561452f5761452f6144f6565b604051606081016001600160401b038111828210171561452f5761452f6144f6565b60405161026081016001600160401b038111828210171561452f5761452f6144f6565b60405160c081016001600160401b038111828210171561452f5761452f6144f6565b604051608081016001600160401b038111828210171561452f5761452f6144f6565b60405161010081016001600160401b038111828210171561452f5761452f6144f6565b604051601f8201601f191681016001600160401b038111828210171561462b5761462b6144f6565b604052919050565b65ffffffffffff81168114613d6157600080fd5b8051613db081614633565b63ffffffff81168114613d6157600080fd5b8051613db081614652565b6001600160701b0381168114613d6157600080fd5b8051613db08161466f565b8051613db081613d4c565b600061012082840312156146ad57600080fd5b6146b561450c565b90506146c082614647565b81526146ce60208301614647565b60208201526146df60408301614647565b60408201526146f060608301614647565b606082015261470160808301614664565b608082015261471260a08301614684565b60a082015261472360c08301614664565b60c082015261473460e0830161468f565b60e082015261010080830151818301525092915050565b6000610120828403121561475e57600080fd5b612c99838361469a565b60006020828403121561477a57600080fd5b8151612c9981613d4c565b60006020828403121561479757600080fd5b8151612c998161432d565b6000602082840312156147b457600080fd5b5051919050565b634e487b7160e01b600052601160045260246000fd5b808201808211156106e9576106e96147bb565b600181811c908216806147f857607f821691505b60208210810361481857634e487b7160e01b600052602260045260246000fd5b50919050565b601f8211156119dd576000816000526020600020601f850160051c810160208610156148475750805b601f850160051c820191505b81811015610b6b57828155600101614853565b6001600160401b0383111561487d5761487d6144f6565b6148918361488b83546147e4565b8361481e565b6000601f8411600181146148c557600085156148ad5750838201355b600019600387901b1c1916600186901b17835561491f565b600083815260209020601f19861690835b828110156148f657868501358255602094850194600190920191016148d6565b50868210156149135760001960f88860031b161c19848701351681555b505060018560011b0183555b5050505050565b81835281816020850137506000828201602090810191909152601f909101601f19169091010190565b87815286602082015260a06040820152600061496f60a083018789614926565b8281036060840152614982818688614926565b91505060018060a01b038316608083015298975050505050505050565b8681526080602082015260006149b9608083018789614926565b82810360408401526149cc818688614926565b915050826060830152979650505050505050565b60006001600160401b038211156149f9576149f96144f6565b5060051b60200190565b60006020808385031215614a1657600080fd5b82516001600160401b03811115614a2c57600080fd5b8301601f81018513614a3d57600080fd5b8051614a50614a4b826149e0565b614603565b808282526020820191506101206020818502860101935088841115614a7457600080fd5b6020850194505b83851015614a9c57614a8d898661469a565b83529384019391850191614a7b565b50979650505050505050565b634e487b7160e01b600052603260045260246000fd5b604081526000614ad2604083018587614926565b905060018060a01b0383166020830152949350505050565b848152606060208201526000614b04606083018587614926565b905060018060a01b038316604083015295945050505050565b6001600160a01b039390931683526020830191909152604082015260600190565b858152846020820152608060408201526000614b5e608083018587614926565b905060018060a01b03831660608301529695505050505050565b6000806101408385031215614b8c57600080fd5b614b96848461469a565b915061012083015160068110613e1957600080fd5b600060208284031215614bbd57600080fd5b81516001600160401b0380821115614bd457600080fd5b818401915084601f830112614be857600080fd5b815181811115614bfa57614bfa6144f6565b614c0d601f8201601f1916602001614603565b9150808252856020828501011115614c2457600080fd5b614c35816020840160208601614169565b50949350505050565b81516001600160401b03811115614c5757614c576144f6565b614c6b81614c6584546147e4565b8461481e565b602080601f831160018114614ca05760008415614c885750858301515b600019600386901b1c1916600185901b178555610b6b565b600085815260208120601f198616915b82811015614ccf57888601518255948401946001909101908401614cb0565b5085821015614ced5787850151600019600388901b60f8161c191681555b5050505050600190811b01905550565b818103818111156106e9576106e96147bb565b86815285602082015260a060408201526000614d3060a083018688614926565b6060830194909452506001600160a01b0391909116608090910152949350505050565b8035613db081614652565b66ffffffffffffff81168114613d6157600080fd5b8035613db081614633565b6000606080830187845260208781860152604060606040870152828784526080935060808701905060808860051b8801018960005b8a811015614ef557898303607f190184528135368d9003603e19018112614dd957600080fd5b8c01803584528386018782013536839003601e19018112614df957600080fd5b9091018781019190356001600160401b03811115614e1657600080fd5b60c08082023603841315614e2957600080fd5b868a01899052918190526000918b87015b82841015614edf578435614e4d8161432d565b15158152848b0135614e5e81614652565b63ffffffff16818c0152848a0135614e7581614d5e565b66ffffffffffffff16818b0152848d0135614e8f81613d4c565b6001600160a01b0316818e0152614ea7858d01614d73565b65ffffffffffff168c82015260a0614ec0868201613da5565b6001600160a01b03169082015293810193600193909301928101614e3a565b978a019796505050928701925050600101614db3565b50909c9b505050505050505050505050565b878152600060018060a01b03808916602084015287604084015280871660608401525084608083015260e060a0830152600060e08301526101008060c0840152614f548184018587614926565b9a9950505050505050505050565b634e487b7160e01b600052600160045260246000fd5b60008235603e19833603018112614f8e57600080fd5b9190910192915050565b60006040808336031215614fab57600080fd5b614fb3614535565b8335614fbe81613d4c565b81526020848101356001600160401b03811115614fda57600080fd5b850136601f820112614feb57600080fd5b8035614ff9614a4b826149e0565b8181526060918202830184019184820191903684111561501857600080fd5b938501935b83851015615082578085360312156150355760008081fd5b61503d614557565b853561504881613d4c565b81528587013560ff8116811461505e5760008081fd5b818801528589013561506f81614652565b818a01528352938401939185019161501d565b5093850193909352509195945050505050565b60006040808301858452602060406020860152818651808452606093506060870191506020880160005b828110156150fe57815180516001600160a01b031685528581015160ff168686015287015163ffffffff168785015292850192908401906001016150bf565b50919998505050505050505050565b60006040820184835260206040602085015281855180845260608601915060208701935060005b818110156151595784516001600160a01b031683529383019391830191600101615134565b5090979650505050505050565b6000823561033e19833603018112614f8e57600080fd5b8035613db08161466f565b803561ffff81168114613db057600080fd5b600061026082840312156151ad57600080fd5b6151b5614579565b90506151c082615188565b81526151ce60208301615188565b60208201526151df60408301614d53565b60408201526151f06060830161433b565b60608201526152016080830161433b565b608082015261521260a0830161433b565b60a082015261522360c0830161433b565b60c082015261523460e0830161433b565b60e082015261010061524781840161433b565b9082015261012061525983820161433b565b9082015261014061526b83820161433b565b9082015261016061527d83820161433b565b9082015261018061528f83820161433b565b908201526101a06152a183820161433b565b908201526101c06152b383820161433b565b908201526101e06152c583820161433b565b908201526102006152d783820161433b565b908201526102206152e9838201613da5565b908201526102406152fb838201615188565b9082015292915050565b600082601f83011261531657600080fd5b81356020615326614a4b836149e0565b82815260059290921b8401810191818101908684111561534557600080fd5b8286015b848110156154995780356001600160401b038082111561536857600080fd5b908801906040828b03601f190181131561538157600080fd5b615389614535565b87840135815281840135838111156153a057600080fd5b8085019450508b603f8501126153b557600080fd5b8784013592506153c7614a4b846149e0565b83815260c09093028401820192888101908d8511156153e557600080fd5b948301945b848610156154845760c0868f03121561540257600080fd5b61540a61459c565b86356154158161432d565b8152868b013561542481614652565b818c01528685013561543581614d5e565b81860152606087013561544781613d4c565b6060820152608087013561545a81614633565b608082015260a087013561546d81613d4c565b60a0820152825260c09590950194908901906153ea565b828a0152508652505050918301918301615349565b509695505050505050565b600082601f8301126154b557600080fd5b813560206154c5614a4b836149e0565b82815260069290921b840181019181810190868411156154e457600080fd5b8286015b8481101561549957604081890312156155015760008081fd5b615509614535565b81356001600160e01b03811681146155215760008081fd5b81528185013561553081614652565b818601528352918301916040016154e8565b600082601f83011261555357600080fd5b81356020615563614a4b836149e0565b82815260059290921b8401810191818101908684111561558257600080fd5b8286015b848110156154995780356001600160401b03808211156155a65760008081fd5b908801906080828b03601f19018113156155c05760008081fd5b6155c86145be565b878401356155d581613d4c565b81526040848101356155e681613d4c565b828a0152606085810135858111156155fe5760008081fd5b61560c8f8c838a01016154a4565b848401525092850135928484111561562657600091508182fd5b6156348e8b868901016154a4565b90830152508652505050918301918301615586565b6000610340823603121561565c57600080fd5b6156646145e0565b61566d83614d73565b815261567b60208401614d53565b602082015261568c6040840161517d565b604082015261569d60608401614d53565b60608201526156ae60808401613da5565b60808201526156c03660a0850161519a565b60a08201526103008301356001600160401b03808211156156e057600080fd5b6156ec36838701615305565b60c084015261032085013591508082111561570657600080fd5b5061571336828601615542565b60e08301525092915050565b80511515825260208082015163ffffffff169083015260408082015166ffffffffffffff16908301526060808201516001600160a01b039081169184019190915260808083015165ffffffffffff169084015260a09182015116910152565b60006060808301868452602065ffffffffffff87168186015260406060604087015282875180855260808801915060808160051b89010194508389016000805b8381101561582f578a8803607f190185528251805189528701518789018790528051878a018190529088019083908b8b01905b8083101561581a5761580482855161571f565b60c0820191508a840193506001830192506157f1565b509950505093860193918601916001016157be565b50959c9b505050505050505050505050565b60008151808452602080850194506020840160005b8381101561588c57815180516001600160e01b0316885283015163ffffffff168388015260409096019590820190600101615856565b509495945050505050565b60006060808301868452602065ffffffffffff8716818601526040606060408701528287518085526080945060808801915060808160051b890101848a0160005b83811015614ef5578a8303607f19018552815180516001600160a01b039081168552888201511688850152868101518785018a90526159198a860182615841565b918b0151858303868d01529190506159318183615841565b9689019694505050908601906001016158d8565b634e487b7160e01b600052601260045260246000fd5b6000602080838503121561596e57600080fd5b82516001600160401b0381111561598457600080fd5b8301601f8101851361599557600080fd5b80516159a3614a4b826149e0565b81815260c091820283018401918482019190888411156159c257600080fd5b938501935b83851015614a9c5780858a0312156159df5760008081fd5b6159e761459c565b85516159f28161432d565b815285870151615a0181614652565b81880152604086810151615a1481614d5e565b90820152606086810151615a2781613d4c565b90820152608086810151615a3a81614633565b9082015260a086810151615a4d81613d4c565b90820152835293840193918501916159c7565b81516001600160a01b031681526020808301519082015260408083015190820152606080830151908201526080808301519082015260a082810151610160830191615aad9084018261571f565b5092915050565b6001600160a01b03878116825266ffffffffffffff871660208301528581166040830152606082018590528316608082015260c060a08201819052600090615afe9083018461418d565b98975050505050505050565b6000610120615b19838861571f565b8560c08401528060e0840152615b318184018661418d565b91505060018060a01b03831661010083015295945050505050565b6101008101615b5b828661571f565b60c08201939093526001600160a01b039190911660e090910152919050565b60008085851115615b8a57600080fd5b83861115615b9757600080fd5b5050820193919092039150565b6bffffffffffffffffffffffff198135818116916014851015615bd15780818660140360031b1b83161692505b50509291505056fea26469706673582212208af42d00f7981f66c26abedd3927bf989169ec7af620c009abc435c2e790d54964736f6c63430008170033",
	"deployedBytecode": "0x608060405234801561001057600080fd5b50600436106102275760003560e01c80637da0a87711610130578063c1ec61ee116100b8578063f12b64a51161007c578063f12b64a5146105c5578063f434c914146105d8578063f905007a146105ff578063fb61b4e314610612578063ffa082441461062557600080fd5b8063c1ec61ee14610543578063c5b19b0e14610565578063c7fb92de14610578578063d4a1b4b11461058b578063ed115957146105b257600080fd5b8063a312889b116100ff578063a312889b146104d7578063b1a50e33146104f7578063b1d596851461050a578063b1e6d2a11461051d578063c02c63ad1461053057600080fd5b80637da0a8771461046457806388bc2ef31461048a57806399d25a34146104b1578063a2d532e6146104c457600080fd5b806339975571116101b35780634fb99a3f116101825780634fb99a3f146103cb578063572b6c05146103de578063581781911461041e5780636567b40614610431578063702a39771461045157600080fd5b80633997557114610372578063405b84fa1461039257806341929626146103a55780634da781a9146103b857600080fd5b80631f47ce69116101fa5780631f47ce69146102db57806325a61d5c14610302578063293c4999146103235780632fa902031461034a578063303f5dfa1461035f57600080fd5b806301ffc9a71461022c578063090db2f1146102545780631d831d5c146102755780631eabcd34146102b4575b600080fd5b61023f61023a366004613ae0565b61064c565b60405190151581526020015b60405180910390f35b610267610262366004613b0a565b6106ef565b60405190815260200161024b565b61029c7f00000000000000000000000094db7c71d9e4bcde99686be9570c68bf12708d3e81565b6040516001600160a01b03909116815260200161024b565b61029c7f0000000000000000000000008c88469ca3aa9de6ab22c5113ae2a8e20329fd8c81565b61029c7f00000000000000000000000053a4354b7c6f83b0b2b7d559451a5180a410ab2581565b610315610310366004613b23565b6106fa565b60405161024b929190613d2f565b61029c7f0000000000000000000000009b52a59f108e36ce0a8eba595eca22dbadbe655f81565b61035d610358366004613d64565b6107af565b005b61035d61036d366004613db5565b610916565b610267610380366004613b0a565b60006020819052908152604090205481565b61035d6103a0366004613df4565b6109ba565b6103156103b3366004613b0a565b610b74565b6102676103c6366004613b0a565b610b9f565b6102676103d9366004613eb0565b610c41565b61023f6103ec366004613f88565b7f000000000000000000000000b2b5841dbef766d4b521221732f9b618fcf34a876001600160a01b0390811691161490565b61029c61042c366004613fa5565b610de7565b61044461043f366004614026565b610f79565b60405161024b9190614052565b61035d61045f3660046140b5565b6110e9565b7f000000000000000000000000b2b5841dbef766d4b521221732f9b618fcf34a8761029c565b61029c7f0000000000000000000000005adb234602d074064c216c1fdb23c6c2031f0c7581565b61023f6104bf366004613b0a565b6111e0565b61035d6104d2366004614100565b6111fe565b6104ea6104e5366004613b0a565b6112db565b60405161024b91906141b9565b61023f610505366004613b0a565b611375565b6102676105183660046141cc565b61138e565b61035d61052b36600461426f565b61166e565b61031561053e366004613b0a565b611718565b610556610551366004613b0a565b611731565b60405161024b939291906142b7565b61035d610573366004614301565b6117e5565b610267610586366004614346565b6119e2565b61029c7f000000000000000000000000c052725ff9888ce3148aa8bfb5063f1a5028946d81565b61035d6105c03660046143c1565b611ce6565b61035d6105d3366004613df4565b611dcd565b61029c7f0000000000000000000000004886c30c81a17a3a1084fd1812008fa0f71a20b981565b61026761060d366004614413565b611f42565b61035d61062036600461447b565b612055565b61029c7f000000000000000000000000348b92ce8584332df6272a348d4ddb14a5ec1dcc81565b60006001600160e01b0319821663635a894b60e01b148061067d57506001600160e01b031982166334ce2c7b60e21b145b8061069857506001600160e01b03198216632877540760e01b145b806106b357506001600160e01b0319821663217a87fd60e21b145b806106ce57506001600160e01b03198216633d0d324560e21b145b806106e957506001600160e01b031982166301ffc9a760e01b145b92915050565b60006106e98261216f565b6107026139d3565b61070a613a1f565b604051630969875760e21b815260048101859052602481018490527f000000000000000000000000c052725ff9888ce3148aa8bfb5063f1a5028946d6001600160a01b0316906325a61d5c9060440161012060405180830381865afa158015610777573d6000803e3d6000fd5b505050506040513d601f19601f8201168201806040525081019061079b919061474b565b91506107a68261237e565b90509250929050565b6040516331a9108f60e11b815260048101859052610844907f0000000000000000000000009b52a59f108e36ce0a8eba595eca22dbadbe655f6001600160a01b031690636352211e90602401602060405180830381865afa158015610818573d6000803e3d6000fd5b505050506040513d601f19601f8201168201806040525081019061083c9190614768565b8560126125b8565b600061084f856126d0565b610100810151909150604c1c60019081161461087e576040516383d788ab60e01b815260040160405180910390fd5b60405163c6081d7160e01b81526004810186905260248101859052604481018490526001600160a01b0383811660648301527f0000000000000000000000008c88469ca3aa9de6ab22c5113ae2a8e20329fd8c169063c6081d71906084015b600060405180830381600087803b1580156108f757600080fd5b505af115801561090b573d6000803e3d6000fd5b505050505050505050565b6109228484600b6125b8565b60405163181faefd60e11b81526001600160a01b038581166004830152602482018590526044820184905282811660648301527f00000000000000000000000094db7c71d9e4bcde99686be9570c68bf12708d3e169063303f5dfa906084015b600060405180830381600087803b15801561099c57600080fd5b505af11580156109b0573d6000803e3d6000fd5b5050505050505050565b336001600160a01b037f0000000000000000000000005adb234602d074064c216c1fdb23c6c2031f0c751614610a3957604051639653dbed60e01b81523360048201526001600160a01b037f0000000000000000000000005adb234602d074064c216c1fdb23c6c2031f0c751660248201526044015b60405180910390fd5b604080516001600160a01b038316815233602082015283917f01f954abace731a88ab86e71186040cc2be49fe517ea06bc0d24f25b82b83456910160405180910390a260008281526020819052604090205415610a9b57610a998261216f565b505b6040516301ffc9a760e01b815263217a87fd60e21b60048201526001600160a01b038216906301ffc9a790602401602060405180830381865afa158015610ae6573d6000803e3d6000fd5b505050506040513d601f19601f82011682018060405250810190610b0a9190614785565b15610b70576040516362d8cd8760e11b8152306004820152602481018390526001600160a01b0382169063c5b19b0e90604401600060405180830381600087803b158015610b5757600080fd5b505af1158015610b6b573d6000803e3d6000fd5b505050505b5050565b610b7c6139d3565b610b84613a1f565b610b8d836126d0565b9150610b988261237e565b9050915091565b6000818152602081905260408082205490516375b0d9cd60e01b8152600481018490527f00000000000000000000000094db7c71d9e4bcde99686be9570c68bf12708d3e6001600160a01b0316906375b0d9cd90602401602060405180830381865afa158015610c13573d6000803e3d6000fd5b505050506040513d601f19601f82011682018060405250810190610c3791906147a2565b6106e991906147d1565b60405163180e2b1160e31b81526001600160a01b038a811660048301526000917f0000000000000000000000009b52a59f108e36ce0a8eba595eca22dbadbe655f9091169063c0715888906024016020604051808303816000875af1158015610cae573d6000803e3d6000fd5b505050506040513d601f19601f82011682018060405250810190610cd291906147a2565b90508715610cf5576000818152600160205260409020610cf3898b83614866565b505b6040516338a73f9960e11b8152600481018290523060248201527f0000000000000000000000005adb234602d074064c216c1fdb23c6c2031f0c756001600160a01b03169063714e7f3290604401600060405180830381600087803b158015610d5d57600080fd5b505af1158015610d71573d6000803e3d6000fd5b50505050610d80818686612763565b6000610d8d8289896128da565b90507f8dac501f24f52bda9ebdfa6a1789878c1d1e23823c771f7d52b5ba41261b0f4581838c8c8888610dbe612bf4565b604051610dd1979695949392919061494f565b60405180910390a1509998505050505050505050565b6040516331a9108f60e11b815260048101879052600090610e7f906001600160a01b037f0000000000000000000000009b52a59f108e36ce0a8eba595eca22dbadbe655f1690636352211e90602401602060405180830381865afa158015610e53573d6000803e3d6000fd5b505050506040513d601f19601f82011682018060405250810190610e779190614768565b8860076125b8565b8115610ed557610e8d612bf4565b82604051602001610ebc92919060609290921b6bffffffffffffffffffffffff19168252601482015260340190565b6040516020818303038152906040528051906020012091505b604051635817819160e01b81526001600160a01b037f00000000000000000000000094db7c71d9e4bcde99686be9570c68bf12708d3e1690635817819190610f2b908a908a908a908a908a908a9060040161499f565b6020604051808303816000875af1158015610f4a573d6000803e3d6000fd5b505050506040513d601f19601f82011682018060405250810190610f6e9190614768565b979650505050505050565b6040516301fd03bb60e71b81526004810184905260248101839052604481018290526060906000906001600160a01b037f000000000000000000000000c052725ff9888ce3148aa8bfb5063f1a5028946d169063fe81dd8090606401600060405180830381865afa158015610ff2573d6000803e3d6000fd5b505050506040513d6000823e601f3d908101601f1916820160405261101a9190810190614a03565b8051909150806001600160401b03811115611037576110376144f6565b60405190808252806020026020018201604052801561107057816020015b61105d613abb565b8152602001906001900390816110555790505b50925060005b818110156110df57600083828151811061109257611092614aa8565b6020026020010151905060405180604001604052808281526020016110b68361237e565b8152508583815181106110cb576110cb614aa8565b602090810291909101015250600101611076565b5050509392505050565b6040516331a9108f60e11b81526004810184905261117e907f0000000000000000000000009b52a59f108e36ce0a8eba595eca22dbadbe655f6001600160a01b031690636352211e90602401602060405180830381865afa158015611152573d6000803e3d6000fd5b505050506040513d601f19601f820116820180604052508101906111769190614768565b8460066125b8565b6000838152600160205260409020611197828483614866565b50827f0f3d240fe5efaeda774d27bf0425f932ddd2098297b26de8070d6c8bef534b1683836111c4612bf4565b6040516111d393929190614abe565b60405180910390a2505050565b60006111f36111ee836126d0565b61237e565b610120015192915050565b61121b8585600a61121682611211612bf4565b612c03565b612ca0565b8260000361123c576040516346545c9960e11b815260040160405180910390fd5b83856001600160a01b03167fdf04e13ee4fcd48a81ab2fd114757093740a3efa9b6475d86e05878b4c59d079858585611273612bf4565b6040516112839493929190614aea565b60405180910390a360405163124d91e560e01b81526001600160a01b037f00000000000000000000000094db7c71d9e4bcde99686be9570c68bf12708d3e169063124d91e5906108dd90889088908890600401614b1d565b600160205260009081526040902080546112f4906147e4565b80601f0160208091040260200160405190810160405280929190818152602001828054611320906147e4565b801561136d5780601f106113425761010080835404028352916020019161136d565b820191906000526020600020905b81548152906001019060200180831161135057829003601f168201915b505050505081565b60006113836111ee836126d0565b610100015192915050565b60008581036113b057604051632b72d06560e01b815260040160405180910390fd5b6040516331a9108f60e11b815260048101899052611445907f0000000000000000000000009b52a59f108e36ce0a8eba595eca22dbadbe655f6001600160a01b031690636352211e90602401602060405180830381865afa158015611419573d6000803e3d6000fd5b505050506040513d601f19601f8201168201806040525081019061143d9190614768565b8960026125b8565b6040516331a9108f60e11b8152600481018990526114da907f0000000000000000000000009b52a59f108e36ce0a8eba595eca22dbadbe655f6001600160a01b031690636352211e90602401602060405180830381865afa1580156114ae573d6000803e3d6000fd5b505050506040513d601f19601f820116820180604052508101906114d29190614768565b89600e6125b8565b6040516319fade8560e11b8152600481018990526000907f000000000000000000000000c052725ff9888ce3148aa8bfb5063f1a5028946d6001600160a01b0316906333f5bd0a90602401602060405180830381865afa158015611542573d6000803e3d6000fd5b505050506040513d601f19601f8201168201806040525081019061156691906147a2565b1115611585576040516319d957db60e01b815260040160405180910390fd5b6040516338a73f9960e11b8152600481018990523060248201527f0000000000000000000000005adb234602d074064c216c1fdb23c6c2031f0c756001600160a01b03169063714e7f3290604401600060405180830381600087803b1580156115ed57600080fd5b505af1158015611601573d6000803e3d6000fd5b50505050611610888686612763565b61161b8888886128da565b90507f23164adda696b19106c2eef50ba44461997682bf5aeb9fdb383117fa9952cc758189858561164a612bf4565b60405161165b959493929190614b3e565b60405180910390a1979650505050505050565b61167a8484600c6125b8565b6000611685846126d0565b61010081015190915060451c6001908116036116b457604051636af4c57760e01b815260040160405180910390fd5b60405163b1e6d2a160e01b81526001600160a01b038681166004830152602482018690528481166044830152606482018490527f00000000000000000000000094db7c71d9e4bcde99686be9570c68bf12708d3e169063b1e6d2a1906084016108dd565b6117206139d3565b611728613a1f565b610b8d83612cb0565b6117396139d3565b611741613a1f565b60405163855a54ed60e01b8152600481018490526000907f000000000000000000000000c052725ff9888ce3148aa8bfb5063f1a5028946d6001600160a01b03169063855a54ed9060240161014060405180830381865afa1580156117aa573d6000803e3d6000fd5b505050506040513d601f19601f820116820180604052508101906117ce9190614b78565b90935090506117dc8361237e565b91509193909250565b60006117ef612bf4565b9050826001600160a01b0316816001600160a01b03161461183657604051635284422b60e11b81526001600160a01b03808316600483015284166024820152604401610a30565b6040516301ffc9a760e01b81526334ce2c7b60e21b60048201526001600160a01b038416906301ffc9a790602401602060405180830381865afa158015611881573d6000803e3d6000fd5b505050506040513d601f19601f820116820180604052508101906118a59190614785565b80156119505750826001600160a01b03167f0000000000000000000000005adb234602d074064c216c1fdb23c6c2031f0c756001600160a01b0316635dd8f6aa846040518263ffffffff1660e01b815260040161190491815260200190565b602060405180830381865afa158015611921573d6000803e3d6000fd5b505050506040513d601f19601f820116820180604052508101906119459190614768565b6001600160a01b0316145b156119dd5760405163a312889b60e01b8152600481018390526001600160a01b0384169063a312889b90602401600060405180830381865afa15801561199a573d6000803e3d6000fd5b505050506040513d6000823e601f3d908101601f191682016040526119c29190810190614bab565b6000838152600160205260409020906119db9082614c3e565b505b505050565b600085600003611a055760405163064fae8d60e41b815260040160405180910390fd5b600080611a11896126d0565b6040516331a9108f60e11b8152600481018b9052909150611af3906001600160a01b037f0000000000000000000000009b52a59f108e36ce0a8eba595eca22dbadbe655f1690636352211e90602401602060405180830381865afa158015611a7d573d6000803e3d6000fd5b505050506040513d601f19601f82011682018060405250810190611aa19190614768565b8a6009611ab082611211612bf4565b80611adb575061010085015160521c6001600160a01b0316611ad0612bf4565b6001600160a01b0316145b8061121657506112168d86611aee612bf4565b612d05565b602081015165ffffffffffff1615801590611b1a575061010081015160461c600190811614155b8015611b2f5750611b2d89611211612bf4565b155b8015611b5c575061010081015160521c6001600160a01b0316611b50612bf4565b6001600160a01b031614155b8015611b725750611b708982611aee612bf4565b155b15611b9057604051632475c19d60e21b815260040160405180910390fd5b83611b9c576000611ba6565b61010081015160041c5b61ffff1691506127108214611c5357611bcd88611bc584612710614cfd565b612710612dad565b60405163aab68bdb60e01b81529093506001600160a01b037f00000000000000000000000094db7c71d9e4bcde99686be9570c68bf12708d3e169063aab68bdb90611c20908a908d908890600401614b1d565b600060405180830381600087803b158015611c3a57600080fd5b505af1158015611c4e573d6000803e3d6000fd5b505050505b88876001600160a01b03167fe6fee9c572244c0c2238c3112ac12d411750a7ee00eeebd32521c3e5a666c14b8a868a8a88611c8c612bf4565b604051611c9e96959493929190614d10565b60405180910390a38115611cda57611cb68389614cfd565b60008a81526020819052604081208054909190611cd49084906147d1565b90915550505b50509695505050505050565b6040516331a9108f60e11b815260048101859052611d7b907f0000000000000000000000009b52a59f108e36ce0a8eba595eca22dbadbe655f6001600160a01b031690636352211e90602401602060405180830381865afa158015611d4f573d6000803e3d6000fd5b505050506040513d601f19601f82011682018060405250810190611d739190614768565b8560116125b8565b60405163ed11595760e01b81526001600160a01b037f00000000000000000000000053a4354b7c6f83b0b2b7d559451a5180a410ab25169063ed11595790610982908790879087908790600401614d7e565b6040516331a9108f60e11b815260048101839052611e62907f0000000000000000000000009b52a59f108e36ce0a8eba595eca22dbadbe655f6001600160a01b031690636352211e90602401602060405180830381865afa158015611e36573d6000803e3d6000fd5b505050506040513d601f19601f82011682018060405250810190611e5a9190614768565b8360086125b8565b6000611e6d836126d0565b9050806020015165ffffffffffff16600003611e8f57611e8c83612cb0565b90505b61010081015160471c600190811614611ebb57604051631b6846ab60e01b815260040160405180910390fd5b60405163f12b64a560e01b8152600481018490526001600160a01b0383811660248301527f00000000000000000000000094db7c71d9e4bcde99686be9570c68bf12708d3e169063f12b64a590604401600060405180830381600087803b158015611f2557600080fd5b505af1158015611f39573d6000803e3d6000fd5b50505050505050565b6000838103611f6457604051632b72d06560e01b815260040160405180910390fd5b6040516331a9108f60e11b815260048101879052611ff9907f0000000000000000000000009b52a59f108e36ce0a8eba595eca22dbadbe655f6001600160a01b031690636352211e90602401602060405180830381865afa158015611fcd573d6000803e3d6000fd5b505050506040513d601f19601f82011682018060405250810190611ff19190614768565b8760026125b8565b6120048686866128da565b90507f24d02d612b06648bfa2000859f3de7e6f336139eaf5877c24b0d21320625286281878585612033612bf4565b604051612044959493929190614b3e565b60405180910390a195945050505050565b33301461206157600080fd5b6120756001600160a01b0386168886612e81565b60405163fef4325760e01b81526001600160a01b0388169063fef43257906120ae9089908990899089906000908a908a90600401614f07565b6020604051808303816000875af11580156120cd573d6000803e3d6000fd5b505050506040513d601f19601f820116820180604052508101906120f191906147a2565b50604051636eb1769f60e11b81523060048201526001600160a01b03888116602483015286169063dd62ed3e90604401602060405180830381865afa15801561213e573d6000803e3d6000fd5b505050506040513d601f19601f8201168201806040525081019061216291906147a2565b15611f3957611f39614f62565b6000818152602081905260408120549081900361219f576040516364d7bdaf60e01b815260040160405180910390fd5b60006121aa836126d0565b600084815260208190526040808220829055516331a9108f60e11b815260048101869052919250907f0000000000000000000000009b52a59f108e36ce0a8eba595eca22dbadbe655f6001600160a01b031690636352211e90602401602060405180830381865afa158015612223573d6000803e3d6000fd5b505050506040513d601f19601f820116820180604052508101906122479190614768565b90506000831561226f5761226a85846020015165ffffffffffff16600187612f3f565b612272565b60005b905080156122fd5760405163aab68bdb60e01b81526001600160a01b037f00000000000000000000000094db7c71d9e4bcde99686be9570c68bf12708d3e169063aab68bdb906122ca90859089908690600401614b1d565b600060405180830381600087803b1580156122e457600080fd5b505af11580156122f8573d6000803e3d6000fd5b505050505b84836000015165ffffffffffff16846020015165ffffffffffff167f32411cac611c47cfe73afc187645c9cf3aec828d5f91780138d8421378fc0edb858886612344612bf4565b604080516001600160a01b0395861681526020810194909452830191909152909116606082015260800160405180910390a4505050919050565b612386613a1f565b6040518061026001604052806123a184610100015160041c90565b61ffff1681526020016123b984610100015160141c90565b61ffff1681526020016123d184610100015160241c90565b63ffffffff1681526020016123f3846101000151600160449190911c81161490565b15158152602001612411846101000151600160459190911c81161490565b1515815260200161242f846101000151600160469190911c81161490565b1515815260200161244d846101000151600160479190911c81161490565b1515815260200161246b846101000151600160489190911c81161490565b15158152602001612489846101000151600160499190911c81161490565b151581526020016124a78461010001516001604a9190911c81161490565b151581526020016124c58461010001516001604b9190911c81161490565b151581526020016124e38461010001516001604c9190911c81161490565b151581526020016125018461010001516001604d9190911c81161490565b1515815260200161251f8461010001516001604e9190911c81161490565b1515815260200161253d8461010001516001604f9190911c81161490565b1515815260200161255b846101000151600160509190911c81161490565b15158152602001612579846101000151600160519190911c81161490565b1515815260200161258f84610100015160521c90565b6001600160a01b031681526020016125ac84610100015160f21c90565b61ffff16905292915050565b60006125c2612bf4565b9050836001600160a01b0316816001600160a01b0316141580156126915750604051631a45b42760e11b81526001600160a01b0382811660048301528581166024830152604482018590526064820184905260016084830181905260a48301527f0000000000000000000000004886c30c81a17a3a1084fd1812008fa0f71a20b9169063348b684e9060c401602060405180830381865afa15801561266b573d6000803e3d6000fd5b505050506040513d601f19601f8201168201806040525081019061268f9190614785565b155b156119db57604051631326f75560e11b81526001600160a01b038086166004830152821660248201526044810184905260648101839052608401610a30565b6126d86139d3565b6040516321d1336160e11b8152600481018390527f000000000000000000000000c052725ff9888ce3148aa8bfb5063f1a5028946d6001600160a01b0316906343a266c2906024015b61012060405180830381865afa15801561273f573d6000803e3d6000fd5b505050506040513d601f19601f820116820180604052508101906106e9919061474b565b6000816001600160401b0381111561277d5761277d6144f6565b6040519080825280602002602001820160405280156127a6578160200160208202803683370190505b50905060005b828110156128855760008484838181106127c8576127c8614aa8565b90506020028101906127da9190614f78565b6127e390614f98565b805160208201516040516304a6e43960e31b81529293506001600160a01b039091169163253721c89161281b918a9190600401615095565b600060405180830381600087803b15801561283557600080fd5b505af1158015612849573d6000803e3d6000fd5b50505050806000015183838151811061286457612864614aa8565b6001600160a01b0390921660209283029190910190910152506001016127ac565b5081156119db5760405163104373fb60e31b81526001600160a01b037f0000000000000000000000005adb234602d074064c216c1fdb23c6c2031f0c75169063821b9fd890610982908790859060040161510d565b6000805b82811015612bec5760008484838181106128fa576128fa614aa8565b905060200281019061290c9190615166565b61291590615649565b905061271061ffff168160a001516000015161ffff16111561295f5760a08101515160405163a162453f60e01b815261ffff90911660048201526127106024820152604401610a30565b61271061ffff168160a001516020015161ffff1611156129aa5760a0810151602001516040516318e037d360e11b815261ffff90911660048201526127106024820152604401610a30565b60007f000000000000000000000000c052725ff9888ce3148aa8bfb5063f1a5028946d6001600160a01b03166370174dcc8884602001518560400151866060015187608001516129fd8960a001516136c3565b895160405160e089901b6001600160e01b0319168152600481019790975263ffffffff95861660248801526001600160701b0390941660448701529390911660648501526001600160a01b0316608484015260a483019190915265ffffffffffff1660c482015260e401610120604051808303816000875af1158015612a87573d6000803e3d6000fd5b505050506040513d601f19601f82011682018060405250810190612aab919061474b565b602081015160c084015160405163ed11595760e01b81529293506001600160a01b037f00000000000000000000000053a4354b7c6f83b0b2b7d559451a5180a410ab25169263ed11595792612b04928c9260040161577e565b600060405180830381600087803b158015612b1e57600080fd5b505af1158015612b32573d6000803e3d6000fd5b505050602082015160e08401516040516323c620f360e21b81526001600160a01b037f000000000000000000000000348b92ce8584332df6272a348d4ddb14a5ec1dcc169350638f1883cc92612b8c928c92600401615897565b600060405180830381600087803b158015612ba657600080fd5b505af1158015612bba573d6000803e3d6000fd5b50612bcc925060019150879050614cfd565b8303612be257806020015165ffffffffffff1693505b50506001016128de565b509392505050565b6000612bfe61386d565b905090565b604051636e49181f60e01b8152600481018390526001600160a01b0382811660248301526000917f0000000000000000000000005adb234602d074064c216c1fdb23c6c2031f0c7590911690636e49181f90604401602060405180830381865afa158015612c75573d6000803e3d6000fd5b505050506040513d601f19601f82011682018060405250810190612c999190614785565b9392505050565b806119db576119db8484846125b8565b612cb86139d3565b604051631735e2c560e11b8152600481018390527f000000000000000000000000c052725ff9888ce3148aa8bfb5063f1a5028946d6001600160a01b031690632e6bc58a90602401612721565b600080612d1784610100015160521c90565b6001600160a01b031614158015612da5575061010083015160521c604051630cef9c1160e31b8152600481018690526001600160a01b038481166024830152919091169063677ce08890604401602060405180830381865afa158015612d81573d6000803e3d6000fd5b505050506040513d601f19601f82011682018060405250810190612da59190614785565b949350505050565b6000808060001985870985870292508281108382030391505080600003612de757838281612ddd57612ddd615945565b0492505050612c99565b838110612e1857604051630c740aef60e31b8152600481018790526024810186905260448101859052606401610a30565b60008486880960026001871981018816978890046003810283188082028403028082028403028082028403028082028403028082028403029081029092039091026000889003889004909101858311909403939093029303949094049190911702949350505050565b604080516001600160a01b038416602482015260448082018490528251808303909101815260649091019091526020810180516001600160e01b031663095ea7b360e01b179052612ed284826138e2565b6119db576040516001600160a01b03848116602483015260006044830152612f3591869182169063095ea7b3906064015b604051602081830303815290604052915060e01b6020820180516001600160e01b038381831617835250505050613931565b6119db8482613931565b6040516369e11cc560e01b815260048101859052602481018490526044810183905281906000907f00000000000000000000000053a4354b7c6f83b0b2b7d559451a5180a410ab256001600160a01b0316906369e11cc590606401600060405180830381865afa158015612fb7573d6000803e3d6000fd5b505050506040513d6000823e601f3d908101601f19168201604052612fdf919081019061595b565b805190915060005b818110156136b857600083828151811061300357613003614aa8565b60200260200101519050600061302e87836020015163ffffffff16633b9aca0063ffffffff16612dad565b905080156136695760a08201516001600160a01b0316156131fb5760a082015160405163aab68bdb60e01b81526001600160a01b037f00000000000000000000000094db7c71d9e4bcde99686be9570c68bf12708d3e169163aab68bdb9161309d91908e908690600401614b1d565b600060405180830381600087803b1580156130b757600080fd5b505af11580156130cb573d6000803e3d6000fd5b505060405163ea78803f60e01b8152600481018d9052600092507f00000000000000000000000094db7c71d9e4bcde99686be9570c68bf12708d3e6001600160a01b0316915063ea78803f90602401602060405180830381865afa158015613137573d6000803e3d6000fd5b505050506040513d601f19601f8201168201806040525081019061315b9190614768565b90508260a001516001600160a01b0316630dcdc5706040518060c00160405280846001600160a01b03168152602001858152602001601281526020018e81526020018c8152602001868152506040518263ffffffff1660e01b81526004016131c39190615a60565b600060405180830381600087803b1580156131dd57600080fd5b505af11580156131f1573d6000803e3d6000fd5b505050505061365c565b60608201516000906001600160a01b031661321d57613218612bf4565b613223565b82606001515b9050826040015166ffffffffffffff166000146135c55760405163ea78803f60e01b8152600481018c90526000907f00000000000000000000000094db7c71d9e4bcde99686be9570c68bf12708d3e6001600160a01b03169063ea78803f90602401602060405180830381865afa1580156132a2573d6000803e3d6000fd5b505050506040513d601f19601f820116820180604052508101906132c69190614768565b905060006001600160a01b0382161561337d576040858101519051630862026560e41b815266ffffffffffffff90911660048201526001600160a01b0383811660248301527f0000000000000000000000005adb234602d074064c216c1fdb23c6c2031f0c751690638620265090604401602060405180830381865afa158015613354573d6000803e3d6000fd5b505050506040513d601f19601f820116820180604052508101906133789190614768565b613380565b60005b90506001600160a01b038216158061339f57506001600160a01b038116155b1561342b577f00000000000000000000000094db7c71d9e4bcde99686be9570c68bf12708d3e6001600160a01b031663aab68bdb848f876040518463ffffffff1660e01b81526004016133f493929190614b1d565b600060405180830381600087803b15801561340e57600080fd5b505af1158015613422573d6000803e3d6000fd5b505050506135be565b7f00000000000000000000000094db7c71d9e4bcde99686be9570c68bf12708d3e6001600160a01b031663aab68bdb308f876040518463ffffffff1660e01b815260040161347b93929190614b1d565b600060405180830381600087803b15801561349557600080fd5b505af11580156134a9573d6000803e3d6000fd5b5050505060008d6040516020016134c291815260200190565b60408051601f198184030181528282529088015163fb61b4e360e01b8352909250309163fb61b4e3916135029186919088908b908b908990600401615ab4565b600060405180830381600087803b15801561351c57600080fd5b505af192505050801561352d575060015b6135bc573d80801561355b576040519150601f19603f3d011682016040523d82523d6000602084013e613560565b606091505b508e7f96c3ac00fad4cbb9b9ae8df2dbf20a95984c04efde99cdeeaae754dbb44106ce88888461358e612bf4565b60405161359e9493929190615b0a565b60405180910390a26135ba6001600160a01b03851686886139a2565b505b505b505061365a565b6001600160a01b03811661dead1461365a5760405163aab68bdb60e01b81526001600160a01b037f00000000000000000000000094db7c71d9e4bcde99686be9570c68bf12708d3e169063aab68bdb906136279084908f908790600401614b1d565b600060405180830381600087803b15801561364157600080fd5b505af1158015613655573d6000803e3d6000fd5b505050505b505b6136668187614cfd565b95505b87898b7f61e0b98c9423afbd069cc95184e80d30166d0e9a3f747259d6a434491f478e228585613697612bf4565b6040516136a693929190615b4c565b60405180910390a45050600101612fe7565b505050949350505050565b6000600190506004826000015161ffff16901b811790506014826020015161ffff16901b811790506024826040015163ffffffff16901b811790508160600151156137145768100000000000000000175b81608001511561372a5768200000000000000000175b8160a00151156137405768400000000000000000175b8160c00151156137565768800000000000000000175b8160e001511561376d576901000000000000000000175b81610100015115613785576902000000000000000000175b8161012001511561379d576904000000000000000000175b816101400151156137b5576908000000000000000000175b816101600151156137cd576910000000000000000000175b816101800151156137e5576920000000000000000000175b816101a00151156137fd576940000000000000000000175b816101c0015115613815576980000000000000000000175b816101e001511561382757600160501b175b8161020001511561383957600160511b175b6102208201516102409092015160529290921b600160521b600160f21b03161760f29190911b6001600160f21b0319161790565b6000366014336001600160a01b037f000000000000000000000000b2b5841dbef766d4b521221732f9b618fcf34a87161480156138aa5750808210155b156138da576000366138bc8385614cfd565b6138c7928290615b7a565b6138d091615ba4565b60601c9250505090565b339250505090565b6000806000806020600086516020880160008a5af192503d91506000519050828015613927575081156139185780600114613927565b6000866001600160a01b03163b115b9695505050505050565b600080602060008451602086016000885af180613954576040513d6000823e3d81fd5b50506000513d9150811561396c578060011415613979565b6001600160a01b0384163b155b156119db57604051635274afe760e01b81526001600160a01b0385166004820152602401610a30565b6040516001600160a01b038381166024830152604482018390526119dd91859182169063a9059cbb90606401612f03565b6040805161012081018252600080825260208201819052918101829052606081018290526080810182905260a0810182905260c0810182905260e0810182905261010081019190915290565b6040805161026081018252600080825260208201819052918101829052606081018290526080810182905260a0810182905260c0810182905260e08101829052610100810182905261012081018290526101408101829052610160810182905261018081018290526101a081018290526101c081018290526101e081018290526102008101829052610220810182905261024081019190915290565b6040518060400160405280613ace6139d3565b8152602001613adb613a1f565b905290565b600060208284031215613af257600080fd5b81356001600160e01b031981168114612c9957600080fd5b600060208284031215613b1c57600080fd5b5035919050565b60008060408385031215613b3657600080fd5b50508035926020909101359150565b65ffffffffffff808251168352806020830151166020840152806040830151166040840152506060810151613b84606084018265ffffffffffff169052565b506080810151613b9c608084018263ffffffff169052565b5060a0810151613bb760a08401826001600160701b03169052565b5060c0810151613bcf60c084018263ffffffff169052565b5060e0810151613bea60e08401826001600160a01b03169052565b5061010090810151910152565b805161ffff1682526020810151613c14602084018261ffff169052565b506040810151613c2c604084018263ffffffff169052565b506060810151613c40606084018215159052565b506080810151613c54608084018215159052565b5060a0810151613c6860a084018215159052565b5060c0810151613c7c60c084018215159052565b5060e0810151613c9060e084018215159052565b5061010081810151151590830152610120808201511515908301526101408082015115159083015261016080820151151590830152610180808201511515908301526101a0808201511515908301526101c0808201511515908301526101e08082015115159083015261020080820151151590830152610220808201516001600160a01b0316908301526102408082015161ffff8116828501526119db565b6103808101613d3e8285613b45565b612c99610120830184613bf7565b6001600160a01b0381168114613d6157600080fd5b50565b60008060008060808587031215613d7a57600080fd5b8435935060208501359250604085013591506060850135613d9a81613d4c565b939692955090935050565b8035613db081613d4c565b919050565b60008060008060808587031215613dcb57600080fd5b8435613dd681613d4c565b935060208501359250604085013591506060850135613d9a81613d4c565b60008060408385031215613e0757600080fd5b823591506020830135613e1981613d4c565b809150509250929050565b60008083601f840112613e3657600080fd5b5081356001600160401b03811115613e4d57600080fd5b602083019150836020828501011115613e6557600080fd5b9250929050565b60008083601f840112613e7e57600080fd5b5081356001600160401b03811115613e9557600080fd5b6020830191508360208260051b8501011115613e6557600080fd5b600080600080600080600080600060a08a8c031215613ece57600080fd5b8935613ed981613d4c565b985060208a01356001600160401b0380821115613ef557600080fd5b613f018d838e01613e24565b909a50985060408c0135915080821115613f1a57600080fd5b613f268d838e01613e6c565b909850965060608c0135915080821115613f3f57600080fd5b613f4b8d838e01613e6c565b909650945060808c0135915080821115613f6457600080fd5b50613f718c828d01613e24565b915080935050809150509295985092959850929598565b600060208284031215613f9a57600080fd5b8135612c9981613d4c565b60008060008060008060808789031215613fbe57600080fd5b8635955060208701356001600160401b0380821115613fdc57600080fd5b613fe88a838b01613e24565b9097509550604089013591508082111561400157600080fd5b5061400e89828a01613e24565b979a9699509497949695606090950135949350505050565b60008060006060848603121561403b57600080fd5b505081359360208301359350604090920135919050565b6020808252825182820181905260009190848201906040850190845b818110156140a9578351614083848251613b45565b850151614094610120850182613bf7565b5092840192610380929092019160010161406e565b50909695505050505050565b6000806000604084860312156140ca57600080fd5b8335925060208401356001600160401b038111156140e757600080fd5b6140f386828701613e24565b9497909650939450505050565b60008060008060006080868803121561411857600080fd5b853561412381613d4c565b9450602086013593506040860135925060608601356001600160401b0381111561414c57600080fd5b61415888828901613e24565b969995985093965092949392505050565b60005b8381101561418457818101518382015260200161416c565b50506000910152565b600081518084526141a5816020860160208601614169565b601f01601f19169290920160200192915050565b602081526000612c99602083018461418d565b60008060008060008060006080888a0312156141e757600080fd5b8735965060208801356001600160401b038082111561420557600080fd5b6142118b838c01613e6c565b909850965060408a013591508082111561422a57600080fd5b6142368b838c01613e6c565b909650945060608a013591508082111561424f57600080fd5b5061425c8a828b01613e24565b989b979a50959850939692959293505050565b6000806000806080858703121561428557600080fd5b843561429081613d4c565b93506020850135925060408501356142a781613d4c565b9396929550929360600135925050565b6103a081016142c68286613b45565b6142d4610120830185613bf7565b600683106142f257634e487b7160e01b600052602160045260246000fd5b82610380830152949350505050565b6000806040838503121561431457600080fd5b823561431f81613d4c565b946020939093013593505050565b8015158114613d6157600080fd5b8035613db08161432d565b60008060008060008060a0878903121561435f57600080fd5b8635955060208701359450604087013561437881613d4c565b935060608701356001600160401b0381111561439357600080fd5b61439f89828a01613e24565b90945092505060808701356143b38161432d565b809150509295509295509295565b600080600080606085870312156143d757600080fd5b843593506020850135925060408501356001600160401b038111156143fb57600080fd5b61440787828801613e6c565b95989497509550505050565b60008060008060006060868803121561442b57600080fd5b8535945060208601356001600160401b038082111561444957600080fd5b61445589838a01613e6c565b9096509450604088013591508082111561446e57600080fd5b5061415888828901613e24565b600080600080600080600060c0888a03121561449657600080fd5b87356144a181613d4c565b96506020880135955060408801356144b881613d4c565b94506060880135935060808801356144cf81613d4c565b925060a08801356001600160401b038111156144ea57600080fd5b61425c8a828b01613e24565b634e487b7160e01b600052604160045260246000fd5b60405161012081016001600160401b038111828210171561452f5761452f6144f6565b60405290565b604080519081016001600160401b038111828210171561452f5761452f6144f6565b604051606081016001600160401b038111828210171561452f5761452f6144f6565b60405161026081016001600160401b038111828210171561452f5761452f6144f6565b60405160c081016001600160401b038111828210171561452f5761452f6144f6565b604051608081016001600160401b038111828210171561452f5761452f6144f6565b60405161010081016001600160401b038111828210171561452f5761452f6144f6565b604051601f8201601f191681016001600160401b038111828210171561462b5761462b6144f6565b604052919050565b65ffffffffffff81168114613d6157600080fd5b8051613db081614633565b63ffffffff81168114613d6157600080fd5b8051613db081614652565b6001600160701b0381168114613d6157600080fd5b8051613db08161466f565b8051613db081613d4c565b600061012082840312156146ad57600080fd5b6146b561450c565b90506146c082614647565b81526146ce60208301614647565b60208201526146df60408301614647565b60408201526146f060608301614647565b606082015261470160808301614664565b608082015261471260a08301614684565b60a082015261472360c08301614664565b60c082015261473460e0830161468f565b60e082015261010080830151818301525092915050565b6000610120828403121561475e57600080fd5b612c99838361469a565b60006020828403121561477a57600080fd5b8151612c9981613d4c565b60006020828403121561479757600080fd5b8151612c998161432d565b6000602082840312156147b457600080fd5b5051919050565b634e487b7160e01b600052601160045260246000fd5b808201808211156106e9576106e96147bb565b600181811c908216806147f857607f821691505b60208210810361481857634e487b7160e01b600052602260045260246000fd5b50919050565b601f8211156119dd576000816000526020600020601f850160051c810160208610156148475750805b601f850160051c820191505b81811015610b6b57828155600101614853565b6001600160401b0383111561487d5761487d6144f6565b6148918361488b83546147e4565b8361481e565b6000601f8411600181146148c557600085156148ad5750838201355b600019600387901b1c1916600186901b17835561491f565b600083815260209020601f19861690835b828110156148f657868501358255602094850194600190920191016148d6565b50868210156149135760001960f88860031b161c19848701351681555b505060018560011b0183555b5050505050565b81835281816020850137506000828201602090810191909152601f909101601f19169091010190565b87815286602082015260a06040820152600061496f60a083018789614926565b8281036060840152614982818688614926565b91505060018060a01b038316608083015298975050505050505050565b8681526080602082015260006149b9608083018789614926565b82810360408401526149cc818688614926565b915050826060830152979650505050505050565b60006001600160401b038211156149f9576149f96144f6565b5060051b60200190565b60006020808385031215614a1657600080fd5b82516001600160401b03811115614a2c57600080fd5b8301601f81018513614a3d57600080fd5b8051614a50614a4b826149e0565b614603565b808282526020820191506101206020818502860101935088841115614a7457600080fd5b6020850194505b83851015614a9c57614a8d898661469a565b83529384019391850191614a7b565b50979650505050505050565b634e487b7160e01b600052603260045260246000fd5b604081526000614ad2604083018587614926565b905060018060a01b0383166020830152949350505050565b848152606060208201526000614b04606083018587614926565b905060018060a01b038316604083015295945050505050565b6001600160a01b039390931683526020830191909152604082015260600190565b858152846020820152608060408201526000614b5e608083018587614926565b905060018060a01b03831660608301529695505050505050565b6000806101408385031215614b8c57600080fd5b614b96848461469a565b915061012083015160068110613e1957600080fd5b600060208284031215614bbd57600080fd5b81516001600160401b0380821115614bd457600080fd5b818401915084601f830112614be857600080fd5b815181811115614bfa57614bfa6144f6565b614c0d601f8201601f1916602001614603565b9150808252856020828501011115614c2457600080fd5b614c35816020840160208601614169565b50949350505050565b81516001600160401b03811115614c5757614c576144f6565b614c6b81614c6584546147e4565b8461481e565b602080601f831160018114614ca05760008415614c885750858301515b600019600386901b1c1916600185901b178555610b6b565b600085815260208120601f198616915b82811015614ccf57888601518255948401946001909101908401614cb0565b5085821015614ced5787850151600019600388901b60f8161c191681555b5050505050600190811b01905550565b818103818111156106e9576106e96147bb565b86815285602082015260a060408201526000614d3060a083018688614926565b6060830194909452506001600160a01b0391909116608090910152949350505050565b8035613db081614652565b66ffffffffffffff81168114613d6157600080fd5b8035613db081614633565b6000606080830187845260208781860152604060606040870152828784526080935060808701905060808860051b8801018960005b8a811015614ef557898303607f190184528135368d9003603e19018112614dd957600080fd5b8c01803584528386018782013536839003601e19018112614df957600080fd5b9091018781019190356001600160401b03811115614e1657600080fd5b60c08082023603841315614e2957600080fd5b868a01899052918190526000918b87015b82841015614edf578435614e4d8161432d565b15158152848b0135614e5e81614652565b63ffffffff16818c0152848a0135614e7581614d5e565b66ffffffffffffff16818b0152848d0135614e8f81613d4c565b6001600160a01b0316818e0152614ea7858d01614d73565b65ffffffffffff168c82015260a0614ec0868201613da5565b6001600160a01b03169082015293810193600193909301928101614e3a565b978a019796505050928701925050600101614db3565b50909c9b505050505050505050505050565b878152600060018060a01b03808916602084015287604084015280871660608401525084608083015260e060a0830152600060e08301526101008060c0840152614f548184018587614926565b9a9950505050505050505050565b634e487b7160e01b600052600160045260246000fd5b60008235603e19833603018112614f8e57600080fd5b9190910192915050565b60006040808336031215614fab57600080fd5b614fb3614535565b8335614fbe81613d4c565b81526020848101356001600160401b03811115614fda57600080fd5b850136601f820112614feb57600080fd5b8035614ff9614a4b826149e0565b8181526060918202830184019184820191903684111561501857600080fd5b938501935b83851015615082578085360312156150355760008081fd5b61503d614557565b853561504881613d4c565b81528587013560ff8116811461505e5760008081fd5b818801528589013561506f81614652565b818a01528352938401939185019161501d565b5093850193909352509195945050505050565b60006040808301858452602060406020860152818651808452606093506060870191506020880160005b828110156150fe57815180516001600160a01b031685528581015160ff168686015287015163ffffffff168785015292850192908401906001016150bf565b50919998505050505050505050565b60006040820184835260206040602085015281855180845260608601915060208701935060005b818110156151595784516001600160a01b031683529383019391830191600101615134565b5090979650505050505050565b6000823561033e19833603018112614f8e57600080fd5b8035613db08161466f565b803561ffff81168114613db057600080fd5b600061026082840312156151ad57600080fd5b6151b5614579565b90506151c082615188565b81526151ce60208301615188565b60208201526151df60408301614d53565b60408201526151f06060830161433b565b60608201526152016080830161433b565b608082015261521260a0830161433b565b60a082015261522360c0830161433b565b60c082015261523460e0830161433b565b60e082015261010061524781840161433b565b9082015261012061525983820161433b565b9082015261014061526b83820161433b565b9082015261016061527d83820161433b565b9082015261018061528f83820161433b565b908201526101a06152a183820161433b565b908201526101c06152b383820161433b565b908201526101e06152c583820161433b565b908201526102006152d783820161433b565b908201526102206152e9838201613da5565b908201526102406152fb838201615188565b9082015292915050565b600082601f83011261531657600080fd5b81356020615326614a4b836149e0565b82815260059290921b8401810191818101908684111561534557600080fd5b8286015b848110156154995780356001600160401b038082111561536857600080fd5b908801906040828b03601f190181131561538157600080fd5b615389614535565b87840135815281840135838111156153a057600080fd5b8085019450508b603f8501126153b557600080fd5b8784013592506153c7614a4b846149e0565b83815260c09093028401820192888101908d8511156153e557600080fd5b948301945b848610156154845760c0868f03121561540257600080fd5b61540a61459c565b86356154158161432d565b8152868b013561542481614652565b818c01528685013561543581614d5e565b81860152606087013561544781613d4c565b6060820152608087013561545a81614633565b608082015260a087013561546d81613d4c565b60a0820152825260c09590950194908901906153ea565b828a0152508652505050918301918301615349565b509695505050505050565b600082601f8301126154b557600080fd5b813560206154c5614a4b836149e0565b82815260069290921b840181019181810190868411156154e457600080fd5b8286015b8481101561549957604081890312156155015760008081fd5b615509614535565b81356001600160e01b03811681146155215760008081fd5b81528185013561553081614652565b818601528352918301916040016154e8565b600082601f83011261555357600080fd5b81356020615563614a4b836149e0565b82815260059290921b8401810191818101908684111561558257600080fd5b8286015b848110156154995780356001600160401b03808211156155a65760008081fd5b908801906080828b03601f19018113156155c05760008081fd5b6155c86145be565b878401356155d581613d4c565b81526040848101356155e681613d4c565b828a0152606085810135858111156155fe5760008081fd5b61560c8f8c838a01016154a4565b848401525092850135928484111561562657600091508182fd5b6156348e8b868901016154a4565b90830152508652505050918301918301615586565b6000610340823603121561565c57600080fd5b6156646145e0565b61566d83614d73565b815261567b60208401614d53565b602082015261568c6040840161517d565b604082015261569d60608401614d53565b60608201526156ae60808401613da5565b60808201526156c03660a0850161519a565b60a08201526103008301356001600160401b03808211156156e057600080fd5b6156ec36838701615305565b60c084015261032085013591508082111561570657600080fd5b5061571336828601615542565b60e08301525092915050565b80511515825260208082015163ffffffff169083015260408082015166ffffffffffffff16908301526060808201516001600160a01b039081169184019190915260808083015165ffffffffffff169084015260a09182015116910152565b60006060808301868452602065ffffffffffff87168186015260406060604087015282875180855260808801915060808160051b89010194508389016000805b8381101561582f578a8803607f190185528251805189528701518789018790528051878a018190529088019083908b8b01905b8083101561581a5761580482855161571f565b60c0820191508a840193506001830192506157f1565b509950505093860193918601916001016157be565b50959c9b505050505050505050505050565b60008151808452602080850194506020840160005b8381101561588c57815180516001600160e01b0316885283015163ffffffff168388015260409096019590820190600101615856565b509495945050505050565b60006060808301868452602065ffffffffffff8716818601526040606060408701528287518085526080945060808801915060808160051b890101848a0160005b83811015614ef5578a8303607f19018552815180516001600160a01b039081168552888201511688850152868101518785018a90526159198a860182615841565b918b0151858303868d01529190506159318183615841565b9689019694505050908601906001016158d8565b634e487b7160e01b600052601260045260246000fd5b6000602080838503121561596e57600080fd5b82516001600160401b0381111561598457600080fd5b8301601f8101851361599557600080fd5b80516159a3614a4b826149e0565b81815260c091820283018401918482019190888411156159c257600080fd5b938501935b83851015614a9c5780858a0312156159df5760008081fd5b6159e761459c565b85516159f28161432d565b815285870151615a0181614652565b81880152604086810151615a1481614d5e565b90820152606086810151615a2781613d4c565b90820152608086810151615a3a81614633565b9082015260a086810151615a4d81613d4c565b90820152835293840193918501916159c7565b81516001600160a01b031681526020808301519082015260408083015190820152606080830151908201526080808301519082015260a082810151610160830191615aad9084018261571f565b5092915050565b6001600160a01b03878116825266ffffffffffffff871660208301528581166040830152606082018590528316608082015260c060a08201819052600090615afe9083018461418d565b98975050505050505050565b6000610120615b19838861571f565b8560c08401528060e0840152615b318184018661418d565b91505060018060a01b03831661010083015295945050505050565b6101008101615b5b828661571f565b60c08201939093526001600160a01b039190911660e090910152919050565b60008085851115615b8a57600080fd5b83861115615b9757600080fd5b5050820193919092039150565b6bffffffffffffffffffffffff198135818116916014851015615bd15780818660140360031b1b83161692505b50509291505056fea26469706673582212208af42d00f7981f66c26abedd3927bf989169ec7af620c009abc435c2e790d54964736f6c63430008170033",
	"devdoc": {
		"kind": "dev",
		"methods": {
			"addPriceFeed(uint256,uint256,uint256,address)": {
				"details": "Can only be called by the project's owner or an address with the owner's permission to `ADD_PRICE_FEED`.",
				"params": {
					"feed": "The address of the price feed to add.",
					"pricingCurrency": "The currency the feed's output price is in terms of.",
					"projectId": "The ID of the project to add the feed for.",
					"unitCurrency": "The currency being priced by the feed."
				}
			},
			"allRulesetsOf(uint256,uint256,uint256)": {
				"params": {
					"projectId": "The ID of the project to get the rulesets of.",
					"size": "The maximum number of rulesets to return.",
					"startingId": "The ID of the ruleset to begin with. This will be the latest ruleset in the result. If the `startingId` is 0, passed, the project's latest ruleset will be used."
				},
				"returns": {
					"rulesets": "The array of rulesets with their metadata."
				}
			},
			"burnTokensOf(address,uint256,uint256,string)": {
				"details": "Can only be called by the holder, an address with the holder's permission to `BURN_TOKENS`, or a project's terminal.",
				"params": {
					"holder": "The address whose tokens are being burned.",
					"memo": "A memo to pass along to the emitted event.",
					"projectId": "The ID of the project whose tokens are being burned.",
					"tokenCount": "The number of tokens to burn."
				}
			},
			"claimTokensFor(address,uint256,uint256,address)": {
				"details": "Can only be called by the credit holder or an address with the holder's permission to `CLAIM_TOKENS`.",
				"params": {
					"beneficiary": "The account the claimed tokens will go to.",
					"holder": "The address to redeem credits from.",
					"projectId": "The ID of the project whose tokens are being claimed.",
					"tokenCount": "The number of tokens to claim."
				}
			},
			"constructor": {
				"params": {
					"directory": "A contract storing directories of terminals and controllers for each project.",
					"fundAccessLimits": "A contract that stores fund access limits for each project.",
					"permissions": "A contract storing permissions.",
					"prices": "A contract that stores prices for each project.",
					"projects": "A contract which mints ERC-721s that represent project ownership and transfers.",
					"rulesets": "A contract storing and managing project rulesets.",
					"splits": "A contract that stores splits for each project.",
					"tokens": "A contract that manages token minting and burning."
				}
			},
			"currentRulesetOf(uint256)": {
				"params": {
					"projectId": "The ID of the project to get the current ruleset of."
				},
				"returns": {
					"metadata": "The current ruleset's metadata.",
					"ruleset": "The current ruleset's struct."
				}
			},
			"deployERC20For(uint256,string,string,bytes32)": {
				"details": "Deploys the project's ERC-20 contract.Can only be called by the project's owner or an address with the owner's permission to `DEPLOY_ERC20`.",
				"params": {
					"name": "The ERC-20's name.",
					"projectId": "The ID of the project to deploy the ERC-20 for.",
					"salt": "The salt used for ERC-1167 clone deployment. Pass a non-zero salt for deterministic deployment based on `msg.sender` and the `TOKEN` implementation address.",
					"symbol": "The ERC-20's symbol."
				},
				"returns": {
					"token": "The address of the token that was deployed."
				}
			},
			"executePayReservedTokenToTerminal(address,uint256,address,uint256,address,bytes)": {
				"details": "Can only be called by this controller.",
				"params": {
					"beneficiary": "The payment's beneficiary.",
					"metadata": "The pay metadata sent to the terminal.",
					"projectId": "The ID of the project being paid.",
					"splitTokenCount": "The number of tokens being paid.",
					"terminal": "The terminal to pay.",
					"token": "The token being paid with."
				}
			},
			"getRulesetOf(uint256,uint256)": {
				"params": {
					"projectId": "The ID of the project the ruleset belongs to."
				},
				"returns": {
					"metadata": "The ruleset's metadata.",
					"ruleset": "The ruleset's struct."
				}
			},
			"isTrustedForwarder(address)": {
				"details": "Indicates whether any particular address is the trusted forwarder."
			},
			"latestQueuedRulesetOf(uint256)": {
				"details": "The 'latest queued ruleset' is the ruleset initialized furthest in the future (at the end of the ruleset queue).",
				"params": {
					"projectId": "The ID of the project to get the latest ruleset of."
				},
				"returns": {
					"approvalStatus": "The ruleset's approval status.",
					"metadata": "The ruleset's metadata.",
					"ruleset": "The struct for the project's latest queued ruleset."
				}
			},
			"launchProjectFor(address,string,(uint48,uint32,uint112,uint32,address,(uint16,uint16,uint32,bool,bool,bool,bool,bool,bool,bool,bool,bool,bool,bool,bool,bool,bool,address,uint16),(uint256,(bool,uint32,uint56,address,uint48,address)[])[],(address,address,(uint224,uint32)[],(uint224,uint32)[])[])[],(address,(address,uint8,uint32)[])[],string)": {
				"details": "This will mint the project's ERC-721 to the `owner`'s address, queue the specified rulesets, and set up the specified splits and terminals. Each operation within this transaction can be done in sequence separately.Anyone can deploy a project to any `owner`'s address.",
				"params": {
					"memo": "A memo to pass along to the emitted event.",
					"owner": "The project's owner. The project ERC-721 will be minted to this address.",
					"projectUri": "The project's metadata URI. This is typically an IPFS hash, optionally with the `ipfs://` prefix. This can be updated by the project's owner.",
					"rulesetConfigurations": "The rulesets to queue.",
					"terminalConfigurations": "The terminals to set up for the project."
				},
				"returns": {
					"projectId": "The project's ID."
				}
			},
			"launchRulesetsFor(uint256,(uint48,uint32,uint112,uint32,address,(uint16,uint16,uint32,bool,bool,bool,bool,bool,bool,bool,bool,bool,bool,bool,bool,bool,bool,address,uint16),(uint256,(bool,uint32,uint56,address,uint48,address)[])[],(address,address,(uint224,uint32)[],(uint224,uint32)[])[])[],(address,(address,uint8,uint32)[])[],string)": {
				"details": "Each operation within this transaction can be done in sequence separately.Can only be called by the project's owner or an address with the owner's permission to `QUEUE_RULESETS`.",
				"params": {
					"memo": "A memo to pass along to the emitted event.",
					"projectId": "The ID of the project to launch rulesets for.",
					"rulesetConfigurations": "The rulesets to queue.",
					"terminalConfigurations": "The terminals to set up."
				},
				"returns": {
					"rulesetId": "The ID of the last successfully queued ruleset."
				}
			},
			"migrate(uint256,address)": {
				"details": "Can only be called by the directory.",
				"params": {
					"projectId": "The ID of the project to migrate.",
					"to": "The controller to migrate the project to."
				}
			},
			"mintTokensOf(uint256,uint256,address,string,bool)": {
				"details": "Can only be called by the project's owner, an address with the owner's permission to `MINT_TOKENS`, one of the project's terminals, or the project's data hook.If the ruleset's metadata has `allowOwnerMinting` set to `false`, this function can only be called by the project's terminals or data hook.",
				"params": {
					"beneficiary": "The address which will receive the (non-reserved) tokens.",
					"memo": "A memo to pass along to the emitted event.",
					"projectId": "The ID of the project whose tokens are being minted.",
					"tokenCount": "The number of tokens to mint, including any reserved tokens.",
					"useReservedPercent": "Whether to apply the ruleset's reserved percent."
				},
				"returns": {
					"beneficiaryTokenCount": "The number of tokens minted for the `beneficiary`."
				}
			},
			"queueRulesetsOf(uint256,(uint48,uint32,uint112,uint32,address,(uint16,uint16,uint32,bool,bool,bool,bool,bool,bool,bool,bool,bool,bool,bool,bool,bool,bool,address,uint16),(uint256,(bool,uint32,uint56,address,uint48,address)[])[],(address,address,(uint224,uint32)[],(uint224,uint32)[])[])[],string)": {
				"details": "Can only be called by the project's owner or an address with the owner's permission to `QUEUE_RULESETS`.",
				"params": {
					"memo": "A memo to pass along to the emitted event.",
					"projectId": "The ID of the project to queue rulesets for.",
					"rulesetConfigurations": "The rulesets to queue."
				},
				"returns": {
					"rulesetId": "The ID of the last ruleset which was successfully queued."
				}
			},
			"receiveMigrationFrom(address,uint256)": {
				"details": "This controller should not be the project's controller yet.",
				"params": {
					"from": "The controller being migrated from.",
					"projectId": "The ID of the project that will migrate to this controller."
				}
			},
			"sendReservedTokensToSplitsOf(uint256)": {
				"details": "If the project has no reserved token splits, or if they don't add up to 100%, leftover tokens are sent to the project's owner.",
				"params": {
					"projectId": "The ID of the project to send reserved tokens for."
				},
				"returns": {
					"_0": "The amount of reserved tokens minted and sent."
				}
			},
			"setControllerAllowed(uint256)": {
				"params": {
					"projectId": "The ID of the project to check."
				},
				"returns": {
					"_0": "A `bool` which is true if the project allows controllers to be set."
				}
			},
			"setSplitGroupsOf(uint256,uint256,(uint256,(bool,uint32,uint56,address,uint48,address)[])[])": {
				"details": "Can only be called by the project's owner or an address with the owner's permission to `SET_SPLIT_GROUPS`.",
				"params": {
					"projectId": "The ID of the project to set the split groups of.",
					"rulesetId": "The ID of the ruleset the split groups should be active in. Use a `rulesetId` of 0 to set the default split groups, which are used when a ruleset has no splits set. If there are no default splits and no splits are set, all splits are sent to the project's owner.",
					"splitGroups": "An array of split groups to set."
				}
			},
			"setTerminalsAllowed(uint256)": {
				"params": {
					"projectId": "The ID of the project to check."
				},
				"returns": {
					"_0": "A `bool` which is true if the project allows terminals to be set."
				}
			},
			"setTokenFor(uint256,address)": {
				"details": "Can only be called by the project's owner or an address with the owner's permission to `SET_TOKEN`.",
				"params": {
					"projectId": "The ID of the project to set the token of.",
					"token": "The new token's address."
				}
			},
			"setUriOf(uint256,string)": {
				"details": "This is typically an IPFS hash, optionally with an `ipfs://` prefix.Can only be called by the project's owner or an address with the owner's permission to `SET_PROJECT_URI`.",
				"params": {
					"projectId": "The ID of the project to set the metadata URI of.",
					"uri": "The metadata URI to set."
				}
			},
			"supportsInterface(bytes4)": {
				"details": "See {IERC165-supportsInterface}.",
				"params": {
					"interfaceId": "The ID of the interface to check for adherence to."
				},
				"returns": {
					"_0": "A flag indicating if the provided interface ID is supported."
				}
			},
			"totalTokenSupplyWithReservedTokensOf(uint256)": {
				"params": {
					"projectId": "The ID of the project to get the total token supply of."
				},
				"returns": {
					"_0": "The total supply of the project's token, including pending reserved tokens."
				}
			},
			"transferCreditsFrom(address,uint256,address,uint256)": {
				"details": "Can only be called by the credit holder or an address with the holder's permission to `TRANSFER_CREDITS`.",
				"params": {
					"creditCount": "The number of credits to transfer.",
					"holder": "The address to transfer credits from.",
					"projectId": "The ID of the project whose credits are being transferred.",
					"recipient": "The address to transfer credits to."
				}
			},
			"trustedForwarder()": {
				"details": "Returns the address of the trusted forwarder."
			},
			"upcomingRulesetOf(uint256)": {
				"details": "If an upcoming ruleset isn't found, returns an empty ruleset with all properties set to 0.",
				"params": {
					"projectId": "The ID of the project to get the next ruleset of."
				},
				"returns": {
					"metadata": "The upcoming ruleset's metadata.",
					"ruleset": "The upcoming ruleset's struct."
				}
			}
		},
		"version": 1
	},
	"userdoc": {
		"kind": "user",
		"methods": {
			"DIRECTORY()": {
				"notice": "The directory of terminals and controllers for projects."
			},
			"FUND_ACCESS_LIMITS()": {
				"notice": "A contract that stores fund access limits for each project."
			},
			"PERMISSIONS()": {
				"notice": "A contract storing permissions."
			},
			"PRICES()": {
				"notice": "A contract that stores prices for each project."
			},
			"PROJECTS()": {
				"notice": "Mints ERC-721s that represent project ownership and transfers."
			},
			"RULESETS()": {
				"notice": "The contract storing and managing project rulesets."
			},
			"SPLITS()": {
				"notice": "The contract that stores splits for each project."
			},
			"TOKENS()": {
				"notice": "The contract that manages token minting and burning."
			},
			"addPriceFeed(uint256,uint256,uint256,address)": {
				"notice": "Add a price feed for a project."
			},
			"allRulesetsOf(uint256,uint256,uint256)": {
				"notice": "Get an array of a project's rulesets (with metadata) up to a maximum array size, sorted from latest to earliest."
			},
			"burnTokensOf(address,uint256,uint256,string)": {
				"notice": "Burns a project's tokens or credits from the specific holder's balance."
			},
			"claimTokensFor(address,uint256,uint256,address)": {
				"notice": "Redeem credits to claim tokens into a `beneficiary`'s account."
			},
			"currentRulesetOf(uint256)": {
				"notice": "A project's currently active ruleset and its metadata."
			},
			"deployERC20For(uint256,string,string,bytes32)": {
				"notice": "Deploys an ERC-20 token for a project. It will be used when claiming tokens (with credits)."
			},
			"executePayReservedTokenToTerminal(address,uint256,address,uint256,address,bytes)": {
				"notice": "When a project receives reserved tokens, if it has a terminal for the token, this is used to pay the terminal."
			},
			"getRulesetOf(uint256,uint256)": {
				"notice": "Get the `JBRuleset` and `JBRulesetMetadata` corresponding to the specified `rulesetId`."
			},
			"latestQueuedRulesetOf(uint256)": {
				"notice": "Gets the latest ruleset queued for a project, its approval status, and its metadata."
			},
			"launchProjectFor(address,string,(uint48,uint32,uint112,uint32,address,(uint16,uint16,uint32,bool,bool,bool,bool,bool,bool,bool,bool,bool,bool,bool,bool,bool,bool,address,uint16),(uint256,(bool,uint32,uint56,address,uint48,address)[])[],(address,address,(uint224,uint32)[],(uint224,uint32)[])[])[],(address,(address,uint8,uint32)[])[],string)": {
				"notice": "Creates a project."
			},
			"launchRulesetsFor(uint256,(uint48,uint32,uint112,uint32,address,(uint16,uint16,uint32,bool,bool,bool,bool,bool,bool,bool,bool,bool,bool,bool,bool,bool,bool,address,uint16),(uint256,(bool,uint32,uint56,address,uint48,address)[])[],(address,address,(uint224,uint32)[],(uint224,uint32)[])[])[],(address,(address,uint8,uint32)[])[],string)": {
				"notice": "Queue a project's initial rulesets and set up terminals for it. Projects which already have rulesets should use `queueRulesetsOf(...)`."
			},
			"migrate(uint256,address)": {
				"notice": "Migrate a project from this controller to another one."
			},
			"mintTokensOf(uint256,uint256,address,string,bool)": {
				"notice": "Add new project tokens or credits to the specified beneficiary's balance. Optionally, reserve a portion according to the ruleset's reserved percent."
			},
			"pendingReservedTokenBalanceOf(uint256)": {
				"notice": "A project's unrealized reserved token balance (i.e. reserved tokens which haven't been sent out to the reserved token split group yet)."
			},
			"queueRulesetsOf(uint256,(uint48,uint32,uint112,uint32,address,(uint16,uint16,uint32,bool,bool,bool,bool,bool,bool,bool,bool,bool,bool,bool,bool,bool,bool,address,uint16),(uint256,(bool,uint32,uint56,address,uint48,address)[])[],(address,address,(uint224,uint32)[],(uint224,uint32)[])[])[],string)": {
				"notice": "Add one or more rulesets to the end of a project's ruleset queue. Rulesets take effect after the previous ruleset in the queue ends, and only if they are approved by the previous ruleset's approval hook."
			},
			"receiveMigrationFrom(address,uint256)": {
				"notice": "Prepares this controller to receive a project being migrated from another controller."
			},
			"sendReservedTokensToSplitsOf(uint256)": {
				"notice": "Sends a project's pending reserved tokens to its reserved token splits."
			},
			"setControllerAllowed(uint256)": {
				"notice": "Check whether the project's controller can currently be set."
			},
			"setSplitGroupsOf(uint256,uint256,(uint256,(bool,uint32,uint56,address,uint48,address)[])[])": {
				"notice": "Sets a project's split groups. The new split groups must include any current splits which are locked."
			},
			"setTerminalsAllowed(uint256)": {
				"notice": "Check whether the project's terminals can currently be set."
			},
			"setTokenFor(uint256,address)": {
				"notice": "Set a project's token. If the project's token is already set, this will revert."
			},
			"setUriOf(uint256,string)": {
				"notice": "Set a project's metadata URI."
			},
			"supportsInterface(bytes4)": {
				"notice": "Indicates whether this contract adheres to the specified interface."
			},
			"totalTokenSupplyWithReservedTokensOf(uint256)": {
				"notice": "Gets the a project token's total supply, including pending reserved tokens."
			},
			"transferCreditsFrom(address,uint256,address,uint256)": {
				"notice": "Allows a credit holder to transfer credits to another address."
			},
			"upcomingRulesetOf(uint256)": {
				"notice": "A project's next ruleset along with its metadata."
			},
			"uriOf(uint256)": {
				"notice": "The metadata URI for each project. This is typically an IPFS hash, optionally with an `ipfs://` prefix."
			}
		},
		"version": 1
	},
	"gitCommit": "621b4728594b015d227adf08d7af07a2ea0ba570",
	"sourceName": "src/JBController.sol",
	"chainId": "11155111",
	"linkReferences": {},
	"deployedLinkReferences": {},
	"history": []
}