{
	"_format": "sphinx-sol-ct-artifact-1",
	"merkleRoot": "0x2eed67fcf1763eec7ef14ca888c00e6e0d2358663046a3e4367e42ef35bdfba4",
	"contractName": "JBController",
	"address": "0x219A5cE6d1c512D5b050ad2E3d380b8746BE0Cb8",
	"abi": [
		{
			"type": "constructor",
			"inputs": [
				{
					"name": "directory",
					"type": "address",
					"internalType": "contract IJBDirectory"
				},
				{
					"name": "fundAccessLimits",
					"type": "address",
					"internalType": "contract IJBFundAccessLimits"
				},
				{
					"name": "permissions",
					"type": "address",
					"internalType": "contract IJBPermissions"
				},
				{
					"name": "prices",
					"type": "address",
					"internalType": "contract IJBPrices"
				},
				{
					"name": "projects",
					"type": "address",
					"internalType": "contract IJBProjects"
				},
				{
					"name": "rulesets",
					"type": "address",
					"internalType": "contract IJBRulesets"
				},
				{
					"name": "splits",
					"type": "address",
					"internalType": "contract IJBSplits"
				},
				{
					"name": "tokens",
					"type": "address",
					"internalType": "contract IJBTokens"
				},
				{
					"name": "trustedForwarder",
					"type": "address",
					"internalType": "address"
				}
			],
			"stateMutability": "nonpayable"
		},
		{
			"type": "function",
			"name": "DIRECTORY",
			"inputs": [],
			"outputs": [
				{
					"name": "",
					"type": "address",
					"internalType": "contract IJBDirectory"
				}
			],
			"stateMutability": "view"
		},
		{
			"type": "function",
			"name": "FUND_ACCESS_LIMITS",
			"inputs": [],
			"outputs": [
				{
					"name": "",
					"type": "address",
					"internalType": "contract IJBFundAccessLimits"
				}
			],
			"stateMutability": "view"
		},
		{
			"type": "function",
			"name": "PERMISSIONS",
			"inputs": [],
			"outputs": [
				{
					"name": "",
					"type": "address",
					"internalType": "contract IJBPermissions"
				}
			],
			"stateMutability": "view"
		},
		{
			"type": "function",
			"name": "PRICES",
			"inputs": [],
			"outputs": [
				{
					"name": "",
					"type": "address",
					"internalType": "contract IJBPrices"
				}
			],
			"stateMutability": "view"
		},
		{
			"type": "function",
			"name": "PROJECTS",
			"inputs": [],
			"outputs": [
				{
					"name": "",
					"type": "address",
					"internalType": "contract IJBProjects"
				}
			],
			"stateMutability": "view"
		},
		{
			"type": "function",
			"name": "RULESETS",
			"inputs": [],
			"outputs": [
				{
					"name": "",
					"type": "address",
					"internalType": "contract IJBRulesets"
				}
			],
			"stateMutability": "view"
		},
		{
			"type": "function",
			"name": "SPLITS",
			"inputs": [],
			"outputs": [
				{
					"name": "",
					"type": "address",
					"internalType": "contract IJBSplits"
				}
			],
			"stateMutability": "view"
		},
		{
			"type": "function",
			"name": "TOKENS",
			"inputs": [],
			"outputs": [
				{
					"name": "",
					"type": "address",
					"internalType": "contract IJBTokens"
				}
			],
			"stateMutability": "view"
		},
		{
			"type": "function",
			"name": "addPriceFeed",
			"inputs": [
				{
					"name": "projectId",
					"type": "uint256",
					"internalType": "uint256"
				},
				{
					"name": "pricingCurrency",
					"type": "uint256",
					"internalType": "uint256"
				},
				{
					"name": "unitCurrency",
					"type": "uint256",
					"internalType": "uint256"
				},
				{
					"name": "feed",
					"type": "address",
					"internalType": "contract IJBPriceFeed"
				}
			],
			"outputs": [],
			"stateMutability": "nonpayable"
		},
		{
			"type": "function",
			"name": "allRulesetsOf",
			"inputs": [
				{
					"name": "projectId",
					"type": "uint256",
					"internalType": "uint256"
				},
				{
					"name": "startingId",
					"type": "uint256",
					"internalType": "uint256"
				},
				{
					"name": "size",
					"type": "uint256",
					"internalType": "uint256"
				}
			],
			"outputs": [
				{
					"name": "rulesets",
					"type": "tuple[]",
					"internalType": "struct JBRulesetWithMetadata[]",
					"components": [
						{
							"name": "ruleset",
							"type": "tuple",
							"internalType": "struct JBRuleset",
							"components": [
								{
									"name": "cycleNumber",
									"type": "uint48",
									"internalType": "uint48"
								},
								{
									"name": "id",
									"type": "uint48",
									"internalType": "uint48"
								},
								{
									"name": "basedOnId",
									"type": "uint48",
									"internalType": "uint48"
								},
								{
									"name": "start",
									"type": "uint48",
									"internalType": "uint48"
								},
								{
									"name": "duration",
									"type": "uint32",
									"internalType": "uint32"
								},
								{
									"name": "weight",
									"type": "uint112",
									"internalType": "uint112"
								},
								{
									"name": "decayPercent",
									"type": "uint32",
									"internalType": "uint32"
								},
								{
									"name": "approvalHook",
									"type": "address",
									"internalType": "contract IJBRulesetApprovalHook"
								},
								{
									"name": "metadata",
									"type": "uint256",
									"internalType": "uint256"
								}
							]
						},
						{
							"name": "metadata",
							"type": "tuple",
							"internalType": "struct JBRulesetMetadata",
							"components": [
								{
									"name": "reservedPercent",
									"type": "uint16",
									"internalType": "uint16"
								},
								{
									"name": "redemptionRate",
									"type": "uint16",
									"internalType": "uint16"
								},
								{
									"name": "baseCurrency",
									"type": "uint32",
									"internalType": "uint32"
								},
								{
									"name": "pausePay",
									"type": "bool",
									"internalType": "bool"
								},
								{
									"name": "pauseCreditTransfers",
									"type": "bool",
									"internalType": "bool"
								},
								{
									"name": "allowOwnerMinting",
									"type": "bool",
									"internalType": "bool"
								},
								{
									"name": "allowSetCustomToken",
									"type": "bool",
									"internalType": "bool"
								},
								{
									"name": "allowTerminalMigration",
									"type": "bool",
									"internalType": "bool"
								},
								{
									"name": "allowSetTerminals",
									"type": "bool",
									"internalType": "bool"
								},
								{
									"name": "allowSetController",
									"type": "bool",
									"internalType": "bool"
								},
								{
									"name": "allowAddAccountingContext",
									"type": "bool",
									"internalType": "bool"
								},
								{
									"name": "allowAddPriceFeed",
									"type": "bool",
									"internalType": "bool"
								},
								{
									"name": "allowCrosschainSuckerExtension",
									"type": "bool",
									"internalType": "bool"
								},
								{
									"name": "ownerMustSendPayouts",
									"type": "bool",
									"internalType": "bool"
								},
								{
									"name": "holdFees",
									"type": "bool",
									"internalType": "bool"
								},
								{
									"name": "useTotalSurplusForRedemptions",
									"type": "bool",
									"internalType": "bool"
								},
								{
									"name": "useDataHookForPay",
									"type": "bool",
									"internalType": "bool"
								},
								{
									"name": "useDataHookForRedeem",
									"type": "bool",
									"internalType": "bool"
								},
								{
									"name": "dataHook",
									"type": "address",
									"internalType": "address"
								},
								{
									"name": "metadata",
									"type": "uint16",
									"internalType": "uint16"
								}
							]
						}
					]
				}
			],
			"stateMutability": "view"
		},
		{
			"type": "function",
			"name": "burnTokensOf",
			"inputs": [
				{
					"name": "holder",
					"type": "address",
					"internalType": "address"
				},
				{
					"name": "projectId",
					"type": "uint256",
					"internalType": "uint256"
				},
				{
					"name": "tokenCount",
					"type": "uint256",
					"internalType": "uint256"
				},
				{
					"name": "memo",
					"type": "string",
					"internalType": "string"
				}
			],
			"outputs": [],
			"stateMutability": "nonpayable"
		},
		{
			"type": "function",
			"name": "claimTokensFor",
			"inputs": [
				{
					"name": "holder",
					"type": "address",
					"internalType": "address"
				},
				{
					"name": "projectId",
					"type": "uint256",
					"internalType": "uint256"
				},
				{
					"name": "tokenCount",
					"type": "uint256",
					"internalType": "uint256"
				},
				{
					"name": "beneficiary",
					"type": "address",
					"internalType": "address"
				}
			],
			"outputs": [],
			"stateMutability": "nonpayable"
		},
		{
			"type": "function",
			"name": "currentRulesetOf",
			"inputs": [
				{
					"name": "projectId",
					"type": "uint256",
					"internalType": "uint256"
				}
			],
			"outputs": [
				{
					"name": "ruleset",
					"type": "tuple",
					"internalType": "struct JBRuleset",
					"components": [
						{
							"name": "cycleNumber",
							"type": "uint48",
							"internalType": "uint48"
						},
						{
							"name": "id",
							"type": "uint48",
							"internalType": "uint48"
						},
						{
							"name": "basedOnId",
							"type": "uint48",
							"internalType": "uint48"
						},
						{
							"name": "start",
							"type": "uint48",
							"internalType": "uint48"
						},
						{
							"name": "duration",
							"type": "uint32",
							"internalType": "uint32"
						},
						{
							"name": "weight",
							"type": "uint112",
							"internalType": "uint112"
						},
						{
							"name": "decayPercent",
							"type": "uint32",
							"internalType": "uint32"
						},
						{
							"name": "approvalHook",
							"type": "address",
							"internalType": "contract IJBRulesetApprovalHook"
						},
						{
							"name": "metadata",
							"type": "uint256",
							"internalType": "uint256"
						}
					]
				},
				{
					"name": "metadata",
					"type": "tuple",
					"internalType": "struct JBRulesetMetadata",
					"components": [
						{
							"name": "reservedPercent",
							"type": "uint16",
							"internalType": "uint16"
						},
						{
							"name": "redemptionRate",
							"type": "uint16",
							"internalType": "uint16"
						},
						{
							"name": "baseCurrency",
							"type": "uint32",
							"internalType": "uint32"
						},
						{
							"name": "pausePay",
							"type": "bool",
							"internalType": "bool"
						},
						{
							"name": "pauseCreditTransfers",
							"type": "bool",
							"internalType": "bool"
						},
						{
							"name": "allowOwnerMinting",
							"type": "bool",
							"internalType": "bool"
						},
						{
							"name": "allowSetCustomToken",
							"type": "bool",
							"internalType": "bool"
						},
						{
							"name": "allowTerminalMigration",
							"type": "bool",
							"internalType": "bool"
						},
						{
							"name": "allowSetTerminals",
							"type": "bool",
							"internalType": "bool"
						},
						{
							"name": "allowSetController",
							"type": "bool",
							"internalType": "bool"
						},
						{
							"name": "allowAddAccountingContext",
							"type": "bool",
							"internalType": "bool"
						},
						{
							"name": "allowAddPriceFeed",
							"type": "bool",
							"internalType": "bool"
						},
						{
							"name": "allowCrosschainSuckerExtension",
							"type": "bool",
							"internalType": "bool"
						},
						{
							"name": "ownerMustSendPayouts",
							"type": "bool",
							"internalType": "bool"
						},
						{
							"name": "holdFees",
							"type": "bool",
							"internalType": "bool"
						},
						{
							"name": "useTotalSurplusForRedemptions",
							"type": "bool",
							"internalType": "bool"
						},
						{
							"name": "useDataHookForPay",
							"type": "bool",
							"internalType": "bool"
						},
						{
							"name": "useDataHookForRedeem",
							"type": "bool",
							"internalType": "bool"
						},
						{
							"name": "dataHook",
							"type": "address",
							"internalType": "address"
						},
						{
							"name": "metadata",
							"type": "uint16",
							"internalType": "uint16"
						}
					]
				}
			],
			"stateMutability": "view"
		},
		{
			"type": "function",
			"name": "deployERC20For",
			"inputs": [
				{
					"name": "projectId",
					"type": "uint256",
					"internalType": "uint256"
				},
				{
					"name": "name",
					"type": "string",
					"internalType": "string"
				},
				{
					"name": "symbol",
					"type": "string",
					"internalType": "string"
				},
				{
					"name": "salt",
					"type": "bytes32",
					"internalType": "bytes32"
				}
			],
			"outputs": [
				{
					"name": "token",
					"type": "address",
					"internalType": "contract IJBToken"
				}
			],
			"stateMutability": "nonpayable"
		},
		{
			"type": "function",
			"name": "executePayReservedTokenToTerminal",
			"inputs": [
				{
					"name": "terminal",
					"type": "address",
					"internalType": "contract IJBTerminal"
				},
				{
					"name": "projectId",
					"type": "uint256",
					"internalType": "uint256"
				},
				{
					"name": "token",
					"type": "address",
					"internalType": "contract IJBToken"
				},
				{
					"name": "splitTokenCount",
					"type": "uint256",
					"internalType": "uint256"
				},
				{
					"name": "beneficiary",
					"type": "address",
					"internalType": "address"
				},
				{
					"name": "metadata",
					"type": "bytes",
					"internalType": "bytes"
				}
			],
			"outputs": [],
			"stateMutability": "nonpayable"
		},
		{
			"type": "function",
			"name": "getRulesetOf",
			"inputs": [
				{
					"name": "projectId",
					"type": "uint256",
					"internalType": "uint256"
				},
				{
					"name": "rulesetId",
					"type": "uint256",
					"internalType": "uint256"
				}
			],
			"outputs": [
				{
					"name": "ruleset",
					"type": "tuple",
					"internalType": "struct JBRuleset",
					"components": [
						{
							"name": "cycleNumber",
							"type": "uint48",
							"internalType": "uint48"
						},
						{
							"name": "id",
							"type": "uint48",
							"internalType": "uint48"
						},
						{
							"name": "basedOnId",
							"type": "uint48",
							"internalType": "uint48"
						},
						{
							"name": "start",
							"type": "uint48",
							"internalType": "uint48"
						},
						{
							"name": "duration",
							"type": "uint32",
							"internalType": "uint32"
						},
						{
							"name": "weight",
							"type": "uint112",
							"internalType": "uint112"
						},
						{
							"name": "decayPercent",
							"type": "uint32",
							"internalType": "uint32"
						},
						{
							"name": "approvalHook",
							"type": "address",
							"internalType": "contract IJBRulesetApprovalHook"
						},
						{
							"name": "metadata",
							"type": "uint256",
							"internalType": "uint256"
						}
					]
				},
				{
					"name": "metadata",
					"type": "tuple",
					"internalType": "struct JBRulesetMetadata",
					"components": [
						{
							"name": "reservedPercent",
							"type": "uint16",
							"internalType": "uint16"
						},
						{
							"name": "redemptionRate",
							"type": "uint16",
							"internalType": "uint16"
						},
						{
							"name": "baseCurrency",
							"type": "uint32",
							"internalType": "uint32"
						},
						{
							"name": "pausePay",
							"type": "bool",
							"internalType": "bool"
						},
						{
							"name": "pauseCreditTransfers",
							"type": "bool",
							"internalType": "bool"
						},
						{
							"name": "allowOwnerMinting",
							"type": "bool",
							"internalType": "bool"
						},
						{
							"name": "allowSetCustomToken",
							"type": "bool",
							"internalType": "bool"
						},
						{
							"name": "allowTerminalMigration",
							"type": "bool",
							"internalType": "bool"
						},
						{
							"name": "allowSetTerminals",
							"type": "bool",
							"internalType": "bool"
						},
						{
							"name": "allowSetController",
							"type": "bool",
							"internalType": "bool"
						},
						{
							"name": "allowAddAccountingContext",
							"type": "bool",
							"internalType": "bool"
						},
						{
							"name": "allowAddPriceFeed",
							"type": "bool",
							"internalType": "bool"
						},
						{
							"name": "allowCrosschainSuckerExtension",
							"type": "bool",
							"internalType": "bool"
						},
						{
							"name": "ownerMustSendPayouts",
							"type": "bool",
							"internalType": "bool"
						},
						{
							"name": "holdFees",
							"type": "bool",
							"internalType": "bool"
						},
						{
							"name": "useTotalSurplusForRedemptions",
							"type": "bool",
							"internalType": "bool"
						},
						{
							"name": "useDataHookForPay",
							"type": "bool",
							"internalType": "bool"
						},
						{
							"name": "useDataHookForRedeem",
							"type": "bool",
							"internalType": "bool"
						},
						{
							"name": "dataHook",
							"type": "address",
							"internalType": "address"
						},
						{
							"name": "metadata",
							"type": "uint16",
							"internalType": "uint16"
						}
					]
				}
			],
			"stateMutability": "view"
		},
		{
			"type": "function",
			"name": "isTrustedForwarder",
			"inputs": [
				{
					"name": "forwarder",
					"type": "address",
					"internalType": "address"
				}
			],
			"outputs": [
				{
					"name": "",
					"type": "bool",
					"internalType": "bool"
				}
			],
			"stateMutability": "view"
		},
		{
			"type": "function",
			"name": "latestQueuedRulesetOf",
			"inputs": [
				{
					"name": "projectId",
					"type": "uint256",
					"internalType": "uint256"
				}
			],
			"outputs": [
				{
					"name": "ruleset",
					"type": "tuple",
					"internalType": "struct JBRuleset",
					"components": [
						{
							"name": "cycleNumber",
							"type": "uint48",
							"internalType": "uint48"
						},
						{
							"name": "id",
							"type": "uint48",
							"internalType": "uint48"
						},
						{
							"name": "basedOnId",
							"type": "uint48",
							"internalType": "uint48"
						},
						{
							"name": "start",
							"type": "uint48",
							"internalType": "uint48"
						},
						{
							"name": "duration",
							"type": "uint32",
							"internalType": "uint32"
						},
						{
							"name": "weight",
							"type": "uint112",
							"internalType": "uint112"
						},
						{
							"name": "decayPercent",
							"type": "uint32",
							"internalType": "uint32"
						},
						{
							"name": "approvalHook",
							"type": "address",
							"internalType": "contract IJBRulesetApprovalHook"
						},
						{
							"name": "metadata",
							"type": "uint256",
							"internalType": "uint256"
						}
					]
				},
				{
					"name": "metadata",
					"type": "tuple",
					"internalType": "struct JBRulesetMetadata",
					"components": [
						{
							"name": "reservedPercent",
							"type": "uint16",
							"internalType": "uint16"
						},
						{
							"name": "redemptionRate",
							"type": "uint16",
							"internalType": "uint16"
						},
						{
							"name": "baseCurrency",
							"type": "uint32",
							"internalType": "uint32"
						},
						{
							"name": "pausePay",
							"type": "bool",
							"internalType": "bool"
						},
						{
							"name": "pauseCreditTransfers",
							"type": "bool",
							"internalType": "bool"
						},
						{
							"name": "allowOwnerMinting",
							"type": "bool",
							"internalType": "bool"
						},
						{
							"name": "allowSetCustomToken",
							"type": "bool",
							"internalType": "bool"
						},
						{
							"name": "allowTerminalMigration",
							"type": "bool",
							"internalType": "bool"
						},
						{
							"name": "allowSetTerminals",
							"type": "bool",
							"internalType": "bool"
						},
						{
							"name": "allowSetController",
							"type": "bool",
							"internalType": "bool"
						},
						{
							"name": "allowAddAccountingContext",
							"type": "bool",
							"internalType": "bool"
						},
						{
							"name": "allowAddPriceFeed",
							"type": "bool",
							"internalType": "bool"
						},
						{
							"name": "allowCrosschainSuckerExtension",
							"type": "bool",
							"internalType": "bool"
						},
						{
							"name": "ownerMustSendPayouts",
							"type": "bool",
							"internalType": "bool"
						},
						{
							"name": "holdFees",
							"type": "bool",
							"internalType": "bool"
						},
						{
							"name": "useTotalSurplusForRedemptions",
							"type": "bool",
							"internalType": "bool"
						},
						{
							"name": "useDataHookForPay",
							"type": "bool",
							"internalType": "bool"
						},
						{
							"name": "useDataHookForRedeem",
							"type": "bool",
							"internalType": "bool"
						},
						{
							"name": "dataHook",
							"type": "address",
							"internalType": "address"
						},
						{
							"name": "metadata",
							"type": "uint16",
							"internalType": "uint16"
						}
					]
				},
				{
					"name": "approvalStatus",
					"type": "uint8",
					"internalType": "enum JBApprovalStatus"
				}
			],
			"stateMutability": "view"
		},
		{
			"type": "function",
			"name": "launchProjectFor",
			"inputs": [
				{
					"name": "owner",
					"type": "address",
					"internalType": "address"
				},
				{
					"name": "projectUri",
					"type": "string",
					"internalType": "string"
				},
				{
					"name": "rulesetConfigurations",
					"type": "tuple[]",
					"internalType": "struct JBRulesetConfig[]",
					"components": [
						{
							"name": "mustStartAtOrAfter",
							"type": "uint48",
							"internalType": "uint48"
						},
						{
							"name": "duration",
							"type": "uint32",
							"internalType": "uint32"
						},
						{
							"name": "weight",
							"type": "uint112",
							"internalType": "uint112"
						},
						{
							"name": "decayPercent",
							"type": "uint32",
							"internalType": "uint32"
						},
						{
							"name": "approvalHook",
							"type": "address",
							"internalType": "contract IJBRulesetApprovalHook"
						},
						{
							"name": "metadata",
							"type": "tuple",
							"internalType": "struct JBRulesetMetadata",
							"components": [
								{
									"name": "reservedPercent",
									"type": "uint16",
									"internalType": "uint16"
								},
								{
									"name": "redemptionRate",
									"type": "uint16",
									"internalType": "uint16"
								},
								{
									"name": "baseCurrency",
									"type": "uint32",
									"internalType": "uint32"
								},
								{
									"name": "pausePay",
									"type": "bool",
									"internalType": "bool"
								},
								{
									"name": "pauseCreditTransfers",
									"type": "bool",
									"internalType": "bool"
								},
								{
									"name": "allowOwnerMinting",
									"type": "bool",
									"internalType": "bool"
								},
								{
									"name": "allowSetCustomToken",
									"type": "bool",
									"internalType": "bool"
								},
								{
									"name": "allowTerminalMigration",
									"type": "bool",
									"internalType": "bool"
								},
								{
									"name": "allowSetTerminals",
									"type": "bool",
									"internalType": "bool"
								},
								{
									"name": "allowSetController",
									"type": "bool",
									"internalType": "bool"
								},
								{
									"name": "allowAddAccountingContext",
									"type": "bool",
									"internalType": "bool"
								},
								{
									"name": "allowAddPriceFeed",
									"type": "bool",
									"internalType": "bool"
								},
								{
									"name": "allowCrosschainSuckerExtension",
									"type": "bool",
									"internalType": "bool"
								},
								{
									"name": "ownerMustSendPayouts",
									"type": "bool",
									"internalType": "bool"
								},
								{
									"name": "holdFees",
									"type": "bool",
									"internalType": "bool"
								},
								{
									"name": "useTotalSurplusForRedemptions",
									"type": "bool",
									"internalType": "bool"
								},
								{
									"name": "useDataHookForPay",
									"type": "bool",
									"internalType": "bool"
								},
								{
									"name": "useDataHookForRedeem",
									"type": "bool",
									"internalType": "bool"
								},
								{
									"name": "dataHook",
									"type": "address",
									"internalType": "address"
								},
								{
									"name": "metadata",
									"type": "uint16",
									"internalType": "uint16"
								}
							]
						},
						{
							"name": "splitGroups",
							"type": "tuple[]",
							"internalType": "struct JBSplitGroup[]",
							"components": [
								{
									"name": "groupId",
									"type": "uint256",
									"internalType": "uint256"
								},
								{
									"name": "splits",
									"type": "tuple[]",
									"internalType": "struct JBSplit[]",
									"components": [
										{
											"name": "preferAddToBalance",
											"type": "bool",
											"internalType": "bool"
										},
										{
											"name": "percent",
											"type": "uint32",
											"internalType": "uint32"
										},
										{
											"name": "projectId",
											"type": "uint56",
											"internalType": "uint56"
										},
										{
											"name": "beneficiary",
											"type": "address",
											"internalType": "address payable"
										},
										{
											"name": "lockedUntil",
											"type": "uint48",
											"internalType": "uint48"
										},
										{
											"name": "hook",
											"type": "address",
											"internalType": "contract IJBSplitHook"
										}
									]
								}
							]
						},
						{
							"name": "fundAccessLimitGroups",
							"type": "tuple[]",
							"internalType": "struct JBFundAccessLimitGroup[]",
							"components": [
								{
									"name": "terminal",
									"type": "address",
									"internalType": "address"
								},
								{
									"name": "token",
									"type": "address",
									"internalType": "address"
								},
								{
									"name": "payoutLimits",
									"type": "tuple[]",
									"internalType": "struct JBCurrencyAmount[]",
									"components": [
										{
											"name": "amount",
											"type": "uint224",
											"internalType": "uint224"
										},
										{
											"name": "currency",
											"type": "uint32",
											"internalType": "uint32"
										}
									]
								},
								{
									"name": "surplusAllowances",
									"type": "tuple[]",
									"internalType": "struct JBCurrencyAmount[]",
									"components": [
										{
											"name": "amount",
											"type": "uint224",
											"internalType": "uint224"
										},
										{
											"name": "currency",
											"type": "uint32",
											"internalType": "uint32"
										}
									]
								}
							]
						}
					]
				},
				{
					"name": "terminalConfigurations",
					"type": "tuple[]",
					"internalType": "struct JBTerminalConfig[]",
					"components": [
						{
							"name": "terminal",
							"type": "address",
							"internalType": "contract IJBTerminal"
						},
						{
							"name": "accountingContextsToAccept",
							"type": "tuple[]",
							"internalType": "struct JBAccountingContext[]",
							"components": [
								{
									"name": "token",
									"type": "address",
									"internalType": "address"
								},
								{
									"name": "decimals",
									"type": "uint8",
									"internalType": "uint8"
								},
								{
									"name": "currency",
									"type": "uint32",
									"internalType": "uint32"
								}
							]
						}
					]
				},
				{
					"name": "memo",
					"type": "string",
					"internalType": "string"
				}
			],
			"outputs": [
				{
					"name": "projectId",
					"type": "uint256",
					"internalType": "uint256"
				}
			],
			"stateMutability": "nonpayable"
		},
		{
			"type": "function",
			"name": "launchRulesetsFor",
			"inputs": [
				{
					"name": "projectId",
					"type": "uint256",
					"internalType": "uint256"
				},
				{
					"name": "rulesetConfigurations",
					"type": "tuple[]",
					"internalType": "struct JBRulesetConfig[]",
					"components": [
						{
							"name": "mustStartAtOrAfter",
							"type": "uint48",
							"internalType": "uint48"
						},
						{
							"name": "duration",
							"type": "uint32",
							"internalType": "uint32"
						},
						{
							"name": "weight",
							"type": "uint112",
							"internalType": "uint112"
						},
						{
							"name": "decayPercent",
							"type": "uint32",
							"internalType": "uint32"
						},
						{
							"name": "approvalHook",
							"type": "address",
							"internalType": "contract IJBRulesetApprovalHook"
						},
						{
							"name": "metadata",
							"type": "tuple",
							"internalType": "struct JBRulesetMetadata",
							"components": [
								{
									"name": "reservedPercent",
									"type": "uint16",
									"internalType": "uint16"
								},
								{
									"name": "redemptionRate",
									"type": "uint16",
									"internalType": "uint16"
								},
								{
									"name": "baseCurrency",
									"type": "uint32",
									"internalType": "uint32"
								},
								{
									"name": "pausePay",
									"type": "bool",
									"internalType": "bool"
								},
								{
									"name": "pauseCreditTransfers",
									"type": "bool",
									"internalType": "bool"
								},
								{
									"name": "allowOwnerMinting",
									"type": "bool",
									"internalType": "bool"
								},
								{
									"name": "allowSetCustomToken",
									"type": "bool",
									"internalType": "bool"
								},
								{
									"name": "allowTerminalMigration",
									"type": "bool",
									"internalType": "bool"
								},
								{
									"name": "allowSetTerminals",
									"type": "bool",
									"internalType": "bool"
								},
								{
									"name": "allowSetController",
									"type": "bool",
									"internalType": "bool"
								},
								{
									"name": "allowAddAccountingContext",
									"type": "bool",
									"internalType": "bool"
								},
								{
									"name": "allowAddPriceFeed",
									"type": "bool",
									"internalType": "bool"
								},
								{
									"name": "allowCrosschainSuckerExtension",
									"type": "bool",
									"internalType": "bool"
								},
								{
									"name": "ownerMustSendPayouts",
									"type": "bool",
									"internalType": "bool"
								},
								{
									"name": "holdFees",
									"type": "bool",
									"internalType": "bool"
								},
								{
									"name": "useTotalSurplusForRedemptions",
									"type": "bool",
									"internalType": "bool"
								},
								{
									"name": "useDataHookForPay",
									"type": "bool",
									"internalType": "bool"
								},
								{
									"name": "useDataHookForRedeem",
									"type": "bool",
									"internalType": "bool"
								},
								{
									"name": "dataHook",
									"type": "address",
									"internalType": "address"
								},
								{
									"name": "metadata",
									"type": "uint16",
									"internalType": "uint16"
								}
							]
						},
						{
							"name": "splitGroups",
							"type": "tuple[]",
							"internalType": "struct JBSplitGroup[]",
							"components": [
								{
									"name": "groupId",
									"type": "uint256",
									"internalType": "uint256"
								},
								{
									"name": "splits",
									"type": "tuple[]",
									"internalType": "struct JBSplit[]",
									"components": [
										{
											"name": "preferAddToBalance",
											"type": "bool",
											"internalType": "bool"
										},
										{
											"name": "percent",
											"type": "uint32",
											"internalType": "uint32"
										},
										{
											"name": "projectId",
											"type": "uint56",
											"internalType": "uint56"
										},
										{
											"name": "beneficiary",
											"type": "address",
											"internalType": "address payable"
										},
										{
											"name": "lockedUntil",
											"type": "uint48",
											"internalType": "uint48"
										},
										{
											"name": "hook",
											"type": "address",
											"internalType": "contract IJBSplitHook"
										}
									]
								}
							]
						},
						{
							"name": "fundAccessLimitGroups",
							"type": "tuple[]",
							"internalType": "struct JBFundAccessLimitGroup[]",
							"components": [
								{
									"name": "terminal",
									"type": "address",
									"internalType": "address"
								},
								{
									"name": "token",
									"type": "address",
									"internalType": "address"
								},
								{
									"name": "payoutLimits",
									"type": "tuple[]",
									"internalType": "struct JBCurrencyAmount[]",
									"components": [
										{
											"name": "amount",
											"type": "uint224",
											"internalType": "uint224"
										},
										{
											"name": "currency",
											"type": "uint32",
											"internalType": "uint32"
										}
									]
								},
								{
									"name": "surplusAllowances",
									"type": "tuple[]",
									"internalType": "struct JBCurrencyAmount[]",
									"components": [
										{
											"name": "amount",
											"type": "uint224",
											"internalType": "uint224"
										},
										{
											"name": "currency",
											"type": "uint32",
											"internalType": "uint32"
										}
									]
								}
							]
						}
					]
				},
				{
					"name": "terminalConfigurations",
					"type": "tuple[]",
					"internalType": "struct JBTerminalConfig[]",
					"components": [
						{
							"name": "terminal",
							"type": "address",
							"internalType": "contract IJBTerminal"
						},
						{
							"name": "accountingContextsToAccept",
							"type": "tuple[]",
							"internalType": "struct JBAccountingContext[]",
							"components": [
								{
									"name": "token",
									"type": "address",
									"internalType": "address"
								},
								{
									"name": "decimals",
									"type": "uint8",
									"internalType": "uint8"
								},
								{
									"name": "currency",
									"type": "uint32",
									"internalType": "uint32"
								}
							]
						}
					]
				},
				{
					"name": "memo",
					"type": "string",
					"internalType": "string"
				}
			],
			"outputs": [
				{
					"name": "rulesetId",
					"type": "uint256",
					"internalType": "uint256"
				}
			],
			"stateMutability": "nonpayable"
		},
		{
			"type": "function",
			"name": "migrate",
			"inputs": [
				{
					"name": "projectId",
					"type": "uint256",
					"internalType": "uint256"
				},
				{
					"name": "to",
					"type": "address",
					"internalType": "contract IERC165"
				}
			],
			"outputs": [],
			"stateMutability": "nonpayable"
		},
		{
			"type": "function",
			"name": "mintTokensOf",
			"inputs": [
				{
					"name": "projectId",
					"type": "uint256",
					"internalType": "uint256"
				},
				{
					"name": "tokenCount",
					"type": "uint256",
					"internalType": "uint256"
				},
				{
					"name": "beneficiary",
					"type": "address",
					"internalType": "address"
				},
				{
					"name": "memo",
					"type": "string",
					"internalType": "string"
				},
				{
					"name": "useReservedPercent",
					"type": "bool",
					"internalType": "bool"
				}
			],
			"outputs": [
				{
					"name": "beneficiaryTokenCount",
					"type": "uint256",
					"internalType": "uint256"
				}
			],
			"stateMutability": "nonpayable"
		},
		{
			"type": "function",
			"name": "pendingReservedTokenBalanceOf",
			"inputs": [
				{
					"name": "projectId",
					"type": "uint256",
					"internalType": "uint256"
				}
			],
			"outputs": [
				{
					"name": "",
					"type": "uint256",
					"internalType": "uint256"
				}
			],
			"stateMutability": "view"
		},
		{
			"type": "function",
			"name": "queueRulesetsOf",
			"inputs": [
				{
					"name": "projectId",
					"type": "uint256",
					"internalType": "uint256"
				},
				{
					"name": "rulesetConfigurations",
					"type": "tuple[]",
					"internalType": "struct JBRulesetConfig[]",
					"components": [
						{
							"name": "mustStartAtOrAfter",
							"type": "uint48",
							"internalType": "uint48"
						},
						{
							"name": "duration",
							"type": "uint32",
							"internalType": "uint32"
						},
						{
							"name": "weight",
							"type": "uint112",
							"internalType": "uint112"
						},
						{
							"name": "decayPercent",
							"type": "uint32",
							"internalType": "uint32"
						},
						{
							"name": "approvalHook",
							"type": "address",
							"internalType": "contract IJBRulesetApprovalHook"
						},
						{
							"name": "metadata",
							"type": "tuple",
							"internalType": "struct JBRulesetMetadata",
							"components": [
								{
									"name": "reservedPercent",
									"type": "uint16",
									"internalType": "uint16"
								},
								{
									"name": "redemptionRate",
									"type": "uint16",
									"internalType": "uint16"
								},
								{
									"name": "baseCurrency",
									"type": "uint32",
									"internalType": "uint32"
								},
								{
									"name": "pausePay",
									"type": "bool",
									"internalType": "bool"
								},
								{
									"name": "pauseCreditTransfers",
									"type": "bool",
									"internalType": "bool"
								},
								{
									"name": "allowOwnerMinting",
									"type": "bool",
									"internalType": "bool"
								},
								{
									"name": "allowSetCustomToken",
									"type": "bool",
									"internalType": "bool"
								},
								{
									"name": "allowTerminalMigration",
									"type": "bool",
									"internalType": "bool"
								},
								{
									"name": "allowSetTerminals",
									"type": "bool",
									"internalType": "bool"
								},
								{
									"name": "allowSetController",
									"type": "bool",
									"internalType": "bool"
								},
								{
									"name": "allowAddAccountingContext",
									"type": "bool",
									"internalType": "bool"
								},
								{
									"name": "allowAddPriceFeed",
									"type": "bool",
									"internalType": "bool"
								},
								{
									"name": "allowCrosschainSuckerExtension",
									"type": "bool",
									"internalType": "bool"
								},
								{
									"name": "ownerMustSendPayouts",
									"type": "bool",
									"internalType": "bool"
								},
								{
									"name": "holdFees",
									"type": "bool",
									"internalType": "bool"
								},
								{
									"name": "useTotalSurplusForRedemptions",
									"type": "bool",
									"internalType": "bool"
								},
								{
									"name": "useDataHookForPay",
									"type": "bool",
									"internalType": "bool"
								},
								{
									"name": "useDataHookForRedeem",
									"type": "bool",
									"internalType": "bool"
								},
								{
									"name": "dataHook",
									"type": "address",
									"internalType": "address"
								},
								{
									"name": "metadata",
									"type": "uint16",
									"internalType": "uint16"
								}
							]
						},
						{
							"name": "splitGroups",
							"type": "tuple[]",
							"internalType": "struct JBSplitGroup[]",
							"components": [
								{
									"name": "groupId",
									"type": "uint256",
									"internalType": "uint256"
								},
								{
									"name": "splits",
									"type": "tuple[]",
									"internalType": "struct JBSplit[]",
									"components": [
										{
											"name": "preferAddToBalance",
											"type": "bool",
											"internalType": "bool"
										},
										{
											"name": "percent",
											"type": "uint32",
											"internalType": "uint32"
										},
										{
											"name": "projectId",
											"type": "uint56",
											"internalType": "uint56"
										},
										{
											"name": "beneficiary",
											"type": "address",
											"internalType": "address payable"
										},
										{
											"name": "lockedUntil",
											"type": "uint48",
											"internalType": "uint48"
										},
										{
											"name": "hook",
											"type": "address",
											"internalType": "contract IJBSplitHook"
										}
									]
								}
							]
						},
						{
							"name": "fundAccessLimitGroups",
							"type": "tuple[]",
							"internalType": "struct JBFundAccessLimitGroup[]",
							"components": [
								{
									"name": "terminal",
									"type": "address",
									"internalType": "address"
								},
								{
									"name": "token",
									"type": "address",
									"internalType": "address"
								},
								{
									"name": "payoutLimits",
									"type": "tuple[]",
									"internalType": "struct JBCurrencyAmount[]",
									"components": [
										{
											"name": "amount",
											"type": "uint224",
											"internalType": "uint224"
										},
										{
											"name": "currency",
											"type": "uint32",
											"internalType": "uint32"
										}
									]
								},
								{
									"name": "surplusAllowances",
									"type": "tuple[]",
									"internalType": "struct JBCurrencyAmount[]",
									"components": [
										{
											"name": "amount",
											"type": "uint224",
											"internalType": "uint224"
										},
										{
											"name": "currency",
											"type": "uint32",
											"internalType": "uint32"
										}
									]
								}
							]
						}
					]
				},
				{
					"name": "memo",
					"type": "string",
					"internalType": "string"
				}
			],
			"outputs": [
				{
					"name": "rulesetId",
					"type": "uint256",
					"internalType": "uint256"
				}
			],
			"stateMutability": "nonpayable"
		},
		{
			"type": "function",
			"name": "receiveMigrationFrom",
			"inputs": [
				{
					"name": "from",
					"type": "address",
					"internalType": "contract IERC165"
				},
				{
					"name": "projectId",
					"type": "uint256",
					"internalType": "uint256"
				}
			],
			"outputs": [],
			"stateMutability": "nonpayable"
		},
		{
			"type": "function",
			"name": "sendReservedTokensToSplitsOf",
			"inputs": [
				{
					"name": "projectId",
					"type": "uint256",
					"internalType": "uint256"
				}
			],
			"outputs": [
				{
					"name": "",
					"type": "uint256",
					"internalType": "uint256"
				}
			],
			"stateMutability": "nonpayable"
		},
		{
			"type": "function",
			"name": "setControllerAllowed",
			"inputs": [
				{
					"name": "projectId",
					"type": "uint256",
					"internalType": "uint256"
				}
			],
			"outputs": [
				{
					"name": "",
					"type": "bool",
					"internalType": "bool"
				}
			],
			"stateMutability": "view"
		},
		{
			"type": "function",
			"name": "setSplitGroupsOf",
			"inputs": [
				{
					"name": "projectId",
					"type": "uint256",
					"internalType": "uint256"
				},
				{
					"name": "rulesetId",
					"type": "uint256",
					"internalType": "uint256"
				},
				{
					"name": "splitGroups",
					"type": "tuple[]",
					"internalType": "struct JBSplitGroup[]",
					"components": [
						{
							"name": "groupId",
							"type": "uint256",
							"internalType": "uint256"
						},
						{
							"name": "splits",
							"type": "tuple[]",
							"internalType": "struct JBSplit[]",
							"components": [
								{
									"name": "preferAddToBalance",
									"type": "bool",
									"internalType": "bool"
								},
								{
									"name": "percent",
									"type": "uint32",
									"internalType": "uint32"
								},
								{
									"name": "projectId",
									"type": "uint56",
									"internalType": "uint56"
								},
								{
									"name": "beneficiary",
									"type": "address",
									"internalType": "address payable"
								},
								{
									"name": "lockedUntil",
									"type": "uint48",
									"internalType": "uint48"
								},
								{
									"name": "hook",
									"type": "address",
									"internalType": "contract IJBSplitHook"
								}
							]
						}
					]
				}
			],
			"outputs": [],
			"stateMutability": "nonpayable"
		},
		{
			"type": "function",
			"name": "setTerminalsAllowed",
			"inputs": [
				{
					"name": "projectId",
					"type": "uint256",
					"internalType": "uint256"
				}
			],
			"outputs": [
				{
					"name": "",
					"type": "bool",
					"internalType": "bool"
				}
			],
			"stateMutability": "view"
		},
		{
			"type": "function",
			"name": "setTokenFor",
			"inputs": [
				{
					"name": "projectId",
					"type": "uint256",
					"internalType": "uint256"
				},
				{
					"name": "token",
					"type": "address",
					"internalType": "contract IJBToken"
				}
			],
			"outputs": [],
			"stateMutability": "nonpayable"
		},
		{
			"type": "function",
			"name": "setUriOf",
			"inputs": [
				{
					"name": "projectId",
					"type": "uint256",
					"internalType": "uint256"
				},
				{
					"name": "uri",
					"type": "string",
					"internalType": "string"
				}
			],
			"outputs": [],
			"stateMutability": "nonpayable"
		},
		{
			"type": "function",
			"name": "supportsInterface",
			"inputs": [
				{
					"name": "interfaceId",
					"type": "bytes4",
					"internalType": "bytes4"
				}
			],
			"outputs": [
				{
					"name": "",
					"type": "bool",
					"internalType": "bool"
				}
			],
			"stateMutability": "pure"
		},
		{
			"type": "function",
			"name": "totalTokenSupplyWithReservedTokensOf",
			"inputs": [
				{
					"name": "projectId",
					"type": "uint256",
					"internalType": "uint256"
				}
			],
			"outputs": [
				{
					"name": "",
					"type": "uint256",
					"internalType": "uint256"
				}
			],
			"stateMutability": "view"
		},
		{
			"type": "function",
			"name": "transferCreditsFrom",
			"inputs": [
				{
					"name": "holder",
					"type": "address",
					"internalType": "address"
				},
				{
					"name": "projectId",
					"type": "uint256",
					"internalType": "uint256"
				},
				{
					"name": "recipient",
					"type": "address",
					"internalType": "address"
				},
				{
					"name": "creditCount",
					"type": "uint256",
					"internalType": "uint256"
				}
			],
			"outputs": [],
			"stateMutability": "nonpayable"
		},
		{
			"type": "function",
			"name": "trustedForwarder",
			"inputs": [],
			"outputs": [
				{
					"name": "",
					"type": "address",
					"internalType": "address"
				}
			],
			"stateMutability": "view"
		},
		{
			"type": "function",
			"name": "upcomingRulesetOf",
			"inputs": [
				{
					"name": "projectId",
					"type": "uint256",
					"internalType": "uint256"
				}
			],
			"outputs": [
				{
					"name": "ruleset",
					"type": "tuple",
					"internalType": "struct JBRuleset",
					"components": [
						{
							"name": "cycleNumber",
							"type": "uint48",
							"internalType": "uint48"
						},
						{
							"name": "id",
							"type": "uint48",
							"internalType": "uint48"
						},
						{
							"name": "basedOnId",
							"type": "uint48",
							"internalType": "uint48"
						},
						{
							"name": "start",
							"type": "uint48",
							"internalType": "uint48"
						},
						{
							"name": "duration",
							"type": "uint32",
							"internalType": "uint32"
						},
						{
							"name": "weight",
							"type": "uint112",
							"internalType": "uint112"
						},
						{
							"name": "decayPercent",
							"type": "uint32",
							"internalType": "uint32"
						},
						{
							"name": "approvalHook",
							"type": "address",
							"internalType": "contract IJBRulesetApprovalHook"
						},
						{
							"name": "metadata",
							"type": "uint256",
							"internalType": "uint256"
						}
					]
				},
				{
					"name": "metadata",
					"type": "tuple",
					"internalType": "struct JBRulesetMetadata",
					"components": [
						{
							"name": "reservedPercent",
							"type": "uint16",
							"internalType": "uint16"
						},
						{
							"name": "redemptionRate",
							"type": "uint16",
							"internalType": "uint16"
						},
						{
							"name": "baseCurrency",
							"type": "uint32",
							"internalType": "uint32"
						},
						{
							"name": "pausePay",
							"type": "bool",
							"internalType": "bool"
						},
						{
							"name": "pauseCreditTransfers",
							"type": "bool",
							"internalType": "bool"
						},
						{
							"name": "allowOwnerMinting",
							"type": "bool",
							"internalType": "bool"
						},
						{
							"name": "allowSetCustomToken",
							"type": "bool",
							"internalType": "bool"
						},
						{
							"name": "allowTerminalMigration",
							"type": "bool",
							"internalType": "bool"
						},
						{
							"name": "allowSetTerminals",
							"type": "bool",
							"internalType": "bool"
						},
						{
							"name": "allowSetController",
							"type": "bool",
							"internalType": "bool"
						},
						{
							"name": "allowAddAccountingContext",
							"type": "bool",
							"internalType": "bool"
						},
						{
							"name": "allowAddPriceFeed",
							"type": "bool",
							"internalType": "bool"
						},
						{
							"name": "allowCrosschainSuckerExtension",
							"type": "bool",
							"internalType": "bool"
						},
						{
							"name": "ownerMustSendPayouts",
							"type": "bool",
							"internalType": "bool"
						},
						{
							"name": "holdFees",
							"type": "bool",
							"internalType": "bool"
						},
						{
							"name": "useTotalSurplusForRedemptions",
							"type": "bool",
							"internalType": "bool"
						},
						{
							"name": "useDataHookForPay",
							"type": "bool",
							"internalType": "bool"
						},
						{
							"name": "useDataHookForRedeem",
							"type": "bool",
							"internalType": "bool"
						},
						{
							"name": "dataHook",
							"type": "address",
							"internalType": "address"
						},
						{
							"name": "metadata",
							"type": "uint16",
							"internalType": "uint16"
						}
					]
				}
			],
			"stateMutability": "view"
		},
		{
			"type": "function",
			"name": "uriOf",
			"inputs": [
				{
					"name": "projectId",
					"type": "uint256",
					"internalType": "uint256"
				}
			],
			"outputs": [
				{
					"name": "",
					"type": "string",
					"internalType": "string"
				}
			],
			"stateMutability": "view"
		},
		{
			"type": "event",
			"name": "BurnTokens",
			"inputs": [
				{
					"name": "holder",
					"type": "address",
					"indexed": true,
					"internalType": "address"
				},
				{
					"name": "projectId",
					"type": "uint256",
					"indexed": true,
					"internalType": "uint256"
				},
				{
					"name": "tokenCount",
					"type": "uint256",
					"indexed": false,
					"internalType": "uint256"
				},
				{
					"name": "memo",
					"type": "string",
					"indexed": false,
					"internalType": "string"
				},
				{
					"name": "caller",
					"type": "address",
					"indexed": false,
					"internalType": "address"
				}
			],
			"anonymous": false
		},
		{
			"type": "event",
			"name": "LaunchProject",
			"inputs": [
				{
					"name": "rulesetId",
					"type": "uint256",
					"indexed": false,
					"internalType": "uint256"
				},
				{
					"name": "projectId",
					"type": "uint256",
					"indexed": false,
					"internalType": "uint256"
				},
				{
					"name": "projectUri",
					"type": "string",
					"indexed": false,
					"internalType": "string"
				},
				{
					"name": "memo",
					"type": "string",
					"indexed": false,
					"internalType": "string"
				},
				{
					"name": "caller",
					"type": "address",
					"indexed": false,
					"internalType": "address"
				}
			],
			"anonymous": false
		},
		{
			"type": "event",
			"name": "LaunchRulesets",
			"inputs": [
				{
					"name": "rulesetId",
					"type": "uint256",
					"indexed": false,
					"internalType": "uint256"
				},
				{
					"name": "projectId",
					"type": "uint256",
					"indexed": false,
					"internalType": "uint256"
				},
				{
					"name": "memo",
					"type": "string",
					"indexed": false,
					"internalType": "string"
				},
				{
					"name": "caller",
					"type": "address",
					"indexed": false,
					"internalType": "address"
				}
			],
			"anonymous": false
		},
		{
			"type": "event",
			"name": "Migrate",
			"inputs": [
				{
					"name": "projectId",
					"type": "uint256",
					"indexed": true,
					"internalType": "uint256"
				},
				{
					"name": "to",
					"type": "address",
					"indexed": false,
					"internalType": "contract IERC165"
				},
				{
					"name": "caller",
					"type": "address",
					"indexed": false,
					"internalType": "address"
				}
			],
			"anonymous": false
		},
		{
			"type": "event",
			"name": "MintTokens",
			"inputs": [
				{
					"name": "beneficiary",
					"type": "address",
					"indexed": true,
					"internalType": "address"
				},
				{
					"name": "projectId",
					"type": "uint256",
					"indexed": true,
					"internalType": "uint256"
				},
				{
					"name": "tokenCount",
					"type": "uint256",
					"indexed": false,
					"internalType": "uint256"
				},
				{
					"name": "beneficiaryTokenCount",
					"type": "uint256",
					"indexed": false,
					"internalType": "uint256"
				},
				{
					"name": "memo",
					"type": "string",
					"indexed": false,
					"internalType": "string"
				},
				{
					"name": "reservedPercent",
					"type": "uint256",
					"indexed": false,
					"internalType": "uint256"
				},
				{
					"name": "caller",
					"type": "address",
					"indexed": false,
					"internalType": "address"
				}
			],
			"anonymous": false
		},
		{
			"type": "event",
			"name": "PrepMigration",
			"inputs": [
				{
					"name": "projectId",
					"type": "uint256",
					"indexed": true,
					"internalType": "uint256"
				},
				{
					"name": "from",
					"type": "address",
					"indexed": false,
					"internalType": "address"
				},
				{
					"name": "caller",
					"type": "address",
					"indexed": false,
					"internalType": "address"
				}
			],
			"anonymous": false
		},
		{
			"type": "event",
			"name": "QueueRulesets",
			"inputs": [
				{
					"name": "rulesetId",
					"type": "uint256",
					"indexed": false,
					"internalType": "uint256"
				},
				{
					"name": "projectId",
					"type": "uint256",
					"indexed": false,
					"internalType": "uint256"
				},
				{
					"name": "memo",
					"type": "string",
					"indexed": false,
					"internalType": "string"
				},
				{
					"name": "caller",
					"type": "address",
					"indexed": false,
					"internalType": "address"
				}
			],
			"anonymous": false
		},
		{
			"type": "event",
			"name": "ReservedDistributionReverted",
			"inputs": [
				{
					"name": "projectId",
					"type": "uint256",
					"indexed": true,
					"internalType": "uint256"
				},
				{
					"name": "split",
					"type": "tuple",
					"indexed": false,
					"internalType": "struct JBSplit",
					"components": [
						{
							"name": "preferAddToBalance",
							"type": "bool",
							"internalType": "bool"
						},
						{
							"name": "percent",
							"type": "uint32",
							"internalType": "uint32"
						},
						{
							"name": "projectId",
							"type": "uint56",
							"internalType": "uint56"
						},
						{
							"name": "beneficiary",
							"type": "address",
							"internalType": "address payable"
						},
						{
							"name": "lockedUntil",
							"type": "uint48",
							"internalType": "uint48"
						},
						{
							"name": "hook",
							"type": "address",
							"internalType": "contract IJBSplitHook"
						}
					]
				},
				{
					"name": "tokenCount",
					"type": "uint256",
					"indexed": false,
					"internalType": "uint256"
				},
				{
					"name": "reason",
					"type": "bytes",
					"indexed": false,
					"internalType": "bytes"
				},
				{
					"name": "caller",
					"type": "address",
					"indexed": false,
					"internalType": "address"
				}
			],
			"anonymous": false
		},
		{
			"type": "event",
			"name": "SendReservedTokensToSplit",
			"inputs": [
				{
					"name": "projectId",
					"type": "uint256",
					"indexed": true,
					"internalType": "uint256"
				},
				{
					"name": "rulesetId",
					"type": "uint256",
					"indexed": true,
					"internalType": "uint256"
				},
				{
					"name": "groupId",
					"type": "uint256",
					"indexed": true,
					"internalType": "uint256"
				},
				{
					"name": "split",
					"type": "tuple",
					"indexed": false,
					"internalType": "struct JBSplit",
					"components": [
						{
							"name": "preferAddToBalance",
							"type": "bool",
							"internalType": "bool"
						},
						{
							"name": "percent",
							"type": "uint32",
							"internalType": "uint32"
						},
						{
							"name": "projectId",
							"type": "uint56",
							"internalType": "uint56"
						},
						{
							"name": "beneficiary",
							"type": "address",
							"internalType": "address payable"
						},
						{
							"name": "lockedUntil",
							"type": "uint48",
							"internalType": "uint48"
						},
						{
							"name": "hook",
							"type": "address",
							"internalType": "contract IJBSplitHook"
						}
					]
				},
				{
					"name": "tokenCount",
					"type": "uint256",
					"indexed": false,
					"internalType": "uint256"
				},
				{
					"name": "caller",
					"type": "address",
					"indexed": false,
					"internalType": "address"
				}
			],
			"anonymous": false
		},
		{
			"type": "event",
			"name": "SendReservedTokensToSplits",
			"inputs": [
				{
					"name": "rulesetId",
					"type": "uint256",
					"indexed": true,
					"internalType": "uint256"
				},
				{
					"name": "rulesetCycleNumber",
					"type": "uint256",
					"indexed": true,
					"internalType": "uint256"
				},
				{
					"name": "projectId",
					"type": "uint256",
					"indexed": true,
					"internalType": "uint256"
				},
				{
					"name": "owner",
					"type": "address",
					"indexed": false,
					"internalType": "address"
				},
				{
					"name": "tokenCount",
					"type": "uint256",
					"indexed": false,
					"internalType": "uint256"
				},
				{
					"name": "leftoverAmount",
					"type": "uint256",
					"indexed": false,
					"internalType": "uint256"
				},
				{
					"name": "caller",
					"type": "address",
					"indexed": false,
					"internalType": "address"
				}
			],
			"anonymous": false
		},
		{
			"type": "event",
			"name": "SetUri",
			"inputs": [
				{
					"name": "projectId",
					"type": "uint256",
					"indexed": true,
					"internalType": "uint256"
				},
				{
					"name": "uri",
					"type": "string",
					"indexed": false,
					"internalType": "string"
				},
				{
					"name": "caller",
					"type": "address",
					"indexed": false,
					"internalType": "address"
				}
			],
			"anonymous": false
		},
		{
			"type": "error",
			"name": "AddressEmptyCode",
			"inputs": [
				{
					"name": "target",
					"type": "address",
					"internalType": "address"
				}
			]
		},
		{
			"type": "error",
			"name": "AddressInsufficientBalance",
			"inputs": [
				{
					"name": "account",
					"type": "address",
					"internalType": "address"
				}
			]
		},
		{
			"type": "error",
			"name": "FailedInnerCall",
			"inputs": []
		},
		{
			"type": "error",
			"name": "JBController_AddingPriceFeedNotAllowed",
			"inputs": []
		},
		{
			"type": "error",
			"name": "JBController_CreditTransfersPaused",
			"inputs": []
		},
		{
			"type": "error",
			"name": "JBController_InvalidRedemptionRate",
			"inputs": [
				{
					"name": "rate",
					"type": "uint256",
					"internalType": "uint256"
				},
				{
					"name": "limit",
					"type": "uint256",
					"internalType": "uint256"
				}
			]
		},
		{
			"type": "error",
			"name": "JBController_InvalidReservedPercent",
			"inputs": [
				{
					"name": "percent",
					"type": "uint256",
					"internalType": "uint256"
				},
				{
					"name": "limit",
					"type": "uint256",
					"internalType": "uint256"
				}
			]
		},
		{
			"type": "error",
			"name": "JBController_MintNotAllowedAndNotTerminalOrHook",
			"inputs": []
		},
		{
			"type": "error",
			"name": "JBController_NoReservedTokens",
			"inputs": []
		},
		{
			"type": "error",
			"name": "JBController_OnlyDirectory",
			"inputs": [
				{
					"name": "sender",
					"type": "address",
					"internalType": "address"
				},
				{
					"name": "directory",
					"type": "address",
					"internalType": "contract IJBDirectory"
				}
			]
		},
		{
			"type": "error",
			"name": "JBController_RulesetSetTokenNotAllowed",
			"inputs": []
		},
		{
			"type": "error",
			"name": "JBController_RulesetsAlreadyLaunched",
			"inputs": []
		},
		{
			"type": "error",
			"name": "JBController_RulesetsArrayEmpty",
			"inputs": []
		},
		{
			"type": "error",
			"name": "JBController_ZeroTokensToBurn",
			"inputs": []
		},
		{
			"type": "error",
			"name": "JBController_ZeroTokensToMint",
			"inputs": []
		},
		{
			"type": "error",
			"name": "JBPermissioned_Unauthorized",
			"inputs": [
				{
					"name": "account",
					"type": "address",
					"internalType": "address"
				},
				{
					"name": "sender",
					"type": "address",
					"internalType": "address"
				},
				{
					"name": "projectId",
					"type": "uint256",
					"internalType": "uint256"
				},
				{
					"name": "permissionId",
					"type": "uint256",
					"internalType": "uint256"
				}
			]
		},
		{
			"type": "error",
			"name": "PRBMath_MulDiv_Overflow",
			"inputs": [
				{
					"name": "x",
					"type": "uint256",
					"internalType": "uint256"
				},
				{
					"name": "y",
					"type": "uint256",
					"internalType": "uint256"
				},
				{
					"name": "denominator",
					"type": "uint256",
					"internalType": "uint256"
				}
			]
		},
		{
			"type": "error",
			"name": "SafeERC20FailedOperation",
			"inputs": [
				{
					"name": "token",
					"type": "address",
					"internalType": "address"
				}
			]
		}
	],
	"solcInputHash": "b89bde0fe29395f67edeac33d37789f7",
	"args": [
		"0xE0B2860344bA476e12eD1d559656dA9D04F1AD22",
		"0x1b3C23278f91Cdcf8D5Fe2b37178bDD37c3A90F8",
		"0x4CDb4200e4E65a277676Cd5E8d3c7C7C4dA7fBe5",
		"0x7769087dcaB8C6124a4305511b90582431F10e53",
		"0xEcB62030E30Bb027F672F24692111492Ba2Bbc84",
		"0x8De478a6071AD66Bf99c770AEA0cEdcDDDa72F43",
		"0x0EEcf21dfC9265E25b81F384993a40e351F897fe",
		"0xfF5Dd171BdA8bC78915B9a58D907Df7c10CE4E5c",
		"0xB2b5841DBeF766d4b521221732F9B618fCf34A87"
	],
	"bytecode": "0x6101a06040523480156200001257600080fd5b50604051620060a7380380620060a7833981016040819052620000359162000092565b6001600160a01b03968716608052861660a05296851660c05294841660e0529183166101005282166101205281166101405290811661016052166101805262000169565b6001600160a01b03811681146200008f57600080fd5b50565b60008060008060008060008060006101208a8c031215620000b257600080fd5b8951620000bf8162000079565b60208b0151909950620000d28162000079565b60408b0151909850620000e58162000079565b60608b0151909750620000f88162000079565b60808b01519096506200010b8162000079565b60a08b01519095506200011e8162000079565b60c08b0151909450620001318162000079565b60e08b0151909350620001448162000079565b6101008b0151909250620001588162000079565b809150509295985092959850929598565b60805160a05160c05160e0516101005161012051610140516101605161018051615d7d6200032a6000396000818161027a0152818161095701528181610bc40152818161102601528181611582015281816116e901528181611b9401528181611fa10152818161223e01528181613036015281816130b80152818161322401528181613377015281816133fe01526135bf0152600081816102e001528181611e5201528181612aa00152612f390152600081816105900152818161072701528181610da6015281816110e50152818161175a015281816126bf0152818161297f0152612c9f015260008181610328015281816107c901528181610c7d01528181610d1201528181610f460152818161123d0152818161135a015281816119e301528181611ccf01528181611dc001528181611ea701526121810152600081816102b901526108b201526000818161062a0152612b2701526000818161048f015281816109c501528181610a0701528181610e5401528181611408015281816118670152818161287401528181612bfd01526132de0152600081816103ee0152818161046601526138600152600081816105f001526125ef0152615d7d6000f3fe608060405234801561001057600080fd5b50600436106102275760003560e01c80637da0a87711610130578063c1ec61ee116100b8578063ed1159571161007c578063ed115957146105c5578063f12b64a5146105d8578063f434c914146105eb578063fb61b4e314610612578063ffa082441461062557600080fd5b8063c1ec61ee14610543578063c5b19b0e14610565578063c7fb92de14610578578063d4a1b4b11461058b578063e18de6b0146105b257600080fd5b8063a2d532e6116100ff578063a2d532e6146104d7578063a312889b146104ea578063b1a50e331461050a578063b1e6d2a11461051d578063c02c63ad1461053057600080fd5b80637da0a8771461046457806388bc2ef31461048a57806399d25a34146104b15780639ca61b12146104c457600080fd5b806339975571116101b357806354aa1f561161018257806354aa1f56146103cb578063572b6c05146103de578063581781911461041e5780636567b40614610431578063702a39771461045157600080fd5b80633997557114610372578063405b84fa1461039257806341929626146103a55780634da781a9146103b857600080fd5b80631f47ce69116101fa5780631f47ce69146102db57806325a61d5c14610302578063293c4999146103235780632fa902031461034a578063303f5dfa1461035f57600080fd5b806301ffc9a71461022c578063090db2f1146102545780631d831d5c146102755780631eabcd34146102b4575b600080fd5b61023f61023a366004613c20565b61064c565b60405190151581526020015b60405180910390f35b610267610262366004613c4a565b6106ef565b60405190815260200161024b565b61029c7f000000000000000000000000000000000000000000000000000000000000000081565b6040516001600160a01b03909116815260200161024b565b61029c7f000000000000000000000000000000000000000000000000000000000000000081565b61029c7f000000000000000000000000000000000000000000000000000000000000000081565b610315610310366004613c63565b6106fa565b60405161024b929190613e7c565b61029c7f000000000000000000000000000000000000000000000000000000000000000081565b61035d610358366004613eae565b6107af565b005b61035d61036d366004613eff565b610916565b610267610380366004613c4a565b60006020819052908152604090205481565b61035d6103a0366004613f3e565b6109ba565b6103156103b3366004613c4a565b610b74565b6102676103c6366004613c4a565b610b9f565b6102676103d9366004613ffa565b610c41565b61023f6103ec36600461409d565b7f00000000000000000000000000000000000000000000000000000000000000006001600160a01b0390811691161490565b61029c61042c3660046140ba565b610f21565b61044461043f36600461413b565b6110b3565b60405161024b9190614167565b61035d61045f3660046141ca565b611223565b7f000000000000000000000000000000000000000000000000000000000000000061029c565b61029c7f000000000000000000000000000000000000000000000000000000000000000081565b61023f6104bf366004613c4a565b61131a565b6102676104d2366004614215565b611338565b61035d6104e53660046142ed565b6114de565b6104fd6104f8366004613c4a565b6115bb565b60405161024b91906143a6565b61023f610518366004613c4a565b611655565b61035d61052b3660046143b9565b61166e565b61031561053e366004613c4a565b611718565b610556610551366004613c4a565b611731565b60405161024b93929190614401565b61035d61057336600461444b565b6117e5565b610267610586366004614490565b61198f565b61029c7f000000000000000000000000000000000000000000000000000000000000000081565b6102676105c036600461450b565b611c93565b61035d6105d3366004614573565b611da6565b61035d6105e6366004613f3e565b611e8d565b61029c7f000000000000000000000000000000000000000000000000000000000000000081565b61035d6106203660046145c5565b612002565b61029c7f000000000000000000000000000000000000000000000000000000000000000081565b60006001600160e01b03198216634db2677f60e01b148061067d57506001600160e01b031982166334ce2c7b60e21b145b8061069857506001600160e01b03198216632877540760e01b145b806106b357506001600160e01b0319821663217a87fd60e21b145b806106ce57506001600160e01b03198216633d0d324560e21b145b806106e957506001600160e01b031982166301ffc9a760e01b145b92915050565b60006106e98261211c565b610702613b0b565b61070a613b57565b604051630969875760e21b815260048101859052602481018490527f00000000000000000000000000000000000000000000000000000000000000006001600160a01b0316906325a61d5c9060440161012060405180830381865afa158015610777573d6000803e3d6000fd5b505050506040513d601f19601f8201168201806040525081019061079b9190614895565b91506107a68261232b565b90509250929050565b6040516331a9108f60e11b815260048101859052610844907f00000000000000000000000000000000000000000000000000000000000000006001600160a01b031690636352211e90602401602060405180830381865afa158015610818573d6000803e3d6000fd5b505050506040513d601f19601f8201168201806040525081019061083c91906148b2565b856012612583565b600061084f856126a1565b610100810151909150604c1c60019081161461087e576040516383d788ab60e01b815260040160405180910390fd5b60405163c6081d7160e01b81526004810186905260248101859052604481018490526001600160a01b0383811660648301527f0000000000000000000000000000000000000000000000000000000000000000169063c6081d71906084015b600060405180830381600087803b1580156108f757600080fd5b505af115801561090b573d6000803e3d6000fd5b505050505050505050565b6109228484600b612583565b60405163181faefd60e11b81526001600160a01b038581166004830152602482018590526044820184905282811660648301527f0000000000000000000000000000000000000000000000000000000000000000169063303f5dfa906084015b600060405180830381600087803b15801561099c57600080fd5b505af11580156109b0573d6000803e3d6000fd5b5050505050505050565b336001600160a01b037f00000000000000000000000000000000000000000000000000000000000000001614610a3957604051639653dbed60e01b81523360048201526001600160a01b037f00000000000000000000000000000000000000000000000000000000000000001660248201526044015b60405180910390fd5b604080516001600160a01b038316815233602082015283917f01f954abace731a88ab86e71186040cc2be49fe517ea06bc0d24f25b82b83456910160405180910390a260008281526020819052604090205415610a9b57610a998261211c565b505b6040516301ffc9a760e01b815263217a87fd60e21b60048201526001600160a01b038216906301ffc9a790602401602060405180830381865afa158015610ae6573d6000803e3d6000fd5b505050506040513d601f19601f82011682018060405250810190610b0a91906148cf565b15610b70576040516362d8cd8760e11b8152306004820152602481018390526001600160a01b0382169063c5b19b0e90604401600060405180830381600087803b158015610b5757600080fd5b505af1158015610b6b573d6000803e3d6000fd5b505050505b5050565b610b7c613b0b565b610b84613b57565b610b8d836126a1565b9150610b988261232b565b9050915091565b6000818152602081905260408082205490516375b0d9cd60e01b8152600481018490527f00000000000000000000000000000000000000000000000000000000000000006001600160a01b0316906375b0d9cd90602401602060405180830381865afa158015610c13573d6000803e3d6000fd5b505050506040513d601f19601f82011682018060405250810190610c3791906148ec565b6106e9919061491b565b6000858103610c6357604051632b72d06560e01b815260040160405180910390fd5b6040516331a9108f60e11b815260048101899052610cf8907f00000000000000000000000000000000000000000000000000000000000000006001600160a01b031690636352211e90602401602060405180830381865afa158015610ccc573d6000803e3d6000fd5b505050506040513d601f19601f82011682018060405250810190610cf091906148b2565b896002612583565b6040516331a9108f60e11b815260048101899052610d8d907f00000000000000000000000000000000000000000000000000000000000000006001600160a01b031690636352211e90602401602060405180830381865afa158015610d61573d6000803e3d6000fd5b505050506040513d601f19601f82011682018060405250810190610d8591906148b2565b89600e612583565b6040516319fade8560e11b8152600481018990526000907f00000000000000000000000000000000000000000000000000000000000000006001600160a01b0316906333f5bd0a90602401602060405180830381865afa158015610df5573d6000803e3d6000fd5b505050506040513d601f19601f82011682018060405250810190610e1991906148ec565b1115610e38576040516319d957db60e01b815260040160405180910390fd5b6040516338a73f9960e11b8152600481018990523060248201527f00000000000000000000000000000000000000000000000000000000000000006001600160a01b03169063714e7f3290604401600060405180830381600087803b158015610ea057600080fd5b505af1158015610eb4573d6000803e3d6000fd5b50505050610ec3888686612734565b610ece8888886128ab565b90507f23164adda696b19106c2eef50ba44461997682bf5aeb9fdb383117fa9952cc7581898585610efd612bc5565b604051610f0e959493929190614957565b60405180910390a1979650505050505050565b6040516331a9108f60e11b815260048101879052600090610fb9906001600160a01b037f00000000000000000000000000000000000000000000000000000000000000001690636352211e90602401602060405180830381865afa158015610f8d573d6000803e3d6000fd5b505050506040513d601f19601f82011682018060405250810190610fb191906148b2565b886007612583565b811561100f57610fc7612bc5565b82604051602001610ff692919060609290921b6bffffffffffffffffffffffff19168252601482015260340190565b6040516020818303038152906040528051906020012091505b604051635817819160e01b81526001600160a01b037f00000000000000000000000000000000000000000000000000000000000000001690635817819190611065908a908a908a908a908a908a90600401614991565b6020604051808303816000875af1158015611084573d6000803e3d6000fd5b505050506040513d601f19601f820116820180604052508101906110a891906148b2565b979650505050505050565b6040516301fd03bb60e71b81526004810184905260248101839052604481018290526060906000906001600160a01b037f0000000000000000000000000000000000000000000000000000000000000000169063fe81dd8090606401600060405180830381865afa15801561112c573d6000803e3d6000fd5b505050506040513d6000823e601f3d908101601f1916820160405261115491908101906149f5565b8051909150806001600160401b0381111561117157611171614640565b6040519080825280602002602001820160405280156111aa57816020015b611197613bfb565b81526020019060019003908161118f5790505b50925060005b818110156112195760008382815181106111cc576111cc614a9a565b6020026020010151905060405180604001604052808281526020016111f08361232b565b81525085838151811061120557611205614a9a565b6020908102919091010152506001016111b0565b5050509392505050565b6040516331a9108f60e11b8152600481018490526112b8907f00000000000000000000000000000000000000000000000000000000000000006001600160a01b031690636352211e90602401602060405180830381865afa15801561128c573d6000803e3d6000fd5b505050506040513d601f19601f820116820180604052508101906112b091906148b2565b846006612583565b60008381526001602052604090206112d1828483614b32565b50827f0f3d240fe5efaeda774d27bf0425f932ddd2098297b26de8070d6c8bef534b1683836112fe612bc5565b60405161130d93929190614bf2565b60405180910390a2505050565b600061132d611328836126a1565b61232b565b610120015192915050565b60405163180e2b1160e31b81526001600160a01b038a811660048301526000917f00000000000000000000000000000000000000000000000000000000000000009091169063c0715888906024016020604051808303816000875af11580156113a5573d6000803e3d6000fd5b505050506040513d601f19601f820116820180604052508101906113c991906148ec565b905087156113ec5760008181526001602052604090206113ea898b83614b32565b505b6040516338a73f9960e11b8152600481018290523060248201527f00000000000000000000000000000000000000000000000000000000000000006001600160a01b03169063714e7f3290604401600060405180830381600087803b15801561145457600080fd5b505af1158015611468573d6000803e3d6000fd5b50505050611477818686612734565b60006114848289896128ab565b90507f8dac501f24f52bda9ebdfa6a1789878c1d1e23823c771f7d52b5ba41261b0f4581838c8c88886114b5612bc5565b6040516114c89796959493929190614c1e565b60405180910390a1509998505050505050505050565b6114fb8585600a6114f6826114f1612bc5565b612bd4565b612c71565b8260000361151c576040516346545c9960e11b815260040160405180910390fd5b83856001600160a01b03167fdf04e13ee4fcd48a81ab2fd114757093740a3efa9b6475d86e05878b4c59d079858585611553612bc5565b6040516115639493929190614c6e565b60405180910390a360405163124d91e560e01b81526001600160a01b037f0000000000000000000000000000000000000000000000000000000000000000169063124d91e5906108dd90889088908890600401614ca1565b600160205260009081526040902080546115d490614ab0565b80601f016020809104026020016040519081016040528092919081815260200182805461160090614ab0565b801561164d5780601f106116225761010080835404028352916020019161164d565b820191906000526020600020905b81548152906001019060200180831161163057829003601f168201915b505050505081565b6000611663611328836126a1565b610100015192915050565b61167a8484600c612583565b6000611685846126a1565b61010081015190915060451c6001908116036116b457604051636af4c57760e01b815260040160405180910390fd5b60405163b1e6d2a160e01b81526001600160a01b038681166004830152602482018690528481166044830152606482018490527f0000000000000000000000000000000000000000000000000000000000000000169063b1e6d2a1906084016108dd565b611720613b0b565b611728613b57565b610b8d83612c81565b611739613b0b565b611741613b57565b60405163855a54ed60e01b8152600481018490526000907f00000000000000000000000000000000000000000000000000000000000000006001600160a01b03169063855a54ed9060240161014060405180830381865afa1580156117aa573d6000803e3d6000fd5b505050506040513d601f19601f820116820180604052508101906117ce9190614cc2565b90935090506117dc8361232b565b91509193909250565b6040516301ffc9a760e01b81526334ce2c7b60e21b60048201526001600160a01b038316906301ffc9a790602401602060405180830381865afa158015611830573d6000803e3d6000fd5b505050506040513d601f19601f8201168201806040525081019061185491906148cf565b80156118ff5750816001600160a01b03167f00000000000000000000000000000000000000000000000000000000000000006001600160a01b0316635dd8f6aa836040518263ffffffff1660e01b81526004016118b391815260200190565b602060405180830381865afa1580156118d0573d6000803e3d6000fd5b505050506040513d601f19601f820116820180604052508101906118f491906148b2565b6001600160a01b0316145b15610b705760405163a312889b60e01b8152600481018290526001600160a01b0383169063a312889b90602401600060405180830381865afa158015611949573d6000803e3d6000fd5b505050506040513d6000823e601f3d908101601f191682016040526119719190810190614cf5565b60008281526001602052604090209061198a9082614d88565b505050565b6000856000036119b25760405163064fae8d60e41b815260040160405180910390fd5b6000806119be896126a1565b6040516331a9108f60e11b8152600481018b9052909150611aa0906001600160a01b037f00000000000000000000000000000000000000000000000000000000000000001690636352211e90602401602060405180830381865afa158015611a2a573d6000803e3d6000fd5b505050506040513d601f19601f82011682018060405250810190611a4e91906148b2565b8a6009611a5d826114f1612bc5565b80611a88575061010085015160531c6001600160a01b0316611a7d612bc5565b6001600160a01b0316145b806114f657506114f68d86611a9b612bc5565b612cd6565b602081015165ffffffffffff1615801590611ac7575061010081015160461c600190811614155b8015611adc5750611ada896114f1612bc5565b155b8015611b09575061010081015160531c6001600160a01b0316611afd612bc5565b6001600160a01b031614155b8015611b1f5750611b1d8982611a9b612bc5565b155b15611b3d57604051632475c19d60e21b815260040160405180910390fd5b83611b49576000611b53565b61010081015160041c5b61ffff1691506127108214611c0057611b7a88611b7284612710614e47565b612710612d7e565b60405163aab68bdb60e01b81529093506001600160a01b037f0000000000000000000000000000000000000000000000000000000000000000169063aab68bdb90611bcd908a908d908890600401614ca1565b600060405180830381600087803b158015611be757600080fd5b505af1158015611bfb573d6000803e3d6000fd5b505050505b88876001600160a01b03167fe6fee9c572244c0c2238c3112ac12d411750a7ee00eeebd32521c3e5a666c14b8a868a8a88611c39612bc5565b604051611c4b96959493929190614e5a565b60405180910390a38115611c8757611c638389614e47565b60008a81526020819052604081208054909190611c8190849061491b565b90915550505b50509695505050505050565b6000838103611cb557604051632b72d06560e01b815260040160405180910390fd5b6040516331a9108f60e11b815260048101879052611d4a907f00000000000000000000000000000000000000000000000000000000000000006001600160a01b031690636352211e90602401602060405180830381865afa158015611d1e573d6000803e3d6000fd5b505050506040513d601f19601f82011682018060405250810190611d4291906148b2565b876002612583565b611d558686866128ab565b90507f24d02d612b06648bfa2000859f3de7e6f336139eaf5877c24b0d21320625286281878585611d84612bc5565b604051611d95959493929190614957565b60405180910390a195945050505050565b6040516331a9108f60e11b815260048101859052611e3b907f00000000000000000000000000000000000000000000000000000000000000006001600160a01b031690636352211e90602401602060405180830381865afa158015611e0f573d6000803e3d6000fd5b505050506040513d601f19601f82011682018060405250810190611e3391906148b2565b856011612583565b60405163ed11595760e01b81526001600160a01b037f0000000000000000000000000000000000000000000000000000000000000000169063ed11595790610982908790879087908790600401614ec8565b6040516331a9108f60e11b815260048101839052611f22907f00000000000000000000000000000000000000000000000000000000000000006001600160a01b031690636352211e90602401602060405180830381865afa158015611ef6573d6000803e3d6000fd5b505050506040513d601f19601f82011682018060405250810190611f1a91906148b2565b836008612583565b6000611f2d836126a1565b9050806020015165ffffffffffff16600003611f4f57611f4c83612c81565b90505b61010081015160471c600190811614611f7b57604051631b6846ab60e01b815260040160405180910390fd5b60405163f12b64a560e01b8152600481018490526001600160a01b0383811660248301527f0000000000000000000000000000000000000000000000000000000000000000169063f12b64a590604401600060405180830381600087803b158015611fe557600080fd5b505af1158015611ff9573d6000803e3d6000fd5b50505050505050565b33301461200e57600080fd5b6120226001600160a01b0386168886612e52565b60405163fef4325760e01b81526001600160a01b0388169063fef432579061205b9089908990899089906000908a908a90600401615051565b6020604051808303816000875af115801561207a573d6000803e3d6000fd5b505050506040513d601f19601f8201168201806040525081019061209e91906148ec565b50604051636eb1769f60e11b81523060048201526001600160a01b03888116602483015286169063dd62ed3e90604401602060405180830381865afa1580156120eb573d6000803e3d6000fd5b505050506040513d601f19601f8201168201806040525081019061210f91906148ec565b15611ff957611ff96150ac565b6000818152602081905260408120549081900361214c576040516364d7bdaf60e01b815260040160405180910390fd5b6000612157836126a1565b600084815260208190526040808220829055516331a9108f60e11b815260048101869052919250907f00000000000000000000000000000000000000000000000000000000000000006001600160a01b031690636352211e90602401602060405180830381865afa1580156121d0573d6000803e3d6000fd5b505050506040513d601f19601f820116820180604052508101906121f491906148b2565b90506000831561221c5761221785846020015165ffffffffffff16600187612f10565b61221f565b60005b905080156122aa5760405163aab68bdb60e01b81526001600160a01b037f0000000000000000000000000000000000000000000000000000000000000000169063aab68bdb9061227790859089908690600401614ca1565b600060405180830381600087803b15801561229157600080fd5b505af11580156122a5573d6000803e3d6000fd5b505050505b84836000015165ffffffffffff16846020015165ffffffffffff167f32411cac611c47cfe73afc187645c9cf3aec828d5f91780138d8421378fc0edb8588866122f1612bc5565b604080516001600160a01b0395861681526020810194909452830191909152909116606082015260800160405180910390a4505050919050565b612333613b57565b60405180610280016040528061234e84610100015160041c90565b61ffff16815260200161236684610100015160141c90565b61ffff16815260200161237e84610100015160241c90565b63ffffffff1681526020016123a0846101000151600160449190911c81161490565b151581526020016123be846101000151600160459190911c81161490565b151581526020016123dc846101000151600160469190911c81161490565b151581526020016123fa846101000151600160479190911c81161490565b15158152602001612418846101000151600160489190911c81161490565b15158152602001612436846101000151600160499190911c81161490565b151581526020016124548461010001516001604a9190911c81161490565b151581526020016124728461010001516001604b9190911c81161490565b151581526020016124908461010001516001604c9190911c81161490565b151581526020016124ae8461010001516001604d9190911c81161490565b151581526020016124cc8461010001516001604e9190911c81161490565b151581526020016124ea8461010001516001604f9190911c81161490565b15158152602001612508846101000151600160509190911c81161490565b15158152602001612526846101000151600160519190911c81161490565b15158152602001612544846101000151600160529190911c81161490565b1515815260200161255a84610100015160531c90565b6001600160a01b0316815260200161257784610100015160f31c90565b61ffff16905292915050565b600061258d612bc5565b9050836001600160a01b0316816001600160a01b03161415801561265c5750604051631a45b42760e11b81526001600160a01b0382811660048301528581166024830152604482018590526064820184905260016084830181905260a48301527f0000000000000000000000000000000000000000000000000000000000000000169063348b684e9060c401602060405180830381865afa158015612636573d6000803e3d6000fd5b505050506040513d601f19601f8201168201806040525081019061265a91906148cf565b155b1561269b57604051631326f75560e11b81526001600160a01b038086166004830152821660248201526044810184905260648101839052608401610a30565b50505050565b6126a9613b0b565b6040516321d1336160e11b8152600481018390527f00000000000000000000000000000000000000000000000000000000000000006001600160a01b0316906343a266c2906024015b61012060405180830381865afa158015612710573d6000803e3d6000fd5b505050506040513d601f19601f820116820180604052508101906106e99190614895565b6000816001600160401b0381111561274e5761274e614640565b604051908082528060200260200182016040528015612777578160200160208202803683370190505b50905060005b8281101561285657600084848381811061279957612799614a9a565b90506020028101906127ab91906150c2565b6127b4906150e2565b805160208201516040516304a6e43960e31b81529293506001600160a01b039091169163253721c8916127ec918a91906004016151df565b600060405180830381600087803b15801561280657600080fd5b505af115801561281a573d6000803e3d6000fd5b50505050806000015183838151811061283557612835614a9a565b6001600160a01b03909216602092830291909101909101525060010161277d565b50811561269b5760405163104373fb60e31b81526001600160a01b037f0000000000000000000000000000000000000000000000000000000000000000169063821b9fd8906109829087908590600401615257565b6000805b82811015612bbd5760008484838181106128cb576128cb614a9a565b90506020028101906128dd91906152b0565b6128e6906157a5565b905061271061ffff168160a001516000015161ffff1611156129305760a08101515160405163a162453f60e01b815261ffff90911660048201526127106024820152604401610a30565b61271061ffff168160a001516020015161ffff16111561297b5760a081015160200151604051631344012160e21b815261ffff90911660048201526127106024820152604401610a30565b60007f00000000000000000000000000000000000000000000000000000000000000006001600160a01b03166370174dcc8884602001518560400151866060015187608001516129ce8960a00151613694565b895160405160e089901b6001600160e01b0319168152600481019790975263ffffffff95861660248801526001600160701b0390941660448701529390911660648501526001600160a01b0316608484015260a483019190915265ffffffffffff1660c482015260e401610120604051808303816000875af1158015612a58573d6000803e3d6000fd5b505050506040513d601f19601f82011682018060405250810190612a7c9190614895565b602081015160c084015160405163ed11595760e01b81529293506001600160a01b037f0000000000000000000000000000000000000000000000000000000000000000169263ed11595792612ad5928c926004016158da565b600060405180830381600087803b158015612aef57600080fd5b505af1158015612b03573d6000803e3d6000fd5b505050602082015160e08401516040516323c620f360e21b81526001600160a01b037f0000000000000000000000000000000000000000000000000000000000000000169350638f1883cc92612b5d928c926004016159f3565b600060405180830381600087803b158015612b7757600080fd5b505af1158015612b8b573d6000803e3d6000fd5b50612b9d925060019150879050614e47565b8303612bb357806020015165ffffffffffff1693505b50506001016128af565b509392505050565b6000612bcf613850565b905090565b604051636e49181f60e01b8152600481018390526001600160a01b0382811660248301526000917f000000000000000000000000000000000000000000000000000000000000000090911690636e49181f90604401602060405180830381865afa158015612c46573d6000803e3d6000fd5b505050506040513d601f19601f82011682018060405250810190612c6a91906148cf565b9392505050565b8061269b5761269b848484612583565b612c89613b0b565b604051631735e2c560e11b8152600481018390527f00000000000000000000000000000000000000000000000000000000000000006001600160a01b031690632e6bc58a906024016126f2565b600080612ce884610100015160531c90565b6001600160a01b031614158015612d76575061010083015160531c604051630cef9c1160e31b8152600481018690526001600160a01b038481166024830152919091169063677ce08890604401602060405180830381865afa158015612d52573d6000803e3d6000fd5b505050506040513d601f19601f82011682018060405250810190612d7691906148cf565b949350505050565b6000808060001985870985870292508281108382030391505080600003612db857838281612dae57612dae615aa1565b0492505050612c6a565b838110612de957604051630c740aef60e31b8152600481018790526024810186905260448101859052606401610a30565b60008486880960026001871981018816978890046003810283188082028403028082028403028082028403028082028403028082028403029081029092039091026000889003889004909101858311909403939093029303949094049190911702949350505050565b604080516001600160a01b038416602482015260448082018490528251808303909101815260649091019091526020810180516001600160e01b031663095ea7b360e01b179052612ea384826138c5565b61269b576040516001600160a01b03848116602483015260006044830152612f0691869182169063095ea7b3906064015b604051602081830303815290604052915060e01b6020820180516001600160e01b03838183161783525050505061396d565b61269b848261396d565b6040516369e11cc560e01b815260048101859052602481018490526044810183905281906000907f00000000000000000000000000000000000000000000000000000000000000006001600160a01b0316906369e11cc590606401600060405180830381865afa158015612f88573d6000803e3d6000fd5b505050506040513d6000823e601f3d908101601f19168201604052612fb09190810190615ab7565b805190915060005b81811015613689576000838281518110612fd457612fd4614a9a565b602002602001015190506000612fff87836020015163ffffffff16633b9aca0063ffffffff16612d7e565b9050801561363a5760a08201516001600160a01b0316156131cc5760a082015160405163aab68bdb60e01b81526001600160a01b037f0000000000000000000000000000000000000000000000000000000000000000169163aab68bdb9161306e91908e908690600401614ca1565b600060405180830381600087803b15801561308857600080fd5b505af115801561309c573d6000803e3d6000fd5b505060405163ea78803f60e01b8152600481018d9052600092507f00000000000000000000000000000000000000000000000000000000000000006001600160a01b0316915063ea78803f90602401602060405180830381865afa158015613108573d6000803e3d6000fd5b505050506040513d601f19601f8201168201806040525081019061312c91906148b2565b90508260a001516001600160a01b0316630dcdc5706040518060c00160405280846001600160a01b03168152602001858152602001601281526020018e81526020018c8152602001868152506040518263ffffffff1660e01b81526004016131949190615bbc565b600060405180830381600087803b1580156131ae57600080fd5b505af11580156131c2573d6000803e3d6000fd5b505050505061362d565b60608201516000906001600160a01b03166131ee576131e9612bc5565b6131f4565b82606001515b9050826040015166ffffffffffffff166000146135965760405163ea78803f60e01b8152600481018c90526000907f00000000000000000000000000000000000000000000000000000000000000006001600160a01b03169063ea78803f90602401602060405180830381865afa158015613273573d6000803e3d6000fd5b505050506040513d601f19601f8201168201806040525081019061329791906148b2565b905060006001600160a01b0382161561334e576040858101519051630862026560e41b815266ffffffffffffff90911660048201526001600160a01b0383811660248301527f00000000000000000000000000000000000000000000000000000000000000001690638620265090604401602060405180830381865afa158015613325573d6000803e3d6000fd5b505050506040513d601f19601f8201168201806040525081019061334991906148b2565b613351565b60005b90506001600160a01b038216158061337057506001600160a01b038116155b156133fc577f00000000000000000000000000000000000000000000000000000000000000006001600160a01b031663aab68bdb848f876040518463ffffffff1660e01b81526004016133c593929190614ca1565b600060405180830381600087803b1580156133df57600080fd5b505af11580156133f3573d6000803e3d6000fd5b5050505061358f565b7f00000000000000000000000000000000000000000000000000000000000000006001600160a01b031663aab68bdb308f876040518463ffffffff1660e01b815260040161344c93929190614ca1565b600060405180830381600087803b15801561346657600080fd5b505af115801561347a573d6000803e3d6000fd5b5050505060008d60405160200161349391815260200190565b60408051601f198184030181528282529088015163fb61b4e360e01b8352909250309163fb61b4e3916134d39186919088908b908b908990600401615c10565b600060405180830381600087803b1580156134ed57600080fd5b505af19250505080156134fe575060015b61358d573d80801561352c576040519150601f19603f3d011682016040523d82523d6000602084013e613531565b606091505b508e7f96c3ac00fad4cbb9b9ae8df2dbf20a95984c04efde99cdeeaae754dbb44106ce88888461355f612bc5565b60405161356f9493929190615c66565b60405180910390a261358b6001600160a01b03851686886139d0565b505b505b505061362b565b6001600160a01b03811661dead1461362b5760405163aab68bdb60e01b81526001600160a01b037f0000000000000000000000000000000000000000000000000000000000000000169063aab68bdb906135f89084908f908790600401614ca1565b600060405180830381600087803b15801561361257600080fd5b505af1158015613626573d6000803e3d6000fd5b505050505b505b6136378187614e47565b95505b87898b7f61e0b98c9423afbd069cc95184e80d30166d0e9a3f747259d6a434491f478e228585613668612bc5565b60405161367793929190615ca8565b60405180910390a45050600101612fb8565b505050949350505050565b6000600190506004826000015161ffff16901b811790506014826020015161ffff16901b811790506024826040015163ffffffff16901b811790508160600151156136e55768100000000000000000175b8160800151156136fb5768200000000000000000175b8160a00151156137115768400000000000000000175b8160c00151156137275768800000000000000000175b8160e001511561373e576901000000000000000000175b81610100015115613756576902000000000000000000175b8161012001511561376e576904000000000000000000175b81610140015115613786576908000000000000000000175b8161016001511561379e576910000000000000000000175b816101800151156137b6576920000000000000000000175b816101a00151156137ce576940000000000000000000175b816101c00151156137e6576980000000000000000000175b816101e00151156137f857600160501b175b8161020001511561380a57600160511b175b8161022001511561381c57600160521b175b6102408201516102609092015160539290921b600160531b600160f31b03161760f09190911b6001600160f31b0319161790565b6000366014336001600160a01b037f00000000000000000000000000000000000000000000000000000000000000001614801561388d5750808210155b156138bd5760003661389f8385614e47565b6138aa928290615cd6565b6138b391615d00565b60601c9250505090565b339250505090565b6000806000846001600160a01b0316846040516138e29190615d35565b6000604051808303816000865af19150503d806000811461391f576040519150601f19603f3d011682016040523d82523d6000602084013e613924565b606091505b509150915081801561394e57508051158061394e57508080602001905181019061394e91906148cf565b801561396457506000856001600160a01b03163b115b95945050505050565b60006139826001600160a01b03841683613a01565b905080516000141580156139a75750808060200190518101906139a591906148cf565b155b1561198a57604051635274afe760e01b81526001600160a01b0384166004820152602401610a30565b6040516001600160a01b0383811660248301526044820183905261198a91859182169063a9059cbb90606401612ed4565b6060612c6a8383600084600080856001600160a01b03168486604051613a279190615d35565b60006040518083038185875af1925050503d8060008114613a64576040519150601f19603f3d011682016040523d82523d6000602084013e613a69565b606091505b5091509150613a79868383613a83565b9695505050505050565b606082613a9857613a9382613adf565b612c6a565b8151158015613aaf57506001600160a01b0384163b155b15613ad857604051639996b31560e01b81526001600160a01b0385166004820152602401610a30565b5080612c6a565b805115613aef5780518082602001fd5b604051630a12f52160e11b815260040160405180910390fd5b50565b6040805161012081018252600080825260208201819052918101829052606081018290526080810182905260a0810182905260c0810182905260e0810182905261010081019190915290565b6040805161028081018252600080825260208201819052918101829052606081018290526080810182905260a0810182905260c0810182905260e08101829052610100810182905261012081018290526101408101829052610160810182905261018081018290526101a081018290526101c081018290526101e0810182905261020081018290526102208101829052610240810182905261026081019190915290565b6040518060400160405280613c0e613b0b565b8152602001613c1b613b57565b905290565b600060208284031215613c3257600080fd5b81356001600160e01b031981168114612c6a57600080fd5b600060208284031215613c5c57600080fd5b5035919050565b60008060408385031215613c7657600080fd5b50508035926020909101359150565b65ffffffffffff808251168352806020830151166020840152806040830151166040840152506060810151613cc4606084018265ffffffffffff169052565b506080810151613cdc608084018263ffffffff169052565b5060a0810151613cf760a08401826001600160701b03169052565b5060c0810151613d0f60c084018263ffffffff169052565b5060e0810151613d2a60e08401826001600160a01b03169052565b5061010090810151910152565b805161ffff1682526020810151613d54602084018261ffff169052565b506040810151613d6c604084018263ffffffff169052565b506060810151613d80606084018215159052565b506080810151613d94608084018215159052565b5060a0810151613da860a084018215159052565b5060c0810151613dbc60c084018215159052565b5060e0810151613dd060e084018215159052565b5061010081810151151590830152610120808201511515908301526101408082015115159083015261016080820151151590830152610180808201511515908301526101a0808201511515908301526101c0808201511515908301526101e0808201511515908301526102008082015115159083015261022080820151151590830152610240808201516001600160a01b0316908301526102608082015161ffff81168285015261269b565b6103a08101613e8b8285613c85565b612c6a610120830184613d37565b6001600160a01b0381168114613b0857600080fd5b60008060008060808587031215613ec457600080fd5b8435935060208501359250604085013591506060850135613ee481613e99565b939692955090935050565b8035613efa81613e99565b919050565b60008060008060808587031215613f1557600080fd5b8435613f2081613e99565b935060208501359250604085013591506060850135613ee481613e99565b60008060408385031215613f5157600080fd5b823591506020830135613f6381613e99565b809150509250929050565b60008083601f840112613f8057600080fd5b5081356001600160401b03811115613f9757600080fd5b6020830191508360208260051b8501011115613fb257600080fd5b9250929050565b60008083601f840112613fcb57600080fd5b5081356001600160401b03811115613fe257600080fd5b602083019150836020828501011115613fb257600080fd5b60008060008060008060006080888a03121561401557600080fd5b8735965060208801356001600160401b038082111561403357600080fd5b61403f8b838c01613f6e565b909850965060408a013591508082111561405857600080fd5b6140648b838c01613f6e565b909650945060608a013591508082111561407d57600080fd5b5061408a8a828b01613fb9565b989b979a50959850939692959293505050565b6000602082840312156140af57600080fd5b8135612c6a81613e99565b600080600080600080608087890312156140d357600080fd5b8635955060208701356001600160401b03808211156140f157600080fd5b6140fd8a838b01613fb9565b9097509550604089013591508082111561411657600080fd5b5061412389828a01613fb9565b979a9699509497949695606090950135949350505050565b60008060006060848603121561415057600080fd5b505081359360208301359350604090920135919050565b6020808252825182820181905260009190848201906040850190845b818110156141be578351614198848251613c85565b8501516141a9610120850182613d37565b50928401926103a09290920191600101614183565b50909695505050505050565b6000806000604084860312156141df57600080fd5b8335925060208401356001600160401b038111156141fc57600080fd5b61420886828701613fb9565b9497909650939450505050565b600080600080600080600080600060a08a8c03121561423357600080fd5b893561423e81613e99565b985060208a01356001600160401b038082111561425a57600080fd5b6142668d838e01613fb9565b909a50985060408c013591508082111561427f57600080fd5b61428b8d838e01613f6e565b909850965060608c01359150808211156142a457600080fd5b6142b08d838e01613f6e565b909650945060808c01359150808211156142c957600080fd5b506142d68c828d01613fb9565b915080935050809150509295985092959850929598565b60008060008060006080868803121561430557600080fd5b853561431081613e99565b9450602086013593506040860135925060608601356001600160401b0381111561433957600080fd5b61434588828901613fb9565b969995985093965092949392505050565b60005b83811015614371578181015183820152602001614359565b50506000910152565b60008151808452614392816020860160208601614356565b601f01601f19169290920160200192915050565b602081526000612c6a602083018461437a565b600080600080608085870312156143cf57600080fd5b84356143da81613e99565b93506020850135925060408501356143f181613e99565b9396929550929360600135925050565b6103c081016144108286613c85565b61441e610120830185613d37565b6006831061443c57634e487b7160e01b600052602160045260246000fd5b826103a0830152949350505050565b6000806040838503121561445e57600080fd5b823561446981613e99565b946020939093013593505050565b8015158114613b0857600080fd5b8035613efa81614477565b60008060008060008060a087890312156144a957600080fd5b863595506020870135945060408701356144c281613e99565b935060608701356001600160401b038111156144dd57600080fd5b6144e989828a01613fb9565b90945092505060808701356144fd81614477565b809150509295509295509295565b60008060008060006060868803121561452357600080fd5b8535945060208601356001600160401b038082111561454157600080fd5b61454d89838a01613f6e565b9096509450604088013591508082111561456657600080fd5b5061434588828901613fb9565b6000806000806060858703121561458957600080fd5b843593506020850135925060408501356001600160401b038111156145ad57600080fd5b6145b987828801613f6e565b95989497509550505050565b600080600080600080600060c0888a0312156145e057600080fd5b87356145eb81613e99565b965060208801359550604088013561460281613e99565b945060608801359350608088013561461981613e99565b925060a08801356001600160401b0381111561463457600080fd5b61408a8a828b01613fb9565b634e487b7160e01b600052604160045260246000fd5b60405161012081016001600160401b038111828210171561467957614679614640565b60405290565b604080519081016001600160401b038111828210171561467957614679614640565b604051606081016001600160401b038111828210171561467957614679614640565b60405161028081016001600160401b038111828210171561467957614679614640565b60405160c081016001600160401b038111828210171561467957614679614640565b604051608081016001600160401b038111828210171561467957614679614640565b60405161010081016001600160401b038111828210171561467957614679614640565b604051601f8201601f191681016001600160401b038111828210171561477557614775614640565b604052919050565b65ffffffffffff81168114613b0857600080fd5b8051613efa8161477d565b63ffffffff81168114613b0857600080fd5b8051613efa8161479c565b6001600160701b0381168114613b0857600080fd5b8051613efa816147b9565b8051613efa81613e99565b600061012082840312156147f757600080fd5b6147ff614656565b905061480a82614791565b815261481860208301614791565b602082015261482960408301614791565b604082015261483a60608301614791565b606082015261484b608083016147ae565b608082015261485c60a083016147ce565b60a082015261486d60c083016147ae565b60c082015261487e60e083016147d9565b60e082015261010080830151818301525092915050565b600061012082840312156148a857600080fd5b612c6a83836147e4565b6000602082840312156148c457600080fd5b8151612c6a81613e99565b6000602082840312156148e157600080fd5b8151612c6a81614477565b6000602082840312156148fe57600080fd5b5051919050565b634e487b7160e01b600052601160045260246000fd5b808201808211156106e9576106e9614905565b81835281816020850137506000828201602090810191909152601f909101601f19169091010190565b85815284602082015260806040820152600061497760808301858761492e565b905060018060a01b03831660608301529695505050505050565b8681526080602082015260006149ab60808301878961492e565b82810360408401526149be81868861492e565b915050826060830152979650505050505050565b60006001600160401b038211156149eb576149eb614640565b5060051b60200190565b60006020808385031215614a0857600080fd5b82516001600160401b03811115614a1e57600080fd5b8301601f81018513614a2f57600080fd5b8051614a42614a3d826149d2565b61474d565b808282526020820191506101206020818502860101935088841115614a6657600080fd5b6020850194505b83851015614a8e57614a7f89866147e4565b83529384019391850191614a6d565b50979650505050505050565b634e487b7160e01b600052603260045260246000fd5b600181811c90821680614ac457607f821691505b602082108103614ae457634e487b7160e01b600052602260045260246000fd5b50919050565b601f82111561198a576000816000526020600020601f850160051c81016020861015614b135750805b601f850160051c820191505b81811015610b6b57828155600101614b1f565b6001600160401b03831115614b4957614b49614640565b614b5d83614b578354614ab0565b83614aea565b6000601f841160018114614b915760008515614b795750838201355b600019600387901b1c1916600186901b178355614beb565b600083815260209020601f19861690835b82811015614bc25786850135825560209485019460019092019101614ba2565b5086821015614bdf5760001960f88860031b161c19848701351681555b505060018560011b0183555b5050505050565b604081526000614c0660408301858761492e565b905060018060a01b0383166020830152949350505050565b87815286602082015260a060408201526000614c3e60a08301878961492e565b8281036060840152614c5181868861492e565b91505060018060a01b038316608083015298975050505050505050565b848152606060208201526000614c8860608301858761492e565b905060018060a01b038316604083015295945050505050565b6001600160a01b039390931683526020830191909152604082015260600190565b6000806101408385031215614cd657600080fd5b614ce084846147e4565b915061012083015160068110613f6357600080fd5b600060208284031215614d0757600080fd5b81516001600160401b0380821115614d1e57600080fd5b818401915084601f830112614d3257600080fd5b815181811115614d4457614d44614640565b614d57601f8201601f191660200161474d565b9150808252856020828501011115614d6e57600080fd5b614d7f816020840160208601614356565b50949350505050565b81516001600160401b03811115614da157614da1614640565b614db581614daf8454614ab0565b84614aea565b602080601f831160018114614dea5760008415614dd25750858301515b600019600386901b1c1916600185901b178555610b6b565b600085815260208120601f198616915b82811015614e1957888601518255948401946001909101908401614dfa565b5085821015614e375787850151600019600388901b60f8161c191681555b5050505050600190811b01905550565b818103818111156106e9576106e9614905565b86815285602082015260a060408201526000614e7a60a08301868861492e565b6060830194909452506001600160a01b0391909116608090910152949350505050565b8035613efa8161479c565b66ffffffffffffff81168114613b0857600080fd5b8035613efa8161477d565b6000606080830187845260208781860152604060606040870152828784526080935060808701905060808860051b8801018960005b8a81101561503f57898303607f190184528135368d9003603e19018112614f2357600080fd5b8c01803584528386018782013536839003601e19018112614f4357600080fd5b9091018781019190356001600160401b03811115614f6057600080fd5b60c08082023603841315614f7357600080fd5b868a01899052918190526000918b87015b82841015615029578435614f9781614477565b15158152848b0135614fa88161479c565b63ffffffff16818c0152848a0135614fbf81614ea8565b66ffffffffffffff16818b0152848d0135614fd981613e99565b6001600160a01b0316818e0152614ff1858d01614ebd565b65ffffffffffff168c82015260a061500a868201613eef565b6001600160a01b03169082015293810193600193909301928101614f84565b978a019796505050928701925050600101614efd565b50909c9b505050505050505050505050565b878152600060018060a01b03808916602084015287604084015280871660608401525084608083015260e060a0830152600060e08301526101008060c084015261509e818401858761492e565b9a9950505050505050505050565b634e487b7160e01b600052600160045260246000fd5b60008235603e198336030181126150d857600080fd5b9190910192915050565b600060408083360312156150f557600080fd5b6150fd61467f565b833561510881613e99565b81526020848101356001600160401b0381111561512457600080fd5b850136601f82011261513557600080fd5b8035615143614a3d826149d2565b8181526060918202830184019184820191903684111561516257600080fd5b938501935b838510156151cc5780853603121561517f5760008081fd5b6151876146a1565b853561519281613e99565b81528587013560ff811681146151a85760008081fd5b81880152858901356151b98161479c565b818a015283529384019391850191615167565b5093850193909352509195945050505050565b60006040808301858452602060406020860152818651808452606093506060870191506020880160005b8281101561524857815180516001600160a01b031685528581015160ff168686015287015163ffffffff16878501529285019290840190600101615209565b50919998505050505050505050565b60006040820184835260206040602085015281855180845260608601915060208701935060005b818110156152a35784516001600160a01b03168352938301939183019160010161527e565b5090979650505050505050565b6000823561035e198336030181126150d857600080fd5b8035613efa816147b9565b803561ffff81168114613efa57600080fd5b600061028082840312156152f757600080fd5b6152ff6146c3565b905061530a826152d2565b8152615318602083016152d2565b602082015261532960408301614e9d565b604082015261533a60608301614485565b606082015261534b60808301614485565b608082015261535c60a08301614485565b60a082015261536d60c08301614485565b60c082015261537e60e08301614485565b60e0820152610100615391818401614485565b908201526101206153a3838201614485565b908201526101406153b5838201614485565b908201526101606153c7838201614485565b908201526101806153d9838201614485565b908201526101a06153eb838201614485565b908201526101c06153fd838201614485565b908201526101e061540f838201614485565b90820152610200615421838201614485565b90820152610220615433838201614485565b90820152610240615445838201613eef565b908201526102606154578382016152d2565b9082015292915050565b600082601f83011261547257600080fd5b81356020615482614a3d836149d2565b82815260059290921b840181019181810190868411156154a157600080fd5b8286015b848110156155f55780356001600160401b03808211156154c457600080fd5b908801906040828b03601f19018113156154dd57600080fd5b6154e561467f565b87840135815281840135838111156154fc57600080fd5b8085019450508b603f85011261551157600080fd5b878401359250615523614a3d846149d2565b83815260c09093028401820192888101908d85111561554157600080fd5b948301945b848610156155e05760c0868f03121561555e57600080fd5b6155666146e6565b863561557181614477565b8152868b01356155808161479c565b818c01528685013561559181614ea8565b8186015260608701356155a381613e99565b606082015260808701356155b68161477d565b608082015260a08701356155c981613e99565b60a0820152825260c0959095019490890190615546565b828a01525086525050509183019183016154a5565b509695505050505050565b600082601f83011261561157600080fd5b81356020615621614a3d836149d2565b82815260069290921b8401810191818101908684111561564057600080fd5b8286015b848110156155f5576040818903121561565d5760008081fd5b61566561467f565b81356001600160e01b038116811461567d5760008081fd5b81528185013561568c8161479c565b81860152835291830191604001615644565b600082601f8301126156af57600080fd5b813560206156bf614a3d836149d2565b82815260059290921b840181019181810190868411156156de57600080fd5b8286015b848110156155f55780356001600160401b03808211156157025760008081fd5b908801906080828b03601f190181131561571c5760008081fd5b615724614708565b8784013561573181613e99565b815260408481013561574281613e99565b828a01526060858101358581111561575a5760008081fd5b6157688f8c838a0101615600565b848401525092850135928484111561578257600091508182fd5b6157908e8b86890101615600565b908301525086525050509183019183016156e2565b600061036082360312156157b857600080fd5b6157c061472a565b6157c983614ebd565b81526157d760208401614e9d565b60208201526157e8604084016152c7565b60408201526157f960608401614e9d565b606082015261580a60808401613eef565b608082015261581c3660a085016152e4565b60a08201526103208301356001600160401b038082111561583c57600080fd5b61584836838701615461565b60c084015261034085013591508082111561586257600080fd5b5061586f3682860161569e565b60e08301525092915050565b80511515825260208082015163ffffffff169083015260408082015166ffffffffffffff16908301526060808201516001600160a01b039081169184019190915260808083015165ffffffffffff169084015260a09182015116910152565b60006060808301868452602065ffffffffffff87168186015260406060604087015282875180855260808801915060808160051b89010194508389016000805b8381101561598b578a8803607f190185528251805189528701518789018790528051878a018190529088019083908b8b01905b808310156159765761596082855161587b565b60c0820191508a8401935060018301925061594d565b5099505050938601939186019160010161591a565b50959c9b505050505050505050505050565b60008151808452602080850194506020840160005b838110156159e857815180516001600160e01b0316885283015163ffffffff1683880152604090960195908201906001016159b2565b509495945050505050565b60006060808301868452602065ffffffffffff8716818601526040606060408701528287518085526080945060808801915060808160051b890101848a0160005b8381101561503f578a8303607f19018552815180516001600160a01b039081168552888201511688850152868101518785018a9052615a758a86018261599d565b918b0151858303868d0152919050615a8d818361599d565b968901969450505090860190600101615a34565b634e487b7160e01b600052601260045260246000fd5b60006020808385031215615aca57600080fd5b82516001600160401b03811115615ae057600080fd5b8301601f81018513615af157600080fd5b8051615aff614a3d826149d2565b81815260c09182028301840191848201919088841115615b1e57600080fd5b938501935b83851015614a8e5780858a031215615b3b5760008081fd5b615b436146e6565b8551615b4e81614477565b815285870151615b5d8161479c565b81880152604086810151615b7081614ea8565b90820152606086810151615b8381613e99565b90820152608086810151615b968161477d565b9082015260a086810151615ba981613e99565b9082015283529384019391850191615b23565b81516001600160a01b031681526020808301519082015260408083015190820152606080830151908201526080808301519082015260a082810151610160830191615c099084018261587b565b5092915050565b6001600160a01b03878116825266ffffffffffffff871660208301528581166040830152606082018590528316608082015260c060a08201819052600090615c5a9083018461437a565b98975050505050505050565b6000610120615c75838861587b565b8560c08401528060e0840152615c8d8184018661437a565b91505060018060a01b03831661010083015295945050505050565b6101008101615cb7828661587b565b60c08201939093526001600160a01b039190911660e090910152919050565b60008085851115615ce657600080fd5b83861115615cf357600080fd5b5050820193919092039150565b6bffffffffffffffffffffffff198135818116916014851015615d2d5780818660140360031b1b83161692505b505092915050565b600082516150d881846020870161435656fea2646970667358221220492d94dafc18e57321e4d68d01275a10c3d7c79061f17ff5ea71d1d4f1f4991d64736f6c63430008170033",
	"deployedBytecode": "0x608060405234801561001057600080fd5b50600436106102275760003560e01c80637da0a87711610130578063c1ec61ee116100b8578063ed1159571161007c578063ed115957146105c5578063f12b64a5146105d8578063f434c914146105eb578063fb61b4e314610612578063ffa082441461062557600080fd5b8063c1ec61ee14610543578063c5b19b0e14610565578063c7fb92de14610578578063d4a1b4b11461058b578063e18de6b0146105b257600080fd5b8063a2d532e6116100ff578063a2d532e6146104d7578063a312889b146104ea578063b1a50e331461050a578063b1e6d2a11461051d578063c02c63ad1461053057600080fd5b80637da0a8771461046457806388bc2ef31461048a57806399d25a34146104b15780639ca61b12146104c457600080fd5b806339975571116101b357806354aa1f561161018257806354aa1f56146103cb578063572b6c05146103de578063581781911461041e5780636567b40614610431578063702a39771461045157600080fd5b80633997557114610372578063405b84fa1461039257806341929626146103a55780634da781a9146103b857600080fd5b80631f47ce69116101fa5780631f47ce69146102db57806325a61d5c14610302578063293c4999146103235780632fa902031461034a578063303f5dfa1461035f57600080fd5b806301ffc9a71461022c578063090db2f1146102545780631d831d5c146102755780631eabcd34146102b4575b600080fd5b61023f61023a366004613c20565b61064c565b60405190151581526020015b60405180910390f35b610267610262366004613c4a565b6106ef565b60405190815260200161024b565b61029c7f000000000000000000000000ff5dd171bda8bc78915b9a58d907df7c10ce4e5c81565b6040516001600160a01b03909116815260200161024b565b61029c7f0000000000000000000000007769087dcab8c6124a4305511b90582431f10e5381565b61029c7f0000000000000000000000000eecf21dfc9265e25b81f384993a40e351f897fe81565b610315610310366004613c63565b6106fa565b60405161024b929190613e7c565b61029c7f000000000000000000000000ecb62030e30bb027f672f24692111492ba2bbc8481565b61035d610358366004613eae565b6107af565b005b61035d61036d366004613eff565b610916565b610267610380366004613c4a565b60006020819052908152604090205481565b61035d6103a0366004613f3e565b6109ba565b6103156103b3366004613c4a565b610b74565b6102676103c6366004613c4a565b610b9f565b6102676103d9366004613ffa565b610c41565b61023f6103ec36600461409d565b7f000000000000000000000000b2b5841dbef766d4b521221732f9b618fcf34a876001600160a01b0390811691161490565b61029c61042c3660046140ba565b610f21565b61044461043f36600461413b565b6110b3565b60405161024b9190614167565b61035d61045f3660046141ca565b611223565b7f000000000000000000000000b2b5841dbef766d4b521221732f9b618fcf34a8761029c565b61029c7f000000000000000000000000e0b2860344ba476e12ed1d559656da9d04f1ad2281565b61023f6104bf366004613c4a565b61131a565b6102676104d2366004614215565b611338565b61035d6104e53660046142ed565b6114de565b6104fd6104f8366004613c4a565b6115bb565b60405161024b91906143a6565b61023f610518366004613c4a565b611655565b61035d61052b3660046143b9565b61166e565b61031561053e366004613c4a565b611718565b610556610551366004613c4a565b611731565b60405161024b93929190614401565b61035d61057336600461444b565b6117e5565b610267610586366004614490565b61198f565b61029c7f0000000000000000000000008de478a6071ad66bf99c770aea0cedcddda72f4381565b6102676105c036600461450b565b611c93565b61035d6105d3366004614573565b611da6565b61035d6105e6366004613f3e565b611e8d565b61029c7f0000000000000000000000004cdb4200e4e65a277676cd5e8d3c7c7c4da7fbe581565b61035d6106203660046145c5565b612002565b61029c7f0000000000000000000000001b3c23278f91cdcf8d5fe2b37178bdd37c3a90f881565b60006001600160e01b03198216634db2677f60e01b148061067d57506001600160e01b031982166334ce2c7b60e21b145b8061069857506001600160e01b03198216632877540760e01b145b806106b357506001600160e01b0319821663217a87fd60e21b145b806106ce57506001600160e01b03198216633d0d324560e21b145b806106e957506001600160e01b031982166301ffc9a760e01b145b92915050565b60006106e98261211c565b610702613b0b565b61070a613b57565b604051630969875760e21b815260048101859052602481018490527f0000000000000000000000008de478a6071ad66bf99c770aea0cedcddda72f436001600160a01b0316906325a61d5c9060440161012060405180830381865afa158015610777573d6000803e3d6000fd5b505050506040513d601f19601f8201168201806040525081019061079b9190614895565b91506107a68261232b565b90509250929050565b6040516331a9108f60e11b815260048101859052610844907f000000000000000000000000ecb62030e30bb027f672f24692111492ba2bbc846001600160a01b031690636352211e90602401602060405180830381865afa158015610818573d6000803e3d6000fd5b505050506040513d601f19601f8201168201806040525081019061083c91906148b2565b856012612583565b600061084f856126a1565b610100810151909150604c1c60019081161461087e576040516383d788ab60e01b815260040160405180910390fd5b60405163c6081d7160e01b81526004810186905260248101859052604481018490526001600160a01b0383811660648301527f0000000000000000000000007769087dcab8c6124a4305511b90582431f10e53169063c6081d71906084015b600060405180830381600087803b1580156108f757600080fd5b505af115801561090b573d6000803e3d6000fd5b505050505050505050565b6109228484600b612583565b60405163181faefd60e11b81526001600160a01b038581166004830152602482018590526044820184905282811660648301527f000000000000000000000000ff5dd171bda8bc78915b9a58d907df7c10ce4e5c169063303f5dfa906084015b600060405180830381600087803b15801561099c57600080fd5b505af11580156109b0573d6000803e3d6000fd5b5050505050505050565b336001600160a01b037f000000000000000000000000e0b2860344ba476e12ed1d559656da9d04f1ad221614610a3957604051639653dbed60e01b81523360048201526001600160a01b037f000000000000000000000000e0b2860344ba476e12ed1d559656da9d04f1ad221660248201526044015b60405180910390fd5b604080516001600160a01b038316815233602082015283917f01f954abace731a88ab86e71186040cc2be49fe517ea06bc0d24f25b82b83456910160405180910390a260008281526020819052604090205415610a9b57610a998261211c565b505b6040516301ffc9a760e01b815263217a87fd60e21b60048201526001600160a01b038216906301ffc9a790602401602060405180830381865afa158015610ae6573d6000803e3d6000fd5b505050506040513d601f19601f82011682018060405250810190610b0a91906148cf565b15610b70576040516362d8cd8760e11b8152306004820152602481018390526001600160a01b0382169063c5b19b0e90604401600060405180830381600087803b158015610b5757600080fd5b505af1158015610b6b573d6000803e3d6000fd5b505050505b5050565b610b7c613b0b565b610b84613b57565b610b8d836126a1565b9150610b988261232b565b9050915091565b6000818152602081905260408082205490516375b0d9cd60e01b8152600481018490527f000000000000000000000000ff5dd171bda8bc78915b9a58d907df7c10ce4e5c6001600160a01b0316906375b0d9cd90602401602060405180830381865afa158015610c13573d6000803e3d6000fd5b505050506040513d601f19601f82011682018060405250810190610c3791906148ec565b6106e9919061491b565b6000858103610c6357604051632b72d06560e01b815260040160405180910390fd5b6040516331a9108f60e11b815260048101899052610cf8907f000000000000000000000000ecb62030e30bb027f672f24692111492ba2bbc846001600160a01b031690636352211e90602401602060405180830381865afa158015610ccc573d6000803e3d6000fd5b505050506040513d601f19601f82011682018060405250810190610cf091906148b2565b896002612583565b6040516331a9108f60e11b815260048101899052610d8d907f000000000000000000000000ecb62030e30bb027f672f24692111492ba2bbc846001600160a01b031690636352211e90602401602060405180830381865afa158015610d61573d6000803e3d6000fd5b505050506040513d601f19601f82011682018060405250810190610d8591906148b2565b89600e612583565b6040516319fade8560e11b8152600481018990526000907f0000000000000000000000008de478a6071ad66bf99c770aea0cedcddda72f436001600160a01b0316906333f5bd0a90602401602060405180830381865afa158015610df5573d6000803e3d6000fd5b505050506040513d601f19601f82011682018060405250810190610e1991906148ec565b1115610e38576040516319d957db60e01b815260040160405180910390fd5b6040516338a73f9960e11b8152600481018990523060248201527f000000000000000000000000e0b2860344ba476e12ed1d559656da9d04f1ad226001600160a01b03169063714e7f3290604401600060405180830381600087803b158015610ea057600080fd5b505af1158015610eb4573d6000803e3d6000fd5b50505050610ec3888686612734565b610ece8888886128ab565b90507f23164adda696b19106c2eef50ba44461997682bf5aeb9fdb383117fa9952cc7581898585610efd612bc5565b604051610f0e959493929190614957565b60405180910390a1979650505050505050565b6040516331a9108f60e11b815260048101879052600090610fb9906001600160a01b037f000000000000000000000000ecb62030e30bb027f672f24692111492ba2bbc841690636352211e90602401602060405180830381865afa158015610f8d573d6000803e3d6000fd5b505050506040513d601f19601f82011682018060405250810190610fb191906148b2565b886007612583565b811561100f57610fc7612bc5565b82604051602001610ff692919060609290921b6bffffffffffffffffffffffff19168252601482015260340190565b6040516020818303038152906040528051906020012091505b604051635817819160e01b81526001600160a01b037f000000000000000000000000ff5dd171bda8bc78915b9a58d907df7c10ce4e5c1690635817819190611065908a908a908a908a908a908a90600401614991565b6020604051808303816000875af1158015611084573d6000803e3d6000fd5b505050506040513d601f19601f820116820180604052508101906110a891906148b2565b979650505050505050565b6040516301fd03bb60e71b81526004810184905260248101839052604481018290526060906000906001600160a01b037f0000000000000000000000008de478a6071ad66bf99c770aea0cedcddda72f43169063fe81dd8090606401600060405180830381865afa15801561112c573d6000803e3d6000fd5b505050506040513d6000823e601f3d908101601f1916820160405261115491908101906149f5565b8051909150806001600160401b0381111561117157611171614640565b6040519080825280602002602001820160405280156111aa57816020015b611197613bfb565b81526020019060019003908161118f5790505b50925060005b818110156112195760008382815181106111cc576111cc614a9a565b6020026020010151905060405180604001604052808281526020016111f08361232b565b81525085838151811061120557611205614a9a565b6020908102919091010152506001016111b0565b5050509392505050565b6040516331a9108f60e11b8152600481018490526112b8907f000000000000000000000000ecb62030e30bb027f672f24692111492ba2bbc846001600160a01b031690636352211e90602401602060405180830381865afa15801561128c573d6000803e3d6000fd5b505050506040513d601f19601f820116820180604052508101906112b091906148b2565b846006612583565b60008381526001602052604090206112d1828483614b32565b50827f0f3d240fe5efaeda774d27bf0425f932ddd2098297b26de8070d6c8bef534b1683836112fe612bc5565b60405161130d93929190614bf2565b60405180910390a2505050565b600061132d611328836126a1565b61232b565b610120015192915050565b60405163180e2b1160e31b81526001600160a01b038a811660048301526000917f000000000000000000000000ecb62030e30bb027f672f24692111492ba2bbc849091169063c0715888906024016020604051808303816000875af11580156113a5573d6000803e3d6000fd5b505050506040513d601f19601f820116820180604052508101906113c991906148ec565b905087156113ec5760008181526001602052604090206113ea898b83614b32565b505b6040516338a73f9960e11b8152600481018290523060248201527f000000000000000000000000e0b2860344ba476e12ed1d559656da9d04f1ad226001600160a01b03169063714e7f3290604401600060405180830381600087803b15801561145457600080fd5b505af1158015611468573d6000803e3d6000fd5b50505050611477818686612734565b60006114848289896128ab565b90507f8dac501f24f52bda9ebdfa6a1789878c1d1e23823c771f7d52b5ba41261b0f4581838c8c88886114b5612bc5565b6040516114c89796959493929190614c1e565b60405180910390a1509998505050505050505050565b6114fb8585600a6114f6826114f1612bc5565b612bd4565b612c71565b8260000361151c576040516346545c9960e11b815260040160405180910390fd5b83856001600160a01b03167fdf04e13ee4fcd48a81ab2fd114757093740a3efa9b6475d86e05878b4c59d079858585611553612bc5565b6040516115639493929190614c6e565b60405180910390a360405163124d91e560e01b81526001600160a01b037f000000000000000000000000ff5dd171bda8bc78915b9a58d907df7c10ce4e5c169063124d91e5906108dd90889088908890600401614ca1565b600160205260009081526040902080546115d490614ab0565b80601f016020809104026020016040519081016040528092919081815260200182805461160090614ab0565b801561164d5780601f106116225761010080835404028352916020019161164d565b820191906000526020600020905b81548152906001019060200180831161163057829003601f168201915b505050505081565b6000611663611328836126a1565b610100015192915050565b61167a8484600c612583565b6000611685846126a1565b61010081015190915060451c6001908116036116b457604051636af4c57760e01b815260040160405180910390fd5b60405163b1e6d2a160e01b81526001600160a01b038681166004830152602482018690528481166044830152606482018490527f000000000000000000000000ff5dd171bda8bc78915b9a58d907df7c10ce4e5c169063b1e6d2a1906084016108dd565b611720613b0b565b611728613b57565b610b8d83612c81565b611739613b0b565b611741613b57565b60405163855a54ed60e01b8152600481018490526000907f0000000000000000000000008de478a6071ad66bf99c770aea0cedcddda72f436001600160a01b03169063855a54ed9060240161014060405180830381865afa1580156117aa573d6000803e3d6000fd5b505050506040513d601f19601f820116820180604052508101906117ce9190614cc2565b90935090506117dc8361232b565b91509193909250565b6040516301ffc9a760e01b81526334ce2c7b60e21b60048201526001600160a01b038316906301ffc9a790602401602060405180830381865afa158015611830573d6000803e3d6000fd5b505050506040513d601f19601f8201168201806040525081019061185491906148cf565b80156118ff5750816001600160a01b03167f000000000000000000000000e0b2860344ba476e12ed1d559656da9d04f1ad226001600160a01b0316635dd8f6aa836040518263ffffffff1660e01b81526004016118b391815260200190565b602060405180830381865afa1580156118d0573d6000803e3d6000fd5b505050506040513d601f19601f820116820180604052508101906118f491906148b2565b6001600160a01b0316145b15610b705760405163a312889b60e01b8152600481018290526001600160a01b0383169063a312889b90602401600060405180830381865afa158015611949573d6000803e3d6000fd5b505050506040513d6000823e601f3d908101601f191682016040526119719190810190614cf5565b60008281526001602052604090209061198a9082614d88565b505050565b6000856000036119b25760405163064fae8d60e41b815260040160405180910390fd5b6000806119be896126a1565b6040516331a9108f60e11b8152600481018b9052909150611aa0906001600160a01b037f000000000000000000000000ecb62030e30bb027f672f24692111492ba2bbc841690636352211e90602401602060405180830381865afa158015611a2a573d6000803e3d6000fd5b505050506040513d601f19601f82011682018060405250810190611a4e91906148b2565b8a6009611a5d826114f1612bc5565b80611a88575061010085015160531c6001600160a01b0316611a7d612bc5565b6001600160a01b0316145b806114f657506114f68d86611a9b612bc5565b612cd6565b602081015165ffffffffffff1615801590611ac7575061010081015160461c600190811614155b8015611adc5750611ada896114f1612bc5565b155b8015611b09575061010081015160531c6001600160a01b0316611afd612bc5565b6001600160a01b031614155b8015611b1f5750611b1d8982611a9b612bc5565b155b15611b3d57604051632475c19d60e21b815260040160405180910390fd5b83611b49576000611b53565b61010081015160041c5b61ffff1691506127108214611c0057611b7a88611b7284612710614e47565b612710612d7e565b60405163aab68bdb60e01b81529093506001600160a01b037f000000000000000000000000ff5dd171bda8bc78915b9a58d907df7c10ce4e5c169063aab68bdb90611bcd908a908d908890600401614ca1565b600060405180830381600087803b158015611be757600080fd5b505af1158015611bfb573d6000803e3d6000fd5b505050505b88876001600160a01b03167fe6fee9c572244c0c2238c3112ac12d411750a7ee00eeebd32521c3e5a666c14b8a868a8a88611c39612bc5565b604051611c4b96959493929190614e5a565b60405180910390a38115611c8757611c638389614e47565b60008a81526020819052604081208054909190611c8190849061491b565b90915550505b50509695505050505050565b6000838103611cb557604051632b72d06560e01b815260040160405180910390fd5b6040516331a9108f60e11b815260048101879052611d4a907f000000000000000000000000ecb62030e30bb027f672f24692111492ba2bbc846001600160a01b031690636352211e90602401602060405180830381865afa158015611d1e573d6000803e3d6000fd5b505050506040513d601f19601f82011682018060405250810190611d4291906148b2565b876002612583565b611d558686866128ab565b90507f24d02d612b06648bfa2000859f3de7e6f336139eaf5877c24b0d21320625286281878585611d84612bc5565b604051611d95959493929190614957565b60405180910390a195945050505050565b6040516331a9108f60e11b815260048101859052611e3b907f000000000000000000000000ecb62030e30bb027f672f24692111492ba2bbc846001600160a01b031690636352211e90602401602060405180830381865afa158015611e0f573d6000803e3d6000fd5b505050506040513d601f19601f82011682018060405250810190611e3391906148b2565b856011612583565b60405163ed11595760e01b81526001600160a01b037f0000000000000000000000000eecf21dfc9265e25b81f384993a40e351f897fe169063ed11595790610982908790879087908790600401614ec8565b6040516331a9108f60e11b815260048101839052611f22907f000000000000000000000000ecb62030e30bb027f672f24692111492ba2bbc846001600160a01b031690636352211e90602401602060405180830381865afa158015611ef6573d6000803e3d6000fd5b505050506040513d601f19601f82011682018060405250810190611f1a91906148b2565b836008612583565b6000611f2d836126a1565b9050806020015165ffffffffffff16600003611f4f57611f4c83612c81565b90505b61010081015160471c600190811614611f7b57604051631b6846ab60e01b815260040160405180910390fd5b60405163f12b64a560e01b8152600481018490526001600160a01b0383811660248301527f000000000000000000000000ff5dd171bda8bc78915b9a58d907df7c10ce4e5c169063f12b64a590604401600060405180830381600087803b158015611fe557600080fd5b505af1158015611ff9573d6000803e3d6000fd5b50505050505050565b33301461200e57600080fd5b6120226001600160a01b0386168886612e52565b60405163fef4325760e01b81526001600160a01b0388169063fef432579061205b9089908990899089906000908a908a90600401615051565b6020604051808303816000875af115801561207a573d6000803e3d6000fd5b505050506040513d601f19601f8201168201806040525081019061209e91906148ec565b50604051636eb1769f60e11b81523060048201526001600160a01b03888116602483015286169063dd62ed3e90604401602060405180830381865afa1580156120eb573d6000803e3d6000fd5b505050506040513d601f19601f8201168201806040525081019061210f91906148ec565b15611ff957611ff96150ac565b6000818152602081905260408120549081900361214c576040516364d7bdaf60e01b815260040160405180910390fd5b6000612157836126a1565b600084815260208190526040808220829055516331a9108f60e11b815260048101869052919250907f000000000000000000000000ecb62030e30bb027f672f24692111492ba2bbc846001600160a01b031690636352211e90602401602060405180830381865afa1580156121d0573d6000803e3d6000fd5b505050506040513d601f19601f820116820180604052508101906121f491906148b2565b90506000831561221c5761221785846020015165ffffffffffff16600187612f10565b61221f565b60005b905080156122aa5760405163aab68bdb60e01b81526001600160a01b037f000000000000000000000000ff5dd171bda8bc78915b9a58d907df7c10ce4e5c169063aab68bdb9061227790859089908690600401614ca1565b600060405180830381600087803b15801561229157600080fd5b505af11580156122a5573d6000803e3d6000fd5b505050505b84836000015165ffffffffffff16846020015165ffffffffffff167f32411cac611c47cfe73afc187645c9cf3aec828d5f91780138d8421378fc0edb8588866122f1612bc5565b604080516001600160a01b0395861681526020810194909452830191909152909116606082015260800160405180910390a4505050919050565b612333613b57565b60405180610280016040528061234e84610100015160041c90565b61ffff16815260200161236684610100015160141c90565b61ffff16815260200161237e84610100015160241c90565b63ffffffff1681526020016123a0846101000151600160449190911c81161490565b151581526020016123be846101000151600160459190911c81161490565b151581526020016123dc846101000151600160469190911c81161490565b151581526020016123fa846101000151600160479190911c81161490565b15158152602001612418846101000151600160489190911c81161490565b15158152602001612436846101000151600160499190911c81161490565b151581526020016124548461010001516001604a9190911c81161490565b151581526020016124728461010001516001604b9190911c81161490565b151581526020016124908461010001516001604c9190911c81161490565b151581526020016124ae8461010001516001604d9190911c81161490565b151581526020016124cc8461010001516001604e9190911c81161490565b151581526020016124ea8461010001516001604f9190911c81161490565b15158152602001612508846101000151600160509190911c81161490565b15158152602001612526846101000151600160519190911c81161490565b15158152602001612544846101000151600160529190911c81161490565b1515815260200161255a84610100015160531c90565b6001600160a01b0316815260200161257784610100015160f31c90565b61ffff16905292915050565b600061258d612bc5565b9050836001600160a01b0316816001600160a01b03161415801561265c5750604051631a45b42760e11b81526001600160a01b0382811660048301528581166024830152604482018590526064820184905260016084830181905260a48301527f0000000000000000000000004cdb4200e4e65a277676cd5e8d3c7c7c4da7fbe5169063348b684e9060c401602060405180830381865afa158015612636573d6000803e3d6000fd5b505050506040513d601f19601f8201168201806040525081019061265a91906148cf565b155b1561269b57604051631326f75560e11b81526001600160a01b038086166004830152821660248201526044810184905260648101839052608401610a30565b50505050565b6126a9613b0b565b6040516321d1336160e11b8152600481018390527f0000000000000000000000008de478a6071ad66bf99c770aea0cedcddda72f436001600160a01b0316906343a266c2906024015b61012060405180830381865afa158015612710573d6000803e3d6000fd5b505050506040513d601f19601f820116820180604052508101906106e99190614895565b6000816001600160401b0381111561274e5761274e614640565b604051908082528060200260200182016040528015612777578160200160208202803683370190505b50905060005b8281101561285657600084848381811061279957612799614a9a565b90506020028101906127ab91906150c2565b6127b4906150e2565b805160208201516040516304a6e43960e31b81529293506001600160a01b039091169163253721c8916127ec918a91906004016151df565b600060405180830381600087803b15801561280657600080fd5b505af115801561281a573d6000803e3d6000fd5b50505050806000015183838151811061283557612835614a9a565b6001600160a01b03909216602092830291909101909101525060010161277d565b50811561269b5760405163104373fb60e31b81526001600160a01b037f000000000000000000000000e0b2860344ba476e12ed1d559656da9d04f1ad22169063821b9fd8906109829087908590600401615257565b6000805b82811015612bbd5760008484838181106128cb576128cb614a9a565b90506020028101906128dd91906152b0565b6128e6906157a5565b905061271061ffff168160a001516000015161ffff1611156129305760a08101515160405163a162453f60e01b815261ffff90911660048201526127106024820152604401610a30565b61271061ffff168160a001516020015161ffff16111561297b5760a081015160200151604051631344012160e21b815261ffff90911660048201526127106024820152604401610a30565b60007f0000000000000000000000008de478a6071ad66bf99c770aea0cedcddda72f436001600160a01b03166370174dcc8884602001518560400151866060015187608001516129ce8960a00151613694565b895160405160e089901b6001600160e01b0319168152600481019790975263ffffffff95861660248801526001600160701b0390941660448701529390911660648501526001600160a01b0316608484015260a483019190915265ffffffffffff1660c482015260e401610120604051808303816000875af1158015612a58573d6000803e3d6000fd5b505050506040513d601f19601f82011682018060405250810190612a7c9190614895565b602081015160c084015160405163ed11595760e01b81529293506001600160a01b037f0000000000000000000000000eecf21dfc9265e25b81f384993a40e351f897fe169263ed11595792612ad5928c926004016158da565b600060405180830381600087803b158015612aef57600080fd5b505af1158015612b03573d6000803e3d6000fd5b505050602082015160e08401516040516323c620f360e21b81526001600160a01b037f0000000000000000000000001b3c23278f91cdcf8d5fe2b37178bdd37c3a90f8169350638f1883cc92612b5d928c926004016159f3565b600060405180830381600087803b158015612b7757600080fd5b505af1158015612b8b573d6000803e3d6000fd5b50612b9d925060019150879050614e47565b8303612bb357806020015165ffffffffffff1693505b50506001016128af565b509392505050565b6000612bcf613850565b905090565b604051636e49181f60e01b8152600481018390526001600160a01b0382811660248301526000917f000000000000000000000000e0b2860344ba476e12ed1d559656da9d04f1ad2290911690636e49181f90604401602060405180830381865afa158015612c46573d6000803e3d6000fd5b505050506040513d601f19601f82011682018060405250810190612c6a91906148cf565b9392505050565b8061269b5761269b848484612583565b612c89613b0b565b604051631735e2c560e11b8152600481018390527f0000000000000000000000008de478a6071ad66bf99c770aea0cedcddda72f436001600160a01b031690632e6bc58a906024016126f2565b600080612ce884610100015160531c90565b6001600160a01b031614158015612d76575061010083015160531c604051630cef9c1160e31b8152600481018690526001600160a01b038481166024830152919091169063677ce08890604401602060405180830381865afa158015612d52573d6000803e3d6000fd5b505050506040513d601f19601f82011682018060405250810190612d7691906148cf565b949350505050565b6000808060001985870985870292508281108382030391505080600003612db857838281612dae57612dae615aa1565b0492505050612c6a565b838110612de957604051630c740aef60e31b8152600481018790526024810186905260448101859052606401610a30565b60008486880960026001871981018816978890046003810283188082028403028082028403028082028403028082028403028082028403029081029092039091026000889003889004909101858311909403939093029303949094049190911702949350505050565b604080516001600160a01b038416602482015260448082018490528251808303909101815260649091019091526020810180516001600160e01b031663095ea7b360e01b179052612ea384826138c5565b61269b576040516001600160a01b03848116602483015260006044830152612f0691869182169063095ea7b3906064015b604051602081830303815290604052915060e01b6020820180516001600160e01b03838183161783525050505061396d565b61269b848261396d565b6040516369e11cc560e01b815260048101859052602481018490526044810183905281906000907f0000000000000000000000000eecf21dfc9265e25b81f384993a40e351f897fe6001600160a01b0316906369e11cc590606401600060405180830381865afa158015612f88573d6000803e3d6000fd5b505050506040513d6000823e601f3d908101601f19168201604052612fb09190810190615ab7565b805190915060005b81811015613689576000838281518110612fd457612fd4614a9a565b602002602001015190506000612fff87836020015163ffffffff16633b9aca0063ffffffff16612d7e565b9050801561363a5760a08201516001600160a01b0316156131cc5760a082015160405163aab68bdb60e01b81526001600160a01b037f000000000000000000000000ff5dd171bda8bc78915b9a58d907df7c10ce4e5c169163aab68bdb9161306e91908e908690600401614ca1565b600060405180830381600087803b15801561308857600080fd5b505af115801561309c573d6000803e3d6000fd5b505060405163ea78803f60e01b8152600481018d9052600092507f000000000000000000000000ff5dd171bda8bc78915b9a58d907df7c10ce4e5c6001600160a01b0316915063ea78803f90602401602060405180830381865afa158015613108573d6000803e3d6000fd5b505050506040513d601f19601f8201168201806040525081019061312c91906148b2565b90508260a001516001600160a01b0316630dcdc5706040518060c00160405280846001600160a01b03168152602001858152602001601281526020018e81526020018c8152602001868152506040518263ffffffff1660e01b81526004016131949190615bbc565b600060405180830381600087803b1580156131ae57600080fd5b505af11580156131c2573d6000803e3d6000fd5b505050505061362d565b60608201516000906001600160a01b03166131ee576131e9612bc5565b6131f4565b82606001515b9050826040015166ffffffffffffff166000146135965760405163ea78803f60e01b8152600481018c90526000907f000000000000000000000000ff5dd171bda8bc78915b9a58d907df7c10ce4e5c6001600160a01b03169063ea78803f90602401602060405180830381865afa158015613273573d6000803e3d6000fd5b505050506040513d601f19601f8201168201806040525081019061329791906148b2565b905060006001600160a01b0382161561334e576040858101519051630862026560e41b815266ffffffffffffff90911660048201526001600160a01b0383811660248301527f000000000000000000000000e0b2860344ba476e12ed1d559656da9d04f1ad221690638620265090604401602060405180830381865afa158015613325573d6000803e3d6000fd5b505050506040513d601f19601f8201168201806040525081019061334991906148b2565b613351565b60005b90506001600160a01b038216158061337057506001600160a01b038116155b156133fc577f000000000000000000000000ff5dd171bda8bc78915b9a58d907df7c10ce4e5c6001600160a01b031663aab68bdb848f876040518463ffffffff1660e01b81526004016133c593929190614ca1565b600060405180830381600087803b1580156133df57600080fd5b505af11580156133f3573d6000803e3d6000fd5b5050505061358f565b7f000000000000000000000000ff5dd171bda8bc78915b9a58d907df7c10ce4e5c6001600160a01b031663aab68bdb308f876040518463ffffffff1660e01b815260040161344c93929190614ca1565b600060405180830381600087803b15801561346657600080fd5b505af115801561347a573d6000803e3d6000fd5b5050505060008d60405160200161349391815260200190565b60408051601f198184030181528282529088015163fb61b4e360e01b8352909250309163fb61b4e3916134d39186919088908b908b908990600401615c10565b600060405180830381600087803b1580156134ed57600080fd5b505af19250505080156134fe575060015b61358d573d80801561352c576040519150601f19603f3d011682016040523d82523d6000602084013e613531565b606091505b508e7f96c3ac00fad4cbb9b9ae8df2dbf20a95984c04efde99cdeeaae754dbb44106ce88888461355f612bc5565b60405161356f9493929190615c66565b60405180910390a261358b6001600160a01b03851686886139d0565b505b505b505061362b565b6001600160a01b03811661dead1461362b5760405163aab68bdb60e01b81526001600160a01b037f000000000000000000000000ff5dd171bda8bc78915b9a58d907df7c10ce4e5c169063aab68bdb906135f89084908f908790600401614ca1565b600060405180830381600087803b15801561361257600080fd5b505af1158015613626573d6000803e3d6000fd5b505050505b505b6136378187614e47565b95505b87898b7f61e0b98c9423afbd069cc95184e80d30166d0e9a3f747259d6a434491f478e228585613668612bc5565b60405161367793929190615ca8565b60405180910390a45050600101612fb8565b505050949350505050565b6000600190506004826000015161ffff16901b811790506014826020015161ffff16901b811790506024826040015163ffffffff16901b811790508160600151156136e55768100000000000000000175b8160800151156136fb5768200000000000000000175b8160a00151156137115768400000000000000000175b8160c00151156137275768800000000000000000175b8160e001511561373e576901000000000000000000175b81610100015115613756576902000000000000000000175b8161012001511561376e576904000000000000000000175b81610140015115613786576908000000000000000000175b8161016001511561379e576910000000000000000000175b816101800151156137b6576920000000000000000000175b816101a00151156137ce576940000000000000000000175b816101c00151156137e6576980000000000000000000175b816101e00151156137f857600160501b175b8161020001511561380a57600160511b175b8161022001511561381c57600160521b175b6102408201516102609092015160539290921b600160531b600160f31b03161760f09190911b6001600160f31b0319161790565b6000366014336001600160a01b037f000000000000000000000000b2b5841dbef766d4b521221732f9b618fcf34a871614801561388d5750808210155b156138bd5760003661389f8385614e47565b6138aa928290615cd6565b6138b391615d00565b60601c9250505090565b339250505090565b6000806000846001600160a01b0316846040516138e29190615d35565b6000604051808303816000865af19150503d806000811461391f576040519150601f19603f3d011682016040523d82523d6000602084013e613924565b606091505b509150915081801561394e57508051158061394e57508080602001905181019061394e91906148cf565b801561396457506000856001600160a01b03163b115b95945050505050565b60006139826001600160a01b03841683613a01565b905080516000141580156139a75750808060200190518101906139a591906148cf565b155b1561198a57604051635274afe760e01b81526001600160a01b0384166004820152602401610a30565b6040516001600160a01b0383811660248301526044820183905261198a91859182169063a9059cbb90606401612ed4565b6060612c6a8383600084600080856001600160a01b03168486604051613a279190615d35565b60006040518083038185875af1925050503d8060008114613a64576040519150601f19603f3d011682016040523d82523d6000602084013e613a69565b606091505b5091509150613a79868383613a83565b9695505050505050565b606082613a9857613a9382613adf565b612c6a565b8151158015613aaf57506001600160a01b0384163b155b15613ad857604051639996b31560e01b81526001600160a01b0385166004820152602401610a30565b5080612c6a565b805115613aef5780518082602001fd5b604051630a12f52160e11b815260040160405180910390fd5b50565b6040805161012081018252600080825260208201819052918101829052606081018290526080810182905260a0810182905260c0810182905260e0810182905261010081019190915290565b6040805161028081018252600080825260208201819052918101829052606081018290526080810182905260a0810182905260c0810182905260e08101829052610100810182905261012081018290526101408101829052610160810182905261018081018290526101a081018290526101c081018290526101e0810182905261020081018290526102208101829052610240810182905261026081019190915290565b6040518060400160405280613c0e613b0b565b8152602001613c1b613b57565b905290565b600060208284031215613c3257600080fd5b81356001600160e01b031981168114612c6a57600080fd5b600060208284031215613c5c57600080fd5b5035919050565b60008060408385031215613c7657600080fd5b50508035926020909101359150565b65ffffffffffff808251168352806020830151166020840152806040830151166040840152506060810151613cc4606084018265ffffffffffff169052565b506080810151613cdc608084018263ffffffff169052565b5060a0810151613cf760a08401826001600160701b03169052565b5060c0810151613d0f60c084018263ffffffff169052565b5060e0810151613d2a60e08401826001600160a01b03169052565b5061010090810151910152565b805161ffff1682526020810151613d54602084018261ffff169052565b506040810151613d6c604084018263ffffffff169052565b506060810151613d80606084018215159052565b506080810151613d94608084018215159052565b5060a0810151613da860a084018215159052565b5060c0810151613dbc60c084018215159052565b5060e0810151613dd060e084018215159052565b5061010081810151151590830152610120808201511515908301526101408082015115159083015261016080820151151590830152610180808201511515908301526101a0808201511515908301526101c0808201511515908301526101e0808201511515908301526102008082015115159083015261022080820151151590830152610240808201516001600160a01b0316908301526102608082015161ffff81168285015261269b565b6103a08101613e8b8285613c85565b612c6a610120830184613d37565b6001600160a01b0381168114613b0857600080fd5b60008060008060808587031215613ec457600080fd5b8435935060208501359250604085013591506060850135613ee481613e99565b939692955090935050565b8035613efa81613e99565b919050565b60008060008060808587031215613f1557600080fd5b8435613f2081613e99565b935060208501359250604085013591506060850135613ee481613e99565b60008060408385031215613f5157600080fd5b823591506020830135613f6381613e99565b809150509250929050565b60008083601f840112613f8057600080fd5b5081356001600160401b03811115613f9757600080fd5b6020830191508360208260051b8501011115613fb257600080fd5b9250929050565b60008083601f840112613fcb57600080fd5b5081356001600160401b03811115613fe257600080fd5b602083019150836020828501011115613fb257600080fd5b60008060008060008060006080888a03121561401557600080fd5b8735965060208801356001600160401b038082111561403357600080fd5b61403f8b838c01613f6e565b909850965060408a013591508082111561405857600080fd5b6140648b838c01613f6e565b909650945060608a013591508082111561407d57600080fd5b5061408a8a828b01613fb9565b989b979a50959850939692959293505050565b6000602082840312156140af57600080fd5b8135612c6a81613e99565b600080600080600080608087890312156140d357600080fd5b8635955060208701356001600160401b03808211156140f157600080fd5b6140fd8a838b01613fb9565b9097509550604089013591508082111561411657600080fd5b5061412389828a01613fb9565b979a9699509497949695606090950135949350505050565b60008060006060848603121561415057600080fd5b505081359360208301359350604090920135919050565b6020808252825182820181905260009190848201906040850190845b818110156141be578351614198848251613c85565b8501516141a9610120850182613d37565b50928401926103a09290920191600101614183565b50909695505050505050565b6000806000604084860312156141df57600080fd5b8335925060208401356001600160401b038111156141fc57600080fd5b61420886828701613fb9565b9497909650939450505050565b600080600080600080600080600060a08a8c03121561423357600080fd5b893561423e81613e99565b985060208a01356001600160401b038082111561425a57600080fd5b6142668d838e01613fb9565b909a50985060408c013591508082111561427f57600080fd5b61428b8d838e01613f6e565b909850965060608c01359150808211156142a457600080fd5b6142b08d838e01613f6e565b909650945060808c01359150808211156142c957600080fd5b506142d68c828d01613fb9565b915080935050809150509295985092959850929598565b60008060008060006080868803121561430557600080fd5b853561431081613e99565b9450602086013593506040860135925060608601356001600160401b0381111561433957600080fd5b61434588828901613fb9565b969995985093965092949392505050565b60005b83811015614371578181015183820152602001614359565b50506000910152565b60008151808452614392816020860160208601614356565b601f01601f19169290920160200192915050565b602081526000612c6a602083018461437a565b600080600080608085870312156143cf57600080fd5b84356143da81613e99565b93506020850135925060408501356143f181613e99565b9396929550929360600135925050565b6103c081016144108286613c85565b61441e610120830185613d37565b6006831061443c57634e487b7160e01b600052602160045260246000fd5b826103a0830152949350505050565b6000806040838503121561445e57600080fd5b823561446981613e99565b946020939093013593505050565b8015158114613b0857600080fd5b8035613efa81614477565b60008060008060008060a087890312156144a957600080fd5b863595506020870135945060408701356144c281613e99565b935060608701356001600160401b038111156144dd57600080fd5b6144e989828a01613fb9565b90945092505060808701356144fd81614477565b809150509295509295509295565b60008060008060006060868803121561452357600080fd5b8535945060208601356001600160401b038082111561454157600080fd5b61454d89838a01613f6e565b9096509450604088013591508082111561456657600080fd5b5061434588828901613fb9565b6000806000806060858703121561458957600080fd5b843593506020850135925060408501356001600160401b038111156145ad57600080fd5b6145b987828801613f6e565b95989497509550505050565b600080600080600080600060c0888a0312156145e057600080fd5b87356145eb81613e99565b965060208801359550604088013561460281613e99565b945060608801359350608088013561461981613e99565b925060a08801356001600160401b0381111561463457600080fd5b61408a8a828b01613fb9565b634e487b7160e01b600052604160045260246000fd5b60405161012081016001600160401b038111828210171561467957614679614640565b60405290565b604080519081016001600160401b038111828210171561467957614679614640565b604051606081016001600160401b038111828210171561467957614679614640565b60405161028081016001600160401b038111828210171561467957614679614640565b60405160c081016001600160401b038111828210171561467957614679614640565b604051608081016001600160401b038111828210171561467957614679614640565b60405161010081016001600160401b038111828210171561467957614679614640565b604051601f8201601f191681016001600160401b038111828210171561477557614775614640565b604052919050565b65ffffffffffff81168114613b0857600080fd5b8051613efa8161477d565b63ffffffff81168114613b0857600080fd5b8051613efa8161479c565b6001600160701b0381168114613b0857600080fd5b8051613efa816147b9565b8051613efa81613e99565b600061012082840312156147f757600080fd5b6147ff614656565b905061480a82614791565b815261481860208301614791565b602082015261482960408301614791565b604082015261483a60608301614791565b606082015261484b608083016147ae565b608082015261485c60a083016147ce565b60a082015261486d60c083016147ae565b60c082015261487e60e083016147d9565b60e082015261010080830151818301525092915050565b600061012082840312156148a857600080fd5b612c6a83836147e4565b6000602082840312156148c457600080fd5b8151612c6a81613e99565b6000602082840312156148e157600080fd5b8151612c6a81614477565b6000602082840312156148fe57600080fd5b5051919050565b634e487b7160e01b600052601160045260246000fd5b808201808211156106e9576106e9614905565b81835281816020850137506000828201602090810191909152601f909101601f19169091010190565b85815284602082015260806040820152600061497760808301858761492e565b905060018060a01b03831660608301529695505050505050565b8681526080602082015260006149ab60808301878961492e565b82810360408401526149be81868861492e565b915050826060830152979650505050505050565b60006001600160401b038211156149eb576149eb614640565b5060051b60200190565b60006020808385031215614a0857600080fd5b82516001600160401b03811115614a1e57600080fd5b8301601f81018513614a2f57600080fd5b8051614a42614a3d826149d2565b61474d565b808282526020820191506101206020818502860101935088841115614a6657600080fd5b6020850194505b83851015614a8e57614a7f89866147e4565b83529384019391850191614a6d565b50979650505050505050565b634e487b7160e01b600052603260045260246000fd5b600181811c90821680614ac457607f821691505b602082108103614ae457634e487b7160e01b600052602260045260246000fd5b50919050565b601f82111561198a576000816000526020600020601f850160051c81016020861015614b135750805b601f850160051c820191505b81811015610b6b57828155600101614b1f565b6001600160401b03831115614b4957614b49614640565b614b5d83614b578354614ab0565b83614aea565b6000601f841160018114614b915760008515614b795750838201355b600019600387901b1c1916600186901b178355614beb565b600083815260209020601f19861690835b82811015614bc25786850135825560209485019460019092019101614ba2565b5086821015614bdf5760001960f88860031b161c19848701351681555b505060018560011b0183555b5050505050565b604081526000614c0660408301858761492e565b905060018060a01b0383166020830152949350505050565b87815286602082015260a060408201526000614c3e60a08301878961492e565b8281036060840152614c5181868861492e565b91505060018060a01b038316608083015298975050505050505050565b848152606060208201526000614c8860608301858761492e565b905060018060a01b038316604083015295945050505050565b6001600160a01b039390931683526020830191909152604082015260600190565b6000806101408385031215614cd657600080fd5b614ce084846147e4565b915061012083015160068110613f6357600080fd5b600060208284031215614d0757600080fd5b81516001600160401b0380821115614d1e57600080fd5b818401915084601f830112614d3257600080fd5b815181811115614d4457614d44614640565b614d57601f8201601f191660200161474d565b9150808252856020828501011115614d6e57600080fd5b614d7f816020840160208601614356565b50949350505050565b81516001600160401b03811115614da157614da1614640565b614db581614daf8454614ab0565b84614aea565b602080601f831160018114614dea5760008415614dd25750858301515b600019600386901b1c1916600185901b178555610b6b565b600085815260208120601f198616915b82811015614e1957888601518255948401946001909101908401614dfa565b5085821015614e375787850151600019600388901b60f8161c191681555b5050505050600190811b01905550565b818103818111156106e9576106e9614905565b86815285602082015260a060408201526000614e7a60a08301868861492e565b6060830194909452506001600160a01b0391909116608090910152949350505050565b8035613efa8161479c565b66ffffffffffffff81168114613b0857600080fd5b8035613efa8161477d565b6000606080830187845260208781860152604060606040870152828784526080935060808701905060808860051b8801018960005b8a81101561503f57898303607f190184528135368d9003603e19018112614f2357600080fd5b8c01803584528386018782013536839003601e19018112614f4357600080fd5b9091018781019190356001600160401b03811115614f6057600080fd5b60c08082023603841315614f7357600080fd5b868a01899052918190526000918b87015b82841015615029578435614f9781614477565b15158152848b0135614fa88161479c565b63ffffffff16818c0152848a0135614fbf81614ea8565b66ffffffffffffff16818b0152848d0135614fd981613e99565b6001600160a01b0316818e0152614ff1858d01614ebd565b65ffffffffffff168c82015260a061500a868201613eef565b6001600160a01b03169082015293810193600193909301928101614f84565b978a019796505050928701925050600101614efd565b50909c9b505050505050505050505050565b878152600060018060a01b03808916602084015287604084015280871660608401525084608083015260e060a0830152600060e08301526101008060c084015261509e818401858761492e565b9a9950505050505050505050565b634e487b7160e01b600052600160045260246000fd5b60008235603e198336030181126150d857600080fd5b9190910192915050565b600060408083360312156150f557600080fd5b6150fd61467f565b833561510881613e99565b81526020848101356001600160401b0381111561512457600080fd5b850136601f82011261513557600080fd5b8035615143614a3d826149d2565b8181526060918202830184019184820191903684111561516257600080fd5b938501935b838510156151cc5780853603121561517f5760008081fd5b6151876146a1565b853561519281613e99565b81528587013560ff811681146151a85760008081fd5b81880152858901356151b98161479c565b818a015283529384019391850191615167565b5093850193909352509195945050505050565b60006040808301858452602060406020860152818651808452606093506060870191506020880160005b8281101561524857815180516001600160a01b031685528581015160ff168686015287015163ffffffff16878501529285019290840190600101615209565b50919998505050505050505050565b60006040820184835260206040602085015281855180845260608601915060208701935060005b818110156152a35784516001600160a01b03168352938301939183019160010161527e565b5090979650505050505050565b6000823561035e198336030181126150d857600080fd5b8035613efa816147b9565b803561ffff81168114613efa57600080fd5b600061028082840312156152f757600080fd5b6152ff6146c3565b905061530a826152d2565b8152615318602083016152d2565b602082015261532960408301614e9d565b604082015261533a60608301614485565b606082015261534b60808301614485565b608082015261535c60a08301614485565b60a082015261536d60c08301614485565b60c082015261537e60e08301614485565b60e0820152610100615391818401614485565b908201526101206153a3838201614485565b908201526101406153b5838201614485565b908201526101606153c7838201614485565b908201526101806153d9838201614485565b908201526101a06153eb838201614485565b908201526101c06153fd838201614485565b908201526101e061540f838201614485565b90820152610200615421838201614485565b90820152610220615433838201614485565b90820152610240615445838201613eef565b908201526102606154578382016152d2565b9082015292915050565b600082601f83011261547257600080fd5b81356020615482614a3d836149d2565b82815260059290921b840181019181810190868411156154a157600080fd5b8286015b848110156155f55780356001600160401b03808211156154c457600080fd5b908801906040828b03601f19018113156154dd57600080fd5b6154e561467f565b87840135815281840135838111156154fc57600080fd5b8085019450508b603f85011261551157600080fd5b878401359250615523614a3d846149d2565b83815260c09093028401820192888101908d85111561554157600080fd5b948301945b848610156155e05760c0868f03121561555e57600080fd5b6155666146e6565b863561557181614477565b8152868b01356155808161479c565b818c01528685013561559181614ea8565b8186015260608701356155a381613e99565b606082015260808701356155b68161477d565b608082015260a08701356155c981613e99565b60a0820152825260c0959095019490890190615546565b828a01525086525050509183019183016154a5565b509695505050505050565b600082601f83011261561157600080fd5b81356020615621614a3d836149d2565b82815260069290921b8401810191818101908684111561564057600080fd5b8286015b848110156155f5576040818903121561565d5760008081fd5b61566561467f565b81356001600160e01b038116811461567d5760008081fd5b81528185013561568c8161479c565b81860152835291830191604001615644565b600082601f8301126156af57600080fd5b813560206156bf614a3d836149d2565b82815260059290921b840181019181810190868411156156de57600080fd5b8286015b848110156155f55780356001600160401b03808211156157025760008081fd5b908801906080828b03601f190181131561571c5760008081fd5b615724614708565b8784013561573181613e99565b815260408481013561574281613e99565b828a01526060858101358581111561575a5760008081fd5b6157688f8c838a0101615600565b848401525092850135928484111561578257600091508182fd5b6157908e8b86890101615600565b908301525086525050509183019183016156e2565b600061036082360312156157b857600080fd5b6157c061472a565b6157c983614ebd565b81526157d760208401614e9d565b60208201526157e8604084016152c7565b60408201526157f960608401614e9d565b606082015261580a60808401613eef565b608082015261581c3660a085016152e4565b60a08201526103208301356001600160401b038082111561583c57600080fd5b61584836838701615461565b60c084015261034085013591508082111561586257600080fd5b5061586f3682860161569e565b60e08301525092915050565b80511515825260208082015163ffffffff169083015260408082015166ffffffffffffff16908301526060808201516001600160a01b039081169184019190915260808083015165ffffffffffff169084015260a09182015116910152565b60006060808301868452602065ffffffffffff87168186015260406060604087015282875180855260808801915060808160051b89010194508389016000805b8381101561598b578a8803607f190185528251805189528701518789018790528051878a018190529088019083908b8b01905b808310156159765761596082855161587b565b60c0820191508a8401935060018301925061594d565b5099505050938601939186019160010161591a565b50959c9b505050505050505050505050565b60008151808452602080850194506020840160005b838110156159e857815180516001600160e01b0316885283015163ffffffff1683880152604090960195908201906001016159b2565b509495945050505050565b60006060808301868452602065ffffffffffff8716818601526040606060408701528287518085526080945060808801915060808160051b890101848a0160005b8381101561503f578a8303607f19018552815180516001600160a01b039081168552888201511688850152868101518785018a9052615a758a86018261599d565b918b0151858303868d0152919050615a8d818361599d565b968901969450505090860190600101615a34565b634e487b7160e01b600052601260045260246000fd5b60006020808385031215615aca57600080fd5b82516001600160401b03811115615ae057600080fd5b8301601f81018513615af157600080fd5b8051615aff614a3d826149d2565b81815260c09182028301840191848201919088841115615b1e57600080fd5b938501935b83851015614a8e5780858a031215615b3b5760008081fd5b615b436146e6565b8551615b4e81614477565b815285870151615b5d8161479c565b81880152604086810151615b7081614ea8565b90820152606086810151615b8381613e99565b90820152608086810151615b968161477d565b9082015260a086810151615ba981613e99565b9082015283529384019391850191615b23565b81516001600160a01b031681526020808301519082015260408083015190820152606080830151908201526080808301519082015260a082810151610160830191615c099084018261587b565b5092915050565b6001600160a01b03878116825266ffffffffffffff871660208301528581166040830152606082018590528316608082015260c060a08201819052600090615c5a9083018461437a565b98975050505050505050565b6000610120615c75838861587b565b8560c08401528060e0840152615c8d8184018661437a565b91505060018060a01b03831661010083015295945050505050565b6101008101615cb7828661587b565b60c08201939093526001600160a01b039190911660e090910152919050565b60008085851115615ce657600080fd5b83861115615cf357600080fd5b5050820193919092039150565b6bffffffffffffffffffffffff198135818116916014851015615d2d5780818660140360031b1b83161692505b505092915050565b600082516150d881846020870161435656fea2646970667358221220492d94dafc18e57321e4d68d01275a10c3d7c79061f17ff5ea71d1d4f1f4991d64736f6c63430008170033",
	"devdoc": {
		"kind": "dev",
		"methods": {
			"addPriceFeed(uint256,uint256,uint256,address)": {
				"details": "Can only be called by the project's owner or an address with the owner's permission to `ADD_PRICE_FEED`.",
				"params": {
					"feed": "The address of the price feed to add.",
					"pricingCurrency": "The currency the feed's output price is in terms of.",
					"projectId": "The ID of the project to add the feed for.",
					"unitCurrency": "The currency being priced by the feed."
				}
			},
			"allRulesetsOf(uint256,uint256,uint256)": {
				"params": {
					"projectId": "The ID of the project to get the rulesets of.",
					"size": "The maximum number of rulesets to return.",
					"startingId": "The ID of the ruleset to begin with. This will be the latest ruleset in the result. If the `startingId` is 0, passed, the project's latest ruleset will be used."
				},
				"returns": {
					"rulesets": "The array of rulesets with their metadata."
				}
			},
			"burnTokensOf(address,uint256,uint256,string)": {
				"details": "Can only be called by the holder, an address with the holder's permission to `BURN_TOKENS`, or a project's terminal.",
				"params": {
					"holder": "The address whose tokens are being burned.",
					"memo": "A memo to pass along to the emitted event.",
					"projectId": "The ID of the project whose tokens are being burned.",
					"tokenCount": "The number of tokens to burn."
				}
			},
			"claimTokensFor(address,uint256,uint256,address)": {
				"details": "Can only be called by the credit holder or an address with the holder's permission to `CLAIM_TOKENS`.",
				"params": {
					"beneficiary": "The account the claimed tokens will go to.",
					"holder": "The address to redeem credits from.",
					"projectId": "The ID of the project whose tokens are being claimed.",
					"tokenCount": "The number of tokens to claim."
				}
			},
			"constructor": {
				"params": {
					"directory": "A contract storing directories of terminals and controllers for each project.",
					"fundAccessLimits": "A contract that stores fund access limits for each project.",
					"permissions": "A contract storing permissions.",
					"prices": "A contract that stores prices for each project.",
					"projects": "A contract which mints ERC-721s that represent project ownership and transfers.",
					"rulesets": "A contract storing and managing project rulesets.",
					"splits": "A contract that stores splits for each project.",
					"tokens": "A contract that manages token minting and burning."
				}
			},
			"currentRulesetOf(uint256)": {
				"params": {
					"projectId": "The ID of the project to get the current ruleset of."
				},
				"returns": {
					"metadata": "The current ruleset's metadata.",
					"ruleset": "The current ruleset's struct."
				}
			},
			"deployERC20For(uint256,string,string,bytes32)": {
				"details": "Deploys the project's ERC-20 contract.Can only be called by the project's owner or an address with the owner's permission to `DEPLOY_ERC20`.",
				"params": {
					"name": "The ERC-20's name.",
					"projectId": "The ID of the project to deploy the ERC-20 for.",
					"salt": "The salt used for ERC-1167 clone deployment. Pass a non-zero salt for deterministic deployment based on `msg.sender` and the `TOKEN` implementation address.",
					"symbol": "The ERC-20's symbol."
				},
				"returns": {
					"token": "The address of the token that was deployed."
				}
			},
			"executePayReservedTokenToTerminal(address,uint256,address,uint256,address,bytes)": {
				"details": "Can only be called by this controller.",
				"params": {
					"beneficiary": "The payment's beneficiary.",
					"metadata": "The pay metadata sent to the terminal.",
					"projectId": "The ID of the project being paid.",
					"splitTokenCount": "The number of tokens being paid.",
					"terminal": "The terminal to pay.",
					"token": "The token being paid with."
				}
			},
			"getRulesetOf(uint256,uint256)": {
				"params": {
					"projectId": "The ID of the project the ruleset belongs to."
				},
				"returns": {
					"metadata": "The ruleset's metadata.",
					"ruleset": "The ruleset's struct."
				}
			},
			"isTrustedForwarder(address)": {
				"details": "Indicates whether any particular address is the trusted forwarder."
			},
			"latestQueuedRulesetOf(uint256)": {
				"details": "The 'latest queued ruleset' is the ruleset initialized furthest in the future (at the end of the ruleset queue).",
				"params": {
					"projectId": "The ID of the project to get the latest ruleset of."
				},
				"returns": {
					"approvalStatus": "The ruleset's approval status.",
					"metadata": "The ruleset's metadata.",
					"ruleset": "The struct for the project's latest queued ruleset."
				}
			},
			"launchProjectFor(address,string,(uint48,uint32,uint112,uint32,address,(uint16,uint16,uint32,bool,bool,bool,bool,bool,bool,bool,bool,bool,bool,bool,bool,bool,bool,bool,address,uint16),(uint256,(bool,uint32,uint56,address,uint48,address)[])[],(address,address,(uint224,uint32)[],(uint224,uint32)[])[])[],(address,(address,uint8,uint32)[])[],string)": {
				"details": "This will mint the project's ERC-721 to the `owner`'s address, queue the specified rulesets, and set up the specified splits and terminals. Each operation within this transaction can be done in sequence separately.Anyone can deploy a project to any `owner`'s address.",
				"params": {
					"memo": "A memo to pass along to the emitted event.",
					"owner": "The project's owner. The project ERC-721 will be minted to this address.",
					"projectUri": "The project's metadata URI. This is typically an IPFS hash, optionally with the `ipfs://` prefix. This can be updated by the project's owner.",
					"rulesetConfigurations": "The rulesets to queue.",
					"terminalConfigurations": "The terminals to set up for the project."
				},
				"returns": {
					"projectId": "The project's ID."
				}
			},
			"launchRulesetsFor(uint256,(uint48,uint32,uint112,uint32,address,(uint16,uint16,uint32,bool,bool,bool,bool,bool,bool,bool,bool,bool,bool,bool,bool,bool,bool,bool,address,uint16),(uint256,(bool,uint32,uint56,address,uint48,address)[])[],(address,address,(uint224,uint32)[],(uint224,uint32)[])[])[],(address,(address,uint8,uint32)[])[],string)": {
				"details": "Each operation within this transaction can be done in sequence separately.Can only be called by the project's owner or an address with the owner's permission to `QUEUE_RULESETS`.",
				"params": {
					"memo": "A memo to pass along to the emitted event.",
					"projectId": "The ID of the project to launch rulesets for.",
					"rulesetConfigurations": "The rulesets to queue.",
					"terminalConfigurations": "The terminals to set up."
				},
				"returns": {
					"rulesetId": "The ID of the last successfully queued ruleset."
				}
			},
			"migrate(uint256,address)": {
				"details": "Can only be called by the directory.",
				"params": {
					"projectId": "The ID of the project to migrate.",
					"to": "The controller to migrate the project to."
				}
			},
			"mintTokensOf(uint256,uint256,address,string,bool)": {
				"details": "Can only be called by the project's owner, an address with the owner's permission to `MINT_TOKENS`, one of the project's terminals, or the project's data hook.If the ruleset's metadata has `allowOwnerMinting` set to `false`, this function can only be called by the project's terminals or data hook.",
				"params": {
					"beneficiary": "The address which will receive the (non-reserved) tokens.",
					"memo": "A memo to pass along to the emitted event.",
					"projectId": "The ID of the project whose tokens are being minted.",
					"tokenCount": "The number of tokens to mint, including any reserved tokens.",
					"useReservedPercent": "Whether to apply the ruleset's reserved percent."
				},
				"returns": {
					"beneficiaryTokenCount": "The number of tokens minted for the `beneficiary`."
				}
			},
			"queueRulesetsOf(uint256,(uint48,uint32,uint112,uint32,address,(uint16,uint16,uint32,bool,bool,bool,bool,bool,bool,bool,bool,bool,bool,bool,bool,bool,bool,bool,address,uint16),(uint256,(bool,uint32,uint56,address,uint48,address)[])[],(address,address,(uint224,uint32)[],(uint224,uint32)[])[])[],string)": {
				"details": "Can only be called by the project's owner or an address with the owner's permission to `QUEUE_RULESETS`.",
				"params": {
					"memo": "A memo to pass along to the emitted event.",
					"projectId": "The ID of the project to queue rulesets for.",
					"rulesetConfigurations": "The rulesets to queue."
				},
				"returns": {
					"rulesetId": "The ID of the last ruleset which was successfully queued."
				}
			},
			"receiveMigrationFrom(address,uint256)": {
				"details": "This controller should not be the project's controller yet.",
				"params": {
					"from": "The controller being migrated from.",
					"projectId": "The ID of the project that will migrate to this controller."
				}
			},
			"sendReservedTokensToSplitsOf(uint256)": {
				"details": "If the project has no reserved token splits, or if they don't add up to 100%, leftover tokens are sent to the project's owner.",
				"params": {
					"projectId": "The ID of the project to send reserved tokens for."
				},
				"returns": {
					"_0": "The amount of reserved tokens minted and sent."
				}
			},
			"setControllerAllowed(uint256)": {
				"params": {
					"projectId": "The ID of the project to check."
				},
				"returns": {
					"_0": "A `bool` which is true if the project allows controllers to be set."
				}
			},
			"setSplitGroupsOf(uint256,uint256,(uint256,(bool,uint32,uint56,address,uint48,address)[])[])": {
				"details": "Can only be called by the project's owner or an address with the owner's permission to `SET_SPLIT_GROUPS`.",
				"params": {
					"projectId": "The ID of the project to set the split groups of.",
					"rulesetId": "The ID of the ruleset the split groups should be active in. Use a `rulesetId` of 0 to set the default split groups, which are used when a ruleset has no splits set. If there are no default splits and no splits are set, all splits are sent to the project's owner.",
					"splitGroups": "An array of split groups to set."
				}
			},
			"setTerminalsAllowed(uint256)": {
				"params": {
					"projectId": "The ID of the project to check."
				},
				"returns": {
					"_0": "A `bool` which is true if the project allows terminals to be set."
				}
			},
			"setTokenFor(uint256,address)": {
				"details": "Can only be called by the project's owner or an address with the owner's permission to `SET_TOKEN`.",
				"params": {
					"projectId": "The ID of the project to set the token of.",
					"token": "The new token's address."
				}
			},
			"setUriOf(uint256,string)": {
				"details": "This is typically an IPFS hash, optionally with an `ipfs://` prefix.Can only be called by the project's owner or an address with the owner's permission to `SET_PROJECT_URI`.",
				"params": {
					"projectId": "The ID of the project to set the metadata URI of.",
					"uri": "The metadata URI to set."
				}
			},
			"supportsInterface(bytes4)": {
				"details": "See {IERC165-supportsInterface}.",
				"params": {
					"interfaceId": "The ID of the interface to check for adherence to."
				},
				"returns": {
					"_0": "A flag indicating if the provided interface ID is supported."
				}
			},
			"totalTokenSupplyWithReservedTokensOf(uint256)": {
				"params": {
					"projectId": "The ID of the project to get the total token supply of."
				},
				"returns": {
					"_0": "The total supply of the project's token, including pending reserved tokens."
				}
			},
			"transferCreditsFrom(address,uint256,address,uint256)": {
				"details": "Can only be called by the credit holder or an address with the holder's permission to `TRANSFER_CREDITS`.",
				"params": {
					"creditCount": "The number of credits to transfer.",
					"holder": "The address to transfer credits from.",
					"projectId": "The ID of the project whose credits are being transferred.",
					"recipient": "The address to transfer credits to."
				}
			},
			"trustedForwarder()": {
				"details": "Returns the address of the trusted forwarder."
			},
			"upcomingRulesetOf(uint256)": {
				"details": "If an upcoming ruleset isn't found, returns an empty ruleset with all properties set to 0.",
				"params": {
					"projectId": "The ID of the project to get the next ruleset of."
				},
				"returns": {
					"metadata": "The upcoming ruleset's metadata.",
					"ruleset": "The upcoming ruleset's struct."
				}
			}
		},
		"version": 1
	},
	"userdoc": {
		"kind": "user",
		"methods": {
			"DIRECTORY()": {
				"notice": "The directory of terminals and controllers for projects."
			},
			"FUND_ACCESS_LIMITS()": {
				"notice": "A contract that stores fund access limits for each project."
			},
			"PERMISSIONS()": {
				"notice": "A contract storing permissions."
			},
			"PRICES()": {
				"notice": "A contract that stores prices for each project."
			},
			"PROJECTS()": {
				"notice": "Mints ERC-721s that represent project ownership and transfers."
			},
			"RULESETS()": {
				"notice": "The contract storing and managing project rulesets."
			},
			"SPLITS()": {
				"notice": "The contract that stores splits for each project."
			},
			"TOKENS()": {
				"notice": "The contract that manages token minting and burning."
			},
			"addPriceFeed(uint256,uint256,uint256,address)": {
				"notice": "Add a price feed for a project."
			},
			"allRulesetsOf(uint256,uint256,uint256)": {
				"notice": "Get an array of a project's rulesets (with metadata) up to a maximum array size, sorted from latest to earliest."
			},
			"burnTokensOf(address,uint256,uint256,string)": {
				"notice": "Burns a project's tokens or credits from the specific holder's balance."
			},
			"claimTokensFor(address,uint256,uint256,address)": {
				"notice": "Redeem credits to claim tokens into a `beneficiary`'s account."
			},
			"currentRulesetOf(uint256)": {
				"notice": "A project's currently active ruleset and its metadata."
			},
			"deployERC20For(uint256,string,string,bytes32)": {
				"notice": "Deploys an ERC-20 token for a project. It will be used when claiming tokens (with credits)."
			},
			"executePayReservedTokenToTerminal(address,uint256,address,uint256,address,bytes)": {
				"notice": "When a project receives reserved tokens, if it has a terminal for the token, this is used to pay the terminal."
			},
			"getRulesetOf(uint256,uint256)": {
				"notice": "Get the `JBRuleset` and `JBRulesetMetadata` corresponding to the specified `rulesetId`."
			},
			"latestQueuedRulesetOf(uint256)": {
				"notice": "Gets the latest ruleset queued for a project, its approval status, and its metadata."
			},
			"launchProjectFor(address,string,(uint48,uint32,uint112,uint32,address,(uint16,uint16,uint32,bool,bool,bool,bool,bool,bool,bool,bool,bool,bool,bool,bool,bool,bool,bool,address,uint16),(uint256,(bool,uint32,uint56,address,uint48,address)[])[],(address,address,(uint224,uint32)[],(uint224,uint32)[])[])[],(address,(address,uint8,uint32)[])[],string)": {
				"notice": "Creates a project."
			},
			"launchRulesetsFor(uint256,(uint48,uint32,uint112,uint32,address,(uint16,uint16,uint32,bool,bool,bool,bool,bool,bool,bool,bool,bool,bool,bool,bool,bool,bool,bool,address,uint16),(uint256,(bool,uint32,uint56,address,uint48,address)[])[],(address,address,(uint224,uint32)[],(uint224,uint32)[])[])[],(address,(address,uint8,uint32)[])[],string)": {
				"notice": "Queue a project's initial rulesets and set up terminals for it. Projects which already have rulesets should use `queueRulesetsOf(...)`."
			},
			"migrate(uint256,address)": {
				"notice": "Migrate a project from this controller to another one."
			},
			"mintTokensOf(uint256,uint256,address,string,bool)": {
				"notice": "Add new project tokens or credits to the specified beneficiary's balance. Optionally, reserve a portion according to the ruleset's reserved percent."
			},
			"pendingReservedTokenBalanceOf(uint256)": {
				"notice": "A project's unrealized reserved token balance (i.e. reserved tokens which haven't been sent out to the reserved token split group yet)."
			},
			"queueRulesetsOf(uint256,(uint48,uint32,uint112,uint32,address,(uint16,uint16,uint32,bool,bool,bool,bool,bool,bool,bool,bool,bool,bool,bool,bool,bool,bool,bool,address,uint16),(uint256,(bool,uint32,uint56,address,uint48,address)[])[],(address,address,(uint224,uint32)[],(uint224,uint32)[])[])[],string)": {
				"notice": "Add one or more rulesets to the end of a project's ruleset queue. Rulesets take effect after the previous ruleset in the queue ends, and only if they are approved by the previous ruleset's approval hook."
			},
			"receiveMigrationFrom(address,uint256)": {
				"notice": "Prepares this controller to receive a project being migrated from another controller."
			},
			"sendReservedTokensToSplitsOf(uint256)": {
				"notice": "Sends a project's pending reserved tokens to its reserved token splits."
			},
			"setControllerAllowed(uint256)": {
				"notice": "Check whether the project's controller can currently be set."
			},
			"setSplitGroupsOf(uint256,uint256,(uint256,(bool,uint32,uint56,address,uint48,address)[])[])": {
				"notice": "Sets a project's split groups. The new split groups must include any current splits which are locked."
			},
			"setTerminalsAllowed(uint256)": {
				"notice": "Check whether the project's terminals can currently be set."
			},
			"setTokenFor(uint256,address)": {
				"notice": "Set a project's token. If the project's token is already set, this will revert."
			},
			"setUriOf(uint256,string)": {
				"notice": "Set a project's metadata URI."
			},
			"supportsInterface(bytes4)": {
				"notice": "Indicates whether this contract adheres to the specified interface."
			},
			"totalTokenSupplyWithReservedTokensOf(uint256)": {
				"notice": "Gets the a project token's total supply, including pending reserved tokens."
			},
			"transferCreditsFrom(address,uint256,address,uint256)": {
				"notice": "Allows a credit holder to transfer credits to another address."
			},
			"upcomingRulesetOf(uint256)": {
				"notice": "A project's next ruleset along with its metadata."
			},
			"uriOf(uint256)": {
				"notice": "The metadata URI for each project. This is typically an IPFS hash, optionally with an `ipfs://` prefix."
			}
		},
		"version": 1
	},
	"gitCommit": "265dad3852d04d03aba15963b8c2fd79653719f9",
	"sourceName": "src/JBController.sol",
	"chainId": "11155111",
	"linkReferences": {},
	"deployedLinkReferences": {},
	"history": []
}