{
	"_format": "sphinx-sol-ct-artifact-1",
	"merkleRoot": "0x265b3d1ef515576b4fdf2e637b162bb74ec3d8fee355fdf50deb61d527ff499d",
	"address": "0xa007fc713f1e5cf2f778128277bbf3413292849c",
	"sourceName": "src/periphery/JBDeadline3Days.sol",
	"contractName": "JBDeadline3Days",
	"chainId": "0xaa36a7",
	"abi": [
		{
			"inputs": [],
			"stateMutability": "nonpayable",
			"type": "constructor"
		},
		{
			"inputs": [],
			"name": "DURATION",
			"outputs": [
				{
					"internalType": "uint256",
					"name": "",
					"type": "uint256"
				}
			],
			"stateMutability": "view",
			"type": "function"
		},
		{
			"inputs": [
				{
					"internalType": "uint256",
					"name": "",
					"type": "uint256"
				},
				{
					"internalType": "uint256",
					"name": "rulesetId",
					"type": "uint256"
				},
				{
					"internalType": "uint256",
					"name": "start",
					"type": "uint256"
				}
			],
			"name": "approvalStatusOf",
			"outputs": [
				{
					"internalType": "enum JBApprovalStatus",
					"name": "",
					"type": "uint8"
				}
			],
			"stateMutability": "view",
			"type": "function"
		},
		{
			"inputs": [
				{
					"internalType": "bytes4",
					"name": "interfaceId",
					"type": "bytes4"
				}
			],
			"name": "supportsInterface",
			"outputs": [
				{
					"internalType": "bool",
					"name": "",
					"type": "bool"
				}
			],
			"stateMutability": "view",
			"type": "function"
		}
	],
	"args": [],
	"solcInputHash": "d00414ca8c552a4c90a379a4bd430f8f",
	"bytecode": "0x60a060405234801561001057600080fd5b506203f48060805260805161022d6100406000396000818160730152818161010e0152610138015261022d6000f3fe608060405234801561001057600080fd5b50600436106100415760003560e01c806301ffc9a7146100465780631be052891461006e57806350609a56146100a3575b600080fd5b610059610054366004610179565b6100c3565b60405190151581526020015b60405180910390f35b6100957f000000000000000000000000000000000000000000000000000000000000000081565b604051908152602001610065565b6100b66100b13660046101a3565b6100fa565b60405161006591906101cf565b60006001600160e01b03198216634b80c8df60e01b14806100f457506001600160e01b031982166301ffc9a760e01b145b92915050565b60008183111561010c57506005610172565b7f00000000000000000000000000000000000000000000000000000000000000008383031061016c57817f000000000000000000000000000000000000000000000000000000000000000042011061016557600461016f565b600361016f565b60055b90505b9392505050565b60006020828403121561018b57600080fd5b81356001600160e01b03198116811461017257600080fd5b6000806000606084860312156101b857600080fd5b505081359360208301359350604090920135919050565b60208101600683106101f157634e487b7160e01b600052602160045260246000fd5b9190529056fea2646970667358221220b01ad8e86d6167aae2f9e1c793a6fdccc94c061dc07cee5535ca218eafc45b9364736f6c63430008170033",
	"deployedBytecode": "0x",
	"gitCommit": "616673e5fb4ad6d4f6f2cf6e2cf377172c79c4ea"
}