{
	"_format": "sphinx-sol-ct-artifact-1",
	"merkleRoot": "0x2eed67fcf1763eec7ef14ca888c00e6e0d2358663046a3e4367e42ef35bdfba4",
	"contractName": "JBMultiTerminal",
	"address": "0x4DeF0AA5B9CA095d11705284221b2878731ab4EF",
	"abi": [
		{
			"type": "constructor",
			"inputs": [
				{
					"name": "feelessAddresses",
					"type": "address",
					"internalType": "contract IJBFeelessAddresses"
				},
				{
					"name": "permissions",
					"type": "address",
					"internalType": "contract IJBPermissions"
				},
				{
					"name": "projects",
					"type": "address",
					"internalType": "contract IJBProjects"
				},
				{
					"name": "splits",
					"type": "address",
					"internalType": "contract IJBSplits"
				},
				{
					"name": "store",
					"type": "address",
					"internalType": "contract IJBTerminalStore"
				},
				{
					"name": "permit2",
					"type": "address",
					"internalType": "contract IPermit2"
				},
				{
					"name": "trustedForwarder",
					"type": "address",
					"internalType": "address"
				}
			],
			"stateMutability": "nonpayable"
		},
		{
			"type": "function",
			"name": "DIRECTORY",
			"inputs": [],
			"outputs": [
				{
					"name": "",
					"type": "address",
					"internalType": "contract IJBDirectory"
				}
			],
			"stateMutability": "view"
		},
		{
			"type": "function",
			"name": "FEE",
			"inputs": [],
			"outputs": [
				{
					"name": "",
					"type": "uint256",
					"internalType": "uint256"
				}
			],
			"stateMutability": "view"
		},
		{
			"type": "function",
			"name": "FEELESS_ADDRESSES",
			"inputs": [],
			"outputs": [
				{
					"name": "",
					"type": "address",
					"internalType": "contract IJBFeelessAddresses"
				}
			],
			"stateMutability": "view"
		},
		{
			"type": "function",
			"name": "PERMISSIONS",
			"inputs": [],
			"outputs": [
				{
					"name": "",
					"type": "address",
					"internalType": "contract IJBPermissions"
				}
			],
			"stateMutability": "view"
		},
		{
			"type": "function",
			"name": "PERMIT2",
			"inputs": [],
			"outputs": [
				{
					"name": "",
					"type": "address",
					"internalType": "contract IPermit2"
				}
			],
			"stateMutability": "view"
		},
		{
			"type": "function",
			"name": "PROJECTS",
			"inputs": [],
			"outputs": [
				{
					"name": "",
					"type": "address",
					"internalType": "contract IJBProjects"
				}
			],
			"stateMutability": "view"
		},
		{
			"type": "function",
			"name": "RULESETS",
			"inputs": [],
			"outputs": [
				{
					"name": "",
					"type": "address",
					"internalType": "contract IJBRulesets"
				}
			],
			"stateMutability": "view"
		},
		{
			"type": "function",
			"name": "SPLITS",
			"inputs": [],
			"outputs": [
				{
					"name": "",
					"type": "address",
					"internalType": "contract IJBSplits"
				}
			],
			"stateMutability": "view"
		},
		{
			"type": "function",
			"name": "STORE",
			"inputs": [],
			"outputs": [
				{
					"name": "",
					"type": "address",
					"internalType": "contract IJBTerminalStore"
				}
			],
			"stateMutability": "view"
		},
		{
			"type": "function",
			"name": "accountingContextForTokenOf",
			"inputs": [
				{
					"name": "projectId",
					"type": "uint256",
					"internalType": "uint256"
				},
				{
					"name": "token",
					"type": "address",
					"internalType": "address"
				}
			],
			"outputs": [
				{
					"name": "",
					"type": "tuple",
					"internalType": "struct JBAccountingContext",
					"components": [
						{
							"name": "token",
							"type": "address",
							"internalType": "address"
						},
						{
							"name": "decimals",
							"type": "uint8",
							"internalType": "uint8"
						},
						{
							"name": "currency",
							"type": "uint32",
							"internalType": "uint32"
						}
					]
				}
			],
			"stateMutability": "view"
		},
		{
			"type": "function",
			"name": "accountingContextsOf",
			"inputs": [
				{
					"name": "projectId",
					"type": "uint256",
					"internalType": "uint256"
				}
			],
			"outputs": [
				{
					"name": "",
					"type": "tuple[]",
					"internalType": "struct JBAccountingContext[]",
					"components": [
						{
							"name": "token",
							"type": "address",
							"internalType": "address"
						},
						{
							"name": "decimals",
							"type": "uint8",
							"internalType": "uint8"
						},
						{
							"name": "currency",
							"type": "uint32",
							"internalType": "uint32"
						}
					]
				}
			],
			"stateMutability": "view"
		},
		{
			"type": "function",
			"name": "addAccountingContextsFor",
			"inputs": [
				{
					"name": "projectId",
					"type": "uint256",
					"internalType": "uint256"
				},
				{
					"name": "accountingContexts",
					"type": "tuple[]",
					"internalType": "struct JBAccountingContext[]",
					"components": [
						{
							"name": "token",
							"type": "address",
							"internalType": "address"
						},
						{
							"name": "decimals",
							"type": "uint8",
							"internalType": "uint8"
						},
						{
							"name": "currency",
							"type": "uint32",
							"internalType": "uint32"
						}
					]
				}
			],
			"outputs": [],
			"stateMutability": "nonpayable"
		},
		{
			"type": "function",
			"name": "addToBalanceOf",
			"inputs": [
				{
					"name": "projectId",
					"type": "uint256",
					"internalType": "uint256"
				},
				{
					"name": "token",
					"type": "address",
					"internalType": "address"
				},
				{
					"name": "amount",
					"type": "uint256",
					"internalType": "uint256"
				},
				{
					"name": "shouldReturnHeldFees",
					"type": "bool",
					"internalType": "bool"
				},
				{
					"name": "memo",
					"type": "string",
					"internalType": "string"
				},
				{
					"name": "metadata",
					"type": "bytes",
					"internalType": "bytes"
				}
			],
			"outputs": [],
			"stateMutability": "payable"
		},
		{
			"type": "function",
			"name": "currentSurplusOf",
			"inputs": [
				{
					"name": "projectId",
					"type": "uint256",
					"internalType": "uint256"
				},
				{
					"name": "decimals",
					"type": "uint256",
					"internalType": "uint256"
				},
				{
					"name": "currency",
					"type": "uint256",
					"internalType": "uint256"
				}
			],
			"outputs": [
				{
					"name": "",
					"type": "uint256",
					"internalType": "uint256"
				}
			],
			"stateMutability": "view"
		},
		{
			"type": "function",
			"name": "executePayout",
			"inputs": [
				{
					"name": "split",
					"type": "tuple",
					"internalType": "struct JBSplit",
					"components": [
						{
							"name": "preferAddToBalance",
							"type": "bool",
							"internalType": "bool"
						},
						{
							"name": "percent",
							"type": "uint32",
							"internalType": "uint32"
						},
						{
							"name": "projectId",
							"type": "uint56",
							"internalType": "uint56"
						},
						{
							"name": "beneficiary",
							"type": "address",
							"internalType": "address payable"
						},
						{
							"name": "lockedUntil",
							"type": "uint48",
							"internalType": "uint48"
						},
						{
							"name": "hook",
							"type": "address",
							"internalType": "contract IJBSplitHook"
						}
					]
				},
				{
					"name": "projectId",
					"type": "uint256",
					"internalType": "uint256"
				},
				{
					"name": "token",
					"type": "address",
					"internalType": "address"
				},
				{
					"name": "amount",
					"type": "uint256",
					"internalType": "uint256"
				},
				{
					"name": "originalMessageSender",
					"type": "address",
					"internalType": "address"
				}
			],
			"outputs": [
				{
					"name": "netPayoutAmount",
					"type": "uint256",
					"internalType": "uint256"
				}
			],
			"stateMutability": "nonpayable"
		},
		{
			"type": "function",
			"name": "executeProcessFee",
			"inputs": [
				{
					"name": "projectId",
					"type": "uint256",
					"internalType": "uint256"
				},
				{
					"name": "token",
					"type": "address",
					"internalType": "address"
				},
				{
					"name": "amount",
					"type": "uint256",
					"internalType": "uint256"
				},
				{
					"name": "beneficiary",
					"type": "address",
					"internalType": "address"
				},
				{
					"name": "feeTerminal",
					"type": "address",
					"internalType": "contract IJBTerminal"
				}
			],
			"outputs": [],
			"stateMutability": "nonpayable"
		},
		{
			"type": "function",
			"name": "heldFeesOf",
			"inputs": [
				{
					"name": "projectId",
					"type": "uint256",
					"internalType": "uint256"
				},
				{
					"name": "token",
					"type": "address",
					"internalType": "address"
				}
			],
			"outputs": [
				{
					"name": "",
					"type": "tuple[]",
					"internalType": "struct JBFee[]",
					"components": [
						{
							"name": "amount",
							"type": "uint256",
							"internalType": "uint256"
						},
						{
							"name": "beneficiary",
							"type": "address",
							"internalType": "address"
						},
						{
							"name": "unlockTimestamp",
							"type": "uint48",
							"internalType": "uint48"
						}
					]
				}
			],
			"stateMutability": "view"
		},
		{
			"type": "function",
			"name": "isTrustedForwarder",
			"inputs": [
				{
					"name": "forwarder",
					"type": "address",
					"internalType": "address"
				}
			],
			"outputs": [
				{
					"name": "",
					"type": "bool",
					"internalType": "bool"
				}
			],
			"stateMutability": "view"
		},
		{
			"type": "function",
			"name": "migrateBalanceOf",
			"inputs": [
				{
					"name": "projectId",
					"type": "uint256",
					"internalType": "uint256"
				},
				{
					"name": "token",
					"type": "address",
					"internalType": "address"
				},
				{
					"name": "to",
					"type": "address",
					"internalType": "contract IJBTerminal"
				}
			],
			"outputs": [
				{
					"name": "balance",
					"type": "uint256",
					"internalType": "uint256"
				}
			],
			"stateMutability": "nonpayable"
		},
		{
			"type": "function",
			"name": "pay",
			"inputs": [
				{
					"name": "projectId",
					"type": "uint256",
					"internalType": "uint256"
				},
				{
					"name": "token",
					"type": "address",
					"internalType": "address"
				},
				{
					"name": "amount",
					"type": "uint256",
					"internalType": "uint256"
				},
				{
					"name": "beneficiary",
					"type": "address",
					"internalType": "address"
				},
				{
					"name": "minReturnedTokens",
					"type": "uint256",
					"internalType": "uint256"
				},
				{
					"name": "memo",
					"type": "string",
					"internalType": "string"
				},
				{
					"name": "metadata",
					"type": "bytes",
					"internalType": "bytes"
				}
			],
			"outputs": [
				{
					"name": "beneficiaryTokenCount",
					"type": "uint256",
					"internalType": "uint256"
				}
			],
			"stateMutability": "payable"
		},
		{
			"type": "function",
			"name": "processHeldFeesOf",
			"inputs": [
				{
					"name": "projectId",
					"type": "uint256",
					"internalType": "uint256"
				},
				{
					"name": "token",
					"type": "address",
					"internalType": "address"
				}
			],
			"outputs": [],
			"stateMutability": "nonpayable"
		},
		{
			"type": "function",
			"name": "redeemTokensOf",
			"inputs": [
				{
					"name": "holder",
					"type": "address",
					"internalType": "address"
				},
				{
					"name": "projectId",
					"type": "uint256",
					"internalType": "uint256"
				},
				{
					"name": "tokenToReclaim",
					"type": "address",
					"internalType": "address"
				},
				{
					"name": "redeemCount",
					"type": "uint256",
					"internalType": "uint256"
				},
				{
					"name": "minTokensReclaimed",
					"type": "uint256",
					"internalType": "uint256"
				},
				{
					"name": "beneficiary",
					"type": "address",
					"internalType": "address payable"
				},
				{
					"name": "metadata",
					"type": "bytes",
					"internalType": "bytes"
				}
			],
			"outputs": [
				{
					"name": "reclaimAmount",
					"type": "uint256",
					"internalType": "uint256"
				}
			],
			"stateMutability": "nonpayable"
		},
		{
			"type": "function",
			"name": "sendPayoutsOf",
			"inputs": [
				{
					"name": "projectId",
					"type": "uint256",
					"internalType": "uint256"
				},
				{
					"name": "token",
					"type": "address",
					"internalType": "address"
				},
				{
					"name": "amount",
					"type": "uint256",
					"internalType": "uint256"
				},
				{
					"name": "currency",
					"type": "uint256",
					"internalType": "uint256"
				},
				{
					"name": "minTokensPaidOut",
					"type": "uint256",
					"internalType": "uint256"
				}
			],
			"outputs": [
				{
					"name": "amountPaidOut",
					"type": "uint256",
					"internalType": "uint256"
				}
			],
			"stateMutability": "nonpayable"
		},
		{
			"type": "function",
			"name": "supportsInterface",
			"inputs": [
				{
					"name": "interfaceId",
					"type": "bytes4",
					"internalType": "bytes4"
				}
			],
			"outputs": [
				{
					"name": "",
					"type": "bool",
					"internalType": "bool"
				}
			],
			"stateMutability": "pure"
		},
		{
			"type": "function",
			"name": "trustedForwarder",
			"inputs": [],
			"outputs": [
				{
					"name": "",
					"type": "address",
					"internalType": "address"
				}
			],
			"stateMutability": "view"
		},
		{
			"type": "function",
			"name": "useAllowanceOf",
			"inputs": [
				{
					"name": "projectId",
					"type": "uint256",
					"internalType": "uint256"
				},
				{
					"name": "token",
					"type": "address",
					"internalType": "address"
				},
				{
					"name": "amount",
					"type": "uint256",
					"internalType": "uint256"
				},
				{
					"name": "currency",
					"type": "uint256",
					"internalType": "uint256"
				},
				{
					"name": "minTokensPaidOut",
					"type": "uint256",
					"internalType": "uint256"
				},
				{
					"name": "beneficiary",
					"type": "address",
					"internalType": "address payable"
				},
				{
					"name": "feeBeneficiary",
					"type": "address",
					"internalType": "address payable"
				},
				{
					"name": "memo",
					"type": "string",
					"internalType": "string"
				}
			],
			"outputs": [
				{
					"name": "netAmountPaidOut",
					"type": "uint256",
					"internalType": "uint256"
				}
			],
			"stateMutability": "nonpayable"
		},
		{
			"type": "event",
			"name": "AddToBalance",
			"inputs": [
				{
					"name": "projectId",
					"type": "uint256",
					"indexed": true,
					"internalType": "uint256"
				},
				{
					"name": "amount",
					"type": "uint256",
					"indexed": false,
					"internalType": "uint256"
				},
				{
					"name": "returnedFees",
					"type": "uint256",
					"indexed": false,
					"internalType": "uint256"
				},
				{
					"name": "memo",
					"type": "string",
					"indexed": false,
					"internalType": "string"
				},
				{
					"name": "metadata",
					"type": "bytes",
					"indexed": false,
					"internalType": "bytes"
				},
				{
					"name": "caller",
					"type": "address",
					"indexed": false,
					"internalType": "address"
				}
			],
			"anonymous": false
		},
		{
			"type": "event",
			"name": "FeeReverted",
			"inputs": [
				{
					"name": "projectId",
					"type": "uint256",
					"indexed": true,
					"internalType": "uint256"
				},
				{
					"name": "token",
					"type": "address",
					"indexed": true,
					"internalType": "address"
				},
				{
					"name": "feeProjectId",
					"type": "uint256",
					"indexed": true,
					"internalType": "uint256"
				},
				{
					"name": "amount",
					"type": "uint256",
					"indexed": false,
					"internalType": "uint256"
				},
				{
					"name": "reason",
					"type": "bytes",
					"indexed": false,
					"internalType": "bytes"
				},
				{
					"name": "caller",
					"type": "address",
					"indexed": false,
					"internalType": "address"
				}
			],
			"anonymous": false
		},
		{
			"type": "event",
			"name": "HoldFee",
			"inputs": [
				{
					"name": "projectId",
					"type": "uint256",
					"indexed": true,
					"internalType": "uint256"
				},
				{
					"name": "token",
					"type": "address",
					"indexed": true,
					"internalType": "address"
				},
				{
					"name": "amount",
					"type": "uint256",
					"indexed": true,
					"internalType": "uint256"
				},
				{
					"name": "fee",
					"type": "uint256",
					"indexed": false,
					"internalType": "uint256"
				},
				{
					"name": "beneficiary",
					"type": "address",
					"indexed": false,
					"internalType": "address"
				},
				{
					"name": "caller",
					"type": "address",
					"indexed": false,
					"internalType": "address"
				}
			],
			"anonymous": false
		},
		{
			"type": "event",
			"name": "HookAfterRecordPay",
			"inputs": [
				{
					"name": "hook",
					"type": "address",
					"indexed": true,
					"internalType": "contract IJBPayHook"
				},
				{
					"name": "context",
					"type": "tuple",
					"indexed": false,
					"internalType": "struct JBAfterPayRecordedContext",
					"components": [
						{
							"name": "payer",
							"type": "address",
							"internalType": "address"
						},
						{
							"name": "projectId",
							"type": "uint256",
							"internalType": "uint256"
						},
						{
							"name": "rulesetId",
							"type": "uint256",
							"internalType": "uint256"
						},
						{
							"name": "amount",
							"type": "tuple",
							"internalType": "struct JBTokenAmount",
							"components": [
								{
									"name": "token",
									"type": "address",
									"internalType": "address"
								},
								{
									"name": "decimals",
									"type": "uint8",
									"internalType": "uint8"
								},
								{
									"name": "currency",
									"type": "uint32",
									"internalType": "uint32"
								},
								{
									"name": "value",
									"type": "uint256",
									"internalType": "uint256"
								}
							]
						},
						{
							"name": "forwardedAmount",
							"type": "tuple",
							"internalType": "struct JBTokenAmount",
							"components": [
								{
									"name": "token",
									"type": "address",
									"internalType": "address"
								},
								{
									"name": "decimals",
									"type": "uint8",
									"internalType": "uint8"
								},
								{
									"name": "currency",
									"type": "uint32",
									"internalType": "uint32"
								},
								{
									"name": "value",
									"type": "uint256",
									"internalType": "uint256"
								}
							]
						},
						{
							"name": "weight",
							"type": "uint256",
							"internalType": "uint256"
						},
						{
							"name": "projectTokenCount",
							"type": "uint256",
							"internalType": "uint256"
						},
						{
							"name": "beneficiary",
							"type": "address",
							"internalType": "address"
						},
						{
							"name": "hookMetadata",
							"type": "bytes",
							"internalType": "bytes"
						},
						{
							"name": "payerMetadata",
							"type": "bytes",
							"internalType": "bytes"
						}
					]
				},
				{
					"name": "specificationAmount",
					"type": "uint256",
					"indexed": false,
					"internalType": "uint256"
				},
				{
					"name": "caller",
					"type": "address",
					"indexed": false,
					"internalType": "address"
				}
			],
			"anonymous": false
		},
		{
			"type": "event",
			"name": "HookAfterRecordRedeem",
			"inputs": [
				{
					"name": "hook",
					"type": "address",
					"indexed": true,
					"internalType": "contract IJBRedeemHook"
				},
				{
					"name": "context",
					"type": "tuple",
					"indexed": false,
					"internalType": "struct JBAfterRedeemRecordedContext",
					"components": [
						{
							"name": "holder",
							"type": "address",
							"internalType": "address"
						},
						{
							"name": "projectId",
							"type": "uint256",
							"internalType": "uint256"
						},
						{
							"name": "rulesetId",
							"type": "uint256",
							"internalType": "uint256"
						},
						{
							"name": "redeemCount",
							"type": "uint256",
							"internalType": "uint256"
						},
						{
							"name": "reclaimedAmount",
							"type": "tuple",
							"internalType": "struct JBTokenAmount",
							"components": [
								{
									"name": "token",
									"type": "address",
									"internalType": "address"
								},
								{
									"name": "decimals",
									"type": "uint8",
									"internalType": "uint8"
								},
								{
									"name": "currency",
									"type": "uint32",
									"internalType": "uint32"
								},
								{
									"name": "value",
									"type": "uint256",
									"internalType": "uint256"
								}
							]
						},
						{
							"name": "forwardedAmount",
							"type": "tuple",
							"internalType": "struct JBTokenAmount",
							"components": [
								{
									"name": "token",
									"type": "address",
									"internalType": "address"
								},
								{
									"name": "decimals",
									"type": "uint8",
									"internalType": "uint8"
								},
								{
									"name": "currency",
									"type": "uint32",
									"internalType": "uint32"
								},
								{
									"name": "value",
									"type": "uint256",
									"internalType": "uint256"
								}
							]
						},
						{
							"name": "redemptionRate",
							"type": "uint256",
							"internalType": "uint256"
						},
						{
							"name": "beneficiary",
							"type": "address",
							"internalType": "address payable"
						},
						{
							"name": "hookMetadata",
							"type": "bytes",
							"internalType": "bytes"
						},
						{
							"name": "redeemerMetadata",
							"type": "bytes",
							"internalType": "bytes"
						}
					]
				},
				{
					"name": "specificationAmount",
					"type": "uint256",
					"indexed": false,
					"internalType": "uint256"
				},
				{
					"name": "fee",
					"type": "uint256",
					"indexed": false,
					"internalType": "uint256"
				},
				{
					"name": "caller",
					"type": "address",
					"indexed": false,
					"internalType": "address"
				}
			],
			"anonymous": false
		},
		{
			"type": "event",
			"name": "MigrateTerminal",
			"inputs": [
				{
					"name": "projectId",
					"type": "uint256",
					"indexed": true,
					"internalType": "uint256"
				},
				{
					"name": "token",
					"type": "address",
					"indexed": true,
					"internalType": "address"
				},
				{
					"name": "to",
					"type": "address",
					"indexed": true,
					"internalType": "contract IJBTerminal"
				},
				{
					"name": "amount",
					"type": "uint256",
					"indexed": false,
					"internalType": "uint256"
				},
				{
					"name": "caller",
					"type": "address",
					"indexed": false,
					"internalType": "address"
				}
			],
			"anonymous": false
		},
		{
			"type": "event",
			"name": "Pay",
			"inputs": [
				{
					"name": "rulesetId",
					"type": "uint256",
					"indexed": true,
					"internalType": "uint256"
				},
				{
					"name": "rulesetCycleNumber",
					"type": "uint256",
					"indexed": true,
					"internalType": "uint256"
				},
				{
					"name": "projectId",
					"type": "uint256",
					"indexed": true,
					"internalType": "uint256"
				},
				{
					"name": "payer",
					"type": "address",
					"indexed": false,
					"internalType": "address"
				},
				{
					"name": "beneficiary",
					"type": "address",
					"indexed": false,
					"internalType": "address"
				},
				{
					"name": "amount",
					"type": "uint256",
					"indexed": false,
					"internalType": "uint256"
				},
				{
					"name": "beneficiaryTokenCount",
					"type": "uint256",
					"indexed": false,
					"internalType": "uint256"
				},
				{
					"name": "memo",
					"type": "string",
					"indexed": false,
					"internalType": "string"
				},
				{
					"name": "metadata",
					"type": "bytes",
					"indexed": false,
					"internalType": "bytes"
				},
				{
					"name": "caller",
					"type": "address",
					"indexed": false,
					"internalType": "address"
				}
			],
			"anonymous": false
		},
		{
			"type": "event",
			"name": "PayoutReverted",
			"inputs": [
				{
					"name": "projectId",
					"type": "uint256",
					"indexed": true,
					"internalType": "uint256"
				},
				{
					"name": "split",
					"type": "tuple",
					"indexed": false,
					"internalType": "struct JBSplit",
					"components": [
						{
							"name": "preferAddToBalance",
							"type": "bool",
							"internalType": "bool"
						},
						{
							"name": "percent",
							"type": "uint32",
							"internalType": "uint32"
						},
						{
							"name": "projectId",
							"type": "uint56",
							"internalType": "uint56"
						},
						{
							"name": "beneficiary",
							"type": "address",
							"internalType": "address payable"
						},
						{
							"name": "lockedUntil",
							"type": "uint48",
							"internalType": "uint48"
						},
						{
							"name": "hook",
							"type": "address",
							"internalType": "contract IJBSplitHook"
						}
					]
				},
				{
					"name": "amount",
					"type": "uint256",
					"indexed": false,
					"internalType": "uint256"
				},
				{
					"name": "reason",
					"type": "bytes",
					"indexed": false,
					"internalType": "bytes"
				},
				{
					"name": "caller",
					"type": "address",
					"indexed": false,
					"internalType": "address"
				}
			],
			"anonymous": false
		},
		{
			"type": "event",
			"name": "ProcessFee",
			"inputs": [
				{
					"name": "projectId",
					"type": "uint256",
					"indexed": true,
					"internalType": "uint256"
				},
				{
					"name": "token",
					"type": "address",
					"indexed": true,
					"internalType": "address"
				},
				{
					"name": "amount",
					"type": "uint256",
					"indexed": true,
					"internalType": "uint256"
				},
				{
					"name": "wasHeld",
					"type": "bool",
					"indexed": false,
					"internalType": "bool"
				},
				{
					"name": "beneficiary",
					"type": "address",
					"indexed": false,
					"internalType": "address"
				},
				{
					"name": "caller",
					"type": "address",
					"indexed": false,
					"internalType": "address"
				}
			],
			"anonymous": false
		},
		{
			"type": "event",
			"name": "RedeemTokens",
			"inputs": [
				{
					"name": "rulesetId",
					"type": "uint256",
					"indexed": true,
					"internalType": "uint256"
				},
				{
					"name": "rulesetCycleNumber",
					"type": "uint256",
					"indexed": true,
					"internalType": "uint256"
				},
				{
					"name": "projectId",
					"type": "uint256",
					"indexed": true,
					"internalType": "uint256"
				},
				{
					"name": "holder",
					"type": "address",
					"indexed": false,
					"internalType": "address"
				},
				{
					"name": "beneficiary",
					"type": "address",
					"indexed": false,
					"internalType": "address"
				},
				{
					"name": "redeemCount",
					"type": "uint256",
					"indexed": false,
					"internalType": "uint256"
				},
				{
					"name": "redemptionRate",
					"type": "uint256",
					"indexed": false,
					"internalType": "uint256"
				},
				{
					"name": "reclaimAmount",
					"type": "uint256",
					"indexed": false,
					"internalType": "uint256"
				},
				{
					"name": "metadata",
					"type": "bytes",
					"indexed": false,
					"internalType": "bytes"
				},
				{
					"name": "caller",
					"type": "address",
					"indexed": false,
					"internalType": "address"
				}
			],
			"anonymous": false
		},
		{
			"type": "event",
			"name": "ReturnHeldFees",
			"inputs": [
				{
					"name": "projectId",
					"type": "uint256",
					"indexed": true,
					"internalType": "uint256"
				},
				{
					"name": "token",
					"type": "address",
					"indexed": true,
					"internalType": "address"
				},
				{
					"name": "amount",
					"type": "uint256",
					"indexed": true,
					"internalType": "uint256"
				},
				{
					"name": "returnedFees",
					"type": "uint256",
					"indexed": false,
					"internalType": "uint256"
				},
				{
					"name": "leftoverAmount",
					"type": "uint256",
					"indexed": false,
					"internalType": "uint256"
				},
				{
					"name": "caller",
					"type": "address",
					"indexed": false,
					"internalType": "address"
				}
			],
			"anonymous": false
		},
		{
			"type": "event",
			"name": "SendPayoutToSplit",
			"inputs": [
				{
					"name": "projectId",
					"type": "uint256",
					"indexed": true,
					"internalType": "uint256"
				},
				{
					"name": "rulesetId",
					"type": "uint256",
					"indexed": true,
					"internalType": "uint256"
				},
				{
					"name": "group",
					"type": "uint256",
					"indexed": true,
					"internalType": "uint256"
				},
				{
					"name": "split",
					"type": "tuple",
					"indexed": false,
					"internalType": "struct JBSplit",
					"components": [
						{
							"name": "preferAddToBalance",
							"type": "bool",
							"internalType": "bool"
						},
						{
							"name": "percent",
							"type": "uint32",
							"internalType": "uint32"
						},
						{
							"name": "projectId",
							"type": "uint56",
							"internalType": "uint56"
						},
						{
							"name": "beneficiary",
							"type": "address",
							"internalType": "address payable"
						},
						{
							"name": "lockedUntil",
							"type": "uint48",
							"internalType": "uint48"
						},
						{
							"name": "hook",
							"type": "address",
							"internalType": "contract IJBSplitHook"
						}
					]
				},
				{
					"name": "amount",
					"type": "uint256",
					"indexed": false,
					"internalType": "uint256"
				},
				{
					"name": "netAmount",
					"type": "uint256",
					"indexed": false,
					"internalType": "uint256"
				},
				{
					"name": "caller",
					"type": "address",
					"indexed": false,
					"internalType": "address"
				}
			],
			"anonymous": false
		},
		{
			"type": "event",
			"name": "SendPayouts",
			"inputs": [
				{
					"name": "rulesetId",
					"type": "uint256",
					"indexed": true,
					"internalType": "uint256"
				},
				{
					"name": "rulesetCycleNumber",
					"type": "uint256",
					"indexed": true,
					"internalType": "uint256"
				},
				{
					"name": "projectId",
					"type": "uint256",
					"indexed": true,
					"internalType": "uint256"
				},
				{
					"name": "projectOwner",
					"type": "address",
					"indexed": false,
					"internalType": "address"
				},
				{
					"name": "amount",
					"type": "uint256",
					"indexed": false,
					"internalType": "uint256"
				},
				{
					"name": "amountPaidOut",
					"type": "uint256",
					"indexed": false,
					"internalType": "uint256"
				},
				{
					"name": "fee",
					"type": "uint256",
					"indexed": false,
					"internalType": "uint256"
				},
				{
					"name": "netLeftoverPayoutAmount",
					"type": "uint256",
					"indexed": false,
					"internalType": "uint256"
				},
				{
					"name": "caller",
					"type": "address",
					"indexed": false,
					"internalType": "address"
				}
			],
			"anonymous": false
		},
		{
			"type": "event",
			"name": "SetAccountingContext",
			"inputs": [
				{
					"name": "projectId",
					"type": "uint256",
					"indexed": true,
					"internalType": "uint256"
				},
				{
					"name": "context",
					"type": "tuple",
					"indexed": false,
					"internalType": "struct JBAccountingContext",
					"components": [
						{
							"name": "token",
							"type": "address",
							"internalType": "address"
						},
						{
							"name": "decimals",
							"type": "uint8",
							"internalType": "uint8"
						},
						{
							"name": "currency",
							"type": "uint32",
							"internalType": "uint32"
						}
					]
				},
				{
					"name": "caller",
					"type": "address",
					"indexed": false,
					"internalType": "address"
				}
			],
			"anonymous": false
		},
		{
			"type": "event",
			"name": "UseAllowance",
			"inputs": [
				{
					"name": "rulesetId",
					"type": "uint256",
					"indexed": true,
					"internalType": "uint256"
				},
				{
					"name": "rulesetCycleNumber",
					"type": "uint256",
					"indexed": true,
					"internalType": "uint256"
				},
				{
					"name": "projectId",
					"type": "uint256",
					"indexed": true,
					"internalType": "uint256"
				},
				{
					"name": "beneficiary",
					"type": "address",
					"indexed": false,
					"internalType": "address"
				},
				{
					"name": "feeBeneficiary",
					"type": "address",
					"indexed": false,
					"internalType": "address"
				},
				{
					"name": "amount",
					"type": "uint256",
					"indexed": false,
					"internalType": "uint256"
				},
				{
					"name": "amountPaidOut",
					"type": "uint256",
					"indexed": false,
					"internalType": "uint256"
				},
				{
					"name": "netAmountPaidOut",
					"type": "uint256",
					"indexed": false,
					"internalType": "uint256"
				},
				{
					"name": "memo",
					"type": "string",
					"indexed": false,
					"internalType": "string"
				},
				{
					"name": "caller",
					"type": "address",
					"indexed": false,
					"internalType": "address"
				}
			],
			"anonymous": false
		},
		{
			"type": "error",
			"name": "AddressEmptyCode",
			"inputs": [
				{
					"name": "target",
					"type": "address",
					"internalType": "address"
				}
			]
		},
		{
			"type": "error",
			"name": "AddressInsufficientBalance",
			"inputs": [
				{
					"name": "account",
					"type": "address",
					"internalType": "address"
				}
			]
		},
		{
			"type": "error",
			"name": "FailedInnerCall",
			"inputs": []
		},
		{
			"type": "error",
			"name": "JBMultiTerminal_AccountingContextAlreadySet",
			"inputs": [
				{
					"name": "token",
					"type": "address",
					"internalType": "address"
				}
			]
		},
		{
			"type": "error",
			"name": "JBMultiTerminal_AddingAccountingContextNotAllowed",
			"inputs": []
		},
		{
			"type": "error",
			"name": "JBMultiTerminal_FeeTerminalNotFound",
			"inputs": []
		},
		{
			"type": "error",
			"name": "JBMultiTerminal_NoMsgValueAllowed",
			"inputs": [
				{
					"name": "value",
					"type": "uint256",
					"internalType": "uint256"
				}
			]
		},
		{
			"type": "error",
			"name": "JBMultiTerminal_OverflowAlert",
			"inputs": [
				{
					"name": "value",
					"type": "uint256",
					"internalType": "uint256"
				},
				{
					"name": "limit",
					"type": "uint256",
					"internalType": "uint256"
				}
			]
		},
		{
			"type": "error",
			"name": "JBMultiTerminal_PermitAllowanceNotEnough",
			"inputs": [
				{
					"name": "amount",
					"type": "uint256",
					"internalType": "uint256"
				},
				{
					"name": "allowance",
					"type": "uint256",
					"internalType": "uint256"
				}
			]
		},
		{
			"type": "error",
			"name": "JBMultiTerminal_RecipientProjectTerminalNotFound",
			"inputs": [
				{
					"name": "projectId",
					"type": "uint256",
					"internalType": "uint256"
				},
				{
					"name": "token",
					"type": "address",
					"internalType": "address"
				}
			]
		},
		{
			"type": "error",
			"name": "JBMultiTerminal_SplitHookInvalid",
			"inputs": [
				{
					"name": "hook",
					"type": "address",
					"internalType": "contract IJBSplitHook"
				}
			]
		},
		{
			"type": "error",
			"name": "JBMultiTerminal_TerminalTokensIncompatible",
			"inputs": []
		},
		{
			"type": "error",
			"name": "JBMultiTerminal_TokenNotAccepted",
			"inputs": [
				{
					"name": "token",
					"type": "address",
					"internalType": "address"
				}
			]
		},
		{
			"type": "error",
			"name": "JBMultiTerminal_UnderMinReturnedTokens",
			"inputs": [
				{
					"name": "count",
					"type": "uint256",
					"internalType": "uint256"
				},
				{
					"name": "min",
					"type": "uint256",
					"internalType": "uint256"
				}
			]
		},
		{
			"type": "error",
			"name": "JBMultiTerminal_UnderMinTokensPaidOut",
			"inputs": [
				{
					"name": "amount",
					"type": "uint256",
					"internalType": "uint256"
				},
				{
					"name": "min",
					"type": "uint256",
					"internalType": "uint256"
				}
			]
		},
		{
			"type": "error",
			"name": "JBMultiTerminal_UnderMinTokensReclaimed",
			"inputs": [
				{
					"name": "amount",
					"type": "uint256",
					"internalType": "uint256"
				},
				{
					"name": "min",
					"type": "uint256",
					"internalType": "uint256"
				}
			]
		},
		{
			"type": "error",
			"name": "JBMultiTerminal_ZeroAccountingContextCurrency",
			"inputs": []
		},
		{
			"type": "error",
			"name": "JBMultiTerminal_ZeroAccountingContextDecimals",
			"inputs": []
		},
		{
			"type": "error",
			"name": "JBPermissioned_Unauthorized",
			"inputs": [
				{
					"name": "account",
					"type": "address",
					"internalType": "address"
				},
				{
					"name": "sender",
					"type": "address",
					"internalType": "address"
				},
				{
					"name": "projectId",
					"type": "uint256",
					"internalType": "uint256"
				},
				{
					"name": "permissionId",
					"type": "uint256",
					"internalType": "uint256"
				}
			]
		},
		{
			"type": "error",
			"name": "PRBMath_MulDiv_Overflow",
			"inputs": [
				{
					"name": "x",
					"type": "uint256",
					"internalType": "uint256"
				},
				{
					"name": "y",
					"type": "uint256",
					"internalType": "uint256"
				},
				{
					"name": "denominator",
					"type": "uint256",
					"internalType": "uint256"
				}
			]
		},
		{
			"type": "error",
			"name": "SafeERC20FailedOperation",
			"inputs": [
				{
					"name": "token",
					"type": "address",
					"internalType": "address"
				}
			]
		}
	],
	"solcInputHash": "b89bde0fe29395f67edeac33d37789f7",
	"args": [
		"0xc1490c2759Eda9aFDE3e6Babf66367407F2cb010",
		"0x4CDb4200e4E65a277676Cd5E8d3c7C7C4dA7fBe5",
		"0xEcB62030E30Bb027F672F24692111492Ba2Bbc84",
		"0x0EEcf21dfC9265E25b81F384993a40e351F897fe",
		"0xf36a63951A49a9708f007F23B077751be80fFE11",
		"0x000000000022D473030F116dDEE9F6B43aC78BA3",
		"0xB2b5841DBeF766d4b521221732F9B618fCf34A87"
	],
	"bytecode": "0x6101a06040523480156200001257600080fd5b50604051620062ad380380620062ad833981016040819052620000359162000176565b6001600160a01b0380871660805280821660a052604080516388bc2ef360e01b81529051918516916388bc2ef3916004808201926020929091908290030181865afa15801562000089573d6000803e3d6000fd5b505050506040513d601f19601f82011682018060405250810190620000af919062000221565b6001600160a01b0390811660c05287811660e052858116610120526040805163d4a1b4b160e01b815290519185169163d4a1b4b1916004808201926020929091908290030181865afa1580156200010a573d6000803e3d6000fd5b505050506040513d601f19601f8201168201806040525081019062000130919062000221565b6001600160a01b039081166101405293841661016052509082166101805216610100525062000248915050565b6001600160a01b03811681146200017357600080fd5b50565b600080600080600080600060e0888a0312156200019257600080fd5b87516200019f816200015d565b6020890151909750620001b2816200015d565b6040890151909650620001c5816200015d565b6060890151909550620001d8816200015d565b6080890151909450620001eb816200015d565b60a0890151909350620001fe816200015d565b60c089015190925062000211816200015d565b8091505092959891949750929550565b6000602082840312156200023457600080fd5b815162000241816200015d565b9392505050565b60805160a05160c05160e0516101005161012051610140516101605161018051615f3e6200036f6000396000818161035c015281816115a1015281816117bc015281816122450152818161269d0152818161281901528181612aba01528181612e9d0152818161348e01526144dc0152600081816101cd0152613f2f0152600081816105c1015261080f01526000818161023b01528181610757015281816113720152818161168801528181612b6c0152612c0001526000818161047e01528181611e48015261254801526000818161044a0152611ab701526000818161050501528181610f81015281816119fd01528181611f9a01526136a20152600081816103c8015281816104cf015261307c01526000818161061501526121600152615f3e6000f3fe6080604052600436106101815760003560e01c80636afdd850116100d1578063c57981b51161008a578063d4a1b4b111610064578063d4a1b4b1146105af578063e28b5411146105e3578063f434c91414610603578063fef432571461063757600080fd5b8063c57981b51461055a578063cc6801271461056f578063cfaf58391461058f57600080fd5b80636afdd8501461046c578063748e821c146104a05780637da0a877146104c057806388bc2ef3146104f35780639e6eec0514610527578063bb7214fe1461053a57600080fd5b80634ff513ab1161013e578063572b6c0511610118578063572b6c05146103ab5780635f912e56146103f857806362ef303614610418578063659a20471461043857600080fd5b80634ff513ab1461031c578063507f14651461034a578063515a92931461037e57600080fd5b806301ffc9a7146101865780631f47ce69146101bb578063253721c814610207578063293c49991461022957806333b306101461025d5780633a01714f1461028a575b600080fd5b34801561019257600080fd5b506101a66101a1366004614792565b61064a565b60405190151581526020015b60405180910390f35b3480156101c757600080fd5b506101ef7f000000000000000000000000000000000000000000000000000000000000000081565b6040516001600160a01b0390911681526020016101b2565b34801561021357600080fd5b506102276102223660046147bc565b61073d565b005b34801561023557600080fd5b506101ef7f000000000000000000000000000000000000000000000000000000000000000081565b34801561026957600080fd5b5061027d61027836600461484f565b610c8b565b6040516101b2919061487f565b34801561029657600080fd5b5061030f6102a536600461484f565b6040805160608082018352600080835260208084018290529284018190529485528482528285206001600160a01b03948516865282529382902082519485018352549283168452600160a01b830460ff1690840152600160a81b90910463ffffffff169082015290565b6040516101b29190614914565b34801561032857600080fd5b5061033c610337366004614922565b610d35565b6040519081526020016101b2565b34801561035657600080fd5b506101ef7f000000000000000000000000000000000000000000000000000000000000000081565b34801561038a57600080fd5b5061039e61039936600461498a565b611218565b6040516101b291906149e9565b3480156103b757600080fd5b506101a66103c63660046149fc565b7f00000000000000000000000000000000000000000000000000000000000000006001600160a01b0390811691161490565b34801561040457600080fd5b50610227610413366004614a19565b6112b2565b34801561042457600080fd5b5061022761043336600461484f565b61133d565b34801561044457600080fd5b506101ef7f000000000000000000000000000000000000000000000000000000000000000081565b34801561047857600080fd5b506101ef7f000000000000000000000000000000000000000000000000000000000000000081565b3480156104ac57600080fd5b5061033c6104bb366004614aab565b61134d565b3480156104cc57600080fd5b507f00000000000000000000000000000000000000000000000000000000000000006101ef565b3480156104ff57600080fd5b506101ef7f000000000000000000000000000000000000000000000000000000000000000081565b610227610535366004614b5d565b611464565b34801561054657600080fd5b5061033c610555366004614c04565b6114f1565b34801561056657600080fd5b5061033c601981565b34801561057b57600080fd5b5061033c61058a366004614c87565b61157c565b34801561059b57600080fd5b5061033c6105aa366004614cb3565b611628565b3480156105bb57600080fd5b506101ef7f000000000000000000000000000000000000000000000000000000000000000081565b3480156105ef57600080fd5b5061033c6105fe366004614cfb565b611663565b34801561060f57600080fd5b506101ef7f000000000000000000000000000000000000000000000000000000000000000081565b61033c610645366004614d3d565b61192a565b60006001600160e01b03198216633a1909d760e01b148061067b57506001600160e01b03198216633d0d324560e21b145b8061069557506001600160e01b031982166201549760e41b145b806106b057506001600160e01b03198216635db90a7f60e11b145b806106cb57506001600160e01b0319821663bb21da2560e01b145b806106e657506001600160e01b031982166306afdd8560e41b145b8061070157506001600160e01b03198216633a1909d760e01b145b8061071c57506001600160e01b03198216633c6fe5f560e21b145b8061073757506001600160e01b031982166301ffc9a760e01b145b92915050565b6040516331a9108f60e11b8152600481018490526107f6907f00000000000000000000000000000000000000000000000000000000000000006001600160a01b031690636352211e90602401602060405180830381865afa1580156107a6573d6000803e3d6000fd5b505050506040513d601f19601f820116820180604052508101906107ca9190614dd9565b8460136107d6826119e4565b6001600160a01b03166107e7611a70565b6001600160a01b031614611a7f565b6040516321d1336160e11b8152600481018490526000907f00000000000000000000000000000000000000000000000000000000000000006001600160a01b0316906343a266c29060240161012060405180830381865afa15801561085f573d6000803e3d6000fd5b505050506040513d601f19601f820116820180604052508101906108839190614fdf565b9050806020015165ffffffffffff166000141580156108ae5750610100810151604b1c600190811614155b156108cc576040516308034a2d60e21b815260040160405180910390fd5b60005b82811015610c845760008484838181106108eb576108eb614ffc565b9050606002018036038101906109019190615021565b60008781526020818152604080832084516001600160a01b0390811685529252909120805492935091161561095c5780546040516307295c0160e21b81526001600160a01b0390911660048201526024015b60405180910390fd5b81516000906001600160a01b031661eeee1480156109825750826020015160ff16601214155b1561098f57506001610a99565b82516001600160a01b031661eeee14610a995782516040516301ffc9a760e01b815263a219a02560e01b60048201526001600160a01b03909116906301ffc9a790602401602060405180830381865afa925050508015610a0c575060408051601f3d908101601f19168201909252610a0991810190615075565b60015b15610a9957808015610a8d575083600001516001600160a01b031663313ce5676040518163ffffffff1660e01b8152600401602060405180830381865afa158015610a5b573d6000803e3d6000fd5b505050506040513d601f19601f82011682018060405250810190610a7f9190615092565b60ff16846020015160ff1614155b15610a9757600191505b505b8015610ab85760405163104a127760e21b815260040160405180910390fd5b826040015163ffffffff16600003610ae357604051633c94d15b60e01b815260040160405180910390fd5b82600001518260000160006101000a8154816001600160a01b0302191690836001600160a01b0316021790555082602001518260000160146101000a81548160ff021916908360ff16021790555082604001518260000160156101000a81548163ffffffff021916908363ffffffff1602179055506001600089815260200190815260200160002082908060018154018082558091505060019003906000526020600020016000909190919091506000820160009054906101000a90046001600160a01b03168160000160006101000a8154816001600160a01b0302191690836001600160a01b031602179055506000820160149054906101000a900460ff168160000160146101000a81548160ff021916908360ff1602179055506000820160159054906101000a900463ffffffff168160000160156101000a81548163ffffffff021916908363ffffffff1602179055505050877fec91efc21eddd12fa66398fea3251c0e0b95bc53f0cdde2cd2c52e94bf11e07883610c63611a70565b604051610c719291906150da565b60405180910390a25050506001016108cf565b5050505050565b60008281526002602090815260408083206001600160a01b03851684528252808320805482518185028101850190935280835260609492939192909184015b82821015610d295760008481526020908190206040805160608101825260028602909201805483526001908101546001600160a01b03811684860152600160a01b900465ffffffffffff16918301919091529083529092019101610cca565b50505050905092915050565b6000333014610d4357600080fd5b50816000610d5760c0880160a089016149fc565b6001600160a01b031614610f5757610d7560c0870160a088016149fc565b6040516301ffc9a760e01b815262dcdc5760e41b60048201526001600160a01b0391909116906301ffc9a790602401602060405180830381865afa158015610dc1573d6000803e3d6000fd5b505050506040513d601f19601f82011682018060405250810190610de59190615075565b610e1e57610df960c0870160a088016149fc565b6040516347dfdccf60e11b81526001600160a01b039091166004820152602401610953565b610e36610e3160c0880160a089016149fc565b611a95565b610e5257610e45836019611b24565b610e4f9082615116565b90505b6040805160c0810182526001600160a01b0386168082526020808301859052600089815280825284812083825290915283812054600160a01b900460ff169383019390935260608201889052608082015260a08101610eb6368a90038a018a61513e565b90529050610ed4610ecd60c0890160a08a016149fc565b8684611b46565b6000610ee08684611b77565b9050610ef260c0890160a08a016149fc565b6001600160a01b0316630dcdc57082846040518363ffffffff1660e01b8152600401610f1e919061522a565b6000604051808303818588803b158015610f3757600080fd5b505af1158015610f4b573d6000803e3d6000fd5b5050505050505061120f565b610f67606087016040880161527e565b66ffffffffffffff16156111a35760006001600160a01b037f0000000000000000000000000000000000000000000000000000000000000000166386202650610fb660608a0160408b0161527e565b6040516001600160e01b031960e084901b16815266ffffffffffffff90911660048201526001600160a01b0388166024820152604401602060405180830381865afa158015611009573d6000803e3d6000fd5b505050506040513d601f19601f8201168201806040525081019061102d9190614dd9565b90506001600160a01b0381166110815761104d606088016040890161527e565b60405163ea4f4b6160e01b815266ffffffffffffff90911660048201526001600160a01b0386166024820152604401610953565b6001600160a01b03811630148015906110a0575061109e81611a95565b155b156110bd576110b0846019611b24565b6110ba9083615116565b91505b6001600160a01b03811630146110d8576110d8818684611b46565b6000866040516020016110ed91815260200190565b60408051601f19818403018152919052905061110c602089018961529b565b1561113b576111368261112560608b0160408c0161527e565b66ffffffffffffff16888685611b98565b61119c565b60008061114e60808b0160608c016149fc565b6001600160a01b0316036111625784611172565b61117260808a0160608b016149fc565b905061119a8361118860608c0160408d0161527e565b66ffffffffffffff1689878587611c49565b505b505061120f565b6000806111b66080890160608a016149fc565b6001600160a01b0316036111ca57826111da565b6111da60808801606089016149fc565b90506111e581611a95565b611201576111f4846019611b24565b6111fe9083615116565b91505b61120d30828785611d06565b505b95945050505050565b606060016000838152602001908152602001600020805480602002602001604051908101604052809291908181526020016000905b828210156112a757600084815260209081902060408051606081018252918501546001600160a01b0381168352600160a01b810460ff1683850152600160a81b900463ffffffff169082015282526001909201910161124d565b505050509050919050565b3330146112be57600080fd5b6001600160a01b0381166112e557604051630692dd3560e01b815260040160405180910390fd5b6001600160a01b038116301461130057611300818585611b46565b60008560405160200161131591815260200190565b604051602081830303815290604052905061133582600187878786611c49565b505050505050565b61134982826000611ea0565b5050565b6040516331a9108f60e11b8152600481018a90526000906113e5906001600160a01b037f00000000000000000000000000000000000000000000000000000000000000001690636352211e90602401602060405180830381865afa1580156113b9573d6000803e3d6000fd5b505050506040513d601f19601f820116820180604052508101906113dd9190614dd9565b8b60106120f4565b61142a8a8a8a8a898989898080601f01602080910402602001604051908101604052809392919081815260200183838082843760009201919091525061220c92505050565b905085811015611457576040516332eb01cf60e21b81526004810182905260248101879052604401610953565b9998505050505050505050565b6114e788886114768b8b8b8888612394565b8888888080601f01602080910402602001604051908101604052809392919081815260200183838082843760009201919091525050604080516020601f8c018190048102820181019092528a815292508a915089908190840183828082843760009201919091525061263192505050565b5050505050505050565b60006114ff898960036120f4565b611543898989898888888080601f01602080910402602001604051908101604052809392919081815260200183838082843760009201919091525061271c92505050565b905084811015611570576040516353004fd560e01b81526004810182905260248101869052604401610953565b98975050505050505050565b600083815260016020526040808220905163d60d1a0960e01b81526001600160a01b037f0000000000000000000000000000000000000000000000000000000000000000169163d60d1a09916115dd913091899190899089906004016152b8565b602060405180830381865afa1580156115fa573d6000803e3d6000fd5b505050506040513d601f19601f8201168201806040525081019061161e9190615329565b90505b9392505050565b600061163686868686612a80565b90508181101561120f576040516332eb01cf60e21b81526004810182905260248101839052604401610953565b6040516331a9108f60e11b8152600481018490526000906116fb906001600160a01b037f00000000000000000000000000000000000000000000000000000000000000001690636352211e90602401602060405180830381865afa1580156116cf573d6000803e3d6000fd5b505050506040513d601f19601f820116820180604052508101906116f39190614dd9565b8560056120f4565b604051633a01714f60e01b8152600481018590526001600160a01b038481166024830152831690633a01714f90604401606060405180830381865afa158015611748573d6000803e3d6000fd5b505050506040513d601f19601f8201168201806040525081019061176c9190615342565b6040015163ffffffff166000036117965760405163aaf52f1f60e01b815260040160405180910390fd5b6040516319781e2360e01b8152600481018590526001600160a01b0384811660248301527f000000000000000000000000000000000000000000000000000000000000000016906319781e23906044016020604051808303816000875af1158015611805573d6000803e3d6000fd5b505050506040513d601f19601f820116820180604052508101906118299190615329565b9050816001600160a01b0316836001600160a01b0316857ff0aa72bb9c2a07cf43281bfe8c525ba320fdc71e18b54c9f93ab22ce074af7f68461186a611a70565b604080519283526001600160a01b0390911660208301520160405180910390a4801561191e5761189b828483611b46565b60006118a78483611b77565b6040805160208101825260008082529151639e6eec0560e01b81529293506001600160a01b03861692639e6eec059285926118ea928b928b928a926004016153da565b6000604051808303818588803b15801561190357600080fd5b505af1158015611917573d6000803e3d6000fd5b5050505050505b61162184846001611ea0565b60006119b78a8a61193e8d8d8d8989612394565b611946611a70565b8b8a8a8080601f01602080910402602001604051908101604052809392919081815260200183838082843760009201919091525050604080516020601f8e018190048102820181019092528c815292508c91508b9081908401838280828437600092019190915250612d7f92505050565b9050858110156114575760405163c3de539b60e01b81526004810182905260248101879052604401610953565b604051632eec7b5560e11b8152600481018290526000907f00000000000000000000000000000000000000000000000000000000000000006001600160a01b031690635dd8f6aa90602401602060405180830381865afa158015611a4c573d6000803e3d6000fd5b505050506040513d601f19601f820116820180604052508101906107379190614dd9565b6000611a7a61306c565b905090565b80611a8f57611a8f8484846120f4565b50505050565b60405163ae74a1b560e01b81526001600160a01b0382811660048301526000917f00000000000000000000000000000000000000000000000000000000000000009091169063ae74a1b590602401602060405180830381865afa158015611b00573d6000803e3d6000fd5b505050506040513d601f19601f820116820180604052508101906107379190615075565b6000611b3c836103e8611b378186615428565b6130e1565b6116219084615116565b61eeed196001600160a01b03831601611b5e57505050565b611b726001600160a01b03831684836131b5565b505050565b60006001600160a01b03831661eeee14611b92576000611621565b50919050565b306001600160a01b03861603611bcb57611bc684848460006040518060200160405280600081525086612631565b610c84565b6000611bd78484611b77565b9050856001600160a01b0316639e6eec05828787876000886040518763ffffffff1660e01b8152600401611c0f9594939291906153da565b6000604051808303818588803b158015611c2857600080fd5b505af1158015611c3c573d6000803e3d6000fd5b5050505050505050505050565b306001600160a01b03871603611c7d57611c7785858530866040518060200160405280600081525087612d7f565b50611335565b6000611c898585611b77565b9050866001600160a01b031663fef4325782888888886000896040518863ffffffff1660e01b8152600401611cc39695949392919061543b565b60206040518083038185885af1158015611ce1573d6000803e3d6000fd5b50505050506040513d601f19601f820116820180604052508101906114e79190615329565b61eeed196001600160a01b03831601611d2857611d23838261323f565b611a8f565b306001600160a01b03851603611d4c57611d236001600160a01b03831684836132d6565b604051636eb1769f60e11b81526001600160a01b03858116600483015230602483015282919084169063dd62ed3e90604401602060405180830381865afa158015611d9b573d6000803e3d6000fd5b505050506040513d601f19601f82011682018060405250810190611dbf9190615329565b10611dd957611d236001600160a01b038316858584613335565b6001600160a01b03811115611e1157604051631999bf2f60e11b8152600481018290526001600160a01b036024820152604401610953565b604051631b63c28b60e11b81526001600160a01b0385811660048301528481166024830152828116604483015283811660648301527f000000000000000000000000000000000000000000000000000000000000000016906336c7851690608401600060405180830381600087803b158015611e8c57600080fd5b505af11580156114e7573d6000803e3d6000fd5b60008381526002602090815260408083206001600160a01b0386168452825280832080548251818502810185019093528083529192909190849084015b82821015611f3c5760008481526020908190206040805160608101825260028602909201805483526001908101546001600160a01b03811684860152600160a01b900465ffffffffffff16918301919091529083529092019101611edd565b50505060008681526002602090815260408083206001600160a01b03891684529091528120929350611f6f9291506146fa565b8051604051630862026560e41b8152600160048201526001600160a01b0385811660248301526000917f000000000000000000000000000000000000000000000000000000000000000090911690638620265090604401602060405180830381865afa158015611fe3573d6000803e3d6000fd5b505050506040513d601f19601f820116820180604052508101906120079190614dd9565b905060005b828110156120eb57600084828151811061202857612028614ffc565b602002602001015190508515801561204b575042816040015165ffffffffffff16115b156120ca5760008881526002602081815260408084206001600160a01b03808d1686529083528185208054600181810183559187529584902087519690950290940194855591850151939092018054949092015165ffffffffffff16600160a01b026001600160d01b03199094169216919091179190911790556120e3565b6120e188888360000151846020015187600161336e565b505b60010161200c565b50505050505050565b60006120fe611a70565b9050836001600160a01b0316816001600160a01b0316141580156121cd5750604051631a45b42760e11b81526001600160a01b0382811660048301528581166024830152604482018590526064820184905260016084830181905260a48301527f0000000000000000000000000000000000000000000000000000000000000000169063348b684e9060c401602060405180830381865afa1580156121a7573d6000803e3d6000fd5b505050506040513d601f19601f820116820180604052508101906121cb9190615075565b155b15611a8f57604051631326f75560e11b81526001600160a01b038086166004830152821660248201526044810184905260648101839052608401610953565b600061221661471b565b6000898152602081815260408083206001600160a01b038c811685529252808320905163060f2bdf60e31b81527f0000000000000000000000000000000000000000000000000000000000000000909216916330795ef891612281918e91908d908d90600401615487565b610140604051808303816000875af11580156122a1573d6000803e3d6000fd5b505050506040513d601f19601f820116820180604052508101906122c591906154ad565b90925090506122d5610e31611a70565b612301576122fc8a8a83886122f78761010001516001604f9190911c81161490565b613559565b612304565b60005b61230e9082615116565b925089826000015165ffffffffffff16836020015165ffffffffffff167fd836655d29bc0376acd403e1e5a574fc237f820c4717dd006e0c087dfafda56c89898d878a8c61235a611a70565b60405161236d97969594939291906154dc565b60405180910390a482156123875761238730878b86611d06565b5050979650505050505050565b6000858152602081815260408083206001600160a01b0388811685529252822054166123de5760405163765b60eb60e11b81526001600160a01b0386166004820152602401610953565b61eeed196001600160a01b038616016123f857503461120f565b341561241957604051633ad385fd60e01b8152346004820152602401610953565b600080612483612447604051806040016040528060078152602001663832b936b4ba1960c91b815250613720565b86868080601f01602080910402602001604051908101604052809392919081815260200183838082843760009201919091525061373492505050565b9150915081156125fd576000818060200190518101906124a39190615592565b905080602001516001600160a01b03168711156124eb5760208101516040516363f4ca5d60e11b8152600481018990526001600160a01b039091166024820152604401610953565b6040805160e0810182526001600160a01b03808b166060808401918252602086810151841660808601528686015165ffffffffffff90811660a08701529187015190911660c08501529083523090830152835192820192909252907f000000000000000000000000000000000000000000000000000000000000000016632b67b570612575611a70565b8385608001516040518463ffffffff1660e01b815260040161259993929190615641565b600060405180830381600087803b1580156125b357600080fd5b505af19250505080156125c4575060015b6125fa573d8080156125f2576040519150601f19603f3d011682016040523d82523d6000602084013e6125f7565b606091505b50505b50505b6000612608886138da565b905061261d612615611a70565b308a8a611d06565b80612627896138da565b6114579190615116565b60008361263f57600061264a565b61264a878787613962565b9050867f9ecaf7fc3dfffd6867c175d6e684b1f1e3aef019398ba8db2c1ffab4a09db2538683868661267a611a70565b60405161268b9594939291906156b5565b60405180910390a26001600160a01b037f0000000000000000000000000000000000000000000000000000000000000000166351fc173588886126ce858a615428565b6040516001600160e01b031960e086901b16815260048101939093526001600160a01b0390911660248301526044820152606401600060405180830381600087803b158015611c2857600080fd5b600061272661471b565b6000878152602081815260408083206001600160a01b038a8116855290835281842082516060808201855291549283168152600160a01b830460ff1681860152600160a81b90920463ffffffff16828401528b855260018452828520805484518187028101870190955280855291959492938593909290849084015b828210156127fc57600084815260209081902060408051606081018252918501546001600160a01b0381168352600160a01b810460ff1683850152600160a81b900463ffffffff16908201528252600190920191016127a2565b5050604051630d346b8160e01b8152929350506001600160a01b037f00000000000000000000000000000000000000000000000000000000000000001691630d346b819150612859908f908f908e90889088908f90600401615701565b6000604051808303816000875af1158015612878573d6000803e3d6000fd5b505050506040513d6000823e601f3d908101601f191682016040526128a09190810190615776565b91985091965094509250508715612934576128ba8a6119e4565b60405163516a997360e11b81526001600160a01b038d81166004830152602482018d9052604482018b90526080606483015260006084830152919091169063a2d532e69060a401600060405180830381600087803b15801561291b57600080fd5b505af115801561292f573d6000803e3d6000fd5b505050505b6000851561298f5761294588611a95565b15801561295457506127108314155b1561297d576129638682615428565b9050612970866019611b24565b61297a9087615116565b95505b851561298f5761298f30898c89611d06565b8351156129ee576129e18b60405180608001604052808d6001600160a01b03168152602001856020015160ff168152602001856040015163ffffffff168152602001898152508e8c8b8a898f8c613c9c565b6129eb9082615428565b90505b806000036129fd576000612a0b565b612a0b8b8b838b6000613559565b508a856000015165ffffffffffff16866020015165ffffffffffff167f9565fc8bdd4f45a73582d1163dbe522a4fb0c4dbb882b5e66269f70101a2509a8f8c8e898d8f612a56611a70565b604051612a6997969594939291906154dc565b60405180910390a450505050509695505050505050565b6000612a8a61471b565b6000868152602081815260408083206001600160a01b038981168552925291829020915163181241e760e31b81527f00000000000000000000000000000000000000000000000000000000000000009091169163c0920f3891612af5918a9189908990600401615487565b610140604051808303816000875af1158015612b15573d6000803e3d6000fd5b505050506040513d601f19601f82011682018060405250810190612b3991906154ad565b610100820151909350909150604e1c600190811603612be7576040516331a9108f60e11b815260048101879052612be7907f00000000000000000000000000000000000000000000000000000000000000006001600160a01b031690636352211e90602401602060405180830381865afa158015612bbb573d6000803e3d6000fd5b505050506040513d601f19601f82011682018060405250810190612bdf9190614dd9565b8760046120f4565b6040516331a9108f60e11b8152600481018790526000907f00000000000000000000000000000000000000000000000000000000000000006001600160a01b031690636352211e90602401602060405180830381865afa158015612c4f573d6000803e3d6000fd5b505050506040513d601f19601f82011682018060405250810190612c739190614dd9565b9050600080612c908989866020015165ffffffffffff1688613ef5565b90925090506000612cbc8a8a612ca68686615428565b6101008901518890604f1c600190811614613559565b905060008315612ce957612cd1846019611b24565b612cdb9085615116565b9050612ce930868c84611d06565b8a866000015165ffffffffffff16876020015165ffffffffffff167fda42c5c18ef97738d10c32811895add569670a6fcbe9627ea198d446f3be6dea888d8c8888612d32611a70565b604080516001600160a01b03978816815260208101969096528501939093526060840191909152608083015290911660a082015260c00160405180910390a4505050505050949350505050565b604080516080810182526000808252602082018190529181018290526060810182905260008060008b815260200190815260200160002060008a6001600160a01b03166001600160a01b031681526020019081526020016000206040518060600160405290816000820160009054906101000a90046001600160a01b03166001600160a01b03166001600160a01b031681526020016000820160149054906101000a900460ff1660ff1660ff1681526020016000820160159054906101000a900463ffffffff1663ffffffff1663ffffffff1681525050905060405180608001604052808a6001600160a01b03168152602001826020015160ff168152602001826040015163ffffffff1681526020018981525091505060008060007f00000000000000000000000000000000000000000000000000000000000000006001600160a01b031663c59dfadb8a868f8c8b6040518663ffffffff1660e01b8152600401612eef9594939291906158dc565b6000604051808303816000875af1158015612f0e573d6000803e3d6000fd5b505050506040513d6000823e601f3d908101601f19168201604052612f36919081019061591e565b92509250925081600014612fe157612f4d8c6119e4565b6040516363fdc96f60e11b8152600481018e9052602481018490526001600160a01b038a8116604483015260a06064830152600060a483015260016084830152919091169063c7fb92de9060c4016020604051808303816000875af1158015612fba573d6000803e3d6000fd5b505050506040513d601f19601f82011682018060405250810190612fde9190615329565b94505b8b836000015165ffffffffffff16846020015165ffffffffffff167f133161f1c9161488f777ab9a26aae91d47c0d9a3fafb398960f138db02c737978c8c8f8b8e8e61302b611a70565b60405161303e9796959493929190615a3d565b60405180910390a480511561305d5761305d8c82868c878d8b8d61409c565b50505050979650505050505050565b6000366014336001600160a01b037f0000000000000000000000000000000000000000000000000000000000000000161480156130a95750808210155b156130d9576000366130bb8385615116565b6130c6928290615a9d565b6130cf91615ac7565b60601c9250505090565b339250505090565b600080806000198587098587029250828110838203039150508060000361311b5783828161311157613111615afc565b0492505050611621565b83811061314c57604051630c740aef60e31b8152600481018790526024810186905260448101859052606401610953565b60008486880960026001871981018816978890046003810283188082028403028082028403028082028403028082028403028082028403029081029092039091026000889003889004909101858311909403939093029303949094049190911702949350505050565b604051636eb1769f60e11b81523060048201526001600160a01b0383811660248301526000919085169063dd62ed3e90604401602060405180830381865afa158015613205573d6000803e3d6000fd5b505050506040513d601f19601f820116820180604052508101906132299190615329565b9050611a8f848461323a8585615428565b614283565b804710156132625760405163cd78605960e01b8152306004820152602401610953565b6000826001600160a01b03168260405160006040518083038185875af1925050503d80600081146132af576040519150601f19603f3d011682016040523d82523d6000602084013e6132b4565b606091505b5050905080611b7257604051630a12f52160e11b815260040160405180910390fd5b6040516001600160a01b03838116602483015260448201839052611b7291859182169063a9059cbb906064015b604051602081830303815290604052915060e01b6020820180516001600160e01b03838183161783525050505061430f565b6040516001600160a01b038481166024830152838116604483015260648201839052611a8f9186918216906323b872dd90608401613303565b604051632fc8972b60e11b8152600481018790526001600160a01b038087166024830152604482018690528085166064830152831660848201523090635f912e569060a401600060405180830381600087803b1580156133cd57600080fd5b505af19250505080156133de575060015b6134f0573d80801561340c576040519150601f19603f3d011682016040523d82523d6000602084013e613411565b606091505b506001866001600160a01b0316887f4b73f3c5cfb174c9d0494138d07ff8ee3aa400df46327d9893ed5ac122dd558a888561344a611a70565b60405161345993929190615b12565b60405180910390a46040516351fc173560e01b8152600481018890526001600160a01b038781166024830152604482018790527f000000000000000000000000000000000000000000000000000000000000000016906351fc173590606401600060405180830381600087803b1580156134d257600080fd5b505af11580156134e6573d6000803e3d6000fd5b5050505050611335565b83856001600160a01b0316877fb514e730b3f8ad3aa94b6857bcc5ff4a46954bdcf8c4b0346705b1d0ac7a43258487613527611a70565b6040805193151584526001600160a01b03928316602085015291169082015260600160405180910390a4505050505050565b6000613566846019611b24565b905081156136795760008681526002602090815260408083206001600160a01b03808a1685529083529281902081516060810183528881529387169284019290925290919081016135ba6224ea0042615428565b65ffffffffffff908116909152825460018181018555600094855260209485902084516002909302019182559383015193018054604090930151909116600160a01b026001600160d01b03199092166001600160a01b039384161791909117905584908616877fef9cd8fc3b61b64b44042ada0a8a3ede1649bc1b112673da228120f13bf1381e60198761364c611a70565b604080519384526001600160a01b03928316602085015291169082015260600160405180910390a461120f565b604051630862026560e41b8152600160048201526001600160a01b0386811660248301526000917f000000000000000000000000000000000000000000000000000000000000000090911690638620265090604401602060405180830381865afa1580156136eb573d6000803e3d6000fd5b505050506040513d601f19601f8201168201806040525081019061370f9190614dd9565b905061120d8787848785600061336e565b805160208201206000903060601b18610737565b60006060602583511161375957505060408051602081019091526000808252906138d3565b60008361376860046020615428565b8151811061377857613778614ffc565b0160209081015160f81c91505b600085613793600484615428565b815181106137a3576137a3614ffc565b01602001516001600160f81b031916148015906137c957506137c6602083615b43565b81105b156138d0576000856137dc600484615428565b815181106137ec576137ec614ffc565b016020908101518784019091015160f89190911c91506001600160e01b0319808916908216036138c6576000613823602086615b43565b61382e600986615428565b101580613863575087613842600986615428565b8151811061385257613852614ffc565b01602001516001600160f81b031916155b61389c57602088613875600987615428565b8151811061388557613885614ffc565b0160200151613897919060f81c615b43565b61389f565b87515b905060016138b8896138b2602087615b43565b84614372565b9650965050505050506138d3565b5050600501613785565b50505b9250929050565b60006001600160a01b03821661eeee1461395b576040516370a0823160e01b81523060048201526001600160a01b038316906370a0823190602401602060405180830381865afa158015613932573d6000803e3d6000fd5b505050506040513d601f19601f820116820180604052508101906139569190615329565b610737565b4792915050565b60008381526002602090815260408083206001600160a01b0386168452825280832080548251818502810185019093528083528493849084015b828210156139fb5760008481526020908190206040805160608101825260028602909201805483526001908101546001600160a01b03811684860152600160a01b900465ffffffffffff1691830191909152908352909201910161399c565b50505060008781526002602090815260408083206001600160a01b038a1684529091528120929350613a2e9291506146fa565b8051839060005b81811015613c33576000848281518110613a5157613a51614ffc565b6020026020010151905083600003613adb5760008981526002602081815260408084206001600160a01b03808e16865290835281852080546001818101835591875295849020875196909502909401948555918501519390920180549285015165ffffffffffff16600160a01b026001600160d01b03199093169390911692909217179055613c2a565b6000613aec82600001516019611b24565b90506000818360000151613b009190615116565b9050808610613b1757968101969485900394613c27565b613b228660196143b8565b9150600260008c815260200190815260200160002060008b6001600160a01b03166001600160a01b031681526020019081526020016000206040518060600160405280888403815260200185602001516001600160a01b03168152602001856040015165ffffffffffff1681525090806001815401808255809150506001900390600052602060002090600202016000909190919091506000820151816000015560208201518160010160006101000a8154816001600160a01b0302191690836001600160a01b0316021790555060408201518160010160146101000a81548165ffffffffffff021916908365ffffffffffff16021790555050508188019750600095505b50505b50600101613a35565b5084866001600160a01b0316887fedc5125503c021a73fd7d8ed0c2456b296be2c88f39fbed068bd091cef7ca43d8786613c6b611a70565b6040805193845260208401929092526001600160a01b03169082015260600160405180910390a45050509392505050565b6000806040518061014001604052808a6001600160a01b031681526020018c8152602001876020015165ffffffffffff1681526020018981526020018b81526020018b8152602001868152602001856001600160a01b0316815260200160405180602001604052806000815250815260200188815250905060008351905060005b81811015613ee5576000858281518110613d3957613d39614ffc565b602002602001015190506000613d528260000151611a95565b613d6a57613d6582602001516019611b24565b613d6d565b60005b90508015613d9c576020820151613d849087615428565b95508082602001818151613d989190615116565b9052505b60405180608001604052808f600001516001600160a01b031681526020018f6020015160ff1681526020018f6040015163ffffffff16815260200183602001518152508560a001819052508160400151856101000181905250613e0c82600001518f600001518460200151611b46565b6000613e208f600001518460200151611b77565b8351604051631727f03960e01b81529192506001600160a01b031690631727f039908390613e52908a90600401615c05565b6000604051808303818588803b158015613e6b57600080fd5b505af1158015613e7f573d6000803e3d6000fd5b505050505082600001516001600160a01b03167f3dc4bcf15d77035ba58aff65ebae2b29daccddfc22b9dcf03638e3f727577b0587856020015185613ec2611a70565b604051613ed29493929190615c18565b60405180910390a2505050600101613d1d565b5050509998505050505050505050565b6040516369e11cc560e01b815260048101859052602481018390526001600160a01b0384811660448301526000918291633b9aca009183917f000000000000000000000000000000000000000000000000000000000000000016906369e11cc590606401600060405180830381865afa158015613f76573d6000803e3d6000fd5b505050506040513d6000823e601f3d908101601f19168201604052613f9e9190810190615c50565b805190915060005b8181101561408c576000838281518110613fc257613fc2614ffc565b602002602001015190506000613fe389836020015163ffffffff16886130e1565b90506000613ff3838e8e856143c7565b905080158015906140045750818114155b15614016576140138289615428565b97505b811561402257818a0399505b826020015163ffffffff16870396508b6001600160a01b03168b8e7f527d1f65cc7cbc5b19926d6b040f10ec7f946968eced5ecf248d2f4f2c28f5f6868686614069611a70565b6040516140799493929190615d61565b60405180910390a4505050600101613fa6565b5085945050505094509492505050565b6000604051806101400160405280876001600160a01b031681526020018a8152602001866020015165ffffffffffff1681526020018881526020018881526020018660a001516001600160701b03168152602001848152602001856001600160a01b0316815260200160405180602001604052806000815250815260200183815250905060008851905060005b81811015611c3c5760008a828151811061414557614145614ffc565b60209081029190910181015160408051608080820183528e516001600160a01b031682528e85015160ff16828601528e83015163ffffffff1682840152938301805160608301529388015281015161010087015280518c5192519193506141ad929091611b46565b60006141c18b600001518360200151611b77565b825160405163099bfcc360e11b81529192506001600160a01b031690631337f9869083906141f3908990600401615e25565b6000604051808303818588803b15801561420c57600080fd5b505af1158015614220573d6000803e3d6000fd5b505050505081600001516001600160a01b03167fb1ed2cd5f80d2005b57f16c4c1a1c8ee500b96725924cad83e44f32f05f400c0868460200151614262611a70565b60405161427193929190615e38565b60405180910390a25050600101614129565b604080516001600160a01b038416602482015260448082018490528251808303909101815260649091019091526020810180516001600160e01b031663095ea7b360e01b1790526142d4848261454d565b611a8f576040516001600160a01b0384811660248301526000604483015261430991869182169063095ea7b390606401613303565b611a8f84825b60006143246001600160a01b038416836145f0565b905080516000141580156143495750808060200190518101906143479190615075565b155b15611b7257604051635274afe760e01b81526001600160a01b0384166004820152602401610953565b60608282036040519150602081830101604052808252508260208501016020820160005b848110156143ae578281015182820152602001614396565b5050509392505050565b600061162183836103e86130e1565b600030634ff513ab868686866143db611a70565b6040518663ffffffff1660e01b81526004016143fb959493929190615e6b565b6020604051808303816000875af1925050508015614436575060408051601f3d908101601f1916820190925261443391810190615329565b60015b614542573d808015614464576040519150601f19603f3d011682016040523d82523d6000602084013e614469565b606091505b50847f7d1404acd9b8028cb88963a50aeeb83774d101e993a7fd89967afbc2d94c33fb878584614497611a70565b6040516144a79493929190615eaa565b60405180910390a26040516351fc173560e01b8152600481018690526001600160a01b038581166024830152604482018590527f000000000000000000000000000000000000000000000000000000000000000016906351fc173590606401600060405180830381600087803b15801561452057600080fd5b505af1158015614534573d6000803e3d6000fd5b505050506000915050614545565b90505b949350505050565b6000806000846001600160a01b03168460405161456a9190615eec565b6000604051808303816000865af19150503d80600081146145a7576040519150601f19603f3d011682016040523d82523d6000602084013e6145ac565b606091505b50915091508180156145d65750805115806145d65750808060200190518101906145d69190615075565b801561120f5750505050506001600160a01b03163b151590565b60606116218383600084600080856001600160a01b031684866040516146169190615eec565b60006040518083038185875af1925050503d8060008114614653576040519150601f19603f3d011682016040523d82523d6000602084013e614658565b606091505b5091509150614668868383614672565b9695505050505050565b60608261468757614682826146ce565b611621565b815115801561469e57506001600160a01b0384163b155b156146c757604051639996b31560e01b81526001600160a01b0385166004820152602401610953565b5080611621565b8051156146de5780518082602001fd5b604051630a12f52160e11b815260040160405180910390fd5b50565b50805460008255600202906000526020600020908101906146f79190614767565b6040805161012081018252600080825260208201819052918101829052606081018290526080810182905260a0810182905260c0810182905260e0810182905261010081019190915290565b5b8082111561478e57600081556001810180546001600160d01b0319169055600201614768565b5090565b6000602082840312156147a457600080fd5b81356001600160e01b03198116811461162157600080fd5b6000806000604084860312156147d157600080fd5b8335925060208401356001600160401b03808211156147ef57600080fd5b818601915086601f83011261480357600080fd5b81358181111561481257600080fd5b87602060608302850101111561482757600080fd5b6020830194508093505050509250925092565b6001600160a01b03811681146146f757600080fd5b6000806040838503121561486257600080fd5b8235915060208301356148748161483a565b809150509250929050565b602080825282518282018190526000919060409081850190868401855b828110156148dc57815180518552868101516001600160a01b03168786015285015165ffffffffffff16858501526060909301929085019060010161489c565b5091979650505050505050565b80516001600160a01b0316825260208082015160ff169083015260409081015163ffffffff16910152565b6060810161073782846148e9565b600080600080600085870361014081121561493c57600080fd5b60c081121561494a57600080fd5b5085945060c0860135935060e08601356149638161483a565b9250610100860135915061012086013561497c8161483a565b809150509295509295909350565b60006020828403121561499c57600080fd5b5035919050565b60008151808452602080850194506020840160005b838110156149de576149cb8783516148e9565b60609690960195908201906001016149b8565b509495945050505050565b60208152600061162160208301846149a3565b600060208284031215614a0e57600080fd5b81356116218161483a565b600080600080600060a08688031215614a3157600080fd5b853594506020860135614a438161483a565b9350604086013592506060860135614a5a8161483a565b9150608086013561497c8161483a565b60008083601f840112614a7c57600080fd5b5081356001600160401b03811115614a9357600080fd5b6020830191508360208285010111156138d357600080fd5b60008060008060008060008060006101008a8c031215614aca57600080fd5b8935985060208a0135614adc8161483a565b975060408a0135965060608a0135955060808a0135945060a08a0135614b018161483a565b935060c08a0135614b118161483a565b925060e08a01356001600160401b03811115614b2c57600080fd5b614b388c828d01614a6a565b915080935050809150509295985092959850929598565b80151581146146f757600080fd5b60008060008060008060008060c0898b031215614b7957600080fd5b883597506020890135614b8b8161483a565b9650604089013595506060890135614ba281614b4f565b945060808901356001600160401b0380821115614bbe57600080fd5b614bca8c838d01614a6a565b909650945060a08b0135915080821115614be357600080fd5b50614bf08b828c01614a6a565b999c989b5096995094979396929594505050565b60008060008060008060008060e0898b031215614c2057600080fd5b8835614c2b8161483a565b9750602089013596506040890135614c428161483a565b9550606089013594506080890135935060a0890135614c608161483a565b925060c08901356001600160401b03811115614c7b57600080fd5b614bf08b828c01614a6a565b600080600060608486031215614c9c57600080fd5b505081359360208301359350604090920135919050565b600080600080600060a08688031215614ccb57600080fd5b853594506020860135614cdd8161483a565b94979496505050506040830135926060810135926080909101359150565b600080600060608486031215614d1057600080fd5b833592506020840135614d228161483a565b91506040840135614d328161483a565b809150509250925092565b600080600080600080600080600060e08a8c031215614d5b57600080fd5b8935985060208a0135614d6d8161483a565b975060408a0135965060608a0135614d848161483a565b955060808a0135945060a08a01356001600160401b0380821115614da757600080fd5b614db38d838e01614a6a565b909650945060c08c0135915080821115614dcc57600080fd5b50614b388c828d01614a6a565b600060208284031215614deb57600080fd5b81516116218161483a565b634e487b7160e01b600052604160045260246000fd5b60405161012081016001600160401b0381118282101715614e2f57614e2f614df6565b60405290565b604051606081016001600160401b0381118282101715614e2f57614e2f614df6565b60405160c081016001600160401b0381118282101715614e2f57614e2f614df6565b60405160a081016001600160401b0381118282101715614e2f57614e2f614df6565b604051601f8201601f191681016001600160401b0381118282101715614ec357614ec3614df6565b604052919050565b65ffffffffffff811681146146f757600080fd5b8051614eea81614ecb565b919050565b63ffffffff811681146146f757600080fd5b8051614eea81614eef565b80516001600160701b0381168114614eea57600080fd5b8051614eea8161483a565b60006101208284031215614f4157600080fd5b614f49614e0c565b9050614f5482614edf565b8152614f6260208301614edf565b6020820152614f7360408301614edf565b6040820152614f8460608301614edf565b6060820152614f9560808301614f01565b6080820152614fa660a08301614f0c565b60a0820152614fb760c08301614f01565b60c0820152614fc860e08301614f23565b60e082015261010080830151818301525092915050565b60006101208284031215614ff257600080fd5b6116218383614f2e565b634e487b7160e01b600052603260045260246000fd5b60ff811681146146f757600080fd5b60006060828403121561503357600080fd5b61503b614e35565b82356150468161483a565b8152602083013561505681615012565b6020820152604083013561506981614eef565b60408201529392505050565b60006020828403121561508757600080fd5b815161162181614b4f565b6000602082840312156150a457600080fd5b815161162181615012565b546001600160a01b038116825260a081901c60ff16602083015260a81c63ffffffff16604090910152565b608081016150e882856150af565b6001600160a01b039290921660609190910152919050565b634e487b7160e01b600052601160045260246000fd5b8181038181111561073757610737615100565b66ffffffffffffff811681146146f757600080fd5b600060c0828403121561515057600080fd5b615158614e57565b823561516381614b4f565b8152602083013561517381614eef565b6020820152604083013561518681615129565b604082015260608301356151998161483a565b606082015260808301356151ac81614ecb565b608082015260a08301356151bf8161483a565b60a08201529392505050565b80511515825260208082015163ffffffff169083015260408082015166ffffffffffffff16908301526060808201516001600160a01b039081169184019190915260808083015165ffffffffffff169084015260a09182015116910152565b81516001600160a01b031681526020808301519082015260408083015190820152606080830151908201526080808301519082015260a082810151610160830191615277908401826151cb565b5092915050565b60006020828403121561529057600080fd5b813561162181615129565b6000602082840312156152ad57600080fd5b813561162181614b4f565b6001600160a01b0386168152602080820186905260a060408301819052855490830181905260008681529182209060c0840190835b81811015615312576152ff83856150af565b60019384019360609390930192016152ed565b505060608401959095525050608001529392505050565b60006020828403121561533b57600080fd5b5051919050565b60006060828403121561535457600080fd5b61535c614e35565b82516153678161483a565b8152602083015161537781615012565b6020820152604083015161506981614eef565b60005b838110156153a557818101518382015260200161538d565b50506000910152565b600081518084526153c681602086016020860161538a565b601f01601f19169290920160200192915050565b85815260018060a01b0385166020820152836040820152821515606082015260c06080820152600060c082015260e060a0820152600061541d60e08301846153ae565b979650505050505050565b8082018082111561073757610737615100565b868152600060018060a01b03808816602084015286604084015280861660608401525083608083015260e060a0830152600060e08301526101008060c0840152611457818401856153ae565b84815260c0810161549b60208301866150af565b608082019390935260a0015292915050565b60008061014083850312156154c157600080fd5b6154cb8484614f2e565b915061012083015190509250929050565b600060018060a01b03808a168352808916602084015287604084015286606084015285608084015260e060a084015261551860e08401866153ae565b915080841660c08401525098975050505050505050565b600082601f83011261554057600080fd5b81516001600160401b0381111561555957615559614df6565b61556c601f8201601f1916602001614e9b565b81815284602083860101111561558157600080fd5b61454582602083016020870161538a565b6000602082840312156155a457600080fd5b81516001600160401b03808211156155bb57600080fd5b9083019060a082860312156155cf57600080fd5b6155d7614e79565b8251815260208301516155e98161483a565b602082015260408301516155fc81614ecb565b6040820152606083015161560f81614ecb565b606082015260808301518281111561562657600080fd5b6156328782860161552f565b60808301525095945050505050565b600061010060018060a01b0380871684528551818151166020860152816020820151166040860152604081015165ffffffffffff80821660608801528060608401511660808801525050508060208701511660a085015250604085015160c08401528060e0840152614668818401856153ae565b85815284602082015260a0604082015260006156d460a08301866153ae565b82810360608401526156e681866153ae565b91505060018060a01b03831660808301529695505050505050565b6001600160a01b03871681526020810186905260408101859052600061010061572d60608401876148e9565b8060c084015261573f818401866149a3565b905082810360e084015261145781856153ae565b60006001600160401b0382111561576c5761576c614df6565b5060051b60200190565b600080600080610180858703121561578d57600080fd5b6157978686614f2e565b9350610120850151925061014085015191506101608501516001600160401b03808211156157c457600080fd5b818701915087601f8301126157d857600080fd5b81516157eb6157e682615753565b614e9b565b8082825260208201915060208360051b86010192508a83111561580d57600080fd5b602085015b838110156158975780518581111561582957600080fd5b86016060818e03601f1901121561583f57600080fd5b615847614e35565b60208201516158558161483a565b81526040820151602082015260608201518781111561587357600080fd5b6158828f60208386010161552f565b60408301525084525060209283019201615812565b50979a9699509497505050505050565b80516001600160a01b0316825260208082015160ff169083015260408082015163ffffffff1690830152606090810151910152565b6001600160a01b038681168252600090610100906158fd60208501896158a7565b8660a085015280861660c0850152508060e0840152611570818401856153ae565b6000806000610160848603121561593457600080fd5b61593e8585614f2e565b925061012084015191506101408401516001600160401b038082111561596357600080fd5b818601915086601f83011261597757600080fd5b815160206159876157e683615753565b82815260059290921b8401810191818101908a8411156159a657600080fd5b8286015b84811015615a2c578051868111156159c157600080fd5b87016060818e03601f190112156159d757600080fd5b6159df614e35565b858201516159ec8161483a565b8152604082015186820152606082015188811115615a0a5760008081fd5b615a188f888386010161552f565b6040830152508452509183019183016159aa565b508096505050505050509250925092565b600060018060a01b03808a168352808916602084015287604084015286606084015260e06080840152615a7360e08401876153ae565b83810360a0850152615a8581876153ae565b92505080841660c08401525098975050505050505050565b60008085851115615aad57600080fd5b83861115615aba57600080fd5b5050820193919092039150565b6bffffffffffffffffffffffff198135818116916014851015615af45780818660140360031b1b83161692505b505092915050565b634e487b7160e01b600052601260045260246000fd5b838152606060208201526000615b2b60608301856153ae565b905060018060a01b0383166040830152949350505050565b808202811582820484141761073757610737615100565b80516001600160a01b0316825260006102006020830151602085015260408301516040850152606083015160608501526080830151615b9c60808601826158a7565b5060a0830151610100615bb1818701836158a7565b60c085015161018087015260e08501516001600160a01b03166101a08701528401516101c086018390529050615be9828601826153ae565b9150506101208301518482036101e086015261120f82826153ae565b6020815260006116216020830184615b5a565b608081526000615c2b6080830187615b5a565b60208301959095525060408101929092526001600160a01b0316606090910152919050565b60006020808385031215615c6357600080fd5b82516001600160401b03811115615c7957600080fd5b8301601f81018513615c8a57600080fd5b8051615c986157e682615753565b81815260c09182028301840191848201919088841115615cb757600080fd5b938501935b83851015615d555780858a031215615cd45760008081fd5b615cdc614e57565b8551615ce781614b4f565b815285870151615cf681614eef565b81880152604086810151615d0981615129565b90820152606086810151615d1c8161483a565b90820152608086810151615d2f81614ecb565b9082015260a086810151615d428161483a565b9082015283529384019391850191615cbc565b50979650505050505050565b6101208101615d7082876151cb565b60c082019490945260e08101929092526001600160a01b031661010090910152919050565b80516001600160a01b03168252600061020060208301516020850152604083015160408501526060830151615dcd60608601826158a7565b506080830151615de060e08601826158a7565b5060a083015161016085015260c083015161018085015260e08301516001600160a01b03166101a08501526101008301516101c08501829052615be9828601826153ae565b6020815260006116216020830184615d95565b606081526000615e4b6060830186615d95565b6020830194909452506001600160a01b0391909116604090910152919050565b6101408101615e7a82886151cb565b60c08201959095526001600160a01b0393841660e082015261010081019290925290911661012090910152919050565b6000610120615eb983886151cb565b8560c08401528060e0840152615ed1818401866153ae565b91505060018060a01b03831661010083015295945050505050565b60008251615efe81846020870161538a565b919091019291505056fea26469706673582212202516ee62d3e9799ad18a5e3caf331c6fccaf68c5aaec1e30bf6e53dd8345791664736f6c63430008170033",
	"deployedBytecode": "0x6080604052600436106101815760003560e01c80636afdd850116100d1578063c57981b51161008a578063d4a1b4b111610064578063d4a1b4b1146105af578063e28b5411146105e3578063f434c91414610603578063fef432571461063757600080fd5b8063c57981b51461055a578063cc6801271461056f578063cfaf58391461058f57600080fd5b80636afdd8501461046c578063748e821c146104a05780637da0a877146104c057806388bc2ef3146104f35780639e6eec0514610527578063bb7214fe1461053a57600080fd5b80634ff513ab1161013e578063572b6c0511610118578063572b6c05146103ab5780635f912e56146103f857806362ef303614610418578063659a20471461043857600080fd5b80634ff513ab1461031c578063507f14651461034a578063515a92931461037e57600080fd5b806301ffc9a7146101865780631f47ce69146101bb578063253721c814610207578063293c49991461022957806333b306101461025d5780633a01714f1461028a575b600080fd5b34801561019257600080fd5b506101a66101a1366004614792565b61064a565b60405190151581526020015b60405180910390f35b3480156101c757600080fd5b506101ef7f0000000000000000000000000eecf21dfc9265e25b81f384993a40e351f897fe81565b6040516001600160a01b0390911681526020016101b2565b34801561021357600080fd5b506102276102223660046147bc565b61073d565b005b34801561023557600080fd5b506101ef7f000000000000000000000000ecb62030e30bb027f672f24692111492ba2bbc8481565b34801561026957600080fd5b5061027d61027836600461484f565b610c8b565b6040516101b2919061487f565b34801561029657600080fd5b5061030f6102a536600461484f565b6040805160608082018352600080835260208084018290529284018190529485528482528285206001600160a01b03948516865282529382902082519485018352549283168452600160a01b830460ff1690840152600160a81b90910463ffffffff169082015290565b6040516101b29190614914565b34801561032857600080fd5b5061033c610337366004614922565b610d35565b6040519081526020016101b2565b34801561035657600080fd5b506101ef7f000000000000000000000000f36a63951a49a9708f007f23b077751be80ffe1181565b34801561038a57600080fd5b5061039e61039936600461498a565b611218565b6040516101b291906149e9565b3480156103b757600080fd5b506101a66103c63660046149fc565b7f000000000000000000000000b2b5841dbef766d4b521221732f9b618fcf34a876001600160a01b0390811691161490565b34801561040457600080fd5b50610227610413366004614a19565b6112b2565b34801561042457600080fd5b5061022761043336600461484f565b61133d565b34801561044457600080fd5b506101ef7f000000000000000000000000c1490c2759eda9afde3e6babf66367407f2cb01081565b34801561047857600080fd5b506101ef7f000000000000000000000000000000000022d473030f116ddee9f6b43ac78ba381565b3480156104ac57600080fd5b5061033c6104bb366004614aab565b61134d565b3480156104cc57600080fd5b507f000000000000000000000000b2b5841dbef766d4b521221732f9b618fcf34a876101ef565b3480156104ff57600080fd5b506101ef7f000000000000000000000000e0b2860344ba476e12ed1d559656da9d04f1ad2281565b610227610535366004614b5d565b611464565b34801561054657600080fd5b5061033c610555366004614c04565b6114f1565b34801561056657600080fd5b5061033c601981565b34801561057b57600080fd5b5061033c61058a366004614c87565b61157c565b34801561059b57600080fd5b5061033c6105aa366004614cb3565b611628565b3480156105bb57600080fd5b506101ef7f0000000000000000000000008de478a6071ad66bf99c770aea0cedcddda72f4381565b3480156105ef57600080fd5b5061033c6105fe366004614cfb565b611663565b34801561060f57600080fd5b506101ef7f0000000000000000000000004cdb4200e4e65a277676cd5e8d3c7c7c4da7fbe581565b61033c610645366004614d3d565b61192a565b60006001600160e01b03198216633a1909d760e01b148061067b57506001600160e01b03198216633d0d324560e21b145b8061069557506001600160e01b031982166201549760e41b145b806106b057506001600160e01b03198216635db90a7f60e11b145b806106cb57506001600160e01b0319821663bb21da2560e01b145b806106e657506001600160e01b031982166306afdd8560e41b145b8061070157506001600160e01b03198216633a1909d760e01b145b8061071c57506001600160e01b03198216633c6fe5f560e21b145b8061073757506001600160e01b031982166301ffc9a760e01b145b92915050565b6040516331a9108f60e11b8152600481018490526107f6907f000000000000000000000000ecb62030e30bb027f672f24692111492ba2bbc846001600160a01b031690636352211e90602401602060405180830381865afa1580156107a6573d6000803e3d6000fd5b505050506040513d601f19601f820116820180604052508101906107ca9190614dd9565b8460136107d6826119e4565b6001600160a01b03166107e7611a70565b6001600160a01b031614611a7f565b6040516321d1336160e11b8152600481018490526000907f0000000000000000000000008de478a6071ad66bf99c770aea0cedcddda72f436001600160a01b0316906343a266c29060240161012060405180830381865afa15801561085f573d6000803e3d6000fd5b505050506040513d601f19601f820116820180604052508101906108839190614fdf565b9050806020015165ffffffffffff166000141580156108ae5750610100810151604b1c600190811614155b156108cc576040516308034a2d60e21b815260040160405180910390fd5b60005b82811015610c845760008484838181106108eb576108eb614ffc565b9050606002018036038101906109019190615021565b60008781526020818152604080832084516001600160a01b0390811685529252909120805492935091161561095c5780546040516307295c0160e21b81526001600160a01b0390911660048201526024015b60405180910390fd5b81516000906001600160a01b031661eeee1480156109825750826020015160ff16601214155b1561098f57506001610a99565b82516001600160a01b031661eeee14610a995782516040516301ffc9a760e01b815263a219a02560e01b60048201526001600160a01b03909116906301ffc9a790602401602060405180830381865afa925050508015610a0c575060408051601f3d908101601f19168201909252610a0991810190615075565b60015b15610a9957808015610a8d575083600001516001600160a01b031663313ce5676040518163ffffffff1660e01b8152600401602060405180830381865afa158015610a5b573d6000803e3d6000fd5b505050506040513d601f19601f82011682018060405250810190610a7f9190615092565b60ff16846020015160ff1614155b15610a9757600191505b505b8015610ab85760405163104a127760e21b815260040160405180910390fd5b826040015163ffffffff16600003610ae357604051633c94d15b60e01b815260040160405180910390fd5b82600001518260000160006101000a8154816001600160a01b0302191690836001600160a01b0316021790555082602001518260000160146101000a81548160ff021916908360ff16021790555082604001518260000160156101000a81548163ffffffff021916908363ffffffff1602179055506001600089815260200190815260200160002082908060018154018082558091505060019003906000526020600020016000909190919091506000820160009054906101000a90046001600160a01b03168160000160006101000a8154816001600160a01b0302191690836001600160a01b031602179055506000820160149054906101000a900460ff168160000160146101000a81548160ff021916908360ff1602179055506000820160159054906101000a900463ffffffff168160000160156101000a81548163ffffffff021916908363ffffffff1602179055505050877fec91efc21eddd12fa66398fea3251c0e0b95bc53f0cdde2cd2c52e94bf11e07883610c63611a70565b604051610c719291906150da565b60405180910390a25050506001016108cf565b5050505050565b60008281526002602090815260408083206001600160a01b03851684528252808320805482518185028101850190935280835260609492939192909184015b82821015610d295760008481526020908190206040805160608101825260028602909201805483526001908101546001600160a01b03811684860152600160a01b900465ffffffffffff16918301919091529083529092019101610cca565b50505050905092915050565b6000333014610d4357600080fd5b50816000610d5760c0880160a089016149fc565b6001600160a01b031614610f5757610d7560c0870160a088016149fc565b6040516301ffc9a760e01b815262dcdc5760e41b60048201526001600160a01b0391909116906301ffc9a790602401602060405180830381865afa158015610dc1573d6000803e3d6000fd5b505050506040513d601f19601f82011682018060405250810190610de59190615075565b610e1e57610df960c0870160a088016149fc565b6040516347dfdccf60e11b81526001600160a01b039091166004820152602401610953565b610e36610e3160c0880160a089016149fc565b611a95565b610e5257610e45836019611b24565b610e4f9082615116565b90505b6040805160c0810182526001600160a01b0386168082526020808301859052600089815280825284812083825290915283812054600160a01b900460ff169383019390935260608201889052608082015260a08101610eb6368a90038a018a61513e565b90529050610ed4610ecd60c0890160a08a016149fc565b8684611b46565b6000610ee08684611b77565b9050610ef260c0890160a08a016149fc565b6001600160a01b0316630dcdc57082846040518363ffffffff1660e01b8152600401610f1e919061522a565b6000604051808303818588803b158015610f3757600080fd5b505af1158015610f4b573d6000803e3d6000fd5b5050505050505061120f565b610f67606087016040880161527e565b66ffffffffffffff16156111a35760006001600160a01b037f000000000000000000000000e0b2860344ba476e12ed1d559656da9d04f1ad22166386202650610fb660608a0160408b0161527e565b6040516001600160e01b031960e084901b16815266ffffffffffffff90911660048201526001600160a01b0388166024820152604401602060405180830381865afa158015611009573d6000803e3d6000fd5b505050506040513d601f19601f8201168201806040525081019061102d9190614dd9565b90506001600160a01b0381166110815761104d606088016040890161527e565b60405163ea4f4b6160e01b815266ffffffffffffff90911660048201526001600160a01b0386166024820152604401610953565b6001600160a01b03811630148015906110a0575061109e81611a95565b155b156110bd576110b0846019611b24565b6110ba9083615116565b91505b6001600160a01b03811630146110d8576110d8818684611b46565b6000866040516020016110ed91815260200190565b60408051601f19818403018152919052905061110c602089018961529b565b1561113b576111368261112560608b0160408c0161527e565b66ffffffffffffff16888685611b98565b61119c565b60008061114e60808b0160608c016149fc565b6001600160a01b0316036111625784611172565b61117260808a0160608b016149fc565b905061119a8361118860608c0160408d0161527e565b66ffffffffffffff1689878587611c49565b505b505061120f565b6000806111b66080890160608a016149fc565b6001600160a01b0316036111ca57826111da565b6111da60808801606089016149fc565b90506111e581611a95565b611201576111f4846019611b24565b6111fe9083615116565b91505b61120d30828785611d06565b505b95945050505050565b606060016000838152602001908152602001600020805480602002602001604051908101604052809291908181526020016000905b828210156112a757600084815260209081902060408051606081018252918501546001600160a01b0381168352600160a01b810460ff1683850152600160a81b900463ffffffff169082015282526001909201910161124d565b505050509050919050565b3330146112be57600080fd5b6001600160a01b0381166112e557604051630692dd3560e01b815260040160405180910390fd5b6001600160a01b038116301461130057611300818585611b46565b60008560405160200161131591815260200190565b604051602081830303815290604052905061133582600187878786611c49565b505050505050565b61134982826000611ea0565b5050565b6040516331a9108f60e11b8152600481018a90526000906113e5906001600160a01b037f000000000000000000000000ecb62030e30bb027f672f24692111492ba2bbc841690636352211e90602401602060405180830381865afa1580156113b9573d6000803e3d6000fd5b505050506040513d601f19601f820116820180604052508101906113dd9190614dd9565b8b60106120f4565b61142a8a8a8a8a898989898080601f01602080910402602001604051908101604052809392919081815260200183838082843760009201919091525061220c92505050565b905085811015611457576040516332eb01cf60e21b81526004810182905260248101879052604401610953565b9998505050505050505050565b6114e788886114768b8b8b8888612394565b8888888080601f01602080910402602001604051908101604052809392919081815260200183838082843760009201919091525050604080516020601f8c018190048102820181019092528a815292508a915089908190840183828082843760009201919091525061263192505050565b5050505050505050565b60006114ff898960036120f4565b611543898989898888888080601f01602080910402602001604051908101604052809392919081815260200183838082843760009201919091525061271c92505050565b905084811015611570576040516353004fd560e01b81526004810182905260248101869052604401610953565b98975050505050505050565b600083815260016020526040808220905163d60d1a0960e01b81526001600160a01b037f000000000000000000000000f36a63951a49a9708f007f23b077751be80ffe11169163d60d1a09916115dd913091899190899089906004016152b8565b602060405180830381865afa1580156115fa573d6000803e3d6000fd5b505050506040513d601f19601f8201168201806040525081019061161e9190615329565b90505b9392505050565b600061163686868686612a80565b90508181101561120f576040516332eb01cf60e21b81526004810182905260248101839052604401610953565b6040516331a9108f60e11b8152600481018490526000906116fb906001600160a01b037f000000000000000000000000ecb62030e30bb027f672f24692111492ba2bbc841690636352211e90602401602060405180830381865afa1580156116cf573d6000803e3d6000fd5b505050506040513d601f19601f820116820180604052508101906116f39190614dd9565b8560056120f4565b604051633a01714f60e01b8152600481018590526001600160a01b038481166024830152831690633a01714f90604401606060405180830381865afa158015611748573d6000803e3d6000fd5b505050506040513d601f19601f8201168201806040525081019061176c9190615342565b6040015163ffffffff166000036117965760405163aaf52f1f60e01b815260040160405180910390fd5b6040516319781e2360e01b8152600481018590526001600160a01b0384811660248301527f000000000000000000000000f36a63951a49a9708f007f23b077751be80ffe1116906319781e23906044016020604051808303816000875af1158015611805573d6000803e3d6000fd5b505050506040513d601f19601f820116820180604052508101906118299190615329565b9050816001600160a01b0316836001600160a01b0316857ff0aa72bb9c2a07cf43281bfe8c525ba320fdc71e18b54c9f93ab22ce074af7f68461186a611a70565b604080519283526001600160a01b0390911660208301520160405180910390a4801561191e5761189b828483611b46565b60006118a78483611b77565b6040805160208101825260008082529151639e6eec0560e01b81529293506001600160a01b03861692639e6eec059285926118ea928b928b928a926004016153da565b6000604051808303818588803b15801561190357600080fd5b505af1158015611917573d6000803e3d6000fd5b5050505050505b61162184846001611ea0565b60006119b78a8a61193e8d8d8d8989612394565b611946611a70565b8b8a8a8080601f01602080910402602001604051908101604052809392919081815260200183838082843760009201919091525050604080516020601f8e018190048102820181019092528c815292508c91508b9081908401838280828437600092019190915250612d7f92505050565b9050858110156114575760405163c3de539b60e01b81526004810182905260248101879052604401610953565b604051632eec7b5560e11b8152600481018290526000907f000000000000000000000000e0b2860344ba476e12ed1d559656da9d04f1ad226001600160a01b031690635dd8f6aa90602401602060405180830381865afa158015611a4c573d6000803e3d6000fd5b505050506040513d601f19601f820116820180604052508101906107379190614dd9565b6000611a7a61306c565b905090565b80611a8f57611a8f8484846120f4565b50505050565b60405163ae74a1b560e01b81526001600160a01b0382811660048301526000917f000000000000000000000000c1490c2759eda9afde3e6babf66367407f2cb0109091169063ae74a1b590602401602060405180830381865afa158015611b00573d6000803e3d6000fd5b505050506040513d601f19601f820116820180604052508101906107379190615075565b6000611b3c836103e8611b378186615428565b6130e1565b6116219084615116565b61eeed196001600160a01b03831601611b5e57505050565b611b726001600160a01b03831684836131b5565b505050565b60006001600160a01b03831661eeee14611b92576000611621565b50919050565b306001600160a01b03861603611bcb57611bc684848460006040518060200160405280600081525086612631565b610c84565b6000611bd78484611b77565b9050856001600160a01b0316639e6eec05828787876000886040518763ffffffff1660e01b8152600401611c0f9594939291906153da565b6000604051808303818588803b158015611c2857600080fd5b505af1158015611c3c573d6000803e3d6000fd5b5050505050505050505050565b306001600160a01b03871603611c7d57611c7785858530866040518060200160405280600081525087612d7f565b50611335565b6000611c898585611b77565b9050866001600160a01b031663fef4325782888888886000896040518863ffffffff1660e01b8152600401611cc39695949392919061543b565b60206040518083038185885af1158015611ce1573d6000803e3d6000fd5b50505050506040513d601f19601f820116820180604052508101906114e79190615329565b61eeed196001600160a01b03831601611d2857611d23838261323f565b611a8f565b306001600160a01b03851603611d4c57611d236001600160a01b03831684836132d6565b604051636eb1769f60e11b81526001600160a01b03858116600483015230602483015282919084169063dd62ed3e90604401602060405180830381865afa158015611d9b573d6000803e3d6000fd5b505050506040513d601f19601f82011682018060405250810190611dbf9190615329565b10611dd957611d236001600160a01b038316858584613335565b6001600160a01b03811115611e1157604051631999bf2f60e11b8152600481018290526001600160a01b036024820152604401610953565b604051631b63c28b60e11b81526001600160a01b0385811660048301528481166024830152828116604483015283811660648301527f000000000000000000000000000000000022d473030f116ddee9f6b43ac78ba316906336c7851690608401600060405180830381600087803b158015611e8c57600080fd5b505af11580156114e7573d6000803e3d6000fd5b60008381526002602090815260408083206001600160a01b0386168452825280832080548251818502810185019093528083529192909190849084015b82821015611f3c5760008481526020908190206040805160608101825260028602909201805483526001908101546001600160a01b03811684860152600160a01b900465ffffffffffff16918301919091529083529092019101611edd565b50505060008681526002602090815260408083206001600160a01b03891684529091528120929350611f6f9291506146fa565b8051604051630862026560e41b8152600160048201526001600160a01b0385811660248301526000917f000000000000000000000000e0b2860344ba476e12ed1d559656da9d04f1ad2290911690638620265090604401602060405180830381865afa158015611fe3573d6000803e3d6000fd5b505050506040513d601f19601f820116820180604052508101906120079190614dd9565b905060005b828110156120eb57600084828151811061202857612028614ffc565b602002602001015190508515801561204b575042816040015165ffffffffffff16115b156120ca5760008881526002602081815260408084206001600160a01b03808d1686529083528185208054600181810183559187529584902087519690950290940194855591850151939092018054949092015165ffffffffffff16600160a01b026001600160d01b03199094169216919091179190911790556120e3565b6120e188888360000151846020015187600161336e565b505b60010161200c565b50505050505050565b60006120fe611a70565b9050836001600160a01b0316816001600160a01b0316141580156121cd5750604051631a45b42760e11b81526001600160a01b0382811660048301528581166024830152604482018590526064820184905260016084830181905260a48301527f0000000000000000000000004cdb4200e4e65a277676cd5e8d3c7c7c4da7fbe5169063348b684e9060c401602060405180830381865afa1580156121a7573d6000803e3d6000fd5b505050506040513d601f19601f820116820180604052508101906121cb9190615075565b155b15611a8f57604051631326f75560e11b81526001600160a01b038086166004830152821660248201526044810184905260648101839052608401610953565b600061221661471b565b6000898152602081815260408083206001600160a01b038c811685529252808320905163060f2bdf60e31b81527f000000000000000000000000f36a63951a49a9708f007f23b077751be80ffe11909216916330795ef891612281918e91908d908d90600401615487565b610140604051808303816000875af11580156122a1573d6000803e3d6000fd5b505050506040513d601f19601f820116820180604052508101906122c591906154ad565b90925090506122d5610e31611a70565b612301576122fc8a8a83886122f78761010001516001604f9190911c81161490565b613559565b612304565b60005b61230e9082615116565b925089826000015165ffffffffffff16836020015165ffffffffffff167fd836655d29bc0376acd403e1e5a574fc237f820c4717dd006e0c087dfafda56c89898d878a8c61235a611a70565b60405161236d97969594939291906154dc565b60405180910390a482156123875761238730878b86611d06565b5050979650505050505050565b6000858152602081815260408083206001600160a01b0388811685529252822054166123de5760405163765b60eb60e11b81526001600160a01b0386166004820152602401610953565b61eeed196001600160a01b038616016123f857503461120f565b341561241957604051633ad385fd60e01b8152346004820152602401610953565b600080612483612447604051806040016040528060078152602001663832b936b4ba1960c91b815250613720565b86868080601f01602080910402602001604051908101604052809392919081815260200183838082843760009201919091525061373492505050565b9150915081156125fd576000818060200190518101906124a39190615592565b905080602001516001600160a01b03168711156124eb5760208101516040516363f4ca5d60e11b8152600481018990526001600160a01b039091166024820152604401610953565b6040805160e0810182526001600160a01b03808b166060808401918252602086810151841660808601528686015165ffffffffffff90811660a08701529187015190911660c08501529083523090830152835192820192909252907f000000000000000000000000000000000022d473030f116ddee9f6b43ac78ba316632b67b570612575611a70565b8385608001516040518463ffffffff1660e01b815260040161259993929190615641565b600060405180830381600087803b1580156125b357600080fd5b505af19250505080156125c4575060015b6125fa573d8080156125f2576040519150601f19603f3d011682016040523d82523d6000602084013e6125f7565b606091505b50505b50505b6000612608886138da565b905061261d612615611a70565b308a8a611d06565b80612627896138da565b6114579190615116565b60008361263f57600061264a565b61264a878787613962565b9050867f9ecaf7fc3dfffd6867c175d6e684b1f1e3aef019398ba8db2c1ffab4a09db2538683868661267a611a70565b60405161268b9594939291906156b5565b60405180910390a26001600160a01b037f000000000000000000000000f36a63951a49a9708f007f23b077751be80ffe11166351fc173588886126ce858a615428565b6040516001600160e01b031960e086901b16815260048101939093526001600160a01b0390911660248301526044820152606401600060405180830381600087803b158015611c2857600080fd5b600061272661471b565b6000878152602081815260408083206001600160a01b038a8116855290835281842082516060808201855291549283168152600160a01b830460ff1681860152600160a81b90920463ffffffff16828401528b855260018452828520805484518187028101870190955280855291959492938593909290849084015b828210156127fc57600084815260209081902060408051606081018252918501546001600160a01b0381168352600160a01b810460ff1683850152600160a81b900463ffffffff16908201528252600190920191016127a2565b5050604051630d346b8160e01b8152929350506001600160a01b037f000000000000000000000000f36a63951a49a9708f007f23b077751be80ffe111691630d346b819150612859908f908f908e90889088908f90600401615701565b6000604051808303816000875af1158015612878573d6000803e3d6000fd5b505050506040513d6000823e601f3d908101601f191682016040526128a09190810190615776565b91985091965094509250508715612934576128ba8a6119e4565b60405163516a997360e11b81526001600160a01b038d81166004830152602482018d9052604482018b90526080606483015260006084830152919091169063a2d532e69060a401600060405180830381600087803b15801561291b57600080fd5b505af115801561292f573d6000803e3d6000fd5b505050505b6000851561298f5761294588611a95565b15801561295457506127108314155b1561297d576129638682615428565b9050612970866019611b24565b61297a9087615116565b95505b851561298f5761298f30898c89611d06565b8351156129ee576129e18b60405180608001604052808d6001600160a01b03168152602001856020015160ff168152602001856040015163ffffffff168152602001898152508e8c8b8a898f8c613c9c565b6129eb9082615428565b90505b806000036129fd576000612a0b565b612a0b8b8b838b6000613559565b508a856000015165ffffffffffff16866020015165ffffffffffff167f9565fc8bdd4f45a73582d1163dbe522a4fb0c4dbb882b5e66269f70101a2509a8f8c8e898d8f612a56611a70565b604051612a6997969594939291906154dc565b60405180910390a450505050509695505050505050565b6000612a8a61471b565b6000868152602081815260408083206001600160a01b038981168552925291829020915163181241e760e31b81527f000000000000000000000000f36a63951a49a9708f007f23b077751be80ffe119091169163c0920f3891612af5918a9189908990600401615487565b610140604051808303816000875af1158015612b15573d6000803e3d6000fd5b505050506040513d601f19601f82011682018060405250810190612b3991906154ad565b610100820151909350909150604e1c600190811603612be7576040516331a9108f60e11b815260048101879052612be7907f000000000000000000000000ecb62030e30bb027f672f24692111492ba2bbc846001600160a01b031690636352211e90602401602060405180830381865afa158015612bbb573d6000803e3d6000fd5b505050506040513d601f19601f82011682018060405250810190612bdf9190614dd9565b8760046120f4565b6040516331a9108f60e11b8152600481018790526000907f000000000000000000000000ecb62030e30bb027f672f24692111492ba2bbc846001600160a01b031690636352211e90602401602060405180830381865afa158015612c4f573d6000803e3d6000fd5b505050506040513d601f19601f82011682018060405250810190612c739190614dd9565b9050600080612c908989866020015165ffffffffffff1688613ef5565b90925090506000612cbc8a8a612ca68686615428565b6101008901518890604f1c600190811614613559565b905060008315612ce957612cd1846019611b24565b612cdb9085615116565b9050612ce930868c84611d06565b8a866000015165ffffffffffff16876020015165ffffffffffff167fda42c5c18ef97738d10c32811895add569670a6fcbe9627ea198d446f3be6dea888d8c8888612d32611a70565b604080516001600160a01b03978816815260208101969096528501939093526060840191909152608083015290911660a082015260c00160405180910390a4505050505050949350505050565b604080516080810182526000808252602082018190529181018290526060810182905260008060008b815260200190815260200160002060008a6001600160a01b03166001600160a01b031681526020019081526020016000206040518060600160405290816000820160009054906101000a90046001600160a01b03166001600160a01b03166001600160a01b031681526020016000820160149054906101000a900460ff1660ff1660ff1681526020016000820160159054906101000a900463ffffffff1663ffffffff1663ffffffff1681525050905060405180608001604052808a6001600160a01b03168152602001826020015160ff168152602001826040015163ffffffff1681526020018981525091505060008060007f000000000000000000000000f36a63951a49a9708f007f23b077751be80ffe116001600160a01b031663c59dfadb8a868f8c8b6040518663ffffffff1660e01b8152600401612eef9594939291906158dc565b6000604051808303816000875af1158015612f0e573d6000803e3d6000fd5b505050506040513d6000823e601f3d908101601f19168201604052612f36919081019061591e565b92509250925081600014612fe157612f4d8c6119e4565b6040516363fdc96f60e11b8152600481018e9052602481018490526001600160a01b038a8116604483015260a06064830152600060a483015260016084830152919091169063c7fb92de9060c4016020604051808303816000875af1158015612fba573d6000803e3d6000fd5b505050506040513d601f19601f82011682018060405250810190612fde9190615329565b94505b8b836000015165ffffffffffff16846020015165ffffffffffff167f133161f1c9161488f777ab9a26aae91d47c0d9a3fafb398960f138db02c737978c8c8f8b8e8e61302b611a70565b60405161303e9796959493929190615a3d565b60405180910390a480511561305d5761305d8c82868c878d8b8d61409c565b50505050979650505050505050565b6000366014336001600160a01b037f000000000000000000000000b2b5841dbef766d4b521221732f9b618fcf34a87161480156130a95750808210155b156130d9576000366130bb8385615116565b6130c6928290615a9d565b6130cf91615ac7565b60601c9250505090565b339250505090565b600080806000198587098587029250828110838203039150508060000361311b5783828161311157613111615afc565b0492505050611621565b83811061314c57604051630c740aef60e31b8152600481018790526024810186905260448101859052606401610953565b60008486880960026001871981018816978890046003810283188082028403028082028403028082028403028082028403028082028403029081029092039091026000889003889004909101858311909403939093029303949094049190911702949350505050565b604051636eb1769f60e11b81523060048201526001600160a01b0383811660248301526000919085169063dd62ed3e90604401602060405180830381865afa158015613205573d6000803e3d6000fd5b505050506040513d601f19601f820116820180604052508101906132299190615329565b9050611a8f848461323a8585615428565b614283565b804710156132625760405163cd78605960e01b8152306004820152602401610953565b6000826001600160a01b03168260405160006040518083038185875af1925050503d80600081146132af576040519150601f19603f3d011682016040523d82523d6000602084013e6132b4565b606091505b5050905080611b7257604051630a12f52160e11b815260040160405180910390fd5b6040516001600160a01b03838116602483015260448201839052611b7291859182169063a9059cbb906064015b604051602081830303815290604052915060e01b6020820180516001600160e01b03838183161783525050505061430f565b6040516001600160a01b038481166024830152838116604483015260648201839052611a8f9186918216906323b872dd90608401613303565b604051632fc8972b60e11b8152600481018790526001600160a01b038087166024830152604482018690528085166064830152831660848201523090635f912e569060a401600060405180830381600087803b1580156133cd57600080fd5b505af19250505080156133de575060015b6134f0573d80801561340c576040519150601f19603f3d011682016040523d82523d6000602084013e613411565b606091505b506001866001600160a01b0316887f4b73f3c5cfb174c9d0494138d07ff8ee3aa400df46327d9893ed5ac122dd558a888561344a611a70565b60405161345993929190615b12565b60405180910390a46040516351fc173560e01b8152600481018890526001600160a01b038781166024830152604482018790527f000000000000000000000000f36a63951a49a9708f007f23b077751be80ffe1116906351fc173590606401600060405180830381600087803b1580156134d257600080fd5b505af11580156134e6573d6000803e3d6000fd5b5050505050611335565b83856001600160a01b0316877fb514e730b3f8ad3aa94b6857bcc5ff4a46954bdcf8c4b0346705b1d0ac7a43258487613527611a70565b6040805193151584526001600160a01b03928316602085015291169082015260600160405180910390a4505050505050565b6000613566846019611b24565b905081156136795760008681526002602090815260408083206001600160a01b03808a1685529083529281902081516060810183528881529387169284019290925290919081016135ba6224ea0042615428565b65ffffffffffff908116909152825460018181018555600094855260209485902084516002909302019182559383015193018054604090930151909116600160a01b026001600160d01b03199092166001600160a01b039384161791909117905584908616877fef9cd8fc3b61b64b44042ada0a8a3ede1649bc1b112673da228120f13bf1381e60198761364c611a70565b604080519384526001600160a01b03928316602085015291169082015260600160405180910390a461120f565b604051630862026560e41b8152600160048201526001600160a01b0386811660248301526000917f000000000000000000000000e0b2860344ba476e12ed1d559656da9d04f1ad2290911690638620265090604401602060405180830381865afa1580156136eb573d6000803e3d6000fd5b505050506040513d601f19601f8201168201806040525081019061370f9190614dd9565b905061120d8787848785600061336e565b805160208201206000903060601b18610737565b60006060602583511161375957505060408051602081019091526000808252906138d3565b60008361376860046020615428565b8151811061377857613778614ffc565b0160209081015160f81c91505b600085613793600484615428565b815181106137a3576137a3614ffc565b01602001516001600160f81b031916148015906137c957506137c6602083615b43565b81105b156138d0576000856137dc600484615428565b815181106137ec576137ec614ffc565b016020908101518784019091015160f89190911c91506001600160e01b0319808916908216036138c6576000613823602086615b43565b61382e600986615428565b101580613863575087613842600986615428565b8151811061385257613852614ffc565b01602001516001600160f81b031916155b61389c57602088613875600987615428565b8151811061388557613885614ffc565b0160200151613897919060f81c615b43565b61389f565b87515b905060016138b8896138b2602087615b43565b84614372565b9650965050505050506138d3565b5050600501613785565b50505b9250929050565b60006001600160a01b03821661eeee1461395b576040516370a0823160e01b81523060048201526001600160a01b038316906370a0823190602401602060405180830381865afa158015613932573d6000803e3d6000fd5b505050506040513d601f19601f820116820180604052508101906139569190615329565b610737565b4792915050565b60008381526002602090815260408083206001600160a01b0386168452825280832080548251818502810185019093528083528493849084015b828210156139fb5760008481526020908190206040805160608101825260028602909201805483526001908101546001600160a01b03811684860152600160a01b900465ffffffffffff1691830191909152908352909201910161399c565b50505060008781526002602090815260408083206001600160a01b038a1684529091528120929350613a2e9291506146fa565b8051839060005b81811015613c33576000848281518110613a5157613a51614ffc565b6020026020010151905083600003613adb5760008981526002602081815260408084206001600160a01b03808e16865290835281852080546001818101835591875295849020875196909502909401948555918501519390920180549285015165ffffffffffff16600160a01b026001600160d01b03199093169390911692909217179055613c2a565b6000613aec82600001516019611b24565b90506000818360000151613b009190615116565b9050808610613b1757968101969485900394613c27565b613b228660196143b8565b9150600260008c815260200190815260200160002060008b6001600160a01b03166001600160a01b031681526020019081526020016000206040518060600160405280888403815260200185602001516001600160a01b03168152602001856040015165ffffffffffff1681525090806001815401808255809150506001900390600052602060002090600202016000909190919091506000820151816000015560208201518160010160006101000a8154816001600160a01b0302191690836001600160a01b0316021790555060408201518160010160146101000a81548165ffffffffffff021916908365ffffffffffff16021790555050508188019750600095505b50505b50600101613a35565b5084866001600160a01b0316887fedc5125503c021a73fd7d8ed0c2456b296be2c88f39fbed068bd091cef7ca43d8786613c6b611a70565b6040805193845260208401929092526001600160a01b03169082015260600160405180910390a45050509392505050565b6000806040518061014001604052808a6001600160a01b031681526020018c8152602001876020015165ffffffffffff1681526020018981526020018b81526020018b8152602001868152602001856001600160a01b0316815260200160405180602001604052806000815250815260200188815250905060008351905060005b81811015613ee5576000858281518110613d3957613d39614ffc565b602002602001015190506000613d528260000151611a95565b613d6a57613d6582602001516019611b24565b613d6d565b60005b90508015613d9c576020820151613d849087615428565b95508082602001818151613d989190615116565b9052505b60405180608001604052808f600001516001600160a01b031681526020018f6020015160ff1681526020018f6040015163ffffffff16815260200183602001518152508560a001819052508160400151856101000181905250613e0c82600001518f600001518460200151611b46565b6000613e208f600001518460200151611b77565b8351604051631727f03960e01b81529192506001600160a01b031690631727f039908390613e52908a90600401615c05565b6000604051808303818588803b158015613e6b57600080fd5b505af1158015613e7f573d6000803e3d6000fd5b505050505082600001516001600160a01b03167f3dc4bcf15d77035ba58aff65ebae2b29daccddfc22b9dcf03638e3f727577b0587856020015185613ec2611a70565b604051613ed29493929190615c18565b60405180910390a2505050600101613d1d565b5050509998505050505050505050565b6040516369e11cc560e01b815260048101859052602481018390526001600160a01b0384811660448301526000918291633b9aca009183917f0000000000000000000000000eecf21dfc9265e25b81f384993a40e351f897fe16906369e11cc590606401600060405180830381865afa158015613f76573d6000803e3d6000fd5b505050506040513d6000823e601f3d908101601f19168201604052613f9e9190810190615c50565b805190915060005b8181101561408c576000838281518110613fc257613fc2614ffc565b602002602001015190506000613fe389836020015163ffffffff16886130e1565b90506000613ff3838e8e856143c7565b905080158015906140045750818114155b15614016576140138289615428565b97505b811561402257818a0399505b826020015163ffffffff16870396508b6001600160a01b03168b8e7f527d1f65cc7cbc5b19926d6b040f10ec7f946968eced5ecf248d2f4f2c28f5f6868686614069611a70565b6040516140799493929190615d61565b60405180910390a4505050600101613fa6565b5085945050505094509492505050565b6000604051806101400160405280876001600160a01b031681526020018a8152602001866020015165ffffffffffff1681526020018881526020018881526020018660a001516001600160701b03168152602001848152602001856001600160a01b0316815260200160405180602001604052806000815250815260200183815250905060008851905060005b81811015611c3c5760008a828151811061414557614145614ffc565b60209081029190910181015160408051608080820183528e516001600160a01b031682528e85015160ff16828601528e83015163ffffffff1682840152938301805160608301529388015281015161010087015280518c5192519193506141ad929091611b46565b60006141c18b600001518360200151611b77565b825160405163099bfcc360e11b81529192506001600160a01b031690631337f9869083906141f3908990600401615e25565b6000604051808303818588803b15801561420c57600080fd5b505af1158015614220573d6000803e3d6000fd5b505050505081600001516001600160a01b03167fb1ed2cd5f80d2005b57f16c4c1a1c8ee500b96725924cad83e44f32f05f400c0868460200151614262611a70565b60405161427193929190615e38565b60405180910390a25050600101614129565b604080516001600160a01b038416602482015260448082018490528251808303909101815260649091019091526020810180516001600160e01b031663095ea7b360e01b1790526142d4848261454d565b611a8f576040516001600160a01b0384811660248301526000604483015261430991869182169063095ea7b390606401613303565b611a8f84825b60006143246001600160a01b038416836145f0565b905080516000141580156143495750808060200190518101906143479190615075565b155b15611b7257604051635274afe760e01b81526001600160a01b0384166004820152602401610953565b60608282036040519150602081830101604052808252508260208501016020820160005b848110156143ae578281015182820152602001614396565b5050509392505050565b600061162183836103e86130e1565b600030634ff513ab868686866143db611a70565b6040518663ffffffff1660e01b81526004016143fb959493929190615e6b565b6020604051808303816000875af1925050508015614436575060408051601f3d908101601f1916820190925261443391810190615329565b60015b614542573d808015614464576040519150601f19603f3d011682016040523d82523d6000602084013e614469565b606091505b50847f7d1404acd9b8028cb88963a50aeeb83774d101e993a7fd89967afbc2d94c33fb878584614497611a70565b6040516144a79493929190615eaa565b60405180910390a26040516351fc173560e01b8152600481018690526001600160a01b038581166024830152604482018590527f000000000000000000000000f36a63951a49a9708f007f23b077751be80ffe1116906351fc173590606401600060405180830381600087803b15801561452057600080fd5b505af1158015614534573d6000803e3d6000fd5b505050506000915050614545565b90505b949350505050565b6000806000846001600160a01b03168460405161456a9190615eec565b6000604051808303816000865af19150503d80600081146145a7576040519150601f19603f3d011682016040523d82523d6000602084013e6145ac565b606091505b50915091508180156145d65750805115806145d65750808060200190518101906145d69190615075565b801561120f5750505050506001600160a01b03163b151590565b60606116218383600084600080856001600160a01b031684866040516146169190615eec565b60006040518083038185875af1925050503d8060008114614653576040519150601f19603f3d011682016040523d82523d6000602084013e614658565b606091505b5091509150614668868383614672565b9695505050505050565b60608261468757614682826146ce565b611621565b815115801561469e57506001600160a01b0384163b155b156146c757604051639996b31560e01b81526001600160a01b0385166004820152602401610953565b5080611621565b8051156146de5780518082602001fd5b604051630a12f52160e11b815260040160405180910390fd5b50565b50805460008255600202906000526020600020908101906146f79190614767565b6040805161012081018252600080825260208201819052918101829052606081018290526080810182905260a0810182905260c0810182905260e0810182905261010081019190915290565b5b8082111561478e57600081556001810180546001600160d01b0319169055600201614768565b5090565b6000602082840312156147a457600080fd5b81356001600160e01b03198116811461162157600080fd5b6000806000604084860312156147d157600080fd5b8335925060208401356001600160401b03808211156147ef57600080fd5b818601915086601f83011261480357600080fd5b81358181111561481257600080fd5b87602060608302850101111561482757600080fd5b6020830194508093505050509250925092565b6001600160a01b03811681146146f757600080fd5b6000806040838503121561486257600080fd5b8235915060208301356148748161483a565b809150509250929050565b602080825282518282018190526000919060409081850190868401855b828110156148dc57815180518552868101516001600160a01b03168786015285015165ffffffffffff16858501526060909301929085019060010161489c565b5091979650505050505050565b80516001600160a01b0316825260208082015160ff169083015260409081015163ffffffff16910152565b6060810161073782846148e9565b600080600080600085870361014081121561493c57600080fd5b60c081121561494a57600080fd5b5085945060c0860135935060e08601356149638161483a565b9250610100860135915061012086013561497c8161483a565b809150509295509295909350565b60006020828403121561499c57600080fd5b5035919050565b60008151808452602080850194506020840160005b838110156149de576149cb8783516148e9565b60609690960195908201906001016149b8565b509495945050505050565b60208152600061162160208301846149a3565b600060208284031215614a0e57600080fd5b81356116218161483a565b600080600080600060a08688031215614a3157600080fd5b853594506020860135614a438161483a565b9350604086013592506060860135614a5a8161483a565b9150608086013561497c8161483a565b60008083601f840112614a7c57600080fd5b5081356001600160401b03811115614a9357600080fd5b6020830191508360208285010111156138d357600080fd5b60008060008060008060008060006101008a8c031215614aca57600080fd5b8935985060208a0135614adc8161483a565b975060408a0135965060608a0135955060808a0135945060a08a0135614b018161483a565b935060c08a0135614b118161483a565b925060e08a01356001600160401b03811115614b2c57600080fd5b614b388c828d01614a6a565b915080935050809150509295985092959850929598565b80151581146146f757600080fd5b60008060008060008060008060c0898b031215614b7957600080fd5b883597506020890135614b8b8161483a565b9650604089013595506060890135614ba281614b4f565b945060808901356001600160401b0380821115614bbe57600080fd5b614bca8c838d01614a6a565b909650945060a08b0135915080821115614be357600080fd5b50614bf08b828c01614a6a565b999c989b5096995094979396929594505050565b60008060008060008060008060e0898b031215614c2057600080fd5b8835614c2b8161483a565b9750602089013596506040890135614c428161483a565b9550606089013594506080890135935060a0890135614c608161483a565b925060c08901356001600160401b03811115614c7b57600080fd5b614bf08b828c01614a6a565b600080600060608486031215614c9c57600080fd5b505081359360208301359350604090920135919050565b600080600080600060a08688031215614ccb57600080fd5b853594506020860135614cdd8161483a565b94979496505050506040830135926060810135926080909101359150565b600080600060608486031215614d1057600080fd5b833592506020840135614d228161483a565b91506040840135614d328161483a565b809150509250925092565b600080600080600080600080600060e08a8c031215614d5b57600080fd5b8935985060208a0135614d6d8161483a565b975060408a0135965060608a0135614d848161483a565b955060808a0135945060a08a01356001600160401b0380821115614da757600080fd5b614db38d838e01614a6a565b909650945060c08c0135915080821115614dcc57600080fd5b50614b388c828d01614a6a565b600060208284031215614deb57600080fd5b81516116218161483a565b634e487b7160e01b600052604160045260246000fd5b60405161012081016001600160401b0381118282101715614e2f57614e2f614df6565b60405290565b604051606081016001600160401b0381118282101715614e2f57614e2f614df6565b60405160c081016001600160401b0381118282101715614e2f57614e2f614df6565b60405160a081016001600160401b0381118282101715614e2f57614e2f614df6565b604051601f8201601f191681016001600160401b0381118282101715614ec357614ec3614df6565b604052919050565b65ffffffffffff811681146146f757600080fd5b8051614eea81614ecb565b919050565b63ffffffff811681146146f757600080fd5b8051614eea81614eef565b80516001600160701b0381168114614eea57600080fd5b8051614eea8161483a565b60006101208284031215614f4157600080fd5b614f49614e0c565b9050614f5482614edf565b8152614f6260208301614edf565b6020820152614f7360408301614edf565b6040820152614f8460608301614edf565b6060820152614f9560808301614f01565b6080820152614fa660a08301614f0c565b60a0820152614fb760c08301614f01565b60c0820152614fc860e08301614f23565b60e082015261010080830151818301525092915050565b60006101208284031215614ff257600080fd5b6116218383614f2e565b634e487b7160e01b600052603260045260246000fd5b60ff811681146146f757600080fd5b60006060828403121561503357600080fd5b61503b614e35565b82356150468161483a565b8152602083013561505681615012565b6020820152604083013561506981614eef565b60408201529392505050565b60006020828403121561508757600080fd5b815161162181614b4f565b6000602082840312156150a457600080fd5b815161162181615012565b546001600160a01b038116825260a081901c60ff16602083015260a81c63ffffffff16604090910152565b608081016150e882856150af565b6001600160a01b039290921660609190910152919050565b634e487b7160e01b600052601160045260246000fd5b8181038181111561073757610737615100565b66ffffffffffffff811681146146f757600080fd5b600060c0828403121561515057600080fd5b615158614e57565b823561516381614b4f565b8152602083013561517381614eef565b6020820152604083013561518681615129565b604082015260608301356151998161483a565b606082015260808301356151ac81614ecb565b608082015260a08301356151bf8161483a565b60a08201529392505050565b80511515825260208082015163ffffffff169083015260408082015166ffffffffffffff16908301526060808201516001600160a01b039081169184019190915260808083015165ffffffffffff169084015260a09182015116910152565b81516001600160a01b031681526020808301519082015260408083015190820152606080830151908201526080808301519082015260a082810151610160830191615277908401826151cb565b5092915050565b60006020828403121561529057600080fd5b813561162181615129565b6000602082840312156152ad57600080fd5b813561162181614b4f565b6001600160a01b0386168152602080820186905260a060408301819052855490830181905260008681529182209060c0840190835b81811015615312576152ff83856150af565b60019384019360609390930192016152ed565b505060608401959095525050608001529392505050565b60006020828403121561533b57600080fd5b5051919050565b60006060828403121561535457600080fd5b61535c614e35565b82516153678161483a565b8152602083015161537781615012565b6020820152604083015161506981614eef565b60005b838110156153a557818101518382015260200161538d565b50506000910152565b600081518084526153c681602086016020860161538a565b601f01601f19169290920160200192915050565b85815260018060a01b0385166020820152836040820152821515606082015260c06080820152600060c082015260e060a0820152600061541d60e08301846153ae565b979650505050505050565b8082018082111561073757610737615100565b868152600060018060a01b03808816602084015286604084015280861660608401525083608083015260e060a0830152600060e08301526101008060c0840152611457818401856153ae565b84815260c0810161549b60208301866150af565b608082019390935260a0015292915050565b60008061014083850312156154c157600080fd5b6154cb8484614f2e565b915061012083015190509250929050565b600060018060a01b03808a168352808916602084015287604084015286606084015285608084015260e060a084015261551860e08401866153ae565b915080841660c08401525098975050505050505050565b600082601f83011261554057600080fd5b81516001600160401b0381111561555957615559614df6565b61556c601f8201601f1916602001614e9b565b81815284602083860101111561558157600080fd5b61454582602083016020870161538a565b6000602082840312156155a457600080fd5b81516001600160401b03808211156155bb57600080fd5b9083019060a082860312156155cf57600080fd5b6155d7614e79565b8251815260208301516155e98161483a565b602082015260408301516155fc81614ecb565b6040820152606083015161560f81614ecb565b606082015260808301518281111561562657600080fd5b6156328782860161552f565b60808301525095945050505050565b600061010060018060a01b0380871684528551818151166020860152816020820151166040860152604081015165ffffffffffff80821660608801528060608401511660808801525050508060208701511660a085015250604085015160c08401528060e0840152614668818401856153ae565b85815284602082015260a0604082015260006156d460a08301866153ae565b82810360608401526156e681866153ae565b91505060018060a01b03831660808301529695505050505050565b6001600160a01b03871681526020810186905260408101859052600061010061572d60608401876148e9565b8060c084015261573f818401866149a3565b905082810360e084015261145781856153ae565b60006001600160401b0382111561576c5761576c614df6565b5060051b60200190565b600080600080610180858703121561578d57600080fd5b6157978686614f2e565b9350610120850151925061014085015191506101608501516001600160401b03808211156157c457600080fd5b818701915087601f8301126157d857600080fd5b81516157eb6157e682615753565b614e9b565b8082825260208201915060208360051b86010192508a83111561580d57600080fd5b602085015b838110156158975780518581111561582957600080fd5b86016060818e03601f1901121561583f57600080fd5b615847614e35565b60208201516158558161483a565b81526040820151602082015260608201518781111561587357600080fd5b6158828f60208386010161552f565b60408301525084525060209283019201615812565b50979a9699509497505050505050565b80516001600160a01b0316825260208082015160ff169083015260408082015163ffffffff1690830152606090810151910152565b6001600160a01b038681168252600090610100906158fd60208501896158a7565b8660a085015280861660c0850152508060e0840152611570818401856153ae565b6000806000610160848603121561593457600080fd5b61593e8585614f2e565b925061012084015191506101408401516001600160401b038082111561596357600080fd5b818601915086601f83011261597757600080fd5b815160206159876157e683615753565b82815260059290921b8401810191818101908a8411156159a657600080fd5b8286015b84811015615a2c578051868111156159c157600080fd5b87016060818e03601f190112156159d757600080fd5b6159df614e35565b858201516159ec8161483a565b8152604082015186820152606082015188811115615a0a5760008081fd5b615a188f888386010161552f565b6040830152508452509183019183016159aa565b508096505050505050509250925092565b600060018060a01b03808a168352808916602084015287604084015286606084015260e06080840152615a7360e08401876153ae565b83810360a0850152615a8581876153ae565b92505080841660c08401525098975050505050505050565b60008085851115615aad57600080fd5b83861115615aba57600080fd5b5050820193919092039150565b6bffffffffffffffffffffffff198135818116916014851015615af45780818660140360031b1b83161692505b505092915050565b634e487b7160e01b600052601260045260246000fd5b838152606060208201526000615b2b60608301856153ae565b905060018060a01b0383166040830152949350505050565b808202811582820484141761073757610737615100565b80516001600160a01b0316825260006102006020830151602085015260408301516040850152606083015160608501526080830151615b9c60808601826158a7565b5060a0830151610100615bb1818701836158a7565b60c085015161018087015260e08501516001600160a01b03166101a08701528401516101c086018390529050615be9828601826153ae565b9150506101208301518482036101e086015261120f82826153ae565b6020815260006116216020830184615b5a565b608081526000615c2b6080830187615b5a565b60208301959095525060408101929092526001600160a01b0316606090910152919050565b60006020808385031215615c6357600080fd5b82516001600160401b03811115615c7957600080fd5b8301601f81018513615c8a57600080fd5b8051615c986157e682615753565b81815260c09182028301840191848201919088841115615cb757600080fd5b938501935b83851015615d555780858a031215615cd45760008081fd5b615cdc614e57565b8551615ce781614b4f565b815285870151615cf681614eef565b81880152604086810151615d0981615129565b90820152606086810151615d1c8161483a565b90820152608086810151615d2f81614ecb565b9082015260a086810151615d428161483a565b9082015283529384019391850191615cbc565b50979650505050505050565b6101208101615d7082876151cb565b60c082019490945260e08101929092526001600160a01b031661010090910152919050565b80516001600160a01b03168252600061020060208301516020850152604083015160408501526060830151615dcd60608601826158a7565b506080830151615de060e08601826158a7565b5060a083015161016085015260c083015161018085015260e08301516001600160a01b03166101a08501526101008301516101c08501829052615be9828601826153ae565b6020815260006116216020830184615d95565b606081526000615e4b6060830186615d95565b6020830194909452506001600160a01b0391909116604090910152919050565b6101408101615e7a82886151cb565b60c08201959095526001600160a01b0393841660e082015261010081019290925290911661012090910152919050565b6000610120615eb983886151cb565b8560c08401528060e0840152615ed1818401866153ae565b91505060018060a01b03831661010083015295945050505050565b60008251615efe81846020870161538a565b919091019291505056fea26469706673582212202516ee62d3e9799ad18a5e3caf331c6fccaf68c5aaec1e30bf6e53dd8345791664736f6c63430008170033",
	"devdoc": {
		"kind": "dev",
		"methods": {
			"accountingContextForTokenOf(uint256,address)": {
				"details": "See the `JBAccountingContext` struct for more information.",
				"params": {
					"projectId": "The ID of the project to get token accounting context of.",
					"token": "The token to check the accounting context of."
				},
				"returns": {
					"_0": "The token's accounting context for the token."
				}
			},
			"accountingContextsOf(uint256)": {
				"params": {
					"projectId": "The ID of the project to get the accepted tokens of."
				},
				"returns": {
					"_0": "tokenContexts The accounting contexts of the accepted tokens."
				}
			},
			"addAccountingContextsFor(uint256,(address,uint8,uint32)[])": {
				"details": "Only a project's owner, an operator with the `ADD_ACCOUNTING_CONTEXTS` permission from that owner, or a project's controller can add accounting contexts for the project.",
				"params": {
					"accountingContexts": "The accounting contexts to add.",
					"projectId": "The ID of the project having to add accounting contexts for."
				}
			},
			"addToBalanceOf(uint256,address,uint256,bool,string,bytes)": {
				"details": "Adding to balance can unlock held fees if `shouldUnlockHeldFees` is true.",
				"params": {
					"amount": "The amount of tokens to add to the balance, as a fixed point number with the same number of decimals as this terminal. If this is a native token terminal, this is ignored and `msg.value` is used instead.",
					"memo": "A memo to pass along to the emitted event.",
					"metadata": "Extra data to pass along to the emitted event.",
					"projectId": "The ID of the project to add funds to the balance of.",
					"shouldReturnHeldFees": "A flag indicating if held fees should be returned based on the amount being added.",
					"token": "The token being added to the balance."
				}
			},
			"constructor": {
				"params": {
					"feelessAddresses": "A contract that stores addresses that shouldn't incur fees when being paid towards or from.",
					"permissions": "A contract storing permissions.",
					"permit2": "A permit2 utility.",
					"projects": "A contract which mints ERC-721s that represent project ownership and transfers.",
					"splits": "A contract that stores splits for each project.",
					"store": "A contract that stores the terminal's data.",
					"trustedForwarder": "A trusted forwarder of transactions to this contract."
				}
			},
			"currentSurplusOf(uint256,uint256,uint256)": {
				"details": "This total surplus only includes tokens that the project accepts (as returned by `accountingContextsOf(...)`).",
				"params": {
					"currency": "The currency to express the returned value in terms of.",
					"decimals": "The number of decimals to include in the fixed point returned value.",
					"projectId": "The ID of the project to get the current total surplus of."
				},
				"returns": {
					"_0": "The current surplus amount the project has in this terminal, in terms of `currency` and with the specified number of decimals."
				}
			},
			"executePayout((bool,uint32,uint56,address,uint48,address),uint256,address,uint256,address)": {
				"details": "Only accepts calls from this terminal itself.",
				"params": {
					"amount": "The total amount being paid to the split, as a fixed point number with the same number of decimals as this terminal.",
					"projectId": "The ID of the project the split belongs to.",
					"split": "The split to pay.",
					"token": "The address of the token being paid to the split."
				},
				"returns": {
					"netPayoutAmount": "The amount sent to the split after subtracting fees."
				}
			},
			"executeProcessFee(uint256,address,uint256,address,address)": {
				"details": "Only accepts calls from this terminal itself.",
				"params": {
					"amount": "The fee amount, as a fixed point number with 18 decimals.",
					"beneficiary": "The address to mint tokens to (from the project which receives fees), and pass along to the ruleset's data hook and pay hook if applicable.",
					"feeTerminal": "The terminal that'll receive the fees.",
					"projectId": "The ID of the project paying the fee.",
					"token": "The token the fee is being paid in."
				}
			},
			"heldFeesOf(uint256,address)": {
				"details": "Projects can temporarily hold fees and unlock them later by adding funds to the project's balance.Held fees can be processed at any time by this terminal's owner.",
				"params": {
					"projectId": "The ID of the project that is holding fees.",
					"token": "The token that the fees are held in."
				}
			},
			"isTrustedForwarder(address)": {
				"details": "Indicates whether any particular address is the trusted forwarder."
			},
			"migrateBalanceOf(uint256,address,address)": {
				"details": "Only a project's owner or an operator with the `MIGRATE_TERMINAL` permission from that owner can migrate the project's terminal.",
				"params": {
					"projectId": "The ID of the project being migrated.",
					"to": "The terminal contract being migrated to, which will receive the project's funds and operations.",
					"token": "The address of the token being migrated."
				},
				"returns": {
					"balance": "The amount of funds that were migrated, as a fixed point number with the same amount of decimals as this terminal."
				}
			},
			"pay(uint256,address,uint256,address,uint256,string,bytes)": {
				"params": {
					"amount": "The amount of terminal tokens being received, as a fixed point number with the same number of decimals as this terminal. If this terminal's token is native, this is ignored and `msg.value` is used in its place.",
					"beneficiary": "The address to mint tokens to, and pass along to the ruleset's data hook and pay hook if applicable.",
					"memo": "A memo to pass along to the emitted event.",
					"metadata": "Bytes to pass along to the emitted event, as well as the data hook and pay hook if applicable.",
					"minReturnedTokens": "The minimum number of project tokens expected in return for this payment, as a fixed point number with the same number of decimals as this terminal. If the amount of tokens minted for the beneficiary would be less than this amount, the payment is reverted.",
					"projectId": "The ID of the project being paid.",
					"token": "The token being paid."
				},
				"returns": {
					"beneficiaryTokenCount": "The number of tokens minted to the beneficiary, as a fixed point number with 18 decimals."
				}
			},
			"processHeldFeesOf(uint256,address)": {
				"params": {
					"projectId": "The ID of the project to process held fees for.",
					"token": "The token to process held fees for."
				}
			},
			"redeemTokensOf(address,uint256,address,uint256,uint256,address,bytes)": {
				"details": "Only a token's holder or an operator with the `REDEEM_TOKENS` permission from that holder can redeem those tokens.",
				"params": {
					"beneficiary": "The address to send the reclaimed terminal tokens to, and to pass along to the ruleset's data hook and redeem hook if applicable.",
					"holder": "The account whose tokens are being redeemed.",
					"metadata": "Bytes to send along to the emitted event, as well as the data hook and redeem hook if applicable.",
					"minTokensReclaimed": "The minimum number of terminal tokens expected in return, as a fixed point number with the same number of decimals as this terminal. If the amount of tokens minted for the beneficiary would be less than this amount, the redemption is reverted.",
					"projectId": "The ID of the project the project tokens belong to.",
					"redeemCount": "The number of project tokens to redeem, as a fixed point number with 18 decimals.",
					"tokenToReclaim": "The token being reclaimed."
				},
				"returns": {
					"reclaimAmount": "The amount of terminal tokens that the project tokens were redeemed for, as a fixed point number with 18 decimals."
				}
			},
			"sendPayoutsOf(uint256,address,uint256,uint256,uint256)": {
				"details": "If the percentages of the splits in the project's payout split group do not add up to 100%, the remainder is sent to the project's owner.Anyone can send payouts on a project's behalf. Projects can include a wildcard split (a split with no `hook`, `projectId`, or `beneficiary`) to send funds to the `_msgSender()` which calls this function. This can be used to incentivize calling this function.payouts sent to addresses which aren't feeless incur the protocol fee.Payouts a projects don't incur fees if its terminal is feeless.",
				"params": {
					"amount": "The total number of terminal tokens to send, as a fixed point number with same number of decimals as this terminal.",
					"currency": "The expected currency of the payouts being sent. Must match the currency of one of the project's current ruleset's payout limits.",
					"minTokensPaidOut": "The minimum number of terminal tokens that the `amount` should be worth (if expressed in terms of this terminal's currency), as a fixed point number with the same number of decimals as this terminal. If the amount of tokens paid out would be less than this amount, the send is reverted.",
					"projectId": "The ID of the project having its payouts sent.",
					"token": "The token being sent."
				},
				"returns": {
					"amountPaidOut": "The total amount paid out."
				}
			},
			"supportsInterface(bytes4)": {
				"details": "See {IERC165-supportsInterface}.",
				"params": {
					"interfaceId": "The ID of the interface to check for adherence to."
				},
				"returns": {
					"_0": "A flag indicating if the provided interface ID is supported."
				}
			},
			"trustedForwarder()": {
				"details": "Returns the address of the trusted forwarder."
			},
			"useAllowanceOf(uint256,address,uint256,uint256,uint256,address,address,string)": {
				"details": "Only a project's owner or an operator with the `USE_ALLOWANCE` permission from that owner can use the surplus allowance.Incurs the protocol fee unless the caller is a feeless address.",
				"params": {
					"amount": "The amount of terminal tokens to use from the project's current surplus allowance, as a fixed point number with the same amount of decimals as this terminal.",
					"beneficiary": "The address to send the surplus funds to.",
					"currency": "The expected currency of the amount being paid out. Must match the currency of one of the project's current ruleset's surplus allowances.",
					"feeBeneficiary": "The address to send the tokens resulting from paying the fee.",
					"memo": "A memo to pass along to the emitted event.",
					"minTokensPaidOut": "The minimum number of terminal tokens that should be used from the surplus allowance (including fees), as a fixed point number with 18 decimals. If the amount of surplus used would be less than this amount, the transaction is reverted.",
					"projectId": "The ID of the project to use the surplus allowance of.",
					"token": "The token being paid out from the surplus."
				},
				"returns": {
					"netAmountPaidOut": "The number of tokens that were sent to the beneficiary, as a fixed point number with the same amount of decimals as the terminal."
				}
			}
		},
		"version": 1
	},
	"userdoc": {
		"kind": "user",
		"methods": {
			"DIRECTORY()": {
				"notice": "The directory of terminals and controllers for PROJECTS."
			},
			"FEE()": {
				"notice": "This terminal's fee (as a fraction out of `JBConstants.MAX_FEE`)."
			},
			"FEELESS_ADDRESSES()": {
				"notice": "The contract that stores addresses that shouldn't incur fees when being paid towards or from."
			},
			"PERMISSIONS()": {
				"notice": "A contract storing permissions."
			},
			"PERMIT2()": {
				"notice": "The permit2 utility."
			},
			"PROJECTS()": {
				"notice": "Mints ERC-721s that represent project ownership and transfers."
			},
			"RULESETS()": {
				"notice": "The contract storing and managing project rulesets."
			},
			"SPLITS()": {
				"notice": "The contract that stores splits for each project."
			},
			"STORE()": {
				"notice": "The contract that stores and manages the terminal's data."
			},
			"accountingContextForTokenOf(uint256,address)": {
				"notice": "A project's accounting context for a token."
			},
			"accountingContextsOf(uint256)": {
				"notice": "The tokens accepted by a project."
			},
			"addAccountingContextsFor(uint256,(address,uint8,uint32)[])": {
				"notice": "Adds accounting contexts for a project to this terminal so the project can begin accepting the tokens in those contexts."
			},
			"addToBalanceOf(uint256,address,uint256,bool,string,bytes)": {
				"notice": "Adds funds to a project's balance without minting tokens."
			},
			"currentSurplusOf(uint256,uint256,uint256)": {
				"notice": "Gets the total current surplus amount in this terminal for a project, in terms of a given currency."
			},
			"executePayout((bool,uint32,uint56,address,uint48,address),uint256,address,uint256,address)": {
				"notice": "Executes a payout to a split."
			},
			"executeProcessFee(uint256,address,uint256,address,address)": {
				"notice": "Process a specified amount of fees for a project."
			},
			"heldFeesOf(uint256,address)": {
				"notice": "Fees that are being held for a project."
			},
			"migrateBalanceOf(uint256,address,address)": {
				"notice": "Migrate a project's funds and operations to a new terminal that accepts the same token type."
			},
			"pay(uint256,address,uint256,address,uint256,string,bytes)": {
				"notice": "Pay a project with tokens."
			},
			"processHeldFeesOf(uint256,address)": {
				"notice": "Process any fees that are being held for the project."
			},
			"redeemTokensOf(address,uint256,address,uint256,uint256,address,bytes)": {
				"notice": "Holders can redeem a project's tokens to reclaim some of that project's surplus tokens, or to trigger rules determined by the current ruleset's data hook and redeem hook."
			},
			"sendPayoutsOf(uint256,address,uint256,uint256,uint256)": {
				"notice": "Sends payouts to a project's current payout split group, according to its ruleset, up to its current payout limit."
			},
			"supportsInterface(bytes4)": {
				"notice": "Indicates whether this contract adheres to the specified interface."
			},
			"useAllowanceOf(uint256,address,uint256,uint256,uint256,address,address,string)": {
				"notice": "Allows a project to pay out funds from its surplus up to the current surplus allowance."
			}
		},
		"version": 1
	},
	"gitCommit": "265dad3852d04d03aba15963b8c2fd79653719f9",
	"sourceName": "src/JBMultiTerminal.sol",
	"chainId": "11155111",
	"linkReferences": {},
	"deployedLinkReferences": {},
	"history": []
}