{
	"_format": "sphinx-sol-ct-artifact-1",
	"merkleRoot": "0x732be88c08b5a2d625882757714ef23a3a10316e007749118eaca4a956dc9f8a",
	"contractName": "JBRulesets",
	"address": "0xC052725ff9888CE3148Aa8bFB5063f1a5028946D",
	"abi": [
		{
			"type": "constructor",
			"inputs": [
				{
					"name": "directory",
					"type": "address",
					"internalType": "contract IJBDirectory"
				}
			],
			"stateMutability": "nonpayable"
		},
		{
			"type": "function",
			"name": "DIRECTORY",
			"inputs": [],
			"outputs": [
				{
					"name": "",
					"type": "address",
					"internalType": "contract IJBDirectory"
				}
			],
			"stateMutability": "view"
		},
		{
			"type": "function",
			"name": "allOf",
			"inputs": [
				{
					"name": "projectId",
					"type": "uint256",
					"internalType": "uint256"
				},
				{
					"name": "startingId",
					"type": "uint256",
					"internalType": "uint256"
				},
				{
					"name": "size",
					"type": "uint256",
					"internalType": "uint256"
				}
			],
			"outputs": [
				{
					"name": "rulesets",
					"type": "tuple[]",
					"internalType": "struct JBRuleset[]",
					"components": [
						{
							"name": "cycleNumber",
							"type": "uint48",
							"internalType": "uint48"
						},
						{
							"name": "id",
							"type": "uint48",
							"internalType": "uint48"
						},
						{
							"name": "basedOnId",
							"type": "uint48",
							"internalType": "uint48"
						},
						{
							"name": "start",
							"type": "uint48",
							"internalType": "uint48"
						},
						{
							"name": "duration",
							"type": "uint32",
							"internalType": "uint32"
						},
						{
							"name": "weight",
							"type": "uint112",
							"internalType": "uint112"
						},
						{
							"name": "weightCutPercent",
							"type": "uint32",
							"internalType": "uint32"
						},
						{
							"name": "approvalHook",
							"type": "address",
							"internalType": "contract IJBRulesetApprovalHook"
						},
						{
							"name": "metadata",
							"type": "uint256",
							"internalType": "uint256"
						}
					]
				}
			],
			"stateMutability": "view"
		},
		{
			"type": "function",
			"name": "currentApprovalStatusForLatestRulesetOf",
			"inputs": [
				{
					"name": "projectId",
					"type": "uint256",
					"internalType": "uint256"
				}
			],
			"outputs": [
				{
					"name": "",
					"type": "uint8",
					"internalType": "enum JBApprovalStatus"
				}
			],
			"stateMutability": "view"
		},
		{
			"type": "function",
			"name": "currentOf",
			"inputs": [
				{
					"name": "projectId",
					"type": "uint256",
					"internalType": "uint256"
				}
			],
			"outputs": [
				{
					"name": "ruleset",
					"type": "tuple",
					"internalType": "struct JBRuleset",
					"components": [
						{
							"name": "cycleNumber",
							"type": "uint48",
							"internalType": "uint48"
						},
						{
							"name": "id",
							"type": "uint48",
							"internalType": "uint48"
						},
						{
							"name": "basedOnId",
							"type": "uint48",
							"internalType": "uint48"
						},
						{
							"name": "start",
							"type": "uint48",
							"internalType": "uint48"
						},
						{
							"name": "duration",
							"type": "uint32",
							"internalType": "uint32"
						},
						{
							"name": "weight",
							"type": "uint112",
							"internalType": "uint112"
						},
						{
							"name": "weightCutPercent",
							"type": "uint32",
							"internalType": "uint32"
						},
						{
							"name": "approvalHook",
							"type": "address",
							"internalType": "contract IJBRulesetApprovalHook"
						},
						{
							"name": "metadata",
							"type": "uint256",
							"internalType": "uint256"
						}
					]
				}
			],
			"stateMutability": "view"
		},
		{
			"type": "function",
			"name": "deriveCycleNumberFrom",
			"inputs": [
				{
					"name": "baseRulesetCycleNumber",
					"type": "uint256",
					"internalType": "uint256"
				},
				{
					"name": "baseRulesetStart",
					"type": "uint256",
					"internalType": "uint256"
				},
				{
					"name": "baseRulesetDuration",
					"type": "uint256",
					"internalType": "uint256"
				},
				{
					"name": "start",
					"type": "uint256",
					"internalType": "uint256"
				}
			],
			"outputs": [
				{
					"name": "",
					"type": "uint256",
					"internalType": "uint256"
				}
			],
			"stateMutability": "pure"
		},
		{
			"type": "function",
			"name": "deriveStartFrom",
			"inputs": [
				{
					"name": "baseRulesetStart",
					"type": "uint256",
					"internalType": "uint256"
				},
				{
					"name": "baseRulesetDuration",
					"type": "uint256",
					"internalType": "uint256"
				},
				{
					"name": "mustStartAtOrAfter",
					"type": "uint256",
					"internalType": "uint256"
				}
			],
			"outputs": [
				{
					"name": "start",
					"type": "uint256",
					"internalType": "uint256"
				}
			],
			"stateMutability": "pure"
		},
		{
			"type": "function",
			"name": "deriveWeightFrom",
			"inputs": [
				{
					"name": "projectId",
					"type": "uint256",
					"internalType": "uint256"
				},
				{
					"name": "baseRulesetStart",
					"type": "uint256",
					"internalType": "uint256"
				},
				{
					"name": "baseRulesetDuration",
					"type": "uint256",
					"internalType": "uint256"
				},
				{
					"name": "baseRulesetWeight",
					"type": "uint256",
					"internalType": "uint256"
				},
				{
					"name": "baseRulesetWeightCutPercent",
					"type": "uint256",
					"internalType": "uint256"
				},
				{
					"name": "baseRulesetCacheId",
					"type": "uint256",
					"internalType": "uint256"
				},
				{
					"name": "start",
					"type": "uint256",
					"internalType": "uint256"
				}
			],
			"outputs": [
				{
					"name": "weight",
					"type": "uint256",
					"internalType": "uint256"
				}
			],
			"stateMutability": "view"
		},
		{
			"type": "function",
			"name": "getRulesetOf",
			"inputs": [
				{
					"name": "projectId",
					"type": "uint256",
					"internalType": "uint256"
				},
				{
					"name": "rulesetId",
					"type": "uint256",
					"internalType": "uint256"
				}
			],
			"outputs": [
				{
					"name": "ruleset",
					"type": "tuple",
					"internalType": "struct JBRuleset",
					"components": [
						{
							"name": "cycleNumber",
							"type": "uint48",
							"internalType": "uint48"
						},
						{
							"name": "id",
							"type": "uint48",
							"internalType": "uint48"
						},
						{
							"name": "basedOnId",
							"type": "uint48",
							"internalType": "uint48"
						},
						{
							"name": "start",
							"type": "uint48",
							"internalType": "uint48"
						},
						{
							"name": "duration",
							"type": "uint32",
							"internalType": "uint32"
						},
						{
							"name": "weight",
							"type": "uint112",
							"internalType": "uint112"
						},
						{
							"name": "weightCutPercent",
							"type": "uint32",
							"internalType": "uint32"
						},
						{
							"name": "approvalHook",
							"type": "address",
							"internalType": "contract IJBRulesetApprovalHook"
						},
						{
							"name": "metadata",
							"type": "uint256",
							"internalType": "uint256"
						}
					]
				}
			],
			"stateMutability": "view"
		},
		{
			"type": "function",
			"name": "latestQueuedOf",
			"inputs": [
				{
					"name": "projectId",
					"type": "uint256",
					"internalType": "uint256"
				}
			],
			"outputs": [
				{
					"name": "ruleset",
					"type": "tuple",
					"internalType": "struct JBRuleset",
					"components": [
						{
							"name": "cycleNumber",
							"type": "uint48",
							"internalType": "uint48"
						},
						{
							"name": "id",
							"type": "uint48",
							"internalType": "uint48"
						},
						{
							"name": "basedOnId",
							"type": "uint48",
							"internalType": "uint48"
						},
						{
							"name": "start",
							"type": "uint48",
							"internalType": "uint48"
						},
						{
							"name": "duration",
							"type": "uint32",
							"internalType": "uint32"
						},
						{
							"name": "weight",
							"type": "uint112",
							"internalType": "uint112"
						},
						{
							"name": "weightCutPercent",
							"type": "uint32",
							"internalType": "uint32"
						},
						{
							"name": "approvalHook",
							"type": "address",
							"internalType": "contract IJBRulesetApprovalHook"
						},
						{
							"name": "metadata",
							"type": "uint256",
							"internalType": "uint256"
						}
					]
				},
				{
					"name": "approvalStatus",
					"type": "uint8",
					"internalType": "enum JBApprovalStatus"
				}
			],
			"stateMutability": "view"
		},
		{
			"type": "function",
			"name": "latestRulesetIdOf",
			"inputs": [
				{
					"name": "projectId",
					"type": "uint256",
					"internalType": "uint256"
				}
			],
			"outputs": [
				{
					"name": "",
					"type": "uint256",
					"internalType": "uint256"
				}
			],
			"stateMutability": "view"
		},
		{
			"type": "function",
			"name": "queueFor",
			"inputs": [
				{
					"name": "projectId",
					"type": "uint256",
					"internalType": "uint256"
				},
				{
					"name": "duration",
					"type": "uint256",
					"internalType": "uint256"
				},
				{
					"name": "weight",
					"type": "uint256",
					"internalType": "uint256"
				},
				{
					"name": "weightCutPercent",
					"type": "uint256",
					"internalType": "uint256"
				},
				{
					"name": "approvalHook",
					"type": "address",
					"internalType": "contract IJBRulesetApprovalHook"
				},
				{
					"name": "metadata",
					"type": "uint256",
					"internalType": "uint256"
				},
				{
					"name": "mustStartAtOrAfter",
					"type": "uint256",
					"internalType": "uint256"
				}
			],
			"outputs": [
				{
					"name": "",
					"type": "tuple",
					"internalType": "struct JBRuleset",
					"components": [
						{
							"name": "cycleNumber",
							"type": "uint48",
							"internalType": "uint48"
						},
						{
							"name": "id",
							"type": "uint48",
							"internalType": "uint48"
						},
						{
							"name": "basedOnId",
							"type": "uint48",
							"internalType": "uint48"
						},
						{
							"name": "start",
							"type": "uint48",
							"internalType": "uint48"
						},
						{
							"name": "duration",
							"type": "uint32",
							"internalType": "uint32"
						},
						{
							"name": "weight",
							"type": "uint112",
							"internalType": "uint112"
						},
						{
							"name": "weightCutPercent",
							"type": "uint32",
							"internalType": "uint32"
						},
						{
							"name": "approvalHook",
							"type": "address",
							"internalType": "contract IJBRulesetApprovalHook"
						},
						{
							"name": "metadata",
							"type": "uint256",
							"internalType": "uint256"
						}
					]
				}
			],
			"stateMutability": "nonpayable"
		},
		{
			"type": "function",
			"name": "upcomingOf",
			"inputs": [
				{
					"name": "projectId",
					"type": "uint256",
					"internalType": "uint256"
				}
			],
			"outputs": [
				{
					"name": "ruleset",
					"type": "tuple",
					"internalType": "struct JBRuleset",
					"components": [
						{
							"name": "cycleNumber",
							"type": "uint48",
							"internalType": "uint48"
						},
						{
							"name": "id",
							"type": "uint48",
							"internalType": "uint48"
						},
						{
							"name": "basedOnId",
							"type": "uint48",
							"internalType": "uint48"
						},
						{
							"name": "start",
							"type": "uint48",
							"internalType": "uint48"
						},
						{
							"name": "duration",
							"type": "uint32",
							"internalType": "uint32"
						},
						{
							"name": "weight",
							"type": "uint112",
							"internalType": "uint112"
						},
						{
							"name": "weightCutPercent",
							"type": "uint32",
							"internalType": "uint32"
						},
						{
							"name": "approvalHook",
							"type": "address",
							"internalType": "contract IJBRulesetApprovalHook"
						},
						{
							"name": "metadata",
							"type": "uint256",
							"internalType": "uint256"
						}
					]
				}
			],
			"stateMutability": "view"
		},
		{
			"type": "function",
			"name": "updateRulesetWeightCache",
			"inputs": [
				{
					"name": "projectId",
					"type": "uint256",
					"internalType": "uint256"
				}
			],
			"outputs": [],
			"stateMutability": "nonpayable"
		},
		{
			"type": "event",
			"name": "RulesetInitialized",
			"inputs": [
				{
					"name": "rulesetId",
					"type": "uint256",
					"indexed": true,
					"internalType": "uint256"
				},
				{
					"name": "projectId",
					"type": "uint256",
					"indexed": true,
					"internalType": "uint256"
				},
				{
					"name": "basedOnId",
					"type": "uint256",
					"indexed": true,
					"internalType": "uint256"
				},
				{
					"name": "caller",
					"type": "address",
					"indexed": false,
					"internalType": "address"
				}
			],
			"anonymous": false
		},
		{
			"type": "event",
			"name": "RulesetQueued",
			"inputs": [
				{
					"name": "rulesetId",
					"type": "uint256",
					"indexed": true,
					"internalType": "uint256"
				},
				{
					"name": "projectId",
					"type": "uint256",
					"indexed": true,
					"internalType": "uint256"
				},
				{
					"name": "duration",
					"type": "uint256",
					"indexed": false,
					"internalType": "uint256"
				},
				{
					"name": "weight",
					"type": "uint256",
					"indexed": false,
					"internalType": "uint256"
				},
				{
					"name": "weightCutPercent",
					"type": "uint256",
					"indexed": false,
					"internalType": "uint256"
				},
				{
					"name": "approvalHook",
					"type": "address",
					"indexed": false,
					"internalType": "contract IJBRulesetApprovalHook"
				},
				{
					"name": "metadata",
					"type": "uint256",
					"indexed": false,
					"internalType": "uint256"
				},
				{
					"name": "mustStartAtOrAfter",
					"type": "uint256",
					"indexed": false,
					"internalType": "uint256"
				},
				{
					"name": "caller",
					"type": "address",
					"indexed": false,
					"internalType": "address"
				}
			],
			"anonymous": false
		},
		{
			"type": "event",
			"name": "WeightCacheUpdated",
			"inputs": [
				{
					"name": "projectId",
					"type": "uint256",
					"indexed": false,
					"internalType": "uint256"
				},
				{
					"name": "weight",
					"type": "uint112",
					"indexed": false,
					"internalType": "uint112"
				},
				{
					"name": "weightCutMultiple",
					"type": "uint256",
					"indexed": false,
					"internalType": "uint256"
				},
				{
					"name": "caller",
					"type": "address",
					"indexed": false,
					"internalType": "address"
				}
			],
			"anonymous": false
		},
		{
			"type": "error",
			"name": "JBControlled_ControllerUnauthorized",
			"inputs": [
				{
					"name": "controller",
					"type": "address",
					"internalType": "address"
				}
			]
		},
		{
			"type": "error",
			"name": "JBRulesets_InvalidRulesetApprovalHook",
			"inputs": [
				{
					"name": "hook",
					"type": "address",
					"internalType": "contract IJBRulesetApprovalHook"
				}
			]
		},
		{
			"type": "error",
			"name": "JBRulesets_InvalidRulesetDuration",
			"inputs": [
				{
					"name": "duration",
					"type": "uint256",
					"internalType": "uint256"
				},
				{
					"name": "limit",
					"type": "uint256",
					"internalType": "uint256"
				}
			]
		},
		{
			"type": "error",
			"name": "JBRulesets_InvalidRulesetEndTime",
			"inputs": [
				{
					"name": "timestamp",
					"type": "uint256",
					"internalType": "uint256"
				},
				{
					"name": "limit",
					"type": "uint256",
					"internalType": "uint256"
				}
			]
		},
		{
			"type": "error",
			"name": "JBRulesets_InvalidWeight",
			"inputs": [
				{
					"name": "weight",
					"type": "uint256",
					"internalType": "uint256"
				},
				{
					"name": "limit",
					"type": "uint256",
					"internalType": "uint256"
				}
			]
		},
		{
			"type": "error",
			"name": "JBRulesets_InvalidWeightCutPercent",
			"inputs": [
				{
					"name": "percent",
					"type": "uint256",
					"internalType": "uint256"
				}
			]
		},
		{
			"type": "error",
			"name": "PRBMath_MulDiv_Overflow",
			"inputs": [
				{
					"name": "x",
					"type": "uint256",
					"internalType": "uint256"
				},
				{
					"name": "y",
					"type": "uint256",
					"internalType": "uint256"
				},
				{
					"name": "denominator",
					"type": "uint256",
					"internalType": "uint256"
				}
			]
		}
	],
	"solcInputHash": "b6c351fd96634234999dc102235e550e",
	"args": [
		"0x5ADb234602D074064C216C1fDB23c6c2031F0C75"
	],
	"bytecode": "0x60a060405234801561001057600080fd5b50604051611f45380380611f4583398101604081905261002f91610040565b6001600160a01b0316608052610070565b60006020828403121561005257600080fd5b81516001600160a01b038116811461006957600080fd5b9392505050565b608051611eac610099600039600081816101ac015281816113c201526114510152611eac6000f3fe608060405234801561001057600080fd5b50600436106100cf5760003560e01c806370174dcc1161008c5780638b04533a116100665780638b04533a146101e6578063bfc48c9e146101fb578063d7e1ec881461020e578063fe81dd801461022e57600080fd5b806370174dcc14610173578063855a54ed1461018657806388bc2ef3146101a757600080fd5b80631b9b2e5f146100d457806325a61d5c146100fa5780632e6bc58a1461011a57806333f5bd0a1461012d57806343a266c21461014d578063441c0cc514610160575b600080fd5b6100e76100e2366004611a16565b61024e565b6040519081526020015b60405180910390f35b61010d610108366004611a48565b610298565b6040516100f19190611b1c565b61010d610128366004611b2b565b6102b3565b6100e761013b366004611b2b565b60006020819052908152604090205481565b61010d61015b366004611b2b565b610478565b6100e761016e366004611b44565b6105fe565b61010d610181366004611ba5565b61071a565b610199610194366004611b2b565b610a4c565b6040516100f1929190611c3c565b6101ce7f000000000000000000000000000000000000000000000000000000000000000081565b6040516001600160a01b0390911681526020016100f1565b6101f96101f4366004611b2b565b610aa7565b005b6100e7610209366004611c59565b610c87565b61022161021c366004611b2b565b610cfc565b6040516100f19190611c85565b61024161023c366004611c59565b610d48565b6040516100f19190611c93565b60008260000361026a57610263856001611cf8565b9050610290565b60006102768584611d0b565b90506102828482611d34565b61028c9087611cf8565b9150505b949350505050565b6102a06119ca565b6102aa8383610e90565b90505b92915050565b6102bb6119ca565b60008281526020819052604081205490036102db576102ad600080610e90565b60006102e683610f53565b90506000811561037e576102fa8483610e90565b92506103068484611059565b9050600481600581111561031c5761031c611c04565b14806103395750600381600581111561033757610337611c04565b145b806103555750600081600581111561035357610353611c04565b145b15610361575050919050565b61037784846040015165ffffffffffff16610e90565b92506103cc565b600084815260208190526040902054610398908590610e90565b92505b42836060015165ffffffffffff1611156103cc576103c584846040015165ffffffffffff16610e90565b925061039b565b826080015163ffffffff166000036103e957610290600080610e90565b6103f38484611059565b9050600481600581111561040957610409611c04565b14806104265750600081600581111561042457610424611c04565b145b15610437576102908484600061108b565b61044d84846040015165ffffffffffff16610e90565b9250826080015163ffffffff1660000361046c57610290600080610e90565b6102908484600061108b565b6104806119ca565b60008281526020819052604081205490036104a0576102ad600080610e90565b60006104ab8361120e565b9050801561052b576104bd8382610e90565b915060006104cb8484611059565b905060048160058111156104e1576104e1611c04565b14806104fe575060008160058111156104fc576104fc611c04565b145b1561050a575050919050565b826040015165ffffffffffff1691506105238483610e90565b9250506105d3565b506000828152602081905260409020546105458382610e90565b915060006105538484611059565b90505b600481600581111561056a5761056a611c04565b1415801561058a5750600081600581111561058757610587611c04565b14155b806105a05750826060015165ffffffffffff1642105b156105d157826040015165ffffffffffff1691506105be8483610e90565b92506105ca8484611059565b9050610556565b505b816080015163ffffffff166000036105eb5750919050565b6105f78383600161108b565b9392505050565b60008560000361062b576106248561061a86633b9aca00611d0b565b633b9aca006112ce565b905061070f565b5083831561070f57600061063f8884611d0b565b9050600087828161065257610652611d1e565b04905060008511801561066657506103e881115b156106de5760008a8152600460209081526040808320888452825291829020825180840190935280546001600160701b03168352600101546001600160a81b0316908201819052156106dc57805160208201516001600160701b0390911694506106d9906001600160a81b031683611d0b565b91505b505b60005b8181101561070b576106fb8461061a89633b9aca00611d0b565b9350831561070b576001016106e1565b5050505b979650505050505050565b6107226119ca565b8761072c816113a2565b63ffffffff88111561076357604051638444f64b60e01b81526004810189905263ffffffff60248201526044015b60405180910390fd5b633b9aca0086111561078b576040516321e5c74960e21b81526004810187905260240161075a565b6001600160701b038711156107c357604051632dd7f24160e01b8152600481018890526001600160701b03602482015260440161075a565b826000036107cf574292505b65ffffffffffff6107e08985611cf8565b1115610819576107f08884611cf8565b604051632ce261d560e21b8152600481019190915265ffffffffffff602482015260440161075a565b6001600160a01b0385161561091857846001600160a01b03163b60000361085e5760405163045b9cdd60e31b81526001600160a01b038616600482015260240161075a565b6040516301ffc9a760e01b8152634b80c8df60e01b60048201526001600160a01b038616906301ffc9a790602401602060405180830381865afa9250505080156108c5575060408051601f3d908101601f191682019092526108c291810190611d48565b60015b6108ed5760405163045b9cdd60e31b81526001600160a01b038616600482015260240161075a565b806109165760405163045b9cdd60e31b81526001600160a01b038716600482015260240161075a565b505b60008981526020819052604081205490428210156109365742610941565b610941826001611cf8565b905061094f8b828b886114ec565b6001600160a01b038716151580610966575060008a115b806109715750600088115b156109a85760008b8152600360209081526040808320848452909152902060c089901b60a08c901b6001600160a01b038a16171790555b85156109cb5760008b815260016020908152604080832084845290915290208690555b604080518b8152602081018b90529081018990526001600160a01b03881660608201526080810187905260a081018690523360c08201528b9082907f11a490bebff1beffe4bdd210894aca6ea5049427ce4b3c48865717677199cb079060e00160405180910390a3610a3d8b82610e90565b9b9a5050505050505050505050565b610a546119ca565b600082815260208190526040812054610a6d8482610e90565b9250610a9f84846020015165ffffffffffff16856060015165ffffffffffff16866040015165ffffffffffff16611757565b915050915091565b600081815260208190526040812054610ac1908390610e90565b9050806080015163ffffffff1660001480610ae4575060c081015163ffffffff16155b15610aed575050565b60008281526004602090815260408083208483015165ffffffffffff16845290915281206080830151600182015491929163ffffffff90911690610b3d9061c350906001600160a81b0316611cf8565b610b479190611d6a565b836060015165ffffffffffff16610b5e9190611cf8565b90506000814210610b6f5781610b71565b425b90506000846060015165ffffffffffff1682610b8d9190611d0b565b90506000856080015163ffffffff168281610baa57610baa611d1e565b049050610bf587876060015165ffffffffffff16886080015163ffffffff168960a001516001600160701b03168a60c0015163ffffffff168b6020015165ffffffffffff16896105fe565b85546dffffffffffffffffffffffffffff19166001600160701b039190911690811786556001860180546001600160a81b0319166001600160a81b038416908117909155604080518a815260208101939093528201523360608201527f10eae80a31644a6399eaac72c95b18a77049f4192107734621f4cdce85b457729060800160405180910390a150505050505050565b600082600003610c985750806105f7565b6000610ca48486611cf8565b9050828110610cb45790506105f7565b600084610cc18386611d0b565b610ccb9190611d81565b9050610cd78185611d0b565b92505b82841115610cf357610cec8584611cf8565b9250610cda565b50509392505050565b60008181526020819052604081205481610d168483610e90565b905061029084826020015165ffffffffffff16836060015165ffffffffffff16846040015165ffffffffffff16611757565b606082600003610d645760008481526020819052604090205492505b600080610d718686610e90565b90505b602081015165ffffffffffff1615801590610d8e57508382105b15610dbd5781610d9d81611d95565b925050610db686826040015165ffffffffffff16610e90565b9050610d74565b8167ffffffffffffffff811115610dd657610dd6611dae565b604051908082528060200260200182016040528015610e0f57816020015b610dfc6119ca565b815260200190600190039081610df45790505b50925081600003610e215750506105f7565b610e2b8686610e90565b905060005b82811015610e8657818482610e4481611d95565b935081518110610e5657610e56611dc4565b6020026020010181905250828114610e8157610e7e87836040015165ffffffffffff16610e90565b91505b610e30565b5050509392505050565b610e986119ca565b81156102ad5765ffffffffffff82811660208381019190915260008581526002825260408082208683528352808220546001600160701b03811660a080880191909152607082901c86168388015281811c909516606087015260d01c8552868252600383528082208683528352808220546001600160a01b03811660e08701529384901c63ffffffff908116608087015260c094851c1693850193909352948552600181528185209385529290925291205461010082015290565b60008181526020819052604081205490610f6d8383610e90565b9050806060015165ffffffffffff164210610f8b5750600092915050565b805165ffffffffffff16600103610fa25750919050565b604081015165ffffffffffff16610fb76119ca565b610fc18583610e90565b9050806060015165ffffffffffff16421015610ffa57806020015165ffffffffffff169350806040015165ffffffffffff169150610fb7565b6110048585610e90565b9250806080015163ffffffff166000141580156110415750806080015163ffffffff1683606001516110369190611dda565b65ffffffffffff1642105b1561105157506000949350505050565b505050919050565b60006102aa83836020015165ffffffffffff16846060015165ffffffffffff16856040015165ffffffffffff16611757565b6110936119ca565b600082156110c05760808401516110b09063ffffffff1642611d0b565b6110bb906001611cf8565b6110cb565b6110cb426001611cf8565b905060006110f0856060015165ffffffffffff16866080015163ffffffff1684610c87565b90506000611122866000015165ffffffffffff16876060015165ffffffffffff16886080015163ffffffff168561024e565b90506040518061012001604052808265ffffffffffff168152602001876020015165ffffffffffff168152602001876040015165ffffffffffff1681526020018365ffffffffffff168152602001876080015163ffffffff1681526020016111c889896060015165ffffffffffff168a6080015163ffffffff168b60a001516001600160701b03168c60c0015163ffffffff168d6020015165ffffffffffff168a6105fe565b6001600160701b031681526020018760c0015163ffffffff1681526020018760e001516001600160a01b0316815260200187610100015181525093505050509392505050565b600081815260208190526040812054816112288483610e90565b90505b608081015163ffffffff16158015906112655750806080015163ffffffff1681606001516112599190611e00565b65ffffffffffff164210155b15611274575060009392505050565b806060015165ffffffffffff16421061129a576020015165ffffffffffff169392505050565b6112b084826040015165ffffffffffff16610e90565b805190915065ffffffffffff1660000361122b575060009392505050565b6000808060001985870985870292508281108382030391505080600003611308578382816112fe576112fe611d1e565b04925050506105f7565b83811061133957604051630c740aef60e31b815260048101879052602481018690526044810185905260640161075a565b60008486880960026001871981018816978890046003810283188082028403028082028403028082028403028082028403028082028403029081029092039091026000889003889004909101858311909403939093029303949094049190911702949350505050565b604051632eec7b5560e11b81526004810182905233906001600160a01b037f00000000000000000000000000000000000000000000000000000000000000001690635dd8f6aa90602401602060405180830381865afa158015611409573d6000803e3d6000fd5b505050506040513d601f19601f8201168201806040525081019061142d9190611e1f565b6001600160a01b0316146114e957604051632eec7b5560e11b8152600481018290527f00000000000000000000000000000000000000000000000000000000000000006001600160a01b031690635dd8f6aa90602401602060405180830381865afa1580156114a0573d6000803e3d6000fd5b505050506040513d601f19601f820116820180604052508101906114c49190611e1f565b604051639a007b3960e01b81526001600160a01b03909116600482015260240161075a565b50565b600084815260208190526040812054908190036115205761151a85611512600080610e90565b868587611811565b50611751565b600061152c8683610e90565b9050600061153a8783611059565b9050816060015165ffffffffffff16421015801561156a5750600481600581111561156757611567611c04565b14155b80156115885750600081600581111561158557611585611c04565b14155b806115e75750816060015165ffffffffffff16421080156115c95750816080015163ffffffff1682606001516115be9190611e00565b65ffffffffffff1684105b80156115e7575060048160058111156115e4576115e4611c04565b14155b806116835750816060015165ffffffffffff16421080156116295750816080015163ffffffff16826060015161161d9190611e00565b65ffffffffffff168410155b80156116475750600481600581111561164457611644611c04565b14155b80156116655750600381600581111561166257611662611c04565b14155b80156116835750600081600581111561168057611680611c04565b14155b156116a15761169e87836040015165ffffffffffff16610e90565b91505b60e08201516000906001600160a01b03161561172c578260e001516001600160a01b0316631be052896040518163ffffffff1660e01b8152600401602060405180830381865afa1580156116f9573d6000803e3d6000fd5b505050506040513d601f19601f8201168201806040525081019061171d9190611e3c565b6117279088611cf8565b61172f565b60005b905061174c8884898885116117445788611746565b845b8a611811565b505050505b50505050565b60008160000361176957506000610290565b60006117758684610e90565b60e08101519091506001600160a01b0316611794576000915050610290565b60e08101516040516328304d2b60e11b81526004810188905260248101879052604481018690526001600160a01b03909116906350609a5690606401602060405180830381865afa1580156117ed573d6000803e3d6000fd5b505050506040513d601f19601f8201168201806040525081019061028c9190611e55565b835165ffffffffffff166000036118695760208085015160008781526002835260408082208783529093529190912065ffffffffffff60701b60709290921b91909116821760a084901b17600160d01b17905561196d565b600061188c856060015165ffffffffffff16866080015163ffffffff1685610c87565b9050600082116118e3576118de86866060015165ffffffffffff16876080015163ffffffff168860a001516001600160701b03168960c0015163ffffffff168a6020015165ffffffffffff16876105fe565b6118f4565b816001146118f157816118f4565b60005b91506000611926866000015165ffffffffffff16876060015165ffffffffffff16886080015163ffffffff168561024e565b60208088015160008a81526002835260408082208a83529093529190912065ffffffffffff60701b60709290921b91909116851760a085901b1760d083901b179055905050505b6000858152602081815260409182902085905585810151915133815265ffffffffffff90921691879186917f470520533918800d64f06ee1795a39e90ff3c27a15350a235e17bd23698a470e910160405180910390a45050505050565b6040805161012081018252600080825260208201819052918101829052606081018290526080810182905260a0810182905260c0810182905260e0810182905261010081019190915290565b60008060008060808587031215611a2c57600080fd5b5050823594602084013594506040840135936060013592509050565b60008060408385031215611a5b57600080fd5b50508035926020909101359150565b65ffffffffffff808251168352806020830151166020840152806040830151166040840152506060810151611aa9606084018265ffffffffffff169052565b506080810151611ac1608084018263ffffffff169052565b5060a0810151611adc60a08401826001600160701b03169052565b5060c0810151611af460c084018263ffffffff169052565b5060e0810151611b0f60e08401826001600160a01b03169052565b5061010090810151910152565b61012081016102ad8284611a6a565b600060208284031215611b3d57600080fd5b5035919050565b600080600080600080600060e0888a031215611b5f57600080fd5b505085359760208701359750604087013596606081013596506080810135955060a0810135945060c0013592509050565b6001600160a01b03811681146114e957600080fd5b600080600080600080600060e0888a031215611bc057600080fd5b873596506020880135955060408801359450606088013593506080880135611be781611b90565b9699959850939692959460a0840135945060c09093013592915050565b634e487b7160e01b600052602160045260246000fd5b60068110611c3857634e487b7160e01b600052602160045260246000fd5b9052565b6101408101611c4b8285611a6a565b6105f7610120830184611c1a565b600080600060608486031215611c6e57600080fd5b505081359360208301359350604090920135919050565b602081016102ad8284611c1a565b6020808252825182820181905260009190848201906040850190845b81811015611cd657611cc2838551611a6a565b928401926101209290920191600101611caf565b50909695505050505050565b634e487b7160e01b600052601160045260246000fd5b808201808211156102ad576102ad611ce2565b818103818111156102ad576102ad611ce2565b634e487b7160e01b600052601260045260246000fd5b600082611d4357611d43611d1e565b500490565b600060208284031215611d5a57600080fd5b815180151581146105f757600080fd5b80820281158282048414176102ad576102ad611ce2565b600082611d9057611d90611d1e565b500690565b600060018201611da757611da7611ce2565b5060010190565b634e487b7160e01b600052604160045260246000fd5b634e487b7160e01b600052603260045260246000fd5b65ffffffffffff828116828216039080821115611df957611df9611ce2565b5092915050565b65ffffffffffff818116838216019080821115611df957611df9611ce2565b600060208284031215611e3157600080fd5b81516105f781611b90565b600060208284031215611e4e57600080fd5b5051919050565b600060208284031215611e6757600080fd5b8151600681106105f757600080fdfea264697066735822122008fd90efd08181af760b458b0b1d20dc13e1a8f70bdb0accd499dd44b01d71c864736f6c63430008170033",
	"deployedBytecode": "0x608060405234801561001057600080fd5b50600436106100cf5760003560e01c806370174dcc1161008c5780638b04533a116100665780638b04533a146101e6578063bfc48c9e146101fb578063d7e1ec881461020e578063fe81dd801461022e57600080fd5b806370174dcc14610173578063855a54ed1461018657806388bc2ef3146101a757600080fd5b80631b9b2e5f146100d457806325a61d5c146100fa5780632e6bc58a1461011a57806333f5bd0a1461012d57806343a266c21461014d578063441c0cc514610160575b600080fd5b6100e76100e2366004611a16565b61024e565b6040519081526020015b60405180910390f35b61010d610108366004611a48565b610298565b6040516100f19190611b1c565b61010d610128366004611b2b565b6102b3565b6100e761013b366004611b2b565b60006020819052908152604090205481565b61010d61015b366004611b2b565b610478565b6100e761016e366004611b44565b6105fe565b61010d610181366004611ba5565b61071a565b610199610194366004611b2b565b610a4c565b6040516100f1929190611c3c565b6101ce7f0000000000000000000000005adb234602d074064c216c1fdb23c6c2031f0c7581565b6040516001600160a01b0390911681526020016100f1565b6101f96101f4366004611b2b565b610aa7565b005b6100e7610209366004611c59565b610c87565b61022161021c366004611b2b565b610cfc565b6040516100f19190611c85565b61024161023c366004611c59565b610d48565b6040516100f19190611c93565b60008260000361026a57610263856001611cf8565b9050610290565b60006102768584611d0b565b90506102828482611d34565b61028c9087611cf8565b9150505b949350505050565b6102a06119ca565b6102aa8383610e90565b90505b92915050565b6102bb6119ca565b60008281526020819052604081205490036102db576102ad600080610e90565b60006102e683610f53565b90506000811561037e576102fa8483610e90565b92506103068484611059565b9050600481600581111561031c5761031c611c04565b14806103395750600381600581111561033757610337611c04565b145b806103555750600081600581111561035357610353611c04565b145b15610361575050919050565b61037784846040015165ffffffffffff16610e90565b92506103cc565b600084815260208190526040902054610398908590610e90565b92505b42836060015165ffffffffffff1611156103cc576103c584846040015165ffffffffffff16610e90565b925061039b565b826080015163ffffffff166000036103e957610290600080610e90565b6103f38484611059565b9050600481600581111561040957610409611c04565b14806104265750600081600581111561042457610424611c04565b145b15610437576102908484600061108b565b61044d84846040015165ffffffffffff16610e90565b9250826080015163ffffffff1660000361046c57610290600080610e90565b6102908484600061108b565b6104806119ca565b60008281526020819052604081205490036104a0576102ad600080610e90565b60006104ab8361120e565b9050801561052b576104bd8382610e90565b915060006104cb8484611059565b905060048160058111156104e1576104e1611c04565b14806104fe575060008160058111156104fc576104fc611c04565b145b1561050a575050919050565b826040015165ffffffffffff1691506105238483610e90565b9250506105d3565b506000828152602081905260409020546105458382610e90565b915060006105538484611059565b90505b600481600581111561056a5761056a611c04565b1415801561058a5750600081600581111561058757610587611c04565b14155b806105a05750826060015165ffffffffffff1642105b156105d157826040015165ffffffffffff1691506105be8483610e90565b92506105ca8484611059565b9050610556565b505b816080015163ffffffff166000036105eb5750919050565b6105f78383600161108b565b9392505050565b60008560000361062b576106248561061a86633b9aca00611d0b565b633b9aca006112ce565b905061070f565b5083831561070f57600061063f8884611d0b565b9050600087828161065257610652611d1e565b04905060008511801561066657506103e881115b156106de5760008a8152600460209081526040808320888452825291829020825180840190935280546001600160701b03168352600101546001600160a81b0316908201819052156106dc57805160208201516001600160701b0390911694506106d9906001600160a81b031683611d0b565b91505b505b60005b8181101561070b576106fb8461061a89633b9aca00611d0b565b9350831561070b576001016106e1565b5050505b979650505050505050565b6107226119ca565b8761072c816113a2565b63ffffffff88111561076357604051638444f64b60e01b81526004810189905263ffffffff60248201526044015b60405180910390fd5b633b9aca0086111561078b576040516321e5c74960e21b81526004810187905260240161075a565b6001600160701b038711156107c357604051632dd7f24160e01b8152600481018890526001600160701b03602482015260440161075a565b826000036107cf574292505b65ffffffffffff6107e08985611cf8565b1115610819576107f08884611cf8565b604051632ce261d560e21b8152600481019190915265ffffffffffff602482015260440161075a565b6001600160a01b0385161561091857846001600160a01b03163b60000361085e5760405163045b9cdd60e31b81526001600160a01b038616600482015260240161075a565b6040516301ffc9a760e01b8152634b80c8df60e01b60048201526001600160a01b038616906301ffc9a790602401602060405180830381865afa9250505080156108c5575060408051601f3d908101601f191682019092526108c291810190611d48565b60015b6108ed5760405163045b9cdd60e31b81526001600160a01b038616600482015260240161075a565b806109165760405163045b9cdd60e31b81526001600160a01b038716600482015260240161075a565b505b60008981526020819052604081205490428210156109365742610941565b610941826001611cf8565b905061094f8b828b886114ec565b6001600160a01b038716151580610966575060008a115b806109715750600088115b156109a85760008b8152600360209081526040808320848452909152902060c089901b60a08c901b6001600160a01b038a16171790555b85156109cb5760008b815260016020908152604080832084845290915290208690555b604080518b8152602081018b90529081018990526001600160a01b03881660608201526080810187905260a081018690523360c08201528b9082907f11a490bebff1beffe4bdd210894aca6ea5049427ce4b3c48865717677199cb079060e00160405180910390a3610a3d8b82610e90565b9b9a5050505050505050505050565b610a546119ca565b600082815260208190526040812054610a6d8482610e90565b9250610a9f84846020015165ffffffffffff16856060015165ffffffffffff16866040015165ffffffffffff16611757565b915050915091565b600081815260208190526040812054610ac1908390610e90565b9050806080015163ffffffff1660001480610ae4575060c081015163ffffffff16155b15610aed575050565b60008281526004602090815260408083208483015165ffffffffffff16845290915281206080830151600182015491929163ffffffff90911690610b3d9061c350906001600160a81b0316611cf8565b610b479190611d6a565b836060015165ffffffffffff16610b5e9190611cf8565b90506000814210610b6f5781610b71565b425b90506000846060015165ffffffffffff1682610b8d9190611d0b565b90506000856080015163ffffffff168281610baa57610baa611d1e565b049050610bf587876060015165ffffffffffff16886080015163ffffffff168960a001516001600160701b03168a60c0015163ffffffff168b6020015165ffffffffffff16896105fe565b85546dffffffffffffffffffffffffffff19166001600160701b039190911690811786556001860180546001600160a81b0319166001600160a81b038416908117909155604080518a815260208101939093528201523360608201527f10eae80a31644a6399eaac72c95b18a77049f4192107734621f4cdce85b457729060800160405180910390a150505050505050565b600082600003610c985750806105f7565b6000610ca48486611cf8565b9050828110610cb45790506105f7565b600084610cc18386611d0b565b610ccb9190611d81565b9050610cd78185611d0b565b92505b82841115610cf357610cec8584611cf8565b9250610cda565b50509392505050565b60008181526020819052604081205481610d168483610e90565b905061029084826020015165ffffffffffff16836060015165ffffffffffff16846040015165ffffffffffff16611757565b606082600003610d645760008481526020819052604090205492505b600080610d718686610e90565b90505b602081015165ffffffffffff1615801590610d8e57508382105b15610dbd5781610d9d81611d95565b925050610db686826040015165ffffffffffff16610e90565b9050610d74565b8167ffffffffffffffff811115610dd657610dd6611dae565b604051908082528060200260200182016040528015610e0f57816020015b610dfc6119ca565b815260200190600190039081610df45790505b50925081600003610e215750506105f7565b610e2b8686610e90565b905060005b82811015610e8657818482610e4481611d95565b935081518110610e5657610e56611dc4565b6020026020010181905250828114610e8157610e7e87836040015165ffffffffffff16610e90565b91505b610e30565b5050509392505050565b610e986119ca565b81156102ad5765ffffffffffff82811660208381019190915260008581526002825260408082208683528352808220546001600160701b03811660a080880191909152607082901c86168388015281811c909516606087015260d01c8552868252600383528082208683528352808220546001600160a01b03811660e08701529384901c63ffffffff908116608087015260c094851c1693850193909352948552600181528185209385529290925291205461010082015290565b60008181526020819052604081205490610f6d8383610e90565b9050806060015165ffffffffffff164210610f8b5750600092915050565b805165ffffffffffff16600103610fa25750919050565b604081015165ffffffffffff16610fb76119ca565b610fc18583610e90565b9050806060015165ffffffffffff16421015610ffa57806020015165ffffffffffff169350806040015165ffffffffffff169150610fb7565b6110048585610e90565b9250806080015163ffffffff166000141580156110415750806080015163ffffffff1683606001516110369190611dda565b65ffffffffffff1642105b1561105157506000949350505050565b505050919050565b60006102aa83836020015165ffffffffffff16846060015165ffffffffffff16856040015165ffffffffffff16611757565b6110936119ca565b600082156110c05760808401516110b09063ffffffff1642611d0b565b6110bb906001611cf8565b6110cb565b6110cb426001611cf8565b905060006110f0856060015165ffffffffffff16866080015163ffffffff1684610c87565b90506000611122866000015165ffffffffffff16876060015165ffffffffffff16886080015163ffffffff168561024e565b90506040518061012001604052808265ffffffffffff168152602001876020015165ffffffffffff168152602001876040015165ffffffffffff1681526020018365ffffffffffff168152602001876080015163ffffffff1681526020016111c889896060015165ffffffffffff168a6080015163ffffffff168b60a001516001600160701b03168c60c0015163ffffffff168d6020015165ffffffffffff168a6105fe565b6001600160701b031681526020018760c0015163ffffffff1681526020018760e001516001600160a01b0316815260200187610100015181525093505050509392505050565b600081815260208190526040812054816112288483610e90565b90505b608081015163ffffffff16158015906112655750806080015163ffffffff1681606001516112599190611e00565b65ffffffffffff164210155b15611274575060009392505050565b806060015165ffffffffffff16421061129a576020015165ffffffffffff169392505050565b6112b084826040015165ffffffffffff16610e90565b805190915065ffffffffffff1660000361122b575060009392505050565b6000808060001985870985870292508281108382030391505080600003611308578382816112fe576112fe611d1e565b04925050506105f7565b83811061133957604051630c740aef60e31b815260048101879052602481018690526044810185905260640161075a565b60008486880960026001871981018816978890046003810283188082028403028082028403028082028403028082028403028082028403029081029092039091026000889003889004909101858311909403939093029303949094049190911702949350505050565b604051632eec7b5560e11b81526004810182905233906001600160a01b037f0000000000000000000000005adb234602d074064c216c1fdb23c6c2031f0c751690635dd8f6aa90602401602060405180830381865afa158015611409573d6000803e3d6000fd5b505050506040513d601f19601f8201168201806040525081019061142d9190611e1f565b6001600160a01b0316146114e957604051632eec7b5560e11b8152600481018290527f0000000000000000000000005adb234602d074064c216c1fdb23c6c2031f0c756001600160a01b031690635dd8f6aa90602401602060405180830381865afa1580156114a0573d6000803e3d6000fd5b505050506040513d601f19601f820116820180604052508101906114c49190611e1f565b604051639a007b3960e01b81526001600160a01b03909116600482015260240161075a565b50565b600084815260208190526040812054908190036115205761151a85611512600080610e90565b868587611811565b50611751565b600061152c8683610e90565b9050600061153a8783611059565b9050816060015165ffffffffffff16421015801561156a5750600481600581111561156757611567611c04565b14155b80156115885750600081600581111561158557611585611c04565b14155b806115e75750816060015165ffffffffffff16421080156115c95750816080015163ffffffff1682606001516115be9190611e00565b65ffffffffffff1684105b80156115e7575060048160058111156115e4576115e4611c04565b14155b806116835750816060015165ffffffffffff16421080156116295750816080015163ffffffff16826060015161161d9190611e00565b65ffffffffffff168410155b80156116475750600481600581111561164457611644611c04565b14155b80156116655750600381600581111561166257611662611c04565b14155b80156116835750600081600581111561168057611680611c04565b14155b156116a15761169e87836040015165ffffffffffff16610e90565b91505b60e08201516000906001600160a01b03161561172c578260e001516001600160a01b0316631be052896040518163ffffffff1660e01b8152600401602060405180830381865afa1580156116f9573d6000803e3d6000fd5b505050506040513d601f19601f8201168201806040525081019061171d9190611e3c565b6117279088611cf8565b61172f565b60005b905061174c8884898885116117445788611746565b845b8a611811565b505050505b50505050565b60008160000361176957506000610290565b60006117758684610e90565b60e08101519091506001600160a01b0316611794576000915050610290565b60e08101516040516328304d2b60e11b81526004810188905260248101879052604481018690526001600160a01b03909116906350609a5690606401602060405180830381865afa1580156117ed573d6000803e3d6000fd5b505050506040513d601f19601f8201168201806040525081019061028c9190611e55565b835165ffffffffffff166000036118695760208085015160008781526002835260408082208783529093529190912065ffffffffffff60701b60709290921b91909116821760a084901b17600160d01b17905561196d565b600061188c856060015165ffffffffffff16866080015163ffffffff1685610c87565b9050600082116118e3576118de86866060015165ffffffffffff16876080015163ffffffff168860a001516001600160701b03168960c0015163ffffffff168a6020015165ffffffffffff16876105fe565b6118f4565b816001146118f157816118f4565b60005b91506000611926866000015165ffffffffffff16876060015165ffffffffffff16886080015163ffffffff168561024e565b60208088015160008a81526002835260408082208a83529093529190912065ffffffffffff60701b60709290921b91909116851760a085901b1760d083901b179055905050505b6000858152602081815260409182902085905585810151915133815265ffffffffffff90921691879186917f470520533918800d64f06ee1795a39e90ff3c27a15350a235e17bd23698a470e910160405180910390a45050505050565b6040805161012081018252600080825260208201819052918101829052606081018290526080810182905260a0810182905260c0810182905260e0810182905261010081019190915290565b60008060008060808587031215611a2c57600080fd5b5050823594602084013594506040840135936060013592509050565b60008060408385031215611a5b57600080fd5b50508035926020909101359150565b65ffffffffffff808251168352806020830151166020840152806040830151166040840152506060810151611aa9606084018265ffffffffffff169052565b506080810151611ac1608084018263ffffffff169052565b5060a0810151611adc60a08401826001600160701b03169052565b5060c0810151611af460c084018263ffffffff169052565b5060e0810151611b0f60e08401826001600160a01b03169052565b5061010090810151910152565b61012081016102ad8284611a6a565b600060208284031215611b3d57600080fd5b5035919050565b600080600080600080600060e0888a031215611b5f57600080fd5b505085359760208701359750604087013596606081013596506080810135955060a0810135945060c0013592509050565b6001600160a01b03811681146114e957600080fd5b600080600080600080600060e0888a031215611bc057600080fd5b873596506020880135955060408801359450606088013593506080880135611be781611b90565b9699959850939692959460a0840135945060c09093013592915050565b634e487b7160e01b600052602160045260246000fd5b60068110611c3857634e487b7160e01b600052602160045260246000fd5b9052565b6101408101611c4b8285611a6a565b6105f7610120830184611c1a565b600080600060608486031215611c6e57600080fd5b505081359360208301359350604090920135919050565b602081016102ad8284611c1a565b6020808252825182820181905260009190848201906040850190845b81811015611cd657611cc2838551611a6a565b928401926101209290920191600101611caf565b50909695505050505050565b634e487b7160e01b600052601160045260246000fd5b808201808211156102ad576102ad611ce2565b818103818111156102ad576102ad611ce2565b634e487b7160e01b600052601260045260246000fd5b600082611d4357611d43611d1e565b500490565b600060208284031215611d5a57600080fd5b815180151581146105f757600080fd5b80820281158282048414176102ad576102ad611ce2565b600082611d9057611d90611d1e565b500690565b600060018201611da757611da7611ce2565b5060010190565b634e487b7160e01b600052604160045260246000fd5b634e487b7160e01b600052603260045260246000fd5b65ffffffffffff828116828216039080821115611df957611df9611ce2565b5092915050565b65ffffffffffff818116838216019080821115611df957611df9611ce2565b600060208284031215611e3157600080fd5b81516105f781611b90565b600060208284031215611e4e57600080fd5b5051919050565b600060208284031215611e6757600080fd5b8151600681106105f757600080fdfea264697066735822122008fd90efd08181af760b458b0b1d20dc13e1a8f70bdb0accd499dd44b01d71c864736f6c63430008170033",
	"devdoc": {
		"kind": "dev",
		"methods": {
			"allOf(uint256,uint256,uint256)": {
				"params": {
					"projectId": "The ID of the project to get the rulesets of.",
					"size": "The maximum number of rulesets to return.",
					"startingId": "The ID of the ruleset to begin with. This will be the latest ruleset in the result. If 0 is passed, the project's latest ruleset will be used."
				},
				"returns": {
					"rulesets": "The rulesets as an array of `JBRuleset` structs."
				}
			},
			"constructor": {
				"params": {
					"directory": "A contract storing directories of terminals and controllers for each project."
				}
			},
			"currentApprovalStatusForLatestRulesetOf(uint256)": {
				"params": {
					"projectId": "The ID of the project to check the approval status of."
				},
				"returns": {
					"_0": "The project's current approval status."
				}
			},
			"currentOf(uint256)": {
				"details": "If a current ruleset of the project is not found, returns an empty ruleset with all properties set to 0.",
				"params": {
					"projectId": "The ID of the project to get the current ruleset of."
				},
				"returns": {
					"ruleset": "The project's current ruleset."
				}
			},
			"deriveCycleNumberFrom(uint256,uint256,uint256,uint256)": {
				"details": "Each time a ruleset starts, whether it was queued or cycled over, the cycle number is incremented by 1.",
				"params": {
					"baseRulesetCycleNumber": "The cycle number of the base ruleset.",
					"baseRulesetDuration": "The duration of the base ruleset.",
					"baseRulesetStart": "The start time of the base ruleset.",
					"start": "The start time of the ruleset to derive a cycle number for."
				},
				"returns": {
					"_0": "The ruleset's cycle number."
				}
			},
			"deriveStartFrom(uint256,uint256,uint256)": {
				"params": {
					"baseRulesetDuration": "The duration of the base ruleset.",
					"baseRulesetStart": "The start time of the base ruleset.",
					"mustStartAtOrAfter": "The earliest time the next ruleset can start. The ruleset cannot start before this timestamp."
				},
				"returns": {
					"start": "The next start time."
				}
			},
			"deriveWeightFrom(uint256,uint256,uint256,uint256,uint256,uint256,uint256)": {
				"params": {
					"baseRulesetCacheId": "The ID of the ruleset to base the calculation on (the previous ruleset).",
					"baseRulesetDuration": "The duration of the base ruleset.",
					"baseRulesetStart": "The start time of the base ruleset.",
					"baseRulesetWeight": "The weight of the base ruleset.",
					"baseRulesetWeightCutPercent": "The weight cut percent of the base ruleset.",
					"projectId": "The ID of the project to which the ruleset weights apply.",
					"start": "The start time of the ruleset to derive a weight for."
				},
				"returns": {
					"weight": "The derived weight, as a fixed point number with 18 decimals."
				}
			},
			"getRulesetOf(uint256,uint256)": {
				"params": {
					"projectId": "The ID of the project to which the ruleset belongs.",
					"rulesetId": "The ID of the ruleset to get the struct of."
				},
				"returns": {
					"ruleset": "The ruleset struct."
				}
			},
			"latestQueuedOf(uint256)": {
				"details": "Returns struct and status for the ruleset initialized furthest in the future (at the end of the rulset queue).",
				"params": {
					"projectId": "The ID of the project to get the latest queued ruleset of."
				},
				"returns": {
					"approvalStatus": "The approval hook's status for the ruleset.",
					"ruleset": "The project's latest queued ruleset's struct."
				}
			},
			"queueFor(uint256,uint256,uint256,uint256,address,uint256,uint256)": {
				"details": "Only a project's current controller can queue its rulesets.",
				"params": {
					"approvalHook": "A contract which dictates whether a proposed ruleset should be accepted or rejected. It can be used to constrain a project owner's ability to change ruleset parameters over time.",
					"duration": "The number of seconds the ruleset lasts for, after which a new ruleset starts. - A `duration` of 0 means this ruleset will remain active until the project owner queues a new ruleset. That new ruleset will start immediately. - A ruleset with a non-zero `duration` applies until the duration ends – any newly queued rulesets will be *queued* to take effect afterwards. - If a duration ends and no new rulesets are queued, the ruleset rolls over to a new ruleset with the same rules (except for a new `start` timestamp and a cut `weight`).",
					"metadata": "Arbitrary extra data to associate with this ruleset. This metadata is not used by `JBRulesets`.",
					"mustStartAtOrAfter": "The earliest time the ruleset can start. The ruleset cannot start before this timestamp.",
					"projectId": "The ID of the project to queue the ruleset for.",
					"weight": "A fixed point number with 18 decimals that contracts can use to base arbitrary calculations on. Payment terminals generally use this to determine how many tokens should be minted when the project is paid.",
					"weightCutPercent": "A fraction (out of `JBConstants.MAX_WEIGHT_CUT_PERCENT`) to reduce the next ruleset's `weight` by. - If a ruleset specifies a non-zero `weight`, the `weightCutPercent` does not apply. - If the `weightCutPercent` is 0, the `weight` stays the same. - If the `weightCutPercent` is 10% of `JBConstants.MAX_WEIGHT_CUT_PERCENT`, next ruleset's `weight` will be 90% of the current one."
				},
				"returns": {
					"_0": "The struct of the new ruleset."
				}
			},
			"upcomingOf(uint256)": {
				"details": "If an upcoming ruleset is not found for the project, returns an empty ruleset with all properties set to 0.",
				"params": {
					"projectId": "The ID of the project to get the upcoming ruleset of."
				},
				"returns": {
					"ruleset": "The struct for the project's upcoming ruleset."
				}
			},
			"updateRulesetWeightCache(uint256)": {
				"params": {
					"projectId": "The ID of the project having its ruleset weight cached."
				}
			}
		},
		"version": 1
	},
	"userdoc": {
		"kind": "user",
		"methods": {
			"DIRECTORY()": {
				"notice": "The directory of terminals and controllers for projects."
			},
			"allOf(uint256,uint256,uint256)": {
				"notice": "Get an array of a project's rulesets up to a maximum array size, sorted from latest to earliest."
			},
			"currentApprovalStatusForLatestRulesetOf(uint256)": {
				"notice": "The current approval status of a given project's latest ruleset."
			},
			"currentOf(uint256)": {
				"notice": "The ruleset that is currently active for the specified project."
			},
			"deriveCycleNumberFrom(uint256,uint256,uint256,uint256)": {
				"notice": "The cycle number of the next ruleset given the specified ruleset."
			},
			"deriveStartFrom(uint256,uint256,uint256)": {
				"notice": "The date that is the nearest multiple of the base ruleset's duration from the start of the next cycle."
			},
			"deriveWeightFrom(uint256,uint256,uint256,uint256,uint256,uint256,uint256)": {
				"notice": "The accumulated weight change since the specified ruleset."
			},
			"getRulesetOf(uint256,uint256)": {
				"notice": "Get the ruleset struct for a given `rulesetId` and `projectId`."
			},
			"latestQueuedOf(uint256)": {
				"notice": "The latest ruleset queued for a project. Returns the ruleset's struct and its current approval status."
			},
			"latestRulesetIdOf(uint256)": {
				"notice": "The ID of the ruleset with the latest start time for a specific project, whether the ruleset has been approved or not."
			},
			"queueFor(uint256,uint256,uint256,uint256,address,uint256,uint256)": {
				"notice": "Queues the upcoming approvable ruleset for the specified project."
			},
			"upcomingOf(uint256)": {
				"notice": "The ruleset that's up next for a project."
			},
			"updateRulesetWeightCache(uint256)": {
				"notice": "Cache the value of the ruleset weight."
			}
		},
		"version": 1
	},
	"gitCommit": "621b4728594b015d227adf08d7af07a2ea0ba570",
	"sourceName": "src/JBRulesets.sol",
	"chainId": "11155111",
	"linkReferences": {},
	"deployedLinkReferences": {},
	"history": []
}