{
	"_format": "sphinx-sol-ct-artifact-1",
	"merkleRoot": "0x2eed67fcf1763eec7ef14ca888c00e6e0d2358663046a3e4367e42ef35bdfba4",
	"contractName": "JBRulesets",
	"address": "0x8De478a6071AD66Bf99c770AEA0cEdcDDDa72F43",
	"abi": [
		{
			"type": "constructor",
			"inputs": [
				{
					"name": "directory",
					"type": "address",
					"internalType": "contract IJBDirectory"
				}
			],
			"stateMutability": "nonpayable"
		},
		{
			"type": "function",
			"name": "DIRECTORY",
			"inputs": [],
			"outputs": [
				{
					"name": "",
					"type": "address",
					"internalType": "contract IJBDirectory"
				}
			],
			"stateMutability": "view"
		},
		{
			"type": "function",
			"name": "allOf",
			"inputs": [
				{
					"name": "projectId",
					"type": "uint256",
					"internalType": "uint256"
				},
				{
					"name": "startingId",
					"type": "uint256",
					"internalType": "uint256"
				},
				{
					"name": "size",
					"type": "uint256",
					"internalType": "uint256"
				}
			],
			"outputs": [
				{
					"name": "rulesets",
					"type": "tuple[]",
					"internalType": "struct JBRuleset[]",
					"components": [
						{
							"name": "cycleNumber",
							"type": "uint48",
							"internalType": "uint48"
						},
						{
							"name": "id",
							"type": "uint48",
							"internalType": "uint48"
						},
						{
							"name": "basedOnId",
							"type": "uint48",
							"internalType": "uint48"
						},
						{
							"name": "start",
							"type": "uint48",
							"internalType": "uint48"
						},
						{
							"name": "duration",
							"type": "uint32",
							"internalType": "uint32"
						},
						{
							"name": "weight",
							"type": "uint112",
							"internalType": "uint112"
						},
						{
							"name": "decayPercent",
							"type": "uint32",
							"internalType": "uint32"
						},
						{
							"name": "approvalHook",
							"type": "address",
							"internalType": "contract IJBRulesetApprovalHook"
						},
						{
							"name": "metadata",
							"type": "uint256",
							"internalType": "uint256"
						}
					]
				}
			],
			"stateMutability": "view"
		},
		{
			"type": "function",
			"name": "currentApprovalStatusForLatestRulesetOf",
			"inputs": [
				{
					"name": "projectId",
					"type": "uint256",
					"internalType": "uint256"
				}
			],
			"outputs": [
				{
					"name": "",
					"type": "uint8",
					"internalType": "enum JBApprovalStatus"
				}
			],
			"stateMutability": "view"
		},
		{
			"type": "function",
			"name": "currentOf",
			"inputs": [
				{
					"name": "projectId",
					"type": "uint256",
					"internalType": "uint256"
				}
			],
			"outputs": [
				{
					"name": "ruleset",
					"type": "tuple",
					"internalType": "struct JBRuleset",
					"components": [
						{
							"name": "cycleNumber",
							"type": "uint48",
							"internalType": "uint48"
						},
						{
							"name": "id",
							"type": "uint48",
							"internalType": "uint48"
						},
						{
							"name": "basedOnId",
							"type": "uint48",
							"internalType": "uint48"
						},
						{
							"name": "start",
							"type": "uint48",
							"internalType": "uint48"
						},
						{
							"name": "duration",
							"type": "uint32",
							"internalType": "uint32"
						},
						{
							"name": "weight",
							"type": "uint112",
							"internalType": "uint112"
						},
						{
							"name": "decayPercent",
							"type": "uint32",
							"internalType": "uint32"
						},
						{
							"name": "approvalHook",
							"type": "address",
							"internalType": "contract IJBRulesetApprovalHook"
						},
						{
							"name": "metadata",
							"type": "uint256",
							"internalType": "uint256"
						}
					]
				}
			],
			"stateMutability": "view"
		},
		{
			"type": "function",
			"name": "getRulesetOf",
			"inputs": [
				{
					"name": "projectId",
					"type": "uint256",
					"internalType": "uint256"
				},
				{
					"name": "rulesetId",
					"type": "uint256",
					"internalType": "uint256"
				}
			],
			"outputs": [
				{
					"name": "ruleset",
					"type": "tuple",
					"internalType": "struct JBRuleset",
					"components": [
						{
							"name": "cycleNumber",
							"type": "uint48",
							"internalType": "uint48"
						},
						{
							"name": "id",
							"type": "uint48",
							"internalType": "uint48"
						},
						{
							"name": "basedOnId",
							"type": "uint48",
							"internalType": "uint48"
						},
						{
							"name": "start",
							"type": "uint48",
							"internalType": "uint48"
						},
						{
							"name": "duration",
							"type": "uint32",
							"internalType": "uint32"
						},
						{
							"name": "weight",
							"type": "uint112",
							"internalType": "uint112"
						},
						{
							"name": "decayPercent",
							"type": "uint32",
							"internalType": "uint32"
						},
						{
							"name": "approvalHook",
							"type": "address",
							"internalType": "contract IJBRulesetApprovalHook"
						},
						{
							"name": "metadata",
							"type": "uint256",
							"internalType": "uint256"
						}
					]
				}
			],
			"stateMutability": "view"
		},
		{
			"type": "function",
			"name": "latestQueuedOf",
			"inputs": [
				{
					"name": "projectId",
					"type": "uint256",
					"internalType": "uint256"
				}
			],
			"outputs": [
				{
					"name": "ruleset",
					"type": "tuple",
					"internalType": "struct JBRuleset",
					"components": [
						{
							"name": "cycleNumber",
							"type": "uint48",
							"internalType": "uint48"
						},
						{
							"name": "id",
							"type": "uint48",
							"internalType": "uint48"
						},
						{
							"name": "basedOnId",
							"type": "uint48",
							"internalType": "uint48"
						},
						{
							"name": "start",
							"type": "uint48",
							"internalType": "uint48"
						},
						{
							"name": "duration",
							"type": "uint32",
							"internalType": "uint32"
						},
						{
							"name": "weight",
							"type": "uint112",
							"internalType": "uint112"
						},
						{
							"name": "decayPercent",
							"type": "uint32",
							"internalType": "uint32"
						},
						{
							"name": "approvalHook",
							"type": "address",
							"internalType": "contract IJBRulesetApprovalHook"
						},
						{
							"name": "metadata",
							"type": "uint256",
							"internalType": "uint256"
						}
					]
				},
				{
					"name": "approvalStatus",
					"type": "uint8",
					"internalType": "enum JBApprovalStatus"
				}
			],
			"stateMutability": "view"
		},
		{
			"type": "function",
			"name": "latestRulesetIdOf",
			"inputs": [
				{
					"name": "projectId",
					"type": "uint256",
					"internalType": "uint256"
				}
			],
			"outputs": [
				{
					"name": "",
					"type": "uint256",
					"internalType": "uint256"
				}
			],
			"stateMutability": "view"
		},
		{
			"type": "function",
			"name": "queueFor",
			"inputs": [
				{
					"name": "projectId",
					"type": "uint256",
					"internalType": "uint256"
				},
				{
					"name": "duration",
					"type": "uint256",
					"internalType": "uint256"
				},
				{
					"name": "weight",
					"type": "uint256",
					"internalType": "uint256"
				},
				{
					"name": "decayPercent",
					"type": "uint256",
					"internalType": "uint256"
				},
				{
					"name": "approvalHook",
					"type": "address",
					"internalType": "contract IJBRulesetApprovalHook"
				},
				{
					"name": "metadata",
					"type": "uint256",
					"internalType": "uint256"
				},
				{
					"name": "mustStartAtOrAfter",
					"type": "uint256",
					"internalType": "uint256"
				}
			],
			"outputs": [
				{
					"name": "",
					"type": "tuple",
					"internalType": "struct JBRuleset",
					"components": [
						{
							"name": "cycleNumber",
							"type": "uint48",
							"internalType": "uint48"
						},
						{
							"name": "id",
							"type": "uint48",
							"internalType": "uint48"
						},
						{
							"name": "basedOnId",
							"type": "uint48",
							"internalType": "uint48"
						},
						{
							"name": "start",
							"type": "uint48",
							"internalType": "uint48"
						},
						{
							"name": "duration",
							"type": "uint32",
							"internalType": "uint32"
						},
						{
							"name": "weight",
							"type": "uint112",
							"internalType": "uint112"
						},
						{
							"name": "decayPercent",
							"type": "uint32",
							"internalType": "uint32"
						},
						{
							"name": "approvalHook",
							"type": "address",
							"internalType": "contract IJBRulesetApprovalHook"
						},
						{
							"name": "metadata",
							"type": "uint256",
							"internalType": "uint256"
						}
					]
				}
			],
			"stateMutability": "nonpayable"
		},
		{
			"type": "function",
			"name": "upcomingOf",
			"inputs": [
				{
					"name": "projectId",
					"type": "uint256",
					"internalType": "uint256"
				}
			],
			"outputs": [
				{
					"name": "ruleset",
					"type": "tuple",
					"internalType": "struct JBRuleset",
					"components": [
						{
							"name": "cycleNumber",
							"type": "uint48",
							"internalType": "uint48"
						},
						{
							"name": "id",
							"type": "uint48",
							"internalType": "uint48"
						},
						{
							"name": "basedOnId",
							"type": "uint48",
							"internalType": "uint48"
						},
						{
							"name": "start",
							"type": "uint48",
							"internalType": "uint48"
						},
						{
							"name": "duration",
							"type": "uint32",
							"internalType": "uint32"
						},
						{
							"name": "weight",
							"type": "uint112",
							"internalType": "uint112"
						},
						{
							"name": "decayPercent",
							"type": "uint32",
							"internalType": "uint32"
						},
						{
							"name": "approvalHook",
							"type": "address",
							"internalType": "contract IJBRulesetApprovalHook"
						},
						{
							"name": "metadata",
							"type": "uint256",
							"internalType": "uint256"
						}
					]
				}
			],
			"stateMutability": "view"
		},
		{
			"type": "function",
			"name": "updateRulesetWeightCache",
			"inputs": [
				{
					"name": "projectId",
					"type": "uint256",
					"internalType": "uint256"
				}
			],
			"outputs": [],
			"stateMutability": "nonpayable"
		},
		{
			"type": "event",
			"name": "RulesetInitialized",
			"inputs": [
				{
					"name": "rulesetId",
					"type": "uint256",
					"indexed": true,
					"internalType": "uint256"
				},
				{
					"name": "projectId",
					"type": "uint256",
					"indexed": true,
					"internalType": "uint256"
				},
				{
					"name": "basedOnId",
					"type": "uint256",
					"indexed": true,
					"internalType": "uint256"
				},
				{
					"name": "caller",
					"type": "address",
					"indexed": false,
					"internalType": "address"
				}
			],
			"anonymous": false
		},
		{
			"type": "event",
			"name": "RulesetQueued",
			"inputs": [
				{
					"name": "rulesetId",
					"type": "uint256",
					"indexed": true,
					"internalType": "uint256"
				},
				{
					"name": "projectId",
					"type": "uint256",
					"indexed": true,
					"internalType": "uint256"
				},
				{
					"name": "duration",
					"type": "uint256",
					"indexed": false,
					"internalType": "uint256"
				},
				{
					"name": "weight",
					"type": "uint256",
					"indexed": false,
					"internalType": "uint256"
				},
				{
					"name": "decayPercent",
					"type": "uint256",
					"indexed": false,
					"internalType": "uint256"
				},
				{
					"name": "approvalHook",
					"type": "address",
					"indexed": false,
					"internalType": "contract IJBRulesetApprovalHook"
				},
				{
					"name": "metadata",
					"type": "uint256",
					"indexed": false,
					"internalType": "uint256"
				},
				{
					"name": "mustStartAtOrAfter",
					"type": "uint256",
					"indexed": false,
					"internalType": "uint256"
				},
				{
					"name": "caller",
					"type": "address",
					"indexed": false,
					"internalType": "address"
				}
			],
			"anonymous": false
		},
		{
			"type": "error",
			"name": "JBControlled_ControllerUnauthorized",
			"inputs": [
				{
					"name": "controller",
					"type": "address",
					"internalType": "address"
				}
			]
		},
		{
			"type": "error",
			"name": "JBRulesets_InvalidDecayPercent",
			"inputs": [
				{
					"name": "percent",
					"type": "uint256",
					"internalType": "uint256"
				}
			]
		},
		{
			"type": "error",
			"name": "JBRulesets_InvalidRulesetApprovalHook",
			"inputs": [
				{
					"name": "hook",
					"type": "address",
					"internalType": "contract IJBRulesetApprovalHook"
				}
			]
		},
		{
			"type": "error",
			"name": "JBRulesets_InvalidRulesetDuration",
			"inputs": [
				{
					"name": "duration",
					"type": "uint256",
					"internalType": "uint256"
				},
				{
					"name": "limit",
					"type": "uint256",
					"internalType": "uint256"
				}
			]
		},
		{
			"type": "error",
			"name": "JBRulesets_InvalidRulesetEndTime",
			"inputs": [
				{
					"name": "timestamp",
					"type": "uint256",
					"internalType": "uint256"
				},
				{
					"name": "limit",
					"type": "uint256",
					"internalType": "uint256"
				}
			]
		},
		{
			"type": "error",
			"name": "JBRulesets_InvalidWeight",
			"inputs": [
				{
					"name": "weight",
					"type": "uint256",
					"internalType": "uint256"
				},
				{
					"name": "limit",
					"type": "uint256",
					"internalType": "uint256"
				}
			]
		},
		{
			"type": "error",
			"name": "PRBMath_MulDiv_Overflow",
			"inputs": [
				{
					"name": "x",
					"type": "uint256",
					"internalType": "uint256"
				},
				{
					"name": "y",
					"type": "uint256",
					"internalType": "uint256"
				},
				{
					"name": "denominator",
					"type": "uint256",
					"internalType": "uint256"
				}
			]
		}
	],
	"solcInputHash": "b89bde0fe29395f67edeac33d37789f7",
	"args": [
		"0xE0B2860344bA476e12eD1d559656dA9D04F1AD22"
	],
	"bytecode": "0x60a060405234801561001057600080fd5b50604051611dcc380380611dcc83398101604081905261002f91610040565b6001600160a01b0316608052610070565b60006020828403121561005257600080fd5b81516001600160a01b038116811461006957600080fd5b9392505050565b608051611d336100996000396000818161015901528181610fba01526110490152611d336000f3fe608060405234801561001057600080fd5b506004361061009e5760003560e01c8063855a54ed11610066578063855a54ed1461013357806388bc2ef3146101545780638b04533a14610193578063d7e1ec88146101a8578063fe81dd80146101c857600080fd5b806325a61d5c146100a35780632e6bc58a146100cc57806333f5bd0a146100df57806343a266c21461010d57806370174dcc14610120575b600080fd5b6100b66100b13660046118fe565b6101e8565b6040516100c391906119d2565b60405180910390f35b6100b66100da3660046119e1565b610203565b6100ff6100ed3660046119e1565b60006020819052908152604090205481565b6040519081526020016100c3565b6100b661011b3660046119e1565b6103d0565b6100b661012e366004611a0f565b610556565b6101466101413660046119e1565b610888565b6040516100c3929190611aa6565b61017b7f000000000000000000000000000000000000000000000000000000000000000081565b6040516001600160a01b0390911681526020016100c3565b6101a66101a13660046119e1565b6108e3565b005b6101bb6101b63660046119e1565b610a40565b6040516100c39190611ac3565b6101db6101d6366004611ad1565b610a8c565b6040516100c39190611afd565b6101f06118b2565b6101fa8383610bd4565b90505b92915050565b61020b6118b2565b600082815260208190526040812054900361022b576101fd600080610bd4565b600061023683610c97565b9050600081156102ce5761024a8483610bd4565b92506102568484610d9d565b9050600481600581111561026c5761026c611a6e565b14806102895750600381600581111561028757610287611a6e565b145b806102a5575060008160058111156102a3576102a3611a6e565b145b156102b1575050919050565b6102c784846040015165ffffffffffff16610bd4565b925061031c565b6000848152602081905260409020546102e8908590610bd4565b92505b42836060015165ffffffffffff16111561031c5761031584846040015165ffffffffffff16610bd4565b92506102eb565b826080015163ffffffff1660000361034157610339600080610bd4565b949350505050565b61034b8484610d9d565b9050600481600581111561036157610361611a6e565b148061037e5750600081600581111561037c5761037c611a6e565b145b1561038f5761033984846000610dcf565b6103a584846040015165ffffffffffff16610bd4565b9250826080015163ffffffff166000036103c457610339600080610bd4565b61033984846000610dcf565b6103d86118b2565b60008281526020819052604081205490036103f8576101fd600080610bd4565b600061040383610eda565b90508015610483576104158382610bd4565b915060006104238484610d9d565b9050600481600581111561043957610439611a6e565b14806104565750600081600581111561045457610454611a6e565b145b15610462575050919050565b826040015165ffffffffffff16915061047b8483610bd4565b92505061052b565b5060008281526020819052604090205461049d8382610bd4565b915060006104ab8484610d9d565b90505b60048160058111156104c2576104c2611a6e565b141580156104e2575060008160058111156104df576104df611a6e565b14155b806104f85750826060015165ffffffffffff1642105b1561052957826040015165ffffffffffff1691506105168483610bd4565b92506105228484610d9d565b90506104ae565b505b816080015163ffffffff166000036105435750919050565b61054f83836001610dcf565b9392505050565b61055e6118b2565b8761056881610f9a565b63ffffffff88111561059f57604051638444f64b60e01b81526004810189905263ffffffff60248201526044015b60405180910390fd5b633b9aca008611156105c75760405163fafa664f60e01b815260048101879052602401610596565b6001600160701b038711156105ff57604051632dd7f24160e01b8152600481018890526001600160701b036024820152604401610596565b8260000361060b574292505b65ffffffffffff61061c8985611b62565b11156106555761062c8884611b62565b604051632ce261d560e21b8152600481019190915265ffffffffffff6024820152604401610596565b6001600160a01b0385161561075457846001600160a01b03163b60000361069a5760405163045b9cdd60e31b81526001600160a01b0386166004820152602401610596565b6040516301ffc9a760e01b8152634b80c8df60e01b60048201526001600160a01b038616906301ffc9a790602401602060405180830381865afa925050508015610701575060408051601f3d908101601f191682019092526106fe91810190611b75565b60015b6107295760405163045b9cdd60e31b81526001600160a01b0386166004820152602401610596565b806107525760405163045b9cdd60e31b81526001600160a01b0387166004820152602401610596565b505b6000898152602081905260408120549042821015610772574261077d565b61077d826001611b62565b905061078b8b828b886110e4565b6001600160a01b0387161515806107a2575060008a115b806107ad5750600088115b156107e45760008b8152600360209081526040808320848452909152902060c089901b60a08c901b6001600160a01b038a16171790555b85156108075760008b815260016020908152604080832084845290915290208690555b604080518b8152602081018b90529081018990526001600160a01b03881660608201526080810187905260a081018690523360c08201528b9082907f11a490bebff1beffe4bdd210894aca6ea5049427ce4b3c48865717677199cb079060e00160405180910390a36108798b82610bd4565b9b9a5050505050505050505050565b6108906118b2565b6000828152602081905260408120546108a98482610bd4565b92506108db84846020015165ffffffffffff16856060015165ffffffffffff16866040015165ffffffffffff1661134f565b915050915091565b6000818152602081905260408120546108fd908390610bd4565b9050806080015163ffffffff1660001480610920575060c081015163ffffffff16155b15610929575050565b60008281526004602090815260408083208483015165ffffffffffff16845290915281206080830151600182015491929163ffffffff909116906109799061c350906001600160a81b0316611b62565b6109839190611b97565b836060015165ffffffffffff1661099a9190611b62565b905060008142106109ab57816109ad565b425b90506000846060015165ffffffffffff16826109c99190611bae565b90506000856080015163ffffffff1682816109e6576109e6611bc1565b0490506109f4878785611413565b85546dffffffffffffffffffffffffffff19166001600160701b0391909116178555600190940180546001600160a81b0319166001600160a81b03909516949094179093555050505050565b60008181526020819052604081205481610a5a8483610bd4565b905061033984826020015165ffffffffffff16836060015165ffffffffffff16846040015165ffffffffffff1661134f565b606082600003610aa85760008481526020819052604090205492505b600080610ab58686610bd4565b90505b602081015165ffffffffffff1615801590610ad257508382105b15610b015781610ae181611bd7565b925050610afa86826040015165ffffffffffff16610bd4565b9050610ab8565b8167ffffffffffffffff811115610b1a57610b1a611bf0565b604051908082528060200260200182016040528015610b5357816020015b610b406118b2565b815260200190600190039081610b385790505b50925081600003610b6557505061054f565b610b6f8686610bd4565b905060005b82811015610bca57818482610b8881611bd7565b935081518110610b9a57610b9a611c06565b6020026020010181905250828114610bc557610bc287836040015165ffffffffffff16610bd4565b91505b610b74565b5050509392505050565b610bdc6118b2565b81156101fd5765ffffffffffff82811660208381019190915260008581526002825260408082208683528352808220546001600160701b03811660a080880191909152607082901c86168388015281811c909516606087015260d01c8552868252600383528082208683528352808220546001600160a01b03811660e08701529384901c63ffffffff908116608087015260c094851c1693850193909352948552600181528185209385529290925291205461010082015290565b60008181526020819052604081205490610cb18383610bd4565b9050806060015165ffffffffffff164210610ccf5750600092915050565b805165ffffffffffff16600103610ce65750919050565b604081015165ffffffffffff16610cfb6118b2565b610d058583610bd4565b9050806060015165ffffffffffff16421015610d3e57806020015165ffffffffffff169350806040015165ffffffffffff169150610cfb565b610d488585610bd4565b9250806080015163ffffffff16600014158015610d855750806080015163ffffffff168360600151610d7a9190611c1c565b65ffffffffffff1642105b15610d9557506000949350505050565b505050919050565b60006101fa83836020015165ffffffffffff16846060015165ffffffffffff16856040015165ffffffffffff1661134f565b610dd76118b2565b60008215610e04576080840151610df49063ffffffff1642611bae565b610dff906001611b62565b610e0f565b610e0f426001611b62565b90506000610e1d858361157b565b90506000610e2b8683611627565b90506040518061012001604052808265ffffffffffff168152602001876020015165ffffffffffff168152602001876040015165ffffffffffff1681526020018365ffffffffffff168152602001876080015163ffffffff168152602001610e94898986611413565b6001600160701b031681526020018760c0015163ffffffff1681526020018760e001516001600160a01b0316815260200187610100015181525093505050509392505050565b60008181526020819052604081205481610ef48483610bd4565b90505b608081015163ffffffff1615801590610f315750806080015163ffffffff168160600151610f259190611c42565b65ffffffffffff164210155b15610f40575060009392505050565b806060015165ffffffffffff164210610f66576020015165ffffffffffff169392505050565b610f7c84826040015165ffffffffffff16610bd4565b805190915065ffffffffffff16600003610ef7575060009392505050565b604051632eec7b5560e11b81526004810182905233906001600160a01b037f00000000000000000000000000000000000000000000000000000000000000001690635dd8f6aa90602401602060405180830381865afa158015611001573d6000803e3d6000fd5b505050506040513d601f19601f820116820180604052508101906110259190611c61565b6001600160a01b0316146110e157604051632eec7b5560e11b8152600481018290527f00000000000000000000000000000000000000000000000000000000000000006001600160a01b031690635dd8f6aa90602401602060405180830381865afa158015611098573d6000803e3d6000fd5b505050506040513d601f19601f820116820180604052508101906110bc9190611c61565b604051639a007b3960e01b81526001600160a01b039091166004820152602401610596565b50565b60008481526020819052604081205490819003611118576111128561110a600080610bd4565b86858761169d565b50611349565b60006111248683610bd4565b905060006111328783610d9d565b9050816060015165ffffffffffff1642101580156111625750600481600581111561115f5761115f611a6e565b14155b80156111805750600081600581111561117d5761117d611a6e565b14155b806111df5750816060015165ffffffffffff16421080156111c15750816080015163ffffffff1682606001516111b69190611c42565b65ffffffffffff1684105b80156111df575060048160058111156111dc576111dc611a6e565b14155b8061127b5750816060015165ffffffffffff16421080156112215750816080015163ffffffff1682606001516112159190611c42565b65ffffffffffff168410155b801561123f5750600481600581111561123c5761123c611a6e565b14155b801561125d5750600381600581111561125a5761125a611a6e565b14155b801561127b5750600081600581111561127857611278611a6e565b14155b156112995761129687836040015165ffffffffffff16610bd4565b91505b60e08201516000906001600160a01b031615611324578260e001516001600160a01b0316631be052896040518163ffffffff1660e01b8152600401602060405180830381865afa1580156112f1573d6000803e3d6000fd5b505050506040513d601f19601f820116820180604052508101906113159190611c7e565b61131f9088611b62565b611327565b60005b905061134488848988851161133c578861133e565b845b8a61169d565b505050505b50505050565b60008160000361136157506000610339565b600061136d8684610bd4565b60e08101519091506001600160a01b031661138c576000915050610339565b60e08101516040516328304d2b60e11b81526004810188905260248101879052604481018690526001600160a01b03909116906350609a5690606401602060405180830381865afa1580156113e5573d6000803e3d6000fd5b505050506040513d601f19601f820116820180604052508101906114099190611c97565b9695505050505050565b6000826080015163ffffffff166000036114635761145c8360a001516001600160701b03168460c00151633b9aca0061144c9190611cb8565b63ffffffff16633b9aca006117de565b905061054f565b8260a001516001600160701b031690508260c0015163ffffffff166000031561054f576000836060015165ffffffffffff16836114a09190611bae565b90506000846080015163ffffffff1682816114bd576114bd611bc1565b0490506103e88111156115485760008681526004602090815260408083208883015165ffffffffffff168452825291829020825180840190935280546001600160701b03168352600101546001600160a81b03169082018190521561154657805160208201516001600160701b039091169450611543906001600160a81b031683611bae565b91505b505b60005b81811015610bca5761156b848760c00151633b9aca0061144c9190611cb8565b93508315610bca5760010161154b565b6000826080015163ffffffff166000036115965750806101fd565b6000836080015163ffffffff1684606001516115b29190611c42565b65ffffffffffff1690508281106115ca5790506101fd565b608084015160009063ffffffff166115e28386611bae565b6115ec9190611cd5565b90506115f88185611bae565b92505b8284111561161f5760808501516116189063ffffffff1684611b62565b92506115fb565b505092915050565b6000826080015163ffffffff16600003611657578251611648906001611c42565b65ffffffffffff1690506101fd565b6000836060015165ffffffffffff16836116719190611bae565b9050836080015163ffffffff16816116899190611ce9565b8451610339919065ffffffffffff16611b62565b835165ffffffffffff166000036116f55760208085015160008781526002835260408082208783529093529190912065ffffffffffff60701b60709290921b91909116821760a084901b17600160d01b179055611781565b6000611701858461157b565b90506000821161171b57611716868683611413565b61172c565b81600114611729578161172c565b60005b9150600061173a8683611627565b60208088015160008a81526002835260408082208a83529093529190912065ffffffffffff60701b60709290921b91909116851760a085901b1760d083901b179055905050505b6000858152602081815260409182902085905585810151915133815265ffffffffffff90921691879186917f470520533918800d64f06ee1795a39e90ff3c27a15350a235e17bd23698a470e910160405180910390a45050505050565b60008080600019858709858702925082811083820303915050806000036118185783828161180e5761180e611bc1565b049250505061054f565b83811061184957604051630c740aef60e31b8152600481018790526024810186905260448101859052606401610596565b60008486880960026001871981018816978890046003810283188082028403028082028403028082028403028082028403028082028403029081029092039091026000889003889004909101858311909403939093029303949094049190911702949350505050565b6040805161012081018252600080825260208201819052918101829052606081018290526080810182905260a0810182905260c0810182905260e0810182905261010081019190915290565b6000806040838503121561191157600080fd5b50508035926020909101359150565b65ffffffffffff80825116835280602083015116602084015280604083015116604084015250606081015161195f606084018265ffffffffffff169052565b506080810151611977608084018263ffffffff169052565b5060a081015161199260a08401826001600160701b03169052565b5060c08101516119aa60c084018263ffffffff169052565b5060e08101516119c560e08401826001600160a01b03169052565b5061010090810151910152565b61012081016101fd8284611920565b6000602082840312156119f357600080fd5b5035919050565b6001600160a01b03811681146110e157600080fd5b600080600080600080600060e0888a031215611a2a57600080fd5b873596506020880135955060408801359450606088013593506080880135611a51816119fa565b9699959850939692959460a0840135945060c09093013592915050565b634e487b7160e01b600052602160045260246000fd5b60068110611aa257634e487b7160e01b600052602160045260246000fd5b9052565b6101408101611ab58285611920565b61054f610120830184611a84565b602081016101fd8284611a84565b600080600060608486031215611ae657600080fd5b505081359360208301359350604090920135919050565b6020808252825182820181905260009190848201906040850190845b81811015611b4057611b2c838551611920565b928401926101209290920191600101611b19565b50909695505050505050565b634e487b7160e01b600052601160045260246000fd5b808201808211156101fd576101fd611b4c565b600060208284031215611b8757600080fd5b8151801515811461054f57600080fd5b80820281158282048414176101fd576101fd611b4c565b818103818111156101fd576101fd611b4c565b634e487b7160e01b600052601260045260246000fd5b600060018201611be957611be9611b4c565b5060010190565b634e487b7160e01b600052604160045260246000fd5b634e487b7160e01b600052603260045260246000fd5b65ffffffffffff828116828216039080821115611c3b57611c3b611b4c565b5092915050565b65ffffffffffff818116838216019080821115611c3b57611c3b611b4c565b600060208284031215611c7357600080fd5b815161054f816119fa565b600060208284031215611c9057600080fd5b5051919050565b600060208284031215611ca957600080fd5b81516006811061054f57600080fd5b63ffffffff828116828216039080821115611c3b57611c3b611b4c565b600082611ce457611ce4611bc1565b500690565b600082611cf857611cf8611bc1565b50049056fea26469706673582212204758d34f8f37131be72871c9d5879d9da3174bebac95233c7d8331e947c5adae64736f6c63430008170033",
	"deployedBytecode": "0x608060405234801561001057600080fd5b506004361061009e5760003560e01c8063855a54ed11610066578063855a54ed1461013357806388bc2ef3146101545780638b04533a14610193578063d7e1ec88146101a8578063fe81dd80146101c857600080fd5b806325a61d5c146100a35780632e6bc58a146100cc57806333f5bd0a146100df57806343a266c21461010d57806370174dcc14610120575b600080fd5b6100b66100b13660046118fe565b6101e8565b6040516100c391906119d2565b60405180910390f35b6100b66100da3660046119e1565b610203565b6100ff6100ed3660046119e1565b60006020819052908152604090205481565b6040519081526020016100c3565b6100b661011b3660046119e1565b6103d0565b6100b661012e366004611a0f565b610556565b6101466101413660046119e1565b610888565b6040516100c3929190611aa6565b61017b7f000000000000000000000000e0b2860344ba476e12ed1d559656da9d04f1ad2281565b6040516001600160a01b0390911681526020016100c3565b6101a66101a13660046119e1565b6108e3565b005b6101bb6101b63660046119e1565b610a40565b6040516100c39190611ac3565b6101db6101d6366004611ad1565b610a8c565b6040516100c39190611afd565b6101f06118b2565b6101fa8383610bd4565b90505b92915050565b61020b6118b2565b600082815260208190526040812054900361022b576101fd600080610bd4565b600061023683610c97565b9050600081156102ce5761024a8483610bd4565b92506102568484610d9d565b9050600481600581111561026c5761026c611a6e565b14806102895750600381600581111561028757610287611a6e565b145b806102a5575060008160058111156102a3576102a3611a6e565b145b156102b1575050919050565b6102c784846040015165ffffffffffff16610bd4565b925061031c565b6000848152602081905260409020546102e8908590610bd4565b92505b42836060015165ffffffffffff16111561031c5761031584846040015165ffffffffffff16610bd4565b92506102eb565b826080015163ffffffff1660000361034157610339600080610bd4565b949350505050565b61034b8484610d9d565b9050600481600581111561036157610361611a6e565b148061037e5750600081600581111561037c5761037c611a6e565b145b1561038f5761033984846000610dcf565b6103a584846040015165ffffffffffff16610bd4565b9250826080015163ffffffff166000036103c457610339600080610bd4565b61033984846000610dcf565b6103d86118b2565b60008281526020819052604081205490036103f8576101fd600080610bd4565b600061040383610eda565b90508015610483576104158382610bd4565b915060006104238484610d9d565b9050600481600581111561043957610439611a6e565b14806104565750600081600581111561045457610454611a6e565b145b15610462575050919050565b826040015165ffffffffffff16915061047b8483610bd4565b92505061052b565b5060008281526020819052604090205461049d8382610bd4565b915060006104ab8484610d9d565b90505b60048160058111156104c2576104c2611a6e565b141580156104e2575060008160058111156104df576104df611a6e565b14155b806104f85750826060015165ffffffffffff1642105b1561052957826040015165ffffffffffff1691506105168483610bd4565b92506105228484610d9d565b90506104ae565b505b816080015163ffffffff166000036105435750919050565b61054f83836001610dcf565b9392505050565b61055e6118b2565b8761056881610f9a565b63ffffffff88111561059f57604051638444f64b60e01b81526004810189905263ffffffff60248201526044015b60405180910390fd5b633b9aca008611156105c75760405163fafa664f60e01b815260048101879052602401610596565b6001600160701b038711156105ff57604051632dd7f24160e01b8152600481018890526001600160701b036024820152604401610596565b8260000361060b574292505b65ffffffffffff61061c8985611b62565b11156106555761062c8884611b62565b604051632ce261d560e21b8152600481019190915265ffffffffffff6024820152604401610596565b6001600160a01b0385161561075457846001600160a01b03163b60000361069a5760405163045b9cdd60e31b81526001600160a01b0386166004820152602401610596565b6040516301ffc9a760e01b8152634b80c8df60e01b60048201526001600160a01b038616906301ffc9a790602401602060405180830381865afa925050508015610701575060408051601f3d908101601f191682019092526106fe91810190611b75565b60015b6107295760405163045b9cdd60e31b81526001600160a01b0386166004820152602401610596565b806107525760405163045b9cdd60e31b81526001600160a01b0387166004820152602401610596565b505b6000898152602081905260408120549042821015610772574261077d565b61077d826001611b62565b905061078b8b828b886110e4565b6001600160a01b0387161515806107a2575060008a115b806107ad5750600088115b156107e45760008b8152600360209081526040808320848452909152902060c089901b60a08c901b6001600160a01b038a16171790555b85156108075760008b815260016020908152604080832084845290915290208690555b604080518b8152602081018b90529081018990526001600160a01b03881660608201526080810187905260a081018690523360c08201528b9082907f11a490bebff1beffe4bdd210894aca6ea5049427ce4b3c48865717677199cb079060e00160405180910390a36108798b82610bd4565b9b9a5050505050505050505050565b6108906118b2565b6000828152602081905260408120546108a98482610bd4565b92506108db84846020015165ffffffffffff16856060015165ffffffffffff16866040015165ffffffffffff1661134f565b915050915091565b6000818152602081905260408120546108fd908390610bd4565b9050806080015163ffffffff1660001480610920575060c081015163ffffffff16155b15610929575050565b60008281526004602090815260408083208483015165ffffffffffff16845290915281206080830151600182015491929163ffffffff909116906109799061c350906001600160a81b0316611b62565b6109839190611b97565b836060015165ffffffffffff1661099a9190611b62565b905060008142106109ab57816109ad565b425b90506000846060015165ffffffffffff16826109c99190611bae565b90506000856080015163ffffffff1682816109e6576109e6611bc1565b0490506109f4878785611413565b85546dffffffffffffffffffffffffffff19166001600160701b0391909116178555600190940180546001600160a81b0319166001600160a81b03909516949094179093555050505050565b60008181526020819052604081205481610a5a8483610bd4565b905061033984826020015165ffffffffffff16836060015165ffffffffffff16846040015165ffffffffffff1661134f565b606082600003610aa85760008481526020819052604090205492505b600080610ab58686610bd4565b90505b602081015165ffffffffffff1615801590610ad257508382105b15610b015781610ae181611bd7565b925050610afa86826040015165ffffffffffff16610bd4565b9050610ab8565b8167ffffffffffffffff811115610b1a57610b1a611bf0565b604051908082528060200260200182016040528015610b5357816020015b610b406118b2565b815260200190600190039081610b385790505b50925081600003610b6557505061054f565b610b6f8686610bd4565b905060005b82811015610bca57818482610b8881611bd7565b935081518110610b9a57610b9a611c06565b6020026020010181905250828114610bc557610bc287836040015165ffffffffffff16610bd4565b91505b610b74565b5050509392505050565b610bdc6118b2565b81156101fd5765ffffffffffff82811660208381019190915260008581526002825260408082208683528352808220546001600160701b03811660a080880191909152607082901c86168388015281811c909516606087015260d01c8552868252600383528082208683528352808220546001600160a01b03811660e08701529384901c63ffffffff908116608087015260c094851c1693850193909352948552600181528185209385529290925291205461010082015290565b60008181526020819052604081205490610cb18383610bd4565b9050806060015165ffffffffffff164210610ccf5750600092915050565b805165ffffffffffff16600103610ce65750919050565b604081015165ffffffffffff16610cfb6118b2565b610d058583610bd4565b9050806060015165ffffffffffff16421015610d3e57806020015165ffffffffffff169350806040015165ffffffffffff169150610cfb565b610d488585610bd4565b9250806080015163ffffffff16600014158015610d855750806080015163ffffffff168360600151610d7a9190611c1c565b65ffffffffffff1642105b15610d9557506000949350505050565b505050919050565b60006101fa83836020015165ffffffffffff16846060015165ffffffffffff16856040015165ffffffffffff1661134f565b610dd76118b2565b60008215610e04576080840151610df49063ffffffff1642611bae565b610dff906001611b62565b610e0f565b610e0f426001611b62565b90506000610e1d858361157b565b90506000610e2b8683611627565b90506040518061012001604052808265ffffffffffff168152602001876020015165ffffffffffff168152602001876040015165ffffffffffff1681526020018365ffffffffffff168152602001876080015163ffffffff168152602001610e94898986611413565b6001600160701b031681526020018760c0015163ffffffff1681526020018760e001516001600160a01b0316815260200187610100015181525093505050509392505050565b60008181526020819052604081205481610ef48483610bd4565b90505b608081015163ffffffff1615801590610f315750806080015163ffffffff168160600151610f259190611c42565b65ffffffffffff164210155b15610f40575060009392505050565b806060015165ffffffffffff164210610f66576020015165ffffffffffff169392505050565b610f7c84826040015165ffffffffffff16610bd4565b805190915065ffffffffffff16600003610ef7575060009392505050565b604051632eec7b5560e11b81526004810182905233906001600160a01b037f000000000000000000000000e0b2860344ba476e12ed1d559656da9d04f1ad221690635dd8f6aa90602401602060405180830381865afa158015611001573d6000803e3d6000fd5b505050506040513d601f19601f820116820180604052508101906110259190611c61565b6001600160a01b0316146110e157604051632eec7b5560e11b8152600481018290527f000000000000000000000000e0b2860344ba476e12ed1d559656da9d04f1ad226001600160a01b031690635dd8f6aa90602401602060405180830381865afa158015611098573d6000803e3d6000fd5b505050506040513d601f19601f820116820180604052508101906110bc9190611c61565b604051639a007b3960e01b81526001600160a01b039091166004820152602401610596565b50565b60008481526020819052604081205490819003611118576111128561110a600080610bd4565b86858761169d565b50611349565b60006111248683610bd4565b905060006111328783610d9d565b9050816060015165ffffffffffff1642101580156111625750600481600581111561115f5761115f611a6e565b14155b80156111805750600081600581111561117d5761117d611a6e565b14155b806111df5750816060015165ffffffffffff16421080156111c15750816080015163ffffffff1682606001516111b69190611c42565b65ffffffffffff1684105b80156111df575060048160058111156111dc576111dc611a6e565b14155b8061127b5750816060015165ffffffffffff16421080156112215750816080015163ffffffff1682606001516112159190611c42565b65ffffffffffff168410155b801561123f5750600481600581111561123c5761123c611a6e565b14155b801561125d5750600381600581111561125a5761125a611a6e565b14155b801561127b5750600081600581111561127857611278611a6e565b14155b156112995761129687836040015165ffffffffffff16610bd4565b91505b60e08201516000906001600160a01b031615611324578260e001516001600160a01b0316631be052896040518163ffffffff1660e01b8152600401602060405180830381865afa1580156112f1573d6000803e3d6000fd5b505050506040513d601f19601f820116820180604052508101906113159190611c7e565b61131f9088611b62565b611327565b60005b905061134488848988851161133c578861133e565b845b8a61169d565b505050505b50505050565b60008160000361136157506000610339565b600061136d8684610bd4565b60e08101519091506001600160a01b031661138c576000915050610339565b60e08101516040516328304d2b60e11b81526004810188905260248101879052604481018690526001600160a01b03909116906350609a5690606401602060405180830381865afa1580156113e5573d6000803e3d6000fd5b505050506040513d601f19601f820116820180604052508101906114099190611c97565b9695505050505050565b6000826080015163ffffffff166000036114635761145c8360a001516001600160701b03168460c00151633b9aca0061144c9190611cb8565b63ffffffff16633b9aca006117de565b905061054f565b8260a001516001600160701b031690508260c0015163ffffffff166000031561054f576000836060015165ffffffffffff16836114a09190611bae565b90506000846080015163ffffffff1682816114bd576114bd611bc1565b0490506103e88111156115485760008681526004602090815260408083208883015165ffffffffffff168452825291829020825180840190935280546001600160701b03168352600101546001600160a81b03169082018190521561154657805160208201516001600160701b039091169450611543906001600160a81b031683611bae565b91505b505b60005b81811015610bca5761156b848760c00151633b9aca0061144c9190611cb8565b93508315610bca5760010161154b565b6000826080015163ffffffff166000036115965750806101fd565b6000836080015163ffffffff1684606001516115b29190611c42565b65ffffffffffff1690508281106115ca5790506101fd565b608084015160009063ffffffff166115e28386611bae565b6115ec9190611cd5565b90506115f88185611bae565b92505b8284111561161f5760808501516116189063ffffffff1684611b62565b92506115fb565b505092915050565b6000826080015163ffffffff16600003611657578251611648906001611c42565b65ffffffffffff1690506101fd565b6000836060015165ffffffffffff16836116719190611bae565b9050836080015163ffffffff16816116899190611ce9565b8451610339919065ffffffffffff16611b62565b835165ffffffffffff166000036116f55760208085015160008781526002835260408082208783529093529190912065ffffffffffff60701b60709290921b91909116821760a084901b17600160d01b179055611781565b6000611701858461157b565b90506000821161171b57611716868683611413565b61172c565b81600114611729578161172c565b60005b9150600061173a8683611627565b60208088015160008a81526002835260408082208a83529093529190912065ffffffffffff60701b60709290921b91909116851760a085901b1760d083901b179055905050505b6000858152602081815260409182902085905585810151915133815265ffffffffffff90921691879186917f470520533918800d64f06ee1795a39e90ff3c27a15350a235e17bd23698a470e910160405180910390a45050505050565b60008080600019858709858702925082811083820303915050806000036118185783828161180e5761180e611bc1565b049250505061054f565b83811061184957604051630c740aef60e31b8152600481018790526024810186905260448101859052606401610596565b60008486880960026001871981018816978890046003810283188082028403028082028403028082028403028082028403028082028403029081029092039091026000889003889004909101858311909403939093029303949094049190911702949350505050565b6040805161012081018252600080825260208201819052918101829052606081018290526080810182905260a0810182905260c0810182905260e0810182905261010081019190915290565b6000806040838503121561191157600080fd5b50508035926020909101359150565b65ffffffffffff80825116835280602083015116602084015280604083015116604084015250606081015161195f606084018265ffffffffffff169052565b506080810151611977608084018263ffffffff169052565b5060a081015161199260a08401826001600160701b03169052565b5060c08101516119aa60c084018263ffffffff169052565b5060e08101516119c560e08401826001600160a01b03169052565b5061010090810151910152565b61012081016101fd8284611920565b6000602082840312156119f357600080fd5b5035919050565b6001600160a01b03811681146110e157600080fd5b600080600080600080600060e0888a031215611a2a57600080fd5b873596506020880135955060408801359450606088013593506080880135611a51816119fa565b9699959850939692959460a0840135945060c09093013592915050565b634e487b7160e01b600052602160045260246000fd5b60068110611aa257634e487b7160e01b600052602160045260246000fd5b9052565b6101408101611ab58285611920565b61054f610120830184611a84565b602081016101fd8284611a84565b600080600060608486031215611ae657600080fd5b505081359360208301359350604090920135919050565b6020808252825182820181905260009190848201906040850190845b81811015611b4057611b2c838551611920565b928401926101209290920191600101611b19565b50909695505050505050565b634e487b7160e01b600052601160045260246000fd5b808201808211156101fd576101fd611b4c565b600060208284031215611b8757600080fd5b8151801515811461054f57600080fd5b80820281158282048414176101fd576101fd611b4c565b818103818111156101fd576101fd611b4c565b634e487b7160e01b600052601260045260246000fd5b600060018201611be957611be9611b4c565b5060010190565b634e487b7160e01b600052604160045260246000fd5b634e487b7160e01b600052603260045260246000fd5b65ffffffffffff828116828216039080821115611c3b57611c3b611b4c565b5092915050565b65ffffffffffff818116838216019080821115611c3b57611c3b611b4c565b600060208284031215611c7357600080fd5b815161054f816119fa565b600060208284031215611c9057600080fd5b5051919050565b600060208284031215611ca957600080fd5b81516006811061054f57600080fd5b63ffffffff828116828216039080821115611c3b57611c3b611b4c565b600082611ce457611ce4611bc1565b500690565b600082611cf857611cf8611bc1565b50049056fea26469706673582212204758d34f8f37131be72871c9d5879d9da3174bebac95233c7d8331e947c5adae64736f6c63430008170033",
	"devdoc": {
		"kind": "dev",
		"methods": {
			"allOf(uint256,uint256,uint256)": {
				"params": {
					"projectId": "The ID of the project to get the rulesets of.",
					"size": "The maximum number of rulesets to return.",
					"startingId": "The ID of the ruleset to begin with. This will be the latest ruleset in the result. If 0 is passed, the project's latest ruleset will be used."
				},
				"returns": {
					"rulesets": "The rulesets as an array of `JBRuleset` structs."
				}
			},
			"constructor": {
				"params": {
					"directory": "A contract storing directories of terminals and controllers for each project."
				}
			},
			"currentApprovalStatusForLatestRulesetOf(uint256)": {
				"params": {
					"projectId": "The ID of the project to check the approval status of."
				},
				"returns": {
					"_0": "The project's current approval status."
				}
			},
			"currentOf(uint256)": {
				"details": "If a current ruleset of the project is not found, returns an empty ruleset with all properties set to 0.",
				"params": {
					"projectId": "The ID of the project to get the current ruleset of."
				},
				"returns": {
					"ruleset": "The project's current ruleset."
				}
			},
			"getRulesetOf(uint256,uint256)": {
				"params": {
					"projectId": "The ID of the project to which the ruleset belongs.",
					"rulesetId": "The ID of the ruleset to get the struct of."
				},
				"returns": {
					"ruleset": "The ruleset struct."
				}
			},
			"latestQueuedOf(uint256)": {
				"details": "Returns struct and status for the ruleset initialized furthest in the future (at the end of the rulset queue).",
				"params": {
					"projectId": "The ID of the project to get the latest queued ruleset of."
				},
				"returns": {
					"approvalStatus": "The approval hook's status for the ruleset.",
					"ruleset": "The project's latest queued ruleset's struct."
				}
			},
			"queueFor(uint256,uint256,uint256,uint256,address,uint256,uint256)": {
				"details": "Only a project's current controller can queue its rulesets.",
				"params": {
					"approvalHook": "A contract which dictates whether a proposed ruleset should be accepted or rejected. It can be used to constrain a project owner's ability to change ruleset parameters over time.",
					"decayPercent": "A fraction (out of `JBConstants.MAX_DECAY_PERCENT`) to reduce the next ruleset's `weight` by. - If a ruleset specifies a non-zero `weight`, the `decayPercent` does not apply. - If the `decayPercent` is 0, the `weight` stays the same. - If the `decayPercent` is 10% of `JBConstants.MAX_DECAY_PERCENT`, next ruleset's `weight` will be 90% of the current one.",
					"duration": "The number of seconds the ruleset lasts for, after which a new ruleset starts. - A `duration` of 0 means this ruleset will remain active until the project owner queues a new ruleset. That new ruleset will start immediately. - A ruleset with a non-zero `duration` applies until the duration ends – any newly queued rulesets will be *queued* to take effect afterwards. - If a duration ends and no new rulesets are queued, the ruleset rolls over to a new ruleset with the same rules (except for a new `start` timestamp and a decayed `weight`).",
					"metadata": "Arbitrary extra data to associate with this ruleset. This metadata is not used by `JBRulesets`.",
					"mustStartAtOrAfter": "The earliest time the ruleset can start. The ruleset cannot start before this timestamp.",
					"projectId": "The ID of the project to queue the ruleset for.",
					"weight": "A fixed point number with 18 decimals that contracts can use to base arbitrary calculations on. Payment terminals generally use this to determine how many tokens should be minted when the project is paid."
				},
				"returns": {
					"_0": "The struct of the new ruleset."
				}
			},
			"upcomingOf(uint256)": {
				"details": "If an upcoming ruleset is not found for the project, returns an empty ruleset with all properties set to 0.",
				"params": {
					"projectId": "The ID of the project to get the upcoming ruleset of."
				},
				"returns": {
					"ruleset": "The struct for the project's upcoming ruleset."
				}
			},
			"updateRulesetWeightCache(uint256)": {
				"params": {
					"projectId": "The ID of the project having its ruleset weight cached."
				}
			}
		},
		"version": 1
	},
	"userdoc": {
		"kind": "user",
		"methods": {
			"DIRECTORY()": {
				"notice": "The directory of terminals and controllers for projects."
			},
			"allOf(uint256,uint256,uint256)": {
				"notice": "Get an array of a project's rulesets up to a maximum array size, sorted from latest to earliest."
			},
			"currentApprovalStatusForLatestRulesetOf(uint256)": {
				"notice": "The current approval status of a given project's latest ruleset."
			},
			"currentOf(uint256)": {
				"notice": "The ruleset that is currently active for the specified project."
			},
			"getRulesetOf(uint256,uint256)": {
				"notice": "Get the ruleset struct for a given `rulesetId` and `projectId`."
			},
			"latestQueuedOf(uint256)": {
				"notice": "The latest ruleset queued for a project. Returns the ruleset's struct and its current approval status."
			},
			"latestRulesetIdOf(uint256)": {
				"notice": "The ID of the ruleset with the latest start time for a specific project, whether the ruleset has been approved or not."
			},
			"queueFor(uint256,uint256,uint256,uint256,address,uint256,uint256)": {
				"notice": "Queues the upcoming approvable ruleset for the specified project."
			},
			"upcomingOf(uint256)": {
				"notice": "The ruleset that's up next for a project."
			},
			"updateRulesetWeightCache(uint256)": {
				"notice": "Cache the value of the ruleset weight."
			}
		},
		"version": 1
	},
	"gitCommit": "265dad3852d04d03aba15963b8c2fd79653719f9",
	"sourceName": "src/JBRulesets.sol",
	"chainId": "11155111",
	"linkReferences": {},
	"deployedLinkReferences": {},
	"history": []
}