{
	"_format": "sphinx-sol-ct-artifact-1",
	"merkleRoot": "0x0d160a1c3d44fcb340710cb621217119f8c7c1ea60eb09dc227439c69c152b57",
	"contractName": "JBDeadline3Days",
	"address": "0x07C3e488BD36fC6E6EE53082aFD94995Eac329f1",
	"abi": [
		{
			"type": "constructor",
			"inputs": [],
			"stateMutability": "nonpayable"
		},
		{
			"type": "function",
			"name": "DURATION",
			"inputs": [],
			"outputs": [
				{
					"name": "",
					"type": "uint256",
					"internalType": "uint256"
				}
			],
			"stateMutability": "view"
		},
		{
			"type": "function",
			"name": "approvalStatusOf",
			"inputs": [
				{
					"name": "",
					"type": "uint256",
					"internalType": "uint256"
				},
				{
					"name": "rulesetId",
					"type": "uint256",
					"internalType": "uint256"
				},
				{
					"name": "start",
					"type": "uint256",
					"internalType": "uint256"
				}
			],
			"outputs": [
				{
					"name": "",
					"type": "uint8",
					"internalType": "enum JBApprovalStatus"
				}
			],
			"stateMutability": "view"
		},
		{
			"type": "function",
			"name": "supportsInterface",
			"inputs": [
				{
					"name": "interfaceId",
					"type": "bytes4",
					"internalType": "bytes4"
				}
			],
			"outputs": [
				{
					"name": "",
					"type": "bool",
					"internalType": "bool"
				}
			],
			"stateMutability": "view"
		}
	],
	"solcInputHash": "b6c351fd96634234999dc102235e550e",
	"args": [],
	"bytecode": "0x60a060405234801561001057600080fd5b506203f48060805260805161022d6100406000396000818160730152818161010e0152610138015261022d6000f3fe608060405234801561001057600080fd5b50600436106100415760003560e01c806301ffc9a7146100465780631be052891461006e57806350609a56146100a3575b600080fd5b610059610054366004610179565b6100c3565b60405190151581526020015b60405180910390f35b6100957f000000000000000000000000000000000000000000000000000000000000000081565b604051908152602001610065565b6100b66100b13660046101a3565b6100fa565b60405161006591906101cf565b60006001600160e01b03198216634b80c8df60e01b14806100f457506001600160e01b031982166301ffc9a760e01b145b92915050565b60008183111561010c57506005610172565b7f00000000000000000000000000000000000000000000000000000000000000008383031061016c57817f000000000000000000000000000000000000000000000000000000000000000042011061016557600461016f565b600361016f565b60055b90505b9392505050565b60006020828403121561018b57600080fd5b81356001600160e01b03198116811461017257600080fd5b6000806000606084860312156101b857600080fd5b505081359360208301359350604090920135919050565b60208101600683106101f157634e487b7160e01b600052602160045260246000fd5b9190529056fea2646970667358221220c551366c585416ee0373a17e144b7cbd663c1db1980e87f1da0cceda5550942c64736f6c63430008170033",
	"deployedBytecode": "0x608060405234801561001057600080fd5b50600436106100415760003560e01c806301ffc9a7146100465780631be052891461006e57806350609a56146100a3575b600080fd5b610059610054366004610179565b6100c3565b60405190151581526020015b60405180910390f35b6100957f000000000000000000000000000000000000000000000000000000000003f48081565b604051908152602001610065565b6100b66100b13660046101a3565b6100fa565b60405161006591906101cf565b60006001600160e01b03198216634b80c8df60e01b14806100f457506001600160e01b031982166301ffc9a760e01b145b92915050565b60008183111561010c57506005610172565b7f000000000000000000000000000000000000000000000000000000000003f4808383031061016c57817f000000000000000000000000000000000000000000000000000000000003f48042011061016557600461016f565b600361016f565b60055b90505b9392505050565b60006020828403121561018b57600080fd5b81356001600160e01b03198116811461017257600080fd5b6000806000606084860312156101b857600080fd5b505081359360208301359350604090920135919050565b60208101600683106101f157634e487b7160e01b600052602160045260246000fd5b9190529056fea2646970667358221220c551366c585416ee0373a17e144b7cbd663c1db1980e87f1da0cceda5550942c64736f6c63430008170033",
	"devdoc": {
		"kind": "dev",
		"methods": {
			"approvalStatusOf(uint256,uint256,uint256)": {
				"params": {
					"rulesetId": "The ID of the ruleset to check the status of.",
					"start": "The start timestamp of the ruleset to check the status of."
				},
				"returns": {
					"_0": "The ruleset's approval status."
				}
			},
			"supportsInterface(bytes4)": {
				"details": "See {IERC165-supportsInterface}.",
				"params": {
					"interfaceId": "The ID of the interface to check for adherence to."
				},
				"returns": {
					"_0": "A flag indicating if this contract adheres to the specified interface."
				}
			}
		},
		"version": 1
	},
	"userdoc": {
		"kind": "user",
		"methods": {
			"DURATION()": {
				"notice": "The minimum number of seconds between the time a ruleset is queued and the time it starts. If the difference is greater than this number, the ruleset is `Approved`."
			},
			"approvalStatusOf(uint256,uint256,uint256)": {
				"notice": "The approval status of a given ruleset."
			},
			"supportsInterface(bytes4)": {
				"notice": "Indicates whether this contract adheres to the specified interface."
			}
		},
		"version": 1
	},
	"gitCommit": "621b4728594b015d227adf08d7af07a2ea0ba570",
	"sourceName": "src/periphery/JBDeadline3Days.sol",
	"chainId": "84532",
	"linkReferences": {},
	"deployedLinkReferences": {},
	"history": []
}