{
	"_format": "sphinx-sol-ct-artifact-1",
	"merkleRoot": "0xecb722e952abd0c88b199c7b6d0e32c15eac38bf919588daeaef55a0b9f73b56",
	"contractName": "JBDirectory",
	"address": "0x317E962828ddBb27576f6F0cA89Adc3cd56Ed8Cc",
	"abi": [
		{
			"type": "constructor",
			"inputs": [
				{
					"name": "permissions",
					"type": "address",
					"internalType": "contract IJBPermissions"
				},
				{
					"name": "projects",
					"type": "address",
					"internalType": "contract IJBProjects"
				},
				{
					"name": "owner",
					"type": "address",
					"internalType": "address"
				}
			],
			"stateMutability": "nonpayable"
		},
		{
			"type": "function",
			"name": "PERMISSIONS",
			"inputs": [],
			"outputs": [
				{
					"name": "",
					"type": "address",
					"internalType": "contract IJBPermissions"
				}
			],
			"stateMutability": "view"
		},
		{
			"type": "function",
			"name": "PROJECTS",
			"inputs": [],
			"outputs": [
				{
					"name": "",
					"type": "address",
					"internalType": "contract IJBProjects"
				}
			],
			"stateMutability": "view"
		},
		{
			"type": "function",
			"name": "controllerOf",
			"inputs": [
				{
					"name": "projectId",
					"type": "uint256",
					"internalType": "uint256"
				}
			],
			"outputs": [
				{
					"name": "",
					"type": "address",
					"internalType": "contract IERC165"
				}
			],
			"stateMutability": "view"
		},
		{
			"type": "function",
			"name": "isAllowedToSetFirstController",
			"inputs": [
				{
					"name": "addr",
					"type": "address",
					"internalType": "address"
				}
			],
			"outputs": [
				{
					"name": "",
					"type": "bool",
					"internalType": "bool"
				}
			],
			"stateMutability": "view"
		},
		{
			"type": "function",
			"name": "isTerminalOf",
			"inputs": [
				{
					"name": "projectId",
					"type": "uint256",
					"internalType": "uint256"
				},
				{
					"name": "terminal",
					"type": "address",
					"internalType": "contract IJBTerminal"
				}
			],
			"outputs": [
				{
					"name": "",
					"type": "bool",
					"internalType": "bool"
				}
			],
			"stateMutability": "view"
		},
		{
			"type": "function",
			"name": "owner",
			"inputs": [],
			"outputs": [
				{
					"name": "",
					"type": "address",
					"internalType": "address"
				}
			],
			"stateMutability": "view"
		},
		{
			"type": "function",
			"name": "primaryTerminalOf",
			"inputs": [
				{
					"name": "projectId",
					"type": "uint256",
					"internalType": "uint256"
				},
				{
					"name": "token",
					"type": "address",
					"internalType": "address"
				}
			],
			"outputs": [
				{
					"name": "",
					"type": "address",
					"internalType": "contract IJBTerminal"
				}
			],
			"stateMutability": "view"
		},
		{
			"type": "function",
			"name": "renounceOwnership",
			"inputs": [],
			"outputs": [],
			"stateMutability": "nonpayable"
		},
		{
			"type": "function",
			"name": "setControllerOf",
			"inputs": [
				{
					"name": "projectId",
					"type": "uint256",
					"internalType": "uint256"
				},
				{
					"name": "controller",
					"type": "address",
					"internalType": "contract IERC165"
				}
			],
			"outputs": [],
			"stateMutability": "nonpayable"
		},
		{
			"type": "function",
			"name": "setIsAllowedToSetFirstController",
			"inputs": [
				{
					"name": "addr",
					"type": "address",
					"internalType": "address"
				},
				{
					"name": "flag",
					"type": "bool",
					"internalType": "bool"
				}
			],
			"outputs": [],
			"stateMutability": "nonpayable"
		},
		{
			"type": "function",
			"name": "setPrimaryTerminalOf",
			"inputs": [
				{
					"name": "projectId",
					"type": "uint256",
					"internalType": "uint256"
				},
				{
					"name": "token",
					"type": "address",
					"internalType": "address"
				},
				{
					"name": "terminal",
					"type": "address",
					"internalType": "contract IJBTerminal"
				}
			],
			"outputs": [],
			"stateMutability": "nonpayable"
		},
		{
			"type": "function",
			"name": "setTerminalsOf",
			"inputs": [
				{
					"name": "projectId",
					"type": "uint256",
					"internalType": "uint256"
				},
				{
					"name": "terminals",
					"type": "address[]",
					"internalType": "contract IJBTerminal[]"
				}
			],
			"outputs": [],
			"stateMutability": "nonpayable"
		},
		{
			"type": "function",
			"name": "terminalsOf",
			"inputs": [
				{
					"name": "projectId",
					"type": "uint256",
					"internalType": "uint256"
				}
			],
			"outputs": [
				{
					"name": "",
					"type": "address[]",
					"internalType": "contract IJBTerminal[]"
				}
			],
			"stateMutability": "view"
		},
		{
			"type": "function",
			"name": "transferOwnership",
			"inputs": [
				{
					"name": "newOwner",
					"type": "address",
					"internalType": "address"
				}
			],
			"outputs": [],
			"stateMutability": "nonpayable"
		},
		{
			"type": "event",
			"name": "AddTerminal",
			"inputs": [
				{
					"name": "projectId",
					"type": "uint256",
					"indexed": true,
					"internalType": "uint256"
				},
				{
					"name": "terminal",
					"type": "address",
					"indexed": true,
					"internalType": "contract IJBTerminal"
				},
				{
					"name": "caller",
					"type": "address",
					"indexed": false,
					"internalType": "address"
				}
			],
			"anonymous": false
		},
		{
			"type": "event",
			"name": "OwnershipTransferred",
			"inputs": [
				{
					"name": "previousOwner",
					"type": "address",
					"indexed": true,
					"internalType": "address"
				},
				{
					"name": "newOwner",
					"type": "address",
					"indexed": true,
					"internalType": "address"
				}
			],
			"anonymous": false
		},
		{
			"type": "event",
			"name": "SetController",
			"inputs": [
				{
					"name": "projectId",
					"type": "uint256",
					"indexed": true,
					"internalType": "uint256"
				},
				{
					"name": "controller",
					"type": "address",
					"indexed": true,
					"internalType": "contract IERC165"
				},
				{
					"name": "caller",
					"type": "address",
					"indexed": false,
					"internalType": "address"
				}
			],
			"anonymous": false
		},
		{
			"type": "event",
			"name": "SetIsAllowedToSetFirstController",
			"inputs": [
				{
					"name": "addr",
					"type": "address",
					"indexed": true,
					"internalType": "address"
				},
				{
					"name": "flag",
					"type": "bool",
					"indexed": true,
					"internalType": "bool"
				},
				{
					"name": "caller",
					"type": "address",
					"indexed": false,
					"internalType": "address"
				}
			],
			"anonymous": false
		},
		{
			"type": "event",
			"name": "SetPrimaryTerminal",
			"inputs": [
				{
					"name": "projectId",
					"type": "uint256",
					"indexed": true,
					"internalType": "uint256"
				},
				{
					"name": "token",
					"type": "address",
					"indexed": true,
					"internalType": "address"
				},
				{
					"name": "terminal",
					"type": "address",
					"indexed": true,
					"internalType": "contract IJBTerminal"
				},
				{
					"name": "caller",
					"type": "address",
					"indexed": false,
					"internalType": "address"
				}
			],
			"anonymous": false
		},
		{
			"type": "event",
			"name": "SetTerminals",
			"inputs": [
				{
					"name": "projectId",
					"type": "uint256",
					"indexed": true,
					"internalType": "uint256"
				},
				{
					"name": "terminals",
					"type": "address[]",
					"indexed": false,
					"internalType": "contract IJBTerminal[]"
				},
				{
					"name": "caller",
					"type": "address",
					"indexed": false,
					"internalType": "address"
				}
			],
			"anonymous": false
		},
		{
			"type": "error",
			"name": "DUPLICATE_TERMINALS",
			"inputs": []
		},
		{
			"type": "error",
			"name": "INVALID_PROJECT_ID_IN_DIRECTORY",
			"inputs": []
		},
		{
			"type": "error",
			"name": "OwnableInvalidOwner",
			"inputs": [
				{
					"name": "owner",
					"type": "address",
					"internalType": "address"
				}
			]
		},
		{
			"type": "error",
			"name": "OwnableUnauthorizedAccount",
			"inputs": [
				{
					"name": "account",
					"type": "address",
					"internalType": "address"
				}
			]
		},
		{
			"type": "error",
			"name": "SET_CONTROLLER_NOT_ALLOWED",
			"inputs": []
		},
		{
			"type": "error",
			"name": "SET_TERMINALS_NOT_ALLOWED",
			"inputs": []
		},
		{
			"type": "error",
			"name": "TOKEN_NOT_ACCEPTED",
			"inputs": []
		},
		{
			"type": "error",
			"name": "UNAUTHORIZED",
			"inputs": []
		}
	],
	"solcInputHash": "57a1d4be1e647efb0f1dadcd0304e29e",
	"args": [
		"0x4475B99b2f6F06c5048fe8c3839dFe2E5d744e65",
		"0x0DD4C75A29147a662656535808b033abC568e33B",
		"0x05e5168D6165a49083F2d8Ff684a1f4C2b04BC50"
	],
	"bytecode": "0x60c06040523480156200001157600080fd5b506040516200169c3803806200169c8339810160408190526200003491620000f4565b6001600160a01b03808416608052819081166200006b57604051631e4fbdf760e01b81526000600482015260240160405180910390fd5b62000076816200008b565b50506001600160a01b031660a0525062000148565b600080546001600160a01b038381166001600160a01b0319831681178455604051919092169283917f8be0079c531659141344cd1fd0a4f28419497f9722a3daafe3b4186f6b6457e09190a35050565b6001600160a01b0381168114620000f157600080fd5b50565b6000806000606084860312156200010a57600080fd5b83516200011781620000db565b60208501519093506200012a81620000db565b60408501519092506200013d81620000db565b809150509250925092565b60805160a05161150c620001906000396000818160f401528181610290015281816104be0152818161057201526108b70152600081816102540152610e3f015261150c6000f3fe608060405234801561001057600080fd5b50600436106100ea5760003560e01c8063862026501161008c578063c5664e2111610066578063c5664e21146101f9578063d17541531461021c578063f2fde38b1461023c578063f434c9141461024f57600080fd5b806386202650146101c25780638da5cb5b146101d5578063a1ed3175146101e657600080fd5b80636e49181f116100c85780636e49181f14610171578063714e7f3214610194578063715018a6146101a7578063821b9fd8146101af57600080fd5b8063293c4999146100ef5780635dd8f6aa1461013357806363d0850a1461015c575b600080fd5b6101167f000000000000000000000000000000000000000000000000000000000000000081565b6040516001600160a01b0390911681526020015b60405180910390f35b61011661014136600461118e565b6001602052600090815260409020546001600160a01b031681565b61016f61016a3660046111bc565b610276565b005b61018461017f3660046111fe565b610425565b604051901515815260200161012a565b61016f6101a23660046111fe565b6104a4565b61016f610889565b61016f6101bd36600461122e565b61089d565b6101166101d03660046111fe565b610ba2565b6000546001600160a01b0316610116565b61016f6101f43660046112bb565b610cce565b6101846102073660046112e9565b60026020526000908152604090205460ff1681565b61022f61022a36600461118e565b610d38565b60405161012a919061130d565b61016f61024a3660046112e9565b610da4565b6101167f000000000000000000000000000000000000000000000000000000000000000081565b6040516331a9108f60e11b81526004810184905261030b907f00000000000000000000000000000000000000000000000000000000000000006001600160a01b031690636352211e90602401602060405180830381865afa1580156102df573d6000803e3d6000fd5b505050506040513d601f19601f82011682018060405250810190610303919061135a565b84600f610de7565b604051633a01714f60e01b8152600481018490526001600160a01b03838116602483015260009190831690633a01714f90604401606060405180830381865afa15801561035c573d6000803e3d6000fd5b505050506040513d601f19601f820116820180604052508101906103809190611377565b516001600160a01b0316036103a857604051630faa917b60e11b815260040160405180910390fd5b6103b28382610ed0565b60008381526004602090815260408083206001600160a01b038681168086529184529382902080546001600160a01b03191694861694851790559051338152909186917fc670a502bbb9f8a4315f95eca901a9f99b65f89a2eb5705a58050e5c00f9d672910160405180910390a4505050565b600082815260036020526040812054815b8181101561049757600085815260036020526040902080546001600160a01b03861691908390811061046a5761046a611406565b6000918252602090912001546001600160a01b03160361048f5760019250505061049e565b600101610436565b5060009150505b92915050565b6040516331a9108f60e11b81526004810183905261056f907f00000000000000000000000000000000000000000000000000000000000000006001600160a01b031690636352211e90602401602060405180830381865afa15801561050d573d6000803e3d6000fd5b505050506040513d601f19601f82011682018060405250810190610531919061135a565b336000908152600260205260409020548490600d9060ff16801561056a57506000868152600160205260409020546001600160a01b0316155b611089565b817f00000000000000000000000000000000000000000000000000000000000000006001600160a01b03166306661abd6040518163ffffffff1660e01b8152600401602060405180830381865afa1580156105ce573d6000803e3d6000fd5b505050506040513d601f19601f820116820180604052508101906105f2919061141c565b101561061157604051634a283a5360e11b815260040160405180910390fd5b6000828152600160205260408120546001600160a01b0316908115806106a357506040516301ffc9a760e01b8152632877540760e01b60048201526001600160a01b038316906301ffc9a790602401602060405180830381865afa15801561067d573d6000803e3d6000fd5b505050506040513d601f19601f820116820180604052508101906106a19190611435565b155b61071557604051632674968d60e21b8152600481018590526001600160a01b038316906399d25a3490602401602060405180830381865afa1580156106ec573d6000803e3d6000fd5b505050506040513d601f19601f820116820180604052508101906107109190611435565b610718565b60015b9050806107385760405163a33db4cb60e01b815260040160405180910390fd5b6001600160a01b038216158015906107ba57506040516301ffc9a760e01b815263217a87fd60e21b60048201526001600160a01b038316906301ffc9a790602401602060405180830381865afa158015610796573d6000803e3d6000fd5b505050506040513d601f19601f820116820180604052508101906107ba9190611435565b156108225760405163202dc27d60e11b8152600481018590526001600160a01b03848116602483015283169063405b84fa90604401600060405180830381600087803b15801561080957600080fd5b505af115801561081d573d6000803e3d6000fd5b505050505b60008481526001602090815260409182902080546001600160a01b0319166001600160a01b038716908117909155915133815286917f7f9a7dcb234c909a09de2f344661ad9e5b24067adb97c908647c2edcbb121c3091015b60405180910390a350505050565b610891611099565b61089b60006110c6565b565b6040516331a9108f60e11b81526004810184905261094e907f00000000000000000000000000000000000000000000000000000000000000006001600160a01b031690636352211e90602401602060405180830381865afa158015610906573d6000803e3d6000fd5b505050506040513d601f19601f8201168201806040525081019061092a919061135a565b6000858152600160205260409020548590600e906001600160a01b03163314611089565b6000838152600160205260408082205490516301ffc9a760e01b8152632877540760e01b60048201526001600160a01b03909116919082906301ffc9a790602401602060405180830381865afa1580156109ac573d6000803e3d6000fd5b505050506040513d601f19601f820116820180604052508101906109d09190611435565b1580610a40575060405163b1a50e3360e01b8152600481018690526001600160a01b0383169063b1a50e3390602401602060405180830381865afa158015610a1c573d6000803e3d6000fd5b505050506040513d601f19601f82011682018060405250810190610a409190611435565b6000868152600160205260409020549091506001600160a01b03163314801590610a68575080155b15610a86576040516375fef35f60e11b815260040160405180910390fd5b6000858152600360205260409020610a9f908585611116565b50826001811115610b5e5760005b81811015610b5c576000610ac2826001611452565b90505b82811015610b5357868682818110610adf57610adf611406565b9050602002016020810190610af491906112e9565b6001600160a01b0316878784818110610b0f57610b0f611406565b9050602002016020810190610b2491906112e9565b6001600160a01b031603610b4b57604051633e3830ab60e11b815260040160405180910390fd5b600101610ac5565b50600101610aad565b505b857fb648241d83df6540fc10f2acc641e4bf80a1e84e7ae2f1f6b0ad204b8fee635b868633604051610b9293929190611473565b60405180910390a2505050505050565b60008281526004602090815260408083206001600160a01b0380861685529252822054168015801590610bda5750610bda8482610425565b15610be657905061049e565b600084815260036020526040812054905b81811015610cc2576000868152600360205260408120805483908110610c1f57610c1f611406565b6000918252602082200154604051633a01714f60e01b8152600481018a90526001600160a01b03898116602483015290911692508290633a01714f90604401606060405180830381865afa158015610c7b573d6000803e3d6000fd5b505050506040513d601f19601f82011682018060405250810190610c9f9190611377565b516001600160a01b031614610cb957935061049e92505050565b50600101610bf7565b50600095945050505050565b610cd6611099565b6001600160a01b038216600081815260026020908152604091829020805460ff191685151590811790915591513381529192917f11207664cc48b0fa81c8674795f1d8f642960f38d5d2d305ad813093bed85fab910160405180910390a35050565b600081815260036020908152604091829020805483518184028101840190945280845260609392830182828015610d9857602002820191906000526020600020905b81546001600160a01b03168152600190910190602001808311610d7a575b50505050509050919050565b610dac611099565b6001600160a01b038116610ddb57604051631e4fbdf760e01b8152600060048201526024015b60405180910390fd5b610de4816110c6565b50565b336001600160a01b0384168114801590610eac5750604051631a45b42760e11b81526001600160a01b0382811660048301528581166024830152604482018590526064820184905260016084830181905260a48301527f0000000000000000000000000000000000000000000000000000000000000000169063348b684e9060c401602060405180830381865afa158015610e86573d6000803e3d6000fd5b505050506040513d601f19601f82011682018060405250810190610eaa9190611435565b155b15610eca5760405163075fd2b160e01b815260040160405180910390fd5b50505050565b610eda8282610425565b15610ee3575050565b6000828152600160205260408082205490516301ffc9a760e01b8152632877540760e01b60048201526001600160a01b03909116919082906301ffc9a790602401602060405180830381865afa158015610f41573d6000803e3d6000fd5b505050506040513d601f19601f82011682018060405250810190610f659190611435565b1580610fd5575060405163b1a50e3360e01b8152600481018590526001600160a01b0383169063b1a50e3390602401602060405180830381865afa158015610fb1573d6000803e3d6000fd5b505050506040513d601f19601f82011682018060405250810190610fd59190611435565b6000858152600160205260409020549091506001600160a01b03163314801590610ffd575080155b1561101b576040516375fef35f60e11b815260040160405180910390fd5b600084815260036020908152604080832080546001810182559084529282902090920180546001600160a01b0319166001600160a01b038716908117909155915133815286917f409bccc07b7cf7807930526a24318212d614c59f2dde05a017a41efee144e7c8910161087b565b80610eca57610eca848484610de7565b6000546001600160a01b0316331461089b5760405163118cdaa760e01b8152336004820152602401610dd2565b600080546001600160a01b038381166001600160a01b0319831681178455604051919092169283917f8be0079c531659141344cd1fd0a4f28419497f9722a3daafe3b4186f6b6457e09190a35050565b828054828255906000526020600020908101928215611169579160200282015b828111156111695781546001600160a01b0319166001600160a01b03843516178255602090920191600190910190611136565b50611175929150611179565b5090565b5b80821115611175576000815560010161117a565b6000602082840312156111a057600080fd5b5035919050565b6001600160a01b0381168114610de457600080fd5b6000806000606084860312156111d157600080fd5b8335925060208401356111e3816111a7565b915060408401356111f3816111a7565b809150509250925092565b6000806040838503121561121157600080fd5b823591506020830135611223816111a7565b809150509250929050565b60008060006040848603121561124357600080fd5b83359250602084013567ffffffffffffffff8082111561126257600080fd5b818601915086601f83011261127657600080fd5b81358181111561128557600080fd5b8760208260051b850101111561129a57600080fd5b6020830194508093505050509250925092565b8015158114610de457600080fd5b600080604083850312156112ce57600080fd5b82356112d9816111a7565b91506020830135611223816112ad565b6000602082840312156112fb57600080fd5b8135611306816111a7565b9392505050565b6020808252825182820181905260009190848201906040850190845b8181101561134e5783516001600160a01b031683529284019291840191600101611329565b50909695505050505050565b60006020828403121561136c57600080fd5b8151611306816111a7565b60006060828403121561138957600080fd5b6040516060810181811067ffffffffffffffff821117156113ba57634e487b7160e01b600052604160045260246000fd5b60405282516113c8816111a7565b8152602083015160ff811681146113de57600080fd5b6020820152604083015163ffffffff811681146113fa57600080fd5b60408201529392505050565b634e487b7160e01b600052603260045260246000fd5b60006020828403121561142e57600080fd5b5051919050565b60006020828403121561144757600080fd5b8151611306816112ad565b8082018082111561049e57634e487b7160e01b600052601160045260246000fd5b6040808252810183905260008460608301825b868110156114b6578235611499816111a7565b6001600160a01b0316825260209283019290910190600101611486565b506001600160a01b0394909416602093909301929092525090939250505056fea264697066735822122014c4986053115deb9360b293eb376675269a89a05b44254d712320b53249780564736f6c63430008170033",
	"deployedBytecode": "0x608060405234801561001057600080fd5b50600436106100ea5760003560e01c8063862026501161008c578063c5664e2111610066578063c5664e21146101f9578063d17541531461021c578063f2fde38b1461023c578063f434c9141461024f57600080fd5b806386202650146101c25780638da5cb5b146101d5578063a1ed3175146101e657600080fd5b80636e49181f116100c85780636e49181f14610171578063714e7f3214610194578063715018a6146101a7578063821b9fd8146101af57600080fd5b8063293c4999146100ef5780635dd8f6aa1461013357806363d0850a1461015c575b600080fd5b6101167f0000000000000000000000000dd4c75a29147a662656535808b033abc568e33b81565b6040516001600160a01b0390911681526020015b60405180910390f35b61011661014136600461118e565b6001602052600090815260409020546001600160a01b031681565b61016f61016a3660046111bc565b610276565b005b61018461017f3660046111fe565b610425565b604051901515815260200161012a565b61016f6101a23660046111fe565b6104a4565b61016f610889565b61016f6101bd36600461122e565b61089d565b6101166101d03660046111fe565b610ba2565b6000546001600160a01b0316610116565b61016f6101f43660046112bb565b610cce565b6101846102073660046112e9565b60026020526000908152604090205460ff1681565b61022f61022a36600461118e565b610d38565b60405161012a919061130d565b61016f61024a3660046112e9565b610da4565b6101167f0000000000000000000000004475b99b2f6f06c5048fe8c3839dfe2e5d744e6581565b6040516331a9108f60e11b81526004810184905261030b907f0000000000000000000000000dd4c75a29147a662656535808b033abc568e33b6001600160a01b031690636352211e90602401602060405180830381865afa1580156102df573d6000803e3d6000fd5b505050506040513d601f19601f82011682018060405250810190610303919061135a565b84600f610de7565b604051633a01714f60e01b8152600481018490526001600160a01b03838116602483015260009190831690633a01714f90604401606060405180830381865afa15801561035c573d6000803e3d6000fd5b505050506040513d601f19601f820116820180604052508101906103809190611377565b516001600160a01b0316036103a857604051630faa917b60e11b815260040160405180910390fd5b6103b28382610ed0565b60008381526004602090815260408083206001600160a01b038681168086529184529382902080546001600160a01b03191694861694851790559051338152909186917fc670a502bbb9f8a4315f95eca901a9f99b65f89a2eb5705a58050e5c00f9d672910160405180910390a4505050565b600082815260036020526040812054815b8181101561049757600085815260036020526040902080546001600160a01b03861691908390811061046a5761046a611406565b6000918252602090912001546001600160a01b03160361048f5760019250505061049e565b600101610436565b5060009150505b92915050565b6040516331a9108f60e11b81526004810183905261056f907f0000000000000000000000000dd4c75a29147a662656535808b033abc568e33b6001600160a01b031690636352211e90602401602060405180830381865afa15801561050d573d6000803e3d6000fd5b505050506040513d601f19601f82011682018060405250810190610531919061135a565b336000908152600260205260409020548490600d9060ff16801561056a57506000868152600160205260409020546001600160a01b0316155b611089565b817f0000000000000000000000000dd4c75a29147a662656535808b033abc568e33b6001600160a01b03166306661abd6040518163ffffffff1660e01b8152600401602060405180830381865afa1580156105ce573d6000803e3d6000fd5b505050506040513d601f19601f820116820180604052508101906105f2919061141c565b101561061157604051634a283a5360e11b815260040160405180910390fd5b6000828152600160205260408120546001600160a01b0316908115806106a357506040516301ffc9a760e01b8152632877540760e01b60048201526001600160a01b038316906301ffc9a790602401602060405180830381865afa15801561067d573d6000803e3d6000fd5b505050506040513d601f19601f820116820180604052508101906106a19190611435565b155b61071557604051632674968d60e21b8152600481018590526001600160a01b038316906399d25a3490602401602060405180830381865afa1580156106ec573d6000803e3d6000fd5b505050506040513d601f19601f820116820180604052508101906107109190611435565b610718565b60015b9050806107385760405163a33db4cb60e01b815260040160405180910390fd5b6001600160a01b038216158015906107ba57506040516301ffc9a760e01b815263217a87fd60e21b60048201526001600160a01b038316906301ffc9a790602401602060405180830381865afa158015610796573d6000803e3d6000fd5b505050506040513d601f19601f820116820180604052508101906107ba9190611435565b156108225760405163202dc27d60e11b8152600481018590526001600160a01b03848116602483015283169063405b84fa90604401600060405180830381600087803b15801561080957600080fd5b505af115801561081d573d6000803e3d6000fd5b505050505b60008481526001602090815260409182902080546001600160a01b0319166001600160a01b038716908117909155915133815286917f7f9a7dcb234c909a09de2f344661ad9e5b24067adb97c908647c2edcbb121c3091015b60405180910390a350505050565b610891611099565b61089b60006110c6565b565b6040516331a9108f60e11b81526004810184905261094e907f0000000000000000000000000dd4c75a29147a662656535808b033abc568e33b6001600160a01b031690636352211e90602401602060405180830381865afa158015610906573d6000803e3d6000fd5b505050506040513d601f19601f8201168201806040525081019061092a919061135a565b6000858152600160205260409020548590600e906001600160a01b03163314611089565b6000838152600160205260408082205490516301ffc9a760e01b8152632877540760e01b60048201526001600160a01b03909116919082906301ffc9a790602401602060405180830381865afa1580156109ac573d6000803e3d6000fd5b505050506040513d601f19601f820116820180604052508101906109d09190611435565b1580610a40575060405163b1a50e3360e01b8152600481018690526001600160a01b0383169063b1a50e3390602401602060405180830381865afa158015610a1c573d6000803e3d6000fd5b505050506040513d601f19601f82011682018060405250810190610a409190611435565b6000868152600160205260409020549091506001600160a01b03163314801590610a68575080155b15610a86576040516375fef35f60e11b815260040160405180910390fd5b6000858152600360205260409020610a9f908585611116565b50826001811115610b5e5760005b81811015610b5c576000610ac2826001611452565b90505b82811015610b5357868682818110610adf57610adf611406565b9050602002016020810190610af491906112e9565b6001600160a01b0316878784818110610b0f57610b0f611406565b9050602002016020810190610b2491906112e9565b6001600160a01b031603610b4b57604051633e3830ab60e11b815260040160405180910390fd5b600101610ac5565b50600101610aad565b505b857fb648241d83df6540fc10f2acc641e4bf80a1e84e7ae2f1f6b0ad204b8fee635b868633604051610b9293929190611473565b60405180910390a2505050505050565b60008281526004602090815260408083206001600160a01b0380861685529252822054168015801590610bda5750610bda8482610425565b15610be657905061049e565b600084815260036020526040812054905b81811015610cc2576000868152600360205260408120805483908110610c1f57610c1f611406565b6000918252602082200154604051633a01714f60e01b8152600481018a90526001600160a01b03898116602483015290911692508290633a01714f90604401606060405180830381865afa158015610c7b573d6000803e3d6000fd5b505050506040513d601f19601f82011682018060405250810190610c9f9190611377565b516001600160a01b031614610cb957935061049e92505050565b50600101610bf7565b50600095945050505050565b610cd6611099565b6001600160a01b038216600081815260026020908152604091829020805460ff191685151590811790915591513381529192917f11207664cc48b0fa81c8674795f1d8f642960f38d5d2d305ad813093bed85fab910160405180910390a35050565b600081815260036020908152604091829020805483518184028101840190945280845260609392830182828015610d9857602002820191906000526020600020905b81546001600160a01b03168152600190910190602001808311610d7a575b50505050509050919050565b610dac611099565b6001600160a01b038116610ddb57604051631e4fbdf760e01b8152600060048201526024015b60405180910390fd5b610de4816110c6565b50565b336001600160a01b0384168114801590610eac5750604051631a45b42760e11b81526001600160a01b0382811660048301528581166024830152604482018590526064820184905260016084830181905260a48301527f0000000000000000000000004475b99b2f6f06c5048fe8c3839dfe2e5d744e65169063348b684e9060c401602060405180830381865afa158015610e86573d6000803e3d6000fd5b505050506040513d601f19601f82011682018060405250810190610eaa9190611435565b155b15610eca5760405163075fd2b160e01b815260040160405180910390fd5b50505050565b610eda8282610425565b15610ee3575050565b6000828152600160205260408082205490516301ffc9a760e01b8152632877540760e01b60048201526001600160a01b03909116919082906301ffc9a790602401602060405180830381865afa158015610f41573d6000803e3d6000fd5b505050506040513d601f19601f82011682018060405250810190610f659190611435565b1580610fd5575060405163b1a50e3360e01b8152600481018590526001600160a01b0383169063b1a50e3390602401602060405180830381865afa158015610fb1573d6000803e3d6000fd5b505050506040513d601f19601f82011682018060405250810190610fd59190611435565b6000858152600160205260409020549091506001600160a01b03163314801590610ffd575080155b1561101b576040516375fef35f60e11b815260040160405180910390fd5b600084815260036020908152604080832080546001810182559084529282902090920180546001600160a01b0319166001600160a01b038716908117909155915133815286917f409bccc07b7cf7807930526a24318212d614c59f2dde05a017a41efee144e7c8910161087b565b80610eca57610eca848484610de7565b6000546001600160a01b0316331461089b5760405163118cdaa760e01b8152336004820152602401610dd2565b600080546001600160a01b038381166001600160a01b0319831681178455604051919092169283917f8be0079c531659141344cd1fd0a4f28419497f9722a3daafe3b4186f6b6457e09190a35050565b828054828255906000526020600020908101928215611169579160200282015b828111156111695781546001600160a01b0319166001600160a01b03843516178255602090920191600190910190611136565b50611175929150611179565b5090565b5b80821115611175576000815560010161117a565b6000602082840312156111a057600080fd5b5035919050565b6001600160a01b0381168114610de457600080fd5b6000806000606084860312156111d157600080fd5b8335925060208401356111e3816111a7565b915060408401356111f3816111a7565b809150509250925092565b6000806040838503121561121157600080fd5b823591506020830135611223816111a7565b809150509250929050565b60008060006040848603121561124357600080fd5b83359250602084013567ffffffffffffffff8082111561126257600080fd5b818601915086601f83011261127657600080fd5b81358181111561128557600080fd5b8760208260051b850101111561129a57600080fd5b6020830194508093505050509250925092565b8015158114610de457600080fd5b600080604083850312156112ce57600080fd5b82356112d9816111a7565b91506020830135611223816112ad565b6000602082840312156112fb57600080fd5b8135611306816111a7565b9392505050565b6020808252825182820181905260009190848201906040850190845b8181101561134e5783516001600160a01b031683529284019291840191600101611329565b50909695505050505050565b60006020828403121561136c57600080fd5b8151611306816111a7565b60006060828403121561138957600080fd5b6040516060810181811067ffffffffffffffff821117156113ba57634e487b7160e01b600052604160045260246000fd5b60405282516113c8816111a7565b8152602083015160ff811681146113de57600080fd5b6020820152604083015163ffffffff811681146113fa57600080fd5b60408201529392505050565b634e487b7160e01b600052603260045260246000fd5b60006020828403121561142e57600080fd5b5051919050565b60006020828403121561144757600080fd5b8151611306816112ad565b8082018082111561049e57634e487b7160e01b600052601160045260246000fd5b6040808252810183905260008460608301825b868110156114b6578235611499816111a7565b6001600160a01b0316825260209283019290910190600101611486565b506001600160a01b0394909416602093909301929092525090939250505056fea264697066735822122014c4986053115deb9360b293eb376675269a89a05b44254d712320b53249780564736f6c63430008170033",
	"devdoc": {
		"kind": "dev",
		"methods": {
			"constructor": {
				"params": {
					"owner": "The address that will own the contract.",
					"permissions": "A contract storing permissions.",
					"projects": "A contract which mints ERC-721s that represent project ownership and transfers."
				}
			},
			"isTerminalOf(uint256,address)": {
				"params": {
					"projectId": "The ID of the project to check.",
					"terminal": "The terminal to check for."
				},
				"returns": {
					"_0": "A flag indicating whether the project uses the terminal."
				}
			},
			"owner()": {
				"details": "Returns the address of the current owner."
			},
			"primaryTerminalOf(uint256,address)": {
				"details": "Returns the first terminal that accepts the token if the project hasn't explicitly set a primary terminal for it.Returns the zero address if no terminal accepts the token.",
				"params": {
					"projectId": "The ID of the project to get the primary terminal of.",
					"token": "The token that the terminal accepts."
				},
				"returns": {
					"_0": "The primary terminal's address."
				}
			},
			"renounceOwnership()": {
				"details": "Leaves the contract without owner. It will not be possible to call `onlyOwner` functions. Can only be called by the current owner. NOTE: Renouncing ownership will leave the contract without an owner, thereby disabling any functionality that is only available to the owner."
			},
			"setControllerOf(uint256,address)": {
				"details": "Can only be called if: - The ruleset's metadata has `allowSetController` enabled, and the message's sender is the project's owner or an address with the owner's permission to `SET_CONTROLLER`. - OR the message's sender is the project's current controller. - OR an address which `isAllowedToSetFirstController` is setting a project's first controller.",
				"params": {
					"controller": "The address of the controller to set.",
					"projectId": "The ID of the project whose controller is being set."
				}
			},
			"setIsAllowedToSetFirstController(address,bool)": {
				"details": "Only this contract's owner can call this function.These addresses are vetted controllers as well as contracts designed to launch new projects.A project can set its own controller without being on this list.If you would like to add an address/contract to this list, please reach out to this contract's owner.",
				"params": {
					"addr": "The address to allow or not allow.",
					"flag": "Whether the address is allowed to set first controllers for projects. Use `true` to allow and `false` to not allow."
				}
			},
			"setPrimaryTerminalOf(uint256,address,address)": {
				"details": "The primary terminal for a token is where payments in that token are routed to by default.This is useful in cases where a project has multiple terminals which accept the same token.Can only be called by the project's owner, or an address with the owner's permission to `SET_PRIMARY_TERMINAL`.",
				"params": {
					"projectId": "The ID of the project whose primary terminal is being set.",
					"terminal": "The terminal being set as the primary terminal.",
					"token": "The token to set the primary terminal for."
				}
			},
			"setTerminalsOf(uint256,address[])": {
				"details": "Can only be called by the project's owner, an address with the owner's permission to `SET_TERMINALS`, or the project's controller.Unless the caller is the project's controller, the project's ruleset must allow setting terminals.",
				"params": {
					"projectId": "The ID of the project whose terminals are being set.",
					"terminals": "An array of terminal addresses to set for the project."
				}
			},
			"terminalsOf(uint256)": {
				"params": {
					"projectId": "The ID of the project to get the terminals of."
				},
				"returns": {
					"_0": "An array of the project's terminal addresses."
				}
			},
			"transferOwnership(address)": {
				"details": "Transfers ownership of the contract to a new account (`newOwner`). Can only be called by the current owner."
			}
		},
		"version": 1
	},
	"userdoc": {
		"kind": "user",
		"methods": {
			"PERMISSIONS()": {
				"notice": "A contract storing permissions."
			},
			"PROJECTS()": {
				"notice": "Mints ERC-721s that represent project ownership and transfers."
			},
			"controllerOf(uint256)": {
				"notice": "The specified project's controller, which dictates how its terminals interact with its tokens and rulesets."
			},
			"isAllowedToSetFirstController(address)": {
				"notice": "Whether the specified address is allowed to set a project's first controller on their behalf."
			},
			"isTerminalOf(uint256,address)": {
				"notice": "Check if a project uses a specific terminal."
			},
			"primaryTerminalOf(uint256,address)": {
				"notice": "The primary terminal that a project uses for the specified token."
			},
			"setControllerOf(uint256,address)": {
				"notice": "Set a project's controller. Controllers manage how terminals interact with tokens and rulesets."
			},
			"setIsAllowedToSetFirstController(address,bool)": {
				"notice": "Add or remove an address/contract from a list of trusted addresses which are allowed to set a first controller for projects."
			},
			"setPrimaryTerminalOf(uint256,address,address)": {
				"notice": "Set a project's primary terminal for a token."
			},
			"setTerminalsOf(uint256,address[])": {
				"notice": "Set a project's terminals."
			},
			"terminalsOf(uint256)": {
				"notice": "The specified project's terminals."
			}
		},
		"version": 1
	},
	"gitCommit": "a991cc8048c2498c20ee78dc68456d84b45f9e4f",
	"sourceName": "src/JBDirectory.sol",
	"chainId": "84532",
	"linkReferences": {},
	"deployedLinkReferences": {},
	"history": []
}