{
	"_format": "sphinx-sol-ct-artifact-1",
	"merkleRoot": "0x732be88c08b5a2d625882757714ef23a3a10316e007749118eaca4a956dc9f8a",
	"contractName": "JBERC20",
	"address": "0xb2C36630B8774c8346D980fb9BCcA40B28C26Df6",
	"abi": [
		{
			"type": "constructor",
			"inputs": [],
			"stateMutability": "nonpayable"
		},
		{
			"type": "function",
			"name": "CLOCK_MODE",
			"inputs": [],
			"outputs": [
				{
					"name": "",
					"type": "string",
					"internalType": "string"
				}
			],
			"stateMutability": "view"
		},
		{
			"type": "function",
			"name": "DOMAIN_SEPARATOR",
			"inputs": [],
			"outputs": [
				{
					"name": "",
					"type": "bytes32",
					"internalType": "bytes32"
				}
			],
			"stateMutability": "view"
		},
		{
			"type": "function",
			"name": "allowance",
			"inputs": [
				{
					"name": "owner",
					"type": "address",
					"internalType": "address"
				},
				{
					"name": "spender",
					"type": "address",
					"internalType": "address"
				}
			],
			"outputs": [
				{
					"name": "",
					"type": "uint256",
					"internalType": "uint256"
				}
			],
			"stateMutability": "view"
		},
		{
			"type": "function",
			"name": "approve",
			"inputs": [
				{
					"name": "spender",
					"type": "address",
					"internalType": "address"
				},
				{
					"name": "value",
					"type": "uint256",
					"internalType": "uint256"
				}
			],
			"outputs": [
				{
					"name": "",
					"type": "bool",
					"internalType": "bool"
				}
			],
			"stateMutability": "nonpayable"
		},
		{
			"type": "function",
			"name": "balanceOf",
			"inputs": [
				{
					"name": "account",
					"type": "address",
					"internalType": "address"
				}
			],
			"outputs": [
				{
					"name": "",
					"type": "uint256",
					"internalType": "uint256"
				}
			],
			"stateMutability": "view"
		},
		{
			"type": "function",
			"name": "burn",
			"inputs": [
				{
					"name": "account",
					"type": "address",
					"internalType": "address"
				},
				{
					"name": "amount",
					"type": "uint256",
					"internalType": "uint256"
				}
			],
			"outputs": [],
			"stateMutability": "nonpayable"
		},
		{
			"type": "function",
			"name": "checkpoints",
			"inputs": [
				{
					"name": "account",
					"type": "address",
					"internalType": "address"
				},
				{
					"name": "pos",
					"type": "uint32",
					"internalType": "uint32"
				}
			],
			"outputs": [
				{
					"name": "",
					"type": "tuple",
					"internalType": "struct Checkpoints.Checkpoint208",
					"components": [
						{
							"name": "_key",
							"type": "uint48",
							"internalType": "uint48"
						},
						{
							"name": "_value",
							"type": "uint208",
							"internalType": "uint208"
						}
					]
				}
			],
			"stateMutability": "view"
		},
		{
			"type": "function",
			"name": "clock",
			"inputs": [],
			"outputs": [
				{
					"name": "",
					"type": "uint48",
					"internalType": "uint48"
				}
			],
			"stateMutability": "view"
		},
		{
			"type": "function",
			"name": "decimals",
			"inputs": [],
			"outputs": [
				{
					"name": "",
					"type": "uint8",
					"internalType": "uint8"
				}
			],
			"stateMutability": "view"
		},
		{
			"type": "function",
			"name": "delegate",
			"inputs": [
				{
					"name": "delegatee",
					"type": "address",
					"internalType": "address"
				}
			],
			"outputs": [],
			"stateMutability": "nonpayable"
		},
		{
			"type": "function",
			"name": "delegateBySig",
			"inputs": [
				{
					"name": "delegatee",
					"type": "address",
					"internalType": "address"
				},
				{
					"name": "nonce",
					"type": "uint256",
					"internalType": "uint256"
				},
				{
					"name": "expiry",
					"type": "uint256",
					"internalType": "uint256"
				},
				{
					"name": "v",
					"type": "uint8",
					"internalType": "uint8"
				},
				{
					"name": "r",
					"type": "bytes32",
					"internalType": "bytes32"
				},
				{
					"name": "s",
					"type": "bytes32",
					"internalType": "bytes32"
				}
			],
			"outputs": [],
			"stateMutability": "nonpayable"
		},
		{
			"type": "function",
			"name": "delegates",
			"inputs": [
				{
					"name": "account",
					"type": "address",
					"internalType": "address"
				}
			],
			"outputs": [
				{
					"name": "",
					"type": "address",
					"internalType": "address"
				}
			],
			"stateMutability": "view"
		},
		{
			"type": "function",
			"name": "eip712Domain",
			"inputs": [],
			"outputs": [
				{
					"name": "fields",
					"type": "bytes1",
					"internalType": "bytes1"
				},
				{
					"name": "name",
					"type": "string",
					"internalType": "string"
				},
				{
					"name": "version",
					"type": "string",
					"internalType": "string"
				},
				{
					"name": "chainId",
					"type": "uint256",
					"internalType": "uint256"
				},
				{
					"name": "verifyingContract",
					"type": "address",
					"internalType": "address"
				},
				{
					"name": "salt",
					"type": "bytes32",
					"internalType": "bytes32"
				},
				{
					"name": "extensions",
					"type": "uint256[]",
					"internalType": "uint256[]"
				}
			],
			"stateMutability": "view"
		},
		{
			"type": "function",
			"name": "getPastTotalSupply",
			"inputs": [
				{
					"name": "timepoint",
					"type": "uint256",
					"internalType": "uint256"
				}
			],
			"outputs": [
				{
					"name": "",
					"type": "uint256",
					"internalType": "uint256"
				}
			],
			"stateMutability": "view"
		},
		{
			"type": "function",
			"name": "getPastVotes",
			"inputs": [
				{
					"name": "account",
					"type": "address",
					"internalType": "address"
				},
				{
					"name": "timepoint",
					"type": "uint256",
					"internalType": "uint256"
				}
			],
			"outputs": [
				{
					"name": "",
					"type": "uint256",
					"internalType": "uint256"
				}
			],
			"stateMutability": "view"
		},
		{
			"type": "function",
			"name": "getVotes",
			"inputs": [
				{
					"name": "account",
					"type": "address",
					"internalType": "address"
				}
			],
			"outputs": [
				{
					"name": "",
					"type": "uint256",
					"internalType": "uint256"
				}
			],
			"stateMutability": "view"
		},
		{
			"type": "function",
			"name": "initialize",
			"inputs": [
				{
					"name": "name_",
					"type": "string",
					"internalType": "string"
				},
				{
					"name": "symbol_",
					"type": "string",
					"internalType": "string"
				},
				{
					"name": "owner",
					"type": "address",
					"internalType": "address"
				}
			],
			"outputs": [],
			"stateMutability": "nonpayable"
		},
		{
			"type": "function",
			"name": "mint",
			"inputs": [
				{
					"name": "account",
					"type": "address",
					"internalType": "address"
				},
				{
					"name": "amount",
					"type": "uint256",
					"internalType": "uint256"
				}
			],
			"outputs": [],
			"stateMutability": "nonpayable"
		},
		{
			"type": "function",
			"name": "name",
			"inputs": [],
			"outputs": [
				{
					"name": "",
					"type": "string",
					"internalType": "string"
				}
			],
			"stateMutability": "view"
		},
		{
			"type": "function",
			"name": "nonces",
			"inputs": [
				{
					"name": "owner",
					"type": "address",
					"internalType": "address"
				}
			],
			"outputs": [
				{
					"name": "",
					"type": "uint256",
					"internalType": "uint256"
				}
			],
			"stateMutability": "view"
		},
		{
			"type": "function",
			"name": "numCheckpoints",
			"inputs": [
				{
					"name": "account",
					"type": "address",
					"internalType": "address"
				}
			],
			"outputs": [
				{
					"name": "",
					"type": "uint32",
					"internalType": "uint32"
				}
			],
			"stateMutability": "view"
		},
		{
			"type": "function",
			"name": "owner",
			"inputs": [],
			"outputs": [
				{
					"name": "",
					"type": "address",
					"internalType": "address"
				}
			],
			"stateMutability": "view"
		},
		{
			"type": "function",
			"name": "permit",
			"inputs": [
				{
					"name": "owner",
					"type": "address",
					"internalType": "address"
				},
				{
					"name": "spender",
					"type": "address",
					"internalType": "address"
				},
				{
					"name": "value",
					"type": "uint256",
					"internalType": "uint256"
				},
				{
					"name": "deadline",
					"type": "uint256",
					"internalType": "uint256"
				},
				{
					"name": "v",
					"type": "uint8",
					"internalType": "uint8"
				},
				{
					"name": "r",
					"type": "bytes32",
					"internalType": "bytes32"
				},
				{
					"name": "s",
					"type": "bytes32",
					"internalType": "bytes32"
				}
			],
			"outputs": [],
			"stateMutability": "nonpayable"
		},
		{
			"type": "function",
			"name": "renounceOwnership",
			"inputs": [],
			"outputs": [],
			"stateMutability": "nonpayable"
		},
		{
			"type": "function",
			"name": "symbol",
			"inputs": [],
			"outputs": [
				{
					"name": "",
					"type": "string",
					"internalType": "string"
				}
			],
			"stateMutability": "view"
		},
		{
			"type": "function",
			"name": "totalSupply",
			"inputs": [],
			"outputs": [
				{
					"name": "",
					"type": "uint256",
					"internalType": "uint256"
				}
			],
			"stateMutability": "view"
		},
		{
			"type": "function",
			"name": "transfer",
			"inputs": [
				{
					"name": "to",
					"type": "address",
					"internalType": "address"
				},
				{
					"name": "value",
					"type": "uint256",
					"internalType": "uint256"
				}
			],
			"outputs": [
				{
					"name": "",
					"type": "bool",
					"internalType": "bool"
				}
			],
			"stateMutability": "nonpayable"
		},
		{
			"type": "function",
			"name": "transferFrom",
			"inputs": [
				{
					"name": "from",
					"type": "address",
					"internalType": "address"
				},
				{
					"name": "to",
					"type": "address",
					"internalType": "address"
				},
				{
					"name": "value",
					"type": "uint256",
					"internalType": "uint256"
				}
			],
			"outputs": [
				{
					"name": "",
					"type": "bool",
					"internalType": "bool"
				}
			],
			"stateMutability": "nonpayable"
		},
		{
			"type": "function",
			"name": "transferOwnership",
			"inputs": [
				{
					"name": "newOwner",
					"type": "address",
					"internalType": "address"
				}
			],
			"outputs": [],
			"stateMutability": "nonpayable"
		},
		{
			"type": "event",
			"name": "Approval",
			"inputs": [
				{
					"name": "owner",
					"type": "address",
					"indexed": true,
					"internalType": "address"
				},
				{
					"name": "spender",
					"type": "address",
					"indexed": true,
					"internalType": "address"
				},
				{
					"name": "value",
					"type": "uint256",
					"indexed": false,
					"internalType": "uint256"
				}
			],
			"anonymous": false
		},
		{
			"type": "event",
			"name": "DelegateChanged",
			"inputs": [
				{
					"name": "delegator",
					"type": "address",
					"indexed": true,
					"internalType": "address"
				},
				{
					"name": "fromDelegate",
					"type": "address",
					"indexed": true,
					"internalType": "address"
				},
				{
					"name": "toDelegate",
					"type": "address",
					"indexed": true,
					"internalType": "address"
				}
			],
			"anonymous": false
		},
		{
			"type": "event",
			"name": "DelegateVotesChanged",
			"inputs": [
				{
					"name": "delegate",
					"type": "address",
					"indexed": true,
					"internalType": "address"
				},
				{
					"name": "previousVotes",
					"type": "uint256",
					"indexed": false,
					"internalType": "uint256"
				},
				{
					"name": "newVotes",
					"type": "uint256",
					"indexed": false,
					"internalType": "uint256"
				}
			],
			"anonymous": false
		},
		{
			"type": "event",
			"name": "EIP712DomainChanged",
			"inputs": [],
			"anonymous": false
		},
		{
			"type": "event",
			"name": "OwnershipTransferred",
			"inputs": [
				{
					"name": "previousOwner",
					"type": "address",
					"indexed": true,
					"internalType": "address"
				},
				{
					"name": "newOwner",
					"type": "address",
					"indexed": true,
					"internalType": "address"
				}
			],
			"anonymous": false
		},
		{
			"type": "event",
			"name": "Transfer",
			"inputs": [
				{
					"name": "from",
					"type": "address",
					"indexed": true,
					"internalType": "address"
				},
				{
					"name": "to",
					"type": "address",
					"indexed": true,
					"internalType": "address"
				},
				{
					"name": "value",
					"type": "uint256",
					"indexed": false,
					"internalType": "uint256"
				}
			],
			"anonymous": false
		},
		{
			"type": "error",
			"name": "CheckpointUnorderedInsertion",
			"inputs": []
		},
		{
			"type": "error",
			"name": "ECDSAInvalidSignature",
			"inputs": []
		},
		{
			"type": "error",
			"name": "ECDSAInvalidSignatureLength",
			"inputs": [
				{
					"name": "length",
					"type": "uint256",
					"internalType": "uint256"
				}
			]
		},
		{
			"type": "error",
			"name": "ECDSAInvalidSignatureS",
			"inputs": [
				{
					"name": "s",
					"type": "bytes32",
					"internalType": "bytes32"
				}
			]
		},
		{
			"type": "error",
			"name": "ERC20ExceededSafeSupply",
			"inputs": [
				{
					"name": "increasedSupply",
					"type": "uint256",
					"internalType": "uint256"
				},
				{
					"name": "cap",
					"type": "uint256",
					"internalType": "uint256"
				}
			]
		},
		{
			"type": "error",
			"name": "ERC20InsufficientAllowance",
			"inputs": [
				{
					"name": "spender",
					"type": "address",
					"internalType": "address"
				},
				{
					"name": "allowance",
					"type": "uint256",
					"internalType": "uint256"
				},
				{
					"name": "needed",
					"type": "uint256",
					"internalType": "uint256"
				}
			]
		},
		{
			"type": "error",
			"name": "ERC20InsufficientBalance",
			"inputs": [
				{
					"name": "sender",
					"type": "address",
					"internalType": "address"
				},
				{
					"name": "balance",
					"type": "uint256",
					"internalType": "uint256"
				},
				{
					"name": "needed",
					"type": "uint256",
					"internalType": "uint256"
				}
			]
		},
		{
			"type": "error",
			"name": "ERC20InvalidApprover",
			"inputs": [
				{
					"name": "approver",
					"type": "address",
					"internalType": "address"
				}
			]
		},
		{
			"type": "error",
			"name": "ERC20InvalidReceiver",
			"inputs": [
				{
					"name": "receiver",
					"type": "address",
					"internalType": "address"
				}
			]
		},
		{
			"type": "error",
			"name": "ERC20InvalidSender",
			"inputs": [
				{
					"name": "sender",
					"type": "address",
					"internalType": "address"
				}
			]
		},
		{
			"type": "error",
			"name": "ERC20InvalidSpender",
			"inputs": [
				{
					"name": "spender",
					"type": "address",
					"internalType": "address"
				}
			]
		},
		{
			"type": "error",
			"name": "ERC2612ExpiredSignature",
			"inputs": [
				{
					"name": "deadline",
					"type": "uint256",
					"internalType": "uint256"
				}
			]
		},
		{
			"type": "error",
			"name": "ERC2612InvalidSigner",
			"inputs": [
				{
					"name": "signer",
					"type": "address",
					"internalType": "address"
				},
				{
					"name": "owner",
					"type": "address",
					"internalType": "address"
				}
			]
		},
		{
			"type": "error",
			"name": "ERC5805FutureLookup",
			"inputs": [
				{
					"name": "timepoint",
					"type": "uint256",
					"internalType": "uint256"
				},
				{
					"name": "clock",
					"type": "uint48",
					"internalType": "uint48"
				}
			]
		},
		{
			"type": "error",
			"name": "ERC6372InconsistentClock",
			"inputs": []
		},
		{
			"type": "error",
			"name": "InvalidAccountNonce",
			"inputs": [
				{
					"name": "account",
					"type": "address",
					"internalType": "address"
				},
				{
					"name": "currentNonce",
					"type": "uint256",
					"internalType": "uint256"
				}
			]
		},
		{
			"type": "error",
			"name": "InvalidShortString",
			"inputs": []
		},
		{
			"type": "error",
			"name": "OwnableInvalidOwner",
			"inputs": [
				{
					"name": "owner",
					"type": "address",
					"internalType": "address"
				}
			]
		},
		{
			"type": "error",
			"name": "OwnableUnauthorizedAccount",
			"inputs": [
				{
					"name": "account",
					"type": "address",
					"internalType": "address"
				}
			]
		},
		{
			"type": "error",
			"name": "SafeCastOverflowedUintDowncast",
			"inputs": [
				{
					"name": "bits",
					"type": "uint8",
					"internalType": "uint8"
				},
				{
					"name": "value",
					"type": "uint256",
					"internalType": "uint256"
				}
			]
		},
		{
			"type": "error",
			"name": "StringTooLong",
			"inputs": [
				{
					"name": "str",
					"type": "string",
					"internalType": "string"
				}
			]
		},
		{
			"type": "error",
			"name": "VotesExpiredSignature",
			"inputs": [
				{
					"name": "expiry",
					"type": "uint256",
					"internalType": "uint256"
				}
			]
		}
	],
	"solcInputHash": "b6c351fd96634234999dc102235e550e",
	"args": [],
	"bytecode": "0x6101606040523480156200001257600080fd5b50306040518060400160405280600781526020016625212a37b5b2b760c91b81525080604051806040016040528060018152602001603160f81b815250604051806040016040528060078152602001661a5b9d985b1a5960ca1b815250604051806040016040528060078152602001661a5b9d985b1a5960ca1b8152508160039081620000a0919062000321565b506004620000af828262000321565b50620000c191508390506005620001ac565b61012052620000d2816006620001ac565b61014052815160208084019190912060e052815190820120610100524660a0526200016060e05161010051604080517f8b73c3c69bb8fe3d512ecc4cf759cc79239f7b179b0ffacaa9a75d522b39400f60208201529081019290925260608201524660808201523060a082015260009060c00160405160208183030381529060405280519060200120905090565b60805250503060c052506001600160a01b0381166200019a57604051631e4fbdf760e01b8152600060048201526024015b60405180910390fd5b620001a581620001e5565b5062000463565b6000602083511015620001cc57620001c48362000237565b9050620001df565b81620001d9848262000321565b5060ff90505b92915050565b600b80546001600160a01b038381166001600160a01b0319831681179093556040519116919082907f8be0079c531659141344cd1fd0a4f28419497f9722a3daafe3b4186f6b6457e090600090a35050565b600080829050601f8151111562000265578260405163305a27a960e01b8152600401620001919190620003ed565b805162000272826200043e565b179392505050565b634e487b7160e01b600052604160045260246000fd5b600181811c90821680620002a557607f821691505b602082108103620002c657634e487b7160e01b600052602260045260246000fd5b50919050565b601f8211156200031c576000816000526020600020601f850160051c81016020861015620002f75750805b601f850160051c820191505b81811015620003185782815560010162000303565b5050505b505050565b81516001600160401b038111156200033d576200033d6200027a565b62000355816200034e845462000290565b84620002cc565b602080601f8311600181146200038d5760008415620003745750858301515b600019600386901b1c1916600185901b17855562000318565b600085815260208120601f198616915b82811015620003be578886015182559484019460019091019084016200039d565b5085821015620003dd5787850151600019600388901b60f8161c191681555b5050505050600190811b01905550565b60006020808352835180602085015260005b818110156200041d57858101830151858201604001528201620003ff565b506000604082860101526040601f19601f8301168501019250505092915050565b80516020808301519190811015620002c65760001960209190910360031b1b16919050565b60805160a05160c05160e051610100516101205161014051612288620004be6000396000610f4e01526000610f2101526000610cbc01526000610c9401526000610bef01526000610c1901526000610c4301526122886000f3fe608060405234801561001057600080fd5b50600436106101cf5760003560e01c8063715018a6116101045780639ab24eb0116100a2578063d505accf11610071578063d505accf146103f7578063dd62ed3e1461040a578063f1127ed814610443578063f2fde38b1461048257600080fd5b80639ab24eb0146103ab5780639dc29fac146103be578063a9059cbb146103d1578063c3cda520146103e457600080fd5b80638da5cb5b116100de5780638da5cb5b146103605780638e539e8c1461037157806391ddadf41461038457806395d89b41146103a357600080fd5b8063715018a61461032a5780637ecebe001461033257806384b0196e1461034557600080fd5b80633a46b1a811610171578063587cde1e1161014b578063587cde1e146102985780635c19a95c146102dc5780636fcfff45146102ef57806370a082311461031757600080fd5b80633a46b1a81461026a57806340c10f191461027d5780634bf5d7e91461029057600080fd5b806318160ddd116101ad57806318160ddd1461022a57806323b872dd14610240578063313ce567146102535780633644e5151461026257600080fd5b806306fdde03146101d4578063077f224a146101f2578063095ea7b314610207575b600080fd5b6101dc610495565b6040516101e99190611c62565b60405180910390f35b610205610200366004611d34565b610527565b005b61021a610215366004611da8565b610574565b60405190151581526020016101e9565b61023261058e565b6040519081526020016101e9565b61021a61024e366004611dd2565b61059e565b604051601281526020016101e9565b6102326105c2565b610232610278366004611da8565b6105cc565b61020561028b366004611da8565b610652565b6101dc610668565b6102c46102a6366004611e0e565b6001600160a01b039081166000908152600860205260409020541690565b6040516001600160a01b0390911681526020016101e9565b6102056102ea366004611e0e565b6106e0565b6103026102fd366004611e0e565b6106eb565b60405163ffffffff90911681526020016101e9565b610232610325366004611e0e565b6106f6565b610205610714565b610232610340366004611e0e565b610728565b61034d610733565b6040516101e99796959493929190611e29565b600b546001600160a01b03166102c4565b61023261037f366004611ec2565b610779565b61038c6107e3565b60405165ffffffffffff90911681526020016101e9565b6101dc6107ed565b6102326103b9366004611e0e565b6107fc565b6102056103cc366004611da8565b61082c565b61021a6103df366004611da8565b61083e565b6102056103f2366004611eec565b61084c565b610205610405366004611f44565b610909565b610232610418366004611fae565b6001600160a01b03918216600090815260016020908152604080832093909416825291909152205490565b610456610451366004611fe1565b610a43565b60408051825165ffffffffffff1681526020928301516001600160d01b031692810192909252016101e9565b610205610490366004611e0e565b610a68565b6060600c80546104a490612021565b80601f01602080910402602001604051908101604052809291908181526020018280546104d090612021565b801561051d5780601f106104f25761010080835404028352916020019161051d565b820191906000526020600020905b81548152906001019060200180831161050057829003601f168201915b5050505050905090565b600c805461053490612021565b151590508061054257508251155b1561054c57600080fd5b600c61055884826120ab565b50600d61056583826120ab565b5061056f81610aa6565b505050565b600033610582818585610af8565b60019150505b92915050565b600061059960025490565b905090565b6000336105ac858285610b05565b6105b7858585610b83565b506001949350505050565b6000610599610be2565b6000806105d76107e3565b90508065ffffffffffff16831061061757604051637669fc0f60e11b81526004810184905265ffffffffffff821660248201526044015b60405180910390fd5b61064161062384610d0d565b6001600160a01b038616600090815260096020526040902090610d44565b6001600160d01b0316949350505050565b61065a610dfa565b6106648282610e27565b5050565b6060610672610e5d565b65ffffffffffff166106826107e3565b65ffffffffffff16146106a8576040516301bfc1c560e61b815260040160405180910390fd5b5060408051808201909152601d81527f6d6f64653d626c6f636b6e756d6265722666726f6d3d64656661756c74000000602082015290565b336106648183610e68565b600061058882610eda565b6001600160a01b038116600090815260208190526040812054610588565b61071c610dfa565b6107266000610aa6565b565b600061058882610efc565b600060608060008060006060610747610f1a565b61074f610f47565b60408051600080825260208201909252600f60f81b9b939a50919850469750309650945092509050565b6000806107846107e3565b90508065ffffffffffff1683106107bf57604051637669fc0f60e11b81526004810184905265ffffffffffff8216602482015260440161060e565b6107d36107cb84610d0d565b600a90610d44565b6001600160d01b03169392505050565b6000610599610e5d565b6060600d80546104a490612021565b6001600160a01b038116600090815260096020526040812061081d90610f74565b6001600160d01b031692915050565b610834610dfa565b6106648282610fad565b600033610582818585610b83565b8342111561087057604051632341d78760e11b81526004810185905260240161060e565b604080517fe48329057bfd03d55e49b547132e39cffd9c1820ad7b9d4c5307691425d15adf60208201526001600160a01b0388169181019190915260608101869052608081018590526000906108ea906108e29060a00160405160208183030381529060405280519060200120610fe3565b858585611010565b90506108f6818761103e565b6109008188610e68565b50505050505050565b8342111561092d5760405163313c898160e11b81526004810185905260240161060e565b60007f6e71edae12b1b97f4d1f60370fef10105fa2faae0126114a169c64845d6126c988888861097a8c6001600160a01b0316600090815260076020526040902080546001810190915590565b6040805160208101969096526001600160a01b0394851690860152929091166060840152608083015260a082015260c0810186905260e00160405160208183030381529060405280519060200120905060006109d582610fe3565b905060006109e582878787611010565b9050896001600160a01b0316816001600160a01b031614610a2c576040516325c0072360e11b81526001600160a01b0380831660048301528b16602482015260440161060e565b610a378a8a8a610af8565b50505050505050505050565b6040805180820190915260008082526020820152610a618383611091565b9392505050565b610a70610dfa565b6001600160a01b038116610a9a57604051631e4fbdf760e01b81526000600482015260240161060e565b610aa381610aa6565b50565b600b80546001600160a01b038381166001600160a01b0319831681179093556040519116919082907f8be0079c531659141344cd1fd0a4f28419497f9722a3daafe3b4186f6b6457e090600090a35050565b61056f83838360016110c7565b6001600160a01b038381166000908152600160209081526040808320938616835292905220546000198114610b7d5781811015610b6e57604051637dc7a0d960e11b81526001600160a01b0384166004820152602481018290526044810183905260640161060e565b610b7d848484840360006110c7565b50505050565b6001600160a01b038316610bad57604051634b637e8f60e11b81526000600482015260240161060e565b6001600160a01b038216610bd75760405163ec442f0560e01b81526000600482015260240161060e565b61056f83838361119c565b6000306001600160a01b037f000000000000000000000000000000000000000000000000000000000000000016148015610c3b57507f000000000000000000000000000000000000000000000000000000000000000046145b15610c6557507f000000000000000000000000000000000000000000000000000000000000000090565b610599604080517f8b73c3c69bb8fe3d512ecc4cf759cc79239f7b179b0ffacaa9a75d522b39400f60208201527f0000000000000000000000000000000000000000000000000000000000000000918101919091527f000000000000000000000000000000000000000000000000000000000000000060608201524660808201523060a082015260009060c00160405160208183030381529060405280519060200120905090565b600065ffffffffffff821115610d40576040516306dfcc6560e41b8152603060048201526024810183905260440161060e565b5090565b815460009081816005811115610da3576000610d5f846111a7565b610d699085612181565b60008881526020902090915081015465ffffffffffff9081169087161015610d9357809150610da1565b610d9e816001612194565b92505b505b6000610db187878585611300565b90508015610dec57610dd687610dc8600184612181565b600091825260209091200190565b54600160301b90046001600160d01b0316610def565b60005b979650505050505050565b600b546001600160a01b031633146107265760405163118cdaa760e01b815233600482015260240161060e565b6001600160a01b038216610e515760405163ec442f0560e01b81526000600482015260240161060e565b6106646000838361119c565b600061059943610d0d565b6001600160a01b0382811660008181526008602052604080822080548686166001600160a01b0319821681179092559151919094169392849290917f3134e8a2e6d97e929a7e54011ea5485d7d196dd5f0ba4d4ef95803e8e3fc257f9190a461056f8183610ed586611362565b61136d565b6001600160a01b038116600090815260096020526040812054610588906114d9565b6001600160a01b038116600090815260076020526040812054610588565b60606105997f0000000000000000000000000000000000000000000000000000000000000000600561150a565b60606105997f0000000000000000000000000000000000000000000000000000000000000000600661150a565b80546000908015610fa457610f8e83610dc8600184612181565b54600160301b90046001600160d01b0316610a61565b60009392505050565b6001600160a01b038216610fd757604051634b637e8f60e11b81526000600482015260240161060e565b6106648260008361119c565b6000610588610ff0610be2565b8360405161190160f01b8152600281019290925260228201526042902090565b600080600080611022888888886115b5565b9250925092506110328282611684565b50909695505050505050565b6001600160a01b038216600090815260076020526040902080546001810190915581811461056f576040516301d4b62360e61b81526001600160a01b03841660048201526024810182905260440161060e565b60408051808201909152600080825260208201526001600160a01b0383166000908152600960205260409020610a61908361173d565b6001600160a01b0384166110f15760405163e602df0560e01b81526000600482015260240161060e565b6001600160a01b03831661111b57604051634a1406b160e11b81526000600482015260240161060e565b6001600160a01b0380851660009081526001602090815260408083209387168352929052208290558015610b7d57826001600160a01b0316846001600160a01b03167f8c5be1e5ebec7d5bd14f71427d1e84f3dd0314c0f7b2291e5b200ac8c7c3b9258460405161118e91815260200190565b60405180910390a350505050565b61056f8383836117ad565b6000600182116111b5575090565b816001600160801b82106111ce5760809190911c9060401b5b6801000000000000000082106111e95760409190911c9060201b5b64010000000082106112005760209190911c9060101b5b6201000082106112155760109190911c9060081b5b61010082106112295760089190911c9060041b5b6010821061123c5760049190911c9060021b5b600482106112485760011b5b600302600190811c90818581611260576112606121a7565b048201901c90506001818581611278576112786121a7565b048201901c90506001818581611290576112906121a7565b048201901c905060018185816112a8576112a86121a7565b048201901c905060018185816112c0576112c06121a7565b048201901c905060018185816112d8576112d86121a7565b048201901c90506112f78185816112f1576112f16121a7565b04821190565b90039392505050565b60005b8183101561135a5760006113178484611813565b60008781526020902090915065ffffffffffff86169082015465ffffffffffff16111561134657809250611354565b611351816001612194565b93505b50611303565b509392505050565b6000610588826106f6565b816001600160a01b0316836001600160a01b03161415801561138f5750600081115b1561056f576001600160a01b03831615611437576001600160a01b038316600090815260096020526040812081906113d29061182e6113cd8661183a565b61186e565b6001600160d01b031691506001600160d01b03169150846001600160a01b03167fdec2bacdd2f05b59de34da9b523dff8be42e5e38e818c82fdb0bae774387a724838360405161142c929190918252602082015260400190565b60405180910390a250505b6001600160a01b0382161561056f576001600160a01b03821660009081526009602052604081208190611470906118a76113cd8661183a565b6001600160d01b031691506001600160d01b03169150836001600160a01b03167fdec2bacdd2f05b59de34da9b523dff8be42e5e38e818c82fdb0bae774387a72483836040516114ca929190918252602082015260400190565b60405180910390a25050505050565b600063ffffffff821115610d40576040516306dfcc6560e41b8152602060048201526024810183905260440161060e565b606060ff83146115245761151d836118b3565b9050610588565b81805461153090612021565b80601f016020809104026020016040519081016040528092919081815260200182805461155c90612021565b80156115a95780601f1061157e576101008083540402835291602001916115a9565b820191906000526020600020905b81548152906001019060200180831161158c57829003601f168201915b50505050509050610588565b600080807f7fffffffffffffffffffffffffffffff5d576e7357a4501ddfe92f46681b20a08411156115f0575060009150600390508261167a565b604080516000808252602082018084528a905260ff891692820192909252606081018790526080810186905260019060a0016020604051602081039080840390855afa158015611644573d6000803e3d6000fd5b5050604051601f1901519150506001600160a01b0381166116705750600092506001915082905061167a565b9250600091508190505b9450945094915050565b6000826003811115611698576116986121bd565b036116a1575050565b60018260038111156116b5576116b56121bd565b036116d35760405163f645eedf60e01b815260040160405180910390fd5b60028260038111156116e7576116e76121bd565b036117085760405163fce698f760e01b81526004810182905260240161060e565b600382600381111561171c5761171c6121bd565b03610664576040516335e2f38360e21b81526004810182905260240161060e565b6040805180820190915260008082526020820152826000018263ffffffff168154811061176c5761176c6121d3565b60009182526020918290206040805180820190915291015465ffffffffffff81168252600160301b90046001600160d01b0316918101919091529392505050565b6117b88383836118f2565b6001600160a01b0383166118085760006117d061058e565b90506001600160d01b038082111561180557604051630e58ae9360e11b8152600481018390526024810182905260440161060e565b50505b61056f838383611a1c565b600061182260028484186121e9565b610a6190848416612194565b6000610a61828461220b565b60006001600160d01b03821115610d40576040516306dfcc6560e41b815260d060048201526024810183905260440161060e565b60008061189a61187c6107e3565b61189261188888610f74565b868863ffffffff16565b879190611a92565b915091505b935093915050565b6000610a618284612232565b606060006118c083611aa0565b604080516020808252818301909252919250600091906020820181803683375050509182525060208101929092525090565b6001600160a01b03831661191d5780600260008282546119129190612194565b9091555061198f9050565b6001600160a01b038316600090815260208190526040902054818110156119705760405163391434e360e21b81526001600160a01b0385166004820152602481018290526044810183905260640161060e565b6001600160a01b03841660009081526020819052604090209082900390555b6001600160a01b0382166119ab576002805482900390556119ca565b6001600160a01b03821660009081526020819052604090208054820190555b816001600160a01b0316836001600160a01b03167fddf252ad1be2c89b69c2b068fc378daa952ba7f163c4a11628f55a4df523b3ef83604051611a0f91815260200190565b60405180910390a3505050565b6001600160a01b038316611a3e57611a3b600a6118a76113cd8461183a565b50505b6001600160a01b038216611a6057611a5d600a61182e6113cd8461183a565b50505b6001600160a01b0383811660009081526008602052604080822054858416835291205461056f9291821691168361136d565b60008061189a858585611ac8565b600060ff8216601f81111561058857604051632cd44ac360e21b815260040160405180910390fd5b825460009081908015611bc1576000611ae687610dc8600185612181565b805490915065ffffffffffff80821691600160301b90046001600160d01b0316908816821115611b2957604051632520601d60e01b815260040160405180910390fd5b8765ffffffffffff168265ffffffffffff1603611b6257825465ffffffffffff16600160301b6001600160d01b03891602178355611bb3565b6040805180820190915265ffffffffffff808a1682526001600160d01b03808a1660208085019182528d54600181018f5560008f81529190912094519151909216600160301b029216919091179101555b945085935061189f92505050565b50506040805180820190915265ffffffffffff80851682526001600160d01b0380851660208085019182528854600181018a5560008a815291822095519251909316600160301b02919093161792019190915590508161189f565b6000815180845260005b81811015611c4257602081850181015186830182015201611c26565b506000602082860101526020601f19601f83011685010191505092915050565b602081526000610a616020830184611c1c565b634e487b7160e01b600052604160045260246000fd5b600082601f830112611c9c57600080fd5b813567ffffffffffffffff80821115611cb757611cb7611c75565b604051601f8301601f19908116603f01168101908282118183101715611cdf57611cdf611c75565b81604052838152866020858801011115611cf857600080fd5b836020870160208301376000602085830101528094505050505092915050565b80356001600160a01b0381168114611d2f57600080fd5b919050565b600080600060608486031215611d4957600080fd5b833567ffffffffffffffff80821115611d6157600080fd5b611d6d87838801611c8b565b94506020860135915080821115611d8357600080fd5b50611d9086828701611c8b565b925050611d9f60408501611d18565b90509250925092565b60008060408385031215611dbb57600080fd5b611dc483611d18565b946020939093013593505050565b600080600060608486031215611de757600080fd5b611df084611d18565b9250611dfe60208501611d18565b9150604084013590509250925092565b600060208284031215611e2057600080fd5b610a6182611d18565b60ff60f81b881681526000602060e06020840152611e4a60e084018a611c1c565b8381036040850152611e5c818a611c1c565b606085018990526001600160a01b038816608086015260a0850187905284810360c08601528551808252602080880193509091019060005b81811015611eb057835183529284019291840191600101611e94565b50909c9b505050505050505050505050565b600060208284031215611ed457600080fd5b5035919050565b803560ff81168114611d2f57600080fd5b60008060008060008060c08789031215611f0557600080fd5b611f0e87611d18565b95506020870135945060408701359350611f2a60608801611edb565b92506080870135915060a087013590509295509295509295565b600080600080600080600060e0888a031215611f5f57600080fd5b611f6888611d18565b9650611f7660208901611d18565b95506040880135945060608801359350611f9260808901611edb565b925060a0880135915060c0880135905092959891949750929550565b60008060408385031215611fc157600080fd5b611fca83611d18565b9150611fd860208401611d18565b90509250929050565b60008060408385031215611ff457600080fd5b611ffd83611d18565b9150602083013563ffffffff8116811461201657600080fd5b809150509250929050565b600181811c9082168061203557607f821691505b60208210810361205557634e487b7160e01b600052602260045260246000fd5b50919050565b601f82111561056f576000816000526020600020601f850160051c810160208610156120845750805b601f850160051c820191505b818110156120a357828155600101612090565b505050505050565b815167ffffffffffffffff8111156120c5576120c5611c75565b6120d9816120d38454612021565b8461205b565b602080601f83116001811461210e57600084156120f65750858301515b600019600386901b1c1916600185901b1785556120a3565b600085815260208120601f198616915b8281101561213d5788860151825594840194600190910190840161211e565b508582101561215b5787850151600019600388901b60f8161c191681555b5050505050600190811b01905550565b634e487b7160e01b600052601160045260246000fd5b818103818111156105885761058861216b565b808201808211156105885761058861216b565b634e487b7160e01b600052601260045260246000fd5b634e487b7160e01b600052602160045260246000fd5b634e487b7160e01b600052603260045260246000fd5b60008261220657634e487b7160e01b600052601260045260246000fd5b500490565b6001600160d01b0382811682821603908082111561222b5761222b61216b565b5092915050565b6001600160d01b0381811683821601908082111561222b5761222b61216b56fea2646970667358221220f1dbfb02434bdd677760af9d3c5fd40692bf90442e7066d00d03701eedd0274d64736f6c63430008170033",
	"deployedBytecode": "0x608060405234801561001057600080fd5b50600436106101cf5760003560e01c8063715018a6116101045780639ab24eb0116100a2578063d505accf11610071578063d505accf146103f7578063dd62ed3e1461040a578063f1127ed814610443578063f2fde38b1461048257600080fd5b80639ab24eb0146103ab5780639dc29fac146103be578063a9059cbb146103d1578063c3cda520146103e457600080fd5b80638da5cb5b116100de5780638da5cb5b146103605780638e539e8c1461037157806391ddadf41461038457806395d89b41146103a357600080fd5b8063715018a61461032a5780637ecebe001461033257806384b0196e1461034557600080fd5b80633a46b1a811610171578063587cde1e1161014b578063587cde1e146102985780635c19a95c146102dc5780636fcfff45146102ef57806370a082311461031757600080fd5b80633a46b1a81461026a57806340c10f191461027d5780634bf5d7e91461029057600080fd5b806318160ddd116101ad57806318160ddd1461022a57806323b872dd14610240578063313ce567146102535780633644e5151461026257600080fd5b806306fdde03146101d4578063077f224a146101f2578063095ea7b314610207575b600080fd5b6101dc610495565b6040516101e99190611c62565b60405180910390f35b610205610200366004611d34565b610527565b005b61021a610215366004611da8565b610574565b60405190151581526020016101e9565b61023261058e565b6040519081526020016101e9565b61021a61024e366004611dd2565b61059e565b604051601281526020016101e9565b6102326105c2565b610232610278366004611da8565b6105cc565b61020561028b366004611da8565b610652565b6101dc610668565b6102c46102a6366004611e0e565b6001600160a01b039081166000908152600860205260409020541690565b6040516001600160a01b0390911681526020016101e9565b6102056102ea366004611e0e565b6106e0565b6103026102fd366004611e0e565b6106eb565b60405163ffffffff90911681526020016101e9565b610232610325366004611e0e565b6106f6565b610205610714565b610232610340366004611e0e565b610728565b61034d610733565b6040516101e99796959493929190611e29565b600b546001600160a01b03166102c4565b61023261037f366004611ec2565b610779565b61038c6107e3565b60405165ffffffffffff90911681526020016101e9565b6101dc6107ed565b6102326103b9366004611e0e565b6107fc565b6102056103cc366004611da8565b61082c565b61021a6103df366004611da8565b61083e565b6102056103f2366004611eec565b61084c565b610205610405366004611f44565b610909565b610232610418366004611fae565b6001600160a01b03918216600090815260016020908152604080832093909416825291909152205490565b610456610451366004611fe1565b610a43565b60408051825165ffffffffffff1681526020928301516001600160d01b031692810192909252016101e9565b610205610490366004611e0e565b610a68565b6060600c80546104a490612021565b80601f01602080910402602001604051908101604052809291908181526020018280546104d090612021565b801561051d5780601f106104f25761010080835404028352916020019161051d565b820191906000526020600020905b81548152906001019060200180831161050057829003601f168201915b5050505050905090565b600c805461053490612021565b151590508061054257508251155b1561054c57600080fd5b600c61055884826120ab565b50600d61056583826120ab565b5061056f81610aa6565b505050565b600033610582818585610af8565b60019150505b92915050565b600061059960025490565b905090565b6000336105ac858285610b05565b6105b7858585610b83565b506001949350505050565b6000610599610be2565b6000806105d76107e3565b90508065ffffffffffff16831061061757604051637669fc0f60e11b81526004810184905265ffffffffffff821660248201526044015b60405180910390fd5b61064161062384610d0d565b6001600160a01b038616600090815260096020526040902090610d44565b6001600160d01b0316949350505050565b61065a610dfa565b6106648282610e27565b5050565b6060610672610e5d565b65ffffffffffff166106826107e3565b65ffffffffffff16146106a8576040516301bfc1c560e61b815260040160405180910390fd5b5060408051808201909152601d81527f6d6f64653d626c6f636b6e756d6265722666726f6d3d64656661756c74000000602082015290565b336106648183610e68565b600061058882610eda565b6001600160a01b038116600090815260208190526040812054610588565b61071c610dfa565b6107266000610aa6565b565b600061058882610efc565b600060608060008060006060610747610f1a565b61074f610f47565b60408051600080825260208201909252600f60f81b9b939a50919850469750309650945092509050565b6000806107846107e3565b90508065ffffffffffff1683106107bf57604051637669fc0f60e11b81526004810184905265ffffffffffff8216602482015260440161060e565b6107d36107cb84610d0d565b600a90610d44565b6001600160d01b03169392505050565b6000610599610e5d565b6060600d80546104a490612021565b6001600160a01b038116600090815260096020526040812061081d90610f74565b6001600160d01b031692915050565b610834610dfa565b6106648282610fad565b600033610582818585610b83565b8342111561087057604051632341d78760e11b81526004810185905260240161060e565b604080517fe48329057bfd03d55e49b547132e39cffd9c1820ad7b9d4c5307691425d15adf60208201526001600160a01b0388169181019190915260608101869052608081018590526000906108ea906108e29060a00160405160208183030381529060405280519060200120610fe3565b858585611010565b90506108f6818761103e565b6109008188610e68565b50505050505050565b8342111561092d5760405163313c898160e11b81526004810185905260240161060e565b60007f6e71edae12b1b97f4d1f60370fef10105fa2faae0126114a169c64845d6126c988888861097a8c6001600160a01b0316600090815260076020526040902080546001810190915590565b6040805160208101969096526001600160a01b0394851690860152929091166060840152608083015260a082015260c0810186905260e00160405160208183030381529060405280519060200120905060006109d582610fe3565b905060006109e582878787611010565b9050896001600160a01b0316816001600160a01b031614610a2c576040516325c0072360e11b81526001600160a01b0380831660048301528b16602482015260440161060e565b610a378a8a8a610af8565b50505050505050505050565b6040805180820190915260008082526020820152610a618383611091565b9392505050565b610a70610dfa565b6001600160a01b038116610a9a57604051631e4fbdf760e01b81526000600482015260240161060e565b610aa381610aa6565b50565b600b80546001600160a01b038381166001600160a01b0319831681179093556040519116919082907f8be0079c531659141344cd1fd0a4f28419497f9722a3daafe3b4186f6b6457e090600090a35050565b61056f83838360016110c7565b6001600160a01b038381166000908152600160209081526040808320938616835292905220546000198114610b7d5781811015610b6e57604051637dc7a0d960e11b81526001600160a01b0384166004820152602481018290526044810183905260640161060e565b610b7d848484840360006110c7565b50505050565b6001600160a01b038316610bad57604051634b637e8f60e11b81526000600482015260240161060e565b6001600160a01b038216610bd75760405163ec442f0560e01b81526000600482015260240161060e565b61056f83838361119c565b6000306001600160a01b037f000000000000000000000000b2c36630b8774c8346d980fb9bcca40b28c26df616148015610c3b57507f0000000000000000000000000000000000000000000000000000000000014a3446145b15610c6557507f873c78fd899ac996e1c0496ec5086d223777cad1dbf6aa8430687d8bba43362e90565b610599604080517f8b73c3c69bb8fe3d512ecc4cf759cc79239f7b179b0ffacaa9a75d522b39400f60208201527f9c7cae8524849651857e41dcb0fe4f4ab844f18147824e3e8bf5d526700f2c36918101919091527fc89efdaa54c0f20c7adf612882df0950f5a951637e0307cdcb4c672f298b8bc660608201524660808201523060a082015260009060c00160405160208183030381529060405280519060200120905090565b600065ffffffffffff821115610d40576040516306dfcc6560e41b8152603060048201526024810183905260440161060e565b5090565b815460009081816005811115610da3576000610d5f846111a7565b610d699085612181565b60008881526020902090915081015465ffffffffffff9081169087161015610d9357809150610da1565b610d9e816001612194565b92505b505b6000610db187878585611300565b90508015610dec57610dd687610dc8600184612181565b600091825260209091200190565b54600160301b90046001600160d01b0316610def565b60005b979650505050505050565b600b546001600160a01b031633146107265760405163118cdaa760e01b815233600482015260240161060e565b6001600160a01b038216610e515760405163ec442f0560e01b81526000600482015260240161060e565b6106646000838361119c565b600061059943610d0d565b6001600160a01b0382811660008181526008602052604080822080548686166001600160a01b0319821681179092559151919094169392849290917f3134e8a2e6d97e929a7e54011ea5485d7d196dd5f0ba4d4ef95803e8e3fc257f9190a461056f8183610ed586611362565b61136d565b6001600160a01b038116600090815260096020526040812054610588906114d9565b6001600160a01b038116600090815260076020526040812054610588565b60606105997f4a42546f6b656e00000000000000000000000000000000000000000000000007600561150a565b60606105997f3100000000000000000000000000000000000000000000000000000000000001600661150a565b80546000908015610fa457610f8e83610dc8600184612181565b54600160301b90046001600160d01b0316610a61565b60009392505050565b6001600160a01b038216610fd757604051634b637e8f60e11b81526000600482015260240161060e565b6106648260008361119c565b6000610588610ff0610be2565b8360405161190160f01b8152600281019290925260228201526042902090565b600080600080611022888888886115b5565b9250925092506110328282611684565b50909695505050505050565b6001600160a01b038216600090815260076020526040902080546001810190915581811461056f576040516301d4b62360e61b81526001600160a01b03841660048201526024810182905260440161060e565b60408051808201909152600080825260208201526001600160a01b0383166000908152600960205260409020610a61908361173d565b6001600160a01b0384166110f15760405163e602df0560e01b81526000600482015260240161060e565b6001600160a01b03831661111b57604051634a1406b160e11b81526000600482015260240161060e565b6001600160a01b0380851660009081526001602090815260408083209387168352929052208290558015610b7d57826001600160a01b0316846001600160a01b03167f8c5be1e5ebec7d5bd14f71427d1e84f3dd0314c0f7b2291e5b200ac8c7c3b9258460405161118e91815260200190565b60405180910390a350505050565b61056f8383836117ad565b6000600182116111b5575090565b816001600160801b82106111ce5760809190911c9060401b5b6801000000000000000082106111e95760409190911c9060201b5b64010000000082106112005760209190911c9060101b5b6201000082106112155760109190911c9060081b5b61010082106112295760089190911c9060041b5b6010821061123c5760049190911c9060021b5b600482106112485760011b5b600302600190811c90818581611260576112606121a7565b048201901c90506001818581611278576112786121a7565b048201901c90506001818581611290576112906121a7565b048201901c905060018185816112a8576112a86121a7565b048201901c905060018185816112c0576112c06121a7565b048201901c905060018185816112d8576112d86121a7565b048201901c90506112f78185816112f1576112f16121a7565b04821190565b90039392505050565b60005b8183101561135a5760006113178484611813565b60008781526020902090915065ffffffffffff86169082015465ffffffffffff16111561134657809250611354565b611351816001612194565b93505b50611303565b509392505050565b6000610588826106f6565b816001600160a01b0316836001600160a01b03161415801561138f5750600081115b1561056f576001600160a01b03831615611437576001600160a01b038316600090815260096020526040812081906113d29061182e6113cd8661183a565b61186e565b6001600160d01b031691506001600160d01b03169150846001600160a01b03167fdec2bacdd2f05b59de34da9b523dff8be42e5e38e818c82fdb0bae774387a724838360405161142c929190918252602082015260400190565b60405180910390a250505b6001600160a01b0382161561056f576001600160a01b03821660009081526009602052604081208190611470906118a76113cd8661183a565b6001600160d01b031691506001600160d01b03169150836001600160a01b03167fdec2bacdd2f05b59de34da9b523dff8be42e5e38e818c82fdb0bae774387a72483836040516114ca929190918252602082015260400190565b60405180910390a25050505050565b600063ffffffff821115610d40576040516306dfcc6560e41b8152602060048201526024810183905260440161060e565b606060ff83146115245761151d836118b3565b9050610588565b81805461153090612021565b80601f016020809104026020016040519081016040528092919081815260200182805461155c90612021565b80156115a95780601f1061157e576101008083540402835291602001916115a9565b820191906000526020600020905b81548152906001019060200180831161158c57829003601f168201915b50505050509050610588565b600080807f7fffffffffffffffffffffffffffffff5d576e7357a4501ddfe92f46681b20a08411156115f0575060009150600390508261167a565b604080516000808252602082018084528a905260ff891692820192909252606081018790526080810186905260019060a0016020604051602081039080840390855afa158015611644573d6000803e3d6000fd5b5050604051601f1901519150506001600160a01b0381166116705750600092506001915082905061167a565b9250600091508190505b9450945094915050565b6000826003811115611698576116986121bd565b036116a1575050565b60018260038111156116b5576116b56121bd565b036116d35760405163f645eedf60e01b815260040160405180910390fd5b60028260038111156116e7576116e76121bd565b036117085760405163fce698f760e01b81526004810182905260240161060e565b600382600381111561171c5761171c6121bd565b03610664576040516335e2f38360e21b81526004810182905260240161060e565b6040805180820190915260008082526020820152826000018263ffffffff168154811061176c5761176c6121d3565b60009182526020918290206040805180820190915291015465ffffffffffff81168252600160301b90046001600160d01b0316918101919091529392505050565b6117b88383836118f2565b6001600160a01b0383166118085760006117d061058e565b90506001600160d01b038082111561180557604051630e58ae9360e11b8152600481018390526024810182905260440161060e565b50505b61056f838383611a1c565b600061182260028484186121e9565b610a6190848416612194565b6000610a61828461220b565b60006001600160d01b03821115610d40576040516306dfcc6560e41b815260d060048201526024810183905260440161060e565b60008061189a61187c6107e3565b61189261188888610f74565b868863ffffffff16565b879190611a92565b915091505b935093915050565b6000610a618284612232565b606060006118c083611aa0565b604080516020808252818301909252919250600091906020820181803683375050509182525060208101929092525090565b6001600160a01b03831661191d5780600260008282546119129190612194565b9091555061198f9050565b6001600160a01b038316600090815260208190526040902054818110156119705760405163391434e360e21b81526001600160a01b0385166004820152602481018290526044810183905260640161060e565b6001600160a01b03841660009081526020819052604090209082900390555b6001600160a01b0382166119ab576002805482900390556119ca565b6001600160a01b03821660009081526020819052604090208054820190555b816001600160a01b0316836001600160a01b03167fddf252ad1be2c89b69c2b068fc378daa952ba7f163c4a11628f55a4df523b3ef83604051611a0f91815260200190565b60405180910390a3505050565b6001600160a01b038316611a3e57611a3b600a6118a76113cd8461183a565b50505b6001600160a01b038216611a6057611a5d600a61182e6113cd8461183a565b50505b6001600160a01b0383811660009081526008602052604080822054858416835291205461056f9291821691168361136d565b60008061189a858585611ac8565b600060ff8216601f81111561058857604051632cd44ac360e21b815260040160405180910390fd5b825460009081908015611bc1576000611ae687610dc8600185612181565b805490915065ffffffffffff80821691600160301b90046001600160d01b0316908816821115611b2957604051632520601d60e01b815260040160405180910390fd5b8765ffffffffffff168265ffffffffffff1603611b6257825465ffffffffffff16600160301b6001600160d01b03891602178355611bb3565b6040805180820190915265ffffffffffff808a1682526001600160d01b03808a1660208085019182528d54600181018f5560008f81529190912094519151909216600160301b029216919091179101555b945085935061189f92505050565b50506040805180820190915265ffffffffffff80851682526001600160d01b0380851660208085019182528854600181018a5560008a815291822095519251909316600160301b02919093161792019190915590508161189f565b6000815180845260005b81811015611c4257602081850181015186830182015201611c26565b506000602082860101526020601f19601f83011685010191505092915050565b602081526000610a616020830184611c1c565b634e487b7160e01b600052604160045260246000fd5b600082601f830112611c9c57600080fd5b813567ffffffffffffffff80821115611cb757611cb7611c75565b604051601f8301601f19908116603f01168101908282118183101715611cdf57611cdf611c75565b81604052838152866020858801011115611cf857600080fd5b836020870160208301376000602085830101528094505050505092915050565b80356001600160a01b0381168114611d2f57600080fd5b919050565b600080600060608486031215611d4957600080fd5b833567ffffffffffffffff80821115611d6157600080fd5b611d6d87838801611c8b565b94506020860135915080821115611d8357600080fd5b50611d9086828701611c8b565b925050611d9f60408501611d18565b90509250925092565b60008060408385031215611dbb57600080fd5b611dc483611d18565b946020939093013593505050565b600080600060608486031215611de757600080fd5b611df084611d18565b9250611dfe60208501611d18565b9150604084013590509250925092565b600060208284031215611e2057600080fd5b610a6182611d18565b60ff60f81b881681526000602060e06020840152611e4a60e084018a611c1c565b8381036040850152611e5c818a611c1c565b606085018990526001600160a01b038816608086015260a0850187905284810360c08601528551808252602080880193509091019060005b81811015611eb057835183529284019291840191600101611e94565b50909c9b505050505050505050505050565b600060208284031215611ed457600080fd5b5035919050565b803560ff81168114611d2f57600080fd5b60008060008060008060c08789031215611f0557600080fd5b611f0e87611d18565b95506020870135945060408701359350611f2a60608801611edb565b92506080870135915060a087013590509295509295509295565b600080600080600080600060e0888a031215611f5f57600080fd5b611f6888611d18565b9650611f7660208901611d18565b95506040880135945060608801359350611f9260808901611edb565b925060a0880135915060c0880135905092959891949750929550565b60008060408385031215611fc157600080fd5b611fca83611d18565b9150611fd860208401611d18565b90509250929050565b60008060408385031215611ff457600080fd5b611ffd83611d18565b9150602083013563ffffffff8116811461201657600080fd5b809150509250929050565b600181811c9082168061203557607f821691505b60208210810361205557634e487b7160e01b600052602260045260246000fd5b50919050565b601f82111561056f576000816000526020600020601f850160051c810160208610156120845750805b601f850160051c820191505b818110156120a357828155600101612090565b505050505050565b815167ffffffffffffffff8111156120c5576120c5611c75565b6120d9816120d38454612021565b8461205b565b602080601f83116001811461210e57600084156120f65750858301515b600019600386901b1c1916600185901b1785556120a3565b600085815260208120601f198616915b8281101561213d5788860151825594840194600190910190840161211e565b508582101561215b5787850151600019600388901b60f8161c191681555b5050505050600190811b01905550565b634e487b7160e01b600052601160045260246000fd5b818103818111156105885761058861216b565b808201808211156105885761058861216b565b634e487b7160e01b600052601260045260246000fd5b634e487b7160e01b600052602160045260246000fd5b634e487b7160e01b600052603260045260246000fd5b60008261220657634e487b7160e01b600052601260045260246000fd5b500490565b6001600160d01b0382811682821603908082111561222b5761222b61216b565b5092915050565b6001600160d01b0381811683821601908082111561222b5761222b61216b56fea2646970667358221220f1dbfb02434bdd677760af9d3c5fd40692bf90442e7066d00d03701eedd0274d64736f6c63430008170033",
	"devdoc": {
		"kind": "dev",
		"methods": {
			"CLOCK_MODE()": {
				"details": "Machine-readable description of the clock as specified in ERC-6372."
			},
			"DOMAIN_SEPARATOR()": {
				"details": "Returns the domain separator used in the encoding of the signature for {permit}, as defined by {EIP712}."
			},
			"allowance(address,address)": {
				"details": "See {IERC20-allowance}."
			},
			"approve(address,uint256)": {
				"details": "See {IERC20-approve}. NOTE: If `value` is the maximum `uint256`, the allowance is not updated on `transferFrom`. This is semantically equivalent to an infinite approval. Requirements: - `spender` cannot be the zero address."
			},
			"balanceOf(address)": {
				"params": {
					"account": "The account to get the balance of."
				},
				"returns": {
					"_0": "The number of tokens owned by the `account`, as a fixed point number with 18 decimals."
				}
			},
			"burn(address,uint256)": {
				"details": "Can only be called by this contract's owner.",
				"params": {
					"account": "The address to burn tokens from.",
					"amount": "The amount of tokens to burn, as a fixed point number with 18 decimals."
				}
			},
			"checkpoints(address,uint32)": {
				"details": "Get the `pos`-th checkpoint for `account`."
			},
			"clock()": {
				"details": "Clock used for flagging checkpoints. Can be overridden to implement timestamp based checkpoints (and voting), in which case {CLOCK_MODE} should be overridden as well to match."
			},
			"decimals()": {
				"returns": {
					"_0": "The number of decimals."
				}
			},
			"delegate(address)": {
				"details": "Delegates votes from the sender to `delegatee`."
			},
			"delegateBySig(address,uint256,uint256,uint8,bytes32,bytes32)": {
				"details": "Delegates votes from signer to `delegatee`."
			},
			"delegates(address)": {
				"details": "Returns the delegate that `account` has chosen."
			},
			"eip712Domain()": {
				"details": "See {IERC-5267}."
			},
			"getPastTotalSupply(uint256)": {
				"details": "Returns the total supply of votes available at a specific moment in the past. If the `clock()` is configured to use block numbers, this will return the value at the end of the corresponding block. NOTE: This value is the sum of all available votes, which is not necessarily the sum of all delegated votes. Votes that have not been delegated are still part of total supply, even though they would not participate in a vote. Requirements: - `timepoint` must be in the past. If operating using block numbers, the block must be already mined."
			},
			"getPastVotes(address,uint256)": {
				"details": "Returns the amount of votes that `account` had at a specific moment in the past. If the `clock()` is configured to use block numbers, this will return the value at the end of the corresponding block. Requirements: - `timepoint` must be in the past. If operating using block numbers, the block must be already mined."
			},
			"getVotes(address)": {
				"details": "Returns the current amount of votes that `account` has."
			},
			"initialize(string,string,address)": {
				"params": {
					"name_": "The token's name.",
					"owner": "The token contract's owner.",
					"symbol_": "The token's symbol."
				}
			},
			"mint(address,uint256)": {
				"details": "Can only be called by this contract's owner.",
				"params": {
					"account": "The address to mint the new tokens to.",
					"amount": "The amount of tokens to mint, as a fixed point number with 18 decimals."
				}
			},
			"numCheckpoints(address)": {
				"details": "Get number of checkpoints for `account`."
			},
			"owner()": {
				"details": "Returns the address of the current owner."
			},
			"permit(address,address,uint256,uint256,uint8,bytes32,bytes32)": {
				"details": "Sets `value` as the allowance of `spender` over ``owner``'s tokens, given ``owner``'s signed approval. IMPORTANT: The same issues {IERC20-approve} has related to transaction ordering also apply here. Emits an {Approval} event. Requirements: - `spender` cannot be the zero address. - `deadline` must be a timestamp in the future. - `v`, `r` and `s` must be a valid `secp256k1` signature from `owner` over the EIP712-formatted function arguments. - the signature must use ``owner``'s current nonce (see {nonces}). For more information on the signature format, see the https://eips.ethereum.org/EIPS/eip-2612#specification[relevant EIP section]. CAUTION: See Security Considerations above."
			},
			"renounceOwnership()": {
				"details": "Leaves the contract without owner. It will not be possible to call `onlyOwner` functions. Can only be called by the current owner. NOTE: Renouncing ownership will leave the contract without an owner, thereby disabling any functionality that is only available to the owner."
			},
			"totalSupply()": {
				"returns": {
					"_0": "The total supply of this ERC20, as a fixed point number."
				}
			},
			"transfer(address,uint256)": {
				"details": "See {IERC20-transfer}. Requirements: - `to` cannot be the zero address. - the caller must have a balance of at least `value`."
			},
			"transferFrom(address,address,uint256)": {
				"details": "See {IERC20-transferFrom}. Skips emitting an {Approval} event indicating an allowance update. This is not required by the ERC. See {xref-ERC20-_approve-address-address-uint256-bool-}[_approve]. NOTE: Does not update the allowance if the current allowance is the maximum `uint256`. Requirements: - `from` and `to` cannot be the zero address. - `from` must have a balance of at least `value`. - the caller must have allowance for ``from``'s tokens of at least `value`."
			},
			"transferOwnership(address)": {
				"details": "Transfers ownership of the contract to a new account (`newOwner`). Can only be called by the current owner."
			}
		},
		"version": 1
	},
	"userdoc": {
		"kind": "user",
		"methods": {
			"balanceOf(address)": {
				"notice": "The balance of the given address."
			},
			"burn(address,uint256)": {
				"notice": "Burn some outstanding tokens."
			},
			"decimals()": {
				"notice": "The number of decimals used for this token's fixed point accounting."
			},
			"initialize(string,string,address)": {
				"notice": "Initializes the token."
			},
			"mint(address,uint256)": {
				"notice": "Mints more of this token."
			},
			"name()": {
				"notice": "The token's name."
			},
			"nonces(address)": {
				"notice": "Required override."
			},
			"symbol()": {
				"notice": "The token's symbol."
			},
			"totalSupply()": {
				"notice": "The total supply of this ERC20 i.e. the total number of tokens in existence."
			}
		},
		"version": 1
	},
	"gitCommit": "621b4728594b015d227adf08d7af07a2ea0ba570",
	"sourceName": "src/JBERC20.sol",
	"chainId": "84532",
	"linkReferences": {},
	"deployedLinkReferences": {},
	"history": []
}