{
	"_format": "sphinx-sol-ct-artifact-1",
	"merkleRoot": "0x123f1bc4575ae34f66b049504b9f2424a2da7f85841998278be509533930c45d",
	"address": "0xcbf2f9ebbc54e18ef299452f12a52d38b26bed93",
	"sourceName": "src/JBFeelessAddresses.sol",
	"contractName": "JBFeelessAddresses",
	"chainId": "0x14a34",
	"abi": [
		{
			"inputs": [
				{
					"internalType": "address",
					"name": "owner",
					"type": "address"
				}
			],
			"stateMutability": "nonpayable",
			"type": "constructor"
		},
		{
			"inputs": [
				{
					"internalType": "address",
					"name": "addr",
					"type": "address"
				}
			],
			"name": "isFeeless",
			"outputs": [
				{
					"internalType": "bool",
					"name": "",
					"type": "bool"
				}
			],
			"stateMutability": "view",
			"type": "function"
		},
		{
			"inputs": [],
			"name": "owner",
			"outputs": [
				{
					"internalType": "address",
					"name": "",
					"type": "address"
				}
			],
			"stateMutability": "view",
			"type": "function"
		},
		{
			"inputs": [],
			"name": "renounceOwnership",
			"outputs": [],
			"stateMutability": "nonpayable",
			"type": "function"
		},
		{
			"inputs": [
				{
					"internalType": "address",
					"name": "addr",
					"type": "address"
				},
				{
					"internalType": "bool",
					"name": "flag",
					"type": "bool"
				}
			],
			"name": "setFeelessAddress",
			"outputs": [],
			"stateMutability": "nonpayable",
			"type": "function"
		},
		{
			"inputs": [
				{
					"internalType": "bytes4",
					"name": "interfaceId",
					"type": "bytes4"
				}
			],
			"name": "supportsInterface",
			"outputs": [
				{
					"internalType": "bool",
					"name": "",
					"type": "bool"
				}
			],
			"stateMutability": "view",
			"type": "function"
		},
		{
			"inputs": [
				{
					"internalType": "address",
					"name": "newOwner",
					"type": "address"
				}
			],
			"name": "transferOwnership",
			"outputs": [],
			"stateMutability": "nonpayable",
			"type": "function"
		},
		{
			"anonymous": false,
			"inputs": [
				{
					"indexed": true,
					"internalType": "address",
					"name": "previousOwner",
					"type": "address"
				},
				{
					"indexed": true,
					"internalType": "address",
					"name": "newOwner",
					"type": "address"
				}
			],
			"name": "OwnershipTransferred",
			"type": "event"
		},
		{
			"anonymous": false,
			"inputs": [
				{
					"indexed": true,
					"internalType": "address",
					"name": "addr",
					"type": "address"
				},
				{
					"indexed": true,
					"internalType": "bool",
					"name": "isFeeless",
					"type": "bool"
				},
				{
					"indexed": false,
					"internalType": "address",
					"name": "caller",
					"type": "address"
				}
			],
			"name": "SetFeelessAddress",
			"type": "event"
		},
		{
			"inputs": [
				{
					"internalType": "address",
					"name": "owner",
					"type": "address"
				}
			],
			"name": "OwnableInvalidOwner",
			"type": "error"
		},
		{
			"inputs": [
				{
					"internalType": "address",
					"name": "account",
					"type": "address"
				}
			],
			"name": "OwnableUnauthorizedAccount",
			"type": "error"
		}
	],
	"args": [],
	"solcInputHash": "d00414ca8c552a4c90a379a4bd430f8f",
	"bytecode": "0x608060405234801561001057600080fd5b5060405161045038038061045083398101604081905261002f916100be565b806001600160a01b03811661005e57604051631e4fbdf760e01b81526000600482015260240160405180910390fd5b6100678161006e565b50506100ee565b600080546001600160a01b038381166001600160a01b0319831681178455604051919092169283917f8be0079c531659141344cd1fd0a4f28419497f9722a3daafe3b4186f6b6457e09190a35050565b6000602082840312156100d057600080fd5b81516001600160a01b03811681146100e757600080fd5b9392505050565b610353806100fd6000396000f3fe608060405234801561001057600080fd5b50600436106100625760003560e01c806301ffc9a714610067578063715018a61461008f5780637258002c146100995780638da5cb5b146100ac578063ae74a1b5146100c7578063f2fde38b146100ea575b600080fd5b61007a610075366004610279565b6100fd565b60405190151581526020015b60405180910390f35b610097610134565b005b6100976100a73660046102c6565b610148565b6000546040516001600160a01b039091168152602001610086565b61007a6100d5366004610302565b60016020526000908152604090205460ff1681565b6100976100f8366004610302565b6101b9565b60006001600160e01b0319821663dc2ca19960e01b148061012e57506001600160e01b031982166301ffc9a760e01b145b92915050565b61013c6101fc565b6101466000610229565b565b6101506101fc565b6001600160a01b0382166000818152600160205260409020805460ff1916831515908117909155907fa2653e25a502c023a5830d0de847ef6f458387865b1f4f575d7594f9f2c0d71e336040516001600160a01b03909116815260200160405180910390a35050565b6101c16101fc565b6001600160a01b0381166101f057604051631e4fbdf760e01b8152600060048201526024015b60405180910390fd5b6101f981610229565b50565b6000546001600160a01b031633146101465760405163118cdaa760e01b81523360048201526024016101e7565b600080546001600160a01b038381166001600160a01b0319831681178455604051919092169283917f8be0079c531659141344cd1fd0a4f28419497f9722a3daafe3b4186f6b6457e09190a35050565b60006020828403121561028b57600080fd5b81356001600160e01b0319811681146102a357600080fd5b9392505050565b80356001600160a01b03811681146102c157600080fd5b919050565b600080604083850312156102d957600080fd5b6102e2836102aa565b9150602083013580151581146102f757600080fd5b809150509250929050565b60006020828403121561031457600080fd5b6102a3826102aa56fea2646970667358221220db19aa03818de1d0666061c11d277650f74d3db169e58640610cdd9af74c5f3c64736f6c63430008170033",
	"deployedBytecode": "0x",
	"gitCommit": "6069b006093f34ddd15e4d10271676cf9e160b49"
}