{
	"_format": "sphinx-sol-ct-artifact-1",
	"merkleRoot": "0x732be88c08b5a2d625882757714ef23a3a10316e007749118eaca4a956dc9f8a",
	"contractName": "JBFeelessAddresses",
	"address": "0xaB1065BC48C9f7e450411f1CC38C5ccfE5688AB8",
	"abi": [
		{
			"type": "constructor",
			"inputs": [
				{
					"name": "owner",
					"type": "address",
					"internalType": "address"
				}
			],
			"stateMutability": "nonpayable"
		},
		{
			"type": "function",
			"name": "isFeeless",
			"inputs": [
				{
					"name": "addr",
					"type": "address",
					"internalType": "address"
				}
			],
			"outputs": [
				{
					"name": "",
					"type": "bool",
					"internalType": "bool"
				}
			],
			"stateMutability": "view"
		},
		{
			"type": "function",
			"name": "owner",
			"inputs": [],
			"outputs": [
				{
					"name": "",
					"type": "address",
					"internalType": "address"
				}
			],
			"stateMutability": "view"
		},
		{
			"type": "function",
			"name": "renounceOwnership",
			"inputs": [],
			"outputs": [],
			"stateMutability": "nonpayable"
		},
		{
			"type": "function",
			"name": "setFeelessAddress",
			"inputs": [
				{
					"name": "addr",
					"type": "address",
					"internalType": "address"
				},
				{
					"name": "flag",
					"type": "bool",
					"internalType": "bool"
				}
			],
			"outputs": [],
			"stateMutability": "nonpayable"
		},
		{
			"type": "function",
			"name": "supportsInterface",
			"inputs": [
				{
					"name": "interfaceId",
					"type": "bytes4",
					"internalType": "bytes4"
				}
			],
			"outputs": [
				{
					"name": "",
					"type": "bool",
					"internalType": "bool"
				}
			],
			"stateMutability": "view"
		},
		{
			"type": "function",
			"name": "transferOwnership",
			"inputs": [
				{
					"name": "newOwner",
					"type": "address",
					"internalType": "address"
				}
			],
			"outputs": [],
			"stateMutability": "nonpayable"
		},
		{
			"type": "event",
			"name": "OwnershipTransferred",
			"inputs": [
				{
					"name": "previousOwner",
					"type": "address",
					"indexed": true,
					"internalType": "address"
				},
				{
					"name": "newOwner",
					"type": "address",
					"indexed": true,
					"internalType": "address"
				}
			],
			"anonymous": false
		},
		{
			"type": "event",
			"name": "SetFeelessAddress",
			"inputs": [
				{
					"name": "addr",
					"type": "address",
					"indexed": true,
					"internalType": "address"
				},
				{
					"name": "isFeeless",
					"type": "bool",
					"indexed": true,
					"internalType": "bool"
				},
				{
					"name": "caller",
					"type": "address",
					"indexed": false,
					"internalType": "address"
				}
			],
			"anonymous": false
		},
		{
			"type": "error",
			"name": "OwnableInvalidOwner",
			"inputs": [
				{
					"name": "owner",
					"type": "address",
					"internalType": "address"
				}
			]
		},
		{
			"type": "error",
			"name": "OwnableUnauthorizedAccount",
			"inputs": [
				{
					"name": "account",
					"type": "address",
					"internalType": "address"
				}
			]
		}
	],
	"solcInputHash": "b6c351fd96634234999dc102235e550e",
	"args": [
		"0xd72a3b02a39CFE137346444E5fbb5fF297B4d1b1"
	],
	"bytecode": "0x608060405234801561001057600080fd5b5060405161045038038061045083398101604081905261002f916100be565b806001600160a01b03811661005e57604051631e4fbdf760e01b81526000600482015260240160405180910390fd5b6100678161006e565b50506100ee565b600080546001600160a01b038381166001600160a01b0319831681178455604051919092169283917f8be0079c531659141344cd1fd0a4f28419497f9722a3daafe3b4186f6b6457e09190a35050565b6000602082840312156100d057600080fd5b81516001600160a01b03811681146100e757600080fd5b9392505050565b610353806100fd6000396000f3fe608060405234801561001057600080fd5b50600436106100625760003560e01c806301ffc9a714610067578063715018a61461008f5780637258002c146100995780638da5cb5b146100ac578063ae74a1b5146100c7578063f2fde38b146100ea575b600080fd5b61007a610075366004610279565b6100fd565b60405190151581526020015b60405180910390f35b610097610134565b005b6100976100a73660046102c6565b610148565b6000546040516001600160a01b039091168152602001610086565b61007a6100d5366004610302565b60016020526000908152604090205460ff1681565b6100976100f8366004610302565b6101b9565b60006001600160e01b0319821663dc2ca19960e01b148061012e57506001600160e01b031982166301ffc9a760e01b145b92915050565b61013c6101fc565b6101466000610229565b565b6101506101fc565b6001600160a01b0382166000818152600160205260409020805460ff1916831515908117909155907fa2653e25a502c023a5830d0de847ef6f458387865b1f4f575d7594f9f2c0d71e336040516001600160a01b03909116815260200160405180910390a35050565b6101c16101fc565b6001600160a01b0381166101f057604051631e4fbdf760e01b8152600060048201526024015b60405180910390fd5b6101f981610229565b50565b6000546001600160a01b031633146101465760405163118cdaa760e01b81523360048201526024016101e7565b600080546001600160a01b038381166001600160a01b0319831681178455604051919092169283917f8be0079c531659141344cd1fd0a4f28419497f9722a3daafe3b4186f6b6457e09190a35050565b60006020828403121561028b57600080fd5b81356001600160e01b0319811681146102a357600080fd5b9392505050565b80356001600160a01b03811681146102c157600080fd5b919050565b600080604083850312156102d957600080fd5b6102e2836102aa565b9150602083013580151581146102f757600080fd5b809150509250929050565b60006020828403121561031457600080fd5b6102a3826102aa56fea26469706673582212205e82df17b15a5cae30a3f154a9ca8da33220e00d15a195f4bb7be81dbab3a80f64736f6c63430008170033",
	"devdoc": {
		"kind": "dev",
		"methods": {
			"constructor": {
				"params": {
					"owner": "This contract's owner."
				}
			},
			"owner()": {
				"details": "Returns the address of the current owner."
			},
			"renounceOwnership()": {
				"details": "Leaves the contract without owner. It will not be possible to call `onlyOwner` functions. Can only be called by the current owner. NOTE: Renouncing ownership will leave the contract without an owner, thereby disabling any functionality that is only available to the owner."
			},
			"setFeelessAddress(address,bool)": {
				"details": "Can only be called by this contract's owner.",
				"params": {
					"addr": "The address to set as feeless or not feeless.",
					"flag": "Whether the address should be feeless (`true`) or not feeless (`false`)."
				}
			},
			"supportsInterface(bytes4)": {
				"details": "See {IERC165-supportsInterface}.",
				"params": {
					"interfaceId": "The ID of the interface to check for adherence to."
				},
				"returns": {
					"_0": "A flag indicating if the provided interface ID is supported."
				}
			},
			"transferOwnership(address)": {
				"details": "Transfers ownership of the contract to a new account (`newOwner`). Can only be called by the current owner."
			}
		},
		"version": 1
	},
	"userdoc": {
		"kind": "user",
		"methods": {
			"isFeeless(address)": {
				"notice": "Check if the specified address is feeless."
			},
			"setFeelessAddress(address,bool)": {
				"notice": "Sets whether an address is feeless."
			},
			"supportsInterface(bytes4)": {
				"notice": "Indicates whether this contract adheres to the specified interface."
			}
		},
		"version": 1
	},
	"gitCommit": "621b4728594b015d227adf08d7af07a2ea0ba570",
	"sourceName": "src/JBFeelessAddresses.sol",
	"chainId": "84532",
	"linkReferences": {},
	"deployedLinkReferences": {},
	"history": []
}