{
	"_format": "sphinx-sol-ct-artifact-1",
	"merkleRoot": "0xc4a11cb08c017cc0c69d8266200c38e24b3ea47f204cb21d7687e5b558b86338",
	"address": "0xd86226c7222360e94f2f2eda97c587b14061b3bb",
	"sourceName": "src/JBProjects.sol",
	"contractName": "JBProjects",
	"chainId": "0x14a34",
	"abi": [
		{
			"inputs": [
				{
					"internalType": "address",
					"name": "owner",
					"type": "address"
				},
				{
					"internalType": "address",
					"name": "feeProjectOwner",
					"type": "address"
				}
			],
			"stateMutability": "nonpayable",
			"type": "constructor"
		},
		{
			"inputs": [
				{
					"internalType": "address",
					"name": "to",
					"type": "address"
				},
				{
					"internalType": "uint256",
					"name": "tokenId",
					"type": "uint256"
				}
			],
			"name": "approve",
			"outputs": [],
			"stateMutability": "nonpayable",
			"type": "function"
		},
		{
			"inputs": [
				{
					"internalType": "address",
					"name": "owner",
					"type": "address"
				}
			],
			"name": "balanceOf",
			"outputs": [
				{
					"internalType": "uint256",
					"name": "",
					"type": "uint256"
				}
			],
			"stateMutability": "view",
			"type": "function"
		},
		{
			"inputs": [],
			"name": "count",
			"outputs": [
				{
					"internalType": "uint256",
					"name": "",
					"type": "uint256"
				}
			],
			"stateMutability": "view",
			"type": "function"
		},
		{
			"inputs": [
				{
					"internalType": "address",
					"name": "owner",
					"type": "address"
				}
			],
			"name": "createFor",
			"outputs": [
				{
					"internalType": "uint256",
					"name": "projectId",
					"type": "uint256"
				}
			],
			"stateMutability": "nonpayable",
			"type": "function"
		},
		{
			"inputs": [
				{
					"internalType": "uint256",
					"name": "tokenId",
					"type": "uint256"
				}
			],
			"name": "getApproved",
			"outputs": [
				{
					"internalType": "address",
					"name": "",
					"type": "address"
				}
			],
			"stateMutability": "view",
			"type": "function"
		},
		{
			"inputs": [
				{
					"internalType": "address",
					"name": "owner",
					"type": "address"
				},
				{
					"internalType": "address",
					"name": "operator",
					"type": "address"
				}
			],
			"name": "isApprovedForAll",
			"outputs": [
				{
					"internalType": "bool",
					"name": "",
					"type": "bool"
				}
			],
			"stateMutability": "view",
			"type": "function"
		},
		{
			"inputs": [],
			"name": "name",
			"outputs": [
				{
					"internalType": "string",
					"name": "",
					"type": "string"
				}
			],
			"stateMutability": "view",
			"type": "function"
		},
		{
			"inputs": [],
			"name": "owner",
			"outputs": [
				{
					"internalType": "address",
					"name": "",
					"type": "address"
				}
			],
			"stateMutability": "view",
			"type": "function"
		},
		{
			"inputs": [
				{
					"internalType": "uint256",
					"name": "tokenId",
					"type": "uint256"
				}
			],
			"name": "ownerOf",
			"outputs": [
				{
					"internalType": "address",
					"name": "",
					"type": "address"
				}
			],
			"stateMutability": "view",
			"type": "function"
		},
		{
			"inputs": [],
			"name": "renounceOwnership",
			"outputs": [],
			"stateMutability": "nonpayable",
			"type": "function"
		},
		{
			"inputs": [
				{
					"internalType": "address",
					"name": "from",
					"type": "address"
				},
				{
					"internalType": "address",
					"name": "to",
					"type": "address"
				},
				{
					"internalType": "uint256",
					"name": "tokenId",
					"type": "uint256"
				}
			],
			"name": "safeTransferFrom",
			"outputs": [],
			"stateMutability": "nonpayable",
			"type": "function"
		},
		{
			"inputs": [
				{
					"internalType": "address",
					"name": "from",
					"type": "address"
				},
				{
					"internalType": "address",
					"name": "to",
					"type": "address"
				},
				{
					"internalType": "uint256",
					"name": "tokenId",
					"type": "uint256"
				},
				{
					"internalType": "bytes",
					"name": "data",
					"type": "bytes"
				}
			],
			"name": "safeTransferFrom",
			"outputs": [],
			"stateMutability": "nonpayable",
			"type": "function"
		},
		{
			"inputs": [
				{
					"internalType": "address",
					"name": "operator",
					"type": "address"
				},
				{
					"internalType": "bool",
					"name": "approved",
					"type": "bool"
				}
			],
			"name": "setApprovalForAll",
			"outputs": [],
			"stateMutability": "nonpayable",
			"type": "function"
		},
		{
			"inputs": [
				{
					"internalType": "contract IJBTokenUriResolver",
					"name": "resolver",
					"type": "address"
				}
			],
			"name": "setTokenUriResolver",
			"outputs": [],
			"stateMutability": "nonpayable",
			"type": "function"
		},
		{
			"inputs": [
				{
					"internalType": "bytes4",
					"name": "interfaceId",
					"type": "bytes4"
				}
			],
			"name": "supportsInterface",
			"outputs": [
				{
					"internalType": "bool",
					"name": "",
					"type": "bool"
				}
			],
			"stateMutability": "view",
			"type": "function"
		},
		{
			"inputs": [],
			"name": "symbol",
			"outputs": [
				{
					"internalType": "string",
					"name": "",
					"type": "string"
				}
			],
			"stateMutability": "view",
			"type": "function"
		},
		{
			"inputs": [
				{
					"internalType": "uint256",
					"name": "projectId",
					"type": "uint256"
				}
			],
			"name": "tokenURI",
			"outputs": [
				{
					"internalType": "string",
					"name": "",
					"type": "string"
				}
			],
			"stateMutability": "view",
			"type": "function"
		},
		{
			"inputs": [],
			"name": "tokenUriResolver",
			"outputs": [
				{
					"internalType": "contract IJBTokenUriResolver",
					"name": "",
					"type": "address"
				}
			],
			"stateMutability": "view",
			"type": "function"
		},
		{
			"inputs": [
				{
					"internalType": "address",
					"name": "from",
					"type": "address"
				},
				{
					"internalType": "address",
					"name": "to",
					"type": "address"
				},
				{
					"internalType": "uint256",
					"name": "tokenId",
					"type": "uint256"
				}
			],
			"name": "transferFrom",
			"outputs": [],
			"stateMutability": "nonpayable",
			"type": "function"
		},
		{
			"inputs": [
				{
					"internalType": "address",
					"name": "newOwner",
					"type": "address"
				}
			],
			"name": "transferOwnership",
			"outputs": [],
			"stateMutability": "nonpayable",
			"type": "function"
		},
		{
			"anonymous": false,
			"inputs": [
				{
					"indexed": true,
					"internalType": "address",
					"name": "owner",
					"type": "address"
				},
				{
					"indexed": true,
					"internalType": "address",
					"name": "approved",
					"type": "address"
				},
				{
					"indexed": true,
					"internalType": "uint256",
					"name": "tokenId",
					"type": "uint256"
				}
			],
			"name": "Approval",
			"type": "event"
		},
		{
			"anonymous": false,
			"inputs": [
				{
					"indexed": true,
					"internalType": "address",
					"name": "owner",
					"type": "address"
				},
				{
					"indexed": true,
					"internalType": "address",
					"name": "operator",
					"type": "address"
				},
				{
					"indexed": false,
					"internalType": "bool",
					"name": "approved",
					"type": "bool"
				}
			],
			"name": "ApprovalForAll",
			"type": "event"
		},
		{
			"anonymous": false,
			"inputs": [
				{
					"indexed": true,
					"internalType": "uint256",
					"name": "projectId",
					"type": "uint256"
				},
				{
					"indexed": true,
					"internalType": "address",
					"name": "owner",
					"type": "address"
				},
				{
					"indexed": false,
					"internalType": "address",
					"name": "caller",
					"type": "address"
				}
			],
			"name": "Create",
			"type": "event"
		},
		{
			"anonymous": false,
			"inputs": [
				{
					"indexed": true,
					"internalType": "address",
					"name": "previousOwner",
					"type": "address"
				},
				{
					"indexed": true,
					"internalType": "address",
					"name": "newOwner",
					"type": "address"
				}
			],
			"name": "OwnershipTransferred",
			"type": "event"
		},
		{
			"anonymous": false,
			"inputs": [
				{
					"indexed": true,
					"internalType": "contract IJBTokenUriResolver",
					"name": "resolver",
					"type": "address"
				},
				{
					"indexed": false,
					"internalType": "address",
					"name": "caller",
					"type": "address"
				}
			],
			"name": "SetTokenUriResolver",
			"type": "event"
		},
		{
			"anonymous": false,
			"inputs": [
				{
					"indexed": true,
					"internalType": "address",
					"name": "from",
					"type": "address"
				},
				{
					"indexed": true,
					"internalType": "address",
					"name": "to",
					"type": "address"
				},
				{
					"indexed": true,
					"internalType": "uint256",
					"name": "tokenId",
					"type": "uint256"
				}
			],
			"name": "Transfer",
			"type": "event"
		},
		{
			"inputs": [
				{
					"internalType": "address",
					"name": "sender",
					"type": "address"
				},
				{
					"internalType": "uint256",
					"name": "tokenId",
					"type": "uint256"
				},
				{
					"internalType": "address",
					"name": "owner",
					"type": "address"
				}
			],
			"name": "ERC721IncorrectOwner",
			"type": "error"
		},
		{
			"inputs": [
				{
					"internalType": "address",
					"name": "operator",
					"type": "address"
				},
				{
					"internalType": "uint256",
					"name": "tokenId",
					"type": "uint256"
				}
			],
			"name": "ERC721InsufficientApproval",
			"type": "error"
		},
		{
			"inputs": [
				{
					"internalType": "address",
					"name": "approver",
					"type": "address"
				}
			],
			"name": "ERC721InvalidApprover",
			"type": "error"
		},
		{
			"inputs": [
				{
					"internalType": "address",
					"name": "operator",
					"type": "address"
				}
			],
			"name": "ERC721InvalidOperator",
			"type": "error"
		},
		{
			"inputs": [
				{
					"internalType": "address",
					"name": "owner",
					"type": "address"
				}
			],
			"name": "ERC721InvalidOwner",
			"type": "error"
		},
		{
			"inputs": [
				{
					"internalType": "address",
					"name": "receiver",
					"type": "address"
				}
			],
			"name": "ERC721InvalidReceiver",
			"type": "error"
		},
		{
			"inputs": [
				{
					"internalType": "address",
					"name": "sender",
					"type": "address"
				}
			],
			"name": "ERC721InvalidSender",
			"type": "error"
		},
		{
			"inputs": [
				{
					"internalType": "uint256",
					"name": "tokenId",
					"type": "uint256"
				}
			],
			"name": "ERC721NonexistentToken",
			"type": "error"
		},
		{
			"inputs": [
				{
					"internalType": "address",
					"name": "owner",
					"type": "address"
				}
			],
			"name": "OwnableInvalidOwner",
			"type": "error"
		},
		{
			"inputs": [
				{
					"internalType": "address",
					"name": "account",
					"type": "address"
				}
			],
			"name": "OwnableUnauthorizedAccount",
			"type": "error"
		}
	],
	"args": [],
	"solcInputHash": "c61a6742ee24061d56938059a4ccd61a",
	"bytecode": "0x60806040523480156200001157600080fd5b5060405162001b0938038062001b0983398101604081905262000034916200072b565b81604051806040016040528060118152602001704a75696365626f782050726f6a6563747360781b81525060405180604001604052806008815260200167094aa92868a849eb60c31b815250816000908162000091919062000801565b506001620000a0828262000801565b5050506001600160a01b038116620000d357604051631e4fbdf760e01b8152600060048201526024015b60405180910390fd5b620000de8162000104565b506001600160a01b03811615620000fc57620000fa8162000156565b505b50506200099c565b600680546001600160a01b038381166001600160a01b0319831681179093556040519116919082907f8be0079c531659141344cd1fd0a4f28419497f9722a3daafe3b4186f6b6457e090600090a35050565b60006007600081546200016990620008cd565b918290555090506001600160a01b038216817f365b3162cd780731fc55a794b59494d472bc2af701007f581843a70673814698336040516001600160a01b03909116815260200160405180910390a3620001c48282620001c9565b919050565b620001eb828260405180602001604052806000815250620001ef60201b60201c565b5050565b620001fb838362000210565b6200020b3360008585856200027a565b505050565b6001600160a01b0382166200023c57604051633250574960e11b815260006004820152602401620000ca565b60006200024b838383620003b2565b90506001600160a01b038116156200020b576040516339e3563760e11b815260006004820152602401620000ca565b6001600160a01b0383163b15620003ab57604051630a85bd0160e11b81526001600160a01b0384169063150b7a0290620002bf908890889087908790600401620008f5565b6020604051808303816000875af1925050508015620002fd575060408051601f3d908101601f19168201909252620002fa9181019062000969565b60015b6200036b573d8080156200032e576040519150601f19603f3d011682016040523d82523d6000602084013e62000333565b606091505b5080516000036200036357604051633250574960e11b81526001600160a01b0385166004820152602401620000ca565b805181602001fd5b6001600160e01b03198116630a85bd0160e11b14620003a957604051633250574960e11b81526001600160a01b0385166004820152602401620000ca565b505b5050505050565b6000828152600260205260408120546001600160a01b0390811690831615620003e257620003e2818486620004b1565b6001600160a01b0381161562000422576200040160008581806200051b565b6001600160a01b038116600090815260036020526040902080546000190190555b6001600160a01b0385161562000452576001600160a01b0385166000908152600360205260409020805460010190555b60008481526002602052604080822080546001600160a01b0319166001600160a01b0389811691821790925591518793918516917fddf252ad1be2c89b69c2b068fc378daa952ba7f163c4a11628f55a4df523b3ef91a4949350505050565b620004be83838362000649565b6200020b576001600160a01b038316620004ef57604051637e27328960e01b815260048101829052602401620000ca565b60405163177e802f60e01b81526001600160a01b038316600482015260248101829052604401620000ca565b80806200053057506001600160a01b03821615155b15620006195760006200054384620006d2565b90506001600160a01b03831615801590620005705750826001600160a01b0316816001600160a01b031614155b8015620005a357506001600160a01b0380821660009081526005602090815260408083209387168352929052205460ff16155b15620005ce5760405163a9fbf51f60e01b81526001600160a01b0384166004820152602401620000ca565b8115620006175783856001600160a01b0316826001600160a01b03167f8c5be1e5ebec7d5bd14f71427d1e84f3dd0314c0f7b2291e5b200ac8c7c3b92560405160405180910390a45b505b5050600090815260046020526040902080546001600160a01b0319166001600160a01b0392909216919091179055565b60006001600160a01b03831615801590620006ca5750826001600160a01b0316846001600160a01b03161480620006a557506001600160a01b0380851660009081526005602090815260408083209387168352929052205460ff165b80620006ca57506000828152600460205260409020546001600160a01b038481169116145b949350505050565b6000818152600260205260408120546001600160a01b0316806200070d57604051637e27328960e01b815260048101849052602401620000ca565b92915050565b80516001600160a01b0381168114620001c457600080fd5b600080604083850312156200073f57600080fd5b6200074a8362000713565b91506200075a6020840162000713565b90509250929050565b634e487b7160e01b600052604160045260246000fd5b600181811c908216806200078e57607f821691505b602082108103620007af57634e487b7160e01b600052602260045260246000fd5b50919050565b601f8211156200020b576000816000526020600020601f850160051c81016020861015620007e05750805b601f850160051c820191505b81811015620003a957828155600101620007ec565b81516001600160401b038111156200081d576200081d62000763565b62000835816200082e845462000779565b84620007b5565b602080601f8311600181146200086d5760008415620008545750858301515b600019600386901b1c1916600185901b178555620003a9565b600085815260208120601f198616915b828110156200089e578886015182559484019460019091019084016200087d565b5085821015620008bd5787850151600019600388901b60f8161c191681555b5050505050600190811b01905550565b600060018201620008ee57634e487b7160e01b600052601160045260246000fd5b5060010190565b600060018060a01b03808716835260208187166020850152856040850152608060608501528451915081608085015260005b82811015620009455785810182015185820160a00152810162000927565b5050600060a0828501015260a0601f19601f83011684010191505095945050505050565b6000602082840312156200097c57600080fd5b81516001600160e01b0319811681146200099557600080fd5b9392505050565b61115d80620009ac6000396000f3fe608060405234801561001057600080fd5b506004361061012c5760003560e01c8063715018a6116100ad578063c071588811610071578063c07158881461026b578063c87b56dd1461027e578063e131fc0c14610291578063e985e9c5146102a4578063f2fde38b146102b757600080fd5b8063715018a6146102245780638da5cb5b1461022c57806395d89b411461023d578063a22cb46514610245578063b88d4fde1461025857600080fd5b806323b872dd116100f457806323b872dd146101c55780632407497e146101d857806342842e0e146101eb5780636352211e146101fe57806370a082311461021157600080fd5b806301ffc9a71461013157806306661abd1461015957806306fdde0314610170578063081812fc14610185578063095ea7b3146101b0575b600080fd5b61014461013f366004610d33565b6102ca565b60405190151581526020015b60405180910390f35b61016260075481565b604051908152602001610150565b6101786102f5565b6040516101509190610da0565b610198610193366004610db3565b610387565b6040516001600160a01b039091168152602001610150565b6101c36101be366004610de1565b6103b0565b005b6101c36101d3366004610e0d565b6103bf565b6101c36101e6366004610e4e565b61044f565b6101c36101f9366004610e0d565b6104ac565b61019861020c366004610db3565b6104cc565b61016261021f366004610e4e565b6104d7565b6101c361051f565b6006546001600160a01b0316610198565b610178610533565b6101c3610253366004610e6b565b610542565b6101c3610266366004610f18565b61054d565b610162610279366004610e4e565b610565565b61017861028c366004610db3565b6105d4565b600854610198906001600160a01b031681565b6101446102b2366004610fc7565b610672565b6101c36102c5366004610e4e565b6106a0565b60006001600160e01b03198216630321f74760e01b14806102ef57506102ef826106de565b92915050565b60606000805461030490610ff5565b80601f016020809104026020016040519081016040528092919081815260200182805461033090610ff5565b801561037d5780601f106103525761010080835404028352916020019161037d565b820191906000526020600020905b81548152906001019060200180831161036057829003601f168201915b5050505050905090565b60006103928261072e565b506000828152600460205260409020546001600160a01b03166102ef565b6103bb828233610767565b5050565b6001600160a01b0382166103ee57604051633250574960e11b8152600060048201526024015b60405180910390fd5b60006103fb838333610774565b9050836001600160a01b0316816001600160a01b031614610449576040516364283d7b60e01b81526001600160a01b03808616600483015260248201849052821660448201526064016103e5565b50505050565b61045761086d565b600880546001600160a01b0383166001600160a01b031990911681179091556040805133815290517fe7784d93cfbfa4408e19577e6cc0436f4dbb51214b70e100905dfce9def88c169181900360200190a250565b6104c78383836040518060200160405280600081525061054d565b505050565b60006102ef8261072e565b60006001600160a01b038216610503576040516322718ad960e21b8152600060048201526024016103e5565b506001600160a01b031660009081526003602052604090205490565b61052761086d565b610531600061089a565b565b60606001805461030490610ff5565b6103bb3383836108ec565b6105588484846103bf565b610449338585858561098b565b60006007600081546105769061102f565b918290555090506001600160a01b038216817f365b3162cd780731fc55a794b59494d472bc2af701007f581843a70673814698336040516001600160a01b03909116815260200160405180910390a36105cf8282610ab6565b919050565b6008546060906001600160a01b0316806105fe575050604080516020810190915260008152919050565b604051636d02a25560e11b8152600481018490526001600160a01b0382169063da0544aa90602401600060405180830381865afa158015610643573d6000803e3d6000fd5b505050506040513d6000823e601f3d908101601f1916820160405261066b9190810190611056565b9392505050565b6001600160a01b03918216600090815260056020908152604080832093909416825291909152205460ff1690565b6106a861086d565b6001600160a01b0381166106d257604051631e4fbdf760e01b8152600060048201526024016103e5565b6106db8161089a565b50565b60006001600160e01b031982166380ac58cd60e01b148061070f57506001600160e01b03198216635b5e139f60e01b145b806102ef57506301ffc9a760e01b6001600160e01b03198316146102ef565b6000818152600260205260408120546001600160a01b0316806102ef57604051637e27328960e01b8152600481018490526024016103e5565b6104c78383836001610ad0565b6000828152600260205260408120546001600160a01b03908116908316156107a1576107a1818486610bd6565b6001600160a01b038116156107df576107be600085600080610ad0565b6001600160a01b038116600090815260036020526040902080546000190190555b6001600160a01b0385161561080e576001600160a01b0385166000908152600360205260409020805460010190555b60008481526002602052604080822080546001600160a01b0319166001600160a01b0389811691821790925591518793918516917fddf252ad1be2c89b69c2b068fc378daa952ba7f163c4a11628f55a4df523b3ef91a4949350505050565b6006546001600160a01b031633146105315760405163118cdaa760e01b81523360048201526024016103e5565b600680546001600160a01b038381166001600160a01b0319831681179093556040519116919082907f8be0079c531659141344cd1fd0a4f28419497f9722a3daafe3b4186f6b6457e090600090a35050565b6001600160a01b03821661091e57604051630b61174360e31b81526001600160a01b03831660048201526024016103e5565b6001600160a01b03838116600081815260056020908152604080832094871680845294825291829020805460ff191686151590811790915591519182527f17307eab39ab6107e8899845ad3d59bd9653f200f220920489ca2b5937696c31910160405180910390a3505050565b6001600160a01b0383163b15610aaf57604051630a85bd0160e11b81526001600160a01b0384169063150b7a02906109cd9088908890879087906004016110cd565b6020604051808303816000875af1925050508015610a08575060408051601f3d908101601f19168201909252610a059181019061110a565b60015b610a71573d808015610a36576040519150601f19603f3d011682016040523d82523d6000602084013e610a3b565b606091505b508051600003610a6957604051633250574960e11b81526001600160a01b03851660048201526024016103e5565b805181602001fd5b6001600160e01b03198116630a85bd0160e11b14610aad57604051633250574960e11b81526001600160a01b03851660048201526024016103e5565b505b5050505050565b6103bb828260405180602001604052806000815250610c3a565b8080610ae457506001600160a01b03821615155b15610ba6576000610af48461072e565b90506001600160a01b03831615801590610b205750826001600160a01b0316816001600160a01b031614155b8015610b335750610b318184610672565b155b15610b5c5760405163a9fbf51f60e01b81526001600160a01b03841660048201526024016103e5565b8115610ba45783856001600160a01b0316826001600160a01b03167f8c5be1e5ebec7d5bd14f71427d1e84f3dd0314c0f7b2291e5b200ac8c7c3b92560405160405180910390a45b505b5050600090815260046020526040902080546001600160a01b0319166001600160a01b0392909216919091179055565b610be1838383610c52565b6104c7576001600160a01b038316610c0f57604051637e27328960e01b8152600481018290526024016103e5565b60405163177e802f60e01b81526001600160a01b0383166004820152602481018290526044016103e5565b610c448383610cb8565b6104c733600085858561098b565b60006001600160a01b03831615801590610cb05750826001600160a01b0316846001600160a01b03161480610c8c5750610c8c8484610672565b80610cb057506000828152600460205260409020546001600160a01b038481169116145b949350505050565b6001600160a01b038216610ce257604051633250574960e11b8152600060048201526024016103e5565b6000610cf083836000610774565b90506001600160a01b038116156104c7576040516339e3563760e11b8152600060048201526024016103e5565b6001600160e01b0319811681146106db57600080fd5b600060208284031215610d4557600080fd5b813561066b81610d1d565b60005b83811015610d6b578181015183820152602001610d53565b50506000910152565b60008151808452610d8c816020860160208601610d50565b601f01601f19169290920160200192915050565b60208152600061066b6020830184610d74565b600060208284031215610dc557600080fd5b5035919050565b6001600160a01b03811681146106db57600080fd5b60008060408385031215610df457600080fd5b8235610dff81610dcc565b946020939093013593505050565b600080600060608486031215610e2257600080fd5b8335610e2d81610dcc565b92506020840135610e3d81610dcc565b929592945050506040919091013590565b600060208284031215610e6057600080fd5b813561066b81610dcc565b60008060408385031215610e7e57600080fd5b8235610e8981610dcc565b915060208301358015158114610e9e57600080fd5b809150509250929050565b634e487b7160e01b600052604160045260246000fd5b604051601f8201601f1916810167ffffffffffffffff81118282101715610ee857610ee8610ea9565b604052919050565b600067ffffffffffffffff821115610f0a57610f0a610ea9565b50601f01601f191660200190565b60008060008060808587031215610f2e57600080fd5b8435610f3981610dcc565b93506020850135610f4981610dcc565b925060408501359150606085013567ffffffffffffffff811115610f6c57600080fd5b8501601f81018713610f7d57600080fd5b8035610f90610f8b82610ef0565b610ebf565b818152886020838501011115610fa557600080fd5b8160208401602083013760006020838301015280935050505092959194509250565b60008060408385031215610fda57600080fd5b8235610fe581610dcc565b91506020830135610e9e81610dcc565b600181811c9082168061100957607f821691505b60208210810361102957634e487b7160e01b600052602260045260246000fd5b50919050565b60006001820161104f57634e487b7160e01b600052601160045260246000fd5b5060010190565b60006020828403121561106857600080fd5b815167ffffffffffffffff81111561107f57600080fd5b8201601f8101841361109057600080fd5b805161109e610f8b82610ef0565b8181528560208385010111156110b357600080fd5b6110c4826020830160208601610d50565b95945050505050565b6001600160a01b038581168252841660208201526040810183905260806060820181905260009061110090830184610d74565b9695505050505050565b60006020828403121561111c57600080fd5b815161066b81610d1d56fea2646970667358221220ad024bda7be4a71c10fd992a68c00b554884797089a35c6b9df0e3eccf29a7af64736f6c63430008170033",
	"deployedBytecode": "0x",
	"gitCommit": "c634fb753142ad7597e9572464f28b449a02270b"
}