{
	"_format": "sphinx-sol-ct-artifact-1",
	"merkleRoot": "0xf2f568380a2bcc4e7f89e08ff84563991af602cb04fda6b9476ae81ed75161f7",
	"contractName": "JBPrices",
	"address": "0xB989eeecf03a0e5a06099F1a381e66493bFeeDEA",
	"abi": [
		{
			"type": "constructor",
			"inputs": [
				{
					"name": "permissions",
					"type": "address",
					"internalType": "contract IJBPermissions"
				},
				{
					"name": "projects",
					"type": "address",
					"internalType": "contract IJBProjects"
				},
				{
					"name": "directory",
					"type": "address",
					"internalType": "contract IJBDirectory"
				},
				{
					"name": "owner",
					"type": "address",
					"internalType": "address"
				}
			],
			"stateMutability": "nonpayable"
		},
		{
			"type": "function",
			"name": "DEFAULT_PROJECT_ID",
			"inputs": [],
			"outputs": [
				{
					"name": "",
					"type": "uint256",
					"internalType": "uint256"
				}
			],
			"stateMutability": "view"
		},
		{
			"type": "function",
			"name": "DIRECTORY",
			"inputs": [],
			"outputs": [
				{
					"name": "",
					"type": "address",
					"internalType": "contract IJBDirectory"
				}
			],
			"stateMutability": "view"
		},
		{
			"type": "function",
			"name": "PERMISSIONS",
			"inputs": [],
			"outputs": [
				{
					"name": "",
					"type": "address",
					"internalType": "contract IJBPermissions"
				}
			],
			"stateMutability": "view"
		},
		{
			"type": "function",
			"name": "PROJECTS",
			"inputs": [],
			"outputs": [
				{
					"name": "",
					"type": "address",
					"internalType": "contract IJBProjects"
				}
			],
			"stateMutability": "view"
		},
		{
			"type": "function",
			"name": "addPriceFeedFor",
			"inputs": [
				{
					"name": "projectId",
					"type": "uint256",
					"internalType": "uint256"
				},
				{
					"name": "pricingCurrency",
					"type": "uint256",
					"internalType": "uint256"
				},
				{
					"name": "unitCurrency",
					"type": "uint256",
					"internalType": "uint256"
				},
				{
					"name": "feed",
					"type": "address",
					"internalType": "contract IJBPriceFeed"
				}
			],
			"outputs": [],
			"stateMutability": "nonpayable"
		},
		{
			"type": "function",
			"name": "owner",
			"inputs": [],
			"outputs": [
				{
					"name": "",
					"type": "address",
					"internalType": "address"
				}
			],
			"stateMutability": "view"
		},
		{
			"type": "function",
			"name": "priceFeedFor",
			"inputs": [
				{
					"name": "projectId",
					"type": "uint256",
					"internalType": "uint256"
				},
				{
					"name": "pricingCurrency",
					"type": "uint256",
					"internalType": "uint256"
				},
				{
					"name": "unitCurrency",
					"type": "uint256",
					"internalType": "uint256"
				}
			],
			"outputs": [
				{
					"name": "",
					"type": "address",
					"internalType": "contract IJBPriceFeed"
				}
			],
			"stateMutability": "view"
		},
		{
			"type": "function",
			"name": "pricePerUnitOf",
			"inputs": [
				{
					"name": "projectId",
					"type": "uint256",
					"internalType": "uint256"
				},
				{
					"name": "pricingCurrency",
					"type": "uint256",
					"internalType": "uint256"
				},
				{
					"name": "unitCurrency",
					"type": "uint256",
					"internalType": "uint256"
				},
				{
					"name": "decimals",
					"type": "uint256",
					"internalType": "uint256"
				}
			],
			"outputs": [
				{
					"name": "",
					"type": "uint256",
					"internalType": "uint256"
				}
			],
			"stateMutability": "view"
		},
		{
			"type": "function",
			"name": "renounceOwnership",
			"inputs": [],
			"outputs": [],
			"stateMutability": "nonpayable"
		},
		{
			"type": "function",
			"name": "transferOwnership",
			"inputs": [
				{
					"name": "newOwner",
					"type": "address",
					"internalType": "address"
				}
			],
			"outputs": [],
			"stateMutability": "nonpayable"
		},
		{
			"type": "event",
			"name": "AddPriceFeed",
			"inputs": [
				{
					"name": "projectId",
					"type": "uint256",
					"indexed": true,
					"internalType": "uint256"
				},
				{
					"name": "pricingCurrency",
					"type": "uint256",
					"indexed": true,
					"internalType": "uint256"
				},
				{
					"name": "unitCurrency",
					"type": "uint256",
					"indexed": true,
					"internalType": "uint256"
				},
				{
					"name": "feed",
					"type": "address",
					"indexed": false,
					"internalType": "contract IJBPriceFeed"
				}
			],
			"anonymous": false
		},
		{
			"type": "event",
			"name": "OwnershipTransferred",
			"inputs": [
				{
					"name": "previousOwner",
					"type": "address",
					"indexed": true,
					"internalType": "address"
				},
				{
					"name": "newOwner",
					"type": "address",
					"indexed": true,
					"internalType": "address"
				}
			],
			"anonymous": false
		},
		{
			"type": "error",
			"name": "CONTROLLER_UNAUTHORIZED",
			"inputs": []
		},
		{
			"type": "error",
			"name": "INVALID_CURRENCY",
			"inputs": []
		},
		{
			"type": "error",
			"name": "OwnableInvalidOwner",
			"inputs": [
				{
					"name": "owner",
					"type": "address",
					"internalType": "address"
				}
			]
		},
		{
			"type": "error",
			"name": "OwnableUnauthorizedAccount",
			"inputs": [
				{
					"name": "account",
					"type": "address",
					"internalType": "address"
				}
			]
		},
		{
			"type": "error",
			"name": "PRBMath_MulDiv_Overflow",
			"inputs": [
				{
					"name": "x",
					"type": "uint256",
					"internalType": "uint256"
				},
				{
					"name": "y",
					"type": "uint256",
					"internalType": "uint256"
				},
				{
					"name": "denominator",
					"type": "uint256",
					"internalType": "uint256"
				}
			]
		},
		{
			"type": "error",
			"name": "PRICE_FEED_ALREADY_EXISTS",
			"inputs": []
		},
		{
			"type": "error",
			"name": "PRICE_FEED_NOT_FOUND",
			"inputs": []
		},
		{
			"type": "error",
			"name": "UNAUTHORIZED",
			"inputs": []
		}
	],
	"solcInputHash": "bc31b432e39dd35a364a5343da785c2b",
	"args": [
		"0x9CA9BC9d5e7e20fC2f1D750807fA30c86b7989F8",
		"0xE802B15A90A8AEd41797cF535c6AeE697F18E0b1",
		"0x992f9e3a81c77Cb940A29311558343E1AC66c40F",
		"0xd72a3b02a39CFE137346444E5fbb5fF297B4d1b1"
	],
	"bytecode": "0x60e060405234801561001057600080fd5b50604051610bae380380610bae83398101604081905261002f916100f1565b6001600160a01b0380831660805280851660a0528190811661006b57604051631e4fbdf760e01b81526000600482015260240160405180910390fd5b61007481610089565b5050506001600160a01b031660c05250610150565b600080546001600160a01b038381166001600160a01b0319831681178455604051919092169283917f8be0079c531659141344cd1fd0a4f28419497f9722a3daafe3b4186f6b6457e09190a35050565b6001600160a01b03811681146100ee57600080fd5b50565b6000806000806080858703121561010757600080fd5b8451610112816100d9565b6020860151909450610123816100d9565b6040860151909350610134816100d9565b6060860151909250610145816100d9565b939692955090935050565b60805160a05160c051610a29610185600039600060a8015260006101b701526000818161011f015261073c0152610a296000f3fe608060405234801561001057600080fd5b506004361061009e5760003560e01c80638da5cb5b116100665780638da5cb5b14610141578063c6081d7114610152578063d42ebdb614610165578063f2fde38b1461019f578063f434c914146101b257600080fd5b8063293c4999146100a35780632c1ae882146100e75780633be273fa146100fd578063715018a61461011057806388bc2ef31461011a575b600080fd5b6100ca7f000000000000000000000000000000000000000000000000000000000000000081565b6040516001600160a01b0390911681526020015b60405180910390f35b6100ef600081565b6040519081526020016100de565b6100ef61010b3660046107ce565b6101d9565b610118610383565b005b6100ca7f000000000000000000000000000000000000000000000000000000000000000081565b6000546001600160a01b03166100ca565b610118610160366004610815565b610397565b6100ca610173366004610856565b60016020908152600093845260408085208252928452828420905282529020546001600160a01b031681565b6101186101ad366004610882565b610582565b6100ca7f000000000000000000000000000000000000000000000000000000000000000081565b60008284036101f4576101ed82600a61099b565b905061037b565b600085815260016020908152604080832087845282528083208684529091529020546001600160a01b031680156102965760405163d3f5c15f60e01b8152600481018490526001600160a01b0382169063d3f5c15f90602401602060405180830381865afa15801561026a573d6000803e3d6000fd5b505050506040513d601f19601f8201168201806040525081019061028e91906109a7565b91505061037b565b50600085815260016020908152604080832086845282528083208784529091529020546001600160a01b0316801561034f5761028e6102d684600a61099b565b6102e185600a61099b565b60405163d3f5c15f60e01b8152600481018790526001600160a01b0385169063d3f5c15f90602401602060405180830381865afa158015610326573d6000803e3d6000fd5b505050506040513d601f19601f8201168201806040525081019061034a91906109a7565b6105c5565b85156103625761028e60008686866101d9565b604051633ae4eae560e11b815260040160405180910390fd5b949350505050565b61038b61069f565b61039560006106cc565b565b83156103ab576103a68461071c565b6103b3565b6103b361069f565b8215806103be575081155b156103dc576040516376e6504f60e01b815260040160405180910390fd5b60008381527fa6eef7e35abe7026729641147f7915573c7e97b47efa546f5f6e3230263bcb49602090815260408083208584529091529020546001600160a01b031615158061046b575060008281527fa6eef7e35abe7026729641147f7915573c7e97b47efa546f5f6e3230263bcb49602090815260408083208684529091529020546001600160a01b031615155b156104895760405163d28d564f60e01b815260040160405180910390fd5b600084815260016020908152604080832086845282528083208584529091529020546001600160a01b03161515806104ea5750600084815260016020908152604080832085845282528083208684529091529020546001600160a01b031615155b156105085760405163d28d564f60e01b815260040160405180910390fd5b6000848152600160209081526040808320868452825280832085845282529182902080546001600160a01b0319166001600160a01b03851690811790915591519182528391859187917f4cf05c413627a637dcbb4b5559323b7e969cb13fbd111a1a4ffab7d09a92d527910160405180910390a450505050565b61058a61069f565b6001600160a01b0381166105b957604051631e4fbdf760e01b8152600060048201526024015b60405180910390fd5b6105c2816106cc565b50565b60008080600019858709858702925082811083820303915050806000036105ff578382816105f5576105f56109c0565b0492505050610698565b83811061063057604051630c740aef60e31b81526004810187905260248101869052604481018590526064016105b0565b600084868809851960019081018716968790049682860381900495909211909303600082900391909104909201919091029190911760038402600290811880860282030280860282030280860282030280860282030280860282030280860290910302029150505b9392505050565b6000546001600160a01b031633146103955760405163118cdaa760e01b81523360048201526024016105b0565b600080546001600160a01b038381166001600160a01b0319831681178455604051919092169283917f8be0079c531659141344cd1fd0a4f28419497f9722a3daafe3b4186f6b6457e09190a35050565b604051632eec7b5560e11b81526004810182905233906001600160a01b037f00000000000000000000000000000000000000000000000000000000000000001690635dd8f6aa90602401602060405180830381865afa158015610783573d6000803e3d6000fd5b505050506040513d601f19601f820116820180604052508101906107a791906109d6565b6001600160a01b0316146105c257604051632adfdd0560e21b815260040160405180910390fd5b600080600080608085870312156107e457600080fd5b5050823594602084013594506040840135936060013592509050565b6001600160a01b03811681146105c257600080fd5b6000806000806080858703121561082b57600080fd5b843593506020850135925060408501359150606085013561084b81610800565b939692955090935050565b60008060006060848603121561086b57600080fd5b505081359360208301359350604090920135919050565b60006020828403121561089457600080fd5b813561069881610800565b634e487b7160e01b600052601160045260246000fd5b600181815b808511156108f05781600019048211156108d6576108d661089f565b808516156108e357918102915b93841c93908002906108ba565b509250929050565b60008261090757506001610995565b8161091457506000610995565b816001811461092a576002811461093457610950565b6001915050610995565b60ff8411156109455761094561089f565b50506001821b610995565b5060208310610133831016604e8410600b8410161715610973575081810a610995565b61097d83836108b5565b80600019048211156109915761099161089f565b0290505b92915050565b600061069883836108f8565b6000602082840312156109b957600080fd5b5051919050565b634e487b7160e01b600052601260045260246000fd5b6000602082840312156109e857600080fd5b81516106988161080056fea26469706673582212203ee4b019d92f4fdb87fd9dbc0ad7c80d7d35bb2bb3044373b528ad109eceb5f764736f6c63430008170033",
	"deployedBytecode": "0x608060405234801561001057600080fd5b506004361061009e5760003560e01c80638da5cb5b116100665780638da5cb5b14610141578063c6081d7114610152578063d42ebdb614610165578063f2fde38b1461019f578063f434c914146101b257600080fd5b8063293c4999146100a35780632c1ae882146100e75780633be273fa146100fd578063715018a61461011057806388bc2ef31461011a575b600080fd5b6100ca7f000000000000000000000000e802b15a90a8aed41797cf535c6aee697f18e0b181565b6040516001600160a01b0390911681526020015b60405180910390f35b6100ef600081565b6040519081526020016100de565b6100ef61010b3660046107ce565b6101d9565b610118610383565b005b6100ca7f000000000000000000000000992f9e3a81c77cb940a29311558343e1ac66c40f81565b6000546001600160a01b03166100ca565b610118610160366004610815565b610397565b6100ca610173366004610856565b60016020908152600093845260408085208252928452828420905282529020546001600160a01b031681565b6101186101ad366004610882565b610582565b6100ca7f0000000000000000000000009ca9bc9d5e7e20fc2f1d750807fa30c86b7989f881565b60008284036101f4576101ed82600a61099b565b905061037b565b600085815260016020908152604080832087845282528083208684529091529020546001600160a01b031680156102965760405163d3f5c15f60e01b8152600481018490526001600160a01b0382169063d3f5c15f90602401602060405180830381865afa15801561026a573d6000803e3d6000fd5b505050506040513d601f19601f8201168201806040525081019061028e91906109a7565b91505061037b565b50600085815260016020908152604080832086845282528083208784529091529020546001600160a01b0316801561034f5761028e6102d684600a61099b565b6102e185600a61099b565b60405163d3f5c15f60e01b8152600481018790526001600160a01b0385169063d3f5c15f90602401602060405180830381865afa158015610326573d6000803e3d6000fd5b505050506040513d601f19601f8201168201806040525081019061034a91906109a7565b6105c5565b85156103625761028e60008686866101d9565b604051633ae4eae560e11b815260040160405180910390fd5b949350505050565b61038b61069f565b61039560006106cc565b565b83156103ab576103a68461071c565b6103b3565b6103b361069f565b8215806103be575081155b156103dc576040516376e6504f60e01b815260040160405180910390fd5b60008381527fa6eef7e35abe7026729641147f7915573c7e97b47efa546f5f6e3230263bcb49602090815260408083208584529091529020546001600160a01b031615158061046b575060008281527fa6eef7e35abe7026729641147f7915573c7e97b47efa546f5f6e3230263bcb49602090815260408083208684529091529020546001600160a01b031615155b156104895760405163d28d564f60e01b815260040160405180910390fd5b600084815260016020908152604080832086845282528083208584529091529020546001600160a01b03161515806104ea5750600084815260016020908152604080832085845282528083208684529091529020546001600160a01b031615155b156105085760405163d28d564f60e01b815260040160405180910390fd5b6000848152600160209081526040808320868452825280832085845282529182902080546001600160a01b0319166001600160a01b03851690811790915591519182528391859187917f4cf05c413627a637dcbb4b5559323b7e969cb13fbd111a1a4ffab7d09a92d527910160405180910390a450505050565b61058a61069f565b6001600160a01b0381166105b957604051631e4fbdf760e01b8152600060048201526024015b60405180910390fd5b6105c2816106cc565b50565b60008080600019858709858702925082811083820303915050806000036105ff578382816105f5576105f56109c0565b0492505050610698565b83811061063057604051630c740aef60e31b81526004810187905260248101869052604481018590526064016105b0565b600084868809851960019081018716968790049682860381900495909211909303600082900391909104909201919091029190911760038402600290811880860282030280860282030280860282030280860282030280860282030280860290910302029150505b9392505050565b6000546001600160a01b031633146103955760405163118cdaa760e01b81523360048201526024016105b0565b600080546001600160a01b038381166001600160a01b0319831681178455604051919092169283917f8be0079c531659141344cd1fd0a4f28419497f9722a3daafe3b4186f6b6457e09190a35050565b604051632eec7b5560e11b81526004810182905233906001600160a01b037f000000000000000000000000992f9e3a81c77cb940a29311558343e1ac66c40f1690635dd8f6aa90602401602060405180830381865afa158015610783573d6000803e3d6000fd5b505050506040513d601f19601f820116820180604052508101906107a791906109d6565b6001600160a01b0316146105c257604051632adfdd0560e21b815260040160405180910390fd5b600080600080608085870312156107e457600080fd5b5050823594602084013594506040840135936060013592509050565b6001600160a01b03811681146105c257600080fd5b6000806000806080858703121561082b57600080fd5b843593506020850135925060408501359150606085013561084b81610800565b939692955090935050565b60008060006060848603121561086b57600080fd5b505081359360208301359350604090920135919050565b60006020828403121561089457600080fd5b813561069881610800565b634e487b7160e01b600052601160045260246000fd5b600181815b808511156108f05781600019048211156108d6576108d661089f565b808516156108e357918102915b93841c93908002906108ba565b509250929050565b60008261090757506001610995565b8161091457506000610995565b816001811461092a576002811461093457610950565b6001915050610995565b60ff8411156109455761094561089f565b50506001821b610995565b5060208310610133831016604e8410600b8410161715610973575081810a610995565b61097d83836108b5565b80600019048211156109915761099161089f565b0290505b92915050565b600061069883836108f8565b6000602082840312156109b957600080fd5b5051919050565b634e487b7160e01b600052601260045260246000fd5b6000602082840312156109e857600080fd5b81516106988161080056fea26469706673582212203ee4b019d92f4fdb87fd9dbc0ad7c80d7d35bb2bb3044373b528ad109eceb5f764736f6c63430008170033",
	"devdoc": {
		"kind": "dev",
		"methods": {
			"addPriceFeedFor(uint256,uint256,uint256,address)": {
				"details": "Price feeds can only be added, not modified or removed.This contract's owner can add protocol-wide default price feed by passing a `projectId` of 0.",
				"params": {
					"feed": "The address of the price feed to add.",
					"pricingCurrency": "The currency the feed's output price is in terms of.",
					"projectId": "The ID of the project to add a feed for. If `projectId` is 0, add a protocol-wide default price feed.",
					"unitCurrency": "The currency being priced by the feed."
				}
			},
			"constructor": {
				"params": {
					"directory": "A contract storing directories of terminals and controllers for each project.",
					"owner": "The address that will own the contract.",
					"permissions": "A contract storing permissions.",
					"projects": "A contract which mints ERC-721s that represent project ownership and transfers."
				}
			},
			"owner()": {
				"details": "Returns the address of the current owner."
			},
			"pricePerUnitOf(uint256,uint256,uint256,uint256)": {
				"params": {
					"decimals": "The number of decimals the returned fixed point price should include.",
					"pricingCurrency": "The currency the feed's resulting price is in terms of.",
					"projectId": "The ID of the project to check the feed for. Feeds stored in ID 0 are used by default for all projects.",
					"unitCurrency": "The currency being priced by the feed."
				},
				"returns": {
					"_0": "The `pricingCurrency` price of 1 `unitCurrency`, as a fixed point number with the specified number of decimals."
				}
			},
			"renounceOwnership()": {
				"details": "Leaves the contract without owner. It will not be possible to call `onlyOwner` functions. Can only be called by the current owner. NOTE: Renouncing ownership will leave the contract without an owner, thereby disabling any functionality that is only available to the owner."
			},
			"transferOwnership(address)": {
				"details": "Transfers ownership of the contract to a new account (`newOwner`). Can only be called by the current owner."
			}
		},
		"version": 1
	},
	"userdoc": {
		"kind": "user",
		"methods": {
			"DEFAULT_PROJECT_ID()": {
				"notice": "The ID to store default values in."
			},
			"DIRECTORY()": {
				"notice": "The directory of terminals and controllers for projects."
			},
			"PERMISSIONS()": {
				"notice": "A contract storing permissions."
			},
			"PROJECTS()": {
				"notice": "Mints ERC-721s that represent project ownership and transfers."
			},
			"addPriceFeedFor(uint256,uint256,uint256,address)": {
				"notice": "Add a price feed for the `unitCurrency`, priced in terms of the `pricingCurrency`."
			},
			"priceFeedFor(uint256,uint256,uint256)": {
				"notice": "The available price feeds."
			},
			"pricePerUnitOf(uint256,uint256,uint256,uint256)": {
				"notice": "Gets the `pricingCurrency` cost for one unit of the `unitCurrency`."
			}
		},
		"version": 1
	},
	"gitCommit": "897be4ac937fa10ecfddb2c6008cf3edd084beef",
	"sourceName": "src/JBPrices.sol",
	"chainId": "84532",
	"linkReferences": {},
	"deployedLinkReferences": {},
	"history": []
}