{
	"_format": "sphinx-sol-ct-artifact-1",
	"merkleRoot": "0xecb722e952abd0c88b199c7b6d0e32c15eac38bf919588daeaef55a0b9f73b56",
	"contractName": "JBSplits",
	"address": "0x20d892d9296A4d69E94C202f5C41a299Da72B117",
	"abi": [
		{
			"type": "constructor",
			"inputs": [
				{
					"name": "directory",
					"type": "address",
					"internalType": "contract IJBDirectory"
				}
			],
			"stateMutability": "nonpayable"
		},
		{
			"type": "function",
			"name": "DIRECTORY",
			"inputs": [],
			"outputs": [
				{
					"name": "",
					"type": "address",
					"internalType": "contract IJBDirectory"
				}
			],
			"stateMutability": "view"
		},
		{
			"type": "function",
			"name": "FALLBACK_RULESET_ID",
			"inputs": [],
			"outputs": [
				{
					"name": "",
					"type": "uint256",
					"internalType": "uint256"
				}
			],
			"stateMutability": "view"
		},
		{
			"type": "function",
			"name": "setSplitGroupsOf",
			"inputs": [
				{
					"name": "projectId",
					"type": "uint256",
					"internalType": "uint256"
				},
				{
					"name": "rulesetId",
					"type": "uint256",
					"internalType": "uint256"
				},
				{
					"name": "splitGroups",
					"type": "tuple[]",
					"internalType": "struct JBSplitGroup[]",
					"components": [
						{
							"name": "groupId",
							"type": "uint256",
							"internalType": "uint256"
						},
						{
							"name": "splits",
							"type": "tuple[]",
							"internalType": "struct JBSplit[]",
							"components": [
								{
									"name": "preferAddToBalance",
									"type": "bool",
									"internalType": "bool"
								},
								{
									"name": "percent",
									"type": "uint256",
									"internalType": "uint256"
								},
								{
									"name": "projectId",
									"type": "uint256",
									"internalType": "uint256"
								},
								{
									"name": "beneficiary",
									"type": "address",
									"internalType": "address payable"
								},
								{
									"name": "lockedUntil",
									"type": "uint256",
									"internalType": "uint256"
								},
								{
									"name": "hook",
									"type": "address",
									"internalType": "contract IJBSplitHook"
								}
							]
						}
					]
				}
			],
			"outputs": [],
			"stateMutability": "nonpayable"
		},
		{
			"type": "function",
			"name": "splitsOf",
			"inputs": [
				{
					"name": "projectId",
					"type": "uint256",
					"internalType": "uint256"
				},
				{
					"name": "rulesetId",
					"type": "uint256",
					"internalType": "uint256"
				},
				{
					"name": "groupId",
					"type": "uint256",
					"internalType": "uint256"
				}
			],
			"outputs": [
				{
					"name": "splits",
					"type": "tuple[]",
					"internalType": "struct JBSplit[]",
					"components": [
						{
							"name": "preferAddToBalance",
							"type": "bool",
							"internalType": "bool"
						},
						{
							"name": "percent",
							"type": "uint256",
							"internalType": "uint256"
						},
						{
							"name": "projectId",
							"type": "uint256",
							"internalType": "uint256"
						},
						{
							"name": "beneficiary",
							"type": "address",
							"internalType": "address payable"
						},
						{
							"name": "lockedUntil",
							"type": "uint256",
							"internalType": "uint256"
						},
						{
							"name": "hook",
							"type": "address",
							"internalType": "contract IJBSplitHook"
						}
					]
				}
			],
			"stateMutability": "view"
		},
		{
			"type": "event",
			"name": "SetSplit",
			"inputs": [
				{
					"name": "projectId",
					"type": "uint256",
					"indexed": true,
					"internalType": "uint256"
				},
				{
					"name": "rulesetId",
					"type": "uint256",
					"indexed": true,
					"internalType": "uint256"
				},
				{
					"name": "group",
					"type": "uint256",
					"indexed": true,
					"internalType": "uint256"
				},
				{
					"name": "split",
					"type": "tuple",
					"indexed": false,
					"internalType": "struct JBSplit",
					"components": [
						{
							"name": "preferAddToBalance",
							"type": "bool",
							"internalType": "bool"
						},
						{
							"name": "percent",
							"type": "uint256",
							"internalType": "uint256"
						},
						{
							"name": "projectId",
							"type": "uint256",
							"internalType": "uint256"
						},
						{
							"name": "beneficiary",
							"type": "address",
							"internalType": "address payable"
						},
						{
							"name": "lockedUntil",
							"type": "uint256",
							"internalType": "uint256"
						},
						{
							"name": "hook",
							"type": "address",
							"internalType": "contract IJBSplitHook"
						}
					]
				},
				{
					"name": "caller",
					"type": "address",
					"indexed": false,
					"internalType": "address"
				}
			],
			"anonymous": false
		},
		{
			"type": "error",
			"name": "CONTROLLER_UNAUTHORIZED",
			"inputs": []
		},
		{
			"type": "error",
			"name": "INVALID_LOCKED_UNTIL",
			"inputs": []
		},
		{
			"type": "error",
			"name": "INVALID_PROJECT_ID",
			"inputs": []
		},
		{
			"type": "error",
			"name": "INVALID_SPLIT_PERCENT",
			"inputs": []
		},
		{
			"type": "error",
			"name": "INVALID_TOTAL_PERCENT",
			"inputs": []
		},
		{
			"type": "error",
			"name": "PREVIOUS_LOCKED_SPLITS_NOT_INCLUDED",
			"inputs": []
		}
	],
	"solcInputHash": "57a1d4be1e647efb0f1dadcd0304e29e",
	"args": [
		"0x317E962828ddBb27576f6F0cA89Adc3cd56Ed8Cc"
	],
	"bytecode": "0x60a060405234801561001057600080fd5b50604051610e27380380610e2783398101604081905261002f91610040565b6001600160a01b0316608052610070565b60006020828403121561005257600080fd5b81516001600160a01b038116811461006957600080fd5b9392505050565b608051610d9661009160003960008181609101526101300152610d966000f3fe608060405234801561001057600080fd5b506004361061004c5760003560e01c80635963b80b1461005157806369e11cc51461006c57806388bc2ef31461008c578063dd5f214a146100cb575b600080fd5b610059600081565b6040519081526020015b60405180910390f35b61007f61007a3660046109af565b6100e0565b6040516100639190610a23565b6100b37f000000000000000000000000000000000000000000000000000000000000000081565b6040516001600160a01b039091168152602001610063565b6100de6100d9366004610a71565b61010e565b005b60606100ed848484610225565b905080516000036101075761010484600084610225565b90505b9392505050565b604051632eec7b5560e11b815260048101859052849033906001600160a01b037f00000000000000000000000000000000000000000000000000000000000000001690635dd8f6aa90602401602060405180830381865afa158015610177573d6000803e3d6000fd5b505050506040513d601f19601f8201168201806040525081019061019b9190610b0c565b6001600160a01b0316146101c257604051632adfdd0560e21b815260040160405180910390fd5b8160005b8181101561021c5760008585838181106101e2576101e2610b29565b90506020028101906101f49190610b3f565b6101fd90610bf2565b905061021388888360000151846020015161039f565b506001016101c6565b50505050505050565b60008381526020818152604080832085845282528083208484529091528120546060918167ffffffffffffffff81111561026157610261610b5f565b60405190808252806020026020018201604052801561029a57816020015b610287610965565b81526020019060019003908161027f5790505b50905060005b82811015610395576000878152600160209081526040808320898452825280832088845282528083208484529091529020546102da610965565b60018281168114825282901c63ffffffff16602080830191909152602183901c66ffffffffffffff16604080840191909152605984901c6001600160a01b0316606084015260008b8152600283528181208b825283528181208a82528352818120868252909252902054801561036c5765ffffffffffff811660808301526001600160a01b03603082901c1660a08301525b8185858151811061037f5761037f610b29565b60209081029190910101525050506001016102a0565b5095945050505050565b60006103ac858585610225565b805190915060005b8181101561042e578281815181106103ce576103ce610b29565b602002602001015160800151421080156104085750610406848483815181106103f9576103f9610b29565b6020026020010151610808565b155b1561042657604051631974459560e01b815260040160405180910390fd5b6001016103b4565b508251600090815b818110156107da5785818151811061045057610450610b29565b60200260200101516020015160000361047c5760405163e119ba4560e01b815260040160405180910390fd5b66ffffffffffffff801686828151811061049857610498610b29565b60200260200101516040015111156104c357604051631da26cc960e11b815260040160405180910390fd5b8581815181106104d5576104d5610b29565b602002602001015160200151836104ec9190610d19565b9250633b9aca0083111561051357604051630eca736160e41b815260040160405180910390fd5b600086828151811061052757610527610b29565b6020026020010151600001511561053c575060015b600187838151811061055057610550610b29565b602002602001015160200151901b81179050602187838151811061057657610576610b29565b602002602001015160400151901b81179050605987838151811061059c5761059c610b29565b6020908102919091018101516060015160008d81526001835260408082208e835284528082208d835284528082208783529093529182206001600160a01b0390911690921b9290921790819055875190919088908490811061060057610600610b29565b6020026020010151608001511180610648575060006001600160a01b031687838151811061063057610630610b29565b602002602001015160a001516001600160a01b031614155b156107225765ffffffffffff801687838151811061066857610668610b29565b60200260200101516080015111156106935760405163d509b54d60e01b815260040160405180910390fd5b60008783815181106106a7576106a7610b29565b60200260200101516080015165ffffffffffff16905060308884815181106106d1576106d1610b29565b60209081029190910181015160a0015160008e81526002835260408082208f835284528082208e83528452808220888352909352919091206001600160a01b0390911690911b91909117905561077c565b60008a81526002602090815260408083208c845282528083208b845282528083208584529091529020541561077c5760008a81526002602090815260408083208c845282528083208b845282528083208584529091528120555b87898b7f0d7ea8ac1cb69dfa18ce2b18e90d31b4d4a0370aacadf7db42d42930a09b3f018a86815181106107b2576107b2610b29565b6020026020010151336040516107c9929190610d3a565b60405180910390a450600101610436565b50600097885260208881526040808a20988a5297815287892096895295909552505050919092209190915550565b8151600090815b8181101561095857836020015185828151811061082e5761082e610b29565b602002602001015160200151148015610879575083606001516001600160a01b031685828151811061086257610862610b29565b6020026020010151606001516001600160a01b0316145b80156108b757508360a001516001600160a01b03168582815181106108a0576108a0610b29565b602002602001015160a001516001600160a01b0316145b80156108e3575083604001518582815181106108d5576108d5610b29565b602002602001015160400151145b801561091357508360000151151585828151811061090357610903610b29565b6020026020010151600001511515145b80156109405750836080015185828151811061093157610931610b29565b60200260200101516080015110155b156109505760019250505061095f565b60010161080f565b5060009150505b92915050565b6040518060c00160405280600015158152602001600081526020016000815260200160006001600160a01b031681526020016000815260200160006001600160a01b031681525090565b6000806000606084860312156109c457600080fd5b505081359360208301359350604090920135919050565b80511515825260208082015190830152604080820151908301526060808201516001600160a01b03908116918401919091526080808301519084015260a09182015116910152565b6020808252825182820181905260009190848201906040850190845b81811015610a6557610a528385516109db565b9284019260c09290920191600101610a3f565b50909695505050505050565b60008060008060608587031215610a8757600080fd5b8435935060208501359250604085013567ffffffffffffffff80821115610aad57600080fd5b818701915087601f830112610ac157600080fd5b813581811115610ad057600080fd5b8860208260051b8501011115610ae557600080fd5b95989497505060200194505050565b6001600160a01b0381168114610b0957600080fd5b50565b600060208284031215610b1e57600080fd5b815161010781610af4565b634e487b7160e01b600052603260045260246000fd5b60008235603e19833603018112610b5557600080fd5b9190910192915050565b634e487b7160e01b600052604160045260246000fd5b6040805190810167ffffffffffffffff81118282101715610b9857610b98610b5f565b60405290565b60405160c0810167ffffffffffffffff81118282101715610b9857610b98610b5f565b604051601f8201601f1916810167ffffffffffffffff81118282101715610bea57610bea610b5f565b604052919050565b60006040808336031215610c0557600080fd5b610c0d610b75565b8335815260208085013567ffffffffffffffff80821115610c2d57600080fd5b9086019036601f830112610c4057600080fd5b813581811115610c5257610c52610b5f565b610c60848260051b01610bc1565b818152848101925060c0918202840185019136831115610c7f57600080fd5b938501935b82851015610d0657808536031215610c9c5760008081fd5b610ca4610b9e565b85358015158114610cb55760008081fd5b815285870135878201528886013589820152606080870135610cd681610af4565b908201526080868101359082015260a080870135610cf381610af4565b9082015284529384019392850192610c84565b5093850193909352509195945050505050565b8082018082111561095f57634e487b7160e01b600052601160045260246000fd5b60e08101610d4882856109db565b6001600160a01b039290921660c0919091015291905056fea26469706673582212207581edb0e16b29f01ab1b5e31fdd56f728f0925835b126fd0aa0460fbdfb778e64736f6c63430008170033",
	"deployedBytecode": "0x608060405234801561001057600080fd5b506004361061004c5760003560e01c80635963b80b1461005157806369e11cc51461006c57806388bc2ef31461008c578063dd5f214a146100cb575b600080fd5b610059600081565b6040519081526020015b60405180910390f35b61007f61007a3660046109af565b6100e0565b6040516100639190610a23565b6100b37f000000000000000000000000317e962828ddbb27576f6f0ca89adc3cd56ed8cc81565b6040516001600160a01b039091168152602001610063565b6100de6100d9366004610a71565b61010e565b005b60606100ed848484610225565b905080516000036101075761010484600084610225565b90505b9392505050565b604051632eec7b5560e11b815260048101859052849033906001600160a01b037f000000000000000000000000317e962828ddbb27576f6f0ca89adc3cd56ed8cc1690635dd8f6aa90602401602060405180830381865afa158015610177573d6000803e3d6000fd5b505050506040513d601f19601f8201168201806040525081019061019b9190610b0c565b6001600160a01b0316146101c257604051632adfdd0560e21b815260040160405180910390fd5b8160005b8181101561021c5760008585838181106101e2576101e2610b29565b90506020028101906101f49190610b3f565b6101fd90610bf2565b905061021388888360000151846020015161039f565b506001016101c6565b50505050505050565b60008381526020818152604080832085845282528083208484529091528120546060918167ffffffffffffffff81111561026157610261610b5f565b60405190808252806020026020018201604052801561029a57816020015b610287610965565b81526020019060019003908161027f5790505b50905060005b82811015610395576000878152600160209081526040808320898452825280832088845282528083208484529091529020546102da610965565b60018281168114825282901c63ffffffff16602080830191909152602183901c66ffffffffffffff16604080840191909152605984901c6001600160a01b0316606084015260008b8152600283528181208b825283528181208a82528352818120868252909252902054801561036c5765ffffffffffff811660808301526001600160a01b03603082901c1660a08301525b8185858151811061037f5761037f610b29565b60209081029190910101525050506001016102a0565b5095945050505050565b60006103ac858585610225565b805190915060005b8181101561042e578281815181106103ce576103ce610b29565b602002602001015160800151421080156104085750610406848483815181106103f9576103f9610b29565b6020026020010151610808565b155b1561042657604051631974459560e01b815260040160405180910390fd5b6001016103b4565b508251600090815b818110156107da5785818151811061045057610450610b29565b60200260200101516020015160000361047c5760405163e119ba4560e01b815260040160405180910390fd5b66ffffffffffffff801686828151811061049857610498610b29565b60200260200101516040015111156104c357604051631da26cc960e11b815260040160405180910390fd5b8581815181106104d5576104d5610b29565b602002602001015160200151836104ec9190610d19565b9250633b9aca0083111561051357604051630eca736160e41b815260040160405180910390fd5b600086828151811061052757610527610b29565b6020026020010151600001511561053c575060015b600187838151811061055057610550610b29565b602002602001015160200151901b81179050602187838151811061057657610576610b29565b602002602001015160400151901b81179050605987838151811061059c5761059c610b29565b6020908102919091018101516060015160008d81526001835260408082208e835284528082208d835284528082208783529093529182206001600160a01b0390911690921b9290921790819055875190919088908490811061060057610600610b29565b6020026020010151608001511180610648575060006001600160a01b031687838151811061063057610630610b29565b602002602001015160a001516001600160a01b031614155b156107225765ffffffffffff801687838151811061066857610668610b29565b60200260200101516080015111156106935760405163d509b54d60e01b815260040160405180910390fd5b60008783815181106106a7576106a7610b29565b60200260200101516080015165ffffffffffff16905060308884815181106106d1576106d1610b29565b60209081029190910181015160a0015160008e81526002835260408082208f835284528082208e83528452808220888352909352919091206001600160a01b0390911690911b91909117905561077c565b60008a81526002602090815260408083208c845282528083208b845282528083208584529091529020541561077c5760008a81526002602090815260408083208c845282528083208b845282528083208584529091528120555b87898b7f0d7ea8ac1cb69dfa18ce2b18e90d31b4d4a0370aacadf7db42d42930a09b3f018a86815181106107b2576107b2610b29565b6020026020010151336040516107c9929190610d3a565b60405180910390a450600101610436565b50600097885260208881526040808a20988a5297815287892096895295909552505050919092209190915550565b8151600090815b8181101561095857836020015185828151811061082e5761082e610b29565b602002602001015160200151148015610879575083606001516001600160a01b031685828151811061086257610862610b29565b6020026020010151606001516001600160a01b0316145b80156108b757508360a001516001600160a01b03168582815181106108a0576108a0610b29565b602002602001015160a001516001600160a01b0316145b80156108e3575083604001518582815181106108d5576108d5610b29565b602002602001015160400151145b801561091357508360000151151585828151811061090357610903610b29565b6020026020010151600001511515145b80156109405750836080015185828151811061093157610931610b29565b60200260200101516080015110155b156109505760019250505061095f565b60010161080f565b5060009150505b92915050565b6040518060c00160405280600015158152602001600081526020016000815260200160006001600160a01b031681526020016000815260200160006001600160a01b031681525090565b6000806000606084860312156109c457600080fd5b505081359360208301359350604090920135919050565b80511515825260208082015190830152604080820151908301526060808201516001600160a01b03908116918401919091526080808301519084015260a09182015116910152565b6020808252825182820181905260009190848201906040850190845b81811015610a6557610a528385516109db565b9284019260c09290920191600101610a3f565b50909695505050505050565b60008060008060608587031215610a8757600080fd5b8435935060208501359250604085013567ffffffffffffffff80821115610aad57600080fd5b818701915087601f830112610ac157600080fd5b813581811115610ad057600080fd5b8860208260051b8501011115610ae557600080fd5b95989497505060200194505050565b6001600160a01b0381168114610b0957600080fd5b50565b600060208284031215610b1e57600080fd5b815161010781610af4565b634e487b7160e01b600052603260045260246000fd5b60008235603e19833603018112610b5557600080fd5b9190910192915050565b634e487b7160e01b600052604160045260246000fd5b6040805190810167ffffffffffffffff81118282101715610b9857610b98610b5f565b60405290565b60405160c0810167ffffffffffffffff81118282101715610b9857610b98610b5f565b604051601f8201601f1916810167ffffffffffffffff81118282101715610bea57610bea610b5f565b604052919050565b60006040808336031215610c0557600080fd5b610c0d610b75565b8335815260208085013567ffffffffffffffff80821115610c2d57600080fd5b9086019036601f830112610c4057600080fd5b813581811115610c5257610c52610b5f565b610c60848260051b01610bc1565b818152848101925060c0918202840185019136831115610c7f57600080fd5b938501935b82851015610d0657808536031215610c9c5760008081fd5b610ca4610b9e565b85358015158114610cb55760008081fd5b815285870135878201528886013589820152606080870135610cd681610af4565b908201526080868101359082015260a080870135610cf381610af4565b9082015284529384019392850192610c84565b5093850193909352509195945050505050565b8082018082111561095f57634e487b7160e01b600052601160045260246000fd5b60e08101610d4882856109db565b6001600160a01b039290921660c0919091015291905056fea26469706673582212207581edb0e16b29f01ab1b5e31fdd56f728f0925835b126fd0aa0460fbdfb778e64736f6c63430008170033",
	"devdoc": {
		"kind": "dev",
		"methods": {
			"constructor": {
				"params": {
					"directory": "A contract storing directories of terminals and controllers for each project."
				}
			},
			"setSplitGroupsOf(uint256,uint256,(uint256,(bool,uint256,uint256,address,uint256,address)[])[])": {
				"details": "Only a project's controller can set its splits.The new split groups must include any currently set splits that are locked.",
				"params": {
					"projectId": "The ID of the project to set the split groups of.",
					"rulesetId": "The ID of the ruleset the split groups should be active in. Send 0 to set the default split that'll be active if no ruleset has specific splits set. The default's default is the project's owner.",
					"splitGroups": "An array of split groups to set."
				}
			},
			"splitsOf(uint256,uint256,uint256)": {
				"details": "If splits aren't found at the given `rulesetId`, they'll be sought in the FALLBACK_RULESET_ID of 0.",
				"params": {
					"groupId": "The identifying group of the splits.",
					"projectId": "The ID of the project to get splits for.",
					"rulesetId": "An identifier within which the returned splits should be considered active."
				},
				"returns": {
					"splits": "An array of all splits for the project."
				}
			}
		},
		"version": 1
	},
	"userdoc": {
		"kind": "user",
		"methods": {
			"DIRECTORY()": {
				"notice": "The directory of terminals and controllers for projects."
			},
			"FALLBACK_RULESET_ID()": {
				"notice": "The ID of the ruleset that will be checked if nothing was found in the provided rulesetId."
			},
			"setSplitGroupsOf(uint256,uint256,(uint256,(bool,uint256,uint256,address,uint256,address)[])[])": {
				"notice": "Sets a project's split groups."
			},
			"splitsOf(uint256,uint256,uint256)": {
				"notice": "Get the split structs for the specified project ID, within the specified ruleset, for the specified group. The splits stored at ruleset 0 are used by default during a ruleset if the splits for the specific ruleset aren't set."
			}
		},
		"version": 1
	},
	"gitCommit": "a991cc8048c2498c20ee78dc68456d84b45f9e4f",
	"sourceName": "src/JBSplits.sol",
	"chainId": "84532",
	"linkReferences": {},
	"deployedLinkReferences": {},
	"history": []
}