{
	"_format": "sphinx-sol-ct-artifact-1",
	"merkleRoot": "0x732be88c08b5a2d625882757714ef23a3a10316e007749118eaca4a956dc9f8a",
	"contractName": "JBTokens",
	"address": "0x94Db7C71D9E4bcDE99686bE9570C68BF12708D3e",
	"abi": [
		{
			"type": "constructor",
			"inputs": [
				{
					"name": "directory",
					"type": "address",
					"internalType": "contract IJBDirectory"
				},
				{
					"name": "token",
					"type": "address",
					"internalType": "contract IJBToken"
				}
			],
			"stateMutability": "nonpayable"
		},
		{
			"type": "function",
			"name": "DIRECTORY",
			"inputs": [],
			"outputs": [
				{
					"name": "",
					"type": "address",
					"internalType": "contract IJBDirectory"
				}
			],
			"stateMutability": "view"
		},
		{
			"type": "function",
			"name": "TOKEN",
			"inputs": [],
			"outputs": [
				{
					"name": "",
					"type": "address",
					"internalType": "contract IJBToken"
				}
			],
			"stateMutability": "view"
		},
		{
			"type": "function",
			"name": "burnFrom",
			"inputs": [
				{
					"name": "holder",
					"type": "address",
					"internalType": "address"
				},
				{
					"name": "projectId",
					"type": "uint256",
					"internalType": "uint256"
				},
				{
					"name": "count",
					"type": "uint256",
					"internalType": "uint256"
				}
			],
			"outputs": [],
			"stateMutability": "nonpayable"
		},
		{
			"type": "function",
			"name": "claimTokensFor",
			"inputs": [
				{
					"name": "holder",
					"type": "address",
					"internalType": "address"
				},
				{
					"name": "projectId",
					"type": "uint256",
					"internalType": "uint256"
				},
				{
					"name": "count",
					"type": "uint256",
					"internalType": "uint256"
				},
				{
					"name": "beneficiary",
					"type": "address",
					"internalType": "address"
				}
			],
			"outputs": [],
			"stateMutability": "nonpayable"
		},
		{
			"type": "function",
			"name": "creditBalanceOf",
			"inputs": [
				{
					"name": "holder",
					"type": "address",
					"internalType": "address"
				},
				{
					"name": "projectId",
					"type": "uint256",
					"internalType": "uint256"
				}
			],
			"outputs": [
				{
					"name": "",
					"type": "uint256",
					"internalType": "uint256"
				}
			],
			"stateMutability": "view"
		},
		{
			"type": "function",
			"name": "deployERC20For",
			"inputs": [
				{
					"name": "projectId",
					"type": "uint256",
					"internalType": "uint256"
				},
				{
					"name": "name",
					"type": "string",
					"internalType": "string"
				},
				{
					"name": "symbol",
					"type": "string",
					"internalType": "string"
				},
				{
					"name": "salt",
					"type": "bytes32",
					"internalType": "bytes32"
				}
			],
			"outputs": [
				{
					"name": "token",
					"type": "address",
					"internalType": "contract IJBToken"
				}
			],
			"stateMutability": "nonpayable"
		},
		{
			"type": "function",
			"name": "mintFor",
			"inputs": [
				{
					"name": "holder",
					"type": "address",
					"internalType": "address"
				},
				{
					"name": "projectId",
					"type": "uint256",
					"internalType": "uint256"
				},
				{
					"name": "count",
					"type": "uint256",
					"internalType": "uint256"
				}
			],
			"outputs": [],
			"stateMutability": "nonpayable"
		},
		{
			"type": "function",
			"name": "projectIdOf",
			"inputs": [
				{
					"name": "token",
					"type": "address",
					"internalType": "contract IJBToken"
				}
			],
			"outputs": [
				{
					"name": "",
					"type": "uint256",
					"internalType": "uint256"
				}
			],
			"stateMutability": "view"
		},
		{
			"type": "function",
			"name": "setTokenFor",
			"inputs": [
				{
					"name": "projectId",
					"type": "uint256",
					"internalType": "uint256"
				},
				{
					"name": "token",
					"type": "address",
					"internalType": "contract IJBToken"
				}
			],
			"outputs": [],
			"stateMutability": "nonpayable"
		},
		{
			"type": "function",
			"name": "tokenOf",
			"inputs": [
				{
					"name": "projectId",
					"type": "uint256",
					"internalType": "uint256"
				}
			],
			"outputs": [
				{
					"name": "",
					"type": "address",
					"internalType": "contract IJBToken"
				}
			],
			"stateMutability": "view"
		},
		{
			"type": "function",
			"name": "totalBalanceOf",
			"inputs": [
				{
					"name": "holder",
					"type": "address",
					"internalType": "address"
				},
				{
					"name": "projectId",
					"type": "uint256",
					"internalType": "uint256"
				}
			],
			"outputs": [
				{
					"name": "balance",
					"type": "uint256",
					"internalType": "uint256"
				}
			],
			"stateMutability": "view"
		},
		{
			"type": "function",
			"name": "totalCreditSupplyOf",
			"inputs": [
				{
					"name": "projectId",
					"type": "uint256",
					"internalType": "uint256"
				}
			],
			"outputs": [
				{
					"name": "",
					"type": "uint256",
					"internalType": "uint256"
				}
			],
			"stateMutability": "view"
		},
		{
			"type": "function",
			"name": "totalSupplyOf",
			"inputs": [
				{
					"name": "projectId",
					"type": "uint256",
					"internalType": "uint256"
				}
			],
			"outputs": [
				{
					"name": "totalSupply",
					"type": "uint256",
					"internalType": "uint256"
				}
			],
			"stateMutability": "view"
		},
		{
			"type": "function",
			"name": "transferCreditsFrom",
			"inputs": [
				{
					"name": "holder",
					"type": "address",
					"internalType": "address"
				},
				{
					"name": "projectId",
					"type": "uint256",
					"internalType": "uint256"
				},
				{
					"name": "recipient",
					"type": "address",
					"internalType": "address"
				},
				{
					"name": "count",
					"type": "uint256",
					"internalType": "uint256"
				}
			],
			"outputs": [],
			"stateMutability": "nonpayable"
		},
		{
			"type": "event",
			"name": "Burn",
			"inputs": [
				{
					"name": "holder",
					"type": "address",
					"indexed": true,
					"internalType": "address"
				},
				{
					"name": "projectId",
					"type": "uint256",
					"indexed": true,
					"internalType": "uint256"
				},
				{
					"name": "count",
					"type": "uint256",
					"indexed": false,
					"internalType": "uint256"
				},
				{
					"name": "creditBalance",
					"type": "uint256",
					"indexed": false,
					"internalType": "uint256"
				},
				{
					"name": "tokenBalance",
					"type": "uint256",
					"indexed": false,
					"internalType": "uint256"
				},
				{
					"name": "caller",
					"type": "address",
					"indexed": false,
					"internalType": "address"
				}
			],
			"anonymous": false
		},
		{
			"type": "event",
			"name": "ClaimTokens",
			"inputs": [
				{
					"name": "holder",
					"type": "address",
					"indexed": true,
					"internalType": "address"
				},
				{
					"name": "projectId",
					"type": "uint256",
					"indexed": true,
					"internalType": "uint256"
				},
				{
					"name": "creditBalance",
					"type": "uint256",
					"indexed": false,
					"internalType": "uint256"
				},
				{
					"name": "count",
					"type": "uint256",
					"indexed": false,
					"internalType": "uint256"
				},
				{
					"name": "beneficiary",
					"type": "address",
					"indexed": false,
					"internalType": "address"
				},
				{
					"name": "caller",
					"type": "address",
					"indexed": false,
					"internalType": "address"
				}
			],
			"anonymous": false
		},
		{
			"type": "event",
			"name": "DeployERC20",
			"inputs": [
				{
					"name": "projectId",
					"type": "uint256",
					"indexed": true,
					"internalType": "uint256"
				},
				{
					"name": "token",
					"type": "address",
					"indexed": true,
					"internalType": "contract IJBToken"
				},
				{
					"name": "name",
					"type": "string",
					"indexed": false,
					"internalType": "string"
				},
				{
					"name": "symbol",
					"type": "string",
					"indexed": false,
					"internalType": "string"
				},
				{
					"name": "salt",
					"type": "bytes32",
					"indexed": false,
					"internalType": "bytes32"
				},
				{
					"name": "caller",
					"type": "address",
					"indexed": false,
					"internalType": "address"
				}
			],
			"anonymous": false
		},
		{
			"type": "event",
			"name": "Mint",
			"inputs": [
				{
					"name": "holder",
					"type": "address",
					"indexed": true,
					"internalType": "address"
				},
				{
					"name": "projectId",
					"type": "uint256",
					"indexed": true,
					"internalType": "uint256"
				},
				{
					"name": "count",
					"type": "uint256",
					"indexed": false,
					"internalType": "uint256"
				},
				{
					"name": "shouldClaimTokens",
					"type": "bool",
					"indexed": false,
					"internalType": "bool"
				},
				{
					"name": "caller",
					"type": "address",
					"indexed": false,
					"internalType": "address"
				}
			],
			"anonymous": false
		},
		{
			"type": "event",
			"name": "SetToken",
			"inputs": [
				{
					"name": "projectId",
					"type": "uint256",
					"indexed": true,
					"internalType": "uint256"
				},
				{
					"name": "token",
					"type": "address",
					"indexed": true,
					"internalType": "contract IJBToken"
				},
				{
					"name": "caller",
					"type": "address",
					"indexed": false,
					"internalType": "address"
				}
			],
			"anonymous": false
		},
		{
			"type": "event",
			"name": "TransferCredits",
			"inputs": [
				{
					"name": "holder",
					"type": "address",
					"indexed": true,
					"internalType": "address"
				},
				{
					"name": "projectId",
					"type": "uint256",
					"indexed": true,
					"internalType": "uint256"
				},
				{
					"name": "recipient",
					"type": "address",
					"indexed": true,
					"internalType": "address"
				},
				{
					"name": "count",
					"type": "uint256",
					"indexed": false,
					"internalType": "uint256"
				},
				{
					"name": "caller",
					"type": "address",
					"indexed": false,
					"internalType": "address"
				}
			],
			"anonymous": false
		},
		{
			"type": "error",
			"name": "FailedDeployment",
			"inputs": []
		},
		{
			"type": "error",
			"name": "InsufficientBalance",
			"inputs": [
				{
					"name": "balance",
					"type": "uint256",
					"internalType": "uint256"
				},
				{
					"name": "needed",
					"type": "uint256",
					"internalType": "uint256"
				}
			]
		},
		{
			"type": "error",
			"name": "JBControlled_ControllerUnauthorized",
			"inputs": [
				{
					"name": "controller",
					"type": "address",
					"internalType": "address"
				}
			]
		},
		{
			"type": "error",
			"name": "JBTokens_EmptyName",
			"inputs": []
		},
		{
			"type": "error",
			"name": "JBTokens_EmptySymbol",
			"inputs": []
		},
		{
			"type": "error",
			"name": "JBTokens_EmptyToken",
			"inputs": []
		},
		{
			"type": "error",
			"name": "JBTokens_InsufficientCredits",
			"inputs": [
				{
					"name": "count",
					"type": "uint256",
					"internalType": "uint256"
				},
				{
					"name": "creditBalance",
					"type": "uint256",
					"internalType": "uint256"
				}
			]
		},
		{
			"type": "error",
			"name": "JBTokens_InsufficientTokensToBurn",
			"inputs": [
				{
					"name": "count",
					"type": "uint256",
					"internalType": "uint256"
				},
				{
					"name": "tokenBalance",
					"type": "uint256",
					"internalType": "uint256"
				}
			]
		},
		{
			"type": "error",
			"name": "JBTokens_OverflowAlert",
			"inputs": [
				{
					"name": "value",
					"type": "uint256",
					"internalType": "uint256"
				},
				{
					"name": "limit",
					"type": "uint256",
					"internalType": "uint256"
				}
			]
		},
		{
			"type": "error",
			"name": "JBTokens_ProjectAlreadyHasToken",
			"inputs": [
				{
					"name": "token",
					"type": "address",
					"internalType": "contract IJBToken"
				}
			]
		},
		{
			"type": "error",
			"name": "JBTokens_RecipientZeroAddress",
			"inputs": []
		},
		{
			"type": "error",
			"name": "JBTokens_TokenAlreadyBeingUsed",
			"inputs": [
				{
					"name": "projectId",
					"type": "uint256",
					"internalType": "uint256"
				}
			]
		},
		{
			"type": "error",
			"name": "JBTokens_TokenNotFound",
			"inputs": []
		},
		{
			"type": "error",
			"name": "JBTokens_TokensMustHave18Decimals",
			"inputs": [
				{
					"name": "decimals",
					"type": "uint256",
					"internalType": "uint256"
				}
			]
		}
	],
	"solcInputHash": "b6c351fd96634234999dc102235e550e",
	"args": [
		"0x5ADb234602D074064C216C1fDB23c6c2031F0C75",
		"0xb2C36630B8774c8346D980fb9BCcA40B28C26Df6"
	],
	"bytecode": "0x60c060405234801561001057600080fd5b506040516115e83803806115e883398101604081905261002f9161005e565b6001600160a01b039182166080521660a052610098565b6001600160a01b038116811461005b57600080fd5b50565b6000806040838503121561007157600080fd5b825161007c81610046565b602084015190925061008d81610046565b809150509250929050565b60805160a05161150f6100d9600039600081816101ad0152818161072101526107690152600081816101e701528181610ed30152610f62015261150f6000f3fe608060405234801561001057600080fd5b50600436106100ea5760003560e01c8063878003b81161008c578063b1e6d2a111610066578063b1e6d2a11461021c578063c6c116bd1461022f578063ea78803f14610257578063f12b64a51461028057600080fd5b8063878003b8146101cf57806388bc2ef3146101e2578063aab68bdb1461020957600080fd5b806358178191116100c8578063581781911461014a57806366d542161461017557806375b0d9cd1461019557806382bfefc8146101a857600080fd5b80630f85421b146100ef578063124d91e514610122578063303f5dfa14610137575b600080fd5b61010f6100fd36600461116a565b60016020526000908152604090205481565b6040519081526020015b60405180910390f35b610135610130366004611187565b610293565b005b6101356101453660046111bc565b6104ee565b61015d61015836600461124f565b610663565b6040516001600160a01b039091168152602001610119565b61010f6101833660046112d1565b60036020526000908152604090205481565b61010f6101a33660046112d1565b610881565b61015d7f000000000000000000000000000000000000000000000000000000000000000081565b61010f6101dd3660046112ea565b610920565b61015d7f000000000000000000000000000000000000000000000000000000000000000081565b610135610217366004611187565b6109d3565b61013561022a366004611316565b610b5e565b61010f61023d3660046112ea565b600060208181529281526040808220909352908152205481565b61015d6102653660046112d1565b6002602052600090815260409020546001600160a01b031681565b61013561028e36600461135e565b610c7d565b8161029d81610eb3565b6000838152600260209081526040808320546001600160a01b038881168552848452828520888652909352908320549116918215610344576040516370a0823160e01b81526001600160a01b0388811660048301528416906370a0823190602401602060405180830381865afa15801561031b573d6000803e3d6000fd5b505050506040513d601f19601f8201168201806040525081019061033f919061138e565b610347565b60005b905061035382826113bd565b85111561038c578461036583836113bd565b6040516305dc356160e51b8152600481019290925260248201526044015b60405180910390fd5b600081156103a9578583106103a25760006103a6565b8286035b90505b808603868214610426576001600160a01b0389166000908152602081815260408083208b84529091529020546103e09082906113d0565b6001600160a01b038a166000908152602081815260408083208c84528252808320939093556003905220546104169082906113d0565b6000898152600360205260409020555b604080518881526020810186905290810184905233606082015288906001600160a01b038b16907fa6a919b3314fbbdb84c4a64d62f381f104d0c1747b789163262d2fcfeec292689060800160405180910390a381156104e357604051632770a7eb60e21b81526001600160a01b038a8116600483015260248201849052861690639dc29fac90604401600060405180830381600087803b1580156104ca57600080fd5b505af11580156104de573d6000803e3d6000fd5b505050505b505050505050505050565b826104f881610eb3565b6000848152600260205260409020546001600160a01b03168061052e576040516335fb0a2760e11b815260040160405180910390fd5b6001600160a01b0386166000908152602081815260408083208884529091529020548085111561057b5760405163914993a160e01b81526004810186905260248101829052604401610383565b6001600160a01b038781166000818152602081815260408083208b845282528083208a87039055600382529182902080548a9003905581518581529081018990529287169083015233606083015287917fde5600808a2321d39207ba773327f7a932a4b0b019107fb5a95618006cd0ff009060800160405180910390a36040516340c10f1960e01b81526001600160a01b038581166004830152602482018790528316906340c10f1990604401600060405180830381600087803b15801561064257600080fd5b505af1158015610656573d6000803e3d6000fd5b5050505050505050505050565b60008661066f81610eb3565b60008690036106915760405163109f035760e21b815260040160405180910390fd5b60008490036106b357604051630d1a676960e31b815260040160405180910390fd5b6000888152600260205260409020546001600160a01b03161561070557600088815260026020526040908190205490516378ed73ed60e11b81526001600160a01b039091166004820152602401610383565b8215610764576040805133602082015290810184905261075f907f00000000000000000000000000000000000000000000000000000000000000009060600160405160208183030381529060405280519060200120610ffd565b61078d565b61078d7f0000000000000000000000000000000000000000000000000000000000000000611014565b600089815260026020908152604080832080546001600160a01b0319166001600160a01b0386169081179091558084526001909252918290208b905590519193509089907fb4510654a5884cae50948507300dc482833ed1446cef375e064bef00b6b4ba4e90610808908b908b908b908b908b90339061140c565b60405180910390a36040516303bf912560e11b81526001600160a01b0383169063077f224a90610844908a908a908a908a903090600401611457565b600060405180830381600087803b15801561085e57600080fd5b505af1158015610872573d6000803e3d6000fd5b50505050509695505050505050565b6000818152600360209081526040808320546002909252909120546001600160a01b0316801561091a57806001600160a01b03166318160ddd6040518163ffffffff1660e01b8152600401602060405180830381865afa1580156108e9573d6000803e3d6000fd5b505050506040513d601f19601f8201168201806040525081019061090d919061138e565b61091790836113bd565b91505b50919050565b6001600160a01b0380831660009081526020818152604080832085845282528083205460029092529091205490911680156109cc576040516370a0823160e01b81526001600160a01b0385811660048301528216906370a0823190602401602060405180830381865afa15801561099b573d6000803e3d6000fd5b505050506040513d601f19601f820116820180604052508101906109bf919061138e565b6109c990836113bd565b91505b5092915050565b816109dd81610eb3565b6000838152600260205260409020546001600160a01b03168015801590610a65576040516340c10f1960e01b81526001600160a01b038781166004830152602482018690528316906340c10f1990604401600060405180830381600087803b158015610a4857600080fd5b505af1158015610a5c573d6000803e3d6000fd5b50505050610abf565b6001600160a01b03861660009081526020818152604080832088845290915281208054869290610a969084906113bd565b909155505060008581526003602052604081208054869290610ab99084906113bd565b90915550505b6001600160d01b03610ad086610881565b1115610b0957610adf85610881565b60405163a2f5932960e01b815260048101919091526001600160d01b036024820152604401610383565b6040805185815282151560208201523381830152905186916001600160a01b038916917f0153be209252ccc3b70df14d55d2cc93fa5a74e263b163d9a1caf45152fd0e869181900360600190a3505050505050565b82610b6881610eb3565b6001600160a01b038316610b8f5760405163c3e3a0d160e01b815260040160405180910390fd5b6001600160a01b03851660009081526020818152604080832087845290915290205480831115610bdc5760405163914993a160e01b81526004810184905260248101829052604401610383565b6001600160a01b0380871660009081526020818152604080832089845282528083208786039055928716825281815282822088835290529081208054859290610c269084906113bd565b9091555050604080518481523360208201526001600160a01b03808716928892918a16917f6d86dde1e9f07a2ad1e0f3e611b7bb8343d629126c5ca73f1a5951177d87143f910160405180910390a4505050505050565b81610c8781610eb3565b6001600160a01b038216610cae57604051637661e72d60e01b815260040160405180910390fd5b6000838152600260205260409020546001600160a01b031615610d0057600083815260026020526040908190205490516378ed73ed60e11b81526001600160a01b039091166004820152602401610383565b6001600160a01b03821660009081526001602052604090205415610d55576001600160a01b0382166000908152600160205260409081902054905163487d5b8b60e11b81526004810191909152602401610383565b816001600160a01b031663313ce5676040518163ffffffff1660e01b8152600401602060405180830381865afa158015610d93573d6000803e3d6000fd5b505050506040513d601f19601f82011682018060405250810190610db79190611499565b60ff16601214610e4257816001600160a01b031663313ce5676040518163ffffffff1660e01b8152600401602060405180830381865afa158015610dff573d6000803e3d6000fd5b505050506040513d601f19601f82011682018060405250810190610e239190611499565b604051630a51f6ff60e41b815260ff9091166004820152602401610383565b600083815260026020908152604080832080546001600160a01b0319166001600160a01b03871690811790915580845260018352928190208690555133815285917f768e177d7f9dac714049e6d43d9ac533cf0c6cc23cddcfe642bfd7a18bee3772910160405180910390a3505050565b604051632eec7b5560e11b81526004810182905233906001600160a01b037f00000000000000000000000000000000000000000000000000000000000000001690635dd8f6aa90602401602060405180830381865afa158015610f1a573d6000803e3d6000fd5b505050506040513d601f19601f82011682018060405250810190610f3e91906114bc565b6001600160a01b031614610ffa57604051632eec7b5560e11b8152600481018290527f00000000000000000000000000000000000000000000000000000000000000006001600160a01b031690635dd8f6aa90602401602060405180830381865afa158015610fb1573d6000803e3d6000fd5b505050506040513d601f19601f82011682018060405250810190610fd591906114bc565b604051639a007b3960e01b81526001600160a01b039091166004820152602401610383565b50565b600061100b83836000611021565b90505b92915050565b600061100e8260006110bf565b60008147101561104d5760405163cf47918160e01b815247600482015260248101839052604401610383565b763d602d80600a3d3981f3363d3d373d3d3d363d730000008460601b60e81c176000526e5af43d82803e903d91602b57fd5bf38460781b17602052826037600984f590506001600160a01b0381166110b85760405163b06ebf3d60e01b815260040160405180910390fd5b9392505050565b6000814710156110eb5760405163cf47918160e01b815247600482015260248101839052604401610383565b763d602d80600a3d3981f3363d3d373d3d3d363d730000008360601b60e81c176000526e5af43d82803e903d91602b57fd5bf38360781b176020526037600983f090506001600160a01b03811661100e5760405163b06ebf3d60e01b815260040160405180910390fd5b6001600160a01b0381168114610ffa57600080fd5b60006020828403121561117c57600080fd5b81356110b881611155565b60008060006060848603121561119c57600080fd5b83356111a781611155565b95602085013595506040909401359392505050565b600080600080608085870312156111d257600080fd5b84356111dd81611155565b9350602085013592506040850135915060608501356111fb81611155565b939692955090935050565b60008083601f84011261121857600080fd5b50813567ffffffffffffffff81111561123057600080fd5b60208301915083602082850101111561124857600080fd5b9250929050565b6000806000806000806080878903121561126857600080fd5b86359550602087013567ffffffffffffffff8082111561128757600080fd5b6112938a838b01611206565b909750955060408901359150808211156112ac57600080fd5b506112b989828a01611206565b979a9699509497949695606090950135949350505050565b6000602082840312156112e357600080fd5b5035919050565b600080604083850312156112fd57600080fd5b823561130881611155565b946020939093013593505050565b6000806000806080858703121561132c57600080fd5b843561133781611155565b935060208501359250604085013561134e81611155565b9396929550929360600135925050565b6000806040838503121561137157600080fd5b82359150602083013561138381611155565b809150509250929050565b6000602082840312156113a057600080fd5b5051919050565b634e487b7160e01b600052601160045260246000fd5b8082018082111561100e5761100e6113a7565b8181038181111561100e5761100e6113a7565b81835281816020850137506000828201602090810191909152601f909101601f19169091010190565b60808152600061142060808301888a6113e3565b82810360208401526114338187896113e3565b604084019590955250506001600160a01b0391909116606090910152949350505050565b60608152600061146b6060830187896113e3565b828103602084015261147e8186886113e3565b91505060018060a01b03831660408301529695505050505050565b6000602082840312156114ab57600080fd5b815160ff811681146110b857600080fd5b6000602082840312156114ce57600080fd5b81516110b88161115556fea2646970667358221220157d6a8791624ad094427a19718f8350623c61b7a922195b12e7b238f160f1e564736f6c63430008170033",
	"deployedBytecode": "0x608060405234801561001057600080fd5b50600436106100ea5760003560e01c8063878003b81161008c578063b1e6d2a111610066578063b1e6d2a11461021c578063c6c116bd1461022f578063ea78803f14610257578063f12b64a51461028057600080fd5b8063878003b8146101cf57806388bc2ef3146101e2578063aab68bdb1461020957600080fd5b806358178191116100c8578063581781911461014a57806366d542161461017557806375b0d9cd1461019557806382bfefc8146101a857600080fd5b80630f85421b146100ef578063124d91e514610122578063303f5dfa14610137575b600080fd5b61010f6100fd36600461116a565b60016020526000908152604090205481565b6040519081526020015b60405180910390f35b610135610130366004611187565b610293565b005b6101356101453660046111bc565b6104ee565b61015d61015836600461124f565b610663565b6040516001600160a01b039091168152602001610119565b61010f6101833660046112d1565b60036020526000908152604090205481565b61010f6101a33660046112d1565b610881565b61015d7f000000000000000000000000b2c36630b8774c8346d980fb9bcca40b28c26df681565b61010f6101dd3660046112ea565b610920565b61015d7f0000000000000000000000005adb234602d074064c216c1fdb23c6c2031f0c7581565b610135610217366004611187565b6109d3565b61013561022a366004611316565b610b5e565b61010f61023d3660046112ea565b600060208181529281526040808220909352908152205481565b61015d6102653660046112d1565b6002602052600090815260409020546001600160a01b031681565b61013561028e36600461135e565b610c7d565b8161029d81610eb3565b6000838152600260209081526040808320546001600160a01b038881168552848452828520888652909352908320549116918215610344576040516370a0823160e01b81526001600160a01b0388811660048301528416906370a0823190602401602060405180830381865afa15801561031b573d6000803e3d6000fd5b505050506040513d601f19601f8201168201806040525081019061033f919061138e565b610347565b60005b905061035382826113bd565b85111561038c578461036583836113bd565b6040516305dc356160e51b8152600481019290925260248201526044015b60405180910390fd5b600081156103a9578583106103a25760006103a6565b8286035b90505b808603868214610426576001600160a01b0389166000908152602081815260408083208b84529091529020546103e09082906113d0565b6001600160a01b038a166000908152602081815260408083208c84528252808320939093556003905220546104169082906113d0565b6000898152600360205260409020555b604080518881526020810186905290810184905233606082015288906001600160a01b038b16907fa6a919b3314fbbdb84c4a64d62f381f104d0c1747b789163262d2fcfeec292689060800160405180910390a381156104e357604051632770a7eb60e21b81526001600160a01b038a8116600483015260248201849052861690639dc29fac90604401600060405180830381600087803b1580156104ca57600080fd5b505af11580156104de573d6000803e3d6000fd5b505050505b505050505050505050565b826104f881610eb3565b6000848152600260205260409020546001600160a01b03168061052e576040516335fb0a2760e11b815260040160405180910390fd5b6001600160a01b0386166000908152602081815260408083208884529091529020548085111561057b5760405163914993a160e01b81526004810186905260248101829052604401610383565b6001600160a01b038781166000818152602081815260408083208b845282528083208a87039055600382529182902080548a9003905581518581529081018990529287169083015233606083015287917fde5600808a2321d39207ba773327f7a932a4b0b019107fb5a95618006cd0ff009060800160405180910390a36040516340c10f1960e01b81526001600160a01b038581166004830152602482018790528316906340c10f1990604401600060405180830381600087803b15801561064257600080fd5b505af1158015610656573d6000803e3d6000fd5b5050505050505050505050565b60008661066f81610eb3565b60008690036106915760405163109f035760e21b815260040160405180910390fd5b60008490036106b357604051630d1a676960e31b815260040160405180910390fd5b6000888152600260205260409020546001600160a01b03161561070557600088815260026020526040908190205490516378ed73ed60e11b81526001600160a01b039091166004820152602401610383565b8215610764576040805133602082015290810184905261075f907f000000000000000000000000b2c36630b8774c8346d980fb9bcca40b28c26df69060600160405160208183030381529060405280519060200120610ffd565b61078d565b61078d7f000000000000000000000000b2c36630b8774c8346d980fb9bcca40b28c26df6611014565b600089815260026020908152604080832080546001600160a01b0319166001600160a01b0386169081179091558084526001909252918290208b905590519193509089907fb4510654a5884cae50948507300dc482833ed1446cef375e064bef00b6b4ba4e90610808908b908b908b908b908b90339061140c565b60405180910390a36040516303bf912560e11b81526001600160a01b0383169063077f224a90610844908a908a908a908a903090600401611457565b600060405180830381600087803b15801561085e57600080fd5b505af1158015610872573d6000803e3d6000fd5b50505050509695505050505050565b6000818152600360209081526040808320546002909252909120546001600160a01b0316801561091a57806001600160a01b03166318160ddd6040518163ffffffff1660e01b8152600401602060405180830381865afa1580156108e9573d6000803e3d6000fd5b505050506040513d601f19601f8201168201806040525081019061090d919061138e565b61091790836113bd565b91505b50919050565b6001600160a01b0380831660009081526020818152604080832085845282528083205460029092529091205490911680156109cc576040516370a0823160e01b81526001600160a01b0385811660048301528216906370a0823190602401602060405180830381865afa15801561099b573d6000803e3d6000fd5b505050506040513d601f19601f820116820180604052508101906109bf919061138e565b6109c990836113bd565b91505b5092915050565b816109dd81610eb3565b6000838152600260205260409020546001600160a01b03168015801590610a65576040516340c10f1960e01b81526001600160a01b038781166004830152602482018690528316906340c10f1990604401600060405180830381600087803b158015610a4857600080fd5b505af1158015610a5c573d6000803e3d6000fd5b50505050610abf565b6001600160a01b03861660009081526020818152604080832088845290915281208054869290610a969084906113bd565b909155505060008581526003602052604081208054869290610ab99084906113bd565b90915550505b6001600160d01b03610ad086610881565b1115610b0957610adf85610881565b60405163a2f5932960e01b815260048101919091526001600160d01b036024820152604401610383565b6040805185815282151560208201523381830152905186916001600160a01b038916917f0153be209252ccc3b70df14d55d2cc93fa5a74e263b163d9a1caf45152fd0e869181900360600190a3505050505050565b82610b6881610eb3565b6001600160a01b038316610b8f5760405163c3e3a0d160e01b815260040160405180910390fd5b6001600160a01b03851660009081526020818152604080832087845290915290205480831115610bdc5760405163914993a160e01b81526004810184905260248101829052604401610383565b6001600160a01b0380871660009081526020818152604080832089845282528083208786039055928716825281815282822088835290529081208054859290610c269084906113bd565b9091555050604080518481523360208201526001600160a01b03808716928892918a16917f6d86dde1e9f07a2ad1e0f3e611b7bb8343d629126c5ca73f1a5951177d87143f910160405180910390a4505050505050565b81610c8781610eb3565b6001600160a01b038216610cae57604051637661e72d60e01b815260040160405180910390fd5b6000838152600260205260409020546001600160a01b031615610d0057600083815260026020526040908190205490516378ed73ed60e11b81526001600160a01b039091166004820152602401610383565b6001600160a01b03821660009081526001602052604090205415610d55576001600160a01b0382166000908152600160205260409081902054905163487d5b8b60e11b81526004810191909152602401610383565b816001600160a01b031663313ce5676040518163ffffffff1660e01b8152600401602060405180830381865afa158015610d93573d6000803e3d6000fd5b505050506040513d601f19601f82011682018060405250810190610db79190611499565b60ff16601214610e4257816001600160a01b031663313ce5676040518163ffffffff1660e01b8152600401602060405180830381865afa158015610dff573d6000803e3d6000fd5b505050506040513d601f19601f82011682018060405250810190610e239190611499565b604051630a51f6ff60e41b815260ff9091166004820152602401610383565b600083815260026020908152604080832080546001600160a01b0319166001600160a01b03871690811790915580845260018352928190208690555133815285917f768e177d7f9dac714049e6d43d9ac533cf0c6cc23cddcfe642bfd7a18bee3772910160405180910390a3505050565b604051632eec7b5560e11b81526004810182905233906001600160a01b037f0000000000000000000000005adb234602d074064c216c1fdb23c6c2031f0c751690635dd8f6aa90602401602060405180830381865afa158015610f1a573d6000803e3d6000fd5b505050506040513d601f19601f82011682018060405250810190610f3e91906114bc565b6001600160a01b031614610ffa57604051632eec7b5560e11b8152600481018290527f0000000000000000000000005adb234602d074064c216c1fdb23c6c2031f0c756001600160a01b031690635dd8f6aa90602401602060405180830381865afa158015610fb1573d6000803e3d6000fd5b505050506040513d601f19601f82011682018060405250810190610fd591906114bc565b604051639a007b3960e01b81526001600160a01b039091166004820152602401610383565b50565b600061100b83836000611021565b90505b92915050565b600061100e8260006110bf565b60008147101561104d5760405163cf47918160e01b815247600482015260248101839052604401610383565b763d602d80600a3d3981f3363d3d373d3d3d363d730000008460601b60e81c176000526e5af43d82803e903d91602b57fd5bf38460781b17602052826037600984f590506001600160a01b0381166110b85760405163b06ebf3d60e01b815260040160405180910390fd5b9392505050565b6000814710156110eb5760405163cf47918160e01b815247600482015260248101839052604401610383565b763d602d80600a3d3981f3363d3d373d3d3d363d730000008360601b60e81c176000526e5af43d82803e903d91602b57fd5bf38360781b176020526037600983f090506001600160a01b03811661100e5760405163b06ebf3d60e01b815260040160405180910390fd5b6001600160a01b0381168114610ffa57600080fd5b60006020828403121561117c57600080fd5b81356110b881611155565b60008060006060848603121561119c57600080fd5b83356111a781611155565b95602085013595506040909401359392505050565b600080600080608085870312156111d257600080fd5b84356111dd81611155565b9350602085013592506040850135915060608501356111fb81611155565b939692955090935050565b60008083601f84011261121857600080fd5b50813567ffffffffffffffff81111561123057600080fd5b60208301915083602082850101111561124857600080fd5b9250929050565b6000806000806000806080878903121561126857600080fd5b86359550602087013567ffffffffffffffff8082111561128757600080fd5b6112938a838b01611206565b909750955060408901359150808211156112ac57600080fd5b506112b989828a01611206565b979a9699509497949695606090950135949350505050565b6000602082840312156112e357600080fd5b5035919050565b600080604083850312156112fd57600080fd5b823561130881611155565b946020939093013593505050565b6000806000806080858703121561132c57600080fd5b843561133781611155565b935060208501359250604085013561134e81611155565b9396929550929360600135925050565b6000806040838503121561137157600080fd5b82359150602083013561138381611155565b809150509250929050565b6000602082840312156113a057600080fd5b5051919050565b634e487b7160e01b600052601160045260246000fd5b8082018082111561100e5761100e6113a7565b8181038181111561100e5761100e6113a7565b81835281816020850137506000828201602090810191909152601f909101601f19169091010190565b60808152600061142060808301888a6113e3565b82810360208401526114338187896113e3565b604084019590955250506001600160a01b0391909116606090910152949350505050565b60608152600061146b6060830187896113e3565b828103602084015261147e8186886113e3565b91505060018060a01b03831660408301529695505050505050565b6000602082840312156114ab57600080fd5b815160ff811681146110b857600080fd5b6000602082840312156114ce57600080fd5b81516110b88161115556fea2646970667358221220157d6a8791624ad094427a19718f8350623c61b7a922195b12e7b238f160f1e564736f6c63430008170033",
	"devdoc": {
		"kind": "dev",
		"methods": {
			"burnFrom(address,uint256,uint256)": {
				"details": "Credits are burned first, then tokens are burned.Only a project's current controller can burn its tokens.",
				"params": {
					"count": "The number of tokens to burn.",
					"holder": "The address that owns the tokens which are being burned.",
					"projectId": "The ID of the project to the burned tokens belong to."
				}
			},
			"claimTokensFor(address,uint256,uint256,address)": {
				"details": "Only a project's controller can claim that project's tokens.",
				"params": {
					"beneficiary": "The account into which the claimed tokens will go.",
					"count": "The number of tokens to claim.",
					"holder": "The owner of the credits being redeemed.",
					"projectId": "The ID of the project whose tokens are being claimed."
				}
			},
			"constructor": {
				"params": {
					"directory": "A contract storing directories of terminals and controllers for each project.",
					"token": "The implementation of the token contract that project can deploy."
				}
			},
			"deployERC20For(uint256,string,string,bytes32)": {
				"details": "Deploys a project's ERC-20 token contract.Only a project's controller can deploy its token.",
				"params": {
					"name": "The ERC-20's name.",
					"projectId": "The ID of the project to deploy an ERC-20 token for.",
					"salt": "The salt used for ERC-1167 clone deployment. Pass a non-zero salt for deterministic deployment based on `msg.sender` and the `TOKEN` implementation address.",
					"symbol": "The ERC-20's symbol."
				},
				"returns": {
					"token": "The address of the token that was deployed."
				}
			},
			"mintFor(address,uint256,uint256)": {
				"details": "Only a project's current controller can mint its tokens.",
				"params": {
					"count": "The number of tokens to mint.",
					"holder": "The address receiving the new tokens.",
					"projectId": "The ID of the project to which the tokens belong."
				}
			},
			"setTokenFor(uint256,address)": {
				"details": "Only a project's controller can set its token.",
				"params": {
					"projectId": "The ID of the project to set the token of.",
					"token": "The new token's address."
				}
			},
			"totalBalanceOf(address,uint256)": {
				"params": {
					"holder": "The holder to get a balance for.",
					"projectId": "The project to get the `_holder`s balance for."
				},
				"returns": {
					"balance": "The combined token and token credit balance of the `_holder"
				}
			},
			"totalSupplyOf(uint256)": {
				"params": {
					"projectId": "The ID of the project to get the total supply of."
				},
				"returns": {
					"totalSupply": "The total supply of the project's tokens and token credits."
				}
			},
			"transferCreditsFrom(address,uint256,address,uint256)": {
				"details": "Only a project's controller can transfer credits for that project.",
				"params": {
					"count": "The number of token credits to transfer.",
					"holder": "The address to transfer credits from.",
					"projectId": "The ID of the project whose credits are being transferred.",
					"recipient": "The recipient of the credits."
				}
			}
		},
		"version": 1
	},
	"userdoc": {
		"kind": "user",
		"methods": {
			"DIRECTORY()": {
				"notice": "The directory of terminals and controllers for projects."
			},
			"TOKEN()": {
				"notice": "A reference to the token implementation that'll be cloned as projects deploy their own tokens."
			},
			"burnFrom(address,uint256,uint256)": {
				"notice": "Burns (destroys) credits or tokens."
			},
			"claimTokensFor(address,uint256,uint256,address)": {
				"notice": "Redeem credits to claim tokens into a holder's wallet."
			},
			"creditBalanceOf(address,uint256)": {
				"notice": "Each holder's credit balance for each project."
			},
			"deployERC20For(uint256,string,string,bytes32)": {
				"notice": "Deploys an ERC-20 token for a project. It will be used when claiming tokens."
			},
			"mintFor(address,uint256,uint256)": {
				"notice": "Mint (create) new tokens or credits."
			},
			"projectIdOf(address)": {
				"notice": "Each token's project."
			},
			"setTokenFor(uint256,address)": {
				"notice": "Set a project's token if not already set."
			},
			"tokenOf(uint256)": {
				"notice": "Each project's attached token contract."
			},
			"totalBalanceOf(address,uint256)": {
				"notice": "The total balance a holder has for a specified project, including both tokens and token credits."
			},
			"totalCreditSupplyOf(uint256)": {
				"notice": "The total supply of credits for each project."
			},
			"totalSupplyOf(uint256)": {
				"notice": "The total supply for a specific project, including both tokens and token credits."
			},
			"transferCreditsFrom(address,uint256,address,uint256)": {
				"notice": "Allows a holder to transfer credits to another account."
			}
		},
		"version": 1
	},
	"gitCommit": "621b4728594b015d227adf08d7af07a2ea0ba570",
	"sourceName": "src/JBTokens.sol",
	"chainId": "84532",
	"linkReferences": {},
	"deployedLinkReferences": {},
	"history": []
}