{
	"_format": "sphinx-sol-ct-artifact-1",
	"merkleRoot": "0x265b3d1ef515576b4fdf2e637b162bb74ec3d8fee355fdf50deb61d527ff499d",
	"address": "0xd58e569bbd25991fe222b91e500786558bbe10c8",
	"sourceName": "lib/sphinx/packages/contracts/contracts/foundry/SphinxConstants.sol",
	"contractName": "SphinxConstants",
	"chainId": "0x14a34",
	"abi": [
		{
			"inputs": [],
			"name": "compatibilityFallbackHandlerAddress",
			"outputs": [
				{
					"internalType": "address",
					"name": "",
					"type": "address"
				}
			],
			"stateMutability": "view",
			"type": "function"
		},
		{
			"inputs": [],
			"name": "createCallAddress",
			"outputs": [
				{
					"internalType": "address",
					"name": "",
					"type": "address"
				}
			],
			"stateMutability": "view",
			"type": "function"
		},
		{
			"inputs": [],
			"name": "getNetworkInfoArray",
			"outputs": [
				{
					"components": [
						{
							"internalType": "enum Network",
							"name": "network",
							"type": "uint8"
						},
						{
							"internalType": "string",
							"name": "name",
							"type": "string"
						},
						{
							"internalType": "uint256",
							"name": "chainId",
							"type": "uint256"
						},
						{
							"internalType": "enum NetworkType",
							"name": "networkType",
							"type": "uint8"
						},
						{
							"internalType": "uint256",
							"name": "dripSize",
							"type": "uint256"
						},
						{
							"internalType": "string",
							"name": "dripSizeString",
							"type": "string"
						}
					],
					"internalType": "struct NetworkInfo[]",
					"name": "",
					"type": "tuple[]"
				}
			],
			"stateMutability": "pure",
			"type": "function"
		},
		{
			"inputs": [],
			"name": "multiSendAddress",
			"outputs": [
				{
					"internalType": "address",
					"name": "",
					"type": "address"
				}
			],
			"stateMutability": "view",
			"type": "function"
		},
		{
			"inputs": [],
			"name": "permissionlessRelayAddress",
			"outputs": [
				{
					"internalType": "address",
					"name": "",
					"type": "address"
				}
			],
			"stateMutability": "view",
			"type": "function"
		},
		{
			"inputs": [],
			"name": "safeFactoryAddress",
			"outputs": [
				{
					"internalType": "address",
					"name": "",
					"type": "address"
				}
			],
			"stateMutability": "view",
			"type": "function"
		},
		{
			"inputs": [],
			"name": "safeSingletonAddress",
			"outputs": [
				{
					"internalType": "address",
					"name": "",
					"type": "address"
				}
			],
			"stateMutability": "view",
			"type": "function"
		},
		{
			"inputs": [],
			"name": "sphinxLibraryVersion",
			"outputs": [
				{
					"internalType": "string",
					"name": "",
					"type": "string"
				}
			],
			"stateMutability": "view",
			"type": "function"
		},
		{
			"inputs": [],
			"name": "sphinxModuleImplAddress",
			"outputs": [
				{
					"internalType": "address",
					"name": "",
					"type": "address"
				}
			],
			"stateMutability": "view",
			"type": "function"
		},
		{
			"inputs": [],
			"name": "sphinxModuleProxyFactoryAddress",
			"outputs": [
				{
					"internalType": "address",
					"name": "",
					"type": "address"
				}
			],
			"stateMutability": "view",
			"type": "function"
		}
	],
	"args": [],
	"solcInputHash": "d00414ca8c552a4c90a379a4bd430f8f",
	"bytecode": "0x608060405234801561001057600080fd5b5061234f806100206000396000f3fe608060405234801561001057600080fd5b506004361061009e5760003560e01c806387047e491161006657806387047e491461014157806394830f8d1461015c57806397d0ce3b14610177578063ac33251714610192578063f35d092c146101c557600080fd5b80631b4c5550146100a357806340524aed146100db57806341384bd9146100f65780635643a8691461011157806380d5794c1461012c575b600080fd5b6100be738f3301c9eada5642b5bb12fd047d3ebb2932e61981565b6040516001600160a01b0390911681526020015b60405180910390f35b6100be738f4e4d51b8050b0ff713eff1f88f3dd8b5e8a53081565b6100be73a6b71e26c5e0845f74c812102ca7114b6a896ab281565b6100be73a238cbeb142c10ef7ad8442c6d1f9e89e07e776181565b6101346101e0565b6040516100d29190612216565b6100be73a2ea7657440875bf916cbfc0cfa88f13e38ad46381565b6100be73d9db270c1b5e3bd161e8c8503c55ceabee70955281565b6100be737cbb62eaa69f79e6873cd1ecb2392971036cfaa481565b6101b860405180604001604052806007815260200166076302e32332e360cc1b81525081565b6040516100d291906122e9565b6100be73f48f2b2d2a534e402487b3ee7c18c33aec0fe5e481565b6040805160358082526106c0820190925260609160009190816020015b610205612172565b8152602001906001900390816101fd579050506040805160c0810190915290915080600081526040805180820182526005815264185b9d9a5b60da1b602082810191909152830152617a699082015260600160028152602001670de0b6b3a7640000815260200160405180604001604052806005815260200164062408aa8960db1b815250815250816000815181106102a0576102a0612303565b60209081029190910101526040805160c0810190915280600181526040805180820182526008815267657468657265756d60c01b60208281019190915283015260019082015260600160008152602001670214e8348c4f00008152602001604051806040016040528060088152602001670605c626a408aa8960c31b8152508152508160018151811061033557610335612303565b60209081029190910101526040805160c08101909152806002815260408051808201825260078152667365706f6c696160c81b60208281019190915283015262aa36a79082015260600160018152602001670de0b6b3a7640000815260200160405180604001604052806005815260200164062408aa8960db1b815250815250816002815181106103c8576103c8612303565b60209081029190910101526040805160c08101909152806003815260408051808201825260088152676f7074696d69736d60c01b602082810191909152830152600a90820152606001600081526020016658d15e176280008152602001604051806040016040528060098152602001680605c60646a408aa8960bb1b8152508152508160038151811061045d5761045d612303565b60209081029190910101526040805160c081019091528060048152604080518082018252601081526f6f7074696d69736d5f7365706f6c696160801b60208281019190915283015262aa37dc9082015260600160018152602001670214e8348c4f00008152602001604051806040016040528060088152602001670605c626a408aa8960c31b815250815250816004815181106104fc576104fc612303565b60209081029190910101526040805160c0810190915280600581526040805180820182526008815267617262697472756d60c01b60208281019190915283015261a4b190820152606001600081526020016658d15e176280008152602001604051806040016040528060098152602001680605c60646a408aa8960bb1b8152508152508160058151811061059257610592612303565b60209081029190910101526040805160c081019091528060068152604080518082018252601081526f617262697472756d5f7365706f6c696160801b60208281019190915283015262066eee9082015260600160018152602001670214e8348c4f00008152602001604051806040016040528060088152602001670605c626a408aa8960c31b8152508152508160068151811061063157610631612303565b60209081029190910101526040805160c08101909152806007815260408051808201825260078152663837b63cb3b7b760c91b60208281019190915283015260899082015260600160008152602001670de0b6b3a764000081526020016040518060400160405280600781526020016631204d4154494360c81b815250815250816007815181106106c4576106c4612303565b60209081029190910101526040805160c081019091528060088152604080518082018252600c81526b706f6c79676f6e5f616d6f7960a01b602082810191909152830152620138829082015260600160018152602001670de0b6b3a764000081526020016040518060400160405280600781526020016631204d4154494360c81b8152508152508160088151811061075e5761075e612303565b60209081029190910101526040805160c081019091528060098152604080518082018252600381526231373160e91b6020828101919091528301526038908201526060016000815260200166b1a2bc2ec500008152602001604051806040016040528060088152602001671817181a9021272160c11b815250815250816009815181106107ed576107ed612303565b60209081029190910101526040805160c0810190915280600a8152604080518082018252600b81526a189b9897dd195cdd1b995d60aa1b60208281019190915283015260619082015260600160018152602001670214e8348c4f00008152602001604051806040016040528060088152602001671817189a9021272160c11b81525081525081600a8151811061088557610885612303565b60209081029190910101526040805160c0810190915280600b81526040805180820182526006815265676e6f73697360d01b60208281019190915283015260649082015260600160008152602001670de0b6b3a764000081526020016040518060400160405280600681526020016531207844414960d01b81525081525081600b8151811061091657610916612303565b60209081029190910101526040805160c0810190915280600c8152604080518082018252600d81526c676e6f7369735f63686961646f60981b6020828101919091528301526127d89082015260600160018152602001670214e8348c4f0000815260200160405180604001604052806009815260200168302e3135207844414960b81b81525081525081600c815181106109b2576109b2612303565b60209081029190910101526040805160c0810190915280600d815260408051808201825260058152646c696e656160d81b60208281019190915283015261e70890820152606001600081526020016658d15e176280008152602001604051806040016040528060098152602001680605c60646a408aa8960bb1b81525081525081600d81518110610a4557610a45612303565b60209081029190910101526040805160c0810190915280600e8152604080518082018252600d81526c6c696e65615f7365706f6c696160981b60208281019190915283015261e7059082015260600160018152602001670214e8348c4f00008152602001604051806040016040528060088152602001670605c626a408aa8960c31b81525081525081600e81518110610ae057610ae0612303565b60209081029190910101526040805160c0810190915280600f8152604080518082018252600d81526c706f6c79676f6e5f7a6b65766d60981b60208281019190915283015261044d90820152606001600081526020016658d15e176280008152602001604051806040016040528060098152602001680605c60646a408aa8960bb1b81525081525081600f81518110610b7b57610b7b612303565b60209081029190910101526040805160c0810190915280601081526040805180820182526015815274706f6c79676f6e5f7a6b65766d5f636172646f6e6160581b60208281019190915283015261098a9082015260600160018152602001670214e8348c4f00008152602001604051806040016040528060088152602001670605c626a408aa8960c31b81525081525081601081518110610c1e57610c1e612303565b60209081029190910101526040805160c08101909152806011815260408051808201825260098152686176616c616e63686560b81b60208281019190915283015261a86a9082015260600160008152602001670de0b6b3a76400008152602001604051806040016040528060068152602001650624082ac82b60d31b81525081525081601181518110610cb357610cb3612303565b60209081029190910101526040805160c081019091528060128152604080518082018252600e81526d6176616c616e6368655f66756a6960901b60208281019190915283015261a8699082015260600160018152602001670de0b6b3a76400008152602001604051806040016040528060068152602001650624082ac82b60d31b81525081525081601281518110610d4d57610d4d612303565b60209081029190910101526040805160c081019091528060138152604080518082018252600681526566616e746f6d60d01b60208281019190915283015260fa9082015260600160008152602001670de0b6b3a7640000815260200160405180604001604052806005815260200164312046544d60d81b81525081525081601381518110610ddd57610ddd612303565b60209081029190910101526040805160c081019091528060148152604080518082018252600e81526d19985b9d1bdb57dd195cdd1b995d60921b602082810191909152830152610fa29082015260600160018152602001670de0b6b3a7640000815260200160405180604001604052806005815260200164312046544d60d81b81525081525081601481518110610e7657610e76612303565b60209081029190910101526040805160c08101909152806015815260408051808201825260048152636261736560e01b60208281019190915283015261210590820152606001600081526020016658d15e176280008152602001604051806040016040528060098152602001680605c60646a408aa8960bb1b81525081525081601581518110610f0857610f08612303565b60209081029190910101526040805160c081019091528060168152604080518082018252600c81526b626173655f7365706f6c696160a01b60208281019190915283015262014a349082015260600160018152602001670214e8348c4f00008152602001604051806040016040528060088152602001670605c626a408aa8960c31b81525081525081601681518110610fa357610fa3612303565b60209081029190910101526040805160c081019091528060178152604080518082018252600481526363656c6f60e01b60208281019190915283015261a4ec9082015260600160008152602001670de0b6b3a7640000815260200160405180604001604052806006815260200165312043454c4f60d01b8152508152508160178151811061103357611033612303565b60209081029190910101526040805160c081019091528060188152604080518082018252600e81526d63656c6f5f616c66616a6f72657360901b60208281019190915283015261aef39082015260600160018152602001670214e8348c4f0000815260200160405180604001604052806009815260200168302e31352043454c4f60b81b815250815250816018815181106110d0576110d0612303565b60209081029190910101526040805160c081019091528060198152604080518082018252600981526836b7b7b73934bb32b960b91b6020828101919091528301526105059082015260600160008152602001670214e8348c4f00008152602001604051806040016040528060098152602001681817189a9026a7ab2960b91b8152508152508160198151811061116857611168612303565b60209081029190910101526040805160c0810190915280601a815260408051808201825260088152676d6f6f6e6265616d60c01b6020828101919091528301526105049082015260600160008152602001670de0b6b3a7640000815260200160405180604001604052806006815260200165189023a626a960d11b81525081525081601a815181106111fc576111fc612303565b60209081029190910101526040805160c0810190915280601b8152604080518082018252600e81526d6d6f6f6e626173655f616c70686160901b602082810191909152830152610507908201526060016001815260200166b1a2bc2ec500008152602001604051806040016040528060098152602001681817181a9023a626a960b91b81525081525081601b8151811061129857611298612303565b60209081029190910101526040805160c0810190915280601c815260408051808201825260048152636675736560e01b602082810191909152830152607a9082015260600160008152602001670de0b6b3a764000081526020016040518060400160405280600681526020016531204655534560d01b81525081525081601c8151811061132757611327612303565b60209081029190910101526040805160c0810190915280601d8152604080518082018252600581526465766d6f7360d81b6020828101919091528301526123299082015260600160008152602001670de0b6b3a7640000815260200160405180604001604052806007815260200166312045564d4f5360c81b81525081525081601d815181106113b9576113b9612303565b60209081029190910101526040805160c0810190915280601e8152604080518082018252600d81526c195d9b5bdcd7dd195cdd1b995d609a1b602082810191909152830152612328908201526060016001815260200166354a6ba7a1800081526020016040518060400160405280600b81526020016a302e3031352045564d4f5360a81b81525081525081601e8151811061145657611456612303565b60209081029190910101526040805160c0810190915280601f815260408051808201825260048152636b61766160e01b6020828101919091528301526108ae9082015260600160008152602001670de0b6b3a764000081526020016040518060400160405280600681526020016531204b41564160d01b81525081525081601f815181106114e6576114e6612303565b60200260200101819052506040518060c001604052806020603481111561150f5761150f6121ba565b8152604080518082018252600c81526b1ad85d9857dd195cdd1b995d60a21b6020828101919091528301526108ad9082015260600160018152602001670de0b6b3a764000081526020016040518060400160405280600681526020016531204b41564160d01b8152508152508160208151811061158e5761158e612303565b60209081029190910101526040805160c08101909152806021815260408051808201825260068152651cd8dc9bdb1b60d21b6020828101919091528301526208275090820152606001600081526020016658d15e176280008152602001604051806040016040528060098152602001680605c60646a408aa8960bb1b8152508152508160218151811061162357611623612303565b60209081029190910101526040805160c081019091528060228152604080518082018252600e81526d7363726f6c6c5f7365706f6c696160901b6020828101919091528301526208274f9082015260600160018152602001670214e8348c4f00008152602001604051806040016040528060088152602001670605c626a408aa8960c31b815250815250816022815181106116c0576116c0612303565b60209081029190910101526040805160c0810190915280602381526040805180820182526009815268726f6f7473746f636b60b81b602082810191909152830152601e908201526060016000815260200166038d7ea4c6800081526020016040518060400160405280600a815260200169302e303031205242544360b01b8152508152508160238151811061175757611757612303565b60209081029190910101526040805160c08101909152806024815260408051808201825260118152701c9bdbdd1cdd1bd8dad7dd195cdd1b995d607a1b602082810191909152830152601f908201526060016001815260200166038d7ea4c6800081526020016040518060400160405280600a815260200169302e303031205242544360b01b815250815250816024815181106117f6576117f6612303565b60209081029190910101526040805160c08101909152806025815260408051808201825260048152637a6f726160e01b6020828101919091528301526276adf190820152606001600081526020016658d15e176280008152602001604051806040016040528060098152602001680605c60646a408aa8960bb1b8152508152508160258151811061188957611889612303565b60209081029190910101526040805160c081019091528060268152604080518082018252600c81526b7a6f72615f7365706f6c696160a01b602082810191909152830152633b9ac9ff9082015260600160018152602001670214e8348c4f00008152602001604051806040016040528060088152602001670605c626a408aa8960c31b8152508152508160268151811061192557611925612303565b60209081029190910101526040805160c08101909152806027815260408051808201825260048152637261726960e01b602082810191909152830152635241524990820152606001600081526020016658d15e176280008152602001604051806040016040528060098152602001680605c60646a408aa8960bb1b815250815250816027815181106119b9576119b9612303565b60209081029190910101526040805160c081019091528060288152604080518082018252600c81526b726172695f7365706f6c696160a01b60208281019190915283015263726172699082015260600160018152602001670214e8348c4f00008152602001604051806040016040528060088152602001670605c626a408aa8960c31b81525081525081602881518110611a5557611a55612303565b60209081029190910101526040805160c081019091528060298152604080518082018252600d81526c626c6173745f7365706f6c696160981b602082810191909152830152630a0c71fd90820152606001600181526020016658d15e176280008152602001604051806040016040528060098152602001680605c60646a408aa8960bb1b81525081525081602981518110611af257611af2612303565b60209081029190910101526040805160c0810190915280602a81526040805180820182526005815264189b185cdd60da1b60208281019190915283015262013e3190820152606001600081526020016658d15e176280008152602001604051806040016040528060098152602001680605c60646a408aa8960bb1b81525081525081602a81518110611b8657611b86612303565b60209081029190910101526040805160c0810190915280602b8152604080518082018252600b81526a7461696b6f5f6b61746c6160a81b60208281019190915283015262028c609082015260600160018152602001670214e8348c4f00008152602001604051806040016040528060088152602001670605c626a408aa8960c31b81525081525081602b81518110611c2057611c20612303565b60209081029190910101526040805160c0810190915280602c8152604080518082018252600c81526b6d6f64655f7365706f6c696160a01b6020828101919091528301526103979082015260600160018152602001670214e8348c4f00008152602001604051806040016040528060088152602001670605c626a408aa8960c31b81525081525081602c81518110611cba57611cba612303565b60209081029190910101526040805160c0810190915280602d815260408051808201825260048152636d6f646560e01b60208281019190915283015261868b90820152606001600081526020016658d15e176280008152602001604051806040016040528060098152602001680605c60646a408aa8960bb1b81525081525081602d81518110611d4c57611d4c612303565b60209081029190910101526040805160c0810190915280602e815260408051808201825260118152703230b93bb4b734b0afb830b733b7b634b760791b602082810191909152830152602b9082015260600160018152602001670de0b6b3a7640000815260200160405180604001604052806006815260200165312052494e4760d01b81525081525081602e81518110611de857611de8612303565b60209081029190910101526040805160c0810190915280602f8152604080518082018252600e81526d6d616e746c655f7365706f6c696160901b60208281019190915283015261138b9082015260600160018152602001674563918244f400008152602001604051806040016040528060058152602001640d4813539560da1b81525081525081602f81518110611e8157611e81612303565b60209081029190910101526040805160c08101909152806030815260408051808201825260068152656d616e746c6560d01b6020828101919091528301526113889082015260600160008152602001674563918244f400008152602001604051806040016040528060058152602001640d4813539560da1b81525081525081603081518110611f1257611f12612303565b60209081029190910101526040805160c081019091528060318152604080518082018252600c81526b61737461725f7a6b796f746f60a01b602082810191909152830152625c23599082015260600160018152602001670214e8348c4f00008152602001604051806040016040528060088152602001670605c626a408aa8960c31b81525081525081603181518110611fad57611fad612303565b60209081029190910101526040805160c081019091528060328152604080518082018252600581526430b9ba30b960d91b602082810191909152830152610ec090820152606001600081526020016658d15e176280008152602001604051806040016040528060098152602001680605c60646a408aa8960bb1b8152508152508160328151811061204057612040612303565b60209081029190910101526040805160c081019091528060338152604080518082018252600481526331b930b160e11b602082810191909152830152602c9082015260600160008152602001670de0b6b3a7640000815260200160405180604001604052806006815260200165189021a920a160d11b815250815250816033815181106120cf576120cf612303565b60209081029190910101526040805160c081019091528060348152604080518082018252600881526764617277696e696160c01b602082810191909152830152602e9082015260600160008152602001670de0b6b3a7640000815260200160405180604001604052806006815260200165312052494e4760d01b8152508152508160348151811061216257612162612303565b6020908102919091010152919050565b6040805160c0810190915280600081526020016060815260200160008152602001600060028111156121a6576121a66121ba565b815260200160008152602001606081525090565b634e487b7160e01b600052602160045260246000fd5b6000815180845260005b818110156121f6576020818501810151868301820152016121da565b506000602082860101526020601f19601f83011685010191505092915050565b600060208083018184528085518083526040925060408601915060408160051b87010184880160005b838110156122db57603f19898403018552815160c0815160358110612266576122666121ba565b85528189015189860182905261227e828701826121d0565b91505087820151888601526060808301516003811061229f5761229f6121ba565b908601526080828101519086015260a091820151858203928601929092526122c781836121d0565b96890196945050509086019060010161223f565b509098975050505050505050565b6020815260006122fc60208301846121d0565b9392505050565b634e487b7160e01b600052603260045260246000fdfea2646970667358221220c9ba4c0c927b0b4fe8bce90cace7b637e99fd016beec10977082bd9a7ac0246164736f6c63430008170033",
	"deployedBytecode": "0x",
	"gitCommit": "616673e5fb4ad6d4f6f2cf6e2cf377172c79c4ea"
}