{
	"format": "sphinx-sol-ct-artifact-1",
	"merkleRoot": "0x480e5f52168b7c6b39449d58afd7db4f283f8efc1ab64c8c682b924f69fce927",
	"address": "0xe712d14b04f1a1fe464be930e3ea72b9b0a141d7",
	"sourceName": "src/JBPrices.sol",
	"contractName": "JBPrices",
	"chainId": "0x1",
	"abi": [
		{
			"inputs": [
				{
					"internalType": "contract IJBDirectory",
					"name": "directory",
					"type": "address"
				},
				{
					"internalType": "contract IJBPermissions",
					"name": "permissions",
					"type": "address"
				},
				{
					"internalType": "contract IJBProjects",
					"name": "projects",
					"type": "address"
				},
				{
					"internalType": "address",
					"name": "owner",
					"type": "address"
				}
			],
			"stateMutability": "nonpayable",
			"type": "constructor"
		},
		{
			"inputs": [],
			"name": "DEFAULT_PROJECT_ID",
			"outputs": [
				{
					"internalType": "uint256",
					"name": "",
					"type": "uint256"
				}
			],
			"stateMutability": "view",
			"type": "function"
		},
		{
			"inputs": [],
			"name": "DIRECTORY",
			"outputs": [
				{
					"internalType": "contract IJBDirectory",
					"name": "",
					"type": "address"
				}
			],
			"stateMutability": "view",
			"type": "function"
		},
		{
			"inputs": [],
			"name": "PERMISSIONS",
			"outputs": [
				{
					"internalType": "contract IJBPermissions",
					"name": "",
					"type": "address"
				}
			],
			"stateMutability": "view",
			"type": "function"
		},
		{
			"inputs": [],
			"name": "PROJECTS",
			"outputs": [
				{
					"internalType": "contract IJBProjects",
					"name": "",
					"type": "address"
				}
			],
			"stateMutability": "view",
			"type": "function"
		},
		{
			"inputs": [
				{
					"internalType": "uint256",
					"name": "projectId",
					"type": "uint256"
				},
				{
					"internalType": "uint256",
					"name": "pricingCurrency",
					"type": "uint256"
				},
				{
					"internalType": "uint256",
					"name": "unitCurrency",
					"type": "uint256"
				},
				{
					"internalType": "contract IJBPriceFeed",
					"name": "feed",
					"type": "address"
				}
			],
			"name": "addPriceFeedFor",
			"outputs": [],
			"stateMutability": "nonpayable",
			"type": "function"
		},
		{
			"inputs": [],
			"name": "owner",
			"outputs": [
				{
					"internalType": "address",
					"name": "",
					"type": "address"
				}
			],
			"stateMutability": "view",
			"type": "function"
		},
		{
			"inputs": [
				{
					"internalType": "uint256",
					"name": "projectId",
					"type": "uint256"
				},
				{
					"internalType": "uint256",
					"name": "pricingCurrency",
					"type": "uint256"
				},
				{
					"internalType": "uint256",
					"name": "unitCurrency",
					"type": "uint256"
				}
			],
			"name": "priceFeedFor",
			"outputs": [
				{
					"internalType": "contract IJBPriceFeed",
					"name": "",
					"type": "address"
				}
			],
			"stateMutability": "view",
			"type": "function"
		},
		{
			"inputs": [
				{
					"internalType": "uint256",
					"name": "projectId",
					"type": "uint256"
				},
				{
					"internalType": "uint256",
					"name": "pricingCurrency",
					"type": "uint256"
				},
				{
					"internalType": "uint256",
					"name": "unitCurrency",
					"type": "uint256"
				},
				{
					"internalType": "uint256",
					"name": "decimals",
					"type": "uint256"
				}
			],
			"name": "pricePerUnitOf",
			"outputs": [
				{
					"internalType": "uint256",
					"name": "",
					"type": "uint256"
				}
			],
			"stateMutability": "view",
			"type": "function"
		},
		{
			"inputs": [],
			"name": "renounceOwnership",
			"outputs": [],
			"stateMutability": "nonpayable",
			"type": "function"
		},
		{
			"inputs": [
				{
					"internalType": "address",
					"name": "newOwner",
					"type": "address"
				}
			],
			"name": "transferOwnership",
			"outputs": [],
			"stateMutability": "nonpayable",
			"type": "function"
		},
		{
			"anonymous": false,
			"inputs": [
				{
					"indexed": true,
					"internalType": "uint256",
					"name": "projectId",
					"type": "uint256"
				},
				{
					"indexed": true,
					"internalType": "uint256",
					"name": "pricingCurrency",
					"type": "uint256"
				},
				{
					"indexed": true,
					"internalType": "uint256",
					"name": "unitCurrency",
					"type": "uint256"
				},
				{
					"indexed": false,
					"internalType": "contract IJBPriceFeed",
					"name": "feed",
					"type": "address"
				},
				{
					"indexed": false,
					"internalType": "address",
					"name": "caller",
					"type": "address"
				}
			],
			"name": "AddPriceFeed",
			"type": "event"
		},
		{
			"anonymous": false,
			"inputs": [
				{
					"indexed": true,
					"internalType": "address",
					"name": "previousOwner",
					"type": "address"
				},
				{
					"indexed": true,
					"internalType": "address",
					"name": "newOwner",
					"type": "address"
				}
			],
			"name": "OwnershipTransferred",
			"type": "event"
		},
		{
			"inputs": [
				{
					"internalType": "address",
					"name": "controller",
					"type": "address"
				}
			],
			"name": "JBControlled_ControllerUnauthorized",
			"type": "error"
		},
		{
			"inputs": [
				{
					"internalType": "address",
					"name": "account",
					"type": "address"
				},
				{
					"internalType": "address",
					"name": "sender",
					"type": "address"
				},
				{
					"internalType": "uint256",
					"name": "projectId",
					"type": "uint256"
				},
				{
					"internalType": "uint256",
					"name": "permissionId",
					"type": "uint256"
				}
			],
			"name": "JBPermissioned_Unauthorized",
			"type": "error"
		},
		{
			"inputs": [
				{
					"internalType": "contract IJBPriceFeed",
					"name": "feed",
					"type": "address"
				}
			],
			"name": "JBPrices_PriceFeedAlreadyExists",
			"type": "error"
		},
		{
			"inputs": [],
			"name": "JBPrices_PriceFeedNotFound",
			"type": "error"
		},
		{
			"inputs": [],
			"name": "JBPrices_ZeroPricingCurrency",
			"type": "error"
		},
		{
			"inputs": [],
			"name": "JBPrices_ZeroUnitCurrency",
			"type": "error"
		},
		{
			"inputs": [
				{
					"internalType": "address",
					"name": "owner",
					"type": "address"
				}
			],
			"name": "OwnableInvalidOwner",
			"type": "error"
		},
		{
			"inputs": [
				{
					"internalType": "address",
					"name": "account",
					"type": "address"
				}
			],
			"name": "OwnableUnauthorizedAccount",
			"type": "error"
		},
		{
			"inputs": [
				{
					"internalType": "uint256",
					"name": "x",
					"type": "uint256"
				},
				{
					"internalType": "uint256",
					"name": "y",
					"type": "uint256"
				},
				{
					"internalType": "uint256",
					"name": "denominator",
					"type": "uint256"
				}
			],
			"name": "PRBMath_MulDiv_Overflow",
			"type": "error"
		}
	],
	"args": [],
	"solcInputHash": "7c749753dd2355477991557166b5f6de",
	"bytecode": "0x60e060405234801561001057600080fd5b50604051610d9c380380610d9c83398101604081905261002f916100f2565b6001600160a01b0380851660805280841660a0528190811661006b57604051631e4fbdf760e01b81526000600482015260240160405180910390fd5b6100748161008a565b50506001600160a01b031660c052506101519050565b600080546001600160a01b038381166001600160a01b0319831681178455604051919092169283917f8be0079c531659141344cd1fd0a4f28419497f9722a3daafe3b4186f6b6457e09190a35050565b6001600160a01b03811681146100ef57600080fd5b50565b6000806000806080858703121561010857600080fd5b8451610113816100da565b6020860151909450610124816100da565b6040860151909350610135816100da565b6060860151909250610146816100da565b939692955090935050565b60805160a05160c051610c0f61018d600039600060a8015260006101b701526000818161011f0152818161086d01526108fc0152610c0f6000f3fe608060405234801561001057600080fd5b506004361061009e5760003560e01c80638da5cb5b116100665780638da5cb5b14610141578063c6081d7114610152578063d42ebdb614610165578063f2fde38b1461019f578063f434c914146101b257600080fd5b8063293c4999146100a35780632c1ae882146100e75780633be273fa146100fd578063715018a61461011057806388bc2ef31461011a575b600080fd5b6100ca7f000000000000000000000000000000000000000000000000000000000000000081565b6040516001600160a01b0390911681526020015b60405180910390f35b6100ef600081565b6040519081526020016100de565b6100ef61010b366004610994565b6101d9565b610118610383565b005b6100ca7f000000000000000000000000000000000000000000000000000000000000000081565b6000546001600160a01b03166100ca565b6101186101603660046109db565b610397565b6100ca610173366004610a1c565b60016020908152600093845260408085208252928452828420905282529020546001600160a01b031681565b6101186101ad366004610a48565b6106b8565b6100ca7f000000000000000000000000000000000000000000000000000000000000000081565b60008284036101f4576101ed82600a610b61565b905061037b565b600085815260016020908152604080832087845282528083208684529091529020546001600160a01b031680156102965760405163d3f5c15f60e01b8152600481018490526001600160a01b0382169063d3f5c15f90602401602060405180830381865afa15801561026a573d6000803e3d6000fd5b505050506040513d601f19601f8201168201806040525081019061028e9190610b6d565b91505061037b565b50600085815260016020908152604080832086845282528083208784529091529020546001600160a01b0316801561034f5761028e6102d684600a610b61565b6102e185600a610b61565b60405163d3f5c15f60e01b8152600481018790526001600160a01b0385169063d3f5c15f90602401602060405180830381865afa158015610326573d6000803e3d6000fd5b505050506040513d601f19601f8201168201806040525081019061034a9190610b6d565b6106f6565b85156103625761028e60008686866101d9565b604051631c27981760e21b815260040160405180910390fd5b949350505050565b61038b6107d0565b61039560006107fd565b565b83156103ab576103a68461084d565b6103b3565b6103b36107d0565b826000036103d45760405163ab0f4ad560e01b815260040160405180910390fd5b816000036103f55760405163bb57eae960e01b815260040160405180910390fd5b6000838152600080516020610bba833981519152602090815260408083208584529091529020546001600160a01b031615158061046057506000828152600080516020610bba833981519152602090815260408083208684529091529020546001600160a01b031615155b15610529576000838152600080516020610bba833981519152602090815260408083208584529091529020546001600160a01b03166104ce576000828152600080516020610bba833981519152602090815260408083208684529091529020546001600160a01b03166104ff565b6000838152600080516020610bba833981519152602090815260408083208584529091529020546001600160a01b03165b60405163321bb01960e01b81526001600160a01b0390911660048201526024015b60405180910390fd5b600084815260016020908152604080832086845282528083208584529091529020546001600160a01b031615158061058a5750600084815260016020908152604080832085845282528083208684529091529020546001600160a01b031615155b1561063657600084815260016020908152604080832086845282528083208584529091529020546001600160a01b03166105ee57600084815260016020908152604080832085845282528083208684529091529020546001600160a01b03166104ff565b600084815260016020908152604080832086845282528083208584529091529081902054905163321bb01960e01b81526001600160a01b039091166004820152602401610520565b6000848152600160209081526040808320868452825280832085845282529182902080546001600160a01b0319166001600160a01b038516908117909155825190815233918101919091528391859187917f2a0d2e061403a7d0a76276b49e8d91d3f88325b6dd635422595282672dd1bd19910160405180910390a450505050565b6106c06107d0565b6001600160a01b0381166106ea57604051631e4fbdf760e01b815260006004820152602401610520565b6106f3816107fd565b50565b60008080600019858709858702925082811083820303915050806000036107305783828161072657610726610b86565b04925050506107c9565b83811061076157604051630c740aef60e31b8152600481018790526024810186905260448101859052606401610520565b600084868809851960019081018716968790049682860381900495909211909303600082900391909104909201919091029190911760038402600290811880860282030280860282030280860282030280860282030280860282030280860290910302029150505b9392505050565b6000546001600160a01b031633146103955760405163118cdaa760e01b8152336004820152602401610520565b600080546001600160a01b038381166001600160a01b0319831681178455604051919092169283917f8be0079c531659141344cd1fd0a4f28419497f9722a3daafe3b4186f6b6457e09190a35050565b604051632eec7b5560e11b81526004810182905233906001600160a01b037f00000000000000000000000000000000000000000000000000000000000000001690635dd8f6aa90602401602060405180830381865afa1580156108b4573d6000803e3d6000fd5b505050506040513d601f19601f820116820180604052508101906108d89190610b9c565b6001600160a01b0316146106f357604051632eec7b5560e11b8152600481018290527f00000000000000000000000000000000000000000000000000000000000000006001600160a01b031690635dd8f6aa90602401602060405180830381865afa15801561094b573d6000803e3d6000fd5b505050506040513d601f19601f8201168201806040525081019061096f9190610b9c565b604051639a007b3960e01b81526001600160a01b039091166004820152602401610520565b600080600080608085870312156109aa57600080fd5b5050823594602084013594506040840135936060013592509050565b6001600160a01b03811681146106f357600080fd5b600080600080608085870312156109f157600080fd5b8435935060208501359250604085013591506060850135610a11816109c6565b939692955090935050565b600080600060608486031215610a3157600080fd5b505081359360208301359350604090920135919050565b600060208284031215610a5a57600080fd5b81356107c9816109c6565b634e487b7160e01b600052601160045260246000fd5b600181815b80851115610ab6578160001904821115610a9c57610a9c610a65565b80851615610aa957918102915b93841c9390800290610a80565b509250929050565b600082610acd57506001610b5b565b81610ada57506000610b5b565b8160018114610af05760028114610afa57610b16565b6001915050610b5b565b60ff841115610b0b57610b0b610a65565b50506001821b610b5b565b5060208310610133831016604e8410600b8410161715610b39575081810a610b5b565b610b438383610a7b565b8060001904821115610b5757610b57610a65565b0290505b92915050565b60006107c98383610abe565b600060208284031215610b7f57600080fd5b5051919050565b634e487b7160e01b600052601260045260246000fd5b600060208284031215610bae57600080fd5b81516107c9816109c656fea6eef7e35abe7026729641147f7915573c7e97b47efa546f5f6e3230263bcb49a2646970667358221220116312e4c071f2165bb7b8a4be75315b06b8e943db53b4ce7923bdb72488987864736f6c63430008170033",
	"deployedBytecode": "0x608060405234801561001057600080fd5b506004361061009e5760003560e01c80638da5cb5b116100665780638da5cb5b14610141578063c6081d7114610152578063d42ebdb614610165578063f2fde38b1461019f578063f434c914146101b257600080fd5b8063293c4999146100a35780632c1ae882146100e75780633be273fa146100fd578063715018a61461011057806388bc2ef31461011a575b600080fd5b6100ca7f0000000000000000000000000b538a02610d7d3cc91ce2870f423e0a34d646ad81565b6040516001600160a01b0390911681526020015b60405180910390f35b6100ef600081565b6040519081526020016100de565b6100ef61010b366004610994565b6101d9565b610118610383565b005b6100ca7f0000000000000000000000000bc9f153dee4d3d474ce0903775b9b2aaae9aa4181565b6000546001600160a01b03166100ca565b6101186101603660046109db565b610397565b6100ca610173366004610a1c565b60016020908152600093845260408085208252928452828420905282529020546001600160a01b031681565b6101186101ad366004610a48565b6106b8565b6100ca7f000000000000000000000000f5ca295dc286a176e35ebb7833031fd95550eb1481565b60008284036101f4576101ed82600a610b61565b905061037b565b600085815260016020908152604080832087845282528083208684529091529020546001600160a01b031680156102965760405163d3f5c15f60e01b8152600481018490526001600160a01b0382169063d3f5c15f90602401602060405180830381865afa15801561026a573d6000803e3d6000fd5b505050506040513d601f19601f8201168201806040525081019061028e9190610b6d565b91505061037b565b50600085815260016020908152604080832086845282528083208784529091529020546001600160a01b0316801561034f5761028e6102d684600a610b61565b6102e185600a610b61565b60405163d3f5c15f60e01b8152600481018790526001600160a01b0385169063d3f5c15f90602401602060405180830381865afa158015610326573d6000803e3d6000fd5b505050506040513d601f19601f8201168201806040525081019061034a9190610b6d565b6106f6565b85156103625761028e60008686866101d9565b604051631c27981760e21b815260040160405180910390fd5b949350505050565b61038b6107d0565b61039560006107fd565b565b83156103ab576103a68461084d565b6103b3565b6103b36107d0565b826000036103d45760405163ab0f4ad560e01b815260040160405180910390fd5b816000036103f55760405163bb57eae960e01b815260040160405180910390fd5b6000838152600080516020610bba833981519152602090815260408083208584529091529020546001600160a01b031615158061046057506000828152600080516020610bba833981519152602090815260408083208684529091529020546001600160a01b031615155b15610529576000838152600080516020610bba833981519152602090815260408083208584529091529020546001600160a01b03166104ce576000828152600080516020610bba833981519152602090815260408083208684529091529020546001600160a01b03166104ff565b6000838152600080516020610bba833981519152602090815260408083208584529091529020546001600160a01b03165b60405163321bb01960e01b81526001600160a01b0390911660048201526024015b60405180910390fd5b600084815260016020908152604080832086845282528083208584529091529020546001600160a01b031615158061058a5750600084815260016020908152604080832085845282528083208684529091529020546001600160a01b031615155b1561063657600084815260016020908152604080832086845282528083208584529091529020546001600160a01b03166105ee57600084815260016020908152604080832085845282528083208684529091529020546001600160a01b03166104ff565b600084815260016020908152604080832086845282528083208584529091529081902054905163321bb01960e01b81526001600160a01b039091166004820152602401610520565b6000848152600160209081526040808320868452825280832085845282529182902080546001600160a01b0319166001600160a01b038516908117909155825190815233918101919091528391859187917f2a0d2e061403a7d0a76276b49e8d91d3f88325b6dd635422595282672dd1bd19910160405180910390a450505050565b6106c06107d0565b6001600160a01b0381166106ea57604051631e4fbdf760e01b815260006004820152602401610520565b6106f3816107fd565b50565b60008080600019858709858702925082811083820303915050806000036107305783828161072657610726610b86565b04925050506107c9565b83811061076157604051630c740aef60e31b8152600481018790526024810186905260448101859052606401610520565b600084868809851960019081018716968790049682860381900495909211909303600082900391909104909201919091029190911760038402600290811880860282030280860282030280860282030280860282030280860282030280860290910302029150505b9392505050565b6000546001600160a01b031633146103955760405163118cdaa760e01b8152336004820152602401610520565b600080546001600160a01b038381166001600160a01b0319831681178455604051919092169283917f8be0079c531659141344cd1fd0a4f28419497f9722a3daafe3b4186f6b6457e09190a35050565b604051632eec7b5560e11b81526004810182905233906001600160a01b037f0000000000000000000000000bc9f153dee4d3d474ce0903775b9b2aaae9aa411690635dd8f6aa90602401602060405180830381865afa1580156108b4573d6000803e3d6000fd5b505050506040513d601f19601f820116820180604052508101906108d89190610b9c565b6001600160a01b0316146106f357604051632eec7b5560e11b8152600481018290527f0000000000000000000000000bc9f153dee4d3d474ce0903775b9b2aaae9aa416001600160a01b031690635dd8f6aa90602401602060405180830381865afa15801561094b573d6000803e3d6000fd5b505050506040513d601f19601f8201168201806040525081019061096f9190610b9c565b604051639a007b3960e01b81526001600160a01b039091166004820152602401610520565b600080600080608085870312156109aa57600080fd5b5050823594602084013594506040840135936060013592509050565b6001600160a01b03811681146106f357600080fd5b600080600080608085870312156109f157600080fd5b8435935060208501359250604085013591506060850135610a11816109c6565b939692955090935050565b600080600060608486031215610a3157600080fd5b505081359360208301359350604090920135919050565b600060208284031215610a5a57600080fd5b81356107c9816109c6565b634e487b7160e01b600052601160045260246000fd5b600181815b80851115610ab6578160001904821115610a9c57610a9c610a65565b80851615610aa957918102915b93841c9390800290610a80565b509250929050565b600082610acd57506001610b5b565b81610ada57506000610b5b565b8160018114610af05760028114610afa57610b16565b6001915050610b5b565b60ff841115610b0b57610b0b610a65565b50506001821b610b5b565b5060208310610133831016604e8410600b8410161715610b39575081810a610b5b565b610b438383610a7b565b8060001904821115610b5757610b57610a65565b0290505b92915050565b60006107c98383610abe565b600060208284031215610b7f57600080fd5b5051919050565b634e487b7160e01b600052601260045260246000fd5b600060208284031215610bae57600080fd5b81516107c9816109c656fea6eef7e35abe7026729641147f7915573c7e97b47efa546f5f6e3230263bcb49a2646970667358221220116312e4c071f2165bb7b8a4be75315b06b8e943db53b4ce7923bdb72488987864736f6c63430008170033",
	"gitCommit": "1dbb8ce9b68f10239b75e5db7fcd88bb83fcb147"
}