{
	"format": "sphinx-sol-ct-artifact-1",
	"merkleRoot": "0x9c33b83eb0cb964a21995fc8beaa7a037765bc9f9c760acea6071f4765e220ba",
	"address": "0xd1c436eb62e1d23e66842701b09e3d65aa8522e8",
	"sourceName": "src/JBController4_1.sol",
	"contractName": "JBController4_1",
	"chainId": "0x2105",
	"abi": [
		{
			"inputs": [
				{
					"internalType": "contract IJBDirectory",
					"name": "directory",
					"type": "address"
				},
				{
					"internalType": "contract IJBFundAccessLimits",
					"name": "fundAccessLimits",
					"type": "address"
				},
				{
					"internalType": "contract IJBPermissions",
					"name": "permissions",
					"type": "address"
				},
				{
					"internalType": "contract IJBPrices",
					"name": "prices",
					"type": "address"
				},
				{
					"internalType": "contract IJBProjects",
					"name": "projects",
					"type": "address"
				},
				{
					"internalType": "contract IJBRulesets",
					"name": "rulesets",
					"type": "address"
				},
				{
					"internalType": "contract IJBSplits",
					"name": "splits",
					"type": "address"
				},
				{
					"internalType": "contract IJBTokens",
					"name": "tokens",
					"type": "address"
				},
				{
					"internalType": "address",
					"name": "omnichainRulesetOperator",
					"type": "address"
				},
				{
					"internalType": "address",
					"name": "trustedForwarder",
					"type": "address"
				}
			],
			"stateMutability": "nonpayable",
			"type": "constructor"
		},
		{
			"inputs": [],
			"name": "DIRECTORY",
			"outputs": [
				{
					"internalType": "contract IJBDirectory",
					"name": "",
					"type": "address"
				}
			],
			"stateMutability": "view",
			"type": "function"
		},
		{
			"inputs": [],
			"name": "FUND_ACCESS_LIMITS",
			"outputs": [
				{
					"internalType": "contract IJBFundAccessLimits",
					"name": "",
					"type": "address"
				}
			],
			"stateMutability": "view",
			"type": "function"
		},
		{
			"inputs": [],
			"name": "OMNICHAIN_RULESET_OPERATOR",
			"outputs": [
				{
					"internalType": "address",
					"name": "",
					"type": "address"
				}
			],
			"stateMutability": "view",
			"type": "function"
		},
		{
			"inputs": [],
			"name": "PERMISSIONS",
			"outputs": [
				{
					"internalType": "contract IJBPermissions",
					"name": "",
					"type": "address"
				}
			],
			"stateMutability": "view",
			"type": "function"
		},
		{
			"inputs": [],
			"name": "PRICES",
			"outputs": [
				{
					"internalType": "contract IJBPrices",
					"name": "",
					"type": "address"
				}
			],
			"stateMutability": "view",
			"type": "function"
		},
		{
			"inputs": [],
			"name": "PROJECTS",
			"outputs": [
				{
					"internalType": "contract IJBProjects",
					"name": "",
					"type": "address"
				}
			],
			"stateMutability": "view",
			"type": "function"
		},
		{
			"inputs": [],
			"name": "RULESETS",
			"outputs": [
				{
					"internalType": "contract IJBRulesets",
					"name": "",
					"type": "address"
				}
			],
			"stateMutability": "view",
			"type": "function"
		},
		{
			"inputs": [],
			"name": "SPLITS",
			"outputs": [
				{
					"internalType": "contract IJBSplits",
					"name": "",
					"type": "address"
				}
			],
			"stateMutability": "view",
			"type": "function"
		},
		{
			"inputs": [],
			"name": "TOKENS",
			"outputs": [
				{
					"internalType": "contract IJBTokens",
					"name": "",
					"type": "address"
				}
			],
			"stateMutability": "view",
			"type": "function"
		},
		{
			"inputs": [
				{
					"internalType": "uint256",
					"name": "projectId",
					"type": "uint256"
				},
				{
					"internalType": "uint256",
					"name": "pricingCurrency",
					"type": "uint256"
				},
				{
					"internalType": "uint256",
					"name": "unitCurrency",
					"type": "uint256"
				},
				{
					"internalType": "contract IJBPriceFeed",
					"name": "feed",
					"type": "address"
				}
			],
			"name": "addPriceFeed",
			"outputs": [],
			"stateMutability": "nonpayable",
			"type": "function"
		},
		{
			"inputs": [
				{
					"internalType": "uint256",
					"name": "projectId",
					"type": "uint256"
				},
				{
					"internalType": "uint256",
					"name": "startingId",
					"type": "uint256"
				},
				{
					"internalType": "uint256",
					"name": "size",
					"type": "uint256"
				}
			],
			"name": "allRulesetsOf",
			"outputs": [
				{
					"components": [
						{
							"components": [
								{
									"internalType": "uint48",
									"name": "cycleNumber",
									"type": "uint48"
								},
								{
									"internalType": "uint48",
									"name": "id",
									"type": "uint48"
								},
								{
									"internalType": "uint48",
									"name": "basedOnId",
									"type": "uint48"
								},
								{
									"internalType": "uint48",
									"name": "start",
									"type": "uint48"
								},
								{
									"internalType": "uint32",
									"name": "duration",
									"type": "uint32"
								},
								{
									"internalType": "uint112",
									"name": "weight",
									"type": "uint112"
								},
								{
									"internalType": "uint32",
									"name": "weightCutPercent",
									"type": "uint32"
								},
								{
									"internalType": "contract IJBRulesetApprovalHook",
									"name": "approvalHook",
									"type": "address"
								},
								{
									"internalType": "uint256",
									"name": "metadata",
									"type": "uint256"
								}
							],
							"internalType": "struct JBRuleset",
							"name": "ruleset",
							"type": "tuple"
						},
						{
							"components": [
								{
									"internalType": "uint16",
									"name": "reservedPercent",
									"type": "uint16"
								},
								{
									"internalType": "uint16",
									"name": "cashOutTaxRate",
									"type": "uint16"
								},
								{
									"internalType": "uint32",
									"name": "baseCurrency",
									"type": "uint32"
								},
								{
									"internalType": "bool",
									"name": "pausePay",
									"type": "bool"
								},
								{
									"internalType": "bool",
									"name": "pauseCreditTransfers",
									"type": "bool"
								},
								{
									"internalType": "bool",
									"name": "allowOwnerMinting",
									"type": "bool"
								},
								{
									"internalType": "bool",
									"name": "allowSetCustomToken",
									"type": "bool"
								},
								{
									"internalType": "bool",
									"name": "allowTerminalMigration",
									"type": "bool"
								},
								{
									"internalType": "bool",
									"name": "allowSetTerminals",
									"type": "bool"
								},
								{
									"internalType": "bool",
									"name": "allowSetController",
									"type": "bool"
								},
								{
									"internalType": "bool",
									"name": "allowAddAccountingContext",
									"type": "bool"
								},
								{
									"internalType": "bool",
									"name": "allowAddPriceFeed",
									"type": "bool"
								},
								{
									"internalType": "bool",
									"name": "ownerMustSendPayouts",
									"type": "bool"
								},
								{
									"internalType": "bool",
									"name": "holdFees",
									"type": "bool"
								},
								{
									"internalType": "bool",
									"name": "useTotalSurplusForCashOuts",
									"type": "bool"
								},
								{
									"internalType": "bool",
									"name": "useDataHookForPay",
									"type": "bool"
								},
								{
									"internalType": "bool",
									"name": "useDataHookForCashOut",
									"type": "bool"
								},
								{
									"internalType": "address",
									"name": "dataHook",
									"type": "address"
								},
								{
									"internalType": "uint16",
									"name": "metadata",
									"type": "uint16"
								}
							],
							"internalType": "struct JBRulesetMetadata",
							"name": "metadata",
							"type": "tuple"
						}
					],
					"internalType": "struct JBRulesetWithMetadata[]",
					"name": "rulesets",
					"type": "tuple[]"
				}
			],
			"stateMutability": "view",
			"type": "function"
		},
		{
			"inputs": [
				{
					"internalType": "contract IERC165",
					"name": "from",
					"type": "address"
				},
				{
					"internalType": "uint256",
					"name": "projectId",
					"type": "uint256"
				}
			],
			"name": "beforeReceiveMigrationFrom",
			"outputs": [],
			"stateMutability": "nonpayable",
			"type": "function"
		},
		{
			"inputs": [
				{
					"internalType": "address",
					"name": "holder",
					"type": "address"
				},
				{
					"internalType": "uint256",
					"name": "projectId",
					"type": "uint256"
				},
				{
					"internalType": "uint256",
					"name": "tokenCount",
					"type": "uint256"
				},
				{
					"internalType": "string",
					"name": "memo",
					"type": "string"
				}
			],
			"name": "burnTokensOf",
			"outputs": [],
			"stateMutability": "nonpayable",
			"type": "function"
		},
		{
			"inputs": [
				{
					"internalType": "address",
					"name": "holder",
					"type": "address"
				},
				{
					"internalType": "uint256",
					"name": "projectId",
					"type": "uint256"
				},
				{
					"internalType": "uint256",
					"name": "tokenCount",
					"type": "uint256"
				},
				{
					"internalType": "address",
					"name": "beneficiary",
					"type": "address"
				}
			],
			"name": "claimTokensFor",
			"outputs": [],
			"stateMutability": "nonpayable",
			"type": "function"
		},
		{
			"inputs": [
				{
					"internalType": "uint256",
					"name": "projectId",
					"type": "uint256"
				}
			],
			"name": "currentRulesetOf",
			"outputs": [
				{
					"components": [
						{
							"internalType": "uint48",
							"name": "cycleNumber",
							"type": "uint48"
						},
						{
							"internalType": "uint48",
							"name": "id",
							"type": "uint48"
						},
						{
							"internalType": "uint48",
							"name": "basedOnId",
							"type": "uint48"
						},
						{
							"internalType": "uint48",
							"name": "start",
							"type": "uint48"
						},
						{
							"internalType": "uint32",
							"name": "duration",
							"type": "uint32"
						},
						{
							"internalType": "uint112",
							"name": "weight",
							"type": "uint112"
						},
						{
							"internalType": "uint32",
							"name": "weightCutPercent",
							"type": "uint32"
						},
						{
							"internalType": "contract IJBRulesetApprovalHook",
							"name": "approvalHook",
							"type": "address"
						},
						{
							"internalType": "uint256",
							"name": "metadata",
							"type": "uint256"
						}
					],
					"internalType": "struct JBRuleset",
					"name": "ruleset",
					"type": "tuple"
				},
				{
					"components": [
						{
							"internalType": "uint16",
							"name": "reservedPercent",
							"type": "uint16"
						},
						{
							"internalType": "uint16",
							"name": "cashOutTaxRate",
							"type": "uint16"
						},
						{
							"internalType": "uint32",
							"name": "baseCurrency",
							"type": "uint32"
						},
						{
							"internalType": "bool",
							"name": "pausePay",
							"type": "bool"
						},
						{
							"internalType": "bool",
							"name": "pauseCreditTransfers",
							"type": "bool"
						},
						{
							"internalType": "bool",
							"name": "allowOwnerMinting",
							"type": "bool"
						},
						{
							"internalType": "bool",
							"name": "allowSetCustomToken",
							"type": "bool"
						},
						{
							"internalType": "bool",
							"name": "allowTerminalMigration",
							"type": "bool"
						},
						{
							"internalType": "bool",
							"name": "allowSetTerminals",
							"type": "bool"
						},
						{
							"internalType": "bool",
							"name": "allowSetController",
							"type": "bool"
						},
						{
							"internalType": "bool",
							"name": "allowAddAccountingContext",
							"type": "bool"
						},
						{
							"internalType": "bool",
							"name": "allowAddPriceFeed",
							"type": "bool"
						},
						{
							"internalType": "bool",
							"name": "ownerMustSendPayouts",
							"type": "bool"
						},
						{
							"internalType": "bool",
							"name": "holdFees",
							"type": "bool"
						},
						{
							"internalType": "bool",
							"name": "useTotalSurplusForCashOuts",
							"type": "bool"
						},
						{
							"internalType": "bool",
							"name": "useDataHookForPay",
							"type": "bool"
						},
						{
							"internalType": "bool",
							"name": "useDataHookForCashOut",
							"type": "bool"
						},
						{
							"internalType": "address",
							"name": "dataHook",
							"type": "address"
						},
						{
							"internalType": "uint16",
							"name": "metadata",
							"type": "uint16"
						}
					],
					"internalType": "struct JBRulesetMetadata",
					"name": "metadata",
					"type": "tuple"
				}
			],
			"stateMutability": "view",
			"type": "function"
		},
		{
			"inputs": [
				{
					"internalType": "uint256",
					"name": "projectId",
					"type": "uint256"
				},
				{
					"internalType": "string",
					"name": "name",
					"type": "string"
				},
				{
					"internalType": "string",
					"name": "symbol",
					"type": "string"
				},
				{
					"internalType": "bytes32",
					"name": "salt",
					"type": "bytes32"
				}
			],
			"name": "deployERC20For",
			"outputs": [
				{
					"internalType": "contract IJBToken",
					"name": "token",
					"type": "address"
				}
			],
			"stateMutability": "nonpayable",
			"type": "function"
		},
		{
			"inputs": [
				{
					"internalType": "contract IJBTerminal",
					"name": "terminal",
					"type": "address"
				},
				{
					"internalType": "uint256",
					"name": "projectId",
					"type": "uint256"
				},
				{
					"internalType": "contract IJBToken",
					"name": "token",
					"type": "address"
				},
				{
					"internalType": "uint256",
					"name": "splitTokenCount",
					"type": "uint256"
				},
				{
					"internalType": "address",
					"name": "beneficiary",
					"type": "address"
				},
				{
					"internalType": "bytes",
					"name": "metadata",
					"type": "bytes"
				}
			],
			"name": "executePayReservedTokenToTerminal",
			"outputs": [],
			"stateMutability": "nonpayable",
			"type": "function"
		},
		{
			"inputs": [
				{
					"internalType": "uint256",
					"name": "projectId",
					"type": "uint256"
				},
				{
					"internalType": "uint256",
					"name": "rulesetId",
					"type": "uint256"
				}
			],
			"name": "getRulesetOf",
			"outputs": [
				{
					"components": [
						{
							"internalType": "uint48",
							"name": "cycleNumber",
							"type": "uint48"
						},
						{
							"internalType": "uint48",
							"name": "id",
							"type": "uint48"
						},
						{
							"internalType": "uint48",
							"name": "basedOnId",
							"type": "uint48"
						},
						{
							"internalType": "uint48",
							"name": "start",
							"type": "uint48"
						},
						{
							"internalType": "uint32",
							"name": "duration",
							"type": "uint32"
						},
						{
							"internalType": "uint112",
							"name": "weight",
							"type": "uint112"
						},
						{
							"internalType": "uint32",
							"name": "weightCutPercent",
							"type": "uint32"
						},
						{
							"internalType": "contract IJBRulesetApprovalHook",
							"name": "approvalHook",
							"type": "address"
						},
						{
							"internalType": "uint256",
							"name": "metadata",
							"type": "uint256"
						}
					],
					"internalType": "struct JBRuleset",
					"name": "ruleset",
					"type": "tuple"
				},
				{
					"components": [
						{
							"internalType": "uint16",
							"name": "reservedPercent",
							"type": "uint16"
						},
						{
							"internalType": "uint16",
							"name": "cashOutTaxRate",
							"type": "uint16"
						},
						{
							"internalType": "uint32",
							"name": "baseCurrency",
							"type": "uint32"
						},
						{
							"internalType": "bool",
							"name": "pausePay",
							"type": "bool"
						},
						{
							"internalType": "bool",
							"name": "pauseCreditTransfers",
							"type": "bool"
						},
						{
							"internalType": "bool",
							"name": "allowOwnerMinting",
							"type": "bool"
						},
						{
							"internalType": "bool",
							"name": "allowSetCustomToken",
							"type": "bool"
						},
						{
							"internalType": "bool",
							"name": "allowTerminalMigration",
							"type": "bool"
						},
						{
							"internalType": "bool",
							"name": "allowSetTerminals",
							"type": "bool"
						},
						{
							"internalType": "bool",
							"name": "allowSetController",
							"type": "bool"
						},
						{
							"internalType": "bool",
							"name": "allowAddAccountingContext",
							"type": "bool"
						},
						{
							"internalType": "bool",
							"name": "allowAddPriceFeed",
							"type": "bool"
						},
						{
							"internalType": "bool",
							"name": "ownerMustSendPayouts",
							"type": "bool"
						},
						{
							"internalType": "bool",
							"name": "holdFees",
							"type": "bool"
						},
						{
							"internalType": "bool",
							"name": "useTotalSurplusForCashOuts",
							"type": "bool"
						},
						{
							"internalType": "bool",
							"name": "useDataHookForPay",
							"type": "bool"
						},
						{
							"internalType": "bool",
							"name": "useDataHookForCashOut",
							"type": "bool"
						},
						{
							"internalType": "address",
							"name": "dataHook",
							"type": "address"
						},
						{
							"internalType": "uint16",
							"name": "metadata",
							"type": "uint16"
						}
					],
					"internalType": "struct JBRulesetMetadata",
					"name": "metadata",
					"type": "tuple"
				}
			],
			"stateMutability": "view",
			"type": "function"
		},
		{
			"inputs": [
				{
					"internalType": "address",
					"name": "forwarder",
					"type": "address"
				}
			],
			"name": "isTrustedForwarder",
			"outputs": [
				{
					"internalType": "bool",
					"name": "",
					"type": "bool"
				}
			],
			"stateMutability": "view",
			"type": "function"
		},
		{
			"inputs": [
				{
					"internalType": "uint256",
					"name": "projectId",
					"type": "uint256"
				}
			],
			"name": "latestQueuedRulesetOf",
			"outputs": [
				{
					"components": [
						{
							"internalType": "uint48",
							"name": "cycleNumber",
							"type": "uint48"
						},
						{
							"internalType": "uint48",
							"name": "id",
							"type": "uint48"
						},
						{
							"internalType": "uint48",
							"name": "basedOnId",
							"type": "uint48"
						},
						{
							"internalType": "uint48",
							"name": "start",
							"type": "uint48"
						},
						{
							"internalType": "uint32",
							"name": "duration",
							"type": "uint32"
						},
						{
							"internalType": "uint112",
							"name": "weight",
							"type": "uint112"
						},
						{
							"internalType": "uint32",
							"name": "weightCutPercent",
							"type": "uint32"
						},
						{
							"internalType": "contract IJBRulesetApprovalHook",
							"name": "approvalHook",
							"type": "address"
						},
						{
							"internalType": "uint256",
							"name": "metadata",
							"type": "uint256"
						}
					],
					"internalType": "struct JBRuleset",
					"name": "ruleset",
					"type": "tuple"
				},
				{
					"components": [
						{
							"internalType": "uint16",
							"name": "reservedPercent",
							"type": "uint16"
						},
						{
							"internalType": "uint16",
							"name": "cashOutTaxRate",
							"type": "uint16"
						},
						{
							"internalType": "uint32",
							"name": "baseCurrency",
							"type": "uint32"
						},
						{
							"internalType": "bool",
							"name": "pausePay",
							"type": "bool"
						},
						{
							"internalType": "bool",
							"name": "pauseCreditTransfers",
							"type": "bool"
						},
						{
							"internalType": "bool",
							"name": "allowOwnerMinting",
							"type": "bool"
						},
						{
							"internalType": "bool",
							"name": "allowSetCustomToken",
							"type": "bool"
						},
						{
							"internalType": "bool",
							"name": "allowTerminalMigration",
							"type": "bool"
						},
						{
							"internalType": "bool",
							"name": "allowSetTerminals",
							"type": "bool"
						},
						{
							"internalType": "bool",
							"name": "allowSetController",
							"type": "bool"
						},
						{
							"internalType": "bool",
							"name": "allowAddAccountingContext",
							"type": "bool"
						},
						{
							"internalType": "bool",
							"name": "allowAddPriceFeed",
							"type": "bool"
						},
						{
							"internalType": "bool",
							"name": "ownerMustSendPayouts",
							"type": "bool"
						},
						{
							"internalType": "bool",
							"name": "holdFees",
							"type": "bool"
						},
						{
							"internalType": "bool",
							"name": "useTotalSurplusForCashOuts",
							"type": "bool"
						},
						{
							"internalType": "bool",
							"name": "useDataHookForPay",
							"type": "bool"
						},
						{
							"internalType": "bool",
							"name": "useDataHookForCashOut",
							"type": "bool"
						},
						{
							"internalType": "address",
							"name": "dataHook",
							"type": "address"
						},
						{
							"internalType": "uint16",
							"name": "metadata",
							"type": "uint16"
						}
					],
					"internalType": "struct JBRulesetMetadata",
					"name": "metadata",
					"type": "tuple"
				},
				{
					"internalType": "enum JBApprovalStatus",
					"name": "approvalStatus",
					"type": "uint8"
				}
			],
			"stateMutability": "view",
			"type": "function"
		},
		{
			"inputs": [
				{
					"internalType": "address",
					"name": "owner",
					"type": "address"
				},
				{
					"internalType": "string",
					"name": "projectUri",
					"type": "string"
				},
				{
					"components": [
						{
							"internalType": "uint48",
							"name": "mustStartAtOrAfter",
							"type": "uint48"
						},
						{
							"internalType": "uint32",
							"name": "duration",
							"type": "uint32"
						},
						{
							"internalType": "uint112",
							"name": "weight",
							"type": "uint112"
						},
						{
							"internalType": "uint32",
							"name": "weightCutPercent",
							"type": "uint32"
						},
						{
							"internalType": "contract IJBRulesetApprovalHook",
							"name": "approvalHook",
							"type": "address"
						},
						{
							"components": [
								{
									"internalType": "uint16",
									"name": "reservedPercent",
									"type": "uint16"
								},
								{
									"internalType": "uint16",
									"name": "cashOutTaxRate",
									"type": "uint16"
								},
								{
									"internalType": "uint32",
									"name": "baseCurrency",
									"type": "uint32"
								},
								{
									"internalType": "bool",
									"name": "pausePay",
									"type": "bool"
								},
								{
									"internalType": "bool",
									"name": "pauseCreditTransfers",
									"type": "bool"
								},
								{
									"internalType": "bool",
									"name": "allowOwnerMinting",
									"type": "bool"
								},
								{
									"internalType": "bool",
									"name": "allowSetCustomToken",
									"type": "bool"
								},
								{
									"internalType": "bool",
									"name": "allowTerminalMigration",
									"type": "bool"
								},
								{
									"internalType": "bool",
									"name": "allowSetTerminals",
									"type": "bool"
								},
								{
									"internalType": "bool",
									"name": "allowSetController",
									"type": "bool"
								},
								{
									"internalType": "bool",
									"name": "allowAddAccountingContext",
									"type": "bool"
								},
								{
									"internalType": "bool",
									"name": "allowAddPriceFeed",
									"type": "bool"
								},
								{
									"internalType": "bool",
									"name": "ownerMustSendPayouts",
									"type": "bool"
								},
								{
									"internalType": "bool",
									"name": "holdFees",
									"type": "bool"
								},
								{
									"internalType": "bool",
									"name": "useTotalSurplusForCashOuts",
									"type": "bool"
								},
								{
									"internalType": "bool",
									"name": "useDataHookForPay",
									"type": "bool"
								},
								{
									"internalType": "bool",
									"name": "useDataHookForCashOut",
									"type": "bool"
								},
								{
									"internalType": "address",
									"name": "dataHook",
									"type": "address"
								},
								{
									"internalType": "uint16",
									"name": "metadata",
									"type": "uint16"
								}
							],
							"internalType": "struct JBRulesetMetadata",
							"name": "metadata",
							"type": "tuple"
						},
						{
							"components": [
								{
									"internalType": "uint256",
									"name": "groupId",
									"type": "uint256"
								},
								{
									"components": [
										{
											"internalType": "uint32",
											"name": "percent",
											"type": "uint32"
										},
										{
											"internalType": "uint64",
											"name": "projectId",
											"type": "uint64"
										},
										{
											"internalType": "address payable",
											"name": "beneficiary",
											"type": "address"
										},
										{
											"internalType": "bool",
											"name": "preferAddToBalance",
											"type": "bool"
										},
										{
											"internalType": "uint48",
											"name": "lockedUntil",
											"type": "uint48"
										},
										{
											"internalType": "contract IJBSplitHook",
											"name": "hook",
											"type": "address"
										}
									],
									"internalType": "struct JBSplit[]",
									"name": "splits",
									"type": "tuple[]"
								}
							],
							"internalType": "struct JBSplitGroup[]",
							"name": "splitGroups",
							"type": "tuple[]"
						},
						{
							"components": [
								{
									"internalType": "address",
									"name": "terminal",
									"type": "address"
								},
								{
									"internalType": "address",
									"name": "token",
									"type": "address"
								},
								{
									"components": [
										{
											"internalType": "uint224",
											"name": "amount",
											"type": "uint224"
										},
										{
											"internalType": "uint32",
											"name": "currency",
											"type": "uint32"
										}
									],
									"internalType": "struct JBCurrencyAmount[]",
									"name": "payoutLimits",
									"type": "tuple[]"
								},
								{
									"components": [
										{
											"internalType": "uint224",
											"name": "amount",
											"type": "uint224"
										},
										{
											"internalType": "uint32",
											"name": "currency",
											"type": "uint32"
										}
									],
									"internalType": "struct JBCurrencyAmount[]",
									"name": "surplusAllowances",
									"type": "tuple[]"
								}
							],
							"internalType": "struct JBFundAccessLimitGroup[]",
							"name": "fundAccessLimitGroups",
							"type": "tuple[]"
						}
					],
					"internalType": "struct JBRulesetConfig[]",
					"name": "rulesetConfigurations",
					"type": "tuple[]"
				},
				{
					"components": [
						{
							"internalType": "contract IJBTerminal",
							"name": "terminal",
							"type": "address"
						},
						{
							"components": [
								{
									"internalType": "address",
									"name": "token",
									"type": "address"
								},
								{
									"internalType": "uint8",
									"name": "decimals",
									"type": "uint8"
								},
								{
									"internalType": "uint32",
									"name": "currency",
									"type": "uint32"
								}
							],
							"internalType": "struct JBAccountingContext[]",
							"name": "accountingContextsToAccept",
							"type": "tuple[]"
						}
					],
					"internalType": "struct JBTerminalConfig[]",
					"name": "terminalConfigurations",
					"type": "tuple[]"
				},
				{
					"internalType": "string",
					"name": "memo",
					"type": "string"
				}
			],
			"name": "launchProjectFor",
			"outputs": [
				{
					"internalType": "uint256",
					"name": "projectId",
					"type": "uint256"
				}
			],
			"stateMutability": "nonpayable",
			"type": "function"
		},
		{
			"inputs": [
				{
					"internalType": "uint256",
					"name": "projectId",
					"type": "uint256"
				},
				{
					"components": [
						{
							"internalType": "uint48",
							"name": "mustStartAtOrAfter",
							"type": "uint48"
						},
						{
							"internalType": "uint32",
							"name": "duration",
							"type": "uint32"
						},
						{
							"internalType": "uint112",
							"name": "weight",
							"type": "uint112"
						},
						{
							"internalType": "uint32",
							"name": "weightCutPercent",
							"type": "uint32"
						},
						{
							"internalType": "contract IJBRulesetApprovalHook",
							"name": "approvalHook",
							"type": "address"
						},
						{
							"components": [
								{
									"internalType": "uint16",
									"name": "reservedPercent",
									"type": "uint16"
								},
								{
									"internalType": "uint16",
									"name": "cashOutTaxRate",
									"type": "uint16"
								},
								{
									"internalType": "uint32",
									"name": "baseCurrency",
									"type": "uint32"
								},
								{
									"internalType": "bool",
									"name": "pausePay",
									"type": "bool"
								},
								{
									"internalType": "bool",
									"name": "pauseCreditTransfers",
									"type": "bool"
								},
								{
									"internalType": "bool",
									"name": "allowOwnerMinting",
									"type": "bool"
								},
								{
									"internalType": "bool",
									"name": "allowSetCustomToken",
									"type": "bool"
								},
								{
									"internalType": "bool",
									"name": "allowTerminalMigration",
									"type": "bool"
								},
								{
									"internalType": "bool",
									"name": "allowSetTerminals",
									"type": "bool"
								},
								{
									"internalType": "bool",
									"name": "allowSetController",
									"type": "bool"
								},
								{
									"internalType": "bool",
									"name": "allowAddAccountingContext",
									"type": "bool"
								},
								{
									"internalType": "bool",
									"name": "allowAddPriceFeed",
									"type": "bool"
								},
								{
									"internalType": "bool",
									"name": "ownerMustSendPayouts",
									"type": "bool"
								},
								{
									"internalType": "bool",
									"name": "holdFees",
									"type": "bool"
								},
								{
									"internalType": "bool",
									"name": "useTotalSurplusForCashOuts",
									"type": "bool"
								},
								{
									"internalType": "bool",
									"name": "useDataHookForPay",
									"type": "bool"
								},
								{
									"internalType": "bool",
									"name": "useDataHookForCashOut",
									"type": "bool"
								},
								{
									"internalType": "address",
									"name": "dataHook",
									"type": "address"
								},
								{
									"internalType": "uint16",
									"name": "metadata",
									"type": "uint16"
								}
							],
							"internalType": "struct JBRulesetMetadata",
							"name": "metadata",
							"type": "tuple"
						},
						{
							"components": [
								{
									"internalType": "uint256",
									"name": "groupId",
									"type": "uint256"
								},
								{
									"components": [
										{
											"internalType": "uint32",
											"name": "percent",
											"type": "uint32"
										},
										{
											"internalType": "uint64",
											"name": "projectId",
											"type": "uint64"
										},
										{
											"internalType": "address payable",
											"name": "beneficiary",
											"type": "address"
										},
										{
											"internalType": "bool",
											"name": "preferAddToBalance",
											"type": "bool"
										},
										{
											"internalType": "uint48",
											"name": "lockedUntil",
											"type": "uint48"
										},
										{
											"internalType": "contract IJBSplitHook",
											"name": "hook",
											"type": "address"
										}
									],
									"internalType": "struct JBSplit[]",
									"name": "splits",
									"type": "tuple[]"
								}
							],
							"internalType": "struct JBSplitGroup[]",
							"name": "splitGroups",
							"type": "tuple[]"
						},
						{
							"components": [
								{
									"internalType": "address",
									"name": "terminal",
									"type": "address"
								},
								{
									"internalType": "address",
									"name": "token",
									"type": "address"
								},
								{
									"components": [
										{
											"internalType": "uint224",
											"name": "amount",
											"type": "uint224"
										},
										{
											"internalType": "uint32",
											"name": "currency",
											"type": "uint32"
										}
									],
									"internalType": "struct JBCurrencyAmount[]",
									"name": "payoutLimits",
									"type": "tuple[]"
								},
								{
									"components": [
										{
											"internalType": "uint224",
											"name": "amount",
											"type": "uint224"
										},
										{
											"internalType": "uint32",
											"name": "currency",
											"type": "uint32"
										}
									],
									"internalType": "struct JBCurrencyAmount[]",
									"name": "surplusAllowances",
									"type": "tuple[]"
								}
							],
							"internalType": "struct JBFundAccessLimitGroup[]",
							"name": "fundAccessLimitGroups",
							"type": "tuple[]"
						}
					],
					"internalType": "struct JBRulesetConfig[]",
					"name": "rulesetConfigurations",
					"type": "tuple[]"
				},
				{
					"components": [
						{
							"internalType": "contract IJBTerminal",
							"name": "terminal",
							"type": "address"
						},
						{
							"components": [
								{
									"internalType": "address",
									"name": "token",
									"type": "address"
								},
								{
									"internalType": "uint8",
									"name": "decimals",
									"type": "uint8"
								},
								{
									"internalType": "uint32",
									"name": "currency",
									"type": "uint32"
								}
							],
							"internalType": "struct JBAccountingContext[]",
							"name": "accountingContextsToAccept",
							"type": "tuple[]"
						}
					],
					"internalType": "struct JBTerminalConfig[]",
					"name": "terminalConfigurations",
					"type": "tuple[]"
				},
				{
					"internalType": "string",
					"name": "memo",
					"type": "string"
				}
			],
			"name": "launchRulesetsFor",
			"outputs": [
				{
					"internalType": "uint256",
					"name": "rulesetId",
					"type": "uint256"
				}
			],
			"stateMutability": "nonpayable",
			"type": "function"
		},
		{
			"inputs": [
				{
					"internalType": "uint256",
					"name": "projectId",
					"type": "uint256"
				},
				{
					"internalType": "contract IERC165",
					"name": "to",
					"type": "address"
				}
			],
			"name": "migrate",
			"outputs": [],
			"stateMutability": "nonpayable",
			"type": "function"
		},
		{
			"inputs": [
				{
					"internalType": "uint256",
					"name": "projectId",
					"type": "uint256"
				},
				{
					"internalType": "uint256",
					"name": "tokenCount",
					"type": "uint256"
				},
				{
					"internalType": "address",
					"name": "beneficiary",
					"type": "address"
				},
				{
					"internalType": "string",
					"name": "memo",
					"type": "string"
				},
				{
					"internalType": "bool",
					"name": "useReservedPercent",
					"type": "bool"
				}
			],
			"name": "mintTokensOf",
			"outputs": [
				{
					"internalType": "uint256",
					"name": "beneficiaryTokenCount",
					"type": "uint256"
				}
			],
			"stateMutability": "nonpayable",
			"type": "function"
		},
		{
			"inputs": [
				{
					"internalType": "uint256",
					"name": "projectId",
					"type": "uint256"
				}
			],
			"name": "pendingReservedTokenBalanceOf",
			"outputs": [
				{
					"internalType": "uint256",
					"name": "",
					"type": "uint256"
				}
			],
			"stateMutability": "view",
			"type": "function"
		},
		{
			"inputs": [
				{
					"internalType": "uint256",
					"name": "projectId",
					"type": "uint256"
				},
				{
					"components": [
						{
							"internalType": "uint48",
							"name": "mustStartAtOrAfter",
							"type": "uint48"
						},
						{
							"internalType": "uint32",
							"name": "duration",
							"type": "uint32"
						},
						{
							"internalType": "uint112",
							"name": "weight",
							"type": "uint112"
						},
						{
							"internalType": "uint32",
							"name": "weightCutPercent",
							"type": "uint32"
						},
						{
							"internalType": "contract IJBRulesetApprovalHook",
							"name": "approvalHook",
							"type": "address"
						},
						{
							"components": [
								{
									"internalType": "uint16",
									"name": "reservedPercent",
									"type": "uint16"
								},
								{
									"internalType": "uint16",
									"name": "cashOutTaxRate",
									"type": "uint16"
								},
								{
									"internalType": "uint32",
									"name": "baseCurrency",
									"type": "uint32"
								},
								{
									"internalType": "bool",
									"name": "pausePay",
									"type": "bool"
								},
								{
									"internalType": "bool",
									"name": "pauseCreditTransfers",
									"type": "bool"
								},
								{
									"internalType": "bool",
									"name": "allowOwnerMinting",
									"type": "bool"
								},
								{
									"internalType": "bool",
									"name": "allowSetCustomToken",
									"type": "bool"
								},
								{
									"internalType": "bool",
									"name": "allowTerminalMigration",
									"type": "bool"
								},
								{
									"internalType": "bool",
									"name": "allowSetTerminals",
									"type": "bool"
								},
								{
									"internalType": "bool",
									"name": "allowSetController",
									"type": "bool"
								},
								{
									"internalType": "bool",
									"name": "allowAddAccountingContext",
									"type": "bool"
								},
								{
									"internalType": "bool",
									"name": "allowAddPriceFeed",
									"type": "bool"
								},
								{
									"internalType": "bool",
									"name": "ownerMustSendPayouts",
									"type": "bool"
								},
								{
									"internalType": "bool",
									"name": "holdFees",
									"type": "bool"
								},
								{
									"internalType": "bool",
									"name": "useTotalSurplusForCashOuts",
									"type": "bool"
								},
								{
									"internalType": "bool",
									"name": "useDataHookForPay",
									"type": "bool"
								},
								{
									"internalType": "bool",
									"name": "useDataHookForCashOut",
									"type": "bool"
								},
								{
									"internalType": "address",
									"name": "dataHook",
									"type": "address"
								},
								{
									"internalType": "uint16",
									"name": "metadata",
									"type": "uint16"
								}
							],
							"internalType": "struct JBRulesetMetadata",
							"name": "metadata",
							"type": "tuple"
						},
						{
							"components": [
								{
									"internalType": "uint256",
									"name": "groupId",
									"type": "uint256"
								},
								{
									"components": [
										{
											"internalType": "uint32",
											"name": "percent",
											"type": "uint32"
										},
										{
											"internalType": "uint64",
											"name": "projectId",
											"type": "uint64"
										},
										{
											"internalType": "address payable",
											"name": "beneficiary",
											"type": "address"
										},
										{
											"internalType": "bool",
											"name": "preferAddToBalance",
											"type": "bool"
										},
										{
											"internalType": "uint48",
											"name": "lockedUntil",
											"type": "uint48"
										},
										{
											"internalType": "contract IJBSplitHook",
											"name": "hook",
											"type": "address"
										}
									],
									"internalType": "struct JBSplit[]",
									"name": "splits",
									"type": "tuple[]"
								}
							],
							"internalType": "struct JBSplitGroup[]",
							"name": "splitGroups",
							"type": "tuple[]"
						},
						{
							"components": [
								{
									"internalType": "address",
									"name": "terminal",
									"type": "address"
								},
								{
									"internalType": "address",
									"name": "token",
									"type": "address"
								},
								{
									"components": [
										{
											"internalType": "uint224",
											"name": "amount",
											"type": "uint224"
										},
										{
											"internalType": "uint32",
											"name": "currency",
											"type": "uint32"
										}
									],
									"internalType": "struct JBCurrencyAmount[]",
									"name": "payoutLimits",
									"type": "tuple[]"
								},
								{
									"components": [
										{
											"internalType": "uint224",
											"name": "amount",
											"type": "uint224"
										},
										{
											"internalType": "uint32",
											"name": "currency",
											"type": "uint32"
										}
									],
									"internalType": "struct JBCurrencyAmount[]",
									"name": "surplusAllowances",
									"type": "tuple[]"
								}
							],
							"internalType": "struct JBFundAccessLimitGroup[]",
							"name": "fundAccessLimitGroups",
							"type": "tuple[]"
						}
					],
					"internalType": "struct JBRulesetConfig[]",
					"name": "rulesetConfigurations",
					"type": "tuple[]"
				},
				{
					"internalType": "string",
					"name": "memo",
					"type": "string"
				}
			],
			"name": "queueRulesetsOf",
			"outputs": [
				{
					"internalType": "uint256",
					"name": "rulesetId",
					"type": "uint256"
				}
			],
			"stateMutability": "nonpayable",
			"type": "function"
		},
		{
			"inputs": [
				{
					"internalType": "uint256",
					"name": "projectId",
					"type": "uint256"
				}
			],
			"name": "sendReservedTokensToSplitsOf",
			"outputs": [
				{
					"internalType": "uint256",
					"name": "",
					"type": "uint256"
				}
			],
			"stateMutability": "nonpayable",
			"type": "function"
		},
		{
			"inputs": [
				{
					"internalType": "uint256",
					"name": "projectId",
					"type": "uint256"
				}
			],
			"name": "setControllerAllowed",
			"outputs": [
				{
					"internalType": "bool",
					"name": "",
					"type": "bool"
				}
			],
			"stateMutability": "view",
			"type": "function"
		},
		{
			"inputs": [
				{
					"internalType": "uint256",
					"name": "projectId",
					"type": "uint256"
				},
				{
					"internalType": "uint256",
					"name": "rulesetId",
					"type": "uint256"
				},
				{
					"components": [
						{
							"internalType": "uint256",
							"name": "groupId",
							"type": "uint256"
						},
						{
							"components": [
								{
									"internalType": "uint32",
									"name": "percent",
									"type": "uint32"
								},
								{
									"internalType": "uint64",
									"name": "projectId",
									"type": "uint64"
								},
								{
									"internalType": "address payable",
									"name": "beneficiary",
									"type": "address"
								},
								{
									"internalType": "bool",
									"name": "preferAddToBalance",
									"type": "bool"
								},
								{
									"internalType": "uint48",
									"name": "lockedUntil",
									"type": "uint48"
								},
								{
									"internalType": "contract IJBSplitHook",
									"name": "hook",
									"type": "address"
								}
							],
							"internalType": "struct JBSplit[]",
							"name": "splits",
							"type": "tuple[]"
						}
					],
					"internalType": "struct JBSplitGroup[]",
					"name": "splitGroups",
					"type": "tuple[]"
				}
			],
			"name": "setSplitGroupsOf",
			"outputs": [],
			"stateMutability": "nonpayable",
			"type": "function"
		},
		{
			"inputs": [
				{
					"internalType": "uint256",
					"name": "projectId",
					"type": "uint256"
				}
			],
			"name": "setTerminalsAllowed",
			"outputs": [
				{
					"internalType": "bool",
					"name": "",
					"type": "bool"
				}
			],
			"stateMutability": "view",
			"type": "function"
		},
		{
			"inputs": [
				{
					"internalType": "uint256",
					"name": "projectId",
					"type": "uint256"
				},
				{
					"internalType": "contract IJBToken",
					"name": "token",
					"type": "address"
				}
			],
			"name": "setTokenFor",
			"outputs": [],
			"stateMutability": "nonpayable",
			"type": "function"
		},
		{
			"inputs": [
				{
					"internalType": "uint256",
					"name": "projectId",
					"type": "uint256"
				},
				{
					"internalType": "string",
					"name": "uri",
					"type": "string"
				}
			],
			"name": "setUriOf",
			"outputs": [],
			"stateMutability": "nonpayable",
			"type": "function"
		},
		{
			"inputs": [
				{
					"internalType": "bytes4",
					"name": "interfaceId",
					"type": "bytes4"
				}
			],
			"name": "supportsInterface",
			"outputs": [
				{
					"internalType": "bool",
					"name": "",
					"type": "bool"
				}
			],
			"stateMutability": "pure",
			"type": "function"
		},
		{
			"inputs": [
				{
					"internalType": "uint256",
					"name": "projectId",
					"type": "uint256"
				}
			],
			"name": "totalTokenSupplyWithReservedTokensOf",
			"outputs": [
				{
					"internalType": "uint256",
					"name": "",
					"type": "uint256"
				}
			],
			"stateMutability": "view",
			"type": "function"
		},
		{
			"inputs": [
				{
					"internalType": "address",
					"name": "holder",
					"type": "address"
				},
				{
					"internalType": "uint256",
					"name": "projectId",
					"type": "uint256"
				},
				{
					"internalType": "address",
					"name": "recipient",
					"type": "address"
				},
				{
					"internalType": "uint256",
					"name": "creditCount",
					"type": "uint256"
				}
			],
			"name": "transferCreditsFrom",
			"outputs": [],
			"stateMutability": "nonpayable",
			"type": "function"
		},
		{
			"inputs": [],
			"name": "trustedForwarder",
			"outputs": [
				{
					"internalType": "address",
					"name": "",
					"type": "address"
				}
			],
			"stateMutability": "view",
			"type": "function"
		},
		{
			"inputs": [
				{
					"internalType": "uint256",
					"name": "projectId",
					"type": "uint256"
				}
			],
			"name": "upcomingRulesetOf",
			"outputs": [
				{
					"components": [
						{
							"internalType": "uint48",
							"name": "cycleNumber",
							"type": "uint48"
						},
						{
							"internalType": "uint48",
							"name": "id",
							"type": "uint48"
						},
						{
							"internalType": "uint48",
							"name": "basedOnId",
							"type": "uint48"
						},
						{
							"internalType": "uint48",
							"name": "start",
							"type": "uint48"
						},
						{
							"internalType": "uint32",
							"name": "duration",
							"type": "uint32"
						},
						{
							"internalType": "uint112",
							"name": "weight",
							"type": "uint112"
						},
						{
							"internalType": "uint32",
							"name": "weightCutPercent",
							"type": "uint32"
						},
						{
							"internalType": "contract IJBRulesetApprovalHook",
							"name": "approvalHook",
							"type": "address"
						},
						{
							"internalType": "uint256",
							"name": "metadata",
							"type": "uint256"
						}
					],
					"internalType": "struct JBRuleset",
					"name": "ruleset",
					"type": "tuple"
				},
				{
					"components": [
						{
							"internalType": "uint16",
							"name": "reservedPercent",
							"type": "uint16"
						},
						{
							"internalType": "uint16",
							"name": "cashOutTaxRate",
							"type": "uint16"
						},
						{
							"internalType": "uint32",
							"name": "baseCurrency",
							"type": "uint32"
						},
						{
							"internalType": "bool",
							"name": "pausePay",
							"type": "bool"
						},
						{
							"internalType": "bool",
							"name": "pauseCreditTransfers",
							"type": "bool"
						},
						{
							"internalType": "bool",
							"name": "allowOwnerMinting",
							"type": "bool"
						},
						{
							"internalType": "bool",
							"name": "allowSetCustomToken",
							"type": "bool"
						},
						{
							"internalType": "bool",
							"name": "allowTerminalMigration",
							"type": "bool"
						},
						{
							"internalType": "bool",
							"name": "allowSetTerminals",
							"type": "bool"
						},
						{
							"internalType": "bool",
							"name": "allowSetController",
							"type": "bool"
						},
						{
							"internalType": "bool",
							"name": "allowAddAccountingContext",
							"type": "bool"
						},
						{
							"internalType": "bool",
							"name": "allowAddPriceFeed",
							"type": "bool"
						},
						{
							"internalType": "bool",
							"name": "ownerMustSendPayouts",
							"type": "bool"
						},
						{
							"internalType": "bool",
							"name": "holdFees",
							"type": "bool"
						},
						{
							"internalType": "bool",
							"name": "useTotalSurplusForCashOuts",
							"type": "bool"
						},
						{
							"internalType": "bool",
							"name": "useDataHookForPay",
							"type": "bool"
						},
						{
							"internalType": "bool",
							"name": "useDataHookForCashOut",
							"type": "bool"
						},
						{
							"internalType": "address",
							"name": "dataHook",
							"type": "address"
						},
						{
							"internalType": "uint16",
							"name": "metadata",
							"type": "uint16"
						}
					],
					"internalType": "struct JBRulesetMetadata",
					"name": "metadata",
					"type": "tuple"
				}
			],
			"stateMutability": "view",
			"type": "function"
		},
		{
			"inputs": [
				{
					"internalType": "uint256",
					"name": "projectId",
					"type": "uint256"
				}
			],
			"name": "uriOf",
			"outputs": [
				{
					"internalType": "string",
					"name": "",
					"type": "string"
				}
			],
			"stateMutability": "view",
			"type": "function"
		},
		{
			"anonymous": false,
			"inputs": [
				{
					"indexed": true,
					"internalType": "address",
					"name": "holder",
					"type": "address"
				},
				{
					"indexed": true,
					"internalType": "uint256",
					"name": "projectId",
					"type": "uint256"
				},
				{
					"indexed": false,
					"internalType": "uint256",
					"name": "tokenCount",
					"type": "uint256"
				},
				{
					"indexed": false,
					"internalType": "string",
					"name": "memo",
					"type": "string"
				},
				{
					"indexed": false,
					"internalType": "address",
					"name": "caller",
					"type": "address"
				}
			],
			"name": "BurnTokens",
			"type": "event"
		},
		{
			"anonymous": false,
			"inputs": [
				{
					"indexed": true,
					"internalType": "uint256",
					"name": "projectId",
					"type": "uint256"
				},
				{
					"indexed": true,
					"internalType": "address",
					"name": "deployer",
					"type": "address"
				},
				{
					"indexed": false,
					"internalType": "bytes32",
					"name": "salt",
					"type": "bytes32"
				},
				{
					"indexed": false,
					"internalType": "bytes32",
					"name": "saltHash",
					"type": "bytes32"
				},
				{
					"indexed": false,
					"internalType": "address",
					"name": "caller",
					"type": "address"
				}
			],
			"name": "DeployERC20",
			"type": "event"
		},
		{
			"anonymous": false,
			"inputs": [
				{
					"indexed": false,
					"internalType": "uint256",
					"name": "rulesetId",
					"type": "uint256"
				},
				{
					"indexed": false,
					"internalType": "uint256",
					"name": "projectId",
					"type": "uint256"
				},
				{
					"indexed": false,
					"internalType": "string",
					"name": "projectUri",
					"type": "string"
				},
				{
					"indexed": false,
					"internalType": "string",
					"name": "memo",
					"type": "string"
				},
				{
					"indexed": false,
					"internalType": "address",
					"name": "caller",
					"type": "address"
				}
			],
			"name": "LaunchProject",
			"type": "event"
		},
		{
			"anonymous": false,
			"inputs": [
				{
					"indexed": false,
					"internalType": "uint256",
					"name": "rulesetId",
					"type": "uint256"
				},
				{
					"indexed": false,
					"internalType": "uint256",
					"name": "projectId",
					"type": "uint256"
				},
				{
					"indexed": false,
					"internalType": "string",
					"name": "memo",
					"type": "string"
				},
				{
					"indexed": false,
					"internalType": "address",
					"name": "caller",
					"type": "address"
				}
			],
			"name": "LaunchRulesets",
			"type": "event"
		},
		{
			"anonymous": false,
			"inputs": [
				{
					"indexed": true,
					"internalType": "uint256",
					"name": "projectId",
					"type": "uint256"
				},
				{
					"indexed": false,
					"internalType": "contract IERC165",
					"name": "to",
					"type": "address"
				},
				{
					"indexed": false,
					"internalType": "address",
					"name": "caller",
					"type": "address"
				}
			],
			"name": "Migrate",
			"type": "event"
		},
		{
			"anonymous": false,
			"inputs": [
				{
					"indexed": true,
					"internalType": "address",
					"name": "beneficiary",
					"type": "address"
				},
				{
					"indexed": true,
					"internalType": "uint256",
					"name": "projectId",
					"type": "uint256"
				},
				{
					"indexed": false,
					"internalType": "uint256",
					"name": "tokenCount",
					"type": "uint256"
				},
				{
					"indexed": false,
					"internalType": "uint256",
					"name": "beneficiaryTokenCount",
					"type": "uint256"
				},
				{
					"indexed": false,
					"internalType": "string",
					"name": "memo",
					"type": "string"
				},
				{
					"indexed": false,
					"internalType": "uint256",
					"name": "reservedPercent",
					"type": "uint256"
				},
				{
					"indexed": false,
					"internalType": "address",
					"name": "caller",
					"type": "address"
				}
			],
			"name": "MintTokens",
			"type": "event"
		},
		{
			"anonymous": false,
			"inputs": [
				{
					"indexed": true,
					"internalType": "uint256",
					"name": "projectId",
					"type": "uint256"
				},
				{
					"indexed": false,
					"internalType": "address",
					"name": "from",
					"type": "address"
				},
				{
					"indexed": false,
					"internalType": "address",
					"name": "caller",
					"type": "address"
				}
			],
			"name": "PrepMigration",
			"type": "event"
		},
		{
			"anonymous": false,
			"inputs": [
				{
					"indexed": false,
					"internalType": "uint256",
					"name": "rulesetId",
					"type": "uint256"
				},
				{
					"indexed": false,
					"internalType": "uint256",
					"name": "projectId",
					"type": "uint256"
				},
				{
					"indexed": false,
					"internalType": "string",
					"name": "memo",
					"type": "string"
				},
				{
					"indexed": false,
					"internalType": "address",
					"name": "caller",
					"type": "address"
				}
			],
			"name": "QueueRulesets",
			"type": "event"
		},
		{
			"anonymous": false,
			"inputs": [
				{
					"indexed": true,
					"internalType": "uint256",
					"name": "projectId",
					"type": "uint256"
				},
				{
					"components": [
						{
							"internalType": "uint32",
							"name": "percent",
							"type": "uint32"
						},
						{
							"internalType": "uint64",
							"name": "projectId",
							"type": "uint64"
						},
						{
							"internalType": "address payable",
							"name": "beneficiary",
							"type": "address"
						},
						{
							"internalType": "bool",
							"name": "preferAddToBalance",
							"type": "bool"
						},
						{
							"internalType": "uint48",
							"name": "lockedUntil",
							"type": "uint48"
						},
						{
							"internalType": "contract IJBSplitHook",
							"name": "hook",
							"type": "address"
						}
					],
					"indexed": false,
					"internalType": "struct JBSplit",
					"name": "split",
					"type": "tuple"
				},
				{
					"indexed": false,
					"internalType": "uint256",
					"name": "tokenCount",
					"type": "uint256"
				},
				{
					"indexed": false,
					"internalType": "bytes",
					"name": "reason",
					"type": "bytes"
				},
				{
					"indexed": false,
					"internalType": "address",
					"name": "caller",
					"type": "address"
				}
			],
			"name": "ReservedDistributionReverted",
			"type": "event"
		},
		{
			"anonymous": false,
			"inputs": [
				{
					"indexed": true,
					"internalType": "uint256",
					"name": "projectId",
					"type": "uint256"
				},
				{
					"indexed": true,
					"internalType": "uint256",
					"name": "rulesetId",
					"type": "uint256"
				},
				{
					"indexed": true,
					"internalType": "uint256",
					"name": "groupId",
					"type": "uint256"
				},
				{
					"components": [
						{
							"internalType": "uint32",
							"name": "percent",
							"type": "uint32"
						},
						{
							"internalType": "uint64",
							"name": "projectId",
							"type": "uint64"
						},
						{
							"internalType": "address payable",
							"name": "beneficiary",
							"type": "address"
						},
						{
							"internalType": "bool",
							"name": "preferAddToBalance",
							"type": "bool"
						},
						{
							"internalType": "uint48",
							"name": "lockedUntil",
							"type": "uint48"
						},
						{
							"internalType": "contract IJBSplitHook",
							"name": "hook",
							"type": "address"
						}
					],
					"indexed": false,
					"internalType": "struct JBSplit",
					"name": "split",
					"type": "tuple"
				},
				{
					"indexed": false,
					"internalType": "uint256",
					"name": "tokenCount",
					"type": "uint256"
				},
				{
					"indexed": false,
					"internalType": "address",
					"name": "caller",
					"type": "address"
				}
			],
			"name": "SendReservedTokensToSplit",
			"type": "event"
		},
		{
			"anonymous": false,
			"inputs": [
				{
					"indexed": true,
					"internalType": "uint256",
					"name": "rulesetId",
					"type": "uint256"
				},
				{
					"indexed": true,
					"internalType": "uint256",
					"name": "rulesetCycleNumber",
					"type": "uint256"
				},
				{
					"indexed": true,
					"internalType": "uint256",
					"name": "projectId",
					"type": "uint256"
				},
				{
					"indexed": false,
					"internalType": "address",
					"name": "owner",
					"type": "address"
				},
				{
					"indexed": false,
					"internalType": "uint256",
					"name": "tokenCount",
					"type": "uint256"
				},
				{
					"indexed": false,
					"internalType": "uint256",
					"name": "leftoverAmount",
					"type": "uint256"
				},
				{
					"indexed": false,
					"internalType": "address",
					"name": "caller",
					"type": "address"
				}
			],
			"name": "SendReservedTokensToSplits",
			"type": "event"
		},
		{
			"anonymous": false,
			"inputs": [
				{
					"indexed": true,
					"internalType": "uint256",
					"name": "projectId",
					"type": "uint256"
				},
				{
					"indexed": false,
					"internalType": "string",
					"name": "uri",
					"type": "string"
				},
				{
					"indexed": false,
					"internalType": "address",
					"name": "caller",
					"type": "address"
				}
			],
			"name": "SetUri",
			"type": "event"
		},
		{
			"inputs": [],
			"name": "JBController_AddingPriceFeedNotAllowed",
			"type": "error"
		},
		{
			"inputs": [],
			"name": "JBController_CreditTransfersPaused",
			"type": "error"
		},
		{
			"inputs": [
				{
					"internalType": "uint256",
					"name": "rate",
					"type": "uint256"
				},
				{
					"internalType": "uint256",
					"name": "limit",
					"type": "uint256"
				}
			],
			"name": "JBController_InvalidCashOutTaxRate",
			"type": "error"
		},
		{
			"inputs": [
				{
					"internalType": "uint256",
					"name": "percent",
					"type": "uint256"
				},
				{
					"internalType": "uint256",
					"name": "limit",
					"type": "uint256"
				}
			],
			"name": "JBController_InvalidReservedPercent",
			"type": "error"
		},
		{
			"inputs": [],
			"name": "JBController_MintNotAllowedAndNotTerminalOrHook",
			"type": "error"
		},
		{
			"inputs": [],
			"name": "JBController_NoReservedTokens",
			"type": "error"
		},
		{
			"inputs": [
				{
					"internalType": "address",
					"name": "sender",
					"type": "address"
				},
				{
					"internalType": "contract IJBDirectory",
					"name": "directory",
					"type": "address"
				}
			],
			"name": "JBController_OnlyDirectory",
			"type": "error"
		},
		{
			"inputs": [],
			"name": "JBController_RulesetSetTokenNotAllowed",
			"type": "error"
		},
		{
			"inputs": [],
			"name": "JBController_RulesetsAlreadyLaunched",
			"type": "error"
		},
		{
			"inputs": [],
			"name": "JBController_RulesetsArrayEmpty",
			"type": "error"
		},
		{
			"inputs": [],
			"name": "JBController_ZeroTokensToBurn",
			"type": "error"
		},
		{
			"inputs": [],
			"name": "JBController_ZeroTokensToMint",
			"type": "error"
		},
		{
			"inputs": [
				{
					"internalType": "address",
					"name": "account",
					"type": "address"
				},
				{
					"internalType": "address",
					"name": "sender",
					"type": "address"
				},
				{
					"internalType": "uint256",
					"name": "projectId",
					"type": "uint256"
				},
				{
					"internalType": "uint256",
					"name": "permissionId",
					"type": "uint256"
				}
			],
			"name": "JBPermissioned_Unauthorized",
			"type": "error"
		},
		{
			"inputs": [
				{
					"internalType": "uint256",
					"name": "x",
					"type": "uint256"
				},
				{
					"internalType": "uint256",
					"name": "y",
					"type": "uint256"
				},
				{
					"internalType": "uint256",
					"name": "denominator",
					"type": "uint256"
				}
			],
			"name": "PRBMath_MulDiv_Overflow",
			"type": "error"
		},
		{
			"inputs": [
				{
					"internalType": "address",
					"name": "token",
					"type": "address"
				}
			],
			"name": "SafeERC20FailedOperation",
			"type": "error"
		}
	],
	"args": [],
	"solcInputHash": "35b13f35f94e9cfa65ea5b144995ef6f",
	"bytecode": "0x6101c06040523480156200001257600080fd5b5060405162005e7238038062005e72833981016040819052620000359162000099565b6001600160a01b03978816608052871660a05297861660c05295851660e052928416610100529083166101205282166101405281166101605290811661018052166101a05262000187565b6001600160a01b03811681146200009657600080fd5b50565b6000806000806000806000806000806101408b8d031215620000ba57600080fd5b8a51620000c78162000080565b60208c0151909a50620000da8162000080565b60408c0151909950620000ed8162000080565b60608c0151909850620001008162000080565b60808c0151909750620001138162000080565b60a08c0151909650620001268162000080565b60c08c0151909550620001398162000080565b60e08c01519094506200014c8162000080565b6101008c0151909350620001608162000080565b6101208c0151909250620001748162000080565b809150509295989b9194979a5092959850565b60805160a05160c05160e05161010051610120516101405161016051610180516101a051615b1f620003536000396000818161036f01528181610ac301528181610c1a0152610ce7015260008181610285015281816109a401528181610fe9015281816111d70152818161181b0152818161198201528181611c8301528181612039015281816122a901528181613428015261357e0152600081816102eb0152818161171e015281816129e001526130400152600081816105d50152818161077401528181610d380152818161143d015281816119f301528181612757015281816128bf0152612d370152600081816103330152818161081601528181610a4301528181610ba701528181610c6c0152818161108b01528181611287015281816115950152818161168c01528181611ad201528181611f3f01526122130152600081816102c401526108ff01526000818161065c0152612a670152600081816104e701528181610de601528181610ebf01528181610f010152818161133501528181611da201528181611df801528181612c4501528181612ca50152613252015260008181610433015281816104be01526135bd015260008181610622015261268d0152615b1f6000f3fe608060405234801561001057600080fd5b50600436106102325760003560e01c80636567b40611610130578063b1e6d2a1116100b8578063f0118e181161007c578063f0118e18146105f7578063f12b64a51461060a578063f434c9141461061d578063fb61b4e314610644578063ffa082441461065757600080fd5b8063b1e6d2a114610575578063c02c63ad14610588578063c1ec61ee1461059b578063c7fb92de146105bd578063d4a1b4b1146105d057600080fd5b80638a36dffd116100ff5780638a36dffd1461050957806399d25a341461051c578063a2d532e61461052f578063a312889b14610542578063b1a50e331461056257600080fd5b80636567b40614610489578063702a3977146104a95780637da0a877146104bc57806388bc2ef3146104e257600080fd5b8063303f5dfa116101be578063419296261161018257806341929626146103fd5780634da781a914610410578063572b6c051461042357806358178191146104635780635c7465e51461047657600080fd5b8063303f5dfa146103915780633141db70146103a457806339284f35146103b757806339975571146103ca578063405b84fa146103ea57600080fd5b80631f47ce69116102055780631f47ce69146102e657806325a61d5c1461030d578063293c49991461032e5780632fa90203146103555780632fdb77e91461036a57600080fd5b806301ffc9a714610237578063090db2f11461025f5780631d831d5c146102805780631eabcd34146102bf575b600080fd5b61024a6102453660046139ca565b61067e565b60405190151581526020015b60405180910390f35b61027261026d3660046139f4565b61073c565b604051908152602001610256565b6102a77f000000000000000000000000000000000000000000000000000000000000000081565b6040516001600160a01b039091168152602001610256565b6102a77f000000000000000000000000000000000000000000000000000000000000000081565b6102a77f000000000000000000000000000000000000000000000000000000000000000081565b61032061031b366004613a0d565b610747565b604051610256929190613c19565b6102a77f000000000000000000000000000000000000000000000000000000000000000081565b610368610363366004613c4e565b6107fc565b005b6102a77f000000000000000000000000000000000000000000000000000000000000000081565b61036861039f366004613c9f565b610963565b6102726103b2366004613d6a565b610a07565b6102726103c5366004613de3565b610b56565b6102726103d83660046139f4565b60006020819052908152604090205481565b6103686103f8366004613e86565b610eb4565b61032061040b3660046139f4565b610f99565b61027261041e3660046139f4565b610fc4565b61024a610431366004613eb6565b7f00000000000000000000000000000000000000000000000000000000000000006001600160a01b0390811691161490565b6102a7610471366004613ed3565b611066565b610272610484366004613f54565b611265565b61049c61049736600461402c565b61140b565b6040516102569190614058565b6103686104b73660046140bb565b61157b565b7f00000000000000000000000000000000000000000000000000000000000000006102a7565b6102a77f000000000000000000000000000000000000000000000000000000000000000081565b610368610517366004614106565b611672565b61024a61052a3660046139f4565b611759565b61036861053d366004614158565b611777565b6105556105503660046139f4565b611854565b6040516102569190614200565b61024a6105703660046139f4565b6118ee565b610368610583366004614213565b611907565b6103206105963660046139f4565b6119b1565b6105ae6105a93660046139f4565b6119ca565b6040516102569392919061425b565b6102726105cb3660046142be565b611a7e565b6102a77f000000000000000000000000000000000000000000000000000000000000000081565b610368610605366004614339565b611d94565b610368610618366004613e86565b611f25565b6102a77f000000000000000000000000000000000000000000000000000000000000000081565b610368610652366004614365565b61209a565b6102a77f000000000000000000000000000000000000000000000000000000000000000081565b60006001600160e01b03198216635709f28160e01b14806106af57506001600160e01b03198216632fdb77e960e01b145b806106ca57506001600160e01b031982166334ce2c7b60e21b145b806106e557506001600160e01b03198216632877540760e01b145b8061070057506001600160e01b03198216635825057160e11b145b8061071b57506001600160e01b03198216633d0d324560e21b145b8061073657506001600160e01b031982166301ffc9a760e01b145b92915050565b6000610736826121b4565b61074f6138bd565b610757613909565b604051630969875760e21b815260048101859052602481018490527f00000000000000000000000000000000000000000000000000000000000000006001600160a01b0316906325a61d5c9060440161012060405180830381865afa1580156107c4573d6000803e3d6000fd5b505050506040513d601f19601f820116820180604052508101906107e89190614635565b91506107f3826123e7565b90509250929050565b6040516331a9108f60e11b815260048101859052610891907f00000000000000000000000000000000000000000000000000000000000000006001600160a01b031690636352211e90602401602060405180830381865afa158015610865573d6000803e3d6000fd5b505050506040513d601f19601f820116820180604052508101906108899190614652565b856012612621565b600061089c85612739565b610100810151909150604c1c6001908116146108cb576040516383d788ab60e01b815260040160405180910390fd5b60405163c6081d7160e01b81526004810186905260248101859052604481018490526001600160a01b0383811660648301527f0000000000000000000000000000000000000000000000000000000000000000169063c6081d71906084015b600060405180830381600087803b15801561094457600080fd5b505af1158015610958573d6000803e3d6000fd5b505050505050505050565b61096f8484600b612621565b60405163181faefd60e11b81526001600160a01b038581166004830152602482018590526044820184905282811660648301527f0000000000000000000000000000000000000000000000000000000000000000169063303f5dfa906084015b600060405180830381600087803b1580156109e957600080fd5b505af11580156109fd573d6000803e3d6000fd5b5050505050505050565b6000838103610a2957604051632b72d06560e01b815260040160405180910390fd5b6040516331a9108f60e11b815260048101879052610afa907f00000000000000000000000000000000000000000000000000000000000000006001600160a01b031690636352211e90602401602060405180830381865afa158015610a92573d6000803e3d6000fd5b505050506040513d601f19601f82011682018060405250810190610ab69190614652565b8760026001600160a01b037f000000000000000000000000000000000000000000000000000000000000000016610aeb6127cc565b6001600160a01b0316146127db565b610b058686866127eb565b90507f24d02d612b06648bfa2000859f3de7e6f336139eaf5877c24b0d21320625286281878585610b346127cc565b604051610b45959493929190614698565b60405180910390a195945050505050565b6000858103610b7857604051632b72d06560e01b815260040160405180910390fd5b6000610b826127cc565b6040516331a9108f60e11b8152600481018b9052909150610c52906001600160a01b037f00000000000000000000000000000000000000000000000000000000000000001690636352211e90602401602060405180830381865afa158015610bee573d6000803e3d6000fd5b505050506040513d601f19601f82011682018060405250810190610c129190614652565b8a600260ff167f00000000000000000000000000000000000000000000000000000000000000006001600160a01b0316856001600160a01b0316146127db565b6040516331a9108f60e11b8152600481018a9052610d1f907f00000000000000000000000000000000000000000000000000000000000000006001600160a01b031690636352211e90602401602060405180830381865afa158015610cbb573d6000803e3d6000fd5b505050506040513d601f19601f82011682018060405250810190610cdf9190614652565b8a600e60ff167f00000000000000000000000000000000000000000000000000000000000000006001600160a01b0316856001600160a01b0316146127db565b6040516319fade8560e11b8152600481018a90526000907f00000000000000000000000000000000000000000000000000000000000000006001600160a01b0316906333f5bd0a90602401602060405180830381865afa158015610d87573d6000803e3d6000fd5b505050506040513d601f19601f82011682018060405250810190610dab91906146d2565b1115610dca576040516319d957db60e01b815260040160405180910390fd5b6040516338a73f9960e11b8152600481018a90523060248201527f00000000000000000000000000000000000000000000000000000000000000006001600160a01b03169063714e7f3290604401600060405180830381600087803b158015610e3257600080fd5b505af1158015610e46573d6000803e3d6000fd5b50505050610e55898787612b05565b610e608989896127eb565b91507f23164adda696b19106c2eef50ba44461997682bf5aeb9fdb383117fa9952cc75828a8686610e8f6127cc565b604051610ea0959493929190614698565b60405180910390a150979650505050505050565b336001600160a01b037f00000000000000000000000000000000000000000000000000000000000000001614610f3357604051639653dbed60e01b81523360048201526001600160a01b037f00000000000000000000000000000000000000000000000000000000000000001660248201526044015b60405180910390fd5b604080516001600160a01b038316815233602082015283917f01f954abace731a88ab86e71186040cc2be49fe517ea06bc0d24f25b82b83456910160405180910390a260008281526020819052604090205415610f9557610f93826121b4565b505b5050565b610fa16138bd565b610fa9613909565b610fb283612739565b9150610fbd826123e7565b9050915091565b6000818152602081905260408082205490516375b0d9cd60e01b8152600481018490527f00000000000000000000000000000000000000000000000000000000000000006001600160a01b0316906375b0d9cd90602401602060405180830381865afa158015611038573d6000803e3d6000fd5b505050506040513d601f19601f8201168201806040525081019061105c91906146d2565b6107369190614701565b6040516331a9108f60e11b8152600481018790526000906110fe906001600160a01b037f00000000000000000000000000000000000000000000000000000000000000001690636352211e90602401602060405180830381865afa1580156110d2573d6000803e3d6000fd5b505050506040513d601f19601f820116820180604052508101906110f69190614652565b886007612621565b60008261110c57600061115a565b6111146127cc565b8360405160200161114392919060609290921b6bffffffffffffffffffffffff19168252601482015260340190565b604051602081830303815290604052805190602001205b90506111646127cc565b6001600160a01b0316887fa05dbc6b81da28529b01c0a1d1166c44ccd67676f06d2441002870ec5bc4a15885846111996127cc565b6040805193845260208401929092526001600160a01b03169082015260600160405180910390a3604051635817819160e01b81526001600160a01b037f00000000000000000000000000000000000000000000000000000000000000001690635817819190611216908b908b908b908b908b908990600401614714565b6020604051808303816000875af1158015611235573d6000803e3d6000fd5b505050506040513d601f19601f820116820180604052508101906112599190614652565b98975050505050505050565b60405163180e2b1160e31b81526001600160a01b038a811660048301526000917f00000000000000000000000000000000000000000000000000000000000000009091169063c0715888906024016020604051808303816000875af11580156112d2573d6000803e3d6000fd5b505050506040513d601f19601f820116820180604052508101906112f691906146d2565b90508715611319576000818152600160205260409020611317898b836147df565b505b6040516338a73f9960e11b8152600481018290523060248201527f00000000000000000000000000000000000000000000000000000000000000006001600160a01b03169063714e7f3290604401600060405180830381600087803b15801561138157600080fd5b505af1158015611395573d6000803e3d6000fd5b505050506113a4818686612b05565b60006113b18289896127eb565b90507f8dac501f24f52bda9ebdfa6a1789878c1d1e23823c771f7d52b5ba41261b0f4581838c8c88886113e26127cc565b6040516113f5979695949392919061489f565b60405180910390a1509998505050505050505050565b6040516301fd03bb60e71b81526004810184905260248101839052604481018290526060906000906001600160a01b037f0000000000000000000000000000000000000000000000000000000000000000169063fe81dd8090606401600060405180830381865afa158015611484573d6000803e3d6000fd5b505050506040513d6000823e601f3d908101601f191682016040526114ac9190810190614912565b8051909150806001600160401b038111156114c9576114c96143e0565b60405190808252806020026020018201604052801561150257816020015b6114ef6139a5565b8152602001906001900390816114e75790505b50925060005b81811015611571576000838281518110611524576115246149b7565b602002602001015190506040518060400160405280828152602001611548836123e7565b81525085838151811061155d5761155d6149b7565b602090810291909101015250600101611508565b5050509392505050565b6040516331a9108f60e11b815260048101849052611610907f00000000000000000000000000000000000000000000000000000000000000006001600160a01b031690636352211e90602401602060405180830381865afa1580156115e4573d6000803e3d6000fd5b505050506040513d601f19601f820116820180604052508101906116089190614652565b846006612621565b60008381526001602052604090206116298284836147df565b50827f0f3d240fe5efaeda774d27bf0425f932ddd2098297b26de8070d6c8bef534b1683836116566127cc565b604051611665939291906149cd565b60405180910390a2505050565b6040516331a9108f60e11b815260048101859052611707907f00000000000000000000000000000000000000000000000000000000000000006001600160a01b031690636352211e90602401602060405180830381865afa1580156116db573d6000803e3d6000fd5b505050506040513d601f19601f820116820180604052508101906116ff9190614652565b856011612621565b604051638a36dffd60e01b81526001600160a01b037f00000000000000000000000000000000000000000000000000000000000000001690638a36dffd906109cf908790879087908790600401614a24565b600061176c61176783612739565b6123e7565b610120015192915050565b6117948585600a61178f8261178a6127cc565b612c7c565b6127db565b826000036117b5576040516346545c9960e11b815260040160405180910390fd5b83856001600160a01b03167fdf04e13ee4fcd48a81ab2fd114757093740a3efa9b6475d86e05878b4c59d0798585856117ec6127cc565b6040516117fc9493929190614ba8565b60405180910390a360405163124d91e560e01b81526001600160a01b037f0000000000000000000000000000000000000000000000000000000000000000169063124d91e59061092a90889088908890600401614bdb565b6001602052600090815260409020805461186d90614755565b80601f016020809104026020016040519081016040528092919081815260200182805461189990614755565b80156118e65780601f106118bb576101008083540402835291602001916118e6565b820191906000526020600020905b8154815290600101906020018083116118c957829003601f168201915b505050505081565b60006118fc61176783612739565b610100015192915050565b6119138484600c612621565b600061191e84612739565b61010081015190915060451c60019081160361194d57604051636af4c57760e01b815260040160405180910390fd5b60405163b1e6d2a160e01b81526001600160a01b038681166004830152602482018690528481166044830152606482018490527f0000000000000000000000000000000000000000000000000000000000000000169063b1e6d2a19060840161092a565b6119b96138bd565b6119c1613909565b610fb283612d19565b6119d26138bd565b6119da613909565b60405163855a54ed60e01b8152600481018490526000907f00000000000000000000000000000000000000000000000000000000000000006001600160a01b03169063855a54ed9060240161014060405180830381865afa158015611a43573d6000803e3d6000fd5b505050506040513d601f19601f82011682018060405250810190611a679190614bfc565b9093509050611a75836123e7565b91509193909250565b600085600003611aa15760405163064fae8d60e41b815260040160405180910390fd5b600080611aad89612739565b6040516331a9108f60e11b8152600481018b9052909150611b8f906001600160a01b037f00000000000000000000000000000000000000000000000000000000000000001690636352211e90602401602060405180830381865afa158015611b19573d6000803e3d6000fd5b505050506040513d601f19601f82011682018060405250810190611b3d9190614652565b8a6009611b4c8261178a6127cc565b80611b77575061010085015160521c6001600160a01b0316611b6c6127cc565b6001600160a01b0316145b8061178f575061178f8d86611b8a6127cc565b612d6e565b602081015165ffffffffffff1615801590611bb6575061010081015160461c600190811614155b8015611bcb5750611bc98961178a6127cc565b155b8015611bf8575061010081015160521c6001600160a01b0316611bec6127cc565b6001600160a01b031614155b8015611c0e5750611c0c8982611b8a6127cc565b155b15611c2c57604051632475c19d60e21b815260040160405180910390fd5b83611c38576000611c42565b61010081015160041c5b61ffff1691506127108214611d0157611c6988611c6184612710614c2f565b612710612e85565b60405163aab68bdb60e01b81529093506001600160a01b037f0000000000000000000000000000000000000000000000000000000000000000169063aab68bdb90611cbc908a908d908890600401614bdb565b6020604051808303816000875af1158015611cdb573d6000803e3d6000fd5b505050506040513d601f19601f82011682018060405250810190611cff9190614652565b505b88876001600160a01b03167fe6fee9c572244c0c2238c3112ac12d411750a7ee00eeebd32521c3e5a666c14b8a868a8a88611d3a6127cc565b604051611d4c96959493929190614c42565b60405180910390a38115611d8857611d648389614c2f565b60008a81526020819052604081208054909190611d82908490614701565b90915550505b50509695505050505050565b6000611d9e6127cc565b90507f00000000000000000000000000000000000000000000000000000000000000006001600160a01b0316816001600160a01b031614611e2557604051639653dbed60e01b81526001600160a01b0380831660048301527f0000000000000000000000000000000000000000000000000000000000000000166024820152604401610f2a565b6040516301ffc9a760e01b81526334ce2c7b60e21b60048201526001600160a01b038416906301ffc9a790602401602060405180830381865afa158015611e70573d6000803e3d6000fd5b505050506040513d601f19601f82011682018060405250810190611e949190614c85565b15610f935760405163a312889b60e01b8152600481018390526001600160a01b0384169063a312889b90602401600060405180830381865afa158015611ede573d6000803e3d6000fd5b505050506040513d6000823e601f3d908101601f19168201604052611f069190810190614ca2565b600083815260016020526040902090611f1f9082614d35565b50505050565b6040516331a9108f60e11b815260048101839052611fba907f00000000000000000000000000000000000000000000000000000000000000006001600160a01b031690636352211e90602401602060405180830381865afa158015611f8e573d6000803e3d6000fd5b505050506040513d601f19601f82011682018060405250810190611fb29190614652565b836008612621565b6000611fc583612739565b9050806020015165ffffffffffff16600003611fe757611fe483612d19565b90505b61010081015160471c60019081161461201357604051631b6846ab60e01b815260040160405180910390fd5b60405163f12b64a560e01b8152600481018490526001600160a01b0383811660248301527f0000000000000000000000000000000000000000000000000000000000000000169063f12b64a590604401600060405180830381600087803b15801561207d57600080fd5b505af1158015612091573d6000803e3d6000fd5b50505050505050565b3330146120a657600080fd5b6120ba6001600160a01b0386168886612f59565b60405163fef4325760e01b81526001600160a01b0388169063fef43257906120f39089908990899089906000908a908a90600401614df4565b6020604051808303816000875af1158015612112573d6000803e3d6000fd5b505050506040513d601f19601f8201168201806040525081019061213691906146d2565b50604051636eb1769f60e11b81523060048201526001600160a01b03888116602483015286169063dd62ed3e90604401602060405180830381865afa158015612183573d6000803e3d6000fd5b505050506040513d601f19601f820116820180604052508101906121a791906146d2565b1561209157612091614e4f565b600081815260208190526040812054908190036121e4576040516364d7bdaf60e01b815260040160405180910390fd5b60006121ef83612739565b6040516331a9108f60e11b8152600481018590529091506000906001600160a01b037f00000000000000000000000000000000000000000000000000000000000000001690636352211e90602401602060405180830381865afa15801561225a573d6000803e3d6000fd5b505050506040513d601f19601f8201168201806040525081019061227e9190614652565b6000858152602081905260408082208290555163aab68bdb60e01b8152919250906001600160a01b037f0000000000000000000000000000000000000000000000000000000000000000169063aab68bdb906122e290309089908990600401614bdb565b6020604051808303816000875af1158015612301573d6000803e3d6000fd5b505050506040513d601f19601f820116820180604052508101906123259190614652565b90506000841561234e5761234986856020015165ffffffffffff1660018886613017565b612351565b60005b905080156123655761236586828585613523565b85846000015165ffffffffffff16856020015165ffffffffffff167f32411cac611c47cfe73afc187645c9cf3aec828d5f91780138d8421378fc0edb8689866123ac6127cc565b604080516001600160a01b0395861681526020810194909452830191909152909116606082015260800160405180910390a450505050919050565b6123ef613909565b60405180610260016040528061240a84610100015160041c90565b61ffff16815260200161242284610100015160141c90565b61ffff16815260200161243a84610100015160241c90565b63ffffffff16815260200161245c846101000151600160449190911c81161490565b1515815260200161247a846101000151600160459190911c81161490565b15158152602001612498846101000151600160469190911c81161490565b151581526020016124b6846101000151600160479190911c81161490565b151581526020016124d4846101000151600160489190911c81161490565b151581526020016124f2846101000151600160499190911c81161490565b151581526020016125108461010001516001604a9190911c81161490565b1515815260200161252e8461010001516001604b9190911c81161490565b1515815260200161254c8461010001516001604c9190911c81161490565b1515815260200161256a8461010001516001604d9190911c81161490565b151581526020016125888461010001516001604e9190911c81161490565b151581526020016125a68461010001516001604f9190911c81161490565b151581526020016125c4846101000151600160509190911c81161490565b151581526020016125e2846101000151600160519190911c81161490565b151581526020016125f884610100015160521c90565b6001600160a01b0316815260200161261584610100015160f21c90565b61ffff16905292915050565b600061262b6127cc565b9050836001600160a01b0316816001600160a01b0316141580156126fa5750604051631a45b42760e11b81526001600160a01b0382811660048301528581166024830152604482018590526064820184905260016084830181905260a48301527f0000000000000000000000000000000000000000000000000000000000000000169063348b684e9060c401602060405180830381865afa1580156126d4573d6000803e3d6000fd5b505050506040513d601f19601f820116820180604052508101906126f89190614c85565b155b15611f1f57604051631326f75560e11b81526001600160a01b038086166004830152821660248201526044810184905260648101839052608401610f2a565b6127416138bd565b6040516321d1336160e11b8152600481018390527f00000000000000000000000000000000000000000000000000000000000000006001600160a01b0316906343a266c2906024015b61012060405180830381865afa1580156127a8573d6000803e3d6000fd5b505050506040513d601f19601f820116820180604052508101906107369190614635565b60006127d66135ad565b905090565b80611f1f57611f1f848484612621565b6000805b82811015612afd57600084848381811061280b5761280b6149b7565b905060200281019061281d9190614e65565b61282690615352565b905061271061ffff168160a001516000015161ffff1611156128705760a08101515160405163a162453f60e01b815261ffff90911660048201526127106024820152604401610f2a565b61271061ffff168160a001516020015161ffff1611156128bb5760a0810151602001516040516318e037d360e11b815261ffff90911660048201526127106024820152604401610f2a565b60007f00000000000000000000000000000000000000000000000000000000000000006001600160a01b03166370174dcc88846020015185604001518660600151876080015161290e8960a00151613622565b895160405160e089901b6001600160e01b0319168152600481019790975263ffffffff95861660248801526001600160701b0390941660448701529390911660648501526001600160a01b0316608484015260a483019190915265ffffffffffff1660c482015260e401610120604051808303816000875af1158015612998573d6000803e3d6000fd5b505050506040513d601f19601f820116820180604052508101906129bc9190614635565b602081015160c0840151604051638a36dffd60e01b81529293506001600160a01b037f00000000000000000000000000000000000000000000000000000000000000001692638a36dffd92612a15928c92600401615487565b600060405180830381600087803b158015612a2f57600080fd5b505af1158015612a43573d6000803e3d6000fd5b505050602082015160e08401516040516323c620f360e21b81526001600160a01b037f0000000000000000000000000000000000000000000000000000000000000000169350638f1883cc92612a9d928c926004016155a0565b600060405180830381600087803b158015612ab757600080fd5b505af1158015612acb573d6000803e3d6000fd5b50612add925060019150879050614c2f565b8303612af357806020015165ffffffffffff1693505b50506001016127ef565b509392505050565b6000816001600160401b03811115612b1f57612b1f6143e0565b604051908082528060200260200182016040528015612b48578160200160208202803683370190505b50905060005b82811015612c27576000848483818110612b6a57612b6a6149b7565b9050602002810190612b7c919061564e565b612b8590615664565b805160208201516040516304a6e43960e31b81529293506001600160a01b039091169163253721c891612bbd918a9190600401615761565b600060405180830381600087803b158015612bd757600080fd5b505af1158015612beb573d6000803e3d6000fd5b505050508060000151838381518110612c0657612c066149b7565b6001600160a01b039092166020928302919091019091015250600101612b4e565b508115611f1f5760405163104373fb60e31b81526001600160a01b037f0000000000000000000000000000000000000000000000000000000000000000169063821b9fd8906109cf90879085906004016157d9565b604051636e49181f60e01b8152600481018390526001600160a01b0382811660248301526000917f000000000000000000000000000000000000000000000000000000000000000090911690636e49181f90604401602060405180830381865afa158015612cee573d6000803e3d6000fd5b505050506040513d601f19601f82011682018060405250810190612d129190614c85565b9392505050565b612d216138bd565b604051631735e2c560e11b8152600481018390527f00000000000000000000000000000000000000000000000000000000000000006001600160a01b031690632e6bc58a9060240161278a565b600080612d8084610100015160521c90565b90506001600160a01b03811615801590612e0457506040516301ffc9a760e01b815263eeb73e8960e01b60048201526001600160a01b038216906301ffc9a790602401602060405180830381865afa158015612de0573d6000803e3d6000fd5b505050506040513d601f19601f82011682018060405250810190612e049190614c85565b8015612e7c57506040516399f6d77f60e01b81526001600160a01b038216906399f6d77f90612e3b90889088908890600401615832565b602060405180830381865afa158015612e58573d6000803e3d6000fd5b505050506040513d601f19601f82011682018060405250810190612e7c9190614c85565b95945050505050565b6000808060001985870985870292508281108382030391505080600003612ebf57838281612eb557612eb5615861565b0492505050612d12565b838110612ef057604051630c740aef60e31b8152600481018790526024810186905260448101859052606401610f2a565b60008486880960026001871981018816978890046003810283188082028403028082028403028082028403028082028403028082028403029081029092039091026000889003889004909101858311909403939093029303949094049190911702949350505050565b604080516001600160a01b038416602482015260448082018490528251808303909101815260649091019091526020810180516001600160e01b031663095ea7b360e01b179052612faa84826137cc565b611f1f576040516001600160a01b0384811660248301526000604483015261300d91869182169063095ea7b3906064015b604051602081830303815290604052915060e01b6020820180516001600160e01b03838183161783525050505061381b565b611f1f848261381b565b6040516369e11cc560e01b815260048101869052602481018590526044810184905282906000907f00000000000000000000000000000000000000000000000000000000000000006001600160a01b0316906369e11cc590606401600060405180830381865afa15801561308f573d6000803e3d6000fd5b505050506040513d6000823e601f3d908101601f191682016040526130b79190810190615877565b805190915060005b818110156135175760008382815181106130db576130db6149b7565b60200260200101519050600061310688836000015163ffffffff16633b9aca0063ffffffff16612e85565b905080156134c85760a08201516001600160a01b0316156131ce576131318b828460a001518a613523565b8160a001516001600160a01b031663c5a093886040518060c001604052808a6001600160a01b03168152602001848152602001601281526020018e81526020018c8152602001858152506040518263ffffffff1660e01b8152600401613197919061597c565b600060405180830381600087803b1580156131b157600080fd5b505af11580156131c5573d6000803e3d6000fd5b505050506134bb565b60408201516000906001600160a01b03166131f0576131eb6127cc565b6131f6565b82604001515b905082602001516001600160401b03166000146134135760006001600160a01b038916156132c2576020840151604051630862026560e41b81526001600160401b0390911660048201526001600160a01b038a811660248301527f00000000000000000000000000000000000000000000000000000000000000001690638620265090604401602060405180830381865afa158015613299573d6000803e3d6000fd5b505050506040513d601f19601f820116820180604052508101906132bd9190614652565b6132c5565b60005b90506001600160a01b03891615806132e457506001600160a01b038116155b156132fa576132f58d84848c613523565b61340d565b60008d60405160200161330f91815260200190565b60408051601f1981840301815290829052602087015163fb61b4e360e01b8352909250309163fb61b4e391613351918691908f908a908a9089906004016159d0565b600060405180830381600087803b15801561336b57600080fd5b505af192505050801561337c575060015b61340b573d8080156133aa576040519150601f19603f3d011682016040523d82523d6000602084013e6133af565b606091505b508e7fdba24f3504238ca84f6411d16a14bb7ae54061b0a80892bf93eb5a8912ed73558787846133dd6127cc565b6040516133ed9493929190615a1a565b60405180910390a26134096001600160a01b038c16858761388c565b505b505b506134b9565b61deac196001600160a01b038216016134ad577f00000000000000000000000000000000000000000000000000000000000000006001600160a01b031663124d91e5308e856040518463ffffffff1660e01b815260040161347693929190614bdb565b600060405180830381600087803b15801561349057600080fd5b505af11580156134a4573d6000803e3d6000fd5b505050506134b9565b6134b98c83838b613523565b505b6134c58187614c2f565b95505b888a8c7fbfcad5a78fa104a30927810dfb51a41d1119d43ce12be27620ab589e1273cebe85856134f66127cc565b60405161350593929190615a5c565b60405180910390a450506001016130bf565b50505095945050505050565b6001600160a01b0381161561354b576135466001600160a01b038216838561388c565b611f1f565b60405163b1e6d2a160e01b8152306004820152602481018590526001600160a01b038381166044830152606482018590527f0000000000000000000000000000000000000000000000000000000000000000169063b1e6d2a1906084016109cf565b6000366014336001600160a01b037f0000000000000000000000000000000000000000000000000000000000000000161480156135ea5750808210155b1561361a576000366135fc8385614c2f565b613607928290615a8a565b61361091615ab4565b60601c9250505090565b339250505090565b6000600190506004826000015161ffff16901b811790506014826020015161ffff16901b811790506024826040015163ffffffff16901b811790508160600151156136735768100000000000000000175b8160800151156136895768200000000000000000175b8160a001511561369f5768400000000000000000175b8160c00151156136b55768800000000000000000175b8160e00151156136cc576901000000000000000000175b816101000151156136e4576902000000000000000000175b816101200151156136fc576904000000000000000000175b81610140015115613714576908000000000000000000175b8161016001511561372c576910000000000000000000175b81610180015115613744576920000000000000000000175b816101a001511561375c576940000000000000000000175b816101c0015115613774576980000000000000000000175b816101e001511561378657600160501b175b8161020001511561379857600160511b175b6102208201516102409092015160529290921b600160521b600160f21b03161760f29190911b6001600160f21b0319161790565b6000806000806020600086516020880160008a5af192503d91506000519050828015613811575081156138025780600114613811565b6000866001600160a01b03163b115b9695505050505050565b600080602060008451602086016000885af18061383e576040513d6000823e3d81fd5b50506000513d91508115613856578060011415613863565b6001600160a01b0384163b155b15611f1f57604051635274afe760e01b81526001600160a01b0385166004820152602401610f2a565b6040516001600160a01b03838116602483015260448201839052610f9391859182169063a9059cbb90606401612fdb565b6040805161012081018252600080825260208201819052918101829052606081018290526080810182905260a0810182905260c0810182905260e0810182905261010081019190915290565b6040805161026081018252600080825260208201819052918101829052606081018290526080810182905260a0810182905260c0810182905260e08101829052610100810182905261012081018290526101408101829052610160810182905261018081018290526101a081018290526101c081018290526101e081018290526102008101829052610220810182905261024081019190915290565b60405180604001604052806139b86138bd565b81526020016139c5613909565b905290565b6000602082840312156139dc57600080fd5b81356001600160e01b031981168114612d1257600080fd5b600060208284031215613a0657600080fd5b5035919050565b60008060408385031215613a2057600080fd5b50508035926020909101359150565b65ffffffffffff808251168352806020830151166020840152806040830151166040840152506060810151613a6e606084018265ffffffffffff169052565b506080810151613a86608084018263ffffffff169052565b5060a0810151613aa160a08401826001600160701b03169052565b5060c0810151613ab960c084018263ffffffff169052565b5060e0810151613ad460e08401826001600160a01b03169052565b5061010090810151910152565b805161ffff1682526020810151613afe602084018261ffff169052565b506040810151613b16604084018263ffffffff169052565b506060810151613b2a606084018215159052565b506080810151613b3e608084018215159052565b5060a0810151613b5260a084018215159052565b5060c0810151613b6660c084018215159052565b5060e0810151613b7a60e084018215159052565b5061010081810151151590830152610120808201511515908301526101408082015115159083015261016080820151151590830152610180808201511515908301526101a0808201511515908301526101c0808201511515908301526101e08082015115159083015261020080820151151590830152610220808201516001600160a01b0316908301526102408082015161ffff811682850152611f1f565b6103808101613c288285613a2f565b612d12610120830184613ae1565b6001600160a01b0381168114613c4b57600080fd5b50565b60008060008060808587031215613c6457600080fd5b8435935060208501359250604085013591506060850135613c8481613c36565b939692955090935050565b8035613c9a81613c36565b919050565b60008060008060808587031215613cb557600080fd5b8435613cc081613c36565b935060208501359250604085013591506060850135613c8481613c36565b60008083601f840112613cf057600080fd5b5081356001600160401b03811115613d0757600080fd5b6020830191508360208260051b8501011115613d2257600080fd5b9250929050565b60008083601f840112613d3b57600080fd5b5081356001600160401b03811115613d5257600080fd5b602083019150836020828501011115613d2257600080fd5b600080600080600060608688031215613d8257600080fd5b8535945060208601356001600160401b0380821115613da057600080fd5b613dac89838a01613cde565b90965094506040880135915080821115613dc557600080fd5b50613dd288828901613d29565b969995985093965092949392505050565b60008060008060008060006080888a031215613dfe57600080fd5b8735965060208801356001600160401b0380821115613e1c57600080fd5b613e288b838c01613cde565b909850965060408a0135915080821115613e4157600080fd5b613e4d8b838c01613cde565b909650945060608a0135915080821115613e6657600080fd5b50613e738a828b01613d29565b989b979a50959850939692959293505050565b60008060408385031215613e9957600080fd5b823591506020830135613eab81613c36565b809150509250929050565b600060208284031215613ec857600080fd5b8135612d1281613c36565b60008060008060008060808789031215613eec57600080fd5b8635955060208701356001600160401b0380821115613f0a57600080fd5b613f168a838b01613d29565b90975095506040890135915080821115613f2f57600080fd5b50613f3c89828a01613d29565b979a9699509497949695606090950135949350505050565b600080600080600080600080600060a08a8c031215613f7257600080fd5b8935613f7d81613c36565b985060208a01356001600160401b0380821115613f9957600080fd5b613fa58d838e01613d29565b909a50985060408c0135915080821115613fbe57600080fd5b613fca8d838e01613cde565b909850965060608c0135915080821115613fe357600080fd5b613fef8d838e01613cde565b909650945060808c013591508082111561400857600080fd5b506140158c828d01613d29565b915080935050809150509295985092959850929598565b60008060006060848603121561404157600080fd5b505081359360208301359350604090920135919050565b6020808252825182820181905260009190848201906040850190845b818110156140af578351614089848251613a2f565b85015161409a610120850182613ae1565b50928401926103809290920191600101614074565b50909695505050505050565b6000806000604084860312156140d057600080fd5b8335925060208401356001600160401b038111156140ed57600080fd5b6140f986828701613d29565b9497909650939450505050565b6000806000806060858703121561411c57600080fd5b843593506020850135925060408501356001600160401b0381111561414057600080fd5b61414c87828801613cde565b95989497509550505050565b60008060008060006080868803121561417057600080fd5b853561417b81613c36565b9450602086013593506040860135925060608601356001600160401b038111156141a457600080fd5b613dd288828901613d29565b60005b838110156141cb5781810151838201526020016141b3565b50506000910152565b600081518084526141ec8160208601602086016141b0565b601f01601f19169290920160200192915050565b602081526000612d1260208301846141d4565b6000806000806080858703121561422957600080fd5b843561423481613c36565b935060208501359250604085013561424b81613c36565b9396929550929360600135925050565b6103a0810161426a8286613a2f565b614278610120830185613ae1565b6006831061429657634e487b7160e01b600052602160045260246000fd5b82610380830152949350505050565b8015158114613c4b57600080fd5b8035613c9a816142a5565b60008060008060008060a087890312156142d757600080fd5b863595506020870135945060408701356142f081613c36565b935060608701356001600160401b0381111561430b57600080fd5b61431789828a01613d29565b909450925050608087013561432b816142a5565b809150509295509295509295565b6000806040838503121561434c57600080fd5b823561435781613c36565b946020939093013593505050565b600080600080600080600060c0888a03121561438057600080fd5b873561438b81613c36565b96506020880135955060408801356143a281613c36565b94506060880135935060808801356143b981613c36565b925060a08801356001600160401b038111156143d457600080fd5b613e738a828b01613d29565b634e487b7160e01b600052604160045260246000fd5b60405161012081016001600160401b0381118282101715614419576144196143e0565b60405290565b60405161026081016001600160401b0381118282101715614419576144196143e0565b604080519081016001600160401b0381118282101715614419576144196143e0565b60405160c081016001600160401b0381118282101715614419576144196143e0565b604051608081016001600160401b0381118282101715614419576144196143e0565b60405161010081016001600160401b0381118282101715614419576144196143e0565b604051606081016001600160401b0381118282101715614419576144196143e0565b604051601f8201601f191681016001600160401b0381118282101715614515576145156143e0565b604052919050565b65ffffffffffff81168114613c4b57600080fd5b8051613c9a8161451d565b63ffffffff81168114613c4b57600080fd5b8051613c9a8161453c565b6001600160701b0381168114613c4b57600080fd5b8051613c9a81614559565b8051613c9a81613c36565b6000610120828403121561459757600080fd5b61459f6143f6565b90506145aa82614531565b81526145b860208301614531565b60208201526145c960408301614531565b60408201526145da60608301614531565b60608201526145eb6080830161454e565b60808201526145fc60a0830161456e565b60a082015261460d60c0830161454e565b60c082015261461e60e08301614579565b60e082015261010080830151818301525092915050565b6000610120828403121561464857600080fd5b612d128383614584565b60006020828403121561466457600080fd5b8151612d1281613c36565b81835281816020850137506000828201602090810191909152601f909101601f19169091010190565b8581528460208201526080604082015260006146b860808301858761466f565b905060018060a01b03831660608301529695505050505050565b6000602082840312156146e457600080fd5b5051919050565b634e487b7160e01b600052601160045260246000fd5b80820180821115610736576107366146eb565b86815260806020820152600061472e60808301878961466f565b828103604084015261474181868861466f565b915050826060830152979650505050505050565b600181811c9082168061476957607f821691505b60208210810361478957634e487b7160e01b600052602260045260246000fd5b50919050565b601f821115610f93576000816000526020600020601f850160051c810160208610156147b85750805b601f850160051c820191505b818110156147d7578281556001016147c4565b505050505050565b6001600160401b038311156147f6576147f66143e0565b61480a836148048354614755565b8361478f565b6000601f84116001811461483e57600085156148265750838201355b600019600387901b1c1916600186901b178355614898565b600083815260209020601f19861690835b8281101561486f578685013582556020948501946001909201910161484f565b508682101561488c5760001960f88860031b161c19848701351681555b505060018560011b0183555b5050505050565b87815286602082015260a0604082015260006148bf60a08301878961466f565b82810360608401526148d281868861466f565b91505060018060a01b038316608083015298975050505050505050565b60006001600160401b03821115614908576149086143e0565b5060051b60200190565b6000602080838503121561492557600080fd5b82516001600160401b0381111561493b57600080fd5b8301601f8101851361494c57600080fd5b805161495f61495a826148ef565b6144ed565b80828252602082019150610120602081850286010193508884111561498357600080fd5b6020850194505b838510156149ab5761499c8986614584565b8352938401939185019161498a565b50979650505050505050565b634e487b7160e01b600052603260045260246000fd5b6040815260006149e160408301858761466f565b905060018060a01b0383166020830152949350505050565b8035613c9a8161453c565b6001600160401b0381168114613c4b57600080fd5b8035613c9a8161451d565b6000606080830187845260208781860152604060606040870152828784526080935060808701905060808860051b8801018960005b8a811015614b9657898303607f190184528135368d9003603e19018112614a7f57600080fd5b8c01803584528386018782013536839003601e19018112614a9f57600080fd5b9091018781019190356001600160401b0380821115614abd57600080fd5b60c08083023603851315614ad057600080fd5b878b018a9052928290526000928c88015b83851015614b7f578535614af48161453c565b63ffffffff168152858c0135614b0981614a04565b8316818d0152858b0135614b1c81613c36565b6001600160a01b0316818c0152858e0135614b36816142a5565b1515818f0152614b47868e01614a19565b65ffffffffffff168d82015260a0614b60878201613c8f565b6001600160a01b03169082015294810194600194909401938101614ae1565b988b01989750505093880193505050600101614a59565b50909c9b505050505050505050505050565b848152606060208201526000614bc260608301858761466f565b905060018060a01b038316604083015295945050505050565b6001600160a01b039390931683526020830191909152604082015260600190565b6000806101408385031215614c1057600080fd5b614c1a8484614584565b915061012083015160068110613eab57600080fd5b81810381811115610736576107366146eb565b86815285602082015260a060408201526000614c6260a08301868861466f565b6060830194909452506001600160a01b0391909116608090910152949350505050565b600060208284031215614c9757600080fd5b8151612d12816142a5565b600060208284031215614cb457600080fd5b81516001600160401b0380821115614ccb57600080fd5b818401915084601f830112614cdf57600080fd5b815181811115614cf157614cf16143e0565b614d04601f8201601f19166020016144ed565b9150808252856020828501011115614d1b57600080fd5b614d2c8160208401602086016141b0565b50949350505050565b81516001600160401b03811115614d4e57614d4e6143e0565b614d6281614d5c8454614755565b8461478f565b602080601f831160018114614d975760008415614d7f5750858301515b600019600386901b1c1916600185901b1785556147d7565b600085815260208120601f198616915b82811015614dc657888601518255948401946001909101908401614da7565b5085821015614de45787850151600019600388901b60f8161c191681555b5050505050600190811b01905550565b878152600060018060a01b03808916602084015287604084015280871660608401525084608083015260e060a0830152600060e08301526101008060c0840152614e41818401858761466f565b9a9950505050505050505050565b634e487b7160e01b600052600160045260246000fd5b6000823561033e19833603018112614e7c57600080fd5b9190910192915050565b8035613c9a81614559565b803561ffff81168114613c9a57600080fd5b60006102608284031215614eb657600080fd5b614ebe61441f565b9050614ec982614e91565b8152614ed760208301614e91565b6020820152614ee8604083016149f9565b6040820152614ef9606083016142b3565b6060820152614f0a608083016142b3565b6080820152614f1b60a083016142b3565b60a0820152614f2c60c083016142b3565b60c0820152614f3d60e083016142b3565b60e0820152610100614f508184016142b3565b90820152610120614f628382016142b3565b90820152610140614f748382016142b3565b90820152610160614f868382016142b3565b90820152610180614f988382016142b3565b908201526101a0614faa8382016142b3565b908201526101c0614fbc8382016142b3565b908201526101e0614fce8382016142b3565b90820152610200614fe08382016142b3565b90820152610220614ff2838201613c8f565b90820152610240615004838201614e91565b9082015292915050565b600082601f83011261501f57600080fd5b8135602061502f61495a836148ef565b82815260059290921b8401810191818101908684111561504e57600080fd5b8286015b848110156151a25780356001600160401b038082111561507157600080fd5b908801906040828b03601f190181131561508a57600080fd5b615092614442565b87840135815281840135838111156150a957600080fd5b8085019450508b603f8501126150be57600080fd5b8784013592506150d061495a846148ef565b83815260c09093028401820192888101908d8511156150ee57600080fd5b948301945b8486101561518d5760c0868f03121561510b57600080fd5b615113614464565b863561511e8161453c565b8152868b013561512d81614a04565b818c01528685013561513e81613c36565b818601526060870135615150816142a5565b606082015260808701356151638161451d565b608082015260a087013561517681613c36565b60a0820152825260c09590950194908901906150f3565b828a0152508652505050918301918301615052565b509695505050505050565b600082601f8301126151be57600080fd5b813560206151ce61495a836148ef565b82815260069290921b840181019181810190868411156151ed57600080fd5b8286015b848110156151a2576040818903121561520a5760008081fd5b615212614442565b81356001600160e01b038116811461522a5760008081fd5b8152818501356152398161453c565b818601528352918301916040016151f1565b600082601f83011261525c57600080fd5b8135602061526c61495a836148ef565b82815260059290921b8401810191818101908684111561528b57600080fd5b8286015b848110156151a25780356001600160401b03808211156152af5760008081fd5b908801906080828b03601f19018113156152c95760008081fd5b6152d1614486565b878401356152de81613c36565b81526040848101356152ef81613c36565b828a0152606085810135858111156153075760008081fd5b6153158f8c838a01016151ad565b848401525092850135928484111561532f57600091508182fd5b61533d8e8b868901016151ad565b9083015250865250505091830191830161528f565b6000610340823603121561536557600080fd5b61536d6144a8565b61537683614a19565b8152615384602084016149f9565b602082015261539560408401614e86565b60408201526153a6606084016149f9565b60608201526153b760808401613c8f565b60808201526153c93660a08501614ea3565b60a08201526103008301356001600160401b03808211156153e957600080fd5b6153f53683870161500e565b60c084015261032085013591508082111561540f57600080fd5b5061541c3682860161524b565b60e08301525092915050565b805163ffffffff1682526020808201516001600160401b0316908301526040808201516001600160a01b039081169184019190915260608083015115159084015260808083015165ffffffffffff169084015260a09182015116910152565b60006060808301868452602065ffffffffffff87168186015260406060604087015282875180855260808801915060808160051b89010194508389016000805b83811015615538578a8803607f190185528251805189528701518789018790528051878a018190529088019083908b8b01905b808310156155235761550d828551615428565b60c0820191508a840193506001830192506154fa565b509950505093860193918601916001016154c7565b50959c9b505050505050505050505050565b60008151808452602080850194506020840160005b8381101561559557815180516001600160e01b0316885283015163ffffffff16838801526040909601959082019060010161555f565b509495945050505050565b60006060808301868452602065ffffffffffff8716818601526040606060408701528287518085526080945060808801915060808160051b890101848a0160005b83811015614b96578a8303607f19018552815180516001600160a01b039081168552888201511688850152868101518785018a90526156228a86018261554a565b918b0151858303868d015291905061563a818361554a565b9689019694505050908601906001016155e1565b60008235603e19833603018112614e7c57600080fd5b6000604080833603121561567757600080fd5b61567f614442565b833561568a81613c36565b81526020848101356001600160401b038111156156a657600080fd5b850136601f8201126156b757600080fd5b80356156c561495a826148ef565b818152606091820283018401918482019190368411156156e457600080fd5b938501935b8385101561574e578085360312156157015760008081fd5b6157096144cb565b853561571481613c36565b81528587013560ff8116811461572a5760008081fd5b818801528589013561573b8161453c565b818a0152835293840193918501916156e9565b5093850193909352509195945050505050565b60006040808301858452602060406020860152818651808452606093506060870191506020880160005b828110156157ca57815180516001600160a01b031685528581015160ff168686015287015163ffffffff1687850152928501929084019060010161578b565b50919998505050505050505050565b60006040820184835260206040602085015281855180845260608601915060208701935060005b818110156158255784516001600160a01b031683529383019391830191600101615800565b5090979650505050505050565b83815261016081016158476020830185613a2f565b6001600160a01b0392909216610140919091015292915050565b634e487b7160e01b600052601260045260246000fd5b6000602080838503121561588a57600080fd5b82516001600160401b038111156158a057600080fd5b8301601f810185136158b157600080fd5b80516158bf61495a826148ef565b81815260c091820283018401918482019190888411156158de57600080fd5b938501935b838510156149ab5780858a0312156158fb5760008081fd5b615903614464565b855161590e8161453c565b81528587015161591d81614a04565b8188015260408681015161593081613c36565b90820152606086810151615943816142a5565b908201526080868101516159568161451d565b9082015260a08681015161596981613c36565b90820152835293840193918501916158e3565b81516001600160a01b031681526020808301519082015260408083015190820152606080830151908201526080808301519082015260a0828101516101608301916159c990840182615428565b5092915050565b6001600160a01b0387811682526001600160401b03871660208301528581166040830152606082018590528316608082015260c060a08201819052600090611259908301846141d4565b6000610120615a298388615428565b8560c08401528060e0840152615a41818401866141d4565b91505060018060a01b03831661010083015295945050505050565b6101008101615a6b8286615428565b60c08201939093526001600160a01b039190911660e090910152919050565b60008085851115615a9a57600080fd5b83861115615aa757600080fd5b5050820193919092039150565b6bffffffffffffffffffffffff198135818116916014851015615ae15780818660140360031b1b83161692505b50509291505056fea26469706673582212201450db7c9b990c7ad6904bfbb50bc205e6bb5da70424322ee77ad92c3c006e8164736f6c63430008170033",
	"deployedBytecode": "0x608060405234801561001057600080fd5b50600436106102325760003560e01c80636567b40611610130578063b1e6d2a1116100b8578063f0118e181161007c578063f0118e18146105f7578063f12b64a51461060a578063f434c9141461061d578063fb61b4e314610644578063ffa082441461065757600080fd5b8063b1e6d2a114610575578063c02c63ad14610588578063c1ec61ee1461059b578063c7fb92de146105bd578063d4a1b4b1146105d057600080fd5b80638a36dffd116100ff5780638a36dffd1461050957806399d25a341461051c578063a2d532e61461052f578063a312889b14610542578063b1a50e331461056257600080fd5b80636567b40614610489578063702a3977146104a95780637da0a877146104bc57806388bc2ef3146104e257600080fd5b8063303f5dfa116101be578063419296261161018257806341929626146103fd5780634da781a914610410578063572b6c051461042357806358178191146104635780635c7465e51461047657600080fd5b8063303f5dfa146103915780633141db70146103a457806339284f35146103b757806339975571146103ca578063405b84fa146103ea57600080fd5b80631f47ce69116102055780631f47ce69146102e657806325a61d5c1461030d578063293c49991461032e5780632fa90203146103555780632fdb77e91461036a57600080fd5b806301ffc9a714610237578063090db2f11461025f5780631d831d5c146102805780631eabcd34146102bf575b600080fd5b61024a6102453660046139ca565b61067e565b60405190151581526020015b60405180910390f35b61027261026d3660046139f4565b61073c565b604051908152602001610256565b6102a77f000000000000000000000000a59e9f424901fb9dbd8913a9a32a081f9425bf3681565b6040516001600160a01b039091168152602001610256565b6102a77f000000000000000000000000e712d14b04f1a1fe464be930e3ea72b9b0a141d781565b6102a77f0000000000000000000000009e834f2ae0970f8746e25fba6d42fd90bb96630c81565b61032061031b366004613a0d565b610747565b604051610256929190613c19565b6102a77f0000000000000000000000000b538a02610d7d3cc91ce2870f423e0a34d646ad81565b610368610363366004613c4e565b6107fc565b005b6102a77f000000000000000000000000a7e0cbcfb2c6df7db07cc4ca05df681f1307cedd81565b61036861039f366004613c9f565b610963565b6102726103b2366004613d6a565b610a07565b6102726103c5366004613de3565b610b56565b6102726103d83660046139f4565b60006020819052908152604090205481565b6103686103f8366004613e86565b610eb4565b61032061040b3660046139f4565b610f99565b61027261041e3660046139f4565b610fc4565b61024a610431366004613eb6565b7f0000000000000000000000008a5ba591ed2bed5691a378c65611ed492500f8876001600160a01b0390811691161490565b6102a7610471366004613ed3565b611066565b610272610484366004613f54565b611265565b61049c61049736600461402c565b61140b565b6040516102569190614058565b6103686104b73660046140bb565b61157b565b7f0000000000000000000000008a5ba591ed2bed5691a378c65611ed492500f8876102a7565b6102a77f0000000000000000000000000bc9f153dee4d3d474ce0903775b9b2aaae9aa4181565b610368610517366004614106565b611672565b61024a61052a3660046139f4565b611759565b61036861053d366004614158565b611777565b6105556105503660046139f4565b611854565b6040516102569190614200565b61024a6105703660046139f4565b6118ee565b610368610583366004614213565b611907565b6103206105963660046139f4565b6119b1565b6105ae6105a93660046139f4565b6119ca565b6040516102569392919061425b565b6102726105cb3660046142be565b611a7e565b6102a77f000000000000000000000000da86eedb67c6c9fb3e58fe83efa28674d7c8982681565b610368610605366004614339565b611d94565b610368610618366004613e86565b611f25565b6102a77f000000000000000000000000f5ca295dc286a176e35ebb7833031fd95550eb1481565b610368610652366004614365565b61209a565b6102a77f000000000000000000000000f1e1df5bba779e977a27ccc273847ab1346fceb881565b60006001600160e01b03198216635709f28160e01b14806106af57506001600160e01b03198216632fdb77e960e01b145b806106ca57506001600160e01b031982166334ce2c7b60e21b145b806106e557506001600160e01b03198216632877540760e01b145b8061070057506001600160e01b03198216635825057160e11b145b8061071b57506001600160e01b03198216633d0d324560e21b145b8061073657506001600160e01b031982166301ffc9a760e01b145b92915050565b6000610736826121b4565b61074f6138bd565b610757613909565b604051630969875760e21b815260048101859052602481018490527f000000000000000000000000da86eedb67c6c9fb3e58fe83efa28674d7c898266001600160a01b0316906325a61d5c9060440161012060405180830381865afa1580156107c4573d6000803e3d6000fd5b505050506040513d601f19601f820116820180604052508101906107e89190614635565b91506107f3826123e7565b90509250929050565b6040516331a9108f60e11b815260048101859052610891907f0000000000000000000000000b538a02610d7d3cc91ce2870f423e0a34d646ad6001600160a01b031690636352211e90602401602060405180830381865afa158015610865573d6000803e3d6000fd5b505050506040513d601f19601f820116820180604052508101906108899190614652565b856012612621565b600061089c85612739565b610100810151909150604c1c6001908116146108cb576040516383d788ab60e01b815260040160405180910390fd5b60405163c6081d7160e01b81526004810186905260248101859052604481018490526001600160a01b0383811660648301527f000000000000000000000000e712d14b04f1a1fe464be930e3ea72b9b0a141d7169063c6081d71906084015b600060405180830381600087803b15801561094457600080fd5b505af1158015610958573d6000803e3d6000fd5b505050505050505050565b61096f8484600b612621565b60405163181faefd60e11b81526001600160a01b038581166004830152602482018590526044820184905282811660648301527f000000000000000000000000a59e9f424901fb9dbd8913a9a32a081f9425bf36169063303f5dfa906084015b600060405180830381600087803b1580156109e957600080fd5b505af11580156109fd573d6000803e3d6000fd5b5050505050505050565b6000838103610a2957604051632b72d06560e01b815260040160405180910390fd5b6040516331a9108f60e11b815260048101879052610afa907f0000000000000000000000000b538a02610d7d3cc91ce2870f423e0a34d646ad6001600160a01b031690636352211e90602401602060405180830381865afa158015610a92573d6000803e3d6000fd5b505050506040513d601f19601f82011682018060405250810190610ab69190614652565b8760026001600160a01b037f000000000000000000000000a7e0cbcfb2c6df7db07cc4ca05df681f1307cedd16610aeb6127cc565b6001600160a01b0316146127db565b610b058686866127eb565b90507f24d02d612b06648bfa2000859f3de7e6f336139eaf5877c24b0d21320625286281878585610b346127cc565b604051610b45959493929190614698565b60405180910390a195945050505050565b6000858103610b7857604051632b72d06560e01b815260040160405180910390fd5b6000610b826127cc565b6040516331a9108f60e11b8152600481018b9052909150610c52906001600160a01b037f0000000000000000000000000b538a02610d7d3cc91ce2870f423e0a34d646ad1690636352211e90602401602060405180830381865afa158015610bee573d6000803e3d6000fd5b505050506040513d601f19601f82011682018060405250810190610c129190614652565b8a600260ff167f000000000000000000000000a7e0cbcfb2c6df7db07cc4ca05df681f1307cedd6001600160a01b0316856001600160a01b0316146127db565b6040516331a9108f60e11b8152600481018a9052610d1f907f0000000000000000000000000b538a02610d7d3cc91ce2870f423e0a34d646ad6001600160a01b031690636352211e90602401602060405180830381865afa158015610cbb573d6000803e3d6000fd5b505050506040513d601f19601f82011682018060405250810190610cdf9190614652565b8a600e60ff167f000000000000000000000000a7e0cbcfb2c6df7db07cc4ca05df681f1307cedd6001600160a01b0316856001600160a01b0316146127db565b6040516319fade8560e11b8152600481018a90526000907f000000000000000000000000da86eedb67c6c9fb3e58fe83efa28674d7c898266001600160a01b0316906333f5bd0a90602401602060405180830381865afa158015610d87573d6000803e3d6000fd5b505050506040513d601f19601f82011682018060405250810190610dab91906146d2565b1115610dca576040516319d957db60e01b815260040160405180910390fd5b6040516338a73f9960e11b8152600481018a90523060248201527f0000000000000000000000000bc9f153dee4d3d474ce0903775b9b2aaae9aa416001600160a01b03169063714e7f3290604401600060405180830381600087803b158015610e3257600080fd5b505af1158015610e46573d6000803e3d6000fd5b50505050610e55898787612b05565b610e608989896127eb565b91507f23164adda696b19106c2eef50ba44461997682bf5aeb9fdb383117fa9952cc75828a8686610e8f6127cc565b604051610ea0959493929190614698565b60405180910390a150979650505050505050565b336001600160a01b037f0000000000000000000000000bc9f153dee4d3d474ce0903775b9b2aaae9aa411614610f3357604051639653dbed60e01b81523360048201526001600160a01b037f0000000000000000000000000bc9f153dee4d3d474ce0903775b9b2aaae9aa411660248201526044015b60405180910390fd5b604080516001600160a01b038316815233602082015283917f01f954abace731a88ab86e71186040cc2be49fe517ea06bc0d24f25b82b83456910160405180910390a260008281526020819052604090205415610f9557610f93826121b4565b505b5050565b610fa16138bd565b610fa9613909565b610fb283612739565b9150610fbd826123e7565b9050915091565b6000818152602081905260408082205490516375b0d9cd60e01b8152600481018490527f000000000000000000000000a59e9f424901fb9dbd8913a9a32a081f9425bf366001600160a01b0316906375b0d9cd90602401602060405180830381865afa158015611038573d6000803e3d6000fd5b505050506040513d601f19601f8201168201806040525081019061105c91906146d2565b6107369190614701565b6040516331a9108f60e11b8152600481018790526000906110fe906001600160a01b037f0000000000000000000000000b538a02610d7d3cc91ce2870f423e0a34d646ad1690636352211e90602401602060405180830381865afa1580156110d2573d6000803e3d6000fd5b505050506040513d601f19601f820116820180604052508101906110f69190614652565b886007612621565b60008261110c57600061115a565b6111146127cc565b8360405160200161114392919060609290921b6bffffffffffffffffffffffff19168252601482015260340190565b604051602081830303815290604052805190602001205b90506111646127cc565b6001600160a01b0316887fa05dbc6b81da28529b01c0a1d1166c44ccd67676f06d2441002870ec5bc4a15885846111996127cc565b6040805193845260208401929092526001600160a01b03169082015260600160405180910390a3604051635817819160e01b81526001600160a01b037f000000000000000000000000a59e9f424901fb9dbd8913a9a32a081f9425bf361690635817819190611216908b908b908b908b908b908990600401614714565b6020604051808303816000875af1158015611235573d6000803e3d6000fd5b505050506040513d601f19601f820116820180604052508101906112599190614652565b98975050505050505050565b60405163180e2b1160e31b81526001600160a01b038a811660048301526000917f0000000000000000000000000b538a02610d7d3cc91ce2870f423e0a34d646ad9091169063c0715888906024016020604051808303816000875af11580156112d2573d6000803e3d6000fd5b505050506040513d601f19601f820116820180604052508101906112f691906146d2565b90508715611319576000818152600160205260409020611317898b836147df565b505b6040516338a73f9960e11b8152600481018290523060248201527f0000000000000000000000000bc9f153dee4d3d474ce0903775b9b2aaae9aa416001600160a01b03169063714e7f3290604401600060405180830381600087803b15801561138157600080fd5b505af1158015611395573d6000803e3d6000fd5b505050506113a4818686612b05565b60006113b18289896127eb565b90507f8dac501f24f52bda9ebdfa6a1789878c1d1e23823c771f7d52b5ba41261b0f4581838c8c88886113e26127cc565b6040516113f5979695949392919061489f565b60405180910390a1509998505050505050505050565b6040516301fd03bb60e71b81526004810184905260248101839052604481018290526060906000906001600160a01b037f000000000000000000000000da86eedb67c6c9fb3e58fe83efa28674d7c89826169063fe81dd8090606401600060405180830381865afa158015611484573d6000803e3d6000fd5b505050506040513d6000823e601f3d908101601f191682016040526114ac9190810190614912565b8051909150806001600160401b038111156114c9576114c96143e0565b60405190808252806020026020018201604052801561150257816020015b6114ef6139a5565b8152602001906001900390816114e75790505b50925060005b81811015611571576000838281518110611524576115246149b7565b602002602001015190506040518060400160405280828152602001611548836123e7565b81525085838151811061155d5761155d6149b7565b602090810291909101015250600101611508565b5050509392505050565b6040516331a9108f60e11b815260048101849052611610907f0000000000000000000000000b538a02610d7d3cc91ce2870f423e0a34d646ad6001600160a01b031690636352211e90602401602060405180830381865afa1580156115e4573d6000803e3d6000fd5b505050506040513d601f19601f820116820180604052508101906116089190614652565b846006612621565b60008381526001602052604090206116298284836147df565b50827f0f3d240fe5efaeda774d27bf0425f932ddd2098297b26de8070d6c8bef534b1683836116566127cc565b604051611665939291906149cd565b60405180910390a2505050565b6040516331a9108f60e11b815260048101859052611707907f0000000000000000000000000b538a02610d7d3cc91ce2870f423e0a34d646ad6001600160a01b031690636352211e90602401602060405180830381865afa1580156116db573d6000803e3d6000fd5b505050506040513d601f19601f820116820180604052508101906116ff9190614652565b856011612621565b604051638a36dffd60e01b81526001600160a01b037f0000000000000000000000009e834f2ae0970f8746e25fba6d42fd90bb96630c1690638a36dffd906109cf908790879087908790600401614a24565b600061176c61176783612739565b6123e7565b610120015192915050565b6117948585600a61178f8261178a6127cc565b612c7c565b6127db565b826000036117b5576040516346545c9960e11b815260040160405180910390fd5b83856001600160a01b03167fdf04e13ee4fcd48a81ab2fd114757093740a3efa9b6475d86e05878b4c59d0798585856117ec6127cc565b6040516117fc9493929190614ba8565b60405180910390a360405163124d91e560e01b81526001600160a01b037f000000000000000000000000a59e9f424901fb9dbd8913a9a32a081f9425bf36169063124d91e59061092a90889088908890600401614bdb565b6001602052600090815260409020805461186d90614755565b80601f016020809104026020016040519081016040528092919081815260200182805461189990614755565b80156118e65780601f106118bb576101008083540402835291602001916118e6565b820191906000526020600020905b8154815290600101906020018083116118c957829003601f168201915b505050505081565b60006118fc61176783612739565b610100015192915050565b6119138484600c612621565b600061191e84612739565b61010081015190915060451c60019081160361194d57604051636af4c57760e01b815260040160405180910390fd5b60405163b1e6d2a160e01b81526001600160a01b038681166004830152602482018690528481166044830152606482018490527f000000000000000000000000a59e9f424901fb9dbd8913a9a32a081f9425bf36169063b1e6d2a19060840161092a565b6119b96138bd565b6119c1613909565b610fb283612d19565b6119d26138bd565b6119da613909565b60405163855a54ed60e01b8152600481018490526000907f000000000000000000000000da86eedb67c6c9fb3e58fe83efa28674d7c898266001600160a01b03169063855a54ed9060240161014060405180830381865afa158015611a43573d6000803e3d6000fd5b505050506040513d601f19601f82011682018060405250810190611a679190614bfc565b9093509050611a75836123e7565b91509193909250565b600085600003611aa15760405163064fae8d60e41b815260040160405180910390fd5b600080611aad89612739565b6040516331a9108f60e11b8152600481018b9052909150611b8f906001600160a01b037f0000000000000000000000000b538a02610d7d3cc91ce2870f423e0a34d646ad1690636352211e90602401602060405180830381865afa158015611b19573d6000803e3d6000fd5b505050506040513d601f19601f82011682018060405250810190611b3d9190614652565b8a6009611b4c8261178a6127cc565b80611b77575061010085015160521c6001600160a01b0316611b6c6127cc565b6001600160a01b0316145b8061178f575061178f8d86611b8a6127cc565b612d6e565b602081015165ffffffffffff1615801590611bb6575061010081015160461c600190811614155b8015611bcb5750611bc98961178a6127cc565b155b8015611bf8575061010081015160521c6001600160a01b0316611bec6127cc565b6001600160a01b031614155b8015611c0e5750611c0c8982611b8a6127cc565b155b15611c2c57604051632475c19d60e21b815260040160405180910390fd5b83611c38576000611c42565b61010081015160041c5b61ffff1691506127108214611d0157611c6988611c6184612710614c2f565b612710612e85565b60405163aab68bdb60e01b81529093506001600160a01b037f000000000000000000000000a59e9f424901fb9dbd8913a9a32a081f9425bf36169063aab68bdb90611cbc908a908d908890600401614bdb565b6020604051808303816000875af1158015611cdb573d6000803e3d6000fd5b505050506040513d601f19601f82011682018060405250810190611cff9190614652565b505b88876001600160a01b03167fe6fee9c572244c0c2238c3112ac12d411750a7ee00eeebd32521c3e5a666c14b8a868a8a88611d3a6127cc565b604051611d4c96959493929190614c42565b60405180910390a38115611d8857611d648389614c2f565b60008a81526020819052604081208054909190611d82908490614701565b90915550505b50509695505050505050565b6000611d9e6127cc565b90507f0000000000000000000000000bc9f153dee4d3d474ce0903775b9b2aaae9aa416001600160a01b0316816001600160a01b031614611e2557604051639653dbed60e01b81526001600160a01b0380831660048301527f0000000000000000000000000bc9f153dee4d3d474ce0903775b9b2aaae9aa41166024820152604401610f2a565b6040516301ffc9a760e01b81526334ce2c7b60e21b60048201526001600160a01b038416906301ffc9a790602401602060405180830381865afa158015611e70573d6000803e3d6000fd5b505050506040513d601f19601f82011682018060405250810190611e949190614c85565b15610f935760405163a312889b60e01b8152600481018390526001600160a01b0384169063a312889b90602401600060405180830381865afa158015611ede573d6000803e3d6000fd5b505050506040513d6000823e601f3d908101601f19168201604052611f069190810190614ca2565b600083815260016020526040902090611f1f9082614d35565b50505050565b6040516331a9108f60e11b815260048101839052611fba907f0000000000000000000000000b538a02610d7d3cc91ce2870f423e0a34d646ad6001600160a01b031690636352211e90602401602060405180830381865afa158015611f8e573d6000803e3d6000fd5b505050506040513d601f19601f82011682018060405250810190611fb29190614652565b836008612621565b6000611fc583612739565b9050806020015165ffffffffffff16600003611fe757611fe483612d19565b90505b61010081015160471c60019081161461201357604051631b6846ab60e01b815260040160405180910390fd5b60405163f12b64a560e01b8152600481018490526001600160a01b0383811660248301527f000000000000000000000000a59e9f424901fb9dbd8913a9a32a081f9425bf36169063f12b64a590604401600060405180830381600087803b15801561207d57600080fd5b505af1158015612091573d6000803e3d6000fd5b50505050505050565b3330146120a657600080fd5b6120ba6001600160a01b0386168886612f59565b60405163fef4325760e01b81526001600160a01b0388169063fef43257906120f39089908990899089906000908a908a90600401614df4565b6020604051808303816000875af1158015612112573d6000803e3d6000fd5b505050506040513d601f19601f8201168201806040525081019061213691906146d2565b50604051636eb1769f60e11b81523060048201526001600160a01b03888116602483015286169063dd62ed3e90604401602060405180830381865afa158015612183573d6000803e3d6000fd5b505050506040513d601f19601f820116820180604052508101906121a791906146d2565b1561209157612091614e4f565b600081815260208190526040812054908190036121e4576040516364d7bdaf60e01b815260040160405180910390fd5b60006121ef83612739565b6040516331a9108f60e11b8152600481018590529091506000906001600160a01b037f0000000000000000000000000b538a02610d7d3cc91ce2870f423e0a34d646ad1690636352211e90602401602060405180830381865afa15801561225a573d6000803e3d6000fd5b505050506040513d601f19601f8201168201806040525081019061227e9190614652565b6000858152602081905260408082208290555163aab68bdb60e01b8152919250906001600160a01b037f000000000000000000000000a59e9f424901fb9dbd8913a9a32a081f9425bf36169063aab68bdb906122e290309089908990600401614bdb565b6020604051808303816000875af1158015612301573d6000803e3d6000fd5b505050506040513d601f19601f820116820180604052508101906123259190614652565b90506000841561234e5761234986856020015165ffffffffffff1660018886613017565b612351565b60005b905080156123655761236586828585613523565b85846000015165ffffffffffff16856020015165ffffffffffff167f32411cac611c47cfe73afc187645c9cf3aec828d5f91780138d8421378fc0edb8689866123ac6127cc565b604080516001600160a01b0395861681526020810194909452830191909152909116606082015260800160405180910390a450505050919050565b6123ef613909565b60405180610260016040528061240a84610100015160041c90565b61ffff16815260200161242284610100015160141c90565b61ffff16815260200161243a84610100015160241c90565b63ffffffff16815260200161245c846101000151600160449190911c81161490565b1515815260200161247a846101000151600160459190911c81161490565b15158152602001612498846101000151600160469190911c81161490565b151581526020016124b6846101000151600160479190911c81161490565b151581526020016124d4846101000151600160489190911c81161490565b151581526020016124f2846101000151600160499190911c81161490565b151581526020016125108461010001516001604a9190911c81161490565b1515815260200161252e8461010001516001604b9190911c81161490565b1515815260200161254c8461010001516001604c9190911c81161490565b1515815260200161256a8461010001516001604d9190911c81161490565b151581526020016125888461010001516001604e9190911c81161490565b151581526020016125a68461010001516001604f9190911c81161490565b151581526020016125c4846101000151600160509190911c81161490565b151581526020016125e2846101000151600160519190911c81161490565b151581526020016125f884610100015160521c90565b6001600160a01b0316815260200161261584610100015160f21c90565b61ffff16905292915050565b600061262b6127cc565b9050836001600160a01b0316816001600160a01b0316141580156126fa5750604051631a45b42760e11b81526001600160a01b0382811660048301528581166024830152604482018590526064820184905260016084830181905260a48301527f000000000000000000000000f5ca295dc286a176e35ebb7833031fd95550eb14169063348b684e9060c401602060405180830381865afa1580156126d4573d6000803e3d6000fd5b505050506040513d601f19601f820116820180604052508101906126f89190614c85565b155b15611f1f57604051631326f75560e11b81526001600160a01b038086166004830152821660248201526044810184905260648101839052608401610f2a565b6127416138bd565b6040516321d1336160e11b8152600481018390527f000000000000000000000000da86eedb67c6c9fb3e58fe83efa28674d7c898266001600160a01b0316906343a266c2906024015b61012060405180830381865afa1580156127a8573d6000803e3d6000fd5b505050506040513d601f19601f820116820180604052508101906107369190614635565b60006127d66135ad565b905090565b80611f1f57611f1f848484612621565b6000805b82811015612afd57600084848381811061280b5761280b6149b7565b905060200281019061281d9190614e65565b61282690615352565b905061271061ffff168160a001516000015161ffff1611156128705760a08101515160405163a162453f60e01b815261ffff90911660048201526127106024820152604401610f2a565b61271061ffff168160a001516020015161ffff1611156128bb5760a0810151602001516040516318e037d360e11b815261ffff90911660048201526127106024820152604401610f2a565b60007f000000000000000000000000da86eedb67c6c9fb3e58fe83efa28674d7c898266001600160a01b03166370174dcc88846020015185604001518660600151876080015161290e8960a00151613622565b895160405160e089901b6001600160e01b0319168152600481019790975263ffffffff95861660248801526001600160701b0390941660448701529390911660648501526001600160a01b0316608484015260a483019190915265ffffffffffff1660c482015260e401610120604051808303816000875af1158015612998573d6000803e3d6000fd5b505050506040513d601f19601f820116820180604052508101906129bc9190614635565b602081015160c0840151604051638a36dffd60e01b81529293506001600160a01b037f0000000000000000000000009e834f2ae0970f8746e25fba6d42fd90bb96630c1692638a36dffd92612a15928c92600401615487565b600060405180830381600087803b158015612a2f57600080fd5b505af1158015612a43573d6000803e3d6000fd5b505050602082015160e08401516040516323c620f360e21b81526001600160a01b037f000000000000000000000000f1e1df5bba779e977a27ccc273847ab1346fceb8169350638f1883cc92612a9d928c926004016155a0565b600060405180830381600087803b158015612ab757600080fd5b505af1158015612acb573d6000803e3d6000fd5b50612add925060019150879050614c2f565b8303612af357806020015165ffffffffffff1693505b50506001016127ef565b509392505050565b6000816001600160401b03811115612b1f57612b1f6143e0565b604051908082528060200260200182016040528015612b48578160200160208202803683370190505b50905060005b82811015612c27576000848483818110612b6a57612b6a6149b7565b9050602002810190612b7c919061564e565b612b8590615664565b805160208201516040516304a6e43960e31b81529293506001600160a01b039091169163253721c891612bbd918a9190600401615761565b600060405180830381600087803b158015612bd757600080fd5b505af1158015612beb573d6000803e3d6000fd5b505050508060000151838381518110612c0657612c066149b7565b6001600160a01b039092166020928302919091019091015250600101612b4e565b508115611f1f5760405163104373fb60e31b81526001600160a01b037f0000000000000000000000000bc9f153dee4d3d474ce0903775b9b2aaae9aa41169063821b9fd8906109cf90879085906004016157d9565b604051636e49181f60e01b8152600481018390526001600160a01b0382811660248301526000917f0000000000000000000000000bc9f153dee4d3d474ce0903775b9b2aaae9aa4190911690636e49181f90604401602060405180830381865afa158015612cee573d6000803e3d6000fd5b505050506040513d601f19601f82011682018060405250810190612d129190614c85565b9392505050565b612d216138bd565b604051631735e2c560e11b8152600481018390527f000000000000000000000000da86eedb67c6c9fb3e58fe83efa28674d7c898266001600160a01b031690632e6bc58a9060240161278a565b600080612d8084610100015160521c90565b90506001600160a01b03811615801590612e0457506040516301ffc9a760e01b815263eeb73e8960e01b60048201526001600160a01b038216906301ffc9a790602401602060405180830381865afa158015612de0573d6000803e3d6000fd5b505050506040513d601f19601f82011682018060405250810190612e049190614c85565b8015612e7c57506040516399f6d77f60e01b81526001600160a01b038216906399f6d77f90612e3b90889088908890600401615832565b602060405180830381865afa158015612e58573d6000803e3d6000fd5b505050506040513d601f19601f82011682018060405250810190612e7c9190614c85565b95945050505050565b6000808060001985870985870292508281108382030391505080600003612ebf57838281612eb557612eb5615861565b0492505050612d12565b838110612ef057604051630c740aef60e31b8152600481018790526024810186905260448101859052606401610f2a565b60008486880960026001871981018816978890046003810283188082028403028082028403028082028403028082028403028082028403029081029092039091026000889003889004909101858311909403939093029303949094049190911702949350505050565b604080516001600160a01b038416602482015260448082018490528251808303909101815260649091019091526020810180516001600160e01b031663095ea7b360e01b179052612faa84826137cc565b611f1f576040516001600160a01b0384811660248301526000604483015261300d91869182169063095ea7b3906064015b604051602081830303815290604052915060e01b6020820180516001600160e01b03838183161783525050505061381b565b611f1f848261381b565b6040516369e11cc560e01b815260048101869052602481018590526044810184905282906000907f0000000000000000000000009e834f2ae0970f8746e25fba6d42fd90bb96630c6001600160a01b0316906369e11cc590606401600060405180830381865afa15801561308f573d6000803e3d6000fd5b505050506040513d6000823e601f3d908101601f191682016040526130b79190810190615877565b805190915060005b818110156135175760008382815181106130db576130db6149b7565b60200260200101519050600061310688836000015163ffffffff16633b9aca0063ffffffff16612e85565b905080156134c85760a08201516001600160a01b0316156131ce576131318b828460a001518a613523565b8160a001516001600160a01b031663c5a093886040518060c001604052808a6001600160a01b03168152602001848152602001601281526020018e81526020018c8152602001858152506040518263ffffffff1660e01b8152600401613197919061597c565b600060405180830381600087803b1580156131b157600080fd5b505af11580156131c5573d6000803e3d6000fd5b505050506134bb565b60408201516000906001600160a01b03166131f0576131eb6127cc565b6131f6565b82604001515b905082602001516001600160401b03166000146134135760006001600160a01b038916156132c2576020840151604051630862026560e41b81526001600160401b0390911660048201526001600160a01b038a811660248301527f0000000000000000000000000bc9f153dee4d3d474ce0903775b9b2aaae9aa411690638620265090604401602060405180830381865afa158015613299573d6000803e3d6000fd5b505050506040513d601f19601f820116820180604052508101906132bd9190614652565b6132c5565b60005b90506001600160a01b03891615806132e457506001600160a01b038116155b156132fa576132f58d84848c613523565b61340d565b60008d60405160200161330f91815260200190565b60408051601f1981840301815290829052602087015163fb61b4e360e01b8352909250309163fb61b4e391613351918691908f908a908a9089906004016159d0565b600060405180830381600087803b15801561336b57600080fd5b505af192505050801561337c575060015b61340b573d8080156133aa576040519150601f19603f3d011682016040523d82523d6000602084013e6133af565b606091505b508e7fdba24f3504238ca84f6411d16a14bb7ae54061b0a80892bf93eb5a8912ed73558787846133dd6127cc565b6040516133ed9493929190615a1a565b60405180910390a26134096001600160a01b038c16858761388c565b505b505b506134b9565b61deac196001600160a01b038216016134ad577f000000000000000000000000a59e9f424901fb9dbd8913a9a32a081f9425bf366001600160a01b031663124d91e5308e856040518463ffffffff1660e01b815260040161347693929190614bdb565b600060405180830381600087803b15801561349057600080fd5b505af11580156134a4573d6000803e3d6000fd5b505050506134b9565b6134b98c83838b613523565b505b6134c58187614c2f565b95505b888a8c7fbfcad5a78fa104a30927810dfb51a41d1119d43ce12be27620ab589e1273cebe85856134f66127cc565b60405161350593929190615a5c565b60405180910390a450506001016130bf565b50505095945050505050565b6001600160a01b0381161561354b576135466001600160a01b038216838561388c565b611f1f565b60405163b1e6d2a160e01b8152306004820152602481018590526001600160a01b038381166044830152606482018590527f000000000000000000000000a59e9f424901fb9dbd8913a9a32a081f9425bf36169063b1e6d2a1906084016109cf565b6000366014336001600160a01b037f0000000000000000000000008a5ba591ed2bed5691a378c65611ed492500f887161480156135ea5750808210155b1561361a576000366135fc8385614c2f565b613607928290615a8a565b61361091615ab4565b60601c9250505090565b339250505090565b6000600190506004826000015161ffff16901b811790506014826020015161ffff16901b811790506024826040015163ffffffff16901b811790508160600151156136735768100000000000000000175b8160800151156136895768200000000000000000175b8160a001511561369f5768400000000000000000175b8160c00151156136b55768800000000000000000175b8160e00151156136cc576901000000000000000000175b816101000151156136e4576902000000000000000000175b816101200151156136fc576904000000000000000000175b81610140015115613714576908000000000000000000175b8161016001511561372c576910000000000000000000175b81610180015115613744576920000000000000000000175b816101a001511561375c576940000000000000000000175b816101c0015115613774576980000000000000000000175b816101e001511561378657600160501b175b8161020001511561379857600160511b175b6102208201516102409092015160529290921b600160521b600160f21b03161760f29190911b6001600160f21b0319161790565b6000806000806020600086516020880160008a5af192503d91506000519050828015613811575081156138025780600114613811565b6000866001600160a01b03163b115b9695505050505050565b600080602060008451602086016000885af18061383e576040513d6000823e3d81fd5b50506000513d91508115613856578060011415613863565b6001600160a01b0384163b155b15611f1f57604051635274afe760e01b81526001600160a01b0385166004820152602401610f2a565b6040516001600160a01b03838116602483015260448201839052610f9391859182169063a9059cbb90606401612fdb565b6040805161012081018252600080825260208201819052918101829052606081018290526080810182905260a0810182905260c0810182905260e0810182905261010081019190915290565b6040805161026081018252600080825260208201819052918101829052606081018290526080810182905260a0810182905260c0810182905260e08101829052610100810182905261012081018290526101408101829052610160810182905261018081018290526101a081018290526101c081018290526101e081018290526102008101829052610220810182905261024081019190915290565b60405180604001604052806139b86138bd565b81526020016139c5613909565b905290565b6000602082840312156139dc57600080fd5b81356001600160e01b031981168114612d1257600080fd5b600060208284031215613a0657600080fd5b5035919050565b60008060408385031215613a2057600080fd5b50508035926020909101359150565b65ffffffffffff808251168352806020830151166020840152806040830151166040840152506060810151613a6e606084018265ffffffffffff169052565b506080810151613a86608084018263ffffffff169052565b5060a0810151613aa160a08401826001600160701b03169052565b5060c0810151613ab960c084018263ffffffff169052565b5060e0810151613ad460e08401826001600160a01b03169052565b5061010090810151910152565b805161ffff1682526020810151613afe602084018261ffff169052565b506040810151613b16604084018263ffffffff169052565b506060810151613b2a606084018215159052565b506080810151613b3e608084018215159052565b5060a0810151613b5260a084018215159052565b5060c0810151613b6660c084018215159052565b5060e0810151613b7a60e084018215159052565b5061010081810151151590830152610120808201511515908301526101408082015115159083015261016080820151151590830152610180808201511515908301526101a0808201511515908301526101c0808201511515908301526101e08082015115159083015261020080820151151590830152610220808201516001600160a01b0316908301526102408082015161ffff811682850152611f1f565b6103808101613c288285613a2f565b612d12610120830184613ae1565b6001600160a01b0381168114613c4b57600080fd5b50565b60008060008060808587031215613c6457600080fd5b8435935060208501359250604085013591506060850135613c8481613c36565b939692955090935050565b8035613c9a81613c36565b919050565b60008060008060808587031215613cb557600080fd5b8435613cc081613c36565b935060208501359250604085013591506060850135613c8481613c36565b60008083601f840112613cf057600080fd5b5081356001600160401b03811115613d0757600080fd5b6020830191508360208260051b8501011115613d2257600080fd5b9250929050565b60008083601f840112613d3b57600080fd5b5081356001600160401b03811115613d5257600080fd5b602083019150836020828501011115613d2257600080fd5b600080600080600060608688031215613d8257600080fd5b8535945060208601356001600160401b0380821115613da057600080fd5b613dac89838a01613cde565b90965094506040880135915080821115613dc557600080fd5b50613dd288828901613d29565b969995985093965092949392505050565b60008060008060008060006080888a031215613dfe57600080fd5b8735965060208801356001600160401b0380821115613e1c57600080fd5b613e288b838c01613cde565b909850965060408a0135915080821115613e4157600080fd5b613e4d8b838c01613cde565b909650945060608a0135915080821115613e6657600080fd5b50613e738a828b01613d29565b989b979a50959850939692959293505050565b60008060408385031215613e9957600080fd5b823591506020830135613eab81613c36565b809150509250929050565b600060208284031215613ec857600080fd5b8135612d1281613c36565b60008060008060008060808789031215613eec57600080fd5b8635955060208701356001600160401b0380821115613f0a57600080fd5b613f168a838b01613d29565b90975095506040890135915080821115613f2f57600080fd5b50613f3c89828a01613d29565b979a9699509497949695606090950135949350505050565b600080600080600080600080600060a08a8c031215613f7257600080fd5b8935613f7d81613c36565b985060208a01356001600160401b0380821115613f9957600080fd5b613fa58d838e01613d29565b909a50985060408c0135915080821115613fbe57600080fd5b613fca8d838e01613cde565b909850965060608c0135915080821115613fe357600080fd5b613fef8d838e01613cde565b909650945060808c013591508082111561400857600080fd5b506140158c828d01613d29565b915080935050809150509295985092959850929598565b60008060006060848603121561404157600080fd5b505081359360208301359350604090920135919050565b6020808252825182820181905260009190848201906040850190845b818110156140af578351614089848251613a2f565b85015161409a610120850182613ae1565b50928401926103809290920191600101614074565b50909695505050505050565b6000806000604084860312156140d057600080fd5b8335925060208401356001600160401b038111156140ed57600080fd5b6140f986828701613d29565b9497909650939450505050565b6000806000806060858703121561411c57600080fd5b843593506020850135925060408501356001600160401b0381111561414057600080fd5b61414c87828801613cde565b95989497509550505050565b60008060008060006080868803121561417057600080fd5b853561417b81613c36565b9450602086013593506040860135925060608601356001600160401b038111156141a457600080fd5b613dd288828901613d29565b60005b838110156141cb5781810151838201526020016141b3565b50506000910152565b600081518084526141ec8160208601602086016141b0565b601f01601f19169290920160200192915050565b602081526000612d1260208301846141d4565b6000806000806080858703121561422957600080fd5b843561423481613c36565b935060208501359250604085013561424b81613c36565b9396929550929360600135925050565b6103a0810161426a8286613a2f565b614278610120830185613ae1565b6006831061429657634e487b7160e01b600052602160045260246000fd5b82610380830152949350505050565b8015158114613c4b57600080fd5b8035613c9a816142a5565b60008060008060008060a087890312156142d757600080fd5b863595506020870135945060408701356142f081613c36565b935060608701356001600160401b0381111561430b57600080fd5b61431789828a01613d29565b909450925050608087013561432b816142a5565b809150509295509295509295565b6000806040838503121561434c57600080fd5b823561435781613c36565b946020939093013593505050565b600080600080600080600060c0888a03121561438057600080fd5b873561438b81613c36565b96506020880135955060408801356143a281613c36565b94506060880135935060808801356143b981613c36565b925060a08801356001600160401b038111156143d457600080fd5b613e738a828b01613d29565b634e487b7160e01b600052604160045260246000fd5b60405161012081016001600160401b0381118282101715614419576144196143e0565b60405290565b60405161026081016001600160401b0381118282101715614419576144196143e0565b604080519081016001600160401b0381118282101715614419576144196143e0565b60405160c081016001600160401b0381118282101715614419576144196143e0565b604051608081016001600160401b0381118282101715614419576144196143e0565b60405161010081016001600160401b0381118282101715614419576144196143e0565b604051606081016001600160401b0381118282101715614419576144196143e0565b604051601f8201601f191681016001600160401b0381118282101715614515576145156143e0565b604052919050565b65ffffffffffff81168114613c4b57600080fd5b8051613c9a8161451d565b63ffffffff81168114613c4b57600080fd5b8051613c9a8161453c565b6001600160701b0381168114613c4b57600080fd5b8051613c9a81614559565b8051613c9a81613c36565b6000610120828403121561459757600080fd5b61459f6143f6565b90506145aa82614531565b81526145b860208301614531565b60208201526145c960408301614531565b60408201526145da60608301614531565b60608201526145eb6080830161454e565b60808201526145fc60a0830161456e565b60a082015261460d60c0830161454e565b60c082015261461e60e08301614579565b60e082015261010080830151818301525092915050565b6000610120828403121561464857600080fd5b612d128383614584565b60006020828403121561466457600080fd5b8151612d1281613c36565b81835281816020850137506000828201602090810191909152601f909101601f19169091010190565b8581528460208201526080604082015260006146b860808301858761466f565b905060018060a01b03831660608301529695505050505050565b6000602082840312156146e457600080fd5b5051919050565b634e487b7160e01b600052601160045260246000fd5b80820180821115610736576107366146eb565b86815260806020820152600061472e60808301878961466f565b828103604084015261474181868861466f565b915050826060830152979650505050505050565b600181811c9082168061476957607f821691505b60208210810361478957634e487b7160e01b600052602260045260246000fd5b50919050565b601f821115610f93576000816000526020600020601f850160051c810160208610156147b85750805b601f850160051c820191505b818110156147d7578281556001016147c4565b505050505050565b6001600160401b038311156147f6576147f66143e0565b61480a836148048354614755565b8361478f565b6000601f84116001811461483e57600085156148265750838201355b600019600387901b1c1916600186901b178355614898565b600083815260209020601f19861690835b8281101561486f578685013582556020948501946001909201910161484f565b508682101561488c5760001960f88860031b161c19848701351681555b505060018560011b0183555b5050505050565b87815286602082015260a0604082015260006148bf60a08301878961466f565b82810360608401526148d281868861466f565b91505060018060a01b038316608083015298975050505050505050565b60006001600160401b03821115614908576149086143e0565b5060051b60200190565b6000602080838503121561492557600080fd5b82516001600160401b0381111561493b57600080fd5b8301601f8101851361494c57600080fd5b805161495f61495a826148ef565b6144ed565b80828252602082019150610120602081850286010193508884111561498357600080fd5b6020850194505b838510156149ab5761499c8986614584565b8352938401939185019161498a565b50979650505050505050565b634e487b7160e01b600052603260045260246000fd5b6040815260006149e160408301858761466f565b905060018060a01b0383166020830152949350505050565b8035613c9a8161453c565b6001600160401b0381168114613c4b57600080fd5b8035613c9a8161451d565b6000606080830187845260208781860152604060606040870152828784526080935060808701905060808860051b8801018960005b8a811015614b9657898303607f190184528135368d9003603e19018112614a7f57600080fd5b8c01803584528386018782013536839003601e19018112614a9f57600080fd5b9091018781019190356001600160401b0380821115614abd57600080fd5b60c08083023603851315614ad057600080fd5b878b018a9052928290526000928c88015b83851015614b7f578535614af48161453c565b63ffffffff168152858c0135614b0981614a04565b8316818d0152858b0135614b1c81613c36565b6001600160a01b0316818c0152858e0135614b36816142a5565b1515818f0152614b47868e01614a19565b65ffffffffffff168d82015260a0614b60878201613c8f565b6001600160a01b03169082015294810194600194909401938101614ae1565b988b01989750505093880193505050600101614a59565b50909c9b505050505050505050505050565b848152606060208201526000614bc260608301858761466f565b905060018060a01b038316604083015295945050505050565b6001600160a01b039390931683526020830191909152604082015260600190565b6000806101408385031215614c1057600080fd5b614c1a8484614584565b915061012083015160068110613eab57600080fd5b81810381811115610736576107366146eb565b86815285602082015260a060408201526000614c6260a08301868861466f565b6060830194909452506001600160a01b0391909116608090910152949350505050565b600060208284031215614c9757600080fd5b8151612d12816142a5565b600060208284031215614cb457600080fd5b81516001600160401b0380821115614ccb57600080fd5b818401915084601f830112614cdf57600080fd5b815181811115614cf157614cf16143e0565b614d04601f8201601f19166020016144ed565b9150808252856020828501011115614d1b57600080fd5b614d2c8160208401602086016141b0565b50949350505050565b81516001600160401b03811115614d4e57614d4e6143e0565b614d6281614d5c8454614755565b8461478f565b602080601f831160018114614d975760008415614d7f5750858301515b600019600386901b1c1916600185901b1785556147d7565b600085815260208120601f198616915b82811015614dc657888601518255948401946001909101908401614da7565b5085821015614de45787850151600019600388901b60f8161c191681555b5050505050600190811b01905550565b878152600060018060a01b03808916602084015287604084015280871660608401525084608083015260e060a0830152600060e08301526101008060c0840152614e41818401858761466f565b9a9950505050505050505050565b634e487b7160e01b600052600160045260246000fd5b6000823561033e19833603018112614e7c57600080fd5b9190910192915050565b8035613c9a81614559565b803561ffff81168114613c9a57600080fd5b60006102608284031215614eb657600080fd5b614ebe61441f565b9050614ec982614e91565b8152614ed760208301614e91565b6020820152614ee8604083016149f9565b6040820152614ef9606083016142b3565b6060820152614f0a608083016142b3565b6080820152614f1b60a083016142b3565b60a0820152614f2c60c083016142b3565b60c0820152614f3d60e083016142b3565b60e0820152610100614f508184016142b3565b90820152610120614f628382016142b3565b90820152610140614f748382016142b3565b90820152610160614f868382016142b3565b90820152610180614f988382016142b3565b908201526101a0614faa8382016142b3565b908201526101c0614fbc8382016142b3565b908201526101e0614fce8382016142b3565b90820152610200614fe08382016142b3565b90820152610220614ff2838201613c8f565b90820152610240615004838201614e91565b9082015292915050565b600082601f83011261501f57600080fd5b8135602061502f61495a836148ef565b82815260059290921b8401810191818101908684111561504e57600080fd5b8286015b848110156151a25780356001600160401b038082111561507157600080fd5b908801906040828b03601f190181131561508a57600080fd5b615092614442565b87840135815281840135838111156150a957600080fd5b8085019450508b603f8501126150be57600080fd5b8784013592506150d061495a846148ef565b83815260c09093028401820192888101908d8511156150ee57600080fd5b948301945b8486101561518d5760c0868f03121561510b57600080fd5b615113614464565b863561511e8161453c565b8152868b013561512d81614a04565b818c01528685013561513e81613c36565b818601526060870135615150816142a5565b606082015260808701356151638161451d565b608082015260a087013561517681613c36565b60a0820152825260c09590950194908901906150f3565b828a0152508652505050918301918301615052565b509695505050505050565b600082601f8301126151be57600080fd5b813560206151ce61495a836148ef565b82815260069290921b840181019181810190868411156151ed57600080fd5b8286015b848110156151a2576040818903121561520a5760008081fd5b615212614442565b81356001600160e01b038116811461522a5760008081fd5b8152818501356152398161453c565b818601528352918301916040016151f1565b600082601f83011261525c57600080fd5b8135602061526c61495a836148ef565b82815260059290921b8401810191818101908684111561528b57600080fd5b8286015b848110156151a25780356001600160401b03808211156152af5760008081fd5b908801906080828b03601f19018113156152c95760008081fd5b6152d1614486565b878401356152de81613c36565b81526040848101356152ef81613c36565b828a0152606085810135858111156153075760008081fd5b6153158f8c838a01016151ad565b848401525092850135928484111561532f57600091508182fd5b61533d8e8b868901016151ad565b9083015250865250505091830191830161528f565b6000610340823603121561536557600080fd5b61536d6144a8565b61537683614a19565b8152615384602084016149f9565b602082015261539560408401614e86565b60408201526153a6606084016149f9565b60608201526153b760808401613c8f565b60808201526153c93660a08501614ea3565b60a08201526103008301356001600160401b03808211156153e957600080fd5b6153f53683870161500e565b60c084015261032085013591508082111561540f57600080fd5b5061541c3682860161524b565b60e08301525092915050565b805163ffffffff1682526020808201516001600160401b0316908301526040808201516001600160a01b039081169184019190915260608083015115159084015260808083015165ffffffffffff169084015260a09182015116910152565b60006060808301868452602065ffffffffffff87168186015260406060604087015282875180855260808801915060808160051b89010194508389016000805b83811015615538578a8803607f190185528251805189528701518789018790528051878a018190529088019083908b8b01905b808310156155235761550d828551615428565b60c0820191508a840193506001830192506154fa565b509950505093860193918601916001016154c7565b50959c9b505050505050505050505050565b60008151808452602080850194506020840160005b8381101561559557815180516001600160e01b0316885283015163ffffffff16838801526040909601959082019060010161555f565b509495945050505050565b60006060808301868452602065ffffffffffff8716818601526040606060408701528287518085526080945060808801915060808160051b890101848a0160005b83811015614b96578a8303607f19018552815180516001600160a01b039081168552888201511688850152868101518785018a90526156228a86018261554a565b918b0151858303868d015291905061563a818361554a565b9689019694505050908601906001016155e1565b60008235603e19833603018112614e7c57600080fd5b6000604080833603121561567757600080fd5b61567f614442565b833561568a81613c36565b81526020848101356001600160401b038111156156a657600080fd5b850136601f8201126156b757600080fd5b80356156c561495a826148ef565b818152606091820283018401918482019190368411156156e457600080fd5b938501935b8385101561574e578085360312156157015760008081fd5b6157096144cb565b853561571481613c36565b81528587013560ff8116811461572a5760008081fd5b818801528589013561573b8161453c565b818a0152835293840193918501916156e9565b5093850193909352509195945050505050565b60006040808301858452602060406020860152818651808452606093506060870191506020880160005b828110156157ca57815180516001600160a01b031685528581015160ff168686015287015163ffffffff1687850152928501929084019060010161578b565b50919998505050505050505050565b60006040820184835260206040602085015281855180845260608601915060208701935060005b818110156158255784516001600160a01b031683529383019391830191600101615800565b5090979650505050505050565b83815261016081016158476020830185613a2f565b6001600160a01b0392909216610140919091015292915050565b634e487b7160e01b600052601260045260246000fd5b6000602080838503121561588a57600080fd5b82516001600160401b038111156158a057600080fd5b8301601f810185136158b157600080fd5b80516158bf61495a826148ef565b81815260c091820283018401918482019190888411156158de57600080fd5b938501935b838510156149ab5780858a0312156158fb5760008081fd5b615903614464565b855161590e8161453c565b81528587015161591d81614a04565b8188015260408681015161593081613c36565b90820152606086810151615943816142a5565b908201526080868101516159568161451d565b9082015260a08681015161596981613c36565b90820152835293840193918501916158e3565b81516001600160a01b031681526020808301519082015260408083015190820152606080830151908201526080808301519082015260a0828101516101608301916159c990840182615428565b5092915050565b6001600160a01b0387811682526001600160401b03871660208301528581166040830152606082018590528316608082015260c060a08201819052600090611259908301846141d4565b6000610120615a298388615428565b8560c08401528060e0840152615a41818401866141d4565b91505060018060a01b03831661010083015295945050505050565b6101008101615a6b8286615428565b60c08201939093526001600160a01b039190911660e090910152919050565b60008085851115615a9a57600080fd5b83861115615aa757600080fd5b5050820193919092039150565b6bffffffffffffffffffffffff198135818116916014851015615ae15780818660140360031b1b83161692505b50509291505056fea26469706673582212201450db7c9b990c7ad6904bfbb50bc205e6bb5da70424322ee77ad92c3c006e8164736f6c63430008170033",
	"gitCommit": "f52474a354ada7b15675fce44735e8858f0ac712",
	"history": []
}