{
	"format": "sphinx-sol-ct-artifact-1",
	"merkleRoot": "0x480e5f52168b7c6b39449d58afd7db4f283f8efc1ab64c8c682b924f69fce927",
	"address": "0xda86eedb67c6c9fb3e58fe83efa28674d7c89826",
	"sourceName": "src/JBRulesets.sol",
	"contractName": "JBRulesets",
	"chainId": "0xa4b1",
	"abi": [
		{
			"inputs": [
				{
					"internalType": "contract IJBDirectory",
					"name": "directory",
					"type": "address"
				}
			],
			"stateMutability": "nonpayable",
			"type": "constructor"
		},
		{
			"inputs": [],
			"name": "DIRECTORY",
			"outputs": [
				{
					"internalType": "contract IJBDirectory",
					"name": "",
					"type": "address"
				}
			],
			"stateMutability": "view",
			"type": "function"
		},
		{
			"inputs": [
				{
					"internalType": "uint256",
					"name": "projectId",
					"type": "uint256"
				},
				{
					"internalType": "uint256",
					"name": "startingId",
					"type": "uint256"
				},
				{
					"internalType": "uint256",
					"name": "size",
					"type": "uint256"
				}
			],
			"name": "allOf",
			"outputs": [
				{
					"components": [
						{
							"internalType": "uint48",
							"name": "cycleNumber",
							"type": "uint48"
						},
						{
							"internalType": "uint48",
							"name": "id",
							"type": "uint48"
						},
						{
							"internalType": "uint48",
							"name": "basedOnId",
							"type": "uint48"
						},
						{
							"internalType": "uint48",
							"name": "start",
							"type": "uint48"
						},
						{
							"internalType": "uint32",
							"name": "duration",
							"type": "uint32"
						},
						{
							"internalType": "uint112",
							"name": "weight",
							"type": "uint112"
						},
						{
							"internalType": "uint32",
							"name": "weightCutPercent",
							"type": "uint32"
						},
						{
							"internalType": "contract IJBRulesetApprovalHook",
							"name": "approvalHook",
							"type": "address"
						},
						{
							"internalType": "uint256",
							"name": "metadata",
							"type": "uint256"
						}
					],
					"internalType": "struct JBRuleset[]",
					"name": "rulesets",
					"type": "tuple[]"
				}
			],
			"stateMutability": "view",
			"type": "function"
		},
		{
			"inputs": [
				{
					"internalType": "uint256",
					"name": "projectId",
					"type": "uint256"
				}
			],
			"name": "currentApprovalStatusForLatestRulesetOf",
			"outputs": [
				{
					"internalType": "enum JBApprovalStatus",
					"name": "",
					"type": "uint8"
				}
			],
			"stateMutability": "view",
			"type": "function"
		},
		{
			"inputs": [
				{
					"internalType": "uint256",
					"name": "projectId",
					"type": "uint256"
				}
			],
			"name": "currentOf",
			"outputs": [
				{
					"components": [
						{
							"internalType": "uint48",
							"name": "cycleNumber",
							"type": "uint48"
						},
						{
							"internalType": "uint48",
							"name": "id",
							"type": "uint48"
						},
						{
							"internalType": "uint48",
							"name": "basedOnId",
							"type": "uint48"
						},
						{
							"internalType": "uint48",
							"name": "start",
							"type": "uint48"
						},
						{
							"internalType": "uint32",
							"name": "duration",
							"type": "uint32"
						},
						{
							"internalType": "uint112",
							"name": "weight",
							"type": "uint112"
						},
						{
							"internalType": "uint32",
							"name": "weightCutPercent",
							"type": "uint32"
						},
						{
							"internalType": "contract IJBRulesetApprovalHook",
							"name": "approvalHook",
							"type": "address"
						},
						{
							"internalType": "uint256",
							"name": "metadata",
							"type": "uint256"
						}
					],
					"internalType": "struct JBRuleset",
					"name": "ruleset",
					"type": "tuple"
				}
			],
			"stateMutability": "view",
			"type": "function"
		},
		{
			"inputs": [
				{
					"internalType": "uint256",
					"name": "baseRulesetCycleNumber",
					"type": "uint256"
				},
				{
					"internalType": "uint256",
					"name": "baseRulesetStart",
					"type": "uint256"
				},
				{
					"internalType": "uint256",
					"name": "baseRulesetDuration",
					"type": "uint256"
				},
				{
					"internalType": "uint256",
					"name": "start",
					"type": "uint256"
				}
			],
			"name": "deriveCycleNumberFrom",
			"outputs": [
				{
					"internalType": "uint256",
					"name": "",
					"type": "uint256"
				}
			],
			"stateMutability": "pure",
			"type": "function"
		},
		{
			"inputs": [
				{
					"internalType": "uint256",
					"name": "baseRulesetStart",
					"type": "uint256"
				},
				{
					"internalType": "uint256",
					"name": "baseRulesetDuration",
					"type": "uint256"
				},
				{
					"internalType": "uint256",
					"name": "mustStartAtOrAfter",
					"type": "uint256"
				}
			],
			"name": "deriveStartFrom",
			"outputs": [
				{
					"internalType": "uint256",
					"name": "start",
					"type": "uint256"
				}
			],
			"stateMutability": "pure",
			"type": "function"
		},
		{
			"inputs": [
				{
					"internalType": "uint256",
					"name": "projectId",
					"type": "uint256"
				},
				{
					"internalType": "uint256",
					"name": "baseRulesetStart",
					"type": "uint256"
				},
				{
					"internalType": "uint256",
					"name": "baseRulesetDuration",
					"type": "uint256"
				},
				{
					"internalType": "uint256",
					"name": "baseRulesetWeight",
					"type": "uint256"
				},
				{
					"internalType": "uint256",
					"name": "baseRulesetWeightCutPercent",
					"type": "uint256"
				},
				{
					"internalType": "uint256",
					"name": "baseRulesetCacheId",
					"type": "uint256"
				},
				{
					"internalType": "uint256",
					"name": "start",
					"type": "uint256"
				}
			],
			"name": "deriveWeightFrom",
			"outputs": [
				{
					"internalType": "uint256",
					"name": "weight",
					"type": "uint256"
				}
			],
			"stateMutability": "view",
			"type": "function"
		},
		{
			"inputs": [
				{
					"internalType": "uint256",
					"name": "projectId",
					"type": "uint256"
				},
				{
					"internalType": "uint256",
					"name": "rulesetId",
					"type": "uint256"
				}
			],
			"name": "getRulesetOf",
			"outputs": [
				{
					"components": [
						{
							"internalType": "uint48",
							"name": "cycleNumber",
							"type": "uint48"
						},
						{
							"internalType": "uint48",
							"name": "id",
							"type": "uint48"
						},
						{
							"internalType": "uint48",
							"name": "basedOnId",
							"type": "uint48"
						},
						{
							"internalType": "uint48",
							"name": "start",
							"type": "uint48"
						},
						{
							"internalType": "uint32",
							"name": "duration",
							"type": "uint32"
						},
						{
							"internalType": "uint112",
							"name": "weight",
							"type": "uint112"
						},
						{
							"internalType": "uint32",
							"name": "weightCutPercent",
							"type": "uint32"
						},
						{
							"internalType": "contract IJBRulesetApprovalHook",
							"name": "approvalHook",
							"type": "address"
						},
						{
							"internalType": "uint256",
							"name": "metadata",
							"type": "uint256"
						}
					],
					"internalType": "struct JBRuleset",
					"name": "ruleset",
					"type": "tuple"
				}
			],
			"stateMutability": "view",
			"type": "function"
		},
		{
			"inputs": [
				{
					"internalType": "uint256",
					"name": "projectId",
					"type": "uint256"
				}
			],
			"name": "latestQueuedOf",
			"outputs": [
				{
					"components": [
						{
							"internalType": "uint48",
							"name": "cycleNumber",
							"type": "uint48"
						},
						{
							"internalType": "uint48",
							"name": "id",
							"type": "uint48"
						},
						{
							"internalType": "uint48",
							"name": "basedOnId",
							"type": "uint48"
						},
						{
							"internalType": "uint48",
							"name": "start",
							"type": "uint48"
						},
						{
							"internalType": "uint32",
							"name": "duration",
							"type": "uint32"
						},
						{
							"internalType": "uint112",
							"name": "weight",
							"type": "uint112"
						},
						{
							"internalType": "uint32",
							"name": "weightCutPercent",
							"type": "uint32"
						},
						{
							"internalType": "contract IJBRulesetApprovalHook",
							"name": "approvalHook",
							"type": "address"
						},
						{
							"internalType": "uint256",
							"name": "metadata",
							"type": "uint256"
						}
					],
					"internalType": "struct JBRuleset",
					"name": "ruleset",
					"type": "tuple"
				},
				{
					"internalType": "enum JBApprovalStatus",
					"name": "approvalStatus",
					"type": "uint8"
				}
			],
			"stateMutability": "view",
			"type": "function"
		},
		{
			"inputs": [
				{
					"internalType": "uint256",
					"name": "projectId",
					"type": "uint256"
				}
			],
			"name": "latestRulesetIdOf",
			"outputs": [
				{
					"internalType": "uint256",
					"name": "",
					"type": "uint256"
				}
			],
			"stateMutability": "view",
			"type": "function"
		},
		{
			"inputs": [
				{
					"internalType": "uint256",
					"name": "projectId",
					"type": "uint256"
				},
				{
					"internalType": "uint256",
					"name": "duration",
					"type": "uint256"
				},
				{
					"internalType": "uint256",
					"name": "weight",
					"type": "uint256"
				},
				{
					"internalType": "uint256",
					"name": "weightCutPercent",
					"type": "uint256"
				},
				{
					"internalType": "contract IJBRulesetApprovalHook",
					"name": "approvalHook",
					"type": "address"
				},
				{
					"internalType": "uint256",
					"name": "metadata",
					"type": "uint256"
				},
				{
					"internalType": "uint256",
					"name": "mustStartAtOrAfter",
					"type": "uint256"
				}
			],
			"name": "queueFor",
			"outputs": [
				{
					"components": [
						{
							"internalType": "uint48",
							"name": "cycleNumber",
							"type": "uint48"
						},
						{
							"internalType": "uint48",
							"name": "id",
							"type": "uint48"
						},
						{
							"internalType": "uint48",
							"name": "basedOnId",
							"type": "uint48"
						},
						{
							"internalType": "uint48",
							"name": "start",
							"type": "uint48"
						},
						{
							"internalType": "uint32",
							"name": "duration",
							"type": "uint32"
						},
						{
							"internalType": "uint112",
							"name": "weight",
							"type": "uint112"
						},
						{
							"internalType": "uint32",
							"name": "weightCutPercent",
							"type": "uint32"
						},
						{
							"internalType": "contract IJBRulesetApprovalHook",
							"name": "approvalHook",
							"type": "address"
						},
						{
							"internalType": "uint256",
							"name": "metadata",
							"type": "uint256"
						}
					],
					"internalType": "struct JBRuleset",
					"name": "",
					"type": "tuple"
				}
			],
			"stateMutability": "nonpayable",
			"type": "function"
		},
		{
			"inputs": [
				{
					"internalType": "uint256",
					"name": "projectId",
					"type": "uint256"
				}
			],
			"name": "upcomingOf",
			"outputs": [
				{
					"components": [
						{
							"internalType": "uint48",
							"name": "cycleNumber",
							"type": "uint48"
						},
						{
							"internalType": "uint48",
							"name": "id",
							"type": "uint48"
						},
						{
							"internalType": "uint48",
							"name": "basedOnId",
							"type": "uint48"
						},
						{
							"internalType": "uint48",
							"name": "start",
							"type": "uint48"
						},
						{
							"internalType": "uint32",
							"name": "duration",
							"type": "uint32"
						},
						{
							"internalType": "uint112",
							"name": "weight",
							"type": "uint112"
						},
						{
							"internalType": "uint32",
							"name": "weightCutPercent",
							"type": "uint32"
						},
						{
							"internalType": "contract IJBRulesetApprovalHook",
							"name": "approvalHook",
							"type": "address"
						},
						{
							"internalType": "uint256",
							"name": "metadata",
							"type": "uint256"
						}
					],
					"internalType": "struct JBRuleset",
					"name": "ruleset",
					"type": "tuple"
				}
			],
			"stateMutability": "view",
			"type": "function"
		},
		{
			"inputs": [
				{
					"internalType": "uint256",
					"name": "projectId",
					"type": "uint256"
				}
			],
			"name": "updateRulesetWeightCache",
			"outputs": [],
			"stateMutability": "nonpayable",
			"type": "function"
		},
		{
			"anonymous": false,
			"inputs": [
				{
					"indexed": true,
					"internalType": "uint256",
					"name": "rulesetId",
					"type": "uint256"
				},
				{
					"indexed": true,
					"internalType": "uint256",
					"name": "projectId",
					"type": "uint256"
				},
				{
					"indexed": true,
					"internalType": "uint256",
					"name": "basedOnId",
					"type": "uint256"
				},
				{
					"indexed": false,
					"internalType": "address",
					"name": "caller",
					"type": "address"
				}
			],
			"name": "RulesetInitialized",
			"type": "event"
		},
		{
			"anonymous": false,
			"inputs": [
				{
					"indexed": true,
					"internalType": "uint256",
					"name": "rulesetId",
					"type": "uint256"
				},
				{
					"indexed": true,
					"internalType": "uint256",
					"name": "projectId",
					"type": "uint256"
				},
				{
					"indexed": false,
					"internalType": "uint256",
					"name": "duration",
					"type": "uint256"
				},
				{
					"indexed": false,
					"internalType": "uint256",
					"name": "weight",
					"type": "uint256"
				},
				{
					"indexed": false,
					"internalType": "uint256",
					"name": "weightCutPercent",
					"type": "uint256"
				},
				{
					"indexed": false,
					"internalType": "contract IJBRulesetApprovalHook",
					"name": "approvalHook",
					"type": "address"
				},
				{
					"indexed": false,
					"internalType": "uint256",
					"name": "metadata",
					"type": "uint256"
				},
				{
					"indexed": false,
					"internalType": "uint256",
					"name": "mustStartAtOrAfter",
					"type": "uint256"
				},
				{
					"indexed": false,
					"internalType": "address",
					"name": "caller",
					"type": "address"
				}
			],
			"name": "RulesetQueued",
			"type": "event"
		},
		{
			"anonymous": false,
			"inputs": [
				{
					"indexed": false,
					"internalType": "uint256",
					"name": "projectId",
					"type": "uint256"
				},
				{
					"indexed": false,
					"internalType": "uint112",
					"name": "weight",
					"type": "uint112"
				},
				{
					"indexed": false,
					"internalType": "uint256",
					"name": "weightCutMultiple",
					"type": "uint256"
				},
				{
					"indexed": false,
					"internalType": "address",
					"name": "caller",
					"type": "address"
				}
			],
			"name": "WeightCacheUpdated",
			"type": "event"
		},
		{
			"inputs": [
				{
					"internalType": "address",
					"name": "controller",
					"type": "address"
				}
			],
			"name": "JBControlled_ControllerUnauthorized",
			"type": "error"
		},
		{
			"inputs": [
				{
					"internalType": "contract IJBRulesetApprovalHook",
					"name": "hook",
					"type": "address"
				}
			],
			"name": "JBRulesets_InvalidRulesetApprovalHook",
			"type": "error"
		},
		{
			"inputs": [
				{
					"internalType": "uint256",
					"name": "duration",
					"type": "uint256"
				},
				{
					"internalType": "uint256",
					"name": "limit",
					"type": "uint256"
				}
			],
			"name": "JBRulesets_InvalidRulesetDuration",
			"type": "error"
		},
		{
			"inputs": [
				{
					"internalType": "uint256",
					"name": "timestamp",
					"type": "uint256"
				},
				{
					"internalType": "uint256",
					"name": "limit",
					"type": "uint256"
				}
			],
			"name": "JBRulesets_InvalidRulesetEndTime",
			"type": "error"
		},
		{
			"inputs": [
				{
					"internalType": "uint256",
					"name": "weight",
					"type": "uint256"
				},
				{
					"internalType": "uint256",
					"name": "limit",
					"type": "uint256"
				}
			],
			"name": "JBRulesets_InvalidWeight",
			"type": "error"
		},
		{
			"inputs": [
				{
					"internalType": "uint256",
					"name": "percent",
					"type": "uint256"
				}
			],
			"name": "JBRulesets_InvalidWeightCutPercent",
			"type": "error"
		},
		{
			"inputs": [
				{
					"internalType": "uint256",
					"name": "x",
					"type": "uint256"
				},
				{
					"internalType": "uint256",
					"name": "y",
					"type": "uint256"
				},
				{
					"internalType": "uint256",
					"name": "denominator",
					"type": "uint256"
				}
			],
			"name": "PRBMath_MulDiv_Overflow",
			"type": "error"
		}
	],
	"args": [],
	"solcInputHash": "7c749753dd2355477991557166b5f6de",
	"bytecode": "0x60a060405234801561001057600080fd5b50604051611f35380380611f3583398101604081905261002f91610040565b6001600160a01b0316608052610070565b60006020828403121561005257600080fd5b81516001600160a01b038116811461006957600080fd5b9392505050565b608051611e9c610099600039600081816101ac015281816113c201526114510152611e9c6000f3fe608060405234801561001057600080fd5b50600436106100cf5760003560e01c806370174dcc1161008c5780638b04533a116100665780638b04533a146101e6578063bfc48c9e146101fb578063d7e1ec881461020e578063fe81dd801461022e57600080fd5b806370174dcc14610173578063855a54ed1461018657806388bc2ef3146101a757600080fd5b80631b9b2e5f146100d457806325a61d5c146100fa5780632e6bc58a1461011a57806333f5bd0a1461012d57806343a266c21461014d578063441c0cc514610160575b600080fd5b6100e76100e2366004611a06565b61024e565b6040519081526020015b60405180910390f35b61010d610108366004611a38565b610298565b6040516100f19190611b0c565b61010d610128366004611b1b565b6102b3565b6100e761013b366004611b1b565b60006020819052908152604090205481565b61010d61015b366004611b1b565b610478565b6100e761016e366004611b34565b6105fe565b61010d610181366004611b95565b61071a565b610199610194366004611b1b565b610a4c565b6040516100f1929190611c2c565b6101ce7f000000000000000000000000000000000000000000000000000000000000000081565b6040516001600160a01b0390911681526020016100f1565b6101f96101f4366004611b1b565b610aa7565b005b6100e7610209366004611c49565b610c87565b61022161021c366004611b1b565b610cfc565b6040516100f19190611c75565b61024161023c366004611c49565b610d48565b6040516100f19190611c83565b60008260000361026a57610263856001611ce8565b9050610290565b60006102768584611cfb565b90506102828482611d24565b61028c9087611ce8565b9150505b949350505050565b6102a06119ba565b6102aa8383610e90565b90505b92915050565b6102bb6119ba565b60008281526020819052604081205490036102db576102ad600080610e90565b60006102e683610f53565b90506000811561037e576102fa8483610e90565b92506103068484611059565b9050600481600581111561031c5761031c611bf4565b14806103395750600381600581111561033757610337611bf4565b145b806103555750600081600581111561035357610353611bf4565b145b15610361575050919050565b61037784846040015165ffffffffffff16610e90565b92506103cc565b600084815260208190526040902054610398908590610e90565b92505b42836060015165ffffffffffff1611156103cc576103c584846040015165ffffffffffff16610e90565b925061039b565b826080015163ffffffff166000036103e957610290600080610e90565b6103f38484611059565b9050600481600581111561040957610409611bf4565b14806104265750600081600581111561042457610424611bf4565b145b15610437576102908484600061108b565b61044d84846040015165ffffffffffff16610e90565b9250826080015163ffffffff1660000361046c57610290600080610e90565b6102908484600061108b565b6104806119ba565b60008281526020819052604081205490036104a0576102ad600080610e90565b60006104ab8361120e565b9050801561052b576104bd8382610e90565b915060006104cb8484611059565b905060048160058111156104e1576104e1611bf4565b14806104fe575060008160058111156104fc576104fc611bf4565b145b1561050a575050919050565b826040015165ffffffffffff1691506105238483610e90565b9250506105d3565b506000828152602081905260409020546105458382610e90565b915060006105538484611059565b90505b600481600581111561056a5761056a611bf4565b1415801561058a5750600081600581111561058757610587611bf4565b14155b806105a05750826060015165ffffffffffff1642105b156105d157826040015165ffffffffffff1691506105be8483610e90565b92506105ca8484611059565b9050610556565b505b816080015163ffffffff166000036105eb5750919050565b6105f78383600161108b565b9392505050565b60008560000361062b576106248561061a86633b9aca00611cfb565b633b9aca006112ce565b905061070f565b5083831561070f57600061063f8884611cfb565b9050600087828161065257610652611d0e565b04905060008511801561066657506103e881115b156106de5760008a8152600460209081526040808320888452825291829020825180840190935280546001600160701b03168352600101546001600160a81b0316908201819052156106dc57805160208201516001600160701b0390911694506106d9906001600160a81b031683611cfb565b91505b505b60005b8181101561070b576106fb8461061a89633b9aca00611cfb565b9350831561070b576001016106e1565b5050505b979650505050505050565b6107226119ba565b8761072c816113a2565b63ffffffff88111561076357604051638444f64b60e01b81526004810189905263ffffffff60248201526044015b60405180910390fd5b633b9aca0086111561078b576040516321e5c74960e21b81526004810187905260240161075a565b6001600160701b038711156107c357604051632dd7f24160e01b8152600481018890526001600160701b03602482015260440161075a565b826000036107cf574292505b65ffffffffffff6107e08985611ce8565b1115610819576107f08884611ce8565b604051632ce261d560e21b8152600481019190915265ffffffffffff602482015260440161075a565b6001600160a01b0385161561091857846001600160a01b03163b60000361085e5760405163045b9cdd60e31b81526001600160a01b038616600482015260240161075a565b6040516301ffc9a760e01b8152634b80c8df60e01b60048201526001600160a01b038616906301ffc9a790602401602060405180830381865afa9250505080156108c5575060408051601f3d908101601f191682019092526108c291810190611d38565b60015b6108ed5760405163045b9cdd60e31b81526001600160a01b038616600482015260240161075a565b806109165760405163045b9cdd60e31b81526001600160a01b038716600482015260240161075a565b505b60008981526020819052604081205490428210156109365742610941565b610941826001611ce8565b905061094f8b828b886114ec565b6001600160a01b038716151580610966575060008a115b806109715750600088115b156109a85760008b8152600360209081526040808320848452909152902060c089901b60a08c901b6001600160a01b038a16171790555b85156109cb5760008b815260016020908152604080832084845290915290208690555b604080518b8152602081018b90529081018990526001600160a01b03881660608201526080810187905260a081018690523360c08201528b9082907f11a490bebff1beffe4bdd210894aca6ea5049427ce4b3c48865717677199cb079060e00160405180910390a3610a3d8b82610e90565b9b9a5050505050505050505050565b610a546119ba565b600082815260208190526040812054610a6d8482610e90565b9250610a9f84846020015165ffffffffffff16856060015165ffffffffffff16866040015165ffffffffffff16611757565b915050915091565b600081815260208190526040812054610ac1908390610e90565b9050806080015163ffffffff1660001480610ae4575060c081015163ffffffff16155b15610aed575050565b60008281526004602090815260408083208483015165ffffffffffff16845290915281206080830151600182015491929163ffffffff90911690610b3d9061c350906001600160a81b0316611ce8565b610b479190611d5a565b836060015165ffffffffffff16610b5e9190611ce8565b90506000814210610b6f5781610b71565b425b90506000846060015165ffffffffffff1682610b8d9190611cfb565b90506000856080015163ffffffff168281610baa57610baa611d0e565b049050610bf587876060015165ffffffffffff16886080015163ffffffff168960a001516001600160701b03168a60c0015163ffffffff168b6020015165ffffffffffff16896105fe565b85546dffffffffffffffffffffffffffff19166001600160701b039190911690811786556001860180546001600160a81b0319166001600160a81b038416908117909155604080518a815260208101939093528201523360608201527f10eae80a31644a6399eaac72c95b18a77049f4192107734621f4cdce85b457729060800160405180910390a150505050505050565b600082600003610c985750806105f7565b6000610ca48486611ce8565b9050828110610cb45790506105f7565b600084610cc18386611cfb565b610ccb9190611d71565b9050610cd78185611cfb565b92505b82841115610cf357610cec8584611ce8565b9250610cda565b50509392505050565b60008181526020819052604081205481610d168483610e90565b905061029084826020015165ffffffffffff16836060015165ffffffffffff16846040015165ffffffffffff16611757565b606082600003610d645760008481526020819052604090205492505b600080610d718686610e90565b90505b602081015165ffffffffffff1615801590610d8e57508382105b15610dbd5781610d9d81611d85565b925050610db686826040015165ffffffffffff16610e90565b9050610d74565b8167ffffffffffffffff811115610dd657610dd6611d9e565b604051908082528060200260200182016040528015610e0f57816020015b610dfc6119ba565b815260200190600190039081610df45790505b50925081600003610e215750506105f7565b610e2b8686610e90565b905060005b82811015610e8657818482610e4481611d85565b935081518110610e5657610e56611db4565b6020026020010181905250828114610e8157610e7e87836040015165ffffffffffff16610e90565b91505b610e30565b5050509392505050565b610e986119ba565b81156102ad5765ffffffffffff82811660208381019190915260008581526002825260408082208683528352808220546001600160701b03811660a080880191909152607082901c86168388015281811c909516606087015260d01c8552868252600383528082208683528352808220546001600160a01b03811660e08701529384901c63ffffffff908116608087015260c094851c1693850193909352948552600181528185209385529290925291205461010082015290565b60008181526020819052604081205490610f6d8383610e90565b9050806060015165ffffffffffff164210610f8b5750600092915050565b805165ffffffffffff16600103610fa25750919050565b604081015165ffffffffffff16610fb76119ba565b610fc18583610e90565b9050806060015165ffffffffffff16421015610ffa57806020015165ffffffffffff169350806040015165ffffffffffff169150610fb7565b6110048585610e90565b9250806080015163ffffffff166000141580156110415750806080015163ffffffff1683606001516110369190611dca565b65ffffffffffff1642105b1561105157506000949350505050565b505050919050565b60006102aa83836020015165ffffffffffff16846060015165ffffffffffff16856040015165ffffffffffff16611757565b6110936119ba565b600082156110c05760808401516110b09063ffffffff1642611cfb565b6110bb906001611ce8565b6110cb565b6110cb426001611ce8565b905060006110f0856060015165ffffffffffff16866080015163ffffffff1684610c87565b90506000611122866000015165ffffffffffff16876060015165ffffffffffff16886080015163ffffffff168561024e565b90506040518061012001604052808265ffffffffffff168152602001876020015165ffffffffffff168152602001876040015165ffffffffffff1681526020018365ffffffffffff168152602001876080015163ffffffff1681526020016111c889896060015165ffffffffffff168a6080015163ffffffff168b60a001516001600160701b03168c60c0015163ffffffff168d6020015165ffffffffffff168a6105fe565b6001600160701b031681526020018760c0015163ffffffff1681526020018760e001516001600160a01b0316815260200187610100015181525093505050509392505050565b600081815260208190526040812054816112288483610e90565b90505b608081015163ffffffff16158015906112655750806080015163ffffffff1681606001516112599190611df0565b65ffffffffffff164210155b15611274575060009392505050565b806060015165ffffffffffff16421061129a576020015165ffffffffffff169392505050565b6112b084826040015165ffffffffffff16610e90565b805190915065ffffffffffff1660000361122b575060009392505050565b6000808060001985870985870292508281108382030391505080600003611308578382816112fe576112fe611d0e565b04925050506105f7565b83811061133957604051630c740aef60e31b815260048101879052602481018690526044810185905260640161075a565b60008486880960026001871981018816978890046003810283188082028403028082028403028082028403028082028403028082028403029081029092039091026000889003889004909101858311909403939093029303949094049190911702949350505050565b604051632eec7b5560e11b81526004810182905233906001600160a01b037f00000000000000000000000000000000000000000000000000000000000000001690635dd8f6aa90602401602060405180830381865afa158015611409573d6000803e3d6000fd5b505050506040513d601f19601f8201168201806040525081019061142d9190611e0f565b6001600160a01b0316146114e957604051632eec7b5560e11b8152600481018290527f00000000000000000000000000000000000000000000000000000000000000006001600160a01b031690635dd8f6aa90602401602060405180830381865afa1580156114a0573d6000803e3d6000fd5b505050506040513d601f19601f820116820180604052508101906114c49190611e0f565b604051639a007b3960e01b81526001600160a01b03909116600482015260240161075a565b50565b600084815260208190526040812054908190036115205761151a85611512600080610e90565b868587611811565b50611751565b600061152c8683610e90565b9050600061153a8783611059565b9050816060015165ffffffffffff16421015801561156a5750600481600581111561156757611567611bf4565b14155b80156115885750600081600581111561158557611585611bf4565b14155b806115e75750816060015165ffffffffffff16421080156115c95750816080015163ffffffff1682606001516115be9190611df0565b65ffffffffffff1684105b80156115e7575060048160058111156115e4576115e4611bf4565b14155b806116835750816060015165ffffffffffff16421080156116295750816080015163ffffffff16826060015161161d9190611df0565b65ffffffffffff168410155b80156116475750600481600581111561164457611644611bf4565b14155b80156116655750600381600581111561166257611662611bf4565b14155b80156116835750600081600581111561168057611680611bf4565b14155b156116a15761169e87836040015165ffffffffffff16610e90565b91505b60e08201516000906001600160a01b03161561172c578260e001516001600160a01b0316631be052896040518163ffffffff1660e01b8152600401602060405180830381865afa1580156116f9573d6000803e3d6000fd5b505050506040513d601f19601f8201168201806040525081019061171d9190611e2c565b6117279088611ce8565b61172f565b60005b905061174c8884898885116117445788611746565b845b8a611811565b505050505b50505050565b60008160000361176957506000610290565b60006117758684610e90565b60e08101519091506001600160a01b0316611794576000915050610290565b60e08101516040516328304d2b60e11b81526004810188905260248101879052604481018690526001600160a01b03909116906350609a5690606401602060405180830381865afa1580156117ed573d6000803e3d6000fd5b505050506040513d601f19601f8201168201806040525081019061028c9190611e45565b835165ffffffffffff166000036118695760208085015160008781526002835260408082208783529093529190912065ffffffffffff60701b60709290921b91909116821760a084901b17600160d01b17905561195d565b600061188c856060015165ffffffffffff16866080015163ffffffff1685610c87565b90508160011461189c57816118e4565b6118e486866060015165ffffffffffff16876080015163ffffffff168860a001516001600160701b03168960c0015163ffffffff168a6020015165ffffffffffff16876105fe565b91506000611916866000015165ffffffffffff16876060015165ffffffffffff16886080015163ffffffff168561024e565b60208088015160008a81526002835260408082208a83529093529190912065ffffffffffff60701b60709290921b91909116851760a085901b1760d083901b179055905050505b6000858152602081815260409182902085905585810151915133815265ffffffffffff90921691879186917f470520533918800d64f06ee1795a39e90ff3c27a15350a235e17bd23698a470e910160405180910390a45050505050565b6040805161012081018252600080825260208201819052918101829052606081018290526080810182905260a0810182905260c0810182905260e0810182905261010081019190915290565b60008060008060808587031215611a1c57600080fd5b5050823594602084013594506040840135936060013592509050565b60008060408385031215611a4b57600080fd5b50508035926020909101359150565b65ffffffffffff808251168352806020830151166020840152806040830151166040840152506060810151611a99606084018265ffffffffffff169052565b506080810151611ab1608084018263ffffffff169052565b5060a0810151611acc60a08401826001600160701b03169052565b5060c0810151611ae460c084018263ffffffff169052565b5060e0810151611aff60e08401826001600160a01b03169052565b5061010090810151910152565b61012081016102ad8284611a5a565b600060208284031215611b2d57600080fd5b5035919050565b600080600080600080600060e0888a031215611b4f57600080fd5b505085359760208701359750604087013596606081013596506080810135955060a0810135945060c0013592509050565b6001600160a01b03811681146114e957600080fd5b600080600080600080600060e0888a031215611bb057600080fd5b873596506020880135955060408801359450606088013593506080880135611bd781611b80565b9699959850939692959460a0840135945060c09093013592915050565b634e487b7160e01b600052602160045260246000fd5b60068110611c2857634e487b7160e01b600052602160045260246000fd5b9052565b6101408101611c3b8285611a5a565b6105f7610120830184611c0a565b600080600060608486031215611c5e57600080fd5b505081359360208301359350604090920135919050565b602081016102ad8284611c0a565b6020808252825182820181905260009190848201906040850190845b81811015611cc657611cb2838551611a5a565b928401926101209290920191600101611c9f565b50909695505050505050565b634e487b7160e01b600052601160045260246000fd5b808201808211156102ad576102ad611cd2565b818103818111156102ad576102ad611cd2565b634e487b7160e01b600052601260045260246000fd5b600082611d3357611d33611d0e565b500490565b600060208284031215611d4a57600080fd5b815180151581146105f757600080fd5b80820281158282048414176102ad576102ad611cd2565b600082611d8057611d80611d0e565b500690565b600060018201611d9757611d97611cd2565b5060010190565b634e487b7160e01b600052604160045260246000fd5b634e487b7160e01b600052603260045260246000fd5b65ffffffffffff828116828216039080821115611de957611de9611cd2565b5092915050565b65ffffffffffff818116838216019080821115611de957611de9611cd2565b600060208284031215611e2157600080fd5b81516105f781611b80565b600060208284031215611e3e57600080fd5b5051919050565b600060208284031215611e5757600080fd5b8151600681106105f757600080fdfea26469706673582212202bb8ff151e01f2b0ad9f3ce6a09940e5b0d0e0106e130f63cd0de8bdaae5309164736f6c63430008170033",
	"deployedBytecode": "0x608060405234801561001057600080fd5b50600436106100cf5760003560e01c806370174dcc1161008c5780638b04533a116100665780638b04533a146101e6578063bfc48c9e146101fb578063d7e1ec881461020e578063fe81dd801461022e57600080fd5b806370174dcc14610173578063855a54ed1461018657806388bc2ef3146101a757600080fd5b80631b9b2e5f146100d457806325a61d5c146100fa5780632e6bc58a1461011a57806333f5bd0a1461012d57806343a266c21461014d578063441c0cc514610160575b600080fd5b6100e76100e2366004611a06565b61024e565b6040519081526020015b60405180910390f35b61010d610108366004611a38565b610298565b6040516100f19190611b0c565b61010d610128366004611b1b565b6102b3565b6100e761013b366004611b1b565b60006020819052908152604090205481565b61010d61015b366004611b1b565b610478565b6100e761016e366004611b34565b6105fe565b61010d610181366004611b95565b61071a565b610199610194366004611b1b565b610a4c565b6040516100f1929190611c2c565b6101ce7f0000000000000000000000000bc9f153dee4d3d474ce0903775b9b2aaae9aa4181565b6040516001600160a01b0390911681526020016100f1565b6101f96101f4366004611b1b565b610aa7565b005b6100e7610209366004611c49565b610c87565b61022161021c366004611b1b565b610cfc565b6040516100f19190611c75565b61024161023c366004611c49565b610d48565b6040516100f19190611c83565b60008260000361026a57610263856001611ce8565b9050610290565b60006102768584611cfb565b90506102828482611d24565b61028c9087611ce8565b9150505b949350505050565b6102a06119ba565b6102aa8383610e90565b90505b92915050565b6102bb6119ba565b60008281526020819052604081205490036102db576102ad600080610e90565b60006102e683610f53565b90506000811561037e576102fa8483610e90565b92506103068484611059565b9050600481600581111561031c5761031c611bf4565b14806103395750600381600581111561033757610337611bf4565b145b806103555750600081600581111561035357610353611bf4565b145b15610361575050919050565b61037784846040015165ffffffffffff16610e90565b92506103cc565b600084815260208190526040902054610398908590610e90565b92505b42836060015165ffffffffffff1611156103cc576103c584846040015165ffffffffffff16610e90565b925061039b565b826080015163ffffffff166000036103e957610290600080610e90565b6103f38484611059565b9050600481600581111561040957610409611bf4565b14806104265750600081600581111561042457610424611bf4565b145b15610437576102908484600061108b565b61044d84846040015165ffffffffffff16610e90565b9250826080015163ffffffff1660000361046c57610290600080610e90565b6102908484600061108b565b6104806119ba565b60008281526020819052604081205490036104a0576102ad600080610e90565b60006104ab8361120e565b9050801561052b576104bd8382610e90565b915060006104cb8484611059565b905060048160058111156104e1576104e1611bf4565b14806104fe575060008160058111156104fc576104fc611bf4565b145b1561050a575050919050565b826040015165ffffffffffff1691506105238483610e90565b9250506105d3565b506000828152602081905260409020546105458382610e90565b915060006105538484611059565b90505b600481600581111561056a5761056a611bf4565b1415801561058a5750600081600581111561058757610587611bf4565b14155b806105a05750826060015165ffffffffffff1642105b156105d157826040015165ffffffffffff1691506105be8483610e90565b92506105ca8484611059565b9050610556565b505b816080015163ffffffff166000036105eb5750919050565b6105f78383600161108b565b9392505050565b60008560000361062b576106248561061a86633b9aca00611cfb565b633b9aca006112ce565b905061070f565b5083831561070f57600061063f8884611cfb565b9050600087828161065257610652611d0e565b04905060008511801561066657506103e881115b156106de5760008a8152600460209081526040808320888452825291829020825180840190935280546001600160701b03168352600101546001600160a81b0316908201819052156106dc57805160208201516001600160701b0390911694506106d9906001600160a81b031683611cfb565b91505b505b60005b8181101561070b576106fb8461061a89633b9aca00611cfb565b9350831561070b576001016106e1565b5050505b979650505050505050565b6107226119ba565b8761072c816113a2565b63ffffffff88111561076357604051638444f64b60e01b81526004810189905263ffffffff60248201526044015b60405180910390fd5b633b9aca0086111561078b576040516321e5c74960e21b81526004810187905260240161075a565b6001600160701b038711156107c357604051632dd7f24160e01b8152600481018890526001600160701b03602482015260440161075a565b826000036107cf574292505b65ffffffffffff6107e08985611ce8565b1115610819576107f08884611ce8565b604051632ce261d560e21b8152600481019190915265ffffffffffff602482015260440161075a565b6001600160a01b0385161561091857846001600160a01b03163b60000361085e5760405163045b9cdd60e31b81526001600160a01b038616600482015260240161075a565b6040516301ffc9a760e01b8152634b80c8df60e01b60048201526001600160a01b038616906301ffc9a790602401602060405180830381865afa9250505080156108c5575060408051601f3d908101601f191682019092526108c291810190611d38565b60015b6108ed5760405163045b9cdd60e31b81526001600160a01b038616600482015260240161075a565b806109165760405163045b9cdd60e31b81526001600160a01b038716600482015260240161075a565b505b60008981526020819052604081205490428210156109365742610941565b610941826001611ce8565b905061094f8b828b886114ec565b6001600160a01b038716151580610966575060008a115b806109715750600088115b156109a85760008b8152600360209081526040808320848452909152902060c089901b60a08c901b6001600160a01b038a16171790555b85156109cb5760008b815260016020908152604080832084845290915290208690555b604080518b8152602081018b90529081018990526001600160a01b03881660608201526080810187905260a081018690523360c08201528b9082907f11a490bebff1beffe4bdd210894aca6ea5049427ce4b3c48865717677199cb079060e00160405180910390a3610a3d8b82610e90565b9b9a5050505050505050505050565b610a546119ba565b600082815260208190526040812054610a6d8482610e90565b9250610a9f84846020015165ffffffffffff16856060015165ffffffffffff16866040015165ffffffffffff16611757565b915050915091565b600081815260208190526040812054610ac1908390610e90565b9050806080015163ffffffff1660001480610ae4575060c081015163ffffffff16155b15610aed575050565b60008281526004602090815260408083208483015165ffffffffffff16845290915281206080830151600182015491929163ffffffff90911690610b3d9061c350906001600160a81b0316611ce8565b610b479190611d5a565b836060015165ffffffffffff16610b5e9190611ce8565b90506000814210610b6f5781610b71565b425b90506000846060015165ffffffffffff1682610b8d9190611cfb565b90506000856080015163ffffffff168281610baa57610baa611d0e565b049050610bf587876060015165ffffffffffff16886080015163ffffffff168960a001516001600160701b03168a60c0015163ffffffff168b6020015165ffffffffffff16896105fe565b85546dffffffffffffffffffffffffffff19166001600160701b039190911690811786556001860180546001600160a81b0319166001600160a81b038416908117909155604080518a815260208101939093528201523360608201527f10eae80a31644a6399eaac72c95b18a77049f4192107734621f4cdce85b457729060800160405180910390a150505050505050565b600082600003610c985750806105f7565b6000610ca48486611ce8565b9050828110610cb45790506105f7565b600084610cc18386611cfb565b610ccb9190611d71565b9050610cd78185611cfb565b92505b82841115610cf357610cec8584611ce8565b9250610cda565b50509392505050565b60008181526020819052604081205481610d168483610e90565b905061029084826020015165ffffffffffff16836060015165ffffffffffff16846040015165ffffffffffff16611757565b606082600003610d645760008481526020819052604090205492505b600080610d718686610e90565b90505b602081015165ffffffffffff1615801590610d8e57508382105b15610dbd5781610d9d81611d85565b925050610db686826040015165ffffffffffff16610e90565b9050610d74565b8167ffffffffffffffff811115610dd657610dd6611d9e565b604051908082528060200260200182016040528015610e0f57816020015b610dfc6119ba565b815260200190600190039081610df45790505b50925081600003610e215750506105f7565b610e2b8686610e90565b905060005b82811015610e8657818482610e4481611d85565b935081518110610e5657610e56611db4565b6020026020010181905250828114610e8157610e7e87836040015165ffffffffffff16610e90565b91505b610e30565b5050509392505050565b610e986119ba565b81156102ad5765ffffffffffff82811660208381019190915260008581526002825260408082208683528352808220546001600160701b03811660a080880191909152607082901c86168388015281811c909516606087015260d01c8552868252600383528082208683528352808220546001600160a01b03811660e08701529384901c63ffffffff908116608087015260c094851c1693850193909352948552600181528185209385529290925291205461010082015290565b60008181526020819052604081205490610f6d8383610e90565b9050806060015165ffffffffffff164210610f8b5750600092915050565b805165ffffffffffff16600103610fa25750919050565b604081015165ffffffffffff16610fb76119ba565b610fc18583610e90565b9050806060015165ffffffffffff16421015610ffa57806020015165ffffffffffff169350806040015165ffffffffffff169150610fb7565b6110048585610e90565b9250806080015163ffffffff166000141580156110415750806080015163ffffffff1683606001516110369190611dca565b65ffffffffffff1642105b1561105157506000949350505050565b505050919050565b60006102aa83836020015165ffffffffffff16846060015165ffffffffffff16856040015165ffffffffffff16611757565b6110936119ba565b600082156110c05760808401516110b09063ffffffff1642611cfb565b6110bb906001611ce8565b6110cb565b6110cb426001611ce8565b905060006110f0856060015165ffffffffffff16866080015163ffffffff1684610c87565b90506000611122866000015165ffffffffffff16876060015165ffffffffffff16886080015163ffffffff168561024e565b90506040518061012001604052808265ffffffffffff168152602001876020015165ffffffffffff168152602001876040015165ffffffffffff1681526020018365ffffffffffff168152602001876080015163ffffffff1681526020016111c889896060015165ffffffffffff168a6080015163ffffffff168b60a001516001600160701b03168c60c0015163ffffffff168d6020015165ffffffffffff168a6105fe565b6001600160701b031681526020018760c0015163ffffffff1681526020018760e001516001600160a01b0316815260200187610100015181525093505050509392505050565b600081815260208190526040812054816112288483610e90565b90505b608081015163ffffffff16158015906112655750806080015163ffffffff1681606001516112599190611df0565b65ffffffffffff164210155b15611274575060009392505050565b806060015165ffffffffffff16421061129a576020015165ffffffffffff169392505050565b6112b084826040015165ffffffffffff16610e90565b805190915065ffffffffffff1660000361122b575060009392505050565b6000808060001985870985870292508281108382030391505080600003611308578382816112fe576112fe611d0e565b04925050506105f7565b83811061133957604051630c740aef60e31b815260048101879052602481018690526044810185905260640161075a565b60008486880960026001871981018816978890046003810283188082028403028082028403028082028403028082028403028082028403029081029092039091026000889003889004909101858311909403939093029303949094049190911702949350505050565b604051632eec7b5560e11b81526004810182905233906001600160a01b037f0000000000000000000000000bc9f153dee4d3d474ce0903775b9b2aaae9aa411690635dd8f6aa90602401602060405180830381865afa158015611409573d6000803e3d6000fd5b505050506040513d601f19601f8201168201806040525081019061142d9190611e0f565b6001600160a01b0316146114e957604051632eec7b5560e11b8152600481018290527f0000000000000000000000000bc9f153dee4d3d474ce0903775b9b2aaae9aa416001600160a01b031690635dd8f6aa90602401602060405180830381865afa1580156114a0573d6000803e3d6000fd5b505050506040513d601f19601f820116820180604052508101906114c49190611e0f565b604051639a007b3960e01b81526001600160a01b03909116600482015260240161075a565b50565b600084815260208190526040812054908190036115205761151a85611512600080610e90565b868587611811565b50611751565b600061152c8683610e90565b9050600061153a8783611059565b9050816060015165ffffffffffff16421015801561156a5750600481600581111561156757611567611bf4565b14155b80156115885750600081600581111561158557611585611bf4565b14155b806115e75750816060015165ffffffffffff16421080156115c95750816080015163ffffffff1682606001516115be9190611df0565b65ffffffffffff1684105b80156115e7575060048160058111156115e4576115e4611bf4565b14155b806116835750816060015165ffffffffffff16421080156116295750816080015163ffffffff16826060015161161d9190611df0565b65ffffffffffff168410155b80156116475750600481600581111561164457611644611bf4565b14155b80156116655750600381600581111561166257611662611bf4565b14155b80156116835750600081600581111561168057611680611bf4565b14155b156116a15761169e87836040015165ffffffffffff16610e90565b91505b60e08201516000906001600160a01b03161561172c578260e001516001600160a01b0316631be052896040518163ffffffff1660e01b8152600401602060405180830381865afa1580156116f9573d6000803e3d6000fd5b505050506040513d601f19601f8201168201806040525081019061171d9190611e2c565b6117279088611ce8565b61172f565b60005b905061174c8884898885116117445788611746565b845b8a611811565b505050505b50505050565b60008160000361176957506000610290565b60006117758684610e90565b60e08101519091506001600160a01b0316611794576000915050610290565b60e08101516040516328304d2b60e11b81526004810188905260248101879052604481018690526001600160a01b03909116906350609a5690606401602060405180830381865afa1580156117ed573d6000803e3d6000fd5b505050506040513d601f19601f8201168201806040525081019061028c9190611e45565b835165ffffffffffff166000036118695760208085015160008781526002835260408082208783529093529190912065ffffffffffff60701b60709290921b91909116821760a084901b17600160d01b17905561195d565b600061188c856060015165ffffffffffff16866080015163ffffffff1685610c87565b90508160011461189c57816118e4565b6118e486866060015165ffffffffffff16876080015163ffffffff168860a001516001600160701b03168960c0015163ffffffff168a6020015165ffffffffffff16876105fe565b91506000611916866000015165ffffffffffff16876060015165ffffffffffff16886080015163ffffffff168561024e565b60208088015160008a81526002835260408082208a83529093529190912065ffffffffffff60701b60709290921b91909116851760a085901b1760d083901b179055905050505b6000858152602081815260409182902085905585810151915133815265ffffffffffff90921691879186917f470520533918800d64f06ee1795a39e90ff3c27a15350a235e17bd23698a470e910160405180910390a45050505050565b6040805161012081018252600080825260208201819052918101829052606081018290526080810182905260a0810182905260c0810182905260e0810182905261010081019190915290565b60008060008060808587031215611a1c57600080fd5b5050823594602084013594506040840135936060013592509050565b60008060408385031215611a4b57600080fd5b50508035926020909101359150565b65ffffffffffff808251168352806020830151166020840152806040830151166040840152506060810151611a99606084018265ffffffffffff169052565b506080810151611ab1608084018263ffffffff169052565b5060a0810151611acc60a08401826001600160701b03169052565b5060c0810151611ae460c084018263ffffffff169052565b5060e0810151611aff60e08401826001600160a01b03169052565b5061010090810151910152565b61012081016102ad8284611a5a565b600060208284031215611b2d57600080fd5b5035919050565b600080600080600080600060e0888a031215611b4f57600080fd5b505085359760208701359750604087013596606081013596506080810135955060a0810135945060c0013592509050565b6001600160a01b03811681146114e957600080fd5b600080600080600080600060e0888a031215611bb057600080fd5b873596506020880135955060408801359450606088013593506080880135611bd781611b80565b9699959850939692959460a0840135945060c09093013592915050565b634e487b7160e01b600052602160045260246000fd5b60068110611c2857634e487b7160e01b600052602160045260246000fd5b9052565b6101408101611c3b8285611a5a565b6105f7610120830184611c0a565b600080600060608486031215611c5e57600080fd5b505081359360208301359350604090920135919050565b602081016102ad8284611c0a565b6020808252825182820181905260009190848201906040850190845b81811015611cc657611cb2838551611a5a565b928401926101209290920191600101611c9f565b50909695505050505050565b634e487b7160e01b600052601160045260246000fd5b808201808211156102ad576102ad611cd2565b818103818111156102ad576102ad611cd2565b634e487b7160e01b600052601260045260246000fd5b600082611d3357611d33611d0e565b500490565b600060208284031215611d4a57600080fd5b815180151581146105f757600080fd5b80820281158282048414176102ad576102ad611cd2565b600082611d8057611d80611d0e565b500690565b600060018201611d9757611d97611cd2565b5060010190565b634e487b7160e01b600052604160045260246000fd5b634e487b7160e01b600052603260045260246000fd5b65ffffffffffff828116828216039080821115611de957611de9611cd2565b5092915050565b65ffffffffffff818116838216019080821115611de957611de9611cd2565b600060208284031215611e2157600080fd5b81516105f781611b80565b600060208284031215611e3e57600080fd5b5051919050565b600060208284031215611e5757600080fd5b8151600681106105f757600080fdfea26469706673582212202bb8ff151e01f2b0ad9f3ce6a09940e5b0d0e0106e130f63cd0de8bdaae5309164736f6c63430008170033",
	"gitCommit": "1dbb8ce9b68f10239b75e5db7fcd88bb83fcb147"
}