{
	"format": "sphinx-sol-ct-artifact-1",
	"merkleRoot": "0x4742494b19c99572462a9efb4b9b72ca88e91637671854bd9440155743947131",
	"address": "0x791f706e2a173326e3f71bf6f231b2c1523d2ff1",
	"sourceName": "src/JBChainlinkV3PriceFeed.sol",
	"contractName": "JBChainlinkV3PriceFeed",
	"chainId": "0xaa37dc",
	"abi": [
		{
			"inputs": [
				{
					"internalType": "contract AggregatorV3Interface",
					"name": "feed",
					"type": "address"
				},
				{
					"internalType": "uint256",
					"name": "threshold",
					"type": "uint256"
				}
			],
			"stateMutability": "nonpayable",
			"type": "constructor"
		},
		{
			"inputs": [],
			"name": "FEED",
			"outputs": [
				{
					"internalType": "contract AggregatorV3Interface",
					"name": "",
					"type": "address"
				}
			],
			"stateMutability": "view",
			"type": "function"
		},
		{
			"inputs": [],
			"name": "THRESHOLD",
			"outputs": [
				{
					"internalType": "uint256",
					"name": "",
					"type": "uint256"
				}
			],
			"stateMutability": "view",
			"type": "function"
		},
		{
			"inputs": [
				{
					"internalType": "uint256",
					"name": "decimals",
					"type": "uint256"
				}
			],
			"name": "currentUnitPrice",
			"outputs": [
				{
					"internalType": "uint256",
					"name": "",
					"type": "uint256"
				}
			],
			"stateMutability": "view",
			"type": "function"
		},
		{
			"inputs": [],
			"name": "JBChainlinkV3PriceFeed_IncompleteRound",
			"type": "error"
		},
		{
			"inputs": [
				{
					"internalType": "int256",
					"name": "price",
					"type": "int256"
				}
			],
			"name": "JBChainlinkV3PriceFeed_NegativePrice",
			"type": "error"
		},
		{
			"inputs": [
				{
					"internalType": "uint256",
					"name": "timestamp",
					"type": "uint256"
				},
				{
					"internalType": "uint256",
					"name": "threshold",
					"type": "uint256"
				},
				{
					"internalType": "uint256",
					"name": "updatedAt",
					"type": "uint256"
				}
			],
			"name": "JBChainlinkV3PriceFeed_StalePrice",
			"type": "error"
		}
	],
	"args": [],
	"solcInputHash": "5d51894f92a28e136c3e0b602172e6f6",
	"bytecode": "0x60c060405234801561001057600080fd5b5060405161062a38038061062a83398101604081905261002f91610045565b6001600160a01b0390911660805260a05261007f565b6000806040838503121561005857600080fd5b82516001600160a01b038116811461006f57600080fd5b6020939093015192949293505050565b60805160a05161056d6100bd60003960008181608f0152818161015e01526101a3015260008181604b0152818160d40152610224015261056d6000f3fe608060405234801561001057600080fd5b50600436106100415760003560e01c80630beaf38c14610046578063785ffb371461008a578063d3f5c15f146100bf575b600080fd5b61006d7f000000000000000000000000000000000000000000000000000000000000000081565b6040516001600160a01b0390911681526020015b60405180910390f35b6100b17f000000000000000000000000000000000000000000000000000000000000000081565b604051908152602001610081565b6100b16100cd366004610321565b60008060007f00000000000000000000000000000000000000000000000000000000000000006001600160a01b031663feaf968c6040518163ffffffff1660e01b815260040160a060405180830381865afa158015610130573d6000803e3d6000fd5b505050506040513d601f19601f820116820180604052508101906101549190610359565b50935050925050807f000000000000000000000000000000000000000000000000000000000000000061018791906103bf565b4211156101db576040516352b4aba960e11b81524260048201527f00000000000000000000000000000000000000000000000000000000000000006024820152604481018290526064015b60405180910390fd5b806000036101fc57604051631d70a56560e01b815260040160405180910390fd5b600082136102205760405163e374febf60e01b8152600481018390526024016101d2565b60007f00000000000000000000000000000000000000000000000000000000000000006001600160a01b031663313ce5676040518163ffffffff1660e01b8152600401602060405180830381865afa158015610280573d6000803e3d6000fd5b505050506040513d601f19601f820116820180604052508101906102a491906103d8565b60ff1690506102b48382876102bd565b95945050505050565b60008282036102cd57508261031a565b828211156102fb576102df83836103fb565b6102ea90600a6104f2565b6102f490856104fe565b905061031a565b61030582846103fb565b61031090600a6104f2565b6102f49085610515565b9392505050565b60006020828403121561033357600080fd5b5035919050565b805169ffffffffffffffffffff8116811461035457600080fd5b919050565b600080600080600060a0868803121561037157600080fd5b61037a8661033a565b945060208601519350604086015192506060860151915061039d6080870161033a565b90509295509295909350565b634e487b7160e01b600052601160045260246000fd5b808201808211156103d2576103d26103a9565b92915050565b6000602082840312156103ea57600080fd5b815160ff8116811461031a57600080fd5b818103818111156103d2576103d26103a9565b600181815b8085111561044957816000190482111561042f5761042f6103a9565b8085161561043c57918102915b93841c9390800290610413565b509250929050565b600082610460575060016103d2565b8161046d575060006103d2565b8160018114610483576002811461048d576104a9565b60019150506103d2565b60ff84111561049e5761049e6103a9565b50506001821b6103d2565b5060208310610133831016604e8410600b84101617156104cc575081810a6103d2565b6104d6838361040e565b80600019048211156104ea576104ea6103a9565b029392505050565b600061031a8383610451565b80820281158282048414176103d2576103d26103a9565b60008261053257634e487b7160e01b600052601260045260246000fd5b50049056fea2646970667358221220b71453fba55d9fd3c1110a869aa638b611575632fd5087e3709f0c6cfe2620fc64736f6c63430008170033",
	"deployedBytecode": "0x608060405234801561001057600080fd5b50600436106100415760003560e01c80630beaf38c14610046578063785ffb371461008a578063d3f5c15f146100bf575b600080fd5b61006d7f00000000000000000000000061ec26aa57019c486b10502285c5a3d4a4750ad781565b6040516001600160a01b0390911681526020015b60405180910390f35b6100b17f0000000000000000000000000000000000000000000000000000000000000e1081565b604051908152602001610081565b6100b16100cd366004610321565b60008060007f00000000000000000000000061ec26aa57019c486b10502285c5a3d4a4750ad76001600160a01b031663feaf968c6040518163ffffffff1660e01b815260040160a060405180830381865afa158015610130573d6000803e3d6000fd5b505050506040513d601f19601f820116820180604052508101906101549190610359565b50935050925050807f0000000000000000000000000000000000000000000000000000000000000e1061018791906103bf565b4211156101db576040516352b4aba960e11b81524260048201527f0000000000000000000000000000000000000000000000000000000000000e106024820152604481018290526064015b60405180910390fd5b806000036101fc57604051631d70a56560e01b815260040160405180910390fd5b600082136102205760405163e374febf60e01b8152600481018390526024016101d2565b60007f00000000000000000000000061ec26aa57019c486b10502285c5a3d4a4750ad76001600160a01b031663313ce5676040518163ffffffff1660e01b8152600401602060405180830381865afa158015610280573d6000803e3d6000fd5b505050506040513d601f19601f820116820180604052508101906102a491906103d8565b60ff1690506102b48382876102bd565b95945050505050565b60008282036102cd57508261031a565b828211156102fb576102df83836103fb565b6102ea90600a6104f2565b6102f490856104fe565b905061031a565b61030582846103fb565b61031090600a6104f2565b6102f49085610515565b9392505050565b60006020828403121561033357600080fd5b5035919050565b805169ffffffffffffffffffff8116811461035457600080fd5b919050565b600080600080600060a0868803121561037157600080fd5b61037a8661033a565b945060208601519350604086015192506060860151915061039d6080870161033a565b90509295509295909350565b634e487b7160e01b600052601160045260246000fd5b808201808211156103d2576103d26103a9565b92915050565b6000602082840312156103ea57600080fd5b815160ff8116811461031a57600080fd5b818103818111156103d2576103d26103a9565b600181815b8085111561044957816000190482111561042f5761042f6103a9565b8085161561043c57918102915b93841c9390800290610413565b509250929050565b600082610460575060016103d2565b8161046d575060006103d2565b8160018114610483576002811461048d576104a9565b60019150506103d2565b60ff84111561049e5761049e6103a9565b50506001821b6103d2565b5060208310610133831016604e8410600b84101617156104cc575081810a6103d2565b6104d6838361040e565b80600019048211156104ea576104ea6103a9565b029392505050565b600061031a8383610451565b80820281158282048414176103d2576103d26103a9565b60008261053257634e487b7160e01b600052601260045260246000fd5b50049056fea2646970667358221220b71453fba55d9fd3c1110a869aa638b611575632fd5087e3709f0c6cfe2620fc64736f6c63430008170033",
	"gitCommit": "c664e5b34db8181e8ee22c8a07c22dc687da5623"
}