{
	"_format": "sphinx-sol-ct-artifact-1",
	"merkleRoot": "0x1c031ac0217a16bc8b880bc3a6e637a3fb319bf6343a8af2f9d37587d2ef9836",
	"contractName": "JBERC20",
	"address": "0xf8febDbCC8ACfb46BfB59e7695F77d8eA653a69d",
	"abi": [
		{
			"type": "constructor",
			"inputs": [],
			"stateMutability": "nonpayable"
		},
		{
			"type": "function",
			"name": "CLOCK_MODE",
			"inputs": [],
			"outputs": [
				{
					"name": "",
					"type": "string",
					"internalType": "string"
				}
			],
			"stateMutability": "view"
		},
		{
			"type": "function",
			"name": "DOMAIN_SEPARATOR",
			"inputs": [],
			"outputs": [
				{
					"name": "",
					"type": "bytes32",
					"internalType": "bytes32"
				}
			],
			"stateMutability": "view"
		},
		{
			"type": "function",
			"name": "allowance",
			"inputs": [
				{
					"name": "owner",
					"type": "address",
					"internalType": "address"
				},
				{
					"name": "spender",
					"type": "address",
					"internalType": "address"
				}
			],
			"outputs": [
				{
					"name": "",
					"type": "uint256",
					"internalType": "uint256"
				}
			],
			"stateMutability": "view"
		},
		{
			"type": "function",
			"name": "approve",
			"inputs": [
				{
					"name": "spender",
					"type": "address",
					"internalType": "address"
				},
				{
					"name": "value",
					"type": "uint256",
					"internalType": "uint256"
				}
			],
			"outputs": [
				{
					"name": "",
					"type": "bool",
					"internalType": "bool"
				}
			],
			"stateMutability": "nonpayable"
		},
		{
			"type": "function",
			"name": "balanceOf",
			"inputs": [
				{
					"name": "account",
					"type": "address",
					"internalType": "address"
				}
			],
			"outputs": [
				{
					"name": "",
					"type": "uint256",
					"internalType": "uint256"
				}
			],
			"stateMutability": "view"
		},
		{
			"type": "function",
			"name": "burn",
			"inputs": [
				{
					"name": "account",
					"type": "address",
					"internalType": "address"
				},
				{
					"name": "amount",
					"type": "uint256",
					"internalType": "uint256"
				}
			],
			"outputs": [],
			"stateMutability": "nonpayable"
		},
		{
			"type": "function",
			"name": "checkpoints",
			"inputs": [
				{
					"name": "account",
					"type": "address",
					"internalType": "address"
				},
				{
					"name": "pos",
					"type": "uint32",
					"internalType": "uint32"
				}
			],
			"outputs": [
				{
					"name": "",
					"type": "tuple",
					"internalType": "struct Checkpoints.Checkpoint208",
					"components": [
						{
							"name": "_key",
							"type": "uint48",
							"internalType": "uint48"
						},
						{
							"name": "_value",
							"type": "uint208",
							"internalType": "uint208"
						}
					]
				}
			],
			"stateMutability": "view"
		},
		{
			"type": "function",
			"name": "clock",
			"inputs": [],
			"outputs": [
				{
					"name": "",
					"type": "uint48",
					"internalType": "uint48"
				}
			],
			"stateMutability": "view"
		},
		{
			"type": "function",
			"name": "decimals",
			"inputs": [],
			"outputs": [
				{
					"name": "",
					"type": "uint8",
					"internalType": "uint8"
				}
			],
			"stateMutability": "view"
		},
		{
			"type": "function",
			"name": "delegate",
			"inputs": [
				{
					"name": "delegatee",
					"type": "address",
					"internalType": "address"
				}
			],
			"outputs": [],
			"stateMutability": "nonpayable"
		},
		{
			"type": "function",
			"name": "delegateBySig",
			"inputs": [
				{
					"name": "delegatee",
					"type": "address",
					"internalType": "address"
				},
				{
					"name": "nonce",
					"type": "uint256",
					"internalType": "uint256"
				},
				{
					"name": "expiry",
					"type": "uint256",
					"internalType": "uint256"
				},
				{
					"name": "v",
					"type": "uint8",
					"internalType": "uint8"
				},
				{
					"name": "r",
					"type": "bytes32",
					"internalType": "bytes32"
				},
				{
					"name": "s",
					"type": "bytes32",
					"internalType": "bytes32"
				}
			],
			"outputs": [],
			"stateMutability": "nonpayable"
		},
		{
			"type": "function",
			"name": "delegates",
			"inputs": [
				{
					"name": "account",
					"type": "address",
					"internalType": "address"
				}
			],
			"outputs": [
				{
					"name": "",
					"type": "address",
					"internalType": "address"
				}
			],
			"stateMutability": "view"
		},
		{
			"type": "function",
			"name": "eip712Domain",
			"inputs": [],
			"outputs": [
				{
					"name": "fields",
					"type": "bytes1",
					"internalType": "bytes1"
				},
				{
					"name": "name",
					"type": "string",
					"internalType": "string"
				},
				{
					"name": "version",
					"type": "string",
					"internalType": "string"
				},
				{
					"name": "chainId",
					"type": "uint256",
					"internalType": "uint256"
				},
				{
					"name": "verifyingContract",
					"type": "address",
					"internalType": "address"
				},
				{
					"name": "salt",
					"type": "bytes32",
					"internalType": "bytes32"
				},
				{
					"name": "extensions",
					"type": "uint256[]",
					"internalType": "uint256[]"
				}
			],
			"stateMutability": "view"
		},
		{
			"type": "function",
			"name": "getPastTotalSupply",
			"inputs": [
				{
					"name": "timepoint",
					"type": "uint256",
					"internalType": "uint256"
				}
			],
			"outputs": [
				{
					"name": "",
					"type": "uint256",
					"internalType": "uint256"
				}
			],
			"stateMutability": "view"
		},
		{
			"type": "function",
			"name": "getPastVotes",
			"inputs": [
				{
					"name": "account",
					"type": "address",
					"internalType": "address"
				},
				{
					"name": "timepoint",
					"type": "uint256",
					"internalType": "uint256"
				}
			],
			"outputs": [
				{
					"name": "",
					"type": "uint256",
					"internalType": "uint256"
				}
			],
			"stateMutability": "view"
		},
		{
			"type": "function",
			"name": "getVotes",
			"inputs": [
				{
					"name": "account",
					"type": "address",
					"internalType": "address"
				}
			],
			"outputs": [
				{
					"name": "",
					"type": "uint256",
					"internalType": "uint256"
				}
			],
			"stateMutability": "view"
		},
		{
			"type": "function",
			"name": "initialize",
			"inputs": [
				{
					"name": "name_",
					"type": "string",
					"internalType": "string"
				},
				{
					"name": "symbol_",
					"type": "string",
					"internalType": "string"
				},
				{
					"name": "owner",
					"type": "address",
					"internalType": "address"
				}
			],
			"outputs": [],
			"stateMutability": "nonpayable"
		},
		{
			"type": "function",
			"name": "mint",
			"inputs": [
				{
					"name": "account",
					"type": "address",
					"internalType": "address"
				},
				{
					"name": "amount",
					"type": "uint256",
					"internalType": "uint256"
				}
			],
			"outputs": [],
			"stateMutability": "nonpayable"
		},
		{
			"type": "function",
			"name": "name",
			"inputs": [],
			"outputs": [
				{
					"name": "",
					"type": "string",
					"internalType": "string"
				}
			],
			"stateMutability": "view"
		},
		{
			"type": "function",
			"name": "nonces",
			"inputs": [
				{
					"name": "owner",
					"type": "address",
					"internalType": "address"
				}
			],
			"outputs": [
				{
					"name": "",
					"type": "uint256",
					"internalType": "uint256"
				}
			],
			"stateMutability": "view"
		},
		{
			"type": "function",
			"name": "numCheckpoints",
			"inputs": [
				{
					"name": "account",
					"type": "address",
					"internalType": "address"
				}
			],
			"outputs": [
				{
					"name": "",
					"type": "uint32",
					"internalType": "uint32"
				}
			],
			"stateMutability": "view"
		},
		{
			"type": "function",
			"name": "owner",
			"inputs": [],
			"outputs": [
				{
					"name": "",
					"type": "address",
					"internalType": "address"
				}
			],
			"stateMutability": "view"
		},
		{
			"type": "function",
			"name": "permit",
			"inputs": [
				{
					"name": "owner",
					"type": "address",
					"internalType": "address"
				},
				{
					"name": "spender",
					"type": "address",
					"internalType": "address"
				},
				{
					"name": "value",
					"type": "uint256",
					"internalType": "uint256"
				},
				{
					"name": "deadline",
					"type": "uint256",
					"internalType": "uint256"
				},
				{
					"name": "v",
					"type": "uint8",
					"internalType": "uint8"
				},
				{
					"name": "r",
					"type": "bytes32",
					"internalType": "bytes32"
				},
				{
					"name": "s",
					"type": "bytes32",
					"internalType": "bytes32"
				}
			],
			"outputs": [],
			"stateMutability": "nonpayable"
		},
		{
			"type": "function",
			"name": "renounceOwnership",
			"inputs": [],
			"outputs": [],
			"stateMutability": "nonpayable"
		},
		{
			"type": "function",
			"name": "symbol",
			"inputs": [],
			"outputs": [
				{
					"name": "",
					"type": "string",
					"internalType": "string"
				}
			],
			"stateMutability": "view"
		},
		{
			"type": "function",
			"name": "totalSupply",
			"inputs": [],
			"outputs": [
				{
					"name": "",
					"type": "uint256",
					"internalType": "uint256"
				}
			],
			"stateMutability": "view"
		},
		{
			"type": "function",
			"name": "transfer",
			"inputs": [
				{
					"name": "to",
					"type": "address",
					"internalType": "address"
				},
				{
					"name": "value",
					"type": "uint256",
					"internalType": "uint256"
				}
			],
			"outputs": [
				{
					"name": "",
					"type": "bool",
					"internalType": "bool"
				}
			],
			"stateMutability": "nonpayable"
		},
		{
			"type": "function",
			"name": "transferFrom",
			"inputs": [
				{
					"name": "from",
					"type": "address",
					"internalType": "address"
				},
				{
					"name": "to",
					"type": "address",
					"internalType": "address"
				},
				{
					"name": "value",
					"type": "uint256",
					"internalType": "uint256"
				}
			],
			"outputs": [
				{
					"name": "",
					"type": "bool",
					"internalType": "bool"
				}
			],
			"stateMutability": "nonpayable"
		},
		{
			"type": "function",
			"name": "transferOwnership",
			"inputs": [
				{
					"name": "newOwner",
					"type": "address",
					"internalType": "address"
				}
			],
			"outputs": [],
			"stateMutability": "nonpayable"
		},
		{
			"type": "event",
			"name": "Approval",
			"inputs": [
				{
					"name": "owner",
					"type": "address",
					"indexed": true,
					"internalType": "address"
				},
				{
					"name": "spender",
					"type": "address",
					"indexed": true,
					"internalType": "address"
				},
				{
					"name": "value",
					"type": "uint256",
					"indexed": false,
					"internalType": "uint256"
				}
			],
			"anonymous": false
		},
		{
			"type": "event",
			"name": "DelegateChanged",
			"inputs": [
				{
					"name": "delegator",
					"type": "address",
					"indexed": true,
					"internalType": "address"
				},
				{
					"name": "fromDelegate",
					"type": "address",
					"indexed": true,
					"internalType": "address"
				},
				{
					"name": "toDelegate",
					"type": "address",
					"indexed": true,
					"internalType": "address"
				}
			],
			"anonymous": false
		},
		{
			"type": "event",
			"name": "DelegateVotesChanged",
			"inputs": [
				{
					"name": "delegate",
					"type": "address",
					"indexed": true,
					"internalType": "address"
				},
				{
					"name": "previousVotes",
					"type": "uint256",
					"indexed": false,
					"internalType": "uint256"
				},
				{
					"name": "newVotes",
					"type": "uint256",
					"indexed": false,
					"internalType": "uint256"
				}
			],
			"anonymous": false
		},
		{
			"type": "event",
			"name": "EIP712DomainChanged",
			"inputs": [],
			"anonymous": false
		},
		{
			"type": "event",
			"name": "OwnershipTransferred",
			"inputs": [
				{
					"name": "previousOwner",
					"type": "address",
					"indexed": true,
					"internalType": "address"
				},
				{
					"name": "newOwner",
					"type": "address",
					"indexed": true,
					"internalType": "address"
				}
			],
			"anonymous": false
		},
		{
			"type": "event",
			"name": "Transfer",
			"inputs": [
				{
					"name": "from",
					"type": "address",
					"indexed": true,
					"internalType": "address"
				},
				{
					"name": "to",
					"type": "address",
					"indexed": true,
					"internalType": "address"
				},
				{
					"name": "value",
					"type": "uint256",
					"indexed": false,
					"internalType": "uint256"
				}
			],
			"anonymous": false
		},
		{
			"type": "error",
			"name": "CheckpointUnorderedInsertion",
			"inputs": []
		},
		{
			"type": "error",
			"name": "ECDSAInvalidSignature",
			"inputs": []
		},
		{
			"type": "error",
			"name": "ECDSAInvalidSignatureLength",
			"inputs": [
				{
					"name": "length",
					"type": "uint256",
					"internalType": "uint256"
				}
			]
		},
		{
			"type": "error",
			"name": "ECDSAInvalidSignatureS",
			"inputs": [
				{
					"name": "s",
					"type": "bytes32",
					"internalType": "bytes32"
				}
			]
		},
		{
			"type": "error",
			"name": "ERC20ExceededSafeSupply",
			"inputs": [
				{
					"name": "increasedSupply",
					"type": "uint256",
					"internalType": "uint256"
				},
				{
					"name": "cap",
					"type": "uint256",
					"internalType": "uint256"
				}
			]
		},
		{
			"type": "error",
			"name": "ERC20InsufficientAllowance",
			"inputs": [
				{
					"name": "spender",
					"type": "address",
					"internalType": "address"
				},
				{
					"name": "allowance",
					"type": "uint256",
					"internalType": "uint256"
				},
				{
					"name": "needed",
					"type": "uint256",
					"internalType": "uint256"
				}
			]
		},
		{
			"type": "error",
			"name": "ERC20InsufficientBalance",
			"inputs": [
				{
					"name": "sender",
					"type": "address",
					"internalType": "address"
				},
				{
					"name": "balance",
					"type": "uint256",
					"internalType": "uint256"
				},
				{
					"name": "needed",
					"type": "uint256",
					"internalType": "uint256"
				}
			]
		},
		{
			"type": "error",
			"name": "ERC20InvalidApprover",
			"inputs": [
				{
					"name": "approver",
					"type": "address",
					"internalType": "address"
				}
			]
		},
		{
			"type": "error",
			"name": "ERC20InvalidReceiver",
			"inputs": [
				{
					"name": "receiver",
					"type": "address",
					"internalType": "address"
				}
			]
		},
		{
			"type": "error",
			"name": "ERC20InvalidSender",
			"inputs": [
				{
					"name": "sender",
					"type": "address",
					"internalType": "address"
				}
			]
		},
		{
			"type": "error",
			"name": "ERC20InvalidSpender",
			"inputs": [
				{
					"name": "spender",
					"type": "address",
					"internalType": "address"
				}
			]
		},
		{
			"type": "error",
			"name": "ERC2612ExpiredSignature",
			"inputs": [
				{
					"name": "deadline",
					"type": "uint256",
					"internalType": "uint256"
				}
			]
		},
		{
			"type": "error",
			"name": "ERC2612InvalidSigner",
			"inputs": [
				{
					"name": "signer",
					"type": "address",
					"internalType": "address"
				},
				{
					"name": "owner",
					"type": "address",
					"internalType": "address"
				}
			]
		},
		{
			"type": "error",
			"name": "ERC5805FutureLookup",
			"inputs": [
				{
					"name": "timepoint",
					"type": "uint256",
					"internalType": "uint256"
				},
				{
					"name": "clock",
					"type": "uint48",
					"internalType": "uint48"
				}
			]
		},
		{
			"type": "error",
			"name": "ERC6372InconsistentClock",
			"inputs": []
		},
		{
			"type": "error",
			"name": "InvalidAccountNonce",
			"inputs": [
				{
					"name": "account",
					"type": "address",
					"internalType": "address"
				},
				{
					"name": "currentNonce",
					"type": "uint256",
					"internalType": "uint256"
				}
			]
		},
		{
			"type": "error",
			"name": "InvalidShortString",
			"inputs": []
		},
		{
			"type": "error",
			"name": "OwnableInvalidOwner",
			"inputs": [
				{
					"name": "owner",
					"type": "address",
					"internalType": "address"
				}
			]
		},
		{
			"type": "error",
			"name": "OwnableUnauthorizedAccount",
			"inputs": [
				{
					"name": "account",
					"type": "address",
					"internalType": "address"
				}
			]
		},
		{
			"type": "error",
			"name": "SafeCastOverflowedUintDowncast",
			"inputs": [
				{
					"name": "bits",
					"type": "uint8",
					"internalType": "uint8"
				},
				{
					"name": "value",
					"type": "uint256",
					"internalType": "uint256"
				}
			]
		},
		{
			"type": "error",
			"name": "StringTooLong",
			"inputs": [
				{
					"name": "str",
					"type": "string",
					"internalType": "string"
				}
			]
		},
		{
			"type": "error",
			"name": "VotesExpiredSignature",
			"inputs": [
				{
					"name": "expiry",
					"type": "uint256",
					"internalType": "uint256"
				}
			]
		}
	],
	"solcInputHash": "5d7a79485a8a4fd8d39819ca7cc29822",
	"args": [],
	"bytecode": "0x6101606040523480156200001257600080fd5b50306040518060400160405280600781526020016625212a37b5b2b760c91b81525080604051806040016040528060018152602001603160f81b815250604051806040016040528060078152602001661a5b9d985b1a5960ca1b815250604051806040016040528060078152602001661a5b9d985b1a5960ca1b8152508160039081620000a0919062000321565b506004620000af828262000321565b50620000c191508390506005620001ac565b61012052620000d2816006620001ac565b61014052815160208084019190912060e052815190820120610100524660a0526200016060e05161010051604080517f8b73c3c69bb8fe3d512ecc4cf759cc79239f7b179b0ffacaa9a75d522b39400f60208201529081019290925260608201524660808201523060a082015260009060c00160405160208183030381529060405280519060200120905090565b60805250503060c052506001600160a01b0381166200019a57604051631e4fbdf760e01b8152600060048201526024015b60405180910390fd5b620001a581620001e5565b5062000463565b6000602083511015620001cc57620001c48362000237565b9050620001df565b81620001d9848262000321565b5060ff90505b92915050565b600b80546001600160a01b038381166001600160a01b0319831681179093556040519116919082907f8be0079c531659141344cd1fd0a4f28419497f9722a3daafe3b4186f6b6457e090600090a35050565b600080829050601f8151111562000265578260405163305a27a960e01b8152600401620001919190620003ed565b805162000272826200043e565b179392505050565b634e487b7160e01b600052604160045260246000fd5b600181811c90821680620002a557607f821691505b602082108103620002c657634e487b7160e01b600052602260045260246000fd5b50919050565b601f8211156200031c576000816000526020600020601f850160051c81016020861015620002f75750805b601f850160051c820191505b81811015620003185782815560010162000303565b5050505b505050565b81516001600160401b038111156200033d576200033d6200027a565b62000355816200034e845462000290565b84620002cc565b602080601f8311600181146200038d5760008415620003745750858301515b600019600386901b1c1916600185901b17855562000318565b600085815260208120601f198616915b82811015620003be578886015182559484019460019091019084016200039d565b5085821015620003dd5787850151600019600388901b60f8161c191681555b5050505050600190811b01905550565b60006020808352835180602085015260005b818110156200041d57858101830151858201604001528201620003ff565b506000604082860101526040601f19601f8301168501019250505092915050565b80516020808301519190811015620002c65760001960209190910360031b1b16919050565b60805160a05160c05160e0516101005161012051610140516122e7620004be6000396000610f4e01526000610f2101526000610cbc01526000610c9401526000610bef01526000610c1901526000610c4301526122e76000f3fe608060405234801561001057600080fd5b50600436106101cf5760003560e01c8063715018a6116101045780639ab24eb0116100a2578063d505accf11610071578063d505accf146103f7578063dd62ed3e1461040a578063f1127ed814610443578063f2fde38b1461048257600080fd5b80639ab24eb0146103ab5780639dc29fac146103be578063a9059cbb146103d1578063c3cda520146103e457600080fd5b80638da5cb5b116100de5780638da5cb5b146103605780638e539e8c1461037157806391ddadf41461038457806395d89b41146103a357600080fd5b8063715018a61461032a5780637ecebe001461033257806384b0196e1461034557600080fd5b80633a46b1a811610171578063587cde1e1161014b578063587cde1e146102985780635c19a95c146102dc5780636fcfff45146102ef57806370a082311461031757600080fd5b80633a46b1a81461026a57806340c10f191461027d5780634bf5d7e91461029057600080fd5b806318160ddd116101ad57806318160ddd1461022a57806323b872dd14610240578063313ce567146102535780633644e5151461026257600080fd5b806306fdde03146101d4578063077f224a146101f2578063095ea7b314610207575b600080fd5b6101dc610495565b6040516101e99190611cc1565b60405180910390f35b610205610200366004611d93565b610527565b005b61021a610215366004611e07565b610574565b60405190151581526020016101e9565b61023261058e565b6040519081526020016101e9565b61021a61024e366004611e31565b61059e565b604051601281526020016101e9565b6102326105c2565b610232610278366004611e07565b6105cc565b61020561028b366004611e07565b610652565b6101dc610668565b6102c46102a6366004611e6d565b6001600160a01b039081166000908152600860205260409020541690565b6040516001600160a01b0390911681526020016101e9565b6102056102ea366004611e6d565b6106e0565b6103026102fd366004611e6d565b6106eb565b60405163ffffffff90911681526020016101e9565b610232610325366004611e6d565b6106f6565b610205610714565b610232610340366004611e6d565b610728565b61034d610733565b6040516101e99796959493929190611e88565b600b546001600160a01b03166102c4565b61023261037f366004611f21565b610779565b61038c6107e3565b60405165ffffffffffff90911681526020016101e9565b6101dc6107ed565b6102326103b9366004611e6d565b6107fc565b6102056103cc366004611e07565b61082c565b61021a6103df366004611e07565b61083e565b6102056103f2366004611f4b565b61084c565b610205610405366004611fa3565b610909565b61023261041836600461200d565b6001600160a01b03918216600090815260016020908152604080832093909416825291909152205490565b610456610451366004612040565b610a43565b60408051825165ffffffffffff1681526020928301516001600160d01b031692810192909252016101e9565b610205610490366004611e6d565b610a68565b6060600c80546104a490612080565b80601f01602080910402602001604051908101604052809291908181526020018280546104d090612080565b801561051d5780601f106104f25761010080835404028352916020019161051d565b820191906000526020600020905b81548152906001019060200180831161050057829003601f168201915b5050505050905090565b600c805461053490612080565b151590508061054257508251155b1561054c57600080fd5b600c610558848261210a565b50600d610565838261210a565b5061056f81610aa6565b505050565b600033610582818585610af8565b60019150505b92915050565b600061059960025490565b905090565b6000336105ac858285610b05565b6105b7858585610b83565b506001949350505050565b6000610599610be2565b6000806105d76107e3565b90508065ffffffffffff16831061061757604051637669fc0f60e11b81526004810184905265ffffffffffff821660248201526044015b60405180910390fd5b61064161062384610d0d565b6001600160a01b038616600090815260096020526040902090610d44565b6001600160d01b0316949350505050565b61065a610dfa565b6106648282610e27565b5050565b6060610672610e5d565b65ffffffffffff166106826107e3565b65ffffffffffff16146106a8576040516301bfc1c560e61b815260040160405180910390fd5b5060408051808201909152601d81527f6d6f64653d626c6f636b6e756d6265722666726f6d3d64656661756c74000000602082015290565b336106648183610e68565b600061058882610eda565b6001600160a01b038116600090815260208190526040812054610588565b61071c610dfa565b6107266000610aa6565b565b600061058882610efc565b600060608060008060006060610747610f1a565b61074f610f47565b60408051600080825260208201909252600f60f81b9b939a50919850469750309650945092509050565b6000806107846107e3565b90508065ffffffffffff1683106107bf57604051637669fc0f60e11b81526004810184905265ffffffffffff8216602482015260440161060e565b6107d36107cb84610d0d565b600a90610d44565b6001600160d01b03169392505050565b6000610599610e5d565b6060600d80546104a490612080565b6001600160a01b038116600090815260096020526040812061081d90610f74565b6001600160d01b031692915050565b610834610dfa565b6106648282610fad565b600033610582818585610b83565b8342111561087057604051632341d78760e11b81526004810185905260240161060e565b604080517fe48329057bfd03d55e49b547132e39cffd9c1820ad7b9d4c5307691425d15adf60208201526001600160a01b0388169181019190915260608101869052608081018590526000906108ea906108e29060a00160405160208183030381529060405280519060200120610fe3565b858585611010565b90506108f6818761103e565b6109008188610e68565b50505050505050565b8342111561092d5760405163313c898160e11b81526004810185905260240161060e565b60007f6e71edae12b1b97f4d1f60370fef10105fa2faae0126114a169c64845d6126c988888861097a8c6001600160a01b0316600090815260076020526040902080546001810190915590565b6040805160208101969096526001600160a01b0394851690860152929091166060840152608083015260a082015260c0810186905260e00160405160208183030381529060405280519060200120905060006109d582610fe3565b905060006109e582878787611010565b9050896001600160a01b0316816001600160a01b031614610a2c576040516325c0072360e11b81526001600160a01b0380831660048301528b16602482015260440161060e565b610a378a8a8a610af8565b50505050505050505050565b6040805180820190915260008082526020820152610a618383611091565b9392505050565b610a70610dfa565b6001600160a01b038116610a9a57604051631e4fbdf760e01b81526000600482015260240161060e565b610aa381610aa6565b50565b600b80546001600160a01b038381166001600160a01b0319831681179093556040519116919082907f8be0079c531659141344cd1fd0a4f28419497f9722a3daafe3b4186f6b6457e090600090a35050565b61056f83838360016110c7565b6001600160a01b038381166000908152600160209081526040808320938616835292905220546000198114610b7d5781811015610b6e57604051637dc7a0d960e11b81526001600160a01b0384166004820152602481018290526044810183905260640161060e565b610b7d848484840360006110c7565b50505050565b6001600160a01b038316610bad57604051634b637e8f60e11b81526000600482015260240161060e565b6001600160a01b038216610bd75760405163ec442f0560e01b81526000600482015260240161060e565b61056f83838361119c565b6000306001600160a01b037f000000000000000000000000000000000000000000000000000000000000000016148015610c3b57507f000000000000000000000000000000000000000000000000000000000000000046145b15610c6557507f000000000000000000000000000000000000000000000000000000000000000090565b610599604080517f8b73c3c69bb8fe3d512ecc4cf759cc79239f7b179b0ffacaa9a75d522b39400f60208201527f0000000000000000000000000000000000000000000000000000000000000000918101919091527f000000000000000000000000000000000000000000000000000000000000000060608201524660808201523060a082015260009060c00160405160208183030381529060405280519060200120905090565b600065ffffffffffff821115610d40576040516306dfcc6560e41b8152603060048201526024810183905260440161060e565b5090565b815460009081816005811115610da3576000610d5f846111a7565b610d6990856121e0565b60008881526020902090915081015465ffffffffffff9081169087161015610d9357809150610da1565b610d9e8160016121f3565b92505b505b6000610db18787858561128f565b90508015610dec57610dd687610dc86001846121e0565b600091825260209091200190565b54600160301b90046001600160d01b0316610def565b60005b979650505050505050565b600b546001600160a01b031633146107265760405163118cdaa760e01b815233600482015260240161060e565b6001600160a01b038216610e515760405163ec442f0560e01b81526000600482015260240161060e565b6106646000838361119c565b600061059943610d0d565b6001600160a01b0382811660008181526008602052604080822080548686166001600160a01b0319821681179092559151919094169392849290917f3134e8a2e6d97e929a7e54011ea5485d7d196dd5f0ba4d4ef95803e8e3fc257f9190a461056f8183610ed5866112f1565b6112fc565b6001600160a01b03811660009081526009602052604081205461058890611468565b6001600160a01b038116600090815260076020526040812054610588565b60606105997f00000000000000000000000000000000000000000000000000000000000000006005611499565b60606105997f00000000000000000000000000000000000000000000000000000000000000006006611499565b80546000908015610fa457610f8e83610dc86001846121e0565b54600160301b90046001600160d01b0316610a61565b60009392505050565b6001600160a01b038216610fd757604051634b637e8f60e11b81526000600482015260240161060e565b6106648260008361119c565b6000610588610ff0610be2565b8360405161190160f01b8152600281019290925260228201526042902090565b60008060008061102288888888611544565b9250925092506110328282611613565b50909695505050505050565b6001600160a01b038216600090815260076020526040902080546001810190915581811461056f576040516301d4b62360e61b81526001600160a01b03841660048201526024810182905260440161060e565b60408051808201909152600080825260208201526001600160a01b0383166000908152600960205260409020610a6190836116cc565b6001600160a01b0384166110f15760405163e602df0560e01b81526000600482015260240161060e565b6001600160a01b03831661111b57604051634a1406b160e11b81526000600482015260240161060e565b6001600160a01b0380851660009081526001602090815260408083209387168352929052208290558015610b7d57826001600160a01b0316846001600160a01b03167f8c5be1e5ebec7d5bd14f71427d1e84f3dd0314c0f7b2291e5b200ac8c7c3b9258460405161118e91815260200190565b60405180910390a350505050565b61056f83838361173c565b6000816000036111b957506000919050565b600060016111c6846117a2565b901c6001901b905060018184816111df576111df612206565b048201901c905060018184816111f7576111f7612206565b048201901c9050600181848161120f5761120f612206565b048201901c9050600181848161122757611227612206565b048201901c9050600181848161123f5761123f612206565b048201901c9050600181848161125757611257612206565b048201901c9050600181848161126f5761126f612206565b048201901c9050610a618182858161128957611289612206565b04611836565b60005b818310156112e95760006112a6848461184c565b60008781526020902090915065ffffffffffff86169082015465ffffffffffff1611156112d5578092506112e3565b6112e08160016121f3565b93505b50611292565b509392505050565b6000610588826106f6565b816001600160a01b0316836001600160a01b03161415801561131e5750600081115b1561056f576001600160a01b038316156113c6576001600160a01b038316600090815260096020526040812081906113619061186761135c86611873565b6118a7565b6001600160d01b031691506001600160d01b03169150846001600160a01b03167fdec2bacdd2f05b59de34da9b523dff8be42e5e38e818c82fdb0bae774387a72483836040516113bb929190918252602082015260400190565b60405180910390a250505b6001600160a01b0382161561056f576001600160a01b038216600090815260096020526040812081906113ff906118e061135c86611873565b6001600160d01b031691506001600160d01b03169150836001600160a01b03167fdec2bacdd2f05b59de34da9b523dff8be42e5e38e818c82fdb0bae774387a7248383604051611459929190918252602082015260400190565b60405180910390a25050505050565b600063ffffffff821115610d40576040516306dfcc6560e41b8152602060048201526024810183905260440161060e565b606060ff83146114b3576114ac836118ec565b9050610588565b8180546114bf90612080565b80601f01602080910402602001604051908101604052809291908181526020018280546114eb90612080565b80156115385780601f1061150d57610100808354040283529160200191611538565b820191906000526020600020905b81548152906001019060200180831161151b57829003601f168201915b50505050509050610588565b600080807f7fffffffffffffffffffffffffffffff5d576e7357a4501ddfe92f46681b20a084111561157f5750600091506003905082611609565b604080516000808252602082018084528a905260ff891692820192909252606081018790526080810186905260019060a0016020604051602081039080840390855afa1580156115d3573d6000803e3d6000fd5b5050604051601f1901519150506001600160a01b0381166115ff57506000925060019150829050611609565b9250600091508190505b9450945094915050565b60008260038111156116275761162761221c565b03611630575050565b60018260038111156116445761164461221c565b036116625760405163f645eedf60e01b815260040160405180910390fd5b60028260038111156116765761167661221c565b036116975760405163fce698f760e01b81526004810182905260240161060e565b60038260038111156116ab576116ab61221c565b03610664576040516335e2f38360e21b81526004810182905260240161060e565b6040805180820190915260008082526020820152826000018263ffffffff16815481106116fb576116fb612232565b60009182526020918290206040805180820190915291015465ffffffffffff81168252600160301b90046001600160d01b0316918101919091529392505050565b61174783838361192b565b6001600160a01b03831661179757600061175f61058e565b90506001600160d01b038082111561179457604051630e58ae9360e11b8152600481018390526024810182905260440161060e565b50505b61056f838383611a55565b600080608083901c156117b757608092831c92015b604083901c156117c957604092831c92015b602083901c156117db57602092831c92015b601083901c156117ed57601092831c92015b600883901c156117ff57600892831c92015b600483901c1561181157600492831c92015b600283901c1561182357600292831c92015b600183901c156105885760010192915050565b60008183106118455781610a61565b5090919050565b600061185b6002848418612248565b610a61908484166121f3565b6000610a61828461226a565b60006001600160d01b03821115610d40576040516306dfcc6560e41b815260d060048201526024810183905260440161060e565b6000806118d36118b56107e3565b6118cb6118c188610f74565b868863ffffffff16565b879190611acb565b915091505b935093915050565b6000610a618284612291565b606060006118f983611ad9565b604080516020808252818301909252919250600091906020820181803683375050509182525060208101929092525090565b6001600160a01b03831661195657806002600082825461194b91906121f3565b909155506119c89050565b6001600160a01b038316600090815260208190526040902054818110156119a95760405163391434e360e21b81526001600160a01b0385166004820152602481018290526044810183905260640161060e565b6001600160a01b03841660009081526020819052604090209082900390555b6001600160a01b0382166119e457600280548290039055611a03565b6001600160a01b03821660009081526020819052604090208054820190555b816001600160a01b0316836001600160a01b03167fddf252ad1be2c89b69c2b068fc378daa952ba7f163c4a11628f55a4df523b3ef83604051611a4891815260200190565b60405180910390a3505050565b6001600160a01b038316611a7757611a74600a6118e061135c84611873565b50505b6001600160a01b038216611a9957611a96600a61186761135c84611873565b50505b6001600160a01b0383811660009081526008602052604080822054858416835291205461056f929182169116836112fc565b6000806118d3858585611b01565b600060ff8216601f81111561058857604051632cd44ac360e21b815260040160405180910390fd5b825460009081908015611c20576000611b1f87610dc86001856121e0565b60408051808201909152905465ffffffffffff808216808452600160301b9092046001600160d01b031660208401529192509087161015611b7357604051632520601d60e01b815260040160405180910390fd5b805165ffffffffffff808816911603611bbf5784611b9688610dc86001866121e0565b80546001600160d01b0392909216600160301b0265ffffffffffff909216919091179055611c10565b6040805180820190915265ffffffffffff80881682526001600160d01b0380881660208085019182528b54600181018d5560008d81529190912094519151909216600160301b029216919091179101555b6020015192508391506118d89050565b50506040805180820190915265ffffffffffff80851682526001600160d01b0380851660208085019182528854600181018a5560008a815291822095519251909316600160301b0291909316179201919091559050816118d8565b6000815180845260005b81811015611ca157602081850181015186830182015201611c85565b506000602082860101526020601f19601f83011685010191505092915050565b602081526000610a616020830184611c7b565b634e487b7160e01b600052604160045260246000fd5b600082601f830112611cfb57600080fd5b813567ffffffffffffffff80821115611d1657611d16611cd4565b604051601f8301601f19908116603f01168101908282118183101715611d3e57611d3e611cd4565b81604052838152866020858801011115611d5757600080fd5b836020870160208301376000602085830101528094505050505092915050565b80356001600160a01b0381168114611d8e57600080fd5b919050565b600080600060608486031215611da857600080fd5b833567ffffffffffffffff80821115611dc057600080fd5b611dcc87838801611cea565b94506020860135915080821115611de257600080fd5b50611def86828701611cea565b925050611dfe60408501611d77565b90509250925092565b60008060408385031215611e1a57600080fd5b611e2383611d77565b946020939093013593505050565b600080600060608486031215611e4657600080fd5b611e4f84611d77565b9250611e5d60208501611d77565b9150604084013590509250925092565b600060208284031215611e7f57600080fd5b610a6182611d77565b60ff60f81b881681526000602060e06020840152611ea960e084018a611c7b565b8381036040850152611ebb818a611c7b565b606085018990526001600160a01b038816608086015260a0850187905284810360c08601528551808252602080880193509091019060005b81811015611f0f57835183529284019291840191600101611ef3565b50909c9b505050505050505050505050565b600060208284031215611f3357600080fd5b5035919050565b803560ff81168114611d8e57600080fd5b60008060008060008060c08789031215611f6457600080fd5b611f6d87611d77565b95506020870135945060408701359350611f8960608801611f3a565b92506080870135915060a087013590509295509295509295565b600080600080600080600060e0888a031215611fbe57600080fd5b611fc788611d77565b9650611fd560208901611d77565b95506040880135945060608801359350611ff160808901611f3a565b925060a0880135915060c0880135905092959891949750929550565b6000806040838503121561202057600080fd5b61202983611d77565b915061203760208401611d77565b90509250929050565b6000806040838503121561205357600080fd5b61205c83611d77565b9150602083013563ffffffff8116811461207557600080fd5b809150509250929050565b600181811c9082168061209457607f821691505b6020821081036120b457634e487b7160e01b600052602260045260246000fd5b50919050565b601f82111561056f576000816000526020600020601f850160051c810160208610156120e35750805b601f850160051c820191505b81811015612102578281556001016120ef565b505050505050565b815167ffffffffffffffff81111561212457612124611cd4565b612138816121328454612080565b846120ba565b602080601f83116001811461216d57600084156121555750858301515b600019600386901b1c1916600185901b178555612102565b600085815260208120601f198616915b8281101561219c5788860151825594840194600190910190840161217d565b50858210156121ba5787850151600019600388901b60f8161c191681555b5050505050600190811b01905550565b634e487b7160e01b600052601160045260246000fd5b81810381811115610588576105886121ca565b80820180821115610588576105886121ca565b634e487b7160e01b600052601260045260246000fd5b634e487b7160e01b600052602160045260246000fd5b634e487b7160e01b600052603260045260246000fd5b60008261226557634e487b7160e01b600052601260045260246000fd5b500490565b6001600160d01b0382811682821603908082111561228a5761228a6121ca565b5092915050565b6001600160d01b0381811683821601908082111561228a5761228a6121ca56fea26469706673582212200d44911cf2f18f3dfd278d2fd60c354fbfce115f263e80399273c0ceda9b672a64736f6c63430008170033",
	"deployedBytecode": "0x608060405234801561001057600080fd5b50600436106101cf5760003560e01c8063715018a6116101045780639ab24eb0116100a2578063d505accf11610071578063d505accf146103f7578063dd62ed3e1461040a578063f1127ed814610443578063f2fde38b1461048257600080fd5b80639ab24eb0146103ab5780639dc29fac146103be578063a9059cbb146103d1578063c3cda520146103e457600080fd5b80638da5cb5b116100de5780638da5cb5b146103605780638e539e8c1461037157806391ddadf41461038457806395d89b41146103a357600080fd5b8063715018a61461032a5780637ecebe001461033257806384b0196e1461034557600080fd5b80633a46b1a811610171578063587cde1e1161014b578063587cde1e146102985780635c19a95c146102dc5780636fcfff45146102ef57806370a082311461031757600080fd5b80633a46b1a81461026a57806340c10f191461027d5780634bf5d7e91461029057600080fd5b806318160ddd116101ad57806318160ddd1461022a57806323b872dd14610240578063313ce567146102535780633644e5151461026257600080fd5b806306fdde03146101d4578063077f224a146101f2578063095ea7b314610207575b600080fd5b6101dc610495565b6040516101e99190611cc1565b60405180910390f35b610205610200366004611d93565b610527565b005b61021a610215366004611e07565b610574565b60405190151581526020016101e9565b61023261058e565b6040519081526020016101e9565b61021a61024e366004611e31565b61059e565b604051601281526020016101e9565b6102326105c2565b610232610278366004611e07565b6105cc565b61020561028b366004611e07565b610652565b6101dc610668565b6102c46102a6366004611e6d565b6001600160a01b039081166000908152600860205260409020541690565b6040516001600160a01b0390911681526020016101e9565b6102056102ea366004611e6d565b6106e0565b6103026102fd366004611e6d565b6106eb565b60405163ffffffff90911681526020016101e9565b610232610325366004611e6d565b6106f6565b610205610714565b610232610340366004611e6d565b610728565b61034d610733565b6040516101e99796959493929190611e88565b600b546001600160a01b03166102c4565b61023261037f366004611f21565b610779565b61038c6107e3565b60405165ffffffffffff90911681526020016101e9565b6101dc6107ed565b6102326103b9366004611e6d565b6107fc565b6102056103cc366004611e07565b61082c565b61021a6103df366004611e07565b61083e565b6102056103f2366004611f4b565b61084c565b610205610405366004611fa3565b610909565b61023261041836600461200d565b6001600160a01b03918216600090815260016020908152604080832093909416825291909152205490565b610456610451366004612040565b610a43565b60408051825165ffffffffffff1681526020928301516001600160d01b031692810192909252016101e9565b610205610490366004611e6d565b610a68565b6060600c80546104a490612080565b80601f01602080910402602001604051908101604052809291908181526020018280546104d090612080565b801561051d5780601f106104f25761010080835404028352916020019161051d565b820191906000526020600020905b81548152906001019060200180831161050057829003601f168201915b5050505050905090565b600c805461053490612080565b151590508061054257508251155b1561054c57600080fd5b600c610558848261210a565b50600d610565838261210a565b5061056f81610aa6565b505050565b600033610582818585610af8565b60019150505b92915050565b600061059960025490565b905090565b6000336105ac858285610b05565b6105b7858585610b83565b506001949350505050565b6000610599610be2565b6000806105d76107e3565b90508065ffffffffffff16831061061757604051637669fc0f60e11b81526004810184905265ffffffffffff821660248201526044015b60405180910390fd5b61064161062384610d0d565b6001600160a01b038616600090815260096020526040902090610d44565b6001600160d01b0316949350505050565b61065a610dfa565b6106648282610e27565b5050565b6060610672610e5d565b65ffffffffffff166106826107e3565b65ffffffffffff16146106a8576040516301bfc1c560e61b815260040160405180910390fd5b5060408051808201909152601d81527f6d6f64653d626c6f636b6e756d6265722666726f6d3d64656661756c74000000602082015290565b336106648183610e68565b600061058882610eda565b6001600160a01b038116600090815260208190526040812054610588565b61071c610dfa565b6107266000610aa6565b565b600061058882610efc565b600060608060008060006060610747610f1a565b61074f610f47565b60408051600080825260208201909252600f60f81b9b939a50919850469750309650945092509050565b6000806107846107e3565b90508065ffffffffffff1683106107bf57604051637669fc0f60e11b81526004810184905265ffffffffffff8216602482015260440161060e565b6107d36107cb84610d0d565b600a90610d44565b6001600160d01b03169392505050565b6000610599610e5d565b6060600d80546104a490612080565b6001600160a01b038116600090815260096020526040812061081d90610f74565b6001600160d01b031692915050565b610834610dfa565b6106648282610fad565b600033610582818585610b83565b8342111561087057604051632341d78760e11b81526004810185905260240161060e565b604080517fe48329057bfd03d55e49b547132e39cffd9c1820ad7b9d4c5307691425d15adf60208201526001600160a01b0388169181019190915260608101869052608081018590526000906108ea906108e29060a00160405160208183030381529060405280519060200120610fe3565b858585611010565b90506108f6818761103e565b6109008188610e68565b50505050505050565b8342111561092d5760405163313c898160e11b81526004810185905260240161060e565b60007f6e71edae12b1b97f4d1f60370fef10105fa2faae0126114a169c64845d6126c988888861097a8c6001600160a01b0316600090815260076020526040902080546001810190915590565b6040805160208101969096526001600160a01b0394851690860152929091166060840152608083015260a082015260c0810186905260e00160405160208183030381529060405280519060200120905060006109d582610fe3565b905060006109e582878787611010565b9050896001600160a01b0316816001600160a01b031614610a2c576040516325c0072360e11b81526001600160a01b0380831660048301528b16602482015260440161060e565b610a378a8a8a610af8565b50505050505050505050565b6040805180820190915260008082526020820152610a618383611091565b9392505050565b610a70610dfa565b6001600160a01b038116610a9a57604051631e4fbdf760e01b81526000600482015260240161060e565b610aa381610aa6565b50565b600b80546001600160a01b038381166001600160a01b0319831681179093556040519116919082907f8be0079c531659141344cd1fd0a4f28419497f9722a3daafe3b4186f6b6457e090600090a35050565b61056f83838360016110c7565b6001600160a01b038381166000908152600160209081526040808320938616835292905220546000198114610b7d5781811015610b6e57604051637dc7a0d960e11b81526001600160a01b0384166004820152602481018290526044810183905260640161060e565b610b7d848484840360006110c7565b50505050565b6001600160a01b038316610bad57604051634b637e8f60e11b81526000600482015260240161060e565b6001600160a01b038216610bd75760405163ec442f0560e01b81526000600482015260240161060e565b61056f83838361119c565b6000306001600160a01b037f000000000000000000000000f8febdbcc8acfb46bfb59e7695f77d8ea653a69d16148015610c3b57507f0000000000000000000000000000000000000000000000000000000000aa37dc46145b15610c6557507f5e0e5b04c37cbb79d65e3c33694bd15997b7d92762ad3f7107349fcf61ef26df90565b610599604080517f8b73c3c69bb8fe3d512ecc4cf759cc79239f7b179b0ffacaa9a75d522b39400f60208201527f9c7cae8524849651857e41dcb0fe4f4ab844f18147824e3e8bf5d526700f2c36918101919091527fc89efdaa54c0f20c7adf612882df0950f5a951637e0307cdcb4c672f298b8bc660608201524660808201523060a082015260009060c00160405160208183030381529060405280519060200120905090565b600065ffffffffffff821115610d40576040516306dfcc6560e41b8152603060048201526024810183905260440161060e565b5090565b815460009081816005811115610da3576000610d5f846111a7565b610d6990856121e0565b60008881526020902090915081015465ffffffffffff9081169087161015610d9357809150610da1565b610d9e8160016121f3565b92505b505b6000610db18787858561128f565b90508015610dec57610dd687610dc86001846121e0565b600091825260209091200190565b54600160301b90046001600160d01b0316610def565b60005b979650505050505050565b600b546001600160a01b031633146107265760405163118cdaa760e01b815233600482015260240161060e565b6001600160a01b038216610e515760405163ec442f0560e01b81526000600482015260240161060e565b6106646000838361119c565b600061059943610d0d565b6001600160a01b0382811660008181526008602052604080822080548686166001600160a01b0319821681179092559151919094169392849290917f3134e8a2e6d97e929a7e54011ea5485d7d196dd5f0ba4d4ef95803e8e3fc257f9190a461056f8183610ed5866112f1565b6112fc565b6001600160a01b03811660009081526009602052604081205461058890611468565b6001600160a01b038116600090815260076020526040812054610588565b60606105997f4a42546f6b656e000000000000000000000000000000000000000000000000076005611499565b60606105997f31000000000000000000000000000000000000000000000000000000000000016006611499565b80546000908015610fa457610f8e83610dc86001846121e0565b54600160301b90046001600160d01b0316610a61565b60009392505050565b6001600160a01b038216610fd757604051634b637e8f60e11b81526000600482015260240161060e565b6106648260008361119c565b6000610588610ff0610be2565b8360405161190160f01b8152600281019290925260228201526042902090565b60008060008061102288888888611544565b9250925092506110328282611613565b50909695505050505050565b6001600160a01b038216600090815260076020526040902080546001810190915581811461056f576040516301d4b62360e61b81526001600160a01b03841660048201526024810182905260440161060e565b60408051808201909152600080825260208201526001600160a01b0383166000908152600960205260409020610a6190836116cc565b6001600160a01b0384166110f15760405163e602df0560e01b81526000600482015260240161060e565b6001600160a01b03831661111b57604051634a1406b160e11b81526000600482015260240161060e565b6001600160a01b0380851660009081526001602090815260408083209387168352929052208290558015610b7d57826001600160a01b0316846001600160a01b03167f8c5be1e5ebec7d5bd14f71427d1e84f3dd0314c0f7b2291e5b200ac8c7c3b9258460405161118e91815260200190565b60405180910390a350505050565b61056f83838361173c565b6000816000036111b957506000919050565b600060016111c6846117a2565b901c6001901b905060018184816111df576111df612206565b048201901c905060018184816111f7576111f7612206565b048201901c9050600181848161120f5761120f612206565b048201901c9050600181848161122757611227612206565b048201901c9050600181848161123f5761123f612206565b048201901c9050600181848161125757611257612206565b048201901c9050600181848161126f5761126f612206565b048201901c9050610a618182858161128957611289612206565b04611836565b60005b818310156112e95760006112a6848461184c565b60008781526020902090915065ffffffffffff86169082015465ffffffffffff1611156112d5578092506112e3565b6112e08160016121f3565b93505b50611292565b509392505050565b6000610588826106f6565b816001600160a01b0316836001600160a01b03161415801561131e5750600081115b1561056f576001600160a01b038316156113c6576001600160a01b038316600090815260096020526040812081906113619061186761135c86611873565b6118a7565b6001600160d01b031691506001600160d01b03169150846001600160a01b03167fdec2bacdd2f05b59de34da9b523dff8be42e5e38e818c82fdb0bae774387a72483836040516113bb929190918252602082015260400190565b60405180910390a250505b6001600160a01b0382161561056f576001600160a01b038216600090815260096020526040812081906113ff906118e061135c86611873565b6001600160d01b031691506001600160d01b03169150836001600160a01b03167fdec2bacdd2f05b59de34da9b523dff8be42e5e38e818c82fdb0bae774387a7248383604051611459929190918252602082015260400190565b60405180910390a25050505050565b600063ffffffff821115610d40576040516306dfcc6560e41b8152602060048201526024810183905260440161060e565b606060ff83146114b3576114ac836118ec565b9050610588565b8180546114bf90612080565b80601f01602080910402602001604051908101604052809291908181526020018280546114eb90612080565b80156115385780601f1061150d57610100808354040283529160200191611538565b820191906000526020600020905b81548152906001019060200180831161151b57829003601f168201915b50505050509050610588565b600080807f7fffffffffffffffffffffffffffffff5d576e7357a4501ddfe92f46681b20a084111561157f5750600091506003905082611609565b604080516000808252602082018084528a905260ff891692820192909252606081018790526080810186905260019060a0016020604051602081039080840390855afa1580156115d3573d6000803e3d6000fd5b5050604051601f1901519150506001600160a01b0381166115ff57506000925060019150829050611609565b9250600091508190505b9450945094915050565b60008260038111156116275761162761221c565b03611630575050565b60018260038111156116445761164461221c565b036116625760405163f645eedf60e01b815260040160405180910390fd5b60028260038111156116765761167661221c565b036116975760405163fce698f760e01b81526004810182905260240161060e565b60038260038111156116ab576116ab61221c565b03610664576040516335e2f38360e21b81526004810182905260240161060e565b6040805180820190915260008082526020820152826000018263ffffffff16815481106116fb576116fb612232565b60009182526020918290206040805180820190915291015465ffffffffffff81168252600160301b90046001600160d01b0316918101919091529392505050565b61174783838361192b565b6001600160a01b03831661179757600061175f61058e565b90506001600160d01b038082111561179457604051630e58ae9360e11b8152600481018390526024810182905260440161060e565b50505b61056f838383611a55565b600080608083901c156117b757608092831c92015b604083901c156117c957604092831c92015b602083901c156117db57602092831c92015b601083901c156117ed57601092831c92015b600883901c156117ff57600892831c92015b600483901c1561181157600492831c92015b600283901c1561182357600292831c92015b600183901c156105885760010192915050565b60008183106118455781610a61565b5090919050565b600061185b6002848418612248565b610a61908484166121f3565b6000610a61828461226a565b60006001600160d01b03821115610d40576040516306dfcc6560e41b815260d060048201526024810183905260440161060e565b6000806118d36118b56107e3565b6118cb6118c188610f74565b868863ffffffff16565b879190611acb565b915091505b935093915050565b6000610a618284612291565b606060006118f983611ad9565b604080516020808252818301909252919250600091906020820181803683375050509182525060208101929092525090565b6001600160a01b03831661195657806002600082825461194b91906121f3565b909155506119c89050565b6001600160a01b038316600090815260208190526040902054818110156119a95760405163391434e360e21b81526001600160a01b0385166004820152602481018290526044810183905260640161060e565b6001600160a01b03841660009081526020819052604090209082900390555b6001600160a01b0382166119e457600280548290039055611a03565b6001600160a01b03821660009081526020819052604090208054820190555b816001600160a01b0316836001600160a01b03167fddf252ad1be2c89b69c2b068fc378daa952ba7f163c4a11628f55a4df523b3ef83604051611a4891815260200190565b60405180910390a3505050565b6001600160a01b038316611a7757611a74600a6118e061135c84611873565b50505b6001600160a01b038216611a9957611a96600a61186761135c84611873565b50505b6001600160a01b0383811660009081526008602052604080822054858416835291205461056f929182169116836112fc565b6000806118d3858585611b01565b600060ff8216601f81111561058857604051632cd44ac360e21b815260040160405180910390fd5b825460009081908015611c20576000611b1f87610dc86001856121e0565b60408051808201909152905465ffffffffffff808216808452600160301b9092046001600160d01b031660208401529192509087161015611b7357604051632520601d60e01b815260040160405180910390fd5b805165ffffffffffff808816911603611bbf5784611b9688610dc86001866121e0565b80546001600160d01b0392909216600160301b0265ffffffffffff909216919091179055611c10565b6040805180820190915265ffffffffffff80881682526001600160d01b0380881660208085019182528b54600181018d5560008d81529190912094519151909216600160301b029216919091179101555b6020015192508391506118d89050565b50506040805180820190915265ffffffffffff80851682526001600160d01b0380851660208085019182528854600181018a5560008a815291822095519251909316600160301b0291909316179201919091559050816118d8565b6000815180845260005b81811015611ca157602081850181015186830182015201611c85565b506000602082860101526020601f19601f83011685010191505092915050565b602081526000610a616020830184611c7b565b634e487b7160e01b600052604160045260246000fd5b600082601f830112611cfb57600080fd5b813567ffffffffffffffff80821115611d1657611d16611cd4565b604051601f8301601f19908116603f01168101908282118183101715611d3e57611d3e611cd4565b81604052838152866020858801011115611d5757600080fd5b836020870160208301376000602085830101528094505050505092915050565b80356001600160a01b0381168114611d8e57600080fd5b919050565b600080600060608486031215611da857600080fd5b833567ffffffffffffffff80821115611dc057600080fd5b611dcc87838801611cea565b94506020860135915080821115611de257600080fd5b50611def86828701611cea565b925050611dfe60408501611d77565b90509250925092565b60008060408385031215611e1a57600080fd5b611e2383611d77565b946020939093013593505050565b600080600060608486031215611e4657600080fd5b611e4f84611d77565b9250611e5d60208501611d77565b9150604084013590509250925092565b600060208284031215611e7f57600080fd5b610a6182611d77565b60ff60f81b881681526000602060e06020840152611ea960e084018a611c7b565b8381036040850152611ebb818a611c7b565b606085018990526001600160a01b038816608086015260a0850187905284810360c08601528551808252602080880193509091019060005b81811015611f0f57835183529284019291840191600101611ef3565b50909c9b505050505050505050505050565b600060208284031215611f3357600080fd5b5035919050565b803560ff81168114611d8e57600080fd5b60008060008060008060c08789031215611f6457600080fd5b611f6d87611d77565b95506020870135945060408701359350611f8960608801611f3a565b92506080870135915060a087013590509295509295509295565b600080600080600080600060e0888a031215611fbe57600080fd5b611fc788611d77565b9650611fd560208901611d77565b95506040880135945060608801359350611ff160808901611f3a565b925060a0880135915060c0880135905092959891949750929550565b6000806040838503121561202057600080fd5b61202983611d77565b915061203760208401611d77565b90509250929050565b6000806040838503121561205357600080fd5b61205c83611d77565b9150602083013563ffffffff8116811461207557600080fd5b809150509250929050565b600181811c9082168061209457607f821691505b6020821081036120b457634e487b7160e01b600052602260045260246000fd5b50919050565b601f82111561056f576000816000526020600020601f850160051c810160208610156120e35750805b601f850160051c820191505b81811015612102578281556001016120ef565b505050505050565b815167ffffffffffffffff81111561212457612124611cd4565b612138816121328454612080565b846120ba565b602080601f83116001811461216d57600084156121555750858301515b600019600386901b1c1916600185901b178555612102565b600085815260208120601f198616915b8281101561219c5788860151825594840194600190910190840161217d565b50858210156121ba5787850151600019600388901b60f8161c191681555b5050505050600190811b01905550565b634e487b7160e01b600052601160045260246000fd5b81810381811115610588576105886121ca565b80820180821115610588576105886121ca565b634e487b7160e01b600052601260045260246000fd5b634e487b7160e01b600052602160045260246000fd5b634e487b7160e01b600052603260045260246000fd5b60008261226557634e487b7160e01b600052601260045260246000fd5b500490565b6001600160d01b0382811682821603908082111561228a5761228a6121ca565b5092915050565b6001600160d01b0381811683821601908082111561228a5761228a6121ca56fea26469706673582212200d44911cf2f18f3dfd278d2fd60c354fbfce115f263e80399273c0ceda9b672a64736f6c63430008170033",
	"devdoc": {
		"kind": "dev",
		"methods": {
			"CLOCK_MODE()": {
				"details": "Machine-readable description of the clock as specified in EIP-6372."
			},
			"DOMAIN_SEPARATOR()": {
				"details": "Returns the domain separator used in the encoding of the signature for {permit}, as defined by {EIP712}."
			},
			"allowance(address,address)": {
				"details": "See {IERC20-allowance}."
			},
			"approve(address,uint256)": {
				"details": "See {IERC20-approve}. NOTE: If `value` is the maximum `uint256`, the allowance is not updated on `transferFrom`. This is semantically equivalent to an infinite approval. Requirements: - `spender` cannot be the zero address."
			},
			"balanceOf(address)": {
				"params": {
					"account": "The account to get the balance of."
				},
				"returns": {
					"_0": "The number of tokens owned by the `account`, as a fixed point number with 18 decimals."
				}
			},
			"burn(address,uint256)": {
				"details": "Can only be called by this contract's owner.",
				"params": {
					"account": "The address to burn tokens from.",
					"amount": "The amount of tokens to burn, as a fixed point number with 18 decimals."
				}
			},
			"checkpoints(address,uint32)": {
				"details": "Get the `pos`-th checkpoint for `account`."
			},
			"clock()": {
				"details": "Clock used for flagging checkpoints. Can be overridden to implement timestamp based checkpoints (and voting), in which case {CLOCK_MODE} should be overridden as well to match."
			},
			"decimals()": {
				"returns": {
					"_0": "The number of decimals."
				}
			},
			"delegate(address)": {
				"details": "Delegates votes from the sender to `delegatee`."
			},
			"delegateBySig(address,uint256,uint256,uint8,bytes32,bytes32)": {
				"details": "Delegates votes from signer to `delegatee`."
			},
			"delegates(address)": {
				"details": "Returns the delegate that `account` has chosen."
			},
			"eip712Domain()": {
				"details": "See {IERC-5267}."
			},
			"getPastTotalSupply(uint256)": {
				"details": "Returns the total supply of votes available at a specific moment in the past. If the `clock()` is configured to use block numbers, this will return the value at the end of the corresponding block. NOTE: This value is the sum of all available votes, which is not necessarily the sum of all delegated votes. Votes that have not been delegated are still part of total supply, even though they would not participate in a vote. Requirements: - `timepoint` must be in the past. If operating using block numbers, the block must be already mined."
			},
			"getPastVotes(address,uint256)": {
				"details": "Returns the amount of votes that `account` had at a specific moment in the past. If the `clock()` is configured to use block numbers, this will return the value at the end of the corresponding block. Requirements: - `timepoint` must be in the past. If operating using block numbers, the block must be already mined."
			},
			"getVotes(address)": {
				"details": "Returns the current amount of votes that `account` has."
			},
			"initialize(string,string,address)": {
				"params": {
					"name_": "The token's name.",
					"owner": "The token contract's owner.",
					"symbol_": "The token's symbol."
				}
			},
			"mint(address,uint256)": {
				"details": "Can only be called by this contract's owner.",
				"params": {
					"account": "The address to mint the new tokens to.",
					"amount": "The amount of tokens to mint, as a fixed point number with 18 decimals."
				}
			},
			"numCheckpoints(address)": {
				"details": "Get number of checkpoints for `account`."
			},
			"owner()": {
				"details": "Returns the address of the current owner."
			},
			"permit(address,address,uint256,uint256,uint8,bytes32,bytes32)": {
				"details": "Sets `value` as the allowance of `spender` over ``owner``'s tokens, given ``owner``'s signed approval. IMPORTANT: The same issues {IERC20-approve} has related to transaction ordering also apply here. Emits an {Approval} event. Requirements: - `spender` cannot be the zero address. - `deadline` must be a timestamp in the future. - `v`, `r` and `s` must be a valid `secp256k1` signature from `owner` over the EIP712-formatted function arguments. - the signature must use ``owner``'s current nonce (see {nonces}). For more information on the signature format, see the https://eips.ethereum.org/EIPS/eip-2612#specification[relevant EIP section]. CAUTION: See Security Considerations above."
			},
			"renounceOwnership()": {
				"details": "Leaves the contract without owner. It will not be possible to call `onlyOwner` functions. Can only be called by the current owner. NOTE: Renouncing ownership will leave the contract without an owner, thereby disabling any functionality that is only available to the owner."
			},
			"totalSupply()": {
				"returns": {
					"_0": "The total supply of this ERC20, as a fixed point number."
				}
			},
			"transfer(address,uint256)": {
				"details": "See {IERC20-transfer}. Requirements: - `to` cannot be the zero address. - the caller must have a balance of at least `value`."
			},
			"transferFrom(address,address,uint256)": {
				"details": "See {IERC20-transferFrom}. Emits an {Approval} event indicating the updated allowance. This is not required by the EIP. See the note at the beginning of {ERC20}. NOTE: Does not update the allowance if the current allowance is the maximum `uint256`. Requirements: - `from` and `to` cannot be the zero address. - `from` must have a balance of at least `value`. - the caller must have allowance for ``from``'s tokens of at least `value`."
			},
			"transferOwnership(address)": {
				"details": "Transfers ownership of the contract to a new account (`newOwner`). Can only be called by the current owner."
			}
		},
		"version": 1
	},
	"userdoc": {
		"kind": "user",
		"methods": {
			"balanceOf(address)": {
				"notice": "The balance of the given address."
			},
			"burn(address,uint256)": {
				"notice": "Burn some outstanding tokens."
			},
			"decimals()": {
				"notice": "The number of decimals used for this token's fixed point accounting."
			},
			"initialize(string,string,address)": {
				"notice": "Initializes the token."
			},
			"mint(address,uint256)": {
				"notice": "Mints more of this token."
			},
			"name()": {
				"notice": "The token's name."
			},
			"nonces(address)": {
				"notice": "Required override."
			},
			"symbol()": {
				"notice": "The token's symbol."
			},
			"totalSupply()": {
				"notice": "The total supply of this ERC20 i.e. the total number of tokens in existence."
			}
		},
		"version": 1
	},
	"gitCommit": "cfb1d4cd4e79bed840a9c8fcd17a0f397da3e3bf",
	"sourceName": "src/JBERC20.sol",
	"chainId": "11155420",
	"linkReferences": {},
	"deployedLinkReferences": {},
	"history": [
		{
			"_format": "sphinx-sol-ct-artifact-1",
			"merkleRoot": "0xd585c33ce71711649e9771716c78530681c13a65cc62ef35805d17b1536fb647",
			"contractName": "JBERC20",
			"address": "0xF11c4f44Aa6775d580F751C0956a22105E46D66C",
			"abi": [
				{
					"type": "constructor",
					"inputs": [],
					"stateMutability": "nonpayable"
				},
				{
					"type": "function",
					"name": "CLOCK_MODE",
					"inputs": [],
					"outputs": [
						{
							"name": "",
							"type": "string",
							"internalType": "string"
						}
					],
					"stateMutability": "view"
				},
				{
					"type": "function",
					"name": "DOMAIN_SEPARATOR",
					"inputs": [],
					"outputs": [
						{
							"name": "",
							"type": "bytes32",
							"internalType": "bytes32"
						}
					],
					"stateMutability": "view"
				},
				{
					"type": "function",
					"name": "allowance",
					"inputs": [
						{
							"name": "owner",
							"type": "address",
							"internalType": "address"
						},
						{
							"name": "spender",
							"type": "address",
							"internalType": "address"
						}
					],
					"outputs": [
						{
							"name": "",
							"type": "uint256",
							"internalType": "uint256"
						}
					],
					"stateMutability": "view"
				},
				{
					"type": "function",
					"name": "approve",
					"inputs": [
						{
							"name": "spender",
							"type": "address",
							"internalType": "address"
						},
						{
							"name": "value",
							"type": "uint256",
							"internalType": "uint256"
						}
					],
					"outputs": [
						{
							"name": "",
							"type": "bool",
							"internalType": "bool"
						}
					],
					"stateMutability": "nonpayable"
				},
				{
					"type": "function",
					"name": "balanceOf",
					"inputs": [
						{
							"name": "account",
							"type": "address",
							"internalType": "address"
						}
					],
					"outputs": [
						{
							"name": "",
							"type": "uint256",
							"internalType": "uint256"
						}
					],
					"stateMutability": "view"
				},
				{
					"type": "function",
					"name": "burn",
					"inputs": [
						{
							"name": "account",
							"type": "address",
							"internalType": "address"
						},
						{
							"name": "amount",
							"type": "uint256",
							"internalType": "uint256"
						}
					],
					"outputs": [],
					"stateMutability": "nonpayable"
				},
				{
					"type": "function",
					"name": "checkpoints",
					"inputs": [
						{
							"name": "account",
							"type": "address",
							"internalType": "address"
						},
						{
							"name": "pos",
							"type": "uint32",
							"internalType": "uint32"
						}
					],
					"outputs": [
						{
							"name": "",
							"type": "tuple",
							"internalType": "struct Checkpoints.Checkpoint208",
							"components": [
								{
									"name": "_key",
									"type": "uint48",
									"internalType": "uint48"
								},
								{
									"name": "_value",
									"type": "uint208",
									"internalType": "uint208"
								}
							]
						}
					],
					"stateMutability": "view"
				},
				{
					"type": "function",
					"name": "clock",
					"inputs": [],
					"outputs": [
						{
							"name": "",
							"type": "uint48",
							"internalType": "uint48"
						}
					],
					"stateMutability": "view"
				},
				{
					"type": "function",
					"name": "decimals",
					"inputs": [],
					"outputs": [
						{
							"name": "",
							"type": "uint8",
							"internalType": "uint8"
						}
					],
					"stateMutability": "view"
				},
				{
					"type": "function",
					"name": "delegate",
					"inputs": [
						{
							"name": "delegatee",
							"type": "address",
							"internalType": "address"
						}
					],
					"outputs": [],
					"stateMutability": "nonpayable"
				},
				{
					"type": "function",
					"name": "delegateBySig",
					"inputs": [
						{
							"name": "delegatee",
							"type": "address",
							"internalType": "address"
						},
						{
							"name": "nonce",
							"type": "uint256",
							"internalType": "uint256"
						},
						{
							"name": "expiry",
							"type": "uint256",
							"internalType": "uint256"
						},
						{
							"name": "v",
							"type": "uint8",
							"internalType": "uint8"
						},
						{
							"name": "r",
							"type": "bytes32",
							"internalType": "bytes32"
						},
						{
							"name": "s",
							"type": "bytes32",
							"internalType": "bytes32"
						}
					],
					"outputs": [],
					"stateMutability": "nonpayable"
				},
				{
					"type": "function",
					"name": "delegates",
					"inputs": [
						{
							"name": "account",
							"type": "address",
							"internalType": "address"
						}
					],
					"outputs": [
						{
							"name": "",
							"type": "address",
							"internalType": "address"
						}
					],
					"stateMutability": "view"
				},
				{
					"type": "function",
					"name": "eip712Domain",
					"inputs": [],
					"outputs": [
						{
							"name": "fields",
							"type": "bytes1",
							"internalType": "bytes1"
						},
						{
							"name": "name",
							"type": "string",
							"internalType": "string"
						},
						{
							"name": "version",
							"type": "string",
							"internalType": "string"
						},
						{
							"name": "chainId",
							"type": "uint256",
							"internalType": "uint256"
						},
						{
							"name": "verifyingContract",
							"type": "address",
							"internalType": "address"
						},
						{
							"name": "salt",
							"type": "bytes32",
							"internalType": "bytes32"
						},
						{
							"name": "extensions",
							"type": "uint256[]",
							"internalType": "uint256[]"
						}
					],
					"stateMutability": "view"
				},
				{
					"type": "function",
					"name": "getPastTotalSupply",
					"inputs": [
						{
							"name": "timepoint",
							"type": "uint256",
							"internalType": "uint256"
						}
					],
					"outputs": [
						{
							"name": "",
							"type": "uint256",
							"internalType": "uint256"
						}
					],
					"stateMutability": "view"
				},
				{
					"type": "function",
					"name": "getPastVotes",
					"inputs": [
						{
							"name": "account",
							"type": "address",
							"internalType": "address"
						},
						{
							"name": "timepoint",
							"type": "uint256",
							"internalType": "uint256"
						}
					],
					"outputs": [
						{
							"name": "",
							"type": "uint256",
							"internalType": "uint256"
						}
					],
					"stateMutability": "view"
				},
				{
					"type": "function",
					"name": "getVotes",
					"inputs": [
						{
							"name": "account",
							"type": "address",
							"internalType": "address"
						}
					],
					"outputs": [
						{
							"name": "",
							"type": "uint256",
							"internalType": "uint256"
						}
					],
					"stateMutability": "view"
				},
				{
					"type": "function",
					"name": "initialize",
					"inputs": [
						{
							"name": "name_",
							"type": "string",
							"internalType": "string"
						},
						{
							"name": "symbol_",
							"type": "string",
							"internalType": "string"
						},
						{
							"name": "owner",
							"type": "address",
							"internalType": "address"
						}
					],
					"outputs": [],
					"stateMutability": "nonpayable"
				},
				{
					"type": "function",
					"name": "mint",
					"inputs": [
						{
							"name": "account",
							"type": "address",
							"internalType": "address"
						},
						{
							"name": "amount",
							"type": "uint256",
							"internalType": "uint256"
						}
					],
					"outputs": [],
					"stateMutability": "nonpayable"
				},
				{
					"type": "function",
					"name": "name",
					"inputs": [],
					"outputs": [
						{
							"name": "",
							"type": "string",
							"internalType": "string"
						}
					],
					"stateMutability": "view"
				},
				{
					"type": "function",
					"name": "nonces",
					"inputs": [
						{
							"name": "owner",
							"type": "address",
							"internalType": "address"
						}
					],
					"outputs": [
						{
							"name": "",
							"type": "uint256",
							"internalType": "uint256"
						}
					],
					"stateMutability": "view"
				},
				{
					"type": "function",
					"name": "numCheckpoints",
					"inputs": [
						{
							"name": "account",
							"type": "address",
							"internalType": "address"
						}
					],
					"outputs": [
						{
							"name": "",
							"type": "uint32",
							"internalType": "uint32"
						}
					],
					"stateMutability": "view"
				},
				{
					"type": "function",
					"name": "owner",
					"inputs": [],
					"outputs": [
						{
							"name": "",
							"type": "address",
							"internalType": "address"
						}
					],
					"stateMutability": "view"
				},
				{
					"type": "function",
					"name": "permit",
					"inputs": [
						{
							"name": "owner",
							"type": "address",
							"internalType": "address"
						},
						{
							"name": "spender",
							"type": "address",
							"internalType": "address"
						},
						{
							"name": "value",
							"type": "uint256",
							"internalType": "uint256"
						},
						{
							"name": "deadline",
							"type": "uint256",
							"internalType": "uint256"
						},
						{
							"name": "v",
							"type": "uint8",
							"internalType": "uint8"
						},
						{
							"name": "r",
							"type": "bytes32",
							"internalType": "bytes32"
						},
						{
							"name": "s",
							"type": "bytes32",
							"internalType": "bytes32"
						}
					],
					"outputs": [],
					"stateMutability": "nonpayable"
				},
				{
					"type": "function",
					"name": "renounceOwnership",
					"inputs": [],
					"outputs": [],
					"stateMutability": "nonpayable"
				},
				{
					"type": "function",
					"name": "symbol",
					"inputs": [],
					"outputs": [
						{
							"name": "",
							"type": "string",
							"internalType": "string"
						}
					],
					"stateMutability": "view"
				},
				{
					"type": "function",
					"name": "totalSupply",
					"inputs": [],
					"outputs": [
						{
							"name": "",
							"type": "uint256",
							"internalType": "uint256"
						}
					],
					"stateMutability": "view"
				},
				{
					"type": "function",
					"name": "transfer",
					"inputs": [
						{
							"name": "to",
							"type": "address",
							"internalType": "address"
						},
						{
							"name": "value",
							"type": "uint256",
							"internalType": "uint256"
						}
					],
					"outputs": [
						{
							"name": "",
							"type": "bool",
							"internalType": "bool"
						}
					],
					"stateMutability": "nonpayable"
				},
				{
					"type": "function",
					"name": "transferFrom",
					"inputs": [
						{
							"name": "from",
							"type": "address",
							"internalType": "address"
						},
						{
							"name": "to",
							"type": "address",
							"internalType": "address"
						},
						{
							"name": "value",
							"type": "uint256",
							"internalType": "uint256"
						}
					],
					"outputs": [
						{
							"name": "",
							"type": "bool",
							"internalType": "bool"
						}
					],
					"stateMutability": "nonpayable"
				},
				{
					"type": "function",
					"name": "transferOwnership",
					"inputs": [
						{
							"name": "newOwner",
							"type": "address",
							"internalType": "address"
						}
					],
					"outputs": [],
					"stateMutability": "nonpayable"
				},
				{
					"type": "event",
					"name": "Approval",
					"inputs": [
						{
							"name": "owner",
							"type": "address",
							"indexed": true,
							"internalType": "address"
						},
						{
							"name": "spender",
							"type": "address",
							"indexed": true,
							"internalType": "address"
						},
						{
							"name": "value",
							"type": "uint256",
							"indexed": false,
							"internalType": "uint256"
						}
					],
					"anonymous": false
				},
				{
					"type": "event",
					"name": "DelegateChanged",
					"inputs": [
						{
							"name": "delegator",
							"type": "address",
							"indexed": true,
							"internalType": "address"
						},
						{
							"name": "fromDelegate",
							"type": "address",
							"indexed": true,
							"internalType": "address"
						},
						{
							"name": "toDelegate",
							"type": "address",
							"indexed": true,
							"internalType": "address"
						}
					],
					"anonymous": false
				},
				{
					"type": "event",
					"name": "DelegateVotesChanged",
					"inputs": [
						{
							"name": "delegate",
							"type": "address",
							"indexed": true,
							"internalType": "address"
						},
						{
							"name": "previousVotes",
							"type": "uint256",
							"indexed": false,
							"internalType": "uint256"
						},
						{
							"name": "newVotes",
							"type": "uint256",
							"indexed": false,
							"internalType": "uint256"
						}
					],
					"anonymous": false
				},
				{
					"type": "event",
					"name": "EIP712DomainChanged",
					"inputs": [],
					"anonymous": false
				},
				{
					"type": "event",
					"name": "OwnershipTransferred",
					"inputs": [
						{
							"name": "previousOwner",
							"type": "address",
							"indexed": true,
							"internalType": "address"
						},
						{
							"name": "newOwner",
							"type": "address",
							"indexed": true,
							"internalType": "address"
						}
					],
					"anonymous": false
				},
				{
					"type": "event",
					"name": "Transfer",
					"inputs": [
						{
							"name": "from",
							"type": "address",
							"indexed": true,
							"internalType": "address"
						},
						{
							"name": "to",
							"type": "address",
							"indexed": true,
							"internalType": "address"
						},
						{
							"name": "value",
							"type": "uint256",
							"indexed": false,
							"internalType": "uint256"
						}
					],
					"anonymous": false
				},
				{
					"type": "error",
					"name": "CheckpointUnorderedInsertion",
					"inputs": []
				},
				{
					"type": "error",
					"name": "ECDSAInvalidSignature",
					"inputs": []
				},
				{
					"type": "error",
					"name": "ECDSAInvalidSignatureLength",
					"inputs": [
						{
							"name": "length",
							"type": "uint256",
							"internalType": "uint256"
						}
					]
				},
				{
					"type": "error",
					"name": "ECDSAInvalidSignatureS",
					"inputs": [
						{
							"name": "s",
							"type": "bytes32",
							"internalType": "bytes32"
						}
					]
				},
				{
					"type": "error",
					"name": "ERC20ExceededSafeSupply",
					"inputs": [
						{
							"name": "increasedSupply",
							"type": "uint256",
							"internalType": "uint256"
						},
						{
							"name": "cap",
							"type": "uint256",
							"internalType": "uint256"
						}
					]
				},
				{
					"type": "error",
					"name": "ERC20InsufficientAllowance",
					"inputs": [
						{
							"name": "spender",
							"type": "address",
							"internalType": "address"
						},
						{
							"name": "allowance",
							"type": "uint256",
							"internalType": "uint256"
						},
						{
							"name": "needed",
							"type": "uint256",
							"internalType": "uint256"
						}
					]
				},
				{
					"type": "error",
					"name": "ERC20InsufficientBalance",
					"inputs": [
						{
							"name": "sender",
							"type": "address",
							"internalType": "address"
						},
						{
							"name": "balance",
							"type": "uint256",
							"internalType": "uint256"
						},
						{
							"name": "needed",
							"type": "uint256",
							"internalType": "uint256"
						}
					]
				},
				{
					"type": "error",
					"name": "ERC20InvalidApprover",
					"inputs": [
						{
							"name": "approver",
							"type": "address",
							"internalType": "address"
						}
					]
				},
				{
					"type": "error",
					"name": "ERC20InvalidReceiver",
					"inputs": [
						{
							"name": "receiver",
							"type": "address",
							"internalType": "address"
						}
					]
				},
				{
					"type": "error",
					"name": "ERC20InvalidSender",
					"inputs": [
						{
							"name": "sender",
							"type": "address",
							"internalType": "address"
						}
					]
				},
				{
					"type": "error",
					"name": "ERC20InvalidSpender",
					"inputs": [
						{
							"name": "spender",
							"type": "address",
							"internalType": "address"
						}
					]
				},
				{
					"type": "error",
					"name": "ERC2612ExpiredSignature",
					"inputs": [
						{
							"name": "deadline",
							"type": "uint256",
							"internalType": "uint256"
						}
					]
				},
				{
					"type": "error",
					"name": "ERC2612InvalidSigner",
					"inputs": [
						{
							"name": "signer",
							"type": "address",
							"internalType": "address"
						},
						{
							"name": "owner",
							"type": "address",
							"internalType": "address"
						}
					]
				},
				{
					"type": "error",
					"name": "ERC5805FutureLookup",
					"inputs": [
						{
							"name": "timepoint",
							"type": "uint256",
							"internalType": "uint256"
						},
						{
							"name": "clock",
							"type": "uint48",
							"internalType": "uint48"
						}
					]
				},
				{
					"type": "error",
					"name": "ERC6372InconsistentClock",
					"inputs": []
				},
				{
					"type": "error",
					"name": "InvalidAccountNonce",
					"inputs": [
						{
							"name": "account",
							"type": "address",
							"internalType": "address"
						},
						{
							"name": "currentNonce",
							"type": "uint256",
							"internalType": "uint256"
						}
					]
				},
				{
					"type": "error",
					"name": "InvalidShortString",
					"inputs": []
				},
				{
					"type": "error",
					"name": "OwnableInvalidOwner",
					"inputs": [
						{
							"name": "owner",
							"type": "address",
							"internalType": "address"
						}
					]
				},
				{
					"type": "error",
					"name": "OwnableUnauthorizedAccount",
					"inputs": [
						{
							"name": "account",
							"type": "address",
							"internalType": "address"
						}
					]
				},
				{
					"type": "error",
					"name": "SafeCastOverflowedUintDowncast",
					"inputs": [
						{
							"name": "bits",
							"type": "uint8",
							"internalType": "uint8"
						},
						{
							"name": "value",
							"type": "uint256",
							"internalType": "uint256"
						}
					]
				},
				{
					"type": "error",
					"name": "StringTooLong",
					"inputs": [
						{
							"name": "str",
							"type": "string",
							"internalType": "string"
						}
					]
				},
				{
					"type": "error",
					"name": "VotesExpiredSignature",
					"inputs": [
						{
							"name": "expiry",
							"type": "uint256",
							"internalType": "uint256"
						}
					]
				}
			],
			"solcInputHash": "9c8ada04ecb46a70149f6960114cde6f",
			"receipt": {
				"blockHash": "0xe6a39974b63e51c1533cd8d69222d4474afbd41b339c0c67bc9d5e641d86ac53",
				"blockNumber": 10154836,
				"contractAddress": null,
				"cumulativeGasUsed": "11339298",
				"from": "0xC034550B542b83BA1De312b21d1C94a9a52B1595",
				"gasPrice": "1000252",
				"gasUsed": "11051758",
				"hash": "0x5f0982f567aaba82a820c4bb25e00f5d1be922e586e294c701f0fe1d02206747",
				"index": 3,
				"logs": [
					{
						"address": "0xB5E96127D417b1B3ef8438496a38A143167209c7",
						"blockHash": "0xe6a39974b63e51c1533cd8d69222d4474afbd41b339c0c67bc9d5e641d86ac53",
						"blockNumber": 10154836,
						"data": "0x0000000000000000000000000000000000000000000000000000000000000000",
						"index": 5,
						"topics": [
							"0x572f161235911da04685a68c06adf558fc7e4a36909dca394650e0adc19cc93d",
							"0x000000000000000000000000c034550b542b83ba1de312b21d1c94a9a52b1595",
							"0x000000000000000000000000ef1be3c049809cace5bc203bbe4ec1ab284bf75c",
							"0x626f353b4d947fb822949fb6a65416008b698a95232c47ef282aa530c4437770"
						],
						"transactionHash": "0x5f0982f567aaba82a820c4bb25e00f5d1be922e586e294c701f0fe1d02206747",
						"transactionIndex": 3
					},
					{
						"address": "0x1081B5AA9D9d4862A3dA4d469433FB36Ed80FA2A",
						"blockHash": "0xe6a39974b63e51c1533cd8d69222d4474afbd41b339c0c67bc9d5e641d86ac53",
						"blockNumber": 10154836,
						"data": "0x000000000000000000000000953ab7f10efe861b21cfb9630768818a04742587",
						"index": 6,
						"topics": [
							"0x4db17dd5e4732fb6da34a148104a592783ca119a1e7bb8829eba6cbadef0b511"
						],
						"transactionHash": "0x5f0982f567aaba82a820c4bb25e00f5d1be922e586e294c701f0fe1d02206747",
						"transactionIndex": 3
					},
					{
						"address": "0x1081B5AA9D9d4862A3dA4d469433FB36Ed80FA2A",
						"blockHash": "0xe6a39974b63e51c1533cd8d69222d4474afbd41b339c0c67bc9d5e641d86ac53",
						"blockNumber": 10154836,
						"data": "0x",
						"index": 7,
						"topics": [
							"0x6895c13664aa4f67288b25d7a21d7aaa34916e355fb9b6fae0a139a9085becb8",
							"0x000000000000000000000000ef1be3c049809cace5bc203bbe4ec1ab284bf75c"
						],
						"transactionHash": "0x5f0982f567aaba82a820c4bb25e00f5d1be922e586e294c701f0fe1d02206747",
						"transactionIndex": 3
					},
					{
						"address": "0xEf1Be3C049809caCe5Bc203BBe4Ec1Ab284bF75c",
						"blockHash": "0xe6a39974b63e51c1533cd8d69222d4474afbd41b339c0c67bc9d5e641d86ac53",
						"blockNumber": 10154836,
						"data": "0x0000000000000000000000000000000000000000000000000000000000000001",
						"index": 8,
						"topics": [
							"0xa65fb05c5808f5f389d72edeaf719ce38f4cc55c1f69ca3cbfb31c21501caa07",
							"0xd585c33ce71711649e9771716c78530681c13a65cc62ef35805d17b1536fb647"
						],
						"transactionHash": "0x5f0982f567aaba82a820c4bb25e00f5d1be922e586e294c701f0fe1d02206747",
						"transactionIndex": 3
					},
					{
						"address": "0xE9a6F248F9f8854E9f161c84c34F2589Ec362BE9",
						"blockHash": "0xe6a39974b63e51c1533cd8d69222d4474afbd41b339c0c67bc9d5e641d86ac53",
						"blockNumber": 10154836,
						"data": "0x",
						"index": 9,
						"topics": [
							"0x8be0079c531659141344cd1fd0a4f28419497f9722a3daafe3b4186f6b6457e0",
							"0x0000000000000000000000000000000000000000000000000000000000000000",
							"0x0000000000000000000000001081b5aa9d9d4862a3da4d469433fb36ed80fa2a"
						],
						"transactionHash": "0x5f0982f567aaba82a820c4bb25e00f5d1be922e586e294c701f0fe1d02206747",
						"transactionIndex": 3
					},
					{
						"address": "0xE9a6F248F9f8854E9f161c84c34F2589Ec362BE9",
						"blockHash": "0xe6a39974b63e51c1533cd8d69222d4474afbd41b339c0c67bc9d5e641d86ac53",
						"blockNumber": 10154836,
						"data": "0x",
						"index": 10,
						"topics": [
							"0xddf252ad1be2c89b69c2b068fc378daa952ba7f163c4a11628f55a4df523b3ef",
							"0x0000000000000000000000000000000000000000000000000000000000000000",
							"0x0000000000000000000000001081b5aa9d9d4862a3da4d469433fb36ed80fa2a",
							"0x0000000000000000000000000000000000000000000000000000000000000001"
						],
						"transactionHash": "0x5f0982f567aaba82a820c4bb25e00f5d1be922e586e294c701f0fe1d02206747",
						"transactionIndex": 3
					},
					{
						"address": "0xE9a6F248F9f8854E9f161c84c34F2589Ec362BE9",
						"blockHash": "0xe6a39974b63e51c1533cd8d69222d4474afbd41b339c0c67bc9d5e641d86ac53",
						"blockNumber": 10154836,
						"data": "0x0000000000000000000000001081b5aa9d9d4862a3da4d469433fb36ed80fa2a",
						"index": 11,
						"topics": [
							"0x365b3162cd780731fc55a794b59494d472bc2af701007f581843a70673814698",
							"0x0000000000000000000000000000000000000000000000000000000000000001",
							"0x0000000000000000000000001081b5aa9d9d4862a3da4d469433fb36ed80fa2a"
						],
						"transactionHash": "0x5f0982f567aaba82a820c4bb25e00f5d1be922e586e294c701f0fe1d02206747",
						"transactionIndex": 3
					},
					{
						"address": "0x1081B5AA9D9d4862A3dA4d469433FB36Ed80FA2A",
						"blockHash": "0xe6a39974b63e51c1533cd8d69222d4474afbd41b339c0c67bc9d5e641d86ac53",
						"blockNumber": 10154836,
						"data": "0x000000000000000000000000e9a6f248f9f8854e9f161c84c34f2589ec362be9",
						"index": 12,
						"topics": [
							"0x4db17dd5e4732fb6da34a148104a592783ca119a1e7bb8829eba6cbadef0b511"
						],
						"transactionHash": "0x5f0982f567aaba82a820c4bb25e00f5d1be922e586e294c701f0fe1d02206747",
						"transactionIndex": 3
					},
					{
						"address": "0x1081B5AA9D9d4862A3dA4d469433FB36Ed80FA2A",
						"blockHash": "0xe6a39974b63e51c1533cd8d69222d4474afbd41b339c0c67bc9d5e641d86ac53",
						"blockNumber": 10154836,
						"data": "0x",
						"index": 13,
						"topics": [
							"0x6895c13664aa4f67288b25d7a21d7aaa34916e355fb9b6fae0a139a9085becb8",
							"0x000000000000000000000000ef1be3c049809cace5bc203bbe4ec1ab284bf75c"
						],
						"transactionHash": "0x5f0982f567aaba82a820c4bb25e00f5d1be922e586e294c701f0fe1d02206747",
						"transactionIndex": 3
					},
					{
						"address": "0xEf1Be3C049809caCe5Bc203BBe4Ec1Ab284bF75c",
						"blockHash": "0xe6a39974b63e51c1533cd8d69222d4474afbd41b339c0c67bc9d5e641d86ac53",
						"blockNumber": 10154836,
						"data": "0x0000000000000000000000000000000000000000000000000000000000000002",
						"index": 14,
						"topics": [
							"0xa65fb05c5808f5f389d72edeaf719ce38f4cc55c1f69ca3cbfb31c21501caa07",
							"0xd585c33ce71711649e9771716c78530681c13a65cc62ef35805d17b1536fb647"
						],
						"transactionHash": "0x5f0982f567aaba82a820c4bb25e00f5d1be922e586e294c701f0fe1d02206747",
						"transactionIndex": 3
					},
					{
						"address": "0x71Ff91C8A27b436f7025C053c01A3F6AAE3Fc62E",
						"blockHash": "0xe6a39974b63e51c1533cd8d69222d4474afbd41b339c0c67bc9d5e641d86ac53",
						"blockNumber": 10154836,
						"data": "0x",
						"index": 15,
						"topics": [
							"0x8be0079c531659141344cd1fd0a4f28419497f9722a3daafe3b4186f6b6457e0",
							"0x0000000000000000000000000000000000000000000000000000000000000000",
							"0x0000000000000000000000001081b5aa9d9d4862a3da4d469433fb36ed80fa2a"
						],
						"transactionHash": "0x5f0982f567aaba82a820c4bb25e00f5d1be922e586e294c701f0fe1d02206747",
						"transactionIndex": 3
					},
					{
						"address": "0x1081B5AA9D9d4862A3dA4d469433FB36Ed80FA2A",
						"blockHash": "0xe6a39974b63e51c1533cd8d69222d4474afbd41b339c0c67bc9d5e641d86ac53",
						"blockNumber": 10154836,
						"data": "0x00000000000000000000000071ff91c8a27b436f7025c053c01a3f6aae3fc62e",
						"index": 16,
						"topics": [
							"0x4db17dd5e4732fb6da34a148104a592783ca119a1e7bb8829eba6cbadef0b511"
						],
						"transactionHash": "0x5f0982f567aaba82a820c4bb25e00f5d1be922e586e294c701f0fe1d02206747",
						"transactionIndex": 3
					},
					{
						"address": "0x1081B5AA9D9d4862A3dA4d469433FB36Ed80FA2A",
						"blockHash": "0xe6a39974b63e51c1533cd8d69222d4474afbd41b339c0c67bc9d5e641d86ac53",
						"blockNumber": 10154836,
						"data": "0x",
						"index": 17,
						"topics": [
							"0x6895c13664aa4f67288b25d7a21d7aaa34916e355fb9b6fae0a139a9085becb8",
							"0x000000000000000000000000ef1be3c049809cace5bc203bbe4ec1ab284bf75c"
						],
						"transactionHash": "0x5f0982f567aaba82a820c4bb25e00f5d1be922e586e294c701f0fe1d02206747",
						"transactionIndex": 3
					},
					{
						"address": "0xEf1Be3C049809caCe5Bc203BBe4Ec1Ab284bF75c",
						"blockHash": "0xe6a39974b63e51c1533cd8d69222d4474afbd41b339c0c67bc9d5e641d86ac53",
						"blockNumber": 10154836,
						"data": "0x0000000000000000000000000000000000000000000000000000000000000003",
						"index": 18,
						"topics": [
							"0xa65fb05c5808f5f389d72edeaf719ce38f4cc55c1f69ca3cbfb31c21501caa07",
							"0xd585c33ce71711649e9771716c78530681c13a65cc62ef35805d17b1536fb647"
						],
						"transactionHash": "0x5f0982f567aaba82a820c4bb25e00f5d1be922e586e294c701f0fe1d02206747",
						"transactionIndex": 3
					},
					{
						"address": "0x1081B5AA9D9d4862A3dA4d469433FB36Ed80FA2A",
						"blockHash": "0xe6a39974b63e51c1533cd8d69222d4474afbd41b339c0c67bc9d5e641d86ac53",
						"blockNumber": 10154836,
						"data": "0x000000000000000000000000c91586b6fe425d75c6b0f53daf9831811725bd2c",
						"index": 19,
						"topics": [
							"0x4db17dd5e4732fb6da34a148104a592783ca119a1e7bb8829eba6cbadef0b511"
						],
						"transactionHash": "0x5f0982f567aaba82a820c4bb25e00f5d1be922e586e294c701f0fe1d02206747",
						"transactionIndex": 3
					},
					{
						"address": "0x1081B5AA9D9d4862A3dA4d469433FB36Ed80FA2A",
						"blockHash": "0xe6a39974b63e51c1533cd8d69222d4474afbd41b339c0c67bc9d5e641d86ac53",
						"blockNumber": 10154836,
						"data": "0x",
						"index": 20,
						"topics": [
							"0x6895c13664aa4f67288b25d7a21d7aaa34916e355fb9b6fae0a139a9085becb8",
							"0x000000000000000000000000ef1be3c049809cace5bc203bbe4ec1ab284bf75c"
						],
						"transactionHash": "0x5f0982f567aaba82a820c4bb25e00f5d1be922e586e294c701f0fe1d02206747",
						"transactionIndex": 3
					},
					{
						"address": "0xEf1Be3C049809caCe5Bc203BBe4Ec1Ab284bF75c",
						"blockHash": "0xe6a39974b63e51c1533cd8d69222d4474afbd41b339c0c67bc9d5e641d86ac53",
						"blockNumber": 10154836,
						"data": "0x0000000000000000000000000000000000000000000000000000000000000004",
						"index": 21,
						"topics": [
							"0xa65fb05c5808f5f389d72edeaf719ce38f4cc55c1f69ca3cbfb31c21501caa07",
							"0xd585c33ce71711649e9771716c78530681c13a65cc62ef35805d17b1536fb647"
						],
						"transactionHash": "0x5f0982f567aaba82a820c4bb25e00f5d1be922e586e294c701f0fe1d02206747",
						"transactionIndex": 3
					},
					{
						"address": "0x1081B5AA9D9d4862A3dA4d469433FB36Ed80FA2A",
						"blockHash": "0xe6a39974b63e51c1533cd8d69222d4474afbd41b339c0c67bc9d5e641d86ac53",
						"blockNumber": 10154836,
						"data": "0x00000000000000000000000076c87701d0ad2c5c3b40c36617ceba566436a69f",
						"index": 22,
						"topics": [
							"0x4db17dd5e4732fb6da34a148104a592783ca119a1e7bb8829eba6cbadef0b511"
						],
						"transactionHash": "0x5f0982f567aaba82a820c4bb25e00f5d1be922e586e294c701f0fe1d02206747",
						"transactionIndex": 3
					},
					{
						"address": "0x1081B5AA9D9d4862A3dA4d469433FB36Ed80FA2A",
						"blockHash": "0xe6a39974b63e51c1533cd8d69222d4474afbd41b339c0c67bc9d5e641d86ac53",
						"blockNumber": 10154836,
						"data": "0x",
						"index": 23,
						"topics": [
							"0x6895c13664aa4f67288b25d7a21d7aaa34916e355fb9b6fae0a139a9085becb8",
							"0x000000000000000000000000ef1be3c049809cace5bc203bbe4ec1ab284bf75c"
						],
						"transactionHash": "0x5f0982f567aaba82a820c4bb25e00f5d1be922e586e294c701f0fe1d02206747",
						"transactionIndex": 3
					},
					{
						"address": "0xEf1Be3C049809caCe5Bc203BBe4Ec1Ab284bF75c",
						"blockHash": "0xe6a39974b63e51c1533cd8d69222d4474afbd41b339c0c67bc9d5e641d86ac53",
						"blockNumber": 10154836,
						"data": "0x0000000000000000000000000000000000000000000000000000000000000005",
						"index": 24,
						"topics": [
							"0xa65fb05c5808f5f389d72edeaf719ce38f4cc55c1f69ca3cbfb31c21501caa07",
							"0xd585c33ce71711649e9771716c78530681c13a65cc62ef35805d17b1536fb647"
						],
						"transactionHash": "0x5f0982f567aaba82a820c4bb25e00f5d1be922e586e294c701f0fe1d02206747",
						"transactionIndex": 3
					},
					{
						"address": "0xF11c4f44Aa6775d580F751C0956a22105E46D66C",
						"blockHash": "0xe6a39974b63e51c1533cd8d69222d4474afbd41b339c0c67bc9d5e641d86ac53",
						"blockNumber": 10154836,
						"data": "0x",
						"index": 25,
						"topics": [
							"0x8be0079c531659141344cd1fd0a4f28419497f9722a3daafe3b4186f6b6457e0",
							"0x0000000000000000000000000000000000000000000000000000000000000000",
							"0x000000000000000000000000f11c4f44aa6775d580f751c0956a22105e46d66c"
						],
						"transactionHash": "0x5f0982f567aaba82a820c4bb25e00f5d1be922e586e294c701f0fe1d02206747",
						"transactionIndex": 3
					},
					{
						"address": "0x1081B5AA9D9d4862A3dA4d469433FB36Ed80FA2A",
						"blockHash": "0xe6a39974b63e51c1533cd8d69222d4474afbd41b339c0c67bc9d5e641d86ac53",
						"blockNumber": 10154836,
						"data": "0x000000000000000000000000f11c4f44aa6775d580f751c0956a22105e46d66c",
						"index": 26,
						"topics": [
							"0x4db17dd5e4732fb6da34a148104a592783ca119a1e7bb8829eba6cbadef0b511"
						],
						"transactionHash": "0x5f0982f567aaba82a820c4bb25e00f5d1be922e586e294c701f0fe1d02206747",
						"transactionIndex": 3
					},
					{
						"address": "0x1081B5AA9D9d4862A3dA4d469433FB36Ed80FA2A",
						"blockHash": "0xe6a39974b63e51c1533cd8d69222d4474afbd41b339c0c67bc9d5e641d86ac53",
						"blockNumber": 10154836,
						"data": "0x",
						"index": 27,
						"topics": [
							"0x6895c13664aa4f67288b25d7a21d7aaa34916e355fb9b6fae0a139a9085becb8",
							"0x000000000000000000000000ef1be3c049809cace5bc203bbe4ec1ab284bf75c"
						],
						"transactionHash": "0x5f0982f567aaba82a820c4bb25e00f5d1be922e586e294c701f0fe1d02206747",
						"transactionIndex": 3
					},
					{
						"address": "0xEf1Be3C049809caCe5Bc203BBe4Ec1Ab284bF75c",
						"blockHash": "0xe6a39974b63e51c1533cd8d69222d4474afbd41b339c0c67bc9d5e641d86ac53",
						"blockNumber": 10154836,
						"data": "0x0000000000000000000000000000000000000000000000000000000000000006",
						"index": 28,
						"topics": [
							"0xa65fb05c5808f5f389d72edeaf719ce38f4cc55c1f69ca3cbfb31c21501caa07",
							"0xd585c33ce71711649e9771716c78530681c13a65cc62ef35805d17b1536fb647"
						],
						"transactionHash": "0x5f0982f567aaba82a820c4bb25e00f5d1be922e586e294c701f0fe1d02206747",
						"transactionIndex": 3
					},
					{
						"address": "0x1081B5AA9D9d4862A3dA4d469433FB36Ed80FA2A",
						"blockHash": "0xe6a39974b63e51c1533cd8d69222d4474afbd41b339c0c67bc9d5e641d86ac53",
						"blockNumber": 10154836,
						"data": "0x000000000000000000000000f25dce432b7ed1ccd5f0a2481f980862e359a092",
						"index": 29,
						"topics": [
							"0x4db17dd5e4732fb6da34a148104a592783ca119a1e7bb8829eba6cbadef0b511"
						],
						"transactionHash": "0x5f0982f567aaba82a820c4bb25e00f5d1be922e586e294c701f0fe1d02206747",
						"transactionIndex": 3
					},
					{
						"address": "0x1081B5AA9D9d4862A3dA4d469433FB36Ed80FA2A",
						"blockHash": "0xe6a39974b63e51c1533cd8d69222d4474afbd41b339c0c67bc9d5e641d86ac53",
						"blockNumber": 10154836,
						"data": "0x",
						"index": 30,
						"topics": [
							"0x6895c13664aa4f67288b25d7a21d7aaa34916e355fb9b6fae0a139a9085becb8",
							"0x000000000000000000000000ef1be3c049809cace5bc203bbe4ec1ab284bf75c"
						],
						"transactionHash": "0x5f0982f567aaba82a820c4bb25e00f5d1be922e586e294c701f0fe1d02206747",
						"transactionIndex": 3
					},
					{
						"address": "0xEf1Be3C049809caCe5Bc203BBe4Ec1Ab284bF75c",
						"blockHash": "0xe6a39974b63e51c1533cd8d69222d4474afbd41b339c0c67bc9d5e641d86ac53",
						"blockNumber": 10154836,
						"data": "0x0000000000000000000000000000000000000000000000000000000000000007",
						"index": 31,
						"topics": [
							"0xa65fb05c5808f5f389d72edeaf719ce38f4cc55c1f69ca3cbfb31c21501caa07",
							"0xd585c33ce71711649e9771716c78530681c13a65cc62ef35805d17b1536fb647"
						],
						"transactionHash": "0x5f0982f567aaba82a820c4bb25e00f5d1be922e586e294c701f0fe1d02206747",
						"transactionIndex": 3
					},
					{
						"address": "0x1081B5AA9D9d4862A3dA4d469433FB36Ed80FA2A",
						"blockHash": "0xe6a39974b63e51c1533cd8d69222d4474afbd41b339c0c67bc9d5e641d86ac53",
						"blockNumber": 10154836,
						"data": "0x0000000000000000000000002ef536bf2b361b69bf21eb02ce8b11911869fa6c",
						"index": 32,
						"topics": [
							"0x4db17dd5e4732fb6da34a148104a592783ca119a1e7bb8829eba6cbadef0b511"
						],
						"transactionHash": "0x5f0982f567aaba82a820c4bb25e00f5d1be922e586e294c701f0fe1d02206747",
						"transactionIndex": 3
					},
					{
						"address": "0x1081B5AA9D9d4862A3dA4d469433FB36Ed80FA2A",
						"blockHash": "0xe6a39974b63e51c1533cd8d69222d4474afbd41b339c0c67bc9d5e641d86ac53",
						"blockNumber": 10154836,
						"data": "0x",
						"index": 33,
						"topics": [
							"0x6895c13664aa4f67288b25d7a21d7aaa34916e355fb9b6fae0a139a9085becb8",
							"0x000000000000000000000000ef1be3c049809cace5bc203bbe4ec1ab284bf75c"
						],
						"transactionHash": "0x5f0982f567aaba82a820c4bb25e00f5d1be922e586e294c701f0fe1d02206747",
						"transactionIndex": 3
					},
					{
						"address": "0xEf1Be3C049809caCe5Bc203BBe4Ec1Ab284bF75c",
						"blockHash": "0xe6a39974b63e51c1533cd8d69222d4474afbd41b339c0c67bc9d5e641d86ac53",
						"blockNumber": 10154836,
						"data": "0x0000000000000000000000000000000000000000000000000000000000000008",
						"index": 34,
						"topics": [
							"0xa65fb05c5808f5f389d72edeaf719ce38f4cc55c1f69ca3cbfb31c21501caa07",
							"0xd585c33ce71711649e9771716c78530681c13a65cc62ef35805d17b1536fb647"
						],
						"transactionHash": "0x5f0982f567aaba82a820c4bb25e00f5d1be922e586e294c701f0fe1d02206747",
						"transactionIndex": 3
					}
				],
				"logsBloom": "0x00800000080010000008000000080200000000040008000000800000004000000060008000000001000000000040020000000000000000000000000000040000000000100000200420000008020000000001000000040000000200000000000000000000020000000000000000000800000000100020000010020010000200400001000800000000000100000000000000000000000000000000804000000000004000000010000000000000000002020a00000000000000000000000006000000000002000000200000000008000000010100008000000020000000000060000000000000000004000000000040080200000000804000000000000000000000",
				"status": 1,
				"to": "0xB5E96127D417b1B3ef8438496a38A143167209c7"
			},
			"metadata": "{\"compiler\":{\"version\":\"0.8.23+commit.f704f362\"},\"language\":\"Solidity\",\"output\":{\"abi\":[{\"inputs\":[],\"stateMutability\":\"nonpayable\",\"type\":\"constructor\"},{\"inputs\":[],\"type\":\"error\",\"name\":\"CheckpointUnorderedInsertion\"},{\"inputs\":[],\"type\":\"error\",\"name\":\"ECDSAInvalidSignature\"},{\"inputs\":[{\"internalType\":\"uint256\",\"name\":\"length\",\"type\":\"uint256\"}],\"type\":\"error\",\"name\":\"ECDSAInvalidSignatureLength\"},{\"inputs\":[{\"internalType\":\"bytes32\",\"name\":\"s\",\"type\":\"bytes32\"}],\"type\":\"error\",\"name\":\"ECDSAInvalidSignatureS\"},{\"inputs\":[{\"internalType\":\"uint256\",\"name\":\"increasedSupply\",\"type\":\"uint256\"},{\"internalType\":\"uint256\",\"name\":\"cap\",\"type\":\"uint256\"}],\"type\":\"error\",\"name\":\"ERC20ExceededSafeSupply\"},{\"inputs\":[{\"internalType\":\"address\",\"name\":\"spender\",\"type\":\"address\"},{\"internalType\":\"uint256\",\"name\":\"allowance\",\"type\":\"uint256\"},{\"internalType\":\"uint256\",\"name\":\"needed\",\"type\":\"uint256\"}],\"type\":\"error\",\"name\":\"ERC20InsufficientAllowance\"},{\"inputs\":[{\"internalType\":\"address\",\"name\":\"sender\",\"type\":\"address\"},{\"internalType\":\"uint256\",\"name\":\"balance\",\"type\":\"uint256\"},{\"internalType\":\"uint256\",\"name\":\"needed\",\"type\":\"uint256\"}],\"type\":\"error\",\"name\":\"ERC20InsufficientBalance\"},{\"inputs\":[{\"internalType\":\"address\",\"name\":\"approver\",\"type\":\"address\"}],\"type\":\"error\",\"name\":\"ERC20InvalidApprover\"},{\"inputs\":[{\"internalType\":\"address\",\"name\":\"receiver\",\"type\":\"address\"}],\"type\":\"error\",\"name\":\"ERC20InvalidReceiver\"},{\"inputs\":[{\"internalType\":\"address\",\"name\":\"sender\",\"type\":\"address\"}],\"type\":\"error\",\"name\":\"ERC20InvalidSender\"},{\"inputs\":[{\"internalType\":\"address\",\"name\":\"spender\",\"type\":\"address\"}],\"type\":\"error\",\"name\":\"ERC20InvalidSpender\"},{\"inputs\":[{\"internalType\":\"uint256\",\"name\":\"deadline\",\"type\":\"uint256\"}],\"type\":\"error\",\"name\":\"ERC2612ExpiredSignature\"},{\"inputs\":[{\"internalType\":\"address\",\"name\":\"signer\",\"type\":\"address\"},{\"internalType\":\"address\",\"name\":\"owner\",\"type\":\"address\"}],\"type\":\"error\",\"name\":\"ERC2612InvalidSigner\"},{\"inputs\":[{\"internalType\":\"uint256\",\"name\":\"timepoint\",\"type\":\"uint256\"},{\"internalType\":\"uint48\",\"name\":\"clock\",\"type\":\"uint48\"}],\"type\":\"error\",\"name\":\"ERC5805FutureLookup\"},{\"inputs\":[],\"type\":\"error\",\"name\":\"ERC6372InconsistentClock\"},{\"inputs\":[{\"internalType\":\"address\",\"name\":\"account\",\"type\":\"address\"},{\"internalType\":\"uint256\",\"name\":\"currentNonce\",\"type\":\"uint256\"}],\"type\":\"error\",\"name\":\"InvalidAccountNonce\"},{\"inputs\":[],\"type\":\"error\",\"name\":\"InvalidShortString\"},{\"inputs\":[{\"internalType\":\"address\",\"name\":\"owner\",\"type\":\"address\"}],\"type\":\"error\",\"name\":\"OwnableInvalidOwner\"},{\"inputs\":[{\"internalType\":\"address\",\"name\":\"account\",\"type\":\"address\"}],\"type\":\"error\",\"name\":\"OwnableUnauthorizedAccount\"},{\"inputs\":[{\"internalType\":\"uint8\",\"name\":\"bits\",\"type\":\"uint8\"},{\"internalType\":\"uint256\",\"name\":\"value\",\"type\":\"uint256\"}],\"type\":\"error\",\"name\":\"SafeCastOverflowedUintDowncast\"},{\"inputs\":[{\"internalType\":\"string\",\"name\":\"str\",\"type\":\"string\"}],\"type\":\"error\",\"name\":\"StringTooLong\"},{\"inputs\":[{\"internalType\":\"uint256\",\"name\":\"expiry\",\"type\":\"uint256\"}],\"type\":\"error\",\"name\":\"VotesExpiredSignature\"},{\"inputs\":[{\"internalType\":\"address\",\"name\":\"owner\",\"type\":\"address\",\"indexed\":true},{\"internalType\":\"address\",\"name\":\"spender\",\"type\":\"address\",\"indexed\":true},{\"internalType\":\"uint256\",\"name\":\"value\",\"type\":\"uint256\",\"indexed\":false}],\"type\":\"event\",\"name\":\"Approval\",\"anonymous\":false},{\"inputs\":[{\"internalType\":\"address\",\"name\":\"delegator\",\"type\":\"address\",\"indexed\":true},{\"internalType\":\"address\",\"name\":\"fromDelegate\",\"type\":\"address\",\"indexed\":true},{\"internalType\":\"address\",\"name\":\"toDelegate\",\"type\":\"address\",\"indexed\":true}],\"type\":\"event\",\"name\":\"DelegateChanged\",\"anonymous\":false},{\"inputs\":[{\"internalType\":\"address\",\"name\":\"delegate\",\"type\":\"address\",\"indexed\":true},{\"internalType\":\"uint256\",\"name\":\"previousVotes\",\"type\":\"uint256\",\"indexed\":false},{\"internalType\":\"uint256\",\"name\":\"newVotes\",\"type\":\"uint256\",\"indexed\":false}],\"type\":\"event\",\"name\":\"DelegateVotesChanged\",\"anonymous\":false},{\"inputs\":[],\"type\":\"event\",\"name\":\"EIP712DomainChanged\",\"anonymous\":false},{\"inputs\":[{\"internalType\":\"address\",\"name\":\"previousOwner\",\"type\":\"address\",\"indexed\":true},{\"internalType\":\"address\",\"name\":\"newOwner\",\"type\":\"address\",\"indexed\":true}],\"type\":\"event\",\"name\":\"OwnershipTransferred\",\"anonymous\":false},{\"inputs\":[{\"internalType\":\"address\",\"name\":\"from\",\"type\":\"address\",\"indexed\":true},{\"internalType\":\"address\",\"name\":\"to\",\"type\":\"address\",\"indexed\":true},{\"internalType\":\"uint256\",\"name\":\"value\",\"type\":\"uint256\",\"indexed\":false}],\"type\":\"event\",\"name\":\"Transfer\",\"anonymous\":false},{\"inputs\":[],\"stateMutability\":\"view\",\"type\":\"function\",\"name\":\"CLOCK_MODE\",\"outputs\":[{\"internalType\":\"string\",\"name\":\"\",\"type\":\"string\"}]},{\"inputs\":[],\"stateMutability\":\"view\",\"type\":\"function\",\"name\":\"DOMAIN_SEPARATOR\",\"outputs\":[{\"internalType\":\"bytes32\",\"name\":\"\",\"type\":\"bytes32\"}]},{\"inputs\":[{\"internalType\":\"address\",\"name\":\"owner\",\"type\":\"address\"},{\"internalType\":\"address\",\"name\":\"spender\",\"type\":\"address\"}],\"stateMutability\":\"view\",\"type\":\"function\",\"name\":\"allowance\",\"outputs\":[{\"internalType\":\"uint256\",\"name\":\"\",\"type\":\"uint256\"}]},{\"inputs\":[{\"internalType\":\"address\",\"name\":\"spender\",\"type\":\"address\"},{\"internalType\":\"uint256\",\"name\":\"value\",\"type\":\"uint256\"}],\"stateMutability\":\"nonpayable\",\"type\":\"function\",\"name\":\"approve\",\"outputs\":[{\"internalType\":\"bool\",\"name\":\"\",\"type\":\"bool\"}]},{\"inputs\":[{\"internalType\":\"address\",\"name\":\"account\",\"type\":\"address\"}],\"stateMutability\":\"view\",\"type\":\"function\",\"name\":\"balanceOf\",\"outputs\":[{\"internalType\":\"uint256\",\"name\":\"\",\"type\":\"uint256\"}]},{\"inputs\":[{\"internalType\":\"address\",\"name\":\"account\",\"type\":\"address\"},{\"internalType\":\"uint256\",\"name\":\"amount\",\"type\":\"uint256\"}],\"stateMutability\":\"nonpayable\",\"type\":\"function\",\"name\":\"burn\"},{\"inputs\":[{\"internalType\":\"address\",\"name\":\"account\",\"type\":\"address\"},{\"internalType\":\"uint32\",\"name\":\"pos\",\"type\":\"uint32\"}],\"stateMutability\":\"view\",\"type\":\"function\",\"name\":\"checkpoints\",\"outputs\":[{\"internalType\":\"struct Checkpoints.Checkpoint208\",\"name\":\"\",\"type\":\"tuple\",\"components\":[{\"internalType\":\"uint48\",\"name\":\"_key\",\"type\":\"uint48\"},{\"internalType\":\"uint208\",\"name\":\"_value\",\"type\":\"uint208\"}]}]},{\"inputs\":[],\"stateMutability\":\"view\",\"type\":\"function\",\"name\":\"clock\",\"outputs\":[{\"internalType\":\"uint48\",\"name\":\"\",\"type\":\"uint48\"}]},{\"inputs\":[],\"stateMutability\":\"view\",\"type\":\"function\",\"name\":\"decimals\",\"outputs\":[{\"internalType\":\"uint8\",\"name\":\"\",\"type\":\"uint8\"}]},{\"inputs\":[{\"internalType\":\"address\",\"name\":\"delegatee\",\"type\":\"address\"}],\"stateMutability\":\"nonpayable\",\"type\":\"function\",\"name\":\"delegate\"},{\"inputs\":[{\"internalType\":\"address\",\"name\":\"delegatee\",\"type\":\"address\"},{\"internalType\":\"uint256\",\"name\":\"nonce\",\"type\":\"uint256\"},{\"internalType\":\"uint256\",\"name\":\"expiry\",\"type\":\"uint256\"},{\"internalType\":\"uint8\",\"name\":\"v\",\"type\":\"uint8\"},{\"internalType\":\"bytes32\",\"name\":\"r\",\"type\":\"bytes32\"},{\"internalType\":\"bytes32\",\"name\":\"s\",\"type\":\"bytes32\"}],\"stateMutability\":\"nonpayable\",\"type\":\"function\",\"name\":\"delegateBySig\"},{\"inputs\":[{\"internalType\":\"address\",\"name\":\"account\",\"type\":\"address\"}],\"stateMutability\":\"view\",\"type\":\"function\",\"name\":\"delegates\",\"outputs\":[{\"internalType\":\"address\",\"name\":\"\",\"type\":\"address\"}]},{\"inputs\":[],\"stateMutability\":\"view\",\"type\":\"function\",\"name\":\"eip712Domain\",\"outputs\":[{\"internalType\":\"bytes1\",\"name\":\"fields\",\"type\":\"bytes1\"},{\"internalType\":\"string\",\"name\":\"name\",\"type\":\"string\"},{\"internalType\":\"string\",\"name\":\"version\",\"type\":\"string\"},{\"internalType\":\"uint256\",\"name\":\"chainId\",\"type\":\"uint256\"},{\"internalType\":\"address\",\"name\":\"verifyingContract\",\"type\":\"address\"},{\"internalType\":\"bytes32\",\"name\":\"salt\",\"type\":\"bytes32\"},{\"internalType\":\"uint256[]\",\"name\":\"extensions\",\"type\":\"uint256[]\"}]},{\"inputs\":[{\"internalType\":\"uint256\",\"name\":\"timepoint\",\"type\":\"uint256\"}],\"stateMutability\":\"view\",\"type\":\"function\",\"name\":\"getPastTotalSupply\",\"outputs\":[{\"internalType\":\"uint256\",\"name\":\"\",\"type\":\"uint256\"}]},{\"inputs\":[{\"internalType\":\"address\",\"name\":\"account\",\"type\":\"address\"},{\"internalType\":\"uint256\",\"name\":\"timepoint\",\"type\":\"uint256\"}],\"stateMutability\":\"view\",\"type\":\"function\",\"name\":\"getPastVotes\",\"outputs\":[{\"internalType\":\"uint256\",\"name\":\"\",\"type\":\"uint256\"}]},{\"inputs\":[{\"internalType\":\"address\",\"name\":\"account\",\"type\":\"address\"}],\"stateMutability\":\"view\",\"type\":\"function\",\"name\":\"getVotes\",\"outputs\":[{\"internalType\":\"uint256\",\"name\":\"\",\"type\":\"uint256\"}]},{\"inputs\":[{\"internalType\":\"string\",\"name\":\"name_\",\"type\":\"string\"},{\"internalType\":\"string\",\"name\":\"symbol_\",\"type\":\"string\"},{\"internalType\":\"address\",\"name\":\"owner\",\"type\":\"address\"}],\"stateMutability\":\"nonpayable\",\"type\":\"function\",\"name\":\"initialize\"},{\"inputs\":[{\"internalType\":\"address\",\"name\":\"account\",\"type\":\"address\"},{\"internalType\":\"uint256\",\"name\":\"amount\",\"type\":\"uint256\"}],\"stateMutability\":\"nonpayable\",\"type\":\"function\",\"name\":\"mint\"},{\"inputs\":[],\"stateMutability\":\"view\",\"type\":\"function\",\"name\":\"name\",\"outputs\":[{\"internalType\":\"string\",\"name\":\"\",\"type\":\"string\"}]},{\"inputs\":[{\"internalType\":\"address\",\"name\":\"owner\",\"type\":\"address\"}],\"stateMutability\":\"view\",\"type\":\"function\",\"name\":\"nonces\",\"outputs\":[{\"internalType\":\"uint256\",\"name\":\"\",\"type\":\"uint256\"}]},{\"inputs\":[{\"internalType\":\"address\",\"name\":\"account\",\"type\":\"address\"}],\"stateMutability\":\"view\",\"type\":\"function\",\"name\":\"numCheckpoints\",\"outputs\":[{\"internalType\":\"uint32\",\"name\":\"\",\"type\":\"uint32\"}]},{\"inputs\":[],\"stateMutability\":\"view\",\"type\":\"function\",\"name\":\"owner\",\"outputs\":[{\"internalType\":\"address\",\"name\":\"\",\"type\":\"address\"}]},{\"inputs\":[{\"internalType\":\"address\",\"name\":\"owner\",\"type\":\"address\"},{\"internalType\":\"address\",\"name\":\"spender\",\"type\":\"address\"},{\"internalType\":\"uint256\",\"name\":\"value\",\"type\":\"uint256\"},{\"internalType\":\"uint256\",\"name\":\"deadline\",\"type\":\"uint256\"},{\"internalType\":\"uint8\",\"name\":\"v\",\"type\":\"uint8\"},{\"internalType\":\"bytes32\",\"name\":\"r\",\"type\":\"bytes32\"},{\"internalType\":\"bytes32\",\"name\":\"s\",\"type\":\"bytes32\"}],\"stateMutability\":\"nonpayable\",\"type\":\"function\",\"name\":\"permit\"},{\"inputs\":[],\"stateMutability\":\"nonpayable\",\"type\":\"function\",\"name\":\"renounceOwnership\"},{\"inputs\":[],\"stateMutability\":\"view\",\"type\":\"function\",\"name\":\"symbol\",\"outputs\":[{\"internalType\":\"string\",\"name\":\"\",\"type\":\"string\"}]},{\"inputs\":[],\"stateMutability\":\"view\",\"type\":\"function\",\"name\":\"totalSupply\",\"outputs\":[{\"internalType\":\"uint256\",\"name\":\"\",\"type\":\"uint256\"}]},{\"inputs\":[{\"internalType\":\"address\",\"name\":\"to\",\"type\":\"address\"},{\"internalType\":\"uint256\",\"name\":\"value\",\"type\":\"uint256\"}],\"stateMutability\":\"nonpayable\",\"type\":\"function\",\"name\":\"transfer\",\"outputs\":[{\"internalType\":\"bool\",\"name\":\"\",\"type\":\"bool\"}]},{\"inputs\":[{\"internalType\":\"address\",\"name\":\"from\",\"type\":\"address\"},{\"internalType\":\"address\",\"name\":\"to\",\"type\":\"address\"},{\"internalType\":\"uint256\",\"name\":\"value\",\"type\":\"uint256\"}],\"stateMutability\":\"nonpayable\",\"type\":\"function\",\"name\":\"transferFrom\",\"outputs\":[{\"internalType\":\"bool\",\"name\":\"\",\"type\":\"bool\"}]},{\"inputs\":[{\"internalType\":\"address\",\"name\":\"newOwner\",\"type\":\"address\"}],\"stateMutability\":\"nonpayable\",\"type\":\"function\",\"name\":\"transferOwnership\"}],\"devdoc\":{\"kind\":\"dev\",\"methods\":{\"CLOCK_MODE()\":{\"details\":\"Machine-readable description of the clock as specified in EIP-6372.\"},\"DOMAIN_SEPARATOR()\":{\"details\":\"Returns the domain separator used in the encoding of the signature for {permit}, as defined by {EIP712}.\"},\"allowance(address,address)\":{\"details\":\"See {IERC20-allowance}.\"},\"approve(address,uint256)\":{\"details\":\"See {IERC20-approve}. NOTE: If `value` is the maximum `uint256`, the allowance is not updated on `transferFrom`. This is semantically equivalent to an infinite approval. Requirements: - `spender` cannot be the zero address.\"},\"balanceOf(address)\":{\"params\":{\"account\":\"The account to get the balance of.\"},\"returns\":{\"_0\":\"The number of tokens owned by the `account`, as a fixed point number with 18 decimals.\"}},\"burn(address,uint256)\":{\"details\":\"Can only be called by this contract's owner.\",\"params\":{\"account\":\"The address to burn tokens from.\",\"amount\":\"The amount of tokens to burn, as a fixed point number with 18 decimals.\"}},\"checkpoints(address,uint32)\":{\"details\":\"Get the `pos`-th checkpoint for `account`.\"},\"clock()\":{\"details\":\"Clock used for flagging checkpoints. Can be overridden to implement timestamp based checkpoints (and voting), in which case {CLOCK_MODE} should be overridden as well to match.\"},\"decimals()\":{\"returns\":{\"_0\":\"The number of decimals.\"}},\"delegate(address)\":{\"details\":\"Delegates votes from the sender to `delegatee`.\"},\"delegateBySig(address,uint256,uint256,uint8,bytes32,bytes32)\":{\"details\":\"Delegates votes from signer to `delegatee`.\"},\"delegates(address)\":{\"details\":\"Returns the delegate that `account` has chosen.\"},\"eip712Domain()\":{\"details\":\"See {IERC-5267}.\"},\"getPastTotalSupply(uint256)\":{\"details\":\"Returns the total supply of votes available at a specific moment in the past. If the `clock()` is configured to use block numbers, this will return the value at the end of the corresponding block. NOTE: This value is the sum of all available votes, which is not necessarily the sum of all delegated votes. Votes that have not been delegated are still part of total supply, even though they would not participate in a vote. Requirements: - `timepoint` must be in the past. If operating using block numbers, the block must be already mined.\"},\"getPastVotes(address,uint256)\":{\"details\":\"Returns the amount of votes that `account` had at a specific moment in the past. If the `clock()` is configured to use block numbers, this will return the value at the end of the corresponding block. Requirements: - `timepoint` must be in the past. If operating using block numbers, the block must be already mined.\"},\"getVotes(address)\":{\"details\":\"Returns the current amount of votes that `account` has.\"},\"initialize(string,string,address)\":{\"params\":{\"name_\":\"The token's name.\",\"owner\":\"The token contract's owner.\",\"symbol_\":\"The token's symbol.\"}},\"mint(address,uint256)\":{\"details\":\"Can only be called by this contract's owner.\",\"params\":{\"account\":\"The address to mint the new tokens to.\",\"amount\":\"The amount of tokens to mint, as a fixed point number with 18 decimals.\"}},\"numCheckpoints(address)\":{\"details\":\"Get number of checkpoints for `account`.\"},\"owner()\":{\"details\":\"Returns the address of the current owner.\"},\"permit(address,address,uint256,uint256,uint8,bytes32,bytes32)\":{\"details\":\"Sets `value` as the allowance of `spender` over ``owner``'s tokens, given ``owner``'s signed approval. IMPORTANT: The same issues {IERC20-approve} has related to transaction ordering also apply here. Emits an {Approval} event. Requirements: - `spender` cannot be the zero address. - `deadline` must be a timestamp in the future. - `v`, `r` and `s` must be a valid `secp256k1` signature from `owner` over the EIP712-formatted function arguments. - the signature must use ``owner``'s current nonce (see {nonces}). For more information on the signature format, see the https://eips.ethereum.org/EIPS/eip-2612#specification[relevant EIP section]. CAUTION: See Security Considerations above.\"},\"renounceOwnership()\":{\"details\":\"Leaves the contract without owner. It will not be possible to call `onlyOwner` functions. Can only be called by the current owner. NOTE: Renouncing ownership will leave the contract without an owner, thereby disabling any functionality that is only available to the owner.\"},\"totalSupply()\":{\"returns\":{\"_0\":\"The total supply of this ERC20, as a fixed point number.\"}},\"transfer(address,uint256)\":{\"details\":\"See {IERC20-transfer}. Requirements: - `to` cannot be the zero address. - the caller must have a balance of at least `value`.\"},\"transferFrom(address,address,uint256)\":{\"details\":\"See {IERC20-transferFrom}. Emits an {Approval} event indicating the updated allowance. This is not required by the EIP. See the note at the beginning of {ERC20}. NOTE: Does not update the allowance if the current allowance is the maximum `uint256`. Requirements: - `from` and `to` cannot be the zero address. - `from` must have a balance of at least `value`. - the caller must have allowance for ``from``'s tokens of at least `value`.\"},\"transferOwnership(address)\":{\"details\":\"Transfers ownership of the contract to a new account (`newOwner`). Can only be called by the current owner.\"}},\"version\":1},\"userdoc\":{\"kind\":\"user\",\"methods\":{\"balanceOf(address)\":{\"notice\":\"The balance of the given address.\"},\"burn(address,uint256)\":{\"notice\":\"Burn some outstanding tokens.\"},\"decimals()\":{\"notice\":\"The number of decimals used for this token's fixed point accounting.\"},\"initialize(string,string,address)\":{\"notice\":\"Initializes the token.\"},\"mint(address,uint256)\":{\"notice\":\"Mints more of this token.\"},\"name()\":{\"notice\":\"The token's name.\"},\"nonces(address)\":{\"notice\":\"Required override.\"},\"symbol()\":{\"notice\":\"The token's symbol.\"},\"totalSupply()\":{\"notice\":\"The total supply of this ERC20 i.e. the total number of tokens in existence.\"}},\"version\":1}},\"settings\":{\"remappings\":[\"@bananapus/=node_modules/@bananapus/\",\"@chainlink/=node_modules/@chainlink/\",\"@eth-optimism/=node_modules/@eth-optimism/\",\"@gnosis.pm/=node_modules/@gnosis.pm/\",\"@openzeppelin/=node_modules/@openzeppelin/\",\"@prb/=node_modules/@prb/\",\"@sphinx-labs/contracts/=lib/sphinx/packages/contracts/contracts/foundry/\",\"@uniswap/=node_modules/@uniswap/\",\"ds-test/=lib/forge-std/lib/ds-test/src/\",\"forge-std/=lib/forge-std/src/\",\"hardhat/=node_modules/hardhat/\",\"solmate/=node_modules/solmate/\",\"sphinx-forge-std/=node_modules/sphinx-forge-std/\",\"sphinx-solmate/=node_modules/sphinx-solmate/\",\"sphinx/=lib/sphinx/\"],\"optimizer\":{\"enabled\":true,\"runs\":200},\"metadata\":{\"bytecodeHash\":\"ipfs\"},\"compilationTarget\":{\"src/JBERC20.sol\":\"JBERC20\"},\"evmVersion\":\"paris\",\"libraries\":{}},\"sources\":{\"node_modules/@openzeppelin/contracts/access/Ownable.sol\":{\"keccak256\":\"0xff6d0bb2e285473e5311d9d3caacb525ae3538a80758c10649a4d61029b017bb\",\"urls\":[\"bzz-raw://8ed324d3920bb545059d66ab97d43e43ee85fd3bd52e03e401f020afb0b120f6\",\"dweb:/ipfs/QmfEckWLmZkDDcoWrkEvMWhms66xwTLff9DDhegYpvHo1a\"],\"license\":\"MIT\"},\"node_modules/@openzeppelin/contracts/governance/utils/IVotes.sol\":{\"keccak256\":\"0x5e2b397ae88fd5c68e4f6762eb9f65f65c36702eb57796495f471d024ce70947\",\"urls\":[\"bzz-raw://348fc8e291d54314bb22437b532f443d5dbfb80c8cc9591567c1af6554ccf856\",\"dweb:/ipfs/QmP8ZTyitZinxcpwAHeYHhwj7u21zPpKXSiww38V74sXC2\"],\"license\":\"MIT\"},\"node_modules/@openzeppelin/contracts/governance/utils/Votes.sol\":{\"keccak256\":\"0xb8f69828d41b3594afd7a8c6393565901c205d8b5baf5bd2e42dbac637172979\",\"urls\":[\"bzz-raw://c790253821191ac46b2050d87df820d4209871f90c616381e2c2c00ff3eaac34\",\"dweb:/ipfs/QmcPETTyuZBzDRL39JNXj3SBMdx3Y9o4fPQLSZ27py5Jim\"],\"license\":\"MIT\"},\"node_modules/@openzeppelin/contracts/interfaces/IERC5267.sol\":{\"keccak256\":\"0x92aa1df62dc3d33f1656d63bede0923e0df0b706ad4137c8b10b0a8fe549fd92\",\"urls\":[\"bzz-raw://c5c0f29195ad64cbe556da8e257dac8f05f78c53f90323c0d2accf8e6922d33a\",\"dweb:/ipfs/QmQ61TED8uaCZwcbh8KkgRSsCav7x7HbcGHwHts3U4DmUP\"],\"license\":\"MIT\"},\"node_modules/@openzeppelin/contracts/interfaces/IERC5805.sol\":{\"keccak256\":\"0x4b9b89f91adbb7d3574f85394754cfb08c5b4eafca8a7061e2094a019ab8f818\",\"urls\":[\"bzz-raw://7373d5dbb8eb2381aa0883a456fac89283fcaf52f42fa805d4188f270716742a\",\"dweb:/ipfs/QmVnZDmT4ABvNhRJMaQnbCzsCA8HpyHPVaxi4fCi92LFv2\"],\"license\":\"MIT\"},\"node_modules/@openzeppelin/contracts/interfaces/IERC6372.sol\":{\"keccak256\":\"0xeb2857b7dafb7e0d8526dbfe794e6c047df2851c9e6ee91dc4a55f3c34af5d33\",\"urls\":[\"bzz-raw://49bf13f6c2a38a9bcc7b852d4e2b9cebb4068b832642cce61069cdb5f06bb2fb\",\"dweb:/ipfs/QmdKAJVE7rR2kENCZnEM1yKswrGii7WuE9gZpsQvnXJhwn\"],\"license\":\"MIT\"},\"node_modules/@openzeppelin/contracts/interfaces/draft-IERC6093.sol\":{\"keccak256\":\"0x60c65f701957fdd6faea1acb0bb45825791d473693ed9ecb34726fdfaa849dd7\",\"urls\":[\"bzz-raw://ea290300e0efc4d901244949dc4d877fd46e6c5e43dc2b26620e8efab3ab803f\",\"dweb:/ipfs/QmcLLJppxKeJWqHxE2CUkcfhuRTgHSn8J4kijcLa5MYhSt\"],\"license\":\"MIT\"},\"node_modules/@openzeppelin/contracts/token/ERC20/ERC20.sol\":{\"keccak256\":\"0xc3e1fa9d1987f8d349dfb4d6fe93bf2ca014b52ba335cfac30bfe71e357e6f80\",\"urls\":[\"bzz-raw://c5703ccdeb7b1d685e375ed719117e9edf2ab4bc544f24f23b0d50ec82257229\",\"dweb:/ipfs/QmTdwkbQq7owpCiyuzE7eh5LrD2ddrBCZ5WHVsWPi1RrTS\"],\"license\":\"MIT\"},\"node_modules/@openzeppelin/contracts/token/ERC20/IERC20.sol\":{\"keccak256\":\"0xc6a8ff0ea489379b61faa647490411b80102578440ab9d84e9a957cc12164e70\",\"urls\":[\"bzz-raw://0ea104e577e63faea3b69c415637e99e755dcbf64c5833d7140c35a714d6d90c\",\"dweb:/ipfs/Qmau6x4Ns9XdyynRCNNp3RhLqijJjFm7z5fyZazfYFGYdq\"],\"license\":\"MIT\"},\"node_modules/@openzeppelin/contracts/token/ERC20/extensions/ERC20Permit.sol\":{\"keccak256\":\"0xc858a86a35701004d89022a5e98819aac46ccbdc4072fc9dd43928a676b1a2ee\",\"urls\":[\"bzz-raw://18acebb483c512c0eaafcb437f09c839972c3f0d36f0201ea7baa2926b987dd2\",\"dweb:/ipfs/Qmd9bf2noaDSYDtf6FMSzKu7LPhuf91jsVNmcoCuTCuGic\"],\"license\":\"MIT\"},\"node_modules/@openzeppelin/contracts/token/ERC20/extensions/ERC20Votes.sol\":{\"keccak256\":\"0x2a650f6e593cfe5ff2e514a17ea7f593ee70cefa1888066bc983a6308acff4b1\",\"urls\":[\"bzz-raw://9a3477b9665a4b6d19f86bf2cfbfa8c08ba41193f15e68c0d75c0cab7e1fc753\",\"dweb:/ipfs/QmbcurrTatN1PBmkCWdrED8zhAqx5ah9Qp6uR8YwkKWA8V\"],\"license\":\"MIT\"},\"node_modules/@openzeppelin/contracts/token/ERC20/extensions/IERC20Metadata.sol\":{\"keccak256\":\"0xaa761817f6cd7892fcf158b3c776b34551cde36f48ff9703d53898bc45a94ea2\",\"urls\":[\"bzz-raw://0ad7c8d4d08938c8dfc43d75a148863fb324b80cf53e0a36f7e5a4ac29008850\",\"dweb:/ipfs/QmcrhfPgVNf5mkdhQvy1pMv51TFokD3Y4Wa5WZhFqVh8UV\"],\"license\":\"MIT\"},\"node_modules/@openzeppelin/contracts/token/ERC20/extensions/IERC20Permit.sol\":{\"keccak256\":\"0x6008dabfe393240d73d7dd7688033f72740d570aa422254d29a7dce8568f3aff\",\"urls\":[\"bzz-raw://f5196ec75139918c6c7bb4251b36395e668f1fa6d206beba7e7520e74913940d\",\"dweb:/ipfs/QmSyqjksXxmm2mCG6qRd1yuwLykypkSVBbnBnGqJRcuJMi\"],\"license\":\"MIT\"},\"node_modules/@openzeppelin/contracts/utils/Context.sol\":{\"keccak256\":\"0x493033a8d1b176a037b2cc6a04dad01a5c157722049bbecf632ca876224dd4b2\",\"urls\":[\"bzz-raw://6a708e8a5bdb1011c2c381c9a5cfd8a9a956d7d0a9dc1bd8bcdaf52f76ef2f12\",\"dweb:/ipfs/Qmax9WHBnVsZP46ZxEMNRQpLQnrdE4dK8LehML1Py8FowF\"],\"license\":\"MIT\"},\"node_modules/@openzeppelin/contracts/utils/Nonces.sol\":{\"keccak256\":\"0x0082767004fca261c332e9ad100868327a863a88ef724e844857128845ab350f\",\"urls\":[\"bzz-raw://132dce9686a54e025eb5ba5d2e48208f847a1ec3e60a3e527766d7bf53fb7f9e\",\"dweb:/ipfs/QmXn1a2nUZMpu2z6S88UoTfMVtY2YNh86iGrzJDYmMkKeZ\"],\"license\":\"MIT\"},\"node_modules/@openzeppelin/contracts/utils/ShortStrings.sol\":{\"keccak256\":\"0x18a7171df639a934592915a520ecb97c5bbc9675a1105607aac8a94e72bf62c6\",\"urls\":[\"bzz-raw://7478e1f13da69a2867ccd883001d836b75620362e743f196376d63ed0c422a1c\",\"dweb:/ipfs/QmWywcQ9TNfwtoqAxbn25d8C5VrV12PrPS9UjtGe6pL2BA\"],\"license\":\"MIT\"},\"node_modules/@openzeppelin/contracts/utils/StorageSlot.sol\":{\"keccak256\":\"0x32ba59b4b7299237c8ba56319110989d7978a039faf754793064e967e5894418\",\"urls\":[\"bzz-raw://1ae50c8b562427df610cc4540c9bf104acca7ef8e2dcae567ae7e52272281e9c\",\"dweb:/ipfs/QmTHiadFCSJUPpRjNegc5SahmeU8bAoY8i9Aq6tVscbcKR\"],\"license\":\"MIT\"},\"node_modules/@openzeppelin/contracts/utils/Strings.sol\":{\"keccak256\":\"0x55f102ea785d8399c0e58d1108e2d289506dde18abc6db1b7f68c1f9f9bc5792\",\"urls\":[\"bzz-raw://6e52e0a7765c943ef14e5bcf11e46e6139fa044be564881378349236bf2e3453\",\"dweb:/ipfs/QmZEeeXoFPW47amyP35gfzomF9DixqqTEPwzBakv6cZw6i\"],\"license\":\"MIT\"},\"node_modules/@openzeppelin/contracts/utils/cryptography/ECDSA.sol\":{\"keccak256\":\"0xeed0a08b0b091f528356cbc7245891a4c748682d4f6a18055e8e6ca77d12a6cf\",\"urls\":[\"bzz-raw://ba80ba06c8e6be852847e4c5f4492cef801feb6558ae09ed705ff2e04ea8b13c\",\"dweb:/ipfs/QmXRJDv3xHLVQCVXg1ZvR35QS9sij5y9NDWYzMfUfAdTHF\"],\"license\":\"MIT\"},\"node_modules/@openzeppelin/contracts/utils/cryptography/EIP712.sol\":{\"keccak256\":\"0x999f705a027ed6dc2d4e0df2cc4a509852c6bfd11de1c8161bf88832d0503fd0\",\"urls\":[\"bzz-raw://0798def67258d9a3cc20b2b4da7ebf351a5cefe0abfdd665d2d81f8e32f89b21\",\"dweb:/ipfs/QmPEvJosnPfzHNjKvCv2D3891mA2Ww8eUwkqrxBjuYdHCt\"],\"license\":\"MIT\"},\"node_modules/@openzeppelin/contracts/utils/cryptography/MessageHashUtils.sol\":{\"keccak256\":\"0xba333517a3add42cd35fe877656fc3dfcc9de53baa4f3aabbd6d12a92e4ea435\",\"urls\":[\"bzz-raw://2ceacff44c0fdc81e48e0e0b1db87a2076d3c1fb497341de077bf1da9f6b406c\",\"dweb:/ipfs/QmRUo1muMRAewxrKQ7TkXUtknyRoR57AyEkoPpiuZQ8FzX\"],\"license\":\"MIT\"},\"node_modules/@openzeppelin/contracts/utils/math/Math.sol\":{\"keccak256\":\"0x005ec64c6313f0555d59e278f9a7a5ab2db5bdc72a027f255a37c327af1ec02d\",\"urls\":[\"bzz-raw://4ece9f0b9c8daca08c76b6b5405a6446b6f73b3a15fab7ff56e296cbd4a2c875\",\"dweb:/ipfs/QmQyRpyPRL5SQuAgj6SHmbir3foX65FJjbVTTQrA2EFg6L\"],\"license\":\"MIT\"},\"node_modules/@openzeppelin/contracts/utils/math/SafeCast.sol\":{\"keccak256\":\"0xe19a4d5f31d2861e7344e8e535e2feafb913d806d3e2b5fe7782741a2a7094fe\",\"urls\":[\"bzz-raw://4aed79c0fa6f0546ed02f2f683e8f77f0fd2ed7eb34d8bbf3d373c9a6d95b13c\",\"dweb:/ipfs/QmWqVz6UAVqmnWU5pqYPt1o6iDEZyPaBraAA3rKfTTSfYj\"],\"license\":\"MIT\"},\"node_modules/@openzeppelin/contracts/utils/math/SignedMath.sol\":{\"keccak256\":\"0x5f7e4076e175393767754387c962926577f1660dd9b810187b9002407656be72\",\"urls\":[\"bzz-raw://7d533a1c97cd43a57cd9c465f7ee8dd0e39ae93a8fb8ff8e5303a356b081cdcc\",\"dweb:/ipfs/QmVBEei6aTnvYNZp2CHYVNKyZS4q1KkjANfY39WVXZXVoT\"],\"license\":\"MIT\"},\"node_modules/@openzeppelin/contracts/utils/structs/Checkpoints.sol\":{\"keccak256\":\"0xbdc5e074d7dd6678f67e92b1a51a20226801a407b0e1af3da367c5d1ff4519ad\",\"urls\":[\"bzz-raw://a36cca6b22fff3db16fc789ff6c60eea71d4b156065d4d0c83a0bc5e91a77a8b\",\"dweb:/ipfs/QmYN3exd5AemxjBrN8XMB1p5LbbE16uC3sjbYjwi8AjcGR\"],\"license\":\"MIT\"},\"node_modules/@openzeppelin/contracts/utils/types/Time.sol\":{\"keccak256\":\"0xc7755af115020049e4140f224f9ee88d7e1799ffb0646f37bf0df24bf6213f58\",\"urls\":[\"bzz-raw://7f09bf94d5274334ec021f61a04659db303f31e60460e14b709c9bf187740111\",\"dweb:/ipfs/QmNvgomZYUwFAt4cZbPWAiTeSZQreGehY9BK5xyVJsUttb\"],\"license\":\"MIT\"},\"src/JBERC20.sol\":{\"keccak256\":\"0x4ca0ae4f2037c64217db9bf2376f27d129e9edd3810cc0ee31b5867d44d1ec67\",\"urls\":[\"bzz-raw://a3ba32cf40e165040459aa8c8462e22bdf0b1b3fb15f45c1f312751781c8f1fb\",\"dweb:/ipfs/QmYYPFZwwGweNSRTW1W2ibBWqWmwVsRFSrdjsQyHANpTK9\"],\"license\":\"MIT\"},\"src/interfaces/IJBToken.sol\":{\"keccak256\":\"0x71b1f9c3a0edd41910f77396e0be2c65596571176d53eb87e887c3c0da56c0fb\",\"urls\":[\"bzz-raw://6e956f0582f4525e83d845ee9b4a89959abc4f821414f6accbbee5b38960482d\",\"dweb:/ipfs/QmbSvjgmCgnfVmcCTGu8XwrV1Rufsf3M8hB8unFq6fTMdH\"],\"license\":\"MIT\"}},\"version\":1}",
			"args": [],
			"bytecode": "0x6101606040523480156200001257600080fd5b50306040518060400160405280600781526020016625212a37b5b2b760c91b81525080604051806040016040528060018152602001603160f81b815250604051806040016040528060078152602001661a5b9d985b1a5960ca1b815250604051806040016040528060078152602001661a5b9d985b1a5960ca1b8152508160039081620000a0919062000321565b506004620000af828262000321565b50620000c191508390506005620001ac565b61012052620000d2816006620001ac565b61014052815160208084019190912060e052815190820120610100524660a0526200016060e05161010051604080517f8b73c3c69bb8fe3d512ecc4cf759cc79239f7b179b0ffacaa9a75d522b39400f60208201529081019290925260608201524660808201523060a082015260009060c00160405160208183030381529060405280519060200120905090565b60805250503060c052506001600160a01b0381166200019a57604051631e4fbdf760e01b8152600060048201526024015b60405180910390fd5b620001a581620001e5565b5062000463565b6000602083511015620001cc57620001c48362000237565b9050620001df565b81620001d9848262000321565b5060ff90505b92915050565b600b80546001600160a01b038381166001600160a01b0319831681179093556040519116919082907f8be0079c531659141344cd1fd0a4f28419497f9722a3daafe3b4186f6b6457e090600090a35050565b600080829050601f8151111562000265578260405163305a27a960e01b8152600401620001919190620003ed565b805162000272826200043e565b179392505050565b634e487b7160e01b600052604160045260246000fd5b600181811c90821680620002a557607f821691505b602082108103620002c657634e487b7160e01b600052602260045260246000fd5b50919050565b601f8211156200031c576000816000526020600020601f850160051c81016020861015620002f75750805b601f850160051c820191505b81811015620003185782815560010162000303565b5050505b505050565b81516001600160401b038111156200033d576200033d6200027a565b62000355816200034e845462000290565b84620002cc565b602080601f8311600181146200038d5760008415620003745750858301515b600019600386901b1c1916600185901b17855562000318565b600085815260208120601f198616915b82811015620003be578886015182559484019460019091019084016200039d565b5085821015620003dd5787850151600019600388901b60f8161c191681555b5050505050600190811b01905550565b60006020808352835180602085015260005b818110156200041d57858101830151858201604001528201620003ff565b506000604082860101526040601f19601f8301168501019250505092915050565b80516020808301519190811015620002c65760001960209190910360031b1b16919050565b60805160a05160c05160e0516101005161012051610140516122e7620004be6000396000610f4e01526000610f2101526000610cbc01526000610c9401526000610bef01526000610c1901526000610c4301526122e76000f3fe608060405234801561001057600080fd5b50600436106101cf5760003560e01c8063715018a6116101045780639ab24eb0116100a2578063d505accf11610071578063d505accf146103f7578063dd62ed3e1461040a578063f1127ed814610443578063f2fde38b1461048257600080fd5b80639ab24eb0146103ab5780639dc29fac146103be578063a9059cbb146103d1578063c3cda520146103e457600080fd5b80638da5cb5b116100de5780638da5cb5b146103605780638e539e8c1461037157806391ddadf41461038457806395d89b41146103a357600080fd5b8063715018a61461032a5780637ecebe001461033257806384b0196e1461034557600080fd5b80633a46b1a811610171578063587cde1e1161014b578063587cde1e146102985780635c19a95c146102dc5780636fcfff45146102ef57806370a082311461031757600080fd5b80633a46b1a81461026a57806340c10f191461027d5780634bf5d7e91461029057600080fd5b806318160ddd116101ad57806318160ddd1461022a57806323b872dd14610240578063313ce567146102535780633644e5151461026257600080fd5b806306fdde03146101d4578063077f224a146101f2578063095ea7b314610207575b600080fd5b6101dc610495565b6040516101e99190611cc1565b60405180910390f35b610205610200366004611d93565b610527565b005b61021a610215366004611e07565b610574565b60405190151581526020016101e9565b61023261058e565b6040519081526020016101e9565b61021a61024e366004611e31565b61059e565b604051601281526020016101e9565b6102326105c2565b610232610278366004611e07565b6105cc565b61020561028b366004611e07565b610652565b6101dc610668565b6102c46102a6366004611e6d565b6001600160a01b039081166000908152600860205260409020541690565b6040516001600160a01b0390911681526020016101e9565b6102056102ea366004611e6d565b6106e0565b6103026102fd366004611e6d565b6106eb565b60405163ffffffff90911681526020016101e9565b610232610325366004611e6d565b6106f6565b610205610714565b610232610340366004611e6d565b610728565b61034d610733565b6040516101e99796959493929190611e88565b600b546001600160a01b03166102c4565b61023261037f366004611f21565b610779565b61038c6107e3565b60405165ffffffffffff90911681526020016101e9565b6101dc6107ed565b6102326103b9366004611e6d565b6107fc565b6102056103cc366004611e07565b61082c565b61021a6103df366004611e07565b61083e565b6102056103f2366004611f4b565b61084c565b610205610405366004611fa3565b610909565b61023261041836600461200d565b6001600160a01b03918216600090815260016020908152604080832093909416825291909152205490565b610456610451366004612040565b610a43565b60408051825165ffffffffffff1681526020928301516001600160d01b031692810192909252016101e9565b610205610490366004611e6d565b610a68565b6060600c80546104a490612080565b80601f01602080910402602001604051908101604052809291908181526020018280546104d090612080565b801561051d5780601f106104f25761010080835404028352916020019161051d565b820191906000526020600020905b81548152906001019060200180831161050057829003601f168201915b5050505050905090565b600c805461053490612080565b151590508061054257508251155b1561054c57600080fd5b600c610558848261210a565b50600d610565838261210a565b5061056f81610aa6565b505050565b600033610582818585610af8565b60019150505b92915050565b600061059960025490565b905090565b6000336105ac858285610b05565b6105b7858585610b83565b506001949350505050565b6000610599610be2565b6000806105d76107e3565b90508065ffffffffffff16831061061757604051637669fc0f60e11b81526004810184905265ffffffffffff821660248201526044015b60405180910390fd5b61064161062384610d0d565b6001600160a01b038616600090815260096020526040902090610d44565b6001600160d01b0316949350505050565b61065a610dfa565b6106648282610e27565b5050565b6060610672610e5d565b65ffffffffffff166106826107e3565b65ffffffffffff16146106a8576040516301bfc1c560e61b815260040160405180910390fd5b5060408051808201909152601d81527f6d6f64653d626c6f636b6e756d6265722666726f6d3d64656661756c74000000602082015290565b336106648183610e68565b600061058882610eda565b6001600160a01b038116600090815260208190526040812054610588565b61071c610dfa565b6107266000610aa6565b565b600061058882610efc565b600060608060008060006060610747610f1a565b61074f610f47565b60408051600080825260208201909252600f60f81b9b939a50919850469750309650945092509050565b6000806107846107e3565b90508065ffffffffffff1683106107bf57604051637669fc0f60e11b81526004810184905265ffffffffffff8216602482015260440161060e565b6107d36107cb84610d0d565b600a90610d44565b6001600160d01b03169392505050565b6000610599610e5d565b6060600d80546104a490612080565b6001600160a01b038116600090815260096020526040812061081d90610f74565b6001600160d01b031692915050565b610834610dfa565b6106648282610fad565b600033610582818585610b83565b8342111561087057604051632341d78760e11b81526004810185905260240161060e565b604080517fe48329057bfd03d55e49b547132e39cffd9c1820ad7b9d4c5307691425d15adf60208201526001600160a01b0388169181019190915260608101869052608081018590526000906108ea906108e29060a00160405160208183030381529060405280519060200120610fe3565b858585611010565b90506108f6818761103e565b6109008188610e68565b50505050505050565b8342111561092d5760405163313c898160e11b81526004810185905260240161060e565b60007f6e71edae12b1b97f4d1f60370fef10105fa2faae0126114a169c64845d6126c988888861097a8c6001600160a01b0316600090815260076020526040902080546001810190915590565b6040805160208101969096526001600160a01b0394851690860152929091166060840152608083015260a082015260c0810186905260e00160405160208183030381529060405280519060200120905060006109d582610fe3565b905060006109e582878787611010565b9050896001600160a01b0316816001600160a01b031614610a2c576040516325c0072360e11b81526001600160a01b0380831660048301528b16602482015260440161060e565b610a378a8a8a610af8565b50505050505050505050565b6040805180820190915260008082526020820152610a618383611091565b9392505050565b610a70610dfa565b6001600160a01b038116610a9a57604051631e4fbdf760e01b81526000600482015260240161060e565b610aa381610aa6565b50565b600b80546001600160a01b038381166001600160a01b0319831681179093556040519116919082907f8be0079c531659141344cd1fd0a4f28419497f9722a3daafe3b4186f6b6457e090600090a35050565b61056f83838360016110c7565b6001600160a01b038381166000908152600160209081526040808320938616835292905220546000198114610b7d5781811015610b6e57604051637dc7a0d960e11b81526001600160a01b0384166004820152602481018290526044810183905260640161060e565b610b7d848484840360006110c7565b50505050565b6001600160a01b038316610bad57604051634b637e8f60e11b81526000600482015260240161060e565b6001600160a01b038216610bd75760405163ec442f0560e01b81526000600482015260240161060e565b61056f83838361119c565b6000306001600160a01b037f000000000000000000000000000000000000000000000000000000000000000016148015610c3b57507f000000000000000000000000000000000000000000000000000000000000000046145b15610c6557507f000000000000000000000000000000000000000000000000000000000000000090565b610599604080517f8b73c3c69bb8fe3d512ecc4cf759cc79239f7b179b0ffacaa9a75d522b39400f60208201527f0000000000000000000000000000000000000000000000000000000000000000918101919091527f000000000000000000000000000000000000000000000000000000000000000060608201524660808201523060a082015260009060c00160405160208183030381529060405280519060200120905090565b600065ffffffffffff821115610d40576040516306dfcc6560e41b8152603060048201526024810183905260440161060e565b5090565b815460009081816005811115610da3576000610d5f846111a7565b610d6990856121e0565b60008881526020902090915081015465ffffffffffff9081169087161015610d9357809150610da1565b610d9e8160016121f3565b92505b505b6000610db18787858561128f565b90508015610dec57610dd687610dc86001846121e0565b600091825260209091200190565b54600160301b90046001600160d01b0316610def565b60005b979650505050505050565b600b546001600160a01b031633146107265760405163118cdaa760e01b815233600482015260240161060e565b6001600160a01b038216610e515760405163ec442f0560e01b81526000600482015260240161060e565b6106646000838361119c565b600061059943610d0d565b6001600160a01b0382811660008181526008602052604080822080548686166001600160a01b0319821681179092559151919094169392849290917f3134e8a2e6d97e929a7e54011ea5485d7d196dd5f0ba4d4ef95803e8e3fc257f9190a461056f8183610ed5866112f1565b6112fc565b6001600160a01b03811660009081526009602052604081205461058890611468565b6001600160a01b038116600090815260076020526040812054610588565b60606105997f00000000000000000000000000000000000000000000000000000000000000006005611499565b60606105997f00000000000000000000000000000000000000000000000000000000000000006006611499565b80546000908015610fa457610f8e83610dc86001846121e0565b54600160301b90046001600160d01b0316610a61565b60009392505050565b6001600160a01b038216610fd757604051634b637e8f60e11b81526000600482015260240161060e565b6106648260008361119c565b6000610588610ff0610be2565b8360405161190160f01b8152600281019290925260228201526042902090565b60008060008061102288888888611544565b9250925092506110328282611613565b50909695505050505050565b6001600160a01b038216600090815260076020526040902080546001810190915581811461056f576040516301d4b62360e61b81526001600160a01b03841660048201526024810182905260440161060e565b60408051808201909152600080825260208201526001600160a01b0383166000908152600960205260409020610a6190836116cc565b6001600160a01b0384166110f15760405163e602df0560e01b81526000600482015260240161060e565b6001600160a01b03831661111b57604051634a1406b160e11b81526000600482015260240161060e565b6001600160a01b0380851660009081526001602090815260408083209387168352929052208290558015610b7d57826001600160a01b0316846001600160a01b03167f8c5be1e5ebec7d5bd14f71427d1e84f3dd0314c0f7b2291e5b200ac8c7c3b9258460405161118e91815260200190565b60405180910390a350505050565b61056f83838361173c565b6000816000036111b957506000919050565b600060016111c6846117a2565b901c6001901b905060018184816111df576111df612206565b048201901c905060018184816111f7576111f7612206565b048201901c9050600181848161120f5761120f612206565b048201901c9050600181848161122757611227612206565b048201901c9050600181848161123f5761123f612206565b048201901c9050600181848161125757611257612206565b048201901c9050600181848161126f5761126f612206565b048201901c9050610a618182858161128957611289612206565b04611836565b60005b818310156112e95760006112a6848461184c565b60008781526020902090915065ffffffffffff86169082015465ffffffffffff1611156112d5578092506112e3565b6112e08160016121f3565b93505b50611292565b509392505050565b6000610588826106f6565b816001600160a01b0316836001600160a01b03161415801561131e5750600081115b1561056f576001600160a01b038316156113c6576001600160a01b038316600090815260096020526040812081906113619061186761135c86611873565b6118a7565b6001600160d01b031691506001600160d01b03169150846001600160a01b03167fdec2bacdd2f05b59de34da9b523dff8be42e5e38e818c82fdb0bae774387a72483836040516113bb929190918252602082015260400190565b60405180910390a250505b6001600160a01b0382161561056f576001600160a01b038216600090815260096020526040812081906113ff906118e061135c86611873565b6001600160d01b031691506001600160d01b03169150836001600160a01b03167fdec2bacdd2f05b59de34da9b523dff8be42e5e38e818c82fdb0bae774387a7248383604051611459929190918252602082015260400190565b60405180910390a25050505050565b600063ffffffff821115610d40576040516306dfcc6560e41b8152602060048201526024810183905260440161060e565b606060ff83146114b3576114ac836118ec565b9050610588565b8180546114bf90612080565b80601f01602080910402602001604051908101604052809291908181526020018280546114eb90612080565b80156115385780601f1061150d57610100808354040283529160200191611538565b820191906000526020600020905b81548152906001019060200180831161151b57829003601f168201915b50505050509050610588565b600080807f7fffffffffffffffffffffffffffffff5d576e7357a4501ddfe92f46681b20a084111561157f5750600091506003905082611609565b604080516000808252602082018084528a905260ff891692820192909252606081018790526080810186905260019060a0016020604051602081039080840390855afa1580156115d3573d6000803e3d6000fd5b5050604051601f1901519150506001600160a01b0381166115ff57506000925060019150829050611609565b9250600091508190505b9450945094915050565b60008260038111156116275761162761221c565b03611630575050565b60018260038111156116445761164461221c565b036116625760405163f645eedf60e01b815260040160405180910390fd5b60028260038111156116765761167661221c565b036116975760405163fce698f760e01b81526004810182905260240161060e565b60038260038111156116ab576116ab61221c565b03610664576040516335e2f38360e21b81526004810182905260240161060e565b6040805180820190915260008082526020820152826000018263ffffffff16815481106116fb576116fb612232565b60009182526020918290206040805180820190915291015465ffffffffffff81168252600160301b90046001600160d01b0316918101919091529392505050565b61174783838361192b565b6001600160a01b03831661179757600061175f61058e565b90506001600160d01b038082111561179457604051630e58ae9360e11b8152600481018390526024810182905260440161060e565b50505b61056f838383611a55565b600080608083901c156117b757608092831c92015b604083901c156117c957604092831c92015b602083901c156117db57602092831c92015b601083901c156117ed57601092831c92015b600883901c156117ff57600892831c92015b600483901c1561181157600492831c92015b600283901c1561182357600292831c92015b600183901c156105885760010192915050565b60008183106118455781610a61565b5090919050565b600061185b6002848418612248565b610a61908484166121f3565b6000610a61828461226a565b60006001600160d01b03821115610d40576040516306dfcc6560e41b815260d060048201526024810183905260440161060e565b6000806118d36118b56107e3565b6118cb6118c188610f74565b868863ffffffff16565b879190611acb565b915091505b935093915050565b6000610a618284612291565b606060006118f983611ad9565b604080516020808252818301909252919250600091906020820181803683375050509182525060208101929092525090565b6001600160a01b03831661195657806002600082825461194b91906121f3565b909155506119c89050565b6001600160a01b038316600090815260208190526040902054818110156119a95760405163391434e360e21b81526001600160a01b0385166004820152602481018290526044810183905260640161060e565b6001600160a01b03841660009081526020819052604090209082900390555b6001600160a01b0382166119e457600280548290039055611a03565b6001600160a01b03821660009081526020819052604090208054820190555b816001600160a01b0316836001600160a01b03167fddf252ad1be2c89b69c2b068fc378daa952ba7f163c4a11628f55a4df523b3ef83604051611a4891815260200190565b60405180910390a3505050565b6001600160a01b038316611a7757611a74600a6118e061135c84611873565b50505b6001600160a01b038216611a9957611a96600a61186761135c84611873565b50505b6001600160a01b0383811660009081526008602052604080822054858416835291205461056f929182169116836112fc565b6000806118d3858585611b01565b600060ff8216601f81111561058857604051632cd44ac360e21b815260040160405180910390fd5b825460009081908015611c20576000611b1f87610dc86001856121e0565b60408051808201909152905465ffffffffffff808216808452600160301b9092046001600160d01b031660208401529192509087161015611b7357604051632520601d60e01b815260040160405180910390fd5b805165ffffffffffff808816911603611bbf5784611b9688610dc86001866121e0565b80546001600160d01b0392909216600160301b0265ffffffffffff909216919091179055611c10565b6040805180820190915265ffffffffffff80881682526001600160d01b0380881660208085019182528b54600181018d5560008d81529190912094519151909216600160301b029216919091179101555b6020015192508391506118d89050565b50506040805180820190915265ffffffffffff80851682526001600160d01b0380851660208085019182528854600181018a5560008a815291822095519251909316600160301b0291909316179201919091559050816118d8565b6000815180845260005b81811015611ca157602081850181015186830182015201611c85565b506000602082860101526020601f19601f83011685010191505092915050565b602081526000610a616020830184611c7b565b634e487b7160e01b600052604160045260246000fd5b600082601f830112611cfb57600080fd5b813567ffffffffffffffff80821115611d1657611d16611cd4565b604051601f8301601f19908116603f01168101908282118183101715611d3e57611d3e611cd4565b81604052838152866020858801011115611d5757600080fd5b836020870160208301376000602085830101528094505050505092915050565b80356001600160a01b0381168114611d8e57600080fd5b919050565b600080600060608486031215611da857600080fd5b833567ffffffffffffffff80821115611dc057600080fd5b611dcc87838801611cea565b94506020860135915080821115611de257600080fd5b50611def86828701611cea565b925050611dfe60408501611d77565b90509250925092565b60008060408385031215611e1a57600080fd5b611e2383611d77565b946020939093013593505050565b600080600060608486031215611e4657600080fd5b611e4f84611d77565b9250611e5d60208501611d77565b9150604084013590509250925092565b600060208284031215611e7f57600080fd5b610a6182611d77565b60ff60f81b881681526000602060e06020840152611ea960e084018a611c7b565b8381036040850152611ebb818a611c7b565b606085018990526001600160a01b038816608086015260a0850187905284810360c08601528551808252602080880193509091019060005b81811015611f0f57835183529284019291840191600101611ef3565b50909c9b505050505050505050505050565b600060208284031215611f3357600080fd5b5035919050565b803560ff81168114611d8e57600080fd5b60008060008060008060c08789031215611f6457600080fd5b611f6d87611d77565b95506020870135945060408701359350611f8960608801611f3a565b92506080870135915060a087013590509295509295509295565b600080600080600080600060e0888a031215611fbe57600080fd5b611fc788611d77565b9650611fd560208901611d77565b95506040880135945060608801359350611ff160808901611f3a565b925060a0880135915060c0880135905092959891949750929550565b6000806040838503121561202057600080fd5b61202983611d77565b915061203760208401611d77565b90509250929050565b6000806040838503121561205357600080fd5b61205c83611d77565b9150602083013563ffffffff8116811461207557600080fd5b809150509250929050565b600181811c9082168061209457607f821691505b6020821081036120b457634e487b7160e01b600052602260045260246000fd5b50919050565b601f82111561056f576000816000526020600020601f850160051c810160208610156120e35750805b601f850160051c820191505b81811015612102578281556001016120ef565b505050505050565b815167ffffffffffffffff81111561212457612124611cd4565b612138816121328454612080565b846120ba565b602080601f83116001811461216d57600084156121555750858301515b600019600386901b1c1916600185901b178555612102565b600085815260208120601f198616915b8281101561219c5788860151825594840194600190910190840161217d565b50858210156121ba5787850151600019600388901b60f8161c191681555b5050505050600190811b01905550565b634e487b7160e01b600052601160045260246000fd5b81810381811115610588576105886121ca565b80820180821115610588576105886121ca565b634e487b7160e01b600052601260045260246000fd5b634e487b7160e01b600052602160045260246000fd5b634e487b7160e01b600052603260045260246000fd5b60008261226557634e487b7160e01b600052601260045260246000fd5b500490565b6001600160d01b0382811682821603908082111561228a5761228a6121ca565b5092915050565b6001600160d01b0381811683821601908082111561228a5761228a6121ca56fea26469706673582212202040feeeb4594fc21079422ad2200c63b5db4492276ca6e36cba9517873241d764736f6c63430008170033",
			"deployedBytecode": "0x608060405234801561001057600080fd5b50600436106101cf5760003560e01c8063715018a6116101045780639ab24eb0116100a2578063d505accf11610071578063d505accf146103f7578063dd62ed3e1461040a578063f1127ed814610443578063f2fde38b1461048257600080fd5b80639ab24eb0146103ab5780639dc29fac146103be578063a9059cbb146103d1578063c3cda520146103e457600080fd5b80638da5cb5b116100de5780638da5cb5b146103605780638e539e8c1461037157806391ddadf41461038457806395d89b41146103a357600080fd5b8063715018a61461032a5780637ecebe001461033257806384b0196e1461034557600080fd5b80633a46b1a811610171578063587cde1e1161014b578063587cde1e146102985780635c19a95c146102dc5780636fcfff45146102ef57806370a082311461031757600080fd5b80633a46b1a81461026a57806340c10f191461027d5780634bf5d7e91461029057600080fd5b806318160ddd116101ad57806318160ddd1461022a57806323b872dd14610240578063313ce567146102535780633644e5151461026257600080fd5b806306fdde03146101d4578063077f224a146101f2578063095ea7b314610207575b600080fd5b6101dc610495565b6040516101e99190611cc1565b60405180910390f35b610205610200366004611d93565b610527565b005b61021a610215366004611e07565b610574565b60405190151581526020016101e9565b61023261058e565b6040519081526020016101e9565b61021a61024e366004611e31565b61059e565b604051601281526020016101e9565b6102326105c2565b610232610278366004611e07565b6105cc565b61020561028b366004611e07565b610652565b6101dc610668565b6102c46102a6366004611e6d565b6001600160a01b039081166000908152600860205260409020541690565b6040516001600160a01b0390911681526020016101e9565b6102056102ea366004611e6d565b6106e0565b6103026102fd366004611e6d565b6106eb565b60405163ffffffff90911681526020016101e9565b610232610325366004611e6d565b6106f6565b610205610714565b610232610340366004611e6d565b610728565b61034d610733565b6040516101e99796959493929190611e88565b600b546001600160a01b03166102c4565b61023261037f366004611f21565b610779565b61038c6107e3565b60405165ffffffffffff90911681526020016101e9565b6101dc6107ed565b6102326103b9366004611e6d565b6107fc565b6102056103cc366004611e07565b61082c565b61021a6103df366004611e07565b61083e565b6102056103f2366004611f4b565b61084c565b610205610405366004611fa3565b610909565b61023261041836600461200d565b6001600160a01b03918216600090815260016020908152604080832093909416825291909152205490565b610456610451366004612040565b610a43565b60408051825165ffffffffffff1681526020928301516001600160d01b031692810192909252016101e9565b610205610490366004611e6d565b610a68565b6060600c80546104a490612080565b80601f01602080910402602001604051908101604052809291908181526020018280546104d090612080565b801561051d5780601f106104f25761010080835404028352916020019161051d565b820191906000526020600020905b81548152906001019060200180831161050057829003601f168201915b5050505050905090565b600c805461053490612080565b151590508061054257508251155b1561054c57600080fd5b600c610558848261210a565b50600d610565838261210a565b5061056f81610aa6565b505050565b600033610582818585610af8565b60019150505b92915050565b600061059960025490565b905090565b6000336105ac858285610b05565b6105b7858585610b83565b506001949350505050565b6000610599610be2565b6000806105d76107e3565b90508065ffffffffffff16831061061757604051637669fc0f60e11b81526004810184905265ffffffffffff821660248201526044015b60405180910390fd5b61064161062384610d0d565b6001600160a01b038616600090815260096020526040902090610d44565b6001600160d01b0316949350505050565b61065a610dfa565b6106648282610e27565b5050565b6060610672610e5d565b65ffffffffffff166106826107e3565b65ffffffffffff16146106a8576040516301bfc1c560e61b815260040160405180910390fd5b5060408051808201909152601d81527f6d6f64653d626c6f636b6e756d6265722666726f6d3d64656661756c74000000602082015290565b336106648183610e68565b600061058882610eda565b6001600160a01b038116600090815260208190526040812054610588565b61071c610dfa565b6107266000610aa6565b565b600061058882610efc565b600060608060008060006060610747610f1a565b61074f610f47565b60408051600080825260208201909252600f60f81b9b939a50919850469750309650945092509050565b6000806107846107e3565b90508065ffffffffffff1683106107bf57604051637669fc0f60e11b81526004810184905265ffffffffffff8216602482015260440161060e565b6107d36107cb84610d0d565b600a90610d44565b6001600160d01b03169392505050565b6000610599610e5d565b6060600d80546104a490612080565b6001600160a01b038116600090815260096020526040812061081d90610f74565b6001600160d01b031692915050565b610834610dfa565b6106648282610fad565b600033610582818585610b83565b8342111561087057604051632341d78760e11b81526004810185905260240161060e565b604080517fe48329057bfd03d55e49b547132e39cffd9c1820ad7b9d4c5307691425d15adf60208201526001600160a01b0388169181019190915260608101869052608081018590526000906108ea906108e29060a00160405160208183030381529060405280519060200120610fe3565b858585611010565b90506108f6818761103e565b6109008188610e68565b50505050505050565b8342111561092d5760405163313c898160e11b81526004810185905260240161060e565b60007f6e71edae12b1b97f4d1f60370fef10105fa2faae0126114a169c64845d6126c988888861097a8c6001600160a01b0316600090815260076020526040902080546001810190915590565b6040805160208101969096526001600160a01b0394851690860152929091166060840152608083015260a082015260c0810186905260e00160405160208183030381529060405280519060200120905060006109d582610fe3565b905060006109e582878787611010565b9050896001600160a01b0316816001600160a01b031614610a2c576040516325c0072360e11b81526001600160a01b0380831660048301528b16602482015260440161060e565b610a378a8a8a610af8565b50505050505050505050565b6040805180820190915260008082526020820152610a618383611091565b9392505050565b610a70610dfa565b6001600160a01b038116610a9a57604051631e4fbdf760e01b81526000600482015260240161060e565b610aa381610aa6565b50565b600b80546001600160a01b038381166001600160a01b0319831681179093556040519116919082907f8be0079c531659141344cd1fd0a4f28419497f9722a3daafe3b4186f6b6457e090600090a35050565b61056f83838360016110c7565b6001600160a01b038381166000908152600160209081526040808320938616835292905220546000198114610b7d5781811015610b6e57604051637dc7a0d960e11b81526001600160a01b0384166004820152602481018290526044810183905260640161060e565b610b7d848484840360006110c7565b50505050565b6001600160a01b038316610bad57604051634b637e8f60e11b81526000600482015260240161060e565b6001600160a01b038216610bd75760405163ec442f0560e01b81526000600482015260240161060e565b61056f83838361119c565b6000306001600160a01b037f000000000000000000000000f11c4f44aa6775d580f751c0956a22105e46d66c16148015610c3b57507f0000000000000000000000000000000000000000000000000000000000aa37dc46145b15610c6557507f039d9429aca6955305269c02d822dd2e456540829fcbd59bf4285af9e4e4918b90565b610599604080517f8b73c3c69bb8fe3d512ecc4cf759cc79239f7b179b0ffacaa9a75d522b39400f60208201527f9c7cae8524849651857e41dcb0fe4f4ab844f18147824e3e8bf5d526700f2c36918101919091527fc89efdaa54c0f20c7adf612882df0950f5a951637e0307cdcb4c672f298b8bc660608201524660808201523060a082015260009060c00160405160208183030381529060405280519060200120905090565b600065ffffffffffff821115610d40576040516306dfcc6560e41b8152603060048201526024810183905260440161060e565b5090565b815460009081816005811115610da3576000610d5f846111a7565b610d6990856121e0565b60008881526020902090915081015465ffffffffffff9081169087161015610d9357809150610da1565b610d9e8160016121f3565b92505b505b6000610db18787858561128f565b90508015610dec57610dd687610dc86001846121e0565b600091825260209091200190565b54600160301b90046001600160d01b0316610def565b60005b979650505050505050565b600b546001600160a01b031633146107265760405163118cdaa760e01b815233600482015260240161060e565b6001600160a01b038216610e515760405163ec442f0560e01b81526000600482015260240161060e565b6106646000838361119c565b600061059943610d0d565b6001600160a01b0382811660008181526008602052604080822080548686166001600160a01b0319821681179092559151919094169392849290917f3134e8a2e6d97e929a7e54011ea5485d7d196dd5f0ba4d4ef95803e8e3fc257f9190a461056f8183610ed5866112f1565b6112fc565b6001600160a01b03811660009081526009602052604081205461058890611468565b6001600160a01b038116600090815260076020526040812054610588565b60606105997f4a42546f6b656e000000000000000000000000000000000000000000000000076005611499565b60606105997f31000000000000000000000000000000000000000000000000000000000000016006611499565b80546000908015610fa457610f8e83610dc86001846121e0565b54600160301b90046001600160d01b0316610a61565b60009392505050565b6001600160a01b038216610fd757604051634b637e8f60e11b81526000600482015260240161060e565b6106648260008361119c565b6000610588610ff0610be2565b8360405161190160f01b8152600281019290925260228201526042902090565b60008060008061102288888888611544565b9250925092506110328282611613565b50909695505050505050565b6001600160a01b038216600090815260076020526040902080546001810190915581811461056f576040516301d4b62360e61b81526001600160a01b03841660048201526024810182905260440161060e565b60408051808201909152600080825260208201526001600160a01b0383166000908152600960205260409020610a6190836116cc565b6001600160a01b0384166110f15760405163e602df0560e01b81526000600482015260240161060e565b6001600160a01b03831661111b57604051634a1406b160e11b81526000600482015260240161060e565b6001600160a01b0380851660009081526001602090815260408083209387168352929052208290558015610b7d57826001600160a01b0316846001600160a01b03167f8c5be1e5ebec7d5bd14f71427d1e84f3dd0314c0f7b2291e5b200ac8c7c3b9258460405161118e91815260200190565b60405180910390a350505050565b61056f83838361173c565b6000816000036111b957506000919050565b600060016111c6846117a2565b901c6001901b905060018184816111df576111df612206565b048201901c905060018184816111f7576111f7612206565b048201901c9050600181848161120f5761120f612206565b048201901c9050600181848161122757611227612206565b048201901c9050600181848161123f5761123f612206565b048201901c9050600181848161125757611257612206565b048201901c9050600181848161126f5761126f612206565b048201901c9050610a618182858161128957611289612206565b04611836565b60005b818310156112e95760006112a6848461184c565b60008781526020902090915065ffffffffffff86169082015465ffffffffffff1611156112d5578092506112e3565b6112e08160016121f3565b93505b50611292565b509392505050565b6000610588826106f6565b816001600160a01b0316836001600160a01b03161415801561131e5750600081115b1561056f576001600160a01b038316156113c6576001600160a01b038316600090815260096020526040812081906113619061186761135c86611873565b6118a7565b6001600160d01b031691506001600160d01b03169150846001600160a01b03167fdec2bacdd2f05b59de34da9b523dff8be42e5e38e818c82fdb0bae774387a72483836040516113bb929190918252602082015260400190565b60405180910390a250505b6001600160a01b0382161561056f576001600160a01b038216600090815260096020526040812081906113ff906118e061135c86611873565b6001600160d01b031691506001600160d01b03169150836001600160a01b03167fdec2bacdd2f05b59de34da9b523dff8be42e5e38e818c82fdb0bae774387a7248383604051611459929190918252602082015260400190565b60405180910390a25050505050565b600063ffffffff821115610d40576040516306dfcc6560e41b8152602060048201526024810183905260440161060e565b606060ff83146114b3576114ac836118ec565b9050610588565b8180546114bf90612080565b80601f01602080910402602001604051908101604052809291908181526020018280546114eb90612080565b80156115385780601f1061150d57610100808354040283529160200191611538565b820191906000526020600020905b81548152906001019060200180831161151b57829003601f168201915b50505050509050610588565b600080807f7fffffffffffffffffffffffffffffff5d576e7357a4501ddfe92f46681b20a084111561157f5750600091506003905082611609565b604080516000808252602082018084528a905260ff891692820192909252606081018790526080810186905260019060a0016020604051602081039080840390855afa1580156115d3573d6000803e3d6000fd5b5050604051601f1901519150506001600160a01b0381166115ff57506000925060019150829050611609565b9250600091508190505b9450945094915050565b60008260038111156116275761162761221c565b03611630575050565b60018260038111156116445761164461221c565b036116625760405163f645eedf60e01b815260040160405180910390fd5b60028260038111156116765761167661221c565b036116975760405163fce698f760e01b81526004810182905260240161060e565b60038260038111156116ab576116ab61221c565b03610664576040516335e2f38360e21b81526004810182905260240161060e565b6040805180820190915260008082526020820152826000018263ffffffff16815481106116fb576116fb612232565b60009182526020918290206040805180820190915291015465ffffffffffff81168252600160301b90046001600160d01b0316918101919091529392505050565b61174783838361192b565b6001600160a01b03831661179757600061175f61058e565b90506001600160d01b038082111561179457604051630e58ae9360e11b8152600481018390526024810182905260440161060e565b50505b61056f838383611a55565b600080608083901c156117b757608092831c92015b604083901c156117c957604092831c92015b602083901c156117db57602092831c92015b601083901c156117ed57601092831c92015b600883901c156117ff57600892831c92015b600483901c1561181157600492831c92015b600283901c1561182357600292831c92015b600183901c156105885760010192915050565b60008183106118455781610a61565b5090919050565b600061185b6002848418612248565b610a61908484166121f3565b6000610a61828461226a565b60006001600160d01b03821115610d40576040516306dfcc6560e41b815260d060048201526024810183905260440161060e565b6000806118d36118b56107e3565b6118cb6118c188610f74565b868863ffffffff16565b879190611acb565b915091505b935093915050565b6000610a618284612291565b606060006118f983611ad9565b604080516020808252818301909252919250600091906020820181803683375050509182525060208101929092525090565b6001600160a01b03831661195657806002600082825461194b91906121f3565b909155506119c89050565b6001600160a01b038316600090815260208190526040902054818110156119a95760405163391434e360e21b81526001600160a01b0385166004820152602481018290526044810183905260640161060e565b6001600160a01b03841660009081526020819052604090209082900390555b6001600160a01b0382166119e457600280548290039055611a03565b6001600160a01b03821660009081526020819052604090208054820190555b816001600160a01b0316836001600160a01b03167fddf252ad1be2c89b69c2b068fc378daa952ba7f163c4a11628f55a4df523b3ef83604051611a4891815260200190565b60405180910390a3505050565b6001600160a01b038316611a7757611a74600a6118e061135c84611873565b50505b6001600160a01b038216611a9957611a96600a61186761135c84611873565b50505b6001600160a01b0383811660009081526008602052604080822054858416835291205461056f929182169116836112fc565b6000806118d3858585611b01565b600060ff8216601f81111561058857604051632cd44ac360e21b815260040160405180910390fd5b825460009081908015611c20576000611b1f87610dc86001856121e0565b60408051808201909152905465ffffffffffff808216808452600160301b9092046001600160d01b031660208401529192509087161015611b7357604051632520601d60e01b815260040160405180910390fd5b805165ffffffffffff808816911603611bbf5784611b9688610dc86001866121e0565b80546001600160d01b0392909216600160301b0265ffffffffffff909216919091179055611c10565b6040805180820190915265ffffffffffff80881682526001600160d01b0380881660208085019182528b54600181018d5560008d81529190912094519151909216600160301b029216919091179101555b6020015192508391506118d89050565b50506040805180820190915265ffffffffffff80851682526001600160d01b0380851660208085019182528854600181018a5560008a815291822095519251909316600160301b0291909316179201919091559050816118d8565b6000815180845260005b81811015611ca157602081850181015186830182015201611c85565b506000602082860101526020601f19601f83011685010191505092915050565b602081526000610a616020830184611c7b565b634e487b7160e01b600052604160045260246000fd5b600082601f830112611cfb57600080fd5b813567ffffffffffffffff80821115611d1657611d16611cd4565b604051601f8301601f19908116603f01168101908282118183101715611d3e57611d3e611cd4565b81604052838152866020858801011115611d5757600080fd5b836020870160208301376000602085830101528094505050505092915050565b80356001600160a01b0381168114611d8e57600080fd5b919050565b600080600060608486031215611da857600080fd5b833567ffffffffffffffff80821115611dc057600080fd5b611dcc87838801611cea565b94506020860135915080821115611de257600080fd5b50611def86828701611cea565b925050611dfe60408501611d77565b90509250925092565b60008060408385031215611e1a57600080fd5b611e2383611d77565b946020939093013593505050565b600080600060608486031215611e4657600080fd5b611e4f84611d77565b9250611e5d60208501611d77565b9150604084013590509250925092565b600060208284031215611e7f57600080fd5b610a6182611d77565b60ff60f81b881681526000602060e06020840152611ea960e084018a611c7b565b8381036040850152611ebb818a611c7b565b606085018990526001600160a01b038816608086015260a0850187905284810360c08601528551808252602080880193509091019060005b81811015611f0f57835183529284019291840191600101611ef3565b50909c9b505050505050505050505050565b600060208284031215611f3357600080fd5b5035919050565b803560ff81168114611d8e57600080fd5b60008060008060008060c08789031215611f6457600080fd5b611f6d87611d77565b95506020870135945060408701359350611f8960608801611f3a565b92506080870135915060a087013590509295509295509295565b600080600080600080600060e0888a031215611fbe57600080fd5b611fc788611d77565b9650611fd560208901611d77565b95506040880135945060608801359350611ff160808901611f3a565b925060a0880135915060c0880135905092959891949750929550565b6000806040838503121561202057600080fd5b61202983611d77565b915061203760208401611d77565b90509250929050565b6000806040838503121561205357600080fd5b61205c83611d77565b9150602083013563ffffffff8116811461207557600080fd5b809150509250929050565b600181811c9082168061209457607f821691505b6020821081036120b457634e487b7160e01b600052602260045260246000fd5b50919050565b601f82111561056f576000816000526020600020601f850160051c810160208610156120e35750805b601f850160051c820191505b81811015612102578281556001016120ef565b505050505050565b815167ffffffffffffffff81111561212457612124611cd4565b612138816121328454612080565b846120ba565b602080601f83116001811461216d57600084156121555750858301515b600019600386901b1c1916600185901b178555612102565b600085815260208120601f198616915b8281101561219c5788860151825594840194600190910190840161217d565b50858210156121ba5787850151600019600388901b60f8161c191681555b5050505050600190811b01905550565b634e487b7160e01b600052601160045260246000fd5b81810381811115610588576105886121ca565b80820180821115610588576105886121ca565b634e487b7160e01b600052601260045260246000fd5b634e487b7160e01b600052602160045260246000fd5b634e487b7160e01b600052603260045260246000fd5b60008261226557634e487b7160e01b600052601260045260246000fd5b500490565b6001600160d01b0382811682821603908082111561228a5761228a6121ca565b5092915050565b6001600160d01b0381811683821601908082111561228a5761228a6121ca56fea26469706673582212202040feeeb4594fc21079422ad2200c63b5db4492276ca6e36cba9517873241d764736f6c63430008170033",
			"devdoc": {
				"kind": "dev",
				"methods": {
					"CLOCK_MODE()": {
						"details": "Machine-readable description of the clock as specified in EIP-6372."
					},
					"DOMAIN_SEPARATOR()": {
						"details": "Returns the domain separator used in the encoding of the signature for {permit}, as defined by {EIP712}."
					},
					"allowance(address,address)": {
						"details": "See {IERC20-allowance}."
					},
					"approve(address,uint256)": {
						"details": "See {IERC20-approve}. NOTE: If `value` is the maximum `uint256`, the allowance is not updated on `transferFrom`. This is semantically equivalent to an infinite approval. Requirements: - `spender` cannot be the zero address."
					},
					"balanceOf(address)": {
						"params": {
							"account": "The account to get the balance of."
						},
						"returns": {
							"_0": "The number of tokens owned by the `account`, as a fixed point number with 18 decimals."
						}
					},
					"burn(address,uint256)": {
						"details": "Can only be called by this contract's owner.",
						"params": {
							"account": "The address to burn tokens from.",
							"amount": "The amount of tokens to burn, as a fixed point number with 18 decimals."
						}
					},
					"checkpoints(address,uint32)": {
						"details": "Get the `pos`-th checkpoint for `account`."
					},
					"clock()": {
						"details": "Clock used for flagging checkpoints. Can be overridden to implement timestamp based checkpoints (and voting), in which case {CLOCK_MODE} should be overridden as well to match."
					},
					"decimals()": {
						"returns": {
							"_0": "The number of decimals."
						}
					},
					"delegate(address)": {
						"details": "Delegates votes from the sender to `delegatee`."
					},
					"delegateBySig(address,uint256,uint256,uint8,bytes32,bytes32)": {
						"details": "Delegates votes from signer to `delegatee`."
					},
					"delegates(address)": {
						"details": "Returns the delegate that `account` has chosen."
					},
					"eip712Domain()": {
						"details": "See {IERC-5267}."
					},
					"getPastTotalSupply(uint256)": {
						"details": "Returns the total supply of votes available at a specific moment in the past. If the `clock()` is configured to use block numbers, this will return the value at the end of the corresponding block. NOTE: This value is the sum of all available votes, which is not necessarily the sum of all delegated votes. Votes that have not been delegated are still part of total supply, even though they would not participate in a vote. Requirements: - `timepoint` must be in the past. If operating using block numbers, the block must be already mined."
					},
					"getPastVotes(address,uint256)": {
						"details": "Returns the amount of votes that `account` had at a specific moment in the past. If the `clock()` is configured to use block numbers, this will return the value at the end of the corresponding block. Requirements: - `timepoint` must be in the past. If operating using block numbers, the block must be already mined."
					},
					"getVotes(address)": {
						"details": "Returns the current amount of votes that `account` has."
					},
					"initialize(string,string,address)": {
						"params": {
							"name_": "The token's name.",
							"owner": "The token contract's owner.",
							"symbol_": "The token's symbol."
						}
					},
					"mint(address,uint256)": {
						"details": "Can only be called by this contract's owner.",
						"params": {
							"account": "The address to mint the new tokens to.",
							"amount": "The amount of tokens to mint, as a fixed point number with 18 decimals."
						}
					},
					"numCheckpoints(address)": {
						"details": "Get number of checkpoints for `account`."
					},
					"owner()": {
						"details": "Returns the address of the current owner."
					},
					"permit(address,address,uint256,uint256,uint8,bytes32,bytes32)": {
						"details": "Sets `value` as the allowance of `spender` over ``owner``'s tokens, given ``owner``'s signed approval. IMPORTANT: The same issues {IERC20-approve} has related to transaction ordering also apply here. Emits an {Approval} event. Requirements: - `spender` cannot be the zero address. - `deadline` must be a timestamp in the future. - `v`, `r` and `s` must be a valid `secp256k1` signature from `owner` over the EIP712-formatted function arguments. - the signature must use ``owner``'s current nonce (see {nonces}). For more information on the signature format, see the https://eips.ethereum.org/EIPS/eip-2612#specification[relevant EIP section]. CAUTION: See Security Considerations above."
					},
					"renounceOwnership()": {
						"details": "Leaves the contract without owner. It will not be possible to call `onlyOwner` functions. Can only be called by the current owner. NOTE: Renouncing ownership will leave the contract without an owner, thereby disabling any functionality that is only available to the owner."
					},
					"totalSupply()": {
						"returns": {
							"_0": "The total supply of this ERC20, as a fixed point number."
						}
					},
					"transfer(address,uint256)": {
						"details": "See {IERC20-transfer}. Requirements: - `to` cannot be the zero address. - the caller must have a balance of at least `value`."
					},
					"transferFrom(address,address,uint256)": {
						"details": "See {IERC20-transferFrom}. Emits an {Approval} event indicating the updated allowance. This is not required by the EIP. See the note at the beginning of {ERC20}. NOTE: Does not update the allowance if the current allowance is the maximum `uint256`. Requirements: - `from` and `to` cannot be the zero address. - `from` must have a balance of at least `value`. - the caller must have allowance for ``from``'s tokens of at least `value`."
					},
					"transferOwnership(address)": {
						"details": "Transfers ownership of the contract to a new account (`newOwner`). Can only be called by the current owner."
					}
				},
				"version": 1
			},
			"userdoc": {
				"kind": "user",
				"methods": {
					"balanceOf(address)": {
						"notice": "The balance of the given address."
					},
					"burn(address,uint256)": {
						"notice": "Burn some outstanding tokens."
					},
					"decimals()": {
						"notice": "The number of decimals used for this token's fixed point accounting."
					},
					"initialize(string,string,address)": {
						"notice": "Initializes the token."
					},
					"mint(address,uint256)": {
						"notice": "Mints more of this token."
					},
					"name()": {
						"notice": "The token's name."
					},
					"nonces(address)": {
						"notice": "Required override."
					},
					"symbol()": {
						"notice": "The token's symbol."
					},
					"totalSupply()": {
						"notice": "The total supply of this ERC20 i.e. the total number of tokens in existence."
					}
				},
				"version": 1
			},
			"gitCommit": "810aab8b9c3a0626e80bb9e6b819daaf6dcfee82",
			"sourceName": "src/JBERC20.sol",
			"chainId": "11155420",
			"linkReferences": {},
			"deployedLinkReferences": {}
		},
		{
			"_format": "sphinx-sol-ct-artifact-1",
			"merkleRoot": "0xeb3166bda3fcd69ca05fdf479239793e480a434f3066bc23b43dcbae1f55c908",
			"contractName": "JBERC20",
			"address": "0xaFFAC6609245EB93123a4CEcFAf6d78A249bF127",
			"abi": [
				{
					"type": "constructor",
					"inputs": [],
					"stateMutability": "nonpayable"
				},
				{
					"type": "function",
					"name": "CLOCK_MODE",
					"inputs": [],
					"outputs": [
						{
							"name": "",
							"type": "string",
							"internalType": "string"
						}
					],
					"stateMutability": "view"
				},
				{
					"type": "function",
					"name": "DOMAIN_SEPARATOR",
					"inputs": [],
					"outputs": [
						{
							"name": "",
							"type": "bytes32",
							"internalType": "bytes32"
						}
					],
					"stateMutability": "view"
				},
				{
					"type": "function",
					"name": "allowance",
					"inputs": [
						{
							"name": "owner",
							"type": "address",
							"internalType": "address"
						},
						{
							"name": "spender",
							"type": "address",
							"internalType": "address"
						}
					],
					"outputs": [
						{
							"name": "",
							"type": "uint256",
							"internalType": "uint256"
						}
					],
					"stateMutability": "view"
				},
				{
					"type": "function",
					"name": "approve",
					"inputs": [
						{
							"name": "spender",
							"type": "address",
							"internalType": "address"
						},
						{
							"name": "value",
							"type": "uint256",
							"internalType": "uint256"
						}
					],
					"outputs": [
						{
							"name": "",
							"type": "bool",
							"internalType": "bool"
						}
					],
					"stateMutability": "nonpayable"
				},
				{
					"type": "function",
					"name": "balanceOf",
					"inputs": [
						{
							"name": "account",
							"type": "address",
							"internalType": "address"
						}
					],
					"outputs": [
						{
							"name": "",
							"type": "uint256",
							"internalType": "uint256"
						}
					],
					"stateMutability": "view"
				},
				{
					"type": "function",
					"name": "burn",
					"inputs": [
						{
							"name": "account",
							"type": "address",
							"internalType": "address"
						},
						{
							"name": "amount",
							"type": "uint256",
							"internalType": "uint256"
						}
					],
					"outputs": [],
					"stateMutability": "nonpayable"
				},
				{
					"type": "function",
					"name": "checkpoints",
					"inputs": [
						{
							"name": "account",
							"type": "address",
							"internalType": "address"
						},
						{
							"name": "pos",
							"type": "uint32",
							"internalType": "uint32"
						}
					],
					"outputs": [
						{
							"name": "",
							"type": "tuple",
							"internalType": "struct Checkpoints.Checkpoint208",
							"components": [
								{
									"name": "_key",
									"type": "uint48",
									"internalType": "uint48"
								},
								{
									"name": "_value",
									"type": "uint208",
									"internalType": "uint208"
								}
							]
						}
					],
					"stateMutability": "view"
				},
				{
					"type": "function",
					"name": "clock",
					"inputs": [],
					"outputs": [
						{
							"name": "",
							"type": "uint48",
							"internalType": "uint48"
						}
					],
					"stateMutability": "view"
				},
				{
					"type": "function",
					"name": "decimals",
					"inputs": [],
					"outputs": [
						{
							"name": "",
							"type": "uint8",
							"internalType": "uint8"
						}
					],
					"stateMutability": "view"
				},
				{
					"type": "function",
					"name": "delegate",
					"inputs": [
						{
							"name": "delegatee",
							"type": "address",
							"internalType": "address"
						}
					],
					"outputs": [],
					"stateMutability": "nonpayable"
				},
				{
					"type": "function",
					"name": "delegateBySig",
					"inputs": [
						{
							"name": "delegatee",
							"type": "address",
							"internalType": "address"
						},
						{
							"name": "nonce",
							"type": "uint256",
							"internalType": "uint256"
						},
						{
							"name": "expiry",
							"type": "uint256",
							"internalType": "uint256"
						},
						{
							"name": "v",
							"type": "uint8",
							"internalType": "uint8"
						},
						{
							"name": "r",
							"type": "bytes32",
							"internalType": "bytes32"
						},
						{
							"name": "s",
							"type": "bytes32",
							"internalType": "bytes32"
						}
					],
					"outputs": [],
					"stateMutability": "nonpayable"
				},
				{
					"type": "function",
					"name": "delegates",
					"inputs": [
						{
							"name": "account",
							"type": "address",
							"internalType": "address"
						}
					],
					"outputs": [
						{
							"name": "",
							"type": "address",
							"internalType": "address"
						}
					],
					"stateMutability": "view"
				},
				{
					"type": "function",
					"name": "eip712Domain",
					"inputs": [],
					"outputs": [
						{
							"name": "fields",
							"type": "bytes1",
							"internalType": "bytes1"
						},
						{
							"name": "name",
							"type": "string",
							"internalType": "string"
						},
						{
							"name": "version",
							"type": "string",
							"internalType": "string"
						},
						{
							"name": "chainId",
							"type": "uint256",
							"internalType": "uint256"
						},
						{
							"name": "verifyingContract",
							"type": "address",
							"internalType": "address"
						},
						{
							"name": "salt",
							"type": "bytes32",
							"internalType": "bytes32"
						},
						{
							"name": "extensions",
							"type": "uint256[]",
							"internalType": "uint256[]"
						}
					],
					"stateMutability": "view"
				},
				{
					"type": "function",
					"name": "getPastTotalSupply",
					"inputs": [
						{
							"name": "timepoint",
							"type": "uint256",
							"internalType": "uint256"
						}
					],
					"outputs": [
						{
							"name": "",
							"type": "uint256",
							"internalType": "uint256"
						}
					],
					"stateMutability": "view"
				},
				{
					"type": "function",
					"name": "getPastVotes",
					"inputs": [
						{
							"name": "account",
							"type": "address",
							"internalType": "address"
						},
						{
							"name": "timepoint",
							"type": "uint256",
							"internalType": "uint256"
						}
					],
					"outputs": [
						{
							"name": "",
							"type": "uint256",
							"internalType": "uint256"
						}
					],
					"stateMutability": "view"
				},
				{
					"type": "function",
					"name": "getVotes",
					"inputs": [
						{
							"name": "account",
							"type": "address",
							"internalType": "address"
						}
					],
					"outputs": [
						{
							"name": "",
							"type": "uint256",
							"internalType": "uint256"
						}
					],
					"stateMutability": "view"
				},
				{
					"type": "function",
					"name": "initialize",
					"inputs": [
						{
							"name": "name_",
							"type": "string",
							"internalType": "string"
						},
						{
							"name": "symbol_",
							"type": "string",
							"internalType": "string"
						},
						{
							"name": "owner",
							"type": "address",
							"internalType": "address"
						}
					],
					"outputs": [],
					"stateMutability": "nonpayable"
				},
				{
					"type": "function",
					"name": "mint",
					"inputs": [
						{
							"name": "account",
							"type": "address",
							"internalType": "address"
						},
						{
							"name": "amount",
							"type": "uint256",
							"internalType": "uint256"
						}
					],
					"outputs": [],
					"stateMutability": "nonpayable"
				},
				{
					"type": "function",
					"name": "name",
					"inputs": [],
					"outputs": [
						{
							"name": "",
							"type": "string",
							"internalType": "string"
						}
					],
					"stateMutability": "view"
				},
				{
					"type": "function",
					"name": "nonces",
					"inputs": [
						{
							"name": "owner",
							"type": "address",
							"internalType": "address"
						}
					],
					"outputs": [
						{
							"name": "",
							"type": "uint256",
							"internalType": "uint256"
						}
					],
					"stateMutability": "view"
				},
				{
					"type": "function",
					"name": "numCheckpoints",
					"inputs": [
						{
							"name": "account",
							"type": "address",
							"internalType": "address"
						}
					],
					"outputs": [
						{
							"name": "",
							"type": "uint32",
							"internalType": "uint32"
						}
					],
					"stateMutability": "view"
				},
				{
					"type": "function",
					"name": "owner",
					"inputs": [],
					"outputs": [
						{
							"name": "",
							"type": "address",
							"internalType": "address"
						}
					],
					"stateMutability": "view"
				},
				{
					"type": "function",
					"name": "permit",
					"inputs": [
						{
							"name": "owner",
							"type": "address",
							"internalType": "address"
						},
						{
							"name": "spender",
							"type": "address",
							"internalType": "address"
						},
						{
							"name": "value",
							"type": "uint256",
							"internalType": "uint256"
						},
						{
							"name": "deadline",
							"type": "uint256",
							"internalType": "uint256"
						},
						{
							"name": "v",
							"type": "uint8",
							"internalType": "uint8"
						},
						{
							"name": "r",
							"type": "bytes32",
							"internalType": "bytes32"
						},
						{
							"name": "s",
							"type": "bytes32",
							"internalType": "bytes32"
						}
					],
					"outputs": [],
					"stateMutability": "nonpayable"
				},
				{
					"type": "function",
					"name": "renounceOwnership",
					"inputs": [],
					"outputs": [],
					"stateMutability": "nonpayable"
				},
				{
					"type": "function",
					"name": "symbol",
					"inputs": [],
					"outputs": [
						{
							"name": "",
							"type": "string",
							"internalType": "string"
						}
					],
					"stateMutability": "view"
				},
				{
					"type": "function",
					"name": "totalSupply",
					"inputs": [],
					"outputs": [
						{
							"name": "",
							"type": "uint256",
							"internalType": "uint256"
						}
					],
					"stateMutability": "view"
				},
				{
					"type": "function",
					"name": "transfer",
					"inputs": [
						{
							"name": "to",
							"type": "address",
							"internalType": "address"
						},
						{
							"name": "value",
							"type": "uint256",
							"internalType": "uint256"
						}
					],
					"outputs": [
						{
							"name": "",
							"type": "bool",
							"internalType": "bool"
						}
					],
					"stateMutability": "nonpayable"
				},
				{
					"type": "function",
					"name": "transferFrom",
					"inputs": [
						{
							"name": "from",
							"type": "address",
							"internalType": "address"
						},
						{
							"name": "to",
							"type": "address",
							"internalType": "address"
						},
						{
							"name": "value",
							"type": "uint256",
							"internalType": "uint256"
						}
					],
					"outputs": [
						{
							"name": "",
							"type": "bool",
							"internalType": "bool"
						}
					],
					"stateMutability": "nonpayable"
				},
				{
					"type": "function",
					"name": "transferOwnership",
					"inputs": [
						{
							"name": "newOwner",
							"type": "address",
							"internalType": "address"
						}
					],
					"outputs": [],
					"stateMutability": "nonpayable"
				},
				{
					"type": "event",
					"name": "Approval",
					"inputs": [
						{
							"name": "owner",
							"type": "address",
							"indexed": true,
							"internalType": "address"
						},
						{
							"name": "spender",
							"type": "address",
							"indexed": true,
							"internalType": "address"
						},
						{
							"name": "value",
							"type": "uint256",
							"indexed": false,
							"internalType": "uint256"
						}
					],
					"anonymous": false
				},
				{
					"type": "event",
					"name": "DelegateChanged",
					"inputs": [
						{
							"name": "delegator",
							"type": "address",
							"indexed": true,
							"internalType": "address"
						},
						{
							"name": "fromDelegate",
							"type": "address",
							"indexed": true,
							"internalType": "address"
						},
						{
							"name": "toDelegate",
							"type": "address",
							"indexed": true,
							"internalType": "address"
						}
					],
					"anonymous": false
				},
				{
					"type": "event",
					"name": "DelegateVotesChanged",
					"inputs": [
						{
							"name": "delegate",
							"type": "address",
							"indexed": true,
							"internalType": "address"
						},
						{
							"name": "previousVotes",
							"type": "uint256",
							"indexed": false,
							"internalType": "uint256"
						},
						{
							"name": "newVotes",
							"type": "uint256",
							"indexed": false,
							"internalType": "uint256"
						}
					],
					"anonymous": false
				},
				{
					"type": "event",
					"name": "EIP712DomainChanged",
					"inputs": [],
					"anonymous": false
				},
				{
					"type": "event",
					"name": "OwnershipTransferred",
					"inputs": [
						{
							"name": "previousOwner",
							"type": "address",
							"indexed": true,
							"internalType": "address"
						},
						{
							"name": "newOwner",
							"type": "address",
							"indexed": true,
							"internalType": "address"
						}
					],
					"anonymous": false
				},
				{
					"type": "event",
					"name": "Transfer",
					"inputs": [
						{
							"name": "from",
							"type": "address",
							"indexed": true,
							"internalType": "address"
						},
						{
							"name": "to",
							"type": "address",
							"indexed": true,
							"internalType": "address"
						},
						{
							"name": "value",
							"type": "uint256",
							"indexed": false,
							"internalType": "uint256"
						}
					],
					"anonymous": false
				},
				{
					"type": "error",
					"name": "CheckpointUnorderedInsertion",
					"inputs": []
				},
				{
					"type": "error",
					"name": "ECDSAInvalidSignature",
					"inputs": []
				},
				{
					"type": "error",
					"name": "ECDSAInvalidSignatureLength",
					"inputs": [
						{
							"name": "length",
							"type": "uint256",
							"internalType": "uint256"
						}
					]
				},
				{
					"type": "error",
					"name": "ECDSAInvalidSignatureS",
					"inputs": [
						{
							"name": "s",
							"type": "bytes32",
							"internalType": "bytes32"
						}
					]
				},
				{
					"type": "error",
					"name": "ERC20ExceededSafeSupply",
					"inputs": [
						{
							"name": "increasedSupply",
							"type": "uint256",
							"internalType": "uint256"
						},
						{
							"name": "cap",
							"type": "uint256",
							"internalType": "uint256"
						}
					]
				},
				{
					"type": "error",
					"name": "ERC20InsufficientAllowance",
					"inputs": [
						{
							"name": "spender",
							"type": "address",
							"internalType": "address"
						},
						{
							"name": "allowance",
							"type": "uint256",
							"internalType": "uint256"
						},
						{
							"name": "needed",
							"type": "uint256",
							"internalType": "uint256"
						}
					]
				},
				{
					"type": "error",
					"name": "ERC20InsufficientBalance",
					"inputs": [
						{
							"name": "sender",
							"type": "address",
							"internalType": "address"
						},
						{
							"name": "balance",
							"type": "uint256",
							"internalType": "uint256"
						},
						{
							"name": "needed",
							"type": "uint256",
							"internalType": "uint256"
						}
					]
				},
				{
					"type": "error",
					"name": "ERC20InvalidApprover",
					"inputs": [
						{
							"name": "approver",
							"type": "address",
							"internalType": "address"
						}
					]
				},
				{
					"type": "error",
					"name": "ERC20InvalidReceiver",
					"inputs": [
						{
							"name": "receiver",
							"type": "address",
							"internalType": "address"
						}
					]
				},
				{
					"type": "error",
					"name": "ERC20InvalidSender",
					"inputs": [
						{
							"name": "sender",
							"type": "address",
							"internalType": "address"
						}
					]
				},
				{
					"type": "error",
					"name": "ERC20InvalidSpender",
					"inputs": [
						{
							"name": "spender",
							"type": "address",
							"internalType": "address"
						}
					]
				},
				{
					"type": "error",
					"name": "ERC2612ExpiredSignature",
					"inputs": [
						{
							"name": "deadline",
							"type": "uint256",
							"internalType": "uint256"
						}
					]
				},
				{
					"type": "error",
					"name": "ERC2612InvalidSigner",
					"inputs": [
						{
							"name": "signer",
							"type": "address",
							"internalType": "address"
						},
						{
							"name": "owner",
							"type": "address",
							"internalType": "address"
						}
					]
				},
				{
					"type": "error",
					"name": "ERC5805FutureLookup",
					"inputs": [
						{
							"name": "timepoint",
							"type": "uint256",
							"internalType": "uint256"
						},
						{
							"name": "clock",
							"type": "uint48",
							"internalType": "uint48"
						}
					]
				},
				{
					"type": "error",
					"name": "ERC6372InconsistentClock",
					"inputs": []
				},
				{
					"type": "error",
					"name": "InvalidAccountNonce",
					"inputs": [
						{
							"name": "account",
							"type": "address",
							"internalType": "address"
						},
						{
							"name": "currentNonce",
							"type": "uint256",
							"internalType": "uint256"
						}
					]
				},
				{
					"type": "error",
					"name": "InvalidShortString",
					"inputs": []
				},
				{
					"type": "error",
					"name": "OwnableInvalidOwner",
					"inputs": [
						{
							"name": "owner",
							"type": "address",
							"internalType": "address"
						}
					]
				},
				{
					"type": "error",
					"name": "OwnableUnauthorizedAccount",
					"inputs": [
						{
							"name": "account",
							"type": "address",
							"internalType": "address"
						}
					]
				},
				{
					"type": "error",
					"name": "SafeCastOverflowedUintDowncast",
					"inputs": [
						{
							"name": "bits",
							"type": "uint8",
							"internalType": "uint8"
						},
						{
							"name": "value",
							"type": "uint256",
							"internalType": "uint256"
						}
					]
				},
				{
					"type": "error",
					"name": "StringTooLong",
					"inputs": [
						{
							"name": "str",
							"type": "string",
							"internalType": "string"
						}
					]
				},
				{
					"type": "error",
					"name": "VotesExpiredSignature",
					"inputs": [
						{
							"name": "expiry",
							"type": "uint256",
							"internalType": "uint256"
						}
					]
				}
			],
			"solcInputHash": "ca7cc2b8e77e7f12f966f059a5ca4cba",
			"receipt": {
				"blockHash": "0x957d33848c51e9d17cd5a4f27dc1d2661c348cbd2c98f985a43b9c5397a2a481",
				"blockNumber": 10495912,
				"contractAddress": null,
				"cumulativeGasUsed": "11070428",
				"from": "0xC034550B542b83BA1De312b21d1C94a9a52B1595",
				"gasPrice": "1000252",
				"gasUsed": "11026553",
				"hash": "0xbc0142b5f7f7d89f3f7200de714bba291922982c05e62668899cd59a9dfce750",
				"index": 1,
				"logs": [
					{
						"address": "0xB5E96127D417b1B3ef8438496a38A143167209c7",
						"blockHash": "0x957d33848c51e9d17cd5a4f27dc1d2661c348cbd2c98f985a43b9c5397a2a481",
						"blockNumber": 10495912,
						"data": "0x0000000000000000000000000000000000000000000000000000000000000000",
						"index": 0,
						"topics": [
							"0x572f161235911da04685a68c06adf558fc7e4a36909dca394650e0adc19cc93d",
							"0x000000000000000000000000c034550b542b83ba1de312b21d1c94a9a52b1595",
							"0x000000000000000000000000ef1be3c049809cace5bc203bbe4ec1ab284bf75c",
							"0x2132e14b549040da8e50a8dded85fde682c71cafa6e8a85bbf1717ffac85b812"
						],
						"transactionHash": "0xbc0142b5f7f7d89f3f7200de714bba291922982c05e62668899cd59a9dfce750",
						"transactionIndex": 1
					},
					{
						"address": "0x1081B5AA9D9d4862A3dA4d469433FB36Ed80FA2A",
						"blockHash": "0x957d33848c51e9d17cd5a4f27dc1d2661c348cbd2c98f985a43b9c5397a2a481",
						"blockNumber": 10495912,
						"data": "0x000000000000000000000000711eda44f3d42f3d255846b5ee36cf70fd912e50",
						"index": 1,
						"topics": [
							"0x4db17dd5e4732fb6da34a148104a592783ca119a1e7bb8829eba6cbadef0b511"
						],
						"transactionHash": "0xbc0142b5f7f7d89f3f7200de714bba291922982c05e62668899cd59a9dfce750",
						"transactionIndex": 1
					},
					{
						"address": "0x1081B5AA9D9d4862A3dA4d469433FB36Ed80FA2A",
						"blockHash": "0x957d33848c51e9d17cd5a4f27dc1d2661c348cbd2c98f985a43b9c5397a2a481",
						"blockNumber": 10495912,
						"data": "0x",
						"index": 2,
						"topics": [
							"0x6895c13664aa4f67288b25d7a21d7aaa34916e355fb9b6fae0a139a9085becb8",
							"0x000000000000000000000000ef1be3c049809cace5bc203bbe4ec1ab284bf75c"
						],
						"transactionHash": "0xbc0142b5f7f7d89f3f7200de714bba291922982c05e62668899cd59a9dfce750",
						"transactionIndex": 1
					},
					{
						"address": "0xEf1Be3C049809caCe5Bc203BBe4Ec1Ab284bF75c",
						"blockHash": "0x957d33848c51e9d17cd5a4f27dc1d2661c348cbd2c98f985a43b9c5397a2a481",
						"blockNumber": 10495912,
						"data": "0x0000000000000000000000000000000000000000000000000000000000000001",
						"index": 3,
						"topics": [
							"0xa65fb05c5808f5f389d72edeaf719ce38f4cc55c1f69ca3cbfb31c21501caa07",
							"0xeb3166bda3fcd69ca05fdf479239793e480a434f3066bc23b43dcbae1f55c908"
						],
						"transactionHash": "0xbc0142b5f7f7d89f3f7200de714bba291922982c05e62668899cd59a9dfce750",
						"transactionIndex": 1
					},
					{
						"address": "0xfa679f5ecdd8bE404c1FbAa7f29aEB2b12F5B662",
						"blockHash": "0x957d33848c51e9d17cd5a4f27dc1d2661c348cbd2c98f985a43b9c5397a2a481",
						"blockNumber": 10495912,
						"data": "0x",
						"index": 4,
						"topics": [
							"0x8be0079c531659141344cd1fd0a4f28419497f9722a3daafe3b4186f6b6457e0",
							"0x0000000000000000000000000000000000000000000000000000000000000000",
							"0x0000000000000000000000001081b5aa9d9d4862a3da4d469433fb36ed80fa2a"
						],
						"transactionHash": "0xbc0142b5f7f7d89f3f7200de714bba291922982c05e62668899cd59a9dfce750",
						"transactionIndex": 1
					},
					{
						"address": "0xfa679f5ecdd8bE404c1FbAa7f29aEB2b12F5B662",
						"blockHash": "0x957d33848c51e9d17cd5a4f27dc1d2661c348cbd2c98f985a43b9c5397a2a481",
						"blockNumber": 10495912,
						"data": "0x",
						"index": 5,
						"topics": [
							"0xddf252ad1be2c89b69c2b068fc378daa952ba7f163c4a11628f55a4df523b3ef",
							"0x0000000000000000000000000000000000000000000000000000000000000000",
							"0x0000000000000000000000001081b5aa9d9d4862a3da4d469433fb36ed80fa2a",
							"0x0000000000000000000000000000000000000000000000000000000000000001"
						],
						"transactionHash": "0xbc0142b5f7f7d89f3f7200de714bba291922982c05e62668899cd59a9dfce750",
						"transactionIndex": 1
					},
					{
						"address": "0xfa679f5ecdd8bE404c1FbAa7f29aEB2b12F5B662",
						"blockHash": "0x957d33848c51e9d17cd5a4f27dc1d2661c348cbd2c98f985a43b9c5397a2a481",
						"blockNumber": 10495912,
						"data": "0x0000000000000000000000001081b5aa9d9d4862a3da4d469433fb36ed80fa2a",
						"index": 6,
						"topics": [
							"0x365b3162cd780731fc55a794b59494d472bc2af701007f581843a70673814698",
							"0x0000000000000000000000000000000000000000000000000000000000000001",
							"0x0000000000000000000000001081b5aa9d9d4862a3da4d469433fb36ed80fa2a"
						],
						"transactionHash": "0xbc0142b5f7f7d89f3f7200de714bba291922982c05e62668899cd59a9dfce750",
						"transactionIndex": 1
					},
					{
						"address": "0x1081B5AA9D9d4862A3dA4d469433FB36Ed80FA2A",
						"blockHash": "0x957d33848c51e9d17cd5a4f27dc1d2661c348cbd2c98f985a43b9c5397a2a481",
						"blockNumber": 10495912,
						"data": "0x000000000000000000000000fa679f5ecdd8be404c1fbaa7f29aeb2b12f5b662",
						"index": 7,
						"topics": [
							"0x4db17dd5e4732fb6da34a148104a592783ca119a1e7bb8829eba6cbadef0b511"
						],
						"transactionHash": "0xbc0142b5f7f7d89f3f7200de714bba291922982c05e62668899cd59a9dfce750",
						"transactionIndex": 1
					},
					{
						"address": "0x1081B5AA9D9d4862A3dA4d469433FB36Ed80FA2A",
						"blockHash": "0x957d33848c51e9d17cd5a4f27dc1d2661c348cbd2c98f985a43b9c5397a2a481",
						"blockNumber": 10495912,
						"data": "0x",
						"index": 8,
						"topics": [
							"0x6895c13664aa4f67288b25d7a21d7aaa34916e355fb9b6fae0a139a9085becb8",
							"0x000000000000000000000000ef1be3c049809cace5bc203bbe4ec1ab284bf75c"
						],
						"transactionHash": "0xbc0142b5f7f7d89f3f7200de714bba291922982c05e62668899cd59a9dfce750",
						"transactionIndex": 1
					},
					{
						"address": "0xEf1Be3C049809caCe5Bc203BBe4Ec1Ab284bF75c",
						"blockHash": "0x957d33848c51e9d17cd5a4f27dc1d2661c348cbd2c98f985a43b9c5397a2a481",
						"blockNumber": 10495912,
						"data": "0x0000000000000000000000000000000000000000000000000000000000000002",
						"index": 9,
						"topics": [
							"0xa65fb05c5808f5f389d72edeaf719ce38f4cc55c1f69ca3cbfb31c21501caa07",
							"0xeb3166bda3fcd69ca05fdf479239793e480a434f3066bc23b43dcbae1f55c908"
						],
						"transactionHash": "0xbc0142b5f7f7d89f3f7200de714bba291922982c05e62668899cd59a9dfce750",
						"transactionIndex": 1
					},
					{
						"address": "0x44d360C8c4105f180e07668bd3374c7A6F812FAF",
						"blockHash": "0x957d33848c51e9d17cd5a4f27dc1d2661c348cbd2c98f985a43b9c5397a2a481",
						"blockNumber": 10495912,
						"data": "0x",
						"index": 10,
						"topics": [
							"0x8be0079c531659141344cd1fd0a4f28419497f9722a3daafe3b4186f6b6457e0",
							"0x0000000000000000000000000000000000000000000000000000000000000000",
							"0x0000000000000000000000001081b5aa9d9d4862a3da4d469433fb36ed80fa2a"
						],
						"transactionHash": "0xbc0142b5f7f7d89f3f7200de714bba291922982c05e62668899cd59a9dfce750",
						"transactionIndex": 1
					},
					{
						"address": "0x1081B5AA9D9d4862A3dA4d469433FB36Ed80FA2A",
						"blockHash": "0x957d33848c51e9d17cd5a4f27dc1d2661c348cbd2c98f985a43b9c5397a2a481",
						"blockNumber": 10495912,
						"data": "0x00000000000000000000000044d360c8c4105f180e07668bd3374c7a6f812faf",
						"index": 11,
						"topics": [
							"0x4db17dd5e4732fb6da34a148104a592783ca119a1e7bb8829eba6cbadef0b511"
						],
						"transactionHash": "0xbc0142b5f7f7d89f3f7200de714bba291922982c05e62668899cd59a9dfce750",
						"transactionIndex": 1
					},
					{
						"address": "0x1081B5AA9D9d4862A3dA4d469433FB36Ed80FA2A",
						"blockHash": "0x957d33848c51e9d17cd5a4f27dc1d2661c348cbd2c98f985a43b9c5397a2a481",
						"blockNumber": 10495912,
						"data": "0x",
						"index": 12,
						"topics": [
							"0x6895c13664aa4f67288b25d7a21d7aaa34916e355fb9b6fae0a139a9085becb8",
							"0x000000000000000000000000ef1be3c049809cace5bc203bbe4ec1ab284bf75c"
						],
						"transactionHash": "0xbc0142b5f7f7d89f3f7200de714bba291922982c05e62668899cd59a9dfce750",
						"transactionIndex": 1
					},
					{
						"address": "0xEf1Be3C049809caCe5Bc203BBe4Ec1Ab284bF75c",
						"blockHash": "0x957d33848c51e9d17cd5a4f27dc1d2661c348cbd2c98f985a43b9c5397a2a481",
						"blockNumber": 10495912,
						"data": "0x0000000000000000000000000000000000000000000000000000000000000003",
						"index": 13,
						"topics": [
							"0xa65fb05c5808f5f389d72edeaf719ce38f4cc55c1f69ca3cbfb31c21501caa07",
							"0xeb3166bda3fcd69ca05fdf479239793e480a434f3066bc23b43dcbae1f55c908"
						],
						"transactionHash": "0xbc0142b5f7f7d89f3f7200de714bba291922982c05e62668899cd59a9dfce750",
						"transactionIndex": 1
					},
					{
						"address": "0x1081B5AA9D9d4862A3dA4d469433FB36Ed80FA2A",
						"blockHash": "0x957d33848c51e9d17cd5a4f27dc1d2661c348cbd2c98f985a43b9c5397a2a481",
						"blockNumber": 10495912,
						"data": "0x00000000000000000000000026cb60fc2323d1a4309f35497e5a881fe1f3d2ac",
						"index": 14,
						"topics": [
							"0x4db17dd5e4732fb6da34a148104a592783ca119a1e7bb8829eba6cbadef0b511"
						],
						"transactionHash": "0xbc0142b5f7f7d89f3f7200de714bba291922982c05e62668899cd59a9dfce750",
						"transactionIndex": 1
					},
					{
						"address": "0x1081B5AA9D9d4862A3dA4d469433FB36Ed80FA2A",
						"blockHash": "0x957d33848c51e9d17cd5a4f27dc1d2661c348cbd2c98f985a43b9c5397a2a481",
						"blockNumber": 10495912,
						"data": "0x",
						"index": 15,
						"topics": [
							"0x6895c13664aa4f67288b25d7a21d7aaa34916e355fb9b6fae0a139a9085becb8",
							"0x000000000000000000000000ef1be3c049809cace5bc203bbe4ec1ab284bf75c"
						],
						"transactionHash": "0xbc0142b5f7f7d89f3f7200de714bba291922982c05e62668899cd59a9dfce750",
						"transactionIndex": 1
					},
					{
						"address": "0xEf1Be3C049809caCe5Bc203BBe4Ec1Ab284bF75c",
						"blockHash": "0x957d33848c51e9d17cd5a4f27dc1d2661c348cbd2c98f985a43b9c5397a2a481",
						"blockNumber": 10495912,
						"data": "0x0000000000000000000000000000000000000000000000000000000000000004",
						"index": 16,
						"topics": [
							"0xa65fb05c5808f5f389d72edeaf719ce38f4cc55c1f69ca3cbfb31c21501caa07",
							"0xeb3166bda3fcd69ca05fdf479239793e480a434f3066bc23b43dcbae1f55c908"
						],
						"transactionHash": "0xbc0142b5f7f7d89f3f7200de714bba291922982c05e62668899cd59a9dfce750",
						"transactionIndex": 1
					},
					{
						"address": "0x1081B5AA9D9d4862A3dA4d469433FB36Ed80FA2A",
						"blockHash": "0x957d33848c51e9d17cd5a4f27dc1d2661c348cbd2c98f985a43b9c5397a2a481",
						"blockNumber": 10495912,
						"data": "0x0000000000000000000000009c10f158d2cecdfb5aadd5da40abbf2c574e4323",
						"index": 17,
						"topics": [
							"0x4db17dd5e4732fb6da34a148104a592783ca119a1e7bb8829eba6cbadef0b511"
						],
						"transactionHash": "0xbc0142b5f7f7d89f3f7200de714bba291922982c05e62668899cd59a9dfce750",
						"transactionIndex": 1
					},
					{
						"address": "0x1081B5AA9D9d4862A3dA4d469433FB36Ed80FA2A",
						"blockHash": "0x957d33848c51e9d17cd5a4f27dc1d2661c348cbd2c98f985a43b9c5397a2a481",
						"blockNumber": 10495912,
						"data": "0x",
						"index": 18,
						"topics": [
							"0x6895c13664aa4f67288b25d7a21d7aaa34916e355fb9b6fae0a139a9085becb8",
							"0x000000000000000000000000ef1be3c049809cace5bc203bbe4ec1ab284bf75c"
						],
						"transactionHash": "0xbc0142b5f7f7d89f3f7200de714bba291922982c05e62668899cd59a9dfce750",
						"transactionIndex": 1
					},
					{
						"address": "0xEf1Be3C049809caCe5Bc203BBe4Ec1Ab284bF75c",
						"blockHash": "0x957d33848c51e9d17cd5a4f27dc1d2661c348cbd2c98f985a43b9c5397a2a481",
						"blockNumber": 10495912,
						"data": "0x0000000000000000000000000000000000000000000000000000000000000005",
						"index": 19,
						"topics": [
							"0xa65fb05c5808f5f389d72edeaf719ce38f4cc55c1f69ca3cbfb31c21501caa07",
							"0xeb3166bda3fcd69ca05fdf479239793e480a434f3066bc23b43dcbae1f55c908"
						],
						"transactionHash": "0xbc0142b5f7f7d89f3f7200de714bba291922982c05e62668899cd59a9dfce750",
						"transactionIndex": 1
					},
					{
						"address": "0xaFFAC6609245EB93123a4CEcFAf6d78A249bF127",
						"blockHash": "0x957d33848c51e9d17cd5a4f27dc1d2661c348cbd2c98f985a43b9c5397a2a481",
						"blockNumber": 10495912,
						"data": "0x",
						"index": 20,
						"topics": [
							"0x8be0079c531659141344cd1fd0a4f28419497f9722a3daafe3b4186f6b6457e0",
							"0x0000000000000000000000000000000000000000000000000000000000000000",
							"0x000000000000000000000000affac6609245eb93123a4cecfaf6d78a249bf127"
						],
						"transactionHash": "0xbc0142b5f7f7d89f3f7200de714bba291922982c05e62668899cd59a9dfce750",
						"transactionIndex": 1
					},
					{
						"address": "0x1081B5AA9D9d4862A3dA4d469433FB36Ed80FA2A",
						"blockHash": "0x957d33848c51e9d17cd5a4f27dc1d2661c348cbd2c98f985a43b9c5397a2a481",
						"blockNumber": 10495912,
						"data": "0x000000000000000000000000affac6609245eb93123a4cecfaf6d78a249bf127",
						"index": 21,
						"topics": [
							"0x4db17dd5e4732fb6da34a148104a592783ca119a1e7bb8829eba6cbadef0b511"
						],
						"transactionHash": "0xbc0142b5f7f7d89f3f7200de714bba291922982c05e62668899cd59a9dfce750",
						"transactionIndex": 1
					},
					{
						"address": "0x1081B5AA9D9d4862A3dA4d469433FB36Ed80FA2A",
						"blockHash": "0x957d33848c51e9d17cd5a4f27dc1d2661c348cbd2c98f985a43b9c5397a2a481",
						"blockNumber": 10495912,
						"data": "0x",
						"index": 22,
						"topics": [
							"0x6895c13664aa4f67288b25d7a21d7aaa34916e355fb9b6fae0a139a9085becb8",
							"0x000000000000000000000000ef1be3c049809cace5bc203bbe4ec1ab284bf75c"
						],
						"transactionHash": "0xbc0142b5f7f7d89f3f7200de714bba291922982c05e62668899cd59a9dfce750",
						"transactionIndex": 1
					},
					{
						"address": "0xEf1Be3C049809caCe5Bc203BBe4Ec1Ab284bF75c",
						"blockHash": "0x957d33848c51e9d17cd5a4f27dc1d2661c348cbd2c98f985a43b9c5397a2a481",
						"blockNumber": 10495912,
						"data": "0x0000000000000000000000000000000000000000000000000000000000000006",
						"index": 23,
						"topics": [
							"0xa65fb05c5808f5f389d72edeaf719ce38f4cc55c1f69ca3cbfb31c21501caa07",
							"0xeb3166bda3fcd69ca05fdf479239793e480a434f3066bc23b43dcbae1f55c908"
						],
						"transactionHash": "0xbc0142b5f7f7d89f3f7200de714bba291922982c05e62668899cd59a9dfce750",
						"transactionIndex": 1
					},
					{
						"address": "0x1081B5AA9D9d4862A3dA4d469433FB36Ed80FA2A",
						"blockHash": "0x957d33848c51e9d17cd5a4f27dc1d2661c348cbd2c98f985a43b9c5397a2a481",
						"blockNumber": 10495912,
						"data": "0x000000000000000000000000ee922d1cb6551d45e2d9b197ec423fb8c3c85d50",
						"index": 24,
						"topics": [
							"0x4db17dd5e4732fb6da34a148104a592783ca119a1e7bb8829eba6cbadef0b511"
						],
						"transactionHash": "0xbc0142b5f7f7d89f3f7200de714bba291922982c05e62668899cd59a9dfce750",
						"transactionIndex": 1
					},
					{
						"address": "0x1081B5AA9D9d4862A3dA4d469433FB36Ed80FA2A",
						"blockHash": "0x957d33848c51e9d17cd5a4f27dc1d2661c348cbd2c98f985a43b9c5397a2a481",
						"blockNumber": 10495912,
						"data": "0x",
						"index": 25,
						"topics": [
							"0x6895c13664aa4f67288b25d7a21d7aaa34916e355fb9b6fae0a139a9085becb8",
							"0x000000000000000000000000ef1be3c049809cace5bc203bbe4ec1ab284bf75c"
						],
						"transactionHash": "0xbc0142b5f7f7d89f3f7200de714bba291922982c05e62668899cd59a9dfce750",
						"transactionIndex": 1
					},
					{
						"address": "0xEf1Be3C049809caCe5Bc203BBe4Ec1Ab284bF75c",
						"blockHash": "0x957d33848c51e9d17cd5a4f27dc1d2661c348cbd2c98f985a43b9c5397a2a481",
						"blockNumber": 10495912,
						"data": "0x0000000000000000000000000000000000000000000000000000000000000007",
						"index": 26,
						"topics": [
							"0xa65fb05c5808f5f389d72edeaf719ce38f4cc55c1f69ca3cbfb31c21501caa07",
							"0xeb3166bda3fcd69ca05fdf479239793e480a434f3066bc23b43dcbae1f55c908"
						],
						"transactionHash": "0xbc0142b5f7f7d89f3f7200de714bba291922982c05e62668899cd59a9dfce750",
						"transactionIndex": 1
					},
					{
						"address": "0x1081B5AA9D9d4862A3dA4d469433FB36Ed80FA2A",
						"blockHash": "0x957d33848c51e9d17cd5a4f27dc1d2661c348cbd2c98f985a43b9c5397a2a481",
						"blockNumber": 10495912,
						"data": "0x000000000000000000000000315d47e969097635dbe460743da00096129c2457",
						"index": 27,
						"topics": [
							"0x4db17dd5e4732fb6da34a148104a592783ca119a1e7bb8829eba6cbadef0b511"
						],
						"transactionHash": "0xbc0142b5f7f7d89f3f7200de714bba291922982c05e62668899cd59a9dfce750",
						"transactionIndex": 1
					},
					{
						"address": "0x1081B5AA9D9d4862A3dA4d469433FB36Ed80FA2A",
						"blockHash": "0x957d33848c51e9d17cd5a4f27dc1d2661c348cbd2c98f985a43b9c5397a2a481",
						"blockNumber": 10495912,
						"data": "0x",
						"index": 28,
						"topics": [
							"0x6895c13664aa4f67288b25d7a21d7aaa34916e355fb9b6fae0a139a9085becb8",
							"0x000000000000000000000000ef1be3c049809cace5bc203bbe4ec1ab284bf75c"
						],
						"transactionHash": "0xbc0142b5f7f7d89f3f7200de714bba291922982c05e62668899cd59a9dfce750",
						"transactionIndex": 1
					},
					{
						"address": "0xEf1Be3C049809caCe5Bc203BBe4Ec1Ab284bF75c",
						"blockHash": "0x957d33848c51e9d17cd5a4f27dc1d2661c348cbd2c98f985a43b9c5397a2a481",
						"blockNumber": 10495912,
						"data": "0x0000000000000000000000000000000000000000000000000000000000000008",
						"index": 29,
						"topics": [
							"0xa65fb05c5808f5f389d72edeaf719ce38f4cc55c1f69ca3cbfb31c21501caa07",
							"0xeb3166bda3fcd69ca05fdf479239793e480a434f3066bc23b43dcbae1f55c908"
						],
						"transactionHash": "0xbc0142b5f7f7d89f3f7200de714bba291922982c05e62668899cd59a9dfce750",
						"transactionIndex": 1
					}
				],
				"logsBloom": "0x0000000008001000000800000008020000000802000800000080080000400000006000a000000000000002200040000000000400000000000000000000040000000000100000220400000008020280000001000000040000000200000000000000000000020000000001000000000800000000100020000010000010002000400001000200000000000100020000000000000000000000000000804000000000004000000010000000000000080000020200000000000000000000000006000000000002000800200000000008000000010000000000000000000000000060000000000000000024000000000000000200000000000000000000000000000000",
				"status": 1,
				"to": "0xB5E96127D417b1B3ef8438496a38A143167209c7"
			},
			"metadata": "{\"compiler\":{\"version\":\"0.8.23+commit.f704f362\"},\"language\":\"Solidity\",\"output\":{\"abi\":[{\"inputs\":[],\"stateMutability\":\"nonpayable\",\"type\":\"constructor\"},{\"inputs\":[],\"type\":\"error\",\"name\":\"CheckpointUnorderedInsertion\"},{\"inputs\":[],\"type\":\"error\",\"name\":\"ECDSAInvalidSignature\"},{\"inputs\":[{\"internalType\":\"uint256\",\"name\":\"length\",\"type\":\"uint256\"}],\"type\":\"error\",\"name\":\"ECDSAInvalidSignatureLength\"},{\"inputs\":[{\"internalType\":\"bytes32\",\"name\":\"s\",\"type\":\"bytes32\"}],\"type\":\"error\",\"name\":\"ECDSAInvalidSignatureS\"},{\"inputs\":[{\"internalType\":\"uint256\",\"name\":\"increasedSupply\",\"type\":\"uint256\"},{\"internalType\":\"uint256\",\"name\":\"cap\",\"type\":\"uint256\"}],\"type\":\"error\",\"name\":\"ERC20ExceededSafeSupply\"},{\"inputs\":[{\"internalType\":\"address\",\"name\":\"spender\",\"type\":\"address\"},{\"internalType\":\"uint256\",\"name\":\"allowance\",\"type\":\"uint256\"},{\"internalType\":\"uint256\",\"name\":\"needed\",\"type\":\"uint256\"}],\"type\":\"error\",\"name\":\"ERC20InsufficientAllowance\"},{\"inputs\":[{\"internalType\":\"address\",\"name\":\"sender\",\"type\":\"address\"},{\"internalType\":\"uint256\",\"name\":\"balance\",\"type\":\"uint256\"},{\"internalType\":\"uint256\",\"name\":\"needed\",\"type\":\"uint256\"}],\"type\":\"error\",\"name\":\"ERC20InsufficientBalance\"},{\"inputs\":[{\"internalType\":\"address\",\"name\":\"approver\",\"type\":\"address\"}],\"type\":\"error\",\"name\":\"ERC20InvalidApprover\"},{\"inputs\":[{\"internalType\":\"address\",\"name\":\"receiver\",\"type\":\"address\"}],\"type\":\"error\",\"name\":\"ERC20InvalidReceiver\"},{\"inputs\":[{\"internalType\":\"address\",\"name\":\"sender\",\"type\":\"address\"}],\"type\":\"error\",\"name\":\"ERC20InvalidSender\"},{\"inputs\":[{\"internalType\":\"address\",\"name\":\"spender\",\"type\":\"address\"}],\"type\":\"error\",\"name\":\"ERC20InvalidSpender\"},{\"inputs\":[{\"internalType\":\"uint256\",\"name\":\"deadline\",\"type\":\"uint256\"}],\"type\":\"error\",\"name\":\"ERC2612ExpiredSignature\"},{\"inputs\":[{\"internalType\":\"address\",\"name\":\"signer\",\"type\":\"address\"},{\"internalType\":\"address\",\"name\":\"owner\",\"type\":\"address\"}],\"type\":\"error\",\"name\":\"ERC2612InvalidSigner\"},{\"inputs\":[{\"internalType\":\"uint256\",\"name\":\"timepoint\",\"type\":\"uint256\"},{\"internalType\":\"uint48\",\"name\":\"clock\",\"type\":\"uint48\"}],\"type\":\"error\",\"name\":\"ERC5805FutureLookup\"},{\"inputs\":[],\"type\":\"error\",\"name\":\"ERC6372InconsistentClock\"},{\"inputs\":[{\"internalType\":\"address\",\"name\":\"account\",\"type\":\"address\"},{\"internalType\":\"uint256\",\"name\":\"currentNonce\",\"type\":\"uint256\"}],\"type\":\"error\",\"name\":\"InvalidAccountNonce\"},{\"inputs\":[],\"type\":\"error\",\"name\":\"InvalidShortString\"},{\"inputs\":[{\"internalType\":\"address\",\"name\":\"owner\",\"type\":\"address\"}],\"type\":\"error\",\"name\":\"OwnableInvalidOwner\"},{\"inputs\":[{\"internalType\":\"address\",\"name\":\"account\",\"type\":\"address\"}],\"type\":\"error\",\"name\":\"OwnableUnauthorizedAccount\"},{\"inputs\":[{\"internalType\":\"uint8\",\"name\":\"bits\",\"type\":\"uint8\"},{\"internalType\":\"uint256\",\"name\":\"value\",\"type\":\"uint256\"}],\"type\":\"error\",\"name\":\"SafeCastOverflowedUintDowncast\"},{\"inputs\":[{\"internalType\":\"string\",\"name\":\"str\",\"type\":\"string\"}],\"type\":\"error\",\"name\":\"StringTooLong\"},{\"inputs\":[{\"internalType\":\"uint256\",\"name\":\"expiry\",\"type\":\"uint256\"}],\"type\":\"error\",\"name\":\"VotesExpiredSignature\"},{\"inputs\":[{\"internalType\":\"address\",\"name\":\"owner\",\"type\":\"address\",\"indexed\":true},{\"internalType\":\"address\",\"name\":\"spender\",\"type\":\"address\",\"indexed\":true},{\"internalType\":\"uint256\",\"name\":\"value\",\"type\":\"uint256\",\"indexed\":false}],\"type\":\"event\",\"name\":\"Approval\",\"anonymous\":false},{\"inputs\":[{\"internalType\":\"address\",\"name\":\"delegator\",\"type\":\"address\",\"indexed\":true},{\"internalType\":\"address\",\"name\":\"fromDelegate\",\"type\":\"address\",\"indexed\":true},{\"internalType\":\"address\",\"name\":\"toDelegate\",\"type\":\"address\",\"indexed\":true}],\"type\":\"event\",\"name\":\"DelegateChanged\",\"anonymous\":false},{\"inputs\":[{\"internalType\":\"address\",\"name\":\"delegate\",\"type\":\"address\",\"indexed\":true},{\"internalType\":\"uint256\",\"name\":\"previousVotes\",\"type\":\"uint256\",\"indexed\":false},{\"internalType\":\"uint256\",\"name\":\"newVotes\",\"type\":\"uint256\",\"indexed\":false}],\"type\":\"event\",\"name\":\"DelegateVotesChanged\",\"anonymous\":false},{\"inputs\":[],\"type\":\"event\",\"name\":\"EIP712DomainChanged\",\"anonymous\":false},{\"inputs\":[{\"internalType\":\"address\",\"name\":\"previousOwner\",\"type\":\"address\",\"indexed\":true},{\"internalType\":\"address\",\"name\":\"newOwner\",\"type\":\"address\",\"indexed\":true}],\"type\":\"event\",\"name\":\"OwnershipTransferred\",\"anonymous\":false},{\"inputs\":[{\"internalType\":\"address\",\"name\":\"from\",\"type\":\"address\",\"indexed\":true},{\"internalType\":\"address\",\"name\":\"to\",\"type\":\"address\",\"indexed\":true},{\"internalType\":\"uint256\",\"name\":\"value\",\"type\":\"uint256\",\"indexed\":false}],\"type\":\"event\",\"name\":\"Transfer\",\"anonymous\":false},{\"inputs\":[],\"stateMutability\":\"view\",\"type\":\"function\",\"name\":\"CLOCK_MODE\",\"outputs\":[{\"internalType\":\"string\",\"name\":\"\",\"type\":\"string\"}]},{\"inputs\":[],\"stateMutability\":\"view\",\"type\":\"function\",\"name\":\"DOMAIN_SEPARATOR\",\"outputs\":[{\"internalType\":\"bytes32\",\"name\":\"\",\"type\":\"bytes32\"}]},{\"inputs\":[{\"internalType\":\"address\",\"name\":\"owner\",\"type\":\"address\"},{\"internalType\":\"address\",\"name\":\"spender\",\"type\":\"address\"}],\"stateMutability\":\"view\",\"type\":\"function\",\"name\":\"allowance\",\"outputs\":[{\"internalType\":\"uint256\",\"name\":\"\",\"type\":\"uint256\"}]},{\"inputs\":[{\"internalType\":\"address\",\"name\":\"spender\",\"type\":\"address\"},{\"internalType\":\"uint256\",\"name\":\"value\",\"type\":\"uint256\"}],\"stateMutability\":\"nonpayable\",\"type\":\"function\",\"name\":\"approve\",\"outputs\":[{\"internalType\":\"bool\",\"name\":\"\",\"type\":\"bool\"}]},{\"inputs\":[{\"internalType\":\"address\",\"name\":\"account\",\"type\":\"address\"}],\"stateMutability\":\"view\",\"type\":\"function\",\"name\":\"balanceOf\",\"outputs\":[{\"internalType\":\"uint256\",\"name\":\"\",\"type\":\"uint256\"}]},{\"inputs\":[{\"internalType\":\"address\",\"name\":\"account\",\"type\":\"address\"},{\"internalType\":\"uint256\",\"name\":\"amount\",\"type\":\"uint256\"}],\"stateMutability\":\"nonpayable\",\"type\":\"function\",\"name\":\"burn\"},{\"inputs\":[{\"internalType\":\"address\",\"name\":\"account\",\"type\":\"address\"},{\"internalType\":\"uint32\",\"name\":\"pos\",\"type\":\"uint32\"}],\"stateMutability\":\"view\",\"type\":\"function\",\"name\":\"checkpoints\",\"outputs\":[{\"internalType\":\"struct Checkpoints.Checkpoint208\",\"name\":\"\",\"type\":\"tuple\",\"components\":[{\"internalType\":\"uint48\",\"name\":\"_key\",\"type\":\"uint48\"},{\"internalType\":\"uint208\",\"name\":\"_value\",\"type\":\"uint208\"}]}]},{\"inputs\":[],\"stateMutability\":\"view\",\"type\":\"function\",\"name\":\"clock\",\"outputs\":[{\"internalType\":\"uint48\",\"name\":\"\",\"type\":\"uint48\"}]},{\"inputs\":[],\"stateMutability\":\"view\",\"type\":\"function\",\"name\":\"decimals\",\"outputs\":[{\"internalType\":\"uint8\",\"name\":\"\",\"type\":\"uint8\"}]},{\"inputs\":[{\"internalType\":\"address\",\"name\":\"delegatee\",\"type\":\"address\"}],\"stateMutability\":\"nonpayable\",\"type\":\"function\",\"name\":\"delegate\"},{\"inputs\":[{\"internalType\":\"address\",\"name\":\"delegatee\",\"type\":\"address\"},{\"internalType\":\"uint256\",\"name\":\"nonce\",\"type\":\"uint256\"},{\"internalType\":\"uint256\",\"name\":\"expiry\",\"type\":\"uint256\"},{\"internalType\":\"uint8\",\"name\":\"v\",\"type\":\"uint8\"},{\"internalType\":\"bytes32\",\"name\":\"r\",\"type\":\"bytes32\"},{\"internalType\":\"bytes32\",\"name\":\"s\",\"type\":\"bytes32\"}],\"stateMutability\":\"nonpayable\",\"type\":\"function\",\"name\":\"delegateBySig\"},{\"inputs\":[{\"internalType\":\"address\",\"name\":\"account\",\"type\":\"address\"}],\"stateMutability\":\"view\",\"type\":\"function\",\"name\":\"delegates\",\"outputs\":[{\"internalType\":\"address\",\"name\":\"\",\"type\":\"address\"}]},{\"inputs\":[],\"stateMutability\":\"view\",\"type\":\"function\",\"name\":\"eip712Domain\",\"outputs\":[{\"internalType\":\"bytes1\",\"name\":\"fields\",\"type\":\"bytes1\"},{\"internalType\":\"string\",\"name\":\"name\",\"type\":\"string\"},{\"internalType\":\"string\",\"name\":\"version\",\"type\":\"string\"},{\"internalType\":\"uint256\",\"name\":\"chainId\",\"type\":\"uint256\"},{\"internalType\":\"address\",\"name\":\"verifyingContract\",\"type\":\"address\"},{\"internalType\":\"bytes32\",\"name\":\"salt\",\"type\":\"bytes32\"},{\"internalType\":\"uint256[]\",\"name\":\"extensions\",\"type\":\"uint256[]\"}]},{\"inputs\":[{\"internalType\":\"uint256\",\"name\":\"timepoint\",\"type\":\"uint256\"}],\"stateMutability\":\"view\",\"type\":\"function\",\"name\":\"getPastTotalSupply\",\"outputs\":[{\"internalType\":\"uint256\",\"name\":\"\",\"type\":\"uint256\"}]},{\"inputs\":[{\"internalType\":\"address\",\"name\":\"account\",\"type\":\"address\"},{\"internalType\":\"uint256\",\"name\":\"timepoint\",\"type\":\"uint256\"}],\"stateMutability\":\"view\",\"type\":\"function\",\"name\":\"getPastVotes\",\"outputs\":[{\"internalType\":\"uint256\",\"name\":\"\",\"type\":\"uint256\"}]},{\"inputs\":[{\"internalType\":\"address\",\"name\":\"account\",\"type\":\"address\"}],\"stateMutability\":\"view\",\"type\":\"function\",\"name\":\"getVotes\",\"outputs\":[{\"internalType\":\"uint256\",\"name\":\"\",\"type\":\"uint256\"}]},{\"inputs\":[{\"internalType\":\"string\",\"name\":\"name_\",\"type\":\"string\"},{\"internalType\":\"string\",\"name\":\"symbol_\",\"type\":\"string\"},{\"internalType\":\"address\",\"name\":\"owner\",\"type\":\"address\"}],\"stateMutability\":\"nonpayable\",\"type\":\"function\",\"name\":\"initialize\"},{\"inputs\":[{\"internalType\":\"address\",\"name\":\"account\",\"type\":\"address\"},{\"internalType\":\"uint256\",\"name\":\"amount\",\"type\":\"uint256\"}],\"stateMutability\":\"nonpayable\",\"type\":\"function\",\"name\":\"mint\"},{\"inputs\":[],\"stateMutability\":\"view\",\"type\":\"function\",\"name\":\"name\",\"outputs\":[{\"internalType\":\"string\",\"name\":\"\",\"type\":\"string\"}]},{\"inputs\":[{\"internalType\":\"address\",\"name\":\"owner\",\"type\":\"address\"}],\"stateMutability\":\"view\",\"type\":\"function\",\"name\":\"nonces\",\"outputs\":[{\"internalType\":\"uint256\",\"name\":\"\",\"type\":\"uint256\"}]},{\"inputs\":[{\"internalType\":\"address\",\"name\":\"account\",\"type\":\"address\"}],\"stateMutability\":\"view\",\"type\":\"function\",\"name\":\"numCheckpoints\",\"outputs\":[{\"internalType\":\"uint32\",\"name\":\"\",\"type\":\"uint32\"}]},{\"inputs\":[],\"stateMutability\":\"view\",\"type\":\"function\",\"name\":\"owner\",\"outputs\":[{\"internalType\":\"address\",\"name\":\"\",\"type\":\"address\"}]},{\"inputs\":[{\"internalType\":\"address\",\"name\":\"owner\",\"type\":\"address\"},{\"internalType\":\"address\",\"name\":\"spender\",\"type\":\"address\"},{\"internalType\":\"uint256\",\"name\":\"value\",\"type\":\"uint256\"},{\"internalType\":\"uint256\",\"name\":\"deadline\",\"type\":\"uint256\"},{\"internalType\":\"uint8\",\"name\":\"v\",\"type\":\"uint8\"},{\"internalType\":\"bytes32\",\"name\":\"r\",\"type\":\"bytes32\"},{\"internalType\":\"bytes32\",\"name\":\"s\",\"type\":\"bytes32\"}],\"stateMutability\":\"nonpayable\",\"type\":\"function\",\"name\":\"permit\"},{\"inputs\":[],\"stateMutability\":\"nonpayable\",\"type\":\"function\",\"name\":\"renounceOwnership\"},{\"inputs\":[],\"stateMutability\":\"view\",\"type\":\"function\",\"name\":\"symbol\",\"outputs\":[{\"internalType\":\"string\",\"name\":\"\",\"type\":\"string\"}]},{\"inputs\":[],\"stateMutability\":\"view\",\"type\":\"function\",\"name\":\"totalSupply\",\"outputs\":[{\"internalType\":\"uint256\",\"name\":\"\",\"type\":\"uint256\"}]},{\"inputs\":[{\"internalType\":\"address\",\"name\":\"to\",\"type\":\"address\"},{\"internalType\":\"uint256\",\"name\":\"value\",\"type\":\"uint256\"}],\"stateMutability\":\"nonpayable\",\"type\":\"function\",\"name\":\"transfer\",\"outputs\":[{\"internalType\":\"bool\",\"name\":\"\",\"type\":\"bool\"}]},{\"inputs\":[{\"internalType\":\"address\",\"name\":\"from\",\"type\":\"address\"},{\"internalType\":\"address\",\"name\":\"to\",\"type\":\"address\"},{\"internalType\":\"uint256\",\"name\":\"value\",\"type\":\"uint256\"}],\"stateMutability\":\"nonpayable\",\"type\":\"function\",\"name\":\"transferFrom\",\"outputs\":[{\"internalType\":\"bool\",\"name\":\"\",\"type\":\"bool\"}]},{\"inputs\":[{\"internalType\":\"address\",\"name\":\"newOwner\",\"type\":\"address\"}],\"stateMutability\":\"nonpayable\",\"type\":\"function\",\"name\":\"transferOwnership\"}],\"devdoc\":{\"kind\":\"dev\",\"methods\":{\"CLOCK_MODE()\":{\"details\":\"Machine-readable description of the clock as specified in EIP-6372.\"},\"DOMAIN_SEPARATOR()\":{\"details\":\"Returns the domain separator used in the encoding of the signature for {permit}, as defined by {EIP712}.\"},\"allowance(address,address)\":{\"details\":\"See {IERC20-allowance}.\"},\"approve(address,uint256)\":{\"details\":\"See {IERC20-approve}. NOTE: If `value` is the maximum `uint256`, the allowance is not updated on `transferFrom`. This is semantically equivalent to an infinite approval. Requirements: - `spender` cannot be the zero address.\"},\"balanceOf(address)\":{\"params\":{\"account\":\"The account to get the balance of.\"},\"returns\":{\"_0\":\"The number of tokens owned by the `account`, as a fixed point number with 18 decimals.\"}},\"burn(address,uint256)\":{\"details\":\"Can only be called by this contract's owner.\",\"params\":{\"account\":\"The address to burn tokens from.\",\"amount\":\"The amount of tokens to burn, as a fixed point number with 18 decimals.\"}},\"checkpoints(address,uint32)\":{\"details\":\"Get the `pos`-th checkpoint for `account`.\"},\"clock()\":{\"details\":\"Clock used for flagging checkpoints. Can be overridden to implement timestamp based checkpoints (and voting), in which case {CLOCK_MODE} should be overridden as well to match.\"},\"decimals()\":{\"returns\":{\"_0\":\"The number of decimals.\"}},\"delegate(address)\":{\"details\":\"Delegates votes from the sender to `delegatee`.\"},\"delegateBySig(address,uint256,uint256,uint8,bytes32,bytes32)\":{\"details\":\"Delegates votes from signer to `delegatee`.\"},\"delegates(address)\":{\"details\":\"Returns the delegate that `account` has chosen.\"},\"eip712Domain()\":{\"details\":\"See {IERC-5267}.\"},\"getPastTotalSupply(uint256)\":{\"details\":\"Returns the total supply of votes available at a specific moment in the past. If the `clock()` is configured to use block numbers, this will return the value at the end of the corresponding block. NOTE: This value is the sum of all available votes, which is not necessarily the sum of all delegated votes. Votes that have not been delegated are still part of total supply, even though they would not participate in a vote. Requirements: - `timepoint` must be in the past. If operating using block numbers, the block must be already mined.\"},\"getPastVotes(address,uint256)\":{\"details\":\"Returns the amount of votes that `account` had at a specific moment in the past. If the `clock()` is configured to use block numbers, this will return the value at the end of the corresponding block. Requirements: - `timepoint` must be in the past. If operating using block numbers, the block must be already mined.\"},\"getVotes(address)\":{\"details\":\"Returns the current amount of votes that `account` has.\"},\"initialize(string,string,address)\":{\"params\":{\"name_\":\"The token's name.\",\"owner\":\"The token contract's owner.\",\"symbol_\":\"The token's symbol.\"}},\"mint(address,uint256)\":{\"details\":\"Can only be called by this contract's owner.\",\"params\":{\"account\":\"The address to mint the new tokens to.\",\"amount\":\"The amount of tokens to mint, as a fixed point number with 18 decimals.\"}},\"numCheckpoints(address)\":{\"details\":\"Get number of checkpoints for `account`.\"},\"owner()\":{\"details\":\"Returns the address of the current owner.\"},\"permit(address,address,uint256,uint256,uint8,bytes32,bytes32)\":{\"details\":\"Sets `value` as the allowance of `spender` over ``owner``'s tokens, given ``owner``'s signed approval. IMPORTANT: The same issues {IERC20-approve} has related to transaction ordering also apply here. Emits an {Approval} event. Requirements: - `spender` cannot be the zero address. - `deadline` must be a timestamp in the future. - `v`, `r` and `s` must be a valid `secp256k1` signature from `owner` over the EIP712-formatted function arguments. - the signature must use ``owner``'s current nonce (see {nonces}). For more information on the signature format, see the https://eips.ethereum.org/EIPS/eip-2612#specification[relevant EIP section]. CAUTION: See Security Considerations above.\"},\"renounceOwnership()\":{\"details\":\"Leaves the contract without owner. It will not be possible to call `onlyOwner` functions. Can only be called by the current owner. NOTE: Renouncing ownership will leave the contract without an owner, thereby disabling any functionality that is only available to the owner.\"},\"totalSupply()\":{\"returns\":{\"_0\":\"The total supply of this ERC20, as a fixed point number.\"}},\"transfer(address,uint256)\":{\"details\":\"See {IERC20-transfer}. Requirements: - `to` cannot be the zero address. - the caller must have a balance of at least `value`.\"},\"transferFrom(address,address,uint256)\":{\"details\":\"See {IERC20-transferFrom}. Emits an {Approval} event indicating the updated allowance. This is not required by the EIP. See the note at the beginning of {ERC20}. NOTE: Does not update the allowance if the current allowance is the maximum `uint256`. Requirements: - `from` and `to` cannot be the zero address. - `from` must have a balance of at least `value`. - the caller must have allowance for ``from``'s tokens of at least `value`.\"},\"transferOwnership(address)\":{\"details\":\"Transfers ownership of the contract to a new account (`newOwner`). Can only be called by the current owner.\"}},\"version\":1},\"userdoc\":{\"kind\":\"user\",\"methods\":{\"balanceOf(address)\":{\"notice\":\"The balance of the given address.\"},\"burn(address,uint256)\":{\"notice\":\"Burn some outstanding tokens.\"},\"decimals()\":{\"notice\":\"The number of decimals used for this token's fixed point accounting.\"},\"initialize(string,string,address)\":{\"notice\":\"Initializes the token.\"},\"mint(address,uint256)\":{\"notice\":\"Mints more of this token.\"},\"name()\":{\"notice\":\"The token's name.\"},\"nonces(address)\":{\"notice\":\"Required override.\"},\"symbol()\":{\"notice\":\"The token's symbol.\"},\"totalSupply()\":{\"notice\":\"The total supply of this ERC20 i.e. the total number of tokens in existence.\"}},\"version\":1}},\"settings\":{\"remappings\":[\"@bananapus/=node_modules/@bananapus/\",\"@chainlink/=node_modules/@chainlink/\",\"@eth-optimism/=node_modules/@eth-optimism/\",\"@openzeppelin/=node_modules/@openzeppelin/\",\"@prb/=node_modules/@prb/\",\"@scroll-tech/=node_modules/@scroll-tech/\",\"@sphinx-labs/contracts/=lib/sphinx/packages/contracts/contracts/foundry/\",\"@uniswap/=node_modules/@uniswap/\",\"ds-test/=lib/forge-std/lib/ds-test/src/\",\"forge-std/=lib/forge-std/src/\",\"hardhat/=node_modules/hardhat/\",\"solmate/=node_modules/solmate/\",\"sphinx/=lib/sphinx/packages/contracts/contracts/forge-std/src/\"],\"optimizer\":{\"enabled\":true,\"runs\":200},\"metadata\":{\"bytecodeHash\":\"ipfs\"},\"compilationTarget\":{\"src/JBERC20.sol\":\"JBERC20\"},\"evmVersion\":\"paris\",\"libraries\":{}},\"sources\":{\"node_modules/@openzeppelin/contracts/access/Ownable.sol\":{\"keccak256\":\"0xff6d0bb2e285473e5311d9d3caacb525ae3538a80758c10649a4d61029b017bb\",\"urls\":[\"bzz-raw://8ed324d3920bb545059d66ab97d43e43ee85fd3bd52e03e401f020afb0b120f6\",\"dweb:/ipfs/QmfEckWLmZkDDcoWrkEvMWhms66xwTLff9DDhegYpvHo1a\"],\"license\":\"MIT\"},\"node_modules/@openzeppelin/contracts/governance/utils/IVotes.sol\":{\"keccak256\":\"0x5e2b397ae88fd5c68e4f6762eb9f65f65c36702eb57796495f471d024ce70947\",\"urls\":[\"bzz-raw://348fc8e291d54314bb22437b532f443d5dbfb80c8cc9591567c1af6554ccf856\",\"dweb:/ipfs/QmP8ZTyitZinxcpwAHeYHhwj7u21zPpKXSiww38V74sXC2\"],\"license\":\"MIT\"},\"node_modules/@openzeppelin/contracts/governance/utils/Votes.sol\":{\"keccak256\":\"0xb8f69828d41b3594afd7a8c6393565901c205d8b5baf5bd2e42dbac637172979\",\"urls\":[\"bzz-raw://c790253821191ac46b2050d87df820d4209871f90c616381e2c2c00ff3eaac34\",\"dweb:/ipfs/QmcPETTyuZBzDRL39JNXj3SBMdx3Y9o4fPQLSZ27py5Jim\"],\"license\":\"MIT\"},\"node_modules/@openzeppelin/contracts/interfaces/IERC5267.sol\":{\"keccak256\":\"0x92aa1df62dc3d33f1656d63bede0923e0df0b706ad4137c8b10b0a8fe549fd92\",\"urls\":[\"bzz-raw://c5c0f29195ad64cbe556da8e257dac8f05f78c53f90323c0d2accf8e6922d33a\",\"dweb:/ipfs/QmQ61TED8uaCZwcbh8KkgRSsCav7x7HbcGHwHts3U4DmUP\"],\"license\":\"MIT\"},\"node_modules/@openzeppelin/contracts/interfaces/IERC5805.sol\":{\"keccak256\":\"0x4b9b89f91adbb7d3574f85394754cfb08c5b4eafca8a7061e2094a019ab8f818\",\"urls\":[\"bzz-raw://7373d5dbb8eb2381aa0883a456fac89283fcaf52f42fa805d4188f270716742a\",\"dweb:/ipfs/QmVnZDmT4ABvNhRJMaQnbCzsCA8HpyHPVaxi4fCi92LFv2\"],\"license\":\"MIT\"},\"node_modules/@openzeppelin/contracts/interfaces/IERC6372.sol\":{\"keccak256\":\"0xeb2857b7dafb7e0d8526dbfe794e6c047df2851c9e6ee91dc4a55f3c34af5d33\",\"urls\":[\"bzz-raw://49bf13f6c2a38a9bcc7b852d4e2b9cebb4068b832642cce61069cdb5f06bb2fb\",\"dweb:/ipfs/QmdKAJVE7rR2kENCZnEM1yKswrGii7WuE9gZpsQvnXJhwn\"],\"license\":\"MIT\"},\"node_modules/@openzeppelin/contracts/interfaces/draft-IERC6093.sol\":{\"keccak256\":\"0x60c65f701957fdd6faea1acb0bb45825791d473693ed9ecb34726fdfaa849dd7\",\"urls\":[\"bzz-raw://ea290300e0efc4d901244949dc4d877fd46e6c5e43dc2b26620e8efab3ab803f\",\"dweb:/ipfs/QmcLLJppxKeJWqHxE2CUkcfhuRTgHSn8J4kijcLa5MYhSt\"],\"license\":\"MIT\"},\"node_modules/@openzeppelin/contracts/token/ERC20/ERC20.sol\":{\"keccak256\":\"0xc3e1fa9d1987f8d349dfb4d6fe93bf2ca014b52ba335cfac30bfe71e357e6f80\",\"urls\":[\"bzz-raw://c5703ccdeb7b1d685e375ed719117e9edf2ab4bc544f24f23b0d50ec82257229\",\"dweb:/ipfs/QmTdwkbQq7owpCiyuzE7eh5LrD2ddrBCZ5WHVsWPi1RrTS\"],\"license\":\"MIT\"},\"node_modules/@openzeppelin/contracts/token/ERC20/IERC20.sol\":{\"keccak256\":\"0xc6a8ff0ea489379b61faa647490411b80102578440ab9d84e9a957cc12164e70\",\"urls\":[\"bzz-raw://0ea104e577e63faea3b69c415637e99e755dcbf64c5833d7140c35a714d6d90c\",\"dweb:/ipfs/Qmau6x4Ns9XdyynRCNNp3RhLqijJjFm7z5fyZazfYFGYdq\"],\"license\":\"MIT\"},\"node_modules/@openzeppelin/contracts/token/ERC20/extensions/ERC20Permit.sol\":{\"keccak256\":\"0xc858a86a35701004d89022a5e98819aac46ccbdc4072fc9dd43928a676b1a2ee\",\"urls\":[\"bzz-raw://18acebb483c512c0eaafcb437f09c839972c3f0d36f0201ea7baa2926b987dd2\",\"dweb:/ipfs/Qmd9bf2noaDSYDtf6FMSzKu7LPhuf91jsVNmcoCuTCuGic\"],\"license\":\"MIT\"},\"node_modules/@openzeppelin/contracts/token/ERC20/extensions/ERC20Votes.sol\":{\"keccak256\":\"0x2a650f6e593cfe5ff2e514a17ea7f593ee70cefa1888066bc983a6308acff4b1\",\"urls\":[\"bzz-raw://9a3477b9665a4b6d19f86bf2cfbfa8c08ba41193f15e68c0d75c0cab7e1fc753\",\"dweb:/ipfs/QmbcurrTatN1PBmkCWdrED8zhAqx5ah9Qp6uR8YwkKWA8V\"],\"license\":\"MIT\"},\"node_modules/@openzeppelin/contracts/token/ERC20/extensions/IERC20Metadata.sol\":{\"keccak256\":\"0xaa761817f6cd7892fcf158b3c776b34551cde36f48ff9703d53898bc45a94ea2\",\"urls\":[\"bzz-raw://0ad7c8d4d08938c8dfc43d75a148863fb324b80cf53e0a36f7e5a4ac29008850\",\"dweb:/ipfs/QmcrhfPgVNf5mkdhQvy1pMv51TFokD3Y4Wa5WZhFqVh8UV\"],\"license\":\"MIT\"},\"node_modules/@openzeppelin/contracts/token/ERC20/extensions/IERC20Permit.sol\":{\"keccak256\":\"0x6008dabfe393240d73d7dd7688033f72740d570aa422254d29a7dce8568f3aff\",\"urls\":[\"bzz-raw://f5196ec75139918c6c7bb4251b36395e668f1fa6d206beba7e7520e74913940d\",\"dweb:/ipfs/QmSyqjksXxmm2mCG6qRd1yuwLykypkSVBbnBnGqJRcuJMi\"],\"license\":\"MIT\"},\"node_modules/@openzeppelin/contracts/utils/Context.sol\":{\"keccak256\":\"0x493033a8d1b176a037b2cc6a04dad01a5c157722049bbecf632ca876224dd4b2\",\"urls\":[\"bzz-raw://6a708e8a5bdb1011c2c381c9a5cfd8a9a956d7d0a9dc1bd8bcdaf52f76ef2f12\",\"dweb:/ipfs/Qmax9WHBnVsZP46ZxEMNRQpLQnrdE4dK8LehML1Py8FowF\"],\"license\":\"MIT\"},\"node_modules/@openzeppelin/contracts/utils/Nonces.sol\":{\"keccak256\":\"0x0082767004fca261c332e9ad100868327a863a88ef724e844857128845ab350f\",\"urls\":[\"bzz-raw://132dce9686a54e025eb5ba5d2e48208f847a1ec3e60a3e527766d7bf53fb7f9e\",\"dweb:/ipfs/QmXn1a2nUZMpu2z6S88UoTfMVtY2YNh86iGrzJDYmMkKeZ\"],\"license\":\"MIT\"},\"node_modules/@openzeppelin/contracts/utils/ShortStrings.sol\":{\"keccak256\":\"0x18a7171df639a934592915a520ecb97c5bbc9675a1105607aac8a94e72bf62c6\",\"urls\":[\"bzz-raw://7478e1f13da69a2867ccd883001d836b75620362e743f196376d63ed0c422a1c\",\"dweb:/ipfs/QmWywcQ9TNfwtoqAxbn25d8C5VrV12PrPS9UjtGe6pL2BA\"],\"license\":\"MIT\"},\"node_modules/@openzeppelin/contracts/utils/StorageSlot.sol\":{\"keccak256\":\"0x32ba59b4b7299237c8ba56319110989d7978a039faf754793064e967e5894418\",\"urls\":[\"bzz-raw://1ae50c8b562427df610cc4540c9bf104acca7ef8e2dcae567ae7e52272281e9c\",\"dweb:/ipfs/QmTHiadFCSJUPpRjNegc5SahmeU8bAoY8i9Aq6tVscbcKR\"],\"license\":\"MIT\"},\"node_modules/@openzeppelin/contracts/utils/Strings.sol\":{\"keccak256\":\"0x55f102ea785d8399c0e58d1108e2d289506dde18abc6db1b7f68c1f9f9bc5792\",\"urls\":[\"bzz-raw://6e52e0a7765c943ef14e5bcf11e46e6139fa044be564881378349236bf2e3453\",\"dweb:/ipfs/QmZEeeXoFPW47amyP35gfzomF9DixqqTEPwzBakv6cZw6i\"],\"license\":\"MIT\"},\"node_modules/@openzeppelin/contracts/utils/cryptography/ECDSA.sol\":{\"keccak256\":\"0xeed0a08b0b091f528356cbc7245891a4c748682d4f6a18055e8e6ca77d12a6cf\",\"urls\":[\"bzz-raw://ba80ba06c8e6be852847e4c5f4492cef801feb6558ae09ed705ff2e04ea8b13c\",\"dweb:/ipfs/QmXRJDv3xHLVQCVXg1ZvR35QS9sij5y9NDWYzMfUfAdTHF\"],\"license\":\"MIT\"},\"node_modules/@openzeppelin/contracts/utils/cryptography/EIP712.sol\":{\"keccak256\":\"0x999f705a027ed6dc2d4e0df2cc4a509852c6bfd11de1c8161bf88832d0503fd0\",\"urls\":[\"bzz-raw://0798def67258d9a3cc20b2b4da7ebf351a5cefe0abfdd665d2d81f8e32f89b21\",\"dweb:/ipfs/QmPEvJosnPfzHNjKvCv2D3891mA2Ww8eUwkqrxBjuYdHCt\"],\"license\":\"MIT\"},\"node_modules/@openzeppelin/contracts/utils/cryptography/MessageHashUtils.sol\":{\"keccak256\":\"0xba333517a3add42cd35fe877656fc3dfcc9de53baa4f3aabbd6d12a92e4ea435\",\"urls\":[\"bzz-raw://2ceacff44c0fdc81e48e0e0b1db87a2076d3c1fb497341de077bf1da9f6b406c\",\"dweb:/ipfs/QmRUo1muMRAewxrKQ7TkXUtknyRoR57AyEkoPpiuZQ8FzX\"],\"license\":\"MIT\"},\"node_modules/@openzeppelin/contracts/utils/math/Math.sol\":{\"keccak256\":\"0x005ec64c6313f0555d59e278f9a7a5ab2db5bdc72a027f255a37c327af1ec02d\",\"urls\":[\"bzz-raw://4ece9f0b9c8daca08c76b6b5405a6446b6f73b3a15fab7ff56e296cbd4a2c875\",\"dweb:/ipfs/QmQyRpyPRL5SQuAgj6SHmbir3foX65FJjbVTTQrA2EFg6L\"],\"license\":\"MIT\"},\"node_modules/@openzeppelin/contracts/utils/math/SafeCast.sol\":{\"keccak256\":\"0xe19a4d5f31d2861e7344e8e535e2feafb913d806d3e2b5fe7782741a2a7094fe\",\"urls\":[\"bzz-raw://4aed79c0fa6f0546ed02f2f683e8f77f0fd2ed7eb34d8bbf3d373c9a6d95b13c\",\"dweb:/ipfs/QmWqVz6UAVqmnWU5pqYPt1o6iDEZyPaBraAA3rKfTTSfYj\"],\"license\":\"MIT\"},\"node_modules/@openzeppelin/contracts/utils/math/SignedMath.sol\":{\"keccak256\":\"0x5f7e4076e175393767754387c962926577f1660dd9b810187b9002407656be72\",\"urls\":[\"bzz-raw://7d533a1c97cd43a57cd9c465f7ee8dd0e39ae93a8fb8ff8e5303a356b081cdcc\",\"dweb:/ipfs/QmVBEei6aTnvYNZp2CHYVNKyZS4q1KkjANfY39WVXZXVoT\"],\"license\":\"MIT\"},\"node_modules/@openzeppelin/contracts/utils/structs/Checkpoints.sol\":{\"keccak256\":\"0xbdc5e074d7dd6678f67e92b1a51a20226801a407b0e1af3da367c5d1ff4519ad\",\"urls\":[\"bzz-raw://a36cca6b22fff3db16fc789ff6c60eea71d4b156065d4d0c83a0bc5e91a77a8b\",\"dweb:/ipfs/QmYN3exd5AemxjBrN8XMB1p5LbbE16uC3sjbYjwi8AjcGR\"],\"license\":\"MIT\"},\"node_modules/@openzeppelin/contracts/utils/types/Time.sol\":{\"keccak256\":\"0xc7755af115020049e4140f224f9ee88d7e1799ffb0646f37bf0df24bf6213f58\",\"urls\":[\"bzz-raw://7f09bf94d5274334ec021f61a04659db303f31e60460e14b709c9bf187740111\",\"dweb:/ipfs/QmNvgomZYUwFAt4cZbPWAiTeSZQreGehY9BK5xyVJsUttb\"],\"license\":\"MIT\"},\"src/JBERC20.sol\":{\"keccak256\":\"0x4ca0ae4f2037c64217db9bf2376f27d129e9edd3810cc0ee31b5867d44d1ec67\",\"urls\":[\"bzz-raw://a3ba32cf40e165040459aa8c8462e22bdf0b1b3fb15f45c1f312751781c8f1fb\",\"dweb:/ipfs/QmYYPFZwwGweNSRTW1W2ibBWqWmwVsRFSrdjsQyHANpTK9\"],\"license\":\"MIT\"},\"src/interfaces/IJBToken.sol\":{\"keccak256\":\"0x71b1f9c3a0edd41910f77396e0be2c65596571176d53eb87e887c3c0da56c0fb\",\"urls\":[\"bzz-raw://6e956f0582f4525e83d845ee9b4a89959abc4f821414f6accbbee5b38960482d\",\"dweb:/ipfs/QmbSvjgmCgnfVmcCTGu8XwrV1Rufsf3M8hB8unFq6fTMdH\"],\"license\":\"MIT\"}},\"version\":1}",
			"args": [],
			"bytecode": "0x6101606040523480156200001257600080fd5b50306040518060400160405280600781526020016625212a37b5b2b760c91b81525080604051806040016040528060018152602001603160f81b815250604051806040016040528060078152602001661a5b9d985b1a5960ca1b815250604051806040016040528060078152602001661a5b9d985b1a5960ca1b8152508160039081620000a0919062000321565b506004620000af828262000321565b50620000c191508390506005620001ac565b61012052620000d2816006620001ac565b61014052815160208084019190912060e052815190820120610100524660a0526200016060e05161010051604080517f8b73c3c69bb8fe3d512ecc4cf759cc79239f7b179b0ffacaa9a75d522b39400f60208201529081019290925260608201524660808201523060a082015260009060c00160405160208183030381529060405280519060200120905090565b60805250503060c052506001600160a01b0381166200019a57604051631e4fbdf760e01b8152600060048201526024015b60405180910390fd5b620001a581620001e5565b5062000463565b6000602083511015620001cc57620001c48362000237565b9050620001df565b81620001d9848262000321565b5060ff90505b92915050565b600b80546001600160a01b038381166001600160a01b0319831681179093556040519116919082907f8be0079c531659141344cd1fd0a4f28419497f9722a3daafe3b4186f6b6457e090600090a35050565b600080829050601f8151111562000265578260405163305a27a960e01b8152600401620001919190620003ed565b805162000272826200043e565b179392505050565b634e487b7160e01b600052604160045260246000fd5b600181811c90821680620002a557607f821691505b602082108103620002c657634e487b7160e01b600052602260045260246000fd5b50919050565b601f8211156200031c576000816000526020600020601f850160051c81016020861015620002f75750805b601f850160051c820191505b81811015620003185782815560010162000303565b5050505b505050565b81516001600160401b038111156200033d576200033d6200027a565b62000355816200034e845462000290565b84620002cc565b602080601f8311600181146200038d5760008415620003745750858301515b600019600386901b1c1916600185901b17855562000318565b600085815260208120601f198616915b82811015620003be578886015182559484019460019091019084016200039d565b5085821015620003dd5787850151600019600388901b60f8161c191681555b5050505050600190811b01905550565b60006020808352835180602085015260005b818110156200041d57858101830151858201604001528201620003ff565b506000604082860101526040601f19601f8301168501019250505092915050565b80516020808301519190811015620002c65760001960209190910360031b1b16919050565b60805160a05160c05160e0516101005161012051610140516122e7620004be6000396000610f4e01526000610f2101526000610cbc01526000610c9401526000610bef01526000610c1901526000610c4301526122e76000f3fe608060405234801561001057600080fd5b50600436106101cf5760003560e01c8063715018a6116101045780639ab24eb0116100a2578063d505accf11610071578063d505accf146103f7578063dd62ed3e1461040a578063f1127ed814610443578063f2fde38b1461048257600080fd5b80639ab24eb0146103ab5780639dc29fac146103be578063a9059cbb146103d1578063c3cda520146103e457600080fd5b80638da5cb5b116100de5780638da5cb5b146103605780638e539e8c1461037157806391ddadf41461038457806395d89b41146103a357600080fd5b8063715018a61461032a5780637ecebe001461033257806384b0196e1461034557600080fd5b80633a46b1a811610171578063587cde1e1161014b578063587cde1e146102985780635c19a95c146102dc5780636fcfff45146102ef57806370a082311461031757600080fd5b80633a46b1a81461026a57806340c10f191461027d5780634bf5d7e91461029057600080fd5b806318160ddd116101ad57806318160ddd1461022a57806323b872dd14610240578063313ce567146102535780633644e5151461026257600080fd5b806306fdde03146101d4578063077f224a146101f2578063095ea7b314610207575b600080fd5b6101dc610495565b6040516101e99190611cc1565b60405180910390f35b610205610200366004611d93565b610527565b005b61021a610215366004611e07565b610574565b60405190151581526020016101e9565b61023261058e565b6040519081526020016101e9565b61021a61024e366004611e31565b61059e565b604051601281526020016101e9565b6102326105c2565b610232610278366004611e07565b6105cc565b61020561028b366004611e07565b610652565b6101dc610668565b6102c46102a6366004611e6d565b6001600160a01b039081166000908152600860205260409020541690565b6040516001600160a01b0390911681526020016101e9565b6102056102ea366004611e6d565b6106e0565b6103026102fd366004611e6d565b6106eb565b60405163ffffffff90911681526020016101e9565b610232610325366004611e6d565b6106f6565b610205610714565b610232610340366004611e6d565b610728565b61034d610733565b6040516101e99796959493929190611e88565b600b546001600160a01b03166102c4565b61023261037f366004611f21565b610779565b61038c6107e3565b60405165ffffffffffff90911681526020016101e9565b6101dc6107ed565b6102326103b9366004611e6d565b6107fc565b6102056103cc366004611e07565b61082c565b61021a6103df366004611e07565b61083e565b6102056103f2366004611f4b565b61084c565b610205610405366004611fa3565b610909565b61023261041836600461200d565b6001600160a01b03918216600090815260016020908152604080832093909416825291909152205490565b610456610451366004612040565b610a43565b60408051825165ffffffffffff1681526020928301516001600160d01b031692810192909252016101e9565b610205610490366004611e6d565b610a68565b6060600c80546104a490612080565b80601f01602080910402602001604051908101604052809291908181526020018280546104d090612080565b801561051d5780601f106104f25761010080835404028352916020019161051d565b820191906000526020600020905b81548152906001019060200180831161050057829003601f168201915b5050505050905090565b600c805461053490612080565b151590508061054257508251155b1561054c57600080fd5b600c610558848261210a565b50600d610565838261210a565b5061056f81610aa6565b505050565b600033610582818585610af8565b60019150505b92915050565b600061059960025490565b905090565b6000336105ac858285610b05565b6105b7858585610b83565b506001949350505050565b6000610599610be2565b6000806105d76107e3565b90508065ffffffffffff16831061061757604051637669fc0f60e11b81526004810184905265ffffffffffff821660248201526044015b60405180910390fd5b61064161062384610d0d565b6001600160a01b038616600090815260096020526040902090610d44565b6001600160d01b0316949350505050565b61065a610dfa565b6106648282610e27565b5050565b6060610672610e5d565b65ffffffffffff166106826107e3565b65ffffffffffff16146106a8576040516301bfc1c560e61b815260040160405180910390fd5b5060408051808201909152601d81527f6d6f64653d626c6f636b6e756d6265722666726f6d3d64656661756c74000000602082015290565b336106648183610e68565b600061058882610eda565b6001600160a01b038116600090815260208190526040812054610588565b61071c610dfa565b6107266000610aa6565b565b600061058882610efc565b600060608060008060006060610747610f1a565b61074f610f47565b60408051600080825260208201909252600f60f81b9b939a50919850469750309650945092509050565b6000806107846107e3565b90508065ffffffffffff1683106107bf57604051637669fc0f60e11b81526004810184905265ffffffffffff8216602482015260440161060e565b6107d36107cb84610d0d565b600a90610d44565b6001600160d01b03169392505050565b6000610599610e5d565b6060600d80546104a490612080565b6001600160a01b038116600090815260096020526040812061081d90610f74565b6001600160d01b031692915050565b610834610dfa565b6106648282610fad565b600033610582818585610b83565b8342111561087057604051632341d78760e11b81526004810185905260240161060e565b604080517fe48329057bfd03d55e49b547132e39cffd9c1820ad7b9d4c5307691425d15adf60208201526001600160a01b0388169181019190915260608101869052608081018590526000906108ea906108e29060a00160405160208183030381529060405280519060200120610fe3565b858585611010565b90506108f6818761103e565b6109008188610e68565b50505050505050565b8342111561092d5760405163313c898160e11b81526004810185905260240161060e565b60007f6e71edae12b1b97f4d1f60370fef10105fa2faae0126114a169c64845d6126c988888861097a8c6001600160a01b0316600090815260076020526040902080546001810190915590565b6040805160208101969096526001600160a01b0394851690860152929091166060840152608083015260a082015260c0810186905260e00160405160208183030381529060405280519060200120905060006109d582610fe3565b905060006109e582878787611010565b9050896001600160a01b0316816001600160a01b031614610a2c576040516325c0072360e11b81526001600160a01b0380831660048301528b16602482015260440161060e565b610a378a8a8a610af8565b50505050505050505050565b6040805180820190915260008082526020820152610a618383611091565b9392505050565b610a70610dfa565b6001600160a01b038116610a9a57604051631e4fbdf760e01b81526000600482015260240161060e565b610aa381610aa6565b50565b600b80546001600160a01b038381166001600160a01b0319831681179093556040519116919082907f8be0079c531659141344cd1fd0a4f28419497f9722a3daafe3b4186f6b6457e090600090a35050565b61056f83838360016110c7565b6001600160a01b038381166000908152600160209081526040808320938616835292905220546000198114610b7d5781811015610b6e57604051637dc7a0d960e11b81526001600160a01b0384166004820152602481018290526044810183905260640161060e565b610b7d848484840360006110c7565b50505050565b6001600160a01b038316610bad57604051634b637e8f60e11b81526000600482015260240161060e565b6001600160a01b038216610bd75760405163ec442f0560e01b81526000600482015260240161060e565b61056f83838361119c565b6000306001600160a01b037f000000000000000000000000000000000000000000000000000000000000000016148015610c3b57507f000000000000000000000000000000000000000000000000000000000000000046145b15610c6557507f000000000000000000000000000000000000000000000000000000000000000090565b610599604080517f8b73c3c69bb8fe3d512ecc4cf759cc79239f7b179b0ffacaa9a75d522b39400f60208201527f0000000000000000000000000000000000000000000000000000000000000000918101919091527f000000000000000000000000000000000000000000000000000000000000000060608201524660808201523060a082015260009060c00160405160208183030381529060405280519060200120905090565b600065ffffffffffff821115610d40576040516306dfcc6560e41b8152603060048201526024810183905260440161060e565b5090565b815460009081816005811115610da3576000610d5f846111a7565b610d6990856121e0565b60008881526020902090915081015465ffffffffffff9081169087161015610d9357809150610da1565b610d9e8160016121f3565b92505b505b6000610db18787858561128f565b90508015610dec57610dd687610dc86001846121e0565b600091825260209091200190565b54600160301b90046001600160d01b0316610def565b60005b979650505050505050565b600b546001600160a01b031633146107265760405163118cdaa760e01b815233600482015260240161060e565b6001600160a01b038216610e515760405163ec442f0560e01b81526000600482015260240161060e565b6106646000838361119c565b600061059943610d0d565b6001600160a01b0382811660008181526008602052604080822080548686166001600160a01b0319821681179092559151919094169392849290917f3134e8a2e6d97e929a7e54011ea5485d7d196dd5f0ba4d4ef95803e8e3fc257f9190a461056f8183610ed5866112f1565b6112fc565b6001600160a01b03811660009081526009602052604081205461058890611468565b6001600160a01b038116600090815260076020526040812054610588565b60606105997f00000000000000000000000000000000000000000000000000000000000000006005611499565b60606105997f00000000000000000000000000000000000000000000000000000000000000006006611499565b80546000908015610fa457610f8e83610dc86001846121e0565b54600160301b90046001600160d01b0316610a61565b60009392505050565b6001600160a01b038216610fd757604051634b637e8f60e11b81526000600482015260240161060e565b6106648260008361119c565b6000610588610ff0610be2565b8360405161190160f01b8152600281019290925260228201526042902090565b60008060008061102288888888611544565b9250925092506110328282611613565b50909695505050505050565b6001600160a01b038216600090815260076020526040902080546001810190915581811461056f576040516301d4b62360e61b81526001600160a01b03841660048201526024810182905260440161060e565b60408051808201909152600080825260208201526001600160a01b0383166000908152600960205260409020610a6190836116cc565b6001600160a01b0384166110f15760405163e602df0560e01b81526000600482015260240161060e565b6001600160a01b03831661111b57604051634a1406b160e11b81526000600482015260240161060e565b6001600160a01b0380851660009081526001602090815260408083209387168352929052208290558015610b7d57826001600160a01b0316846001600160a01b03167f8c5be1e5ebec7d5bd14f71427d1e84f3dd0314c0f7b2291e5b200ac8c7c3b9258460405161118e91815260200190565b60405180910390a350505050565b61056f83838361173c565b6000816000036111b957506000919050565b600060016111c6846117a2565b901c6001901b905060018184816111df576111df612206565b048201901c905060018184816111f7576111f7612206565b048201901c9050600181848161120f5761120f612206565b048201901c9050600181848161122757611227612206565b048201901c9050600181848161123f5761123f612206565b048201901c9050600181848161125757611257612206565b048201901c9050600181848161126f5761126f612206565b048201901c9050610a618182858161128957611289612206565b04611836565b60005b818310156112e95760006112a6848461184c565b60008781526020902090915065ffffffffffff86169082015465ffffffffffff1611156112d5578092506112e3565b6112e08160016121f3565b93505b50611292565b509392505050565b6000610588826106f6565b816001600160a01b0316836001600160a01b03161415801561131e5750600081115b1561056f576001600160a01b038316156113c6576001600160a01b038316600090815260096020526040812081906113619061186761135c86611873565b6118a7565b6001600160d01b031691506001600160d01b03169150846001600160a01b03167fdec2bacdd2f05b59de34da9b523dff8be42e5e38e818c82fdb0bae774387a72483836040516113bb929190918252602082015260400190565b60405180910390a250505b6001600160a01b0382161561056f576001600160a01b038216600090815260096020526040812081906113ff906118e061135c86611873565b6001600160d01b031691506001600160d01b03169150836001600160a01b03167fdec2bacdd2f05b59de34da9b523dff8be42e5e38e818c82fdb0bae774387a7248383604051611459929190918252602082015260400190565b60405180910390a25050505050565b600063ffffffff821115610d40576040516306dfcc6560e41b8152602060048201526024810183905260440161060e565b606060ff83146114b3576114ac836118ec565b9050610588565b8180546114bf90612080565b80601f01602080910402602001604051908101604052809291908181526020018280546114eb90612080565b80156115385780601f1061150d57610100808354040283529160200191611538565b820191906000526020600020905b81548152906001019060200180831161151b57829003601f168201915b50505050509050610588565b600080807f7fffffffffffffffffffffffffffffff5d576e7357a4501ddfe92f46681b20a084111561157f5750600091506003905082611609565b604080516000808252602082018084528a905260ff891692820192909252606081018790526080810186905260019060a0016020604051602081039080840390855afa1580156115d3573d6000803e3d6000fd5b5050604051601f1901519150506001600160a01b0381166115ff57506000925060019150829050611609565b9250600091508190505b9450945094915050565b60008260038111156116275761162761221c565b03611630575050565b60018260038111156116445761164461221c565b036116625760405163f645eedf60e01b815260040160405180910390fd5b60028260038111156116765761167661221c565b036116975760405163fce698f760e01b81526004810182905260240161060e565b60038260038111156116ab576116ab61221c565b03610664576040516335e2f38360e21b81526004810182905260240161060e565b6040805180820190915260008082526020820152826000018263ffffffff16815481106116fb576116fb612232565b60009182526020918290206040805180820190915291015465ffffffffffff81168252600160301b90046001600160d01b0316918101919091529392505050565b61174783838361192b565b6001600160a01b03831661179757600061175f61058e565b90506001600160d01b038082111561179457604051630e58ae9360e11b8152600481018390526024810182905260440161060e565b50505b61056f838383611a55565b600080608083901c156117b757608092831c92015b604083901c156117c957604092831c92015b602083901c156117db57602092831c92015b601083901c156117ed57601092831c92015b600883901c156117ff57600892831c92015b600483901c1561181157600492831c92015b600283901c1561182357600292831c92015b600183901c156105885760010192915050565b60008183106118455781610a61565b5090919050565b600061185b6002848418612248565b610a61908484166121f3565b6000610a61828461226a565b60006001600160d01b03821115610d40576040516306dfcc6560e41b815260d060048201526024810183905260440161060e565b6000806118d36118b56107e3565b6118cb6118c188610f74565b868863ffffffff16565b879190611acb565b915091505b935093915050565b6000610a618284612291565b606060006118f983611ad9565b604080516020808252818301909252919250600091906020820181803683375050509182525060208101929092525090565b6001600160a01b03831661195657806002600082825461194b91906121f3565b909155506119c89050565b6001600160a01b038316600090815260208190526040902054818110156119a95760405163391434e360e21b81526001600160a01b0385166004820152602481018290526044810183905260640161060e565b6001600160a01b03841660009081526020819052604090209082900390555b6001600160a01b0382166119e457600280548290039055611a03565b6001600160a01b03821660009081526020819052604090208054820190555b816001600160a01b0316836001600160a01b03167fddf252ad1be2c89b69c2b068fc378daa952ba7f163c4a11628f55a4df523b3ef83604051611a4891815260200190565b60405180910390a3505050565b6001600160a01b038316611a7757611a74600a6118e061135c84611873565b50505b6001600160a01b038216611a9957611a96600a61186761135c84611873565b50505b6001600160a01b0383811660009081526008602052604080822054858416835291205461056f929182169116836112fc565b6000806118d3858585611b01565b600060ff8216601f81111561058857604051632cd44ac360e21b815260040160405180910390fd5b825460009081908015611c20576000611b1f87610dc86001856121e0565b60408051808201909152905465ffffffffffff808216808452600160301b9092046001600160d01b031660208401529192509087161015611b7357604051632520601d60e01b815260040160405180910390fd5b805165ffffffffffff808816911603611bbf5784611b9688610dc86001866121e0565b80546001600160d01b0392909216600160301b0265ffffffffffff909216919091179055611c10565b6040805180820190915265ffffffffffff80881682526001600160d01b0380881660208085019182528b54600181018d5560008d81529190912094519151909216600160301b029216919091179101555b6020015192508391506118d89050565b50506040805180820190915265ffffffffffff80851682526001600160d01b0380851660208085019182528854600181018a5560008a815291822095519251909316600160301b0291909316179201919091559050816118d8565b6000815180845260005b81811015611ca157602081850181015186830182015201611c85565b506000602082860101526020601f19601f83011685010191505092915050565b602081526000610a616020830184611c7b565b634e487b7160e01b600052604160045260246000fd5b600082601f830112611cfb57600080fd5b813567ffffffffffffffff80821115611d1657611d16611cd4565b604051601f8301601f19908116603f01168101908282118183101715611d3e57611d3e611cd4565b81604052838152866020858801011115611d5757600080fd5b836020870160208301376000602085830101528094505050505092915050565b80356001600160a01b0381168114611d8e57600080fd5b919050565b600080600060608486031215611da857600080fd5b833567ffffffffffffffff80821115611dc057600080fd5b611dcc87838801611cea565b94506020860135915080821115611de257600080fd5b50611def86828701611cea565b925050611dfe60408501611d77565b90509250925092565b60008060408385031215611e1a57600080fd5b611e2383611d77565b946020939093013593505050565b600080600060608486031215611e4657600080fd5b611e4f84611d77565b9250611e5d60208501611d77565b9150604084013590509250925092565b600060208284031215611e7f57600080fd5b610a6182611d77565b60ff60f81b881681526000602060e06020840152611ea960e084018a611c7b565b8381036040850152611ebb818a611c7b565b606085018990526001600160a01b038816608086015260a0850187905284810360c08601528551808252602080880193509091019060005b81811015611f0f57835183529284019291840191600101611ef3565b50909c9b505050505050505050505050565b600060208284031215611f3357600080fd5b5035919050565b803560ff81168114611d8e57600080fd5b60008060008060008060c08789031215611f6457600080fd5b611f6d87611d77565b95506020870135945060408701359350611f8960608801611f3a565b92506080870135915060a087013590509295509295509295565b600080600080600080600060e0888a031215611fbe57600080fd5b611fc788611d77565b9650611fd560208901611d77565b95506040880135945060608801359350611ff160808901611f3a565b925060a0880135915060c0880135905092959891949750929550565b6000806040838503121561202057600080fd5b61202983611d77565b915061203760208401611d77565b90509250929050565b6000806040838503121561205357600080fd5b61205c83611d77565b9150602083013563ffffffff8116811461207557600080fd5b809150509250929050565b600181811c9082168061209457607f821691505b6020821081036120b457634e487b7160e01b600052602260045260246000fd5b50919050565b601f82111561056f576000816000526020600020601f850160051c810160208610156120e35750805b601f850160051c820191505b81811015612102578281556001016120ef565b505050505050565b815167ffffffffffffffff81111561212457612124611cd4565b612138816121328454612080565b846120ba565b602080601f83116001811461216d57600084156121555750858301515b600019600386901b1c1916600185901b178555612102565b600085815260208120601f198616915b8281101561219c5788860151825594840194600190910190840161217d565b50858210156121ba5787850151600019600388901b60f8161c191681555b5050505050600190811b01905550565b634e487b7160e01b600052601160045260246000fd5b81810381811115610588576105886121ca565b80820180821115610588576105886121ca565b634e487b7160e01b600052601260045260246000fd5b634e487b7160e01b600052602160045260246000fd5b634e487b7160e01b600052603260045260246000fd5b60008261226557634e487b7160e01b600052601260045260246000fd5b500490565b6001600160d01b0382811682821603908082111561228a5761228a6121ca565b5092915050565b6001600160d01b0381811683821601908082111561228a5761228a6121ca56fea26469706673582212201c5d22b032fc069bdb8c68c29c0a4ead7d630f5be7159a0c28c4f13fbe1b9d2564736f6c63430008170033",
			"deployedBytecode": "0x608060405234801561001057600080fd5b50600436106101cf5760003560e01c8063715018a6116101045780639ab24eb0116100a2578063d505accf11610071578063d505accf146103f7578063dd62ed3e1461040a578063f1127ed814610443578063f2fde38b1461048257600080fd5b80639ab24eb0146103ab5780639dc29fac146103be578063a9059cbb146103d1578063c3cda520146103e457600080fd5b80638da5cb5b116100de5780638da5cb5b146103605780638e539e8c1461037157806391ddadf41461038457806395d89b41146103a357600080fd5b8063715018a61461032a5780637ecebe001461033257806384b0196e1461034557600080fd5b80633a46b1a811610171578063587cde1e1161014b578063587cde1e146102985780635c19a95c146102dc5780636fcfff45146102ef57806370a082311461031757600080fd5b80633a46b1a81461026a57806340c10f191461027d5780634bf5d7e91461029057600080fd5b806318160ddd116101ad57806318160ddd1461022a57806323b872dd14610240578063313ce567146102535780633644e5151461026257600080fd5b806306fdde03146101d4578063077f224a146101f2578063095ea7b314610207575b600080fd5b6101dc610495565b6040516101e99190611cc1565b60405180910390f35b610205610200366004611d93565b610527565b005b61021a610215366004611e07565b610574565b60405190151581526020016101e9565b61023261058e565b6040519081526020016101e9565b61021a61024e366004611e31565b61059e565b604051601281526020016101e9565b6102326105c2565b610232610278366004611e07565b6105cc565b61020561028b366004611e07565b610652565b6101dc610668565b6102c46102a6366004611e6d565b6001600160a01b039081166000908152600860205260409020541690565b6040516001600160a01b0390911681526020016101e9565b6102056102ea366004611e6d565b6106e0565b6103026102fd366004611e6d565b6106eb565b60405163ffffffff90911681526020016101e9565b610232610325366004611e6d565b6106f6565b610205610714565b610232610340366004611e6d565b610728565b61034d610733565b6040516101e99796959493929190611e88565b600b546001600160a01b03166102c4565b61023261037f366004611f21565b610779565b61038c6107e3565b60405165ffffffffffff90911681526020016101e9565b6101dc6107ed565b6102326103b9366004611e6d565b6107fc565b6102056103cc366004611e07565b61082c565b61021a6103df366004611e07565b61083e565b6102056103f2366004611f4b565b61084c565b610205610405366004611fa3565b610909565b61023261041836600461200d565b6001600160a01b03918216600090815260016020908152604080832093909416825291909152205490565b610456610451366004612040565b610a43565b60408051825165ffffffffffff1681526020928301516001600160d01b031692810192909252016101e9565b610205610490366004611e6d565b610a68565b6060600c80546104a490612080565b80601f01602080910402602001604051908101604052809291908181526020018280546104d090612080565b801561051d5780601f106104f25761010080835404028352916020019161051d565b820191906000526020600020905b81548152906001019060200180831161050057829003601f168201915b5050505050905090565b600c805461053490612080565b151590508061054257508251155b1561054c57600080fd5b600c610558848261210a565b50600d610565838261210a565b5061056f81610aa6565b505050565b600033610582818585610af8565b60019150505b92915050565b600061059960025490565b905090565b6000336105ac858285610b05565b6105b7858585610b83565b506001949350505050565b6000610599610be2565b6000806105d76107e3565b90508065ffffffffffff16831061061757604051637669fc0f60e11b81526004810184905265ffffffffffff821660248201526044015b60405180910390fd5b61064161062384610d0d565b6001600160a01b038616600090815260096020526040902090610d44565b6001600160d01b0316949350505050565b61065a610dfa565b6106648282610e27565b5050565b6060610672610e5d565b65ffffffffffff166106826107e3565b65ffffffffffff16146106a8576040516301bfc1c560e61b815260040160405180910390fd5b5060408051808201909152601d81527f6d6f64653d626c6f636b6e756d6265722666726f6d3d64656661756c74000000602082015290565b336106648183610e68565b600061058882610eda565b6001600160a01b038116600090815260208190526040812054610588565b61071c610dfa565b6107266000610aa6565b565b600061058882610efc565b600060608060008060006060610747610f1a565b61074f610f47565b60408051600080825260208201909252600f60f81b9b939a50919850469750309650945092509050565b6000806107846107e3565b90508065ffffffffffff1683106107bf57604051637669fc0f60e11b81526004810184905265ffffffffffff8216602482015260440161060e565b6107d36107cb84610d0d565b600a90610d44565b6001600160d01b03169392505050565b6000610599610e5d565b6060600d80546104a490612080565b6001600160a01b038116600090815260096020526040812061081d90610f74565b6001600160d01b031692915050565b610834610dfa565b6106648282610fad565b600033610582818585610b83565b8342111561087057604051632341d78760e11b81526004810185905260240161060e565b604080517fe48329057bfd03d55e49b547132e39cffd9c1820ad7b9d4c5307691425d15adf60208201526001600160a01b0388169181019190915260608101869052608081018590526000906108ea906108e29060a00160405160208183030381529060405280519060200120610fe3565b858585611010565b90506108f6818761103e565b6109008188610e68565b50505050505050565b8342111561092d5760405163313c898160e11b81526004810185905260240161060e565b60007f6e71edae12b1b97f4d1f60370fef10105fa2faae0126114a169c64845d6126c988888861097a8c6001600160a01b0316600090815260076020526040902080546001810190915590565b6040805160208101969096526001600160a01b0394851690860152929091166060840152608083015260a082015260c0810186905260e00160405160208183030381529060405280519060200120905060006109d582610fe3565b905060006109e582878787611010565b9050896001600160a01b0316816001600160a01b031614610a2c576040516325c0072360e11b81526001600160a01b0380831660048301528b16602482015260440161060e565b610a378a8a8a610af8565b50505050505050505050565b6040805180820190915260008082526020820152610a618383611091565b9392505050565b610a70610dfa565b6001600160a01b038116610a9a57604051631e4fbdf760e01b81526000600482015260240161060e565b610aa381610aa6565b50565b600b80546001600160a01b038381166001600160a01b0319831681179093556040519116919082907f8be0079c531659141344cd1fd0a4f28419497f9722a3daafe3b4186f6b6457e090600090a35050565b61056f83838360016110c7565b6001600160a01b038381166000908152600160209081526040808320938616835292905220546000198114610b7d5781811015610b6e57604051637dc7a0d960e11b81526001600160a01b0384166004820152602481018290526044810183905260640161060e565b610b7d848484840360006110c7565b50505050565b6001600160a01b038316610bad57604051634b637e8f60e11b81526000600482015260240161060e565b6001600160a01b038216610bd75760405163ec442f0560e01b81526000600482015260240161060e565b61056f83838361119c565b6000306001600160a01b037f000000000000000000000000affac6609245eb93123a4cecfaf6d78a249bf12716148015610c3b57507f0000000000000000000000000000000000000000000000000000000000aa37dc46145b15610c6557507f6f27b791929b3eef712d4dc632d9041fc9531f7480e9f2cd38bd2691621b8e6890565b610599604080517f8b73c3c69bb8fe3d512ecc4cf759cc79239f7b179b0ffacaa9a75d522b39400f60208201527f9c7cae8524849651857e41dcb0fe4f4ab844f18147824e3e8bf5d526700f2c36918101919091527fc89efdaa54c0f20c7adf612882df0950f5a951637e0307cdcb4c672f298b8bc660608201524660808201523060a082015260009060c00160405160208183030381529060405280519060200120905090565b600065ffffffffffff821115610d40576040516306dfcc6560e41b8152603060048201526024810183905260440161060e565b5090565b815460009081816005811115610da3576000610d5f846111a7565b610d6990856121e0565b60008881526020902090915081015465ffffffffffff9081169087161015610d9357809150610da1565b610d9e8160016121f3565b92505b505b6000610db18787858561128f565b90508015610dec57610dd687610dc86001846121e0565b600091825260209091200190565b54600160301b90046001600160d01b0316610def565b60005b979650505050505050565b600b546001600160a01b031633146107265760405163118cdaa760e01b815233600482015260240161060e565b6001600160a01b038216610e515760405163ec442f0560e01b81526000600482015260240161060e565b6106646000838361119c565b600061059943610d0d565b6001600160a01b0382811660008181526008602052604080822080548686166001600160a01b0319821681179092559151919094169392849290917f3134e8a2e6d97e929a7e54011ea5485d7d196dd5f0ba4d4ef95803e8e3fc257f9190a461056f8183610ed5866112f1565b6112fc565b6001600160a01b03811660009081526009602052604081205461058890611468565b6001600160a01b038116600090815260076020526040812054610588565b60606105997f4a42546f6b656e000000000000000000000000000000000000000000000000076005611499565b60606105997f31000000000000000000000000000000000000000000000000000000000000016006611499565b80546000908015610fa457610f8e83610dc86001846121e0565b54600160301b90046001600160d01b0316610a61565b60009392505050565b6001600160a01b038216610fd757604051634b637e8f60e11b81526000600482015260240161060e565b6106648260008361119c565b6000610588610ff0610be2565b8360405161190160f01b8152600281019290925260228201526042902090565b60008060008061102288888888611544565b9250925092506110328282611613565b50909695505050505050565b6001600160a01b038216600090815260076020526040902080546001810190915581811461056f576040516301d4b62360e61b81526001600160a01b03841660048201526024810182905260440161060e565b60408051808201909152600080825260208201526001600160a01b0383166000908152600960205260409020610a6190836116cc565b6001600160a01b0384166110f15760405163e602df0560e01b81526000600482015260240161060e565b6001600160a01b03831661111b57604051634a1406b160e11b81526000600482015260240161060e565b6001600160a01b0380851660009081526001602090815260408083209387168352929052208290558015610b7d57826001600160a01b0316846001600160a01b03167f8c5be1e5ebec7d5bd14f71427d1e84f3dd0314c0f7b2291e5b200ac8c7c3b9258460405161118e91815260200190565b60405180910390a350505050565b61056f83838361173c565b6000816000036111b957506000919050565b600060016111c6846117a2565b901c6001901b905060018184816111df576111df612206565b048201901c905060018184816111f7576111f7612206565b048201901c9050600181848161120f5761120f612206565b048201901c9050600181848161122757611227612206565b048201901c9050600181848161123f5761123f612206565b048201901c9050600181848161125757611257612206565b048201901c9050600181848161126f5761126f612206565b048201901c9050610a618182858161128957611289612206565b04611836565b60005b818310156112e95760006112a6848461184c565b60008781526020902090915065ffffffffffff86169082015465ffffffffffff1611156112d5578092506112e3565b6112e08160016121f3565b93505b50611292565b509392505050565b6000610588826106f6565b816001600160a01b0316836001600160a01b03161415801561131e5750600081115b1561056f576001600160a01b038316156113c6576001600160a01b038316600090815260096020526040812081906113619061186761135c86611873565b6118a7565b6001600160d01b031691506001600160d01b03169150846001600160a01b03167fdec2bacdd2f05b59de34da9b523dff8be42e5e38e818c82fdb0bae774387a72483836040516113bb929190918252602082015260400190565b60405180910390a250505b6001600160a01b0382161561056f576001600160a01b038216600090815260096020526040812081906113ff906118e061135c86611873565b6001600160d01b031691506001600160d01b03169150836001600160a01b03167fdec2bacdd2f05b59de34da9b523dff8be42e5e38e818c82fdb0bae774387a7248383604051611459929190918252602082015260400190565b60405180910390a25050505050565b600063ffffffff821115610d40576040516306dfcc6560e41b8152602060048201526024810183905260440161060e565b606060ff83146114b3576114ac836118ec565b9050610588565b8180546114bf90612080565b80601f01602080910402602001604051908101604052809291908181526020018280546114eb90612080565b80156115385780601f1061150d57610100808354040283529160200191611538565b820191906000526020600020905b81548152906001019060200180831161151b57829003601f168201915b50505050509050610588565b600080807f7fffffffffffffffffffffffffffffff5d576e7357a4501ddfe92f46681b20a084111561157f5750600091506003905082611609565b604080516000808252602082018084528a905260ff891692820192909252606081018790526080810186905260019060a0016020604051602081039080840390855afa1580156115d3573d6000803e3d6000fd5b5050604051601f1901519150506001600160a01b0381166115ff57506000925060019150829050611609565b9250600091508190505b9450945094915050565b60008260038111156116275761162761221c565b03611630575050565b60018260038111156116445761164461221c565b036116625760405163f645eedf60e01b815260040160405180910390fd5b60028260038111156116765761167661221c565b036116975760405163fce698f760e01b81526004810182905260240161060e565b60038260038111156116ab576116ab61221c565b03610664576040516335e2f38360e21b81526004810182905260240161060e565b6040805180820190915260008082526020820152826000018263ffffffff16815481106116fb576116fb612232565b60009182526020918290206040805180820190915291015465ffffffffffff81168252600160301b90046001600160d01b0316918101919091529392505050565b61174783838361192b565b6001600160a01b03831661179757600061175f61058e565b90506001600160d01b038082111561179457604051630e58ae9360e11b8152600481018390526024810182905260440161060e565b50505b61056f838383611a55565b600080608083901c156117b757608092831c92015b604083901c156117c957604092831c92015b602083901c156117db57602092831c92015b601083901c156117ed57601092831c92015b600883901c156117ff57600892831c92015b600483901c1561181157600492831c92015b600283901c1561182357600292831c92015b600183901c156105885760010192915050565b60008183106118455781610a61565b5090919050565b600061185b6002848418612248565b610a61908484166121f3565b6000610a61828461226a565b60006001600160d01b03821115610d40576040516306dfcc6560e41b815260d060048201526024810183905260440161060e565b6000806118d36118b56107e3565b6118cb6118c188610f74565b868863ffffffff16565b879190611acb565b915091505b935093915050565b6000610a618284612291565b606060006118f983611ad9565b604080516020808252818301909252919250600091906020820181803683375050509182525060208101929092525090565b6001600160a01b03831661195657806002600082825461194b91906121f3565b909155506119c89050565b6001600160a01b038316600090815260208190526040902054818110156119a95760405163391434e360e21b81526001600160a01b0385166004820152602481018290526044810183905260640161060e565b6001600160a01b03841660009081526020819052604090209082900390555b6001600160a01b0382166119e457600280548290039055611a03565b6001600160a01b03821660009081526020819052604090208054820190555b816001600160a01b0316836001600160a01b03167fddf252ad1be2c89b69c2b068fc378daa952ba7f163c4a11628f55a4df523b3ef83604051611a4891815260200190565b60405180910390a3505050565b6001600160a01b038316611a7757611a74600a6118e061135c84611873565b50505b6001600160a01b038216611a9957611a96600a61186761135c84611873565b50505b6001600160a01b0383811660009081526008602052604080822054858416835291205461056f929182169116836112fc565b6000806118d3858585611b01565b600060ff8216601f81111561058857604051632cd44ac360e21b815260040160405180910390fd5b825460009081908015611c20576000611b1f87610dc86001856121e0565b60408051808201909152905465ffffffffffff808216808452600160301b9092046001600160d01b031660208401529192509087161015611b7357604051632520601d60e01b815260040160405180910390fd5b805165ffffffffffff808816911603611bbf5784611b9688610dc86001866121e0565b80546001600160d01b0392909216600160301b0265ffffffffffff909216919091179055611c10565b6040805180820190915265ffffffffffff80881682526001600160d01b0380881660208085019182528b54600181018d5560008d81529190912094519151909216600160301b029216919091179101555b6020015192508391506118d89050565b50506040805180820190915265ffffffffffff80851682526001600160d01b0380851660208085019182528854600181018a5560008a815291822095519251909316600160301b0291909316179201919091559050816118d8565b6000815180845260005b81811015611ca157602081850181015186830182015201611c85565b506000602082860101526020601f19601f83011685010191505092915050565b602081526000610a616020830184611c7b565b634e487b7160e01b600052604160045260246000fd5b600082601f830112611cfb57600080fd5b813567ffffffffffffffff80821115611d1657611d16611cd4565b604051601f8301601f19908116603f01168101908282118183101715611d3e57611d3e611cd4565b81604052838152866020858801011115611d5757600080fd5b836020870160208301376000602085830101528094505050505092915050565b80356001600160a01b0381168114611d8e57600080fd5b919050565b600080600060608486031215611da857600080fd5b833567ffffffffffffffff80821115611dc057600080fd5b611dcc87838801611cea565b94506020860135915080821115611de257600080fd5b50611def86828701611cea565b925050611dfe60408501611d77565b90509250925092565b60008060408385031215611e1a57600080fd5b611e2383611d77565b946020939093013593505050565b600080600060608486031215611e4657600080fd5b611e4f84611d77565b9250611e5d60208501611d77565b9150604084013590509250925092565b600060208284031215611e7f57600080fd5b610a6182611d77565b60ff60f81b881681526000602060e06020840152611ea960e084018a611c7b565b8381036040850152611ebb818a611c7b565b606085018990526001600160a01b038816608086015260a0850187905284810360c08601528551808252602080880193509091019060005b81811015611f0f57835183529284019291840191600101611ef3565b50909c9b505050505050505050505050565b600060208284031215611f3357600080fd5b5035919050565b803560ff81168114611d8e57600080fd5b60008060008060008060c08789031215611f6457600080fd5b611f6d87611d77565b95506020870135945060408701359350611f8960608801611f3a565b92506080870135915060a087013590509295509295509295565b600080600080600080600060e0888a031215611fbe57600080fd5b611fc788611d77565b9650611fd560208901611d77565b95506040880135945060608801359350611ff160808901611f3a565b925060a0880135915060c0880135905092959891949750929550565b6000806040838503121561202057600080fd5b61202983611d77565b915061203760208401611d77565b90509250929050565b6000806040838503121561205357600080fd5b61205c83611d77565b9150602083013563ffffffff8116811461207557600080fd5b809150509250929050565b600181811c9082168061209457607f821691505b6020821081036120b457634e487b7160e01b600052602260045260246000fd5b50919050565b601f82111561056f576000816000526020600020601f850160051c810160208610156120e35750805b601f850160051c820191505b81811015612102578281556001016120ef565b505050505050565b815167ffffffffffffffff81111561212457612124611cd4565b612138816121328454612080565b846120ba565b602080601f83116001811461216d57600084156121555750858301515b600019600386901b1c1916600185901b178555612102565b600085815260208120601f198616915b8281101561219c5788860151825594840194600190910190840161217d565b50858210156121ba5787850151600019600388901b60f8161c191681555b5050505050600190811b01905550565b634e487b7160e01b600052601160045260246000fd5b81810381811115610588576105886121ca565b80820180821115610588576105886121ca565b634e487b7160e01b600052601260045260246000fd5b634e487b7160e01b600052602160045260246000fd5b634e487b7160e01b600052603260045260246000fd5b60008261226557634e487b7160e01b600052601260045260246000fd5b500490565b6001600160d01b0382811682821603908082111561228a5761228a6121ca565b5092915050565b6001600160d01b0381811683821601908082111561228a5761228a6121ca56fea26469706673582212201c5d22b032fc069bdb8c68c29c0a4ead7d630f5be7159a0c28c4f13fbe1b9d2564736f6c63430008170033",
			"devdoc": {
				"kind": "dev",
				"methods": {
					"CLOCK_MODE()": {
						"details": "Machine-readable description of the clock as specified in EIP-6372."
					},
					"DOMAIN_SEPARATOR()": {
						"details": "Returns the domain separator used in the encoding of the signature for {permit}, as defined by {EIP712}."
					},
					"allowance(address,address)": {
						"details": "See {IERC20-allowance}."
					},
					"approve(address,uint256)": {
						"details": "See {IERC20-approve}. NOTE: If `value` is the maximum `uint256`, the allowance is not updated on `transferFrom`. This is semantically equivalent to an infinite approval. Requirements: - `spender` cannot be the zero address."
					},
					"balanceOf(address)": {
						"params": {
							"account": "The account to get the balance of."
						},
						"returns": {
							"_0": "The number of tokens owned by the `account`, as a fixed point number with 18 decimals."
						}
					},
					"burn(address,uint256)": {
						"details": "Can only be called by this contract's owner.",
						"params": {
							"account": "The address to burn tokens from.",
							"amount": "The amount of tokens to burn, as a fixed point number with 18 decimals."
						}
					},
					"checkpoints(address,uint32)": {
						"details": "Get the `pos`-th checkpoint for `account`."
					},
					"clock()": {
						"details": "Clock used for flagging checkpoints. Can be overridden to implement timestamp based checkpoints (and voting), in which case {CLOCK_MODE} should be overridden as well to match."
					},
					"decimals()": {
						"returns": {
							"_0": "The number of decimals."
						}
					},
					"delegate(address)": {
						"details": "Delegates votes from the sender to `delegatee`."
					},
					"delegateBySig(address,uint256,uint256,uint8,bytes32,bytes32)": {
						"details": "Delegates votes from signer to `delegatee`."
					},
					"delegates(address)": {
						"details": "Returns the delegate that `account` has chosen."
					},
					"eip712Domain()": {
						"details": "See {IERC-5267}."
					},
					"getPastTotalSupply(uint256)": {
						"details": "Returns the total supply of votes available at a specific moment in the past. If the `clock()` is configured to use block numbers, this will return the value at the end of the corresponding block. NOTE: This value is the sum of all available votes, which is not necessarily the sum of all delegated votes. Votes that have not been delegated are still part of total supply, even though they would not participate in a vote. Requirements: - `timepoint` must be in the past. If operating using block numbers, the block must be already mined."
					},
					"getPastVotes(address,uint256)": {
						"details": "Returns the amount of votes that `account` had at a specific moment in the past. If the `clock()` is configured to use block numbers, this will return the value at the end of the corresponding block. Requirements: - `timepoint` must be in the past. If operating using block numbers, the block must be already mined."
					},
					"getVotes(address)": {
						"details": "Returns the current amount of votes that `account` has."
					},
					"initialize(string,string,address)": {
						"params": {
							"name_": "The token's name.",
							"owner": "The token contract's owner.",
							"symbol_": "The token's symbol."
						}
					},
					"mint(address,uint256)": {
						"details": "Can only be called by this contract's owner.",
						"params": {
							"account": "The address to mint the new tokens to.",
							"amount": "The amount of tokens to mint, as a fixed point number with 18 decimals."
						}
					},
					"numCheckpoints(address)": {
						"details": "Get number of checkpoints for `account`."
					},
					"owner()": {
						"details": "Returns the address of the current owner."
					},
					"permit(address,address,uint256,uint256,uint8,bytes32,bytes32)": {
						"details": "Sets `value` as the allowance of `spender` over ``owner``'s tokens, given ``owner``'s signed approval. IMPORTANT: The same issues {IERC20-approve} has related to transaction ordering also apply here. Emits an {Approval} event. Requirements: - `spender` cannot be the zero address. - `deadline` must be a timestamp in the future. - `v`, `r` and `s` must be a valid `secp256k1` signature from `owner` over the EIP712-formatted function arguments. - the signature must use ``owner``'s current nonce (see {nonces}). For more information on the signature format, see the https://eips.ethereum.org/EIPS/eip-2612#specification[relevant EIP section]. CAUTION: See Security Considerations above."
					},
					"renounceOwnership()": {
						"details": "Leaves the contract without owner. It will not be possible to call `onlyOwner` functions. Can only be called by the current owner. NOTE: Renouncing ownership will leave the contract without an owner, thereby disabling any functionality that is only available to the owner."
					},
					"totalSupply()": {
						"returns": {
							"_0": "The total supply of this ERC20, as a fixed point number."
						}
					},
					"transfer(address,uint256)": {
						"details": "See {IERC20-transfer}. Requirements: - `to` cannot be the zero address. - the caller must have a balance of at least `value`."
					},
					"transferFrom(address,address,uint256)": {
						"details": "See {IERC20-transferFrom}. Emits an {Approval} event indicating the updated allowance. This is not required by the EIP. See the note at the beginning of {ERC20}. NOTE: Does not update the allowance if the current allowance is the maximum `uint256`. Requirements: - `from` and `to` cannot be the zero address. - `from` must have a balance of at least `value`. - the caller must have allowance for ``from``'s tokens of at least `value`."
					},
					"transferOwnership(address)": {
						"details": "Transfers ownership of the contract to a new account (`newOwner`). Can only be called by the current owner."
					}
				},
				"version": 1
			},
			"userdoc": {
				"kind": "user",
				"methods": {
					"balanceOf(address)": {
						"notice": "The balance of the given address."
					},
					"burn(address,uint256)": {
						"notice": "Burn some outstanding tokens."
					},
					"decimals()": {
						"notice": "The number of decimals used for this token's fixed point accounting."
					},
					"initialize(string,string,address)": {
						"notice": "Initializes the token."
					},
					"mint(address,uint256)": {
						"notice": "Mints more of this token."
					},
					"name()": {
						"notice": "The token's name."
					},
					"nonces(address)": {
						"notice": "Required override."
					},
					"symbol()": {
						"notice": "The token's symbol."
					},
					"totalSupply()": {
						"notice": "The total supply of this ERC20 i.e. the total number of tokens in existence."
					}
				},
				"version": 1
			},
			"gitCommit": "e6ea9467ae7d4f2046989fda11961b007525098a",
			"sourceName": "src/JBERC20.sol",
			"chainId": "11155420",
			"linkReferences": {},
			"deployedLinkReferences": {}
		},
		{
			"_format": "sphinx-sol-ct-artifact-1",
			"merkleRoot": "0xeb76efeb8f97c5cb80ab72b380ea5b356ede5f4abbf2a0c560104f8a80b45857",
			"contractName": "JBERC20",
			"address": "0x0496459b91e393950C4c5B71a0D5CAcA81710759",
			"abi": [
				{
					"type": "constructor",
					"inputs": [],
					"stateMutability": "nonpayable"
				},
				{
					"type": "function",
					"name": "CLOCK_MODE",
					"inputs": [],
					"outputs": [
						{
							"name": "",
							"type": "string",
							"internalType": "string"
						}
					],
					"stateMutability": "view"
				},
				{
					"type": "function",
					"name": "DOMAIN_SEPARATOR",
					"inputs": [],
					"outputs": [
						{
							"name": "",
							"type": "bytes32",
							"internalType": "bytes32"
						}
					],
					"stateMutability": "view"
				},
				{
					"type": "function",
					"name": "allowance",
					"inputs": [
						{
							"name": "owner",
							"type": "address",
							"internalType": "address"
						},
						{
							"name": "spender",
							"type": "address",
							"internalType": "address"
						}
					],
					"outputs": [
						{
							"name": "",
							"type": "uint256",
							"internalType": "uint256"
						}
					],
					"stateMutability": "view"
				},
				{
					"type": "function",
					"name": "approve",
					"inputs": [
						{
							"name": "spender",
							"type": "address",
							"internalType": "address"
						},
						{
							"name": "value",
							"type": "uint256",
							"internalType": "uint256"
						}
					],
					"outputs": [
						{
							"name": "",
							"type": "bool",
							"internalType": "bool"
						}
					],
					"stateMutability": "nonpayable"
				},
				{
					"type": "function",
					"name": "balanceOf",
					"inputs": [
						{
							"name": "account",
							"type": "address",
							"internalType": "address"
						}
					],
					"outputs": [
						{
							"name": "",
							"type": "uint256",
							"internalType": "uint256"
						}
					],
					"stateMutability": "view"
				},
				{
					"type": "function",
					"name": "burn",
					"inputs": [
						{
							"name": "account",
							"type": "address",
							"internalType": "address"
						},
						{
							"name": "amount",
							"type": "uint256",
							"internalType": "uint256"
						}
					],
					"outputs": [],
					"stateMutability": "nonpayable"
				},
				{
					"type": "function",
					"name": "checkpoints",
					"inputs": [
						{
							"name": "account",
							"type": "address",
							"internalType": "address"
						},
						{
							"name": "pos",
							"type": "uint32",
							"internalType": "uint32"
						}
					],
					"outputs": [
						{
							"name": "",
							"type": "tuple",
							"internalType": "struct Checkpoints.Checkpoint208",
							"components": [
								{
									"name": "_key",
									"type": "uint48",
									"internalType": "uint48"
								},
								{
									"name": "_value",
									"type": "uint208",
									"internalType": "uint208"
								}
							]
						}
					],
					"stateMutability": "view"
				},
				{
					"type": "function",
					"name": "clock",
					"inputs": [],
					"outputs": [
						{
							"name": "",
							"type": "uint48",
							"internalType": "uint48"
						}
					],
					"stateMutability": "view"
				},
				{
					"type": "function",
					"name": "decimals",
					"inputs": [],
					"outputs": [
						{
							"name": "",
							"type": "uint8",
							"internalType": "uint8"
						}
					],
					"stateMutability": "view"
				},
				{
					"type": "function",
					"name": "delegate",
					"inputs": [
						{
							"name": "delegatee",
							"type": "address",
							"internalType": "address"
						}
					],
					"outputs": [],
					"stateMutability": "nonpayable"
				},
				{
					"type": "function",
					"name": "delegateBySig",
					"inputs": [
						{
							"name": "delegatee",
							"type": "address",
							"internalType": "address"
						},
						{
							"name": "nonce",
							"type": "uint256",
							"internalType": "uint256"
						},
						{
							"name": "expiry",
							"type": "uint256",
							"internalType": "uint256"
						},
						{
							"name": "v",
							"type": "uint8",
							"internalType": "uint8"
						},
						{
							"name": "r",
							"type": "bytes32",
							"internalType": "bytes32"
						},
						{
							"name": "s",
							"type": "bytes32",
							"internalType": "bytes32"
						}
					],
					"outputs": [],
					"stateMutability": "nonpayable"
				},
				{
					"type": "function",
					"name": "delegates",
					"inputs": [
						{
							"name": "account",
							"type": "address",
							"internalType": "address"
						}
					],
					"outputs": [
						{
							"name": "",
							"type": "address",
							"internalType": "address"
						}
					],
					"stateMutability": "view"
				},
				{
					"type": "function",
					"name": "eip712Domain",
					"inputs": [],
					"outputs": [
						{
							"name": "fields",
							"type": "bytes1",
							"internalType": "bytes1"
						},
						{
							"name": "name",
							"type": "string",
							"internalType": "string"
						},
						{
							"name": "version",
							"type": "string",
							"internalType": "string"
						},
						{
							"name": "chainId",
							"type": "uint256",
							"internalType": "uint256"
						},
						{
							"name": "verifyingContract",
							"type": "address",
							"internalType": "address"
						},
						{
							"name": "salt",
							"type": "bytes32",
							"internalType": "bytes32"
						},
						{
							"name": "extensions",
							"type": "uint256[]",
							"internalType": "uint256[]"
						}
					],
					"stateMutability": "view"
				},
				{
					"type": "function",
					"name": "getPastTotalSupply",
					"inputs": [
						{
							"name": "timepoint",
							"type": "uint256",
							"internalType": "uint256"
						}
					],
					"outputs": [
						{
							"name": "",
							"type": "uint256",
							"internalType": "uint256"
						}
					],
					"stateMutability": "view"
				},
				{
					"type": "function",
					"name": "getPastVotes",
					"inputs": [
						{
							"name": "account",
							"type": "address",
							"internalType": "address"
						},
						{
							"name": "timepoint",
							"type": "uint256",
							"internalType": "uint256"
						}
					],
					"outputs": [
						{
							"name": "",
							"type": "uint256",
							"internalType": "uint256"
						}
					],
					"stateMutability": "view"
				},
				{
					"type": "function",
					"name": "getVotes",
					"inputs": [
						{
							"name": "account",
							"type": "address",
							"internalType": "address"
						}
					],
					"outputs": [
						{
							"name": "",
							"type": "uint256",
							"internalType": "uint256"
						}
					],
					"stateMutability": "view"
				},
				{
					"type": "function",
					"name": "initialize",
					"inputs": [
						{
							"name": "name_",
							"type": "string",
							"internalType": "string"
						},
						{
							"name": "symbol_",
							"type": "string",
							"internalType": "string"
						},
						{
							"name": "owner",
							"type": "address",
							"internalType": "address"
						}
					],
					"outputs": [],
					"stateMutability": "nonpayable"
				},
				{
					"type": "function",
					"name": "mint",
					"inputs": [
						{
							"name": "account",
							"type": "address",
							"internalType": "address"
						},
						{
							"name": "amount",
							"type": "uint256",
							"internalType": "uint256"
						}
					],
					"outputs": [],
					"stateMutability": "nonpayable"
				},
				{
					"type": "function",
					"name": "name",
					"inputs": [],
					"outputs": [
						{
							"name": "",
							"type": "string",
							"internalType": "string"
						}
					],
					"stateMutability": "view"
				},
				{
					"type": "function",
					"name": "nonces",
					"inputs": [
						{
							"name": "owner",
							"type": "address",
							"internalType": "address"
						}
					],
					"outputs": [
						{
							"name": "",
							"type": "uint256",
							"internalType": "uint256"
						}
					],
					"stateMutability": "view"
				},
				{
					"type": "function",
					"name": "numCheckpoints",
					"inputs": [
						{
							"name": "account",
							"type": "address",
							"internalType": "address"
						}
					],
					"outputs": [
						{
							"name": "",
							"type": "uint32",
							"internalType": "uint32"
						}
					],
					"stateMutability": "view"
				},
				{
					"type": "function",
					"name": "owner",
					"inputs": [],
					"outputs": [
						{
							"name": "",
							"type": "address",
							"internalType": "address"
						}
					],
					"stateMutability": "view"
				},
				{
					"type": "function",
					"name": "permit",
					"inputs": [
						{
							"name": "owner",
							"type": "address",
							"internalType": "address"
						},
						{
							"name": "spender",
							"type": "address",
							"internalType": "address"
						},
						{
							"name": "value",
							"type": "uint256",
							"internalType": "uint256"
						},
						{
							"name": "deadline",
							"type": "uint256",
							"internalType": "uint256"
						},
						{
							"name": "v",
							"type": "uint8",
							"internalType": "uint8"
						},
						{
							"name": "r",
							"type": "bytes32",
							"internalType": "bytes32"
						},
						{
							"name": "s",
							"type": "bytes32",
							"internalType": "bytes32"
						}
					],
					"outputs": [],
					"stateMutability": "nonpayable"
				},
				{
					"type": "function",
					"name": "renounceOwnership",
					"inputs": [],
					"outputs": [],
					"stateMutability": "nonpayable"
				},
				{
					"type": "function",
					"name": "symbol",
					"inputs": [],
					"outputs": [
						{
							"name": "",
							"type": "string",
							"internalType": "string"
						}
					],
					"stateMutability": "view"
				},
				{
					"type": "function",
					"name": "totalSupply",
					"inputs": [],
					"outputs": [
						{
							"name": "",
							"type": "uint256",
							"internalType": "uint256"
						}
					],
					"stateMutability": "view"
				},
				{
					"type": "function",
					"name": "transfer",
					"inputs": [
						{
							"name": "to",
							"type": "address",
							"internalType": "address"
						},
						{
							"name": "value",
							"type": "uint256",
							"internalType": "uint256"
						}
					],
					"outputs": [
						{
							"name": "",
							"type": "bool",
							"internalType": "bool"
						}
					],
					"stateMutability": "nonpayable"
				},
				{
					"type": "function",
					"name": "transferFrom",
					"inputs": [
						{
							"name": "from",
							"type": "address",
							"internalType": "address"
						},
						{
							"name": "to",
							"type": "address",
							"internalType": "address"
						},
						{
							"name": "value",
							"type": "uint256",
							"internalType": "uint256"
						}
					],
					"outputs": [
						{
							"name": "",
							"type": "bool",
							"internalType": "bool"
						}
					],
					"stateMutability": "nonpayable"
				},
				{
					"type": "function",
					"name": "transferOwnership",
					"inputs": [
						{
							"name": "newOwner",
							"type": "address",
							"internalType": "address"
						}
					],
					"outputs": [],
					"stateMutability": "nonpayable"
				},
				{
					"type": "event",
					"name": "Approval",
					"inputs": [
						{
							"name": "owner",
							"type": "address",
							"indexed": true,
							"internalType": "address"
						},
						{
							"name": "spender",
							"type": "address",
							"indexed": true,
							"internalType": "address"
						},
						{
							"name": "value",
							"type": "uint256",
							"indexed": false,
							"internalType": "uint256"
						}
					],
					"anonymous": false
				},
				{
					"type": "event",
					"name": "DelegateChanged",
					"inputs": [
						{
							"name": "delegator",
							"type": "address",
							"indexed": true,
							"internalType": "address"
						},
						{
							"name": "fromDelegate",
							"type": "address",
							"indexed": true,
							"internalType": "address"
						},
						{
							"name": "toDelegate",
							"type": "address",
							"indexed": true,
							"internalType": "address"
						}
					],
					"anonymous": false
				},
				{
					"type": "event",
					"name": "DelegateVotesChanged",
					"inputs": [
						{
							"name": "delegate",
							"type": "address",
							"indexed": true,
							"internalType": "address"
						},
						{
							"name": "previousVotes",
							"type": "uint256",
							"indexed": false,
							"internalType": "uint256"
						},
						{
							"name": "newVotes",
							"type": "uint256",
							"indexed": false,
							"internalType": "uint256"
						}
					],
					"anonymous": false
				},
				{
					"type": "event",
					"name": "EIP712DomainChanged",
					"inputs": [],
					"anonymous": false
				},
				{
					"type": "event",
					"name": "OwnershipTransferred",
					"inputs": [
						{
							"name": "previousOwner",
							"type": "address",
							"indexed": true,
							"internalType": "address"
						},
						{
							"name": "newOwner",
							"type": "address",
							"indexed": true,
							"internalType": "address"
						}
					],
					"anonymous": false
				},
				{
					"type": "event",
					"name": "Transfer",
					"inputs": [
						{
							"name": "from",
							"type": "address",
							"indexed": true,
							"internalType": "address"
						},
						{
							"name": "to",
							"type": "address",
							"indexed": true,
							"internalType": "address"
						},
						{
							"name": "value",
							"type": "uint256",
							"indexed": false,
							"internalType": "uint256"
						}
					],
					"anonymous": false
				},
				{
					"type": "error",
					"name": "CheckpointUnorderedInsertion",
					"inputs": []
				},
				{
					"type": "error",
					"name": "ECDSAInvalidSignature",
					"inputs": []
				},
				{
					"type": "error",
					"name": "ECDSAInvalidSignatureLength",
					"inputs": [
						{
							"name": "length",
							"type": "uint256",
							"internalType": "uint256"
						}
					]
				},
				{
					"type": "error",
					"name": "ECDSAInvalidSignatureS",
					"inputs": [
						{
							"name": "s",
							"type": "bytes32",
							"internalType": "bytes32"
						}
					]
				},
				{
					"type": "error",
					"name": "ERC20ExceededSafeSupply",
					"inputs": [
						{
							"name": "increasedSupply",
							"type": "uint256",
							"internalType": "uint256"
						},
						{
							"name": "cap",
							"type": "uint256",
							"internalType": "uint256"
						}
					]
				},
				{
					"type": "error",
					"name": "ERC20InsufficientAllowance",
					"inputs": [
						{
							"name": "spender",
							"type": "address",
							"internalType": "address"
						},
						{
							"name": "allowance",
							"type": "uint256",
							"internalType": "uint256"
						},
						{
							"name": "needed",
							"type": "uint256",
							"internalType": "uint256"
						}
					]
				},
				{
					"type": "error",
					"name": "ERC20InsufficientBalance",
					"inputs": [
						{
							"name": "sender",
							"type": "address",
							"internalType": "address"
						},
						{
							"name": "balance",
							"type": "uint256",
							"internalType": "uint256"
						},
						{
							"name": "needed",
							"type": "uint256",
							"internalType": "uint256"
						}
					]
				},
				{
					"type": "error",
					"name": "ERC20InvalidApprover",
					"inputs": [
						{
							"name": "approver",
							"type": "address",
							"internalType": "address"
						}
					]
				},
				{
					"type": "error",
					"name": "ERC20InvalidReceiver",
					"inputs": [
						{
							"name": "receiver",
							"type": "address",
							"internalType": "address"
						}
					]
				},
				{
					"type": "error",
					"name": "ERC20InvalidSender",
					"inputs": [
						{
							"name": "sender",
							"type": "address",
							"internalType": "address"
						}
					]
				},
				{
					"type": "error",
					"name": "ERC20InvalidSpender",
					"inputs": [
						{
							"name": "spender",
							"type": "address",
							"internalType": "address"
						}
					]
				},
				{
					"type": "error",
					"name": "ERC2612ExpiredSignature",
					"inputs": [
						{
							"name": "deadline",
							"type": "uint256",
							"internalType": "uint256"
						}
					]
				},
				{
					"type": "error",
					"name": "ERC2612InvalidSigner",
					"inputs": [
						{
							"name": "signer",
							"type": "address",
							"internalType": "address"
						},
						{
							"name": "owner",
							"type": "address",
							"internalType": "address"
						}
					]
				},
				{
					"type": "error",
					"name": "ERC5805FutureLookup",
					"inputs": [
						{
							"name": "timepoint",
							"type": "uint256",
							"internalType": "uint256"
						},
						{
							"name": "clock",
							"type": "uint48",
							"internalType": "uint48"
						}
					]
				},
				{
					"type": "error",
					"name": "ERC6372InconsistentClock",
					"inputs": []
				},
				{
					"type": "error",
					"name": "InvalidAccountNonce",
					"inputs": [
						{
							"name": "account",
							"type": "address",
							"internalType": "address"
						},
						{
							"name": "currentNonce",
							"type": "uint256",
							"internalType": "uint256"
						}
					]
				},
				{
					"type": "error",
					"name": "InvalidShortString",
					"inputs": []
				},
				{
					"type": "error",
					"name": "OwnableInvalidOwner",
					"inputs": [
						{
							"name": "owner",
							"type": "address",
							"internalType": "address"
						}
					]
				},
				{
					"type": "error",
					"name": "OwnableUnauthorizedAccount",
					"inputs": [
						{
							"name": "account",
							"type": "address",
							"internalType": "address"
						}
					]
				},
				{
					"type": "error",
					"name": "SafeCastOverflowedUintDowncast",
					"inputs": [
						{
							"name": "bits",
							"type": "uint8",
							"internalType": "uint8"
						},
						{
							"name": "value",
							"type": "uint256",
							"internalType": "uint256"
						}
					]
				},
				{
					"type": "error",
					"name": "StringTooLong",
					"inputs": [
						{
							"name": "str",
							"type": "string",
							"internalType": "string"
						}
					]
				},
				{
					"type": "error",
					"name": "VotesExpiredSignature",
					"inputs": [
						{
							"name": "expiry",
							"type": "uint256",
							"internalType": "uint256"
						}
					]
				}
			],
			"solcInputHash": "5d4c706d93c97620ff427d8d75b46099",
			"receipt": {
				"blockHash": "0x30e10fbfb262bad5c909b73963e809ed81c4706dd9299fc943d4c63cf4c11f4d",
				"blockNumber": 10967465,
				"contractAddress": null,
				"cumulativeGasUsed": "11060634",
				"from": "0xC034550B542b83BA1De312b21d1C94a9a52B1595",
				"gasPrice": "1000252",
				"gasUsed": "11016783",
				"hash": "0x415c78b8520a1d6b11ba808a2acdaae246f939b17eed77bb65b9f23dce763aa3",
				"index": 1,
				"logs": [
					{
						"address": "0xB5E96127D417b1B3ef8438496a38A143167209c7",
						"blockHash": "0x30e10fbfb262bad5c909b73963e809ed81c4706dd9299fc943d4c63cf4c11f4d",
						"blockNumber": 10967465,
						"data": "0x0000000000000000000000000000000000000000000000000000000000000000",
						"index": 0,
						"topics": [
							"0x572f161235911da04685a68c06adf558fc7e4a36909dca394650e0adc19cc93d",
							"0x000000000000000000000000c034550b542b83ba1de312b21d1c94a9a52b1595",
							"0x000000000000000000000000ef1be3c049809cace5bc203bbe4ec1ab284bf75c",
							"0x9276bb03be4838337b2f0b3cdd815925ffb1164195dbc803a8efb9b7787bf97a"
						],
						"transactionHash": "0x415c78b8520a1d6b11ba808a2acdaae246f939b17eed77bb65b9f23dce763aa3",
						"transactionIndex": 1
					},
					{
						"address": "0x1081B5AA9D9d4862A3dA4d469433FB36Ed80FA2A",
						"blockHash": "0x30e10fbfb262bad5c909b73963e809ed81c4706dd9299fc943d4c63cf4c11f4d",
						"blockNumber": 10967465,
						"data": "0x",
						"index": 1,
						"topics": [
							"0x6895c13664aa4f67288b25d7a21d7aaa34916e355fb9b6fae0a139a9085becb8",
							"0x000000000000000000000000ef1be3c049809cace5bc203bbe4ec1ab284bf75c"
						],
						"transactionHash": "0x415c78b8520a1d6b11ba808a2acdaae246f939b17eed77bb65b9f23dce763aa3",
						"transactionIndex": 1
					},
					{
						"address": "0xEf1Be3C049809caCe5Bc203BBe4Ec1Ab284bF75c",
						"blockHash": "0x30e10fbfb262bad5c909b73963e809ed81c4706dd9299fc943d4c63cf4c11f4d",
						"blockNumber": 10967465,
						"data": "0x0000000000000000000000000000000000000000000000000000000000000001",
						"index": 2,
						"topics": [
							"0xa65fb05c5808f5f389d72edeaf719ce38f4cc55c1f69ca3cbfb31c21501caa07",
							"0xeb76efeb8f97c5cb80ab72b380ea5b356ede5f4abbf2a0c560104f8a80b45857"
						],
						"transactionHash": "0x415c78b8520a1d6b11ba808a2acdaae246f939b17eed77bb65b9f23dce763aa3",
						"transactionIndex": 1
					},
					{
						"address": "0xf9dadA4628Eb3992202CF253625d4ECebBC1592f",
						"blockHash": "0x30e10fbfb262bad5c909b73963e809ed81c4706dd9299fc943d4c63cf4c11f4d",
						"blockNumber": 10967465,
						"data": "0x",
						"index": 3,
						"topics": [
							"0x8be0079c531659141344cd1fd0a4f28419497f9722a3daafe3b4186f6b6457e0",
							"0x0000000000000000000000000000000000000000000000000000000000000000",
							"0x0000000000000000000000001081b5aa9d9d4862a3da4d469433fb36ed80fa2a"
						],
						"transactionHash": "0x415c78b8520a1d6b11ba808a2acdaae246f939b17eed77bb65b9f23dce763aa3",
						"transactionIndex": 1
					},
					{
						"address": "0xf9dadA4628Eb3992202CF253625d4ECebBC1592f",
						"blockHash": "0x30e10fbfb262bad5c909b73963e809ed81c4706dd9299fc943d4c63cf4c11f4d",
						"blockNumber": 10967465,
						"data": "0x",
						"index": 4,
						"topics": [
							"0xddf252ad1be2c89b69c2b068fc378daa952ba7f163c4a11628f55a4df523b3ef",
							"0x0000000000000000000000000000000000000000000000000000000000000000",
							"0x0000000000000000000000001081b5aa9d9d4862a3da4d469433fb36ed80fa2a",
							"0x0000000000000000000000000000000000000000000000000000000000000001"
						],
						"transactionHash": "0x415c78b8520a1d6b11ba808a2acdaae246f939b17eed77bb65b9f23dce763aa3",
						"transactionIndex": 1
					},
					{
						"address": "0xf9dadA4628Eb3992202CF253625d4ECebBC1592f",
						"blockHash": "0x30e10fbfb262bad5c909b73963e809ed81c4706dd9299fc943d4c63cf4c11f4d",
						"blockNumber": 10967465,
						"data": "0x0000000000000000000000004e59b44847b379578588920ca78fbf26c0b4956c",
						"index": 5,
						"topics": [
							"0x365b3162cd780731fc55a794b59494d472bc2af701007f581843a70673814698",
							"0x0000000000000000000000000000000000000000000000000000000000000001",
							"0x0000000000000000000000001081b5aa9d9d4862a3da4d469433fb36ed80fa2a"
						],
						"transactionHash": "0x415c78b8520a1d6b11ba808a2acdaae246f939b17eed77bb65b9f23dce763aa3",
						"transactionIndex": 1
					},
					{
						"address": "0x1081B5AA9D9d4862A3dA4d469433FB36Ed80FA2A",
						"blockHash": "0x30e10fbfb262bad5c909b73963e809ed81c4706dd9299fc943d4c63cf4c11f4d",
						"blockNumber": 10967465,
						"data": "0x",
						"index": 6,
						"topics": [
							"0x6895c13664aa4f67288b25d7a21d7aaa34916e355fb9b6fae0a139a9085becb8",
							"0x000000000000000000000000ef1be3c049809cace5bc203bbe4ec1ab284bf75c"
						],
						"transactionHash": "0x415c78b8520a1d6b11ba808a2acdaae246f939b17eed77bb65b9f23dce763aa3",
						"transactionIndex": 1
					},
					{
						"address": "0xEf1Be3C049809caCe5Bc203BBe4Ec1Ab284bF75c",
						"blockHash": "0x30e10fbfb262bad5c909b73963e809ed81c4706dd9299fc943d4c63cf4c11f4d",
						"blockNumber": 10967465,
						"data": "0x0000000000000000000000000000000000000000000000000000000000000002",
						"index": 7,
						"topics": [
							"0xa65fb05c5808f5f389d72edeaf719ce38f4cc55c1f69ca3cbfb31c21501caa07",
							"0xeb76efeb8f97c5cb80ab72b380ea5b356ede5f4abbf2a0c560104f8a80b45857"
						],
						"transactionHash": "0x415c78b8520a1d6b11ba808a2acdaae246f939b17eed77bb65b9f23dce763aa3",
						"transactionIndex": 1
					},
					{
						"address": "0xCD8c4da77dfb15C05486D3F71Ee4C2C0dfdbc94e",
						"blockHash": "0x30e10fbfb262bad5c909b73963e809ed81c4706dd9299fc943d4c63cf4c11f4d",
						"blockNumber": 10967465,
						"data": "0x",
						"index": 8,
						"topics": [
							"0x8be0079c531659141344cd1fd0a4f28419497f9722a3daafe3b4186f6b6457e0",
							"0x0000000000000000000000000000000000000000000000000000000000000000",
							"0x0000000000000000000000001081b5aa9d9d4862a3da4d469433fb36ed80fa2a"
						],
						"transactionHash": "0x415c78b8520a1d6b11ba808a2acdaae246f939b17eed77bb65b9f23dce763aa3",
						"transactionIndex": 1
					},
					{
						"address": "0x1081B5AA9D9d4862A3dA4d469433FB36Ed80FA2A",
						"blockHash": "0x30e10fbfb262bad5c909b73963e809ed81c4706dd9299fc943d4c63cf4c11f4d",
						"blockNumber": 10967465,
						"data": "0x",
						"index": 9,
						"topics": [
							"0x6895c13664aa4f67288b25d7a21d7aaa34916e355fb9b6fae0a139a9085becb8",
							"0x000000000000000000000000ef1be3c049809cace5bc203bbe4ec1ab284bf75c"
						],
						"transactionHash": "0x415c78b8520a1d6b11ba808a2acdaae246f939b17eed77bb65b9f23dce763aa3",
						"transactionIndex": 1
					},
					{
						"address": "0xEf1Be3C049809caCe5Bc203BBe4Ec1Ab284bF75c",
						"blockHash": "0x30e10fbfb262bad5c909b73963e809ed81c4706dd9299fc943d4c63cf4c11f4d",
						"blockNumber": 10967465,
						"data": "0x0000000000000000000000000000000000000000000000000000000000000003",
						"index": 10,
						"topics": [
							"0xa65fb05c5808f5f389d72edeaf719ce38f4cc55c1f69ca3cbfb31c21501caa07",
							"0xeb76efeb8f97c5cb80ab72b380ea5b356ede5f4abbf2a0c560104f8a80b45857"
						],
						"transactionHash": "0x415c78b8520a1d6b11ba808a2acdaae246f939b17eed77bb65b9f23dce763aa3",
						"transactionIndex": 1
					},
					{
						"address": "0x1081B5AA9D9d4862A3dA4d469433FB36Ed80FA2A",
						"blockHash": "0x30e10fbfb262bad5c909b73963e809ed81c4706dd9299fc943d4c63cf4c11f4d",
						"blockNumber": 10967465,
						"data": "0x",
						"index": 11,
						"topics": [
							"0x6895c13664aa4f67288b25d7a21d7aaa34916e355fb9b6fae0a139a9085becb8",
							"0x000000000000000000000000ef1be3c049809cace5bc203bbe4ec1ab284bf75c"
						],
						"transactionHash": "0x415c78b8520a1d6b11ba808a2acdaae246f939b17eed77bb65b9f23dce763aa3",
						"transactionIndex": 1
					},
					{
						"address": "0xEf1Be3C049809caCe5Bc203BBe4Ec1Ab284bF75c",
						"blockHash": "0x30e10fbfb262bad5c909b73963e809ed81c4706dd9299fc943d4c63cf4c11f4d",
						"blockNumber": 10967465,
						"data": "0x0000000000000000000000000000000000000000000000000000000000000004",
						"index": 12,
						"topics": [
							"0xa65fb05c5808f5f389d72edeaf719ce38f4cc55c1f69ca3cbfb31c21501caa07",
							"0xeb76efeb8f97c5cb80ab72b380ea5b356ede5f4abbf2a0c560104f8a80b45857"
						],
						"transactionHash": "0x415c78b8520a1d6b11ba808a2acdaae246f939b17eed77bb65b9f23dce763aa3",
						"transactionIndex": 1
					},
					{
						"address": "0x1081B5AA9D9d4862A3dA4d469433FB36Ed80FA2A",
						"blockHash": "0x30e10fbfb262bad5c909b73963e809ed81c4706dd9299fc943d4c63cf4c11f4d",
						"blockNumber": 10967465,
						"data": "0x",
						"index": 13,
						"topics": [
							"0x6895c13664aa4f67288b25d7a21d7aaa34916e355fb9b6fae0a139a9085becb8",
							"0x000000000000000000000000ef1be3c049809cace5bc203bbe4ec1ab284bf75c"
						],
						"transactionHash": "0x415c78b8520a1d6b11ba808a2acdaae246f939b17eed77bb65b9f23dce763aa3",
						"transactionIndex": 1
					},
					{
						"address": "0xEf1Be3C049809caCe5Bc203BBe4Ec1Ab284bF75c",
						"blockHash": "0x30e10fbfb262bad5c909b73963e809ed81c4706dd9299fc943d4c63cf4c11f4d",
						"blockNumber": 10967465,
						"data": "0x0000000000000000000000000000000000000000000000000000000000000005",
						"index": 14,
						"topics": [
							"0xa65fb05c5808f5f389d72edeaf719ce38f4cc55c1f69ca3cbfb31c21501caa07",
							"0xeb76efeb8f97c5cb80ab72b380ea5b356ede5f4abbf2a0c560104f8a80b45857"
						],
						"transactionHash": "0x415c78b8520a1d6b11ba808a2acdaae246f939b17eed77bb65b9f23dce763aa3",
						"transactionIndex": 1
					},
					{
						"address": "0x0496459b91e393950C4c5B71a0D5CAcA81710759",
						"blockHash": "0x30e10fbfb262bad5c909b73963e809ed81c4706dd9299fc943d4c63cf4c11f4d",
						"blockNumber": 10967465,
						"data": "0x",
						"index": 15,
						"topics": [
							"0x8be0079c531659141344cd1fd0a4f28419497f9722a3daafe3b4186f6b6457e0",
							"0x0000000000000000000000000000000000000000000000000000000000000000",
							"0x0000000000000000000000000496459b91e393950c4c5b71a0d5caca81710759"
						],
						"transactionHash": "0x415c78b8520a1d6b11ba808a2acdaae246f939b17eed77bb65b9f23dce763aa3",
						"transactionIndex": 1
					},
					{
						"address": "0x1081B5AA9D9d4862A3dA4d469433FB36Ed80FA2A",
						"blockHash": "0x30e10fbfb262bad5c909b73963e809ed81c4706dd9299fc943d4c63cf4c11f4d",
						"blockNumber": 10967465,
						"data": "0x",
						"index": 16,
						"topics": [
							"0x6895c13664aa4f67288b25d7a21d7aaa34916e355fb9b6fae0a139a9085becb8",
							"0x000000000000000000000000ef1be3c049809cace5bc203bbe4ec1ab284bf75c"
						],
						"transactionHash": "0x415c78b8520a1d6b11ba808a2acdaae246f939b17eed77bb65b9f23dce763aa3",
						"transactionIndex": 1
					},
					{
						"address": "0xEf1Be3C049809caCe5Bc203BBe4Ec1Ab284bF75c",
						"blockHash": "0x30e10fbfb262bad5c909b73963e809ed81c4706dd9299fc943d4c63cf4c11f4d",
						"blockNumber": 10967465,
						"data": "0x0000000000000000000000000000000000000000000000000000000000000006",
						"index": 17,
						"topics": [
							"0xa65fb05c5808f5f389d72edeaf719ce38f4cc55c1f69ca3cbfb31c21501caa07",
							"0xeb76efeb8f97c5cb80ab72b380ea5b356ede5f4abbf2a0c560104f8a80b45857"
						],
						"transactionHash": "0x415c78b8520a1d6b11ba808a2acdaae246f939b17eed77bb65b9f23dce763aa3",
						"transactionIndex": 1
					},
					{
						"address": "0x1081B5AA9D9d4862A3dA4d469433FB36Ed80FA2A",
						"blockHash": "0x30e10fbfb262bad5c909b73963e809ed81c4706dd9299fc943d4c63cf4c11f4d",
						"blockNumber": 10967465,
						"data": "0x",
						"index": 18,
						"topics": [
							"0x6895c13664aa4f67288b25d7a21d7aaa34916e355fb9b6fae0a139a9085becb8",
							"0x000000000000000000000000ef1be3c049809cace5bc203bbe4ec1ab284bf75c"
						],
						"transactionHash": "0x415c78b8520a1d6b11ba808a2acdaae246f939b17eed77bb65b9f23dce763aa3",
						"transactionIndex": 1
					},
					{
						"address": "0xEf1Be3C049809caCe5Bc203BBe4Ec1Ab284bF75c",
						"blockHash": "0x30e10fbfb262bad5c909b73963e809ed81c4706dd9299fc943d4c63cf4c11f4d",
						"blockNumber": 10967465,
						"data": "0x0000000000000000000000000000000000000000000000000000000000000007",
						"index": 19,
						"topics": [
							"0xa65fb05c5808f5f389d72edeaf719ce38f4cc55c1f69ca3cbfb31c21501caa07",
							"0xeb76efeb8f97c5cb80ab72b380ea5b356ede5f4abbf2a0c560104f8a80b45857"
						],
						"transactionHash": "0x415c78b8520a1d6b11ba808a2acdaae246f939b17eed77bb65b9f23dce763aa3",
						"transactionIndex": 1
					},
					{
						"address": "0x1081B5AA9D9d4862A3dA4d469433FB36Ed80FA2A",
						"blockHash": "0x30e10fbfb262bad5c909b73963e809ed81c4706dd9299fc943d4c63cf4c11f4d",
						"blockNumber": 10967465,
						"data": "0x",
						"index": 20,
						"topics": [
							"0x6895c13664aa4f67288b25d7a21d7aaa34916e355fb9b6fae0a139a9085becb8",
							"0x000000000000000000000000ef1be3c049809cace5bc203bbe4ec1ab284bf75c"
						],
						"transactionHash": "0x415c78b8520a1d6b11ba808a2acdaae246f939b17eed77bb65b9f23dce763aa3",
						"transactionIndex": 1
					},
					{
						"address": "0xEf1Be3C049809caCe5Bc203BBe4Ec1Ab284bF75c",
						"blockHash": "0x30e10fbfb262bad5c909b73963e809ed81c4706dd9299fc943d4c63cf4c11f4d",
						"blockNumber": 10967465,
						"data": "0x0000000000000000000000000000000000000000000000000000000000000008",
						"index": 21,
						"topics": [
							"0xa65fb05c5808f5f389d72edeaf719ce38f4cc55c1f69ca3cbfb31c21501caa07",
							"0xeb76efeb8f97c5cb80ab72b380ea5b356ede5f4abbf2a0c560104f8a80b45857"
						],
						"transactionHash": "0x415c78b8520a1d6b11ba808a2acdaae246f939b17eed77bb65b9f23dce763aa3",
						"transactionIndex": 1
					}
				],
				"logsBloom": "0x0000000008001000000800000008020000000000000800000080000000400000006000800000000000000000004000000000000000000000000000000004001000000010000020040000000800080000040100000004000000020000000000000000000002000000000000000000080000000010000000000000001000000040000100000000000000010021000000000000000000004000000080002000000000400000001000000000000000000002020000000000000000000040000600100088000200080020000000000800000001000000000000000000000000006000000000000000a004000008000000000200000000000000000000000400000100",
				"status": 1,
				"to": "0xB5E96127D417b1B3ef8438496a38A143167209c7"
			},
			"metadata": "{\"compiler\":{\"version\":\"0.8.23+commit.f704f362\"},\"language\":\"Solidity\",\"output\":{\"abi\":[{\"inputs\":[],\"stateMutability\":\"nonpayable\",\"type\":\"constructor\"},{\"inputs\":[],\"type\":\"error\",\"name\":\"CheckpointUnorderedInsertion\"},{\"inputs\":[],\"type\":\"error\",\"name\":\"ECDSAInvalidSignature\"},{\"inputs\":[{\"internalType\":\"uint256\",\"name\":\"length\",\"type\":\"uint256\"}],\"type\":\"error\",\"name\":\"ECDSAInvalidSignatureLength\"},{\"inputs\":[{\"internalType\":\"bytes32\",\"name\":\"s\",\"type\":\"bytes32\"}],\"type\":\"error\",\"name\":\"ECDSAInvalidSignatureS\"},{\"inputs\":[{\"internalType\":\"uint256\",\"name\":\"increasedSupply\",\"type\":\"uint256\"},{\"internalType\":\"uint256\",\"name\":\"cap\",\"type\":\"uint256\"}],\"type\":\"error\",\"name\":\"ERC20ExceededSafeSupply\"},{\"inputs\":[{\"internalType\":\"address\",\"name\":\"spender\",\"type\":\"address\"},{\"internalType\":\"uint256\",\"name\":\"allowance\",\"type\":\"uint256\"},{\"internalType\":\"uint256\",\"name\":\"needed\",\"type\":\"uint256\"}],\"type\":\"error\",\"name\":\"ERC20InsufficientAllowance\"},{\"inputs\":[{\"internalType\":\"address\",\"name\":\"sender\",\"type\":\"address\"},{\"internalType\":\"uint256\",\"name\":\"balance\",\"type\":\"uint256\"},{\"internalType\":\"uint256\",\"name\":\"needed\",\"type\":\"uint256\"}],\"type\":\"error\",\"name\":\"ERC20InsufficientBalance\"},{\"inputs\":[{\"internalType\":\"address\",\"name\":\"approver\",\"type\":\"address\"}],\"type\":\"error\",\"name\":\"ERC20InvalidApprover\"},{\"inputs\":[{\"internalType\":\"address\",\"name\":\"receiver\",\"type\":\"address\"}],\"type\":\"error\",\"name\":\"ERC20InvalidReceiver\"},{\"inputs\":[{\"internalType\":\"address\",\"name\":\"sender\",\"type\":\"address\"}],\"type\":\"error\",\"name\":\"ERC20InvalidSender\"},{\"inputs\":[{\"internalType\":\"address\",\"name\":\"spender\",\"type\":\"address\"}],\"type\":\"error\",\"name\":\"ERC20InvalidSpender\"},{\"inputs\":[{\"internalType\":\"uint256\",\"name\":\"deadline\",\"type\":\"uint256\"}],\"type\":\"error\",\"name\":\"ERC2612ExpiredSignature\"},{\"inputs\":[{\"internalType\":\"address\",\"name\":\"signer\",\"type\":\"address\"},{\"internalType\":\"address\",\"name\":\"owner\",\"type\":\"address\"}],\"type\":\"error\",\"name\":\"ERC2612InvalidSigner\"},{\"inputs\":[{\"internalType\":\"uint256\",\"name\":\"timepoint\",\"type\":\"uint256\"},{\"internalType\":\"uint48\",\"name\":\"clock\",\"type\":\"uint48\"}],\"type\":\"error\",\"name\":\"ERC5805FutureLookup\"},{\"inputs\":[],\"type\":\"error\",\"name\":\"ERC6372InconsistentClock\"},{\"inputs\":[{\"internalType\":\"address\",\"name\":\"account\",\"type\":\"address\"},{\"internalType\":\"uint256\",\"name\":\"currentNonce\",\"type\":\"uint256\"}],\"type\":\"error\",\"name\":\"InvalidAccountNonce\"},{\"inputs\":[],\"type\":\"error\",\"name\":\"InvalidShortString\"},{\"inputs\":[{\"internalType\":\"address\",\"name\":\"owner\",\"type\":\"address\"}],\"type\":\"error\",\"name\":\"OwnableInvalidOwner\"},{\"inputs\":[{\"internalType\":\"address\",\"name\":\"account\",\"type\":\"address\"}],\"type\":\"error\",\"name\":\"OwnableUnauthorizedAccount\"},{\"inputs\":[{\"internalType\":\"uint8\",\"name\":\"bits\",\"type\":\"uint8\"},{\"internalType\":\"uint256\",\"name\":\"value\",\"type\":\"uint256\"}],\"type\":\"error\",\"name\":\"SafeCastOverflowedUintDowncast\"},{\"inputs\":[{\"internalType\":\"string\",\"name\":\"str\",\"type\":\"string\"}],\"type\":\"error\",\"name\":\"StringTooLong\"},{\"inputs\":[{\"internalType\":\"uint256\",\"name\":\"expiry\",\"type\":\"uint256\"}],\"type\":\"error\",\"name\":\"VotesExpiredSignature\"},{\"inputs\":[{\"internalType\":\"address\",\"name\":\"owner\",\"type\":\"address\",\"indexed\":true},{\"internalType\":\"address\",\"name\":\"spender\",\"type\":\"address\",\"indexed\":true},{\"internalType\":\"uint256\",\"name\":\"value\",\"type\":\"uint256\",\"indexed\":false}],\"type\":\"event\",\"name\":\"Approval\",\"anonymous\":false},{\"inputs\":[{\"internalType\":\"address\",\"name\":\"delegator\",\"type\":\"address\",\"indexed\":true},{\"internalType\":\"address\",\"name\":\"fromDelegate\",\"type\":\"address\",\"indexed\":true},{\"internalType\":\"address\",\"name\":\"toDelegate\",\"type\":\"address\",\"indexed\":true}],\"type\":\"event\",\"name\":\"DelegateChanged\",\"anonymous\":false},{\"inputs\":[{\"internalType\":\"address\",\"name\":\"delegate\",\"type\":\"address\",\"indexed\":true},{\"internalType\":\"uint256\",\"name\":\"previousVotes\",\"type\":\"uint256\",\"indexed\":false},{\"internalType\":\"uint256\",\"name\":\"newVotes\",\"type\":\"uint256\",\"indexed\":false}],\"type\":\"event\",\"name\":\"DelegateVotesChanged\",\"anonymous\":false},{\"inputs\":[],\"type\":\"event\",\"name\":\"EIP712DomainChanged\",\"anonymous\":false},{\"inputs\":[{\"internalType\":\"address\",\"name\":\"previousOwner\",\"type\":\"address\",\"indexed\":true},{\"internalType\":\"address\",\"name\":\"newOwner\",\"type\":\"address\",\"indexed\":true}],\"type\":\"event\",\"name\":\"OwnershipTransferred\",\"anonymous\":false},{\"inputs\":[{\"internalType\":\"address\",\"name\":\"from\",\"type\":\"address\",\"indexed\":true},{\"internalType\":\"address\",\"name\":\"to\",\"type\":\"address\",\"indexed\":true},{\"internalType\":\"uint256\",\"name\":\"value\",\"type\":\"uint256\",\"indexed\":false}],\"type\":\"event\",\"name\":\"Transfer\",\"anonymous\":false},{\"inputs\":[],\"stateMutability\":\"view\",\"type\":\"function\",\"name\":\"CLOCK_MODE\",\"outputs\":[{\"internalType\":\"string\",\"name\":\"\",\"type\":\"string\"}]},{\"inputs\":[],\"stateMutability\":\"view\",\"type\":\"function\",\"name\":\"DOMAIN_SEPARATOR\",\"outputs\":[{\"internalType\":\"bytes32\",\"name\":\"\",\"type\":\"bytes32\"}]},{\"inputs\":[{\"internalType\":\"address\",\"name\":\"owner\",\"type\":\"address\"},{\"internalType\":\"address\",\"name\":\"spender\",\"type\":\"address\"}],\"stateMutability\":\"view\",\"type\":\"function\",\"name\":\"allowance\",\"outputs\":[{\"internalType\":\"uint256\",\"name\":\"\",\"type\":\"uint256\"}]},{\"inputs\":[{\"internalType\":\"address\",\"name\":\"spender\",\"type\":\"address\"},{\"internalType\":\"uint256\",\"name\":\"value\",\"type\":\"uint256\"}],\"stateMutability\":\"nonpayable\",\"type\":\"function\",\"name\":\"approve\",\"outputs\":[{\"internalType\":\"bool\",\"name\":\"\",\"type\":\"bool\"}]},{\"inputs\":[{\"internalType\":\"address\",\"name\":\"account\",\"type\":\"address\"}],\"stateMutability\":\"view\",\"type\":\"function\",\"name\":\"balanceOf\",\"outputs\":[{\"internalType\":\"uint256\",\"name\":\"\",\"type\":\"uint256\"}]},{\"inputs\":[{\"internalType\":\"address\",\"name\":\"account\",\"type\":\"address\"},{\"internalType\":\"uint256\",\"name\":\"amount\",\"type\":\"uint256\"}],\"stateMutability\":\"nonpayable\",\"type\":\"function\",\"name\":\"burn\"},{\"inputs\":[{\"internalType\":\"address\",\"name\":\"account\",\"type\":\"address\"},{\"internalType\":\"uint32\",\"name\":\"pos\",\"type\":\"uint32\"}],\"stateMutability\":\"view\",\"type\":\"function\",\"name\":\"checkpoints\",\"outputs\":[{\"internalType\":\"struct Checkpoints.Checkpoint208\",\"name\":\"\",\"type\":\"tuple\",\"components\":[{\"internalType\":\"uint48\",\"name\":\"_key\",\"type\":\"uint48\"},{\"internalType\":\"uint208\",\"name\":\"_value\",\"type\":\"uint208\"}]}]},{\"inputs\":[],\"stateMutability\":\"view\",\"type\":\"function\",\"name\":\"clock\",\"outputs\":[{\"internalType\":\"uint48\",\"name\":\"\",\"type\":\"uint48\"}]},{\"inputs\":[],\"stateMutability\":\"view\",\"type\":\"function\",\"name\":\"decimals\",\"outputs\":[{\"internalType\":\"uint8\",\"name\":\"\",\"type\":\"uint8\"}]},{\"inputs\":[{\"internalType\":\"address\",\"name\":\"delegatee\",\"type\":\"address\"}],\"stateMutability\":\"nonpayable\",\"type\":\"function\",\"name\":\"delegate\"},{\"inputs\":[{\"internalType\":\"address\",\"name\":\"delegatee\",\"type\":\"address\"},{\"internalType\":\"uint256\",\"name\":\"nonce\",\"type\":\"uint256\"},{\"internalType\":\"uint256\",\"name\":\"expiry\",\"type\":\"uint256\"},{\"internalType\":\"uint8\",\"name\":\"v\",\"type\":\"uint8\"},{\"internalType\":\"bytes32\",\"name\":\"r\",\"type\":\"bytes32\"},{\"internalType\":\"bytes32\",\"name\":\"s\",\"type\":\"bytes32\"}],\"stateMutability\":\"nonpayable\",\"type\":\"function\",\"name\":\"delegateBySig\"},{\"inputs\":[{\"internalType\":\"address\",\"name\":\"account\",\"type\":\"address\"}],\"stateMutability\":\"view\",\"type\":\"function\",\"name\":\"delegates\",\"outputs\":[{\"internalType\":\"address\",\"name\":\"\",\"type\":\"address\"}]},{\"inputs\":[],\"stateMutability\":\"view\",\"type\":\"function\",\"name\":\"eip712Domain\",\"outputs\":[{\"internalType\":\"bytes1\",\"name\":\"fields\",\"type\":\"bytes1\"},{\"internalType\":\"string\",\"name\":\"name\",\"type\":\"string\"},{\"internalType\":\"string\",\"name\":\"version\",\"type\":\"string\"},{\"internalType\":\"uint256\",\"name\":\"chainId\",\"type\":\"uint256\"},{\"internalType\":\"address\",\"name\":\"verifyingContract\",\"type\":\"address\"},{\"internalType\":\"bytes32\",\"name\":\"salt\",\"type\":\"bytes32\"},{\"internalType\":\"uint256[]\",\"name\":\"extensions\",\"type\":\"uint256[]\"}]},{\"inputs\":[{\"internalType\":\"uint256\",\"name\":\"timepoint\",\"type\":\"uint256\"}],\"stateMutability\":\"view\",\"type\":\"function\",\"name\":\"getPastTotalSupply\",\"outputs\":[{\"internalType\":\"uint256\",\"name\":\"\",\"type\":\"uint256\"}]},{\"inputs\":[{\"internalType\":\"address\",\"name\":\"account\",\"type\":\"address\"},{\"internalType\":\"uint256\",\"name\":\"timepoint\",\"type\":\"uint256\"}],\"stateMutability\":\"view\",\"type\":\"function\",\"name\":\"getPastVotes\",\"outputs\":[{\"internalType\":\"uint256\",\"name\":\"\",\"type\":\"uint256\"}]},{\"inputs\":[{\"internalType\":\"address\",\"name\":\"account\",\"type\":\"address\"}],\"stateMutability\":\"view\",\"type\":\"function\",\"name\":\"getVotes\",\"outputs\":[{\"internalType\":\"uint256\",\"name\":\"\",\"type\":\"uint256\"}]},{\"inputs\":[{\"internalType\":\"string\",\"name\":\"name_\",\"type\":\"string\"},{\"internalType\":\"string\",\"name\":\"symbol_\",\"type\":\"string\"},{\"internalType\":\"address\",\"name\":\"owner\",\"type\":\"address\"}],\"stateMutability\":\"nonpayable\",\"type\":\"function\",\"name\":\"initialize\"},{\"inputs\":[{\"internalType\":\"address\",\"name\":\"account\",\"type\":\"address\"},{\"internalType\":\"uint256\",\"name\":\"amount\",\"type\":\"uint256\"}],\"stateMutability\":\"nonpayable\",\"type\":\"function\",\"name\":\"mint\"},{\"inputs\":[],\"stateMutability\":\"view\",\"type\":\"function\",\"name\":\"name\",\"outputs\":[{\"internalType\":\"string\",\"name\":\"\",\"type\":\"string\"}]},{\"inputs\":[{\"internalType\":\"address\",\"name\":\"owner\",\"type\":\"address\"}],\"stateMutability\":\"view\",\"type\":\"function\",\"name\":\"nonces\",\"outputs\":[{\"internalType\":\"uint256\",\"name\":\"\",\"type\":\"uint256\"}]},{\"inputs\":[{\"internalType\":\"address\",\"name\":\"account\",\"type\":\"address\"}],\"stateMutability\":\"view\",\"type\":\"function\",\"name\":\"numCheckpoints\",\"outputs\":[{\"internalType\":\"uint32\",\"name\":\"\",\"type\":\"uint32\"}]},{\"inputs\":[],\"stateMutability\":\"view\",\"type\":\"function\",\"name\":\"owner\",\"outputs\":[{\"internalType\":\"address\",\"name\":\"\",\"type\":\"address\"}]},{\"inputs\":[{\"internalType\":\"address\",\"name\":\"owner\",\"type\":\"address\"},{\"internalType\":\"address\",\"name\":\"spender\",\"type\":\"address\"},{\"internalType\":\"uint256\",\"name\":\"value\",\"type\":\"uint256\"},{\"internalType\":\"uint256\",\"name\":\"deadline\",\"type\":\"uint256\"},{\"internalType\":\"uint8\",\"name\":\"v\",\"type\":\"uint8\"},{\"internalType\":\"bytes32\",\"name\":\"r\",\"type\":\"bytes32\"},{\"internalType\":\"bytes32\",\"name\":\"s\",\"type\":\"bytes32\"}],\"stateMutability\":\"nonpayable\",\"type\":\"function\",\"name\":\"permit\"},{\"inputs\":[],\"stateMutability\":\"nonpayable\",\"type\":\"function\",\"name\":\"renounceOwnership\"},{\"inputs\":[],\"stateMutability\":\"view\",\"type\":\"function\",\"name\":\"symbol\",\"outputs\":[{\"internalType\":\"string\",\"name\":\"\",\"type\":\"string\"}]},{\"inputs\":[],\"stateMutability\":\"view\",\"type\":\"function\",\"name\":\"totalSupply\",\"outputs\":[{\"internalType\":\"uint256\",\"name\":\"\",\"type\":\"uint256\"}]},{\"inputs\":[{\"internalType\":\"address\",\"name\":\"to\",\"type\":\"address\"},{\"internalType\":\"uint256\",\"name\":\"value\",\"type\":\"uint256\"}],\"stateMutability\":\"nonpayable\",\"type\":\"function\",\"name\":\"transfer\",\"outputs\":[{\"internalType\":\"bool\",\"name\":\"\",\"type\":\"bool\"}]},{\"inputs\":[{\"internalType\":\"address\",\"name\":\"from\",\"type\":\"address\"},{\"internalType\":\"address\",\"name\":\"to\",\"type\":\"address\"},{\"internalType\":\"uint256\",\"name\":\"value\",\"type\":\"uint256\"}],\"stateMutability\":\"nonpayable\",\"type\":\"function\",\"name\":\"transferFrom\",\"outputs\":[{\"internalType\":\"bool\",\"name\":\"\",\"type\":\"bool\"}]},{\"inputs\":[{\"internalType\":\"address\",\"name\":\"newOwner\",\"type\":\"address\"}],\"stateMutability\":\"nonpayable\",\"type\":\"function\",\"name\":\"transferOwnership\"}],\"devdoc\":{\"kind\":\"dev\",\"methods\":{\"CLOCK_MODE()\":{\"details\":\"Machine-readable description of the clock as specified in EIP-6372.\"},\"DOMAIN_SEPARATOR()\":{\"details\":\"Returns the domain separator used in the encoding of the signature for {permit}, as defined by {EIP712}.\"},\"allowance(address,address)\":{\"details\":\"See {IERC20-allowance}.\"},\"approve(address,uint256)\":{\"details\":\"See {IERC20-approve}. NOTE: If `value` is the maximum `uint256`, the allowance is not updated on `transferFrom`. This is semantically equivalent to an infinite approval. Requirements: - `spender` cannot be the zero address.\"},\"balanceOf(address)\":{\"params\":{\"account\":\"The account to get the balance of.\"},\"returns\":{\"_0\":\"The number of tokens owned by the `account`, as a fixed point number with 18 decimals.\"}},\"burn(address,uint256)\":{\"details\":\"Can only be called by this contract's owner.\",\"params\":{\"account\":\"The address to burn tokens from.\",\"amount\":\"The amount of tokens to burn, as a fixed point number with 18 decimals.\"}},\"checkpoints(address,uint32)\":{\"details\":\"Get the `pos`-th checkpoint for `account`.\"},\"clock()\":{\"details\":\"Clock used for flagging checkpoints. Can be overridden to implement timestamp based checkpoints (and voting), in which case {CLOCK_MODE} should be overridden as well to match.\"},\"decimals()\":{\"returns\":{\"_0\":\"The number of decimals.\"}},\"delegate(address)\":{\"details\":\"Delegates votes from the sender to `delegatee`.\"},\"delegateBySig(address,uint256,uint256,uint8,bytes32,bytes32)\":{\"details\":\"Delegates votes from signer to `delegatee`.\"},\"delegates(address)\":{\"details\":\"Returns the delegate that `account` has chosen.\"},\"eip712Domain()\":{\"details\":\"See {IERC-5267}.\"},\"getPastTotalSupply(uint256)\":{\"details\":\"Returns the total supply of votes available at a specific moment in the past. If the `clock()` is configured to use block numbers, this will return the value at the end of the corresponding block. NOTE: This value is the sum of all available votes, which is not necessarily the sum of all delegated votes. Votes that have not been delegated are still part of total supply, even though they would not participate in a vote. Requirements: - `timepoint` must be in the past. If operating using block numbers, the block must be already mined.\"},\"getPastVotes(address,uint256)\":{\"details\":\"Returns the amount of votes that `account` had at a specific moment in the past. If the `clock()` is configured to use block numbers, this will return the value at the end of the corresponding block. Requirements: - `timepoint` must be in the past. If operating using block numbers, the block must be already mined.\"},\"getVotes(address)\":{\"details\":\"Returns the current amount of votes that `account` has.\"},\"initialize(string,string,address)\":{\"params\":{\"name_\":\"The token's name.\",\"owner\":\"The token contract's owner.\",\"symbol_\":\"The token's symbol.\"}},\"mint(address,uint256)\":{\"details\":\"Can only be called by this contract's owner.\",\"params\":{\"account\":\"The address to mint the new tokens to.\",\"amount\":\"The amount of tokens to mint, as a fixed point number with 18 decimals.\"}},\"numCheckpoints(address)\":{\"details\":\"Get number of checkpoints for `account`.\"},\"owner()\":{\"details\":\"Returns the address of the current owner.\"},\"permit(address,address,uint256,uint256,uint8,bytes32,bytes32)\":{\"details\":\"Sets `value` as the allowance of `spender` over ``owner``'s tokens, given ``owner``'s signed approval. IMPORTANT: The same issues {IERC20-approve} has related to transaction ordering also apply here. Emits an {Approval} event. Requirements: - `spender` cannot be the zero address. - `deadline` must be a timestamp in the future. - `v`, `r` and `s` must be a valid `secp256k1` signature from `owner` over the EIP712-formatted function arguments. - the signature must use ``owner``'s current nonce (see {nonces}). For more information on the signature format, see the https://eips.ethereum.org/EIPS/eip-2612#specification[relevant EIP section]. CAUTION: See Security Considerations above.\"},\"renounceOwnership()\":{\"details\":\"Leaves the contract without owner. It will not be possible to call `onlyOwner` functions. Can only be called by the current owner. NOTE: Renouncing ownership will leave the contract without an owner, thereby disabling any functionality that is only available to the owner.\"},\"totalSupply()\":{\"returns\":{\"_0\":\"The total supply of this ERC20, as a fixed point number.\"}},\"transfer(address,uint256)\":{\"details\":\"See {IERC20-transfer}. Requirements: - `to` cannot be the zero address. - the caller must have a balance of at least `value`.\"},\"transferFrom(address,address,uint256)\":{\"details\":\"See {IERC20-transferFrom}. Emits an {Approval} event indicating the updated allowance. This is not required by the EIP. See the note at the beginning of {ERC20}. NOTE: Does not update the allowance if the current allowance is the maximum `uint256`. Requirements: - `from` and `to` cannot be the zero address. - `from` must have a balance of at least `value`. - the caller must have allowance for ``from``'s tokens of at least `value`.\"},\"transferOwnership(address)\":{\"details\":\"Transfers ownership of the contract to a new account (`newOwner`). Can only be called by the current owner.\"}},\"version\":1},\"userdoc\":{\"kind\":\"user\",\"methods\":{\"balanceOf(address)\":{\"notice\":\"The balance of the given address.\"},\"burn(address,uint256)\":{\"notice\":\"Burn some outstanding tokens.\"},\"decimals()\":{\"notice\":\"The number of decimals used for this token's fixed point accounting.\"},\"initialize(string,string,address)\":{\"notice\":\"Initializes the token.\"},\"mint(address,uint256)\":{\"notice\":\"Mints more of this token.\"},\"name()\":{\"notice\":\"The token's name.\"},\"nonces(address)\":{\"notice\":\"Required override.\"},\"symbol()\":{\"notice\":\"The token's symbol.\"},\"totalSupply()\":{\"notice\":\"The total supply of this ERC20 i.e. the total number of tokens in existence.\"}},\"version\":1}},\"settings\":{\"remappings\":[\"@bananapus/=node_modules/@bananapus/\",\"@chainlink/=node_modules/@chainlink/\",\"@eth-optimism/=node_modules/@eth-optimism/\",\"@openzeppelin/=node_modules/@openzeppelin/\",\"@prb/=node_modules/@prb/\",\"@scroll-tech/=node_modules/@scroll-tech/\",\"@sphinx-labs/contracts/=lib/sphinx/packages/contracts/contracts/foundry/\",\"@uniswap/=node_modules/@uniswap/\",\"ds-test/=lib/forge-std/lib/ds-test/src/\",\"forge-std/=lib/forge-std/src/\",\"hardhat/=node_modules/hardhat/\",\"solmate/=node_modules/solmate/\",\"sphinx/=lib/sphinx/\"],\"optimizer\":{\"enabled\":true,\"runs\":200},\"metadata\":{\"bytecodeHash\":\"ipfs\"},\"compilationTarget\":{\"src/JBERC20.sol\":\"JBERC20\"},\"evmVersion\":\"paris\",\"libraries\":{}},\"sources\":{\"node_modules/@openzeppelin/contracts/access/Ownable.sol\":{\"keccak256\":\"0xff6d0bb2e285473e5311d9d3caacb525ae3538a80758c10649a4d61029b017bb\",\"urls\":[\"bzz-raw://8ed324d3920bb545059d66ab97d43e43ee85fd3bd52e03e401f020afb0b120f6\",\"dweb:/ipfs/QmfEckWLmZkDDcoWrkEvMWhms66xwTLff9DDhegYpvHo1a\"],\"license\":\"MIT\"},\"node_modules/@openzeppelin/contracts/governance/utils/IVotes.sol\":{\"keccak256\":\"0x5e2b397ae88fd5c68e4f6762eb9f65f65c36702eb57796495f471d024ce70947\",\"urls\":[\"bzz-raw://348fc8e291d54314bb22437b532f443d5dbfb80c8cc9591567c1af6554ccf856\",\"dweb:/ipfs/QmP8ZTyitZinxcpwAHeYHhwj7u21zPpKXSiww38V74sXC2\"],\"license\":\"MIT\"},\"node_modules/@openzeppelin/contracts/governance/utils/Votes.sol\":{\"keccak256\":\"0xb8f69828d41b3594afd7a8c6393565901c205d8b5baf5bd2e42dbac637172979\",\"urls\":[\"bzz-raw://c790253821191ac46b2050d87df820d4209871f90c616381e2c2c00ff3eaac34\",\"dweb:/ipfs/QmcPETTyuZBzDRL39JNXj3SBMdx3Y9o4fPQLSZ27py5Jim\"],\"license\":\"MIT\"},\"node_modules/@openzeppelin/contracts/interfaces/IERC5267.sol\":{\"keccak256\":\"0x92aa1df62dc3d33f1656d63bede0923e0df0b706ad4137c8b10b0a8fe549fd92\",\"urls\":[\"bzz-raw://c5c0f29195ad64cbe556da8e257dac8f05f78c53f90323c0d2accf8e6922d33a\",\"dweb:/ipfs/QmQ61TED8uaCZwcbh8KkgRSsCav7x7HbcGHwHts3U4DmUP\"],\"license\":\"MIT\"},\"node_modules/@openzeppelin/contracts/interfaces/IERC5805.sol\":{\"keccak256\":\"0x4b9b89f91adbb7d3574f85394754cfb08c5b4eafca8a7061e2094a019ab8f818\",\"urls\":[\"bzz-raw://7373d5dbb8eb2381aa0883a456fac89283fcaf52f42fa805d4188f270716742a\",\"dweb:/ipfs/QmVnZDmT4ABvNhRJMaQnbCzsCA8HpyHPVaxi4fCi92LFv2\"],\"license\":\"MIT\"},\"node_modules/@openzeppelin/contracts/interfaces/IERC6372.sol\":{\"keccak256\":\"0xeb2857b7dafb7e0d8526dbfe794e6c047df2851c9e6ee91dc4a55f3c34af5d33\",\"urls\":[\"bzz-raw://49bf13f6c2a38a9bcc7b852d4e2b9cebb4068b832642cce61069cdb5f06bb2fb\",\"dweb:/ipfs/QmdKAJVE7rR2kENCZnEM1yKswrGii7WuE9gZpsQvnXJhwn\"],\"license\":\"MIT\"},\"node_modules/@openzeppelin/contracts/interfaces/draft-IERC6093.sol\":{\"keccak256\":\"0x60c65f701957fdd6faea1acb0bb45825791d473693ed9ecb34726fdfaa849dd7\",\"urls\":[\"bzz-raw://ea290300e0efc4d901244949dc4d877fd46e6c5e43dc2b26620e8efab3ab803f\",\"dweb:/ipfs/QmcLLJppxKeJWqHxE2CUkcfhuRTgHSn8J4kijcLa5MYhSt\"],\"license\":\"MIT\"},\"node_modules/@openzeppelin/contracts/token/ERC20/ERC20.sol\":{\"keccak256\":\"0xc3e1fa9d1987f8d349dfb4d6fe93bf2ca014b52ba335cfac30bfe71e357e6f80\",\"urls\":[\"bzz-raw://c5703ccdeb7b1d685e375ed719117e9edf2ab4bc544f24f23b0d50ec82257229\",\"dweb:/ipfs/QmTdwkbQq7owpCiyuzE7eh5LrD2ddrBCZ5WHVsWPi1RrTS\"],\"license\":\"MIT\"},\"node_modules/@openzeppelin/contracts/token/ERC20/IERC20.sol\":{\"keccak256\":\"0xc6a8ff0ea489379b61faa647490411b80102578440ab9d84e9a957cc12164e70\",\"urls\":[\"bzz-raw://0ea104e577e63faea3b69c415637e99e755dcbf64c5833d7140c35a714d6d90c\",\"dweb:/ipfs/Qmau6x4Ns9XdyynRCNNp3RhLqijJjFm7z5fyZazfYFGYdq\"],\"license\":\"MIT\"},\"node_modules/@openzeppelin/contracts/token/ERC20/extensions/ERC20Permit.sol\":{\"keccak256\":\"0xc858a86a35701004d89022a5e98819aac46ccbdc4072fc9dd43928a676b1a2ee\",\"urls\":[\"bzz-raw://18acebb483c512c0eaafcb437f09c839972c3f0d36f0201ea7baa2926b987dd2\",\"dweb:/ipfs/Qmd9bf2noaDSYDtf6FMSzKu7LPhuf91jsVNmcoCuTCuGic\"],\"license\":\"MIT\"},\"node_modules/@openzeppelin/contracts/token/ERC20/extensions/ERC20Votes.sol\":{\"keccak256\":\"0x2a650f6e593cfe5ff2e514a17ea7f593ee70cefa1888066bc983a6308acff4b1\",\"urls\":[\"bzz-raw://9a3477b9665a4b6d19f86bf2cfbfa8c08ba41193f15e68c0d75c0cab7e1fc753\",\"dweb:/ipfs/QmbcurrTatN1PBmkCWdrED8zhAqx5ah9Qp6uR8YwkKWA8V\"],\"license\":\"MIT\"},\"node_modules/@openzeppelin/contracts/token/ERC20/extensions/IERC20Metadata.sol\":{\"keccak256\":\"0xaa761817f6cd7892fcf158b3c776b34551cde36f48ff9703d53898bc45a94ea2\",\"urls\":[\"bzz-raw://0ad7c8d4d08938c8dfc43d75a148863fb324b80cf53e0a36f7e5a4ac29008850\",\"dweb:/ipfs/QmcrhfPgVNf5mkdhQvy1pMv51TFokD3Y4Wa5WZhFqVh8UV\"],\"license\":\"MIT\"},\"node_modules/@openzeppelin/contracts/token/ERC20/extensions/IERC20Permit.sol\":{\"keccak256\":\"0x6008dabfe393240d73d7dd7688033f72740d570aa422254d29a7dce8568f3aff\",\"urls\":[\"bzz-raw://f5196ec75139918c6c7bb4251b36395e668f1fa6d206beba7e7520e74913940d\",\"dweb:/ipfs/QmSyqjksXxmm2mCG6qRd1yuwLykypkSVBbnBnGqJRcuJMi\"],\"license\":\"MIT\"},\"node_modules/@openzeppelin/contracts/utils/Context.sol\":{\"keccak256\":\"0x493033a8d1b176a037b2cc6a04dad01a5c157722049bbecf632ca876224dd4b2\",\"urls\":[\"bzz-raw://6a708e8a5bdb1011c2c381c9a5cfd8a9a956d7d0a9dc1bd8bcdaf52f76ef2f12\",\"dweb:/ipfs/Qmax9WHBnVsZP46ZxEMNRQpLQnrdE4dK8LehML1Py8FowF\"],\"license\":\"MIT\"},\"node_modules/@openzeppelin/contracts/utils/Nonces.sol\":{\"keccak256\":\"0x0082767004fca261c332e9ad100868327a863a88ef724e844857128845ab350f\",\"urls\":[\"bzz-raw://132dce9686a54e025eb5ba5d2e48208f847a1ec3e60a3e527766d7bf53fb7f9e\",\"dweb:/ipfs/QmXn1a2nUZMpu2z6S88UoTfMVtY2YNh86iGrzJDYmMkKeZ\"],\"license\":\"MIT\"},\"node_modules/@openzeppelin/contracts/utils/ShortStrings.sol\":{\"keccak256\":\"0x18a7171df639a934592915a520ecb97c5bbc9675a1105607aac8a94e72bf62c6\",\"urls\":[\"bzz-raw://7478e1f13da69a2867ccd883001d836b75620362e743f196376d63ed0c422a1c\",\"dweb:/ipfs/QmWywcQ9TNfwtoqAxbn25d8C5VrV12PrPS9UjtGe6pL2BA\"],\"license\":\"MIT\"},\"node_modules/@openzeppelin/contracts/utils/StorageSlot.sol\":{\"keccak256\":\"0x32ba59b4b7299237c8ba56319110989d7978a039faf754793064e967e5894418\",\"urls\":[\"bzz-raw://1ae50c8b562427df610cc4540c9bf104acca7ef8e2dcae567ae7e52272281e9c\",\"dweb:/ipfs/QmTHiadFCSJUPpRjNegc5SahmeU8bAoY8i9Aq6tVscbcKR\"],\"license\":\"MIT\"},\"node_modules/@openzeppelin/contracts/utils/Strings.sol\":{\"keccak256\":\"0x55f102ea785d8399c0e58d1108e2d289506dde18abc6db1b7f68c1f9f9bc5792\",\"urls\":[\"bzz-raw://6e52e0a7765c943ef14e5bcf11e46e6139fa044be564881378349236bf2e3453\",\"dweb:/ipfs/QmZEeeXoFPW47amyP35gfzomF9DixqqTEPwzBakv6cZw6i\"],\"license\":\"MIT\"},\"node_modules/@openzeppelin/contracts/utils/cryptography/ECDSA.sol\":{\"keccak256\":\"0xeed0a08b0b091f528356cbc7245891a4c748682d4f6a18055e8e6ca77d12a6cf\",\"urls\":[\"bzz-raw://ba80ba06c8e6be852847e4c5f4492cef801feb6558ae09ed705ff2e04ea8b13c\",\"dweb:/ipfs/QmXRJDv3xHLVQCVXg1ZvR35QS9sij5y9NDWYzMfUfAdTHF\"],\"license\":\"MIT\"},\"node_modules/@openzeppelin/contracts/utils/cryptography/EIP712.sol\":{\"keccak256\":\"0x999f705a027ed6dc2d4e0df2cc4a509852c6bfd11de1c8161bf88832d0503fd0\",\"urls\":[\"bzz-raw://0798def67258d9a3cc20b2b4da7ebf351a5cefe0abfdd665d2d81f8e32f89b21\",\"dweb:/ipfs/QmPEvJosnPfzHNjKvCv2D3891mA2Ww8eUwkqrxBjuYdHCt\"],\"license\":\"MIT\"},\"node_modules/@openzeppelin/contracts/utils/cryptography/MessageHashUtils.sol\":{\"keccak256\":\"0xba333517a3add42cd35fe877656fc3dfcc9de53baa4f3aabbd6d12a92e4ea435\",\"urls\":[\"bzz-raw://2ceacff44c0fdc81e48e0e0b1db87a2076d3c1fb497341de077bf1da9f6b406c\",\"dweb:/ipfs/QmRUo1muMRAewxrKQ7TkXUtknyRoR57AyEkoPpiuZQ8FzX\"],\"license\":\"MIT\"},\"node_modules/@openzeppelin/contracts/utils/math/Math.sol\":{\"keccak256\":\"0x005ec64c6313f0555d59e278f9a7a5ab2db5bdc72a027f255a37c327af1ec02d\",\"urls\":[\"bzz-raw://4ece9f0b9c8daca08c76b6b5405a6446b6f73b3a15fab7ff56e296cbd4a2c875\",\"dweb:/ipfs/QmQyRpyPRL5SQuAgj6SHmbir3foX65FJjbVTTQrA2EFg6L\"],\"license\":\"MIT\"},\"node_modules/@openzeppelin/contracts/utils/math/SafeCast.sol\":{\"keccak256\":\"0xe19a4d5f31d2861e7344e8e535e2feafb913d806d3e2b5fe7782741a2a7094fe\",\"urls\":[\"bzz-raw://4aed79c0fa6f0546ed02f2f683e8f77f0fd2ed7eb34d8bbf3d373c9a6d95b13c\",\"dweb:/ipfs/QmWqVz6UAVqmnWU5pqYPt1o6iDEZyPaBraAA3rKfTTSfYj\"],\"license\":\"MIT\"},\"node_modules/@openzeppelin/contracts/utils/math/SignedMath.sol\":{\"keccak256\":\"0x5f7e4076e175393767754387c962926577f1660dd9b810187b9002407656be72\",\"urls\":[\"bzz-raw://7d533a1c97cd43a57cd9c465f7ee8dd0e39ae93a8fb8ff8e5303a356b081cdcc\",\"dweb:/ipfs/QmVBEei6aTnvYNZp2CHYVNKyZS4q1KkjANfY39WVXZXVoT\"],\"license\":\"MIT\"},\"node_modules/@openzeppelin/contracts/utils/structs/Checkpoints.sol\":{\"keccak256\":\"0xbdc5e074d7dd6678f67e92b1a51a20226801a407b0e1af3da367c5d1ff4519ad\",\"urls\":[\"bzz-raw://a36cca6b22fff3db16fc789ff6c60eea71d4b156065d4d0c83a0bc5e91a77a8b\",\"dweb:/ipfs/QmYN3exd5AemxjBrN8XMB1p5LbbE16uC3sjbYjwi8AjcGR\"],\"license\":\"MIT\"},\"node_modules/@openzeppelin/contracts/utils/types/Time.sol\":{\"keccak256\":\"0xc7755af115020049e4140f224f9ee88d7e1799ffb0646f37bf0df24bf6213f58\",\"urls\":[\"bzz-raw://7f09bf94d5274334ec021f61a04659db303f31e60460e14b709c9bf187740111\",\"dweb:/ipfs/QmNvgomZYUwFAt4cZbPWAiTeSZQreGehY9BK5xyVJsUttb\"],\"license\":\"MIT\"},\"src/JBERC20.sol\":{\"keccak256\":\"0x4ca0ae4f2037c64217db9bf2376f27d129e9edd3810cc0ee31b5867d44d1ec67\",\"urls\":[\"bzz-raw://a3ba32cf40e165040459aa8c8462e22bdf0b1b3fb15f45c1f312751781c8f1fb\",\"dweb:/ipfs/QmYYPFZwwGweNSRTW1W2ibBWqWmwVsRFSrdjsQyHANpTK9\"],\"license\":\"MIT\"},\"src/interfaces/IJBToken.sol\":{\"keccak256\":\"0x71b1f9c3a0edd41910f77396e0be2c65596571176d53eb87e887c3c0da56c0fb\",\"urls\":[\"bzz-raw://6e956f0582f4525e83d845ee9b4a89959abc4f821414f6accbbee5b38960482d\",\"dweb:/ipfs/QmbSvjgmCgnfVmcCTGu8XwrV1Rufsf3M8hB8unFq6fTMdH\"],\"license\":\"MIT\"}},\"version\":1}",
			"args": [],
			"bytecode": "0x6101606040523480156200001257600080fd5b50306040518060400160405280600781526020016625212a37b5b2b760c91b81525080604051806040016040528060018152602001603160f81b815250604051806040016040528060078152602001661a5b9d985b1a5960ca1b815250604051806040016040528060078152602001661a5b9d985b1a5960ca1b8152508160039081620000a0919062000321565b506004620000af828262000321565b50620000c191508390506005620001ac565b61012052620000d2816006620001ac565b61014052815160208084019190912060e052815190820120610100524660a0526200016060e05161010051604080517f8b73c3c69bb8fe3d512ecc4cf759cc79239f7b179b0ffacaa9a75d522b39400f60208201529081019290925260608201524660808201523060a082015260009060c00160405160208183030381529060405280519060200120905090565b60805250503060c052506001600160a01b0381166200019a57604051631e4fbdf760e01b8152600060048201526024015b60405180910390fd5b620001a581620001e5565b5062000463565b6000602083511015620001cc57620001c48362000237565b9050620001df565b81620001d9848262000321565b5060ff90505b92915050565b600b80546001600160a01b038381166001600160a01b0319831681179093556040519116919082907f8be0079c531659141344cd1fd0a4f28419497f9722a3daafe3b4186f6b6457e090600090a35050565b600080829050601f8151111562000265578260405163305a27a960e01b8152600401620001919190620003ed565b805162000272826200043e565b179392505050565b634e487b7160e01b600052604160045260246000fd5b600181811c90821680620002a557607f821691505b602082108103620002c657634e487b7160e01b600052602260045260246000fd5b50919050565b601f8211156200031c576000816000526020600020601f850160051c81016020861015620002f75750805b601f850160051c820191505b81811015620003185782815560010162000303565b5050505b505050565b81516001600160401b038111156200033d576200033d6200027a565b62000355816200034e845462000290565b84620002cc565b602080601f8311600181146200038d5760008415620003745750858301515b600019600386901b1c1916600185901b17855562000318565b600085815260208120601f198616915b82811015620003be578886015182559484019460019091019084016200039d565b5085821015620003dd5787850151600019600388901b60f8161c191681555b5050505050600190811b01905550565b60006020808352835180602085015260005b818110156200041d57858101830151858201604001528201620003ff565b506000604082860101526040601f19601f8301168501019250505092915050565b80516020808301519190811015620002c65760001960209190910360031b1b16919050565b60805160a05160c05160e0516101005161012051610140516122e7620004be6000396000610f4e01526000610f2101526000610cbc01526000610c9401526000610bef01526000610c1901526000610c4301526122e76000f3fe608060405234801561001057600080fd5b50600436106101cf5760003560e01c8063715018a6116101045780639ab24eb0116100a2578063d505accf11610071578063d505accf146103f7578063dd62ed3e1461040a578063f1127ed814610443578063f2fde38b1461048257600080fd5b80639ab24eb0146103ab5780639dc29fac146103be578063a9059cbb146103d1578063c3cda520146103e457600080fd5b80638da5cb5b116100de5780638da5cb5b146103605780638e539e8c1461037157806391ddadf41461038457806395d89b41146103a357600080fd5b8063715018a61461032a5780637ecebe001461033257806384b0196e1461034557600080fd5b80633a46b1a811610171578063587cde1e1161014b578063587cde1e146102985780635c19a95c146102dc5780636fcfff45146102ef57806370a082311461031757600080fd5b80633a46b1a81461026a57806340c10f191461027d5780634bf5d7e91461029057600080fd5b806318160ddd116101ad57806318160ddd1461022a57806323b872dd14610240578063313ce567146102535780633644e5151461026257600080fd5b806306fdde03146101d4578063077f224a146101f2578063095ea7b314610207575b600080fd5b6101dc610495565b6040516101e99190611cc1565b60405180910390f35b610205610200366004611d93565b610527565b005b61021a610215366004611e07565b610574565b60405190151581526020016101e9565b61023261058e565b6040519081526020016101e9565b61021a61024e366004611e31565b61059e565b604051601281526020016101e9565b6102326105c2565b610232610278366004611e07565b6105cc565b61020561028b366004611e07565b610652565b6101dc610668565b6102c46102a6366004611e6d565b6001600160a01b039081166000908152600860205260409020541690565b6040516001600160a01b0390911681526020016101e9565b6102056102ea366004611e6d565b6106e0565b6103026102fd366004611e6d565b6106eb565b60405163ffffffff90911681526020016101e9565b610232610325366004611e6d565b6106f6565b610205610714565b610232610340366004611e6d565b610728565b61034d610733565b6040516101e99796959493929190611e88565b600b546001600160a01b03166102c4565b61023261037f366004611f21565b610779565b61038c6107e3565b60405165ffffffffffff90911681526020016101e9565b6101dc6107ed565b6102326103b9366004611e6d565b6107fc565b6102056103cc366004611e07565b61082c565b61021a6103df366004611e07565b61083e565b6102056103f2366004611f4b565b61084c565b610205610405366004611fa3565b610909565b61023261041836600461200d565b6001600160a01b03918216600090815260016020908152604080832093909416825291909152205490565b610456610451366004612040565b610a43565b60408051825165ffffffffffff1681526020928301516001600160d01b031692810192909252016101e9565b610205610490366004611e6d565b610a68565b6060600c80546104a490612080565b80601f01602080910402602001604051908101604052809291908181526020018280546104d090612080565b801561051d5780601f106104f25761010080835404028352916020019161051d565b820191906000526020600020905b81548152906001019060200180831161050057829003601f168201915b5050505050905090565b600c805461053490612080565b151590508061054257508251155b1561054c57600080fd5b600c610558848261210a565b50600d610565838261210a565b5061056f81610aa6565b505050565b600033610582818585610af8565b60019150505b92915050565b600061059960025490565b905090565b6000336105ac858285610b05565b6105b7858585610b83565b506001949350505050565b6000610599610be2565b6000806105d76107e3565b90508065ffffffffffff16831061061757604051637669fc0f60e11b81526004810184905265ffffffffffff821660248201526044015b60405180910390fd5b61064161062384610d0d565b6001600160a01b038616600090815260096020526040902090610d44565b6001600160d01b0316949350505050565b61065a610dfa565b6106648282610e27565b5050565b6060610672610e5d565b65ffffffffffff166106826107e3565b65ffffffffffff16146106a8576040516301bfc1c560e61b815260040160405180910390fd5b5060408051808201909152601d81527f6d6f64653d626c6f636b6e756d6265722666726f6d3d64656661756c74000000602082015290565b336106648183610e68565b600061058882610eda565b6001600160a01b038116600090815260208190526040812054610588565b61071c610dfa565b6107266000610aa6565b565b600061058882610efc565b600060608060008060006060610747610f1a565b61074f610f47565b60408051600080825260208201909252600f60f81b9b939a50919850469750309650945092509050565b6000806107846107e3565b90508065ffffffffffff1683106107bf57604051637669fc0f60e11b81526004810184905265ffffffffffff8216602482015260440161060e565b6107d36107cb84610d0d565b600a90610d44565b6001600160d01b03169392505050565b6000610599610e5d565b6060600d80546104a490612080565b6001600160a01b038116600090815260096020526040812061081d90610f74565b6001600160d01b031692915050565b610834610dfa565b6106648282610fad565b600033610582818585610b83565b8342111561087057604051632341d78760e11b81526004810185905260240161060e565b604080517fe48329057bfd03d55e49b547132e39cffd9c1820ad7b9d4c5307691425d15adf60208201526001600160a01b0388169181019190915260608101869052608081018590526000906108ea906108e29060a00160405160208183030381529060405280519060200120610fe3565b858585611010565b90506108f6818761103e565b6109008188610e68565b50505050505050565b8342111561092d5760405163313c898160e11b81526004810185905260240161060e565b60007f6e71edae12b1b97f4d1f60370fef10105fa2faae0126114a169c64845d6126c988888861097a8c6001600160a01b0316600090815260076020526040902080546001810190915590565b6040805160208101969096526001600160a01b0394851690860152929091166060840152608083015260a082015260c0810186905260e00160405160208183030381529060405280519060200120905060006109d582610fe3565b905060006109e582878787611010565b9050896001600160a01b0316816001600160a01b031614610a2c576040516325c0072360e11b81526001600160a01b0380831660048301528b16602482015260440161060e565b610a378a8a8a610af8565b50505050505050505050565b6040805180820190915260008082526020820152610a618383611091565b9392505050565b610a70610dfa565b6001600160a01b038116610a9a57604051631e4fbdf760e01b81526000600482015260240161060e565b610aa381610aa6565b50565b600b80546001600160a01b038381166001600160a01b0319831681179093556040519116919082907f8be0079c531659141344cd1fd0a4f28419497f9722a3daafe3b4186f6b6457e090600090a35050565b61056f83838360016110c7565b6001600160a01b038381166000908152600160209081526040808320938616835292905220546000198114610b7d5781811015610b6e57604051637dc7a0d960e11b81526001600160a01b0384166004820152602481018290526044810183905260640161060e565b610b7d848484840360006110c7565b50505050565b6001600160a01b038316610bad57604051634b637e8f60e11b81526000600482015260240161060e565b6001600160a01b038216610bd75760405163ec442f0560e01b81526000600482015260240161060e565b61056f83838361119c565b6000306001600160a01b037f000000000000000000000000000000000000000000000000000000000000000016148015610c3b57507f000000000000000000000000000000000000000000000000000000000000000046145b15610c6557507f000000000000000000000000000000000000000000000000000000000000000090565b610599604080517f8b73c3c69bb8fe3d512ecc4cf759cc79239f7b179b0ffacaa9a75d522b39400f60208201527f0000000000000000000000000000000000000000000000000000000000000000918101919091527f000000000000000000000000000000000000000000000000000000000000000060608201524660808201523060a082015260009060c00160405160208183030381529060405280519060200120905090565b600065ffffffffffff821115610d40576040516306dfcc6560e41b8152603060048201526024810183905260440161060e565b5090565b815460009081816005811115610da3576000610d5f846111a7565b610d6990856121e0565b60008881526020902090915081015465ffffffffffff9081169087161015610d9357809150610da1565b610d9e8160016121f3565b92505b505b6000610db18787858561128f565b90508015610dec57610dd687610dc86001846121e0565b600091825260209091200190565b54600160301b90046001600160d01b0316610def565b60005b979650505050505050565b600b546001600160a01b031633146107265760405163118cdaa760e01b815233600482015260240161060e565b6001600160a01b038216610e515760405163ec442f0560e01b81526000600482015260240161060e565b6106646000838361119c565b600061059943610d0d565b6001600160a01b0382811660008181526008602052604080822080548686166001600160a01b0319821681179092559151919094169392849290917f3134e8a2e6d97e929a7e54011ea5485d7d196dd5f0ba4d4ef95803e8e3fc257f9190a461056f8183610ed5866112f1565b6112fc565b6001600160a01b03811660009081526009602052604081205461058890611468565b6001600160a01b038116600090815260076020526040812054610588565b60606105997f00000000000000000000000000000000000000000000000000000000000000006005611499565b60606105997f00000000000000000000000000000000000000000000000000000000000000006006611499565b80546000908015610fa457610f8e83610dc86001846121e0565b54600160301b90046001600160d01b0316610a61565b60009392505050565b6001600160a01b038216610fd757604051634b637e8f60e11b81526000600482015260240161060e565b6106648260008361119c565b6000610588610ff0610be2565b8360405161190160f01b8152600281019290925260228201526042902090565b60008060008061102288888888611544565b9250925092506110328282611613565b50909695505050505050565b6001600160a01b038216600090815260076020526040902080546001810190915581811461056f576040516301d4b62360e61b81526001600160a01b03841660048201526024810182905260440161060e565b60408051808201909152600080825260208201526001600160a01b0383166000908152600960205260409020610a6190836116cc565b6001600160a01b0384166110f15760405163e602df0560e01b81526000600482015260240161060e565b6001600160a01b03831661111b57604051634a1406b160e11b81526000600482015260240161060e565b6001600160a01b0380851660009081526001602090815260408083209387168352929052208290558015610b7d57826001600160a01b0316846001600160a01b03167f8c5be1e5ebec7d5bd14f71427d1e84f3dd0314c0f7b2291e5b200ac8c7c3b9258460405161118e91815260200190565b60405180910390a350505050565b61056f83838361173c565b6000816000036111b957506000919050565b600060016111c6846117a2565b901c6001901b905060018184816111df576111df612206565b048201901c905060018184816111f7576111f7612206565b048201901c9050600181848161120f5761120f612206565b048201901c9050600181848161122757611227612206565b048201901c9050600181848161123f5761123f612206565b048201901c9050600181848161125757611257612206565b048201901c9050600181848161126f5761126f612206565b048201901c9050610a618182858161128957611289612206565b04611836565b60005b818310156112e95760006112a6848461184c565b60008781526020902090915065ffffffffffff86169082015465ffffffffffff1611156112d5578092506112e3565b6112e08160016121f3565b93505b50611292565b509392505050565b6000610588826106f6565b816001600160a01b0316836001600160a01b03161415801561131e5750600081115b1561056f576001600160a01b038316156113c6576001600160a01b038316600090815260096020526040812081906113619061186761135c86611873565b6118a7565b6001600160d01b031691506001600160d01b03169150846001600160a01b03167fdec2bacdd2f05b59de34da9b523dff8be42e5e38e818c82fdb0bae774387a72483836040516113bb929190918252602082015260400190565b60405180910390a250505b6001600160a01b0382161561056f576001600160a01b038216600090815260096020526040812081906113ff906118e061135c86611873565b6001600160d01b031691506001600160d01b03169150836001600160a01b03167fdec2bacdd2f05b59de34da9b523dff8be42e5e38e818c82fdb0bae774387a7248383604051611459929190918252602082015260400190565b60405180910390a25050505050565b600063ffffffff821115610d40576040516306dfcc6560e41b8152602060048201526024810183905260440161060e565b606060ff83146114b3576114ac836118ec565b9050610588565b8180546114bf90612080565b80601f01602080910402602001604051908101604052809291908181526020018280546114eb90612080565b80156115385780601f1061150d57610100808354040283529160200191611538565b820191906000526020600020905b81548152906001019060200180831161151b57829003601f168201915b50505050509050610588565b600080807f7fffffffffffffffffffffffffffffff5d576e7357a4501ddfe92f46681b20a084111561157f5750600091506003905082611609565b604080516000808252602082018084528a905260ff891692820192909252606081018790526080810186905260019060a0016020604051602081039080840390855afa1580156115d3573d6000803e3d6000fd5b5050604051601f1901519150506001600160a01b0381166115ff57506000925060019150829050611609565b9250600091508190505b9450945094915050565b60008260038111156116275761162761221c565b03611630575050565b60018260038111156116445761164461221c565b036116625760405163f645eedf60e01b815260040160405180910390fd5b60028260038111156116765761167661221c565b036116975760405163fce698f760e01b81526004810182905260240161060e565b60038260038111156116ab576116ab61221c565b03610664576040516335e2f38360e21b81526004810182905260240161060e565b6040805180820190915260008082526020820152826000018263ffffffff16815481106116fb576116fb612232565b60009182526020918290206040805180820190915291015465ffffffffffff81168252600160301b90046001600160d01b0316918101919091529392505050565b61174783838361192b565b6001600160a01b03831661179757600061175f61058e565b90506001600160d01b038082111561179457604051630e58ae9360e11b8152600481018390526024810182905260440161060e565b50505b61056f838383611a55565b600080608083901c156117b757608092831c92015b604083901c156117c957604092831c92015b602083901c156117db57602092831c92015b601083901c156117ed57601092831c92015b600883901c156117ff57600892831c92015b600483901c1561181157600492831c92015b600283901c1561182357600292831c92015b600183901c156105885760010192915050565b60008183106118455781610a61565b5090919050565b600061185b6002848418612248565b610a61908484166121f3565b6000610a61828461226a565b60006001600160d01b03821115610d40576040516306dfcc6560e41b815260d060048201526024810183905260440161060e565b6000806118d36118b56107e3565b6118cb6118c188610f74565b868863ffffffff16565b879190611acb565b915091505b935093915050565b6000610a618284612291565b606060006118f983611ad9565b604080516020808252818301909252919250600091906020820181803683375050509182525060208101929092525090565b6001600160a01b03831661195657806002600082825461194b91906121f3565b909155506119c89050565b6001600160a01b038316600090815260208190526040902054818110156119a95760405163391434e360e21b81526001600160a01b0385166004820152602481018290526044810183905260640161060e565b6001600160a01b03841660009081526020819052604090209082900390555b6001600160a01b0382166119e457600280548290039055611a03565b6001600160a01b03821660009081526020819052604090208054820190555b816001600160a01b0316836001600160a01b03167fddf252ad1be2c89b69c2b068fc378daa952ba7f163c4a11628f55a4df523b3ef83604051611a4891815260200190565b60405180910390a3505050565b6001600160a01b038316611a7757611a74600a6118e061135c84611873565b50505b6001600160a01b038216611a9957611a96600a61186761135c84611873565b50505b6001600160a01b0383811660009081526008602052604080822054858416835291205461056f929182169116836112fc565b6000806118d3858585611b01565b600060ff8216601f81111561058857604051632cd44ac360e21b815260040160405180910390fd5b825460009081908015611c20576000611b1f87610dc86001856121e0565b60408051808201909152905465ffffffffffff808216808452600160301b9092046001600160d01b031660208401529192509087161015611b7357604051632520601d60e01b815260040160405180910390fd5b805165ffffffffffff808816911603611bbf5784611b9688610dc86001866121e0565b80546001600160d01b0392909216600160301b0265ffffffffffff909216919091179055611c10565b6040805180820190915265ffffffffffff80881682526001600160d01b0380881660208085019182528b54600181018d5560008d81529190912094519151909216600160301b029216919091179101555b6020015192508391506118d89050565b50506040805180820190915265ffffffffffff80851682526001600160d01b0380851660208085019182528854600181018a5560008a815291822095519251909316600160301b0291909316179201919091559050816118d8565b6000815180845260005b81811015611ca157602081850181015186830182015201611c85565b506000602082860101526020601f19601f83011685010191505092915050565b602081526000610a616020830184611c7b565b634e487b7160e01b600052604160045260246000fd5b600082601f830112611cfb57600080fd5b813567ffffffffffffffff80821115611d1657611d16611cd4565b604051601f8301601f19908116603f01168101908282118183101715611d3e57611d3e611cd4565b81604052838152866020858801011115611d5757600080fd5b836020870160208301376000602085830101528094505050505092915050565b80356001600160a01b0381168114611d8e57600080fd5b919050565b600080600060608486031215611da857600080fd5b833567ffffffffffffffff80821115611dc057600080fd5b611dcc87838801611cea565b94506020860135915080821115611de257600080fd5b50611def86828701611cea565b925050611dfe60408501611d77565b90509250925092565b60008060408385031215611e1a57600080fd5b611e2383611d77565b946020939093013593505050565b600080600060608486031215611e4657600080fd5b611e4f84611d77565b9250611e5d60208501611d77565b9150604084013590509250925092565b600060208284031215611e7f57600080fd5b610a6182611d77565b60ff60f81b881681526000602060e06020840152611ea960e084018a611c7b565b8381036040850152611ebb818a611c7b565b606085018990526001600160a01b038816608086015260a0850187905284810360c08601528551808252602080880193509091019060005b81811015611f0f57835183529284019291840191600101611ef3565b50909c9b505050505050505050505050565b600060208284031215611f3357600080fd5b5035919050565b803560ff81168114611d8e57600080fd5b60008060008060008060c08789031215611f6457600080fd5b611f6d87611d77565b95506020870135945060408701359350611f8960608801611f3a565b92506080870135915060a087013590509295509295509295565b600080600080600080600060e0888a031215611fbe57600080fd5b611fc788611d77565b9650611fd560208901611d77565b95506040880135945060608801359350611ff160808901611f3a565b925060a0880135915060c0880135905092959891949750929550565b6000806040838503121561202057600080fd5b61202983611d77565b915061203760208401611d77565b90509250929050565b6000806040838503121561205357600080fd5b61205c83611d77565b9150602083013563ffffffff8116811461207557600080fd5b809150509250929050565b600181811c9082168061209457607f821691505b6020821081036120b457634e487b7160e01b600052602260045260246000fd5b50919050565b601f82111561056f576000816000526020600020601f850160051c810160208610156120e35750805b601f850160051c820191505b81811015612102578281556001016120ef565b505050505050565b815167ffffffffffffffff81111561212457612124611cd4565b612138816121328454612080565b846120ba565b602080601f83116001811461216d57600084156121555750858301515b600019600386901b1c1916600185901b178555612102565b600085815260208120601f198616915b8281101561219c5788860151825594840194600190910190840161217d565b50858210156121ba5787850151600019600388901b60f8161c191681555b5050505050600190811b01905550565b634e487b7160e01b600052601160045260246000fd5b81810381811115610588576105886121ca565b80820180821115610588576105886121ca565b634e487b7160e01b600052601260045260246000fd5b634e487b7160e01b600052602160045260246000fd5b634e487b7160e01b600052603260045260246000fd5b60008261226557634e487b7160e01b600052601260045260246000fd5b500490565b6001600160d01b0382811682821603908082111561228a5761228a6121ca565b5092915050565b6001600160d01b0381811683821601908082111561228a5761228a6121ca56fea26469706673582212200d44911cf2f18f3dfd278d2fd60c354fbfce115f263e80399273c0ceda9b672a64736f6c63430008170033",
			"deployedBytecode": "0x608060405234801561001057600080fd5b50600436106101cf5760003560e01c8063715018a6116101045780639ab24eb0116100a2578063d505accf11610071578063d505accf146103f7578063dd62ed3e1461040a578063f1127ed814610443578063f2fde38b1461048257600080fd5b80639ab24eb0146103ab5780639dc29fac146103be578063a9059cbb146103d1578063c3cda520146103e457600080fd5b80638da5cb5b116100de5780638da5cb5b146103605780638e539e8c1461037157806391ddadf41461038457806395d89b41146103a357600080fd5b8063715018a61461032a5780637ecebe001461033257806384b0196e1461034557600080fd5b80633a46b1a811610171578063587cde1e1161014b578063587cde1e146102985780635c19a95c146102dc5780636fcfff45146102ef57806370a082311461031757600080fd5b80633a46b1a81461026a57806340c10f191461027d5780634bf5d7e91461029057600080fd5b806318160ddd116101ad57806318160ddd1461022a57806323b872dd14610240578063313ce567146102535780633644e5151461026257600080fd5b806306fdde03146101d4578063077f224a146101f2578063095ea7b314610207575b600080fd5b6101dc610495565b6040516101e99190611cc1565b60405180910390f35b610205610200366004611d93565b610527565b005b61021a610215366004611e07565b610574565b60405190151581526020016101e9565b61023261058e565b6040519081526020016101e9565b61021a61024e366004611e31565b61059e565b604051601281526020016101e9565b6102326105c2565b610232610278366004611e07565b6105cc565b61020561028b366004611e07565b610652565b6101dc610668565b6102c46102a6366004611e6d565b6001600160a01b039081166000908152600860205260409020541690565b6040516001600160a01b0390911681526020016101e9565b6102056102ea366004611e6d565b6106e0565b6103026102fd366004611e6d565b6106eb565b60405163ffffffff90911681526020016101e9565b610232610325366004611e6d565b6106f6565b610205610714565b610232610340366004611e6d565b610728565b61034d610733565b6040516101e99796959493929190611e88565b600b546001600160a01b03166102c4565b61023261037f366004611f21565b610779565b61038c6107e3565b60405165ffffffffffff90911681526020016101e9565b6101dc6107ed565b6102326103b9366004611e6d565b6107fc565b6102056103cc366004611e07565b61082c565b61021a6103df366004611e07565b61083e565b6102056103f2366004611f4b565b61084c565b610205610405366004611fa3565b610909565b61023261041836600461200d565b6001600160a01b03918216600090815260016020908152604080832093909416825291909152205490565b610456610451366004612040565b610a43565b60408051825165ffffffffffff1681526020928301516001600160d01b031692810192909252016101e9565b610205610490366004611e6d565b610a68565b6060600c80546104a490612080565b80601f01602080910402602001604051908101604052809291908181526020018280546104d090612080565b801561051d5780601f106104f25761010080835404028352916020019161051d565b820191906000526020600020905b81548152906001019060200180831161050057829003601f168201915b5050505050905090565b600c805461053490612080565b151590508061054257508251155b1561054c57600080fd5b600c610558848261210a565b50600d610565838261210a565b5061056f81610aa6565b505050565b600033610582818585610af8565b60019150505b92915050565b600061059960025490565b905090565b6000336105ac858285610b05565b6105b7858585610b83565b506001949350505050565b6000610599610be2565b6000806105d76107e3565b90508065ffffffffffff16831061061757604051637669fc0f60e11b81526004810184905265ffffffffffff821660248201526044015b60405180910390fd5b61064161062384610d0d565b6001600160a01b038616600090815260096020526040902090610d44565b6001600160d01b0316949350505050565b61065a610dfa565b6106648282610e27565b5050565b6060610672610e5d565b65ffffffffffff166106826107e3565b65ffffffffffff16146106a8576040516301bfc1c560e61b815260040160405180910390fd5b5060408051808201909152601d81527f6d6f64653d626c6f636b6e756d6265722666726f6d3d64656661756c74000000602082015290565b336106648183610e68565b600061058882610eda565b6001600160a01b038116600090815260208190526040812054610588565b61071c610dfa565b6107266000610aa6565b565b600061058882610efc565b600060608060008060006060610747610f1a565b61074f610f47565b60408051600080825260208201909252600f60f81b9b939a50919850469750309650945092509050565b6000806107846107e3565b90508065ffffffffffff1683106107bf57604051637669fc0f60e11b81526004810184905265ffffffffffff8216602482015260440161060e565b6107d36107cb84610d0d565b600a90610d44565b6001600160d01b03169392505050565b6000610599610e5d565b6060600d80546104a490612080565b6001600160a01b038116600090815260096020526040812061081d90610f74565b6001600160d01b031692915050565b610834610dfa565b6106648282610fad565b600033610582818585610b83565b8342111561087057604051632341d78760e11b81526004810185905260240161060e565b604080517fe48329057bfd03d55e49b547132e39cffd9c1820ad7b9d4c5307691425d15adf60208201526001600160a01b0388169181019190915260608101869052608081018590526000906108ea906108e29060a00160405160208183030381529060405280519060200120610fe3565b858585611010565b90506108f6818761103e565b6109008188610e68565b50505050505050565b8342111561092d5760405163313c898160e11b81526004810185905260240161060e565b60007f6e71edae12b1b97f4d1f60370fef10105fa2faae0126114a169c64845d6126c988888861097a8c6001600160a01b0316600090815260076020526040902080546001810190915590565b6040805160208101969096526001600160a01b0394851690860152929091166060840152608083015260a082015260c0810186905260e00160405160208183030381529060405280519060200120905060006109d582610fe3565b905060006109e582878787611010565b9050896001600160a01b0316816001600160a01b031614610a2c576040516325c0072360e11b81526001600160a01b0380831660048301528b16602482015260440161060e565b610a378a8a8a610af8565b50505050505050505050565b6040805180820190915260008082526020820152610a618383611091565b9392505050565b610a70610dfa565b6001600160a01b038116610a9a57604051631e4fbdf760e01b81526000600482015260240161060e565b610aa381610aa6565b50565b600b80546001600160a01b038381166001600160a01b0319831681179093556040519116919082907f8be0079c531659141344cd1fd0a4f28419497f9722a3daafe3b4186f6b6457e090600090a35050565b61056f83838360016110c7565b6001600160a01b038381166000908152600160209081526040808320938616835292905220546000198114610b7d5781811015610b6e57604051637dc7a0d960e11b81526001600160a01b0384166004820152602481018290526044810183905260640161060e565b610b7d848484840360006110c7565b50505050565b6001600160a01b038316610bad57604051634b637e8f60e11b81526000600482015260240161060e565b6001600160a01b038216610bd75760405163ec442f0560e01b81526000600482015260240161060e565b61056f83838361119c565b6000306001600160a01b037f0000000000000000000000000496459b91e393950c4c5b71a0d5caca8171075916148015610c3b57507f0000000000000000000000000000000000000000000000000000000000aa37dc46145b15610c6557507fc2cef7eaab6815e327ef8b506ba349d045b9a636468df4a41782525646fd496490565b610599604080517f8b73c3c69bb8fe3d512ecc4cf759cc79239f7b179b0ffacaa9a75d522b39400f60208201527f9c7cae8524849651857e41dcb0fe4f4ab844f18147824e3e8bf5d526700f2c36918101919091527fc89efdaa54c0f20c7adf612882df0950f5a951637e0307cdcb4c672f298b8bc660608201524660808201523060a082015260009060c00160405160208183030381529060405280519060200120905090565b600065ffffffffffff821115610d40576040516306dfcc6560e41b8152603060048201526024810183905260440161060e565b5090565b815460009081816005811115610da3576000610d5f846111a7565b610d6990856121e0565b60008881526020902090915081015465ffffffffffff9081169087161015610d9357809150610da1565b610d9e8160016121f3565b92505b505b6000610db18787858561128f565b90508015610dec57610dd687610dc86001846121e0565b600091825260209091200190565b54600160301b90046001600160d01b0316610def565b60005b979650505050505050565b600b546001600160a01b031633146107265760405163118cdaa760e01b815233600482015260240161060e565b6001600160a01b038216610e515760405163ec442f0560e01b81526000600482015260240161060e565b6106646000838361119c565b600061059943610d0d565b6001600160a01b0382811660008181526008602052604080822080548686166001600160a01b0319821681179092559151919094169392849290917f3134e8a2e6d97e929a7e54011ea5485d7d196dd5f0ba4d4ef95803e8e3fc257f9190a461056f8183610ed5866112f1565b6112fc565b6001600160a01b03811660009081526009602052604081205461058890611468565b6001600160a01b038116600090815260076020526040812054610588565b60606105997f4a42546f6b656e000000000000000000000000000000000000000000000000076005611499565b60606105997f31000000000000000000000000000000000000000000000000000000000000016006611499565b80546000908015610fa457610f8e83610dc86001846121e0565b54600160301b90046001600160d01b0316610a61565b60009392505050565b6001600160a01b038216610fd757604051634b637e8f60e11b81526000600482015260240161060e565b6106648260008361119c565b6000610588610ff0610be2565b8360405161190160f01b8152600281019290925260228201526042902090565b60008060008061102288888888611544565b9250925092506110328282611613565b50909695505050505050565b6001600160a01b038216600090815260076020526040902080546001810190915581811461056f576040516301d4b62360e61b81526001600160a01b03841660048201526024810182905260440161060e565b60408051808201909152600080825260208201526001600160a01b0383166000908152600960205260409020610a6190836116cc565b6001600160a01b0384166110f15760405163e602df0560e01b81526000600482015260240161060e565b6001600160a01b03831661111b57604051634a1406b160e11b81526000600482015260240161060e565b6001600160a01b0380851660009081526001602090815260408083209387168352929052208290558015610b7d57826001600160a01b0316846001600160a01b03167f8c5be1e5ebec7d5bd14f71427d1e84f3dd0314c0f7b2291e5b200ac8c7c3b9258460405161118e91815260200190565b60405180910390a350505050565b61056f83838361173c565b6000816000036111b957506000919050565b600060016111c6846117a2565b901c6001901b905060018184816111df576111df612206565b048201901c905060018184816111f7576111f7612206565b048201901c9050600181848161120f5761120f612206565b048201901c9050600181848161122757611227612206565b048201901c9050600181848161123f5761123f612206565b048201901c9050600181848161125757611257612206565b048201901c9050600181848161126f5761126f612206565b048201901c9050610a618182858161128957611289612206565b04611836565b60005b818310156112e95760006112a6848461184c565b60008781526020902090915065ffffffffffff86169082015465ffffffffffff1611156112d5578092506112e3565b6112e08160016121f3565b93505b50611292565b509392505050565b6000610588826106f6565b816001600160a01b0316836001600160a01b03161415801561131e5750600081115b1561056f576001600160a01b038316156113c6576001600160a01b038316600090815260096020526040812081906113619061186761135c86611873565b6118a7565b6001600160d01b031691506001600160d01b03169150846001600160a01b03167fdec2bacdd2f05b59de34da9b523dff8be42e5e38e818c82fdb0bae774387a72483836040516113bb929190918252602082015260400190565b60405180910390a250505b6001600160a01b0382161561056f576001600160a01b038216600090815260096020526040812081906113ff906118e061135c86611873565b6001600160d01b031691506001600160d01b03169150836001600160a01b03167fdec2bacdd2f05b59de34da9b523dff8be42e5e38e818c82fdb0bae774387a7248383604051611459929190918252602082015260400190565b60405180910390a25050505050565b600063ffffffff821115610d40576040516306dfcc6560e41b8152602060048201526024810183905260440161060e565b606060ff83146114b3576114ac836118ec565b9050610588565b8180546114bf90612080565b80601f01602080910402602001604051908101604052809291908181526020018280546114eb90612080565b80156115385780601f1061150d57610100808354040283529160200191611538565b820191906000526020600020905b81548152906001019060200180831161151b57829003601f168201915b50505050509050610588565b600080807f7fffffffffffffffffffffffffffffff5d576e7357a4501ddfe92f46681b20a084111561157f5750600091506003905082611609565b604080516000808252602082018084528a905260ff891692820192909252606081018790526080810186905260019060a0016020604051602081039080840390855afa1580156115d3573d6000803e3d6000fd5b5050604051601f1901519150506001600160a01b0381166115ff57506000925060019150829050611609565b9250600091508190505b9450945094915050565b60008260038111156116275761162761221c565b03611630575050565b60018260038111156116445761164461221c565b036116625760405163f645eedf60e01b815260040160405180910390fd5b60028260038111156116765761167661221c565b036116975760405163fce698f760e01b81526004810182905260240161060e565b60038260038111156116ab576116ab61221c565b03610664576040516335e2f38360e21b81526004810182905260240161060e565b6040805180820190915260008082526020820152826000018263ffffffff16815481106116fb576116fb612232565b60009182526020918290206040805180820190915291015465ffffffffffff81168252600160301b90046001600160d01b0316918101919091529392505050565b61174783838361192b565b6001600160a01b03831661179757600061175f61058e565b90506001600160d01b038082111561179457604051630e58ae9360e11b8152600481018390526024810182905260440161060e565b50505b61056f838383611a55565b600080608083901c156117b757608092831c92015b604083901c156117c957604092831c92015b602083901c156117db57602092831c92015b601083901c156117ed57601092831c92015b600883901c156117ff57600892831c92015b600483901c1561181157600492831c92015b600283901c1561182357600292831c92015b600183901c156105885760010192915050565b60008183106118455781610a61565b5090919050565b600061185b6002848418612248565b610a61908484166121f3565b6000610a61828461226a565b60006001600160d01b03821115610d40576040516306dfcc6560e41b815260d060048201526024810183905260440161060e565b6000806118d36118b56107e3565b6118cb6118c188610f74565b868863ffffffff16565b879190611acb565b915091505b935093915050565b6000610a618284612291565b606060006118f983611ad9565b604080516020808252818301909252919250600091906020820181803683375050509182525060208101929092525090565b6001600160a01b03831661195657806002600082825461194b91906121f3565b909155506119c89050565b6001600160a01b038316600090815260208190526040902054818110156119a95760405163391434e360e21b81526001600160a01b0385166004820152602481018290526044810183905260640161060e565b6001600160a01b03841660009081526020819052604090209082900390555b6001600160a01b0382166119e457600280548290039055611a03565b6001600160a01b03821660009081526020819052604090208054820190555b816001600160a01b0316836001600160a01b03167fddf252ad1be2c89b69c2b068fc378daa952ba7f163c4a11628f55a4df523b3ef83604051611a4891815260200190565b60405180910390a3505050565b6001600160a01b038316611a7757611a74600a6118e061135c84611873565b50505b6001600160a01b038216611a9957611a96600a61186761135c84611873565b50505b6001600160a01b0383811660009081526008602052604080822054858416835291205461056f929182169116836112fc565b6000806118d3858585611b01565b600060ff8216601f81111561058857604051632cd44ac360e21b815260040160405180910390fd5b825460009081908015611c20576000611b1f87610dc86001856121e0565b60408051808201909152905465ffffffffffff808216808452600160301b9092046001600160d01b031660208401529192509087161015611b7357604051632520601d60e01b815260040160405180910390fd5b805165ffffffffffff808816911603611bbf5784611b9688610dc86001866121e0565b80546001600160d01b0392909216600160301b0265ffffffffffff909216919091179055611c10565b6040805180820190915265ffffffffffff80881682526001600160d01b0380881660208085019182528b54600181018d5560008d81529190912094519151909216600160301b029216919091179101555b6020015192508391506118d89050565b50506040805180820190915265ffffffffffff80851682526001600160d01b0380851660208085019182528854600181018a5560008a815291822095519251909316600160301b0291909316179201919091559050816118d8565b6000815180845260005b81811015611ca157602081850181015186830182015201611c85565b506000602082860101526020601f19601f83011685010191505092915050565b602081526000610a616020830184611c7b565b634e487b7160e01b600052604160045260246000fd5b600082601f830112611cfb57600080fd5b813567ffffffffffffffff80821115611d1657611d16611cd4565b604051601f8301601f19908116603f01168101908282118183101715611d3e57611d3e611cd4565b81604052838152866020858801011115611d5757600080fd5b836020870160208301376000602085830101528094505050505092915050565b80356001600160a01b0381168114611d8e57600080fd5b919050565b600080600060608486031215611da857600080fd5b833567ffffffffffffffff80821115611dc057600080fd5b611dcc87838801611cea565b94506020860135915080821115611de257600080fd5b50611def86828701611cea565b925050611dfe60408501611d77565b90509250925092565b60008060408385031215611e1a57600080fd5b611e2383611d77565b946020939093013593505050565b600080600060608486031215611e4657600080fd5b611e4f84611d77565b9250611e5d60208501611d77565b9150604084013590509250925092565b600060208284031215611e7f57600080fd5b610a6182611d77565b60ff60f81b881681526000602060e06020840152611ea960e084018a611c7b565b8381036040850152611ebb818a611c7b565b606085018990526001600160a01b038816608086015260a0850187905284810360c08601528551808252602080880193509091019060005b81811015611f0f57835183529284019291840191600101611ef3565b50909c9b505050505050505050505050565b600060208284031215611f3357600080fd5b5035919050565b803560ff81168114611d8e57600080fd5b60008060008060008060c08789031215611f6457600080fd5b611f6d87611d77565b95506020870135945060408701359350611f8960608801611f3a565b92506080870135915060a087013590509295509295509295565b600080600080600080600060e0888a031215611fbe57600080fd5b611fc788611d77565b9650611fd560208901611d77565b95506040880135945060608801359350611ff160808901611f3a565b925060a0880135915060c0880135905092959891949750929550565b6000806040838503121561202057600080fd5b61202983611d77565b915061203760208401611d77565b90509250929050565b6000806040838503121561205357600080fd5b61205c83611d77565b9150602083013563ffffffff8116811461207557600080fd5b809150509250929050565b600181811c9082168061209457607f821691505b6020821081036120b457634e487b7160e01b600052602260045260246000fd5b50919050565b601f82111561056f576000816000526020600020601f850160051c810160208610156120e35750805b601f850160051c820191505b81811015612102578281556001016120ef565b505050505050565b815167ffffffffffffffff81111561212457612124611cd4565b612138816121328454612080565b846120ba565b602080601f83116001811461216d57600084156121555750858301515b600019600386901b1c1916600185901b178555612102565b600085815260208120601f198616915b8281101561219c5788860151825594840194600190910190840161217d565b50858210156121ba5787850151600019600388901b60f8161c191681555b5050505050600190811b01905550565b634e487b7160e01b600052601160045260246000fd5b81810381811115610588576105886121ca565b80820180821115610588576105886121ca565b634e487b7160e01b600052601260045260246000fd5b634e487b7160e01b600052602160045260246000fd5b634e487b7160e01b600052603260045260246000fd5b60008261226557634e487b7160e01b600052601260045260246000fd5b500490565b6001600160d01b0382811682821603908082111561228a5761228a6121ca565b5092915050565b6001600160d01b0381811683821601908082111561228a5761228a6121ca56fea26469706673582212200d44911cf2f18f3dfd278d2fd60c354fbfce115f263e80399273c0ceda9b672a64736f6c63430008170033",
			"devdoc": {
				"kind": "dev",
				"methods": {
					"CLOCK_MODE()": {
						"details": "Machine-readable description of the clock as specified in EIP-6372."
					},
					"DOMAIN_SEPARATOR()": {
						"details": "Returns the domain separator used in the encoding of the signature for {permit}, as defined by {EIP712}."
					},
					"allowance(address,address)": {
						"details": "See {IERC20-allowance}."
					},
					"approve(address,uint256)": {
						"details": "See {IERC20-approve}. NOTE: If `value` is the maximum `uint256`, the allowance is not updated on `transferFrom`. This is semantically equivalent to an infinite approval. Requirements: - `spender` cannot be the zero address."
					},
					"balanceOf(address)": {
						"params": {
							"account": "The account to get the balance of."
						},
						"returns": {
							"_0": "The number of tokens owned by the `account`, as a fixed point number with 18 decimals."
						}
					},
					"burn(address,uint256)": {
						"details": "Can only be called by this contract's owner.",
						"params": {
							"account": "The address to burn tokens from.",
							"amount": "The amount of tokens to burn, as a fixed point number with 18 decimals."
						}
					},
					"checkpoints(address,uint32)": {
						"details": "Get the `pos`-th checkpoint for `account`."
					},
					"clock()": {
						"details": "Clock used for flagging checkpoints. Can be overridden to implement timestamp based checkpoints (and voting), in which case {CLOCK_MODE} should be overridden as well to match."
					},
					"decimals()": {
						"returns": {
							"_0": "The number of decimals."
						}
					},
					"delegate(address)": {
						"details": "Delegates votes from the sender to `delegatee`."
					},
					"delegateBySig(address,uint256,uint256,uint8,bytes32,bytes32)": {
						"details": "Delegates votes from signer to `delegatee`."
					},
					"delegates(address)": {
						"details": "Returns the delegate that `account` has chosen."
					},
					"eip712Domain()": {
						"details": "See {IERC-5267}."
					},
					"getPastTotalSupply(uint256)": {
						"details": "Returns the total supply of votes available at a specific moment in the past. If the `clock()` is configured to use block numbers, this will return the value at the end of the corresponding block. NOTE: This value is the sum of all available votes, which is not necessarily the sum of all delegated votes. Votes that have not been delegated are still part of total supply, even though they would not participate in a vote. Requirements: - `timepoint` must be in the past. If operating using block numbers, the block must be already mined."
					},
					"getPastVotes(address,uint256)": {
						"details": "Returns the amount of votes that `account` had at a specific moment in the past. If the `clock()` is configured to use block numbers, this will return the value at the end of the corresponding block. Requirements: - `timepoint` must be in the past. If operating using block numbers, the block must be already mined."
					},
					"getVotes(address)": {
						"details": "Returns the current amount of votes that `account` has."
					},
					"initialize(string,string,address)": {
						"params": {
							"name_": "The token's name.",
							"owner": "The token contract's owner.",
							"symbol_": "The token's symbol."
						}
					},
					"mint(address,uint256)": {
						"details": "Can only be called by this contract's owner.",
						"params": {
							"account": "The address to mint the new tokens to.",
							"amount": "The amount of tokens to mint, as a fixed point number with 18 decimals."
						}
					},
					"numCheckpoints(address)": {
						"details": "Get number of checkpoints for `account`."
					},
					"owner()": {
						"details": "Returns the address of the current owner."
					},
					"permit(address,address,uint256,uint256,uint8,bytes32,bytes32)": {
						"details": "Sets `value` as the allowance of `spender` over ``owner``'s tokens, given ``owner``'s signed approval. IMPORTANT: The same issues {IERC20-approve} has related to transaction ordering also apply here. Emits an {Approval} event. Requirements: - `spender` cannot be the zero address. - `deadline` must be a timestamp in the future. - `v`, `r` and `s` must be a valid `secp256k1` signature from `owner` over the EIP712-formatted function arguments. - the signature must use ``owner``'s current nonce (see {nonces}). For more information on the signature format, see the https://eips.ethereum.org/EIPS/eip-2612#specification[relevant EIP section]. CAUTION: See Security Considerations above."
					},
					"renounceOwnership()": {
						"details": "Leaves the contract without owner. It will not be possible to call `onlyOwner` functions. Can only be called by the current owner. NOTE: Renouncing ownership will leave the contract without an owner, thereby disabling any functionality that is only available to the owner."
					},
					"totalSupply()": {
						"returns": {
							"_0": "The total supply of this ERC20, as a fixed point number."
						}
					},
					"transfer(address,uint256)": {
						"details": "See {IERC20-transfer}. Requirements: - `to` cannot be the zero address. - the caller must have a balance of at least `value`."
					},
					"transferFrom(address,address,uint256)": {
						"details": "See {IERC20-transferFrom}. Emits an {Approval} event indicating the updated allowance. This is not required by the EIP. See the note at the beginning of {ERC20}. NOTE: Does not update the allowance if the current allowance is the maximum `uint256`. Requirements: - `from` and `to` cannot be the zero address. - `from` must have a balance of at least `value`. - the caller must have allowance for ``from``'s tokens of at least `value`."
					},
					"transferOwnership(address)": {
						"details": "Transfers ownership of the contract to a new account (`newOwner`). Can only be called by the current owner."
					}
				},
				"version": 1
			},
			"userdoc": {
				"kind": "user",
				"methods": {
					"balanceOf(address)": {
						"notice": "The balance of the given address."
					},
					"burn(address,uint256)": {
						"notice": "Burn some outstanding tokens."
					},
					"decimals()": {
						"notice": "The number of decimals used for this token's fixed point accounting."
					},
					"initialize(string,string,address)": {
						"notice": "Initializes the token."
					},
					"mint(address,uint256)": {
						"notice": "Mints more of this token."
					},
					"name()": {
						"notice": "The token's name."
					},
					"nonces(address)": {
						"notice": "Required override."
					},
					"symbol()": {
						"notice": "The token's symbol."
					},
					"totalSupply()": {
						"notice": "The total supply of this ERC20 i.e. the total number of tokens in existence."
					}
				},
				"version": 1
			},
			"gitCommit": "8e6924651d1e8038d6c2982d6d0c09a070b141a7",
			"sourceName": "src/JBERC20.sol",
			"chainId": "11155420",
			"linkReferences": {},
			"deployedLinkReferences": {}
		}
	]
}