{
	"_format": "sphinx-sol-ct-artifact-1",
	"merkleRoot": "0x58025795c33f9e0121b492c9ea8dc31dc6803cc81b9066cd376333e802464741",
	"contractName": "JBMultiTerminal",
	"address": "0x12bB7Bcc941b2E5cCef740d0e4317a5B35717D30",
	"abi": [
		{
			"type": "constructor",
			"inputs": [
				{
					"name": "permissions",
					"type": "address",
					"internalType": "contract IJBPermissions"
				},
				{
					"name": "projects",
					"type": "address",
					"internalType": "contract IJBProjects"
				},
				{
					"name": "directory",
					"type": "address",
					"internalType": "contract IJBDirectory"
				},
				{
					"name": "splits",
					"type": "address",
					"internalType": "contract IJBSplits"
				},
				{
					"name": "store",
					"type": "address",
					"internalType": "contract IJBTerminalStore"
				},
				{
					"name": "feelessAddresses",
					"type": "address",
					"internalType": "contract IJBFeelessAddresses"
				},
				{
					"name": "permit2",
					"type": "address",
					"internalType": "contract IPermit2"
				},
				{
					"name": "trustedForwarder",
					"type": "address",
					"internalType": "address"
				}
			],
			"stateMutability": "nonpayable"
		},
		{
			"type": "function",
			"name": "DIRECTORY",
			"inputs": [],
			"outputs": [
				{
					"name": "",
					"type": "address",
					"internalType": "contract IJBDirectory"
				}
			],
			"stateMutability": "view"
		},
		{
			"type": "function",
			"name": "FEE",
			"inputs": [],
			"outputs": [
				{
					"name": "",
					"type": "uint256",
					"internalType": "uint256"
				}
			],
			"stateMutability": "view"
		},
		{
			"type": "function",
			"name": "FEELESS_ADDRESSES",
			"inputs": [],
			"outputs": [
				{
					"name": "",
					"type": "address",
					"internalType": "contract IJBFeelessAddresses"
				}
			],
			"stateMutability": "view"
		},
		{
			"type": "function",
			"name": "PERMISSIONS",
			"inputs": [],
			"outputs": [
				{
					"name": "",
					"type": "address",
					"internalType": "contract IJBPermissions"
				}
			],
			"stateMutability": "view"
		},
		{
			"type": "function",
			"name": "PERMIT2",
			"inputs": [],
			"outputs": [
				{
					"name": "",
					"type": "address",
					"internalType": "contract IPermit2"
				}
			],
			"stateMutability": "view"
		},
		{
			"type": "function",
			"name": "PROJECTS",
			"inputs": [],
			"outputs": [
				{
					"name": "",
					"type": "address",
					"internalType": "contract IJBProjects"
				}
			],
			"stateMutability": "view"
		},
		{
			"type": "function",
			"name": "SPLITS",
			"inputs": [],
			"outputs": [
				{
					"name": "",
					"type": "address",
					"internalType": "contract IJBSplits"
				}
			],
			"stateMutability": "view"
		},
		{
			"type": "function",
			"name": "STORE",
			"inputs": [],
			"outputs": [
				{
					"name": "",
					"type": "address",
					"internalType": "contract IJBTerminalStore"
				}
			],
			"stateMutability": "view"
		},
		{
			"type": "function",
			"name": "accountingContextForTokenOf",
			"inputs": [
				{
					"name": "projectId",
					"type": "uint256",
					"internalType": "uint256"
				},
				{
					"name": "token",
					"type": "address",
					"internalType": "address"
				}
			],
			"outputs": [
				{
					"name": "",
					"type": "tuple",
					"internalType": "struct JBAccountingContext",
					"components": [
						{
							"name": "token",
							"type": "address",
							"internalType": "address"
						},
						{
							"name": "decimals",
							"type": "uint8",
							"internalType": "uint8"
						},
						{
							"name": "currency",
							"type": "uint32",
							"internalType": "uint32"
						}
					]
				}
			],
			"stateMutability": "view"
		},
		{
			"type": "function",
			"name": "accountingContextsOf",
			"inputs": [
				{
					"name": "projectId",
					"type": "uint256",
					"internalType": "uint256"
				}
			],
			"outputs": [
				{
					"name": "",
					"type": "tuple[]",
					"internalType": "struct JBAccountingContext[]",
					"components": [
						{
							"name": "token",
							"type": "address",
							"internalType": "address"
						},
						{
							"name": "decimals",
							"type": "uint8",
							"internalType": "uint8"
						},
						{
							"name": "currency",
							"type": "uint32",
							"internalType": "uint32"
						}
					]
				}
			],
			"stateMutability": "view"
		},
		{
			"type": "function",
			"name": "addAccountingContextsFor",
			"inputs": [
				{
					"name": "projectId",
					"type": "uint256",
					"internalType": "uint256"
				},
				{
					"name": "tokens",
					"type": "address[]",
					"internalType": "address[]"
				}
			],
			"outputs": [],
			"stateMutability": "nonpayable"
		},
		{
			"type": "function",
			"name": "addToBalanceOf",
			"inputs": [
				{
					"name": "projectId",
					"type": "uint256",
					"internalType": "uint256"
				},
				{
					"name": "token",
					"type": "address",
					"internalType": "address"
				},
				{
					"name": "amount",
					"type": "uint256",
					"internalType": "uint256"
				},
				{
					"name": "shouldReturnHeldFees",
					"type": "bool",
					"internalType": "bool"
				},
				{
					"name": "memo",
					"type": "string",
					"internalType": "string"
				},
				{
					"name": "metadata",
					"type": "bytes",
					"internalType": "bytes"
				}
			],
			"outputs": [],
			"stateMutability": "payable"
		},
		{
			"type": "function",
			"name": "currentSurplusOf",
			"inputs": [
				{
					"name": "projectId",
					"type": "uint256",
					"internalType": "uint256"
				},
				{
					"name": "decimals",
					"type": "uint256",
					"internalType": "uint256"
				},
				{
					"name": "currency",
					"type": "uint256",
					"internalType": "uint256"
				}
			],
			"outputs": [
				{
					"name": "",
					"type": "uint256",
					"internalType": "uint256"
				}
			],
			"stateMutability": "view"
		},
		{
			"type": "function",
			"name": "executePayout",
			"inputs": [
				{
					"name": "split",
					"type": "tuple",
					"internalType": "struct JBSplit",
					"components": [
						{
							"name": "preferAddToBalance",
							"type": "bool",
							"internalType": "bool"
						},
						{
							"name": "percent",
							"type": "uint256",
							"internalType": "uint256"
						},
						{
							"name": "projectId",
							"type": "uint256",
							"internalType": "uint256"
						},
						{
							"name": "beneficiary",
							"type": "address",
							"internalType": "address payable"
						},
						{
							"name": "lockedUntil",
							"type": "uint256",
							"internalType": "uint256"
						},
						{
							"name": "hook",
							"type": "address",
							"internalType": "contract IJBSplitHook"
						}
					]
				},
				{
					"name": "projectId",
					"type": "uint256",
					"internalType": "uint256"
				},
				{
					"name": "token",
					"type": "address",
					"internalType": "address"
				},
				{
					"name": "amount",
					"type": "uint256",
					"internalType": "uint256"
				},
				{
					"name": "originalMessageSender",
					"type": "address",
					"internalType": "address"
				}
			],
			"outputs": [
				{
					"name": "netPayoutAmount",
					"type": "uint256",
					"internalType": "uint256"
				}
			],
			"stateMutability": "nonpayable"
		},
		{
			"type": "function",
			"name": "executeProcessFee",
			"inputs": [
				{
					"name": "projectId",
					"type": "uint256",
					"internalType": "uint256"
				},
				{
					"name": "token",
					"type": "address",
					"internalType": "address"
				},
				{
					"name": "amount",
					"type": "uint256",
					"internalType": "uint256"
				},
				{
					"name": "beneficiary",
					"type": "address",
					"internalType": "address"
				},
				{
					"name": "feeTerminal",
					"type": "address",
					"internalType": "contract IJBTerminal"
				}
			],
			"outputs": [],
			"stateMutability": "nonpayable"
		},
		{
			"type": "function",
			"name": "heldFeesOf",
			"inputs": [
				{
					"name": "projectId",
					"type": "uint256",
					"internalType": "uint256"
				},
				{
					"name": "token",
					"type": "address",
					"internalType": "address"
				}
			],
			"outputs": [
				{
					"name": "",
					"type": "tuple[]",
					"internalType": "struct JBFee[]",
					"components": [
						{
							"name": "amount",
							"type": "uint256",
							"internalType": "uint256"
						},
						{
							"name": "beneficiary",
							"type": "address",
							"internalType": "address"
						},
						{
							"name": "unlockTimestamp",
							"type": "uint256",
							"internalType": "uint256"
						}
					]
				}
			],
			"stateMutability": "view"
		},
		{
			"type": "function",
			"name": "isTrustedForwarder",
			"inputs": [
				{
					"name": "forwarder",
					"type": "address",
					"internalType": "address"
				}
			],
			"outputs": [
				{
					"name": "",
					"type": "bool",
					"internalType": "bool"
				}
			],
			"stateMutability": "view"
		},
		{
			"type": "function",
			"name": "migrateBalanceOf",
			"inputs": [
				{
					"name": "projectId",
					"type": "uint256",
					"internalType": "uint256"
				},
				{
					"name": "token",
					"type": "address",
					"internalType": "address"
				},
				{
					"name": "to",
					"type": "address",
					"internalType": "contract IJBTerminal"
				}
			],
			"outputs": [
				{
					"name": "balance",
					"type": "uint256",
					"internalType": "uint256"
				}
			],
			"stateMutability": "nonpayable"
		},
		{
			"type": "function",
			"name": "pay",
			"inputs": [
				{
					"name": "projectId",
					"type": "uint256",
					"internalType": "uint256"
				},
				{
					"name": "token",
					"type": "address",
					"internalType": "address"
				},
				{
					"name": "amount",
					"type": "uint256",
					"internalType": "uint256"
				},
				{
					"name": "beneficiary",
					"type": "address",
					"internalType": "address"
				},
				{
					"name": "minReturnedTokens",
					"type": "uint256",
					"internalType": "uint256"
				},
				{
					"name": "memo",
					"type": "string",
					"internalType": "string"
				},
				{
					"name": "metadata",
					"type": "bytes",
					"internalType": "bytes"
				}
			],
			"outputs": [
				{
					"name": "beneficiaryTokenCount",
					"type": "uint256",
					"internalType": "uint256"
				}
			],
			"stateMutability": "payable"
		},
		{
			"type": "function",
			"name": "processHeldFeesOf",
			"inputs": [
				{
					"name": "projectId",
					"type": "uint256",
					"internalType": "uint256"
				},
				{
					"name": "token",
					"type": "address",
					"internalType": "address"
				}
			],
			"outputs": [],
			"stateMutability": "nonpayable"
		},
		{
			"type": "function",
			"name": "redeemTokensOf",
			"inputs": [
				{
					"name": "holder",
					"type": "address",
					"internalType": "address"
				},
				{
					"name": "projectId",
					"type": "uint256",
					"internalType": "uint256"
				},
				{
					"name": "tokenToReclaim",
					"type": "address",
					"internalType": "address"
				},
				{
					"name": "redeemCount",
					"type": "uint256",
					"internalType": "uint256"
				},
				{
					"name": "minTokensReclaimed",
					"type": "uint256",
					"internalType": "uint256"
				},
				{
					"name": "beneficiary",
					"type": "address",
					"internalType": "address payable"
				},
				{
					"name": "metadata",
					"type": "bytes",
					"internalType": "bytes"
				}
			],
			"outputs": [
				{
					"name": "reclaimAmount",
					"type": "uint256",
					"internalType": "uint256"
				}
			],
			"stateMutability": "nonpayable"
		},
		{
			"type": "function",
			"name": "sendPayoutsOf",
			"inputs": [
				{
					"name": "projectId",
					"type": "uint256",
					"internalType": "uint256"
				},
				{
					"name": "token",
					"type": "address",
					"internalType": "address"
				},
				{
					"name": "amount",
					"type": "uint256",
					"internalType": "uint256"
				},
				{
					"name": "currency",
					"type": "uint256",
					"internalType": "uint256"
				},
				{
					"name": "minTokensPaidOut",
					"type": "uint256",
					"internalType": "uint256"
				}
			],
			"outputs": [
				{
					"name": "amountPaidOut",
					"type": "uint256",
					"internalType": "uint256"
				}
			],
			"stateMutability": "nonpayable"
		},
		{
			"type": "function",
			"name": "supportsInterface",
			"inputs": [
				{
					"name": "interfaceId",
					"type": "bytes4",
					"internalType": "bytes4"
				}
			],
			"outputs": [
				{
					"name": "",
					"type": "bool",
					"internalType": "bool"
				}
			],
			"stateMutability": "view"
		},
		{
			"type": "function",
			"name": "trustedForwarder",
			"inputs": [],
			"outputs": [
				{
					"name": "",
					"type": "address",
					"internalType": "address"
				}
			],
			"stateMutability": "view"
		},
		{
			"type": "function",
			"name": "useAllowanceOf",
			"inputs": [
				{
					"name": "projectId",
					"type": "uint256",
					"internalType": "uint256"
				},
				{
					"name": "token",
					"type": "address",
					"internalType": "address"
				},
				{
					"name": "amount",
					"type": "uint256",
					"internalType": "uint256"
				},
				{
					"name": "currency",
					"type": "uint256",
					"internalType": "uint256"
				},
				{
					"name": "minTokensPaidOut",
					"type": "uint256",
					"internalType": "uint256"
				},
				{
					"name": "beneficiary",
					"type": "address",
					"internalType": "address payable"
				},
				{
					"name": "memo",
					"type": "string",
					"internalType": "string"
				}
			],
			"outputs": [
				{
					"name": "amountPaidOut",
					"type": "uint256",
					"internalType": "uint256"
				}
			],
			"stateMutability": "nonpayable"
		},
		{
			"type": "event",
			"name": "AddToBalance",
			"inputs": [
				{
					"name": "projectId",
					"type": "uint256",
					"indexed": true,
					"internalType": "uint256"
				},
				{
					"name": "amount",
					"type": "uint256",
					"indexed": false,
					"internalType": "uint256"
				},
				{
					"name": "unlockedFees",
					"type": "uint256",
					"indexed": false,
					"internalType": "uint256"
				},
				{
					"name": "memo",
					"type": "string",
					"indexed": false,
					"internalType": "string"
				},
				{
					"name": "metadata",
					"type": "bytes",
					"indexed": false,
					"internalType": "bytes"
				},
				{
					"name": "caller",
					"type": "address",
					"indexed": false,
					"internalType": "address"
				}
			],
			"anonymous": false
		},
		{
			"type": "event",
			"name": "FeeReverted",
			"inputs": [
				{
					"name": "projectId",
					"type": "uint256",
					"indexed": true,
					"internalType": "uint256"
				},
				{
					"name": "token",
					"type": "address",
					"indexed": true,
					"internalType": "address"
				},
				{
					"name": "feeProjectId",
					"type": "uint256",
					"indexed": true,
					"internalType": "uint256"
				},
				{
					"name": "amount",
					"type": "uint256",
					"indexed": false,
					"internalType": "uint256"
				},
				{
					"name": "reason",
					"type": "bytes",
					"indexed": false,
					"internalType": "bytes"
				},
				{
					"name": "caller",
					"type": "address",
					"indexed": false,
					"internalType": "address"
				}
			],
			"anonymous": false
		},
		{
			"type": "event",
			"name": "HoldFee",
			"inputs": [
				{
					"name": "projectId",
					"type": "uint256",
					"indexed": true,
					"internalType": "uint256"
				},
				{
					"name": "token",
					"type": "address",
					"indexed": true,
					"internalType": "address"
				},
				{
					"name": "amount",
					"type": "uint256",
					"indexed": true,
					"internalType": "uint256"
				},
				{
					"name": "fee",
					"type": "uint256",
					"indexed": false,
					"internalType": "uint256"
				},
				{
					"name": "beneficiary",
					"type": "address",
					"indexed": false,
					"internalType": "address"
				},
				{
					"name": "caller",
					"type": "address",
					"indexed": false,
					"internalType": "address"
				}
			],
			"anonymous": false
		},
		{
			"type": "event",
			"name": "HookAfterRecordPay",
			"inputs": [
				{
					"name": "hook",
					"type": "address",
					"indexed": true,
					"internalType": "contract IJBPayHook"
				},
				{
					"name": "context",
					"type": "tuple",
					"indexed": false,
					"internalType": "struct JBAfterPayRecordedContext",
					"components": [
						{
							"name": "payer",
							"type": "address",
							"internalType": "address"
						},
						{
							"name": "projectId",
							"type": "uint256",
							"internalType": "uint256"
						},
						{
							"name": "rulesetId",
							"type": "uint256",
							"internalType": "uint256"
						},
						{
							"name": "amount",
							"type": "tuple",
							"internalType": "struct JBTokenAmount",
							"components": [
								{
									"name": "token",
									"type": "address",
									"internalType": "address"
								},
								{
									"name": "value",
									"type": "uint256",
									"internalType": "uint256"
								},
								{
									"name": "decimals",
									"type": "uint256",
									"internalType": "uint256"
								},
								{
									"name": "currency",
									"type": "uint256",
									"internalType": "uint256"
								}
							]
						},
						{
							"name": "forwardedAmount",
							"type": "tuple",
							"internalType": "struct JBTokenAmount",
							"components": [
								{
									"name": "token",
									"type": "address",
									"internalType": "address"
								},
								{
									"name": "value",
									"type": "uint256",
									"internalType": "uint256"
								},
								{
									"name": "decimals",
									"type": "uint256",
									"internalType": "uint256"
								},
								{
									"name": "currency",
									"type": "uint256",
									"internalType": "uint256"
								}
							]
						},
						{
							"name": "weight",
							"type": "uint256",
							"internalType": "uint256"
						},
						{
							"name": "projectTokenCount",
							"type": "uint256",
							"internalType": "uint256"
						},
						{
							"name": "beneficiary",
							"type": "address",
							"internalType": "address"
						},
						{
							"name": "hookMetadata",
							"type": "bytes",
							"internalType": "bytes"
						},
						{
							"name": "payerMetadata",
							"type": "bytes",
							"internalType": "bytes"
						}
					]
				},
				{
					"name": "specificationAmount",
					"type": "uint256",
					"indexed": false,
					"internalType": "uint256"
				},
				{
					"name": "caller",
					"type": "address",
					"indexed": false,
					"internalType": "address"
				}
			],
			"anonymous": false
		},
		{
			"type": "event",
			"name": "HookAfterRecordRedeem",
			"inputs": [
				{
					"name": "hook",
					"type": "address",
					"indexed": true,
					"internalType": "contract IJBRedeemHook"
				},
				{
					"name": "context",
					"type": "tuple",
					"indexed": false,
					"internalType": "struct JBAfterRedeemRecordedContext",
					"components": [
						{
							"name": "holder",
							"type": "address",
							"internalType": "address"
						},
						{
							"name": "projectId",
							"type": "uint256",
							"internalType": "uint256"
						},
						{
							"name": "rulesetId",
							"type": "uint256",
							"internalType": "uint256"
						},
						{
							"name": "redeemCount",
							"type": "uint256",
							"internalType": "uint256"
						},
						{
							"name": "reclaimedAmount",
							"type": "tuple",
							"internalType": "struct JBTokenAmount",
							"components": [
								{
									"name": "token",
									"type": "address",
									"internalType": "address"
								},
								{
									"name": "value",
									"type": "uint256",
									"internalType": "uint256"
								},
								{
									"name": "decimals",
									"type": "uint256",
									"internalType": "uint256"
								},
								{
									"name": "currency",
									"type": "uint256",
									"internalType": "uint256"
								}
							]
						},
						{
							"name": "forwardedAmount",
							"type": "tuple",
							"internalType": "struct JBTokenAmount",
							"components": [
								{
									"name": "token",
									"type": "address",
									"internalType": "address"
								},
								{
									"name": "value",
									"type": "uint256",
									"internalType": "uint256"
								},
								{
									"name": "decimals",
									"type": "uint256",
									"internalType": "uint256"
								},
								{
									"name": "currency",
									"type": "uint256",
									"internalType": "uint256"
								}
							]
						},
						{
							"name": "redemptionRate",
							"type": "uint256",
							"internalType": "uint256"
						},
						{
							"name": "beneficiary",
							"type": "address",
							"internalType": "address payable"
						},
						{
							"name": "hookMetadata",
							"type": "bytes",
							"internalType": "bytes"
						},
						{
							"name": "redeemerMetadata",
							"type": "bytes",
							"internalType": "bytes"
						}
					]
				},
				{
					"name": "specificationAmount",
					"type": "uint256",
					"indexed": false,
					"internalType": "uint256"
				},
				{
					"name": "fee",
					"type": "uint256",
					"indexed": false,
					"internalType": "uint256"
				},
				{
					"name": "caller",
					"type": "address",
					"indexed": false,
					"internalType": "address"
				}
			],
			"anonymous": false
		},
		{
			"type": "event",
			"name": "MigrateTerminal",
			"inputs": [
				{
					"name": "projectId",
					"type": "uint256",
					"indexed": true,
					"internalType": "uint256"
				},
				{
					"name": "token",
					"type": "address",
					"indexed": true,
					"internalType": "address"
				},
				{
					"name": "to",
					"type": "address",
					"indexed": true,
					"internalType": "contract IJBTerminal"
				},
				{
					"name": "amount",
					"type": "uint256",
					"indexed": false,
					"internalType": "uint256"
				},
				{
					"name": "caller",
					"type": "address",
					"indexed": false,
					"internalType": "address"
				}
			],
			"anonymous": false
		},
		{
			"type": "event",
			"name": "Pay",
			"inputs": [
				{
					"name": "rulesetId",
					"type": "uint256",
					"indexed": true,
					"internalType": "uint256"
				},
				{
					"name": "rulesetCycleNumber",
					"type": "uint256",
					"indexed": true,
					"internalType": "uint256"
				},
				{
					"name": "projectId",
					"type": "uint256",
					"indexed": true,
					"internalType": "uint256"
				},
				{
					"name": "payer",
					"type": "address",
					"indexed": false,
					"internalType": "address"
				},
				{
					"name": "beneficiary",
					"type": "address",
					"indexed": false,
					"internalType": "address"
				},
				{
					"name": "amount",
					"type": "uint256",
					"indexed": false,
					"internalType": "uint256"
				},
				{
					"name": "beneficiaryTokenCount",
					"type": "uint256",
					"indexed": false,
					"internalType": "uint256"
				},
				{
					"name": "memo",
					"type": "string",
					"indexed": false,
					"internalType": "string"
				},
				{
					"name": "metadata",
					"type": "bytes",
					"indexed": false,
					"internalType": "bytes"
				},
				{
					"name": "caller",
					"type": "address",
					"indexed": false,
					"internalType": "address"
				}
			],
			"anonymous": false
		},
		{
			"type": "event",
			"name": "PayoutReverted",
			"inputs": [
				{
					"name": "projectId",
					"type": "uint256",
					"indexed": true,
					"internalType": "uint256"
				},
				{
					"name": "split",
					"type": "tuple",
					"indexed": false,
					"internalType": "struct JBSplit",
					"components": [
						{
							"name": "preferAddToBalance",
							"type": "bool",
							"internalType": "bool"
						},
						{
							"name": "percent",
							"type": "uint256",
							"internalType": "uint256"
						},
						{
							"name": "projectId",
							"type": "uint256",
							"internalType": "uint256"
						},
						{
							"name": "beneficiary",
							"type": "address",
							"internalType": "address payable"
						},
						{
							"name": "lockedUntil",
							"type": "uint256",
							"internalType": "uint256"
						},
						{
							"name": "hook",
							"type": "address",
							"internalType": "contract IJBSplitHook"
						}
					]
				},
				{
					"name": "amount",
					"type": "uint256",
					"indexed": false,
					"internalType": "uint256"
				},
				{
					"name": "reason",
					"type": "bytes",
					"indexed": false,
					"internalType": "bytes"
				},
				{
					"name": "caller",
					"type": "address",
					"indexed": false,
					"internalType": "address"
				}
			],
			"anonymous": false
		},
		{
			"type": "event",
			"name": "ProcessFee",
			"inputs": [
				{
					"name": "projectId",
					"type": "uint256",
					"indexed": true,
					"internalType": "uint256"
				},
				{
					"name": "token",
					"type": "address",
					"indexed": true,
					"internalType": "address"
				},
				{
					"name": "amount",
					"type": "uint256",
					"indexed": true,
					"internalType": "uint256"
				},
				{
					"name": "wasHeld",
					"type": "bool",
					"indexed": false,
					"internalType": "bool"
				},
				{
					"name": "beneficiary",
					"type": "address",
					"indexed": false,
					"internalType": "address"
				},
				{
					"name": "caller",
					"type": "address",
					"indexed": false,
					"internalType": "address"
				}
			],
			"anonymous": false
		},
		{
			"type": "event",
			"name": "RedeemTokens",
			"inputs": [
				{
					"name": "rulesetId",
					"type": "uint256",
					"indexed": true,
					"internalType": "uint256"
				},
				{
					"name": "rulesetCycleNumber",
					"type": "uint256",
					"indexed": true,
					"internalType": "uint256"
				},
				{
					"name": "projectId",
					"type": "uint256",
					"indexed": true,
					"internalType": "uint256"
				},
				{
					"name": "holder",
					"type": "address",
					"indexed": false,
					"internalType": "address"
				},
				{
					"name": "beneficiary",
					"type": "address",
					"indexed": false,
					"internalType": "address"
				},
				{
					"name": "tokenCount",
					"type": "uint256",
					"indexed": false,
					"internalType": "uint256"
				},
				{
					"name": "redemptionRate",
					"type": "uint256",
					"indexed": false,
					"internalType": "uint256"
				},
				{
					"name": "reclaimedAmount",
					"type": "uint256",
					"indexed": false,
					"internalType": "uint256"
				},
				{
					"name": "metadata",
					"type": "bytes",
					"indexed": false,
					"internalType": "bytes"
				},
				{
					"name": "caller",
					"type": "address",
					"indexed": false,
					"internalType": "address"
				}
			],
			"anonymous": false
		},
		{
			"type": "event",
			"name": "ReturnHeldFees",
			"inputs": [
				{
					"name": "projectId",
					"type": "uint256",
					"indexed": true,
					"internalType": "uint256"
				},
				{
					"name": "token",
					"type": "address",
					"indexed": true,
					"internalType": "address"
				},
				{
					"name": "amount",
					"type": "uint256",
					"indexed": true,
					"internalType": "uint256"
				},
				{
					"name": "returnedFees",
					"type": "uint256",
					"indexed": false,
					"internalType": "uint256"
				},
				{
					"name": "leftoverAmount",
					"type": "uint256",
					"indexed": false,
					"internalType": "uint256"
				},
				{
					"name": "caller",
					"type": "address",
					"indexed": false,
					"internalType": "address"
				}
			],
			"anonymous": false
		},
		{
			"type": "event",
			"name": "SendPayoutToSplit",
			"inputs": [
				{
					"name": "projectId",
					"type": "uint256",
					"indexed": true,
					"internalType": "uint256"
				},
				{
					"name": "rulesetId",
					"type": "uint256",
					"indexed": true,
					"internalType": "uint256"
				},
				{
					"name": "group",
					"type": "uint256",
					"indexed": true,
					"internalType": "uint256"
				},
				{
					"name": "split",
					"type": "tuple",
					"indexed": false,
					"internalType": "struct JBSplit",
					"components": [
						{
							"name": "preferAddToBalance",
							"type": "bool",
							"internalType": "bool"
						},
						{
							"name": "percent",
							"type": "uint256",
							"internalType": "uint256"
						},
						{
							"name": "projectId",
							"type": "uint256",
							"internalType": "uint256"
						},
						{
							"name": "beneficiary",
							"type": "address",
							"internalType": "address payable"
						},
						{
							"name": "lockedUntil",
							"type": "uint256",
							"internalType": "uint256"
						},
						{
							"name": "hook",
							"type": "address",
							"internalType": "contract IJBSplitHook"
						}
					]
				},
				{
					"name": "amount",
					"type": "uint256",
					"indexed": false,
					"internalType": "uint256"
				},
				{
					"name": "netAmount",
					"type": "uint256",
					"indexed": false,
					"internalType": "uint256"
				},
				{
					"name": "caller",
					"type": "address",
					"indexed": false,
					"internalType": "address"
				}
			],
			"anonymous": false
		},
		{
			"type": "event",
			"name": "SendPayouts",
			"inputs": [
				{
					"name": "rulesetId",
					"type": "uint256",
					"indexed": true,
					"internalType": "uint256"
				},
				{
					"name": "rulesetCycleNumber",
					"type": "uint256",
					"indexed": true,
					"internalType": "uint256"
				},
				{
					"name": "projectId",
					"type": "uint256",
					"indexed": true,
					"internalType": "uint256"
				},
				{
					"name": "beneficiary",
					"type": "address",
					"indexed": false,
					"internalType": "address"
				},
				{
					"name": "amount",
					"type": "uint256",
					"indexed": false,
					"internalType": "uint256"
				},
				{
					"name": "amountPaidOut",
					"type": "uint256",
					"indexed": false,
					"internalType": "uint256"
				},
				{
					"name": "fee",
					"type": "uint256",
					"indexed": false,
					"internalType": "uint256"
				},
				{
					"name": "beneficiaryDistributionAmount",
					"type": "uint256",
					"indexed": false,
					"internalType": "uint256"
				},
				{
					"name": "caller",
					"type": "address",
					"indexed": false,
					"internalType": "address"
				}
			],
			"anonymous": false
		},
		{
			"type": "event",
			"name": "SetAccountingContext",
			"inputs": [
				{
					"name": "projectId",
					"type": "uint256",
					"indexed": true,
					"internalType": "uint256"
				},
				{
					"name": "token",
					"type": "address",
					"indexed": true,
					"internalType": "address"
				},
				{
					"name": "context",
					"type": "tuple",
					"indexed": false,
					"internalType": "struct JBAccountingContext",
					"components": [
						{
							"name": "token",
							"type": "address",
							"internalType": "address"
						},
						{
							"name": "decimals",
							"type": "uint8",
							"internalType": "uint8"
						},
						{
							"name": "currency",
							"type": "uint32",
							"internalType": "uint32"
						}
					]
				},
				{
					"name": "caller",
					"type": "address",
					"indexed": false,
					"internalType": "address"
				}
			],
			"anonymous": false
		},
		{
			"type": "event",
			"name": "UseAllowance",
			"inputs": [
				{
					"name": "rulesetId",
					"type": "uint256",
					"indexed": true,
					"internalType": "uint256"
				},
				{
					"name": "rulesetCycleNumber",
					"type": "uint256",
					"indexed": true,
					"internalType": "uint256"
				},
				{
					"name": "projectId",
					"type": "uint256",
					"indexed": true,
					"internalType": "uint256"
				},
				{
					"name": "beneficiary",
					"type": "address",
					"indexed": false,
					"internalType": "address"
				},
				{
					"name": "amount",
					"type": "uint256",
					"indexed": false,
					"internalType": "uint256"
				},
				{
					"name": "amountPaidOut",
					"type": "uint256",
					"indexed": false,
					"internalType": "uint256"
				},
				{
					"name": "netAmountPaidOut",
					"type": "uint256",
					"indexed": false,
					"internalType": "uint256"
				},
				{
					"name": "memo",
					"type": "string",
					"indexed": false,
					"internalType": "string"
				},
				{
					"name": "caller",
					"type": "address",
					"indexed": false,
					"internalType": "address"
				}
			],
			"anonymous": false
		},
		{
			"type": "error",
			"name": "ACCOUNTING_CONTEXT_ALREADY_SET",
			"inputs": []
		},
		{
			"type": "error",
			"name": "AddressEmptyCode",
			"inputs": [
				{
					"name": "target",
					"type": "address",
					"internalType": "address"
				}
			]
		},
		{
			"type": "error",
			"name": "AddressInsufficientBalance",
			"inputs": [
				{
					"name": "account",
					"type": "address",
					"internalType": "address"
				}
			]
		},
		{
			"type": "error",
			"name": "FailedInnerCall",
			"inputs": []
		},
		{
			"type": "error",
			"name": "INADEQUATE_PAYOUT_AMOUNT",
			"inputs": []
		},
		{
			"type": "error",
			"name": "INADEQUATE_RECLAIM_AMOUNT",
			"inputs": []
		},
		{
			"type": "error",
			"name": "NO_MSG_VALUE_ALLOWED",
			"inputs": []
		},
		{
			"type": "error",
			"name": "OVERFLOW_ALERT",
			"inputs": []
		},
		{
			"type": "error",
			"name": "PERMIT_ALLOWANCE_NOT_ENOUGH",
			"inputs": []
		},
		{
			"type": "error",
			"name": "PRBMath_MulDiv_Overflow",
			"inputs": [
				{
					"name": "x",
					"type": "uint256",
					"internalType": "uint256"
				},
				{
					"name": "y",
					"type": "uint256",
					"internalType": "uint256"
				},
				{
					"name": "denominator",
					"type": "uint256",
					"internalType": "uint256"
				}
			]
		},
		{
			"type": "error",
			"name": "SafeERC20FailedOperation",
			"inputs": [
				{
					"name": "token",
					"type": "address",
					"internalType": "address"
				}
			]
		},
		{
			"type": "error",
			"name": "TERMINAL_TOKENS_INCOMPATIBLE",
			"inputs": []
		},
		{
			"type": "error",
			"name": "TOKEN_NOT_ACCEPTED",
			"inputs": []
		},
		{
			"type": "error",
			"name": "UNAUTHORIZED",
			"inputs": []
		},
		{
			"type": "error",
			"name": "UNDER_MIN_RETURNED_TOKENS",
			"inputs": []
		}
	],
	"solcInputHash": "b2112d617c776ac2cceb92d11c578094",
	"args": [
		"0xBA24624AE5dc821866E9E71Ed050412Ef01E2fe6",
		"0x4d9207aBEcA883161A1eAee9DaBeDC0001c198d7",
		"0x18017cfeD48E1dC0Adc445cEF8A9e6AfFCb330DA",
		"0x7CB4a75D21c45d1A0A0333BFa626f54636c84Da5",
		"0xa0D811360b0d49be8d33309D6eAE03D072E30312",
		"0xEe80091E7c8E7C9764Ad8ccc94F978B15d7cc841",
		"0x000000000022D473030F116dDEE9F6B43aC78BA3",
		"0xB2b5841DBeF766d4b521221732F9B618fCf34A87"
	],
	"bytecode": "0x6101806040523480156200001257600080fd5b506040516200622c3803806200622c83398101604081905262000035916200008b565b6001600160a01b03978816608052871660a05294861660c05292851660e0529084166101005283166101205282166101405216610160526200014c565b6001600160a01b03811681146200008857600080fd5b50565b600080600080600080600080610100898b031215620000a957600080fd5b8851620000b68162000072565b60208a0151909850620000c98162000072565b60408a0151909750620000dc8162000072565b60608a0151909650620000ef8162000072565b60808a0151909550620001028162000072565b60a08a0151909450620001158162000072565b60c08a0151909350620001288162000072565b60e08a01519092506200013b8162000072565b809150509295985092959890939650565b60805160a05160c05160e05161010051610120516101405161016051615f9362000299600039600081816104430152818161209a015261248601526000818161040f015281816107c901528181610b0801528181610e120152818161282501528181612cab015261401001526000818161031f015281816116250152818161183f01528181611b0a01528181611d290152818161279601528181612ae901528181612e7b015281816139d1015261463b0152600081816101b201526142910152600081816104aa01528181610a280152818161117301528181611de60152818161220301528181612b970152613ec40152600081816101fe015281816110dd015281816114a501528181611702015281816128c60152612f1901526000818161038b015281816104740152613afb0152600081816105c60152818161262801526126d10152615f936000f3fe6080604052600436106101665760003560e01c80636afdd850116100d1578063bb7214fe1161008a578063cfaf583911610064578063cfaf583914610574578063e28b541114610594578063f434c914146105b4578063fef43257146105e857600080fd5b8063bb7214fe1461051f578063c57981b51461053f578063cc6801271461055457600080fd5b80636afdd850146104315780637da0a8771461046557806388bc2ef31461049857806398ea47fc146104cc5780639e6eec05146104ec578063b62d17cf146104ff57600080fd5b8063507f146511610123578063507f14651461030d578063515a929314610341578063572b6c051461036e5780635f912e56146103bb57806362ef3036146103dd578063659a2047146103fd57600080fd5b806301ffc9a71461016b5780631f47ce69146101a0578063293c4999146101ec57806333b30610146102205780633a01714f1461024d57806343a89aaf146102df575b600080fd5b34801561017757600080fd5b5061018b610186366004614940565b6105fb565b60405190151581526020015b60405180910390f35b3480156101ac57600080fd5b506101d47f000000000000000000000000000000000000000000000000000000000000000081565b6040516001600160a01b039091168152602001610197565b3480156101f857600080fd5b506101d47f000000000000000000000000000000000000000000000000000000000000000081565b34801561022c57600080fd5b5061024061023b36600461497f565b6106ef565b60405161019791906149af565b34801561025957600080fd5b506102d261026836600461497f565b6040805160608082018352600080835260208084018290529284018190529485528482528285206001600160a01b03948516865282529382902082519485018352549283168452600160a01b830460ff1690840152600160a81b90910463ffffffff169082015290565b6040516101979190614a3c565b3480156102eb57600080fd5b506102ff6102fa366004614a4a565b61078f565b604051908152602001610197565b34801561031957600080fd5b506101d47f000000000000000000000000000000000000000000000000000000000000000081565b34801561034d57600080fd5b5061036161035c366004614ab2565b610eb2565b6040516101979190614b11565b34801561037a57600080fd5b5061018b610389366004614b24565b7f00000000000000000000000000000000000000000000000000000000000000006001600160a01b0390811691161490565b3480156103c757600080fd5b506103db6103d6366004614b41565b610f4c565b005b3480156103e957600080fd5b506103db6103f836600461497f565b6110b3565b34801561040957600080fd5b506101d47f000000000000000000000000000000000000000000000000000000000000000081565b34801561043d57600080fd5b506101d47f000000000000000000000000000000000000000000000000000000000000000081565b34801561047157600080fd5b507f00000000000000000000000000000000000000000000000000000000000000006101d4565b3480156104a457600080fd5b506101d47f000000000000000000000000000000000000000000000000000000000000000081565b3480156104d857600080fd5b506103db6104e7366004614b92565b6110c3565b6103db6104fa366004614c5f565b6113fd565b34801561050b57600080fd5b506102ff61051a366004614d06565b611480565b34801561052b57600080fd5b506102ff61053a366004614d80565b61158b565b34801561054b57600080fd5b506102ff601981565b34801561056057600080fd5b506102ff61056f366004614ddc565b611600565b34801561058057600080fd5b506102ff61058f366004614e08565b6116ac565b3480156105a057600080fd5b506102ff6105af366004614e50565b6116dd565b3480156105c057600080fd5b506101d47f000000000000000000000000000000000000000000000000000000000000000081565b6102ff6105f6366004614e92565b6119b9565b60006001600160e01b0319821663775c5eb360e11b148061062c57506001600160e01b03198216633d0d324560e21b145b8061064757506001600160e01b03198216632f720bd160e21b145b8061066257506001600160e01b03198216635db90a7f60e11b145b8061067d57506001600160e01b03198216633cc127fb60e11b145b8061069857506001600160e01b031982166306afdd8560e41b145b806106b357506001600160e01b0319821663775c5eb360e11b145b806106ce57506001600160e01b03198216633c6fe5f560e21b145b806106e957506001600160e01b031982166301ffc9a760e01b145b92915050565b60008281526002602090815260408083206001600160a01b03851684528252808320805482518185028101850190935280835260609492939192909184015b828210156107835760008481526020908190206040805160608101825260038602909201805483526001808201546001600160a01b03168486015260029091015491830191909152908352909201910161072e565b50505050905092915050565b600033301461079d57600080fd5b508160006107b160c0880160a08901614b24565b6001600160a01b0316146109f2576001600160a01b037f00000000000000000000000000000000000000000000000000000000000000001663ae74a1b56107fe60c0890160a08a01614b24565b6040516001600160e01b031960e084901b1681526001600160a01b039091166004820152602401602060405180830381865afa158015610842573d6000803e3d6000fd5b505050506040513d601f19601f820116820180604052508101906108669190614f45565b61088257610875836019611a76565b61087f9082614f78565b90505b6040805160c0810182526001600160a01b0386168082526020808301859052600089815280825284812083825290915283812054600160a01b900460ff169383019390935260608201889052608082015260a081016108e6368a90038a018a615060565b9052905061090a6108fd60c0890160a08a01614b24565b6312903a8560e01b611a98565b156109445760405162461bcd60e51b81526020600482015260056024820152643430305f3160d81b60448201526064015b60405180910390fd5b61095e61095760c0890160a08a01614b24565b8684611ab4565b60006001600160a01b03861661eeee1461097957600061097b565b825b905061098d60c0890160a08a01614b24565b6001600160a01b03166312903a8582846040518363ffffffff1660e01b81526004016109b9919061511c565b6000604051808303818588803b1580156109d257600080fd5b505af11580156109e6573d6000803e3d6000fd5b50505050505050610ea9565b604086013515610db95760408051630862026560e41b81529087013560048201526001600160a01b0385811660248301526000917f000000000000000000000000000000000000000000000000000000000000000090911690638620265090604401602060405180830381865afa158015610a71573d6000803e3d6000fd5b505050506040513d601f19601f82011682018060405250810190610a959190615170565b90506001600160a01b038116610ad55760405162461bcd60e51b81526020600482015260056024820152641a181a2f9960d91b604482015260640161093b565b6001600160a01b0381163014801590610b75575060405163ae74a1b560e01b81526001600160a01b0382811660048301527f0000000000000000000000000000000000000000000000000000000000000000169063ae74a1b590602401602060405180830381865afa158015610b4f573d6000803e3d6000fd5b505050506040513d601f19601f82011682018060405250810190610b739190614f45565b155b15610b9257610b85846019611a76565b610b8f9083614f78565b91505b610b9d818684611ab4565b600086604051602001610bb291815260200190565b60408051601f198184030181529190529050610bd1602089018961518d565b15610c9e57306001600160a01b03831603610c0d57610c088860400135878560006040518060200160405280600081525086611ae5565b610db2565b60006001600160a01b03871661eeee14610c28576000610c2a565b835b9050826001600160a01b0316639e6eec05828b604001358a886000886040518763ffffffff1660e01b8152600401610c669594939291906151fa565b6000604051808303818588803b158015610c7f57600080fd5b505af1158015610c93573d6000803e3d6000fd5b505050505050610db2565b600080610cb160808b0160608c01614b24565b6001600160a01b031603610cc55784610cd5565b610cd560808a0160608b01614b24565b9050306001600160a01b03841603610d0f57610d098960400135888630856040518060200160405280600081525088611bf1565b50610db0565b60006001600160a01b03881661eeee14610d2a576000610d2c565b845b9050836001600160a01b031663fef43257828c604001358b898760008a6040518863ffffffff1660e01b8152600401610d6a9695949392919061523d565b60206040518083038185885af1158015610d88573d6000803e3d6000fd5b50505050506040513d601f19601f82011682018060405250810190610dad9190615289565b50505b505b5050610ea9565b600080610dcc6080890160608a01614b24565b6001600160a01b031603610de05782610df0565b610df06080880160608901614b24565b60405163ae74a1b560e01b81526001600160a01b0380831660048301529192507f00000000000000000000000000000000000000000000000000000000000000009091169063ae74a1b590602401602060405180830381865afa158015610e5b573d6000803e3d6000fd5b505050506040513d601f19601f82011682018060405250810190610e7f9190614f45565b610e9b57610e8e846019611a76565b610e989083614f78565b91505b610ea730828785611f68565b505b95945050505050565b606060016000838152602001908152602001600020805480602002602001604051908101604052809291908181526020016000905b82821015610f4157600084815260209081902060408051606081018252918501546001600160a01b0381168352600160a01b810460ff1683850152600160a81b900463ffffffff1690820152825260019092019101610ee7565b505050509050919050565b333014610f5857600080fd5b6001600160a01b038116610f965760405162461bcd60e51b81526020600482015260056024820152643430345f3160d81b604482015260640161093b565b6001600160a01b0381163014610fb157610fb1818585611ab4565b600085604051602001610fc691815260200190565b60408051601f198184030181529190529050306001600160a01b0383160361100d576110076001868630876040518060200160405280600081525087611bf1565b506110ab565b60006001600160a01b03861661eeee1461102857600061102a565b845b9050826001600160a01b031663fef432578260018989896000896040518863ffffffff1660e01b81526004016110659695949392919061523d565b60206040518083038185885af1158015611083573d6000803e3d6000fd5b50505050506040513d601f19601f820116820180604052508101906110a89190615289565b50505b505050505050565b6110bf828260006120f8565b5050565b6040516331a9108f60e11b8152600481018490526111fe907f00000000000000000000000000000000000000000000000000000000000000006001600160a01b031690636352211e90602401602060405180830381865afa15801561112c573d6000803e3d6000fd5b505050506040513d601f19601f820116820180604052508101906111509190615170565b604051632eec7b5560e11b81526004810186905285906014906001600160a01b037f00000000000000000000000000000000000000000000000000000000000000001690635dd8f6aa90602401602060405180830381865afa1580156111ba573d6000803e3d6000fd5b505050506040513d601f19601f820116820180604052508101906111de9190615170565b6001600160a01b03166111ef612334565b6001600160a01b031614612343565b806000805b828110156110ab5784848281811061121d5761121d6152a2565b90506020020160208101906112329190614b24565b6000878152602081815260408083206001600160a01b038086168552925290912080549294509116156112785760405163b83f909160e01b815260040160405180910390fd5b80546001600160a01b0319166001600160a01b038416908117825561eeee1461130257826001600160a01b031663313ce5676040518163ffffffff1660e01b8152600401602060405180830381865afa1580156112d9573d6000803e3d6000fd5b505050506040513d601f19601f820116820180604052508101906112fd91906152ce565b611305565b60125b815464ffffffffff60a01b1916600160a01b60ff928316810263ffffffff60a81b1990811692909217600160a81b63ffffffff888116820292909217865560008c815260016020818152604083208054928301815583529091208754910180546001600160a01b039283166001600160a01b031982168117835589546001600160a81b03199092161790869004909716909402959095178084558654941693819004909116029190911790558316877f9570de6fc0456f642bd0a001b24cd31676388c24596df64a17190c24310690a1836113de612334565b6040516113ec929190615314565b60405180910390a350600101611203565b6110a8888861140f8b8b8b8888612353565b8888888080601f01602080910402602001604051908101604052809392919081815260200183838082843760009201919091525050604080516020601f8c018190048102820181019092528a815292508a9150899081908401838280828437600092019190915250611ae592505050565b6040516331a9108f60e11b815260048101899052600090611518906001600160a01b037f00000000000000000000000000000000000000000000000000000000000000001690636352211e90602401602060405180830381865afa1580156114ec573d6000803e3d6000fd5b505050506040513d601f19601f820116820180604052508101906115109190615170565b8a60116125ca565b61155c898989898888888080601f01602080910402602001604051908101604052809392919081815260200183838082843760009201919091525061275c92505050565b90508481101561157f5760405163a1a08d1760e01b815260040160405180910390fd5b98975050505050505050565b6000611599898960036125ca565b6115dd898989898888888080601f0160208091040260200160405190810160405280939291908181526020018383808284376000920191909152506129ec92505050565b90508481101561157f5760405163f896960b60e01b815260040160405180910390fd5b600083815260016020526040808220905163d60d1a0960e01b81526001600160a01b037f0000000000000000000000000000000000000000000000000000000000000000169163d60d1a09916116619130918991908990899060040161533a565b602060405180830381865afa15801561167e573d6000803e3d6000fd5b505050506040513d601f19601f820116820180604052508101906116a29190615289565b90505b9392505050565b60006116ba86868686612e41565b905081811015610ea95760405163a1a08d1760e01b815260040160405180910390fd5b6040516331a9108f60e11b815260048101849052600090611775906001600160a01b037f00000000000000000000000000000000000000000000000000000000000000001690636352211e90602401602060405180830381865afa158015611749573d6000803e3d6000fd5b505050506040513d601f19601f8201168201806040525081019061176d9190615170565b8560056125ca565b604051633a01714f60e01b8152600481018590526001600160a01b038481166024830152831690633a01714f90604401606060405180830381865afa1580156117c2573d6000803e3d6000fd5b505050506040513d601f19601f820116820180604052508101906117e691906153ab565b6020015160ff1660000361180d5760405163581010ed60e01b815260040160405180910390fd5b611819848460016120f8565b6040516319781e2360e01b8152600481018590526001600160a01b0384811660248301527f000000000000000000000000000000000000000000000000000000000000000016906319781e23906044016020604051808303816000875af1158015611888573d6000803e3d6000fd5b505050506040513d601f19601f820116820180604052508101906118ac9190615289565b90508015611953576118bf828483611ab4565b60006001600160a01b03841661eeee146118da5760006118dc565b815b6040805160208101825260008082529151639e6eec0560e01b81529293506001600160a01b03861692639e6eec0592859261191f928b928b928a926004016151fa565b6000604051808303818588803b15801561193857600080fd5b505af115801561194c573d6000803e3d6000fd5b5050505050505b816001600160a01b0316836001600160a01b0316857ff0aa72bb9c2a07cf43281bfe8c525ba320fdc71e18b54c9f93ab22ce074af7f684611992612334565b604080519283526001600160a01b0390911660208301520160405180910390a49392505050565b6000611a468a8a6119cd8d8d8d8989612353565b6119d5612334565b8b8a8a8080601f01602080910402602001604051908101604052809392919081815260200183838082843760009201919091525050604080516020601f8e018190048102820181019092528c815292508c91508b9081908401838280828437600092019190915250611bf192505050565b905085811015611a69576040516370dc561160e11b815260040160405180910390fd5b9998505050505050505050565b6000611a8e836103e8611a898186615406565b613080565b6116a59084614f78565b6000611aa383613154565b80156116a557506116a58383613187565b61eeed196001600160a01b03831601611acc57505050565b611ae06001600160a01b0383168483613211565b505050565b600083611af3576000611afe565b611afe87878761329b565b90506001600160a01b037f0000000000000000000000000000000000000000000000000000000000000000166351fc17358888611b3b858a615406565b6040516001600160e01b031960e086901b16815260048101939093526001600160a01b0390911660248301526044820152606401600060405180830381600087803b158015611b8957600080fd5b505af1158015611b9d573d6000803e3d6000fd5b50505050867f9ecaf7fc3dfffd6867c175d6e684b1f1e3aef019398ba8db2c1ffab4a09db25386838686611bcf612334565b604051611be0959493929190615419565b60405180910390a250505050505050565b6000611bfb61489e565b60606000611c33604051806080016040528060006001600160a01b031681526020016000815260200160008152602001600081525090565b60008060008e815260200190815260200160002060008d6001600160a01b03166001600160a01b031681526020019081526020016000206040518060600160405290816000820160009054906101000a90046001600160a01b03166001600160a01b03166001600160a01b031681526020016000820160149054906101000a900460ff1660ff1660ff1681526020016000820160159054906101000a900463ffffffff1663ffffffff1663ffffffff1681525050905060405180608001604052808d6001600160a01b031681526020018c8152602001826020015160ff168152602001826040015163ffffffff168152509150507f00000000000000000000000000000000000000000000000000000000000000006001600160a01b0316639e6840c18a838f8c8b6040518663ffffffff1660e01b8152600401611d7b959493929190615491565b6000604051808303816000875af1158015611d9a573d6000803e3d6000fd5b505050506040513d6000823e601f3d908101601f19168201604052611dc291908101906155e4565b91955090935091508115611eed57604051632eec7b5560e11b8152600481018d90527f00000000000000000000000000000000000000000000000000000000000000006001600160a01b031690635dd8f6aa90602401602060405180830381865afa158015611e35573d6000803e3d6000fd5b505050506040513d601f19601f82011682018060405250810190611e599190615170565b6040516363fdc96f60e11b8152600481018e9052602481018490526001600160a01b038a8116604483015260a06064830152600060a483015260016084830152919091169063c7fb92de9060c4016020604051808303816000875af1158015611ec6573d6000803e3d6000fd5b505050506040513d601f19601f82011682018060405250810190611eea9190615289565b94505b825115611f0457611f048c84838c888d8b8d6135ab565b8b846000015185602001517f133161f1c9161488f777ab9a26aae91d47c0d9a3fafb398960f138db02c737978c8c8f8b8e8e611f3e612334565b604051611f519796959493929190615708565b60405180910390a450505050979650505050505050565b61eeed196001600160a01b03831601611f8a57611f8583826137d1565b6120f2565b306001600160a01b03851603611fae57611f856001600160a01b0383168483613868565b604051636eb1769f60e11b81526001600160a01b03858116600483015230602483015282919084169063dd62ed3e90604401602060405180830381865afa158015611ffd573d6000803e3d6000fd5b505050506040513d601f19601f820116820180604052508101906120219190615289565b1061203b57611f856001600160a01b0383168585846138c7565b6001600160a01b0381111561206357604051633062f38960e11b815260040160405180910390fd5b604051631b63c28b60e11b81526001600160a01b0385811660048301528481166024830152828116604483015283811660648301527f000000000000000000000000000000000000000000000000000000000000000016906336c7851690608401600060405180830381600087803b1580156120de57600080fd5b505af11580156110a8573d6000803e3d6000fd5b50505050565b60008381526002602090815260408083206001600160a01b0386168452825280832080548251818502810185019093528083529192909190849084015b8282101561218a5760008481526020908190206040805160608101825260038602909201805483526001808201546001600160a01b031684860152600290910154918301919091529083529092019101612135565b50505060008681526002602090815260408083206001600160a01b038916845290915281209293506121bd9291506148f3565b8051604080516060810182526000808252602082018190528183018190529151630862026560e41b8152600160048201526001600160a01b0387811660248301529192917f00000000000000000000000000000000000000000000000000000000000000001690638620265090604401602060405180830381865afa15801561224a573d6000803e3d6000fd5b505050506040513d601f19601f8201168201806040525081019061226e9190615170565b905060005b838110156110a85784818151811061228d5761228d6152a2565b60200260200101519250851580156122a85750428360400151115b156123155760008881526002602081815260408084206001600160a01b038c811686529083528185208054600180820183559187529584902089516003909702019586559288015192850180546001600160a01b031916939091169290921790915585015191015561232c565b61232c888885600001518660200151866001613900565b600101612273565b600061233e613aeb565b905090565b806120f2576120f28484846125ca565b6000858152602081815260408083206001600160a01b03888116855292528220541661239257604051630faa917b60e11b815260040160405180910390fd5b61eeed196001600160a01b038616016123ac575034610ea9565b34156123cb57604051635e7e9adf60e11b815260040160405180910390fd5b306123d4612334565b6001600160a01b0316036123e9575082610ea9565b60003060601b90506000806124348387878080601f016020809104026020016040519081016040528093929190818152602001838380828437600092019190915250613b6092505050565b91509150811561258857600081806020019051810190612454919061577e565b90508781602001516001600160a01b03161015612484576040516317e415a160e11b815260040160405180910390fd5b7f00000000000000000000000000000000000000000000000000000000000000006001600160a01b0316632b67b5706124bb612334565b604051806060016040528060405180608001604052808f6001600160a01b0316815260200187602001516001600160a01b03168152602001876040015165ffffffffffff168152602001876060015165ffffffffffff168152508152602001306001600160a01b03168152602001856000015181525084608001516040518463ffffffff1660e01b815260040161255493929190615829565b600060405180830381600087803b15801561256e57600080fd5b505af1158015612582573d6000803e3d6000fd5b50505050505b600061259389613d06565b90506125a86125a0612334565b308b8b611f68565b806125b28a613d06565b6125bc9190614f78565b9a9950505050505050505050565b60006125d4612334565b9050836001600160a01b0316816001600160a01b031614158015612695575060405163c161c93f60e01b81526001600160a01b038281166004830152858116602483015260448201859052606482018490527f0000000000000000000000000000000000000000000000000000000000000000169063c161c93f90608401602060405180830381865afa15801561266f573d6000803e3d6000fd5b505050506040513d601f19601f820116820180604052508101906126939190614f45565b155b801561273e575060405163c161c93f60e01b81526001600160a01b038281166004830152858116602483015260006044830152606482018490527f0000000000000000000000000000000000000000000000000000000000000000169063c161c93f90608401602060405180830381865afa158015612718573d6000803e3d6000fd5b505050506040513d601f19601f8201168201806040525081019061273c9190614f45565b155b156120f25760405163075fd2b160e01b815260040160405180910390fd5b600061276661489e565b6000888152602081815260408083206001600160a01b038b81168552925291829020915163060f2bdf60e31b81527f0000000000000000000000000000000000000000000000000000000000000000909116916330795ef8916127d1918c918b908b9060040161589d565b610140604051808303816000875af11580156127f1573d6000803e3d6000fd5b505050506040513d601f19601f8201168201806040525081019061281591906158c3565b9250905060006001600160a01b037f00000000000000000000000000000000000000000000000000000000000000001663ae74a1b5612852612334565b6040516001600160e01b031960e084901b1681526001600160a01b039091166004820152602401602060405180830381865afa158015612896573d6000803e3d6000fd5b505050506040513d601f19601f820116820180604052508101906128ba9190614f45565b61296c576129678989857f00000000000000000000000000000000000000000000000000000000000000006001600160a01b0316636352211e8e6040518263ffffffff1660e01b815260040161291291815260200190565b602060405180830381865afa15801561292f573d6000803e3d6000fd5b505050506040513d601f19601f820116820180604052508101906129539190615170565b610100870151604b1c600190811614613d8e565b61296f565b60005b6129799084614f78565b9050801561298d5761298d30868a84611f68565b88826000015183602001517f8657a0c05a68a912c23c1bd00124afaa8c669063b046bd9bfd22b21d573c5e6d888b88878b6129c6612334565b6040516129d8969594939291906158f2565b60405180910390a450509695505050505050565b60006129f661489e565b6000878152602081815260408083206001600160a01b038a8116855290835281842082516060808201855291549283168152600160a01b830460ff1681860152600160a81b90920463ffffffff16828401528b855260018452828520805484518187028101870190955280855291959492938593909290849084015b82821015612acc57600084815260209081902060408051606081018252918501546001600160a01b0381168352600160a01b810460ff1683850152600160a81b900463ffffffff1690820152825260019092019101612a72565b5050604051630d346b8160e01b8152929350506001600160a01b037f00000000000000000000000000000000000000000000000000000000000000001691630d346b819150612b29908f908f908e90889088908f9060040161593c565b6000604051808303816000875af1158015612b48573d6000803e3d6000fd5b505050506040513d6000823e601f3d908101601f19168201604052612b70919081019061598e565b91985091965094509250508715612c8457604051632eec7b5560e11b8152600481018b90527f00000000000000000000000000000000000000000000000000000000000000006001600160a01b031690635dd8f6aa90602401602060405180830381865afa158015612be6573d6000803e3d6000fd5b505050506040513d601f19601f82011682018060405250810190612c0a9190615170565b60405163516a997360e11b81526001600160a01b038d81166004830152602482018d9052604482018b90526080606483015260006084830152919091169063a2d532e69060a401600060405180830381600087803b158015612c6b57600080fd5b505af1158015612c7f573d6000803e3d6000fd5b505050505b60008515612d605760405163ae74a1b560e01b81526001600160a01b0389811660048301527f0000000000000000000000000000000000000000000000000000000000000000169063ae74a1b590602401602060405180830381865afa158015612cf2573d6000803e3d6000fd5b505050506040513d601f19601f82011682018060405250810190612d169190614f45565b158015612d2557506127108314155b15612d4e57612d348682615406565b9050612d41866019611a76565b612d4b9087614f78565b95505b8515612d6057612d6030898c89611f68565b835115612dbf57612db28b60405180608001604052808d6001600160a01b03168152602001898152602001856020015160ff168152602001856040015163ffffffff168152508e8c8b8a898f8c613f42565b612dbc9082615406565b90505b80600003612dce576000612ddc565b612ddc8b8b838b6000613d8e565b508a856000015186602001517f9565fc8bdd4f45a73582d1163dbe522a4fb0c4dbb882b5e66269f70101a2509a8f8c8e898d8f612e17612334565b604051612e2a9796959493929190615aba565b60405180910390a450505050509695505050505050565b6000612e4b61489e565b6000868152602081815260408083206001600160a01b038981168552925291829020915163181241e760e31b81527f00000000000000000000000000000000000000000000000000000000000000009091169163c0920f3891612eb6918a918990899060040161589d565b610140604051808303816000875af1158015612ed6573d6000803e3d6000fd5b505050506040513d601f19601f82011682018060405250810190612efa91906158c3565b6040516331a9108f60e11b8152600481018990529093509091506000907f00000000000000000000000000000000000000000000000000000000000000006001600160a01b031690636352211e90602401602060405180830381865afa158015612f68573d6000803e3d6000fd5b505050506040513d601f19601f82011682018060405250810190612f8c9190615170565b9050600080612fa18989866020015188614257565b90925090506000612fcd8a8a612fb78686615406565b6101008901518890604b1c600190811614613d8e565b905060008315612ffa57612fe2846019611a76565b612fec9085614f78565b9050612ffa30868c84611f68565b8a866000015187602001517fda42c5c18ef97738d10c32811895add569670a6fcbe9627ea198d446f3be6dea888d8c8888613033612334565b604080516001600160a01b03978816815260208101969096528501939093526060840191909152608083015290911660a082015260c00160405180910390a4505050505050949350505050565b60008080600019858709858702925082811083820303915050806000036130ba578382816130b0576130b0615b0d565b04925050506116a5565b8381106130eb57604051630c740aef60e31b815260048101879052602481018690526044810185905260640161093b565b60008486880960026001871981018816978890046003810283188082028403028082028403028082028403028082028403028082028403029081029092039091026000889003889004909101858311909403939093029303949094049190911702949350505050565b6000613167826301ffc9a760e01b613187565b80156106e95750613180826001600160e01b0319613187565b1592915050565b6040516001600160e01b031982166024820152600090819060440160408051601f19818403018152919052602080820180516001600160e01b03166301ffc9a760e01b178152825192935060009283928392909183918a617530fa92503d915060005190508280156131fa575060208210155b80156132065750600081115b979650505050505050565b604051636eb1769f60e11b81523060048201526001600160a01b0383811660248301526000919085169063dd62ed3e90604401602060405180830381865afa158015613261573d6000803e3d6000fd5b505050506040513d601f19601f820116820180604052508101906132859190615289565b90506120f284846132968585615406565b614423565b60008381526002602090815260408083206001600160a01b0386168452825280832080548251818502810185019093528083528493849084015b8282101561332a5760008481526020908190206040805160608101825260038602909201805483526001808201546001600160a01b0316848601526002909101549183019190915290835290920191016132d5565b50505060008781526002602090815260408083206001600160a01b038a168452909152812092935061335d9291506148f3565b8051604080516060810182526000808252602082018190529181018290528592915b8281101561354157848181518110613399576133996152a2565b60200260200101519150836000036134135760008981526002602081815260408084206001600160a01b038d811686529083528185208054600180820183559187529584902088516003909702019586559287015192850180546001600160a01b0319169390911692909217909155840151910155613539565b600061342483600001516019611a76565b905060008184600001516134389190614f78565b905080861061344f57968101969485900394613536565b61345a8660196144b3565b9150600260008c815260200190815260200160002060008b6001600160a01b03166001600160a01b031681526020019081526020016000206040518060600160405280888403815260200186602001516001600160a01b03168152602001866040015181525090806001815401808255809150506001900390600052602060002090600302016000909190919091506000820151816000015560208201518160010160006101000a8154816001600160a01b0302191690836001600160a01b031602179055506040820151816002015550508188019750600095505b50505b60010161337f565b5085876001600160a01b0316897fedc5125503c021a73fd7d8ed0c2456b296be2c88f39fbed068bd091cef7ca43d8887613579612334565b6040805193845260208401929092526001600160a01b03169082015260600160405180910390a4505050509392505050565b6000604051806101400160405280876001600160a01b031681526020018a8152602001866020015181526020018881526020018881526020018660a001518152602001848152602001856001600160a01b03168152602001604051806020016040528060008152508152602001838152509050600088519050613651604051806060016040528060006001600160a01b0316815260200160008152602001606081525090565b60005b828110156137c3578a818151811061366e5761366e6152a2565b6020026020010151915060405180608001604052808b600001516001600160a01b03168152602001836020015181526020018b6040015181526020018b60600151815250846080018190525081604001518461010001819052506136df82600001518b600001518460200151611ab4565b89516000906001600160a01b031661eeee146136fc576000613702565b82602001515b835160405163f3c5788160e01b81529192506001600160a01b03169063f3c57881908390613734908990600401615bcf565b6000604051808303818588803b15801561374d57600080fd5b505af1158015613761573d6000803e3d6000fd5b505050505082600001516001600160a01b03167f092bf36eb737817b64e5cea9e9b69305c423a987b5c3066516b046cad5c0bc368685602001516137a3612334565b6040516137b293929190615be2565b60405180910390a250600101613654565b505050505050505050505050565b804710156137f45760405163cd78605960e01b815230600482015260240161093b565b6000826001600160a01b03168260405160006040518083038185875af1925050503d8060008114613841576040519150601f19603f3d011682016040523d82523d6000602084013e613846565b606091505b5050905080611ae057604051630a12f52160e11b815260040160405180910390fd5b6040516001600160a01b03838116602483015260448201839052611ae091859182169063a9059cbb906064015b604051602081830303815290604052915060e01b6020820180516001600160e01b0383818316178352505050506144c2565b6040516001600160a01b0384811660248301528381166044830152606482018390526120f29186918216906323b872dd90608401613895565b604051632fc8972b60e11b8152600481018790526001600160a01b038087166024830152604482018690528085166064830152831660848201523090635f912e569060a401600060405180830381600087803b15801561395f57600080fd5b505af1925050508015613970575060015b613a82573d80801561399e576040519150601f19603f3d011682016040523d82523d6000602084013e6139a3565b606091505b506040516351fc173560e01b8152600481018890526001600160a01b038781166024830152604482018790527f000000000000000000000000000000000000000000000000000000000000000016906351fc173590606401600060405180830381600087803b158015613a1557600080fd5b505af1158015613a29573d6000803e3d6000fd5b505050506001866001600160a01b0316887f4b73f3c5cfb174c9d0494138d07ff8ee3aa400df46327d9893ed5ac122dd558a8885613a65612334565b604051613a7493929190615c15565b60405180910390a4506110ab565b83856001600160a01b0316877fb514e730b3f8ad3aa94b6857bcc5ff4a46954bdcf8c4b0346705b1d0ac7a43258487613ab9612334565b6040805193151584526001600160a01b03928316602085015291169082015260600160405180910390a4505050505050565b6000366014336001600160a01b037f000000000000000000000000000000000000000000000000000000000000000016148015613b285750808210155b15613b5857600036613b3a8385614f78565b613b45928290615c46565b613b4e91615c70565b60601c9250505090565b339250505090565b600060606025835111613b855750506040805160208101909152600080825290613cff565b600083613b9460046020615406565b81518110613ba457613ba46152a2565b0160209081015160f81c91505b600085613bbf600484615406565b81518110613bcf57613bcf6152a2565b01602001516001600160f81b03191614801590613bf55750613bf2602083615ca5565b81105b15613cfc57600085613c08600484615406565b81518110613c1857613c186152a2565b016020908101518784019091015160f89190911c91506001600160e01b031980891690821603613cf2576000613c4f602086615ca5565b613c5a600986615406565b101580613c8f575087613c6e600986615406565b81518110613c7e57613c7e6152a2565b01602001516001600160f81b031916155b613cc857602088613ca1600987615406565b81518110613cb157613cb16152a2565b0160200151613cc3919060f81c615ca5565b613ccb565b87515b90506001613ce489613cde602087615ca5565b84614525565b965096505050505050613cff565b5050600501613bb1565b50505b9250929050565b60006001600160a01b03821661eeee14613d87576040516370a0823160e01b81523060048201526001600160a01b038316906370a0823190602401602060405180830381865afa158015613d5e573d6000803e3d6000fd5b505050506040513d601f19601f82011682018060405250810190613d829190615289565b6106e9565b4792915050565b6000613d9b846019611a76565b90508115613e9b5760008681526002602090815260408083206001600160a01b03808a168552908352928190208151606081018352888152938716928401929092529091908101613def6224ea0042615406565b9052815460018082018455600093845260209384902083516003909302019182559282015192810180546001600160a01b0319166001600160a01b0394851617905560409091015160029091015584908616877fef9cd8fc3b61b64b44042ada0a8a3ede1649bc1b112673da228120f13bf1381e601987613e6e612334565b604080519384526001600160a01b03928316602085015291169082015260600160405180910390a4610ea9565b604051630862026560e41b8152600160048201526001600160a01b0386811660248301526000917f000000000000000000000000000000000000000000000000000000000000000090911690638620265090604401602060405180830381865afa158015613f0d573d6000803e3d6000fd5b505050506040513d601f19601f82011682018060405250810190613f319190615170565b9050610ea787878487856000613900565b6000806040518061014001604052808a6001600160a01b031681526020018c8152602001876020015181526020018981526020018b81526020018b8152602001868152602001856001600160a01b03168152602001604051806020016040528060008152508152602001888152509050600083519050613fe5604051806060016040528060006001600160a01b0316815260200160008152602001606081525090565b60005b8281101561424657858181518110614002576140026152a2565b6020026020010151915060007f00000000000000000000000000000000000000000000000000000000000000006001600160a01b031663ae74a1b584600001516040518263ffffffff1660e01b815260040161406d91906001600160a01b0391909116815260200190565b602060405180830381865afa15801561408a573d6000803e3d6000fd5b505050506040513d601f19601f820116820180604052508101906140ae9190614f45565b6140c6576140c183602001516019611a76565b6140c9565b60005b905080156140f85760208301516140e09087615406565b955080836020018181516140f49190614f78565b9052505b60405180608001604052808f600001516001600160a01b03168152602001846020015181526020018f6040015181526020018f606001518152508560a00181905250826040015185610100018190525061415f83600001518f600001518560200151611ab4565b8d516000906001600160a01b031661eeee1461417c576000614182565b83602001515b84516040516319bb132d60e21b81529192506001600160a01b0316906366ec4cb49083906141b4908a90600401615d4b565b6000604051808303818588803b1580156141cd57600080fd5b505af11580156141e1573d6000803e3d6000fd5b505050505083600001516001600160a01b03167f5d2ae7ac07b3a26000acaa692b550c84cbb87300557e0359791cfec9efe1615a87866020015185614224612334565b6040516142349493929190615d5e565b60405180910390a25050600101613fe8565b505050509998505050505050505050565b6040516369e11cc560e01b815260048101859052602481018390526001600160a01b0384811660448301526000918291633b9aca009183917f000000000000000000000000000000000000000000000000000000000000000016906369e11cc590606401600060405180830381865afa1580156142d8573d6000803e3d6000fd5b505050506040513d6000823e601f3d908101601f191682016040526143009190810190615d96565b80516040805160c081018252600080825260208201819052918101829052606081018290526080810182905260a08101919091529192509060005b8281101561441257838181518110614355576143556152a2565b60200260200101519150600061437089846020015188613080565b90506000614380848e8e8561456b565b905080158015906143915750818114155b156143a3576143a08289615406565b97505b81156143af57818a0399505b8360200151870396508b6001600160a01b03168b8e7f39305f11865947ab83bc6548c8c77e5890ed5bc4a6ea54e6fe7b22f4f406f4b88786866143f0612334565b6040516144009493929190615e8c565b60405180910390a4505060010161433b565b508695505050505094509492505050565b604080516001600160a01b038416602482015260448082018490528251808303909101815260649091019091526020810180516001600160e01b031663095ea7b360e01b17905261447484826146f1565b6120f2576040516001600160a01b038481166024830152600060448301526144a991869182169063095ea7b390606401613895565b6120f284826144c2565b60006116a583836103e8613080565b60006144d76001600160a01b03841683614794565b905080516000141580156144fc5750808060200190518101906144fa9190614f45565b155b15611ae057604051635274afe760e01b81526001600160a01b038416600482015260240161093b565b60608282036040519150602081830101604052808252508260208501016020820160005b84811015614561578281015182820152602001614549565b5050509392505050565b6000306343a89aaf8686868661457f612334565b6040518663ffffffff1660e01b815260040161459f959493929190615ec0565b6020604051808303816000875af19250505080156145da575060408051601f3d908101601f191682019092526145d791810190615289565b60015b6146e6573d808015614608576040519150601f19603f3d011682016040523d82523d6000602084013e61460d565b606091505b506040516351fc173560e01b8152600481018690526001600160a01b038581166024830152604482018590527f000000000000000000000000000000000000000000000000000000000000000016906351fc173590606401600060405180830381600087803b15801561467f57600080fd5b505af1158015614693573d6000803e3d6000fd5b50505050847f37b65da09d1a43465d8f823dcc858aa187792b35585b56afe707d57d7108d2288785846146c4612334565b6040516146d49493929190615eff565b60405180910390a260009150506146e9565b90505b949350505050565b6000806000846001600160a01b03168460405161470e9190615f41565b6000604051808303816000865af19150503d806000811461474b576040519150601f19603f3d011682016040523d82523d6000602084013e614750565b606091505b509150915081801561477a57508051158061477a57508080602001905181019061477a9190614f45565b8015610ea95750505050506001600160a01b03163b151590565b60606116a58383600084600080856001600160a01b031684866040516147ba9190615f41565b60006040518083038185875af1925050503d80600081146147f7576040519150601f19603f3d011682016040523d82523d6000602084013e6147fc565b606091505b509150915061480c868383614816565b9695505050505050565b60608261482b5761482682614872565b6116a5565b815115801561484257506001600160a01b0384163b155b1561486b57604051639996b31560e01b81526001600160a01b038516600482015260240161093b565b50806116a5565b8051156148825780518082602001fd5b604051630a12f52160e11b815260040160405180910390fd5b50565b6040518061012001604052806000815260200160008152602001600081526020016000815260200160008152602001600081526020016000815260200160006001600160a01b03168152602001600081525090565b508054600082556003029060005260206000209081019061489b91905b8082111561493c5760008082556001820180546001600160a01b03191690556002820155600301614910565b5090565b60006020828403121561495257600080fd5b81356001600160e01b0319811681146116a557600080fd5b6001600160a01b038116811461489b57600080fd5b6000806040838503121561499257600080fd5b8235915060208301356149a48161496a565b809150509250929050565b602080825282518282018190526000919060409081850190868401855b82811015614a0457815180518552868101516001600160a01b03168786015285015185850152606090930192908501906001016149cc565b5091979650505050505050565b80516001600160a01b0316825260208082015160ff169083015260409081015163ffffffff16910152565b606081016106e98284614a11565b6000806000806000858703610140811215614a6457600080fd5b60c0811215614a7257600080fd5b5085945060c0860135935060e0860135614a8b8161496a565b92506101008601359150610120860135614aa48161496a565b809150509295509295909350565b600060208284031215614ac457600080fd5b5035919050565b60008151808452602080850194506020840160005b83811015614b0657614af3878351614a11565b6060969096019590820190600101614ae0565b509495945050505050565b6020815260006116a56020830184614acb565b600060208284031215614b3657600080fd5b81356116a58161496a565b600080600080600060a08688031215614b5957600080fd5b853594506020860135614b6b8161496a565b9350604086013592506060860135614b828161496a565b91506080860135614aa48161496a565b600080600060408486031215614ba757600080fd5b8335925060208401356001600160401b0380821115614bc557600080fd5b818601915086601f830112614bd957600080fd5b813581811115614be857600080fd5b8760208260051b8501011115614bfd57600080fd5b6020830194508093505050509250925092565b801515811461489b57600080fd5b60008083601f840112614c3057600080fd5b5081356001600160401b03811115614c4757600080fd5b602083019150836020828501011115613cff57600080fd5b60008060008060008060008060c0898b031215614c7b57600080fd5b883597506020890135614c8d8161496a565b9650604089013595506060890135614ca481614c10565b945060808901356001600160401b0380821115614cc057600080fd5b614ccc8c838d01614c1e565b909650945060a08b0135915080821115614ce557600080fd5b50614cf28b828c01614c1e565b999c989b5096995094979396929594505050565b60008060008060008060008060e0898b031215614d2257600080fd5b883597506020890135614d348161496a565b965060408901359550606089013594506080890135935060a0890135614d598161496a565b925060c08901356001600160401b03811115614d7457600080fd5b614cf28b828c01614c1e565b60008060008060008060008060e0898b031215614d9c57600080fd5b8835614da78161496a565b9750602089013596506040890135614dbe8161496a565b9550606089013594506080890135935060a0890135614d598161496a565b600080600060608486031215614df157600080fd5b505081359360208301359350604090920135919050565b600080600080600060a08688031215614e2057600080fd5b853594506020860135614e328161496a565b94979496505050506040830135926060810135926080909101359150565b600080600060608486031215614e6557600080fd5b833592506020840135614e778161496a565b91506040840135614e878161496a565b809150509250925092565b600080600080600080600080600060e08a8c031215614eb057600080fd5b8935985060208a0135614ec28161496a565b975060408a0135965060608a0135614ed98161496a565b955060808a0135945060a08a01356001600160401b0380821115614efc57600080fd5b614f088d838e01614c1e565b909650945060c08c0135915080821115614f2157600080fd5b50614f2e8c828d01614c1e565b915080935050809150509295985092959850929598565b600060208284031215614f5757600080fd5b81516116a581614c10565b634e487b7160e01b600052601160045260246000fd5b818103818111156106e9576106e9614f62565b634e487b7160e01b600052604160045260246000fd5b60405160c081016001600160401b0381118282101715614fc357614fc3614f8b565b60405290565b604051606081016001600160401b0381118282101715614fc357614fc3614f8b565b60405161012081016001600160401b0381118282101715614fc357614fc3614f8b565b60405160a081016001600160401b0381118282101715614fc357614fc3614f8b565b604051601f8201601f191681016001600160401b038111828210171561505857615058614f8b565b604052919050565b600060c0828403121561507257600080fd5b61507a614fa1565b823561508581614c10565b80825250602083013560208201526040830135604082015260608301356150ab8161496a565b60608201526080838101359082015260a08301356150c88161496a565b60a08201529392505050565b80511515825260208082015190830152604080820151908301526060808201516001600160a01b03908116918401919091526080808301519084015260a09182015116910152565b81516001600160a01b031681526020808301519082015260408083015190820152606080830151908201526080808301519082015260a082810151610160830191615169908401826150d4565b5092915050565b60006020828403121561518257600080fd5b81516116a58161496a565b60006020828403121561519f57600080fd5b81356116a581614c10565b60005b838110156151c55781810151838201526020016151ad565b50506000910152565b600081518084526151e68160208601602086016151aa565b601f01601f19169290920160200192915050565b85815260018060a01b0385166020820152836040820152821515606082015260c06080820152600060c082015260e060a0820152600061320660e08301846151ce565b868152600060018060a01b03808816602084015286604084015280861660608401525083608083015260e060a0830152600060e08301526101008060c0840152611a69818401856151ce565b60006020828403121561529b57600080fd5b5051919050565b634e487b7160e01b600052603260045260246000fd5b805160ff811681146152c957600080fd5b919050565b6000602082840312156152e057600080fd5b6116a5826152b8565b546001600160a01b038116825260a081901c60ff16602083015260a81c63ffffffff16604090910152565b6080810161532282856152e9565b6001600160a01b039290921660609190910152919050565b6001600160a01b0386168152602080820186905260a060408301819052855490830181905260008681529182209060c0840190835b818110156153945761538183856152e9565b600193840193606093909301920161536f565b505060608401959095525050608001529392505050565b6000606082840312156153bd57600080fd5b6153c5614fc9565b82516153d08161496a565b81526153de602084016152b8565b6020820152604083015163ffffffff811681146153fa57600080fd5b60408201529392505050565b808201808211156106e9576106e9614f62565b85815284602082015260a06040820152600061543860a08301866151ce565b828103606084015261544a81866151ce565b91505060018060a01b03831660808301529695505050505050565b80516001600160a01b031682526020808201519083015260408082015190830152606090810151910152565b6001600160a01b038681168252600090610100906154b26020850189615465565b8660a085015280861660c0850152508060e084015261157f818401856151ce565b80516152c98161496a565b600061012082840312156154f157600080fd5b6154f9614feb565b9050815181526020820151602082015260408201516040820152606082015160608201526080820151608082015260a082015160a082015260c082015160c082015261554760e083016154d3565b60e082015261010080830151818301525092915050565b60006001600160401b0382111561557757615577614f8b565b5060051b60200190565b600082601f83011261559257600080fd5b81516001600160401b038111156155ab576155ab614f8b565b6155be601f8201601f1916602001615030565b8181528460208386010111156155d357600080fd5b6146e98260208301602087016151aa565b600080600061016084860312156155fa57600080fd5b61560485856154de565b925061012084015191506101408401516001600160401b038082111561562957600080fd5b818601915086601f83011261563d57600080fd5b8151602061565261564d8361555e565b615030565b82815260059290921b8401810191818101908a84111561567157600080fd5b8286015b848110156156f75780518681111561568c57600080fd5b87016060818e03601f190112156156a257600080fd5b6156aa614fc9565b858201516156b78161496a565b81526040820151868201526060820151888111156156d55760008081fd5b6156e38f8883860101615581565b604083015250845250918301918301615675565b508096505050505050509250925092565b600060018060a01b03808a168352808916602084015287604084015286606084015260e0608084015261573e60e08401876151ce565b83810360a085015261575081876151ce565b92505080841660c08401525098975050505050505050565b805165ffffffffffff811681146152c957600080fd5b60006020828403121561579057600080fd5b81516001600160401b03808211156157a757600080fd5b9083019060a082860312156157bb57600080fd5b6157c361500e565b8251815260208301516157d58161496a565b60208201526157e660408401615768565b60408201526157f760608401615768565b606082015260808301518281111561580e57600080fd5b61581a87828601615581565b60808301525095945050505050565b600061010060018060a01b0380871684528551818151166020860152816020820151166040860152604081015165ffffffffffff80821660608801528060608401511660808801525050508060208701511660a085015250604085015160c08401528060e084015261480c818401856151ce565b84815260c081016158b160208301866152e9565b608082019390935260a0015292915050565b60008061014083850312156158d757600080fd5b6158e184846154de565b915061012083015190509250929050565b600060018060a01b03808916835287602084015286604084015285606084015260c0608084015261592660c08401866151ce565b915080841660a084015250979650505050505050565b6001600160a01b0387168152602081018690526040810185905260006101006159686060840187614a11565b8060c084015261597a81840186614acb565b905082810360e0840152611a6981856151ce565b60008060008061018085870312156159a557600080fd5b6159af86866154de565b9350610120850151925061014085015191506101608501516001600160401b03808211156159dc57600080fd5b818701915087601f8301126159f057600080fd5b81516159fe61564d8261555e565b8082825260208201915060208360051b86010192508a831115615a2057600080fd5b602085015b83811015615aaa57805185811115615a3c57600080fd5b86016060818e03601f19011215615a5257600080fd5b615a5a614fc9565b6020820151615a688161496a565b815260408201516020820152606082015187811115615a8657600080fd5b615a958f602083860101615581565b60408301525084525060209283019201615a25565b50979a9699509497505050505050565b600060018060a01b03808a168352808916602084015287604084015286606084015285608084015260e060a0840152615af660e08401866151ce565b915080841660c08401525098975050505050505050565b634e487b7160e01b600052601260045260246000fd5b80516001600160a01b03168252600061020060208301516020850152604083015160408501526060830151615b5b6060860182615465565b506080830151615b6e60e0860182615465565b5060a083015161016085015260c083015161018085015260e08301516001600160a01b03166101a08501526101008301516101c08501829052615bb3828601826151ce565b9150506101208301518482036101e0860152610ea982826151ce565b6020815260006116a56020830184615b23565b606081526000615bf56060830186615b23565b6020830194909452506001600160a01b0391909116604090910152919050565b838152606060208201526000615c2e60608301856151ce565b905060018060a01b0383166040830152949350505050565b60008085851115615c5657600080fd5b83861115615c6357600080fd5b5050820193919092039150565b6bffffffffffffffffffffffff198135818116916014851015615c9d5780818660140360031b1b83161692505b505092915050565b80820281158282048414176106e9576106e9614f62565b80516001600160a01b0316825260006102006020830151602085015260408301516040850152606083015160608501526080830151615cfe6080860182615465565b5060a0830151610100615d1381870183615465565b60c085015161018087015260e08501516001600160a01b03166101a08701528401516101c086018390529050615bb3828601826151ce565b6020815260006116a56020830184615cbc565b608081526000615d716080830187615cbc565b60208301959095525060408101929092526001600160a01b0316606090910152919050565b60006020808385031215615da957600080fd5b82516001600160401b03811115615dbf57600080fd5b8301601f81018513615dd057600080fd5b8051615dde61564d8261555e565b81815260c09182028301840191848201919088841115615dfd57600080fd5b938501935b83851015615e805780858a031215615e1a5760008081fd5b615e22614fa1565b8551615e2d81614c10565b8152858701518782015260408087015190820152606080870151615e508161496a565b908201526080868101519082015260a080870151615e6d8161496a565b9082015283529384019391850191615e02565b50979650505050505050565b6101208101615e9b82876150d4565b60c082019490945260e08101929092526001600160a01b031661010090910152919050565b6101408101615ecf82886150d4565b60c08201959095526001600160a01b0393841660e082015261010081019290925290911661012090910152919050565b6000610120615f0e83886150d4565b8560c08401528060e0840152615f26818401866151ce565b91505060018060a01b03831661010083015295945050505050565b60008251615f538184602087016151aa565b919091019291505056fea264697066735822122014d2ba3a9870372b44172570d3bfc9cb856beba241a20cfa46389ec26775622964736f6c63430008170033",
	"deployedBytecode": "0x6080604052600436106101665760003560e01c80636afdd850116100d1578063bb7214fe1161008a578063cfaf583911610064578063cfaf583914610574578063e28b541114610594578063f434c914146105b4578063fef43257146105e857600080fd5b8063bb7214fe1461051f578063c57981b51461053f578063cc6801271461055457600080fd5b80636afdd850146104315780637da0a8771461046557806388bc2ef31461049857806398ea47fc146104cc5780639e6eec05146104ec578063b62d17cf146104ff57600080fd5b8063507f146511610123578063507f14651461030d578063515a929314610341578063572b6c051461036e5780635f912e56146103bb57806362ef3036146103dd578063659a2047146103fd57600080fd5b806301ffc9a71461016b5780631f47ce69146101a0578063293c4999146101ec57806333b30610146102205780633a01714f1461024d57806343a89aaf146102df575b600080fd5b34801561017757600080fd5b5061018b610186366004614940565b6105fb565b60405190151581526020015b60405180910390f35b3480156101ac57600080fd5b506101d47f0000000000000000000000007cb4a75d21c45d1a0a0333bfa626f54636c84da581565b6040516001600160a01b039091168152602001610197565b3480156101f857600080fd5b506101d47f0000000000000000000000004d9207abeca883161a1eaee9dabedc0001c198d781565b34801561022c57600080fd5b5061024061023b36600461497f565b6106ef565b60405161019791906149af565b34801561025957600080fd5b506102d261026836600461497f565b6040805160608082018352600080835260208084018290529284018190529485528482528285206001600160a01b03948516865282529382902082519485018352549283168452600160a01b830460ff1690840152600160a81b90910463ffffffff169082015290565b6040516101979190614a3c565b3480156102eb57600080fd5b506102ff6102fa366004614a4a565b61078f565b604051908152602001610197565b34801561031957600080fd5b506101d47f000000000000000000000000a0d811360b0d49be8d33309d6eae03d072e3031281565b34801561034d57600080fd5b5061036161035c366004614ab2565b610eb2565b6040516101979190614b11565b34801561037a57600080fd5b5061018b610389366004614b24565b7f000000000000000000000000b2b5841dbef766d4b521221732f9b618fcf34a876001600160a01b0390811691161490565b3480156103c757600080fd5b506103db6103d6366004614b41565b610f4c565b005b3480156103e957600080fd5b506103db6103f836600461497f565b6110b3565b34801561040957600080fd5b506101d47f000000000000000000000000ee80091e7c8e7c9764ad8ccc94f978b15d7cc84181565b34801561043d57600080fd5b506101d47f000000000000000000000000000000000022d473030f116ddee9f6b43ac78ba381565b34801561047157600080fd5b507f000000000000000000000000b2b5841dbef766d4b521221732f9b618fcf34a876101d4565b3480156104a457600080fd5b506101d47f00000000000000000000000018017cfed48e1dc0adc445cef8a9e6affcb330da81565b3480156104d857600080fd5b506103db6104e7366004614b92565b6110c3565b6103db6104fa366004614c5f565b6113fd565b34801561050b57600080fd5b506102ff61051a366004614d06565b611480565b34801561052b57600080fd5b506102ff61053a366004614d80565b61158b565b34801561054b57600080fd5b506102ff601981565b34801561056057600080fd5b506102ff61056f366004614ddc565b611600565b34801561058057600080fd5b506102ff61058f366004614e08565b6116ac565b3480156105a057600080fd5b506102ff6105af366004614e50565b6116dd565b3480156105c057600080fd5b506101d47f000000000000000000000000ba24624ae5dc821866e9e71ed050412ef01e2fe681565b6102ff6105f6366004614e92565b6119b9565b60006001600160e01b0319821663775c5eb360e11b148061062c57506001600160e01b03198216633d0d324560e21b145b8061064757506001600160e01b03198216632f720bd160e21b145b8061066257506001600160e01b03198216635db90a7f60e11b145b8061067d57506001600160e01b03198216633cc127fb60e11b145b8061069857506001600160e01b031982166306afdd8560e41b145b806106b357506001600160e01b0319821663775c5eb360e11b145b806106ce57506001600160e01b03198216633c6fe5f560e21b145b806106e957506001600160e01b031982166301ffc9a760e01b145b92915050565b60008281526002602090815260408083206001600160a01b03851684528252808320805482518185028101850190935280835260609492939192909184015b828210156107835760008481526020908190206040805160608101825260038602909201805483526001808201546001600160a01b03168486015260029091015491830191909152908352909201910161072e565b50505050905092915050565b600033301461079d57600080fd5b508160006107b160c0880160a08901614b24565b6001600160a01b0316146109f2576001600160a01b037f000000000000000000000000ee80091e7c8e7c9764ad8ccc94f978b15d7cc8411663ae74a1b56107fe60c0890160a08a01614b24565b6040516001600160e01b031960e084901b1681526001600160a01b039091166004820152602401602060405180830381865afa158015610842573d6000803e3d6000fd5b505050506040513d601f19601f820116820180604052508101906108669190614f45565b61088257610875836019611a76565b61087f9082614f78565b90505b6040805160c0810182526001600160a01b0386168082526020808301859052600089815280825284812083825290915283812054600160a01b900460ff169383019390935260608201889052608082015260a081016108e6368a90038a018a615060565b9052905061090a6108fd60c0890160a08a01614b24565b6312903a8560e01b611a98565b156109445760405162461bcd60e51b81526020600482015260056024820152643430305f3160d81b60448201526064015b60405180910390fd5b61095e61095760c0890160a08a01614b24565b8684611ab4565b60006001600160a01b03861661eeee1461097957600061097b565b825b905061098d60c0890160a08a01614b24565b6001600160a01b03166312903a8582846040518363ffffffff1660e01b81526004016109b9919061511c565b6000604051808303818588803b1580156109d257600080fd5b505af11580156109e6573d6000803e3d6000fd5b50505050505050610ea9565b604086013515610db95760408051630862026560e41b81529087013560048201526001600160a01b0385811660248301526000917f00000000000000000000000018017cfed48e1dc0adc445cef8a9e6affcb330da90911690638620265090604401602060405180830381865afa158015610a71573d6000803e3d6000fd5b505050506040513d601f19601f82011682018060405250810190610a959190615170565b90506001600160a01b038116610ad55760405162461bcd60e51b81526020600482015260056024820152641a181a2f9960d91b604482015260640161093b565b6001600160a01b0381163014801590610b75575060405163ae74a1b560e01b81526001600160a01b0382811660048301527f000000000000000000000000ee80091e7c8e7c9764ad8ccc94f978b15d7cc841169063ae74a1b590602401602060405180830381865afa158015610b4f573d6000803e3d6000fd5b505050506040513d601f19601f82011682018060405250810190610b739190614f45565b155b15610b9257610b85846019611a76565b610b8f9083614f78565b91505b610b9d818684611ab4565b600086604051602001610bb291815260200190565b60408051601f198184030181529190529050610bd1602089018961518d565b15610c9e57306001600160a01b03831603610c0d57610c088860400135878560006040518060200160405280600081525086611ae5565b610db2565b60006001600160a01b03871661eeee14610c28576000610c2a565b835b9050826001600160a01b0316639e6eec05828b604001358a886000886040518763ffffffff1660e01b8152600401610c669594939291906151fa565b6000604051808303818588803b158015610c7f57600080fd5b505af1158015610c93573d6000803e3d6000fd5b505050505050610db2565b600080610cb160808b0160608c01614b24565b6001600160a01b031603610cc55784610cd5565b610cd560808a0160608b01614b24565b9050306001600160a01b03841603610d0f57610d098960400135888630856040518060200160405280600081525088611bf1565b50610db0565b60006001600160a01b03881661eeee14610d2a576000610d2c565b845b9050836001600160a01b031663fef43257828c604001358b898760008a6040518863ffffffff1660e01b8152600401610d6a9695949392919061523d565b60206040518083038185885af1158015610d88573d6000803e3d6000fd5b50505050506040513d601f19601f82011682018060405250810190610dad9190615289565b50505b505b5050610ea9565b600080610dcc6080890160608a01614b24565b6001600160a01b031603610de05782610df0565b610df06080880160608901614b24565b60405163ae74a1b560e01b81526001600160a01b0380831660048301529192507f000000000000000000000000ee80091e7c8e7c9764ad8ccc94f978b15d7cc8419091169063ae74a1b590602401602060405180830381865afa158015610e5b573d6000803e3d6000fd5b505050506040513d601f19601f82011682018060405250810190610e7f9190614f45565b610e9b57610e8e846019611a76565b610e989083614f78565b91505b610ea730828785611f68565b505b95945050505050565b606060016000838152602001908152602001600020805480602002602001604051908101604052809291908181526020016000905b82821015610f4157600084815260209081902060408051606081018252918501546001600160a01b0381168352600160a01b810460ff1683850152600160a81b900463ffffffff1690820152825260019092019101610ee7565b505050509050919050565b333014610f5857600080fd5b6001600160a01b038116610f965760405162461bcd60e51b81526020600482015260056024820152643430345f3160d81b604482015260640161093b565b6001600160a01b0381163014610fb157610fb1818585611ab4565b600085604051602001610fc691815260200190565b60408051601f198184030181529190529050306001600160a01b0383160361100d576110076001868630876040518060200160405280600081525087611bf1565b506110ab565b60006001600160a01b03861661eeee1461102857600061102a565b845b9050826001600160a01b031663fef432578260018989896000896040518863ffffffff1660e01b81526004016110659695949392919061523d565b60206040518083038185885af1158015611083573d6000803e3d6000fd5b50505050506040513d601f19601f820116820180604052508101906110a89190615289565b50505b505050505050565b6110bf828260006120f8565b5050565b6040516331a9108f60e11b8152600481018490526111fe907f0000000000000000000000004d9207abeca883161a1eaee9dabedc0001c198d76001600160a01b031690636352211e90602401602060405180830381865afa15801561112c573d6000803e3d6000fd5b505050506040513d601f19601f820116820180604052508101906111509190615170565b604051632eec7b5560e11b81526004810186905285906014906001600160a01b037f00000000000000000000000018017cfed48e1dc0adc445cef8a9e6affcb330da1690635dd8f6aa90602401602060405180830381865afa1580156111ba573d6000803e3d6000fd5b505050506040513d601f19601f820116820180604052508101906111de9190615170565b6001600160a01b03166111ef612334565b6001600160a01b031614612343565b806000805b828110156110ab5784848281811061121d5761121d6152a2565b90506020020160208101906112329190614b24565b6000878152602081815260408083206001600160a01b038086168552925290912080549294509116156112785760405163b83f909160e01b815260040160405180910390fd5b80546001600160a01b0319166001600160a01b038416908117825561eeee1461130257826001600160a01b031663313ce5676040518163ffffffff1660e01b8152600401602060405180830381865afa1580156112d9573d6000803e3d6000fd5b505050506040513d601f19601f820116820180604052508101906112fd91906152ce565b611305565b60125b815464ffffffffff60a01b1916600160a01b60ff928316810263ffffffff60a81b1990811692909217600160a81b63ffffffff888116820292909217865560008c815260016020818152604083208054928301815583529091208754910180546001600160a01b039283166001600160a01b031982168117835589546001600160a81b03199092161790869004909716909402959095178084558654941693819004909116029190911790558316877f9570de6fc0456f642bd0a001b24cd31676388c24596df64a17190c24310690a1836113de612334565b6040516113ec929190615314565b60405180910390a350600101611203565b6110a8888861140f8b8b8b8888612353565b8888888080601f01602080910402602001604051908101604052809392919081815260200183838082843760009201919091525050604080516020601f8c018190048102820181019092528a815292508a9150899081908401838280828437600092019190915250611ae592505050565b6040516331a9108f60e11b815260048101899052600090611518906001600160a01b037f0000000000000000000000004d9207abeca883161a1eaee9dabedc0001c198d71690636352211e90602401602060405180830381865afa1580156114ec573d6000803e3d6000fd5b505050506040513d601f19601f820116820180604052508101906115109190615170565b8a60116125ca565b61155c898989898888888080601f01602080910402602001604051908101604052809392919081815260200183838082843760009201919091525061275c92505050565b90508481101561157f5760405163a1a08d1760e01b815260040160405180910390fd5b98975050505050505050565b6000611599898960036125ca565b6115dd898989898888888080601f0160208091040260200160405190810160405280939291908181526020018383808284376000920191909152506129ec92505050565b90508481101561157f5760405163f896960b60e01b815260040160405180910390fd5b600083815260016020526040808220905163d60d1a0960e01b81526001600160a01b037f000000000000000000000000a0d811360b0d49be8d33309d6eae03d072e30312169163d60d1a09916116619130918991908990899060040161533a565b602060405180830381865afa15801561167e573d6000803e3d6000fd5b505050506040513d601f19601f820116820180604052508101906116a29190615289565b90505b9392505050565b60006116ba86868686612e41565b905081811015610ea95760405163a1a08d1760e01b815260040160405180910390fd5b6040516331a9108f60e11b815260048101849052600090611775906001600160a01b037f0000000000000000000000004d9207abeca883161a1eaee9dabedc0001c198d71690636352211e90602401602060405180830381865afa158015611749573d6000803e3d6000fd5b505050506040513d601f19601f8201168201806040525081019061176d9190615170565b8560056125ca565b604051633a01714f60e01b8152600481018590526001600160a01b038481166024830152831690633a01714f90604401606060405180830381865afa1580156117c2573d6000803e3d6000fd5b505050506040513d601f19601f820116820180604052508101906117e691906153ab565b6020015160ff1660000361180d5760405163581010ed60e01b815260040160405180910390fd5b611819848460016120f8565b6040516319781e2360e01b8152600481018590526001600160a01b0384811660248301527f000000000000000000000000a0d811360b0d49be8d33309d6eae03d072e3031216906319781e23906044016020604051808303816000875af1158015611888573d6000803e3d6000fd5b505050506040513d601f19601f820116820180604052508101906118ac9190615289565b90508015611953576118bf828483611ab4565b60006001600160a01b03841661eeee146118da5760006118dc565b815b6040805160208101825260008082529151639e6eec0560e01b81529293506001600160a01b03861692639e6eec0592859261191f928b928b928a926004016151fa565b6000604051808303818588803b15801561193857600080fd5b505af115801561194c573d6000803e3d6000fd5b5050505050505b816001600160a01b0316836001600160a01b0316857ff0aa72bb9c2a07cf43281bfe8c525ba320fdc71e18b54c9f93ab22ce074af7f684611992612334565b604080519283526001600160a01b0390911660208301520160405180910390a49392505050565b6000611a468a8a6119cd8d8d8d8989612353565b6119d5612334565b8b8a8a8080601f01602080910402602001604051908101604052809392919081815260200183838082843760009201919091525050604080516020601f8e018190048102820181019092528c815292508c91508b9081908401838280828437600092019190915250611bf192505050565b905085811015611a69576040516370dc561160e11b815260040160405180910390fd5b9998505050505050505050565b6000611a8e836103e8611a898186615406565b613080565b6116a59084614f78565b6000611aa383613154565b80156116a557506116a58383613187565b61eeed196001600160a01b03831601611acc57505050565b611ae06001600160a01b0383168483613211565b505050565b600083611af3576000611afe565b611afe87878761329b565b90506001600160a01b037f000000000000000000000000a0d811360b0d49be8d33309d6eae03d072e30312166351fc17358888611b3b858a615406565b6040516001600160e01b031960e086901b16815260048101939093526001600160a01b0390911660248301526044820152606401600060405180830381600087803b158015611b8957600080fd5b505af1158015611b9d573d6000803e3d6000fd5b50505050867f9ecaf7fc3dfffd6867c175d6e684b1f1e3aef019398ba8db2c1ffab4a09db25386838686611bcf612334565b604051611be0959493929190615419565b60405180910390a250505050505050565b6000611bfb61489e565b60606000611c33604051806080016040528060006001600160a01b031681526020016000815260200160008152602001600081525090565b60008060008e815260200190815260200160002060008d6001600160a01b03166001600160a01b031681526020019081526020016000206040518060600160405290816000820160009054906101000a90046001600160a01b03166001600160a01b03166001600160a01b031681526020016000820160149054906101000a900460ff1660ff1660ff1681526020016000820160159054906101000a900463ffffffff1663ffffffff1663ffffffff1681525050905060405180608001604052808d6001600160a01b031681526020018c8152602001826020015160ff168152602001826040015163ffffffff168152509150507f000000000000000000000000a0d811360b0d49be8d33309d6eae03d072e303126001600160a01b0316639e6840c18a838f8c8b6040518663ffffffff1660e01b8152600401611d7b959493929190615491565b6000604051808303816000875af1158015611d9a573d6000803e3d6000fd5b505050506040513d6000823e601f3d908101601f19168201604052611dc291908101906155e4565b91955090935091508115611eed57604051632eec7b5560e11b8152600481018d90527f00000000000000000000000018017cfed48e1dc0adc445cef8a9e6affcb330da6001600160a01b031690635dd8f6aa90602401602060405180830381865afa158015611e35573d6000803e3d6000fd5b505050506040513d601f19601f82011682018060405250810190611e599190615170565b6040516363fdc96f60e11b8152600481018e9052602481018490526001600160a01b038a8116604483015260a06064830152600060a483015260016084830152919091169063c7fb92de9060c4016020604051808303816000875af1158015611ec6573d6000803e3d6000fd5b505050506040513d601f19601f82011682018060405250810190611eea9190615289565b94505b825115611f0457611f048c84838c888d8b8d6135ab565b8b846000015185602001517f133161f1c9161488f777ab9a26aae91d47c0d9a3fafb398960f138db02c737978c8c8f8b8e8e611f3e612334565b604051611f519796959493929190615708565b60405180910390a450505050979650505050505050565b61eeed196001600160a01b03831601611f8a57611f8583826137d1565b6120f2565b306001600160a01b03851603611fae57611f856001600160a01b0383168483613868565b604051636eb1769f60e11b81526001600160a01b03858116600483015230602483015282919084169063dd62ed3e90604401602060405180830381865afa158015611ffd573d6000803e3d6000fd5b505050506040513d601f19601f820116820180604052508101906120219190615289565b1061203b57611f856001600160a01b0383168585846138c7565b6001600160a01b0381111561206357604051633062f38960e11b815260040160405180910390fd5b604051631b63c28b60e11b81526001600160a01b0385811660048301528481166024830152828116604483015283811660648301527f000000000000000000000000000000000022d473030f116ddee9f6b43ac78ba316906336c7851690608401600060405180830381600087803b1580156120de57600080fd5b505af11580156110a8573d6000803e3d6000fd5b50505050565b60008381526002602090815260408083206001600160a01b0386168452825280832080548251818502810185019093528083529192909190849084015b8282101561218a5760008481526020908190206040805160608101825260038602909201805483526001808201546001600160a01b031684860152600290910154918301919091529083529092019101612135565b50505060008681526002602090815260408083206001600160a01b038916845290915281209293506121bd9291506148f3565b8051604080516060810182526000808252602082018190528183018190529151630862026560e41b8152600160048201526001600160a01b0387811660248301529192917f00000000000000000000000018017cfed48e1dc0adc445cef8a9e6affcb330da1690638620265090604401602060405180830381865afa15801561224a573d6000803e3d6000fd5b505050506040513d601f19601f8201168201806040525081019061226e9190615170565b905060005b838110156110a85784818151811061228d5761228d6152a2565b60200260200101519250851580156122a85750428360400151115b156123155760008881526002602081815260408084206001600160a01b038c811686529083528185208054600180820183559187529584902089516003909702019586559288015192850180546001600160a01b031916939091169290921790915585015191015561232c565b61232c888885600001518660200151866001613900565b600101612273565b600061233e613aeb565b905090565b806120f2576120f28484846125ca565b6000858152602081815260408083206001600160a01b03888116855292528220541661239257604051630faa917b60e11b815260040160405180910390fd5b61eeed196001600160a01b038616016123ac575034610ea9565b34156123cb57604051635e7e9adf60e11b815260040160405180910390fd5b306123d4612334565b6001600160a01b0316036123e9575082610ea9565b60003060601b90506000806124348387878080601f016020809104026020016040519081016040528093929190818152602001838380828437600092019190915250613b6092505050565b91509150811561258857600081806020019051810190612454919061577e565b90508781602001516001600160a01b03161015612484576040516317e415a160e11b815260040160405180910390fd5b7f000000000000000000000000000000000022d473030f116ddee9f6b43ac78ba36001600160a01b0316632b67b5706124bb612334565b604051806060016040528060405180608001604052808f6001600160a01b0316815260200187602001516001600160a01b03168152602001876040015165ffffffffffff168152602001876060015165ffffffffffff168152508152602001306001600160a01b03168152602001856000015181525084608001516040518463ffffffff1660e01b815260040161255493929190615829565b600060405180830381600087803b15801561256e57600080fd5b505af1158015612582573d6000803e3d6000fd5b50505050505b600061259389613d06565b90506125a86125a0612334565b308b8b611f68565b806125b28a613d06565b6125bc9190614f78565b9a9950505050505050505050565b60006125d4612334565b9050836001600160a01b0316816001600160a01b031614158015612695575060405163c161c93f60e01b81526001600160a01b038281166004830152858116602483015260448201859052606482018490527f000000000000000000000000ba24624ae5dc821866e9e71ed050412ef01e2fe6169063c161c93f90608401602060405180830381865afa15801561266f573d6000803e3d6000fd5b505050506040513d601f19601f820116820180604052508101906126939190614f45565b155b801561273e575060405163c161c93f60e01b81526001600160a01b038281166004830152858116602483015260006044830152606482018490527f000000000000000000000000ba24624ae5dc821866e9e71ed050412ef01e2fe6169063c161c93f90608401602060405180830381865afa158015612718573d6000803e3d6000fd5b505050506040513d601f19601f8201168201806040525081019061273c9190614f45565b155b156120f25760405163075fd2b160e01b815260040160405180910390fd5b600061276661489e565b6000888152602081815260408083206001600160a01b038b81168552925291829020915163060f2bdf60e31b81527f000000000000000000000000a0d811360b0d49be8d33309d6eae03d072e30312909116916330795ef8916127d1918c918b908b9060040161589d565b610140604051808303816000875af11580156127f1573d6000803e3d6000fd5b505050506040513d601f19601f8201168201806040525081019061281591906158c3565b9250905060006001600160a01b037f000000000000000000000000ee80091e7c8e7c9764ad8ccc94f978b15d7cc8411663ae74a1b5612852612334565b6040516001600160e01b031960e084901b1681526001600160a01b039091166004820152602401602060405180830381865afa158015612896573d6000803e3d6000fd5b505050506040513d601f19601f820116820180604052508101906128ba9190614f45565b61296c576129678989857f0000000000000000000000004d9207abeca883161a1eaee9dabedc0001c198d76001600160a01b0316636352211e8e6040518263ffffffff1660e01b815260040161291291815260200190565b602060405180830381865afa15801561292f573d6000803e3d6000fd5b505050506040513d601f19601f820116820180604052508101906129539190615170565b610100870151604b1c600190811614613d8e565b61296f565b60005b6129799084614f78565b9050801561298d5761298d30868a84611f68565b88826000015183602001517f8657a0c05a68a912c23c1bd00124afaa8c669063b046bd9bfd22b21d573c5e6d888b88878b6129c6612334565b6040516129d8969594939291906158f2565b60405180910390a450509695505050505050565b60006129f661489e565b6000878152602081815260408083206001600160a01b038a8116855290835281842082516060808201855291549283168152600160a01b830460ff1681860152600160a81b90920463ffffffff16828401528b855260018452828520805484518187028101870190955280855291959492938593909290849084015b82821015612acc57600084815260209081902060408051606081018252918501546001600160a01b0381168352600160a01b810460ff1683850152600160a81b900463ffffffff1690820152825260019092019101612a72565b5050604051630d346b8160e01b8152929350506001600160a01b037f000000000000000000000000a0d811360b0d49be8d33309d6eae03d072e303121691630d346b819150612b29908f908f908e90889088908f9060040161593c565b6000604051808303816000875af1158015612b48573d6000803e3d6000fd5b505050506040513d6000823e601f3d908101601f19168201604052612b70919081019061598e565b91985091965094509250508715612c8457604051632eec7b5560e11b8152600481018b90527f00000000000000000000000018017cfed48e1dc0adc445cef8a9e6affcb330da6001600160a01b031690635dd8f6aa90602401602060405180830381865afa158015612be6573d6000803e3d6000fd5b505050506040513d601f19601f82011682018060405250810190612c0a9190615170565b60405163516a997360e11b81526001600160a01b038d81166004830152602482018d9052604482018b90526080606483015260006084830152919091169063a2d532e69060a401600060405180830381600087803b158015612c6b57600080fd5b505af1158015612c7f573d6000803e3d6000fd5b505050505b60008515612d605760405163ae74a1b560e01b81526001600160a01b0389811660048301527f000000000000000000000000ee80091e7c8e7c9764ad8ccc94f978b15d7cc841169063ae74a1b590602401602060405180830381865afa158015612cf2573d6000803e3d6000fd5b505050506040513d601f19601f82011682018060405250810190612d169190614f45565b158015612d2557506127108314155b15612d4e57612d348682615406565b9050612d41866019611a76565b612d4b9087614f78565b95505b8515612d6057612d6030898c89611f68565b835115612dbf57612db28b60405180608001604052808d6001600160a01b03168152602001898152602001856020015160ff168152602001856040015163ffffffff168152508e8c8b8a898f8c613f42565b612dbc9082615406565b90505b80600003612dce576000612ddc565b612ddc8b8b838b6000613d8e565b508a856000015186602001517f9565fc8bdd4f45a73582d1163dbe522a4fb0c4dbb882b5e66269f70101a2509a8f8c8e898d8f612e17612334565b604051612e2a9796959493929190615aba565b60405180910390a450505050509695505050505050565b6000612e4b61489e565b6000868152602081815260408083206001600160a01b038981168552925291829020915163181241e760e31b81527f000000000000000000000000a0d811360b0d49be8d33309d6eae03d072e303129091169163c0920f3891612eb6918a918990899060040161589d565b610140604051808303816000875af1158015612ed6573d6000803e3d6000fd5b505050506040513d601f19601f82011682018060405250810190612efa91906158c3565b6040516331a9108f60e11b8152600481018990529093509091506000907f0000000000000000000000004d9207abeca883161a1eaee9dabedc0001c198d76001600160a01b031690636352211e90602401602060405180830381865afa158015612f68573d6000803e3d6000fd5b505050506040513d601f19601f82011682018060405250810190612f8c9190615170565b9050600080612fa18989866020015188614257565b90925090506000612fcd8a8a612fb78686615406565b6101008901518890604b1c600190811614613d8e565b905060008315612ffa57612fe2846019611a76565b612fec9085614f78565b9050612ffa30868c84611f68565b8a866000015187602001517fda42c5c18ef97738d10c32811895add569670a6fcbe9627ea198d446f3be6dea888d8c8888613033612334565b604080516001600160a01b03978816815260208101969096528501939093526060840191909152608083015290911660a082015260c00160405180910390a4505050505050949350505050565b60008080600019858709858702925082811083820303915050806000036130ba578382816130b0576130b0615b0d565b04925050506116a5565b8381106130eb57604051630c740aef60e31b815260048101879052602481018690526044810185905260640161093b565b60008486880960026001871981018816978890046003810283188082028403028082028403028082028403028082028403028082028403029081029092039091026000889003889004909101858311909403939093029303949094049190911702949350505050565b6000613167826301ffc9a760e01b613187565b80156106e95750613180826001600160e01b0319613187565b1592915050565b6040516001600160e01b031982166024820152600090819060440160408051601f19818403018152919052602080820180516001600160e01b03166301ffc9a760e01b178152825192935060009283928392909183918a617530fa92503d915060005190508280156131fa575060208210155b80156132065750600081115b979650505050505050565b604051636eb1769f60e11b81523060048201526001600160a01b0383811660248301526000919085169063dd62ed3e90604401602060405180830381865afa158015613261573d6000803e3d6000fd5b505050506040513d601f19601f820116820180604052508101906132859190615289565b90506120f284846132968585615406565b614423565b60008381526002602090815260408083206001600160a01b0386168452825280832080548251818502810185019093528083528493849084015b8282101561332a5760008481526020908190206040805160608101825260038602909201805483526001808201546001600160a01b0316848601526002909101549183019190915290835290920191016132d5565b50505060008781526002602090815260408083206001600160a01b038a168452909152812092935061335d9291506148f3565b8051604080516060810182526000808252602082018190529181018290528592915b8281101561354157848181518110613399576133996152a2565b60200260200101519150836000036134135760008981526002602081815260408084206001600160a01b038d811686529083528185208054600180820183559187529584902088516003909702019586559287015192850180546001600160a01b0319169390911692909217909155840151910155613539565b600061342483600001516019611a76565b905060008184600001516134389190614f78565b905080861061344f57968101969485900394613536565b61345a8660196144b3565b9150600260008c815260200190815260200160002060008b6001600160a01b03166001600160a01b031681526020019081526020016000206040518060600160405280888403815260200186602001516001600160a01b03168152602001866040015181525090806001815401808255809150506001900390600052602060002090600302016000909190919091506000820151816000015560208201518160010160006101000a8154816001600160a01b0302191690836001600160a01b031602179055506040820151816002015550508188019750600095505b50505b60010161337f565b5085876001600160a01b0316897fedc5125503c021a73fd7d8ed0c2456b296be2c88f39fbed068bd091cef7ca43d8887613579612334565b6040805193845260208401929092526001600160a01b03169082015260600160405180910390a4505050509392505050565b6000604051806101400160405280876001600160a01b031681526020018a8152602001866020015181526020018881526020018881526020018660a001518152602001848152602001856001600160a01b03168152602001604051806020016040528060008152508152602001838152509050600088519050613651604051806060016040528060006001600160a01b0316815260200160008152602001606081525090565b60005b828110156137c3578a818151811061366e5761366e6152a2565b6020026020010151915060405180608001604052808b600001516001600160a01b03168152602001836020015181526020018b6040015181526020018b60600151815250846080018190525081604001518461010001819052506136df82600001518b600001518460200151611ab4565b89516000906001600160a01b031661eeee146136fc576000613702565b82602001515b835160405163f3c5788160e01b81529192506001600160a01b03169063f3c57881908390613734908990600401615bcf565b6000604051808303818588803b15801561374d57600080fd5b505af1158015613761573d6000803e3d6000fd5b505050505082600001516001600160a01b03167f092bf36eb737817b64e5cea9e9b69305c423a987b5c3066516b046cad5c0bc368685602001516137a3612334565b6040516137b293929190615be2565b60405180910390a250600101613654565b505050505050505050505050565b804710156137f45760405163cd78605960e01b815230600482015260240161093b565b6000826001600160a01b03168260405160006040518083038185875af1925050503d8060008114613841576040519150601f19603f3d011682016040523d82523d6000602084013e613846565b606091505b5050905080611ae057604051630a12f52160e11b815260040160405180910390fd5b6040516001600160a01b03838116602483015260448201839052611ae091859182169063a9059cbb906064015b604051602081830303815290604052915060e01b6020820180516001600160e01b0383818316178352505050506144c2565b6040516001600160a01b0384811660248301528381166044830152606482018390526120f29186918216906323b872dd90608401613895565b604051632fc8972b60e11b8152600481018790526001600160a01b038087166024830152604482018690528085166064830152831660848201523090635f912e569060a401600060405180830381600087803b15801561395f57600080fd5b505af1925050508015613970575060015b613a82573d80801561399e576040519150601f19603f3d011682016040523d82523d6000602084013e6139a3565b606091505b506040516351fc173560e01b8152600481018890526001600160a01b038781166024830152604482018790527f000000000000000000000000a0d811360b0d49be8d33309d6eae03d072e3031216906351fc173590606401600060405180830381600087803b158015613a1557600080fd5b505af1158015613a29573d6000803e3d6000fd5b505050506001866001600160a01b0316887f4b73f3c5cfb174c9d0494138d07ff8ee3aa400df46327d9893ed5ac122dd558a8885613a65612334565b604051613a7493929190615c15565b60405180910390a4506110ab565b83856001600160a01b0316877fb514e730b3f8ad3aa94b6857bcc5ff4a46954bdcf8c4b0346705b1d0ac7a43258487613ab9612334565b6040805193151584526001600160a01b03928316602085015291169082015260600160405180910390a4505050505050565b6000366014336001600160a01b037f000000000000000000000000b2b5841dbef766d4b521221732f9b618fcf34a8716148015613b285750808210155b15613b5857600036613b3a8385614f78565b613b45928290615c46565b613b4e91615c70565b60601c9250505090565b339250505090565b600060606025835111613b855750506040805160208101909152600080825290613cff565b600083613b9460046020615406565b81518110613ba457613ba46152a2565b0160209081015160f81c91505b600085613bbf600484615406565b81518110613bcf57613bcf6152a2565b01602001516001600160f81b03191614801590613bf55750613bf2602083615ca5565b81105b15613cfc57600085613c08600484615406565b81518110613c1857613c186152a2565b016020908101518784019091015160f89190911c91506001600160e01b031980891690821603613cf2576000613c4f602086615ca5565b613c5a600986615406565b101580613c8f575087613c6e600986615406565b81518110613c7e57613c7e6152a2565b01602001516001600160f81b031916155b613cc857602088613ca1600987615406565b81518110613cb157613cb16152a2565b0160200151613cc3919060f81c615ca5565b613ccb565b87515b90506001613ce489613cde602087615ca5565b84614525565b965096505050505050613cff565b5050600501613bb1565b50505b9250929050565b60006001600160a01b03821661eeee14613d87576040516370a0823160e01b81523060048201526001600160a01b038316906370a0823190602401602060405180830381865afa158015613d5e573d6000803e3d6000fd5b505050506040513d601f19601f82011682018060405250810190613d829190615289565b6106e9565b4792915050565b6000613d9b846019611a76565b90508115613e9b5760008681526002602090815260408083206001600160a01b03808a168552908352928190208151606081018352888152938716928401929092529091908101613def6224ea0042615406565b9052815460018082018455600093845260209384902083516003909302019182559282015192810180546001600160a01b0319166001600160a01b0394851617905560409091015160029091015584908616877fef9cd8fc3b61b64b44042ada0a8a3ede1649bc1b112673da228120f13bf1381e601987613e6e612334565b604080519384526001600160a01b03928316602085015291169082015260600160405180910390a4610ea9565b604051630862026560e41b8152600160048201526001600160a01b0386811660248301526000917f00000000000000000000000018017cfed48e1dc0adc445cef8a9e6affcb330da90911690638620265090604401602060405180830381865afa158015613f0d573d6000803e3d6000fd5b505050506040513d601f19601f82011682018060405250810190613f319190615170565b9050610ea787878487856000613900565b6000806040518061014001604052808a6001600160a01b031681526020018c8152602001876020015181526020018981526020018b81526020018b8152602001868152602001856001600160a01b03168152602001604051806020016040528060008152508152602001888152509050600083519050613fe5604051806060016040528060006001600160a01b0316815260200160008152602001606081525090565b60005b8281101561424657858181518110614002576140026152a2565b6020026020010151915060007f000000000000000000000000ee80091e7c8e7c9764ad8ccc94f978b15d7cc8416001600160a01b031663ae74a1b584600001516040518263ffffffff1660e01b815260040161406d91906001600160a01b0391909116815260200190565b602060405180830381865afa15801561408a573d6000803e3d6000fd5b505050506040513d601f19601f820116820180604052508101906140ae9190614f45565b6140c6576140c183602001516019611a76565b6140c9565b60005b905080156140f85760208301516140e09087615406565b955080836020018181516140f49190614f78565b9052505b60405180608001604052808f600001516001600160a01b03168152602001846020015181526020018f6040015181526020018f606001518152508560a00181905250826040015185610100018190525061415f83600001518f600001518560200151611ab4565b8d516000906001600160a01b031661eeee1461417c576000614182565b83602001515b84516040516319bb132d60e21b81529192506001600160a01b0316906366ec4cb49083906141b4908a90600401615d4b565b6000604051808303818588803b1580156141cd57600080fd5b505af11580156141e1573d6000803e3d6000fd5b505050505083600001516001600160a01b03167f5d2ae7ac07b3a26000acaa692b550c84cbb87300557e0359791cfec9efe1615a87866020015185614224612334565b6040516142349493929190615d5e565b60405180910390a25050600101613fe8565b505050509998505050505050505050565b6040516369e11cc560e01b815260048101859052602481018390526001600160a01b0384811660448301526000918291633b9aca009183917f0000000000000000000000007cb4a75d21c45d1a0a0333bfa626f54636c84da516906369e11cc590606401600060405180830381865afa1580156142d8573d6000803e3d6000fd5b505050506040513d6000823e601f3d908101601f191682016040526143009190810190615d96565b80516040805160c081018252600080825260208201819052918101829052606081018290526080810182905260a08101919091529192509060005b8281101561441257838181518110614355576143556152a2565b60200260200101519150600061437089846020015188613080565b90506000614380848e8e8561456b565b905080158015906143915750818114155b156143a3576143a08289615406565b97505b81156143af57818a0399505b8360200151870396508b6001600160a01b03168b8e7f39305f11865947ab83bc6548c8c77e5890ed5bc4a6ea54e6fe7b22f4f406f4b88786866143f0612334565b6040516144009493929190615e8c565b60405180910390a4505060010161433b565b508695505050505094509492505050565b604080516001600160a01b038416602482015260448082018490528251808303909101815260649091019091526020810180516001600160e01b031663095ea7b360e01b17905261447484826146f1565b6120f2576040516001600160a01b038481166024830152600060448301526144a991869182169063095ea7b390606401613895565b6120f284826144c2565b60006116a583836103e8613080565b60006144d76001600160a01b03841683614794565b905080516000141580156144fc5750808060200190518101906144fa9190614f45565b155b15611ae057604051635274afe760e01b81526001600160a01b038416600482015260240161093b565b60608282036040519150602081830101604052808252508260208501016020820160005b84811015614561578281015182820152602001614549565b5050509392505050565b6000306343a89aaf8686868661457f612334565b6040518663ffffffff1660e01b815260040161459f959493929190615ec0565b6020604051808303816000875af19250505080156145da575060408051601f3d908101601f191682019092526145d791810190615289565b60015b6146e6573d808015614608576040519150601f19603f3d011682016040523d82523d6000602084013e61460d565b606091505b506040516351fc173560e01b8152600481018690526001600160a01b038581166024830152604482018590527f000000000000000000000000a0d811360b0d49be8d33309d6eae03d072e3031216906351fc173590606401600060405180830381600087803b15801561467f57600080fd5b505af1158015614693573d6000803e3d6000fd5b50505050847f37b65da09d1a43465d8f823dcc858aa187792b35585b56afe707d57d7108d2288785846146c4612334565b6040516146d49493929190615eff565b60405180910390a260009150506146e9565b90505b949350505050565b6000806000846001600160a01b03168460405161470e9190615f41565b6000604051808303816000865af19150503d806000811461474b576040519150601f19603f3d011682016040523d82523d6000602084013e614750565b606091505b509150915081801561477a57508051158061477a57508080602001905181019061477a9190614f45565b8015610ea95750505050506001600160a01b03163b151590565b60606116a58383600084600080856001600160a01b031684866040516147ba9190615f41565b60006040518083038185875af1925050503d80600081146147f7576040519150601f19603f3d011682016040523d82523d6000602084013e6147fc565b606091505b509150915061480c868383614816565b9695505050505050565b60608261482b5761482682614872565b6116a5565b815115801561484257506001600160a01b0384163b155b1561486b57604051639996b31560e01b81526001600160a01b038516600482015260240161093b565b50806116a5565b8051156148825780518082602001fd5b604051630a12f52160e11b815260040160405180910390fd5b50565b6040518061012001604052806000815260200160008152602001600081526020016000815260200160008152602001600081526020016000815260200160006001600160a01b03168152602001600081525090565b508054600082556003029060005260206000209081019061489b91905b8082111561493c5760008082556001820180546001600160a01b03191690556002820155600301614910565b5090565b60006020828403121561495257600080fd5b81356001600160e01b0319811681146116a557600080fd5b6001600160a01b038116811461489b57600080fd5b6000806040838503121561499257600080fd5b8235915060208301356149a48161496a565b809150509250929050565b602080825282518282018190526000919060409081850190868401855b82811015614a0457815180518552868101516001600160a01b03168786015285015185850152606090930192908501906001016149cc565b5091979650505050505050565b80516001600160a01b0316825260208082015160ff169083015260409081015163ffffffff16910152565b606081016106e98284614a11565b6000806000806000858703610140811215614a6457600080fd5b60c0811215614a7257600080fd5b5085945060c0860135935060e0860135614a8b8161496a565b92506101008601359150610120860135614aa48161496a565b809150509295509295909350565b600060208284031215614ac457600080fd5b5035919050565b60008151808452602080850194506020840160005b83811015614b0657614af3878351614a11565b6060969096019590820190600101614ae0565b509495945050505050565b6020815260006116a56020830184614acb565b600060208284031215614b3657600080fd5b81356116a58161496a565b600080600080600060a08688031215614b5957600080fd5b853594506020860135614b6b8161496a565b9350604086013592506060860135614b828161496a565b91506080860135614aa48161496a565b600080600060408486031215614ba757600080fd5b8335925060208401356001600160401b0380821115614bc557600080fd5b818601915086601f830112614bd957600080fd5b813581811115614be857600080fd5b8760208260051b8501011115614bfd57600080fd5b6020830194508093505050509250925092565b801515811461489b57600080fd5b60008083601f840112614c3057600080fd5b5081356001600160401b03811115614c4757600080fd5b602083019150836020828501011115613cff57600080fd5b60008060008060008060008060c0898b031215614c7b57600080fd5b883597506020890135614c8d8161496a565b9650604089013595506060890135614ca481614c10565b945060808901356001600160401b0380821115614cc057600080fd5b614ccc8c838d01614c1e565b909650945060a08b0135915080821115614ce557600080fd5b50614cf28b828c01614c1e565b999c989b5096995094979396929594505050565b60008060008060008060008060e0898b031215614d2257600080fd5b883597506020890135614d348161496a565b965060408901359550606089013594506080890135935060a0890135614d598161496a565b925060c08901356001600160401b03811115614d7457600080fd5b614cf28b828c01614c1e565b60008060008060008060008060e0898b031215614d9c57600080fd5b8835614da78161496a565b9750602089013596506040890135614dbe8161496a565b9550606089013594506080890135935060a0890135614d598161496a565b600080600060608486031215614df157600080fd5b505081359360208301359350604090920135919050565b600080600080600060a08688031215614e2057600080fd5b853594506020860135614e328161496a565b94979496505050506040830135926060810135926080909101359150565b600080600060608486031215614e6557600080fd5b833592506020840135614e778161496a565b91506040840135614e878161496a565b809150509250925092565b600080600080600080600080600060e08a8c031215614eb057600080fd5b8935985060208a0135614ec28161496a565b975060408a0135965060608a0135614ed98161496a565b955060808a0135945060a08a01356001600160401b0380821115614efc57600080fd5b614f088d838e01614c1e565b909650945060c08c0135915080821115614f2157600080fd5b50614f2e8c828d01614c1e565b915080935050809150509295985092959850929598565b600060208284031215614f5757600080fd5b81516116a581614c10565b634e487b7160e01b600052601160045260246000fd5b818103818111156106e9576106e9614f62565b634e487b7160e01b600052604160045260246000fd5b60405160c081016001600160401b0381118282101715614fc357614fc3614f8b565b60405290565b604051606081016001600160401b0381118282101715614fc357614fc3614f8b565b60405161012081016001600160401b0381118282101715614fc357614fc3614f8b565b60405160a081016001600160401b0381118282101715614fc357614fc3614f8b565b604051601f8201601f191681016001600160401b038111828210171561505857615058614f8b565b604052919050565b600060c0828403121561507257600080fd5b61507a614fa1565b823561508581614c10565b80825250602083013560208201526040830135604082015260608301356150ab8161496a565b60608201526080838101359082015260a08301356150c88161496a565b60a08201529392505050565b80511515825260208082015190830152604080820151908301526060808201516001600160a01b03908116918401919091526080808301519084015260a09182015116910152565b81516001600160a01b031681526020808301519082015260408083015190820152606080830151908201526080808301519082015260a082810151610160830191615169908401826150d4565b5092915050565b60006020828403121561518257600080fd5b81516116a58161496a565b60006020828403121561519f57600080fd5b81356116a581614c10565b60005b838110156151c55781810151838201526020016151ad565b50506000910152565b600081518084526151e68160208601602086016151aa565b601f01601f19169290920160200192915050565b85815260018060a01b0385166020820152836040820152821515606082015260c06080820152600060c082015260e060a0820152600061320660e08301846151ce565b868152600060018060a01b03808816602084015286604084015280861660608401525083608083015260e060a0830152600060e08301526101008060c0840152611a69818401856151ce565b60006020828403121561529b57600080fd5b5051919050565b634e487b7160e01b600052603260045260246000fd5b805160ff811681146152c957600080fd5b919050565b6000602082840312156152e057600080fd5b6116a5826152b8565b546001600160a01b038116825260a081901c60ff16602083015260a81c63ffffffff16604090910152565b6080810161532282856152e9565b6001600160a01b039290921660609190910152919050565b6001600160a01b0386168152602080820186905260a060408301819052855490830181905260008681529182209060c0840190835b818110156153945761538183856152e9565b600193840193606093909301920161536f565b505060608401959095525050608001529392505050565b6000606082840312156153bd57600080fd5b6153c5614fc9565b82516153d08161496a565b81526153de602084016152b8565b6020820152604083015163ffffffff811681146153fa57600080fd5b60408201529392505050565b808201808211156106e9576106e9614f62565b85815284602082015260a06040820152600061543860a08301866151ce565b828103606084015261544a81866151ce565b91505060018060a01b03831660808301529695505050505050565b80516001600160a01b031682526020808201519083015260408082015190830152606090810151910152565b6001600160a01b038681168252600090610100906154b26020850189615465565b8660a085015280861660c0850152508060e084015261157f818401856151ce565b80516152c98161496a565b600061012082840312156154f157600080fd5b6154f9614feb565b9050815181526020820151602082015260408201516040820152606082015160608201526080820151608082015260a082015160a082015260c082015160c082015261554760e083016154d3565b60e082015261010080830151818301525092915050565b60006001600160401b0382111561557757615577614f8b565b5060051b60200190565b600082601f83011261559257600080fd5b81516001600160401b038111156155ab576155ab614f8b565b6155be601f8201601f1916602001615030565b8181528460208386010111156155d357600080fd5b6146e98260208301602087016151aa565b600080600061016084860312156155fa57600080fd5b61560485856154de565b925061012084015191506101408401516001600160401b038082111561562957600080fd5b818601915086601f83011261563d57600080fd5b8151602061565261564d8361555e565b615030565b82815260059290921b8401810191818101908a84111561567157600080fd5b8286015b848110156156f75780518681111561568c57600080fd5b87016060818e03601f190112156156a257600080fd5b6156aa614fc9565b858201516156b78161496a565b81526040820151868201526060820151888111156156d55760008081fd5b6156e38f8883860101615581565b604083015250845250918301918301615675565b508096505050505050509250925092565b600060018060a01b03808a168352808916602084015287604084015286606084015260e0608084015261573e60e08401876151ce565b83810360a085015261575081876151ce565b92505080841660c08401525098975050505050505050565b805165ffffffffffff811681146152c957600080fd5b60006020828403121561579057600080fd5b81516001600160401b03808211156157a757600080fd5b9083019060a082860312156157bb57600080fd5b6157c361500e565b8251815260208301516157d58161496a565b60208201526157e660408401615768565b60408201526157f760608401615768565b606082015260808301518281111561580e57600080fd5b61581a87828601615581565b60808301525095945050505050565b600061010060018060a01b0380871684528551818151166020860152816020820151166040860152604081015165ffffffffffff80821660608801528060608401511660808801525050508060208701511660a085015250604085015160c08401528060e084015261480c818401856151ce565b84815260c081016158b160208301866152e9565b608082019390935260a0015292915050565b60008061014083850312156158d757600080fd5b6158e184846154de565b915061012083015190509250929050565b600060018060a01b03808916835287602084015286604084015285606084015260c0608084015261592660c08401866151ce565b915080841660a084015250979650505050505050565b6001600160a01b0387168152602081018690526040810185905260006101006159686060840187614a11565b8060c084015261597a81840186614acb565b905082810360e0840152611a6981856151ce565b60008060008061018085870312156159a557600080fd5b6159af86866154de565b9350610120850151925061014085015191506101608501516001600160401b03808211156159dc57600080fd5b818701915087601f8301126159f057600080fd5b81516159fe61564d8261555e565b8082825260208201915060208360051b86010192508a831115615a2057600080fd5b602085015b83811015615aaa57805185811115615a3c57600080fd5b86016060818e03601f19011215615a5257600080fd5b615a5a614fc9565b6020820151615a688161496a565b815260408201516020820152606082015187811115615a8657600080fd5b615a958f602083860101615581565b60408301525084525060209283019201615a25565b50979a9699509497505050505050565b600060018060a01b03808a168352808916602084015287604084015286606084015285608084015260e060a0840152615af660e08401866151ce565b915080841660c08401525098975050505050505050565b634e487b7160e01b600052601260045260246000fd5b80516001600160a01b03168252600061020060208301516020850152604083015160408501526060830151615b5b6060860182615465565b506080830151615b6e60e0860182615465565b5060a083015161016085015260c083015161018085015260e08301516001600160a01b03166101a08501526101008301516101c08501829052615bb3828601826151ce565b9150506101208301518482036101e0860152610ea982826151ce565b6020815260006116a56020830184615b23565b606081526000615bf56060830186615b23565b6020830194909452506001600160a01b0391909116604090910152919050565b838152606060208201526000615c2e60608301856151ce565b905060018060a01b0383166040830152949350505050565b60008085851115615c5657600080fd5b83861115615c6357600080fd5b5050820193919092039150565b6bffffffffffffffffffffffff198135818116916014851015615c9d5780818660140360031b1b83161692505b505092915050565b80820281158282048414176106e9576106e9614f62565b80516001600160a01b0316825260006102006020830151602085015260408301516040850152606083015160608501526080830151615cfe6080860182615465565b5060a0830151610100615d1381870183615465565b60c085015161018087015260e08501516001600160a01b03166101a08701528401516101c086018390529050615bb3828601826151ce565b6020815260006116a56020830184615cbc565b608081526000615d716080830187615cbc565b60208301959095525060408101929092526001600160a01b0316606090910152919050565b60006020808385031215615da957600080fd5b82516001600160401b03811115615dbf57600080fd5b8301601f81018513615dd057600080fd5b8051615dde61564d8261555e565b81815260c09182028301840191848201919088841115615dfd57600080fd5b938501935b83851015615e805780858a031215615e1a5760008081fd5b615e22614fa1565b8551615e2d81614c10565b8152858701518782015260408087015190820152606080870151615e508161496a565b908201526080868101519082015260a080870151615e6d8161496a565b9082015283529384019391850191615e02565b50979650505050505050565b6101208101615e9b82876150d4565b60c082019490945260e08101929092526001600160a01b031661010090910152919050565b6101408101615ecf82886150d4565b60c08201959095526001600160a01b0393841660e082015261010081019290925290911661012090910152919050565b6000610120615f0e83886150d4565b8560c08401528060e0840152615f26818401866151ce565b91505060018060a01b03831661010083015295945050505050565b60008251615f538184602087016151aa565b919091019291505056fea264697066735822122014d2ba3a9870372b44172570d3bfc9cb856beba241a20cfa46389ec26775622964736f6c63430008170033",
	"devdoc": {
		"kind": "dev",
		"methods": {
			"accountingContextForTokenOf(uint256,address)": {
				"details": "See the `JBAccountingContext` struct for more information.",
				"params": {
					"projectId": "The ID of the project to get token accounting context of.",
					"token": "The token to check the accounting context of."
				},
				"returns": {
					"_0": "The token's accounting context for the token."
				}
			},
			"accountingContextsOf(uint256)": {
				"params": {
					"projectId": "The ID of the project to get the accepted tokens of."
				},
				"returns": {
					"_0": "tokenContexts The accounting contexts of the accepted tokens."
				}
			},
			"addAccountingContextsFor(uint256,address[])": {
				"details": "Only a project's owner, an operator with the `SET_ACCOUNTING_CONTEXT` permission from that owner, or a project's controller can add accounting contexts for the project.",
				"params": {
					"projectId": "The ID of the project having to add accounting contexts for.",
					"tokens": "The tokens to add accounting contexts for."
				}
			},
			"addToBalanceOf(uint256,address,uint256,bool,string,bytes)": {
				"details": "Adding to balance can unlock held fees if `shouldUnlockHeldFees` is true.",
				"params": {
					"amount": "The amount of tokens to add to the balance, as a fixed point number with the same number of decimals as this terminal. If this is a native token terminal, this is ignored and `msg.value` is used instead.",
					"memo": "A memo to pass along to the emitted event.",
					"metadata": "Extra data to pass along to the emitted event.",
					"projectId": "The ID of the project to add funds to the balance of.",
					"shouldReturnHeldFees": "A flag indicating if held fees should be returned based on the amount being added.",
					"token": "The token being added to the balance."
				}
			},
			"constructor": {
				"params": {
					"directory": "A contract storing directories of terminals and controllers for each project.",
					"feelessAddresses": "A contract that stores addresses that shouldn't incur fees when being paid towards or from.",
					"permissions": "A contract storing permissions.",
					"permit2": "A permit2 utility.",
					"projects": "A contract which mints ERC-721s that represent project ownership and transfers.",
					"splits": "A contract that stores splits for each project.",
					"store": "A contract that stores the terminal's data."
				}
			},
			"currentSurplusOf(uint256,uint256,uint256)": {
				"details": "This total surplus only includes tokens that the project accepts (as returned by `accountingContextsOf(...)`).",
				"params": {
					"currency": "The currency to express the returned value in terms of.",
					"decimals": "The number of decimals to include in the fixed point returned value.",
					"projectId": "The ID of the project to get the current total surplus of."
				},
				"returns": {
					"_0": "The current surplus amount the project has in this terminal, in terms of `currency` and with the specified number of decimals."
				}
			},
			"executePayout((bool,uint256,uint256,address,uint256,address),uint256,address,uint256,address)": {
				"details": "Only accepts calls from this terminal itself.",
				"params": {
					"amount": "The total amount being paid to the split, as a fixed point number with the same number of decimals as this terminal.",
					"projectId": "The ID of the project the split belongs to.",
					"split": "The split to pay.",
					"token": "The address of the token being paid to the split."
				},
				"returns": {
					"netPayoutAmount": "The amount sent to the split after subtracting fees."
				}
			},
			"executeProcessFee(uint256,address,uint256,address,address)": {
				"details": "Only accepts calls from this terminal itself.",
				"params": {
					"amount": "The fee amount, as a fixed point number with 18 decimals.",
					"beneficiary": "The address to mint tokens to (from the project which receives fees), and pass along to the ruleset's data hook and pay hook if applicable.",
					"feeTerminal": "The terminal that'll receive the fees.",
					"projectId": "The ID of the project paying the fee.",
					"token": "The token the fee is being paid in."
				}
			},
			"heldFeesOf(uint256,address)": {
				"details": "Projects can temporarily hold fees and unlock them later by adding funds to the project's balance.Held fees can be processed at any time by this terminal's owner.",
				"params": {
					"projectId": "The ID of the project that is holding fees.",
					"token": "The token that the fees are held in."
				}
			},
			"isTrustedForwarder(address)": {
				"details": "Indicates whether any particular address is the trusted forwarder."
			},
			"migrateBalanceOf(uint256,address,address)": {
				"details": "Only a project's owner or an operator with the `MIGRATE_TERMINAL` permission from that owner can migrate the project's terminal.",
				"params": {
					"projectId": "The ID of the project being migrated.",
					"to": "The terminal contract being migrated to, which will receive the project's funds and operations.",
					"token": "The address of the token being migrated."
				},
				"returns": {
					"balance": "The amount of funds that were migrated, as a fixed point number with the same amount of decimals as this terminal."
				}
			},
			"pay(uint256,address,uint256,address,uint256,string,bytes)": {
				"params": {
					"amount": "The amount of terminal tokens being received, as a fixed point number with the same number of decimals as this terminal. If this terminal's token is native, this is ignored and `msg.value` is used in its place.",
					"beneficiary": "The address to mint tokens to, and pass along to the ruleset's data hook and pay hook if applicable.",
					"memo": "A memo to pass along to the emitted event.",
					"metadata": "Bytes to pass along to the emitted event, as well as the data hook and pay hook if applicable.",
					"minReturnedTokens": "The minimum number of project tokens expected in return for this payment, as a fixed point number with the same number of decimals as this terminal. If the amount of tokens minted for the beneficiary would be less than this amount, the payment is reverted.",
					"projectId": "The ID of the project being paid.",
					"token": "The token being paid."
				},
				"returns": {
					"beneficiaryTokenCount": "The number of tokens minted to the beneficiary, as a fixed point number with 18 decimals."
				}
			},
			"processHeldFeesOf(uint256,address)": {
				"params": {
					"projectId": "The ID of the project to process held fees for.",
					"token": "The token to process held fees for."
				}
			},
			"redeemTokensOf(address,uint256,address,uint256,uint256,address,bytes)": {
				"details": "Only a token's holder or an operator with the `REDEEM_TOKENS` permission from that holder can redeem those tokens.",
				"params": {
					"beneficiary": "The address to send the reclaimed terminal tokens to, and to pass along to the ruleset's data hook and redeem hook if applicable.",
					"holder": "The account whose tokens are being redeemed.",
					"metadata": "Bytes to send along to the emitted event, as well as the data hook and redeem hook if applicable.",
					"minTokensReclaimed": "The minimum number of terminal tokens expected in return, as a fixed point number with the same number of decimals as this terminal. If the amount of tokens minted for the beneficiary would be less than this amount, the redemption is reverted.",
					"projectId": "The ID of the project the project tokens belong to.",
					"redeemCount": "The number of project tokens to redeem, as a fixed point number with 18 decimals.",
					"tokenToReclaim": "The token being reclaimed."
				},
				"returns": {
					"reclaimAmount": "The amount of terminal tokens that the project tokens were redeemed for, as a fixed point number with 18 decimals."
				}
			},
			"sendPayoutsOf(uint256,address,uint256,uint256,uint256)": {
				"details": "If the percentages of the splits in the project's payout split group do not add up to 100%, the remainder is sent to the project's owner.Anyone can send payouts on a project's behalf. Projects can include a wildcard split (a split with no `hook`, `projectId`, or `beneficiary`) to send funds to the `_msgSender()` which calls this function. This can be used to incentivize calling this function.payouts sent to addresses which aren't feeless incur the protocol fee.Payouts a projects don't incur fees if its terminal is feeless.",
				"params": {
					"amount": "The total number of terminal tokens to send, as a fixed point number with same number of decimals as this terminal.",
					"currency": "The expected currency of the payouts being sent. Must match the currency of one of the project's current ruleset's payout limits.",
					"minTokensPaidOut": "The minimum number of terminal tokens that the `amount` should be worth (if expressed in terms of this terminal's currency), as a fixed point number with the same number of decimals as this terminal. If the amount of tokens paid out would be less than this amount, the send is reverted.",
					"projectId": "The ID of the project having its payouts sent.",
					"token": "The token being sent."
				},
				"returns": {
					"amountPaidOut": "The total amount paid out."
				}
			},
			"supportsInterface(bytes4)": {
				"details": "See {IERC165-supportsInterface}.",
				"params": {
					"interfaceId": "The ID of the interface to check for adherance to."
				},
				"returns": {
					"_0": "A flag indicating if the provided interface ID is supported."
				}
			},
			"trustedForwarder()": {
				"details": "Returns the address of the trusted forwarder."
			},
			"useAllowanceOf(uint256,address,uint256,uint256,uint256,address,string)": {
				"details": "Only a project's owner or an operator with the `USE_ALLOWANCE` permission from that owner can use the surplus allowance.Incurs the protocol fee unless the caller is a feeless address.",
				"params": {
					"amount": "The amount of terminal tokens to use from the project's current surplus allowance, as a fixed point number with the same amount of decimals as this terminal.",
					"beneficiary": "The address to send the surplus funds to.",
					"currency": "The expected currency of the amount being paid out. Must match the currency of one of the project's current ruleset's surplus allowances.",
					"memo": "A memo to pass along to the emitted event.",
					"minTokensPaidOut": "The minimum number of terminal tokens that should be used from the surplus allowance (including fees), as a fixed point number with 18 decimals. If the amount of surplus used would be less than this amount, the transaction is reverted.",
					"projectId": "The ID of the project to use the surplus allowance of.",
					"token": "The token being paid out from the surplus."
				},
				"returns": {
					"amountPaidOut": "The number of tokens that were sent to the beneficiary, as a fixed point number with the same amount of decimals as the terminal."
				}
			}
		},
		"version": 1
	},
	"userdoc": {
		"kind": "user",
		"methods": {
			"DIRECTORY()": {
				"notice": "The directory of terminals and controllers for PROJECTS."
			},
			"FEE()": {
				"notice": "The fee percent (out of `JBConstants.MAX_FEE`)."
			},
			"FEELESS_ADDRESSES()": {
				"notice": "The contract that stores addresses that shouldn't incur fees when being paid towards or from."
			},
			"PERMISSIONS()": {
				"notice": "A contract storing permissions."
			},
			"PERMIT2()": {
				"notice": "The permit2 utility."
			},
			"PROJECTS()": {
				"notice": "Mints ERC-721s that represent project ownership and transfers."
			},
			"SPLITS()": {
				"notice": "The contract that stores splits for each project."
			},
			"STORE()": {
				"notice": "The contract that stores and manages the terminal's data."
			},
			"accountingContextForTokenOf(uint256,address)": {
				"notice": "A project's accounting context for a token."
			},
			"accountingContextsOf(uint256)": {
				"notice": "The tokens accepted by a project."
			},
			"addAccountingContextsFor(uint256,address[])": {
				"notice": "Adds accounting contexts for a project to this terminal so the project can begin accepting the tokens in those contexts."
			},
			"addToBalanceOf(uint256,address,uint256,bool,string,bytes)": {
				"notice": "Adds funds to a project's balance without minting tokens."
			},
			"currentSurplusOf(uint256,uint256,uint256)": {
				"notice": "Gets the total current surplus amount in this terminal for a project, in terms of a given currency."
			},
			"executePayout((bool,uint256,uint256,address,uint256,address),uint256,address,uint256,address)": {
				"notice": "Executes a payout to a split."
			},
			"executeProcessFee(uint256,address,uint256,address,address)": {
				"notice": "Process a specified amount of fees for a project."
			},
			"heldFeesOf(uint256,address)": {
				"notice": "Fees that are being held for a project."
			},
			"migrateBalanceOf(uint256,address,address)": {
				"notice": "Migrate a project's funds and operations to a new terminal that accepts the same token type."
			},
			"pay(uint256,address,uint256,address,uint256,string,bytes)": {
				"notice": "Pay a project with tokens."
			},
			"processHeldFeesOf(uint256,address)": {
				"notice": "Process any fees that are being held for the project."
			},
			"redeemTokensOf(address,uint256,address,uint256,uint256,address,bytes)": {
				"notice": "Holders can redeem a project's tokens to reclaim some of that project's surplus tokens, or to trigger rules determined by the current ruleset's data hook and redeem hook."
			},
			"sendPayoutsOf(uint256,address,uint256,uint256,uint256)": {
				"notice": "Sends payouts to a project's current payout split group, according to its ruleset, up to its current payout limit."
			},
			"supportsInterface(bytes4)": {
				"notice": "Indicates if this contract adheres to the specified interface."
			},
			"useAllowanceOf(uint256,address,uint256,uint256,uint256,address,string)": {
				"notice": "Allows a project to pay out funds from its surplus up to the current surplus allowance."
			}
		},
		"version": 1
	},
	"gitCommit": "b03f34d98eacd4484804213a3ba52efcdbe9107e",
	"sourceName": "src/JBMultiTerminal.sol",
	"chainId": "11155420",
	"linkReferences": {},
	"deployedLinkReferences": {},
	"history": []
}