{
	"_format": "sphinx-sol-ct-artifact-1",
	"merkleRoot": "0x7bd9f2c1196de189f5c3cc49509da51a5c3d19c2ccc24e5ab4f96f008debc40c",
	"contractName": "JBPermissions",
	"address": "0xFB44E31F92BB6c4BBfc1375181B17B42BCe54F27",
	"abi": [
		{
			"type": "function",
			"name": "WILDCARD_PROJECT_ID",
			"inputs": [],
			"outputs": [
				{
					"name": "",
					"type": "uint256",
					"internalType": "uint256"
				}
			],
			"stateMutability": "view"
		},
		{
			"type": "function",
			"name": "hasPermission",
			"inputs": [
				{
					"name": "operator",
					"type": "address",
					"internalType": "address"
				},
				{
					"name": "account",
					"type": "address",
					"internalType": "address"
				},
				{
					"name": "projectId",
					"type": "uint256",
					"internalType": "uint256"
				},
				{
					"name": "permissionId",
					"type": "uint256",
					"internalType": "uint256"
				},
				{
					"name": "includeRoot",
					"type": "bool",
					"internalType": "bool"
				},
				{
					"name": "includeWildcardProjectId",
					"type": "bool",
					"internalType": "bool"
				}
			],
			"outputs": [
				{
					"name": "",
					"type": "bool",
					"internalType": "bool"
				}
			],
			"stateMutability": "view"
		},
		{
			"type": "function",
			"name": "hasPermissions",
			"inputs": [
				{
					"name": "operator",
					"type": "address",
					"internalType": "address"
				},
				{
					"name": "account",
					"type": "address",
					"internalType": "address"
				},
				{
					"name": "projectId",
					"type": "uint256",
					"internalType": "uint256"
				},
				{
					"name": "permissionIds",
					"type": "uint256[]",
					"internalType": "uint256[]"
				},
				{
					"name": "includeRoot",
					"type": "bool",
					"internalType": "bool"
				},
				{
					"name": "includeWildcardProjectId",
					"type": "bool",
					"internalType": "bool"
				}
			],
			"outputs": [
				{
					"name": "",
					"type": "bool",
					"internalType": "bool"
				}
			],
			"stateMutability": "view"
		},
		{
			"type": "function",
			"name": "permissionsOf",
			"inputs": [
				{
					"name": "operator",
					"type": "address",
					"internalType": "address"
				},
				{
					"name": "account",
					"type": "address",
					"internalType": "address"
				},
				{
					"name": "projectId",
					"type": "uint256",
					"internalType": "uint256"
				}
			],
			"outputs": [
				{
					"name": "",
					"type": "uint256",
					"internalType": "uint256"
				}
			],
			"stateMutability": "view"
		},
		{
			"type": "function",
			"name": "setPermissionsFor",
			"inputs": [
				{
					"name": "account",
					"type": "address",
					"internalType": "address"
				},
				{
					"name": "permissionsData",
					"type": "tuple",
					"internalType": "struct JBPermissionsData",
					"components": [
						{
							"name": "operator",
							"type": "address",
							"internalType": "address"
						},
						{
							"name": "projectId",
							"type": "uint256",
							"internalType": "uint256"
						},
						{
							"name": "permissionIds",
							"type": "uint256[]",
							"internalType": "uint256[]"
						}
					]
				}
			],
			"outputs": [],
			"stateMutability": "nonpayable"
		},
		{
			"type": "event",
			"name": "OperatorPermissionsSet",
			"inputs": [
				{
					"name": "operator",
					"type": "address",
					"indexed": true,
					"internalType": "address"
				},
				{
					"name": "account",
					"type": "address",
					"indexed": true,
					"internalType": "address"
				},
				{
					"name": "projectId",
					"type": "uint256",
					"indexed": true,
					"internalType": "uint256"
				},
				{
					"name": "permissionIds",
					"type": "uint256[]",
					"indexed": false,
					"internalType": "uint256[]"
				},
				{
					"name": "packed",
					"type": "uint256",
					"indexed": false,
					"internalType": "uint256"
				},
				{
					"name": "caller",
					"type": "address",
					"indexed": false,
					"internalType": "address"
				}
			],
			"anonymous": false
		},
		{
			"type": "error",
			"name": "PERMISSION_ID_OUT_OF_BOUNDS",
			"inputs": []
		},
		{
			"type": "error",
			"name": "UNAUTHORIZED",
			"inputs": []
		}
	],
	"solcInputHash": "1da298823f858e48974af7472fc9a65b",
	"args": [],
	"bytecode": "0x608060405234801561001057600080fd5b50610825806100206000396000f3fe608060405234801561001057600080fd5b50600436106100575760003560e01c806305d2912e1461005c578063348b684e14610071578063632af95f1461009957806380deb230146100ac5780638affd7eb146100ea575b600080fd5b61006f61006a36600461054e565b6100f2565b005b61008461007f3660046105b3565b610213565b60405190151581526020015b60405180910390f35b6100846100a7366004610619565b610347565b6100dc6100ba3660046106db565b6000602081815293815260408082208552928152828120909352825290205481565b604051908152602001610090565b6100dc600081565b60006101096101046040840184610717565b6104cf565b9050336001600160a01b038416148015906101435750600181811c811614806101435750610141338484602001356001806001610213565b155b156101615760405163075fd2b160e01b815260040160405180910390fd5b806000806101726020860186610768565b6001600160a01b039081168252602080830193909352604091820160009081209188168082529184528281208785018035808452919095529290209390935591906101bd9085610768565b6001600160a01b03167ff8cdf10a0ce6189c6d069e97320ef146e2bcbd32d6c0b86dcbfbf3bd8578fa706101f46040870187610717565b8633604051610206949392919061078a565b60405180910390a4505050565b600060ff841115610237576040516334f9a01d60e21b815260040160405180910390fd5b8280156102b657506001600160a01b03878116600090815260208181526040808320938a16835292815282822088835290522054600190811c811614806102b657508180156102b657506001600160a01b03878116600090815260208181526040808320938a16835292815282822082805290522054600190811c8116145b156102c35750600161033d565b6001600160a01b03878116600090815260208181526040808320938a16835292815282822088835290522054600190851c8116148061033a575081801561033a57506001600160a01b03878116600090815260208181526040808320938a16835292815282822082805290522054600190851c8116145b90505b9695505050505050565b60008280156103c857506001600160a01b03888116600090815260208181526040808320938b16835292815282822089835290522054600190811c811614806103c857508180156103c857506001600160a01b03888116600090815260208181526040808320938b16835292815282822082805290522054600190811c8116145b156103d5575060016104c4565b6001600160a01b03808916600090815260208181526040808320938b168352928152828220898352905290812054818461041057600061043d565b6001600160a01b03808c16600090815260208181526040808320938e168352928152828220828052905220545b905060005b878110156104bb5788888281811061045c5761045c6107d9565b90506020020135935060ff841115610487576040516334f9a01d60e21b815260040160405180910390fd5b600183851c8116141580156104a15750600182851c811614155b156104b35760009450505050506104c4565b600101610442565b50600193505050505b979650505050505050565b60008060005b8381101561052a578484828181106104ef576104ef6107d9565b90506020020135915060ff82111561051a576040516334f9a01d60e21b815260040160405180910390fd5b600180831b9390931792016104d5565b505092915050565b80356001600160a01b038116811461054957600080fd5b919050565b6000806040838503121561056157600080fd5b61056a83610532565b9150602083013567ffffffffffffffff81111561058657600080fd5b83016060818603121561059857600080fd5b809150509250929050565b8035801515811461054957600080fd5b60008060008060008060c087890312156105cc57600080fd5b6105d587610532565b95506105e360208801610532565b945060408701359350606087013592506105ff608088016105a3565b915061060d60a088016105a3565b90509295509295509295565b600080600080600080600060c0888a03121561063457600080fd5b61063d88610532565b965061064b60208901610532565b955060408801359450606088013567ffffffffffffffff8082111561066f57600080fd5b818a0191508a601f83011261068357600080fd5b81358181111561069257600080fd5b8b60208260051b85010111156106a757600080fd5b6020830196508095505050506106bf608089016105a3565b91506106cd60a089016105a3565b905092959891949750929550565b6000806000606084860312156106f057600080fd5b6106f984610532565b925061070760208501610532565b9150604084013590509250925092565b6000808335601e1984360301811261072e57600080fd5b83018035915067ffffffffffffffff82111561074957600080fd5b6020019150600581901b360382131561076157600080fd5b9250929050565b60006020828403121561077a57600080fd5b61078382610532565b9392505050565b6060808252810184905260006001600160fb1b038511156107aa57600080fd5b8460051b808760808501376020830194909452506001600160a01b039190911660408201520160800192915050565b634e487b7160e01b600052603260045260246000fdfea2646970667358221220e734a3a61cdf6a764a61b6d57fed2b2273035dc02df356fff0160ee09903f4c864736f6c63430008170033",
	"devdoc": {
		"kind": "dev",
		"methods": {
			"hasPermission(address,address,uint256,uint256,bool,bool)": {
				"params": {
					"account": "The account being operated on behalf of.",
					"includeRoot": "A flag indicating if the return value should default to true if the operator has the ROOT permission.",
					"includeWildcardProjectId": "A flag indicating if the return value should return true if the operator has the specified permission on the wildcard project ID. true.",
					"operator": "The operator to check.",
					"permissionId": "The permission ID to check for.",
					"projectId": "The project ID that the operator has permission to operate under. 0 represents all projects."
				},
				"returns": {
					"_0": "A flag indicating whether the operator has the specified permission."
				}
			},
			"hasPermissions(address,address,uint256,uint256[],bool,bool)": {
				"params": {
					"account": "The account being operated on behalf of.",
					"includeRoot": "A flag indicating if the return value should default to true if the operator has the ROOT permission.",
					"includeWildcardProjectId": "A flag indicating if the return value should return true if the operator has the specified permission on the wildcard project ID.",
					"operator": "The operator to check.",
					"permissionIds": "An array of permission IDs to check for.",
					"projectId": "The project ID that the operator has permission to operate under. 0 represents all projects."
				},
				"returns": {
					"_0": "A flag indicating whether the operator has all specified permissions."
				}
			},
			"setPermissionsFor(address,(address,uint256,uint256[]))": {
				"details": "Only an address can give permissions to or revoke permissions from its operators.",
				"params": {
					"account": "The account setting its operators' permissions.",
					"permissionsData": "The data which specifies the permissions the operator is being given."
				}
			}
		},
		"version": 1
	},
	"userdoc": {
		"kind": "user",
		"methods": {
			"WILDCARD_PROJECT_ID()": {
				"notice": "The project ID considered a wildcard, meaning it will grant permissions to all projects."
			},
			"hasPermission(address,address,uint256,uint256,bool,bool)": {
				"notice": "Check if an operator has a specific permission for a specific address and project ID."
			},
			"hasPermissions(address,address,uint256,uint256[],bool,bool)": {
				"notice": "Check if an operator has all of the specified permissions for a specific address and project ID."
			},
			"permissionsOf(address,address,uint256)": {
				"notice": "The permissions that an operator has been given by an account for a specific project."
			},
			"setPermissionsFor(address,(address,uint256,uint256[]))": {
				"notice": "Sets permissions for an operator."
			}
		},
		"version": 1
	},
	"gitCommit": "774c5cf064c93d6e7ed94e8a207edc157619a527",
	"sourceName": "src/JBPermissions.sol",
	"chainId": "11155420",
	"linkReferences": {},
	"deployedLinkReferences": {},
	"history": [
		{
			"_format": "sphinx-sol-ct-artifact-1",
			"merkleRoot": "0x58025795c33f9e0121b492c9ea8dc31dc6803cc81b9066cd376333e802464741",
			"contractName": "JBPermissions",
			"address": "0xBA24624AE5dc821866E9E71Ed050412Ef01E2fe6",
			"abi": [
				{
					"type": "constructor",
					"inputs": [],
					"stateMutability": "nonpayable"
				},
				{
					"type": "function",
					"name": "PERMISSIONS",
					"inputs": [],
					"outputs": [
						{
							"name": "",
							"type": "address",
							"internalType": "contract IJBPermissions"
						}
					],
					"stateMutability": "view"
				},
				{
					"type": "function",
					"name": "hasPermission",
					"inputs": [
						{
							"name": "operator",
							"type": "address",
							"internalType": "address"
						},
						{
							"name": "account",
							"type": "address",
							"internalType": "address"
						},
						{
							"name": "projectId",
							"type": "uint256",
							"internalType": "uint256"
						},
						{
							"name": "permissionId",
							"type": "uint256",
							"internalType": "uint256"
						}
					],
					"outputs": [
						{
							"name": "",
							"type": "bool",
							"internalType": "bool"
						}
					],
					"stateMutability": "view"
				},
				{
					"type": "function",
					"name": "hasPermissions",
					"inputs": [
						{
							"name": "operator",
							"type": "address",
							"internalType": "address"
						},
						{
							"name": "account",
							"type": "address",
							"internalType": "address"
						},
						{
							"name": "projectId",
							"type": "uint256",
							"internalType": "uint256"
						},
						{
							"name": "permissionIds",
							"type": "uint256[]",
							"internalType": "uint256[]"
						}
					],
					"outputs": [
						{
							"name": "",
							"type": "bool",
							"internalType": "bool"
						}
					],
					"stateMutability": "view"
				},
				{
					"type": "function",
					"name": "permissionsOf",
					"inputs": [
						{
							"name": "operator",
							"type": "address",
							"internalType": "address"
						},
						{
							"name": "account",
							"type": "address",
							"internalType": "address"
						},
						{
							"name": "projectId",
							"type": "uint256",
							"internalType": "uint256"
						}
					],
					"outputs": [
						{
							"name": "",
							"type": "uint256",
							"internalType": "uint256"
						}
					],
					"stateMutability": "view"
				},
				{
					"type": "function",
					"name": "setPermissionsFor",
					"inputs": [
						{
							"name": "account",
							"type": "address",
							"internalType": "address"
						},
						{
							"name": "permissionsData",
							"type": "tuple",
							"internalType": "struct JBPermissionsData",
							"components": [
								{
									"name": "operator",
									"type": "address",
									"internalType": "address"
								},
								{
									"name": "projectId",
									"type": "uint256",
									"internalType": "uint256"
								},
								{
									"name": "permissionIds",
									"type": "uint256[]",
									"internalType": "uint256[]"
								}
							]
						}
					],
					"outputs": [],
					"stateMutability": "nonpayable"
				},
				{
					"type": "event",
					"name": "OperatorPermissionsSet",
					"inputs": [
						{
							"name": "operator",
							"type": "address",
							"indexed": true,
							"internalType": "address"
						},
						{
							"name": "account",
							"type": "address",
							"indexed": true,
							"internalType": "address"
						},
						{
							"name": "projectId",
							"type": "uint256",
							"indexed": true,
							"internalType": "uint256"
						},
						{
							"name": "permissionIds",
							"type": "uint256[]",
							"indexed": false,
							"internalType": "uint256[]"
						},
						{
							"name": "packed",
							"type": "uint256",
							"indexed": false,
							"internalType": "uint256"
						},
						{
							"name": "caller",
							"type": "address",
							"indexed": false,
							"internalType": "address"
						}
					],
					"anonymous": false
				},
				{
					"type": "error",
					"name": "PERMISSION_ID_OUT_OF_BOUNDS",
					"inputs": []
				},
				{
					"type": "error",
					"name": "UNAUTHORIZED",
					"inputs": []
				}
			],
			"solcInputHash": "b2112d617c776ac2cceb92d11c578094",
			"receipt": {
				"blockHash": "0x3684d37e210560f139dcef93bf567c65e8de6bd6967afbcec430f03eb68774c3",
				"blockNumber": 8937459,
				"contractAddress": null,
				"cumulativeGasUsed": "11117439",
				"from": "0xC034550B542b83BA1De312b21d1C94a9a52B1595",
				"gasPrice": "1000252",
				"gasUsed": "10946888",
				"hash": "0x05af14bfc01408099e98c4c77a20a156782d0a470d6a38c8e6aa4aac61a56f05",
				"index": 2,
				"logs": [
					{
						"address": "0xB5E96127D417b1B3ef8438496a38A143167209c7",
						"blockHash": "0x3684d37e210560f139dcef93bf567c65e8de6bd6967afbcec430f03eb68774c3",
						"blockNumber": 8937459,
						"data": "0x0000000000000000000000000000000000000000000000000000000000000000",
						"index": 3,
						"topics": [
							"0x572f161235911da04685a68c06adf558fc7e4a36909dca394650e0adc19cc93d",
							"0x000000000000000000000000c034550b542b83ba1de312b21d1c94a9a52b1595",
							"0x000000000000000000000000ef1be3c049809cace5bc203bbe4ec1ab284bf75c",
							"0xf4118e466bf11157dadee748f721b9ae5cafee358439273d9ebda412860a863f"
						],
						"transactionHash": "0x05af14bfc01408099e98c4c77a20a156782d0a470d6a38c8e6aa4aac61a56f05",
						"transactionIndex": 2
					},
					{
						"address": "0x1081B5AA9D9d4862A3dA4d469433FB36Ed80FA2A",
						"blockHash": "0x3684d37e210560f139dcef93bf567c65e8de6bd6967afbcec430f03eb68774c3",
						"blockNumber": 8937459,
						"data": "0x",
						"index": 4,
						"topics": [
							"0x6895c13664aa4f67288b25d7a21d7aaa34916e355fb9b6fae0a139a9085becb8",
							"0x000000000000000000000000ef1be3c049809cace5bc203bbe4ec1ab284bf75c"
						],
						"transactionHash": "0x05af14bfc01408099e98c4c77a20a156782d0a470d6a38c8e6aa4aac61a56f05",
						"transactionIndex": 2
					},
					{
						"address": "0xEf1Be3C049809caCe5Bc203BBe4Ec1Ab284bF75c",
						"blockHash": "0x3684d37e210560f139dcef93bf567c65e8de6bd6967afbcec430f03eb68774c3",
						"blockNumber": 8937459,
						"data": "0x0000000000000000000000000000000000000000000000000000000000000001",
						"index": 5,
						"topics": [
							"0xa65fb05c5808f5f389d72edeaf719ce38f4cc55c1f69ca3cbfb31c21501caa07",
							"0x58025795c33f9e0121b492c9ea8dc31dc6803cc81b9066cd376333e802464741"
						],
						"transactionHash": "0x05af14bfc01408099e98c4c77a20a156782d0a470d6a38c8e6aa4aac61a56f05",
						"transactionIndex": 2
					},
					{
						"address": "0x1081B5AA9D9d4862A3dA4d469433FB36Ed80FA2A",
						"blockHash": "0x3684d37e210560f139dcef93bf567c65e8de6bd6967afbcec430f03eb68774c3",
						"blockNumber": 8937459,
						"data": "0x000000000000000000000000ba24624ae5dc821866e9e71ed050412ef01e2fe6",
						"index": 6,
						"topics": [
							"0x4db17dd5e4732fb6da34a148104a592783ca119a1e7bb8829eba6cbadef0b511"
						],
						"transactionHash": "0x05af14bfc01408099e98c4c77a20a156782d0a470d6a38c8e6aa4aac61a56f05",
						"transactionIndex": 2
					},
					{
						"address": "0x1081B5AA9D9d4862A3dA4d469433FB36Ed80FA2A",
						"blockHash": "0x3684d37e210560f139dcef93bf567c65e8de6bd6967afbcec430f03eb68774c3",
						"blockNumber": 8937459,
						"data": "0x",
						"index": 7,
						"topics": [
							"0x6895c13664aa4f67288b25d7a21d7aaa34916e355fb9b6fae0a139a9085becb8",
							"0x000000000000000000000000ef1be3c049809cace5bc203bbe4ec1ab284bf75c"
						],
						"transactionHash": "0x05af14bfc01408099e98c4c77a20a156782d0a470d6a38c8e6aa4aac61a56f05",
						"transactionIndex": 2
					},
					{
						"address": "0xEf1Be3C049809caCe5Bc203BBe4Ec1Ab284bF75c",
						"blockHash": "0x3684d37e210560f139dcef93bf567c65e8de6bd6967afbcec430f03eb68774c3",
						"blockNumber": 8937459,
						"data": "0x0000000000000000000000000000000000000000000000000000000000000002",
						"index": 8,
						"topics": [
							"0xa65fb05c5808f5f389d72edeaf719ce38f4cc55c1f69ca3cbfb31c21501caa07",
							"0x58025795c33f9e0121b492c9ea8dc31dc6803cc81b9066cd376333e802464741"
						],
						"transactionHash": "0x05af14bfc01408099e98c4c77a20a156782d0a470d6a38c8e6aa4aac61a56f05",
						"transactionIndex": 2
					},
					{
						"address": "0x4d9207aBEcA883161A1eAee9DaBeDC0001c198d7",
						"blockHash": "0x3684d37e210560f139dcef93bf567c65e8de6bd6967afbcec430f03eb68774c3",
						"blockNumber": 8937459,
						"data": "0x",
						"index": 9,
						"topics": [
							"0x8be0079c531659141344cd1fd0a4f28419497f9722a3daafe3b4186f6b6457e0",
							"0x0000000000000000000000000000000000000000000000000000000000000000",
							"0x000000000000000000000000823b92d6a4b2aed4b15675c7917c9f922ea8adad"
						],
						"transactionHash": "0x05af14bfc01408099e98c4c77a20a156782d0a470d6a38c8e6aa4aac61a56f05",
						"transactionIndex": 2
					},
					{
						"address": "0x1081B5AA9D9d4862A3dA4d469433FB36Ed80FA2A",
						"blockHash": "0x3684d37e210560f139dcef93bf567c65e8de6bd6967afbcec430f03eb68774c3",
						"blockNumber": 8937459,
						"data": "0x0000000000000000000000004d9207abeca883161a1eaee9dabedc0001c198d7",
						"index": 10,
						"topics": [
							"0x4db17dd5e4732fb6da34a148104a592783ca119a1e7bb8829eba6cbadef0b511"
						],
						"transactionHash": "0x05af14bfc01408099e98c4c77a20a156782d0a470d6a38c8e6aa4aac61a56f05",
						"transactionIndex": 2
					},
					{
						"address": "0x1081B5AA9D9d4862A3dA4d469433FB36Ed80FA2A",
						"blockHash": "0x3684d37e210560f139dcef93bf567c65e8de6bd6967afbcec430f03eb68774c3",
						"blockNumber": 8937459,
						"data": "0x",
						"index": 11,
						"topics": [
							"0x6895c13664aa4f67288b25d7a21d7aaa34916e355fb9b6fae0a139a9085becb8",
							"0x000000000000000000000000ef1be3c049809cace5bc203bbe4ec1ab284bf75c"
						],
						"transactionHash": "0x05af14bfc01408099e98c4c77a20a156782d0a470d6a38c8e6aa4aac61a56f05",
						"transactionIndex": 2
					},
					{
						"address": "0xEf1Be3C049809caCe5Bc203BBe4Ec1Ab284bF75c",
						"blockHash": "0x3684d37e210560f139dcef93bf567c65e8de6bd6967afbcec430f03eb68774c3",
						"blockNumber": 8937459,
						"data": "0x0000000000000000000000000000000000000000000000000000000000000003",
						"index": 12,
						"topics": [
							"0xa65fb05c5808f5f389d72edeaf719ce38f4cc55c1f69ca3cbfb31c21501caa07",
							"0x58025795c33f9e0121b492c9ea8dc31dc6803cc81b9066cd376333e802464741"
						],
						"transactionHash": "0x05af14bfc01408099e98c4c77a20a156782d0a470d6a38c8e6aa4aac61a56f05",
						"transactionIndex": 2
					},
					{
						"address": "0x18017cfeD48E1dC0Adc445cEF8A9e6AfFCb330DA",
						"blockHash": "0x3684d37e210560f139dcef93bf567c65e8de6bd6967afbcec430f03eb68774c3",
						"blockNumber": 8937459,
						"data": "0x",
						"index": 13,
						"topics": [
							"0x8be0079c531659141344cd1fd0a4f28419497f9722a3daafe3b4186f6b6457e0",
							"0x0000000000000000000000000000000000000000000000000000000000000000",
							"0x0000000000000000000000001081b5aa9d9d4862a3da4d469433fb36ed80fa2a"
						],
						"transactionHash": "0x05af14bfc01408099e98c4c77a20a156782d0a470d6a38c8e6aa4aac61a56f05",
						"transactionIndex": 2
					},
					{
						"address": "0x1081B5AA9D9d4862A3dA4d469433FB36Ed80FA2A",
						"blockHash": "0x3684d37e210560f139dcef93bf567c65e8de6bd6967afbcec430f03eb68774c3",
						"blockNumber": 8937459,
						"data": "0x00000000000000000000000018017cfed48e1dc0adc445cef8a9e6affcb330da",
						"index": 14,
						"topics": [
							"0x4db17dd5e4732fb6da34a148104a592783ca119a1e7bb8829eba6cbadef0b511"
						],
						"transactionHash": "0x05af14bfc01408099e98c4c77a20a156782d0a470d6a38c8e6aa4aac61a56f05",
						"transactionIndex": 2
					},
					{
						"address": "0x1081B5AA9D9d4862A3dA4d469433FB36Ed80FA2A",
						"blockHash": "0x3684d37e210560f139dcef93bf567c65e8de6bd6967afbcec430f03eb68774c3",
						"blockNumber": 8937459,
						"data": "0x",
						"index": 15,
						"topics": [
							"0x6895c13664aa4f67288b25d7a21d7aaa34916e355fb9b6fae0a139a9085becb8",
							"0x000000000000000000000000ef1be3c049809cace5bc203bbe4ec1ab284bf75c"
						],
						"transactionHash": "0x05af14bfc01408099e98c4c77a20a156782d0a470d6a38c8e6aa4aac61a56f05",
						"transactionIndex": 2
					},
					{
						"address": "0xEf1Be3C049809caCe5Bc203BBe4Ec1Ab284bF75c",
						"blockHash": "0x3684d37e210560f139dcef93bf567c65e8de6bd6967afbcec430f03eb68774c3",
						"blockNumber": 8937459,
						"data": "0x0000000000000000000000000000000000000000000000000000000000000004",
						"index": 16,
						"topics": [
							"0xa65fb05c5808f5f389d72edeaf719ce38f4cc55c1f69ca3cbfb31c21501caa07",
							"0x58025795c33f9e0121b492c9ea8dc31dc6803cc81b9066cd376333e802464741"
						],
						"transactionHash": "0x05af14bfc01408099e98c4c77a20a156782d0a470d6a38c8e6aa4aac61a56f05",
						"transactionIndex": 2
					},
					{
						"address": "0x1081B5AA9D9d4862A3dA4d469433FB36Ed80FA2A",
						"blockHash": "0x3684d37e210560f139dcef93bf567c65e8de6bd6967afbcec430f03eb68774c3",
						"blockNumber": 8937459,
						"data": "0x0000000000000000000000007cb4a75d21c45d1a0a0333bfa626f54636c84da5",
						"index": 17,
						"topics": [
							"0x4db17dd5e4732fb6da34a148104a592783ca119a1e7bb8829eba6cbadef0b511"
						],
						"transactionHash": "0x05af14bfc01408099e98c4c77a20a156782d0a470d6a38c8e6aa4aac61a56f05",
						"transactionIndex": 2
					},
					{
						"address": "0x1081B5AA9D9d4862A3dA4d469433FB36Ed80FA2A",
						"blockHash": "0x3684d37e210560f139dcef93bf567c65e8de6bd6967afbcec430f03eb68774c3",
						"blockNumber": 8937459,
						"data": "0x",
						"index": 18,
						"topics": [
							"0x6895c13664aa4f67288b25d7a21d7aaa34916e355fb9b6fae0a139a9085becb8",
							"0x000000000000000000000000ef1be3c049809cace5bc203bbe4ec1ab284bf75c"
						],
						"transactionHash": "0x05af14bfc01408099e98c4c77a20a156782d0a470d6a38c8e6aa4aac61a56f05",
						"transactionIndex": 2
					},
					{
						"address": "0xEf1Be3C049809caCe5Bc203BBe4Ec1Ab284bF75c",
						"blockHash": "0x3684d37e210560f139dcef93bf567c65e8de6bd6967afbcec430f03eb68774c3",
						"blockNumber": 8937459,
						"data": "0x0000000000000000000000000000000000000000000000000000000000000005",
						"index": 19,
						"topics": [
							"0xa65fb05c5808f5f389d72edeaf719ce38f4cc55c1f69ca3cbfb31c21501caa07",
							"0x58025795c33f9e0121b492c9ea8dc31dc6803cc81b9066cd376333e802464741"
						],
						"transactionHash": "0x05af14bfc01408099e98c4c77a20a156782d0a470d6a38c8e6aa4aac61a56f05",
						"transactionIndex": 2
					},
					{
						"address": "0x1081B5AA9D9d4862A3dA4d469433FB36Ed80FA2A",
						"blockHash": "0x3684d37e210560f139dcef93bf567c65e8de6bd6967afbcec430f03eb68774c3",
						"blockNumber": 8937459,
						"data": "0x0000000000000000000000001eb7799d3a230a0440f0d6c477256df8d425adbb",
						"index": 20,
						"topics": [
							"0x4db17dd5e4732fb6da34a148104a592783ca119a1e7bb8829eba6cbadef0b511"
						],
						"transactionHash": "0x05af14bfc01408099e98c4c77a20a156782d0a470d6a38c8e6aa4aac61a56f05",
						"transactionIndex": 2
					},
					{
						"address": "0x1081B5AA9D9d4862A3dA4d469433FB36Ed80FA2A",
						"blockHash": "0x3684d37e210560f139dcef93bf567c65e8de6bd6967afbcec430f03eb68774c3",
						"blockNumber": 8937459,
						"data": "0x",
						"index": 21,
						"topics": [
							"0x6895c13664aa4f67288b25d7a21d7aaa34916e355fb9b6fae0a139a9085becb8",
							"0x000000000000000000000000ef1be3c049809cace5bc203bbe4ec1ab284bf75c"
						],
						"transactionHash": "0x05af14bfc01408099e98c4c77a20a156782d0a470d6a38c8e6aa4aac61a56f05",
						"transactionIndex": 2
					},
					{
						"address": "0xEf1Be3C049809caCe5Bc203BBe4Ec1Ab284bF75c",
						"blockHash": "0x3684d37e210560f139dcef93bf567c65e8de6bd6967afbcec430f03eb68774c3",
						"blockNumber": 8937459,
						"data": "0x0000000000000000000000000000000000000000000000000000000000000006",
						"index": 22,
						"topics": [
							"0xa65fb05c5808f5f389d72edeaf719ce38f4cc55c1f69ca3cbfb31c21501caa07",
							"0x58025795c33f9e0121b492c9ea8dc31dc6803cc81b9066cd376333e802464741"
						],
						"transactionHash": "0x05af14bfc01408099e98c4c77a20a156782d0a470d6a38c8e6aa4aac61a56f05",
						"transactionIndex": 2
					},
					{
						"address": "0x1081B5AA9D9d4862A3dA4d469433FB36Ed80FA2A",
						"blockHash": "0x3684d37e210560f139dcef93bf567c65e8de6bd6967afbcec430f03eb68774c3",
						"blockNumber": 8937459,
						"data": "0x0000000000000000000000003295c9c7374e583cb2e6ed455eaf9908022159d0",
						"index": 23,
						"topics": [
							"0x4db17dd5e4732fb6da34a148104a592783ca119a1e7bb8829eba6cbadef0b511"
						],
						"transactionHash": "0x05af14bfc01408099e98c4c77a20a156782d0a470d6a38c8e6aa4aac61a56f05",
						"transactionIndex": 2
					},
					{
						"address": "0x1081B5AA9D9d4862A3dA4d469433FB36Ed80FA2A",
						"blockHash": "0x3684d37e210560f139dcef93bf567c65e8de6bd6967afbcec430f03eb68774c3",
						"blockNumber": 8937459,
						"data": "0x",
						"index": 24,
						"topics": [
							"0x6895c13664aa4f67288b25d7a21d7aaa34916e355fb9b6fae0a139a9085becb8",
							"0x000000000000000000000000ef1be3c049809cace5bc203bbe4ec1ab284bf75c"
						],
						"transactionHash": "0x05af14bfc01408099e98c4c77a20a156782d0a470d6a38c8e6aa4aac61a56f05",
						"transactionIndex": 2
					},
					{
						"address": "0xEf1Be3C049809caCe5Bc203BBe4Ec1Ab284bF75c",
						"blockHash": "0x3684d37e210560f139dcef93bf567c65e8de6bd6967afbcec430f03eb68774c3",
						"blockNumber": 8937459,
						"data": "0x0000000000000000000000000000000000000000000000000000000000000007",
						"index": 25,
						"topics": [
							"0xa65fb05c5808f5f389d72edeaf719ce38f4cc55c1f69ca3cbfb31c21501caa07",
							"0x58025795c33f9e0121b492c9ea8dc31dc6803cc81b9066cd376333e802464741"
						],
						"transactionHash": "0x05af14bfc01408099e98c4c77a20a156782d0a470d6a38c8e6aa4aac61a56f05",
						"transactionIndex": 2
					},
					{
						"address": "0x1081B5AA9D9d4862A3dA4d469433FB36Ed80FA2A",
						"blockHash": "0x3684d37e210560f139dcef93bf567c65e8de6bd6967afbcec430f03eb68774c3",
						"blockNumber": 8937459,
						"data": "0x0000000000000000000000002fd39295dd948dfbb8aa7e2508ea5fc15096682b",
						"index": 26,
						"topics": [
							"0x4db17dd5e4732fb6da34a148104a592783ca119a1e7bb8829eba6cbadef0b511"
						],
						"transactionHash": "0x05af14bfc01408099e98c4c77a20a156782d0a470d6a38c8e6aa4aac61a56f05",
						"transactionIndex": 2
					},
					{
						"address": "0x1081B5AA9D9d4862A3dA4d469433FB36Ed80FA2A",
						"blockHash": "0x3684d37e210560f139dcef93bf567c65e8de6bd6967afbcec430f03eb68774c3",
						"blockNumber": 8937459,
						"data": "0x",
						"index": 27,
						"topics": [
							"0x6895c13664aa4f67288b25d7a21d7aaa34916e355fb9b6fae0a139a9085becb8",
							"0x000000000000000000000000ef1be3c049809cace5bc203bbe4ec1ab284bf75c"
						],
						"transactionHash": "0x05af14bfc01408099e98c4c77a20a156782d0a470d6a38c8e6aa4aac61a56f05",
						"transactionIndex": 2
					},
					{
						"address": "0xEf1Be3C049809caCe5Bc203BBe4Ec1Ab284bF75c",
						"blockHash": "0x3684d37e210560f139dcef93bf567c65e8de6bd6967afbcec430f03eb68774c3",
						"blockNumber": 8937459,
						"data": "0x0000000000000000000000000000000000000000000000000000000000000008",
						"index": 28,
						"topics": [
							"0xa65fb05c5808f5f389d72edeaf719ce38f4cc55c1f69ca3cbfb31c21501caa07",
							"0x58025795c33f9e0121b492c9ea8dc31dc6803cc81b9066cd376333e802464741"
						],
						"transactionHash": "0x05af14bfc01408099e98c4c77a20a156782d0a470d6a38c8e6aa4aac61a56f05",
						"transactionIndex": 2
					}
				],
				"logsBloom": "0x00000000080010008208000000080000000000000008000000800000004000000060008000000000000000000040000000000000000000000000000000000000000000000000200400000008820000000001000020000000000200000000000000000000020000000000000000000800000000100020000000000008000000400001000000000000000100802000000000080000000000000000804000000000004000080010000000000000000000020200000000000080000000000006000080000000000000200080000008000000000000000000000000000000000020000000000000004006000000000000000200000000000000000000000000000000",
				"status": 1,
				"to": "0xB5E96127D417b1B3ef8438496a38A143167209c7"
			},
			"metadata": "{\"compiler\":{\"version\":\"0.8.23+commit.f704f362\"},\"language\":\"Solidity\",\"output\":{\"abi\":[{\"inputs\":[],\"stateMutability\":\"nonpayable\",\"type\":\"constructor\"},{\"inputs\":[],\"type\":\"error\",\"name\":\"PERMISSION_ID_OUT_OF_BOUNDS\"},{\"inputs\":[],\"type\":\"error\",\"name\":\"UNAUTHORIZED\"},{\"inputs\":[{\"internalType\":\"address\",\"name\":\"operator\",\"type\":\"address\",\"indexed\":true},{\"internalType\":\"address\",\"name\":\"account\",\"type\":\"address\",\"indexed\":true},{\"internalType\":\"uint256\",\"name\":\"projectId\",\"type\":\"uint256\",\"indexed\":true},{\"internalType\":\"uint256[]\",\"name\":\"permissionIds\",\"type\":\"uint256[]\",\"indexed\":false},{\"internalType\":\"uint256\",\"name\":\"packed\",\"type\":\"uint256\",\"indexed\":false},{\"internalType\":\"address\",\"name\":\"caller\",\"type\":\"address\",\"indexed\":false}],\"type\":\"event\",\"name\":\"OperatorPermissionsSet\",\"anonymous\":false},{\"inputs\":[],\"stateMutability\":\"view\",\"type\":\"function\",\"name\":\"PERMISSIONS\",\"outputs\":[{\"internalType\":\"contract IJBPermissions\",\"name\":\"\",\"type\":\"address\"}]},{\"inputs\":[{\"internalType\":\"address\",\"name\":\"operator\",\"type\":\"address\"},{\"internalType\":\"address\",\"name\":\"account\",\"type\":\"address\"},{\"internalType\":\"uint256\",\"name\":\"projectId\",\"type\":\"uint256\"},{\"internalType\":\"uint256\",\"name\":\"permissionId\",\"type\":\"uint256\"}],\"stateMutability\":\"view\",\"type\":\"function\",\"name\":\"hasPermission\",\"outputs\":[{\"internalType\":\"bool\",\"name\":\"\",\"type\":\"bool\"}]},{\"inputs\":[{\"internalType\":\"address\",\"name\":\"operator\",\"type\":\"address\"},{\"internalType\":\"address\",\"name\":\"account\",\"type\":\"address\"},{\"internalType\":\"uint256\",\"name\":\"projectId\",\"type\":\"uint256\"},{\"internalType\":\"uint256[]\",\"name\":\"permissionIds\",\"type\":\"uint256[]\"}],\"stateMutability\":\"view\",\"type\":\"function\",\"name\":\"hasPermissions\",\"outputs\":[{\"internalType\":\"bool\",\"name\":\"\",\"type\":\"bool\"}]},{\"inputs\":[{\"internalType\":\"address\",\"name\":\"operator\",\"type\":\"address\"},{\"internalType\":\"address\",\"name\":\"account\",\"type\":\"address\"},{\"internalType\":\"uint256\",\"name\":\"projectId\",\"type\":\"uint256\"}],\"stateMutability\":\"view\",\"type\":\"function\",\"name\":\"permissionsOf\",\"outputs\":[{\"internalType\":\"uint256\",\"name\":\"\",\"type\":\"uint256\"}]},{\"inputs\":[{\"internalType\":\"address\",\"name\":\"account\",\"type\":\"address\"},{\"internalType\":\"struct JBPermissionsData\",\"name\":\"permissionsData\",\"type\":\"tuple\",\"components\":[{\"internalType\":\"address\",\"name\":\"operator\",\"type\":\"address\"},{\"internalType\":\"uint256\",\"name\":\"projectId\",\"type\":\"uint256\"},{\"internalType\":\"uint256[]\",\"name\":\"permissionIds\",\"type\":\"uint256[]\"}]}],\"stateMutability\":\"nonpayable\",\"type\":\"function\",\"name\":\"setPermissionsFor\"}],\"devdoc\":{\"kind\":\"dev\",\"methods\":{\"hasPermission(address,address,uint256,uint256)\":{\"params\":{\"account\":\"The account being operated on behalf of.\",\"operator\":\"The operator to check.\",\"permissionId\":\"The permission ID to check for.\",\"projectId\":\"The project ID that the operator has permission to operate under. 0 represents all projects.\"},\"returns\":{\"_0\":\"A flag indicating whether the operator has the specified permission.\"}},\"hasPermissions(address,address,uint256,uint256[])\":{\"params\":{\"account\":\"The account being operated on behalf of.\",\"operator\":\"The operator to check.\",\"permissionIds\":\"An array of permission IDs to check for.\",\"projectId\":\"The project ID that the operator has permission to operate under. 0 represents all projects.\"},\"returns\":{\"_0\":\"A flag indicating whether the operator has all specified permissions.\"}},\"setPermissionsFor(address,(address,uint256,uint256[]))\":{\"details\":\"Only an address can give permissions to or revoke permissions from its operators.\",\"params\":{\"account\":\"The account setting its operators' permissions.\",\"permissionsData\":\"The data which specifies the permissions the operator is being given.\"}}},\"version\":1},\"userdoc\":{\"kind\":\"user\",\"methods\":{\"PERMISSIONS()\":{\"notice\":\"A contract storing permissions.\"},\"hasPermission(address,address,uint256,uint256)\":{\"notice\":\"Check if an operator has a specific permission for a specific address and project ID.\"},\"hasPermissions(address,address,uint256,uint256[])\":{\"notice\":\"Check if an operator has all of the specified permissions for a specific address and project ID.\"},\"permissionsOf(address,address,uint256)\":{\"notice\":\"The permissions that an operator has been given by an account for a specific project.\"},\"setPermissionsFor(address,(address,uint256,uint256[]))\":{\"notice\":\"Sets permissions for an operator.\"}},\"version\":1}},\"settings\":{\"remappings\":[\"@bananapus/=node_modules/@bananapus/\",\"@chainlink/=node_modules/@chainlink/\",\"@eth-optimism/=node_modules/@eth-optimism/\",\"@gnosis.pm/=node_modules/@gnosis.pm/\",\"@openzeppelin/=node_modules/@openzeppelin/\",\"@prb/=node_modules/@prb/\",\"@sphinx-labs/contracts/=lib/sphinx/packages/contracts/contracts/foundry/\",\"@uniswap/=node_modules/@uniswap/\",\"ds-test/=lib/forge-std/lib/ds-test/src/\",\"forge-std/=lib/forge-std/src/\",\"hardhat/=node_modules/hardhat/\",\"solmate/=node_modules/solmate/\",\"sphinx-forge-std/=node_modules/sphinx-forge-std/\",\"sphinx-solmate/=node_modules/sphinx-solmate/\",\"sphinx/=lib/sphinx/\"],\"optimizer\":{\"enabled\":true,\"runs\":200},\"metadata\":{\"bytecodeHash\":\"ipfs\"},\"compilationTarget\":{\"src/JBPermissions.sol\":\"JBPermissions\"},\"evmVersion\":\"paris\",\"libraries\":{}},\"sources\":{\"node_modules/@bananapus/permission-ids/src/JBPermissionIds.sol\":{\"keccak256\":\"0xcc68735b4c801e953cb7962e069933f369515e7a4a09aea5b2170a268125a898\",\"urls\":[\"bzz-raw://e51f839d96be200efeca40ca4fb1d5b6096303564cdde5cf67aecf58e2d36db3\",\"dweb:/ipfs/QmRnJ5s974eUeyvTuLUpt4TK8t5TjVmz7DyDSAKxgYTnA5\"],\"license\":\"UNLICENSED\"},\"node_modules/@openzeppelin/contracts/utils/Context.sol\":{\"keccak256\":\"0x493033a8d1b176a037b2cc6a04dad01a5c157722049bbecf632ca876224dd4b2\",\"urls\":[\"bzz-raw://6a708e8a5bdb1011c2c381c9a5cfd8a9a956d7d0a9dc1bd8bcdaf52f76ef2f12\",\"dweb:/ipfs/Qmax9WHBnVsZP46ZxEMNRQpLQnrdE4dK8LehML1Py8FowF\"],\"license\":\"MIT\"},\"src/JBPermissions.sol\":{\"keccak256\":\"0x5d7cbebd7ea868bb17b2df9bd68ebc7a6fd5299c75601fe755b53f14c368d963\",\"urls\":[\"bzz-raw://1812675baaafeeb5074c7ddc6f9b5c5344fe5a213534f1a53f92d664ab0e2d02\",\"dweb:/ipfs/QmY9TC8njokB9gfPPEvDbTntNSd59K3hgKQia4oeJurNwr\"],\"license\":\"MIT\"},\"src/abstract/JBPermissioned.sol\":{\"keccak256\":\"0xbe593894bc9893f7fe5c96f14c013add8f50df762538e3d7cb96ed39ad195664\",\"urls\":[\"bzz-raw://efb81264b24776e6be537680abaeb8c4893e70d8a62231748d860e25a7c2340d\",\"dweb:/ipfs/QmacN9gFgPqkhTEwRD7Zben3whq9DRr2ZkSmScGvioTXXR\"],\"license\":\"MIT\"},\"src/interfaces/IJBPermissioned.sol\":{\"keccak256\":\"0x5b038d4dee116584e88b230920e56d48e135053e3f7e5642eaea14a775c1dad7\",\"urls\":[\"bzz-raw://19e43102f349fd4a1da1c0943ffb8f2950007fe4bb4bb7e8f74fc142575d091b\",\"dweb:/ipfs/QmXHAt4KzDTdDZgDDefEXH2WKi7NcfkJb9R7nxW5uDqsNp\"],\"license\":\"MIT\"},\"src/interfaces/IJBPermissions.sol\":{\"keccak256\":\"0x18870e500edf0fbadc353e273a5574701fb80466376b908c65e7cc3f11044d4d\",\"urls\":[\"bzz-raw://352a47c45853aec80e7acf0d286ade3106eb4cb456776b28a3c2f3f1091bed90\",\"dweb:/ipfs/QmQeYd3YbudYZy2hfbfht9kwhxhw4tuuLKMEYy9UY6dcSy\"],\"license\":\"MIT\"},\"src/structs/JBPermissionsData.sol\":{\"keccak256\":\"0x8f0f69a6ebf5f3704e3dfcb3712fb9d3f94ae7c1ab89bf3e37bad42a3e7a0487\",\"urls\":[\"bzz-raw://57b0c5e52843e2217082889ed47b4da3943e0da4590d5768dcebfe3edad4a6b8\",\"dweb:/ipfs/QmRz48vuWLw81kUP836rh1qzqWiJFGbksgRUA9xGEDNKTY\"],\"license\":\"MIT\"}},\"version\":1}",
			"args": [],
			"bytecode": "0x60a060405234801561001057600080fd5b50306080526080516107b361003d6000396000818160ef01528181610358015261040101526107b36000f3fe608060405234801561001057600080fd5b50600436106100575760003560e01c806305d2912e1461005c5780630f5932f01461007157806380deb23014610099578063c161c93f146100d7578063f434c914146100ea575b600080fd5b61006f61006a366004610512565b610129565b005b61008461007f366004610567565b610204565b60405190151581526020015b60405180910390f35b6100c96100a7366004610605565b6000602081815293815260408082208552928152828120909352825290205481565b604051908152602001610090565b6100846100e5366004610641565b6102ad565b6101117f000000000000000000000000000000000000000000000000000000000000000081565b6040516001600160a01b039091168152602001610090565b610139828260200135600161030e565b600061015061014b6040840184610683565b610492565b90508060008061016360208601866106d4565b6001600160a01b039081168252602080830193909352604091820160009081209188168082529184528281208785018035808452919095529290209390935591906101ae90856106d4565b6001600160a01b03167ff8cdf10a0ce6189c6d069e97320ef146e2bcbd32d6c0b86dcbfbf3bd8578fa706101e56040870187610683565b86336040516101f794939291906106f6565b60405180910390a4505050565b60008181805b8281101561029c5785858281811061022457610224610745565b90506020020135915060ff82111561024f576040516334f9a01d60e21b815260040160405180910390fd5b6001600160a01b03898116600090815260208181526040808320938c1683529281528282208a8352905290812054831c600116900361029457600093505050506102a4565b60010161020a565b506001925050505b95945050505050565b600060ff8211156102d1576040516334f9a01d60e21b815260040160405180910390fd5b506001600160a01b03808516600090815260208181526040808320938716835292815282822085835290522054600190821c811614949350505050565b336001600160a01b03841681148015906103c5575060405163c161c93f60e01b81526001600160a01b038281166004830152858116602483015260448201859052606482018490527f0000000000000000000000000000000000000000000000000000000000000000169063c161c93f90608401602060405180830381865afa15801561039f573d6000803e3d6000fd5b505050506040513d601f19601f820116820180604052508101906103c3919061075b565b155b801561046e575060405163c161c93f60e01b81526001600160a01b038281166004830152858116602483015260006044830152606482018490527f0000000000000000000000000000000000000000000000000000000000000000169063c161c93f90608401602060405180830381865afa158015610448573d6000803e3d6000fd5b505050506040513d601f19601f8201168201806040525081019061046c919061075b565b155b1561048c5760405163075fd2b160e01b815260040160405180910390fd5b50505050565b60008181805b828110156104ed578585828181106104b2576104b2610745565b90506020020135915060ff8211156104dd576040516334f9a01d60e21b815260040160405180910390fd5b600180831b949094179301610498565b50505092915050565b80356001600160a01b038116811461050d57600080fd5b919050565b6000806040838503121561052557600080fd5b61052e836104f6565b9150602083013567ffffffffffffffff81111561054a57600080fd5b83016060818603121561055c57600080fd5b809150509250929050565b60008060008060006080868803121561057f57600080fd5b610588866104f6565b9450610596602087016104f6565b935060408601359250606086013567ffffffffffffffff808211156105ba57600080fd5b818801915088601f8301126105ce57600080fd5b8135818111156105dd57600080fd5b8960208260051b85010111156105f257600080fd5b9699959850939650602001949392505050565b60008060006060848603121561061a57600080fd5b610623846104f6565b9250610631602085016104f6565b9150604084013590509250925092565b6000806000806080858703121561065757600080fd5b610660856104f6565b935061066e602086016104f6565b93969395505050506040820135916060013590565b6000808335601e1984360301811261069a57600080fd5b83018035915067ffffffffffffffff8211156106b557600080fd5b6020019150600581901b36038213156106cd57600080fd5b9250929050565b6000602082840312156106e657600080fd5b6106ef826104f6565b9392505050565b6060808252810184905260006001600160fb1b0385111561071657600080fd5b8460051b808760808501376020830194909452506001600160a01b039190911660408201520160800192915050565b634e487b7160e01b600052603260045260246000fd5b60006020828403121561076d57600080fd5b815180151581146106ef57600080fdfea264697066735822122020dc514244f7e02b9f3867b389de13e1f7f5cdf7fd0337585222f2706e6c8a0964736f6c63430008170033",
			"deployedBytecode": "0x608060405234801561001057600080fd5b50600436106100575760003560e01c806305d2912e1461005c5780630f5932f01461007157806380deb23014610099578063c161c93f146100d7578063f434c914146100ea575b600080fd5b61006f61006a366004610512565b610129565b005b61008461007f366004610567565b610204565b60405190151581526020015b60405180910390f35b6100c96100a7366004610605565b6000602081815293815260408082208552928152828120909352825290205481565b604051908152602001610090565b6100846100e5366004610641565b6102ad565b6101117f000000000000000000000000ba24624ae5dc821866e9e71ed050412ef01e2fe681565b6040516001600160a01b039091168152602001610090565b610139828260200135600161030e565b600061015061014b6040840184610683565b610492565b90508060008061016360208601866106d4565b6001600160a01b039081168252602080830193909352604091820160009081209188168082529184528281208785018035808452919095529290209390935591906101ae90856106d4565b6001600160a01b03167ff8cdf10a0ce6189c6d069e97320ef146e2bcbd32d6c0b86dcbfbf3bd8578fa706101e56040870187610683565b86336040516101f794939291906106f6565b60405180910390a4505050565b60008181805b8281101561029c5785858281811061022457610224610745565b90506020020135915060ff82111561024f576040516334f9a01d60e21b815260040160405180910390fd5b6001600160a01b03898116600090815260208181526040808320938c1683529281528282208a8352905290812054831c600116900361029457600093505050506102a4565b60010161020a565b506001925050505b95945050505050565b600060ff8211156102d1576040516334f9a01d60e21b815260040160405180910390fd5b506001600160a01b03808516600090815260208181526040808320938716835292815282822085835290522054600190821c811614949350505050565b336001600160a01b03841681148015906103c5575060405163c161c93f60e01b81526001600160a01b038281166004830152858116602483015260448201859052606482018490527f000000000000000000000000ba24624ae5dc821866e9e71ed050412ef01e2fe6169063c161c93f90608401602060405180830381865afa15801561039f573d6000803e3d6000fd5b505050506040513d601f19601f820116820180604052508101906103c3919061075b565b155b801561046e575060405163c161c93f60e01b81526001600160a01b038281166004830152858116602483015260006044830152606482018490527f000000000000000000000000ba24624ae5dc821866e9e71ed050412ef01e2fe6169063c161c93f90608401602060405180830381865afa158015610448573d6000803e3d6000fd5b505050506040513d601f19601f8201168201806040525081019061046c919061075b565b155b1561048c5760405163075fd2b160e01b815260040160405180910390fd5b50505050565b60008181805b828110156104ed578585828181106104b2576104b2610745565b90506020020135915060ff8211156104dd576040516334f9a01d60e21b815260040160405180910390fd5b600180831b949094179301610498565b50505092915050565b80356001600160a01b038116811461050d57600080fd5b919050565b6000806040838503121561052557600080fd5b61052e836104f6565b9150602083013567ffffffffffffffff81111561054a57600080fd5b83016060818603121561055c57600080fd5b809150509250929050565b60008060008060006080868803121561057f57600080fd5b610588866104f6565b9450610596602087016104f6565b935060408601359250606086013567ffffffffffffffff808211156105ba57600080fd5b818801915088601f8301126105ce57600080fd5b8135818111156105dd57600080fd5b8960208260051b85010111156105f257600080fd5b9699959850939650602001949392505050565b60008060006060848603121561061a57600080fd5b610623846104f6565b9250610631602085016104f6565b9150604084013590509250925092565b6000806000806080858703121561065757600080fd5b610660856104f6565b935061066e602086016104f6565b93969395505050506040820135916060013590565b6000808335601e1984360301811261069a57600080fd5b83018035915067ffffffffffffffff8211156106b557600080fd5b6020019150600581901b36038213156106cd57600080fd5b9250929050565b6000602082840312156106e657600080fd5b6106ef826104f6565b9392505050565b6060808252810184905260006001600160fb1b0385111561071657600080fd5b8460051b808760808501376020830194909452506001600160a01b039190911660408201520160800192915050565b634e487b7160e01b600052603260045260246000fd5b60006020828403121561076d57600080fd5b815180151581146106ef57600080fdfea264697066735822122020dc514244f7e02b9f3867b389de13e1f7f5cdf7fd0337585222f2706e6c8a0964736f6c63430008170033",
			"devdoc": {
				"kind": "dev",
				"methods": {
					"hasPermission(address,address,uint256,uint256)": {
						"params": {
							"account": "The account being operated on behalf of.",
							"operator": "The operator to check.",
							"permissionId": "The permission ID to check for.",
							"projectId": "The project ID that the operator has permission to operate under. 0 represents all projects."
						},
						"returns": {
							"_0": "A flag indicating whether the operator has the specified permission."
						}
					},
					"hasPermissions(address,address,uint256,uint256[])": {
						"params": {
							"account": "The account being operated on behalf of.",
							"operator": "The operator to check.",
							"permissionIds": "An array of permission IDs to check for.",
							"projectId": "The project ID that the operator has permission to operate under. 0 represents all projects."
						},
						"returns": {
							"_0": "A flag indicating whether the operator has all specified permissions."
						}
					},
					"setPermissionsFor(address,(address,uint256,uint256[]))": {
						"details": "Only an address can give permissions to or revoke permissions from its operators.",
						"params": {
							"account": "The account setting its operators' permissions.",
							"permissionsData": "The data which specifies the permissions the operator is being given."
						}
					}
				},
				"version": 1
			},
			"userdoc": {
				"kind": "user",
				"methods": {
					"PERMISSIONS()": {
						"notice": "A contract storing permissions."
					},
					"hasPermission(address,address,uint256,uint256)": {
						"notice": "Check if an operator has a specific permission for a specific address and project ID."
					},
					"hasPermissions(address,address,uint256,uint256[])": {
						"notice": "Check if an operator has all of the specified permissions for a specific address and project ID."
					},
					"permissionsOf(address,address,uint256)": {
						"notice": "The permissions that an operator has been given by an account for a specific project."
					},
					"setPermissionsFor(address,(address,uint256,uint256[]))": {
						"notice": "Sets permissions for an operator."
					}
				},
				"version": 1
			},
			"gitCommit": "b03f34d98eacd4484804213a3ba52efcdbe9107e",
			"sourceName": "src/JBPermissions.sol",
			"chainId": "11155420",
			"linkReferences": {},
			"deployedLinkReferences": {}
		},
		{
			"_format": "sphinx-sol-ct-artifact-1",
			"merkleRoot": "0xfada22a01fc6019b369081d169c7f38ec6c9e2c67f065667d7be1b942a641e20",
			"contractName": "JBPermissions",
			"address": "0x625e7bce20BcE80D426384c38831f92d453fBf29",
			"abi": [
				{
					"type": "constructor",
					"inputs": [],
					"stateMutability": "nonpayable"
				},
				{
					"type": "function",
					"name": "PERMISSIONS",
					"inputs": [],
					"outputs": [
						{
							"name": "",
							"type": "address",
							"internalType": "contract IJBPermissions"
						}
					],
					"stateMutability": "view"
				},
				{
					"type": "function",
					"name": "hasPermission",
					"inputs": [
						{
							"name": "operator",
							"type": "address",
							"internalType": "address"
						},
						{
							"name": "account",
							"type": "address",
							"internalType": "address"
						},
						{
							"name": "projectId",
							"type": "uint256",
							"internalType": "uint256"
						},
						{
							"name": "permissionId",
							"type": "uint256",
							"internalType": "uint256"
						}
					],
					"outputs": [
						{
							"name": "",
							"type": "bool",
							"internalType": "bool"
						}
					],
					"stateMutability": "view"
				},
				{
					"type": "function",
					"name": "hasPermissions",
					"inputs": [
						{
							"name": "operator",
							"type": "address",
							"internalType": "address"
						},
						{
							"name": "account",
							"type": "address",
							"internalType": "address"
						},
						{
							"name": "projectId",
							"type": "uint256",
							"internalType": "uint256"
						},
						{
							"name": "permissionIds",
							"type": "uint256[]",
							"internalType": "uint256[]"
						}
					],
					"outputs": [
						{
							"name": "",
							"type": "bool",
							"internalType": "bool"
						}
					],
					"stateMutability": "view"
				},
				{
					"type": "function",
					"name": "permissionsOf",
					"inputs": [
						{
							"name": "operator",
							"type": "address",
							"internalType": "address"
						},
						{
							"name": "account",
							"type": "address",
							"internalType": "address"
						},
						{
							"name": "projectId",
							"type": "uint256",
							"internalType": "uint256"
						}
					],
					"outputs": [
						{
							"name": "",
							"type": "uint256",
							"internalType": "uint256"
						}
					],
					"stateMutability": "view"
				},
				{
					"type": "function",
					"name": "setPermissionsFor",
					"inputs": [
						{
							"name": "account",
							"type": "address",
							"internalType": "address"
						},
						{
							"name": "permissionsData",
							"type": "tuple",
							"internalType": "struct JBPermissionsData",
							"components": [
								{
									"name": "operator",
									"type": "address",
									"internalType": "address"
								},
								{
									"name": "projectId",
									"type": "uint256",
									"internalType": "uint256"
								},
								{
									"name": "permissionIds",
									"type": "uint256[]",
									"internalType": "uint256[]"
								}
							]
						}
					],
					"outputs": [],
					"stateMutability": "nonpayable"
				},
				{
					"type": "event",
					"name": "OperatorPermissionsSet",
					"inputs": [
						{
							"name": "operator",
							"type": "address",
							"indexed": true,
							"internalType": "address"
						},
						{
							"name": "account",
							"type": "address",
							"indexed": true,
							"internalType": "address"
						},
						{
							"name": "projectId",
							"type": "uint256",
							"indexed": true,
							"internalType": "uint256"
						},
						{
							"name": "permissionIds",
							"type": "uint256[]",
							"indexed": false,
							"internalType": "uint256[]"
						},
						{
							"name": "packed",
							"type": "uint256",
							"indexed": false,
							"internalType": "uint256"
						},
						{
							"name": "caller",
							"type": "address",
							"indexed": false,
							"internalType": "address"
						}
					],
					"anonymous": false
				},
				{
					"type": "error",
					"name": "PERMISSION_ID_OUT_OF_BOUNDS",
					"inputs": []
				},
				{
					"type": "error",
					"name": "UNAUTHORIZED",
					"inputs": []
				}
			],
			"solcInputHash": "89b464e120c906a6209f84c95fbfe59a",
			"receipt": {
				"blockHash": "0xacfde84d68719c5ae11ff481d3135634f36e11d96692df28e8cab9f597f4041c",
				"blockNumber": 9282131,
				"contractAddress": null,
				"cumulativeGasUsed": "10962859",
				"from": "0xC034550B542b83BA1De312b21d1C94a9a52B1595",
				"gasPrice": "1000252",
				"gasUsed": "10918984",
				"hash": "0x34626a5fa2d1cad1b25b17c18bceab5ca632b72dab842e8a925ddfd25f55d83b",
				"index": 1,
				"logs": [
					{
						"address": "0xB5E96127D417b1B3ef8438496a38A143167209c7",
						"blockHash": "0xacfde84d68719c5ae11ff481d3135634f36e11d96692df28e8cab9f597f4041c",
						"blockNumber": 9282131,
						"data": "0x0000000000000000000000000000000000000000000000000000000000000000",
						"index": 0,
						"topics": [
							"0x572f161235911da04685a68c06adf558fc7e4a36909dca394650e0adc19cc93d",
							"0x000000000000000000000000c034550b542b83ba1de312b21d1c94a9a52b1595",
							"0x000000000000000000000000ef1be3c049809cace5bc203bbe4ec1ab284bf75c",
							"0x0d50558e0774f7198e5033022869d9753dbb1beb175e6a73035888d1db2ee3f3"
						],
						"transactionHash": "0x34626a5fa2d1cad1b25b17c18bceab5ca632b72dab842e8a925ddfd25f55d83b",
						"transactionIndex": 1
					},
					{
						"address": "0x1081B5AA9D9d4862A3dA4d469433FB36Ed80FA2A",
						"blockHash": "0xacfde84d68719c5ae11ff481d3135634f36e11d96692df28e8cab9f597f4041c",
						"blockNumber": 9282131,
						"data": "0x000000000000000000000000625e7bce20bce80d426384c38831f92d453fbf29",
						"index": 1,
						"topics": [
							"0x4db17dd5e4732fb6da34a148104a592783ca119a1e7bb8829eba6cbadef0b511"
						],
						"transactionHash": "0x34626a5fa2d1cad1b25b17c18bceab5ca632b72dab842e8a925ddfd25f55d83b",
						"transactionIndex": 1
					},
					{
						"address": "0x1081B5AA9D9d4862A3dA4d469433FB36Ed80FA2A",
						"blockHash": "0xacfde84d68719c5ae11ff481d3135634f36e11d96692df28e8cab9f597f4041c",
						"blockNumber": 9282131,
						"data": "0x",
						"index": 2,
						"topics": [
							"0x6895c13664aa4f67288b25d7a21d7aaa34916e355fb9b6fae0a139a9085becb8",
							"0x000000000000000000000000ef1be3c049809cace5bc203bbe4ec1ab284bf75c"
						],
						"transactionHash": "0x34626a5fa2d1cad1b25b17c18bceab5ca632b72dab842e8a925ddfd25f55d83b",
						"transactionIndex": 1
					},
					{
						"address": "0xEf1Be3C049809caCe5Bc203BBe4Ec1Ab284bF75c",
						"blockHash": "0xacfde84d68719c5ae11ff481d3135634f36e11d96692df28e8cab9f597f4041c",
						"blockNumber": 9282131,
						"data": "0x0000000000000000000000000000000000000000000000000000000000000001",
						"index": 3,
						"topics": [
							"0xa65fb05c5808f5f389d72edeaf719ce38f4cc55c1f69ca3cbfb31c21501caa07",
							"0xfada22a01fc6019b369081d169c7f38ec6c9e2c67f065667d7be1b942a641e20"
						],
						"transactionHash": "0x34626a5fa2d1cad1b25b17c18bceab5ca632b72dab842e8a925ddfd25f55d83b",
						"transactionIndex": 1
					},
					{
						"address": "0x5e8a3B68ad51E2Ae55E5D7215E9e59bC0f66e33F",
						"blockHash": "0xacfde84d68719c5ae11ff481d3135634f36e11d96692df28e8cab9f597f4041c",
						"blockNumber": 9282131,
						"data": "0x",
						"index": 4,
						"topics": [
							"0x8be0079c531659141344cd1fd0a4f28419497f9722a3daafe3b4186f6b6457e0",
							"0x0000000000000000000000000000000000000000000000000000000000000000",
							"0x000000000000000000000000823b92d6a4b2aed4b15675c7917c9f922ea8adad"
						],
						"transactionHash": "0x34626a5fa2d1cad1b25b17c18bceab5ca632b72dab842e8a925ddfd25f55d83b",
						"transactionIndex": 1
					},
					{
						"address": "0x1081B5AA9D9d4862A3dA4d469433FB36Ed80FA2A",
						"blockHash": "0xacfde84d68719c5ae11ff481d3135634f36e11d96692df28e8cab9f597f4041c",
						"blockNumber": 9282131,
						"data": "0x0000000000000000000000005e8a3b68ad51e2ae55e5d7215e9e59bc0f66e33f",
						"index": 5,
						"topics": [
							"0x4db17dd5e4732fb6da34a148104a592783ca119a1e7bb8829eba6cbadef0b511"
						],
						"transactionHash": "0x34626a5fa2d1cad1b25b17c18bceab5ca632b72dab842e8a925ddfd25f55d83b",
						"transactionIndex": 1
					},
					{
						"address": "0x1081B5AA9D9d4862A3dA4d469433FB36Ed80FA2A",
						"blockHash": "0xacfde84d68719c5ae11ff481d3135634f36e11d96692df28e8cab9f597f4041c",
						"blockNumber": 9282131,
						"data": "0x",
						"index": 6,
						"topics": [
							"0x6895c13664aa4f67288b25d7a21d7aaa34916e355fb9b6fae0a139a9085becb8",
							"0x000000000000000000000000ef1be3c049809cace5bc203bbe4ec1ab284bf75c"
						],
						"transactionHash": "0x34626a5fa2d1cad1b25b17c18bceab5ca632b72dab842e8a925ddfd25f55d83b",
						"transactionIndex": 1
					},
					{
						"address": "0xEf1Be3C049809caCe5Bc203BBe4Ec1Ab284bF75c",
						"blockHash": "0xacfde84d68719c5ae11ff481d3135634f36e11d96692df28e8cab9f597f4041c",
						"blockNumber": 9282131,
						"data": "0x0000000000000000000000000000000000000000000000000000000000000002",
						"index": 7,
						"topics": [
							"0xa65fb05c5808f5f389d72edeaf719ce38f4cc55c1f69ca3cbfb31c21501caa07",
							"0xfada22a01fc6019b369081d169c7f38ec6c9e2c67f065667d7be1b942a641e20"
						],
						"transactionHash": "0x34626a5fa2d1cad1b25b17c18bceab5ca632b72dab842e8a925ddfd25f55d83b",
						"transactionIndex": 1
					},
					{
						"address": "0xdb72998F9FfEc87e51158E81a8FD49627EB412E8",
						"blockHash": "0xacfde84d68719c5ae11ff481d3135634f36e11d96692df28e8cab9f597f4041c",
						"blockNumber": 9282131,
						"data": "0x",
						"index": 8,
						"topics": [
							"0x8be0079c531659141344cd1fd0a4f28419497f9722a3daafe3b4186f6b6457e0",
							"0x0000000000000000000000000000000000000000000000000000000000000000",
							"0x0000000000000000000000001081b5aa9d9d4862a3da4d469433fb36ed80fa2a"
						],
						"transactionHash": "0x34626a5fa2d1cad1b25b17c18bceab5ca632b72dab842e8a925ddfd25f55d83b",
						"transactionIndex": 1
					},
					{
						"address": "0x1081B5AA9D9d4862A3dA4d469433FB36Ed80FA2A",
						"blockHash": "0xacfde84d68719c5ae11ff481d3135634f36e11d96692df28e8cab9f597f4041c",
						"blockNumber": 9282131,
						"data": "0x000000000000000000000000db72998f9ffec87e51158e81a8fd49627eb412e8",
						"index": 9,
						"topics": [
							"0x4db17dd5e4732fb6da34a148104a592783ca119a1e7bb8829eba6cbadef0b511"
						],
						"transactionHash": "0x34626a5fa2d1cad1b25b17c18bceab5ca632b72dab842e8a925ddfd25f55d83b",
						"transactionIndex": 1
					},
					{
						"address": "0x1081B5AA9D9d4862A3dA4d469433FB36Ed80FA2A",
						"blockHash": "0xacfde84d68719c5ae11ff481d3135634f36e11d96692df28e8cab9f597f4041c",
						"blockNumber": 9282131,
						"data": "0x",
						"index": 10,
						"topics": [
							"0x6895c13664aa4f67288b25d7a21d7aaa34916e355fb9b6fae0a139a9085becb8",
							"0x000000000000000000000000ef1be3c049809cace5bc203bbe4ec1ab284bf75c"
						],
						"transactionHash": "0x34626a5fa2d1cad1b25b17c18bceab5ca632b72dab842e8a925ddfd25f55d83b",
						"transactionIndex": 1
					},
					{
						"address": "0xEf1Be3C049809caCe5Bc203BBe4Ec1Ab284bF75c",
						"blockHash": "0xacfde84d68719c5ae11ff481d3135634f36e11d96692df28e8cab9f597f4041c",
						"blockNumber": 9282131,
						"data": "0x0000000000000000000000000000000000000000000000000000000000000003",
						"index": 11,
						"topics": [
							"0xa65fb05c5808f5f389d72edeaf719ce38f4cc55c1f69ca3cbfb31c21501caa07",
							"0xfada22a01fc6019b369081d169c7f38ec6c9e2c67f065667d7be1b942a641e20"
						],
						"transactionHash": "0x34626a5fa2d1cad1b25b17c18bceab5ca632b72dab842e8a925ddfd25f55d83b",
						"transactionIndex": 1
					},
					{
						"address": "0x1081B5AA9D9d4862A3dA4d469433FB36Ed80FA2A",
						"blockHash": "0xacfde84d68719c5ae11ff481d3135634f36e11d96692df28e8cab9f597f4041c",
						"blockNumber": 9282131,
						"data": "0x000000000000000000000000662b84fb924bf127804edc6d1722721dea01dd43",
						"index": 12,
						"topics": [
							"0x4db17dd5e4732fb6da34a148104a592783ca119a1e7bb8829eba6cbadef0b511"
						],
						"transactionHash": "0x34626a5fa2d1cad1b25b17c18bceab5ca632b72dab842e8a925ddfd25f55d83b",
						"transactionIndex": 1
					},
					{
						"address": "0x1081B5AA9D9d4862A3dA4d469433FB36Ed80FA2A",
						"blockHash": "0xacfde84d68719c5ae11ff481d3135634f36e11d96692df28e8cab9f597f4041c",
						"blockNumber": 9282131,
						"data": "0x",
						"index": 13,
						"topics": [
							"0x6895c13664aa4f67288b25d7a21d7aaa34916e355fb9b6fae0a139a9085becb8",
							"0x000000000000000000000000ef1be3c049809cace5bc203bbe4ec1ab284bf75c"
						],
						"transactionHash": "0x34626a5fa2d1cad1b25b17c18bceab5ca632b72dab842e8a925ddfd25f55d83b",
						"transactionIndex": 1
					},
					{
						"address": "0xEf1Be3C049809caCe5Bc203BBe4Ec1Ab284bF75c",
						"blockHash": "0xacfde84d68719c5ae11ff481d3135634f36e11d96692df28e8cab9f597f4041c",
						"blockNumber": 9282131,
						"data": "0x0000000000000000000000000000000000000000000000000000000000000004",
						"index": 14,
						"topics": [
							"0xa65fb05c5808f5f389d72edeaf719ce38f4cc55c1f69ca3cbfb31c21501caa07",
							"0xfada22a01fc6019b369081d169c7f38ec6c9e2c67f065667d7be1b942a641e20"
						],
						"transactionHash": "0x34626a5fa2d1cad1b25b17c18bceab5ca632b72dab842e8a925ddfd25f55d83b",
						"transactionIndex": 1
					},
					{
						"address": "0x1081B5AA9D9d4862A3dA4d469433FB36Ed80FA2A",
						"blockHash": "0xacfde84d68719c5ae11ff481d3135634f36e11d96692df28e8cab9f597f4041c",
						"blockNumber": 9282131,
						"data": "0x000000000000000000000000208bb810b913b647b36967ee764b3da50fb7ad33",
						"index": 15,
						"topics": [
							"0x4db17dd5e4732fb6da34a148104a592783ca119a1e7bb8829eba6cbadef0b511"
						],
						"transactionHash": "0x34626a5fa2d1cad1b25b17c18bceab5ca632b72dab842e8a925ddfd25f55d83b",
						"transactionIndex": 1
					},
					{
						"address": "0x1081B5AA9D9d4862A3dA4d469433FB36Ed80FA2A",
						"blockHash": "0xacfde84d68719c5ae11ff481d3135634f36e11d96692df28e8cab9f597f4041c",
						"blockNumber": 9282131,
						"data": "0x",
						"index": 16,
						"topics": [
							"0x6895c13664aa4f67288b25d7a21d7aaa34916e355fb9b6fae0a139a9085becb8",
							"0x000000000000000000000000ef1be3c049809cace5bc203bbe4ec1ab284bf75c"
						],
						"transactionHash": "0x34626a5fa2d1cad1b25b17c18bceab5ca632b72dab842e8a925ddfd25f55d83b",
						"transactionIndex": 1
					},
					{
						"address": "0xEf1Be3C049809caCe5Bc203BBe4Ec1Ab284bF75c",
						"blockHash": "0xacfde84d68719c5ae11ff481d3135634f36e11d96692df28e8cab9f597f4041c",
						"blockNumber": 9282131,
						"data": "0x0000000000000000000000000000000000000000000000000000000000000005",
						"index": 17,
						"topics": [
							"0xa65fb05c5808f5f389d72edeaf719ce38f4cc55c1f69ca3cbfb31c21501caa07",
							"0xfada22a01fc6019b369081d169c7f38ec6c9e2c67f065667d7be1b942a641e20"
						],
						"transactionHash": "0x34626a5fa2d1cad1b25b17c18bceab5ca632b72dab842e8a925ddfd25f55d83b",
						"transactionIndex": 1
					},
					{
						"address": "0x1081B5AA9D9d4862A3dA4d469433FB36Ed80FA2A",
						"blockHash": "0xacfde84d68719c5ae11ff481d3135634f36e11d96692df28e8cab9f597f4041c",
						"blockNumber": 9282131,
						"data": "0x000000000000000000000000bc7b4588af3ded562f8fa7b9dc299055d51e9159",
						"index": 18,
						"topics": [
							"0x4db17dd5e4732fb6da34a148104a592783ca119a1e7bb8829eba6cbadef0b511"
						],
						"transactionHash": "0x34626a5fa2d1cad1b25b17c18bceab5ca632b72dab842e8a925ddfd25f55d83b",
						"transactionIndex": 1
					},
					{
						"address": "0x1081B5AA9D9d4862A3dA4d469433FB36Ed80FA2A",
						"blockHash": "0xacfde84d68719c5ae11ff481d3135634f36e11d96692df28e8cab9f597f4041c",
						"blockNumber": 9282131,
						"data": "0x",
						"index": 19,
						"topics": [
							"0x6895c13664aa4f67288b25d7a21d7aaa34916e355fb9b6fae0a139a9085becb8",
							"0x000000000000000000000000ef1be3c049809cace5bc203bbe4ec1ab284bf75c"
						],
						"transactionHash": "0x34626a5fa2d1cad1b25b17c18bceab5ca632b72dab842e8a925ddfd25f55d83b",
						"transactionIndex": 1
					},
					{
						"address": "0xEf1Be3C049809caCe5Bc203BBe4Ec1Ab284bF75c",
						"blockHash": "0xacfde84d68719c5ae11ff481d3135634f36e11d96692df28e8cab9f597f4041c",
						"blockNumber": 9282131,
						"data": "0x0000000000000000000000000000000000000000000000000000000000000006",
						"index": 20,
						"topics": [
							"0xa65fb05c5808f5f389d72edeaf719ce38f4cc55c1f69ca3cbfb31c21501caa07",
							"0xfada22a01fc6019b369081d169c7f38ec6c9e2c67f065667d7be1b942a641e20"
						],
						"transactionHash": "0x34626a5fa2d1cad1b25b17c18bceab5ca632b72dab842e8a925ddfd25f55d83b",
						"transactionIndex": 1
					},
					{
						"address": "0x1081B5AA9D9d4862A3dA4d469433FB36Ed80FA2A",
						"blockHash": "0xacfde84d68719c5ae11ff481d3135634f36e11d96692df28e8cab9f597f4041c",
						"blockNumber": 9282131,
						"data": "0x000000000000000000000000f5b5e211b5943bee27baa1d6ac46139f13850270",
						"index": 21,
						"topics": [
							"0x4db17dd5e4732fb6da34a148104a592783ca119a1e7bb8829eba6cbadef0b511"
						],
						"transactionHash": "0x34626a5fa2d1cad1b25b17c18bceab5ca632b72dab842e8a925ddfd25f55d83b",
						"transactionIndex": 1
					},
					{
						"address": "0x1081B5AA9D9d4862A3dA4d469433FB36Ed80FA2A",
						"blockHash": "0xacfde84d68719c5ae11ff481d3135634f36e11d96692df28e8cab9f597f4041c",
						"blockNumber": 9282131,
						"data": "0x",
						"index": 22,
						"topics": [
							"0x6895c13664aa4f67288b25d7a21d7aaa34916e355fb9b6fae0a139a9085becb8",
							"0x000000000000000000000000ef1be3c049809cace5bc203bbe4ec1ab284bf75c"
						],
						"transactionHash": "0x34626a5fa2d1cad1b25b17c18bceab5ca632b72dab842e8a925ddfd25f55d83b",
						"transactionIndex": 1
					},
					{
						"address": "0xEf1Be3C049809caCe5Bc203BBe4Ec1Ab284bF75c",
						"blockHash": "0xacfde84d68719c5ae11ff481d3135634f36e11d96692df28e8cab9f597f4041c",
						"blockNumber": 9282131,
						"data": "0x0000000000000000000000000000000000000000000000000000000000000007",
						"index": 23,
						"topics": [
							"0xa65fb05c5808f5f389d72edeaf719ce38f4cc55c1f69ca3cbfb31c21501caa07",
							"0xfada22a01fc6019b369081d169c7f38ec6c9e2c67f065667d7be1b942a641e20"
						],
						"transactionHash": "0x34626a5fa2d1cad1b25b17c18bceab5ca632b72dab842e8a925ddfd25f55d83b",
						"transactionIndex": 1
					}
				],
				"logsBloom": "0x00000000080010000008000000080000000000080008000000800010004000000062008000000100000000000040000000000000000000000010000000000000000000000000200400010000820000000001000000000000000200000000000000000000020000000000000000000800000000100020000000000000000000400001000000000000000100000000000000000000000000000000804000000000004000080210040008000000000000020200000000000080000000000006000000000000000000200000000008000000000000008000000000000000000020000000000000000004000000000000000200000000000000000000000000040000",
				"status": 1,
				"to": "0xB5E96127D417b1B3ef8438496a38A143167209c7"
			},
			"metadata": "{\"compiler\":{\"version\":\"0.8.23+commit.f704f362\"},\"language\":\"Solidity\",\"output\":{\"abi\":[{\"inputs\":[],\"stateMutability\":\"nonpayable\",\"type\":\"constructor\"},{\"inputs\":[],\"type\":\"error\",\"name\":\"PERMISSION_ID_OUT_OF_BOUNDS\"},{\"inputs\":[],\"type\":\"error\",\"name\":\"UNAUTHORIZED\"},{\"inputs\":[{\"internalType\":\"address\",\"name\":\"operator\",\"type\":\"address\",\"indexed\":true},{\"internalType\":\"address\",\"name\":\"account\",\"type\":\"address\",\"indexed\":true},{\"internalType\":\"uint256\",\"name\":\"projectId\",\"type\":\"uint256\",\"indexed\":true},{\"internalType\":\"uint256[]\",\"name\":\"permissionIds\",\"type\":\"uint256[]\",\"indexed\":false},{\"internalType\":\"uint256\",\"name\":\"packed\",\"type\":\"uint256\",\"indexed\":false},{\"internalType\":\"address\",\"name\":\"caller\",\"type\":\"address\",\"indexed\":false}],\"type\":\"event\",\"name\":\"OperatorPermissionsSet\",\"anonymous\":false},{\"inputs\":[],\"stateMutability\":\"view\",\"type\":\"function\",\"name\":\"PERMISSIONS\",\"outputs\":[{\"internalType\":\"contract IJBPermissions\",\"name\":\"\",\"type\":\"address\"}]},{\"inputs\":[{\"internalType\":\"address\",\"name\":\"operator\",\"type\":\"address\"},{\"internalType\":\"address\",\"name\":\"account\",\"type\":\"address\"},{\"internalType\":\"uint256\",\"name\":\"projectId\",\"type\":\"uint256\"},{\"internalType\":\"uint256\",\"name\":\"permissionId\",\"type\":\"uint256\"}],\"stateMutability\":\"view\",\"type\":\"function\",\"name\":\"hasPermission\",\"outputs\":[{\"internalType\":\"bool\",\"name\":\"\",\"type\":\"bool\"}]},{\"inputs\":[{\"internalType\":\"address\",\"name\":\"operator\",\"type\":\"address\"},{\"internalType\":\"address\",\"name\":\"account\",\"type\":\"address\"},{\"internalType\":\"uint256\",\"name\":\"projectId\",\"type\":\"uint256\"},{\"internalType\":\"uint256[]\",\"name\":\"permissionIds\",\"type\":\"uint256[]\"}],\"stateMutability\":\"view\",\"type\":\"function\",\"name\":\"hasPermissions\",\"outputs\":[{\"internalType\":\"bool\",\"name\":\"\",\"type\":\"bool\"}]},{\"inputs\":[{\"internalType\":\"address\",\"name\":\"operator\",\"type\":\"address\"},{\"internalType\":\"address\",\"name\":\"account\",\"type\":\"address\"},{\"internalType\":\"uint256\",\"name\":\"projectId\",\"type\":\"uint256\"}],\"stateMutability\":\"view\",\"type\":\"function\",\"name\":\"permissionsOf\",\"outputs\":[{\"internalType\":\"uint256\",\"name\":\"\",\"type\":\"uint256\"}]},{\"inputs\":[{\"internalType\":\"address\",\"name\":\"account\",\"type\":\"address\"},{\"internalType\":\"struct JBPermissionsData\",\"name\":\"permissionsData\",\"type\":\"tuple\",\"components\":[{\"internalType\":\"address\",\"name\":\"operator\",\"type\":\"address\"},{\"internalType\":\"uint256\",\"name\":\"projectId\",\"type\":\"uint256\"},{\"internalType\":\"uint256[]\",\"name\":\"permissionIds\",\"type\":\"uint256[]\"}]}],\"stateMutability\":\"nonpayable\",\"type\":\"function\",\"name\":\"setPermissionsFor\"}],\"devdoc\":{\"kind\":\"dev\",\"methods\":{\"hasPermission(address,address,uint256,uint256)\":{\"params\":{\"account\":\"The account being operated on behalf of.\",\"operator\":\"The operator to check.\",\"permissionId\":\"The permission ID to check for.\",\"projectId\":\"The project ID that the operator has permission to operate under. 0 represents all projects.\"},\"returns\":{\"_0\":\"A flag indicating whether the operator has the specified permission.\"}},\"hasPermissions(address,address,uint256,uint256[])\":{\"params\":{\"account\":\"The account being operated on behalf of.\",\"operator\":\"The operator to check.\",\"permissionIds\":\"An array of permission IDs to check for.\",\"projectId\":\"The project ID that the operator has permission to operate under. 0 represents all projects.\"},\"returns\":{\"_0\":\"A flag indicating whether the operator has all specified permissions.\"}},\"setPermissionsFor(address,(address,uint256,uint256[]))\":{\"details\":\"Only an address can give permissions to or revoke permissions from its operators.\",\"params\":{\"account\":\"The account setting its operators' permissions.\",\"permissionsData\":\"The data which specifies the permissions the operator is being given.\"}}},\"version\":1},\"userdoc\":{\"kind\":\"user\",\"methods\":{\"PERMISSIONS()\":{\"notice\":\"A contract storing permissions.\"},\"hasPermission(address,address,uint256,uint256)\":{\"notice\":\"Check if an operator has a specific permission for a specific address and project ID.\"},\"hasPermissions(address,address,uint256,uint256[])\":{\"notice\":\"Check if an operator has all of the specified permissions for a specific address and project ID.\"},\"permissionsOf(address,address,uint256)\":{\"notice\":\"The permissions that an operator has been given by an account for a specific project.\"},\"setPermissionsFor(address,(address,uint256,uint256[]))\":{\"notice\":\"Sets permissions for an operator.\"}},\"version\":1}},\"settings\":{\"remappings\":[\"@bananapus/=node_modules/@bananapus/\",\"@chainlink/=node_modules/@chainlink/\",\"@eth-optimism/=node_modules/@eth-optimism/\",\"@gnosis.pm/=node_modules/@gnosis.pm/\",\"@openzeppelin/=node_modules/@openzeppelin/\",\"@prb/=node_modules/@prb/\",\"@sphinx-labs/contracts/=lib/sphinx/packages/contracts/contracts/foundry/\",\"@uniswap/=node_modules/@uniswap/\",\"ds-test/=lib/forge-std/lib/ds-test/src/\",\"forge-std/=lib/forge-std/src/\",\"hardhat/=node_modules/hardhat/\",\"solmate/=node_modules/solmate/\",\"sphinx-forge-std/=node_modules/sphinx-forge-std/\",\"sphinx-solmate/=node_modules/sphinx-solmate/\",\"sphinx/=lib/sphinx/\"],\"optimizer\":{\"enabled\":true,\"runs\":200},\"metadata\":{\"bytecodeHash\":\"ipfs\"},\"compilationTarget\":{\"src/JBPermissions.sol\":\"JBPermissions\"},\"evmVersion\":\"paris\",\"libraries\":{}},\"sources\":{\"node_modules/@bananapus/permission-ids/src/JBPermissionIds.sol\":{\"keccak256\":\"0xcc68735b4c801e953cb7962e069933f369515e7a4a09aea5b2170a268125a898\",\"urls\":[\"bzz-raw://e51f839d96be200efeca40ca4fb1d5b6096303564cdde5cf67aecf58e2d36db3\",\"dweb:/ipfs/QmRnJ5s974eUeyvTuLUpt4TK8t5TjVmz7DyDSAKxgYTnA5\"],\"license\":\"UNLICENSED\"},\"node_modules/@openzeppelin/contracts/utils/Context.sol\":{\"keccak256\":\"0x493033a8d1b176a037b2cc6a04dad01a5c157722049bbecf632ca876224dd4b2\",\"urls\":[\"bzz-raw://6a708e8a5bdb1011c2c381c9a5cfd8a9a956d7d0a9dc1bd8bcdaf52f76ef2f12\",\"dweb:/ipfs/Qmax9WHBnVsZP46ZxEMNRQpLQnrdE4dK8LehML1Py8FowF\"],\"license\":\"MIT\"},\"src/JBPermissions.sol\":{\"keccak256\":\"0x5d7cbebd7ea868bb17b2df9bd68ebc7a6fd5299c75601fe755b53f14c368d963\",\"urls\":[\"bzz-raw://1812675baaafeeb5074c7ddc6f9b5c5344fe5a213534f1a53f92d664ab0e2d02\",\"dweb:/ipfs/QmY9TC8njokB9gfPPEvDbTntNSd59K3hgKQia4oeJurNwr\"],\"license\":\"MIT\"},\"src/abstract/JBPermissioned.sol\":{\"keccak256\":\"0xbe593894bc9893f7fe5c96f14c013add8f50df762538e3d7cb96ed39ad195664\",\"urls\":[\"bzz-raw://efb81264b24776e6be537680abaeb8c4893e70d8a62231748d860e25a7c2340d\",\"dweb:/ipfs/QmacN9gFgPqkhTEwRD7Zben3whq9DRr2ZkSmScGvioTXXR\"],\"license\":\"MIT\"},\"src/interfaces/IJBPermissioned.sol\":{\"keccak256\":\"0x5b038d4dee116584e88b230920e56d48e135053e3f7e5642eaea14a775c1dad7\",\"urls\":[\"bzz-raw://19e43102f349fd4a1da1c0943ffb8f2950007fe4bb4bb7e8f74fc142575d091b\",\"dweb:/ipfs/QmXHAt4KzDTdDZgDDefEXH2WKi7NcfkJb9R7nxW5uDqsNp\"],\"license\":\"MIT\"},\"src/interfaces/IJBPermissions.sol\":{\"keccak256\":\"0x18870e500edf0fbadc353e273a5574701fb80466376b908c65e7cc3f11044d4d\",\"urls\":[\"bzz-raw://352a47c45853aec80e7acf0d286ade3106eb4cb456776b28a3c2f3f1091bed90\",\"dweb:/ipfs/QmQeYd3YbudYZy2hfbfht9kwhxhw4tuuLKMEYy9UY6dcSy\"],\"license\":\"MIT\"},\"src/structs/JBPermissionsData.sol\":{\"keccak256\":\"0x8f0f69a6ebf5f3704e3dfcb3712fb9d3f94ae7c1ab89bf3e37bad42a3e7a0487\",\"urls\":[\"bzz-raw://57b0c5e52843e2217082889ed47b4da3943e0da4590d5768dcebfe3edad4a6b8\",\"dweb:/ipfs/QmRz48vuWLw81kUP836rh1qzqWiJFGbksgRUA9xGEDNKTY\"],\"license\":\"MIT\"}},\"version\":1}",
			"args": [],
			"bytecode": "0x60a060405234801561001057600080fd5b50306080526080516107b361003d6000396000818160ef01528181610358015261040101526107b36000f3fe608060405234801561001057600080fd5b50600436106100575760003560e01c806305d2912e1461005c5780630f5932f01461007157806380deb23014610099578063c161c93f146100d7578063f434c914146100ea575b600080fd5b61006f61006a366004610512565b610129565b005b61008461007f366004610567565b610204565b60405190151581526020015b60405180910390f35b6100c96100a7366004610605565b6000602081815293815260408082208552928152828120909352825290205481565b604051908152602001610090565b6100846100e5366004610641565b6102ad565b6101117f000000000000000000000000000000000000000000000000000000000000000081565b6040516001600160a01b039091168152602001610090565b610139828260200135600161030e565b600061015061014b6040840184610683565b610492565b90508060008061016360208601866106d4565b6001600160a01b039081168252602080830193909352604091820160009081209188168082529184528281208785018035808452919095529290209390935591906101ae90856106d4565b6001600160a01b03167ff8cdf10a0ce6189c6d069e97320ef146e2bcbd32d6c0b86dcbfbf3bd8578fa706101e56040870187610683565b86336040516101f794939291906106f6565b60405180910390a4505050565b60008181805b8281101561029c5785858281811061022457610224610745565b90506020020135915060ff82111561024f576040516334f9a01d60e21b815260040160405180910390fd5b6001600160a01b03898116600090815260208181526040808320938c1683529281528282208a8352905290812054831c600116900361029457600093505050506102a4565b60010161020a565b506001925050505b95945050505050565b600060ff8211156102d1576040516334f9a01d60e21b815260040160405180910390fd5b506001600160a01b03808516600090815260208181526040808320938716835292815282822085835290522054600190821c811614949350505050565b336001600160a01b03841681148015906103c5575060405163c161c93f60e01b81526001600160a01b038281166004830152858116602483015260448201859052606482018490527f0000000000000000000000000000000000000000000000000000000000000000169063c161c93f90608401602060405180830381865afa15801561039f573d6000803e3d6000fd5b505050506040513d601f19601f820116820180604052508101906103c3919061075b565b155b801561046e575060405163c161c93f60e01b81526001600160a01b038281166004830152858116602483015260006044830152606482018490527f0000000000000000000000000000000000000000000000000000000000000000169063c161c93f90608401602060405180830381865afa158015610448573d6000803e3d6000fd5b505050506040513d601f19601f8201168201806040525081019061046c919061075b565b155b1561048c5760405163075fd2b160e01b815260040160405180910390fd5b50505050565b60008181805b828110156104ed578585828181106104b2576104b2610745565b90506020020135915060ff8211156104dd576040516334f9a01d60e21b815260040160405180910390fd5b600180831b949094179301610498565b50505092915050565b80356001600160a01b038116811461050d57600080fd5b919050565b6000806040838503121561052557600080fd5b61052e836104f6565b9150602083013567ffffffffffffffff81111561054a57600080fd5b83016060818603121561055c57600080fd5b809150509250929050565b60008060008060006080868803121561057f57600080fd5b610588866104f6565b9450610596602087016104f6565b935060408601359250606086013567ffffffffffffffff808211156105ba57600080fd5b818801915088601f8301126105ce57600080fd5b8135818111156105dd57600080fd5b8960208260051b85010111156105f257600080fd5b9699959850939650602001949392505050565b60008060006060848603121561061a57600080fd5b610623846104f6565b9250610631602085016104f6565b9150604084013590509250925092565b6000806000806080858703121561065757600080fd5b610660856104f6565b935061066e602086016104f6565b93969395505050506040820135916060013590565b6000808335601e1984360301811261069a57600080fd5b83018035915067ffffffffffffffff8211156106b557600080fd5b6020019150600581901b36038213156106cd57600080fd5b9250929050565b6000602082840312156106e657600080fd5b6106ef826104f6565b9392505050565b6060808252810184905260006001600160fb1b0385111561071657600080fd5b8460051b808760808501376020830194909452506001600160a01b039190911660408201520160800192915050565b634e487b7160e01b600052603260045260246000fd5b60006020828403121561076d57600080fd5b815180151581146106ef57600080fdfea264697066735822122020dc514244f7e02b9f3867b389de13e1f7f5cdf7fd0337585222f2706e6c8a0964736f6c63430008170033",
			"deployedBytecode": "0x608060405234801561001057600080fd5b50600436106100575760003560e01c806305d2912e1461005c5780630f5932f01461007157806380deb23014610099578063c161c93f146100d7578063f434c914146100ea575b600080fd5b61006f61006a366004610512565b610129565b005b61008461007f366004610567565b610204565b60405190151581526020015b60405180910390f35b6100c96100a7366004610605565b6000602081815293815260408082208552928152828120909352825290205481565b604051908152602001610090565b6100846100e5366004610641565b6102ad565b6101117f000000000000000000000000625e7bce20bce80d426384c38831f92d453fbf2981565b6040516001600160a01b039091168152602001610090565b610139828260200135600161030e565b600061015061014b6040840184610683565b610492565b90508060008061016360208601866106d4565b6001600160a01b039081168252602080830193909352604091820160009081209188168082529184528281208785018035808452919095529290209390935591906101ae90856106d4565b6001600160a01b03167ff8cdf10a0ce6189c6d069e97320ef146e2bcbd32d6c0b86dcbfbf3bd8578fa706101e56040870187610683565b86336040516101f794939291906106f6565b60405180910390a4505050565b60008181805b8281101561029c5785858281811061022457610224610745565b90506020020135915060ff82111561024f576040516334f9a01d60e21b815260040160405180910390fd5b6001600160a01b03898116600090815260208181526040808320938c1683529281528282208a8352905290812054831c600116900361029457600093505050506102a4565b60010161020a565b506001925050505b95945050505050565b600060ff8211156102d1576040516334f9a01d60e21b815260040160405180910390fd5b506001600160a01b03808516600090815260208181526040808320938716835292815282822085835290522054600190821c811614949350505050565b336001600160a01b03841681148015906103c5575060405163c161c93f60e01b81526001600160a01b038281166004830152858116602483015260448201859052606482018490527f000000000000000000000000625e7bce20bce80d426384c38831f92d453fbf29169063c161c93f90608401602060405180830381865afa15801561039f573d6000803e3d6000fd5b505050506040513d601f19601f820116820180604052508101906103c3919061075b565b155b801561046e575060405163c161c93f60e01b81526001600160a01b038281166004830152858116602483015260006044830152606482018490527f000000000000000000000000625e7bce20bce80d426384c38831f92d453fbf29169063c161c93f90608401602060405180830381865afa158015610448573d6000803e3d6000fd5b505050506040513d601f19601f8201168201806040525081019061046c919061075b565b155b1561048c5760405163075fd2b160e01b815260040160405180910390fd5b50505050565b60008181805b828110156104ed578585828181106104b2576104b2610745565b90506020020135915060ff8211156104dd576040516334f9a01d60e21b815260040160405180910390fd5b600180831b949094179301610498565b50505092915050565b80356001600160a01b038116811461050d57600080fd5b919050565b6000806040838503121561052557600080fd5b61052e836104f6565b9150602083013567ffffffffffffffff81111561054a57600080fd5b83016060818603121561055c57600080fd5b809150509250929050565b60008060008060006080868803121561057f57600080fd5b610588866104f6565b9450610596602087016104f6565b935060408601359250606086013567ffffffffffffffff808211156105ba57600080fd5b818801915088601f8301126105ce57600080fd5b8135818111156105dd57600080fd5b8960208260051b85010111156105f257600080fd5b9699959850939650602001949392505050565b60008060006060848603121561061a57600080fd5b610623846104f6565b9250610631602085016104f6565b9150604084013590509250925092565b6000806000806080858703121561065757600080fd5b610660856104f6565b935061066e602086016104f6565b93969395505050506040820135916060013590565b6000808335601e1984360301811261069a57600080fd5b83018035915067ffffffffffffffff8211156106b557600080fd5b6020019150600581901b36038213156106cd57600080fd5b9250929050565b6000602082840312156106e657600080fd5b6106ef826104f6565b9392505050565b6060808252810184905260006001600160fb1b0385111561071657600080fd5b8460051b808760808501376020830194909452506001600160a01b039190911660408201520160800192915050565b634e487b7160e01b600052603260045260246000fd5b60006020828403121561076d57600080fd5b815180151581146106ef57600080fdfea264697066735822122020dc514244f7e02b9f3867b389de13e1f7f5cdf7fd0337585222f2706e6c8a0964736f6c63430008170033",
			"devdoc": {
				"kind": "dev",
				"methods": {
					"hasPermission(address,address,uint256,uint256)": {
						"params": {
							"account": "The account being operated on behalf of.",
							"operator": "The operator to check.",
							"permissionId": "The permission ID to check for.",
							"projectId": "The project ID that the operator has permission to operate under. 0 represents all projects."
						},
						"returns": {
							"_0": "A flag indicating whether the operator has the specified permission."
						}
					},
					"hasPermissions(address,address,uint256,uint256[])": {
						"params": {
							"account": "The account being operated on behalf of.",
							"operator": "The operator to check.",
							"permissionIds": "An array of permission IDs to check for.",
							"projectId": "The project ID that the operator has permission to operate under. 0 represents all projects."
						},
						"returns": {
							"_0": "A flag indicating whether the operator has all specified permissions."
						}
					},
					"setPermissionsFor(address,(address,uint256,uint256[]))": {
						"details": "Only an address can give permissions to or revoke permissions from its operators.",
						"params": {
							"account": "The account setting its operators' permissions.",
							"permissionsData": "The data which specifies the permissions the operator is being given."
						}
					}
				},
				"version": 1
			},
			"userdoc": {
				"kind": "user",
				"methods": {
					"PERMISSIONS()": {
						"notice": "A contract storing permissions."
					},
					"hasPermission(address,address,uint256,uint256)": {
						"notice": "Check if an operator has a specific permission for a specific address and project ID."
					},
					"hasPermissions(address,address,uint256,uint256[])": {
						"notice": "Check if an operator has all of the specified permissions for a specific address and project ID."
					},
					"permissionsOf(address,address,uint256)": {
						"notice": "The permissions that an operator has been given by an account for a specific project."
					},
					"setPermissionsFor(address,(address,uint256,uint256[]))": {
						"notice": "Sets permissions for an operator."
					}
				},
				"version": 1
			},
			"gitCommit": "23e7dfead2a66e76f5e7c501a807ff78b09b92c3",
			"sourceName": "src/JBPermissions.sol",
			"chainId": "11155420",
			"linkReferences": {},
			"deployedLinkReferences": {}
		},
		{
			"_format": "sphinx-sol-ct-artifact-1",
			"merkleRoot": "0x9e0e602421b8af18b231044c4a9fcd3210b88a991260bd2d68511776273418b9",
			"contractName": "JBPermissions",
			"address": "0xa1Ba58fcA530D0b011646167C9EB81F54d9C9dF6",
			"abi": [
				{
					"type": "constructor",
					"inputs": [],
					"stateMutability": "nonpayable"
				},
				{
					"type": "function",
					"name": "PERMISSIONS",
					"inputs": [],
					"outputs": [
						{
							"name": "",
							"type": "address",
							"internalType": "contract IJBPermissions"
						}
					],
					"stateMutability": "view"
				},
				{
					"type": "function",
					"name": "hasPermission",
					"inputs": [
						{
							"name": "operator",
							"type": "address",
							"internalType": "address"
						},
						{
							"name": "account",
							"type": "address",
							"internalType": "address"
						},
						{
							"name": "projectId",
							"type": "uint256",
							"internalType": "uint256"
						},
						{
							"name": "permissionId",
							"type": "uint256",
							"internalType": "uint256"
						}
					],
					"outputs": [
						{
							"name": "",
							"type": "bool",
							"internalType": "bool"
						}
					],
					"stateMutability": "view"
				},
				{
					"type": "function",
					"name": "hasPermissions",
					"inputs": [
						{
							"name": "operator",
							"type": "address",
							"internalType": "address"
						},
						{
							"name": "account",
							"type": "address",
							"internalType": "address"
						},
						{
							"name": "projectId",
							"type": "uint256",
							"internalType": "uint256"
						},
						{
							"name": "permissionIds",
							"type": "uint256[]",
							"internalType": "uint256[]"
						}
					],
					"outputs": [
						{
							"name": "",
							"type": "bool",
							"internalType": "bool"
						}
					],
					"stateMutability": "view"
				},
				{
					"type": "function",
					"name": "permissionsOf",
					"inputs": [
						{
							"name": "operator",
							"type": "address",
							"internalType": "address"
						},
						{
							"name": "account",
							"type": "address",
							"internalType": "address"
						},
						{
							"name": "projectId",
							"type": "uint256",
							"internalType": "uint256"
						}
					],
					"outputs": [
						{
							"name": "",
							"type": "uint256",
							"internalType": "uint256"
						}
					],
					"stateMutability": "view"
				},
				{
					"type": "function",
					"name": "setPermissionsFor",
					"inputs": [
						{
							"name": "account",
							"type": "address",
							"internalType": "address"
						},
						{
							"name": "permissionsData",
							"type": "tuple",
							"internalType": "struct JBPermissionsData",
							"components": [
								{
									"name": "operator",
									"type": "address",
									"internalType": "address"
								},
								{
									"name": "projectId",
									"type": "uint256",
									"internalType": "uint256"
								},
								{
									"name": "permissionIds",
									"type": "uint256[]",
									"internalType": "uint256[]"
								}
							]
						}
					],
					"outputs": [],
					"stateMutability": "nonpayable"
				},
				{
					"type": "event",
					"name": "OperatorPermissionsSet",
					"inputs": [
						{
							"name": "operator",
							"type": "address",
							"indexed": true,
							"internalType": "address"
						},
						{
							"name": "account",
							"type": "address",
							"indexed": true,
							"internalType": "address"
						},
						{
							"name": "projectId",
							"type": "uint256",
							"indexed": true,
							"internalType": "uint256"
						},
						{
							"name": "permissionIds",
							"type": "uint256[]",
							"indexed": false,
							"internalType": "uint256[]"
						},
						{
							"name": "packed",
							"type": "uint256",
							"indexed": false,
							"internalType": "uint256"
						},
						{
							"name": "caller",
							"type": "address",
							"indexed": false,
							"internalType": "address"
						}
					],
					"anonymous": false
				},
				{
					"type": "error",
					"name": "PERMISSION_ID_OUT_OF_BOUNDS",
					"inputs": []
				},
				{
					"type": "error",
					"name": "UNAUTHORIZED",
					"inputs": []
				}
			],
			"solcInputHash": "72b97eca88a7a2645b499cd15964090b",
			"receipt": {
				"blockHash": "0xcc2a85fda8205f721955f7c72da02947bb6e2f4c1afc30aead2baf048bac42e2",
				"blockNumber": 9543815,
				"contractAddress": null,
				"cumulativeGasUsed": "11113021",
				"from": "0xC034550B542b83BA1De312b21d1C94a9a52B1595",
				"gasPrice": "1000252",
				"gasUsed": "10921566",
				"hash": "0x91862cba30f76ca9ef4266125510978e4cd6d4123896f3952a72b9d16e83a442",
				"index": 3,
				"logs": [
					{
						"address": "0xB5E96127D417b1B3ef8438496a38A143167209c7",
						"blockHash": "0xcc2a85fda8205f721955f7c72da02947bb6e2f4c1afc30aead2baf048bac42e2",
						"blockNumber": 9543815,
						"data": "0x0000000000000000000000000000000000000000000000000000000000000000",
						"index": 3,
						"topics": [
							"0x572f161235911da04685a68c06adf558fc7e4a36909dca394650e0adc19cc93d",
							"0x000000000000000000000000c034550b542b83ba1de312b21d1c94a9a52b1595",
							"0x000000000000000000000000ef1be3c049809cace5bc203bbe4ec1ab284bf75c",
							"0x8a0e2e53ddf75f00435267186721ddedb1223ae80e0d6e8f53d65f03442f880c"
						],
						"transactionHash": "0x91862cba30f76ca9ef4266125510978e4cd6d4123896f3952a72b9d16e83a442",
						"transactionIndex": 3
					},
					{
						"address": "0x1081B5AA9D9d4862A3dA4d469433FB36Ed80FA2A",
						"blockHash": "0xcc2a85fda8205f721955f7c72da02947bb6e2f4c1afc30aead2baf048bac42e2",
						"blockNumber": 9543815,
						"data": "0x000000000000000000000000a1ba58fca530d0b011646167c9eb81f54d9c9df6",
						"index": 4,
						"topics": [
							"0x4db17dd5e4732fb6da34a148104a592783ca119a1e7bb8829eba6cbadef0b511"
						],
						"transactionHash": "0x91862cba30f76ca9ef4266125510978e4cd6d4123896f3952a72b9d16e83a442",
						"transactionIndex": 3
					},
					{
						"address": "0x1081B5AA9D9d4862A3dA4d469433FB36Ed80FA2A",
						"blockHash": "0xcc2a85fda8205f721955f7c72da02947bb6e2f4c1afc30aead2baf048bac42e2",
						"blockNumber": 9543815,
						"data": "0x",
						"index": 5,
						"topics": [
							"0x6895c13664aa4f67288b25d7a21d7aaa34916e355fb9b6fae0a139a9085becb8",
							"0x000000000000000000000000ef1be3c049809cace5bc203bbe4ec1ab284bf75c"
						],
						"transactionHash": "0x91862cba30f76ca9ef4266125510978e4cd6d4123896f3952a72b9d16e83a442",
						"transactionIndex": 3
					},
					{
						"address": "0xEf1Be3C049809caCe5Bc203BBe4Ec1Ab284bF75c",
						"blockHash": "0xcc2a85fda8205f721955f7c72da02947bb6e2f4c1afc30aead2baf048bac42e2",
						"blockNumber": 9543815,
						"data": "0x0000000000000000000000000000000000000000000000000000000000000001",
						"index": 6,
						"topics": [
							"0xa65fb05c5808f5f389d72edeaf719ce38f4cc55c1f69ca3cbfb31c21501caa07",
							"0x9e0e602421b8af18b231044c4a9fcd3210b88a991260bd2d68511776273418b9"
						],
						"transactionHash": "0x91862cba30f76ca9ef4266125510978e4cd6d4123896f3952a72b9d16e83a442",
						"transactionIndex": 3
					},
					{
						"address": "0x45452B26fe78D2b83247279F87c847F4F4A8FCEb",
						"blockHash": "0xcc2a85fda8205f721955f7c72da02947bb6e2f4c1afc30aead2baf048bac42e2",
						"blockNumber": 9543815,
						"data": "0x",
						"index": 7,
						"topics": [
							"0x8be0079c531659141344cd1fd0a4f28419497f9722a3daafe3b4186f6b6457e0",
							"0x0000000000000000000000000000000000000000000000000000000000000000",
							"0x000000000000000000000000823b92d6a4b2aed4b15675c7917c9f922ea8adad"
						],
						"transactionHash": "0x91862cba30f76ca9ef4266125510978e4cd6d4123896f3952a72b9d16e83a442",
						"transactionIndex": 3
					},
					{
						"address": "0x1081B5AA9D9d4862A3dA4d469433FB36Ed80FA2A",
						"blockHash": "0xcc2a85fda8205f721955f7c72da02947bb6e2f4c1afc30aead2baf048bac42e2",
						"blockNumber": 9543815,
						"data": "0x00000000000000000000000045452b26fe78d2b83247279f87c847f4f4a8fceb",
						"index": 8,
						"topics": [
							"0x4db17dd5e4732fb6da34a148104a592783ca119a1e7bb8829eba6cbadef0b511"
						],
						"transactionHash": "0x91862cba30f76ca9ef4266125510978e4cd6d4123896f3952a72b9d16e83a442",
						"transactionIndex": 3
					},
					{
						"address": "0x1081B5AA9D9d4862A3dA4d469433FB36Ed80FA2A",
						"blockHash": "0xcc2a85fda8205f721955f7c72da02947bb6e2f4c1afc30aead2baf048bac42e2",
						"blockNumber": 9543815,
						"data": "0x",
						"index": 9,
						"topics": [
							"0x6895c13664aa4f67288b25d7a21d7aaa34916e355fb9b6fae0a139a9085becb8",
							"0x000000000000000000000000ef1be3c049809cace5bc203bbe4ec1ab284bf75c"
						],
						"transactionHash": "0x91862cba30f76ca9ef4266125510978e4cd6d4123896f3952a72b9d16e83a442",
						"transactionIndex": 3
					},
					{
						"address": "0xEf1Be3C049809caCe5Bc203BBe4Ec1Ab284bF75c",
						"blockHash": "0xcc2a85fda8205f721955f7c72da02947bb6e2f4c1afc30aead2baf048bac42e2",
						"blockNumber": 9543815,
						"data": "0x0000000000000000000000000000000000000000000000000000000000000002",
						"index": 10,
						"topics": [
							"0xa65fb05c5808f5f389d72edeaf719ce38f4cc55c1f69ca3cbfb31c21501caa07",
							"0x9e0e602421b8af18b231044c4a9fcd3210b88a991260bd2d68511776273418b9"
						],
						"transactionHash": "0x91862cba30f76ca9ef4266125510978e4cd6d4123896f3952a72b9d16e83a442",
						"transactionIndex": 3
					},
					{
						"address": "0x6A6988E79a621Fc7Ea74D67a31E9cefCcC98e949",
						"blockHash": "0xcc2a85fda8205f721955f7c72da02947bb6e2f4c1afc30aead2baf048bac42e2",
						"blockNumber": 9543815,
						"data": "0x",
						"index": 11,
						"topics": [
							"0x8be0079c531659141344cd1fd0a4f28419497f9722a3daafe3b4186f6b6457e0",
							"0x0000000000000000000000000000000000000000000000000000000000000000",
							"0x0000000000000000000000001081b5aa9d9d4862a3da4d469433fb36ed80fa2a"
						],
						"transactionHash": "0x91862cba30f76ca9ef4266125510978e4cd6d4123896f3952a72b9d16e83a442",
						"transactionIndex": 3
					},
					{
						"address": "0x1081B5AA9D9d4862A3dA4d469433FB36Ed80FA2A",
						"blockHash": "0xcc2a85fda8205f721955f7c72da02947bb6e2f4c1afc30aead2baf048bac42e2",
						"blockNumber": 9543815,
						"data": "0x0000000000000000000000006a6988e79a621fc7ea74d67a31e9cefccc98e949",
						"index": 12,
						"topics": [
							"0x4db17dd5e4732fb6da34a148104a592783ca119a1e7bb8829eba6cbadef0b511"
						],
						"transactionHash": "0x91862cba30f76ca9ef4266125510978e4cd6d4123896f3952a72b9d16e83a442",
						"transactionIndex": 3
					},
					{
						"address": "0x1081B5AA9D9d4862A3dA4d469433FB36Ed80FA2A",
						"blockHash": "0xcc2a85fda8205f721955f7c72da02947bb6e2f4c1afc30aead2baf048bac42e2",
						"blockNumber": 9543815,
						"data": "0x",
						"index": 13,
						"topics": [
							"0x6895c13664aa4f67288b25d7a21d7aaa34916e355fb9b6fae0a139a9085becb8",
							"0x000000000000000000000000ef1be3c049809cace5bc203bbe4ec1ab284bf75c"
						],
						"transactionHash": "0x91862cba30f76ca9ef4266125510978e4cd6d4123896f3952a72b9d16e83a442",
						"transactionIndex": 3
					},
					{
						"address": "0xEf1Be3C049809caCe5Bc203BBe4Ec1Ab284bF75c",
						"blockHash": "0xcc2a85fda8205f721955f7c72da02947bb6e2f4c1afc30aead2baf048bac42e2",
						"blockNumber": 9543815,
						"data": "0x0000000000000000000000000000000000000000000000000000000000000003",
						"index": 14,
						"topics": [
							"0xa65fb05c5808f5f389d72edeaf719ce38f4cc55c1f69ca3cbfb31c21501caa07",
							"0x9e0e602421b8af18b231044c4a9fcd3210b88a991260bd2d68511776273418b9"
						],
						"transactionHash": "0x91862cba30f76ca9ef4266125510978e4cd6d4123896f3952a72b9d16e83a442",
						"transactionIndex": 3
					},
					{
						"address": "0x1081B5AA9D9d4862A3dA4d469433FB36Ed80FA2A",
						"blockHash": "0xcc2a85fda8205f721955f7c72da02947bb6e2f4c1afc30aead2baf048bac42e2",
						"blockNumber": 9543815,
						"data": "0x00000000000000000000000059dd264e125b22fb1a6a72f943982b132253dfff",
						"index": 15,
						"topics": [
							"0x4db17dd5e4732fb6da34a148104a592783ca119a1e7bb8829eba6cbadef0b511"
						],
						"transactionHash": "0x91862cba30f76ca9ef4266125510978e4cd6d4123896f3952a72b9d16e83a442",
						"transactionIndex": 3
					},
					{
						"address": "0x1081B5AA9D9d4862A3dA4d469433FB36Ed80FA2A",
						"blockHash": "0xcc2a85fda8205f721955f7c72da02947bb6e2f4c1afc30aead2baf048bac42e2",
						"blockNumber": 9543815,
						"data": "0x",
						"index": 16,
						"topics": [
							"0x6895c13664aa4f67288b25d7a21d7aaa34916e355fb9b6fae0a139a9085becb8",
							"0x000000000000000000000000ef1be3c049809cace5bc203bbe4ec1ab284bf75c"
						],
						"transactionHash": "0x91862cba30f76ca9ef4266125510978e4cd6d4123896f3952a72b9d16e83a442",
						"transactionIndex": 3
					},
					{
						"address": "0xEf1Be3C049809caCe5Bc203BBe4Ec1Ab284bF75c",
						"blockHash": "0xcc2a85fda8205f721955f7c72da02947bb6e2f4c1afc30aead2baf048bac42e2",
						"blockNumber": 9543815,
						"data": "0x0000000000000000000000000000000000000000000000000000000000000004",
						"index": 17,
						"topics": [
							"0xa65fb05c5808f5f389d72edeaf719ce38f4cc55c1f69ca3cbfb31c21501caa07",
							"0x9e0e602421b8af18b231044c4a9fcd3210b88a991260bd2d68511776273418b9"
						],
						"transactionHash": "0x91862cba30f76ca9ef4266125510978e4cd6d4123896f3952a72b9d16e83a442",
						"transactionIndex": 3
					},
					{
						"address": "0x1081B5AA9D9d4862A3dA4d469433FB36Ed80FA2A",
						"blockHash": "0xcc2a85fda8205f721955f7c72da02947bb6e2f4c1afc30aead2baf048bac42e2",
						"blockNumber": 9543815,
						"data": "0x000000000000000000000000def756ef46098cb2109128d3458e01bcf58411d1",
						"index": 18,
						"topics": [
							"0x4db17dd5e4732fb6da34a148104a592783ca119a1e7bb8829eba6cbadef0b511"
						],
						"transactionHash": "0x91862cba30f76ca9ef4266125510978e4cd6d4123896f3952a72b9d16e83a442",
						"transactionIndex": 3
					},
					{
						"address": "0x1081B5AA9D9d4862A3dA4d469433FB36Ed80FA2A",
						"blockHash": "0xcc2a85fda8205f721955f7c72da02947bb6e2f4c1afc30aead2baf048bac42e2",
						"blockNumber": 9543815,
						"data": "0x",
						"index": 19,
						"topics": [
							"0x6895c13664aa4f67288b25d7a21d7aaa34916e355fb9b6fae0a139a9085becb8",
							"0x000000000000000000000000ef1be3c049809cace5bc203bbe4ec1ab284bf75c"
						],
						"transactionHash": "0x91862cba30f76ca9ef4266125510978e4cd6d4123896f3952a72b9d16e83a442",
						"transactionIndex": 3
					},
					{
						"address": "0xEf1Be3C049809caCe5Bc203BBe4Ec1Ab284bF75c",
						"blockHash": "0xcc2a85fda8205f721955f7c72da02947bb6e2f4c1afc30aead2baf048bac42e2",
						"blockNumber": 9543815,
						"data": "0x0000000000000000000000000000000000000000000000000000000000000005",
						"index": 20,
						"topics": [
							"0xa65fb05c5808f5f389d72edeaf719ce38f4cc55c1f69ca3cbfb31c21501caa07",
							"0x9e0e602421b8af18b231044c4a9fcd3210b88a991260bd2d68511776273418b9"
						],
						"transactionHash": "0x91862cba30f76ca9ef4266125510978e4cd6d4123896f3952a72b9d16e83a442",
						"transactionIndex": 3
					},
					{
						"address": "0x1081B5AA9D9d4862A3dA4d469433FB36Ed80FA2A",
						"blockHash": "0xcc2a85fda8205f721955f7c72da02947bb6e2f4c1afc30aead2baf048bac42e2",
						"blockNumber": 9543815,
						"data": "0x000000000000000000000000266b64c59e45cccaeea8d34758c495a0517139f0",
						"index": 21,
						"topics": [
							"0x4db17dd5e4732fb6da34a148104a592783ca119a1e7bb8829eba6cbadef0b511"
						],
						"transactionHash": "0x91862cba30f76ca9ef4266125510978e4cd6d4123896f3952a72b9d16e83a442",
						"transactionIndex": 3
					},
					{
						"address": "0x1081B5AA9D9d4862A3dA4d469433FB36Ed80FA2A",
						"blockHash": "0xcc2a85fda8205f721955f7c72da02947bb6e2f4c1afc30aead2baf048bac42e2",
						"blockNumber": 9543815,
						"data": "0x",
						"index": 22,
						"topics": [
							"0x6895c13664aa4f67288b25d7a21d7aaa34916e355fb9b6fae0a139a9085becb8",
							"0x000000000000000000000000ef1be3c049809cace5bc203bbe4ec1ab284bf75c"
						],
						"transactionHash": "0x91862cba30f76ca9ef4266125510978e4cd6d4123896f3952a72b9d16e83a442",
						"transactionIndex": 3
					},
					{
						"address": "0xEf1Be3C049809caCe5Bc203BBe4Ec1Ab284bF75c",
						"blockHash": "0xcc2a85fda8205f721955f7c72da02947bb6e2f4c1afc30aead2baf048bac42e2",
						"blockNumber": 9543815,
						"data": "0x0000000000000000000000000000000000000000000000000000000000000006",
						"index": 23,
						"topics": [
							"0xa65fb05c5808f5f389d72edeaf719ce38f4cc55c1f69ca3cbfb31c21501caa07",
							"0x9e0e602421b8af18b231044c4a9fcd3210b88a991260bd2d68511776273418b9"
						],
						"transactionHash": "0x91862cba30f76ca9ef4266125510978e4cd6d4123896f3952a72b9d16e83a442",
						"transactionIndex": 3
					},
					{
						"address": "0x1081B5AA9D9d4862A3dA4d469433FB36Ed80FA2A",
						"blockHash": "0xcc2a85fda8205f721955f7c72da02947bb6e2f4c1afc30aead2baf048bac42e2",
						"blockNumber": 9543815,
						"data": "0x000000000000000000000000f8ed3763480ca957316974bab8fe4258d4fd0a17",
						"index": 24,
						"topics": [
							"0x4db17dd5e4732fb6da34a148104a592783ca119a1e7bb8829eba6cbadef0b511"
						],
						"transactionHash": "0x91862cba30f76ca9ef4266125510978e4cd6d4123896f3952a72b9d16e83a442",
						"transactionIndex": 3
					},
					{
						"address": "0x1081B5AA9D9d4862A3dA4d469433FB36Ed80FA2A",
						"blockHash": "0xcc2a85fda8205f721955f7c72da02947bb6e2f4c1afc30aead2baf048bac42e2",
						"blockNumber": 9543815,
						"data": "0x",
						"index": 25,
						"topics": [
							"0x6895c13664aa4f67288b25d7a21d7aaa34916e355fb9b6fae0a139a9085becb8",
							"0x000000000000000000000000ef1be3c049809cace5bc203bbe4ec1ab284bf75c"
						],
						"transactionHash": "0x91862cba30f76ca9ef4266125510978e4cd6d4123896f3952a72b9d16e83a442",
						"transactionIndex": 3
					},
					{
						"address": "0xEf1Be3C049809caCe5Bc203BBe4Ec1Ab284bF75c",
						"blockHash": "0xcc2a85fda8205f721955f7c72da02947bb6e2f4c1afc30aead2baf048bac42e2",
						"blockNumber": 9543815,
						"data": "0x0000000000000000000000000000000000000000000000000000000000000007",
						"index": 26,
						"topics": [
							"0xa65fb05c5808f5f389d72edeaf719ce38f4cc55c1f69ca3cbfb31c21501caa07",
							"0x9e0e602421b8af18b231044c4a9fcd3210b88a991260bd2d68511776273418b9"
						],
						"transactionHash": "0x91862cba30f76ca9ef4266125510978e4cd6d4123896f3952a72b9d16e83a442",
						"transactionIndex": 3
					}
				],
				"logsBloom": "0x00020000080010000008000000080000000040000008000000800000004000000060008000000000000000000040000020000000000000000000000000000002000000000000200400000000820000000001000000000000000200080000000000000000020000000000000000800800000000100020000000000000000000400001000000000000000100000000800000000000000000000000804000000000004000080010000000000000000000020200000000000080000000001006000000000000000000200000000008000000000000000000000000000000000020000000000000800004000000000000000200008000000000000000040000000000",
				"status": 1,
				"to": "0xB5E96127D417b1B3ef8438496a38A143167209c7"
			},
			"metadata": "{\"compiler\":{\"version\":\"0.8.23+commit.f704f362\"},\"language\":\"Solidity\",\"output\":{\"abi\":[{\"inputs\":[],\"stateMutability\":\"nonpayable\",\"type\":\"constructor\"},{\"inputs\":[],\"type\":\"error\",\"name\":\"PERMISSION_ID_OUT_OF_BOUNDS\"},{\"inputs\":[],\"type\":\"error\",\"name\":\"UNAUTHORIZED\"},{\"inputs\":[{\"internalType\":\"address\",\"name\":\"operator\",\"type\":\"address\",\"indexed\":true},{\"internalType\":\"address\",\"name\":\"account\",\"type\":\"address\",\"indexed\":true},{\"internalType\":\"uint256\",\"name\":\"projectId\",\"type\":\"uint256\",\"indexed\":true},{\"internalType\":\"uint256[]\",\"name\":\"permissionIds\",\"type\":\"uint256[]\",\"indexed\":false},{\"internalType\":\"uint256\",\"name\":\"packed\",\"type\":\"uint256\",\"indexed\":false},{\"internalType\":\"address\",\"name\":\"caller\",\"type\":\"address\",\"indexed\":false}],\"type\":\"event\",\"name\":\"OperatorPermissionsSet\",\"anonymous\":false},{\"inputs\":[],\"stateMutability\":\"view\",\"type\":\"function\",\"name\":\"PERMISSIONS\",\"outputs\":[{\"internalType\":\"contract IJBPermissions\",\"name\":\"\",\"type\":\"address\"}]},{\"inputs\":[{\"internalType\":\"address\",\"name\":\"operator\",\"type\":\"address\"},{\"internalType\":\"address\",\"name\":\"account\",\"type\":\"address\"},{\"internalType\":\"uint256\",\"name\":\"projectId\",\"type\":\"uint256\"},{\"internalType\":\"uint256\",\"name\":\"permissionId\",\"type\":\"uint256\"}],\"stateMutability\":\"view\",\"type\":\"function\",\"name\":\"hasPermission\",\"outputs\":[{\"internalType\":\"bool\",\"name\":\"\",\"type\":\"bool\"}]},{\"inputs\":[{\"internalType\":\"address\",\"name\":\"operator\",\"type\":\"address\"},{\"internalType\":\"address\",\"name\":\"account\",\"type\":\"address\"},{\"internalType\":\"uint256\",\"name\":\"projectId\",\"type\":\"uint256\"},{\"internalType\":\"uint256[]\",\"name\":\"permissionIds\",\"type\":\"uint256[]\"}],\"stateMutability\":\"view\",\"type\":\"function\",\"name\":\"hasPermissions\",\"outputs\":[{\"internalType\":\"bool\",\"name\":\"\",\"type\":\"bool\"}]},{\"inputs\":[{\"internalType\":\"address\",\"name\":\"operator\",\"type\":\"address\"},{\"internalType\":\"address\",\"name\":\"account\",\"type\":\"address\"},{\"internalType\":\"uint256\",\"name\":\"projectId\",\"type\":\"uint256\"}],\"stateMutability\":\"view\",\"type\":\"function\",\"name\":\"permissionsOf\",\"outputs\":[{\"internalType\":\"uint256\",\"name\":\"\",\"type\":\"uint256\"}]},{\"inputs\":[{\"internalType\":\"address\",\"name\":\"account\",\"type\":\"address\"},{\"internalType\":\"struct JBPermissionsData\",\"name\":\"permissionsData\",\"type\":\"tuple\",\"components\":[{\"internalType\":\"address\",\"name\":\"operator\",\"type\":\"address\"},{\"internalType\":\"uint256\",\"name\":\"projectId\",\"type\":\"uint256\"},{\"internalType\":\"uint256[]\",\"name\":\"permissionIds\",\"type\":\"uint256[]\"}]}],\"stateMutability\":\"nonpayable\",\"type\":\"function\",\"name\":\"setPermissionsFor\"}],\"devdoc\":{\"kind\":\"dev\",\"methods\":{\"hasPermission(address,address,uint256,uint256)\":{\"params\":{\"account\":\"The account being operated on behalf of.\",\"operator\":\"The operator to check.\",\"permissionId\":\"The permission ID to check for.\",\"projectId\":\"The project ID that the operator has permission to operate under. 0 represents all projects.\"},\"returns\":{\"_0\":\"A flag indicating whether the operator has the specified permission.\"}},\"hasPermissions(address,address,uint256,uint256[])\":{\"params\":{\"account\":\"The account being operated on behalf of.\",\"operator\":\"The operator to check.\",\"permissionIds\":\"An array of permission IDs to check for.\",\"projectId\":\"The project ID that the operator has permission to operate under. 0 represents all projects.\"},\"returns\":{\"_0\":\"A flag indicating whether the operator has all specified permissions.\"}},\"setPermissionsFor(address,(address,uint256,uint256[]))\":{\"details\":\"Only an address can give permissions to or revoke permissions from its operators.\",\"params\":{\"account\":\"The account setting its operators' permissions.\",\"permissionsData\":\"The data which specifies the permissions the operator is being given.\"}}},\"version\":1},\"userdoc\":{\"kind\":\"user\",\"methods\":{\"PERMISSIONS()\":{\"notice\":\"A contract storing permissions.\"},\"hasPermission(address,address,uint256,uint256)\":{\"notice\":\"Check if an operator has a specific permission for a specific address and project ID.\"},\"hasPermissions(address,address,uint256,uint256[])\":{\"notice\":\"Check if an operator has all of the specified permissions for a specific address and project ID.\"},\"permissionsOf(address,address,uint256)\":{\"notice\":\"The permissions that an operator has been given by an account for a specific project.\"},\"setPermissionsFor(address,(address,uint256,uint256[]))\":{\"notice\":\"Sets permissions for an operator.\"}},\"version\":1}},\"settings\":{\"remappings\":[\"@bananapus/=node_modules/@bananapus/\",\"@chainlink/=node_modules/@chainlink/\",\"@eth-optimism/=node_modules/@eth-optimism/\",\"@gnosis.pm/=node_modules/@gnosis.pm/\",\"@openzeppelin/=node_modules/@openzeppelin/\",\"@prb/=node_modules/@prb/\",\"@sphinx-labs/contracts/=lib/sphinx/packages/contracts/contracts/foundry/\",\"@uniswap/=node_modules/@uniswap/\",\"ds-test/=lib/forge-std/lib/ds-test/src/\",\"forge-std/=lib/forge-std/src/\",\"hardhat/=node_modules/hardhat/\",\"solmate/=node_modules/solmate/\",\"sphinx-forge-std/=node_modules/sphinx-forge-std/\",\"sphinx-solmate/=node_modules/sphinx-solmate/\",\"sphinx/=lib/sphinx/\"],\"optimizer\":{\"enabled\":true,\"runs\":200},\"metadata\":{\"bytecodeHash\":\"ipfs\"},\"compilationTarget\":{\"src/JBPermissions.sol\":\"JBPermissions\"},\"evmVersion\":\"paris\",\"libraries\":{}},\"sources\":{\"node_modules/@bananapus/permission-ids/src/JBPermissionIds.sol\":{\"keccak256\":\"0xcc68735b4c801e953cb7962e069933f369515e7a4a09aea5b2170a268125a898\",\"urls\":[\"bzz-raw://e51f839d96be200efeca40ca4fb1d5b6096303564cdde5cf67aecf58e2d36db3\",\"dweb:/ipfs/QmRnJ5s974eUeyvTuLUpt4TK8t5TjVmz7DyDSAKxgYTnA5\"],\"license\":\"UNLICENSED\"},\"node_modules/@openzeppelin/contracts/utils/Context.sol\":{\"keccak256\":\"0x493033a8d1b176a037b2cc6a04dad01a5c157722049bbecf632ca876224dd4b2\",\"urls\":[\"bzz-raw://6a708e8a5bdb1011c2c381c9a5cfd8a9a956d7d0a9dc1bd8bcdaf52f76ef2f12\",\"dweb:/ipfs/Qmax9WHBnVsZP46ZxEMNRQpLQnrdE4dK8LehML1Py8FowF\"],\"license\":\"MIT\"},\"src/JBPermissions.sol\":{\"keccak256\":\"0x5d7cbebd7ea868bb17b2df9bd68ebc7a6fd5299c75601fe755b53f14c368d963\",\"urls\":[\"bzz-raw://1812675baaafeeb5074c7ddc6f9b5c5344fe5a213534f1a53f92d664ab0e2d02\",\"dweb:/ipfs/QmY9TC8njokB9gfPPEvDbTntNSd59K3hgKQia4oeJurNwr\"],\"license\":\"MIT\"},\"src/abstract/JBPermissioned.sol\":{\"keccak256\":\"0xbe593894bc9893f7fe5c96f14c013add8f50df762538e3d7cb96ed39ad195664\",\"urls\":[\"bzz-raw://efb81264b24776e6be537680abaeb8c4893e70d8a62231748d860e25a7c2340d\",\"dweb:/ipfs/QmacN9gFgPqkhTEwRD7Zben3whq9DRr2ZkSmScGvioTXXR\"],\"license\":\"MIT\"},\"src/interfaces/IJBPermissioned.sol\":{\"keccak256\":\"0x5b038d4dee116584e88b230920e56d48e135053e3f7e5642eaea14a775c1dad7\",\"urls\":[\"bzz-raw://19e43102f349fd4a1da1c0943ffb8f2950007fe4bb4bb7e8f74fc142575d091b\",\"dweb:/ipfs/QmXHAt4KzDTdDZgDDefEXH2WKi7NcfkJb9R7nxW5uDqsNp\"],\"license\":\"MIT\"},\"src/interfaces/IJBPermissions.sol\":{\"keccak256\":\"0x18870e500edf0fbadc353e273a5574701fb80466376b908c65e7cc3f11044d4d\",\"urls\":[\"bzz-raw://352a47c45853aec80e7acf0d286ade3106eb4cb456776b28a3c2f3f1091bed90\",\"dweb:/ipfs/QmQeYd3YbudYZy2hfbfht9kwhxhw4tuuLKMEYy9UY6dcSy\"],\"license\":\"MIT\"},\"src/structs/JBPermissionsData.sol\":{\"keccak256\":\"0x8f0f69a6ebf5f3704e3dfcb3712fb9d3f94ae7c1ab89bf3e37bad42a3e7a0487\",\"urls\":[\"bzz-raw://57b0c5e52843e2217082889ed47b4da3943e0da4590d5768dcebfe3edad4a6b8\",\"dweb:/ipfs/QmRz48vuWLw81kUP836rh1qzqWiJFGbksgRUA9xGEDNKTY\"],\"license\":\"MIT\"}},\"version\":1}",
			"args": [],
			"bytecode": "0x60a060405234801561001057600080fd5b50306080526080516107b361003d6000396000818160ef01528181610358015261040101526107b36000f3fe608060405234801561001057600080fd5b50600436106100575760003560e01c806305d2912e1461005c5780630f5932f01461007157806380deb23014610099578063c161c93f146100d7578063f434c914146100ea575b600080fd5b61006f61006a366004610512565b610129565b005b61008461007f366004610567565b610204565b60405190151581526020015b60405180910390f35b6100c96100a7366004610605565b6000602081815293815260408082208552928152828120909352825290205481565b604051908152602001610090565b6100846100e5366004610641565b6102ad565b6101117f000000000000000000000000000000000000000000000000000000000000000081565b6040516001600160a01b039091168152602001610090565b610139828260200135600161030e565b600061015061014b6040840184610683565b610492565b90508060008061016360208601866106d4565b6001600160a01b039081168252602080830193909352604091820160009081209188168082529184528281208785018035808452919095529290209390935591906101ae90856106d4565b6001600160a01b03167ff8cdf10a0ce6189c6d069e97320ef146e2bcbd32d6c0b86dcbfbf3bd8578fa706101e56040870187610683565b86336040516101f794939291906106f6565b60405180910390a4505050565b60008181805b8281101561029c5785858281811061022457610224610745565b90506020020135915060ff82111561024f576040516334f9a01d60e21b815260040160405180910390fd5b6001600160a01b03898116600090815260208181526040808320938c1683529281528282208a8352905290812054831c600116900361029457600093505050506102a4565b60010161020a565b506001925050505b95945050505050565b600060ff8211156102d1576040516334f9a01d60e21b815260040160405180910390fd5b506001600160a01b03808516600090815260208181526040808320938716835292815282822085835290522054600190821c811614949350505050565b336001600160a01b03841681148015906103c5575060405163c161c93f60e01b81526001600160a01b038281166004830152858116602483015260448201859052606482018490527f0000000000000000000000000000000000000000000000000000000000000000169063c161c93f90608401602060405180830381865afa15801561039f573d6000803e3d6000fd5b505050506040513d601f19601f820116820180604052508101906103c3919061075b565b155b801561046e575060405163c161c93f60e01b81526001600160a01b038281166004830152858116602483015260006044830152606482018490527f0000000000000000000000000000000000000000000000000000000000000000169063c161c93f90608401602060405180830381865afa158015610448573d6000803e3d6000fd5b505050506040513d601f19601f8201168201806040525081019061046c919061075b565b155b1561048c5760405163075fd2b160e01b815260040160405180910390fd5b50505050565b60008181805b828110156104ed578585828181106104b2576104b2610745565b90506020020135915060ff8211156104dd576040516334f9a01d60e21b815260040160405180910390fd5b600180831b949094179301610498565b50505092915050565b80356001600160a01b038116811461050d57600080fd5b919050565b6000806040838503121561052557600080fd5b61052e836104f6565b9150602083013567ffffffffffffffff81111561054a57600080fd5b83016060818603121561055c57600080fd5b809150509250929050565b60008060008060006080868803121561057f57600080fd5b610588866104f6565b9450610596602087016104f6565b935060408601359250606086013567ffffffffffffffff808211156105ba57600080fd5b818801915088601f8301126105ce57600080fd5b8135818111156105dd57600080fd5b8960208260051b85010111156105f257600080fd5b9699959850939650602001949392505050565b60008060006060848603121561061a57600080fd5b610623846104f6565b9250610631602085016104f6565b9150604084013590509250925092565b6000806000806080858703121561065757600080fd5b610660856104f6565b935061066e602086016104f6565b93969395505050506040820135916060013590565b6000808335601e1984360301811261069a57600080fd5b83018035915067ffffffffffffffff8211156106b557600080fd5b6020019150600581901b36038213156106cd57600080fd5b9250929050565b6000602082840312156106e657600080fd5b6106ef826104f6565b9392505050565b6060808252810184905260006001600160fb1b0385111561071657600080fd5b8460051b808760808501376020830194909452506001600160a01b039190911660408201520160800192915050565b634e487b7160e01b600052603260045260246000fd5b60006020828403121561076d57600080fd5b815180151581146106ef57600080fdfea264697066735822122020dc514244f7e02b9f3867b389de13e1f7f5cdf7fd0337585222f2706e6c8a0964736f6c63430008170033",
			"deployedBytecode": "0x608060405234801561001057600080fd5b50600436106100575760003560e01c806305d2912e1461005c5780630f5932f01461007157806380deb23014610099578063c161c93f146100d7578063f434c914146100ea575b600080fd5b61006f61006a366004610512565b610129565b005b61008461007f366004610567565b610204565b60405190151581526020015b60405180910390f35b6100c96100a7366004610605565b6000602081815293815260408082208552928152828120909352825290205481565b604051908152602001610090565b6100846100e5366004610641565b6102ad565b6101117f000000000000000000000000a1ba58fca530d0b011646167c9eb81f54d9c9df681565b6040516001600160a01b039091168152602001610090565b610139828260200135600161030e565b600061015061014b6040840184610683565b610492565b90508060008061016360208601866106d4565b6001600160a01b039081168252602080830193909352604091820160009081209188168082529184528281208785018035808452919095529290209390935591906101ae90856106d4565b6001600160a01b03167ff8cdf10a0ce6189c6d069e97320ef146e2bcbd32d6c0b86dcbfbf3bd8578fa706101e56040870187610683565b86336040516101f794939291906106f6565b60405180910390a4505050565b60008181805b8281101561029c5785858281811061022457610224610745565b90506020020135915060ff82111561024f576040516334f9a01d60e21b815260040160405180910390fd5b6001600160a01b03898116600090815260208181526040808320938c1683529281528282208a8352905290812054831c600116900361029457600093505050506102a4565b60010161020a565b506001925050505b95945050505050565b600060ff8211156102d1576040516334f9a01d60e21b815260040160405180910390fd5b506001600160a01b03808516600090815260208181526040808320938716835292815282822085835290522054600190821c811614949350505050565b336001600160a01b03841681148015906103c5575060405163c161c93f60e01b81526001600160a01b038281166004830152858116602483015260448201859052606482018490527f000000000000000000000000a1ba58fca530d0b011646167c9eb81f54d9c9df6169063c161c93f90608401602060405180830381865afa15801561039f573d6000803e3d6000fd5b505050506040513d601f19601f820116820180604052508101906103c3919061075b565b155b801561046e575060405163c161c93f60e01b81526001600160a01b038281166004830152858116602483015260006044830152606482018490527f000000000000000000000000a1ba58fca530d0b011646167c9eb81f54d9c9df6169063c161c93f90608401602060405180830381865afa158015610448573d6000803e3d6000fd5b505050506040513d601f19601f8201168201806040525081019061046c919061075b565b155b1561048c5760405163075fd2b160e01b815260040160405180910390fd5b50505050565b60008181805b828110156104ed578585828181106104b2576104b2610745565b90506020020135915060ff8211156104dd576040516334f9a01d60e21b815260040160405180910390fd5b600180831b949094179301610498565b50505092915050565b80356001600160a01b038116811461050d57600080fd5b919050565b6000806040838503121561052557600080fd5b61052e836104f6565b9150602083013567ffffffffffffffff81111561054a57600080fd5b83016060818603121561055c57600080fd5b809150509250929050565b60008060008060006080868803121561057f57600080fd5b610588866104f6565b9450610596602087016104f6565b935060408601359250606086013567ffffffffffffffff808211156105ba57600080fd5b818801915088601f8301126105ce57600080fd5b8135818111156105dd57600080fd5b8960208260051b85010111156105f257600080fd5b9699959850939650602001949392505050565b60008060006060848603121561061a57600080fd5b610623846104f6565b9250610631602085016104f6565b9150604084013590509250925092565b6000806000806080858703121561065757600080fd5b610660856104f6565b935061066e602086016104f6565b93969395505050506040820135916060013590565b6000808335601e1984360301811261069a57600080fd5b83018035915067ffffffffffffffff8211156106b557600080fd5b6020019150600581901b36038213156106cd57600080fd5b9250929050565b6000602082840312156106e657600080fd5b6106ef826104f6565b9392505050565b6060808252810184905260006001600160fb1b0385111561071657600080fd5b8460051b808760808501376020830194909452506001600160a01b039190911660408201520160800192915050565b634e487b7160e01b600052603260045260246000fd5b60006020828403121561076d57600080fd5b815180151581146106ef57600080fdfea264697066735822122020dc514244f7e02b9f3867b389de13e1f7f5cdf7fd0337585222f2706e6c8a0964736f6c63430008170033",
			"devdoc": {
				"kind": "dev",
				"methods": {
					"hasPermission(address,address,uint256,uint256)": {
						"params": {
							"account": "The account being operated on behalf of.",
							"operator": "The operator to check.",
							"permissionId": "The permission ID to check for.",
							"projectId": "The project ID that the operator has permission to operate under. 0 represents all projects."
						},
						"returns": {
							"_0": "A flag indicating whether the operator has the specified permission."
						}
					},
					"hasPermissions(address,address,uint256,uint256[])": {
						"params": {
							"account": "The account being operated on behalf of.",
							"operator": "The operator to check.",
							"permissionIds": "An array of permission IDs to check for.",
							"projectId": "The project ID that the operator has permission to operate under. 0 represents all projects."
						},
						"returns": {
							"_0": "A flag indicating whether the operator has all specified permissions."
						}
					},
					"setPermissionsFor(address,(address,uint256,uint256[]))": {
						"details": "Only an address can give permissions to or revoke permissions from its operators.",
						"params": {
							"account": "The account setting its operators' permissions.",
							"permissionsData": "The data which specifies the permissions the operator is being given."
						}
					}
				},
				"version": 1
			},
			"userdoc": {
				"kind": "user",
				"methods": {
					"PERMISSIONS()": {
						"notice": "A contract storing permissions."
					},
					"hasPermission(address,address,uint256,uint256)": {
						"notice": "Check if an operator has a specific permission for a specific address and project ID."
					},
					"hasPermissions(address,address,uint256,uint256[])": {
						"notice": "Check if an operator has all of the specified permissions for a specific address and project ID."
					},
					"permissionsOf(address,address,uint256)": {
						"notice": "The permissions that an operator has been given by an account for a specific project."
					},
					"setPermissionsFor(address,(address,uint256,uint256[]))": {
						"notice": "Sets permissions for an operator."
					}
				},
				"version": 1
			},
			"gitCommit": "62158c420c722b49faeb8974b2a980f19906fb7a",
			"sourceName": "src/JBPermissions.sol",
			"chainId": "11155420",
			"linkReferences": {},
			"deployedLinkReferences": {}
		},
		{
			"_format": "sphinx-sol-ct-artifact-1",
			"merkleRoot": "0xd585c33ce71711649e9771716c78530681c13a65cc62ef35805d17b1536fb647",
			"contractName": "JBPermissions",
			"address": "0x953AB7f10EfE861B21CfB9630768818A04742587",
			"abi": [
				{
					"type": "function",
					"name": "hasPermission",
					"inputs": [
						{
							"name": "operator",
							"type": "address",
							"internalType": "address"
						},
						{
							"name": "account",
							"type": "address",
							"internalType": "address"
						},
						{
							"name": "projectId",
							"type": "uint256",
							"internalType": "uint256"
						},
						{
							"name": "permissionId",
							"type": "uint256",
							"internalType": "uint256"
						}
					],
					"outputs": [
						{
							"name": "",
							"type": "bool",
							"internalType": "bool"
						}
					],
					"stateMutability": "view"
				},
				{
					"type": "function",
					"name": "hasPermissions",
					"inputs": [
						{
							"name": "operator",
							"type": "address",
							"internalType": "address"
						},
						{
							"name": "account",
							"type": "address",
							"internalType": "address"
						},
						{
							"name": "projectId",
							"type": "uint256",
							"internalType": "uint256"
						},
						{
							"name": "permissionIds",
							"type": "uint256[]",
							"internalType": "uint256[]"
						}
					],
					"outputs": [
						{
							"name": "",
							"type": "bool",
							"internalType": "bool"
						}
					],
					"stateMutability": "view"
				},
				{
					"type": "function",
					"name": "permissionsOf",
					"inputs": [
						{
							"name": "operator",
							"type": "address",
							"internalType": "address"
						},
						{
							"name": "account",
							"type": "address",
							"internalType": "address"
						},
						{
							"name": "projectId",
							"type": "uint256",
							"internalType": "uint256"
						}
					],
					"outputs": [
						{
							"name": "",
							"type": "uint256",
							"internalType": "uint256"
						}
					],
					"stateMutability": "view"
				},
				{
					"type": "function",
					"name": "setPermissionsFor",
					"inputs": [
						{
							"name": "account",
							"type": "address",
							"internalType": "address"
						},
						{
							"name": "permissionsData",
							"type": "tuple",
							"internalType": "struct JBPermissionsData",
							"components": [
								{
									"name": "operator",
									"type": "address",
									"internalType": "address"
								},
								{
									"name": "projectId",
									"type": "uint256",
									"internalType": "uint256"
								},
								{
									"name": "permissionIds",
									"type": "uint256[]",
									"internalType": "uint256[]"
								}
							]
						}
					],
					"outputs": [],
					"stateMutability": "nonpayable"
				},
				{
					"type": "event",
					"name": "OperatorPermissionsSet",
					"inputs": [
						{
							"name": "operator",
							"type": "address",
							"indexed": true,
							"internalType": "address"
						},
						{
							"name": "account",
							"type": "address",
							"indexed": true,
							"internalType": "address"
						},
						{
							"name": "projectId",
							"type": "uint256",
							"indexed": true,
							"internalType": "uint256"
						},
						{
							"name": "permissionIds",
							"type": "uint256[]",
							"indexed": false,
							"internalType": "uint256[]"
						},
						{
							"name": "packed",
							"type": "uint256",
							"indexed": false,
							"internalType": "uint256"
						},
						{
							"name": "caller",
							"type": "address",
							"indexed": false,
							"internalType": "address"
						}
					],
					"anonymous": false
				},
				{
					"type": "error",
					"name": "PERMISSION_ID_OUT_OF_BOUNDS",
					"inputs": []
				},
				{
					"type": "error",
					"name": "UNAUTHORIZED",
					"inputs": []
				}
			],
			"solcInputHash": "9c8ada04ecb46a70149f6960114cde6f",
			"receipt": {
				"blockHash": "0xe6a39974b63e51c1533cd8d69222d4474afbd41b339c0c67bc9d5e641d86ac53",
				"blockNumber": 10154836,
				"contractAddress": null,
				"cumulativeGasUsed": "11339298",
				"from": "0xC034550B542b83BA1De312b21d1C94a9a52B1595",
				"gasPrice": "1000252",
				"gasUsed": "11051758",
				"hash": "0x5f0982f567aaba82a820c4bb25e00f5d1be922e586e294c701f0fe1d02206747",
				"index": 3,
				"logs": [
					{
						"address": "0xB5E96127D417b1B3ef8438496a38A143167209c7",
						"blockHash": "0xe6a39974b63e51c1533cd8d69222d4474afbd41b339c0c67bc9d5e641d86ac53",
						"blockNumber": 10154836,
						"data": "0x0000000000000000000000000000000000000000000000000000000000000000",
						"index": 5,
						"topics": [
							"0x572f161235911da04685a68c06adf558fc7e4a36909dca394650e0adc19cc93d",
							"0x000000000000000000000000c034550b542b83ba1de312b21d1c94a9a52b1595",
							"0x000000000000000000000000ef1be3c049809cace5bc203bbe4ec1ab284bf75c",
							"0x626f353b4d947fb822949fb6a65416008b698a95232c47ef282aa530c4437770"
						],
						"transactionHash": "0x5f0982f567aaba82a820c4bb25e00f5d1be922e586e294c701f0fe1d02206747",
						"transactionIndex": 3
					},
					{
						"address": "0x1081B5AA9D9d4862A3dA4d469433FB36Ed80FA2A",
						"blockHash": "0xe6a39974b63e51c1533cd8d69222d4474afbd41b339c0c67bc9d5e641d86ac53",
						"blockNumber": 10154836,
						"data": "0x000000000000000000000000953ab7f10efe861b21cfb9630768818a04742587",
						"index": 6,
						"topics": [
							"0x4db17dd5e4732fb6da34a148104a592783ca119a1e7bb8829eba6cbadef0b511"
						],
						"transactionHash": "0x5f0982f567aaba82a820c4bb25e00f5d1be922e586e294c701f0fe1d02206747",
						"transactionIndex": 3
					},
					{
						"address": "0x1081B5AA9D9d4862A3dA4d469433FB36Ed80FA2A",
						"blockHash": "0xe6a39974b63e51c1533cd8d69222d4474afbd41b339c0c67bc9d5e641d86ac53",
						"blockNumber": 10154836,
						"data": "0x",
						"index": 7,
						"topics": [
							"0x6895c13664aa4f67288b25d7a21d7aaa34916e355fb9b6fae0a139a9085becb8",
							"0x000000000000000000000000ef1be3c049809cace5bc203bbe4ec1ab284bf75c"
						],
						"transactionHash": "0x5f0982f567aaba82a820c4bb25e00f5d1be922e586e294c701f0fe1d02206747",
						"transactionIndex": 3
					},
					{
						"address": "0xEf1Be3C049809caCe5Bc203BBe4Ec1Ab284bF75c",
						"blockHash": "0xe6a39974b63e51c1533cd8d69222d4474afbd41b339c0c67bc9d5e641d86ac53",
						"blockNumber": 10154836,
						"data": "0x0000000000000000000000000000000000000000000000000000000000000001",
						"index": 8,
						"topics": [
							"0xa65fb05c5808f5f389d72edeaf719ce38f4cc55c1f69ca3cbfb31c21501caa07",
							"0xd585c33ce71711649e9771716c78530681c13a65cc62ef35805d17b1536fb647"
						],
						"transactionHash": "0x5f0982f567aaba82a820c4bb25e00f5d1be922e586e294c701f0fe1d02206747",
						"transactionIndex": 3
					},
					{
						"address": "0xE9a6F248F9f8854E9f161c84c34F2589Ec362BE9",
						"blockHash": "0xe6a39974b63e51c1533cd8d69222d4474afbd41b339c0c67bc9d5e641d86ac53",
						"blockNumber": 10154836,
						"data": "0x",
						"index": 9,
						"topics": [
							"0x8be0079c531659141344cd1fd0a4f28419497f9722a3daafe3b4186f6b6457e0",
							"0x0000000000000000000000000000000000000000000000000000000000000000",
							"0x0000000000000000000000001081b5aa9d9d4862a3da4d469433fb36ed80fa2a"
						],
						"transactionHash": "0x5f0982f567aaba82a820c4bb25e00f5d1be922e586e294c701f0fe1d02206747",
						"transactionIndex": 3
					},
					{
						"address": "0xE9a6F248F9f8854E9f161c84c34F2589Ec362BE9",
						"blockHash": "0xe6a39974b63e51c1533cd8d69222d4474afbd41b339c0c67bc9d5e641d86ac53",
						"blockNumber": 10154836,
						"data": "0x",
						"index": 10,
						"topics": [
							"0xddf252ad1be2c89b69c2b068fc378daa952ba7f163c4a11628f55a4df523b3ef",
							"0x0000000000000000000000000000000000000000000000000000000000000000",
							"0x0000000000000000000000001081b5aa9d9d4862a3da4d469433fb36ed80fa2a",
							"0x0000000000000000000000000000000000000000000000000000000000000001"
						],
						"transactionHash": "0x5f0982f567aaba82a820c4bb25e00f5d1be922e586e294c701f0fe1d02206747",
						"transactionIndex": 3
					},
					{
						"address": "0xE9a6F248F9f8854E9f161c84c34F2589Ec362BE9",
						"blockHash": "0xe6a39974b63e51c1533cd8d69222d4474afbd41b339c0c67bc9d5e641d86ac53",
						"blockNumber": 10154836,
						"data": "0x0000000000000000000000001081b5aa9d9d4862a3da4d469433fb36ed80fa2a",
						"index": 11,
						"topics": [
							"0x365b3162cd780731fc55a794b59494d472bc2af701007f581843a70673814698",
							"0x0000000000000000000000000000000000000000000000000000000000000001",
							"0x0000000000000000000000001081b5aa9d9d4862a3da4d469433fb36ed80fa2a"
						],
						"transactionHash": "0x5f0982f567aaba82a820c4bb25e00f5d1be922e586e294c701f0fe1d02206747",
						"transactionIndex": 3
					},
					{
						"address": "0x1081B5AA9D9d4862A3dA4d469433FB36Ed80FA2A",
						"blockHash": "0xe6a39974b63e51c1533cd8d69222d4474afbd41b339c0c67bc9d5e641d86ac53",
						"blockNumber": 10154836,
						"data": "0x000000000000000000000000e9a6f248f9f8854e9f161c84c34f2589ec362be9",
						"index": 12,
						"topics": [
							"0x4db17dd5e4732fb6da34a148104a592783ca119a1e7bb8829eba6cbadef0b511"
						],
						"transactionHash": "0x5f0982f567aaba82a820c4bb25e00f5d1be922e586e294c701f0fe1d02206747",
						"transactionIndex": 3
					},
					{
						"address": "0x1081B5AA9D9d4862A3dA4d469433FB36Ed80FA2A",
						"blockHash": "0xe6a39974b63e51c1533cd8d69222d4474afbd41b339c0c67bc9d5e641d86ac53",
						"blockNumber": 10154836,
						"data": "0x",
						"index": 13,
						"topics": [
							"0x6895c13664aa4f67288b25d7a21d7aaa34916e355fb9b6fae0a139a9085becb8",
							"0x000000000000000000000000ef1be3c049809cace5bc203bbe4ec1ab284bf75c"
						],
						"transactionHash": "0x5f0982f567aaba82a820c4bb25e00f5d1be922e586e294c701f0fe1d02206747",
						"transactionIndex": 3
					},
					{
						"address": "0xEf1Be3C049809caCe5Bc203BBe4Ec1Ab284bF75c",
						"blockHash": "0xe6a39974b63e51c1533cd8d69222d4474afbd41b339c0c67bc9d5e641d86ac53",
						"blockNumber": 10154836,
						"data": "0x0000000000000000000000000000000000000000000000000000000000000002",
						"index": 14,
						"topics": [
							"0xa65fb05c5808f5f389d72edeaf719ce38f4cc55c1f69ca3cbfb31c21501caa07",
							"0xd585c33ce71711649e9771716c78530681c13a65cc62ef35805d17b1536fb647"
						],
						"transactionHash": "0x5f0982f567aaba82a820c4bb25e00f5d1be922e586e294c701f0fe1d02206747",
						"transactionIndex": 3
					},
					{
						"address": "0x71Ff91C8A27b436f7025C053c01A3F6AAE3Fc62E",
						"blockHash": "0xe6a39974b63e51c1533cd8d69222d4474afbd41b339c0c67bc9d5e641d86ac53",
						"blockNumber": 10154836,
						"data": "0x",
						"index": 15,
						"topics": [
							"0x8be0079c531659141344cd1fd0a4f28419497f9722a3daafe3b4186f6b6457e0",
							"0x0000000000000000000000000000000000000000000000000000000000000000",
							"0x0000000000000000000000001081b5aa9d9d4862a3da4d469433fb36ed80fa2a"
						],
						"transactionHash": "0x5f0982f567aaba82a820c4bb25e00f5d1be922e586e294c701f0fe1d02206747",
						"transactionIndex": 3
					},
					{
						"address": "0x1081B5AA9D9d4862A3dA4d469433FB36Ed80FA2A",
						"blockHash": "0xe6a39974b63e51c1533cd8d69222d4474afbd41b339c0c67bc9d5e641d86ac53",
						"blockNumber": 10154836,
						"data": "0x00000000000000000000000071ff91c8a27b436f7025c053c01a3f6aae3fc62e",
						"index": 16,
						"topics": [
							"0x4db17dd5e4732fb6da34a148104a592783ca119a1e7bb8829eba6cbadef0b511"
						],
						"transactionHash": "0x5f0982f567aaba82a820c4bb25e00f5d1be922e586e294c701f0fe1d02206747",
						"transactionIndex": 3
					},
					{
						"address": "0x1081B5AA9D9d4862A3dA4d469433FB36Ed80FA2A",
						"blockHash": "0xe6a39974b63e51c1533cd8d69222d4474afbd41b339c0c67bc9d5e641d86ac53",
						"blockNumber": 10154836,
						"data": "0x",
						"index": 17,
						"topics": [
							"0x6895c13664aa4f67288b25d7a21d7aaa34916e355fb9b6fae0a139a9085becb8",
							"0x000000000000000000000000ef1be3c049809cace5bc203bbe4ec1ab284bf75c"
						],
						"transactionHash": "0x5f0982f567aaba82a820c4bb25e00f5d1be922e586e294c701f0fe1d02206747",
						"transactionIndex": 3
					},
					{
						"address": "0xEf1Be3C049809caCe5Bc203BBe4Ec1Ab284bF75c",
						"blockHash": "0xe6a39974b63e51c1533cd8d69222d4474afbd41b339c0c67bc9d5e641d86ac53",
						"blockNumber": 10154836,
						"data": "0x0000000000000000000000000000000000000000000000000000000000000003",
						"index": 18,
						"topics": [
							"0xa65fb05c5808f5f389d72edeaf719ce38f4cc55c1f69ca3cbfb31c21501caa07",
							"0xd585c33ce71711649e9771716c78530681c13a65cc62ef35805d17b1536fb647"
						],
						"transactionHash": "0x5f0982f567aaba82a820c4bb25e00f5d1be922e586e294c701f0fe1d02206747",
						"transactionIndex": 3
					},
					{
						"address": "0x1081B5AA9D9d4862A3dA4d469433FB36Ed80FA2A",
						"blockHash": "0xe6a39974b63e51c1533cd8d69222d4474afbd41b339c0c67bc9d5e641d86ac53",
						"blockNumber": 10154836,
						"data": "0x000000000000000000000000c91586b6fe425d75c6b0f53daf9831811725bd2c",
						"index": 19,
						"topics": [
							"0x4db17dd5e4732fb6da34a148104a592783ca119a1e7bb8829eba6cbadef0b511"
						],
						"transactionHash": "0x5f0982f567aaba82a820c4bb25e00f5d1be922e586e294c701f0fe1d02206747",
						"transactionIndex": 3
					},
					{
						"address": "0x1081B5AA9D9d4862A3dA4d469433FB36Ed80FA2A",
						"blockHash": "0xe6a39974b63e51c1533cd8d69222d4474afbd41b339c0c67bc9d5e641d86ac53",
						"blockNumber": 10154836,
						"data": "0x",
						"index": 20,
						"topics": [
							"0x6895c13664aa4f67288b25d7a21d7aaa34916e355fb9b6fae0a139a9085becb8",
							"0x000000000000000000000000ef1be3c049809cace5bc203bbe4ec1ab284bf75c"
						],
						"transactionHash": "0x5f0982f567aaba82a820c4bb25e00f5d1be922e586e294c701f0fe1d02206747",
						"transactionIndex": 3
					},
					{
						"address": "0xEf1Be3C049809caCe5Bc203BBe4Ec1Ab284bF75c",
						"blockHash": "0xe6a39974b63e51c1533cd8d69222d4474afbd41b339c0c67bc9d5e641d86ac53",
						"blockNumber": 10154836,
						"data": "0x0000000000000000000000000000000000000000000000000000000000000004",
						"index": 21,
						"topics": [
							"0xa65fb05c5808f5f389d72edeaf719ce38f4cc55c1f69ca3cbfb31c21501caa07",
							"0xd585c33ce71711649e9771716c78530681c13a65cc62ef35805d17b1536fb647"
						],
						"transactionHash": "0x5f0982f567aaba82a820c4bb25e00f5d1be922e586e294c701f0fe1d02206747",
						"transactionIndex": 3
					},
					{
						"address": "0x1081B5AA9D9d4862A3dA4d469433FB36Ed80FA2A",
						"blockHash": "0xe6a39974b63e51c1533cd8d69222d4474afbd41b339c0c67bc9d5e641d86ac53",
						"blockNumber": 10154836,
						"data": "0x00000000000000000000000076c87701d0ad2c5c3b40c36617ceba566436a69f",
						"index": 22,
						"topics": [
							"0x4db17dd5e4732fb6da34a148104a592783ca119a1e7bb8829eba6cbadef0b511"
						],
						"transactionHash": "0x5f0982f567aaba82a820c4bb25e00f5d1be922e586e294c701f0fe1d02206747",
						"transactionIndex": 3
					},
					{
						"address": "0x1081B5AA9D9d4862A3dA4d469433FB36Ed80FA2A",
						"blockHash": "0xe6a39974b63e51c1533cd8d69222d4474afbd41b339c0c67bc9d5e641d86ac53",
						"blockNumber": 10154836,
						"data": "0x",
						"index": 23,
						"topics": [
							"0x6895c13664aa4f67288b25d7a21d7aaa34916e355fb9b6fae0a139a9085becb8",
							"0x000000000000000000000000ef1be3c049809cace5bc203bbe4ec1ab284bf75c"
						],
						"transactionHash": "0x5f0982f567aaba82a820c4bb25e00f5d1be922e586e294c701f0fe1d02206747",
						"transactionIndex": 3
					},
					{
						"address": "0xEf1Be3C049809caCe5Bc203BBe4Ec1Ab284bF75c",
						"blockHash": "0xe6a39974b63e51c1533cd8d69222d4474afbd41b339c0c67bc9d5e641d86ac53",
						"blockNumber": 10154836,
						"data": "0x0000000000000000000000000000000000000000000000000000000000000005",
						"index": 24,
						"topics": [
							"0xa65fb05c5808f5f389d72edeaf719ce38f4cc55c1f69ca3cbfb31c21501caa07",
							"0xd585c33ce71711649e9771716c78530681c13a65cc62ef35805d17b1536fb647"
						],
						"transactionHash": "0x5f0982f567aaba82a820c4bb25e00f5d1be922e586e294c701f0fe1d02206747",
						"transactionIndex": 3
					},
					{
						"address": "0xF11c4f44Aa6775d580F751C0956a22105E46D66C",
						"blockHash": "0xe6a39974b63e51c1533cd8d69222d4474afbd41b339c0c67bc9d5e641d86ac53",
						"blockNumber": 10154836,
						"data": "0x",
						"index": 25,
						"topics": [
							"0x8be0079c531659141344cd1fd0a4f28419497f9722a3daafe3b4186f6b6457e0",
							"0x0000000000000000000000000000000000000000000000000000000000000000",
							"0x000000000000000000000000f11c4f44aa6775d580f751c0956a22105e46d66c"
						],
						"transactionHash": "0x5f0982f567aaba82a820c4bb25e00f5d1be922e586e294c701f0fe1d02206747",
						"transactionIndex": 3
					},
					{
						"address": "0x1081B5AA9D9d4862A3dA4d469433FB36Ed80FA2A",
						"blockHash": "0xe6a39974b63e51c1533cd8d69222d4474afbd41b339c0c67bc9d5e641d86ac53",
						"blockNumber": 10154836,
						"data": "0x000000000000000000000000f11c4f44aa6775d580f751c0956a22105e46d66c",
						"index": 26,
						"topics": [
							"0x4db17dd5e4732fb6da34a148104a592783ca119a1e7bb8829eba6cbadef0b511"
						],
						"transactionHash": "0x5f0982f567aaba82a820c4bb25e00f5d1be922e586e294c701f0fe1d02206747",
						"transactionIndex": 3
					},
					{
						"address": "0x1081B5AA9D9d4862A3dA4d469433FB36Ed80FA2A",
						"blockHash": "0xe6a39974b63e51c1533cd8d69222d4474afbd41b339c0c67bc9d5e641d86ac53",
						"blockNumber": 10154836,
						"data": "0x",
						"index": 27,
						"topics": [
							"0x6895c13664aa4f67288b25d7a21d7aaa34916e355fb9b6fae0a139a9085becb8",
							"0x000000000000000000000000ef1be3c049809cace5bc203bbe4ec1ab284bf75c"
						],
						"transactionHash": "0x5f0982f567aaba82a820c4bb25e00f5d1be922e586e294c701f0fe1d02206747",
						"transactionIndex": 3
					},
					{
						"address": "0xEf1Be3C049809caCe5Bc203BBe4Ec1Ab284bF75c",
						"blockHash": "0xe6a39974b63e51c1533cd8d69222d4474afbd41b339c0c67bc9d5e641d86ac53",
						"blockNumber": 10154836,
						"data": "0x0000000000000000000000000000000000000000000000000000000000000006",
						"index": 28,
						"topics": [
							"0xa65fb05c5808f5f389d72edeaf719ce38f4cc55c1f69ca3cbfb31c21501caa07",
							"0xd585c33ce71711649e9771716c78530681c13a65cc62ef35805d17b1536fb647"
						],
						"transactionHash": "0x5f0982f567aaba82a820c4bb25e00f5d1be922e586e294c701f0fe1d02206747",
						"transactionIndex": 3
					},
					{
						"address": "0x1081B5AA9D9d4862A3dA4d469433FB36Ed80FA2A",
						"blockHash": "0xe6a39974b63e51c1533cd8d69222d4474afbd41b339c0c67bc9d5e641d86ac53",
						"blockNumber": 10154836,
						"data": "0x000000000000000000000000f25dce432b7ed1ccd5f0a2481f980862e359a092",
						"index": 29,
						"topics": [
							"0x4db17dd5e4732fb6da34a148104a592783ca119a1e7bb8829eba6cbadef0b511"
						],
						"transactionHash": "0x5f0982f567aaba82a820c4bb25e00f5d1be922e586e294c701f0fe1d02206747",
						"transactionIndex": 3
					},
					{
						"address": "0x1081B5AA9D9d4862A3dA4d469433FB36Ed80FA2A",
						"blockHash": "0xe6a39974b63e51c1533cd8d69222d4474afbd41b339c0c67bc9d5e641d86ac53",
						"blockNumber": 10154836,
						"data": "0x",
						"index": 30,
						"topics": [
							"0x6895c13664aa4f67288b25d7a21d7aaa34916e355fb9b6fae0a139a9085becb8",
							"0x000000000000000000000000ef1be3c049809cace5bc203bbe4ec1ab284bf75c"
						],
						"transactionHash": "0x5f0982f567aaba82a820c4bb25e00f5d1be922e586e294c701f0fe1d02206747",
						"transactionIndex": 3
					},
					{
						"address": "0xEf1Be3C049809caCe5Bc203BBe4Ec1Ab284bF75c",
						"blockHash": "0xe6a39974b63e51c1533cd8d69222d4474afbd41b339c0c67bc9d5e641d86ac53",
						"blockNumber": 10154836,
						"data": "0x0000000000000000000000000000000000000000000000000000000000000007",
						"index": 31,
						"topics": [
							"0xa65fb05c5808f5f389d72edeaf719ce38f4cc55c1f69ca3cbfb31c21501caa07",
							"0xd585c33ce71711649e9771716c78530681c13a65cc62ef35805d17b1536fb647"
						],
						"transactionHash": "0x5f0982f567aaba82a820c4bb25e00f5d1be922e586e294c701f0fe1d02206747",
						"transactionIndex": 3
					},
					{
						"address": "0x1081B5AA9D9d4862A3dA4d469433FB36Ed80FA2A",
						"blockHash": "0xe6a39974b63e51c1533cd8d69222d4474afbd41b339c0c67bc9d5e641d86ac53",
						"blockNumber": 10154836,
						"data": "0x0000000000000000000000002ef536bf2b361b69bf21eb02ce8b11911869fa6c",
						"index": 32,
						"topics": [
							"0x4db17dd5e4732fb6da34a148104a592783ca119a1e7bb8829eba6cbadef0b511"
						],
						"transactionHash": "0x5f0982f567aaba82a820c4bb25e00f5d1be922e586e294c701f0fe1d02206747",
						"transactionIndex": 3
					},
					{
						"address": "0x1081B5AA9D9d4862A3dA4d469433FB36Ed80FA2A",
						"blockHash": "0xe6a39974b63e51c1533cd8d69222d4474afbd41b339c0c67bc9d5e641d86ac53",
						"blockNumber": 10154836,
						"data": "0x",
						"index": 33,
						"topics": [
							"0x6895c13664aa4f67288b25d7a21d7aaa34916e355fb9b6fae0a139a9085becb8",
							"0x000000000000000000000000ef1be3c049809cace5bc203bbe4ec1ab284bf75c"
						],
						"transactionHash": "0x5f0982f567aaba82a820c4bb25e00f5d1be922e586e294c701f0fe1d02206747",
						"transactionIndex": 3
					},
					{
						"address": "0xEf1Be3C049809caCe5Bc203BBe4Ec1Ab284bF75c",
						"blockHash": "0xe6a39974b63e51c1533cd8d69222d4474afbd41b339c0c67bc9d5e641d86ac53",
						"blockNumber": 10154836,
						"data": "0x0000000000000000000000000000000000000000000000000000000000000008",
						"index": 34,
						"topics": [
							"0xa65fb05c5808f5f389d72edeaf719ce38f4cc55c1f69ca3cbfb31c21501caa07",
							"0xd585c33ce71711649e9771716c78530681c13a65cc62ef35805d17b1536fb647"
						],
						"transactionHash": "0x5f0982f567aaba82a820c4bb25e00f5d1be922e586e294c701f0fe1d02206747",
						"transactionIndex": 3
					}
				],
				"logsBloom": "0x00800000080010000008000000080200000000040008000000800000004000000060008000000001000000000040020000000000000000000000000000040000000000100000200420000008020000000001000000040000000200000000000000000000020000000000000000000800000000100020000010020010000200400001000800000000000100000000000000000000000000000000804000000000004000000010000000000000000002020a00000000000000000000000006000000000002000000200000000008000000010100008000000020000000000060000000000000000004000000000040080200000000804000000000000000000000",
				"status": 1,
				"to": "0xB5E96127D417b1B3ef8438496a38A143167209c7"
			},
			"metadata": "{\"compiler\":{\"version\":\"0.8.23+commit.f704f362\"},\"language\":\"Solidity\",\"output\":{\"abi\":[{\"inputs\":[],\"type\":\"error\",\"name\":\"PERMISSION_ID_OUT_OF_BOUNDS\"},{\"inputs\":[],\"type\":\"error\",\"name\":\"UNAUTHORIZED\"},{\"inputs\":[{\"internalType\":\"address\",\"name\":\"operator\",\"type\":\"address\",\"indexed\":true},{\"internalType\":\"address\",\"name\":\"account\",\"type\":\"address\",\"indexed\":true},{\"internalType\":\"uint256\",\"name\":\"projectId\",\"type\":\"uint256\",\"indexed\":true},{\"internalType\":\"uint256[]\",\"name\":\"permissionIds\",\"type\":\"uint256[]\",\"indexed\":false},{\"internalType\":\"uint256\",\"name\":\"packed\",\"type\":\"uint256\",\"indexed\":false},{\"internalType\":\"address\",\"name\":\"caller\",\"type\":\"address\",\"indexed\":false}],\"type\":\"event\",\"name\":\"OperatorPermissionsSet\",\"anonymous\":false},{\"inputs\":[{\"internalType\":\"address\",\"name\":\"operator\",\"type\":\"address\"},{\"internalType\":\"address\",\"name\":\"account\",\"type\":\"address\"},{\"internalType\":\"uint256\",\"name\":\"projectId\",\"type\":\"uint256\"},{\"internalType\":\"uint256\",\"name\":\"permissionId\",\"type\":\"uint256\"}],\"stateMutability\":\"view\",\"type\":\"function\",\"name\":\"hasPermission\",\"outputs\":[{\"internalType\":\"bool\",\"name\":\"\",\"type\":\"bool\"}]},{\"inputs\":[{\"internalType\":\"address\",\"name\":\"operator\",\"type\":\"address\"},{\"internalType\":\"address\",\"name\":\"account\",\"type\":\"address\"},{\"internalType\":\"uint256\",\"name\":\"projectId\",\"type\":\"uint256\"},{\"internalType\":\"uint256[]\",\"name\":\"permissionIds\",\"type\":\"uint256[]\"}],\"stateMutability\":\"view\",\"type\":\"function\",\"name\":\"hasPermissions\",\"outputs\":[{\"internalType\":\"bool\",\"name\":\"\",\"type\":\"bool\"}]},{\"inputs\":[{\"internalType\":\"address\",\"name\":\"operator\",\"type\":\"address\"},{\"internalType\":\"address\",\"name\":\"account\",\"type\":\"address\"},{\"internalType\":\"uint256\",\"name\":\"projectId\",\"type\":\"uint256\"}],\"stateMutability\":\"view\",\"type\":\"function\",\"name\":\"permissionsOf\",\"outputs\":[{\"internalType\":\"uint256\",\"name\":\"\",\"type\":\"uint256\"}]},{\"inputs\":[{\"internalType\":\"address\",\"name\":\"account\",\"type\":\"address\"},{\"internalType\":\"struct JBPermissionsData\",\"name\":\"permissionsData\",\"type\":\"tuple\",\"components\":[{\"internalType\":\"address\",\"name\":\"operator\",\"type\":\"address\"},{\"internalType\":\"uint256\",\"name\":\"projectId\",\"type\":\"uint256\"},{\"internalType\":\"uint256[]\",\"name\":\"permissionIds\",\"type\":\"uint256[]\"}]}],\"stateMutability\":\"nonpayable\",\"type\":\"function\",\"name\":\"setPermissionsFor\"}],\"devdoc\":{\"kind\":\"dev\",\"methods\":{\"hasPermission(address,address,uint256,uint256)\":{\"params\":{\"account\":\"The account being operated on behalf of.\",\"operator\":\"The operator to check.\",\"permissionId\":\"The permission ID to check for.\",\"projectId\":\"The project ID that the operator has permission to operate under. 0 represents all projects.\"},\"returns\":{\"_0\":\"A flag indicating whether the operator has the specified permission.\"}},\"hasPermissions(address,address,uint256,uint256[])\":{\"params\":{\"account\":\"The account being operated on behalf of.\",\"operator\":\"The operator to check.\",\"permissionIds\":\"An array of permission IDs to check for.\",\"projectId\":\"The project ID that the operator has permission to operate under. 0 represents all projects.\"},\"returns\":{\"_0\":\"A flag indicating whether the operator has all specified permissions.\"}},\"setPermissionsFor(address,(address,uint256,uint256[]))\":{\"details\":\"Only an address can give permissions to or revoke permissions from its operators.\",\"params\":{\"account\":\"The account setting its operators' permissions.\",\"permissionsData\":\"The data which specifies the permissions the operator is being given.\"}}},\"version\":1},\"userdoc\":{\"kind\":\"user\",\"methods\":{\"hasPermission(address,address,uint256,uint256)\":{\"notice\":\"Check if an operator has a specific permission for a specific address and project ID.\"},\"hasPermissions(address,address,uint256,uint256[])\":{\"notice\":\"Check if an operator has all of the specified permissions for a specific address and project ID.\"},\"permissionsOf(address,address,uint256)\":{\"notice\":\"The permissions that an operator has been given by an account for a specific project.\"},\"setPermissionsFor(address,(address,uint256,uint256[]))\":{\"notice\":\"Sets permissions for an operator.\"}},\"version\":1}},\"settings\":{\"remappings\":[\"@bananapus/=node_modules/@bananapus/\",\"@chainlink/=node_modules/@chainlink/\",\"@eth-optimism/=node_modules/@eth-optimism/\",\"@gnosis.pm/=node_modules/@gnosis.pm/\",\"@openzeppelin/=node_modules/@openzeppelin/\",\"@prb/=node_modules/@prb/\",\"@sphinx-labs/contracts/=lib/sphinx/packages/contracts/contracts/foundry/\",\"@uniswap/=node_modules/@uniswap/\",\"ds-test/=lib/forge-std/lib/ds-test/src/\",\"forge-std/=lib/forge-std/src/\",\"hardhat/=node_modules/hardhat/\",\"solmate/=node_modules/solmate/\",\"sphinx-forge-std/=node_modules/sphinx-forge-std/\",\"sphinx-solmate/=node_modules/sphinx-solmate/\",\"sphinx/=lib/sphinx/\"],\"optimizer\":{\"enabled\":true,\"runs\":200},\"metadata\":{\"bytecodeHash\":\"ipfs\"},\"compilationTarget\":{\"src/JBPermissions.sol\":\"JBPermissions\"},\"evmVersion\":\"paris\",\"libraries\":{}},\"sources\":{\"node_modules/@bananapus/permission-ids/src/JBPermissionIds.sol\":{\"keccak256\":\"0xf61109f6b217a80d5e5391f548fb6f2e451f7dbee3fabfc04cf17e88722203bc\",\"urls\":[\"bzz-raw://ac776ab1cd621c22bd7973471acdfa187f3abc659ad9a3ef6ed10b6447dfcf9c\",\"dweb:/ipfs/QmYLbaHt68qcuMzkiKpe96jMjiWUq1F3u8yMhxmZ3pnnWu\"],\"license\":\"MIT\"},\"src/JBPermissions.sol\":{\"keccak256\":\"0x7da24403b8346799cf5235cfe30a2babf6922042914715bbbfa8350cbc1c881a\",\"urls\":[\"bzz-raw://5bc08e30f81c5b0ed4e64814fe1a6642824a5afb6e6ba2ba8db6cf3040c45489\",\"dweb:/ipfs/QmXvfCmYpRUi3kGxDAMDhQnDWD7NogyXuA7Tyk9vEEJQRq\"],\"license\":\"MIT\"},\"src/interfaces/IJBPermissions.sol\":{\"keccak256\":\"0x18870e500edf0fbadc353e273a5574701fb80466376b908c65e7cc3f11044d4d\",\"urls\":[\"bzz-raw://352a47c45853aec80e7acf0d286ade3106eb4cb456776b28a3c2f3f1091bed90\",\"dweb:/ipfs/QmQeYd3YbudYZy2hfbfht9kwhxhw4tuuLKMEYy9UY6dcSy\"],\"license\":\"MIT\"},\"src/structs/JBPermissionsData.sol\":{\"keccak256\":\"0x8f0f69a6ebf5f3704e3dfcb3712fb9d3f94ae7c1ab89bf3e37bad42a3e7a0487\",\"urls\":[\"bzz-raw://57b0c5e52843e2217082889ed47b4da3943e0da4590d5768dcebfe3edad4a6b8\",\"dweb:/ipfs/QmRz48vuWLw81kUP836rh1qzqWiJFGbksgRUA9xGEDNKTY\"],\"license\":\"MIT\"}},\"version\":1}",
			"args": [],
			"bytecode": "0x608060405234801561001057600080fd5b5061060e806100206000396000f3fe608060405234801561001057600080fd5b506004361061004c5760003560e01c806305d2912e146100515780630f5932f01461006657806380deb2301461008e578063c161c93f146100cc575b600080fd5b61006461005f36600461038f565b6100df565b005b6100796100743660046103e4565b610206565b60405190151581526020015b60405180910390f35b6100be61009c366004610482565b6000602081815293815260408082208552928152828120909352825290205481565b604051908152602001610085565b6100796100da3660046104be565b6102af565b336001600160a01b0383161480159061010657506101043383836020013560016102af565b155b801561011d575061011b3383600060016102af565b155b1561013b5760405163075fd2b160e01b815260040160405180910390fd5b600061015261014d6040840184610500565b610310565b9050806000806101656020860186610551565b6001600160a01b039081168252602080830193909352604091820160009081209188168082529184528281208785018035808452919095529290209390935591906101b09085610551565b6001600160a01b03167ff8cdf10a0ce6189c6d069e97320ef146e2bcbd32d6c0b86dcbfbf3bd8578fa706101e76040870187610500565b86336040516101f99493929190610573565b60405180910390a4505050565b6001600160a01b0380861660009081526020818152604080832093881683529281528282208683529052908120548190815b8481101561029e57858582818110610252576102526105c2565b90506020020135925060ff83111561027d576040516334f9a01d60e21b815260040160405180910390fd5b600182841c1660000361029657600093505050506102a6565b600101610238565b506001925050505b95945050505050565b600060ff8211156102d3576040516334f9a01d60e21b815260040160405180910390fd5b506001600160a01b03808516600090815260208181526040808320938716835292815282822085835290522054600190821c811614949350505050565b60008060005b8381101561036b57848482818110610330576103306105c2565b90506020020135915060ff82111561035b576040516334f9a01d60e21b815260040160405180910390fd5b600180831b939093179201610316565b505092915050565b80356001600160a01b038116811461038a57600080fd5b919050565b600080604083850312156103a257600080fd5b6103ab83610373565b9150602083013567ffffffffffffffff8111156103c757600080fd5b8301606081860312156103d957600080fd5b809150509250929050565b6000806000806000608086880312156103fc57600080fd5b61040586610373565b945061041360208701610373565b935060408601359250606086013567ffffffffffffffff8082111561043757600080fd5b818801915088601f83011261044b57600080fd5b81358181111561045a57600080fd5b8960208260051b850101111561046f57600080fd5b9699959850939650602001949392505050565b60008060006060848603121561049757600080fd5b6104a084610373565b92506104ae60208501610373565b9150604084013590509250925092565b600080600080608085870312156104d457600080fd5b6104dd85610373565b93506104eb60208601610373565b93969395505050506040820135916060013590565b6000808335601e1984360301811261051757600080fd5b83018035915067ffffffffffffffff82111561053257600080fd5b6020019150600581901b360382131561054a57600080fd5b9250929050565b60006020828403121561056357600080fd5b61056c82610373565b9392505050565b6060808252810184905260006001600160fb1b0385111561059357600080fd5b8460051b808760808501376020830194909452506001600160a01b039190911660408201520160800192915050565b634e487b7160e01b600052603260045260246000fdfea264697066735822122049b888ac0a67010ae5f71f9b0b36c1a777717acfb2cd2c7a09ab9c7ebad2c64064736f6c63430008170033",
			"deployedBytecode": "0x608060405234801561001057600080fd5b506004361061004c5760003560e01c806305d2912e146100515780630f5932f01461006657806380deb2301461008e578063c161c93f146100cc575b600080fd5b61006461005f36600461038f565b6100df565b005b6100796100743660046103e4565b610206565b60405190151581526020015b60405180910390f35b6100be61009c366004610482565b6000602081815293815260408082208552928152828120909352825290205481565b604051908152602001610085565b6100796100da3660046104be565b6102af565b336001600160a01b0383161480159061010657506101043383836020013560016102af565b155b801561011d575061011b3383600060016102af565b155b1561013b5760405163075fd2b160e01b815260040160405180910390fd5b600061015261014d6040840184610500565b610310565b9050806000806101656020860186610551565b6001600160a01b039081168252602080830193909352604091820160009081209188168082529184528281208785018035808452919095529290209390935591906101b09085610551565b6001600160a01b03167ff8cdf10a0ce6189c6d069e97320ef146e2bcbd32d6c0b86dcbfbf3bd8578fa706101e76040870187610500565b86336040516101f99493929190610573565b60405180910390a4505050565b6001600160a01b0380861660009081526020818152604080832093881683529281528282208683529052908120548190815b8481101561029e57858582818110610252576102526105c2565b90506020020135925060ff83111561027d576040516334f9a01d60e21b815260040160405180910390fd5b600182841c1660000361029657600093505050506102a6565b600101610238565b506001925050505b95945050505050565b600060ff8211156102d3576040516334f9a01d60e21b815260040160405180910390fd5b506001600160a01b03808516600090815260208181526040808320938716835292815282822085835290522054600190821c811614949350505050565b60008060005b8381101561036b57848482818110610330576103306105c2565b90506020020135915060ff82111561035b576040516334f9a01d60e21b815260040160405180910390fd5b600180831b939093179201610316565b505092915050565b80356001600160a01b038116811461038a57600080fd5b919050565b600080604083850312156103a257600080fd5b6103ab83610373565b9150602083013567ffffffffffffffff8111156103c757600080fd5b8301606081860312156103d957600080fd5b809150509250929050565b6000806000806000608086880312156103fc57600080fd5b61040586610373565b945061041360208701610373565b935060408601359250606086013567ffffffffffffffff8082111561043757600080fd5b818801915088601f83011261044b57600080fd5b81358181111561045a57600080fd5b8960208260051b850101111561046f57600080fd5b9699959850939650602001949392505050565b60008060006060848603121561049757600080fd5b6104a084610373565b92506104ae60208501610373565b9150604084013590509250925092565b600080600080608085870312156104d457600080fd5b6104dd85610373565b93506104eb60208601610373565b93969395505050506040820135916060013590565b6000808335601e1984360301811261051757600080fd5b83018035915067ffffffffffffffff82111561053257600080fd5b6020019150600581901b360382131561054a57600080fd5b9250929050565b60006020828403121561056357600080fd5b61056c82610373565b9392505050565b6060808252810184905260006001600160fb1b0385111561059357600080fd5b8460051b808760808501376020830194909452506001600160a01b039190911660408201520160800192915050565b634e487b7160e01b600052603260045260246000fdfea264697066735822122049b888ac0a67010ae5f71f9b0b36c1a777717acfb2cd2c7a09ab9c7ebad2c64064736f6c63430008170033",
			"devdoc": {
				"kind": "dev",
				"methods": {
					"hasPermission(address,address,uint256,uint256)": {
						"params": {
							"account": "The account being operated on behalf of.",
							"operator": "The operator to check.",
							"permissionId": "The permission ID to check for.",
							"projectId": "The project ID that the operator has permission to operate under. 0 represents all projects."
						},
						"returns": {
							"_0": "A flag indicating whether the operator has the specified permission."
						}
					},
					"hasPermissions(address,address,uint256,uint256[])": {
						"params": {
							"account": "The account being operated on behalf of.",
							"operator": "The operator to check.",
							"permissionIds": "An array of permission IDs to check for.",
							"projectId": "The project ID that the operator has permission to operate under. 0 represents all projects."
						},
						"returns": {
							"_0": "A flag indicating whether the operator has all specified permissions."
						}
					},
					"setPermissionsFor(address,(address,uint256,uint256[]))": {
						"details": "Only an address can give permissions to or revoke permissions from its operators.",
						"params": {
							"account": "The account setting its operators' permissions.",
							"permissionsData": "The data which specifies the permissions the operator is being given."
						}
					}
				},
				"version": 1
			},
			"userdoc": {
				"kind": "user",
				"methods": {
					"hasPermission(address,address,uint256,uint256)": {
						"notice": "Check if an operator has a specific permission for a specific address and project ID."
					},
					"hasPermissions(address,address,uint256,uint256[])": {
						"notice": "Check if an operator has all of the specified permissions for a specific address and project ID."
					},
					"permissionsOf(address,address,uint256)": {
						"notice": "The permissions that an operator has been given by an account for a specific project."
					},
					"setPermissionsFor(address,(address,uint256,uint256[]))": {
						"notice": "Sets permissions for an operator."
					}
				},
				"version": 1
			},
			"gitCommit": "810aab8b9c3a0626e80bb9e6b819daaf6dcfee82",
			"sourceName": "src/JBPermissions.sol",
			"chainId": "11155420",
			"linkReferences": {},
			"deployedLinkReferences": {}
		},
		{
			"_format": "sphinx-sol-ct-artifact-1",
			"merkleRoot": "0xeb3166bda3fcd69ca05fdf479239793e480a434f3066bc23b43dcbae1f55c908",
			"contractName": "JBPermissions",
			"address": "0x711eda44F3D42F3d255846b5EE36Cf70Fd912E50",
			"abi": [
				{
					"type": "function",
					"name": "hasPermission",
					"inputs": [
						{
							"name": "operator",
							"type": "address",
							"internalType": "address"
						},
						{
							"name": "account",
							"type": "address",
							"internalType": "address"
						},
						{
							"name": "projectId",
							"type": "uint256",
							"internalType": "uint256"
						},
						{
							"name": "permissionId",
							"type": "uint256",
							"internalType": "uint256"
						}
					],
					"outputs": [
						{
							"name": "",
							"type": "bool",
							"internalType": "bool"
						}
					],
					"stateMutability": "view"
				},
				{
					"type": "function",
					"name": "hasPermissions",
					"inputs": [
						{
							"name": "operator",
							"type": "address",
							"internalType": "address"
						},
						{
							"name": "account",
							"type": "address",
							"internalType": "address"
						},
						{
							"name": "projectId",
							"type": "uint256",
							"internalType": "uint256"
						},
						{
							"name": "permissionIds",
							"type": "uint256[]",
							"internalType": "uint256[]"
						}
					],
					"outputs": [
						{
							"name": "",
							"type": "bool",
							"internalType": "bool"
						}
					],
					"stateMutability": "view"
				},
				{
					"type": "function",
					"name": "permissionsOf",
					"inputs": [
						{
							"name": "operator",
							"type": "address",
							"internalType": "address"
						},
						{
							"name": "account",
							"type": "address",
							"internalType": "address"
						},
						{
							"name": "projectId",
							"type": "uint256",
							"internalType": "uint256"
						}
					],
					"outputs": [
						{
							"name": "",
							"type": "uint256",
							"internalType": "uint256"
						}
					],
					"stateMutability": "view"
				},
				{
					"type": "function",
					"name": "setPermissionsFor",
					"inputs": [
						{
							"name": "account",
							"type": "address",
							"internalType": "address"
						},
						{
							"name": "permissionsData",
							"type": "tuple",
							"internalType": "struct JBPermissionsData",
							"components": [
								{
									"name": "operator",
									"type": "address",
									"internalType": "address"
								},
								{
									"name": "projectId",
									"type": "uint256",
									"internalType": "uint256"
								},
								{
									"name": "permissionIds",
									"type": "uint256[]",
									"internalType": "uint256[]"
								}
							]
						}
					],
					"outputs": [],
					"stateMutability": "nonpayable"
				},
				{
					"type": "event",
					"name": "OperatorPermissionsSet",
					"inputs": [
						{
							"name": "operator",
							"type": "address",
							"indexed": true,
							"internalType": "address"
						},
						{
							"name": "account",
							"type": "address",
							"indexed": true,
							"internalType": "address"
						},
						{
							"name": "projectId",
							"type": "uint256",
							"indexed": true,
							"internalType": "uint256"
						},
						{
							"name": "permissionIds",
							"type": "uint256[]",
							"indexed": false,
							"internalType": "uint256[]"
						},
						{
							"name": "packed",
							"type": "uint256",
							"indexed": false,
							"internalType": "uint256"
						},
						{
							"name": "caller",
							"type": "address",
							"indexed": false,
							"internalType": "address"
						}
					],
					"anonymous": false
				},
				{
					"type": "error",
					"name": "PERMISSION_ID_OUT_OF_BOUNDS",
					"inputs": []
				},
				{
					"type": "error",
					"name": "UNAUTHORIZED",
					"inputs": []
				}
			],
			"solcInputHash": "ca7cc2b8e77e7f12f966f059a5ca4cba",
			"receipt": {
				"blockHash": "0x957d33848c51e9d17cd5a4f27dc1d2661c348cbd2c98f985a43b9c5397a2a481",
				"blockNumber": 10495912,
				"contractAddress": null,
				"cumulativeGasUsed": "11070428",
				"from": "0xC034550B542b83BA1De312b21d1C94a9a52B1595",
				"gasPrice": "1000252",
				"gasUsed": "11026553",
				"hash": "0xbc0142b5f7f7d89f3f7200de714bba291922982c05e62668899cd59a9dfce750",
				"index": 1,
				"logs": [
					{
						"address": "0xB5E96127D417b1B3ef8438496a38A143167209c7",
						"blockHash": "0x957d33848c51e9d17cd5a4f27dc1d2661c348cbd2c98f985a43b9c5397a2a481",
						"blockNumber": 10495912,
						"data": "0x0000000000000000000000000000000000000000000000000000000000000000",
						"index": 0,
						"topics": [
							"0x572f161235911da04685a68c06adf558fc7e4a36909dca394650e0adc19cc93d",
							"0x000000000000000000000000c034550b542b83ba1de312b21d1c94a9a52b1595",
							"0x000000000000000000000000ef1be3c049809cace5bc203bbe4ec1ab284bf75c",
							"0x2132e14b549040da8e50a8dded85fde682c71cafa6e8a85bbf1717ffac85b812"
						],
						"transactionHash": "0xbc0142b5f7f7d89f3f7200de714bba291922982c05e62668899cd59a9dfce750",
						"transactionIndex": 1
					},
					{
						"address": "0x1081B5AA9D9d4862A3dA4d469433FB36Ed80FA2A",
						"blockHash": "0x957d33848c51e9d17cd5a4f27dc1d2661c348cbd2c98f985a43b9c5397a2a481",
						"blockNumber": 10495912,
						"data": "0x000000000000000000000000711eda44f3d42f3d255846b5ee36cf70fd912e50",
						"index": 1,
						"topics": [
							"0x4db17dd5e4732fb6da34a148104a592783ca119a1e7bb8829eba6cbadef0b511"
						],
						"transactionHash": "0xbc0142b5f7f7d89f3f7200de714bba291922982c05e62668899cd59a9dfce750",
						"transactionIndex": 1
					},
					{
						"address": "0x1081B5AA9D9d4862A3dA4d469433FB36Ed80FA2A",
						"blockHash": "0x957d33848c51e9d17cd5a4f27dc1d2661c348cbd2c98f985a43b9c5397a2a481",
						"blockNumber": 10495912,
						"data": "0x",
						"index": 2,
						"topics": [
							"0x6895c13664aa4f67288b25d7a21d7aaa34916e355fb9b6fae0a139a9085becb8",
							"0x000000000000000000000000ef1be3c049809cace5bc203bbe4ec1ab284bf75c"
						],
						"transactionHash": "0xbc0142b5f7f7d89f3f7200de714bba291922982c05e62668899cd59a9dfce750",
						"transactionIndex": 1
					},
					{
						"address": "0xEf1Be3C049809caCe5Bc203BBe4Ec1Ab284bF75c",
						"blockHash": "0x957d33848c51e9d17cd5a4f27dc1d2661c348cbd2c98f985a43b9c5397a2a481",
						"blockNumber": 10495912,
						"data": "0x0000000000000000000000000000000000000000000000000000000000000001",
						"index": 3,
						"topics": [
							"0xa65fb05c5808f5f389d72edeaf719ce38f4cc55c1f69ca3cbfb31c21501caa07",
							"0xeb3166bda3fcd69ca05fdf479239793e480a434f3066bc23b43dcbae1f55c908"
						],
						"transactionHash": "0xbc0142b5f7f7d89f3f7200de714bba291922982c05e62668899cd59a9dfce750",
						"transactionIndex": 1
					},
					{
						"address": "0xfa679f5ecdd8bE404c1FbAa7f29aEB2b12F5B662",
						"blockHash": "0x957d33848c51e9d17cd5a4f27dc1d2661c348cbd2c98f985a43b9c5397a2a481",
						"blockNumber": 10495912,
						"data": "0x",
						"index": 4,
						"topics": [
							"0x8be0079c531659141344cd1fd0a4f28419497f9722a3daafe3b4186f6b6457e0",
							"0x0000000000000000000000000000000000000000000000000000000000000000",
							"0x0000000000000000000000001081b5aa9d9d4862a3da4d469433fb36ed80fa2a"
						],
						"transactionHash": "0xbc0142b5f7f7d89f3f7200de714bba291922982c05e62668899cd59a9dfce750",
						"transactionIndex": 1
					},
					{
						"address": "0xfa679f5ecdd8bE404c1FbAa7f29aEB2b12F5B662",
						"blockHash": "0x957d33848c51e9d17cd5a4f27dc1d2661c348cbd2c98f985a43b9c5397a2a481",
						"blockNumber": 10495912,
						"data": "0x",
						"index": 5,
						"topics": [
							"0xddf252ad1be2c89b69c2b068fc378daa952ba7f163c4a11628f55a4df523b3ef",
							"0x0000000000000000000000000000000000000000000000000000000000000000",
							"0x0000000000000000000000001081b5aa9d9d4862a3da4d469433fb36ed80fa2a",
							"0x0000000000000000000000000000000000000000000000000000000000000001"
						],
						"transactionHash": "0xbc0142b5f7f7d89f3f7200de714bba291922982c05e62668899cd59a9dfce750",
						"transactionIndex": 1
					},
					{
						"address": "0xfa679f5ecdd8bE404c1FbAa7f29aEB2b12F5B662",
						"blockHash": "0x957d33848c51e9d17cd5a4f27dc1d2661c348cbd2c98f985a43b9c5397a2a481",
						"blockNumber": 10495912,
						"data": "0x0000000000000000000000001081b5aa9d9d4862a3da4d469433fb36ed80fa2a",
						"index": 6,
						"topics": [
							"0x365b3162cd780731fc55a794b59494d472bc2af701007f581843a70673814698",
							"0x0000000000000000000000000000000000000000000000000000000000000001",
							"0x0000000000000000000000001081b5aa9d9d4862a3da4d469433fb36ed80fa2a"
						],
						"transactionHash": "0xbc0142b5f7f7d89f3f7200de714bba291922982c05e62668899cd59a9dfce750",
						"transactionIndex": 1
					},
					{
						"address": "0x1081B5AA9D9d4862A3dA4d469433FB36Ed80FA2A",
						"blockHash": "0x957d33848c51e9d17cd5a4f27dc1d2661c348cbd2c98f985a43b9c5397a2a481",
						"blockNumber": 10495912,
						"data": "0x000000000000000000000000fa679f5ecdd8be404c1fbaa7f29aeb2b12f5b662",
						"index": 7,
						"topics": [
							"0x4db17dd5e4732fb6da34a148104a592783ca119a1e7bb8829eba6cbadef0b511"
						],
						"transactionHash": "0xbc0142b5f7f7d89f3f7200de714bba291922982c05e62668899cd59a9dfce750",
						"transactionIndex": 1
					},
					{
						"address": "0x1081B5AA9D9d4862A3dA4d469433FB36Ed80FA2A",
						"blockHash": "0x957d33848c51e9d17cd5a4f27dc1d2661c348cbd2c98f985a43b9c5397a2a481",
						"blockNumber": 10495912,
						"data": "0x",
						"index": 8,
						"topics": [
							"0x6895c13664aa4f67288b25d7a21d7aaa34916e355fb9b6fae0a139a9085becb8",
							"0x000000000000000000000000ef1be3c049809cace5bc203bbe4ec1ab284bf75c"
						],
						"transactionHash": "0xbc0142b5f7f7d89f3f7200de714bba291922982c05e62668899cd59a9dfce750",
						"transactionIndex": 1
					},
					{
						"address": "0xEf1Be3C049809caCe5Bc203BBe4Ec1Ab284bF75c",
						"blockHash": "0x957d33848c51e9d17cd5a4f27dc1d2661c348cbd2c98f985a43b9c5397a2a481",
						"blockNumber": 10495912,
						"data": "0x0000000000000000000000000000000000000000000000000000000000000002",
						"index": 9,
						"topics": [
							"0xa65fb05c5808f5f389d72edeaf719ce38f4cc55c1f69ca3cbfb31c21501caa07",
							"0xeb3166bda3fcd69ca05fdf479239793e480a434f3066bc23b43dcbae1f55c908"
						],
						"transactionHash": "0xbc0142b5f7f7d89f3f7200de714bba291922982c05e62668899cd59a9dfce750",
						"transactionIndex": 1
					},
					{
						"address": "0x44d360C8c4105f180e07668bd3374c7A6F812FAF",
						"blockHash": "0x957d33848c51e9d17cd5a4f27dc1d2661c348cbd2c98f985a43b9c5397a2a481",
						"blockNumber": 10495912,
						"data": "0x",
						"index": 10,
						"topics": [
							"0x8be0079c531659141344cd1fd0a4f28419497f9722a3daafe3b4186f6b6457e0",
							"0x0000000000000000000000000000000000000000000000000000000000000000",
							"0x0000000000000000000000001081b5aa9d9d4862a3da4d469433fb36ed80fa2a"
						],
						"transactionHash": "0xbc0142b5f7f7d89f3f7200de714bba291922982c05e62668899cd59a9dfce750",
						"transactionIndex": 1
					},
					{
						"address": "0x1081B5AA9D9d4862A3dA4d469433FB36Ed80FA2A",
						"blockHash": "0x957d33848c51e9d17cd5a4f27dc1d2661c348cbd2c98f985a43b9c5397a2a481",
						"blockNumber": 10495912,
						"data": "0x00000000000000000000000044d360c8c4105f180e07668bd3374c7a6f812faf",
						"index": 11,
						"topics": [
							"0x4db17dd5e4732fb6da34a148104a592783ca119a1e7bb8829eba6cbadef0b511"
						],
						"transactionHash": "0xbc0142b5f7f7d89f3f7200de714bba291922982c05e62668899cd59a9dfce750",
						"transactionIndex": 1
					},
					{
						"address": "0x1081B5AA9D9d4862A3dA4d469433FB36Ed80FA2A",
						"blockHash": "0x957d33848c51e9d17cd5a4f27dc1d2661c348cbd2c98f985a43b9c5397a2a481",
						"blockNumber": 10495912,
						"data": "0x",
						"index": 12,
						"topics": [
							"0x6895c13664aa4f67288b25d7a21d7aaa34916e355fb9b6fae0a139a9085becb8",
							"0x000000000000000000000000ef1be3c049809cace5bc203bbe4ec1ab284bf75c"
						],
						"transactionHash": "0xbc0142b5f7f7d89f3f7200de714bba291922982c05e62668899cd59a9dfce750",
						"transactionIndex": 1
					},
					{
						"address": "0xEf1Be3C049809caCe5Bc203BBe4Ec1Ab284bF75c",
						"blockHash": "0x957d33848c51e9d17cd5a4f27dc1d2661c348cbd2c98f985a43b9c5397a2a481",
						"blockNumber": 10495912,
						"data": "0x0000000000000000000000000000000000000000000000000000000000000003",
						"index": 13,
						"topics": [
							"0xa65fb05c5808f5f389d72edeaf719ce38f4cc55c1f69ca3cbfb31c21501caa07",
							"0xeb3166bda3fcd69ca05fdf479239793e480a434f3066bc23b43dcbae1f55c908"
						],
						"transactionHash": "0xbc0142b5f7f7d89f3f7200de714bba291922982c05e62668899cd59a9dfce750",
						"transactionIndex": 1
					},
					{
						"address": "0x1081B5AA9D9d4862A3dA4d469433FB36Ed80FA2A",
						"blockHash": "0x957d33848c51e9d17cd5a4f27dc1d2661c348cbd2c98f985a43b9c5397a2a481",
						"blockNumber": 10495912,
						"data": "0x00000000000000000000000026cb60fc2323d1a4309f35497e5a881fe1f3d2ac",
						"index": 14,
						"topics": [
							"0x4db17dd5e4732fb6da34a148104a592783ca119a1e7bb8829eba6cbadef0b511"
						],
						"transactionHash": "0xbc0142b5f7f7d89f3f7200de714bba291922982c05e62668899cd59a9dfce750",
						"transactionIndex": 1
					},
					{
						"address": "0x1081B5AA9D9d4862A3dA4d469433FB36Ed80FA2A",
						"blockHash": "0x957d33848c51e9d17cd5a4f27dc1d2661c348cbd2c98f985a43b9c5397a2a481",
						"blockNumber": 10495912,
						"data": "0x",
						"index": 15,
						"topics": [
							"0x6895c13664aa4f67288b25d7a21d7aaa34916e355fb9b6fae0a139a9085becb8",
							"0x000000000000000000000000ef1be3c049809cace5bc203bbe4ec1ab284bf75c"
						],
						"transactionHash": "0xbc0142b5f7f7d89f3f7200de714bba291922982c05e62668899cd59a9dfce750",
						"transactionIndex": 1
					},
					{
						"address": "0xEf1Be3C049809caCe5Bc203BBe4Ec1Ab284bF75c",
						"blockHash": "0x957d33848c51e9d17cd5a4f27dc1d2661c348cbd2c98f985a43b9c5397a2a481",
						"blockNumber": 10495912,
						"data": "0x0000000000000000000000000000000000000000000000000000000000000004",
						"index": 16,
						"topics": [
							"0xa65fb05c5808f5f389d72edeaf719ce38f4cc55c1f69ca3cbfb31c21501caa07",
							"0xeb3166bda3fcd69ca05fdf479239793e480a434f3066bc23b43dcbae1f55c908"
						],
						"transactionHash": "0xbc0142b5f7f7d89f3f7200de714bba291922982c05e62668899cd59a9dfce750",
						"transactionIndex": 1
					},
					{
						"address": "0x1081B5AA9D9d4862A3dA4d469433FB36Ed80FA2A",
						"blockHash": "0x957d33848c51e9d17cd5a4f27dc1d2661c348cbd2c98f985a43b9c5397a2a481",
						"blockNumber": 10495912,
						"data": "0x0000000000000000000000009c10f158d2cecdfb5aadd5da40abbf2c574e4323",
						"index": 17,
						"topics": [
							"0x4db17dd5e4732fb6da34a148104a592783ca119a1e7bb8829eba6cbadef0b511"
						],
						"transactionHash": "0xbc0142b5f7f7d89f3f7200de714bba291922982c05e62668899cd59a9dfce750",
						"transactionIndex": 1
					},
					{
						"address": "0x1081B5AA9D9d4862A3dA4d469433FB36Ed80FA2A",
						"blockHash": "0x957d33848c51e9d17cd5a4f27dc1d2661c348cbd2c98f985a43b9c5397a2a481",
						"blockNumber": 10495912,
						"data": "0x",
						"index": 18,
						"topics": [
							"0x6895c13664aa4f67288b25d7a21d7aaa34916e355fb9b6fae0a139a9085becb8",
							"0x000000000000000000000000ef1be3c049809cace5bc203bbe4ec1ab284bf75c"
						],
						"transactionHash": "0xbc0142b5f7f7d89f3f7200de714bba291922982c05e62668899cd59a9dfce750",
						"transactionIndex": 1
					},
					{
						"address": "0xEf1Be3C049809caCe5Bc203BBe4Ec1Ab284bF75c",
						"blockHash": "0x957d33848c51e9d17cd5a4f27dc1d2661c348cbd2c98f985a43b9c5397a2a481",
						"blockNumber": 10495912,
						"data": "0x0000000000000000000000000000000000000000000000000000000000000005",
						"index": 19,
						"topics": [
							"0xa65fb05c5808f5f389d72edeaf719ce38f4cc55c1f69ca3cbfb31c21501caa07",
							"0xeb3166bda3fcd69ca05fdf479239793e480a434f3066bc23b43dcbae1f55c908"
						],
						"transactionHash": "0xbc0142b5f7f7d89f3f7200de714bba291922982c05e62668899cd59a9dfce750",
						"transactionIndex": 1
					},
					{
						"address": "0xaFFAC6609245EB93123a4CEcFAf6d78A249bF127",
						"blockHash": "0x957d33848c51e9d17cd5a4f27dc1d2661c348cbd2c98f985a43b9c5397a2a481",
						"blockNumber": 10495912,
						"data": "0x",
						"index": 20,
						"topics": [
							"0x8be0079c531659141344cd1fd0a4f28419497f9722a3daafe3b4186f6b6457e0",
							"0x0000000000000000000000000000000000000000000000000000000000000000",
							"0x000000000000000000000000affac6609245eb93123a4cecfaf6d78a249bf127"
						],
						"transactionHash": "0xbc0142b5f7f7d89f3f7200de714bba291922982c05e62668899cd59a9dfce750",
						"transactionIndex": 1
					},
					{
						"address": "0x1081B5AA9D9d4862A3dA4d469433FB36Ed80FA2A",
						"blockHash": "0x957d33848c51e9d17cd5a4f27dc1d2661c348cbd2c98f985a43b9c5397a2a481",
						"blockNumber": 10495912,
						"data": "0x000000000000000000000000affac6609245eb93123a4cecfaf6d78a249bf127",
						"index": 21,
						"topics": [
							"0x4db17dd5e4732fb6da34a148104a592783ca119a1e7bb8829eba6cbadef0b511"
						],
						"transactionHash": "0xbc0142b5f7f7d89f3f7200de714bba291922982c05e62668899cd59a9dfce750",
						"transactionIndex": 1
					},
					{
						"address": "0x1081B5AA9D9d4862A3dA4d469433FB36Ed80FA2A",
						"blockHash": "0x957d33848c51e9d17cd5a4f27dc1d2661c348cbd2c98f985a43b9c5397a2a481",
						"blockNumber": 10495912,
						"data": "0x",
						"index": 22,
						"topics": [
							"0x6895c13664aa4f67288b25d7a21d7aaa34916e355fb9b6fae0a139a9085becb8",
							"0x000000000000000000000000ef1be3c049809cace5bc203bbe4ec1ab284bf75c"
						],
						"transactionHash": "0xbc0142b5f7f7d89f3f7200de714bba291922982c05e62668899cd59a9dfce750",
						"transactionIndex": 1
					},
					{
						"address": "0xEf1Be3C049809caCe5Bc203BBe4Ec1Ab284bF75c",
						"blockHash": "0x957d33848c51e9d17cd5a4f27dc1d2661c348cbd2c98f985a43b9c5397a2a481",
						"blockNumber": 10495912,
						"data": "0x0000000000000000000000000000000000000000000000000000000000000006",
						"index": 23,
						"topics": [
							"0xa65fb05c5808f5f389d72edeaf719ce38f4cc55c1f69ca3cbfb31c21501caa07",
							"0xeb3166bda3fcd69ca05fdf479239793e480a434f3066bc23b43dcbae1f55c908"
						],
						"transactionHash": "0xbc0142b5f7f7d89f3f7200de714bba291922982c05e62668899cd59a9dfce750",
						"transactionIndex": 1
					},
					{
						"address": "0x1081B5AA9D9d4862A3dA4d469433FB36Ed80FA2A",
						"blockHash": "0x957d33848c51e9d17cd5a4f27dc1d2661c348cbd2c98f985a43b9c5397a2a481",
						"blockNumber": 10495912,
						"data": "0x000000000000000000000000ee922d1cb6551d45e2d9b197ec423fb8c3c85d50",
						"index": 24,
						"topics": [
							"0x4db17dd5e4732fb6da34a148104a592783ca119a1e7bb8829eba6cbadef0b511"
						],
						"transactionHash": "0xbc0142b5f7f7d89f3f7200de714bba291922982c05e62668899cd59a9dfce750",
						"transactionIndex": 1
					},
					{
						"address": "0x1081B5AA9D9d4862A3dA4d469433FB36Ed80FA2A",
						"blockHash": "0x957d33848c51e9d17cd5a4f27dc1d2661c348cbd2c98f985a43b9c5397a2a481",
						"blockNumber": 10495912,
						"data": "0x",
						"index": 25,
						"topics": [
							"0x6895c13664aa4f67288b25d7a21d7aaa34916e355fb9b6fae0a139a9085becb8",
							"0x000000000000000000000000ef1be3c049809cace5bc203bbe4ec1ab284bf75c"
						],
						"transactionHash": "0xbc0142b5f7f7d89f3f7200de714bba291922982c05e62668899cd59a9dfce750",
						"transactionIndex": 1
					},
					{
						"address": "0xEf1Be3C049809caCe5Bc203BBe4Ec1Ab284bF75c",
						"blockHash": "0x957d33848c51e9d17cd5a4f27dc1d2661c348cbd2c98f985a43b9c5397a2a481",
						"blockNumber": 10495912,
						"data": "0x0000000000000000000000000000000000000000000000000000000000000007",
						"index": 26,
						"topics": [
							"0xa65fb05c5808f5f389d72edeaf719ce38f4cc55c1f69ca3cbfb31c21501caa07",
							"0xeb3166bda3fcd69ca05fdf479239793e480a434f3066bc23b43dcbae1f55c908"
						],
						"transactionHash": "0xbc0142b5f7f7d89f3f7200de714bba291922982c05e62668899cd59a9dfce750",
						"transactionIndex": 1
					},
					{
						"address": "0x1081B5AA9D9d4862A3dA4d469433FB36Ed80FA2A",
						"blockHash": "0x957d33848c51e9d17cd5a4f27dc1d2661c348cbd2c98f985a43b9c5397a2a481",
						"blockNumber": 10495912,
						"data": "0x000000000000000000000000315d47e969097635dbe460743da00096129c2457",
						"index": 27,
						"topics": [
							"0x4db17dd5e4732fb6da34a148104a592783ca119a1e7bb8829eba6cbadef0b511"
						],
						"transactionHash": "0xbc0142b5f7f7d89f3f7200de714bba291922982c05e62668899cd59a9dfce750",
						"transactionIndex": 1
					},
					{
						"address": "0x1081B5AA9D9d4862A3dA4d469433FB36Ed80FA2A",
						"blockHash": "0x957d33848c51e9d17cd5a4f27dc1d2661c348cbd2c98f985a43b9c5397a2a481",
						"blockNumber": 10495912,
						"data": "0x",
						"index": 28,
						"topics": [
							"0x6895c13664aa4f67288b25d7a21d7aaa34916e355fb9b6fae0a139a9085becb8",
							"0x000000000000000000000000ef1be3c049809cace5bc203bbe4ec1ab284bf75c"
						],
						"transactionHash": "0xbc0142b5f7f7d89f3f7200de714bba291922982c05e62668899cd59a9dfce750",
						"transactionIndex": 1
					},
					{
						"address": "0xEf1Be3C049809caCe5Bc203BBe4Ec1Ab284bF75c",
						"blockHash": "0x957d33848c51e9d17cd5a4f27dc1d2661c348cbd2c98f985a43b9c5397a2a481",
						"blockNumber": 10495912,
						"data": "0x0000000000000000000000000000000000000000000000000000000000000008",
						"index": 29,
						"topics": [
							"0xa65fb05c5808f5f389d72edeaf719ce38f4cc55c1f69ca3cbfb31c21501caa07",
							"0xeb3166bda3fcd69ca05fdf479239793e480a434f3066bc23b43dcbae1f55c908"
						],
						"transactionHash": "0xbc0142b5f7f7d89f3f7200de714bba291922982c05e62668899cd59a9dfce750",
						"transactionIndex": 1
					}
				],
				"logsBloom": "0x0000000008001000000800000008020000000802000800000080080000400000006000a000000000000002200040000000000400000000000000000000040000000000100000220400000008020280000001000000040000000200000000000000000000020000000001000000000800000000100020000010000010002000400001000200000000000100020000000000000000000000000000804000000000004000000010000000000000080000020200000000000000000000000006000000000002000800200000000008000000010000000000000000000000000060000000000000000024000000000000000200000000000000000000000000000000",
				"status": 1,
				"to": "0xB5E96127D417b1B3ef8438496a38A143167209c7"
			},
			"metadata": "{\"compiler\":{\"version\":\"0.8.23+commit.f704f362\"},\"language\":\"Solidity\",\"output\":{\"abi\":[{\"inputs\":[],\"type\":\"error\",\"name\":\"PERMISSION_ID_OUT_OF_BOUNDS\"},{\"inputs\":[],\"type\":\"error\",\"name\":\"UNAUTHORIZED\"},{\"inputs\":[{\"internalType\":\"address\",\"name\":\"operator\",\"type\":\"address\",\"indexed\":true},{\"internalType\":\"address\",\"name\":\"account\",\"type\":\"address\",\"indexed\":true},{\"internalType\":\"uint256\",\"name\":\"projectId\",\"type\":\"uint256\",\"indexed\":true},{\"internalType\":\"uint256[]\",\"name\":\"permissionIds\",\"type\":\"uint256[]\",\"indexed\":false},{\"internalType\":\"uint256\",\"name\":\"packed\",\"type\":\"uint256\",\"indexed\":false},{\"internalType\":\"address\",\"name\":\"caller\",\"type\":\"address\",\"indexed\":false}],\"type\":\"event\",\"name\":\"OperatorPermissionsSet\",\"anonymous\":false},{\"inputs\":[{\"internalType\":\"address\",\"name\":\"operator\",\"type\":\"address\"},{\"internalType\":\"address\",\"name\":\"account\",\"type\":\"address\"},{\"internalType\":\"uint256\",\"name\":\"projectId\",\"type\":\"uint256\"},{\"internalType\":\"uint256\",\"name\":\"permissionId\",\"type\":\"uint256\"}],\"stateMutability\":\"view\",\"type\":\"function\",\"name\":\"hasPermission\",\"outputs\":[{\"internalType\":\"bool\",\"name\":\"\",\"type\":\"bool\"}]},{\"inputs\":[{\"internalType\":\"address\",\"name\":\"operator\",\"type\":\"address\"},{\"internalType\":\"address\",\"name\":\"account\",\"type\":\"address\"},{\"internalType\":\"uint256\",\"name\":\"projectId\",\"type\":\"uint256\"},{\"internalType\":\"uint256[]\",\"name\":\"permissionIds\",\"type\":\"uint256[]\"}],\"stateMutability\":\"view\",\"type\":\"function\",\"name\":\"hasPermissions\",\"outputs\":[{\"internalType\":\"bool\",\"name\":\"\",\"type\":\"bool\"}]},{\"inputs\":[{\"internalType\":\"address\",\"name\":\"operator\",\"type\":\"address\"},{\"internalType\":\"address\",\"name\":\"account\",\"type\":\"address\"},{\"internalType\":\"uint256\",\"name\":\"projectId\",\"type\":\"uint256\"}],\"stateMutability\":\"view\",\"type\":\"function\",\"name\":\"permissionsOf\",\"outputs\":[{\"internalType\":\"uint256\",\"name\":\"\",\"type\":\"uint256\"}]},{\"inputs\":[{\"internalType\":\"address\",\"name\":\"account\",\"type\":\"address\"},{\"internalType\":\"struct JBPermissionsData\",\"name\":\"permissionsData\",\"type\":\"tuple\",\"components\":[{\"internalType\":\"address\",\"name\":\"operator\",\"type\":\"address\"},{\"internalType\":\"uint256\",\"name\":\"projectId\",\"type\":\"uint256\"},{\"internalType\":\"uint256[]\",\"name\":\"permissionIds\",\"type\":\"uint256[]\"}]}],\"stateMutability\":\"nonpayable\",\"type\":\"function\",\"name\":\"setPermissionsFor\"}],\"devdoc\":{\"kind\":\"dev\",\"methods\":{\"hasPermission(address,address,uint256,uint256)\":{\"params\":{\"account\":\"The account being operated on behalf of.\",\"operator\":\"The operator to check.\",\"permissionId\":\"The permission ID to check for.\",\"projectId\":\"The project ID that the operator has permission to operate under. 0 represents all projects.\"},\"returns\":{\"_0\":\"A flag indicating whether the operator has the specified permission.\"}},\"hasPermissions(address,address,uint256,uint256[])\":{\"params\":{\"account\":\"The account being operated on behalf of.\",\"operator\":\"The operator to check.\",\"permissionIds\":\"An array of permission IDs to check for.\",\"projectId\":\"The project ID that the operator has permission to operate under. 0 represents all projects.\"},\"returns\":{\"_0\":\"A flag indicating whether the operator has all specified permissions.\"}},\"setPermissionsFor(address,(address,uint256,uint256[]))\":{\"details\":\"Only an address can give permissions to or revoke permissions from its operators.\",\"params\":{\"account\":\"The account setting its operators' permissions.\",\"permissionsData\":\"The data which specifies the permissions the operator is being given.\"}}},\"version\":1},\"userdoc\":{\"kind\":\"user\",\"methods\":{\"hasPermission(address,address,uint256,uint256)\":{\"notice\":\"Check if an operator has a specific permission for a specific address and project ID.\"},\"hasPermissions(address,address,uint256,uint256[])\":{\"notice\":\"Check if an operator has all of the specified permissions for a specific address and project ID.\"},\"permissionsOf(address,address,uint256)\":{\"notice\":\"The permissions that an operator has been given by an account for a specific project.\"},\"setPermissionsFor(address,(address,uint256,uint256[]))\":{\"notice\":\"Sets permissions for an operator.\"}},\"version\":1}},\"settings\":{\"remappings\":[\"@bananapus/=node_modules/@bananapus/\",\"@chainlink/=node_modules/@chainlink/\",\"@eth-optimism/=node_modules/@eth-optimism/\",\"@openzeppelin/=node_modules/@openzeppelin/\",\"@prb/=node_modules/@prb/\",\"@scroll-tech/=node_modules/@scroll-tech/\",\"@sphinx-labs/contracts/=lib/sphinx/packages/contracts/contracts/foundry/\",\"@uniswap/=node_modules/@uniswap/\",\"ds-test/=lib/forge-std/lib/ds-test/src/\",\"forge-std/=lib/forge-std/src/\",\"hardhat/=node_modules/hardhat/\",\"solmate/=node_modules/solmate/\",\"sphinx/=lib/sphinx/packages/contracts/contracts/forge-std/src/\"],\"optimizer\":{\"enabled\":true,\"runs\":200},\"metadata\":{\"bytecodeHash\":\"ipfs\"},\"compilationTarget\":{\"src/JBPermissions.sol\":\"JBPermissions\"},\"evmVersion\":\"paris\",\"libraries\":{}},\"sources\":{\"node_modules/@bananapus/permission-ids/src/JBPermissionIds.sol\":{\"keccak256\":\"0xf61109f6b217a80d5e5391f548fb6f2e451f7dbee3fabfc04cf17e88722203bc\",\"urls\":[\"bzz-raw://ac776ab1cd621c22bd7973471acdfa187f3abc659ad9a3ef6ed10b6447dfcf9c\",\"dweb:/ipfs/QmYLbaHt68qcuMzkiKpe96jMjiWUq1F3u8yMhxmZ3pnnWu\"],\"license\":\"MIT\"},\"src/JBPermissions.sol\":{\"keccak256\":\"0x7da24403b8346799cf5235cfe30a2babf6922042914715bbbfa8350cbc1c881a\",\"urls\":[\"bzz-raw://5bc08e30f81c5b0ed4e64814fe1a6642824a5afb6e6ba2ba8db6cf3040c45489\",\"dweb:/ipfs/QmXvfCmYpRUi3kGxDAMDhQnDWD7NogyXuA7Tyk9vEEJQRq\"],\"license\":\"MIT\"},\"src/interfaces/IJBPermissions.sol\":{\"keccak256\":\"0x18870e500edf0fbadc353e273a5574701fb80466376b908c65e7cc3f11044d4d\",\"urls\":[\"bzz-raw://352a47c45853aec80e7acf0d286ade3106eb4cb456776b28a3c2f3f1091bed90\",\"dweb:/ipfs/QmQeYd3YbudYZy2hfbfht9kwhxhw4tuuLKMEYy9UY6dcSy\"],\"license\":\"MIT\"},\"src/structs/JBPermissionsData.sol\":{\"keccak256\":\"0x8f0f69a6ebf5f3704e3dfcb3712fb9d3f94ae7c1ab89bf3e37bad42a3e7a0487\",\"urls\":[\"bzz-raw://57b0c5e52843e2217082889ed47b4da3943e0da4590d5768dcebfe3edad4a6b8\",\"dweb:/ipfs/QmRz48vuWLw81kUP836rh1qzqWiJFGbksgRUA9xGEDNKTY\"],\"license\":\"MIT\"}},\"version\":1}",
			"args": [],
			"bytecode": "0x608060405234801561001057600080fd5b5061060e806100206000396000f3fe608060405234801561001057600080fd5b506004361061004c5760003560e01c806305d2912e146100515780630f5932f01461006657806380deb2301461008e578063c161c93f146100cc575b600080fd5b61006461005f36600461038f565b6100df565b005b6100796100743660046103e4565b610206565b60405190151581526020015b60405180910390f35b6100be61009c366004610482565b6000602081815293815260408082208552928152828120909352825290205481565b604051908152602001610085565b6100796100da3660046104be565b6102af565b336001600160a01b0383161480159061010657506101043383836020013560016102af565b155b801561011d575061011b3383600060016102af565b155b1561013b5760405163075fd2b160e01b815260040160405180910390fd5b600061015261014d6040840184610500565b610310565b9050806000806101656020860186610551565b6001600160a01b039081168252602080830193909352604091820160009081209188168082529184528281208785018035808452919095529290209390935591906101b09085610551565b6001600160a01b03167ff8cdf10a0ce6189c6d069e97320ef146e2bcbd32d6c0b86dcbfbf3bd8578fa706101e76040870187610500565b86336040516101f99493929190610573565b60405180910390a4505050565b6001600160a01b0380861660009081526020818152604080832093881683529281528282208683529052908120548190815b8481101561029e57858582818110610252576102526105c2565b90506020020135925060ff83111561027d576040516334f9a01d60e21b815260040160405180910390fd5b600182841c1660000361029657600093505050506102a6565b600101610238565b506001925050505b95945050505050565b600060ff8211156102d3576040516334f9a01d60e21b815260040160405180910390fd5b506001600160a01b03808516600090815260208181526040808320938716835292815282822085835290522054600190821c811614949350505050565b60008060005b8381101561036b57848482818110610330576103306105c2565b90506020020135915060ff82111561035b576040516334f9a01d60e21b815260040160405180910390fd5b600180831b939093179201610316565b505092915050565b80356001600160a01b038116811461038a57600080fd5b919050565b600080604083850312156103a257600080fd5b6103ab83610373565b9150602083013567ffffffffffffffff8111156103c757600080fd5b8301606081860312156103d957600080fd5b809150509250929050565b6000806000806000608086880312156103fc57600080fd5b61040586610373565b945061041360208701610373565b935060408601359250606086013567ffffffffffffffff8082111561043757600080fd5b818801915088601f83011261044b57600080fd5b81358181111561045a57600080fd5b8960208260051b850101111561046f57600080fd5b9699959850939650602001949392505050565b60008060006060848603121561049757600080fd5b6104a084610373565b92506104ae60208501610373565b9150604084013590509250925092565b600080600080608085870312156104d457600080fd5b6104dd85610373565b93506104eb60208601610373565b93969395505050506040820135916060013590565b6000808335601e1984360301811261051757600080fd5b83018035915067ffffffffffffffff82111561053257600080fd5b6020019150600581901b360382131561054a57600080fd5b9250929050565b60006020828403121561056357600080fd5b61056c82610373565b9392505050565b6060808252810184905260006001600160fb1b0385111561059357600080fd5b8460051b808760808501376020830194909452506001600160a01b039190911660408201520160800192915050565b634e487b7160e01b600052603260045260246000fdfea26469706673582212205d48d05f2f704350b56440099a72b2073eca9b1b81e59952d669e5d5d39fea1864736f6c63430008170033",
			"deployedBytecode": "0x608060405234801561001057600080fd5b506004361061004c5760003560e01c806305d2912e146100515780630f5932f01461006657806380deb2301461008e578063c161c93f146100cc575b600080fd5b61006461005f36600461038f565b6100df565b005b6100796100743660046103e4565b610206565b60405190151581526020015b60405180910390f35b6100be61009c366004610482565b6000602081815293815260408082208552928152828120909352825290205481565b604051908152602001610085565b6100796100da3660046104be565b6102af565b336001600160a01b0383161480159061010657506101043383836020013560016102af565b155b801561011d575061011b3383600060016102af565b155b1561013b5760405163075fd2b160e01b815260040160405180910390fd5b600061015261014d6040840184610500565b610310565b9050806000806101656020860186610551565b6001600160a01b039081168252602080830193909352604091820160009081209188168082529184528281208785018035808452919095529290209390935591906101b09085610551565b6001600160a01b03167ff8cdf10a0ce6189c6d069e97320ef146e2bcbd32d6c0b86dcbfbf3bd8578fa706101e76040870187610500565b86336040516101f99493929190610573565b60405180910390a4505050565b6001600160a01b0380861660009081526020818152604080832093881683529281528282208683529052908120548190815b8481101561029e57858582818110610252576102526105c2565b90506020020135925060ff83111561027d576040516334f9a01d60e21b815260040160405180910390fd5b600182841c1660000361029657600093505050506102a6565b600101610238565b506001925050505b95945050505050565b600060ff8211156102d3576040516334f9a01d60e21b815260040160405180910390fd5b506001600160a01b03808516600090815260208181526040808320938716835292815282822085835290522054600190821c811614949350505050565b60008060005b8381101561036b57848482818110610330576103306105c2565b90506020020135915060ff82111561035b576040516334f9a01d60e21b815260040160405180910390fd5b600180831b939093179201610316565b505092915050565b80356001600160a01b038116811461038a57600080fd5b919050565b600080604083850312156103a257600080fd5b6103ab83610373565b9150602083013567ffffffffffffffff8111156103c757600080fd5b8301606081860312156103d957600080fd5b809150509250929050565b6000806000806000608086880312156103fc57600080fd5b61040586610373565b945061041360208701610373565b935060408601359250606086013567ffffffffffffffff8082111561043757600080fd5b818801915088601f83011261044b57600080fd5b81358181111561045a57600080fd5b8960208260051b850101111561046f57600080fd5b9699959850939650602001949392505050565b60008060006060848603121561049757600080fd5b6104a084610373565b92506104ae60208501610373565b9150604084013590509250925092565b600080600080608085870312156104d457600080fd5b6104dd85610373565b93506104eb60208601610373565b93969395505050506040820135916060013590565b6000808335601e1984360301811261051757600080fd5b83018035915067ffffffffffffffff82111561053257600080fd5b6020019150600581901b360382131561054a57600080fd5b9250929050565b60006020828403121561056357600080fd5b61056c82610373565b9392505050565b6060808252810184905260006001600160fb1b0385111561059357600080fd5b8460051b808760808501376020830194909452506001600160a01b039190911660408201520160800192915050565b634e487b7160e01b600052603260045260246000fdfea26469706673582212205d48d05f2f704350b56440099a72b2073eca9b1b81e59952d669e5d5d39fea1864736f6c63430008170033",
			"devdoc": {
				"kind": "dev",
				"methods": {
					"hasPermission(address,address,uint256,uint256)": {
						"params": {
							"account": "The account being operated on behalf of.",
							"operator": "The operator to check.",
							"permissionId": "The permission ID to check for.",
							"projectId": "The project ID that the operator has permission to operate under. 0 represents all projects."
						},
						"returns": {
							"_0": "A flag indicating whether the operator has the specified permission."
						}
					},
					"hasPermissions(address,address,uint256,uint256[])": {
						"params": {
							"account": "The account being operated on behalf of.",
							"operator": "The operator to check.",
							"permissionIds": "An array of permission IDs to check for.",
							"projectId": "The project ID that the operator has permission to operate under. 0 represents all projects."
						},
						"returns": {
							"_0": "A flag indicating whether the operator has all specified permissions."
						}
					},
					"setPermissionsFor(address,(address,uint256,uint256[]))": {
						"details": "Only an address can give permissions to or revoke permissions from its operators.",
						"params": {
							"account": "The account setting its operators' permissions.",
							"permissionsData": "The data which specifies the permissions the operator is being given."
						}
					}
				},
				"version": 1
			},
			"userdoc": {
				"kind": "user",
				"methods": {
					"hasPermission(address,address,uint256,uint256)": {
						"notice": "Check if an operator has a specific permission for a specific address and project ID."
					},
					"hasPermissions(address,address,uint256,uint256[])": {
						"notice": "Check if an operator has all of the specified permissions for a specific address and project ID."
					},
					"permissionsOf(address,address,uint256)": {
						"notice": "The permissions that an operator has been given by an account for a specific project."
					},
					"setPermissionsFor(address,(address,uint256,uint256[]))": {
						"notice": "Sets permissions for an operator."
					}
				},
				"version": 1
			},
			"gitCommit": "e6ea9467ae7d4f2046989fda11961b007525098a",
			"sourceName": "src/JBPermissions.sol",
			"chainId": "11155420",
			"linkReferences": {},
			"deployedLinkReferences": {}
		},
		{
			"_format": "sphinx-sol-ct-artifact-1",
			"merkleRoot": "0xeb76efeb8f97c5cb80ab72b380ea5b356ede5f4abbf2a0c560104f8a80b45857",
			"contractName": "JBPermissions",
			"address": "0x1e2E8562b635fe19978640C784e47865A83d6605",
			"abi": [
				{
					"type": "function",
					"name": "hasPermission",
					"inputs": [
						{
							"name": "operator",
							"type": "address",
							"internalType": "address"
						},
						{
							"name": "account",
							"type": "address",
							"internalType": "address"
						},
						{
							"name": "projectId",
							"type": "uint256",
							"internalType": "uint256"
						},
						{
							"name": "permissionId",
							"type": "uint256",
							"internalType": "uint256"
						}
					],
					"outputs": [
						{
							"name": "",
							"type": "bool",
							"internalType": "bool"
						}
					],
					"stateMutability": "view"
				},
				{
					"type": "function",
					"name": "hasPermissions",
					"inputs": [
						{
							"name": "operator",
							"type": "address",
							"internalType": "address"
						},
						{
							"name": "account",
							"type": "address",
							"internalType": "address"
						},
						{
							"name": "projectId",
							"type": "uint256",
							"internalType": "uint256"
						},
						{
							"name": "permissionIds",
							"type": "uint256[]",
							"internalType": "uint256[]"
						}
					],
					"outputs": [
						{
							"name": "",
							"type": "bool",
							"internalType": "bool"
						}
					],
					"stateMutability": "view"
				},
				{
					"type": "function",
					"name": "permissionsOf",
					"inputs": [
						{
							"name": "operator",
							"type": "address",
							"internalType": "address"
						},
						{
							"name": "account",
							"type": "address",
							"internalType": "address"
						},
						{
							"name": "projectId",
							"type": "uint256",
							"internalType": "uint256"
						}
					],
					"outputs": [
						{
							"name": "",
							"type": "uint256",
							"internalType": "uint256"
						}
					],
					"stateMutability": "view"
				},
				{
					"type": "function",
					"name": "setPermissionsFor",
					"inputs": [
						{
							"name": "account",
							"type": "address",
							"internalType": "address"
						},
						{
							"name": "permissionsData",
							"type": "tuple",
							"internalType": "struct JBPermissionsData",
							"components": [
								{
									"name": "operator",
									"type": "address",
									"internalType": "address"
								},
								{
									"name": "projectId",
									"type": "uint256",
									"internalType": "uint256"
								},
								{
									"name": "permissionIds",
									"type": "uint256[]",
									"internalType": "uint256[]"
								}
							]
						}
					],
					"outputs": [],
					"stateMutability": "nonpayable"
				},
				{
					"type": "event",
					"name": "OperatorPermissionsSet",
					"inputs": [
						{
							"name": "operator",
							"type": "address",
							"indexed": true,
							"internalType": "address"
						},
						{
							"name": "account",
							"type": "address",
							"indexed": true,
							"internalType": "address"
						},
						{
							"name": "projectId",
							"type": "uint256",
							"indexed": true,
							"internalType": "uint256"
						},
						{
							"name": "permissionIds",
							"type": "uint256[]",
							"indexed": false,
							"internalType": "uint256[]"
						},
						{
							"name": "packed",
							"type": "uint256",
							"indexed": false,
							"internalType": "uint256"
						},
						{
							"name": "caller",
							"type": "address",
							"indexed": false,
							"internalType": "address"
						}
					],
					"anonymous": false
				},
				{
					"type": "error",
					"name": "PERMISSION_ID_OUT_OF_BOUNDS",
					"inputs": []
				},
				{
					"type": "error",
					"name": "UNAUTHORIZED",
					"inputs": []
				}
			],
			"solcInputHash": "5d4c706d93c97620ff427d8d75b46099",
			"receipt": {
				"blockHash": "0x30e10fbfb262bad5c909b73963e809ed81c4706dd9299fc943d4c63cf4c11f4d",
				"blockNumber": 10967465,
				"contractAddress": null,
				"cumulativeGasUsed": "11060634",
				"from": "0xC034550B542b83BA1De312b21d1C94a9a52B1595",
				"gasPrice": "1000252",
				"gasUsed": "11016783",
				"hash": "0x415c78b8520a1d6b11ba808a2acdaae246f939b17eed77bb65b9f23dce763aa3",
				"index": 1,
				"logs": [
					{
						"address": "0xB5E96127D417b1B3ef8438496a38A143167209c7",
						"blockHash": "0x30e10fbfb262bad5c909b73963e809ed81c4706dd9299fc943d4c63cf4c11f4d",
						"blockNumber": 10967465,
						"data": "0x0000000000000000000000000000000000000000000000000000000000000000",
						"index": 0,
						"topics": [
							"0x572f161235911da04685a68c06adf558fc7e4a36909dca394650e0adc19cc93d",
							"0x000000000000000000000000c034550b542b83ba1de312b21d1c94a9a52b1595",
							"0x000000000000000000000000ef1be3c049809cace5bc203bbe4ec1ab284bf75c",
							"0x9276bb03be4838337b2f0b3cdd815925ffb1164195dbc803a8efb9b7787bf97a"
						],
						"transactionHash": "0x415c78b8520a1d6b11ba808a2acdaae246f939b17eed77bb65b9f23dce763aa3",
						"transactionIndex": 1
					},
					{
						"address": "0x1081B5AA9D9d4862A3dA4d469433FB36Ed80FA2A",
						"blockHash": "0x30e10fbfb262bad5c909b73963e809ed81c4706dd9299fc943d4c63cf4c11f4d",
						"blockNumber": 10967465,
						"data": "0x",
						"index": 1,
						"topics": [
							"0x6895c13664aa4f67288b25d7a21d7aaa34916e355fb9b6fae0a139a9085becb8",
							"0x000000000000000000000000ef1be3c049809cace5bc203bbe4ec1ab284bf75c"
						],
						"transactionHash": "0x415c78b8520a1d6b11ba808a2acdaae246f939b17eed77bb65b9f23dce763aa3",
						"transactionIndex": 1
					},
					{
						"address": "0xEf1Be3C049809caCe5Bc203BBe4Ec1Ab284bF75c",
						"blockHash": "0x30e10fbfb262bad5c909b73963e809ed81c4706dd9299fc943d4c63cf4c11f4d",
						"blockNumber": 10967465,
						"data": "0x0000000000000000000000000000000000000000000000000000000000000001",
						"index": 2,
						"topics": [
							"0xa65fb05c5808f5f389d72edeaf719ce38f4cc55c1f69ca3cbfb31c21501caa07",
							"0xeb76efeb8f97c5cb80ab72b380ea5b356ede5f4abbf2a0c560104f8a80b45857"
						],
						"transactionHash": "0x415c78b8520a1d6b11ba808a2acdaae246f939b17eed77bb65b9f23dce763aa3",
						"transactionIndex": 1
					},
					{
						"address": "0xf9dadA4628Eb3992202CF253625d4ECebBC1592f",
						"blockHash": "0x30e10fbfb262bad5c909b73963e809ed81c4706dd9299fc943d4c63cf4c11f4d",
						"blockNumber": 10967465,
						"data": "0x",
						"index": 3,
						"topics": [
							"0x8be0079c531659141344cd1fd0a4f28419497f9722a3daafe3b4186f6b6457e0",
							"0x0000000000000000000000000000000000000000000000000000000000000000",
							"0x0000000000000000000000001081b5aa9d9d4862a3da4d469433fb36ed80fa2a"
						],
						"transactionHash": "0x415c78b8520a1d6b11ba808a2acdaae246f939b17eed77bb65b9f23dce763aa3",
						"transactionIndex": 1
					},
					{
						"address": "0xf9dadA4628Eb3992202CF253625d4ECebBC1592f",
						"blockHash": "0x30e10fbfb262bad5c909b73963e809ed81c4706dd9299fc943d4c63cf4c11f4d",
						"blockNumber": 10967465,
						"data": "0x",
						"index": 4,
						"topics": [
							"0xddf252ad1be2c89b69c2b068fc378daa952ba7f163c4a11628f55a4df523b3ef",
							"0x0000000000000000000000000000000000000000000000000000000000000000",
							"0x0000000000000000000000001081b5aa9d9d4862a3da4d469433fb36ed80fa2a",
							"0x0000000000000000000000000000000000000000000000000000000000000001"
						],
						"transactionHash": "0x415c78b8520a1d6b11ba808a2acdaae246f939b17eed77bb65b9f23dce763aa3",
						"transactionIndex": 1
					},
					{
						"address": "0xf9dadA4628Eb3992202CF253625d4ECebBC1592f",
						"blockHash": "0x30e10fbfb262bad5c909b73963e809ed81c4706dd9299fc943d4c63cf4c11f4d",
						"blockNumber": 10967465,
						"data": "0x0000000000000000000000004e59b44847b379578588920ca78fbf26c0b4956c",
						"index": 5,
						"topics": [
							"0x365b3162cd780731fc55a794b59494d472bc2af701007f581843a70673814698",
							"0x0000000000000000000000000000000000000000000000000000000000000001",
							"0x0000000000000000000000001081b5aa9d9d4862a3da4d469433fb36ed80fa2a"
						],
						"transactionHash": "0x415c78b8520a1d6b11ba808a2acdaae246f939b17eed77bb65b9f23dce763aa3",
						"transactionIndex": 1
					},
					{
						"address": "0x1081B5AA9D9d4862A3dA4d469433FB36Ed80FA2A",
						"blockHash": "0x30e10fbfb262bad5c909b73963e809ed81c4706dd9299fc943d4c63cf4c11f4d",
						"blockNumber": 10967465,
						"data": "0x",
						"index": 6,
						"topics": [
							"0x6895c13664aa4f67288b25d7a21d7aaa34916e355fb9b6fae0a139a9085becb8",
							"0x000000000000000000000000ef1be3c049809cace5bc203bbe4ec1ab284bf75c"
						],
						"transactionHash": "0x415c78b8520a1d6b11ba808a2acdaae246f939b17eed77bb65b9f23dce763aa3",
						"transactionIndex": 1
					},
					{
						"address": "0xEf1Be3C049809caCe5Bc203BBe4Ec1Ab284bF75c",
						"blockHash": "0x30e10fbfb262bad5c909b73963e809ed81c4706dd9299fc943d4c63cf4c11f4d",
						"blockNumber": 10967465,
						"data": "0x0000000000000000000000000000000000000000000000000000000000000002",
						"index": 7,
						"topics": [
							"0xa65fb05c5808f5f389d72edeaf719ce38f4cc55c1f69ca3cbfb31c21501caa07",
							"0xeb76efeb8f97c5cb80ab72b380ea5b356ede5f4abbf2a0c560104f8a80b45857"
						],
						"transactionHash": "0x415c78b8520a1d6b11ba808a2acdaae246f939b17eed77bb65b9f23dce763aa3",
						"transactionIndex": 1
					},
					{
						"address": "0xCD8c4da77dfb15C05486D3F71Ee4C2C0dfdbc94e",
						"blockHash": "0x30e10fbfb262bad5c909b73963e809ed81c4706dd9299fc943d4c63cf4c11f4d",
						"blockNumber": 10967465,
						"data": "0x",
						"index": 8,
						"topics": [
							"0x8be0079c531659141344cd1fd0a4f28419497f9722a3daafe3b4186f6b6457e0",
							"0x0000000000000000000000000000000000000000000000000000000000000000",
							"0x0000000000000000000000001081b5aa9d9d4862a3da4d469433fb36ed80fa2a"
						],
						"transactionHash": "0x415c78b8520a1d6b11ba808a2acdaae246f939b17eed77bb65b9f23dce763aa3",
						"transactionIndex": 1
					},
					{
						"address": "0x1081B5AA9D9d4862A3dA4d469433FB36Ed80FA2A",
						"blockHash": "0x30e10fbfb262bad5c909b73963e809ed81c4706dd9299fc943d4c63cf4c11f4d",
						"blockNumber": 10967465,
						"data": "0x",
						"index": 9,
						"topics": [
							"0x6895c13664aa4f67288b25d7a21d7aaa34916e355fb9b6fae0a139a9085becb8",
							"0x000000000000000000000000ef1be3c049809cace5bc203bbe4ec1ab284bf75c"
						],
						"transactionHash": "0x415c78b8520a1d6b11ba808a2acdaae246f939b17eed77bb65b9f23dce763aa3",
						"transactionIndex": 1
					},
					{
						"address": "0xEf1Be3C049809caCe5Bc203BBe4Ec1Ab284bF75c",
						"blockHash": "0x30e10fbfb262bad5c909b73963e809ed81c4706dd9299fc943d4c63cf4c11f4d",
						"blockNumber": 10967465,
						"data": "0x0000000000000000000000000000000000000000000000000000000000000003",
						"index": 10,
						"topics": [
							"0xa65fb05c5808f5f389d72edeaf719ce38f4cc55c1f69ca3cbfb31c21501caa07",
							"0xeb76efeb8f97c5cb80ab72b380ea5b356ede5f4abbf2a0c560104f8a80b45857"
						],
						"transactionHash": "0x415c78b8520a1d6b11ba808a2acdaae246f939b17eed77bb65b9f23dce763aa3",
						"transactionIndex": 1
					},
					{
						"address": "0x1081B5AA9D9d4862A3dA4d469433FB36Ed80FA2A",
						"blockHash": "0x30e10fbfb262bad5c909b73963e809ed81c4706dd9299fc943d4c63cf4c11f4d",
						"blockNumber": 10967465,
						"data": "0x",
						"index": 11,
						"topics": [
							"0x6895c13664aa4f67288b25d7a21d7aaa34916e355fb9b6fae0a139a9085becb8",
							"0x000000000000000000000000ef1be3c049809cace5bc203bbe4ec1ab284bf75c"
						],
						"transactionHash": "0x415c78b8520a1d6b11ba808a2acdaae246f939b17eed77bb65b9f23dce763aa3",
						"transactionIndex": 1
					},
					{
						"address": "0xEf1Be3C049809caCe5Bc203BBe4Ec1Ab284bF75c",
						"blockHash": "0x30e10fbfb262bad5c909b73963e809ed81c4706dd9299fc943d4c63cf4c11f4d",
						"blockNumber": 10967465,
						"data": "0x0000000000000000000000000000000000000000000000000000000000000004",
						"index": 12,
						"topics": [
							"0xa65fb05c5808f5f389d72edeaf719ce38f4cc55c1f69ca3cbfb31c21501caa07",
							"0xeb76efeb8f97c5cb80ab72b380ea5b356ede5f4abbf2a0c560104f8a80b45857"
						],
						"transactionHash": "0x415c78b8520a1d6b11ba808a2acdaae246f939b17eed77bb65b9f23dce763aa3",
						"transactionIndex": 1
					},
					{
						"address": "0x1081B5AA9D9d4862A3dA4d469433FB36Ed80FA2A",
						"blockHash": "0x30e10fbfb262bad5c909b73963e809ed81c4706dd9299fc943d4c63cf4c11f4d",
						"blockNumber": 10967465,
						"data": "0x",
						"index": 13,
						"topics": [
							"0x6895c13664aa4f67288b25d7a21d7aaa34916e355fb9b6fae0a139a9085becb8",
							"0x000000000000000000000000ef1be3c049809cace5bc203bbe4ec1ab284bf75c"
						],
						"transactionHash": "0x415c78b8520a1d6b11ba808a2acdaae246f939b17eed77bb65b9f23dce763aa3",
						"transactionIndex": 1
					},
					{
						"address": "0xEf1Be3C049809caCe5Bc203BBe4Ec1Ab284bF75c",
						"blockHash": "0x30e10fbfb262bad5c909b73963e809ed81c4706dd9299fc943d4c63cf4c11f4d",
						"blockNumber": 10967465,
						"data": "0x0000000000000000000000000000000000000000000000000000000000000005",
						"index": 14,
						"topics": [
							"0xa65fb05c5808f5f389d72edeaf719ce38f4cc55c1f69ca3cbfb31c21501caa07",
							"0xeb76efeb8f97c5cb80ab72b380ea5b356ede5f4abbf2a0c560104f8a80b45857"
						],
						"transactionHash": "0x415c78b8520a1d6b11ba808a2acdaae246f939b17eed77bb65b9f23dce763aa3",
						"transactionIndex": 1
					},
					{
						"address": "0x0496459b91e393950C4c5B71a0D5CAcA81710759",
						"blockHash": "0x30e10fbfb262bad5c909b73963e809ed81c4706dd9299fc943d4c63cf4c11f4d",
						"blockNumber": 10967465,
						"data": "0x",
						"index": 15,
						"topics": [
							"0x8be0079c531659141344cd1fd0a4f28419497f9722a3daafe3b4186f6b6457e0",
							"0x0000000000000000000000000000000000000000000000000000000000000000",
							"0x0000000000000000000000000496459b91e393950c4c5b71a0d5caca81710759"
						],
						"transactionHash": "0x415c78b8520a1d6b11ba808a2acdaae246f939b17eed77bb65b9f23dce763aa3",
						"transactionIndex": 1
					},
					{
						"address": "0x1081B5AA9D9d4862A3dA4d469433FB36Ed80FA2A",
						"blockHash": "0x30e10fbfb262bad5c909b73963e809ed81c4706dd9299fc943d4c63cf4c11f4d",
						"blockNumber": 10967465,
						"data": "0x",
						"index": 16,
						"topics": [
							"0x6895c13664aa4f67288b25d7a21d7aaa34916e355fb9b6fae0a139a9085becb8",
							"0x000000000000000000000000ef1be3c049809cace5bc203bbe4ec1ab284bf75c"
						],
						"transactionHash": "0x415c78b8520a1d6b11ba808a2acdaae246f939b17eed77bb65b9f23dce763aa3",
						"transactionIndex": 1
					},
					{
						"address": "0xEf1Be3C049809caCe5Bc203BBe4Ec1Ab284bF75c",
						"blockHash": "0x30e10fbfb262bad5c909b73963e809ed81c4706dd9299fc943d4c63cf4c11f4d",
						"blockNumber": 10967465,
						"data": "0x0000000000000000000000000000000000000000000000000000000000000006",
						"index": 17,
						"topics": [
							"0xa65fb05c5808f5f389d72edeaf719ce38f4cc55c1f69ca3cbfb31c21501caa07",
							"0xeb76efeb8f97c5cb80ab72b380ea5b356ede5f4abbf2a0c560104f8a80b45857"
						],
						"transactionHash": "0x415c78b8520a1d6b11ba808a2acdaae246f939b17eed77bb65b9f23dce763aa3",
						"transactionIndex": 1
					},
					{
						"address": "0x1081B5AA9D9d4862A3dA4d469433FB36Ed80FA2A",
						"blockHash": "0x30e10fbfb262bad5c909b73963e809ed81c4706dd9299fc943d4c63cf4c11f4d",
						"blockNumber": 10967465,
						"data": "0x",
						"index": 18,
						"topics": [
							"0x6895c13664aa4f67288b25d7a21d7aaa34916e355fb9b6fae0a139a9085becb8",
							"0x000000000000000000000000ef1be3c049809cace5bc203bbe4ec1ab284bf75c"
						],
						"transactionHash": "0x415c78b8520a1d6b11ba808a2acdaae246f939b17eed77bb65b9f23dce763aa3",
						"transactionIndex": 1
					},
					{
						"address": "0xEf1Be3C049809caCe5Bc203BBe4Ec1Ab284bF75c",
						"blockHash": "0x30e10fbfb262bad5c909b73963e809ed81c4706dd9299fc943d4c63cf4c11f4d",
						"blockNumber": 10967465,
						"data": "0x0000000000000000000000000000000000000000000000000000000000000007",
						"index": 19,
						"topics": [
							"0xa65fb05c5808f5f389d72edeaf719ce38f4cc55c1f69ca3cbfb31c21501caa07",
							"0xeb76efeb8f97c5cb80ab72b380ea5b356ede5f4abbf2a0c560104f8a80b45857"
						],
						"transactionHash": "0x415c78b8520a1d6b11ba808a2acdaae246f939b17eed77bb65b9f23dce763aa3",
						"transactionIndex": 1
					},
					{
						"address": "0x1081B5AA9D9d4862A3dA4d469433FB36Ed80FA2A",
						"blockHash": "0x30e10fbfb262bad5c909b73963e809ed81c4706dd9299fc943d4c63cf4c11f4d",
						"blockNumber": 10967465,
						"data": "0x",
						"index": 20,
						"topics": [
							"0x6895c13664aa4f67288b25d7a21d7aaa34916e355fb9b6fae0a139a9085becb8",
							"0x000000000000000000000000ef1be3c049809cace5bc203bbe4ec1ab284bf75c"
						],
						"transactionHash": "0x415c78b8520a1d6b11ba808a2acdaae246f939b17eed77bb65b9f23dce763aa3",
						"transactionIndex": 1
					},
					{
						"address": "0xEf1Be3C049809caCe5Bc203BBe4Ec1Ab284bF75c",
						"blockHash": "0x30e10fbfb262bad5c909b73963e809ed81c4706dd9299fc943d4c63cf4c11f4d",
						"blockNumber": 10967465,
						"data": "0x0000000000000000000000000000000000000000000000000000000000000008",
						"index": 21,
						"topics": [
							"0xa65fb05c5808f5f389d72edeaf719ce38f4cc55c1f69ca3cbfb31c21501caa07",
							"0xeb76efeb8f97c5cb80ab72b380ea5b356ede5f4abbf2a0c560104f8a80b45857"
						],
						"transactionHash": "0x415c78b8520a1d6b11ba808a2acdaae246f939b17eed77bb65b9f23dce763aa3",
						"transactionIndex": 1
					}
				],
				"logsBloom": "0x0000000008001000000800000008020000000000000800000080000000400000006000800000000000000000004000000000000000000000000000000004001000000010000020040000000800080000040100000004000000020000000000000000000002000000000000000000080000000010000000000000001000000040000100000000000000010021000000000000000000004000000080002000000000400000001000000000000000000002020000000000000000000040000600100088000200080020000000000800000001000000000000000000000000006000000000000000a004000008000000000200000000000000000000000400000100",
				"status": 1,
				"to": "0xB5E96127D417b1B3ef8438496a38A143167209c7"
			},
			"metadata": "{\"compiler\":{\"version\":\"0.8.23+commit.f704f362\"},\"language\":\"Solidity\",\"output\":{\"abi\":[{\"inputs\":[],\"type\":\"error\",\"name\":\"PERMISSION_ID_OUT_OF_BOUNDS\"},{\"inputs\":[],\"type\":\"error\",\"name\":\"UNAUTHORIZED\"},{\"inputs\":[{\"internalType\":\"address\",\"name\":\"operator\",\"type\":\"address\",\"indexed\":true},{\"internalType\":\"address\",\"name\":\"account\",\"type\":\"address\",\"indexed\":true},{\"internalType\":\"uint256\",\"name\":\"projectId\",\"type\":\"uint256\",\"indexed\":true},{\"internalType\":\"uint256[]\",\"name\":\"permissionIds\",\"type\":\"uint256[]\",\"indexed\":false},{\"internalType\":\"uint256\",\"name\":\"packed\",\"type\":\"uint256\",\"indexed\":false},{\"internalType\":\"address\",\"name\":\"caller\",\"type\":\"address\",\"indexed\":false}],\"type\":\"event\",\"name\":\"OperatorPermissionsSet\",\"anonymous\":false},{\"inputs\":[{\"internalType\":\"address\",\"name\":\"operator\",\"type\":\"address\"},{\"internalType\":\"address\",\"name\":\"account\",\"type\":\"address\"},{\"internalType\":\"uint256\",\"name\":\"projectId\",\"type\":\"uint256\"},{\"internalType\":\"uint256\",\"name\":\"permissionId\",\"type\":\"uint256\"}],\"stateMutability\":\"view\",\"type\":\"function\",\"name\":\"hasPermission\",\"outputs\":[{\"internalType\":\"bool\",\"name\":\"\",\"type\":\"bool\"}]},{\"inputs\":[{\"internalType\":\"address\",\"name\":\"operator\",\"type\":\"address\"},{\"internalType\":\"address\",\"name\":\"account\",\"type\":\"address\"},{\"internalType\":\"uint256\",\"name\":\"projectId\",\"type\":\"uint256\"},{\"internalType\":\"uint256[]\",\"name\":\"permissionIds\",\"type\":\"uint256[]\"}],\"stateMutability\":\"view\",\"type\":\"function\",\"name\":\"hasPermissions\",\"outputs\":[{\"internalType\":\"bool\",\"name\":\"\",\"type\":\"bool\"}]},{\"inputs\":[{\"internalType\":\"address\",\"name\":\"operator\",\"type\":\"address\"},{\"internalType\":\"address\",\"name\":\"account\",\"type\":\"address\"},{\"internalType\":\"uint256\",\"name\":\"projectId\",\"type\":\"uint256\"}],\"stateMutability\":\"view\",\"type\":\"function\",\"name\":\"permissionsOf\",\"outputs\":[{\"internalType\":\"uint256\",\"name\":\"\",\"type\":\"uint256\"}]},{\"inputs\":[{\"internalType\":\"address\",\"name\":\"account\",\"type\":\"address\"},{\"internalType\":\"struct JBPermissionsData\",\"name\":\"permissionsData\",\"type\":\"tuple\",\"components\":[{\"internalType\":\"address\",\"name\":\"operator\",\"type\":\"address\"},{\"internalType\":\"uint256\",\"name\":\"projectId\",\"type\":\"uint256\"},{\"internalType\":\"uint256[]\",\"name\":\"permissionIds\",\"type\":\"uint256[]\"}]}],\"stateMutability\":\"nonpayable\",\"type\":\"function\",\"name\":\"setPermissionsFor\"}],\"devdoc\":{\"kind\":\"dev\",\"methods\":{\"hasPermission(address,address,uint256,uint256)\":{\"params\":{\"account\":\"The account being operated on behalf of.\",\"operator\":\"The operator to check.\",\"permissionId\":\"The permission ID to check for.\",\"projectId\":\"The project ID that the operator has permission to operate under. 0 represents all projects.\"},\"returns\":{\"_0\":\"A flag indicating whether the operator has the specified permission.\"}},\"hasPermissions(address,address,uint256,uint256[])\":{\"params\":{\"account\":\"The account being operated on behalf of.\",\"operator\":\"The operator to check.\",\"permissionIds\":\"An array of permission IDs to check for.\",\"projectId\":\"The project ID that the operator has permission to operate under. 0 represents all projects.\"},\"returns\":{\"_0\":\"A flag indicating whether the operator has all specified permissions.\"}},\"setPermissionsFor(address,(address,uint256,uint256[]))\":{\"details\":\"Only an address can give permissions to or revoke permissions from its operators.\",\"params\":{\"account\":\"The account setting its operators' permissions.\",\"permissionsData\":\"The data which specifies the permissions the operator is being given.\"}}},\"version\":1},\"userdoc\":{\"kind\":\"user\",\"methods\":{\"hasPermission(address,address,uint256,uint256)\":{\"notice\":\"Check if an operator has a specific permission for a specific address and project ID.\"},\"hasPermissions(address,address,uint256,uint256[])\":{\"notice\":\"Check if an operator has all of the specified permissions for a specific address and project ID.\"},\"permissionsOf(address,address,uint256)\":{\"notice\":\"The permissions that an operator has been given by an account for a specific project.\"},\"setPermissionsFor(address,(address,uint256,uint256[]))\":{\"notice\":\"Sets permissions for an operator.\"}},\"version\":1}},\"settings\":{\"remappings\":[\"@bananapus/=node_modules/@bananapus/\",\"@chainlink/=node_modules/@chainlink/\",\"@eth-optimism/=node_modules/@eth-optimism/\",\"@openzeppelin/=node_modules/@openzeppelin/\",\"@prb/=node_modules/@prb/\",\"@scroll-tech/=node_modules/@scroll-tech/\",\"@sphinx-labs/contracts/=lib/sphinx/packages/contracts/contracts/foundry/\",\"@uniswap/=node_modules/@uniswap/\",\"ds-test/=lib/forge-std/lib/ds-test/src/\",\"forge-std/=lib/forge-std/src/\",\"hardhat/=node_modules/hardhat/\",\"solmate/=node_modules/solmate/\",\"sphinx/=lib/sphinx/\"],\"optimizer\":{\"enabled\":true,\"runs\":200},\"metadata\":{\"bytecodeHash\":\"ipfs\"},\"compilationTarget\":{\"src/JBPermissions.sol\":\"JBPermissions\"},\"evmVersion\":\"paris\",\"libraries\":{}},\"sources\":{\"node_modules/@bananapus/permission-ids/src/JBPermissionIds.sol\":{\"keccak256\":\"0xf61109f6b217a80d5e5391f548fb6f2e451f7dbee3fabfc04cf17e88722203bc\",\"urls\":[\"bzz-raw://ac776ab1cd621c22bd7973471acdfa187f3abc659ad9a3ef6ed10b6447dfcf9c\",\"dweb:/ipfs/QmYLbaHt68qcuMzkiKpe96jMjiWUq1F3u8yMhxmZ3pnnWu\"],\"license\":\"MIT\"},\"src/JBPermissions.sol\":{\"keccak256\":\"0x7da24403b8346799cf5235cfe30a2babf6922042914715bbbfa8350cbc1c881a\",\"urls\":[\"bzz-raw://5bc08e30f81c5b0ed4e64814fe1a6642824a5afb6e6ba2ba8db6cf3040c45489\",\"dweb:/ipfs/QmXvfCmYpRUi3kGxDAMDhQnDWD7NogyXuA7Tyk9vEEJQRq\"],\"license\":\"MIT\"},\"src/interfaces/IJBPermissions.sol\":{\"keccak256\":\"0x18870e500edf0fbadc353e273a5574701fb80466376b908c65e7cc3f11044d4d\",\"urls\":[\"bzz-raw://352a47c45853aec80e7acf0d286ade3106eb4cb456776b28a3c2f3f1091bed90\",\"dweb:/ipfs/QmQeYd3YbudYZy2hfbfht9kwhxhw4tuuLKMEYy9UY6dcSy\"],\"license\":\"MIT\"},\"src/structs/JBPermissionsData.sol\":{\"keccak256\":\"0x8f0f69a6ebf5f3704e3dfcb3712fb9d3f94ae7c1ab89bf3e37bad42a3e7a0487\",\"urls\":[\"bzz-raw://57b0c5e52843e2217082889ed47b4da3943e0da4590d5768dcebfe3edad4a6b8\",\"dweb:/ipfs/QmRz48vuWLw81kUP836rh1qzqWiJFGbksgRUA9xGEDNKTY\"],\"license\":\"MIT\"}},\"version\":1}",
			"args": [],
			"bytecode": "0x608060405234801561001057600080fd5b5061060e806100206000396000f3fe608060405234801561001057600080fd5b506004361061004c5760003560e01c806305d2912e146100515780630f5932f01461006657806380deb2301461008e578063c161c93f146100cc575b600080fd5b61006461005f36600461038f565b6100df565b005b6100796100743660046103e4565b610206565b60405190151581526020015b60405180910390f35b6100be61009c366004610482565b6000602081815293815260408082208552928152828120909352825290205481565b604051908152602001610085565b6100796100da3660046104be565b6102af565b336001600160a01b0383161480159061010657506101043383836020013560016102af565b155b801561011d575061011b3383600060016102af565b155b1561013b5760405163075fd2b160e01b815260040160405180910390fd5b600061015261014d6040840184610500565b610310565b9050806000806101656020860186610551565b6001600160a01b039081168252602080830193909352604091820160009081209188168082529184528281208785018035808452919095529290209390935591906101b09085610551565b6001600160a01b03167ff8cdf10a0ce6189c6d069e97320ef146e2bcbd32d6c0b86dcbfbf3bd8578fa706101e76040870187610500565b86336040516101f99493929190610573565b60405180910390a4505050565b6001600160a01b0380861660009081526020818152604080832093881683529281528282208683529052908120548190815b8481101561029e57858582818110610252576102526105c2565b90506020020135925060ff83111561027d576040516334f9a01d60e21b815260040160405180910390fd5b600182841c1660000361029657600093505050506102a6565b600101610238565b506001925050505b95945050505050565b600060ff8211156102d3576040516334f9a01d60e21b815260040160405180910390fd5b506001600160a01b03808516600090815260208181526040808320938716835292815282822085835290522054600190821c811614949350505050565b60008060005b8381101561036b57848482818110610330576103306105c2565b90506020020135915060ff82111561035b576040516334f9a01d60e21b815260040160405180910390fd5b600180831b939093179201610316565b505092915050565b80356001600160a01b038116811461038a57600080fd5b919050565b600080604083850312156103a257600080fd5b6103ab83610373565b9150602083013567ffffffffffffffff8111156103c757600080fd5b8301606081860312156103d957600080fd5b809150509250929050565b6000806000806000608086880312156103fc57600080fd5b61040586610373565b945061041360208701610373565b935060408601359250606086013567ffffffffffffffff8082111561043757600080fd5b818801915088601f83011261044b57600080fd5b81358181111561045a57600080fd5b8960208260051b850101111561046f57600080fd5b9699959850939650602001949392505050565b60008060006060848603121561049757600080fd5b6104a084610373565b92506104ae60208501610373565b9150604084013590509250925092565b600080600080608085870312156104d457600080fd5b6104dd85610373565b93506104eb60208601610373565b93969395505050506040820135916060013590565b6000808335601e1984360301811261051757600080fd5b83018035915067ffffffffffffffff82111561053257600080fd5b6020019150600581901b360382131561054a57600080fd5b9250929050565b60006020828403121561056357600080fd5b61056c82610373565b9392505050565b6060808252810184905260006001600160fb1b0385111561059357600080fd5b8460051b808760808501376020830194909452506001600160a01b039190911660408201520160800192915050565b634e487b7160e01b600052603260045260246000fdfea2646970667358221220af2a43546322ac5181258b7151c830c3d5604e3c70bfff4c9d0d6c6757eae96064736f6c63430008170033",
			"deployedBytecode": "0x608060405234801561001057600080fd5b506004361061004c5760003560e01c806305d2912e146100515780630f5932f01461006657806380deb2301461008e578063c161c93f146100cc575b600080fd5b61006461005f36600461038f565b6100df565b005b6100796100743660046103e4565b610206565b60405190151581526020015b60405180910390f35b6100be61009c366004610482565b6000602081815293815260408082208552928152828120909352825290205481565b604051908152602001610085565b6100796100da3660046104be565b6102af565b336001600160a01b0383161480159061010657506101043383836020013560016102af565b155b801561011d575061011b3383600060016102af565b155b1561013b5760405163075fd2b160e01b815260040160405180910390fd5b600061015261014d6040840184610500565b610310565b9050806000806101656020860186610551565b6001600160a01b039081168252602080830193909352604091820160009081209188168082529184528281208785018035808452919095529290209390935591906101b09085610551565b6001600160a01b03167ff8cdf10a0ce6189c6d069e97320ef146e2bcbd32d6c0b86dcbfbf3bd8578fa706101e76040870187610500565b86336040516101f99493929190610573565b60405180910390a4505050565b6001600160a01b0380861660009081526020818152604080832093881683529281528282208683529052908120548190815b8481101561029e57858582818110610252576102526105c2565b90506020020135925060ff83111561027d576040516334f9a01d60e21b815260040160405180910390fd5b600182841c1660000361029657600093505050506102a6565b600101610238565b506001925050505b95945050505050565b600060ff8211156102d3576040516334f9a01d60e21b815260040160405180910390fd5b506001600160a01b03808516600090815260208181526040808320938716835292815282822085835290522054600190821c811614949350505050565b60008060005b8381101561036b57848482818110610330576103306105c2565b90506020020135915060ff82111561035b576040516334f9a01d60e21b815260040160405180910390fd5b600180831b939093179201610316565b505092915050565b80356001600160a01b038116811461038a57600080fd5b919050565b600080604083850312156103a257600080fd5b6103ab83610373565b9150602083013567ffffffffffffffff8111156103c757600080fd5b8301606081860312156103d957600080fd5b809150509250929050565b6000806000806000608086880312156103fc57600080fd5b61040586610373565b945061041360208701610373565b935060408601359250606086013567ffffffffffffffff8082111561043757600080fd5b818801915088601f83011261044b57600080fd5b81358181111561045a57600080fd5b8960208260051b850101111561046f57600080fd5b9699959850939650602001949392505050565b60008060006060848603121561049757600080fd5b6104a084610373565b92506104ae60208501610373565b9150604084013590509250925092565b600080600080608085870312156104d457600080fd5b6104dd85610373565b93506104eb60208601610373565b93969395505050506040820135916060013590565b6000808335601e1984360301811261051757600080fd5b83018035915067ffffffffffffffff82111561053257600080fd5b6020019150600581901b360382131561054a57600080fd5b9250929050565b60006020828403121561056357600080fd5b61056c82610373565b9392505050565b6060808252810184905260006001600160fb1b0385111561059357600080fd5b8460051b808760808501376020830194909452506001600160a01b039190911660408201520160800192915050565b634e487b7160e01b600052603260045260246000fdfea2646970667358221220af2a43546322ac5181258b7151c830c3d5604e3c70bfff4c9d0d6c6757eae96064736f6c63430008170033",
			"devdoc": {
				"kind": "dev",
				"methods": {
					"hasPermission(address,address,uint256,uint256)": {
						"params": {
							"account": "The account being operated on behalf of.",
							"operator": "The operator to check.",
							"permissionId": "The permission ID to check for.",
							"projectId": "The project ID that the operator has permission to operate under. 0 represents all projects."
						},
						"returns": {
							"_0": "A flag indicating whether the operator has the specified permission."
						}
					},
					"hasPermissions(address,address,uint256,uint256[])": {
						"params": {
							"account": "The account being operated on behalf of.",
							"operator": "The operator to check.",
							"permissionIds": "An array of permission IDs to check for.",
							"projectId": "The project ID that the operator has permission to operate under. 0 represents all projects."
						},
						"returns": {
							"_0": "A flag indicating whether the operator has all specified permissions."
						}
					},
					"setPermissionsFor(address,(address,uint256,uint256[]))": {
						"details": "Only an address can give permissions to or revoke permissions from its operators.",
						"params": {
							"account": "The account setting its operators' permissions.",
							"permissionsData": "The data which specifies the permissions the operator is being given."
						}
					}
				},
				"version": 1
			},
			"userdoc": {
				"kind": "user",
				"methods": {
					"hasPermission(address,address,uint256,uint256)": {
						"notice": "Check if an operator has a specific permission for a specific address and project ID."
					},
					"hasPermissions(address,address,uint256,uint256[])": {
						"notice": "Check if an operator has all of the specified permissions for a specific address and project ID."
					},
					"permissionsOf(address,address,uint256)": {
						"notice": "The permissions that an operator has been given by an account for a specific project."
					},
					"setPermissionsFor(address,(address,uint256,uint256[]))": {
						"notice": "Sets permissions for an operator."
					}
				},
				"version": 1
			},
			"gitCommit": "8e6924651d1e8038d6c2982d6d0c09a070b141a7",
			"sourceName": "src/JBPermissions.sol",
			"chainId": "11155420",
			"linkReferences": {},
			"deployedLinkReferences": {}
		},
		{
			"_format": "sphinx-sol-ct-artifact-1",
			"merkleRoot": "0x1c031ac0217a16bc8b880bc3a6e637a3fb319bf6343a8af2f9d37587d2ef9836",
			"contractName": "JBPermissions",
			"address": "0x6B8340b759d72E08b3fb674B48547E80631007cb",
			"abi": [
				{
					"type": "function",
					"name": "hasPermission",
					"inputs": [
						{
							"name": "operator",
							"type": "address",
							"internalType": "address"
						},
						{
							"name": "account",
							"type": "address",
							"internalType": "address"
						},
						{
							"name": "projectId",
							"type": "uint256",
							"internalType": "uint256"
						},
						{
							"name": "permissionId",
							"type": "uint256",
							"internalType": "uint256"
						}
					],
					"outputs": [
						{
							"name": "",
							"type": "bool",
							"internalType": "bool"
						}
					],
					"stateMutability": "view"
				},
				{
					"type": "function",
					"name": "hasPermissions",
					"inputs": [
						{
							"name": "operator",
							"type": "address",
							"internalType": "address"
						},
						{
							"name": "account",
							"type": "address",
							"internalType": "address"
						},
						{
							"name": "projectId",
							"type": "uint256",
							"internalType": "uint256"
						},
						{
							"name": "permissionIds",
							"type": "uint256[]",
							"internalType": "uint256[]"
						}
					],
					"outputs": [
						{
							"name": "",
							"type": "bool",
							"internalType": "bool"
						}
					],
					"stateMutability": "view"
				},
				{
					"type": "function",
					"name": "permissionsOf",
					"inputs": [
						{
							"name": "operator",
							"type": "address",
							"internalType": "address"
						},
						{
							"name": "account",
							"type": "address",
							"internalType": "address"
						},
						{
							"name": "projectId",
							"type": "uint256",
							"internalType": "uint256"
						}
					],
					"outputs": [
						{
							"name": "",
							"type": "uint256",
							"internalType": "uint256"
						}
					],
					"stateMutability": "view"
				},
				{
					"type": "function",
					"name": "setPermissionsFor",
					"inputs": [
						{
							"name": "account",
							"type": "address",
							"internalType": "address"
						},
						{
							"name": "permissionsData",
							"type": "tuple",
							"internalType": "struct JBPermissionsData",
							"components": [
								{
									"name": "operator",
									"type": "address",
									"internalType": "address"
								},
								{
									"name": "projectId",
									"type": "uint256",
									"internalType": "uint256"
								},
								{
									"name": "permissionIds",
									"type": "uint256[]",
									"internalType": "uint256[]"
								}
							]
						}
					],
					"outputs": [],
					"stateMutability": "nonpayable"
				},
				{
					"type": "event",
					"name": "OperatorPermissionsSet",
					"inputs": [
						{
							"name": "operator",
							"type": "address",
							"indexed": true,
							"internalType": "address"
						},
						{
							"name": "account",
							"type": "address",
							"indexed": true,
							"internalType": "address"
						},
						{
							"name": "projectId",
							"type": "uint256",
							"indexed": true,
							"internalType": "uint256"
						},
						{
							"name": "permissionIds",
							"type": "uint256[]",
							"indexed": false,
							"internalType": "uint256[]"
						},
						{
							"name": "packed",
							"type": "uint256",
							"indexed": false,
							"internalType": "uint256"
						},
						{
							"name": "caller",
							"type": "address",
							"indexed": false,
							"internalType": "address"
						}
					],
					"anonymous": false
				},
				{
					"type": "error",
					"name": "PERMISSION_ID_OUT_OF_BOUNDS",
					"inputs": []
				},
				{
					"type": "error",
					"name": "UNAUTHORIZED",
					"inputs": []
				}
			],
			"solcInputHash": "5d7a79485a8a4fd8d39819ca7cc29822",
			"receipt": {
				"blockHash": "0x187e430ce5967d914d44d4c968f17a6a827f2d0de44272ea3b4b94be2101a7e8",
				"blockNumber": 11431248,
				"contractAddress": null,
				"cumulativeGasUsed": "14709110",
				"from": "0xC034550B542b83BA1De312b21d1C94a9a52B1595",
				"gasPrice": "1000265",
				"gasUsed": "11008803",
				"hash": "0x8510703fb859ffd4c2988374d996d4e828b642bc46a6b930af7c3077e3124dc5",
				"index": 8,
				"logs": [
					{
						"address": "0xB5E96127D417b1B3ef8438496a38A143167209c7",
						"blockHash": "0x187e430ce5967d914d44d4c968f17a6a827f2d0de44272ea3b4b94be2101a7e8",
						"blockNumber": 11431248,
						"data": "0x0000000000000000000000000000000000000000000000000000000000000000",
						"index": 52,
						"topics": [
							"0x572f161235911da04685a68c06adf558fc7e4a36909dca394650e0adc19cc93d",
							"0x000000000000000000000000c034550b542b83ba1de312b21d1c94a9a52b1595",
							"0x000000000000000000000000ef1be3c049809cace5bc203bbe4ec1ab284bf75c",
							"0x8bef54758517412be10fe0b5059a2fa81879c6973bed92f418c773dd25705c7c"
						],
						"transactionHash": "0x8510703fb859ffd4c2988374d996d4e828b642bc46a6b930af7c3077e3124dc5",
						"transactionIndex": 8
					},
					{
						"address": "0x1081B5AA9D9d4862A3dA4d469433FB36Ed80FA2A",
						"blockHash": "0x187e430ce5967d914d44d4c968f17a6a827f2d0de44272ea3b4b94be2101a7e8",
						"blockNumber": 11431248,
						"data": "0x",
						"index": 53,
						"topics": [
							"0x6895c13664aa4f67288b25d7a21d7aaa34916e355fb9b6fae0a139a9085becb8",
							"0x000000000000000000000000ef1be3c049809cace5bc203bbe4ec1ab284bf75c"
						],
						"transactionHash": "0x8510703fb859ffd4c2988374d996d4e828b642bc46a6b930af7c3077e3124dc5",
						"transactionIndex": 8
					},
					{
						"address": "0xEf1Be3C049809caCe5Bc203BBe4Ec1Ab284bF75c",
						"blockHash": "0x187e430ce5967d914d44d4c968f17a6a827f2d0de44272ea3b4b94be2101a7e8",
						"blockNumber": 11431248,
						"data": "0x0000000000000000000000000000000000000000000000000000000000000001",
						"index": 54,
						"topics": [
							"0xa65fb05c5808f5f389d72edeaf719ce38f4cc55c1f69ca3cbfb31c21501caa07",
							"0x1c031ac0217a16bc8b880bc3a6e637a3fb319bf6343a8af2f9d37587d2ef9836"
						],
						"transactionHash": "0x8510703fb859ffd4c2988374d996d4e828b642bc46a6b930af7c3077e3124dc5",
						"transactionIndex": 8
					},
					{
						"address": "0x2ca466eB84DD69A99E25d10BBbdA6e1B3c562c49",
						"blockHash": "0x187e430ce5967d914d44d4c968f17a6a827f2d0de44272ea3b4b94be2101a7e8",
						"blockNumber": 11431248,
						"data": "0x",
						"index": 55,
						"topics": [
							"0x8be0079c531659141344cd1fd0a4f28419497f9722a3daafe3b4186f6b6457e0",
							"0x0000000000000000000000000000000000000000000000000000000000000000",
							"0x0000000000000000000000001081b5aa9d9d4862a3da4d469433fb36ed80fa2a"
						],
						"transactionHash": "0x8510703fb859ffd4c2988374d996d4e828b642bc46a6b930af7c3077e3124dc5",
						"transactionIndex": 8
					},
					{
						"address": "0x2ca466eB84DD69A99E25d10BBbdA6e1B3c562c49",
						"blockHash": "0x187e430ce5967d914d44d4c968f17a6a827f2d0de44272ea3b4b94be2101a7e8",
						"blockNumber": 11431248,
						"data": "0x",
						"index": 56,
						"topics": [
							"0xddf252ad1be2c89b69c2b068fc378daa952ba7f163c4a11628f55a4df523b3ef",
							"0x0000000000000000000000000000000000000000000000000000000000000000",
							"0x0000000000000000000000001081b5aa9d9d4862a3da4d469433fb36ed80fa2a",
							"0x0000000000000000000000000000000000000000000000000000000000000001"
						],
						"transactionHash": "0x8510703fb859ffd4c2988374d996d4e828b642bc46a6b930af7c3077e3124dc5",
						"transactionIndex": 8
					},
					{
						"address": "0x2ca466eB84DD69A99E25d10BBbdA6e1B3c562c49",
						"blockHash": "0x187e430ce5967d914d44d4c968f17a6a827f2d0de44272ea3b4b94be2101a7e8",
						"blockNumber": 11431248,
						"data": "0x0000000000000000000000004e59b44847b379578588920ca78fbf26c0b4956c",
						"index": 57,
						"topics": [
							"0x365b3162cd780731fc55a794b59494d472bc2af701007f581843a70673814698",
							"0x0000000000000000000000000000000000000000000000000000000000000001",
							"0x0000000000000000000000001081b5aa9d9d4862a3da4d469433fb36ed80fa2a"
						],
						"transactionHash": "0x8510703fb859ffd4c2988374d996d4e828b642bc46a6b930af7c3077e3124dc5",
						"transactionIndex": 8
					},
					{
						"address": "0x1081B5AA9D9d4862A3dA4d469433FB36Ed80FA2A",
						"blockHash": "0x187e430ce5967d914d44d4c968f17a6a827f2d0de44272ea3b4b94be2101a7e8",
						"blockNumber": 11431248,
						"data": "0x",
						"index": 58,
						"topics": [
							"0x6895c13664aa4f67288b25d7a21d7aaa34916e355fb9b6fae0a139a9085becb8",
							"0x000000000000000000000000ef1be3c049809cace5bc203bbe4ec1ab284bf75c"
						],
						"transactionHash": "0x8510703fb859ffd4c2988374d996d4e828b642bc46a6b930af7c3077e3124dc5",
						"transactionIndex": 8
					},
					{
						"address": "0xEf1Be3C049809caCe5Bc203BBe4Ec1Ab284bF75c",
						"blockHash": "0x187e430ce5967d914d44d4c968f17a6a827f2d0de44272ea3b4b94be2101a7e8",
						"blockNumber": 11431248,
						"data": "0x0000000000000000000000000000000000000000000000000000000000000002",
						"index": 59,
						"topics": [
							"0xa65fb05c5808f5f389d72edeaf719ce38f4cc55c1f69ca3cbfb31c21501caa07",
							"0x1c031ac0217a16bc8b880bc3a6e637a3fb319bf6343a8af2f9d37587d2ef9836"
						],
						"transactionHash": "0x8510703fb859ffd4c2988374d996d4e828b642bc46a6b930af7c3077e3124dc5",
						"transactionIndex": 8
					},
					{
						"address": "0xCd7112aE7c3b2505F0795c1ba965e5694c25d696",
						"blockHash": "0x187e430ce5967d914d44d4c968f17a6a827f2d0de44272ea3b4b94be2101a7e8",
						"blockNumber": 11431248,
						"data": "0x",
						"index": 60,
						"topics": [
							"0x8be0079c531659141344cd1fd0a4f28419497f9722a3daafe3b4186f6b6457e0",
							"0x0000000000000000000000000000000000000000000000000000000000000000",
							"0x0000000000000000000000001081b5aa9d9d4862a3da4d469433fb36ed80fa2a"
						],
						"transactionHash": "0x8510703fb859ffd4c2988374d996d4e828b642bc46a6b930af7c3077e3124dc5",
						"transactionIndex": 8
					},
					{
						"address": "0x1081B5AA9D9d4862A3dA4d469433FB36Ed80FA2A",
						"blockHash": "0x187e430ce5967d914d44d4c968f17a6a827f2d0de44272ea3b4b94be2101a7e8",
						"blockNumber": 11431248,
						"data": "0x",
						"index": 61,
						"topics": [
							"0x6895c13664aa4f67288b25d7a21d7aaa34916e355fb9b6fae0a139a9085becb8",
							"0x000000000000000000000000ef1be3c049809cace5bc203bbe4ec1ab284bf75c"
						],
						"transactionHash": "0x8510703fb859ffd4c2988374d996d4e828b642bc46a6b930af7c3077e3124dc5",
						"transactionIndex": 8
					},
					{
						"address": "0xEf1Be3C049809caCe5Bc203BBe4Ec1Ab284bF75c",
						"blockHash": "0x187e430ce5967d914d44d4c968f17a6a827f2d0de44272ea3b4b94be2101a7e8",
						"blockNumber": 11431248,
						"data": "0x0000000000000000000000000000000000000000000000000000000000000003",
						"index": 62,
						"topics": [
							"0xa65fb05c5808f5f389d72edeaf719ce38f4cc55c1f69ca3cbfb31c21501caa07",
							"0x1c031ac0217a16bc8b880bc3a6e637a3fb319bf6343a8af2f9d37587d2ef9836"
						],
						"transactionHash": "0x8510703fb859ffd4c2988374d996d4e828b642bc46a6b930af7c3077e3124dc5",
						"transactionIndex": 8
					},
					{
						"address": "0x1081B5AA9D9d4862A3dA4d469433FB36Ed80FA2A",
						"blockHash": "0x187e430ce5967d914d44d4c968f17a6a827f2d0de44272ea3b4b94be2101a7e8",
						"blockNumber": 11431248,
						"data": "0x",
						"index": 63,
						"topics": [
							"0x6895c13664aa4f67288b25d7a21d7aaa34916e355fb9b6fae0a139a9085becb8",
							"0x000000000000000000000000ef1be3c049809cace5bc203bbe4ec1ab284bf75c"
						],
						"transactionHash": "0x8510703fb859ffd4c2988374d996d4e828b642bc46a6b930af7c3077e3124dc5",
						"transactionIndex": 8
					},
					{
						"address": "0xEf1Be3C049809caCe5Bc203BBe4Ec1Ab284bF75c",
						"blockHash": "0x187e430ce5967d914d44d4c968f17a6a827f2d0de44272ea3b4b94be2101a7e8",
						"blockNumber": 11431248,
						"data": "0x0000000000000000000000000000000000000000000000000000000000000004",
						"index": 64,
						"topics": [
							"0xa65fb05c5808f5f389d72edeaf719ce38f4cc55c1f69ca3cbfb31c21501caa07",
							"0x1c031ac0217a16bc8b880bc3a6e637a3fb319bf6343a8af2f9d37587d2ef9836"
						],
						"transactionHash": "0x8510703fb859ffd4c2988374d996d4e828b642bc46a6b930af7c3077e3124dc5",
						"transactionIndex": 8
					},
					{
						"address": "0x1081B5AA9D9d4862A3dA4d469433FB36Ed80FA2A",
						"blockHash": "0x187e430ce5967d914d44d4c968f17a6a827f2d0de44272ea3b4b94be2101a7e8",
						"blockNumber": 11431248,
						"data": "0x",
						"index": 65,
						"topics": [
							"0x6895c13664aa4f67288b25d7a21d7aaa34916e355fb9b6fae0a139a9085becb8",
							"0x000000000000000000000000ef1be3c049809cace5bc203bbe4ec1ab284bf75c"
						],
						"transactionHash": "0x8510703fb859ffd4c2988374d996d4e828b642bc46a6b930af7c3077e3124dc5",
						"transactionIndex": 8
					},
					{
						"address": "0xEf1Be3C049809caCe5Bc203BBe4Ec1Ab284bF75c",
						"blockHash": "0x187e430ce5967d914d44d4c968f17a6a827f2d0de44272ea3b4b94be2101a7e8",
						"blockNumber": 11431248,
						"data": "0x0000000000000000000000000000000000000000000000000000000000000005",
						"index": 66,
						"topics": [
							"0xa65fb05c5808f5f389d72edeaf719ce38f4cc55c1f69ca3cbfb31c21501caa07",
							"0x1c031ac0217a16bc8b880bc3a6e637a3fb319bf6343a8af2f9d37587d2ef9836"
						],
						"transactionHash": "0x8510703fb859ffd4c2988374d996d4e828b642bc46a6b930af7c3077e3124dc5",
						"transactionIndex": 8
					},
					{
						"address": "0xf8febDbCC8ACfb46BfB59e7695F77d8eA653a69d",
						"blockHash": "0x187e430ce5967d914d44d4c968f17a6a827f2d0de44272ea3b4b94be2101a7e8",
						"blockNumber": 11431248,
						"data": "0x",
						"index": 67,
						"topics": [
							"0x8be0079c531659141344cd1fd0a4f28419497f9722a3daafe3b4186f6b6457e0",
							"0x0000000000000000000000000000000000000000000000000000000000000000",
							"0x000000000000000000000000f8febdbcc8acfb46bfb59e7695f77d8ea653a69d"
						],
						"transactionHash": "0x8510703fb859ffd4c2988374d996d4e828b642bc46a6b930af7c3077e3124dc5",
						"transactionIndex": 8
					},
					{
						"address": "0x1081B5AA9D9d4862A3dA4d469433FB36Ed80FA2A",
						"blockHash": "0x187e430ce5967d914d44d4c968f17a6a827f2d0de44272ea3b4b94be2101a7e8",
						"blockNumber": 11431248,
						"data": "0x",
						"index": 68,
						"topics": [
							"0x6895c13664aa4f67288b25d7a21d7aaa34916e355fb9b6fae0a139a9085becb8",
							"0x000000000000000000000000ef1be3c049809cace5bc203bbe4ec1ab284bf75c"
						],
						"transactionHash": "0x8510703fb859ffd4c2988374d996d4e828b642bc46a6b930af7c3077e3124dc5",
						"transactionIndex": 8
					},
					{
						"address": "0xEf1Be3C049809caCe5Bc203BBe4Ec1Ab284bF75c",
						"blockHash": "0x187e430ce5967d914d44d4c968f17a6a827f2d0de44272ea3b4b94be2101a7e8",
						"blockNumber": 11431248,
						"data": "0x0000000000000000000000000000000000000000000000000000000000000006",
						"index": 69,
						"topics": [
							"0xa65fb05c5808f5f389d72edeaf719ce38f4cc55c1f69ca3cbfb31c21501caa07",
							"0x1c031ac0217a16bc8b880bc3a6e637a3fb319bf6343a8af2f9d37587d2ef9836"
						],
						"transactionHash": "0x8510703fb859ffd4c2988374d996d4e828b642bc46a6b930af7c3077e3124dc5",
						"transactionIndex": 8
					},
					{
						"address": "0x1081B5AA9D9d4862A3dA4d469433FB36Ed80FA2A",
						"blockHash": "0x187e430ce5967d914d44d4c968f17a6a827f2d0de44272ea3b4b94be2101a7e8",
						"blockNumber": 11431248,
						"data": "0x",
						"index": 70,
						"topics": [
							"0x6895c13664aa4f67288b25d7a21d7aaa34916e355fb9b6fae0a139a9085becb8",
							"0x000000000000000000000000ef1be3c049809cace5bc203bbe4ec1ab284bf75c"
						],
						"transactionHash": "0x8510703fb859ffd4c2988374d996d4e828b642bc46a6b930af7c3077e3124dc5",
						"transactionIndex": 8
					},
					{
						"address": "0xEf1Be3C049809caCe5Bc203BBe4Ec1Ab284bF75c",
						"blockHash": "0x187e430ce5967d914d44d4c968f17a6a827f2d0de44272ea3b4b94be2101a7e8",
						"blockNumber": 11431248,
						"data": "0x0000000000000000000000000000000000000000000000000000000000000007",
						"index": 71,
						"topics": [
							"0xa65fb05c5808f5f389d72edeaf719ce38f4cc55c1f69ca3cbfb31c21501caa07",
							"0x1c031ac0217a16bc8b880bc3a6e637a3fb319bf6343a8af2f9d37587d2ef9836"
						],
						"transactionHash": "0x8510703fb859ffd4c2988374d996d4e828b642bc46a6b930af7c3077e3124dc5",
						"transactionIndex": 8
					},
					{
						"address": "0x1081B5AA9D9d4862A3dA4d469433FB36Ed80FA2A",
						"blockHash": "0x187e430ce5967d914d44d4c968f17a6a827f2d0de44272ea3b4b94be2101a7e8",
						"blockNumber": 11431248,
						"data": "0x",
						"index": 72,
						"topics": [
							"0x6895c13664aa4f67288b25d7a21d7aaa34916e355fb9b6fae0a139a9085becb8",
							"0x000000000000000000000000ef1be3c049809cace5bc203bbe4ec1ab284bf75c"
						],
						"transactionHash": "0x8510703fb859ffd4c2988374d996d4e828b642bc46a6b930af7c3077e3124dc5",
						"transactionIndex": 8
					},
					{
						"address": "0xEf1Be3C049809caCe5Bc203BBe4Ec1Ab284bF75c",
						"blockHash": "0x187e430ce5967d914d44d4c968f17a6a827f2d0de44272ea3b4b94be2101a7e8",
						"blockNumber": 11431248,
						"data": "0x0000000000000000000000000000000000000000000000000000000000000008",
						"index": 73,
						"topics": [
							"0xa65fb05c5808f5f389d72edeaf719ce38f4cc55c1f69ca3cbfb31c21501caa07",
							"0x1c031ac0217a16bc8b880bc3a6e637a3fb319bf6343a8af2f9d37587d2ef9836"
						],
						"transactionHash": "0x8510703fb859ffd4c2988374d996d4e828b642bc46a6b930af7c3077e3124dc5",
						"transactionIndex": 8
					}
				],
				"logsBloom": "0x000000000800100000080000000802000000000000080000008000000040000000600080000000000000000000404000000000000000000000000000000400000000001000002004000000080102000000010000000c0000000200080000000000020000024000000000000000000800080100100000000000000010000000400001800200000000000100000000000000000000000000000000800000000000004000000010000000000000000000020200000000080000010080000006000000000002000000200000000008000000010000000000000000000000000060000000000000000004000000000000000200000000000000000040100000000000",
				"status": 1,
				"to": "0xB5E96127D417b1B3ef8438496a38A143167209c7"
			},
			"metadata": "{\"compiler\":{\"version\":\"0.8.23+commit.f704f362\"},\"language\":\"Solidity\",\"output\":{\"abi\":[{\"inputs\":[],\"type\":\"error\",\"name\":\"PERMISSION_ID_OUT_OF_BOUNDS\"},{\"inputs\":[],\"type\":\"error\",\"name\":\"UNAUTHORIZED\"},{\"inputs\":[{\"internalType\":\"address\",\"name\":\"operator\",\"type\":\"address\",\"indexed\":true},{\"internalType\":\"address\",\"name\":\"account\",\"type\":\"address\",\"indexed\":true},{\"internalType\":\"uint256\",\"name\":\"projectId\",\"type\":\"uint256\",\"indexed\":true},{\"internalType\":\"uint256[]\",\"name\":\"permissionIds\",\"type\":\"uint256[]\",\"indexed\":false},{\"internalType\":\"uint256\",\"name\":\"packed\",\"type\":\"uint256\",\"indexed\":false},{\"internalType\":\"address\",\"name\":\"caller\",\"type\":\"address\",\"indexed\":false}],\"type\":\"event\",\"name\":\"OperatorPermissionsSet\",\"anonymous\":false},{\"inputs\":[{\"internalType\":\"address\",\"name\":\"operator\",\"type\":\"address\"},{\"internalType\":\"address\",\"name\":\"account\",\"type\":\"address\"},{\"internalType\":\"uint256\",\"name\":\"projectId\",\"type\":\"uint256\"},{\"internalType\":\"uint256\",\"name\":\"permissionId\",\"type\":\"uint256\"}],\"stateMutability\":\"view\",\"type\":\"function\",\"name\":\"hasPermission\",\"outputs\":[{\"internalType\":\"bool\",\"name\":\"\",\"type\":\"bool\"}]},{\"inputs\":[{\"internalType\":\"address\",\"name\":\"operator\",\"type\":\"address\"},{\"internalType\":\"address\",\"name\":\"account\",\"type\":\"address\"},{\"internalType\":\"uint256\",\"name\":\"projectId\",\"type\":\"uint256\"},{\"internalType\":\"uint256[]\",\"name\":\"permissionIds\",\"type\":\"uint256[]\"}],\"stateMutability\":\"view\",\"type\":\"function\",\"name\":\"hasPermissions\",\"outputs\":[{\"internalType\":\"bool\",\"name\":\"\",\"type\":\"bool\"}]},{\"inputs\":[{\"internalType\":\"address\",\"name\":\"operator\",\"type\":\"address\"},{\"internalType\":\"address\",\"name\":\"account\",\"type\":\"address\"},{\"internalType\":\"uint256\",\"name\":\"projectId\",\"type\":\"uint256\"}],\"stateMutability\":\"view\",\"type\":\"function\",\"name\":\"permissionsOf\",\"outputs\":[{\"internalType\":\"uint256\",\"name\":\"\",\"type\":\"uint256\"}]},{\"inputs\":[{\"internalType\":\"address\",\"name\":\"account\",\"type\":\"address\"},{\"internalType\":\"struct JBPermissionsData\",\"name\":\"permissionsData\",\"type\":\"tuple\",\"components\":[{\"internalType\":\"address\",\"name\":\"operator\",\"type\":\"address\"},{\"internalType\":\"uint256\",\"name\":\"projectId\",\"type\":\"uint256\"},{\"internalType\":\"uint256[]\",\"name\":\"permissionIds\",\"type\":\"uint256[]\"}]}],\"stateMutability\":\"nonpayable\",\"type\":\"function\",\"name\":\"setPermissionsFor\"}],\"devdoc\":{\"kind\":\"dev\",\"methods\":{\"hasPermission(address,address,uint256,uint256)\":{\"params\":{\"account\":\"The account being operated on behalf of.\",\"operator\":\"The operator to check.\",\"permissionId\":\"The permission ID to check for.\",\"projectId\":\"The project ID that the operator has permission to operate under. 0 represents all projects.\"},\"returns\":{\"_0\":\"A flag indicating whether the operator has the specified permission.\"}},\"hasPermissions(address,address,uint256,uint256[])\":{\"params\":{\"account\":\"The account being operated on behalf of.\",\"operator\":\"The operator to check.\",\"permissionIds\":\"An array of permission IDs to check for.\",\"projectId\":\"The project ID that the operator has permission to operate under. 0 represents all projects.\"},\"returns\":{\"_0\":\"A flag indicating whether the operator has all specified permissions.\"}},\"setPermissionsFor(address,(address,uint256,uint256[]))\":{\"details\":\"Only an address can give permissions to or revoke permissions from its operators.\",\"params\":{\"account\":\"The account setting its operators' permissions.\",\"permissionsData\":\"The data which specifies the permissions the operator is being given.\"}}},\"version\":1},\"userdoc\":{\"kind\":\"user\",\"methods\":{\"hasPermission(address,address,uint256,uint256)\":{\"notice\":\"Check if an operator has a specific permission for a specific address and project ID.\"},\"hasPermissions(address,address,uint256,uint256[])\":{\"notice\":\"Check if an operator has all of the specified permissions for a specific address and project ID.\"},\"permissionsOf(address,address,uint256)\":{\"notice\":\"The permissions that an operator has been given by an account for a specific project.\"},\"setPermissionsFor(address,(address,uint256,uint256[]))\":{\"notice\":\"Sets permissions for an operator.\"}},\"version\":1}},\"settings\":{\"remappings\":[\"@bananapus/=node_modules/@bananapus/\",\"@chainlink/=node_modules/@chainlink/\",\"@eth-optimism/=node_modules/@eth-optimism/\",\"@openzeppelin/=node_modules/@openzeppelin/\",\"@prb/=node_modules/@prb/\",\"@scroll-tech/=node_modules/@scroll-tech/\",\"@sphinx-labs/contracts/=lib/sphinx/packages/contracts/contracts/foundry/\",\"@uniswap/=node_modules/@uniswap/\",\"ds-test/=lib/forge-std/lib/ds-test/src/\",\"forge-std/=lib/forge-std/src/\",\"hardhat/=node_modules/hardhat/\",\"solmate/=node_modules/solmate/\",\"sphinx/=lib/sphinx/\"],\"optimizer\":{\"enabled\":true,\"runs\":200},\"metadata\":{\"bytecodeHash\":\"ipfs\"},\"compilationTarget\":{\"src/JBPermissions.sol\":\"JBPermissions\"},\"evmVersion\":\"paris\",\"libraries\":{}},\"sources\":{\"node_modules/@bananapus/permission-ids/src/JBPermissionIds.sol\":{\"keccak256\":\"0xf61109f6b217a80d5e5391f548fb6f2e451f7dbee3fabfc04cf17e88722203bc\",\"urls\":[\"bzz-raw://ac776ab1cd621c22bd7973471acdfa187f3abc659ad9a3ef6ed10b6447dfcf9c\",\"dweb:/ipfs/QmYLbaHt68qcuMzkiKpe96jMjiWUq1F3u8yMhxmZ3pnnWu\"],\"license\":\"MIT\"},\"src/JBPermissions.sol\":{\"keccak256\":\"0x7da24403b8346799cf5235cfe30a2babf6922042914715bbbfa8350cbc1c881a\",\"urls\":[\"bzz-raw://5bc08e30f81c5b0ed4e64814fe1a6642824a5afb6e6ba2ba8db6cf3040c45489\",\"dweb:/ipfs/QmXvfCmYpRUi3kGxDAMDhQnDWD7NogyXuA7Tyk9vEEJQRq\"],\"license\":\"MIT\"},\"src/interfaces/IJBPermissions.sol\":{\"keccak256\":\"0x18870e500edf0fbadc353e273a5574701fb80466376b908c65e7cc3f11044d4d\",\"urls\":[\"bzz-raw://352a47c45853aec80e7acf0d286ade3106eb4cb456776b28a3c2f3f1091bed90\",\"dweb:/ipfs/QmQeYd3YbudYZy2hfbfht9kwhxhw4tuuLKMEYy9UY6dcSy\"],\"license\":\"MIT\"},\"src/structs/JBPermissionsData.sol\":{\"keccak256\":\"0x8f0f69a6ebf5f3704e3dfcb3712fb9d3f94ae7c1ab89bf3e37bad42a3e7a0487\",\"urls\":[\"bzz-raw://57b0c5e52843e2217082889ed47b4da3943e0da4590d5768dcebfe3edad4a6b8\",\"dweb:/ipfs/QmRz48vuWLw81kUP836rh1qzqWiJFGbksgRUA9xGEDNKTY\"],\"license\":\"MIT\"}},\"version\":1}",
			"args": [],
			"bytecode": "0x608060405234801561001057600080fd5b5061060e806100206000396000f3fe608060405234801561001057600080fd5b506004361061004c5760003560e01c806305d2912e146100515780630f5932f01461006657806380deb2301461008e578063c161c93f146100cc575b600080fd5b61006461005f36600461038f565b6100df565b005b6100796100743660046103e4565b610206565b60405190151581526020015b60405180910390f35b6100be61009c366004610482565b6000602081815293815260408082208552928152828120909352825290205481565b604051908152602001610085565b6100796100da3660046104be565b6102af565b336001600160a01b0383161480159061010657506101043383836020013560016102af565b155b801561011d575061011b3383600060016102af565b155b1561013b5760405163075fd2b160e01b815260040160405180910390fd5b600061015261014d6040840184610500565b610310565b9050806000806101656020860186610551565b6001600160a01b039081168252602080830193909352604091820160009081209188168082529184528281208785018035808452919095529290209390935591906101b09085610551565b6001600160a01b03167ff8cdf10a0ce6189c6d069e97320ef146e2bcbd32d6c0b86dcbfbf3bd8578fa706101e76040870187610500565b86336040516101f99493929190610573565b60405180910390a4505050565b6001600160a01b0380861660009081526020818152604080832093881683529281528282208683529052908120548190815b8481101561029e57858582818110610252576102526105c2565b90506020020135925060ff83111561027d576040516334f9a01d60e21b815260040160405180910390fd5b600182841c1660000361029657600093505050506102a6565b600101610238565b506001925050505b95945050505050565b600060ff8211156102d3576040516334f9a01d60e21b815260040160405180910390fd5b506001600160a01b03808516600090815260208181526040808320938716835292815282822085835290522054600190821c811614949350505050565b60008060005b8381101561036b57848482818110610330576103306105c2565b90506020020135915060ff82111561035b576040516334f9a01d60e21b815260040160405180910390fd5b600180831b939093179201610316565b505092915050565b80356001600160a01b038116811461038a57600080fd5b919050565b600080604083850312156103a257600080fd5b6103ab83610373565b9150602083013567ffffffffffffffff8111156103c757600080fd5b8301606081860312156103d957600080fd5b809150509250929050565b6000806000806000608086880312156103fc57600080fd5b61040586610373565b945061041360208701610373565b935060408601359250606086013567ffffffffffffffff8082111561043757600080fd5b818801915088601f83011261044b57600080fd5b81358181111561045a57600080fd5b8960208260051b850101111561046f57600080fd5b9699959850939650602001949392505050565b60008060006060848603121561049757600080fd5b6104a084610373565b92506104ae60208501610373565b9150604084013590509250925092565b600080600080608085870312156104d457600080fd5b6104dd85610373565b93506104eb60208601610373565b93969395505050506040820135916060013590565b6000808335601e1984360301811261051757600080fd5b83018035915067ffffffffffffffff82111561053257600080fd5b6020019150600581901b360382131561054a57600080fd5b9250929050565b60006020828403121561056357600080fd5b61056c82610373565b9392505050565b6060808252810184905260006001600160fb1b0385111561059357600080fd5b8460051b808760808501376020830194909452506001600160a01b039190911660408201520160800192915050565b634e487b7160e01b600052603260045260246000fdfea2646970667358221220af2a43546322ac5181258b7151c830c3d5604e3c70bfff4c9d0d6c6757eae96064736f6c63430008170033",
			"deployedBytecode": "0x608060405234801561001057600080fd5b506004361061004c5760003560e01c806305d2912e146100515780630f5932f01461006657806380deb2301461008e578063c161c93f146100cc575b600080fd5b61006461005f36600461038f565b6100df565b005b6100796100743660046103e4565b610206565b60405190151581526020015b60405180910390f35b6100be61009c366004610482565b6000602081815293815260408082208552928152828120909352825290205481565b604051908152602001610085565b6100796100da3660046104be565b6102af565b336001600160a01b0383161480159061010657506101043383836020013560016102af565b155b801561011d575061011b3383600060016102af565b155b1561013b5760405163075fd2b160e01b815260040160405180910390fd5b600061015261014d6040840184610500565b610310565b9050806000806101656020860186610551565b6001600160a01b039081168252602080830193909352604091820160009081209188168082529184528281208785018035808452919095529290209390935591906101b09085610551565b6001600160a01b03167ff8cdf10a0ce6189c6d069e97320ef146e2bcbd32d6c0b86dcbfbf3bd8578fa706101e76040870187610500565b86336040516101f99493929190610573565b60405180910390a4505050565b6001600160a01b0380861660009081526020818152604080832093881683529281528282208683529052908120548190815b8481101561029e57858582818110610252576102526105c2565b90506020020135925060ff83111561027d576040516334f9a01d60e21b815260040160405180910390fd5b600182841c1660000361029657600093505050506102a6565b600101610238565b506001925050505b95945050505050565b600060ff8211156102d3576040516334f9a01d60e21b815260040160405180910390fd5b506001600160a01b03808516600090815260208181526040808320938716835292815282822085835290522054600190821c811614949350505050565b60008060005b8381101561036b57848482818110610330576103306105c2565b90506020020135915060ff82111561035b576040516334f9a01d60e21b815260040160405180910390fd5b600180831b939093179201610316565b505092915050565b80356001600160a01b038116811461038a57600080fd5b919050565b600080604083850312156103a257600080fd5b6103ab83610373565b9150602083013567ffffffffffffffff8111156103c757600080fd5b8301606081860312156103d957600080fd5b809150509250929050565b6000806000806000608086880312156103fc57600080fd5b61040586610373565b945061041360208701610373565b935060408601359250606086013567ffffffffffffffff8082111561043757600080fd5b818801915088601f83011261044b57600080fd5b81358181111561045a57600080fd5b8960208260051b850101111561046f57600080fd5b9699959850939650602001949392505050565b60008060006060848603121561049757600080fd5b6104a084610373565b92506104ae60208501610373565b9150604084013590509250925092565b600080600080608085870312156104d457600080fd5b6104dd85610373565b93506104eb60208601610373565b93969395505050506040820135916060013590565b6000808335601e1984360301811261051757600080fd5b83018035915067ffffffffffffffff82111561053257600080fd5b6020019150600581901b360382131561054a57600080fd5b9250929050565b60006020828403121561056357600080fd5b61056c82610373565b9392505050565b6060808252810184905260006001600160fb1b0385111561059357600080fd5b8460051b808760808501376020830194909452506001600160a01b039190911660408201520160800192915050565b634e487b7160e01b600052603260045260246000fdfea2646970667358221220af2a43546322ac5181258b7151c830c3d5604e3c70bfff4c9d0d6c6757eae96064736f6c63430008170033",
			"devdoc": {
				"kind": "dev",
				"methods": {
					"hasPermission(address,address,uint256,uint256)": {
						"params": {
							"account": "The account being operated on behalf of.",
							"operator": "The operator to check.",
							"permissionId": "The permission ID to check for.",
							"projectId": "The project ID that the operator has permission to operate under. 0 represents all projects."
						},
						"returns": {
							"_0": "A flag indicating whether the operator has the specified permission."
						}
					},
					"hasPermissions(address,address,uint256,uint256[])": {
						"params": {
							"account": "The account being operated on behalf of.",
							"operator": "The operator to check.",
							"permissionIds": "An array of permission IDs to check for.",
							"projectId": "The project ID that the operator has permission to operate under. 0 represents all projects."
						},
						"returns": {
							"_0": "A flag indicating whether the operator has all specified permissions."
						}
					},
					"setPermissionsFor(address,(address,uint256,uint256[]))": {
						"details": "Only an address can give permissions to or revoke permissions from its operators.",
						"params": {
							"account": "The account setting its operators' permissions.",
							"permissionsData": "The data which specifies the permissions the operator is being given."
						}
					}
				},
				"version": 1
			},
			"userdoc": {
				"kind": "user",
				"methods": {
					"hasPermission(address,address,uint256,uint256)": {
						"notice": "Check if an operator has a specific permission for a specific address and project ID."
					},
					"hasPermissions(address,address,uint256,uint256[])": {
						"notice": "Check if an operator has all of the specified permissions for a specific address and project ID."
					},
					"permissionsOf(address,address,uint256)": {
						"notice": "The permissions that an operator has been given by an account for a specific project."
					},
					"setPermissionsFor(address,(address,uint256,uint256[]))": {
						"notice": "Sets permissions for an operator."
					}
				},
				"version": 1
			},
			"gitCommit": "cfb1d4cd4e79bed840a9c8fcd17a0f397da3e3bf",
			"sourceName": "src/JBPermissions.sol",
			"chainId": "11155420",
			"linkReferences": {},
			"deployedLinkReferences": {}
		},
		{
			"_format": "sphinx-sol-ct-artifact-1",
			"merkleRoot": "0x11830f0fb7ad6b482466bf66cc24181095df70d9395bc2c496d5a5bd11e611a7",
			"contractName": "JBPermissions",
			"address": "0xaDa1E1EE4576Da063EAD17d1ACf49254FA881F0E",
			"abi": [
				{
					"type": "function",
					"name": "WILDCARD_PROJECT_ID",
					"inputs": [],
					"outputs": [
						{
							"name": "",
							"type": "uint256",
							"internalType": "uint256"
						}
					],
					"stateMutability": "view"
				},
				{
					"type": "function",
					"name": "hasPermission",
					"inputs": [
						{
							"name": "operator",
							"type": "address",
							"internalType": "address"
						},
						{
							"name": "account",
							"type": "address",
							"internalType": "address"
						},
						{
							"name": "projectId",
							"type": "uint256",
							"internalType": "uint256"
						},
						{
							"name": "permissionId",
							"type": "uint256",
							"internalType": "uint256"
						},
						{
							"name": "includeRoot",
							"type": "bool",
							"internalType": "bool"
						},
						{
							"name": "includeWildcardProjectId",
							"type": "bool",
							"internalType": "bool"
						}
					],
					"outputs": [
						{
							"name": "",
							"type": "bool",
							"internalType": "bool"
						}
					],
					"stateMutability": "view"
				},
				{
					"type": "function",
					"name": "hasPermissions",
					"inputs": [
						{
							"name": "operator",
							"type": "address",
							"internalType": "address"
						},
						{
							"name": "account",
							"type": "address",
							"internalType": "address"
						},
						{
							"name": "projectId",
							"type": "uint256",
							"internalType": "uint256"
						},
						{
							"name": "permissionIds",
							"type": "uint256[]",
							"internalType": "uint256[]"
						},
						{
							"name": "includeRoot",
							"type": "bool",
							"internalType": "bool"
						},
						{
							"name": "includeWildcardProjectId",
							"type": "bool",
							"internalType": "bool"
						}
					],
					"outputs": [
						{
							"name": "",
							"type": "bool",
							"internalType": "bool"
						}
					],
					"stateMutability": "view"
				},
				{
					"type": "function",
					"name": "permissionsOf",
					"inputs": [
						{
							"name": "operator",
							"type": "address",
							"internalType": "address"
						},
						{
							"name": "account",
							"type": "address",
							"internalType": "address"
						},
						{
							"name": "projectId",
							"type": "uint256",
							"internalType": "uint256"
						}
					],
					"outputs": [
						{
							"name": "",
							"type": "uint256",
							"internalType": "uint256"
						}
					],
					"stateMutability": "view"
				},
				{
					"type": "function",
					"name": "setPermissionsFor",
					"inputs": [
						{
							"name": "account",
							"type": "address",
							"internalType": "address"
						},
						{
							"name": "permissionsData",
							"type": "tuple",
							"internalType": "struct JBPermissionsData",
							"components": [
								{
									"name": "operator",
									"type": "address",
									"internalType": "address"
								},
								{
									"name": "projectId",
									"type": "uint256",
									"internalType": "uint256"
								},
								{
									"name": "permissionIds",
									"type": "uint256[]",
									"internalType": "uint256[]"
								}
							]
						}
					],
					"outputs": [],
					"stateMutability": "nonpayable"
				},
				{
					"type": "event",
					"name": "OperatorPermissionsSet",
					"inputs": [
						{
							"name": "operator",
							"type": "address",
							"indexed": true,
							"internalType": "address"
						},
						{
							"name": "account",
							"type": "address",
							"indexed": true,
							"internalType": "address"
						},
						{
							"name": "projectId",
							"type": "uint256",
							"indexed": true,
							"internalType": "uint256"
						},
						{
							"name": "permissionIds",
							"type": "uint256[]",
							"indexed": false,
							"internalType": "uint256[]"
						},
						{
							"name": "packed",
							"type": "uint256",
							"indexed": false,
							"internalType": "uint256"
						},
						{
							"name": "caller",
							"type": "address",
							"indexed": false,
							"internalType": "address"
						}
					],
					"anonymous": false
				},
				{
					"type": "error",
					"name": "PERMISSION_ID_OUT_OF_BOUNDS",
					"inputs": []
				},
				{
					"type": "error",
					"name": "UNAUTHORIZED",
					"inputs": []
				}
			],
			"solcInputHash": "d72d671cb704a380777b1be08dd807eb",
			"receipt": {
				"blockHash": "0x55efbdc56cce33233561a5cf368dd974365991c9f3686bb3409ed87144dfb559",
				"blockNumber": 12822964,
				"contractAddress": null,
				"cumulativeGasUsed": "10920994",
				"from": "0xC034550B542b83BA1De312b21d1C94a9a52B1595",
				"gasPrice": "1000252",
				"gasUsed": "9908642",
				"hash": "0xe7adf21026a27985bbaa57f743869b8e370df211ac184d52825e5b6f0e8ab83e",
				"index": 4,
				"logs": [
					{
						"address": "0xB5E96127D417b1B3ef8438496a38A143167209c7",
						"blockHash": "0x55efbdc56cce33233561a5cf368dd974365991c9f3686bb3409ed87144dfb559",
						"blockNumber": 12822964,
						"data": "0x0000000000000000000000000000000000000000000000000000000000000000",
						"index": 13,
						"topics": [
							"0x572f161235911da04685a68c06adf558fc7e4a36909dca394650e0adc19cc93d",
							"0x000000000000000000000000c034550b542b83ba1de312b21d1c94a9a52b1595",
							"0x000000000000000000000000ef1be3c049809cace5bc203bbe4ec1ab284bf75c",
							"0xe7d0b60d6a8c18eeb2381de947fac1804ec2785cd716e7fed14c4df4136e4ba8"
						],
						"transactionHash": "0xe7adf21026a27985bbaa57f743869b8e370df211ac184d52825e5b6f0e8ab83e",
						"transactionIndex": 4
					},
					{
						"address": "0x1081B5AA9D9d4862A3dA4d469433FB36Ed80FA2A",
						"blockHash": "0x55efbdc56cce33233561a5cf368dd974365991c9f3686bb3409ed87144dfb559",
						"blockNumber": 12822964,
						"data": "0x",
						"index": 14,
						"topics": [
							"0x6895c13664aa4f67288b25d7a21d7aaa34916e355fb9b6fae0a139a9085becb8",
							"0x000000000000000000000000ef1be3c049809cace5bc203bbe4ec1ab284bf75c"
						],
						"transactionHash": "0xe7adf21026a27985bbaa57f743869b8e370df211ac184d52825e5b6f0e8ab83e",
						"transactionIndex": 4
					},
					{
						"address": "0xEf1Be3C049809caCe5Bc203BBe4Ec1Ab284bF75c",
						"blockHash": "0x55efbdc56cce33233561a5cf368dd974365991c9f3686bb3409ed87144dfb559",
						"blockNumber": 12822964,
						"data": "0x0000000000000000000000000000000000000000000000000000000000000001",
						"index": 15,
						"topics": [
							"0xa65fb05c5808f5f389d72edeaf719ce38f4cc55c1f69ca3cbfb31c21501caa07",
							"0x11830f0fb7ad6b482466bf66cc24181095df70d9395bc2c496d5a5bd11e611a7"
						],
						"transactionHash": "0xe7adf21026a27985bbaa57f743869b8e370df211ac184d52825e5b6f0e8ab83e",
						"transactionIndex": 4
					},
					{
						"address": "0xC99C2fCc0dC51dd0dAd1fd7B58236bB4d73bAaa8",
						"blockHash": "0x55efbdc56cce33233561a5cf368dd974365991c9f3686bb3409ed87144dfb559",
						"blockNumber": 12822964,
						"data": "0x",
						"index": 16,
						"topics": [
							"0x8be0079c531659141344cd1fd0a4f28419497f9722a3daafe3b4186f6b6457e0",
							"0x0000000000000000000000000000000000000000000000000000000000000000",
							"0x0000000000000000000000001081b5aa9d9d4862a3da4d469433fb36ed80fa2a"
						],
						"transactionHash": "0xe7adf21026a27985bbaa57f743869b8e370df211ac184d52825e5b6f0e8ab83e",
						"transactionIndex": 4
					},
					{
						"address": "0xC99C2fCc0dC51dd0dAd1fd7B58236bB4d73bAaa8",
						"blockHash": "0x55efbdc56cce33233561a5cf368dd974365991c9f3686bb3409ed87144dfb559",
						"blockNumber": 12822964,
						"data": "0x",
						"index": 17,
						"topics": [
							"0xddf252ad1be2c89b69c2b068fc378daa952ba7f163c4a11628f55a4df523b3ef",
							"0x0000000000000000000000000000000000000000000000000000000000000000",
							"0x0000000000000000000000001081b5aa9d9d4862a3da4d469433fb36ed80fa2a",
							"0x0000000000000000000000000000000000000000000000000000000000000001"
						],
						"transactionHash": "0xe7adf21026a27985bbaa57f743869b8e370df211ac184d52825e5b6f0e8ab83e",
						"transactionIndex": 4
					},
					{
						"address": "0xC99C2fCc0dC51dd0dAd1fd7B58236bB4d73bAaa8",
						"blockHash": "0x55efbdc56cce33233561a5cf368dd974365991c9f3686bb3409ed87144dfb559",
						"blockNumber": 12822964,
						"data": "0x0000000000000000000000004e59b44847b379578588920ca78fbf26c0b4956c",
						"index": 18,
						"topics": [
							"0x365b3162cd780731fc55a794b59494d472bc2af701007f581843a70673814698",
							"0x0000000000000000000000000000000000000000000000000000000000000001",
							"0x0000000000000000000000001081b5aa9d9d4862a3da4d469433fb36ed80fa2a"
						],
						"transactionHash": "0xe7adf21026a27985bbaa57f743869b8e370df211ac184d52825e5b6f0e8ab83e",
						"transactionIndex": 4
					},
					{
						"address": "0x1081B5AA9D9d4862A3dA4d469433FB36Ed80FA2A",
						"blockHash": "0x55efbdc56cce33233561a5cf368dd974365991c9f3686bb3409ed87144dfb559",
						"blockNumber": 12822964,
						"data": "0x",
						"index": 19,
						"topics": [
							"0x6895c13664aa4f67288b25d7a21d7aaa34916e355fb9b6fae0a139a9085becb8",
							"0x000000000000000000000000ef1be3c049809cace5bc203bbe4ec1ab284bf75c"
						],
						"transactionHash": "0xe7adf21026a27985bbaa57f743869b8e370df211ac184d52825e5b6f0e8ab83e",
						"transactionIndex": 4
					},
					{
						"address": "0xEf1Be3C049809caCe5Bc203BBe4Ec1Ab284bF75c",
						"blockHash": "0x55efbdc56cce33233561a5cf368dd974365991c9f3686bb3409ed87144dfb559",
						"blockNumber": 12822964,
						"data": "0x0000000000000000000000000000000000000000000000000000000000000002",
						"index": 20,
						"topics": [
							"0xa65fb05c5808f5f389d72edeaf719ce38f4cc55c1f69ca3cbfb31c21501caa07",
							"0x11830f0fb7ad6b482466bf66cc24181095df70d9395bc2c496d5a5bd11e611a7"
						],
						"transactionHash": "0xe7adf21026a27985bbaa57f743869b8e370df211ac184d52825e5b6f0e8ab83e",
						"transactionIndex": 4
					},
					{
						"address": "0xc9cb7a0BAB7569b5B6De26A679D107D4D412B349",
						"blockHash": "0x55efbdc56cce33233561a5cf368dd974365991c9f3686bb3409ed87144dfb559",
						"blockNumber": 12822964,
						"data": "0x",
						"index": 21,
						"topics": [
							"0x8be0079c531659141344cd1fd0a4f28419497f9722a3daafe3b4186f6b6457e0",
							"0x0000000000000000000000000000000000000000000000000000000000000000",
							"0x0000000000000000000000001081b5aa9d9d4862a3da4d469433fb36ed80fa2a"
						],
						"transactionHash": "0xe7adf21026a27985bbaa57f743869b8e370df211ac184d52825e5b6f0e8ab83e",
						"transactionIndex": 4
					},
					{
						"address": "0x1081B5AA9D9d4862A3dA4d469433FB36Ed80FA2A",
						"blockHash": "0x55efbdc56cce33233561a5cf368dd974365991c9f3686bb3409ed87144dfb559",
						"blockNumber": 12822964,
						"data": "0x",
						"index": 22,
						"topics": [
							"0x6895c13664aa4f67288b25d7a21d7aaa34916e355fb9b6fae0a139a9085becb8",
							"0x000000000000000000000000ef1be3c049809cace5bc203bbe4ec1ab284bf75c"
						],
						"transactionHash": "0xe7adf21026a27985bbaa57f743869b8e370df211ac184d52825e5b6f0e8ab83e",
						"transactionIndex": 4
					},
					{
						"address": "0xEf1Be3C049809caCe5Bc203BBe4Ec1Ab284bF75c",
						"blockHash": "0x55efbdc56cce33233561a5cf368dd974365991c9f3686bb3409ed87144dfb559",
						"blockNumber": 12822964,
						"data": "0x0000000000000000000000000000000000000000000000000000000000000003",
						"index": 23,
						"topics": [
							"0xa65fb05c5808f5f389d72edeaf719ce38f4cc55c1f69ca3cbfb31c21501caa07",
							"0x11830f0fb7ad6b482466bf66cc24181095df70d9395bc2c496d5a5bd11e611a7"
						],
						"transactionHash": "0xe7adf21026a27985bbaa57f743869b8e370df211ac184d52825e5b6f0e8ab83e",
						"transactionIndex": 4
					},
					{
						"address": "0x1081B5AA9D9d4862A3dA4d469433FB36Ed80FA2A",
						"blockHash": "0x55efbdc56cce33233561a5cf368dd974365991c9f3686bb3409ed87144dfb559",
						"blockNumber": 12822964,
						"data": "0x",
						"index": 24,
						"topics": [
							"0x6895c13664aa4f67288b25d7a21d7aaa34916e355fb9b6fae0a139a9085becb8",
							"0x000000000000000000000000ef1be3c049809cace5bc203bbe4ec1ab284bf75c"
						],
						"transactionHash": "0xe7adf21026a27985bbaa57f743869b8e370df211ac184d52825e5b6f0e8ab83e",
						"transactionIndex": 4
					},
					{
						"address": "0xEf1Be3C049809caCe5Bc203BBe4Ec1Ab284bF75c",
						"blockHash": "0x55efbdc56cce33233561a5cf368dd974365991c9f3686bb3409ed87144dfb559",
						"blockNumber": 12822964,
						"data": "0x0000000000000000000000000000000000000000000000000000000000000004",
						"index": 25,
						"topics": [
							"0xa65fb05c5808f5f389d72edeaf719ce38f4cc55c1f69ca3cbfb31c21501caa07",
							"0x11830f0fb7ad6b482466bf66cc24181095df70d9395bc2c496d5a5bd11e611a7"
						],
						"transactionHash": "0xe7adf21026a27985bbaa57f743869b8e370df211ac184d52825e5b6f0e8ab83e",
						"transactionIndex": 4
					},
					{
						"address": "0x1081B5AA9D9d4862A3dA4d469433FB36Ed80FA2A",
						"blockHash": "0x55efbdc56cce33233561a5cf368dd974365991c9f3686bb3409ed87144dfb559",
						"blockNumber": 12822964,
						"data": "0x",
						"index": 26,
						"topics": [
							"0x6895c13664aa4f67288b25d7a21d7aaa34916e355fb9b6fae0a139a9085becb8",
							"0x000000000000000000000000ef1be3c049809cace5bc203bbe4ec1ab284bf75c"
						],
						"transactionHash": "0xe7adf21026a27985bbaa57f743869b8e370df211ac184d52825e5b6f0e8ab83e",
						"transactionIndex": 4
					},
					{
						"address": "0xEf1Be3C049809caCe5Bc203BBe4Ec1Ab284bF75c",
						"blockHash": "0x55efbdc56cce33233561a5cf368dd974365991c9f3686bb3409ed87144dfb559",
						"blockNumber": 12822964,
						"data": "0x0000000000000000000000000000000000000000000000000000000000000005",
						"index": 27,
						"topics": [
							"0xa65fb05c5808f5f389d72edeaf719ce38f4cc55c1f69ca3cbfb31c21501caa07",
							"0x11830f0fb7ad6b482466bf66cc24181095df70d9395bc2c496d5a5bd11e611a7"
						],
						"transactionHash": "0xe7adf21026a27985bbaa57f743869b8e370df211ac184d52825e5b6f0e8ab83e",
						"transactionIndex": 4
					},
					{
						"address": "0x139dB16d4Ecc256cF0DaeD2705671165e1878047",
						"blockHash": "0x55efbdc56cce33233561a5cf368dd974365991c9f3686bb3409ed87144dfb559",
						"blockNumber": 12822964,
						"data": "0x",
						"index": 28,
						"topics": [
							"0x8be0079c531659141344cd1fd0a4f28419497f9722a3daafe3b4186f6b6457e0",
							"0x0000000000000000000000000000000000000000000000000000000000000000",
							"0x000000000000000000000000139db16d4ecc256cf0daed2705671165e1878047"
						],
						"transactionHash": "0xe7adf21026a27985bbaa57f743869b8e370df211ac184d52825e5b6f0e8ab83e",
						"transactionIndex": 4
					},
					{
						"address": "0x1081B5AA9D9d4862A3dA4d469433FB36Ed80FA2A",
						"blockHash": "0x55efbdc56cce33233561a5cf368dd974365991c9f3686bb3409ed87144dfb559",
						"blockNumber": 12822964,
						"data": "0x",
						"index": 29,
						"topics": [
							"0x6895c13664aa4f67288b25d7a21d7aaa34916e355fb9b6fae0a139a9085becb8",
							"0x000000000000000000000000ef1be3c049809cace5bc203bbe4ec1ab284bf75c"
						],
						"transactionHash": "0xe7adf21026a27985bbaa57f743869b8e370df211ac184d52825e5b6f0e8ab83e",
						"transactionIndex": 4
					},
					{
						"address": "0xEf1Be3C049809caCe5Bc203BBe4Ec1Ab284bF75c",
						"blockHash": "0x55efbdc56cce33233561a5cf368dd974365991c9f3686bb3409ed87144dfb559",
						"blockNumber": 12822964,
						"data": "0x0000000000000000000000000000000000000000000000000000000000000006",
						"index": 30,
						"topics": [
							"0xa65fb05c5808f5f389d72edeaf719ce38f4cc55c1f69ca3cbfb31c21501caa07",
							"0x11830f0fb7ad6b482466bf66cc24181095df70d9395bc2c496d5a5bd11e611a7"
						],
						"transactionHash": "0xe7adf21026a27985bbaa57f743869b8e370df211ac184d52825e5b6f0e8ab83e",
						"transactionIndex": 4
					},
					{
						"address": "0x1081B5AA9D9d4862A3dA4d469433FB36Ed80FA2A",
						"blockHash": "0x55efbdc56cce33233561a5cf368dd974365991c9f3686bb3409ed87144dfb559",
						"blockNumber": 12822964,
						"data": "0x",
						"index": 31,
						"topics": [
							"0x6895c13664aa4f67288b25d7a21d7aaa34916e355fb9b6fae0a139a9085becb8",
							"0x000000000000000000000000ef1be3c049809cace5bc203bbe4ec1ab284bf75c"
						],
						"transactionHash": "0xe7adf21026a27985bbaa57f743869b8e370df211ac184d52825e5b6f0e8ab83e",
						"transactionIndex": 4
					},
					{
						"address": "0xEf1Be3C049809caCe5Bc203BBe4Ec1Ab284bF75c",
						"blockHash": "0x55efbdc56cce33233561a5cf368dd974365991c9f3686bb3409ed87144dfb559",
						"blockNumber": 12822964,
						"data": "0x0000000000000000000000000000000000000000000000000000000000000007",
						"index": 32,
						"topics": [
							"0xa65fb05c5808f5f389d72edeaf719ce38f4cc55c1f69ca3cbfb31c21501caa07",
							"0x11830f0fb7ad6b482466bf66cc24181095df70d9395bc2c496d5a5bd11e611a7"
						],
						"transactionHash": "0xe7adf21026a27985bbaa57f743869b8e370df211ac184d52825e5b6f0e8ab83e",
						"transactionIndex": 4
					},
					{
						"address": "0x1081B5AA9D9d4862A3dA4d469433FB36Ed80FA2A",
						"blockHash": "0x55efbdc56cce33233561a5cf368dd974365991c9f3686bb3409ed87144dfb559",
						"blockNumber": 12822964,
						"data": "0x",
						"index": 33,
						"topics": [
							"0x6895c13664aa4f67288b25d7a21d7aaa34916e355fb9b6fae0a139a9085becb8",
							"0x000000000000000000000000ef1be3c049809cace5bc203bbe4ec1ab284bf75c"
						],
						"transactionHash": "0xe7adf21026a27985bbaa57f743869b8e370df211ac184d52825e5b6f0e8ab83e",
						"transactionIndex": 4
					},
					{
						"address": "0xEf1Be3C049809caCe5Bc203BBe4Ec1Ab284bF75c",
						"blockHash": "0x55efbdc56cce33233561a5cf368dd974365991c9f3686bb3409ed87144dfb559",
						"blockNumber": 12822964,
						"data": "0x0000000000000000000000000000000000000000000000000000000000000008",
						"index": 34,
						"topics": [
							"0xa65fb05c5808f5f389d72edeaf719ce38f4cc55c1f69ca3cbfb31c21501caa07",
							"0x11830f0fb7ad6b482466bf66cc24181095df70d9395bc2c496d5a5bd11e611a7"
						],
						"transactionHash": "0xe7adf21026a27985bbaa57f743869b8e370df211ac184d52825e5b6f0e8ab83e",
						"transactionIndex": 4
					}
				],
				"logsBloom": "0x00000000080010000008000001080200000000000008000080800000004000080060008000000000000080000040200000000000000000000000000000040000010000100400200400000008000000000001000000040000000200000000000200000000020000000000000000000800000000100000400000000010800000400001000000002000000100000000000000000000000000000000800000400000004000040010000000000000000000020200000000000000000000000006000008000002000000200000000008000000010000800020000000000000000060000020000000000004000000000000000200000000000000000000000000000000",
				"status": 1,
				"to": "0xB5E96127D417b1B3ef8438496a38A143167209c7"
			},
			"metadata": "{\"compiler\":{\"version\":\"0.8.23+commit.f704f362\"},\"language\":\"Solidity\",\"output\":{\"abi\":[{\"inputs\":[],\"type\":\"error\",\"name\":\"PERMISSION_ID_OUT_OF_BOUNDS\"},{\"inputs\":[],\"type\":\"error\",\"name\":\"UNAUTHORIZED\"},{\"inputs\":[{\"internalType\":\"address\",\"name\":\"operator\",\"type\":\"address\",\"indexed\":true},{\"internalType\":\"address\",\"name\":\"account\",\"type\":\"address\",\"indexed\":true},{\"internalType\":\"uint256\",\"name\":\"projectId\",\"type\":\"uint256\",\"indexed\":true},{\"internalType\":\"uint256[]\",\"name\":\"permissionIds\",\"type\":\"uint256[]\",\"indexed\":false},{\"internalType\":\"uint256\",\"name\":\"packed\",\"type\":\"uint256\",\"indexed\":false},{\"internalType\":\"address\",\"name\":\"caller\",\"type\":\"address\",\"indexed\":false}],\"type\":\"event\",\"name\":\"OperatorPermissionsSet\",\"anonymous\":false},{\"inputs\":[],\"stateMutability\":\"view\",\"type\":\"function\",\"name\":\"WILDCARD_PROJECT_ID\",\"outputs\":[{\"internalType\":\"uint256\",\"name\":\"\",\"type\":\"uint256\"}]},{\"inputs\":[{\"internalType\":\"address\",\"name\":\"operator\",\"type\":\"address\"},{\"internalType\":\"address\",\"name\":\"account\",\"type\":\"address\"},{\"internalType\":\"uint256\",\"name\":\"projectId\",\"type\":\"uint256\"},{\"internalType\":\"uint256\",\"name\":\"permissionId\",\"type\":\"uint256\"},{\"internalType\":\"bool\",\"name\":\"includeRoot\",\"type\":\"bool\"},{\"internalType\":\"bool\",\"name\":\"includeWildcardProjectId\",\"type\":\"bool\"}],\"stateMutability\":\"view\",\"type\":\"function\",\"name\":\"hasPermission\",\"outputs\":[{\"internalType\":\"bool\",\"name\":\"\",\"type\":\"bool\"}]},{\"inputs\":[{\"internalType\":\"address\",\"name\":\"operator\",\"type\":\"address\"},{\"internalType\":\"address\",\"name\":\"account\",\"type\":\"address\"},{\"internalType\":\"uint256\",\"name\":\"projectId\",\"type\":\"uint256\"},{\"internalType\":\"uint256[]\",\"name\":\"permissionIds\",\"type\":\"uint256[]\"},{\"internalType\":\"bool\",\"name\":\"includeRoot\",\"type\":\"bool\"},{\"internalType\":\"bool\",\"name\":\"includeWildcardProjectId\",\"type\":\"bool\"}],\"stateMutability\":\"view\",\"type\":\"function\",\"name\":\"hasPermissions\",\"outputs\":[{\"internalType\":\"bool\",\"name\":\"\",\"type\":\"bool\"}]},{\"inputs\":[{\"internalType\":\"address\",\"name\":\"operator\",\"type\":\"address\"},{\"internalType\":\"address\",\"name\":\"account\",\"type\":\"address\"},{\"internalType\":\"uint256\",\"name\":\"projectId\",\"type\":\"uint256\"}],\"stateMutability\":\"view\",\"type\":\"function\",\"name\":\"permissionsOf\",\"outputs\":[{\"internalType\":\"uint256\",\"name\":\"\",\"type\":\"uint256\"}]},{\"inputs\":[{\"internalType\":\"address\",\"name\":\"account\",\"type\":\"address\"},{\"internalType\":\"struct JBPermissionsData\",\"name\":\"permissionsData\",\"type\":\"tuple\",\"components\":[{\"internalType\":\"address\",\"name\":\"operator\",\"type\":\"address\"},{\"internalType\":\"uint256\",\"name\":\"projectId\",\"type\":\"uint256\"},{\"internalType\":\"uint256[]\",\"name\":\"permissionIds\",\"type\":\"uint256[]\"}]}],\"stateMutability\":\"nonpayable\",\"type\":\"function\",\"name\":\"setPermissionsFor\"}],\"devdoc\":{\"kind\":\"dev\",\"methods\":{\"hasPermission(address,address,uint256,uint256,bool,bool)\":{\"params\":{\"account\":\"The account being operated on behalf of.\",\"includeRoot\":\"A flag indicating if the return value should default to true if the operator has the ROOT permission.\",\"includeWildcardProjectId\":\"A flag indicating if the return value should return true if the operator has the specified permission on the wildcard project ID. true.\",\"operator\":\"The operator to check.\",\"permissionId\":\"The permission ID to check for.\",\"projectId\":\"The project ID that the operator has permission to operate under. 0 represents all projects.\"},\"returns\":{\"_0\":\"A flag indicating whether the operator has the specified permission.\"}},\"hasPermissions(address,address,uint256,uint256[],bool,bool)\":{\"params\":{\"account\":\"The account being operated on behalf of.\",\"includeRoot\":\"A flag indicating if the return value should default to true if the operator has the ROOT permission.\",\"includeWildcardProjectId\":\"A flag indicating if the return value should return true if the operator has the specified permission on the wildcard project ID.\",\"operator\":\"The operator to check.\",\"permissionIds\":\"An array of permission IDs to check for.\",\"projectId\":\"The project ID that the operator has permission to operate under. 0 represents all projects.\"},\"returns\":{\"_0\":\"A flag indicating whether the operator has all specified permissions.\"}},\"setPermissionsFor(address,(address,uint256,uint256[]))\":{\"details\":\"Only an address can give permissions to or revoke permissions from its operators.\",\"params\":{\"account\":\"The account setting its operators' permissions.\",\"permissionsData\":\"The data which specifies the permissions the operator is being given.\"}}},\"version\":1},\"userdoc\":{\"kind\":\"user\",\"methods\":{\"WILDCARD_PROJECT_ID()\":{\"notice\":\"The project ID considered a wildcard, meaning it will grant permissions to all projects.\"},\"hasPermission(address,address,uint256,uint256,bool,bool)\":{\"notice\":\"Check if an operator has a specific permission for a specific address and project ID.\"},\"hasPermissions(address,address,uint256,uint256[],bool,bool)\":{\"notice\":\"Check if an operator has all of the specified permissions for a specific address and project ID.\"},\"permissionsOf(address,address,uint256)\":{\"notice\":\"The permissions that an operator has been given by an account for a specific project.\"},\"setPermissionsFor(address,(address,uint256,uint256[]))\":{\"notice\":\"Sets permissions for an operator.\"}},\"version\":1}},\"settings\":{\"remappings\":[\"@bananapus/=node_modules/@bananapus/\",\"@chainlink/=node_modules/@chainlink/\",\"@eth-optimism/=node_modules/@eth-optimism/\",\"@openzeppelin/=node_modules/@openzeppelin/\",\"@prb/=node_modules/@prb/\",\"@scroll-tech/=node_modules/@scroll-tech/\",\"@sphinx-labs/contracts/=lib/sphinx/packages/contracts/contracts/foundry/\",\"@uniswap/=node_modules/@uniswap/\",\"ds-test/=lib/forge-std/lib/ds-test/src/\",\"forge-std/=lib/forge-std/src/\",\"hardhat/=node_modules/hardhat/\",\"solmate/=node_modules/solmate/\",\"sphinx/=lib/sphinx/\"],\"optimizer\":{\"enabled\":true,\"runs\":200},\"metadata\":{\"bytecodeHash\":\"ipfs\"},\"compilationTarget\":{\"src/JBPermissions.sol\":\"JBPermissions\"},\"evmVersion\":\"paris\",\"libraries\":{}},\"sources\":{\"node_modules/@bananapus/permission-ids/src/JBPermissionIds.sol\":{\"keccak256\":\"0x31f5dfb044f5bae2f8415579b3afbbdcfb424015a1e69a2f8451a07134f3d36b\",\"urls\":[\"bzz-raw://85f313e53f6e442b33190741224f2b782b8d12579b4141ab2fac2e3bb8d47388\",\"dweb:/ipfs/QmVSZWkeuTkvAujzSbADfvfvv78Xs8mop3JbStyzDhVqtn\"],\"license\":\"MIT\"},\"src/JBPermissions.sol\":{\"keccak256\":\"0xa3d53d1db49ba5c1f40edbacf86124f5381184e7039824d9c0bbe0db574cdaf6\",\"urls\":[\"bzz-raw://5fe610d2cdfafe0fd155455b07a4ced1421faa07816093873f6d5e8f0e1cd70f\",\"dweb:/ipfs/QmNvJK5zeVCfrkKNtGQ5GZtbLphXSXqg7x7anU18XcfUfV\"],\"license\":\"MIT\"},\"src/interfaces/IJBPermissions.sol\":{\"keccak256\":\"0x957d77a71cf8bb25df4a767e3c315fbd393df52ea8ea25af14e9fa268ac820bf\",\"urls\":[\"bzz-raw://c7891e986611d3cc0472a65310d160cad5b03c7e64c63b30430401d6418f8d77\",\"dweb:/ipfs/QmNZPfbyYvG8XPSPe9vrPNfDtvDsrLaXA3AzH28KSzwxHM\"],\"license\":\"MIT\"},\"src/structs/JBPermissionsData.sol\":{\"keccak256\":\"0x8f0f69a6ebf5f3704e3dfcb3712fb9d3f94ae7c1ab89bf3e37bad42a3e7a0487\",\"urls\":[\"bzz-raw://57b0c5e52843e2217082889ed47b4da3943e0da4590d5768dcebfe3edad4a6b8\",\"dweb:/ipfs/QmRz48vuWLw81kUP836rh1qzqWiJFGbksgRUA9xGEDNKTY\"],\"license\":\"MIT\"}},\"version\":1}",
			"args": [],
			"bytecode": "0x608060405234801561001057600080fd5b50610825806100206000396000f3fe608060405234801561001057600080fd5b50600436106100575760003560e01c806305d2912e1461005c578063348b684e14610071578063632af95f1461009957806380deb230146100ac5780638affd7eb146100ea575b600080fd5b61006f61006a36600461054e565b6100f2565b005b61008461007f3660046105b3565b610213565b60405190151581526020015b60405180910390f35b6100846100a7366004610619565b610347565b6100dc6100ba3660046106db565b6000602081815293815260408082208552928152828120909352825290205481565b604051908152602001610090565b6100dc600081565b60006101096101046040840184610717565b6104cf565b9050336001600160a01b038416148015906101435750600181811c811614806101435750610141338484602001356001806001610213565b155b156101615760405163075fd2b160e01b815260040160405180910390fd5b806000806101726020860186610768565b6001600160a01b039081168252602080830193909352604091820160009081209188168082529184528281208785018035808452919095529290209390935591906101bd9085610768565b6001600160a01b03167ff8cdf10a0ce6189c6d069e97320ef146e2bcbd32d6c0b86dcbfbf3bd8578fa706101f46040870187610717565b8633604051610206949392919061078a565b60405180910390a4505050565b600060ff841115610237576040516334f9a01d60e21b815260040160405180910390fd5b8280156102b657506001600160a01b03878116600090815260208181526040808320938a16835292815282822088835290522054600190811c811614806102b657508180156102b657506001600160a01b03878116600090815260208181526040808320938a16835292815282822082805290522054600190811c8116145b156102c35750600161033d565b6001600160a01b03878116600090815260208181526040808320938a16835292815282822088835290522054600190851c8116148061033a575081801561033a57506001600160a01b03878116600090815260208181526040808320938a16835292815282822082805290522054600190851c8116145b90505b9695505050505050565b60008280156103c857506001600160a01b03888116600090815260208181526040808320938b16835292815282822089835290522054600190811c811614806103c857508180156103c857506001600160a01b03888116600090815260208181526040808320938b16835292815282822082805290522054600190811c8116145b156103d5575060016104c4565b6001600160a01b03808916600090815260208181526040808320938b168352928152828220898352905290812054818461041057600061043d565b6001600160a01b03808c16600090815260208181526040808320938e168352928152828220828052905220545b905060005b878110156104bb5788888281811061045c5761045c6107d9565b90506020020135935060ff841115610487576040516334f9a01d60e21b815260040160405180910390fd5b600183851c8116141580156104a15750600182851c811614155b156104b35760009450505050506104c4565b600101610442565b50600193505050505b979650505050505050565b60008060005b8381101561052a578484828181106104ef576104ef6107d9565b90506020020135915060ff82111561051a576040516334f9a01d60e21b815260040160405180910390fd5b600180831b9390931792016104d5565b505092915050565b80356001600160a01b038116811461054957600080fd5b919050565b6000806040838503121561056157600080fd5b61056a83610532565b9150602083013567ffffffffffffffff81111561058657600080fd5b83016060818603121561059857600080fd5b809150509250929050565b8035801515811461054957600080fd5b60008060008060008060c087890312156105cc57600080fd5b6105d587610532565b95506105e360208801610532565b945060408701359350606087013592506105ff608088016105a3565b915061060d60a088016105a3565b90509295509295509295565b600080600080600080600060c0888a03121561063457600080fd5b61063d88610532565b965061064b60208901610532565b955060408801359450606088013567ffffffffffffffff8082111561066f57600080fd5b818a0191508a601f83011261068357600080fd5b81358181111561069257600080fd5b8b60208260051b85010111156106a757600080fd5b6020830196508095505050506106bf608089016105a3565b91506106cd60a089016105a3565b905092959891949750929550565b6000806000606084860312156106f057600080fd5b6106f984610532565b925061070760208501610532565b9150604084013590509250925092565b6000808335601e1984360301811261072e57600080fd5b83018035915067ffffffffffffffff82111561074957600080fd5b6020019150600581901b360382131561076157600080fd5b9250929050565b60006020828403121561077a57600080fd5b61078382610532565b9392505050565b6060808252810184905260006001600160fb1b038511156107aa57600080fd5b8460051b808760808501376020830194909452506001600160a01b039190911660408201520160800192915050565b634e487b7160e01b600052603260045260246000fdfea2646970667358221220bb0f954672576ed4a41c4fe0afc696fc43cc918f790c2cef3bdaeaf3cd76c73264736f6c63430008170033",
			"deployedBytecode": "0x608060405234801561001057600080fd5b50600436106100575760003560e01c806305d2912e1461005c578063348b684e14610071578063632af95f1461009957806380deb230146100ac5780638affd7eb146100ea575b600080fd5b61006f61006a36600461054e565b6100f2565b005b61008461007f3660046105b3565b610213565b60405190151581526020015b60405180910390f35b6100846100a7366004610619565b610347565b6100dc6100ba3660046106db565b6000602081815293815260408082208552928152828120909352825290205481565b604051908152602001610090565b6100dc600081565b60006101096101046040840184610717565b6104cf565b9050336001600160a01b038416148015906101435750600181811c811614806101435750610141338484602001356001806001610213565b155b156101615760405163075fd2b160e01b815260040160405180910390fd5b806000806101726020860186610768565b6001600160a01b039081168252602080830193909352604091820160009081209188168082529184528281208785018035808452919095529290209390935591906101bd9085610768565b6001600160a01b03167ff8cdf10a0ce6189c6d069e97320ef146e2bcbd32d6c0b86dcbfbf3bd8578fa706101f46040870187610717565b8633604051610206949392919061078a565b60405180910390a4505050565b600060ff841115610237576040516334f9a01d60e21b815260040160405180910390fd5b8280156102b657506001600160a01b03878116600090815260208181526040808320938a16835292815282822088835290522054600190811c811614806102b657508180156102b657506001600160a01b03878116600090815260208181526040808320938a16835292815282822082805290522054600190811c8116145b156102c35750600161033d565b6001600160a01b03878116600090815260208181526040808320938a16835292815282822088835290522054600190851c8116148061033a575081801561033a57506001600160a01b03878116600090815260208181526040808320938a16835292815282822082805290522054600190851c8116145b90505b9695505050505050565b60008280156103c857506001600160a01b03888116600090815260208181526040808320938b16835292815282822089835290522054600190811c811614806103c857508180156103c857506001600160a01b03888116600090815260208181526040808320938b16835292815282822082805290522054600190811c8116145b156103d5575060016104c4565b6001600160a01b03808916600090815260208181526040808320938b168352928152828220898352905290812054818461041057600061043d565b6001600160a01b03808c16600090815260208181526040808320938e168352928152828220828052905220545b905060005b878110156104bb5788888281811061045c5761045c6107d9565b90506020020135935060ff841115610487576040516334f9a01d60e21b815260040160405180910390fd5b600183851c8116141580156104a15750600182851c811614155b156104b35760009450505050506104c4565b600101610442565b50600193505050505b979650505050505050565b60008060005b8381101561052a578484828181106104ef576104ef6107d9565b90506020020135915060ff82111561051a576040516334f9a01d60e21b815260040160405180910390fd5b600180831b9390931792016104d5565b505092915050565b80356001600160a01b038116811461054957600080fd5b919050565b6000806040838503121561056157600080fd5b61056a83610532565b9150602083013567ffffffffffffffff81111561058657600080fd5b83016060818603121561059857600080fd5b809150509250929050565b8035801515811461054957600080fd5b60008060008060008060c087890312156105cc57600080fd5b6105d587610532565b95506105e360208801610532565b945060408701359350606087013592506105ff608088016105a3565b915061060d60a088016105a3565b90509295509295509295565b600080600080600080600060c0888a03121561063457600080fd5b61063d88610532565b965061064b60208901610532565b955060408801359450606088013567ffffffffffffffff8082111561066f57600080fd5b818a0191508a601f83011261068357600080fd5b81358181111561069257600080fd5b8b60208260051b85010111156106a757600080fd5b6020830196508095505050506106bf608089016105a3565b91506106cd60a089016105a3565b905092959891949750929550565b6000806000606084860312156106f057600080fd5b6106f984610532565b925061070760208501610532565b9150604084013590509250925092565b6000808335601e1984360301811261072e57600080fd5b83018035915067ffffffffffffffff82111561074957600080fd5b6020019150600581901b360382131561076157600080fd5b9250929050565b60006020828403121561077a57600080fd5b61078382610532565b9392505050565b6060808252810184905260006001600160fb1b038511156107aa57600080fd5b8460051b808760808501376020830194909452506001600160a01b039190911660408201520160800192915050565b634e487b7160e01b600052603260045260246000fdfea2646970667358221220bb0f954672576ed4a41c4fe0afc696fc43cc918f790c2cef3bdaeaf3cd76c73264736f6c63430008170033",
			"devdoc": {
				"kind": "dev",
				"methods": {
					"hasPermission(address,address,uint256,uint256,bool,bool)": {
						"params": {
							"account": "The account being operated on behalf of.",
							"includeRoot": "A flag indicating if the return value should default to true if the operator has the ROOT permission.",
							"includeWildcardProjectId": "A flag indicating if the return value should return true if the operator has the specified permission on the wildcard project ID. true.",
							"operator": "The operator to check.",
							"permissionId": "The permission ID to check for.",
							"projectId": "The project ID that the operator has permission to operate under. 0 represents all projects."
						},
						"returns": {
							"_0": "A flag indicating whether the operator has the specified permission."
						}
					},
					"hasPermissions(address,address,uint256,uint256[],bool,bool)": {
						"params": {
							"account": "The account being operated on behalf of.",
							"includeRoot": "A flag indicating if the return value should default to true if the operator has the ROOT permission.",
							"includeWildcardProjectId": "A flag indicating if the return value should return true if the operator has the specified permission on the wildcard project ID.",
							"operator": "The operator to check.",
							"permissionIds": "An array of permission IDs to check for.",
							"projectId": "The project ID that the operator has permission to operate under. 0 represents all projects."
						},
						"returns": {
							"_0": "A flag indicating whether the operator has all specified permissions."
						}
					},
					"setPermissionsFor(address,(address,uint256,uint256[]))": {
						"details": "Only an address can give permissions to or revoke permissions from its operators.",
						"params": {
							"account": "The account setting its operators' permissions.",
							"permissionsData": "The data which specifies the permissions the operator is being given."
						}
					}
				},
				"version": 1
			},
			"userdoc": {
				"kind": "user",
				"methods": {
					"WILDCARD_PROJECT_ID()": {
						"notice": "The project ID considered a wildcard, meaning it will grant permissions to all projects."
					},
					"hasPermission(address,address,uint256,uint256,bool,bool)": {
						"notice": "Check if an operator has a specific permission for a specific address and project ID."
					},
					"hasPermissions(address,address,uint256,uint256[],bool,bool)": {
						"notice": "Check if an operator has all of the specified permissions for a specific address and project ID."
					},
					"permissionsOf(address,address,uint256)": {
						"notice": "The permissions that an operator has been given by an account for a specific project."
					},
					"setPermissionsFor(address,(address,uint256,uint256[]))": {
						"notice": "Sets permissions for an operator."
					}
				},
				"version": 1
			},
			"gitCommit": "bc6005ccb14408c1b996cf6facda0642da82e682",
			"sourceName": "src/JBPermissions.sol",
			"chainId": "11155420",
			"linkReferences": {},
			"deployedLinkReferences": {}
		}
	]
}