{
	"_format": "sphinx-sol-ct-artifact-1",
	"merkleRoot": "0x732be88c08b5a2d625882757714ef23a3a10316e007749118eaca4a956dc9f8a",
	"contractName": "JBMultiTerminal",
	"address": "0x1052d3669fb28E9e6738E399c40468e733eD3a8d",
	"abi": [
		{
			"type": "constructor",
			"inputs": [
				{
					"name": "feelessAddresses",
					"type": "address",
					"internalType": "contract IJBFeelessAddresses"
				},
				{
					"name": "permissions",
					"type": "address",
					"internalType": "contract IJBPermissions"
				},
				{
					"name": "projects",
					"type": "address",
					"internalType": "contract IJBProjects"
				},
				{
					"name": "splits",
					"type": "address",
					"internalType": "contract IJBSplits"
				},
				{
					"name": "store",
					"type": "address",
					"internalType": "contract IJBTerminalStore"
				},
				{
					"name": "tokens",
					"type": "address",
					"internalType": "contract IJBTokens"
				},
				{
					"name": "permit2",
					"type": "address",
					"internalType": "contract IPermit2"
				},
				{
					"name": "trustedForwarder",
					"type": "address",
					"internalType": "address"
				}
			],
			"stateMutability": "nonpayable"
		},
		{
			"type": "function",
			"name": "DIRECTORY",
			"inputs": [],
			"outputs": [
				{
					"name": "",
					"type": "address",
					"internalType": "contract IJBDirectory"
				}
			],
			"stateMutability": "view"
		},
		{
			"type": "function",
			"name": "FEE",
			"inputs": [],
			"outputs": [
				{
					"name": "",
					"type": "uint256",
					"internalType": "uint256"
				}
			],
			"stateMutability": "view"
		},
		{
			"type": "function",
			"name": "FEELESS_ADDRESSES",
			"inputs": [],
			"outputs": [
				{
					"name": "",
					"type": "address",
					"internalType": "contract IJBFeelessAddresses"
				}
			],
			"stateMutability": "view"
		},
		{
			"type": "function",
			"name": "PERMISSIONS",
			"inputs": [],
			"outputs": [
				{
					"name": "",
					"type": "address",
					"internalType": "contract IJBPermissions"
				}
			],
			"stateMutability": "view"
		},
		{
			"type": "function",
			"name": "PERMIT2",
			"inputs": [],
			"outputs": [
				{
					"name": "",
					"type": "address",
					"internalType": "contract IPermit2"
				}
			],
			"stateMutability": "view"
		},
		{
			"type": "function",
			"name": "PROJECTS",
			"inputs": [],
			"outputs": [
				{
					"name": "",
					"type": "address",
					"internalType": "contract IJBProjects"
				}
			],
			"stateMutability": "view"
		},
		{
			"type": "function",
			"name": "RULESETS",
			"inputs": [],
			"outputs": [
				{
					"name": "",
					"type": "address",
					"internalType": "contract IJBRulesets"
				}
			],
			"stateMutability": "view"
		},
		{
			"type": "function",
			"name": "SPLITS",
			"inputs": [],
			"outputs": [
				{
					"name": "",
					"type": "address",
					"internalType": "contract IJBSplits"
				}
			],
			"stateMutability": "view"
		},
		{
			"type": "function",
			"name": "STORE",
			"inputs": [],
			"outputs": [
				{
					"name": "",
					"type": "address",
					"internalType": "contract IJBTerminalStore"
				}
			],
			"stateMutability": "view"
		},
		{
			"type": "function",
			"name": "TOKENS",
			"inputs": [],
			"outputs": [
				{
					"name": "",
					"type": "address",
					"internalType": "contract IJBTokens"
				}
			],
			"stateMutability": "view"
		},
		{
			"type": "function",
			"name": "accountingContextForTokenOf",
			"inputs": [
				{
					"name": "projectId",
					"type": "uint256",
					"internalType": "uint256"
				},
				{
					"name": "token",
					"type": "address",
					"internalType": "address"
				}
			],
			"outputs": [
				{
					"name": "",
					"type": "tuple",
					"internalType": "struct JBAccountingContext",
					"components": [
						{
							"name": "token",
							"type": "address",
							"internalType": "address"
						},
						{
							"name": "decimals",
							"type": "uint8",
							"internalType": "uint8"
						},
						{
							"name": "currency",
							"type": "uint32",
							"internalType": "uint32"
						}
					]
				}
			],
			"stateMutability": "view"
		},
		{
			"type": "function",
			"name": "accountingContextsOf",
			"inputs": [
				{
					"name": "projectId",
					"type": "uint256",
					"internalType": "uint256"
				}
			],
			"outputs": [
				{
					"name": "",
					"type": "tuple[]",
					"internalType": "struct JBAccountingContext[]",
					"components": [
						{
							"name": "token",
							"type": "address",
							"internalType": "address"
						},
						{
							"name": "decimals",
							"type": "uint8",
							"internalType": "uint8"
						},
						{
							"name": "currency",
							"type": "uint32",
							"internalType": "uint32"
						}
					]
				}
			],
			"stateMutability": "view"
		},
		{
			"type": "function",
			"name": "addAccountingContextsFor",
			"inputs": [
				{
					"name": "projectId",
					"type": "uint256",
					"internalType": "uint256"
				},
				{
					"name": "accountingContexts",
					"type": "tuple[]",
					"internalType": "struct JBAccountingContext[]",
					"components": [
						{
							"name": "token",
							"type": "address",
							"internalType": "address"
						},
						{
							"name": "decimals",
							"type": "uint8",
							"internalType": "uint8"
						},
						{
							"name": "currency",
							"type": "uint32",
							"internalType": "uint32"
						}
					]
				}
			],
			"outputs": [],
			"stateMutability": "nonpayable"
		},
		{
			"type": "function",
			"name": "addToBalanceOf",
			"inputs": [
				{
					"name": "projectId",
					"type": "uint256",
					"internalType": "uint256"
				},
				{
					"name": "token",
					"type": "address",
					"internalType": "address"
				},
				{
					"name": "amount",
					"type": "uint256",
					"internalType": "uint256"
				},
				{
					"name": "shouldReturnHeldFees",
					"type": "bool",
					"internalType": "bool"
				},
				{
					"name": "memo",
					"type": "string",
					"internalType": "string"
				},
				{
					"name": "metadata",
					"type": "bytes",
					"internalType": "bytes"
				}
			],
			"outputs": [],
			"stateMutability": "payable"
		},
		{
			"type": "function",
			"name": "cashOutTokensOf",
			"inputs": [
				{
					"name": "holder",
					"type": "address",
					"internalType": "address"
				},
				{
					"name": "projectId",
					"type": "uint256",
					"internalType": "uint256"
				},
				{
					"name": "cashOutCount",
					"type": "uint256",
					"internalType": "uint256"
				},
				{
					"name": "tokenToReclaim",
					"type": "address",
					"internalType": "address"
				},
				{
					"name": "minTokensReclaimed",
					"type": "uint256",
					"internalType": "uint256"
				},
				{
					"name": "beneficiary",
					"type": "address",
					"internalType": "address payable"
				},
				{
					"name": "metadata",
					"type": "bytes",
					"internalType": "bytes"
				}
			],
			"outputs": [
				{
					"name": "reclaimAmount",
					"type": "uint256",
					"internalType": "uint256"
				}
			],
			"stateMutability": "nonpayable"
		},
		{
			"type": "function",
			"name": "currentSurplusOf",
			"inputs": [
				{
					"name": "projectId",
					"type": "uint256",
					"internalType": "uint256"
				},
				{
					"name": "accountingContexts",
					"type": "tuple[]",
					"internalType": "struct JBAccountingContext[]",
					"components": [
						{
							"name": "token",
							"type": "address",
							"internalType": "address"
						},
						{
							"name": "decimals",
							"type": "uint8",
							"internalType": "uint8"
						},
						{
							"name": "currency",
							"type": "uint32",
							"internalType": "uint32"
						}
					]
				},
				{
					"name": "decimals",
					"type": "uint256",
					"internalType": "uint256"
				},
				{
					"name": "currency",
					"type": "uint256",
					"internalType": "uint256"
				}
			],
			"outputs": [
				{
					"name": "",
					"type": "uint256",
					"internalType": "uint256"
				}
			],
			"stateMutability": "view"
		},
		{
			"type": "function",
			"name": "executePayout",
			"inputs": [
				{
					"name": "split",
					"type": "tuple",
					"internalType": "struct JBSplit",
					"components": [
						{
							"name": "preferAddToBalance",
							"type": "bool",
							"internalType": "bool"
						},
						{
							"name": "percent",
							"type": "uint32",
							"internalType": "uint32"
						},
						{
							"name": "projectId",
							"type": "uint56",
							"internalType": "uint56"
						},
						{
							"name": "beneficiary",
							"type": "address",
							"internalType": "address payable"
						},
						{
							"name": "lockedUntil",
							"type": "uint48",
							"internalType": "uint48"
						},
						{
							"name": "hook",
							"type": "address",
							"internalType": "contract IJBSplitHook"
						}
					]
				},
				{
					"name": "projectId",
					"type": "uint256",
					"internalType": "uint256"
				},
				{
					"name": "token",
					"type": "address",
					"internalType": "address"
				},
				{
					"name": "amount",
					"type": "uint256",
					"internalType": "uint256"
				},
				{
					"name": "originalMessageSender",
					"type": "address",
					"internalType": "address"
				}
			],
			"outputs": [
				{
					"name": "netPayoutAmount",
					"type": "uint256",
					"internalType": "uint256"
				}
			],
			"stateMutability": "nonpayable"
		},
		{
			"type": "function",
			"name": "executeProcessFee",
			"inputs": [
				{
					"name": "projectId",
					"type": "uint256",
					"internalType": "uint256"
				},
				{
					"name": "token",
					"type": "address",
					"internalType": "address"
				},
				{
					"name": "amount",
					"type": "uint256",
					"internalType": "uint256"
				},
				{
					"name": "beneficiary",
					"type": "address",
					"internalType": "address"
				},
				{
					"name": "feeTerminal",
					"type": "address",
					"internalType": "contract IJBTerminal"
				}
			],
			"outputs": [],
			"stateMutability": "nonpayable"
		},
		{
			"type": "function",
			"name": "executeTransferTo",
			"inputs": [
				{
					"name": "addr",
					"type": "address",
					"internalType": "address payable"
				},
				{
					"name": "token",
					"type": "address",
					"internalType": "address"
				},
				{
					"name": "amount",
					"type": "uint256",
					"internalType": "uint256"
				}
			],
			"outputs": [],
			"stateMutability": "nonpayable"
		},
		{
			"type": "function",
			"name": "heldFeesOf",
			"inputs": [
				{
					"name": "projectId",
					"type": "uint256",
					"internalType": "uint256"
				},
				{
					"name": "token",
					"type": "address",
					"internalType": "address"
				},
				{
					"name": "count",
					"type": "uint256",
					"internalType": "uint256"
				}
			],
			"outputs": [
				{
					"name": "heldFees",
					"type": "tuple[]",
					"internalType": "struct JBFee[]",
					"components": [
						{
							"name": "amount",
							"type": "uint256",
							"internalType": "uint256"
						},
						{
							"name": "beneficiary",
							"type": "address",
							"internalType": "address"
						},
						{
							"name": "unlockTimestamp",
							"type": "uint48",
							"internalType": "uint48"
						}
					]
				}
			],
			"stateMutability": "view"
		},
		{
			"type": "function",
			"name": "isTrustedForwarder",
			"inputs": [
				{
					"name": "forwarder",
					"type": "address",
					"internalType": "address"
				}
			],
			"outputs": [
				{
					"name": "",
					"type": "bool",
					"internalType": "bool"
				}
			],
			"stateMutability": "view"
		},
		{
			"type": "function",
			"name": "migrateBalanceOf",
			"inputs": [
				{
					"name": "projectId",
					"type": "uint256",
					"internalType": "uint256"
				},
				{
					"name": "token",
					"type": "address",
					"internalType": "address"
				},
				{
					"name": "to",
					"type": "address",
					"internalType": "contract IJBTerminal"
				}
			],
			"outputs": [
				{
					"name": "balance",
					"type": "uint256",
					"internalType": "uint256"
				}
			],
			"stateMutability": "nonpayable"
		},
		{
			"type": "function",
			"name": "pay",
			"inputs": [
				{
					"name": "projectId",
					"type": "uint256",
					"internalType": "uint256"
				},
				{
					"name": "token",
					"type": "address",
					"internalType": "address"
				},
				{
					"name": "amount",
					"type": "uint256",
					"internalType": "uint256"
				},
				{
					"name": "beneficiary",
					"type": "address",
					"internalType": "address"
				},
				{
					"name": "minReturnedTokens",
					"type": "uint256",
					"internalType": "uint256"
				},
				{
					"name": "memo",
					"type": "string",
					"internalType": "string"
				},
				{
					"name": "metadata",
					"type": "bytes",
					"internalType": "bytes"
				}
			],
			"outputs": [
				{
					"name": "beneficiaryTokenCount",
					"type": "uint256",
					"internalType": "uint256"
				}
			],
			"stateMutability": "payable"
		},
		{
			"type": "function",
			"name": "processHeldFeesOf",
			"inputs": [
				{
					"name": "projectId",
					"type": "uint256",
					"internalType": "uint256"
				},
				{
					"name": "token",
					"type": "address",
					"internalType": "address"
				},
				{
					"name": "count",
					"type": "uint256",
					"internalType": "uint256"
				}
			],
			"outputs": [],
			"stateMutability": "nonpayable"
		},
		{
			"type": "function",
			"name": "sendPayoutsOf",
			"inputs": [
				{
					"name": "projectId",
					"type": "uint256",
					"internalType": "uint256"
				},
				{
					"name": "token",
					"type": "address",
					"internalType": "address"
				},
				{
					"name": "amount",
					"type": "uint256",
					"internalType": "uint256"
				},
				{
					"name": "currency",
					"type": "uint256",
					"internalType": "uint256"
				},
				{
					"name": "minTokensPaidOut",
					"type": "uint256",
					"internalType": "uint256"
				}
			],
			"outputs": [
				{
					"name": "amountPaidOut",
					"type": "uint256",
					"internalType": "uint256"
				}
			],
			"stateMutability": "nonpayable"
		},
		{
			"type": "function",
			"name": "supportsInterface",
			"inputs": [
				{
					"name": "interfaceId",
					"type": "bytes4",
					"internalType": "bytes4"
				}
			],
			"outputs": [
				{
					"name": "",
					"type": "bool",
					"internalType": "bool"
				}
			],
			"stateMutability": "pure"
		},
		{
			"type": "function",
			"name": "trustedForwarder",
			"inputs": [],
			"outputs": [
				{
					"name": "",
					"type": "address",
					"internalType": "address"
				}
			],
			"stateMutability": "view"
		},
		{
			"type": "function",
			"name": "useAllowanceOf",
			"inputs": [
				{
					"name": "projectId",
					"type": "uint256",
					"internalType": "uint256"
				},
				{
					"name": "token",
					"type": "address",
					"internalType": "address"
				},
				{
					"name": "amount",
					"type": "uint256",
					"internalType": "uint256"
				},
				{
					"name": "currency",
					"type": "uint256",
					"internalType": "uint256"
				},
				{
					"name": "minTokensPaidOut",
					"type": "uint256",
					"internalType": "uint256"
				},
				{
					"name": "beneficiary",
					"type": "address",
					"internalType": "address payable"
				},
				{
					"name": "feeBeneficiary",
					"type": "address",
					"internalType": "address payable"
				},
				{
					"name": "memo",
					"type": "string",
					"internalType": "string"
				}
			],
			"outputs": [
				{
					"name": "netAmountPaidOut",
					"type": "uint256",
					"internalType": "uint256"
				}
			],
			"stateMutability": "nonpayable"
		},
		{
			"type": "event",
			"name": "AddToBalance",
			"inputs": [
				{
					"name": "projectId",
					"type": "uint256",
					"indexed": true,
					"internalType": "uint256"
				},
				{
					"name": "amount",
					"type": "uint256",
					"indexed": false,
					"internalType": "uint256"
				},
				{
					"name": "returnedFees",
					"type": "uint256",
					"indexed": false,
					"internalType": "uint256"
				},
				{
					"name": "memo",
					"type": "string",
					"indexed": false,
					"internalType": "string"
				},
				{
					"name": "metadata",
					"type": "bytes",
					"indexed": false,
					"internalType": "bytes"
				},
				{
					"name": "caller",
					"type": "address",
					"indexed": false,
					"internalType": "address"
				}
			],
			"anonymous": false
		},
		{
			"type": "event",
			"name": "CashOutTokens",
			"inputs": [
				{
					"name": "rulesetId",
					"type": "uint256",
					"indexed": true,
					"internalType": "uint256"
				},
				{
					"name": "rulesetCycleNumber",
					"type": "uint256",
					"indexed": true,
					"internalType": "uint256"
				},
				{
					"name": "projectId",
					"type": "uint256",
					"indexed": true,
					"internalType": "uint256"
				},
				{
					"name": "holder",
					"type": "address",
					"indexed": false,
					"internalType": "address"
				},
				{
					"name": "beneficiary",
					"type": "address",
					"indexed": false,
					"internalType": "address"
				},
				{
					"name": "cashOutCount",
					"type": "uint256",
					"indexed": false,
					"internalType": "uint256"
				},
				{
					"name": "cashOutTaxRate",
					"type": "uint256",
					"indexed": false,
					"internalType": "uint256"
				},
				{
					"name": "reclaimAmount",
					"type": "uint256",
					"indexed": false,
					"internalType": "uint256"
				},
				{
					"name": "metadata",
					"type": "bytes",
					"indexed": false,
					"internalType": "bytes"
				},
				{
					"name": "caller",
					"type": "address",
					"indexed": false,
					"internalType": "address"
				}
			],
			"anonymous": false
		},
		{
			"type": "event",
			"name": "FeeReverted",
			"inputs": [
				{
					"name": "projectId",
					"type": "uint256",
					"indexed": true,
					"internalType": "uint256"
				},
				{
					"name": "token",
					"type": "address",
					"indexed": true,
					"internalType": "address"
				},
				{
					"name": "feeProjectId",
					"type": "uint256",
					"indexed": true,
					"internalType": "uint256"
				},
				{
					"name": "amount",
					"type": "uint256",
					"indexed": false,
					"internalType": "uint256"
				},
				{
					"name": "reason",
					"type": "bytes",
					"indexed": false,
					"internalType": "bytes"
				},
				{
					"name": "caller",
					"type": "address",
					"indexed": false,
					"internalType": "address"
				}
			],
			"anonymous": false
		},
		{
			"type": "event",
			"name": "HoldFee",
			"inputs": [
				{
					"name": "projectId",
					"type": "uint256",
					"indexed": true,
					"internalType": "uint256"
				},
				{
					"name": "token",
					"type": "address",
					"indexed": true,
					"internalType": "address"
				},
				{
					"name": "amount",
					"type": "uint256",
					"indexed": true,
					"internalType": "uint256"
				},
				{
					"name": "fee",
					"type": "uint256",
					"indexed": false,
					"internalType": "uint256"
				},
				{
					"name": "beneficiary",
					"type": "address",
					"indexed": false,
					"internalType": "address"
				},
				{
					"name": "caller",
					"type": "address",
					"indexed": false,
					"internalType": "address"
				}
			],
			"anonymous": false
		},
		{
			"type": "event",
			"name": "HookAfterRecordCashOut",
			"inputs": [
				{
					"name": "hook",
					"type": "address",
					"indexed": true,
					"internalType": "contract IJBCashOutHook"
				},
				{
					"name": "context",
					"type": "tuple",
					"indexed": false,
					"internalType": "struct JBAfterCashOutRecordedContext",
					"components": [
						{
							"name": "holder",
							"type": "address",
							"internalType": "address"
						},
						{
							"name": "projectId",
							"type": "uint256",
							"internalType": "uint256"
						},
						{
							"name": "rulesetId",
							"type": "uint256",
							"internalType": "uint256"
						},
						{
							"name": "cashOutCount",
							"type": "uint256",
							"internalType": "uint256"
						},
						{
							"name": "reclaimedAmount",
							"type": "tuple",
							"internalType": "struct JBTokenAmount",
							"components": [
								{
									"name": "token",
									"type": "address",
									"internalType": "address"
								},
								{
									"name": "decimals",
									"type": "uint8",
									"internalType": "uint8"
								},
								{
									"name": "currency",
									"type": "uint32",
									"internalType": "uint32"
								},
								{
									"name": "value",
									"type": "uint256",
									"internalType": "uint256"
								}
							]
						},
						{
							"name": "forwardedAmount",
							"type": "tuple",
							"internalType": "struct JBTokenAmount",
							"components": [
								{
									"name": "token",
									"type": "address",
									"internalType": "address"
								},
								{
									"name": "decimals",
									"type": "uint8",
									"internalType": "uint8"
								},
								{
									"name": "currency",
									"type": "uint32",
									"internalType": "uint32"
								},
								{
									"name": "value",
									"type": "uint256",
									"internalType": "uint256"
								}
							]
						},
						{
							"name": "cashOutTaxRate",
							"type": "uint256",
							"internalType": "uint256"
						},
						{
							"name": "beneficiary",
							"type": "address",
							"internalType": "address payable"
						},
						{
							"name": "hookMetadata",
							"type": "bytes",
							"internalType": "bytes"
						},
						{
							"name": "cashOutMetadata",
							"type": "bytes",
							"internalType": "bytes"
						}
					]
				},
				{
					"name": "specificationAmount",
					"type": "uint256",
					"indexed": false,
					"internalType": "uint256"
				},
				{
					"name": "fee",
					"type": "uint256",
					"indexed": false,
					"internalType": "uint256"
				},
				{
					"name": "caller",
					"type": "address",
					"indexed": false,
					"internalType": "address"
				}
			],
			"anonymous": false
		},
		{
			"type": "event",
			"name": "HookAfterRecordPay",
			"inputs": [
				{
					"name": "hook",
					"type": "address",
					"indexed": true,
					"internalType": "contract IJBPayHook"
				},
				{
					"name": "context",
					"type": "tuple",
					"indexed": false,
					"internalType": "struct JBAfterPayRecordedContext",
					"components": [
						{
							"name": "payer",
							"type": "address",
							"internalType": "address"
						},
						{
							"name": "projectId",
							"type": "uint256",
							"internalType": "uint256"
						},
						{
							"name": "rulesetId",
							"type": "uint256",
							"internalType": "uint256"
						},
						{
							"name": "amount",
							"type": "tuple",
							"internalType": "struct JBTokenAmount",
							"components": [
								{
									"name": "token",
									"type": "address",
									"internalType": "address"
								},
								{
									"name": "decimals",
									"type": "uint8",
									"internalType": "uint8"
								},
								{
									"name": "currency",
									"type": "uint32",
									"internalType": "uint32"
								},
								{
									"name": "value",
									"type": "uint256",
									"internalType": "uint256"
								}
							]
						},
						{
							"name": "forwardedAmount",
							"type": "tuple",
							"internalType": "struct JBTokenAmount",
							"components": [
								{
									"name": "token",
									"type": "address",
									"internalType": "address"
								},
								{
									"name": "decimals",
									"type": "uint8",
									"internalType": "uint8"
								},
								{
									"name": "currency",
									"type": "uint32",
									"internalType": "uint32"
								},
								{
									"name": "value",
									"type": "uint256",
									"internalType": "uint256"
								}
							]
						},
						{
							"name": "weight",
							"type": "uint256",
							"internalType": "uint256"
						},
						{
							"name": "newlyIssuedTokenCount",
							"type": "uint256",
							"internalType": "uint256"
						},
						{
							"name": "beneficiary",
							"type": "address",
							"internalType": "address"
						},
						{
							"name": "hookMetadata",
							"type": "bytes",
							"internalType": "bytes"
						},
						{
							"name": "payerMetadata",
							"type": "bytes",
							"internalType": "bytes"
						}
					]
				},
				{
					"name": "specificationAmount",
					"type": "uint256",
					"indexed": false,
					"internalType": "uint256"
				},
				{
					"name": "caller",
					"type": "address",
					"indexed": false,
					"internalType": "address"
				}
			],
			"anonymous": false
		},
		{
			"type": "event",
			"name": "MigrateTerminal",
			"inputs": [
				{
					"name": "projectId",
					"type": "uint256",
					"indexed": true,
					"internalType": "uint256"
				},
				{
					"name": "token",
					"type": "address",
					"indexed": true,
					"internalType": "address"
				},
				{
					"name": "to",
					"type": "address",
					"indexed": true,
					"internalType": "contract IJBTerminal"
				},
				{
					"name": "amount",
					"type": "uint256",
					"indexed": false,
					"internalType": "uint256"
				},
				{
					"name": "caller",
					"type": "address",
					"indexed": false,
					"internalType": "address"
				}
			],
			"anonymous": false
		},
		{
			"type": "event",
			"name": "Pay",
			"inputs": [
				{
					"name": "rulesetId",
					"type": "uint256",
					"indexed": true,
					"internalType": "uint256"
				},
				{
					"name": "rulesetCycleNumber",
					"type": "uint256",
					"indexed": true,
					"internalType": "uint256"
				},
				{
					"name": "projectId",
					"type": "uint256",
					"indexed": true,
					"internalType": "uint256"
				},
				{
					"name": "payer",
					"type": "address",
					"indexed": false,
					"internalType": "address"
				},
				{
					"name": "beneficiary",
					"type": "address",
					"indexed": false,
					"internalType": "address"
				},
				{
					"name": "amount",
					"type": "uint256",
					"indexed": false,
					"internalType": "uint256"
				},
				{
					"name": "newlyIssuedTokenCount",
					"type": "uint256",
					"indexed": false,
					"internalType": "uint256"
				},
				{
					"name": "memo",
					"type": "string",
					"indexed": false,
					"internalType": "string"
				},
				{
					"name": "metadata",
					"type": "bytes",
					"indexed": false,
					"internalType": "bytes"
				},
				{
					"name": "caller",
					"type": "address",
					"indexed": false,
					"internalType": "address"
				}
			],
			"anonymous": false
		},
		{
			"type": "event",
			"name": "PayoutReverted",
			"inputs": [
				{
					"name": "projectId",
					"type": "uint256",
					"indexed": true,
					"internalType": "uint256"
				},
				{
					"name": "split",
					"type": "tuple",
					"indexed": false,
					"internalType": "struct JBSplit",
					"components": [
						{
							"name": "preferAddToBalance",
							"type": "bool",
							"internalType": "bool"
						},
						{
							"name": "percent",
							"type": "uint32",
							"internalType": "uint32"
						},
						{
							"name": "projectId",
							"type": "uint56",
							"internalType": "uint56"
						},
						{
							"name": "beneficiary",
							"type": "address",
							"internalType": "address payable"
						},
						{
							"name": "lockedUntil",
							"type": "uint48",
							"internalType": "uint48"
						},
						{
							"name": "hook",
							"type": "address",
							"internalType": "contract IJBSplitHook"
						}
					]
				},
				{
					"name": "amount",
					"type": "uint256",
					"indexed": false,
					"internalType": "uint256"
				},
				{
					"name": "reason",
					"type": "bytes",
					"indexed": false,
					"internalType": "bytes"
				},
				{
					"name": "caller",
					"type": "address",
					"indexed": false,
					"internalType": "address"
				}
			],
			"anonymous": false
		},
		{
			"type": "event",
			"name": "PayoutTransferReverted",
			"inputs": [
				{
					"name": "projectId",
					"type": "uint256",
					"indexed": true,
					"internalType": "uint256"
				},
				{
					"name": "addr",
					"type": "address",
					"indexed": false,
					"internalType": "address"
				},
				{
					"name": "token",
					"type": "address",
					"indexed": false,
					"internalType": "address"
				},
				{
					"name": "amount",
					"type": "uint256",
					"indexed": false,
					"internalType": "uint256"
				},
				{
					"name": "reason",
					"type": "bytes",
					"indexed": false,
					"internalType": "bytes"
				},
				{
					"name": "caller",
					"type": "address",
					"indexed": false,
					"internalType": "address"
				}
			],
			"anonymous": false
		},
		{
			"type": "event",
			"name": "ProcessFee",
			"inputs": [
				{
					"name": "projectId",
					"type": "uint256",
					"indexed": true,
					"internalType": "uint256"
				},
				{
					"name": "token",
					"type": "address",
					"indexed": true,
					"internalType": "address"
				},
				{
					"name": "amount",
					"type": "uint256",
					"indexed": true,
					"internalType": "uint256"
				},
				{
					"name": "wasHeld",
					"type": "bool",
					"indexed": false,
					"internalType": "bool"
				},
				{
					"name": "beneficiary",
					"type": "address",
					"indexed": false,
					"internalType": "address"
				},
				{
					"name": "caller",
					"type": "address",
					"indexed": false,
					"internalType": "address"
				}
			],
			"anonymous": false
		},
		{
			"type": "event",
			"name": "ReturnHeldFees",
			"inputs": [
				{
					"name": "projectId",
					"type": "uint256",
					"indexed": true,
					"internalType": "uint256"
				},
				{
					"name": "token",
					"type": "address",
					"indexed": true,
					"internalType": "address"
				},
				{
					"name": "amount",
					"type": "uint256",
					"indexed": true,
					"internalType": "uint256"
				},
				{
					"name": "returnedFees",
					"type": "uint256",
					"indexed": false,
					"internalType": "uint256"
				},
				{
					"name": "leftoverAmount",
					"type": "uint256",
					"indexed": false,
					"internalType": "uint256"
				},
				{
					"name": "caller",
					"type": "address",
					"indexed": false,
					"internalType": "address"
				}
			],
			"anonymous": false
		},
		{
			"type": "event",
			"name": "SendPayoutToSplit",
			"inputs": [
				{
					"name": "projectId",
					"type": "uint256",
					"indexed": true,
					"internalType": "uint256"
				},
				{
					"name": "rulesetId",
					"type": "uint256",
					"indexed": true,
					"internalType": "uint256"
				},
				{
					"name": "group",
					"type": "uint256",
					"indexed": true,
					"internalType": "uint256"
				},
				{
					"name": "split",
					"type": "tuple",
					"indexed": false,
					"internalType": "struct JBSplit",
					"components": [
						{
							"name": "preferAddToBalance",
							"type": "bool",
							"internalType": "bool"
						},
						{
							"name": "percent",
							"type": "uint32",
							"internalType": "uint32"
						},
						{
							"name": "projectId",
							"type": "uint56",
							"internalType": "uint56"
						},
						{
							"name": "beneficiary",
							"type": "address",
							"internalType": "address payable"
						},
						{
							"name": "lockedUntil",
							"type": "uint48",
							"internalType": "uint48"
						},
						{
							"name": "hook",
							"type": "address",
							"internalType": "contract IJBSplitHook"
						}
					]
				},
				{
					"name": "amount",
					"type": "uint256",
					"indexed": false,
					"internalType": "uint256"
				},
				{
					"name": "netAmount",
					"type": "uint256",
					"indexed": false,
					"internalType": "uint256"
				},
				{
					"name": "caller",
					"type": "address",
					"indexed": false,
					"internalType": "address"
				}
			],
			"anonymous": false
		},
		{
			"type": "event",
			"name": "SendPayouts",
			"inputs": [
				{
					"name": "rulesetId",
					"type": "uint256",
					"indexed": true,
					"internalType": "uint256"
				},
				{
					"name": "rulesetCycleNumber",
					"type": "uint256",
					"indexed": true,
					"internalType": "uint256"
				},
				{
					"name": "projectId",
					"type": "uint256",
					"indexed": true,
					"internalType": "uint256"
				},
				{
					"name": "projectOwner",
					"type": "address",
					"indexed": false,
					"internalType": "address"
				},
				{
					"name": "amount",
					"type": "uint256",
					"indexed": false,
					"internalType": "uint256"
				},
				{
					"name": "amountPaidOut",
					"type": "uint256",
					"indexed": false,
					"internalType": "uint256"
				},
				{
					"name": "fee",
					"type": "uint256",
					"indexed": false,
					"internalType": "uint256"
				},
				{
					"name": "netLeftoverPayoutAmount",
					"type": "uint256",
					"indexed": false,
					"internalType": "uint256"
				},
				{
					"name": "caller",
					"type": "address",
					"indexed": false,
					"internalType": "address"
				}
			],
			"anonymous": false
		},
		{
			"type": "event",
			"name": "SetAccountingContext",
			"inputs": [
				{
					"name": "projectId",
					"type": "uint256",
					"indexed": true,
					"internalType": "uint256"
				},
				{
					"name": "context",
					"type": "tuple",
					"indexed": false,
					"internalType": "struct JBAccountingContext",
					"components": [
						{
							"name": "token",
							"type": "address",
							"internalType": "address"
						},
						{
							"name": "decimals",
							"type": "uint8",
							"internalType": "uint8"
						},
						{
							"name": "currency",
							"type": "uint32",
							"internalType": "uint32"
						}
					]
				},
				{
					"name": "caller",
					"type": "address",
					"indexed": false,
					"internalType": "address"
				}
			],
			"anonymous": false
		},
		{
			"type": "event",
			"name": "UseAllowance",
			"inputs": [
				{
					"name": "rulesetId",
					"type": "uint256",
					"indexed": true,
					"internalType": "uint256"
				},
				{
					"name": "rulesetCycleNumber",
					"type": "uint256",
					"indexed": true,
					"internalType": "uint256"
				},
				{
					"name": "projectId",
					"type": "uint256",
					"indexed": true,
					"internalType": "uint256"
				},
				{
					"name": "beneficiary",
					"type": "address",
					"indexed": false,
					"internalType": "address"
				},
				{
					"name": "feeBeneficiary",
					"type": "address",
					"indexed": false,
					"internalType": "address"
				},
				{
					"name": "amount",
					"type": "uint256",
					"indexed": false,
					"internalType": "uint256"
				},
				{
					"name": "amountPaidOut",
					"type": "uint256",
					"indexed": false,
					"internalType": "uint256"
				},
				{
					"name": "netAmountPaidOut",
					"type": "uint256",
					"indexed": false,
					"internalType": "uint256"
				},
				{
					"name": "memo",
					"type": "string",
					"indexed": false,
					"internalType": "string"
				},
				{
					"name": "caller",
					"type": "address",
					"indexed": false,
					"internalType": "address"
				}
			],
			"anonymous": false
		},
		{
			"type": "error",
			"name": "FailedCall",
			"inputs": []
		},
		{
			"type": "error",
			"name": "InsufficientBalance",
			"inputs": [
				{
					"name": "balance",
					"type": "uint256",
					"internalType": "uint256"
				},
				{
					"name": "needed",
					"type": "uint256",
					"internalType": "uint256"
				}
			]
		},
		{
			"type": "error",
			"name": "JBMultiTerminal_AccountingContextAlreadySet",
			"inputs": [
				{
					"name": "token",
					"type": "address",
					"internalType": "address"
				}
			]
		},
		{
			"type": "error",
			"name": "JBMultiTerminal_AddingAccountingContextNotAllowed",
			"inputs": []
		},
		{
			"type": "error",
			"name": "JBMultiTerminal_FeeTerminalNotFound",
			"inputs": []
		},
		{
			"type": "error",
			"name": "JBMultiTerminal_NoMsgValueAllowed",
			"inputs": [
				{
					"name": "value",
					"type": "uint256",
					"internalType": "uint256"
				}
			]
		},
		{
			"type": "error",
			"name": "JBMultiTerminal_OverflowAlert",
			"inputs": [
				{
					"name": "value",
					"type": "uint256",
					"internalType": "uint256"
				},
				{
					"name": "limit",
					"type": "uint256",
					"internalType": "uint256"
				}
			]
		},
		{
			"type": "error",
			"name": "JBMultiTerminal_PermitAllowanceNotEnough",
			"inputs": [
				{
					"name": "amount",
					"type": "uint256",
					"internalType": "uint256"
				},
				{
					"name": "allowance",
					"type": "uint256",
					"internalType": "uint256"
				}
			]
		},
		{
			"type": "error",
			"name": "JBMultiTerminal_RecipientProjectTerminalNotFound",
			"inputs": [
				{
					"name": "projectId",
					"type": "uint256",
					"internalType": "uint256"
				},
				{
					"name": "token",
					"type": "address",
					"internalType": "address"
				}
			]
		},
		{
			"type": "error",
			"name": "JBMultiTerminal_SplitHookInvalid",
			"inputs": [
				{
					"name": "hook",
					"type": "address",
					"internalType": "contract IJBSplitHook"
				}
			]
		},
		{
			"type": "error",
			"name": "JBMultiTerminal_TerminalTokensIncompatible",
			"inputs": []
		},
		{
			"type": "error",
			"name": "JBMultiTerminal_TokenNotAccepted",
			"inputs": [
				{
					"name": "token",
					"type": "address",
					"internalType": "address"
				}
			]
		},
		{
			"type": "error",
			"name": "JBMultiTerminal_UnderMinReturnedTokens",
			"inputs": [
				{
					"name": "count",
					"type": "uint256",
					"internalType": "uint256"
				},
				{
					"name": "min",
					"type": "uint256",
					"internalType": "uint256"
				}
			]
		},
		{
			"type": "error",
			"name": "JBMultiTerminal_UnderMinTokensPaidOut",
			"inputs": [
				{
					"name": "amount",
					"type": "uint256",
					"internalType": "uint256"
				},
				{
					"name": "min",
					"type": "uint256",
					"internalType": "uint256"
				}
			]
		},
		{
			"type": "error",
			"name": "JBMultiTerminal_UnderMinTokensReclaimed",
			"inputs": [
				{
					"name": "amount",
					"type": "uint256",
					"internalType": "uint256"
				},
				{
					"name": "min",
					"type": "uint256",
					"internalType": "uint256"
				}
			]
		},
		{
			"type": "error",
			"name": "JBMultiTerminal_ZeroAccountingContextCurrency",
			"inputs": []
		},
		{
			"type": "error",
			"name": "JBMultiTerminal_ZeroAccountingContextDecimals",
			"inputs": []
		},
		{
			"type": "error",
			"name": "JBPermissioned_Unauthorized",
			"inputs": [
				{
					"name": "account",
					"type": "address",
					"internalType": "address"
				},
				{
					"name": "sender",
					"type": "address",
					"internalType": "address"
				},
				{
					"name": "projectId",
					"type": "uint256",
					"internalType": "uint256"
				},
				{
					"name": "permissionId",
					"type": "uint256",
					"internalType": "uint256"
				}
			]
		},
		{
			"type": "error",
			"name": "PRBMath_MulDiv_Overflow",
			"inputs": [
				{
					"name": "x",
					"type": "uint256",
					"internalType": "uint256"
				},
				{
					"name": "y",
					"type": "uint256",
					"internalType": "uint256"
				},
				{
					"name": "denominator",
					"type": "uint256",
					"internalType": "uint256"
				}
			]
		},
		{
			"type": "error",
			"name": "SafeERC20FailedOperation",
			"inputs": [
				{
					"name": "token",
					"type": "address",
					"internalType": "address"
				}
			]
		}
	],
	"solcInputHash": "b6c351fd96634234999dc102235e550e",
	"args": [
		"0xaB1065BC48C9f7e450411f1CC38C5ccfE5688AB8",
		"0x4886C30C81a17a3A1084fd1812008fA0f71a20B9",
		"0x9B52A59F108e36cE0a8Eba595Eca22DbadbE655F",
		"0x53A4354b7c6f83b0b2B7d559451a5180a410aB25",
		"0x270eC8711dCa04cf5f3FdF10141428065e07194F",
		"0x94Db7C71D9E4bcDE99686bE9570C68BF12708D3e",
		"0x000000000022D473030F116dDEE9F6B43aC78BA3",
		"0xB2b5841DBeF766d4b521221732F9B618fCf34A87"
	],
	"bytecode": "0x6101c06040523480156200001257600080fd5b50604051620061453803806200614583398101604081905262000035916200017c565b6001600160a01b0380881660805280821660a052604080516388bc2ef360e01b81529051918616916388bc2ef3916004808201926020929091908290030181865afa15801562000089573d6000803e3d6000fd5b505050506040513d601f19601f82011682018060405250810190620000af91906200023d565b6001600160a01b0390811660c05288811660e052868116610120526040805163d4a1b4b160e01b815290519186169163d4a1b4b1916004808201926020929091908290030181865afa1580156200010a573d6000803e3d6000fd5b505050506040513d601f19601f820116820180604052508101906200013091906200023d565b6001600160a01b039081166101405294851661016052509183166101805282166101a05216610100525062000264915050565b6001600160a01b03811681146200017957600080fd5b50565b600080600080600080600080610100898b0312156200019a57600080fd5b8851620001a78162000163565b60208a0151909850620001ba8162000163565b60408a0151909750620001cd8162000163565b60608a0151909650620001e08162000163565b60808a0151909550620001f38162000163565b60a08a0151909450620002068162000163565b60c08a0151909350620002198162000163565b60e08a01519092506200022c8162000163565b809150509295985092959890939650565b6000602082840312156200025057600080fd5b81516200025d8162000163565b9392505050565b60805160a05160c05160e05161010051610120516101405161016051610180516101a051615dd96200036c6000396000818161025e01528181611af20152611c130152600081816103e6015281816118140152818161197601528181611eec0152818161270f01528181612bb40152818161311a0152613e390152600081816102aa0152613ecb0152600081816105eb0152610a8401526000818161030001526121690152600081816104e80152818161267e0152612a120152600081816104b4015261226e01526000818161056f015281816121f6015261236001526000818161045201528181610539015261366a01526000818161067f0152611d3d0152615dd96000f3fe6080604052600436106101b75760003560e01c80636afdd850116100ec578063d4a1b4b11161008a578063edb4095011610064578063edb409501461064d578063f434c9141461066d578063fdebc62a146106a1578063fef43257146106c157600080fd5b8063d4a1b4b1146105d9578063ddb4389e1461060d578063e28b54111461062d57600080fd5b806388bc2ef3116100c657806388bc2ef31461055d5780639e6eec0514610591578063c57981b5146105a4578063cfaf5839146105b957600080fd5b80636afdd850146104d6578063748e821c1461050a5780637da0a8771461052a57600080fd5b80633a01714f11610159578063515a929311610133578063515a929314610408578063572b6c05146104355780635f912e5614610482578063659a2047146104a257600080fd5b80633a01714f146103225780634ff513ab146103b4578063507f1465146103d457600080fd5b80631d831d5c116101955780631d831d5c1461024c5780631f47ce6914610298578063253721c8146102cc578063293c4999146102ee57600080fd5b806301ffc9a7146101bc57806304a83d7f146101f157806313da83171461021e575b600080fd5b3480156101c857600080fd5b506101dc6101d73660046144f7565b6106d4565b60405190151581526020015b60405180910390f35b3480156101fd57600080fd5b5061021161020c366004614539565b6107c8565b6040516101e89190614571565b34801561022a57600080fd5b5061023e61023936600461461c565b6109a3565b6040519081526020016101e8565b34801561025857600080fd5b506102807f000000000000000000000000000000000000000000000000000000000000000081565b6040516001600160a01b0390911681526020016101e8565b3480156102a457600080fd5b506102807f000000000000000000000000000000000000000000000000000000000000000081565b3480156102d857600080fd5b506102ec6102e73660046146b3565b610a33565b005b3480156102fa57600080fd5b506102807f000000000000000000000000000000000000000000000000000000000000000081565b34801561032e57600080fd5b506103a761033d366004614731565b6040805160608082018352600080835260208084018290529284018190529485528482528285206001600160a01b03948516865282529382902082519485018352549283168452600160a01b830460ff1690840152600160a81b90910463ffffffff169082015290565b6040516101e8919061478c565b3480156103c057600080fd5b5061023e6103cf36600461479a565b610efb565b3480156103e057600080fd5b506102807f000000000000000000000000000000000000000000000000000000000000000081565b34801561041457600080fd5b50610428610423366004614802565b611325565b6040516101e89190614861565b34801561044157600080fd5b506101dc610450366004614874565b7f00000000000000000000000000000000000000000000000000000000000000006001600160a01b0390811691161490565b34801561048e57600080fd5b506102ec61049d366004614891565b6113bf565b3480156104ae57600080fd5b506102807f000000000000000000000000000000000000000000000000000000000000000081565b3480156104e257600080fd5b506102807f000000000000000000000000000000000000000000000000000000000000000081565b34801561051657600080fd5b5061023e6105253660046148e2565b61142f565b34801561053657600080fd5b507f0000000000000000000000000000000000000000000000000000000000000000610280565b34801561056957600080fd5b506102807f000000000000000000000000000000000000000000000000000000000000000081565b6102ec61059f366004614994565b6114c4565b3480156105b057600080fd5b5061023e601981565b3480156105c557600080fd5b5061023e6105d4366004614a27565b611551565b3480156105e557600080fd5b506102807f000000000000000000000000000000000000000000000000000000000000000081565b34801561061957600080fd5b506102ec610628366004614539565b61158c565b34801561063957600080fd5b5061023e610648366004614a6f565b61173d565b34801561065957600080fd5b5061023e610668366004614c1f565b611972565b34801561067957600080fd5b506102807f000000000000000000000000000000000000000000000000000000000000000081565b3480156106ad57600080fd5b506102ec6106bc366004614cde565b611aaa565b61023e6106cf366004614d0e565b611ac7565b60006001600160e01b0319821663279a148b60e01b148061070557506001600160e01b03198216633d0d324560e21b145b8061072057506001600160e01b031982166321c9410760e01b145b8061073b57506001600160e01b031982166313da831760e01b145b8061075657506001600160e01b0319821663bb21da2560e01b145b8061077157506001600160e01b031982166306afdd8560e41b145b8061078c57506001600160e01b0319821663279a148b60e01b145b806107a757506001600160e01b031982166379ffa41360e01b145b806107c257506001600160e01b031982166301ffc9a760e01b145b92915050565b60008381526003602090815260408083206001600160a01b03861680855290835281842054878552600284528285209185529252909120546060919080821061085857604080516000808252602082019092529061084e565b60408051606081018252600080825260208083018290529282015282526000199092019101816108215790505b509250505061099c565b806108638584614dc0565b1115610876576108738282614dd3565b93505b836001600160401b0381111561088e5761088e614ab1565b6040519080825280602002602001820160405280156108d957816020015b60408051606081018252600080825260208083018290529282015282526000199092019101816108ac5790505b50925060005b848110156109985760008781526002602090815260408083206001600160a01b038a16845290915290206109138285614dc0565b8154811061092357610923614de6565b60009182526020918290206040805160608101825260029390930290910180548352600101546001600160a01b03811693830193909352600160a01b90920465ffffffffffff1691810191909152845185908390811061098557610985614de6565b60209081029190910101526001016108df565b5050505b9392505050565b60006109b189896003611cd1565b6109f5898989898888888080601f016020809104026020016040519081016040528093929190818152602001838380828437600092019190915250611def92505050565b905084811015610a27576040516353004fd560e01b815260048101829052602481018690526044015b60405180910390fd5b98975050505050505050565b610a6b610a3f84612150565b846013610a4b826121dd565b6001600160a01b0316610a5c61222d565b6001600160a01b03161461223c565b6040516321d1336160e11b8152600481018490526000907f00000000000000000000000000000000000000000000000000000000000000006001600160a01b0316906343a266c29060240161012060405180830381865afa158015610ad4573d6000803e3d6000fd5b505050506040513d601f19601f82011682018060405250810190610af89190614efe565b9050806020015165ffffffffffff16600014158015610b235750610100810151604b1c600190811614155b15610b41576040516308034a2d60e21b815260040160405180910390fd5b60005b82811015610ef4576000848483818110610b6057610b60614de6565b905060600201803603810190610b769190614f1b565b60008781526020818152604080832084516001600160a01b03908116855292529091208054929350911615610bcc5780546040516307295c0160e21b81526001600160a01b039091166004820152602401610a1e565b81516000906001600160a01b031661eeee148015610bf25750826020015160ff16601214155b15610bff57506001610d09565b82516001600160a01b031661eeee14610d095782516040516301ffc9a760e01b815263a219a02560e01b60048201526001600160a01b03909116906301ffc9a790602401602060405180830381865afa925050508015610c7c575060408051601f3d908101601f19168201909252610c7991810190614f37565b60015b15610d0957808015610cfd575083600001516001600160a01b031663313ce5676040518163ffffffff1660e01b8152600401602060405180830381865afa158015610ccb573d6000803e3d6000fd5b505050506040513d601f19601f82011682018060405250810190610cef9190614f54565b60ff16846020015160ff1614155b15610d0757600191505b505b8015610d285760405163104a127760e21b815260040160405180910390fd5b826040015163ffffffff16600003610d5357604051633c94d15b60e01b815260040160405180910390fd5b82600001518260000160006101000a8154816001600160a01b0302191690836001600160a01b0316021790555082602001518260000160146101000a81548160ff021916908360ff16021790555082604001518260000160156101000a81548163ffffffff021916908363ffffffff1602179055506001600089815260200190815260200160002082908060018154018082558091505060019003906000526020600020016000909190919091506000820160009054906101000a90046001600160a01b03168160000160006101000a8154816001600160a01b0302191690836001600160a01b031602179055506000820160149054906101000a900460ff168160000160146101000a81548160ff021916908360ff1602179055506000820160159054906101000a900463ffffffff168160000160156101000a81548163ffffffff021916908363ffffffff1602179055505050877fec91efc21eddd12fa66398fea3251c0e0b95bc53f0cdde2cd2c52e94bf11e07883610ed361222d565b604051610ee1929190614f71565b60405180910390a2505050600101610b44565b5050505050565b6000333014610f0957600080fd5b50816000610f1d60c0880160a08901614874565b6001600160a01b03161461111357610f3b60c0870160a08801614874565b6040516301ffc9a760e01b815262dcdc5760e41b60048201526001600160a01b0391909116906301ffc9a790602401602060405180830381865afa158015610f87573d6000803e3d6000fd5b505050506040513d601f19601f82011682018060405250810190610fab9190614f37565b610fe457610fbf60c0870160a08801614874565b6040516347dfdccf60e11b81526001600160a01b039091166004820152602401610a1e565b610ffc610ff760c0880160a08901614874565b61224c565b6110185761100b8360196122db565b6110159082614dd3565b90505b6040805160c0810182526001600160a01b0386168082526020808301859052600089815280825284812083825290915283812054600160a01b900460ff169383019390935260608201889052608082015260a0810161107c368a90038a018a614fd2565b90529050600061109c61109560c08a0160a08b01614874565b87856122fd565b90506110ae60c0890160a08a01614874565b6001600160a01b0316630dcdc57082846040518363ffffffff1660e01b81526004016110da91906150be565b6000604051808303818588803b1580156110f357600080fd5b505af1158015611107573d6000803e3d6000fd5b5050505050505061131c565b6111236060870160408801615112565b66ffffffffffffff16156112b05760006111556111466060890160408a01615112565b66ffffffffffffff1686612337565b90506001600160a01b0381166111a9576111756060880160408901615112565b60405163ea4f4b6160e01b815266ffffffffffffff90911660048201526001600160a01b0386166024820152604401610a1e565b6001600160a01b03811630148015906111c857506111c68161224c565b155b156111e5576111d88460196122db565b6111e29083614dd3565b91505b6000866040516020016111fa91815260200190565b60408051601f198184030181529190529050611219602089018961512f565b15611248576112438261123260608b0160408c01615112565b66ffffffffffffff168886856123cd565b6112a9565b60008061125b60808b0160608c01614874565b6001600160a01b03160361126f578461127f565b61127f60808a0160608b01614874565b90506112a78361129560608c0160408d01615112565b66ffffffffffffff168987858761247f565b505b505061131c565b6000806112c36080890160608a01614874565b6001600160a01b0316036112d757826112e7565b6112e76080880160608901614874565b90506112f28161224c565b61130e576113018460196122db565b61130b9083614dd3565b91505b61131a3082878561253c565b505b95945050505050565b606060016000838152602001908152602001600020805480602002602001604051908101604052809291908181526020016000905b828210156113b457600084815260209081902060408051606081018252918501546001600160a01b0381168352600160a01b810460ff1683850152600160a81b900463ffffffff169082015282526001909201910161135a565b505050509050919050565b3330146113cb57600080fd5b6001600160a01b0381166113f257604051630692dd3560e01b815260040160405180910390fd5b60008560405160200161140791815260200190565b60405160208183030381529060405290506114278260018787878661247f565b505050505050565b600061144561143d8b612150565b8b6010611cd1565b61148a8a8a8a8a898989898080601f0160208091040260200160405190810160405280939291908181526020018383808284376000920191909152506126d692505050565b9050858110156114b7576040516332eb01cf60e21b81526004810182905260248101879052604401610a1e565b9998505050505050505050565b61154788886114d68b8b8b888861285e565b8888888080601f01602080910402602001604051908101604052809392919081815260200183838082843760009201919091525050604080516020601f8c018190048102820181019092528a815292508a9150899081908401838280828437600092019190915250612afb92505050565b5050505050505050565b600061155f86868686612b7a565b90508181101561131c576040516332eb01cf60e21b81526004810182905260248101839052604401610a1e565b60008381526003602090815260408083206001600160a01b03861680855290835281842054878552600284528285209185529252909120548082106115d2575050505050565b60006115df600186612337565b9050816115ec8585614dc0565b11156115ff576115fc8383614dd3565b93505b60005b848110156117035760008781526002602090815260408083206001600160a01b038a16845290915281206116368387614dc0565b8154811061164657611646614de6565b60009182526020918290206040805160608101825260029390930290910180548352600101546001600160a01b03811693830193909352600160a01b90920465ffffffffffff1691810182905291504210156116d9578115611547576116ac8286614dc0565b60008981526003602090815260408083206001600160a01b038c1684529091529020555050505050505050565b6116fa88886116ed846000015160196122db565b8460200151876001612e8e565b50600101611602565b5061170e8484614dc0565b60009687526003602090815260408089206001600160a01b039098168952969052949095209390935550505050565b600061175361174b85612150565b856005611cd1565b604051633a01714f60e01b8152600481018590526001600160a01b038481166024830152831690633a01714f90604401606060405180830381865afa1580156117a0573d6000803e3d6000fd5b505050506040513d601f19601f820116820180604052508101906117c4919061514c565b6040015163ffffffff166000036117ee5760405163aaf52f1f60e01b815260040160405180910390fd5b6040516319781e2360e01b8152600481018590526001600160a01b0384811660248301527f000000000000000000000000000000000000000000000000000000000000000016906319781e23906044016020604051808303816000875af115801561185d573d6000803e3d6000fd5b505050506040513d601f19601f8201168201806040525081019061188191906151a0565b9050816001600160a01b0316836001600160a01b0316857ff0aa72bb9c2a07cf43281bfe8c525ba320fdc71e18b54c9f93ab22ce074af7f6846118c261222d565b604080519283526001600160a01b0390911660208301520160405180910390a4801561099c5760006118f58385846122fd565b6040805160208101825260008082529151639e6eec0560e01b81529293506001600160a01b03861692639e6eec05928592611938928b928b928a92600401615209565b6000604051808303818588803b15801561195157600080fd5b505af1158015611965573d6000803e3d6000fd5b5050505050509392505050565b60007f00000000000000000000000000000000000000000000000000000000000000006001600160a01b031663d60d1a0930878751600003611a3a57600089815260016020908152604080832080548251818502810185019093528083529193909284015b82821015611a3157600084815260209081902060408051606081018252918501546001600160a01b0381168352600160a01b810460ff1683850152600160a81b900463ffffffff16908201528252600190920191016119d7565b50505050611a3c565b875b87876040518663ffffffff1660e01b8152600401611a5e959493929190615257565b602060405180830381865afa158015611a7b573d6000803e3d6000fd5b505050506040513d601f19601f82011682018060405250810190611a9f91906151a0565b90505b949350505050565b333014611ab657600080fd5b611ac23084848461253c565b505050565b6040516310f0007760e31b81526001600160a01b038781166004830152602482018b905260009182917f0000000000000000000000000000000000000000000000000000000000000000169063878003b890604401602060405180830381865afa158015611b39573d6000803e3d6000fd5b505050506040513d601f19601f82011682018060405250810190611b5d91906151a0565b9050611bea8b8b611b718e8e8e8a8a61285e565b611b7961222d565b8c8b8b8080601f01602080910402602001604051908101604052809392919081815260200183838082843760009201919091525050604080516020601f8f018190048102820181019092528d815292508d91508c9081908401838280828437600092019190915250612ffb92505050565b6040516310f0007760e31b81526001600160a01b038981166004830152602482018d90526000917f00000000000000000000000000000000000000000000000000000000000000009091169063878003b890604401602060405180830381865afa158015611c5c573d6000803e3d6000fd5b505050506040513d601f19601f82011682018060405250810190611c8091906151a0565b905081811115611c9757611c948282614dd3565b92505b87831015611cc25760405163c3de539b60e01b81526004810184905260248101899052604401610a1e565b50509998505050505050505050565b6000611cdb61222d565b9050836001600160a01b0316816001600160a01b031614158015611daa5750604051631a45b42760e11b81526001600160a01b0382811660048301528581166024830152604482018590526064820184905260016084830181905260a48301527f0000000000000000000000000000000000000000000000000000000000000000169063348b684e9060c401602060405180830381865afa158015611d84573d6000803e3d6000fd5b505050506040513d601f19601f82011682018060405250810190611da89190614f37565b155b15611de957604051631326f75560e11b81526001600160a01b038086166004830152821660248201526044810184905260648101839052608401610a1e565b50505050565b6000611df96144ab565b6000878152602081815260408083206001600160a01b03898116855290835281842082516060808201855291549283168152600160a01b830460ff1681860152600160a81b90920463ffffffff16828401528b855260018452828520805484518187028101870190955280855291959492938593909290849084015b82821015611ecf57600084815260209081902060408051606081018252918501546001600160a01b0381168352600160a01b810460ff1683850152600160a81b900463ffffffff1690820152825260019092019101611e75565b5050604051633277b1a160e01b8152929350506001600160a01b037f00000000000000000000000000000000000000000000000000000000000000001691633277b1a19150611f2c908f908f908f90889088908f90600401615292565b6000604051808303816000875af1158015611f4b573d6000803e3d6000fd5b505050506040513d6000823e601f3d908101601f19168201604052611f739190810190615347565b9198509196509450925050881561200757611f8d8a6121dd565b60405163516a997360e11b81526001600160a01b038d81166004830152602482018d9052604482018c90526080606483015260006084830152919091169063a2d532e69060a401600060405180830381600087803b158015611fee57600080fd5b505af1158015612002573d6000803e3d6000fd5b505050505b6000851561205f576120188861224c565b15801561202457508215155b1561204d576120338682614dc0565b90506120408660196122db565b61204a9087614dd3565b95505b851561205f5761205f30898b8961253c565b8351156120be576120b18b60405180608001604052808c6001600160a01b03168152602001856020015160ff168152602001856040015163ffffffff168152602001898152508e8d8b8a898f8c6132ea565b6120bb9082614dc0565b90505b806000036120cd5760006120db565b6120db8b8a838b600061351c565b508a856000015165ffffffffffff16866020015165ffffffffffff167ffaf1d4bf1b08470c7ed8c351c5065f51af70b36b237723173f898453b97241428f8c8f898d8f61212661222d565b6040516121399796959493929190615473565b60405180910390a450505050509695505050505050565b6040516331a9108f60e11b8152600481018290526000907f00000000000000000000000000000000000000000000000000000000000000006001600160a01b031690636352211e906024015b602060405180830381865afa1580156121b9573d6000803e3d6000fd5b505050506040513d601f19601f820116820180604052508101906107c291906154c6565b604051632eec7b5560e11b8152600481018290526000907f00000000000000000000000000000000000000000000000000000000000000006001600160a01b031690635dd8f6aa9060240161219c565b600061223761365a565b905090565b80611de957611de9848484611cd1565b60405163ae74a1b560e01b81526001600160a01b0382811660048301526000917f00000000000000000000000000000000000000000000000000000000000000009091169063ae74a1b590602401602060405180830381865afa1580156122b7573d6000803e3d6000fd5b505050506040513d601f19601f820116820180604052508101906107c29190614f37565b60006122f3836103e86122ee8186614dc0565b6136cf565b61099c9084614dd3565b600061eeed196001600160a01b0384160161231957508061099c565b61232d6001600160a01b03841685846137a3565b5060009392505050565b604051630862026560e41b8152600481018390526001600160a01b0382811660248301526000917f000000000000000000000000000000000000000000000000000000000000000090911690638620265090604401602060405180830381865afa1580156123a9573d6000803e3d6000fd5b505050506040513d601f19601f8201168201806040525081019061099c91906154c6565b306001600160a01b03861603612400576123fb84848460006040518060200160405280600081525086612afb565b610ef4565b600061240d8685856122fd565b9050856001600160a01b0316639e6eec05828787876000886040518763ffffffff1660e01b8152600401612445959493929190615209565b6000604051808303818588803b15801561245e57600080fd5b505af1158015612472573d6000803e3d6000fd5b5050505050505050505050565b306001600160a01b038716036124b2576124ad85858530866040518060200160405280600081525087612ffb565b611427565b60006124bf8786866122fd565b9050866001600160a01b031663fef4325782888888886000896040518863ffffffff1660e01b81526004016124f9969594939291906154e3565b60206040518083038185885af1158015612517573d6000803e3d6000fd5b50505050506040513d601f19601f8201168201806040525081019061154791906151a0565b61eeed196001600160a01b0383160161255e57612559838261382d565b611de9565b306001600160a01b03851603612582576125596001600160a01b03831684836138cb565b604051636eb1769f60e11b81526001600160a01b03858116600483015230602483015282919084169063dd62ed3e90604401602060405180830381865afa1580156125d1573d6000803e3d6000fd5b505050506040513d601f19601f820116820180604052508101906125f591906151a0565b1061260f576125596001600160a01b03831685858461392a565b6001600160a01b0381111561264757604051631999bf2f60e11b8152600481018290526001600160a01b036024820152604401610a1e565b604051631b63c28b60e11b81526001600160a01b0385811660048301528481166024830152828116604483015283811660648301527f000000000000000000000000000000000000000000000000000000000000000016906336c7851690608401600060405180830381600087803b1580156126c257600080fd5b505af1158015611547573d6000803e3d6000fd5b60006126e06144ab565b6000898152602081815260408083206001600160a01b038c811685529252808320905163060f2bdf60e31b81527f0000000000000000000000000000000000000000000000000000000000000000909216916330795ef89161274b918e91908d908d9060040161552f565b610140604051808303816000875af115801561276b573d6000803e3d6000fd5b505050506040513d601f19601f8201168201806040525081019061278f919061557b565b909250905061279f610ff761222d565b6127cb576127c68a8a83886127c18761010001516001604e9190911c81161490565b61351c565b6127ce565b60005b6127d89082614dd3565b925089826000015165ffffffffffff16836020015165ffffffffffff167fd836655d29bc0376acd403e1e5a574fc237f820c4717dd006e0c087dfafda56c89898d878a8c61282461222d565b6040516128379796959493929190615473565b60405180910390a482156128515761285130878b8661253c565b5050979650505050505050565b6000858152602081815260408083206001600160a01b0388811685529252822054166128a85760405163765b60eb60e11b81526001600160a01b0386166004820152602401610a1e565b61eeed196001600160a01b038616016128c257503461131c565b34156128e357604051633ad385fd60e01b8152346004820152602401610a1e565b60008061294d612911604051806040016040528060078152602001663832b936b4ba1960c91b815250613963565b86868080601f01602080910402602001604051908101604052809392919081815260200183838082843760009201919091525061397792505050565b915091508115612ac75760008180602001905181019061296d91906155aa565b905080602001516001600160a01b03168711156129b55760208101516040516363f4ca5d60e11b8152600481018990526001600160a01b039091166024820152604401610a1e565b6040805160e0810182526001600160a01b03808b166060808401918252602086810151841660808601528686015165ffffffffffff90811660a08701529187015190911660c08501529083523090830152835192820192909252907f000000000000000000000000000000000000000000000000000000000000000016632b67b570612a3f61222d565b8385608001516040518463ffffffff1660e01b8152600401612a6393929190615659565b600060405180830381600087803b158015612a7d57600080fd5b505af1925050508015612a8e575060015b612ac4573d808015612abc576040519150601f19603f3d011682016040523d82523d6000602084013e612ac1565b606091505b50505b50505b6000612ad288613b1d565b9050612ae7612adf61222d565b308a8a61253c565b80612af189613b1d565b6114b79190614dd3565b600083612b09576000612b14565b612b14878787613ba5565b9050867f9ecaf7fc3dfffd6867c175d6e684b1f1e3aef019398ba8db2c1ffab4a09db25386838686612b4461222d565b604051612b559594939291906156cd565b60405180910390a2612b718787612b6c8489614dc0565b613e0c565b50505050505050565b6000612b846144ab565b6000868152602081815260408083206001600160a01b038981168552925291829020915163181241e760e31b81527f00000000000000000000000000000000000000000000000000000000000000009091169163c0920f3891612bef918a918990899060040161552f565b610140604051808303816000875af1158015612c0f573d6000803e3d6000fd5b505050506040513d601f19601f82011682018060405250810190612c33919061557b565b925090506000612c4287612150565b610100830151909150604d1c600190811603612c6457612c6481886004611cd1565b600080612c7f8989866020015165ffffffffffff1688613e91565b9150915081600014612dd7576000612c968461224c565b612caa57612ca58360196122db565b612cad565b60005b90503063fdebc62a858b612cc18588614dd3565b6040516001600160e01b031960e086901b1681526001600160a01b0393841660048201529290911660248301526044820152606401600060405180830381600087803b158015612d1057600080fd5b505af1925050508015612d21575060015b612db6573d808015612d4f576040519150601f19603f3d011682016040523d82523d6000602084013e612d54565b606091505b508a7f64b44e4e3e05c8f28c2e2f72441bea0712781cbab310066f2729067ab2735021868c612d838689614dd3565b85612d8c61222d565b604051612d9d959493929190615719565b60405180910390a2612db08b8b86613e0c565b50612dd5565b8015612dd557612dc68383614dc0565b9150612dd28184614dd3565b92505b505b6000612df78a8a84876127c18a61010001516001604e9190911c81161490565b905089856000015165ffffffffffff16866020015165ffffffffffff167fda42c5c18ef97738d10c32811895add569670a6fcbe9627ea198d446f3be6dea878c8b878a612e4261222d565b604080516001600160a01b03978816815260208101969096528501939093526060840191909152608083015290911660a082015260c00160405180910390a45050505050949350505050565b604051632fc8972b60e11b8152600481018790526001600160a01b038087166024830152604482018690528085166064830152831660848201523090635f912e569060a401600060405180830381600087803b158015612eed57600080fd5b505af1925050508015612efe575060015b612f92573d808015612f2c576040519150601f19603f3d011682016040523d82523d6000602084013e612f31565b606091505b506001866001600160a01b0316887f4b73f3c5cfb174c9d0494138d07ff8ee3aa400df46327d9893ed5ac122dd558a8885612f6a61222d565b604051612f799392919061575e565b60405180910390a4612f8c878787613e0c565b50611427565b83856001600160a01b0316877fb514e730b3f8ad3aa94b6857bcc5ff4a46954bdcf8c4b0346705b1d0ac7a43258487612fc961222d565b6040805193151584526001600160a01b03928316602085015291169082015260600160405180910390a4505050505050565b60408051608081018252600080825260208201819052918101829052606081019190915260008060008a81526020019081526020016000206000896001600160a01b03166001600160a01b031681526020019081526020016000206040518060600160405290816000820160009054906101000a90046001600160a01b03166001600160a01b03166001600160a01b031681526020016000820160149054906101000a900460ff1660ff1660ff1681526020016000820160159054906101000a900463ffffffff1663ffffffff1663ffffffff168152505090506040518060800160405280896001600160a01b03168152602001826020015160ff168152602001826040015163ffffffff1681526020018881525091505060008060007f00000000000000000000000000000000000000000000000000000000000000006001600160a01b031663c59dfadb89868e8b8a6040518663ffffffff1660e01b815260040161316c9594939291906157c4565b6000604051808303816000875af115801561318b573d6000803e3d6000fd5b505050506040513d6000823e601f3d908101601f191682016040526131b39190810190615806565b925092509250600082600014613260576131cc8c6121dd565b6040516363fdc96f60e11b8152600481018e9052602481018590526001600160a01b038a8116604483015260a06064830152600060a483015260016084830152919091169063c7fb92de9060c4016020604051808303816000875af1158015613239573d6000803e3d6000fd5b505050506040513d601f19601f8201168201806040525081019061325d91906151a0565b90505b8b846000015165ffffffffffff16856020015165ffffffffffff167f133161f1c9161488f777ab9a26aae91d47c0d9a3fafb398960f138db02c737978c8c8f878e8e6132aa61222d565b6040516132bd9796959493929190615925565b60405180910390a48151156132dc576132dc8c83878c888d878d614035565b505050505050505050505050565b6000806040518061014001604052808a6001600160a01b031681526020018c8152602001876020015165ffffffffffff1681526020018981526020018b81526020018b8152602001868152602001856001600160a01b0316815260200160405180602001604052806000815250815260200188815250905060005b8351811015611cc257600084828151811061338257613382614de6565b60200260200101519050600061339b826000015161224c565b6133b3576133ae826020015160196122db565b6133b6565b60005b905080156133e55760208201516133cd9086614dc0565b945080826020018181516133e19190614dd3565b9052505b60405180608001604052808e600001516001600160a01b031681526020018e6020015160ff1681526020018e6040015163ffffffff16815260200183602001518152508460a001819052508160400151846101000181905250600061345783600001518f6000015185602001516122fd565b835160405163611481d960e11b81529192506001600160a01b03169063c22903b2908390613489908990600401615a30565b6000604051808303818588803b1580156134a257600080fd5b505af11580156134b6573d6000803e3d6000fd5b505050505082600001516001600160a01b03167fcf8b519514967a394374844411e77f7b1aab68299a65fa6d3593a4f30deaec35868560200151856134f961222d565b6040516135099493929190615a43565b60405180910390a2505050600101613365565b60006135298460196122db565b9050811561363c5760008681526002602090815260408083206001600160a01b03808a16855290835292819020815160608101835288815293871692840192909252909190810161357d6224ea0042614dc0565b65ffffffffffff908116909152825460018181018555600094855260209485902084516002909302019182559383015193018054604090930151909116600160a01b026001600160d01b03199092166001600160a01b039384161791909117905584908616877fef9cd8fc3b61b64b44042ada0a8a3ede1649bc1b112673da228120f13bf1381e60198761360f61222d565b604080519384526001600160a01b03928316602085015291169082015260600160405180910390a461131c565b6000613649600187612337565b905061131a87878487856000612e8e565b6000366014336001600160a01b037f0000000000000000000000000000000000000000000000000000000000000000161480156136975750808210155b156136c7576000366136a98385614dd3565b6136b4928290615a7b565b6136bd91615aa5565b60601c9250505090565b339250505090565b6000808060001985870985870292508281108382030391505080600003613709578382816136ff576136ff615ada565b049250505061099c565b83811061373a57604051630c740aef60e31b8152600481018790526024810186905260448101859052606401610a1e565b60008486880960026001871981018816978890046003810283188082028403028082028403028082028403028082028403028082028403029081029092039091026000889003889004909101858311909403939093029303949094049190911702949350505050565b604051636eb1769f60e11b81523060048201526001600160a01b0383811660248301526000919085169063dd62ed3e90604401602060405180830381865afa1580156137f3573d6000803e3d6000fd5b505050506040513d601f19601f8201168201806040525081019061381791906151a0565b9050611de984846138288585614dc0565b614210565b804710156138575760405163cf47918160e01b815247600482015260248101829052604401610a1e565b6000826001600160a01b03168260405160006040518083038185875af1925050503d80600081146138a4576040519150601f19603f3d011682016040523d82523d6000602084013e6138a9565b606091505b5050905080611ac25760405163d6bda27560e01b815260040160405180910390fd5b6040516001600160a01b03838116602483015260448201839052611ac291859182169063a9059cbb906064015b604051602081830303815290604052915060e01b6020820180516001600160e01b03838183161783525050505061429c565b6040516001600160a01b038481166024830152838116604483015260648201839052611de99186918216906323b872dd906084016138f8565b805160208201206000903060601b186107c2565b60006060602583511161399c5750506040805160208101909152600080825290613b16565b6000836139ab60046020614dc0565b815181106139bb576139bb614de6565b0160209081015160f81c91505b6000856139d6600484614dc0565b815181106139e6576139e6614de6565b01602001516001600160f81b03191614801590613a0c5750613a09602083615af0565b81105b15613b1357600085613a1f600484614dc0565b81518110613a2f57613a2f614de6565b016020908101518784019091015160f89190911c91506001600160e01b031980891690821603613b09576000613a66602086615af0565b613a71600986614dc0565b101580613aa6575087613a85600986614dc0565b81518110613a9557613a95614de6565b01602001516001600160f81b031916155b613adf57602088613ab8600987614dc0565b81518110613ac857613ac8614de6565b0160200151613ada919060f81c615af0565b613ae2565b87515b90506001613afb89613af5602087615af0565b8461430d565b965096505050505050613b16565b50506005016139c8565b50505b9250929050565b60006001600160a01b03821661eeee14613b9e576040516370a0823160e01b81523060048201526001600160a01b038316906370a0823190602401602060405180830381865afa158015613b75573d6000803e3d6000fd5b505050506040513d601f19601f82011682018060405250810190613b9991906151a0565b6107c2565b4792915050565b60008381526003602090815260408083206001600160a01b03861680855290835281842054878552600284528285209185529252822054808210613bee5760009250505061099c565b836000613bfb8484614dd3565b90508360005b82811015613d745760008a81526002602090815260408083206001600160a01b038d1684529091528120613c358389614dc0565b81548110613c4557613c45614de6565b600091825260208083206040805160608101825260029490940290910180548452600101546001600160a01b03811692840192909252600160a01b90910465ffffffffffff16908201529150859003613c9e5750613d74565b6000613caf826000015160196122db565b90506000818360000151613cc39190614dd3565b9050808710613cf157988101989586900395613cdf848a614dc0565b613cea906001614dc0565b9450613d69565b613cfc876019614349565b9150818701600260008f815260200190815260200160002060008e6001600160a01b03166001600160a01b03168152602001908152602001600020858b0181548110613d4a57613d4a614de6565b6000918252602082206002909102018054929092039091559982019996505b505050600101613c01565b50808514613da25760008981526003602090815260408083206001600160a01b038c16845290915290208190555b86886001600160a01b03168a7fedc5125503c021a73fd7d8ed0c2456b296be2c88f39fbed068bd091cef7ca43d8987613dd961222d565b6040805193845260208401929092526001600160a01b03169082015260600160405180910390a450505050509392505050565b6040516351fc173560e01b8152600481018490526001600160a01b038381166024830152604482018390527f000000000000000000000000000000000000000000000000000000000000000016906351fc173590606401600060405180830381600087803b158015613e7d57600080fd5b505af1158015612b71573d6000803e3d6000fd5b6040516369e11cc560e01b815260048101859052602481018390526001600160a01b0384811660448301526000918291633b9aca009183917f000000000000000000000000000000000000000000000000000000000000000016906369e11cc590606401600060405180830381865afa158015613f12573d6000803e3d6000fd5b505050506040513d6000823e601f3d908101601f19168201604052613f3a9190810190615b07565b905060005b8151811015614026576000828281518110613f5c57613f5c614de6565b602002602001015190506000613f7d88836020015163ffffffff16876136cf565b90506000613f8d838d8d85614358565b90508015801590613f9e5750818114155b15613fb057613fad8288614dc0565b96505b8115613fbc5781890398505b826020015163ffffffff16860395508a6001600160a01b03168a8d7f527d1f65cc7cbc5b19926d6b040f10ec7f946968eced5ecf248d2f4f2c28f5f686868661400361222d565b6040516140139493929190615c18565b60405180910390a4505050600101613f3f565b50849350505094509492505050565b6000604051806101400160405280876001600160a01b031681526020018a8152602001866020015165ffffffffffff1681526020018881526020018881526020018660a001516001600160701b03168152602001848152602001856001600160a01b0316815260200160405180602001604052806000815250815260200183815250905060005b88518110156142045760008982815181106140d9576140d9614de6565b60209081029190910181015160408051608080820183528d516001600160a01b031682528d85015160ff16828601528d83015163ffffffff1682840152938301805160608301529387015281015161010086015280518b519251919350600092614142926122fd565b825160405163099bfcc360e11b81529192506001600160a01b031690631337f986908390614174908890600401615cdc565b6000604051808303818588803b15801561418d57600080fd5b505af11580156141a1573d6000803e3d6000fd5b505050505081600001516001600160a01b03167fb1ed2cd5f80d2005b57f16c4c1a1c8ee500b96725924cad83e44f32f05f400c08584602001516141e361222d565b6040516141f293929190615cef565b60405180910390a250506001016140bc565b50505050505050505050565b604080516001600160a01b038416602482015260448082018490528251808303909101815260649091019091526020810180516001600160e01b031663095ea7b360e01b179052614261848261445c565b611de9576040516001600160a01b0384811660248301526000604483015261429691869182169063095ea7b3906064016138f8565b611de984825b600080602060008451602086016000885af1806142bf576040513d6000823e3d81fd5b50506000513d915081156142d75780600114156142e4565b6001600160a01b0384163b155b15611de957604051635274afe760e01b81526001600160a01b0385166004820152602401610a1e565b60608282036040519150602081830101604052808252508260208501016020820160005b84811015610998578281015182820152602001614331565b600061099c83836103e86136cf565b600030634ff513ab8686868661436c61222d565b6040518663ffffffff1660e01b815260040161438c959493929190615d22565b6020604051808303816000875af19250505080156143c7575060408051601f3d908101601f191682019092526143c4918101906151a0565b60015b614455573d8080156143f5576040519150601f19603f3d011682016040523d82523d6000602084013e6143fa565b606091505b50847f7d1404acd9b8028cb88963a50aeeb83774d101e993a7fd89967afbc2d94c33fb87858461442861222d565b6040516144389493929190615d61565b60405180910390a261444b858585613e0c565b6000915050611aa2565b9050611aa2565b6000806000806020600086516020880160008a5af192503d915060005190508280156144a15750811561449257806001146144a1565b6000866001600160a01b03163b115b9695505050505050565b6040805161012081018252600080825260208201819052918101829052606081018290526080810182905260a0810182905260c0810182905260e0810182905261010081019190915290565b60006020828403121561450957600080fd5b81356001600160e01b03198116811461099c57600080fd5b6001600160a01b038116811461453657600080fd5b50565b60008060006060848603121561454e57600080fd5b83359250602084013561456081614521565b929592945050506040919091013590565b602080825282518282018190526000919060409081850190868401855b828110156145ce57815180518552868101516001600160a01b03168786015285015165ffffffffffff16858501526060909301929085019060010161458e565b5091979650505050505050565b60008083601f8401126145ed57600080fd5b5081356001600160401b0381111561460457600080fd5b602083019150836020828501011115613b1657600080fd5b60008060008060008060008060e0898b03121561463857600080fd5b883561464381614521565b97506020890135965060408901359550606089013561466181614521565b94506080890135935060a089013561467881614521565b925060c08901356001600160401b0381111561469357600080fd5b61469f8b828c016145db565b999c989b5096995094979396929594505050565b6000806000604084860312156146c857600080fd5b8335925060208401356001600160401b03808211156146e657600080fd5b818601915086601f8301126146fa57600080fd5b81358181111561470957600080fd5b87602060608302850101111561471e57600080fd5b6020830194508093505050509250925092565b6000806040838503121561474457600080fd5b82359150602083013561475681614521565b809150509250929050565b80516001600160a01b0316825260208082015160ff169083015260409081015163ffffffff16910152565b606081016107c28284614761565b60008060008060008587036101408112156147b457600080fd5b60c08112156147c257600080fd5b5085945060c0860135935060e08601356147db81614521565b925061010086013591506101208601356147f481614521565b809150509295509295909350565b60006020828403121561481457600080fd5b5035919050565b60008151808452602080850194506020840160005b8381101561485657614843878351614761565b6060969096019590820190600101614830565b509495945050505050565b60208152600061099c602083018461481b565b60006020828403121561488657600080fd5b813561099c81614521565b600080600080600060a086880312156148a957600080fd5b8535945060208601356148bb81614521565b93506040860135925060608601356148d281614521565b915060808601356147f481614521565b60008060008060008060008060006101008a8c03121561490157600080fd5b8935985060208a013561491381614521565b975060408a0135965060608a0135955060808a0135945060a08a013561493881614521565b935060c08a013561494881614521565b925060e08a01356001600160401b0381111561496357600080fd5b61496f8c828d016145db565b915080935050809150509295985092959850929598565b801515811461453657600080fd5b60008060008060008060008060c0898b0312156149b057600080fd5b8835975060208901356149c281614521565b96506040890135955060608901356149d981614986565b945060808901356001600160401b03808211156149f557600080fd5b614a018c838d016145db565b909650945060a08b0135915080821115614a1a57600080fd5b5061469f8b828c016145db565b600080600080600060a08688031215614a3f57600080fd5b853594506020860135614a5181614521565b94979496505050506040830135926060810135926080909101359150565b600080600060608486031215614a8457600080fd5b833592506020840135614a9681614521565b91506040840135614aa681614521565b809150509250925092565b634e487b7160e01b600052604160045260246000fd5b604051606081016001600160401b0381118282101715614ae957614ae9614ab1565b60405290565b60405161012081016001600160401b0381118282101715614ae957614ae9614ab1565b60405160c081016001600160401b0381118282101715614ae957614ae9614ab1565b60405160a081016001600160401b0381118282101715614ae957614ae9614ab1565b604051601f8201601f191681016001600160401b0381118282101715614b7e57614b7e614ab1565b604052919050565b60006001600160401b03821115614b9f57614b9f614ab1565b5060051b60200190565b60ff8116811461453657600080fd5b63ffffffff8116811461453657600080fd5b600060608284031215614bdc57600080fd5b614be4614ac7565b90508135614bf181614521565b81526020820135614c0181614ba9565b60208201526040820135614c1481614bb8565b604082015292915050565b60008060008060808587031215614c3557600080fd5b843593506020808601356001600160401b03811115614c5357600080fd5b8601601f81018813614c6457600080fd5b8035614c77614c7282614b86565b614b56565b80828252602082019150606060206060850286010193508b841115614c9b57600080fd5b6020850194505b83851015614cc357614cb48c86614bca565b83529384019391850191614ca2565b50979a97995050505060408601359560600135949350505050565b600080600060608486031215614cf357600080fd5b8335614cfe81614521565b9250602084013561456081614521565b600080600080600080600080600060e08a8c031215614d2c57600080fd5b8935985060208a0135614d3e81614521565b975060408a0135965060608a0135614d5581614521565b955060808a0135945060a08a01356001600160401b0380821115614d7857600080fd5b614d848d838e016145db565b909650945060c08c0135915080821115614d9d57600080fd5b5061496f8c828d016145db565b634e487b7160e01b600052601160045260246000fd5b808201808211156107c2576107c2614daa565b818103818111156107c2576107c2614daa565b634e487b7160e01b600052603260045260246000fd5b65ffffffffffff8116811461453657600080fd5b8051614e1b81614dfc565b919050565b8051614e1b81614bb8565b80516001600160701b0381168114614e1b57600080fd5b8051614e1b81614521565b60006101208284031215614e6057600080fd5b614e68614aef565b9050614e7382614e10565b8152614e8160208301614e10565b6020820152614e9260408301614e10565b6040820152614ea360608301614e10565b6060820152614eb460808301614e20565b6080820152614ec560a08301614e2b565b60a0820152614ed660c08301614e20565b60c0820152614ee760e08301614e42565b60e082015261010080830151818301525092915050565b60006101208284031215614f1157600080fd5b61099c8383614e4d565b600060608284031215614f2d57600080fd5b61099c8383614bca565b600060208284031215614f4957600080fd5b815161099c81614986565b600060208284031215614f6657600080fd5b815161099c81614ba9565b60808101614fa58285546001600160a01b038116825260a081901c60ff16602083015260a81c63ffffffff16604090910152565b6001600160a01b039290921660609190910152919050565b66ffffffffffffff8116811461453657600080fd5b600060c08284031215614fe457600080fd5b614fec614b12565b8235614ff781614986565b8152602083013561500781614bb8565b6020820152604083013561501a81614fbd565b6040820152606083013561502d81614521565b6060820152608083013561504081614dfc565b608082015260a083013561505381614521565b60a08201529392505050565b80511515825260208082015163ffffffff169083015260408082015166ffffffffffffff16908301526060808201516001600160a01b039081169184019190915260808083015165ffffffffffff169084015260a09182015116910152565b81516001600160a01b031681526020808301519082015260408083015190820152606080830151908201526080808301519082015260a08281015161016083019161510b9084018261505f565b5092915050565b60006020828403121561512457600080fd5b813561099c81614fbd565b60006020828403121561514157600080fd5b813561099c81614986565b60006060828403121561515e57600080fd5b615166614ac7565b825161517181614521565b8152602083015161518181614ba9565b6020820152604083015161519481614bb8565b60408201529392505050565b6000602082840312156151b257600080fd5b5051919050565b60005b838110156151d45781810151838201526020016151bc565b50506000910152565b600081518084526151f58160208601602086016151b9565b601f01601f19169290920160200192915050565b85815260018060a01b0385166020820152836040820152821515606082015260c06080820152600060c082015260e060a0820152600061524c60e08301846151dd565b979650505050505050565b60018060a01b038616815284602082015260a06040820152600061527e60a083018661481b565b606083019490945250608001529392505050565b6001600160a01b0387168152602081018690526040810185905260006101006152be6060840187614761565b8060c08401526152d08184018661481b565b905082810360e08401526114b781856151dd565b600082601f8301126152f557600080fd5b81516001600160401b0381111561530e5761530e614ab1565b615321601f8201601f1916602001614b56565b81815284602083860101111561533657600080fd5b611aa28260208301602087016151b9565b600080600080610180858703121561535e57600080fd5b6153688686614e4d565b9350610120850151925061014085015191506101608501516001600160401b038082111561539557600080fd5b818701915087601f8301126153a957600080fd5b81516153b7614c7282614b86565b8082825260208201915060208360051b86010192508a8311156153d957600080fd5b602085015b83811015615463578051858111156153f557600080fd5b86016060818e03601f1901121561540b57600080fd5b615413614ac7565b602082015161542181614521565b81526040820151602082015260608201518781111561543f57600080fd5b61544e8f6020838601016152e4565b604083015250845250602092830192016153de565b50979a9699509497505050505050565b600060018060a01b03808a168352808916602084015287604084015286606084015285608084015260e060a08401526154af60e08401866151dd565b915080841660c08401525098975050505050505050565b6000602082840312156154d857600080fd5b815161099c81614521565b868152600060018060a01b03808816602084015286604084015280861660608401525083608083015260e060a0830152600060e08301526101008060c08401526114b7818401856151dd565b84815260c081016155696020830186546001600160a01b038116825260a081901c60ff16602083015260a81c63ffffffff16604090910152565b608082019390935260a0015292915050565b600080610140838503121561558f57600080fd5b6155998484614e4d565b915061012083015190509250929050565b6000602082840312156155bc57600080fd5b81516001600160401b03808211156155d357600080fd5b9083019060a082860312156155e757600080fd5b6155ef614b34565b82518152602083015161560181614521565b6020820152604083015161561481614dfc565b6040820152606083015161562781614dfc565b606082015260808301518281111561563e57600080fd5b61564a878286016152e4565b60808301525095945050505050565b600061010060018060a01b0380871684528551818151166020860152816020820151166040860152604081015165ffffffffffff80821660608801528060608401511660808801525050508060208701511660a085015250604085015160c08401528060e08401526144a1818401856151dd565b85815284602082015260a0604082015260006156ec60a08301866151dd565b82810360608401526156fe81866151dd565b91505060018060a01b03831660808301529695505050505050565b600060018060a01b038088168352808716602084015285604084015260a0606084015261574960a08401866151dd565b91508084166080840152509695505050505050565b83815260606020820152600061577760608301856151dd565b905060018060a01b0383166040830152949350505050565b80516001600160a01b0316825260208082015160ff169083015260408082015163ffffffff1690830152606090810151910152565b6001600160a01b038681168252600090610100906157e5602085018961578f565b8660a085015280861660c0850152508060e0840152610a27818401856151dd565b6000806000610160848603121561581c57600080fd5b6158268585614e4d565b925061012084015191506101408401516001600160401b038082111561584b57600080fd5b818601915086601f83011261585f57600080fd5b8151602061586f614c7283614b86565b82815260059290921b8401810191818101908a84111561588e57600080fd5b8286015b84811015615914578051868111156158a957600080fd5b87016060818e03601f190112156158bf57600080fd5b6158c7614ac7565b858201516158d481614521565b81526040820151868201526060820151888111156158f25760008081fd5b6159008f88838601016152e4565b604083015250845250918301918301615892565b508096505050505050509250925092565b600060018060a01b03808a168352808916602084015287604084015286606084015260e0608084015261595b60e08401876151dd565b83810360a085015261596d81876151dd565b92505080841660c08401525098975050505050505050565b80516001600160a01b03168252600061020060208301516020850152604083015160408501526060830151606085015260808301516159c7608086018261578f565b5060a08301516101006159dc8187018361578f565b60c085015161018087015260e08501516001600160a01b03166101a08701528401516101c086018390529050615a14828601826151dd565b9150506101208301518482036101e086015261131c82826151dd565b60208152600061099c6020830184615985565b608081526000615a566080830187615985565b60208301959095525060408101929092526001600160a01b0316606090910152919050565b60008085851115615a8b57600080fd5b83861115615a9857600080fd5b5050820193919092039150565b6bffffffffffffffffffffffff198135818116916014851015615ad25780818660140360031b1b83161692505b505092915050565b634e487b7160e01b600052601260045260246000fd5b80820281158282048414176107c2576107c2614daa565b60006020808385031215615b1a57600080fd5b82516001600160401b03811115615b3057600080fd5b8301601f81018513615b4157600080fd5b8051615b4f614c7282614b86565b81815260c09182028301840191848201919088841115615b6e57600080fd5b938501935b83851015615c0c5780858a031215615b8b5760008081fd5b615b93614b12565b8551615b9e81614986565b815285870151615bad81614bb8565b81880152604086810151615bc081614fbd565b90820152606086810151615bd381614521565b90820152608086810151615be681614dfc565b9082015260a086810151615bf981614521565b9082015283529384019391850191615b73565b50979650505050505050565b6101208101615c27828761505f565b60c082019490945260e08101929092526001600160a01b031661010090910152919050565b80516001600160a01b03168252600061020060208301516020850152604083015160408501526060830151615c84606086018261578f565b506080830151615c9760e086018261578f565b5060a083015161016085015260c083015161018085015260e08301516001600160a01b03166101a08501526101008301516101c08501829052615a14828601826151dd565b60208152600061099c6020830184615c4c565b606081526000615d026060830186615c4c565b6020830194909452506001600160a01b0391909116604090910152919050565b6101408101615d31828861505f565b60c08201959095526001600160a01b0393841660e082015261010081019290925290911661012090910152919050565b6000610120615d70838861505f565b8560c08401528060e0840152615d88818401866151dd565b91505060018060a01b0383166101008301529594505050505056fea26469706673582212200665445b78dcf63dba37bccb72b9c4f444d9ec12408fa5b61634dbae7c94815e64736f6c63430008170033",
	"deployedBytecode": "0x6080604052600436106101b75760003560e01c80636afdd850116100ec578063d4a1b4b11161008a578063edb4095011610064578063edb409501461064d578063f434c9141461066d578063fdebc62a146106a1578063fef43257146106c157600080fd5b8063d4a1b4b1146105d9578063ddb4389e1461060d578063e28b54111461062d57600080fd5b806388bc2ef3116100c657806388bc2ef31461055d5780639e6eec0514610591578063c57981b5146105a4578063cfaf5839146105b957600080fd5b80636afdd850146104d6578063748e821c1461050a5780637da0a8771461052a57600080fd5b80633a01714f11610159578063515a929311610133578063515a929314610408578063572b6c05146104355780635f912e5614610482578063659a2047146104a257600080fd5b80633a01714f146103225780634ff513ab146103b4578063507f1465146103d457600080fd5b80631d831d5c116101955780631d831d5c1461024c5780631f47ce6914610298578063253721c8146102cc578063293c4999146102ee57600080fd5b806301ffc9a7146101bc57806304a83d7f146101f157806313da83171461021e575b600080fd5b3480156101c857600080fd5b506101dc6101d73660046144f7565b6106d4565b60405190151581526020015b60405180910390f35b3480156101fd57600080fd5b5061021161020c366004614539565b6107c8565b6040516101e89190614571565b34801561022a57600080fd5b5061023e61023936600461461c565b6109a3565b6040519081526020016101e8565b34801561025857600080fd5b506102807f00000000000000000000000094db7c71d9e4bcde99686be9570c68bf12708d3e81565b6040516001600160a01b0390911681526020016101e8565b3480156102a457600080fd5b506102807f00000000000000000000000053a4354b7c6f83b0b2b7d559451a5180a410ab2581565b3480156102d857600080fd5b506102ec6102e73660046146b3565b610a33565b005b3480156102fa57600080fd5b506102807f0000000000000000000000009b52a59f108e36ce0a8eba595eca22dbadbe655f81565b34801561032e57600080fd5b506103a761033d366004614731565b6040805160608082018352600080835260208084018290529284018190529485528482528285206001600160a01b03948516865282529382902082519485018352549283168452600160a01b830460ff1690840152600160a81b90910463ffffffff169082015290565b6040516101e8919061478c565b3480156103c057600080fd5b5061023e6103cf36600461479a565b610efb565b3480156103e057600080fd5b506102807f000000000000000000000000270ec8711dca04cf5f3fdf10141428065e07194f81565b34801561041457600080fd5b50610428610423366004614802565b611325565b6040516101e89190614861565b34801561044157600080fd5b506101dc610450366004614874565b7f000000000000000000000000b2b5841dbef766d4b521221732f9b618fcf34a876001600160a01b0390811691161490565b34801561048e57600080fd5b506102ec61049d366004614891565b6113bf565b3480156104ae57600080fd5b506102807f000000000000000000000000ab1065bc48c9f7e450411f1cc38c5ccfe5688ab881565b3480156104e257600080fd5b506102807f000000000000000000000000000000000022d473030f116ddee9f6b43ac78ba381565b34801561051657600080fd5b5061023e6105253660046148e2565b61142f565b34801561053657600080fd5b507f000000000000000000000000b2b5841dbef766d4b521221732f9b618fcf34a87610280565b34801561056957600080fd5b506102807f0000000000000000000000005adb234602d074064c216c1fdb23c6c2031f0c7581565b6102ec61059f366004614994565b6114c4565b3480156105b057600080fd5b5061023e601981565b3480156105c557600080fd5b5061023e6105d4366004614a27565b611551565b3480156105e557600080fd5b506102807f000000000000000000000000c052725ff9888ce3148aa8bfb5063f1a5028946d81565b34801561061957600080fd5b506102ec610628366004614539565b61158c565b34801561063957600080fd5b5061023e610648366004614a6f565b61173d565b34801561065957600080fd5b5061023e610668366004614c1f565b611972565b34801561067957600080fd5b506102807f0000000000000000000000004886c30c81a17a3a1084fd1812008fa0f71a20b981565b3480156106ad57600080fd5b506102ec6106bc366004614cde565b611aaa565b61023e6106cf366004614d0e565b611ac7565b60006001600160e01b0319821663279a148b60e01b148061070557506001600160e01b03198216633d0d324560e21b145b8061072057506001600160e01b031982166321c9410760e01b145b8061073b57506001600160e01b031982166313da831760e01b145b8061075657506001600160e01b0319821663bb21da2560e01b145b8061077157506001600160e01b031982166306afdd8560e41b145b8061078c57506001600160e01b0319821663279a148b60e01b145b806107a757506001600160e01b031982166379ffa41360e01b145b806107c257506001600160e01b031982166301ffc9a760e01b145b92915050565b60008381526003602090815260408083206001600160a01b03861680855290835281842054878552600284528285209185529252909120546060919080821061085857604080516000808252602082019092529061084e565b60408051606081018252600080825260208083018290529282015282526000199092019101816108215790505b509250505061099c565b806108638584614dc0565b1115610876576108738282614dd3565b93505b836001600160401b0381111561088e5761088e614ab1565b6040519080825280602002602001820160405280156108d957816020015b60408051606081018252600080825260208083018290529282015282526000199092019101816108ac5790505b50925060005b848110156109985760008781526002602090815260408083206001600160a01b038a16845290915290206109138285614dc0565b8154811061092357610923614de6565b60009182526020918290206040805160608101825260029390930290910180548352600101546001600160a01b03811693830193909352600160a01b90920465ffffffffffff1691810191909152845185908390811061098557610985614de6565b60209081029190910101526001016108df565b5050505b9392505050565b60006109b189896003611cd1565b6109f5898989898888888080601f016020809104026020016040519081016040528093929190818152602001838380828437600092019190915250611def92505050565b905084811015610a27576040516353004fd560e01b815260048101829052602481018690526044015b60405180910390fd5b98975050505050505050565b610a6b610a3f84612150565b846013610a4b826121dd565b6001600160a01b0316610a5c61222d565b6001600160a01b03161461223c565b6040516321d1336160e11b8152600481018490526000907f000000000000000000000000c052725ff9888ce3148aa8bfb5063f1a5028946d6001600160a01b0316906343a266c29060240161012060405180830381865afa158015610ad4573d6000803e3d6000fd5b505050506040513d601f19601f82011682018060405250810190610af89190614efe565b9050806020015165ffffffffffff16600014158015610b235750610100810151604b1c600190811614155b15610b41576040516308034a2d60e21b815260040160405180910390fd5b60005b82811015610ef4576000848483818110610b6057610b60614de6565b905060600201803603810190610b769190614f1b565b60008781526020818152604080832084516001600160a01b03908116855292529091208054929350911615610bcc5780546040516307295c0160e21b81526001600160a01b039091166004820152602401610a1e565b81516000906001600160a01b031661eeee148015610bf25750826020015160ff16601214155b15610bff57506001610d09565b82516001600160a01b031661eeee14610d095782516040516301ffc9a760e01b815263a219a02560e01b60048201526001600160a01b03909116906301ffc9a790602401602060405180830381865afa925050508015610c7c575060408051601f3d908101601f19168201909252610c7991810190614f37565b60015b15610d0957808015610cfd575083600001516001600160a01b031663313ce5676040518163ffffffff1660e01b8152600401602060405180830381865afa158015610ccb573d6000803e3d6000fd5b505050506040513d601f19601f82011682018060405250810190610cef9190614f54565b60ff16846020015160ff1614155b15610d0757600191505b505b8015610d285760405163104a127760e21b815260040160405180910390fd5b826040015163ffffffff16600003610d5357604051633c94d15b60e01b815260040160405180910390fd5b82600001518260000160006101000a8154816001600160a01b0302191690836001600160a01b0316021790555082602001518260000160146101000a81548160ff021916908360ff16021790555082604001518260000160156101000a81548163ffffffff021916908363ffffffff1602179055506001600089815260200190815260200160002082908060018154018082558091505060019003906000526020600020016000909190919091506000820160009054906101000a90046001600160a01b03168160000160006101000a8154816001600160a01b0302191690836001600160a01b031602179055506000820160149054906101000a900460ff168160000160146101000a81548160ff021916908360ff1602179055506000820160159054906101000a900463ffffffff168160000160156101000a81548163ffffffff021916908363ffffffff1602179055505050877fec91efc21eddd12fa66398fea3251c0e0b95bc53f0cdde2cd2c52e94bf11e07883610ed361222d565b604051610ee1929190614f71565b60405180910390a2505050600101610b44565b5050505050565b6000333014610f0957600080fd5b50816000610f1d60c0880160a08901614874565b6001600160a01b03161461111357610f3b60c0870160a08801614874565b6040516301ffc9a760e01b815262dcdc5760e41b60048201526001600160a01b0391909116906301ffc9a790602401602060405180830381865afa158015610f87573d6000803e3d6000fd5b505050506040513d601f19601f82011682018060405250810190610fab9190614f37565b610fe457610fbf60c0870160a08801614874565b6040516347dfdccf60e11b81526001600160a01b039091166004820152602401610a1e565b610ffc610ff760c0880160a08901614874565b61224c565b6110185761100b8360196122db565b6110159082614dd3565b90505b6040805160c0810182526001600160a01b0386168082526020808301859052600089815280825284812083825290915283812054600160a01b900460ff169383019390935260608201889052608082015260a0810161107c368a90038a018a614fd2565b90529050600061109c61109560c08a0160a08b01614874565b87856122fd565b90506110ae60c0890160a08a01614874565b6001600160a01b0316630dcdc57082846040518363ffffffff1660e01b81526004016110da91906150be565b6000604051808303818588803b1580156110f357600080fd5b505af1158015611107573d6000803e3d6000fd5b5050505050505061131c565b6111236060870160408801615112565b66ffffffffffffff16156112b05760006111556111466060890160408a01615112565b66ffffffffffffff1686612337565b90506001600160a01b0381166111a9576111756060880160408901615112565b60405163ea4f4b6160e01b815266ffffffffffffff90911660048201526001600160a01b0386166024820152604401610a1e565b6001600160a01b03811630148015906111c857506111c68161224c565b155b156111e5576111d88460196122db565b6111e29083614dd3565b91505b6000866040516020016111fa91815260200190565b60408051601f198184030181529190529050611219602089018961512f565b15611248576112438261123260608b0160408c01615112565b66ffffffffffffff168886856123cd565b6112a9565b60008061125b60808b0160608c01614874565b6001600160a01b03160361126f578461127f565b61127f60808a0160608b01614874565b90506112a78361129560608c0160408d01615112565b66ffffffffffffff168987858761247f565b505b505061131c565b6000806112c36080890160608a01614874565b6001600160a01b0316036112d757826112e7565b6112e76080880160608901614874565b90506112f28161224c565b61130e576113018460196122db565b61130b9083614dd3565b91505b61131a3082878561253c565b505b95945050505050565b606060016000838152602001908152602001600020805480602002602001604051908101604052809291908181526020016000905b828210156113b457600084815260209081902060408051606081018252918501546001600160a01b0381168352600160a01b810460ff1683850152600160a81b900463ffffffff169082015282526001909201910161135a565b505050509050919050565b3330146113cb57600080fd5b6001600160a01b0381166113f257604051630692dd3560e01b815260040160405180910390fd5b60008560405160200161140791815260200190565b60405160208183030381529060405290506114278260018787878661247f565b505050505050565b600061144561143d8b612150565b8b6010611cd1565b61148a8a8a8a8a898989898080601f0160208091040260200160405190810160405280939291908181526020018383808284376000920191909152506126d692505050565b9050858110156114b7576040516332eb01cf60e21b81526004810182905260248101879052604401610a1e565b9998505050505050505050565b61154788886114d68b8b8b888861285e565b8888888080601f01602080910402602001604051908101604052809392919081815260200183838082843760009201919091525050604080516020601f8c018190048102820181019092528a815292508a9150899081908401838280828437600092019190915250612afb92505050565b5050505050505050565b600061155f86868686612b7a565b90508181101561131c576040516332eb01cf60e21b81526004810182905260248101839052604401610a1e565b60008381526003602090815260408083206001600160a01b03861680855290835281842054878552600284528285209185529252909120548082106115d2575050505050565b60006115df600186612337565b9050816115ec8585614dc0565b11156115ff576115fc8383614dd3565b93505b60005b848110156117035760008781526002602090815260408083206001600160a01b038a16845290915281206116368387614dc0565b8154811061164657611646614de6565b60009182526020918290206040805160608101825260029390930290910180548352600101546001600160a01b03811693830193909352600160a01b90920465ffffffffffff1691810182905291504210156116d9578115611547576116ac8286614dc0565b60008981526003602090815260408083206001600160a01b038c1684529091529020555050505050505050565b6116fa88886116ed846000015160196122db565b8460200151876001612e8e565b50600101611602565b5061170e8484614dc0565b60009687526003602090815260408089206001600160a01b039098168952969052949095209390935550505050565b600061175361174b85612150565b856005611cd1565b604051633a01714f60e01b8152600481018590526001600160a01b038481166024830152831690633a01714f90604401606060405180830381865afa1580156117a0573d6000803e3d6000fd5b505050506040513d601f19601f820116820180604052508101906117c4919061514c565b6040015163ffffffff166000036117ee5760405163aaf52f1f60e01b815260040160405180910390fd5b6040516319781e2360e01b8152600481018590526001600160a01b0384811660248301527f000000000000000000000000270ec8711dca04cf5f3fdf10141428065e07194f16906319781e23906044016020604051808303816000875af115801561185d573d6000803e3d6000fd5b505050506040513d601f19601f8201168201806040525081019061188191906151a0565b9050816001600160a01b0316836001600160a01b0316857ff0aa72bb9c2a07cf43281bfe8c525ba320fdc71e18b54c9f93ab22ce074af7f6846118c261222d565b604080519283526001600160a01b0390911660208301520160405180910390a4801561099c5760006118f58385846122fd565b6040805160208101825260008082529151639e6eec0560e01b81529293506001600160a01b03861692639e6eec05928592611938928b928b928a92600401615209565b6000604051808303818588803b15801561195157600080fd5b505af1158015611965573d6000803e3d6000fd5b5050505050509392505050565b60007f000000000000000000000000270ec8711dca04cf5f3fdf10141428065e07194f6001600160a01b031663d60d1a0930878751600003611a3a57600089815260016020908152604080832080548251818502810185019093528083529193909284015b82821015611a3157600084815260209081902060408051606081018252918501546001600160a01b0381168352600160a01b810460ff1683850152600160a81b900463ffffffff16908201528252600190920191016119d7565b50505050611a3c565b875b87876040518663ffffffff1660e01b8152600401611a5e959493929190615257565b602060405180830381865afa158015611a7b573d6000803e3d6000fd5b505050506040513d601f19601f82011682018060405250810190611a9f91906151a0565b90505b949350505050565b333014611ab657600080fd5b611ac23084848461253c565b505050565b6040516310f0007760e31b81526001600160a01b038781166004830152602482018b905260009182917f00000000000000000000000094db7c71d9e4bcde99686be9570c68bf12708d3e169063878003b890604401602060405180830381865afa158015611b39573d6000803e3d6000fd5b505050506040513d601f19601f82011682018060405250810190611b5d91906151a0565b9050611bea8b8b611b718e8e8e8a8a61285e565b611b7961222d565b8c8b8b8080601f01602080910402602001604051908101604052809392919081815260200183838082843760009201919091525050604080516020601f8f018190048102820181019092528d815292508d91508c9081908401838280828437600092019190915250612ffb92505050565b6040516310f0007760e31b81526001600160a01b038981166004830152602482018d90526000917f00000000000000000000000094db7c71d9e4bcde99686be9570c68bf12708d3e9091169063878003b890604401602060405180830381865afa158015611c5c573d6000803e3d6000fd5b505050506040513d601f19601f82011682018060405250810190611c8091906151a0565b905081811115611c9757611c948282614dd3565b92505b87831015611cc25760405163c3de539b60e01b81526004810184905260248101899052604401610a1e565b50509998505050505050505050565b6000611cdb61222d565b9050836001600160a01b0316816001600160a01b031614158015611daa5750604051631a45b42760e11b81526001600160a01b0382811660048301528581166024830152604482018590526064820184905260016084830181905260a48301527f0000000000000000000000004886c30c81a17a3a1084fd1812008fa0f71a20b9169063348b684e9060c401602060405180830381865afa158015611d84573d6000803e3d6000fd5b505050506040513d601f19601f82011682018060405250810190611da89190614f37565b155b15611de957604051631326f75560e11b81526001600160a01b038086166004830152821660248201526044810184905260648101839052608401610a1e565b50505050565b6000611df96144ab565b6000878152602081815260408083206001600160a01b03898116855290835281842082516060808201855291549283168152600160a01b830460ff1681860152600160a81b90920463ffffffff16828401528b855260018452828520805484518187028101870190955280855291959492938593909290849084015b82821015611ecf57600084815260209081902060408051606081018252918501546001600160a01b0381168352600160a01b810460ff1683850152600160a81b900463ffffffff1690820152825260019092019101611e75565b5050604051633277b1a160e01b8152929350506001600160a01b037f000000000000000000000000270ec8711dca04cf5f3fdf10141428065e07194f1691633277b1a19150611f2c908f908f908f90889088908f90600401615292565b6000604051808303816000875af1158015611f4b573d6000803e3d6000fd5b505050506040513d6000823e601f3d908101601f19168201604052611f739190810190615347565b9198509196509450925050881561200757611f8d8a6121dd565b60405163516a997360e11b81526001600160a01b038d81166004830152602482018d9052604482018c90526080606483015260006084830152919091169063a2d532e69060a401600060405180830381600087803b158015611fee57600080fd5b505af1158015612002573d6000803e3d6000fd5b505050505b6000851561205f576120188861224c565b15801561202457508215155b1561204d576120338682614dc0565b90506120408660196122db565b61204a9087614dd3565b95505b851561205f5761205f30898b8961253c565b8351156120be576120b18b60405180608001604052808c6001600160a01b03168152602001856020015160ff168152602001856040015163ffffffff168152602001898152508e8d8b8a898f8c6132ea565b6120bb9082614dc0565b90505b806000036120cd5760006120db565b6120db8b8a838b600061351c565b508a856000015165ffffffffffff16866020015165ffffffffffff167ffaf1d4bf1b08470c7ed8c351c5065f51af70b36b237723173f898453b97241428f8c8f898d8f61212661222d565b6040516121399796959493929190615473565b60405180910390a450505050509695505050505050565b6040516331a9108f60e11b8152600481018290526000907f0000000000000000000000009b52a59f108e36ce0a8eba595eca22dbadbe655f6001600160a01b031690636352211e906024015b602060405180830381865afa1580156121b9573d6000803e3d6000fd5b505050506040513d601f19601f820116820180604052508101906107c291906154c6565b604051632eec7b5560e11b8152600481018290526000907f0000000000000000000000005adb234602d074064c216c1fdb23c6c2031f0c756001600160a01b031690635dd8f6aa9060240161219c565b600061223761365a565b905090565b80611de957611de9848484611cd1565b60405163ae74a1b560e01b81526001600160a01b0382811660048301526000917f000000000000000000000000ab1065bc48c9f7e450411f1cc38c5ccfe5688ab89091169063ae74a1b590602401602060405180830381865afa1580156122b7573d6000803e3d6000fd5b505050506040513d601f19601f820116820180604052508101906107c29190614f37565b60006122f3836103e86122ee8186614dc0565b6136cf565b61099c9084614dd3565b600061eeed196001600160a01b0384160161231957508061099c565b61232d6001600160a01b03841685846137a3565b5060009392505050565b604051630862026560e41b8152600481018390526001600160a01b0382811660248301526000917f0000000000000000000000005adb234602d074064c216c1fdb23c6c2031f0c7590911690638620265090604401602060405180830381865afa1580156123a9573d6000803e3d6000fd5b505050506040513d601f19601f8201168201806040525081019061099c91906154c6565b306001600160a01b03861603612400576123fb84848460006040518060200160405280600081525086612afb565b610ef4565b600061240d8685856122fd565b9050856001600160a01b0316639e6eec05828787876000886040518763ffffffff1660e01b8152600401612445959493929190615209565b6000604051808303818588803b15801561245e57600080fd5b505af1158015612472573d6000803e3d6000fd5b5050505050505050505050565b306001600160a01b038716036124b2576124ad85858530866040518060200160405280600081525087612ffb565b611427565b60006124bf8786866122fd565b9050866001600160a01b031663fef4325782888888886000896040518863ffffffff1660e01b81526004016124f9969594939291906154e3565b60206040518083038185885af1158015612517573d6000803e3d6000fd5b50505050506040513d601f19601f8201168201806040525081019061154791906151a0565b61eeed196001600160a01b0383160161255e57612559838261382d565b611de9565b306001600160a01b03851603612582576125596001600160a01b03831684836138cb565b604051636eb1769f60e11b81526001600160a01b03858116600483015230602483015282919084169063dd62ed3e90604401602060405180830381865afa1580156125d1573d6000803e3d6000fd5b505050506040513d601f19601f820116820180604052508101906125f591906151a0565b1061260f576125596001600160a01b03831685858461392a565b6001600160a01b0381111561264757604051631999bf2f60e11b8152600481018290526001600160a01b036024820152604401610a1e565b604051631b63c28b60e11b81526001600160a01b0385811660048301528481166024830152828116604483015283811660648301527f000000000000000000000000000000000022d473030f116ddee9f6b43ac78ba316906336c7851690608401600060405180830381600087803b1580156126c257600080fd5b505af1158015611547573d6000803e3d6000fd5b60006126e06144ab565b6000898152602081815260408083206001600160a01b038c811685529252808320905163060f2bdf60e31b81527f000000000000000000000000270ec8711dca04cf5f3fdf10141428065e07194f909216916330795ef89161274b918e91908d908d9060040161552f565b610140604051808303816000875af115801561276b573d6000803e3d6000fd5b505050506040513d601f19601f8201168201806040525081019061278f919061557b565b909250905061279f610ff761222d565b6127cb576127c68a8a83886127c18761010001516001604e9190911c81161490565b61351c565b6127ce565b60005b6127d89082614dd3565b925089826000015165ffffffffffff16836020015165ffffffffffff167fd836655d29bc0376acd403e1e5a574fc237f820c4717dd006e0c087dfafda56c89898d878a8c61282461222d565b6040516128379796959493929190615473565b60405180910390a482156128515761285130878b8661253c565b5050979650505050505050565b6000858152602081815260408083206001600160a01b0388811685529252822054166128a85760405163765b60eb60e11b81526001600160a01b0386166004820152602401610a1e565b61eeed196001600160a01b038616016128c257503461131c565b34156128e357604051633ad385fd60e01b8152346004820152602401610a1e565b60008061294d612911604051806040016040528060078152602001663832b936b4ba1960c91b815250613963565b86868080601f01602080910402602001604051908101604052809392919081815260200183838082843760009201919091525061397792505050565b915091508115612ac75760008180602001905181019061296d91906155aa565b905080602001516001600160a01b03168711156129b55760208101516040516363f4ca5d60e11b8152600481018990526001600160a01b039091166024820152604401610a1e565b6040805160e0810182526001600160a01b03808b166060808401918252602086810151841660808601528686015165ffffffffffff90811660a08701529187015190911660c08501529083523090830152835192820192909252907f000000000000000000000000000000000022d473030f116ddee9f6b43ac78ba316632b67b570612a3f61222d565b8385608001516040518463ffffffff1660e01b8152600401612a6393929190615659565b600060405180830381600087803b158015612a7d57600080fd5b505af1925050508015612a8e575060015b612ac4573d808015612abc576040519150601f19603f3d011682016040523d82523d6000602084013e612ac1565b606091505b50505b50505b6000612ad288613b1d565b9050612ae7612adf61222d565b308a8a61253c565b80612af189613b1d565b6114b79190614dd3565b600083612b09576000612b14565b612b14878787613ba5565b9050867f9ecaf7fc3dfffd6867c175d6e684b1f1e3aef019398ba8db2c1ffab4a09db25386838686612b4461222d565b604051612b559594939291906156cd565b60405180910390a2612b718787612b6c8489614dc0565b613e0c565b50505050505050565b6000612b846144ab565b6000868152602081815260408083206001600160a01b038981168552925291829020915163181241e760e31b81527f000000000000000000000000270ec8711dca04cf5f3fdf10141428065e07194f9091169163c0920f3891612bef918a918990899060040161552f565b610140604051808303816000875af1158015612c0f573d6000803e3d6000fd5b505050506040513d601f19601f82011682018060405250810190612c33919061557b565b925090506000612c4287612150565b610100830151909150604d1c600190811603612c6457612c6481886004611cd1565b600080612c7f8989866020015165ffffffffffff1688613e91565b9150915081600014612dd7576000612c968461224c565b612caa57612ca58360196122db565b612cad565b60005b90503063fdebc62a858b612cc18588614dd3565b6040516001600160e01b031960e086901b1681526001600160a01b0393841660048201529290911660248301526044820152606401600060405180830381600087803b158015612d1057600080fd5b505af1925050508015612d21575060015b612db6573d808015612d4f576040519150601f19603f3d011682016040523d82523d6000602084013e612d54565b606091505b508a7f64b44e4e3e05c8f28c2e2f72441bea0712781cbab310066f2729067ab2735021868c612d838689614dd3565b85612d8c61222d565b604051612d9d959493929190615719565b60405180910390a2612db08b8b86613e0c565b50612dd5565b8015612dd557612dc68383614dc0565b9150612dd28184614dd3565b92505b505b6000612df78a8a84876127c18a61010001516001604e9190911c81161490565b905089856000015165ffffffffffff16866020015165ffffffffffff167fda42c5c18ef97738d10c32811895add569670a6fcbe9627ea198d446f3be6dea878c8b878a612e4261222d565b604080516001600160a01b03978816815260208101969096528501939093526060840191909152608083015290911660a082015260c00160405180910390a45050505050949350505050565b604051632fc8972b60e11b8152600481018790526001600160a01b038087166024830152604482018690528085166064830152831660848201523090635f912e569060a401600060405180830381600087803b158015612eed57600080fd5b505af1925050508015612efe575060015b612f92573d808015612f2c576040519150601f19603f3d011682016040523d82523d6000602084013e612f31565b606091505b506001866001600160a01b0316887f4b73f3c5cfb174c9d0494138d07ff8ee3aa400df46327d9893ed5ac122dd558a8885612f6a61222d565b604051612f799392919061575e565b60405180910390a4612f8c878787613e0c565b50611427565b83856001600160a01b0316877fb514e730b3f8ad3aa94b6857bcc5ff4a46954bdcf8c4b0346705b1d0ac7a43258487612fc961222d565b6040805193151584526001600160a01b03928316602085015291169082015260600160405180910390a4505050505050565b60408051608081018252600080825260208201819052918101829052606081019190915260008060008a81526020019081526020016000206000896001600160a01b03166001600160a01b031681526020019081526020016000206040518060600160405290816000820160009054906101000a90046001600160a01b03166001600160a01b03166001600160a01b031681526020016000820160149054906101000a900460ff1660ff1660ff1681526020016000820160159054906101000a900463ffffffff1663ffffffff1663ffffffff168152505090506040518060800160405280896001600160a01b03168152602001826020015160ff168152602001826040015163ffffffff1681526020018881525091505060008060007f000000000000000000000000270ec8711dca04cf5f3fdf10141428065e07194f6001600160a01b031663c59dfadb89868e8b8a6040518663ffffffff1660e01b815260040161316c9594939291906157c4565b6000604051808303816000875af115801561318b573d6000803e3d6000fd5b505050506040513d6000823e601f3d908101601f191682016040526131b39190810190615806565b925092509250600082600014613260576131cc8c6121dd565b6040516363fdc96f60e11b8152600481018e9052602481018590526001600160a01b038a8116604483015260a06064830152600060a483015260016084830152919091169063c7fb92de9060c4016020604051808303816000875af1158015613239573d6000803e3d6000fd5b505050506040513d601f19601f8201168201806040525081019061325d91906151a0565b90505b8b846000015165ffffffffffff16856020015165ffffffffffff167f133161f1c9161488f777ab9a26aae91d47c0d9a3fafb398960f138db02c737978c8c8f878e8e6132aa61222d565b6040516132bd9796959493929190615925565b60405180910390a48151156132dc576132dc8c83878c888d878d614035565b505050505050505050505050565b6000806040518061014001604052808a6001600160a01b031681526020018c8152602001876020015165ffffffffffff1681526020018981526020018b81526020018b8152602001868152602001856001600160a01b0316815260200160405180602001604052806000815250815260200188815250905060005b8351811015611cc257600084828151811061338257613382614de6565b60200260200101519050600061339b826000015161224c565b6133b3576133ae826020015160196122db565b6133b6565b60005b905080156133e55760208201516133cd9086614dc0565b945080826020018181516133e19190614dd3565b9052505b60405180608001604052808e600001516001600160a01b031681526020018e6020015160ff1681526020018e6040015163ffffffff16815260200183602001518152508460a001819052508160400151846101000181905250600061345783600001518f6000015185602001516122fd565b835160405163611481d960e11b81529192506001600160a01b03169063c22903b2908390613489908990600401615a30565b6000604051808303818588803b1580156134a257600080fd5b505af11580156134b6573d6000803e3d6000fd5b505050505082600001516001600160a01b03167fcf8b519514967a394374844411e77f7b1aab68299a65fa6d3593a4f30deaec35868560200151856134f961222d565b6040516135099493929190615a43565b60405180910390a2505050600101613365565b60006135298460196122db565b9050811561363c5760008681526002602090815260408083206001600160a01b03808a16855290835292819020815160608101835288815293871692840192909252909190810161357d6224ea0042614dc0565b65ffffffffffff908116909152825460018181018555600094855260209485902084516002909302019182559383015193018054604090930151909116600160a01b026001600160d01b03199092166001600160a01b039384161791909117905584908616877fef9cd8fc3b61b64b44042ada0a8a3ede1649bc1b112673da228120f13bf1381e60198761360f61222d565b604080519384526001600160a01b03928316602085015291169082015260600160405180910390a461131c565b6000613649600187612337565b905061131a87878487856000612e8e565b6000366014336001600160a01b037f000000000000000000000000b2b5841dbef766d4b521221732f9b618fcf34a87161480156136975750808210155b156136c7576000366136a98385614dd3565b6136b4928290615a7b565b6136bd91615aa5565b60601c9250505090565b339250505090565b6000808060001985870985870292508281108382030391505080600003613709578382816136ff576136ff615ada565b049250505061099c565b83811061373a57604051630c740aef60e31b8152600481018790526024810186905260448101859052606401610a1e565b60008486880960026001871981018816978890046003810283188082028403028082028403028082028403028082028403028082028403029081029092039091026000889003889004909101858311909403939093029303949094049190911702949350505050565b604051636eb1769f60e11b81523060048201526001600160a01b0383811660248301526000919085169063dd62ed3e90604401602060405180830381865afa1580156137f3573d6000803e3d6000fd5b505050506040513d601f19601f8201168201806040525081019061381791906151a0565b9050611de984846138288585614dc0565b614210565b804710156138575760405163cf47918160e01b815247600482015260248101829052604401610a1e565b6000826001600160a01b03168260405160006040518083038185875af1925050503d80600081146138a4576040519150601f19603f3d011682016040523d82523d6000602084013e6138a9565b606091505b5050905080611ac25760405163d6bda27560e01b815260040160405180910390fd5b6040516001600160a01b03838116602483015260448201839052611ac291859182169063a9059cbb906064015b604051602081830303815290604052915060e01b6020820180516001600160e01b03838183161783525050505061429c565b6040516001600160a01b038481166024830152838116604483015260648201839052611de99186918216906323b872dd906084016138f8565b805160208201206000903060601b186107c2565b60006060602583511161399c5750506040805160208101909152600080825290613b16565b6000836139ab60046020614dc0565b815181106139bb576139bb614de6565b0160209081015160f81c91505b6000856139d6600484614dc0565b815181106139e6576139e6614de6565b01602001516001600160f81b03191614801590613a0c5750613a09602083615af0565b81105b15613b1357600085613a1f600484614dc0565b81518110613a2f57613a2f614de6565b016020908101518784019091015160f89190911c91506001600160e01b031980891690821603613b09576000613a66602086615af0565b613a71600986614dc0565b101580613aa6575087613a85600986614dc0565b81518110613a9557613a95614de6565b01602001516001600160f81b031916155b613adf57602088613ab8600987614dc0565b81518110613ac857613ac8614de6565b0160200151613ada919060f81c615af0565b613ae2565b87515b90506001613afb89613af5602087615af0565b8461430d565b965096505050505050613b16565b50506005016139c8565b50505b9250929050565b60006001600160a01b03821661eeee14613b9e576040516370a0823160e01b81523060048201526001600160a01b038316906370a0823190602401602060405180830381865afa158015613b75573d6000803e3d6000fd5b505050506040513d601f19601f82011682018060405250810190613b9991906151a0565b6107c2565b4792915050565b60008381526003602090815260408083206001600160a01b03861680855290835281842054878552600284528285209185529252822054808210613bee5760009250505061099c565b836000613bfb8484614dd3565b90508360005b82811015613d745760008a81526002602090815260408083206001600160a01b038d1684529091528120613c358389614dc0565b81548110613c4557613c45614de6565b600091825260208083206040805160608101825260029490940290910180548452600101546001600160a01b03811692840192909252600160a01b90910465ffffffffffff16908201529150859003613c9e5750613d74565b6000613caf826000015160196122db565b90506000818360000151613cc39190614dd3565b9050808710613cf157988101989586900395613cdf848a614dc0565b613cea906001614dc0565b9450613d69565b613cfc876019614349565b9150818701600260008f815260200190815260200160002060008e6001600160a01b03166001600160a01b03168152602001908152602001600020858b0181548110613d4a57613d4a614de6565b6000918252602082206002909102018054929092039091559982019996505b505050600101613c01565b50808514613da25760008981526003602090815260408083206001600160a01b038c16845290915290208190555b86886001600160a01b03168a7fedc5125503c021a73fd7d8ed0c2456b296be2c88f39fbed068bd091cef7ca43d8987613dd961222d565b6040805193845260208401929092526001600160a01b03169082015260600160405180910390a450505050509392505050565b6040516351fc173560e01b8152600481018490526001600160a01b038381166024830152604482018390527f000000000000000000000000270ec8711dca04cf5f3fdf10141428065e07194f16906351fc173590606401600060405180830381600087803b158015613e7d57600080fd5b505af1158015612b71573d6000803e3d6000fd5b6040516369e11cc560e01b815260048101859052602481018390526001600160a01b0384811660448301526000918291633b9aca009183917f00000000000000000000000053a4354b7c6f83b0b2b7d559451a5180a410ab2516906369e11cc590606401600060405180830381865afa158015613f12573d6000803e3d6000fd5b505050506040513d6000823e601f3d908101601f19168201604052613f3a9190810190615b07565b905060005b8151811015614026576000828281518110613f5c57613f5c614de6565b602002602001015190506000613f7d88836020015163ffffffff16876136cf565b90506000613f8d838d8d85614358565b90508015801590613f9e5750818114155b15613fb057613fad8288614dc0565b96505b8115613fbc5781890398505b826020015163ffffffff16860395508a6001600160a01b03168a8d7f527d1f65cc7cbc5b19926d6b040f10ec7f946968eced5ecf248d2f4f2c28f5f686868661400361222d565b6040516140139493929190615c18565b60405180910390a4505050600101613f3f565b50849350505094509492505050565b6000604051806101400160405280876001600160a01b031681526020018a8152602001866020015165ffffffffffff1681526020018881526020018881526020018660a001516001600160701b03168152602001848152602001856001600160a01b0316815260200160405180602001604052806000815250815260200183815250905060005b88518110156142045760008982815181106140d9576140d9614de6565b60209081029190910181015160408051608080820183528d516001600160a01b031682528d85015160ff16828601528d83015163ffffffff1682840152938301805160608301529387015281015161010086015280518b519251919350600092614142926122fd565b825160405163099bfcc360e11b81529192506001600160a01b031690631337f986908390614174908890600401615cdc565b6000604051808303818588803b15801561418d57600080fd5b505af11580156141a1573d6000803e3d6000fd5b505050505081600001516001600160a01b03167fb1ed2cd5f80d2005b57f16c4c1a1c8ee500b96725924cad83e44f32f05f400c08584602001516141e361222d565b6040516141f293929190615cef565b60405180910390a250506001016140bc565b50505050505050505050565b604080516001600160a01b038416602482015260448082018490528251808303909101815260649091019091526020810180516001600160e01b031663095ea7b360e01b179052614261848261445c565b611de9576040516001600160a01b0384811660248301526000604483015261429691869182169063095ea7b3906064016138f8565b611de984825b600080602060008451602086016000885af1806142bf576040513d6000823e3d81fd5b50506000513d915081156142d75780600114156142e4565b6001600160a01b0384163b155b15611de957604051635274afe760e01b81526001600160a01b0385166004820152602401610a1e565b60608282036040519150602081830101604052808252508260208501016020820160005b84811015610998578281015182820152602001614331565b600061099c83836103e86136cf565b600030634ff513ab8686868661436c61222d565b6040518663ffffffff1660e01b815260040161438c959493929190615d22565b6020604051808303816000875af19250505080156143c7575060408051601f3d908101601f191682019092526143c4918101906151a0565b60015b614455573d8080156143f5576040519150601f19603f3d011682016040523d82523d6000602084013e6143fa565b606091505b50847f7d1404acd9b8028cb88963a50aeeb83774d101e993a7fd89967afbc2d94c33fb87858461442861222d565b6040516144389493929190615d61565b60405180910390a261444b858585613e0c565b6000915050611aa2565b9050611aa2565b6000806000806020600086516020880160008a5af192503d915060005190508280156144a15750811561449257806001146144a1565b6000866001600160a01b03163b115b9695505050505050565b6040805161012081018252600080825260208201819052918101829052606081018290526080810182905260a0810182905260c0810182905260e0810182905261010081019190915290565b60006020828403121561450957600080fd5b81356001600160e01b03198116811461099c57600080fd5b6001600160a01b038116811461453657600080fd5b50565b60008060006060848603121561454e57600080fd5b83359250602084013561456081614521565b929592945050506040919091013590565b602080825282518282018190526000919060409081850190868401855b828110156145ce57815180518552868101516001600160a01b03168786015285015165ffffffffffff16858501526060909301929085019060010161458e565b5091979650505050505050565b60008083601f8401126145ed57600080fd5b5081356001600160401b0381111561460457600080fd5b602083019150836020828501011115613b1657600080fd5b60008060008060008060008060e0898b03121561463857600080fd5b883561464381614521565b97506020890135965060408901359550606089013561466181614521565b94506080890135935060a089013561467881614521565b925060c08901356001600160401b0381111561469357600080fd5b61469f8b828c016145db565b999c989b5096995094979396929594505050565b6000806000604084860312156146c857600080fd5b8335925060208401356001600160401b03808211156146e657600080fd5b818601915086601f8301126146fa57600080fd5b81358181111561470957600080fd5b87602060608302850101111561471e57600080fd5b6020830194508093505050509250925092565b6000806040838503121561474457600080fd5b82359150602083013561475681614521565b809150509250929050565b80516001600160a01b0316825260208082015160ff169083015260409081015163ffffffff16910152565b606081016107c28284614761565b60008060008060008587036101408112156147b457600080fd5b60c08112156147c257600080fd5b5085945060c0860135935060e08601356147db81614521565b925061010086013591506101208601356147f481614521565b809150509295509295909350565b60006020828403121561481457600080fd5b5035919050565b60008151808452602080850194506020840160005b8381101561485657614843878351614761565b6060969096019590820190600101614830565b509495945050505050565b60208152600061099c602083018461481b565b60006020828403121561488657600080fd5b813561099c81614521565b600080600080600060a086880312156148a957600080fd5b8535945060208601356148bb81614521565b93506040860135925060608601356148d281614521565b915060808601356147f481614521565b60008060008060008060008060006101008a8c03121561490157600080fd5b8935985060208a013561491381614521565b975060408a0135965060608a0135955060808a0135945060a08a013561493881614521565b935060c08a013561494881614521565b925060e08a01356001600160401b0381111561496357600080fd5b61496f8c828d016145db565b915080935050809150509295985092959850929598565b801515811461453657600080fd5b60008060008060008060008060c0898b0312156149b057600080fd5b8835975060208901356149c281614521565b96506040890135955060608901356149d981614986565b945060808901356001600160401b03808211156149f557600080fd5b614a018c838d016145db565b909650945060a08b0135915080821115614a1a57600080fd5b5061469f8b828c016145db565b600080600080600060a08688031215614a3f57600080fd5b853594506020860135614a5181614521565b94979496505050506040830135926060810135926080909101359150565b600080600060608486031215614a8457600080fd5b833592506020840135614a9681614521565b91506040840135614aa681614521565b809150509250925092565b634e487b7160e01b600052604160045260246000fd5b604051606081016001600160401b0381118282101715614ae957614ae9614ab1565b60405290565b60405161012081016001600160401b0381118282101715614ae957614ae9614ab1565b60405160c081016001600160401b0381118282101715614ae957614ae9614ab1565b60405160a081016001600160401b0381118282101715614ae957614ae9614ab1565b604051601f8201601f191681016001600160401b0381118282101715614b7e57614b7e614ab1565b604052919050565b60006001600160401b03821115614b9f57614b9f614ab1565b5060051b60200190565b60ff8116811461453657600080fd5b63ffffffff8116811461453657600080fd5b600060608284031215614bdc57600080fd5b614be4614ac7565b90508135614bf181614521565b81526020820135614c0181614ba9565b60208201526040820135614c1481614bb8565b604082015292915050565b60008060008060808587031215614c3557600080fd5b843593506020808601356001600160401b03811115614c5357600080fd5b8601601f81018813614c6457600080fd5b8035614c77614c7282614b86565b614b56565b80828252602082019150606060206060850286010193508b841115614c9b57600080fd5b6020850194505b83851015614cc357614cb48c86614bca565b83529384019391850191614ca2565b50979a97995050505060408601359560600135949350505050565b600080600060608486031215614cf357600080fd5b8335614cfe81614521565b9250602084013561456081614521565b600080600080600080600080600060e08a8c031215614d2c57600080fd5b8935985060208a0135614d3e81614521565b975060408a0135965060608a0135614d5581614521565b955060808a0135945060a08a01356001600160401b0380821115614d7857600080fd5b614d848d838e016145db565b909650945060c08c0135915080821115614d9d57600080fd5b5061496f8c828d016145db565b634e487b7160e01b600052601160045260246000fd5b808201808211156107c2576107c2614daa565b818103818111156107c2576107c2614daa565b634e487b7160e01b600052603260045260246000fd5b65ffffffffffff8116811461453657600080fd5b8051614e1b81614dfc565b919050565b8051614e1b81614bb8565b80516001600160701b0381168114614e1b57600080fd5b8051614e1b81614521565b60006101208284031215614e6057600080fd5b614e68614aef565b9050614e7382614e10565b8152614e8160208301614e10565b6020820152614e9260408301614e10565b6040820152614ea360608301614e10565b6060820152614eb460808301614e20565b6080820152614ec560a08301614e2b565b60a0820152614ed660c08301614e20565b60c0820152614ee760e08301614e42565b60e082015261010080830151818301525092915050565b60006101208284031215614f1157600080fd5b61099c8383614e4d565b600060608284031215614f2d57600080fd5b61099c8383614bca565b600060208284031215614f4957600080fd5b815161099c81614986565b600060208284031215614f6657600080fd5b815161099c81614ba9565b60808101614fa58285546001600160a01b038116825260a081901c60ff16602083015260a81c63ffffffff16604090910152565b6001600160a01b039290921660609190910152919050565b66ffffffffffffff8116811461453657600080fd5b600060c08284031215614fe457600080fd5b614fec614b12565b8235614ff781614986565b8152602083013561500781614bb8565b6020820152604083013561501a81614fbd565b6040820152606083013561502d81614521565b6060820152608083013561504081614dfc565b608082015260a083013561505381614521565b60a08201529392505050565b80511515825260208082015163ffffffff169083015260408082015166ffffffffffffff16908301526060808201516001600160a01b039081169184019190915260808083015165ffffffffffff169084015260a09182015116910152565b81516001600160a01b031681526020808301519082015260408083015190820152606080830151908201526080808301519082015260a08281015161016083019161510b9084018261505f565b5092915050565b60006020828403121561512457600080fd5b813561099c81614fbd565b60006020828403121561514157600080fd5b813561099c81614986565b60006060828403121561515e57600080fd5b615166614ac7565b825161517181614521565b8152602083015161518181614ba9565b6020820152604083015161519481614bb8565b60408201529392505050565b6000602082840312156151b257600080fd5b5051919050565b60005b838110156151d45781810151838201526020016151bc565b50506000910152565b600081518084526151f58160208601602086016151b9565b601f01601f19169290920160200192915050565b85815260018060a01b0385166020820152836040820152821515606082015260c06080820152600060c082015260e060a0820152600061524c60e08301846151dd565b979650505050505050565b60018060a01b038616815284602082015260a06040820152600061527e60a083018661481b565b606083019490945250608001529392505050565b6001600160a01b0387168152602081018690526040810185905260006101006152be6060840187614761565b8060c08401526152d08184018661481b565b905082810360e08401526114b781856151dd565b600082601f8301126152f557600080fd5b81516001600160401b0381111561530e5761530e614ab1565b615321601f8201601f1916602001614b56565b81815284602083860101111561533657600080fd5b611aa28260208301602087016151b9565b600080600080610180858703121561535e57600080fd5b6153688686614e4d565b9350610120850151925061014085015191506101608501516001600160401b038082111561539557600080fd5b818701915087601f8301126153a957600080fd5b81516153b7614c7282614b86565b8082825260208201915060208360051b86010192508a8311156153d957600080fd5b602085015b83811015615463578051858111156153f557600080fd5b86016060818e03601f1901121561540b57600080fd5b615413614ac7565b602082015161542181614521565b81526040820151602082015260608201518781111561543f57600080fd5b61544e8f6020838601016152e4565b604083015250845250602092830192016153de565b50979a9699509497505050505050565b600060018060a01b03808a168352808916602084015287604084015286606084015285608084015260e060a08401526154af60e08401866151dd565b915080841660c08401525098975050505050505050565b6000602082840312156154d857600080fd5b815161099c81614521565b868152600060018060a01b03808816602084015286604084015280861660608401525083608083015260e060a0830152600060e08301526101008060c08401526114b7818401856151dd565b84815260c081016155696020830186546001600160a01b038116825260a081901c60ff16602083015260a81c63ffffffff16604090910152565b608082019390935260a0015292915050565b600080610140838503121561558f57600080fd5b6155998484614e4d565b915061012083015190509250929050565b6000602082840312156155bc57600080fd5b81516001600160401b03808211156155d357600080fd5b9083019060a082860312156155e757600080fd5b6155ef614b34565b82518152602083015161560181614521565b6020820152604083015161561481614dfc565b6040820152606083015161562781614dfc565b606082015260808301518281111561563e57600080fd5b61564a878286016152e4565b60808301525095945050505050565b600061010060018060a01b0380871684528551818151166020860152816020820151166040860152604081015165ffffffffffff80821660608801528060608401511660808801525050508060208701511660a085015250604085015160c08401528060e08401526144a1818401856151dd565b85815284602082015260a0604082015260006156ec60a08301866151dd565b82810360608401526156fe81866151dd565b91505060018060a01b03831660808301529695505050505050565b600060018060a01b038088168352808716602084015285604084015260a0606084015261574960a08401866151dd565b91508084166080840152509695505050505050565b83815260606020820152600061577760608301856151dd565b905060018060a01b0383166040830152949350505050565b80516001600160a01b0316825260208082015160ff169083015260408082015163ffffffff1690830152606090810151910152565b6001600160a01b038681168252600090610100906157e5602085018961578f565b8660a085015280861660c0850152508060e0840152610a27818401856151dd565b6000806000610160848603121561581c57600080fd5b6158268585614e4d565b925061012084015191506101408401516001600160401b038082111561584b57600080fd5b818601915086601f83011261585f57600080fd5b8151602061586f614c7283614b86565b82815260059290921b8401810191818101908a84111561588e57600080fd5b8286015b84811015615914578051868111156158a957600080fd5b87016060818e03601f190112156158bf57600080fd5b6158c7614ac7565b858201516158d481614521565b81526040820151868201526060820151888111156158f25760008081fd5b6159008f88838601016152e4565b604083015250845250918301918301615892565b508096505050505050509250925092565b600060018060a01b03808a168352808916602084015287604084015286606084015260e0608084015261595b60e08401876151dd565b83810360a085015261596d81876151dd565b92505080841660c08401525098975050505050505050565b80516001600160a01b03168252600061020060208301516020850152604083015160408501526060830151606085015260808301516159c7608086018261578f565b5060a08301516101006159dc8187018361578f565b60c085015161018087015260e08501516001600160a01b03166101a08701528401516101c086018390529050615a14828601826151dd565b9150506101208301518482036101e086015261131c82826151dd565b60208152600061099c6020830184615985565b608081526000615a566080830187615985565b60208301959095525060408101929092526001600160a01b0316606090910152919050565b60008085851115615a8b57600080fd5b83861115615a9857600080fd5b5050820193919092039150565b6bffffffffffffffffffffffff198135818116916014851015615ad25780818660140360031b1b83161692505b505092915050565b634e487b7160e01b600052601260045260246000fd5b80820281158282048414176107c2576107c2614daa565b60006020808385031215615b1a57600080fd5b82516001600160401b03811115615b3057600080fd5b8301601f81018513615b4157600080fd5b8051615b4f614c7282614b86565b81815260c09182028301840191848201919088841115615b6e57600080fd5b938501935b83851015615c0c5780858a031215615b8b5760008081fd5b615b93614b12565b8551615b9e81614986565b815285870151615bad81614bb8565b81880152604086810151615bc081614fbd565b90820152606086810151615bd381614521565b90820152608086810151615be681614dfc565b9082015260a086810151615bf981614521565b9082015283529384019391850191615b73565b50979650505050505050565b6101208101615c27828761505f565b60c082019490945260e08101929092526001600160a01b031661010090910152919050565b80516001600160a01b03168252600061020060208301516020850152604083015160408501526060830151615c84606086018261578f565b506080830151615c9760e086018261578f565b5060a083015161016085015260c083015161018085015260e08301516001600160a01b03166101a08501526101008301516101c08501829052615a14828601826151dd565b60208152600061099c6020830184615c4c565b606081526000615d026060830186615c4c565b6020830194909452506001600160a01b0391909116604090910152919050565b6101408101615d31828861505f565b60c08201959095526001600160a01b0393841660e082015261010081019290925290911661012090910152919050565b6000610120615d70838861505f565b8560c08401528060e0840152615d88818401866151dd565b91505060018060a01b0383166101008301529594505050505056fea26469706673582212200665445b78dcf63dba37bccb72b9c4f444d9ec12408fa5b61634dbae7c94815e64736f6c63430008170033",
	"devdoc": {
		"kind": "dev",
		"methods": {
			"accountingContextForTokenOf(uint256,address)": {
				"details": "See the `JBAccountingContext` struct for more information.",
				"params": {
					"projectId": "The ID of the project to get token accounting context of.",
					"token": "The token to check the accounting context of."
				},
				"returns": {
					"_0": "The token's accounting context for the token."
				}
			},
			"accountingContextsOf(uint256)": {
				"params": {
					"projectId": "The ID of the project to get the accepted tokens of."
				},
				"returns": {
					"_0": "tokenContexts The accounting contexts of the accepted tokens."
				}
			},
			"addAccountingContextsFor(uint256,(address,uint8,uint32)[])": {
				"details": "Only a project's owner, an operator with the `ADD_ACCOUNTING_CONTEXTS` permission from that owner, or a project's controller can add accounting contexts for the project.",
				"params": {
					"accountingContexts": "The accounting contexts to add.",
					"projectId": "The ID of the project having to add accounting contexts for."
				}
			},
			"addToBalanceOf(uint256,address,uint256,bool,string,bytes)": {
				"details": "Adding to balance can unlock held fees if `shouldUnlockHeldFees` is true.",
				"params": {
					"amount": "The amount of tokens to add to the balance, as a fixed point number with the same number of decimals as this terminal. If this is a native token terminal, this is ignored and `msg.value` is used instead.",
					"memo": "A memo to pass along to the emitted event.",
					"metadata": "Extra data to pass along to the emitted event.",
					"projectId": "The ID of the project to add funds to the balance of.",
					"shouldReturnHeldFees": "A flag indicating if held fees should be returned based on the amount being added.",
					"token": "The token being added to the balance."
				}
			},
			"cashOutTokensOf(address,uint256,uint256,address,uint256,address,bytes)": {
				"details": "Only a token's holder or an operator with the `CASH_OUT_TOKENS` permission from that holder can cash out those tokens.",
				"params": {
					"beneficiary": "The address to send the cashed out terminal tokens to, and to pass along to the ruleset's data hook and cash out hook if applicable.",
					"cashOutCount": "The number of project tokens to cash out, as a fixed point number with 18 decimals.",
					"holder": "The account whose tokens are being cashed out.",
					"metadata": "Bytes to send along to the emitted event, as well as the data hook and cash out hook if applicable.",
					"minTokensReclaimed": "The minimum number of terminal tokens expected in return, as a fixed point number with the same number of decimals as this terminal. If the amount of tokens minted for the beneficiary would be less than this amount, the cash out is reverted.",
					"projectId": "The ID of the project the project tokens belong to.",
					"tokenToReclaim": "The token being reclaimed."
				},
				"returns": {
					"reclaimAmount": "The amount of terminal tokens that the project tokens were cashed out for, as a fixed point number with 18 decimals."
				}
			},
			"constructor": {
				"params": {
					"feelessAddresses": "A contract that stores addresses that shouldn't incur fees when being paid towards or from.",
					"permissions": "A contract storing permissions.",
					"permit2": "A permit2 utility.",
					"projects": "A contract which mints ERC-721s that represent project ownership and transfers.",
					"splits": "A contract that stores splits for each project.",
					"store": "A contract that stores the terminal's data.",
					"trustedForwarder": "A trusted forwarder of transactions to this contract."
				}
			},
			"currentSurplusOf(uint256,(address,uint8,uint32)[],uint256,uint256)": {
				"details": "This total surplus only includes tokens that the project accepts (as returned by `accountingContextsOf(...)`).",
				"params": {
					"accountingContexts": "The accounting contexts to use to calculate the surplus. Pass an empty array to use all of the project's accounting contexts.",
					"currency": "The currency to express the returned value in terms of.",
					"decimals": "The number of decimals to include in the fixed point returned value.",
					"projectId": "The ID of the project to get the current total surplus of."
				},
				"returns": {
					"_0": "The current surplus amount the project has in this terminal, in terms of `currency` and with the specified number of decimals."
				}
			},
			"executePayout((bool,uint32,uint56,address,uint48,address),uint256,address,uint256,address)": {
				"details": "Only accepts calls from this terminal itself.",
				"params": {
					"amount": "The total amount being paid to the split, as a fixed point number with the same number of decimals as this terminal.",
					"projectId": "The ID of the project the split belongs to.",
					"split": "The split to pay.",
					"token": "The address of the token being paid to the split."
				},
				"returns": {
					"netPayoutAmount": "The amount sent to the split after subtracting fees."
				}
			},
			"executeProcessFee(uint256,address,uint256,address,address)": {
				"details": "Only accepts calls from this terminal itself.",
				"params": {
					"amount": "The fee amount, as a fixed point number with 18 decimals.",
					"beneficiary": "The address to mint tokens to (from the project which receives fees), and pass along to the ruleset's data hook and pay hook if applicable.",
					"feeTerminal": "The terminal that'll receive the fees.",
					"projectId": "The ID of the project paying the fee.",
					"token": "The token the fee is being paid in."
				}
			},
			"executeTransferTo(address,address,uint256)": {
				"details": "Only accepts calls from this terminal itself.",
				"params": {
					"addr": "The address to transfer funds to.",
					"amount": "The amount of tokens to transfer.",
					"token": "The token to transfer."
				}
			},
			"heldFeesOf(uint256,address,uint256)": {
				"details": "Projects can temporarily hold fees and unlock them later by adding funds to the project's balance.Held fees can be processed at any time by this terminal's owner.",
				"params": {
					"projectId": "The ID of the project that is holding fees.",
					"token": "The token that the fees are held in."
				}
			},
			"isTrustedForwarder(address)": {
				"details": "Indicates whether any particular address is the trusted forwarder."
			},
			"migrateBalanceOf(uint256,address,address)": {
				"details": "Only a project's owner or an operator with the `MIGRATE_TERMINAL` permission from that owner can migrate the project's terminal.",
				"params": {
					"projectId": "The ID of the project being migrated.",
					"to": "The terminal contract being migrated to, which will receive the project's funds and operations.",
					"token": "The address of the token being migrated."
				},
				"returns": {
					"balance": "The amount of funds that were migrated, as a fixed point number with the same amount of decimals as this terminal."
				}
			},
			"pay(uint256,address,uint256,address,uint256,string,bytes)": {
				"params": {
					"amount": "The amount of terminal tokens being received, as a fixed point number with the same number of decimals as this terminal. If this terminal's token is native, this is ignored and `msg.value` is used in its place.",
					"beneficiary": "The address to mint tokens to, and pass along to the ruleset's data hook and pay hook if applicable.",
					"memo": "A memo to pass along to the emitted event.",
					"metadata": "Bytes to pass along to the emitted event, as well as the data hook and pay hook if applicable.",
					"minReturnedTokens": "The minimum number of project tokens expected in return for this payment, as a fixed point number with the same number of decimals as this terminal. If the amount of tokens minted for the beneficiary would be less than this amount, the payment is reverted.",
					"projectId": "The ID of the project being paid.",
					"token": "The token being paid."
				},
				"returns": {
					"beneficiaryTokenCount": "The number of tokens minted to the beneficiary, as a fixed point number with 18 decimals."
				}
			},
			"processHeldFeesOf(uint256,address,uint256)": {
				"params": {
					"count": "The number of fees to process.",
					"projectId": "The ID of the project to process held fees for.",
					"token": "The token to process held fees for."
				}
			},
			"sendPayoutsOf(uint256,address,uint256,uint256,uint256)": {
				"details": "If the percentages of the splits in the project's payout split group do not add up to 100%, the remainder is sent to the project's owner.Anyone can send payouts on a project's behalf. Projects can include a wildcard split (a split with no `hook`, `projectId`, or `beneficiary`) to send funds to the `_msgSender()` which calls this function. This can be used to incentivize calling this function.payouts sent to addresses which aren't feeless incur the protocol fee.Payouts a projects don't incur fees if its terminal is feeless.",
				"params": {
					"amount": "The total number of terminal tokens to send, as a fixed point number with same number of decimals as this terminal.",
					"currency": "The expected currency of the payouts being sent. Must match the currency of one of the project's current ruleset's payout limits.",
					"minTokensPaidOut": "The minimum number of terminal tokens that the `amount` should be worth (if expressed in terms of this terminal's currency), as a fixed point number with the same number of decimals as this terminal. If the amount of tokens paid out would be less than this amount, the send is reverted.",
					"projectId": "The ID of the project having its payouts sent.",
					"token": "The token being sent."
				},
				"returns": {
					"amountPaidOut": "The total amount paid out."
				}
			},
			"supportsInterface(bytes4)": {
				"details": "See {IERC165-supportsInterface}.",
				"params": {
					"interfaceId": "The ID of the interface to check for adherence to."
				},
				"returns": {
					"_0": "A flag indicating if the provided interface ID is supported."
				}
			},
			"trustedForwarder()": {
				"details": "Returns the address of the trusted forwarder."
			},
			"useAllowanceOf(uint256,address,uint256,uint256,uint256,address,address,string)": {
				"details": "Only a project's owner or an operator with the `USE_ALLOWANCE` permission from that owner can use the surplus allowance.Incurs the protocol fee unless the caller is a feeless address.",
				"params": {
					"amount": "The amount of terminal tokens to use from the project's current surplus allowance, as a fixed point number with the same amount of decimals as this terminal.",
					"beneficiary": "The address to send the surplus funds to.",
					"currency": "The expected currency of the amount being paid out. Must match the currency of one of the project's current ruleset's surplus allowances.",
					"feeBeneficiary": "The address to send the tokens resulting from paying the fee.",
					"memo": "A memo to pass along to the emitted event.",
					"minTokensPaidOut": "The minimum number of terminal tokens that should be returned from the surplus allowance (excluding fees), as a fixed point number with 18 decimals. If the amount of surplus used would be less than this amount, the transaction is reverted.",
					"projectId": "The ID of the project to use the surplus allowance of.",
					"token": "The token being paid out from the surplus."
				},
				"returns": {
					"netAmountPaidOut": "The number of tokens that were sent to the beneficiary, as a fixed point number with the same amount of decimals as the terminal."
				}
			}
		},
		"version": 1
	},
	"userdoc": {
		"kind": "user",
		"methods": {
			"DIRECTORY()": {
				"notice": "The directory of terminals and controllers for PROJECTS."
			},
			"FEE()": {
				"notice": "This terminal's fee (as a fraction out of `JBConstants.MAX_FEE`)."
			},
			"FEELESS_ADDRESSES()": {
				"notice": "The contract that stores addresses that shouldn't incur fees when being paid towards or from."
			},
			"PERMISSIONS()": {
				"notice": "A contract storing permissions."
			},
			"PERMIT2()": {
				"notice": "The permit2 utility."
			},
			"PROJECTS()": {
				"notice": "Mints ERC-721s that represent project ownership and transfers."
			},
			"RULESETS()": {
				"notice": "The contract storing and managing project rulesets."
			},
			"SPLITS()": {
				"notice": "The contract that stores splits for each project."
			},
			"STORE()": {
				"notice": "The contract that stores and manages the terminal's data."
			},
			"TOKENS()": {
				"notice": "The contract storing and managing project rulesets."
			},
			"accountingContextForTokenOf(uint256,address)": {
				"notice": "A project's accounting context for a token."
			},
			"accountingContextsOf(uint256)": {
				"notice": "The tokens accepted by a project."
			},
			"addAccountingContextsFor(uint256,(address,uint8,uint32)[])": {
				"notice": "Adds accounting contexts for a project to this terminal so the project can begin accepting the tokens in those contexts."
			},
			"addToBalanceOf(uint256,address,uint256,bool,string,bytes)": {
				"notice": "Adds funds to a project's balance without minting tokens."
			},
			"cashOutTokensOf(address,uint256,uint256,address,uint256,address,bytes)": {
				"notice": "Holders can cash out a project's tokens to reclaim some of that project's surplus tokens, or to trigger rules determined by the current ruleset's data hook and cash out hook."
			},
			"currentSurplusOf(uint256,(address,uint8,uint32)[],uint256,uint256)": {
				"notice": "Gets the total current surplus amount in this terminal for a project, in terms of a given currency."
			},
			"executePayout((bool,uint32,uint56,address,uint48,address),uint256,address,uint256,address)": {
				"notice": "Executes a payout to a split."
			},
			"executeProcessFee(uint256,address,uint256,address,address)": {
				"notice": "Process a specified amount of fees for a project."
			},
			"executeTransferTo(address,address,uint256)": {
				"notice": "Transfer funds to an address."
			},
			"heldFeesOf(uint256,address,uint256)": {
				"notice": "Fees that are being held for a project."
			},
			"migrateBalanceOf(uint256,address,address)": {
				"notice": "Migrate a project's funds and operations to a new terminal that accepts the same token type."
			},
			"pay(uint256,address,uint256,address,uint256,string,bytes)": {
				"notice": "Pay a project with tokens."
			},
			"processHeldFeesOf(uint256,address,uint256)": {
				"notice": "Process any fees that are being held for the project."
			},
			"sendPayoutsOf(uint256,address,uint256,uint256,uint256)": {
				"notice": "Sends payouts to a project's current payout split group, according to its ruleset, up to its current payout limit."
			},
			"supportsInterface(bytes4)": {
				"notice": "Indicates whether this contract adheres to the specified interface."
			},
			"useAllowanceOf(uint256,address,uint256,uint256,uint256,address,address,string)": {
				"notice": "Allows a project to pay out funds from its surplus up to the current surplus allowance."
			}
		},
		"version": 1
	},
	"gitCommit": "621b4728594b015d227adf08d7af07a2ea0ba570",
	"sourceName": "src/JBMultiTerminal.sol",
	"chainId": "421614",
	"linkReferences": {},
	"deployedLinkReferences": {},
	"history": []
}