{
	"_format": "sphinx-sol-ct-artifact-1",
	"merkleRoot": "0xecb722e952abd0c88b199c7b6d0e32c15eac38bf919588daeaef55a0b9f73b56",
	"contractName": "JBPermissions",
	"address": "0x4475B99b2f6F06c5048fe8c3839dFe2E5d744e65",
	"abi": [
		{
			"type": "function",
			"name": "WILDCARD_PROJECT_ID",
			"inputs": [],
			"outputs": [
				{
					"name": "",
					"type": "uint256",
					"internalType": "uint256"
				}
			],
			"stateMutability": "view"
		},
		{
			"type": "function",
			"name": "hasPermission",
			"inputs": [
				{
					"name": "operator",
					"type": "address",
					"internalType": "address"
				},
				{
					"name": "account",
					"type": "address",
					"internalType": "address"
				},
				{
					"name": "projectId",
					"type": "uint256",
					"internalType": "uint256"
				},
				{
					"name": "permissionId",
					"type": "uint256",
					"internalType": "uint256"
				},
				{
					"name": "includeRoot",
					"type": "bool",
					"internalType": "bool"
				},
				{
					"name": "includeWildcardProjectId",
					"type": "bool",
					"internalType": "bool"
				}
			],
			"outputs": [
				{
					"name": "",
					"type": "bool",
					"internalType": "bool"
				}
			],
			"stateMutability": "view"
		},
		{
			"type": "function",
			"name": "hasPermissions",
			"inputs": [
				{
					"name": "operator",
					"type": "address",
					"internalType": "address"
				},
				{
					"name": "account",
					"type": "address",
					"internalType": "address"
				},
				{
					"name": "projectId",
					"type": "uint256",
					"internalType": "uint256"
				},
				{
					"name": "permissionIds",
					"type": "uint256[]",
					"internalType": "uint256[]"
				},
				{
					"name": "includeRoot",
					"type": "bool",
					"internalType": "bool"
				},
				{
					"name": "includeWildcardProjectId",
					"type": "bool",
					"internalType": "bool"
				}
			],
			"outputs": [
				{
					"name": "",
					"type": "bool",
					"internalType": "bool"
				}
			],
			"stateMutability": "view"
		},
		{
			"type": "function",
			"name": "permissionsOf",
			"inputs": [
				{
					"name": "operator",
					"type": "address",
					"internalType": "address"
				},
				{
					"name": "account",
					"type": "address",
					"internalType": "address"
				},
				{
					"name": "projectId",
					"type": "uint256",
					"internalType": "uint256"
				}
			],
			"outputs": [
				{
					"name": "",
					"type": "uint256",
					"internalType": "uint256"
				}
			],
			"stateMutability": "view"
		},
		{
			"type": "function",
			"name": "setPermissionsFor",
			"inputs": [
				{
					"name": "account",
					"type": "address",
					"internalType": "address"
				},
				{
					"name": "permissionsData",
					"type": "tuple",
					"internalType": "struct JBPermissionsData",
					"components": [
						{
							"name": "operator",
							"type": "address",
							"internalType": "address"
						},
						{
							"name": "projectId",
							"type": "uint256",
							"internalType": "uint256"
						},
						{
							"name": "permissionIds",
							"type": "uint256[]",
							"internalType": "uint256[]"
						}
					]
				}
			],
			"outputs": [],
			"stateMutability": "nonpayable"
		},
		{
			"type": "event",
			"name": "OperatorPermissionsSet",
			"inputs": [
				{
					"name": "operator",
					"type": "address",
					"indexed": true,
					"internalType": "address"
				},
				{
					"name": "account",
					"type": "address",
					"indexed": true,
					"internalType": "address"
				},
				{
					"name": "projectId",
					"type": "uint256",
					"indexed": true,
					"internalType": "uint256"
				},
				{
					"name": "permissionIds",
					"type": "uint256[]",
					"indexed": false,
					"internalType": "uint256[]"
				},
				{
					"name": "packed",
					"type": "uint256",
					"indexed": false,
					"internalType": "uint256"
				},
				{
					"name": "caller",
					"type": "address",
					"indexed": false,
					"internalType": "address"
				}
			],
			"anonymous": false
		},
		{
			"type": "error",
			"name": "PERMISSION_ID_OUT_OF_BOUNDS",
			"inputs": []
		},
		{
			"type": "error",
			"name": "UNAUTHORIZED",
			"inputs": []
		}
	],
	"solcInputHash": "57a1d4be1e647efb0f1dadcd0304e29e",
	"args": [],
	"bytecode": "0x608060405234801561001057600080fd5b50610825806100206000396000f3fe608060405234801561001057600080fd5b50600436106100575760003560e01c806305d2912e1461005c578063348b684e14610071578063632af95f1461009957806380deb230146100ac5780638affd7eb146100ea575b600080fd5b61006f61006a36600461054e565b6100f2565b005b61008461007f3660046105b3565b610213565b60405190151581526020015b60405180910390f35b6100846100a7366004610619565b610347565b6100dc6100ba3660046106db565b6000602081815293815260408082208552928152828120909352825290205481565b604051908152602001610090565b6100dc600081565b60006101096101046040840184610717565b6104cf565b9050336001600160a01b038416148015906101435750600181811c811614806101435750610141338484602001356001806001610213565b155b156101615760405163075fd2b160e01b815260040160405180910390fd5b806000806101726020860186610768565b6001600160a01b039081168252602080830193909352604091820160009081209188168082529184528281208785018035808452919095529290209390935591906101bd9085610768565b6001600160a01b03167ff8cdf10a0ce6189c6d069e97320ef146e2bcbd32d6c0b86dcbfbf3bd8578fa706101f46040870187610717565b8633604051610206949392919061078a565b60405180910390a4505050565b600060ff841115610237576040516334f9a01d60e21b815260040160405180910390fd5b8280156102b657506001600160a01b03878116600090815260208181526040808320938a16835292815282822088835290522054600190811c811614806102b657508180156102b657506001600160a01b03878116600090815260208181526040808320938a16835292815282822082805290522054600190811c8116145b156102c35750600161033d565b6001600160a01b03878116600090815260208181526040808320938a16835292815282822088835290522054600190851c8116148061033a575081801561033a57506001600160a01b03878116600090815260208181526040808320938a16835292815282822082805290522054600190851c8116145b90505b9695505050505050565b60008280156103c857506001600160a01b03888116600090815260208181526040808320938b16835292815282822089835290522054600190811c811614806103c857508180156103c857506001600160a01b03888116600090815260208181526040808320938b16835292815282822082805290522054600190811c8116145b156103d5575060016104c4565b6001600160a01b03808916600090815260208181526040808320938b168352928152828220898352905290812054818461041057600061043d565b6001600160a01b03808c16600090815260208181526040808320938e168352928152828220828052905220545b905060005b878110156104bb5788888281811061045c5761045c6107d9565b90506020020135935060ff841115610487576040516334f9a01d60e21b815260040160405180910390fd5b600183851c8116141580156104a15750600182851c811614155b156104b35760009450505050506104c4565b600101610442565b50600193505050505b979650505050505050565b60008060005b8381101561052a578484828181106104ef576104ef6107d9565b90506020020135915060ff82111561051a576040516334f9a01d60e21b815260040160405180910390fd5b600180831b9390931792016104d5565b505092915050565b80356001600160a01b038116811461054957600080fd5b919050565b6000806040838503121561056157600080fd5b61056a83610532565b9150602083013567ffffffffffffffff81111561058657600080fd5b83016060818603121561059857600080fd5b809150509250929050565b8035801515811461054957600080fd5b60008060008060008060c087890312156105cc57600080fd5b6105d587610532565b95506105e360208801610532565b945060408701359350606087013592506105ff608088016105a3565b915061060d60a088016105a3565b90509295509295509295565b600080600080600080600060c0888a03121561063457600080fd5b61063d88610532565b965061064b60208901610532565b955060408801359450606088013567ffffffffffffffff8082111561066f57600080fd5b818a0191508a601f83011261068357600080fd5b81358181111561069257600080fd5b8b60208260051b85010111156106a757600080fd5b6020830196508095505050506106bf608089016105a3565b91506106cd60a089016105a3565b905092959891949750929550565b6000806000606084860312156106f057600080fd5b6106f984610532565b925061070760208501610532565b9150604084013590509250925092565b6000808335601e1984360301811261072e57600080fd5b83018035915067ffffffffffffffff82111561074957600080fd5b6020019150600581901b360382131561076157600080fd5b9250929050565b60006020828403121561077a57600080fd5b61078382610532565b9392505050565b6060808252810184905260006001600160fb1b038511156107aa57600080fd5b8460051b808760808501376020830194909452506001600160a01b039190911660408201520160800192915050565b634e487b7160e01b600052603260045260246000fdfea2646970667358221220e734a3a61cdf6a764a61b6d57fed2b2273035dc02df356fff0160ee09903f4c864736f6c63430008170033",
	"devdoc": {
		"kind": "dev",
		"methods": {
			"hasPermission(address,address,uint256,uint256,bool,bool)": {
				"params": {
					"account": "The account being operated on behalf of.",
					"includeRoot": "A flag indicating if the return value should default to true if the operator has the ROOT permission.",
					"includeWildcardProjectId": "A flag indicating if the return value should return true if the operator has the specified permission on the wildcard project ID. true.",
					"operator": "The operator to check.",
					"permissionId": "The permission ID to check for.",
					"projectId": "The project ID that the operator has permission to operate under. 0 represents all projects."
				},
				"returns": {
					"_0": "A flag indicating whether the operator has the specified permission."
				}
			},
			"hasPermissions(address,address,uint256,uint256[],bool,bool)": {
				"params": {
					"account": "The account being operated on behalf of.",
					"includeRoot": "A flag indicating if the return value should default to true if the operator has the ROOT permission.",
					"includeWildcardProjectId": "A flag indicating if the return value should return true if the operator has the specified permission on the wildcard project ID.",
					"operator": "The operator to check.",
					"permissionIds": "An array of permission IDs to check for.",
					"projectId": "The project ID that the operator has permission to operate under. 0 represents all projects."
				},
				"returns": {
					"_0": "A flag indicating whether the operator has all specified permissions."
				}
			},
			"setPermissionsFor(address,(address,uint256,uint256[]))": {
				"details": "Only an address can give permissions to or revoke permissions from its operators.",
				"params": {
					"account": "The account setting its operators' permissions.",
					"permissionsData": "The data which specifies the permissions the operator is being given."
				}
			}
		},
		"version": 1
	},
	"userdoc": {
		"kind": "user",
		"methods": {
			"WILDCARD_PROJECT_ID()": {
				"notice": "The project ID considered a wildcard, meaning it will grant permissions to all projects."
			},
			"hasPermission(address,address,uint256,uint256,bool,bool)": {
				"notice": "Check if an operator has a specific permission for a specific address and project ID."
			},
			"hasPermissions(address,address,uint256,uint256[],bool,bool)": {
				"notice": "Check if an operator has all of the specified permissions for a specific address and project ID."
			},
			"permissionsOf(address,address,uint256)": {
				"notice": "The permissions that an operator has been given by an account for a specific project."
			},
			"setPermissionsFor(address,(address,uint256,uint256[]))": {
				"notice": "Sets permissions for an operator."
			}
		},
		"version": 1
	},
	"gitCommit": "a991cc8048c2498c20ee78dc68456d84b45f9e4f",
	"sourceName": "src/JBPermissions.sol",
	"chainId": "421614",
	"linkReferences": {},
	"deployedLinkReferences": {},
	"history": []
}