{
	"_format": "sphinx-sol-ct-artifact-1",
	"merkleRoot": "0x2eed67fcf1763eec7ef14ca888c00e6e0d2358663046a3e4367e42ef35bdfba4",
	"contractName": "JBPermissions",
	"address": "0x4CDb4200e4E65a277676Cd5E8d3c7C7C4dA7fBe5",
	"abi": [
		{
			"type": "function",
			"name": "WILDCARD_PROJECT_ID",
			"inputs": [],
			"outputs": [
				{
					"name": "",
					"type": "uint256",
					"internalType": "uint256"
				}
			],
			"stateMutability": "view"
		},
		{
			"type": "function",
			"name": "hasPermission",
			"inputs": [
				{
					"name": "operator",
					"type": "address",
					"internalType": "address"
				},
				{
					"name": "account",
					"type": "address",
					"internalType": "address"
				},
				{
					"name": "projectId",
					"type": "uint256",
					"internalType": "uint256"
				},
				{
					"name": "permissionId",
					"type": "uint256",
					"internalType": "uint256"
				},
				{
					"name": "includeRoot",
					"type": "bool",
					"internalType": "bool"
				},
				{
					"name": "includeWildcardProjectId",
					"type": "bool",
					"internalType": "bool"
				}
			],
			"outputs": [
				{
					"name": "",
					"type": "bool",
					"internalType": "bool"
				}
			],
			"stateMutability": "view"
		},
		{
			"type": "function",
			"name": "hasPermissions",
			"inputs": [
				{
					"name": "operator",
					"type": "address",
					"internalType": "address"
				},
				{
					"name": "account",
					"type": "address",
					"internalType": "address"
				},
				{
					"name": "projectId",
					"type": "uint256",
					"internalType": "uint256"
				},
				{
					"name": "permissionIds",
					"type": "uint256[]",
					"internalType": "uint256[]"
				},
				{
					"name": "includeRoot",
					"type": "bool",
					"internalType": "bool"
				},
				{
					"name": "includeWildcardProjectId",
					"type": "bool",
					"internalType": "bool"
				}
			],
			"outputs": [
				{
					"name": "",
					"type": "bool",
					"internalType": "bool"
				}
			],
			"stateMutability": "view"
		},
		{
			"type": "function",
			"name": "permissionsOf",
			"inputs": [
				{
					"name": "operator",
					"type": "address",
					"internalType": "address"
				},
				{
					"name": "account",
					"type": "address",
					"internalType": "address"
				},
				{
					"name": "projectId",
					"type": "uint256",
					"internalType": "uint256"
				}
			],
			"outputs": [
				{
					"name": "",
					"type": "uint256",
					"internalType": "uint256"
				}
			],
			"stateMutability": "view"
		},
		{
			"type": "function",
			"name": "setPermissionsFor",
			"inputs": [
				{
					"name": "account",
					"type": "address",
					"internalType": "address"
				},
				{
					"name": "permissionsData",
					"type": "tuple",
					"internalType": "struct JBPermissionsData",
					"components": [
						{
							"name": "operator",
							"type": "address",
							"internalType": "address"
						},
						{
							"name": "projectId",
							"type": "uint56",
							"internalType": "uint56"
						},
						{
							"name": "permissionIds",
							"type": "uint8[]",
							"internalType": "uint8[]"
						}
					]
				}
			],
			"outputs": [],
			"stateMutability": "nonpayable"
		},
		{
			"type": "event",
			"name": "OperatorPermissionsSet",
			"inputs": [
				{
					"name": "operator",
					"type": "address",
					"indexed": true,
					"internalType": "address"
				},
				{
					"name": "account",
					"type": "address",
					"indexed": true,
					"internalType": "address"
				},
				{
					"name": "projectId",
					"type": "uint256",
					"indexed": true,
					"internalType": "uint256"
				},
				{
					"name": "permissionIds",
					"type": "uint8[]",
					"indexed": false,
					"internalType": "uint8[]"
				},
				{
					"name": "packed",
					"type": "uint256",
					"indexed": false,
					"internalType": "uint256"
				},
				{
					"name": "caller",
					"type": "address",
					"indexed": false,
					"internalType": "address"
				}
			],
			"anonymous": false
		},
		{
			"type": "error",
			"name": "JBPermissions_PermissionIdOutOfBounds",
			"inputs": [
				{
					"name": "permissionId",
					"type": "uint256",
					"internalType": "uint256"
				}
			]
		},
		{
			"type": "error",
			"name": "JBPermissions_Unauthorized",
			"inputs": []
		}
	],
	"solcInputHash": "b89bde0fe29395f67edeac33d37789f7",
	"args": [],
	"bytecode": "0x608060405234801561001057600080fd5b506108f9806100206000396000f3fe608060405234801561001057600080fd5b50600436106100575760003560e01c8063348b684e1461005c578063632af95f1461008457806380deb23014610097578063893ce901146100d55780638affd7eb146100ea575b600080fd5b61006f61006a3660046105ce565b6100f2565b60405190151581526020015b60405180910390f35b61006f610092366004610634565b61022e565b6100c76100a53660046106f6565b6000602081815293815260408082208552928152828120909352825290205481565b60405190815260200161007b565b6100e86100e3366004610732565b6103bb565b005b6100c7600081565b600060ff84111561011e576040516311f31b1160e21b8152600481018590526024015b60405180910390fd5b82801561019d57506001600160a01b03878116600090815260208181526040808320938a16835292815282822088835290522054600190811c8116148061019d575081801561019d57506001600160a01b03878116600090815260208181526040808320938a16835292815282822082805290522054600190811c8116145b156101aa57506001610224565b6001600160a01b03878116600090815260208181526040808320938a16835292815282822088835290522054600190851c81161480610221575081801561022157506001600160a01b03878116600090815260208181526040808320938a16835292815282822082805290522054600190851c8116145b90505b9695505050505050565b60008280156102af57506001600160a01b03888116600090815260208181526040808320938b16835292815282822089835290522054600190811c811614806102af57508180156102af57506001600160a01b03888116600090815260208181526040808320938b16835292815282822082805290522054600190811c8116145b156102bc575060016103b0565b6001600160a01b03808916600090815260208181526040808320938b16835292815282822089835290529081205490836102f7576000610324565b6001600160a01b03808b16600090815260208181526040808320938d168352928152828220828052905220545b905060005b868110156103a857600088888381811061034557610345610787565b90506020020135905060ff811115610373576040516311f31b1160e21b815260048101829052602401610115565b600184821c81161415801561038d5750600183821c811614155b1561039f5760009450505050506103b0565b50600101610329565b506001925050505b979650505050505050565b60006103d26103cd604084018461079d565b61054a565b9050336001600160a01b0384161480159061041f5750600181811c8116148061041f575061041d338461040b60408601602087016107ee565b66ffffffffffffff16600180806100f2565b155b1561043d57604051635b5fa6b760e11b815260040160405180910390fd5b8060008061044e602086018661081e565b6001600160a01b03166001600160a01b031681526020019081526020016000206000856001600160a01b03166001600160a01b0316815260200190815260200160002060008460200160208101906104a691906107ee565b66ffffffffffffff168152602001908152602001600020819055508160200160208101906104d491906107ee565b66ffffffffffffff166001600160a01b0384166104f4602085018561081e565b6001600160a01b03167f5324a861114a736770617a7dad3321b8417dc39698b30adfade6d0367b2e5d5961052b604087018761079d565b863360405161053d949392919061084a565b60405180910390a4505050565b6000805b8281101561059b57600084848381811061056a5761056a610787565b905060200201602081019061057f91906108a8565b60ff169050806001901b8317925050808060010191505061054e565b5092915050565b80356001600160a01b03811681146105b957600080fd5b919050565b803580151581146105b957600080fd5b60008060008060008060c087890312156105e757600080fd5b6105f0876105a2565b95506105fe602088016105a2565b9450604087013593506060870135925061061a608088016105be565b915061062860a088016105be565b90509295509295509295565b600080600080600080600060c0888a03121561064f57600080fd5b610658886105a2565b9650610666602089016105a2565b955060408801359450606088013567ffffffffffffffff8082111561068a57600080fd5b818a0191508a601f83011261069e57600080fd5b8135818111156106ad57600080fd5b8b60208260051b85010111156106c257600080fd5b6020830196508095505050506106da608089016105be565b91506106e860a089016105be565b905092959891949750929550565b60008060006060848603121561070b57600080fd5b610714846105a2565b9250610722602085016105a2565b9150604084013590509250925092565b6000806040838503121561074557600080fd5b61074e836105a2565b9150602083013567ffffffffffffffff81111561076a57600080fd5b83016060818603121561077c57600080fd5b809150509250929050565b634e487b7160e01b600052603260045260246000fd5b6000808335601e198436030181126107b457600080fd5b83018035915067ffffffffffffffff8211156107cf57600080fd5b6020019150600581901b36038213156107e757600080fd5b9250929050565b60006020828403121561080057600080fd5b813566ffffffffffffff8116811461081757600080fd5b9392505050565b60006020828403121561083057600080fd5b610817826105a2565b803560ff811681146105b957600080fd5b6060808252810184905260008560808301825b878110156108855760ff61087084610839565b1682526020928301929091019060010161085d565b50602084019590955250506001600160a01b039190911660409091015292915050565b6000602082840312156108ba57600080fd5b6108178261083956fea2646970667358221220224263c5a8feeb9e80a23b5c7cb97f6068bb380902449f9f30f6a348ecf49aaa64736f6c63430008170033",
	"devdoc": {
		"kind": "dev",
		"methods": {
			"hasPermission(address,address,uint256,uint256,bool,bool)": {
				"params": {
					"account": "The account being operated on behalf of.",
					"includeRoot": "A flag indicating if the return value should default to true if the operator has the ROOT permission.",
					"includeWildcardProjectId": "A flag indicating if the return value should return true if the operator has the specified permission on the wildcard project ID. true.",
					"operator": "The operator to check.",
					"permissionId": "The permission ID to check for.",
					"projectId": "The project ID that the operator has permission to operate under. 0 represents all projects."
				},
				"returns": {
					"_0": "A flag indicating whether the operator has the specified permission."
				}
			},
			"hasPermissions(address,address,uint256,uint256[],bool,bool)": {
				"params": {
					"account": "The account being operated on behalf of.",
					"includeRoot": "A flag indicating if the return value should default to true if the operator has the ROOT permission.",
					"includeWildcardProjectId": "A flag indicating if the return value should return true if the operator has the specified permission on the wildcard project ID.",
					"operator": "The operator to check.",
					"permissionIds": "An array of permission IDs to check for.",
					"projectId": "The project ID that the operator has permission to operate under. 0 represents all projects."
				},
				"returns": {
					"_0": "A flag indicating whether the operator has all specified permissions."
				}
			},
			"setPermissionsFor(address,(address,uint56,uint8[]))": {
				"details": "Only an address can give permissions to or revoke permissions from its operators.",
				"params": {
					"account": "The account setting its operators' permissions.",
					"permissionsData": "The data which specifies the permissions the operator is being given."
				}
			}
		},
		"version": 1
	},
	"userdoc": {
		"kind": "user",
		"methods": {
			"WILDCARD_PROJECT_ID()": {
				"notice": "The project ID considered a wildcard, meaning it will grant permissions to all projects."
			},
			"hasPermission(address,address,uint256,uint256,bool,bool)": {
				"notice": "Check if an operator has a specific permission for a specific address and project ID."
			},
			"hasPermissions(address,address,uint256,uint256[],bool,bool)": {
				"notice": "Check if an operator has all of the specified permissions for a specific address and project ID."
			},
			"permissionsOf(address,address,uint256)": {
				"notice": "The permissions that an operator has been given by an account for a specific project."
			},
			"setPermissionsFor(address,(address,uint56,uint8[]))": {
				"notice": "Sets permissions for an operator."
			}
		},
		"version": 1
	},
	"gitCommit": "265dad3852d04d03aba15963b8c2fd79653719f9",
	"sourceName": "src/JBPermissions.sol",
	"chainId": "421614",
	"linkReferences": {},
	"deployedLinkReferences": {},
	"history": []
}