{
	"_format": "sphinx-sol-ct-artifact-1",
	"merkleRoot": "0x732be88c08b5a2d625882757714ef23a3a10316e007749118eaca4a956dc9f8a",
	"contractName": "JBPrices",
	"address": "0x8c88469cA3aA9dE6Ab22c5113Ae2A8E20329fd8c",
	"abi": [
		{
			"type": "constructor",
			"inputs": [
				{
					"name": "directory",
					"type": "address",
					"internalType": "contract IJBDirectory"
				},
				{
					"name": "permissions",
					"type": "address",
					"internalType": "contract IJBPermissions"
				},
				{
					"name": "projects",
					"type": "address",
					"internalType": "contract IJBProjects"
				},
				{
					"name": "owner",
					"type": "address",
					"internalType": "address"
				}
			],
			"stateMutability": "nonpayable"
		},
		{
			"type": "function",
			"name": "DEFAULT_PROJECT_ID",
			"inputs": [],
			"outputs": [
				{
					"name": "",
					"type": "uint256",
					"internalType": "uint256"
				}
			],
			"stateMutability": "view"
		},
		{
			"type": "function",
			"name": "DIRECTORY",
			"inputs": [],
			"outputs": [
				{
					"name": "",
					"type": "address",
					"internalType": "contract IJBDirectory"
				}
			],
			"stateMutability": "view"
		},
		{
			"type": "function",
			"name": "PERMISSIONS",
			"inputs": [],
			"outputs": [
				{
					"name": "",
					"type": "address",
					"internalType": "contract IJBPermissions"
				}
			],
			"stateMutability": "view"
		},
		{
			"type": "function",
			"name": "PROJECTS",
			"inputs": [],
			"outputs": [
				{
					"name": "",
					"type": "address",
					"internalType": "contract IJBProjects"
				}
			],
			"stateMutability": "view"
		},
		{
			"type": "function",
			"name": "addPriceFeedFor",
			"inputs": [
				{
					"name": "projectId",
					"type": "uint256",
					"internalType": "uint256"
				},
				{
					"name": "pricingCurrency",
					"type": "uint256",
					"internalType": "uint256"
				},
				{
					"name": "unitCurrency",
					"type": "uint256",
					"internalType": "uint256"
				},
				{
					"name": "feed",
					"type": "address",
					"internalType": "contract IJBPriceFeed"
				}
			],
			"outputs": [],
			"stateMutability": "nonpayable"
		},
		{
			"type": "function",
			"name": "owner",
			"inputs": [],
			"outputs": [
				{
					"name": "",
					"type": "address",
					"internalType": "address"
				}
			],
			"stateMutability": "view"
		},
		{
			"type": "function",
			"name": "priceFeedFor",
			"inputs": [
				{
					"name": "projectId",
					"type": "uint256",
					"internalType": "uint256"
				},
				{
					"name": "pricingCurrency",
					"type": "uint256",
					"internalType": "uint256"
				},
				{
					"name": "unitCurrency",
					"type": "uint256",
					"internalType": "uint256"
				}
			],
			"outputs": [
				{
					"name": "",
					"type": "address",
					"internalType": "contract IJBPriceFeed"
				}
			],
			"stateMutability": "view"
		},
		{
			"type": "function",
			"name": "pricePerUnitOf",
			"inputs": [
				{
					"name": "projectId",
					"type": "uint256",
					"internalType": "uint256"
				},
				{
					"name": "pricingCurrency",
					"type": "uint256",
					"internalType": "uint256"
				},
				{
					"name": "unitCurrency",
					"type": "uint256",
					"internalType": "uint256"
				},
				{
					"name": "decimals",
					"type": "uint256",
					"internalType": "uint256"
				}
			],
			"outputs": [
				{
					"name": "",
					"type": "uint256",
					"internalType": "uint256"
				}
			],
			"stateMutability": "view"
		},
		{
			"type": "function",
			"name": "renounceOwnership",
			"inputs": [],
			"outputs": [],
			"stateMutability": "nonpayable"
		},
		{
			"type": "function",
			"name": "transferOwnership",
			"inputs": [
				{
					"name": "newOwner",
					"type": "address",
					"internalType": "address"
				}
			],
			"outputs": [],
			"stateMutability": "nonpayable"
		},
		{
			"type": "event",
			"name": "AddPriceFeed",
			"inputs": [
				{
					"name": "projectId",
					"type": "uint256",
					"indexed": true,
					"internalType": "uint256"
				},
				{
					"name": "pricingCurrency",
					"type": "uint256",
					"indexed": true,
					"internalType": "uint256"
				},
				{
					"name": "unitCurrency",
					"type": "uint256",
					"indexed": true,
					"internalType": "uint256"
				},
				{
					"name": "feed",
					"type": "address",
					"indexed": false,
					"internalType": "contract IJBPriceFeed"
				},
				{
					"name": "caller",
					"type": "address",
					"indexed": false,
					"internalType": "address"
				}
			],
			"anonymous": false
		},
		{
			"type": "event",
			"name": "OwnershipTransferred",
			"inputs": [
				{
					"name": "previousOwner",
					"type": "address",
					"indexed": true,
					"internalType": "address"
				},
				{
					"name": "newOwner",
					"type": "address",
					"indexed": true,
					"internalType": "address"
				}
			],
			"anonymous": false
		},
		{
			"type": "error",
			"name": "JBControlled_ControllerUnauthorized",
			"inputs": [
				{
					"name": "controller",
					"type": "address",
					"internalType": "address"
				}
			]
		},
		{
			"type": "error",
			"name": "JBPermissioned_Unauthorized",
			"inputs": [
				{
					"name": "account",
					"type": "address",
					"internalType": "address"
				},
				{
					"name": "sender",
					"type": "address",
					"internalType": "address"
				},
				{
					"name": "projectId",
					"type": "uint256",
					"internalType": "uint256"
				},
				{
					"name": "permissionId",
					"type": "uint256",
					"internalType": "uint256"
				}
			]
		},
		{
			"type": "error",
			"name": "JBPrices_PriceFeedAlreadyExists",
			"inputs": [
				{
					"name": "feed",
					"type": "address",
					"internalType": "contract IJBPriceFeed"
				}
			]
		},
		{
			"type": "error",
			"name": "JBPrices_PriceFeedNotFound",
			"inputs": []
		},
		{
			"type": "error",
			"name": "JBPrices_ZeroPricingCurrency",
			"inputs": []
		},
		{
			"type": "error",
			"name": "JBPrices_ZeroUnitCurrency",
			"inputs": []
		},
		{
			"type": "error",
			"name": "OwnableInvalidOwner",
			"inputs": [
				{
					"name": "owner",
					"type": "address",
					"internalType": "address"
				}
			]
		},
		{
			"type": "error",
			"name": "OwnableUnauthorizedAccount",
			"inputs": [
				{
					"name": "account",
					"type": "address",
					"internalType": "address"
				}
			]
		},
		{
			"type": "error",
			"name": "PRBMath_MulDiv_Overflow",
			"inputs": [
				{
					"name": "x",
					"type": "uint256",
					"internalType": "uint256"
				},
				{
					"name": "y",
					"type": "uint256",
					"internalType": "uint256"
				},
				{
					"name": "denominator",
					"type": "uint256",
					"internalType": "uint256"
				}
			]
		}
	],
	"solcInputHash": "b6c351fd96634234999dc102235e550e",
	"args": [
		"0x5ADb234602D074064C216C1fDB23c6c2031F0C75",
		"0x4886C30C81a17a3A1084fd1812008fA0f71a20B9",
		"0x9B52A59F108e36cE0a8Eba595Eca22DbadbE655F",
		"0xd72a3b02a39CFE137346444E5fbb5fF297B4d1b1"
	],
	"bytecode": "0x60e060405234801561001057600080fd5b50604051610d9c380380610d9c83398101604081905261002f916100f2565b6001600160a01b0380851660805280841660a0528190811661006b57604051631e4fbdf760e01b81526000600482015260240160405180910390fd5b6100748161008a565b50506001600160a01b031660c052506101519050565b600080546001600160a01b038381166001600160a01b0319831681178455604051919092169283917f8be0079c531659141344cd1fd0a4f28419497f9722a3daafe3b4186f6b6457e09190a35050565b6001600160a01b03811681146100ef57600080fd5b50565b6000806000806080858703121561010857600080fd5b8451610113816100da565b6020860151909450610124816100da565b6040860151909350610135816100da565b6060860151909250610146816100da565b939692955090935050565b60805160a05160c051610c0f61018d600039600060a8015260006101b701526000818161011f0152818161086d01526108fc0152610c0f6000f3fe608060405234801561001057600080fd5b506004361061009e5760003560e01c80638da5cb5b116100665780638da5cb5b14610141578063c6081d7114610152578063d42ebdb614610165578063f2fde38b1461019f578063f434c914146101b257600080fd5b8063293c4999146100a35780632c1ae882146100e75780633be273fa146100fd578063715018a61461011057806388bc2ef31461011a575b600080fd5b6100ca7f000000000000000000000000000000000000000000000000000000000000000081565b6040516001600160a01b0390911681526020015b60405180910390f35b6100ef600081565b6040519081526020016100de565b6100ef61010b366004610994565b6101d9565b610118610383565b005b6100ca7f000000000000000000000000000000000000000000000000000000000000000081565b6000546001600160a01b03166100ca565b6101186101603660046109db565b610397565b6100ca610173366004610a1c565b60016020908152600093845260408085208252928452828420905282529020546001600160a01b031681565b6101186101ad366004610a48565b6106b8565b6100ca7f000000000000000000000000000000000000000000000000000000000000000081565b60008284036101f4576101ed82600a610b61565b905061037b565b600085815260016020908152604080832087845282528083208684529091529020546001600160a01b031680156102965760405163d3f5c15f60e01b8152600481018490526001600160a01b0382169063d3f5c15f90602401602060405180830381865afa15801561026a573d6000803e3d6000fd5b505050506040513d601f19601f8201168201806040525081019061028e9190610b6d565b91505061037b565b50600085815260016020908152604080832086845282528083208784529091529020546001600160a01b0316801561034f5761028e6102d684600a610b61565b6102e185600a610b61565b60405163d3f5c15f60e01b8152600481018790526001600160a01b0385169063d3f5c15f90602401602060405180830381865afa158015610326573d6000803e3d6000fd5b505050506040513d601f19601f8201168201806040525081019061034a9190610b6d565b6106f6565b85156103625761028e60008686866101d9565b604051631c27981760e21b815260040160405180910390fd5b949350505050565b61038b6107d0565b61039560006107fd565b565b83156103ab576103a68461084d565b6103b3565b6103b36107d0565b826000036103d45760405163ab0f4ad560e01b815260040160405180910390fd5b816000036103f55760405163bb57eae960e01b815260040160405180910390fd5b6000838152600080516020610bba833981519152602090815260408083208584529091529020546001600160a01b031615158061046057506000828152600080516020610bba833981519152602090815260408083208684529091529020546001600160a01b031615155b15610529576000838152600080516020610bba833981519152602090815260408083208584529091529020546001600160a01b03166104ce576000828152600080516020610bba833981519152602090815260408083208684529091529020546001600160a01b03166104ff565b6000838152600080516020610bba833981519152602090815260408083208584529091529020546001600160a01b03165b60405163321bb01960e01b81526001600160a01b0390911660048201526024015b60405180910390fd5b600084815260016020908152604080832086845282528083208584529091529020546001600160a01b031615158061058a5750600084815260016020908152604080832085845282528083208684529091529020546001600160a01b031615155b1561063657600084815260016020908152604080832086845282528083208584529091529020546001600160a01b03166105ee57600084815260016020908152604080832085845282528083208684529091529020546001600160a01b03166104ff565b600084815260016020908152604080832086845282528083208584529091529081902054905163321bb01960e01b81526001600160a01b039091166004820152602401610520565b6000848152600160209081526040808320868452825280832085845282529182902080546001600160a01b0319166001600160a01b038516908117909155825190815233918101919091528391859187917f2a0d2e061403a7d0a76276b49e8d91d3f88325b6dd635422595282672dd1bd19910160405180910390a450505050565b6106c06107d0565b6001600160a01b0381166106ea57604051631e4fbdf760e01b815260006004820152602401610520565b6106f3816107fd565b50565b60008080600019858709858702925082811083820303915050806000036107305783828161072657610726610b86565b04925050506107c9565b83811061076157604051630c740aef60e31b8152600481018790526024810186905260448101859052606401610520565b600084868809851960019081018716968790049682860381900495909211909303600082900391909104909201919091029190911760038402600290811880860282030280860282030280860282030280860282030280860282030280860290910302029150505b9392505050565b6000546001600160a01b031633146103955760405163118cdaa760e01b8152336004820152602401610520565b600080546001600160a01b038381166001600160a01b0319831681178455604051919092169283917f8be0079c531659141344cd1fd0a4f28419497f9722a3daafe3b4186f6b6457e09190a35050565b604051632eec7b5560e11b81526004810182905233906001600160a01b037f00000000000000000000000000000000000000000000000000000000000000001690635dd8f6aa90602401602060405180830381865afa1580156108b4573d6000803e3d6000fd5b505050506040513d601f19601f820116820180604052508101906108d89190610b9c565b6001600160a01b0316146106f357604051632eec7b5560e11b8152600481018290527f00000000000000000000000000000000000000000000000000000000000000006001600160a01b031690635dd8f6aa90602401602060405180830381865afa15801561094b573d6000803e3d6000fd5b505050506040513d601f19601f8201168201806040525081019061096f9190610b9c565b604051639a007b3960e01b81526001600160a01b039091166004820152602401610520565b600080600080608085870312156109aa57600080fd5b5050823594602084013594506040840135936060013592509050565b6001600160a01b03811681146106f357600080fd5b600080600080608085870312156109f157600080fd5b8435935060208501359250604085013591506060850135610a11816109c6565b939692955090935050565b600080600060608486031215610a3157600080fd5b505081359360208301359350604090920135919050565b600060208284031215610a5a57600080fd5b81356107c9816109c6565b634e487b7160e01b600052601160045260246000fd5b600181815b80851115610ab6578160001904821115610a9c57610a9c610a65565b80851615610aa957918102915b93841c9390800290610a80565b509250929050565b600082610acd57506001610b5b565b81610ada57506000610b5b565b8160018114610af05760028114610afa57610b16565b6001915050610b5b565b60ff841115610b0b57610b0b610a65565b50506001821b610b5b565b5060208310610133831016604e8410600b8410161715610b39575081810a610b5b565b610b438383610a7b565b8060001904821115610b5757610b57610a65565b0290505b92915050565b60006107c98383610abe565b600060208284031215610b7f57600080fd5b5051919050565b634e487b7160e01b600052601260045260246000fd5b600060208284031215610bae57600080fd5b81516107c9816109c656fea6eef7e35abe7026729641147f7915573c7e97b47efa546f5f6e3230263bcb49a26469706673582212205fb3c7f1dff26d6f3465be978b85e06f75cfe722f57f7e9c0a7176895a971c2c64736f6c63430008170033",
	"deployedBytecode": "0x608060405234801561001057600080fd5b506004361061009e5760003560e01c80638da5cb5b116100665780638da5cb5b14610141578063c6081d7114610152578063d42ebdb614610165578063f2fde38b1461019f578063f434c914146101b257600080fd5b8063293c4999146100a35780632c1ae882146100e75780633be273fa146100fd578063715018a61461011057806388bc2ef31461011a575b600080fd5b6100ca7f0000000000000000000000009b52a59f108e36ce0a8eba595eca22dbadbe655f81565b6040516001600160a01b0390911681526020015b60405180910390f35b6100ef600081565b6040519081526020016100de565b6100ef61010b366004610994565b6101d9565b610118610383565b005b6100ca7f0000000000000000000000005adb234602d074064c216c1fdb23c6c2031f0c7581565b6000546001600160a01b03166100ca565b6101186101603660046109db565b610397565b6100ca610173366004610a1c565b60016020908152600093845260408085208252928452828420905282529020546001600160a01b031681565b6101186101ad366004610a48565b6106b8565b6100ca7f0000000000000000000000004886c30c81a17a3a1084fd1812008fa0f71a20b981565b60008284036101f4576101ed82600a610b61565b905061037b565b600085815260016020908152604080832087845282528083208684529091529020546001600160a01b031680156102965760405163d3f5c15f60e01b8152600481018490526001600160a01b0382169063d3f5c15f90602401602060405180830381865afa15801561026a573d6000803e3d6000fd5b505050506040513d601f19601f8201168201806040525081019061028e9190610b6d565b91505061037b565b50600085815260016020908152604080832086845282528083208784529091529020546001600160a01b0316801561034f5761028e6102d684600a610b61565b6102e185600a610b61565b60405163d3f5c15f60e01b8152600481018790526001600160a01b0385169063d3f5c15f90602401602060405180830381865afa158015610326573d6000803e3d6000fd5b505050506040513d601f19601f8201168201806040525081019061034a9190610b6d565b6106f6565b85156103625761028e60008686866101d9565b604051631c27981760e21b815260040160405180910390fd5b949350505050565b61038b6107d0565b61039560006107fd565b565b83156103ab576103a68461084d565b6103b3565b6103b36107d0565b826000036103d45760405163ab0f4ad560e01b815260040160405180910390fd5b816000036103f55760405163bb57eae960e01b815260040160405180910390fd5b6000838152600080516020610bba833981519152602090815260408083208584529091529020546001600160a01b031615158061046057506000828152600080516020610bba833981519152602090815260408083208684529091529020546001600160a01b031615155b15610529576000838152600080516020610bba833981519152602090815260408083208584529091529020546001600160a01b03166104ce576000828152600080516020610bba833981519152602090815260408083208684529091529020546001600160a01b03166104ff565b6000838152600080516020610bba833981519152602090815260408083208584529091529020546001600160a01b03165b60405163321bb01960e01b81526001600160a01b0390911660048201526024015b60405180910390fd5b600084815260016020908152604080832086845282528083208584529091529020546001600160a01b031615158061058a5750600084815260016020908152604080832085845282528083208684529091529020546001600160a01b031615155b1561063657600084815260016020908152604080832086845282528083208584529091529020546001600160a01b03166105ee57600084815260016020908152604080832085845282528083208684529091529020546001600160a01b03166104ff565b600084815260016020908152604080832086845282528083208584529091529081902054905163321bb01960e01b81526001600160a01b039091166004820152602401610520565b6000848152600160209081526040808320868452825280832085845282529182902080546001600160a01b0319166001600160a01b038516908117909155825190815233918101919091528391859187917f2a0d2e061403a7d0a76276b49e8d91d3f88325b6dd635422595282672dd1bd19910160405180910390a450505050565b6106c06107d0565b6001600160a01b0381166106ea57604051631e4fbdf760e01b815260006004820152602401610520565b6106f3816107fd565b50565b60008080600019858709858702925082811083820303915050806000036107305783828161072657610726610b86565b04925050506107c9565b83811061076157604051630c740aef60e31b8152600481018790526024810186905260448101859052606401610520565b600084868809851960019081018716968790049682860381900495909211909303600082900391909104909201919091029190911760038402600290811880860282030280860282030280860282030280860282030280860282030280860290910302029150505b9392505050565b6000546001600160a01b031633146103955760405163118cdaa760e01b8152336004820152602401610520565b600080546001600160a01b038381166001600160a01b0319831681178455604051919092169283917f8be0079c531659141344cd1fd0a4f28419497f9722a3daafe3b4186f6b6457e09190a35050565b604051632eec7b5560e11b81526004810182905233906001600160a01b037f0000000000000000000000005adb234602d074064c216c1fdb23c6c2031f0c751690635dd8f6aa90602401602060405180830381865afa1580156108b4573d6000803e3d6000fd5b505050506040513d601f19601f820116820180604052508101906108d89190610b9c565b6001600160a01b0316146106f357604051632eec7b5560e11b8152600481018290527f0000000000000000000000005adb234602d074064c216c1fdb23c6c2031f0c756001600160a01b031690635dd8f6aa90602401602060405180830381865afa15801561094b573d6000803e3d6000fd5b505050506040513d601f19601f8201168201806040525081019061096f9190610b9c565b604051639a007b3960e01b81526001600160a01b039091166004820152602401610520565b600080600080608085870312156109aa57600080fd5b5050823594602084013594506040840135936060013592509050565b6001600160a01b03811681146106f357600080fd5b600080600080608085870312156109f157600080fd5b8435935060208501359250604085013591506060850135610a11816109c6565b939692955090935050565b600080600060608486031215610a3157600080fd5b505081359360208301359350604090920135919050565b600060208284031215610a5a57600080fd5b81356107c9816109c6565b634e487b7160e01b600052601160045260246000fd5b600181815b80851115610ab6578160001904821115610a9c57610a9c610a65565b80851615610aa957918102915b93841c9390800290610a80565b509250929050565b600082610acd57506001610b5b565b81610ada57506000610b5b565b8160018114610af05760028114610afa57610b16565b6001915050610b5b565b60ff841115610b0b57610b0b610a65565b50506001821b610b5b565b5060208310610133831016604e8410600b8410161715610b39575081810a610b5b565b610b438383610a7b565b8060001904821115610b5757610b57610a65565b0290505b92915050565b60006107c98383610abe565b600060208284031215610b7f57600080fd5b5051919050565b634e487b7160e01b600052601260045260246000fd5b600060208284031215610bae57600080fd5b81516107c9816109c656fea6eef7e35abe7026729641147f7915573c7e97b47efa546f5f6e3230263bcb49a26469706673582212205fb3c7f1dff26d6f3465be978b85e06f75cfe722f57f7e9c0a7176895a971c2c64736f6c63430008170033",
	"devdoc": {
		"kind": "dev",
		"methods": {
			"addPriceFeedFor(uint256,uint256,uint256,address)": {
				"details": "Price feeds can only be added, not modified or removed.This contract's owner can add protocol-wide default price feed by passing a `projectId` of 0.",
				"params": {
					"feed": "The address of the price feed to add.",
					"pricingCurrency": "The currency the feed's output price is in terms of.",
					"projectId": "The ID of the project to add a feed for. If `projectId` is 0, add a protocol-wide default price feed.",
					"unitCurrency": "The currency being priced by the feed."
				}
			},
			"constructor": {
				"params": {
					"directory": "A contract storing directories of terminals and controllers for each project.",
					"owner": "The address that will own the contract.",
					"permissions": "A contract storing permissions.",
					"projects": "A contract which mints ERC-721s that represent project ownership and transfers."
				}
			},
			"owner()": {
				"details": "Returns the address of the current owner."
			},
			"pricePerUnitOf(uint256,uint256,uint256,uint256)": {
				"params": {
					"decimals": "The number of decimals the returned fixed point price should include.",
					"pricingCurrency": "The currency the feed's resulting price is in terms of.",
					"projectId": "The ID of the project to check the feed for. Feeds stored in ID 0 are used by default for all projects.",
					"unitCurrency": "The currency being priced by the feed."
				},
				"returns": {
					"_0": "The `pricingCurrency` price of 1 `unitCurrency`, as a fixed point number with the specified number of decimals."
				}
			},
			"renounceOwnership()": {
				"details": "Leaves the contract without owner. It will not be possible to call `onlyOwner` functions. Can only be called by the current owner. NOTE: Renouncing ownership will leave the contract without an owner, thereby disabling any functionality that is only available to the owner."
			},
			"transferOwnership(address)": {
				"details": "Transfers ownership of the contract to a new account (`newOwner`). Can only be called by the current owner."
			}
		},
		"version": 1
	},
	"userdoc": {
		"kind": "user",
		"methods": {
			"DEFAULT_PROJECT_ID()": {
				"notice": "The ID to store default values in."
			},
			"DIRECTORY()": {
				"notice": "The directory of terminals and controllers for projects."
			},
			"PERMISSIONS()": {
				"notice": "A contract storing permissions."
			},
			"PROJECTS()": {
				"notice": "Mints ERC-721s that represent project ownership and transfers."
			},
			"addPriceFeedFor(uint256,uint256,uint256,address)": {
				"notice": "Add a price feed for the `unitCurrency`, priced in terms of the `pricingCurrency`."
			},
			"priceFeedFor(uint256,uint256,uint256)": {
				"notice": "The available price feeds."
			},
			"pricePerUnitOf(uint256,uint256,uint256,uint256)": {
				"notice": "Gets the `pricingCurrency` cost for one unit of the `unitCurrency`."
			}
		},
		"version": 1
	},
	"gitCommit": "621b4728594b015d227adf08d7af07a2ea0ba570",
	"sourceName": "src/JBPrices.sol",
	"chainId": "421614",
	"linkReferences": {},
	"deployedLinkReferences": {},
	"history": []
}