{
	"_format": "sphinx-sol-ct-artifact-1",
	"merkleRoot": "0x732be88c08b5a2d625882757714ef23a3a10316e007749118eaca4a956dc9f8a",
	"contractName": "JBTerminalStore",
	"address": "0x270eC8711dCa04cf5f3FdF10141428065e07194F",
	"abi": [
		{
			"type": "constructor",
			"inputs": [
				{
					"name": "directory",
					"type": "address",
					"internalType": "contract IJBDirectory"
				},
				{
					"name": "prices",
					"type": "address",
					"internalType": "contract IJBPrices"
				},
				{
					"name": "rulesets",
					"type": "address",
					"internalType": "contract IJBRulesets"
				}
			],
			"stateMutability": "nonpayable"
		},
		{
			"type": "function",
			"name": "DIRECTORY",
			"inputs": [],
			"outputs": [
				{
					"name": "",
					"type": "address",
					"internalType": "contract IJBDirectory"
				}
			],
			"stateMutability": "view"
		},
		{
			"type": "function",
			"name": "PRICES",
			"inputs": [],
			"outputs": [
				{
					"name": "",
					"type": "address",
					"internalType": "contract IJBPrices"
				}
			],
			"stateMutability": "view"
		},
		{
			"type": "function",
			"name": "RULESETS",
			"inputs": [],
			"outputs": [
				{
					"name": "",
					"type": "address",
					"internalType": "contract IJBRulesets"
				}
			],
			"stateMutability": "view"
		},
		{
			"type": "function",
			"name": "balanceOf",
			"inputs": [
				{
					"name": "terminal",
					"type": "address",
					"internalType": "address"
				},
				{
					"name": "projectId",
					"type": "uint256",
					"internalType": "uint256"
				},
				{
					"name": "token",
					"type": "address",
					"internalType": "address"
				}
			],
			"outputs": [
				{
					"name": "",
					"type": "uint256",
					"internalType": "uint256"
				}
			],
			"stateMutability": "view"
		},
		{
			"type": "function",
			"name": "currentReclaimableSurplusOf",
			"inputs": [
				{
					"name": "projectId",
					"type": "uint256",
					"internalType": "uint256"
				},
				{
					"name": "cashOutCount",
					"type": "uint256",
					"internalType": "uint256"
				},
				{
					"name": "totalSupply",
					"type": "uint256",
					"internalType": "uint256"
				},
				{
					"name": "surplus",
					"type": "uint256",
					"internalType": "uint256"
				}
			],
			"outputs": [
				{
					"name": "",
					"type": "uint256",
					"internalType": "uint256"
				}
			],
			"stateMutability": "view"
		},
		{
			"type": "function",
			"name": "currentReclaimableSurplusOf",
			"inputs": [
				{
					"name": "projectId",
					"type": "uint256",
					"internalType": "uint256"
				},
				{
					"name": "cashOutCount",
					"type": "uint256",
					"internalType": "uint256"
				},
				{
					"name": "terminals",
					"type": "address[]",
					"internalType": "contract IJBTerminal[]"
				},
				{
					"name": "accountingContexts",
					"type": "tuple[]",
					"internalType": "struct JBAccountingContext[]",
					"components": [
						{
							"name": "token",
							"type": "address",
							"internalType": "address"
						},
						{
							"name": "decimals",
							"type": "uint8",
							"internalType": "uint8"
						},
						{
							"name": "currency",
							"type": "uint32",
							"internalType": "uint32"
						}
					]
				},
				{
					"name": "decimals",
					"type": "uint256",
					"internalType": "uint256"
				},
				{
					"name": "currency",
					"type": "uint256",
					"internalType": "uint256"
				}
			],
			"outputs": [
				{
					"name": "",
					"type": "uint256",
					"internalType": "uint256"
				}
			],
			"stateMutability": "view"
		},
		{
			"type": "function",
			"name": "currentSurplusOf",
			"inputs": [
				{
					"name": "terminal",
					"type": "address",
					"internalType": "address"
				},
				{
					"name": "projectId",
					"type": "uint256",
					"internalType": "uint256"
				},
				{
					"name": "accountingContexts",
					"type": "tuple[]",
					"internalType": "struct JBAccountingContext[]",
					"components": [
						{
							"name": "token",
							"type": "address",
							"internalType": "address"
						},
						{
							"name": "decimals",
							"type": "uint8",
							"internalType": "uint8"
						},
						{
							"name": "currency",
							"type": "uint32",
							"internalType": "uint32"
						}
					]
				},
				{
					"name": "decimals",
					"type": "uint256",
					"internalType": "uint256"
				},
				{
					"name": "currency",
					"type": "uint256",
					"internalType": "uint256"
				}
			],
			"outputs": [
				{
					"name": "",
					"type": "uint256",
					"internalType": "uint256"
				}
			],
			"stateMutability": "view"
		},
		{
			"type": "function",
			"name": "currentTotalSurplusOf",
			"inputs": [
				{
					"name": "projectId",
					"type": "uint256",
					"internalType": "uint256"
				},
				{
					"name": "decimals",
					"type": "uint256",
					"internalType": "uint256"
				},
				{
					"name": "currency",
					"type": "uint256",
					"internalType": "uint256"
				}
			],
			"outputs": [
				{
					"name": "",
					"type": "uint256",
					"internalType": "uint256"
				}
			],
			"stateMutability": "view"
		},
		{
			"type": "function",
			"name": "recordAddedBalanceFor",
			"inputs": [
				{
					"name": "projectId",
					"type": "uint256",
					"internalType": "uint256"
				},
				{
					"name": "token",
					"type": "address",
					"internalType": "address"
				},
				{
					"name": "amount",
					"type": "uint256",
					"internalType": "uint256"
				}
			],
			"outputs": [],
			"stateMutability": "nonpayable"
		},
		{
			"type": "function",
			"name": "recordCashOutFor",
			"inputs": [
				{
					"name": "holder",
					"type": "address",
					"internalType": "address"
				},
				{
					"name": "projectId",
					"type": "uint256",
					"internalType": "uint256"
				},
				{
					"name": "cashOutCount",
					"type": "uint256",
					"internalType": "uint256"
				},
				{
					"name": "accountingContext",
					"type": "tuple",
					"internalType": "struct JBAccountingContext",
					"components": [
						{
							"name": "token",
							"type": "address",
							"internalType": "address"
						},
						{
							"name": "decimals",
							"type": "uint8",
							"internalType": "uint8"
						},
						{
							"name": "currency",
							"type": "uint32",
							"internalType": "uint32"
						}
					]
				},
				{
					"name": "balanceAccountingContexts",
					"type": "tuple[]",
					"internalType": "struct JBAccountingContext[]",
					"components": [
						{
							"name": "token",
							"type": "address",
							"internalType": "address"
						},
						{
							"name": "decimals",
							"type": "uint8",
							"internalType": "uint8"
						},
						{
							"name": "currency",
							"type": "uint32",
							"internalType": "uint32"
						}
					]
				},
				{
					"name": "metadata",
					"type": "bytes",
					"internalType": "bytes"
				}
			],
			"outputs": [
				{
					"name": "ruleset",
					"type": "tuple",
					"internalType": "struct JBRuleset",
					"components": [
						{
							"name": "cycleNumber",
							"type": "uint48",
							"internalType": "uint48"
						},
						{
							"name": "id",
							"type": "uint48",
							"internalType": "uint48"
						},
						{
							"name": "basedOnId",
							"type": "uint48",
							"internalType": "uint48"
						},
						{
							"name": "start",
							"type": "uint48",
							"internalType": "uint48"
						},
						{
							"name": "duration",
							"type": "uint32",
							"internalType": "uint32"
						},
						{
							"name": "weight",
							"type": "uint112",
							"internalType": "uint112"
						},
						{
							"name": "weightCutPercent",
							"type": "uint32",
							"internalType": "uint32"
						},
						{
							"name": "approvalHook",
							"type": "address",
							"internalType": "contract IJBRulesetApprovalHook"
						},
						{
							"name": "metadata",
							"type": "uint256",
							"internalType": "uint256"
						}
					]
				},
				{
					"name": "reclaimAmount",
					"type": "uint256",
					"internalType": "uint256"
				},
				{
					"name": "cashOutTaxRate",
					"type": "uint256",
					"internalType": "uint256"
				},
				{
					"name": "hookSpecifications",
					"type": "tuple[]",
					"internalType": "struct JBCashOutHookSpecification[]",
					"components": [
						{
							"name": "hook",
							"type": "address",
							"internalType": "contract IJBCashOutHook"
						},
						{
							"name": "amount",
							"type": "uint256",
							"internalType": "uint256"
						},
						{
							"name": "metadata",
							"type": "bytes",
							"internalType": "bytes"
						}
					]
				}
			],
			"stateMutability": "nonpayable"
		},
		{
			"type": "function",
			"name": "recordPaymentFrom",
			"inputs": [
				{
					"name": "payer",
					"type": "address",
					"internalType": "address"
				},
				{
					"name": "amount",
					"type": "tuple",
					"internalType": "struct JBTokenAmount",
					"components": [
						{
							"name": "token",
							"type": "address",
							"internalType": "address"
						},
						{
							"name": "decimals",
							"type": "uint8",
							"internalType": "uint8"
						},
						{
							"name": "currency",
							"type": "uint32",
							"internalType": "uint32"
						},
						{
							"name": "value",
							"type": "uint256",
							"internalType": "uint256"
						}
					]
				},
				{
					"name": "projectId",
					"type": "uint256",
					"internalType": "uint256"
				},
				{
					"name": "beneficiary",
					"type": "address",
					"internalType": "address"
				},
				{
					"name": "metadata",
					"type": "bytes",
					"internalType": "bytes"
				}
			],
			"outputs": [
				{
					"name": "ruleset",
					"type": "tuple",
					"internalType": "struct JBRuleset",
					"components": [
						{
							"name": "cycleNumber",
							"type": "uint48",
							"internalType": "uint48"
						},
						{
							"name": "id",
							"type": "uint48",
							"internalType": "uint48"
						},
						{
							"name": "basedOnId",
							"type": "uint48",
							"internalType": "uint48"
						},
						{
							"name": "start",
							"type": "uint48",
							"internalType": "uint48"
						},
						{
							"name": "duration",
							"type": "uint32",
							"internalType": "uint32"
						},
						{
							"name": "weight",
							"type": "uint112",
							"internalType": "uint112"
						},
						{
							"name": "weightCutPercent",
							"type": "uint32",
							"internalType": "uint32"
						},
						{
							"name": "approvalHook",
							"type": "address",
							"internalType": "contract IJBRulesetApprovalHook"
						},
						{
							"name": "metadata",
							"type": "uint256",
							"internalType": "uint256"
						}
					]
				},
				{
					"name": "tokenCount",
					"type": "uint256",
					"internalType": "uint256"
				},
				{
					"name": "hookSpecifications",
					"type": "tuple[]",
					"internalType": "struct JBPayHookSpecification[]",
					"components": [
						{
							"name": "hook",
							"type": "address",
							"internalType": "contract IJBPayHook"
						},
						{
							"name": "amount",
							"type": "uint256",
							"internalType": "uint256"
						},
						{
							"name": "metadata",
							"type": "bytes",
							"internalType": "bytes"
						}
					]
				}
			],
			"stateMutability": "nonpayable"
		},
		{
			"type": "function",
			"name": "recordPayoutFor",
			"inputs": [
				{
					"name": "projectId",
					"type": "uint256",
					"internalType": "uint256"
				},
				{
					"name": "accountingContext",
					"type": "tuple",
					"internalType": "struct JBAccountingContext",
					"components": [
						{
							"name": "token",
							"type": "address",
							"internalType": "address"
						},
						{
							"name": "decimals",
							"type": "uint8",
							"internalType": "uint8"
						},
						{
							"name": "currency",
							"type": "uint32",
							"internalType": "uint32"
						}
					]
				},
				{
					"name": "amount",
					"type": "uint256",
					"internalType": "uint256"
				},
				{
					"name": "currency",
					"type": "uint256",
					"internalType": "uint256"
				}
			],
			"outputs": [
				{
					"name": "ruleset",
					"type": "tuple",
					"internalType": "struct JBRuleset",
					"components": [
						{
							"name": "cycleNumber",
							"type": "uint48",
							"internalType": "uint48"
						},
						{
							"name": "id",
							"type": "uint48",
							"internalType": "uint48"
						},
						{
							"name": "basedOnId",
							"type": "uint48",
							"internalType": "uint48"
						},
						{
							"name": "start",
							"type": "uint48",
							"internalType": "uint48"
						},
						{
							"name": "duration",
							"type": "uint32",
							"internalType": "uint32"
						},
						{
							"name": "weight",
							"type": "uint112",
							"internalType": "uint112"
						},
						{
							"name": "weightCutPercent",
							"type": "uint32",
							"internalType": "uint32"
						},
						{
							"name": "approvalHook",
							"type": "address",
							"internalType": "contract IJBRulesetApprovalHook"
						},
						{
							"name": "metadata",
							"type": "uint256",
							"internalType": "uint256"
						}
					]
				},
				{
					"name": "amountPaidOut",
					"type": "uint256",
					"internalType": "uint256"
				}
			],
			"stateMutability": "nonpayable"
		},
		{
			"type": "function",
			"name": "recordTerminalMigration",
			"inputs": [
				{
					"name": "projectId",
					"type": "uint256",
					"internalType": "uint256"
				},
				{
					"name": "token",
					"type": "address",
					"internalType": "address"
				}
			],
			"outputs": [
				{
					"name": "balance",
					"type": "uint256",
					"internalType": "uint256"
				}
			],
			"stateMutability": "nonpayable"
		},
		{
			"type": "function",
			"name": "recordUsedAllowanceOf",
			"inputs": [
				{
					"name": "projectId",
					"type": "uint256",
					"internalType": "uint256"
				},
				{
					"name": "accountingContext",
					"type": "tuple",
					"internalType": "struct JBAccountingContext",
					"components": [
						{
							"name": "token",
							"type": "address",
							"internalType": "address"
						},
						{
							"name": "decimals",
							"type": "uint8",
							"internalType": "uint8"
						},
						{
							"name": "currency",
							"type": "uint32",
							"internalType": "uint32"
						}
					]
				},
				{
					"name": "amount",
					"type": "uint256",
					"internalType": "uint256"
				},
				{
					"name": "currency",
					"type": "uint256",
					"internalType": "uint256"
				}
			],
			"outputs": [
				{
					"name": "ruleset",
					"type": "tuple",
					"internalType": "struct JBRuleset",
					"components": [
						{
							"name": "cycleNumber",
							"type": "uint48",
							"internalType": "uint48"
						},
						{
							"name": "id",
							"type": "uint48",
							"internalType": "uint48"
						},
						{
							"name": "basedOnId",
							"type": "uint48",
							"internalType": "uint48"
						},
						{
							"name": "start",
							"type": "uint48",
							"internalType": "uint48"
						},
						{
							"name": "duration",
							"type": "uint32",
							"internalType": "uint32"
						},
						{
							"name": "weight",
							"type": "uint112",
							"internalType": "uint112"
						},
						{
							"name": "weightCutPercent",
							"type": "uint32",
							"internalType": "uint32"
						},
						{
							"name": "approvalHook",
							"type": "address",
							"internalType": "contract IJBRulesetApprovalHook"
						},
						{
							"name": "metadata",
							"type": "uint256",
							"internalType": "uint256"
						}
					]
				},
				{
					"name": "usedAmount",
					"type": "uint256",
					"internalType": "uint256"
				}
			],
			"stateMutability": "nonpayable"
		},
		{
			"type": "function",
			"name": "usedPayoutLimitOf",
			"inputs": [
				{
					"name": "terminal",
					"type": "address",
					"internalType": "address"
				},
				{
					"name": "projectId",
					"type": "uint256",
					"internalType": "uint256"
				},
				{
					"name": "token",
					"type": "address",
					"internalType": "address"
				},
				{
					"name": "rulesetCycleNumber",
					"type": "uint256",
					"internalType": "uint256"
				},
				{
					"name": "currency",
					"type": "uint256",
					"internalType": "uint256"
				}
			],
			"outputs": [
				{
					"name": "",
					"type": "uint256",
					"internalType": "uint256"
				}
			],
			"stateMutability": "view"
		},
		{
			"type": "function",
			"name": "usedSurplusAllowanceOf",
			"inputs": [
				{
					"name": "terminal",
					"type": "address",
					"internalType": "address"
				},
				{
					"name": "projectId",
					"type": "uint256",
					"internalType": "uint256"
				},
				{
					"name": "token",
					"type": "address",
					"internalType": "address"
				},
				{
					"name": "rulesetId",
					"type": "uint256",
					"internalType": "uint256"
				},
				{
					"name": "currency",
					"type": "uint256",
					"internalType": "uint256"
				}
			],
			"outputs": [
				{
					"name": "",
					"type": "uint256",
					"internalType": "uint256"
				}
			],
			"stateMutability": "view"
		},
		{
			"type": "error",
			"name": "JBTerminalStore_InadequateControllerAllowance",
			"inputs": [
				{
					"name": "amount",
					"type": "uint256",
					"internalType": "uint256"
				},
				{
					"name": "allowance",
					"type": "uint256",
					"internalType": "uint256"
				}
			]
		},
		{
			"type": "error",
			"name": "JBTerminalStore_InadequateControllerPayoutLimit",
			"inputs": [
				{
					"name": "amount",
					"type": "uint256",
					"internalType": "uint256"
				},
				{
					"name": "limit",
					"type": "uint256",
					"internalType": "uint256"
				}
			]
		},
		{
			"type": "error",
			"name": "JBTerminalStore_InadequateTerminalStoreBalance",
			"inputs": [
				{
					"name": "amount",
					"type": "uint256",
					"internalType": "uint256"
				},
				{
					"name": "balance",
					"type": "uint256",
					"internalType": "uint256"
				}
			]
		},
		{
			"type": "error",
			"name": "JBTerminalStore_InsufficientTokens",
			"inputs": [
				{
					"name": "count",
					"type": "uint256",
					"internalType": "uint256"
				},
				{
					"name": "totalSupply",
					"type": "uint256",
					"internalType": "uint256"
				}
			]
		},
		{
			"type": "error",
			"name": "JBTerminalStore_InvalidAmountToForwardHook",
			"inputs": [
				{
					"name": "amount",
					"type": "uint256",
					"internalType": "uint256"
				},
				{
					"name": "paidAmount",
					"type": "uint256",
					"internalType": "uint256"
				}
			]
		},
		{
			"type": "error",
			"name": "JBTerminalStore_RulesetNotFound",
			"inputs": []
		},
		{
			"type": "error",
			"name": "JBTerminalStore_RulesetPaymentPaused",
			"inputs": []
		},
		{
			"type": "error",
			"name": "JBTerminalStore_TerminalMigrationNotAllowed",
			"inputs": []
		},
		{
			"type": "error",
			"name": "PRBMath_MulDiv_Overflow",
			"inputs": [
				{
					"name": "x",
					"type": "uint256",
					"internalType": "uint256"
				},
				{
					"name": "y",
					"type": "uint256",
					"internalType": "uint256"
				},
				{
					"name": "denominator",
					"type": "uint256",
					"internalType": "uint256"
				}
			]
		}
	],
	"solcInputHash": "b6c351fd96634234999dc102235e550e",
	"args": [
		"0x5ADb234602D074064C216C1fDB23c6c2031F0C75",
		"0x8c88469cA3aA9dE6Ab22c5113Ae2A8E20329fd8c",
		"0xC052725ff9888CE3148Aa8bFB5063f1a5028946D"
	],
	"bytecode": "0x60e06040523480156200001157600080fd5b5060405162003ced38038062003ced83398101604081905262000034916200006b565b6001600160a01b0392831660805290821660a0521660c052620000bf565b6001600160a01b03811681146200006857600080fd5b50565b6000806000606084860312156200008157600080fd5b83516200008e8162000052565b6020850151909350620000a18162000052565b6040850151909250620000b48162000052565b809150509250925092565b60805160a05160c051613b726200017b600039600081816102fe015281816103690152818161045d015281816109fc01528181611235015281816113e40152818161185d01528181611dca0152611e790152600081816101300152818161050901528181611c4101528181612475015261278f01526000818161023a0152818161082a01528181610b4e01528181610c56015281816112dd0152818161167001528181611f120152818161204201526124d70152613b726000f3fe608060405234801561001057600080fd5b50600436106101005760003560e01c80639e0a5d5911610097578063c59dfadb11610066578063c59dfadb146102d7578063d4a1b4b1146102f9578063d60d1a0914610320578063f463665f1461033357600080fd5b80639e0a5d591461025c578063ab5f3a011461026f578063b7cc53b314610282578063c0920f38146102c457600080fd5b8063467f4cb9116100d3578063467f4cb9146101ae57806351fc1735146101de578063568ecef1146101f357806388bc2ef31461023557600080fd5b806319781e23146101055780631eabcd341461012b57806330795ef81461016a5780633277b1a11461018b575b600080fd5b6101186101133660046128d9565b610346565b6040519081526020015b60405180910390f35b6101527f000000000000000000000000000000000000000000000000000000000000000081565b6040516001600160a01b039091168152602001610122565b61017d610178366004612921565b61043c565b604051610122929190612a0f565b61019e610199366004612b51565b6109ed565b6040516101229493929190612c85565b6101186101bc366004612d38565b6000602081815293815260408082208552928152828120909352825290205481565b6101f16101ec366004612d7a565b61118f565b005b610118610201366004612db2565b6002602090815260009586526040808720825294865284862081529285528385208352908452828420909152825290205481565b6101527f000000000000000000000000000000000000000000000000000000000000000081565b61011861026a366004612e04565b6111fa565b61011861027d366004612e36565b6112d5565b610118610290366004612db2565b6001602090815260009586526040808720825294865284862081529285528385208352908452828420909152825290205481565b61017d6102d2366004612921565b6113c3565b6102ea6102e5366004612e62565b611831565b60405161012293929190612f1f565b6101527f000000000000000000000000000000000000000000000000000000000000000081565b61011861032e366004612fc9565b611d5d565b610118610341366004613036565b611e56565b6040516321d1336160e11b81526004810183905260009081906001600160a01b037f000000000000000000000000000000000000000000000000000000000000000016906343a266c29060240161012060405180830381865afa1580156103b1573d6000803e3d6000fd5b505050506040513d601f19601f820116820180604052508101906103d59190613152565b61010081015190915060481c60019081161461040457604051632ac449f360e01b815260040160405180910390fd5b5050336000908152602081815260408083209483529381528382206001600160a01b0393909316825291909152908120805491905590565b610444612875565b6040516321d1336160e11b8152600481018690526000907f00000000000000000000000000000000000000000000000000000000000000006001600160a01b0316906343a266c29060240161012060405180830381865afa1580156104ad573d6000803e3d6000fd5b505050506040513d601f19601f820116820180604052508101906104d19190613152565b91506104e36060860160408701613203565b63ffffffff1683146105c5576105c0846104ff6012600a61331c565b6001600160a01b037f000000000000000000000000000000000000000000000000000000000000000016633be273fa8a8861054060608d0160408e01613203565b6040516001600160e01b031960e086901b1681526004810193909352602483019190915263ffffffff166044820152601260648201526084015b602060405180830381865afa158015610597573d6000803e3d6000fd5b505050506040513d601f19601f820116820180604052508101906105bb9190613328565b612160565b6105c7565b835b60408051600180825281830190925291925060009190816020015b60408051606081018252600080825260208083018290529282015282526000199092019101816105e257905050905061062036879003870187613352565b81600081518110610633576106336133a4565b60200260200101819052506000610678338984878b602001602081019061065a91906133ba565b60ff1661066d60608e0160408f01613203565b63ffffffff16612234565b9050808311156106aa57604051634fd2cdcd60e11b815260048101849052602481018290526044015b60405180910390fd5b336000908152602081815260408083208b845282528220859290916106d1908b018b6133d5565b6001600160a01b03166001600160a01b03168152602001908152602001600020546106fc91906133f2565b336000908152602081815260408083208c8452825282209190610721908b018b6133d5565b6001600160a01b031681526020808201929092526040908101600090812093909355338352600282528083208b84528252822088918390610764908c018c6133d5565b6001600160a01b03168152602080820192909252604090810160009081208984015165ffffffffffff16825283528181208a82529092529020546107a89190613405565b3360009081526002602090815260408083208d845282528220929350839291906107d4908c018c6133d5565b6001600160a01b039081168252602080830193909352604091820160009081208a85015165ffffffffffff16825284528281208b82529093528183209390935551632eec7b5560e11b8152600481018c905290917f00000000000000000000000000000000000000000000000000000000000000001690635dd8f6aa90602401602060405180830381865afa158015610871573d6000803e3d6000fd5b505050506040513d601f19601f820116820180604052508101906108959190613418565b6001600160a01b031663ffa082446040518163ffffffff1660e01b8152600401602060405180830381865afa1580156108d2573d6000803e3d6000fd5b505050506040513d601f19601f820116820180604052508101906108f69190613418565b6001600160a01b03166329ed16cd8b8860200151338d600001602081019061091e91906133d5565b6040516001600160e01b031960e087901b168152600481019490945265ffffffffffff90921660248401526001600160a01b039081166044840152166064820152608481018a905260a401602060405180830381865afa158015610986573d6000803e3d6000fd5b505050506040513d601f19601f820116820180604052508101906109aa9190613328565b9050808211806109b8575080155b156109e057604051631913147f60e01b815260048101839052602481018290526044016106a1565b5050505094509492505050565b6109f5612875565b60008060607f00000000000000000000000000000000000000000000000000000000000000006001600160a01b03166343a266c28b6040518263ffffffff1660e01b8152600401610a4891815260200190565b61012060405180830381865afa158015610a66573d6000803e3d6000fd5b505050506040513d601f19601f82011682018060405250810190610a8a9190613152565b610100810151909450600090604f1c600190811614610b2a57610b25338c8a8a808060200260200160405190810160405280939291908181526020016000905b82821015610af657610ae760608302860136819003810190613352565b81526020019060010190610aca565b5050505050888d6020016020810190610b0f91906133ba565b60ff168e604001602081019061066d9190613203565b610c32565b60405163d175415360e01b8152600481018c9052610c32908c906001600160a01b037f0000000000000000000000000000000000000000000000000000000000000000169063d175415390602401600060405180830381865afa158015610b95573d6000803e3d6000fd5b505050506040513d6000823e601f3d908101601f19168201604052610bbd9190810190613458565b6040805160008082526020820190925290610c00565b6040805160608101825260008082526020808301829052928201528252600019909201910181610bd35790505b50610c1160408e0160208f016133ba565b60ff168d6040016020810190610c279190613203565b63ffffffff16612296565b604051632eec7b5560e11b8152600481018d90529091506000906001600160a01b037f00000000000000000000000000000000000000000000000000000000000000001690635dd8f6aa90602401602060405180830381865afa158015610c9d573d6000803e3d6000fd5b505050506040513d601f19601f82011682018060405250810190610cc19190613418565b6001600160a01b0316634da781a98d6040518263ffffffff1660e01b8152600401610cee91815260200190565b602060405180830381865afa158015610d0b573d6000803e3d6000fd5b505050506040513d601f19601f82011682018060405250810190610d2f9190613328565b9050808b1115610d5c576040516376fd574b60e11b8152600481018c9052602481018290526044016106a1565b61010086015160511c6001908116148015610d8f57506000610d8387610100015160521c90565b6001600160a01b031614155b15610f26576000604051806101400160405280336001600160a01b031681526020018f6001600160a01b031681526020018e66ffffffffffffff168152602001886020015165ffffffffffff1681526020018d815260200183815260200160405180608001604052808e6000016020810190610e0b91906133d5565b6001600160a01b031681526020018e6020016020810190610e2c91906133ba565b60ff1681526020018e6040016020810190610e479190613203565b63ffffffff168152602001868152508152602001610e728961010001516001604f9190911c81161490565b15158152602001610e8889610100015160141c90565b61ffff1681526020018990529050610ea587610100015160521c90565b6001600160a01b031663fb82b1b0826040518263ffffffff1660e01b8152600401610ed091906134f1565b600060405180830381865afa158015610eed573d6000803e3d6000fd5b505050506040513d6000823e601f3d908101601f19168201604052610f15919081019061360c565b919e5091965094509150610f369050565b61010086015160141c61ffff1693505b8115610f4b57610f48828c8387612350565b94505b8251859015610fa457835160005b81811015610fa1576000868281518110610f7557610f756133a4565b602002602001015160200151905080600014610f9857610f958185613405565b93505b50600101610f59565b50505b600080336001600160a01b03166001600160a01b0316815260200190815260200160002060008e815260200190815260200160002060008c6000016020810190610fee91906133d5565b6001600160a01b03166001600160a01b03168152602001908152602001600020548111156110a65780600080336001600160a01b03166001600160a01b0316815260200190815260200160002060008f815260200190815260200160002060008d600001602081019061106191906133d5565b6001600160a01b03166001600160a01b0316815260200190815260200160002054604051634fd2cdcd60e11b81526004016106a1929190918252602082015260400190565b801561117e5780600080336001600160a01b03166001600160a01b0316815260200190815260200160002060008f815260200190815260200160002060008d60000160208101906110f791906133d5565b6001600160a01b03166001600160a01b031681526020019081526020016000205403600080336001600160a01b03166001600160a01b0316815260200190815260200160002060008f815260200190815260200160002060008d600001602081019061116391906133d5565b6001600160a01b031681526020810191909152604001600020555b505050975097509750979350505050565b3360009081526020818152604080832086845282528083206001600160a01b03861684529091529020546111c4908290613405565b336000908152602081815260408083209683529581528582206001600160a01b0395909516825293909352929091209190915550565b60008160000361120c575060006112cd565b8284111561121c575060006112cd565b6040516321d1336160e11b8152600481018690526000907f00000000000000000000000000000000000000000000000000000000000000006001600160a01b0316906343a266c29060240161012060405180830381865afa158015611285573d6000803e3d6000fd5b505050506040513d601f19601f820116820180604052508101906112a99190613152565b90506112c98386866112c085610100015160141c90565b61ffff16612350565b9150505b949350505050565b60006113b9847f00000000000000000000000000000000000000000000000000000000000000006001600160a01b031663d1754153876040518263ffffffff1660e01b815260040161132991815260200190565b600060405180830381865afa158015611346573d6000803e3d6000fd5b505050506040513d6000823e601f3d908101601f1916820160405261136e9190810190613458565b60408051600080825260208201909252906113b1565b60408051606081018252600080825260208083018290529282015282526000199092019101816113845790505b508686612296565b90505b9392505050565b6113cb612875565b6040516321d1336160e11b8152600481018690526000907f00000000000000000000000000000000000000000000000000000000000000006001600160a01b0316906343a266c29060240161012060405180830381865afa158015611434573d6000803e3d6000fd5b505050506040513d601f19601f820116820180604052508101906114589190613152565b915061146a6060860160408701613203565b63ffffffff16831461148b57611486846104ff6012600a61331c565b61148d565b835b336000908152602081815260408083208a8452825282209293506114b3908801886133d5565b6001600160a01b03166001600160a01b031681526020019081526020016000205481111561150257336000908152602081815260408083208984528252822083929091611061908901896133d5565b336000908152602081815260408083208984528252822083929091611529908901896133d5565b6001600160a01b0316815260208082019290925260409081016000908120543382528184528282208b8352845291812093909103929161156b908901896133d5565b6001600160a01b0316815260208082019290925260409081016000908120939093553383526001825280832089845282528220869183906115ae908a018a6133d5565b6001600160a01b0316815260208082019290925260409081016000908120875165ffffffffffff16825283528181208882529092529020546115f09190613405565b3360009081526001602090815260408083208b8452825282209293508392919061161c908a018a6133d5565b6001600160a01b03908116825260208083019390935260409182016000908120885165ffffffffffff16825284528281208982529093528183209390935551632eec7b5560e11b8152600481018a905290917f00000000000000000000000000000000000000000000000000000000000000001690635dd8f6aa90602401602060405180830381865afa1580156116b7573d6000803e3d6000fd5b505050506040513d601f19601f820116820180604052508101906116db9190613418565b6001600160a01b031663ffa082446040518163ffffffff1660e01b8152600401602060405180830381865afa158015611718573d6000803e3d6000fd5b505050506040513d601f19601f8201168201806040525081019061173c9190613418565b6001600160a01b0316638ca53ccd898660200151338b600001602081019061176491906133d5565b6040516001600160e01b031960e087901b168152600481019490945265ffffffffffff90921660248401526001600160a01b0390811660448401521660648201526084810188905260a401602060405180830381865afa1580156117cc573d6000803e3d6000fd5b505050506040513d601f19601f820116820180604052508101906117f09190613328565b9050808211806117fe575080155b15611826576040516306dfadfd60e21b815260048101839052602481018290526044016106a1565b505094509492505050565b611839612875565b6040516321d1336160e11b8152600481018690526000906060906001600160a01b037f000000000000000000000000000000000000000000000000000000000000000016906343a266c29060240161012060405180830381865afa1580156118a5573d6000803e3d6000fd5b505050506040513d601f19601f820116820180604052508101906118c99190613152565b805190935065ffffffffffff166000036118f65760405163ab28886760e01b815260040160405180910390fd5b61010083015160441c600190811603611922576040516316900c7560e21b815260040160405180910390fd5b61010083015160009060501c60019081161480156119585750600061194c85610100015160521c90565b6001600160a01b031614155b15611ab25760408051610120810182523381526001600160a01b038c166020820152600091810161198e368d90038d018d61372c565b81526020018a66ffffffffffffff168152602001866020015165ffffffffffff168152602001896001600160a01b031681526020018660a001516001600160701b031681526020016119e587610100015160041c90565b61ffff16815260200188888080601f01602080910402602001604051908101604052809392919081815260200183838082843760009201919091525050509152509050611a3785610100015160521c90565b6001600160a01b0316638cc35846826040518263ffffffff1660e01b8152600401611a6291906137a7565b600060405180830381865afa158015611a7f573d6000803e3d6000fd5b505050506040513d6000823e601f3d908101601f19168201604052611aa79190810190613885565b93509150611ac29050565b5060a08301516001600160701b03165b815160608a0135908015611b485760005b81811015611b46576000858281518110611aef57611aef6133a4565b602002602001015160200151905080600014611b3d5783811115611b30576040516301a3406160e01b815260048101829052602481018590526044016106a1565b611b3a81856133f2565b93505b50600101611ad3565b505b508960600135600003611b61575060009250611d519050565b8015611bf957336000908152602081815260408083208c84528252822083929091611b8e908e018e6133d5565b6001600160a01b03166001600160a01b0316815260200190815260200160002054611bb99190613405565b336000908152602081815260408083208d8452825282209190611bde908e018e6133d5565b6001600160a01b031681526020810191909152604001600020555b81600003611c0d575060009250611d519050565b6000611c1e86610100015160241c90565b63ffffffff16611c3460608d0160408e01613203565b63ffffffff1614611d1f577f00000000000000000000000000000000000000000000000000000000000000006001600160a01b0316633be273fa8b8d6040016020810190611c829190613203565b6101008a015160241c8f6020016020810190611c9e91906133ba565b6040516001600160e01b031960e087901b168152600481019490945263ffffffff92831660248501529116604483015260ff166064820152608401602060405180830381865afa158015611cf6573d6000803e3d6000fd5b505050506040513d601f19601f82011682018060405250810190611d1a9190613328565b611d3a565b611d2f60408c0160208d016133ba565b611d3a90600a613992565b9050611d4b8b606001358483612160565b94505050505b96509650969350505050565b6000611e4987878787808060200260200160405190810160405280939291908181526020016000905b82821015611db257611da360608302860136819003810190613352565b81526020019060010190611d86565b50506040516321d1336160e11b8152600481018e90527f00000000000000000000000000000000000000000000000000000000000000006001600160a01b031693506343a266c29250602401905061012060405180830381865afa158015611e1e573d6000803e3d6000fd5b505050506040513d601f19601f82011682018060405250810190611e429190613152565b8787612234565b90505b9695505050505050565b6040516321d1336160e11b81526004810189905260009081906001600160a01b037f000000000000000000000000000000000000000000000000000000000000000016906343a266c29060240161012060405180830381865afa158015611ec1573d6000803e3d6000fd5b505050506040513d601f19601f82011682018060405250810190611ee59190613152565b905060006120148b898303611f865760405163d175415360e01b8152600481018e90526001600160a01b037f0000000000000000000000000000000000000000000000000000000000000000169063d175415390602401600060405180830381865afa158015611f59573d6000803e3d6000fd5b505050506040513d6000823e601f3d908101601f19168201604052611f819190810190613458565b611fba565b8a8a808060200260200160405190810160405280939291908181526020018383602002808284376000920191909152505050505b8989808060200260200160405190810160405280939291908181526020016000905b8282101561200857611ff960608302860136819003810190613352565b81526020019060010190611fdc565b50505050508888612296565b90508060000361202957600092505050612154565b604051632eec7b5560e11b8152600481018c90526000907f00000000000000000000000000000000000000000000000000000000000000006001600160a01b031690635dd8f6aa90602401602060405180830381865afa158015612091573d6000803e3d6000fd5b505050506040513d601f19601f820116820180604052508101906120b59190613418565b6001600160a01b0316634da781a98d6040518263ffffffff1660e01b81526004016120e291815260200190565b602060405180830381865afa1580156120ff573d6000803e3d6000fd5b505050506040513d601f19601f820116820180604052508101906121239190613328565b9050808b11156121395760009350505050612154565b61214e828c836112c087610100015160141c90565b93505050505b98975050505050505050565b600080806000198587098587029250828110838203039150508060000361219a57838281612190576121906139a1565b04925050506113bc565b8381106121cb57604051630c740aef60e31b81526004810187905260248101869052604481018590526064016106a1565b60008486880960026001871981018816978890046003810283188082028403028082028403028082028403028082028403028082028403029081029092039091026000889003889004909101858311909403939093029303949094049190911702949350505050565b8351600090815b8181101561228a57600061226c8a8a8a858151811061225c5761225c6133a4565b60200260200101518a8a8a6123bd565b905080156122815761227e8185613405565b93505b5060010161223b565b50509695505050505050565b8351600090815b81811015612345578681815181106122b7576122b76133a4565b60200260200101516001600160a01b031663edb40950898888886040518563ffffffff1660e01b81526004016122f094939291906139b7565b602060405180830381865afa15801561230d573d6000803e3d6000fd5b505050506040513d601f19601f820116820180604052508101906123319190613328565b61233b9084613405565b925060010161229d565b505095945050505050565b600061270f198201612364575060006112cd565b8284106123725750836112cd565b600061237f868686612160565b9050826000036123905790506112cd565b6112c98161239f858888612160565b6123ab866127106133f2565b6123b59190613405565b612710612160565b6001600160a01b03808716600090815260208181526040808320898452825280832088519094168352928152919020549085015160ff1683146124115761240c81866020015160ff1685612818565b612413565b805b905080158061242b575081856040015163ffffffff16145b6124b1576124ac8161243f6012600a61331c565b6040888101519051631df139fd60e11b8152600481018b905263ffffffff909116602482015260448101869052601260648201527f00000000000000000000000000000000000000000000000000000000000000006001600160a01b031690633be273fa9060840161057a565b6124b3565b805b604051632eec7b5560e11b8152600481018890529091506000906001600160a01b037f00000000000000000000000000000000000000000000000000000000000000001690635dd8f6aa90602401602060405180830381865afa15801561251e573d6000803e3d6000fd5b505050506040513d601f19601f820116820180604052508101906125429190613418565b6001600160a01b031663ffa082446040518163ffffffff1660e01b8152600401602060405180830381865afa15801561257f573d6000803e3d6000fd5b505050506040513d601f19601f820116820180604052508101906125a39190613418565b60208601518751604051634c8cafef60e11b8152600481018b905265ffffffffffff90921660248301526001600160a01b038b81166044840152908116606483015291909116906399195fde90608401600060405180830381865afa158015612610573d6000803e3d6000fd5b505050506040513d6000823e601f3d908101601f191682016040526126389190810190613a39565b805190915060005b8181101561280b57600083828151811061265c5761265c6133a4565b6020908102919091018101516001600160a01b03808e1660009081526001845260408082208f835285528082208e5190931682529184528181208c5165ffffffffffff16825284528181208385015163ffffffff1682529093529091205481519192506126d1916001600160e01b03166133f2565b6001600160e01b03168152602089015160ff16871461270e5761270981600001516001600160e01b03168a6020015160ff1689612818565b612711565b80515b6001600160e01b03168082521580612732575085816020015163ffffffff16145b6127c35780516127be906001600160e01b03166127516012600a61331c565b6020840151604051631df139fd60e11b8152600481018f905263ffffffff9091166024820152604481018a9052601260648201526001600160a01b037f00000000000000000000000000000000000000000000000000000000000000001690633be273fa9060840161057a565b6127c6565b80515b6001600160e01b03168082528511156127f55780516127ee906001600160e01b0316866133f2565b9450612802565b6000945050505050611e4c565b50600101612640565b5050509695505050505050565b60008282036128285750826113bc565b828211156128565761283a83836133f2565b61284590600a61331c565b61284f9085613b03565b90506113bc565b61286082846133f2565b61286b90600a61331c565b61284f9085613b1a565b6040805161012081018252600080825260208201819052918101829052606081018290526080810182905260a0810182905260c0810182905260e0810182905261010081019190915290565b6001600160a01b03811681146128d657600080fd5b50565b600080604083850312156128ec57600080fd5b8235915060208301356128fe816128c1565b809150509250929050565b60006060828403121561291b57600080fd5b50919050565b60008060008060c0858703121561293757600080fd5b843593506129488660208701612909565b939693955050505060808201359160a0013590565b65ffffffffffff80825116835280602083015116602084015280604083015116604084015250606081015161299c606084018265ffffffffffff169052565b5060808101516129b4608084018263ffffffff169052565b5060a08101516129cf60a08401826001600160701b03169052565b5060c08101516129e760c084018263ffffffff169052565b5060e0810151612a0260e08401826001600160a01b03169052565b5061010090810151910152565b6101408101612a1e828561295d565b826101208301529392505050565b60008083601f840112612a3e57600080fd5b5081356001600160401b03811115612a5557600080fd5b602083019150836020606083028501011115612a7057600080fd5b9250929050565b634e487b7160e01b600052604160045260246000fd5b60405161012081016001600160401b0381118282101715612ab057612ab0612a77565b60405290565b604051606081016001600160401b0381118282101715612ab057612ab0612a77565b604080519081016001600160401b0381118282101715612ab057612ab0612a77565b604051601f8201601f191681016001600160401b0381118282101715612b2257612b22612a77565b604052919050565b60006001600160401b03821115612b4357612b43612a77565b50601f01601f191660200190565b6000806000806000806000610100888a031215612b6d57600080fd5b8735612b78816128c1565b96506020880135955060408801359450612b958960608a01612909565b935060c08801356001600160401b0380821115612bb157600080fd5b612bbd8b838c01612a2c565b909550935060e08a0135915080821115612bd657600080fd5b508801601f81018a13612be857600080fd5b8035612bfb612bf682612b2a565b612afa565b8181528b6020838501011115612c1057600080fd5b8160208401602083013760006020838301015280935050505092959891949750929550565b60005b83811015612c50578181015183820152602001612c38565b50506000910152565b60008151808452612c71816020860160208601612c35565b601f01601f19169290920160200192915050565b6000610180808301612c97848961295d565b86610120850152856101408501528161016085015280915084518082526101a091508185019250818160051b8601019150602080870160005b83811015612d285787850361019f19018652815180516001600160a01b031686528381015184870152604090810151606091870182905290612d1481880183612c59565b978501979650505090820190600101612cd0565b50929a9950505050505050505050565b600080600060608486031215612d4d57600080fd5b8335612d58816128c1565b9250602084013591506040840135612d6f816128c1565b809150509250925092565b600080600060608486031215612d8f57600080fd5b833592506020840135612da1816128c1565b929592945050506040919091013590565b600080600080600060a08688031215612dca57600080fd5b8535612dd5816128c1565b9450602086013593506040860135612dec816128c1565b94979396509394606081013594506080013592915050565b60008060008060808587031215612e1a57600080fd5b5050823594602084013594506040840135936060013592509050565b600080600060608486031215612e4b57600080fd5b505081359360208301359350604090920135919050565b600080600080600080868803610100811215612e7d57600080fd5b8735612e88816128c1565b96506080601f1982011215612e9c57600080fd5b5060208701945060a0870135935060c0870135612eb8816128c1565b925060e08701356001600160401b0380821115612ed457600080fd5b818901915089601f830112612ee857600080fd5b813581811115612ef757600080fd5b8a6020828501011115612f0957600080fd5b6020830194508093505050509295509295509295565b6000610160808301612f31848861295d565b610120840186905261014084019190915283519081905261018080840191600581901b850190910190602080870160005b83811015612fba5787850361017f19018652815180516001600160a01b031686528381015184870152604090810151606091870182905290612fa681880183612c59565b978501979650505090820190600101612f62565b50929998505050505050505050565b60008060008060008060a08789031215612fe257600080fd5b8635612fed816128c1565b95506020870135945060408701356001600160401b0381111561300f57600080fd5b61301b89828a01612a2c565b979a9699509760608101359660809091013595509350505050565b60008060008060008060008060c0898b03121561305257600080fd5b883597506020890135965060408901356001600160401b038082111561307757600080fd5b818b0191508b601f83011261308b57600080fd5b81358181111561309a57600080fd5b8c60208260051b85010111156130af57600080fd5b6020830198508097505060608b01359150808211156130cd57600080fd5b506130da8b828c01612a2c565b999c989b5096999598969760808701359660a0013595509350505050565b805165ffffffffffff8116811461310e57600080fd5b919050565b63ffffffff811681146128d657600080fd5b805161310e81613113565b80516001600160701b038116811461310e57600080fd5b805161310e816128c1565b6000610120828403121561316557600080fd5b61316d612a8d565b613176836130f8565b8152613184602084016130f8565b6020820152613195604084016130f8565b60408201526131a6606084016130f8565b60608201526131b760808401613125565b60808201526131c860a08401613130565b60a08201526131d960c08401613125565b60c08201526131ea60e08401613147565b60e0820152610100928301519281019290925250919050565b60006020828403121561321557600080fd5b81356113bc81613113565b634e487b7160e01b600052601160045260246000fd5b600181815b8085111561327157816000190482111561325757613257613220565b8085161561326457918102915b93841c939080029061323b565b509250929050565b60008261328857506001613316565b8161329557506000613316565b81600181146132ab57600281146132b5576132d1565b6001915050613316565b60ff8411156132c6576132c6613220565b50506001821b613316565b5060208310610133831016604e8410600b84101617156132f4575081810a613316565b6132fe8383613236565b806000190482111561331257613312613220565b0290505b92915050565b60006113bc8383613279565b60006020828403121561333a57600080fd5b5051919050565b803560ff8116811461310e57600080fd5b60006060828403121561336457600080fd5b61336c612ab6565b8235613377816128c1565b815261338560208401613341565b6020820152604083013561339881613113565b60408201529392505050565b634e487b7160e01b600052603260045260246000fd5b6000602082840312156133cc57600080fd5b6113bc82613341565b6000602082840312156133e757600080fd5b81356113bc816128c1565b8181038181111561331657613316613220565b8082018082111561331657613316613220565b60006020828403121561342a57600080fd5b81516113bc816128c1565b60006001600160401b0382111561344e5761344e612a77565b5060051b60200190565b6000602080838503121561346b57600080fd5b82516001600160401b0381111561348157600080fd5b8301601f8101851361349257600080fd5b80516134a0612bf682613435565b81815260059190911b820183019083810190878311156134bf57600080fd5b928401925b828410156134e65783516134d7816128c1565b825292840192908401906134c4565b979650505050505050565b6020815261350b6020820183516001600160a01b03169052565b6000602083015161352760408401826001600160a01b03169052565b506040830151606083015260608301516080830152608083015160a083015260a083015160c083015260c083015161359260e084018280516001600160a01b0316825260208082015160ff169083015260408082015163ffffffff1690830152606090810151910152565b5060e083015115156101608301526101008301516101808301526101208301516101a0808401526112cd6101c0840182612c59565b600082601f8301126135d857600080fd5b81516135e6612bf682612b2a565b8181528460208386010111156135fb57600080fd5b6112cd826020830160208701612c35565b6000806000806080858703121561362257600080fd5b84519350602085015192506040850151915060608501516001600160401b038082111561364e57600080fd5b818701915087601f83011261366257600080fd5b8151613670612bf682613435565b8082825260208201915060208360051b86010192508a83111561369257600080fd5b602085015b8381101561371c578051858111156136ae57600080fd5b86016060818e03601f190112156136c457600080fd5b6136cc612ab6565b60208201516136da816128c1565b8152604082015160208201526060820151878111156136f857600080fd5b6137078f6020838601016135c7565b60408301525084525060209283019201613697565b50979a9699509497505050505050565b60006080828403121561373e57600080fd5b604051608081018181106001600160401b038211171561376057613760612a77565b604052823561376e816128c1565b815261377c60208401613341565b6020820152604083013561378f81613113565b60408201526060928301359281019290925250919050565b602081526137c16020820183516001600160a01b03169052565b600060208301516137dd60408401826001600160a01b03169052565b506040830151613820606084018280516001600160a01b0316825260208082015160ff169083015260408082015163ffffffff1690830152606090810151910152565b50606083015160e08301526080830151610100818185015260a085015191506138556101208501836001600160a01b03169052565b60c085015161014085015260e08501516101608501528401516101808085015290506112cd6101a0840182612c59565b6000806040838503121561389857600080fd5b825191506020808401516001600160401b03808211156138b757600080fd5b818601915086601f8301126138cb57600080fd5b81516138d9612bf682613435565b81815260059190911b830184019084810190898311156138f857600080fd5b8585015b83811015613981578051858111156139145760008081fd5b86016060818d03601f190181131561392c5760008081fd5b613934612ab6565b89830151613941816128c1565b815260408301518a82015290820151908782111561395f5760008081fd5b61396d8e8b848601016135c7565b6040820152855250509186019186016138fc565b508096505050505050509250929050565b60006113bc60ff841683613279565b634e487b7160e01b600052601260045260246000fd5b60006080820186835260206080602085015281875180845260a08601915060208901935060005b81811015613a2257845180516001600160a01b031684528481015160ff168585015260409081015163ffffffff1690840152938301936060909201916001016139de565b505060408501969096525050506060015292915050565b60006020808385031215613a4c57600080fd5b82516001600160401b03811115613a6257600080fd5b8301601f81018513613a7357600080fd5b8051613a81612bf682613435565b81815260069190911b82018301908381019087831115613aa057600080fd5b928401925b828410156134e65760408489031215613abe5760008081fd5b613ac6612ad8565b84516001600160e01b0381168114613ade5760008081fd5b815284860151613aed81613113565b8187015282526040939093019290840190613aa5565b808202811582820484141761331657613316613220565b600082613b3757634e487b7160e01b600052601260045260246000fd5b50049056fea2646970667358221220078b4d704f3a843d885930dc6b844212e803849a4c44e6b229931a0876bea4db64736f6c63430008170033",
	"deployedBytecode": "0x608060405234801561001057600080fd5b50600436106101005760003560e01c80639e0a5d5911610097578063c59dfadb11610066578063c59dfadb146102d7578063d4a1b4b1146102f9578063d60d1a0914610320578063f463665f1461033357600080fd5b80639e0a5d591461025c578063ab5f3a011461026f578063b7cc53b314610282578063c0920f38146102c457600080fd5b8063467f4cb9116100d3578063467f4cb9146101ae57806351fc1735146101de578063568ecef1146101f357806388bc2ef31461023557600080fd5b806319781e23146101055780631eabcd341461012b57806330795ef81461016a5780633277b1a11461018b575b600080fd5b6101186101133660046128d9565b610346565b6040519081526020015b60405180910390f35b6101527f0000000000000000000000008c88469ca3aa9de6ab22c5113ae2a8e20329fd8c81565b6040516001600160a01b039091168152602001610122565b61017d610178366004612921565b61043c565b604051610122929190612a0f565b61019e610199366004612b51565b6109ed565b6040516101229493929190612c85565b6101186101bc366004612d38565b6000602081815293815260408082208552928152828120909352825290205481565b6101f16101ec366004612d7a565b61118f565b005b610118610201366004612db2565b6002602090815260009586526040808720825294865284862081529285528385208352908452828420909152825290205481565b6101527f0000000000000000000000005adb234602d074064c216c1fdb23c6c2031f0c7581565b61011861026a366004612e04565b6111fa565b61011861027d366004612e36565b6112d5565b610118610290366004612db2565b6001602090815260009586526040808720825294865284862081529285528385208352908452828420909152825290205481565b61017d6102d2366004612921565b6113c3565b6102ea6102e5366004612e62565b611831565b60405161012293929190612f1f565b6101527f000000000000000000000000c052725ff9888ce3148aa8bfb5063f1a5028946d81565b61011861032e366004612fc9565b611d5d565b610118610341366004613036565b611e56565b6040516321d1336160e11b81526004810183905260009081906001600160a01b037f000000000000000000000000c052725ff9888ce3148aa8bfb5063f1a5028946d16906343a266c29060240161012060405180830381865afa1580156103b1573d6000803e3d6000fd5b505050506040513d601f19601f820116820180604052508101906103d59190613152565b61010081015190915060481c60019081161461040457604051632ac449f360e01b815260040160405180910390fd5b5050336000908152602081815260408083209483529381528382206001600160a01b0393909316825291909152908120805491905590565b610444612875565b6040516321d1336160e11b8152600481018690526000907f000000000000000000000000c052725ff9888ce3148aa8bfb5063f1a5028946d6001600160a01b0316906343a266c29060240161012060405180830381865afa1580156104ad573d6000803e3d6000fd5b505050506040513d601f19601f820116820180604052508101906104d19190613152565b91506104e36060860160408701613203565b63ffffffff1683146105c5576105c0846104ff6012600a61331c565b6001600160a01b037f0000000000000000000000008c88469ca3aa9de6ab22c5113ae2a8e20329fd8c16633be273fa8a8861054060608d0160408e01613203565b6040516001600160e01b031960e086901b1681526004810193909352602483019190915263ffffffff166044820152601260648201526084015b602060405180830381865afa158015610597573d6000803e3d6000fd5b505050506040513d601f19601f820116820180604052508101906105bb9190613328565b612160565b6105c7565b835b60408051600180825281830190925291925060009190816020015b60408051606081018252600080825260208083018290529282015282526000199092019101816105e257905050905061062036879003870187613352565b81600081518110610633576106336133a4565b60200260200101819052506000610678338984878b602001602081019061065a91906133ba565b60ff1661066d60608e0160408f01613203565b63ffffffff16612234565b9050808311156106aa57604051634fd2cdcd60e11b815260048101849052602481018290526044015b60405180910390fd5b336000908152602081815260408083208b845282528220859290916106d1908b018b6133d5565b6001600160a01b03166001600160a01b03168152602001908152602001600020546106fc91906133f2565b336000908152602081815260408083208c8452825282209190610721908b018b6133d5565b6001600160a01b031681526020808201929092526040908101600090812093909355338352600282528083208b84528252822088918390610764908c018c6133d5565b6001600160a01b03168152602080820192909252604090810160009081208984015165ffffffffffff16825283528181208a82529092529020546107a89190613405565b3360009081526002602090815260408083208d845282528220929350839291906107d4908c018c6133d5565b6001600160a01b039081168252602080830193909352604091820160009081208a85015165ffffffffffff16825284528281208b82529093528183209390935551632eec7b5560e11b8152600481018c905290917f0000000000000000000000005adb234602d074064c216c1fdb23c6c2031f0c751690635dd8f6aa90602401602060405180830381865afa158015610871573d6000803e3d6000fd5b505050506040513d601f19601f820116820180604052508101906108959190613418565b6001600160a01b031663ffa082446040518163ffffffff1660e01b8152600401602060405180830381865afa1580156108d2573d6000803e3d6000fd5b505050506040513d601f19601f820116820180604052508101906108f69190613418565b6001600160a01b03166329ed16cd8b8860200151338d600001602081019061091e91906133d5565b6040516001600160e01b031960e087901b168152600481019490945265ffffffffffff90921660248401526001600160a01b039081166044840152166064820152608481018a905260a401602060405180830381865afa158015610986573d6000803e3d6000fd5b505050506040513d601f19601f820116820180604052508101906109aa9190613328565b9050808211806109b8575080155b156109e057604051631913147f60e01b815260048101839052602481018290526044016106a1565b5050505094509492505050565b6109f5612875565b60008060607f000000000000000000000000c052725ff9888ce3148aa8bfb5063f1a5028946d6001600160a01b03166343a266c28b6040518263ffffffff1660e01b8152600401610a4891815260200190565b61012060405180830381865afa158015610a66573d6000803e3d6000fd5b505050506040513d601f19601f82011682018060405250810190610a8a9190613152565b610100810151909450600090604f1c600190811614610b2a57610b25338c8a8a808060200260200160405190810160405280939291908181526020016000905b82821015610af657610ae760608302860136819003810190613352565b81526020019060010190610aca565b5050505050888d6020016020810190610b0f91906133ba565b60ff168e604001602081019061066d9190613203565b610c32565b60405163d175415360e01b8152600481018c9052610c32908c906001600160a01b037f0000000000000000000000005adb234602d074064c216c1fdb23c6c2031f0c75169063d175415390602401600060405180830381865afa158015610b95573d6000803e3d6000fd5b505050506040513d6000823e601f3d908101601f19168201604052610bbd9190810190613458565b6040805160008082526020820190925290610c00565b6040805160608101825260008082526020808301829052928201528252600019909201910181610bd35790505b50610c1160408e0160208f016133ba565b60ff168d6040016020810190610c279190613203565b63ffffffff16612296565b604051632eec7b5560e11b8152600481018d90529091506000906001600160a01b037f0000000000000000000000005adb234602d074064c216c1fdb23c6c2031f0c751690635dd8f6aa90602401602060405180830381865afa158015610c9d573d6000803e3d6000fd5b505050506040513d601f19601f82011682018060405250810190610cc19190613418565b6001600160a01b0316634da781a98d6040518263ffffffff1660e01b8152600401610cee91815260200190565b602060405180830381865afa158015610d0b573d6000803e3d6000fd5b505050506040513d601f19601f82011682018060405250810190610d2f9190613328565b9050808b1115610d5c576040516376fd574b60e11b8152600481018c9052602481018290526044016106a1565b61010086015160511c6001908116148015610d8f57506000610d8387610100015160521c90565b6001600160a01b031614155b15610f26576000604051806101400160405280336001600160a01b031681526020018f6001600160a01b031681526020018e66ffffffffffffff168152602001886020015165ffffffffffff1681526020018d815260200183815260200160405180608001604052808e6000016020810190610e0b91906133d5565b6001600160a01b031681526020018e6020016020810190610e2c91906133ba565b60ff1681526020018e6040016020810190610e479190613203565b63ffffffff168152602001868152508152602001610e728961010001516001604f9190911c81161490565b15158152602001610e8889610100015160141c90565b61ffff1681526020018990529050610ea587610100015160521c90565b6001600160a01b031663fb82b1b0826040518263ffffffff1660e01b8152600401610ed091906134f1565b600060405180830381865afa158015610eed573d6000803e3d6000fd5b505050506040513d6000823e601f3d908101601f19168201604052610f15919081019061360c565b919e5091965094509150610f369050565b61010086015160141c61ffff1693505b8115610f4b57610f48828c8387612350565b94505b8251859015610fa457835160005b81811015610fa1576000868281518110610f7557610f756133a4565b602002602001015160200151905080600014610f9857610f958185613405565b93505b50600101610f59565b50505b600080336001600160a01b03166001600160a01b0316815260200190815260200160002060008e815260200190815260200160002060008c6000016020810190610fee91906133d5565b6001600160a01b03166001600160a01b03168152602001908152602001600020548111156110a65780600080336001600160a01b03166001600160a01b0316815260200190815260200160002060008f815260200190815260200160002060008d600001602081019061106191906133d5565b6001600160a01b03166001600160a01b0316815260200190815260200160002054604051634fd2cdcd60e11b81526004016106a1929190918252602082015260400190565b801561117e5780600080336001600160a01b03166001600160a01b0316815260200190815260200160002060008f815260200190815260200160002060008d60000160208101906110f791906133d5565b6001600160a01b03166001600160a01b031681526020019081526020016000205403600080336001600160a01b03166001600160a01b0316815260200190815260200160002060008f815260200190815260200160002060008d600001602081019061116391906133d5565b6001600160a01b031681526020810191909152604001600020555b505050975097509750979350505050565b3360009081526020818152604080832086845282528083206001600160a01b03861684529091529020546111c4908290613405565b336000908152602081815260408083209683529581528582206001600160a01b0395909516825293909352929091209190915550565b60008160000361120c575060006112cd565b8284111561121c575060006112cd565b6040516321d1336160e11b8152600481018690526000907f000000000000000000000000c052725ff9888ce3148aa8bfb5063f1a5028946d6001600160a01b0316906343a266c29060240161012060405180830381865afa158015611285573d6000803e3d6000fd5b505050506040513d601f19601f820116820180604052508101906112a99190613152565b90506112c98386866112c085610100015160141c90565b61ffff16612350565b9150505b949350505050565b60006113b9847f0000000000000000000000005adb234602d074064c216c1fdb23c6c2031f0c756001600160a01b031663d1754153876040518263ffffffff1660e01b815260040161132991815260200190565b600060405180830381865afa158015611346573d6000803e3d6000fd5b505050506040513d6000823e601f3d908101601f1916820160405261136e9190810190613458565b60408051600080825260208201909252906113b1565b60408051606081018252600080825260208083018290529282015282526000199092019101816113845790505b508686612296565b90505b9392505050565b6113cb612875565b6040516321d1336160e11b8152600481018690526000907f000000000000000000000000c052725ff9888ce3148aa8bfb5063f1a5028946d6001600160a01b0316906343a266c29060240161012060405180830381865afa158015611434573d6000803e3d6000fd5b505050506040513d601f19601f820116820180604052508101906114589190613152565b915061146a6060860160408701613203565b63ffffffff16831461148b57611486846104ff6012600a61331c565b61148d565b835b336000908152602081815260408083208a8452825282209293506114b3908801886133d5565b6001600160a01b03166001600160a01b031681526020019081526020016000205481111561150257336000908152602081815260408083208984528252822083929091611061908901896133d5565b336000908152602081815260408083208984528252822083929091611529908901896133d5565b6001600160a01b0316815260208082019290925260409081016000908120543382528184528282208b8352845291812093909103929161156b908901896133d5565b6001600160a01b0316815260208082019290925260409081016000908120939093553383526001825280832089845282528220869183906115ae908a018a6133d5565b6001600160a01b0316815260208082019290925260409081016000908120875165ffffffffffff16825283528181208882529092529020546115f09190613405565b3360009081526001602090815260408083208b8452825282209293508392919061161c908a018a6133d5565b6001600160a01b03908116825260208083019390935260409182016000908120885165ffffffffffff16825284528281208982529093528183209390935551632eec7b5560e11b8152600481018a905290917f0000000000000000000000005adb234602d074064c216c1fdb23c6c2031f0c751690635dd8f6aa90602401602060405180830381865afa1580156116b7573d6000803e3d6000fd5b505050506040513d601f19601f820116820180604052508101906116db9190613418565b6001600160a01b031663ffa082446040518163ffffffff1660e01b8152600401602060405180830381865afa158015611718573d6000803e3d6000fd5b505050506040513d601f19601f8201168201806040525081019061173c9190613418565b6001600160a01b0316638ca53ccd898660200151338b600001602081019061176491906133d5565b6040516001600160e01b031960e087901b168152600481019490945265ffffffffffff90921660248401526001600160a01b0390811660448401521660648201526084810188905260a401602060405180830381865afa1580156117cc573d6000803e3d6000fd5b505050506040513d601f19601f820116820180604052508101906117f09190613328565b9050808211806117fe575080155b15611826576040516306dfadfd60e21b815260048101839052602481018290526044016106a1565b505094509492505050565b611839612875565b6040516321d1336160e11b8152600481018690526000906060906001600160a01b037f000000000000000000000000c052725ff9888ce3148aa8bfb5063f1a5028946d16906343a266c29060240161012060405180830381865afa1580156118a5573d6000803e3d6000fd5b505050506040513d601f19601f820116820180604052508101906118c99190613152565b805190935065ffffffffffff166000036118f65760405163ab28886760e01b815260040160405180910390fd5b61010083015160441c600190811603611922576040516316900c7560e21b815260040160405180910390fd5b61010083015160009060501c60019081161480156119585750600061194c85610100015160521c90565b6001600160a01b031614155b15611ab25760408051610120810182523381526001600160a01b038c166020820152600091810161198e368d90038d018d61372c565b81526020018a66ffffffffffffff168152602001866020015165ffffffffffff168152602001896001600160a01b031681526020018660a001516001600160701b031681526020016119e587610100015160041c90565b61ffff16815260200188888080601f01602080910402602001604051908101604052809392919081815260200183838082843760009201919091525050509152509050611a3785610100015160521c90565b6001600160a01b0316638cc35846826040518263ffffffff1660e01b8152600401611a6291906137a7565b600060405180830381865afa158015611a7f573d6000803e3d6000fd5b505050506040513d6000823e601f3d908101601f19168201604052611aa79190810190613885565b93509150611ac29050565b5060a08301516001600160701b03165b815160608a0135908015611b485760005b81811015611b46576000858281518110611aef57611aef6133a4565b602002602001015160200151905080600014611b3d5783811115611b30576040516301a3406160e01b815260048101829052602481018590526044016106a1565b611b3a81856133f2565b93505b50600101611ad3565b505b508960600135600003611b61575060009250611d519050565b8015611bf957336000908152602081815260408083208c84528252822083929091611b8e908e018e6133d5565b6001600160a01b03166001600160a01b0316815260200190815260200160002054611bb99190613405565b336000908152602081815260408083208d8452825282209190611bde908e018e6133d5565b6001600160a01b031681526020810191909152604001600020555b81600003611c0d575060009250611d519050565b6000611c1e86610100015160241c90565b63ffffffff16611c3460608d0160408e01613203565b63ffffffff1614611d1f577f0000000000000000000000008c88469ca3aa9de6ab22c5113ae2a8e20329fd8c6001600160a01b0316633be273fa8b8d6040016020810190611c829190613203565b6101008a015160241c8f6020016020810190611c9e91906133ba565b6040516001600160e01b031960e087901b168152600481019490945263ffffffff92831660248501529116604483015260ff166064820152608401602060405180830381865afa158015611cf6573d6000803e3d6000fd5b505050506040513d601f19601f82011682018060405250810190611d1a9190613328565b611d3a565b611d2f60408c0160208d016133ba565b611d3a90600a613992565b9050611d4b8b606001358483612160565b94505050505b96509650969350505050565b6000611e4987878787808060200260200160405190810160405280939291908181526020016000905b82821015611db257611da360608302860136819003810190613352565b81526020019060010190611d86565b50506040516321d1336160e11b8152600481018e90527f000000000000000000000000c052725ff9888ce3148aa8bfb5063f1a5028946d6001600160a01b031693506343a266c29250602401905061012060405180830381865afa158015611e1e573d6000803e3d6000fd5b505050506040513d601f19601f82011682018060405250810190611e429190613152565b8787612234565b90505b9695505050505050565b6040516321d1336160e11b81526004810189905260009081906001600160a01b037f000000000000000000000000c052725ff9888ce3148aa8bfb5063f1a5028946d16906343a266c29060240161012060405180830381865afa158015611ec1573d6000803e3d6000fd5b505050506040513d601f19601f82011682018060405250810190611ee59190613152565b905060006120148b898303611f865760405163d175415360e01b8152600481018e90526001600160a01b037f0000000000000000000000005adb234602d074064c216c1fdb23c6c2031f0c75169063d175415390602401600060405180830381865afa158015611f59573d6000803e3d6000fd5b505050506040513d6000823e601f3d908101601f19168201604052611f819190810190613458565b611fba565b8a8a808060200260200160405190810160405280939291908181526020018383602002808284376000920191909152505050505b8989808060200260200160405190810160405280939291908181526020016000905b8282101561200857611ff960608302860136819003810190613352565b81526020019060010190611fdc565b50505050508888612296565b90508060000361202957600092505050612154565b604051632eec7b5560e11b8152600481018c90526000907f0000000000000000000000005adb234602d074064c216c1fdb23c6c2031f0c756001600160a01b031690635dd8f6aa90602401602060405180830381865afa158015612091573d6000803e3d6000fd5b505050506040513d601f19601f820116820180604052508101906120b59190613418565b6001600160a01b0316634da781a98d6040518263ffffffff1660e01b81526004016120e291815260200190565b602060405180830381865afa1580156120ff573d6000803e3d6000fd5b505050506040513d601f19601f820116820180604052508101906121239190613328565b9050808b11156121395760009350505050612154565b61214e828c836112c087610100015160141c90565b93505050505b98975050505050505050565b600080806000198587098587029250828110838203039150508060000361219a57838281612190576121906139a1565b04925050506113bc565b8381106121cb57604051630c740aef60e31b81526004810187905260248101869052604481018590526064016106a1565b60008486880960026001871981018816978890046003810283188082028403028082028403028082028403028082028403028082028403029081029092039091026000889003889004909101858311909403939093029303949094049190911702949350505050565b8351600090815b8181101561228a57600061226c8a8a8a858151811061225c5761225c6133a4565b60200260200101518a8a8a6123bd565b905080156122815761227e8185613405565b93505b5060010161223b565b50509695505050505050565b8351600090815b81811015612345578681815181106122b7576122b76133a4565b60200260200101516001600160a01b031663edb40950898888886040518563ffffffff1660e01b81526004016122f094939291906139b7565b602060405180830381865afa15801561230d573d6000803e3d6000fd5b505050506040513d601f19601f820116820180604052508101906123319190613328565b61233b9084613405565b925060010161229d565b505095945050505050565b600061270f198201612364575060006112cd565b8284106123725750836112cd565b600061237f868686612160565b9050826000036123905790506112cd565b6112c98161239f858888612160565b6123ab866127106133f2565b6123b59190613405565b612710612160565b6001600160a01b03808716600090815260208181526040808320898452825280832088519094168352928152919020549085015160ff1683146124115761240c81866020015160ff1685612818565b612413565b805b905080158061242b575081856040015163ffffffff16145b6124b1576124ac8161243f6012600a61331c565b6040888101519051631df139fd60e11b8152600481018b905263ffffffff909116602482015260448101869052601260648201527f0000000000000000000000008c88469ca3aa9de6ab22c5113ae2a8e20329fd8c6001600160a01b031690633be273fa9060840161057a565b6124b3565b805b604051632eec7b5560e11b8152600481018890529091506000906001600160a01b037f0000000000000000000000005adb234602d074064c216c1fdb23c6c2031f0c751690635dd8f6aa90602401602060405180830381865afa15801561251e573d6000803e3d6000fd5b505050506040513d601f19601f820116820180604052508101906125429190613418565b6001600160a01b031663ffa082446040518163ffffffff1660e01b8152600401602060405180830381865afa15801561257f573d6000803e3d6000fd5b505050506040513d601f19601f820116820180604052508101906125a39190613418565b60208601518751604051634c8cafef60e11b8152600481018b905265ffffffffffff90921660248301526001600160a01b038b81166044840152908116606483015291909116906399195fde90608401600060405180830381865afa158015612610573d6000803e3d6000fd5b505050506040513d6000823e601f3d908101601f191682016040526126389190810190613a39565b805190915060005b8181101561280b57600083828151811061265c5761265c6133a4565b6020908102919091018101516001600160a01b03808e1660009081526001845260408082208f835285528082208e5190931682529184528181208c5165ffffffffffff16825284528181208385015163ffffffff1682529093529091205481519192506126d1916001600160e01b03166133f2565b6001600160e01b03168152602089015160ff16871461270e5761270981600001516001600160e01b03168a6020015160ff1689612818565b612711565b80515b6001600160e01b03168082521580612732575085816020015163ffffffff16145b6127c35780516127be906001600160e01b03166127516012600a61331c565b6020840151604051631df139fd60e11b8152600481018f905263ffffffff9091166024820152604481018a9052601260648201526001600160a01b037f0000000000000000000000008c88469ca3aa9de6ab22c5113ae2a8e20329fd8c1690633be273fa9060840161057a565b6127c6565b80515b6001600160e01b03168082528511156127f55780516127ee906001600160e01b0316866133f2565b9450612802565b6000945050505050611e4c565b50600101612640565b5050509695505050505050565b60008282036128285750826113bc565b828211156128565761283a83836133f2565b61284590600a61331c565b61284f9085613b03565b90506113bc565b61286082846133f2565b61286b90600a61331c565b61284f9085613b1a565b6040805161012081018252600080825260208201819052918101829052606081018290526080810182905260a0810182905260c0810182905260e0810182905261010081019190915290565b6001600160a01b03811681146128d657600080fd5b50565b600080604083850312156128ec57600080fd5b8235915060208301356128fe816128c1565b809150509250929050565b60006060828403121561291b57600080fd5b50919050565b60008060008060c0858703121561293757600080fd5b843593506129488660208701612909565b939693955050505060808201359160a0013590565b65ffffffffffff80825116835280602083015116602084015280604083015116604084015250606081015161299c606084018265ffffffffffff169052565b5060808101516129b4608084018263ffffffff169052565b5060a08101516129cf60a08401826001600160701b03169052565b5060c08101516129e760c084018263ffffffff169052565b5060e0810151612a0260e08401826001600160a01b03169052565b5061010090810151910152565b6101408101612a1e828561295d565b826101208301529392505050565b60008083601f840112612a3e57600080fd5b5081356001600160401b03811115612a5557600080fd5b602083019150836020606083028501011115612a7057600080fd5b9250929050565b634e487b7160e01b600052604160045260246000fd5b60405161012081016001600160401b0381118282101715612ab057612ab0612a77565b60405290565b604051606081016001600160401b0381118282101715612ab057612ab0612a77565b604080519081016001600160401b0381118282101715612ab057612ab0612a77565b604051601f8201601f191681016001600160401b0381118282101715612b2257612b22612a77565b604052919050565b60006001600160401b03821115612b4357612b43612a77565b50601f01601f191660200190565b6000806000806000806000610100888a031215612b6d57600080fd5b8735612b78816128c1565b96506020880135955060408801359450612b958960608a01612909565b935060c08801356001600160401b0380821115612bb157600080fd5b612bbd8b838c01612a2c565b909550935060e08a0135915080821115612bd657600080fd5b508801601f81018a13612be857600080fd5b8035612bfb612bf682612b2a565b612afa565b8181528b6020838501011115612c1057600080fd5b8160208401602083013760006020838301015280935050505092959891949750929550565b60005b83811015612c50578181015183820152602001612c38565b50506000910152565b60008151808452612c71816020860160208601612c35565b601f01601f19169290920160200192915050565b6000610180808301612c97848961295d565b86610120850152856101408501528161016085015280915084518082526101a091508185019250818160051b8601019150602080870160005b83811015612d285787850361019f19018652815180516001600160a01b031686528381015184870152604090810151606091870182905290612d1481880183612c59565b978501979650505090820190600101612cd0565b50929a9950505050505050505050565b600080600060608486031215612d4d57600080fd5b8335612d58816128c1565b9250602084013591506040840135612d6f816128c1565b809150509250925092565b600080600060608486031215612d8f57600080fd5b833592506020840135612da1816128c1565b929592945050506040919091013590565b600080600080600060a08688031215612dca57600080fd5b8535612dd5816128c1565b9450602086013593506040860135612dec816128c1565b94979396509394606081013594506080013592915050565b60008060008060808587031215612e1a57600080fd5b5050823594602084013594506040840135936060013592509050565b600080600060608486031215612e4b57600080fd5b505081359360208301359350604090920135919050565b600080600080600080868803610100811215612e7d57600080fd5b8735612e88816128c1565b96506080601f1982011215612e9c57600080fd5b5060208701945060a0870135935060c0870135612eb8816128c1565b925060e08701356001600160401b0380821115612ed457600080fd5b818901915089601f830112612ee857600080fd5b813581811115612ef757600080fd5b8a6020828501011115612f0957600080fd5b6020830194508093505050509295509295509295565b6000610160808301612f31848861295d565b610120840186905261014084019190915283519081905261018080840191600581901b850190910190602080870160005b83811015612fba5787850361017f19018652815180516001600160a01b031686528381015184870152604090810151606091870182905290612fa681880183612c59565b978501979650505090820190600101612f62565b50929998505050505050505050565b60008060008060008060a08789031215612fe257600080fd5b8635612fed816128c1565b95506020870135945060408701356001600160401b0381111561300f57600080fd5b61301b89828a01612a2c565b979a9699509760608101359660809091013595509350505050565b60008060008060008060008060c0898b03121561305257600080fd5b883597506020890135965060408901356001600160401b038082111561307757600080fd5b818b0191508b601f83011261308b57600080fd5b81358181111561309a57600080fd5b8c60208260051b85010111156130af57600080fd5b6020830198508097505060608b01359150808211156130cd57600080fd5b506130da8b828c01612a2c565b999c989b5096999598969760808701359660a0013595509350505050565b805165ffffffffffff8116811461310e57600080fd5b919050565b63ffffffff811681146128d657600080fd5b805161310e81613113565b80516001600160701b038116811461310e57600080fd5b805161310e816128c1565b6000610120828403121561316557600080fd5b61316d612a8d565b613176836130f8565b8152613184602084016130f8565b6020820152613195604084016130f8565b60408201526131a6606084016130f8565b60608201526131b760808401613125565b60808201526131c860a08401613130565b60a08201526131d960c08401613125565b60c08201526131ea60e08401613147565b60e0820152610100928301519281019290925250919050565b60006020828403121561321557600080fd5b81356113bc81613113565b634e487b7160e01b600052601160045260246000fd5b600181815b8085111561327157816000190482111561325757613257613220565b8085161561326457918102915b93841c939080029061323b565b509250929050565b60008261328857506001613316565b8161329557506000613316565b81600181146132ab57600281146132b5576132d1565b6001915050613316565b60ff8411156132c6576132c6613220565b50506001821b613316565b5060208310610133831016604e8410600b84101617156132f4575081810a613316565b6132fe8383613236565b806000190482111561331257613312613220565b0290505b92915050565b60006113bc8383613279565b60006020828403121561333a57600080fd5b5051919050565b803560ff8116811461310e57600080fd5b60006060828403121561336457600080fd5b61336c612ab6565b8235613377816128c1565b815261338560208401613341565b6020820152604083013561339881613113565b60408201529392505050565b634e487b7160e01b600052603260045260246000fd5b6000602082840312156133cc57600080fd5b6113bc82613341565b6000602082840312156133e757600080fd5b81356113bc816128c1565b8181038181111561331657613316613220565b8082018082111561331657613316613220565b60006020828403121561342a57600080fd5b81516113bc816128c1565b60006001600160401b0382111561344e5761344e612a77565b5060051b60200190565b6000602080838503121561346b57600080fd5b82516001600160401b0381111561348157600080fd5b8301601f8101851361349257600080fd5b80516134a0612bf682613435565b81815260059190911b820183019083810190878311156134bf57600080fd5b928401925b828410156134e65783516134d7816128c1565b825292840192908401906134c4565b979650505050505050565b6020815261350b6020820183516001600160a01b03169052565b6000602083015161352760408401826001600160a01b03169052565b506040830151606083015260608301516080830152608083015160a083015260a083015160c083015260c083015161359260e084018280516001600160a01b0316825260208082015160ff169083015260408082015163ffffffff1690830152606090810151910152565b5060e083015115156101608301526101008301516101808301526101208301516101a0808401526112cd6101c0840182612c59565b600082601f8301126135d857600080fd5b81516135e6612bf682612b2a565b8181528460208386010111156135fb57600080fd5b6112cd826020830160208701612c35565b6000806000806080858703121561362257600080fd5b84519350602085015192506040850151915060608501516001600160401b038082111561364e57600080fd5b818701915087601f83011261366257600080fd5b8151613670612bf682613435565b8082825260208201915060208360051b86010192508a83111561369257600080fd5b602085015b8381101561371c578051858111156136ae57600080fd5b86016060818e03601f190112156136c457600080fd5b6136cc612ab6565b60208201516136da816128c1565b8152604082015160208201526060820151878111156136f857600080fd5b6137078f6020838601016135c7565b60408301525084525060209283019201613697565b50979a9699509497505050505050565b60006080828403121561373e57600080fd5b604051608081018181106001600160401b038211171561376057613760612a77565b604052823561376e816128c1565b815261377c60208401613341565b6020820152604083013561378f81613113565b60408201526060928301359281019290925250919050565b602081526137c16020820183516001600160a01b03169052565b600060208301516137dd60408401826001600160a01b03169052565b506040830151613820606084018280516001600160a01b0316825260208082015160ff169083015260408082015163ffffffff1690830152606090810151910152565b50606083015160e08301526080830151610100818185015260a085015191506138556101208501836001600160a01b03169052565b60c085015161014085015260e08501516101608501528401516101808085015290506112cd6101a0840182612c59565b6000806040838503121561389857600080fd5b825191506020808401516001600160401b03808211156138b757600080fd5b818601915086601f8301126138cb57600080fd5b81516138d9612bf682613435565b81815260059190911b830184019084810190898311156138f857600080fd5b8585015b83811015613981578051858111156139145760008081fd5b86016060818d03601f190181131561392c5760008081fd5b613934612ab6565b89830151613941816128c1565b815260408301518a82015290820151908782111561395f5760008081fd5b61396d8e8b848601016135c7565b6040820152855250509186019186016138fc565b508096505050505050509250929050565b60006113bc60ff841683613279565b634e487b7160e01b600052601260045260246000fd5b60006080820186835260206080602085015281875180845260a08601915060208901935060005b81811015613a2257845180516001600160a01b031684528481015160ff168585015260409081015163ffffffff1690840152938301936060909201916001016139de565b505060408501969096525050506060015292915050565b60006020808385031215613a4c57600080fd5b82516001600160401b03811115613a6257600080fd5b8301601f81018513613a7357600080fd5b8051613a81612bf682613435565b81815260069190911b82018301908381019087831115613aa057600080fd5b928401925b828410156134e65760408489031215613abe5760008081fd5b613ac6612ad8565b84516001600160e01b0381168114613ade5760008081fd5b815284860151613aed81613113565b8187015282526040939093019290840190613aa5565b808202811582820484141761331657613316613220565b600082613b3757634e487b7160e01b600052601260045260246000fd5b50049056fea2646970667358221220078b4d704f3a843d885930dc6b844212e803849a4c44e6b229931a0876bea4db64736f6c63430008170033",
	"devdoc": {
		"kind": "dev",
		"methods": {
			"constructor": {
				"params": {
					"directory": "A contract storing directories of terminals and controllers for each project.",
					"prices": "A contract that exposes price feeds.",
					"rulesets": "A contract storing and managing project rulesets."
				}
			},
			"currentReclaimableSurplusOf(uint256,uint256,address[],(address,uint8,uint32)[],uint256,uint256)": {
				"details": "The returned amount in terms of the specified `terminal`'s base currency.The returned amount is represented as a fixed point number with the same amount of decimals as the specified terminal.",
				"params": {
					"accountingContexts": "The accounting contexts of the surplus terminal tokens that would be reclaimed. Pass an empty array to use all of the project's accounting contexts.",
					"cashOutCount": "The number of tokens that would be cashed out, as a fixed point number with 18 decimals.",
					"currency": "The currency that the resulting number will be in terms of.",
					"decimals": "The number of decimals to include in the resulting fixed point number.",
					"projectId": "The ID of the project whose tokens would be cashed out.",
					"terminals": "The terminals that would be cashed out from. If this is the zero address, surplus within all the project's terminals are considered."
				},
				"returns": {
					"_0": "The amount of surplus terminal tokens that would be reclaimed by cashing out `cashOutCount` tokens."
				}
			},
			"currentReclaimableSurplusOf(uint256,uint256,uint256,uint256)": {
				"params": {
					"cashOutCount": "The number of project tokens that would be cashed out, as a fixed point number with 18 decimals.",
					"projectId": "The ID of the project whose project tokens would be cashed out.",
					"surplus": "The total terminal token surplus amount, as a fixed point number.",
					"totalSupply": "The total project token supply, as a fixed point number with 18 decimals."
				},
				"returns": {
					"_0": "The number of surplus terminal tokens that would be reclaimed, as a fixed point number with the same number of decimals as the provided `surplus`."
				}
			},
			"currentSurplusOf(address,uint256,(address,uint8,uint32)[],uint256,uint256)": {
				"details": "The surplus is the amount of funds a project has in a terminal in excess of its payout limit.The surplus is represented as a fixed point number with the same amount of decimals as the specified terminal.",
				"params": {
					"accountingContexts": "The accounting contexts of tokens whose balances should contribute to the surplus being calculated.",
					"currency": "The currency the resulting amount should be in terms of.",
					"decimals": "The number of decimals to expect in the resulting fixed point number.",
					"projectId": "The ID of the project to get surplus for.",
					"terminal": "The terminal the surplus is being calculated for."
				},
				"returns": {
					"_0": "The current surplus amount the project has in the specified terminal."
				}
			},
			"currentTotalSurplusOf(uint256,uint256,uint256)": {
				"params": {
					"currency": "The currency that the total surplus should be in terms of.",
					"decimals": "The number of decimals that the fixed point surplus should include.",
					"projectId": "The ID of the project to get the total surplus for."
				},
				"returns": {
					"_0": "The current total surplus amount that the project has across all terminals."
				}
			},
			"recordAddedBalanceFor(uint256,address,uint256)": {
				"params": {
					"amount": "The amount of terminal tokens added, as a fixed point number with the same amount of decimals as its relative terminal.",
					"projectId": "The ID of the project which funds are being added to the balance of.",
					"token": "The token being added to the balance."
				}
			},
			"recordCashOutFor(address,uint256,uint256,(address,uint8,uint32),(address,uint8,uint32)[],bytes)": {
				"details": "Cashs out the project's tokens according to values provided by the ruleset's data hook. If the ruleset has no data hook, cashs out tokens along a cash out bonding curve that is a function of the number of tokens being burned.",
				"params": {
					"accountingContext": "The accounting context of the token being reclaimed by the cash out.",
					"balanceAccountingContexts": "The accounting contexts of the tokens whose balances should contribute to the surplus being reclaimed from.",
					"cashOutCount": "The number of project tokens to cash out, as a fixed point number with 18 decimals.",
					"holder": "The account that is cashing out tokens.",
					"metadata": "Bytes to send to the data hook, if the project's current ruleset specifies one.",
					"projectId": "The ID of the project being cashing out from."
				},
				"returns": {
					"cashOutTaxRate": "The cash out tax rate influencing the reclaim amount.",
					"hookSpecifications": "A list of cash out hooks, including data and amounts to send to them. The terminal should fulfill these specifications.",
					"reclaimAmount": "The amount of tokens reclaimed from the terminal, as a fixed point number with 18 decimals.",
					"ruleset": "The ruleset during the cash out was made during, as a `JBRuleset` struct. This ruleset will have a cash out tax rate provided by the cash out hook if applicable."
				}
			},
			"recordPaymentFrom(address,(address,uint8,uint32,uint256),uint256,address,bytes)": {
				"details": "Mints the project's tokens according to values provided by the ruleset's data hook. If the ruleset has no data hook, mints tokens in proportion with the amount paid.",
				"params": {
					"amount": "The amount of tokens being paid. Includes the token being paid, their value, the number of decimals included, and the currency of the amount.",
					"beneficiary": "The address that should be the beneficiary of anything the payment yields (including project tokens minted by the payment).",
					"metadata": "Bytes to send to the data hook, if the project's current ruleset specifies one.",
					"payer": "The address that made the payment to the terminal.",
					"projectId": "The ID of the project being paid."
				},
				"returns": {
					"hookSpecifications": "A list of pay hooks, including data and amounts to send to them. The terminal should fulfill these specifications.",
					"ruleset": "The ruleset the payment was made during, as a `JBRuleset` struct.",
					"tokenCount": "The number of project tokens that were minted, as a fixed point number with 18 decimals."
				}
			},
			"recordPayoutFor(uint256,(address,uint8,uint32),uint256,uint256)": {
				"params": {
					"accountingContext": "The context of the token being paid out.",
					"amount": "The amount to pay out (use from the payout limit), as a fixed point number.",
					"currency": "The currency of the `amount`. This must match the project's current ruleset's currency.",
					"projectId": "The ID of the project that is paying out funds."
				},
				"returns": {
					"amountPaidOut": "The amount of terminal tokens paid out, as a fixed point number with the same amount of decimals as its relative terminal.",
					"ruleset": "The ruleset the payout was made during, as a `JBRuleset` struct."
				}
			},
			"recordTerminalMigration(uint256,address)": {
				"params": {
					"projectId": "The ID of the project being migrated.",
					"token": "The token being migrated."
				},
				"returns": {
					"balance": "The project's current balance (which is being migrated), as a fixed point number with the same amount of decimals as its relative terminal."
				}
			},
			"recordUsedAllowanceOf(uint256,(address,uint8,uint32),uint256,uint256)": {
				"details": "When surplus allowance is \"used\", it is taken out of the project's surplus within a terminal.",
				"params": {
					"accountingContext": "The accounting context of the token whose balances should contribute to the surplus allowance being reclaimed from.",
					"amount": "The amount to use from the surplus allowance, as a fixed point number.",
					"currency": "The currency of the `amount`. Must match the currency of the surplus allowance.",
					"projectId": "The ID of the project to use the surplus allowance of."
				},
				"returns": {
					"ruleset": "The ruleset during the surplus allowance is being used during, as a `JBRuleset` struct.",
					"usedAmount": "The amount of terminal tokens used, as a fixed point number with the same amount of decimals as its relative terminal."
				}
			}
		},
		"version": 1
	},
	"userdoc": {
		"kind": "user",
		"methods": {
			"DIRECTORY()": {
				"notice": "The directory of terminals and controllers for projects."
			},
			"PRICES()": {
				"notice": "The contract that exposes price feeds."
			},
			"RULESETS()": {
				"notice": "The contract storing and managing project rulesets."
			},
			"balanceOf(address,uint256,address)": {
				"notice": "A project's balance of a specific token within a terminal."
			},
			"currentReclaimableSurplusOf(uint256,uint256,address[],(address,uint8,uint32)[],uint256,uint256)": {
				"notice": "Returns the number of surplus terminal tokens that would be reclaimed from a terminal by cashing out a given number of tokens, based on the total token supply and total surplus."
			},
			"currentReclaimableSurplusOf(uint256,uint256,uint256,uint256)": {
				"notice": "Returns the number of surplus terminal tokens that would be reclaimed by cashing out a given project's tokens based on its current ruleset and the given total project token supply and total terminal token surplus."
			},
			"currentSurplusOf(address,uint256,(address,uint8,uint32)[],uint256,uint256)": {
				"notice": "Gets the current surplus amount in a terminal for a specified project."
			},
			"currentTotalSurplusOf(uint256,uint256,uint256)": {
				"notice": "Gets the current surplus amount for a specified project across all terminals."
			},
			"recordAddedBalanceFor(uint256,address,uint256)": {
				"notice": "Records funds being added to a project's balance."
			},
			"recordCashOutFor(address,uint256,uint256,(address,uint8,uint32),(address,uint8,uint32)[],bytes)": {
				"notice": "Records a cash out from a project."
			},
			"recordPaymentFrom(address,(address,uint8,uint32,uint256),uint256,address,bytes)": {
				"notice": "Records a payment to a project."
			},
			"recordPayoutFor(uint256,(address,uint8,uint32),uint256,uint256)": {
				"notice": "Records a payout from a project."
			},
			"recordTerminalMigration(uint256,address)": {
				"notice": "Records the migration of funds from this store."
			},
			"recordUsedAllowanceOf(uint256,(address,uint8,uint32),uint256,uint256)": {
				"notice": "Records a use of a project's surplus allowance."
			},
			"usedPayoutLimitOf(address,uint256,address,uint256,uint256)": {
				"notice": "The currency-denominated amount of funds that a project has already paid out from its payout limit during the current ruleset for each terminal, in terms of the payout limit's currency."
			},
			"usedSurplusAllowanceOf(address,uint256,address,uint256,uint256)": {
				"notice": "The currency-denominated amounts of funds that a project has used from its surplus allowance during the current ruleset for each terminal, in terms of the surplus allowance's currency."
			}
		},
		"version": 1
	},
	"gitCommit": "621b4728594b015d227adf08d7af07a2ea0ba570",
	"sourceName": "src/JBTerminalStore.sol",
	"chainId": "421614",
	"linkReferences": {},
	"deployedLinkReferences": {},
	"history": []
}