{
	"_format": "sphinx-sol-ct-artifact-1",
	"merkleRoot": "0x7bd9f2c1196de189f5c3cc49509da51a5c3d19c2ccc24e5ab4f96f008debc40c",
	"contractName": "JBDirectory",
	"address": "0x47836A19D162261200725DF4c5f5bB7Fc807884a",
	"abi": [
		{
			"type": "constructor",
			"inputs": [
				{
					"name": "permissions",
					"type": "address",
					"internalType": "contract IJBPermissions"
				},
				{
					"name": "projects",
					"type": "address",
					"internalType": "contract IJBProjects"
				},
				{
					"name": "owner",
					"type": "address",
					"internalType": "address"
				}
			],
			"stateMutability": "nonpayable"
		},
		{
			"type": "function",
			"name": "PERMISSIONS",
			"inputs": [],
			"outputs": [
				{
					"name": "",
					"type": "address",
					"internalType": "contract IJBPermissions"
				}
			],
			"stateMutability": "view"
		},
		{
			"type": "function",
			"name": "PROJECTS",
			"inputs": [],
			"outputs": [
				{
					"name": "",
					"type": "address",
					"internalType": "contract IJBProjects"
				}
			],
			"stateMutability": "view"
		},
		{
			"type": "function",
			"name": "controllerOf",
			"inputs": [
				{
					"name": "projectId",
					"type": "uint256",
					"internalType": "uint256"
				}
			],
			"outputs": [
				{
					"name": "",
					"type": "address",
					"internalType": "contract IERC165"
				}
			],
			"stateMutability": "view"
		},
		{
			"type": "function",
			"name": "isAllowedToSetFirstController",
			"inputs": [
				{
					"name": "addr",
					"type": "address",
					"internalType": "address"
				}
			],
			"outputs": [
				{
					"name": "",
					"type": "bool",
					"internalType": "bool"
				}
			],
			"stateMutability": "view"
		},
		{
			"type": "function",
			"name": "isTerminalOf",
			"inputs": [
				{
					"name": "projectId",
					"type": "uint256",
					"internalType": "uint256"
				},
				{
					"name": "terminal",
					"type": "address",
					"internalType": "contract IJBTerminal"
				}
			],
			"outputs": [
				{
					"name": "",
					"type": "bool",
					"internalType": "bool"
				}
			],
			"stateMutability": "view"
		},
		{
			"type": "function",
			"name": "owner",
			"inputs": [],
			"outputs": [
				{
					"name": "",
					"type": "address",
					"internalType": "address"
				}
			],
			"stateMutability": "view"
		},
		{
			"type": "function",
			"name": "primaryTerminalOf",
			"inputs": [
				{
					"name": "projectId",
					"type": "uint256",
					"internalType": "uint256"
				},
				{
					"name": "token",
					"type": "address",
					"internalType": "address"
				}
			],
			"outputs": [
				{
					"name": "",
					"type": "address",
					"internalType": "contract IJBTerminal"
				}
			],
			"stateMutability": "view"
		},
		{
			"type": "function",
			"name": "renounceOwnership",
			"inputs": [],
			"outputs": [],
			"stateMutability": "nonpayable"
		},
		{
			"type": "function",
			"name": "setControllerOf",
			"inputs": [
				{
					"name": "projectId",
					"type": "uint256",
					"internalType": "uint256"
				},
				{
					"name": "controller",
					"type": "address",
					"internalType": "contract IERC165"
				}
			],
			"outputs": [],
			"stateMutability": "nonpayable"
		},
		{
			"type": "function",
			"name": "setIsAllowedToSetFirstController",
			"inputs": [
				{
					"name": "addr",
					"type": "address",
					"internalType": "address"
				},
				{
					"name": "flag",
					"type": "bool",
					"internalType": "bool"
				}
			],
			"outputs": [],
			"stateMutability": "nonpayable"
		},
		{
			"type": "function",
			"name": "setPrimaryTerminalOf",
			"inputs": [
				{
					"name": "projectId",
					"type": "uint256",
					"internalType": "uint256"
				},
				{
					"name": "token",
					"type": "address",
					"internalType": "address"
				},
				{
					"name": "terminal",
					"type": "address",
					"internalType": "contract IJBTerminal"
				}
			],
			"outputs": [],
			"stateMutability": "nonpayable"
		},
		{
			"type": "function",
			"name": "setTerminalsOf",
			"inputs": [
				{
					"name": "projectId",
					"type": "uint256",
					"internalType": "uint256"
				},
				{
					"name": "terminals",
					"type": "address[]",
					"internalType": "contract IJBTerminal[]"
				}
			],
			"outputs": [],
			"stateMutability": "nonpayable"
		},
		{
			"type": "function",
			"name": "terminalsOf",
			"inputs": [
				{
					"name": "projectId",
					"type": "uint256",
					"internalType": "uint256"
				}
			],
			"outputs": [
				{
					"name": "",
					"type": "address[]",
					"internalType": "contract IJBTerminal[]"
				}
			],
			"stateMutability": "view"
		},
		{
			"type": "function",
			"name": "transferOwnership",
			"inputs": [
				{
					"name": "newOwner",
					"type": "address",
					"internalType": "address"
				}
			],
			"outputs": [],
			"stateMutability": "nonpayable"
		},
		{
			"type": "event",
			"name": "AddTerminal",
			"inputs": [
				{
					"name": "projectId",
					"type": "uint256",
					"indexed": true,
					"internalType": "uint256"
				},
				{
					"name": "terminal",
					"type": "address",
					"indexed": true,
					"internalType": "contract IJBTerminal"
				},
				{
					"name": "caller",
					"type": "address",
					"indexed": false,
					"internalType": "address"
				}
			],
			"anonymous": false
		},
		{
			"type": "event",
			"name": "OwnershipTransferred",
			"inputs": [
				{
					"name": "previousOwner",
					"type": "address",
					"indexed": true,
					"internalType": "address"
				},
				{
					"name": "newOwner",
					"type": "address",
					"indexed": true,
					"internalType": "address"
				}
			],
			"anonymous": false
		},
		{
			"type": "event",
			"name": "SetController",
			"inputs": [
				{
					"name": "projectId",
					"type": "uint256",
					"indexed": true,
					"internalType": "uint256"
				},
				{
					"name": "controller",
					"type": "address",
					"indexed": true,
					"internalType": "contract IERC165"
				},
				{
					"name": "caller",
					"type": "address",
					"indexed": false,
					"internalType": "address"
				}
			],
			"anonymous": false
		},
		{
			"type": "event",
			"name": "SetIsAllowedToSetFirstController",
			"inputs": [
				{
					"name": "addr",
					"type": "address",
					"indexed": true,
					"internalType": "address"
				},
				{
					"name": "flag",
					"type": "bool",
					"indexed": true,
					"internalType": "bool"
				},
				{
					"name": "caller",
					"type": "address",
					"indexed": false,
					"internalType": "address"
				}
			],
			"anonymous": false
		},
		{
			"type": "event",
			"name": "SetPrimaryTerminal",
			"inputs": [
				{
					"name": "projectId",
					"type": "uint256",
					"indexed": true,
					"internalType": "uint256"
				},
				{
					"name": "token",
					"type": "address",
					"indexed": true,
					"internalType": "address"
				},
				{
					"name": "terminal",
					"type": "address",
					"indexed": true,
					"internalType": "contract IJBTerminal"
				},
				{
					"name": "caller",
					"type": "address",
					"indexed": false,
					"internalType": "address"
				}
			],
			"anonymous": false
		},
		{
			"type": "event",
			"name": "SetTerminals",
			"inputs": [
				{
					"name": "projectId",
					"type": "uint256",
					"indexed": true,
					"internalType": "uint256"
				},
				{
					"name": "terminals",
					"type": "address[]",
					"indexed": false,
					"internalType": "contract IJBTerminal[]"
				},
				{
					"name": "caller",
					"type": "address",
					"indexed": false,
					"internalType": "address"
				}
			],
			"anonymous": false
		},
		{
			"type": "error",
			"name": "DUPLICATE_TERMINALS",
			"inputs": []
		},
		{
			"type": "error",
			"name": "INVALID_PROJECT_ID_IN_DIRECTORY",
			"inputs": []
		},
		{
			"type": "error",
			"name": "OwnableInvalidOwner",
			"inputs": [
				{
					"name": "owner",
					"type": "address",
					"internalType": "address"
				}
			]
		},
		{
			"type": "error",
			"name": "OwnableUnauthorizedAccount",
			"inputs": [
				{
					"name": "account",
					"type": "address",
					"internalType": "address"
				}
			]
		},
		{
			"type": "error",
			"name": "SET_CONTROLLER_NOT_ALLOWED",
			"inputs": []
		},
		{
			"type": "error",
			"name": "SET_TERMINALS_NOT_ALLOWED",
			"inputs": []
		},
		{
			"type": "error",
			"name": "TOKEN_NOT_ACCEPTED",
			"inputs": []
		},
		{
			"type": "error",
			"name": "UNAUTHORIZED",
			"inputs": []
		}
	],
	"solcInputHash": "1da298823f858e48974af7472fc9a65b",
	"args": [
		"0xFB44E31F92BB6c4BBfc1375181B17B42BCe54F27",
		"0x0739FE09B1f659856c3E29919BbaB6F91A884398",
		"0x1081B5AA9D9d4862A3dA4d469433FB36Ed80FA2A"
	],
	"bytecode": "0x60c06040523480156200001157600080fd5b506040516200169c3803806200169c8339810160408190526200003491620000f4565b6001600160a01b03808416608052819081166200006b57604051631e4fbdf760e01b81526000600482015260240160405180910390fd5b62000076816200008b565b50506001600160a01b031660a0525062000148565b600080546001600160a01b038381166001600160a01b0319831681178455604051919092169283917f8be0079c531659141344cd1fd0a4f28419497f9722a3daafe3b4186f6b6457e09190a35050565b6001600160a01b0381168114620000f157600080fd5b50565b6000806000606084860312156200010a57600080fd5b83516200011781620000db565b60208501519093506200012a81620000db565b60408501519092506200013d81620000db565b809150509250925092565b60805160a05161150c620001906000396000818160f401528181610290015281816104be0152818161057201526108b70152600081816102540152610e3f015261150c6000f3fe608060405234801561001057600080fd5b50600436106100ea5760003560e01c8063862026501161008c578063c5664e2111610066578063c5664e21146101f9578063d17541531461021c578063f2fde38b1461023c578063f434c9141461024f57600080fd5b806386202650146101c25780638da5cb5b146101d5578063a1ed3175146101e657600080fd5b80636e49181f116100c85780636e49181f14610171578063714e7f3214610194578063715018a6146101a7578063821b9fd8146101af57600080fd5b8063293c4999146100ef5780635dd8f6aa1461013357806363d0850a1461015c575b600080fd5b6101167f000000000000000000000000000000000000000000000000000000000000000081565b6040516001600160a01b0390911681526020015b60405180910390f35b61011661014136600461118e565b6001602052600090815260409020546001600160a01b031681565b61016f61016a3660046111bc565b610276565b005b61018461017f3660046111fe565b610425565b604051901515815260200161012a565b61016f6101a23660046111fe565b6104a4565b61016f610889565b61016f6101bd36600461122e565b61089d565b6101166101d03660046111fe565b610ba2565b6000546001600160a01b0316610116565b61016f6101f43660046112bb565b610cce565b6101846102073660046112e9565b60026020526000908152604090205460ff1681565b61022f61022a36600461118e565b610d38565b60405161012a919061130d565b61016f61024a3660046112e9565b610da4565b6101167f000000000000000000000000000000000000000000000000000000000000000081565b6040516331a9108f60e11b81526004810184905261030b907f00000000000000000000000000000000000000000000000000000000000000006001600160a01b031690636352211e90602401602060405180830381865afa1580156102df573d6000803e3d6000fd5b505050506040513d601f19601f82011682018060405250810190610303919061135a565b84600f610de7565b604051633a01714f60e01b8152600481018490526001600160a01b03838116602483015260009190831690633a01714f90604401606060405180830381865afa15801561035c573d6000803e3d6000fd5b505050506040513d601f19601f820116820180604052508101906103809190611377565b516001600160a01b0316036103a857604051630faa917b60e11b815260040160405180910390fd5b6103b28382610ed0565b60008381526004602090815260408083206001600160a01b038681168086529184529382902080546001600160a01b03191694861694851790559051338152909186917fc670a502bbb9f8a4315f95eca901a9f99b65f89a2eb5705a58050e5c00f9d672910160405180910390a4505050565b600082815260036020526040812054815b8181101561049757600085815260036020526040902080546001600160a01b03861691908390811061046a5761046a611406565b6000918252602090912001546001600160a01b03160361048f5760019250505061049e565b600101610436565b5060009150505b92915050565b6040516331a9108f60e11b81526004810183905261056f907f00000000000000000000000000000000000000000000000000000000000000006001600160a01b031690636352211e90602401602060405180830381865afa15801561050d573d6000803e3d6000fd5b505050506040513d601f19601f82011682018060405250810190610531919061135a565b336000908152600260205260409020548490600d9060ff16801561056a57506000868152600160205260409020546001600160a01b0316155b611089565b817f00000000000000000000000000000000000000000000000000000000000000006001600160a01b03166306661abd6040518163ffffffff1660e01b8152600401602060405180830381865afa1580156105ce573d6000803e3d6000fd5b505050506040513d601f19601f820116820180604052508101906105f2919061141c565b101561061157604051634a283a5360e11b815260040160405180910390fd5b6000828152600160205260408120546001600160a01b0316908115806106a357506040516301ffc9a760e01b8152632877540760e01b60048201526001600160a01b038316906301ffc9a790602401602060405180830381865afa15801561067d573d6000803e3d6000fd5b505050506040513d601f19601f820116820180604052508101906106a19190611435565b155b61071557604051632674968d60e21b8152600481018590526001600160a01b038316906399d25a3490602401602060405180830381865afa1580156106ec573d6000803e3d6000fd5b505050506040513d601f19601f820116820180604052508101906107109190611435565b610718565b60015b9050806107385760405163a33db4cb60e01b815260040160405180910390fd5b6001600160a01b038216158015906107ba57506040516301ffc9a760e01b815263217a87fd60e21b60048201526001600160a01b038316906301ffc9a790602401602060405180830381865afa158015610796573d6000803e3d6000fd5b505050506040513d601f19601f820116820180604052508101906107ba9190611435565b156108225760405163202dc27d60e11b8152600481018590526001600160a01b03848116602483015283169063405b84fa90604401600060405180830381600087803b15801561080957600080fd5b505af115801561081d573d6000803e3d6000fd5b505050505b60008481526001602090815260409182902080546001600160a01b0319166001600160a01b038716908117909155915133815286917f7f9a7dcb234c909a09de2f344661ad9e5b24067adb97c908647c2edcbb121c3091015b60405180910390a350505050565b610891611099565b61089b60006110c6565b565b6040516331a9108f60e11b81526004810184905261094e907f00000000000000000000000000000000000000000000000000000000000000006001600160a01b031690636352211e90602401602060405180830381865afa158015610906573d6000803e3d6000fd5b505050506040513d601f19601f8201168201806040525081019061092a919061135a565b6000858152600160205260409020548590600e906001600160a01b03163314611089565b6000838152600160205260408082205490516301ffc9a760e01b8152632877540760e01b60048201526001600160a01b03909116919082906301ffc9a790602401602060405180830381865afa1580156109ac573d6000803e3d6000fd5b505050506040513d601f19601f820116820180604052508101906109d09190611435565b1580610a40575060405163b1a50e3360e01b8152600481018690526001600160a01b0383169063b1a50e3390602401602060405180830381865afa158015610a1c573d6000803e3d6000fd5b505050506040513d601f19601f82011682018060405250810190610a409190611435565b6000868152600160205260409020549091506001600160a01b03163314801590610a68575080155b15610a86576040516375fef35f60e11b815260040160405180910390fd5b6000858152600360205260409020610a9f908585611116565b50826001811115610b5e5760005b81811015610b5c576000610ac2826001611452565b90505b82811015610b5357868682818110610adf57610adf611406565b9050602002016020810190610af491906112e9565b6001600160a01b0316878784818110610b0f57610b0f611406565b9050602002016020810190610b2491906112e9565b6001600160a01b031603610b4b57604051633e3830ab60e11b815260040160405180910390fd5b600101610ac5565b50600101610aad565b505b857fb648241d83df6540fc10f2acc641e4bf80a1e84e7ae2f1f6b0ad204b8fee635b868633604051610b9293929190611473565b60405180910390a2505050505050565b60008281526004602090815260408083206001600160a01b0380861685529252822054168015801590610bda5750610bda8482610425565b15610be657905061049e565b600084815260036020526040812054905b81811015610cc2576000868152600360205260408120805483908110610c1f57610c1f611406565b6000918252602082200154604051633a01714f60e01b8152600481018a90526001600160a01b03898116602483015290911692508290633a01714f90604401606060405180830381865afa158015610c7b573d6000803e3d6000fd5b505050506040513d601f19601f82011682018060405250810190610c9f9190611377565b516001600160a01b031614610cb957935061049e92505050565b50600101610bf7565b50600095945050505050565b610cd6611099565b6001600160a01b038216600081815260026020908152604091829020805460ff191685151590811790915591513381529192917f11207664cc48b0fa81c8674795f1d8f642960f38d5d2d305ad813093bed85fab910160405180910390a35050565b600081815260036020908152604091829020805483518184028101840190945280845260609392830182828015610d9857602002820191906000526020600020905b81546001600160a01b03168152600190910190602001808311610d7a575b50505050509050919050565b610dac611099565b6001600160a01b038116610ddb57604051631e4fbdf760e01b8152600060048201526024015b60405180910390fd5b610de4816110c6565b50565b336001600160a01b0384168114801590610eac5750604051631a45b42760e11b81526001600160a01b0382811660048301528581166024830152604482018590526064820184905260016084830181905260a48301527f0000000000000000000000000000000000000000000000000000000000000000169063348b684e9060c401602060405180830381865afa158015610e86573d6000803e3d6000fd5b505050506040513d601f19601f82011682018060405250810190610eaa9190611435565b155b15610eca5760405163075fd2b160e01b815260040160405180910390fd5b50505050565b610eda8282610425565b15610ee3575050565b6000828152600160205260408082205490516301ffc9a760e01b8152632877540760e01b60048201526001600160a01b03909116919082906301ffc9a790602401602060405180830381865afa158015610f41573d6000803e3d6000fd5b505050506040513d601f19601f82011682018060405250810190610f659190611435565b1580610fd5575060405163b1a50e3360e01b8152600481018590526001600160a01b0383169063b1a50e3390602401602060405180830381865afa158015610fb1573d6000803e3d6000fd5b505050506040513d601f19601f82011682018060405250810190610fd59190611435565b6000858152600160205260409020549091506001600160a01b03163314801590610ffd575080155b1561101b576040516375fef35f60e11b815260040160405180910390fd5b600084815260036020908152604080832080546001810182559084529282902090920180546001600160a01b0319166001600160a01b038716908117909155915133815286917f409bccc07b7cf7807930526a24318212d614c59f2dde05a017a41efee144e7c8910161087b565b80610eca57610eca848484610de7565b6000546001600160a01b0316331461089b5760405163118cdaa760e01b8152336004820152602401610dd2565b600080546001600160a01b038381166001600160a01b0319831681178455604051919092169283917f8be0079c531659141344cd1fd0a4f28419497f9722a3daafe3b4186f6b6457e09190a35050565b828054828255906000526020600020908101928215611169579160200282015b828111156111695781546001600160a01b0319166001600160a01b03843516178255602090920191600190910190611136565b50611175929150611179565b5090565b5b80821115611175576000815560010161117a565b6000602082840312156111a057600080fd5b5035919050565b6001600160a01b0381168114610de457600080fd5b6000806000606084860312156111d157600080fd5b8335925060208401356111e3816111a7565b915060408401356111f3816111a7565b809150509250925092565b6000806040838503121561121157600080fd5b823591506020830135611223816111a7565b809150509250929050565b60008060006040848603121561124357600080fd5b83359250602084013567ffffffffffffffff8082111561126257600080fd5b818601915086601f83011261127657600080fd5b81358181111561128557600080fd5b8760208260051b850101111561129a57600080fd5b6020830194508093505050509250925092565b8015158114610de457600080fd5b600080604083850312156112ce57600080fd5b82356112d9816111a7565b91506020830135611223816112ad565b6000602082840312156112fb57600080fd5b8135611306816111a7565b9392505050565b6020808252825182820181905260009190848201906040850190845b8181101561134e5783516001600160a01b031683529284019291840191600101611329565b50909695505050505050565b60006020828403121561136c57600080fd5b8151611306816111a7565b60006060828403121561138957600080fd5b6040516060810181811067ffffffffffffffff821117156113ba57634e487b7160e01b600052604160045260246000fd5b60405282516113c8816111a7565b8152602083015160ff811681146113de57600080fd5b6020820152604083015163ffffffff811681146113fa57600080fd5b60408201529392505050565b634e487b7160e01b600052603260045260246000fd5b60006020828403121561142e57600080fd5b5051919050565b60006020828403121561144757600080fd5b8151611306816112ad565b8082018082111561049e57634e487b7160e01b600052601160045260246000fd5b6040808252810183905260008460608301825b868110156114b6578235611499816111a7565b6001600160a01b0316825260209283019290910190600101611486565b506001600160a01b0394909416602093909301929092525090939250505056fea264697066735822122014c4986053115deb9360b293eb376675269a89a05b44254d712320b53249780564736f6c63430008170033",
	"deployedBytecode": "0x608060405234801561001057600080fd5b50600436106100ea5760003560e01c8063862026501161008c578063c5664e2111610066578063c5664e21146101f9578063d17541531461021c578063f2fde38b1461023c578063f434c9141461024f57600080fd5b806386202650146101c25780638da5cb5b146101d5578063a1ed3175146101e657600080fd5b80636e49181f116100c85780636e49181f14610171578063714e7f3214610194578063715018a6146101a7578063821b9fd8146101af57600080fd5b8063293c4999146100ef5780635dd8f6aa1461013357806363d0850a1461015c575b600080fd5b6101167f0000000000000000000000000739fe09b1f659856c3e29919bbab6f91a88439881565b6040516001600160a01b0390911681526020015b60405180910390f35b61011661014136600461118e565b6001602052600090815260409020546001600160a01b031681565b61016f61016a3660046111bc565b610276565b005b61018461017f3660046111fe565b610425565b604051901515815260200161012a565b61016f6101a23660046111fe565b6104a4565b61016f610889565b61016f6101bd36600461122e565b61089d565b6101166101d03660046111fe565b610ba2565b6000546001600160a01b0316610116565b61016f6101f43660046112bb565b610cce565b6101846102073660046112e9565b60026020526000908152604090205460ff1681565b61022f61022a36600461118e565b610d38565b60405161012a919061130d565b61016f61024a3660046112e9565b610da4565b6101167f000000000000000000000000fb44e31f92bb6c4bbfc1375181b17b42bce54f2781565b6040516331a9108f60e11b81526004810184905261030b907f0000000000000000000000000739fe09b1f659856c3e29919bbab6f91a8843986001600160a01b031690636352211e90602401602060405180830381865afa1580156102df573d6000803e3d6000fd5b505050506040513d601f19601f82011682018060405250810190610303919061135a565b84600f610de7565b604051633a01714f60e01b8152600481018490526001600160a01b03838116602483015260009190831690633a01714f90604401606060405180830381865afa15801561035c573d6000803e3d6000fd5b505050506040513d601f19601f820116820180604052508101906103809190611377565b516001600160a01b0316036103a857604051630faa917b60e11b815260040160405180910390fd5b6103b28382610ed0565b60008381526004602090815260408083206001600160a01b038681168086529184529382902080546001600160a01b03191694861694851790559051338152909186917fc670a502bbb9f8a4315f95eca901a9f99b65f89a2eb5705a58050e5c00f9d672910160405180910390a4505050565b600082815260036020526040812054815b8181101561049757600085815260036020526040902080546001600160a01b03861691908390811061046a5761046a611406565b6000918252602090912001546001600160a01b03160361048f5760019250505061049e565b600101610436565b5060009150505b92915050565b6040516331a9108f60e11b81526004810183905261056f907f0000000000000000000000000739fe09b1f659856c3e29919bbab6f91a8843986001600160a01b031690636352211e90602401602060405180830381865afa15801561050d573d6000803e3d6000fd5b505050506040513d601f19601f82011682018060405250810190610531919061135a565b336000908152600260205260409020548490600d9060ff16801561056a57506000868152600160205260409020546001600160a01b0316155b611089565b817f0000000000000000000000000739fe09b1f659856c3e29919bbab6f91a8843986001600160a01b03166306661abd6040518163ffffffff1660e01b8152600401602060405180830381865afa1580156105ce573d6000803e3d6000fd5b505050506040513d601f19601f820116820180604052508101906105f2919061141c565b101561061157604051634a283a5360e11b815260040160405180910390fd5b6000828152600160205260408120546001600160a01b0316908115806106a357506040516301ffc9a760e01b8152632877540760e01b60048201526001600160a01b038316906301ffc9a790602401602060405180830381865afa15801561067d573d6000803e3d6000fd5b505050506040513d601f19601f820116820180604052508101906106a19190611435565b155b61071557604051632674968d60e21b8152600481018590526001600160a01b038316906399d25a3490602401602060405180830381865afa1580156106ec573d6000803e3d6000fd5b505050506040513d601f19601f820116820180604052508101906107109190611435565b610718565b60015b9050806107385760405163a33db4cb60e01b815260040160405180910390fd5b6001600160a01b038216158015906107ba57506040516301ffc9a760e01b815263217a87fd60e21b60048201526001600160a01b038316906301ffc9a790602401602060405180830381865afa158015610796573d6000803e3d6000fd5b505050506040513d601f19601f820116820180604052508101906107ba9190611435565b156108225760405163202dc27d60e11b8152600481018590526001600160a01b03848116602483015283169063405b84fa90604401600060405180830381600087803b15801561080957600080fd5b505af115801561081d573d6000803e3d6000fd5b505050505b60008481526001602090815260409182902080546001600160a01b0319166001600160a01b038716908117909155915133815286917f7f9a7dcb234c909a09de2f344661ad9e5b24067adb97c908647c2edcbb121c3091015b60405180910390a350505050565b610891611099565b61089b60006110c6565b565b6040516331a9108f60e11b81526004810184905261094e907f0000000000000000000000000739fe09b1f659856c3e29919bbab6f91a8843986001600160a01b031690636352211e90602401602060405180830381865afa158015610906573d6000803e3d6000fd5b505050506040513d601f19601f8201168201806040525081019061092a919061135a565b6000858152600160205260409020548590600e906001600160a01b03163314611089565b6000838152600160205260408082205490516301ffc9a760e01b8152632877540760e01b60048201526001600160a01b03909116919082906301ffc9a790602401602060405180830381865afa1580156109ac573d6000803e3d6000fd5b505050506040513d601f19601f820116820180604052508101906109d09190611435565b1580610a40575060405163b1a50e3360e01b8152600481018690526001600160a01b0383169063b1a50e3390602401602060405180830381865afa158015610a1c573d6000803e3d6000fd5b505050506040513d601f19601f82011682018060405250810190610a409190611435565b6000868152600160205260409020549091506001600160a01b03163314801590610a68575080155b15610a86576040516375fef35f60e11b815260040160405180910390fd5b6000858152600360205260409020610a9f908585611116565b50826001811115610b5e5760005b81811015610b5c576000610ac2826001611452565b90505b82811015610b5357868682818110610adf57610adf611406565b9050602002016020810190610af491906112e9565b6001600160a01b0316878784818110610b0f57610b0f611406565b9050602002016020810190610b2491906112e9565b6001600160a01b031603610b4b57604051633e3830ab60e11b815260040160405180910390fd5b600101610ac5565b50600101610aad565b505b857fb648241d83df6540fc10f2acc641e4bf80a1e84e7ae2f1f6b0ad204b8fee635b868633604051610b9293929190611473565b60405180910390a2505050505050565b60008281526004602090815260408083206001600160a01b0380861685529252822054168015801590610bda5750610bda8482610425565b15610be657905061049e565b600084815260036020526040812054905b81811015610cc2576000868152600360205260408120805483908110610c1f57610c1f611406565b6000918252602082200154604051633a01714f60e01b8152600481018a90526001600160a01b03898116602483015290911692508290633a01714f90604401606060405180830381865afa158015610c7b573d6000803e3d6000fd5b505050506040513d601f19601f82011682018060405250810190610c9f9190611377565b516001600160a01b031614610cb957935061049e92505050565b50600101610bf7565b50600095945050505050565b610cd6611099565b6001600160a01b038216600081815260026020908152604091829020805460ff191685151590811790915591513381529192917f11207664cc48b0fa81c8674795f1d8f642960f38d5d2d305ad813093bed85fab910160405180910390a35050565b600081815260036020908152604091829020805483518184028101840190945280845260609392830182828015610d9857602002820191906000526020600020905b81546001600160a01b03168152600190910190602001808311610d7a575b50505050509050919050565b610dac611099565b6001600160a01b038116610ddb57604051631e4fbdf760e01b8152600060048201526024015b60405180910390fd5b610de4816110c6565b50565b336001600160a01b0384168114801590610eac5750604051631a45b42760e11b81526001600160a01b0382811660048301528581166024830152604482018590526064820184905260016084830181905260a48301527f000000000000000000000000fb44e31f92bb6c4bbfc1375181b17b42bce54f27169063348b684e9060c401602060405180830381865afa158015610e86573d6000803e3d6000fd5b505050506040513d601f19601f82011682018060405250810190610eaa9190611435565b155b15610eca5760405163075fd2b160e01b815260040160405180910390fd5b50505050565b610eda8282610425565b15610ee3575050565b6000828152600160205260408082205490516301ffc9a760e01b8152632877540760e01b60048201526001600160a01b03909116919082906301ffc9a790602401602060405180830381865afa158015610f41573d6000803e3d6000fd5b505050506040513d601f19601f82011682018060405250810190610f659190611435565b1580610fd5575060405163b1a50e3360e01b8152600481018590526001600160a01b0383169063b1a50e3390602401602060405180830381865afa158015610fb1573d6000803e3d6000fd5b505050506040513d601f19601f82011682018060405250810190610fd59190611435565b6000858152600160205260409020549091506001600160a01b03163314801590610ffd575080155b1561101b576040516375fef35f60e11b815260040160405180910390fd5b600084815260036020908152604080832080546001810182559084529282902090920180546001600160a01b0319166001600160a01b038716908117909155915133815286917f409bccc07b7cf7807930526a24318212d614c59f2dde05a017a41efee144e7c8910161087b565b80610eca57610eca848484610de7565b6000546001600160a01b0316331461089b5760405163118cdaa760e01b8152336004820152602401610dd2565b600080546001600160a01b038381166001600160a01b0319831681178455604051919092169283917f8be0079c531659141344cd1fd0a4f28419497f9722a3daafe3b4186f6b6457e09190a35050565b828054828255906000526020600020908101928215611169579160200282015b828111156111695781546001600160a01b0319166001600160a01b03843516178255602090920191600190910190611136565b50611175929150611179565b5090565b5b80821115611175576000815560010161117a565b6000602082840312156111a057600080fd5b5035919050565b6001600160a01b0381168114610de457600080fd5b6000806000606084860312156111d157600080fd5b8335925060208401356111e3816111a7565b915060408401356111f3816111a7565b809150509250925092565b6000806040838503121561121157600080fd5b823591506020830135611223816111a7565b809150509250929050565b60008060006040848603121561124357600080fd5b83359250602084013567ffffffffffffffff8082111561126257600080fd5b818601915086601f83011261127657600080fd5b81358181111561128557600080fd5b8760208260051b850101111561129a57600080fd5b6020830194508093505050509250925092565b8015158114610de457600080fd5b600080604083850312156112ce57600080fd5b82356112d9816111a7565b91506020830135611223816112ad565b6000602082840312156112fb57600080fd5b8135611306816111a7565b9392505050565b6020808252825182820181905260009190848201906040850190845b8181101561134e5783516001600160a01b031683529284019291840191600101611329565b50909695505050505050565b60006020828403121561136c57600080fd5b8151611306816111a7565b60006060828403121561138957600080fd5b6040516060810181811067ffffffffffffffff821117156113ba57634e487b7160e01b600052604160045260246000fd5b60405282516113c8816111a7565b8152602083015160ff811681146113de57600080fd5b6020820152604083015163ffffffff811681146113fa57600080fd5b60408201529392505050565b634e487b7160e01b600052603260045260246000fd5b60006020828403121561142e57600080fd5b5051919050565b60006020828403121561144757600080fd5b8151611306816112ad565b8082018082111561049e57634e487b7160e01b600052601160045260246000fd5b6040808252810183905260008460608301825b868110156114b6578235611499816111a7565b6001600160a01b0316825260209283019290910190600101611486565b506001600160a01b0394909416602093909301929092525090939250505056fea264697066735822122014c4986053115deb9360b293eb376675269a89a05b44254d712320b53249780564736f6c63430008170033",
	"devdoc": {
		"kind": "dev",
		"methods": {
			"constructor": {
				"params": {
					"owner": "The address that will own the contract.",
					"permissions": "A contract storing permissions.",
					"projects": "A contract which mints ERC-721s that represent project ownership and transfers."
				}
			},
			"isTerminalOf(uint256,address)": {
				"params": {
					"projectId": "The ID of the project to check.",
					"terminal": "The terminal to check for."
				},
				"returns": {
					"_0": "A flag indicating whether the project uses the terminal."
				}
			},
			"owner()": {
				"details": "Returns the address of the current owner."
			},
			"primaryTerminalOf(uint256,address)": {
				"details": "Returns the first terminal that accepts the token if the project hasn't explicitly set a primary terminal for it.Returns the zero address if no terminal accepts the token.",
				"params": {
					"projectId": "The ID of the project to get the primary terminal of.",
					"token": "The token that the terminal accepts."
				},
				"returns": {
					"_0": "The primary terminal's address."
				}
			},
			"renounceOwnership()": {
				"details": "Leaves the contract without owner. It will not be possible to call `onlyOwner` functions. Can only be called by the current owner. NOTE: Renouncing ownership will leave the contract without an owner, thereby disabling any functionality that is only available to the owner."
			},
			"setControllerOf(uint256,address)": {
				"details": "Can only be called if: - The ruleset's metadata has `allowSetController` enabled, and the message's sender is the project's owner or an address with the owner's permission to `SET_CONTROLLER`. - OR the message's sender is the project's current controller. - OR an address which `isAllowedToSetFirstController` is setting a project's first controller.",
				"params": {
					"controller": "The address of the controller to set.",
					"projectId": "The ID of the project whose controller is being set."
				}
			},
			"setIsAllowedToSetFirstController(address,bool)": {
				"details": "Only this contract's owner can call this function.These addresses are vetted controllers as well as contracts designed to launch new projects.A project can set its own controller without being on this list.If you would like to add an address/contract to this list, please reach out to this contract's owner.",
				"params": {
					"addr": "The address to allow or not allow.",
					"flag": "Whether the address is allowed to set first controllers for projects. Use `true` to allow and `false` to not allow."
				}
			},
			"setPrimaryTerminalOf(uint256,address,address)": {
				"details": "The primary terminal for a token is where payments in that token are routed to by default.This is useful in cases where a project has multiple terminals which accept the same token.Can only be called by the project's owner, or an address with the owner's permission to `SET_PRIMARY_TERMINAL`.",
				"params": {
					"projectId": "The ID of the project whose primary terminal is being set.",
					"terminal": "The terminal being set as the primary terminal.",
					"token": "The token to set the primary terminal for."
				}
			},
			"setTerminalsOf(uint256,address[])": {
				"details": "Can only be called by the project's owner, an address with the owner's permission to `SET_TERMINALS`, or the project's controller.Unless the caller is the project's controller, the project's ruleset must allow setting terminals.",
				"params": {
					"projectId": "The ID of the project whose terminals are being set.",
					"terminals": "An array of terminal addresses to set for the project."
				}
			},
			"terminalsOf(uint256)": {
				"params": {
					"projectId": "The ID of the project to get the terminals of."
				},
				"returns": {
					"_0": "An array of the project's terminal addresses."
				}
			},
			"transferOwnership(address)": {
				"details": "Transfers ownership of the contract to a new account (`newOwner`). Can only be called by the current owner."
			}
		},
		"version": 1
	},
	"userdoc": {
		"kind": "user",
		"methods": {
			"PERMISSIONS()": {
				"notice": "A contract storing permissions."
			},
			"PROJECTS()": {
				"notice": "Mints ERC-721s that represent project ownership and transfers."
			},
			"controllerOf(uint256)": {
				"notice": "The specified project's controller, which dictates how its terminals interact with its tokens and rulesets."
			},
			"isAllowedToSetFirstController(address)": {
				"notice": "Whether the specified address is allowed to set a project's first controller on their behalf."
			},
			"isTerminalOf(uint256,address)": {
				"notice": "Check if a project uses a specific terminal."
			},
			"primaryTerminalOf(uint256,address)": {
				"notice": "The primary terminal that a project uses for the specified token."
			},
			"setControllerOf(uint256,address)": {
				"notice": "Set a project's controller. Controllers manage how terminals interact with tokens and rulesets."
			},
			"setIsAllowedToSetFirstController(address,bool)": {
				"notice": "Add or remove an address/contract from a list of trusted addresses which are allowed to set a first controller for projects."
			},
			"setPrimaryTerminalOf(uint256,address,address)": {
				"notice": "Set a project's primary terminal for a token."
			},
			"setTerminalsOf(uint256,address[])": {
				"notice": "Set a project's terminals."
			},
			"terminalsOf(uint256)": {
				"notice": "The specified project's terminals."
			}
		},
		"version": 1
	},
	"gitCommit": "774c5cf064c93d6e7ed94e8a207edc157619a527",
	"sourceName": "src/JBDirectory.sol",
	"chainId": "11155111",
	"linkReferences": {},
	"deployedLinkReferences": {},
	"history": [
		{
			"_format": "sphinx-sol-ct-artifact-1",
			"merkleRoot": "0x58025795c33f9e0121b492c9ea8dc31dc6803cc81b9066cd376333e802464741",
			"contractName": "JBDirectory",
			"address": "0x18017cfeD48E1dC0Adc445cEF8A9e6AfFCb330DA",
			"abi": [
				{
					"type": "constructor",
					"inputs": [
						{
							"name": "permissions",
							"type": "address",
							"internalType": "contract IJBPermissions"
						},
						{
							"name": "projects",
							"type": "address",
							"internalType": "contract IJBProjects"
						},
						{
							"name": "owner",
							"type": "address",
							"internalType": "address"
						}
					],
					"stateMutability": "nonpayable"
				},
				{
					"type": "function",
					"name": "PERMISSIONS",
					"inputs": [],
					"outputs": [
						{
							"name": "",
							"type": "address",
							"internalType": "contract IJBPermissions"
						}
					],
					"stateMutability": "view"
				},
				{
					"type": "function",
					"name": "PROJECTS",
					"inputs": [],
					"outputs": [
						{
							"name": "",
							"type": "address",
							"internalType": "contract IJBProjects"
						}
					],
					"stateMutability": "view"
				},
				{
					"type": "function",
					"name": "controllerOf",
					"inputs": [
						{
							"name": "projectId",
							"type": "uint256",
							"internalType": "uint256"
						}
					],
					"outputs": [
						{
							"name": "",
							"type": "address",
							"internalType": "contract IERC165"
						}
					],
					"stateMutability": "view"
				},
				{
					"type": "function",
					"name": "isAllowedToSetFirstController",
					"inputs": [
						{
							"name": "addr",
							"type": "address",
							"internalType": "address"
						}
					],
					"outputs": [
						{
							"name": "",
							"type": "bool",
							"internalType": "bool"
						}
					],
					"stateMutability": "view"
				},
				{
					"type": "function",
					"name": "isTerminalOf",
					"inputs": [
						{
							"name": "projectId",
							"type": "uint256",
							"internalType": "uint256"
						},
						{
							"name": "terminal",
							"type": "address",
							"internalType": "contract IJBTerminal"
						}
					],
					"outputs": [
						{
							"name": "",
							"type": "bool",
							"internalType": "bool"
						}
					],
					"stateMutability": "view"
				},
				{
					"type": "function",
					"name": "owner",
					"inputs": [],
					"outputs": [
						{
							"name": "",
							"type": "address",
							"internalType": "address"
						}
					],
					"stateMutability": "view"
				},
				{
					"type": "function",
					"name": "primaryTerminalOf",
					"inputs": [
						{
							"name": "projectId",
							"type": "uint256",
							"internalType": "uint256"
						},
						{
							"name": "token",
							"type": "address",
							"internalType": "address"
						}
					],
					"outputs": [
						{
							"name": "",
							"type": "address",
							"internalType": "contract IJBTerminal"
						}
					],
					"stateMutability": "view"
				},
				{
					"type": "function",
					"name": "renounceOwnership",
					"inputs": [],
					"outputs": [],
					"stateMutability": "nonpayable"
				},
				{
					"type": "function",
					"name": "setControllerOf",
					"inputs": [
						{
							"name": "projectId",
							"type": "uint256",
							"internalType": "uint256"
						},
						{
							"name": "controller",
							"type": "address",
							"internalType": "contract IERC165"
						}
					],
					"outputs": [],
					"stateMutability": "nonpayable"
				},
				{
					"type": "function",
					"name": "setIsAllowedToSetFirstController",
					"inputs": [
						{
							"name": "addr",
							"type": "address",
							"internalType": "address"
						},
						{
							"name": "flag",
							"type": "bool",
							"internalType": "bool"
						}
					],
					"outputs": [],
					"stateMutability": "nonpayable"
				},
				{
					"type": "function",
					"name": "setPrimaryTerminalOf",
					"inputs": [
						{
							"name": "projectId",
							"type": "uint256",
							"internalType": "uint256"
						},
						{
							"name": "token",
							"type": "address",
							"internalType": "address"
						},
						{
							"name": "terminal",
							"type": "address",
							"internalType": "contract IJBTerminal"
						}
					],
					"outputs": [],
					"stateMutability": "nonpayable"
				},
				{
					"type": "function",
					"name": "setTerminalsOf",
					"inputs": [
						{
							"name": "projectId",
							"type": "uint256",
							"internalType": "uint256"
						},
						{
							"name": "terminals",
							"type": "address[]",
							"internalType": "contract IJBTerminal[]"
						}
					],
					"outputs": [],
					"stateMutability": "nonpayable"
				},
				{
					"type": "function",
					"name": "terminalsOf",
					"inputs": [
						{
							"name": "projectId",
							"type": "uint256",
							"internalType": "uint256"
						}
					],
					"outputs": [
						{
							"name": "",
							"type": "address[]",
							"internalType": "contract IJBTerminal[]"
						}
					],
					"stateMutability": "view"
				},
				{
					"type": "function",
					"name": "transferOwnership",
					"inputs": [
						{
							"name": "newOwner",
							"type": "address",
							"internalType": "address"
						}
					],
					"outputs": [],
					"stateMutability": "nonpayable"
				},
				{
					"type": "event",
					"name": "AddTerminal",
					"inputs": [
						{
							"name": "projectId",
							"type": "uint256",
							"indexed": true,
							"internalType": "uint256"
						},
						{
							"name": "terminal",
							"type": "address",
							"indexed": true,
							"internalType": "contract IJBTerminal"
						},
						{
							"name": "caller",
							"type": "address",
							"indexed": false,
							"internalType": "address"
						}
					],
					"anonymous": false
				},
				{
					"type": "event",
					"name": "OwnershipTransferred",
					"inputs": [
						{
							"name": "previousOwner",
							"type": "address",
							"indexed": true,
							"internalType": "address"
						},
						{
							"name": "newOwner",
							"type": "address",
							"indexed": true,
							"internalType": "address"
						}
					],
					"anonymous": false
				},
				{
					"type": "event",
					"name": "SetController",
					"inputs": [
						{
							"name": "projectId",
							"type": "uint256",
							"indexed": true,
							"internalType": "uint256"
						},
						{
							"name": "controller",
							"type": "address",
							"indexed": true,
							"internalType": "contract IERC165"
						},
						{
							"name": "caller",
							"type": "address",
							"indexed": false,
							"internalType": "address"
						}
					],
					"anonymous": false
				},
				{
					"type": "event",
					"name": "SetIsAllowedToSetFirstController",
					"inputs": [
						{
							"name": "addr",
							"type": "address",
							"indexed": true,
							"internalType": "address"
						},
						{
							"name": "flag",
							"type": "bool",
							"indexed": true,
							"internalType": "bool"
						},
						{
							"name": "caller",
							"type": "address",
							"indexed": false,
							"internalType": "address"
						}
					],
					"anonymous": false
				},
				{
					"type": "event",
					"name": "SetPrimaryTerminal",
					"inputs": [
						{
							"name": "projectId",
							"type": "uint256",
							"indexed": true,
							"internalType": "uint256"
						},
						{
							"name": "token",
							"type": "address",
							"indexed": true,
							"internalType": "address"
						},
						{
							"name": "terminal",
							"type": "address",
							"indexed": true,
							"internalType": "contract IJBTerminal"
						},
						{
							"name": "caller",
							"type": "address",
							"indexed": false,
							"internalType": "address"
						}
					],
					"anonymous": false
				},
				{
					"type": "event",
					"name": "SetTerminals",
					"inputs": [
						{
							"name": "projectId",
							"type": "uint256",
							"indexed": true,
							"internalType": "uint256"
						},
						{
							"name": "terminals",
							"type": "address[]",
							"indexed": false,
							"internalType": "contract IJBTerminal[]"
						},
						{
							"name": "caller",
							"type": "address",
							"indexed": false,
							"internalType": "address"
						}
					],
					"anonymous": false
				},
				{
					"type": "error",
					"name": "DUPLICATE_TERMINALS",
					"inputs": []
				},
				{
					"type": "error",
					"name": "INVALID_PROJECT_ID_IN_DIRECTORY",
					"inputs": []
				},
				{
					"type": "error",
					"name": "OwnableInvalidOwner",
					"inputs": [
						{
							"name": "owner",
							"type": "address",
							"internalType": "address"
						}
					]
				},
				{
					"type": "error",
					"name": "OwnableUnauthorizedAccount",
					"inputs": [
						{
							"name": "account",
							"type": "address",
							"internalType": "address"
						}
					]
				},
				{
					"type": "error",
					"name": "SET_CONTROLLER_NOT_ALLOWED",
					"inputs": []
				},
				{
					"type": "error",
					"name": "SET_TERMINALS_NOT_ALLOWED",
					"inputs": []
				},
				{
					"type": "error",
					"name": "TOKEN_NOT_ACCEPTED",
					"inputs": []
				},
				{
					"type": "error",
					"name": "UNAUTHORIZED",
					"inputs": []
				}
			],
			"solcInputHash": "b2112d617c776ac2cceb92d11c578094",
			"receipt": {
				"blockHash": "0x16052471b9ac7e9479f3215906569bb1ea5bef1c2e1f4d933dac32f884627b01",
				"blockNumber": 5424380,
				"contractAddress": null,
				"cumulativeGasUsed": "24376581",
				"from": "0xC034550B542b83BA1De312b21d1C94a9a52B1595",
				"gasPrice": "1012207646",
				"gasUsed": "10946934",
				"hash": "0x19bc5315bba2caaac4e6e9a41cf902def8a609aaca80787f6e96f6f41bbd4439",
				"index": 89,
				"logs": [
					{
						"address": "0xB5E96127D417b1B3ef8438496a38A143167209c7",
						"blockHash": "0x16052471b9ac7e9479f3215906569bb1ea5bef1c2e1f4d933dac32f884627b01",
						"blockNumber": 5424380,
						"data": "0x0000000000000000000000000000000000000000000000000000000000000000",
						"index": 146,
						"topics": [
							"0x572f161235911da04685a68c06adf558fc7e4a36909dca394650e0adc19cc93d",
							"0x000000000000000000000000c034550b542b83ba1de312b21d1c94a9a52b1595",
							"0x000000000000000000000000ef1be3c049809cace5bc203bbe4ec1ab284bf75c",
							"0x382284f5d783cda733be9c0662007769be4127911b33bf59cf0fc970f0906943"
						],
						"transactionHash": "0x19bc5315bba2caaac4e6e9a41cf902def8a609aaca80787f6e96f6f41bbd4439",
						"transactionIndex": 89
					},
					{
						"address": "0x1081B5AA9D9d4862A3dA4d469433FB36Ed80FA2A",
						"blockHash": "0x16052471b9ac7e9479f3215906569bb1ea5bef1c2e1f4d933dac32f884627b01",
						"blockNumber": 5424380,
						"data": "0x",
						"index": 147,
						"topics": [
							"0x6895c13664aa4f67288b25d7a21d7aaa34916e355fb9b6fae0a139a9085becb8",
							"0x000000000000000000000000ef1be3c049809cace5bc203bbe4ec1ab284bf75c"
						],
						"transactionHash": "0x19bc5315bba2caaac4e6e9a41cf902def8a609aaca80787f6e96f6f41bbd4439",
						"transactionIndex": 89
					},
					{
						"address": "0xEf1Be3C049809caCe5Bc203BBe4Ec1Ab284bF75c",
						"blockHash": "0x16052471b9ac7e9479f3215906569bb1ea5bef1c2e1f4d933dac32f884627b01",
						"blockNumber": 5424380,
						"data": "0x0000000000000000000000000000000000000000000000000000000000000001",
						"index": 148,
						"topics": [
							"0xa65fb05c5808f5f389d72edeaf719ce38f4cc55c1f69ca3cbfb31c21501caa07",
							"0x58025795c33f9e0121b492c9ea8dc31dc6803cc81b9066cd376333e802464741"
						],
						"transactionHash": "0x19bc5315bba2caaac4e6e9a41cf902def8a609aaca80787f6e96f6f41bbd4439",
						"transactionIndex": 89
					},
					{
						"address": "0x1081B5AA9D9d4862A3dA4d469433FB36Ed80FA2A",
						"blockHash": "0x16052471b9ac7e9479f3215906569bb1ea5bef1c2e1f4d933dac32f884627b01",
						"blockNumber": 5424380,
						"data": "0x000000000000000000000000ba24624ae5dc821866e9e71ed050412ef01e2fe6",
						"index": 149,
						"topics": [
							"0x4db17dd5e4732fb6da34a148104a592783ca119a1e7bb8829eba6cbadef0b511"
						],
						"transactionHash": "0x19bc5315bba2caaac4e6e9a41cf902def8a609aaca80787f6e96f6f41bbd4439",
						"transactionIndex": 89
					},
					{
						"address": "0x1081B5AA9D9d4862A3dA4d469433FB36Ed80FA2A",
						"blockHash": "0x16052471b9ac7e9479f3215906569bb1ea5bef1c2e1f4d933dac32f884627b01",
						"blockNumber": 5424380,
						"data": "0x",
						"index": 150,
						"topics": [
							"0x6895c13664aa4f67288b25d7a21d7aaa34916e355fb9b6fae0a139a9085becb8",
							"0x000000000000000000000000ef1be3c049809cace5bc203bbe4ec1ab284bf75c"
						],
						"transactionHash": "0x19bc5315bba2caaac4e6e9a41cf902def8a609aaca80787f6e96f6f41bbd4439",
						"transactionIndex": 89
					},
					{
						"address": "0xEf1Be3C049809caCe5Bc203BBe4Ec1Ab284bF75c",
						"blockHash": "0x16052471b9ac7e9479f3215906569bb1ea5bef1c2e1f4d933dac32f884627b01",
						"blockNumber": 5424380,
						"data": "0x0000000000000000000000000000000000000000000000000000000000000002",
						"index": 151,
						"topics": [
							"0xa65fb05c5808f5f389d72edeaf719ce38f4cc55c1f69ca3cbfb31c21501caa07",
							"0x58025795c33f9e0121b492c9ea8dc31dc6803cc81b9066cd376333e802464741"
						],
						"transactionHash": "0x19bc5315bba2caaac4e6e9a41cf902def8a609aaca80787f6e96f6f41bbd4439",
						"transactionIndex": 89
					},
					{
						"address": "0x4d9207aBEcA883161A1eAee9DaBeDC0001c198d7",
						"blockHash": "0x16052471b9ac7e9479f3215906569bb1ea5bef1c2e1f4d933dac32f884627b01",
						"blockNumber": 5424380,
						"data": "0x",
						"index": 152,
						"topics": [
							"0x8be0079c531659141344cd1fd0a4f28419497f9722a3daafe3b4186f6b6457e0",
							"0x0000000000000000000000000000000000000000000000000000000000000000",
							"0x000000000000000000000000823b92d6a4b2aed4b15675c7917c9f922ea8adad"
						],
						"transactionHash": "0x19bc5315bba2caaac4e6e9a41cf902def8a609aaca80787f6e96f6f41bbd4439",
						"transactionIndex": 89
					},
					{
						"address": "0x1081B5AA9D9d4862A3dA4d469433FB36Ed80FA2A",
						"blockHash": "0x16052471b9ac7e9479f3215906569bb1ea5bef1c2e1f4d933dac32f884627b01",
						"blockNumber": 5424380,
						"data": "0x0000000000000000000000004d9207abeca883161a1eaee9dabedc0001c198d7",
						"index": 153,
						"topics": [
							"0x4db17dd5e4732fb6da34a148104a592783ca119a1e7bb8829eba6cbadef0b511"
						],
						"transactionHash": "0x19bc5315bba2caaac4e6e9a41cf902def8a609aaca80787f6e96f6f41bbd4439",
						"transactionIndex": 89
					},
					{
						"address": "0x1081B5AA9D9d4862A3dA4d469433FB36Ed80FA2A",
						"blockHash": "0x16052471b9ac7e9479f3215906569bb1ea5bef1c2e1f4d933dac32f884627b01",
						"blockNumber": 5424380,
						"data": "0x",
						"index": 154,
						"topics": [
							"0x6895c13664aa4f67288b25d7a21d7aaa34916e355fb9b6fae0a139a9085becb8",
							"0x000000000000000000000000ef1be3c049809cace5bc203bbe4ec1ab284bf75c"
						],
						"transactionHash": "0x19bc5315bba2caaac4e6e9a41cf902def8a609aaca80787f6e96f6f41bbd4439",
						"transactionIndex": 89
					},
					{
						"address": "0xEf1Be3C049809caCe5Bc203BBe4Ec1Ab284bF75c",
						"blockHash": "0x16052471b9ac7e9479f3215906569bb1ea5bef1c2e1f4d933dac32f884627b01",
						"blockNumber": 5424380,
						"data": "0x0000000000000000000000000000000000000000000000000000000000000003",
						"index": 155,
						"topics": [
							"0xa65fb05c5808f5f389d72edeaf719ce38f4cc55c1f69ca3cbfb31c21501caa07",
							"0x58025795c33f9e0121b492c9ea8dc31dc6803cc81b9066cd376333e802464741"
						],
						"transactionHash": "0x19bc5315bba2caaac4e6e9a41cf902def8a609aaca80787f6e96f6f41bbd4439",
						"transactionIndex": 89
					},
					{
						"address": "0x18017cfeD48E1dC0Adc445cEF8A9e6AfFCb330DA",
						"blockHash": "0x16052471b9ac7e9479f3215906569bb1ea5bef1c2e1f4d933dac32f884627b01",
						"blockNumber": 5424380,
						"data": "0x",
						"index": 156,
						"topics": [
							"0x8be0079c531659141344cd1fd0a4f28419497f9722a3daafe3b4186f6b6457e0",
							"0x0000000000000000000000000000000000000000000000000000000000000000",
							"0x0000000000000000000000001081b5aa9d9d4862a3da4d469433fb36ed80fa2a"
						],
						"transactionHash": "0x19bc5315bba2caaac4e6e9a41cf902def8a609aaca80787f6e96f6f41bbd4439",
						"transactionIndex": 89
					},
					{
						"address": "0x1081B5AA9D9d4862A3dA4d469433FB36Ed80FA2A",
						"blockHash": "0x16052471b9ac7e9479f3215906569bb1ea5bef1c2e1f4d933dac32f884627b01",
						"blockNumber": 5424380,
						"data": "0x00000000000000000000000018017cfed48e1dc0adc445cef8a9e6affcb330da",
						"index": 157,
						"topics": [
							"0x4db17dd5e4732fb6da34a148104a592783ca119a1e7bb8829eba6cbadef0b511"
						],
						"transactionHash": "0x19bc5315bba2caaac4e6e9a41cf902def8a609aaca80787f6e96f6f41bbd4439",
						"transactionIndex": 89
					},
					{
						"address": "0x1081B5AA9D9d4862A3dA4d469433FB36Ed80FA2A",
						"blockHash": "0x16052471b9ac7e9479f3215906569bb1ea5bef1c2e1f4d933dac32f884627b01",
						"blockNumber": 5424380,
						"data": "0x",
						"index": 158,
						"topics": [
							"0x6895c13664aa4f67288b25d7a21d7aaa34916e355fb9b6fae0a139a9085becb8",
							"0x000000000000000000000000ef1be3c049809cace5bc203bbe4ec1ab284bf75c"
						],
						"transactionHash": "0x19bc5315bba2caaac4e6e9a41cf902def8a609aaca80787f6e96f6f41bbd4439",
						"transactionIndex": 89
					},
					{
						"address": "0xEf1Be3C049809caCe5Bc203BBe4Ec1Ab284bF75c",
						"blockHash": "0x16052471b9ac7e9479f3215906569bb1ea5bef1c2e1f4d933dac32f884627b01",
						"blockNumber": 5424380,
						"data": "0x0000000000000000000000000000000000000000000000000000000000000004",
						"index": 159,
						"topics": [
							"0xa65fb05c5808f5f389d72edeaf719ce38f4cc55c1f69ca3cbfb31c21501caa07",
							"0x58025795c33f9e0121b492c9ea8dc31dc6803cc81b9066cd376333e802464741"
						],
						"transactionHash": "0x19bc5315bba2caaac4e6e9a41cf902def8a609aaca80787f6e96f6f41bbd4439",
						"transactionIndex": 89
					},
					{
						"address": "0x1081B5AA9D9d4862A3dA4d469433FB36Ed80FA2A",
						"blockHash": "0x16052471b9ac7e9479f3215906569bb1ea5bef1c2e1f4d933dac32f884627b01",
						"blockNumber": 5424380,
						"data": "0x0000000000000000000000007cb4a75d21c45d1a0a0333bfa626f54636c84da5",
						"index": 160,
						"topics": [
							"0x4db17dd5e4732fb6da34a148104a592783ca119a1e7bb8829eba6cbadef0b511"
						],
						"transactionHash": "0x19bc5315bba2caaac4e6e9a41cf902def8a609aaca80787f6e96f6f41bbd4439",
						"transactionIndex": 89
					},
					{
						"address": "0x1081B5AA9D9d4862A3dA4d469433FB36Ed80FA2A",
						"blockHash": "0x16052471b9ac7e9479f3215906569bb1ea5bef1c2e1f4d933dac32f884627b01",
						"blockNumber": 5424380,
						"data": "0x",
						"index": 161,
						"topics": [
							"0x6895c13664aa4f67288b25d7a21d7aaa34916e355fb9b6fae0a139a9085becb8",
							"0x000000000000000000000000ef1be3c049809cace5bc203bbe4ec1ab284bf75c"
						],
						"transactionHash": "0x19bc5315bba2caaac4e6e9a41cf902def8a609aaca80787f6e96f6f41bbd4439",
						"transactionIndex": 89
					},
					{
						"address": "0xEf1Be3C049809caCe5Bc203BBe4Ec1Ab284bF75c",
						"blockHash": "0x16052471b9ac7e9479f3215906569bb1ea5bef1c2e1f4d933dac32f884627b01",
						"blockNumber": 5424380,
						"data": "0x0000000000000000000000000000000000000000000000000000000000000005",
						"index": 162,
						"topics": [
							"0xa65fb05c5808f5f389d72edeaf719ce38f4cc55c1f69ca3cbfb31c21501caa07",
							"0x58025795c33f9e0121b492c9ea8dc31dc6803cc81b9066cd376333e802464741"
						],
						"transactionHash": "0x19bc5315bba2caaac4e6e9a41cf902def8a609aaca80787f6e96f6f41bbd4439",
						"transactionIndex": 89
					},
					{
						"address": "0x1081B5AA9D9d4862A3dA4d469433FB36Ed80FA2A",
						"blockHash": "0x16052471b9ac7e9479f3215906569bb1ea5bef1c2e1f4d933dac32f884627b01",
						"blockNumber": 5424380,
						"data": "0x0000000000000000000000001eb7799d3a230a0440f0d6c477256df8d425adbb",
						"index": 163,
						"topics": [
							"0x4db17dd5e4732fb6da34a148104a592783ca119a1e7bb8829eba6cbadef0b511"
						],
						"transactionHash": "0x19bc5315bba2caaac4e6e9a41cf902def8a609aaca80787f6e96f6f41bbd4439",
						"transactionIndex": 89
					},
					{
						"address": "0x1081B5AA9D9d4862A3dA4d469433FB36Ed80FA2A",
						"blockHash": "0x16052471b9ac7e9479f3215906569bb1ea5bef1c2e1f4d933dac32f884627b01",
						"blockNumber": 5424380,
						"data": "0x",
						"index": 164,
						"topics": [
							"0x6895c13664aa4f67288b25d7a21d7aaa34916e355fb9b6fae0a139a9085becb8",
							"0x000000000000000000000000ef1be3c049809cace5bc203bbe4ec1ab284bf75c"
						],
						"transactionHash": "0x19bc5315bba2caaac4e6e9a41cf902def8a609aaca80787f6e96f6f41bbd4439",
						"transactionIndex": 89
					},
					{
						"address": "0xEf1Be3C049809caCe5Bc203BBe4Ec1Ab284bF75c",
						"blockHash": "0x16052471b9ac7e9479f3215906569bb1ea5bef1c2e1f4d933dac32f884627b01",
						"blockNumber": 5424380,
						"data": "0x0000000000000000000000000000000000000000000000000000000000000006",
						"index": 165,
						"topics": [
							"0xa65fb05c5808f5f389d72edeaf719ce38f4cc55c1f69ca3cbfb31c21501caa07",
							"0x58025795c33f9e0121b492c9ea8dc31dc6803cc81b9066cd376333e802464741"
						],
						"transactionHash": "0x19bc5315bba2caaac4e6e9a41cf902def8a609aaca80787f6e96f6f41bbd4439",
						"transactionIndex": 89
					},
					{
						"address": "0x1081B5AA9D9d4862A3dA4d469433FB36Ed80FA2A",
						"blockHash": "0x16052471b9ac7e9479f3215906569bb1ea5bef1c2e1f4d933dac32f884627b01",
						"blockNumber": 5424380,
						"data": "0x0000000000000000000000003295c9c7374e583cb2e6ed455eaf9908022159d0",
						"index": 166,
						"topics": [
							"0x4db17dd5e4732fb6da34a148104a592783ca119a1e7bb8829eba6cbadef0b511"
						],
						"transactionHash": "0x19bc5315bba2caaac4e6e9a41cf902def8a609aaca80787f6e96f6f41bbd4439",
						"transactionIndex": 89
					},
					{
						"address": "0x1081B5AA9D9d4862A3dA4d469433FB36Ed80FA2A",
						"blockHash": "0x16052471b9ac7e9479f3215906569bb1ea5bef1c2e1f4d933dac32f884627b01",
						"blockNumber": 5424380,
						"data": "0x",
						"index": 167,
						"topics": [
							"0x6895c13664aa4f67288b25d7a21d7aaa34916e355fb9b6fae0a139a9085becb8",
							"0x000000000000000000000000ef1be3c049809cace5bc203bbe4ec1ab284bf75c"
						],
						"transactionHash": "0x19bc5315bba2caaac4e6e9a41cf902def8a609aaca80787f6e96f6f41bbd4439",
						"transactionIndex": 89
					},
					{
						"address": "0xEf1Be3C049809caCe5Bc203BBe4Ec1Ab284bF75c",
						"blockHash": "0x16052471b9ac7e9479f3215906569bb1ea5bef1c2e1f4d933dac32f884627b01",
						"blockNumber": 5424380,
						"data": "0x0000000000000000000000000000000000000000000000000000000000000007",
						"index": 168,
						"topics": [
							"0xa65fb05c5808f5f389d72edeaf719ce38f4cc55c1f69ca3cbfb31c21501caa07",
							"0x58025795c33f9e0121b492c9ea8dc31dc6803cc81b9066cd376333e802464741"
						],
						"transactionHash": "0x19bc5315bba2caaac4e6e9a41cf902def8a609aaca80787f6e96f6f41bbd4439",
						"transactionIndex": 89
					},
					{
						"address": "0x1081B5AA9D9d4862A3dA4d469433FB36Ed80FA2A",
						"blockHash": "0x16052471b9ac7e9479f3215906569bb1ea5bef1c2e1f4d933dac32f884627b01",
						"blockNumber": 5424380,
						"data": "0x0000000000000000000000002fd39295dd948dfbb8aa7e2508ea5fc15096682b",
						"index": 169,
						"topics": [
							"0x4db17dd5e4732fb6da34a148104a592783ca119a1e7bb8829eba6cbadef0b511"
						],
						"transactionHash": "0x19bc5315bba2caaac4e6e9a41cf902def8a609aaca80787f6e96f6f41bbd4439",
						"transactionIndex": 89
					},
					{
						"address": "0x1081B5AA9D9d4862A3dA4d469433FB36Ed80FA2A",
						"blockHash": "0x16052471b9ac7e9479f3215906569bb1ea5bef1c2e1f4d933dac32f884627b01",
						"blockNumber": 5424380,
						"data": "0x",
						"index": 170,
						"topics": [
							"0x6895c13664aa4f67288b25d7a21d7aaa34916e355fb9b6fae0a139a9085becb8",
							"0x000000000000000000000000ef1be3c049809cace5bc203bbe4ec1ab284bf75c"
						],
						"transactionHash": "0x19bc5315bba2caaac4e6e9a41cf902def8a609aaca80787f6e96f6f41bbd4439",
						"transactionIndex": 89
					},
					{
						"address": "0xEf1Be3C049809caCe5Bc203BBe4Ec1Ab284bF75c",
						"blockHash": "0x16052471b9ac7e9479f3215906569bb1ea5bef1c2e1f4d933dac32f884627b01",
						"blockNumber": 5424380,
						"data": "0x0000000000000000000000000000000000000000000000000000000000000008",
						"index": 171,
						"topics": [
							"0xa65fb05c5808f5f389d72edeaf719ce38f4cc55c1f69ca3cbfb31c21501caa07",
							"0x58025795c33f9e0121b492c9ea8dc31dc6803cc81b9066cd376333e802464741"
						],
						"transactionHash": "0x19bc5315bba2caaac4e6e9a41cf902def8a609aaca80787f6e96f6f41bbd4439",
						"transactionIndex": 89
					}
				],
				"logsBloom": "0x00000000080010008208000000080000000000000008000000800000004000000060008000000000000000000040000000000000000000000000000000000000000000000000200400000008820000000001000020000000000200000000000000000000020000000000000000000800000000100020000000000008000000400001000200000000000100800000000000080000000000000000804000000000004000080010000000002000000000020200000000400080000000000006000080000000000000200080000008000000000000000000000000000000000020000000000000000004000000000000000200000000000000000000000000000000",
				"status": 1,
				"to": "0xB5E96127D417b1B3ef8438496a38A143167209c7"
			},
			"metadata": "{\"compiler\":{\"version\":\"0.8.23+commit.f704f362\"},\"language\":\"Solidity\",\"output\":{\"abi\":[{\"inputs\":[{\"internalType\":\"contract IJBPermissions\",\"name\":\"permissions\",\"type\":\"address\"},{\"internalType\":\"contract IJBProjects\",\"name\":\"projects\",\"type\":\"address\"},{\"internalType\":\"address\",\"name\":\"owner\",\"type\":\"address\"}],\"stateMutability\":\"nonpayable\",\"type\":\"constructor\"},{\"inputs\":[],\"type\":\"error\",\"name\":\"DUPLICATE_TERMINALS\"},{\"inputs\":[],\"type\":\"error\",\"name\":\"INVALID_PROJECT_ID_IN_DIRECTORY\"},{\"inputs\":[{\"internalType\":\"address\",\"name\":\"owner\",\"type\":\"address\"}],\"type\":\"error\",\"name\":\"OwnableInvalidOwner\"},{\"inputs\":[{\"internalType\":\"address\",\"name\":\"account\",\"type\":\"address\"}],\"type\":\"error\",\"name\":\"OwnableUnauthorizedAccount\"},{\"inputs\":[],\"type\":\"error\",\"name\":\"SET_CONTROLLER_NOT_ALLOWED\"},{\"inputs\":[],\"type\":\"error\",\"name\":\"SET_TERMINALS_NOT_ALLOWED\"},{\"inputs\":[],\"type\":\"error\",\"name\":\"TOKEN_NOT_ACCEPTED\"},{\"inputs\":[],\"type\":\"error\",\"name\":\"UNAUTHORIZED\"},{\"inputs\":[{\"internalType\":\"uint256\",\"name\":\"projectId\",\"type\":\"uint256\",\"indexed\":true},{\"internalType\":\"contract IJBTerminal\",\"name\":\"terminal\",\"type\":\"address\",\"indexed\":true},{\"internalType\":\"address\",\"name\":\"caller\",\"type\":\"address\",\"indexed\":false}],\"type\":\"event\",\"name\":\"AddTerminal\",\"anonymous\":false},{\"inputs\":[{\"internalType\":\"address\",\"name\":\"previousOwner\",\"type\":\"address\",\"indexed\":true},{\"internalType\":\"address\",\"name\":\"newOwner\",\"type\":\"address\",\"indexed\":true}],\"type\":\"event\",\"name\":\"OwnershipTransferred\",\"anonymous\":false},{\"inputs\":[{\"internalType\":\"uint256\",\"name\":\"projectId\",\"type\":\"uint256\",\"indexed\":true},{\"internalType\":\"contract IERC165\",\"name\":\"controller\",\"type\":\"address\",\"indexed\":true},{\"internalType\":\"address\",\"name\":\"caller\",\"type\":\"address\",\"indexed\":false}],\"type\":\"event\",\"name\":\"SetController\",\"anonymous\":false},{\"inputs\":[{\"internalType\":\"address\",\"name\":\"addr\",\"type\":\"address\",\"indexed\":true},{\"internalType\":\"bool\",\"name\":\"flag\",\"type\":\"bool\",\"indexed\":true},{\"internalType\":\"address\",\"name\":\"caller\",\"type\":\"address\",\"indexed\":false}],\"type\":\"event\",\"name\":\"SetIsAllowedToSetFirstController\",\"anonymous\":false},{\"inputs\":[{\"internalType\":\"uint256\",\"name\":\"projectId\",\"type\":\"uint256\",\"indexed\":true},{\"internalType\":\"address\",\"name\":\"token\",\"type\":\"address\",\"indexed\":true},{\"internalType\":\"contract IJBTerminal\",\"name\":\"terminal\",\"type\":\"address\",\"indexed\":true},{\"internalType\":\"address\",\"name\":\"caller\",\"type\":\"address\",\"indexed\":false}],\"type\":\"event\",\"name\":\"SetPrimaryTerminal\",\"anonymous\":false},{\"inputs\":[{\"internalType\":\"uint256\",\"name\":\"projectId\",\"type\":\"uint256\",\"indexed\":true},{\"internalType\":\"contract IJBTerminal[]\",\"name\":\"terminals\",\"type\":\"address[]\",\"indexed\":false},{\"internalType\":\"address\",\"name\":\"caller\",\"type\":\"address\",\"indexed\":false}],\"type\":\"event\",\"name\":\"SetTerminals\",\"anonymous\":false},{\"inputs\":[],\"stateMutability\":\"view\",\"type\":\"function\",\"name\":\"PERMISSIONS\",\"outputs\":[{\"internalType\":\"contract IJBPermissions\",\"name\":\"\",\"type\":\"address\"}]},{\"inputs\":[],\"stateMutability\":\"view\",\"type\":\"function\",\"name\":\"PROJECTS\",\"outputs\":[{\"internalType\":\"contract IJBProjects\",\"name\":\"\",\"type\":\"address\"}]},{\"inputs\":[{\"internalType\":\"uint256\",\"name\":\"projectId\",\"type\":\"uint256\"}],\"stateMutability\":\"view\",\"type\":\"function\",\"name\":\"controllerOf\",\"outputs\":[{\"internalType\":\"contract IERC165\",\"name\":\"\",\"type\":\"address\"}]},{\"inputs\":[{\"internalType\":\"address\",\"name\":\"addr\",\"type\":\"address\"}],\"stateMutability\":\"view\",\"type\":\"function\",\"name\":\"isAllowedToSetFirstController\",\"outputs\":[{\"internalType\":\"bool\",\"name\":\"\",\"type\":\"bool\"}]},{\"inputs\":[{\"internalType\":\"uint256\",\"name\":\"projectId\",\"type\":\"uint256\"},{\"internalType\":\"contract IJBTerminal\",\"name\":\"terminal\",\"type\":\"address\"}],\"stateMutability\":\"view\",\"type\":\"function\",\"name\":\"isTerminalOf\",\"outputs\":[{\"internalType\":\"bool\",\"name\":\"\",\"type\":\"bool\"}]},{\"inputs\":[],\"stateMutability\":\"view\",\"type\":\"function\",\"name\":\"owner\",\"outputs\":[{\"internalType\":\"address\",\"name\":\"\",\"type\":\"address\"}]},{\"inputs\":[{\"internalType\":\"uint256\",\"name\":\"projectId\",\"type\":\"uint256\"},{\"internalType\":\"address\",\"name\":\"token\",\"type\":\"address\"}],\"stateMutability\":\"view\",\"type\":\"function\",\"name\":\"primaryTerminalOf\",\"outputs\":[{\"internalType\":\"contract IJBTerminal\",\"name\":\"\",\"type\":\"address\"}]},{\"inputs\":[],\"stateMutability\":\"nonpayable\",\"type\":\"function\",\"name\":\"renounceOwnership\"},{\"inputs\":[{\"internalType\":\"uint256\",\"name\":\"projectId\",\"type\":\"uint256\"},{\"internalType\":\"contract IERC165\",\"name\":\"controller\",\"type\":\"address\"}],\"stateMutability\":\"nonpayable\",\"type\":\"function\",\"name\":\"setControllerOf\"},{\"inputs\":[{\"internalType\":\"address\",\"name\":\"addr\",\"type\":\"address\"},{\"internalType\":\"bool\",\"name\":\"flag\",\"type\":\"bool\"}],\"stateMutability\":\"nonpayable\",\"type\":\"function\",\"name\":\"setIsAllowedToSetFirstController\"},{\"inputs\":[{\"internalType\":\"uint256\",\"name\":\"projectId\",\"type\":\"uint256\"},{\"internalType\":\"address\",\"name\":\"token\",\"type\":\"address\"},{\"internalType\":\"contract IJBTerminal\",\"name\":\"terminal\",\"type\":\"address\"}],\"stateMutability\":\"nonpayable\",\"type\":\"function\",\"name\":\"setPrimaryTerminalOf\"},{\"inputs\":[{\"internalType\":\"uint256\",\"name\":\"projectId\",\"type\":\"uint256\"},{\"internalType\":\"contract IJBTerminal[]\",\"name\":\"terminals\",\"type\":\"address[]\"}],\"stateMutability\":\"nonpayable\",\"type\":\"function\",\"name\":\"setTerminalsOf\"},{\"inputs\":[{\"internalType\":\"uint256\",\"name\":\"projectId\",\"type\":\"uint256\"}],\"stateMutability\":\"view\",\"type\":\"function\",\"name\":\"terminalsOf\",\"outputs\":[{\"internalType\":\"contract IJBTerminal[]\",\"name\":\"\",\"type\":\"address[]\"}]},{\"inputs\":[{\"internalType\":\"address\",\"name\":\"newOwner\",\"type\":\"address\"}],\"stateMutability\":\"nonpayable\",\"type\":\"function\",\"name\":\"transferOwnership\"}],\"devdoc\":{\"kind\":\"dev\",\"methods\":{\"constructor\":{\"params\":{\"owner\":\"The address that will own the contract.\",\"permissions\":\"A contract storing permissions.\",\"projects\":\"A contract which mints ERC-721s that represent project ownership and transfers.\"}},\"isTerminalOf(uint256,address)\":{\"params\":{\"projectId\":\"The ID of the project to check for the terminal.\",\"terminal\":\"The address of the terminal to check for.\"},\"returns\":{\"_0\":\"A flag indicating whether or not the specified terminal is a terminal of the specified project.\"}},\"owner()\":{\"details\":\"Returns the address of the current owner.\"},\"primaryTerminalOf(uint256,address)\":{\"details\":\"The zero address is returned if a terminal isn't found for the specified token.\",\"params\":{\"projectId\":\"The ID of the project to get the primary terminal of.\",\"token\":\"The token the terminal accepts.\"},\"returns\":{\"_0\":\"The address of the primary terminal for the specified project and token.\"}},\"renounceOwnership()\":{\"details\":\"Leaves the contract without owner. It will not be possible to call `onlyOwner` functions. Can only be called by the current owner. NOTE: Renouncing ownership will leave the contract without an owner, thereby disabling any functionality that is only available to the owner.\"},\"setControllerOf(uint256,address)\":{\"details\":\"A controller can be set if:- The project's ruleset allows setting the controller, and the message sender is the project owner or an operator with the `SET_CONTROLLER` permission from them.- OR the message sender is the project's current controller.- OR an allowedlisted address is setting a controller for a project that doesn't already have a controller.\",\"params\":{\"controller\":\"The address of the new controller to set for the project.\",\"projectId\":\"The ID of the project to set the controller of.\"}},\"setIsAllowedToSetFirstController(address,bool)\":{\"details\":\"Only this contract's owner can call this function.These addresses are known and vetted controllers as well as contracts designed to launch new projects.A project can set its own controller without being on the allow list.If you would like an address/contract allowlisted, please reach out to the contract owner.\",\"params\":{\"addr\":\"The address to allow or not allow.\",\"flag\":\"Whether the address is allowed or not allowed to set first controllers for projects. Use `true` to allow and `false` to not allow.\"}},\"setPrimaryTerminalOf(uint256,address,address)\":{\"details\":\"The primary terminal is where a token should be routed to by default.This is useful in case a project has several terminals connected for a particular token.If setting a newly added terminal and the ruleset doesn't allow new terminals, the caller must be the current controller.\",\"params\":{\"projectId\":\"The ID of the project a primary token is being set for.\",\"terminal\":\"The terminal to make the primary terminal for the project and token.\",\"token\":\"The token to set the primary terminal for.\"}},\"setTerminalsOf(uint256,address[])\":{\"details\":\"Only a project's owner, an operator with the `SET_TERMINALS` permission from the owner, or the project's controller can set its terminals.Unless the caller is the project's controller, the project's ruleset must allow setting terminals.\",\"params\":{\"projectId\":\"The ID of the project to set terminals for.\",\"terminals\":\"An array of terminal addresses to set for the project.\"}},\"terminalsOf(uint256)\":{\"params\":{\"projectId\":\"The ID of the project to get the terminals of.\"},\"returns\":{\"_0\":\"An array of terminal addresses.\"}},\"transferOwnership(address)\":{\"details\":\"Transfers ownership of the contract to a new account (`newOwner`). Can only be called by the current owner.\"}},\"version\":1},\"userdoc\":{\"kind\":\"user\",\"methods\":{\"PERMISSIONS()\":{\"notice\":\"A contract storing permissions.\"},\"PROJECTS()\":{\"notice\":\"Mints ERC-721s that represent project ownership and transfers.\"},\"controllerOf(uint256)\":{\"notice\":\"The controller, which dictates how terminals interact with tokens and rulesets, for a given project ID.\"},\"isAllowedToSetFirstController(address)\":{\"notice\":\"Addresses allowed to set a project's first controller on their behalf. These addresses/contracts have been vetted and verified by this contract's owner.\"},\"isTerminalOf(uint256,address)\":{\"notice\":\"Check if a specified project uses a specified terminal.\"},\"primaryTerminalOf(uint256,address)\":{\"notice\":\"The primary terminal that a project is using to manage a specified token.\"},\"setControllerOf(uint256,address)\":{\"notice\":\"Set a project's controller. Controllers manage how terminals interact with tokens and rulesets.\"},\"setIsAllowedToSetFirstController(address,bool)\":{\"notice\":\"Add an address/contract to the list of trusted addresses which are allowed to set a first controller for projects.\"},\"setPrimaryTerminalOf(uint256,address,address)\":{\"notice\":\"Set a project's primary terminal for a particular token.\"},\"setTerminalsOf(uint256,address[])\":{\"notice\":\"Set a project's terminals.\"},\"terminalsOf(uint256)\":{\"notice\":\"For  given project ID, the terminals which are currently managing that project's funds.\"}},\"version\":1}},\"settings\":{\"remappings\":[\"@bananapus/=node_modules/@bananapus/\",\"@chainlink/=node_modules/@chainlink/\",\"@eth-optimism/=node_modules/@eth-optimism/\",\"@gnosis.pm/=node_modules/@gnosis.pm/\",\"@openzeppelin/=node_modules/@openzeppelin/\",\"@prb/=node_modules/@prb/\",\"@sphinx-labs/contracts/=lib/sphinx/packages/contracts/contracts/foundry/\",\"@uniswap/=node_modules/@uniswap/\",\"ds-test/=lib/forge-std/lib/ds-test/src/\",\"forge-std/=lib/forge-std/src/\",\"hardhat/=node_modules/hardhat/\",\"solmate/=node_modules/solmate/\",\"sphinx-forge-std/=node_modules/sphinx-forge-std/\",\"sphinx-solmate/=node_modules/sphinx-solmate/\",\"sphinx/=lib/sphinx/\"],\"optimizer\":{\"enabled\":true,\"runs\":200},\"metadata\":{\"bytecodeHash\":\"ipfs\"},\"compilationTarget\":{\"src/JBDirectory.sol\":\"JBDirectory\"},\"evmVersion\":\"paris\",\"libraries\":{}},\"sources\":{\"node_modules/@bananapus/permission-ids/src/JBPermissionIds.sol\":{\"keccak256\":\"0xcc68735b4c801e953cb7962e069933f369515e7a4a09aea5b2170a268125a898\",\"urls\":[\"bzz-raw://e51f839d96be200efeca40ca4fb1d5b6096303564cdde5cf67aecf58e2d36db3\",\"dweb:/ipfs/QmRnJ5s974eUeyvTuLUpt4TK8t5TjVmz7DyDSAKxgYTnA5\"],\"license\":\"UNLICENSED\"},\"node_modules/@openzeppelin/contracts/access/Ownable.sol\":{\"keccak256\":\"0xff6d0bb2e285473e5311d9d3caacb525ae3538a80758c10649a4d61029b017bb\",\"urls\":[\"bzz-raw://8ed324d3920bb545059d66ab97d43e43ee85fd3bd52e03e401f020afb0b120f6\",\"dweb:/ipfs/QmfEckWLmZkDDcoWrkEvMWhms66xwTLff9DDhegYpvHo1a\"],\"license\":\"MIT\"},\"node_modules/@openzeppelin/contracts/token/ERC721/IERC721.sol\":{\"keccak256\":\"0x5ef46daa3b58ef2702279d514780316efaa952915ee1aa3396f041ee2982b0b4\",\"urls\":[\"bzz-raw://2f8f2a76e23b02fc69e8cd24c3cb47da6c7af3a2d6c3a382f8ac25c6e094ade7\",\"dweb:/ipfs/QmPV4ZS4tPVv4mTCf9ejyZ1ai57EEibDRj7mN2ARDCLV5n\"],\"license\":\"MIT\"},\"node_modules/@openzeppelin/contracts/utils/Context.sol\":{\"keccak256\":\"0x493033a8d1b176a037b2cc6a04dad01a5c157722049bbecf632ca876224dd4b2\",\"urls\":[\"bzz-raw://6a708e8a5bdb1011c2c381c9a5cfd8a9a956d7d0a9dc1bd8bcdaf52f76ef2f12\",\"dweb:/ipfs/Qmax9WHBnVsZP46ZxEMNRQpLQnrdE4dK8LehML1Py8FowF\"],\"license\":\"MIT\"},\"node_modules/@openzeppelin/contracts/utils/introspection/IERC165.sol\":{\"keccak256\":\"0x4296879f55019b23e135000eb36896057e7101fb7fb859c5ef690cf14643757b\",\"urls\":[\"bzz-raw://87b3541437c8c443ccd36795e56a338ed12855eec17f8da624511b8d1a7e14df\",\"dweb:/ipfs/QmeJQCtZrQjtJLr6u7ZHWeH3pBnjtLWzvRrKViAi7UZqxL\"],\"license\":\"MIT\"},\"src/JBDirectory.sol\":{\"keccak256\":\"0x164ccdbd7d3d67ff89934609c8e9c0340578bef327f02668483fa909b82d4c74\",\"urls\":[\"bzz-raw://7c17e1f8b916022b3997654834a8167875a8e82279b2a937b8949e36b9ff838e\",\"dweb:/ipfs/QmYbKb1JzK22tEENfaf1pHMx8pGkTowMEfrcYYDDpfvdjC\"],\"license\":\"MIT\"},\"src/abstract/JBPermissioned.sol\":{\"keccak256\":\"0xbe593894bc9893f7fe5c96f14c013add8f50df762538e3d7cb96ed39ad195664\",\"urls\":[\"bzz-raw://efb81264b24776e6be537680abaeb8c4893e70d8a62231748d860e25a7c2340d\",\"dweb:/ipfs/QmacN9gFgPqkhTEwRD7Zben3whq9DRr2ZkSmScGvioTXXR\"],\"license\":\"MIT\"},\"src/interfaces/IJBDirectory.sol\":{\"keccak256\":\"0xd15957cc32974cde4f9f194b92574df2ad8a7aeec049d947136ce3381f9145f6\",\"urls\":[\"bzz-raw://7543e5cbde75ff777b16067016ff9ac5e995752842f03662137eb4ef3fc3c868\",\"dweb:/ipfs/QmPJZAmqNKRcj1JQ4Kc9hExbMtPPzrRB5hZ787utCfBmXg\"],\"license\":\"MIT\"},\"src/interfaces/IJBDirectoryAccessControl.sol\":{\"keccak256\":\"0x1e67f56849320a46f834aaa9bd62b170ff8ada7b224b4a81136193740fa0be4d\",\"urls\":[\"bzz-raw://ea8fbcec44abfe49d137bcae129b67e5479d6b17879301f88534c8a7fab00be4\",\"dweb:/ipfs/QmT6wrtYX4GRpffHUzupNwYebJ1dqkkKZLEewWsoyunsqw\"],\"license\":\"MIT\"},\"src/interfaces/IJBPayHook.sol\":{\"keccak256\":\"0xe24aa2ca52f7a5f24f24ccae101cfc94d0f76705b2d23222f87c7852f8be4267\",\"urls\":[\"bzz-raw://6888140e9a7d4156fd22635654d5d08e21819af8b0356b5415f37b75083b3eb9\",\"dweb:/ipfs/QmbuwBNhar7rEbRhTJPiyo5PVsfaM5nqLow9NAkHhyvjV5\"],\"license\":\"MIT\"},\"src/interfaces/IJBPermissioned.sol\":{\"keccak256\":\"0x5b038d4dee116584e88b230920e56d48e135053e3f7e5642eaea14a775c1dad7\",\"urls\":[\"bzz-raw://19e43102f349fd4a1da1c0943ffb8f2950007fe4bb4bb7e8f74fc142575d091b\",\"dweb:/ipfs/QmXHAt4KzDTdDZgDDefEXH2WKi7NcfkJb9R7nxW5uDqsNp\"],\"license\":\"MIT\"},\"src/interfaces/IJBPermissions.sol\":{\"keccak256\":\"0x18870e500edf0fbadc353e273a5574701fb80466376b908c65e7cc3f11044d4d\",\"urls\":[\"bzz-raw://352a47c45853aec80e7acf0d286ade3106eb4cb456776b28a3c2f3f1091bed90\",\"dweb:/ipfs/QmQeYd3YbudYZy2hfbfht9kwhxhw4tuuLKMEYy9UY6dcSy\"],\"license\":\"MIT\"},\"src/interfaces/IJBProjects.sol\":{\"keccak256\":\"0x85539f72c5871c53a919edc7db78931155464e9e00fccd30079b17e75820ddb9\",\"urls\":[\"bzz-raw://505466dbfbdeec77f948ce065676897a5b4a74b70bb234c1053b893c4849f3a1\",\"dweb:/ipfs/QmYBpZQub3Mv19xsRWqvzgiQSBAp4UNaKcqWQ2wwH62H95\"],\"license\":\"MIT\"},\"src/interfaces/IJBTokenUriResolver.sol\":{\"keccak256\":\"0xfa5cb00dcd6085d1ef912d071fe73c63f9478a2cd0f9d8bddaf659b6af2d0967\",\"urls\":[\"bzz-raw://282e4e7c342d65f77cde0e9a08fcaf20ef5cf379c7a48b639842c0ffd0b2afb8\",\"dweb:/ipfs/QmbnN3PEQeZaXdPLT75V1J79kMg7KqSMru37RHrL3z8Yf2\"],\"license\":\"MIT\"},\"src/interfaces/terminal/IJBTerminal.sol\":{\"keccak256\":\"0x36f23bc27e56fa86d100281a75f5a6ce73f39f32e6a1667ce69f902da1d005ee\",\"urls\":[\"bzz-raw://e8ffa2e264fa12444799cb5706ca577034f3f8be9ff7a2f072981de6a61d706d\",\"dweb:/ipfs/QmR6gQDymvk8JQ77J8VxpFD1Hnxga4w7LLiRvAT3m4LG6T\"],\"license\":\"MIT\"},\"src/structs/JBAccountingContext.sol\":{\"keccak256\":\"0x2907ff54d1e903cc7e0390dd88c3975884702dc2673642aacbe22b66560b56de\",\"urls\":[\"bzz-raw://a66a5381ce877b32f0e0058ceeaf843e9b6b2bc8af666c0c9f4a9d01091da004\",\"dweb:/ipfs/QmQynCetUr37dBkS1YwDS8evxuXGiqanW6THmeUxXtim8w\"],\"license\":\"MIT\"},\"src/structs/JBAfterPayRecordedContext.sol\":{\"keccak256\":\"0xd26c3a774ff38be79064085970454fe2603a23a638c76270d5b1b3829206c3e8\",\"urls\":[\"bzz-raw://3b55dbe3bf1ef625b7ca04efab3de35406e6041d5b3d82c7265469c500e2b702\",\"dweb:/ipfs/QmUdBDo4Lt3mcsFcsXT2mqq3czFwZjQJFPLM89YA2VtD7k\"],\"license\":\"MIT\"},\"src/structs/JBPermissionsData.sol\":{\"keccak256\":\"0x8f0f69a6ebf5f3704e3dfcb3712fb9d3f94ae7c1ab89bf3e37bad42a3e7a0487\",\"urls\":[\"bzz-raw://57b0c5e52843e2217082889ed47b4da3943e0da4590d5768dcebfe3edad4a6b8\",\"dweb:/ipfs/QmRz48vuWLw81kUP836rh1qzqWiJFGbksgRUA9xGEDNKTY\"],\"license\":\"MIT\"},\"src/structs/JBTokenAmount.sol\":{\"keccak256\":\"0x5cf0626b73a596c1e2da17c89ae039a7c0374310b060d48568d3b6c11fbe6180\",\"urls\":[\"bzz-raw://63348b50be95e2995409394a17caffc563a646f0972650a1230bf864fbd3219b\",\"dweb:/ipfs/QmZXZpS3SbFD5nWaCauf6AqbEhLURv5qsKHpThBvQgDU6u\"],\"license\":\"MIT\"}},\"version\":1}",
			"args": [
				"0xBA24624AE5dc821866E9E71Ed050412Ef01E2fe6",
				"0x4d9207aBEcA883161A1eAee9DaBeDC0001c198d7",
				"0x1081B5AA9D9d4862A3dA4d469433FB36Ed80FA2A"
			],
			"bytecode": "0x60c06040523480156200001157600080fd5b5060405162001654380380620016548339810160408190526200003491620000f4565b6001600160a01b03808416608052819081166200006b57604051631e4fbdf760e01b81526000600482015260240160405180910390fd5b62000076816200008b565b50506001600160a01b031660a0525062000148565b600080546001600160a01b038381166001600160a01b0319831681178455604051919092169283917f8be0079c531659141344cd1fd0a4f28419497f9722a3daafe3b4186f6b6457e09190a35050565b6001600160a01b0381168114620000f157600080fd5b50565b6000806000606084860312156200010a57600080fd5b83516200011781620000db565b60208501519093506200012a81620000db565b60408501519092506200013d81620000db565b809150509250925092565b60805160a0516114bd620001976000396000818160f401528181610290015281816104be0152818161057201526107cd01526000818161025401528181610d470152610df001526114bd6000f3fe608060405234801561001057600080fd5b50600436106100ea5760003560e01c8063862026501161008c578063c5664e2111610066578063c5664e21146101f9578063d17541531461021c578063f2fde38b1461023c578063f434c9141461024f57600080fd5b806386202650146101c25780638da5cb5b146101d5578063a1ed3175146101e657600080fd5b80636e49181f116100c85780636e49181f14610171578063714e7f3214610194578063715018a6146101a7578063821b9fd8146101af57600080fd5b8063293c4999146100ef5780635dd8f6aa1461013357806363d0850a1461015c575b600080fd5b6101167f000000000000000000000000000000000000000000000000000000000000000081565b6040516001600160a01b0390911681526020015b60405180910390f35b61011661014136600461113f565b6001602052600090815260409020546001600160a01b031681565b61016f61016a36600461116d565b610276565b005b61018461017f3660046111af565b610425565b604051901515815260200161012a565b61016f6101a23660046111af565b6104a4565b61016f61079f565b61016f6101bd3660046111df565b6107b3565b6101166101d03660046111af565b610ab8565b6000546001600160a01b0316610116565b61016f6101f436600461126c565b610be4565b61018461020736600461129a565b60026020526000908152604090205460ff1681565b61022f61022a36600461113f565b610c4e565b60405161012a91906112be565b61016f61024a36600461129a565b610cba565b6101167f000000000000000000000000000000000000000000000000000000000000000081565b6040516331a9108f60e11b81526004810184905261030b907f00000000000000000000000000000000000000000000000000000000000000006001600160a01b031690636352211e90602401602060405180830381865afa1580156102df573d6000803e3d6000fd5b505050506040513d601f19601f82011682018060405250810190610303919061130b565b846010610cfd565b604051633a01714f60e01b8152600481018490526001600160a01b03838116602483015260009190831690633a01714f90604401606060405180830381865afa15801561035c573d6000803e3d6000fd5b505050506040513d601f19601f820116820180604052508101906103809190611328565b516001600160a01b0316036103a857604051630faa917b60e11b815260040160405180910390fd5b6103b28382610e81565b60008381526004602090815260408083206001600160a01b038681168086529184529382902080546001600160a01b03191694861694851790559051338152909186917fc670a502bbb9f8a4315f95eca901a9f99b65f89a2eb5705a58050e5c00f9d672910160405180910390a4505050565b600082815260036020526040812054815b8181101561049757600085815260036020526040902080546001600160a01b03861691908390811061046a5761046a6113b7565b6000918252602090912001546001600160a01b03160361048f5760019250505061049e565b600101610436565b5060009150505b92915050565b6040516331a9108f60e11b81526004810183905261056f907f00000000000000000000000000000000000000000000000000000000000000006001600160a01b031690636352211e90602401602060405180830381865afa15801561050d573d6000803e3d6000fd5b505050506040513d601f19601f82011682018060405250810190610531919061130b565b336000908152600260205260409020548490600e9060ff16801561056a57506000868152600160205260409020546001600160a01b0316155b61103a565b817f00000000000000000000000000000000000000000000000000000000000000006001600160a01b03166306661abd6040518163ffffffff1660e01b8152600401602060405180830381865afa1580156105ce573d6000803e3d6000fd5b505050506040513d601f19601f820116820180604052508101906105f291906113cd565b101561061157604051634a283a5360e11b815260040160405180910390fd5b6000828152600160205260408120546001600160a01b0316908115806106a357506040516301ffc9a760e01b8152632877540760e01b60048201526001600160a01b038316906301ffc9a790602401602060405180830381865afa15801561067d573d6000803e3d6000fd5b505050506040513d601f19601f820116820180604052508101906106a191906113e6565b155b61071557604051632674968d60e21b8152600481018590526001600160a01b038316906399d25a3490602401602060405180830381865afa1580156106ec573d6000803e3d6000fd5b505050506040513d601f19601f8201168201806040525081019061071091906113e6565b610718565b60015b9050806107385760405163a33db4cb60e01b815260040160405180910390fd5b60008481526001602090815260409182902080546001600160a01b0319166001600160a01b038716908117909155915133815286917f7f9a7dcb234c909a09de2f344661ad9e5b24067adb97c908647c2edcbb121c3091015b60405180910390a350505050565b6107a761104a565b6107b16000611077565b565b6040516331a9108f60e11b815260048101849052610864907f00000000000000000000000000000000000000000000000000000000000000006001600160a01b031690636352211e90602401602060405180830381865afa15801561081c573d6000803e3d6000fd5b505050506040513d601f19601f82011682018060405250810190610840919061130b565b6000858152600160205260409020548590600f906001600160a01b0316331461103a565b6000838152600160205260408082205490516301ffc9a760e01b8152632877540760e01b60048201526001600160a01b03909116919082906301ffc9a790602401602060405180830381865afa1580156108c2573d6000803e3d6000fd5b505050506040513d601f19601f820116820180604052508101906108e691906113e6565b1580610956575060405163b1a50e3360e01b8152600481018690526001600160a01b0383169063b1a50e3390602401602060405180830381865afa158015610932573d6000803e3d6000fd5b505050506040513d601f19601f8201168201806040525081019061095691906113e6565b6000868152600160205260409020549091506001600160a01b0316331480159061097e575080155b1561099c576040516375fef35f60e11b815260040160405180910390fd5b60008581526003602052604090206109b59085856110c7565b50826001811115610a745760005b81811015610a725760006109d8826001611403565b90505b82811015610a69578686828181106109f5576109f56113b7565b9050602002016020810190610a0a919061129a565b6001600160a01b0316878784818110610a2557610a256113b7565b9050602002016020810190610a3a919061129a565b6001600160a01b031603610a6157604051633e3830ab60e11b815260040160405180910390fd5b6001016109db565b506001016109c3565b505b857fb648241d83df6540fc10f2acc641e4bf80a1e84e7ae2f1f6b0ad204b8fee635b868633604051610aa893929190611424565b60405180910390a2505050505050565b60008281526004602090815260408083206001600160a01b0380861685529252822054168015801590610af05750610af08482610425565b15610afc57905061049e565b600084815260036020526040812054905b81811015610bd8576000868152600360205260408120805483908110610b3557610b356113b7565b6000918252602082200154604051633a01714f60e01b8152600481018a90526001600160a01b03898116602483015290911692508290633a01714f90604401606060405180830381865afa158015610b91573d6000803e3d6000fd5b505050506040513d601f19601f82011682018060405250810190610bb59190611328565b516001600160a01b031614610bcf57935061049e92505050565b50600101610b0d565b50600095945050505050565b610bec61104a565b6001600160a01b038216600081815260026020908152604091829020805460ff191685151590811790915591513381529192917f11207664cc48b0fa81c8674795f1d8f642960f38d5d2d305ad813093bed85fab910160405180910390a35050565b600081815260036020908152604091829020805483518184028101840190945280845260609392830182828015610cae57602002820191906000526020600020905b81546001600160a01b03168152600190910190602001808311610c90575b50505050509050919050565b610cc261104a565b6001600160a01b038116610cf157604051631e4fbdf760e01b8152600060048201526024015b60405180910390fd5b610cfa81611077565b50565b336001600160a01b0384168114801590610db4575060405163c161c93f60e01b81526001600160a01b038281166004830152858116602483015260448201859052606482018490527f0000000000000000000000000000000000000000000000000000000000000000169063c161c93f90608401602060405180830381865afa158015610d8e573d6000803e3d6000fd5b505050506040513d601f19601f82011682018060405250810190610db291906113e6565b155b8015610e5d575060405163c161c93f60e01b81526001600160a01b038281166004830152858116602483015260006044830152606482018490527f0000000000000000000000000000000000000000000000000000000000000000169063c161c93f90608401602060405180830381865afa158015610e37573d6000803e3d6000fd5b505050506040513d601f19601f82011682018060405250810190610e5b91906113e6565b155b15610e7b5760405163075fd2b160e01b815260040160405180910390fd5b50505050565b610e8b8282610425565b15610e94575050565b6000828152600160205260408082205490516301ffc9a760e01b8152632877540760e01b60048201526001600160a01b03909116919082906301ffc9a790602401602060405180830381865afa158015610ef2573d6000803e3d6000fd5b505050506040513d601f19601f82011682018060405250810190610f1691906113e6565b1580610f86575060405163b1a50e3360e01b8152600481018590526001600160a01b0383169063b1a50e3390602401602060405180830381865afa158015610f62573d6000803e3d6000fd5b505050506040513d601f19601f82011682018060405250810190610f8691906113e6565b6000858152600160205260409020549091506001600160a01b03163314801590610fae575080155b15610fcc576040516375fef35f60e11b815260040160405180910390fd5b600084815260036020908152604080832080546001810182559084529282902090920180546001600160a01b0319166001600160a01b038716908117909155915133815286917f409bccc07b7cf7807930526a24318212d614c59f2dde05a017a41efee144e7c89101610791565b80610e7b57610e7b848484610cfd565b6000546001600160a01b031633146107b15760405163118cdaa760e01b8152336004820152602401610ce8565b600080546001600160a01b038381166001600160a01b0319831681178455604051919092169283917f8be0079c531659141344cd1fd0a4f28419497f9722a3daafe3b4186f6b6457e09190a35050565b82805482825590600052602060002090810192821561111a579160200282015b8281111561111a5781546001600160a01b0319166001600160a01b038435161782556020909201916001909101906110e7565b5061112692915061112a565b5090565b5b80821115611126576000815560010161112b565b60006020828403121561115157600080fd5b5035919050565b6001600160a01b0381168114610cfa57600080fd5b60008060006060848603121561118257600080fd5b83359250602084013561119481611158565b915060408401356111a481611158565b809150509250925092565b600080604083850312156111c257600080fd5b8235915060208301356111d481611158565b809150509250929050565b6000806000604084860312156111f457600080fd5b83359250602084013567ffffffffffffffff8082111561121357600080fd5b818601915086601f83011261122757600080fd5b81358181111561123657600080fd5b8760208260051b850101111561124b57600080fd5b6020830194508093505050509250925092565b8015158114610cfa57600080fd5b6000806040838503121561127f57600080fd5b823561128a81611158565b915060208301356111d48161125e565b6000602082840312156112ac57600080fd5b81356112b781611158565b9392505050565b6020808252825182820181905260009190848201906040850190845b818110156112ff5783516001600160a01b0316835292840192918401916001016112da565b50909695505050505050565b60006020828403121561131d57600080fd5b81516112b781611158565b60006060828403121561133a57600080fd5b6040516060810181811067ffffffffffffffff8211171561136b57634e487b7160e01b600052604160045260246000fd5b604052825161137981611158565b8152602083015160ff8116811461138f57600080fd5b6020820152604083015163ffffffff811681146113ab57600080fd5b60408201529392505050565b634e487b7160e01b600052603260045260246000fd5b6000602082840312156113df57600080fd5b5051919050565b6000602082840312156113f857600080fd5b81516112b78161125e565b8082018082111561049e57634e487b7160e01b600052601160045260246000fd5b6040808252810183905260008460608301825b8681101561146757823561144a81611158565b6001600160a01b0316825260209283019290910190600101611437565b506001600160a01b0394909416602093909301929092525090939250505056fea2646970667358221220455485ce740f4c22d038bc8eb16abf44a5aa16a859605afc7a452fc8fb1082bb64736f6c63430008170033",
			"deployedBytecode": "0x608060405234801561001057600080fd5b50600436106100ea5760003560e01c8063862026501161008c578063c5664e2111610066578063c5664e21146101f9578063d17541531461021c578063f2fde38b1461023c578063f434c9141461024f57600080fd5b806386202650146101c25780638da5cb5b146101d5578063a1ed3175146101e657600080fd5b80636e49181f116100c85780636e49181f14610171578063714e7f3214610194578063715018a6146101a7578063821b9fd8146101af57600080fd5b8063293c4999146100ef5780635dd8f6aa1461013357806363d0850a1461015c575b600080fd5b6101167f0000000000000000000000004d9207abeca883161a1eaee9dabedc0001c198d781565b6040516001600160a01b0390911681526020015b60405180910390f35b61011661014136600461113f565b6001602052600090815260409020546001600160a01b031681565b61016f61016a36600461116d565b610276565b005b61018461017f3660046111af565b610425565b604051901515815260200161012a565b61016f6101a23660046111af565b6104a4565b61016f61079f565b61016f6101bd3660046111df565b6107b3565b6101166101d03660046111af565b610ab8565b6000546001600160a01b0316610116565b61016f6101f436600461126c565b610be4565b61018461020736600461129a565b60026020526000908152604090205460ff1681565b61022f61022a36600461113f565b610c4e565b60405161012a91906112be565b61016f61024a36600461129a565b610cba565b6101167f000000000000000000000000ba24624ae5dc821866e9e71ed050412ef01e2fe681565b6040516331a9108f60e11b81526004810184905261030b907f0000000000000000000000004d9207abeca883161a1eaee9dabedc0001c198d76001600160a01b031690636352211e90602401602060405180830381865afa1580156102df573d6000803e3d6000fd5b505050506040513d601f19601f82011682018060405250810190610303919061130b565b846010610cfd565b604051633a01714f60e01b8152600481018490526001600160a01b03838116602483015260009190831690633a01714f90604401606060405180830381865afa15801561035c573d6000803e3d6000fd5b505050506040513d601f19601f820116820180604052508101906103809190611328565b516001600160a01b0316036103a857604051630faa917b60e11b815260040160405180910390fd5b6103b28382610e81565b60008381526004602090815260408083206001600160a01b038681168086529184529382902080546001600160a01b03191694861694851790559051338152909186917fc670a502bbb9f8a4315f95eca901a9f99b65f89a2eb5705a58050e5c00f9d672910160405180910390a4505050565b600082815260036020526040812054815b8181101561049757600085815260036020526040902080546001600160a01b03861691908390811061046a5761046a6113b7565b6000918252602090912001546001600160a01b03160361048f5760019250505061049e565b600101610436565b5060009150505b92915050565b6040516331a9108f60e11b81526004810183905261056f907f0000000000000000000000004d9207abeca883161a1eaee9dabedc0001c198d76001600160a01b031690636352211e90602401602060405180830381865afa15801561050d573d6000803e3d6000fd5b505050506040513d601f19601f82011682018060405250810190610531919061130b565b336000908152600260205260409020548490600e9060ff16801561056a57506000868152600160205260409020546001600160a01b0316155b61103a565b817f0000000000000000000000004d9207abeca883161a1eaee9dabedc0001c198d76001600160a01b03166306661abd6040518163ffffffff1660e01b8152600401602060405180830381865afa1580156105ce573d6000803e3d6000fd5b505050506040513d601f19601f820116820180604052508101906105f291906113cd565b101561061157604051634a283a5360e11b815260040160405180910390fd5b6000828152600160205260408120546001600160a01b0316908115806106a357506040516301ffc9a760e01b8152632877540760e01b60048201526001600160a01b038316906301ffc9a790602401602060405180830381865afa15801561067d573d6000803e3d6000fd5b505050506040513d601f19601f820116820180604052508101906106a191906113e6565b155b61071557604051632674968d60e21b8152600481018590526001600160a01b038316906399d25a3490602401602060405180830381865afa1580156106ec573d6000803e3d6000fd5b505050506040513d601f19601f8201168201806040525081019061071091906113e6565b610718565b60015b9050806107385760405163a33db4cb60e01b815260040160405180910390fd5b60008481526001602090815260409182902080546001600160a01b0319166001600160a01b038716908117909155915133815286917f7f9a7dcb234c909a09de2f344661ad9e5b24067adb97c908647c2edcbb121c3091015b60405180910390a350505050565b6107a761104a565b6107b16000611077565b565b6040516331a9108f60e11b815260048101849052610864907f0000000000000000000000004d9207abeca883161a1eaee9dabedc0001c198d76001600160a01b031690636352211e90602401602060405180830381865afa15801561081c573d6000803e3d6000fd5b505050506040513d601f19601f82011682018060405250810190610840919061130b565b6000858152600160205260409020548590600f906001600160a01b0316331461103a565b6000838152600160205260408082205490516301ffc9a760e01b8152632877540760e01b60048201526001600160a01b03909116919082906301ffc9a790602401602060405180830381865afa1580156108c2573d6000803e3d6000fd5b505050506040513d601f19601f820116820180604052508101906108e691906113e6565b1580610956575060405163b1a50e3360e01b8152600481018690526001600160a01b0383169063b1a50e3390602401602060405180830381865afa158015610932573d6000803e3d6000fd5b505050506040513d601f19601f8201168201806040525081019061095691906113e6565b6000868152600160205260409020549091506001600160a01b0316331480159061097e575080155b1561099c576040516375fef35f60e11b815260040160405180910390fd5b60008581526003602052604090206109b59085856110c7565b50826001811115610a745760005b81811015610a725760006109d8826001611403565b90505b82811015610a69578686828181106109f5576109f56113b7565b9050602002016020810190610a0a919061129a565b6001600160a01b0316878784818110610a2557610a256113b7565b9050602002016020810190610a3a919061129a565b6001600160a01b031603610a6157604051633e3830ab60e11b815260040160405180910390fd5b6001016109db565b506001016109c3565b505b857fb648241d83df6540fc10f2acc641e4bf80a1e84e7ae2f1f6b0ad204b8fee635b868633604051610aa893929190611424565b60405180910390a2505050505050565b60008281526004602090815260408083206001600160a01b0380861685529252822054168015801590610af05750610af08482610425565b15610afc57905061049e565b600084815260036020526040812054905b81811015610bd8576000868152600360205260408120805483908110610b3557610b356113b7565b6000918252602082200154604051633a01714f60e01b8152600481018a90526001600160a01b03898116602483015290911692508290633a01714f90604401606060405180830381865afa158015610b91573d6000803e3d6000fd5b505050506040513d601f19601f82011682018060405250810190610bb59190611328565b516001600160a01b031614610bcf57935061049e92505050565b50600101610b0d565b50600095945050505050565b610bec61104a565b6001600160a01b038216600081815260026020908152604091829020805460ff191685151590811790915591513381529192917f11207664cc48b0fa81c8674795f1d8f642960f38d5d2d305ad813093bed85fab910160405180910390a35050565b600081815260036020908152604091829020805483518184028101840190945280845260609392830182828015610cae57602002820191906000526020600020905b81546001600160a01b03168152600190910190602001808311610c90575b50505050509050919050565b610cc261104a565b6001600160a01b038116610cf157604051631e4fbdf760e01b8152600060048201526024015b60405180910390fd5b610cfa81611077565b50565b336001600160a01b0384168114801590610db4575060405163c161c93f60e01b81526001600160a01b038281166004830152858116602483015260448201859052606482018490527f000000000000000000000000ba24624ae5dc821866e9e71ed050412ef01e2fe6169063c161c93f90608401602060405180830381865afa158015610d8e573d6000803e3d6000fd5b505050506040513d601f19601f82011682018060405250810190610db291906113e6565b155b8015610e5d575060405163c161c93f60e01b81526001600160a01b038281166004830152858116602483015260006044830152606482018490527f000000000000000000000000ba24624ae5dc821866e9e71ed050412ef01e2fe6169063c161c93f90608401602060405180830381865afa158015610e37573d6000803e3d6000fd5b505050506040513d601f19601f82011682018060405250810190610e5b91906113e6565b155b15610e7b5760405163075fd2b160e01b815260040160405180910390fd5b50505050565b610e8b8282610425565b15610e94575050565b6000828152600160205260408082205490516301ffc9a760e01b8152632877540760e01b60048201526001600160a01b03909116919082906301ffc9a790602401602060405180830381865afa158015610ef2573d6000803e3d6000fd5b505050506040513d601f19601f82011682018060405250810190610f1691906113e6565b1580610f86575060405163b1a50e3360e01b8152600481018590526001600160a01b0383169063b1a50e3390602401602060405180830381865afa158015610f62573d6000803e3d6000fd5b505050506040513d601f19601f82011682018060405250810190610f8691906113e6565b6000858152600160205260409020549091506001600160a01b03163314801590610fae575080155b15610fcc576040516375fef35f60e11b815260040160405180910390fd5b600084815260036020908152604080832080546001810182559084529282902090920180546001600160a01b0319166001600160a01b038716908117909155915133815286917f409bccc07b7cf7807930526a24318212d614c59f2dde05a017a41efee144e7c89101610791565b80610e7b57610e7b848484610cfd565b6000546001600160a01b031633146107b15760405163118cdaa760e01b8152336004820152602401610ce8565b600080546001600160a01b038381166001600160a01b0319831681178455604051919092169283917f8be0079c531659141344cd1fd0a4f28419497f9722a3daafe3b4186f6b6457e09190a35050565b82805482825590600052602060002090810192821561111a579160200282015b8281111561111a5781546001600160a01b0319166001600160a01b038435161782556020909201916001909101906110e7565b5061112692915061112a565b5090565b5b80821115611126576000815560010161112b565b60006020828403121561115157600080fd5b5035919050565b6001600160a01b0381168114610cfa57600080fd5b60008060006060848603121561118257600080fd5b83359250602084013561119481611158565b915060408401356111a481611158565b809150509250925092565b600080604083850312156111c257600080fd5b8235915060208301356111d481611158565b809150509250929050565b6000806000604084860312156111f457600080fd5b83359250602084013567ffffffffffffffff8082111561121357600080fd5b818601915086601f83011261122757600080fd5b81358181111561123657600080fd5b8760208260051b850101111561124b57600080fd5b6020830194508093505050509250925092565b8015158114610cfa57600080fd5b6000806040838503121561127f57600080fd5b823561128a81611158565b915060208301356111d48161125e565b6000602082840312156112ac57600080fd5b81356112b781611158565b9392505050565b6020808252825182820181905260009190848201906040850190845b818110156112ff5783516001600160a01b0316835292840192918401916001016112da565b50909695505050505050565b60006020828403121561131d57600080fd5b81516112b781611158565b60006060828403121561133a57600080fd5b6040516060810181811067ffffffffffffffff8211171561136b57634e487b7160e01b600052604160045260246000fd5b604052825161137981611158565b8152602083015160ff8116811461138f57600080fd5b6020820152604083015163ffffffff811681146113ab57600080fd5b60408201529392505050565b634e487b7160e01b600052603260045260246000fd5b6000602082840312156113df57600080fd5b5051919050565b6000602082840312156113f857600080fd5b81516112b78161125e565b8082018082111561049e57634e487b7160e01b600052601160045260246000fd5b6040808252810183905260008460608301825b8681101561146757823561144a81611158565b6001600160a01b0316825260209283019290910190600101611437565b506001600160a01b0394909416602093909301929092525090939250505056fea2646970667358221220455485ce740f4c22d038bc8eb16abf44a5aa16a859605afc7a452fc8fb1082bb64736f6c63430008170033",
			"devdoc": {
				"kind": "dev",
				"methods": {
					"constructor": {
						"params": {
							"owner": "The address that will own the contract.",
							"permissions": "A contract storing permissions.",
							"projects": "A contract which mints ERC-721s that represent project ownership and transfers."
						}
					},
					"isTerminalOf(uint256,address)": {
						"params": {
							"projectId": "The ID of the project to check for the terminal.",
							"terminal": "The address of the terminal to check for."
						},
						"returns": {
							"_0": "A flag indicating whether or not the specified terminal is a terminal of the specified project."
						}
					},
					"owner()": {
						"details": "Returns the address of the current owner."
					},
					"primaryTerminalOf(uint256,address)": {
						"details": "The zero address is returned if a terminal isn't found for the specified token.",
						"params": {
							"projectId": "The ID of the project to get the primary terminal of.",
							"token": "The token the terminal accepts."
						},
						"returns": {
							"_0": "The address of the primary terminal for the specified project and token."
						}
					},
					"renounceOwnership()": {
						"details": "Leaves the contract without owner. It will not be possible to call `onlyOwner` functions. Can only be called by the current owner. NOTE: Renouncing ownership will leave the contract without an owner, thereby disabling any functionality that is only available to the owner."
					},
					"setControllerOf(uint256,address)": {
						"details": "A controller can be set if:- The project's ruleset allows setting the controller, and the message sender is the project owner or an operator with the `SET_CONTROLLER` permission from them.- OR the message sender is the project's current controller.- OR an allowedlisted address is setting a controller for a project that doesn't already have a controller.",
						"params": {
							"controller": "The address of the new controller to set for the project.",
							"projectId": "The ID of the project to set the controller of."
						}
					},
					"setIsAllowedToSetFirstController(address,bool)": {
						"details": "Only this contract's owner can call this function.These addresses are known and vetted controllers as well as contracts designed to launch new projects.A project can set its own controller without being on the allow list.If you would like an address/contract allowlisted, please reach out to the contract owner.",
						"params": {
							"addr": "The address to allow or not allow.",
							"flag": "Whether the address is allowed or not allowed to set first controllers for projects. Use `true` to allow and `false` to not allow."
						}
					},
					"setPrimaryTerminalOf(uint256,address,address)": {
						"details": "The primary terminal is where a token should be routed to by default.This is useful in case a project has several terminals connected for a particular token.If setting a newly added terminal and the ruleset doesn't allow new terminals, the caller must be the current controller.",
						"params": {
							"projectId": "The ID of the project a primary token is being set for.",
							"terminal": "The terminal to make the primary terminal for the project and token.",
							"token": "The token to set the primary terminal for."
						}
					},
					"setTerminalsOf(uint256,address[])": {
						"details": "Only a project's owner, an operator with the `SET_TERMINALS` permission from the owner, or the project's controller can set its terminals.Unless the caller is the project's controller, the project's ruleset must allow setting terminals.",
						"params": {
							"projectId": "The ID of the project to set terminals for.",
							"terminals": "An array of terminal addresses to set for the project."
						}
					},
					"terminalsOf(uint256)": {
						"params": {
							"projectId": "The ID of the project to get the terminals of."
						},
						"returns": {
							"_0": "An array of terminal addresses."
						}
					},
					"transferOwnership(address)": {
						"details": "Transfers ownership of the contract to a new account (`newOwner`). Can only be called by the current owner."
					}
				},
				"version": 1
			},
			"userdoc": {
				"kind": "user",
				"methods": {
					"PERMISSIONS()": {
						"notice": "A contract storing permissions."
					},
					"PROJECTS()": {
						"notice": "Mints ERC-721s that represent project ownership and transfers."
					},
					"controllerOf(uint256)": {
						"notice": "The controller, which dictates how terminals interact with tokens and rulesets, for a given project ID."
					},
					"isAllowedToSetFirstController(address)": {
						"notice": "Addresses allowed to set a project's first controller on their behalf. These addresses/contracts have been vetted and verified by this contract's owner."
					},
					"isTerminalOf(uint256,address)": {
						"notice": "Check if a specified project uses a specified terminal."
					},
					"primaryTerminalOf(uint256,address)": {
						"notice": "The primary terminal that a project is using to manage a specified token."
					},
					"setControllerOf(uint256,address)": {
						"notice": "Set a project's controller. Controllers manage how terminals interact with tokens and rulesets."
					},
					"setIsAllowedToSetFirstController(address,bool)": {
						"notice": "Add an address/contract to the list of trusted addresses which are allowed to set a first controller for projects."
					},
					"setPrimaryTerminalOf(uint256,address,address)": {
						"notice": "Set a project's primary terminal for a particular token."
					},
					"setTerminalsOf(uint256,address[])": {
						"notice": "Set a project's terminals."
					},
					"terminalsOf(uint256)": {
						"notice": "For  given project ID, the terminals which are currently managing that project's funds."
					}
				},
				"version": 1
			},
			"gitCommit": "b03f34d98eacd4484804213a3ba52efcdbe9107e",
			"sourceName": "src/JBDirectory.sol",
			"chainId": "11155111",
			"linkReferences": {},
			"deployedLinkReferences": {}
		},
		{
			"_format": "sphinx-sol-ct-artifact-1",
			"merkleRoot": "0xfada22a01fc6019b369081d169c7f38ec6c9e2c67f065667d7be1b942a641e20",
			"contractName": "JBDirectory",
			"address": "0xdb72998F9FfEc87e51158E81a8FD49627EB412E8",
			"abi": [
				{
					"type": "constructor",
					"inputs": [
						{
							"name": "permissions",
							"type": "address",
							"internalType": "contract IJBPermissions"
						},
						{
							"name": "projects",
							"type": "address",
							"internalType": "contract IJBProjects"
						},
						{
							"name": "owner",
							"type": "address",
							"internalType": "address"
						}
					],
					"stateMutability": "nonpayable"
				},
				{
					"type": "function",
					"name": "PERMISSIONS",
					"inputs": [],
					"outputs": [
						{
							"name": "",
							"type": "address",
							"internalType": "contract IJBPermissions"
						}
					],
					"stateMutability": "view"
				},
				{
					"type": "function",
					"name": "PROJECTS",
					"inputs": [],
					"outputs": [
						{
							"name": "",
							"type": "address",
							"internalType": "contract IJBProjects"
						}
					],
					"stateMutability": "view"
				},
				{
					"type": "function",
					"name": "controllerOf",
					"inputs": [
						{
							"name": "projectId",
							"type": "uint256",
							"internalType": "uint256"
						}
					],
					"outputs": [
						{
							"name": "",
							"type": "address",
							"internalType": "contract IERC165"
						}
					],
					"stateMutability": "view"
				},
				{
					"type": "function",
					"name": "isAllowedToSetFirstController",
					"inputs": [
						{
							"name": "addr",
							"type": "address",
							"internalType": "address"
						}
					],
					"outputs": [
						{
							"name": "",
							"type": "bool",
							"internalType": "bool"
						}
					],
					"stateMutability": "view"
				},
				{
					"type": "function",
					"name": "isTerminalOf",
					"inputs": [
						{
							"name": "projectId",
							"type": "uint256",
							"internalType": "uint256"
						},
						{
							"name": "terminal",
							"type": "address",
							"internalType": "contract IJBTerminal"
						}
					],
					"outputs": [
						{
							"name": "",
							"type": "bool",
							"internalType": "bool"
						}
					],
					"stateMutability": "view"
				},
				{
					"type": "function",
					"name": "owner",
					"inputs": [],
					"outputs": [
						{
							"name": "",
							"type": "address",
							"internalType": "address"
						}
					],
					"stateMutability": "view"
				},
				{
					"type": "function",
					"name": "primaryTerminalOf",
					"inputs": [
						{
							"name": "projectId",
							"type": "uint256",
							"internalType": "uint256"
						},
						{
							"name": "token",
							"type": "address",
							"internalType": "address"
						}
					],
					"outputs": [
						{
							"name": "",
							"type": "address",
							"internalType": "contract IJBTerminal"
						}
					],
					"stateMutability": "view"
				},
				{
					"type": "function",
					"name": "renounceOwnership",
					"inputs": [],
					"outputs": [],
					"stateMutability": "nonpayable"
				},
				{
					"type": "function",
					"name": "setControllerOf",
					"inputs": [
						{
							"name": "projectId",
							"type": "uint256",
							"internalType": "uint256"
						},
						{
							"name": "controller",
							"type": "address",
							"internalType": "contract IERC165"
						}
					],
					"outputs": [],
					"stateMutability": "nonpayable"
				},
				{
					"type": "function",
					"name": "setIsAllowedToSetFirstController",
					"inputs": [
						{
							"name": "addr",
							"type": "address",
							"internalType": "address"
						},
						{
							"name": "flag",
							"type": "bool",
							"internalType": "bool"
						}
					],
					"outputs": [],
					"stateMutability": "nonpayable"
				},
				{
					"type": "function",
					"name": "setPrimaryTerminalOf",
					"inputs": [
						{
							"name": "projectId",
							"type": "uint256",
							"internalType": "uint256"
						},
						{
							"name": "token",
							"type": "address",
							"internalType": "address"
						},
						{
							"name": "terminal",
							"type": "address",
							"internalType": "contract IJBTerminal"
						}
					],
					"outputs": [],
					"stateMutability": "nonpayable"
				},
				{
					"type": "function",
					"name": "setTerminalsOf",
					"inputs": [
						{
							"name": "projectId",
							"type": "uint256",
							"internalType": "uint256"
						},
						{
							"name": "terminals",
							"type": "address[]",
							"internalType": "contract IJBTerminal[]"
						}
					],
					"outputs": [],
					"stateMutability": "nonpayable"
				},
				{
					"type": "function",
					"name": "terminalsOf",
					"inputs": [
						{
							"name": "projectId",
							"type": "uint256",
							"internalType": "uint256"
						}
					],
					"outputs": [
						{
							"name": "",
							"type": "address[]",
							"internalType": "contract IJBTerminal[]"
						}
					],
					"stateMutability": "view"
				},
				{
					"type": "function",
					"name": "transferOwnership",
					"inputs": [
						{
							"name": "newOwner",
							"type": "address",
							"internalType": "address"
						}
					],
					"outputs": [],
					"stateMutability": "nonpayable"
				},
				{
					"type": "event",
					"name": "AddTerminal",
					"inputs": [
						{
							"name": "projectId",
							"type": "uint256",
							"indexed": true,
							"internalType": "uint256"
						},
						{
							"name": "terminal",
							"type": "address",
							"indexed": true,
							"internalType": "contract IJBTerminal"
						},
						{
							"name": "caller",
							"type": "address",
							"indexed": false,
							"internalType": "address"
						}
					],
					"anonymous": false
				},
				{
					"type": "event",
					"name": "OwnershipTransferred",
					"inputs": [
						{
							"name": "previousOwner",
							"type": "address",
							"indexed": true,
							"internalType": "address"
						},
						{
							"name": "newOwner",
							"type": "address",
							"indexed": true,
							"internalType": "address"
						}
					],
					"anonymous": false
				},
				{
					"type": "event",
					"name": "SetController",
					"inputs": [
						{
							"name": "projectId",
							"type": "uint256",
							"indexed": true,
							"internalType": "uint256"
						},
						{
							"name": "controller",
							"type": "address",
							"indexed": true,
							"internalType": "contract IERC165"
						},
						{
							"name": "caller",
							"type": "address",
							"indexed": false,
							"internalType": "address"
						}
					],
					"anonymous": false
				},
				{
					"type": "event",
					"name": "SetIsAllowedToSetFirstController",
					"inputs": [
						{
							"name": "addr",
							"type": "address",
							"indexed": true,
							"internalType": "address"
						},
						{
							"name": "flag",
							"type": "bool",
							"indexed": true,
							"internalType": "bool"
						},
						{
							"name": "caller",
							"type": "address",
							"indexed": false,
							"internalType": "address"
						}
					],
					"anonymous": false
				},
				{
					"type": "event",
					"name": "SetPrimaryTerminal",
					"inputs": [
						{
							"name": "projectId",
							"type": "uint256",
							"indexed": true,
							"internalType": "uint256"
						},
						{
							"name": "token",
							"type": "address",
							"indexed": true,
							"internalType": "address"
						},
						{
							"name": "terminal",
							"type": "address",
							"indexed": true,
							"internalType": "contract IJBTerminal"
						},
						{
							"name": "caller",
							"type": "address",
							"indexed": false,
							"internalType": "address"
						}
					],
					"anonymous": false
				},
				{
					"type": "event",
					"name": "SetTerminals",
					"inputs": [
						{
							"name": "projectId",
							"type": "uint256",
							"indexed": true,
							"internalType": "uint256"
						},
						{
							"name": "terminals",
							"type": "address[]",
							"indexed": false,
							"internalType": "contract IJBTerminal[]"
						},
						{
							"name": "caller",
							"type": "address",
							"indexed": false,
							"internalType": "address"
						}
					],
					"anonymous": false
				},
				{
					"type": "error",
					"name": "DUPLICATE_TERMINALS",
					"inputs": []
				},
				{
					"type": "error",
					"name": "INVALID_PROJECT_ID_IN_DIRECTORY",
					"inputs": []
				},
				{
					"type": "error",
					"name": "OwnableInvalidOwner",
					"inputs": [
						{
							"name": "owner",
							"type": "address",
							"internalType": "address"
						}
					]
				},
				{
					"type": "error",
					"name": "OwnableUnauthorizedAccount",
					"inputs": [
						{
							"name": "account",
							"type": "address",
							"internalType": "address"
						}
					]
				},
				{
					"type": "error",
					"name": "SET_CONTROLLER_NOT_ALLOWED",
					"inputs": []
				},
				{
					"type": "error",
					"name": "SET_TERMINALS_NOT_ALLOWED",
					"inputs": []
				},
				{
					"type": "error",
					"name": "TOKEN_NOT_ACCEPTED",
					"inputs": []
				},
				{
					"type": "error",
					"name": "UNAUTHORIZED",
					"inputs": []
				}
			],
			"solcInputHash": "89b464e120c906a6209f84c95fbfe59a",
			"receipt": {
				"blockHash": "0x037a36fe3e0f190ce88cec25d1ff1d843e978d86c6c0670fe19a0d5064e38fac",
				"blockNumber": 5479980,
				"contractAddress": null,
				"cumulativeGasUsed": "21243074",
				"from": "0xC034550B542b83BA1De312b21d1C94a9a52B1595",
				"gasPrice": "3782613113",
				"gasUsed": "10917745",
				"hash": "0xf46589ac4e4664219920b647252d41a175538ee15c00e242f3dbb8033f84d2a0",
				"index": 80,
				"logs": [
					{
						"address": "0xB5E96127D417b1B3ef8438496a38A143167209c7",
						"blockHash": "0x037a36fe3e0f190ce88cec25d1ff1d843e978d86c6c0670fe19a0d5064e38fac",
						"blockNumber": 5479980,
						"data": "0x0000000000000000000000000000000000000000000000000000000000000000",
						"index": 196,
						"topics": [
							"0x572f161235911da04685a68c06adf558fc7e4a36909dca394650e0adc19cc93d",
							"0x000000000000000000000000c034550b542b83ba1de312b21d1c94a9a52b1595",
							"0x000000000000000000000000ef1be3c049809cace5bc203bbe4ec1ab284bf75c",
							"0xb11f63e5e5c2beaf8f1c069c74c9457c1f58d6a5bb2b952c8f008df3679e1303"
						],
						"transactionHash": "0xf46589ac4e4664219920b647252d41a175538ee15c00e242f3dbb8033f84d2a0",
						"transactionIndex": 80
					},
					{
						"address": "0x1081B5AA9D9d4862A3dA4d469433FB36Ed80FA2A",
						"blockHash": "0x037a36fe3e0f190ce88cec25d1ff1d843e978d86c6c0670fe19a0d5064e38fac",
						"blockNumber": 5479980,
						"data": "0x000000000000000000000000625e7bce20bce80d426384c38831f92d453fbf29",
						"index": 197,
						"topics": [
							"0x4db17dd5e4732fb6da34a148104a592783ca119a1e7bb8829eba6cbadef0b511"
						],
						"transactionHash": "0xf46589ac4e4664219920b647252d41a175538ee15c00e242f3dbb8033f84d2a0",
						"transactionIndex": 80
					},
					{
						"address": "0x1081B5AA9D9d4862A3dA4d469433FB36Ed80FA2A",
						"blockHash": "0x037a36fe3e0f190ce88cec25d1ff1d843e978d86c6c0670fe19a0d5064e38fac",
						"blockNumber": 5479980,
						"data": "0x",
						"index": 198,
						"topics": [
							"0x6895c13664aa4f67288b25d7a21d7aaa34916e355fb9b6fae0a139a9085becb8",
							"0x000000000000000000000000ef1be3c049809cace5bc203bbe4ec1ab284bf75c"
						],
						"transactionHash": "0xf46589ac4e4664219920b647252d41a175538ee15c00e242f3dbb8033f84d2a0",
						"transactionIndex": 80
					},
					{
						"address": "0xEf1Be3C049809caCe5Bc203BBe4Ec1Ab284bF75c",
						"blockHash": "0x037a36fe3e0f190ce88cec25d1ff1d843e978d86c6c0670fe19a0d5064e38fac",
						"blockNumber": 5479980,
						"data": "0x0000000000000000000000000000000000000000000000000000000000000001",
						"index": 199,
						"topics": [
							"0xa65fb05c5808f5f389d72edeaf719ce38f4cc55c1f69ca3cbfb31c21501caa07",
							"0xfada22a01fc6019b369081d169c7f38ec6c9e2c67f065667d7be1b942a641e20"
						],
						"transactionHash": "0xf46589ac4e4664219920b647252d41a175538ee15c00e242f3dbb8033f84d2a0",
						"transactionIndex": 80
					},
					{
						"address": "0x5e8a3B68ad51E2Ae55E5D7215E9e59bC0f66e33F",
						"blockHash": "0x037a36fe3e0f190ce88cec25d1ff1d843e978d86c6c0670fe19a0d5064e38fac",
						"blockNumber": 5479980,
						"data": "0x",
						"index": 200,
						"topics": [
							"0x8be0079c531659141344cd1fd0a4f28419497f9722a3daafe3b4186f6b6457e0",
							"0x0000000000000000000000000000000000000000000000000000000000000000",
							"0x000000000000000000000000823b92d6a4b2aed4b15675c7917c9f922ea8adad"
						],
						"transactionHash": "0xf46589ac4e4664219920b647252d41a175538ee15c00e242f3dbb8033f84d2a0",
						"transactionIndex": 80
					},
					{
						"address": "0x1081B5AA9D9d4862A3dA4d469433FB36Ed80FA2A",
						"blockHash": "0x037a36fe3e0f190ce88cec25d1ff1d843e978d86c6c0670fe19a0d5064e38fac",
						"blockNumber": 5479980,
						"data": "0x0000000000000000000000005e8a3b68ad51e2ae55e5d7215e9e59bc0f66e33f",
						"index": 201,
						"topics": [
							"0x4db17dd5e4732fb6da34a148104a592783ca119a1e7bb8829eba6cbadef0b511"
						],
						"transactionHash": "0xf46589ac4e4664219920b647252d41a175538ee15c00e242f3dbb8033f84d2a0",
						"transactionIndex": 80
					},
					{
						"address": "0x1081B5AA9D9d4862A3dA4d469433FB36Ed80FA2A",
						"blockHash": "0x037a36fe3e0f190ce88cec25d1ff1d843e978d86c6c0670fe19a0d5064e38fac",
						"blockNumber": 5479980,
						"data": "0x",
						"index": 202,
						"topics": [
							"0x6895c13664aa4f67288b25d7a21d7aaa34916e355fb9b6fae0a139a9085becb8",
							"0x000000000000000000000000ef1be3c049809cace5bc203bbe4ec1ab284bf75c"
						],
						"transactionHash": "0xf46589ac4e4664219920b647252d41a175538ee15c00e242f3dbb8033f84d2a0",
						"transactionIndex": 80
					},
					{
						"address": "0xEf1Be3C049809caCe5Bc203BBe4Ec1Ab284bF75c",
						"blockHash": "0x037a36fe3e0f190ce88cec25d1ff1d843e978d86c6c0670fe19a0d5064e38fac",
						"blockNumber": 5479980,
						"data": "0x0000000000000000000000000000000000000000000000000000000000000002",
						"index": 203,
						"topics": [
							"0xa65fb05c5808f5f389d72edeaf719ce38f4cc55c1f69ca3cbfb31c21501caa07",
							"0xfada22a01fc6019b369081d169c7f38ec6c9e2c67f065667d7be1b942a641e20"
						],
						"transactionHash": "0xf46589ac4e4664219920b647252d41a175538ee15c00e242f3dbb8033f84d2a0",
						"transactionIndex": 80
					},
					{
						"address": "0xdb72998F9FfEc87e51158E81a8FD49627EB412E8",
						"blockHash": "0x037a36fe3e0f190ce88cec25d1ff1d843e978d86c6c0670fe19a0d5064e38fac",
						"blockNumber": 5479980,
						"data": "0x",
						"index": 204,
						"topics": [
							"0x8be0079c531659141344cd1fd0a4f28419497f9722a3daafe3b4186f6b6457e0",
							"0x0000000000000000000000000000000000000000000000000000000000000000",
							"0x0000000000000000000000001081b5aa9d9d4862a3da4d469433fb36ed80fa2a"
						],
						"transactionHash": "0xf46589ac4e4664219920b647252d41a175538ee15c00e242f3dbb8033f84d2a0",
						"transactionIndex": 80
					},
					{
						"address": "0x1081B5AA9D9d4862A3dA4d469433FB36Ed80FA2A",
						"blockHash": "0x037a36fe3e0f190ce88cec25d1ff1d843e978d86c6c0670fe19a0d5064e38fac",
						"blockNumber": 5479980,
						"data": "0x000000000000000000000000db72998f9ffec87e51158e81a8fd49627eb412e8",
						"index": 205,
						"topics": [
							"0x4db17dd5e4732fb6da34a148104a592783ca119a1e7bb8829eba6cbadef0b511"
						],
						"transactionHash": "0xf46589ac4e4664219920b647252d41a175538ee15c00e242f3dbb8033f84d2a0",
						"transactionIndex": 80
					},
					{
						"address": "0x1081B5AA9D9d4862A3dA4d469433FB36Ed80FA2A",
						"blockHash": "0x037a36fe3e0f190ce88cec25d1ff1d843e978d86c6c0670fe19a0d5064e38fac",
						"blockNumber": 5479980,
						"data": "0x",
						"index": 206,
						"topics": [
							"0x6895c13664aa4f67288b25d7a21d7aaa34916e355fb9b6fae0a139a9085becb8",
							"0x000000000000000000000000ef1be3c049809cace5bc203bbe4ec1ab284bf75c"
						],
						"transactionHash": "0xf46589ac4e4664219920b647252d41a175538ee15c00e242f3dbb8033f84d2a0",
						"transactionIndex": 80
					},
					{
						"address": "0xEf1Be3C049809caCe5Bc203BBe4Ec1Ab284bF75c",
						"blockHash": "0x037a36fe3e0f190ce88cec25d1ff1d843e978d86c6c0670fe19a0d5064e38fac",
						"blockNumber": 5479980,
						"data": "0x0000000000000000000000000000000000000000000000000000000000000003",
						"index": 207,
						"topics": [
							"0xa65fb05c5808f5f389d72edeaf719ce38f4cc55c1f69ca3cbfb31c21501caa07",
							"0xfada22a01fc6019b369081d169c7f38ec6c9e2c67f065667d7be1b942a641e20"
						],
						"transactionHash": "0xf46589ac4e4664219920b647252d41a175538ee15c00e242f3dbb8033f84d2a0",
						"transactionIndex": 80
					},
					{
						"address": "0x1081B5AA9D9d4862A3dA4d469433FB36Ed80FA2A",
						"blockHash": "0x037a36fe3e0f190ce88cec25d1ff1d843e978d86c6c0670fe19a0d5064e38fac",
						"blockNumber": 5479980,
						"data": "0x000000000000000000000000662b84fb924bf127804edc6d1722721dea01dd43",
						"index": 208,
						"topics": [
							"0x4db17dd5e4732fb6da34a148104a592783ca119a1e7bb8829eba6cbadef0b511"
						],
						"transactionHash": "0xf46589ac4e4664219920b647252d41a175538ee15c00e242f3dbb8033f84d2a0",
						"transactionIndex": 80
					},
					{
						"address": "0x1081B5AA9D9d4862A3dA4d469433FB36Ed80FA2A",
						"blockHash": "0x037a36fe3e0f190ce88cec25d1ff1d843e978d86c6c0670fe19a0d5064e38fac",
						"blockNumber": 5479980,
						"data": "0x",
						"index": 209,
						"topics": [
							"0x6895c13664aa4f67288b25d7a21d7aaa34916e355fb9b6fae0a139a9085becb8",
							"0x000000000000000000000000ef1be3c049809cace5bc203bbe4ec1ab284bf75c"
						],
						"transactionHash": "0xf46589ac4e4664219920b647252d41a175538ee15c00e242f3dbb8033f84d2a0",
						"transactionIndex": 80
					},
					{
						"address": "0xEf1Be3C049809caCe5Bc203BBe4Ec1Ab284bF75c",
						"blockHash": "0x037a36fe3e0f190ce88cec25d1ff1d843e978d86c6c0670fe19a0d5064e38fac",
						"blockNumber": 5479980,
						"data": "0x0000000000000000000000000000000000000000000000000000000000000004",
						"index": 210,
						"topics": [
							"0xa65fb05c5808f5f389d72edeaf719ce38f4cc55c1f69ca3cbfb31c21501caa07",
							"0xfada22a01fc6019b369081d169c7f38ec6c9e2c67f065667d7be1b942a641e20"
						],
						"transactionHash": "0xf46589ac4e4664219920b647252d41a175538ee15c00e242f3dbb8033f84d2a0",
						"transactionIndex": 80
					},
					{
						"address": "0x1081B5AA9D9d4862A3dA4d469433FB36Ed80FA2A",
						"blockHash": "0x037a36fe3e0f190ce88cec25d1ff1d843e978d86c6c0670fe19a0d5064e38fac",
						"blockNumber": 5479980,
						"data": "0x000000000000000000000000208bb810b913b647b36967ee764b3da50fb7ad33",
						"index": 211,
						"topics": [
							"0x4db17dd5e4732fb6da34a148104a592783ca119a1e7bb8829eba6cbadef0b511"
						],
						"transactionHash": "0xf46589ac4e4664219920b647252d41a175538ee15c00e242f3dbb8033f84d2a0",
						"transactionIndex": 80
					},
					{
						"address": "0x1081B5AA9D9d4862A3dA4d469433FB36Ed80FA2A",
						"blockHash": "0x037a36fe3e0f190ce88cec25d1ff1d843e978d86c6c0670fe19a0d5064e38fac",
						"blockNumber": 5479980,
						"data": "0x",
						"index": 212,
						"topics": [
							"0x6895c13664aa4f67288b25d7a21d7aaa34916e355fb9b6fae0a139a9085becb8",
							"0x000000000000000000000000ef1be3c049809cace5bc203bbe4ec1ab284bf75c"
						],
						"transactionHash": "0xf46589ac4e4664219920b647252d41a175538ee15c00e242f3dbb8033f84d2a0",
						"transactionIndex": 80
					},
					{
						"address": "0xEf1Be3C049809caCe5Bc203BBe4Ec1Ab284bF75c",
						"blockHash": "0x037a36fe3e0f190ce88cec25d1ff1d843e978d86c6c0670fe19a0d5064e38fac",
						"blockNumber": 5479980,
						"data": "0x0000000000000000000000000000000000000000000000000000000000000005",
						"index": 213,
						"topics": [
							"0xa65fb05c5808f5f389d72edeaf719ce38f4cc55c1f69ca3cbfb31c21501caa07",
							"0xfada22a01fc6019b369081d169c7f38ec6c9e2c67f065667d7be1b942a641e20"
						],
						"transactionHash": "0xf46589ac4e4664219920b647252d41a175538ee15c00e242f3dbb8033f84d2a0",
						"transactionIndex": 80
					},
					{
						"address": "0x1081B5AA9D9d4862A3dA4d469433FB36Ed80FA2A",
						"blockHash": "0x037a36fe3e0f190ce88cec25d1ff1d843e978d86c6c0670fe19a0d5064e38fac",
						"blockNumber": 5479980,
						"data": "0x000000000000000000000000bc7b4588af3ded562f8fa7b9dc299055d51e9159",
						"index": 214,
						"topics": [
							"0x4db17dd5e4732fb6da34a148104a592783ca119a1e7bb8829eba6cbadef0b511"
						],
						"transactionHash": "0xf46589ac4e4664219920b647252d41a175538ee15c00e242f3dbb8033f84d2a0",
						"transactionIndex": 80
					},
					{
						"address": "0x1081B5AA9D9d4862A3dA4d469433FB36Ed80FA2A",
						"blockHash": "0x037a36fe3e0f190ce88cec25d1ff1d843e978d86c6c0670fe19a0d5064e38fac",
						"blockNumber": 5479980,
						"data": "0x",
						"index": 215,
						"topics": [
							"0x6895c13664aa4f67288b25d7a21d7aaa34916e355fb9b6fae0a139a9085becb8",
							"0x000000000000000000000000ef1be3c049809cace5bc203bbe4ec1ab284bf75c"
						],
						"transactionHash": "0xf46589ac4e4664219920b647252d41a175538ee15c00e242f3dbb8033f84d2a0",
						"transactionIndex": 80
					},
					{
						"address": "0xEf1Be3C049809caCe5Bc203BBe4Ec1Ab284bF75c",
						"blockHash": "0x037a36fe3e0f190ce88cec25d1ff1d843e978d86c6c0670fe19a0d5064e38fac",
						"blockNumber": 5479980,
						"data": "0x0000000000000000000000000000000000000000000000000000000000000006",
						"index": 216,
						"topics": [
							"0xa65fb05c5808f5f389d72edeaf719ce38f4cc55c1f69ca3cbfb31c21501caa07",
							"0xfada22a01fc6019b369081d169c7f38ec6c9e2c67f065667d7be1b942a641e20"
						],
						"transactionHash": "0xf46589ac4e4664219920b647252d41a175538ee15c00e242f3dbb8033f84d2a0",
						"transactionIndex": 80
					},
					{
						"address": "0x1081B5AA9D9d4862A3dA4d469433FB36Ed80FA2A",
						"blockHash": "0x037a36fe3e0f190ce88cec25d1ff1d843e978d86c6c0670fe19a0d5064e38fac",
						"blockNumber": 5479980,
						"data": "0x000000000000000000000000f5b5e211b5943bee27baa1d6ac46139f13850270",
						"index": 217,
						"topics": [
							"0x4db17dd5e4732fb6da34a148104a592783ca119a1e7bb8829eba6cbadef0b511"
						],
						"transactionHash": "0xf46589ac4e4664219920b647252d41a175538ee15c00e242f3dbb8033f84d2a0",
						"transactionIndex": 80
					},
					{
						"address": "0x1081B5AA9D9d4862A3dA4d469433FB36Ed80FA2A",
						"blockHash": "0x037a36fe3e0f190ce88cec25d1ff1d843e978d86c6c0670fe19a0d5064e38fac",
						"blockNumber": 5479980,
						"data": "0x",
						"index": 218,
						"topics": [
							"0x6895c13664aa4f67288b25d7a21d7aaa34916e355fb9b6fae0a139a9085becb8",
							"0x000000000000000000000000ef1be3c049809cace5bc203bbe4ec1ab284bf75c"
						],
						"transactionHash": "0xf46589ac4e4664219920b647252d41a175538ee15c00e242f3dbb8033f84d2a0",
						"transactionIndex": 80
					},
					{
						"address": "0xEf1Be3C049809caCe5Bc203BBe4Ec1Ab284bF75c",
						"blockHash": "0x037a36fe3e0f190ce88cec25d1ff1d843e978d86c6c0670fe19a0d5064e38fac",
						"blockNumber": 5479980,
						"data": "0x0000000000000000000000000000000000000000000000000000000000000007",
						"index": 219,
						"topics": [
							"0xa65fb05c5808f5f389d72edeaf719ce38f4cc55c1f69ca3cbfb31c21501caa07",
							"0xfada22a01fc6019b369081d169c7f38ec6c9e2c67f065667d7be1b942a641e20"
						],
						"transactionHash": "0xf46589ac4e4664219920b647252d41a175538ee15c00e242f3dbb8033f84d2a0",
						"transactionIndex": 80
					}
				],
				"logsBloom": "0x00000000080010000008000000080000000000080008000000800000004000000062008000000100000000000040000000000000000000000010000000000000000000000000200400000000820000000001000000000000000200000000000000000000020000000000000000000800000000100020000000000000008000400001000000000000000100000000000002000000000000000000804000000000004000080010040008000000000000020200000000000080000000000006000000000000000000200000000008000000000000008000000000020000000020000000000000000004000000000000000200000000000000000000000000040000",
				"status": 1,
				"to": "0xB5E96127D417b1B3ef8438496a38A143167209c7"
			},
			"metadata": "{\"compiler\":{\"version\":\"0.8.23+commit.f704f362\"},\"language\":\"Solidity\",\"output\":{\"abi\":[{\"inputs\":[{\"internalType\":\"contract IJBPermissions\",\"name\":\"permissions\",\"type\":\"address\"},{\"internalType\":\"contract IJBProjects\",\"name\":\"projects\",\"type\":\"address\"},{\"internalType\":\"address\",\"name\":\"owner\",\"type\":\"address\"}],\"stateMutability\":\"nonpayable\",\"type\":\"constructor\"},{\"inputs\":[],\"type\":\"error\",\"name\":\"DUPLICATE_TERMINALS\"},{\"inputs\":[],\"type\":\"error\",\"name\":\"INVALID_PROJECT_ID_IN_DIRECTORY\"},{\"inputs\":[{\"internalType\":\"address\",\"name\":\"owner\",\"type\":\"address\"}],\"type\":\"error\",\"name\":\"OwnableInvalidOwner\"},{\"inputs\":[{\"internalType\":\"address\",\"name\":\"account\",\"type\":\"address\"}],\"type\":\"error\",\"name\":\"OwnableUnauthorizedAccount\"},{\"inputs\":[],\"type\":\"error\",\"name\":\"SET_CONTROLLER_NOT_ALLOWED\"},{\"inputs\":[],\"type\":\"error\",\"name\":\"SET_TERMINALS_NOT_ALLOWED\"},{\"inputs\":[],\"type\":\"error\",\"name\":\"TOKEN_NOT_ACCEPTED\"},{\"inputs\":[],\"type\":\"error\",\"name\":\"UNAUTHORIZED\"},{\"inputs\":[{\"internalType\":\"uint256\",\"name\":\"projectId\",\"type\":\"uint256\",\"indexed\":true},{\"internalType\":\"contract IJBTerminal\",\"name\":\"terminal\",\"type\":\"address\",\"indexed\":true},{\"internalType\":\"address\",\"name\":\"caller\",\"type\":\"address\",\"indexed\":false}],\"type\":\"event\",\"name\":\"AddTerminal\",\"anonymous\":false},{\"inputs\":[{\"internalType\":\"address\",\"name\":\"previousOwner\",\"type\":\"address\",\"indexed\":true},{\"internalType\":\"address\",\"name\":\"newOwner\",\"type\":\"address\",\"indexed\":true}],\"type\":\"event\",\"name\":\"OwnershipTransferred\",\"anonymous\":false},{\"inputs\":[{\"internalType\":\"uint256\",\"name\":\"projectId\",\"type\":\"uint256\",\"indexed\":true},{\"internalType\":\"contract IERC165\",\"name\":\"controller\",\"type\":\"address\",\"indexed\":true},{\"internalType\":\"address\",\"name\":\"caller\",\"type\":\"address\",\"indexed\":false}],\"type\":\"event\",\"name\":\"SetController\",\"anonymous\":false},{\"inputs\":[{\"internalType\":\"address\",\"name\":\"addr\",\"type\":\"address\",\"indexed\":true},{\"internalType\":\"bool\",\"name\":\"flag\",\"type\":\"bool\",\"indexed\":true},{\"internalType\":\"address\",\"name\":\"caller\",\"type\":\"address\",\"indexed\":false}],\"type\":\"event\",\"name\":\"SetIsAllowedToSetFirstController\",\"anonymous\":false},{\"inputs\":[{\"internalType\":\"uint256\",\"name\":\"projectId\",\"type\":\"uint256\",\"indexed\":true},{\"internalType\":\"address\",\"name\":\"token\",\"type\":\"address\",\"indexed\":true},{\"internalType\":\"contract IJBTerminal\",\"name\":\"terminal\",\"type\":\"address\",\"indexed\":true},{\"internalType\":\"address\",\"name\":\"caller\",\"type\":\"address\",\"indexed\":false}],\"type\":\"event\",\"name\":\"SetPrimaryTerminal\",\"anonymous\":false},{\"inputs\":[{\"internalType\":\"uint256\",\"name\":\"projectId\",\"type\":\"uint256\",\"indexed\":true},{\"internalType\":\"contract IJBTerminal[]\",\"name\":\"terminals\",\"type\":\"address[]\",\"indexed\":false},{\"internalType\":\"address\",\"name\":\"caller\",\"type\":\"address\",\"indexed\":false}],\"type\":\"event\",\"name\":\"SetTerminals\",\"anonymous\":false},{\"inputs\":[],\"stateMutability\":\"view\",\"type\":\"function\",\"name\":\"PERMISSIONS\",\"outputs\":[{\"internalType\":\"contract IJBPermissions\",\"name\":\"\",\"type\":\"address\"}]},{\"inputs\":[],\"stateMutability\":\"view\",\"type\":\"function\",\"name\":\"PROJECTS\",\"outputs\":[{\"internalType\":\"contract IJBProjects\",\"name\":\"\",\"type\":\"address\"}]},{\"inputs\":[{\"internalType\":\"uint256\",\"name\":\"projectId\",\"type\":\"uint256\"}],\"stateMutability\":\"view\",\"type\":\"function\",\"name\":\"controllerOf\",\"outputs\":[{\"internalType\":\"contract IERC165\",\"name\":\"\",\"type\":\"address\"}]},{\"inputs\":[{\"internalType\":\"address\",\"name\":\"addr\",\"type\":\"address\"}],\"stateMutability\":\"view\",\"type\":\"function\",\"name\":\"isAllowedToSetFirstController\",\"outputs\":[{\"internalType\":\"bool\",\"name\":\"\",\"type\":\"bool\"}]},{\"inputs\":[{\"internalType\":\"uint256\",\"name\":\"projectId\",\"type\":\"uint256\"},{\"internalType\":\"contract IJBTerminal\",\"name\":\"terminal\",\"type\":\"address\"}],\"stateMutability\":\"view\",\"type\":\"function\",\"name\":\"isTerminalOf\",\"outputs\":[{\"internalType\":\"bool\",\"name\":\"\",\"type\":\"bool\"}]},{\"inputs\":[],\"stateMutability\":\"view\",\"type\":\"function\",\"name\":\"owner\",\"outputs\":[{\"internalType\":\"address\",\"name\":\"\",\"type\":\"address\"}]},{\"inputs\":[{\"internalType\":\"uint256\",\"name\":\"projectId\",\"type\":\"uint256\"},{\"internalType\":\"address\",\"name\":\"token\",\"type\":\"address\"}],\"stateMutability\":\"view\",\"type\":\"function\",\"name\":\"primaryTerminalOf\",\"outputs\":[{\"internalType\":\"contract IJBTerminal\",\"name\":\"\",\"type\":\"address\"}]},{\"inputs\":[],\"stateMutability\":\"nonpayable\",\"type\":\"function\",\"name\":\"renounceOwnership\"},{\"inputs\":[{\"internalType\":\"uint256\",\"name\":\"projectId\",\"type\":\"uint256\"},{\"internalType\":\"contract IERC165\",\"name\":\"controller\",\"type\":\"address\"}],\"stateMutability\":\"nonpayable\",\"type\":\"function\",\"name\":\"setControllerOf\"},{\"inputs\":[{\"internalType\":\"address\",\"name\":\"addr\",\"type\":\"address\"},{\"internalType\":\"bool\",\"name\":\"flag\",\"type\":\"bool\"}],\"stateMutability\":\"nonpayable\",\"type\":\"function\",\"name\":\"setIsAllowedToSetFirstController\"},{\"inputs\":[{\"internalType\":\"uint256\",\"name\":\"projectId\",\"type\":\"uint256\"},{\"internalType\":\"address\",\"name\":\"token\",\"type\":\"address\"},{\"internalType\":\"contract IJBTerminal\",\"name\":\"terminal\",\"type\":\"address\"}],\"stateMutability\":\"nonpayable\",\"type\":\"function\",\"name\":\"setPrimaryTerminalOf\"},{\"inputs\":[{\"internalType\":\"uint256\",\"name\":\"projectId\",\"type\":\"uint256\"},{\"internalType\":\"contract IJBTerminal[]\",\"name\":\"terminals\",\"type\":\"address[]\"}],\"stateMutability\":\"nonpayable\",\"type\":\"function\",\"name\":\"setTerminalsOf\"},{\"inputs\":[{\"internalType\":\"uint256\",\"name\":\"projectId\",\"type\":\"uint256\"}],\"stateMutability\":\"view\",\"type\":\"function\",\"name\":\"terminalsOf\",\"outputs\":[{\"internalType\":\"contract IJBTerminal[]\",\"name\":\"\",\"type\":\"address[]\"}]},{\"inputs\":[{\"internalType\":\"address\",\"name\":\"newOwner\",\"type\":\"address\"}],\"stateMutability\":\"nonpayable\",\"type\":\"function\",\"name\":\"transferOwnership\"}],\"devdoc\":{\"kind\":\"dev\",\"methods\":{\"constructor\":{\"params\":{\"owner\":\"The address that will own the contract.\",\"permissions\":\"A contract storing permissions.\",\"projects\":\"A contract which mints ERC-721s that represent project ownership and transfers.\"}},\"isTerminalOf(uint256,address)\":{\"params\":{\"projectId\":\"The ID of the project to check for the terminal.\",\"terminal\":\"The address of the terminal to check for.\"},\"returns\":{\"_0\":\"A flag indicating whether or not the specified terminal is a terminal of the specified project.\"}},\"owner()\":{\"details\":\"Returns the address of the current owner.\"},\"primaryTerminalOf(uint256,address)\":{\"details\":\"The zero address is returned if a terminal isn't found for the specified token.\",\"params\":{\"projectId\":\"The ID of the project to get the primary terminal of.\",\"token\":\"The token the terminal accepts.\"},\"returns\":{\"_0\":\"The address of the primary terminal for the specified project and token.\"}},\"renounceOwnership()\":{\"details\":\"Leaves the contract without owner. It will not be possible to call `onlyOwner` functions. Can only be called by the current owner. NOTE: Renouncing ownership will leave the contract without an owner, thereby disabling any functionality that is only available to the owner.\"},\"setControllerOf(uint256,address)\":{\"details\":\"A controller can be set if:- The project's ruleset allows setting the controller, and the message sender is the project owner or an operator with the `SET_CONTROLLER` permission from them.- OR the message sender is the project's current controller.- OR an allowedlisted address is setting a controller for a project that doesn't already have a controller.\",\"params\":{\"controller\":\"The address of the new controller to set for the project.\",\"projectId\":\"The ID of the project to set the controller of.\"}},\"setIsAllowedToSetFirstController(address,bool)\":{\"details\":\"Only this contract's owner can call this function.These addresses are known and vetted controllers as well as contracts designed to launch new projects.A project can set its own controller without being on the allow list.If you would like an address/contract allowlisted, please reach out to the contract owner.\",\"params\":{\"addr\":\"The address to allow or not allow.\",\"flag\":\"Whether the address is allowed or not allowed to set first controllers for projects. Use `true` to allow and `false` to not allow.\"}},\"setPrimaryTerminalOf(uint256,address,address)\":{\"details\":\"The primary terminal is where a token should be routed to by default.This is useful in case a project has several terminals connected for a particular token.If setting a newly added terminal and the ruleset doesn't allow new terminals, the caller must be the current controller.\",\"params\":{\"projectId\":\"The ID of the project a primary token is being set for.\",\"terminal\":\"The terminal to make the primary terminal for the project and token.\",\"token\":\"The token to set the primary terminal for.\"}},\"setTerminalsOf(uint256,address[])\":{\"details\":\"Only a project's owner, an operator with the `SET_TERMINALS` permission from the owner, or the project's controller can set its terminals.Unless the caller is the project's controller, the project's ruleset must allow setting terminals.\",\"params\":{\"projectId\":\"The ID of the project to set terminals for.\",\"terminals\":\"An array of terminal addresses to set for the project.\"}},\"terminalsOf(uint256)\":{\"params\":{\"projectId\":\"The ID of the project to get the terminals of.\"},\"returns\":{\"_0\":\"An array of terminal addresses.\"}},\"transferOwnership(address)\":{\"details\":\"Transfers ownership of the contract to a new account (`newOwner`). Can only be called by the current owner.\"}},\"version\":1},\"userdoc\":{\"kind\":\"user\",\"methods\":{\"PERMISSIONS()\":{\"notice\":\"A contract storing permissions.\"},\"PROJECTS()\":{\"notice\":\"Mints ERC-721s that represent project ownership and transfers.\"},\"controllerOf(uint256)\":{\"notice\":\"The controller, which dictates how terminals interact with tokens and rulesets, for a given project ID.\"},\"isAllowedToSetFirstController(address)\":{\"notice\":\"Addresses allowed to set a project's first controller on their behalf. These addresses/contracts have been vetted and verified by this contract's owner.\"},\"isTerminalOf(uint256,address)\":{\"notice\":\"Check if a specified project uses a specified terminal.\"},\"primaryTerminalOf(uint256,address)\":{\"notice\":\"The primary terminal that a project is using to manage a specified token.\"},\"setControllerOf(uint256,address)\":{\"notice\":\"Set a project's controller. Controllers manage how terminals interact with tokens and rulesets.\"},\"setIsAllowedToSetFirstController(address,bool)\":{\"notice\":\"Add an address/contract to the list of trusted addresses which are allowed to set a first controller for projects.\"},\"setPrimaryTerminalOf(uint256,address,address)\":{\"notice\":\"Set a project's primary terminal for a particular token.\"},\"setTerminalsOf(uint256,address[])\":{\"notice\":\"Set a project's terminals.\"},\"terminalsOf(uint256)\":{\"notice\":\"For  given project ID, the terminals which are currently managing that project's funds.\"}},\"version\":1}},\"settings\":{\"remappings\":[\"@bananapus/=node_modules/@bananapus/\",\"@chainlink/=node_modules/@chainlink/\",\"@eth-optimism/=node_modules/@eth-optimism/\",\"@gnosis.pm/=node_modules/@gnosis.pm/\",\"@openzeppelin/=node_modules/@openzeppelin/\",\"@prb/=node_modules/@prb/\",\"@sphinx-labs/contracts/=lib/sphinx/packages/contracts/contracts/foundry/\",\"@uniswap/=node_modules/@uniswap/\",\"ds-test/=lib/forge-std/lib/ds-test/src/\",\"forge-std/=lib/forge-std/src/\",\"hardhat/=node_modules/hardhat/\",\"solmate/=node_modules/solmate/\",\"sphinx-forge-std/=node_modules/sphinx-forge-std/\",\"sphinx-solmate/=node_modules/sphinx-solmate/\",\"sphinx/=lib/sphinx/\"],\"optimizer\":{\"enabled\":true,\"runs\":200},\"metadata\":{\"bytecodeHash\":\"ipfs\"},\"compilationTarget\":{\"src/JBDirectory.sol\":\"JBDirectory\"},\"evmVersion\":\"paris\",\"libraries\":{}},\"sources\":{\"node_modules/@bananapus/permission-ids/src/JBPermissionIds.sol\":{\"keccak256\":\"0xcc68735b4c801e953cb7962e069933f369515e7a4a09aea5b2170a268125a898\",\"urls\":[\"bzz-raw://e51f839d96be200efeca40ca4fb1d5b6096303564cdde5cf67aecf58e2d36db3\",\"dweb:/ipfs/QmRnJ5s974eUeyvTuLUpt4TK8t5TjVmz7DyDSAKxgYTnA5\"],\"license\":\"UNLICENSED\"},\"node_modules/@openzeppelin/contracts/access/Ownable.sol\":{\"keccak256\":\"0xff6d0bb2e285473e5311d9d3caacb525ae3538a80758c10649a4d61029b017bb\",\"urls\":[\"bzz-raw://8ed324d3920bb545059d66ab97d43e43ee85fd3bd52e03e401f020afb0b120f6\",\"dweb:/ipfs/QmfEckWLmZkDDcoWrkEvMWhms66xwTLff9DDhegYpvHo1a\"],\"license\":\"MIT\"},\"node_modules/@openzeppelin/contracts/token/ERC721/IERC721.sol\":{\"keccak256\":\"0x5ef46daa3b58ef2702279d514780316efaa952915ee1aa3396f041ee2982b0b4\",\"urls\":[\"bzz-raw://2f8f2a76e23b02fc69e8cd24c3cb47da6c7af3a2d6c3a382f8ac25c6e094ade7\",\"dweb:/ipfs/QmPV4ZS4tPVv4mTCf9ejyZ1ai57EEibDRj7mN2ARDCLV5n\"],\"license\":\"MIT\"},\"node_modules/@openzeppelin/contracts/utils/Context.sol\":{\"keccak256\":\"0x493033a8d1b176a037b2cc6a04dad01a5c157722049bbecf632ca876224dd4b2\",\"urls\":[\"bzz-raw://6a708e8a5bdb1011c2c381c9a5cfd8a9a956d7d0a9dc1bd8bcdaf52f76ef2f12\",\"dweb:/ipfs/Qmax9WHBnVsZP46ZxEMNRQpLQnrdE4dK8LehML1Py8FowF\"],\"license\":\"MIT\"},\"node_modules/@openzeppelin/contracts/utils/introspection/IERC165.sol\":{\"keccak256\":\"0x4296879f55019b23e135000eb36896057e7101fb7fb859c5ef690cf14643757b\",\"urls\":[\"bzz-raw://87b3541437c8c443ccd36795e56a338ed12855eec17f8da624511b8d1a7e14df\",\"dweb:/ipfs/QmeJQCtZrQjtJLr6u7ZHWeH3pBnjtLWzvRrKViAi7UZqxL\"],\"license\":\"MIT\"},\"src/JBDirectory.sol\":{\"keccak256\":\"0x164ccdbd7d3d67ff89934609c8e9c0340578bef327f02668483fa909b82d4c74\",\"urls\":[\"bzz-raw://7c17e1f8b916022b3997654834a8167875a8e82279b2a937b8949e36b9ff838e\",\"dweb:/ipfs/QmYbKb1JzK22tEENfaf1pHMx8pGkTowMEfrcYYDDpfvdjC\"],\"license\":\"MIT\"},\"src/abstract/JBPermissioned.sol\":{\"keccak256\":\"0xbe593894bc9893f7fe5c96f14c013add8f50df762538e3d7cb96ed39ad195664\",\"urls\":[\"bzz-raw://efb81264b24776e6be537680abaeb8c4893e70d8a62231748d860e25a7c2340d\",\"dweb:/ipfs/QmacN9gFgPqkhTEwRD7Zben3whq9DRr2ZkSmScGvioTXXR\"],\"license\":\"MIT\"},\"src/interfaces/IJBDirectory.sol\":{\"keccak256\":\"0xd15957cc32974cde4f9f194b92574df2ad8a7aeec049d947136ce3381f9145f6\",\"urls\":[\"bzz-raw://7543e5cbde75ff777b16067016ff9ac5e995752842f03662137eb4ef3fc3c868\",\"dweb:/ipfs/QmPJZAmqNKRcj1JQ4Kc9hExbMtPPzrRB5hZ787utCfBmXg\"],\"license\":\"MIT\"},\"src/interfaces/IJBDirectoryAccessControl.sol\":{\"keccak256\":\"0x1e67f56849320a46f834aaa9bd62b170ff8ada7b224b4a81136193740fa0be4d\",\"urls\":[\"bzz-raw://ea8fbcec44abfe49d137bcae129b67e5479d6b17879301f88534c8a7fab00be4\",\"dweb:/ipfs/QmT6wrtYX4GRpffHUzupNwYebJ1dqkkKZLEewWsoyunsqw\"],\"license\":\"MIT\"},\"src/interfaces/IJBPayHook.sol\":{\"keccak256\":\"0xe24aa2ca52f7a5f24f24ccae101cfc94d0f76705b2d23222f87c7852f8be4267\",\"urls\":[\"bzz-raw://6888140e9a7d4156fd22635654d5d08e21819af8b0356b5415f37b75083b3eb9\",\"dweb:/ipfs/QmbuwBNhar7rEbRhTJPiyo5PVsfaM5nqLow9NAkHhyvjV5\"],\"license\":\"MIT\"},\"src/interfaces/IJBPermissioned.sol\":{\"keccak256\":\"0x5b038d4dee116584e88b230920e56d48e135053e3f7e5642eaea14a775c1dad7\",\"urls\":[\"bzz-raw://19e43102f349fd4a1da1c0943ffb8f2950007fe4bb4bb7e8f74fc142575d091b\",\"dweb:/ipfs/QmXHAt4KzDTdDZgDDefEXH2WKi7NcfkJb9R7nxW5uDqsNp\"],\"license\":\"MIT\"},\"src/interfaces/IJBPermissions.sol\":{\"keccak256\":\"0x18870e500edf0fbadc353e273a5574701fb80466376b908c65e7cc3f11044d4d\",\"urls\":[\"bzz-raw://352a47c45853aec80e7acf0d286ade3106eb4cb456776b28a3c2f3f1091bed90\",\"dweb:/ipfs/QmQeYd3YbudYZy2hfbfht9kwhxhw4tuuLKMEYy9UY6dcSy\"],\"license\":\"MIT\"},\"src/interfaces/IJBProjects.sol\":{\"keccak256\":\"0x85539f72c5871c53a919edc7db78931155464e9e00fccd30079b17e75820ddb9\",\"urls\":[\"bzz-raw://505466dbfbdeec77f948ce065676897a5b4a74b70bb234c1053b893c4849f3a1\",\"dweb:/ipfs/QmYBpZQub3Mv19xsRWqvzgiQSBAp4UNaKcqWQ2wwH62H95\"],\"license\":\"MIT\"},\"src/interfaces/IJBTokenUriResolver.sol\":{\"keccak256\":\"0xfa5cb00dcd6085d1ef912d071fe73c63f9478a2cd0f9d8bddaf659b6af2d0967\",\"urls\":[\"bzz-raw://282e4e7c342d65f77cde0e9a08fcaf20ef5cf379c7a48b639842c0ffd0b2afb8\",\"dweb:/ipfs/QmbnN3PEQeZaXdPLT75V1J79kMg7KqSMru37RHrL3z8Yf2\"],\"license\":\"MIT\"},\"src/interfaces/terminal/IJBTerminal.sol\":{\"keccak256\":\"0x36f23bc27e56fa86d100281a75f5a6ce73f39f32e6a1667ce69f902da1d005ee\",\"urls\":[\"bzz-raw://e8ffa2e264fa12444799cb5706ca577034f3f8be9ff7a2f072981de6a61d706d\",\"dweb:/ipfs/QmR6gQDymvk8JQ77J8VxpFD1Hnxga4w7LLiRvAT3m4LG6T\"],\"license\":\"MIT\"},\"src/structs/JBAccountingContext.sol\":{\"keccak256\":\"0x2907ff54d1e903cc7e0390dd88c3975884702dc2673642aacbe22b66560b56de\",\"urls\":[\"bzz-raw://a66a5381ce877b32f0e0058ceeaf843e9b6b2bc8af666c0c9f4a9d01091da004\",\"dweb:/ipfs/QmQynCetUr37dBkS1YwDS8evxuXGiqanW6THmeUxXtim8w\"],\"license\":\"MIT\"},\"src/structs/JBAfterPayRecordedContext.sol\":{\"keccak256\":\"0xd26c3a774ff38be79064085970454fe2603a23a638c76270d5b1b3829206c3e8\",\"urls\":[\"bzz-raw://3b55dbe3bf1ef625b7ca04efab3de35406e6041d5b3d82c7265469c500e2b702\",\"dweb:/ipfs/QmUdBDo4Lt3mcsFcsXT2mqq3czFwZjQJFPLM89YA2VtD7k\"],\"license\":\"MIT\"},\"src/structs/JBPermissionsData.sol\":{\"keccak256\":\"0x8f0f69a6ebf5f3704e3dfcb3712fb9d3f94ae7c1ab89bf3e37bad42a3e7a0487\",\"urls\":[\"bzz-raw://57b0c5e52843e2217082889ed47b4da3943e0da4590d5768dcebfe3edad4a6b8\",\"dweb:/ipfs/QmRz48vuWLw81kUP836rh1qzqWiJFGbksgRUA9xGEDNKTY\"],\"license\":\"MIT\"},\"src/structs/JBTokenAmount.sol\":{\"keccak256\":\"0x5cf0626b73a596c1e2da17c89ae039a7c0374310b060d48568d3b6c11fbe6180\",\"urls\":[\"bzz-raw://63348b50be95e2995409394a17caffc563a646f0972650a1230bf864fbd3219b\",\"dweb:/ipfs/QmZXZpS3SbFD5nWaCauf6AqbEhLURv5qsKHpThBvQgDU6u\"],\"license\":\"MIT\"}},\"version\":1}",
			"args": [
				"0x625e7bce20BcE80D426384c38831f92d453fBf29",
				"0x5e8a3B68ad51E2Ae55E5D7215E9e59bC0f66e33F",
				"0x1081B5AA9D9d4862A3dA4d469433FB36Ed80FA2A"
			],
			"bytecode": "0x60c06040523480156200001157600080fd5b5060405162001654380380620016548339810160408190526200003491620000f4565b6001600160a01b03808416608052819081166200006b57604051631e4fbdf760e01b81526000600482015260240160405180910390fd5b62000076816200008b565b50506001600160a01b031660a0525062000148565b600080546001600160a01b038381166001600160a01b0319831681178455604051919092169283917f8be0079c531659141344cd1fd0a4f28419497f9722a3daafe3b4186f6b6457e09190a35050565b6001600160a01b0381168114620000f157600080fd5b50565b6000806000606084860312156200010a57600080fd5b83516200011781620000db565b60208501519093506200012a81620000db565b60408501519092506200013d81620000db565b809150509250925092565b60805160a0516114bd620001976000396000818160f401528181610290015281816104be0152818161057201526107cd01526000818161025401528181610d470152610df001526114bd6000f3fe608060405234801561001057600080fd5b50600436106100ea5760003560e01c8063862026501161008c578063c5664e2111610066578063c5664e21146101f9578063d17541531461021c578063f2fde38b1461023c578063f434c9141461024f57600080fd5b806386202650146101c25780638da5cb5b146101d5578063a1ed3175146101e657600080fd5b80636e49181f116100c85780636e49181f14610171578063714e7f3214610194578063715018a6146101a7578063821b9fd8146101af57600080fd5b8063293c4999146100ef5780635dd8f6aa1461013357806363d0850a1461015c575b600080fd5b6101167f000000000000000000000000000000000000000000000000000000000000000081565b6040516001600160a01b0390911681526020015b60405180910390f35b61011661014136600461113f565b6001602052600090815260409020546001600160a01b031681565b61016f61016a36600461116d565b610276565b005b61018461017f3660046111af565b610425565b604051901515815260200161012a565b61016f6101a23660046111af565b6104a4565b61016f61079f565b61016f6101bd3660046111df565b6107b3565b6101166101d03660046111af565b610ab8565b6000546001600160a01b0316610116565b61016f6101f436600461126c565b610be4565b61018461020736600461129a565b60026020526000908152604090205460ff1681565b61022f61022a36600461113f565b610c4e565b60405161012a91906112be565b61016f61024a36600461129a565b610cba565b6101167f000000000000000000000000000000000000000000000000000000000000000081565b6040516331a9108f60e11b81526004810184905261030b907f00000000000000000000000000000000000000000000000000000000000000006001600160a01b031690636352211e90602401602060405180830381865afa1580156102df573d6000803e3d6000fd5b505050506040513d601f19601f82011682018060405250810190610303919061130b565b846010610cfd565b604051633a01714f60e01b8152600481018490526001600160a01b03838116602483015260009190831690633a01714f90604401606060405180830381865afa15801561035c573d6000803e3d6000fd5b505050506040513d601f19601f820116820180604052508101906103809190611328565b516001600160a01b0316036103a857604051630faa917b60e11b815260040160405180910390fd5b6103b28382610e81565b60008381526004602090815260408083206001600160a01b038681168086529184529382902080546001600160a01b03191694861694851790559051338152909186917fc670a502bbb9f8a4315f95eca901a9f99b65f89a2eb5705a58050e5c00f9d672910160405180910390a4505050565b600082815260036020526040812054815b8181101561049757600085815260036020526040902080546001600160a01b03861691908390811061046a5761046a6113b7565b6000918252602090912001546001600160a01b03160361048f5760019250505061049e565b600101610436565b5060009150505b92915050565b6040516331a9108f60e11b81526004810183905261056f907f00000000000000000000000000000000000000000000000000000000000000006001600160a01b031690636352211e90602401602060405180830381865afa15801561050d573d6000803e3d6000fd5b505050506040513d601f19601f82011682018060405250810190610531919061130b565b336000908152600260205260409020548490600e9060ff16801561056a57506000868152600160205260409020546001600160a01b0316155b61103a565b817f00000000000000000000000000000000000000000000000000000000000000006001600160a01b03166306661abd6040518163ffffffff1660e01b8152600401602060405180830381865afa1580156105ce573d6000803e3d6000fd5b505050506040513d601f19601f820116820180604052508101906105f291906113cd565b101561061157604051634a283a5360e11b815260040160405180910390fd5b6000828152600160205260408120546001600160a01b0316908115806106a357506040516301ffc9a760e01b8152632877540760e01b60048201526001600160a01b038316906301ffc9a790602401602060405180830381865afa15801561067d573d6000803e3d6000fd5b505050506040513d601f19601f820116820180604052508101906106a191906113e6565b155b61071557604051632674968d60e21b8152600481018590526001600160a01b038316906399d25a3490602401602060405180830381865afa1580156106ec573d6000803e3d6000fd5b505050506040513d601f19601f8201168201806040525081019061071091906113e6565b610718565b60015b9050806107385760405163a33db4cb60e01b815260040160405180910390fd5b60008481526001602090815260409182902080546001600160a01b0319166001600160a01b038716908117909155915133815286917f7f9a7dcb234c909a09de2f344661ad9e5b24067adb97c908647c2edcbb121c3091015b60405180910390a350505050565b6107a761104a565b6107b16000611077565b565b6040516331a9108f60e11b815260048101849052610864907f00000000000000000000000000000000000000000000000000000000000000006001600160a01b031690636352211e90602401602060405180830381865afa15801561081c573d6000803e3d6000fd5b505050506040513d601f19601f82011682018060405250810190610840919061130b565b6000858152600160205260409020548590600f906001600160a01b0316331461103a565b6000838152600160205260408082205490516301ffc9a760e01b8152632877540760e01b60048201526001600160a01b03909116919082906301ffc9a790602401602060405180830381865afa1580156108c2573d6000803e3d6000fd5b505050506040513d601f19601f820116820180604052508101906108e691906113e6565b1580610956575060405163b1a50e3360e01b8152600481018690526001600160a01b0383169063b1a50e3390602401602060405180830381865afa158015610932573d6000803e3d6000fd5b505050506040513d601f19601f8201168201806040525081019061095691906113e6565b6000868152600160205260409020549091506001600160a01b0316331480159061097e575080155b1561099c576040516375fef35f60e11b815260040160405180910390fd5b60008581526003602052604090206109b59085856110c7565b50826001811115610a745760005b81811015610a725760006109d8826001611403565b90505b82811015610a69578686828181106109f5576109f56113b7565b9050602002016020810190610a0a919061129a565b6001600160a01b0316878784818110610a2557610a256113b7565b9050602002016020810190610a3a919061129a565b6001600160a01b031603610a6157604051633e3830ab60e11b815260040160405180910390fd5b6001016109db565b506001016109c3565b505b857fb648241d83df6540fc10f2acc641e4bf80a1e84e7ae2f1f6b0ad204b8fee635b868633604051610aa893929190611424565b60405180910390a2505050505050565b60008281526004602090815260408083206001600160a01b0380861685529252822054168015801590610af05750610af08482610425565b15610afc57905061049e565b600084815260036020526040812054905b81811015610bd8576000868152600360205260408120805483908110610b3557610b356113b7565b6000918252602082200154604051633a01714f60e01b8152600481018a90526001600160a01b03898116602483015290911692508290633a01714f90604401606060405180830381865afa158015610b91573d6000803e3d6000fd5b505050506040513d601f19601f82011682018060405250810190610bb59190611328565b516001600160a01b031614610bcf57935061049e92505050565b50600101610b0d565b50600095945050505050565b610bec61104a565b6001600160a01b038216600081815260026020908152604091829020805460ff191685151590811790915591513381529192917f11207664cc48b0fa81c8674795f1d8f642960f38d5d2d305ad813093bed85fab910160405180910390a35050565b600081815260036020908152604091829020805483518184028101840190945280845260609392830182828015610cae57602002820191906000526020600020905b81546001600160a01b03168152600190910190602001808311610c90575b50505050509050919050565b610cc261104a565b6001600160a01b038116610cf157604051631e4fbdf760e01b8152600060048201526024015b60405180910390fd5b610cfa81611077565b50565b336001600160a01b0384168114801590610db4575060405163c161c93f60e01b81526001600160a01b038281166004830152858116602483015260448201859052606482018490527f0000000000000000000000000000000000000000000000000000000000000000169063c161c93f90608401602060405180830381865afa158015610d8e573d6000803e3d6000fd5b505050506040513d601f19601f82011682018060405250810190610db291906113e6565b155b8015610e5d575060405163c161c93f60e01b81526001600160a01b038281166004830152858116602483015260006044830152606482018490527f0000000000000000000000000000000000000000000000000000000000000000169063c161c93f90608401602060405180830381865afa158015610e37573d6000803e3d6000fd5b505050506040513d601f19601f82011682018060405250810190610e5b91906113e6565b155b15610e7b5760405163075fd2b160e01b815260040160405180910390fd5b50505050565b610e8b8282610425565b15610e94575050565b6000828152600160205260408082205490516301ffc9a760e01b8152632877540760e01b60048201526001600160a01b03909116919082906301ffc9a790602401602060405180830381865afa158015610ef2573d6000803e3d6000fd5b505050506040513d601f19601f82011682018060405250810190610f1691906113e6565b1580610f86575060405163b1a50e3360e01b8152600481018590526001600160a01b0383169063b1a50e3390602401602060405180830381865afa158015610f62573d6000803e3d6000fd5b505050506040513d601f19601f82011682018060405250810190610f8691906113e6565b6000858152600160205260409020549091506001600160a01b03163314801590610fae575080155b15610fcc576040516375fef35f60e11b815260040160405180910390fd5b600084815260036020908152604080832080546001810182559084529282902090920180546001600160a01b0319166001600160a01b038716908117909155915133815286917f409bccc07b7cf7807930526a24318212d614c59f2dde05a017a41efee144e7c89101610791565b80610e7b57610e7b848484610cfd565b6000546001600160a01b031633146107b15760405163118cdaa760e01b8152336004820152602401610ce8565b600080546001600160a01b038381166001600160a01b0319831681178455604051919092169283917f8be0079c531659141344cd1fd0a4f28419497f9722a3daafe3b4186f6b6457e09190a35050565b82805482825590600052602060002090810192821561111a579160200282015b8281111561111a5781546001600160a01b0319166001600160a01b038435161782556020909201916001909101906110e7565b5061112692915061112a565b5090565b5b80821115611126576000815560010161112b565b60006020828403121561115157600080fd5b5035919050565b6001600160a01b0381168114610cfa57600080fd5b60008060006060848603121561118257600080fd5b83359250602084013561119481611158565b915060408401356111a481611158565b809150509250925092565b600080604083850312156111c257600080fd5b8235915060208301356111d481611158565b809150509250929050565b6000806000604084860312156111f457600080fd5b83359250602084013567ffffffffffffffff8082111561121357600080fd5b818601915086601f83011261122757600080fd5b81358181111561123657600080fd5b8760208260051b850101111561124b57600080fd5b6020830194508093505050509250925092565b8015158114610cfa57600080fd5b6000806040838503121561127f57600080fd5b823561128a81611158565b915060208301356111d48161125e565b6000602082840312156112ac57600080fd5b81356112b781611158565b9392505050565b6020808252825182820181905260009190848201906040850190845b818110156112ff5783516001600160a01b0316835292840192918401916001016112da565b50909695505050505050565b60006020828403121561131d57600080fd5b81516112b781611158565b60006060828403121561133a57600080fd5b6040516060810181811067ffffffffffffffff8211171561136b57634e487b7160e01b600052604160045260246000fd5b604052825161137981611158565b8152602083015160ff8116811461138f57600080fd5b6020820152604083015163ffffffff811681146113ab57600080fd5b60408201529392505050565b634e487b7160e01b600052603260045260246000fd5b6000602082840312156113df57600080fd5b5051919050565b6000602082840312156113f857600080fd5b81516112b78161125e565b8082018082111561049e57634e487b7160e01b600052601160045260246000fd5b6040808252810183905260008460608301825b8681101561146757823561144a81611158565b6001600160a01b0316825260209283019290910190600101611437565b506001600160a01b0394909416602093909301929092525090939250505056fea2646970667358221220455485ce740f4c22d038bc8eb16abf44a5aa16a859605afc7a452fc8fb1082bb64736f6c63430008170033",
			"deployedBytecode": "0x608060405234801561001057600080fd5b50600436106100ea5760003560e01c8063862026501161008c578063c5664e2111610066578063c5664e21146101f9578063d17541531461021c578063f2fde38b1461023c578063f434c9141461024f57600080fd5b806386202650146101c25780638da5cb5b146101d5578063a1ed3175146101e657600080fd5b80636e49181f116100c85780636e49181f14610171578063714e7f3214610194578063715018a6146101a7578063821b9fd8146101af57600080fd5b8063293c4999146100ef5780635dd8f6aa1461013357806363d0850a1461015c575b600080fd5b6101167f0000000000000000000000005e8a3b68ad51e2ae55e5d7215e9e59bc0f66e33f81565b6040516001600160a01b0390911681526020015b60405180910390f35b61011661014136600461113f565b6001602052600090815260409020546001600160a01b031681565b61016f61016a36600461116d565b610276565b005b61018461017f3660046111af565b610425565b604051901515815260200161012a565b61016f6101a23660046111af565b6104a4565b61016f61079f565b61016f6101bd3660046111df565b6107b3565b6101166101d03660046111af565b610ab8565b6000546001600160a01b0316610116565b61016f6101f436600461126c565b610be4565b61018461020736600461129a565b60026020526000908152604090205460ff1681565b61022f61022a36600461113f565b610c4e565b60405161012a91906112be565b61016f61024a36600461129a565b610cba565b6101167f000000000000000000000000625e7bce20bce80d426384c38831f92d453fbf2981565b6040516331a9108f60e11b81526004810184905261030b907f0000000000000000000000005e8a3b68ad51e2ae55e5d7215e9e59bc0f66e33f6001600160a01b031690636352211e90602401602060405180830381865afa1580156102df573d6000803e3d6000fd5b505050506040513d601f19601f82011682018060405250810190610303919061130b565b846010610cfd565b604051633a01714f60e01b8152600481018490526001600160a01b03838116602483015260009190831690633a01714f90604401606060405180830381865afa15801561035c573d6000803e3d6000fd5b505050506040513d601f19601f820116820180604052508101906103809190611328565b516001600160a01b0316036103a857604051630faa917b60e11b815260040160405180910390fd5b6103b28382610e81565b60008381526004602090815260408083206001600160a01b038681168086529184529382902080546001600160a01b03191694861694851790559051338152909186917fc670a502bbb9f8a4315f95eca901a9f99b65f89a2eb5705a58050e5c00f9d672910160405180910390a4505050565b600082815260036020526040812054815b8181101561049757600085815260036020526040902080546001600160a01b03861691908390811061046a5761046a6113b7565b6000918252602090912001546001600160a01b03160361048f5760019250505061049e565b600101610436565b5060009150505b92915050565b6040516331a9108f60e11b81526004810183905261056f907f0000000000000000000000005e8a3b68ad51e2ae55e5d7215e9e59bc0f66e33f6001600160a01b031690636352211e90602401602060405180830381865afa15801561050d573d6000803e3d6000fd5b505050506040513d601f19601f82011682018060405250810190610531919061130b565b336000908152600260205260409020548490600e9060ff16801561056a57506000868152600160205260409020546001600160a01b0316155b61103a565b817f0000000000000000000000005e8a3b68ad51e2ae55e5d7215e9e59bc0f66e33f6001600160a01b03166306661abd6040518163ffffffff1660e01b8152600401602060405180830381865afa1580156105ce573d6000803e3d6000fd5b505050506040513d601f19601f820116820180604052508101906105f291906113cd565b101561061157604051634a283a5360e11b815260040160405180910390fd5b6000828152600160205260408120546001600160a01b0316908115806106a357506040516301ffc9a760e01b8152632877540760e01b60048201526001600160a01b038316906301ffc9a790602401602060405180830381865afa15801561067d573d6000803e3d6000fd5b505050506040513d601f19601f820116820180604052508101906106a191906113e6565b155b61071557604051632674968d60e21b8152600481018590526001600160a01b038316906399d25a3490602401602060405180830381865afa1580156106ec573d6000803e3d6000fd5b505050506040513d601f19601f8201168201806040525081019061071091906113e6565b610718565b60015b9050806107385760405163a33db4cb60e01b815260040160405180910390fd5b60008481526001602090815260409182902080546001600160a01b0319166001600160a01b038716908117909155915133815286917f7f9a7dcb234c909a09de2f344661ad9e5b24067adb97c908647c2edcbb121c3091015b60405180910390a350505050565b6107a761104a565b6107b16000611077565b565b6040516331a9108f60e11b815260048101849052610864907f0000000000000000000000005e8a3b68ad51e2ae55e5d7215e9e59bc0f66e33f6001600160a01b031690636352211e90602401602060405180830381865afa15801561081c573d6000803e3d6000fd5b505050506040513d601f19601f82011682018060405250810190610840919061130b565b6000858152600160205260409020548590600f906001600160a01b0316331461103a565b6000838152600160205260408082205490516301ffc9a760e01b8152632877540760e01b60048201526001600160a01b03909116919082906301ffc9a790602401602060405180830381865afa1580156108c2573d6000803e3d6000fd5b505050506040513d601f19601f820116820180604052508101906108e691906113e6565b1580610956575060405163b1a50e3360e01b8152600481018690526001600160a01b0383169063b1a50e3390602401602060405180830381865afa158015610932573d6000803e3d6000fd5b505050506040513d601f19601f8201168201806040525081019061095691906113e6565b6000868152600160205260409020549091506001600160a01b0316331480159061097e575080155b1561099c576040516375fef35f60e11b815260040160405180910390fd5b60008581526003602052604090206109b59085856110c7565b50826001811115610a745760005b81811015610a725760006109d8826001611403565b90505b82811015610a69578686828181106109f5576109f56113b7565b9050602002016020810190610a0a919061129a565b6001600160a01b0316878784818110610a2557610a256113b7565b9050602002016020810190610a3a919061129a565b6001600160a01b031603610a6157604051633e3830ab60e11b815260040160405180910390fd5b6001016109db565b506001016109c3565b505b857fb648241d83df6540fc10f2acc641e4bf80a1e84e7ae2f1f6b0ad204b8fee635b868633604051610aa893929190611424565b60405180910390a2505050505050565b60008281526004602090815260408083206001600160a01b0380861685529252822054168015801590610af05750610af08482610425565b15610afc57905061049e565b600084815260036020526040812054905b81811015610bd8576000868152600360205260408120805483908110610b3557610b356113b7565b6000918252602082200154604051633a01714f60e01b8152600481018a90526001600160a01b03898116602483015290911692508290633a01714f90604401606060405180830381865afa158015610b91573d6000803e3d6000fd5b505050506040513d601f19601f82011682018060405250810190610bb59190611328565b516001600160a01b031614610bcf57935061049e92505050565b50600101610b0d565b50600095945050505050565b610bec61104a565b6001600160a01b038216600081815260026020908152604091829020805460ff191685151590811790915591513381529192917f11207664cc48b0fa81c8674795f1d8f642960f38d5d2d305ad813093bed85fab910160405180910390a35050565b600081815260036020908152604091829020805483518184028101840190945280845260609392830182828015610cae57602002820191906000526020600020905b81546001600160a01b03168152600190910190602001808311610c90575b50505050509050919050565b610cc261104a565b6001600160a01b038116610cf157604051631e4fbdf760e01b8152600060048201526024015b60405180910390fd5b610cfa81611077565b50565b336001600160a01b0384168114801590610db4575060405163c161c93f60e01b81526001600160a01b038281166004830152858116602483015260448201859052606482018490527f000000000000000000000000625e7bce20bce80d426384c38831f92d453fbf29169063c161c93f90608401602060405180830381865afa158015610d8e573d6000803e3d6000fd5b505050506040513d601f19601f82011682018060405250810190610db291906113e6565b155b8015610e5d575060405163c161c93f60e01b81526001600160a01b038281166004830152858116602483015260006044830152606482018490527f000000000000000000000000625e7bce20bce80d426384c38831f92d453fbf29169063c161c93f90608401602060405180830381865afa158015610e37573d6000803e3d6000fd5b505050506040513d601f19601f82011682018060405250810190610e5b91906113e6565b155b15610e7b5760405163075fd2b160e01b815260040160405180910390fd5b50505050565b610e8b8282610425565b15610e94575050565b6000828152600160205260408082205490516301ffc9a760e01b8152632877540760e01b60048201526001600160a01b03909116919082906301ffc9a790602401602060405180830381865afa158015610ef2573d6000803e3d6000fd5b505050506040513d601f19601f82011682018060405250810190610f1691906113e6565b1580610f86575060405163b1a50e3360e01b8152600481018590526001600160a01b0383169063b1a50e3390602401602060405180830381865afa158015610f62573d6000803e3d6000fd5b505050506040513d601f19601f82011682018060405250810190610f8691906113e6565b6000858152600160205260409020549091506001600160a01b03163314801590610fae575080155b15610fcc576040516375fef35f60e11b815260040160405180910390fd5b600084815260036020908152604080832080546001810182559084529282902090920180546001600160a01b0319166001600160a01b038716908117909155915133815286917f409bccc07b7cf7807930526a24318212d614c59f2dde05a017a41efee144e7c89101610791565b80610e7b57610e7b848484610cfd565b6000546001600160a01b031633146107b15760405163118cdaa760e01b8152336004820152602401610ce8565b600080546001600160a01b038381166001600160a01b0319831681178455604051919092169283917f8be0079c531659141344cd1fd0a4f28419497f9722a3daafe3b4186f6b6457e09190a35050565b82805482825590600052602060002090810192821561111a579160200282015b8281111561111a5781546001600160a01b0319166001600160a01b038435161782556020909201916001909101906110e7565b5061112692915061112a565b5090565b5b80821115611126576000815560010161112b565b60006020828403121561115157600080fd5b5035919050565b6001600160a01b0381168114610cfa57600080fd5b60008060006060848603121561118257600080fd5b83359250602084013561119481611158565b915060408401356111a481611158565b809150509250925092565b600080604083850312156111c257600080fd5b8235915060208301356111d481611158565b809150509250929050565b6000806000604084860312156111f457600080fd5b83359250602084013567ffffffffffffffff8082111561121357600080fd5b818601915086601f83011261122757600080fd5b81358181111561123657600080fd5b8760208260051b850101111561124b57600080fd5b6020830194508093505050509250925092565b8015158114610cfa57600080fd5b6000806040838503121561127f57600080fd5b823561128a81611158565b915060208301356111d48161125e565b6000602082840312156112ac57600080fd5b81356112b781611158565b9392505050565b6020808252825182820181905260009190848201906040850190845b818110156112ff5783516001600160a01b0316835292840192918401916001016112da565b50909695505050505050565b60006020828403121561131d57600080fd5b81516112b781611158565b60006060828403121561133a57600080fd5b6040516060810181811067ffffffffffffffff8211171561136b57634e487b7160e01b600052604160045260246000fd5b604052825161137981611158565b8152602083015160ff8116811461138f57600080fd5b6020820152604083015163ffffffff811681146113ab57600080fd5b60408201529392505050565b634e487b7160e01b600052603260045260246000fd5b6000602082840312156113df57600080fd5b5051919050565b6000602082840312156113f857600080fd5b81516112b78161125e565b8082018082111561049e57634e487b7160e01b600052601160045260246000fd5b6040808252810183905260008460608301825b8681101561146757823561144a81611158565b6001600160a01b0316825260209283019290910190600101611437565b506001600160a01b0394909416602093909301929092525090939250505056fea2646970667358221220455485ce740f4c22d038bc8eb16abf44a5aa16a859605afc7a452fc8fb1082bb64736f6c63430008170033",
			"devdoc": {
				"kind": "dev",
				"methods": {
					"constructor": {
						"params": {
							"owner": "The address that will own the contract.",
							"permissions": "A contract storing permissions.",
							"projects": "A contract which mints ERC-721s that represent project ownership and transfers."
						}
					},
					"isTerminalOf(uint256,address)": {
						"params": {
							"projectId": "The ID of the project to check for the terminal.",
							"terminal": "The address of the terminal to check for."
						},
						"returns": {
							"_0": "A flag indicating whether or not the specified terminal is a terminal of the specified project."
						}
					},
					"owner()": {
						"details": "Returns the address of the current owner."
					},
					"primaryTerminalOf(uint256,address)": {
						"details": "The zero address is returned if a terminal isn't found for the specified token.",
						"params": {
							"projectId": "The ID of the project to get the primary terminal of.",
							"token": "The token the terminal accepts."
						},
						"returns": {
							"_0": "The address of the primary terminal for the specified project and token."
						}
					},
					"renounceOwnership()": {
						"details": "Leaves the contract without owner. It will not be possible to call `onlyOwner` functions. Can only be called by the current owner. NOTE: Renouncing ownership will leave the contract without an owner, thereby disabling any functionality that is only available to the owner."
					},
					"setControllerOf(uint256,address)": {
						"details": "A controller can be set if:- The project's ruleset allows setting the controller, and the message sender is the project owner or an operator with the `SET_CONTROLLER` permission from them.- OR the message sender is the project's current controller.- OR an allowedlisted address is setting a controller for a project that doesn't already have a controller.",
						"params": {
							"controller": "The address of the new controller to set for the project.",
							"projectId": "The ID of the project to set the controller of."
						}
					},
					"setIsAllowedToSetFirstController(address,bool)": {
						"details": "Only this contract's owner can call this function.These addresses are known and vetted controllers as well as contracts designed to launch new projects.A project can set its own controller without being on the allow list.If you would like an address/contract allowlisted, please reach out to the contract owner.",
						"params": {
							"addr": "The address to allow or not allow.",
							"flag": "Whether the address is allowed or not allowed to set first controllers for projects. Use `true` to allow and `false` to not allow."
						}
					},
					"setPrimaryTerminalOf(uint256,address,address)": {
						"details": "The primary terminal is where a token should be routed to by default.This is useful in case a project has several terminals connected for a particular token.If setting a newly added terminal and the ruleset doesn't allow new terminals, the caller must be the current controller.",
						"params": {
							"projectId": "The ID of the project a primary token is being set for.",
							"terminal": "The terminal to make the primary terminal for the project and token.",
							"token": "The token to set the primary terminal for."
						}
					},
					"setTerminalsOf(uint256,address[])": {
						"details": "Only a project's owner, an operator with the `SET_TERMINALS` permission from the owner, or the project's controller can set its terminals.Unless the caller is the project's controller, the project's ruleset must allow setting terminals.",
						"params": {
							"projectId": "The ID of the project to set terminals for.",
							"terminals": "An array of terminal addresses to set for the project."
						}
					},
					"terminalsOf(uint256)": {
						"params": {
							"projectId": "The ID of the project to get the terminals of."
						},
						"returns": {
							"_0": "An array of terminal addresses."
						}
					},
					"transferOwnership(address)": {
						"details": "Transfers ownership of the contract to a new account (`newOwner`). Can only be called by the current owner."
					}
				},
				"version": 1
			},
			"userdoc": {
				"kind": "user",
				"methods": {
					"PERMISSIONS()": {
						"notice": "A contract storing permissions."
					},
					"PROJECTS()": {
						"notice": "Mints ERC-721s that represent project ownership and transfers."
					},
					"controllerOf(uint256)": {
						"notice": "The controller, which dictates how terminals interact with tokens and rulesets, for a given project ID."
					},
					"isAllowedToSetFirstController(address)": {
						"notice": "Addresses allowed to set a project's first controller on their behalf. These addresses/contracts have been vetted and verified by this contract's owner."
					},
					"isTerminalOf(uint256,address)": {
						"notice": "Check if a specified project uses a specified terminal."
					},
					"primaryTerminalOf(uint256,address)": {
						"notice": "The primary terminal that a project is using to manage a specified token."
					},
					"setControllerOf(uint256,address)": {
						"notice": "Set a project's controller. Controllers manage how terminals interact with tokens and rulesets."
					},
					"setIsAllowedToSetFirstController(address,bool)": {
						"notice": "Add an address/contract to the list of trusted addresses which are allowed to set a first controller for projects."
					},
					"setPrimaryTerminalOf(uint256,address,address)": {
						"notice": "Set a project's primary terminal for a particular token."
					},
					"setTerminalsOf(uint256,address[])": {
						"notice": "Set a project's terminals."
					},
					"terminalsOf(uint256)": {
						"notice": "For  given project ID, the terminals which are currently managing that project's funds."
					}
				},
				"version": 1
			},
			"gitCommit": "23e7dfead2a66e76f5e7c501a807ff78b09b92c3",
			"sourceName": "src/JBDirectory.sol",
			"chainId": "11155111",
			"linkReferences": {},
			"deployedLinkReferences": {}
		},
		{
			"_format": "sphinx-sol-ct-artifact-1",
			"merkleRoot": "0x9e0e602421b8af18b231044c4a9fcd3210b88a991260bd2d68511776273418b9",
			"contractName": "JBDirectory",
			"address": "0x6A6988E79a621Fc7Ea74D67a31E9cefCcC98e949",
			"abi": [
				{
					"type": "constructor",
					"inputs": [
						{
							"name": "permissions",
							"type": "address",
							"internalType": "contract IJBPermissions"
						},
						{
							"name": "projects",
							"type": "address",
							"internalType": "contract IJBProjects"
						},
						{
							"name": "owner",
							"type": "address",
							"internalType": "address"
						}
					],
					"stateMutability": "nonpayable"
				},
				{
					"type": "function",
					"name": "PERMISSIONS",
					"inputs": [],
					"outputs": [
						{
							"name": "",
							"type": "address",
							"internalType": "contract IJBPermissions"
						}
					],
					"stateMutability": "view"
				},
				{
					"type": "function",
					"name": "PROJECTS",
					"inputs": [],
					"outputs": [
						{
							"name": "",
							"type": "address",
							"internalType": "contract IJBProjects"
						}
					],
					"stateMutability": "view"
				},
				{
					"type": "function",
					"name": "controllerOf",
					"inputs": [
						{
							"name": "projectId",
							"type": "uint256",
							"internalType": "uint256"
						}
					],
					"outputs": [
						{
							"name": "",
							"type": "address",
							"internalType": "contract IERC165"
						}
					],
					"stateMutability": "view"
				},
				{
					"type": "function",
					"name": "isAllowedToSetFirstController",
					"inputs": [
						{
							"name": "addr",
							"type": "address",
							"internalType": "address"
						}
					],
					"outputs": [
						{
							"name": "",
							"type": "bool",
							"internalType": "bool"
						}
					],
					"stateMutability": "view"
				},
				{
					"type": "function",
					"name": "isTerminalOf",
					"inputs": [
						{
							"name": "projectId",
							"type": "uint256",
							"internalType": "uint256"
						},
						{
							"name": "terminal",
							"type": "address",
							"internalType": "contract IJBTerminal"
						}
					],
					"outputs": [
						{
							"name": "",
							"type": "bool",
							"internalType": "bool"
						}
					],
					"stateMutability": "view"
				},
				{
					"type": "function",
					"name": "owner",
					"inputs": [],
					"outputs": [
						{
							"name": "",
							"type": "address",
							"internalType": "address"
						}
					],
					"stateMutability": "view"
				},
				{
					"type": "function",
					"name": "primaryTerminalOf",
					"inputs": [
						{
							"name": "projectId",
							"type": "uint256",
							"internalType": "uint256"
						},
						{
							"name": "token",
							"type": "address",
							"internalType": "address"
						}
					],
					"outputs": [
						{
							"name": "",
							"type": "address",
							"internalType": "contract IJBTerminal"
						}
					],
					"stateMutability": "view"
				},
				{
					"type": "function",
					"name": "renounceOwnership",
					"inputs": [],
					"outputs": [],
					"stateMutability": "nonpayable"
				},
				{
					"type": "function",
					"name": "setControllerOf",
					"inputs": [
						{
							"name": "projectId",
							"type": "uint256",
							"internalType": "uint256"
						},
						{
							"name": "controller",
							"type": "address",
							"internalType": "contract IERC165"
						}
					],
					"outputs": [],
					"stateMutability": "nonpayable"
				},
				{
					"type": "function",
					"name": "setIsAllowedToSetFirstController",
					"inputs": [
						{
							"name": "addr",
							"type": "address",
							"internalType": "address"
						},
						{
							"name": "flag",
							"type": "bool",
							"internalType": "bool"
						}
					],
					"outputs": [],
					"stateMutability": "nonpayable"
				},
				{
					"type": "function",
					"name": "setPrimaryTerminalOf",
					"inputs": [
						{
							"name": "projectId",
							"type": "uint256",
							"internalType": "uint256"
						},
						{
							"name": "token",
							"type": "address",
							"internalType": "address"
						},
						{
							"name": "terminal",
							"type": "address",
							"internalType": "contract IJBTerminal"
						}
					],
					"outputs": [],
					"stateMutability": "nonpayable"
				},
				{
					"type": "function",
					"name": "setTerminalsOf",
					"inputs": [
						{
							"name": "projectId",
							"type": "uint256",
							"internalType": "uint256"
						},
						{
							"name": "terminals",
							"type": "address[]",
							"internalType": "contract IJBTerminal[]"
						}
					],
					"outputs": [],
					"stateMutability": "nonpayable"
				},
				{
					"type": "function",
					"name": "terminalsOf",
					"inputs": [
						{
							"name": "projectId",
							"type": "uint256",
							"internalType": "uint256"
						}
					],
					"outputs": [
						{
							"name": "",
							"type": "address[]",
							"internalType": "contract IJBTerminal[]"
						}
					],
					"stateMutability": "view"
				},
				{
					"type": "function",
					"name": "transferOwnership",
					"inputs": [
						{
							"name": "newOwner",
							"type": "address",
							"internalType": "address"
						}
					],
					"outputs": [],
					"stateMutability": "nonpayable"
				},
				{
					"type": "event",
					"name": "AddTerminal",
					"inputs": [
						{
							"name": "projectId",
							"type": "uint256",
							"indexed": true,
							"internalType": "uint256"
						},
						{
							"name": "terminal",
							"type": "address",
							"indexed": true,
							"internalType": "contract IJBTerminal"
						},
						{
							"name": "caller",
							"type": "address",
							"indexed": false,
							"internalType": "address"
						}
					],
					"anonymous": false
				},
				{
					"type": "event",
					"name": "OwnershipTransferred",
					"inputs": [
						{
							"name": "previousOwner",
							"type": "address",
							"indexed": true,
							"internalType": "address"
						},
						{
							"name": "newOwner",
							"type": "address",
							"indexed": true,
							"internalType": "address"
						}
					],
					"anonymous": false
				},
				{
					"type": "event",
					"name": "SetController",
					"inputs": [
						{
							"name": "projectId",
							"type": "uint256",
							"indexed": true,
							"internalType": "uint256"
						},
						{
							"name": "controller",
							"type": "address",
							"indexed": true,
							"internalType": "contract IERC165"
						},
						{
							"name": "caller",
							"type": "address",
							"indexed": false,
							"internalType": "address"
						}
					],
					"anonymous": false
				},
				{
					"type": "event",
					"name": "SetIsAllowedToSetFirstController",
					"inputs": [
						{
							"name": "addr",
							"type": "address",
							"indexed": true,
							"internalType": "address"
						},
						{
							"name": "flag",
							"type": "bool",
							"indexed": true,
							"internalType": "bool"
						},
						{
							"name": "caller",
							"type": "address",
							"indexed": false,
							"internalType": "address"
						}
					],
					"anonymous": false
				},
				{
					"type": "event",
					"name": "SetPrimaryTerminal",
					"inputs": [
						{
							"name": "projectId",
							"type": "uint256",
							"indexed": true,
							"internalType": "uint256"
						},
						{
							"name": "token",
							"type": "address",
							"indexed": true,
							"internalType": "address"
						},
						{
							"name": "terminal",
							"type": "address",
							"indexed": true,
							"internalType": "contract IJBTerminal"
						},
						{
							"name": "caller",
							"type": "address",
							"indexed": false,
							"internalType": "address"
						}
					],
					"anonymous": false
				},
				{
					"type": "event",
					"name": "SetTerminals",
					"inputs": [
						{
							"name": "projectId",
							"type": "uint256",
							"indexed": true,
							"internalType": "uint256"
						},
						{
							"name": "terminals",
							"type": "address[]",
							"indexed": false,
							"internalType": "contract IJBTerminal[]"
						},
						{
							"name": "caller",
							"type": "address",
							"indexed": false,
							"internalType": "address"
						}
					],
					"anonymous": false
				},
				{
					"type": "error",
					"name": "DUPLICATE_TERMINALS",
					"inputs": []
				},
				{
					"type": "error",
					"name": "INVALID_PROJECT_ID_IN_DIRECTORY",
					"inputs": []
				},
				{
					"type": "error",
					"name": "OwnableInvalidOwner",
					"inputs": [
						{
							"name": "owner",
							"type": "address",
							"internalType": "address"
						}
					]
				},
				{
					"type": "error",
					"name": "OwnableUnauthorizedAccount",
					"inputs": [
						{
							"name": "account",
							"type": "address",
							"internalType": "address"
						}
					]
				},
				{
					"type": "error",
					"name": "SET_CONTROLLER_NOT_ALLOWED",
					"inputs": []
				},
				{
					"type": "error",
					"name": "SET_TERMINALS_NOT_ALLOWED",
					"inputs": []
				},
				{
					"type": "error",
					"name": "TOKEN_NOT_ACCEPTED",
					"inputs": []
				},
				{
					"type": "error",
					"name": "UNAUTHORIZED",
					"inputs": []
				}
			],
			"solcInputHash": "72b97eca88a7a2645b499cd15964090b",
			"receipt": {
				"blockHash": "0xacdbc6a9d760a6f21638fae13879b576cb3457993fc0f438954533a64433e431",
				"blockNumber": 5520515,
				"contractAddress": null,
				"cumulativeGasUsed": "14534019",
				"from": "0xC034550B542b83BA1De312b21d1C94a9a52B1595",
				"gasPrice": "1028577559",
				"gasUsed": "10922811",
				"hash": "0xdcf9d50f957c6e617de104398a443f0d5f4cb19b944bd08e94099f549b0a9b84",
				"index": 26,
				"logs": [
					{
						"address": "0xB5E96127D417b1B3ef8438496a38A143167209c7",
						"blockHash": "0xacdbc6a9d760a6f21638fae13879b576cb3457993fc0f438954533a64433e431",
						"blockNumber": 5520515,
						"data": "0x0000000000000000000000000000000000000000000000000000000000000000",
						"index": 60,
						"topics": [
							"0x572f161235911da04685a68c06adf558fc7e4a36909dca394650e0adc19cc93d",
							"0x000000000000000000000000c034550b542b83ba1de312b21d1c94a9a52b1595",
							"0x000000000000000000000000ef1be3c049809cace5bc203bbe4ec1ab284bf75c",
							"0xe826203c2859bde3a8661b238aebd461062cefb408003fca44a42cc6ff53a0c8"
						],
						"transactionHash": "0xdcf9d50f957c6e617de104398a443f0d5f4cb19b944bd08e94099f549b0a9b84",
						"transactionIndex": 26
					},
					{
						"address": "0x1081B5AA9D9d4862A3dA4d469433FB36Ed80FA2A",
						"blockHash": "0xacdbc6a9d760a6f21638fae13879b576cb3457993fc0f438954533a64433e431",
						"blockNumber": 5520515,
						"data": "0x000000000000000000000000a1ba58fca530d0b011646167c9eb81f54d9c9df6",
						"index": 61,
						"topics": [
							"0x4db17dd5e4732fb6da34a148104a592783ca119a1e7bb8829eba6cbadef0b511"
						],
						"transactionHash": "0xdcf9d50f957c6e617de104398a443f0d5f4cb19b944bd08e94099f549b0a9b84",
						"transactionIndex": 26
					},
					{
						"address": "0x1081B5AA9D9d4862A3dA4d469433FB36Ed80FA2A",
						"blockHash": "0xacdbc6a9d760a6f21638fae13879b576cb3457993fc0f438954533a64433e431",
						"blockNumber": 5520515,
						"data": "0x",
						"index": 62,
						"topics": [
							"0x6895c13664aa4f67288b25d7a21d7aaa34916e355fb9b6fae0a139a9085becb8",
							"0x000000000000000000000000ef1be3c049809cace5bc203bbe4ec1ab284bf75c"
						],
						"transactionHash": "0xdcf9d50f957c6e617de104398a443f0d5f4cb19b944bd08e94099f549b0a9b84",
						"transactionIndex": 26
					},
					{
						"address": "0xEf1Be3C049809caCe5Bc203BBe4Ec1Ab284bF75c",
						"blockHash": "0xacdbc6a9d760a6f21638fae13879b576cb3457993fc0f438954533a64433e431",
						"blockNumber": 5520515,
						"data": "0x0000000000000000000000000000000000000000000000000000000000000001",
						"index": 63,
						"topics": [
							"0xa65fb05c5808f5f389d72edeaf719ce38f4cc55c1f69ca3cbfb31c21501caa07",
							"0x9e0e602421b8af18b231044c4a9fcd3210b88a991260bd2d68511776273418b9"
						],
						"transactionHash": "0xdcf9d50f957c6e617de104398a443f0d5f4cb19b944bd08e94099f549b0a9b84",
						"transactionIndex": 26
					},
					{
						"address": "0x45452B26fe78D2b83247279F87c847F4F4A8FCEb",
						"blockHash": "0xacdbc6a9d760a6f21638fae13879b576cb3457993fc0f438954533a64433e431",
						"blockNumber": 5520515,
						"data": "0x",
						"index": 64,
						"topics": [
							"0x8be0079c531659141344cd1fd0a4f28419497f9722a3daafe3b4186f6b6457e0",
							"0x0000000000000000000000000000000000000000000000000000000000000000",
							"0x000000000000000000000000823b92d6a4b2aed4b15675c7917c9f922ea8adad"
						],
						"transactionHash": "0xdcf9d50f957c6e617de104398a443f0d5f4cb19b944bd08e94099f549b0a9b84",
						"transactionIndex": 26
					},
					{
						"address": "0x1081B5AA9D9d4862A3dA4d469433FB36Ed80FA2A",
						"blockHash": "0xacdbc6a9d760a6f21638fae13879b576cb3457993fc0f438954533a64433e431",
						"blockNumber": 5520515,
						"data": "0x00000000000000000000000045452b26fe78d2b83247279f87c847f4f4a8fceb",
						"index": 65,
						"topics": [
							"0x4db17dd5e4732fb6da34a148104a592783ca119a1e7bb8829eba6cbadef0b511"
						],
						"transactionHash": "0xdcf9d50f957c6e617de104398a443f0d5f4cb19b944bd08e94099f549b0a9b84",
						"transactionIndex": 26
					},
					{
						"address": "0x1081B5AA9D9d4862A3dA4d469433FB36Ed80FA2A",
						"blockHash": "0xacdbc6a9d760a6f21638fae13879b576cb3457993fc0f438954533a64433e431",
						"blockNumber": 5520515,
						"data": "0x",
						"index": 66,
						"topics": [
							"0x6895c13664aa4f67288b25d7a21d7aaa34916e355fb9b6fae0a139a9085becb8",
							"0x000000000000000000000000ef1be3c049809cace5bc203bbe4ec1ab284bf75c"
						],
						"transactionHash": "0xdcf9d50f957c6e617de104398a443f0d5f4cb19b944bd08e94099f549b0a9b84",
						"transactionIndex": 26
					},
					{
						"address": "0xEf1Be3C049809caCe5Bc203BBe4Ec1Ab284bF75c",
						"blockHash": "0xacdbc6a9d760a6f21638fae13879b576cb3457993fc0f438954533a64433e431",
						"blockNumber": 5520515,
						"data": "0x0000000000000000000000000000000000000000000000000000000000000002",
						"index": 67,
						"topics": [
							"0xa65fb05c5808f5f389d72edeaf719ce38f4cc55c1f69ca3cbfb31c21501caa07",
							"0x9e0e602421b8af18b231044c4a9fcd3210b88a991260bd2d68511776273418b9"
						],
						"transactionHash": "0xdcf9d50f957c6e617de104398a443f0d5f4cb19b944bd08e94099f549b0a9b84",
						"transactionIndex": 26
					},
					{
						"address": "0x6A6988E79a621Fc7Ea74D67a31E9cefCcC98e949",
						"blockHash": "0xacdbc6a9d760a6f21638fae13879b576cb3457993fc0f438954533a64433e431",
						"blockNumber": 5520515,
						"data": "0x",
						"index": 68,
						"topics": [
							"0x8be0079c531659141344cd1fd0a4f28419497f9722a3daafe3b4186f6b6457e0",
							"0x0000000000000000000000000000000000000000000000000000000000000000",
							"0x0000000000000000000000001081b5aa9d9d4862a3da4d469433fb36ed80fa2a"
						],
						"transactionHash": "0xdcf9d50f957c6e617de104398a443f0d5f4cb19b944bd08e94099f549b0a9b84",
						"transactionIndex": 26
					},
					{
						"address": "0x1081B5AA9D9d4862A3dA4d469433FB36Ed80FA2A",
						"blockHash": "0xacdbc6a9d760a6f21638fae13879b576cb3457993fc0f438954533a64433e431",
						"blockNumber": 5520515,
						"data": "0x0000000000000000000000006a6988e79a621fc7ea74d67a31e9cefccc98e949",
						"index": 69,
						"topics": [
							"0x4db17dd5e4732fb6da34a148104a592783ca119a1e7bb8829eba6cbadef0b511"
						],
						"transactionHash": "0xdcf9d50f957c6e617de104398a443f0d5f4cb19b944bd08e94099f549b0a9b84",
						"transactionIndex": 26
					},
					{
						"address": "0x1081B5AA9D9d4862A3dA4d469433FB36Ed80FA2A",
						"blockHash": "0xacdbc6a9d760a6f21638fae13879b576cb3457993fc0f438954533a64433e431",
						"blockNumber": 5520515,
						"data": "0x",
						"index": 70,
						"topics": [
							"0x6895c13664aa4f67288b25d7a21d7aaa34916e355fb9b6fae0a139a9085becb8",
							"0x000000000000000000000000ef1be3c049809cace5bc203bbe4ec1ab284bf75c"
						],
						"transactionHash": "0xdcf9d50f957c6e617de104398a443f0d5f4cb19b944bd08e94099f549b0a9b84",
						"transactionIndex": 26
					},
					{
						"address": "0xEf1Be3C049809caCe5Bc203BBe4Ec1Ab284bF75c",
						"blockHash": "0xacdbc6a9d760a6f21638fae13879b576cb3457993fc0f438954533a64433e431",
						"blockNumber": 5520515,
						"data": "0x0000000000000000000000000000000000000000000000000000000000000003",
						"index": 71,
						"topics": [
							"0xa65fb05c5808f5f389d72edeaf719ce38f4cc55c1f69ca3cbfb31c21501caa07",
							"0x9e0e602421b8af18b231044c4a9fcd3210b88a991260bd2d68511776273418b9"
						],
						"transactionHash": "0xdcf9d50f957c6e617de104398a443f0d5f4cb19b944bd08e94099f549b0a9b84",
						"transactionIndex": 26
					},
					{
						"address": "0x1081B5AA9D9d4862A3dA4d469433FB36Ed80FA2A",
						"blockHash": "0xacdbc6a9d760a6f21638fae13879b576cb3457993fc0f438954533a64433e431",
						"blockNumber": 5520515,
						"data": "0x00000000000000000000000059dd264e125b22fb1a6a72f943982b132253dfff",
						"index": 72,
						"topics": [
							"0x4db17dd5e4732fb6da34a148104a592783ca119a1e7bb8829eba6cbadef0b511"
						],
						"transactionHash": "0xdcf9d50f957c6e617de104398a443f0d5f4cb19b944bd08e94099f549b0a9b84",
						"transactionIndex": 26
					},
					{
						"address": "0x1081B5AA9D9d4862A3dA4d469433FB36Ed80FA2A",
						"blockHash": "0xacdbc6a9d760a6f21638fae13879b576cb3457993fc0f438954533a64433e431",
						"blockNumber": 5520515,
						"data": "0x",
						"index": 73,
						"topics": [
							"0x6895c13664aa4f67288b25d7a21d7aaa34916e355fb9b6fae0a139a9085becb8",
							"0x000000000000000000000000ef1be3c049809cace5bc203bbe4ec1ab284bf75c"
						],
						"transactionHash": "0xdcf9d50f957c6e617de104398a443f0d5f4cb19b944bd08e94099f549b0a9b84",
						"transactionIndex": 26
					},
					{
						"address": "0xEf1Be3C049809caCe5Bc203BBe4Ec1Ab284bF75c",
						"blockHash": "0xacdbc6a9d760a6f21638fae13879b576cb3457993fc0f438954533a64433e431",
						"blockNumber": 5520515,
						"data": "0x0000000000000000000000000000000000000000000000000000000000000004",
						"index": 74,
						"topics": [
							"0xa65fb05c5808f5f389d72edeaf719ce38f4cc55c1f69ca3cbfb31c21501caa07",
							"0x9e0e602421b8af18b231044c4a9fcd3210b88a991260bd2d68511776273418b9"
						],
						"transactionHash": "0xdcf9d50f957c6e617de104398a443f0d5f4cb19b944bd08e94099f549b0a9b84",
						"transactionIndex": 26
					},
					{
						"address": "0x1081B5AA9D9d4862A3dA4d469433FB36Ed80FA2A",
						"blockHash": "0xacdbc6a9d760a6f21638fae13879b576cb3457993fc0f438954533a64433e431",
						"blockNumber": 5520515,
						"data": "0x000000000000000000000000def756ef46098cb2109128d3458e01bcf58411d1",
						"index": 75,
						"topics": [
							"0x4db17dd5e4732fb6da34a148104a592783ca119a1e7bb8829eba6cbadef0b511"
						],
						"transactionHash": "0xdcf9d50f957c6e617de104398a443f0d5f4cb19b944bd08e94099f549b0a9b84",
						"transactionIndex": 26
					},
					{
						"address": "0x1081B5AA9D9d4862A3dA4d469433FB36Ed80FA2A",
						"blockHash": "0xacdbc6a9d760a6f21638fae13879b576cb3457993fc0f438954533a64433e431",
						"blockNumber": 5520515,
						"data": "0x",
						"index": 76,
						"topics": [
							"0x6895c13664aa4f67288b25d7a21d7aaa34916e355fb9b6fae0a139a9085becb8",
							"0x000000000000000000000000ef1be3c049809cace5bc203bbe4ec1ab284bf75c"
						],
						"transactionHash": "0xdcf9d50f957c6e617de104398a443f0d5f4cb19b944bd08e94099f549b0a9b84",
						"transactionIndex": 26
					},
					{
						"address": "0xEf1Be3C049809caCe5Bc203BBe4Ec1Ab284bF75c",
						"blockHash": "0xacdbc6a9d760a6f21638fae13879b576cb3457993fc0f438954533a64433e431",
						"blockNumber": 5520515,
						"data": "0x0000000000000000000000000000000000000000000000000000000000000005",
						"index": 77,
						"topics": [
							"0xa65fb05c5808f5f389d72edeaf719ce38f4cc55c1f69ca3cbfb31c21501caa07",
							"0x9e0e602421b8af18b231044c4a9fcd3210b88a991260bd2d68511776273418b9"
						],
						"transactionHash": "0xdcf9d50f957c6e617de104398a443f0d5f4cb19b944bd08e94099f549b0a9b84",
						"transactionIndex": 26
					},
					{
						"address": "0x1081B5AA9D9d4862A3dA4d469433FB36Ed80FA2A",
						"blockHash": "0xacdbc6a9d760a6f21638fae13879b576cb3457993fc0f438954533a64433e431",
						"blockNumber": 5520515,
						"data": "0x000000000000000000000000266b64c59e45cccaeea8d34758c495a0517139f0",
						"index": 78,
						"topics": [
							"0x4db17dd5e4732fb6da34a148104a592783ca119a1e7bb8829eba6cbadef0b511"
						],
						"transactionHash": "0xdcf9d50f957c6e617de104398a443f0d5f4cb19b944bd08e94099f549b0a9b84",
						"transactionIndex": 26
					},
					{
						"address": "0x1081B5AA9D9d4862A3dA4d469433FB36Ed80FA2A",
						"blockHash": "0xacdbc6a9d760a6f21638fae13879b576cb3457993fc0f438954533a64433e431",
						"blockNumber": 5520515,
						"data": "0x",
						"index": 79,
						"topics": [
							"0x6895c13664aa4f67288b25d7a21d7aaa34916e355fb9b6fae0a139a9085becb8",
							"0x000000000000000000000000ef1be3c049809cace5bc203bbe4ec1ab284bf75c"
						],
						"transactionHash": "0xdcf9d50f957c6e617de104398a443f0d5f4cb19b944bd08e94099f549b0a9b84",
						"transactionIndex": 26
					},
					{
						"address": "0xEf1Be3C049809caCe5Bc203BBe4Ec1Ab284bF75c",
						"blockHash": "0xacdbc6a9d760a6f21638fae13879b576cb3457993fc0f438954533a64433e431",
						"blockNumber": 5520515,
						"data": "0x0000000000000000000000000000000000000000000000000000000000000006",
						"index": 80,
						"topics": [
							"0xa65fb05c5808f5f389d72edeaf719ce38f4cc55c1f69ca3cbfb31c21501caa07",
							"0x9e0e602421b8af18b231044c4a9fcd3210b88a991260bd2d68511776273418b9"
						],
						"transactionHash": "0xdcf9d50f957c6e617de104398a443f0d5f4cb19b944bd08e94099f549b0a9b84",
						"transactionIndex": 26
					},
					{
						"address": "0x1081B5AA9D9d4862A3dA4d469433FB36Ed80FA2A",
						"blockHash": "0xacdbc6a9d760a6f21638fae13879b576cb3457993fc0f438954533a64433e431",
						"blockNumber": 5520515,
						"data": "0x000000000000000000000000f8ed3763480ca957316974bab8fe4258d4fd0a17",
						"index": 81,
						"topics": [
							"0x4db17dd5e4732fb6da34a148104a592783ca119a1e7bb8829eba6cbadef0b511"
						],
						"transactionHash": "0xdcf9d50f957c6e617de104398a443f0d5f4cb19b944bd08e94099f549b0a9b84",
						"transactionIndex": 26
					},
					{
						"address": "0x1081B5AA9D9d4862A3dA4d469433FB36Ed80FA2A",
						"blockHash": "0xacdbc6a9d760a6f21638fae13879b576cb3457993fc0f438954533a64433e431",
						"blockNumber": 5520515,
						"data": "0x",
						"index": 82,
						"topics": [
							"0x6895c13664aa4f67288b25d7a21d7aaa34916e355fb9b6fae0a139a9085becb8",
							"0x000000000000000000000000ef1be3c049809cace5bc203bbe4ec1ab284bf75c"
						],
						"transactionHash": "0xdcf9d50f957c6e617de104398a443f0d5f4cb19b944bd08e94099f549b0a9b84",
						"transactionIndex": 26
					},
					{
						"address": "0xEf1Be3C049809caCe5Bc203BBe4Ec1Ab284bF75c",
						"blockHash": "0xacdbc6a9d760a6f21638fae13879b576cb3457993fc0f438954533a64433e431",
						"blockNumber": 5520515,
						"data": "0x0000000000000000000000000000000000000000000000000000000000000007",
						"index": 83,
						"topics": [
							"0xa65fb05c5808f5f389d72edeaf719ce38f4cc55c1f69ca3cbfb31c21501caa07",
							"0x9e0e602421b8af18b231044c4a9fcd3210b88a991260bd2d68511776273418b9"
						],
						"transactionHash": "0xdcf9d50f957c6e617de104398a443f0d5f4cb19b944bd08e94099f549b0a9b84",
						"transactionIndex": 26
					}
				],
				"logsBloom": "0x00020000080010000008000000080000000040000008000000800000004000000060008000000000000000000040000000000000000000000000000000000002000000000000200400000000820000000001000000000002000200080000000000000000020000000000000000800800000000100020000000000000000000400001000000000000000100000000800000000000000000000000804000000000004000080010000000000000000000020200000000000080000000000006000000000000000000200002000008000000000000000000000000000000000020000000000000000004000000000000000200008000010000000000040000000000",
				"status": 1,
				"to": "0xB5E96127D417b1B3ef8438496a38A143167209c7"
			},
			"metadata": "{\"compiler\":{\"version\":\"0.8.23+commit.f704f362\"},\"language\":\"Solidity\",\"output\":{\"abi\":[{\"inputs\":[{\"internalType\":\"contract IJBPermissions\",\"name\":\"permissions\",\"type\":\"address\"},{\"internalType\":\"contract IJBProjects\",\"name\":\"projects\",\"type\":\"address\"},{\"internalType\":\"address\",\"name\":\"owner\",\"type\":\"address\"}],\"stateMutability\":\"nonpayable\",\"type\":\"constructor\"},{\"inputs\":[],\"type\":\"error\",\"name\":\"DUPLICATE_TERMINALS\"},{\"inputs\":[],\"type\":\"error\",\"name\":\"INVALID_PROJECT_ID_IN_DIRECTORY\"},{\"inputs\":[{\"internalType\":\"address\",\"name\":\"owner\",\"type\":\"address\"}],\"type\":\"error\",\"name\":\"OwnableInvalidOwner\"},{\"inputs\":[{\"internalType\":\"address\",\"name\":\"account\",\"type\":\"address\"}],\"type\":\"error\",\"name\":\"OwnableUnauthorizedAccount\"},{\"inputs\":[],\"type\":\"error\",\"name\":\"SET_CONTROLLER_NOT_ALLOWED\"},{\"inputs\":[],\"type\":\"error\",\"name\":\"SET_TERMINALS_NOT_ALLOWED\"},{\"inputs\":[],\"type\":\"error\",\"name\":\"TOKEN_NOT_ACCEPTED\"},{\"inputs\":[],\"type\":\"error\",\"name\":\"UNAUTHORIZED\"},{\"inputs\":[{\"internalType\":\"uint256\",\"name\":\"projectId\",\"type\":\"uint256\",\"indexed\":true},{\"internalType\":\"contract IJBTerminal\",\"name\":\"terminal\",\"type\":\"address\",\"indexed\":true},{\"internalType\":\"address\",\"name\":\"caller\",\"type\":\"address\",\"indexed\":false}],\"type\":\"event\",\"name\":\"AddTerminal\",\"anonymous\":false},{\"inputs\":[{\"internalType\":\"address\",\"name\":\"previousOwner\",\"type\":\"address\",\"indexed\":true},{\"internalType\":\"address\",\"name\":\"newOwner\",\"type\":\"address\",\"indexed\":true}],\"type\":\"event\",\"name\":\"OwnershipTransferred\",\"anonymous\":false},{\"inputs\":[{\"internalType\":\"uint256\",\"name\":\"projectId\",\"type\":\"uint256\",\"indexed\":true},{\"internalType\":\"contract IERC165\",\"name\":\"controller\",\"type\":\"address\",\"indexed\":true},{\"internalType\":\"address\",\"name\":\"caller\",\"type\":\"address\",\"indexed\":false}],\"type\":\"event\",\"name\":\"SetController\",\"anonymous\":false},{\"inputs\":[{\"internalType\":\"address\",\"name\":\"addr\",\"type\":\"address\",\"indexed\":true},{\"internalType\":\"bool\",\"name\":\"flag\",\"type\":\"bool\",\"indexed\":true},{\"internalType\":\"address\",\"name\":\"caller\",\"type\":\"address\",\"indexed\":false}],\"type\":\"event\",\"name\":\"SetIsAllowedToSetFirstController\",\"anonymous\":false},{\"inputs\":[{\"internalType\":\"uint256\",\"name\":\"projectId\",\"type\":\"uint256\",\"indexed\":true},{\"internalType\":\"address\",\"name\":\"token\",\"type\":\"address\",\"indexed\":true},{\"internalType\":\"contract IJBTerminal\",\"name\":\"terminal\",\"type\":\"address\",\"indexed\":true},{\"internalType\":\"address\",\"name\":\"caller\",\"type\":\"address\",\"indexed\":false}],\"type\":\"event\",\"name\":\"SetPrimaryTerminal\",\"anonymous\":false},{\"inputs\":[{\"internalType\":\"uint256\",\"name\":\"projectId\",\"type\":\"uint256\",\"indexed\":true},{\"internalType\":\"contract IJBTerminal[]\",\"name\":\"terminals\",\"type\":\"address[]\",\"indexed\":false},{\"internalType\":\"address\",\"name\":\"caller\",\"type\":\"address\",\"indexed\":false}],\"type\":\"event\",\"name\":\"SetTerminals\",\"anonymous\":false},{\"inputs\":[],\"stateMutability\":\"view\",\"type\":\"function\",\"name\":\"PERMISSIONS\",\"outputs\":[{\"internalType\":\"contract IJBPermissions\",\"name\":\"\",\"type\":\"address\"}]},{\"inputs\":[],\"stateMutability\":\"view\",\"type\":\"function\",\"name\":\"PROJECTS\",\"outputs\":[{\"internalType\":\"contract IJBProjects\",\"name\":\"\",\"type\":\"address\"}]},{\"inputs\":[{\"internalType\":\"uint256\",\"name\":\"projectId\",\"type\":\"uint256\"}],\"stateMutability\":\"view\",\"type\":\"function\",\"name\":\"controllerOf\",\"outputs\":[{\"internalType\":\"contract IERC165\",\"name\":\"\",\"type\":\"address\"}]},{\"inputs\":[{\"internalType\":\"address\",\"name\":\"addr\",\"type\":\"address\"}],\"stateMutability\":\"view\",\"type\":\"function\",\"name\":\"isAllowedToSetFirstController\",\"outputs\":[{\"internalType\":\"bool\",\"name\":\"\",\"type\":\"bool\"}]},{\"inputs\":[{\"internalType\":\"uint256\",\"name\":\"projectId\",\"type\":\"uint256\"},{\"internalType\":\"contract IJBTerminal\",\"name\":\"terminal\",\"type\":\"address\"}],\"stateMutability\":\"view\",\"type\":\"function\",\"name\":\"isTerminalOf\",\"outputs\":[{\"internalType\":\"bool\",\"name\":\"\",\"type\":\"bool\"}]},{\"inputs\":[],\"stateMutability\":\"view\",\"type\":\"function\",\"name\":\"owner\",\"outputs\":[{\"internalType\":\"address\",\"name\":\"\",\"type\":\"address\"}]},{\"inputs\":[{\"internalType\":\"uint256\",\"name\":\"projectId\",\"type\":\"uint256\"},{\"internalType\":\"address\",\"name\":\"token\",\"type\":\"address\"}],\"stateMutability\":\"view\",\"type\":\"function\",\"name\":\"primaryTerminalOf\",\"outputs\":[{\"internalType\":\"contract IJBTerminal\",\"name\":\"\",\"type\":\"address\"}]},{\"inputs\":[],\"stateMutability\":\"nonpayable\",\"type\":\"function\",\"name\":\"renounceOwnership\"},{\"inputs\":[{\"internalType\":\"uint256\",\"name\":\"projectId\",\"type\":\"uint256\"},{\"internalType\":\"contract IERC165\",\"name\":\"controller\",\"type\":\"address\"}],\"stateMutability\":\"nonpayable\",\"type\":\"function\",\"name\":\"setControllerOf\"},{\"inputs\":[{\"internalType\":\"address\",\"name\":\"addr\",\"type\":\"address\"},{\"internalType\":\"bool\",\"name\":\"flag\",\"type\":\"bool\"}],\"stateMutability\":\"nonpayable\",\"type\":\"function\",\"name\":\"setIsAllowedToSetFirstController\"},{\"inputs\":[{\"internalType\":\"uint256\",\"name\":\"projectId\",\"type\":\"uint256\"},{\"internalType\":\"address\",\"name\":\"token\",\"type\":\"address\"},{\"internalType\":\"contract IJBTerminal\",\"name\":\"terminal\",\"type\":\"address\"}],\"stateMutability\":\"nonpayable\",\"type\":\"function\",\"name\":\"setPrimaryTerminalOf\"},{\"inputs\":[{\"internalType\":\"uint256\",\"name\":\"projectId\",\"type\":\"uint256\"},{\"internalType\":\"contract IJBTerminal[]\",\"name\":\"terminals\",\"type\":\"address[]\"}],\"stateMutability\":\"nonpayable\",\"type\":\"function\",\"name\":\"setTerminalsOf\"},{\"inputs\":[{\"internalType\":\"uint256\",\"name\":\"projectId\",\"type\":\"uint256\"}],\"stateMutability\":\"view\",\"type\":\"function\",\"name\":\"terminalsOf\",\"outputs\":[{\"internalType\":\"contract IJBTerminal[]\",\"name\":\"\",\"type\":\"address[]\"}]},{\"inputs\":[{\"internalType\":\"address\",\"name\":\"newOwner\",\"type\":\"address\"}],\"stateMutability\":\"nonpayable\",\"type\":\"function\",\"name\":\"transferOwnership\"}],\"devdoc\":{\"kind\":\"dev\",\"methods\":{\"constructor\":{\"params\":{\"owner\":\"The address that will own the contract.\",\"permissions\":\"A contract storing permissions.\",\"projects\":\"A contract which mints ERC-721s that represent project ownership and transfers.\"}},\"isTerminalOf(uint256,address)\":{\"params\":{\"projectId\":\"The ID of the project to check for the terminal.\",\"terminal\":\"The address of the terminal to check for.\"},\"returns\":{\"_0\":\"A flag indicating whether or not the specified terminal is a terminal of the specified project.\"}},\"owner()\":{\"details\":\"Returns the address of the current owner.\"},\"primaryTerminalOf(uint256,address)\":{\"details\":\"The zero address is returned if a terminal isn't found for the specified token.\",\"params\":{\"projectId\":\"The ID of the project to get the primary terminal of.\",\"token\":\"The token the terminal accepts.\"},\"returns\":{\"_0\":\"The address of the primary terminal for the specified project and token.\"}},\"renounceOwnership()\":{\"details\":\"Leaves the contract without owner. It will not be possible to call `onlyOwner` functions. Can only be called by the current owner. NOTE: Renouncing ownership will leave the contract without an owner, thereby disabling any functionality that is only available to the owner.\"},\"setControllerOf(uint256,address)\":{\"details\":\"A controller can be set if:- The project's ruleset allows setting the controller, and the message sender is the project owner or an operator with the `SET_CONTROLLER` permission from them.- OR the message sender is the project's current controller.- OR an allowedlisted address is setting a controller for a project that doesn't already have a controller.\",\"params\":{\"controller\":\"The address of the new controller to set for the project.\",\"projectId\":\"The ID of the project to set the controller of.\"}},\"setIsAllowedToSetFirstController(address,bool)\":{\"details\":\"Only this contract's owner can call this function.These addresses are known and vetted controllers as well as contracts designed to launch new projects.A project can set its own controller without being on the allow list.If you would like an address/contract allowlisted, please reach out to the contract owner.\",\"params\":{\"addr\":\"The address to allow or not allow.\",\"flag\":\"Whether the address is allowed or not allowed to set first controllers for projects. Use `true` to allow and `false` to not allow.\"}},\"setPrimaryTerminalOf(uint256,address,address)\":{\"details\":\"The primary terminal is where a token should be routed to by default.This is useful in case a project has several terminals connected for a particular token.If setting a newly added terminal and the ruleset doesn't allow new terminals, the caller must be the current controller.\",\"params\":{\"projectId\":\"The ID of the project a primary token is being set for.\",\"terminal\":\"The terminal to make the primary terminal for the project and token.\",\"token\":\"The token to set the primary terminal for.\"}},\"setTerminalsOf(uint256,address[])\":{\"details\":\"Only a project's owner, an operator with the `SET_TERMINALS` permission from the owner, or the project's controller can set its terminals.Unless the caller is the project's controller, the project's ruleset must allow setting terminals.\",\"params\":{\"projectId\":\"The ID of the project to set terminals for.\",\"terminals\":\"An array of terminal addresses to set for the project.\"}},\"terminalsOf(uint256)\":{\"params\":{\"projectId\":\"The ID of the project to get the terminals of.\"},\"returns\":{\"_0\":\"An array of terminal addresses.\"}},\"transferOwnership(address)\":{\"details\":\"Transfers ownership of the contract to a new account (`newOwner`). Can only be called by the current owner.\"}},\"version\":1},\"userdoc\":{\"kind\":\"user\",\"methods\":{\"PERMISSIONS()\":{\"notice\":\"A contract storing permissions.\"},\"PROJECTS()\":{\"notice\":\"Mints ERC-721s that represent project ownership and transfers.\"},\"controllerOf(uint256)\":{\"notice\":\"The controller, which dictates how terminals interact with tokens and rulesets, for a given project ID.\"},\"isAllowedToSetFirstController(address)\":{\"notice\":\"Addresses allowed to set a project's first controller on their behalf. These addresses/contracts have been vetted and verified by this contract's owner.\"},\"isTerminalOf(uint256,address)\":{\"notice\":\"Check if a specified project uses a specified terminal.\"},\"primaryTerminalOf(uint256,address)\":{\"notice\":\"The primary terminal that a project is using to manage a specified token.\"},\"setControllerOf(uint256,address)\":{\"notice\":\"Set a project's controller. Controllers manage how terminals interact with tokens and rulesets.\"},\"setIsAllowedToSetFirstController(address,bool)\":{\"notice\":\"Add an address/contract to the list of trusted addresses which are allowed to set a first controller for projects.\"},\"setPrimaryTerminalOf(uint256,address,address)\":{\"notice\":\"Set a project's primary terminal for a particular token.\"},\"setTerminalsOf(uint256,address[])\":{\"notice\":\"Set a project's terminals.\"},\"terminalsOf(uint256)\":{\"notice\":\"For  given project ID, the terminals which are currently managing that project's funds.\"}},\"version\":1}},\"settings\":{\"remappings\":[\"@bananapus/=node_modules/@bananapus/\",\"@chainlink/=node_modules/@chainlink/\",\"@eth-optimism/=node_modules/@eth-optimism/\",\"@gnosis.pm/=node_modules/@gnosis.pm/\",\"@openzeppelin/=node_modules/@openzeppelin/\",\"@prb/=node_modules/@prb/\",\"@sphinx-labs/contracts/=lib/sphinx/packages/contracts/contracts/foundry/\",\"@uniswap/=node_modules/@uniswap/\",\"ds-test/=lib/forge-std/lib/ds-test/src/\",\"forge-std/=lib/forge-std/src/\",\"hardhat/=node_modules/hardhat/\",\"solmate/=node_modules/solmate/\",\"sphinx-forge-std/=node_modules/sphinx-forge-std/\",\"sphinx-solmate/=node_modules/sphinx-solmate/\",\"sphinx/=lib/sphinx/\"],\"optimizer\":{\"enabled\":true,\"runs\":200},\"metadata\":{\"bytecodeHash\":\"ipfs\"},\"compilationTarget\":{\"src/JBDirectory.sol\":\"JBDirectory\"},\"evmVersion\":\"paris\",\"libraries\":{}},\"sources\":{\"node_modules/@bananapus/permission-ids/src/JBPermissionIds.sol\":{\"keccak256\":\"0xcc68735b4c801e953cb7962e069933f369515e7a4a09aea5b2170a268125a898\",\"urls\":[\"bzz-raw://e51f839d96be200efeca40ca4fb1d5b6096303564cdde5cf67aecf58e2d36db3\",\"dweb:/ipfs/QmRnJ5s974eUeyvTuLUpt4TK8t5TjVmz7DyDSAKxgYTnA5\"],\"license\":\"UNLICENSED\"},\"node_modules/@openzeppelin/contracts/access/Ownable.sol\":{\"keccak256\":\"0xff6d0bb2e285473e5311d9d3caacb525ae3538a80758c10649a4d61029b017bb\",\"urls\":[\"bzz-raw://8ed324d3920bb545059d66ab97d43e43ee85fd3bd52e03e401f020afb0b120f6\",\"dweb:/ipfs/QmfEckWLmZkDDcoWrkEvMWhms66xwTLff9DDhegYpvHo1a\"],\"license\":\"MIT\"},\"node_modules/@openzeppelin/contracts/token/ERC721/IERC721.sol\":{\"keccak256\":\"0x5ef46daa3b58ef2702279d514780316efaa952915ee1aa3396f041ee2982b0b4\",\"urls\":[\"bzz-raw://2f8f2a76e23b02fc69e8cd24c3cb47da6c7af3a2d6c3a382f8ac25c6e094ade7\",\"dweb:/ipfs/QmPV4ZS4tPVv4mTCf9ejyZ1ai57EEibDRj7mN2ARDCLV5n\"],\"license\":\"MIT\"},\"node_modules/@openzeppelin/contracts/utils/Context.sol\":{\"keccak256\":\"0x493033a8d1b176a037b2cc6a04dad01a5c157722049bbecf632ca876224dd4b2\",\"urls\":[\"bzz-raw://6a708e8a5bdb1011c2c381c9a5cfd8a9a956d7d0a9dc1bd8bcdaf52f76ef2f12\",\"dweb:/ipfs/Qmax9WHBnVsZP46ZxEMNRQpLQnrdE4dK8LehML1Py8FowF\"],\"license\":\"MIT\"},\"node_modules/@openzeppelin/contracts/utils/introspection/IERC165.sol\":{\"keccak256\":\"0x4296879f55019b23e135000eb36896057e7101fb7fb859c5ef690cf14643757b\",\"urls\":[\"bzz-raw://87b3541437c8c443ccd36795e56a338ed12855eec17f8da624511b8d1a7e14df\",\"dweb:/ipfs/QmeJQCtZrQjtJLr6u7ZHWeH3pBnjtLWzvRrKViAi7UZqxL\"],\"license\":\"MIT\"},\"src/JBDirectory.sol\":{\"keccak256\":\"0x164ccdbd7d3d67ff89934609c8e9c0340578bef327f02668483fa909b82d4c74\",\"urls\":[\"bzz-raw://7c17e1f8b916022b3997654834a8167875a8e82279b2a937b8949e36b9ff838e\",\"dweb:/ipfs/QmYbKb1JzK22tEENfaf1pHMx8pGkTowMEfrcYYDDpfvdjC\"],\"license\":\"MIT\"},\"src/abstract/JBPermissioned.sol\":{\"keccak256\":\"0xbe593894bc9893f7fe5c96f14c013add8f50df762538e3d7cb96ed39ad195664\",\"urls\":[\"bzz-raw://efb81264b24776e6be537680abaeb8c4893e70d8a62231748d860e25a7c2340d\",\"dweb:/ipfs/QmacN9gFgPqkhTEwRD7Zben3whq9DRr2ZkSmScGvioTXXR\"],\"license\":\"MIT\"},\"src/interfaces/IJBDirectory.sol\":{\"keccak256\":\"0xd15957cc32974cde4f9f194b92574df2ad8a7aeec049d947136ce3381f9145f6\",\"urls\":[\"bzz-raw://7543e5cbde75ff777b16067016ff9ac5e995752842f03662137eb4ef3fc3c868\",\"dweb:/ipfs/QmPJZAmqNKRcj1JQ4Kc9hExbMtPPzrRB5hZ787utCfBmXg\"],\"license\":\"MIT\"},\"src/interfaces/IJBDirectoryAccessControl.sol\":{\"keccak256\":\"0x1e67f56849320a46f834aaa9bd62b170ff8ada7b224b4a81136193740fa0be4d\",\"urls\":[\"bzz-raw://ea8fbcec44abfe49d137bcae129b67e5479d6b17879301f88534c8a7fab00be4\",\"dweb:/ipfs/QmT6wrtYX4GRpffHUzupNwYebJ1dqkkKZLEewWsoyunsqw\"],\"license\":\"MIT\"},\"src/interfaces/IJBPayHook.sol\":{\"keccak256\":\"0xe24aa2ca52f7a5f24f24ccae101cfc94d0f76705b2d23222f87c7852f8be4267\",\"urls\":[\"bzz-raw://6888140e9a7d4156fd22635654d5d08e21819af8b0356b5415f37b75083b3eb9\",\"dweb:/ipfs/QmbuwBNhar7rEbRhTJPiyo5PVsfaM5nqLow9NAkHhyvjV5\"],\"license\":\"MIT\"},\"src/interfaces/IJBPermissioned.sol\":{\"keccak256\":\"0x5b038d4dee116584e88b230920e56d48e135053e3f7e5642eaea14a775c1dad7\",\"urls\":[\"bzz-raw://19e43102f349fd4a1da1c0943ffb8f2950007fe4bb4bb7e8f74fc142575d091b\",\"dweb:/ipfs/QmXHAt4KzDTdDZgDDefEXH2WKi7NcfkJb9R7nxW5uDqsNp\"],\"license\":\"MIT\"},\"src/interfaces/IJBPermissions.sol\":{\"keccak256\":\"0x18870e500edf0fbadc353e273a5574701fb80466376b908c65e7cc3f11044d4d\",\"urls\":[\"bzz-raw://352a47c45853aec80e7acf0d286ade3106eb4cb456776b28a3c2f3f1091bed90\",\"dweb:/ipfs/QmQeYd3YbudYZy2hfbfht9kwhxhw4tuuLKMEYy9UY6dcSy\"],\"license\":\"MIT\"},\"src/interfaces/IJBProjects.sol\":{\"keccak256\":\"0x85539f72c5871c53a919edc7db78931155464e9e00fccd30079b17e75820ddb9\",\"urls\":[\"bzz-raw://505466dbfbdeec77f948ce065676897a5b4a74b70bb234c1053b893c4849f3a1\",\"dweb:/ipfs/QmYBpZQub3Mv19xsRWqvzgiQSBAp4UNaKcqWQ2wwH62H95\"],\"license\":\"MIT\"},\"src/interfaces/IJBTokenUriResolver.sol\":{\"keccak256\":\"0xfa5cb00dcd6085d1ef912d071fe73c63f9478a2cd0f9d8bddaf659b6af2d0967\",\"urls\":[\"bzz-raw://282e4e7c342d65f77cde0e9a08fcaf20ef5cf379c7a48b639842c0ffd0b2afb8\",\"dweb:/ipfs/QmbnN3PEQeZaXdPLT75V1J79kMg7KqSMru37RHrL3z8Yf2\"],\"license\":\"MIT\"},\"src/interfaces/terminal/IJBTerminal.sol\":{\"keccak256\":\"0x36f23bc27e56fa86d100281a75f5a6ce73f39f32e6a1667ce69f902da1d005ee\",\"urls\":[\"bzz-raw://e8ffa2e264fa12444799cb5706ca577034f3f8be9ff7a2f072981de6a61d706d\",\"dweb:/ipfs/QmR6gQDymvk8JQ77J8VxpFD1Hnxga4w7LLiRvAT3m4LG6T\"],\"license\":\"MIT\"},\"src/structs/JBAccountingContext.sol\":{\"keccak256\":\"0x2907ff54d1e903cc7e0390dd88c3975884702dc2673642aacbe22b66560b56de\",\"urls\":[\"bzz-raw://a66a5381ce877b32f0e0058ceeaf843e9b6b2bc8af666c0c9f4a9d01091da004\",\"dweb:/ipfs/QmQynCetUr37dBkS1YwDS8evxuXGiqanW6THmeUxXtim8w\"],\"license\":\"MIT\"},\"src/structs/JBAfterPayRecordedContext.sol\":{\"keccak256\":\"0xd26c3a774ff38be79064085970454fe2603a23a638c76270d5b1b3829206c3e8\",\"urls\":[\"bzz-raw://3b55dbe3bf1ef625b7ca04efab3de35406e6041d5b3d82c7265469c500e2b702\",\"dweb:/ipfs/QmUdBDo4Lt3mcsFcsXT2mqq3czFwZjQJFPLM89YA2VtD7k\"],\"license\":\"MIT\"},\"src/structs/JBPermissionsData.sol\":{\"keccak256\":\"0x8f0f69a6ebf5f3704e3dfcb3712fb9d3f94ae7c1ab89bf3e37bad42a3e7a0487\",\"urls\":[\"bzz-raw://57b0c5e52843e2217082889ed47b4da3943e0da4590d5768dcebfe3edad4a6b8\",\"dweb:/ipfs/QmRz48vuWLw81kUP836rh1qzqWiJFGbksgRUA9xGEDNKTY\"],\"license\":\"MIT\"},\"src/structs/JBTokenAmount.sol\":{\"keccak256\":\"0x5cf0626b73a596c1e2da17c89ae039a7c0374310b060d48568d3b6c11fbe6180\",\"urls\":[\"bzz-raw://63348b50be95e2995409394a17caffc563a646f0972650a1230bf864fbd3219b\",\"dweb:/ipfs/QmZXZpS3SbFD5nWaCauf6AqbEhLURv5qsKHpThBvQgDU6u\"],\"license\":\"MIT\"}},\"version\":1}",
			"args": [
				"0xa1Ba58fcA530D0b011646167C9EB81F54d9C9dF6",
				"0x45452B26fe78D2b83247279F87c847F4F4A8FCEb",
				"0x1081B5AA9D9d4862A3dA4d469433FB36Ed80FA2A"
			],
			"bytecode": "0x60c06040523480156200001157600080fd5b5060405162001654380380620016548339810160408190526200003491620000f4565b6001600160a01b03808416608052819081166200006b57604051631e4fbdf760e01b81526000600482015260240160405180910390fd5b62000076816200008b565b50506001600160a01b031660a0525062000148565b600080546001600160a01b038381166001600160a01b0319831681178455604051919092169283917f8be0079c531659141344cd1fd0a4f28419497f9722a3daafe3b4186f6b6457e09190a35050565b6001600160a01b0381168114620000f157600080fd5b50565b6000806000606084860312156200010a57600080fd5b83516200011781620000db565b60208501519093506200012a81620000db565b60408501519092506200013d81620000db565b809150509250925092565b60805160a0516114bd620001976000396000818160f401528181610290015281816104be0152818161057201526107cd01526000818161025401528181610d470152610df001526114bd6000f3fe608060405234801561001057600080fd5b50600436106100ea5760003560e01c8063862026501161008c578063c5664e2111610066578063c5664e21146101f9578063d17541531461021c578063f2fde38b1461023c578063f434c9141461024f57600080fd5b806386202650146101c25780638da5cb5b146101d5578063a1ed3175146101e657600080fd5b80636e49181f116100c85780636e49181f14610171578063714e7f3214610194578063715018a6146101a7578063821b9fd8146101af57600080fd5b8063293c4999146100ef5780635dd8f6aa1461013357806363d0850a1461015c575b600080fd5b6101167f000000000000000000000000000000000000000000000000000000000000000081565b6040516001600160a01b0390911681526020015b60405180910390f35b61011661014136600461113f565b6001602052600090815260409020546001600160a01b031681565b61016f61016a36600461116d565b610276565b005b61018461017f3660046111af565b610425565b604051901515815260200161012a565b61016f6101a23660046111af565b6104a4565b61016f61079f565b61016f6101bd3660046111df565b6107b3565b6101166101d03660046111af565b610ab8565b6000546001600160a01b0316610116565b61016f6101f436600461126c565b610be4565b61018461020736600461129a565b60026020526000908152604090205460ff1681565b61022f61022a36600461113f565b610c4e565b60405161012a91906112be565b61016f61024a36600461129a565b610cba565b6101167f000000000000000000000000000000000000000000000000000000000000000081565b6040516331a9108f60e11b81526004810184905261030b907f00000000000000000000000000000000000000000000000000000000000000006001600160a01b031690636352211e90602401602060405180830381865afa1580156102df573d6000803e3d6000fd5b505050506040513d601f19601f82011682018060405250810190610303919061130b565b846010610cfd565b604051633a01714f60e01b8152600481018490526001600160a01b03838116602483015260009190831690633a01714f90604401606060405180830381865afa15801561035c573d6000803e3d6000fd5b505050506040513d601f19601f820116820180604052508101906103809190611328565b516001600160a01b0316036103a857604051630faa917b60e11b815260040160405180910390fd5b6103b28382610e81565b60008381526004602090815260408083206001600160a01b038681168086529184529382902080546001600160a01b03191694861694851790559051338152909186917fc670a502bbb9f8a4315f95eca901a9f99b65f89a2eb5705a58050e5c00f9d672910160405180910390a4505050565b600082815260036020526040812054815b8181101561049757600085815260036020526040902080546001600160a01b03861691908390811061046a5761046a6113b7565b6000918252602090912001546001600160a01b03160361048f5760019250505061049e565b600101610436565b5060009150505b92915050565b6040516331a9108f60e11b81526004810183905261056f907f00000000000000000000000000000000000000000000000000000000000000006001600160a01b031690636352211e90602401602060405180830381865afa15801561050d573d6000803e3d6000fd5b505050506040513d601f19601f82011682018060405250810190610531919061130b565b336000908152600260205260409020548490600e9060ff16801561056a57506000868152600160205260409020546001600160a01b0316155b61103a565b817f00000000000000000000000000000000000000000000000000000000000000006001600160a01b03166306661abd6040518163ffffffff1660e01b8152600401602060405180830381865afa1580156105ce573d6000803e3d6000fd5b505050506040513d601f19601f820116820180604052508101906105f291906113cd565b101561061157604051634a283a5360e11b815260040160405180910390fd5b6000828152600160205260408120546001600160a01b0316908115806106a357506040516301ffc9a760e01b8152632877540760e01b60048201526001600160a01b038316906301ffc9a790602401602060405180830381865afa15801561067d573d6000803e3d6000fd5b505050506040513d601f19601f820116820180604052508101906106a191906113e6565b155b61071557604051632674968d60e21b8152600481018590526001600160a01b038316906399d25a3490602401602060405180830381865afa1580156106ec573d6000803e3d6000fd5b505050506040513d601f19601f8201168201806040525081019061071091906113e6565b610718565b60015b9050806107385760405163a33db4cb60e01b815260040160405180910390fd5b60008481526001602090815260409182902080546001600160a01b0319166001600160a01b038716908117909155915133815286917f7f9a7dcb234c909a09de2f344661ad9e5b24067adb97c908647c2edcbb121c3091015b60405180910390a350505050565b6107a761104a565b6107b16000611077565b565b6040516331a9108f60e11b815260048101849052610864907f00000000000000000000000000000000000000000000000000000000000000006001600160a01b031690636352211e90602401602060405180830381865afa15801561081c573d6000803e3d6000fd5b505050506040513d601f19601f82011682018060405250810190610840919061130b565b6000858152600160205260409020548590600f906001600160a01b0316331461103a565b6000838152600160205260408082205490516301ffc9a760e01b8152632877540760e01b60048201526001600160a01b03909116919082906301ffc9a790602401602060405180830381865afa1580156108c2573d6000803e3d6000fd5b505050506040513d601f19601f820116820180604052508101906108e691906113e6565b1580610956575060405163b1a50e3360e01b8152600481018690526001600160a01b0383169063b1a50e3390602401602060405180830381865afa158015610932573d6000803e3d6000fd5b505050506040513d601f19601f8201168201806040525081019061095691906113e6565b6000868152600160205260409020549091506001600160a01b0316331480159061097e575080155b1561099c576040516375fef35f60e11b815260040160405180910390fd5b60008581526003602052604090206109b59085856110c7565b50826001811115610a745760005b81811015610a725760006109d8826001611403565b90505b82811015610a69578686828181106109f5576109f56113b7565b9050602002016020810190610a0a919061129a565b6001600160a01b0316878784818110610a2557610a256113b7565b9050602002016020810190610a3a919061129a565b6001600160a01b031603610a6157604051633e3830ab60e11b815260040160405180910390fd5b6001016109db565b506001016109c3565b505b857fb648241d83df6540fc10f2acc641e4bf80a1e84e7ae2f1f6b0ad204b8fee635b868633604051610aa893929190611424565b60405180910390a2505050505050565b60008281526004602090815260408083206001600160a01b0380861685529252822054168015801590610af05750610af08482610425565b15610afc57905061049e565b600084815260036020526040812054905b81811015610bd8576000868152600360205260408120805483908110610b3557610b356113b7565b6000918252602082200154604051633a01714f60e01b8152600481018a90526001600160a01b03898116602483015290911692508290633a01714f90604401606060405180830381865afa158015610b91573d6000803e3d6000fd5b505050506040513d601f19601f82011682018060405250810190610bb59190611328565b516001600160a01b031614610bcf57935061049e92505050565b50600101610b0d565b50600095945050505050565b610bec61104a565b6001600160a01b038216600081815260026020908152604091829020805460ff191685151590811790915591513381529192917f11207664cc48b0fa81c8674795f1d8f642960f38d5d2d305ad813093bed85fab910160405180910390a35050565b600081815260036020908152604091829020805483518184028101840190945280845260609392830182828015610cae57602002820191906000526020600020905b81546001600160a01b03168152600190910190602001808311610c90575b50505050509050919050565b610cc261104a565b6001600160a01b038116610cf157604051631e4fbdf760e01b8152600060048201526024015b60405180910390fd5b610cfa81611077565b50565b336001600160a01b0384168114801590610db4575060405163c161c93f60e01b81526001600160a01b038281166004830152858116602483015260448201859052606482018490527f0000000000000000000000000000000000000000000000000000000000000000169063c161c93f90608401602060405180830381865afa158015610d8e573d6000803e3d6000fd5b505050506040513d601f19601f82011682018060405250810190610db291906113e6565b155b8015610e5d575060405163c161c93f60e01b81526001600160a01b038281166004830152858116602483015260006044830152606482018490527f0000000000000000000000000000000000000000000000000000000000000000169063c161c93f90608401602060405180830381865afa158015610e37573d6000803e3d6000fd5b505050506040513d601f19601f82011682018060405250810190610e5b91906113e6565b155b15610e7b5760405163075fd2b160e01b815260040160405180910390fd5b50505050565b610e8b8282610425565b15610e94575050565b6000828152600160205260408082205490516301ffc9a760e01b8152632877540760e01b60048201526001600160a01b03909116919082906301ffc9a790602401602060405180830381865afa158015610ef2573d6000803e3d6000fd5b505050506040513d601f19601f82011682018060405250810190610f1691906113e6565b1580610f86575060405163b1a50e3360e01b8152600481018590526001600160a01b0383169063b1a50e3390602401602060405180830381865afa158015610f62573d6000803e3d6000fd5b505050506040513d601f19601f82011682018060405250810190610f8691906113e6565b6000858152600160205260409020549091506001600160a01b03163314801590610fae575080155b15610fcc576040516375fef35f60e11b815260040160405180910390fd5b600084815260036020908152604080832080546001810182559084529282902090920180546001600160a01b0319166001600160a01b038716908117909155915133815286917f409bccc07b7cf7807930526a24318212d614c59f2dde05a017a41efee144e7c89101610791565b80610e7b57610e7b848484610cfd565b6000546001600160a01b031633146107b15760405163118cdaa760e01b8152336004820152602401610ce8565b600080546001600160a01b038381166001600160a01b0319831681178455604051919092169283917f8be0079c531659141344cd1fd0a4f28419497f9722a3daafe3b4186f6b6457e09190a35050565b82805482825590600052602060002090810192821561111a579160200282015b8281111561111a5781546001600160a01b0319166001600160a01b038435161782556020909201916001909101906110e7565b5061112692915061112a565b5090565b5b80821115611126576000815560010161112b565b60006020828403121561115157600080fd5b5035919050565b6001600160a01b0381168114610cfa57600080fd5b60008060006060848603121561118257600080fd5b83359250602084013561119481611158565b915060408401356111a481611158565b809150509250925092565b600080604083850312156111c257600080fd5b8235915060208301356111d481611158565b809150509250929050565b6000806000604084860312156111f457600080fd5b83359250602084013567ffffffffffffffff8082111561121357600080fd5b818601915086601f83011261122757600080fd5b81358181111561123657600080fd5b8760208260051b850101111561124b57600080fd5b6020830194508093505050509250925092565b8015158114610cfa57600080fd5b6000806040838503121561127f57600080fd5b823561128a81611158565b915060208301356111d48161125e565b6000602082840312156112ac57600080fd5b81356112b781611158565b9392505050565b6020808252825182820181905260009190848201906040850190845b818110156112ff5783516001600160a01b0316835292840192918401916001016112da565b50909695505050505050565b60006020828403121561131d57600080fd5b81516112b781611158565b60006060828403121561133a57600080fd5b6040516060810181811067ffffffffffffffff8211171561136b57634e487b7160e01b600052604160045260246000fd5b604052825161137981611158565b8152602083015160ff8116811461138f57600080fd5b6020820152604083015163ffffffff811681146113ab57600080fd5b60408201529392505050565b634e487b7160e01b600052603260045260246000fd5b6000602082840312156113df57600080fd5b5051919050565b6000602082840312156113f857600080fd5b81516112b78161125e565b8082018082111561049e57634e487b7160e01b600052601160045260246000fd5b6040808252810183905260008460608301825b8681101561146757823561144a81611158565b6001600160a01b0316825260209283019290910190600101611437565b506001600160a01b0394909416602093909301929092525090939250505056fea2646970667358221220455485ce740f4c22d038bc8eb16abf44a5aa16a859605afc7a452fc8fb1082bb64736f6c63430008170033",
			"deployedBytecode": "0x608060405234801561001057600080fd5b50600436106100ea5760003560e01c8063862026501161008c578063c5664e2111610066578063c5664e21146101f9578063d17541531461021c578063f2fde38b1461023c578063f434c9141461024f57600080fd5b806386202650146101c25780638da5cb5b146101d5578063a1ed3175146101e657600080fd5b80636e49181f116100c85780636e49181f14610171578063714e7f3214610194578063715018a6146101a7578063821b9fd8146101af57600080fd5b8063293c4999146100ef5780635dd8f6aa1461013357806363d0850a1461015c575b600080fd5b6101167f00000000000000000000000045452b26fe78d2b83247279f87c847f4f4a8fceb81565b6040516001600160a01b0390911681526020015b60405180910390f35b61011661014136600461113f565b6001602052600090815260409020546001600160a01b031681565b61016f61016a36600461116d565b610276565b005b61018461017f3660046111af565b610425565b604051901515815260200161012a565b61016f6101a23660046111af565b6104a4565b61016f61079f565b61016f6101bd3660046111df565b6107b3565b6101166101d03660046111af565b610ab8565b6000546001600160a01b0316610116565b61016f6101f436600461126c565b610be4565b61018461020736600461129a565b60026020526000908152604090205460ff1681565b61022f61022a36600461113f565b610c4e565b60405161012a91906112be565b61016f61024a36600461129a565b610cba565b6101167f000000000000000000000000a1ba58fca530d0b011646167c9eb81f54d9c9df681565b6040516331a9108f60e11b81526004810184905261030b907f00000000000000000000000045452b26fe78d2b83247279f87c847f4f4a8fceb6001600160a01b031690636352211e90602401602060405180830381865afa1580156102df573d6000803e3d6000fd5b505050506040513d601f19601f82011682018060405250810190610303919061130b565b846010610cfd565b604051633a01714f60e01b8152600481018490526001600160a01b03838116602483015260009190831690633a01714f90604401606060405180830381865afa15801561035c573d6000803e3d6000fd5b505050506040513d601f19601f820116820180604052508101906103809190611328565b516001600160a01b0316036103a857604051630faa917b60e11b815260040160405180910390fd5b6103b28382610e81565b60008381526004602090815260408083206001600160a01b038681168086529184529382902080546001600160a01b03191694861694851790559051338152909186917fc670a502bbb9f8a4315f95eca901a9f99b65f89a2eb5705a58050e5c00f9d672910160405180910390a4505050565b600082815260036020526040812054815b8181101561049757600085815260036020526040902080546001600160a01b03861691908390811061046a5761046a6113b7565b6000918252602090912001546001600160a01b03160361048f5760019250505061049e565b600101610436565b5060009150505b92915050565b6040516331a9108f60e11b81526004810183905261056f907f00000000000000000000000045452b26fe78d2b83247279f87c847f4f4a8fceb6001600160a01b031690636352211e90602401602060405180830381865afa15801561050d573d6000803e3d6000fd5b505050506040513d601f19601f82011682018060405250810190610531919061130b565b336000908152600260205260409020548490600e9060ff16801561056a57506000868152600160205260409020546001600160a01b0316155b61103a565b817f00000000000000000000000045452b26fe78d2b83247279f87c847f4f4a8fceb6001600160a01b03166306661abd6040518163ffffffff1660e01b8152600401602060405180830381865afa1580156105ce573d6000803e3d6000fd5b505050506040513d601f19601f820116820180604052508101906105f291906113cd565b101561061157604051634a283a5360e11b815260040160405180910390fd5b6000828152600160205260408120546001600160a01b0316908115806106a357506040516301ffc9a760e01b8152632877540760e01b60048201526001600160a01b038316906301ffc9a790602401602060405180830381865afa15801561067d573d6000803e3d6000fd5b505050506040513d601f19601f820116820180604052508101906106a191906113e6565b155b61071557604051632674968d60e21b8152600481018590526001600160a01b038316906399d25a3490602401602060405180830381865afa1580156106ec573d6000803e3d6000fd5b505050506040513d601f19601f8201168201806040525081019061071091906113e6565b610718565b60015b9050806107385760405163a33db4cb60e01b815260040160405180910390fd5b60008481526001602090815260409182902080546001600160a01b0319166001600160a01b038716908117909155915133815286917f7f9a7dcb234c909a09de2f344661ad9e5b24067adb97c908647c2edcbb121c3091015b60405180910390a350505050565b6107a761104a565b6107b16000611077565b565b6040516331a9108f60e11b815260048101849052610864907f00000000000000000000000045452b26fe78d2b83247279f87c847f4f4a8fceb6001600160a01b031690636352211e90602401602060405180830381865afa15801561081c573d6000803e3d6000fd5b505050506040513d601f19601f82011682018060405250810190610840919061130b565b6000858152600160205260409020548590600f906001600160a01b0316331461103a565b6000838152600160205260408082205490516301ffc9a760e01b8152632877540760e01b60048201526001600160a01b03909116919082906301ffc9a790602401602060405180830381865afa1580156108c2573d6000803e3d6000fd5b505050506040513d601f19601f820116820180604052508101906108e691906113e6565b1580610956575060405163b1a50e3360e01b8152600481018690526001600160a01b0383169063b1a50e3390602401602060405180830381865afa158015610932573d6000803e3d6000fd5b505050506040513d601f19601f8201168201806040525081019061095691906113e6565b6000868152600160205260409020549091506001600160a01b0316331480159061097e575080155b1561099c576040516375fef35f60e11b815260040160405180910390fd5b60008581526003602052604090206109b59085856110c7565b50826001811115610a745760005b81811015610a725760006109d8826001611403565b90505b82811015610a69578686828181106109f5576109f56113b7565b9050602002016020810190610a0a919061129a565b6001600160a01b0316878784818110610a2557610a256113b7565b9050602002016020810190610a3a919061129a565b6001600160a01b031603610a6157604051633e3830ab60e11b815260040160405180910390fd5b6001016109db565b506001016109c3565b505b857fb648241d83df6540fc10f2acc641e4bf80a1e84e7ae2f1f6b0ad204b8fee635b868633604051610aa893929190611424565b60405180910390a2505050505050565b60008281526004602090815260408083206001600160a01b0380861685529252822054168015801590610af05750610af08482610425565b15610afc57905061049e565b600084815260036020526040812054905b81811015610bd8576000868152600360205260408120805483908110610b3557610b356113b7565b6000918252602082200154604051633a01714f60e01b8152600481018a90526001600160a01b03898116602483015290911692508290633a01714f90604401606060405180830381865afa158015610b91573d6000803e3d6000fd5b505050506040513d601f19601f82011682018060405250810190610bb59190611328565b516001600160a01b031614610bcf57935061049e92505050565b50600101610b0d565b50600095945050505050565b610bec61104a565b6001600160a01b038216600081815260026020908152604091829020805460ff191685151590811790915591513381529192917f11207664cc48b0fa81c8674795f1d8f642960f38d5d2d305ad813093bed85fab910160405180910390a35050565b600081815260036020908152604091829020805483518184028101840190945280845260609392830182828015610cae57602002820191906000526020600020905b81546001600160a01b03168152600190910190602001808311610c90575b50505050509050919050565b610cc261104a565b6001600160a01b038116610cf157604051631e4fbdf760e01b8152600060048201526024015b60405180910390fd5b610cfa81611077565b50565b336001600160a01b0384168114801590610db4575060405163c161c93f60e01b81526001600160a01b038281166004830152858116602483015260448201859052606482018490527f000000000000000000000000a1ba58fca530d0b011646167c9eb81f54d9c9df6169063c161c93f90608401602060405180830381865afa158015610d8e573d6000803e3d6000fd5b505050506040513d601f19601f82011682018060405250810190610db291906113e6565b155b8015610e5d575060405163c161c93f60e01b81526001600160a01b038281166004830152858116602483015260006044830152606482018490527f000000000000000000000000a1ba58fca530d0b011646167c9eb81f54d9c9df6169063c161c93f90608401602060405180830381865afa158015610e37573d6000803e3d6000fd5b505050506040513d601f19601f82011682018060405250810190610e5b91906113e6565b155b15610e7b5760405163075fd2b160e01b815260040160405180910390fd5b50505050565b610e8b8282610425565b15610e94575050565b6000828152600160205260408082205490516301ffc9a760e01b8152632877540760e01b60048201526001600160a01b03909116919082906301ffc9a790602401602060405180830381865afa158015610ef2573d6000803e3d6000fd5b505050506040513d601f19601f82011682018060405250810190610f1691906113e6565b1580610f86575060405163b1a50e3360e01b8152600481018590526001600160a01b0383169063b1a50e3390602401602060405180830381865afa158015610f62573d6000803e3d6000fd5b505050506040513d601f19601f82011682018060405250810190610f8691906113e6565b6000858152600160205260409020549091506001600160a01b03163314801590610fae575080155b15610fcc576040516375fef35f60e11b815260040160405180910390fd5b600084815260036020908152604080832080546001810182559084529282902090920180546001600160a01b0319166001600160a01b038716908117909155915133815286917f409bccc07b7cf7807930526a24318212d614c59f2dde05a017a41efee144e7c89101610791565b80610e7b57610e7b848484610cfd565b6000546001600160a01b031633146107b15760405163118cdaa760e01b8152336004820152602401610ce8565b600080546001600160a01b038381166001600160a01b0319831681178455604051919092169283917f8be0079c531659141344cd1fd0a4f28419497f9722a3daafe3b4186f6b6457e09190a35050565b82805482825590600052602060002090810192821561111a579160200282015b8281111561111a5781546001600160a01b0319166001600160a01b038435161782556020909201916001909101906110e7565b5061112692915061112a565b5090565b5b80821115611126576000815560010161112b565b60006020828403121561115157600080fd5b5035919050565b6001600160a01b0381168114610cfa57600080fd5b60008060006060848603121561118257600080fd5b83359250602084013561119481611158565b915060408401356111a481611158565b809150509250925092565b600080604083850312156111c257600080fd5b8235915060208301356111d481611158565b809150509250929050565b6000806000604084860312156111f457600080fd5b83359250602084013567ffffffffffffffff8082111561121357600080fd5b818601915086601f83011261122757600080fd5b81358181111561123657600080fd5b8760208260051b850101111561124b57600080fd5b6020830194508093505050509250925092565b8015158114610cfa57600080fd5b6000806040838503121561127f57600080fd5b823561128a81611158565b915060208301356111d48161125e565b6000602082840312156112ac57600080fd5b81356112b781611158565b9392505050565b6020808252825182820181905260009190848201906040850190845b818110156112ff5783516001600160a01b0316835292840192918401916001016112da565b50909695505050505050565b60006020828403121561131d57600080fd5b81516112b781611158565b60006060828403121561133a57600080fd5b6040516060810181811067ffffffffffffffff8211171561136b57634e487b7160e01b600052604160045260246000fd5b604052825161137981611158565b8152602083015160ff8116811461138f57600080fd5b6020820152604083015163ffffffff811681146113ab57600080fd5b60408201529392505050565b634e487b7160e01b600052603260045260246000fd5b6000602082840312156113df57600080fd5b5051919050565b6000602082840312156113f857600080fd5b81516112b78161125e565b8082018082111561049e57634e487b7160e01b600052601160045260246000fd5b6040808252810183905260008460608301825b8681101561146757823561144a81611158565b6001600160a01b0316825260209283019290910190600101611437565b506001600160a01b0394909416602093909301929092525090939250505056fea2646970667358221220455485ce740f4c22d038bc8eb16abf44a5aa16a859605afc7a452fc8fb1082bb64736f6c63430008170033",
			"devdoc": {
				"kind": "dev",
				"methods": {
					"constructor": {
						"params": {
							"owner": "The address that will own the contract.",
							"permissions": "A contract storing permissions.",
							"projects": "A contract which mints ERC-721s that represent project ownership and transfers."
						}
					},
					"isTerminalOf(uint256,address)": {
						"params": {
							"projectId": "The ID of the project to check for the terminal.",
							"terminal": "The address of the terminal to check for."
						},
						"returns": {
							"_0": "A flag indicating whether or not the specified terminal is a terminal of the specified project."
						}
					},
					"owner()": {
						"details": "Returns the address of the current owner."
					},
					"primaryTerminalOf(uint256,address)": {
						"details": "The zero address is returned if a terminal isn't found for the specified token.",
						"params": {
							"projectId": "The ID of the project to get the primary terminal of.",
							"token": "The token the terminal accepts."
						},
						"returns": {
							"_0": "The address of the primary terminal for the specified project and token."
						}
					},
					"renounceOwnership()": {
						"details": "Leaves the contract without owner. It will not be possible to call `onlyOwner` functions. Can only be called by the current owner. NOTE: Renouncing ownership will leave the contract without an owner, thereby disabling any functionality that is only available to the owner."
					},
					"setControllerOf(uint256,address)": {
						"details": "A controller can be set if:- The project's ruleset allows setting the controller, and the message sender is the project owner or an operator with the `SET_CONTROLLER` permission from them.- OR the message sender is the project's current controller.- OR an allowedlisted address is setting a controller for a project that doesn't already have a controller.",
						"params": {
							"controller": "The address of the new controller to set for the project.",
							"projectId": "The ID of the project to set the controller of."
						}
					},
					"setIsAllowedToSetFirstController(address,bool)": {
						"details": "Only this contract's owner can call this function.These addresses are known and vetted controllers as well as contracts designed to launch new projects.A project can set its own controller without being on the allow list.If you would like an address/contract allowlisted, please reach out to the contract owner.",
						"params": {
							"addr": "The address to allow or not allow.",
							"flag": "Whether the address is allowed or not allowed to set first controllers for projects. Use `true` to allow and `false` to not allow."
						}
					},
					"setPrimaryTerminalOf(uint256,address,address)": {
						"details": "The primary terminal is where a token should be routed to by default.This is useful in case a project has several terminals connected for a particular token.If setting a newly added terminal and the ruleset doesn't allow new terminals, the caller must be the current controller.",
						"params": {
							"projectId": "The ID of the project a primary token is being set for.",
							"terminal": "The terminal to make the primary terminal for the project and token.",
							"token": "The token to set the primary terminal for."
						}
					},
					"setTerminalsOf(uint256,address[])": {
						"details": "Only a project's owner, an operator with the `SET_TERMINALS` permission from the owner, or the project's controller can set its terminals.Unless the caller is the project's controller, the project's ruleset must allow setting terminals.",
						"params": {
							"projectId": "The ID of the project to set terminals for.",
							"terminals": "An array of terminal addresses to set for the project."
						}
					},
					"terminalsOf(uint256)": {
						"params": {
							"projectId": "The ID of the project to get the terminals of."
						},
						"returns": {
							"_0": "An array of terminal addresses."
						}
					},
					"transferOwnership(address)": {
						"details": "Transfers ownership of the contract to a new account (`newOwner`). Can only be called by the current owner."
					}
				},
				"version": 1
			},
			"userdoc": {
				"kind": "user",
				"methods": {
					"PERMISSIONS()": {
						"notice": "A contract storing permissions."
					},
					"PROJECTS()": {
						"notice": "Mints ERC-721s that represent project ownership and transfers."
					},
					"controllerOf(uint256)": {
						"notice": "The controller, which dictates how terminals interact with tokens and rulesets, for a given project ID."
					},
					"isAllowedToSetFirstController(address)": {
						"notice": "Addresses allowed to set a project's first controller on their behalf. These addresses/contracts have been vetted and verified by this contract's owner."
					},
					"isTerminalOf(uint256,address)": {
						"notice": "Check if a specified project uses a specified terminal."
					},
					"primaryTerminalOf(uint256,address)": {
						"notice": "The primary terminal that a project is using to manage a specified token."
					},
					"setControllerOf(uint256,address)": {
						"notice": "Set a project's controller. Controllers manage how terminals interact with tokens and rulesets."
					},
					"setIsAllowedToSetFirstController(address,bool)": {
						"notice": "Add an address/contract to the list of trusted addresses which are allowed to set a first controller for projects."
					},
					"setPrimaryTerminalOf(uint256,address,address)": {
						"notice": "Set a project's primary terminal for a particular token."
					},
					"setTerminalsOf(uint256,address[])": {
						"notice": "Set a project's terminals."
					},
					"terminalsOf(uint256)": {
						"notice": "For  given project ID, the terminals which are currently managing that project's funds."
					}
				},
				"version": 1
			},
			"gitCommit": "62158c420c722b49faeb8974b2a980f19906fb7a",
			"sourceName": "src/JBDirectory.sol",
			"chainId": "11155111",
			"linkReferences": {},
			"deployedLinkReferences": {}
		},
		{
			"_format": "sphinx-sol-ct-artifact-1",
			"merkleRoot": "0xd585c33ce71711649e9771716c78530681c13a65cc62ef35805d17b1536fb647",
			"contractName": "JBDirectory",
			"address": "0x71Ff91C8A27b436f7025C053c01A3F6AAE3Fc62E",
			"abi": [
				{
					"type": "constructor",
					"inputs": [
						{
							"name": "permissions",
							"type": "address",
							"internalType": "contract IJBPermissions"
						},
						{
							"name": "projects",
							"type": "address",
							"internalType": "contract IJBProjects"
						},
						{
							"name": "owner",
							"type": "address",
							"internalType": "address"
						}
					],
					"stateMutability": "nonpayable"
				},
				{
					"type": "function",
					"name": "PERMISSIONS",
					"inputs": [],
					"outputs": [
						{
							"name": "",
							"type": "address",
							"internalType": "contract IJBPermissions"
						}
					],
					"stateMutability": "view"
				},
				{
					"type": "function",
					"name": "PROJECTS",
					"inputs": [],
					"outputs": [
						{
							"name": "",
							"type": "address",
							"internalType": "contract IJBProjects"
						}
					],
					"stateMutability": "view"
				},
				{
					"type": "function",
					"name": "controllerOf",
					"inputs": [
						{
							"name": "projectId",
							"type": "uint256",
							"internalType": "uint256"
						}
					],
					"outputs": [
						{
							"name": "",
							"type": "address",
							"internalType": "contract IERC165"
						}
					],
					"stateMutability": "view"
				},
				{
					"type": "function",
					"name": "isAllowedToSetFirstController",
					"inputs": [
						{
							"name": "addr",
							"type": "address",
							"internalType": "address"
						}
					],
					"outputs": [
						{
							"name": "",
							"type": "bool",
							"internalType": "bool"
						}
					],
					"stateMutability": "view"
				},
				{
					"type": "function",
					"name": "isTerminalOf",
					"inputs": [
						{
							"name": "projectId",
							"type": "uint256",
							"internalType": "uint256"
						},
						{
							"name": "terminal",
							"type": "address",
							"internalType": "contract IJBTerminal"
						}
					],
					"outputs": [
						{
							"name": "",
							"type": "bool",
							"internalType": "bool"
						}
					],
					"stateMutability": "view"
				},
				{
					"type": "function",
					"name": "owner",
					"inputs": [],
					"outputs": [
						{
							"name": "",
							"type": "address",
							"internalType": "address"
						}
					],
					"stateMutability": "view"
				},
				{
					"type": "function",
					"name": "primaryTerminalOf",
					"inputs": [
						{
							"name": "projectId",
							"type": "uint256",
							"internalType": "uint256"
						},
						{
							"name": "token",
							"type": "address",
							"internalType": "address"
						}
					],
					"outputs": [
						{
							"name": "",
							"type": "address",
							"internalType": "contract IJBTerminal"
						}
					],
					"stateMutability": "view"
				},
				{
					"type": "function",
					"name": "renounceOwnership",
					"inputs": [],
					"outputs": [],
					"stateMutability": "nonpayable"
				},
				{
					"type": "function",
					"name": "setControllerOf",
					"inputs": [
						{
							"name": "projectId",
							"type": "uint256",
							"internalType": "uint256"
						},
						{
							"name": "controller",
							"type": "address",
							"internalType": "contract IERC165"
						}
					],
					"outputs": [],
					"stateMutability": "nonpayable"
				},
				{
					"type": "function",
					"name": "setIsAllowedToSetFirstController",
					"inputs": [
						{
							"name": "addr",
							"type": "address",
							"internalType": "address"
						},
						{
							"name": "flag",
							"type": "bool",
							"internalType": "bool"
						}
					],
					"outputs": [],
					"stateMutability": "nonpayable"
				},
				{
					"type": "function",
					"name": "setPrimaryTerminalOf",
					"inputs": [
						{
							"name": "projectId",
							"type": "uint256",
							"internalType": "uint256"
						},
						{
							"name": "token",
							"type": "address",
							"internalType": "address"
						},
						{
							"name": "terminal",
							"type": "address",
							"internalType": "contract IJBTerminal"
						}
					],
					"outputs": [],
					"stateMutability": "nonpayable"
				},
				{
					"type": "function",
					"name": "setTerminalsOf",
					"inputs": [
						{
							"name": "projectId",
							"type": "uint256",
							"internalType": "uint256"
						},
						{
							"name": "terminals",
							"type": "address[]",
							"internalType": "contract IJBTerminal[]"
						}
					],
					"outputs": [],
					"stateMutability": "nonpayable"
				},
				{
					"type": "function",
					"name": "terminalsOf",
					"inputs": [
						{
							"name": "projectId",
							"type": "uint256",
							"internalType": "uint256"
						}
					],
					"outputs": [
						{
							"name": "",
							"type": "address[]",
							"internalType": "contract IJBTerminal[]"
						}
					],
					"stateMutability": "view"
				},
				{
					"type": "function",
					"name": "transferOwnership",
					"inputs": [
						{
							"name": "newOwner",
							"type": "address",
							"internalType": "address"
						}
					],
					"outputs": [],
					"stateMutability": "nonpayable"
				},
				{
					"type": "event",
					"name": "AddTerminal",
					"inputs": [
						{
							"name": "projectId",
							"type": "uint256",
							"indexed": true,
							"internalType": "uint256"
						},
						{
							"name": "terminal",
							"type": "address",
							"indexed": true,
							"internalType": "contract IJBTerminal"
						},
						{
							"name": "caller",
							"type": "address",
							"indexed": false,
							"internalType": "address"
						}
					],
					"anonymous": false
				},
				{
					"type": "event",
					"name": "OwnershipTransferred",
					"inputs": [
						{
							"name": "previousOwner",
							"type": "address",
							"indexed": true,
							"internalType": "address"
						},
						{
							"name": "newOwner",
							"type": "address",
							"indexed": true,
							"internalType": "address"
						}
					],
					"anonymous": false
				},
				{
					"type": "event",
					"name": "SetController",
					"inputs": [
						{
							"name": "projectId",
							"type": "uint256",
							"indexed": true,
							"internalType": "uint256"
						},
						{
							"name": "controller",
							"type": "address",
							"indexed": true,
							"internalType": "contract IERC165"
						},
						{
							"name": "caller",
							"type": "address",
							"indexed": false,
							"internalType": "address"
						}
					],
					"anonymous": false
				},
				{
					"type": "event",
					"name": "SetIsAllowedToSetFirstController",
					"inputs": [
						{
							"name": "addr",
							"type": "address",
							"indexed": true,
							"internalType": "address"
						},
						{
							"name": "flag",
							"type": "bool",
							"indexed": true,
							"internalType": "bool"
						},
						{
							"name": "caller",
							"type": "address",
							"indexed": false,
							"internalType": "address"
						}
					],
					"anonymous": false
				},
				{
					"type": "event",
					"name": "SetPrimaryTerminal",
					"inputs": [
						{
							"name": "projectId",
							"type": "uint256",
							"indexed": true,
							"internalType": "uint256"
						},
						{
							"name": "token",
							"type": "address",
							"indexed": true,
							"internalType": "address"
						},
						{
							"name": "terminal",
							"type": "address",
							"indexed": true,
							"internalType": "contract IJBTerminal"
						},
						{
							"name": "caller",
							"type": "address",
							"indexed": false,
							"internalType": "address"
						}
					],
					"anonymous": false
				},
				{
					"type": "event",
					"name": "SetTerminals",
					"inputs": [
						{
							"name": "projectId",
							"type": "uint256",
							"indexed": true,
							"internalType": "uint256"
						},
						{
							"name": "terminals",
							"type": "address[]",
							"indexed": false,
							"internalType": "contract IJBTerminal[]"
						},
						{
							"name": "caller",
							"type": "address",
							"indexed": false,
							"internalType": "address"
						}
					],
					"anonymous": false
				},
				{
					"type": "error",
					"name": "DUPLICATE_TERMINALS",
					"inputs": []
				},
				{
					"type": "error",
					"name": "INVALID_PROJECT_ID_IN_DIRECTORY",
					"inputs": []
				},
				{
					"type": "error",
					"name": "OwnableInvalidOwner",
					"inputs": [
						{
							"name": "owner",
							"type": "address",
							"internalType": "address"
						}
					]
				},
				{
					"type": "error",
					"name": "OwnableUnauthorizedAccount",
					"inputs": [
						{
							"name": "account",
							"type": "address",
							"internalType": "address"
						}
					]
				},
				{
					"type": "error",
					"name": "SET_CONTROLLER_NOT_ALLOWED",
					"inputs": []
				},
				{
					"type": "error",
					"name": "SET_TERMINALS_NOT_ALLOWED",
					"inputs": []
				},
				{
					"type": "error",
					"name": "TOKEN_NOT_ACCEPTED",
					"inputs": []
				},
				{
					"type": "error",
					"name": "UNAUTHORIZED",
					"inputs": []
				}
			],
			"solcInputHash": "9c8ada04ecb46a70149f6960114cde6f",
			"receipt": {
				"blockHash": "0xc2b33a61b39e2956de9ad0ae1650f6bffaa8001dd5599122a54aa18ad252b797",
				"blockNumber": 5617603,
				"contractAddress": null,
				"cumulativeGasUsed": "27130394",
				"from": "0xC034550B542b83BA1De312b21d1C94a9a52B1595",
				"gasPrice": "869416457",
				"gasUsed": "11057871",
				"hash": "0x8b30c98ccad39f23c8802d9bff667db649c844339eaade5f6892f5ceb5da3b94",
				"index": 119,
				"logs": [
					{
						"address": "0xB5E96127D417b1B3ef8438496a38A143167209c7",
						"blockHash": "0xc2b33a61b39e2956de9ad0ae1650f6bffaa8001dd5599122a54aa18ad252b797",
						"blockNumber": 5617603,
						"data": "0x0000000000000000000000000000000000000000000000000000000000000000",
						"index": 144,
						"topics": [
							"0x572f161235911da04685a68c06adf558fc7e4a36909dca394650e0adc19cc93d",
							"0x000000000000000000000000c034550b542b83ba1de312b21d1c94a9a52b1595",
							"0x000000000000000000000000ef1be3c049809cace5bc203bbe4ec1ab284bf75c",
							"0xc5212c8666c2907a266059df48729dc71c3a0cf49b2dd390bdabaab46a34cff1"
						],
						"transactionHash": "0x8b30c98ccad39f23c8802d9bff667db649c844339eaade5f6892f5ceb5da3b94",
						"transactionIndex": 119
					},
					{
						"address": "0x1081B5AA9D9d4862A3dA4d469433FB36Ed80FA2A",
						"blockHash": "0xc2b33a61b39e2956de9ad0ae1650f6bffaa8001dd5599122a54aa18ad252b797",
						"blockNumber": 5617603,
						"data": "0x000000000000000000000000953ab7f10efe861b21cfb9630768818a04742587",
						"index": 145,
						"topics": [
							"0x4db17dd5e4732fb6da34a148104a592783ca119a1e7bb8829eba6cbadef0b511"
						],
						"transactionHash": "0x8b30c98ccad39f23c8802d9bff667db649c844339eaade5f6892f5ceb5da3b94",
						"transactionIndex": 119
					},
					{
						"address": "0x1081B5AA9D9d4862A3dA4d469433FB36Ed80FA2A",
						"blockHash": "0xc2b33a61b39e2956de9ad0ae1650f6bffaa8001dd5599122a54aa18ad252b797",
						"blockNumber": 5617603,
						"data": "0x",
						"index": 146,
						"topics": [
							"0x6895c13664aa4f67288b25d7a21d7aaa34916e355fb9b6fae0a139a9085becb8",
							"0x000000000000000000000000ef1be3c049809cace5bc203bbe4ec1ab284bf75c"
						],
						"transactionHash": "0x8b30c98ccad39f23c8802d9bff667db649c844339eaade5f6892f5ceb5da3b94",
						"transactionIndex": 119
					},
					{
						"address": "0xEf1Be3C049809caCe5Bc203BBe4Ec1Ab284bF75c",
						"blockHash": "0xc2b33a61b39e2956de9ad0ae1650f6bffaa8001dd5599122a54aa18ad252b797",
						"blockNumber": 5617603,
						"data": "0x0000000000000000000000000000000000000000000000000000000000000001",
						"index": 147,
						"topics": [
							"0xa65fb05c5808f5f389d72edeaf719ce38f4cc55c1f69ca3cbfb31c21501caa07",
							"0xd585c33ce71711649e9771716c78530681c13a65cc62ef35805d17b1536fb647"
						],
						"transactionHash": "0x8b30c98ccad39f23c8802d9bff667db649c844339eaade5f6892f5ceb5da3b94",
						"transactionIndex": 119
					},
					{
						"address": "0xE9a6F248F9f8854E9f161c84c34F2589Ec362BE9",
						"blockHash": "0xc2b33a61b39e2956de9ad0ae1650f6bffaa8001dd5599122a54aa18ad252b797",
						"blockNumber": 5617603,
						"data": "0x",
						"index": 148,
						"topics": [
							"0x8be0079c531659141344cd1fd0a4f28419497f9722a3daafe3b4186f6b6457e0",
							"0x0000000000000000000000000000000000000000000000000000000000000000",
							"0x0000000000000000000000001081b5aa9d9d4862a3da4d469433fb36ed80fa2a"
						],
						"transactionHash": "0x8b30c98ccad39f23c8802d9bff667db649c844339eaade5f6892f5ceb5da3b94",
						"transactionIndex": 119
					},
					{
						"address": "0xE9a6F248F9f8854E9f161c84c34F2589Ec362BE9",
						"blockHash": "0xc2b33a61b39e2956de9ad0ae1650f6bffaa8001dd5599122a54aa18ad252b797",
						"blockNumber": 5617603,
						"data": "0x",
						"index": 149,
						"topics": [
							"0xddf252ad1be2c89b69c2b068fc378daa952ba7f163c4a11628f55a4df523b3ef",
							"0x0000000000000000000000000000000000000000000000000000000000000000",
							"0x0000000000000000000000001081b5aa9d9d4862a3da4d469433fb36ed80fa2a",
							"0x0000000000000000000000000000000000000000000000000000000000000001"
						],
						"transactionHash": "0x8b30c98ccad39f23c8802d9bff667db649c844339eaade5f6892f5ceb5da3b94",
						"transactionIndex": 119
					},
					{
						"address": "0xE9a6F248F9f8854E9f161c84c34F2589Ec362BE9",
						"blockHash": "0xc2b33a61b39e2956de9ad0ae1650f6bffaa8001dd5599122a54aa18ad252b797",
						"blockNumber": 5617603,
						"data": "0x0000000000000000000000001081b5aa9d9d4862a3da4d469433fb36ed80fa2a",
						"index": 150,
						"topics": [
							"0x365b3162cd780731fc55a794b59494d472bc2af701007f581843a70673814698",
							"0x0000000000000000000000000000000000000000000000000000000000000001",
							"0x0000000000000000000000001081b5aa9d9d4862a3da4d469433fb36ed80fa2a"
						],
						"transactionHash": "0x8b30c98ccad39f23c8802d9bff667db649c844339eaade5f6892f5ceb5da3b94",
						"transactionIndex": 119
					},
					{
						"address": "0x1081B5AA9D9d4862A3dA4d469433FB36Ed80FA2A",
						"blockHash": "0xc2b33a61b39e2956de9ad0ae1650f6bffaa8001dd5599122a54aa18ad252b797",
						"blockNumber": 5617603,
						"data": "0x000000000000000000000000e9a6f248f9f8854e9f161c84c34f2589ec362be9",
						"index": 151,
						"topics": [
							"0x4db17dd5e4732fb6da34a148104a592783ca119a1e7bb8829eba6cbadef0b511"
						],
						"transactionHash": "0x8b30c98ccad39f23c8802d9bff667db649c844339eaade5f6892f5ceb5da3b94",
						"transactionIndex": 119
					},
					{
						"address": "0x1081B5AA9D9d4862A3dA4d469433FB36Ed80FA2A",
						"blockHash": "0xc2b33a61b39e2956de9ad0ae1650f6bffaa8001dd5599122a54aa18ad252b797",
						"blockNumber": 5617603,
						"data": "0x",
						"index": 152,
						"topics": [
							"0x6895c13664aa4f67288b25d7a21d7aaa34916e355fb9b6fae0a139a9085becb8",
							"0x000000000000000000000000ef1be3c049809cace5bc203bbe4ec1ab284bf75c"
						],
						"transactionHash": "0x8b30c98ccad39f23c8802d9bff667db649c844339eaade5f6892f5ceb5da3b94",
						"transactionIndex": 119
					},
					{
						"address": "0xEf1Be3C049809caCe5Bc203BBe4Ec1Ab284bF75c",
						"blockHash": "0xc2b33a61b39e2956de9ad0ae1650f6bffaa8001dd5599122a54aa18ad252b797",
						"blockNumber": 5617603,
						"data": "0x0000000000000000000000000000000000000000000000000000000000000002",
						"index": 153,
						"topics": [
							"0xa65fb05c5808f5f389d72edeaf719ce38f4cc55c1f69ca3cbfb31c21501caa07",
							"0xd585c33ce71711649e9771716c78530681c13a65cc62ef35805d17b1536fb647"
						],
						"transactionHash": "0x8b30c98ccad39f23c8802d9bff667db649c844339eaade5f6892f5ceb5da3b94",
						"transactionIndex": 119
					},
					{
						"address": "0x71Ff91C8A27b436f7025C053c01A3F6AAE3Fc62E",
						"blockHash": "0xc2b33a61b39e2956de9ad0ae1650f6bffaa8001dd5599122a54aa18ad252b797",
						"blockNumber": 5617603,
						"data": "0x",
						"index": 154,
						"topics": [
							"0x8be0079c531659141344cd1fd0a4f28419497f9722a3daafe3b4186f6b6457e0",
							"0x0000000000000000000000000000000000000000000000000000000000000000",
							"0x0000000000000000000000001081b5aa9d9d4862a3da4d469433fb36ed80fa2a"
						],
						"transactionHash": "0x8b30c98ccad39f23c8802d9bff667db649c844339eaade5f6892f5ceb5da3b94",
						"transactionIndex": 119
					},
					{
						"address": "0x1081B5AA9D9d4862A3dA4d469433FB36Ed80FA2A",
						"blockHash": "0xc2b33a61b39e2956de9ad0ae1650f6bffaa8001dd5599122a54aa18ad252b797",
						"blockNumber": 5617603,
						"data": "0x00000000000000000000000071ff91c8a27b436f7025c053c01a3f6aae3fc62e",
						"index": 155,
						"topics": [
							"0x4db17dd5e4732fb6da34a148104a592783ca119a1e7bb8829eba6cbadef0b511"
						],
						"transactionHash": "0x8b30c98ccad39f23c8802d9bff667db649c844339eaade5f6892f5ceb5da3b94",
						"transactionIndex": 119
					},
					{
						"address": "0x1081B5AA9D9d4862A3dA4d469433FB36Ed80FA2A",
						"blockHash": "0xc2b33a61b39e2956de9ad0ae1650f6bffaa8001dd5599122a54aa18ad252b797",
						"blockNumber": 5617603,
						"data": "0x",
						"index": 156,
						"topics": [
							"0x6895c13664aa4f67288b25d7a21d7aaa34916e355fb9b6fae0a139a9085becb8",
							"0x000000000000000000000000ef1be3c049809cace5bc203bbe4ec1ab284bf75c"
						],
						"transactionHash": "0x8b30c98ccad39f23c8802d9bff667db649c844339eaade5f6892f5ceb5da3b94",
						"transactionIndex": 119
					},
					{
						"address": "0xEf1Be3C049809caCe5Bc203BBe4Ec1Ab284bF75c",
						"blockHash": "0xc2b33a61b39e2956de9ad0ae1650f6bffaa8001dd5599122a54aa18ad252b797",
						"blockNumber": 5617603,
						"data": "0x0000000000000000000000000000000000000000000000000000000000000003",
						"index": 157,
						"topics": [
							"0xa65fb05c5808f5f389d72edeaf719ce38f4cc55c1f69ca3cbfb31c21501caa07",
							"0xd585c33ce71711649e9771716c78530681c13a65cc62ef35805d17b1536fb647"
						],
						"transactionHash": "0x8b30c98ccad39f23c8802d9bff667db649c844339eaade5f6892f5ceb5da3b94",
						"transactionIndex": 119
					},
					{
						"address": "0x1081B5AA9D9d4862A3dA4d469433FB36Ed80FA2A",
						"blockHash": "0xc2b33a61b39e2956de9ad0ae1650f6bffaa8001dd5599122a54aa18ad252b797",
						"blockNumber": 5617603,
						"data": "0x000000000000000000000000c91586b6fe425d75c6b0f53daf9831811725bd2c",
						"index": 158,
						"topics": [
							"0x4db17dd5e4732fb6da34a148104a592783ca119a1e7bb8829eba6cbadef0b511"
						],
						"transactionHash": "0x8b30c98ccad39f23c8802d9bff667db649c844339eaade5f6892f5ceb5da3b94",
						"transactionIndex": 119
					},
					{
						"address": "0x1081B5AA9D9d4862A3dA4d469433FB36Ed80FA2A",
						"blockHash": "0xc2b33a61b39e2956de9ad0ae1650f6bffaa8001dd5599122a54aa18ad252b797",
						"blockNumber": 5617603,
						"data": "0x",
						"index": 159,
						"topics": [
							"0x6895c13664aa4f67288b25d7a21d7aaa34916e355fb9b6fae0a139a9085becb8",
							"0x000000000000000000000000ef1be3c049809cace5bc203bbe4ec1ab284bf75c"
						],
						"transactionHash": "0x8b30c98ccad39f23c8802d9bff667db649c844339eaade5f6892f5ceb5da3b94",
						"transactionIndex": 119
					},
					{
						"address": "0xEf1Be3C049809caCe5Bc203BBe4Ec1Ab284bF75c",
						"blockHash": "0xc2b33a61b39e2956de9ad0ae1650f6bffaa8001dd5599122a54aa18ad252b797",
						"blockNumber": 5617603,
						"data": "0x0000000000000000000000000000000000000000000000000000000000000004",
						"index": 160,
						"topics": [
							"0xa65fb05c5808f5f389d72edeaf719ce38f4cc55c1f69ca3cbfb31c21501caa07",
							"0xd585c33ce71711649e9771716c78530681c13a65cc62ef35805d17b1536fb647"
						],
						"transactionHash": "0x8b30c98ccad39f23c8802d9bff667db649c844339eaade5f6892f5ceb5da3b94",
						"transactionIndex": 119
					},
					{
						"address": "0x1081B5AA9D9d4862A3dA4d469433FB36Ed80FA2A",
						"blockHash": "0xc2b33a61b39e2956de9ad0ae1650f6bffaa8001dd5599122a54aa18ad252b797",
						"blockNumber": 5617603,
						"data": "0x00000000000000000000000076c87701d0ad2c5c3b40c36617ceba566436a69f",
						"index": 161,
						"topics": [
							"0x4db17dd5e4732fb6da34a148104a592783ca119a1e7bb8829eba6cbadef0b511"
						],
						"transactionHash": "0x8b30c98ccad39f23c8802d9bff667db649c844339eaade5f6892f5ceb5da3b94",
						"transactionIndex": 119
					},
					{
						"address": "0x1081B5AA9D9d4862A3dA4d469433FB36Ed80FA2A",
						"blockHash": "0xc2b33a61b39e2956de9ad0ae1650f6bffaa8001dd5599122a54aa18ad252b797",
						"blockNumber": 5617603,
						"data": "0x",
						"index": 162,
						"topics": [
							"0x6895c13664aa4f67288b25d7a21d7aaa34916e355fb9b6fae0a139a9085becb8",
							"0x000000000000000000000000ef1be3c049809cace5bc203bbe4ec1ab284bf75c"
						],
						"transactionHash": "0x8b30c98ccad39f23c8802d9bff667db649c844339eaade5f6892f5ceb5da3b94",
						"transactionIndex": 119
					},
					{
						"address": "0xEf1Be3C049809caCe5Bc203BBe4Ec1Ab284bF75c",
						"blockHash": "0xc2b33a61b39e2956de9ad0ae1650f6bffaa8001dd5599122a54aa18ad252b797",
						"blockNumber": 5617603,
						"data": "0x0000000000000000000000000000000000000000000000000000000000000005",
						"index": 163,
						"topics": [
							"0xa65fb05c5808f5f389d72edeaf719ce38f4cc55c1f69ca3cbfb31c21501caa07",
							"0xd585c33ce71711649e9771716c78530681c13a65cc62ef35805d17b1536fb647"
						],
						"transactionHash": "0x8b30c98ccad39f23c8802d9bff667db649c844339eaade5f6892f5ceb5da3b94",
						"transactionIndex": 119
					},
					{
						"address": "0xF11c4f44Aa6775d580F751C0956a22105E46D66C",
						"blockHash": "0xc2b33a61b39e2956de9ad0ae1650f6bffaa8001dd5599122a54aa18ad252b797",
						"blockNumber": 5617603,
						"data": "0x",
						"index": 164,
						"topics": [
							"0x8be0079c531659141344cd1fd0a4f28419497f9722a3daafe3b4186f6b6457e0",
							"0x0000000000000000000000000000000000000000000000000000000000000000",
							"0x000000000000000000000000f11c4f44aa6775d580f751c0956a22105e46d66c"
						],
						"transactionHash": "0x8b30c98ccad39f23c8802d9bff667db649c844339eaade5f6892f5ceb5da3b94",
						"transactionIndex": 119
					},
					{
						"address": "0x1081B5AA9D9d4862A3dA4d469433FB36Ed80FA2A",
						"blockHash": "0xc2b33a61b39e2956de9ad0ae1650f6bffaa8001dd5599122a54aa18ad252b797",
						"blockNumber": 5617603,
						"data": "0x000000000000000000000000f11c4f44aa6775d580f751c0956a22105e46d66c",
						"index": 165,
						"topics": [
							"0x4db17dd5e4732fb6da34a148104a592783ca119a1e7bb8829eba6cbadef0b511"
						],
						"transactionHash": "0x8b30c98ccad39f23c8802d9bff667db649c844339eaade5f6892f5ceb5da3b94",
						"transactionIndex": 119
					},
					{
						"address": "0x1081B5AA9D9d4862A3dA4d469433FB36Ed80FA2A",
						"blockHash": "0xc2b33a61b39e2956de9ad0ae1650f6bffaa8001dd5599122a54aa18ad252b797",
						"blockNumber": 5617603,
						"data": "0x",
						"index": 166,
						"topics": [
							"0x6895c13664aa4f67288b25d7a21d7aaa34916e355fb9b6fae0a139a9085becb8",
							"0x000000000000000000000000ef1be3c049809cace5bc203bbe4ec1ab284bf75c"
						],
						"transactionHash": "0x8b30c98ccad39f23c8802d9bff667db649c844339eaade5f6892f5ceb5da3b94",
						"transactionIndex": 119
					},
					{
						"address": "0xEf1Be3C049809caCe5Bc203BBe4Ec1Ab284bF75c",
						"blockHash": "0xc2b33a61b39e2956de9ad0ae1650f6bffaa8001dd5599122a54aa18ad252b797",
						"blockNumber": 5617603,
						"data": "0x0000000000000000000000000000000000000000000000000000000000000006",
						"index": 167,
						"topics": [
							"0xa65fb05c5808f5f389d72edeaf719ce38f4cc55c1f69ca3cbfb31c21501caa07",
							"0xd585c33ce71711649e9771716c78530681c13a65cc62ef35805d17b1536fb647"
						],
						"transactionHash": "0x8b30c98ccad39f23c8802d9bff667db649c844339eaade5f6892f5ceb5da3b94",
						"transactionIndex": 119
					},
					{
						"address": "0x1081B5AA9D9d4862A3dA4d469433FB36Ed80FA2A",
						"blockHash": "0xc2b33a61b39e2956de9ad0ae1650f6bffaa8001dd5599122a54aa18ad252b797",
						"blockNumber": 5617603,
						"data": "0x000000000000000000000000f25dce432b7ed1ccd5f0a2481f980862e359a092",
						"index": 168,
						"topics": [
							"0x4db17dd5e4732fb6da34a148104a592783ca119a1e7bb8829eba6cbadef0b511"
						],
						"transactionHash": "0x8b30c98ccad39f23c8802d9bff667db649c844339eaade5f6892f5ceb5da3b94",
						"transactionIndex": 119
					},
					{
						"address": "0x1081B5AA9D9d4862A3dA4d469433FB36Ed80FA2A",
						"blockHash": "0xc2b33a61b39e2956de9ad0ae1650f6bffaa8001dd5599122a54aa18ad252b797",
						"blockNumber": 5617603,
						"data": "0x",
						"index": 169,
						"topics": [
							"0x6895c13664aa4f67288b25d7a21d7aaa34916e355fb9b6fae0a139a9085becb8",
							"0x000000000000000000000000ef1be3c049809cace5bc203bbe4ec1ab284bf75c"
						],
						"transactionHash": "0x8b30c98ccad39f23c8802d9bff667db649c844339eaade5f6892f5ceb5da3b94",
						"transactionIndex": 119
					},
					{
						"address": "0xEf1Be3C049809caCe5Bc203BBe4Ec1Ab284bF75c",
						"blockHash": "0xc2b33a61b39e2956de9ad0ae1650f6bffaa8001dd5599122a54aa18ad252b797",
						"blockNumber": 5617603,
						"data": "0x0000000000000000000000000000000000000000000000000000000000000007",
						"index": 170,
						"topics": [
							"0xa65fb05c5808f5f389d72edeaf719ce38f4cc55c1f69ca3cbfb31c21501caa07",
							"0xd585c33ce71711649e9771716c78530681c13a65cc62ef35805d17b1536fb647"
						],
						"transactionHash": "0x8b30c98ccad39f23c8802d9bff667db649c844339eaade5f6892f5ceb5da3b94",
						"transactionIndex": 119
					},
					{
						"address": "0x1081B5AA9D9d4862A3dA4d469433FB36Ed80FA2A",
						"blockHash": "0xc2b33a61b39e2956de9ad0ae1650f6bffaa8001dd5599122a54aa18ad252b797",
						"blockNumber": 5617603,
						"data": "0x0000000000000000000000002ef536bf2b361b69bf21eb02ce8b11911869fa6c",
						"index": 171,
						"topics": [
							"0x4db17dd5e4732fb6da34a148104a592783ca119a1e7bb8829eba6cbadef0b511"
						],
						"transactionHash": "0x8b30c98ccad39f23c8802d9bff667db649c844339eaade5f6892f5ceb5da3b94",
						"transactionIndex": 119
					},
					{
						"address": "0x1081B5AA9D9d4862A3dA4d469433FB36Ed80FA2A",
						"blockHash": "0xc2b33a61b39e2956de9ad0ae1650f6bffaa8001dd5599122a54aa18ad252b797",
						"blockNumber": 5617603,
						"data": "0x",
						"index": 172,
						"topics": [
							"0x6895c13664aa4f67288b25d7a21d7aaa34916e355fb9b6fae0a139a9085becb8",
							"0x000000000000000000000000ef1be3c049809cace5bc203bbe4ec1ab284bf75c"
						],
						"transactionHash": "0x8b30c98ccad39f23c8802d9bff667db649c844339eaade5f6892f5ceb5da3b94",
						"transactionIndex": 119
					},
					{
						"address": "0xEf1Be3C049809caCe5Bc203BBe4Ec1Ab284bF75c",
						"blockHash": "0xc2b33a61b39e2956de9ad0ae1650f6bffaa8001dd5599122a54aa18ad252b797",
						"blockNumber": 5617603,
						"data": "0x0000000000000000000000000000000000000000000000000000000000000008",
						"index": 173,
						"topics": [
							"0xa65fb05c5808f5f389d72edeaf719ce38f4cc55c1f69ca3cbfb31c21501caa07",
							"0xd585c33ce71711649e9771716c78530681c13a65cc62ef35805d17b1536fb647"
						],
						"transactionHash": "0x8b30c98ccad39f23c8802d9bff667db649c844339eaade5f6892f5ceb5da3b94",
						"transactionIndex": 119
					}
				],
				"logsBloom": "0x00800000080010000008000000080200000000040008000000800000004000000060008000000001000000000040020000000000000000000000000000040000000000100000200420000008020000000001000000040000000200000000000000000000020000000000000000000800000000100020000010020010000200400001000800200000000100000000000000000000000000000000804000000000004000000010000000000000000000020200000000000000000000000006000000000002000000200000000008000000010100000000000020000000000060000000000000000004000000000040180200000000804000020000000000000000",
				"status": 1,
				"to": "0xB5E96127D417b1B3ef8438496a38A143167209c7"
			},
			"metadata": "{\"compiler\":{\"version\":\"0.8.23+commit.f704f362\"},\"language\":\"Solidity\",\"output\":{\"abi\":[{\"inputs\":[{\"internalType\":\"contract IJBPermissions\",\"name\":\"permissions\",\"type\":\"address\"},{\"internalType\":\"contract IJBProjects\",\"name\":\"projects\",\"type\":\"address\"},{\"internalType\":\"address\",\"name\":\"owner\",\"type\":\"address\"}],\"stateMutability\":\"nonpayable\",\"type\":\"constructor\"},{\"inputs\":[],\"type\":\"error\",\"name\":\"DUPLICATE_TERMINALS\"},{\"inputs\":[],\"type\":\"error\",\"name\":\"INVALID_PROJECT_ID_IN_DIRECTORY\"},{\"inputs\":[{\"internalType\":\"address\",\"name\":\"owner\",\"type\":\"address\"}],\"type\":\"error\",\"name\":\"OwnableInvalidOwner\"},{\"inputs\":[{\"internalType\":\"address\",\"name\":\"account\",\"type\":\"address\"}],\"type\":\"error\",\"name\":\"OwnableUnauthorizedAccount\"},{\"inputs\":[],\"type\":\"error\",\"name\":\"SET_CONTROLLER_NOT_ALLOWED\"},{\"inputs\":[],\"type\":\"error\",\"name\":\"SET_TERMINALS_NOT_ALLOWED\"},{\"inputs\":[],\"type\":\"error\",\"name\":\"TOKEN_NOT_ACCEPTED\"},{\"inputs\":[],\"type\":\"error\",\"name\":\"UNAUTHORIZED\"},{\"inputs\":[{\"internalType\":\"uint256\",\"name\":\"projectId\",\"type\":\"uint256\",\"indexed\":true},{\"internalType\":\"contract IJBTerminal\",\"name\":\"terminal\",\"type\":\"address\",\"indexed\":true},{\"internalType\":\"address\",\"name\":\"caller\",\"type\":\"address\",\"indexed\":false}],\"type\":\"event\",\"name\":\"AddTerminal\",\"anonymous\":false},{\"inputs\":[{\"internalType\":\"address\",\"name\":\"previousOwner\",\"type\":\"address\",\"indexed\":true},{\"internalType\":\"address\",\"name\":\"newOwner\",\"type\":\"address\",\"indexed\":true}],\"type\":\"event\",\"name\":\"OwnershipTransferred\",\"anonymous\":false},{\"inputs\":[{\"internalType\":\"uint256\",\"name\":\"projectId\",\"type\":\"uint256\",\"indexed\":true},{\"internalType\":\"contract IERC165\",\"name\":\"controller\",\"type\":\"address\",\"indexed\":true},{\"internalType\":\"address\",\"name\":\"caller\",\"type\":\"address\",\"indexed\":false}],\"type\":\"event\",\"name\":\"SetController\",\"anonymous\":false},{\"inputs\":[{\"internalType\":\"address\",\"name\":\"addr\",\"type\":\"address\",\"indexed\":true},{\"internalType\":\"bool\",\"name\":\"flag\",\"type\":\"bool\",\"indexed\":true},{\"internalType\":\"address\",\"name\":\"caller\",\"type\":\"address\",\"indexed\":false}],\"type\":\"event\",\"name\":\"SetIsAllowedToSetFirstController\",\"anonymous\":false},{\"inputs\":[{\"internalType\":\"uint256\",\"name\":\"projectId\",\"type\":\"uint256\",\"indexed\":true},{\"internalType\":\"address\",\"name\":\"token\",\"type\":\"address\",\"indexed\":true},{\"internalType\":\"contract IJBTerminal\",\"name\":\"terminal\",\"type\":\"address\",\"indexed\":true},{\"internalType\":\"address\",\"name\":\"caller\",\"type\":\"address\",\"indexed\":false}],\"type\":\"event\",\"name\":\"SetPrimaryTerminal\",\"anonymous\":false},{\"inputs\":[{\"internalType\":\"uint256\",\"name\":\"projectId\",\"type\":\"uint256\",\"indexed\":true},{\"internalType\":\"contract IJBTerminal[]\",\"name\":\"terminals\",\"type\":\"address[]\",\"indexed\":false},{\"internalType\":\"address\",\"name\":\"caller\",\"type\":\"address\",\"indexed\":false}],\"type\":\"event\",\"name\":\"SetTerminals\",\"anonymous\":false},{\"inputs\":[],\"stateMutability\":\"view\",\"type\":\"function\",\"name\":\"PERMISSIONS\",\"outputs\":[{\"internalType\":\"contract IJBPermissions\",\"name\":\"\",\"type\":\"address\"}]},{\"inputs\":[],\"stateMutability\":\"view\",\"type\":\"function\",\"name\":\"PROJECTS\",\"outputs\":[{\"internalType\":\"contract IJBProjects\",\"name\":\"\",\"type\":\"address\"}]},{\"inputs\":[{\"internalType\":\"uint256\",\"name\":\"projectId\",\"type\":\"uint256\"}],\"stateMutability\":\"view\",\"type\":\"function\",\"name\":\"controllerOf\",\"outputs\":[{\"internalType\":\"contract IERC165\",\"name\":\"\",\"type\":\"address\"}]},{\"inputs\":[{\"internalType\":\"address\",\"name\":\"addr\",\"type\":\"address\"}],\"stateMutability\":\"view\",\"type\":\"function\",\"name\":\"isAllowedToSetFirstController\",\"outputs\":[{\"internalType\":\"bool\",\"name\":\"\",\"type\":\"bool\"}]},{\"inputs\":[{\"internalType\":\"uint256\",\"name\":\"projectId\",\"type\":\"uint256\"},{\"internalType\":\"contract IJBTerminal\",\"name\":\"terminal\",\"type\":\"address\"}],\"stateMutability\":\"view\",\"type\":\"function\",\"name\":\"isTerminalOf\",\"outputs\":[{\"internalType\":\"bool\",\"name\":\"\",\"type\":\"bool\"}]},{\"inputs\":[],\"stateMutability\":\"view\",\"type\":\"function\",\"name\":\"owner\",\"outputs\":[{\"internalType\":\"address\",\"name\":\"\",\"type\":\"address\"}]},{\"inputs\":[{\"internalType\":\"uint256\",\"name\":\"projectId\",\"type\":\"uint256\"},{\"internalType\":\"address\",\"name\":\"token\",\"type\":\"address\"}],\"stateMutability\":\"view\",\"type\":\"function\",\"name\":\"primaryTerminalOf\",\"outputs\":[{\"internalType\":\"contract IJBTerminal\",\"name\":\"\",\"type\":\"address\"}]},{\"inputs\":[],\"stateMutability\":\"nonpayable\",\"type\":\"function\",\"name\":\"renounceOwnership\"},{\"inputs\":[{\"internalType\":\"uint256\",\"name\":\"projectId\",\"type\":\"uint256\"},{\"internalType\":\"contract IERC165\",\"name\":\"controller\",\"type\":\"address\"}],\"stateMutability\":\"nonpayable\",\"type\":\"function\",\"name\":\"setControllerOf\"},{\"inputs\":[{\"internalType\":\"address\",\"name\":\"addr\",\"type\":\"address\"},{\"internalType\":\"bool\",\"name\":\"flag\",\"type\":\"bool\"}],\"stateMutability\":\"nonpayable\",\"type\":\"function\",\"name\":\"setIsAllowedToSetFirstController\"},{\"inputs\":[{\"internalType\":\"uint256\",\"name\":\"projectId\",\"type\":\"uint256\"},{\"internalType\":\"address\",\"name\":\"token\",\"type\":\"address\"},{\"internalType\":\"contract IJBTerminal\",\"name\":\"terminal\",\"type\":\"address\"}],\"stateMutability\":\"nonpayable\",\"type\":\"function\",\"name\":\"setPrimaryTerminalOf\"},{\"inputs\":[{\"internalType\":\"uint256\",\"name\":\"projectId\",\"type\":\"uint256\"},{\"internalType\":\"contract IJBTerminal[]\",\"name\":\"terminals\",\"type\":\"address[]\"}],\"stateMutability\":\"nonpayable\",\"type\":\"function\",\"name\":\"setTerminalsOf\"},{\"inputs\":[{\"internalType\":\"uint256\",\"name\":\"projectId\",\"type\":\"uint256\"}],\"stateMutability\":\"view\",\"type\":\"function\",\"name\":\"terminalsOf\",\"outputs\":[{\"internalType\":\"contract IJBTerminal[]\",\"name\":\"\",\"type\":\"address[]\"}]},{\"inputs\":[{\"internalType\":\"address\",\"name\":\"newOwner\",\"type\":\"address\"}],\"stateMutability\":\"nonpayable\",\"type\":\"function\",\"name\":\"transferOwnership\"}],\"devdoc\":{\"kind\":\"dev\",\"methods\":{\"constructor\":{\"params\":{\"owner\":\"The address that will own the contract.\",\"permissions\":\"A contract storing permissions.\",\"projects\":\"A contract which mints ERC-721s that represent project ownership and transfers.\"}},\"isTerminalOf(uint256,address)\":{\"params\":{\"projectId\":\"The ID of the project to check.\",\"terminal\":\"The terminal to check for.\"},\"returns\":{\"_0\":\"A flag indicating whether the project uses the terminal.\"}},\"owner()\":{\"details\":\"Returns the address of the current owner.\"},\"primaryTerminalOf(uint256,address)\":{\"details\":\"Returns the first terminal that accepts the token if the project hasn't explicitly set a primary terminal for it.Returns the zero address if no terminal accepts the token.\",\"params\":{\"projectId\":\"The ID of the project to get the primary terminal of.\",\"token\":\"The token that the terminal accepts.\"},\"returns\":{\"_0\":\"The primary terminal's address.\"}},\"renounceOwnership()\":{\"details\":\"Leaves the contract without owner. It will not be possible to call `onlyOwner` functions. Can only be called by the current owner. NOTE: Renouncing ownership will leave the contract without an owner, thereby disabling any functionality that is only available to the owner.\"},\"setControllerOf(uint256,address)\":{\"details\":\"Can only be called if: - The ruleset's metadata has `allowSetController` enabled, and the message's sender is the project's owner or an address with the owner's permission to `SET_CONTROLLER`. - OR the message's sender is the project's current controller. - OR an address which `isAllowedToSetFirstController` is setting a project's first controller.\",\"params\":{\"controller\":\"The address of the controller to set.\",\"projectId\":\"The ID of the project whose controller is being set.\"}},\"setIsAllowedToSetFirstController(address,bool)\":{\"details\":\"Only this contract's owner can call this function.These addresses are vetted controllers as well as contracts designed to launch new projects.A project can set its own controller without being on this list.If you would like to add an address/contract to this list, please reach out to this contract's owner.\",\"params\":{\"addr\":\"The address to allow or not allow.\",\"flag\":\"Whether the address is allowed to set first controllers for projects. Use `true` to allow and `false` to not allow.\"}},\"setPrimaryTerminalOf(uint256,address,address)\":{\"details\":\"The primary terminal for a token is where payments in that token are routed to by default.This is useful in cases where a project has multiple terminals which accept the same token.Can only be called by the project's owner, or an address with the owner's permission to `SET_PRIMARY_TERMINAL`.\",\"params\":{\"projectId\":\"The ID of the project whose primary terminal is being set.\",\"terminal\":\"The terminal being set as the primary terminal.\",\"token\":\"The token to set the primary terminal for.\"}},\"setTerminalsOf(uint256,address[])\":{\"details\":\"Can only be called by the project's owner, an address with the owner's permission to `SET_TERMINALS`, or the project's controller.Unless the caller is the project's controller, the project's ruleset must allow setting terminals.\",\"params\":{\"projectId\":\"The ID of the project whose terminals are being set.\",\"terminals\":\"An array of terminal addresses to set for the project.\"}},\"terminalsOf(uint256)\":{\"params\":{\"projectId\":\"The ID of the project to get the terminals of.\"},\"returns\":{\"_0\":\"An array of the project's terminal addresses.\"}},\"transferOwnership(address)\":{\"details\":\"Transfers ownership of the contract to a new account (`newOwner`). Can only be called by the current owner.\"}},\"version\":1},\"userdoc\":{\"kind\":\"user\",\"methods\":{\"PERMISSIONS()\":{\"notice\":\"A contract storing permissions.\"},\"PROJECTS()\":{\"notice\":\"Mints ERC-721s that represent project ownership and transfers.\"},\"controllerOf(uint256)\":{\"notice\":\"The specified project's controller, which dictates how its terminals interact with its tokens and rulesets.\"},\"isAllowedToSetFirstController(address)\":{\"notice\":\"Whether the specified address is allowed to set a project's first controller on their behalf.\"},\"isTerminalOf(uint256,address)\":{\"notice\":\"Check if a project uses a specific terminal.\"},\"primaryTerminalOf(uint256,address)\":{\"notice\":\"The primary terminal that a project uses for the specified token.\"},\"setControllerOf(uint256,address)\":{\"notice\":\"Set a project's controller. Controllers manage how terminals interact with tokens and rulesets.\"},\"setIsAllowedToSetFirstController(address,bool)\":{\"notice\":\"Add or remove an address/contract from a list of trusted addresses which are allowed to set a first controller for projects.\"},\"setPrimaryTerminalOf(uint256,address,address)\":{\"notice\":\"Set a project's primary terminal for a token.\"},\"setTerminalsOf(uint256,address[])\":{\"notice\":\"Set a project's terminals.\"},\"terminalsOf(uint256)\":{\"notice\":\"The specified project's terminals.\"}},\"version\":1}},\"settings\":{\"remappings\":[\"@bananapus/=node_modules/@bananapus/\",\"@chainlink/=node_modules/@chainlink/\",\"@eth-optimism/=node_modules/@eth-optimism/\",\"@gnosis.pm/=node_modules/@gnosis.pm/\",\"@openzeppelin/=node_modules/@openzeppelin/\",\"@prb/=node_modules/@prb/\",\"@sphinx-labs/contracts/=lib/sphinx/packages/contracts/contracts/foundry/\",\"@uniswap/=node_modules/@uniswap/\",\"ds-test/=lib/forge-std/lib/ds-test/src/\",\"forge-std/=lib/forge-std/src/\",\"hardhat/=node_modules/hardhat/\",\"solmate/=node_modules/solmate/\",\"sphinx-forge-std/=node_modules/sphinx-forge-std/\",\"sphinx-solmate/=node_modules/sphinx-solmate/\",\"sphinx/=lib/sphinx/\"],\"optimizer\":{\"enabled\":true,\"runs\":200},\"metadata\":{\"bytecodeHash\":\"ipfs\"},\"compilationTarget\":{\"src/JBDirectory.sol\":\"JBDirectory\"},\"evmVersion\":\"paris\",\"libraries\":{}},\"sources\":{\"node_modules/@bananapus/permission-ids/src/JBPermissionIds.sol\":{\"keccak256\":\"0xf61109f6b217a80d5e5391f548fb6f2e451f7dbee3fabfc04cf17e88722203bc\",\"urls\":[\"bzz-raw://ac776ab1cd621c22bd7973471acdfa187f3abc659ad9a3ef6ed10b6447dfcf9c\",\"dweb:/ipfs/QmYLbaHt68qcuMzkiKpe96jMjiWUq1F3u8yMhxmZ3pnnWu\"],\"license\":\"MIT\"},\"node_modules/@openzeppelin/contracts/access/Ownable.sol\":{\"keccak256\":\"0xff6d0bb2e285473e5311d9d3caacb525ae3538a80758c10649a4d61029b017bb\",\"urls\":[\"bzz-raw://8ed324d3920bb545059d66ab97d43e43ee85fd3bd52e03e401f020afb0b120f6\",\"dweb:/ipfs/QmfEckWLmZkDDcoWrkEvMWhms66xwTLff9DDhegYpvHo1a\"],\"license\":\"MIT\"},\"node_modules/@openzeppelin/contracts/token/ERC721/IERC721.sol\":{\"keccak256\":\"0x5ef46daa3b58ef2702279d514780316efaa952915ee1aa3396f041ee2982b0b4\",\"urls\":[\"bzz-raw://2f8f2a76e23b02fc69e8cd24c3cb47da6c7af3a2d6c3a382f8ac25c6e094ade7\",\"dweb:/ipfs/QmPV4ZS4tPVv4mTCf9ejyZ1ai57EEibDRj7mN2ARDCLV5n\"],\"license\":\"MIT\"},\"node_modules/@openzeppelin/contracts/utils/Context.sol\":{\"keccak256\":\"0x493033a8d1b176a037b2cc6a04dad01a5c157722049bbecf632ca876224dd4b2\",\"urls\":[\"bzz-raw://6a708e8a5bdb1011c2c381c9a5cfd8a9a956d7d0a9dc1bd8bcdaf52f76ef2f12\",\"dweb:/ipfs/Qmax9WHBnVsZP46ZxEMNRQpLQnrdE4dK8LehML1Py8FowF\"],\"license\":\"MIT\"},\"node_modules/@openzeppelin/contracts/utils/introspection/IERC165.sol\":{\"keccak256\":\"0x4296879f55019b23e135000eb36896057e7101fb7fb859c5ef690cf14643757b\",\"urls\":[\"bzz-raw://87b3541437c8c443ccd36795e56a338ed12855eec17f8da624511b8d1a7e14df\",\"dweb:/ipfs/QmeJQCtZrQjtJLr6u7ZHWeH3pBnjtLWzvRrKViAi7UZqxL\"],\"license\":\"MIT\"},\"src/JBDirectory.sol\":{\"keccak256\":\"0x08563875685f8fd604222f93462f8e9b475ba716fc289ab4a427632d0e25bb64\",\"urls\":[\"bzz-raw://0b1f2c20d4a29dd508fae9d089f185d7c8cb32543d04652da546bf7b1aa167a3\",\"dweb:/ipfs/QmPmcqZrybGottboAaYn7Seir8dbzABPYMSATFPnL9DDY2\"],\"license\":\"MIT\"},\"src/abstract/JBPermissioned.sol\":{\"keccak256\":\"0xe08c8a7eeac9d1c7c2e0db6d5b98d1af09889300835a3d47d9f29319fecce703\",\"urls\":[\"bzz-raw://42645cf52bcc45053ef650790916faed5d0a74cecef336b217433fdd2c5c4166\",\"dweb:/ipfs/QmdMmxG1tSGucQwz4LYbVnuj7HU23YvqLH6xfrNWv5Bmus\"],\"license\":\"MIT\"},\"src/interfaces/IJBDirectory.sol\":{\"keccak256\":\"0x9cc380844aef60078ee47a61861e55a29c4a8c947efd556ebd36e6909f7b9d62\",\"urls\":[\"bzz-raw://9f5190ec8b6683d9781ee6e9eedcc91294753242748875d4a06349077e4cbaaf\",\"dweb:/ipfs/QmTQrPuXT9TCA4txwrperMeXSGvGxP8iokUK47f62F388i\"],\"license\":\"MIT\"},\"src/interfaces/IJBDirectoryAccessControl.sol\":{\"keccak256\":\"0x1e67f56849320a46f834aaa9bd62b170ff8ada7b224b4a81136193740fa0be4d\",\"urls\":[\"bzz-raw://ea8fbcec44abfe49d137bcae129b67e5479d6b17879301f88534c8a7fab00be4\",\"dweb:/ipfs/QmT6wrtYX4GRpffHUzupNwYebJ1dqkkKZLEewWsoyunsqw\"],\"license\":\"MIT\"},\"src/interfaces/IJBPayHook.sol\":{\"keccak256\":\"0x9438866782c652c2942f4d114e35f393cd3c8b0334abce8387eed90bca35e8b2\",\"urls\":[\"bzz-raw://cfd99daf57213f92325aad7d7d16e98476d38e870470e95ba01e3ae3cdecc95d\",\"dweb:/ipfs/QmUKKAVGf7ki8BHksr99tFcRW8APveeB5tNH63ctTbbCW8\"],\"license\":\"MIT\"},\"src/interfaces/IJBPermissioned.sol\":{\"keccak256\":\"0x5b038d4dee116584e88b230920e56d48e135053e3f7e5642eaea14a775c1dad7\",\"urls\":[\"bzz-raw://19e43102f349fd4a1da1c0943ffb8f2950007fe4bb4bb7e8f74fc142575d091b\",\"dweb:/ipfs/QmXHAt4KzDTdDZgDDefEXH2WKi7NcfkJb9R7nxW5uDqsNp\"],\"license\":\"MIT\"},\"src/interfaces/IJBPermissions.sol\":{\"keccak256\":\"0x18870e500edf0fbadc353e273a5574701fb80466376b908c65e7cc3f11044d4d\",\"urls\":[\"bzz-raw://352a47c45853aec80e7acf0d286ade3106eb4cb456776b28a3c2f3f1091bed90\",\"dweb:/ipfs/QmQeYd3YbudYZy2hfbfht9kwhxhw4tuuLKMEYy9UY6dcSy\"],\"license\":\"MIT\"},\"src/interfaces/IJBProjects.sol\":{\"keccak256\":\"0x735c2fb8f1fa827f054ee77f7a0ae4b312656217acb75b624d2c8fd9dc40151b\",\"urls\":[\"bzz-raw://ee7fc92299a8633a80693ae63ab494dcd125f1789487a54a39dc0e5696e5996f\",\"dweb:/ipfs/QmX7YJD4pS2XhgQb7p3JbBAXynT7YGPXcZe92BiWWRrsCL\"],\"license\":\"MIT\"},\"src/interfaces/IJBTerminal.sol\":{\"keccak256\":\"0x19dc9bf8cbdc8f13ee5da9dc3a87047eacb94a3fc19740a286c1f0bad2cc39ca\",\"urls\":[\"bzz-raw://0b05ae6fda9a85672508232fd992b8a5f5ffd8096622eeb12c8a7b3317eb3867\",\"dweb:/ipfs/QmNh9Quj37BXYGdTdcCD1Q58PchRsE5TLbEZep56qS3MpV\"],\"license\":\"MIT\"},\"src/interfaces/IJBTokenUriResolver.sol\":{\"keccak256\":\"0xfa5cb00dcd6085d1ef912d071fe73c63f9478a2cd0f9d8bddaf659b6af2d0967\",\"urls\":[\"bzz-raw://282e4e7c342d65f77cde0e9a08fcaf20ef5cf379c7a48b639842c0ffd0b2afb8\",\"dweb:/ipfs/QmbnN3PEQeZaXdPLT75V1J79kMg7KqSMru37RHrL3z8Yf2\"],\"license\":\"MIT\"},\"src/structs/JBAccountingContext.sol\":{\"keccak256\":\"0x2907ff54d1e903cc7e0390dd88c3975884702dc2673642aacbe22b66560b56de\",\"urls\":[\"bzz-raw://a66a5381ce877b32f0e0058ceeaf843e9b6b2bc8af666c0c9f4a9d01091da004\",\"dweb:/ipfs/QmQynCetUr37dBkS1YwDS8evxuXGiqanW6THmeUxXtim8w\"],\"license\":\"MIT\"},\"src/structs/JBAfterPayRecordedContext.sol\":{\"keccak256\":\"0xd26c3a774ff38be79064085970454fe2603a23a638c76270d5b1b3829206c3e8\",\"urls\":[\"bzz-raw://3b55dbe3bf1ef625b7ca04efab3de35406e6041d5b3d82c7265469c500e2b702\",\"dweb:/ipfs/QmUdBDo4Lt3mcsFcsXT2mqq3czFwZjQJFPLM89YA2VtD7k\"],\"license\":\"MIT\"},\"src/structs/JBPermissionsData.sol\":{\"keccak256\":\"0x8f0f69a6ebf5f3704e3dfcb3712fb9d3f94ae7c1ab89bf3e37bad42a3e7a0487\",\"urls\":[\"bzz-raw://57b0c5e52843e2217082889ed47b4da3943e0da4590d5768dcebfe3edad4a6b8\",\"dweb:/ipfs/QmRz48vuWLw81kUP836rh1qzqWiJFGbksgRUA9xGEDNKTY\"],\"license\":\"MIT\"},\"src/structs/JBTokenAmount.sol\":{\"keccak256\":\"0x5cf0626b73a596c1e2da17c89ae039a7c0374310b060d48568d3b6c11fbe6180\",\"urls\":[\"bzz-raw://63348b50be95e2995409394a17caffc563a646f0972650a1230bf864fbd3219b\",\"dweb:/ipfs/QmZXZpS3SbFD5nWaCauf6AqbEhLURv5qsKHpThBvQgDU6u\"],\"license\":\"MIT\"}},\"version\":1}",
			"args": [
				"0x953AB7f10EfE861B21CfB9630768818A04742587",
				"0xE9a6F248F9f8854E9f161c84c34F2589Ec362BE9",
				"0x1081B5AA9D9d4862A3dA4d469433FB36Ed80FA2A"
			],
			"bytecode": "0x60c06040523480156200001157600080fd5b5060405162001654380380620016548339810160408190526200003491620000f4565b6001600160a01b03808416608052819081166200006b57604051631e4fbdf760e01b81526000600482015260240160405180910390fd5b62000076816200008b565b50506001600160a01b031660a0525062000148565b600080546001600160a01b038381166001600160a01b0319831681178455604051919092169283917f8be0079c531659141344cd1fd0a4f28419497f9722a3daafe3b4186f6b6457e09190a35050565b6001600160a01b0381168114620000f157600080fd5b50565b6000806000606084860312156200010a57600080fd5b83516200011781620000db565b60208501519093506200012a81620000db565b60408501519092506200013d81620000db565b809150509250925092565b60805160a0516114bd620001976000396000818160f401528181610290015281816104be0152818161057201526107cd01526000818161025401528181610d470152610df001526114bd6000f3fe608060405234801561001057600080fd5b50600436106100ea5760003560e01c8063862026501161008c578063c5664e2111610066578063c5664e21146101f9578063d17541531461021c578063f2fde38b1461023c578063f434c9141461024f57600080fd5b806386202650146101c25780638da5cb5b146101d5578063a1ed3175146101e657600080fd5b80636e49181f116100c85780636e49181f14610171578063714e7f3214610194578063715018a6146101a7578063821b9fd8146101af57600080fd5b8063293c4999146100ef5780635dd8f6aa1461013357806363d0850a1461015c575b600080fd5b6101167f000000000000000000000000000000000000000000000000000000000000000081565b6040516001600160a01b0390911681526020015b60405180910390f35b61011661014136600461113f565b6001602052600090815260409020546001600160a01b031681565b61016f61016a36600461116d565b610276565b005b61018461017f3660046111af565b610425565b604051901515815260200161012a565b61016f6101a23660046111af565b6104a4565b61016f61079f565b61016f6101bd3660046111df565b6107b3565b6101166101d03660046111af565b610ab8565b6000546001600160a01b0316610116565b61016f6101f436600461126c565b610be4565b61018461020736600461129a565b60026020526000908152604090205460ff1681565b61022f61022a36600461113f565b610c4e565b60405161012a91906112be565b61016f61024a36600461129a565b610cba565b6101167f000000000000000000000000000000000000000000000000000000000000000081565b6040516331a9108f60e11b81526004810184905261030b907f00000000000000000000000000000000000000000000000000000000000000006001600160a01b031690636352211e90602401602060405180830381865afa1580156102df573d6000803e3d6000fd5b505050506040513d601f19601f82011682018060405250810190610303919061130b565b84600f610cfd565b604051633a01714f60e01b8152600481018490526001600160a01b03838116602483015260009190831690633a01714f90604401606060405180830381865afa15801561035c573d6000803e3d6000fd5b505050506040513d601f19601f820116820180604052508101906103809190611328565b516001600160a01b0316036103a857604051630faa917b60e11b815260040160405180910390fd5b6103b28382610e81565b60008381526004602090815260408083206001600160a01b038681168086529184529382902080546001600160a01b03191694861694851790559051338152909186917fc670a502bbb9f8a4315f95eca901a9f99b65f89a2eb5705a58050e5c00f9d672910160405180910390a4505050565b600082815260036020526040812054815b8181101561049757600085815260036020526040902080546001600160a01b03861691908390811061046a5761046a6113b7565b6000918252602090912001546001600160a01b03160361048f5760019250505061049e565b600101610436565b5060009150505b92915050565b6040516331a9108f60e11b81526004810183905261056f907f00000000000000000000000000000000000000000000000000000000000000006001600160a01b031690636352211e90602401602060405180830381865afa15801561050d573d6000803e3d6000fd5b505050506040513d601f19601f82011682018060405250810190610531919061130b565b336000908152600260205260409020548490600d9060ff16801561056a57506000868152600160205260409020546001600160a01b0316155b61103a565b817f00000000000000000000000000000000000000000000000000000000000000006001600160a01b03166306661abd6040518163ffffffff1660e01b8152600401602060405180830381865afa1580156105ce573d6000803e3d6000fd5b505050506040513d601f19601f820116820180604052508101906105f291906113cd565b101561061157604051634a283a5360e11b815260040160405180910390fd5b6000828152600160205260408120546001600160a01b0316908115806106a357506040516301ffc9a760e01b8152632877540760e01b60048201526001600160a01b038316906301ffc9a790602401602060405180830381865afa15801561067d573d6000803e3d6000fd5b505050506040513d601f19601f820116820180604052508101906106a191906113e6565b155b61071557604051632674968d60e21b8152600481018590526001600160a01b038316906399d25a3490602401602060405180830381865afa1580156106ec573d6000803e3d6000fd5b505050506040513d601f19601f8201168201806040525081019061071091906113e6565b610718565b60015b9050806107385760405163a33db4cb60e01b815260040160405180910390fd5b60008481526001602090815260409182902080546001600160a01b0319166001600160a01b038716908117909155915133815286917f7f9a7dcb234c909a09de2f344661ad9e5b24067adb97c908647c2edcbb121c3091015b60405180910390a350505050565b6107a761104a565b6107b16000611077565b565b6040516331a9108f60e11b815260048101849052610864907f00000000000000000000000000000000000000000000000000000000000000006001600160a01b031690636352211e90602401602060405180830381865afa15801561081c573d6000803e3d6000fd5b505050506040513d601f19601f82011682018060405250810190610840919061130b565b6000858152600160205260409020548590600e906001600160a01b0316331461103a565b6000838152600160205260408082205490516301ffc9a760e01b8152632877540760e01b60048201526001600160a01b03909116919082906301ffc9a790602401602060405180830381865afa1580156108c2573d6000803e3d6000fd5b505050506040513d601f19601f820116820180604052508101906108e691906113e6565b1580610956575060405163b1a50e3360e01b8152600481018690526001600160a01b0383169063b1a50e3390602401602060405180830381865afa158015610932573d6000803e3d6000fd5b505050506040513d601f19601f8201168201806040525081019061095691906113e6565b6000868152600160205260409020549091506001600160a01b0316331480159061097e575080155b1561099c576040516375fef35f60e11b815260040160405180910390fd5b60008581526003602052604090206109b59085856110c7565b50826001811115610a745760005b81811015610a725760006109d8826001611403565b90505b82811015610a69578686828181106109f5576109f56113b7565b9050602002016020810190610a0a919061129a565b6001600160a01b0316878784818110610a2557610a256113b7565b9050602002016020810190610a3a919061129a565b6001600160a01b031603610a6157604051633e3830ab60e11b815260040160405180910390fd5b6001016109db565b506001016109c3565b505b857fb648241d83df6540fc10f2acc641e4bf80a1e84e7ae2f1f6b0ad204b8fee635b868633604051610aa893929190611424565b60405180910390a2505050505050565b60008281526004602090815260408083206001600160a01b0380861685529252822054168015801590610af05750610af08482610425565b15610afc57905061049e565b600084815260036020526040812054905b81811015610bd8576000868152600360205260408120805483908110610b3557610b356113b7565b6000918252602082200154604051633a01714f60e01b8152600481018a90526001600160a01b03898116602483015290911692508290633a01714f90604401606060405180830381865afa158015610b91573d6000803e3d6000fd5b505050506040513d601f19601f82011682018060405250810190610bb59190611328565b516001600160a01b031614610bcf57935061049e92505050565b50600101610b0d565b50600095945050505050565b610bec61104a565b6001600160a01b038216600081815260026020908152604091829020805460ff191685151590811790915591513381529192917f11207664cc48b0fa81c8674795f1d8f642960f38d5d2d305ad813093bed85fab910160405180910390a35050565b600081815260036020908152604091829020805483518184028101840190945280845260609392830182828015610cae57602002820191906000526020600020905b81546001600160a01b03168152600190910190602001808311610c90575b50505050509050919050565b610cc261104a565b6001600160a01b038116610cf157604051631e4fbdf760e01b8152600060048201526024015b60405180910390fd5b610cfa81611077565b50565b336001600160a01b0384168114801590610db4575060405163c161c93f60e01b81526001600160a01b038281166004830152858116602483015260448201859052606482018490527f0000000000000000000000000000000000000000000000000000000000000000169063c161c93f90608401602060405180830381865afa158015610d8e573d6000803e3d6000fd5b505050506040513d601f19601f82011682018060405250810190610db291906113e6565b155b8015610e5d575060405163c161c93f60e01b81526001600160a01b038281166004830152858116602483015260006044830152606482018490527f0000000000000000000000000000000000000000000000000000000000000000169063c161c93f90608401602060405180830381865afa158015610e37573d6000803e3d6000fd5b505050506040513d601f19601f82011682018060405250810190610e5b91906113e6565b155b15610e7b5760405163075fd2b160e01b815260040160405180910390fd5b50505050565b610e8b8282610425565b15610e94575050565b6000828152600160205260408082205490516301ffc9a760e01b8152632877540760e01b60048201526001600160a01b03909116919082906301ffc9a790602401602060405180830381865afa158015610ef2573d6000803e3d6000fd5b505050506040513d601f19601f82011682018060405250810190610f1691906113e6565b1580610f86575060405163b1a50e3360e01b8152600481018590526001600160a01b0383169063b1a50e3390602401602060405180830381865afa158015610f62573d6000803e3d6000fd5b505050506040513d601f19601f82011682018060405250810190610f8691906113e6565b6000858152600160205260409020549091506001600160a01b03163314801590610fae575080155b15610fcc576040516375fef35f60e11b815260040160405180910390fd5b600084815260036020908152604080832080546001810182559084529282902090920180546001600160a01b0319166001600160a01b038716908117909155915133815286917f409bccc07b7cf7807930526a24318212d614c59f2dde05a017a41efee144e7c89101610791565b80610e7b57610e7b848484610cfd565b6000546001600160a01b031633146107b15760405163118cdaa760e01b8152336004820152602401610ce8565b600080546001600160a01b038381166001600160a01b0319831681178455604051919092169283917f8be0079c531659141344cd1fd0a4f28419497f9722a3daafe3b4186f6b6457e09190a35050565b82805482825590600052602060002090810192821561111a579160200282015b8281111561111a5781546001600160a01b0319166001600160a01b038435161782556020909201916001909101906110e7565b5061112692915061112a565b5090565b5b80821115611126576000815560010161112b565b60006020828403121561115157600080fd5b5035919050565b6001600160a01b0381168114610cfa57600080fd5b60008060006060848603121561118257600080fd5b83359250602084013561119481611158565b915060408401356111a481611158565b809150509250925092565b600080604083850312156111c257600080fd5b8235915060208301356111d481611158565b809150509250929050565b6000806000604084860312156111f457600080fd5b83359250602084013567ffffffffffffffff8082111561121357600080fd5b818601915086601f83011261122757600080fd5b81358181111561123657600080fd5b8760208260051b850101111561124b57600080fd5b6020830194508093505050509250925092565b8015158114610cfa57600080fd5b6000806040838503121561127f57600080fd5b823561128a81611158565b915060208301356111d48161125e565b6000602082840312156112ac57600080fd5b81356112b781611158565b9392505050565b6020808252825182820181905260009190848201906040850190845b818110156112ff5783516001600160a01b0316835292840192918401916001016112da565b50909695505050505050565b60006020828403121561131d57600080fd5b81516112b781611158565b60006060828403121561133a57600080fd5b6040516060810181811067ffffffffffffffff8211171561136b57634e487b7160e01b600052604160045260246000fd5b604052825161137981611158565b8152602083015160ff8116811461138f57600080fd5b6020820152604083015163ffffffff811681146113ab57600080fd5b60408201529392505050565b634e487b7160e01b600052603260045260246000fd5b6000602082840312156113df57600080fd5b5051919050565b6000602082840312156113f857600080fd5b81516112b78161125e565b8082018082111561049e57634e487b7160e01b600052601160045260246000fd5b6040808252810183905260008460608301825b8681101561146757823561144a81611158565b6001600160a01b0316825260209283019290910190600101611437565b506001600160a01b0394909416602093909301929092525090939250505056fea264697066735822122087dc51bb97d5f5652bd27340279d2a9754497e37d46c1f365b2ab0342cda98f564736f6c63430008170033",
			"deployedBytecode": "0x608060405234801561001057600080fd5b50600436106100ea5760003560e01c8063862026501161008c578063c5664e2111610066578063c5664e21146101f9578063d17541531461021c578063f2fde38b1461023c578063f434c9141461024f57600080fd5b806386202650146101c25780638da5cb5b146101d5578063a1ed3175146101e657600080fd5b80636e49181f116100c85780636e49181f14610171578063714e7f3214610194578063715018a6146101a7578063821b9fd8146101af57600080fd5b8063293c4999146100ef5780635dd8f6aa1461013357806363d0850a1461015c575b600080fd5b6101167f000000000000000000000000e9a6f248f9f8854e9f161c84c34f2589ec362be981565b6040516001600160a01b0390911681526020015b60405180910390f35b61011661014136600461113f565b6001602052600090815260409020546001600160a01b031681565b61016f61016a36600461116d565b610276565b005b61018461017f3660046111af565b610425565b604051901515815260200161012a565b61016f6101a23660046111af565b6104a4565b61016f61079f565b61016f6101bd3660046111df565b6107b3565b6101166101d03660046111af565b610ab8565b6000546001600160a01b0316610116565b61016f6101f436600461126c565b610be4565b61018461020736600461129a565b60026020526000908152604090205460ff1681565b61022f61022a36600461113f565b610c4e565b60405161012a91906112be565b61016f61024a36600461129a565b610cba565b6101167f000000000000000000000000953ab7f10efe861b21cfb9630768818a0474258781565b6040516331a9108f60e11b81526004810184905261030b907f000000000000000000000000e9a6f248f9f8854e9f161c84c34f2589ec362be96001600160a01b031690636352211e90602401602060405180830381865afa1580156102df573d6000803e3d6000fd5b505050506040513d601f19601f82011682018060405250810190610303919061130b565b84600f610cfd565b604051633a01714f60e01b8152600481018490526001600160a01b03838116602483015260009190831690633a01714f90604401606060405180830381865afa15801561035c573d6000803e3d6000fd5b505050506040513d601f19601f820116820180604052508101906103809190611328565b516001600160a01b0316036103a857604051630faa917b60e11b815260040160405180910390fd5b6103b28382610e81565b60008381526004602090815260408083206001600160a01b038681168086529184529382902080546001600160a01b03191694861694851790559051338152909186917fc670a502bbb9f8a4315f95eca901a9f99b65f89a2eb5705a58050e5c00f9d672910160405180910390a4505050565b600082815260036020526040812054815b8181101561049757600085815260036020526040902080546001600160a01b03861691908390811061046a5761046a6113b7565b6000918252602090912001546001600160a01b03160361048f5760019250505061049e565b600101610436565b5060009150505b92915050565b6040516331a9108f60e11b81526004810183905261056f907f000000000000000000000000e9a6f248f9f8854e9f161c84c34f2589ec362be96001600160a01b031690636352211e90602401602060405180830381865afa15801561050d573d6000803e3d6000fd5b505050506040513d601f19601f82011682018060405250810190610531919061130b565b336000908152600260205260409020548490600d9060ff16801561056a57506000868152600160205260409020546001600160a01b0316155b61103a565b817f000000000000000000000000e9a6f248f9f8854e9f161c84c34f2589ec362be96001600160a01b03166306661abd6040518163ffffffff1660e01b8152600401602060405180830381865afa1580156105ce573d6000803e3d6000fd5b505050506040513d601f19601f820116820180604052508101906105f291906113cd565b101561061157604051634a283a5360e11b815260040160405180910390fd5b6000828152600160205260408120546001600160a01b0316908115806106a357506040516301ffc9a760e01b8152632877540760e01b60048201526001600160a01b038316906301ffc9a790602401602060405180830381865afa15801561067d573d6000803e3d6000fd5b505050506040513d601f19601f820116820180604052508101906106a191906113e6565b155b61071557604051632674968d60e21b8152600481018590526001600160a01b038316906399d25a3490602401602060405180830381865afa1580156106ec573d6000803e3d6000fd5b505050506040513d601f19601f8201168201806040525081019061071091906113e6565b610718565b60015b9050806107385760405163a33db4cb60e01b815260040160405180910390fd5b60008481526001602090815260409182902080546001600160a01b0319166001600160a01b038716908117909155915133815286917f7f9a7dcb234c909a09de2f344661ad9e5b24067adb97c908647c2edcbb121c3091015b60405180910390a350505050565b6107a761104a565b6107b16000611077565b565b6040516331a9108f60e11b815260048101849052610864907f000000000000000000000000e9a6f248f9f8854e9f161c84c34f2589ec362be96001600160a01b031690636352211e90602401602060405180830381865afa15801561081c573d6000803e3d6000fd5b505050506040513d601f19601f82011682018060405250810190610840919061130b565b6000858152600160205260409020548590600e906001600160a01b0316331461103a565b6000838152600160205260408082205490516301ffc9a760e01b8152632877540760e01b60048201526001600160a01b03909116919082906301ffc9a790602401602060405180830381865afa1580156108c2573d6000803e3d6000fd5b505050506040513d601f19601f820116820180604052508101906108e691906113e6565b1580610956575060405163b1a50e3360e01b8152600481018690526001600160a01b0383169063b1a50e3390602401602060405180830381865afa158015610932573d6000803e3d6000fd5b505050506040513d601f19601f8201168201806040525081019061095691906113e6565b6000868152600160205260409020549091506001600160a01b0316331480159061097e575080155b1561099c576040516375fef35f60e11b815260040160405180910390fd5b60008581526003602052604090206109b59085856110c7565b50826001811115610a745760005b81811015610a725760006109d8826001611403565b90505b82811015610a69578686828181106109f5576109f56113b7565b9050602002016020810190610a0a919061129a565b6001600160a01b0316878784818110610a2557610a256113b7565b9050602002016020810190610a3a919061129a565b6001600160a01b031603610a6157604051633e3830ab60e11b815260040160405180910390fd5b6001016109db565b506001016109c3565b505b857fb648241d83df6540fc10f2acc641e4bf80a1e84e7ae2f1f6b0ad204b8fee635b868633604051610aa893929190611424565b60405180910390a2505050505050565b60008281526004602090815260408083206001600160a01b0380861685529252822054168015801590610af05750610af08482610425565b15610afc57905061049e565b600084815260036020526040812054905b81811015610bd8576000868152600360205260408120805483908110610b3557610b356113b7565b6000918252602082200154604051633a01714f60e01b8152600481018a90526001600160a01b03898116602483015290911692508290633a01714f90604401606060405180830381865afa158015610b91573d6000803e3d6000fd5b505050506040513d601f19601f82011682018060405250810190610bb59190611328565b516001600160a01b031614610bcf57935061049e92505050565b50600101610b0d565b50600095945050505050565b610bec61104a565b6001600160a01b038216600081815260026020908152604091829020805460ff191685151590811790915591513381529192917f11207664cc48b0fa81c8674795f1d8f642960f38d5d2d305ad813093bed85fab910160405180910390a35050565b600081815260036020908152604091829020805483518184028101840190945280845260609392830182828015610cae57602002820191906000526020600020905b81546001600160a01b03168152600190910190602001808311610c90575b50505050509050919050565b610cc261104a565b6001600160a01b038116610cf157604051631e4fbdf760e01b8152600060048201526024015b60405180910390fd5b610cfa81611077565b50565b336001600160a01b0384168114801590610db4575060405163c161c93f60e01b81526001600160a01b038281166004830152858116602483015260448201859052606482018490527f000000000000000000000000953ab7f10efe861b21cfb9630768818a04742587169063c161c93f90608401602060405180830381865afa158015610d8e573d6000803e3d6000fd5b505050506040513d601f19601f82011682018060405250810190610db291906113e6565b155b8015610e5d575060405163c161c93f60e01b81526001600160a01b038281166004830152858116602483015260006044830152606482018490527f000000000000000000000000953ab7f10efe861b21cfb9630768818a04742587169063c161c93f90608401602060405180830381865afa158015610e37573d6000803e3d6000fd5b505050506040513d601f19601f82011682018060405250810190610e5b91906113e6565b155b15610e7b5760405163075fd2b160e01b815260040160405180910390fd5b50505050565b610e8b8282610425565b15610e94575050565b6000828152600160205260408082205490516301ffc9a760e01b8152632877540760e01b60048201526001600160a01b03909116919082906301ffc9a790602401602060405180830381865afa158015610ef2573d6000803e3d6000fd5b505050506040513d601f19601f82011682018060405250810190610f1691906113e6565b1580610f86575060405163b1a50e3360e01b8152600481018590526001600160a01b0383169063b1a50e3390602401602060405180830381865afa158015610f62573d6000803e3d6000fd5b505050506040513d601f19601f82011682018060405250810190610f8691906113e6565b6000858152600160205260409020549091506001600160a01b03163314801590610fae575080155b15610fcc576040516375fef35f60e11b815260040160405180910390fd5b600084815260036020908152604080832080546001810182559084529282902090920180546001600160a01b0319166001600160a01b038716908117909155915133815286917f409bccc07b7cf7807930526a24318212d614c59f2dde05a017a41efee144e7c89101610791565b80610e7b57610e7b848484610cfd565b6000546001600160a01b031633146107b15760405163118cdaa760e01b8152336004820152602401610ce8565b600080546001600160a01b038381166001600160a01b0319831681178455604051919092169283917f8be0079c531659141344cd1fd0a4f28419497f9722a3daafe3b4186f6b6457e09190a35050565b82805482825590600052602060002090810192821561111a579160200282015b8281111561111a5781546001600160a01b0319166001600160a01b038435161782556020909201916001909101906110e7565b5061112692915061112a565b5090565b5b80821115611126576000815560010161112b565b60006020828403121561115157600080fd5b5035919050565b6001600160a01b0381168114610cfa57600080fd5b60008060006060848603121561118257600080fd5b83359250602084013561119481611158565b915060408401356111a481611158565b809150509250925092565b600080604083850312156111c257600080fd5b8235915060208301356111d481611158565b809150509250929050565b6000806000604084860312156111f457600080fd5b83359250602084013567ffffffffffffffff8082111561121357600080fd5b818601915086601f83011261122757600080fd5b81358181111561123657600080fd5b8760208260051b850101111561124b57600080fd5b6020830194508093505050509250925092565b8015158114610cfa57600080fd5b6000806040838503121561127f57600080fd5b823561128a81611158565b915060208301356111d48161125e565b6000602082840312156112ac57600080fd5b81356112b781611158565b9392505050565b6020808252825182820181905260009190848201906040850190845b818110156112ff5783516001600160a01b0316835292840192918401916001016112da565b50909695505050505050565b60006020828403121561131d57600080fd5b81516112b781611158565b60006060828403121561133a57600080fd5b6040516060810181811067ffffffffffffffff8211171561136b57634e487b7160e01b600052604160045260246000fd5b604052825161137981611158565b8152602083015160ff8116811461138f57600080fd5b6020820152604083015163ffffffff811681146113ab57600080fd5b60408201529392505050565b634e487b7160e01b600052603260045260246000fd5b6000602082840312156113df57600080fd5b5051919050565b6000602082840312156113f857600080fd5b81516112b78161125e565b8082018082111561049e57634e487b7160e01b600052601160045260246000fd5b6040808252810183905260008460608301825b8681101561146757823561144a81611158565b6001600160a01b0316825260209283019290910190600101611437565b506001600160a01b0394909416602093909301929092525090939250505056fea264697066735822122087dc51bb97d5f5652bd27340279d2a9754497e37d46c1f365b2ab0342cda98f564736f6c63430008170033",
			"devdoc": {
				"kind": "dev",
				"methods": {
					"constructor": {
						"params": {
							"owner": "The address that will own the contract.",
							"permissions": "A contract storing permissions.",
							"projects": "A contract which mints ERC-721s that represent project ownership and transfers."
						}
					},
					"isTerminalOf(uint256,address)": {
						"params": {
							"projectId": "The ID of the project to check.",
							"terminal": "The terminal to check for."
						},
						"returns": {
							"_0": "A flag indicating whether the project uses the terminal."
						}
					},
					"owner()": {
						"details": "Returns the address of the current owner."
					},
					"primaryTerminalOf(uint256,address)": {
						"details": "Returns the first terminal that accepts the token if the project hasn't explicitly set a primary terminal for it.Returns the zero address if no terminal accepts the token.",
						"params": {
							"projectId": "The ID of the project to get the primary terminal of.",
							"token": "The token that the terminal accepts."
						},
						"returns": {
							"_0": "The primary terminal's address."
						}
					},
					"renounceOwnership()": {
						"details": "Leaves the contract without owner. It will not be possible to call `onlyOwner` functions. Can only be called by the current owner. NOTE: Renouncing ownership will leave the contract without an owner, thereby disabling any functionality that is only available to the owner."
					},
					"setControllerOf(uint256,address)": {
						"details": "Can only be called if: - The ruleset's metadata has `allowSetController` enabled, and the message's sender is the project's owner or an address with the owner's permission to `SET_CONTROLLER`. - OR the message's sender is the project's current controller. - OR an address which `isAllowedToSetFirstController` is setting a project's first controller.",
						"params": {
							"controller": "The address of the controller to set.",
							"projectId": "The ID of the project whose controller is being set."
						}
					},
					"setIsAllowedToSetFirstController(address,bool)": {
						"details": "Only this contract's owner can call this function.These addresses are vetted controllers as well as contracts designed to launch new projects.A project can set its own controller without being on this list.If you would like to add an address/contract to this list, please reach out to this contract's owner.",
						"params": {
							"addr": "The address to allow or not allow.",
							"flag": "Whether the address is allowed to set first controllers for projects. Use `true` to allow and `false` to not allow."
						}
					},
					"setPrimaryTerminalOf(uint256,address,address)": {
						"details": "The primary terminal for a token is where payments in that token are routed to by default.This is useful in cases where a project has multiple terminals which accept the same token.Can only be called by the project's owner, or an address with the owner's permission to `SET_PRIMARY_TERMINAL`.",
						"params": {
							"projectId": "The ID of the project whose primary terminal is being set.",
							"terminal": "The terminal being set as the primary terminal.",
							"token": "The token to set the primary terminal for."
						}
					},
					"setTerminalsOf(uint256,address[])": {
						"details": "Can only be called by the project's owner, an address with the owner's permission to `SET_TERMINALS`, or the project's controller.Unless the caller is the project's controller, the project's ruleset must allow setting terminals.",
						"params": {
							"projectId": "The ID of the project whose terminals are being set.",
							"terminals": "An array of terminal addresses to set for the project."
						}
					},
					"terminalsOf(uint256)": {
						"params": {
							"projectId": "The ID of the project to get the terminals of."
						},
						"returns": {
							"_0": "An array of the project's terminal addresses."
						}
					},
					"transferOwnership(address)": {
						"details": "Transfers ownership of the contract to a new account (`newOwner`). Can only be called by the current owner."
					}
				},
				"version": 1
			},
			"userdoc": {
				"kind": "user",
				"methods": {
					"PERMISSIONS()": {
						"notice": "A contract storing permissions."
					},
					"PROJECTS()": {
						"notice": "Mints ERC-721s that represent project ownership and transfers."
					},
					"controllerOf(uint256)": {
						"notice": "The specified project's controller, which dictates how its terminals interact with its tokens and rulesets."
					},
					"isAllowedToSetFirstController(address)": {
						"notice": "Whether the specified address is allowed to set a project's first controller on their behalf."
					},
					"isTerminalOf(uint256,address)": {
						"notice": "Check if a project uses a specific terminal."
					},
					"primaryTerminalOf(uint256,address)": {
						"notice": "The primary terminal that a project uses for the specified token."
					},
					"setControllerOf(uint256,address)": {
						"notice": "Set a project's controller. Controllers manage how terminals interact with tokens and rulesets."
					},
					"setIsAllowedToSetFirstController(address,bool)": {
						"notice": "Add or remove an address/contract from a list of trusted addresses which are allowed to set a first controller for projects."
					},
					"setPrimaryTerminalOf(uint256,address,address)": {
						"notice": "Set a project's primary terminal for a token."
					},
					"setTerminalsOf(uint256,address[])": {
						"notice": "Set a project's terminals."
					},
					"terminalsOf(uint256)": {
						"notice": "The specified project's terminals."
					}
				},
				"version": 1
			},
			"gitCommit": "810aab8b9c3a0626e80bb9e6b819daaf6dcfee82",
			"sourceName": "src/JBDirectory.sol",
			"chainId": "11155111",
			"linkReferences": {},
			"deployedLinkReferences": {}
		},
		{
			"_format": "sphinx-sol-ct-artifact-1",
			"merkleRoot": "0xeb3166bda3fcd69ca05fdf479239793e480a434f3066bc23b43dcbae1f55c908",
			"contractName": "JBDirectory",
			"address": "0x44d360C8c4105f180e07668bd3374c7A6F812FAF",
			"abi": [
				{
					"type": "constructor",
					"inputs": [
						{
							"name": "permissions",
							"type": "address",
							"internalType": "contract IJBPermissions"
						},
						{
							"name": "projects",
							"type": "address",
							"internalType": "contract IJBProjects"
						},
						{
							"name": "owner",
							"type": "address",
							"internalType": "address"
						}
					],
					"stateMutability": "nonpayable"
				},
				{
					"type": "function",
					"name": "PERMISSIONS",
					"inputs": [],
					"outputs": [
						{
							"name": "",
							"type": "address",
							"internalType": "contract IJBPermissions"
						}
					],
					"stateMutability": "view"
				},
				{
					"type": "function",
					"name": "PROJECTS",
					"inputs": [],
					"outputs": [
						{
							"name": "",
							"type": "address",
							"internalType": "contract IJBProjects"
						}
					],
					"stateMutability": "view"
				},
				{
					"type": "function",
					"name": "controllerOf",
					"inputs": [
						{
							"name": "projectId",
							"type": "uint256",
							"internalType": "uint256"
						}
					],
					"outputs": [
						{
							"name": "",
							"type": "address",
							"internalType": "contract IERC165"
						}
					],
					"stateMutability": "view"
				},
				{
					"type": "function",
					"name": "isAllowedToSetFirstController",
					"inputs": [
						{
							"name": "addr",
							"type": "address",
							"internalType": "address"
						}
					],
					"outputs": [
						{
							"name": "",
							"type": "bool",
							"internalType": "bool"
						}
					],
					"stateMutability": "view"
				},
				{
					"type": "function",
					"name": "isTerminalOf",
					"inputs": [
						{
							"name": "projectId",
							"type": "uint256",
							"internalType": "uint256"
						},
						{
							"name": "terminal",
							"type": "address",
							"internalType": "contract IJBTerminal"
						}
					],
					"outputs": [
						{
							"name": "",
							"type": "bool",
							"internalType": "bool"
						}
					],
					"stateMutability": "view"
				},
				{
					"type": "function",
					"name": "owner",
					"inputs": [],
					"outputs": [
						{
							"name": "",
							"type": "address",
							"internalType": "address"
						}
					],
					"stateMutability": "view"
				},
				{
					"type": "function",
					"name": "primaryTerminalOf",
					"inputs": [
						{
							"name": "projectId",
							"type": "uint256",
							"internalType": "uint256"
						},
						{
							"name": "token",
							"type": "address",
							"internalType": "address"
						}
					],
					"outputs": [
						{
							"name": "",
							"type": "address",
							"internalType": "contract IJBTerminal"
						}
					],
					"stateMutability": "view"
				},
				{
					"type": "function",
					"name": "renounceOwnership",
					"inputs": [],
					"outputs": [],
					"stateMutability": "nonpayable"
				},
				{
					"type": "function",
					"name": "setControllerOf",
					"inputs": [
						{
							"name": "projectId",
							"type": "uint256",
							"internalType": "uint256"
						},
						{
							"name": "controller",
							"type": "address",
							"internalType": "contract IERC165"
						}
					],
					"outputs": [],
					"stateMutability": "nonpayable"
				},
				{
					"type": "function",
					"name": "setIsAllowedToSetFirstController",
					"inputs": [
						{
							"name": "addr",
							"type": "address",
							"internalType": "address"
						},
						{
							"name": "flag",
							"type": "bool",
							"internalType": "bool"
						}
					],
					"outputs": [],
					"stateMutability": "nonpayable"
				},
				{
					"type": "function",
					"name": "setPrimaryTerminalOf",
					"inputs": [
						{
							"name": "projectId",
							"type": "uint256",
							"internalType": "uint256"
						},
						{
							"name": "token",
							"type": "address",
							"internalType": "address"
						},
						{
							"name": "terminal",
							"type": "address",
							"internalType": "contract IJBTerminal"
						}
					],
					"outputs": [],
					"stateMutability": "nonpayable"
				},
				{
					"type": "function",
					"name": "setTerminalsOf",
					"inputs": [
						{
							"name": "projectId",
							"type": "uint256",
							"internalType": "uint256"
						},
						{
							"name": "terminals",
							"type": "address[]",
							"internalType": "contract IJBTerminal[]"
						}
					],
					"outputs": [],
					"stateMutability": "nonpayable"
				},
				{
					"type": "function",
					"name": "terminalsOf",
					"inputs": [
						{
							"name": "projectId",
							"type": "uint256",
							"internalType": "uint256"
						}
					],
					"outputs": [
						{
							"name": "",
							"type": "address[]",
							"internalType": "contract IJBTerminal[]"
						}
					],
					"stateMutability": "view"
				},
				{
					"type": "function",
					"name": "transferOwnership",
					"inputs": [
						{
							"name": "newOwner",
							"type": "address",
							"internalType": "address"
						}
					],
					"outputs": [],
					"stateMutability": "nonpayable"
				},
				{
					"type": "event",
					"name": "AddTerminal",
					"inputs": [
						{
							"name": "projectId",
							"type": "uint256",
							"indexed": true,
							"internalType": "uint256"
						},
						{
							"name": "terminal",
							"type": "address",
							"indexed": true,
							"internalType": "contract IJBTerminal"
						},
						{
							"name": "caller",
							"type": "address",
							"indexed": false,
							"internalType": "address"
						}
					],
					"anonymous": false
				},
				{
					"type": "event",
					"name": "OwnershipTransferred",
					"inputs": [
						{
							"name": "previousOwner",
							"type": "address",
							"indexed": true,
							"internalType": "address"
						},
						{
							"name": "newOwner",
							"type": "address",
							"indexed": true,
							"internalType": "address"
						}
					],
					"anonymous": false
				},
				{
					"type": "event",
					"name": "SetController",
					"inputs": [
						{
							"name": "projectId",
							"type": "uint256",
							"indexed": true,
							"internalType": "uint256"
						},
						{
							"name": "controller",
							"type": "address",
							"indexed": true,
							"internalType": "contract IERC165"
						},
						{
							"name": "caller",
							"type": "address",
							"indexed": false,
							"internalType": "address"
						}
					],
					"anonymous": false
				},
				{
					"type": "event",
					"name": "SetIsAllowedToSetFirstController",
					"inputs": [
						{
							"name": "addr",
							"type": "address",
							"indexed": true,
							"internalType": "address"
						},
						{
							"name": "flag",
							"type": "bool",
							"indexed": true,
							"internalType": "bool"
						},
						{
							"name": "caller",
							"type": "address",
							"indexed": false,
							"internalType": "address"
						}
					],
					"anonymous": false
				},
				{
					"type": "event",
					"name": "SetPrimaryTerminal",
					"inputs": [
						{
							"name": "projectId",
							"type": "uint256",
							"indexed": true,
							"internalType": "uint256"
						},
						{
							"name": "token",
							"type": "address",
							"indexed": true,
							"internalType": "address"
						},
						{
							"name": "terminal",
							"type": "address",
							"indexed": true,
							"internalType": "contract IJBTerminal"
						},
						{
							"name": "caller",
							"type": "address",
							"indexed": false,
							"internalType": "address"
						}
					],
					"anonymous": false
				},
				{
					"type": "event",
					"name": "SetTerminals",
					"inputs": [
						{
							"name": "projectId",
							"type": "uint256",
							"indexed": true,
							"internalType": "uint256"
						},
						{
							"name": "terminals",
							"type": "address[]",
							"indexed": false,
							"internalType": "contract IJBTerminal[]"
						},
						{
							"name": "caller",
							"type": "address",
							"indexed": false,
							"internalType": "address"
						}
					],
					"anonymous": false
				},
				{
					"type": "error",
					"name": "DUPLICATE_TERMINALS",
					"inputs": []
				},
				{
					"type": "error",
					"name": "INVALID_PROJECT_ID_IN_DIRECTORY",
					"inputs": []
				},
				{
					"type": "error",
					"name": "OwnableInvalidOwner",
					"inputs": [
						{
							"name": "owner",
							"type": "address",
							"internalType": "address"
						}
					]
				},
				{
					"type": "error",
					"name": "OwnableUnauthorizedAccount",
					"inputs": [
						{
							"name": "account",
							"type": "address",
							"internalType": "address"
						}
					]
				},
				{
					"type": "error",
					"name": "SET_CONTROLLER_NOT_ALLOWED",
					"inputs": []
				},
				{
					"type": "error",
					"name": "SET_TERMINALS_NOT_ALLOWED",
					"inputs": []
				},
				{
					"type": "error",
					"name": "TOKEN_NOT_ACCEPTED",
					"inputs": []
				},
				{
					"type": "error",
					"name": "UNAUTHORIZED",
					"inputs": []
				}
			],
			"solcInputHash": "ca7cc2b8e77e7f12f966f059a5ca4cba",
			"receipt": {
				"blockHash": "0x7a3b244ef2b320506568f360e434fc3eab32c3e95eed2ad2765105c254870fbb",
				"blockNumber": 5671408,
				"contractAddress": null,
				"cumulativeGasUsed": "17854991",
				"from": "0xC034550B542b83BA1De312b21d1C94a9a52B1595",
				"gasPrice": "1000371034",
				"gasUsed": "11027755",
				"hash": "0xf54a9e042e28ddbdf0314cf02a3749e596d9871e960800b6aa21852ad7170be7",
				"index": 49,
				"logs": [
					{
						"address": "0xB5E96127D417b1B3ef8438496a38A143167209c7",
						"blockHash": "0x7a3b244ef2b320506568f360e434fc3eab32c3e95eed2ad2765105c254870fbb",
						"blockNumber": 5671408,
						"data": "0x0000000000000000000000000000000000000000000000000000000000000000",
						"index": 66,
						"topics": [
							"0x572f161235911da04685a68c06adf558fc7e4a36909dca394650e0adc19cc93d",
							"0x000000000000000000000000c034550b542b83ba1de312b21d1c94a9a52b1595",
							"0x000000000000000000000000ef1be3c049809cace5bc203bbe4ec1ab284bf75c",
							"0x514497bd2ece2f4689a694f24d57165de5d2f244eb268184db1378f8003344e2"
						],
						"transactionHash": "0xf54a9e042e28ddbdf0314cf02a3749e596d9871e960800b6aa21852ad7170be7",
						"transactionIndex": 49
					},
					{
						"address": "0x1081B5AA9D9d4862A3dA4d469433FB36Ed80FA2A",
						"blockHash": "0x7a3b244ef2b320506568f360e434fc3eab32c3e95eed2ad2765105c254870fbb",
						"blockNumber": 5671408,
						"data": "0x000000000000000000000000711eda44f3d42f3d255846b5ee36cf70fd912e50",
						"index": 67,
						"topics": [
							"0x4db17dd5e4732fb6da34a148104a592783ca119a1e7bb8829eba6cbadef0b511"
						],
						"transactionHash": "0xf54a9e042e28ddbdf0314cf02a3749e596d9871e960800b6aa21852ad7170be7",
						"transactionIndex": 49
					},
					{
						"address": "0x1081B5AA9D9d4862A3dA4d469433FB36Ed80FA2A",
						"blockHash": "0x7a3b244ef2b320506568f360e434fc3eab32c3e95eed2ad2765105c254870fbb",
						"blockNumber": 5671408,
						"data": "0x",
						"index": 68,
						"topics": [
							"0x6895c13664aa4f67288b25d7a21d7aaa34916e355fb9b6fae0a139a9085becb8",
							"0x000000000000000000000000ef1be3c049809cace5bc203bbe4ec1ab284bf75c"
						],
						"transactionHash": "0xf54a9e042e28ddbdf0314cf02a3749e596d9871e960800b6aa21852ad7170be7",
						"transactionIndex": 49
					},
					{
						"address": "0xEf1Be3C049809caCe5Bc203BBe4Ec1Ab284bF75c",
						"blockHash": "0x7a3b244ef2b320506568f360e434fc3eab32c3e95eed2ad2765105c254870fbb",
						"blockNumber": 5671408,
						"data": "0x0000000000000000000000000000000000000000000000000000000000000001",
						"index": 69,
						"topics": [
							"0xa65fb05c5808f5f389d72edeaf719ce38f4cc55c1f69ca3cbfb31c21501caa07",
							"0xeb3166bda3fcd69ca05fdf479239793e480a434f3066bc23b43dcbae1f55c908"
						],
						"transactionHash": "0xf54a9e042e28ddbdf0314cf02a3749e596d9871e960800b6aa21852ad7170be7",
						"transactionIndex": 49
					},
					{
						"address": "0xfa679f5ecdd8bE404c1FbAa7f29aEB2b12F5B662",
						"blockHash": "0x7a3b244ef2b320506568f360e434fc3eab32c3e95eed2ad2765105c254870fbb",
						"blockNumber": 5671408,
						"data": "0x",
						"index": 70,
						"topics": [
							"0x8be0079c531659141344cd1fd0a4f28419497f9722a3daafe3b4186f6b6457e0",
							"0x0000000000000000000000000000000000000000000000000000000000000000",
							"0x0000000000000000000000001081b5aa9d9d4862a3da4d469433fb36ed80fa2a"
						],
						"transactionHash": "0xf54a9e042e28ddbdf0314cf02a3749e596d9871e960800b6aa21852ad7170be7",
						"transactionIndex": 49
					},
					{
						"address": "0xfa679f5ecdd8bE404c1FbAa7f29aEB2b12F5B662",
						"blockHash": "0x7a3b244ef2b320506568f360e434fc3eab32c3e95eed2ad2765105c254870fbb",
						"blockNumber": 5671408,
						"data": "0x",
						"index": 71,
						"topics": [
							"0xddf252ad1be2c89b69c2b068fc378daa952ba7f163c4a11628f55a4df523b3ef",
							"0x0000000000000000000000000000000000000000000000000000000000000000",
							"0x0000000000000000000000001081b5aa9d9d4862a3da4d469433fb36ed80fa2a",
							"0x0000000000000000000000000000000000000000000000000000000000000001"
						],
						"transactionHash": "0xf54a9e042e28ddbdf0314cf02a3749e596d9871e960800b6aa21852ad7170be7",
						"transactionIndex": 49
					},
					{
						"address": "0xfa679f5ecdd8bE404c1FbAa7f29aEB2b12F5B662",
						"blockHash": "0x7a3b244ef2b320506568f360e434fc3eab32c3e95eed2ad2765105c254870fbb",
						"blockNumber": 5671408,
						"data": "0x0000000000000000000000001081b5aa9d9d4862a3da4d469433fb36ed80fa2a",
						"index": 72,
						"topics": [
							"0x365b3162cd780731fc55a794b59494d472bc2af701007f581843a70673814698",
							"0x0000000000000000000000000000000000000000000000000000000000000001",
							"0x0000000000000000000000001081b5aa9d9d4862a3da4d469433fb36ed80fa2a"
						],
						"transactionHash": "0xf54a9e042e28ddbdf0314cf02a3749e596d9871e960800b6aa21852ad7170be7",
						"transactionIndex": 49
					},
					{
						"address": "0x1081B5AA9D9d4862A3dA4d469433FB36Ed80FA2A",
						"blockHash": "0x7a3b244ef2b320506568f360e434fc3eab32c3e95eed2ad2765105c254870fbb",
						"blockNumber": 5671408,
						"data": "0x000000000000000000000000fa679f5ecdd8be404c1fbaa7f29aeb2b12f5b662",
						"index": 73,
						"topics": [
							"0x4db17dd5e4732fb6da34a148104a592783ca119a1e7bb8829eba6cbadef0b511"
						],
						"transactionHash": "0xf54a9e042e28ddbdf0314cf02a3749e596d9871e960800b6aa21852ad7170be7",
						"transactionIndex": 49
					},
					{
						"address": "0x1081B5AA9D9d4862A3dA4d469433FB36Ed80FA2A",
						"blockHash": "0x7a3b244ef2b320506568f360e434fc3eab32c3e95eed2ad2765105c254870fbb",
						"blockNumber": 5671408,
						"data": "0x",
						"index": 74,
						"topics": [
							"0x6895c13664aa4f67288b25d7a21d7aaa34916e355fb9b6fae0a139a9085becb8",
							"0x000000000000000000000000ef1be3c049809cace5bc203bbe4ec1ab284bf75c"
						],
						"transactionHash": "0xf54a9e042e28ddbdf0314cf02a3749e596d9871e960800b6aa21852ad7170be7",
						"transactionIndex": 49
					},
					{
						"address": "0xEf1Be3C049809caCe5Bc203BBe4Ec1Ab284bF75c",
						"blockHash": "0x7a3b244ef2b320506568f360e434fc3eab32c3e95eed2ad2765105c254870fbb",
						"blockNumber": 5671408,
						"data": "0x0000000000000000000000000000000000000000000000000000000000000002",
						"index": 75,
						"topics": [
							"0xa65fb05c5808f5f389d72edeaf719ce38f4cc55c1f69ca3cbfb31c21501caa07",
							"0xeb3166bda3fcd69ca05fdf479239793e480a434f3066bc23b43dcbae1f55c908"
						],
						"transactionHash": "0xf54a9e042e28ddbdf0314cf02a3749e596d9871e960800b6aa21852ad7170be7",
						"transactionIndex": 49
					},
					{
						"address": "0x44d360C8c4105f180e07668bd3374c7A6F812FAF",
						"blockHash": "0x7a3b244ef2b320506568f360e434fc3eab32c3e95eed2ad2765105c254870fbb",
						"blockNumber": 5671408,
						"data": "0x",
						"index": 76,
						"topics": [
							"0x8be0079c531659141344cd1fd0a4f28419497f9722a3daafe3b4186f6b6457e0",
							"0x0000000000000000000000000000000000000000000000000000000000000000",
							"0x0000000000000000000000001081b5aa9d9d4862a3da4d469433fb36ed80fa2a"
						],
						"transactionHash": "0xf54a9e042e28ddbdf0314cf02a3749e596d9871e960800b6aa21852ad7170be7",
						"transactionIndex": 49
					},
					{
						"address": "0x1081B5AA9D9d4862A3dA4d469433FB36Ed80FA2A",
						"blockHash": "0x7a3b244ef2b320506568f360e434fc3eab32c3e95eed2ad2765105c254870fbb",
						"blockNumber": 5671408,
						"data": "0x00000000000000000000000044d360c8c4105f180e07668bd3374c7a6f812faf",
						"index": 77,
						"topics": [
							"0x4db17dd5e4732fb6da34a148104a592783ca119a1e7bb8829eba6cbadef0b511"
						],
						"transactionHash": "0xf54a9e042e28ddbdf0314cf02a3749e596d9871e960800b6aa21852ad7170be7",
						"transactionIndex": 49
					},
					{
						"address": "0x1081B5AA9D9d4862A3dA4d469433FB36Ed80FA2A",
						"blockHash": "0x7a3b244ef2b320506568f360e434fc3eab32c3e95eed2ad2765105c254870fbb",
						"blockNumber": 5671408,
						"data": "0x",
						"index": 78,
						"topics": [
							"0x6895c13664aa4f67288b25d7a21d7aaa34916e355fb9b6fae0a139a9085becb8",
							"0x000000000000000000000000ef1be3c049809cace5bc203bbe4ec1ab284bf75c"
						],
						"transactionHash": "0xf54a9e042e28ddbdf0314cf02a3749e596d9871e960800b6aa21852ad7170be7",
						"transactionIndex": 49
					},
					{
						"address": "0xEf1Be3C049809caCe5Bc203BBe4Ec1Ab284bF75c",
						"blockHash": "0x7a3b244ef2b320506568f360e434fc3eab32c3e95eed2ad2765105c254870fbb",
						"blockNumber": 5671408,
						"data": "0x0000000000000000000000000000000000000000000000000000000000000003",
						"index": 79,
						"topics": [
							"0xa65fb05c5808f5f389d72edeaf719ce38f4cc55c1f69ca3cbfb31c21501caa07",
							"0xeb3166bda3fcd69ca05fdf479239793e480a434f3066bc23b43dcbae1f55c908"
						],
						"transactionHash": "0xf54a9e042e28ddbdf0314cf02a3749e596d9871e960800b6aa21852ad7170be7",
						"transactionIndex": 49
					},
					{
						"address": "0x1081B5AA9D9d4862A3dA4d469433FB36Ed80FA2A",
						"blockHash": "0x7a3b244ef2b320506568f360e434fc3eab32c3e95eed2ad2765105c254870fbb",
						"blockNumber": 5671408,
						"data": "0x00000000000000000000000026cb60fc2323d1a4309f35497e5a881fe1f3d2ac",
						"index": 80,
						"topics": [
							"0x4db17dd5e4732fb6da34a148104a592783ca119a1e7bb8829eba6cbadef0b511"
						],
						"transactionHash": "0xf54a9e042e28ddbdf0314cf02a3749e596d9871e960800b6aa21852ad7170be7",
						"transactionIndex": 49
					},
					{
						"address": "0x1081B5AA9D9d4862A3dA4d469433FB36Ed80FA2A",
						"blockHash": "0x7a3b244ef2b320506568f360e434fc3eab32c3e95eed2ad2765105c254870fbb",
						"blockNumber": 5671408,
						"data": "0x",
						"index": 81,
						"topics": [
							"0x6895c13664aa4f67288b25d7a21d7aaa34916e355fb9b6fae0a139a9085becb8",
							"0x000000000000000000000000ef1be3c049809cace5bc203bbe4ec1ab284bf75c"
						],
						"transactionHash": "0xf54a9e042e28ddbdf0314cf02a3749e596d9871e960800b6aa21852ad7170be7",
						"transactionIndex": 49
					},
					{
						"address": "0xEf1Be3C049809caCe5Bc203BBe4Ec1Ab284bF75c",
						"blockHash": "0x7a3b244ef2b320506568f360e434fc3eab32c3e95eed2ad2765105c254870fbb",
						"blockNumber": 5671408,
						"data": "0x0000000000000000000000000000000000000000000000000000000000000004",
						"index": 82,
						"topics": [
							"0xa65fb05c5808f5f389d72edeaf719ce38f4cc55c1f69ca3cbfb31c21501caa07",
							"0xeb3166bda3fcd69ca05fdf479239793e480a434f3066bc23b43dcbae1f55c908"
						],
						"transactionHash": "0xf54a9e042e28ddbdf0314cf02a3749e596d9871e960800b6aa21852ad7170be7",
						"transactionIndex": 49
					},
					{
						"address": "0x1081B5AA9D9d4862A3dA4d469433FB36Ed80FA2A",
						"blockHash": "0x7a3b244ef2b320506568f360e434fc3eab32c3e95eed2ad2765105c254870fbb",
						"blockNumber": 5671408,
						"data": "0x0000000000000000000000009c10f158d2cecdfb5aadd5da40abbf2c574e4323",
						"index": 83,
						"topics": [
							"0x4db17dd5e4732fb6da34a148104a592783ca119a1e7bb8829eba6cbadef0b511"
						],
						"transactionHash": "0xf54a9e042e28ddbdf0314cf02a3749e596d9871e960800b6aa21852ad7170be7",
						"transactionIndex": 49
					},
					{
						"address": "0x1081B5AA9D9d4862A3dA4d469433FB36Ed80FA2A",
						"blockHash": "0x7a3b244ef2b320506568f360e434fc3eab32c3e95eed2ad2765105c254870fbb",
						"blockNumber": 5671408,
						"data": "0x",
						"index": 84,
						"topics": [
							"0x6895c13664aa4f67288b25d7a21d7aaa34916e355fb9b6fae0a139a9085becb8",
							"0x000000000000000000000000ef1be3c049809cace5bc203bbe4ec1ab284bf75c"
						],
						"transactionHash": "0xf54a9e042e28ddbdf0314cf02a3749e596d9871e960800b6aa21852ad7170be7",
						"transactionIndex": 49
					},
					{
						"address": "0xEf1Be3C049809caCe5Bc203BBe4Ec1Ab284bF75c",
						"blockHash": "0x7a3b244ef2b320506568f360e434fc3eab32c3e95eed2ad2765105c254870fbb",
						"blockNumber": 5671408,
						"data": "0x0000000000000000000000000000000000000000000000000000000000000005",
						"index": 85,
						"topics": [
							"0xa65fb05c5808f5f389d72edeaf719ce38f4cc55c1f69ca3cbfb31c21501caa07",
							"0xeb3166bda3fcd69ca05fdf479239793e480a434f3066bc23b43dcbae1f55c908"
						],
						"transactionHash": "0xf54a9e042e28ddbdf0314cf02a3749e596d9871e960800b6aa21852ad7170be7",
						"transactionIndex": 49
					},
					{
						"address": "0xaFFAC6609245EB93123a4CEcFAf6d78A249bF127",
						"blockHash": "0x7a3b244ef2b320506568f360e434fc3eab32c3e95eed2ad2765105c254870fbb",
						"blockNumber": 5671408,
						"data": "0x",
						"index": 86,
						"topics": [
							"0x8be0079c531659141344cd1fd0a4f28419497f9722a3daafe3b4186f6b6457e0",
							"0x0000000000000000000000000000000000000000000000000000000000000000",
							"0x000000000000000000000000affac6609245eb93123a4cecfaf6d78a249bf127"
						],
						"transactionHash": "0xf54a9e042e28ddbdf0314cf02a3749e596d9871e960800b6aa21852ad7170be7",
						"transactionIndex": 49
					},
					{
						"address": "0x1081B5AA9D9d4862A3dA4d469433FB36Ed80FA2A",
						"blockHash": "0x7a3b244ef2b320506568f360e434fc3eab32c3e95eed2ad2765105c254870fbb",
						"blockNumber": 5671408,
						"data": "0x000000000000000000000000affac6609245eb93123a4cecfaf6d78a249bf127",
						"index": 87,
						"topics": [
							"0x4db17dd5e4732fb6da34a148104a592783ca119a1e7bb8829eba6cbadef0b511"
						],
						"transactionHash": "0xf54a9e042e28ddbdf0314cf02a3749e596d9871e960800b6aa21852ad7170be7",
						"transactionIndex": 49
					},
					{
						"address": "0x1081B5AA9D9d4862A3dA4d469433FB36Ed80FA2A",
						"blockHash": "0x7a3b244ef2b320506568f360e434fc3eab32c3e95eed2ad2765105c254870fbb",
						"blockNumber": 5671408,
						"data": "0x",
						"index": 88,
						"topics": [
							"0x6895c13664aa4f67288b25d7a21d7aaa34916e355fb9b6fae0a139a9085becb8",
							"0x000000000000000000000000ef1be3c049809cace5bc203bbe4ec1ab284bf75c"
						],
						"transactionHash": "0xf54a9e042e28ddbdf0314cf02a3749e596d9871e960800b6aa21852ad7170be7",
						"transactionIndex": 49
					},
					{
						"address": "0xEf1Be3C049809caCe5Bc203BBe4Ec1Ab284bF75c",
						"blockHash": "0x7a3b244ef2b320506568f360e434fc3eab32c3e95eed2ad2765105c254870fbb",
						"blockNumber": 5671408,
						"data": "0x0000000000000000000000000000000000000000000000000000000000000006",
						"index": 89,
						"topics": [
							"0xa65fb05c5808f5f389d72edeaf719ce38f4cc55c1f69ca3cbfb31c21501caa07",
							"0xeb3166bda3fcd69ca05fdf479239793e480a434f3066bc23b43dcbae1f55c908"
						],
						"transactionHash": "0xf54a9e042e28ddbdf0314cf02a3749e596d9871e960800b6aa21852ad7170be7",
						"transactionIndex": 49
					},
					{
						"address": "0x1081B5AA9D9d4862A3dA4d469433FB36Ed80FA2A",
						"blockHash": "0x7a3b244ef2b320506568f360e434fc3eab32c3e95eed2ad2765105c254870fbb",
						"blockNumber": 5671408,
						"data": "0x000000000000000000000000ee922d1cb6551d45e2d9b197ec423fb8c3c85d50",
						"index": 90,
						"topics": [
							"0x4db17dd5e4732fb6da34a148104a592783ca119a1e7bb8829eba6cbadef0b511"
						],
						"transactionHash": "0xf54a9e042e28ddbdf0314cf02a3749e596d9871e960800b6aa21852ad7170be7",
						"transactionIndex": 49
					},
					{
						"address": "0x1081B5AA9D9d4862A3dA4d469433FB36Ed80FA2A",
						"blockHash": "0x7a3b244ef2b320506568f360e434fc3eab32c3e95eed2ad2765105c254870fbb",
						"blockNumber": 5671408,
						"data": "0x",
						"index": 91,
						"topics": [
							"0x6895c13664aa4f67288b25d7a21d7aaa34916e355fb9b6fae0a139a9085becb8",
							"0x000000000000000000000000ef1be3c049809cace5bc203bbe4ec1ab284bf75c"
						],
						"transactionHash": "0xf54a9e042e28ddbdf0314cf02a3749e596d9871e960800b6aa21852ad7170be7",
						"transactionIndex": 49
					},
					{
						"address": "0xEf1Be3C049809caCe5Bc203BBe4Ec1Ab284bF75c",
						"blockHash": "0x7a3b244ef2b320506568f360e434fc3eab32c3e95eed2ad2765105c254870fbb",
						"blockNumber": 5671408,
						"data": "0x0000000000000000000000000000000000000000000000000000000000000007",
						"index": 92,
						"topics": [
							"0xa65fb05c5808f5f389d72edeaf719ce38f4cc55c1f69ca3cbfb31c21501caa07",
							"0xeb3166bda3fcd69ca05fdf479239793e480a434f3066bc23b43dcbae1f55c908"
						],
						"transactionHash": "0xf54a9e042e28ddbdf0314cf02a3749e596d9871e960800b6aa21852ad7170be7",
						"transactionIndex": 49
					},
					{
						"address": "0x1081B5AA9D9d4862A3dA4d469433FB36Ed80FA2A",
						"blockHash": "0x7a3b244ef2b320506568f360e434fc3eab32c3e95eed2ad2765105c254870fbb",
						"blockNumber": 5671408,
						"data": "0x000000000000000000000000315d47e969097635dbe460743da00096129c2457",
						"index": 93,
						"topics": [
							"0x4db17dd5e4732fb6da34a148104a592783ca119a1e7bb8829eba6cbadef0b511"
						],
						"transactionHash": "0xf54a9e042e28ddbdf0314cf02a3749e596d9871e960800b6aa21852ad7170be7",
						"transactionIndex": 49
					},
					{
						"address": "0x1081B5AA9D9d4862A3dA4d469433FB36Ed80FA2A",
						"blockHash": "0x7a3b244ef2b320506568f360e434fc3eab32c3e95eed2ad2765105c254870fbb",
						"blockNumber": 5671408,
						"data": "0x",
						"index": 94,
						"topics": [
							"0x6895c13664aa4f67288b25d7a21d7aaa34916e355fb9b6fae0a139a9085becb8",
							"0x000000000000000000000000ef1be3c049809cace5bc203bbe4ec1ab284bf75c"
						],
						"transactionHash": "0xf54a9e042e28ddbdf0314cf02a3749e596d9871e960800b6aa21852ad7170be7",
						"transactionIndex": 49
					},
					{
						"address": "0xEf1Be3C049809caCe5Bc203BBe4Ec1Ab284bF75c",
						"blockHash": "0x7a3b244ef2b320506568f360e434fc3eab32c3e95eed2ad2765105c254870fbb",
						"blockNumber": 5671408,
						"data": "0x0000000000000000000000000000000000000000000000000000000000000008",
						"index": 95,
						"topics": [
							"0xa65fb05c5808f5f389d72edeaf719ce38f4cc55c1f69ca3cbfb31c21501caa07",
							"0xeb3166bda3fcd69ca05fdf479239793e480a434f3066bc23b43dcbae1f55c908"
						],
						"transactionHash": "0xf54a9e042e28ddbdf0314cf02a3749e596d9871e960800b6aa21852ad7170be7",
						"transactionIndex": 49
					}
				],
				"logsBloom": "0x02000000080010000008000000080200000000020008000000800800004000000060008000000000000000220040000000000400000000000000000000040000000000100000220400000008020280000001000000040000000200000000000000000000020000000001000000000800000000100020000010000010002000400001000200000000000100020000000000004000000000000000804000000000004000000010000000000000080000020200000000000000000000000006000000000002000800200000000008000000010000000000000000000000000060000000000000000024000000000000000200000000000000000000000000000000",
				"status": 1,
				"to": "0xB5E96127D417b1B3ef8438496a38A143167209c7"
			},
			"metadata": "{\"compiler\":{\"version\":\"0.8.23+commit.f704f362\"},\"language\":\"Solidity\",\"output\":{\"abi\":[{\"inputs\":[{\"internalType\":\"contract IJBPermissions\",\"name\":\"permissions\",\"type\":\"address\"},{\"internalType\":\"contract IJBProjects\",\"name\":\"projects\",\"type\":\"address\"},{\"internalType\":\"address\",\"name\":\"owner\",\"type\":\"address\"}],\"stateMutability\":\"nonpayable\",\"type\":\"constructor\"},{\"inputs\":[],\"type\":\"error\",\"name\":\"DUPLICATE_TERMINALS\"},{\"inputs\":[],\"type\":\"error\",\"name\":\"INVALID_PROJECT_ID_IN_DIRECTORY\"},{\"inputs\":[{\"internalType\":\"address\",\"name\":\"owner\",\"type\":\"address\"}],\"type\":\"error\",\"name\":\"OwnableInvalidOwner\"},{\"inputs\":[{\"internalType\":\"address\",\"name\":\"account\",\"type\":\"address\"}],\"type\":\"error\",\"name\":\"OwnableUnauthorizedAccount\"},{\"inputs\":[],\"type\":\"error\",\"name\":\"SET_CONTROLLER_NOT_ALLOWED\"},{\"inputs\":[],\"type\":\"error\",\"name\":\"SET_TERMINALS_NOT_ALLOWED\"},{\"inputs\":[],\"type\":\"error\",\"name\":\"TOKEN_NOT_ACCEPTED\"},{\"inputs\":[],\"type\":\"error\",\"name\":\"UNAUTHORIZED\"},{\"inputs\":[{\"internalType\":\"uint256\",\"name\":\"projectId\",\"type\":\"uint256\",\"indexed\":true},{\"internalType\":\"contract IJBTerminal\",\"name\":\"terminal\",\"type\":\"address\",\"indexed\":true},{\"internalType\":\"address\",\"name\":\"caller\",\"type\":\"address\",\"indexed\":false}],\"type\":\"event\",\"name\":\"AddTerminal\",\"anonymous\":false},{\"inputs\":[{\"internalType\":\"address\",\"name\":\"previousOwner\",\"type\":\"address\",\"indexed\":true},{\"internalType\":\"address\",\"name\":\"newOwner\",\"type\":\"address\",\"indexed\":true}],\"type\":\"event\",\"name\":\"OwnershipTransferred\",\"anonymous\":false},{\"inputs\":[{\"internalType\":\"uint256\",\"name\":\"projectId\",\"type\":\"uint256\",\"indexed\":true},{\"internalType\":\"contract IERC165\",\"name\":\"controller\",\"type\":\"address\",\"indexed\":true},{\"internalType\":\"address\",\"name\":\"caller\",\"type\":\"address\",\"indexed\":false}],\"type\":\"event\",\"name\":\"SetController\",\"anonymous\":false},{\"inputs\":[{\"internalType\":\"address\",\"name\":\"addr\",\"type\":\"address\",\"indexed\":true},{\"internalType\":\"bool\",\"name\":\"flag\",\"type\":\"bool\",\"indexed\":true},{\"internalType\":\"address\",\"name\":\"caller\",\"type\":\"address\",\"indexed\":false}],\"type\":\"event\",\"name\":\"SetIsAllowedToSetFirstController\",\"anonymous\":false},{\"inputs\":[{\"internalType\":\"uint256\",\"name\":\"projectId\",\"type\":\"uint256\",\"indexed\":true},{\"internalType\":\"address\",\"name\":\"token\",\"type\":\"address\",\"indexed\":true},{\"internalType\":\"contract IJBTerminal\",\"name\":\"terminal\",\"type\":\"address\",\"indexed\":true},{\"internalType\":\"address\",\"name\":\"caller\",\"type\":\"address\",\"indexed\":false}],\"type\":\"event\",\"name\":\"SetPrimaryTerminal\",\"anonymous\":false},{\"inputs\":[{\"internalType\":\"uint256\",\"name\":\"projectId\",\"type\":\"uint256\",\"indexed\":true},{\"internalType\":\"contract IJBTerminal[]\",\"name\":\"terminals\",\"type\":\"address[]\",\"indexed\":false},{\"internalType\":\"address\",\"name\":\"caller\",\"type\":\"address\",\"indexed\":false}],\"type\":\"event\",\"name\":\"SetTerminals\",\"anonymous\":false},{\"inputs\":[],\"stateMutability\":\"view\",\"type\":\"function\",\"name\":\"PERMISSIONS\",\"outputs\":[{\"internalType\":\"contract IJBPermissions\",\"name\":\"\",\"type\":\"address\"}]},{\"inputs\":[],\"stateMutability\":\"view\",\"type\":\"function\",\"name\":\"PROJECTS\",\"outputs\":[{\"internalType\":\"contract IJBProjects\",\"name\":\"\",\"type\":\"address\"}]},{\"inputs\":[{\"internalType\":\"uint256\",\"name\":\"projectId\",\"type\":\"uint256\"}],\"stateMutability\":\"view\",\"type\":\"function\",\"name\":\"controllerOf\",\"outputs\":[{\"internalType\":\"contract IERC165\",\"name\":\"\",\"type\":\"address\"}]},{\"inputs\":[{\"internalType\":\"address\",\"name\":\"addr\",\"type\":\"address\"}],\"stateMutability\":\"view\",\"type\":\"function\",\"name\":\"isAllowedToSetFirstController\",\"outputs\":[{\"internalType\":\"bool\",\"name\":\"\",\"type\":\"bool\"}]},{\"inputs\":[{\"internalType\":\"uint256\",\"name\":\"projectId\",\"type\":\"uint256\"},{\"internalType\":\"contract IJBTerminal\",\"name\":\"terminal\",\"type\":\"address\"}],\"stateMutability\":\"view\",\"type\":\"function\",\"name\":\"isTerminalOf\",\"outputs\":[{\"internalType\":\"bool\",\"name\":\"\",\"type\":\"bool\"}]},{\"inputs\":[],\"stateMutability\":\"view\",\"type\":\"function\",\"name\":\"owner\",\"outputs\":[{\"internalType\":\"address\",\"name\":\"\",\"type\":\"address\"}]},{\"inputs\":[{\"internalType\":\"uint256\",\"name\":\"projectId\",\"type\":\"uint256\"},{\"internalType\":\"address\",\"name\":\"token\",\"type\":\"address\"}],\"stateMutability\":\"view\",\"type\":\"function\",\"name\":\"primaryTerminalOf\",\"outputs\":[{\"internalType\":\"contract IJBTerminal\",\"name\":\"\",\"type\":\"address\"}]},{\"inputs\":[],\"stateMutability\":\"nonpayable\",\"type\":\"function\",\"name\":\"renounceOwnership\"},{\"inputs\":[{\"internalType\":\"uint256\",\"name\":\"projectId\",\"type\":\"uint256\"},{\"internalType\":\"contract IERC165\",\"name\":\"controller\",\"type\":\"address\"}],\"stateMutability\":\"nonpayable\",\"type\":\"function\",\"name\":\"setControllerOf\"},{\"inputs\":[{\"internalType\":\"address\",\"name\":\"addr\",\"type\":\"address\"},{\"internalType\":\"bool\",\"name\":\"flag\",\"type\":\"bool\"}],\"stateMutability\":\"nonpayable\",\"type\":\"function\",\"name\":\"setIsAllowedToSetFirstController\"},{\"inputs\":[{\"internalType\":\"uint256\",\"name\":\"projectId\",\"type\":\"uint256\"},{\"internalType\":\"address\",\"name\":\"token\",\"type\":\"address\"},{\"internalType\":\"contract IJBTerminal\",\"name\":\"terminal\",\"type\":\"address\"}],\"stateMutability\":\"nonpayable\",\"type\":\"function\",\"name\":\"setPrimaryTerminalOf\"},{\"inputs\":[{\"internalType\":\"uint256\",\"name\":\"projectId\",\"type\":\"uint256\"},{\"internalType\":\"contract IJBTerminal[]\",\"name\":\"terminals\",\"type\":\"address[]\"}],\"stateMutability\":\"nonpayable\",\"type\":\"function\",\"name\":\"setTerminalsOf\"},{\"inputs\":[{\"internalType\":\"uint256\",\"name\":\"projectId\",\"type\":\"uint256\"}],\"stateMutability\":\"view\",\"type\":\"function\",\"name\":\"terminalsOf\",\"outputs\":[{\"internalType\":\"contract IJBTerminal[]\",\"name\":\"\",\"type\":\"address[]\"}]},{\"inputs\":[{\"internalType\":\"address\",\"name\":\"newOwner\",\"type\":\"address\"}],\"stateMutability\":\"nonpayable\",\"type\":\"function\",\"name\":\"transferOwnership\"}],\"devdoc\":{\"kind\":\"dev\",\"methods\":{\"constructor\":{\"params\":{\"owner\":\"The address that will own the contract.\",\"permissions\":\"A contract storing permissions.\",\"projects\":\"A contract which mints ERC-721s that represent project ownership and transfers.\"}},\"isTerminalOf(uint256,address)\":{\"params\":{\"projectId\":\"The ID of the project to check.\",\"terminal\":\"The terminal to check for.\"},\"returns\":{\"_0\":\"A flag indicating whether the project uses the terminal.\"}},\"owner()\":{\"details\":\"Returns the address of the current owner.\"},\"primaryTerminalOf(uint256,address)\":{\"details\":\"Returns the first terminal that accepts the token if the project hasn't explicitly set a primary terminal for it.Returns the zero address if no terminal accepts the token.\",\"params\":{\"projectId\":\"The ID of the project to get the primary terminal of.\",\"token\":\"The token that the terminal accepts.\"},\"returns\":{\"_0\":\"The primary terminal's address.\"}},\"renounceOwnership()\":{\"details\":\"Leaves the contract without owner. It will not be possible to call `onlyOwner` functions. Can only be called by the current owner. NOTE: Renouncing ownership will leave the contract without an owner, thereby disabling any functionality that is only available to the owner.\"},\"setControllerOf(uint256,address)\":{\"details\":\"Can only be called if: - The ruleset's metadata has `allowSetController` enabled, and the message's sender is the project's owner or an address with the owner's permission to `SET_CONTROLLER`. - OR the message's sender is the project's current controller. - OR an address which `isAllowedToSetFirstController` is setting a project's first controller.\",\"params\":{\"controller\":\"The address of the controller to set.\",\"projectId\":\"The ID of the project whose controller is being set.\"}},\"setIsAllowedToSetFirstController(address,bool)\":{\"details\":\"Only this contract's owner can call this function.These addresses are vetted controllers as well as contracts designed to launch new projects.A project can set its own controller without being on this list.If you would like to add an address/contract to this list, please reach out to this contract's owner.\",\"params\":{\"addr\":\"The address to allow or not allow.\",\"flag\":\"Whether the address is allowed to set first controllers for projects. Use `true` to allow and `false` to not allow.\"}},\"setPrimaryTerminalOf(uint256,address,address)\":{\"details\":\"The primary terminal for a token is where payments in that token are routed to by default.This is useful in cases where a project has multiple terminals which accept the same token.Can only be called by the project's owner, or an address with the owner's permission to `SET_PRIMARY_TERMINAL`.\",\"params\":{\"projectId\":\"The ID of the project whose primary terminal is being set.\",\"terminal\":\"The terminal being set as the primary terminal.\",\"token\":\"The token to set the primary terminal for.\"}},\"setTerminalsOf(uint256,address[])\":{\"details\":\"Can only be called by the project's owner, an address with the owner's permission to `SET_TERMINALS`, or the project's controller.Unless the caller is the project's controller, the project's ruleset must allow setting terminals.\",\"params\":{\"projectId\":\"The ID of the project whose terminals are being set.\",\"terminals\":\"An array of terminal addresses to set for the project.\"}},\"terminalsOf(uint256)\":{\"params\":{\"projectId\":\"The ID of the project to get the terminals of.\"},\"returns\":{\"_0\":\"An array of the project's terminal addresses.\"}},\"transferOwnership(address)\":{\"details\":\"Transfers ownership of the contract to a new account (`newOwner`). Can only be called by the current owner.\"}},\"version\":1},\"userdoc\":{\"kind\":\"user\",\"methods\":{\"PERMISSIONS()\":{\"notice\":\"A contract storing permissions.\"},\"PROJECTS()\":{\"notice\":\"Mints ERC-721s that represent project ownership and transfers.\"},\"controllerOf(uint256)\":{\"notice\":\"The specified project's controller, which dictates how its terminals interact with its tokens and rulesets.\"},\"isAllowedToSetFirstController(address)\":{\"notice\":\"Whether the specified address is allowed to set a project's first controller on their behalf.\"},\"isTerminalOf(uint256,address)\":{\"notice\":\"Check if a project uses a specific terminal.\"},\"primaryTerminalOf(uint256,address)\":{\"notice\":\"The primary terminal that a project uses for the specified token.\"},\"setControllerOf(uint256,address)\":{\"notice\":\"Set a project's controller. Controllers manage how terminals interact with tokens and rulesets.\"},\"setIsAllowedToSetFirstController(address,bool)\":{\"notice\":\"Add or remove an address/contract from a list of trusted addresses which are allowed to set a first controller for projects.\"},\"setPrimaryTerminalOf(uint256,address,address)\":{\"notice\":\"Set a project's primary terminal for a token.\"},\"setTerminalsOf(uint256,address[])\":{\"notice\":\"Set a project's terminals.\"},\"terminalsOf(uint256)\":{\"notice\":\"The specified project's terminals.\"}},\"version\":1}},\"settings\":{\"remappings\":[\"@bananapus/=node_modules/@bananapus/\",\"@chainlink/=node_modules/@chainlink/\",\"@eth-optimism/=node_modules/@eth-optimism/\",\"@openzeppelin/=node_modules/@openzeppelin/\",\"@prb/=node_modules/@prb/\",\"@scroll-tech/=node_modules/@scroll-tech/\",\"@sphinx-labs/contracts/=lib/sphinx/packages/contracts/contracts/foundry/\",\"@uniswap/=node_modules/@uniswap/\",\"ds-test/=lib/forge-std/lib/ds-test/src/\",\"forge-std/=lib/forge-std/src/\",\"hardhat/=node_modules/hardhat/\",\"solmate/=node_modules/solmate/\",\"sphinx/=lib/sphinx/packages/contracts/contracts/forge-std/src/\"],\"optimizer\":{\"enabled\":true,\"runs\":200},\"metadata\":{\"bytecodeHash\":\"ipfs\"},\"compilationTarget\":{\"src/JBDirectory.sol\":\"JBDirectory\"},\"evmVersion\":\"paris\",\"libraries\":{}},\"sources\":{\"node_modules/@bananapus/permission-ids/src/JBPermissionIds.sol\":{\"keccak256\":\"0xf61109f6b217a80d5e5391f548fb6f2e451f7dbee3fabfc04cf17e88722203bc\",\"urls\":[\"bzz-raw://ac776ab1cd621c22bd7973471acdfa187f3abc659ad9a3ef6ed10b6447dfcf9c\",\"dweb:/ipfs/QmYLbaHt68qcuMzkiKpe96jMjiWUq1F3u8yMhxmZ3pnnWu\"],\"license\":\"MIT\"},\"node_modules/@openzeppelin/contracts/access/Ownable.sol\":{\"keccak256\":\"0xff6d0bb2e285473e5311d9d3caacb525ae3538a80758c10649a4d61029b017bb\",\"urls\":[\"bzz-raw://8ed324d3920bb545059d66ab97d43e43ee85fd3bd52e03e401f020afb0b120f6\",\"dweb:/ipfs/QmfEckWLmZkDDcoWrkEvMWhms66xwTLff9DDhegYpvHo1a\"],\"license\":\"MIT\"},\"node_modules/@openzeppelin/contracts/token/ERC721/IERC721.sol\":{\"keccak256\":\"0x5ef46daa3b58ef2702279d514780316efaa952915ee1aa3396f041ee2982b0b4\",\"urls\":[\"bzz-raw://2f8f2a76e23b02fc69e8cd24c3cb47da6c7af3a2d6c3a382f8ac25c6e094ade7\",\"dweb:/ipfs/QmPV4ZS4tPVv4mTCf9ejyZ1ai57EEibDRj7mN2ARDCLV5n\"],\"license\":\"MIT\"},\"node_modules/@openzeppelin/contracts/utils/Context.sol\":{\"keccak256\":\"0x493033a8d1b176a037b2cc6a04dad01a5c157722049bbecf632ca876224dd4b2\",\"urls\":[\"bzz-raw://6a708e8a5bdb1011c2c381c9a5cfd8a9a956d7d0a9dc1bd8bcdaf52f76ef2f12\",\"dweb:/ipfs/Qmax9WHBnVsZP46ZxEMNRQpLQnrdE4dK8LehML1Py8FowF\"],\"license\":\"MIT\"},\"node_modules/@openzeppelin/contracts/utils/introspection/IERC165.sol\":{\"keccak256\":\"0x4296879f55019b23e135000eb36896057e7101fb7fb859c5ef690cf14643757b\",\"urls\":[\"bzz-raw://87b3541437c8c443ccd36795e56a338ed12855eec17f8da624511b8d1a7e14df\",\"dweb:/ipfs/QmeJQCtZrQjtJLr6u7ZHWeH3pBnjtLWzvRrKViAi7UZqxL\"],\"license\":\"MIT\"},\"src/JBDirectory.sol\":{\"keccak256\":\"0x08563875685f8fd604222f93462f8e9b475ba716fc289ab4a427632d0e25bb64\",\"urls\":[\"bzz-raw://0b1f2c20d4a29dd508fae9d089f185d7c8cb32543d04652da546bf7b1aa167a3\",\"dweb:/ipfs/QmPmcqZrybGottboAaYn7Seir8dbzABPYMSATFPnL9DDY2\"],\"license\":\"MIT\"},\"src/abstract/JBPermissioned.sol\":{\"keccak256\":\"0xe08c8a7eeac9d1c7c2e0db6d5b98d1af09889300835a3d47d9f29319fecce703\",\"urls\":[\"bzz-raw://42645cf52bcc45053ef650790916faed5d0a74cecef336b217433fdd2c5c4166\",\"dweb:/ipfs/QmdMmxG1tSGucQwz4LYbVnuj7HU23YvqLH6xfrNWv5Bmus\"],\"license\":\"MIT\"},\"src/interfaces/IJBDirectory.sol\":{\"keccak256\":\"0x9cc380844aef60078ee47a61861e55a29c4a8c947efd556ebd36e6909f7b9d62\",\"urls\":[\"bzz-raw://9f5190ec8b6683d9781ee6e9eedcc91294753242748875d4a06349077e4cbaaf\",\"dweb:/ipfs/QmTQrPuXT9TCA4txwrperMeXSGvGxP8iokUK47f62F388i\"],\"license\":\"MIT\"},\"src/interfaces/IJBDirectoryAccessControl.sol\":{\"keccak256\":\"0x1e67f56849320a46f834aaa9bd62b170ff8ada7b224b4a81136193740fa0be4d\",\"urls\":[\"bzz-raw://ea8fbcec44abfe49d137bcae129b67e5479d6b17879301f88534c8a7fab00be4\",\"dweb:/ipfs/QmT6wrtYX4GRpffHUzupNwYebJ1dqkkKZLEewWsoyunsqw\"],\"license\":\"MIT\"},\"src/interfaces/IJBPayHook.sol\":{\"keccak256\":\"0x9438866782c652c2942f4d114e35f393cd3c8b0334abce8387eed90bca35e8b2\",\"urls\":[\"bzz-raw://cfd99daf57213f92325aad7d7d16e98476d38e870470e95ba01e3ae3cdecc95d\",\"dweb:/ipfs/QmUKKAVGf7ki8BHksr99tFcRW8APveeB5tNH63ctTbbCW8\"],\"license\":\"MIT\"},\"src/interfaces/IJBPermissioned.sol\":{\"keccak256\":\"0x5b038d4dee116584e88b230920e56d48e135053e3f7e5642eaea14a775c1dad7\",\"urls\":[\"bzz-raw://19e43102f349fd4a1da1c0943ffb8f2950007fe4bb4bb7e8f74fc142575d091b\",\"dweb:/ipfs/QmXHAt4KzDTdDZgDDefEXH2WKi7NcfkJb9R7nxW5uDqsNp\"],\"license\":\"MIT\"},\"src/interfaces/IJBPermissions.sol\":{\"keccak256\":\"0x18870e500edf0fbadc353e273a5574701fb80466376b908c65e7cc3f11044d4d\",\"urls\":[\"bzz-raw://352a47c45853aec80e7acf0d286ade3106eb4cb456776b28a3c2f3f1091bed90\",\"dweb:/ipfs/QmQeYd3YbudYZy2hfbfht9kwhxhw4tuuLKMEYy9UY6dcSy\"],\"license\":\"MIT\"},\"src/interfaces/IJBProjects.sol\":{\"keccak256\":\"0x735c2fb8f1fa827f054ee77f7a0ae4b312656217acb75b624d2c8fd9dc40151b\",\"urls\":[\"bzz-raw://ee7fc92299a8633a80693ae63ab494dcd125f1789487a54a39dc0e5696e5996f\",\"dweb:/ipfs/QmX7YJD4pS2XhgQb7p3JbBAXynT7YGPXcZe92BiWWRrsCL\"],\"license\":\"MIT\"},\"src/interfaces/IJBTerminal.sol\":{\"keccak256\":\"0x19dc9bf8cbdc8f13ee5da9dc3a87047eacb94a3fc19740a286c1f0bad2cc39ca\",\"urls\":[\"bzz-raw://0b05ae6fda9a85672508232fd992b8a5f5ffd8096622eeb12c8a7b3317eb3867\",\"dweb:/ipfs/QmNh9Quj37BXYGdTdcCD1Q58PchRsE5TLbEZep56qS3MpV\"],\"license\":\"MIT\"},\"src/interfaces/IJBTokenUriResolver.sol\":{\"keccak256\":\"0xfa5cb00dcd6085d1ef912d071fe73c63f9478a2cd0f9d8bddaf659b6af2d0967\",\"urls\":[\"bzz-raw://282e4e7c342d65f77cde0e9a08fcaf20ef5cf379c7a48b639842c0ffd0b2afb8\",\"dweb:/ipfs/QmbnN3PEQeZaXdPLT75V1J79kMg7KqSMru37RHrL3z8Yf2\"],\"license\":\"MIT\"},\"src/structs/JBAccountingContext.sol\":{\"keccak256\":\"0x2907ff54d1e903cc7e0390dd88c3975884702dc2673642aacbe22b66560b56de\",\"urls\":[\"bzz-raw://a66a5381ce877b32f0e0058ceeaf843e9b6b2bc8af666c0c9f4a9d01091da004\",\"dweb:/ipfs/QmQynCetUr37dBkS1YwDS8evxuXGiqanW6THmeUxXtim8w\"],\"license\":\"MIT\"},\"src/structs/JBAfterPayRecordedContext.sol\":{\"keccak256\":\"0xd26c3a774ff38be79064085970454fe2603a23a638c76270d5b1b3829206c3e8\",\"urls\":[\"bzz-raw://3b55dbe3bf1ef625b7ca04efab3de35406e6041d5b3d82c7265469c500e2b702\",\"dweb:/ipfs/QmUdBDo4Lt3mcsFcsXT2mqq3czFwZjQJFPLM89YA2VtD7k\"],\"license\":\"MIT\"},\"src/structs/JBPermissionsData.sol\":{\"keccak256\":\"0x8f0f69a6ebf5f3704e3dfcb3712fb9d3f94ae7c1ab89bf3e37bad42a3e7a0487\",\"urls\":[\"bzz-raw://57b0c5e52843e2217082889ed47b4da3943e0da4590d5768dcebfe3edad4a6b8\",\"dweb:/ipfs/QmRz48vuWLw81kUP836rh1qzqWiJFGbksgRUA9xGEDNKTY\"],\"license\":\"MIT\"},\"src/structs/JBTokenAmount.sol\":{\"keccak256\":\"0x5cf0626b73a596c1e2da17c89ae039a7c0374310b060d48568d3b6c11fbe6180\",\"urls\":[\"bzz-raw://63348b50be95e2995409394a17caffc563a646f0972650a1230bf864fbd3219b\",\"dweb:/ipfs/QmZXZpS3SbFD5nWaCauf6AqbEhLURv5qsKHpThBvQgDU6u\"],\"license\":\"MIT\"}},\"version\":1}",
			"args": [
				"0x711eda44F3D42F3d255846b5EE36Cf70Fd912E50",
				"0xfa679f5ecdd8bE404c1FbAa7f29aEB2b12F5B662",
				"0x1081B5AA9D9d4862A3dA4d469433FB36Ed80FA2A"
			],
			"bytecode": "0x60c06040523480156200001157600080fd5b5060405162001654380380620016548339810160408190526200003491620000f4565b6001600160a01b03808416608052819081166200006b57604051631e4fbdf760e01b81526000600482015260240160405180910390fd5b62000076816200008b565b50506001600160a01b031660a0525062000148565b600080546001600160a01b038381166001600160a01b0319831681178455604051919092169283917f8be0079c531659141344cd1fd0a4f28419497f9722a3daafe3b4186f6b6457e09190a35050565b6001600160a01b0381168114620000f157600080fd5b50565b6000806000606084860312156200010a57600080fd5b83516200011781620000db565b60208501519093506200012a81620000db565b60408501519092506200013d81620000db565b809150509250925092565b60805160a0516114bd620001976000396000818160f401528181610290015281816104be0152818161057201526107cd01526000818161025401528181610d470152610df001526114bd6000f3fe608060405234801561001057600080fd5b50600436106100ea5760003560e01c8063862026501161008c578063c5664e2111610066578063c5664e21146101f9578063d17541531461021c578063f2fde38b1461023c578063f434c9141461024f57600080fd5b806386202650146101c25780638da5cb5b146101d5578063a1ed3175146101e657600080fd5b80636e49181f116100c85780636e49181f14610171578063714e7f3214610194578063715018a6146101a7578063821b9fd8146101af57600080fd5b8063293c4999146100ef5780635dd8f6aa1461013357806363d0850a1461015c575b600080fd5b6101167f000000000000000000000000000000000000000000000000000000000000000081565b6040516001600160a01b0390911681526020015b60405180910390f35b61011661014136600461113f565b6001602052600090815260409020546001600160a01b031681565b61016f61016a36600461116d565b610276565b005b61018461017f3660046111af565b610425565b604051901515815260200161012a565b61016f6101a23660046111af565b6104a4565b61016f61079f565b61016f6101bd3660046111df565b6107b3565b6101166101d03660046111af565b610ab8565b6000546001600160a01b0316610116565b61016f6101f436600461126c565b610be4565b61018461020736600461129a565b60026020526000908152604090205460ff1681565b61022f61022a36600461113f565b610c4e565b60405161012a91906112be565b61016f61024a36600461129a565b610cba565b6101167f000000000000000000000000000000000000000000000000000000000000000081565b6040516331a9108f60e11b81526004810184905261030b907f00000000000000000000000000000000000000000000000000000000000000006001600160a01b031690636352211e90602401602060405180830381865afa1580156102df573d6000803e3d6000fd5b505050506040513d601f19601f82011682018060405250810190610303919061130b565b84600f610cfd565b604051633a01714f60e01b8152600481018490526001600160a01b03838116602483015260009190831690633a01714f90604401606060405180830381865afa15801561035c573d6000803e3d6000fd5b505050506040513d601f19601f820116820180604052508101906103809190611328565b516001600160a01b0316036103a857604051630faa917b60e11b815260040160405180910390fd5b6103b28382610e81565b60008381526004602090815260408083206001600160a01b038681168086529184529382902080546001600160a01b03191694861694851790559051338152909186917fc670a502bbb9f8a4315f95eca901a9f99b65f89a2eb5705a58050e5c00f9d672910160405180910390a4505050565b600082815260036020526040812054815b8181101561049757600085815260036020526040902080546001600160a01b03861691908390811061046a5761046a6113b7565b6000918252602090912001546001600160a01b03160361048f5760019250505061049e565b600101610436565b5060009150505b92915050565b6040516331a9108f60e11b81526004810183905261056f907f00000000000000000000000000000000000000000000000000000000000000006001600160a01b031690636352211e90602401602060405180830381865afa15801561050d573d6000803e3d6000fd5b505050506040513d601f19601f82011682018060405250810190610531919061130b565b336000908152600260205260409020548490600d9060ff16801561056a57506000868152600160205260409020546001600160a01b0316155b61103a565b817f00000000000000000000000000000000000000000000000000000000000000006001600160a01b03166306661abd6040518163ffffffff1660e01b8152600401602060405180830381865afa1580156105ce573d6000803e3d6000fd5b505050506040513d601f19601f820116820180604052508101906105f291906113cd565b101561061157604051634a283a5360e11b815260040160405180910390fd5b6000828152600160205260408120546001600160a01b0316908115806106a357506040516301ffc9a760e01b8152632877540760e01b60048201526001600160a01b038316906301ffc9a790602401602060405180830381865afa15801561067d573d6000803e3d6000fd5b505050506040513d601f19601f820116820180604052508101906106a191906113e6565b155b61071557604051632674968d60e21b8152600481018590526001600160a01b038316906399d25a3490602401602060405180830381865afa1580156106ec573d6000803e3d6000fd5b505050506040513d601f19601f8201168201806040525081019061071091906113e6565b610718565b60015b9050806107385760405163a33db4cb60e01b815260040160405180910390fd5b60008481526001602090815260409182902080546001600160a01b0319166001600160a01b038716908117909155915133815286917f7f9a7dcb234c909a09de2f344661ad9e5b24067adb97c908647c2edcbb121c3091015b60405180910390a350505050565b6107a761104a565b6107b16000611077565b565b6040516331a9108f60e11b815260048101849052610864907f00000000000000000000000000000000000000000000000000000000000000006001600160a01b031690636352211e90602401602060405180830381865afa15801561081c573d6000803e3d6000fd5b505050506040513d601f19601f82011682018060405250810190610840919061130b565b6000858152600160205260409020548590600e906001600160a01b0316331461103a565b6000838152600160205260408082205490516301ffc9a760e01b8152632877540760e01b60048201526001600160a01b03909116919082906301ffc9a790602401602060405180830381865afa1580156108c2573d6000803e3d6000fd5b505050506040513d601f19601f820116820180604052508101906108e691906113e6565b1580610956575060405163b1a50e3360e01b8152600481018690526001600160a01b0383169063b1a50e3390602401602060405180830381865afa158015610932573d6000803e3d6000fd5b505050506040513d601f19601f8201168201806040525081019061095691906113e6565b6000868152600160205260409020549091506001600160a01b0316331480159061097e575080155b1561099c576040516375fef35f60e11b815260040160405180910390fd5b60008581526003602052604090206109b59085856110c7565b50826001811115610a745760005b81811015610a725760006109d8826001611403565b90505b82811015610a69578686828181106109f5576109f56113b7565b9050602002016020810190610a0a919061129a565b6001600160a01b0316878784818110610a2557610a256113b7565b9050602002016020810190610a3a919061129a565b6001600160a01b031603610a6157604051633e3830ab60e11b815260040160405180910390fd5b6001016109db565b506001016109c3565b505b857fb648241d83df6540fc10f2acc641e4bf80a1e84e7ae2f1f6b0ad204b8fee635b868633604051610aa893929190611424565b60405180910390a2505050505050565b60008281526004602090815260408083206001600160a01b0380861685529252822054168015801590610af05750610af08482610425565b15610afc57905061049e565b600084815260036020526040812054905b81811015610bd8576000868152600360205260408120805483908110610b3557610b356113b7565b6000918252602082200154604051633a01714f60e01b8152600481018a90526001600160a01b03898116602483015290911692508290633a01714f90604401606060405180830381865afa158015610b91573d6000803e3d6000fd5b505050506040513d601f19601f82011682018060405250810190610bb59190611328565b516001600160a01b031614610bcf57935061049e92505050565b50600101610b0d565b50600095945050505050565b610bec61104a565b6001600160a01b038216600081815260026020908152604091829020805460ff191685151590811790915591513381529192917f11207664cc48b0fa81c8674795f1d8f642960f38d5d2d305ad813093bed85fab910160405180910390a35050565b600081815260036020908152604091829020805483518184028101840190945280845260609392830182828015610cae57602002820191906000526020600020905b81546001600160a01b03168152600190910190602001808311610c90575b50505050509050919050565b610cc261104a565b6001600160a01b038116610cf157604051631e4fbdf760e01b8152600060048201526024015b60405180910390fd5b610cfa81611077565b50565b336001600160a01b0384168114801590610db4575060405163c161c93f60e01b81526001600160a01b038281166004830152858116602483015260448201859052606482018490527f0000000000000000000000000000000000000000000000000000000000000000169063c161c93f90608401602060405180830381865afa158015610d8e573d6000803e3d6000fd5b505050506040513d601f19601f82011682018060405250810190610db291906113e6565b155b8015610e5d575060405163c161c93f60e01b81526001600160a01b038281166004830152858116602483015260006044830152606482018490527f0000000000000000000000000000000000000000000000000000000000000000169063c161c93f90608401602060405180830381865afa158015610e37573d6000803e3d6000fd5b505050506040513d601f19601f82011682018060405250810190610e5b91906113e6565b155b15610e7b5760405163075fd2b160e01b815260040160405180910390fd5b50505050565b610e8b8282610425565b15610e94575050565b6000828152600160205260408082205490516301ffc9a760e01b8152632877540760e01b60048201526001600160a01b03909116919082906301ffc9a790602401602060405180830381865afa158015610ef2573d6000803e3d6000fd5b505050506040513d601f19601f82011682018060405250810190610f1691906113e6565b1580610f86575060405163b1a50e3360e01b8152600481018590526001600160a01b0383169063b1a50e3390602401602060405180830381865afa158015610f62573d6000803e3d6000fd5b505050506040513d601f19601f82011682018060405250810190610f8691906113e6565b6000858152600160205260409020549091506001600160a01b03163314801590610fae575080155b15610fcc576040516375fef35f60e11b815260040160405180910390fd5b600084815260036020908152604080832080546001810182559084529282902090920180546001600160a01b0319166001600160a01b038716908117909155915133815286917f409bccc07b7cf7807930526a24318212d614c59f2dde05a017a41efee144e7c89101610791565b80610e7b57610e7b848484610cfd565b6000546001600160a01b031633146107b15760405163118cdaa760e01b8152336004820152602401610ce8565b600080546001600160a01b038381166001600160a01b0319831681178455604051919092169283917f8be0079c531659141344cd1fd0a4f28419497f9722a3daafe3b4186f6b6457e09190a35050565b82805482825590600052602060002090810192821561111a579160200282015b8281111561111a5781546001600160a01b0319166001600160a01b038435161782556020909201916001909101906110e7565b5061112692915061112a565b5090565b5b80821115611126576000815560010161112b565b60006020828403121561115157600080fd5b5035919050565b6001600160a01b0381168114610cfa57600080fd5b60008060006060848603121561118257600080fd5b83359250602084013561119481611158565b915060408401356111a481611158565b809150509250925092565b600080604083850312156111c257600080fd5b8235915060208301356111d481611158565b809150509250929050565b6000806000604084860312156111f457600080fd5b83359250602084013567ffffffffffffffff8082111561121357600080fd5b818601915086601f83011261122757600080fd5b81358181111561123657600080fd5b8760208260051b850101111561124b57600080fd5b6020830194508093505050509250925092565b8015158114610cfa57600080fd5b6000806040838503121561127f57600080fd5b823561128a81611158565b915060208301356111d48161125e565b6000602082840312156112ac57600080fd5b81356112b781611158565b9392505050565b6020808252825182820181905260009190848201906040850190845b818110156112ff5783516001600160a01b0316835292840192918401916001016112da565b50909695505050505050565b60006020828403121561131d57600080fd5b81516112b781611158565b60006060828403121561133a57600080fd5b6040516060810181811067ffffffffffffffff8211171561136b57634e487b7160e01b600052604160045260246000fd5b604052825161137981611158565b8152602083015160ff8116811461138f57600080fd5b6020820152604083015163ffffffff811681146113ab57600080fd5b60408201529392505050565b634e487b7160e01b600052603260045260246000fd5b6000602082840312156113df57600080fd5b5051919050565b6000602082840312156113f857600080fd5b81516112b78161125e565b8082018082111561049e57634e487b7160e01b600052601160045260246000fd5b6040808252810183905260008460608301825b8681101561146757823561144a81611158565b6001600160a01b0316825260209283019290910190600101611437565b506001600160a01b0394909416602093909301929092525090939250505056fea264697066735822122039f22f46837ec018b1950ba55c4f67b583ddfe2f2489b4e15b083573901cc82e64736f6c63430008170033",
			"deployedBytecode": "0x608060405234801561001057600080fd5b50600436106100ea5760003560e01c8063862026501161008c578063c5664e2111610066578063c5664e21146101f9578063d17541531461021c578063f2fde38b1461023c578063f434c9141461024f57600080fd5b806386202650146101c25780638da5cb5b146101d5578063a1ed3175146101e657600080fd5b80636e49181f116100c85780636e49181f14610171578063714e7f3214610194578063715018a6146101a7578063821b9fd8146101af57600080fd5b8063293c4999146100ef5780635dd8f6aa1461013357806363d0850a1461015c575b600080fd5b6101167f000000000000000000000000fa679f5ecdd8be404c1fbaa7f29aeb2b12f5b66281565b6040516001600160a01b0390911681526020015b60405180910390f35b61011661014136600461113f565b6001602052600090815260409020546001600160a01b031681565b61016f61016a36600461116d565b610276565b005b61018461017f3660046111af565b610425565b604051901515815260200161012a565b61016f6101a23660046111af565b6104a4565b61016f61079f565b61016f6101bd3660046111df565b6107b3565b6101166101d03660046111af565b610ab8565b6000546001600160a01b0316610116565b61016f6101f436600461126c565b610be4565b61018461020736600461129a565b60026020526000908152604090205460ff1681565b61022f61022a36600461113f565b610c4e565b60405161012a91906112be565b61016f61024a36600461129a565b610cba565b6101167f000000000000000000000000711eda44f3d42f3d255846b5ee36cf70fd912e5081565b6040516331a9108f60e11b81526004810184905261030b907f000000000000000000000000fa679f5ecdd8be404c1fbaa7f29aeb2b12f5b6626001600160a01b031690636352211e90602401602060405180830381865afa1580156102df573d6000803e3d6000fd5b505050506040513d601f19601f82011682018060405250810190610303919061130b565b84600f610cfd565b604051633a01714f60e01b8152600481018490526001600160a01b03838116602483015260009190831690633a01714f90604401606060405180830381865afa15801561035c573d6000803e3d6000fd5b505050506040513d601f19601f820116820180604052508101906103809190611328565b516001600160a01b0316036103a857604051630faa917b60e11b815260040160405180910390fd5b6103b28382610e81565b60008381526004602090815260408083206001600160a01b038681168086529184529382902080546001600160a01b03191694861694851790559051338152909186917fc670a502bbb9f8a4315f95eca901a9f99b65f89a2eb5705a58050e5c00f9d672910160405180910390a4505050565b600082815260036020526040812054815b8181101561049757600085815260036020526040902080546001600160a01b03861691908390811061046a5761046a6113b7565b6000918252602090912001546001600160a01b03160361048f5760019250505061049e565b600101610436565b5060009150505b92915050565b6040516331a9108f60e11b81526004810183905261056f907f000000000000000000000000fa679f5ecdd8be404c1fbaa7f29aeb2b12f5b6626001600160a01b031690636352211e90602401602060405180830381865afa15801561050d573d6000803e3d6000fd5b505050506040513d601f19601f82011682018060405250810190610531919061130b565b336000908152600260205260409020548490600d9060ff16801561056a57506000868152600160205260409020546001600160a01b0316155b61103a565b817f000000000000000000000000fa679f5ecdd8be404c1fbaa7f29aeb2b12f5b6626001600160a01b03166306661abd6040518163ffffffff1660e01b8152600401602060405180830381865afa1580156105ce573d6000803e3d6000fd5b505050506040513d601f19601f820116820180604052508101906105f291906113cd565b101561061157604051634a283a5360e11b815260040160405180910390fd5b6000828152600160205260408120546001600160a01b0316908115806106a357506040516301ffc9a760e01b8152632877540760e01b60048201526001600160a01b038316906301ffc9a790602401602060405180830381865afa15801561067d573d6000803e3d6000fd5b505050506040513d601f19601f820116820180604052508101906106a191906113e6565b155b61071557604051632674968d60e21b8152600481018590526001600160a01b038316906399d25a3490602401602060405180830381865afa1580156106ec573d6000803e3d6000fd5b505050506040513d601f19601f8201168201806040525081019061071091906113e6565b610718565b60015b9050806107385760405163a33db4cb60e01b815260040160405180910390fd5b60008481526001602090815260409182902080546001600160a01b0319166001600160a01b038716908117909155915133815286917f7f9a7dcb234c909a09de2f344661ad9e5b24067adb97c908647c2edcbb121c3091015b60405180910390a350505050565b6107a761104a565b6107b16000611077565b565b6040516331a9108f60e11b815260048101849052610864907f000000000000000000000000fa679f5ecdd8be404c1fbaa7f29aeb2b12f5b6626001600160a01b031690636352211e90602401602060405180830381865afa15801561081c573d6000803e3d6000fd5b505050506040513d601f19601f82011682018060405250810190610840919061130b565b6000858152600160205260409020548590600e906001600160a01b0316331461103a565b6000838152600160205260408082205490516301ffc9a760e01b8152632877540760e01b60048201526001600160a01b03909116919082906301ffc9a790602401602060405180830381865afa1580156108c2573d6000803e3d6000fd5b505050506040513d601f19601f820116820180604052508101906108e691906113e6565b1580610956575060405163b1a50e3360e01b8152600481018690526001600160a01b0383169063b1a50e3390602401602060405180830381865afa158015610932573d6000803e3d6000fd5b505050506040513d601f19601f8201168201806040525081019061095691906113e6565b6000868152600160205260409020549091506001600160a01b0316331480159061097e575080155b1561099c576040516375fef35f60e11b815260040160405180910390fd5b60008581526003602052604090206109b59085856110c7565b50826001811115610a745760005b81811015610a725760006109d8826001611403565b90505b82811015610a69578686828181106109f5576109f56113b7565b9050602002016020810190610a0a919061129a565b6001600160a01b0316878784818110610a2557610a256113b7565b9050602002016020810190610a3a919061129a565b6001600160a01b031603610a6157604051633e3830ab60e11b815260040160405180910390fd5b6001016109db565b506001016109c3565b505b857fb648241d83df6540fc10f2acc641e4bf80a1e84e7ae2f1f6b0ad204b8fee635b868633604051610aa893929190611424565b60405180910390a2505050505050565b60008281526004602090815260408083206001600160a01b0380861685529252822054168015801590610af05750610af08482610425565b15610afc57905061049e565b600084815260036020526040812054905b81811015610bd8576000868152600360205260408120805483908110610b3557610b356113b7565b6000918252602082200154604051633a01714f60e01b8152600481018a90526001600160a01b03898116602483015290911692508290633a01714f90604401606060405180830381865afa158015610b91573d6000803e3d6000fd5b505050506040513d601f19601f82011682018060405250810190610bb59190611328565b516001600160a01b031614610bcf57935061049e92505050565b50600101610b0d565b50600095945050505050565b610bec61104a565b6001600160a01b038216600081815260026020908152604091829020805460ff191685151590811790915591513381529192917f11207664cc48b0fa81c8674795f1d8f642960f38d5d2d305ad813093bed85fab910160405180910390a35050565b600081815260036020908152604091829020805483518184028101840190945280845260609392830182828015610cae57602002820191906000526020600020905b81546001600160a01b03168152600190910190602001808311610c90575b50505050509050919050565b610cc261104a565b6001600160a01b038116610cf157604051631e4fbdf760e01b8152600060048201526024015b60405180910390fd5b610cfa81611077565b50565b336001600160a01b0384168114801590610db4575060405163c161c93f60e01b81526001600160a01b038281166004830152858116602483015260448201859052606482018490527f000000000000000000000000711eda44f3d42f3d255846b5ee36cf70fd912e50169063c161c93f90608401602060405180830381865afa158015610d8e573d6000803e3d6000fd5b505050506040513d601f19601f82011682018060405250810190610db291906113e6565b155b8015610e5d575060405163c161c93f60e01b81526001600160a01b038281166004830152858116602483015260006044830152606482018490527f000000000000000000000000711eda44f3d42f3d255846b5ee36cf70fd912e50169063c161c93f90608401602060405180830381865afa158015610e37573d6000803e3d6000fd5b505050506040513d601f19601f82011682018060405250810190610e5b91906113e6565b155b15610e7b5760405163075fd2b160e01b815260040160405180910390fd5b50505050565b610e8b8282610425565b15610e94575050565b6000828152600160205260408082205490516301ffc9a760e01b8152632877540760e01b60048201526001600160a01b03909116919082906301ffc9a790602401602060405180830381865afa158015610ef2573d6000803e3d6000fd5b505050506040513d601f19601f82011682018060405250810190610f1691906113e6565b1580610f86575060405163b1a50e3360e01b8152600481018590526001600160a01b0383169063b1a50e3390602401602060405180830381865afa158015610f62573d6000803e3d6000fd5b505050506040513d601f19601f82011682018060405250810190610f8691906113e6565b6000858152600160205260409020549091506001600160a01b03163314801590610fae575080155b15610fcc576040516375fef35f60e11b815260040160405180910390fd5b600084815260036020908152604080832080546001810182559084529282902090920180546001600160a01b0319166001600160a01b038716908117909155915133815286917f409bccc07b7cf7807930526a24318212d614c59f2dde05a017a41efee144e7c89101610791565b80610e7b57610e7b848484610cfd565b6000546001600160a01b031633146107b15760405163118cdaa760e01b8152336004820152602401610ce8565b600080546001600160a01b038381166001600160a01b0319831681178455604051919092169283917f8be0079c531659141344cd1fd0a4f28419497f9722a3daafe3b4186f6b6457e09190a35050565b82805482825590600052602060002090810192821561111a579160200282015b8281111561111a5781546001600160a01b0319166001600160a01b038435161782556020909201916001909101906110e7565b5061112692915061112a565b5090565b5b80821115611126576000815560010161112b565b60006020828403121561115157600080fd5b5035919050565b6001600160a01b0381168114610cfa57600080fd5b60008060006060848603121561118257600080fd5b83359250602084013561119481611158565b915060408401356111a481611158565b809150509250925092565b600080604083850312156111c257600080fd5b8235915060208301356111d481611158565b809150509250929050565b6000806000604084860312156111f457600080fd5b83359250602084013567ffffffffffffffff8082111561121357600080fd5b818601915086601f83011261122757600080fd5b81358181111561123657600080fd5b8760208260051b850101111561124b57600080fd5b6020830194508093505050509250925092565b8015158114610cfa57600080fd5b6000806040838503121561127f57600080fd5b823561128a81611158565b915060208301356111d48161125e565b6000602082840312156112ac57600080fd5b81356112b781611158565b9392505050565b6020808252825182820181905260009190848201906040850190845b818110156112ff5783516001600160a01b0316835292840192918401916001016112da565b50909695505050505050565b60006020828403121561131d57600080fd5b81516112b781611158565b60006060828403121561133a57600080fd5b6040516060810181811067ffffffffffffffff8211171561136b57634e487b7160e01b600052604160045260246000fd5b604052825161137981611158565b8152602083015160ff8116811461138f57600080fd5b6020820152604083015163ffffffff811681146113ab57600080fd5b60408201529392505050565b634e487b7160e01b600052603260045260246000fd5b6000602082840312156113df57600080fd5b5051919050565b6000602082840312156113f857600080fd5b81516112b78161125e565b8082018082111561049e57634e487b7160e01b600052601160045260246000fd5b6040808252810183905260008460608301825b8681101561146757823561144a81611158565b6001600160a01b0316825260209283019290910190600101611437565b506001600160a01b0394909416602093909301929092525090939250505056fea264697066735822122039f22f46837ec018b1950ba55c4f67b583ddfe2f2489b4e15b083573901cc82e64736f6c63430008170033",
			"devdoc": {
				"kind": "dev",
				"methods": {
					"constructor": {
						"params": {
							"owner": "The address that will own the contract.",
							"permissions": "A contract storing permissions.",
							"projects": "A contract which mints ERC-721s that represent project ownership and transfers."
						}
					},
					"isTerminalOf(uint256,address)": {
						"params": {
							"projectId": "The ID of the project to check.",
							"terminal": "The terminal to check for."
						},
						"returns": {
							"_0": "A flag indicating whether the project uses the terminal."
						}
					},
					"owner()": {
						"details": "Returns the address of the current owner."
					},
					"primaryTerminalOf(uint256,address)": {
						"details": "Returns the first terminal that accepts the token if the project hasn't explicitly set a primary terminal for it.Returns the zero address if no terminal accepts the token.",
						"params": {
							"projectId": "The ID of the project to get the primary terminal of.",
							"token": "The token that the terminal accepts."
						},
						"returns": {
							"_0": "The primary terminal's address."
						}
					},
					"renounceOwnership()": {
						"details": "Leaves the contract without owner. It will not be possible to call `onlyOwner` functions. Can only be called by the current owner. NOTE: Renouncing ownership will leave the contract without an owner, thereby disabling any functionality that is only available to the owner."
					},
					"setControllerOf(uint256,address)": {
						"details": "Can only be called if: - The ruleset's metadata has `allowSetController` enabled, and the message's sender is the project's owner or an address with the owner's permission to `SET_CONTROLLER`. - OR the message's sender is the project's current controller. - OR an address which `isAllowedToSetFirstController` is setting a project's first controller.",
						"params": {
							"controller": "The address of the controller to set.",
							"projectId": "The ID of the project whose controller is being set."
						}
					},
					"setIsAllowedToSetFirstController(address,bool)": {
						"details": "Only this contract's owner can call this function.These addresses are vetted controllers as well as contracts designed to launch new projects.A project can set its own controller without being on this list.If you would like to add an address/contract to this list, please reach out to this contract's owner.",
						"params": {
							"addr": "The address to allow or not allow.",
							"flag": "Whether the address is allowed to set first controllers for projects. Use `true` to allow and `false` to not allow."
						}
					},
					"setPrimaryTerminalOf(uint256,address,address)": {
						"details": "The primary terminal for a token is where payments in that token are routed to by default.This is useful in cases where a project has multiple terminals which accept the same token.Can only be called by the project's owner, or an address with the owner's permission to `SET_PRIMARY_TERMINAL`.",
						"params": {
							"projectId": "The ID of the project whose primary terminal is being set.",
							"terminal": "The terminal being set as the primary terminal.",
							"token": "The token to set the primary terminal for."
						}
					},
					"setTerminalsOf(uint256,address[])": {
						"details": "Can only be called by the project's owner, an address with the owner's permission to `SET_TERMINALS`, or the project's controller.Unless the caller is the project's controller, the project's ruleset must allow setting terminals.",
						"params": {
							"projectId": "The ID of the project whose terminals are being set.",
							"terminals": "An array of terminal addresses to set for the project."
						}
					},
					"terminalsOf(uint256)": {
						"params": {
							"projectId": "The ID of the project to get the terminals of."
						},
						"returns": {
							"_0": "An array of the project's terminal addresses."
						}
					},
					"transferOwnership(address)": {
						"details": "Transfers ownership of the contract to a new account (`newOwner`). Can only be called by the current owner."
					}
				},
				"version": 1
			},
			"userdoc": {
				"kind": "user",
				"methods": {
					"PERMISSIONS()": {
						"notice": "A contract storing permissions."
					},
					"PROJECTS()": {
						"notice": "Mints ERC-721s that represent project ownership and transfers."
					},
					"controllerOf(uint256)": {
						"notice": "The specified project's controller, which dictates how its terminals interact with its tokens and rulesets."
					},
					"isAllowedToSetFirstController(address)": {
						"notice": "Whether the specified address is allowed to set a project's first controller on their behalf."
					},
					"isTerminalOf(uint256,address)": {
						"notice": "Check if a project uses a specific terminal."
					},
					"primaryTerminalOf(uint256,address)": {
						"notice": "The primary terminal that a project uses for the specified token."
					},
					"setControllerOf(uint256,address)": {
						"notice": "Set a project's controller. Controllers manage how terminals interact with tokens and rulesets."
					},
					"setIsAllowedToSetFirstController(address,bool)": {
						"notice": "Add or remove an address/contract from a list of trusted addresses which are allowed to set a first controller for projects."
					},
					"setPrimaryTerminalOf(uint256,address,address)": {
						"notice": "Set a project's primary terminal for a token."
					},
					"setTerminalsOf(uint256,address[])": {
						"notice": "Set a project's terminals."
					},
					"terminalsOf(uint256)": {
						"notice": "The specified project's terminals."
					}
				},
				"version": 1
			},
			"gitCommit": "e6ea9467ae7d4f2046989fda11961b007525098a",
			"sourceName": "src/JBDirectory.sol",
			"chainId": "11155111",
			"linkReferences": {},
			"deployedLinkReferences": {}
		},
		{
			"_format": "sphinx-sol-ct-artifact-1",
			"merkleRoot": "0xeb76efeb8f97c5cb80ab72b380ea5b356ede5f4abbf2a0c560104f8a80b45857",
			"contractName": "JBDirectory",
			"address": "0xCD8c4da77dfb15C05486D3F71Ee4C2C0dfdbc94e",
			"abi": [
				{
					"type": "constructor",
					"inputs": [
						{
							"name": "permissions",
							"type": "address",
							"internalType": "contract IJBPermissions"
						},
						{
							"name": "projects",
							"type": "address",
							"internalType": "contract IJBProjects"
						},
						{
							"name": "owner",
							"type": "address",
							"internalType": "address"
						}
					],
					"stateMutability": "nonpayable"
				},
				{
					"type": "function",
					"name": "PERMISSIONS",
					"inputs": [],
					"outputs": [
						{
							"name": "",
							"type": "address",
							"internalType": "contract IJBPermissions"
						}
					],
					"stateMutability": "view"
				},
				{
					"type": "function",
					"name": "PROJECTS",
					"inputs": [],
					"outputs": [
						{
							"name": "",
							"type": "address",
							"internalType": "contract IJBProjects"
						}
					],
					"stateMutability": "view"
				},
				{
					"type": "function",
					"name": "controllerOf",
					"inputs": [
						{
							"name": "projectId",
							"type": "uint256",
							"internalType": "uint256"
						}
					],
					"outputs": [
						{
							"name": "",
							"type": "address",
							"internalType": "contract IERC165"
						}
					],
					"stateMutability": "view"
				},
				{
					"type": "function",
					"name": "isAllowedToSetFirstController",
					"inputs": [
						{
							"name": "addr",
							"type": "address",
							"internalType": "address"
						}
					],
					"outputs": [
						{
							"name": "",
							"type": "bool",
							"internalType": "bool"
						}
					],
					"stateMutability": "view"
				},
				{
					"type": "function",
					"name": "isTerminalOf",
					"inputs": [
						{
							"name": "projectId",
							"type": "uint256",
							"internalType": "uint256"
						},
						{
							"name": "terminal",
							"type": "address",
							"internalType": "contract IJBTerminal"
						}
					],
					"outputs": [
						{
							"name": "",
							"type": "bool",
							"internalType": "bool"
						}
					],
					"stateMutability": "view"
				},
				{
					"type": "function",
					"name": "owner",
					"inputs": [],
					"outputs": [
						{
							"name": "",
							"type": "address",
							"internalType": "address"
						}
					],
					"stateMutability": "view"
				},
				{
					"type": "function",
					"name": "primaryTerminalOf",
					"inputs": [
						{
							"name": "projectId",
							"type": "uint256",
							"internalType": "uint256"
						},
						{
							"name": "token",
							"type": "address",
							"internalType": "address"
						}
					],
					"outputs": [
						{
							"name": "",
							"type": "address",
							"internalType": "contract IJBTerminal"
						}
					],
					"stateMutability": "view"
				},
				{
					"type": "function",
					"name": "renounceOwnership",
					"inputs": [],
					"outputs": [],
					"stateMutability": "nonpayable"
				},
				{
					"type": "function",
					"name": "setControllerOf",
					"inputs": [
						{
							"name": "projectId",
							"type": "uint256",
							"internalType": "uint256"
						},
						{
							"name": "controller",
							"type": "address",
							"internalType": "contract IERC165"
						}
					],
					"outputs": [],
					"stateMutability": "nonpayable"
				},
				{
					"type": "function",
					"name": "setIsAllowedToSetFirstController",
					"inputs": [
						{
							"name": "addr",
							"type": "address",
							"internalType": "address"
						},
						{
							"name": "flag",
							"type": "bool",
							"internalType": "bool"
						}
					],
					"outputs": [],
					"stateMutability": "nonpayable"
				},
				{
					"type": "function",
					"name": "setPrimaryTerminalOf",
					"inputs": [
						{
							"name": "projectId",
							"type": "uint256",
							"internalType": "uint256"
						},
						{
							"name": "token",
							"type": "address",
							"internalType": "address"
						},
						{
							"name": "terminal",
							"type": "address",
							"internalType": "contract IJBTerminal"
						}
					],
					"outputs": [],
					"stateMutability": "nonpayable"
				},
				{
					"type": "function",
					"name": "setTerminalsOf",
					"inputs": [
						{
							"name": "projectId",
							"type": "uint256",
							"internalType": "uint256"
						},
						{
							"name": "terminals",
							"type": "address[]",
							"internalType": "contract IJBTerminal[]"
						}
					],
					"outputs": [],
					"stateMutability": "nonpayable"
				},
				{
					"type": "function",
					"name": "terminalsOf",
					"inputs": [
						{
							"name": "projectId",
							"type": "uint256",
							"internalType": "uint256"
						}
					],
					"outputs": [
						{
							"name": "",
							"type": "address[]",
							"internalType": "contract IJBTerminal[]"
						}
					],
					"stateMutability": "view"
				},
				{
					"type": "function",
					"name": "transferOwnership",
					"inputs": [
						{
							"name": "newOwner",
							"type": "address",
							"internalType": "address"
						}
					],
					"outputs": [],
					"stateMutability": "nonpayable"
				},
				{
					"type": "event",
					"name": "AddTerminal",
					"inputs": [
						{
							"name": "projectId",
							"type": "uint256",
							"indexed": true,
							"internalType": "uint256"
						},
						{
							"name": "terminal",
							"type": "address",
							"indexed": true,
							"internalType": "contract IJBTerminal"
						},
						{
							"name": "caller",
							"type": "address",
							"indexed": false,
							"internalType": "address"
						}
					],
					"anonymous": false
				},
				{
					"type": "event",
					"name": "OwnershipTransferred",
					"inputs": [
						{
							"name": "previousOwner",
							"type": "address",
							"indexed": true,
							"internalType": "address"
						},
						{
							"name": "newOwner",
							"type": "address",
							"indexed": true,
							"internalType": "address"
						}
					],
					"anonymous": false
				},
				{
					"type": "event",
					"name": "SetController",
					"inputs": [
						{
							"name": "projectId",
							"type": "uint256",
							"indexed": true,
							"internalType": "uint256"
						},
						{
							"name": "controller",
							"type": "address",
							"indexed": true,
							"internalType": "contract IERC165"
						},
						{
							"name": "caller",
							"type": "address",
							"indexed": false,
							"internalType": "address"
						}
					],
					"anonymous": false
				},
				{
					"type": "event",
					"name": "SetIsAllowedToSetFirstController",
					"inputs": [
						{
							"name": "addr",
							"type": "address",
							"indexed": true,
							"internalType": "address"
						},
						{
							"name": "flag",
							"type": "bool",
							"indexed": true,
							"internalType": "bool"
						},
						{
							"name": "caller",
							"type": "address",
							"indexed": false,
							"internalType": "address"
						}
					],
					"anonymous": false
				},
				{
					"type": "event",
					"name": "SetPrimaryTerminal",
					"inputs": [
						{
							"name": "projectId",
							"type": "uint256",
							"indexed": true,
							"internalType": "uint256"
						},
						{
							"name": "token",
							"type": "address",
							"indexed": true,
							"internalType": "address"
						},
						{
							"name": "terminal",
							"type": "address",
							"indexed": true,
							"internalType": "contract IJBTerminal"
						},
						{
							"name": "caller",
							"type": "address",
							"indexed": false,
							"internalType": "address"
						}
					],
					"anonymous": false
				},
				{
					"type": "event",
					"name": "SetTerminals",
					"inputs": [
						{
							"name": "projectId",
							"type": "uint256",
							"indexed": true,
							"internalType": "uint256"
						},
						{
							"name": "terminals",
							"type": "address[]",
							"indexed": false,
							"internalType": "contract IJBTerminal[]"
						},
						{
							"name": "caller",
							"type": "address",
							"indexed": false,
							"internalType": "address"
						}
					],
					"anonymous": false
				},
				{
					"type": "error",
					"name": "DUPLICATE_TERMINALS",
					"inputs": []
				},
				{
					"type": "error",
					"name": "INVALID_PROJECT_ID_IN_DIRECTORY",
					"inputs": []
				},
				{
					"type": "error",
					"name": "OwnableInvalidOwner",
					"inputs": [
						{
							"name": "owner",
							"type": "address",
							"internalType": "address"
						}
					]
				},
				{
					"type": "error",
					"name": "OwnableUnauthorizedAccount",
					"inputs": [
						{
							"name": "account",
							"type": "address",
							"internalType": "address"
						}
					]
				},
				{
					"type": "error",
					"name": "SET_CONTROLLER_NOT_ALLOWED",
					"inputs": []
				},
				{
					"type": "error",
					"name": "SET_TERMINALS_NOT_ALLOWED",
					"inputs": []
				},
				{
					"type": "error",
					"name": "TOKEN_NOT_ACCEPTED",
					"inputs": []
				},
				{
					"type": "error",
					"name": "UNAUTHORIZED",
					"inputs": []
				}
			],
			"solcInputHash": "5d4c706d93c97620ff427d8d75b46099",
			"receipt": {
				"blockHash": "0x15af9d6b613e63aa67a94bdab9aac70d9515662d508294a3992abd6846a9971d",
				"blockNumber": 5748756,
				"contractAddress": null,
				"cumulativeGasUsed": "20436692",
				"from": "0xC034550B542b83BA1De312b21d1C94a9a52B1595",
				"gasPrice": "475718",
				"gasUsed": "11016827",
				"hash": "0x5a09e5bb337ef9da18886855ff6ef7f2397eda53fa96bec55caa6beecf9f7cd7",
				"index": 74,
				"logs": [
					{
						"address": "0xB5E96127D417b1B3ef8438496a38A143167209c7",
						"blockHash": "0x15af9d6b613e63aa67a94bdab9aac70d9515662d508294a3992abd6846a9971d",
						"blockNumber": 5748756,
						"data": "0x0000000000000000000000000000000000000000000000000000000000000000",
						"index": 110,
						"topics": [
							"0x572f161235911da04685a68c06adf558fc7e4a36909dca394650e0adc19cc93d",
							"0x000000000000000000000000c034550b542b83ba1de312b21d1c94a9a52b1595",
							"0x000000000000000000000000ef1be3c049809cace5bc203bbe4ec1ab284bf75c",
							"0x7a34cf5b53d21a59bfe3f6e4fe29cca1268d2254084cc87e3d35a0987580ce59"
						],
						"transactionHash": "0x5a09e5bb337ef9da18886855ff6ef7f2397eda53fa96bec55caa6beecf9f7cd7",
						"transactionIndex": 74
					},
					{
						"address": "0x1081B5AA9D9d4862A3dA4d469433FB36Ed80FA2A",
						"blockHash": "0x15af9d6b613e63aa67a94bdab9aac70d9515662d508294a3992abd6846a9971d",
						"blockNumber": 5748756,
						"data": "0x",
						"index": 111,
						"topics": [
							"0x6895c13664aa4f67288b25d7a21d7aaa34916e355fb9b6fae0a139a9085becb8",
							"0x000000000000000000000000ef1be3c049809cace5bc203bbe4ec1ab284bf75c"
						],
						"transactionHash": "0x5a09e5bb337ef9da18886855ff6ef7f2397eda53fa96bec55caa6beecf9f7cd7",
						"transactionIndex": 74
					},
					{
						"address": "0xEf1Be3C049809caCe5Bc203BBe4Ec1Ab284bF75c",
						"blockHash": "0x15af9d6b613e63aa67a94bdab9aac70d9515662d508294a3992abd6846a9971d",
						"blockNumber": 5748756,
						"data": "0x0000000000000000000000000000000000000000000000000000000000000001",
						"index": 112,
						"topics": [
							"0xa65fb05c5808f5f389d72edeaf719ce38f4cc55c1f69ca3cbfb31c21501caa07",
							"0xeb76efeb8f97c5cb80ab72b380ea5b356ede5f4abbf2a0c560104f8a80b45857"
						],
						"transactionHash": "0x5a09e5bb337ef9da18886855ff6ef7f2397eda53fa96bec55caa6beecf9f7cd7",
						"transactionIndex": 74
					},
					{
						"address": "0xf9dadA4628Eb3992202CF253625d4ECebBC1592f",
						"blockHash": "0x15af9d6b613e63aa67a94bdab9aac70d9515662d508294a3992abd6846a9971d",
						"blockNumber": 5748756,
						"data": "0x",
						"index": 113,
						"topics": [
							"0x8be0079c531659141344cd1fd0a4f28419497f9722a3daafe3b4186f6b6457e0",
							"0x0000000000000000000000000000000000000000000000000000000000000000",
							"0x0000000000000000000000001081b5aa9d9d4862a3da4d469433fb36ed80fa2a"
						],
						"transactionHash": "0x5a09e5bb337ef9da18886855ff6ef7f2397eda53fa96bec55caa6beecf9f7cd7",
						"transactionIndex": 74
					},
					{
						"address": "0xf9dadA4628Eb3992202CF253625d4ECebBC1592f",
						"blockHash": "0x15af9d6b613e63aa67a94bdab9aac70d9515662d508294a3992abd6846a9971d",
						"blockNumber": 5748756,
						"data": "0x",
						"index": 114,
						"topics": [
							"0xddf252ad1be2c89b69c2b068fc378daa952ba7f163c4a11628f55a4df523b3ef",
							"0x0000000000000000000000000000000000000000000000000000000000000000",
							"0x0000000000000000000000001081b5aa9d9d4862a3da4d469433fb36ed80fa2a",
							"0x0000000000000000000000000000000000000000000000000000000000000001"
						],
						"transactionHash": "0x5a09e5bb337ef9da18886855ff6ef7f2397eda53fa96bec55caa6beecf9f7cd7",
						"transactionIndex": 74
					},
					{
						"address": "0xf9dadA4628Eb3992202CF253625d4ECebBC1592f",
						"blockHash": "0x15af9d6b613e63aa67a94bdab9aac70d9515662d508294a3992abd6846a9971d",
						"blockNumber": 5748756,
						"data": "0x0000000000000000000000004e59b44847b379578588920ca78fbf26c0b4956c",
						"index": 115,
						"topics": [
							"0x365b3162cd780731fc55a794b59494d472bc2af701007f581843a70673814698",
							"0x0000000000000000000000000000000000000000000000000000000000000001",
							"0x0000000000000000000000001081b5aa9d9d4862a3da4d469433fb36ed80fa2a"
						],
						"transactionHash": "0x5a09e5bb337ef9da18886855ff6ef7f2397eda53fa96bec55caa6beecf9f7cd7",
						"transactionIndex": 74
					},
					{
						"address": "0x1081B5AA9D9d4862A3dA4d469433FB36Ed80FA2A",
						"blockHash": "0x15af9d6b613e63aa67a94bdab9aac70d9515662d508294a3992abd6846a9971d",
						"blockNumber": 5748756,
						"data": "0x",
						"index": 116,
						"topics": [
							"0x6895c13664aa4f67288b25d7a21d7aaa34916e355fb9b6fae0a139a9085becb8",
							"0x000000000000000000000000ef1be3c049809cace5bc203bbe4ec1ab284bf75c"
						],
						"transactionHash": "0x5a09e5bb337ef9da18886855ff6ef7f2397eda53fa96bec55caa6beecf9f7cd7",
						"transactionIndex": 74
					},
					{
						"address": "0xEf1Be3C049809caCe5Bc203BBe4Ec1Ab284bF75c",
						"blockHash": "0x15af9d6b613e63aa67a94bdab9aac70d9515662d508294a3992abd6846a9971d",
						"blockNumber": 5748756,
						"data": "0x0000000000000000000000000000000000000000000000000000000000000002",
						"index": 117,
						"topics": [
							"0xa65fb05c5808f5f389d72edeaf719ce38f4cc55c1f69ca3cbfb31c21501caa07",
							"0xeb76efeb8f97c5cb80ab72b380ea5b356ede5f4abbf2a0c560104f8a80b45857"
						],
						"transactionHash": "0x5a09e5bb337ef9da18886855ff6ef7f2397eda53fa96bec55caa6beecf9f7cd7",
						"transactionIndex": 74
					},
					{
						"address": "0xCD8c4da77dfb15C05486D3F71Ee4C2C0dfdbc94e",
						"blockHash": "0x15af9d6b613e63aa67a94bdab9aac70d9515662d508294a3992abd6846a9971d",
						"blockNumber": 5748756,
						"data": "0x",
						"index": 118,
						"topics": [
							"0x8be0079c531659141344cd1fd0a4f28419497f9722a3daafe3b4186f6b6457e0",
							"0x0000000000000000000000000000000000000000000000000000000000000000",
							"0x0000000000000000000000001081b5aa9d9d4862a3da4d469433fb36ed80fa2a"
						],
						"transactionHash": "0x5a09e5bb337ef9da18886855ff6ef7f2397eda53fa96bec55caa6beecf9f7cd7",
						"transactionIndex": 74
					},
					{
						"address": "0x1081B5AA9D9d4862A3dA4d469433FB36Ed80FA2A",
						"blockHash": "0x15af9d6b613e63aa67a94bdab9aac70d9515662d508294a3992abd6846a9971d",
						"blockNumber": 5748756,
						"data": "0x",
						"index": 119,
						"topics": [
							"0x6895c13664aa4f67288b25d7a21d7aaa34916e355fb9b6fae0a139a9085becb8",
							"0x000000000000000000000000ef1be3c049809cace5bc203bbe4ec1ab284bf75c"
						],
						"transactionHash": "0x5a09e5bb337ef9da18886855ff6ef7f2397eda53fa96bec55caa6beecf9f7cd7",
						"transactionIndex": 74
					},
					{
						"address": "0xEf1Be3C049809caCe5Bc203BBe4Ec1Ab284bF75c",
						"blockHash": "0x15af9d6b613e63aa67a94bdab9aac70d9515662d508294a3992abd6846a9971d",
						"blockNumber": 5748756,
						"data": "0x0000000000000000000000000000000000000000000000000000000000000003",
						"index": 120,
						"topics": [
							"0xa65fb05c5808f5f389d72edeaf719ce38f4cc55c1f69ca3cbfb31c21501caa07",
							"0xeb76efeb8f97c5cb80ab72b380ea5b356ede5f4abbf2a0c560104f8a80b45857"
						],
						"transactionHash": "0x5a09e5bb337ef9da18886855ff6ef7f2397eda53fa96bec55caa6beecf9f7cd7",
						"transactionIndex": 74
					},
					{
						"address": "0x1081B5AA9D9d4862A3dA4d469433FB36Ed80FA2A",
						"blockHash": "0x15af9d6b613e63aa67a94bdab9aac70d9515662d508294a3992abd6846a9971d",
						"blockNumber": 5748756,
						"data": "0x",
						"index": 121,
						"topics": [
							"0x6895c13664aa4f67288b25d7a21d7aaa34916e355fb9b6fae0a139a9085becb8",
							"0x000000000000000000000000ef1be3c049809cace5bc203bbe4ec1ab284bf75c"
						],
						"transactionHash": "0x5a09e5bb337ef9da18886855ff6ef7f2397eda53fa96bec55caa6beecf9f7cd7",
						"transactionIndex": 74
					},
					{
						"address": "0xEf1Be3C049809caCe5Bc203BBe4Ec1Ab284bF75c",
						"blockHash": "0x15af9d6b613e63aa67a94bdab9aac70d9515662d508294a3992abd6846a9971d",
						"blockNumber": 5748756,
						"data": "0x0000000000000000000000000000000000000000000000000000000000000004",
						"index": 122,
						"topics": [
							"0xa65fb05c5808f5f389d72edeaf719ce38f4cc55c1f69ca3cbfb31c21501caa07",
							"0xeb76efeb8f97c5cb80ab72b380ea5b356ede5f4abbf2a0c560104f8a80b45857"
						],
						"transactionHash": "0x5a09e5bb337ef9da18886855ff6ef7f2397eda53fa96bec55caa6beecf9f7cd7",
						"transactionIndex": 74
					},
					{
						"address": "0x1081B5AA9D9d4862A3dA4d469433FB36Ed80FA2A",
						"blockHash": "0x15af9d6b613e63aa67a94bdab9aac70d9515662d508294a3992abd6846a9971d",
						"blockNumber": 5748756,
						"data": "0x",
						"index": 123,
						"topics": [
							"0x6895c13664aa4f67288b25d7a21d7aaa34916e355fb9b6fae0a139a9085becb8",
							"0x000000000000000000000000ef1be3c049809cace5bc203bbe4ec1ab284bf75c"
						],
						"transactionHash": "0x5a09e5bb337ef9da18886855ff6ef7f2397eda53fa96bec55caa6beecf9f7cd7",
						"transactionIndex": 74
					},
					{
						"address": "0xEf1Be3C049809caCe5Bc203BBe4Ec1Ab284bF75c",
						"blockHash": "0x15af9d6b613e63aa67a94bdab9aac70d9515662d508294a3992abd6846a9971d",
						"blockNumber": 5748756,
						"data": "0x0000000000000000000000000000000000000000000000000000000000000005",
						"index": 124,
						"topics": [
							"0xa65fb05c5808f5f389d72edeaf719ce38f4cc55c1f69ca3cbfb31c21501caa07",
							"0xeb76efeb8f97c5cb80ab72b380ea5b356ede5f4abbf2a0c560104f8a80b45857"
						],
						"transactionHash": "0x5a09e5bb337ef9da18886855ff6ef7f2397eda53fa96bec55caa6beecf9f7cd7",
						"transactionIndex": 74
					},
					{
						"address": "0x0496459b91e393950C4c5B71a0D5CAcA81710759",
						"blockHash": "0x15af9d6b613e63aa67a94bdab9aac70d9515662d508294a3992abd6846a9971d",
						"blockNumber": 5748756,
						"data": "0x",
						"index": 125,
						"topics": [
							"0x8be0079c531659141344cd1fd0a4f28419497f9722a3daafe3b4186f6b6457e0",
							"0x0000000000000000000000000000000000000000000000000000000000000000",
							"0x0000000000000000000000000496459b91e393950c4c5b71a0d5caca81710759"
						],
						"transactionHash": "0x5a09e5bb337ef9da18886855ff6ef7f2397eda53fa96bec55caa6beecf9f7cd7",
						"transactionIndex": 74
					},
					{
						"address": "0x1081B5AA9D9d4862A3dA4d469433FB36Ed80FA2A",
						"blockHash": "0x15af9d6b613e63aa67a94bdab9aac70d9515662d508294a3992abd6846a9971d",
						"blockNumber": 5748756,
						"data": "0x",
						"index": 126,
						"topics": [
							"0x6895c13664aa4f67288b25d7a21d7aaa34916e355fb9b6fae0a139a9085becb8",
							"0x000000000000000000000000ef1be3c049809cace5bc203bbe4ec1ab284bf75c"
						],
						"transactionHash": "0x5a09e5bb337ef9da18886855ff6ef7f2397eda53fa96bec55caa6beecf9f7cd7",
						"transactionIndex": 74
					},
					{
						"address": "0xEf1Be3C049809caCe5Bc203BBe4Ec1Ab284bF75c",
						"blockHash": "0x15af9d6b613e63aa67a94bdab9aac70d9515662d508294a3992abd6846a9971d",
						"blockNumber": 5748756,
						"data": "0x0000000000000000000000000000000000000000000000000000000000000006",
						"index": 127,
						"topics": [
							"0xa65fb05c5808f5f389d72edeaf719ce38f4cc55c1f69ca3cbfb31c21501caa07",
							"0xeb76efeb8f97c5cb80ab72b380ea5b356ede5f4abbf2a0c560104f8a80b45857"
						],
						"transactionHash": "0x5a09e5bb337ef9da18886855ff6ef7f2397eda53fa96bec55caa6beecf9f7cd7",
						"transactionIndex": 74
					},
					{
						"address": "0x1081B5AA9D9d4862A3dA4d469433FB36Ed80FA2A",
						"blockHash": "0x15af9d6b613e63aa67a94bdab9aac70d9515662d508294a3992abd6846a9971d",
						"blockNumber": 5748756,
						"data": "0x",
						"index": 128,
						"topics": [
							"0x6895c13664aa4f67288b25d7a21d7aaa34916e355fb9b6fae0a139a9085becb8",
							"0x000000000000000000000000ef1be3c049809cace5bc203bbe4ec1ab284bf75c"
						],
						"transactionHash": "0x5a09e5bb337ef9da18886855ff6ef7f2397eda53fa96bec55caa6beecf9f7cd7",
						"transactionIndex": 74
					},
					{
						"address": "0xEf1Be3C049809caCe5Bc203BBe4Ec1Ab284bF75c",
						"blockHash": "0x15af9d6b613e63aa67a94bdab9aac70d9515662d508294a3992abd6846a9971d",
						"blockNumber": 5748756,
						"data": "0x0000000000000000000000000000000000000000000000000000000000000007",
						"index": 129,
						"topics": [
							"0xa65fb05c5808f5f389d72edeaf719ce38f4cc55c1f69ca3cbfb31c21501caa07",
							"0xeb76efeb8f97c5cb80ab72b380ea5b356ede5f4abbf2a0c560104f8a80b45857"
						],
						"transactionHash": "0x5a09e5bb337ef9da18886855ff6ef7f2397eda53fa96bec55caa6beecf9f7cd7",
						"transactionIndex": 74
					},
					{
						"address": "0x1081B5AA9D9d4862A3dA4d469433FB36Ed80FA2A",
						"blockHash": "0x15af9d6b613e63aa67a94bdab9aac70d9515662d508294a3992abd6846a9971d",
						"blockNumber": 5748756,
						"data": "0x",
						"index": 130,
						"topics": [
							"0x6895c13664aa4f67288b25d7a21d7aaa34916e355fb9b6fae0a139a9085becb8",
							"0x000000000000000000000000ef1be3c049809cace5bc203bbe4ec1ab284bf75c"
						],
						"transactionHash": "0x5a09e5bb337ef9da18886855ff6ef7f2397eda53fa96bec55caa6beecf9f7cd7",
						"transactionIndex": 74
					},
					{
						"address": "0xEf1Be3C049809caCe5Bc203BBe4Ec1Ab284bF75c",
						"blockHash": "0x15af9d6b613e63aa67a94bdab9aac70d9515662d508294a3992abd6846a9971d",
						"blockNumber": 5748756,
						"data": "0x0000000000000000000000000000000000000000000000000000000000000008",
						"index": 131,
						"topics": [
							"0xa65fb05c5808f5f389d72edeaf719ce38f4cc55c1f69ca3cbfb31c21501caa07",
							"0xeb76efeb8f97c5cb80ab72b380ea5b356ede5f4abbf2a0c560104f8a80b45857"
						],
						"transactionHash": "0x5a09e5bb337ef9da18886855ff6ef7f2397eda53fa96bec55caa6beecf9f7cd7",
						"transactionIndex": 74
					}
				],
				"logsBloom": "0x00000000080010000008000000080200000000000008000000800000004000000060008000000000000000000040000000000000000000000000000000040010000000100000202400000008000800000401000000040000000200000000000000000000020000000000000000000800000000100000000000000010000000400001000000000000000100010000000000000000000840000000800020000000004000000010000000000000000000020200000000000000000000400016001000800002000800200000000008000000010000000000000000000000000060000000000000008004000008000000000200000000000000000000000400000100",
				"status": 1,
				"to": "0xB5E96127D417b1B3ef8438496a38A143167209c7"
			},
			"metadata": "{\"compiler\":{\"version\":\"0.8.23+commit.f704f362\"},\"language\":\"Solidity\",\"output\":{\"abi\":[{\"inputs\":[{\"internalType\":\"contract IJBPermissions\",\"name\":\"permissions\",\"type\":\"address\"},{\"internalType\":\"contract IJBProjects\",\"name\":\"projects\",\"type\":\"address\"},{\"internalType\":\"address\",\"name\":\"owner\",\"type\":\"address\"}],\"stateMutability\":\"nonpayable\",\"type\":\"constructor\"},{\"inputs\":[],\"type\":\"error\",\"name\":\"DUPLICATE_TERMINALS\"},{\"inputs\":[],\"type\":\"error\",\"name\":\"INVALID_PROJECT_ID_IN_DIRECTORY\"},{\"inputs\":[{\"internalType\":\"address\",\"name\":\"owner\",\"type\":\"address\"}],\"type\":\"error\",\"name\":\"OwnableInvalidOwner\"},{\"inputs\":[{\"internalType\":\"address\",\"name\":\"account\",\"type\":\"address\"}],\"type\":\"error\",\"name\":\"OwnableUnauthorizedAccount\"},{\"inputs\":[],\"type\":\"error\",\"name\":\"SET_CONTROLLER_NOT_ALLOWED\"},{\"inputs\":[],\"type\":\"error\",\"name\":\"SET_TERMINALS_NOT_ALLOWED\"},{\"inputs\":[],\"type\":\"error\",\"name\":\"TOKEN_NOT_ACCEPTED\"},{\"inputs\":[],\"type\":\"error\",\"name\":\"UNAUTHORIZED\"},{\"inputs\":[{\"internalType\":\"uint256\",\"name\":\"projectId\",\"type\":\"uint256\",\"indexed\":true},{\"internalType\":\"contract IJBTerminal\",\"name\":\"terminal\",\"type\":\"address\",\"indexed\":true},{\"internalType\":\"address\",\"name\":\"caller\",\"type\":\"address\",\"indexed\":false}],\"type\":\"event\",\"name\":\"AddTerminal\",\"anonymous\":false},{\"inputs\":[{\"internalType\":\"address\",\"name\":\"previousOwner\",\"type\":\"address\",\"indexed\":true},{\"internalType\":\"address\",\"name\":\"newOwner\",\"type\":\"address\",\"indexed\":true}],\"type\":\"event\",\"name\":\"OwnershipTransferred\",\"anonymous\":false},{\"inputs\":[{\"internalType\":\"uint256\",\"name\":\"projectId\",\"type\":\"uint256\",\"indexed\":true},{\"internalType\":\"contract IERC165\",\"name\":\"controller\",\"type\":\"address\",\"indexed\":true},{\"internalType\":\"address\",\"name\":\"caller\",\"type\":\"address\",\"indexed\":false}],\"type\":\"event\",\"name\":\"SetController\",\"anonymous\":false},{\"inputs\":[{\"internalType\":\"address\",\"name\":\"addr\",\"type\":\"address\",\"indexed\":true},{\"internalType\":\"bool\",\"name\":\"flag\",\"type\":\"bool\",\"indexed\":true},{\"internalType\":\"address\",\"name\":\"caller\",\"type\":\"address\",\"indexed\":false}],\"type\":\"event\",\"name\":\"SetIsAllowedToSetFirstController\",\"anonymous\":false},{\"inputs\":[{\"internalType\":\"uint256\",\"name\":\"projectId\",\"type\":\"uint256\",\"indexed\":true},{\"internalType\":\"address\",\"name\":\"token\",\"type\":\"address\",\"indexed\":true},{\"internalType\":\"contract IJBTerminal\",\"name\":\"terminal\",\"type\":\"address\",\"indexed\":true},{\"internalType\":\"address\",\"name\":\"caller\",\"type\":\"address\",\"indexed\":false}],\"type\":\"event\",\"name\":\"SetPrimaryTerminal\",\"anonymous\":false},{\"inputs\":[{\"internalType\":\"uint256\",\"name\":\"projectId\",\"type\":\"uint256\",\"indexed\":true},{\"internalType\":\"contract IJBTerminal[]\",\"name\":\"terminals\",\"type\":\"address[]\",\"indexed\":false},{\"internalType\":\"address\",\"name\":\"caller\",\"type\":\"address\",\"indexed\":false}],\"type\":\"event\",\"name\":\"SetTerminals\",\"anonymous\":false},{\"inputs\":[],\"stateMutability\":\"view\",\"type\":\"function\",\"name\":\"PERMISSIONS\",\"outputs\":[{\"internalType\":\"contract IJBPermissions\",\"name\":\"\",\"type\":\"address\"}]},{\"inputs\":[],\"stateMutability\":\"view\",\"type\":\"function\",\"name\":\"PROJECTS\",\"outputs\":[{\"internalType\":\"contract IJBProjects\",\"name\":\"\",\"type\":\"address\"}]},{\"inputs\":[{\"internalType\":\"uint256\",\"name\":\"projectId\",\"type\":\"uint256\"}],\"stateMutability\":\"view\",\"type\":\"function\",\"name\":\"controllerOf\",\"outputs\":[{\"internalType\":\"contract IERC165\",\"name\":\"\",\"type\":\"address\"}]},{\"inputs\":[{\"internalType\":\"address\",\"name\":\"addr\",\"type\":\"address\"}],\"stateMutability\":\"view\",\"type\":\"function\",\"name\":\"isAllowedToSetFirstController\",\"outputs\":[{\"internalType\":\"bool\",\"name\":\"\",\"type\":\"bool\"}]},{\"inputs\":[{\"internalType\":\"uint256\",\"name\":\"projectId\",\"type\":\"uint256\"},{\"internalType\":\"contract IJBTerminal\",\"name\":\"terminal\",\"type\":\"address\"}],\"stateMutability\":\"view\",\"type\":\"function\",\"name\":\"isTerminalOf\",\"outputs\":[{\"internalType\":\"bool\",\"name\":\"\",\"type\":\"bool\"}]},{\"inputs\":[],\"stateMutability\":\"view\",\"type\":\"function\",\"name\":\"owner\",\"outputs\":[{\"internalType\":\"address\",\"name\":\"\",\"type\":\"address\"}]},{\"inputs\":[{\"internalType\":\"uint256\",\"name\":\"projectId\",\"type\":\"uint256\"},{\"internalType\":\"address\",\"name\":\"token\",\"type\":\"address\"}],\"stateMutability\":\"view\",\"type\":\"function\",\"name\":\"primaryTerminalOf\",\"outputs\":[{\"internalType\":\"contract IJBTerminal\",\"name\":\"\",\"type\":\"address\"}]},{\"inputs\":[],\"stateMutability\":\"nonpayable\",\"type\":\"function\",\"name\":\"renounceOwnership\"},{\"inputs\":[{\"internalType\":\"uint256\",\"name\":\"projectId\",\"type\":\"uint256\"},{\"internalType\":\"contract IERC165\",\"name\":\"controller\",\"type\":\"address\"}],\"stateMutability\":\"nonpayable\",\"type\":\"function\",\"name\":\"setControllerOf\"},{\"inputs\":[{\"internalType\":\"address\",\"name\":\"addr\",\"type\":\"address\"},{\"internalType\":\"bool\",\"name\":\"flag\",\"type\":\"bool\"}],\"stateMutability\":\"nonpayable\",\"type\":\"function\",\"name\":\"setIsAllowedToSetFirstController\"},{\"inputs\":[{\"internalType\":\"uint256\",\"name\":\"projectId\",\"type\":\"uint256\"},{\"internalType\":\"address\",\"name\":\"token\",\"type\":\"address\"},{\"internalType\":\"contract IJBTerminal\",\"name\":\"terminal\",\"type\":\"address\"}],\"stateMutability\":\"nonpayable\",\"type\":\"function\",\"name\":\"setPrimaryTerminalOf\"},{\"inputs\":[{\"internalType\":\"uint256\",\"name\":\"projectId\",\"type\":\"uint256\"},{\"internalType\":\"contract IJBTerminal[]\",\"name\":\"terminals\",\"type\":\"address[]\"}],\"stateMutability\":\"nonpayable\",\"type\":\"function\",\"name\":\"setTerminalsOf\"},{\"inputs\":[{\"internalType\":\"uint256\",\"name\":\"projectId\",\"type\":\"uint256\"}],\"stateMutability\":\"view\",\"type\":\"function\",\"name\":\"terminalsOf\",\"outputs\":[{\"internalType\":\"contract IJBTerminal[]\",\"name\":\"\",\"type\":\"address[]\"}]},{\"inputs\":[{\"internalType\":\"address\",\"name\":\"newOwner\",\"type\":\"address\"}],\"stateMutability\":\"nonpayable\",\"type\":\"function\",\"name\":\"transferOwnership\"}],\"devdoc\":{\"kind\":\"dev\",\"methods\":{\"constructor\":{\"params\":{\"owner\":\"The address that will own the contract.\",\"permissions\":\"A contract storing permissions.\",\"projects\":\"A contract which mints ERC-721s that represent project ownership and transfers.\"}},\"isTerminalOf(uint256,address)\":{\"params\":{\"projectId\":\"The ID of the project to check.\",\"terminal\":\"The terminal to check for.\"},\"returns\":{\"_0\":\"A flag indicating whether the project uses the terminal.\"}},\"owner()\":{\"details\":\"Returns the address of the current owner.\"},\"primaryTerminalOf(uint256,address)\":{\"details\":\"Returns the first terminal that accepts the token if the project hasn't explicitly set a primary terminal for it.Returns the zero address if no terminal accepts the token.\",\"params\":{\"projectId\":\"The ID of the project to get the primary terminal of.\",\"token\":\"The token that the terminal accepts.\"},\"returns\":{\"_0\":\"The primary terminal's address.\"}},\"renounceOwnership()\":{\"details\":\"Leaves the contract without owner. It will not be possible to call `onlyOwner` functions. Can only be called by the current owner. NOTE: Renouncing ownership will leave the contract without an owner, thereby disabling any functionality that is only available to the owner.\"},\"setControllerOf(uint256,address)\":{\"details\":\"Can only be called if: - The ruleset's metadata has `allowSetController` enabled, and the message's sender is the project's owner or an address with the owner's permission to `SET_CONTROLLER`. - OR the message's sender is the project's current controller. - OR an address which `isAllowedToSetFirstController` is setting a project's first controller.\",\"params\":{\"controller\":\"The address of the controller to set.\",\"projectId\":\"The ID of the project whose controller is being set.\"}},\"setIsAllowedToSetFirstController(address,bool)\":{\"details\":\"Only this contract's owner can call this function.These addresses are vetted controllers as well as contracts designed to launch new projects.A project can set its own controller without being on this list.If you would like to add an address/contract to this list, please reach out to this contract's owner.\",\"params\":{\"addr\":\"The address to allow or not allow.\",\"flag\":\"Whether the address is allowed to set first controllers for projects. Use `true` to allow and `false` to not allow.\"}},\"setPrimaryTerminalOf(uint256,address,address)\":{\"details\":\"The primary terminal for a token is where payments in that token are routed to by default.This is useful in cases where a project has multiple terminals which accept the same token.Can only be called by the project's owner, or an address with the owner's permission to `SET_PRIMARY_TERMINAL`.\",\"params\":{\"projectId\":\"The ID of the project whose primary terminal is being set.\",\"terminal\":\"The terminal being set as the primary terminal.\",\"token\":\"The token to set the primary terminal for.\"}},\"setTerminalsOf(uint256,address[])\":{\"details\":\"Can only be called by the project's owner, an address with the owner's permission to `SET_TERMINALS`, or the project's controller.Unless the caller is the project's controller, the project's ruleset must allow setting terminals.\",\"params\":{\"projectId\":\"The ID of the project whose terminals are being set.\",\"terminals\":\"An array of terminal addresses to set for the project.\"}},\"terminalsOf(uint256)\":{\"params\":{\"projectId\":\"The ID of the project to get the terminals of.\"},\"returns\":{\"_0\":\"An array of the project's terminal addresses.\"}},\"transferOwnership(address)\":{\"details\":\"Transfers ownership of the contract to a new account (`newOwner`). Can only be called by the current owner.\"}},\"version\":1},\"userdoc\":{\"kind\":\"user\",\"methods\":{\"PERMISSIONS()\":{\"notice\":\"A contract storing permissions.\"},\"PROJECTS()\":{\"notice\":\"Mints ERC-721s that represent project ownership and transfers.\"},\"controllerOf(uint256)\":{\"notice\":\"The specified project's controller, which dictates how its terminals interact with its tokens and rulesets.\"},\"isAllowedToSetFirstController(address)\":{\"notice\":\"Whether the specified address is allowed to set a project's first controller on their behalf.\"},\"isTerminalOf(uint256,address)\":{\"notice\":\"Check if a project uses a specific terminal.\"},\"primaryTerminalOf(uint256,address)\":{\"notice\":\"The primary terminal that a project uses for the specified token.\"},\"setControllerOf(uint256,address)\":{\"notice\":\"Set a project's controller. Controllers manage how terminals interact with tokens and rulesets.\"},\"setIsAllowedToSetFirstController(address,bool)\":{\"notice\":\"Add or remove an address/contract from a list of trusted addresses which are allowed to set a first controller for projects.\"},\"setPrimaryTerminalOf(uint256,address,address)\":{\"notice\":\"Set a project's primary terminal for a token.\"},\"setTerminalsOf(uint256,address[])\":{\"notice\":\"Set a project's terminals.\"},\"terminalsOf(uint256)\":{\"notice\":\"The specified project's terminals.\"}},\"version\":1}},\"settings\":{\"remappings\":[\"@bananapus/=node_modules/@bananapus/\",\"@chainlink/=node_modules/@chainlink/\",\"@eth-optimism/=node_modules/@eth-optimism/\",\"@openzeppelin/=node_modules/@openzeppelin/\",\"@prb/=node_modules/@prb/\",\"@scroll-tech/=node_modules/@scroll-tech/\",\"@sphinx-labs/contracts/=lib/sphinx/packages/contracts/contracts/foundry/\",\"@uniswap/=node_modules/@uniswap/\",\"ds-test/=lib/forge-std/lib/ds-test/src/\",\"forge-std/=lib/forge-std/src/\",\"hardhat/=node_modules/hardhat/\",\"solmate/=node_modules/solmate/\",\"sphinx/=lib/sphinx/\"],\"optimizer\":{\"enabled\":true,\"runs\":200},\"metadata\":{\"bytecodeHash\":\"ipfs\"},\"compilationTarget\":{\"src/JBDirectory.sol\":\"JBDirectory\"},\"evmVersion\":\"paris\",\"libraries\":{}},\"sources\":{\"node_modules/@bananapus/permission-ids/src/JBPermissionIds.sol\":{\"keccak256\":\"0xf61109f6b217a80d5e5391f548fb6f2e451f7dbee3fabfc04cf17e88722203bc\",\"urls\":[\"bzz-raw://ac776ab1cd621c22bd7973471acdfa187f3abc659ad9a3ef6ed10b6447dfcf9c\",\"dweb:/ipfs/QmYLbaHt68qcuMzkiKpe96jMjiWUq1F3u8yMhxmZ3pnnWu\"],\"license\":\"MIT\"},\"node_modules/@openzeppelin/contracts/access/Ownable.sol\":{\"keccak256\":\"0xff6d0bb2e285473e5311d9d3caacb525ae3538a80758c10649a4d61029b017bb\",\"urls\":[\"bzz-raw://8ed324d3920bb545059d66ab97d43e43ee85fd3bd52e03e401f020afb0b120f6\",\"dweb:/ipfs/QmfEckWLmZkDDcoWrkEvMWhms66xwTLff9DDhegYpvHo1a\"],\"license\":\"MIT\"},\"node_modules/@openzeppelin/contracts/token/ERC721/IERC721.sol\":{\"keccak256\":\"0x5ef46daa3b58ef2702279d514780316efaa952915ee1aa3396f041ee2982b0b4\",\"urls\":[\"bzz-raw://2f8f2a76e23b02fc69e8cd24c3cb47da6c7af3a2d6c3a382f8ac25c6e094ade7\",\"dweb:/ipfs/QmPV4ZS4tPVv4mTCf9ejyZ1ai57EEibDRj7mN2ARDCLV5n\"],\"license\":\"MIT\"},\"node_modules/@openzeppelin/contracts/utils/Context.sol\":{\"keccak256\":\"0x493033a8d1b176a037b2cc6a04dad01a5c157722049bbecf632ca876224dd4b2\",\"urls\":[\"bzz-raw://6a708e8a5bdb1011c2c381c9a5cfd8a9a956d7d0a9dc1bd8bcdaf52f76ef2f12\",\"dweb:/ipfs/Qmax9WHBnVsZP46ZxEMNRQpLQnrdE4dK8LehML1Py8FowF\"],\"license\":\"MIT\"},\"node_modules/@openzeppelin/contracts/utils/introspection/IERC165.sol\":{\"keccak256\":\"0x4296879f55019b23e135000eb36896057e7101fb7fb859c5ef690cf14643757b\",\"urls\":[\"bzz-raw://87b3541437c8c443ccd36795e56a338ed12855eec17f8da624511b8d1a7e14df\",\"dweb:/ipfs/QmeJQCtZrQjtJLr6u7ZHWeH3pBnjtLWzvRrKViAi7UZqxL\"],\"license\":\"MIT\"},\"src/JBDirectory.sol\":{\"keccak256\":\"0x08563875685f8fd604222f93462f8e9b475ba716fc289ab4a427632d0e25bb64\",\"urls\":[\"bzz-raw://0b1f2c20d4a29dd508fae9d089f185d7c8cb32543d04652da546bf7b1aa167a3\",\"dweb:/ipfs/QmPmcqZrybGottboAaYn7Seir8dbzABPYMSATFPnL9DDY2\"],\"license\":\"MIT\"},\"src/abstract/JBPermissioned.sol\":{\"keccak256\":\"0xe08c8a7eeac9d1c7c2e0db6d5b98d1af09889300835a3d47d9f29319fecce703\",\"urls\":[\"bzz-raw://42645cf52bcc45053ef650790916faed5d0a74cecef336b217433fdd2c5c4166\",\"dweb:/ipfs/QmdMmxG1tSGucQwz4LYbVnuj7HU23YvqLH6xfrNWv5Bmus\"],\"license\":\"MIT\"},\"src/interfaces/IJBDirectory.sol\":{\"keccak256\":\"0x9cc380844aef60078ee47a61861e55a29c4a8c947efd556ebd36e6909f7b9d62\",\"urls\":[\"bzz-raw://9f5190ec8b6683d9781ee6e9eedcc91294753242748875d4a06349077e4cbaaf\",\"dweb:/ipfs/QmTQrPuXT9TCA4txwrperMeXSGvGxP8iokUK47f62F388i\"],\"license\":\"MIT\"},\"src/interfaces/IJBDirectoryAccessControl.sol\":{\"keccak256\":\"0x1e67f56849320a46f834aaa9bd62b170ff8ada7b224b4a81136193740fa0be4d\",\"urls\":[\"bzz-raw://ea8fbcec44abfe49d137bcae129b67e5479d6b17879301f88534c8a7fab00be4\",\"dweb:/ipfs/QmT6wrtYX4GRpffHUzupNwYebJ1dqkkKZLEewWsoyunsqw\"],\"license\":\"MIT\"},\"src/interfaces/IJBPayHook.sol\":{\"keccak256\":\"0x9438866782c652c2942f4d114e35f393cd3c8b0334abce8387eed90bca35e8b2\",\"urls\":[\"bzz-raw://cfd99daf57213f92325aad7d7d16e98476d38e870470e95ba01e3ae3cdecc95d\",\"dweb:/ipfs/QmUKKAVGf7ki8BHksr99tFcRW8APveeB5tNH63ctTbbCW8\"],\"license\":\"MIT\"},\"src/interfaces/IJBPermissioned.sol\":{\"keccak256\":\"0x5b038d4dee116584e88b230920e56d48e135053e3f7e5642eaea14a775c1dad7\",\"urls\":[\"bzz-raw://19e43102f349fd4a1da1c0943ffb8f2950007fe4bb4bb7e8f74fc142575d091b\",\"dweb:/ipfs/QmXHAt4KzDTdDZgDDefEXH2WKi7NcfkJb9R7nxW5uDqsNp\"],\"license\":\"MIT\"},\"src/interfaces/IJBPermissions.sol\":{\"keccak256\":\"0x18870e500edf0fbadc353e273a5574701fb80466376b908c65e7cc3f11044d4d\",\"urls\":[\"bzz-raw://352a47c45853aec80e7acf0d286ade3106eb4cb456776b28a3c2f3f1091bed90\",\"dweb:/ipfs/QmQeYd3YbudYZy2hfbfht9kwhxhw4tuuLKMEYy9UY6dcSy\"],\"license\":\"MIT\"},\"src/interfaces/IJBProjects.sol\":{\"keccak256\":\"0x735c2fb8f1fa827f054ee77f7a0ae4b312656217acb75b624d2c8fd9dc40151b\",\"urls\":[\"bzz-raw://ee7fc92299a8633a80693ae63ab494dcd125f1789487a54a39dc0e5696e5996f\",\"dweb:/ipfs/QmX7YJD4pS2XhgQb7p3JbBAXynT7YGPXcZe92BiWWRrsCL\"],\"license\":\"MIT\"},\"src/interfaces/IJBTerminal.sol\":{\"keccak256\":\"0x19dc9bf8cbdc8f13ee5da9dc3a87047eacb94a3fc19740a286c1f0bad2cc39ca\",\"urls\":[\"bzz-raw://0b05ae6fda9a85672508232fd992b8a5f5ffd8096622eeb12c8a7b3317eb3867\",\"dweb:/ipfs/QmNh9Quj37BXYGdTdcCD1Q58PchRsE5TLbEZep56qS3MpV\"],\"license\":\"MIT\"},\"src/interfaces/IJBTokenUriResolver.sol\":{\"keccak256\":\"0xfa5cb00dcd6085d1ef912d071fe73c63f9478a2cd0f9d8bddaf659b6af2d0967\",\"urls\":[\"bzz-raw://282e4e7c342d65f77cde0e9a08fcaf20ef5cf379c7a48b639842c0ffd0b2afb8\",\"dweb:/ipfs/QmbnN3PEQeZaXdPLT75V1J79kMg7KqSMru37RHrL3z8Yf2\"],\"license\":\"MIT\"},\"src/structs/JBAccountingContext.sol\":{\"keccak256\":\"0x2907ff54d1e903cc7e0390dd88c3975884702dc2673642aacbe22b66560b56de\",\"urls\":[\"bzz-raw://a66a5381ce877b32f0e0058ceeaf843e9b6b2bc8af666c0c9f4a9d01091da004\",\"dweb:/ipfs/QmQynCetUr37dBkS1YwDS8evxuXGiqanW6THmeUxXtim8w\"],\"license\":\"MIT\"},\"src/structs/JBAfterPayRecordedContext.sol\":{\"keccak256\":\"0xd26c3a774ff38be79064085970454fe2603a23a638c76270d5b1b3829206c3e8\",\"urls\":[\"bzz-raw://3b55dbe3bf1ef625b7ca04efab3de35406e6041d5b3d82c7265469c500e2b702\",\"dweb:/ipfs/QmUdBDo4Lt3mcsFcsXT2mqq3czFwZjQJFPLM89YA2VtD7k\"],\"license\":\"MIT\"},\"src/structs/JBPermissionsData.sol\":{\"keccak256\":\"0x8f0f69a6ebf5f3704e3dfcb3712fb9d3f94ae7c1ab89bf3e37bad42a3e7a0487\",\"urls\":[\"bzz-raw://57b0c5e52843e2217082889ed47b4da3943e0da4590d5768dcebfe3edad4a6b8\",\"dweb:/ipfs/QmRz48vuWLw81kUP836rh1qzqWiJFGbksgRUA9xGEDNKTY\"],\"license\":\"MIT\"},\"src/structs/JBTokenAmount.sol\":{\"keccak256\":\"0x5cf0626b73a596c1e2da17c89ae039a7c0374310b060d48568d3b6c11fbe6180\",\"urls\":[\"bzz-raw://63348b50be95e2995409394a17caffc563a646f0972650a1230bf864fbd3219b\",\"dweb:/ipfs/QmZXZpS3SbFD5nWaCauf6AqbEhLURv5qsKHpThBvQgDU6u\"],\"license\":\"MIT\"}},\"version\":1}",
			"args": [
				"0x1e2E8562b635fe19978640C784e47865A83d6605",
				"0xf9dadA4628Eb3992202CF253625d4ECebBC1592f",
				"0x1081B5AA9D9d4862A3dA4d469433FB36Ed80FA2A"
			],
			"bytecode": "0x60c06040523480156200001157600080fd5b5060405162001654380380620016548339810160408190526200003491620000f4565b6001600160a01b03808416608052819081166200006b57604051631e4fbdf760e01b81526000600482015260240160405180910390fd5b62000076816200008b565b50506001600160a01b031660a0525062000148565b600080546001600160a01b038381166001600160a01b0319831681178455604051919092169283917f8be0079c531659141344cd1fd0a4f28419497f9722a3daafe3b4186f6b6457e09190a35050565b6001600160a01b0381168114620000f157600080fd5b50565b6000806000606084860312156200010a57600080fd5b83516200011781620000db565b60208501519093506200012a81620000db565b60408501519092506200013d81620000db565b809150509250925092565b60805160a0516114bd620001976000396000818160f401528181610290015281816104be0152818161057201526107cd01526000818161025401528181610d470152610df001526114bd6000f3fe608060405234801561001057600080fd5b50600436106100ea5760003560e01c8063862026501161008c578063c5664e2111610066578063c5664e21146101f9578063d17541531461021c578063f2fde38b1461023c578063f434c9141461024f57600080fd5b806386202650146101c25780638da5cb5b146101d5578063a1ed3175146101e657600080fd5b80636e49181f116100c85780636e49181f14610171578063714e7f3214610194578063715018a6146101a7578063821b9fd8146101af57600080fd5b8063293c4999146100ef5780635dd8f6aa1461013357806363d0850a1461015c575b600080fd5b6101167f000000000000000000000000000000000000000000000000000000000000000081565b6040516001600160a01b0390911681526020015b60405180910390f35b61011661014136600461113f565b6001602052600090815260409020546001600160a01b031681565b61016f61016a36600461116d565b610276565b005b61018461017f3660046111af565b610425565b604051901515815260200161012a565b61016f6101a23660046111af565b6104a4565b61016f61079f565b61016f6101bd3660046111df565b6107b3565b6101166101d03660046111af565b610ab8565b6000546001600160a01b0316610116565b61016f6101f436600461126c565b610be4565b61018461020736600461129a565b60026020526000908152604090205460ff1681565b61022f61022a36600461113f565b610c4e565b60405161012a91906112be565b61016f61024a36600461129a565b610cba565b6101167f000000000000000000000000000000000000000000000000000000000000000081565b6040516331a9108f60e11b81526004810184905261030b907f00000000000000000000000000000000000000000000000000000000000000006001600160a01b031690636352211e90602401602060405180830381865afa1580156102df573d6000803e3d6000fd5b505050506040513d601f19601f82011682018060405250810190610303919061130b565b84600f610cfd565b604051633a01714f60e01b8152600481018490526001600160a01b03838116602483015260009190831690633a01714f90604401606060405180830381865afa15801561035c573d6000803e3d6000fd5b505050506040513d601f19601f820116820180604052508101906103809190611328565b516001600160a01b0316036103a857604051630faa917b60e11b815260040160405180910390fd5b6103b28382610e81565b60008381526004602090815260408083206001600160a01b038681168086529184529382902080546001600160a01b03191694861694851790559051338152909186917fc670a502bbb9f8a4315f95eca901a9f99b65f89a2eb5705a58050e5c00f9d672910160405180910390a4505050565b600082815260036020526040812054815b8181101561049757600085815260036020526040902080546001600160a01b03861691908390811061046a5761046a6113b7565b6000918252602090912001546001600160a01b03160361048f5760019250505061049e565b600101610436565b5060009150505b92915050565b6040516331a9108f60e11b81526004810183905261056f907f00000000000000000000000000000000000000000000000000000000000000006001600160a01b031690636352211e90602401602060405180830381865afa15801561050d573d6000803e3d6000fd5b505050506040513d601f19601f82011682018060405250810190610531919061130b565b336000908152600260205260409020548490600d9060ff16801561056a57506000868152600160205260409020546001600160a01b0316155b61103a565b817f00000000000000000000000000000000000000000000000000000000000000006001600160a01b03166306661abd6040518163ffffffff1660e01b8152600401602060405180830381865afa1580156105ce573d6000803e3d6000fd5b505050506040513d601f19601f820116820180604052508101906105f291906113cd565b101561061157604051634a283a5360e11b815260040160405180910390fd5b6000828152600160205260408120546001600160a01b0316908115806106a357506040516301ffc9a760e01b8152632877540760e01b60048201526001600160a01b038316906301ffc9a790602401602060405180830381865afa15801561067d573d6000803e3d6000fd5b505050506040513d601f19601f820116820180604052508101906106a191906113e6565b155b61071557604051632674968d60e21b8152600481018590526001600160a01b038316906399d25a3490602401602060405180830381865afa1580156106ec573d6000803e3d6000fd5b505050506040513d601f19601f8201168201806040525081019061071091906113e6565b610718565b60015b9050806107385760405163a33db4cb60e01b815260040160405180910390fd5b60008481526001602090815260409182902080546001600160a01b0319166001600160a01b038716908117909155915133815286917f7f9a7dcb234c909a09de2f344661ad9e5b24067adb97c908647c2edcbb121c3091015b60405180910390a350505050565b6107a761104a565b6107b16000611077565b565b6040516331a9108f60e11b815260048101849052610864907f00000000000000000000000000000000000000000000000000000000000000006001600160a01b031690636352211e90602401602060405180830381865afa15801561081c573d6000803e3d6000fd5b505050506040513d601f19601f82011682018060405250810190610840919061130b565b6000858152600160205260409020548590600e906001600160a01b0316331461103a565b6000838152600160205260408082205490516301ffc9a760e01b8152632877540760e01b60048201526001600160a01b03909116919082906301ffc9a790602401602060405180830381865afa1580156108c2573d6000803e3d6000fd5b505050506040513d601f19601f820116820180604052508101906108e691906113e6565b1580610956575060405163b1a50e3360e01b8152600481018690526001600160a01b0383169063b1a50e3390602401602060405180830381865afa158015610932573d6000803e3d6000fd5b505050506040513d601f19601f8201168201806040525081019061095691906113e6565b6000868152600160205260409020549091506001600160a01b0316331480159061097e575080155b1561099c576040516375fef35f60e11b815260040160405180910390fd5b60008581526003602052604090206109b59085856110c7565b50826001811115610a745760005b81811015610a725760006109d8826001611403565b90505b82811015610a69578686828181106109f5576109f56113b7565b9050602002016020810190610a0a919061129a565b6001600160a01b0316878784818110610a2557610a256113b7565b9050602002016020810190610a3a919061129a565b6001600160a01b031603610a6157604051633e3830ab60e11b815260040160405180910390fd5b6001016109db565b506001016109c3565b505b857fb648241d83df6540fc10f2acc641e4bf80a1e84e7ae2f1f6b0ad204b8fee635b868633604051610aa893929190611424565b60405180910390a2505050505050565b60008281526004602090815260408083206001600160a01b0380861685529252822054168015801590610af05750610af08482610425565b15610afc57905061049e565b600084815260036020526040812054905b81811015610bd8576000868152600360205260408120805483908110610b3557610b356113b7565b6000918252602082200154604051633a01714f60e01b8152600481018a90526001600160a01b03898116602483015290911692508290633a01714f90604401606060405180830381865afa158015610b91573d6000803e3d6000fd5b505050506040513d601f19601f82011682018060405250810190610bb59190611328565b516001600160a01b031614610bcf57935061049e92505050565b50600101610b0d565b50600095945050505050565b610bec61104a565b6001600160a01b038216600081815260026020908152604091829020805460ff191685151590811790915591513381529192917f11207664cc48b0fa81c8674795f1d8f642960f38d5d2d305ad813093bed85fab910160405180910390a35050565b600081815260036020908152604091829020805483518184028101840190945280845260609392830182828015610cae57602002820191906000526020600020905b81546001600160a01b03168152600190910190602001808311610c90575b50505050509050919050565b610cc261104a565b6001600160a01b038116610cf157604051631e4fbdf760e01b8152600060048201526024015b60405180910390fd5b610cfa81611077565b50565b336001600160a01b0384168114801590610db4575060405163c161c93f60e01b81526001600160a01b038281166004830152858116602483015260448201859052606482018490527f0000000000000000000000000000000000000000000000000000000000000000169063c161c93f90608401602060405180830381865afa158015610d8e573d6000803e3d6000fd5b505050506040513d601f19601f82011682018060405250810190610db291906113e6565b155b8015610e5d575060405163c161c93f60e01b81526001600160a01b038281166004830152858116602483015260006044830152606482018490527f0000000000000000000000000000000000000000000000000000000000000000169063c161c93f90608401602060405180830381865afa158015610e37573d6000803e3d6000fd5b505050506040513d601f19601f82011682018060405250810190610e5b91906113e6565b155b15610e7b5760405163075fd2b160e01b815260040160405180910390fd5b50505050565b610e8b8282610425565b15610e94575050565b6000828152600160205260408082205490516301ffc9a760e01b8152632877540760e01b60048201526001600160a01b03909116919082906301ffc9a790602401602060405180830381865afa158015610ef2573d6000803e3d6000fd5b505050506040513d601f19601f82011682018060405250810190610f1691906113e6565b1580610f86575060405163b1a50e3360e01b8152600481018590526001600160a01b0383169063b1a50e3390602401602060405180830381865afa158015610f62573d6000803e3d6000fd5b505050506040513d601f19601f82011682018060405250810190610f8691906113e6565b6000858152600160205260409020549091506001600160a01b03163314801590610fae575080155b15610fcc576040516375fef35f60e11b815260040160405180910390fd5b600084815260036020908152604080832080546001810182559084529282902090920180546001600160a01b0319166001600160a01b038716908117909155915133815286917f409bccc07b7cf7807930526a24318212d614c59f2dde05a017a41efee144e7c89101610791565b80610e7b57610e7b848484610cfd565b6000546001600160a01b031633146107b15760405163118cdaa760e01b8152336004820152602401610ce8565b600080546001600160a01b038381166001600160a01b0319831681178455604051919092169283917f8be0079c531659141344cd1fd0a4f28419497f9722a3daafe3b4186f6b6457e09190a35050565b82805482825590600052602060002090810192821561111a579160200282015b8281111561111a5781546001600160a01b0319166001600160a01b038435161782556020909201916001909101906110e7565b5061112692915061112a565b5090565b5b80821115611126576000815560010161112b565b60006020828403121561115157600080fd5b5035919050565b6001600160a01b0381168114610cfa57600080fd5b60008060006060848603121561118257600080fd5b83359250602084013561119481611158565b915060408401356111a481611158565b809150509250925092565b600080604083850312156111c257600080fd5b8235915060208301356111d481611158565b809150509250929050565b6000806000604084860312156111f457600080fd5b83359250602084013567ffffffffffffffff8082111561121357600080fd5b818601915086601f83011261122757600080fd5b81358181111561123657600080fd5b8760208260051b850101111561124b57600080fd5b6020830194508093505050509250925092565b8015158114610cfa57600080fd5b6000806040838503121561127f57600080fd5b823561128a81611158565b915060208301356111d48161125e565b6000602082840312156112ac57600080fd5b81356112b781611158565b9392505050565b6020808252825182820181905260009190848201906040850190845b818110156112ff5783516001600160a01b0316835292840192918401916001016112da565b50909695505050505050565b60006020828403121561131d57600080fd5b81516112b781611158565b60006060828403121561133a57600080fd5b6040516060810181811067ffffffffffffffff8211171561136b57634e487b7160e01b600052604160045260246000fd5b604052825161137981611158565b8152602083015160ff8116811461138f57600080fd5b6020820152604083015163ffffffff811681146113ab57600080fd5b60408201529392505050565b634e487b7160e01b600052603260045260246000fd5b6000602082840312156113df57600080fd5b5051919050565b6000602082840312156113f857600080fd5b81516112b78161125e565b8082018082111561049e57634e487b7160e01b600052601160045260246000fd5b6040808252810183905260008460608301825b8681101561146757823561144a81611158565b6001600160a01b0316825260209283019290910190600101611437565b506001600160a01b0394909416602093909301929092525090939250505056fea2646970667358221220cd22bf41610c854893081950d7c56d0f89b9d4000e5dc1a3d86c6391a7db805464736f6c63430008170033",
			"deployedBytecode": "0x608060405234801561001057600080fd5b50600436106100ea5760003560e01c8063862026501161008c578063c5664e2111610066578063c5664e21146101f9578063d17541531461021c578063f2fde38b1461023c578063f434c9141461024f57600080fd5b806386202650146101c25780638da5cb5b146101d5578063a1ed3175146101e657600080fd5b80636e49181f116100c85780636e49181f14610171578063714e7f3214610194578063715018a6146101a7578063821b9fd8146101af57600080fd5b8063293c4999146100ef5780635dd8f6aa1461013357806363d0850a1461015c575b600080fd5b6101167f000000000000000000000000f9dada4628eb3992202cf253625d4ecebbc1592f81565b6040516001600160a01b0390911681526020015b60405180910390f35b61011661014136600461113f565b6001602052600090815260409020546001600160a01b031681565b61016f61016a36600461116d565b610276565b005b61018461017f3660046111af565b610425565b604051901515815260200161012a565b61016f6101a23660046111af565b6104a4565b61016f61079f565b61016f6101bd3660046111df565b6107b3565b6101166101d03660046111af565b610ab8565b6000546001600160a01b0316610116565b61016f6101f436600461126c565b610be4565b61018461020736600461129a565b60026020526000908152604090205460ff1681565b61022f61022a36600461113f565b610c4e565b60405161012a91906112be565b61016f61024a36600461129a565b610cba565b6101167f0000000000000000000000001e2e8562b635fe19978640c784e47865a83d660581565b6040516331a9108f60e11b81526004810184905261030b907f000000000000000000000000f9dada4628eb3992202cf253625d4ecebbc1592f6001600160a01b031690636352211e90602401602060405180830381865afa1580156102df573d6000803e3d6000fd5b505050506040513d601f19601f82011682018060405250810190610303919061130b565b84600f610cfd565b604051633a01714f60e01b8152600481018490526001600160a01b03838116602483015260009190831690633a01714f90604401606060405180830381865afa15801561035c573d6000803e3d6000fd5b505050506040513d601f19601f820116820180604052508101906103809190611328565b516001600160a01b0316036103a857604051630faa917b60e11b815260040160405180910390fd5b6103b28382610e81565b60008381526004602090815260408083206001600160a01b038681168086529184529382902080546001600160a01b03191694861694851790559051338152909186917fc670a502bbb9f8a4315f95eca901a9f99b65f89a2eb5705a58050e5c00f9d672910160405180910390a4505050565b600082815260036020526040812054815b8181101561049757600085815260036020526040902080546001600160a01b03861691908390811061046a5761046a6113b7565b6000918252602090912001546001600160a01b03160361048f5760019250505061049e565b600101610436565b5060009150505b92915050565b6040516331a9108f60e11b81526004810183905261056f907f000000000000000000000000f9dada4628eb3992202cf253625d4ecebbc1592f6001600160a01b031690636352211e90602401602060405180830381865afa15801561050d573d6000803e3d6000fd5b505050506040513d601f19601f82011682018060405250810190610531919061130b565b336000908152600260205260409020548490600d9060ff16801561056a57506000868152600160205260409020546001600160a01b0316155b61103a565b817f000000000000000000000000f9dada4628eb3992202cf253625d4ecebbc1592f6001600160a01b03166306661abd6040518163ffffffff1660e01b8152600401602060405180830381865afa1580156105ce573d6000803e3d6000fd5b505050506040513d601f19601f820116820180604052508101906105f291906113cd565b101561061157604051634a283a5360e11b815260040160405180910390fd5b6000828152600160205260408120546001600160a01b0316908115806106a357506040516301ffc9a760e01b8152632877540760e01b60048201526001600160a01b038316906301ffc9a790602401602060405180830381865afa15801561067d573d6000803e3d6000fd5b505050506040513d601f19601f820116820180604052508101906106a191906113e6565b155b61071557604051632674968d60e21b8152600481018590526001600160a01b038316906399d25a3490602401602060405180830381865afa1580156106ec573d6000803e3d6000fd5b505050506040513d601f19601f8201168201806040525081019061071091906113e6565b610718565b60015b9050806107385760405163a33db4cb60e01b815260040160405180910390fd5b60008481526001602090815260409182902080546001600160a01b0319166001600160a01b038716908117909155915133815286917f7f9a7dcb234c909a09de2f344661ad9e5b24067adb97c908647c2edcbb121c3091015b60405180910390a350505050565b6107a761104a565b6107b16000611077565b565b6040516331a9108f60e11b815260048101849052610864907f000000000000000000000000f9dada4628eb3992202cf253625d4ecebbc1592f6001600160a01b031690636352211e90602401602060405180830381865afa15801561081c573d6000803e3d6000fd5b505050506040513d601f19601f82011682018060405250810190610840919061130b565b6000858152600160205260409020548590600e906001600160a01b0316331461103a565b6000838152600160205260408082205490516301ffc9a760e01b8152632877540760e01b60048201526001600160a01b03909116919082906301ffc9a790602401602060405180830381865afa1580156108c2573d6000803e3d6000fd5b505050506040513d601f19601f820116820180604052508101906108e691906113e6565b1580610956575060405163b1a50e3360e01b8152600481018690526001600160a01b0383169063b1a50e3390602401602060405180830381865afa158015610932573d6000803e3d6000fd5b505050506040513d601f19601f8201168201806040525081019061095691906113e6565b6000868152600160205260409020549091506001600160a01b0316331480159061097e575080155b1561099c576040516375fef35f60e11b815260040160405180910390fd5b60008581526003602052604090206109b59085856110c7565b50826001811115610a745760005b81811015610a725760006109d8826001611403565b90505b82811015610a69578686828181106109f5576109f56113b7565b9050602002016020810190610a0a919061129a565b6001600160a01b0316878784818110610a2557610a256113b7565b9050602002016020810190610a3a919061129a565b6001600160a01b031603610a6157604051633e3830ab60e11b815260040160405180910390fd5b6001016109db565b506001016109c3565b505b857fb648241d83df6540fc10f2acc641e4bf80a1e84e7ae2f1f6b0ad204b8fee635b868633604051610aa893929190611424565b60405180910390a2505050505050565b60008281526004602090815260408083206001600160a01b0380861685529252822054168015801590610af05750610af08482610425565b15610afc57905061049e565b600084815260036020526040812054905b81811015610bd8576000868152600360205260408120805483908110610b3557610b356113b7565b6000918252602082200154604051633a01714f60e01b8152600481018a90526001600160a01b03898116602483015290911692508290633a01714f90604401606060405180830381865afa158015610b91573d6000803e3d6000fd5b505050506040513d601f19601f82011682018060405250810190610bb59190611328565b516001600160a01b031614610bcf57935061049e92505050565b50600101610b0d565b50600095945050505050565b610bec61104a565b6001600160a01b038216600081815260026020908152604091829020805460ff191685151590811790915591513381529192917f11207664cc48b0fa81c8674795f1d8f642960f38d5d2d305ad813093bed85fab910160405180910390a35050565b600081815260036020908152604091829020805483518184028101840190945280845260609392830182828015610cae57602002820191906000526020600020905b81546001600160a01b03168152600190910190602001808311610c90575b50505050509050919050565b610cc261104a565b6001600160a01b038116610cf157604051631e4fbdf760e01b8152600060048201526024015b60405180910390fd5b610cfa81611077565b50565b336001600160a01b0384168114801590610db4575060405163c161c93f60e01b81526001600160a01b038281166004830152858116602483015260448201859052606482018490527f0000000000000000000000001e2e8562b635fe19978640c784e47865a83d6605169063c161c93f90608401602060405180830381865afa158015610d8e573d6000803e3d6000fd5b505050506040513d601f19601f82011682018060405250810190610db291906113e6565b155b8015610e5d575060405163c161c93f60e01b81526001600160a01b038281166004830152858116602483015260006044830152606482018490527f0000000000000000000000001e2e8562b635fe19978640c784e47865a83d6605169063c161c93f90608401602060405180830381865afa158015610e37573d6000803e3d6000fd5b505050506040513d601f19601f82011682018060405250810190610e5b91906113e6565b155b15610e7b5760405163075fd2b160e01b815260040160405180910390fd5b50505050565b610e8b8282610425565b15610e94575050565b6000828152600160205260408082205490516301ffc9a760e01b8152632877540760e01b60048201526001600160a01b03909116919082906301ffc9a790602401602060405180830381865afa158015610ef2573d6000803e3d6000fd5b505050506040513d601f19601f82011682018060405250810190610f1691906113e6565b1580610f86575060405163b1a50e3360e01b8152600481018590526001600160a01b0383169063b1a50e3390602401602060405180830381865afa158015610f62573d6000803e3d6000fd5b505050506040513d601f19601f82011682018060405250810190610f8691906113e6565b6000858152600160205260409020549091506001600160a01b03163314801590610fae575080155b15610fcc576040516375fef35f60e11b815260040160405180910390fd5b600084815260036020908152604080832080546001810182559084529282902090920180546001600160a01b0319166001600160a01b038716908117909155915133815286917f409bccc07b7cf7807930526a24318212d614c59f2dde05a017a41efee144e7c89101610791565b80610e7b57610e7b848484610cfd565b6000546001600160a01b031633146107b15760405163118cdaa760e01b8152336004820152602401610ce8565b600080546001600160a01b038381166001600160a01b0319831681178455604051919092169283917f8be0079c531659141344cd1fd0a4f28419497f9722a3daafe3b4186f6b6457e09190a35050565b82805482825590600052602060002090810192821561111a579160200282015b8281111561111a5781546001600160a01b0319166001600160a01b038435161782556020909201916001909101906110e7565b5061112692915061112a565b5090565b5b80821115611126576000815560010161112b565b60006020828403121561115157600080fd5b5035919050565b6001600160a01b0381168114610cfa57600080fd5b60008060006060848603121561118257600080fd5b83359250602084013561119481611158565b915060408401356111a481611158565b809150509250925092565b600080604083850312156111c257600080fd5b8235915060208301356111d481611158565b809150509250929050565b6000806000604084860312156111f457600080fd5b83359250602084013567ffffffffffffffff8082111561121357600080fd5b818601915086601f83011261122757600080fd5b81358181111561123657600080fd5b8760208260051b850101111561124b57600080fd5b6020830194508093505050509250925092565b8015158114610cfa57600080fd5b6000806040838503121561127f57600080fd5b823561128a81611158565b915060208301356111d48161125e565b6000602082840312156112ac57600080fd5b81356112b781611158565b9392505050565b6020808252825182820181905260009190848201906040850190845b818110156112ff5783516001600160a01b0316835292840192918401916001016112da565b50909695505050505050565b60006020828403121561131d57600080fd5b81516112b781611158565b60006060828403121561133a57600080fd5b6040516060810181811067ffffffffffffffff8211171561136b57634e487b7160e01b600052604160045260246000fd5b604052825161137981611158565b8152602083015160ff8116811461138f57600080fd5b6020820152604083015163ffffffff811681146113ab57600080fd5b60408201529392505050565b634e487b7160e01b600052603260045260246000fd5b6000602082840312156113df57600080fd5b5051919050565b6000602082840312156113f857600080fd5b81516112b78161125e565b8082018082111561049e57634e487b7160e01b600052601160045260246000fd5b6040808252810183905260008460608301825b8681101561146757823561144a81611158565b6001600160a01b0316825260209283019290910190600101611437565b506001600160a01b0394909416602093909301929092525090939250505056fea2646970667358221220cd22bf41610c854893081950d7c56d0f89b9d4000e5dc1a3d86c6391a7db805464736f6c63430008170033",
			"devdoc": {
				"kind": "dev",
				"methods": {
					"constructor": {
						"params": {
							"owner": "The address that will own the contract.",
							"permissions": "A contract storing permissions.",
							"projects": "A contract which mints ERC-721s that represent project ownership and transfers."
						}
					},
					"isTerminalOf(uint256,address)": {
						"params": {
							"projectId": "The ID of the project to check.",
							"terminal": "The terminal to check for."
						},
						"returns": {
							"_0": "A flag indicating whether the project uses the terminal."
						}
					},
					"owner()": {
						"details": "Returns the address of the current owner."
					},
					"primaryTerminalOf(uint256,address)": {
						"details": "Returns the first terminal that accepts the token if the project hasn't explicitly set a primary terminal for it.Returns the zero address if no terminal accepts the token.",
						"params": {
							"projectId": "The ID of the project to get the primary terminal of.",
							"token": "The token that the terminal accepts."
						},
						"returns": {
							"_0": "The primary terminal's address."
						}
					},
					"renounceOwnership()": {
						"details": "Leaves the contract without owner. It will not be possible to call `onlyOwner` functions. Can only be called by the current owner. NOTE: Renouncing ownership will leave the contract without an owner, thereby disabling any functionality that is only available to the owner."
					},
					"setControllerOf(uint256,address)": {
						"details": "Can only be called if: - The ruleset's metadata has `allowSetController` enabled, and the message's sender is the project's owner or an address with the owner's permission to `SET_CONTROLLER`. - OR the message's sender is the project's current controller. - OR an address which `isAllowedToSetFirstController` is setting a project's first controller.",
						"params": {
							"controller": "The address of the controller to set.",
							"projectId": "The ID of the project whose controller is being set."
						}
					},
					"setIsAllowedToSetFirstController(address,bool)": {
						"details": "Only this contract's owner can call this function.These addresses are vetted controllers as well as contracts designed to launch new projects.A project can set its own controller without being on this list.If you would like to add an address/contract to this list, please reach out to this contract's owner.",
						"params": {
							"addr": "The address to allow or not allow.",
							"flag": "Whether the address is allowed to set first controllers for projects. Use `true` to allow and `false` to not allow."
						}
					},
					"setPrimaryTerminalOf(uint256,address,address)": {
						"details": "The primary terminal for a token is where payments in that token are routed to by default.This is useful in cases where a project has multiple terminals which accept the same token.Can only be called by the project's owner, or an address with the owner's permission to `SET_PRIMARY_TERMINAL`.",
						"params": {
							"projectId": "The ID of the project whose primary terminal is being set.",
							"terminal": "The terminal being set as the primary terminal.",
							"token": "The token to set the primary terminal for."
						}
					},
					"setTerminalsOf(uint256,address[])": {
						"details": "Can only be called by the project's owner, an address with the owner's permission to `SET_TERMINALS`, or the project's controller.Unless the caller is the project's controller, the project's ruleset must allow setting terminals.",
						"params": {
							"projectId": "The ID of the project whose terminals are being set.",
							"terminals": "An array of terminal addresses to set for the project."
						}
					},
					"terminalsOf(uint256)": {
						"params": {
							"projectId": "The ID of the project to get the terminals of."
						},
						"returns": {
							"_0": "An array of the project's terminal addresses."
						}
					},
					"transferOwnership(address)": {
						"details": "Transfers ownership of the contract to a new account (`newOwner`). Can only be called by the current owner."
					}
				},
				"version": 1
			},
			"userdoc": {
				"kind": "user",
				"methods": {
					"PERMISSIONS()": {
						"notice": "A contract storing permissions."
					},
					"PROJECTS()": {
						"notice": "Mints ERC-721s that represent project ownership and transfers."
					},
					"controllerOf(uint256)": {
						"notice": "The specified project's controller, which dictates how its terminals interact with its tokens and rulesets."
					},
					"isAllowedToSetFirstController(address)": {
						"notice": "Whether the specified address is allowed to set a project's first controller on their behalf."
					},
					"isTerminalOf(uint256,address)": {
						"notice": "Check if a project uses a specific terminal."
					},
					"primaryTerminalOf(uint256,address)": {
						"notice": "The primary terminal that a project uses for the specified token."
					},
					"setControllerOf(uint256,address)": {
						"notice": "Set a project's controller. Controllers manage how terminals interact with tokens and rulesets."
					},
					"setIsAllowedToSetFirstController(address,bool)": {
						"notice": "Add or remove an address/contract from a list of trusted addresses which are allowed to set a first controller for projects."
					},
					"setPrimaryTerminalOf(uint256,address,address)": {
						"notice": "Set a project's primary terminal for a token."
					},
					"setTerminalsOf(uint256,address[])": {
						"notice": "Set a project's terminals."
					},
					"terminalsOf(uint256)": {
						"notice": "The specified project's terminals."
					}
				},
				"version": 1
			},
			"gitCommit": "8e6924651d1e8038d6c2982d6d0c09a070b141a7",
			"sourceName": "src/JBDirectory.sol",
			"chainId": "11155111",
			"linkReferences": {},
			"deployedLinkReferences": {}
		},
		{
			"_format": "sphinx-sol-ct-artifact-1",
			"merkleRoot": "0x1c031ac0217a16bc8b880bc3a6e637a3fb319bf6343a8af2f9d37587d2ef9836",
			"contractName": "JBDirectory",
			"address": "0xCd7112aE7c3b2505F0795c1ba965e5694c25d696",
			"abi": [
				{
					"type": "constructor",
					"inputs": [
						{
							"name": "permissions",
							"type": "address",
							"internalType": "contract IJBPermissions"
						},
						{
							"name": "projects",
							"type": "address",
							"internalType": "contract IJBProjects"
						},
						{
							"name": "owner",
							"type": "address",
							"internalType": "address"
						}
					],
					"stateMutability": "nonpayable"
				},
				{
					"type": "function",
					"name": "PERMISSIONS",
					"inputs": [],
					"outputs": [
						{
							"name": "",
							"type": "address",
							"internalType": "contract IJBPermissions"
						}
					],
					"stateMutability": "view"
				},
				{
					"type": "function",
					"name": "PROJECTS",
					"inputs": [],
					"outputs": [
						{
							"name": "",
							"type": "address",
							"internalType": "contract IJBProjects"
						}
					],
					"stateMutability": "view"
				},
				{
					"type": "function",
					"name": "controllerOf",
					"inputs": [
						{
							"name": "projectId",
							"type": "uint256",
							"internalType": "uint256"
						}
					],
					"outputs": [
						{
							"name": "",
							"type": "address",
							"internalType": "contract IERC165"
						}
					],
					"stateMutability": "view"
				},
				{
					"type": "function",
					"name": "isAllowedToSetFirstController",
					"inputs": [
						{
							"name": "addr",
							"type": "address",
							"internalType": "address"
						}
					],
					"outputs": [
						{
							"name": "",
							"type": "bool",
							"internalType": "bool"
						}
					],
					"stateMutability": "view"
				},
				{
					"type": "function",
					"name": "isTerminalOf",
					"inputs": [
						{
							"name": "projectId",
							"type": "uint256",
							"internalType": "uint256"
						},
						{
							"name": "terminal",
							"type": "address",
							"internalType": "contract IJBTerminal"
						}
					],
					"outputs": [
						{
							"name": "",
							"type": "bool",
							"internalType": "bool"
						}
					],
					"stateMutability": "view"
				},
				{
					"type": "function",
					"name": "owner",
					"inputs": [],
					"outputs": [
						{
							"name": "",
							"type": "address",
							"internalType": "address"
						}
					],
					"stateMutability": "view"
				},
				{
					"type": "function",
					"name": "primaryTerminalOf",
					"inputs": [
						{
							"name": "projectId",
							"type": "uint256",
							"internalType": "uint256"
						},
						{
							"name": "token",
							"type": "address",
							"internalType": "address"
						}
					],
					"outputs": [
						{
							"name": "",
							"type": "address",
							"internalType": "contract IJBTerminal"
						}
					],
					"stateMutability": "view"
				},
				{
					"type": "function",
					"name": "renounceOwnership",
					"inputs": [],
					"outputs": [],
					"stateMutability": "nonpayable"
				},
				{
					"type": "function",
					"name": "setControllerOf",
					"inputs": [
						{
							"name": "projectId",
							"type": "uint256",
							"internalType": "uint256"
						},
						{
							"name": "controller",
							"type": "address",
							"internalType": "contract IERC165"
						}
					],
					"outputs": [],
					"stateMutability": "nonpayable"
				},
				{
					"type": "function",
					"name": "setIsAllowedToSetFirstController",
					"inputs": [
						{
							"name": "addr",
							"type": "address",
							"internalType": "address"
						},
						{
							"name": "flag",
							"type": "bool",
							"internalType": "bool"
						}
					],
					"outputs": [],
					"stateMutability": "nonpayable"
				},
				{
					"type": "function",
					"name": "setPrimaryTerminalOf",
					"inputs": [
						{
							"name": "projectId",
							"type": "uint256",
							"internalType": "uint256"
						},
						{
							"name": "token",
							"type": "address",
							"internalType": "address"
						},
						{
							"name": "terminal",
							"type": "address",
							"internalType": "contract IJBTerminal"
						}
					],
					"outputs": [],
					"stateMutability": "nonpayable"
				},
				{
					"type": "function",
					"name": "setTerminalsOf",
					"inputs": [
						{
							"name": "projectId",
							"type": "uint256",
							"internalType": "uint256"
						},
						{
							"name": "terminals",
							"type": "address[]",
							"internalType": "contract IJBTerminal[]"
						}
					],
					"outputs": [],
					"stateMutability": "nonpayable"
				},
				{
					"type": "function",
					"name": "terminalsOf",
					"inputs": [
						{
							"name": "projectId",
							"type": "uint256",
							"internalType": "uint256"
						}
					],
					"outputs": [
						{
							"name": "",
							"type": "address[]",
							"internalType": "contract IJBTerminal[]"
						}
					],
					"stateMutability": "view"
				},
				{
					"type": "function",
					"name": "transferOwnership",
					"inputs": [
						{
							"name": "newOwner",
							"type": "address",
							"internalType": "address"
						}
					],
					"outputs": [],
					"stateMutability": "nonpayable"
				},
				{
					"type": "event",
					"name": "AddTerminal",
					"inputs": [
						{
							"name": "projectId",
							"type": "uint256",
							"indexed": true,
							"internalType": "uint256"
						},
						{
							"name": "terminal",
							"type": "address",
							"indexed": true,
							"internalType": "contract IJBTerminal"
						},
						{
							"name": "caller",
							"type": "address",
							"indexed": false,
							"internalType": "address"
						}
					],
					"anonymous": false
				},
				{
					"type": "event",
					"name": "OwnershipTransferred",
					"inputs": [
						{
							"name": "previousOwner",
							"type": "address",
							"indexed": true,
							"internalType": "address"
						},
						{
							"name": "newOwner",
							"type": "address",
							"indexed": true,
							"internalType": "address"
						}
					],
					"anonymous": false
				},
				{
					"type": "event",
					"name": "SetController",
					"inputs": [
						{
							"name": "projectId",
							"type": "uint256",
							"indexed": true,
							"internalType": "uint256"
						},
						{
							"name": "controller",
							"type": "address",
							"indexed": true,
							"internalType": "contract IERC165"
						},
						{
							"name": "caller",
							"type": "address",
							"indexed": false,
							"internalType": "address"
						}
					],
					"anonymous": false
				},
				{
					"type": "event",
					"name": "SetIsAllowedToSetFirstController",
					"inputs": [
						{
							"name": "addr",
							"type": "address",
							"indexed": true,
							"internalType": "address"
						},
						{
							"name": "flag",
							"type": "bool",
							"indexed": true,
							"internalType": "bool"
						},
						{
							"name": "caller",
							"type": "address",
							"indexed": false,
							"internalType": "address"
						}
					],
					"anonymous": false
				},
				{
					"type": "event",
					"name": "SetPrimaryTerminal",
					"inputs": [
						{
							"name": "projectId",
							"type": "uint256",
							"indexed": true,
							"internalType": "uint256"
						},
						{
							"name": "token",
							"type": "address",
							"indexed": true,
							"internalType": "address"
						},
						{
							"name": "terminal",
							"type": "address",
							"indexed": true,
							"internalType": "contract IJBTerminal"
						},
						{
							"name": "caller",
							"type": "address",
							"indexed": false,
							"internalType": "address"
						}
					],
					"anonymous": false
				},
				{
					"type": "event",
					"name": "SetTerminals",
					"inputs": [
						{
							"name": "projectId",
							"type": "uint256",
							"indexed": true,
							"internalType": "uint256"
						},
						{
							"name": "terminals",
							"type": "address[]",
							"indexed": false,
							"internalType": "contract IJBTerminal[]"
						},
						{
							"name": "caller",
							"type": "address",
							"indexed": false,
							"internalType": "address"
						}
					],
					"anonymous": false
				},
				{
					"type": "error",
					"name": "DUPLICATE_TERMINALS",
					"inputs": []
				},
				{
					"type": "error",
					"name": "INVALID_PROJECT_ID_IN_DIRECTORY",
					"inputs": []
				},
				{
					"type": "error",
					"name": "OwnableInvalidOwner",
					"inputs": [
						{
							"name": "owner",
							"type": "address",
							"internalType": "address"
						}
					]
				},
				{
					"type": "error",
					"name": "OwnableUnauthorizedAccount",
					"inputs": [
						{
							"name": "account",
							"type": "address",
							"internalType": "address"
						}
					]
				},
				{
					"type": "error",
					"name": "SET_CONTROLLER_NOT_ALLOWED",
					"inputs": []
				},
				{
					"type": "error",
					"name": "SET_TERMINALS_NOT_ALLOWED",
					"inputs": []
				},
				{
					"type": "error",
					"name": "TOKEN_NOT_ACCEPTED",
					"inputs": []
				},
				{
					"type": "error",
					"name": "UNAUTHORIZED",
					"inputs": []
				}
			],
			"solcInputHash": "5d7a79485a8a4fd8d39819ca7cc29822",
			"receipt": {
				"blockHash": "0xd7e8a5e444c838aaf54c798a1d5d50b949bcbc9fc3fafc4e95d90051a2bdd716",
				"blockNumber": 5822433,
				"contractAddress": null,
				"cumulativeGasUsed": "24974523",
				"from": "0xC034550B542b83BA1De312b21d1C94a9a52B1595",
				"gasPrice": "39238122146",
				"gasUsed": "11008727",
				"hash": "0xe8b9f2f06fa3e1424debc2e540e008426d3ec89f8a7a451274fd80f8ff626008",
				"index": 125,
				"logs": [
					{
						"address": "0xB5E96127D417b1B3ef8438496a38A143167209c7",
						"blockHash": "0xd7e8a5e444c838aaf54c798a1d5d50b949bcbc9fc3fafc4e95d90051a2bdd716",
						"blockNumber": 5822433,
						"data": "0x0000000000000000000000000000000000000000000000000000000000000000",
						"index": 217,
						"topics": [
							"0x572f161235911da04685a68c06adf558fc7e4a36909dca394650e0adc19cc93d",
							"0x000000000000000000000000c034550b542b83ba1de312b21d1c94a9a52b1595",
							"0x000000000000000000000000ef1be3c049809cace5bc203bbe4ec1ab284bf75c",
							"0x7d72c30d99b3361e6a64dd3043af44fc7ee6b0b3992aae3426633d4466b31dae"
						],
						"transactionHash": "0xe8b9f2f06fa3e1424debc2e540e008426d3ec89f8a7a451274fd80f8ff626008",
						"transactionIndex": 125
					},
					{
						"address": "0x1081B5AA9D9d4862A3dA4d469433FB36Ed80FA2A",
						"blockHash": "0xd7e8a5e444c838aaf54c798a1d5d50b949bcbc9fc3fafc4e95d90051a2bdd716",
						"blockNumber": 5822433,
						"data": "0x",
						"index": 218,
						"topics": [
							"0x6895c13664aa4f67288b25d7a21d7aaa34916e355fb9b6fae0a139a9085becb8",
							"0x000000000000000000000000ef1be3c049809cace5bc203bbe4ec1ab284bf75c"
						],
						"transactionHash": "0xe8b9f2f06fa3e1424debc2e540e008426d3ec89f8a7a451274fd80f8ff626008",
						"transactionIndex": 125
					},
					{
						"address": "0xEf1Be3C049809caCe5Bc203BBe4Ec1Ab284bF75c",
						"blockHash": "0xd7e8a5e444c838aaf54c798a1d5d50b949bcbc9fc3fafc4e95d90051a2bdd716",
						"blockNumber": 5822433,
						"data": "0x0000000000000000000000000000000000000000000000000000000000000001",
						"index": 219,
						"topics": [
							"0xa65fb05c5808f5f389d72edeaf719ce38f4cc55c1f69ca3cbfb31c21501caa07",
							"0x1c031ac0217a16bc8b880bc3a6e637a3fb319bf6343a8af2f9d37587d2ef9836"
						],
						"transactionHash": "0xe8b9f2f06fa3e1424debc2e540e008426d3ec89f8a7a451274fd80f8ff626008",
						"transactionIndex": 125
					},
					{
						"address": "0x2ca466eB84DD69A99E25d10BBbdA6e1B3c562c49",
						"blockHash": "0xd7e8a5e444c838aaf54c798a1d5d50b949bcbc9fc3fafc4e95d90051a2bdd716",
						"blockNumber": 5822433,
						"data": "0x",
						"index": 220,
						"topics": [
							"0x8be0079c531659141344cd1fd0a4f28419497f9722a3daafe3b4186f6b6457e0",
							"0x0000000000000000000000000000000000000000000000000000000000000000",
							"0x0000000000000000000000001081b5aa9d9d4862a3da4d469433fb36ed80fa2a"
						],
						"transactionHash": "0xe8b9f2f06fa3e1424debc2e540e008426d3ec89f8a7a451274fd80f8ff626008",
						"transactionIndex": 125
					},
					{
						"address": "0x2ca466eB84DD69A99E25d10BBbdA6e1B3c562c49",
						"blockHash": "0xd7e8a5e444c838aaf54c798a1d5d50b949bcbc9fc3fafc4e95d90051a2bdd716",
						"blockNumber": 5822433,
						"data": "0x",
						"index": 221,
						"topics": [
							"0xddf252ad1be2c89b69c2b068fc378daa952ba7f163c4a11628f55a4df523b3ef",
							"0x0000000000000000000000000000000000000000000000000000000000000000",
							"0x0000000000000000000000001081b5aa9d9d4862a3da4d469433fb36ed80fa2a",
							"0x0000000000000000000000000000000000000000000000000000000000000001"
						],
						"transactionHash": "0xe8b9f2f06fa3e1424debc2e540e008426d3ec89f8a7a451274fd80f8ff626008",
						"transactionIndex": 125
					},
					{
						"address": "0x2ca466eB84DD69A99E25d10BBbdA6e1B3c562c49",
						"blockHash": "0xd7e8a5e444c838aaf54c798a1d5d50b949bcbc9fc3fafc4e95d90051a2bdd716",
						"blockNumber": 5822433,
						"data": "0x0000000000000000000000004e59b44847b379578588920ca78fbf26c0b4956c",
						"index": 222,
						"topics": [
							"0x365b3162cd780731fc55a794b59494d472bc2af701007f581843a70673814698",
							"0x0000000000000000000000000000000000000000000000000000000000000001",
							"0x0000000000000000000000001081b5aa9d9d4862a3da4d469433fb36ed80fa2a"
						],
						"transactionHash": "0xe8b9f2f06fa3e1424debc2e540e008426d3ec89f8a7a451274fd80f8ff626008",
						"transactionIndex": 125
					},
					{
						"address": "0x1081B5AA9D9d4862A3dA4d469433FB36Ed80FA2A",
						"blockHash": "0xd7e8a5e444c838aaf54c798a1d5d50b949bcbc9fc3fafc4e95d90051a2bdd716",
						"blockNumber": 5822433,
						"data": "0x",
						"index": 223,
						"topics": [
							"0x6895c13664aa4f67288b25d7a21d7aaa34916e355fb9b6fae0a139a9085becb8",
							"0x000000000000000000000000ef1be3c049809cace5bc203bbe4ec1ab284bf75c"
						],
						"transactionHash": "0xe8b9f2f06fa3e1424debc2e540e008426d3ec89f8a7a451274fd80f8ff626008",
						"transactionIndex": 125
					},
					{
						"address": "0xEf1Be3C049809caCe5Bc203BBe4Ec1Ab284bF75c",
						"blockHash": "0xd7e8a5e444c838aaf54c798a1d5d50b949bcbc9fc3fafc4e95d90051a2bdd716",
						"blockNumber": 5822433,
						"data": "0x0000000000000000000000000000000000000000000000000000000000000002",
						"index": 224,
						"topics": [
							"0xa65fb05c5808f5f389d72edeaf719ce38f4cc55c1f69ca3cbfb31c21501caa07",
							"0x1c031ac0217a16bc8b880bc3a6e637a3fb319bf6343a8af2f9d37587d2ef9836"
						],
						"transactionHash": "0xe8b9f2f06fa3e1424debc2e540e008426d3ec89f8a7a451274fd80f8ff626008",
						"transactionIndex": 125
					},
					{
						"address": "0xCd7112aE7c3b2505F0795c1ba965e5694c25d696",
						"blockHash": "0xd7e8a5e444c838aaf54c798a1d5d50b949bcbc9fc3fafc4e95d90051a2bdd716",
						"blockNumber": 5822433,
						"data": "0x",
						"index": 225,
						"topics": [
							"0x8be0079c531659141344cd1fd0a4f28419497f9722a3daafe3b4186f6b6457e0",
							"0x0000000000000000000000000000000000000000000000000000000000000000",
							"0x0000000000000000000000001081b5aa9d9d4862a3da4d469433fb36ed80fa2a"
						],
						"transactionHash": "0xe8b9f2f06fa3e1424debc2e540e008426d3ec89f8a7a451274fd80f8ff626008",
						"transactionIndex": 125
					},
					{
						"address": "0x1081B5AA9D9d4862A3dA4d469433FB36Ed80FA2A",
						"blockHash": "0xd7e8a5e444c838aaf54c798a1d5d50b949bcbc9fc3fafc4e95d90051a2bdd716",
						"blockNumber": 5822433,
						"data": "0x",
						"index": 226,
						"topics": [
							"0x6895c13664aa4f67288b25d7a21d7aaa34916e355fb9b6fae0a139a9085becb8",
							"0x000000000000000000000000ef1be3c049809cace5bc203bbe4ec1ab284bf75c"
						],
						"transactionHash": "0xe8b9f2f06fa3e1424debc2e540e008426d3ec89f8a7a451274fd80f8ff626008",
						"transactionIndex": 125
					},
					{
						"address": "0xEf1Be3C049809caCe5Bc203BBe4Ec1Ab284bF75c",
						"blockHash": "0xd7e8a5e444c838aaf54c798a1d5d50b949bcbc9fc3fafc4e95d90051a2bdd716",
						"blockNumber": 5822433,
						"data": "0x0000000000000000000000000000000000000000000000000000000000000003",
						"index": 227,
						"topics": [
							"0xa65fb05c5808f5f389d72edeaf719ce38f4cc55c1f69ca3cbfb31c21501caa07",
							"0x1c031ac0217a16bc8b880bc3a6e637a3fb319bf6343a8af2f9d37587d2ef9836"
						],
						"transactionHash": "0xe8b9f2f06fa3e1424debc2e540e008426d3ec89f8a7a451274fd80f8ff626008",
						"transactionIndex": 125
					},
					{
						"address": "0x1081B5AA9D9d4862A3dA4d469433FB36Ed80FA2A",
						"blockHash": "0xd7e8a5e444c838aaf54c798a1d5d50b949bcbc9fc3fafc4e95d90051a2bdd716",
						"blockNumber": 5822433,
						"data": "0x",
						"index": 228,
						"topics": [
							"0x6895c13664aa4f67288b25d7a21d7aaa34916e355fb9b6fae0a139a9085becb8",
							"0x000000000000000000000000ef1be3c049809cace5bc203bbe4ec1ab284bf75c"
						],
						"transactionHash": "0xe8b9f2f06fa3e1424debc2e540e008426d3ec89f8a7a451274fd80f8ff626008",
						"transactionIndex": 125
					},
					{
						"address": "0xEf1Be3C049809caCe5Bc203BBe4Ec1Ab284bF75c",
						"blockHash": "0xd7e8a5e444c838aaf54c798a1d5d50b949bcbc9fc3fafc4e95d90051a2bdd716",
						"blockNumber": 5822433,
						"data": "0x0000000000000000000000000000000000000000000000000000000000000004",
						"index": 229,
						"topics": [
							"0xa65fb05c5808f5f389d72edeaf719ce38f4cc55c1f69ca3cbfb31c21501caa07",
							"0x1c031ac0217a16bc8b880bc3a6e637a3fb319bf6343a8af2f9d37587d2ef9836"
						],
						"transactionHash": "0xe8b9f2f06fa3e1424debc2e540e008426d3ec89f8a7a451274fd80f8ff626008",
						"transactionIndex": 125
					},
					{
						"address": "0x1081B5AA9D9d4862A3dA4d469433FB36Ed80FA2A",
						"blockHash": "0xd7e8a5e444c838aaf54c798a1d5d50b949bcbc9fc3fafc4e95d90051a2bdd716",
						"blockNumber": 5822433,
						"data": "0x",
						"index": 230,
						"topics": [
							"0x6895c13664aa4f67288b25d7a21d7aaa34916e355fb9b6fae0a139a9085becb8",
							"0x000000000000000000000000ef1be3c049809cace5bc203bbe4ec1ab284bf75c"
						],
						"transactionHash": "0xe8b9f2f06fa3e1424debc2e540e008426d3ec89f8a7a451274fd80f8ff626008",
						"transactionIndex": 125
					},
					{
						"address": "0xEf1Be3C049809caCe5Bc203BBe4Ec1Ab284bF75c",
						"blockHash": "0xd7e8a5e444c838aaf54c798a1d5d50b949bcbc9fc3fafc4e95d90051a2bdd716",
						"blockNumber": 5822433,
						"data": "0x0000000000000000000000000000000000000000000000000000000000000005",
						"index": 231,
						"topics": [
							"0xa65fb05c5808f5f389d72edeaf719ce38f4cc55c1f69ca3cbfb31c21501caa07",
							"0x1c031ac0217a16bc8b880bc3a6e637a3fb319bf6343a8af2f9d37587d2ef9836"
						],
						"transactionHash": "0xe8b9f2f06fa3e1424debc2e540e008426d3ec89f8a7a451274fd80f8ff626008",
						"transactionIndex": 125
					},
					{
						"address": "0xf8febDbCC8ACfb46BfB59e7695F77d8eA653a69d",
						"blockHash": "0xd7e8a5e444c838aaf54c798a1d5d50b949bcbc9fc3fafc4e95d90051a2bdd716",
						"blockNumber": 5822433,
						"data": "0x",
						"index": 232,
						"topics": [
							"0x8be0079c531659141344cd1fd0a4f28419497f9722a3daafe3b4186f6b6457e0",
							"0x0000000000000000000000000000000000000000000000000000000000000000",
							"0x000000000000000000000000f8febdbcc8acfb46bfb59e7695f77d8ea653a69d"
						],
						"transactionHash": "0xe8b9f2f06fa3e1424debc2e540e008426d3ec89f8a7a451274fd80f8ff626008",
						"transactionIndex": 125
					},
					{
						"address": "0x1081B5AA9D9d4862A3dA4d469433FB36Ed80FA2A",
						"blockHash": "0xd7e8a5e444c838aaf54c798a1d5d50b949bcbc9fc3fafc4e95d90051a2bdd716",
						"blockNumber": 5822433,
						"data": "0x",
						"index": 233,
						"topics": [
							"0x6895c13664aa4f67288b25d7a21d7aaa34916e355fb9b6fae0a139a9085becb8",
							"0x000000000000000000000000ef1be3c049809cace5bc203bbe4ec1ab284bf75c"
						],
						"transactionHash": "0xe8b9f2f06fa3e1424debc2e540e008426d3ec89f8a7a451274fd80f8ff626008",
						"transactionIndex": 125
					},
					{
						"address": "0xEf1Be3C049809caCe5Bc203BBe4Ec1Ab284bF75c",
						"blockHash": "0xd7e8a5e444c838aaf54c798a1d5d50b949bcbc9fc3fafc4e95d90051a2bdd716",
						"blockNumber": 5822433,
						"data": "0x0000000000000000000000000000000000000000000000000000000000000006",
						"index": 234,
						"topics": [
							"0xa65fb05c5808f5f389d72edeaf719ce38f4cc55c1f69ca3cbfb31c21501caa07",
							"0x1c031ac0217a16bc8b880bc3a6e637a3fb319bf6343a8af2f9d37587d2ef9836"
						],
						"transactionHash": "0xe8b9f2f06fa3e1424debc2e540e008426d3ec89f8a7a451274fd80f8ff626008",
						"transactionIndex": 125
					},
					{
						"address": "0x1081B5AA9D9d4862A3dA4d469433FB36Ed80FA2A",
						"blockHash": "0xd7e8a5e444c838aaf54c798a1d5d50b949bcbc9fc3fafc4e95d90051a2bdd716",
						"blockNumber": 5822433,
						"data": "0x",
						"index": 235,
						"topics": [
							"0x6895c13664aa4f67288b25d7a21d7aaa34916e355fb9b6fae0a139a9085becb8",
							"0x000000000000000000000000ef1be3c049809cace5bc203bbe4ec1ab284bf75c"
						],
						"transactionHash": "0xe8b9f2f06fa3e1424debc2e540e008426d3ec89f8a7a451274fd80f8ff626008",
						"transactionIndex": 125
					},
					{
						"address": "0xEf1Be3C049809caCe5Bc203BBe4Ec1Ab284bF75c",
						"blockHash": "0xd7e8a5e444c838aaf54c798a1d5d50b949bcbc9fc3fafc4e95d90051a2bdd716",
						"blockNumber": 5822433,
						"data": "0x0000000000000000000000000000000000000000000000000000000000000007",
						"index": 236,
						"topics": [
							"0xa65fb05c5808f5f389d72edeaf719ce38f4cc55c1f69ca3cbfb31c21501caa07",
							"0x1c031ac0217a16bc8b880bc3a6e637a3fb319bf6343a8af2f9d37587d2ef9836"
						],
						"transactionHash": "0xe8b9f2f06fa3e1424debc2e540e008426d3ec89f8a7a451274fd80f8ff626008",
						"transactionIndex": 125
					},
					{
						"address": "0x1081B5AA9D9d4862A3dA4d469433FB36Ed80FA2A",
						"blockHash": "0xd7e8a5e444c838aaf54c798a1d5d50b949bcbc9fc3fafc4e95d90051a2bdd716",
						"blockNumber": 5822433,
						"data": "0x",
						"index": 237,
						"topics": [
							"0x6895c13664aa4f67288b25d7a21d7aaa34916e355fb9b6fae0a139a9085becb8",
							"0x000000000000000000000000ef1be3c049809cace5bc203bbe4ec1ab284bf75c"
						],
						"transactionHash": "0xe8b9f2f06fa3e1424debc2e540e008426d3ec89f8a7a451274fd80f8ff626008",
						"transactionIndex": 125
					},
					{
						"address": "0xEf1Be3C049809caCe5Bc203BBe4Ec1Ab284bF75c",
						"blockHash": "0xd7e8a5e444c838aaf54c798a1d5d50b949bcbc9fc3fafc4e95d90051a2bdd716",
						"blockNumber": 5822433,
						"data": "0x0000000000000000000000000000000000000000000000000000000000000008",
						"index": 238,
						"topics": [
							"0xa65fb05c5808f5f389d72edeaf719ce38f4cc55c1f69ca3cbfb31c21501caa07",
							"0x1c031ac0217a16bc8b880bc3a6e637a3fb319bf6343a8af2f9d37587d2ef9836"
						],
						"transactionHash": "0xe8b9f2f06fa3e1424debc2e540e008426d3ec89f8a7a451274fd80f8ff626008",
						"transactionIndex": 125
					}
				],
				"logsBloom": "0x000000000800100000080000000802000000000000080000008000000040000000600080000000000000000000404000000000000000000000000000000400000000001080002004000000080102000000010000000c0000000200080000000000020000020000000000000000000800080000100000000000000010000000400011800200000000000100000000000000000000000000000000800000000000004000000010000000000000000000020200000000080000012080000006000000000002000000200000000008000000010000000000000000000000000060000000000000000004000000000000000200000000000000000040100000000000",
				"status": 1,
				"to": "0xB5E96127D417b1B3ef8438496a38A143167209c7"
			},
			"metadata": "{\"compiler\":{\"version\":\"0.8.23+commit.f704f362\"},\"language\":\"Solidity\",\"output\":{\"abi\":[{\"inputs\":[{\"internalType\":\"contract IJBPermissions\",\"name\":\"permissions\",\"type\":\"address\"},{\"internalType\":\"contract IJBProjects\",\"name\":\"projects\",\"type\":\"address\"},{\"internalType\":\"address\",\"name\":\"owner\",\"type\":\"address\"}],\"stateMutability\":\"nonpayable\",\"type\":\"constructor\"},{\"inputs\":[],\"type\":\"error\",\"name\":\"DUPLICATE_TERMINALS\"},{\"inputs\":[],\"type\":\"error\",\"name\":\"INVALID_PROJECT_ID_IN_DIRECTORY\"},{\"inputs\":[{\"internalType\":\"address\",\"name\":\"owner\",\"type\":\"address\"}],\"type\":\"error\",\"name\":\"OwnableInvalidOwner\"},{\"inputs\":[{\"internalType\":\"address\",\"name\":\"account\",\"type\":\"address\"}],\"type\":\"error\",\"name\":\"OwnableUnauthorizedAccount\"},{\"inputs\":[],\"type\":\"error\",\"name\":\"SET_CONTROLLER_NOT_ALLOWED\"},{\"inputs\":[],\"type\":\"error\",\"name\":\"SET_TERMINALS_NOT_ALLOWED\"},{\"inputs\":[],\"type\":\"error\",\"name\":\"TOKEN_NOT_ACCEPTED\"},{\"inputs\":[],\"type\":\"error\",\"name\":\"UNAUTHORIZED\"},{\"inputs\":[{\"internalType\":\"uint256\",\"name\":\"projectId\",\"type\":\"uint256\",\"indexed\":true},{\"internalType\":\"contract IJBTerminal\",\"name\":\"terminal\",\"type\":\"address\",\"indexed\":true},{\"internalType\":\"address\",\"name\":\"caller\",\"type\":\"address\",\"indexed\":false}],\"type\":\"event\",\"name\":\"AddTerminal\",\"anonymous\":false},{\"inputs\":[{\"internalType\":\"address\",\"name\":\"previousOwner\",\"type\":\"address\",\"indexed\":true},{\"internalType\":\"address\",\"name\":\"newOwner\",\"type\":\"address\",\"indexed\":true}],\"type\":\"event\",\"name\":\"OwnershipTransferred\",\"anonymous\":false},{\"inputs\":[{\"internalType\":\"uint256\",\"name\":\"projectId\",\"type\":\"uint256\",\"indexed\":true},{\"internalType\":\"contract IERC165\",\"name\":\"controller\",\"type\":\"address\",\"indexed\":true},{\"internalType\":\"address\",\"name\":\"caller\",\"type\":\"address\",\"indexed\":false}],\"type\":\"event\",\"name\":\"SetController\",\"anonymous\":false},{\"inputs\":[{\"internalType\":\"address\",\"name\":\"addr\",\"type\":\"address\",\"indexed\":true},{\"internalType\":\"bool\",\"name\":\"flag\",\"type\":\"bool\",\"indexed\":true},{\"internalType\":\"address\",\"name\":\"caller\",\"type\":\"address\",\"indexed\":false}],\"type\":\"event\",\"name\":\"SetIsAllowedToSetFirstController\",\"anonymous\":false},{\"inputs\":[{\"internalType\":\"uint256\",\"name\":\"projectId\",\"type\":\"uint256\",\"indexed\":true},{\"internalType\":\"address\",\"name\":\"token\",\"type\":\"address\",\"indexed\":true},{\"internalType\":\"contract IJBTerminal\",\"name\":\"terminal\",\"type\":\"address\",\"indexed\":true},{\"internalType\":\"address\",\"name\":\"caller\",\"type\":\"address\",\"indexed\":false}],\"type\":\"event\",\"name\":\"SetPrimaryTerminal\",\"anonymous\":false},{\"inputs\":[{\"internalType\":\"uint256\",\"name\":\"projectId\",\"type\":\"uint256\",\"indexed\":true},{\"internalType\":\"contract IJBTerminal[]\",\"name\":\"terminals\",\"type\":\"address[]\",\"indexed\":false},{\"internalType\":\"address\",\"name\":\"caller\",\"type\":\"address\",\"indexed\":false}],\"type\":\"event\",\"name\":\"SetTerminals\",\"anonymous\":false},{\"inputs\":[],\"stateMutability\":\"view\",\"type\":\"function\",\"name\":\"PERMISSIONS\",\"outputs\":[{\"internalType\":\"contract IJBPermissions\",\"name\":\"\",\"type\":\"address\"}]},{\"inputs\":[],\"stateMutability\":\"view\",\"type\":\"function\",\"name\":\"PROJECTS\",\"outputs\":[{\"internalType\":\"contract IJBProjects\",\"name\":\"\",\"type\":\"address\"}]},{\"inputs\":[{\"internalType\":\"uint256\",\"name\":\"projectId\",\"type\":\"uint256\"}],\"stateMutability\":\"view\",\"type\":\"function\",\"name\":\"controllerOf\",\"outputs\":[{\"internalType\":\"contract IERC165\",\"name\":\"\",\"type\":\"address\"}]},{\"inputs\":[{\"internalType\":\"address\",\"name\":\"addr\",\"type\":\"address\"}],\"stateMutability\":\"view\",\"type\":\"function\",\"name\":\"isAllowedToSetFirstController\",\"outputs\":[{\"internalType\":\"bool\",\"name\":\"\",\"type\":\"bool\"}]},{\"inputs\":[{\"internalType\":\"uint256\",\"name\":\"projectId\",\"type\":\"uint256\"},{\"internalType\":\"contract IJBTerminal\",\"name\":\"terminal\",\"type\":\"address\"}],\"stateMutability\":\"view\",\"type\":\"function\",\"name\":\"isTerminalOf\",\"outputs\":[{\"internalType\":\"bool\",\"name\":\"\",\"type\":\"bool\"}]},{\"inputs\":[],\"stateMutability\":\"view\",\"type\":\"function\",\"name\":\"owner\",\"outputs\":[{\"internalType\":\"address\",\"name\":\"\",\"type\":\"address\"}]},{\"inputs\":[{\"internalType\":\"uint256\",\"name\":\"projectId\",\"type\":\"uint256\"},{\"internalType\":\"address\",\"name\":\"token\",\"type\":\"address\"}],\"stateMutability\":\"view\",\"type\":\"function\",\"name\":\"primaryTerminalOf\",\"outputs\":[{\"internalType\":\"contract IJBTerminal\",\"name\":\"\",\"type\":\"address\"}]},{\"inputs\":[],\"stateMutability\":\"nonpayable\",\"type\":\"function\",\"name\":\"renounceOwnership\"},{\"inputs\":[{\"internalType\":\"uint256\",\"name\":\"projectId\",\"type\":\"uint256\"},{\"internalType\":\"contract IERC165\",\"name\":\"controller\",\"type\":\"address\"}],\"stateMutability\":\"nonpayable\",\"type\":\"function\",\"name\":\"setControllerOf\"},{\"inputs\":[{\"internalType\":\"address\",\"name\":\"addr\",\"type\":\"address\"},{\"internalType\":\"bool\",\"name\":\"flag\",\"type\":\"bool\"}],\"stateMutability\":\"nonpayable\",\"type\":\"function\",\"name\":\"setIsAllowedToSetFirstController\"},{\"inputs\":[{\"internalType\":\"uint256\",\"name\":\"projectId\",\"type\":\"uint256\"},{\"internalType\":\"address\",\"name\":\"token\",\"type\":\"address\"},{\"internalType\":\"contract IJBTerminal\",\"name\":\"terminal\",\"type\":\"address\"}],\"stateMutability\":\"nonpayable\",\"type\":\"function\",\"name\":\"setPrimaryTerminalOf\"},{\"inputs\":[{\"internalType\":\"uint256\",\"name\":\"projectId\",\"type\":\"uint256\"},{\"internalType\":\"contract IJBTerminal[]\",\"name\":\"terminals\",\"type\":\"address[]\"}],\"stateMutability\":\"nonpayable\",\"type\":\"function\",\"name\":\"setTerminalsOf\"},{\"inputs\":[{\"internalType\":\"uint256\",\"name\":\"projectId\",\"type\":\"uint256\"}],\"stateMutability\":\"view\",\"type\":\"function\",\"name\":\"terminalsOf\",\"outputs\":[{\"internalType\":\"contract IJBTerminal[]\",\"name\":\"\",\"type\":\"address[]\"}]},{\"inputs\":[{\"internalType\":\"address\",\"name\":\"newOwner\",\"type\":\"address\"}],\"stateMutability\":\"nonpayable\",\"type\":\"function\",\"name\":\"transferOwnership\"}],\"devdoc\":{\"kind\":\"dev\",\"methods\":{\"constructor\":{\"params\":{\"owner\":\"The address that will own the contract.\",\"permissions\":\"A contract storing permissions.\",\"projects\":\"A contract which mints ERC-721s that represent project ownership and transfers.\"}},\"isTerminalOf(uint256,address)\":{\"params\":{\"projectId\":\"The ID of the project to check.\",\"terminal\":\"The terminal to check for.\"},\"returns\":{\"_0\":\"A flag indicating whether the project uses the terminal.\"}},\"owner()\":{\"details\":\"Returns the address of the current owner.\"},\"primaryTerminalOf(uint256,address)\":{\"details\":\"Returns the first terminal that accepts the token if the project hasn't explicitly set a primary terminal for it.Returns the zero address if no terminal accepts the token.\",\"params\":{\"projectId\":\"The ID of the project to get the primary terminal of.\",\"token\":\"The token that the terminal accepts.\"},\"returns\":{\"_0\":\"The primary terminal's address.\"}},\"renounceOwnership()\":{\"details\":\"Leaves the contract without owner. It will not be possible to call `onlyOwner` functions. Can only be called by the current owner. NOTE: Renouncing ownership will leave the contract without an owner, thereby disabling any functionality that is only available to the owner.\"},\"setControllerOf(uint256,address)\":{\"details\":\"Can only be called if: - The ruleset's metadata has `allowSetController` enabled, and the message's sender is the project's owner or an address with the owner's permission to `SET_CONTROLLER`. - OR the message's sender is the project's current controller. - OR an address which `isAllowedToSetFirstController` is setting a project's first controller.\",\"params\":{\"controller\":\"The address of the controller to set.\",\"projectId\":\"The ID of the project whose controller is being set.\"}},\"setIsAllowedToSetFirstController(address,bool)\":{\"details\":\"Only this contract's owner can call this function.These addresses are vetted controllers as well as contracts designed to launch new projects.A project can set its own controller without being on this list.If you would like to add an address/contract to this list, please reach out to this contract's owner.\",\"params\":{\"addr\":\"The address to allow or not allow.\",\"flag\":\"Whether the address is allowed to set first controllers for projects. Use `true` to allow and `false` to not allow.\"}},\"setPrimaryTerminalOf(uint256,address,address)\":{\"details\":\"The primary terminal for a token is where payments in that token are routed to by default.This is useful in cases where a project has multiple terminals which accept the same token.Can only be called by the project's owner, or an address with the owner's permission to `SET_PRIMARY_TERMINAL`.\",\"params\":{\"projectId\":\"The ID of the project whose primary terminal is being set.\",\"terminal\":\"The terminal being set as the primary terminal.\",\"token\":\"The token to set the primary terminal for.\"}},\"setTerminalsOf(uint256,address[])\":{\"details\":\"Can only be called by the project's owner, an address with the owner's permission to `SET_TERMINALS`, or the project's controller.Unless the caller is the project's controller, the project's ruleset must allow setting terminals.\",\"params\":{\"projectId\":\"The ID of the project whose terminals are being set.\",\"terminals\":\"An array of terminal addresses to set for the project.\"}},\"terminalsOf(uint256)\":{\"params\":{\"projectId\":\"The ID of the project to get the terminals of.\"},\"returns\":{\"_0\":\"An array of the project's terminal addresses.\"}},\"transferOwnership(address)\":{\"details\":\"Transfers ownership of the contract to a new account (`newOwner`). Can only be called by the current owner.\"}},\"version\":1},\"userdoc\":{\"kind\":\"user\",\"methods\":{\"PERMISSIONS()\":{\"notice\":\"A contract storing permissions.\"},\"PROJECTS()\":{\"notice\":\"Mints ERC-721s that represent project ownership and transfers.\"},\"controllerOf(uint256)\":{\"notice\":\"The specified project's controller, which dictates how its terminals interact with its tokens and rulesets.\"},\"isAllowedToSetFirstController(address)\":{\"notice\":\"Whether the specified address is allowed to set a project's first controller on their behalf.\"},\"isTerminalOf(uint256,address)\":{\"notice\":\"Check if a project uses a specific terminal.\"},\"primaryTerminalOf(uint256,address)\":{\"notice\":\"The primary terminal that a project uses for the specified token.\"},\"setControllerOf(uint256,address)\":{\"notice\":\"Set a project's controller. Controllers manage how terminals interact with tokens and rulesets.\"},\"setIsAllowedToSetFirstController(address,bool)\":{\"notice\":\"Add or remove an address/contract from a list of trusted addresses which are allowed to set a first controller for projects.\"},\"setPrimaryTerminalOf(uint256,address,address)\":{\"notice\":\"Set a project's primary terminal for a token.\"},\"setTerminalsOf(uint256,address[])\":{\"notice\":\"Set a project's terminals.\"},\"terminalsOf(uint256)\":{\"notice\":\"The specified project's terminals.\"}},\"version\":1}},\"settings\":{\"remappings\":[\"@bananapus/=node_modules/@bananapus/\",\"@chainlink/=node_modules/@chainlink/\",\"@eth-optimism/=node_modules/@eth-optimism/\",\"@openzeppelin/=node_modules/@openzeppelin/\",\"@prb/=node_modules/@prb/\",\"@scroll-tech/=node_modules/@scroll-tech/\",\"@sphinx-labs/contracts/=lib/sphinx/packages/contracts/contracts/foundry/\",\"@uniswap/=node_modules/@uniswap/\",\"ds-test/=lib/forge-std/lib/ds-test/src/\",\"forge-std/=lib/forge-std/src/\",\"hardhat/=node_modules/hardhat/\",\"solmate/=node_modules/solmate/\",\"sphinx/=lib/sphinx/\"],\"optimizer\":{\"enabled\":true,\"runs\":200},\"metadata\":{\"bytecodeHash\":\"ipfs\"},\"compilationTarget\":{\"src/JBDirectory.sol\":\"JBDirectory\"},\"evmVersion\":\"paris\",\"libraries\":{}},\"sources\":{\"node_modules/@bananapus/permission-ids/src/JBPermissionIds.sol\":{\"keccak256\":\"0xf61109f6b217a80d5e5391f548fb6f2e451f7dbee3fabfc04cf17e88722203bc\",\"urls\":[\"bzz-raw://ac776ab1cd621c22bd7973471acdfa187f3abc659ad9a3ef6ed10b6447dfcf9c\",\"dweb:/ipfs/QmYLbaHt68qcuMzkiKpe96jMjiWUq1F3u8yMhxmZ3pnnWu\"],\"license\":\"MIT\"},\"node_modules/@openzeppelin/contracts/access/Ownable.sol\":{\"keccak256\":\"0xff6d0bb2e285473e5311d9d3caacb525ae3538a80758c10649a4d61029b017bb\",\"urls\":[\"bzz-raw://8ed324d3920bb545059d66ab97d43e43ee85fd3bd52e03e401f020afb0b120f6\",\"dweb:/ipfs/QmfEckWLmZkDDcoWrkEvMWhms66xwTLff9DDhegYpvHo1a\"],\"license\":\"MIT\"},\"node_modules/@openzeppelin/contracts/token/ERC721/IERC721.sol\":{\"keccak256\":\"0x5ef46daa3b58ef2702279d514780316efaa952915ee1aa3396f041ee2982b0b4\",\"urls\":[\"bzz-raw://2f8f2a76e23b02fc69e8cd24c3cb47da6c7af3a2d6c3a382f8ac25c6e094ade7\",\"dweb:/ipfs/QmPV4ZS4tPVv4mTCf9ejyZ1ai57EEibDRj7mN2ARDCLV5n\"],\"license\":\"MIT\"},\"node_modules/@openzeppelin/contracts/utils/Context.sol\":{\"keccak256\":\"0x493033a8d1b176a037b2cc6a04dad01a5c157722049bbecf632ca876224dd4b2\",\"urls\":[\"bzz-raw://6a708e8a5bdb1011c2c381c9a5cfd8a9a956d7d0a9dc1bd8bcdaf52f76ef2f12\",\"dweb:/ipfs/Qmax9WHBnVsZP46ZxEMNRQpLQnrdE4dK8LehML1Py8FowF\"],\"license\":\"MIT\"},\"node_modules/@openzeppelin/contracts/utils/introspection/IERC165.sol\":{\"keccak256\":\"0x4296879f55019b23e135000eb36896057e7101fb7fb859c5ef690cf14643757b\",\"urls\":[\"bzz-raw://87b3541437c8c443ccd36795e56a338ed12855eec17f8da624511b8d1a7e14df\",\"dweb:/ipfs/QmeJQCtZrQjtJLr6u7ZHWeH3pBnjtLWzvRrKViAi7UZqxL\"],\"license\":\"MIT\"},\"src/JBDirectory.sol\":{\"keccak256\":\"0x08563875685f8fd604222f93462f8e9b475ba716fc289ab4a427632d0e25bb64\",\"urls\":[\"bzz-raw://0b1f2c20d4a29dd508fae9d089f185d7c8cb32543d04652da546bf7b1aa167a3\",\"dweb:/ipfs/QmPmcqZrybGottboAaYn7Seir8dbzABPYMSATFPnL9DDY2\"],\"license\":\"MIT\"},\"src/abstract/JBPermissioned.sol\":{\"keccak256\":\"0xe08c8a7eeac9d1c7c2e0db6d5b98d1af09889300835a3d47d9f29319fecce703\",\"urls\":[\"bzz-raw://42645cf52bcc45053ef650790916faed5d0a74cecef336b217433fdd2c5c4166\",\"dweb:/ipfs/QmdMmxG1tSGucQwz4LYbVnuj7HU23YvqLH6xfrNWv5Bmus\"],\"license\":\"MIT\"},\"src/interfaces/IJBDirectory.sol\":{\"keccak256\":\"0x9cc380844aef60078ee47a61861e55a29c4a8c947efd556ebd36e6909f7b9d62\",\"urls\":[\"bzz-raw://9f5190ec8b6683d9781ee6e9eedcc91294753242748875d4a06349077e4cbaaf\",\"dweb:/ipfs/QmTQrPuXT9TCA4txwrperMeXSGvGxP8iokUK47f62F388i\"],\"license\":\"MIT\"},\"src/interfaces/IJBDirectoryAccessControl.sol\":{\"keccak256\":\"0x1e67f56849320a46f834aaa9bd62b170ff8ada7b224b4a81136193740fa0be4d\",\"urls\":[\"bzz-raw://ea8fbcec44abfe49d137bcae129b67e5479d6b17879301f88534c8a7fab00be4\",\"dweb:/ipfs/QmT6wrtYX4GRpffHUzupNwYebJ1dqkkKZLEewWsoyunsqw\"],\"license\":\"MIT\"},\"src/interfaces/IJBPayHook.sol\":{\"keccak256\":\"0x9438866782c652c2942f4d114e35f393cd3c8b0334abce8387eed90bca35e8b2\",\"urls\":[\"bzz-raw://cfd99daf57213f92325aad7d7d16e98476d38e870470e95ba01e3ae3cdecc95d\",\"dweb:/ipfs/QmUKKAVGf7ki8BHksr99tFcRW8APveeB5tNH63ctTbbCW8\"],\"license\":\"MIT\"},\"src/interfaces/IJBPermissioned.sol\":{\"keccak256\":\"0x5b038d4dee116584e88b230920e56d48e135053e3f7e5642eaea14a775c1dad7\",\"urls\":[\"bzz-raw://19e43102f349fd4a1da1c0943ffb8f2950007fe4bb4bb7e8f74fc142575d091b\",\"dweb:/ipfs/QmXHAt4KzDTdDZgDDefEXH2WKi7NcfkJb9R7nxW5uDqsNp\"],\"license\":\"MIT\"},\"src/interfaces/IJBPermissions.sol\":{\"keccak256\":\"0x18870e500edf0fbadc353e273a5574701fb80466376b908c65e7cc3f11044d4d\",\"urls\":[\"bzz-raw://352a47c45853aec80e7acf0d286ade3106eb4cb456776b28a3c2f3f1091bed90\",\"dweb:/ipfs/QmQeYd3YbudYZy2hfbfht9kwhxhw4tuuLKMEYy9UY6dcSy\"],\"license\":\"MIT\"},\"src/interfaces/IJBProjects.sol\":{\"keccak256\":\"0x735c2fb8f1fa827f054ee77f7a0ae4b312656217acb75b624d2c8fd9dc40151b\",\"urls\":[\"bzz-raw://ee7fc92299a8633a80693ae63ab494dcd125f1789487a54a39dc0e5696e5996f\",\"dweb:/ipfs/QmX7YJD4pS2XhgQb7p3JbBAXynT7YGPXcZe92BiWWRrsCL\"],\"license\":\"MIT\"},\"src/interfaces/IJBTerminal.sol\":{\"keccak256\":\"0x19dc9bf8cbdc8f13ee5da9dc3a87047eacb94a3fc19740a286c1f0bad2cc39ca\",\"urls\":[\"bzz-raw://0b05ae6fda9a85672508232fd992b8a5f5ffd8096622eeb12c8a7b3317eb3867\",\"dweb:/ipfs/QmNh9Quj37BXYGdTdcCD1Q58PchRsE5TLbEZep56qS3MpV\"],\"license\":\"MIT\"},\"src/interfaces/IJBTokenUriResolver.sol\":{\"keccak256\":\"0xfa5cb00dcd6085d1ef912d071fe73c63f9478a2cd0f9d8bddaf659b6af2d0967\",\"urls\":[\"bzz-raw://282e4e7c342d65f77cde0e9a08fcaf20ef5cf379c7a48b639842c0ffd0b2afb8\",\"dweb:/ipfs/QmbnN3PEQeZaXdPLT75V1J79kMg7KqSMru37RHrL3z8Yf2\"],\"license\":\"MIT\"},\"src/structs/JBAccountingContext.sol\":{\"keccak256\":\"0x2907ff54d1e903cc7e0390dd88c3975884702dc2673642aacbe22b66560b56de\",\"urls\":[\"bzz-raw://a66a5381ce877b32f0e0058ceeaf843e9b6b2bc8af666c0c9f4a9d01091da004\",\"dweb:/ipfs/QmQynCetUr37dBkS1YwDS8evxuXGiqanW6THmeUxXtim8w\"],\"license\":\"MIT\"},\"src/structs/JBAfterPayRecordedContext.sol\":{\"keccak256\":\"0xd26c3a774ff38be79064085970454fe2603a23a638c76270d5b1b3829206c3e8\",\"urls\":[\"bzz-raw://3b55dbe3bf1ef625b7ca04efab3de35406e6041d5b3d82c7265469c500e2b702\",\"dweb:/ipfs/QmUdBDo4Lt3mcsFcsXT2mqq3czFwZjQJFPLM89YA2VtD7k\"],\"license\":\"MIT\"},\"src/structs/JBPermissionsData.sol\":{\"keccak256\":\"0x8f0f69a6ebf5f3704e3dfcb3712fb9d3f94ae7c1ab89bf3e37bad42a3e7a0487\",\"urls\":[\"bzz-raw://57b0c5e52843e2217082889ed47b4da3943e0da4590d5768dcebfe3edad4a6b8\",\"dweb:/ipfs/QmRz48vuWLw81kUP836rh1qzqWiJFGbksgRUA9xGEDNKTY\"],\"license\":\"MIT\"},\"src/structs/JBTokenAmount.sol\":{\"keccak256\":\"0x5cf0626b73a596c1e2da17c89ae039a7c0374310b060d48568d3b6c11fbe6180\",\"urls\":[\"bzz-raw://63348b50be95e2995409394a17caffc563a646f0972650a1230bf864fbd3219b\",\"dweb:/ipfs/QmZXZpS3SbFD5nWaCauf6AqbEhLURv5qsKHpThBvQgDU6u\"],\"license\":\"MIT\"}},\"version\":1}",
			"args": [
				"0x6B8340b759d72E08b3fb674B48547E80631007cb",
				"0x2ca466eB84DD69A99E25d10BBbdA6e1B3c562c49",
				"0x1081B5AA9D9d4862A3dA4d469433FB36Ed80FA2A"
			],
			"bytecode": "0x60c06040523480156200001157600080fd5b5060405162001654380380620016548339810160408190526200003491620000f4565b6001600160a01b03808416608052819081166200006b57604051631e4fbdf760e01b81526000600482015260240160405180910390fd5b62000076816200008b565b50506001600160a01b031660a0525062000148565b600080546001600160a01b038381166001600160a01b0319831681178455604051919092169283917f8be0079c531659141344cd1fd0a4f28419497f9722a3daafe3b4186f6b6457e09190a35050565b6001600160a01b0381168114620000f157600080fd5b50565b6000806000606084860312156200010a57600080fd5b83516200011781620000db565b60208501519093506200012a81620000db565b60408501519092506200013d81620000db565b809150509250925092565b60805160a0516114bd620001976000396000818160f401528181610290015281816104be0152818161057201526107cd01526000818161025401528181610d470152610df001526114bd6000f3fe608060405234801561001057600080fd5b50600436106100ea5760003560e01c8063862026501161008c578063c5664e2111610066578063c5664e21146101f9578063d17541531461021c578063f2fde38b1461023c578063f434c9141461024f57600080fd5b806386202650146101c25780638da5cb5b146101d5578063a1ed3175146101e657600080fd5b80636e49181f116100c85780636e49181f14610171578063714e7f3214610194578063715018a6146101a7578063821b9fd8146101af57600080fd5b8063293c4999146100ef5780635dd8f6aa1461013357806363d0850a1461015c575b600080fd5b6101167f000000000000000000000000000000000000000000000000000000000000000081565b6040516001600160a01b0390911681526020015b60405180910390f35b61011661014136600461113f565b6001602052600090815260409020546001600160a01b031681565b61016f61016a36600461116d565b610276565b005b61018461017f3660046111af565b610425565b604051901515815260200161012a565b61016f6101a23660046111af565b6104a4565b61016f61079f565b61016f6101bd3660046111df565b6107b3565b6101166101d03660046111af565b610ab8565b6000546001600160a01b0316610116565b61016f6101f436600461126c565b610be4565b61018461020736600461129a565b60026020526000908152604090205460ff1681565b61022f61022a36600461113f565b610c4e565b60405161012a91906112be565b61016f61024a36600461129a565b610cba565b6101167f000000000000000000000000000000000000000000000000000000000000000081565b6040516331a9108f60e11b81526004810184905261030b907f00000000000000000000000000000000000000000000000000000000000000006001600160a01b031690636352211e90602401602060405180830381865afa1580156102df573d6000803e3d6000fd5b505050506040513d601f19601f82011682018060405250810190610303919061130b565b84600f610cfd565b604051633a01714f60e01b8152600481018490526001600160a01b03838116602483015260009190831690633a01714f90604401606060405180830381865afa15801561035c573d6000803e3d6000fd5b505050506040513d601f19601f820116820180604052508101906103809190611328565b516001600160a01b0316036103a857604051630faa917b60e11b815260040160405180910390fd5b6103b28382610e81565b60008381526004602090815260408083206001600160a01b038681168086529184529382902080546001600160a01b03191694861694851790559051338152909186917fc670a502bbb9f8a4315f95eca901a9f99b65f89a2eb5705a58050e5c00f9d672910160405180910390a4505050565b600082815260036020526040812054815b8181101561049757600085815260036020526040902080546001600160a01b03861691908390811061046a5761046a6113b7565b6000918252602090912001546001600160a01b03160361048f5760019250505061049e565b600101610436565b5060009150505b92915050565b6040516331a9108f60e11b81526004810183905261056f907f00000000000000000000000000000000000000000000000000000000000000006001600160a01b031690636352211e90602401602060405180830381865afa15801561050d573d6000803e3d6000fd5b505050506040513d601f19601f82011682018060405250810190610531919061130b565b336000908152600260205260409020548490600d9060ff16801561056a57506000868152600160205260409020546001600160a01b0316155b61103a565b817f00000000000000000000000000000000000000000000000000000000000000006001600160a01b03166306661abd6040518163ffffffff1660e01b8152600401602060405180830381865afa1580156105ce573d6000803e3d6000fd5b505050506040513d601f19601f820116820180604052508101906105f291906113cd565b101561061157604051634a283a5360e11b815260040160405180910390fd5b6000828152600160205260408120546001600160a01b0316908115806106a357506040516301ffc9a760e01b8152632877540760e01b60048201526001600160a01b038316906301ffc9a790602401602060405180830381865afa15801561067d573d6000803e3d6000fd5b505050506040513d601f19601f820116820180604052508101906106a191906113e6565b155b61071557604051632674968d60e21b8152600481018590526001600160a01b038316906399d25a3490602401602060405180830381865afa1580156106ec573d6000803e3d6000fd5b505050506040513d601f19601f8201168201806040525081019061071091906113e6565b610718565b60015b9050806107385760405163a33db4cb60e01b815260040160405180910390fd5b60008481526001602090815260409182902080546001600160a01b0319166001600160a01b038716908117909155915133815286917f7f9a7dcb234c909a09de2f344661ad9e5b24067adb97c908647c2edcbb121c3091015b60405180910390a350505050565b6107a761104a565b6107b16000611077565b565b6040516331a9108f60e11b815260048101849052610864907f00000000000000000000000000000000000000000000000000000000000000006001600160a01b031690636352211e90602401602060405180830381865afa15801561081c573d6000803e3d6000fd5b505050506040513d601f19601f82011682018060405250810190610840919061130b565b6000858152600160205260409020548590600e906001600160a01b0316331461103a565b6000838152600160205260408082205490516301ffc9a760e01b8152632877540760e01b60048201526001600160a01b03909116919082906301ffc9a790602401602060405180830381865afa1580156108c2573d6000803e3d6000fd5b505050506040513d601f19601f820116820180604052508101906108e691906113e6565b1580610956575060405163b1a50e3360e01b8152600481018690526001600160a01b0383169063b1a50e3390602401602060405180830381865afa158015610932573d6000803e3d6000fd5b505050506040513d601f19601f8201168201806040525081019061095691906113e6565b6000868152600160205260409020549091506001600160a01b0316331480159061097e575080155b1561099c576040516375fef35f60e11b815260040160405180910390fd5b60008581526003602052604090206109b59085856110c7565b50826001811115610a745760005b81811015610a725760006109d8826001611403565b90505b82811015610a69578686828181106109f5576109f56113b7565b9050602002016020810190610a0a919061129a565b6001600160a01b0316878784818110610a2557610a256113b7565b9050602002016020810190610a3a919061129a565b6001600160a01b031603610a6157604051633e3830ab60e11b815260040160405180910390fd5b6001016109db565b506001016109c3565b505b857fb648241d83df6540fc10f2acc641e4bf80a1e84e7ae2f1f6b0ad204b8fee635b868633604051610aa893929190611424565b60405180910390a2505050505050565b60008281526004602090815260408083206001600160a01b0380861685529252822054168015801590610af05750610af08482610425565b15610afc57905061049e565b600084815260036020526040812054905b81811015610bd8576000868152600360205260408120805483908110610b3557610b356113b7565b6000918252602082200154604051633a01714f60e01b8152600481018a90526001600160a01b03898116602483015290911692508290633a01714f90604401606060405180830381865afa158015610b91573d6000803e3d6000fd5b505050506040513d601f19601f82011682018060405250810190610bb59190611328565b516001600160a01b031614610bcf57935061049e92505050565b50600101610b0d565b50600095945050505050565b610bec61104a565b6001600160a01b038216600081815260026020908152604091829020805460ff191685151590811790915591513381529192917f11207664cc48b0fa81c8674795f1d8f642960f38d5d2d305ad813093bed85fab910160405180910390a35050565b600081815260036020908152604091829020805483518184028101840190945280845260609392830182828015610cae57602002820191906000526020600020905b81546001600160a01b03168152600190910190602001808311610c90575b50505050509050919050565b610cc261104a565b6001600160a01b038116610cf157604051631e4fbdf760e01b8152600060048201526024015b60405180910390fd5b610cfa81611077565b50565b336001600160a01b0384168114801590610db4575060405163c161c93f60e01b81526001600160a01b038281166004830152858116602483015260448201859052606482018490527f0000000000000000000000000000000000000000000000000000000000000000169063c161c93f90608401602060405180830381865afa158015610d8e573d6000803e3d6000fd5b505050506040513d601f19601f82011682018060405250810190610db291906113e6565b155b8015610e5d575060405163c161c93f60e01b81526001600160a01b038281166004830152858116602483015260006044830152606482018490527f0000000000000000000000000000000000000000000000000000000000000000169063c161c93f90608401602060405180830381865afa158015610e37573d6000803e3d6000fd5b505050506040513d601f19601f82011682018060405250810190610e5b91906113e6565b155b15610e7b5760405163075fd2b160e01b815260040160405180910390fd5b50505050565b610e8b8282610425565b15610e94575050565b6000828152600160205260408082205490516301ffc9a760e01b8152632877540760e01b60048201526001600160a01b03909116919082906301ffc9a790602401602060405180830381865afa158015610ef2573d6000803e3d6000fd5b505050506040513d601f19601f82011682018060405250810190610f1691906113e6565b1580610f86575060405163b1a50e3360e01b8152600481018590526001600160a01b0383169063b1a50e3390602401602060405180830381865afa158015610f62573d6000803e3d6000fd5b505050506040513d601f19601f82011682018060405250810190610f8691906113e6565b6000858152600160205260409020549091506001600160a01b03163314801590610fae575080155b15610fcc576040516375fef35f60e11b815260040160405180910390fd5b600084815260036020908152604080832080546001810182559084529282902090920180546001600160a01b0319166001600160a01b038716908117909155915133815286917f409bccc07b7cf7807930526a24318212d614c59f2dde05a017a41efee144e7c89101610791565b80610e7b57610e7b848484610cfd565b6000546001600160a01b031633146107b15760405163118cdaa760e01b8152336004820152602401610ce8565b600080546001600160a01b038381166001600160a01b0319831681178455604051919092169283917f8be0079c531659141344cd1fd0a4f28419497f9722a3daafe3b4186f6b6457e09190a35050565b82805482825590600052602060002090810192821561111a579160200282015b8281111561111a5781546001600160a01b0319166001600160a01b038435161782556020909201916001909101906110e7565b5061112692915061112a565b5090565b5b80821115611126576000815560010161112b565b60006020828403121561115157600080fd5b5035919050565b6001600160a01b0381168114610cfa57600080fd5b60008060006060848603121561118257600080fd5b83359250602084013561119481611158565b915060408401356111a481611158565b809150509250925092565b600080604083850312156111c257600080fd5b8235915060208301356111d481611158565b809150509250929050565b6000806000604084860312156111f457600080fd5b83359250602084013567ffffffffffffffff8082111561121357600080fd5b818601915086601f83011261122757600080fd5b81358181111561123657600080fd5b8760208260051b850101111561124b57600080fd5b6020830194508093505050509250925092565b8015158114610cfa57600080fd5b6000806040838503121561127f57600080fd5b823561128a81611158565b915060208301356111d48161125e565b6000602082840312156112ac57600080fd5b81356112b781611158565b9392505050565b6020808252825182820181905260009190848201906040850190845b818110156112ff5783516001600160a01b0316835292840192918401916001016112da565b50909695505050505050565b60006020828403121561131d57600080fd5b81516112b781611158565b60006060828403121561133a57600080fd5b6040516060810181811067ffffffffffffffff8211171561136b57634e487b7160e01b600052604160045260246000fd5b604052825161137981611158565b8152602083015160ff8116811461138f57600080fd5b6020820152604083015163ffffffff811681146113ab57600080fd5b60408201529392505050565b634e487b7160e01b600052603260045260246000fd5b6000602082840312156113df57600080fd5b5051919050565b6000602082840312156113f857600080fd5b81516112b78161125e565b8082018082111561049e57634e487b7160e01b600052601160045260246000fd5b6040808252810183905260008460608301825b8681101561146757823561144a81611158565b6001600160a01b0316825260209283019290910190600101611437565b506001600160a01b0394909416602093909301929092525090939250505056fea2646970667358221220cd22bf41610c854893081950d7c56d0f89b9d4000e5dc1a3d86c6391a7db805464736f6c63430008170033",
			"deployedBytecode": "0x608060405234801561001057600080fd5b50600436106100ea5760003560e01c8063862026501161008c578063c5664e2111610066578063c5664e21146101f9578063d17541531461021c578063f2fde38b1461023c578063f434c9141461024f57600080fd5b806386202650146101c25780638da5cb5b146101d5578063a1ed3175146101e657600080fd5b80636e49181f116100c85780636e49181f14610171578063714e7f3214610194578063715018a6146101a7578063821b9fd8146101af57600080fd5b8063293c4999146100ef5780635dd8f6aa1461013357806363d0850a1461015c575b600080fd5b6101167f0000000000000000000000002ca466eb84dd69a99e25d10bbbda6e1b3c562c4981565b6040516001600160a01b0390911681526020015b60405180910390f35b61011661014136600461113f565b6001602052600090815260409020546001600160a01b031681565b61016f61016a36600461116d565b610276565b005b61018461017f3660046111af565b610425565b604051901515815260200161012a565b61016f6101a23660046111af565b6104a4565b61016f61079f565b61016f6101bd3660046111df565b6107b3565b6101166101d03660046111af565b610ab8565b6000546001600160a01b0316610116565b61016f6101f436600461126c565b610be4565b61018461020736600461129a565b60026020526000908152604090205460ff1681565b61022f61022a36600461113f565b610c4e565b60405161012a91906112be565b61016f61024a36600461129a565b610cba565b6101167f0000000000000000000000006b8340b759d72e08b3fb674b48547e80631007cb81565b6040516331a9108f60e11b81526004810184905261030b907f0000000000000000000000002ca466eb84dd69a99e25d10bbbda6e1b3c562c496001600160a01b031690636352211e90602401602060405180830381865afa1580156102df573d6000803e3d6000fd5b505050506040513d601f19601f82011682018060405250810190610303919061130b565b84600f610cfd565b604051633a01714f60e01b8152600481018490526001600160a01b03838116602483015260009190831690633a01714f90604401606060405180830381865afa15801561035c573d6000803e3d6000fd5b505050506040513d601f19601f820116820180604052508101906103809190611328565b516001600160a01b0316036103a857604051630faa917b60e11b815260040160405180910390fd5b6103b28382610e81565b60008381526004602090815260408083206001600160a01b038681168086529184529382902080546001600160a01b03191694861694851790559051338152909186917fc670a502bbb9f8a4315f95eca901a9f99b65f89a2eb5705a58050e5c00f9d672910160405180910390a4505050565b600082815260036020526040812054815b8181101561049757600085815260036020526040902080546001600160a01b03861691908390811061046a5761046a6113b7565b6000918252602090912001546001600160a01b03160361048f5760019250505061049e565b600101610436565b5060009150505b92915050565b6040516331a9108f60e11b81526004810183905261056f907f0000000000000000000000002ca466eb84dd69a99e25d10bbbda6e1b3c562c496001600160a01b031690636352211e90602401602060405180830381865afa15801561050d573d6000803e3d6000fd5b505050506040513d601f19601f82011682018060405250810190610531919061130b565b336000908152600260205260409020548490600d9060ff16801561056a57506000868152600160205260409020546001600160a01b0316155b61103a565b817f0000000000000000000000002ca466eb84dd69a99e25d10bbbda6e1b3c562c496001600160a01b03166306661abd6040518163ffffffff1660e01b8152600401602060405180830381865afa1580156105ce573d6000803e3d6000fd5b505050506040513d601f19601f820116820180604052508101906105f291906113cd565b101561061157604051634a283a5360e11b815260040160405180910390fd5b6000828152600160205260408120546001600160a01b0316908115806106a357506040516301ffc9a760e01b8152632877540760e01b60048201526001600160a01b038316906301ffc9a790602401602060405180830381865afa15801561067d573d6000803e3d6000fd5b505050506040513d601f19601f820116820180604052508101906106a191906113e6565b155b61071557604051632674968d60e21b8152600481018590526001600160a01b038316906399d25a3490602401602060405180830381865afa1580156106ec573d6000803e3d6000fd5b505050506040513d601f19601f8201168201806040525081019061071091906113e6565b610718565b60015b9050806107385760405163a33db4cb60e01b815260040160405180910390fd5b60008481526001602090815260409182902080546001600160a01b0319166001600160a01b038716908117909155915133815286917f7f9a7dcb234c909a09de2f344661ad9e5b24067adb97c908647c2edcbb121c3091015b60405180910390a350505050565b6107a761104a565b6107b16000611077565b565b6040516331a9108f60e11b815260048101849052610864907f0000000000000000000000002ca466eb84dd69a99e25d10bbbda6e1b3c562c496001600160a01b031690636352211e90602401602060405180830381865afa15801561081c573d6000803e3d6000fd5b505050506040513d601f19601f82011682018060405250810190610840919061130b565b6000858152600160205260409020548590600e906001600160a01b0316331461103a565b6000838152600160205260408082205490516301ffc9a760e01b8152632877540760e01b60048201526001600160a01b03909116919082906301ffc9a790602401602060405180830381865afa1580156108c2573d6000803e3d6000fd5b505050506040513d601f19601f820116820180604052508101906108e691906113e6565b1580610956575060405163b1a50e3360e01b8152600481018690526001600160a01b0383169063b1a50e3390602401602060405180830381865afa158015610932573d6000803e3d6000fd5b505050506040513d601f19601f8201168201806040525081019061095691906113e6565b6000868152600160205260409020549091506001600160a01b0316331480159061097e575080155b1561099c576040516375fef35f60e11b815260040160405180910390fd5b60008581526003602052604090206109b59085856110c7565b50826001811115610a745760005b81811015610a725760006109d8826001611403565b90505b82811015610a69578686828181106109f5576109f56113b7565b9050602002016020810190610a0a919061129a565b6001600160a01b0316878784818110610a2557610a256113b7565b9050602002016020810190610a3a919061129a565b6001600160a01b031603610a6157604051633e3830ab60e11b815260040160405180910390fd5b6001016109db565b506001016109c3565b505b857fb648241d83df6540fc10f2acc641e4bf80a1e84e7ae2f1f6b0ad204b8fee635b868633604051610aa893929190611424565b60405180910390a2505050505050565b60008281526004602090815260408083206001600160a01b0380861685529252822054168015801590610af05750610af08482610425565b15610afc57905061049e565b600084815260036020526040812054905b81811015610bd8576000868152600360205260408120805483908110610b3557610b356113b7565b6000918252602082200154604051633a01714f60e01b8152600481018a90526001600160a01b03898116602483015290911692508290633a01714f90604401606060405180830381865afa158015610b91573d6000803e3d6000fd5b505050506040513d601f19601f82011682018060405250810190610bb59190611328565b516001600160a01b031614610bcf57935061049e92505050565b50600101610b0d565b50600095945050505050565b610bec61104a565b6001600160a01b038216600081815260026020908152604091829020805460ff191685151590811790915591513381529192917f11207664cc48b0fa81c8674795f1d8f642960f38d5d2d305ad813093bed85fab910160405180910390a35050565b600081815260036020908152604091829020805483518184028101840190945280845260609392830182828015610cae57602002820191906000526020600020905b81546001600160a01b03168152600190910190602001808311610c90575b50505050509050919050565b610cc261104a565b6001600160a01b038116610cf157604051631e4fbdf760e01b8152600060048201526024015b60405180910390fd5b610cfa81611077565b50565b336001600160a01b0384168114801590610db4575060405163c161c93f60e01b81526001600160a01b038281166004830152858116602483015260448201859052606482018490527f0000000000000000000000006b8340b759d72e08b3fb674b48547e80631007cb169063c161c93f90608401602060405180830381865afa158015610d8e573d6000803e3d6000fd5b505050506040513d601f19601f82011682018060405250810190610db291906113e6565b155b8015610e5d575060405163c161c93f60e01b81526001600160a01b038281166004830152858116602483015260006044830152606482018490527f0000000000000000000000006b8340b759d72e08b3fb674b48547e80631007cb169063c161c93f90608401602060405180830381865afa158015610e37573d6000803e3d6000fd5b505050506040513d601f19601f82011682018060405250810190610e5b91906113e6565b155b15610e7b5760405163075fd2b160e01b815260040160405180910390fd5b50505050565b610e8b8282610425565b15610e94575050565b6000828152600160205260408082205490516301ffc9a760e01b8152632877540760e01b60048201526001600160a01b03909116919082906301ffc9a790602401602060405180830381865afa158015610ef2573d6000803e3d6000fd5b505050506040513d601f19601f82011682018060405250810190610f1691906113e6565b1580610f86575060405163b1a50e3360e01b8152600481018590526001600160a01b0383169063b1a50e3390602401602060405180830381865afa158015610f62573d6000803e3d6000fd5b505050506040513d601f19601f82011682018060405250810190610f8691906113e6565b6000858152600160205260409020549091506001600160a01b03163314801590610fae575080155b15610fcc576040516375fef35f60e11b815260040160405180910390fd5b600084815260036020908152604080832080546001810182559084529282902090920180546001600160a01b0319166001600160a01b038716908117909155915133815286917f409bccc07b7cf7807930526a24318212d614c59f2dde05a017a41efee144e7c89101610791565b80610e7b57610e7b848484610cfd565b6000546001600160a01b031633146107b15760405163118cdaa760e01b8152336004820152602401610ce8565b600080546001600160a01b038381166001600160a01b0319831681178455604051919092169283917f8be0079c531659141344cd1fd0a4f28419497f9722a3daafe3b4186f6b6457e09190a35050565b82805482825590600052602060002090810192821561111a579160200282015b8281111561111a5781546001600160a01b0319166001600160a01b038435161782556020909201916001909101906110e7565b5061112692915061112a565b5090565b5b80821115611126576000815560010161112b565b60006020828403121561115157600080fd5b5035919050565b6001600160a01b0381168114610cfa57600080fd5b60008060006060848603121561118257600080fd5b83359250602084013561119481611158565b915060408401356111a481611158565b809150509250925092565b600080604083850312156111c257600080fd5b8235915060208301356111d481611158565b809150509250929050565b6000806000604084860312156111f457600080fd5b83359250602084013567ffffffffffffffff8082111561121357600080fd5b818601915086601f83011261122757600080fd5b81358181111561123657600080fd5b8760208260051b850101111561124b57600080fd5b6020830194508093505050509250925092565b8015158114610cfa57600080fd5b6000806040838503121561127f57600080fd5b823561128a81611158565b915060208301356111d48161125e565b6000602082840312156112ac57600080fd5b81356112b781611158565b9392505050565b6020808252825182820181905260009190848201906040850190845b818110156112ff5783516001600160a01b0316835292840192918401916001016112da565b50909695505050505050565b60006020828403121561131d57600080fd5b81516112b781611158565b60006060828403121561133a57600080fd5b6040516060810181811067ffffffffffffffff8211171561136b57634e487b7160e01b600052604160045260246000fd5b604052825161137981611158565b8152602083015160ff8116811461138f57600080fd5b6020820152604083015163ffffffff811681146113ab57600080fd5b60408201529392505050565b634e487b7160e01b600052603260045260246000fd5b6000602082840312156113df57600080fd5b5051919050565b6000602082840312156113f857600080fd5b81516112b78161125e565b8082018082111561049e57634e487b7160e01b600052601160045260246000fd5b6040808252810183905260008460608301825b8681101561146757823561144a81611158565b6001600160a01b0316825260209283019290910190600101611437565b506001600160a01b0394909416602093909301929092525090939250505056fea2646970667358221220cd22bf41610c854893081950d7c56d0f89b9d4000e5dc1a3d86c6391a7db805464736f6c63430008170033",
			"devdoc": {
				"kind": "dev",
				"methods": {
					"constructor": {
						"params": {
							"owner": "The address that will own the contract.",
							"permissions": "A contract storing permissions.",
							"projects": "A contract which mints ERC-721s that represent project ownership and transfers."
						}
					},
					"isTerminalOf(uint256,address)": {
						"params": {
							"projectId": "The ID of the project to check.",
							"terminal": "The terminal to check for."
						},
						"returns": {
							"_0": "A flag indicating whether the project uses the terminal."
						}
					},
					"owner()": {
						"details": "Returns the address of the current owner."
					},
					"primaryTerminalOf(uint256,address)": {
						"details": "Returns the first terminal that accepts the token if the project hasn't explicitly set a primary terminal for it.Returns the zero address if no terminal accepts the token.",
						"params": {
							"projectId": "The ID of the project to get the primary terminal of.",
							"token": "The token that the terminal accepts."
						},
						"returns": {
							"_0": "The primary terminal's address."
						}
					},
					"renounceOwnership()": {
						"details": "Leaves the contract without owner. It will not be possible to call `onlyOwner` functions. Can only be called by the current owner. NOTE: Renouncing ownership will leave the contract without an owner, thereby disabling any functionality that is only available to the owner."
					},
					"setControllerOf(uint256,address)": {
						"details": "Can only be called if: - The ruleset's metadata has `allowSetController` enabled, and the message's sender is the project's owner or an address with the owner's permission to `SET_CONTROLLER`. - OR the message's sender is the project's current controller. - OR an address which `isAllowedToSetFirstController` is setting a project's first controller.",
						"params": {
							"controller": "The address of the controller to set.",
							"projectId": "The ID of the project whose controller is being set."
						}
					},
					"setIsAllowedToSetFirstController(address,bool)": {
						"details": "Only this contract's owner can call this function.These addresses are vetted controllers as well as contracts designed to launch new projects.A project can set its own controller without being on this list.If you would like to add an address/contract to this list, please reach out to this contract's owner.",
						"params": {
							"addr": "The address to allow or not allow.",
							"flag": "Whether the address is allowed to set first controllers for projects. Use `true` to allow and `false` to not allow."
						}
					},
					"setPrimaryTerminalOf(uint256,address,address)": {
						"details": "The primary terminal for a token is where payments in that token are routed to by default.This is useful in cases where a project has multiple terminals which accept the same token.Can only be called by the project's owner, or an address with the owner's permission to `SET_PRIMARY_TERMINAL`.",
						"params": {
							"projectId": "The ID of the project whose primary terminal is being set.",
							"terminal": "The terminal being set as the primary terminal.",
							"token": "The token to set the primary terminal for."
						}
					},
					"setTerminalsOf(uint256,address[])": {
						"details": "Can only be called by the project's owner, an address with the owner's permission to `SET_TERMINALS`, or the project's controller.Unless the caller is the project's controller, the project's ruleset must allow setting terminals.",
						"params": {
							"projectId": "The ID of the project whose terminals are being set.",
							"terminals": "An array of terminal addresses to set for the project."
						}
					},
					"terminalsOf(uint256)": {
						"params": {
							"projectId": "The ID of the project to get the terminals of."
						},
						"returns": {
							"_0": "An array of the project's terminal addresses."
						}
					},
					"transferOwnership(address)": {
						"details": "Transfers ownership of the contract to a new account (`newOwner`). Can only be called by the current owner."
					}
				},
				"version": 1
			},
			"userdoc": {
				"kind": "user",
				"methods": {
					"PERMISSIONS()": {
						"notice": "A contract storing permissions."
					},
					"PROJECTS()": {
						"notice": "Mints ERC-721s that represent project ownership and transfers."
					},
					"controllerOf(uint256)": {
						"notice": "The specified project's controller, which dictates how its terminals interact with its tokens and rulesets."
					},
					"isAllowedToSetFirstController(address)": {
						"notice": "Whether the specified address is allowed to set a project's first controller on their behalf."
					},
					"isTerminalOf(uint256,address)": {
						"notice": "Check if a project uses a specific terminal."
					},
					"primaryTerminalOf(uint256,address)": {
						"notice": "The primary terminal that a project uses for the specified token."
					},
					"setControllerOf(uint256,address)": {
						"notice": "Set a project's controller. Controllers manage how terminals interact with tokens and rulesets."
					},
					"setIsAllowedToSetFirstController(address,bool)": {
						"notice": "Add or remove an address/contract from a list of trusted addresses which are allowed to set a first controller for projects."
					},
					"setPrimaryTerminalOf(uint256,address,address)": {
						"notice": "Set a project's primary terminal for a token."
					},
					"setTerminalsOf(uint256,address[])": {
						"notice": "Set a project's terminals."
					},
					"terminalsOf(uint256)": {
						"notice": "The specified project's terminals."
					}
				},
				"version": 1
			},
			"gitCommit": "cfb1d4cd4e79bed840a9c8fcd17a0f397da3e3bf",
			"sourceName": "src/JBDirectory.sol",
			"chainId": "11155111",
			"linkReferences": {},
			"deployedLinkReferences": {}
		},
		{
			"_format": "sphinx-sol-ct-artifact-1",
			"merkleRoot": "0x11830f0fb7ad6b482466bf66cc24181095df70d9395bc2c496d5a5bd11e611a7",
			"contractName": "JBDirectory",
			"address": "0xc9cb7a0BAB7569b5B6De26A679D107D4D412B349",
			"abi": [
				{
					"type": "constructor",
					"inputs": [
						{
							"name": "permissions",
							"type": "address",
							"internalType": "contract IJBPermissions"
						},
						{
							"name": "projects",
							"type": "address",
							"internalType": "contract IJBProjects"
						},
						{
							"name": "owner",
							"type": "address",
							"internalType": "address"
						}
					],
					"stateMutability": "nonpayable"
				},
				{
					"type": "function",
					"name": "PERMISSIONS",
					"inputs": [],
					"outputs": [
						{
							"name": "",
							"type": "address",
							"internalType": "contract IJBPermissions"
						}
					],
					"stateMutability": "view"
				},
				{
					"type": "function",
					"name": "PROJECTS",
					"inputs": [],
					"outputs": [
						{
							"name": "",
							"type": "address",
							"internalType": "contract IJBProjects"
						}
					],
					"stateMutability": "view"
				},
				{
					"type": "function",
					"name": "controllerOf",
					"inputs": [
						{
							"name": "projectId",
							"type": "uint256",
							"internalType": "uint256"
						}
					],
					"outputs": [
						{
							"name": "",
							"type": "address",
							"internalType": "contract IERC165"
						}
					],
					"stateMutability": "view"
				},
				{
					"type": "function",
					"name": "isAllowedToSetFirstController",
					"inputs": [
						{
							"name": "addr",
							"type": "address",
							"internalType": "address"
						}
					],
					"outputs": [
						{
							"name": "",
							"type": "bool",
							"internalType": "bool"
						}
					],
					"stateMutability": "view"
				},
				{
					"type": "function",
					"name": "isTerminalOf",
					"inputs": [
						{
							"name": "projectId",
							"type": "uint256",
							"internalType": "uint256"
						},
						{
							"name": "terminal",
							"type": "address",
							"internalType": "contract IJBTerminal"
						}
					],
					"outputs": [
						{
							"name": "",
							"type": "bool",
							"internalType": "bool"
						}
					],
					"stateMutability": "view"
				},
				{
					"type": "function",
					"name": "owner",
					"inputs": [],
					"outputs": [
						{
							"name": "",
							"type": "address",
							"internalType": "address"
						}
					],
					"stateMutability": "view"
				},
				{
					"type": "function",
					"name": "primaryTerminalOf",
					"inputs": [
						{
							"name": "projectId",
							"type": "uint256",
							"internalType": "uint256"
						},
						{
							"name": "token",
							"type": "address",
							"internalType": "address"
						}
					],
					"outputs": [
						{
							"name": "",
							"type": "address",
							"internalType": "contract IJBTerminal"
						}
					],
					"stateMutability": "view"
				},
				{
					"type": "function",
					"name": "renounceOwnership",
					"inputs": [],
					"outputs": [],
					"stateMutability": "nonpayable"
				},
				{
					"type": "function",
					"name": "setControllerOf",
					"inputs": [
						{
							"name": "projectId",
							"type": "uint256",
							"internalType": "uint256"
						},
						{
							"name": "controller",
							"type": "address",
							"internalType": "contract IERC165"
						}
					],
					"outputs": [],
					"stateMutability": "nonpayable"
				},
				{
					"type": "function",
					"name": "setIsAllowedToSetFirstController",
					"inputs": [
						{
							"name": "addr",
							"type": "address",
							"internalType": "address"
						},
						{
							"name": "flag",
							"type": "bool",
							"internalType": "bool"
						}
					],
					"outputs": [],
					"stateMutability": "nonpayable"
				},
				{
					"type": "function",
					"name": "setPrimaryTerminalOf",
					"inputs": [
						{
							"name": "projectId",
							"type": "uint256",
							"internalType": "uint256"
						},
						{
							"name": "token",
							"type": "address",
							"internalType": "address"
						},
						{
							"name": "terminal",
							"type": "address",
							"internalType": "contract IJBTerminal"
						}
					],
					"outputs": [],
					"stateMutability": "nonpayable"
				},
				{
					"type": "function",
					"name": "setTerminalsOf",
					"inputs": [
						{
							"name": "projectId",
							"type": "uint256",
							"internalType": "uint256"
						},
						{
							"name": "terminals",
							"type": "address[]",
							"internalType": "contract IJBTerminal[]"
						}
					],
					"outputs": [],
					"stateMutability": "nonpayable"
				},
				{
					"type": "function",
					"name": "terminalsOf",
					"inputs": [
						{
							"name": "projectId",
							"type": "uint256",
							"internalType": "uint256"
						}
					],
					"outputs": [
						{
							"name": "",
							"type": "address[]",
							"internalType": "contract IJBTerminal[]"
						}
					],
					"stateMutability": "view"
				},
				{
					"type": "function",
					"name": "transferOwnership",
					"inputs": [
						{
							"name": "newOwner",
							"type": "address",
							"internalType": "address"
						}
					],
					"outputs": [],
					"stateMutability": "nonpayable"
				},
				{
					"type": "event",
					"name": "AddTerminal",
					"inputs": [
						{
							"name": "projectId",
							"type": "uint256",
							"indexed": true,
							"internalType": "uint256"
						},
						{
							"name": "terminal",
							"type": "address",
							"indexed": true,
							"internalType": "contract IJBTerminal"
						},
						{
							"name": "caller",
							"type": "address",
							"indexed": false,
							"internalType": "address"
						}
					],
					"anonymous": false
				},
				{
					"type": "event",
					"name": "OwnershipTransferred",
					"inputs": [
						{
							"name": "previousOwner",
							"type": "address",
							"indexed": true,
							"internalType": "address"
						},
						{
							"name": "newOwner",
							"type": "address",
							"indexed": true,
							"internalType": "address"
						}
					],
					"anonymous": false
				},
				{
					"type": "event",
					"name": "SetController",
					"inputs": [
						{
							"name": "projectId",
							"type": "uint256",
							"indexed": true,
							"internalType": "uint256"
						},
						{
							"name": "controller",
							"type": "address",
							"indexed": true,
							"internalType": "contract IERC165"
						},
						{
							"name": "caller",
							"type": "address",
							"indexed": false,
							"internalType": "address"
						}
					],
					"anonymous": false
				},
				{
					"type": "event",
					"name": "SetIsAllowedToSetFirstController",
					"inputs": [
						{
							"name": "addr",
							"type": "address",
							"indexed": true,
							"internalType": "address"
						},
						{
							"name": "flag",
							"type": "bool",
							"indexed": true,
							"internalType": "bool"
						},
						{
							"name": "caller",
							"type": "address",
							"indexed": false,
							"internalType": "address"
						}
					],
					"anonymous": false
				},
				{
					"type": "event",
					"name": "SetPrimaryTerminal",
					"inputs": [
						{
							"name": "projectId",
							"type": "uint256",
							"indexed": true,
							"internalType": "uint256"
						},
						{
							"name": "token",
							"type": "address",
							"indexed": true,
							"internalType": "address"
						},
						{
							"name": "terminal",
							"type": "address",
							"indexed": true,
							"internalType": "contract IJBTerminal"
						},
						{
							"name": "caller",
							"type": "address",
							"indexed": false,
							"internalType": "address"
						}
					],
					"anonymous": false
				},
				{
					"type": "event",
					"name": "SetTerminals",
					"inputs": [
						{
							"name": "projectId",
							"type": "uint256",
							"indexed": true,
							"internalType": "uint256"
						},
						{
							"name": "terminals",
							"type": "address[]",
							"indexed": false,
							"internalType": "contract IJBTerminal[]"
						},
						{
							"name": "caller",
							"type": "address",
							"indexed": false,
							"internalType": "address"
						}
					],
					"anonymous": false
				},
				{
					"type": "error",
					"name": "DUPLICATE_TERMINALS",
					"inputs": []
				},
				{
					"type": "error",
					"name": "INVALID_PROJECT_ID_IN_DIRECTORY",
					"inputs": []
				},
				{
					"type": "error",
					"name": "OwnableInvalidOwner",
					"inputs": [
						{
							"name": "owner",
							"type": "address",
							"internalType": "address"
						}
					]
				},
				{
					"type": "error",
					"name": "OwnableUnauthorizedAccount",
					"inputs": [
						{
							"name": "account",
							"type": "address",
							"internalType": "address"
						}
					]
				},
				{
					"type": "error",
					"name": "SET_CONTROLLER_NOT_ALLOWED",
					"inputs": []
				},
				{
					"type": "error",
					"name": "SET_TERMINALS_NOT_ALLOWED",
					"inputs": []
				},
				{
					"type": "error",
					"name": "TOKEN_NOT_ACCEPTED",
					"inputs": []
				},
				{
					"type": "error",
					"name": "UNAUTHORIZED",
					"inputs": []
				}
			],
			"solcInputHash": "d72d671cb704a380777b1be08dd807eb",
			"receipt": {
				"blockHash": "0x13cc920a541c0e0881002b039f9d281ae8a829fbdd5d6d9566a3560ac5ba28cb",
				"blockNumber": 6033692,
				"contractAddress": null,
				"cumulativeGasUsed": "16220478",
				"from": "0xC034550B542b83BA1De312b21d1C94a9a52B1595",
				"gasPrice": "3812153474",
				"gasUsed": "9908580",
				"hash": "0x2e2dc0647a65802517ec21f3e7a085fc5b8472098a138e902c1df15bec9a642f",
				"index": 58,
				"logs": [
					{
						"address": "0xB5E96127D417b1B3ef8438496a38A143167209c7",
						"blockHash": "0x13cc920a541c0e0881002b039f9d281ae8a829fbdd5d6d9566a3560ac5ba28cb",
						"blockNumber": 6033692,
						"data": "0x0000000000000000000000000000000000000000000000000000000000000000",
						"index": 113,
						"topics": [
							"0x572f161235911da04685a68c06adf558fc7e4a36909dca394650e0adc19cc93d",
							"0x000000000000000000000000c034550b542b83ba1de312b21d1c94a9a52b1595",
							"0x000000000000000000000000ef1be3c049809cace5bc203bbe4ec1ab284bf75c",
							"0x7d5dee35f88f325d117661f420aba0f49efbda8e9dd192c65033d21d8f7b717a"
						],
						"transactionHash": "0x2e2dc0647a65802517ec21f3e7a085fc5b8472098a138e902c1df15bec9a642f",
						"transactionIndex": 58
					},
					{
						"address": "0x1081B5AA9D9d4862A3dA4d469433FB36Ed80FA2A",
						"blockHash": "0x13cc920a541c0e0881002b039f9d281ae8a829fbdd5d6d9566a3560ac5ba28cb",
						"blockNumber": 6033692,
						"data": "0x",
						"index": 114,
						"topics": [
							"0x6895c13664aa4f67288b25d7a21d7aaa34916e355fb9b6fae0a139a9085becb8",
							"0x000000000000000000000000ef1be3c049809cace5bc203bbe4ec1ab284bf75c"
						],
						"transactionHash": "0x2e2dc0647a65802517ec21f3e7a085fc5b8472098a138e902c1df15bec9a642f",
						"transactionIndex": 58
					},
					{
						"address": "0xEf1Be3C049809caCe5Bc203BBe4Ec1Ab284bF75c",
						"blockHash": "0x13cc920a541c0e0881002b039f9d281ae8a829fbdd5d6d9566a3560ac5ba28cb",
						"blockNumber": 6033692,
						"data": "0x0000000000000000000000000000000000000000000000000000000000000001",
						"index": 115,
						"topics": [
							"0xa65fb05c5808f5f389d72edeaf719ce38f4cc55c1f69ca3cbfb31c21501caa07",
							"0x11830f0fb7ad6b482466bf66cc24181095df70d9395bc2c496d5a5bd11e611a7"
						],
						"transactionHash": "0x2e2dc0647a65802517ec21f3e7a085fc5b8472098a138e902c1df15bec9a642f",
						"transactionIndex": 58
					},
					{
						"address": "0xC99C2fCc0dC51dd0dAd1fd7B58236bB4d73bAaa8",
						"blockHash": "0x13cc920a541c0e0881002b039f9d281ae8a829fbdd5d6d9566a3560ac5ba28cb",
						"blockNumber": 6033692,
						"data": "0x",
						"index": 116,
						"topics": [
							"0x8be0079c531659141344cd1fd0a4f28419497f9722a3daafe3b4186f6b6457e0",
							"0x0000000000000000000000000000000000000000000000000000000000000000",
							"0x0000000000000000000000001081b5aa9d9d4862a3da4d469433fb36ed80fa2a"
						],
						"transactionHash": "0x2e2dc0647a65802517ec21f3e7a085fc5b8472098a138e902c1df15bec9a642f",
						"transactionIndex": 58
					},
					{
						"address": "0xC99C2fCc0dC51dd0dAd1fd7B58236bB4d73bAaa8",
						"blockHash": "0x13cc920a541c0e0881002b039f9d281ae8a829fbdd5d6d9566a3560ac5ba28cb",
						"blockNumber": 6033692,
						"data": "0x",
						"index": 117,
						"topics": [
							"0xddf252ad1be2c89b69c2b068fc378daa952ba7f163c4a11628f55a4df523b3ef",
							"0x0000000000000000000000000000000000000000000000000000000000000000",
							"0x0000000000000000000000001081b5aa9d9d4862a3da4d469433fb36ed80fa2a",
							"0x0000000000000000000000000000000000000000000000000000000000000001"
						],
						"transactionHash": "0x2e2dc0647a65802517ec21f3e7a085fc5b8472098a138e902c1df15bec9a642f",
						"transactionIndex": 58
					},
					{
						"address": "0xC99C2fCc0dC51dd0dAd1fd7B58236bB4d73bAaa8",
						"blockHash": "0x13cc920a541c0e0881002b039f9d281ae8a829fbdd5d6d9566a3560ac5ba28cb",
						"blockNumber": 6033692,
						"data": "0x0000000000000000000000004e59b44847b379578588920ca78fbf26c0b4956c",
						"index": 118,
						"topics": [
							"0x365b3162cd780731fc55a794b59494d472bc2af701007f581843a70673814698",
							"0x0000000000000000000000000000000000000000000000000000000000000001",
							"0x0000000000000000000000001081b5aa9d9d4862a3da4d469433fb36ed80fa2a"
						],
						"transactionHash": "0x2e2dc0647a65802517ec21f3e7a085fc5b8472098a138e902c1df15bec9a642f",
						"transactionIndex": 58
					},
					{
						"address": "0x1081B5AA9D9d4862A3dA4d469433FB36Ed80FA2A",
						"blockHash": "0x13cc920a541c0e0881002b039f9d281ae8a829fbdd5d6d9566a3560ac5ba28cb",
						"blockNumber": 6033692,
						"data": "0x",
						"index": 119,
						"topics": [
							"0x6895c13664aa4f67288b25d7a21d7aaa34916e355fb9b6fae0a139a9085becb8",
							"0x000000000000000000000000ef1be3c049809cace5bc203bbe4ec1ab284bf75c"
						],
						"transactionHash": "0x2e2dc0647a65802517ec21f3e7a085fc5b8472098a138e902c1df15bec9a642f",
						"transactionIndex": 58
					},
					{
						"address": "0xEf1Be3C049809caCe5Bc203BBe4Ec1Ab284bF75c",
						"blockHash": "0x13cc920a541c0e0881002b039f9d281ae8a829fbdd5d6d9566a3560ac5ba28cb",
						"blockNumber": 6033692,
						"data": "0x0000000000000000000000000000000000000000000000000000000000000002",
						"index": 120,
						"topics": [
							"0xa65fb05c5808f5f389d72edeaf719ce38f4cc55c1f69ca3cbfb31c21501caa07",
							"0x11830f0fb7ad6b482466bf66cc24181095df70d9395bc2c496d5a5bd11e611a7"
						],
						"transactionHash": "0x2e2dc0647a65802517ec21f3e7a085fc5b8472098a138e902c1df15bec9a642f",
						"transactionIndex": 58
					},
					{
						"address": "0xc9cb7a0BAB7569b5B6De26A679D107D4D412B349",
						"blockHash": "0x13cc920a541c0e0881002b039f9d281ae8a829fbdd5d6d9566a3560ac5ba28cb",
						"blockNumber": 6033692,
						"data": "0x",
						"index": 121,
						"topics": [
							"0x8be0079c531659141344cd1fd0a4f28419497f9722a3daafe3b4186f6b6457e0",
							"0x0000000000000000000000000000000000000000000000000000000000000000",
							"0x0000000000000000000000001081b5aa9d9d4862a3da4d469433fb36ed80fa2a"
						],
						"transactionHash": "0x2e2dc0647a65802517ec21f3e7a085fc5b8472098a138e902c1df15bec9a642f",
						"transactionIndex": 58
					},
					{
						"address": "0x1081B5AA9D9d4862A3dA4d469433FB36Ed80FA2A",
						"blockHash": "0x13cc920a541c0e0881002b039f9d281ae8a829fbdd5d6d9566a3560ac5ba28cb",
						"blockNumber": 6033692,
						"data": "0x",
						"index": 122,
						"topics": [
							"0x6895c13664aa4f67288b25d7a21d7aaa34916e355fb9b6fae0a139a9085becb8",
							"0x000000000000000000000000ef1be3c049809cace5bc203bbe4ec1ab284bf75c"
						],
						"transactionHash": "0x2e2dc0647a65802517ec21f3e7a085fc5b8472098a138e902c1df15bec9a642f",
						"transactionIndex": 58
					},
					{
						"address": "0xEf1Be3C049809caCe5Bc203BBe4Ec1Ab284bF75c",
						"blockHash": "0x13cc920a541c0e0881002b039f9d281ae8a829fbdd5d6d9566a3560ac5ba28cb",
						"blockNumber": 6033692,
						"data": "0x0000000000000000000000000000000000000000000000000000000000000003",
						"index": 123,
						"topics": [
							"0xa65fb05c5808f5f389d72edeaf719ce38f4cc55c1f69ca3cbfb31c21501caa07",
							"0x11830f0fb7ad6b482466bf66cc24181095df70d9395bc2c496d5a5bd11e611a7"
						],
						"transactionHash": "0x2e2dc0647a65802517ec21f3e7a085fc5b8472098a138e902c1df15bec9a642f",
						"transactionIndex": 58
					},
					{
						"address": "0x1081B5AA9D9d4862A3dA4d469433FB36Ed80FA2A",
						"blockHash": "0x13cc920a541c0e0881002b039f9d281ae8a829fbdd5d6d9566a3560ac5ba28cb",
						"blockNumber": 6033692,
						"data": "0x",
						"index": 124,
						"topics": [
							"0x6895c13664aa4f67288b25d7a21d7aaa34916e355fb9b6fae0a139a9085becb8",
							"0x000000000000000000000000ef1be3c049809cace5bc203bbe4ec1ab284bf75c"
						],
						"transactionHash": "0x2e2dc0647a65802517ec21f3e7a085fc5b8472098a138e902c1df15bec9a642f",
						"transactionIndex": 58
					},
					{
						"address": "0xEf1Be3C049809caCe5Bc203BBe4Ec1Ab284bF75c",
						"blockHash": "0x13cc920a541c0e0881002b039f9d281ae8a829fbdd5d6d9566a3560ac5ba28cb",
						"blockNumber": 6033692,
						"data": "0x0000000000000000000000000000000000000000000000000000000000000004",
						"index": 125,
						"topics": [
							"0xa65fb05c5808f5f389d72edeaf719ce38f4cc55c1f69ca3cbfb31c21501caa07",
							"0x11830f0fb7ad6b482466bf66cc24181095df70d9395bc2c496d5a5bd11e611a7"
						],
						"transactionHash": "0x2e2dc0647a65802517ec21f3e7a085fc5b8472098a138e902c1df15bec9a642f",
						"transactionIndex": 58
					},
					{
						"address": "0x1081B5AA9D9d4862A3dA4d469433FB36Ed80FA2A",
						"blockHash": "0x13cc920a541c0e0881002b039f9d281ae8a829fbdd5d6d9566a3560ac5ba28cb",
						"blockNumber": 6033692,
						"data": "0x",
						"index": 126,
						"topics": [
							"0x6895c13664aa4f67288b25d7a21d7aaa34916e355fb9b6fae0a139a9085becb8",
							"0x000000000000000000000000ef1be3c049809cace5bc203bbe4ec1ab284bf75c"
						],
						"transactionHash": "0x2e2dc0647a65802517ec21f3e7a085fc5b8472098a138e902c1df15bec9a642f",
						"transactionIndex": 58
					},
					{
						"address": "0xEf1Be3C049809caCe5Bc203BBe4Ec1Ab284bF75c",
						"blockHash": "0x13cc920a541c0e0881002b039f9d281ae8a829fbdd5d6d9566a3560ac5ba28cb",
						"blockNumber": 6033692,
						"data": "0x0000000000000000000000000000000000000000000000000000000000000005",
						"index": 127,
						"topics": [
							"0xa65fb05c5808f5f389d72edeaf719ce38f4cc55c1f69ca3cbfb31c21501caa07",
							"0x11830f0fb7ad6b482466bf66cc24181095df70d9395bc2c496d5a5bd11e611a7"
						],
						"transactionHash": "0x2e2dc0647a65802517ec21f3e7a085fc5b8472098a138e902c1df15bec9a642f",
						"transactionIndex": 58
					},
					{
						"address": "0x139dB16d4Ecc256cF0DaeD2705671165e1878047",
						"blockHash": "0x13cc920a541c0e0881002b039f9d281ae8a829fbdd5d6d9566a3560ac5ba28cb",
						"blockNumber": 6033692,
						"data": "0x",
						"index": 128,
						"topics": [
							"0x8be0079c531659141344cd1fd0a4f28419497f9722a3daafe3b4186f6b6457e0",
							"0x0000000000000000000000000000000000000000000000000000000000000000",
							"0x000000000000000000000000139db16d4ecc256cf0daed2705671165e1878047"
						],
						"transactionHash": "0x2e2dc0647a65802517ec21f3e7a085fc5b8472098a138e902c1df15bec9a642f",
						"transactionIndex": 58
					},
					{
						"address": "0x1081B5AA9D9d4862A3dA4d469433FB36Ed80FA2A",
						"blockHash": "0x13cc920a541c0e0881002b039f9d281ae8a829fbdd5d6d9566a3560ac5ba28cb",
						"blockNumber": 6033692,
						"data": "0x",
						"index": 129,
						"topics": [
							"0x6895c13664aa4f67288b25d7a21d7aaa34916e355fb9b6fae0a139a9085becb8",
							"0x000000000000000000000000ef1be3c049809cace5bc203bbe4ec1ab284bf75c"
						],
						"transactionHash": "0x2e2dc0647a65802517ec21f3e7a085fc5b8472098a138e902c1df15bec9a642f",
						"transactionIndex": 58
					},
					{
						"address": "0xEf1Be3C049809caCe5Bc203BBe4Ec1Ab284bF75c",
						"blockHash": "0x13cc920a541c0e0881002b039f9d281ae8a829fbdd5d6d9566a3560ac5ba28cb",
						"blockNumber": 6033692,
						"data": "0x0000000000000000000000000000000000000000000000000000000000000006",
						"index": 130,
						"topics": [
							"0xa65fb05c5808f5f389d72edeaf719ce38f4cc55c1f69ca3cbfb31c21501caa07",
							"0x11830f0fb7ad6b482466bf66cc24181095df70d9395bc2c496d5a5bd11e611a7"
						],
						"transactionHash": "0x2e2dc0647a65802517ec21f3e7a085fc5b8472098a138e902c1df15bec9a642f",
						"transactionIndex": 58
					},
					{
						"address": "0x1081B5AA9D9d4862A3dA4d469433FB36Ed80FA2A",
						"blockHash": "0x13cc920a541c0e0881002b039f9d281ae8a829fbdd5d6d9566a3560ac5ba28cb",
						"blockNumber": 6033692,
						"data": "0x",
						"index": 131,
						"topics": [
							"0x6895c13664aa4f67288b25d7a21d7aaa34916e355fb9b6fae0a139a9085becb8",
							"0x000000000000000000000000ef1be3c049809cace5bc203bbe4ec1ab284bf75c"
						],
						"transactionHash": "0x2e2dc0647a65802517ec21f3e7a085fc5b8472098a138e902c1df15bec9a642f",
						"transactionIndex": 58
					},
					{
						"address": "0xEf1Be3C049809caCe5Bc203BBe4Ec1Ab284bF75c",
						"blockHash": "0x13cc920a541c0e0881002b039f9d281ae8a829fbdd5d6d9566a3560ac5ba28cb",
						"blockNumber": 6033692,
						"data": "0x0000000000000000000000000000000000000000000000000000000000000007",
						"index": 132,
						"topics": [
							"0xa65fb05c5808f5f389d72edeaf719ce38f4cc55c1f69ca3cbfb31c21501caa07",
							"0x11830f0fb7ad6b482466bf66cc24181095df70d9395bc2c496d5a5bd11e611a7"
						],
						"transactionHash": "0x2e2dc0647a65802517ec21f3e7a085fc5b8472098a138e902c1df15bec9a642f",
						"transactionIndex": 58
					},
					{
						"address": "0x1081B5AA9D9d4862A3dA4d469433FB36Ed80FA2A",
						"blockHash": "0x13cc920a541c0e0881002b039f9d281ae8a829fbdd5d6d9566a3560ac5ba28cb",
						"blockNumber": 6033692,
						"data": "0x",
						"index": 133,
						"topics": [
							"0x6895c13664aa4f67288b25d7a21d7aaa34916e355fb9b6fae0a139a9085becb8",
							"0x000000000000000000000000ef1be3c049809cace5bc203bbe4ec1ab284bf75c"
						],
						"transactionHash": "0x2e2dc0647a65802517ec21f3e7a085fc5b8472098a138e902c1df15bec9a642f",
						"transactionIndex": 58
					},
					{
						"address": "0xEf1Be3C049809caCe5Bc203BBe4Ec1Ab284bF75c",
						"blockHash": "0x13cc920a541c0e0881002b039f9d281ae8a829fbdd5d6d9566a3560ac5ba28cb",
						"blockNumber": 6033692,
						"data": "0x0000000000000000000000000000000000000000000000000000000000000008",
						"index": 134,
						"topics": [
							"0xa65fb05c5808f5f389d72edeaf719ce38f4cc55c1f69ca3cbfb31c21501caa07",
							"0x11830f0fb7ad6b482466bf66cc24181095df70d9395bc2c496d5a5bd11e611a7"
						],
						"transactionHash": "0x2e2dc0647a65802517ec21f3e7a085fc5b8472098a138e902c1df15bec9a642f",
						"transactionIndex": 58
					}
				],
				"logsBloom": "0x00000000080010000028000001080200000000000008000080800000004000080060008000000000000080000040200000000000000000000000000000040000010000100400200400000008000000000001000000040000000200000000000200000000020000000000000000000800000000100000400000000010000000400001000000000000000100000000000000000000000000000200800000400000004000040010000000000000000000020200000000000000000000000006000000000002000000200000000008000000010000800020000000000000000060000020000000000004000000000000000200000000040000000000000000000000",
				"status": 1,
				"to": "0xB5E96127D417b1B3ef8438496a38A143167209c7"
			},
			"metadata": "{\"compiler\":{\"version\":\"0.8.23+commit.f704f362\"},\"language\":\"Solidity\",\"output\":{\"abi\":[{\"inputs\":[{\"internalType\":\"contract IJBPermissions\",\"name\":\"permissions\",\"type\":\"address\"},{\"internalType\":\"contract IJBProjects\",\"name\":\"projects\",\"type\":\"address\"},{\"internalType\":\"address\",\"name\":\"owner\",\"type\":\"address\"}],\"stateMutability\":\"nonpayable\",\"type\":\"constructor\"},{\"inputs\":[],\"type\":\"error\",\"name\":\"DUPLICATE_TERMINALS\"},{\"inputs\":[],\"type\":\"error\",\"name\":\"INVALID_PROJECT_ID_IN_DIRECTORY\"},{\"inputs\":[{\"internalType\":\"address\",\"name\":\"owner\",\"type\":\"address\"}],\"type\":\"error\",\"name\":\"OwnableInvalidOwner\"},{\"inputs\":[{\"internalType\":\"address\",\"name\":\"account\",\"type\":\"address\"}],\"type\":\"error\",\"name\":\"OwnableUnauthorizedAccount\"},{\"inputs\":[],\"type\":\"error\",\"name\":\"SET_CONTROLLER_NOT_ALLOWED\"},{\"inputs\":[],\"type\":\"error\",\"name\":\"SET_TERMINALS_NOT_ALLOWED\"},{\"inputs\":[],\"type\":\"error\",\"name\":\"TOKEN_NOT_ACCEPTED\"},{\"inputs\":[],\"type\":\"error\",\"name\":\"UNAUTHORIZED\"},{\"inputs\":[{\"internalType\":\"uint256\",\"name\":\"projectId\",\"type\":\"uint256\",\"indexed\":true},{\"internalType\":\"contract IJBTerminal\",\"name\":\"terminal\",\"type\":\"address\",\"indexed\":true},{\"internalType\":\"address\",\"name\":\"caller\",\"type\":\"address\",\"indexed\":false}],\"type\":\"event\",\"name\":\"AddTerminal\",\"anonymous\":false},{\"inputs\":[{\"internalType\":\"address\",\"name\":\"previousOwner\",\"type\":\"address\",\"indexed\":true},{\"internalType\":\"address\",\"name\":\"newOwner\",\"type\":\"address\",\"indexed\":true}],\"type\":\"event\",\"name\":\"OwnershipTransferred\",\"anonymous\":false},{\"inputs\":[{\"internalType\":\"uint256\",\"name\":\"projectId\",\"type\":\"uint256\",\"indexed\":true},{\"internalType\":\"contract IERC165\",\"name\":\"controller\",\"type\":\"address\",\"indexed\":true},{\"internalType\":\"address\",\"name\":\"caller\",\"type\":\"address\",\"indexed\":false}],\"type\":\"event\",\"name\":\"SetController\",\"anonymous\":false},{\"inputs\":[{\"internalType\":\"address\",\"name\":\"addr\",\"type\":\"address\",\"indexed\":true},{\"internalType\":\"bool\",\"name\":\"flag\",\"type\":\"bool\",\"indexed\":true},{\"internalType\":\"address\",\"name\":\"caller\",\"type\":\"address\",\"indexed\":false}],\"type\":\"event\",\"name\":\"SetIsAllowedToSetFirstController\",\"anonymous\":false},{\"inputs\":[{\"internalType\":\"uint256\",\"name\":\"projectId\",\"type\":\"uint256\",\"indexed\":true},{\"internalType\":\"address\",\"name\":\"token\",\"type\":\"address\",\"indexed\":true},{\"internalType\":\"contract IJBTerminal\",\"name\":\"terminal\",\"type\":\"address\",\"indexed\":true},{\"internalType\":\"address\",\"name\":\"caller\",\"type\":\"address\",\"indexed\":false}],\"type\":\"event\",\"name\":\"SetPrimaryTerminal\",\"anonymous\":false},{\"inputs\":[{\"internalType\":\"uint256\",\"name\":\"projectId\",\"type\":\"uint256\",\"indexed\":true},{\"internalType\":\"contract IJBTerminal[]\",\"name\":\"terminals\",\"type\":\"address[]\",\"indexed\":false},{\"internalType\":\"address\",\"name\":\"caller\",\"type\":\"address\",\"indexed\":false}],\"type\":\"event\",\"name\":\"SetTerminals\",\"anonymous\":false},{\"inputs\":[],\"stateMutability\":\"view\",\"type\":\"function\",\"name\":\"PERMISSIONS\",\"outputs\":[{\"internalType\":\"contract IJBPermissions\",\"name\":\"\",\"type\":\"address\"}]},{\"inputs\":[],\"stateMutability\":\"view\",\"type\":\"function\",\"name\":\"PROJECTS\",\"outputs\":[{\"internalType\":\"contract IJBProjects\",\"name\":\"\",\"type\":\"address\"}]},{\"inputs\":[{\"internalType\":\"uint256\",\"name\":\"projectId\",\"type\":\"uint256\"}],\"stateMutability\":\"view\",\"type\":\"function\",\"name\":\"controllerOf\",\"outputs\":[{\"internalType\":\"contract IERC165\",\"name\":\"\",\"type\":\"address\"}]},{\"inputs\":[{\"internalType\":\"address\",\"name\":\"addr\",\"type\":\"address\"}],\"stateMutability\":\"view\",\"type\":\"function\",\"name\":\"isAllowedToSetFirstController\",\"outputs\":[{\"internalType\":\"bool\",\"name\":\"\",\"type\":\"bool\"}]},{\"inputs\":[{\"internalType\":\"uint256\",\"name\":\"projectId\",\"type\":\"uint256\"},{\"internalType\":\"contract IJBTerminal\",\"name\":\"terminal\",\"type\":\"address\"}],\"stateMutability\":\"view\",\"type\":\"function\",\"name\":\"isTerminalOf\",\"outputs\":[{\"internalType\":\"bool\",\"name\":\"\",\"type\":\"bool\"}]},{\"inputs\":[],\"stateMutability\":\"view\",\"type\":\"function\",\"name\":\"owner\",\"outputs\":[{\"internalType\":\"address\",\"name\":\"\",\"type\":\"address\"}]},{\"inputs\":[{\"internalType\":\"uint256\",\"name\":\"projectId\",\"type\":\"uint256\"},{\"internalType\":\"address\",\"name\":\"token\",\"type\":\"address\"}],\"stateMutability\":\"view\",\"type\":\"function\",\"name\":\"primaryTerminalOf\",\"outputs\":[{\"internalType\":\"contract IJBTerminal\",\"name\":\"\",\"type\":\"address\"}]},{\"inputs\":[],\"stateMutability\":\"nonpayable\",\"type\":\"function\",\"name\":\"renounceOwnership\"},{\"inputs\":[{\"internalType\":\"uint256\",\"name\":\"projectId\",\"type\":\"uint256\"},{\"internalType\":\"contract IERC165\",\"name\":\"controller\",\"type\":\"address\"}],\"stateMutability\":\"nonpayable\",\"type\":\"function\",\"name\":\"setControllerOf\"},{\"inputs\":[{\"internalType\":\"address\",\"name\":\"addr\",\"type\":\"address\"},{\"internalType\":\"bool\",\"name\":\"flag\",\"type\":\"bool\"}],\"stateMutability\":\"nonpayable\",\"type\":\"function\",\"name\":\"setIsAllowedToSetFirstController\"},{\"inputs\":[{\"internalType\":\"uint256\",\"name\":\"projectId\",\"type\":\"uint256\"},{\"internalType\":\"address\",\"name\":\"token\",\"type\":\"address\"},{\"internalType\":\"contract IJBTerminal\",\"name\":\"terminal\",\"type\":\"address\"}],\"stateMutability\":\"nonpayable\",\"type\":\"function\",\"name\":\"setPrimaryTerminalOf\"},{\"inputs\":[{\"internalType\":\"uint256\",\"name\":\"projectId\",\"type\":\"uint256\"},{\"internalType\":\"contract IJBTerminal[]\",\"name\":\"terminals\",\"type\":\"address[]\"}],\"stateMutability\":\"nonpayable\",\"type\":\"function\",\"name\":\"setTerminalsOf\"},{\"inputs\":[{\"internalType\":\"uint256\",\"name\":\"projectId\",\"type\":\"uint256\"}],\"stateMutability\":\"view\",\"type\":\"function\",\"name\":\"terminalsOf\",\"outputs\":[{\"internalType\":\"contract IJBTerminal[]\",\"name\":\"\",\"type\":\"address[]\"}]},{\"inputs\":[{\"internalType\":\"address\",\"name\":\"newOwner\",\"type\":\"address\"}],\"stateMutability\":\"nonpayable\",\"type\":\"function\",\"name\":\"transferOwnership\"}],\"devdoc\":{\"kind\":\"dev\",\"methods\":{\"constructor\":{\"params\":{\"owner\":\"The address that will own the contract.\",\"permissions\":\"A contract storing permissions.\",\"projects\":\"A contract which mints ERC-721s that represent project ownership and transfers.\"}},\"isTerminalOf(uint256,address)\":{\"params\":{\"projectId\":\"The ID of the project to check.\",\"terminal\":\"The terminal to check for.\"},\"returns\":{\"_0\":\"A flag indicating whether the project uses the terminal.\"}},\"owner()\":{\"details\":\"Returns the address of the current owner.\"},\"primaryTerminalOf(uint256,address)\":{\"details\":\"Returns the first terminal that accepts the token if the project hasn't explicitly set a primary terminal for it.Returns the zero address if no terminal accepts the token.\",\"params\":{\"projectId\":\"The ID of the project to get the primary terminal of.\",\"token\":\"The token that the terminal accepts.\"},\"returns\":{\"_0\":\"The primary terminal's address.\"}},\"renounceOwnership()\":{\"details\":\"Leaves the contract without owner. It will not be possible to call `onlyOwner` functions. Can only be called by the current owner. NOTE: Renouncing ownership will leave the contract without an owner, thereby disabling any functionality that is only available to the owner.\"},\"setControllerOf(uint256,address)\":{\"details\":\"Can only be called if: - The ruleset's metadata has `allowSetController` enabled, and the message's sender is the project's owner or an address with the owner's permission to `SET_CONTROLLER`. - OR the message's sender is the project's current controller. - OR an address which `isAllowedToSetFirstController` is setting a project's first controller.\",\"params\":{\"controller\":\"The address of the controller to set.\",\"projectId\":\"The ID of the project whose controller is being set.\"}},\"setIsAllowedToSetFirstController(address,bool)\":{\"details\":\"Only this contract's owner can call this function.These addresses are vetted controllers as well as contracts designed to launch new projects.A project can set its own controller without being on this list.If you would like to add an address/contract to this list, please reach out to this contract's owner.\",\"params\":{\"addr\":\"The address to allow or not allow.\",\"flag\":\"Whether the address is allowed to set first controllers for projects. Use `true` to allow and `false` to not allow.\"}},\"setPrimaryTerminalOf(uint256,address,address)\":{\"details\":\"The primary terminal for a token is where payments in that token are routed to by default.This is useful in cases where a project has multiple terminals which accept the same token.Can only be called by the project's owner, or an address with the owner's permission to `SET_PRIMARY_TERMINAL`.\",\"params\":{\"projectId\":\"The ID of the project whose primary terminal is being set.\",\"terminal\":\"The terminal being set as the primary terminal.\",\"token\":\"The token to set the primary terminal for.\"}},\"setTerminalsOf(uint256,address[])\":{\"details\":\"Can only be called by the project's owner, an address with the owner's permission to `SET_TERMINALS`, or the project's controller.Unless the caller is the project's controller, the project's ruleset must allow setting terminals.\",\"params\":{\"projectId\":\"The ID of the project whose terminals are being set.\",\"terminals\":\"An array of terminal addresses to set for the project.\"}},\"terminalsOf(uint256)\":{\"params\":{\"projectId\":\"The ID of the project to get the terminals of.\"},\"returns\":{\"_0\":\"An array of the project's terminal addresses.\"}},\"transferOwnership(address)\":{\"details\":\"Transfers ownership of the contract to a new account (`newOwner`). Can only be called by the current owner.\"}},\"version\":1},\"userdoc\":{\"kind\":\"user\",\"methods\":{\"PERMISSIONS()\":{\"notice\":\"A contract storing permissions.\"},\"PROJECTS()\":{\"notice\":\"Mints ERC-721s that represent project ownership and transfers.\"},\"controllerOf(uint256)\":{\"notice\":\"The specified project's controller, which dictates how its terminals interact with its tokens and rulesets.\"},\"isAllowedToSetFirstController(address)\":{\"notice\":\"Whether the specified address is allowed to set a project's first controller on their behalf.\"},\"isTerminalOf(uint256,address)\":{\"notice\":\"Check if a project uses a specific terminal.\"},\"primaryTerminalOf(uint256,address)\":{\"notice\":\"The primary terminal that a project uses for the specified token.\"},\"setControllerOf(uint256,address)\":{\"notice\":\"Set a project's controller. Controllers manage how terminals interact with tokens and rulesets.\"},\"setIsAllowedToSetFirstController(address,bool)\":{\"notice\":\"Add or remove an address/contract from a list of trusted addresses which are allowed to set a first controller for projects.\"},\"setPrimaryTerminalOf(uint256,address,address)\":{\"notice\":\"Set a project's primary terminal for a token.\"},\"setTerminalsOf(uint256,address[])\":{\"notice\":\"Set a project's terminals.\"},\"terminalsOf(uint256)\":{\"notice\":\"The specified project's terminals.\"}},\"version\":1}},\"settings\":{\"remappings\":[\"@bananapus/=node_modules/@bananapus/\",\"@chainlink/=node_modules/@chainlink/\",\"@eth-optimism/=node_modules/@eth-optimism/\",\"@openzeppelin/=node_modules/@openzeppelin/\",\"@prb/=node_modules/@prb/\",\"@scroll-tech/=node_modules/@scroll-tech/\",\"@sphinx-labs/contracts/=lib/sphinx/packages/contracts/contracts/foundry/\",\"@uniswap/=node_modules/@uniswap/\",\"ds-test/=lib/forge-std/lib/ds-test/src/\",\"forge-std/=lib/forge-std/src/\",\"hardhat/=node_modules/hardhat/\",\"solmate/=node_modules/solmate/\",\"sphinx/=lib/sphinx/\"],\"optimizer\":{\"enabled\":true,\"runs\":200},\"metadata\":{\"bytecodeHash\":\"ipfs\"},\"compilationTarget\":{\"src/JBDirectory.sol\":\"JBDirectory\"},\"evmVersion\":\"paris\",\"libraries\":{}},\"sources\":{\"node_modules/@bananapus/permission-ids/src/JBPermissionIds.sol\":{\"keccak256\":\"0x31f5dfb044f5bae2f8415579b3afbbdcfb424015a1e69a2f8451a07134f3d36b\",\"urls\":[\"bzz-raw://85f313e53f6e442b33190741224f2b782b8d12579b4141ab2fac2e3bb8d47388\",\"dweb:/ipfs/QmVSZWkeuTkvAujzSbADfvfvv78Xs8mop3JbStyzDhVqtn\"],\"license\":\"MIT\"},\"node_modules/@openzeppelin/contracts/access/Ownable.sol\":{\"keccak256\":\"0xff6d0bb2e285473e5311d9d3caacb525ae3538a80758c10649a4d61029b017bb\",\"urls\":[\"bzz-raw://8ed324d3920bb545059d66ab97d43e43ee85fd3bd52e03e401f020afb0b120f6\",\"dweb:/ipfs/QmfEckWLmZkDDcoWrkEvMWhms66xwTLff9DDhegYpvHo1a\"],\"license\":\"MIT\"},\"node_modules/@openzeppelin/contracts/token/ERC721/IERC721.sol\":{\"keccak256\":\"0x5ef46daa3b58ef2702279d514780316efaa952915ee1aa3396f041ee2982b0b4\",\"urls\":[\"bzz-raw://2f8f2a76e23b02fc69e8cd24c3cb47da6c7af3a2d6c3a382f8ac25c6e094ade7\",\"dweb:/ipfs/QmPV4ZS4tPVv4mTCf9ejyZ1ai57EEibDRj7mN2ARDCLV5n\"],\"license\":\"MIT\"},\"node_modules/@openzeppelin/contracts/utils/Context.sol\":{\"keccak256\":\"0x493033a8d1b176a037b2cc6a04dad01a5c157722049bbecf632ca876224dd4b2\",\"urls\":[\"bzz-raw://6a708e8a5bdb1011c2c381c9a5cfd8a9a956d7d0a9dc1bd8bcdaf52f76ef2f12\",\"dweb:/ipfs/Qmax9WHBnVsZP46ZxEMNRQpLQnrdE4dK8LehML1Py8FowF\"],\"license\":\"MIT\"},\"node_modules/@openzeppelin/contracts/utils/introspection/IERC165.sol\":{\"keccak256\":\"0x4296879f55019b23e135000eb36896057e7101fb7fb859c5ef690cf14643757b\",\"urls\":[\"bzz-raw://87b3541437c8c443ccd36795e56a338ed12855eec17f8da624511b8d1a7e14df\",\"dweb:/ipfs/QmeJQCtZrQjtJLr6u7ZHWeH3pBnjtLWzvRrKViAi7UZqxL\"],\"license\":\"MIT\"},\"src/JBDirectory.sol\":{\"keccak256\":\"0x08563875685f8fd604222f93462f8e9b475ba716fc289ab4a427632d0e25bb64\",\"urls\":[\"bzz-raw://0b1f2c20d4a29dd508fae9d089f185d7c8cb32543d04652da546bf7b1aa167a3\",\"dweb:/ipfs/QmPmcqZrybGottboAaYn7Seir8dbzABPYMSATFPnL9DDY2\"],\"license\":\"MIT\"},\"src/abstract/JBPermissioned.sol\":{\"keccak256\":\"0x6486c11bff6384bfa938feb7aaacc977f457abff25b17b9aa094077d3fef71f8\",\"urls\":[\"bzz-raw://8b5190202326b6499391d5128cdb2d9ff44e91cd9ba6d8a5fe01e6f21259270d\",\"dweb:/ipfs/QmR2ufPwHtCAZYkJoyWyyag6BfdaWpaLk7VhuDc6BRLqVe\"],\"license\":\"MIT\"},\"src/interfaces/IJBDirectory.sol\":{\"keccak256\":\"0x9cc380844aef60078ee47a61861e55a29c4a8c947efd556ebd36e6909f7b9d62\",\"urls\":[\"bzz-raw://9f5190ec8b6683d9781ee6e9eedcc91294753242748875d4a06349077e4cbaaf\",\"dweb:/ipfs/QmTQrPuXT9TCA4txwrperMeXSGvGxP8iokUK47f62F388i\"],\"license\":\"MIT\"},\"src/interfaces/IJBDirectoryAccessControl.sol\":{\"keccak256\":\"0x1e67f56849320a46f834aaa9bd62b170ff8ada7b224b4a81136193740fa0be4d\",\"urls\":[\"bzz-raw://ea8fbcec44abfe49d137bcae129b67e5479d6b17879301f88534c8a7fab00be4\",\"dweb:/ipfs/QmT6wrtYX4GRpffHUzupNwYebJ1dqkkKZLEewWsoyunsqw\"],\"license\":\"MIT\"},\"src/interfaces/IJBPayHook.sol\":{\"keccak256\":\"0x9438866782c652c2942f4d114e35f393cd3c8b0334abce8387eed90bca35e8b2\",\"urls\":[\"bzz-raw://cfd99daf57213f92325aad7d7d16e98476d38e870470e95ba01e3ae3cdecc95d\",\"dweb:/ipfs/QmUKKAVGf7ki8BHksr99tFcRW8APveeB5tNH63ctTbbCW8\"],\"license\":\"MIT\"},\"src/interfaces/IJBPermissioned.sol\":{\"keccak256\":\"0x5b038d4dee116584e88b230920e56d48e135053e3f7e5642eaea14a775c1dad7\",\"urls\":[\"bzz-raw://19e43102f349fd4a1da1c0943ffb8f2950007fe4bb4bb7e8f74fc142575d091b\",\"dweb:/ipfs/QmXHAt4KzDTdDZgDDefEXH2WKi7NcfkJb9R7nxW5uDqsNp\"],\"license\":\"MIT\"},\"src/interfaces/IJBPermissions.sol\":{\"keccak256\":\"0x957d77a71cf8bb25df4a767e3c315fbd393df52ea8ea25af14e9fa268ac820bf\",\"urls\":[\"bzz-raw://c7891e986611d3cc0472a65310d160cad5b03c7e64c63b30430401d6418f8d77\",\"dweb:/ipfs/QmNZPfbyYvG8XPSPe9vrPNfDtvDsrLaXA3AzH28KSzwxHM\"],\"license\":\"MIT\"},\"src/interfaces/IJBProjects.sol\":{\"keccak256\":\"0x735c2fb8f1fa827f054ee77f7a0ae4b312656217acb75b624d2c8fd9dc40151b\",\"urls\":[\"bzz-raw://ee7fc92299a8633a80693ae63ab494dcd125f1789487a54a39dc0e5696e5996f\",\"dweb:/ipfs/QmX7YJD4pS2XhgQb7p3JbBAXynT7YGPXcZe92BiWWRrsCL\"],\"license\":\"MIT\"},\"src/interfaces/IJBTerminal.sol\":{\"keccak256\":\"0x19dc9bf8cbdc8f13ee5da9dc3a87047eacb94a3fc19740a286c1f0bad2cc39ca\",\"urls\":[\"bzz-raw://0b05ae6fda9a85672508232fd992b8a5f5ffd8096622eeb12c8a7b3317eb3867\",\"dweb:/ipfs/QmNh9Quj37BXYGdTdcCD1Q58PchRsE5TLbEZep56qS3MpV\"],\"license\":\"MIT\"},\"src/interfaces/IJBTokenUriResolver.sol\":{\"keccak256\":\"0xfa5cb00dcd6085d1ef912d071fe73c63f9478a2cd0f9d8bddaf659b6af2d0967\",\"urls\":[\"bzz-raw://282e4e7c342d65f77cde0e9a08fcaf20ef5cf379c7a48b639842c0ffd0b2afb8\",\"dweb:/ipfs/QmbnN3PEQeZaXdPLT75V1J79kMg7KqSMru37RHrL3z8Yf2\"],\"license\":\"MIT\"},\"src/structs/JBAccountingContext.sol\":{\"keccak256\":\"0x2907ff54d1e903cc7e0390dd88c3975884702dc2673642aacbe22b66560b56de\",\"urls\":[\"bzz-raw://a66a5381ce877b32f0e0058ceeaf843e9b6b2bc8af666c0c9f4a9d01091da004\",\"dweb:/ipfs/QmQynCetUr37dBkS1YwDS8evxuXGiqanW6THmeUxXtim8w\"],\"license\":\"MIT\"},\"src/structs/JBAfterPayRecordedContext.sol\":{\"keccak256\":\"0xd26c3a774ff38be79064085970454fe2603a23a638c76270d5b1b3829206c3e8\",\"urls\":[\"bzz-raw://3b55dbe3bf1ef625b7ca04efab3de35406e6041d5b3d82c7265469c500e2b702\",\"dweb:/ipfs/QmUdBDo4Lt3mcsFcsXT2mqq3czFwZjQJFPLM89YA2VtD7k\"],\"license\":\"MIT\"},\"src/structs/JBPermissionsData.sol\":{\"keccak256\":\"0x8f0f69a6ebf5f3704e3dfcb3712fb9d3f94ae7c1ab89bf3e37bad42a3e7a0487\",\"urls\":[\"bzz-raw://57b0c5e52843e2217082889ed47b4da3943e0da4590d5768dcebfe3edad4a6b8\",\"dweb:/ipfs/QmRz48vuWLw81kUP836rh1qzqWiJFGbksgRUA9xGEDNKTY\"],\"license\":\"MIT\"},\"src/structs/JBTokenAmount.sol\":{\"keccak256\":\"0x5cf0626b73a596c1e2da17c89ae039a7c0374310b060d48568d3b6c11fbe6180\",\"urls\":[\"bzz-raw://63348b50be95e2995409394a17caffc563a646f0972650a1230bf864fbd3219b\",\"dweb:/ipfs/QmZXZpS3SbFD5nWaCauf6AqbEhLURv5qsKHpThBvQgDU6u\"],\"license\":\"MIT\"}},\"version\":1}",
			"args": [
				"0xaDa1E1EE4576Da063EAD17d1ACf49254FA881F0E",
				"0xC99C2fCc0dC51dd0dAd1fd7B58236bB4d73bAaa8",
				"0x1081B5AA9D9d4862A3dA4d469433FB36Ed80FA2A"
			],
			"bytecode": "0x60c06040523480156200001157600080fd5b50604051620015b2380380620015b28339810160408190526200003491620000f4565b6001600160a01b03808416608052819081166200006b57604051631e4fbdf760e01b81526000600482015260240160405180910390fd5b62000076816200008b565b50506001600160a01b031660a0525062000148565b600080546001600160a01b038381166001600160a01b0319831681178455604051919092169283917f8be0079c531659141344cd1fd0a4f28419497f9722a3daafe3b4186f6b6457e09190a35050565b6001600160a01b0381168114620000f157600080fd5b50565b6000806000606084860312156200010a57600080fd5b83516200011781620000db565b60208501519093506200012a81620000db565b60408501519092506200013d81620000db565b809150509250925092565b60805160a051611422620001906000396000818160f401528181610290015281816104be0152818161057201526107cd0152600081816102540152610d5501526114226000f3fe608060405234801561001057600080fd5b50600436106100ea5760003560e01c8063862026501161008c578063c5664e2111610066578063c5664e21146101f9578063d17541531461021c578063f2fde38b1461023c578063f434c9141461024f57600080fd5b806386202650146101c25780638da5cb5b146101d5578063a1ed3175146101e657600080fd5b80636e49181f116100c85780636e49181f14610171578063714e7f3214610194578063715018a6146101a7578063821b9fd8146101af57600080fd5b8063293c4999146100ef5780635dd8f6aa1461013357806363d0850a1461015c575b600080fd5b6101167f000000000000000000000000000000000000000000000000000000000000000081565b6040516001600160a01b0390911681526020015b60405180910390f35b6101166101413660046110a4565b6001602052600090815260409020546001600160a01b031681565b61016f61016a3660046110d2565b610276565b005b61018461017f366004611114565b610425565b604051901515815260200161012a565b61016f6101a2366004611114565b6104a4565b61016f61079f565b61016f6101bd366004611144565b6107b3565b6101166101d0366004611114565b610ab8565b6000546001600160a01b0316610116565b61016f6101f43660046111d1565b610be4565b6101846102073660046111ff565b60026020526000908152604090205460ff1681565b61022f61022a3660046110a4565b610c4e565b60405161012a9190611223565b61016f61024a3660046111ff565b610cba565b6101167f000000000000000000000000000000000000000000000000000000000000000081565b6040516331a9108f60e11b81526004810184905261030b907f00000000000000000000000000000000000000000000000000000000000000006001600160a01b031690636352211e90602401602060405180830381865afa1580156102df573d6000803e3d6000fd5b505050506040513d601f19601f820116820180604052508101906103039190611270565b84600f610cfd565b604051633a01714f60e01b8152600481018490526001600160a01b03838116602483015260009190831690633a01714f90604401606060405180830381865afa15801561035c573d6000803e3d6000fd5b505050506040513d601f19601f82011682018060405250810190610380919061128d565b516001600160a01b0316036103a857604051630faa917b60e11b815260040160405180910390fd5b6103b28382610de6565b60008381526004602090815260408083206001600160a01b038681168086529184529382902080546001600160a01b03191694861694851790559051338152909186917fc670a502bbb9f8a4315f95eca901a9f99b65f89a2eb5705a58050e5c00f9d672910160405180910390a4505050565b600082815260036020526040812054815b8181101561049757600085815260036020526040902080546001600160a01b03861691908390811061046a5761046a61131c565b6000918252602090912001546001600160a01b03160361048f5760019250505061049e565b600101610436565b5060009150505b92915050565b6040516331a9108f60e11b81526004810183905261056f907f00000000000000000000000000000000000000000000000000000000000000006001600160a01b031690636352211e90602401602060405180830381865afa15801561050d573d6000803e3d6000fd5b505050506040513d601f19601f820116820180604052508101906105319190611270565b336000908152600260205260409020548490600d9060ff16801561056a57506000868152600160205260409020546001600160a01b0316155b610f9f565b817f00000000000000000000000000000000000000000000000000000000000000006001600160a01b03166306661abd6040518163ffffffff1660e01b8152600401602060405180830381865afa1580156105ce573d6000803e3d6000fd5b505050506040513d601f19601f820116820180604052508101906105f29190611332565b101561061157604051634a283a5360e11b815260040160405180910390fd5b6000828152600160205260408120546001600160a01b0316908115806106a357506040516301ffc9a760e01b8152632877540760e01b60048201526001600160a01b038316906301ffc9a790602401602060405180830381865afa15801561067d573d6000803e3d6000fd5b505050506040513d601f19601f820116820180604052508101906106a1919061134b565b155b61071557604051632674968d60e21b8152600481018590526001600160a01b038316906399d25a3490602401602060405180830381865afa1580156106ec573d6000803e3d6000fd5b505050506040513d601f19601f82011682018060405250810190610710919061134b565b610718565b60015b9050806107385760405163a33db4cb60e01b815260040160405180910390fd5b60008481526001602090815260409182902080546001600160a01b0319166001600160a01b038716908117909155915133815286917f7f9a7dcb234c909a09de2f344661ad9e5b24067adb97c908647c2edcbb121c3091015b60405180910390a350505050565b6107a7610faf565b6107b16000610fdc565b565b6040516331a9108f60e11b815260048101849052610864907f00000000000000000000000000000000000000000000000000000000000000006001600160a01b031690636352211e90602401602060405180830381865afa15801561081c573d6000803e3d6000fd5b505050506040513d601f19601f820116820180604052508101906108409190611270565b6000858152600160205260409020548590600e906001600160a01b03163314610f9f565b6000838152600160205260408082205490516301ffc9a760e01b8152632877540760e01b60048201526001600160a01b03909116919082906301ffc9a790602401602060405180830381865afa1580156108c2573d6000803e3d6000fd5b505050506040513d601f19601f820116820180604052508101906108e6919061134b565b1580610956575060405163b1a50e3360e01b8152600481018690526001600160a01b0383169063b1a50e3390602401602060405180830381865afa158015610932573d6000803e3d6000fd5b505050506040513d601f19601f82011682018060405250810190610956919061134b565b6000868152600160205260409020549091506001600160a01b0316331480159061097e575080155b1561099c576040516375fef35f60e11b815260040160405180910390fd5b60008581526003602052604090206109b590858561102c565b50826001811115610a745760005b81811015610a725760006109d8826001611368565b90505b82811015610a69578686828181106109f5576109f561131c565b9050602002016020810190610a0a91906111ff565b6001600160a01b0316878784818110610a2557610a2561131c565b9050602002016020810190610a3a91906111ff565b6001600160a01b031603610a6157604051633e3830ab60e11b815260040160405180910390fd5b6001016109db565b506001016109c3565b505b857fb648241d83df6540fc10f2acc641e4bf80a1e84e7ae2f1f6b0ad204b8fee635b868633604051610aa893929190611389565b60405180910390a2505050505050565b60008281526004602090815260408083206001600160a01b0380861685529252822054168015801590610af05750610af08482610425565b15610afc57905061049e565b600084815260036020526040812054905b81811015610bd8576000868152600360205260408120805483908110610b3557610b3561131c565b6000918252602082200154604051633a01714f60e01b8152600481018a90526001600160a01b03898116602483015290911692508290633a01714f90604401606060405180830381865afa158015610b91573d6000803e3d6000fd5b505050506040513d601f19601f82011682018060405250810190610bb5919061128d565b516001600160a01b031614610bcf57935061049e92505050565b50600101610b0d565b50600095945050505050565b610bec610faf565b6001600160a01b038216600081815260026020908152604091829020805460ff191685151590811790915591513381529192917f11207664cc48b0fa81c8674795f1d8f642960f38d5d2d305ad813093bed85fab910160405180910390a35050565b600081815260036020908152604091829020805483518184028101840190945280845260609392830182828015610cae57602002820191906000526020600020905b81546001600160a01b03168152600190910190602001808311610c90575b50505050509050919050565b610cc2610faf565b6001600160a01b038116610cf157604051631e4fbdf760e01b8152600060048201526024015b60405180910390fd5b610cfa81610fdc565b50565b336001600160a01b0384168114801590610dc25750604051631a45b42760e11b81526001600160a01b0382811660048301528581166024830152604482018590526064820184905260016084830181905260a48301527f0000000000000000000000000000000000000000000000000000000000000000169063348b684e9060c401602060405180830381865afa158015610d9c573d6000803e3d6000fd5b505050506040513d601f19601f82011682018060405250810190610dc0919061134b565b155b15610de05760405163075fd2b160e01b815260040160405180910390fd5b50505050565b610df08282610425565b15610df9575050565b6000828152600160205260408082205490516301ffc9a760e01b8152632877540760e01b60048201526001600160a01b03909116919082906301ffc9a790602401602060405180830381865afa158015610e57573d6000803e3d6000fd5b505050506040513d601f19601f82011682018060405250810190610e7b919061134b565b1580610eeb575060405163b1a50e3360e01b8152600481018590526001600160a01b0383169063b1a50e3390602401602060405180830381865afa158015610ec7573d6000803e3d6000fd5b505050506040513d601f19601f82011682018060405250810190610eeb919061134b565b6000858152600160205260409020549091506001600160a01b03163314801590610f13575080155b15610f31576040516375fef35f60e11b815260040160405180910390fd5b600084815260036020908152604080832080546001810182559084529282902090920180546001600160a01b0319166001600160a01b038716908117909155915133815286917f409bccc07b7cf7807930526a24318212d614c59f2dde05a017a41efee144e7c89101610791565b80610de057610de0848484610cfd565b6000546001600160a01b031633146107b15760405163118cdaa760e01b8152336004820152602401610ce8565b600080546001600160a01b038381166001600160a01b0319831681178455604051919092169283917f8be0079c531659141344cd1fd0a4f28419497f9722a3daafe3b4186f6b6457e09190a35050565b82805482825590600052602060002090810192821561107f579160200282015b8281111561107f5781546001600160a01b0319166001600160a01b0384351617825560209092019160019091019061104c565b5061108b92915061108f565b5090565b5b8082111561108b5760008155600101611090565b6000602082840312156110b657600080fd5b5035919050565b6001600160a01b0381168114610cfa57600080fd5b6000806000606084860312156110e757600080fd5b8335925060208401356110f9816110bd565b91506040840135611109816110bd565b809150509250925092565b6000806040838503121561112757600080fd5b823591506020830135611139816110bd565b809150509250929050565b60008060006040848603121561115957600080fd5b83359250602084013567ffffffffffffffff8082111561117857600080fd5b818601915086601f83011261118c57600080fd5b81358181111561119b57600080fd5b8760208260051b85010111156111b057600080fd5b6020830194508093505050509250925092565b8015158114610cfa57600080fd5b600080604083850312156111e457600080fd5b82356111ef816110bd565b91506020830135611139816111c3565b60006020828403121561121157600080fd5b813561121c816110bd565b9392505050565b6020808252825182820181905260009190848201906040850190845b818110156112645783516001600160a01b03168352928401929184019160010161123f565b50909695505050505050565b60006020828403121561128257600080fd5b815161121c816110bd565b60006060828403121561129f57600080fd5b6040516060810181811067ffffffffffffffff821117156112d057634e487b7160e01b600052604160045260246000fd5b60405282516112de816110bd565b8152602083015160ff811681146112f457600080fd5b6020820152604083015163ffffffff8116811461131057600080fd5b60408201529392505050565b634e487b7160e01b600052603260045260246000fd5b60006020828403121561134457600080fd5b5051919050565b60006020828403121561135d57600080fd5b815161121c816111c3565b8082018082111561049e57634e487b7160e01b600052601160045260246000fd5b6040808252810183905260008460608301825b868110156113cc5782356113af816110bd565b6001600160a01b031682526020928301929091019060010161139c565b506001600160a01b0394909416602093909301929092525090939250505056fea26469706673582212204d04c05a9e0c5a432caced2b17cfb71656b549ed35f297c64d9a31cd799835e464736f6c63430008170033",
			"deployedBytecode": "0x608060405234801561001057600080fd5b50600436106100ea5760003560e01c8063862026501161008c578063c5664e2111610066578063c5664e21146101f9578063d17541531461021c578063f2fde38b1461023c578063f434c9141461024f57600080fd5b806386202650146101c25780638da5cb5b146101d5578063a1ed3175146101e657600080fd5b80636e49181f116100c85780636e49181f14610171578063714e7f3214610194578063715018a6146101a7578063821b9fd8146101af57600080fd5b8063293c4999146100ef5780635dd8f6aa1461013357806363d0850a1461015c575b600080fd5b6101167f000000000000000000000000c99c2fcc0dc51dd0dad1fd7b58236bb4d73baaa881565b6040516001600160a01b0390911681526020015b60405180910390f35b6101166101413660046110a4565b6001602052600090815260409020546001600160a01b031681565b61016f61016a3660046110d2565b610276565b005b61018461017f366004611114565b610425565b604051901515815260200161012a565b61016f6101a2366004611114565b6104a4565b61016f61079f565b61016f6101bd366004611144565b6107b3565b6101166101d0366004611114565b610ab8565b6000546001600160a01b0316610116565b61016f6101f43660046111d1565b610be4565b6101846102073660046111ff565b60026020526000908152604090205460ff1681565b61022f61022a3660046110a4565b610c4e565b60405161012a9190611223565b61016f61024a3660046111ff565b610cba565b6101167f000000000000000000000000ada1e1ee4576da063ead17d1acf49254fa881f0e81565b6040516331a9108f60e11b81526004810184905261030b907f000000000000000000000000c99c2fcc0dc51dd0dad1fd7b58236bb4d73baaa86001600160a01b031690636352211e90602401602060405180830381865afa1580156102df573d6000803e3d6000fd5b505050506040513d601f19601f820116820180604052508101906103039190611270565b84600f610cfd565b604051633a01714f60e01b8152600481018490526001600160a01b03838116602483015260009190831690633a01714f90604401606060405180830381865afa15801561035c573d6000803e3d6000fd5b505050506040513d601f19601f82011682018060405250810190610380919061128d565b516001600160a01b0316036103a857604051630faa917b60e11b815260040160405180910390fd5b6103b28382610de6565b60008381526004602090815260408083206001600160a01b038681168086529184529382902080546001600160a01b03191694861694851790559051338152909186917fc670a502bbb9f8a4315f95eca901a9f99b65f89a2eb5705a58050e5c00f9d672910160405180910390a4505050565b600082815260036020526040812054815b8181101561049757600085815260036020526040902080546001600160a01b03861691908390811061046a5761046a61131c565b6000918252602090912001546001600160a01b03160361048f5760019250505061049e565b600101610436565b5060009150505b92915050565b6040516331a9108f60e11b81526004810183905261056f907f000000000000000000000000c99c2fcc0dc51dd0dad1fd7b58236bb4d73baaa86001600160a01b031690636352211e90602401602060405180830381865afa15801561050d573d6000803e3d6000fd5b505050506040513d601f19601f820116820180604052508101906105319190611270565b336000908152600260205260409020548490600d9060ff16801561056a57506000868152600160205260409020546001600160a01b0316155b610f9f565b817f000000000000000000000000c99c2fcc0dc51dd0dad1fd7b58236bb4d73baaa86001600160a01b03166306661abd6040518163ffffffff1660e01b8152600401602060405180830381865afa1580156105ce573d6000803e3d6000fd5b505050506040513d601f19601f820116820180604052508101906105f29190611332565b101561061157604051634a283a5360e11b815260040160405180910390fd5b6000828152600160205260408120546001600160a01b0316908115806106a357506040516301ffc9a760e01b8152632877540760e01b60048201526001600160a01b038316906301ffc9a790602401602060405180830381865afa15801561067d573d6000803e3d6000fd5b505050506040513d601f19601f820116820180604052508101906106a1919061134b565b155b61071557604051632674968d60e21b8152600481018590526001600160a01b038316906399d25a3490602401602060405180830381865afa1580156106ec573d6000803e3d6000fd5b505050506040513d601f19601f82011682018060405250810190610710919061134b565b610718565b60015b9050806107385760405163a33db4cb60e01b815260040160405180910390fd5b60008481526001602090815260409182902080546001600160a01b0319166001600160a01b038716908117909155915133815286917f7f9a7dcb234c909a09de2f344661ad9e5b24067adb97c908647c2edcbb121c3091015b60405180910390a350505050565b6107a7610faf565b6107b16000610fdc565b565b6040516331a9108f60e11b815260048101849052610864907f000000000000000000000000c99c2fcc0dc51dd0dad1fd7b58236bb4d73baaa86001600160a01b031690636352211e90602401602060405180830381865afa15801561081c573d6000803e3d6000fd5b505050506040513d601f19601f820116820180604052508101906108409190611270565b6000858152600160205260409020548590600e906001600160a01b03163314610f9f565b6000838152600160205260408082205490516301ffc9a760e01b8152632877540760e01b60048201526001600160a01b03909116919082906301ffc9a790602401602060405180830381865afa1580156108c2573d6000803e3d6000fd5b505050506040513d601f19601f820116820180604052508101906108e6919061134b565b1580610956575060405163b1a50e3360e01b8152600481018690526001600160a01b0383169063b1a50e3390602401602060405180830381865afa158015610932573d6000803e3d6000fd5b505050506040513d601f19601f82011682018060405250810190610956919061134b565b6000868152600160205260409020549091506001600160a01b0316331480159061097e575080155b1561099c576040516375fef35f60e11b815260040160405180910390fd5b60008581526003602052604090206109b590858561102c565b50826001811115610a745760005b81811015610a725760006109d8826001611368565b90505b82811015610a69578686828181106109f5576109f561131c565b9050602002016020810190610a0a91906111ff565b6001600160a01b0316878784818110610a2557610a2561131c565b9050602002016020810190610a3a91906111ff565b6001600160a01b031603610a6157604051633e3830ab60e11b815260040160405180910390fd5b6001016109db565b506001016109c3565b505b857fb648241d83df6540fc10f2acc641e4bf80a1e84e7ae2f1f6b0ad204b8fee635b868633604051610aa893929190611389565b60405180910390a2505050505050565b60008281526004602090815260408083206001600160a01b0380861685529252822054168015801590610af05750610af08482610425565b15610afc57905061049e565b600084815260036020526040812054905b81811015610bd8576000868152600360205260408120805483908110610b3557610b3561131c565b6000918252602082200154604051633a01714f60e01b8152600481018a90526001600160a01b03898116602483015290911692508290633a01714f90604401606060405180830381865afa158015610b91573d6000803e3d6000fd5b505050506040513d601f19601f82011682018060405250810190610bb5919061128d565b516001600160a01b031614610bcf57935061049e92505050565b50600101610b0d565b50600095945050505050565b610bec610faf565b6001600160a01b038216600081815260026020908152604091829020805460ff191685151590811790915591513381529192917f11207664cc48b0fa81c8674795f1d8f642960f38d5d2d305ad813093bed85fab910160405180910390a35050565b600081815260036020908152604091829020805483518184028101840190945280845260609392830182828015610cae57602002820191906000526020600020905b81546001600160a01b03168152600190910190602001808311610c90575b50505050509050919050565b610cc2610faf565b6001600160a01b038116610cf157604051631e4fbdf760e01b8152600060048201526024015b60405180910390fd5b610cfa81610fdc565b50565b336001600160a01b0384168114801590610dc25750604051631a45b42760e11b81526001600160a01b0382811660048301528581166024830152604482018590526064820184905260016084830181905260a48301527f000000000000000000000000ada1e1ee4576da063ead17d1acf49254fa881f0e169063348b684e9060c401602060405180830381865afa158015610d9c573d6000803e3d6000fd5b505050506040513d601f19601f82011682018060405250810190610dc0919061134b565b155b15610de05760405163075fd2b160e01b815260040160405180910390fd5b50505050565b610df08282610425565b15610df9575050565b6000828152600160205260408082205490516301ffc9a760e01b8152632877540760e01b60048201526001600160a01b03909116919082906301ffc9a790602401602060405180830381865afa158015610e57573d6000803e3d6000fd5b505050506040513d601f19601f82011682018060405250810190610e7b919061134b565b1580610eeb575060405163b1a50e3360e01b8152600481018590526001600160a01b0383169063b1a50e3390602401602060405180830381865afa158015610ec7573d6000803e3d6000fd5b505050506040513d601f19601f82011682018060405250810190610eeb919061134b565b6000858152600160205260409020549091506001600160a01b03163314801590610f13575080155b15610f31576040516375fef35f60e11b815260040160405180910390fd5b600084815260036020908152604080832080546001810182559084529282902090920180546001600160a01b0319166001600160a01b038716908117909155915133815286917f409bccc07b7cf7807930526a24318212d614c59f2dde05a017a41efee144e7c89101610791565b80610de057610de0848484610cfd565b6000546001600160a01b031633146107b15760405163118cdaa760e01b8152336004820152602401610ce8565b600080546001600160a01b038381166001600160a01b0319831681178455604051919092169283917f8be0079c531659141344cd1fd0a4f28419497f9722a3daafe3b4186f6b6457e09190a35050565b82805482825590600052602060002090810192821561107f579160200282015b8281111561107f5781546001600160a01b0319166001600160a01b0384351617825560209092019160019091019061104c565b5061108b92915061108f565b5090565b5b8082111561108b5760008155600101611090565b6000602082840312156110b657600080fd5b5035919050565b6001600160a01b0381168114610cfa57600080fd5b6000806000606084860312156110e757600080fd5b8335925060208401356110f9816110bd565b91506040840135611109816110bd565b809150509250925092565b6000806040838503121561112757600080fd5b823591506020830135611139816110bd565b809150509250929050565b60008060006040848603121561115957600080fd5b83359250602084013567ffffffffffffffff8082111561117857600080fd5b818601915086601f83011261118c57600080fd5b81358181111561119b57600080fd5b8760208260051b85010111156111b057600080fd5b6020830194508093505050509250925092565b8015158114610cfa57600080fd5b600080604083850312156111e457600080fd5b82356111ef816110bd565b91506020830135611139816111c3565b60006020828403121561121157600080fd5b813561121c816110bd565b9392505050565b6020808252825182820181905260009190848201906040850190845b818110156112645783516001600160a01b03168352928401929184019160010161123f565b50909695505050505050565b60006020828403121561128257600080fd5b815161121c816110bd565b60006060828403121561129f57600080fd5b6040516060810181811067ffffffffffffffff821117156112d057634e487b7160e01b600052604160045260246000fd5b60405282516112de816110bd565b8152602083015160ff811681146112f457600080fd5b6020820152604083015163ffffffff8116811461131057600080fd5b60408201529392505050565b634e487b7160e01b600052603260045260246000fd5b60006020828403121561134457600080fd5b5051919050565b60006020828403121561135d57600080fd5b815161121c816111c3565b8082018082111561049e57634e487b7160e01b600052601160045260246000fd5b6040808252810183905260008460608301825b868110156113cc5782356113af816110bd565b6001600160a01b031682526020928301929091019060010161139c565b506001600160a01b0394909416602093909301929092525090939250505056fea26469706673582212204d04c05a9e0c5a432caced2b17cfb71656b549ed35f297c64d9a31cd799835e464736f6c63430008170033",
			"devdoc": {
				"kind": "dev",
				"methods": {
					"constructor": {
						"params": {
							"owner": "The address that will own the contract.",
							"permissions": "A contract storing permissions.",
							"projects": "A contract which mints ERC-721s that represent project ownership and transfers."
						}
					},
					"isTerminalOf(uint256,address)": {
						"params": {
							"projectId": "The ID of the project to check.",
							"terminal": "The terminal to check for."
						},
						"returns": {
							"_0": "A flag indicating whether the project uses the terminal."
						}
					},
					"owner()": {
						"details": "Returns the address of the current owner."
					},
					"primaryTerminalOf(uint256,address)": {
						"details": "Returns the first terminal that accepts the token if the project hasn't explicitly set a primary terminal for it.Returns the zero address if no terminal accepts the token.",
						"params": {
							"projectId": "The ID of the project to get the primary terminal of.",
							"token": "The token that the terminal accepts."
						},
						"returns": {
							"_0": "The primary terminal's address."
						}
					},
					"renounceOwnership()": {
						"details": "Leaves the contract without owner. It will not be possible to call `onlyOwner` functions. Can only be called by the current owner. NOTE: Renouncing ownership will leave the contract without an owner, thereby disabling any functionality that is only available to the owner."
					},
					"setControllerOf(uint256,address)": {
						"details": "Can only be called if: - The ruleset's metadata has `allowSetController` enabled, and the message's sender is the project's owner or an address with the owner's permission to `SET_CONTROLLER`. - OR the message's sender is the project's current controller. - OR an address which `isAllowedToSetFirstController` is setting a project's first controller.",
						"params": {
							"controller": "The address of the controller to set.",
							"projectId": "The ID of the project whose controller is being set."
						}
					},
					"setIsAllowedToSetFirstController(address,bool)": {
						"details": "Only this contract's owner can call this function.These addresses are vetted controllers as well as contracts designed to launch new projects.A project can set its own controller without being on this list.If you would like to add an address/contract to this list, please reach out to this contract's owner.",
						"params": {
							"addr": "The address to allow or not allow.",
							"flag": "Whether the address is allowed to set first controllers for projects. Use `true` to allow and `false` to not allow."
						}
					},
					"setPrimaryTerminalOf(uint256,address,address)": {
						"details": "The primary terminal for a token is where payments in that token are routed to by default.This is useful in cases where a project has multiple terminals which accept the same token.Can only be called by the project's owner, or an address with the owner's permission to `SET_PRIMARY_TERMINAL`.",
						"params": {
							"projectId": "The ID of the project whose primary terminal is being set.",
							"terminal": "The terminal being set as the primary terminal.",
							"token": "The token to set the primary terminal for."
						}
					},
					"setTerminalsOf(uint256,address[])": {
						"details": "Can only be called by the project's owner, an address with the owner's permission to `SET_TERMINALS`, or the project's controller.Unless the caller is the project's controller, the project's ruleset must allow setting terminals.",
						"params": {
							"projectId": "The ID of the project whose terminals are being set.",
							"terminals": "An array of terminal addresses to set for the project."
						}
					},
					"terminalsOf(uint256)": {
						"params": {
							"projectId": "The ID of the project to get the terminals of."
						},
						"returns": {
							"_0": "An array of the project's terminal addresses."
						}
					},
					"transferOwnership(address)": {
						"details": "Transfers ownership of the contract to a new account (`newOwner`). Can only be called by the current owner."
					}
				},
				"version": 1
			},
			"userdoc": {
				"kind": "user",
				"methods": {
					"PERMISSIONS()": {
						"notice": "A contract storing permissions."
					},
					"PROJECTS()": {
						"notice": "Mints ERC-721s that represent project ownership and transfers."
					},
					"controllerOf(uint256)": {
						"notice": "The specified project's controller, which dictates how its terminals interact with its tokens and rulesets."
					},
					"isAllowedToSetFirstController(address)": {
						"notice": "Whether the specified address is allowed to set a project's first controller on their behalf."
					},
					"isTerminalOf(uint256,address)": {
						"notice": "Check if a project uses a specific terminal."
					},
					"primaryTerminalOf(uint256,address)": {
						"notice": "The primary terminal that a project uses for the specified token."
					},
					"setControllerOf(uint256,address)": {
						"notice": "Set a project's controller. Controllers manage how terminals interact with tokens and rulesets."
					},
					"setIsAllowedToSetFirstController(address,bool)": {
						"notice": "Add or remove an address/contract from a list of trusted addresses which are allowed to set a first controller for projects."
					},
					"setPrimaryTerminalOf(uint256,address,address)": {
						"notice": "Set a project's primary terminal for a token."
					},
					"setTerminalsOf(uint256,address[])": {
						"notice": "Set a project's terminals."
					},
					"terminalsOf(uint256)": {
						"notice": "The specified project's terminals."
					}
				},
				"version": 1
			},
			"gitCommit": "bc6005ccb14408c1b996cf6facda0642da82e682",
			"sourceName": "src/JBDirectory.sol",
			"chainId": "11155111",
			"linkReferences": {},
			"deployedLinkReferences": {}
		}
	]
}