{
	"_format": "sphinx-sol-ct-artifact-1",
	"merkleRoot": "0x7bd9f2c1196de189f5c3cc49509da51a5c3d19c2ccc24e5ab4f96f008debc40c",
	"contractName": "JBFeelessAddresses",
	"address": "0x94F479657e787f1A37a5D591a3377502E63c1248",
	"abi": [
		{
			"type": "constructor",
			"inputs": [
				{
					"name": "owner",
					"type": "address",
					"internalType": "address"
				}
			],
			"stateMutability": "nonpayable"
		},
		{
			"type": "function",
			"name": "isFeeless",
			"inputs": [
				{
					"name": "addr",
					"type": "address",
					"internalType": "address"
				}
			],
			"outputs": [
				{
					"name": "",
					"type": "bool",
					"internalType": "bool"
				}
			],
			"stateMutability": "view"
		},
		{
			"type": "function",
			"name": "owner",
			"inputs": [],
			"outputs": [
				{
					"name": "",
					"type": "address",
					"internalType": "address"
				}
			],
			"stateMutability": "view"
		},
		{
			"type": "function",
			"name": "renounceOwnership",
			"inputs": [],
			"outputs": [],
			"stateMutability": "nonpayable"
		},
		{
			"type": "function",
			"name": "setFeelessAddress",
			"inputs": [
				{
					"name": "addr",
					"type": "address",
					"internalType": "address"
				},
				{
					"name": "flag",
					"type": "bool",
					"internalType": "bool"
				}
			],
			"outputs": [],
			"stateMutability": "nonpayable"
		},
		{
			"type": "function",
			"name": "supportsInterface",
			"inputs": [
				{
					"name": "interfaceId",
					"type": "bytes4",
					"internalType": "bytes4"
				}
			],
			"outputs": [
				{
					"name": "",
					"type": "bool",
					"internalType": "bool"
				}
			],
			"stateMutability": "view"
		},
		{
			"type": "function",
			"name": "transferOwnership",
			"inputs": [
				{
					"name": "newOwner",
					"type": "address",
					"internalType": "address"
				}
			],
			"outputs": [],
			"stateMutability": "nonpayable"
		},
		{
			"type": "event",
			"name": "OwnershipTransferred",
			"inputs": [
				{
					"name": "previousOwner",
					"type": "address",
					"indexed": true,
					"internalType": "address"
				},
				{
					"name": "newOwner",
					"type": "address",
					"indexed": true,
					"internalType": "address"
				}
			],
			"anonymous": false
		},
		{
			"type": "event",
			"name": "SetFeelessAddress",
			"inputs": [
				{
					"name": "account",
					"type": "address",
					"indexed": true,
					"internalType": "address"
				},
				{
					"name": "isFeeless",
					"type": "bool",
					"indexed": true,
					"internalType": "bool"
				},
				{
					"name": "caller",
					"type": "address",
					"indexed": false,
					"internalType": "address"
				}
			],
			"anonymous": false
		},
		{
			"type": "error",
			"name": "OwnableInvalidOwner",
			"inputs": [
				{
					"name": "owner",
					"type": "address",
					"internalType": "address"
				}
			]
		},
		{
			"type": "error",
			"name": "OwnableUnauthorizedAccount",
			"inputs": [
				{
					"name": "account",
					"type": "address",
					"internalType": "address"
				}
			]
		}
	],
	"solcInputHash": "1da298823f858e48974af7472fc9a65b",
	"args": [
		"0x1081B5AA9D9d4862A3dA4d469433FB36Ed80FA2A"
	],
	"bytecode": "0x608060405234801561001057600080fd5b5060405161045038038061045083398101604081905261002f916100be565b806001600160a01b03811661005e57604051631e4fbdf760e01b81526000600482015260240160405180910390fd5b6100678161006e565b50506100ee565b600080546001600160a01b038381166001600160a01b0319831681178455604051919092169283917f8be0079c531659141344cd1fd0a4f28419497f9722a3daafe3b4186f6b6457e09190a35050565b6000602082840312156100d057600080fd5b81516001600160a01b03811681146100e757600080fd5b9392505050565b610353806100fd6000396000f3fe608060405234801561001057600080fd5b50600436106100625760003560e01c806301ffc9a714610067578063715018a61461008f5780637258002c146100995780638da5cb5b146100ac578063ae74a1b5146100c7578063f2fde38b146100ea575b600080fd5b61007a610075366004610279565b6100fd565b60405190151581526020015b60405180910390f35b610097610134565b005b6100976100a73660046102c6565b610148565b6000546040516001600160a01b039091168152602001610086565b61007a6100d5366004610302565b60016020526000908152604090205460ff1681565b6100976100f8366004610302565b6101b9565b60006001600160e01b0319821663dc2ca19960e01b148061012e57506001600160e01b031982166301ffc9a760e01b145b92915050565b61013c6101fc565b6101466000610229565b565b6101506101fc565b6001600160a01b0382166000818152600160205260409020805460ff1916831515908117909155907fa2653e25a502c023a5830d0de847ef6f458387865b1f4f575d7594f9f2c0d71e336040516001600160a01b03909116815260200160405180910390a35050565b6101c16101fc565b6001600160a01b0381166101f057604051631e4fbdf760e01b8152600060048201526024015b60405180910390fd5b6101f981610229565b50565b6000546001600160a01b031633146101465760405163118cdaa760e01b81523360048201526024016101e7565b600080546001600160a01b038381166001600160a01b0319831681178455604051919092169283917f8be0079c531659141344cd1fd0a4f28419497f9722a3daafe3b4186f6b6457e09190a35050565b60006020828403121561028b57600080fd5b81356001600160e01b0319811681146102a357600080fd5b9392505050565b80356001600160a01b03811681146102c157600080fd5b919050565b600080604083850312156102d957600080fd5b6102e2836102aa565b9150602083013580151581146102f757600080fd5b809150509250929050565b60006020828403121561031457600080fd5b6102a3826102aa56fea26469706673582212205a7c3fbfc1c5424816fdd58fb61c09f87cecd7163328bdb854cabc41c9313cd664736f6c63430008170033",
	"devdoc": {
		"kind": "dev",
		"methods": {
			"constructor": {
				"params": {
					"owner": "This contract's owner."
				}
			},
			"owner()": {
				"details": "Returns the address of the current owner."
			},
			"renounceOwnership()": {
				"details": "Leaves the contract without owner. It will not be possible to call `onlyOwner` functions. Can only be called by the current owner. NOTE: Renouncing ownership will leave the contract without an owner, thereby disabling any functionality that is only available to the owner."
			},
			"setFeelessAddress(address,bool)": {
				"details": "Can only be called by this contract's owner.",
				"params": {
					"addr": "The address to set as feeless or not feeless.",
					"flag": "Whether the address should be feeless (`true`) or not feeless (`false`)."
				}
			},
			"supportsInterface(bytes4)": {
				"details": "See {IERC165-supportsInterface}.",
				"params": {
					"interfaceId": "The ID of the interface to check for adherence to."
				},
				"returns": {
					"_0": "A flag indicating if the provided interface ID is supported."
				}
			},
			"transferOwnership(address)": {
				"details": "Transfers ownership of the contract to a new account (`newOwner`). Can only be called by the current owner."
			}
		},
		"version": 1
	},
	"userdoc": {
		"kind": "user",
		"methods": {
			"isFeeless(address)": {
				"notice": "Check if the specified address is feeless."
			},
			"setFeelessAddress(address,bool)": {
				"notice": "Sets whether an address is feeless."
			},
			"supportsInterface(bytes4)": {
				"notice": "Indicates whether this contract adheres to the specified interface."
			}
		},
		"version": 1
	},
	"gitCommit": "774c5cf064c93d6e7ed94e8a207edc157619a527",
	"sourceName": "src/JBFeelessAddresses.sol",
	"chainId": "11155111",
	"linkReferences": {},
	"deployedLinkReferences": {},
	"history": [
		{
			"_format": "sphinx-sol-ct-artifact-1",
			"merkleRoot": "0x58025795c33f9e0121b492c9ea8dc31dc6803cc81b9066cd376333e802464741",
			"contractName": "JBFeelessAddresses",
			"address": "0xEe80091E7c8E7C9764Ad8ccc94F978B15d7cc841",
			"abi": [
				{
					"type": "constructor",
					"inputs": [
						{
							"name": "owner",
							"type": "address",
							"internalType": "address"
						}
					],
					"stateMutability": "nonpayable"
				},
				{
					"type": "function",
					"name": "isFeeless",
					"inputs": [
						{
							"name": "addr",
							"type": "address",
							"internalType": "address"
						}
					],
					"outputs": [
						{
							"name": "",
							"type": "bool",
							"internalType": "bool"
						}
					],
					"stateMutability": "view"
				},
				{
					"type": "function",
					"name": "owner",
					"inputs": [],
					"outputs": [
						{
							"name": "",
							"type": "address",
							"internalType": "address"
						}
					],
					"stateMutability": "view"
				},
				{
					"type": "function",
					"name": "renounceOwnership",
					"inputs": [],
					"outputs": [],
					"stateMutability": "nonpayable"
				},
				{
					"type": "function",
					"name": "setFeelessAddress",
					"inputs": [
						{
							"name": "addr",
							"type": "address",
							"internalType": "address"
						},
						{
							"name": "flag",
							"type": "bool",
							"internalType": "bool"
						}
					],
					"outputs": [],
					"stateMutability": "nonpayable"
				},
				{
					"type": "function",
					"name": "supportsInterface",
					"inputs": [
						{
							"name": "interfaceId",
							"type": "bytes4",
							"internalType": "bytes4"
						}
					],
					"outputs": [
						{
							"name": "",
							"type": "bool",
							"internalType": "bool"
						}
					],
					"stateMutability": "view"
				},
				{
					"type": "function",
					"name": "transferOwnership",
					"inputs": [
						{
							"name": "newOwner",
							"type": "address",
							"internalType": "address"
						}
					],
					"outputs": [],
					"stateMutability": "nonpayable"
				},
				{
					"type": "event",
					"name": "OwnershipTransferred",
					"inputs": [
						{
							"name": "previousOwner",
							"type": "address",
							"indexed": true,
							"internalType": "address"
						},
						{
							"name": "newOwner",
							"type": "address",
							"indexed": true,
							"internalType": "address"
						}
					],
					"anonymous": false
				},
				{
					"type": "event",
					"name": "SetFeelessAddress",
					"inputs": [
						{
							"name": "account",
							"type": "address",
							"indexed": true,
							"internalType": "address"
						},
						{
							"name": "isFeeless",
							"type": "bool",
							"indexed": true,
							"internalType": "bool"
						},
						{
							"name": "caller",
							"type": "address",
							"indexed": false,
							"internalType": "address"
						}
					],
					"anonymous": false
				},
				{
					"type": "error",
					"name": "OwnableInvalidOwner",
					"inputs": [
						{
							"name": "owner",
							"type": "address",
							"internalType": "address"
						}
					]
				},
				{
					"type": "error",
					"name": "OwnableUnauthorizedAccount",
					"inputs": [
						{
							"name": "account",
							"type": "address",
							"internalType": "address"
						}
					]
				}
			],
			"solcInputHash": "b2112d617c776ac2cceb92d11c578094",
			"receipt": {
				"blockHash": "0x2bf24714ce26de950e7b1e43566cfa923f9ca3cef0cecf7a9193e1a6543c9a76",
				"blockNumber": 5424382,
				"contractAddress": null,
				"cumulativeGasUsed": "16393579",
				"from": "0xC034550B542b83BA1De312b21d1C94a9a52B1595",
				"gasPrice": "1014514380",
				"gasUsed": "9789398",
				"hash": "0x482002e76564007450fb62fa0bb8747304817fade7f758155ccc3aabbd93c61e",
				"index": 60,
				"logs": [
					{
						"address": "0xB5E96127D417b1B3ef8438496a38A143167209c7",
						"blockHash": "0x2bf24714ce26de950e7b1e43566cfa923f9ca3cef0cecf7a9193e1a6543c9a76",
						"blockNumber": 5424382,
						"data": "0x0000000000000000000000000000000000000000000000000000000000000000",
						"index": 67,
						"topics": [
							"0x572f161235911da04685a68c06adf558fc7e4a36909dca394650e0adc19cc93d",
							"0x000000000000000000000000c034550b542b83ba1de312b21d1c94a9a52b1595",
							"0x000000000000000000000000ef1be3c049809cace5bc203bbe4ec1ab284bf75c",
							"0x6daf75799cd1798b187fd5ba7fad6ef446eee635c5906fc027f3e7704902c8f0"
						],
						"transactionHash": "0x482002e76564007450fb62fa0bb8747304817fade7f758155ccc3aabbd93c61e",
						"transactionIndex": 60
					},
					{
						"address": "0x1081B5AA9D9d4862A3dA4d469433FB36Ed80FA2A",
						"blockHash": "0x2bf24714ce26de950e7b1e43566cfa923f9ca3cef0cecf7a9193e1a6543c9a76",
						"blockNumber": 5424382,
						"data": "0x000000000000000000000000daf6226aafe296bbccbec815133386cd910ed582",
						"index": 68,
						"topics": [
							"0x4db17dd5e4732fb6da34a148104a592783ca119a1e7bb8829eba6cbadef0b511"
						],
						"transactionHash": "0x482002e76564007450fb62fa0bb8747304817fade7f758155ccc3aabbd93c61e",
						"transactionIndex": 60
					},
					{
						"address": "0x1081B5AA9D9d4862A3dA4d469433FB36Ed80FA2A",
						"blockHash": "0x2bf24714ce26de950e7b1e43566cfa923f9ca3cef0cecf7a9193e1a6543c9a76",
						"blockNumber": 5424382,
						"data": "0x",
						"index": 69,
						"topics": [
							"0x6895c13664aa4f67288b25d7a21d7aaa34916e355fb9b6fae0a139a9085becb8",
							"0x000000000000000000000000ef1be3c049809cace5bc203bbe4ec1ab284bf75c"
						],
						"transactionHash": "0x482002e76564007450fb62fa0bb8747304817fade7f758155ccc3aabbd93c61e",
						"transactionIndex": 60
					},
					{
						"address": "0xEf1Be3C049809caCe5Bc203BBe4Ec1Ab284bF75c",
						"blockHash": "0x2bf24714ce26de950e7b1e43566cfa923f9ca3cef0cecf7a9193e1a6543c9a76",
						"blockNumber": 5424382,
						"data": "0x0000000000000000000000000000000000000000000000000000000000000009",
						"index": 70,
						"topics": [
							"0xa65fb05c5808f5f389d72edeaf719ce38f4cc55c1f69ca3cbfb31c21501caa07",
							"0x58025795c33f9e0121b492c9ea8dc31dc6803cc81b9066cd376333e802464741"
						],
						"transactionHash": "0x482002e76564007450fb62fa0bb8747304817fade7f758155ccc3aabbd93c61e",
						"transactionIndex": 60
					},
					{
						"address": "0x18017cfeD48E1dC0Adc445cEF8A9e6AfFCb330DA",
						"blockHash": "0x2bf24714ce26de950e7b1e43566cfa923f9ca3cef0cecf7a9193e1a6543c9a76",
						"blockNumber": 5424382,
						"data": "0x0000000000000000000000001081b5aa9d9d4862a3da4d469433fb36ed80fa2a",
						"index": 71,
						"topics": [
							"0x11207664cc48b0fa81c8674795f1d8f642960f38d5d2d305ad813093bed85fab",
							"0x000000000000000000000000daf6226aafe296bbccbec815133386cd910ed582",
							"0x0000000000000000000000000000000000000000000000000000000000000001"
						],
						"transactionHash": "0x482002e76564007450fb62fa0bb8747304817fade7f758155ccc3aabbd93c61e",
						"transactionIndex": 60
					},
					{
						"address": "0x1081B5AA9D9d4862A3dA4d469433FB36Ed80FA2A",
						"blockHash": "0x2bf24714ce26de950e7b1e43566cfa923f9ca3cef0cecf7a9193e1a6543c9a76",
						"blockNumber": 5424382,
						"data": "0x",
						"index": 72,
						"topics": [
							"0x6895c13664aa4f67288b25d7a21d7aaa34916e355fb9b6fae0a139a9085becb8",
							"0x000000000000000000000000ef1be3c049809cace5bc203bbe4ec1ab284bf75c"
						],
						"transactionHash": "0x482002e76564007450fb62fa0bb8747304817fade7f758155ccc3aabbd93c61e",
						"transactionIndex": 60
					},
					{
						"address": "0xEf1Be3C049809caCe5Bc203BBe4Ec1Ab284bF75c",
						"blockHash": "0x2bf24714ce26de950e7b1e43566cfa923f9ca3cef0cecf7a9193e1a6543c9a76",
						"blockNumber": 5424382,
						"data": "0x000000000000000000000000000000000000000000000000000000000000000a",
						"index": 73,
						"topics": [
							"0xa65fb05c5808f5f389d72edeaf719ce38f4cc55c1f69ca3cbfb31c21501caa07",
							"0x58025795c33f9e0121b492c9ea8dc31dc6803cc81b9066cd376333e802464741"
						],
						"transactionHash": "0x482002e76564007450fb62fa0bb8747304817fade7f758155ccc3aabbd93c61e",
						"transactionIndex": 60
					},
					{
						"address": "0x18017cfeD48E1dC0Adc445cEF8A9e6AfFCb330DA",
						"blockHash": "0x2bf24714ce26de950e7b1e43566cfa923f9ca3cef0cecf7a9193e1a6543c9a76",
						"blockNumber": 5424382,
						"data": "0x",
						"index": 74,
						"topics": [
							"0x8be0079c531659141344cd1fd0a4f28419497f9722a3daafe3b4186f6b6457e0",
							"0x0000000000000000000000001081b5aa9d9d4862a3da4d469433fb36ed80fa2a",
							"0x000000000000000000000000823b92d6a4b2aed4b15675c7917c9f922ea8adad"
						],
						"transactionHash": "0x482002e76564007450fb62fa0bb8747304817fade7f758155ccc3aabbd93c61e",
						"transactionIndex": 60
					},
					{
						"address": "0x1081B5AA9D9d4862A3dA4d469433FB36Ed80FA2A",
						"blockHash": "0x2bf24714ce26de950e7b1e43566cfa923f9ca3cef0cecf7a9193e1a6543c9a76",
						"blockNumber": 5424382,
						"data": "0x",
						"index": 75,
						"topics": [
							"0x6895c13664aa4f67288b25d7a21d7aaa34916e355fb9b6fae0a139a9085becb8",
							"0x000000000000000000000000ef1be3c049809cace5bc203bbe4ec1ab284bf75c"
						],
						"transactionHash": "0x482002e76564007450fb62fa0bb8747304817fade7f758155ccc3aabbd93c61e",
						"transactionIndex": 60
					},
					{
						"address": "0xEf1Be3C049809caCe5Bc203BBe4Ec1Ab284bF75c",
						"blockHash": "0x2bf24714ce26de950e7b1e43566cfa923f9ca3cef0cecf7a9193e1a6543c9a76",
						"blockNumber": 5424382,
						"data": "0x000000000000000000000000000000000000000000000000000000000000000b",
						"index": 76,
						"topics": [
							"0xa65fb05c5808f5f389d72edeaf719ce38f4cc55c1f69ca3cbfb31c21501caa07",
							"0x58025795c33f9e0121b492c9ea8dc31dc6803cc81b9066cd376333e802464741"
						],
						"transactionHash": "0x482002e76564007450fb62fa0bb8747304817fade7f758155ccc3aabbd93c61e",
						"transactionIndex": 60
					},
					{
						"address": "0x0631183bd45c31F8645F9dCF8705951F730362E9",
						"blockHash": "0x2bf24714ce26de950e7b1e43566cfa923f9ca3cef0cecf7a9193e1a6543c9a76",
						"blockNumber": 5424382,
						"data": "0x",
						"index": 77,
						"topics": [
							"0x8be0079c531659141344cd1fd0a4f28419497f9722a3daafe3b4186f6b6457e0",
							"0x0000000000000000000000000000000000000000000000000000000000000000",
							"0x000000000000000000000000823b92d6a4b2aed4b15675c7917c9f922ea8adad"
						],
						"transactionHash": "0x482002e76564007450fb62fa0bb8747304817fade7f758155ccc3aabbd93c61e",
						"transactionIndex": 60
					},
					{
						"address": "0x1081B5AA9D9d4862A3dA4d469433FB36Ed80FA2A",
						"blockHash": "0x2bf24714ce26de950e7b1e43566cfa923f9ca3cef0cecf7a9193e1a6543c9a76",
						"blockNumber": 5424382,
						"data": "0x0000000000000000000000000631183bd45c31f8645f9dcf8705951f730362e9",
						"index": 78,
						"topics": [
							"0x4db17dd5e4732fb6da34a148104a592783ca119a1e7bb8829eba6cbadef0b511"
						],
						"transactionHash": "0x482002e76564007450fb62fa0bb8747304817fade7f758155ccc3aabbd93c61e",
						"transactionIndex": 60
					},
					{
						"address": "0x1081B5AA9D9d4862A3dA4d469433FB36Ed80FA2A",
						"blockHash": "0x2bf24714ce26de950e7b1e43566cfa923f9ca3cef0cecf7a9193e1a6543c9a76",
						"blockNumber": 5424382,
						"data": "0x",
						"index": 79,
						"topics": [
							"0x6895c13664aa4f67288b25d7a21d7aaa34916e355fb9b6fae0a139a9085becb8",
							"0x000000000000000000000000ef1be3c049809cace5bc203bbe4ec1ab284bf75c"
						],
						"transactionHash": "0x482002e76564007450fb62fa0bb8747304817fade7f758155ccc3aabbd93c61e",
						"transactionIndex": 60
					},
					{
						"address": "0xEf1Be3C049809caCe5Bc203BBe4Ec1Ab284bF75c",
						"blockHash": "0x2bf24714ce26de950e7b1e43566cfa923f9ca3cef0cecf7a9193e1a6543c9a76",
						"blockNumber": 5424382,
						"data": "0x000000000000000000000000000000000000000000000000000000000000000c",
						"index": 80,
						"topics": [
							"0xa65fb05c5808f5f389d72edeaf719ce38f4cc55c1f69ca3cbfb31c21501caa07",
							"0x58025795c33f9e0121b492c9ea8dc31dc6803cc81b9066cd376333e802464741"
						],
						"transactionHash": "0x482002e76564007450fb62fa0bb8747304817fade7f758155ccc3aabbd93c61e",
						"transactionIndex": 60
					},
					{
						"address": "0x1081B5AA9D9d4862A3dA4d469433FB36Ed80FA2A",
						"blockHash": "0x2bf24714ce26de950e7b1e43566cfa923f9ca3cef0cecf7a9193e1a6543c9a76",
						"blockNumber": 5424382,
						"data": "0x000000000000000000000000a0d811360b0d49be8d33309d6eae03d072e30312",
						"index": 81,
						"topics": [
							"0x4db17dd5e4732fb6da34a148104a592783ca119a1e7bb8829eba6cbadef0b511"
						],
						"transactionHash": "0x482002e76564007450fb62fa0bb8747304817fade7f758155ccc3aabbd93c61e",
						"transactionIndex": 60
					},
					{
						"address": "0x1081B5AA9D9d4862A3dA4d469433FB36Ed80FA2A",
						"blockHash": "0x2bf24714ce26de950e7b1e43566cfa923f9ca3cef0cecf7a9193e1a6543c9a76",
						"blockNumber": 5424382,
						"data": "0x",
						"index": 82,
						"topics": [
							"0x6895c13664aa4f67288b25d7a21d7aaa34916e355fb9b6fae0a139a9085becb8",
							"0x000000000000000000000000ef1be3c049809cace5bc203bbe4ec1ab284bf75c"
						],
						"transactionHash": "0x482002e76564007450fb62fa0bb8747304817fade7f758155ccc3aabbd93c61e",
						"transactionIndex": 60
					},
					{
						"address": "0xEf1Be3C049809caCe5Bc203BBe4Ec1Ab284bF75c",
						"blockHash": "0x2bf24714ce26de950e7b1e43566cfa923f9ca3cef0cecf7a9193e1a6543c9a76",
						"blockNumber": 5424382,
						"data": "0x000000000000000000000000000000000000000000000000000000000000000d",
						"index": 83,
						"topics": [
							"0xa65fb05c5808f5f389d72edeaf719ce38f4cc55c1f69ca3cbfb31c21501caa07",
							"0x58025795c33f9e0121b492c9ea8dc31dc6803cc81b9066cd376333e802464741"
						],
						"transactionHash": "0x482002e76564007450fb62fa0bb8747304817fade7f758155ccc3aabbd93c61e",
						"transactionIndex": 60
					},
					{
						"address": "0xEe80091E7c8E7C9764Ad8ccc94F978B15d7cc841",
						"blockHash": "0x2bf24714ce26de950e7b1e43566cfa923f9ca3cef0cecf7a9193e1a6543c9a76",
						"blockNumber": 5424382,
						"data": "0x",
						"index": 84,
						"topics": [
							"0x8be0079c531659141344cd1fd0a4f28419497f9722a3daafe3b4186f6b6457e0",
							"0x0000000000000000000000000000000000000000000000000000000000000000",
							"0x000000000000000000000000823b92d6a4b2aed4b15675c7917c9f922ea8adad"
						],
						"transactionHash": "0x482002e76564007450fb62fa0bb8747304817fade7f758155ccc3aabbd93c61e",
						"transactionIndex": 60
					},
					{
						"address": "0x1081B5AA9D9d4862A3dA4d469433FB36Ed80FA2A",
						"blockHash": "0x2bf24714ce26de950e7b1e43566cfa923f9ca3cef0cecf7a9193e1a6543c9a76",
						"blockNumber": 5424382,
						"data": "0x000000000000000000000000ee80091e7c8e7c9764ad8ccc94f978b15d7cc841",
						"index": 85,
						"topics": [
							"0x4db17dd5e4732fb6da34a148104a592783ca119a1e7bb8829eba6cbadef0b511"
						],
						"transactionHash": "0x482002e76564007450fb62fa0bb8747304817fade7f758155ccc3aabbd93c61e",
						"transactionIndex": 60
					},
					{
						"address": "0x1081B5AA9D9d4862A3dA4d469433FB36Ed80FA2A",
						"blockHash": "0x2bf24714ce26de950e7b1e43566cfa923f9ca3cef0cecf7a9193e1a6543c9a76",
						"blockNumber": 5424382,
						"data": "0x",
						"index": 86,
						"topics": [
							"0x6895c13664aa4f67288b25d7a21d7aaa34916e355fb9b6fae0a139a9085becb8",
							"0x000000000000000000000000ef1be3c049809cace5bc203bbe4ec1ab284bf75c"
						],
						"transactionHash": "0x482002e76564007450fb62fa0bb8747304817fade7f758155ccc3aabbd93c61e",
						"transactionIndex": 60
					},
					{
						"address": "0xEf1Be3C049809caCe5Bc203BBe4Ec1Ab284bF75c",
						"blockHash": "0x2bf24714ce26de950e7b1e43566cfa923f9ca3cef0cecf7a9193e1a6543c9a76",
						"blockNumber": 5424382,
						"data": "0x000000000000000000000000000000000000000000000000000000000000000e",
						"index": 87,
						"topics": [
							"0xa65fb05c5808f5f389d72edeaf719ce38f4cc55c1f69ca3cbfb31c21501caa07",
							"0x58025795c33f9e0121b492c9ea8dc31dc6803cc81b9066cd376333e802464741"
						],
						"transactionHash": "0x482002e76564007450fb62fa0bb8747304817fade7f758155ccc3aabbd93c61e",
						"transactionIndex": 60
					}
				],
				"logsBloom": "0x00000010080010008008000000080000000000000008000000800000004000000060008000000000000000000040000080000000000100000000000000040800000000000000200400000008820000000001000020040000000200000000000000020000020000000000000000000800000000100021000000000008000000400001000000000000000100800000000200000000000000000000804000000020004000081010000000000000000000020208c00000000080000000000006000000000000000000200080000008000000000000000000040000000002000060000000000000000004000000000000000200000000000000000000000000000000",
				"status": 1,
				"to": "0xB5E96127D417b1B3ef8438496a38A143167209c7"
			},
			"metadata": "{\"compiler\":{\"version\":\"0.8.23+commit.f704f362\"},\"language\":\"Solidity\",\"output\":{\"abi\":[{\"inputs\":[{\"internalType\":\"address\",\"name\":\"owner\",\"type\":\"address\"}],\"stateMutability\":\"nonpayable\",\"type\":\"constructor\"},{\"inputs\":[{\"internalType\":\"address\",\"name\":\"owner\",\"type\":\"address\"}],\"type\":\"error\",\"name\":\"OwnableInvalidOwner\"},{\"inputs\":[{\"internalType\":\"address\",\"name\":\"account\",\"type\":\"address\"}],\"type\":\"error\",\"name\":\"OwnableUnauthorizedAccount\"},{\"inputs\":[{\"internalType\":\"address\",\"name\":\"previousOwner\",\"type\":\"address\",\"indexed\":true},{\"internalType\":\"address\",\"name\":\"newOwner\",\"type\":\"address\",\"indexed\":true}],\"type\":\"event\",\"name\":\"OwnershipTransferred\",\"anonymous\":false},{\"inputs\":[{\"internalType\":\"address\",\"name\":\"account\",\"type\":\"address\",\"indexed\":true},{\"internalType\":\"bool\",\"name\":\"isFeeless\",\"type\":\"bool\",\"indexed\":true},{\"internalType\":\"address\",\"name\":\"caller\",\"type\":\"address\",\"indexed\":false}],\"type\":\"event\",\"name\":\"SetFeelessAddress\",\"anonymous\":false},{\"inputs\":[{\"internalType\":\"address\",\"name\":\"addr\",\"type\":\"address\"}],\"stateMutability\":\"view\",\"type\":\"function\",\"name\":\"isFeeless\",\"outputs\":[{\"internalType\":\"bool\",\"name\":\"\",\"type\":\"bool\"}]},{\"inputs\":[],\"stateMutability\":\"view\",\"type\":\"function\",\"name\":\"owner\",\"outputs\":[{\"internalType\":\"address\",\"name\":\"\",\"type\":\"address\"}]},{\"inputs\":[],\"stateMutability\":\"nonpayable\",\"type\":\"function\",\"name\":\"renounceOwnership\"},{\"inputs\":[{\"internalType\":\"address\",\"name\":\"addr\",\"type\":\"address\"},{\"internalType\":\"bool\",\"name\":\"flag\",\"type\":\"bool\"}],\"stateMutability\":\"nonpayable\",\"type\":\"function\",\"name\":\"setFeelessAddress\"},{\"inputs\":[{\"internalType\":\"bytes4\",\"name\":\"interfaceId\",\"type\":\"bytes4\"}],\"stateMutability\":\"view\",\"type\":\"function\",\"name\":\"supportsInterface\",\"outputs\":[{\"internalType\":\"bool\",\"name\":\"\",\"type\":\"bool\"}]},{\"inputs\":[{\"internalType\":\"address\",\"name\":\"newOwner\",\"type\":\"address\"}],\"stateMutability\":\"nonpayable\",\"type\":\"function\",\"name\":\"transferOwnership\"}],\"devdoc\":{\"kind\":\"dev\",\"methods\":{\"constructor\":{\"params\":{\"owner\":\"The address that will own this contract.\"}},\"owner()\":{\"details\":\"Returns the address of the current owner.\"},\"renounceOwnership()\":{\"details\":\"Leaves the contract without owner. It will not be possible to call `onlyOwner` functions. Can only be called by the current owner. NOTE: Renouncing ownership will leave the contract without an owner, thereby disabling any functionality that is only available to the owner.\"},\"setFeelessAddress(address,bool)\":{\"details\":\"Only the owner of this contract can set addresses as feeless or not feeless.Feeless addresses can receive payouts without incurring a fee.Feeless addresses can use the surplus allowance without incurring a fee.Feeless addresses can be the beneficary of redemptions without incurring a fee.\",\"params\":{\"addr\":\"The address to make feeless or not feeless.\",\"flag\":\"A flag indicating whether the `address` should be made feeless or not feeless.\"}},\"supportsInterface(bytes4)\":{\"details\":\"See {IERC165-supportsInterface}.\",\"params\":{\"interfaceId\":\"The ID of the interface to check for adherance to.\"},\"returns\":{\"_0\":\"A flag indicating if the provided interface ID is supported.\"}},\"transferOwnership(address)\":{\"details\":\"Transfers ownership of the contract to a new account (`newOwner`). Can only be called by the current owner.\"}},\"version\":1},\"userdoc\":{\"kind\":\"user\",\"methods\":{\"isFeeless(address)\":{\"notice\":\"Feeless addresses for this terminal.\"},\"setFeelessAddress(address,bool)\":{\"notice\":\"Sets an address as feeless or not feeless for this terminal.\"},\"supportsInterface(bytes4)\":{\"notice\":\"Indicates if this contract adheres to the specified interface.\"}},\"version\":1}},\"settings\":{\"remappings\":[\"@bananapus/=node_modules/@bananapus/\",\"@chainlink/=node_modules/@chainlink/\",\"@eth-optimism/=node_modules/@eth-optimism/\",\"@gnosis.pm/=node_modules/@gnosis.pm/\",\"@openzeppelin/=node_modules/@openzeppelin/\",\"@prb/=node_modules/@prb/\",\"@sphinx-labs/contracts/=lib/sphinx/packages/contracts/contracts/foundry/\",\"@uniswap/=node_modules/@uniswap/\",\"ds-test/=lib/forge-std/lib/ds-test/src/\",\"forge-std/=lib/forge-std/src/\",\"hardhat/=node_modules/hardhat/\",\"solmate/=node_modules/solmate/\",\"sphinx-forge-std/=node_modules/sphinx-forge-std/\",\"sphinx-solmate/=node_modules/sphinx-solmate/\",\"sphinx/=lib/sphinx/\"],\"optimizer\":{\"enabled\":true,\"runs\":200},\"metadata\":{\"bytecodeHash\":\"ipfs\"},\"compilationTarget\":{\"src/JBFeelessAddresses.sol\":\"JBFeelessAddresses\"},\"evmVersion\":\"paris\",\"libraries\":{}},\"sources\":{\"node_modules/@openzeppelin/contracts/access/Ownable.sol\":{\"keccak256\":\"0xff6d0bb2e285473e5311d9d3caacb525ae3538a80758c10649a4d61029b017bb\",\"urls\":[\"bzz-raw://8ed324d3920bb545059d66ab97d43e43ee85fd3bd52e03e401f020afb0b120f6\",\"dweb:/ipfs/QmfEckWLmZkDDcoWrkEvMWhms66xwTLff9DDhegYpvHo1a\"],\"license\":\"MIT\"},\"node_modules/@openzeppelin/contracts/utils/Context.sol\":{\"keccak256\":\"0x493033a8d1b176a037b2cc6a04dad01a5c157722049bbecf632ca876224dd4b2\",\"urls\":[\"bzz-raw://6a708e8a5bdb1011c2c381c9a5cfd8a9a956d7d0a9dc1bd8bcdaf52f76ef2f12\",\"dweb:/ipfs/Qmax9WHBnVsZP46ZxEMNRQpLQnrdE4dK8LehML1Py8FowF\"],\"license\":\"MIT\"},\"node_modules/@openzeppelin/contracts/utils/introspection/ERC165.sol\":{\"keccak256\":\"0x9e8778b14317ba9e256c30a76fd6c32b960af621987f56069e1e819c77c6a133\",\"urls\":[\"bzz-raw://1777404f1dcd0fac188e55a288724ec3c67b45288e49cc64723e95e702b49ab8\",\"dweb:/ipfs/QmZFdC626GButBApwDUvvTnUzdinevC3B24d7yyh57XkiA\"],\"license\":\"MIT\"},\"node_modules/@openzeppelin/contracts/utils/introspection/IERC165.sol\":{\"keccak256\":\"0x4296879f55019b23e135000eb36896057e7101fb7fb859c5ef690cf14643757b\",\"urls\":[\"bzz-raw://87b3541437c8c443ccd36795e56a338ed12855eec17f8da624511b8d1a7e14df\",\"dweb:/ipfs/QmeJQCtZrQjtJLr6u7ZHWeH3pBnjtLWzvRrKViAi7UZqxL\"],\"license\":\"MIT\"},\"src/JBFeelessAddresses.sol\":{\"keccak256\":\"0x860d0650289bd755ecd25b7be4b2f0bb7b8432e267da9437bb928322d3c217a7\",\"urls\":[\"bzz-raw://0fa76cec4171ad3dfadb8228773300c41068d1892926a47c0766fa37012ca9db\",\"dweb:/ipfs/QmSEbFm4kmBrVNRBgw6bmhwwPVNQxcm3dYrZhJsaxDEsVN\"],\"license\":\"MIT\"},\"src/interfaces/IJBFeelessAddresses.sol\":{\"keccak256\":\"0xe5df42cfa71c5fa41b905c122de5825df13c2aab2f9cc4cf4bafa331dd69c27e\",\"urls\":[\"bzz-raw://3773bf3b42cc57d1e4086147e52135ff1dbff4309c45ca0398f821dfaa071563\",\"dweb:/ipfs/QmXUEJssHaxYKfV33tMZGf81JTR5a5yxEVshzNus84xLuT\"],\"license\":\"MIT\"}},\"version\":1}",
			"args": [
				"0x823b92d6a4b2AED4b15675c7917c9f922ea8ADAD"
			],
			"bytecode": "0x608060405234801561001057600080fd5b5060405161045038038061045083398101604081905261002f916100be565b806001600160a01b03811661005e57604051631e4fbdf760e01b81526000600482015260240160405180910390fd5b6100678161006e565b50506100ee565b600080546001600160a01b038381166001600160a01b0319831681178455604051919092169283917f8be0079c531659141344cd1fd0a4f28419497f9722a3daafe3b4186f6b6457e09190a35050565b6000602082840312156100d057600080fd5b81516001600160a01b03811681146100e757600080fd5b9392505050565b610353806100fd6000396000f3fe608060405234801561001057600080fd5b50600436106100625760003560e01c806301ffc9a714610067578063715018a61461008f5780637258002c146100995780638da5cb5b146100ac578063ae74a1b5146100c7578063f2fde38b146100ea575b600080fd5b61007a610075366004610279565b6100fd565b60405190151581526020015b60405180910390f35b610097610134565b005b6100976100a73660046102c6565b610148565b6000546040516001600160a01b039091168152602001610086565b61007a6100d5366004610302565b60016020526000908152604090205460ff1681565b6100976100f8366004610302565b6101b9565b60006001600160e01b0319821663dc2ca19960e01b148061012e57506001600160e01b031982166301ffc9a760e01b145b92915050565b61013c6101fc565b6101466000610229565b565b6101506101fc565b6001600160a01b0382166000818152600160205260409020805460ff1916831515908117909155907fa2653e25a502c023a5830d0de847ef6f458387865b1f4f575d7594f9f2c0d71e336040516001600160a01b03909116815260200160405180910390a35050565b6101c16101fc565b6001600160a01b0381166101f057604051631e4fbdf760e01b8152600060048201526024015b60405180910390fd5b6101f981610229565b50565b6000546001600160a01b031633146101465760405163118cdaa760e01b81523360048201526024016101e7565b600080546001600160a01b038381166001600160a01b0319831681178455604051919092169283917f8be0079c531659141344cd1fd0a4f28419497f9722a3daafe3b4186f6b6457e09190a35050565b60006020828403121561028b57600080fd5b81356001600160e01b0319811681146102a357600080fd5b9392505050565b80356001600160a01b03811681146102c157600080fd5b919050565b600080604083850312156102d957600080fd5b6102e2836102aa565b9150602083013580151581146102f757600080fd5b809150509250929050565b60006020828403121561031457600080fd5b6102a3826102aa56fea26469706673582212208a2354b0c33bc389c30912e168b6230eaef57e6b7244c0375c9146ee349b47f764736f6c63430008170033",
			"deployedBytecode": "0x608060405234801561001057600080fd5b50600436106100625760003560e01c806301ffc9a714610067578063715018a61461008f5780637258002c146100995780638da5cb5b146100ac578063ae74a1b5146100c7578063f2fde38b146100ea575b600080fd5b61007a610075366004610279565b6100fd565b60405190151581526020015b60405180910390f35b610097610134565b005b6100976100a73660046102c6565b610148565b6000546040516001600160a01b039091168152602001610086565b61007a6100d5366004610302565b60016020526000908152604090205460ff1681565b6100976100f8366004610302565b6101b9565b60006001600160e01b0319821663dc2ca19960e01b148061012e57506001600160e01b031982166301ffc9a760e01b145b92915050565b61013c6101fc565b6101466000610229565b565b6101506101fc565b6001600160a01b0382166000818152600160205260409020805460ff1916831515908117909155907fa2653e25a502c023a5830d0de847ef6f458387865b1f4f575d7594f9f2c0d71e336040516001600160a01b03909116815260200160405180910390a35050565b6101c16101fc565b6001600160a01b0381166101f057604051631e4fbdf760e01b8152600060048201526024015b60405180910390fd5b6101f981610229565b50565b6000546001600160a01b031633146101465760405163118cdaa760e01b81523360048201526024016101e7565b600080546001600160a01b038381166001600160a01b0319831681178455604051919092169283917f8be0079c531659141344cd1fd0a4f28419497f9722a3daafe3b4186f6b6457e09190a35050565b60006020828403121561028b57600080fd5b81356001600160e01b0319811681146102a357600080fd5b9392505050565b80356001600160a01b03811681146102c157600080fd5b919050565b600080604083850312156102d957600080fd5b6102e2836102aa565b9150602083013580151581146102f757600080fd5b809150509250929050565b60006020828403121561031457600080fd5b6102a3826102aa56fea26469706673582212208a2354b0c33bc389c30912e168b6230eaef57e6b7244c0375c9146ee349b47f764736f6c63430008170033",
			"devdoc": {
				"kind": "dev",
				"methods": {
					"constructor": {
						"params": {
							"owner": "The address that will own this contract."
						}
					},
					"owner()": {
						"details": "Returns the address of the current owner."
					},
					"renounceOwnership()": {
						"details": "Leaves the contract without owner. It will not be possible to call `onlyOwner` functions. Can only be called by the current owner. NOTE: Renouncing ownership will leave the contract without an owner, thereby disabling any functionality that is only available to the owner."
					},
					"setFeelessAddress(address,bool)": {
						"details": "Only the owner of this contract can set addresses as feeless or not feeless.Feeless addresses can receive payouts without incurring a fee.Feeless addresses can use the surplus allowance without incurring a fee.Feeless addresses can be the beneficary of redemptions without incurring a fee.",
						"params": {
							"addr": "The address to make feeless or not feeless.",
							"flag": "A flag indicating whether the `address` should be made feeless or not feeless."
						}
					},
					"supportsInterface(bytes4)": {
						"details": "See {IERC165-supportsInterface}.",
						"params": {
							"interfaceId": "The ID of the interface to check for adherance to."
						},
						"returns": {
							"_0": "A flag indicating if the provided interface ID is supported."
						}
					},
					"transferOwnership(address)": {
						"details": "Transfers ownership of the contract to a new account (`newOwner`). Can only be called by the current owner."
					}
				},
				"version": 1
			},
			"userdoc": {
				"kind": "user",
				"methods": {
					"isFeeless(address)": {
						"notice": "Feeless addresses for this terminal."
					},
					"setFeelessAddress(address,bool)": {
						"notice": "Sets an address as feeless or not feeless for this terminal."
					},
					"supportsInterface(bytes4)": {
						"notice": "Indicates if this contract adheres to the specified interface."
					}
				},
				"version": 1
			},
			"gitCommit": "b03f34d98eacd4484804213a3ba52efcdbe9107e",
			"sourceName": "src/JBFeelessAddresses.sol",
			"chainId": "11155111",
			"linkReferences": {},
			"deployedLinkReferences": {}
		},
		{
			"_format": "sphinx-sol-ct-artifact-1",
			"merkleRoot": "0xfada22a01fc6019b369081d169c7f38ec6c9e2c67f065667d7be1b942a641e20",
			"contractName": "JBFeelessAddresses",
			"address": "0xCb9B33a3364A515adD977a90CD358226db710d4e",
			"abi": [
				{
					"type": "constructor",
					"inputs": [
						{
							"name": "owner",
							"type": "address",
							"internalType": "address"
						}
					],
					"stateMutability": "nonpayable"
				},
				{
					"type": "function",
					"name": "isFeeless",
					"inputs": [
						{
							"name": "addr",
							"type": "address",
							"internalType": "address"
						}
					],
					"outputs": [
						{
							"name": "",
							"type": "bool",
							"internalType": "bool"
						}
					],
					"stateMutability": "view"
				},
				{
					"type": "function",
					"name": "owner",
					"inputs": [],
					"outputs": [
						{
							"name": "",
							"type": "address",
							"internalType": "address"
						}
					],
					"stateMutability": "view"
				},
				{
					"type": "function",
					"name": "renounceOwnership",
					"inputs": [],
					"outputs": [],
					"stateMutability": "nonpayable"
				},
				{
					"type": "function",
					"name": "setFeelessAddress",
					"inputs": [
						{
							"name": "addr",
							"type": "address",
							"internalType": "address"
						},
						{
							"name": "flag",
							"type": "bool",
							"internalType": "bool"
						}
					],
					"outputs": [],
					"stateMutability": "nonpayable"
				},
				{
					"type": "function",
					"name": "supportsInterface",
					"inputs": [
						{
							"name": "interfaceId",
							"type": "bytes4",
							"internalType": "bytes4"
						}
					],
					"outputs": [
						{
							"name": "",
							"type": "bool",
							"internalType": "bool"
						}
					],
					"stateMutability": "view"
				},
				{
					"type": "function",
					"name": "transferOwnership",
					"inputs": [
						{
							"name": "newOwner",
							"type": "address",
							"internalType": "address"
						}
					],
					"outputs": [],
					"stateMutability": "nonpayable"
				},
				{
					"type": "event",
					"name": "OwnershipTransferred",
					"inputs": [
						{
							"name": "previousOwner",
							"type": "address",
							"indexed": true,
							"internalType": "address"
						},
						{
							"name": "newOwner",
							"type": "address",
							"indexed": true,
							"internalType": "address"
						}
					],
					"anonymous": false
				},
				{
					"type": "event",
					"name": "SetFeelessAddress",
					"inputs": [
						{
							"name": "account",
							"type": "address",
							"indexed": true,
							"internalType": "address"
						},
						{
							"name": "isFeeless",
							"type": "bool",
							"indexed": true,
							"internalType": "bool"
						},
						{
							"name": "caller",
							"type": "address",
							"indexed": false,
							"internalType": "address"
						}
					],
					"anonymous": false
				},
				{
					"type": "error",
					"name": "OwnableInvalidOwner",
					"inputs": [
						{
							"name": "owner",
							"type": "address",
							"internalType": "address"
						}
					]
				},
				{
					"type": "error",
					"name": "OwnableUnauthorizedAccount",
					"inputs": [
						{
							"name": "account",
							"type": "address",
							"internalType": "address"
						}
					]
				}
			],
			"solcInputHash": "89b464e120c906a6209f84c95fbfe59a",
			"receipt": {
				"blockHash": "0xb44c876cbc50aa2e96a90cbe699028f99ee813e2323f5645ae9197a9d151c791",
				"blockNumber": 5479982,
				"contractAddress": null,
				"cumulativeGasUsed": "21888329",
				"from": "0xC034550B542b83BA1De312b21d1C94a9a52B1595",
				"gasPrice": "3797922609",
				"gasUsed": "9790739",
				"hash": "0x50b3548a9c88032fd5ad01ae034aafc669479be56e92d1a91f1365bad4fb1b2c",
				"index": 110,
				"logs": [
					{
						"address": "0xB5E96127D417b1B3ef8438496a38A143167209c7",
						"blockHash": "0xb44c876cbc50aa2e96a90cbe699028f99ee813e2323f5645ae9197a9d151c791",
						"blockNumber": 5479982,
						"data": "0x0000000000000000000000000000000000000000000000000000000000000000",
						"index": 254,
						"topics": [
							"0x572f161235911da04685a68c06adf558fc7e4a36909dca394650e0adc19cc93d",
							"0x000000000000000000000000c034550b542b83ba1de312b21d1c94a9a52b1595",
							"0x000000000000000000000000ef1be3c049809cace5bc203bbe4ec1ab284bf75c",
							"0x9085a0a0a6e8ad0fc4529d57fcd3708eab7cccfdadbd2be1e620a47afb11044b"
						],
						"transactionHash": "0x50b3548a9c88032fd5ad01ae034aafc669479be56e92d1a91f1365bad4fb1b2c",
						"transactionIndex": 110
					},
					{
						"address": "0x1081B5AA9D9d4862A3dA4d469433FB36Ed80FA2A",
						"blockHash": "0xb44c876cbc50aa2e96a90cbe699028f99ee813e2323f5645ae9197a9d151c791",
						"blockNumber": 5479982,
						"data": "0x000000000000000000000000b5636472d90693b2e2a49f34b772373bfbbad5cf",
						"index": 255,
						"topics": [
							"0x4db17dd5e4732fb6da34a148104a592783ca119a1e7bb8829eba6cbadef0b511"
						],
						"transactionHash": "0x50b3548a9c88032fd5ad01ae034aafc669479be56e92d1a91f1365bad4fb1b2c",
						"transactionIndex": 110
					},
					{
						"address": "0x1081B5AA9D9d4862A3dA4d469433FB36Ed80FA2A",
						"blockHash": "0xb44c876cbc50aa2e96a90cbe699028f99ee813e2323f5645ae9197a9d151c791",
						"blockNumber": 5479982,
						"data": "0x",
						"index": 256,
						"topics": [
							"0x6895c13664aa4f67288b25d7a21d7aaa34916e355fb9b6fae0a139a9085becb8",
							"0x000000000000000000000000ef1be3c049809cace5bc203bbe4ec1ab284bf75c"
						],
						"transactionHash": "0x50b3548a9c88032fd5ad01ae034aafc669479be56e92d1a91f1365bad4fb1b2c",
						"transactionIndex": 110
					},
					{
						"address": "0xEf1Be3C049809caCe5Bc203BBe4Ec1Ab284bF75c",
						"blockHash": "0xb44c876cbc50aa2e96a90cbe699028f99ee813e2323f5645ae9197a9d151c791",
						"blockNumber": 5479982,
						"data": "0x0000000000000000000000000000000000000000000000000000000000000008",
						"index": 257,
						"topics": [
							"0xa65fb05c5808f5f389d72edeaf719ce38f4cc55c1f69ca3cbfb31c21501caa07",
							"0xfada22a01fc6019b369081d169c7f38ec6c9e2c67f065667d7be1b942a641e20"
						],
						"transactionHash": "0x50b3548a9c88032fd5ad01ae034aafc669479be56e92d1a91f1365bad4fb1b2c",
						"transactionIndex": 110
					},
					{
						"address": "0xdb72998F9FfEc87e51158E81a8FD49627EB412E8",
						"blockHash": "0xb44c876cbc50aa2e96a90cbe699028f99ee813e2323f5645ae9197a9d151c791",
						"blockNumber": 5479982,
						"data": "0x0000000000000000000000001081b5aa9d9d4862a3da4d469433fb36ed80fa2a",
						"index": 258,
						"topics": [
							"0x11207664cc48b0fa81c8674795f1d8f642960f38d5d2d305ad813093bed85fab",
							"0x000000000000000000000000b5636472d90693b2e2a49f34b772373bfbbad5cf",
							"0x0000000000000000000000000000000000000000000000000000000000000001"
						],
						"transactionHash": "0x50b3548a9c88032fd5ad01ae034aafc669479be56e92d1a91f1365bad4fb1b2c",
						"transactionIndex": 110
					},
					{
						"address": "0x1081B5AA9D9d4862A3dA4d469433FB36Ed80FA2A",
						"blockHash": "0xb44c876cbc50aa2e96a90cbe699028f99ee813e2323f5645ae9197a9d151c791",
						"blockNumber": 5479982,
						"data": "0x",
						"index": 259,
						"topics": [
							"0x6895c13664aa4f67288b25d7a21d7aaa34916e355fb9b6fae0a139a9085becb8",
							"0x000000000000000000000000ef1be3c049809cace5bc203bbe4ec1ab284bf75c"
						],
						"transactionHash": "0x50b3548a9c88032fd5ad01ae034aafc669479be56e92d1a91f1365bad4fb1b2c",
						"transactionIndex": 110
					},
					{
						"address": "0xEf1Be3C049809caCe5Bc203BBe4Ec1Ab284bF75c",
						"blockHash": "0xb44c876cbc50aa2e96a90cbe699028f99ee813e2323f5645ae9197a9d151c791",
						"blockNumber": 5479982,
						"data": "0x0000000000000000000000000000000000000000000000000000000000000009",
						"index": 260,
						"topics": [
							"0xa65fb05c5808f5f389d72edeaf719ce38f4cc55c1f69ca3cbfb31c21501caa07",
							"0xfada22a01fc6019b369081d169c7f38ec6c9e2c67f065667d7be1b942a641e20"
						],
						"transactionHash": "0x50b3548a9c88032fd5ad01ae034aafc669479be56e92d1a91f1365bad4fb1b2c",
						"transactionIndex": 110
					},
					{
						"address": "0xdb72998F9FfEc87e51158E81a8FD49627EB412E8",
						"blockHash": "0xb44c876cbc50aa2e96a90cbe699028f99ee813e2323f5645ae9197a9d151c791",
						"blockNumber": 5479982,
						"data": "0x",
						"index": 261,
						"topics": [
							"0x8be0079c531659141344cd1fd0a4f28419497f9722a3daafe3b4186f6b6457e0",
							"0x0000000000000000000000001081b5aa9d9d4862a3da4d469433fb36ed80fa2a",
							"0x000000000000000000000000823b92d6a4b2aed4b15675c7917c9f922ea8adad"
						],
						"transactionHash": "0x50b3548a9c88032fd5ad01ae034aafc669479be56e92d1a91f1365bad4fb1b2c",
						"transactionIndex": 110
					},
					{
						"address": "0x1081B5AA9D9d4862A3dA4d469433FB36Ed80FA2A",
						"blockHash": "0xb44c876cbc50aa2e96a90cbe699028f99ee813e2323f5645ae9197a9d151c791",
						"blockNumber": 5479982,
						"data": "0x",
						"index": 262,
						"topics": [
							"0x6895c13664aa4f67288b25d7a21d7aaa34916e355fb9b6fae0a139a9085becb8",
							"0x000000000000000000000000ef1be3c049809cace5bc203bbe4ec1ab284bf75c"
						],
						"transactionHash": "0x50b3548a9c88032fd5ad01ae034aafc669479be56e92d1a91f1365bad4fb1b2c",
						"transactionIndex": 110
					},
					{
						"address": "0xEf1Be3C049809caCe5Bc203BBe4Ec1Ab284bF75c",
						"blockHash": "0xb44c876cbc50aa2e96a90cbe699028f99ee813e2323f5645ae9197a9d151c791",
						"blockNumber": 5479982,
						"data": "0x000000000000000000000000000000000000000000000000000000000000000a",
						"index": 263,
						"topics": [
							"0xa65fb05c5808f5f389d72edeaf719ce38f4cc55c1f69ca3cbfb31c21501caa07",
							"0xfada22a01fc6019b369081d169c7f38ec6c9e2c67f065667d7be1b942a641e20"
						],
						"transactionHash": "0x50b3548a9c88032fd5ad01ae034aafc669479be56e92d1a91f1365bad4fb1b2c",
						"transactionIndex": 110
					},
					{
						"address": "0xa4BB0c19fAf4249Ad4426E49C126a2c5feBb76D6",
						"blockHash": "0xb44c876cbc50aa2e96a90cbe699028f99ee813e2323f5645ae9197a9d151c791",
						"blockNumber": 5479982,
						"data": "0x",
						"index": 264,
						"topics": [
							"0x8be0079c531659141344cd1fd0a4f28419497f9722a3daafe3b4186f6b6457e0",
							"0x0000000000000000000000000000000000000000000000000000000000000000",
							"0x000000000000000000000000823b92d6a4b2aed4b15675c7917c9f922ea8adad"
						],
						"transactionHash": "0x50b3548a9c88032fd5ad01ae034aafc669479be56e92d1a91f1365bad4fb1b2c",
						"transactionIndex": 110
					},
					{
						"address": "0x1081B5AA9D9d4862A3dA4d469433FB36Ed80FA2A",
						"blockHash": "0xb44c876cbc50aa2e96a90cbe699028f99ee813e2323f5645ae9197a9d151c791",
						"blockNumber": 5479982,
						"data": "0x000000000000000000000000a4bb0c19faf4249ad4426e49c126a2c5febb76d6",
						"index": 265,
						"topics": [
							"0x4db17dd5e4732fb6da34a148104a592783ca119a1e7bb8829eba6cbadef0b511"
						],
						"transactionHash": "0x50b3548a9c88032fd5ad01ae034aafc669479be56e92d1a91f1365bad4fb1b2c",
						"transactionIndex": 110
					},
					{
						"address": "0x1081B5AA9D9d4862A3dA4d469433FB36Ed80FA2A",
						"blockHash": "0xb44c876cbc50aa2e96a90cbe699028f99ee813e2323f5645ae9197a9d151c791",
						"blockNumber": 5479982,
						"data": "0x",
						"index": 266,
						"topics": [
							"0x6895c13664aa4f67288b25d7a21d7aaa34916e355fb9b6fae0a139a9085becb8",
							"0x000000000000000000000000ef1be3c049809cace5bc203bbe4ec1ab284bf75c"
						],
						"transactionHash": "0x50b3548a9c88032fd5ad01ae034aafc669479be56e92d1a91f1365bad4fb1b2c",
						"transactionIndex": 110
					},
					{
						"address": "0xEf1Be3C049809caCe5Bc203BBe4Ec1Ab284bF75c",
						"blockHash": "0xb44c876cbc50aa2e96a90cbe699028f99ee813e2323f5645ae9197a9d151c791",
						"blockNumber": 5479982,
						"data": "0x000000000000000000000000000000000000000000000000000000000000000b",
						"index": 267,
						"topics": [
							"0xa65fb05c5808f5f389d72edeaf719ce38f4cc55c1f69ca3cbfb31c21501caa07",
							"0xfada22a01fc6019b369081d169c7f38ec6c9e2c67f065667d7be1b942a641e20"
						],
						"transactionHash": "0x50b3548a9c88032fd5ad01ae034aafc669479be56e92d1a91f1365bad4fb1b2c",
						"transactionIndex": 110
					},
					{
						"address": "0x1081B5AA9D9d4862A3dA4d469433FB36Ed80FA2A",
						"blockHash": "0xb44c876cbc50aa2e96a90cbe699028f99ee813e2323f5645ae9197a9d151c791",
						"blockNumber": 5479982,
						"data": "0x000000000000000000000000fa1a0d72d86d024caa29a67914b7140a8c07dc31",
						"index": 268,
						"topics": [
							"0x4db17dd5e4732fb6da34a148104a592783ca119a1e7bb8829eba6cbadef0b511"
						],
						"transactionHash": "0x50b3548a9c88032fd5ad01ae034aafc669479be56e92d1a91f1365bad4fb1b2c",
						"transactionIndex": 110
					},
					{
						"address": "0x1081B5AA9D9d4862A3dA4d469433FB36Ed80FA2A",
						"blockHash": "0xb44c876cbc50aa2e96a90cbe699028f99ee813e2323f5645ae9197a9d151c791",
						"blockNumber": 5479982,
						"data": "0x",
						"index": 269,
						"topics": [
							"0x6895c13664aa4f67288b25d7a21d7aaa34916e355fb9b6fae0a139a9085becb8",
							"0x000000000000000000000000ef1be3c049809cace5bc203bbe4ec1ab284bf75c"
						],
						"transactionHash": "0x50b3548a9c88032fd5ad01ae034aafc669479be56e92d1a91f1365bad4fb1b2c",
						"transactionIndex": 110
					},
					{
						"address": "0xEf1Be3C049809caCe5Bc203BBe4Ec1Ab284bF75c",
						"blockHash": "0xb44c876cbc50aa2e96a90cbe699028f99ee813e2323f5645ae9197a9d151c791",
						"blockNumber": 5479982,
						"data": "0x000000000000000000000000000000000000000000000000000000000000000c",
						"index": 270,
						"topics": [
							"0xa65fb05c5808f5f389d72edeaf719ce38f4cc55c1f69ca3cbfb31c21501caa07",
							"0xfada22a01fc6019b369081d169c7f38ec6c9e2c67f065667d7be1b942a641e20"
						],
						"transactionHash": "0x50b3548a9c88032fd5ad01ae034aafc669479be56e92d1a91f1365bad4fb1b2c",
						"transactionIndex": 110
					},
					{
						"address": "0xCb9B33a3364A515adD977a90CD358226db710d4e",
						"blockHash": "0xb44c876cbc50aa2e96a90cbe699028f99ee813e2323f5645ae9197a9d151c791",
						"blockNumber": 5479982,
						"data": "0x",
						"index": 271,
						"topics": [
							"0x8be0079c531659141344cd1fd0a4f28419497f9722a3daafe3b4186f6b6457e0",
							"0x0000000000000000000000000000000000000000000000000000000000000000",
							"0x000000000000000000000000823b92d6a4b2aed4b15675c7917c9f922ea8adad"
						],
						"transactionHash": "0x50b3548a9c88032fd5ad01ae034aafc669479be56e92d1a91f1365bad4fb1b2c",
						"transactionIndex": 110
					},
					{
						"address": "0x1081B5AA9D9d4862A3dA4d469433FB36Ed80FA2A",
						"blockHash": "0xb44c876cbc50aa2e96a90cbe699028f99ee813e2323f5645ae9197a9d151c791",
						"blockNumber": 5479982,
						"data": "0x000000000000000000000000cb9b33a3364a515add977a90cd358226db710d4e",
						"index": 272,
						"topics": [
							"0x4db17dd5e4732fb6da34a148104a592783ca119a1e7bb8829eba6cbadef0b511"
						],
						"transactionHash": "0x50b3548a9c88032fd5ad01ae034aafc669479be56e92d1a91f1365bad4fb1b2c",
						"transactionIndex": 110
					},
					{
						"address": "0x1081B5AA9D9d4862A3dA4d469433FB36Ed80FA2A",
						"blockHash": "0xb44c876cbc50aa2e96a90cbe699028f99ee813e2323f5645ae9197a9d151c791",
						"blockNumber": 5479982,
						"data": "0x",
						"index": 273,
						"topics": [
							"0x6895c13664aa4f67288b25d7a21d7aaa34916e355fb9b6fae0a139a9085becb8",
							"0x000000000000000000000000ef1be3c049809cace5bc203bbe4ec1ab284bf75c"
						],
						"transactionHash": "0x50b3548a9c88032fd5ad01ae034aafc669479be56e92d1a91f1365bad4fb1b2c",
						"transactionIndex": 110
					},
					{
						"address": "0xEf1Be3C049809caCe5Bc203BBe4Ec1Ab284bF75c",
						"blockHash": "0xb44c876cbc50aa2e96a90cbe699028f99ee813e2323f5645ae9197a9d151c791",
						"blockNumber": 5479982,
						"data": "0x000000000000000000000000000000000000000000000000000000000000000d",
						"index": 274,
						"topics": [
							"0xa65fb05c5808f5f389d72edeaf719ce38f4cc55c1f69ca3cbfb31c21501caa07",
							"0xfada22a01fc6019b369081d169c7f38ec6c9e2c67f065667d7be1b942a641e20"
						],
						"transactionHash": "0x50b3548a9c88032fd5ad01ae034aafc669479be56e92d1a91f1365bad4fb1b2c",
						"transactionIndex": 110
					}
				],
				"logsBloom": "0x00000000080010000008040000080000000000080008000000820000004000000060008000000100000002000843000000000004000000000010000000040800000000000000200400000000820000000001000000040000000200000000000000000000020000000000000000000800000000100020000000000000000000400001000000000000000100000000000000000000000000000000804000000020004000080010000008000000001000020200400000000080000000000006000000002000000000200000000008000000000000008000040000001000000060000000000000000004000000000000000200000100000000000000000000040000",
				"status": 1,
				"to": "0xB5E96127D417b1B3ef8438496a38A143167209c7"
			},
			"metadata": "{\"compiler\":{\"version\":\"0.8.23+commit.f704f362\"},\"language\":\"Solidity\",\"output\":{\"abi\":[{\"inputs\":[{\"internalType\":\"address\",\"name\":\"owner\",\"type\":\"address\"}],\"stateMutability\":\"nonpayable\",\"type\":\"constructor\"},{\"inputs\":[{\"internalType\":\"address\",\"name\":\"owner\",\"type\":\"address\"}],\"type\":\"error\",\"name\":\"OwnableInvalidOwner\"},{\"inputs\":[{\"internalType\":\"address\",\"name\":\"account\",\"type\":\"address\"}],\"type\":\"error\",\"name\":\"OwnableUnauthorizedAccount\"},{\"inputs\":[{\"internalType\":\"address\",\"name\":\"previousOwner\",\"type\":\"address\",\"indexed\":true},{\"internalType\":\"address\",\"name\":\"newOwner\",\"type\":\"address\",\"indexed\":true}],\"type\":\"event\",\"name\":\"OwnershipTransferred\",\"anonymous\":false},{\"inputs\":[{\"internalType\":\"address\",\"name\":\"account\",\"type\":\"address\",\"indexed\":true},{\"internalType\":\"bool\",\"name\":\"isFeeless\",\"type\":\"bool\",\"indexed\":true},{\"internalType\":\"address\",\"name\":\"caller\",\"type\":\"address\",\"indexed\":false}],\"type\":\"event\",\"name\":\"SetFeelessAddress\",\"anonymous\":false},{\"inputs\":[{\"internalType\":\"address\",\"name\":\"addr\",\"type\":\"address\"}],\"stateMutability\":\"view\",\"type\":\"function\",\"name\":\"isFeeless\",\"outputs\":[{\"internalType\":\"bool\",\"name\":\"\",\"type\":\"bool\"}]},{\"inputs\":[],\"stateMutability\":\"view\",\"type\":\"function\",\"name\":\"owner\",\"outputs\":[{\"internalType\":\"address\",\"name\":\"\",\"type\":\"address\"}]},{\"inputs\":[],\"stateMutability\":\"nonpayable\",\"type\":\"function\",\"name\":\"renounceOwnership\"},{\"inputs\":[{\"internalType\":\"address\",\"name\":\"addr\",\"type\":\"address\"},{\"internalType\":\"bool\",\"name\":\"flag\",\"type\":\"bool\"}],\"stateMutability\":\"nonpayable\",\"type\":\"function\",\"name\":\"setFeelessAddress\"},{\"inputs\":[{\"internalType\":\"bytes4\",\"name\":\"interfaceId\",\"type\":\"bytes4\"}],\"stateMutability\":\"view\",\"type\":\"function\",\"name\":\"supportsInterface\",\"outputs\":[{\"internalType\":\"bool\",\"name\":\"\",\"type\":\"bool\"}]},{\"inputs\":[{\"internalType\":\"address\",\"name\":\"newOwner\",\"type\":\"address\"}],\"stateMutability\":\"nonpayable\",\"type\":\"function\",\"name\":\"transferOwnership\"}],\"devdoc\":{\"kind\":\"dev\",\"methods\":{\"constructor\":{\"params\":{\"owner\":\"The address that will own this contract.\"}},\"owner()\":{\"details\":\"Returns the address of the current owner.\"},\"renounceOwnership()\":{\"details\":\"Leaves the contract without owner. It will not be possible to call `onlyOwner` functions. Can only be called by the current owner. NOTE: Renouncing ownership will leave the contract without an owner, thereby disabling any functionality that is only available to the owner.\"},\"setFeelessAddress(address,bool)\":{\"details\":\"Only the owner of this contract can set addresses as feeless or not feeless.Feeless addresses can receive payouts without incurring a fee.Feeless addresses can use the surplus allowance without incurring a fee.Feeless addresses can be the beneficary of redemptions without incurring a fee.\",\"params\":{\"addr\":\"The address to make feeless or not feeless.\",\"flag\":\"A flag indicating whether the `address` should be made feeless or not feeless.\"}},\"supportsInterface(bytes4)\":{\"details\":\"See {IERC165-supportsInterface}.\",\"params\":{\"interfaceId\":\"The ID of the interface to check for adherance to.\"},\"returns\":{\"_0\":\"A flag indicating if the provided interface ID is supported.\"}},\"transferOwnership(address)\":{\"details\":\"Transfers ownership of the contract to a new account (`newOwner`). Can only be called by the current owner.\"}},\"version\":1},\"userdoc\":{\"kind\":\"user\",\"methods\":{\"isFeeless(address)\":{\"notice\":\"Feeless addresses for this terminal.\"},\"setFeelessAddress(address,bool)\":{\"notice\":\"Sets an address as feeless or not feeless for this terminal.\"},\"supportsInterface(bytes4)\":{\"notice\":\"Indicates if this contract adheres to the specified interface.\"}},\"version\":1}},\"settings\":{\"remappings\":[\"@bananapus/=node_modules/@bananapus/\",\"@chainlink/=node_modules/@chainlink/\",\"@eth-optimism/=node_modules/@eth-optimism/\",\"@gnosis.pm/=node_modules/@gnosis.pm/\",\"@openzeppelin/=node_modules/@openzeppelin/\",\"@prb/=node_modules/@prb/\",\"@sphinx-labs/contracts/=lib/sphinx/packages/contracts/contracts/foundry/\",\"@uniswap/=node_modules/@uniswap/\",\"ds-test/=lib/forge-std/lib/ds-test/src/\",\"forge-std/=lib/forge-std/src/\",\"hardhat/=node_modules/hardhat/\",\"solmate/=node_modules/solmate/\",\"sphinx-forge-std/=node_modules/sphinx-forge-std/\",\"sphinx-solmate/=node_modules/sphinx-solmate/\",\"sphinx/=lib/sphinx/\"],\"optimizer\":{\"enabled\":true,\"runs\":200},\"metadata\":{\"bytecodeHash\":\"ipfs\"},\"compilationTarget\":{\"src/JBFeelessAddresses.sol\":\"JBFeelessAddresses\"},\"evmVersion\":\"paris\",\"libraries\":{}},\"sources\":{\"node_modules/@openzeppelin/contracts/access/Ownable.sol\":{\"keccak256\":\"0xff6d0bb2e285473e5311d9d3caacb525ae3538a80758c10649a4d61029b017bb\",\"urls\":[\"bzz-raw://8ed324d3920bb545059d66ab97d43e43ee85fd3bd52e03e401f020afb0b120f6\",\"dweb:/ipfs/QmfEckWLmZkDDcoWrkEvMWhms66xwTLff9DDhegYpvHo1a\"],\"license\":\"MIT\"},\"node_modules/@openzeppelin/contracts/utils/Context.sol\":{\"keccak256\":\"0x493033a8d1b176a037b2cc6a04dad01a5c157722049bbecf632ca876224dd4b2\",\"urls\":[\"bzz-raw://6a708e8a5bdb1011c2c381c9a5cfd8a9a956d7d0a9dc1bd8bcdaf52f76ef2f12\",\"dweb:/ipfs/Qmax9WHBnVsZP46ZxEMNRQpLQnrdE4dK8LehML1Py8FowF\"],\"license\":\"MIT\"},\"node_modules/@openzeppelin/contracts/utils/introspection/ERC165.sol\":{\"keccak256\":\"0x9e8778b14317ba9e256c30a76fd6c32b960af621987f56069e1e819c77c6a133\",\"urls\":[\"bzz-raw://1777404f1dcd0fac188e55a288724ec3c67b45288e49cc64723e95e702b49ab8\",\"dweb:/ipfs/QmZFdC626GButBApwDUvvTnUzdinevC3B24d7yyh57XkiA\"],\"license\":\"MIT\"},\"node_modules/@openzeppelin/contracts/utils/introspection/IERC165.sol\":{\"keccak256\":\"0x4296879f55019b23e135000eb36896057e7101fb7fb859c5ef690cf14643757b\",\"urls\":[\"bzz-raw://87b3541437c8c443ccd36795e56a338ed12855eec17f8da624511b8d1a7e14df\",\"dweb:/ipfs/QmeJQCtZrQjtJLr6u7ZHWeH3pBnjtLWzvRrKViAi7UZqxL\"],\"license\":\"MIT\"},\"src/JBFeelessAddresses.sol\":{\"keccak256\":\"0x860d0650289bd755ecd25b7be4b2f0bb7b8432e267da9437bb928322d3c217a7\",\"urls\":[\"bzz-raw://0fa76cec4171ad3dfadb8228773300c41068d1892926a47c0766fa37012ca9db\",\"dweb:/ipfs/QmSEbFm4kmBrVNRBgw6bmhwwPVNQxcm3dYrZhJsaxDEsVN\"],\"license\":\"MIT\"},\"src/interfaces/IJBFeelessAddresses.sol\":{\"keccak256\":\"0xe5df42cfa71c5fa41b905c122de5825df13c2aab2f9cc4cf4bafa331dd69c27e\",\"urls\":[\"bzz-raw://3773bf3b42cc57d1e4086147e52135ff1dbff4309c45ca0398f821dfaa071563\",\"dweb:/ipfs/QmXUEJssHaxYKfV33tMZGf81JTR5a5yxEVshzNus84xLuT\"],\"license\":\"MIT\"}},\"version\":1}",
			"args": [
				"0x823b92d6a4b2AED4b15675c7917c9f922ea8ADAD"
			],
			"bytecode": "0x608060405234801561001057600080fd5b5060405161045038038061045083398101604081905261002f916100be565b806001600160a01b03811661005e57604051631e4fbdf760e01b81526000600482015260240160405180910390fd5b6100678161006e565b50506100ee565b600080546001600160a01b038381166001600160a01b0319831681178455604051919092169283917f8be0079c531659141344cd1fd0a4f28419497f9722a3daafe3b4186f6b6457e09190a35050565b6000602082840312156100d057600080fd5b81516001600160a01b03811681146100e757600080fd5b9392505050565b610353806100fd6000396000f3fe608060405234801561001057600080fd5b50600436106100625760003560e01c806301ffc9a714610067578063715018a61461008f5780637258002c146100995780638da5cb5b146100ac578063ae74a1b5146100c7578063f2fde38b146100ea575b600080fd5b61007a610075366004610279565b6100fd565b60405190151581526020015b60405180910390f35b610097610134565b005b6100976100a73660046102c6565b610148565b6000546040516001600160a01b039091168152602001610086565b61007a6100d5366004610302565b60016020526000908152604090205460ff1681565b6100976100f8366004610302565b6101b9565b60006001600160e01b0319821663dc2ca19960e01b148061012e57506001600160e01b031982166301ffc9a760e01b145b92915050565b61013c6101fc565b6101466000610229565b565b6101506101fc565b6001600160a01b0382166000818152600160205260409020805460ff1916831515908117909155907fa2653e25a502c023a5830d0de847ef6f458387865b1f4f575d7594f9f2c0d71e336040516001600160a01b03909116815260200160405180910390a35050565b6101c16101fc565b6001600160a01b0381166101f057604051631e4fbdf760e01b8152600060048201526024015b60405180910390fd5b6101f981610229565b50565b6000546001600160a01b031633146101465760405163118cdaa760e01b81523360048201526024016101e7565b600080546001600160a01b038381166001600160a01b0319831681178455604051919092169283917f8be0079c531659141344cd1fd0a4f28419497f9722a3daafe3b4186f6b6457e09190a35050565b60006020828403121561028b57600080fd5b81356001600160e01b0319811681146102a357600080fd5b9392505050565b80356001600160a01b03811681146102c157600080fd5b919050565b600080604083850312156102d957600080fd5b6102e2836102aa565b9150602083013580151581146102f757600080fd5b809150509250929050565b60006020828403121561031457600080fd5b6102a3826102aa56fea26469706673582212208a2354b0c33bc389c30912e168b6230eaef57e6b7244c0375c9146ee349b47f764736f6c63430008170033",
			"deployedBytecode": "0x608060405234801561001057600080fd5b50600436106100625760003560e01c806301ffc9a714610067578063715018a61461008f5780637258002c146100995780638da5cb5b146100ac578063ae74a1b5146100c7578063f2fde38b146100ea575b600080fd5b61007a610075366004610279565b6100fd565b60405190151581526020015b60405180910390f35b610097610134565b005b6100976100a73660046102c6565b610148565b6000546040516001600160a01b039091168152602001610086565b61007a6100d5366004610302565b60016020526000908152604090205460ff1681565b6100976100f8366004610302565b6101b9565b60006001600160e01b0319821663dc2ca19960e01b148061012e57506001600160e01b031982166301ffc9a760e01b145b92915050565b61013c6101fc565b6101466000610229565b565b6101506101fc565b6001600160a01b0382166000818152600160205260409020805460ff1916831515908117909155907fa2653e25a502c023a5830d0de847ef6f458387865b1f4f575d7594f9f2c0d71e336040516001600160a01b03909116815260200160405180910390a35050565b6101c16101fc565b6001600160a01b0381166101f057604051631e4fbdf760e01b8152600060048201526024015b60405180910390fd5b6101f981610229565b50565b6000546001600160a01b031633146101465760405163118cdaa760e01b81523360048201526024016101e7565b600080546001600160a01b038381166001600160a01b0319831681178455604051919092169283917f8be0079c531659141344cd1fd0a4f28419497f9722a3daafe3b4186f6b6457e09190a35050565b60006020828403121561028b57600080fd5b81356001600160e01b0319811681146102a357600080fd5b9392505050565b80356001600160a01b03811681146102c157600080fd5b919050565b600080604083850312156102d957600080fd5b6102e2836102aa565b9150602083013580151581146102f757600080fd5b809150509250929050565b60006020828403121561031457600080fd5b6102a3826102aa56fea26469706673582212208a2354b0c33bc389c30912e168b6230eaef57e6b7244c0375c9146ee349b47f764736f6c63430008170033",
			"devdoc": {
				"kind": "dev",
				"methods": {
					"constructor": {
						"params": {
							"owner": "The address that will own this contract."
						}
					},
					"owner()": {
						"details": "Returns the address of the current owner."
					},
					"renounceOwnership()": {
						"details": "Leaves the contract without owner. It will not be possible to call `onlyOwner` functions. Can only be called by the current owner. NOTE: Renouncing ownership will leave the contract without an owner, thereby disabling any functionality that is only available to the owner."
					},
					"setFeelessAddress(address,bool)": {
						"details": "Only the owner of this contract can set addresses as feeless or not feeless.Feeless addresses can receive payouts without incurring a fee.Feeless addresses can use the surplus allowance without incurring a fee.Feeless addresses can be the beneficary of redemptions without incurring a fee.",
						"params": {
							"addr": "The address to make feeless or not feeless.",
							"flag": "A flag indicating whether the `address` should be made feeless or not feeless."
						}
					},
					"supportsInterface(bytes4)": {
						"details": "See {IERC165-supportsInterface}.",
						"params": {
							"interfaceId": "The ID of the interface to check for adherance to."
						},
						"returns": {
							"_0": "A flag indicating if the provided interface ID is supported."
						}
					},
					"transferOwnership(address)": {
						"details": "Transfers ownership of the contract to a new account (`newOwner`). Can only be called by the current owner."
					}
				},
				"version": 1
			},
			"userdoc": {
				"kind": "user",
				"methods": {
					"isFeeless(address)": {
						"notice": "Feeless addresses for this terminal."
					},
					"setFeelessAddress(address,bool)": {
						"notice": "Sets an address as feeless or not feeless for this terminal."
					},
					"supportsInterface(bytes4)": {
						"notice": "Indicates if this contract adheres to the specified interface."
					}
				},
				"version": 1
			},
			"gitCommit": "23e7dfead2a66e76f5e7c501a807ff78b09b92c3",
			"sourceName": "src/JBFeelessAddresses.sol",
			"chainId": "11155111",
			"linkReferences": {},
			"deployedLinkReferences": {}
		},
		{
			"_format": "sphinx-sol-ct-artifact-1",
			"merkleRoot": "0x9e0e602421b8af18b231044c4a9fcd3210b88a991260bd2d68511776273418b9",
			"contractName": "JBFeelessAddresses",
			"address": "0x8E3376c408000FB95F4f17E2c16318926F3d1b6d",
			"abi": [
				{
					"type": "constructor",
					"inputs": [
						{
							"name": "owner",
							"type": "address",
							"internalType": "address"
						}
					],
					"stateMutability": "nonpayable"
				},
				{
					"type": "function",
					"name": "isFeeless",
					"inputs": [
						{
							"name": "addr",
							"type": "address",
							"internalType": "address"
						}
					],
					"outputs": [
						{
							"name": "",
							"type": "bool",
							"internalType": "bool"
						}
					],
					"stateMutability": "view"
				},
				{
					"type": "function",
					"name": "owner",
					"inputs": [],
					"outputs": [
						{
							"name": "",
							"type": "address",
							"internalType": "address"
						}
					],
					"stateMutability": "view"
				},
				{
					"type": "function",
					"name": "renounceOwnership",
					"inputs": [],
					"outputs": [],
					"stateMutability": "nonpayable"
				},
				{
					"type": "function",
					"name": "setFeelessAddress",
					"inputs": [
						{
							"name": "addr",
							"type": "address",
							"internalType": "address"
						},
						{
							"name": "flag",
							"type": "bool",
							"internalType": "bool"
						}
					],
					"outputs": [],
					"stateMutability": "nonpayable"
				},
				{
					"type": "function",
					"name": "supportsInterface",
					"inputs": [
						{
							"name": "interfaceId",
							"type": "bytes4",
							"internalType": "bytes4"
						}
					],
					"outputs": [
						{
							"name": "",
							"type": "bool",
							"internalType": "bool"
						}
					],
					"stateMutability": "view"
				},
				{
					"type": "function",
					"name": "transferOwnership",
					"inputs": [
						{
							"name": "newOwner",
							"type": "address",
							"internalType": "address"
						}
					],
					"outputs": [],
					"stateMutability": "nonpayable"
				},
				{
					"type": "event",
					"name": "OwnershipTransferred",
					"inputs": [
						{
							"name": "previousOwner",
							"type": "address",
							"indexed": true,
							"internalType": "address"
						},
						{
							"name": "newOwner",
							"type": "address",
							"indexed": true,
							"internalType": "address"
						}
					],
					"anonymous": false
				},
				{
					"type": "event",
					"name": "SetFeelessAddress",
					"inputs": [
						{
							"name": "account",
							"type": "address",
							"indexed": true,
							"internalType": "address"
						},
						{
							"name": "isFeeless",
							"type": "bool",
							"indexed": true,
							"internalType": "bool"
						},
						{
							"name": "caller",
							"type": "address",
							"indexed": false,
							"internalType": "address"
						}
					],
					"anonymous": false
				},
				{
					"type": "error",
					"name": "OwnableInvalidOwner",
					"inputs": [
						{
							"name": "owner",
							"type": "address",
							"internalType": "address"
						}
					]
				},
				{
					"type": "error",
					"name": "OwnableUnauthorizedAccount",
					"inputs": [
						{
							"name": "account",
							"type": "address",
							"internalType": "address"
						}
					]
				}
			],
			"solcInputHash": "72b97eca88a7a2645b499cd15964090b",
			"receipt": {
				"blockHash": "0x4c7534a11a5d2f188a788393bf8d6a0780b2e9381acba1912300ccb6bbccc546",
				"blockNumber": 5520517,
				"contractAddress": null,
				"cumulativeGasUsed": "9788192",
				"from": "0xC034550B542b83BA1De312b21d1C94a9a52B1595",
				"gasPrice": "728112888",
				"gasUsed": "9788192",
				"hash": "0x30e002bbbd704fe04176603b852d28df3ce75f04678d7d75a36877734d15b606",
				"index": 0,
				"logs": [
					{
						"address": "0xB5E96127D417b1B3ef8438496a38A143167209c7",
						"blockHash": "0x4c7534a11a5d2f188a788393bf8d6a0780b2e9381acba1912300ccb6bbccc546",
						"blockNumber": 5520517,
						"data": "0x0000000000000000000000000000000000000000000000000000000000000000",
						"index": 0,
						"topics": [
							"0x572f161235911da04685a68c06adf558fc7e4a36909dca394650e0adc19cc93d",
							"0x000000000000000000000000c034550b542b83ba1de312b21d1c94a9a52b1595",
							"0x000000000000000000000000ef1be3c049809cace5bc203bbe4ec1ab284bf75c",
							"0xdad042eb0627794de1927baf6e2de87803ba6e1235d671d87b008373f7004491"
						],
						"transactionHash": "0x30e002bbbd704fe04176603b852d28df3ce75f04678d7d75a36877734d15b606",
						"transactionIndex": 0
					},
					{
						"address": "0x1081B5AA9D9d4862A3dA4d469433FB36Ed80FA2A",
						"blockHash": "0x4c7534a11a5d2f188a788393bf8d6a0780b2e9381acba1912300ccb6bbccc546",
						"blockNumber": 5520517,
						"data": "0x000000000000000000000000698d26df9f8d5cf0fd359d26add623602a2bc355",
						"index": 1,
						"topics": [
							"0x4db17dd5e4732fb6da34a148104a592783ca119a1e7bb8829eba6cbadef0b511"
						],
						"transactionHash": "0x30e002bbbd704fe04176603b852d28df3ce75f04678d7d75a36877734d15b606",
						"transactionIndex": 0
					},
					{
						"address": "0x1081B5AA9D9d4862A3dA4d469433FB36Ed80FA2A",
						"blockHash": "0x4c7534a11a5d2f188a788393bf8d6a0780b2e9381acba1912300ccb6bbccc546",
						"blockNumber": 5520517,
						"data": "0x",
						"index": 2,
						"topics": [
							"0x6895c13664aa4f67288b25d7a21d7aaa34916e355fb9b6fae0a139a9085becb8",
							"0x000000000000000000000000ef1be3c049809cace5bc203bbe4ec1ab284bf75c"
						],
						"transactionHash": "0x30e002bbbd704fe04176603b852d28df3ce75f04678d7d75a36877734d15b606",
						"transactionIndex": 0
					},
					{
						"address": "0xEf1Be3C049809caCe5Bc203BBe4Ec1Ab284bF75c",
						"blockHash": "0x4c7534a11a5d2f188a788393bf8d6a0780b2e9381acba1912300ccb6bbccc546",
						"blockNumber": 5520517,
						"data": "0x0000000000000000000000000000000000000000000000000000000000000008",
						"index": 3,
						"topics": [
							"0xa65fb05c5808f5f389d72edeaf719ce38f4cc55c1f69ca3cbfb31c21501caa07",
							"0x9e0e602421b8af18b231044c4a9fcd3210b88a991260bd2d68511776273418b9"
						],
						"transactionHash": "0x30e002bbbd704fe04176603b852d28df3ce75f04678d7d75a36877734d15b606",
						"transactionIndex": 0
					},
					{
						"address": "0x6A6988E79a621Fc7Ea74D67a31E9cefCcC98e949",
						"blockHash": "0x4c7534a11a5d2f188a788393bf8d6a0780b2e9381acba1912300ccb6bbccc546",
						"blockNumber": 5520517,
						"data": "0x0000000000000000000000001081b5aa9d9d4862a3da4d469433fb36ed80fa2a",
						"index": 4,
						"topics": [
							"0x11207664cc48b0fa81c8674795f1d8f642960f38d5d2d305ad813093bed85fab",
							"0x000000000000000000000000698d26df9f8d5cf0fd359d26add623602a2bc355",
							"0x0000000000000000000000000000000000000000000000000000000000000001"
						],
						"transactionHash": "0x30e002bbbd704fe04176603b852d28df3ce75f04678d7d75a36877734d15b606",
						"transactionIndex": 0
					},
					{
						"address": "0x1081B5AA9D9d4862A3dA4d469433FB36Ed80FA2A",
						"blockHash": "0x4c7534a11a5d2f188a788393bf8d6a0780b2e9381acba1912300ccb6bbccc546",
						"blockNumber": 5520517,
						"data": "0x",
						"index": 5,
						"topics": [
							"0x6895c13664aa4f67288b25d7a21d7aaa34916e355fb9b6fae0a139a9085becb8",
							"0x000000000000000000000000ef1be3c049809cace5bc203bbe4ec1ab284bf75c"
						],
						"transactionHash": "0x30e002bbbd704fe04176603b852d28df3ce75f04678d7d75a36877734d15b606",
						"transactionIndex": 0
					},
					{
						"address": "0xEf1Be3C049809caCe5Bc203BBe4Ec1Ab284bF75c",
						"blockHash": "0x4c7534a11a5d2f188a788393bf8d6a0780b2e9381acba1912300ccb6bbccc546",
						"blockNumber": 5520517,
						"data": "0x0000000000000000000000000000000000000000000000000000000000000009",
						"index": 6,
						"topics": [
							"0xa65fb05c5808f5f389d72edeaf719ce38f4cc55c1f69ca3cbfb31c21501caa07",
							"0x9e0e602421b8af18b231044c4a9fcd3210b88a991260bd2d68511776273418b9"
						],
						"transactionHash": "0x30e002bbbd704fe04176603b852d28df3ce75f04678d7d75a36877734d15b606",
						"transactionIndex": 0
					},
					{
						"address": "0x6A6988E79a621Fc7Ea74D67a31E9cefCcC98e949",
						"blockHash": "0x4c7534a11a5d2f188a788393bf8d6a0780b2e9381acba1912300ccb6bbccc546",
						"blockNumber": 5520517,
						"data": "0x",
						"index": 7,
						"topics": [
							"0x8be0079c531659141344cd1fd0a4f28419497f9722a3daafe3b4186f6b6457e0",
							"0x0000000000000000000000001081b5aa9d9d4862a3da4d469433fb36ed80fa2a",
							"0x000000000000000000000000823b92d6a4b2aed4b15675c7917c9f922ea8adad"
						],
						"transactionHash": "0x30e002bbbd704fe04176603b852d28df3ce75f04678d7d75a36877734d15b606",
						"transactionIndex": 0
					},
					{
						"address": "0x1081B5AA9D9d4862A3dA4d469433FB36Ed80FA2A",
						"blockHash": "0x4c7534a11a5d2f188a788393bf8d6a0780b2e9381acba1912300ccb6bbccc546",
						"blockNumber": 5520517,
						"data": "0x",
						"index": 8,
						"topics": [
							"0x6895c13664aa4f67288b25d7a21d7aaa34916e355fb9b6fae0a139a9085becb8",
							"0x000000000000000000000000ef1be3c049809cace5bc203bbe4ec1ab284bf75c"
						],
						"transactionHash": "0x30e002bbbd704fe04176603b852d28df3ce75f04678d7d75a36877734d15b606",
						"transactionIndex": 0
					},
					{
						"address": "0xEf1Be3C049809caCe5Bc203BBe4Ec1Ab284bF75c",
						"blockHash": "0x4c7534a11a5d2f188a788393bf8d6a0780b2e9381acba1912300ccb6bbccc546",
						"blockNumber": 5520517,
						"data": "0x000000000000000000000000000000000000000000000000000000000000000a",
						"index": 9,
						"topics": [
							"0xa65fb05c5808f5f389d72edeaf719ce38f4cc55c1f69ca3cbfb31c21501caa07",
							"0x9e0e602421b8af18b231044c4a9fcd3210b88a991260bd2d68511776273418b9"
						],
						"transactionHash": "0x30e002bbbd704fe04176603b852d28df3ce75f04678d7d75a36877734d15b606",
						"transactionIndex": 0
					},
					{
						"address": "0x801FF757D8Fd571934e306Df9282de42c901b835",
						"blockHash": "0x4c7534a11a5d2f188a788393bf8d6a0780b2e9381acba1912300ccb6bbccc546",
						"blockNumber": 5520517,
						"data": "0x",
						"index": 10,
						"topics": [
							"0x8be0079c531659141344cd1fd0a4f28419497f9722a3daafe3b4186f6b6457e0",
							"0x0000000000000000000000000000000000000000000000000000000000000000",
							"0x000000000000000000000000823b92d6a4b2aed4b15675c7917c9f922ea8adad"
						],
						"transactionHash": "0x30e002bbbd704fe04176603b852d28df3ce75f04678d7d75a36877734d15b606",
						"transactionIndex": 0
					},
					{
						"address": "0x1081B5AA9D9d4862A3dA4d469433FB36Ed80FA2A",
						"blockHash": "0x4c7534a11a5d2f188a788393bf8d6a0780b2e9381acba1912300ccb6bbccc546",
						"blockNumber": 5520517,
						"data": "0x000000000000000000000000801ff757d8fd571934e306df9282de42c901b835",
						"index": 11,
						"topics": [
							"0x4db17dd5e4732fb6da34a148104a592783ca119a1e7bb8829eba6cbadef0b511"
						],
						"transactionHash": "0x30e002bbbd704fe04176603b852d28df3ce75f04678d7d75a36877734d15b606",
						"transactionIndex": 0
					},
					{
						"address": "0x1081B5AA9D9d4862A3dA4d469433FB36Ed80FA2A",
						"blockHash": "0x4c7534a11a5d2f188a788393bf8d6a0780b2e9381acba1912300ccb6bbccc546",
						"blockNumber": 5520517,
						"data": "0x",
						"index": 12,
						"topics": [
							"0x6895c13664aa4f67288b25d7a21d7aaa34916e355fb9b6fae0a139a9085becb8",
							"0x000000000000000000000000ef1be3c049809cace5bc203bbe4ec1ab284bf75c"
						],
						"transactionHash": "0x30e002bbbd704fe04176603b852d28df3ce75f04678d7d75a36877734d15b606",
						"transactionIndex": 0
					},
					{
						"address": "0xEf1Be3C049809caCe5Bc203BBe4Ec1Ab284bF75c",
						"blockHash": "0x4c7534a11a5d2f188a788393bf8d6a0780b2e9381acba1912300ccb6bbccc546",
						"blockNumber": 5520517,
						"data": "0x000000000000000000000000000000000000000000000000000000000000000b",
						"index": 13,
						"topics": [
							"0xa65fb05c5808f5f389d72edeaf719ce38f4cc55c1f69ca3cbfb31c21501caa07",
							"0x9e0e602421b8af18b231044c4a9fcd3210b88a991260bd2d68511776273418b9"
						],
						"transactionHash": "0x30e002bbbd704fe04176603b852d28df3ce75f04678d7d75a36877734d15b606",
						"transactionIndex": 0
					},
					{
						"address": "0x1081B5AA9D9d4862A3dA4d469433FB36Ed80FA2A",
						"blockHash": "0x4c7534a11a5d2f188a788393bf8d6a0780b2e9381acba1912300ccb6bbccc546",
						"blockNumber": 5520517,
						"data": "0x0000000000000000000000004a13af5bbe0a9f8a7d4280f34d09638d2087eb0f",
						"index": 14,
						"topics": [
							"0x4db17dd5e4732fb6da34a148104a592783ca119a1e7bb8829eba6cbadef0b511"
						],
						"transactionHash": "0x30e002bbbd704fe04176603b852d28df3ce75f04678d7d75a36877734d15b606",
						"transactionIndex": 0
					},
					{
						"address": "0x1081B5AA9D9d4862A3dA4d469433FB36Ed80FA2A",
						"blockHash": "0x4c7534a11a5d2f188a788393bf8d6a0780b2e9381acba1912300ccb6bbccc546",
						"blockNumber": 5520517,
						"data": "0x",
						"index": 15,
						"topics": [
							"0x6895c13664aa4f67288b25d7a21d7aaa34916e355fb9b6fae0a139a9085becb8",
							"0x000000000000000000000000ef1be3c049809cace5bc203bbe4ec1ab284bf75c"
						],
						"transactionHash": "0x30e002bbbd704fe04176603b852d28df3ce75f04678d7d75a36877734d15b606",
						"transactionIndex": 0
					},
					{
						"address": "0xEf1Be3C049809caCe5Bc203BBe4Ec1Ab284bF75c",
						"blockHash": "0x4c7534a11a5d2f188a788393bf8d6a0780b2e9381acba1912300ccb6bbccc546",
						"blockNumber": 5520517,
						"data": "0x000000000000000000000000000000000000000000000000000000000000000c",
						"index": 16,
						"topics": [
							"0xa65fb05c5808f5f389d72edeaf719ce38f4cc55c1f69ca3cbfb31c21501caa07",
							"0x9e0e602421b8af18b231044c4a9fcd3210b88a991260bd2d68511776273418b9"
						],
						"transactionHash": "0x30e002bbbd704fe04176603b852d28df3ce75f04678d7d75a36877734d15b606",
						"transactionIndex": 0
					},
					{
						"address": "0x8E3376c408000FB95F4f17E2c16318926F3d1b6d",
						"blockHash": "0x4c7534a11a5d2f188a788393bf8d6a0780b2e9381acba1912300ccb6bbccc546",
						"blockNumber": 5520517,
						"data": "0x",
						"index": 17,
						"topics": [
							"0x8be0079c531659141344cd1fd0a4f28419497f9722a3daafe3b4186f6b6457e0",
							"0x0000000000000000000000000000000000000000000000000000000000000000",
							"0x000000000000000000000000823b92d6a4b2aed4b15675c7917c9f922ea8adad"
						],
						"transactionHash": "0x30e002bbbd704fe04176603b852d28df3ce75f04678d7d75a36877734d15b606",
						"transactionIndex": 0
					},
					{
						"address": "0x1081B5AA9D9d4862A3dA4d469433FB36Ed80FA2A",
						"blockHash": "0x4c7534a11a5d2f188a788393bf8d6a0780b2e9381acba1912300ccb6bbccc546",
						"blockNumber": 5520517,
						"data": "0x0000000000000000000000008e3376c408000fb95f4f17e2c16318926f3d1b6d",
						"index": 18,
						"topics": [
							"0x4db17dd5e4732fb6da34a148104a592783ca119a1e7bb8829eba6cbadef0b511"
						],
						"transactionHash": "0x30e002bbbd704fe04176603b852d28df3ce75f04678d7d75a36877734d15b606",
						"transactionIndex": 0
					},
					{
						"address": "0x1081B5AA9D9d4862A3dA4d469433FB36Ed80FA2A",
						"blockHash": "0x4c7534a11a5d2f188a788393bf8d6a0780b2e9381acba1912300ccb6bbccc546",
						"blockNumber": 5520517,
						"data": "0x",
						"index": 19,
						"topics": [
							"0x6895c13664aa4f67288b25d7a21d7aaa34916e355fb9b6fae0a139a9085becb8",
							"0x000000000000000000000000ef1be3c049809cace5bc203bbe4ec1ab284bf75c"
						],
						"transactionHash": "0x30e002bbbd704fe04176603b852d28df3ce75f04678d7d75a36877734d15b606",
						"transactionIndex": 0
					},
					{
						"address": "0xEf1Be3C049809caCe5Bc203BBe4Ec1Ab284bF75c",
						"blockHash": "0x4c7534a11a5d2f188a788393bf8d6a0780b2e9381acba1912300ccb6bbccc546",
						"blockNumber": 5520517,
						"data": "0x000000000000000000000000000000000000000000000000000000000000000d",
						"index": 20,
						"topics": [
							"0xa65fb05c5808f5f389d72edeaf719ce38f4cc55c1f69ca3cbfb31c21501caa07",
							"0x9e0e602421b8af18b231044c4a9fcd3210b88a991260bd2d68511776273418b9"
						],
						"transactionHash": "0x30e002bbbd704fe04176603b852d28df3ce75f04678d7d75a36877734d15b606",
						"transactionIndex": 0
					}
				],
				"logsBloom": "0x00020000080010000008000000080000000040000008000000800000004000000060008000000000000000000040000000000000000000000000000000040002010000000800200400000000820000000001000000040000000200180000000000000000020000000000000000000800000000100020000000000000040000400001000000000000000100000000800000000000000000000000804000000020004000080010000000000000000000220200440000000080000000000006000002000000000000200000000008000000000000000000050000000000000060000000000000000014008000000000000200000000000004000000000000000000",
				"status": 1,
				"to": "0xB5E96127D417b1B3ef8438496a38A143167209c7"
			},
			"metadata": "{\"compiler\":{\"version\":\"0.8.23+commit.f704f362\"},\"language\":\"Solidity\",\"output\":{\"abi\":[{\"inputs\":[{\"internalType\":\"address\",\"name\":\"owner\",\"type\":\"address\"}],\"stateMutability\":\"nonpayable\",\"type\":\"constructor\"},{\"inputs\":[{\"internalType\":\"address\",\"name\":\"owner\",\"type\":\"address\"}],\"type\":\"error\",\"name\":\"OwnableInvalidOwner\"},{\"inputs\":[{\"internalType\":\"address\",\"name\":\"account\",\"type\":\"address\"}],\"type\":\"error\",\"name\":\"OwnableUnauthorizedAccount\"},{\"inputs\":[{\"internalType\":\"address\",\"name\":\"previousOwner\",\"type\":\"address\",\"indexed\":true},{\"internalType\":\"address\",\"name\":\"newOwner\",\"type\":\"address\",\"indexed\":true}],\"type\":\"event\",\"name\":\"OwnershipTransferred\",\"anonymous\":false},{\"inputs\":[{\"internalType\":\"address\",\"name\":\"account\",\"type\":\"address\",\"indexed\":true},{\"internalType\":\"bool\",\"name\":\"isFeeless\",\"type\":\"bool\",\"indexed\":true},{\"internalType\":\"address\",\"name\":\"caller\",\"type\":\"address\",\"indexed\":false}],\"type\":\"event\",\"name\":\"SetFeelessAddress\",\"anonymous\":false},{\"inputs\":[{\"internalType\":\"address\",\"name\":\"addr\",\"type\":\"address\"}],\"stateMutability\":\"view\",\"type\":\"function\",\"name\":\"isFeeless\",\"outputs\":[{\"internalType\":\"bool\",\"name\":\"\",\"type\":\"bool\"}]},{\"inputs\":[],\"stateMutability\":\"view\",\"type\":\"function\",\"name\":\"owner\",\"outputs\":[{\"internalType\":\"address\",\"name\":\"\",\"type\":\"address\"}]},{\"inputs\":[],\"stateMutability\":\"nonpayable\",\"type\":\"function\",\"name\":\"renounceOwnership\"},{\"inputs\":[{\"internalType\":\"address\",\"name\":\"addr\",\"type\":\"address\"},{\"internalType\":\"bool\",\"name\":\"flag\",\"type\":\"bool\"}],\"stateMutability\":\"nonpayable\",\"type\":\"function\",\"name\":\"setFeelessAddress\"},{\"inputs\":[{\"internalType\":\"bytes4\",\"name\":\"interfaceId\",\"type\":\"bytes4\"}],\"stateMutability\":\"view\",\"type\":\"function\",\"name\":\"supportsInterface\",\"outputs\":[{\"internalType\":\"bool\",\"name\":\"\",\"type\":\"bool\"}]},{\"inputs\":[{\"internalType\":\"address\",\"name\":\"newOwner\",\"type\":\"address\"}],\"stateMutability\":\"nonpayable\",\"type\":\"function\",\"name\":\"transferOwnership\"}],\"devdoc\":{\"kind\":\"dev\",\"methods\":{\"constructor\":{\"params\":{\"owner\":\"The address that will own this contract.\"}},\"owner()\":{\"details\":\"Returns the address of the current owner.\"},\"renounceOwnership()\":{\"details\":\"Leaves the contract without owner. It will not be possible to call `onlyOwner` functions. Can only be called by the current owner. NOTE: Renouncing ownership will leave the contract without an owner, thereby disabling any functionality that is only available to the owner.\"},\"setFeelessAddress(address,bool)\":{\"details\":\"Only the owner of this contract can set addresses as feeless or not feeless.Feeless addresses can receive payouts without incurring a fee.Feeless addresses can use the surplus allowance without incurring a fee.Feeless addresses can be the beneficary of redemptions without incurring a fee.\",\"params\":{\"addr\":\"The address to make feeless or not feeless.\",\"flag\":\"A flag indicating whether the `address` should be made feeless or not feeless.\"}},\"supportsInterface(bytes4)\":{\"details\":\"See {IERC165-supportsInterface}.\",\"params\":{\"interfaceId\":\"The ID of the interface to check for adherance to.\"},\"returns\":{\"_0\":\"A flag indicating if the provided interface ID is supported.\"}},\"transferOwnership(address)\":{\"details\":\"Transfers ownership of the contract to a new account (`newOwner`). Can only be called by the current owner.\"}},\"version\":1},\"userdoc\":{\"kind\":\"user\",\"methods\":{\"isFeeless(address)\":{\"notice\":\"Feeless addresses for this terminal.\"},\"setFeelessAddress(address,bool)\":{\"notice\":\"Sets an address as feeless or not feeless for this terminal.\"},\"supportsInterface(bytes4)\":{\"notice\":\"Indicates if this contract adheres to the specified interface.\"}},\"version\":1}},\"settings\":{\"remappings\":[\"@bananapus/=node_modules/@bananapus/\",\"@chainlink/=node_modules/@chainlink/\",\"@eth-optimism/=node_modules/@eth-optimism/\",\"@gnosis.pm/=node_modules/@gnosis.pm/\",\"@openzeppelin/=node_modules/@openzeppelin/\",\"@prb/=node_modules/@prb/\",\"@sphinx-labs/contracts/=lib/sphinx/packages/contracts/contracts/foundry/\",\"@uniswap/=node_modules/@uniswap/\",\"ds-test/=lib/forge-std/lib/ds-test/src/\",\"forge-std/=lib/forge-std/src/\",\"hardhat/=node_modules/hardhat/\",\"solmate/=node_modules/solmate/\",\"sphinx-forge-std/=node_modules/sphinx-forge-std/\",\"sphinx-solmate/=node_modules/sphinx-solmate/\",\"sphinx/=lib/sphinx/\"],\"optimizer\":{\"enabled\":true,\"runs\":200},\"metadata\":{\"bytecodeHash\":\"ipfs\"},\"compilationTarget\":{\"src/JBFeelessAddresses.sol\":\"JBFeelessAddresses\"},\"evmVersion\":\"paris\",\"libraries\":{}},\"sources\":{\"node_modules/@openzeppelin/contracts/access/Ownable.sol\":{\"keccak256\":\"0xff6d0bb2e285473e5311d9d3caacb525ae3538a80758c10649a4d61029b017bb\",\"urls\":[\"bzz-raw://8ed324d3920bb545059d66ab97d43e43ee85fd3bd52e03e401f020afb0b120f6\",\"dweb:/ipfs/QmfEckWLmZkDDcoWrkEvMWhms66xwTLff9DDhegYpvHo1a\"],\"license\":\"MIT\"},\"node_modules/@openzeppelin/contracts/utils/Context.sol\":{\"keccak256\":\"0x493033a8d1b176a037b2cc6a04dad01a5c157722049bbecf632ca876224dd4b2\",\"urls\":[\"bzz-raw://6a708e8a5bdb1011c2c381c9a5cfd8a9a956d7d0a9dc1bd8bcdaf52f76ef2f12\",\"dweb:/ipfs/Qmax9WHBnVsZP46ZxEMNRQpLQnrdE4dK8LehML1Py8FowF\"],\"license\":\"MIT\"},\"node_modules/@openzeppelin/contracts/utils/introspection/ERC165.sol\":{\"keccak256\":\"0x9e8778b14317ba9e256c30a76fd6c32b960af621987f56069e1e819c77c6a133\",\"urls\":[\"bzz-raw://1777404f1dcd0fac188e55a288724ec3c67b45288e49cc64723e95e702b49ab8\",\"dweb:/ipfs/QmZFdC626GButBApwDUvvTnUzdinevC3B24d7yyh57XkiA\"],\"license\":\"MIT\"},\"node_modules/@openzeppelin/contracts/utils/introspection/IERC165.sol\":{\"keccak256\":\"0x4296879f55019b23e135000eb36896057e7101fb7fb859c5ef690cf14643757b\",\"urls\":[\"bzz-raw://87b3541437c8c443ccd36795e56a338ed12855eec17f8da624511b8d1a7e14df\",\"dweb:/ipfs/QmeJQCtZrQjtJLr6u7ZHWeH3pBnjtLWzvRrKViAi7UZqxL\"],\"license\":\"MIT\"},\"src/JBFeelessAddresses.sol\":{\"keccak256\":\"0x860d0650289bd755ecd25b7be4b2f0bb7b8432e267da9437bb928322d3c217a7\",\"urls\":[\"bzz-raw://0fa76cec4171ad3dfadb8228773300c41068d1892926a47c0766fa37012ca9db\",\"dweb:/ipfs/QmSEbFm4kmBrVNRBgw6bmhwwPVNQxcm3dYrZhJsaxDEsVN\"],\"license\":\"MIT\"},\"src/interfaces/IJBFeelessAddresses.sol\":{\"keccak256\":\"0xe5df42cfa71c5fa41b905c122de5825df13c2aab2f9cc4cf4bafa331dd69c27e\",\"urls\":[\"bzz-raw://3773bf3b42cc57d1e4086147e52135ff1dbff4309c45ca0398f821dfaa071563\",\"dweb:/ipfs/QmXUEJssHaxYKfV33tMZGf81JTR5a5yxEVshzNus84xLuT\"],\"license\":\"MIT\"}},\"version\":1}",
			"args": [
				"0x823b92d6a4b2AED4b15675c7917c9f922ea8ADAD"
			],
			"bytecode": "0x608060405234801561001057600080fd5b5060405161045038038061045083398101604081905261002f916100be565b806001600160a01b03811661005e57604051631e4fbdf760e01b81526000600482015260240160405180910390fd5b6100678161006e565b50506100ee565b600080546001600160a01b038381166001600160a01b0319831681178455604051919092169283917f8be0079c531659141344cd1fd0a4f28419497f9722a3daafe3b4186f6b6457e09190a35050565b6000602082840312156100d057600080fd5b81516001600160a01b03811681146100e757600080fd5b9392505050565b610353806100fd6000396000f3fe608060405234801561001057600080fd5b50600436106100625760003560e01c806301ffc9a714610067578063715018a61461008f5780637258002c146100995780638da5cb5b146100ac578063ae74a1b5146100c7578063f2fde38b146100ea575b600080fd5b61007a610075366004610279565b6100fd565b60405190151581526020015b60405180910390f35b610097610134565b005b6100976100a73660046102c6565b610148565b6000546040516001600160a01b039091168152602001610086565b61007a6100d5366004610302565b60016020526000908152604090205460ff1681565b6100976100f8366004610302565b6101b9565b60006001600160e01b0319821663dc2ca19960e01b148061012e57506001600160e01b031982166301ffc9a760e01b145b92915050565b61013c6101fc565b6101466000610229565b565b6101506101fc565b6001600160a01b0382166000818152600160205260409020805460ff1916831515908117909155907fa2653e25a502c023a5830d0de847ef6f458387865b1f4f575d7594f9f2c0d71e336040516001600160a01b03909116815260200160405180910390a35050565b6101c16101fc565b6001600160a01b0381166101f057604051631e4fbdf760e01b8152600060048201526024015b60405180910390fd5b6101f981610229565b50565b6000546001600160a01b031633146101465760405163118cdaa760e01b81523360048201526024016101e7565b600080546001600160a01b038381166001600160a01b0319831681178455604051919092169283917f8be0079c531659141344cd1fd0a4f28419497f9722a3daafe3b4186f6b6457e09190a35050565b60006020828403121561028b57600080fd5b81356001600160e01b0319811681146102a357600080fd5b9392505050565b80356001600160a01b03811681146102c157600080fd5b919050565b600080604083850312156102d957600080fd5b6102e2836102aa565b9150602083013580151581146102f757600080fd5b809150509250929050565b60006020828403121561031457600080fd5b6102a3826102aa56fea26469706673582212208a2354b0c33bc389c30912e168b6230eaef57e6b7244c0375c9146ee349b47f764736f6c63430008170033",
			"deployedBytecode": "0x608060405234801561001057600080fd5b50600436106100625760003560e01c806301ffc9a714610067578063715018a61461008f5780637258002c146100995780638da5cb5b146100ac578063ae74a1b5146100c7578063f2fde38b146100ea575b600080fd5b61007a610075366004610279565b6100fd565b60405190151581526020015b60405180910390f35b610097610134565b005b6100976100a73660046102c6565b610148565b6000546040516001600160a01b039091168152602001610086565b61007a6100d5366004610302565b60016020526000908152604090205460ff1681565b6100976100f8366004610302565b6101b9565b60006001600160e01b0319821663dc2ca19960e01b148061012e57506001600160e01b031982166301ffc9a760e01b145b92915050565b61013c6101fc565b6101466000610229565b565b6101506101fc565b6001600160a01b0382166000818152600160205260409020805460ff1916831515908117909155907fa2653e25a502c023a5830d0de847ef6f458387865b1f4f575d7594f9f2c0d71e336040516001600160a01b03909116815260200160405180910390a35050565b6101c16101fc565b6001600160a01b0381166101f057604051631e4fbdf760e01b8152600060048201526024015b60405180910390fd5b6101f981610229565b50565b6000546001600160a01b031633146101465760405163118cdaa760e01b81523360048201526024016101e7565b600080546001600160a01b038381166001600160a01b0319831681178455604051919092169283917f8be0079c531659141344cd1fd0a4f28419497f9722a3daafe3b4186f6b6457e09190a35050565b60006020828403121561028b57600080fd5b81356001600160e01b0319811681146102a357600080fd5b9392505050565b80356001600160a01b03811681146102c157600080fd5b919050565b600080604083850312156102d957600080fd5b6102e2836102aa565b9150602083013580151581146102f757600080fd5b809150509250929050565b60006020828403121561031457600080fd5b6102a3826102aa56fea26469706673582212208a2354b0c33bc389c30912e168b6230eaef57e6b7244c0375c9146ee349b47f764736f6c63430008170033",
			"devdoc": {
				"kind": "dev",
				"methods": {
					"constructor": {
						"params": {
							"owner": "The address that will own this contract."
						}
					},
					"owner()": {
						"details": "Returns the address of the current owner."
					},
					"renounceOwnership()": {
						"details": "Leaves the contract without owner. It will not be possible to call `onlyOwner` functions. Can only be called by the current owner. NOTE: Renouncing ownership will leave the contract without an owner, thereby disabling any functionality that is only available to the owner."
					},
					"setFeelessAddress(address,bool)": {
						"details": "Only the owner of this contract can set addresses as feeless or not feeless.Feeless addresses can receive payouts without incurring a fee.Feeless addresses can use the surplus allowance without incurring a fee.Feeless addresses can be the beneficary of redemptions without incurring a fee.",
						"params": {
							"addr": "The address to make feeless or not feeless.",
							"flag": "A flag indicating whether the `address` should be made feeless or not feeless."
						}
					},
					"supportsInterface(bytes4)": {
						"details": "See {IERC165-supportsInterface}.",
						"params": {
							"interfaceId": "The ID of the interface to check for adherance to."
						},
						"returns": {
							"_0": "A flag indicating if the provided interface ID is supported."
						}
					},
					"transferOwnership(address)": {
						"details": "Transfers ownership of the contract to a new account (`newOwner`). Can only be called by the current owner."
					}
				},
				"version": 1
			},
			"userdoc": {
				"kind": "user",
				"methods": {
					"isFeeless(address)": {
						"notice": "Feeless addresses for this terminal."
					},
					"setFeelessAddress(address,bool)": {
						"notice": "Sets an address as feeless or not feeless for this terminal."
					},
					"supportsInterface(bytes4)": {
						"notice": "Indicates if this contract adheres to the specified interface."
					}
				},
				"version": 1
			},
			"gitCommit": "62158c420c722b49faeb8974b2a980f19906fb7a",
			"sourceName": "src/JBFeelessAddresses.sol",
			"chainId": "11155111",
			"linkReferences": {},
			"deployedLinkReferences": {}
		},
		{
			"_format": "sphinx-sol-ct-artifact-1",
			"merkleRoot": "0xd585c33ce71711649e9771716c78530681c13a65cc62ef35805d17b1536fb647",
			"contractName": "JBFeelessAddresses",
			"address": "0xf2233B2578Eda901c9df79401EaEcDB203BB37E3",
			"abi": [
				{
					"type": "constructor",
					"inputs": [
						{
							"name": "owner",
							"type": "address",
							"internalType": "address"
						}
					],
					"stateMutability": "nonpayable"
				},
				{
					"type": "function",
					"name": "isFeeless",
					"inputs": [
						{
							"name": "addr",
							"type": "address",
							"internalType": "address"
						}
					],
					"outputs": [
						{
							"name": "",
							"type": "bool",
							"internalType": "bool"
						}
					],
					"stateMutability": "view"
				},
				{
					"type": "function",
					"name": "owner",
					"inputs": [],
					"outputs": [
						{
							"name": "",
							"type": "address",
							"internalType": "address"
						}
					],
					"stateMutability": "view"
				},
				{
					"type": "function",
					"name": "renounceOwnership",
					"inputs": [],
					"outputs": [],
					"stateMutability": "nonpayable"
				},
				{
					"type": "function",
					"name": "setFeelessAddress",
					"inputs": [
						{
							"name": "addr",
							"type": "address",
							"internalType": "address"
						},
						{
							"name": "flag",
							"type": "bool",
							"internalType": "bool"
						}
					],
					"outputs": [],
					"stateMutability": "nonpayable"
				},
				{
					"type": "function",
					"name": "supportsInterface",
					"inputs": [
						{
							"name": "interfaceId",
							"type": "bytes4",
							"internalType": "bytes4"
						}
					],
					"outputs": [
						{
							"name": "",
							"type": "bool",
							"internalType": "bool"
						}
					],
					"stateMutability": "view"
				},
				{
					"type": "function",
					"name": "transferOwnership",
					"inputs": [
						{
							"name": "newOwner",
							"type": "address",
							"internalType": "address"
						}
					],
					"outputs": [],
					"stateMutability": "nonpayable"
				},
				{
					"type": "event",
					"name": "OwnershipTransferred",
					"inputs": [
						{
							"name": "previousOwner",
							"type": "address",
							"indexed": true,
							"internalType": "address"
						},
						{
							"name": "newOwner",
							"type": "address",
							"indexed": true,
							"internalType": "address"
						}
					],
					"anonymous": false
				},
				{
					"type": "event",
					"name": "SetFeelessAddress",
					"inputs": [
						{
							"name": "account",
							"type": "address",
							"indexed": true,
							"internalType": "address"
						},
						{
							"name": "isFeeless",
							"type": "bool",
							"indexed": true,
							"internalType": "bool"
						},
						{
							"name": "caller",
							"type": "address",
							"indexed": false,
							"internalType": "address"
						}
					],
					"anonymous": false
				},
				{
					"type": "error",
					"name": "OwnableInvalidOwner",
					"inputs": [
						{
							"name": "owner",
							"type": "address",
							"internalType": "address"
						}
					]
				},
				{
					"type": "error",
					"name": "OwnableUnauthorizedAccount",
					"inputs": [
						{
							"name": "account",
							"type": "address",
							"internalType": "address"
						}
					]
				}
			],
			"solcInputHash": "9c8ada04ecb46a70149f6960114cde6f",
			"receipt": {
				"blockHash": "0x61b6c65b6435f31c43882e3c4c32d69a11554b6dde9ea4ecfb4ed603edaacee7",
				"blockNumber": 5617605,
				"contractAddress": null,
				"cumulativeGasUsed": "9739251",
				"from": "0xC034550B542b83BA1De312b21d1C94a9a52B1595",
				"gasPrice": "869417320",
				"gasUsed": "9739251",
				"hash": "0x230933f80dcc7e2cc448ca44edcc532e553392a68138d2a16b86303fd561bd00",
				"index": 0,
				"logs": [
					{
						"address": "0xB5E96127D417b1B3ef8438496a38A143167209c7",
						"blockHash": "0x61b6c65b6435f31c43882e3c4c32d69a11554b6dde9ea4ecfb4ed603edaacee7",
						"blockNumber": 5617605,
						"data": "0x0000000000000000000000000000000000000000000000000000000000000000",
						"index": 0,
						"topics": [
							"0x572f161235911da04685a68c06adf558fc7e4a36909dca394650e0adc19cc93d",
							"0x000000000000000000000000c034550b542b83ba1de312b21d1c94a9a52b1595",
							"0x000000000000000000000000ef1be3c049809cace5bc203bbe4ec1ab284bf75c",
							"0x90dbac8331375d6f31a6b41d2fef21f00d0f7f542355f12c5e9377eddf375b35"
						],
						"transactionHash": "0x230933f80dcc7e2cc448ca44edcc532e553392a68138d2a16b86303fd561bd00",
						"transactionIndex": 0
					},
					{
						"address": "0x1081B5AA9D9d4862A3dA4d469433FB36Ed80FA2A",
						"blockHash": "0x61b6c65b6435f31c43882e3c4c32d69a11554b6dde9ea4ecfb4ed603edaacee7",
						"blockNumber": 5617605,
						"data": "0x000000000000000000000000beb17ba97066906106d72fca2f05f1e307e74b76",
						"index": 1,
						"topics": [
							"0x4db17dd5e4732fb6da34a148104a592783ca119a1e7bb8829eba6cbadef0b511"
						],
						"transactionHash": "0x230933f80dcc7e2cc448ca44edcc532e553392a68138d2a16b86303fd561bd00",
						"transactionIndex": 0
					},
					{
						"address": "0x1081B5AA9D9d4862A3dA4d469433FB36Ed80FA2A",
						"blockHash": "0x61b6c65b6435f31c43882e3c4c32d69a11554b6dde9ea4ecfb4ed603edaacee7",
						"blockNumber": 5617605,
						"data": "0x",
						"index": 2,
						"topics": [
							"0x6895c13664aa4f67288b25d7a21d7aaa34916e355fb9b6fae0a139a9085becb8",
							"0x000000000000000000000000ef1be3c049809cace5bc203bbe4ec1ab284bf75c"
						],
						"transactionHash": "0x230933f80dcc7e2cc448ca44edcc532e553392a68138d2a16b86303fd561bd00",
						"transactionIndex": 0
					},
					{
						"address": "0xEf1Be3C049809caCe5Bc203BBe4Ec1Ab284bF75c",
						"blockHash": "0x61b6c65b6435f31c43882e3c4c32d69a11554b6dde9ea4ecfb4ed603edaacee7",
						"blockNumber": 5617605,
						"data": "0x0000000000000000000000000000000000000000000000000000000000000009",
						"index": 3,
						"topics": [
							"0xa65fb05c5808f5f389d72edeaf719ce38f4cc55c1f69ca3cbfb31c21501caa07",
							"0xd585c33ce71711649e9771716c78530681c13a65cc62ef35805d17b1536fb647"
						],
						"transactionHash": "0x230933f80dcc7e2cc448ca44edcc532e553392a68138d2a16b86303fd561bd00",
						"transactionIndex": 0
					},
					{
						"address": "0x71Ff91C8A27b436f7025C053c01A3F6AAE3Fc62E",
						"blockHash": "0x61b6c65b6435f31c43882e3c4c32d69a11554b6dde9ea4ecfb4ed603edaacee7",
						"blockNumber": 5617605,
						"data": "0x0000000000000000000000001081b5aa9d9d4862a3da4d469433fb36ed80fa2a",
						"index": 4,
						"topics": [
							"0x11207664cc48b0fa81c8674795f1d8f642960f38d5d2d305ad813093bed85fab",
							"0x000000000000000000000000beb17ba97066906106d72fca2f05f1e307e74b76",
							"0x0000000000000000000000000000000000000000000000000000000000000001"
						],
						"transactionHash": "0x230933f80dcc7e2cc448ca44edcc532e553392a68138d2a16b86303fd561bd00",
						"transactionIndex": 0
					},
					{
						"address": "0x1081B5AA9D9d4862A3dA4d469433FB36Ed80FA2A",
						"blockHash": "0x61b6c65b6435f31c43882e3c4c32d69a11554b6dde9ea4ecfb4ed603edaacee7",
						"blockNumber": 5617605,
						"data": "0x",
						"index": 5,
						"topics": [
							"0x6895c13664aa4f67288b25d7a21d7aaa34916e355fb9b6fae0a139a9085becb8",
							"0x000000000000000000000000ef1be3c049809cace5bc203bbe4ec1ab284bf75c"
						],
						"transactionHash": "0x230933f80dcc7e2cc448ca44edcc532e553392a68138d2a16b86303fd561bd00",
						"transactionIndex": 0
					},
					{
						"address": "0xEf1Be3C049809caCe5Bc203BBe4Ec1Ab284bF75c",
						"blockHash": "0x61b6c65b6435f31c43882e3c4c32d69a11554b6dde9ea4ecfb4ed603edaacee7",
						"blockNumber": 5617605,
						"data": "0x000000000000000000000000000000000000000000000000000000000000000a",
						"index": 6,
						"topics": [
							"0xa65fb05c5808f5f389d72edeaf719ce38f4cc55c1f69ca3cbfb31c21501caa07",
							"0xd585c33ce71711649e9771716c78530681c13a65cc62ef35805d17b1536fb647"
						],
						"transactionHash": "0x230933f80dcc7e2cc448ca44edcc532e553392a68138d2a16b86303fd561bd00",
						"transactionIndex": 0
					},
					{
						"address": "0xf2233B2578Eda901c9df79401EaEcDB203BB37E3",
						"blockHash": "0x61b6c65b6435f31c43882e3c4c32d69a11554b6dde9ea4ecfb4ed603edaacee7",
						"blockNumber": 5617605,
						"data": "0x",
						"index": 7,
						"topics": [
							"0x8be0079c531659141344cd1fd0a4f28419497f9722a3daafe3b4186f6b6457e0",
							"0x0000000000000000000000000000000000000000000000000000000000000000",
							"0x0000000000000000000000001081b5aa9d9d4862a3da4d469433fb36ed80fa2a"
						],
						"transactionHash": "0x230933f80dcc7e2cc448ca44edcc532e553392a68138d2a16b86303fd561bd00",
						"transactionIndex": 0
					},
					{
						"address": "0x1081B5AA9D9d4862A3dA4d469433FB36Ed80FA2A",
						"blockHash": "0x61b6c65b6435f31c43882e3c4c32d69a11554b6dde9ea4ecfb4ed603edaacee7",
						"blockNumber": 5617605,
						"data": "0x000000000000000000000000f2233b2578eda901c9df79401eaecdb203bb37e3",
						"index": 8,
						"topics": [
							"0x4db17dd5e4732fb6da34a148104a592783ca119a1e7bb8829eba6cbadef0b511"
						],
						"transactionHash": "0x230933f80dcc7e2cc448ca44edcc532e553392a68138d2a16b86303fd561bd00",
						"transactionIndex": 0
					},
					{
						"address": "0x1081B5AA9D9d4862A3dA4d469433FB36Ed80FA2A",
						"blockHash": "0x61b6c65b6435f31c43882e3c4c32d69a11554b6dde9ea4ecfb4ed603edaacee7",
						"blockNumber": 5617605,
						"data": "0x",
						"index": 9,
						"topics": [
							"0x6895c13664aa4f67288b25d7a21d7aaa34916e355fb9b6fae0a139a9085becb8",
							"0x000000000000000000000000ef1be3c049809cace5bc203bbe4ec1ab284bf75c"
						],
						"transactionHash": "0x230933f80dcc7e2cc448ca44edcc532e553392a68138d2a16b86303fd561bd00",
						"transactionIndex": 0
					},
					{
						"address": "0xEf1Be3C049809caCe5Bc203BBe4Ec1Ab284bF75c",
						"blockHash": "0x61b6c65b6435f31c43882e3c4c32d69a11554b6dde9ea4ecfb4ed603edaacee7",
						"blockNumber": 5617605,
						"data": "0x000000000000000000000000000000000000000000000000000000000000000b",
						"index": 10,
						"topics": [
							"0xa65fb05c5808f5f389d72edeaf719ce38f4cc55c1f69ca3cbfb31c21501caa07",
							"0xd585c33ce71711649e9771716c78530681c13a65cc62ef35805d17b1536fb647"
						],
						"transactionHash": "0x230933f80dcc7e2cc448ca44edcc532e553392a68138d2a16b86303fd561bd00",
						"transactionIndex": 0
					},
					{
						"address": "0x08A5638AE0efd3Aabc61622D1C46daA9b6DCEA09",
						"blockHash": "0x61b6c65b6435f31c43882e3c4c32d69a11554b6dde9ea4ecfb4ed603edaacee7",
						"blockNumber": 5617605,
						"data": "0x",
						"index": 11,
						"topics": [
							"0x8be0079c531659141344cd1fd0a4f28419497f9722a3daafe3b4186f6b6457e0",
							"0x0000000000000000000000000000000000000000000000000000000000000000",
							"0x0000000000000000000000001081b5aa9d9d4862a3da4d469433fb36ed80fa2a"
						],
						"transactionHash": "0x230933f80dcc7e2cc448ca44edcc532e553392a68138d2a16b86303fd561bd00",
						"transactionIndex": 0
					},
					{
						"address": "0x1081B5AA9D9d4862A3dA4d469433FB36Ed80FA2A",
						"blockHash": "0x61b6c65b6435f31c43882e3c4c32d69a11554b6dde9ea4ecfb4ed603edaacee7",
						"blockNumber": 5617605,
						"data": "0x00000000000000000000000008a5638ae0efd3aabc61622d1c46daa9b6dcea09",
						"index": 12,
						"topics": [
							"0x4db17dd5e4732fb6da34a148104a592783ca119a1e7bb8829eba6cbadef0b511"
						],
						"transactionHash": "0x230933f80dcc7e2cc448ca44edcc532e553392a68138d2a16b86303fd561bd00",
						"transactionIndex": 0
					},
					{
						"address": "0x1081B5AA9D9d4862A3dA4d469433FB36Ed80FA2A",
						"blockHash": "0x61b6c65b6435f31c43882e3c4c32d69a11554b6dde9ea4ecfb4ed603edaacee7",
						"blockNumber": 5617605,
						"data": "0x",
						"index": 13,
						"topics": [
							"0x6895c13664aa4f67288b25d7a21d7aaa34916e355fb9b6fae0a139a9085becb8",
							"0x000000000000000000000000ef1be3c049809cace5bc203bbe4ec1ab284bf75c"
						],
						"transactionHash": "0x230933f80dcc7e2cc448ca44edcc532e553392a68138d2a16b86303fd561bd00",
						"transactionIndex": 0
					},
					{
						"address": "0xEf1Be3C049809caCe5Bc203BBe4Ec1Ab284bF75c",
						"blockHash": "0x61b6c65b6435f31c43882e3c4c32d69a11554b6dde9ea4ecfb4ed603edaacee7",
						"blockNumber": 5617605,
						"data": "0x000000000000000000000000000000000000000000000000000000000000000c",
						"index": 14,
						"topics": [
							"0xa65fb05c5808f5f389d72edeaf719ce38f4cc55c1f69ca3cbfb31c21501caa07",
							"0xd585c33ce71711649e9771716c78530681c13a65cc62ef35805d17b1536fb647"
						],
						"transactionHash": "0x230933f80dcc7e2cc448ca44edcc532e553392a68138d2a16b86303fd561bd00",
						"transactionIndex": 0
					},
					{
						"address": "0x1081B5AA9D9d4862A3dA4d469433FB36Ed80FA2A",
						"blockHash": "0x61b6c65b6435f31c43882e3c4c32d69a11554b6dde9ea4ecfb4ed603edaacee7",
						"blockNumber": 5617605,
						"data": "0x0000000000000000000000009ef5ff7aca23b94309986ee3b4c1b13082913b59",
						"index": 15,
						"topics": [
							"0x4db17dd5e4732fb6da34a148104a592783ca119a1e7bb8829eba6cbadef0b511"
						],
						"transactionHash": "0x230933f80dcc7e2cc448ca44edcc532e553392a68138d2a16b86303fd561bd00",
						"transactionIndex": 0
					},
					{
						"address": "0x1081B5AA9D9d4862A3dA4d469433FB36Ed80FA2A",
						"blockHash": "0x61b6c65b6435f31c43882e3c4c32d69a11554b6dde9ea4ecfb4ed603edaacee7",
						"blockNumber": 5617605,
						"data": "0x",
						"index": 16,
						"topics": [
							"0x6895c13664aa4f67288b25d7a21d7aaa34916e355fb9b6fae0a139a9085becb8",
							"0x000000000000000000000000ef1be3c049809cace5bc203bbe4ec1ab284bf75c"
						],
						"transactionHash": "0x230933f80dcc7e2cc448ca44edcc532e553392a68138d2a16b86303fd561bd00",
						"transactionIndex": 0
					},
					{
						"address": "0xEf1Be3C049809caCe5Bc203BBe4Ec1Ab284bF75c",
						"blockHash": "0x61b6c65b6435f31c43882e3c4c32d69a11554b6dde9ea4ecfb4ed603edaacee7",
						"blockNumber": 5617605,
						"data": "0x000000000000000000000000000000000000000000000000000000000000000d",
						"index": 17,
						"topics": [
							"0xa65fb05c5808f5f389d72edeaf719ce38f4cc55c1f69ca3cbfb31c21501caa07",
							"0xd585c33ce71711649e9771716c78530681c13a65cc62ef35805d17b1536fb647"
						],
						"transactionHash": "0x230933f80dcc7e2cc448ca44edcc532e553392a68138d2a16b86303fd561bd00",
						"transactionIndex": 0
					}
				],
				"logsBloom": "0x80000000080010000008000000080000000000000008000000800000004000000060008000000000004000000040004000000000000000000000000000040000000000001000200400000000020000000001000000040000000200000001000000000000020000000000000000000800000000100020000010020000000200400001000800000000000100000000000400000000000000000100804000000020004200000010000000000000000000020200400000000000000000000006000000000000000000200000010008000000000000000000040000000080000060000000000000000004000000000040080200000000000000000000000010000000",
				"status": 1,
				"to": "0xB5E96127D417b1B3ef8438496a38A143167209c7"
			},
			"metadata": "{\"compiler\":{\"version\":\"0.8.23+commit.f704f362\"},\"language\":\"Solidity\",\"output\":{\"abi\":[{\"inputs\":[{\"internalType\":\"address\",\"name\":\"owner\",\"type\":\"address\"}],\"stateMutability\":\"nonpayable\",\"type\":\"constructor\"},{\"inputs\":[{\"internalType\":\"address\",\"name\":\"owner\",\"type\":\"address\"}],\"type\":\"error\",\"name\":\"OwnableInvalidOwner\"},{\"inputs\":[{\"internalType\":\"address\",\"name\":\"account\",\"type\":\"address\"}],\"type\":\"error\",\"name\":\"OwnableUnauthorizedAccount\"},{\"inputs\":[{\"internalType\":\"address\",\"name\":\"previousOwner\",\"type\":\"address\",\"indexed\":true},{\"internalType\":\"address\",\"name\":\"newOwner\",\"type\":\"address\",\"indexed\":true}],\"type\":\"event\",\"name\":\"OwnershipTransferred\",\"anonymous\":false},{\"inputs\":[{\"internalType\":\"address\",\"name\":\"account\",\"type\":\"address\",\"indexed\":true},{\"internalType\":\"bool\",\"name\":\"isFeeless\",\"type\":\"bool\",\"indexed\":true},{\"internalType\":\"address\",\"name\":\"caller\",\"type\":\"address\",\"indexed\":false}],\"type\":\"event\",\"name\":\"SetFeelessAddress\",\"anonymous\":false},{\"inputs\":[{\"internalType\":\"address\",\"name\":\"addr\",\"type\":\"address\"}],\"stateMutability\":\"view\",\"type\":\"function\",\"name\":\"isFeeless\",\"outputs\":[{\"internalType\":\"bool\",\"name\":\"\",\"type\":\"bool\"}]},{\"inputs\":[],\"stateMutability\":\"view\",\"type\":\"function\",\"name\":\"owner\",\"outputs\":[{\"internalType\":\"address\",\"name\":\"\",\"type\":\"address\"}]},{\"inputs\":[],\"stateMutability\":\"nonpayable\",\"type\":\"function\",\"name\":\"renounceOwnership\"},{\"inputs\":[{\"internalType\":\"address\",\"name\":\"addr\",\"type\":\"address\"},{\"internalType\":\"bool\",\"name\":\"flag\",\"type\":\"bool\"}],\"stateMutability\":\"nonpayable\",\"type\":\"function\",\"name\":\"setFeelessAddress\"},{\"inputs\":[{\"internalType\":\"bytes4\",\"name\":\"interfaceId\",\"type\":\"bytes4\"}],\"stateMutability\":\"view\",\"type\":\"function\",\"name\":\"supportsInterface\",\"outputs\":[{\"internalType\":\"bool\",\"name\":\"\",\"type\":\"bool\"}]},{\"inputs\":[{\"internalType\":\"address\",\"name\":\"newOwner\",\"type\":\"address\"}],\"stateMutability\":\"nonpayable\",\"type\":\"function\",\"name\":\"transferOwnership\"}],\"devdoc\":{\"kind\":\"dev\",\"methods\":{\"constructor\":{\"params\":{\"owner\":\"This contract's owner.\"}},\"owner()\":{\"details\":\"Returns the address of the current owner.\"},\"renounceOwnership()\":{\"details\":\"Leaves the contract without owner. It will not be possible to call `onlyOwner` functions. Can only be called by the current owner. NOTE: Renouncing ownership will leave the contract without an owner, thereby disabling any functionality that is only available to the owner.\"},\"setFeelessAddress(address,bool)\":{\"details\":\"Can only be called by this contract's owner.\",\"params\":{\"addr\":\"The address to set as feeless or not feeless.\",\"flag\":\"Whether the address should be feeless (`true`) or not feeless (`false`).\"}},\"supportsInterface(bytes4)\":{\"details\":\"See {IERC165-supportsInterface}.\",\"params\":{\"interfaceId\":\"The ID of the interface to check for adherence to.\"},\"returns\":{\"_0\":\"A flag indicating if the provided interface ID is supported.\"}},\"transferOwnership(address)\":{\"details\":\"Transfers ownership of the contract to a new account (`newOwner`). Can only be called by the current owner.\"}},\"version\":1},\"userdoc\":{\"kind\":\"user\",\"methods\":{\"isFeeless(address)\":{\"notice\":\"Check if the specified address is feeless.\"},\"setFeelessAddress(address,bool)\":{\"notice\":\"Sets whether an address is feeless.\"},\"supportsInterface(bytes4)\":{\"notice\":\"Indicates whether this contract adheres to the specified interface.\"}},\"version\":1}},\"settings\":{\"remappings\":[\"@bananapus/=node_modules/@bananapus/\",\"@chainlink/=node_modules/@chainlink/\",\"@eth-optimism/=node_modules/@eth-optimism/\",\"@gnosis.pm/=node_modules/@gnosis.pm/\",\"@openzeppelin/=node_modules/@openzeppelin/\",\"@prb/=node_modules/@prb/\",\"@sphinx-labs/contracts/=lib/sphinx/packages/contracts/contracts/foundry/\",\"@uniswap/=node_modules/@uniswap/\",\"ds-test/=lib/forge-std/lib/ds-test/src/\",\"forge-std/=lib/forge-std/src/\",\"hardhat/=node_modules/hardhat/\",\"solmate/=node_modules/solmate/\",\"sphinx-forge-std/=node_modules/sphinx-forge-std/\",\"sphinx-solmate/=node_modules/sphinx-solmate/\",\"sphinx/=lib/sphinx/\"],\"optimizer\":{\"enabled\":true,\"runs\":200},\"metadata\":{\"bytecodeHash\":\"ipfs\"},\"compilationTarget\":{\"src/JBFeelessAddresses.sol\":\"JBFeelessAddresses\"},\"evmVersion\":\"paris\",\"libraries\":{}},\"sources\":{\"node_modules/@openzeppelin/contracts/access/Ownable.sol\":{\"keccak256\":\"0xff6d0bb2e285473e5311d9d3caacb525ae3538a80758c10649a4d61029b017bb\",\"urls\":[\"bzz-raw://8ed324d3920bb545059d66ab97d43e43ee85fd3bd52e03e401f020afb0b120f6\",\"dweb:/ipfs/QmfEckWLmZkDDcoWrkEvMWhms66xwTLff9DDhegYpvHo1a\"],\"license\":\"MIT\"},\"node_modules/@openzeppelin/contracts/utils/Context.sol\":{\"keccak256\":\"0x493033a8d1b176a037b2cc6a04dad01a5c157722049bbecf632ca876224dd4b2\",\"urls\":[\"bzz-raw://6a708e8a5bdb1011c2c381c9a5cfd8a9a956d7d0a9dc1bd8bcdaf52f76ef2f12\",\"dweb:/ipfs/Qmax9WHBnVsZP46ZxEMNRQpLQnrdE4dK8LehML1Py8FowF\"],\"license\":\"MIT\"},\"node_modules/@openzeppelin/contracts/utils/introspection/ERC165.sol\":{\"keccak256\":\"0x9e8778b14317ba9e256c30a76fd6c32b960af621987f56069e1e819c77c6a133\",\"urls\":[\"bzz-raw://1777404f1dcd0fac188e55a288724ec3c67b45288e49cc64723e95e702b49ab8\",\"dweb:/ipfs/QmZFdC626GButBApwDUvvTnUzdinevC3B24d7yyh57XkiA\"],\"license\":\"MIT\"},\"node_modules/@openzeppelin/contracts/utils/introspection/IERC165.sol\":{\"keccak256\":\"0x4296879f55019b23e135000eb36896057e7101fb7fb859c5ef690cf14643757b\",\"urls\":[\"bzz-raw://87b3541437c8c443ccd36795e56a338ed12855eec17f8da624511b8d1a7e14df\",\"dweb:/ipfs/QmeJQCtZrQjtJLr6u7ZHWeH3pBnjtLWzvRrKViAi7UZqxL\"],\"license\":\"MIT\"},\"src/JBFeelessAddresses.sol\":{\"keccak256\":\"0x1743d390650d6257819f936a41f9ad6daea202cea1d387718c08c2359aa0c9e8\",\"urls\":[\"bzz-raw://c8256727b82d4d7384bc2e8db918e03280fd980cc9fab36e10d96e74002efe48\",\"dweb:/ipfs/QmUpqtCcrnTo1otxszUXTiEC6zF9hoWas1fz9shteiWk9G\"],\"license\":\"MIT\"},\"src/interfaces/IJBFeelessAddresses.sol\":{\"keccak256\":\"0xe5df42cfa71c5fa41b905c122de5825df13c2aab2f9cc4cf4bafa331dd69c27e\",\"urls\":[\"bzz-raw://3773bf3b42cc57d1e4086147e52135ff1dbff4309c45ca0398f821dfaa071563\",\"dweb:/ipfs/QmXUEJssHaxYKfV33tMZGf81JTR5a5yxEVshzNus84xLuT\"],\"license\":\"MIT\"}},\"version\":1}",
			"args": [
				"0x1081B5AA9D9d4862A3dA4d469433FB36Ed80FA2A"
			],
			"bytecode": "0x608060405234801561001057600080fd5b5060405161045038038061045083398101604081905261002f916100be565b806001600160a01b03811661005e57604051631e4fbdf760e01b81526000600482015260240160405180910390fd5b6100678161006e565b50506100ee565b600080546001600160a01b038381166001600160a01b0319831681178455604051919092169283917f8be0079c531659141344cd1fd0a4f28419497f9722a3daafe3b4186f6b6457e09190a35050565b6000602082840312156100d057600080fd5b81516001600160a01b03811681146100e757600080fd5b9392505050565b610353806100fd6000396000f3fe608060405234801561001057600080fd5b50600436106100625760003560e01c806301ffc9a714610067578063715018a61461008f5780637258002c146100995780638da5cb5b146100ac578063ae74a1b5146100c7578063f2fde38b146100ea575b600080fd5b61007a610075366004610279565b6100fd565b60405190151581526020015b60405180910390f35b610097610134565b005b6100976100a73660046102c6565b610148565b6000546040516001600160a01b039091168152602001610086565b61007a6100d5366004610302565b60016020526000908152604090205460ff1681565b6100976100f8366004610302565b6101b9565b60006001600160e01b0319821663dc2ca19960e01b148061012e57506001600160e01b031982166301ffc9a760e01b145b92915050565b61013c6101fc565b6101466000610229565b565b6101506101fc565b6001600160a01b0382166000818152600160205260409020805460ff1916831515908117909155907fa2653e25a502c023a5830d0de847ef6f458387865b1f4f575d7594f9f2c0d71e336040516001600160a01b03909116815260200160405180910390a35050565b6101c16101fc565b6001600160a01b0381166101f057604051631e4fbdf760e01b8152600060048201526024015b60405180910390fd5b6101f981610229565b50565b6000546001600160a01b031633146101465760405163118cdaa760e01b81523360048201526024016101e7565b600080546001600160a01b038381166001600160a01b0319831681178455604051919092169283917f8be0079c531659141344cd1fd0a4f28419497f9722a3daafe3b4186f6b6457e09190a35050565b60006020828403121561028b57600080fd5b81356001600160e01b0319811681146102a357600080fd5b9392505050565b80356001600160a01b03811681146102c157600080fd5b919050565b600080604083850312156102d957600080fd5b6102e2836102aa565b9150602083013580151581146102f757600080fd5b809150509250929050565b60006020828403121561031457600080fd5b6102a3826102aa56fea26469706673582212208a167dcfbb114479ce17330774d2d02ca0b9afac69d5d4749c93f881826761ac64736f6c63430008170033",
			"deployedBytecode": "0x608060405234801561001057600080fd5b50600436106100625760003560e01c806301ffc9a714610067578063715018a61461008f5780637258002c146100995780638da5cb5b146100ac578063ae74a1b5146100c7578063f2fde38b146100ea575b600080fd5b61007a610075366004610279565b6100fd565b60405190151581526020015b60405180910390f35b610097610134565b005b6100976100a73660046102c6565b610148565b6000546040516001600160a01b039091168152602001610086565b61007a6100d5366004610302565b60016020526000908152604090205460ff1681565b6100976100f8366004610302565b6101b9565b60006001600160e01b0319821663dc2ca19960e01b148061012e57506001600160e01b031982166301ffc9a760e01b145b92915050565b61013c6101fc565b6101466000610229565b565b6101506101fc565b6001600160a01b0382166000818152600160205260409020805460ff1916831515908117909155907fa2653e25a502c023a5830d0de847ef6f458387865b1f4f575d7594f9f2c0d71e336040516001600160a01b03909116815260200160405180910390a35050565b6101c16101fc565b6001600160a01b0381166101f057604051631e4fbdf760e01b8152600060048201526024015b60405180910390fd5b6101f981610229565b50565b6000546001600160a01b031633146101465760405163118cdaa760e01b81523360048201526024016101e7565b600080546001600160a01b038381166001600160a01b0319831681178455604051919092169283917f8be0079c531659141344cd1fd0a4f28419497f9722a3daafe3b4186f6b6457e09190a35050565b60006020828403121561028b57600080fd5b81356001600160e01b0319811681146102a357600080fd5b9392505050565b80356001600160a01b03811681146102c157600080fd5b919050565b600080604083850312156102d957600080fd5b6102e2836102aa565b9150602083013580151581146102f757600080fd5b809150509250929050565b60006020828403121561031457600080fd5b6102a3826102aa56fea26469706673582212208a167dcfbb114479ce17330774d2d02ca0b9afac69d5d4749c93f881826761ac64736f6c63430008170033",
			"devdoc": {
				"kind": "dev",
				"methods": {
					"constructor": {
						"params": {
							"owner": "This contract's owner."
						}
					},
					"owner()": {
						"details": "Returns the address of the current owner."
					},
					"renounceOwnership()": {
						"details": "Leaves the contract without owner. It will not be possible to call `onlyOwner` functions. Can only be called by the current owner. NOTE: Renouncing ownership will leave the contract without an owner, thereby disabling any functionality that is only available to the owner."
					},
					"setFeelessAddress(address,bool)": {
						"details": "Can only be called by this contract's owner.",
						"params": {
							"addr": "The address to set as feeless or not feeless.",
							"flag": "Whether the address should be feeless (`true`) or not feeless (`false`)."
						}
					},
					"supportsInterface(bytes4)": {
						"details": "See {IERC165-supportsInterface}.",
						"params": {
							"interfaceId": "The ID of the interface to check for adherence to."
						},
						"returns": {
							"_0": "A flag indicating if the provided interface ID is supported."
						}
					},
					"transferOwnership(address)": {
						"details": "Transfers ownership of the contract to a new account (`newOwner`). Can only be called by the current owner."
					}
				},
				"version": 1
			},
			"userdoc": {
				"kind": "user",
				"methods": {
					"isFeeless(address)": {
						"notice": "Check if the specified address is feeless."
					},
					"setFeelessAddress(address,bool)": {
						"notice": "Sets whether an address is feeless."
					},
					"supportsInterface(bytes4)": {
						"notice": "Indicates whether this contract adheres to the specified interface."
					}
				},
				"version": 1
			},
			"gitCommit": "810aab8b9c3a0626e80bb9e6b819daaf6dcfee82",
			"sourceName": "src/JBFeelessAddresses.sol",
			"chainId": "11155111",
			"linkReferences": {},
			"deployedLinkReferences": {}
		},
		{
			"_format": "sphinx-sol-ct-artifact-1",
			"merkleRoot": "0xeb3166bda3fcd69ca05fdf479239793e480a434f3066bc23b43dcbae1f55c908",
			"contractName": "JBFeelessAddresses",
			"address": "0xfc23a394F8029f88cFEe20129e5529fAA72cF394",
			"abi": [
				{
					"type": "constructor",
					"inputs": [
						{
							"name": "owner",
							"type": "address",
							"internalType": "address"
						}
					],
					"stateMutability": "nonpayable"
				},
				{
					"type": "function",
					"name": "isFeeless",
					"inputs": [
						{
							"name": "addr",
							"type": "address",
							"internalType": "address"
						}
					],
					"outputs": [
						{
							"name": "",
							"type": "bool",
							"internalType": "bool"
						}
					],
					"stateMutability": "view"
				},
				{
					"type": "function",
					"name": "owner",
					"inputs": [],
					"outputs": [
						{
							"name": "",
							"type": "address",
							"internalType": "address"
						}
					],
					"stateMutability": "view"
				},
				{
					"type": "function",
					"name": "renounceOwnership",
					"inputs": [],
					"outputs": [],
					"stateMutability": "nonpayable"
				},
				{
					"type": "function",
					"name": "setFeelessAddress",
					"inputs": [
						{
							"name": "addr",
							"type": "address",
							"internalType": "address"
						},
						{
							"name": "flag",
							"type": "bool",
							"internalType": "bool"
						}
					],
					"outputs": [],
					"stateMutability": "nonpayable"
				},
				{
					"type": "function",
					"name": "supportsInterface",
					"inputs": [
						{
							"name": "interfaceId",
							"type": "bytes4",
							"internalType": "bytes4"
						}
					],
					"outputs": [
						{
							"name": "",
							"type": "bool",
							"internalType": "bool"
						}
					],
					"stateMutability": "view"
				},
				{
					"type": "function",
					"name": "transferOwnership",
					"inputs": [
						{
							"name": "newOwner",
							"type": "address",
							"internalType": "address"
						}
					],
					"outputs": [],
					"stateMutability": "nonpayable"
				},
				{
					"type": "event",
					"name": "OwnershipTransferred",
					"inputs": [
						{
							"name": "previousOwner",
							"type": "address",
							"indexed": true,
							"internalType": "address"
						},
						{
							"name": "newOwner",
							"type": "address",
							"indexed": true,
							"internalType": "address"
						}
					],
					"anonymous": false
				},
				{
					"type": "event",
					"name": "SetFeelessAddress",
					"inputs": [
						{
							"name": "account",
							"type": "address",
							"indexed": true,
							"internalType": "address"
						},
						{
							"name": "isFeeless",
							"type": "bool",
							"indexed": true,
							"internalType": "bool"
						},
						{
							"name": "caller",
							"type": "address",
							"indexed": false,
							"internalType": "address"
						}
					],
					"anonymous": false
				},
				{
					"type": "error",
					"name": "OwnableInvalidOwner",
					"inputs": [
						{
							"name": "owner",
							"type": "address",
							"internalType": "address"
						}
					]
				},
				{
					"type": "error",
					"name": "OwnableUnauthorizedAccount",
					"inputs": [
						{
							"name": "account",
							"type": "address",
							"internalType": "address"
						}
					]
				}
			],
			"solcInputHash": "ca7cc2b8e77e7f12f966f059a5ca4cba",
			"receipt": {
				"blockHash": "0x10c11b0cbe28c04cb1b08d5c26ac0176a3c811c5807b91578e156daff9371bed",
				"blockNumber": 5671411,
				"contractAddress": null,
				"cumulativeGasUsed": "15050069",
				"from": "0xC034550B542b83BA1De312b21d1C94a9a52B1595",
				"gasPrice": "1000410821",
				"gasUsed": "9740455",
				"hash": "0xaa2772378731740dd0d5f42eac34ffe91cb3cc284b1d67a11deda0f76913adba",
				"index": 24,
				"logs": [
					{
						"address": "0xB5E96127D417b1B3ef8438496a38A143167209c7",
						"blockHash": "0x10c11b0cbe28c04cb1b08d5c26ac0176a3c811c5807b91578e156daff9371bed",
						"blockNumber": 5671411,
						"data": "0x0000000000000000000000000000000000000000000000000000000000000000",
						"index": 50,
						"topics": [
							"0x572f161235911da04685a68c06adf558fc7e4a36909dca394650e0adc19cc93d",
							"0x000000000000000000000000c034550b542b83ba1de312b21d1c94a9a52b1595",
							"0x000000000000000000000000ef1be3c049809cace5bc203bbe4ec1ab284bf75c",
							"0x3053cd68b508db596fe54098346e338f96f47267244d21cb5de9db4d14e03dc1"
						],
						"transactionHash": "0xaa2772378731740dd0d5f42eac34ffe91cb3cc284b1d67a11deda0f76913adba",
						"transactionIndex": 24
					},
					{
						"address": "0x1081B5AA9D9d4862A3dA4d469433FB36Ed80FA2A",
						"blockHash": "0x10c11b0cbe28c04cb1b08d5c26ac0176a3c811c5807b91578e156daff9371bed",
						"blockNumber": 5671411,
						"data": "0x00000000000000000000000075295c69178f42cfe9cf710f307891d6ce471920",
						"index": 51,
						"topics": [
							"0x4db17dd5e4732fb6da34a148104a592783ca119a1e7bb8829eba6cbadef0b511"
						],
						"transactionHash": "0xaa2772378731740dd0d5f42eac34ffe91cb3cc284b1d67a11deda0f76913adba",
						"transactionIndex": 24
					},
					{
						"address": "0x1081B5AA9D9d4862A3dA4d469433FB36Ed80FA2A",
						"blockHash": "0x10c11b0cbe28c04cb1b08d5c26ac0176a3c811c5807b91578e156daff9371bed",
						"blockNumber": 5671411,
						"data": "0x",
						"index": 52,
						"topics": [
							"0x6895c13664aa4f67288b25d7a21d7aaa34916e355fb9b6fae0a139a9085becb8",
							"0x000000000000000000000000ef1be3c049809cace5bc203bbe4ec1ab284bf75c"
						],
						"transactionHash": "0xaa2772378731740dd0d5f42eac34ffe91cb3cc284b1d67a11deda0f76913adba",
						"transactionIndex": 24
					},
					{
						"address": "0xEf1Be3C049809caCe5Bc203BBe4Ec1Ab284bF75c",
						"blockHash": "0x10c11b0cbe28c04cb1b08d5c26ac0176a3c811c5807b91578e156daff9371bed",
						"blockNumber": 5671411,
						"data": "0x0000000000000000000000000000000000000000000000000000000000000009",
						"index": 53,
						"topics": [
							"0xa65fb05c5808f5f389d72edeaf719ce38f4cc55c1f69ca3cbfb31c21501caa07",
							"0xeb3166bda3fcd69ca05fdf479239793e480a434f3066bc23b43dcbae1f55c908"
						],
						"transactionHash": "0xaa2772378731740dd0d5f42eac34ffe91cb3cc284b1d67a11deda0f76913adba",
						"transactionIndex": 24
					},
					{
						"address": "0x44d360C8c4105f180e07668bd3374c7A6F812FAF",
						"blockHash": "0x10c11b0cbe28c04cb1b08d5c26ac0176a3c811c5807b91578e156daff9371bed",
						"blockNumber": 5671411,
						"data": "0x0000000000000000000000001081b5aa9d9d4862a3da4d469433fb36ed80fa2a",
						"index": 54,
						"topics": [
							"0x11207664cc48b0fa81c8674795f1d8f642960f38d5d2d305ad813093bed85fab",
							"0x00000000000000000000000075295c69178f42cfe9cf710f307891d6ce471920",
							"0x0000000000000000000000000000000000000000000000000000000000000001"
						],
						"transactionHash": "0xaa2772378731740dd0d5f42eac34ffe91cb3cc284b1d67a11deda0f76913adba",
						"transactionIndex": 24
					},
					{
						"address": "0x1081B5AA9D9d4862A3dA4d469433FB36Ed80FA2A",
						"blockHash": "0x10c11b0cbe28c04cb1b08d5c26ac0176a3c811c5807b91578e156daff9371bed",
						"blockNumber": 5671411,
						"data": "0x",
						"index": 55,
						"topics": [
							"0x6895c13664aa4f67288b25d7a21d7aaa34916e355fb9b6fae0a139a9085becb8",
							"0x000000000000000000000000ef1be3c049809cace5bc203bbe4ec1ab284bf75c"
						],
						"transactionHash": "0xaa2772378731740dd0d5f42eac34ffe91cb3cc284b1d67a11deda0f76913adba",
						"transactionIndex": 24
					},
					{
						"address": "0xEf1Be3C049809caCe5Bc203BBe4Ec1Ab284bF75c",
						"blockHash": "0x10c11b0cbe28c04cb1b08d5c26ac0176a3c811c5807b91578e156daff9371bed",
						"blockNumber": 5671411,
						"data": "0x000000000000000000000000000000000000000000000000000000000000000a",
						"index": 56,
						"topics": [
							"0xa65fb05c5808f5f389d72edeaf719ce38f4cc55c1f69ca3cbfb31c21501caa07",
							"0xeb3166bda3fcd69ca05fdf479239793e480a434f3066bc23b43dcbae1f55c908"
						],
						"transactionHash": "0xaa2772378731740dd0d5f42eac34ffe91cb3cc284b1d67a11deda0f76913adba",
						"transactionIndex": 24
					},
					{
						"address": "0xfc23a394F8029f88cFEe20129e5529fAA72cF394",
						"blockHash": "0x10c11b0cbe28c04cb1b08d5c26ac0176a3c811c5807b91578e156daff9371bed",
						"blockNumber": 5671411,
						"data": "0x",
						"index": 57,
						"topics": [
							"0x8be0079c531659141344cd1fd0a4f28419497f9722a3daafe3b4186f6b6457e0",
							"0x0000000000000000000000000000000000000000000000000000000000000000",
							"0x0000000000000000000000001081b5aa9d9d4862a3da4d469433fb36ed80fa2a"
						],
						"transactionHash": "0xaa2772378731740dd0d5f42eac34ffe91cb3cc284b1d67a11deda0f76913adba",
						"transactionIndex": 24
					},
					{
						"address": "0x1081B5AA9D9d4862A3dA4d469433FB36Ed80FA2A",
						"blockHash": "0x10c11b0cbe28c04cb1b08d5c26ac0176a3c811c5807b91578e156daff9371bed",
						"blockNumber": 5671411,
						"data": "0x000000000000000000000000fc23a394f8029f88cfee20129e5529faa72cf394",
						"index": 58,
						"topics": [
							"0x4db17dd5e4732fb6da34a148104a592783ca119a1e7bb8829eba6cbadef0b511"
						],
						"transactionHash": "0xaa2772378731740dd0d5f42eac34ffe91cb3cc284b1d67a11deda0f76913adba",
						"transactionIndex": 24
					},
					{
						"address": "0x1081B5AA9D9d4862A3dA4d469433FB36Ed80FA2A",
						"blockHash": "0x10c11b0cbe28c04cb1b08d5c26ac0176a3c811c5807b91578e156daff9371bed",
						"blockNumber": 5671411,
						"data": "0x",
						"index": 59,
						"topics": [
							"0x6895c13664aa4f67288b25d7a21d7aaa34916e355fb9b6fae0a139a9085becb8",
							"0x000000000000000000000000ef1be3c049809cace5bc203bbe4ec1ab284bf75c"
						],
						"transactionHash": "0xaa2772378731740dd0d5f42eac34ffe91cb3cc284b1d67a11deda0f76913adba",
						"transactionIndex": 24
					},
					{
						"address": "0xEf1Be3C049809caCe5Bc203BBe4Ec1Ab284bF75c",
						"blockHash": "0x10c11b0cbe28c04cb1b08d5c26ac0176a3c811c5807b91578e156daff9371bed",
						"blockNumber": 5671411,
						"data": "0x000000000000000000000000000000000000000000000000000000000000000b",
						"index": 60,
						"topics": [
							"0xa65fb05c5808f5f389d72edeaf719ce38f4cc55c1f69ca3cbfb31c21501caa07",
							"0xeb3166bda3fcd69ca05fdf479239793e480a434f3066bc23b43dcbae1f55c908"
						],
						"transactionHash": "0xaa2772378731740dd0d5f42eac34ffe91cb3cc284b1d67a11deda0f76913adba",
						"transactionIndex": 24
					},
					{
						"address": "0x3FfC68011DA65428875CfDaC2C6e4778090cf171",
						"blockHash": "0x10c11b0cbe28c04cb1b08d5c26ac0176a3c811c5807b91578e156daff9371bed",
						"blockNumber": 5671411,
						"data": "0x",
						"index": 61,
						"topics": [
							"0x8be0079c531659141344cd1fd0a4f28419497f9722a3daafe3b4186f6b6457e0",
							"0x0000000000000000000000000000000000000000000000000000000000000000",
							"0x0000000000000000000000001081b5aa9d9d4862a3da4d469433fb36ed80fa2a"
						],
						"transactionHash": "0xaa2772378731740dd0d5f42eac34ffe91cb3cc284b1d67a11deda0f76913adba",
						"transactionIndex": 24
					},
					{
						"address": "0x1081B5AA9D9d4862A3dA4d469433FB36Ed80FA2A",
						"blockHash": "0x10c11b0cbe28c04cb1b08d5c26ac0176a3c811c5807b91578e156daff9371bed",
						"blockNumber": 5671411,
						"data": "0x0000000000000000000000003ffc68011da65428875cfdac2c6e4778090cf171",
						"index": 62,
						"topics": [
							"0x4db17dd5e4732fb6da34a148104a592783ca119a1e7bb8829eba6cbadef0b511"
						],
						"transactionHash": "0xaa2772378731740dd0d5f42eac34ffe91cb3cc284b1d67a11deda0f76913adba",
						"transactionIndex": 24
					},
					{
						"address": "0x1081B5AA9D9d4862A3dA4d469433FB36Ed80FA2A",
						"blockHash": "0x10c11b0cbe28c04cb1b08d5c26ac0176a3c811c5807b91578e156daff9371bed",
						"blockNumber": 5671411,
						"data": "0x",
						"index": 63,
						"topics": [
							"0x6895c13664aa4f67288b25d7a21d7aaa34916e355fb9b6fae0a139a9085becb8",
							"0x000000000000000000000000ef1be3c049809cace5bc203bbe4ec1ab284bf75c"
						],
						"transactionHash": "0xaa2772378731740dd0d5f42eac34ffe91cb3cc284b1d67a11deda0f76913adba",
						"transactionIndex": 24
					},
					{
						"address": "0xEf1Be3C049809caCe5Bc203BBe4Ec1Ab284bF75c",
						"blockHash": "0x10c11b0cbe28c04cb1b08d5c26ac0176a3c811c5807b91578e156daff9371bed",
						"blockNumber": 5671411,
						"data": "0x000000000000000000000000000000000000000000000000000000000000000c",
						"index": 64,
						"topics": [
							"0xa65fb05c5808f5f389d72edeaf719ce38f4cc55c1f69ca3cbfb31c21501caa07",
							"0xeb3166bda3fcd69ca05fdf479239793e480a434f3066bc23b43dcbae1f55c908"
						],
						"transactionHash": "0xaa2772378731740dd0d5f42eac34ffe91cb3cc284b1d67a11deda0f76913adba",
						"transactionIndex": 24
					},
					{
						"address": "0x1081B5AA9D9d4862A3dA4d469433FB36Ed80FA2A",
						"blockHash": "0x10c11b0cbe28c04cb1b08d5c26ac0176a3c811c5807b91578e156daff9371bed",
						"blockNumber": 5671411,
						"data": "0x000000000000000000000000c30d3e0e3565be0801db464cea108604a9e7f262",
						"index": 65,
						"topics": [
							"0x4db17dd5e4732fb6da34a148104a592783ca119a1e7bb8829eba6cbadef0b511"
						],
						"transactionHash": "0xaa2772378731740dd0d5f42eac34ffe91cb3cc284b1d67a11deda0f76913adba",
						"transactionIndex": 24
					},
					{
						"address": "0x1081B5AA9D9d4862A3dA4d469433FB36Ed80FA2A",
						"blockHash": "0x10c11b0cbe28c04cb1b08d5c26ac0176a3c811c5807b91578e156daff9371bed",
						"blockNumber": 5671411,
						"data": "0x",
						"index": 66,
						"topics": [
							"0x6895c13664aa4f67288b25d7a21d7aaa34916e355fb9b6fae0a139a9085becb8",
							"0x000000000000000000000000ef1be3c049809cace5bc203bbe4ec1ab284bf75c"
						],
						"transactionHash": "0xaa2772378731740dd0d5f42eac34ffe91cb3cc284b1d67a11deda0f76913adba",
						"transactionIndex": 24
					},
					{
						"address": "0xEf1Be3C049809caCe5Bc203BBe4Ec1Ab284bF75c",
						"blockHash": "0x10c11b0cbe28c04cb1b08d5c26ac0176a3c811c5807b91578e156daff9371bed",
						"blockNumber": 5671411,
						"data": "0x000000000000000000000000000000000000000000000000000000000000000d",
						"index": 67,
						"topics": [
							"0xa65fb05c5808f5f389d72edeaf719ce38f4cc55c1f69ca3cbfb31c21501caa07",
							"0xeb3166bda3fcd69ca05fdf479239793e480a434f3066bc23b43dcbae1f55c908"
						],
						"transactionHash": "0xaa2772378731740dd0d5f42eac34ffe91cb3cc284b1d67a11deda0f76913adba",
						"transactionIndex": 24
					}
				],
				"logsBloom": "0x00000000080010000008008000080000000001000008000000800800004080000060008000000000000000000040000000000000000000000000000000040000000000000000200400000000020200000001000000040000000200000000000000000000020000000000040000000800000000100021000010000000002000400001000000000000000100008001000000000000000000000000804000000020004000000210000000000000000000020200400000000000000000000006000000000000000800200000000408000000000000000000040000000000000460000000000000000824000000001000000200000000000000000000000000000000",
				"status": 1,
				"to": "0xB5E96127D417b1B3ef8438496a38A143167209c7"
			},
			"metadata": "{\"compiler\":{\"version\":\"0.8.23+commit.f704f362\"},\"language\":\"Solidity\",\"output\":{\"abi\":[{\"inputs\":[{\"internalType\":\"address\",\"name\":\"owner\",\"type\":\"address\"}],\"stateMutability\":\"nonpayable\",\"type\":\"constructor\"},{\"inputs\":[{\"internalType\":\"address\",\"name\":\"owner\",\"type\":\"address\"}],\"type\":\"error\",\"name\":\"OwnableInvalidOwner\"},{\"inputs\":[{\"internalType\":\"address\",\"name\":\"account\",\"type\":\"address\"}],\"type\":\"error\",\"name\":\"OwnableUnauthorizedAccount\"},{\"inputs\":[{\"internalType\":\"address\",\"name\":\"previousOwner\",\"type\":\"address\",\"indexed\":true},{\"internalType\":\"address\",\"name\":\"newOwner\",\"type\":\"address\",\"indexed\":true}],\"type\":\"event\",\"name\":\"OwnershipTransferred\",\"anonymous\":false},{\"inputs\":[{\"internalType\":\"address\",\"name\":\"account\",\"type\":\"address\",\"indexed\":true},{\"internalType\":\"bool\",\"name\":\"isFeeless\",\"type\":\"bool\",\"indexed\":true},{\"internalType\":\"address\",\"name\":\"caller\",\"type\":\"address\",\"indexed\":false}],\"type\":\"event\",\"name\":\"SetFeelessAddress\",\"anonymous\":false},{\"inputs\":[{\"internalType\":\"address\",\"name\":\"addr\",\"type\":\"address\"}],\"stateMutability\":\"view\",\"type\":\"function\",\"name\":\"isFeeless\",\"outputs\":[{\"internalType\":\"bool\",\"name\":\"\",\"type\":\"bool\"}]},{\"inputs\":[],\"stateMutability\":\"view\",\"type\":\"function\",\"name\":\"owner\",\"outputs\":[{\"internalType\":\"address\",\"name\":\"\",\"type\":\"address\"}]},{\"inputs\":[],\"stateMutability\":\"nonpayable\",\"type\":\"function\",\"name\":\"renounceOwnership\"},{\"inputs\":[{\"internalType\":\"address\",\"name\":\"addr\",\"type\":\"address\"},{\"internalType\":\"bool\",\"name\":\"flag\",\"type\":\"bool\"}],\"stateMutability\":\"nonpayable\",\"type\":\"function\",\"name\":\"setFeelessAddress\"},{\"inputs\":[{\"internalType\":\"bytes4\",\"name\":\"interfaceId\",\"type\":\"bytes4\"}],\"stateMutability\":\"view\",\"type\":\"function\",\"name\":\"supportsInterface\",\"outputs\":[{\"internalType\":\"bool\",\"name\":\"\",\"type\":\"bool\"}]},{\"inputs\":[{\"internalType\":\"address\",\"name\":\"newOwner\",\"type\":\"address\"}],\"stateMutability\":\"nonpayable\",\"type\":\"function\",\"name\":\"transferOwnership\"}],\"devdoc\":{\"kind\":\"dev\",\"methods\":{\"constructor\":{\"params\":{\"owner\":\"This contract's owner.\"}},\"owner()\":{\"details\":\"Returns the address of the current owner.\"},\"renounceOwnership()\":{\"details\":\"Leaves the contract without owner. It will not be possible to call `onlyOwner` functions. Can only be called by the current owner. NOTE: Renouncing ownership will leave the contract without an owner, thereby disabling any functionality that is only available to the owner.\"},\"setFeelessAddress(address,bool)\":{\"details\":\"Can only be called by this contract's owner.\",\"params\":{\"addr\":\"The address to set as feeless or not feeless.\",\"flag\":\"Whether the address should be feeless (`true`) or not feeless (`false`).\"}},\"supportsInterface(bytes4)\":{\"details\":\"See {IERC165-supportsInterface}.\",\"params\":{\"interfaceId\":\"The ID of the interface to check for adherence to.\"},\"returns\":{\"_0\":\"A flag indicating if the provided interface ID is supported.\"}},\"transferOwnership(address)\":{\"details\":\"Transfers ownership of the contract to a new account (`newOwner`). Can only be called by the current owner.\"}},\"version\":1},\"userdoc\":{\"kind\":\"user\",\"methods\":{\"isFeeless(address)\":{\"notice\":\"Check if the specified address is feeless.\"},\"setFeelessAddress(address,bool)\":{\"notice\":\"Sets whether an address is feeless.\"},\"supportsInterface(bytes4)\":{\"notice\":\"Indicates whether this contract adheres to the specified interface.\"}},\"version\":1}},\"settings\":{\"remappings\":[\"@bananapus/=node_modules/@bananapus/\",\"@chainlink/=node_modules/@chainlink/\",\"@eth-optimism/=node_modules/@eth-optimism/\",\"@openzeppelin/=node_modules/@openzeppelin/\",\"@prb/=node_modules/@prb/\",\"@scroll-tech/=node_modules/@scroll-tech/\",\"@sphinx-labs/contracts/=lib/sphinx/packages/contracts/contracts/foundry/\",\"@uniswap/=node_modules/@uniswap/\",\"ds-test/=lib/forge-std/lib/ds-test/src/\",\"forge-std/=lib/forge-std/src/\",\"hardhat/=node_modules/hardhat/\",\"solmate/=node_modules/solmate/\",\"sphinx/=lib/sphinx/packages/contracts/contracts/forge-std/src/\"],\"optimizer\":{\"enabled\":true,\"runs\":200},\"metadata\":{\"bytecodeHash\":\"ipfs\"},\"compilationTarget\":{\"src/JBFeelessAddresses.sol\":\"JBFeelessAddresses\"},\"evmVersion\":\"paris\",\"libraries\":{}},\"sources\":{\"node_modules/@openzeppelin/contracts/access/Ownable.sol\":{\"keccak256\":\"0xff6d0bb2e285473e5311d9d3caacb525ae3538a80758c10649a4d61029b017bb\",\"urls\":[\"bzz-raw://8ed324d3920bb545059d66ab97d43e43ee85fd3bd52e03e401f020afb0b120f6\",\"dweb:/ipfs/QmfEckWLmZkDDcoWrkEvMWhms66xwTLff9DDhegYpvHo1a\"],\"license\":\"MIT\"},\"node_modules/@openzeppelin/contracts/utils/Context.sol\":{\"keccak256\":\"0x493033a8d1b176a037b2cc6a04dad01a5c157722049bbecf632ca876224dd4b2\",\"urls\":[\"bzz-raw://6a708e8a5bdb1011c2c381c9a5cfd8a9a956d7d0a9dc1bd8bcdaf52f76ef2f12\",\"dweb:/ipfs/Qmax9WHBnVsZP46ZxEMNRQpLQnrdE4dK8LehML1Py8FowF\"],\"license\":\"MIT\"},\"node_modules/@openzeppelin/contracts/utils/introspection/IERC165.sol\":{\"keccak256\":\"0x4296879f55019b23e135000eb36896057e7101fb7fb859c5ef690cf14643757b\",\"urls\":[\"bzz-raw://87b3541437c8c443ccd36795e56a338ed12855eec17f8da624511b8d1a7e14df\",\"dweb:/ipfs/QmeJQCtZrQjtJLr6u7ZHWeH3pBnjtLWzvRrKViAi7UZqxL\"],\"license\":\"MIT\"},\"src/JBFeelessAddresses.sol\":{\"keccak256\":\"0x00b46f877cad27509a076b838df5e148c69be177281e3a38515c532a18c9da6d\",\"urls\":[\"bzz-raw://6e25442db43f3b04015ec62ab805a7ab44574bbfd032bf165759b4c325757bca\",\"dweb:/ipfs/QmavES8KgSnobBzSrEKTjbmvjAsUvk4d6GG1LXEeqB8eNp\"],\"license\":\"MIT\"},\"src/interfaces/IJBFeelessAddresses.sol\":{\"keccak256\":\"0xe5df42cfa71c5fa41b905c122de5825df13c2aab2f9cc4cf4bafa331dd69c27e\",\"urls\":[\"bzz-raw://3773bf3b42cc57d1e4086147e52135ff1dbff4309c45ca0398f821dfaa071563\",\"dweb:/ipfs/QmXUEJssHaxYKfV33tMZGf81JTR5a5yxEVshzNus84xLuT\"],\"license\":\"MIT\"}},\"version\":1}",
			"args": [
				"0x1081B5AA9D9d4862A3dA4d469433FB36Ed80FA2A"
			],
			"bytecode": "0x608060405234801561001057600080fd5b5060405161045038038061045083398101604081905261002f916100be565b806001600160a01b03811661005e57604051631e4fbdf760e01b81526000600482015260240160405180910390fd5b6100678161006e565b50506100ee565b600080546001600160a01b038381166001600160a01b0319831681178455604051919092169283917f8be0079c531659141344cd1fd0a4f28419497f9722a3daafe3b4186f6b6457e09190a35050565b6000602082840312156100d057600080fd5b81516001600160a01b03811681146100e757600080fd5b9392505050565b610353806100fd6000396000f3fe608060405234801561001057600080fd5b50600436106100625760003560e01c806301ffc9a714610067578063715018a61461008f5780637258002c146100995780638da5cb5b146100ac578063ae74a1b5146100c7578063f2fde38b146100ea575b600080fd5b61007a610075366004610279565b6100fd565b60405190151581526020015b60405180910390f35b610097610134565b005b6100976100a73660046102c6565b610148565b6000546040516001600160a01b039091168152602001610086565b61007a6100d5366004610302565b60016020526000908152604090205460ff1681565b6100976100f8366004610302565b6101b9565b60006001600160e01b0319821663dc2ca19960e01b148061012e57506001600160e01b031982166301ffc9a760e01b145b92915050565b61013c6101fc565b6101466000610229565b565b6101506101fc565b6001600160a01b0382166000818152600160205260409020805460ff1916831515908117909155907fa2653e25a502c023a5830d0de847ef6f458387865b1f4f575d7594f9f2c0d71e336040516001600160a01b03909116815260200160405180910390a35050565b6101c16101fc565b6001600160a01b0381166101f057604051631e4fbdf760e01b8152600060048201526024015b60405180910390fd5b6101f981610229565b50565b6000546001600160a01b031633146101465760405163118cdaa760e01b81523360048201526024016101e7565b600080546001600160a01b038381166001600160a01b0319831681178455604051919092169283917f8be0079c531659141344cd1fd0a4f28419497f9722a3daafe3b4186f6b6457e09190a35050565b60006020828403121561028b57600080fd5b81356001600160e01b0319811681146102a357600080fd5b9392505050565b80356001600160a01b03811681146102c157600080fd5b919050565b600080604083850312156102d957600080fd5b6102e2836102aa565b9150602083013580151581146102f757600080fd5b809150509250929050565b60006020828403121561031457600080fd5b6102a3826102aa56fea264697066735822122014a8c48760d86fcc3bff2462c69f6fa907a076ea14a4d3471d602c3a64a11a7064736f6c63430008170033",
			"deployedBytecode": "0x608060405234801561001057600080fd5b50600436106100625760003560e01c806301ffc9a714610067578063715018a61461008f5780637258002c146100995780638da5cb5b146100ac578063ae74a1b5146100c7578063f2fde38b146100ea575b600080fd5b61007a610075366004610279565b6100fd565b60405190151581526020015b60405180910390f35b610097610134565b005b6100976100a73660046102c6565b610148565b6000546040516001600160a01b039091168152602001610086565b61007a6100d5366004610302565b60016020526000908152604090205460ff1681565b6100976100f8366004610302565b6101b9565b60006001600160e01b0319821663dc2ca19960e01b148061012e57506001600160e01b031982166301ffc9a760e01b145b92915050565b61013c6101fc565b6101466000610229565b565b6101506101fc565b6001600160a01b0382166000818152600160205260409020805460ff1916831515908117909155907fa2653e25a502c023a5830d0de847ef6f458387865b1f4f575d7594f9f2c0d71e336040516001600160a01b03909116815260200160405180910390a35050565b6101c16101fc565b6001600160a01b0381166101f057604051631e4fbdf760e01b8152600060048201526024015b60405180910390fd5b6101f981610229565b50565b6000546001600160a01b031633146101465760405163118cdaa760e01b81523360048201526024016101e7565b600080546001600160a01b038381166001600160a01b0319831681178455604051919092169283917f8be0079c531659141344cd1fd0a4f28419497f9722a3daafe3b4186f6b6457e09190a35050565b60006020828403121561028b57600080fd5b81356001600160e01b0319811681146102a357600080fd5b9392505050565b80356001600160a01b03811681146102c157600080fd5b919050565b600080604083850312156102d957600080fd5b6102e2836102aa565b9150602083013580151581146102f757600080fd5b809150509250929050565b60006020828403121561031457600080fd5b6102a3826102aa56fea264697066735822122014a8c48760d86fcc3bff2462c69f6fa907a076ea14a4d3471d602c3a64a11a7064736f6c63430008170033",
			"devdoc": {
				"kind": "dev",
				"methods": {
					"constructor": {
						"params": {
							"owner": "This contract's owner."
						}
					},
					"owner()": {
						"details": "Returns the address of the current owner."
					},
					"renounceOwnership()": {
						"details": "Leaves the contract without owner. It will not be possible to call `onlyOwner` functions. Can only be called by the current owner. NOTE: Renouncing ownership will leave the contract without an owner, thereby disabling any functionality that is only available to the owner."
					},
					"setFeelessAddress(address,bool)": {
						"details": "Can only be called by this contract's owner.",
						"params": {
							"addr": "The address to set as feeless or not feeless.",
							"flag": "Whether the address should be feeless (`true`) or not feeless (`false`)."
						}
					},
					"supportsInterface(bytes4)": {
						"details": "See {IERC165-supportsInterface}.",
						"params": {
							"interfaceId": "The ID of the interface to check for adherence to."
						},
						"returns": {
							"_0": "A flag indicating if the provided interface ID is supported."
						}
					},
					"transferOwnership(address)": {
						"details": "Transfers ownership of the contract to a new account (`newOwner`). Can only be called by the current owner."
					}
				},
				"version": 1
			},
			"userdoc": {
				"kind": "user",
				"methods": {
					"isFeeless(address)": {
						"notice": "Check if the specified address is feeless."
					},
					"setFeelessAddress(address,bool)": {
						"notice": "Sets whether an address is feeless."
					},
					"supportsInterface(bytes4)": {
						"notice": "Indicates whether this contract adheres to the specified interface."
					}
				},
				"version": 1
			},
			"gitCommit": "e6ea9467ae7d4f2046989fda11961b007525098a",
			"sourceName": "src/JBFeelessAddresses.sol",
			"chainId": "11155111",
			"linkReferences": {},
			"deployedLinkReferences": {}
		},
		{
			"_format": "sphinx-sol-ct-artifact-1",
			"merkleRoot": "0xeb76efeb8f97c5cb80ab72b380ea5b356ede5f4abbf2a0c560104f8a80b45857",
			"contractName": "JBFeelessAddresses",
			"address": "0x6c8352F6Cc457021cD537C2a6D0D4e7f1Ed29e1E",
			"abi": [
				{
					"type": "constructor",
					"inputs": [
						{
							"name": "owner",
							"type": "address",
							"internalType": "address"
						}
					],
					"stateMutability": "nonpayable"
				},
				{
					"type": "function",
					"name": "isFeeless",
					"inputs": [
						{
							"name": "addr",
							"type": "address",
							"internalType": "address"
						}
					],
					"outputs": [
						{
							"name": "",
							"type": "bool",
							"internalType": "bool"
						}
					],
					"stateMutability": "view"
				},
				{
					"type": "function",
					"name": "owner",
					"inputs": [],
					"outputs": [
						{
							"name": "",
							"type": "address",
							"internalType": "address"
						}
					],
					"stateMutability": "view"
				},
				{
					"type": "function",
					"name": "renounceOwnership",
					"inputs": [],
					"outputs": [],
					"stateMutability": "nonpayable"
				},
				{
					"type": "function",
					"name": "setFeelessAddress",
					"inputs": [
						{
							"name": "addr",
							"type": "address",
							"internalType": "address"
						},
						{
							"name": "flag",
							"type": "bool",
							"internalType": "bool"
						}
					],
					"outputs": [],
					"stateMutability": "nonpayable"
				},
				{
					"type": "function",
					"name": "supportsInterface",
					"inputs": [
						{
							"name": "interfaceId",
							"type": "bytes4",
							"internalType": "bytes4"
						}
					],
					"outputs": [
						{
							"name": "",
							"type": "bool",
							"internalType": "bool"
						}
					],
					"stateMutability": "view"
				},
				{
					"type": "function",
					"name": "transferOwnership",
					"inputs": [
						{
							"name": "newOwner",
							"type": "address",
							"internalType": "address"
						}
					],
					"outputs": [],
					"stateMutability": "nonpayable"
				},
				{
					"type": "event",
					"name": "OwnershipTransferred",
					"inputs": [
						{
							"name": "previousOwner",
							"type": "address",
							"indexed": true,
							"internalType": "address"
						},
						{
							"name": "newOwner",
							"type": "address",
							"indexed": true,
							"internalType": "address"
						}
					],
					"anonymous": false
				},
				{
					"type": "event",
					"name": "SetFeelessAddress",
					"inputs": [
						{
							"name": "account",
							"type": "address",
							"indexed": true,
							"internalType": "address"
						},
						{
							"name": "isFeeless",
							"type": "bool",
							"indexed": true,
							"internalType": "bool"
						},
						{
							"name": "caller",
							"type": "address",
							"indexed": false,
							"internalType": "address"
						}
					],
					"anonymous": false
				},
				{
					"type": "error",
					"name": "OwnableInvalidOwner",
					"inputs": [
						{
							"name": "owner",
							"type": "address",
							"internalType": "address"
						}
					]
				},
				{
					"type": "error",
					"name": "OwnableUnauthorizedAccount",
					"inputs": [
						{
							"name": "account",
							"type": "address",
							"internalType": "address"
						}
					]
				}
			],
			"solcInputHash": "5d4c706d93c97620ff427d8d75b46099",
			"receipt": {
				"blockHash": "0xf7f1466dbf070e1c12bd9dc9b41997b6c6938e3ccc791022788aed9144e54f04",
				"blockNumber": 5748758,
				"contractAddress": null,
				"cumulativeGasUsed": "21375291",
				"from": "0xC034550B542b83BA1De312b21d1C94a9a52B1595",
				"gasPrice": "464133",
				"gasUsed": "9738330",
				"hash": "0xaf5172ae9eeb0425ae1a7c3d951b39dc0802bc165f3bee944939b4f0304c16cb",
				"index": 53,
				"logs": [
					{
						"address": "0xB5E96127D417b1B3ef8438496a38A143167209c7",
						"blockHash": "0xf7f1466dbf070e1c12bd9dc9b41997b6c6938e3ccc791022788aed9144e54f04",
						"blockNumber": 5748758,
						"data": "0x0000000000000000000000000000000000000000000000000000000000000000",
						"index": 92,
						"topics": [
							"0x572f161235911da04685a68c06adf558fc7e4a36909dca394650e0adc19cc93d",
							"0x000000000000000000000000c034550b542b83ba1de312b21d1c94a9a52b1595",
							"0x000000000000000000000000ef1be3c049809cace5bc203bbe4ec1ab284bf75c",
							"0x200de2927a89b72827cebfcd27e9c1068d3f4cd6a21ffb15bbc78cce7896bef1"
						],
						"transactionHash": "0xaf5172ae9eeb0425ae1a7c3d951b39dc0802bc165f3bee944939b4f0304c16cb",
						"transactionIndex": 53
					},
					{
						"address": "0x1081B5AA9D9d4862A3dA4d469433FB36Ed80FA2A",
						"blockHash": "0xf7f1466dbf070e1c12bd9dc9b41997b6c6938e3ccc791022788aed9144e54f04",
						"blockNumber": 5748758,
						"data": "0x",
						"index": 93,
						"topics": [
							"0x6895c13664aa4f67288b25d7a21d7aaa34916e355fb9b6fae0a139a9085becb8",
							"0x000000000000000000000000ef1be3c049809cace5bc203bbe4ec1ab284bf75c"
						],
						"transactionHash": "0xaf5172ae9eeb0425ae1a7c3d951b39dc0802bc165f3bee944939b4f0304c16cb",
						"transactionIndex": 53
					},
					{
						"address": "0xEf1Be3C049809caCe5Bc203BBe4Ec1Ab284bF75c",
						"blockHash": "0xf7f1466dbf070e1c12bd9dc9b41997b6c6938e3ccc791022788aed9144e54f04",
						"blockNumber": 5748758,
						"data": "0x0000000000000000000000000000000000000000000000000000000000000009",
						"index": 94,
						"topics": [
							"0xa65fb05c5808f5f389d72edeaf719ce38f4cc55c1f69ca3cbfb31c21501caa07",
							"0xeb76efeb8f97c5cb80ab72b380ea5b356ede5f4abbf2a0c560104f8a80b45857"
						],
						"transactionHash": "0xaf5172ae9eeb0425ae1a7c3d951b39dc0802bc165f3bee944939b4f0304c16cb",
						"transactionIndex": 53
					},
					{
						"address": "0xCD8c4da77dfb15C05486D3F71Ee4C2C0dfdbc94e",
						"blockHash": "0xf7f1466dbf070e1c12bd9dc9b41997b6c6938e3ccc791022788aed9144e54f04",
						"blockNumber": 5748758,
						"data": "0x0000000000000000000000001081b5aa9d9d4862a3da4d469433fb36ed80fa2a",
						"index": 95,
						"topics": [
							"0x11207664cc48b0fa81c8674795f1d8f642960f38d5d2d305ad813093bed85fab",
							"0x000000000000000000000000799d42391ed21894b105590300eed66255d72225",
							"0x0000000000000000000000000000000000000000000000000000000000000001"
						],
						"transactionHash": "0xaf5172ae9eeb0425ae1a7c3d951b39dc0802bc165f3bee944939b4f0304c16cb",
						"transactionIndex": 53
					},
					{
						"address": "0x1081B5AA9D9d4862A3dA4d469433FB36Ed80FA2A",
						"blockHash": "0xf7f1466dbf070e1c12bd9dc9b41997b6c6938e3ccc791022788aed9144e54f04",
						"blockNumber": 5748758,
						"data": "0x",
						"index": 96,
						"topics": [
							"0x6895c13664aa4f67288b25d7a21d7aaa34916e355fb9b6fae0a139a9085becb8",
							"0x000000000000000000000000ef1be3c049809cace5bc203bbe4ec1ab284bf75c"
						],
						"transactionHash": "0xaf5172ae9eeb0425ae1a7c3d951b39dc0802bc165f3bee944939b4f0304c16cb",
						"transactionIndex": 53
					},
					{
						"address": "0xEf1Be3C049809caCe5Bc203BBe4Ec1Ab284bF75c",
						"blockHash": "0xf7f1466dbf070e1c12bd9dc9b41997b6c6938e3ccc791022788aed9144e54f04",
						"blockNumber": 5748758,
						"data": "0x000000000000000000000000000000000000000000000000000000000000000a",
						"index": 97,
						"topics": [
							"0xa65fb05c5808f5f389d72edeaf719ce38f4cc55c1f69ca3cbfb31c21501caa07",
							"0xeb76efeb8f97c5cb80ab72b380ea5b356ede5f4abbf2a0c560104f8a80b45857"
						],
						"transactionHash": "0xaf5172ae9eeb0425ae1a7c3d951b39dc0802bc165f3bee944939b4f0304c16cb",
						"transactionIndex": 53
					},
					{
						"address": "0x6c8352F6Cc457021cD537C2a6D0D4e7f1Ed29e1E",
						"blockHash": "0xf7f1466dbf070e1c12bd9dc9b41997b6c6938e3ccc791022788aed9144e54f04",
						"blockNumber": 5748758,
						"data": "0x",
						"index": 98,
						"topics": [
							"0x8be0079c531659141344cd1fd0a4f28419497f9722a3daafe3b4186f6b6457e0",
							"0x0000000000000000000000000000000000000000000000000000000000000000",
							"0x0000000000000000000000001081b5aa9d9d4862a3da4d469433fb36ed80fa2a"
						],
						"transactionHash": "0xaf5172ae9eeb0425ae1a7c3d951b39dc0802bc165f3bee944939b4f0304c16cb",
						"transactionIndex": 53
					},
					{
						"address": "0x1081B5AA9D9d4862A3dA4d469433FB36Ed80FA2A",
						"blockHash": "0xf7f1466dbf070e1c12bd9dc9b41997b6c6938e3ccc791022788aed9144e54f04",
						"blockNumber": 5748758,
						"data": "0x",
						"index": 99,
						"topics": [
							"0x6895c13664aa4f67288b25d7a21d7aaa34916e355fb9b6fae0a139a9085becb8",
							"0x000000000000000000000000ef1be3c049809cace5bc203bbe4ec1ab284bf75c"
						],
						"transactionHash": "0xaf5172ae9eeb0425ae1a7c3d951b39dc0802bc165f3bee944939b4f0304c16cb",
						"transactionIndex": 53
					},
					{
						"address": "0xEf1Be3C049809caCe5Bc203BBe4Ec1Ab284bF75c",
						"blockHash": "0xf7f1466dbf070e1c12bd9dc9b41997b6c6938e3ccc791022788aed9144e54f04",
						"blockNumber": 5748758,
						"data": "0x000000000000000000000000000000000000000000000000000000000000000b",
						"index": 100,
						"topics": [
							"0xa65fb05c5808f5f389d72edeaf719ce38f4cc55c1f69ca3cbfb31c21501caa07",
							"0xeb76efeb8f97c5cb80ab72b380ea5b356ede5f4abbf2a0c560104f8a80b45857"
						],
						"transactionHash": "0xaf5172ae9eeb0425ae1a7c3d951b39dc0802bc165f3bee944939b4f0304c16cb",
						"transactionIndex": 53
					},
					{
						"address": "0x6B33bf264D01Ed2660D4F6E4e96BB56F784B1e8f",
						"blockHash": "0xf7f1466dbf070e1c12bd9dc9b41997b6c6938e3ccc791022788aed9144e54f04",
						"blockNumber": 5748758,
						"data": "0x",
						"index": 101,
						"topics": [
							"0x8be0079c531659141344cd1fd0a4f28419497f9722a3daafe3b4186f6b6457e0",
							"0x0000000000000000000000000000000000000000000000000000000000000000",
							"0x0000000000000000000000001081b5aa9d9d4862a3da4d469433fb36ed80fa2a"
						],
						"transactionHash": "0xaf5172ae9eeb0425ae1a7c3d951b39dc0802bc165f3bee944939b4f0304c16cb",
						"transactionIndex": 53
					},
					{
						"address": "0x1081B5AA9D9d4862A3dA4d469433FB36Ed80FA2A",
						"blockHash": "0xf7f1466dbf070e1c12bd9dc9b41997b6c6938e3ccc791022788aed9144e54f04",
						"blockNumber": 5748758,
						"data": "0x",
						"index": 102,
						"topics": [
							"0x6895c13664aa4f67288b25d7a21d7aaa34916e355fb9b6fae0a139a9085becb8",
							"0x000000000000000000000000ef1be3c049809cace5bc203bbe4ec1ab284bf75c"
						],
						"transactionHash": "0xaf5172ae9eeb0425ae1a7c3d951b39dc0802bc165f3bee944939b4f0304c16cb",
						"transactionIndex": 53
					},
					{
						"address": "0xEf1Be3C049809caCe5Bc203BBe4Ec1Ab284bF75c",
						"blockHash": "0xf7f1466dbf070e1c12bd9dc9b41997b6c6938e3ccc791022788aed9144e54f04",
						"blockNumber": 5748758,
						"data": "0x000000000000000000000000000000000000000000000000000000000000000c",
						"index": 103,
						"topics": [
							"0xa65fb05c5808f5f389d72edeaf719ce38f4cc55c1f69ca3cbfb31c21501caa07",
							"0xeb76efeb8f97c5cb80ab72b380ea5b356ede5f4abbf2a0c560104f8a80b45857"
						],
						"transactionHash": "0xaf5172ae9eeb0425ae1a7c3d951b39dc0802bc165f3bee944939b4f0304c16cb",
						"transactionIndex": 53
					},
					{
						"address": "0x1081B5AA9D9d4862A3dA4d469433FB36Ed80FA2A",
						"blockHash": "0xf7f1466dbf070e1c12bd9dc9b41997b6c6938e3ccc791022788aed9144e54f04",
						"blockNumber": 5748758,
						"data": "0x",
						"index": 104,
						"topics": [
							"0x6895c13664aa4f67288b25d7a21d7aaa34916e355fb9b6fae0a139a9085becb8",
							"0x000000000000000000000000ef1be3c049809cace5bc203bbe4ec1ab284bf75c"
						],
						"transactionHash": "0xaf5172ae9eeb0425ae1a7c3d951b39dc0802bc165f3bee944939b4f0304c16cb",
						"transactionIndex": 53
					},
					{
						"address": "0xEf1Be3C049809caCe5Bc203BBe4Ec1Ab284bF75c",
						"blockHash": "0xf7f1466dbf070e1c12bd9dc9b41997b6c6938e3ccc791022788aed9144e54f04",
						"blockNumber": 5748758,
						"data": "0x000000000000000000000000000000000000000000000000000000000000000d",
						"index": 105,
						"topics": [
							"0xa65fb05c5808f5f389d72edeaf719ce38f4cc55c1f69ca3cbfb31c21501caa07",
							"0xeb76efeb8f97c5cb80ab72b380ea5b356ede5f4abbf2a0c560104f8a80b45857"
						],
						"transactionHash": "0xaf5172ae9eeb0425ae1a7c3d951b39dc0802bc165f3bee944939b4f0304c16cb",
						"transactionIndex": 53
					}
				],
				"logsBloom": "0x00000000080010000008000000080000000000000008000000800000004000000060008200000000000000000040000000000000000000000000000000040000000000000000200400000000000002000401000000040000000200000000000000040000020000000208000000000800000000100000000000000040000000400001000000000000000100010000000000000000200000000000810020000020004000000010000010000000000000020200400000000000000000400006001000800000000800200200000008000000000000000000040000000000000060000000000000000004000000000000000200000000000000000000000002000000",
				"status": 1,
				"to": "0xB5E96127D417b1B3ef8438496a38A143167209c7"
			},
			"metadata": "{\"compiler\":{\"version\":\"0.8.23+commit.f704f362\"},\"language\":\"Solidity\",\"output\":{\"abi\":[{\"inputs\":[{\"internalType\":\"address\",\"name\":\"owner\",\"type\":\"address\"}],\"stateMutability\":\"nonpayable\",\"type\":\"constructor\"},{\"inputs\":[{\"internalType\":\"address\",\"name\":\"owner\",\"type\":\"address\"}],\"type\":\"error\",\"name\":\"OwnableInvalidOwner\"},{\"inputs\":[{\"internalType\":\"address\",\"name\":\"account\",\"type\":\"address\"}],\"type\":\"error\",\"name\":\"OwnableUnauthorizedAccount\"},{\"inputs\":[{\"internalType\":\"address\",\"name\":\"previousOwner\",\"type\":\"address\",\"indexed\":true},{\"internalType\":\"address\",\"name\":\"newOwner\",\"type\":\"address\",\"indexed\":true}],\"type\":\"event\",\"name\":\"OwnershipTransferred\",\"anonymous\":false},{\"inputs\":[{\"internalType\":\"address\",\"name\":\"account\",\"type\":\"address\",\"indexed\":true},{\"internalType\":\"bool\",\"name\":\"isFeeless\",\"type\":\"bool\",\"indexed\":true},{\"internalType\":\"address\",\"name\":\"caller\",\"type\":\"address\",\"indexed\":false}],\"type\":\"event\",\"name\":\"SetFeelessAddress\",\"anonymous\":false},{\"inputs\":[{\"internalType\":\"address\",\"name\":\"addr\",\"type\":\"address\"}],\"stateMutability\":\"view\",\"type\":\"function\",\"name\":\"isFeeless\",\"outputs\":[{\"internalType\":\"bool\",\"name\":\"\",\"type\":\"bool\"}]},{\"inputs\":[],\"stateMutability\":\"view\",\"type\":\"function\",\"name\":\"owner\",\"outputs\":[{\"internalType\":\"address\",\"name\":\"\",\"type\":\"address\"}]},{\"inputs\":[],\"stateMutability\":\"nonpayable\",\"type\":\"function\",\"name\":\"renounceOwnership\"},{\"inputs\":[{\"internalType\":\"address\",\"name\":\"addr\",\"type\":\"address\"},{\"internalType\":\"bool\",\"name\":\"flag\",\"type\":\"bool\"}],\"stateMutability\":\"nonpayable\",\"type\":\"function\",\"name\":\"setFeelessAddress\"},{\"inputs\":[{\"internalType\":\"bytes4\",\"name\":\"interfaceId\",\"type\":\"bytes4\"}],\"stateMutability\":\"view\",\"type\":\"function\",\"name\":\"supportsInterface\",\"outputs\":[{\"internalType\":\"bool\",\"name\":\"\",\"type\":\"bool\"}]},{\"inputs\":[{\"internalType\":\"address\",\"name\":\"newOwner\",\"type\":\"address\"}],\"stateMutability\":\"nonpayable\",\"type\":\"function\",\"name\":\"transferOwnership\"}],\"devdoc\":{\"kind\":\"dev\",\"methods\":{\"constructor\":{\"params\":{\"owner\":\"This contract's owner.\"}},\"owner()\":{\"details\":\"Returns the address of the current owner.\"},\"renounceOwnership()\":{\"details\":\"Leaves the contract without owner. It will not be possible to call `onlyOwner` functions. Can only be called by the current owner. NOTE: Renouncing ownership will leave the contract without an owner, thereby disabling any functionality that is only available to the owner.\"},\"setFeelessAddress(address,bool)\":{\"details\":\"Can only be called by this contract's owner.\",\"params\":{\"addr\":\"The address to set as feeless or not feeless.\",\"flag\":\"Whether the address should be feeless (`true`) or not feeless (`false`).\"}},\"supportsInterface(bytes4)\":{\"details\":\"See {IERC165-supportsInterface}.\",\"params\":{\"interfaceId\":\"The ID of the interface to check for adherence to.\"},\"returns\":{\"_0\":\"A flag indicating if the provided interface ID is supported.\"}},\"transferOwnership(address)\":{\"details\":\"Transfers ownership of the contract to a new account (`newOwner`). Can only be called by the current owner.\"}},\"version\":1},\"userdoc\":{\"kind\":\"user\",\"methods\":{\"isFeeless(address)\":{\"notice\":\"Check if the specified address is feeless.\"},\"setFeelessAddress(address,bool)\":{\"notice\":\"Sets whether an address is feeless.\"},\"supportsInterface(bytes4)\":{\"notice\":\"Indicates whether this contract adheres to the specified interface.\"}},\"version\":1}},\"settings\":{\"remappings\":[\"@bananapus/=node_modules/@bananapus/\",\"@chainlink/=node_modules/@chainlink/\",\"@eth-optimism/=node_modules/@eth-optimism/\",\"@openzeppelin/=node_modules/@openzeppelin/\",\"@prb/=node_modules/@prb/\",\"@scroll-tech/=node_modules/@scroll-tech/\",\"@sphinx-labs/contracts/=lib/sphinx/packages/contracts/contracts/foundry/\",\"@uniswap/=node_modules/@uniswap/\",\"ds-test/=lib/forge-std/lib/ds-test/src/\",\"forge-std/=lib/forge-std/src/\",\"hardhat/=node_modules/hardhat/\",\"solmate/=node_modules/solmate/\",\"sphinx/=lib/sphinx/\"],\"optimizer\":{\"enabled\":true,\"runs\":200},\"metadata\":{\"bytecodeHash\":\"ipfs\"},\"compilationTarget\":{\"src/JBFeelessAddresses.sol\":\"JBFeelessAddresses\"},\"evmVersion\":\"paris\",\"libraries\":{}},\"sources\":{\"node_modules/@openzeppelin/contracts/access/Ownable.sol\":{\"keccak256\":\"0xff6d0bb2e285473e5311d9d3caacb525ae3538a80758c10649a4d61029b017bb\",\"urls\":[\"bzz-raw://8ed324d3920bb545059d66ab97d43e43ee85fd3bd52e03e401f020afb0b120f6\",\"dweb:/ipfs/QmfEckWLmZkDDcoWrkEvMWhms66xwTLff9DDhegYpvHo1a\"],\"license\":\"MIT\"},\"node_modules/@openzeppelin/contracts/utils/Context.sol\":{\"keccak256\":\"0x493033a8d1b176a037b2cc6a04dad01a5c157722049bbecf632ca876224dd4b2\",\"urls\":[\"bzz-raw://6a708e8a5bdb1011c2c381c9a5cfd8a9a956d7d0a9dc1bd8bcdaf52f76ef2f12\",\"dweb:/ipfs/Qmax9WHBnVsZP46ZxEMNRQpLQnrdE4dK8LehML1Py8FowF\"],\"license\":\"MIT\"},\"node_modules/@openzeppelin/contracts/utils/introspection/IERC165.sol\":{\"keccak256\":\"0x4296879f55019b23e135000eb36896057e7101fb7fb859c5ef690cf14643757b\",\"urls\":[\"bzz-raw://87b3541437c8c443ccd36795e56a338ed12855eec17f8da624511b8d1a7e14df\",\"dweb:/ipfs/QmeJQCtZrQjtJLr6u7ZHWeH3pBnjtLWzvRrKViAi7UZqxL\"],\"license\":\"MIT\"},\"src/JBFeelessAddresses.sol\":{\"keccak256\":\"0x00b46f877cad27509a076b838df5e148c69be177281e3a38515c532a18c9da6d\",\"urls\":[\"bzz-raw://6e25442db43f3b04015ec62ab805a7ab44574bbfd032bf165759b4c325757bca\",\"dweb:/ipfs/QmavES8KgSnobBzSrEKTjbmvjAsUvk4d6GG1LXEeqB8eNp\"],\"license\":\"MIT\"},\"src/interfaces/IJBFeelessAddresses.sol\":{\"keccak256\":\"0xe5df42cfa71c5fa41b905c122de5825df13c2aab2f9cc4cf4bafa331dd69c27e\",\"urls\":[\"bzz-raw://3773bf3b42cc57d1e4086147e52135ff1dbff4309c45ca0398f821dfaa071563\",\"dweb:/ipfs/QmXUEJssHaxYKfV33tMZGf81JTR5a5yxEVshzNus84xLuT\"],\"license\":\"MIT\"}},\"version\":1}",
			"args": [
				"0x1081B5AA9D9d4862A3dA4d469433FB36Ed80FA2A"
			],
			"bytecode": "0x608060405234801561001057600080fd5b5060405161045038038061045083398101604081905261002f916100be565b806001600160a01b03811661005e57604051631e4fbdf760e01b81526000600482015260240160405180910390fd5b6100678161006e565b50506100ee565b600080546001600160a01b038381166001600160a01b0319831681178455604051919092169283917f8be0079c531659141344cd1fd0a4f28419497f9722a3daafe3b4186f6b6457e09190a35050565b6000602082840312156100d057600080fd5b81516001600160a01b03811681146100e757600080fd5b9392505050565b610353806100fd6000396000f3fe608060405234801561001057600080fd5b50600436106100625760003560e01c806301ffc9a714610067578063715018a61461008f5780637258002c146100995780638da5cb5b146100ac578063ae74a1b5146100c7578063f2fde38b146100ea575b600080fd5b61007a610075366004610279565b6100fd565b60405190151581526020015b60405180910390f35b610097610134565b005b6100976100a73660046102c6565b610148565b6000546040516001600160a01b039091168152602001610086565b61007a6100d5366004610302565b60016020526000908152604090205460ff1681565b6100976100f8366004610302565b6101b9565b60006001600160e01b0319821663dc2ca19960e01b148061012e57506001600160e01b031982166301ffc9a760e01b145b92915050565b61013c6101fc565b6101466000610229565b565b6101506101fc565b6001600160a01b0382166000818152600160205260409020805460ff1916831515908117909155907fa2653e25a502c023a5830d0de847ef6f458387865b1f4f575d7594f9f2c0d71e336040516001600160a01b03909116815260200160405180910390a35050565b6101c16101fc565b6001600160a01b0381166101f057604051631e4fbdf760e01b8152600060048201526024015b60405180910390fd5b6101f981610229565b50565b6000546001600160a01b031633146101465760405163118cdaa760e01b81523360048201526024016101e7565b600080546001600160a01b038381166001600160a01b0319831681178455604051919092169283917f8be0079c531659141344cd1fd0a4f28419497f9722a3daafe3b4186f6b6457e09190a35050565b60006020828403121561028b57600080fd5b81356001600160e01b0319811681146102a357600080fd5b9392505050565b80356001600160a01b03811681146102c157600080fd5b919050565b600080604083850312156102d957600080fd5b6102e2836102aa565b9150602083013580151581146102f757600080fd5b809150509250929050565b60006020828403121561031457600080fd5b6102a3826102aa56fea26469706673582212205a7c3fbfc1c5424816fdd58fb61c09f87cecd7163328bdb854cabc41c9313cd664736f6c63430008170033",
			"deployedBytecode": "0x608060405234801561001057600080fd5b50600436106100625760003560e01c806301ffc9a714610067578063715018a61461008f5780637258002c146100995780638da5cb5b146100ac578063ae74a1b5146100c7578063f2fde38b146100ea575b600080fd5b61007a610075366004610279565b6100fd565b60405190151581526020015b60405180910390f35b610097610134565b005b6100976100a73660046102c6565b610148565b6000546040516001600160a01b039091168152602001610086565b61007a6100d5366004610302565b60016020526000908152604090205460ff1681565b6100976100f8366004610302565b6101b9565b60006001600160e01b0319821663dc2ca19960e01b148061012e57506001600160e01b031982166301ffc9a760e01b145b92915050565b61013c6101fc565b6101466000610229565b565b6101506101fc565b6001600160a01b0382166000818152600160205260409020805460ff1916831515908117909155907fa2653e25a502c023a5830d0de847ef6f458387865b1f4f575d7594f9f2c0d71e336040516001600160a01b03909116815260200160405180910390a35050565b6101c16101fc565b6001600160a01b0381166101f057604051631e4fbdf760e01b8152600060048201526024015b60405180910390fd5b6101f981610229565b50565b6000546001600160a01b031633146101465760405163118cdaa760e01b81523360048201526024016101e7565b600080546001600160a01b038381166001600160a01b0319831681178455604051919092169283917f8be0079c531659141344cd1fd0a4f28419497f9722a3daafe3b4186f6b6457e09190a35050565b60006020828403121561028b57600080fd5b81356001600160e01b0319811681146102a357600080fd5b9392505050565b80356001600160a01b03811681146102c157600080fd5b919050565b600080604083850312156102d957600080fd5b6102e2836102aa565b9150602083013580151581146102f757600080fd5b809150509250929050565b60006020828403121561031457600080fd5b6102a3826102aa56fea26469706673582212205a7c3fbfc1c5424816fdd58fb61c09f87cecd7163328bdb854cabc41c9313cd664736f6c63430008170033",
			"devdoc": {
				"kind": "dev",
				"methods": {
					"constructor": {
						"params": {
							"owner": "This contract's owner."
						}
					},
					"owner()": {
						"details": "Returns the address of the current owner."
					},
					"renounceOwnership()": {
						"details": "Leaves the contract without owner. It will not be possible to call `onlyOwner` functions. Can only be called by the current owner. NOTE: Renouncing ownership will leave the contract without an owner, thereby disabling any functionality that is only available to the owner."
					},
					"setFeelessAddress(address,bool)": {
						"details": "Can only be called by this contract's owner.",
						"params": {
							"addr": "The address to set as feeless or not feeless.",
							"flag": "Whether the address should be feeless (`true`) or not feeless (`false`)."
						}
					},
					"supportsInterface(bytes4)": {
						"details": "See {IERC165-supportsInterface}.",
						"params": {
							"interfaceId": "The ID of the interface to check for adherence to."
						},
						"returns": {
							"_0": "A flag indicating if the provided interface ID is supported."
						}
					},
					"transferOwnership(address)": {
						"details": "Transfers ownership of the contract to a new account (`newOwner`). Can only be called by the current owner."
					}
				},
				"version": 1
			},
			"userdoc": {
				"kind": "user",
				"methods": {
					"isFeeless(address)": {
						"notice": "Check if the specified address is feeless."
					},
					"setFeelessAddress(address,bool)": {
						"notice": "Sets whether an address is feeless."
					},
					"supportsInterface(bytes4)": {
						"notice": "Indicates whether this contract adheres to the specified interface."
					}
				},
				"version": 1
			},
			"gitCommit": "8e6924651d1e8038d6c2982d6d0c09a070b141a7",
			"sourceName": "src/JBFeelessAddresses.sol",
			"chainId": "11155111",
			"linkReferences": {},
			"deployedLinkReferences": {}
		},
		{
			"_format": "sphinx-sol-ct-artifact-1",
			"merkleRoot": "0x1c031ac0217a16bc8b880bc3a6e637a3fb319bf6343a8af2f9d37587d2ef9836",
			"contractName": "JBFeelessAddresses",
			"address": "0x5F4b3b392930cB3D4bd836c7b3B1fa66d971b578",
			"abi": [
				{
					"type": "constructor",
					"inputs": [
						{
							"name": "owner",
							"type": "address",
							"internalType": "address"
						}
					],
					"stateMutability": "nonpayable"
				},
				{
					"type": "function",
					"name": "isFeeless",
					"inputs": [
						{
							"name": "addr",
							"type": "address",
							"internalType": "address"
						}
					],
					"outputs": [
						{
							"name": "",
							"type": "bool",
							"internalType": "bool"
						}
					],
					"stateMutability": "view"
				},
				{
					"type": "function",
					"name": "owner",
					"inputs": [],
					"outputs": [
						{
							"name": "",
							"type": "address",
							"internalType": "address"
						}
					],
					"stateMutability": "view"
				},
				{
					"type": "function",
					"name": "renounceOwnership",
					"inputs": [],
					"outputs": [],
					"stateMutability": "nonpayable"
				},
				{
					"type": "function",
					"name": "setFeelessAddress",
					"inputs": [
						{
							"name": "addr",
							"type": "address",
							"internalType": "address"
						},
						{
							"name": "flag",
							"type": "bool",
							"internalType": "bool"
						}
					],
					"outputs": [],
					"stateMutability": "nonpayable"
				},
				{
					"type": "function",
					"name": "supportsInterface",
					"inputs": [
						{
							"name": "interfaceId",
							"type": "bytes4",
							"internalType": "bytes4"
						}
					],
					"outputs": [
						{
							"name": "",
							"type": "bool",
							"internalType": "bool"
						}
					],
					"stateMutability": "view"
				},
				{
					"type": "function",
					"name": "transferOwnership",
					"inputs": [
						{
							"name": "newOwner",
							"type": "address",
							"internalType": "address"
						}
					],
					"outputs": [],
					"stateMutability": "nonpayable"
				},
				{
					"type": "event",
					"name": "OwnershipTransferred",
					"inputs": [
						{
							"name": "previousOwner",
							"type": "address",
							"indexed": true,
							"internalType": "address"
						},
						{
							"name": "newOwner",
							"type": "address",
							"indexed": true,
							"internalType": "address"
						}
					],
					"anonymous": false
				},
				{
					"type": "event",
					"name": "SetFeelessAddress",
					"inputs": [
						{
							"name": "account",
							"type": "address",
							"indexed": true,
							"internalType": "address"
						},
						{
							"name": "isFeeless",
							"type": "bool",
							"indexed": true,
							"internalType": "bool"
						},
						{
							"name": "caller",
							"type": "address",
							"indexed": false,
							"internalType": "address"
						}
					],
					"anonymous": false
				},
				{
					"type": "error",
					"name": "OwnableInvalidOwner",
					"inputs": [
						{
							"name": "owner",
							"type": "address",
							"internalType": "address"
						}
					]
				},
				{
					"type": "error",
					"name": "OwnableUnauthorizedAccount",
					"inputs": [
						{
							"name": "account",
							"type": "address",
							"internalType": "address"
						}
					]
				}
			],
			"solcInputHash": "5d7a79485a8a4fd8d39819ca7cc29822",
			"receipt": {
				"blockHash": "0x75d63c22a8fd6e529f37712eb12d51fe0fc8f2f6d7e9cc6fabacfc8a102bb1d9",
				"blockNumber": 5822436,
				"contractAddress": null,
				"cumulativeGasUsed": "23083714",
				"from": "0xC034550B542b83BA1De312b21d1C94a9a52B1595",
				"gasPrice": "43573913938",
				"gasUsed": "9738286",
				"hash": "0x2d343a597745086950f2a10fd73f4a101a2ec19f88646c9a268b2489ec99cee2",
				"index": 113,
				"logs": [
					{
						"address": "0xB5E96127D417b1B3ef8438496a38A143167209c7",
						"blockHash": "0x75d63c22a8fd6e529f37712eb12d51fe0fc8f2f6d7e9cc6fabacfc8a102bb1d9",
						"blockNumber": 5822436,
						"data": "0x0000000000000000000000000000000000000000000000000000000000000000",
						"index": 224,
						"topics": [
							"0x572f161235911da04685a68c06adf558fc7e4a36909dca394650e0adc19cc93d",
							"0x000000000000000000000000c034550b542b83ba1de312b21d1c94a9a52b1595",
							"0x000000000000000000000000ef1be3c049809cace5bc203bbe4ec1ab284bf75c",
							"0xf39e36506b34e0f76c7127e66b7a4e1a276d8fba93e2f53154839c4bd64eda88"
						],
						"transactionHash": "0x2d343a597745086950f2a10fd73f4a101a2ec19f88646c9a268b2489ec99cee2",
						"transactionIndex": 113
					},
					{
						"address": "0x1081B5AA9D9d4862A3dA4d469433FB36Ed80FA2A",
						"blockHash": "0x75d63c22a8fd6e529f37712eb12d51fe0fc8f2f6d7e9cc6fabacfc8a102bb1d9",
						"blockNumber": 5822436,
						"data": "0x",
						"index": 225,
						"topics": [
							"0x6895c13664aa4f67288b25d7a21d7aaa34916e355fb9b6fae0a139a9085becb8",
							"0x000000000000000000000000ef1be3c049809cace5bc203bbe4ec1ab284bf75c"
						],
						"transactionHash": "0x2d343a597745086950f2a10fd73f4a101a2ec19f88646c9a268b2489ec99cee2",
						"transactionIndex": 113
					},
					{
						"address": "0xEf1Be3C049809caCe5Bc203BBe4Ec1Ab284bF75c",
						"blockHash": "0x75d63c22a8fd6e529f37712eb12d51fe0fc8f2f6d7e9cc6fabacfc8a102bb1d9",
						"blockNumber": 5822436,
						"data": "0x0000000000000000000000000000000000000000000000000000000000000009",
						"index": 226,
						"topics": [
							"0xa65fb05c5808f5f389d72edeaf719ce38f4cc55c1f69ca3cbfb31c21501caa07",
							"0x1c031ac0217a16bc8b880bc3a6e637a3fb319bf6343a8af2f9d37587d2ef9836"
						],
						"transactionHash": "0x2d343a597745086950f2a10fd73f4a101a2ec19f88646c9a268b2489ec99cee2",
						"transactionIndex": 113
					},
					{
						"address": "0xCd7112aE7c3b2505F0795c1ba965e5694c25d696",
						"blockHash": "0x75d63c22a8fd6e529f37712eb12d51fe0fc8f2f6d7e9cc6fabacfc8a102bb1d9",
						"blockNumber": 5822436,
						"data": "0x0000000000000000000000001081b5aa9d9d4862a3da4d469433fb36ed80fa2a",
						"index": 227,
						"topics": [
							"0x11207664cc48b0fa81c8674795f1d8f642960f38d5d2d305ad813093bed85fab",
							"0x000000000000000000000000ff7e1c600b8af88de885a7c68c3e737401082423",
							"0x0000000000000000000000000000000000000000000000000000000000000001"
						],
						"transactionHash": "0x2d343a597745086950f2a10fd73f4a101a2ec19f88646c9a268b2489ec99cee2",
						"transactionIndex": 113
					},
					{
						"address": "0x1081B5AA9D9d4862A3dA4d469433FB36Ed80FA2A",
						"blockHash": "0x75d63c22a8fd6e529f37712eb12d51fe0fc8f2f6d7e9cc6fabacfc8a102bb1d9",
						"blockNumber": 5822436,
						"data": "0x",
						"index": 228,
						"topics": [
							"0x6895c13664aa4f67288b25d7a21d7aaa34916e355fb9b6fae0a139a9085becb8",
							"0x000000000000000000000000ef1be3c049809cace5bc203bbe4ec1ab284bf75c"
						],
						"transactionHash": "0x2d343a597745086950f2a10fd73f4a101a2ec19f88646c9a268b2489ec99cee2",
						"transactionIndex": 113
					},
					{
						"address": "0xEf1Be3C049809caCe5Bc203BBe4Ec1Ab284bF75c",
						"blockHash": "0x75d63c22a8fd6e529f37712eb12d51fe0fc8f2f6d7e9cc6fabacfc8a102bb1d9",
						"blockNumber": 5822436,
						"data": "0x000000000000000000000000000000000000000000000000000000000000000a",
						"index": 229,
						"topics": [
							"0xa65fb05c5808f5f389d72edeaf719ce38f4cc55c1f69ca3cbfb31c21501caa07",
							"0x1c031ac0217a16bc8b880bc3a6e637a3fb319bf6343a8af2f9d37587d2ef9836"
						],
						"transactionHash": "0x2d343a597745086950f2a10fd73f4a101a2ec19f88646c9a268b2489ec99cee2",
						"transactionIndex": 113
					},
					{
						"address": "0x5F4b3b392930cB3D4bd836c7b3B1fa66d971b578",
						"blockHash": "0x75d63c22a8fd6e529f37712eb12d51fe0fc8f2f6d7e9cc6fabacfc8a102bb1d9",
						"blockNumber": 5822436,
						"data": "0x",
						"index": 230,
						"topics": [
							"0x8be0079c531659141344cd1fd0a4f28419497f9722a3daafe3b4186f6b6457e0",
							"0x0000000000000000000000000000000000000000000000000000000000000000",
							"0x0000000000000000000000001081b5aa9d9d4862a3da4d469433fb36ed80fa2a"
						],
						"transactionHash": "0x2d343a597745086950f2a10fd73f4a101a2ec19f88646c9a268b2489ec99cee2",
						"transactionIndex": 113
					},
					{
						"address": "0x1081B5AA9D9d4862A3dA4d469433FB36Ed80FA2A",
						"blockHash": "0x75d63c22a8fd6e529f37712eb12d51fe0fc8f2f6d7e9cc6fabacfc8a102bb1d9",
						"blockNumber": 5822436,
						"data": "0x",
						"index": 231,
						"topics": [
							"0x6895c13664aa4f67288b25d7a21d7aaa34916e355fb9b6fae0a139a9085becb8",
							"0x000000000000000000000000ef1be3c049809cace5bc203bbe4ec1ab284bf75c"
						],
						"transactionHash": "0x2d343a597745086950f2a10fd73f4a101a2ec19f88646c9a268b2489ec99cee2",
						"transactionIndex": 113
					},
					{
						"address": "0xEf1Be3C049809caCe5Bc203BBe4Ec1Ab284bF75c",
						"blockHash": "0x75d63c22a8fd6e529f37712eb12d51fe0fc8f2f6d7e9cc6fabacfc8a102bb1d9",
						"blockNumber": 5822436,
						"data": "0x000000000000000000000000000000000000000000000000000000000000000b",
						"index": 232,
						"topics": [
							"0xa65fb05c5808f5f389d72edeaf719ce38f4cc55c1f69ca3cbfb31c21501caa07",
							"0x1c031ac0217a16bc8b880bc3a6e637a3fb319bf6343a8af2f9d37587d2ef9836"
						],
						"transactionHash": "0x2d343a597745086950f2a10fd73f4a101a2ec19f88646c9a268b2489ec99cee2",
						"transactionIndex": 113
					},
					{
						"address": "0x3C61761293b40003584ad6269e06B26eA651c9AB",
						"blockHash": "0x75d63c22a8fd6e529f37712eb12d51fe0fc8f2f6d7e9cc6fabacfc8a102bb1d9",
						"blockNumber": 5822436,
						"data": "0x",
						"index": 233,
						"topics": [
							"0x8be0079c531659141344cd1fd0a4f28419497f9722a3daafe3b4186f6b6457e0",
							"0x0000000000000000000000000000000000000000000000000000000000000000",
							"0x0000000000000000000000001081b5aa9d9d4862a3da4d469433fb36ed80fa2a"
						],
						"transactionHash": "0x2d343a597745086950f2a10fd73f4a101a2ec19f88646c9a268b2489ec99cee2",
						"transactionIndex": 113
					},
					{
						"address": "0x1081B5AA9D9d4862A3dA4d469433FB36Ed80FA2A",
						"blockHash": "0x75d63c22a8fd6e529f37712eb12d51fe0fc8f2f6d7e9cc6fabacfc8a102bb1d9",
						"blockNumber": 5822436,
						"data": "0x",
						"index": 234,
						"topics": [
							"0x6895c13664aa4f67288b25d7a21d7aaa34916e355fb9b6fae0a139a9085becb8",
							"0x000000000000000000000000ef1be3c049809cace5bc203bbe4ec1ab284bf75c"
						],
						"transactionHash": "0x2d343a597745086950f2a10fd73f4a101a2ec19f88646c9a268b2489ec99cee2",
						"transactionIndex": 113
					},
					{
						"address": "0xEf1Be3C049809caCe5Bc203BBe4Ec1Ab284bF75c",
						"blockHash": "0x75d63c22a8fd6e529f37712eb12d51fe0fc8f2f6d7e9cc6fabacfc8a102bb1d9",
						"blockNumber": 5822436,
						"data": "0x000000000000000000000000000000000000000000000000000000000000000c",
						"index": 235,
						"topics": [
							"0xa65fb05c5808f5f389d72edeaf719ce38f4cc55c1f69ca3cbfb31c21501caa07",
							"0x1c031ac0217a16bc8b880bc3a6e637a3fb319bf6343a8af2f9d37587d2ef9836"
						],
						"transactionHash": "0x2d343a597745086950f2a10fd73f4a101a2ec19f88646c9a268b2489ec99cee2",
						"transactionIndex": 113
					},
					{
						"address": "0x1081B5AA9D9d4862A3dA4d469433FB36Ed80FA2A",
						"blockHash": "0x75d63c22a8fd6e529f37712eb12d51fe0fc8f2f6d7e9cc6fabacfc8a102bb1d9",
						"blockNumber": 5822436,
						"data": "0x",
						"index": 236,
						"topics": [
							"0x6895c13664aa4f67288b25d7a21d7aaa34916e355fb9b6fae0a139a9085becb8",
							"0x000000000000000000000000ef1be3c049809cace5bc203bbe4ec1ab284bf75c"
						],
						"transactionHash": "0x2d343a597745086950f2a10fd73f4a101a2ec19f88646c9a268b2489ec99cee2",
						"transactionIndex": 113
					},
					{
						"address": "0xEf1Be3C049809caCe5Bc203BBe4Ec1Ab284bF75c",
						"blockHash": "0x75d63c22a8fd6e529f37712eb12d51fe0fc8f2f6d7e9cc6fabacfc8a102bb1d9",
						"blockNumber": 5822436,
						"data": "0x000000000000000000000000000000000000000000000000000000000000000d",
						"index": 237,
						"topics": [
							"0xa65fb05c5808f5f389d72edeaf719ce38f4cc55c1f69ca3cbfb31c21501caa07",
							"0x1c031ac0217a16bc8b880bc3a6e637a3fb319bf6343a8af2f9d37587d2ef9836"
						],
						"transactionHash": "0x2d343a597745086950f2a10fd73f4a101a2ec19f88646c9a268b2489ec99cee2",
						"transactionIndex": 113
					}
				],
				"logsBloom": "0x00000000080010000008000000080000000000000008000000800000004000000060008000000000000000000040400000000000000000000000000002040000000000000000200480000000010000000001000000040000000200000000000000000000020000000000000000000800000000100000000000000000000020400001800000000000000184000000000000000000000000000000800000020020004000000010000000000400000200020208400008080000010000000006000000000000000000200000000008000000000000000000040000000000000060000000400000000004000008000000000200000000000000000000100000000000",
				"status": 1,
				"to": "0xB5E96127D417b1B3ef8438496a38A143167209c7"
			},
			"metadata": "{\"compiler\":{\"version\":\"0.8.23+commit.f704f362\"},\"language\":\"Solidity\",\"output\":{\"abi\":[{\"inputs\":[{\"internalType\":\"address\",\"name\":\"owner\",\"type\":\"address\"}],\"stateMutability\":\"nonpayable\",\"type\":\"constructor\"},{\"inputs\":[{\"internalType\":\"address\",\"name\":\"owner\",\"type\":\"address\"}],\"type\":\"error\",\"name\":\"OwnableInvalidOwner\"},{\"inputs\":[{\"internalType\":\"address\",\"name\":\"account\",\"type\":\"address\"}],\"type\":\"error\",\"name\":\"OwnableUnauthorizedAccount\"},{\"inputs\":[{\"internalType\":\"address\",\"name\":\"previousOwner\",\"type\":\"address\",\"indexed\":true},{\"internalType\":\"address\",\"name\":\"newOwner\",\"type\":\"address\",\"indexed\":true}],\"type\":\"event\",\"name\":\"OwnershipTransferred\",\"anonymous\":false},{\"inputs\":[{\"internalType\":\"address\",\"name\":\"account\",\"type\":\"address\",\"indexed\":true},{\"internalType\":\"bool\",\"name\":\"isFeeless\",\"type\":\"bool\",\"indexed\":true},{\"internalType\":\"address\",\"name\":\"caller\",\"type\":\"address\",\"indexed\":false}],\"type\":\"event\",\"name\":\"SetFeelessAddress\",\"anonymous\":false},{\"inputs\":[{\"internalType\":\"address\",\"name\":\"addr\",\"type\":\"address\"}],\"stateMutability\":\"view\",\"type\":\"function\",\"name\":\"isFeeless\",\"outputs\":[{\"internalType\":\"bool\",\"name\":\"\",\"type\":\"bool\"}]},{\"inputs\":[],\"stateMutability\":\"view\",\"type\":\"function\",\"name\":\"owner\",\"outputs\":[{\"internalType\":\"address\",\"name\":\"\",\"type\":\"address\"}]},{\"inputs\":[],\"stateMutability\":\"nonpayable\",\"type\":\"function\",\"name\":\"renounceOwnership\"},{\"inputs\":[{\"internalType\":\"address\",\"name\":\"addr\",\"type\":\"address\"},{\"internalType\":\"bool\",\"name\":\"flag\",\"type\":\"bool\"}],\"stateMutability\":\"nonpayable\",\"type\":\"function\",\"name\":\"setFeelessAddress\"},{\"inputs\":[{\"internalType\":\"bytes4\",\"name\":\"interfaceId\",\"type\":\"bytes4\"}],\"stateMutability\":\"view\",\"type\":\"function\",\"name\":\"supportsInterface\",\"outputs\":[{\"internalType\":\"bool\",\"name\":\"\",\"type\":\"bool\"}]},{\"inputs\":[{\"internalType\":\"address\",\"name\":\"newOwner\",\"type\":\"address\"}],\"stateMutability\":\"nonpayable\",\"type\":\"function\",\"name\":\"transferOwnership\"}],\"devdoc\":{\"kind\":\"dev\",\"methods\":{\"constructor\":{\"params\":{\"owner\":\"This contract's owner.\"}},\"owner()\":{\"details\":\"Returns the address of the current owner.\"},\"renounceOwnership()\":{\"details\":\"Leaves the contract without owner. It will not be possible to call `onlyOwner` functions. Can only be called by the current owner. NOTE: Renouncing ownership will leave the contract without an owner, thereby disabling any functionality that is only available to the owner.\"},\"setFeelessAddress(address,bool)\":{\"details\":\"Can only be called by this contract's owner.\",\"params\":{\"addr\":\"The address to set as feeless or not feeless.\",\"flag\":\"Whether the address should be feeless (`true`) or not feeless (`false`).\"}},\"supportsInterface(bytes4)\":{\"details\":\"See {IERC165-supportsInterface}.\",\"params\":{\"interfaceId\":\"The ID of the interface to check for adherence to.\"},\"returns\":{\"_0\":\"A flag indicating if the provided interface ID is supported.\"}},\"transferOwnership(address)\":{\"details\":\"Transfers ownership of the contract to a new account (`newOwner`). Can only be called by the current owner.\"}},\"version\":1},\"userdoc\":{\"kind\":\"user\",\"methods\":{\"isFeeless(address)\":{\"notice\":\"Check if the specified address is feeless.\"},\"setFeelessAddress(address,bool)\":{\"notice\":\"Sets whether an address is feeless.\"},\"supportsInterface(bytes4)\":{\"notice\":\"Indicates whether this contract adheres to the specified interface.\"}},\"version\":1}},\"settings\":{\"remappings\":[\"@bananapus/=node_modules/@bananapus/\",\"@chainlink/=node_modules/@chainlink/\",\"@eth-optimism/=node_modules/@eth-optimism/\",\"@openzeppelin/=node_modules/@openzeppelin/\",\"@prb/=node_modules/@prb/\",\"@scroll-tech/=node_modules/@scroll-tech/\",\"@sphinx-labs/contracts/=lib/sphinx/packages/contracts/contracts/foundry/\",\"@uniswap/=node_modules/@uniswap/\",\"ds-test/=lib/forge-std/lib/ds-test/src/\",\"forge-std/=lib/forge-std/src/\",\"hardhat/=node_modules/hardhat/\",\"solmate/=node_modules/solmate/\",\"sphinx/=lib/sphinx/\"],\"optimizer\":{\"enabled\":true,\"runs\":200},\"metadata\":{\"bytecodeHash\":\"ipfs\"},\"compilationTarget\":{\"src/JBFeelessAddresses.sol\":\"JBFeelessAddresses\"},\"evmVersion\":\"paris\",\"libraries\":{}},\"sources\":{\"node_modules/@openzeppelin/contracts/access/Ownable.sol\":{\"keccak256\":\"0xff6d0bb2e285473e5311d9d3caacb525ae3538a80758c10649a4d61029b017bb\",\"urls\":[\"bzz-raw://8ed324d3920bb545059d66ab97d43e43ee85fd3bd52e03e401f020afb0b120f6\",\"dweb:/ipfs/QmfEckWLmZkDDcoWrkEvMWhms66xwTLff9DDhegYpvHo1a\"],\"license\":\"MIT\"},\"node_modules/@openzeppelin/contracts/utils/Context.sol\":{\"keccak256\":\"0x493033a8d1b176a037b2cc6a04dad01a5c157722049bbecf632ca876224dd4b2\",\"urls\":[\"bzz-raw://6a708e8a5bdb1011c2c381c9a5cfd8a9a956d7d0a9dc1bd8bcdaf52f76ef2f12\",\"dweb:/ipfs/Qmax9WHBnVsZP46ZxEMNRQpLQnrdE4dK8LehML1Py8FowF\"],\"license\":\"MIT\"},\"node_modules/@openzeppelin/contracts/utils/introspection/IERC165.sol\":{\"keccak256\":\"0x4296879f55019b23e135000eb36896057e7101fb7fb859c5ef690cf14643757b\",\"urls\":[\"bzz-raw://87b3541437c8c443ccd36795e56a338ed12855eec17f8da624511b8d1a7e14df\",\"dweb:/ipfs/QmeJQCtZrQjtJLr6u7ZHWeH3pBnjtLWzvRrKViAi7UZqxL\"],\"license\":\"MIT\"},\"src/JBFeelessAddresses.sol\":{\"keccak256\":\"0x00b46f877cad27509a076b838df5e148c69be177281e3a38515c532a18c9da6d\",\"urls\":[\"bzz-raw://6e25442db43f3b04015ec62ab805a7ab44574bbfd032bf165759b4c325757bca\",\"dweb:/ipfs/QmavES8KgSnobBzSrEKTjbmvjAsUvk4d6GG1LXEeqB8eNp\"],\"license\":\"MIT\"},\"src/interfaces/IJBFeelessAddresses.sol\":{\"keccak256\":\"0xe5df42cfa71c5fa41b905c122de5825df13c2aab2f9cc4cf4bafa331dd69c27e\",\"urls\":[\"bzz-raw://3773bf3b42cc57d1e4086147e52135ff1dbff4309c45ca0398f821dfaa071563\",\"dweb:/ipfs/QmXUEJssHaxYKfV33tMZGf81JTR5a5yxEVshzNus84xLuT\"],\"license\":\"MIT\"}},\"version\":1}",
			"args": [
				"0x1081B5AA9D9d4862A3dA4d469433FB36Ed80FA2A"
			],
			"bytecode": "0x608060405234801561001057600080fd5b5060405161045038038061045083398101604081905261002f916100be565b806001600160a01b03811661005e57604051631e4fbdf760e01b81526000600482015260240160405180910390fd5b6100678161006e565b50506100ee565b600080546001600160a01b038381166001600160a01b0319831681178455604051919092169283917f8be0079c531659141344cd1fd0a4f28419497f9722a3daafe3b4186f6b6457e09190a35050565b6000602082840312156100d057600080fd5b81516001600160a01b03811681146100e757600080fd5b9392505050565b610353806100fd6000396000f3fe608060405234801561001057600080fd5b50600436106100625760003560e01c806301ffc9a714610067578063715018a61461008f5780637258002c146100995780638da5cb5b146100ac578063ae74a1b5146100c7578063f2fde38b146100ea575b600080fd5b61007a610075366004610279565b6100fd565b60405190151581526020015b60405180910390f35b610097610134565b005b6100976100a73660046102c6565b610148565b6000546040516001600160a01b039091168152602001610086565b61007a6100d5366004610302565b60016020526000908152604090205460ff1681565b6100976100f8366004610302565b6101b9565b60006001600160e01b0319821663dc2ca19960e01b148061012e57506001600160e01b031982166301ffc9a760e01b145b92915050565b61013c6101fc565b6101466000610229565b565b6101506101fc565b6001600160a01b0382166000818152600160205260409020805460ff1916831515908117909155907fa2653e25a502c023a5830d0de847ef6f458387865b1f4f575d7594f9f2c0d71e336040516001600160a01b03909116815260200160405180910390a35050565b6101c16101fc565b6001600160a01b0381166101f057604051631e4fbdf760e01b8152600060048201526024015b60405180910390fd5b6101f981610229565b50565b6000546001600160a01b031633146101465760405163118cdaa760e01b81523360048201526024016101e7565b600080546001600160a01b038381166001600160a01b0319831681178455604051919092169283917f8be0079c531659141344cd1fd0a4f28419497f9722a3daafe3b4186f6b6457e09190a35050565b60006020828403121561028b57600080fd5b81356001600160e01b0319811681146102a357600080fd5b9392505050565b80356001600160a01b03811681146102c157600080fd5b919050565b600080604083850312156102d957600080fd5b6102e2836102aa565b9150602083013580151581146102f757600080fd5b809150509250929050565b60006020828403121561031457600080fd5b6102a3826102aa56fea26469706673582212205a7c3fbfc1c5424816fdd58fb61c09f87cecd7163328bdb854cabc41c9313cd664736f6c63430008170033",
			"deployedBytecode": "0x608060405234801561001057600080fd5b50600436106100625760003560e01c806301ffc9a714610067578063715018a61461008f5780637258002c146100995780638da5cb5b146100ac578063ae74a1b5146100c7578063f2fde38b146100ea575b600080fd5b61007a610075366004610279565b6100fd565b60405190151581526020015b60405180910390f35b610097610134565b005b6100976100a73660046102c6565b610148565b6000546040516001600160a01b039091168152602001610086565b61007a6100d5366004610302565b60016020526000908152604090205460ff1681565b6100976100f8366004610302565b6101b9565b60006001600160e01b0319821663dc2ca19960e01b148061012e57506001600160e01b031982166301ffc9a760e01b145b92915050565b61013c6101fc565b6101466000610229565b565b6101506101fc565b6001600160a01b0382166000818152600160205260409020805460ff1916831515908117909155907fa2653e25a502c023a5830d0de847ef6f458387865b1f4f575d7594f9f2c0d71e336040516001600160a01b03909116815260200160405180910390a35050565b6101c16101fc565b6001600160a01b0381166101f057604051631e4fbdf760e01b8152600060048201526024015b60405180910390fd5b6101f981610229565b50565b6000546001600160a01b031633146101465760405163118cdaa760e01b81523360048201526024016101e7565b600080546001600160a01b038381166001600160a01b0319831681178455604051919092169283917f8be0079c531659141344cd1fd0a4f28419497f9722a3daafe3b4186f6b6457e09190a35050565b60006020828403121561028b57600080fd5b81356001600160e01b0319811681146102a357600080fd5b9392505050565b80356001600160a01b03811681146102c157600080fd5b919050565b600080604083850312156102d957600080fd5b6102e2836102aa565b9150602083013580151581146102f757600080fd5b809150509250929050565b60006020828403121561031457600080fd5b6102a3826102aa56fea26469706673582212205a7c3fbfc1c5424816fdd58fb61c09f87cecd7163328bdb854cabc41c9313cd664736f6c63430008170033",
			"devdoc": {
				"kind": "dev",
				"methods": {
					"constructor": {
						"params": {
							"owner": "This contract's owner."
						}
					},
					"owner()": {
						"details": "Returns the address of the current owner."
					},
					"renounceOwnership()": {
						"details": "Leaves the contract without owner. It will not be possible to call `onlyOwner` functions. Can only be called by the current owner. NOTE: Renouncing ownership will leave the contract without an owner, thereby disabling any functionality that is only available to the owner."
					},
					"setFeelessAddress(address,bool)": {
						"details": "Can only be called by this contract's owner.",
						"params": {
							"addr": "The address to set as feeless or not feeless.",
							"flag": "Whether the address should be feeless (`true`) or not feeless (`false`)."
						}
					},
					"supportsInterface(bytes4)": {
						"details": "See {IERC165-supportsInterface}.",
						"params": {
							"interfaceId": "The ID of the interface to check for adherence to."
						},
						"returns": {
							"_0": "A flag indicating if the provided interface ID is supported."
						}
					},
					"transferOwnership(address)": {
						"details": "Transfers ownership of the contract to a new account (`newOwner`). Can only be called by the current owner."
					}
				},
				"version": 1
			},
			"userdoc": {
				"kind": "user",
				"methods": {
					"isFeeless(address)": {
						"notice": "Check if the specified address is feeless."
					},
					"setFeelessAddress(address,bool)": {
						"notice": "Sets whether an address is feeless."
					},
					"supportsInterface(bytes4)": {
						"notice": "Indicates whether this contract adheres to the specified interface."
					}
				},
				"version": 1
			},
			"gitCommit": "cfb1d4cd4e79bed840a9c8fcd17a0f397da3e3bf",
			"sourceName": "src/JBFeelessAddresses.sol",
			"chainId": "11155111",
			"linkReferences": {},
			"deployedLinkReferences": {}
		},
		{
			"_format": "sphinx-sol-ct-artifact-1",
			"merkleRoot": "0x11830f0fb7ad6b482466bf66cc24181095df70d9395bc2c496d5a5bd11e611a7",
			"contractName": "JBFeelessAddresses",
			"address": "0x327Ef1062d1FA11F0aEC12fF6788FCE19A9cB1c3",
			"abi": [
				{
					"type": "constructor",
					"inputs": [
						{
							"name": "owner",
							"type": "address",
							"internalType": "address"
						}
					],
					"stateMutability": "nonpayable"
				},
				{
					"type": "function",
					"name": "isFeeless",
					"inputs": [
						{
							"name": "addr",
							"type": "address",
							"internalType": "address"
						}
					],
					"outputs": [
						{
							"name": "",
							"type": "bool",
							"internalType": "bool"
						}
					],
					"stateMutability": "view"
				},
				{
					"type": "function",
					"name": "owner",
					"inputs": [],
					"outputs": [
						{
							"name": "",
							"type": "address",
							"internalType": "address"
						}
					],
					"stateMutability": "view"
				},
				{
					"type": "function",
					"name": "renounceOwnership",
					"inputs": [],
					"outputs": [],
					"stateMutability": "nonpayable"
				},
				{
					"type": "function",
					"name": "setFeelessAddress",
					"inputs": [
						{
							"name": "addr",
							"type": "address",
							"internalType": "address"
						},
						{
							"name": "flag",
							"type": "bool",
							"internalType": "bool"
						}
					],
					"outputs": [],
					"stateMutability": "nonpayable"
				},
				{
					"type": "function",
					"name": "supportsInterface",
					"inputs": [
						{
							"name": "interfaceId",
							"type": "bytes4",
							"internalType": "bytes4"
						}
					],
					"outputs": [
						{
							"name": "",
							"type": "bool",
							"internalType": "bool"
						}
					],
					"stateMutability": "view"
				},
				{
					"type": "function",
					"name": "transferOwnership",
					"inputs": [
						{
							"name": "newOwner",
							"type": "address",
							"internalType": "address"
						}
					],
					"outputs": [],
					"stateMutability": "nonpayable"
				},
				{
					"type": "event",
					"name": "OwnershipTransferred",
					"inputs": [
						{
							"name": "previousOwner",
							"type": "address",
							"indexed": true,
							"internalType": "address"
						},
						{
							"name": "newOwner",
							"type": "address",
							"indexed": true,
							"internalType": "address"
						}
					],
					"anonymous": false
				},
				{
					"type": "event",
					"name": "SetFeelessAddress",
					"inputs": [
						{
							"name": "account",
							"type": "address",
							"indexed": true,
							"internalType": "address"
						},
						{
							"name": "isFeeless",
							"type": "bool",
							"indexed": true,
							"internalType": "bool"
						},
						{
							"name": "caller",
							"type": "address",
							"indexed": false,
							"internalType": "address"
						}
					],
					"anonymous": false
				},
				{
					"type": "error",
					"name": "OwnableInvalidOwner",
					"inputs": [
						{
							"name": "owner",
							"type": "address",
							"internalType": "address"
						}
					]
				},
				{
					"type": "error",
					"name": "OwnableUnauthorizedAccount",
					"inputs": [
						{
							"name": "account",
							"type": "address",
							"internalType": "address"
						}
					]
				}
			],
			"solcInputHash": "d72d671cb704a380777b1be08dd807eb",
			"receipt": {
				"blockHash": "0x7d40cd7fc6955306d58f62c5de1db82495864320505249990ed74189464f3421",
				"blockNumber": 6033693,
				"contractAddress": null,
				"cumulativeGasUsed": "24373291",
				"from": "0xC034550B542b83BA1De312b21d1C94a9a52B1595",
				"gasPrice": "3989007368",
				"gasUsed": "9795826",
				"hash": "0xdd61367f545eb402a80e8872a55a9e64d0959bc175f7488f3d371bfd64b361c6",
				"index": 152,
				"logs": [
					{
						"address": "0xB5E96127D417b1B3ef8438496a38A143167209c7",
						"blockHash": "0x7d40cd7fc6955306d58f62c5de1db82495864320505249990ed74189464f3421",
						"blockNumber": 6033693,
						"data": "0x0000000000000000000000000000000000000000000000000000000000000000",
						"index": 236,
						"topics": [
							"0x572f161235911da04685a68c06adf558fc7e4a36909dca394650e0adc19cc93d",
							"0x000000000000000000000000c034550b542b83ba1de312b21d1c94a9a52b1595",
							"0x000000000000000000000000ef1be3c049809cace5bc203bbe4ec1ab284bf75c",
							"0xf87ba07ace8ce1d373da72ea23cacf279a8f3a5f8554a31411df6901d7aea982"
						],
						"transactionHash": "0xdd61367f545eb402a80e8872a55a9e64d0959bc175f7488f3d371bfd64b361c6",
						"transactionIndex": 152
					},
					{
						"address": "0x1081B5AA9D9d4862A3dA4d469433FB36Ed80FA2A",
						"blockHash": "0x7d40cd7fc6955306d58f62c5de1db82495864320505249990ed74189464f3421",
						"blockNumber": 6033693,
						"data": "0x",
						"index": 237,
						"topics": [
							"0x6895c13664aa4f67288b25d7a21d7aaa34916e355fb9b6fae0a139a9085becb8",
							"0x000000000000000000000000ef1be3c049809cace5bc203bbe4ec1ab284bf75c"
						],
						"transactionHash": "0xdd61367f545eb402a80e8872a55a9e64d0959bc175f7488f3d371bfd64b361c6",
						"transactionIndex": 152
					},
					{
						"address": "0xEf1Be3C049809caCe5Bc203BBe4Ec1Ab284bF75c",
						"blockHash": "0x7d40cd7fc6955306d58f62c5de1db82495864320505249990ed74189464f3421",
						"blockNumber": 6033693,
						"data": "0x0000000000000000000000000000000000000000000000000000000000000009",
						"index": 238,
						"topics": [
							"0xa65fb05c5808f5f389d72edeaf719ce38f4cc55c1f69ca3cbfb31c21501caa07",
							"0x11830f0fb7ad6b482466bf66cc24181095df70d9395bc2c496d5a5bd11e611a7"
						],
						"transactionHash": "0xdd61367f545eb402a80e8872a55a9e64d0959bc175f7488f3d371bfd64b361c6",
						"transactionIndex": 152
					},
					{
						"address": "0xc9cb7a0BAB7569b5B6De26A679D107D4D412B349",
						"blockHash": "0x7d40cd7fc6955306d58f62c5de1db82495864320505249990ed74189464f3421",
						"blockNumber": 6033693,
						"data": "0x0000000000000000000000001081b5aa9d9d4862a3da4d469433fb36ed80fa2a",
						"index": 239,
						"topics": [
							"0x11207664cc48b0fa81c8674795f1d8f642960f38d5d2d305ad813093bed85fab",
							"0x0000000000000000000000009c7993bff32dfd4e96f5c24d7ab3f9c93c303704",
							"0x0000000000000000000000000000000000000000000000000000000000000001"
						],
						"transactionHash": "0xdd61367f545eb402a80e8872a55a9e64d0959bc175f7488f3d371bfd64b361c6",
						"transactionIndex": 152
					},
					{
						"address": "0x1081B5AA9D9d4862A3dA4d469433FB36Ed80FA2A",
						"blockHash": "0x7d40cd7fc6955306d58f62c5de1db82495864320505249990ed74189464f3421",
						"blockNumber": 6033693,
						"data": "0x",
						"index": 240,
						"topics": [
							"0x6895c13664aa4f67288b25d7a21d7aaa34916e355fb9b6fae0a139a9085becb8",
							"0x000000000000000000000000ef1be3c049809cace5bc203bbe4ec1ab284bf75c"
						],
						"transactionHash": "0xdd61367f545eb402a80e8872a55a9e64d0959bc175f7488f3d371bfd64b361c6",
						"transactionIndex": 152
					},
					{
						"address": "0xEf1Be3C049809caCe5Bc203BBe4Ec1Ab284bF75c",
						"blockHash": "0x7d40cd7fc6955306d58f62c5de1db82495864320505249990ed74189464f3421",
						"blockNumber": 6033693,
						"data": "0x000000000000000000000000000000000000000000000000000000000000000a",
						"index": 241,
						"topics": [
							"0xa65fb05c5808f5f389d72edeaf719ce38f4cc55c1f69ca3cbfb31c21501caa07",
							"0x11830f0fb7ad6b482466bf66cc24181095df70d9395bc2c496d5a5bd11e611a7"
						],
						"transactionHash": "0xdd61367f545eb402a80e8872a55a9e64d0959bc175f7488f3d371bfd64b361c6",
						"transactionIndex": 152
					},
					{
						"address": "0x327Ef1062d1FA11F0aEC12fF6788FCE19A9cB1c3",
						"blockHash": "0x7d40cd7fc6955306d58f62c5de1db82495864320505249990ed74189464f3421",
						"blockNumber": 6033693,
						"data": "0x",
						"index": 242,
						"topics": [
							"0x8be0079c531659141344cd1fd0a4f28419497f9722a3daafe3b4186f6b6457e0",
							"0x0000000000000000000000000000000000000000000000000000000000000000",
							"0x0000000000000000000000001081b5aa9d9d4862a3da4d469433fb36ed80fa2a"
						],
						"transactionHash": "0xdd61367f545eb402a80e8872a55a9e64d0959bc175f7488f3d371bfd64b361c6",
						"transactionIndex": 152
					},
					{
						"address": "0x1081B5AA9D9d4862A3dA4d469433FB36Ed80FA2A",
						"blockHash": "0x7d40cd7fc6955306d58f62c5de1db82495864320505249990ed74189464f3421",
						"blockNumber": 6033693,
						"data": "0x",
						"index": 243,
						"topics": [
							"0x6895c13664aa4f67288b25d7a21d7aaa34916e355fb9b6fae0a139a9085becb8",
							"0x000000000000000000000000ef1be3c049809cace5bc203bbe4ec1ab284bf75c"
						],
						"transactionHash": "0xdd61367f545eb402a80e8872a55a9e64d0959bc175f7488f3d371bfd64b361c6",
						"transactionIndex": 152
					},
					{
						"address": "0xEf1Be3C049809caCe5Bc203BBe4Ec1Ab284bF75c",
						"blockHash": "0x7d40cd7fc6955306d58f62c5de1db82495864320505249990ed74189464f3421",
						"blockNumber": 6033693,
						"data": "0x000000000000000000000000000000000000000000000000000000000000000b",
						"index": 244,
						"topics": [
							"0xa65fb05c5808f5f389d72edeaf719ce38f4cc55c1f69ca3cbfb31c21501caa07",
							"0x11830f0fb7ad6b482466bf66cc24181095df70d9395bc2c496d5a5bd11e611a7"
						],
						"transactionHash": "0xdd61367f545eb402a80e8872a55a9e64d0959bc175f7488f3d371bfd64b361c6",
						"transactionIndex": 152
					},
					{
						"address": "0x07D3580527E19B110b79dE420310c49F1E3Cba91",
						"blockHash": "0x7d40cd7fc6955306d58f62c5de1db82495864320505249990ed74189464f3421",
						"blockNumber": 6033693,
						"data": "0x",
						"index": 245,
						"topics": [
							"0x8be0079c531659141344cd1fd0a4f28419497f9722a3daafe3b4186f6b6457e0",
							"0x0000000000000000000000000000000000000000000000000000000000000000",
							"0x0000000000000000000000001081b5aa9d9d4862a3da4d469433fb36ed80fa2a"
						],
						"transactionHash": "0xdd61367f545eb402a80e8872a55a9e64d0959bc175f7488f3d371bfd64b361c6",
						"transactionIndex": 152
					},
					{
						"address": "0x1081B5AA9D9d4862A3dA4d469433FB36Ed80FA2A",
						"blockHash": "0x7d40cd7fc6955306d58f62c5de1db82495864320505249990ed74189464f3421",
						"blockNumber": 6033693,
						"data": "0x",
						"index": 246,
						"topics": [
							"0x6895c13664aa4f67288b25d7a21d7aaa34916e355fb9b6fae0a139a9085becb8",
							"0x000000000000000000000000ef1be3c049809cace5bc203bbe4ec1ab284bf75c"
						],
						"transactionHash": "0xdd61367f545eb402a80e8872a55a9e64d0959bc175f7488f3d371bfd64b361c6",
						"transactionIndex": 152
					},
					{
						"address": "0xEf1Be3C049809caCe5Bc203BBe4Ec1Ab284bF75c",
						"blockHash": "0x7d40cd7fc6955306d58f62c5de1db82495864320505249990ed74189464f3421",
						"blockNumber": 6033693,
						"data": "0x000000000000000000000000000000000000000000000000000000000000000c",
						"index": 247,
						"topics": [
							"0xa65fb05c5808f5f389d72edeaf719ce38f4cc55c1f69ca3cbfb31c21501caa07",
							"0x11830f0fb7ad6b482466bf66cc24181095df70d9395bc2c496d5a5bd11e611a7"
						],
						"transactionHash": "0xdd61367f545eb402a80e8872a55a9e64d0959bc175f7488f3d371bfd64b361c6",
						"transactionIndex": 152
					},
					{
						"address": "0x1081B5AA9D9d4862A3dA4d469433FB36Ed80FA2A",
						"blockHash": "0x7d40cd7fc6955306d58f62c5de1db82495864320505249990ed74189464f3421",
						"blockNumber": 6033693,
						"data": "0x",
						"index": 248,
						"topics": [
							"0x6895c13664aa4f67288b25d7a21d7aaa34916e355fb9b6fae0a139a9085becb8",
							"0x000000000000000000000000ef1be3c049809cace5bc203bbe4ec1ab284bf75c"
						],
						"transactionHash": "0xdd61367f545eb402a80e8872a55a9e64d0959bc175f7488f3d371bfd64b361c6",
						"transactionIndex": 152
					},
					{
						"address": "0xEf1Be3C049809caCe5Bc203BBe4Ec1Ab284bF75c",
						"blockHash": "0x7d40cd7fc6955306d58f62c5de1db82495864320505249990ed74189464f3421",
						"blockNumber": 6033693,
						"data": "0x000000000000000000000000000000000000000000000000000000000000000d",
						"index": 249,
						"topics": [
							"0xa65fb05c5808f5f389d72edeaf719ce38f4cc55c1f69ca3cbfb31c21501caa07",
							"0x11830f0fb7ad6b482466bf66cc24181095df70d9395bc2c496d5a5bd11e611a7"
						],
						"transactionHash": "0xdd61367f545eb402a80e8872a55a9e64d0959bc175f7488f3d371bfd64b361c6",
						"transactionIndex": 152
					}
				],
				"logsBloom": "0x00000000080010000008000000080008000000000008000080800000004000080060008000000000000000000040200000000000000000000000000000040000010000000000200400000010000000000001000000040000000200000000000000000000020000000020000000000800000000100000000000000000000000400001000000000000000100000000000000000000000000000000800000400020004000001014000000000000000000020200400000000000040010000006000000000000000000200000000008000000000000000020040000000080000060000000000000000004000000008000040200000000000002000040000000000000",
				"status": 1,
				"to": "0xB5E96127D417b1B3ef8438496a38A143167209c7"
			},
			"metadata": "{\"compiler\":{\"version\":\"0.8.23+commit.f704f362\"},\"language\":\"Solidity\",\"output\":{\"abi\":[{\"inputs\":[{\"internalType\":\"address\",\"name\":\"owner\",\"type\":\"address\"}],\"stateMutability\":\"nonpayable\",\"type\":\"constructor\"},{\"inputs\":[{\"internalType\":\"address\",\"name\":\"owner\",\"type\":\"address\"}],\"type\":\"error\",\"name\":\"OwnableInvalidOwner\"},{\"inputs\":[{\"internalType\":\"address\",\"name\":\"account\",\"type\":\"address\"}],\"type\":\"error\",\"name\":\"OwnableUnauthorizedAccount\"},{\"inputs\":[{\"internalType\":\"address\",\"name\":\"previousOwner\",\"type\":\"address\",\"indexed\":true},{\"internalType\":\"address\",\"name\":\"newOwner\",\"type\":\"address\",\"indexed\":true}],\"type\":\"event\",\"name\":\"OwnershipTransferred\",\"anonymous\":false},{\"inputs\":[{\"internalType\":\"address\",\"name\":\"account\",\"type\":\"address\",\"indexed\":true},{\"internalType\":\"bool\",\"name\":\"isFeeless\",\"type\":\"bool\",\"indexed\":true},{\"internalType\":\"address\",\"name\":\"caller\",\"type\":\"address\",\"indexed\":false}],\"type\":\"event\",\"name\":\"SetFeelessAddress\",\"anonymous\":false},{\"inputs\":[{\"internalType\":\"address\",\"name\":\"addr\",\"type\":\"address\"}],\"stateMutability\":\"view\",\"type\":\"function\",\"name\":\"isFeeless\",\"outputs\":[{\"internalType\":\"bool\",\"name\":\"\",\"type\":\"bool\"}]},{\"inputs\":[],\"stateMutability\":\"view\",\"type\":\"function\",\"name\":\"owner\",\"outputs\":[{\"internalType\":\"address\",\"name\":\"\",\"type\":\"address\"}]},{\"inputs\":[],\"stateMutability\":\"nonpayable\",\"type\":\"function\",\"name\":\"renounceOwnership\"},{\"inputs\":[{\"internalType\":\"address\",\"name\":\"addr\",\"type\":\"address\"},{\"internalType\":\"bool\",\"name\":\"flag\",\"type\":\"bool\"}],\"stateMutability\":\"nonpayable\",\"type\":\"function\",\"name\":\"setFeelessAddress\"},{\"inputs\":[{\"internalType\":\"bytes4\",\"name\":\"interfaceId\",\"type\":\"bytes4\"}],\"stateMutability\":\"view\",\"type\":\"function\",\"name\":\"supportsInterface\",\"outputs\":[{\"internalType\":\"bool\",\"name\":\"\",\"type\":\"bool\"}]},{\"inputs\":[{\"internalType\":\"address\",\"name\":\"newOwner\",\"type\":\"address\"}],\"stateMutability\":\"nonpayable\",\"type\":\"function\",\"name\":\"transferOwnership\"}],\"devdoc\":{\"kind\":\"dev\",\"methods\":{\"constructor\":{\"params\":{\"owner\":\"This contract's owner.\"}},\"owner()\":{\"details\":\"Returns the address of the current owner.\"},\"renounceOwnership()\":{\"details\":\"Leaves the contract without owner. It will not be possible to call `onlyOwner` functions. Can only be called by the current owner. NOTE: Renouncing ownership will leave the contract without an owner, thereby disabling any functionality that is only available to the owner.\"},\"setFeelessAddress(address,bool)\":{\"details\":\"Can only be called by this contract's owner.\",\"params\":{\"addr\":\"The address to set as feeless or not feeless.\",\"flag\":\"Whether the address should be feeless (`true`) or not feeless (`false`).\"}},\"supportsInterface(bytes4)\":{\"details\":\"See {IERC165-supportsInterface}.\",\"params\":{\"interfaceId\":\"The ID of the interface to check for adherence to.\"},\"returns\":{\"_0\":\"A flag indicating if the provided interface ID is supported.\"}},\"transferOwnership(address)\":{\"details\":\"Transfers ownership of the contract to a new account (`newOwner`). Can only be called by the current owner.\"}},\"version\":1},\"userdoc\":{\"kind\":\"user\",\"methods\":{\"isFeeless(address)\":{\"notice\":\"Check if the specified address is feeless.\"},\"setFeelessAddress(address,bool)\":{\"notice\":\"Sets whether an address is feeless.\"},\"supportsInterface(bytes4)\":{\"notice\":\"Indicates whether this contract adheres to the specified interface.\"}},\"version\":1}},\"settings\":{\"remappings\":[\"@bananapus/=node_modules/@bananapus/\",\"@chainlink/=node_modules/@chainlink/\",\"@eth-optimism/=node_modules/@eth-optimism/\",\"@openzeppelin/=node_modules/@openzeppelin/\",\"@prb/=node_modules/@prb/\",\"@scroll-tech/=node_modules/@scroll-tech/\",\"@sphinx-labs/contracts/=lib/sphinx/packages/contracts/contracts/foundry/\",\"@uniswap/=node_modules/@uniswap/\",\"ds-test/=lib/forge-std/lib/ds-test/src/\",\"forge-std/=lib/forge-std/src/\",\"hardhat/=node_modules/hardhat/\",\"solmate/=node_modules/solmate/\",\"sphinx/=lib/sphinx/\"],\"optimizer\":{\"enabled\":true,\"runs\":200},\"metadata\":{\"bytecodeHash\":\"ipfs\"},\"compilationTarget\":{\"src/JBFeelessAddresses.sol\":\"JBFeelessAddresses\"},\"evmVersion\":\"paris\",\"libraries\":{}},\"sources\":{\"node_modules/@openzeppelin/contracts/access/Ownable.sol\":{\"keccak256\":\"0xff6d0bb2e285473e5311d9d3caacb525ae3538a80758c10649a4d61029b017bb\",\"urls\":[\"bzz-raw://8ed324d3920bb545059d66ab97d43e43ee85fd3bd52e03e401f020afb0b120f6\",\"dweb:/ipfs/QmfEckWLmZkDDcoWrkEvMWhms66xwTLff9DDhegYpvHo1a\"],\"license\":\"MIT\"},\"node_modules/@openzeppelin/contracts/utils/Context.sol\":{\"keccak256\":\"0x493033a8d1b176a037b2cc6a04dad01a5c157722049bbecf632ca876224dd4b2\",\"urls\":[\"bzz-raw://6a708e8a5bdb1011c2c381c9a5cfd8a9a956d7d0a9dc1bd8bcdaf52f76ef2f12\",\"dweb:/ipfs/Qmax9WHBnVsZP46ZxEMNRQpLQnrdE4dK8LehML1Py8FowF\"],\"license\":\"MIT\"},\"node_modules/@openzeppelin/contracts/utils/introspection/IERC165.sol\":{\"keccak256\":\"0x4296879f55019b23e135000eb36896057e7101fb7fb859c5ef690cf14643757b\",\"urls\":[\"bzz-raw://87b3541437c8c443ccd36795e56a338ed12855eec17f8da624511b8d1a7e14df\",\"dweb:/ipfs/QmeJQCtZrQjtJLr6u7ZHWeH3pBnjtLWzvRrKViAi7UZqxL\"],\"license\":\"MIT\"},\"src/JBFeelessAddresses.sol\":{\"keccak256\":\"0x00b46f877cad27509a076b838df5e148c69be177281e3a38515c532a18c9da6d\",\"urls\":[\"bzz-raw://6e25442db43f3b04015ec62ab805a7ab44574bbfd032bf165759b4c325757bca\",\"dweb:/ipfs/QmavES8KgSnobBzSrEKTjbmvjAsUvk4d6GG1LXEeqB8eNp\"],\"license\":\"MIT\"},\"src/interfaces/IJBFeelessAddresses.sol\":{\"keccak256\":\"0xe5df42cfa71c5fa41b905c122de5825df13c2aab2f9cc4cf4bafa331dd69c27e\",\"urls\":[\"bzz-raw://3773bf3b42cc57d1e4086147e52135ff1dbff4309c45ca0398f821dfaa071563\",\"dweb:/ipfs/QmXUEJssHaxYKfV33tMZGf81JTR5a5yxEVshzNus84xLuT\"],\"license\":\"MIT\"}},\"version\":1}",
			"args": [
				"0x1081B5AA9D9d4862A3dA4d469433FB36Ed80FA2A"
			],
			"bytecode": "0x608060405234801561001057600080fd5b5060405161045038038061045083398101604081905261002f916100be565b806001600160a01b03811661005e57604051631e4fbdf760e01b81526000600482015260240160405180910390fd5b6100678161006e565b50506100ee565b600080546001600160a01b038381166001600160a01b0319831681178455604051919092169283917f8be0079c531659141344cd1fd0a4f28419497f9722a3daafe3b4186f6b6457e09190a35050565b6000602082840312156100d057600080fd5b81516001600160a01b03811681146100e757600080fd5b9392505050565b610353806100fd6000396000f3fe608060405234801561001057600080fd5b50600436106100625760003560e01c806301ffc9a714610067578063715018a61461008f5780637258002c146100995780638da5cb5b146100ac578063ae74a1b5146100c7578063f2fde38b146100ea575b600080fd5b61007a610075366004610279565b6100fd565b60405190151581526020015b60405180910390f35b610097610134565b005b6100976100a73660046102c6565b610148565b6000546040516001600160a01b039091168152602001610086565b61007a6100d5366004610302565b60016020526000908152604090205460ff1681565b6100976100f8366004610302565b6101b9565b60006001600160e01b0319821663dc2ca19960e01b148061012e57506001600160e01b031982166301ffc9a760e01b145b92915050565b61013c6101fc565b6101466000610229565b565b6101506101fc565b6001600160a01b0382166000818152600160205260409020805460ff1916831515908117909155907fa2653e25a502c023a5830d0de847ef6f458387865b1f4f575d7594f9f2c0d71e336040516001600160a01b03909116815260200160405180910390a35050565b6101c16101fc565b6001600160a01b0381166101f057604051631e4fbdf760e01b8152600060048201526024015b60405180910390fd5b6101f981610229565b50565b6000546001600160a01b031633146101465760405163118cdaa760e01b81523360048201526024016101e7565b600080546001600160a01b038381166001600160a01b0319831681178455604051919092169283917f8be0079c531659141344cd1fd0a4f28419497f9722a3daafe3b4186f6b6457e09190a35050565b60006020828403121561028b57600080fd5b81356001600160e01b0319811681146102a357600080fd5b9392505050565b80356001600160a01b03811681146102c157600080fd5b919050565b600080604083850312156102d957600080fd5b6102e2836102aa565b9150602083013580151581146102f757600080fd5b809150509250929050565b60006020828403121561031457600080fd5b6102a3826102aa56fea26469706673582212205a7c3fbfc1c5424816fdd58fb61c09f87cecd7163328bdb854cabc41c9313cd664736f6c63430008170033",
			"deployedBytecode": "0x608060405234801561001057600080fd5b50600436106100625760003560e01c806301ffc9a714610067578063715018a61461008f5780637258002c146100995780638da5cb5b146100ac578063ae74a1b5146100c7578063f2fde38b146100ea575b600080fd5b61007a610075366004610279565b6100fd565b60405190151581526020015b60405180910390f35b610097610134565b005b6100976100a73660046102c6565b610148565b6000546040516001600160a01b039091168152602001610086565b61007a6100d5366004610302565b60016020526000908152604090205460ff1681565b6100976100f8366004610302565b6101b9565b60006001600160e01b0319821663dc2ca19960e01b148061012e57506001600160e01b031982166301ffc9a760e01b145b92915050565b61013c6101fc565b6101466000610229565b565b6101506101fc565b6001600160a01b0382166000818152600160205260409020805460ff1916831515908117909155907fa2653e25a502c023a5830d0de847ef6f458387865b1f4f575d7594f9f2c0d71e336040516001600160a01b03909116815260200160405180910390a35050565b6101c16101fc565b6001600160a01b0381166101f057604051631e4fbdf760e01b8152600060048201526024015b60405180910390fd5b6101f981610229565b50565b6000546001600160a01b031633146101465760405163118cdaa760e01b81523360048201526024016101e7565b600080546001600160a01b038381166001600160a01b0319831681178455604051919092169283917f8be0079c531659141344cd1fd0a4f28419497f9722a3daafe3b4186f6b6457e09190a35050565b60006020828403121561028b57600080fd5b81356001600160e01b0319811681146102a357600080fd5b9392505050565b80356001600160a01b03811681146102c157600080fd5b919050565b600080604083850312156102d957600080fd5b6102e2836102aa565b9150602083013580151581146102f757600080fd5b809150509250929050565b60006020828403121561031457600080fd5b6102a3826102aa56fea26469706673582212205a7c3fbfc1c5424816fdd58fb61c09f87cecd7163328bdb854cabc41c9313cd664736f6c63430008170033",
			"devdoc": {
				"kind": "dev",
				"methods": {
					"constructor": {
						"params": {
							"owner": "This contract's owner."
						}
					},
					"owner()": {
						"details": "Returns the address of the current owner."
					},
					"renounceOwnership()": {
						"details": "Leaves the contract without owner. It will not be possible to call `onlyOwner` functions. Can only be called by the current owner. NOTE: Renouncing ownership will leave the contract without an owner, thereby disabling any functionality that is only available to the owner."
					},
					"setFeelessAddress(address,bool)": {
						"details": "Can only be called by this contract's owner.",
						"params": {
							"addr": "The address to set as feeless or not feeless.",
							"flag": "Whether the address should be feeless (`true`) or not feeless (`false`)."
						}
					},
					"supportsInterface(bytes4)": {
						"details": "See {IERC165-supportsInterface}.",
						"params": {
							"interfaceId": "The ID of the interface to check for adherence to."
						},
						"returns": {
							"_0": "A flag indicating if the provided interface ID is supported."
						}
					},
					"transferOwnership(address)": {
						"details": "Transfers ownership of the contract to a new account (`newOwner`). Can only be called by the current owner."
					}
				},
				"version": 1
			},
			"userdoc": {
				"kind": "user",
				"methods": {
					"isFeeless(address)": {
						"notice": "Check if the specified address is feeless."
					},
					"setFeelessAddress(address,bool)": {
						"notice": "Sets whether an address is feeless."
					},
					"supportsInterface(bytes4)": {
						"notice": "Indicates whether this contract adheres to the specified interface."
					}
				},
				"version": 1
			},
			"gitCommit": "bc6005ccb14408c1b996cf6facda0642da82e682",
			"sourceName": "src/JBFeelessAddresses.sol",
			"chainId": "11155111",
			"linkReferences": {},
			"deployedLinkReferences": {}
		}
	]
}