{
	"_format": "sphinx-sol-ct-artifact-1",
	"merkleRoot": "0xeb3166bda3fcd69ca05fdf479239793e480a434f3066bc23b43dcbae1f55c908",
	"contractName": "JBFeelessAddresses",
	"address": "0xfc23a394F8029f88cFEe20129e5529fAA72cF394",
	"abi": [
		{
			"type": "constructor",
			"inputs": [
				{
					"name": "owner",
					"type": "address",
					"internalType": "address"
				}
			],
			"stateMutability": "nonpayable"
		},
		{
			"type": "function",
			"name": "isFeeless",
			"inputs": [
				{
					"name": "addr",
					"type": "address",
					"internalType": "address"
				}
			],
			"outputs": [
				{
					"name": "",
					"type": "bool",
					"internalType": "bool"
				}
			],
			"stateMutability": "view"
		},
		{
			"type": "function",
			"name": "owner",
			"inputs": [],
			"outputs": [
				{
					"name": "",
					"type": "address",
					"internalType": "address"
				}
			],
			"stateMutability": "view"
		},
		{
			"type": "function",
			"name": "renounceOwnership",
			"inputs": [],
			"outputs": [],
			"stateMutability": "nonpayable"
		},
		{
			"type": "function",
			"name": "setFeelessAddress",
			"inputs": [
				{
					"name": "addr",
					"type": "address",
					"internalType": "address"
				},
				{
					"name": "flag",
					"type": "bool",
					"internalType": "bool"
				}
			],
			"outputs": [],
			"stateMutability": "nonpayable"
		},
		{
			"type": "function",
			"name": "supportsInterface",
			"inputs": [
				{
					"name": "interfaceId",
					"type": "bytes4",
					"internalType": "bytes4"
				}
			],
			"outputs": [
				{
					"name": "",
					"type": "bool",
					"internalType": "bool"
				}
			],
			"stateMutability": "view"
		},
		{
			"type": "function",
			"name": "transferOwnership",
			"inputs": [
				{
					"name": "newOwner",
					"type": "address",
					"internalType": "address"
				}
			],
			"outputs": [],
			"stateMutability": "nonpayable"
		},
		{
			"type": "event",
			"name": "OwnershipTransferred",
			"inputs": [
				{
					"name": "previousOwner",
					"type": "address",
					"indexed": true,
					"internalType": "address"
				},
				{
					"name": "newOwner",
					"type": "address",
					"indexed": true,
					"internalType": "address"
				}
			],
			"anonymous": false
		},
		{
			"type": "event",
			"name": "SetFeelessAddress",
			"inputs": [
				{
					"name": "account",
					"type": "address",
					"indexed": true,
					"internalType": "address"
				},
				{
					"name": "isFeeless",
					"type": "bool",
					"indexed": true,
					"internalType": "bool"
				},
				{
					"name": "caller",
					"type": "address",
					"indexed": false,
					"internalType": "address"
				}
			],
			"anonymous": false
		},
		{
			"type": "error",
			"name": "OwnableInvalidOwner",
			"inputs": [
				{
					"name": "owner",
					"type": "address",
					"internalType": "address"
				}
			]
		},
		{
			"type": "error",
			"name": "OwnableUnauthorizedAccount",
			"inputs": [
				{
					"name": "account",
					"type": "address",
					"internalType": "address"
				}
			]
		}
	],
	"solcInputHash": "ca7cc2b8e77e7f12f966f059a5ca4cba",
	"args": [
		"0x1081B5AA9D9d4862A3dA4d469433FB36Ed80FA2A"
	],
	"bytecode": "0x608060405234801561001057600080fd5b5060405161045038038061045083398101604081905261002f916100be565b806001600160a01b03811661005e57604051631e4fbdf760e01b81526000600482015260240160405180910390fd5b6100678161006e565b50506100ee565b600080546001600160a01b038381166001600160a01b0319831681178455604051919092169283917f8be0079c531659141344cd1fd0a4f28419497f9722a3daafe3b4186f6b6457e09190a35050565b6000602082840312156100d057600080fd5b81516001600160a01b03811681146100e757600080fd5b9392505050565b610353806100fd6000396000f3fe608060405234801561001057600080fd5b50600436106100625760003560e01c806301ffc9a714610067578063715018a61461008f5780637258002c146100995780638da5cb5b146100ac578063ae74a1b5146100c7578063f2fde38b146100ea575b600080fd5b61007a610075366004610279565b6100fd565b60405190151581526020015b60405180910390f35b610097610134565b005b6100976100a73660046102c6565b610148565b6000546040516001600160a01b039091168152602001610086565b61007a6100d5366004610302565b60016020526000908152604090205460ff1681565b6100976100f8366004610302565b6101b9565b60006001600160e01b0319821663dc2ca19960e01b148061012e57506001600160e01b031982166301ffc9a760e01b145b92915050565b61013c6101fc565b6101466000610229565b565b6101506101fc565b6001600160a01b0382166000818152600160205260409020805460ff1916831515908117909155907fa2653e25a502c023a5830d0de847ef6f458387865b1f4f575d7594f9f2c0d71e336040516001600160a01b03909116815260200160405180910390a35050565b6101c16101fc565b6001600160a01b0381166101f057604051631e4fbdf760e01b8152600060048201526024015b60405180910390fd5b6101f981610229565b50565b6000546001600160a01b031633146101465760405163118cdaa760e01b81523360048201526024016101e7565b600080546001600160a01b038381166001600160a01b0319831681178455604051919092169283917f8be0079c531659141344cd1fd0a4f28419497f9722a3daafe3b4186f6b6457e09190a35050565b60006020828403121561028b57600080fd5b81356001600160e01b0319811681146102a357600080fd5b9392505050565b80356001600160a01b03811681146102c157600080fd5b919050565b600080604083850312156102d957600080fd5b6102e2836102aa565b9150602083013580151581146102f757600080fd5b809150509250929050565b60006020828403121561031457600080fd5b6102a3826102aa56fea264697066735822122014a8c48760d86fcc3bff2462c69f6fa907a076ea14a4d3471d602c3a64a11a7064736f6c63430008170033",
	"devdoc": {
		"kind": "dev",
		"methods": {
			"constructor": {
				"params": {
					"owner": "This contract's owner."
				}
			},
			"owner()": {
				"details": "Returns the address of the current owner."
			},
			"renounceOwnership()": {
				"details": "Leaves the contract without owner. It will not be possible to call `onlyOwner` functions. Can only be called by the current owner. NOTE: Renouncing ownership will leave the contract without an owner, thereby disabling any functionality that is only available to the owner."
			},
			"setFeelessAddress(address,bool)": {
				"details": "Can only be called by this contract's owner.",
				"params": {
					"addr": "The address to set as feeless or not feeless.",
					"flag": "Whether the address should be feeless (`true`) or not feeless (`false`)."
				}
			},
			"supportsInterface(bytes4)": {
				"details": "See {IERC165-supportsInterface}.",
				"params": {
					"interfaceId": "The ID of the interface to check for adherence to."
				},
				"returns": {
					"_0": "A flag indicating if the provided interface ID is supported."
				}
			},
			"transferOwnership(address)": {
				"details": "Transfers ownership of the contract to a new account (`newOwner`). Can only be called by the current owner."
			}
		},
		"version": 1
	},
	"userdoc": {
		"kind": "user",
		"methods": {
			"isFeeless(address)": {
				"notice": "Check if the specified address is feeless."
			},
			"setFeelessAddress(address,bool)": {
				"notice": "Sets whether an address is feeless."
			},
			"supportsInterface(bytes4)": {
				"notice": "Indicates whether this contract adheres to the specified interface."
			}
		},
		"version": 1
	},
	"gitCommit": "e6ea9467ae7d4f2046989fda11961b007525098a",
	"sourceName": "src/JBFeelessAddresses.sol",
	"chainId": "11155111",
	"linkReferences": {},
	"deployedLinkReferences": {},
	"history": [
		{
			"_format": "sphinx-sol-ct-artifact-1",
			"merkleRoot": "0x58025795c33f9e0121b492c9ea8dc31dc6803cc81b9066cd376333e802464741",
			"contractName": "JBFeelessAddresses",
			"address": "0xEe80091E7c8E7C9764Ad8ccc94F978B15d7cc841",
			"abi": [
				{
					"type": "constructor",
					"inputs": [
						{
							"name": "owner",
							"type": "address",
							"internalType": "address"
						}
					],
					"stateMutability": "nonpayable"
				},
				{
					"type": "function",
					"name": "isFeeless",
					"inputs": [
						{
							"name": "addr",
							"type": "address",
							"internalType": "address"
						}
					],
					"outputs": [
						{
							"name": "",
							"type": "bool",
							"internalType": "bool"
						}
					],
					"stateMutability": "view"
				},
				{
					"type": "function",
					"name": "owner",
					"inputs": [],
					"outputs": [
						{
							"name": "",
							"type": "address",
							"internalType": "address"
						}
					],
					"stateMutability": "view"
				},
				{
					"type": "function",
					"name": "renounceOwnership",
					"inputs": [],
					"outputs": [],
					"stateMutability": "nonpayable"
				},
				{
					"type": "function",
					"name": "setFeelessAddress",
					"inputs": [
						{
							"name": "addr",
							"type": "address",
							"internalType": "address"
						},
						{
							"name": "flag",
							"type": "bool",
							"internalType": "bool"
						}
					],
					"outputs": [],
					"stateMutability": "nonpayable"
				},
				{
					"type": "function",
					"name": "supportsInterface",
					"inputs": [
						{
							"name": "interfaceId",
							"type": "bytes4",
							"internalType": "bytes4"
						}
					],
					"outputs": [
						{
							"name": "",
							"type": "bool",
							"internalType": "bool"
						}
					],
					"stateMutability": "view"
				},
				{
					"type": "function",
					"name": "transferOwnership",
					"inputs": [
						{
							"name": "newOwner",
							"type": "address",
							"internalType": "address"
						}
					],
					"outputs": [],
					"stateMutability": "nonpayable"
				},
				{
					"type": "event",
					"name": "OwnershipTransferred",
					"inputs": [
						{
							"name": "previousOwner",
							"type": "address",
							"indexed": true,
							"internalType": "address"
						},
						{
							"name": "newOwner",
							"type": "address",
							"indexed": true,
							"internalType": "address"
						}
					],
					"anonymous": false
				},
				{
					"type": "event",
					"name": "SetFeelessAddress",
					"inputs": [
						{
							"name": "account",
							"type": "address",
							"indexed": true,
							"internalType": "address"
						},
						{
							"name": "isFeeless",
							"type": "bool",
							"indexed": true,
							"internalType": "bool"
						},
						{
							"name": "caller",
							"type": "address",
							"indexed": false,
							"internalType": "address"
						}
					],
					"anonymous": false
				},
				{
					"type": "error",
					"name": "OwnableInvalidOwner",
					"inputs": [
						{
							"name": "owner",
							"type": "address",
							"internalType": "address"
						}
					]
				},
				{
					"type": "error",
					"name": "OwnableUnauthorizedAccount",
					"inputs": [
						{
							"name": "account",
							"type": "address",
							"internalType": "address"
						}
					]
				}
			],
			"solcInputHash": "b2112d617c776ac2cceb92d11c578094",
			"receipt": {
				"blockHash": "0x2bf24714ce26de950e7b1e43566cfa923f9ca3cef0cecf7a9193e1a6543c9a76",
				"blockNumber": 5424382,
				"contractAddress": null,
				"cumulativeGasUsed": "16393579",
				"from": "0xC034550B542b83BA1De312b21d1C94a9a52B1595",
				"gasPrice": "1014514380",
				"gasUsed": "9789398",
				"hash": "0x482002e76564007450fb62fa0bb8747304817fade7f758155ccc3aabbd93c61e",
				"index": 60,
				"logs": [
					{
						"address": "0xB5E96127D417b1B3ef8438496a38A143167209c7",
						"blockHash": "0x2bf24714ce26de950e7b1e43566cfa923f9ca3cef0cecf7a9193e1a6543c9a76",
						"blockNumber": 5424382,
						"data": "0x0000000000000000000000000000000000000000000000000000000000000000",
						"index": 67,
						"topics": [
							"0x572f161235911da04685a68c06adf558fc7e4a36909dca394650e0adc19cc93d",
							"0x000000000000000000000000c034550b542b83ba1de312b21d1c94a9a52b1595",
							"0x000000000000000000000000ef1be3c049809cace5bc203bbe4ec1ab284bf75c",
							"0x6daf75799cd1798b187fd5ba7fad6ef446eee635c5906fc027f3e7704902c8f0"
						],
						"transactionHash": "0x482002e76564007450fb62fa0bb8747304817fade7f758155ccc3aabbd93c61e",
						"transactionIndex": 60
					},
					{
						"address": "0x1081B5AA9D9d4862A3dA4d469433FB36Ed80FA2A",
						"blockHash": "0x2bf24714ce26de950e7b1e43566cfa923f9ca3cef0cecf7a9193e1a6543c9a76",
						"blockNumber": 5424382,
						"data": "0x000000000000000000000000daf6226aafe296bbccbec815133386cd910ed582",
						"index": 68,
						"topics": [
							"0x4db17dd5e4732fb6da34a148104a592783ca119a1e7bb8829eba6cbadef0b511"
						],
						"transactionHash": "0x482002e76564007450fb62fa0bb8747304817fade7f758155ccc3aabbd93c61e",
						"transactionIndex": 60
					},
					{
						"address": "0x1081B5AA9D9d4862A3dA4d469433FB36Ed80FA2A",
						"blockHash": "0x2bf24714ce26de950e7b1e43566cfa923f9ca3cef0cecf7a9193e1a6543c9a76",
						"blockNumber": 5424382,
						"data": "0x",
						"index": 69,
						"topics": [
							"0x6895c13664aa4f67288b25d7a21d7aaa34916e355fb9b6fae0a139a9085becb8",
							"0x000000000000000000000000ef1be3c049809cace5bc203bbe4ec1ab284bf75c"
						],
						"transactionHash": "0x482002e76564007450fb62fa0bb8747304817fade7f758155ccc3aabbd93c61e",
						"transactionIndex": 60
					},
					{
						"address": "0xEf1Be3C049809caCe5Bc203BBe4Ec1Ab284bF75c",
						"blockHash": "0x2bf24714ce26de950e7b1e43566cfa923f9ca3cef0cecf7a9193e1a6543c9a76",
						"blockNumber": 5424382,
						"data": "0x0000000000000000000000000000000000000000000000000000000000000009",
						"index": 70,
						"topics": [
							"0xa65fb05c5808f5f389d72edeaf719ce38f4cc55c1f69ca3cbfb31c21501caa07",
							"0x58025795c33f9e0121b492c9ea8dc31dc6803cc81b9066cd376333e802464741"
						],
						"transactionHash": "0x482002e76564007450fb62fa0bb8747304817fade7f758155ccc3aabbd93c61e",
						"transactionIndex": 60
					},
					{
						"address": "0x18017cfeD48E1dC0Adc445cEF8A9e6AfFCb330DA",
						"blockHash": "0x2bf24714ce26de950e7b1e43566cfa923f9ca3cef0cecf7a9193e1a6543c9a76",
						"blockNumber": 5424382,
						"data": "0x0000000000000000000000001081b5aa9d9d4862a3da4d469433fb36ed80fa2a",
						"index": 71,
						"topics": [
							"0x11207664cc48b0fa81c8674795f1d8f642960f38d5d2d305ad813093bed85fab",
							"0x000000000000000000000000daf6226aafe296bbccbec815133386cd910ed582",
							"0x0000000000000000000000000000000000000000000000000000000000000001"
						],
						"transactionHash": "0x482002e76564007450fb62fa0bb8747304817fade7f758155ccc3aabbd93c61e",
						"transactionIndex": 60
					},
					{
						"address": "0x1081B5AA9D9d4862A3dA4d469433FB36Ed80FA2A",
						"blockHash": "0x2bf24714ce26de950e7b1e43566cfa923f9ca3cef0cecf7a9193e1a6543c9a76",
						"blockNumber": 5424382,
						"data": "0x",
						"index": 72,
						"topics": [
							"0x6895c13664aa4f67288b25d7a21d7aaa34916e355fb9b6fae0a139a9085becb8",
							"0x000000000000000000000000ef1be3c049809cace5bc203bbe4ec1ab284bf75c"
						],
						"transactionHash": "0x482002e76564007450fb62fa0bb8747304817fade7f758155ccc3aabbd93c61e",
						"transactionIndex": 60
					},
					{
						"address": "0xEf1Be3C049809caCe5Bc203BBe4Ec1Ab284bF75c",
						"blockHash": "0x2bf24714ce26de950e7b1e43566cfa923f9ca3cef0cecf7a9193e1a6543c9a76",
						"blockNumber": 5424382,
						"data": "0x000000000000000000000000000000000000000000000000000000000000000a",
						"index": 73,
						"topics": [
							"0xa65fb05c5808f5f389d72edeaf719ce38f4cc55c1f69ca3cbfb31c21501caa07",
							"0x58025795c33f9e0121b492c9ea8dc31dc6803cc81b9066cd376333e802464741"
						],
						"transactionHash": "0x482002e76564007450fb62fa0bb8747304817fade7f758155ccc3aabbd93c61e",
						"transactionIndex": 60
					},
					{
						"address": "0x18017cfeD48E1dC0Adc445cEF8A9e6AfFCb330DA",
						"blockHash": "0x2bf24714ce26de950e7b1e43566cfa923f9ca3cef0cecf7a9193e1a6543c9a76",
						"blockNumber": 5424382,
						"data": "0x",
						"index": 74,
						"topics": [
							"0x8be0079c531659141344cd1fd0a4f28419497f9722a3daafe3b4186f6b6457e0",
							"0x0000000000000000000000001081b5aa9d9d4862a3da4d469433fb36ed80fa2a",
							"0x000000000000000000000000823b92d6a4b2aed4b15675c7917c9f922ea8adad"
						],
						"transactionHash": "0x482002e76564007450fb62fa0bb8747304817fade7f758155ccc3aabbd93c61e",
						"transactionIndex": 60
					},
					{
						"address": "0x1081B5AA9D9d4862A3dA4d469433FB36Ed80FA2A",
						"blockHash": "0x2bf24714ce26de950e7b1e43566cfa923f9ca3cef0cecf7a9193e1a6543c9a76",
						"blockNumber": 5424382,
						"data": "0x",
						"index": 75,
						"topics": [
							"0x6895c13664aa4f67288b25d7a21d7aaa34916e355fb9b6fae0a139a9085becb8",
							"0x000000000000000000000000ef1be3c049809cace5bc203bbe4ec1ab284bf75c"
						],
						"transactionHash": "0x482002e76564007450fb62fa0bb8747304817fade7f758155ccc3aabbd93c61e",
						"transactionIndex": 60
					},
					{
						"address": "0xEf1Be3C049809caCe5Bc203BBe4Ec1Ab284bF75c",
						"blockHash": "0x2bf24714ce26de950e7b1e43566cfa923f9ca3cef0cecf7a9193e1a6543c9a76",
						"blockNumber": 5424382,
						"data": "0x000000000000000000000000000000000000000000000000000000000000000b",
						"index": 76,
						"topics": [
							"0xa65fb05c5808f5f389d72edeaf719ce38f4cc55c1f69ca3cbfb31c21501caa07",
							"0x58025795c33f9e0121b492c9ea8dc31dc6803cc81b9066cd376333e802464741"
						],
						"transactionHash": "0x482002e76564007450fb62fa0bb8747304817fade7f758155ccc3aabbd93c61e",
						"transactionIndex": 60
					},
					{
						"address": "0x0631183bd45c31F8645F9dCF8705951F730362E9",
						"blockHash": "0x2bf24714ce26de950e7b1e43566cfa923f9ca3cef0cecf7a9193e1a6543c9a76",
						"blockNumber": 5424382,
						"data": "0x",
						"index": 77,
						"topics": [
							"0x8be0079c531659141344cd1fd0a4f28419497f9722a3daafe3b4186f6b6457e0",
							"0x0000000000000000000000000000000000000000000000000000000000000000",
							"0x000000000000000000000000823b92d6a4b2aed4b15675c7917c9f922ea8adad"
						],
						"transactionHash": "0x482002e76564007450fb62fa0bb8747304817fade7f758155ccc3aabbd93c61e",
						"transactionIndex": 60
					},
					{
						"address": "0x1081B5AA9D9d4862A3dA4d469433FB36Ed80FA2A",
						"blockHash": "0x2bf24714ce26de950e7b1e43566cfa923f9ca3cef0cecf7a9193e1a6543c9a76",
						"blockNumber": 5424382,
						"data": "0x0000000000000000000000000631183bd45c31f8645f9dcf8705951f730362e9",
						"index": 78,
						"topics": [
							"0x4db17dd5e4732fb6da34a148104a592783ca119a1e7bb8829eba6cbadef0b511"
						],
						"transactionHash": "0x482002e76564007450fb62fa0bb8747304817fade7f758155ccc3aabbd93c61e",
						"transactionIndex": 60
					},
					{
						"address": "0x1081B5AA9D9d4862A3dA4d469433FB36Ed80FA2A",
						"blockHash": "0x2bf24714ce26de950e7b1e43566cfa923f9ca3cef0cecf7a9193e1a6543c9a76",
						"blockNumber": 5424382,
						"data": "0x",
						"index": 79,
						"topics": [
							"0x6895c13664aa4f67288b25d7a21d7aaa34916e355fb9b6fae0a139a9085becb8",
							"0x000000000000000000000000ef1be3c049809cace5bc203bbe4ec1ab284bf75c"
						],
						"transactionHash": "0x482002e76564007450fb62fa0bb8747304817fade7f758155ccc3aabbd93c61e",
						"transactionIndex": 60
					},
					{
						"address": "0xEf1Be3C049809caCe5Bc203BBe4Ec1Ab284bF75c",
						"blockHash": "0x2bf24714ce26de950e7b1e43566cfa923f9ca3cef0cecf7a9193e1a6543c9a76",
						"blockNumber": 5424382,
						"data": "0x000000000000000000000000000000000000000000000000000000000000000c",
						"index": 80,
						"topics": [
							"0xa65fb05c5808f5f389d72edeaf719ce38f4cc55c1f69ca3cbfb31c21501caa07",
							"0x58025795c33f9e0121b492c9ea8dc31dc6803cc81b9066cd376333e802464741"
						],
						"transactionHash": "0x482002e76564007450fb62fa0bb8747304817fade7f758155ccc3aabbd93c61e",
						"transactionIndex": 60
					},
					{
						"address": "0x1081B5AA9D9d4862A3dA4d469433FB36Ed80FA2A",
						"blockHash": "0x2bf24714ce26de950e7b1e43566cfa923f9ca3cef0cecf7a9193e1a6543c9a76",
						"blockNumber": 5424382,
						"data": "0x000000000000000000000000a0d811360b0d49be8d33309d6eae03d072e30312",
						"index": 81,
						"topics": [
							"0x4db17dd5e4732fb6da34a148104a592783ca119a1e7bb8829eba6cbadef0b511"
						],
						"transactionHash": "0x482002e76564007450fb62fa0bb8747304817fade7f758155ccc3aabbd93c61e",
						"transactionIndex": 60
					},
					{
						"address": "0x1081B5AA9D9d4862A3dA4d469433FB36Ed80FA2A",
						"blockHash": "0x2bf24714ce26de950e7b1e43566cfa923f9ca3cef0cecf7a9193e1a6543c9a76",
						"blockNumber": 5424382,
						"data": "0x",
						"index": 82,
						"topics": [
							"0x6895c13664aa4f67288b25d7a21d7aaa34916e355fb9b6fae0a139a9085becb8",
							"0x000000000000000000000000ef1be3c049809cace5bc203bbe4ec1ab284bf75c"
						],
						"transactionHash": "0x482002e76564007450fb62fa0bb8747304817fade7f758155ccc3aabbd93c61e",
						"transactionIndex": 60
					},
					{
						"address": "0xEf1Be3C049809caCe5Bc203BBe4Ec1Ab284bF75c",
						"blockHash": "0x2bf24714ce26de950e7b1e43566cfa923f9ca3cef0cecf7a9193e1a6543c9a76",
						"blockNumber": 5424382,
						"data": "0x000000000000000000000000000000000000000000000000000000000000000d",
						"index": 83,
						"topics": [
							"0xa65fb05c5808f5f389d72edeaf719ce38f4cc55c1f69ca3cbfb31c21501caa07",
							"0x58025795c33f9e0121b492c9ea8dc31dc6803cc81b9066cd376333e802464741"
						],
						"transactionHash": "0x482002e76564007450fb62fa0bb8747304817fade7f758155ccc3aabbd93c61e",
						"transactionIndex": 60
					},
					{
						"address": "0xEe80091E7c8E7C9764Ad8ccc94F978B15d7cc841",
						"blockHash": "0x2bf24714ce26de950e7b1e43566cfa923f9ca3cef0cecf7a9193e1a6543c9a76",
						"blockNumber": 5424382,
						"data": "0x",
						"index": 84,
						"topics": [
							"0x8be0079c531659141344cd1fd0a4f28419497f9722a3daafe3b4186f6b6457e0",
							"0x0000000000000000000000000000000000000000000000000000000000000000",
							"0x000000000000000000000000823b92d6a4b2aed4b15675c7917c9f922ea8adad"
						],
						"transactionHash": "0x482002e76564007450fb62fa0bb8747304817fade7f758155ccc3aabbd93c61e",
						"transactionIndex": 60
					},
					{
						"address": "0x1081B5AA9D9d4862A3dA4d469433FB36Ed80FA2A",
						"blockHash": "0x2bf24714ce26de950e7b1e43566cfa923f9ca3cef0cecf7a9193e1a6543c9a76",
						"blockNumber": 5424382,
						"data": "0x000000000000000000000000ee80091e7c8e7c9764ad8ccc94f978b15d7cc841",
						"index": 85,
						"topics": [
							"0x4db17dd5e4732fb6da34a148104a592783ca119a1e7bb8829eba6cbadef0b511"
						],
						"transactionHash": "0x482002e76564007450fb62fa0bb8747304817fade7f758155ccc3aabbd93c61e",
						"transactionIndex": 60
					},
					{
						"address": "0x1081B5AA9D9d4862A3dA4d469433FB36Ed80FA2A",
						"blockHash": "0x2bf24714ce26de950e7b1e43566cfa923f9ca3cef0cecf7a9193e1a6543c9a76",
						"blockNumber": 5424382,
						"data": "0x",
						"index": 86,
						"topics": [
							"0x6895c13664aa4f67288b25d7a21d7aaa34916e355fb9b6fae0a139a9085becb8",
							"0x000000000000000000000000ef1be3c049809cace5bc203bbe4ec1ab284bf75c"
						],
						"transactionHash": "0x482002e76564007450fb62fa0bb8747304817fade7f758155ccc3aabbd93c61e",
						"transactionIndex": 60
					},
					{
						"address": "0xEf1Be3C049809caCe5Bc203BBe4Ec1Ab284bF75c",
						"blockHash": "0x2bf24714ce26de950e7b1e43566cfa923f9ca3cef0cecf7a9193e1a6543c9a76",
						"blockNumber": 5424382,
						"data": "0x000000000000000000000000000000000000000000000000000000000000000e",
						"index": 87,
						"topics": [
							"0xa65fb05c5808f5f389d72edeaf719ce38f4cc55c1f69ca3cbfb31c21501caa07",
							"0x58025795c33f9e0121b492c9ea8dc31dc6803cc81b9066cd376333e802464741"
						],
						"transactionHash": "0x482002e76564007450fb62fa0bb8747304817fade7f758155ccc3aabbd93c61e",
						"transactionIndex": 60
					}
				],
				"logsBloom": "0x00000010080010008008000000080000000000000008000000800000004000000060008000000000000000000040000080000000000100000000000000040800000000000000200400000008820000000001000020040000000200000000000000020000020000000000000000000800000000100021000000000008000000400001000000000000000100800000000200000000000000000000804000000020004000081010000000000000000000020208c00000000080000000000006000000000000000000200080000008000000000000000000040000000002000060000000000000000004000000000000000200000000000000000000000000000000",
				"status": 1,
				"to": "0xB5E96127D417b1B3ef8438496a38A143167209c7"
			},
			"metadata": "{\"compiler\":{\"version\":\"0.8.23+commit.f704f362\"},\"language\":\"Solidity\",\"output\":{\"abi\":[{\"inputs\":[{\"internalType\":\"address\",\"name\":\"owner\",\"type\":\"address\"}],\"stateMutability\":\"nonpayable\",\"type\":\"constructor\"},{\"inputs\":[{\"internalType\":\"address\",\"name\":\"owner\",\"type\":\"address\"}],\"type\":\"error\",\"name\":\"OwnableInvalidOwner\"},{\"inputs\":[{\"internalType\":\"address\",\"name\":\"account\",\"type\":\"address\"}],\"type\":\"error\",\"name\":\"OwnableUnauthorizedAccount\"},{\"inputs\":[{\"internalType\":\"address\",\"name\":\"previousOwner\",\"type\":\"address\",\"indexed\":true},{\"internalType\":\"address\",\"name\":\"newOwner\",\"type\":\"address\",\"indexed\":true}],\"type\":\"event\",\"name\":\"OwnershipTransferred\",\"anonymous\":false},{\"inputs\":[{\"internalType\":\"address\",\"name\":\"account\",\"type\":\"address\",\"indexed\":true},{\"internalType\":\"bool\",\"name\":\"isFeeless\",\"type\":\"bool\",\"indexed\":true},{\"internalType\":\"address\",\"name\":\"caller\",\"type\":\"address\",\"indexed\":false}],\"type\":\"event\",\"name\":\"SetFeelessAddress\",\"anonymous\":false},{\"inputs\":[{\"internalType\":\"address\",\"name\":\"addr\",\"type\":\"address\"}],\"stateMutability\":\"view\",\"type\":\"function\",\"name\":\"isFeeless\",\"outputs\":[{\"internalType\":\"bool\",\"name\":\"\",\"type\":\"bool\"}]},{\"inputs\":[],\"stateMutability\":\"view\",\"type\":\"function\",\"name\":\"owner\",\"outputs\":[{\"internalType\":\"address\",\"name\":\"\",\"type\":\"address\"}]},{\"inputs\":[],\"stateMutability\":\"nonpayable\",\"type\":\"function\",\"name\":\"renounceOwnership\"},{\"inputs\":[{\"internalType\":\"address\",\"name\":\"addr\",\"type\":\"address\"},{\"internalType\":\"bool\",\"name\":\"flag\",\"type\":\"bool\"}],\"stateMutability\":\"nonpayable\",\"type\":\"function\",\"name\":\"setFeelessAddress\"},{\"inputs\":[{\"internalType\":\"bytes4\",\"name\":\"interfaceId\",\"type\":\"bytes4\"}],\"stateMutability\":\"view\",\"type\":\"function\",\"name\":\"supportsInterface\",\"outputs\":[{\"internalType\":\"bool\",\"name\":\"\",\"type\":\"bool\"}]},{\"inputs\":[{\"internalType\":\"address\",\"name\":\"newOwner\",\"type\":\"address\"}],\"stateMutability\":\"nonpayable\",\"type\":\"function\",\"name\":\"transferOwnership\"}],\"devdoc\":{\"kind\":\"dev\",\"methods\":{\"constructor\":{\"params\":{\"owner\":\"The address that will own this contract.\"}},\"owner()\":{\"details\":\"Returns the address of the current owner.\"},\"renounceOwnership()\":{\"details\":\"Leaves the contract without owner. It will not be possible to call `onlyOwner` functions. Can only be called by the current owner. NOTE: Renouncing ownership will leave the contract without an owner, thereby disabling any functionality that is only available to the owner.\"},\"setFeelessAddress(address,bool)\":{\"details\":\"Only the owner of this contract can set addresses as feeless or not feeless.Feeless addresses can receive payouts without incurring a fee.Feeless addresses can use the surplus allowance without incurring a fee.Feeless addresses can be the beneficary of redemptions without incurring a fee.\",\"params\":{\"addr\":\"The address to make feeless or not feeless.\",\"flag\":\"A flag indicating whether the `address` should be made feeless or not feeless.\"}},\"supportsInterface(bytes4)\":{\"details\":\"See {IERC165-supportsInterface}.\",\"params\":{\"interfaceId\":\"The ID of the interface to check for adherance to.\"},\"returns\":{\"_0\":\"A flag indicating if the provided interface ID is supported.\"}},\"transferOwnership(address)\":{\"details\":\"Transfers ownership of the contract to a new account (`newOwner`). Can only be called by the current owner.\"}},\"version\":1},\"userdoc\":{\"kind\":\"user\",\"methods\":{\"isFeeless(address)\":{\"notice\":\"Feeless addresses for this terminal.\"},\"setFeelessAddress(address,bool)\":{\"notice\":\"Sets an address as feeless or not feeless for this terminal.\"},\"supportsInterface(bytes4)\":{\"notice\":\"Indicates if this contract adheres to the specified interface.\"}},\"version\":1}},\"settings\":{\"remappings\":[\"@bananapus/=node_modules/@bananapus/\",\"@chainlink/=node_modules/@chainlink/\",\"@eth-optimism/=node_modules/@eth-optimism/\",\"@gnosis.pm/=node_modules/@gnosis.pm/\",\"@openzeppelin/=node_modules/@openzeppelin/\",\"@prb/=node_modules/@prb/\",\"@sphinx-labs/contracts/=lib/sphinx/packages/contracts/contracts/foundry/\",\"@uniswap/=node_modules/@uniswap/\",\"ds-test/=lib/forge-std/lib/ds-test/src/\",\"forge-std/=lib/forge-std/src/\",\"hardhat/=node_modules/hardhat/\",\"solmate/=node_modules/solmate/\",\"sphinx-forge-std/=node_modules/sphinx-forge-std/\",\"sphinx-solmate/=node_modules/sphinx-solmate/\",\"sphinx/=lib/sphinx/\"],\"optimizer\":{\"enabled\":true,\"runs\":200},\"metadata\":{\"bytecodeHash\":\"ipfs\"},\"compilationTarget\":{\"src/JBFeelessAddresses.sol\":\"JBFeelessAddresses\"},\"evmVersion\":\"paris\",\"libraries\":{}},\"sources\":{\"node_modules/@openzeppelin/contracts/access/Ownable.sol\":{\"keccak256\":\"0xff6d0bb2e285473e5311d9d3caacb525ae3538a80758c10649a4d61029b017bb\",\"urls\":[\"bzz-raw://8ed324d3920bb545059d66ab97d43e43ee85fd3bd52e03e401f020afb0b120f6\",\"dweb:/ipfs/QmfEckWLmZkDDcoWrkEvMWhms66xwTLff9DDhegYpvHo1a\"],\"license\":\"MIT\"},\"node_modules/@openzeppelin/contracts/utils/Context.sol\":{\"keccak256\":\"0x493033a8d1b176a037b2cc6a04dad01a5c157722049bbecf632ca876224dd4b2\",\"urls\":[\"bzz-raw://6a708e8a5bdb1011c2c381c9a5cfd8a9a956d7d0a9dc1bd8bcdaf52f76ef2f12\",\"dweb:/ipfs/Qmax9WHBnVsZP46ZxEMNRQpLQnrdE4dK8LehML1Py8FowF\"],\"license\":\"MIT\"},\"node_modules/@openzeppelin/contracts/utils/introspection/ERC165.sol\":{\"keccak256\":\"0x9e8778b14317ba9e256c30a76fd6c32b960af621987f56069e1e819c77c6a133\",\"urls\":[\"bzz-raw://1777404f1dcd0fac188e55a288724ec3c67b45288e49cc64723e95e702b49ab8\",\"dweb:/ipfs/QmZFdC626GButBApwDUvvTnUzdinevC3B24d7yyh57XkiA\"],\"license\":\"MIT\"},\"node_modules/@openzeppelin/contracts/utils/introspection/IERC165.sol\":{\"keccak256\":\"0x4296879f55019b23e135000eb36896057e7101fb7fb859c5ef690cf14643757b\",\"urls\":[\"bzz-raw://87b3541437c8c443ccd36795e56a338ed12855eec17f8da624511b8d1a7e14df\",\"dweb:/ipfs/QmeJQCtZrQjtJLr6u7ZHWeH3pBnjtLWzvRrKViAi7UZqxL\"],\"license\":\"MIT\"},\"src/JBFeelessAddresses.sol\":{\"keccak256\":\"0x860d0650289bd755ecd25b7be4b2f0bb7b8432e267da9437bb928322d3c217a7\",\"urls\":[\"bzz-raw://0fa76cec4171ad3dfadb8228773300c41068d1892926a47c0766fa37012ca9db\",\"dweb:/ipfs/QmSEbFm4kmBrVNRBgw6bmhwwPVNQxcm3dYrZhJsaxDEsVN\"],\"license\":\"MIT\"},\"src/interfaces/IJBFeelessAddresses.sol\":{\"keccak256\":\"0xe5df42cfa71c5fa41b905c122de5825df13c2aab2f9cc4cf4bafa331dd69c27e\",\"urls\":[\"bzz-raw://3773bf3b42cc57d1e4086147e52135ff1dbff4309c45ca0398f821dfaa071563\",\"dweb:/ipfs/QmXUEJssHaxYKfV33tMZGf81JTR5a5yxEVshzNus84xLuT\"],\"license\":\"MIT\"}},\"version\":1}",
			"args": [
				"0x823b92d6a4b2AED4b15675c7917c9f922ea8ADAD"
			],
			"bytecode": "0x608060405234801561001057600080fd5b5060405161045038038061045083398101604081905261002f916100be565b806001600160a01b03811661005e57604051631e4fbdf760e01b81526000600482015260240160405180910390fd5b6100678161006e565b50506100ee565b600080546001600160a01b038381166001600160a01b0319831681178455604051919092169283917f8be0079c531659141344cd1fd0a4f28419497f9722a3daafe3b4186f6b6457e09190a35050565b6000602082840312156100d057600080fd5b81516001600160a01b03811681146100e757600080fd5b9392505050565b610353806100fd6000396000f3fe608060405234801561001057600080fd5b50600436106100625760003560e01c806301ffc9a714610067578063715018a61461008f5780637258002c146100995780638da5cb5b146100ac578063ae74a1b5146100c7578063f2fde38b146100ea575b600080fd5b61007a610075366004610279565b6100fd565b60405190151581526020015b60405180910390f35b610097610134565b005b6100976100a73660046102c6565b610148565b6000546040516001600160a01b039091168152602001610086565b61007a6100d5366004610302565b60016020526000908152604090205460ff1681565b6100976100f8366004610302565b6101b9565b60006001600160e01b0319821663dc2ca19960e01b148061012e57506001600160e01b031982166301ffc9a760e01b145b92915050565b61013c6101fc565b6101466000610229565b565b6101506101fc565b6001600160a01b0382166000818152600160205260409020805460ff1916831515908117909155907fa2653e25a502c023a5830d0de847ef6f458387865b1f4f575d7594f9f2c0d71e336040516001600160a01b03909116815260200160405180910390a35050565b6101c16101fc565b6001600160a01b0381166101f057604051631e4fbdf760e01b8152600060048201526024015b60405180910390fd5b6101f981610229565b50565b6000546001600160a01b031633146101465760405163118cdaa760e01b81523360048201526024016101e7565b600080546001600160a01b038381166001600160a01b0319831681178455604051919092169283917f8be0079c531659141344cd1fd0a4f28419497f9722a3daafe3b4186f6b6457e09190a35050565b60006020828403121561028b57600080fd5b81356001600160e01b0319811681146102a357600080fd5b9392505050565b80356001600160a01b03811681146102c157600080fd5b919050565b600080604083850312156102d957600080fd5b6102e2836102aa565b9150602083013580151581146102f757600080fd5b809150509250929050565b60006020828403121561031457600080fd5b6102a3826102aa56fea26469706673582212208a2354b0c33bc389c30912e168b6230eaef57e6b7244c0375c9146ee349b47f764736f6c63430008170033",
			"deployedBytecode": "0x608060405234801561001057600080fd5b50600436106100625760003560e01c806301ffc9a714610067578063715018a61461008f5780637258002c146100995780638da5cb5b146100ac578063ae74a1b5146100c7578063f2fde38b146100ea575b600080fd5b61007a610075366004610279565b6100fd565b60405190151581526020015b60405180910390f35b610097610134565b005b6100976100a73660046102c6565b610148565b6000546040516001600160a01b039091168152602001610086565b61007a6100d5366004610302565b60016020526000908152604090205460ff1681565b6100976100f8366004610302565b6101b9565b60006001600160e01b0319821663dc2ca19960e01b148061012e57506001600160e01b031982166301ffc9a760e01b145b92915050565b61013c6101fc565b6101466000610229565b565b6101506101fc565b6001600160a01b0382166000818152600160205260409020805460ff1916831515908117909155907fa2653e25a502c023a5830d0de847ef6f458387865b1f4f575d7594f9f2c0d71e336040516001600160a01b03909116815260200160405180910390a35050565b6101c16101fc565b6001600160a01b0381166101f057604051631e4fbdf760e01b8152600060048201526024015b60405180910390fd5b6101f981610229565b50565b6000546001600160a01b031633146101465760405163118cdaa760e01b81523360048201526024016101e7565b600080546001600160a01b038381166001600160a01b0319831681178455604051919092169283917f8be0079c531659141344cd1fd0a4f28419497f9722a3daafe3b4186f6b6457e09190a35050565b60006020828403121561028b57600080fd5b81356001600160e01b0319811681146102a357600080fd5b9392505050565b80356001600160a01b03811681146102c157600080fd5b919050565b600080604083850312156102d957600080fd5b6102e2836102aa565b9150602083013580151581146102f757600080fd5b809150509250929050565b60006020828403121561031457600080fd5b6102a3826102aa56fea26469706673582212208a2354b0c33bc389c30912e168b6230eaef57e6b7244c0375c9146ee349b47f764736f6c63430008170033",
			"devdoc": {
				"kind": "dev",
				"methods": {
					"constructor": {
						"params": {
							"owner": "The address that will own this contract."
						}
					},
					"owner()": {
						"details": "Returns the address of the current owner."
					},
					"renounceOwnership()": {
						"details": "Leaves the contract without owner. It will not be possible to call `onlyOwner` functions. Can only be called by the current owner. NOTE: Renouncing ownership will leave the contract without an owner, thereby disabling any functionality that is only available to the owner."
					},
					"setFeelessAddress(address,bool)": {
						"details": "Only the owner of this contract can set addresses as feeless or not feeless.Feeless addresses can receive payouts without incurring a fee.Feeless addresses can use the surplus allowance without incurring a fee.Feeless addresses can be the beneficary of redemptions without incurring a fee.",
						"params": {
							"addr": "The address to make feeless or not feeless.",
							"flag": "A flag indicating whether the `address` should be made feeless or not feeless."
						}
					},
					"supportsInterface(bytes4)": {
						"details": "See {IERC165-supportsInterface}.",
						"params": {
							"interfaceId": "The ID of the interface to check for adherance to."
						},
						"returns": {
							"_0": "A flag indicating if the provided interface ID is supported."
						}
					},
					"transferOwnership(address)": {
						"details": "Transfers ownership of the contract to a new account (`newOwner`). Can only be called by the current owner."
					}
				},
				"version": 1
			},
			"userdoc": {
				"kind": "user",
				"methods": {
					"isFeeless(address)": {
						"notice": "Feeless addresses for this terminal."
					},
					"setFeelessAddress(address,bool)": {
						"notice": "Sets an address as feeless or not feeless for this terminal."
					},
					"supportsInterface(bytes4)": {
						"notice": "Indicates if this contract adheres to the specified interface."
					}
				},
				"version": 1
			},
			"gitCommit": "b03f34d98eacd4484804213a3ba52efcdbe9107e",
			"sourceName": "src/JBFeelessAddresses.sol",
			"chainId": "11155111",
			"linkReferences": {},
			"deployedLinkReferences": {}
		}
	]
}