{
	"format": "sphinx-sol-ct-artifact-1",
	"merkleRoot": "0x4742494b19c99572462a9efb4b9b72ca88e91637671854bd9440155743947131",
	"address": "0xef8b4a9e02f8364bb1971497423fd56aed3ff834",
	"sourceName": "src/periphery/JBMatchingPriceFeed.sol",
	"contractName": "JBMatchingPriceFeed",
	"chainId": "0xaa36a7",
	"abi": [
		{
			"inputs": [],
			"stateMutability": "nonpayable",
			"type": "constructor"
		},
		{
			"inputs": [
				{
					"internalType": "uint256",
					"name": "decimals",
					"type": "uint256"
				}
			],
			"name": "currentUnitPrice",
			"outputs": [
				{
					"internalType": "uint256",
					"name": "",
					"type": "uint256"
				}
			],
			"stateMutability": "view",
			"type": "function"
		}
	],
	"args": [],
	"solcInputHash": "5d51894f92a28e136c3e0b602172e6f6",
	"bytecode": "0x608060405234801561001057600080fd5b506101c4806100206000396000f3fe608060405234801561001057600080fd5b506004361061002b5760003560e01c8063d3f5c15f14610030575b600080fd5b61004361003e366004610068565b610055565b60405190815260200160405180910390f35b600061006282600a61017b565b92915050565b60006020828403121561007a57600080fd5b5035919050565b634e487b7160e01b600052601160045260246000fd5b600181815b808511156100d25781600019048211156100b8576100b8610081565b808516156100c557918102915b93841c939080029061009c565b509250929050565b6000826100e957506001610062565b816100f657506000610062565b816001811461010c576002811461011657610132565b6001915050610062565b60ff84111561012757610127610081565b50506001821b610062565b5060208310610133831016604e8410600b8410161715610155575081810a610062565b61015f8383610097565b806000190482111561017357610173610081565b029392505050565b600061018783836100da565b939250505056fea264697066735822122002c6c95b2d36fd07a6c7a97fb309f408c12de6c80d98f1b02090e54960777ed664736f6c63430008170033",
	"gitCommit": "c664e5b34db8181e8ee22c8a07c22dc687da5623"
}