{
	"_format": "sphinx-sol-ct-artifact-1",
	"merkleRoot": "0x7bd9f2c1196de189f5c3cc49509da51a5c3d19c2ccc24e5ab4f96f008debc40c",
	"contractName": "JBProjects",
	"address": "0x0739FE09B1f659856c3E29919BbaB6F91A884398",
	"abi": [
		{
			"type": "constructor",
			"inputs": [
				{
					"name": "owner",
					"type": "address",
					"internalType": "address"
				},
				{
					"name": "feeProjectOwner",
					"type": "address",
					"internalType": "address"
				}
			],
			"stateMutability": "nonpayable"
		},
		{
			"type": "function",
			"name": "approve",
			"inputs": [
				{
					"name": "to",
					"type": "address",
					"internalType": "address"
				},
				{
					"name": "tokenId",
					"type": "uint256",
					"internalType": "uint256"
				}
			],
			"outputs": [],
			"stateMutability": "nonpayable"
		},
		{
			"type": "function",
			"name": "balanceOf",
			"inputs": [
				{
					"name": "owner",
					"type": "address",
					"internalType": "address"
				}
			],
			"outputs": [
				{
					"name": "",
					"type": "uint256",
					"internalType": "uint256"
				}
			],
			"stateMutability": "view"
		},
		{
			"type": "function",
			"name": "count",
			"inputs": [],
			"outputs": [
				{
					"name": "",
					"type": "uint256",
					"internalType": "uint256"
				}
			],
			"stateMutability": "view"
		},
		{
			"type": "function",
			"name": "createFor",
			"inputs": [
				{
					"name": "owner",
					"type": "address",
					"internalType": "address"
				}
			],
			"outputs": [
				{
					"name": "projectId",
					"type": "uint256",
					"internalType": "uint256"
				}
			],
			"stateMutability": "nonpayable"
		},
		{
			"type": "function",
			"name": "getApproved",
			"inputs": [
				{
					"name": "tokenId",
					"type": "uint256",
					"internalType": "uint256"
				}
			],
			"outputs": [
				{
					"name": "",
					"type": "address",
					"internalType": "address"
				}
			],
			"stateMutability": "view"
		},
		{
			"type": "function",
			"name": "isApprovedForAll",
			"inputs": [
				{
					"name": "owner",
					"type": "address",
					"internalType": "address"
				},
				{
					"name": "operator",
					"type": "address",
					"internalType": "address"
				}
			],
			"outputs": [
				{
					"name": "",
					"type": "bool",
					"internalType": "bool"
				}
			],
			"stateMutability": "view"
		},
		{
			"type": "function",
			"name": "name",
			"inputs": [],
			"outputs": [
				{
					"name": "",
					"type": "string",
					"internalType": "string"
				}
			],
			"stateMutability": "view"
		},
		{
			"type": "function",
			"name": "owner",
			"inputs": [],
			"outputs": [
				{
					"name": "",
					"type": "address",
					"internalType": "address"
				}
			],
			"stateMutability": "view"
		},
		{
			"type": "function",
			"name": "ownerOf",
			"inputs": [
				{
					"name": "tokenId",
					"type": "uint256",
					"internalType": "uint256"
				}
			],
			"outputs": [
				{
					"name": "",
					"type": "address",
					"internalType": "address"
				}
			],
			"stateMutability": "view"
		},
		{
			"type": "function",
			"name": "renounceOwnership",
			"inputs": [],
			"outputs": [],
			"stateMutability": "nonpayable"
		},
		{
			"type": "function",
			"name": "safeTransferFrom",
			"inputs": [
				{
					"name": "from",
					"type": "address",
					"internalType": "address"
				},
				{
					"name": "to",
					"type": "address",
					"internalType": "address"
				},
				{
					"name": "tokenId",
					"type": "uint256",
					"internalType": "uint256"
				}
			],
			"outputs": [],
			"stateMutability": "nonpayable"
		},
		{
			"type": "function",
			"name": "safeTransferFrom",
			"inputs": [
				{
					"name": "from",
					"type": "address",
					"internalType": "address"
				},
				{
					"name": "to",
					"type": "address",
					"internalType": "address"
				},
				{
					"name": "tokenId",
					"type": "uint256",
					"internalType": "uint256"
				},
				{
					"name": "data",
					"type": "bytes",
					"internalType": "bytes"
				}
			],
			"outputs": [],
			"stateMutability": "nonpayable"
		},
		{
			"type": "function",
			"name": "setApprovalForAll",
			"inputs": [
				{
					"name": "operator",
					"type": "address",
					"internalType": "address"
				},
				{
					"name": "approved",
					"type": "bool",
					"internalType": "bool"
				}
			],
			"outputs": [],
			"stateMutability": "nonpayable"
		},
		{
			"type": "function",
			"name": "setTokenUriResolver",
			"inputs": [
				{
					"name": "newResolver",
					"type": "address",
					"internalType": "contract IJBTokenUriResolver"
				}
			],
			"outputs": [],
			"stateMutability": "nonpayable"
		},
		{
			"type": "function",
			"name": "supportsInterface",
			"inputs": [
				{
					"name": "interfaceId",
					"type": "bytes4",
					"internalType": "bytes4"
				}
			],
			"outputs": [
				{
					"name": "",
					"type": "bool",
					"internalType": "bool"
				}
			],
			"stateMutability": "view"
		},
		{
			"type": "function",
			"name": "symbol",
			"inputs": [],
			"outputs": [
				{
					"name": "",
					"type": "string",
					"internalType": "string"
				}
			],
			"stateMutability": "view"
		},
		{
			"type": "function",
			"name": "tokenURI",
			"inputs": [
				{
					"name": "projectId",
					"type": "uint256",
					"internalType": "uint256"
				}
			],
			"outputs": [
				{
					"name": "",
					"type": "string",
					"internalType": "string"
				}
			],
			"stateMutability": "view"
		},
		{
			"type": "function",
			"name": "tokenUriResolver",
			"inputs": [],
			"outputs": [
				{
					"name": "",
					"type": "address",
					"internalType": "contract IJBTokenUriResolver"
				}
			],
			"stateMutability": "view"
		},
		{
			"type": "function",
			"name": "transferFrom",
			"inputs": [
				{
					"name": "from",
					"type": "address",
					"internalType": "address"
				},
				{
					"name": "to",
					"type": "address",
					"internalType": "address"
				},
				{
					"name": "tokenId",
					"type": "uint256",
					"internalType": "uint256"
				}
			],
			"outputs": [],
			"stateMutability": "nonpayable"
		},
		{
			"type": "function",
			"name": "transferOwnership",
			"inputs": [
				{
					"name": "newOwner",
					"type": "address",
					"internalType": "address"
				}
			],
			"outputs": [],
			"stateMutability": "nonpayable"
		},
		{
			"type": "event",
			"name": "Approval",
			"inputs": [
				{
					"name": "owner",
					"type": "address",
					"indexed": true,
					"internalType": "address"
				},
				{
					"name": "approved",
					"type": "address",
					"indexed": true,
					"internalType": "address"
				},
				{
					"name": "tokenId",
					"type": "uint256",
					"indexed": true,
					"internalType": "uint256"
				}
			],
			"anonymous": false
		},
		{
			"type": "event",
			"name": "ApprovalForAll",
			"inputs": [
				{
					"name": "owner",
					"type": "address",
					"indexed": true,
					"internalType": "address"
				},
				{
					"name": "operator",
					"type": "address",
					"indexed": true,
					"internalType": "address"
				},
				{
					"name": "approved",
					"type": "bool",
					"indexed": false,
					"internalType": "bool"
				}
			],
			"anonymous": false
		},
		{
			"type": "event",
			"name": "Create",
			"inputs": [
				{
					"name": "projectId",
					"type": "uint256",
					"indexed": true,
					"internalType": "uint256"
				},
				{
					"name": "owner",
					"type": "address",
					"indexed": true,
					"internalType": "address"
				},
				{
					"name": "caller",
					"type": "address",
					"indexed": false,
					"internalType": "address"
				}
			],
			"anonymous": false
		},
		{
			"type": "event",
			"name": "OwnershipTransferred",
			"inputs": [
				{
					"name": "previousOwner",
					"type": "address",
					"indexed": true,
					"internalType": "address"
				},
				{
					"name": "newOwner",
					"type": "address",
					"indexed": true,
					"internalType": "address"
				}
			],
			"anonymous": false
		},
		{
			"type": "event",
			"name": "SetTokenUriResolver",
			"inputs": [
				{
					"name": "resolver",
					"type": "address",
					"indexed": true,
					"internalType": "contract IJBTokenUriResolver"
				},
				{
					"name": "caller",
					"type": "address",
					"indexed": false,
					"internalType": "address"
				}
			],
			"anonymous": false
		},
		{
			"type": "event",
			"name": "Transfer",
			"inputs": [
				{
					"name": "from",
					"type": "address",
					"indexed": true,
					"internalType": "address"
				},
				{
					"name": "to",
					"type": "address",
					"indexed": true,
					"internalType": "address"
				},
				{
					"name": "tokenId",
					"type": "uint256",
					"indexed": true,
					"internalType": "uint256"
				}
			],
			"anonymous": false
		},
		{
			"type": "error",
			"name": "ERC721IncorrectOwner",
			"inputs": [
				{
					"name": "sender",
					"type": "address",
					"internalType": "address"
				},
				{
					"name": "tokenId",
					"type": "uint256",
					"internalType": "uint256"
				},
				{
					"name": "owner",
					"type": "address",
					"internalType": "address"
				}
			]
		},
		{
			"type": "error",
			"name": "ERC721InsufficientApproval",
			"inputs": [
				{
					"name": "operator",
					"type": "address",
					"internalType": "address"
				},
				{
					"name": "tokenId",
					"type": "uint256",
					"internalType": "uint256"
				}
			]
		},
		{
			"type": "error",
			"name": "ERC721InvalidApprover",
			"inputs": [
				{
					"name": "approver",
					"type": "address",
					"internalType": "address"
				}
			]
		},
		{
			"type": "error",
			"name": "ERC721InvalidOperator",
			"inputs": [
				{
					"name": "operator",
					"type": "address",
					"internalType": "address"
				}
			]
		},
		{
			"type": "error",
			"name": "ERC721InvalidOwner",
			"inputs": [
				{
					"name": "owner",
					"type": "address",
					"internalType": "address"
				}
			]
		},
		{
			"type": "error",
			"name": "ERC721InvalidReceiver",
			"inputs": [
				{
					"name": "receiver",
					"type": "address",
					"internalType": "address"
				}
			]
		},
		{
			"type": "error",
			"name": "ERC721InvalidSender",
			"inputs": [
				{
					"name": "sender",
					"type": "address",
					"internalType": "address"
				}
			]
		},
		{
			"type": "error",
			"name": "ERC721NonexistentToken",
			"inputs": [
				{
					"name": "tokenId",
					"type": "uint256",
					"internalType": "uint256"
				}
			]
		},
		{
			"type": "error",
			"name": "OwnableInvalidOwner",
			"inputs": [
				{
					"name": "owner",
					"type": "address",
					"internalType": "address"
				}
			]
		},
		{
			"type": "error",
			"name": "OwnableUnauthorizedAccount",
			"inputs": [
				{
					"name": "account",
					"type": "address",
					"internalType": "address"
				}
			]
		}
	],
	"solcInputHash": "1da298823f858e48974af7472fc9a65b",
	"args": [
		"0x1081B5AA9D9d4862A3dA4d469433FB36Ed80FA2A",
		"0x1081B5AA9D9d4862A3dA4d469433FB36Ed80FA2A"
	],
	"bytecode": "0x608060405260006007553480156200001657600080fd5b5060405162001b1538038062001b15833981016040819052620000399162000733565b81604051806040016040528060118152602001704a75696365626f782050726f6a6563747360781b81525060405180604001604052806008815260200167094aa92868a849eb60c31b815250816000908162000096919062000811565b506001620000a5828262000811565b5050506001600160a01b038116620000d857604051631e4fbdf760e01b8152600060048201526024015b60405180910390fd5b620000e38162000109565b506001600160a01b038116156200010157620000ff816200015b565b505b5050620009ac565b600680546001600160a01b038381166001600160a01b0319831681179093556040519116919082907f8be0079c531659141344cd1fd0a4f28419497f9722a3daafe3b4186f6b6457e090600090a35050565b60006007600081546200016e90620008dd565b91829055509050620001818282620001ce565b6001600160a01b038216817f365b3162cd780731fc55a794b59494d472bc2af701007f581843a70673814698336040516001600160a01b03909116815260200160405180910390a3919050565b620001f0828260405180602001604052806000815250620001f460201b60201c565b5050565b62000200838362000214565b6200020f60008484846200027e565b505050565b6001600160a01b0382166200024057604051633250574960e11b815260006004820152602401620000cf565b60006200024f838383620003b5565b90506001600160a01b038116156200020f576040516339e3563760e11b815260006004820152602401620000cf565b6001600160a01b0383163b15620003af57604051630a85bd0160e11b81526001600160a01b0384169063150b7a0290620002c390339088908790879060040162000905565b6020604051808303816000875af192505050801562000301575060408051601f3d908101601f19168201909252620002fe9181019062000979565b60015b6200036f573d80801562000332576040519150601f19603f3d011682016040523d82523d6000602084013e62000337565b606091505b5080516000036200036757604051633250574960e11b81526001600160a01b0385166004820152602401620000cf565b805181602001fd5b6001600160e01b03198116630a85bd0160e11b14620003ad57604051633250574960e11b81526001600160a01b0385166004820152602401620000cf565b505b50505050565b6000828152600260205260408120546001600160a01b0390811690831615620003e557620003e5818486620004b4565b6001600160a01b0381161562000425576200040460008581806200051e565b6001600160a01b038116600090815260036020526040902080546000190190555b6001600160a01b0385161562000455576001600160a01b0385166000908152600360205260409020805460010190555b60008481526002602052604080822080546001600160a01b0319166001600160a01b0389811691821790925591518793918516917fddf252ad1be2c89b69c2b068fc378daa952ba7f163c4a11628f55a4df523b3ef91a4949350505050565b620004c18383836200064c565b6200020f576001600160a01b038316620004f257604051637e27328960e01b815260048101829052602401620000cf565b60405163177e802f60e01b81526001600160a01b038316600482015260248101829052604401620000cf565b80806200053357506001600160a01b03821615155b156200061c5760006200054684620006d5565b90506001600160a01b03831615801590620005735750826001600160a01b0316816001600160a01b031614155b8015620005a657506001600160a01b0380821660009081526005602090815260408083209387168352929052205460ff16155b15620005d15760405163a9fbf51f60e01b81526001600160a01b0384166004820152602401620000cf565b81156200061a5783856001600160a01b0316826001600160a01b03167f8c5be1e5ebec7d5bd14f71427d1e84f3dd0314c0f7b2291e5b200ac8c7c3b92560405160405180910390a45b505b5050600090815260046020526040902080546001600160a01b0319166001600160a01b0392909216919091179055565b60006001600160a01b03831615801590620006cd5750826001600160a01b0316846001600160a01b03161480620006a857506001600160a01b0380851660009081526005602090815260408083209387168352929052205460ff165b80620006cd57506000828152600460205260409020546001600160a01b038481169116145b949350505050565b6000818152600260205260408120546001600160a01b0316806200071057604051637e27328960e01b815260048101849052602401620000cf565b92915050565b80516001600160a01b03811681146200072e57600080fd5b919050565b600080604083850312156200074757600080fd5b620007528362000716565b9150620007626020840162000716565b90509250929050565b634e487b7160e01b600052604160045260246000fd5b600181811c908216806200079657607f821691505b602082108103620007b757634e487b7160e01b600052602260045260246000fd5b50919050565b601f8211156200020f576000816000526020600020601f850160051c81016020861015620007e85750805b601f850160051c820191505b818110156200080957828155600101620007f4565b505050505050565b81516001600160401b038111156200082d576200082d6200076b565b62000845816200083e845462000781565b84620007bd565b602080601f8311600181146200087d5760008415620008645750858301515b600019600386901b1c1916600185901b17855562000809565b600085815260208120601f198616915b82811015620008ae578886015182559484019460019091019084016200088d565b5085821015620008cd5787850151600019600388901b60f8161c191681555b5050505050600190811b01905550565b600060018201620008fe57634e487b7160e01b600052601160045260246000fd5b5060010190565b600060018060a01b03808716835260208187166020850152856040850152608060608501528451915081608085015260005b82811015620009555785810182015185820160a00152810162000937565b5050600060a0828501015260a0601f19601f83011684010191505095945050505050565b6000602082840312156200098c57600080fd5b81516001600160e01b031981168114620009a557600080fd5b9392505050565b61115980620009bc6000396000f3fe608060405234801561001057600080fd5b506004361061012c5760003560e01c8063715018a6116100ad578063c071588811610071578063c07158881461026b578063c87b56dd1461027e578063e131fc0c14610291578063e985e9c5146102a4578063f2fde38b146102b757600080fd5b8063715018a6146102245780638da5cb5b1461022c57806395d89b411461023d578063a22cb46514610245578063b88d4fde1461025857600080fd5b806323b872dd116100f457806323b872dd146101c55780632407497e146101d857806342842e0e146101eb5780636352211e146101fe57806370a082311461021157600080fd5b806301ffc9a71461013157806306661abd1461015957806306fdde0314610170578063081812fc14610185578063095ea7b3146101b0575b600080fd5b61014461013f366004610d2f565b6102ca565b60405190151581526020015b60405180910390f35b61016260075481565b604051908152602001610150565b6101786102f5565b6040516101509190610d9c565b610198610193366004610daf565b610387565b6040516001600160a01b039091168152602001610150565b6101c36101be366004610ddd565b6103b0565b005b6101c36101d3366004610e09565b6103bf565b6101c36101e6366004610e4a565b61044f565b6101c36101f9366004610e09565b6104ac565b61019861020c366004610daf565b6104cc565b61016261021f366004610e4a565b6104d7565b6101c361051f565b6006546001600160a01b0316610198565b610178610533565b6101c3610253366004610e67565b610542565b6101c3610266366004610f14565b61054d565b610162610279366004610e4a565b610564565b61017861028c366004610daf565b6105d3565b600854610198906001600160a01b031681565b6101446102b2366004610fc3565b610671565b6101c36102c5366004610e4a565b61069f565b60006001600160e01b03198216630321f74760e01b14806102ef57506102ef826106dd565b92915050565b60606000805461030490610ff1565b80601f016020809104026020016040519081016040528092919081815260200182805461033090610ff1565b801561037d5780601f106103525761010080835404028352916020019161037d565b820191906000526020600020905b81548152906001019060200180831161036057829003601f168201915b5050505050905090565b60006103928261072d565b506000828152600460205260409020546001600160a01b03166102ef565b6103bb828233610766565b5050565b6001600160a01b0382166103ee57604051633250574960e11b8152600060048201526024015b60405180910390fd5b60006103fb838333610773565b9050836001600160a01b0316816001600160a01b031614610449576040516364283d7b60e01b81526001600160a01b03808616600483015260248201849052821660448201526064016103e5565b50505050565b61045761086c565b600880546001600160a01b0383166001600160a01b031990911681179091556040805133815290517fe7784d93cfbfa4408e19577e6cc0436f4dbb51214b70e100905dfce9def88c169181900360200190a250565b6104c78383836040518060200160405280600081525061054d565b505050565b60006102ef8261072d565b60006001600160a01b038216610503576040516322718ad960e21b8152600060048201526024016103e5565b506001600160a01b031660009081526003602052604090205490565b61052761086c565b6105316000610899565b565b60606001805461030490610ff1565b6103bb3383836108eb565b6105588484846103bf565b6104498484848461098a565b60006007600081546105759061102b565b918290555090506105868282610ab3565b6001600160a01b038216817f365b3162cd780731fc55a794b59494d472bc2af701007f581843a70673814698336040516001600160a01b03909116815260200160405180910390a3919050565b6008546060906001600160a01b0316806105fd575050604080516020810190915260008152919050565b604051636d02a25560e11b8152600481018490526001600160a01b0382169063da0544aa90602401600060405180830381865afa158015610642573d6000803e3d6000fd5b505050506040513d6000823e601f3d908101601f1916820160405261066a9190810190611052565b9392505050565b6001600160a01b03918216600090815260056020908152604080832093909416825291909152205460ff1690565b6106a761086c565b6001600160a01b0381166106d157604051631e4fbdf760e01b8152600060048201526024016103e5565b6106da81610899565b50565b60006001600160e01b031982166380ac58cd60e01b148061070e57506001600160e01b03198216635b5e139f60e01b145b806102ef57506301ffc9a760e01b6001600160e01b03198316146102ef565b6000818152600260205260408120546001600160a01b0316806102ef57604051637e27328960e01b8152600481018490526024016103e5565b6104c78383836001610acd565b6000828152600260205260408120546001600160a01b03908116908316156107a0576107a0818486610bd3565b6001600160a01b038116156107de576107bd600085600080610acd565b6001600160a01b038116600090815260036020526040902080546000190190555b6001600160a01b0385161561080d576001600160a01b0385166000908152600360205260409020805460010190555b60008481526002602052604080822080546001600160a01b0319166001600160a01b0389811691821790925591518793918516917fddf252ad1be2c89b69c2b068fc378daa952ba7f163c4a11628f55a4df523b3ef91a4949350505050565b6006546001600160a01b031633146105315760405163118cdaa760e01b81523360048201526024016103e5565b600680546001600160a01b038381166001600160a01b0319831681179093556040519116919082907f8be0079c531659141344cd1fd0a4f28419497f9722a3daafe3b4186f6b6457e090600090a35050565b6001600160a01b03821661091d57604051630b61174360e31b81526001600160a01b03831660048201526024016103e5565b6001600160a01b03838116600081815260056020908152604080832094871680845294825291829020805460ff191686151590811790915591519182527f17307eab39ab6107e8899845ad3d59bd9653f200f220920489ca2b5937696c31910160405180910390a3505050565b6001600160a01b0383163b1561044957604051630a85bd0160e11b81526001600160a01b0384169063150b7a02906109cc9033908890879087906004016110c9565b6020604051808303816000875af1925050508015610a07575060408051601f3d908101601f19168201909252610a0491810190611106565b60015b610a70573d808015610a35576040519150601f19603f3d011682016040523d82523d6000602084013e610a3a565b606091505b508051600003610a6857604051633250574960e11b81526001600160a01b03851660048201526024016103e5565b805181602001fd5b6001600160e01b03198116630a85bd0160e11b14610aac57604051633250574960e11b81526001600160a01b03851660048201526024016103e5565b5050505050565b6103bb828260405180602001604052806000815250610c37565b8080610ae157506001600160a01b03821615155b15610ba3576000610af18461072d565b90506001600160a01b03831615801590610b1d5750826001600160a01b0316816001600160a01b031614155b8015610b305750610b2e8184610671565b155b15610b595760405163a9fbf51f60e01b81526001600160a01b03841660048201526024016103e5565b8115610ba15783856001600160a01b0316826001600160a01b03167f8c5be1e5ebec7d5bd14f71427d1e84f3dd0314c0f7b2291e5b200ac8c7c3b92560405160405180910390a45b505b5050600090815260046020526040902080546001600160a01b0319166001600160a01b0392909216919091179055565b610bde838383610c4e565b6104c7576001600160a01b038316610c0c57604051637e27328960e01b8152600481018290526024016103e5565b60405163177e802f60e01b81526001600160a01b0383166004820152602481018290526044016103e5565b610c418383610cb4565b6104c7600084848461098a565b60006001600160a01b03831615801590610cac5750826001600160a01b0316846001600160a01b03161480610c885750610c888484610671565b80610cac57506000828152600460205260409020546001600160a01b038481169116145b949350505050565b6001600160a01b038216610cde57604051633250574960e11b8152600060048201526024016103e5565b6000610cec83836000610773565b90506001600160a01b038116156104c7576040516339e3563760e11b8152600060048201526024016103e5565b6001600160e01b0319811681146106da57600080fd5b600060208284031215610d4157600080fd5b813561066a81610d19565b60005b83811015610d67578181015183820152602001610d4f565b50506000910152565b60008151808452610d88816020860160208601610d4c565b601f01601f19169290920160200192915050565b60208152600061066a6020830184610d70565b600060208284031215610dc157600080fd5b5035919050565b6001600160a01b03811681146106da57600080fd5b60008060408385031215610df057600080fd5b8235610dfb81610dc8565b946020939093013593505050565b600080600060608486031215610e1e57600080fd5b8335610e2981610dc8565b92506020840135610e3981610dc8565b929592945050506040919091013590565b600060208284031215610e5c57600080fd5b813561066a81610dc8565b60008060408385031215610e7a57600080fd5b8235610e8581610dc8565b915060208301358015158114610e9a57600080fd5b809150509250929050565b634e487b7160e01b600052604160045260246000fd5b604051601f8201601f1916810167ffffffffffffffff81118282101715610ee457610ee4610ea5565b604052919050565b600067ffffffffffffffff821115610f0657610f06610ea5565b50601f01601f191660200190565b60008060008060808587031215610f2a57600080fd5b8435610f3581610dc8565b93506020850135610f4581610dc8565b925060408501359150606085013567ffffffffffffffff811115610f6857600080fd5b8501601f81018713610f7957600080fd5b8035610f8c610f8782610eec565b610ebb565b818152886020838501011115610fa157600080fd5b8160208401602083013760006020838301015280935050505092959194509250565b60008060408385031215610fd657600080fd5b8235610fe181610dc8565b91506020830135610e9a81610dc8565b600181811c9082168061100557607f821691505b60208210810361102557634e487b7160e01b600052602260045260246000fd5b50919050565b60006001820161104b57634e487b7160e01b600052601160045260246000fd5b5060010190565b60006020828403121561106457600080fd5b815167ffffffffffffffff81111561107b57600080fd5b8201601f8101841361108c57600080fd5b805161109a610f8782610eec565b8181528560208385010111156110af57600080fd5b6110c0826020830160208601610d4c565b95945050505050565b6001600160a01b03858116825284166020820152604081018390526080606082018190526000906110fc90830184610d70565b9695505050505050565b60006020828403121561111857600080fd5b815161066a81610d1956fea26469706673582212203e83cf26c373cd4957825511c27ef6991daa1da003688f7fabe9731b27c2fa9464736f6c63430008170033",
	"devdoc": {
		"kind": "dev",
		"methods": {
			"approve(address,uint256)": {
				"details": "See {IERC721-approve}."
			},
			"balanceOf(address)": {
				"details": "See {IERC721-balanceOf}."
			},
			"constructor": {
				"params": {
					"feeProjectOwner": "The address that will receive the fee-project. If `address(0)` the fee-project will not be minted.",
					"owner": "The owner of the contract who can set metadata."
				}
			},
			"createFor(address)": {
				"details": "Anyone can create a project on an owner's behalf.",
				"params": {
					"owner": "The address that will be the owner of the project."
				},
				"returns": {
					"projectId": "The token ID of the newly created project."
				}
			},
			"getApproved(uint256)": {
				"details": "See {IERC721-getApproved}."
			},
			"isApprovedForAll(address,address)": {
				"details": "See {IERC721-isApprovedForAll}."
			},
			"name()": {
				"details": "See {IERC721Metadata-name}."
			},
			"owner()": {
				"details": "Returns the address of the current owner."
			},
			"ownerOf(uint256)": {
				"details": "See {IERC721-ownerOf}."
			},
			"renounceOwnership()": {
				"details": "Leaves the contract without owner. It will not be possible to call `onlyOwner` functions. Can only be called by the current owner. NOTE: Renouncing ownership will leave the contract without an owner, thereby disabling any functionality that is only available to the owner."
			},
			"safeTransferFrom(address,address,uint256)": {
				"details": "See {IERC721-safeTransferFrom}."
			},
			"safeTransferFrom(address,address,uint256,bytes)": {
				"details": "See {IERC721-safeTransferFrom}."
			},
			"setApprovalForAll(address,bool)": {
				"details": "See {IERC721-setApprovalForAll}."
			},
			"setTokenUriResolver(address)": {
				"params": {
					"newResolver": "The address of the new resolver."
				}
			},
			"supportsInterface(bytes4)": {
				"details": "See {IERC165-supportsInterface}.",
				"params": {
					"interfaceId": "The ID of the interface to check for adherence to."
				},
				"returns": {
					"_0": "A flag indicating if the provided interface ID is supported."
				}
			},
			"symbol()": {
				"details": "See {IERC721Metadata-symbol}."
			},
			"tokenURI(uint256)": {
				"params": {
					"projectId": "The ID of the project to get a URI of."
				},
				"returns": {
					"_0": "The token URI to use for the provided `projectId`."
				}
			},
			"transferFrom(address,address,uint256)": {
				"details": "See {IERC721-transferFrom}."
			},
			"transferOwnership(address)": {
				"details": "Transfers ownership of the contract to a new account (`newOwner`). Can only be called by the current owner."
			}
		},
		"version": 1
	},
	"userdoc": {
		"kind": "user",
		"methods": {
			"count()": {
				"notice": "The number of projects that have been created using this contract."
			},
			"createFor(address)": {
				"notice": "Create a new project for the specified owner, which mints an NFT (ERC-721) into their wallet."
			},
			"setTokenUriResolver(address)": {
				"notice": "Sets the address of the resolver used to retrieve the tokenURI of projects."
			},
			"supportsInterface(bytes4)": {
				"notice": "Indicates whether this contract adheres to the specified interface."
			},
			"tokenURI(uint256)": {
				"notice": "Returns the URI where the ERC-721 standard JSON of a project is hosted."
			},
			"tokenUriResolver()": {
				"notice": "The contract resolving each project ID to its ERC721 URI."
			}
		},
		"version": 1
	},
	"gitCommit": "774c5cf064c93d6e7ed94e8a207edc157619a527",
	"sourceName": "src/JBProjects.sol",
	"chainId": "11155111",
	"linkReferences": {},
	"deployedLinkReferences": {},
	"history": [
		{
			"_format": "sphinx-sol-ct-artifact-1",
			"merkleRoot": "0x58025795c33f9e0121b492c9ea8dc31dc6803cc81b9066cd376333e802464741",
			"contractName": "JBProjects",
			"address": "0x4d9207aBEcA883161A1eAee9DaBeDC0001c198d7",
			"abi": [
				{
					"type": "constructor",
					"inputs": [
						{
							"name": "owner",
							"type": "address",
							"internalType": "address"
						}
					],
					"stateMutability": "nonpayable"
				},
				{
					"type": "function",
					"name": "CLOCK_MODE",
					"inputs": [],
					"outputs": [
						{
							"name": "",
							"type": "string",
							"internalType": "string"
						}
					],
					"stateMutability": "view"
				},
				{
					"type": "function",
					"name": "approve",
					"inputs": [
						{
							"name": "to",
							"type": "address",
							"internalType": "address"
						},
						{
							"name": "tokenId",
							"type": "uint256",
							"internalType": "uint256"
						}
					],
					"outputs": [],
					"stateMutability": "nonpayable"
				},
				{
					"type": "function",
					"name": "balanceOf",
					"inputs": [
						{
							"name": "owner",
							"type": "address",
							"internalType": "address"
						}
					],
					"outputs": [
						{
							"name": "",
							"type": "uint256",
							"internalType": "uint256"
						}
					],
					"stateMutability": "view"
				},
				{
					"type": "function",
					"name": "clock",
					"inputs": [],
					"outputs": [
						{
							"name": "",
							"type": "uint48",
							"internalType": "uint48"
						}
					],
					"stateMutability": "view"
				},
				{
					"type": "function",
					"name": "count",
					"inputs": [],
					"outputs": [
						{
							"name": "",
							"type": "uint256",
							"internalType": "uint256"
						}
					],
					"stateMutability": "view"
				},
				{
					"type": "function",
					"name": "createFor",
					"inputs": [
						{
							"name": "owner",
							"type": "address",
							"internalType": "address"
						}
					],
					"outputs": [
						{
							"name": "projectId",
							"type": "uint256",
							"internalType": "uint256"
						}
					],
					"stateMutability": "nonpayable"
				},
				{
					"type": "function",
					"name": "delegate",
					"inputs": [
						{
							"name": "delegatee",
							"type": "address",
							"internalType": "address"
						}
					],
					"outputs": [],
					"stateMutability": "nonpayable"
				},
				{
					"type": "function",
					"name": "delegateBySig",
					"inputs": [
						{
							"name": "delegatee",
							"type": "address",
							"internalType": "address"
						},
						{
							"name": "nonce",
							"type": "uint256",
							"internalType": "uint256"
						},
						{
							"name": "expiry",
							"type": "uint256",
							"internalType": "uint256"
						},
						{
							"name": "v",
							"type": "uint8",
							"internalType": "uint8"
						},
						{
							"name": "r",
							"type": "bytes32",
							"internalType": "bytes32"
						},
						{
							"name": "s",
							"type": "bytes32",
							"internalType": "bytes32"
						}
					],
					"outputs": [],
					"stateMutability": "nonpayable"
				},
				{
					"type": "function",
					"name": "delegates",
					"inputs": [
						{
							"name": "account",
							"type": "address",
							"internalType": "address"
						}
					],
					"outputs": [
						{
							"name": "",
							"type": "address",
							"internalType": "address"
						}
					],
					"stateMutability": "view"
				},
				{
					"type": "function",
					"name": "eip712Domain",
					"inputs": [],
					"outputs": [
						{
							"name": "fields",
							"type": "bytes1",
							"internalType": "bytes1"
						},
						{
							"name": "name",
							"type": "string",
							"internalType": "string"
						},
						{
							"name": "version",
							"type": "string",
							"internalType": "string"
						},
						{
							"name": "chainId",
							"type": "uint256",
							"internalType": "uint256"
						},
						{
							"name": "verifyingContract",
							"type": "address",
							"internalType": "address"
						},
						{
							"name": "salt",
							"type": "bytes32",
							"internalType": "bytes32"
						},
						{
							"name": "extensions",
							"type": "uint256[]",
							"internalType": "uint256[]"
						}
					],
					"stateMutability": "view"
				},
				{
					"type": "function",
					"name": "getApproved",
					"inputs": [
						{
							"name": "tokenId",
							"type": "uint256",
							"internalType": "uint256"
						}
					],
					"outputs": [
						{
							"name": "",
							"type": "address",
							"internalType": "address"
						}
					],
					"stateMutability": "view"
				},
				{
					"type": "function",
					"name": "getPastTotalSupply",
					"inputs": [
						{
							"name": "timepoint",
							"type": "uint256",
							"internalType": "uint256"
						}
					],
					"outputs": [
						{
							"name": "",
							"type": "uint256",
							"internalType": "uint256"
						}
					],
					"stateMutability": "view"
				},
				{
					"type": "function",
					"name": "getPastVotes",
					"inputs": [
						{
							"name": "account",
							"type": "address",
							"internalType": "address"
						},
						{
							"name": "timepoint",
							"type": "uint256",
							"internalType": "uint256"
						}
					],
					"outputs": [
						{
							"name": "",
							"type": "uint256",
							"internalType": "uint256"
						}
					],
					"stateMutability": "view"
				},
				{
					"type": "function",
					"name": "getVotes",
					"inputs": [
						{
							"name": "account",
							"type": "address",
							"internalType": "address"
						}
					],
					"outputs": [
						{
							"name": "",
							"type": "uint256",
							"internalType": "uint256"
						}
					],
					"stateMutability": "view"
				},
				{
					"type": "function",
					"name": "isApprovedForAll",
					"inputs": [
						{
							"name": "owner",
							"type": "address",
							"internalType": "address"
						},
						{
							"name": "operator",
							"type": "address",
							"internalType": "address"
						}
					],
					"outputs": [
						{
							"name": "",
							"type": "bool",
							"internalType": "bool"
						}
					],
					"stateMutability": "view"
				},
				{
					"type": "function",
					"name": "name",
					"inputs": [],
					"outputs": [
						{
							"name": "",
							"type": "string",
							"internalType": "string"
						}
					],
					"stateMutability": "view"
				},
				{
					"type": "function",
					"name": "nonces",
					"inputs": [
						{
							"name": "owner",
							"type": "address",
							"internalType": "address"
						}
					],
					"outputs": [
						{
							"name": "",
							"type": "uint256",
							"internalType": "uint256"
						}
					],
					"stateMutability": "view"
				},
				{
					"type": "function",
					"name": "owner",
					"inputs": [],
					"outputs": [
						{
							"name": "",
							"type": "address",
							"internalType": "address"
						}
					],
					"stateMutability": "view"
				},
				{
					"type": "function",
					"name": "ownerOf",
					"inputs": [
						{
							"name": "tokenId",
							"type": "uint256",
							"internalType": "uint256"
						}
					],
					"outputs": [
						{
							"name": "",
							"type": "address",
							"internalType": "address"
						}
					],
					"stateMutability": "view"
				},
				{
					"type": "function",
					"name": "renounceOwnership",
					"inputs": [],
					"outputs": [],
					"stateMutability": "nonpayable"
				},
				{
					"type": "function",
					"name": "safeTransferFrom",
					"inputs": [
						{
							"name": "from",
							"type": "address",
							"internalType": "address"
						},
						{
							"name": "to",
							"type": "address",
							"internalType": "address"
						},
						{
							"name": "tokenId",
							"type": "uint256",
							"internalType": "uint256"
						}
					],
					"outputs": [],
					"stateMutability": "nonpayable"
				},
				{
					"type": "function",
					"name": "safeTransferFrom",
					"inputs": [
						{
							"name": "from",
							"type": "address",
							"internalType": "address"
						},
						{
							"name": "to",
							"type": "address",
							"internalType": "address"
						},
						{
							"name": "tokenId",
							"type": "uint256",
							"internalType": "uint256"
						},
						{
							"name": "data",
							"type": "bytes",
							"internalType": "bytes"
						}
					],
					"outputs": [],
					"stateMutability": "nonpayable"
				},
				{
					"type": "function",
					"name": "setApprovalForAll",
					"inputs": [
						{
							"name": "operator",
							"type": "address",
							"internalType": "address"
						},
						{
							"name": "approved",
							"type": "bool",
							"internalType": "bool"
						}
					],
					"outputs": [],
					"stateMutability": "nonpayable"
				},
				{
					"type": "function",
					"name": "setTokenUriResolver",
					"inputs": [
						{
							"name": "newResolver",
							"type": "address",
							"internalType": "contract IJBTokenUriResolver"
						}
					],
					"outputs": [],
					"stateMutability": "nonpayable"
				},
				{
					"type": "function",
					"name": "supportsInterface",
					"inputs": [
						{
							"name": "interfaceId",
							"type": "bytes4",
							"internalType": "bytes4"
						}
					],
					"outputs": [
						{
							"name": "",
							"type": "bool",
							"internalType": "bool"
						}
					],
					"stateMutability": "view"
				},
				{
					"type": "function",
					"name": "symbol",
					"inputs": [],
					"outputs": [
						{
							"name": "",
							"type": "string",
							"internalType": "string"
						}
					],
					"stateMutability": "view"
				},
				{
					"type": "function",
					"name": "tokenURI",
					"inputs": [
						{
							"name": "projectId",
							"type": "uint256",
							"internalType": "uint256"
						}
					],
					"outputs": [
						{
							"name": "",
							"type": "string",
							"internalType": "string"
						}
					],
					"stateMutability": "view"
				},
				{
					"type": "function",
					"name": "tokenUriResolver",
					"inputs": [],
					"outputs": [
						{
							"name": "",
							"type": "address",
							"internalType": "contract IJBTokenUriResolver"
						}
					],
					"stateMutability": "view"
				},
				{
					"type": "function",
					"name": "transferFrom",
					"inputs": [
						{
							"name": "from",
							"type": "address",
							"internalType": "address"
						},
						{
							"name": "to",
							"type": "address",
							"internalType": "address"
						},
						{
							"name": "tokenId",
							"type": "uint256",
							"internalType": "uint256"
						}
					],
					"outputs": [],
					"stateMutability": "nonpayable"
				},
				{
					"type": "function",
					"name": "transferOwnership",
					"inputs": [
						{
							"name": "newOwner",
							"type": "address",
							"internalType": "address"
						}
					],
					"outputs": [],
					"stateMutability": "nonpayable"
				},
				{
					"type": "event",
					"name": "Approval",
					"inputs": [
						{
							"name": "owner",
							"type": "address",
							"indexed": true,
							"internalType": "address"
						},
						{
							"name": "approved",
							"type": "address",
							"indexed": true,
							"internalType": "address"
						},
						{
							"name": "tokenId",
							"type": "uint256",
							"indexed": true,
							"internalType": "uint256"
						}
					],
					"anonymous": false
				},
				{
					"type": "event",
					"name": "ApprovalForAll",
					"inputs": [
						{
							"name": "owner",
							"type": "address",
							"indexed": true,
							"internalType": "address"
						},
						{
							"name": "operator",
							"type": "address",
							"indexed": true,
							"internalType": "address"
						},
						{
							"name": "approved",
							"type": "bool",
							"indexed": false,
							"internalType": "bool"
						}
					],
					"anonymous": false
				},
				{
					"type": "event",
					"name": "Create",
					"inputs": [
						{
							"name": "projectId",
							"type": "uint256",
							"indexed": true,
							"internalType": "uint256"
						},
						{
							"name": "owner",
							"type": "address",
							"indexed": true,
							"internalType": "address"
						},
						{
							"name": "caller",
							"type": "address",
							"indexed": false,
							"internalType": "address"
						}
					],
					"anonymous": false
				},
				{
					"type": "event",
					"name": "DelegateChanged",
					"inputs": [
						{
							"name": "delegator",
							"type": "address",
							"indexed": true,
							"internalType": "address"
						},
						{
							"name": "fromDelegate",
							"type": "address",
							"indexed": true,
							"internalType": "address"
						},
						{
							"name": "toDelegate",
							"type": "address",
							"indexed": true,
							"internalType": "address"
						}
					],
					"anonymous": false
				},
				{
					"type": "event",
					"name": "DelegateVotesChanged",
					"inputs": [
						{
							"name": "delegate",
							"type": "address",
							"indexed": true,
							"internalType": "address"
						},
						{
							"name": "previousVotes",
							"type": "uint256",
							"indexed": false,
							"internalType": "uint256"
						},
						{
							"name": "newVotes",
							"type": "uint256",
							"indexed": false,
							"internalType": "uint256"
						}
					],
					"anonymous": false
				},
				{
					"type": "event",
					"name": "EIP712DomainChanged",
					"inputs": [],
					"anonymous": false
				},
				{
					"type": "event",
					"name": "OwnershipTransferred",
					"inputs": [
						{
							"name": "previousOwner",
							"type": "address",
							"indexed": true,
							"internalType": "address"
						},
						{
							"name": "newOwner",
							"type": "address",
							"indexed": true,
							"internalType": "address"
						}
					],
					"anonymous": false
				},
				{
					"type": "event",
					"name": "SetTokenUriResolver",
					"inputs": [
						{
							"name": "resolver",
							"type": "address",
							"indexed": true,
							"internalType": "contract IJBTokenUriResolver"
						},
						{
							"name": "caller",
							"type": "address",
							"indexed": false,
							"internalType": "address"
						}
					],
					"anonymous": false
				},
				{
					"type": "event",
					"name": "Transfer",
					"inputs": [
						{
							"name": "from",
							"type": "address",
							"indexed": true,
							"internalType": "address"
						},
						{
							"name": "to",
							"type": "address",
							"indexed": true,
							"internalType": "address"
						},
						{
							"name": "tokenId",
							"type": "uint256",
							"indexed": true,
							"internalType": "uint256"
						}
					],
					"anonymous": false
				},
				{
					"type": "error",
					"name": "CheckpointUnorderedInsertion",
					"inputs": []
				},
				{
					"type": "error",
					"name": "ECDSAInvalidSignature",
					"inputs": []
				},
				{
					"type": "error",
					"name": "ECDSAInvalidSignatureLength",
					"inputs": [
						{
							"name": "length",
							"type": "uint256",
							"internalType": "uint256"
						}
					]
				},
				{
					"type": "error",
					"name": "ECDSAInvalidSignatureS",
					"inputs": [
						{
							"name": "s",
							"type": "bytes32",
							"internalType": "bytes32"
						}
					]
				},
				{
					"type": "error",
					"name": "ERC5805FutureLookup",
					"inputs": [
						{
							"name": "timepoint",
							"type": "uint256",
							"internalType": "uint256"
						},
						{
							"name": "clock",
							"type": "uint48",
							"internalType": "uint48"
						}
					]
				},
				{
					"type": "error",
					"name": "ERC6372InconsistentClock",
					"inputs": []
				},
				{
					"type": "error",
					"name": "ERC721IncorrectOwner",
					"inputs": [
						{
							"name": "sender",
							"type": "address",
							"internalType": "address"
						},
						{
							"name": "tokenId",
							"type": "uint256",
							"internalType": "uint256"
						},
						{
							"name": "owner",
							"type": "address",
							"internalType": "address"
						}
					]
				},
				{
					"type": "error",
					"name": "ERC721InsufficientApproval",
					"inputs": [
						{
							"name": "operator",
							"type": "address",
							"internalType": "address"
						},
						{
							"name": "tokenId",
							"type": "uint256",
							"internalType": "uint256"
						}
					]
				},
				{
					"type": "error",
					"name": "ERC721InvalidApprover",
					"inputs": [
						{
							"name": "approver",
							"type": "address",
							"internalType": "address"
						}
					]
				},
				{
					"type": "error",
					"name": "ERC721InvalidOperator",
					"inputs": [
						{
							"name": "operator",
							"type": "address",
							"internalType": "address"
						}
					]
				},
				{
					"type": "error",
					"name": "ERC721InvalidOwner",
					"inputs": [
						{
							"name": "owner",
							"type": "address",
							"internalType": "address"
						}
					]
				},
				{
					"type": "error",
					"name": "ERC721InvalidReceiver",
					"inputs": [
						{
							"name": "receiver",
							"type": "address",
							"internalType": "address"
						}
					]
				},
				{
					"type": "error",
					"name": "ERC721InvalidSender",
					"inputs": [
						{
							"name": "sender",
							"type": "address",
							"internalType": "address"
						}
					]
				},
				{
					"type": "error",
					"name": "ERC721NonexistentToken",
					"inputs": [
						{
							"name": "tokenId",
							"type": "uint256",
							"internalType": "uint256"
						}
					]
				},
				{
					"type": "error",
					"name": "InvalidAccountNonce",
					"inputs": [
						{
							"name": "account",
							"type": "address",
							"internalType": "address"
						},
						{
							"name": "currentNonce",
							"type": "uint256",
							"internalType": "uint256"
						}
					]
				},
				{
					"type": "error",
					"name": "InvalidShortString",
					"inputs": []
				},
				{
					"type": "error",
					"name": "OwnableInvalidOwner",
					"inputs": [
						{
							"name": "owner",
							"type": "address",
							"internalType": "address"
						}
					]
				},
				{
					"type": "error",
					"name": "OwnableUnauthorizedAccount",
					"inputs": [
						{
							"name": "account",
							"type": "address",
							"internalType": "address"
						}
					]
				},
				{
					"type": "error",
					"name": "SafeCastOverflowedUintDowncast",
					"inputs": [
						{
							"name": "bits",
							"type": "uint8",
							"internalType": "uint8"
						},
						{
							"name": "value",
							"type": "uint256",
							"internalType": "uint256"
						}
					]
				},
				{
					"type": "error",
					"name": "StringTooLong",
					"inputs": [
						{
							"name": "str",
							"type": "string",
							"internalType": "string"
						}
					]
				},
				{
					"type": "error",
					"name": "VotesExpiredSignature",
					"inputs": [
						{
							"name": "expiry",
							"type": "uint256",
							"internalType": "uint256"
						}
					]
				}
			],
			"solcInputHash": "b2112d617c776ac2cceb92d11c578094",
			"receipt": {
				"blockHash": "0x16052471b9ac7e9479f3215906569bb1ea5bef1c2e1f4d933dac32f884627b01",
				"blockNumber": 5424380,
				"contractAddress": null,
				"cumulativeGasUsed": "24376581",
				"from": "0xC034550B542b83BA1De312b21d1C94a9a52B1595",
				"gasPrice": "1012207646",
				"gasUsed": "10946934",
				"hash": "0x19bc5315bba2caaac4e6e9a41cf902def8a609aaca80787f6e96f6f41bbd4439",
				"index": 89,
				"logs": [
					{
						"address": "0xB5E96127D417b1B3ef8438496a38A143167209c7",
						"blockHash": "0x16052471b9ac7e9479f3215906569bb1ea5bef1c2e1f4d933dac32f884627b01",
						"blockNumber": 5424380,
						"data": "0x0000000000000000000000000000000000000000000000000000000000000000",
						"index": 146,
						"topics": [
							"0x572f161235911da04685a68c06adf558fc7e4a36909dca394650e0adc19cc93d",
							"0x000000000000000000000000c034550b542b83ba1de312b21d1c94a9a52b1595",
							"0x000000000000000000000000ef1be3c049809cace5bc203bbe4ec1ab284bf75c",
							"0x382284f5d783cda733be9c0662007769be4127911b33bf59cf0fc970f0906943"
						],
						"transactionHash": "0x19bc5315bba2caaac4e6e9a41cf902def8a609aaca80787f6e96f6f41bbd4439",
						"transactionIndex": 89
					},
					{
						"address": "0x1081B5AA9D9d4862A3dA4d469433FB36Ed80FA2A",
						"blockHash": "0x16052471b9ac7e9479f3215906569bb1ea5bef1c2e1f4d933dac32f884627b01",
						"blockNumber": 5424380,
						"data": "0x",
						"index": 147,
						"topics": [
							"0x6895c13664aa4f67288b25d7a21d7aaa34916e355fb9b6fae0a139a9085becb8",
							"0x000000000000000000000000ef1be3c049809cace5bc203bbe4ec1ab284bf75c"
						],
						"transactionHash": "0x19bc5315bba2caaac4e6e9a41cf902def8a609aaca80787f6e96f6f41bbd4439",
						"transactionIndex": 89
					},
					{
						"address": "0xEf1Be3C049809caCe5Bc203BBe4Ec1Ab284bF75c",
						"blockHash": "0x16052471b9ac7e9479f3215906569bb1ea5bef1c2e1f4d933dac32f884627b01",
						"blockNumber": 5424380,
						"data": "0x0000000000000000000000000000000000000000000000000000000000000001",
						"index": 148,
						"topics": [
							"0xa65fb05c5808f5f389d72edeaf719ce38f4cc55c1f69ca3cbfb31c21501caa07",
							"0x58025795c33f9e0121b492c9ea8dc31dc6803cc81b9066cd376333e802464741"
						],
						"transactionHash": "0x19bc5315bba2caaac4e6e9a41cf902def8a609aaca80787f6e96f6f41bbd4439",
						"transactionIndex": 89
					},
					{
						"address": "0x1081B5AA9D9d4862A3dA4d469433FB36Ed80FA2A",
						"blockHash": "0x16052471b9ac7e9479f3215906569bb1ea5bef1c2e1f4d933dac32f884627b01",
						"blockNumber": 5424380,
						"data": "0x000000000000000000000000ba24624ae5dc821866e9e71ed050412ef01e2fe6",
						"index": 149,
						"topics": [
							"0x4db17dd5e4732fb6da34a148104a592783ca119a1e7bb8829eba6cbadef0b511"
						],
						"transactionHash": "0x19bc5315bba2caaac4e6e9a41cf902def8a609aaca80787f6e96f6f41bbd4439",
						"transactionIndex": 89
					},
					{
						"address": "0x1081B5AA9D9d4862A3dA4d469433FB36Ed80FA2A",
						"blockHash": "0x16052471b9ac7e9479f3215906569bb1ea5bef1c2e1f4d933dac32f884627b01",
						"blockNumber": 5424380,
						"data": "0x",
						"index": 150,
						"topics": [
							"0x6895c13664aa4f67288b25d7a21d7aaa34916e355fb9b6fae0a139a9085becb8",
							"0x000000000000000000000000ef1be3c049809cace5bc203bbe4ec1ab284bf75c"
						],
						"transactionHash": "0x19bc5315bba2caaac4e6e9a41cf902def8a609aaca80787f6e96f6f41bbd4439",
						"transactionIndex": 89
					},
					{
						"address": "0xEf1Be3C049809caCe5Bc203BBe4Ec1Ab284bF75c",
						"blockHash": "0x16052471b9ac7e9479f3215906569bb1ea5bef1c2e1f4d933dac32f884627b01",
						"blockNumber": 5424380,
						"data": "0x0000000000000000000000000000000000000000000000000000000000000002",
						"index": 151,
						"topics": [
							"0xa65fb05c5808f5f389d72edeaf719ce38f4cc55c1f69ca3cbfb31c21501caa07",
							"0x58025795c33f9e0121b492c9ea8dc31dc6803cc81b9066cd376333e802464741"
						],
						"transactionHash": "0x19bc5315bba2caaac4e6e9a41cf902def8a609aaca80787f6e96f6f41bbd4439",
						"transactionIndex": 89
					},
					{
						"address": "0x4d9207aBEcA883161A1eAee9DaBeDC0001c198d7",
						"blockHash": "0x16052471b9ac7e9479f3215906569bb1ea5bef1c2e1f4d933dac32f884627b01",
						"blockNumber": 5424380,
						"data": "0x",
						"index": 152,
						"topics": [
							"0x8be0079c531659141344cd1fd0a4f28419497f9722a3daafe3b4186f6b6457e0",
							"0x0000000000000000000000000000000000000000000000000000000000000000",
							"0x000000000000000000000000823b92d6a4b2aed4b15675c7917c9f922ea8adad"
						],
						"transactionHash": "0x19bc5315bba2caaac4e6e9a41cf902def8a609aaca80787f6e96f6f41bbd4439",
						"transactionIndex": 89
					},
					{
						"address": "0x1081B5AA9D9d4862A3dA4d469433FB36Ed80FA2A",
						"blockHash": "0x16052471b9ac7e9479f3215906569bb1ea5bef1c2e1f4d933dac32f884627b01",
						"blockNumber": 5424380,
						"data": "0x0000000000000000000000004d9207abeca883161a1eaee9dabedc0001c198d7",
						"index": 153,
						"topics": [
							"0x4db17dd5e4732fb6da34a148104a592783ca119a1e7bb8829eba6cbadef0b511"
						],
						"transactionHash": "0x19bc5315bba2caaac4e6e9a41cf902def8a609aaca80787f6e96f6f41bbd4439",
						"transactionIndex": 89
					},
					{
						"address": "0x1081B5AA9D9d4862A3dA4d469433FB36Ed80FA2A",
						"blockHash": "0x16052471b9ac7e9479f3215906569bb1ea5bef1c2e1f4d933dac32f884627b01",
						"blockNumber": 5424380,
						"data": "0x",
						"index": 154,
						"topics": [
							"0x6895c13664aa4f67288b25d7a21d7aaa34916e355fb9b6fae0a139a9085becb8",
							"0x000000000000000000000000ef1be3c049809cace5bc203bbe4ec1ab284bf75c"
						],
						"transactionHash": "0x19bc5315bba2caaac4e6e9a41cf902def8a609aaca80787f6e96f6f41bbd4439",
						"transactionIndex": 89
					},
					{
						"address": "0xEf1Be3C049809caCe5Bc203BBe4Ec1Ab284bF75c",
						"blockHash": "0x16052471b9ac7e9479f3215906569bb1ea5bef1c2e1f4d933dac32f884627b01",
						"blockNumber": 5424380,
						"data": "0x0000000000000000000000000000000000000000000000000000000000000003",
						"index": 155,
						"topics": [
							"0xa65fb05c5808f5f389d72edeaf719ce38f4cc55c1f69ca3cbfb31c21501caa07",
							"0x58025795c33f9e0121b492c9ea8dc31dc6803cc81b9066cd376333e802464741"
						],
						"transactionHash": "0x19bc5315bba2caaac4e6e9a41cf902def8a609aaca80787f6e96f6f41bbd4439",
						"transactionIndex": 89
					},
					{
						"address": "0x18017cfeD48E1dC0Adc445cEF8A9e6AfFCb330DA",
						"blockHash": "0x16052471b9ac7e9479f3215906569bb1ea5bef1c2e1f4d933dac32f884627b01",
						"blockNumber": 5424380,
						"data": "0x",
						"index": 156,
						"topics": [
							"0x8be0079c531659141344cd1fd0a4f28419497f9722a3daafe3b4186f6b6457e0",
							"0x0000000000000000000000000000000000000000000000000000000000000000",
							"0x0000000000000000000000001081b5aa9d9d4862a3da4d469433fb36ed80fa2a"
						],
						"transactionHash": "0x19bc5315bba2caaac4e6e9a41cf902def8a609aaca80787f6e96f6f41bbd4439",
						"transactionIndex": 89
					},
					{
						"address": "0x1081B5AA9D9d4862A3dA4d469433FB36Ed80FA2A",
						"blockHash": "0x16052471b9ac7e9479f3215906569bb1ea5bef1c2e1f4d933dac32f884627b01",
						"blockNumber": 5424380,
						"data": "0x00000000000000000000000018017cfed48e1dc0adc445cef8a9e6affcb330da",
						"index": 157,
						"topics": [
							"0x4db17dd5e4732fb6da34a148104a592783ca119a1e7bb8829eba6cbadef0b511"
						],
						"transactionHash": "0x19bc5315bba2caaac4e6e9a41cf902def8a609aaca80787f6e96f6f41bbd4439",
						"transactionIndex": 89
					},
					{
						"address": "0x1081B5AA9D9d4862A3dA4d469433FB36Ed80FA2A",
						"blockHash": "0x16052471b9ac7e9479f3215906569bb1ea5bef1c2e1f4d933dac32f884627b01",
						"blockNumber": 5424380,
						"data": "0x",
						"index": 158,
						"topics": [
							"0x6895c13664aa4f67288b25d7a21d7aaa34916e355fb9b6fae0a139a9085becb8",
							"0x000000000000000000000000ef1be3c049809cace5bc203bbe4ec1ab284bf75c"
						],
						"transactionHash": "0x19bc5315bba2caaac4e6e9a41cf902def8a609aaca80787f6e96f6f41bbd4439",
						"transactionIndex": 89
					},
					{
						"address": "0xEf1Be3C049809caCe5Bc203BBe4Ec1Ab284bF75c",
						"blockHash": "0x16052471b9ac7e9479f3215906569bb1ea5bef1c2e1f4d933dac32f884627b01",
						"blockNumber": 5424380,
						"data": "0x0000000000000000000000000000000000000000000000000000000000000004",
						"index": 159,
						"topics": [
							"0xa65fb05c5808f5f389d72edeaf719ce38f4cc55c1f69ca3cbfb31c21501caa07",
							"0x58025795c33f9e0121b492c9ea8dc31dc6803cc81b9066cd376333e802464741"
						],
						"transactionHash": "0x19bc5315bba2caaac4e6e9a41cf902def8a609aaca80787f6e96f6f41bbd4439",
						"transactionIndex": 89
					},
					{
						"address": "0x1081B5AA9D9d4862A3dA4d469433FB36Ed80FA2A",
						"blockHash": "0x16052471b9ac7e9479f3215906569bb1ea5bef1c2e1f4d933dac32f884627b01",
						"blockNumber": 5424380,
						"data": "0x0000000000000000000000007cb4a75d21c45d1a0a0333bfa626f54636c84da5",
						"index": 160,
						"topics": [
							"0x4db17dd5e4732fb6da34a148104a592783ca119a1e7bb8829eba6cbadef0b511"
						],
						"transactionHash": "0x19bc5315bba2caaac4e6e9a41cf902def8a609aaca80787f6e96f6f41bbd4439",
						"transactionIndex": 89
					},
					{
						"address": "0x1081B5AA9D9d4862A3dA4d469433FB36Ed80FA2A",
						"blockHash": "0x16052471b9ac7e9479f3215906569bb1ea5bef1c2e1f4d933dac32f884627b01",
						"blockNumber": 5424380,
						"data": "0x",
						"index": 161,
						"topics": [
							"0x6895c13664aa4f67288b25d7a21d7aaa34916e355fb9b6fae0a139a9085becb8",
							"0x000000000000000000000000ef1be3c049809cace5bc203bbe4ec1ab284bf75c"
						],
						"transactionHash": "0x19bc5315bba2caaac4e6e9a41cf902def8a609aaca80787f6e96f6f41bbd4439",
						"transactionIndex": 89
					},
					{
						"address": "0xEf1Be3C049809caCe5Bc203BBe4Ec1Ab284bF75c",
						"blockHash": "0x16052471b9ac7e9479f3215906569bb1ea5bef1c2e1f4d933dac32f884627b01",
						"blockNumber": 5424380,
						"data": "0x0000000000000000000000000000000000000000000000000000000000000005",
						"index": 162,
						"topics": [
							"0xa65fb05c5808f5f389d72edeaf719ce38f4cc55c1f69ca3cbfb31c21501caa07",
							"0x58025795c33f9e0121b492c9ea8dc31dc6803cc81b9066cd376333e802464741"
						],
						"transactionHash": "0x19bc5315bba2caaac4e6e9a41cf902def8a609aaca80787f6e96f6f41bbd4439",
						"transactionIndex": 89
					},
					{
						"address": "0x1081B5AA9D9d4862A3dA4d469433FB36Ed80FA2A",
						"blockHash": "0x16052471b9ac7e9479f3215906569bb1ea5bef1c2e1f4d933dac32f884627b01",
						"blockNumber": 5424380,
						"data": "0x0000000000000000000000001eb7799d3a230a0440f0d6c477256df8d425adbb",
						"index": 163,
						"topics": [
							"0x4db17dd5e4732fb6da34a148104a592783ca119a1e7bb8829eba6cbadef0b511"
						],
						"transactionHash": "0x19bc5315bba2caaac4e6e9a41cf902def8a609aaca80787f6e96f6f41bbd4439",
						"transactionIndex": 89
					},
					{
						"address": "0x1081B5AA9D9d4862A3dA4d469433FB36Ed80FA2A",
						"blockHash": "0x16052471b9ac7e9479f3215906569bb1ea5bef1c2e1f4d933dac32f884627b01",
						"blockNumber": 5424380,
						"data": "0x",
						"index": 164,
						"topics": [
							"0x6895c13664aa4f67288b25d7a21d7aaa34916e355fb9b6fae0a139a9085becb8",
							"0x000000000000000000000000ef1be3c049809cace5bc203bbe4ec1ab284bf75c"
						],
						"transactionHash": "0x19bc5315bba2caaac4e6e9a41cf902def8a609aaca80787f6e96f6f41bbd4439",
						"transactionIndex": 89
					},
					{
						"address": "0xEf1Be3C049809caCe5Bc203BBe4Ec1Ab284bF75c",
						"blockHash": "0x16052471b9ac7e9479f3215906569bb1ea5bef1c2e1f4d933dac32f884627b01",
						"blockNumber": 5424380,
						"data": "0x0000000000000000000000000000000000000000000000000000000000000006",
						"index": 165,
						"topics": [
							"0xa65fb05c5808f5f389d72edeaf719ce38f4cc55c1f69ca3cbfb31c21501caa07",
							"0x58025795c33f9e0121b492c9ea8dc31dc6803cc81b9066cd376333e802464741"
						],
						"transactionHash": "0x19bc5315bba2caaac4e6e9a41cf902def8a609aaca80787f6e96f6f41bbd4439",
						"transactionIndex": 89
					},
					{
						"address": "0x1081B5AA9D9d4862A3dA4d469433FB36Ed80FA2A",
						"blockHash": "0x16052471b9ac7e9479f3215906569bb1ea5bef1c2e1f4d933dac32f884627b01",
						"blockNumber": 5424380,
						"data": "0x0000000000000000000000003295c9c7374e583cb2e6ed455eaf9908022159d0",
						"index": 166,
						"topics": [
							"0x4db17dd5e4732fb6da34a148104a592783ca119a1e7bb8829eba6cbadef0b511"
						],
						"transactionHash": "0x19bc5315bba2caaac4e6e9a41cf902def8a609aaca80787f6e96f6f41bbd4439",
						"transactionIndex": 89
					},
					{
						"address": "0x1081B5AA9D9d4862A3dA4d469433FB36Ed80FA2A",
						"blockHash": "0x16052471b9ac7e9479f3215906569bb1ea5bef1c2e1f4d933dac32f884627b01",
						"blockNumber": 5424380,
						"data": "0x",
						"index": 167,
						"topics": [
							"0x6895c13664aa4f67288b25d7a21d7aaa34916e355fb9b6fae0a139a9085becb8",
							"0x000000000000000000000000ef1be3c049809cace5bc203bbe4ec1ab284bf75c"
						],
						"transactionHash": "0x19bc5315bba2caaac4e6e9a41cf902def8a609aaca80787f6e96f6f41bbd4439",
						"transactionIndex": 89
					},
					{
						"address": "0xEf1Be3C049809caCe5Bc203BBe4Ec1Ab284bF75c",
						"blockHash": "0x16052471b9ac7e9479f3215906569bb1ea5bef1c2e1f4d933dac32f884627b01",
						"blockNumber": 5424380,
						"data": "0x0000000000000000000000000000000000000000000000000000000000000007",
						"index": 168,
						"topics": [
							"0xa65fb05c5808f5f389d72edeaf719ce38f4cc55c1f69ca3cbfb31c21501caa07",
							"0x58025795c33f9e0121b492c9ea8dc31dc6803cc81b9066cd376333e802464741"
						],
						"transactionHash": "0x19bc5315bba2caaac4e6e9a41cf902def8a609aaca80787f6e96f6f41bbd4439",
						"transactionIndex": 89
					},
					{
						"address": "0x1081B5AA9D9d4862A3dA4d469433FB36Ed80FA2A",
						"blockHash": "0x16052471b9ac7e9479f3215906569bb1ea5bef1c2e1f4d933dac32f884627b01",
						"blockNumber": 5424380,
						"data": "0x0000000000000000000000002fd39295dd948dfbb8aa7e2508ea5fc15096682b",
						"index": 169,
						"topics": [
							"0x4db17dd5e4732fb6da34a148104a592783ca119a1e7bb8829eba6cbadef0b511"
						],
						"transactionHash": "0x19bc5315bba2caaac4e6e9a41cf902def8a609aaca80787f6e96f6f41bbd4439",
						"transactionIndex": 89
					},
					{
						"address": "0x1081B5AA9D9d4862A3dA4d469433FB36Ed80FA2A",
						"blockHash": "0x16052471b9ac7e9479f3215906569bb1ea5bef1c2e1f4d933dac32f884627b01",
						"blockNumber": 5424380,
						"data": "0x",
						"index": 170,
						"topics": [
							"0x6895c13664aa4f67288b25d7a21d7aaa34916e355fb9b6fae0a139a9085becb8",
							"0x000000000000000000000000ef1be3c049809cace5bc203bbe4ec1ab284bf75c"
						],
						"transactionHash": "0x19bc5315bba2caaac4e6e9a41cf902def8a609aaca80787f6e96f6f41bbd4439",
						"transactionIndex": 89
					},
					{
						"address": "0xEf1Be3C049809caCe5Bc203BBe4Ec1Ab284bF75c",
						"blockHash": "0x16052471b9ac7e9479f3215906569bb1ea5bef1c2e1f4d933dac32f884627b01",
						"blockNumber": 5424380,
						"data": "0x0000000000000000000000000000000000000000000000000000000000000008",
						"index": 171,
						"topics": [
							"0xa65fb05c5808f5f389d72edeaf719ce38f4cc55c1f69ca3cbfb31c21501caa07",
							"0x58025795c33f9e0121b492c9ea8dc31dc6803cc81b9066cd376333e802464741"
						],
						"transactionHash": "0x19bc5315bba2caaac4e6e9a41cf902def8a609aaca80787f6e96f6f41bbd4439",
						"transactionIndex": 89
					}
				],
				"logsBloom": "0x00000000080010008208000000080000000000000008000000800000004000000060008000000000000000000040000000000000000000000000000000000000000000000000200400000008820000000001000020000000000200000000000000000000020000000000000000000800000000100020000000000008000000400001000200000000000100800000000000080000000000000000804000000000004000080010000000002000000000020200000000400080000000000006000080000000000000200080000008000000000000000000000000000000000020000000000000000004000000000000000200000000000000000000000000000000",
				"status": 1,
				"to": "0xB5E96127D417b1B3ef8438496a38A143167209c7"
			},
			"metadata": "{\"compiler\":{\"version\":\"0.8.23+commit.f704f362\"},\"language\":\"Solidity\",\"output\":{\"abi\":[{\"inputs\":[{\"internalType\":\"address\",\"name\":\"owner\",\"type\":\"address\"}],\"stateMutability\":\"nonpayable\",\"type\":\"constructor\"},{\"inputs\":[],\"type\":\"error\",\"name\":\"CheckpointUnorderedInsertion\"},{\"inputs\":[],\"type\":\"error\",\"name\":\"ECDSAInvalidSignature\"},{\"inputs\":[{\"internalType\":\"uint256\",\"name\":\"length\",\"type\":\"uint256\"}],\"type\":\"error\",\"name\":\"ECDSAInvalidSignatureLength\"},{\"inputs\":[{\"internalType\":\"bytes32\",\"name\":\"s\",\"type\":\"bytes32\"}],\"type\":\"error\",\"name\":\"ECDSAInvalidSignatureS\"},{\"inputs\":[{\"internalType\":\"uint256\",\"name\":\"timepoint\",\"type\":\"uint256\"},{\"internalType\":\"uint48\",\"name\":\"clock\",\"type\":\"uint48\"}],\"type\":\"error\",\"name\":\"ERC5805FutureLookup\"},{\"inputs\":[],\"type\":\"error\",\"name\":\"ERC6372InconsistentClock\"},{\"inputs\":[{\"internalType\":\"address\",\"name\":\"sender\",\"type\":\"address\"},{\"internalType\":\"uint256\",\"name\":\"tokenId\",\"type\":\"uint256\"},{\"internalType\":\"address\",\"name\":\"owner\",\"type\":\"address\"}],\"type\":\"error\",\"name\":\"ERC721IncorrectOwner\"},{\"inputs\":[{\"internalType\":\"address\",\"name\":\"operator\",\"type\":\"address\"},{\"internalType\":\"uint256\",\"name\":\"tokenId\",\"type\":\"uint256\"}],\"type\":\"error\",\"name\":\"ERC721InsufficientApproval\"},{\"inputs\":[{\"internalType\":\"address\",\"name\":\"approver\",\"type\":\"address\"}],\"type\":\"error\",\"name\":\"ERC721InvalidApprover\"},{\"inputs\":[{\"internalType\":\"address\",\"name\":\"operator\",\"type\":\"address\"}],\"type\":\"error\",\"name\":\"ERC721InvalidOperator\"},{\"inputs\":[{\"internalType\":\"address\",\"name\":\"owner\",\"type\":\"address\"}],\"type\":\"error\",\"name\":\"ERC721InvalidOwner\"},{\"inputs\":[{\"internalType\":\"address\",\"name\":\"receiver\",\"type\":\"address\"}],\"type\":\"error\",\"name\":\"ERC721InvalidReceiver\"},{\"inputs\":[{\"internalType\":\"address\",\"name\":\"sender\",\"type\":\"address\"}],\"type\":\"error\",\"name\":\"ERC721InvalidSender\"},{\"inputs\":[{\"internalType\":\"uint256\",\"name\":\"tokenId\",\"type\":\"uint256\"}],\"type\":\"error\",\"name\":\"ERC721NonexistentToken\"},{\"inputs\":[{\"internalType\":\"address\",\"name\":\"account\",\"type\":\"address\"},{\"internalType\":\"uint256\",\"name\":\"currentNonce\",\"type\":\"uint256\"}],\"type\":\"error\",\"name\":\"InvalidAccountNonce\"},{\"inputs\":[],\"type\":\"error\",\"name\":\"InvalidShortString\"},{\"inputs\":[{\"internalType\":\"address\",\"name\":\"owner\",\"type\":\"address\"}],\"type\":\"error\",\"name\":\"OwnableInvalidOwner\"},{\"inputs\":[{\"internalType\":\"address\",\"name\":\"account\",\"type\":\"address\"}],\"type\":\"error\",\"name\":\"OwnableUnauthorizedAccount\"},{\"inputs\":[{\"internalType\":\"uint8\",\"name\":\"bits\",\"type\":\"uint8\"},{\"internalType\":\"uint256\",\"name\":\"value\",\"type\":\"uint256\"}],\"type\":\"error\",\"name\":\"SafeCastOverflowedUintDowncast\"},{\"inputs\":[{\"internalType\":\"string\",\"name\":\"str\",\"type\":\"string\"}],\"type\":\"error\",\"name\":\"StringTooLong\"},{\"inputs\":[{\"internalType\":\"uint256\",\"name\":\"expiry\",\"type\":\"uint256\"}],\"type\":\"error\",\"name\":\"VotesExpiredSignature\"},{\"inputs\":[{\"internalType\":\"address\",\"name\":\"owner\",\"type\":\"address\",\"indexed\":true},{\"internalType\":\"address\",\"name\":\"approved\",\"type\":\"address\",\"indexed\":true},{\"internalType\":\"uint256\",\"name\":\"tokenId\",\"type\":\"uint256\",\"indexed\":true}],\"type\":\"event\",\"name\":\"Approval\",\"anonymous\":false},{\"inputs\":[{\"internalType\":\"address\",\"name\":\"owner\",\"type\":\"address\",\"indexed\":true},{\"internalType\":\"address\",\"name\":\"operator\",\"type\":\"address\",\"indexed\":true},{\"internalType\":\"bool\",\"name\":\"approved\",\"type\":\"bool\",\"indexed\":false}],\"type\":\"event\",\"name\":\"ApprovalForAll\",\"anonymous\":false},{\"inputs\":[{\"internalType\":\"uint256\",\"name\":\"projectId\",\"type\":\"uint256\",\"indexed\":true},{\"internalType\":\"address\",\"name\":\"owner\",\"type\":\"address\",\"indexed\":true},{\"internalType\":\"address\",\"name\":\"caller\",\"type\":\"address\",\"indexed\":false}],\"type\":\"event\",\"name\":\"Create\",\"anonymous\":false},{\"inputs\":[{\"internalType\":\"address\",\"name\":\"delegator\",\"type\":\"address\",\"indexed\":true},{\"internalType\":\"address\",\"name\":\"fromDelegate\",\"type\":\"address\",\"indexed\":true},{\"internalType\":\"address\",\"name\":\"toDelegate\",\"type\":\"address\",\"indexed\":true}],\"type\":\"event\",\"name\":\"DelegateChanged\",\"anonymous\":false},{\"inputs\":[{\"internalType\":\"address\",\"name\":\"delegate\",\"type\":\"address\",\"indexed\":true},{\"internalType\":\"uint256\",\"name\":\"previousVotes\",\"type\":\"uint256\",\"indexed\":false},{\"internalType\":\"uint256\",\"name\":\"newVotes\",\"type\":\"uint256\",\"indexed\":false}],\"type\":\"event\",\"name\":\"DelegateVotesChanged\",\"anonymous\":false},{\"inputs\":[],\"type\":\"event\",\"name\":\"EIP712DomainChanged\",\"anonymous\":false},{\"inputs\":[{\"internalType\":\"address\",\"name\":\"previousOwner\",\"type\":\"address\",\"indexed\":true},{\"internalType\":\"address\",\"name\":\"newOwner\",\"type\":\"address\",\"indexed\":true}],\"type\":\"event\",\"name\":\"OwnershipTransferred\",\"anonymous\":false},{\"inputs\":[{\"internalType\":\"contract IJBTokenUriResolver\",\"name\":\"resolver\",\"type\":\"address\",\"indexed\":true},{\"internalType\":\"address\",\"name\":\"caller\",\"type\":\"address\",\"indexed\":false}],\"type\":\"event\",\"name\":\"SetTokenUriResolver\",\"anonymous\":false},{\"inputs\":[{\"internalType\":\"address\",\"name\":\"from\",\"type\":\"address\",\"indexed\":true},{\"internalType\":\"address\",\"name\":\"to\",\"type\":\"address\",\"indexed\":true},{\"internalType\":\"uint256\",\"name\":\"tokenId\",\"type\":\"uint256\",\"indexed\":true}],\"type\":\"event\",\"name\":\"Transfer\",\"anonymous\":false},{\"inputs\":[],\"stateMutability\":\"view\",\"type\":\"function\",\"name\":\"CLOCK_MODE\",\"outputs\":[{\"internalType\":\"string\",\"name\":\"\",\"type\":\"string\"}]},{\"inputs\":[{\"internalType\":\"address\",\"name\":\"to\",\"type\":\"address\"},{\"internalType\":\"uint256\",\"name\":\"tokenId\",\"type\":\"uint256\"}],\"stateMutability\":\"nonpayable\",\"type\":\"function\",\"name\":\"approve\"},{\"inputs\":[{\"internalType\":\"address\",\"name\":\"owner\",\"type\":\"address\"}],\"stateMutability\":\"view\",\"type\":\"function\",\"name\":\"balanceOf\",\"outputs\":[{\"internalType\":\"uint256\",\"name\":\"\",\"type\":\"uint256\"}]},{\"inputs\":[],\"stateMutability\":\"view\",\"type\":\"function\",\"name\":\"clock\",\"outputs\":[{\"internalType\":\"uint48\",\"name\":\"\",\"type\":\"uint48\"}]},{\"inputs\":[],\"stateMutability\":\"view\",\"type\":\"function\",\"name\":\"count\",\"outputs\":[{\"internalType\":\"uint256\",\"name\":\"\",\"type\":\"uint256\"}]},{\"inputs\":[{\"internalType\":\"address\",\"name\":\"owner\",\"type\":\"address\"}],\"stateMutability\":\"nonpayable\",\"type\":\"function\",\"name\":\"createFor\",\"outputs\":[{\"internalType\":\"uint256\",\"name\":\"projectId\",\"type\":\"uint256\"}]},{\"inputs\":[{\"internalType\":\"address\",\"name\":\"delegatee\",\"type\":\"address\"}],\"stateMutability\":\"nonpayable\",\"type\":\"function\",\"name\":\"delegate\"},{\"inputs\":[{\"internalType\":\"address\",\"name\":\"delegatee\",\"type\":\"address\"},{\"internalType\":\"uint256\",\"name\":\"nonce\",\"type\":\"uint256\"},{\"internalType\":\"uint256\",\"name\":\"expiry\",\"type\":\"uint256\"},{\"internalType\":\"uint8\",\"name\":\"v\",\"type\":\"uint8\"},{\"internalType\":\"bytes32\",\"name\":\"r\",\"type\":\"bytes32\"},{\"internalType\":\"bytes32\",\"name\":\"s\",\"type\":\"bytes32\"}],\"stateMutability\":\"nonpayable\",\"type\":\"function\",\"name\":\"delegateBySig\"},{\"inputs\":[{\"internalType\":\"address\",\"name\":\"account\",\"type\":\"address\"}],\"stateMutability\":\"view\",\"type\":\"function\",\"name\":\"delegates\",\"outputs\":[{\"internalType\":\"address\",\"name\":\"\",\"type\":\"address\"}]},{\"inputs\":[],\"stateMutability\":\"view\",\"type\":\"function\",\"name\":\"eip712Domain\",\"outputs\":[{\"internalType\":\"bytes1\",\"name\":\"fields\",\"type\":\"bytes1\"},{\"internalType\":\"string\",\"name\":\"name\",\"type\":\"string\"},{\"internalType\":\"string\",\"name\":\"version\",\"type\":\"string\"},{\"internalType\":\"uint256\",\"name\":\"chainId\",\"type\":\"uint256\"},{\"internalType\":\"address\",\"name\":\"verifyingContract\",\"type\":\"address\"},{\"internalType\":\"bytes32\",\"name\":\"salt\",\"type\":\"bytes32\"},{\"internalType\":\"uint256[]\",\"name\":\"extensions\",\"type\":\"uint256[]\"}]},{\"inputs\":[{\"internalType\":\"uint256\",\"name\":\"tokenId\",\"type\":\"uint256\"}],\"stateMutability\":\"view\",\"type\":\"function\",\"name\":\"getApproved\",\"outputs\":[{\"internalType\":\"address\",\"name\":\"\",\"type\":\"address\"}]},{\"inputs\":[{\"internalType\":\"uint256\",\"name\":\"timepoint\",\"type\":\"uint256\"}],\"stateMutability\":\"view\",\"type\":\"function\",\"name\":\"getPastTotalSupply\",\"outputs\":[{\"internalType\":\"uint256\",\"name\":\"\",\"type\":\"uint256\"}]},{\"inputs\":[{\"internalType\":\"address\",\"name\":\"account\",\"type\":\"address\"},{\"internalType\":\"uint256\",\"name\":\"timepoint\",\"type\":\"uint256\"}],\"stateMutability\":\"view\",\"type\":\"function\",\"name\":\"getPastVotes\",\"outputs\":[{\"internalType\":\"uint256\",\"name\":\"\",\"type\":\"uint256\"}]},{\"inputs\":[{\"internalType\":\"address\",\"name\":\"account\",\"type\":\"address\"}],\"stateMutability\":\"view\",\"type\":\"function\",\"name\":\"getVotes\",\"outputs\":[{\"internalType\":\"uint256\",\"name\":\"\",\"type\":\"uint256\"}]},{\"inputs\":[{\"internalType\":\"address\",\"name\":\"owner\",\"type\":\"address\"},{\"internalType\":\"address\",\"name\":\"operator\",\"type\":\"address\"}],\"stateMutability\":\"view\",\"type\":\"function\",\"name\":\"isApprovedForAll\",\"outputs\":[{\"internalType\":\"bool\",\"name\":\"\",\"type\":\"bool\"}]},{\"inputs\":[],\"stateMutability\":\"view\",\"type\":\"function\",\"name\":\"name\",\"outputs\":[{\"internalType\":\"string\",\"name\":\"\",\"type\":\"string\"}]},{\"inputs\":[{\"internalType\":\"address\",\"name\":\"owner\",\"type\":\"address\"}],\"stateMutability\":\"view\",\"type\":\"function\",\"name\":\"nonces\",\"outputs\":[{\"internalType\":\"uint256\",\"name\":\"\",\"type\":\"uint256\"}]},{\"inputs\":[],\"stateMutability\":\"view\",\"type\":\"function\",\"name\":\"owner\",\"outputs\":[{\"internalType\":\"address\",\"name\":\"\",\"type\":\"address\"}]},{\"inputs\":[{\"internalType\":\"uint256\",\"name\":\"tokenId\",\"type\":\"uint256\"}],\"stateMutability\":\"view\",\"type\":\"function\",\"name\":\"ownerOf\",\"outputs\":[{\"internalType\":\"address\",\"name\":\"\",\"type\":\"address\"}]},{\"inputs\":[],\"stateMutability\":\"nonpayable\",\"type\":\"function\",\"name\":\"renounceOwnership\"},{\"inputs\":[{\"internalType\":\"address\",\"name\":\"from\",\"type\":\"address\"},{\"internalType\":\"address\",\"name\":\"to\",\"type\":\"address\"},{\"internalType\":\"uint256\",\"name\":\"tokenId\",\"type\":\"uint256\"}],\"stateMutability\":\"nonpayable\",\"type\":\"function\",\"name\":\"safeTransferFrom\"},{\"inputs\":[{\"internalType\":\"address\",\"name\":\"from\",\"type\":\"address\"},{\"internalType\":\"address\",\"name\":\"to\",\"type\":\"address\"},{\"internalType\":\"uint256\",\"name\":\"tokenId\",\"type\":\"uint256\"},{\"internalType\":\"bytes\",\"name\":\"data\",\"type\":\"bytes\"}],\"stateMutability\":\"nonpayable\",\"type\":\"function\",\"name\":\"safeTransferFrom\"},{\"inputs\":[{\"internalType\":\"address\",\"name\":\"operator\",\"type\":\"address\"},{\"internalType\":\"bool\",\"name\":\"approved\",\"type\":\"bool\"}],\"stateMutability\":\"nonpayable\",\"type\":\"function\",\"name\":\"setApprovalForAll\"},{\"inputs\":[{\"internalType\":\"contract IJBTokenUriResolver\",\"name\":\"newResolver\",\"type\":\"address\"}],\"stateMutability\":\"nonpayable\",\"type\":\"function\",\"name\":\"setTokenUriResolver\"},{\"inputs\":[{\"internalType\":\"bytes4\",\"name\":\"interfaceId\",\"type\":\"bytes4\"}],\"stateMutability\":\"view\",\"type\":\"function\",\"name\":\"supportsInterface\",\"outputs\":[{\"internalType\":\"bool\",\"name\":\"\",\"type\":\"bool\"}]},{\"inputs\":[],\"stateMutability\":\"view\",\"type\":\"function\",\"name\":\"symbol\",\"outputs\":[{\"internalType\":\"string\",\"name\":\"\",\"type\":\"string\"}]},{\"inputs\":[{\"internalType\":\"uint256\",\"name\":\"projectId\",\"type\":\"uint256\"}],\"stateMutability\":\"view\",\"type\":\"function\",\"name\":\"tokenURI\",\"outputs\":[{\"internalType\":\"string\",\"name\":\"\",\"type\":\"string\"}]},{\"inputs\":[],\"stateMutability\":\"view\",\"type\":\"function\",\"name\":\"tokenUriResolver\",\"outputs\":[{\"internalType\":\"contract IJBTokenUriResolver\",\"name\":\"\",\"type\":\"address\"}]},{\"inputs\":[{\"internalType\":\"address\",\"name\":\"from\",\"type\":\"address\"},{\"internalType\":\"address\",\"name\":\"to\",\"type\":\"address\"},{\"internalType\":\"uint256\",\"name\":\"tokenId\",\"type\":\"uint256\"}],\"stateMutability\":\"nonpayable\",\"type\":\"function\",\"name\":\"transferFrom\"},{\"inputs\":[{\"internalType\":\"address\",\"name\":\"newOwner\",\"type\":\"address\"}],\"stateMutability\":\"nonpayable\",\"type\":\"function\",\"name\":\"transferOwnership\"}],\"devdoc\":{\"kind\":\"dev\",\"methods\":{\"CLOCK_MODE()\":{\"details\":\"Machine-readable description of the clock as specified in EIP-6372.\"},\"approve(address,uint256)\":{\"details\":\"See {IERC721-approve}.\"},\"balanceOf(address)\":{\"details\":\"See {IERC721-balanceOf}.\"},\"clock()\":{\"details\":\"Clock used for flagging checkpoints. Can be overridden to implement timestamp based checkpoints (and voting), in which case {CLOCK_MODE} should be overridden as well to match.\"},\"constructor\":{\"params\":{\"owner\":\"The owner of the contract who can set metadata.\"}},\"createFor(address)\":{\"details\":\"Anyone can create a project on an owner's behalf.\",\"params\":{\"owner\":\"The address that will be the owner of the project.\"},\"returns\":{\"projectId\":\"The token ID of the newly created project.\"}},\"delegate(address)\":{\"details\":\"Delegates votes from the sender to `delegatee`.\"},\"delegateBySig(address,uint256,uint256,uint8,bytes32,bytes32)\":{\"details\":\"Delegates votes from signer to `delegatee`.\"},\"delegates(address)\":{\"details\":\"Returns the delegate that `account` has chosen.\"},\"eip712Domain()\":{\"details\":\"See {IERC-5267}.\"},\"getApproved(uint256)\":{\"details\":\"See {IERC721-getApproved}.\"},\"getPastTotalSupply(uint256)\":{\"details\":\"Returns the total supply of votes available at a specific moment in the past. If the `clock()` is configured to use block numbers, this will return the value at the end of the corresponding block. NOTE: This value is the sum of all available votes, which is not necessarily the sum of all delegated votes. Votes that have not been delegated are still part of total supply, even though they would not participate in a vote. Requirements: - `timepoint` must be in the past. If operating using block numbers, the block must be already mined.\"},\"getPastVotes(address,uint256)\":{\"details\":\"Returns the amount of votes that `account` had at a specific moment in the past. If the `clock()` is configured to use block numbers, this will return the value at the end of the corresponding block. Requirements: - `timepoint` must be in the past. If operating using block numbers, the block must be already mined.\"},\"getVotes(address)\":{\"details\":\"Returns the current amount of votes that `account` has.\"},\"isApprovedForAll(address,address)\":{\"details\":\"See {IERC721-isApprovedForAll}.\"},\"name()\":{\"details\":\"See {IERC721Metadata-name}.\"},\"nonces(address)\":{\"details\":\"Returns the next unused nonce for an address.\"},\"owner()\":{\"details\":\"Returns the address of the current owner.\"},\"ownerOf(uint256)\":{\"details\":\"See {IERC721-ownerOf}.\"},\"renounceOwnership()\":{\"details\":\"Leaves the contract without owner. It will not be possible to call `onlyOwner` functions. Can only be called by the current owner. NOTE: Renouncing ownership will leave the contract without an owner, thereby disabling any functionality that is only available to the owner.\"},\"safeTransferFrom(address,address,uint256)\":{\"details\":\"See {IERC721-safeTransferFrom}.\"},\"safeTransferFrom(address,address,uint256,bytes)\":{\"details\":\"See {IERC721-safeTransferFrom}.\"},\"setApprovalForAll(address,bool)\":{\"details\":\"See {IERC721-setApprovalForAll}.\"},\"setTokenUriResolver(address)\":{\"params\":{\"newResolver\":\"The address of the new resolver.\"}},\"supportsInterface(bytes4)\":{\"details\":\"See {IERC165-supportsInterface}.\",\"params\":{\"interfaceId\":\"The ID of the interface to check for adherance to.\"},\"returns\":{\"_0\":\"A flag indicating if the provided interface ID is supported.\"}},\"symbol()\":{\"details\":\"See {IERC721Metadata-symbol}.\"},\"tokenURI(uint256)\":{\"params\":{\"projectId\":\"The ID of the project to get a URI of.\"},\"returns\":{\"_0\":\"The token URI to use for the provided `projectId`.\"}},\"transferFrom(address,address,uint256)\":{\"details\":\"See {IERC721-transferFrom}.\"},\"transferOwnership(address)\":{\"details\":\"Transfers ownership of the contract to a new account (`newOwner`). Can only be called by the current owner.\"}},\"version\":1},\"userdoc\":{\"kind\":\"user\",\"methods\":{\"count()\":{\"notice\":\"The number of projects that have been created using this contract.\"},\"createFor(address)\":{\"notice\":\"Create a new project for the specified owner, which mints an NFT (ERC-721) into their wallet.\"},\"setTokenUriResolver(address)\":{\"notice\":\"Sets the address of the resolver used to retrieve the tokenURI of projects.\"},\"supportsInterface(bytes4)\":{\"notice\":\"Indicates if this contract adheres to the specified interface.\"},\"tokenURI(uint256)\":{\"notice\":\"Returns the URI where the ERC-721 standard JSON of a project is hosted.\"},\"tokenUriResolver()\":{\"notice\":\"The contract resolving each project ID to its ERC721 URI.\"}},\"version\":1}},\"settings\":{\"remappings\":[\"@bananapus/=node_modules/@bananapus/\",\"@chainlink/=node_modules/@chainlink/\",\"@eth-optimism/=node_modules/@eth-optimism/\",\"@gnosis.pm/=node_modules/@gnosis.pm/\",\"@openzeppelin/=node_modules/@openzeppelin/\",\"@prb/=node_modules/@prb/\",\"@sphinx-labs/contracts/=lib/sphinx/packages/contracts/contracts/foundry/\",\"@uniswap/=node_modules/@uniswap/\",\"ds-test/=lib/forge-std/lib/ds-test/src/\",\"forge-std/=lib/forge-std/src/\",\"hardhat/=node_modules/hardhat/\",\"solmate/=node_modules/solmate/\",\"sphinx-forge-std/=node_modules/sphinx-forge-std/\",\"sphinx-solmate/=node_modules/sphinx-solmate/\",\"sphinx/=lib/sphinx/\"],\"optimizer\":{\"enabled\":true,\"runs\":200},\"metadata\":{\"bytecodeHash\":\"ipfs\"},\"compilationTarget\":{\"src/JBProjects.sol\":\"JBProjects\"},\"evmVersion\":\"paris\",\"libraries\":{}},\"sources\":{\"node_modules/@openzeppelin/contracts/access/Ownable.sol\":{\"keccak256\":\"0xff6d0bb2e285473e5311d9d3caacb525ae3538a80758c10649a4d61029b017bb\",\"urls\":[\"bzz-raw://8ed324d3920bb545059d66ab97d43e43ee85fd3bd52e03e401f020afb0b120f6\",\"dweb:/ipfs/QmfEckWLmZkDDcoWrkEvMWhms66xwTLff9DDhegYpvHo1a\"],\"license\":\"MIT\"},\"node_modules/@openzeppelin/contracts/governance/utils/IVotes.sol\":{\"keccak256\":\"0x5e2b397ae88fd5c68e4f6762eb9f65f65c36702eb57796495f471d024ce70947\",\"urls\":[\"bzz-raw://348fc8e291d54314bb22437b532f443d5dbfb80c8cc9591567c1af6554ccf856\",\"dweb:/ipfs/QmP8ZTyitZinxcpwAHeYHhwj7u21zPpKXSiww38V74sXC2\"],\"license\":\"MIT\"},\"node_modules/@openzeppelin/contracts/governance/utils/Votes.sol\":{\"keccak256\":\"0xb8f69828d41b3594afd7a8c6393565901c205d8b5baf5bd2e42dbac637172979\",\"urls\":[\"bzz-raw://c790253821191ac46b2050d87df820d4209871f90c616381e2c2c00ff3eaac34\",\"dweb:/ipfs/QmcPETTyuZBzDRL39JNXj3SBMdx3Y9o4fPQLSZ27py5Jim\"],\"license\":\"MIT\"},\"node_modules/@openzeppelin/contracts/interfaces/IERC5267.sol\":{\"keccak256\":\"0x92aa1df62dc3d33f1656d63bede0923e0df0b706ad4137c8b10b0a8fe549fd92\",\"urls\":[\"bzz-raw://c5c0f29195ad64cbe556da8e257dac8f05f78c53f90323c0d2accf8e6922d33a\",\"dweb:/ipfs/QmQ61TED8uaCZwcbh8KkgRSsCav7x7HbcGHwHts3U4DmUP\"],\"license\":\"MIT\"},\"node_modules/@openzeppelin/contracts/interfaces/IERC5805.sol\":{\"keccak256\":\"0x4b9b89f91adbb7d3574f85394754cfb08c5b4eafca8a7061e2094a019ab8f818\",\"urls\":[\"bzz-raw://7373d5dbb8eb2381aa0883a456fac89283fcaf52f42fa805d4188f270716742a\",\"dweb:/ipfs/QmVnZDmT4ABvNhRJMaQnbCzsCA8HpyHPVaxi4fCi92LFv2\"],\"license\":\"MIT\"},\"node_modules/@openzeppelin/contracts/interfaces/IERC6372.sol\":{\"keccak256\":\"0xeb2857b7dafb7e0d8526dbfe794e6c047df2851c9e6ee91dc4a55f3c34af5d33\",\"urls\":[\"bzz-raw://49bf13f6c2a38a9bcc7b852d4e2b9cebb4068b832642cce61069cdb5f06bb2fb\",\"dweb:/ipfs/QmdKAJVE7rR2kENCZnEM1yKswrGii7WuE9gZpsQvnXJhwn\"],\"license\":\"MIT\"},\"node_modules/@openzeppelin/contracts/interfaces/draft-IERC6093.sol\":{\"keccak256\":\"0x60c65f701957fdd6faea1acb0bb45825791d473693ed9ecb34726fdfaa849dd7\",\"urls\":[\"bzz-raw://ea290300e0efc4d901244949dc4d877fd46e6c5e43dc2b26620e8efab3ab803f\",\"dweb:/ipfs/QmcLLJppxKeJWqHxE2CUkcfhuRTgHSn8J4kijcLa5MYhSt\"],\"license\":\"MIT\"},\"node_modules/@openzeppelin/contracts/token/ERC721/ERC721.sol\":{\"keccak256\":\"0x13dd061770956c8489b80cfc89d9cdfc8ea2783d953691ea037a380731d52784\",\"urls\":[\"bzz-raw://ed37f0f86e7fe31659e48c3a2a5920a92dd7f13c85cf8991fb79fe5f01e08efd\",\"dweb:/ipfs/QmUtm9bQGvjr9hHGwkPWrbgFmVqzaJcxjkaYDex2oGsonS\"],\"license\":\"MIT\"},\"node_modules/@openzeppelin/contracts/token/ERC721/IERC721.sol\":{\"keccak256\":\"0x5ef46daa3b58ef2702279d514780316efaa952915ee1aa3396f041ee2982b0b4\",\"urls\":[\"bzz-raw://2f8f2a76e23b02fc69e8cd24c3cb47da6c7af3a2d6c3a382f8ac25c6e094ade7\",\"dweb:/ipfs/QmPV4ZS4tPVv4mTCf9ejyZ1ai57EEibDRj7mN2ARDCLV5n\"],\"license\":\"MIT\"},\"node_modules/@openzeppelin/contracts/token/ERC721/IERC721Receiver.sol\":{\"keccak256\":\"0x7f7a26306c79a65fb8b3b6c757cd74660c532cd8a02e165488e30027dd34ca49\",\"urls\":[\"bzz-raw://d01e0b2b837ee2f628545e54d8715b49c7ef2befd08356c2e7f6c50dde8a1c22\",\"dweb:/ipfs/QmWBAn6y2D1xgftci97Z3qR9tQnkvwQpYwFwkTvDMvqU4i\"],\"license\":\"MIT\"},\"node_modules/@openzeppelin/contracts/token/ERC721/extensions/ERC721Votes.sol\":{\"keccak256\":\"0x51eec12bef5f18ea0bad353fbdc227c67b9082d1b459f7c87f47711ad152b0b3\",\"urls\":[\"bzz-raw://3f9142b8e720fa76191a966be6fd93a2a4357f5ac86bbb5cb050e53add32bfbe\",\"dweb:/ipfs/QmdFWtPT9PrMpQkExuDLCAELqA8yfYjQpfWKymdHdRTy2T\"],\"license\":\"MIT\"},\"node_modules/@openzeppelin/contracts/token/ERC721/extensions/IERC721Metadata.sol\":{\"keccak256\":\"0x37d1aaaa5a2908a09e9dcf56a26ddf762ecf295afb5964695937344fc6802ce1\",\"urls\":[\"bzz-raw://ed0bfc1b92153c5000e50f4021367b931bbe96372ac6facec3c4961b72053d02\",\"dweb:/ipfs/Qmbwp8VDerjS5SV1quwHH1oMXxPQ93fzfLVqJ2RCqbowGE\"],\"license\":\"MIT\"},\"node_modules/@openzeppelin/contracts/utils/Context.sol\":{\"keccak256\":\"0x493033a8d1b176a037b2cc6a04dad01a5c157722049bbecf632ca876224dd4b2\",\"urls\":[\"bzz-raw://6a708e8a5bdb1011c2c381c9a5cfd8a9a956d7d0a9dc1bd8bcdaf52f76ef2f12\",\"dweb:/ipfs/Qmax9WHBnVsZP46ZxEMNRQpLQnrdE4dK8LehML1Py8FowF\"],\"license\":\"MIT\"},\"node_modules/@openzeppelin/contracts/utils/Nonces.sol\":{\"keccak256\":\"0x0082767004fca261c332e9ad100868327a863a88ef724e844857128845ab350f\",\"urls\":[\"bzz-raw://132dce9686a54e025eb5ba5d2e48208f847a1ec3e60a3e527766d7bf53fb7f9e\",\"dweb:/ipfs/QmXn1a2nUZMpu2z6S88UoTfMVtY2YNh86iGrzJDYmMkKeZ\"],\"license\":\"MIT\"},\"node_modules/@openzeppelin/contracts/utils/ShortStrings.sol\":{\"keccak256\":\"0x18a7171df639a934592915a520ecb97c5bbc9675a1105607aac8a94e72bf62c6\",\"urls\":[\"bzz-raw://7478e1f13da69a2867ccd883001d836b75620362e743f196376d63ed0c422a1c\",\"dweb:/ipfs/QmWywcQ9TNfwtoqAxbn25d8C5VrV12PrPS9UjtGe6pL2BA\"],\"license\":\"MIT\"},\"node_modules/@openzeppelin/contracts/utils/StorageSlot.sol\":{\"keccak256\":\"0x32ba59b4b7299237c8ba56319110989d7978a039faf754793064e967e5894418\",\"urls\":[\"bzz-raw://1ae50c8b562427df610cc4540c9bf104acca7ef8e2dcae567ae7e52272281e9c\",\"dweb:/ipfs/QmTHiadFCSJUPpRjNegc5SahmeU8bAoY8i9Aq6tVscbcKR\"],\"license\":\"MIT\"},\"node_modules/@openzeppelin/contracts/utils/Strings.sol\":{\"keccak256\":\"0x55f102ea785d8399c0e58d1108e2d289506dde18abc6db1b7f68c1f9f9bc5792\",\"urls\":[\"bzz-raw://6e52e0a7765c943ef14e5bcf11e46e6139fa044be564881378349236bf2e3453\",\"dweb:/ipfs/QmZEeeXoFPW47amyP35gfzomF9DixqqTEPwzBakv6cZw6i\"],\"license\":\"MIT\"},\"node_modules/@openzeppelin/contracts/utils/cryptography/ECDSA.sol\":{\"keccak256\":\"0xeed0a08b0b091f528356cbc7245891a4c748682d4f6a18055e8e6ca77d12a6cf\",\"urls\":[\"bzz-raw://ba80ba06c8e6be852847e4c5f4492cef801feb6558ae09ed705ff2e04ea8b13c\",\"dweb:/ipfs/QmXRJDv3xHLVQCVXg1ZvR35QS9sij5y9NDWYzMfUfAdTHF\"],\"license\":\"MIT\"},\"node_modules/@openzeppelin/contracts/utils/cryptography/EIP712.sol\":{\"keccak256\":\"0x999f705a027ed6dc2d4e0df2cc4a509852c6bfd11de1c8161bf88832d0503fd0\",\"urls\":[\"bzz-raw://0798def67258d9a3cc20b2b4da7ebf351a5cefe0abfdd665d2d81f8e32f89b21\",\"dweb:/ipfs/QmPEvJosnPfzHNjKvCv2D3891mA2Ww8eUwkqrxBjuYdHCt\"],\"license\":\"MIT\"},\"node_modules/@openzeppelin/contracts/utils/cryptography/MessageHashUtils.sol\":{\"keccak256\":\"0xba333517a3add42cd35fe877656fc3dfcc9de53baa4f3aabbd6d12a92e4ea435\",\"urls\":[\"bzz-raw://2ceacff44c0fdc81e48e0e0b1db87a2076d3c1fb497341de077bf1da9f6b406c\",\"dweb:/ipfs/QmRUo1muMRAewxrKQ7TkXUtknyRoR57AyEkoPpiuZQ8FzX\"],\"license\":\"MIT\"},\"node_modules/@openzeppelin/contracts/utils/introspection/ERC165.sol\":{\"keccak256\":\"0x9e8778b14317ba9e256c30a76fd6c32b960af621987f56069e1e819c77c6a133\",\"urls\":[\"bzz-raw://1777404f1dcd0fac188e55a288724ec3c67b45288e49cc64723e95e702b49ab8\",\"dweb:/ipfs/QmZFdC626GButBApwDUvvTnUzdinevC3B24d7yyh57XkiA\"],\"license\":\"MIT\"},\"node_modules/@openzeppelin/contracts/utils/introspection/IERC165.sol\":{\"keccak256\":\"0x4296879f55019b23e135000eb36896057e7101fb7fb859c5ef690cf14643757b\",\"urls\":[\"bzz-raw://87b3541437c8c443ccd36795e56a338ed12855eec17f8da624511b8d1a7e14df\",\"dweb:/ipfs/QmeJQCtZrQjtJLr6u7ZHWeH3pBnjtLWzvRrKViAi7UZqxL\"],\"license\":\"MIT\"},\"node_modules/@openzeppelin/contracts/utils/math/Math.sol\":{\"keccak256\":\"0x005ec64c6313f0555d59e278f9a7a5ab2db5bdc72a027f255a37c327af1ec02d\",\"urls\":[\"bzz-raw://4ece9f0b9c8daca08c76b6b5405a6446b6f73b3a15fab7ff56e296cbd4a2c875\",\"dweb:/ipfs/QmQyRpyPRL5SQuAgj6SHmbir3foX65FJjbVTTQrA2EFg6L\"],\"license\":\"MIT\"},\"node_modules/@openzeppelin/contracts/utils/math/SafeCast.sol\":{\"keccak256\":\"0xe19a4d5f31d2861e7344e8e535e2feafb913d806d3e2b5fe7782741a2a7094fe\",\"urls\":[\"bzz-raw://4aed79c0fa6f0546ed02f2f683e8f77f0fd2ed7eb34d8bbf3d373c9a6d95b13c\",\"dweb:/ipfs/QmWqVz6UAVqmnWU5pqYPt1o6iDEZyPaBraAA3rKfTTSfYj\"],\"license\":\"MIT\"},\"node_modules/@openzeppelin/contracts/utils/math/SignedMath.sol\":{\"keccak256\":\"0x5f7e4076e175393767754387c962926577f1660dd9b810187b9002407656be72\",\"urls\":[\"bzz-raw://7d533a1c97cd43a57cd9c465f7ee8dd0e39ae93a8fb8ff8e5303a356b081cdcc\",\"dweb:/ipfs/QmVBEei6aTnvYNZp2CHYVNKyZS4q1KkjANfY39WVXZXVoT\"],\"license\":\"MIT\"},\"node_modules/@openzeppelin/contracts/utils/structs/Checkpoints.sol\":{\"keccak256\":\"0xbdc5e074d7dd6678f67e92b1a51a20226801a407b0e1af3da367c5d1ff4519ad\",\"urls\":[\"bzz-raw://a36cca6b22fff3db16fc789ff6c60eea71d4b156065d4d0c83a0bc5e91a77a8b\",\"dweb:/ipfs/QmYN3exd5AemxjBrN8XMB1p5LbbE16uC3sjbYjwi8AjcGR\"],\"license\":\"MIT\"},\"node_modules/@openzeppelin/contracts/utils/types/Time.sol\":{\"keccak256\":\"0xc7755af115020049e4140f224f9ee88d7e1799ffb0646f37bf0df24bf6213f58\",\"urls\":[\"bzz-raw://7f09bf94d5274334ec021f61a04659db303f31e60460e14b709c9bf187740111\",\"dweb:/ipfs/QmNvgomZYUwFAt4cZbPWAiTeSZQreGehY9BK5xyVJsUttb\"],\"license\":\"MIT\"},\"src/JBProjects.sol\":{\"keccak256\":\"0xb959e3d60bc4a8a43b9358be16549ca6d10059db3467c43703fa0c6c8e73621a\",\"urls\":[\"bzz-raw://5eb424d178e5946688c7ad6bfc7420c3c8bd7e9d5b2a0fef175462a6a4710012\",\"dweb:/ipfs/QmeXuNoYXrNZVrom4f6Mk5bcKbGk5BtRCzXKf9cpZDoCKW\"],\"license\":\"MIT\"},\"src/interfaces/IJBProjects.sol\":{\"keccak256\":\"0x85539f72c5871c53a919edc7db78931155464e9e00fccd30079b17e75820ddb9\",\"urls\":[\"bzz-raw://505466dbfbdeec77f948ce065676897a5b4a74b70bb234c1053b893c4849f3a1\",\"dweb:/ipfs/QmYBpZQub3Mv19xsRWqvzgiQSBAp4UNaKcqWQ2wwH62H95\"],\"license\":\"MIT\"},\"src/interfaces/IJBTokenUriResolver.sol\":{\"keccak256\":\"0xfa5cb00dcd6085d1ef912d071fe73c63f9478a2cd0f9d8bddaf659b6af2d0967\",\"urls\":[\"bzz-raw://282e4e7c342d65f77cde0e9a08fcaf20ef5cf379c7a48b639842c0ffd0b2afb8\",\"dweb:/ipfs/QmbnN3PEQeZaXdPLT75V1J79kMg7KqSMru37RHrL3z8Yf2\"],\"license\":\"MIT\"}},\"version\":1}",
			"args": [
				"0x823b92d6a4b2AED4b15675c7917c9f922ea8ADAD"
			],
			"bytecode": "0x6101606040526000600d553480156200001757600080fd5b5060405162002930380380620029308339810160408190526200003a91620002b5565b80604051806040016040528060118152602001704a75696365626f782050726f6a6563747360781b815250604051806040016040528060018152602001603160f81b815250604051806040016040528060118152602001704a75696365626f782050726f6a6563747360781b81525060405180604001604052806008815260200167094aa92868a849eb60c31b8152508160009081620000db91906200038e565b506001620000ea82826200038e565b50620000fc91508390506006620001e7565b610120526200010d816007620001e7565b61014052815160208084019190912060e052815190820120610100524660a0526200019b60e05161010051604080517f8b73c3c69bb8fe3d512ecc4cf759cc79239f7b179b0ffacaa9a75d522b39400f60208201529081019290925260608201524660808201523060a082015260009060c00160405160208183030381529060405280519060200120905090565b60805250503060c0526001600160a01b038116620001d457604051631e4fbdf760e01b8152600060048201526024015b60405180910390fd5b620001df8162000220565b5050620004d0565b60006020835110156200020757620001ff8362000272565b90506200021a565b816200021484826200038e565b5060ff90505b92915050565b600c80546001600160a01b038381166001600160a01b0319831681179093556040519116919082907f8be0079c531659141344cd1fd0a4f28419497f9722a3daafe3b4186f6b6457e090600090a35050565b600080829050601f81511115620002a0578260405163305a27a960e01b8152600401620001cb91906200045a565b8051620002ad82620004ab565b179392505050565b600060208284031215620002c857600080fd5b81516001600160a01b0381168114620002e057600080fd5b9392505050565b634e487b7160e01b600052604160045260246000fd5b600181811c908216806200031257607f821691505b6020821081036200033357634e487b7160e01b600052602260045260246000fd5b50919050565b601f82111562000389576000816000526020600020601f850160051c81016020861015620003645750805b601f850160051c820191505b81811015620003855782815560010162000370565b5050505b505050565b81516001600160401b03811115620003aa57620003aa620002e7565b620003c281620003bb8454620002fd565b8462000339565b602080601f831160018114620003fa5760008415620003e15750858301515b600019600386901b1c1916600185901b17855562000385565b600085815260208120601f198616915b828110156200042b578886015182559484019460019091019084016200040a565b50858210156200044a5787850151600019600388901b60f8161c191681555b5050505050600190811b01905550565b60006020808352835180602085015260005b818110156200048a578581018301518582016040015282016200046c565b506000604082860101526040601f19601f8301168501019250505092915050565b80516020808301519190811015620003335760001960209190910360031b1b16919050565b60805160a05160c05160e0516101005161012051610140516124056200052b6000396000610e0801526000610ddb015260006117c9015260006117a1015260006116fc015260006117260152600061175001526124056000f3fe608060405234801561001057600080fd5b50600436106101da5760003560e01c80637ecebe0011610104578063a22cb465116100a2578063c87b56dd11610071578063c87b56dd14610422578063e131fc0c14610435578063e985e9c514610448578063f2fde38b1461045b57600080fd5b8063a22cb465146103d6578063b88d4fde146103e9578063c0715888146103fc578063c3cda5201461040f57600080fd5b80638e539e8c116100de5780638e539e8c1461038957806391ddadf41461039c57806395d89b41146103bb5780639ab24eb0146103c357600080fd5b80637ecebe001461033457806384b0196e1461035d5780638da5cb5b1461037857600080fd5b80633a46b1a81161017c5780635c19a95c1161014b5780635c19a95c146102f35780636352211e1461030657806370a0823114610319578063715018a61461032c57600080fd5b80633a46b1a81461029957806342842e0e146102ac5780634bf5d7e9146102bf578063587cde1e146102c757600080fd5b8063081812fc116101b8578063081812fc14610233578063095ea7b31461025e57806323b872dd146102735780632407497e1461028657600080fd5b806301ffc9a7146101df57806306661abd1461020757806306fdde031461021e575b600080fd5b6101f26101ed366004611e1d565b61046e565b60405190151581526020015b60405180910390f35b610210600d5481565b6040519081526020016101fe565b610226610499565b6040516101fe9190611e8a565b610246610241366004611e9d565b61052b565b6040516001600160a01b0390911681526020016101fe565b61027161026c366004611ecb565b610554565b005b610271610281366004611ef7565b610563565b610271610294366004611f38565b6105f3565b6102106102a7366004611ecb565b610650565b6102716102ba366004611ef7565b6106d1565b6102266106f1565b6102466102d5366004611f38565b6001600160a01b039081166000908152600960205260409020541690565b610271610301366004611f38565b610769565b610246610314366004611e9d565b610774565b610210610327366004611f38565b61077f565b6102716107c7565b610210610342366004611f38565b6001600160a01b031660009081526008602052604090205490565b6103656107db565b6040516101fe9796959493929190611f55565b600c546001600160a01b0316610246565b610210610397366004611e9d565b610821565b6103a461088b565b60405165ffffffffffff90911681526020016101fe565b61022661089a565b6102106103d1366004611f38565b6108a9565b6102716103e4366004611fee565b6108d9565b6102716103f736600461209b565b6108e4565b61021061040a366004611f38565b6108fb565b61027161041d36600461214a565b61096a565b610226610430366004611e9d565b610a27565b600e54610246906001600160a01b031681565b6101f26104563660046121ac565b610ac5565b610271610469366004611f38565b610af3565b60006001600160e01b03198216630321f74760e01b1480610493575061049382610b31565b92915050565b6060600080546104a8906121da565b80601f01602080910402602001604051908101604052809291908181526020018280546104d4906121da565b80156105215780601f106104f657610100808354040283529160200191610521565b820191906000526020600020905b81548152906001019060200180831161050457829003601f168201915b5050505050905090565b600061053682610b81565b506000828152600460205260409020546001600160a01b0316610493565b61055f828233610bba565b5050565b6001600160a01b03821661059257604051633250574960e11b8152600060048201526024015b60405180910390fd5b600061059f838333610bc7565b9050836001600160a01b0316816001600160a01b0316146105ed576040516364283d7b60e01b81526001600160a01b0380861660048301526024820184905282166044820152606401610589565b50505050565b6105fb610beb565b600e80546001600160a01b0383166001600160a01b031990911681179091556040805133815290517fe7784d93cfbfa4408e19577e6cc0436f4dbb51214b70e100905dfce9def88c169181900360200190a250565b60008061065b61088b565b90508065ffffffffffff16831061069657604051637669fc0f60e11b81526004810184905265ffffffffffff82166024820152604401610589565b6106c06106a284610c18565b6001600160a01b0386166000908152600a6020526040902090610c4f565b6001600160d01b0316949350505050565b6106ec838383604051806020016040528060008152506108e4565b505050565b60606106fb610d05565b65ffffffffffff1661070b61088b565b65ffffffffffff1614610731576040516301bfc1c560e61b815260040160405180910390fd5b5060408051808201909152601d81527f6d6f64653d626c6f636b6e756d6265722666726f6d3d64656661756c74000000602082015290565b3361055f8183610d10565b600061049382610b81565b60006001600160a01b0382166107ab576040516322718ad960e21b815260006004820152602401610589565b506001600160a01b031660009081526003602052604090205490565b6107cf610beb565b6107d96000610d82565b565b6000606080600080600060606107ef610dd4565b6107f7610e01565b60408051600080825260208201909252600f60f81b9b939a50919850469750309650945092509050565b60008061082c61088b565b90508065ffffffffffff16831061086757604051637669fc0f60e11b81526004810184905265ffffffffffff82166024820152604401610589565b61087b61087384610c18565b600b90610c4f565b6001600160d01b03169392505050565b6000610895610d05565b905090565b6060600180546104a8906121da565b6001600160a01b0381166000908152600a602052604081206108ca90610e2e565b6001600160d01b031692915050565b61055f338383610e67565b6108ef848484610563565b6105ed84848484610f06565b6000600d6000815461090c9061222a565b9182905550905061091d828261102f565b6001600160a01b038216817f365b3162cd780731fc55a794b59494d472bc2af701007f581843a70673814698336040516001600160a01b03909116815260200160405180910390a3919050565b8342111561098e57604051632341d78760e11b815260048101859052602401610589565b604080517fe48329057bfd03d55e49b547132e39cffd9c1820ad7b9d4c5307691425d15adf60208201526001600160a01b038816918101919091526060810186905260808101859052600090610a0890610a009060a00160405160208183030381529060405280519060200120611049565b858585611076565b9050610a1481876110a4565b610a1e8188610d10565b50505050505050565b600e546060906001600160a01b031680610a51575050604080516020810190915260008152919050565b604051636d02a25560e11b8152600481018490526001600160a01b0382169063da0544aa90602401600060405180830381865afa158015610a96573d6000803e3d6000fd5b505050506040513d6000823e601f3d908101601f19168201604052610abe9190810190612243565b9392505050565b6001600160a01b03918216600090815260056020908152604080832093909416825291909152205460ff1690565b610afb610beb565b6001600160a01b038116610b2557604051631e4fbdf760e01b815260006004820152602401610589565b610b2e81610d82565b50565b60006001600160e01b031982166380ac58cd60e01b1480610b6257506001600160e01b03198216635b5e139f60e01b145b8061049357506301ffc9a760e01b6001600160e01b0319831614610493565b6000818152600260205260408120546001600160a01b03168061049357604051637e27328960e01b815260048101849052602401610589565b6106ec83838360016110f7565b600080610bd58585856111fd565b9050610be3818660016112f6565b949350505050565b600c546001600160a01b031633146107d95760405163118cdaa760e01b8152336004820152602401610589565b600065ffffffffffff821115610c4b576040516306dfcc6560e41b81526030600482015260248101839052604401610589565b5090565b815460009081816005811115610cae576000610c6a84611371565b610c7490856122ba565b60008881526020902090915081015465ffffffffffff9081169087161015610c9e57809150610cac565b610ca98160016122cd565b92505b505b6000610cbc87878585611459565b90508015610cf757610ce187610cd36001846122ba565b600091825260209091200190565b54600160301b90046001600160d01b0316610cfa565b60005b979650505050505050565b600061089543610c18565b6001600160a01b0382811660008181526009602052604080822080548686166001600160a01b0319821681179092559151919094169392849290917f3134e8a2e6d97e929a7e54011ea5485d7d196dd5f0ba4d4ef95803e8e3fc257f9190a46106ec8183610d7d866114bb565b6114c6565b600c80546001600160a01b038381166001600160a01b0319831681179093556040519116919082907f8be0079c531659141344cd1fd0a4f28419497f9722a3daafe3b4186f6b6457e090600090a35050565b60606108957f0000000000000000000000000000000000000000000000000000000000000000600661162d565b60606108957f0000000000000000000000000000000000000000000000000000000000000000600761162d565b80546000908015610e5e57610e4883610cd36001846122ba565b54600160301b90046001600160d01b0316610abe565b60009392505050565b6001600160a01b038216610e9957604051630b61174360e31b81526001600160a01b0383166004820152602401610589565b6001600160a01b03838116600081815260056020908152604080832094871680845294825291829020805460ff191686151590811790915591519182527f17307eab39ab6107e8899845ad3d59bd9653f200f220920489ca2b5937696c31910160405180910390a3505050565b6001600160a01b0383163b156105ed57604051630a85bd0160e11b81526001600160a01b0384169063150b7a0290610f489033908890879087906004016122e0565b6020604051808303816000875af1925050508015610f83575060408051601f3d908101601f19168201909252610f809181019061231d565b60015b610fec573d808015610fb1576040519150601f19603f3d011682016040523d82523d6000602084013e610fb6565b606091505b508051600003610fe457604051633250574960e11b81526001600160a01b0385166004820152602401610589565b805181602001fd5b6001600160e01b03198116630a85bd0160e11b1461102857604051633250574960e11b81526001600160a01b0385166004820152602401610589565b5050505050565b61055f8282604051806020016040528060008152506116d8565b60006104936110566116ef565b8360405161190160f01b8152600281019290925260228201526042902090565b6000806000806110888888888861181a565b92509250925061109882826118e9565b50909695505050505050565b6001600160a01b03821660009081526008602052604090208054600181019091558181146106ec576040516301d4b62360e61b81526001600160a01b038416600482015260248101829052604401610589565b808061110b57506001600160a01b03821615155b156111cd57600061111b84610b81565b90506001600160a01b038316158015906111475750826001600160a01b0316816001600160a01b031614155b801561115a57506111588184610ac5565b155b156111835760405163a9fbf51f60e01b81526001600160a01b0384166004820152602401610589565b81156111cb5783856001600160a01b0316826001600160a01b03167f8c5be1e5ebec7d5bd14f71427d1e84f3dd0314c0f7b2291e5b200ac8c7c3b92560405160405180910390a45b505b5050600090815260046020526040902080546001600160a01b0319166001600160a01b0392909216919091179055565b6000828152600260205260408120546001600160a01b039081169083161561122a5761122a8184866119a2565b6001600160a01b03811615611268576112476000856000806110f7565b6001600160a01b038116600090815260036020526040902080546000190190555b6001600160a01b03851615611297576001600160a01b0385166000908152600360205260409020805460010190555b60008481526002602052604080822080546001600160a01b0319166001600160a01b0389811691821790925591518793918516917fddf252ad1be2c89b69c2b068fc378daa952ba7f163c4a11628f55a4df523b3ef91a4949350505050565b6001600160a01b03831661131d5761131a600b611a0661131584611a12565b611a46565b50505b6001600160a01b03821661133f5761133c600b611a7f61131584611a12565b50505b6001600160a01b038381166000908152600960205260408082205485841683529120546106ec929182169116836114c6565b60008160000361138357506000919050565b6000600161139084611a8b565b901c6001901b905060018184816113a9576113a961233a565b048201901c905060018184816113c1576113c161233a565b048201901c905060018184816113d9576113d961233a565b048201901c905060018184816113f1576113f161233a565b048201901c905060018184816114095761140961233a565b048201901c905060018184816114215761142161233a565b048201901c905060018184816114395761143961233a565b048201901c9050610abe818285816114535761145361233a565b04611b1f565b60005b818310156114b35760006114708484611b35565b60008781526020902090915065ffffffffffff86169082015465ffffffffffff16111561149f578092506114ad565b6114aa8160016122cd565b93505b5061145c565b509392505050565b60006104938261077f565b816001600160a01b0316836001600160a01b0316141580156114e85750600081115b156106ec576001600160a01b0383161561158b576001600160a01b0383166000908152600a60205260408120819061152690611a7f61131586611a12565b6001600160d01b031691506001600160d01b03169150846001600160a01b03167fdec2bacdd2f05b59de34da9b523dff8be42e5e38e818c82fdb0bae774387a7248383604051611580929190918252602082015260400190565b60405180910390a250505b6001600160a01b038216156106ec576001600160a01b0382166000908152600a6020526040812081906115c490611a0661131586611a12565b6001600160d01b031691506001600160d01b03169150836001600160a01b03167fdec2bacdd2f05b59de34da9b523dff8be42e5e38e818c82fdb0bae774387a724838360405161161e929190918252602082015260400190565b60405180910390a25050505050565b606060ff83146116475761164083611b50565b9050610493565b818054611653906121da565b80601f016020809104026020016040519081016040528092919081815260200182805461167f906121da565b80156116cc5780601f106116a1576101008083540402835291602001916116cc565b820191906000526020600020905b8154815290600101906020018083116116af57829003601f168201915b50505050509050610493565b6116e28383611b8f565b6106ec6000848484610f06565b6000306001600160a01b037f00000000000000000000000000000000000000000000000000000000000000001614801561174857507f000000000000000000000000000000000000000000000000000000000000000046145b1561177257507f000000000000000000000000000000000000000000000000000000000000000090565b610895604080517f8b73c3c69bb8fe3d512ecc4cf759cc79239f7b179b0ffacaa9a75d522b39400f60208201527f0000000000000000000000000000000000000000000000000000000000000000918101919091527f000000000000000000000000000000000000000000000000000000000000000060608201524660808201523060a082015260009060c00160405160208183030381529060405280519060200120905090565b600080807f7fffffffffffffffffffffffffffffff5d576e7357a4501ddfe92f46681b20a084111561185557506000915060039050826118df565b604080516000808252602082018084528a905260ff891692820192909252606081018790526080810186905260019060a0016020604051602081039080840390855afa1580156118a9573d6000803e3d6000fd5b5050604051601f1901519150506001600160a01b0381166118d5575060009250600191508290506118df565b9250600091508190505b9450945094915050565b60008260038111156118fd576118fd612350565b03611906575050565b600182600381111561191a5761191a612350565b036119385760405163f645eedf60e01b815260040160405180910390fd5b600282600381111561194c5761194c612350565b0361196d5760405163fce698f760e01b815260048101829052602401610589565b600382600381111561198157611981612350565b0361055f576040516335e2f38360e21b815260048101829052602401610589565b6119ad838383611bf4565b6106ec576001600160a01b0383166119db57604051637e27328960e01b815260048101829052602401610589565b60405163177e802f60e01b81526001600160a01b038316600482015260248101829052604401610589565b6000610abe8284612366565b60006001600160d01b03821115610c4b576040516306dfcc6560e41b815260d0600482015260248101839052604401610589565b600080611a72611a5461088b565b611a6a611a6088610e2e565b868863ffffffff16565b879190611c57565b915091505b935093915050565b6000610abe828461238d565b600080608083901c15611aa057608092831c92015b604083901c15611ab257604092831c92015b602083901c15611ac457602092831c92015b601083901c15611ad657601092831c92015b600883901c15611ae857600892831c92015b600483901c15611afa57600492831c92015b600283901c15611b0c57600292831c92015b600183901c156104935760010192915050565b6000818310611b2e5781610abe565b5090919050565b6000611b4460028484186123ad565b610abe908484166122cd565b60606000611b5d83611c65565b604080516020808252818301909252919250600091906020820181803683375050509182525060208101929092525090565b6001600160a01b038216611bb957604051633250574960e11b815260006004820152602401610589565b6000611bc783836000610bc7565b90506001600160a01b038116156106ec576040516339e3563760e11b815260006004820152602401610589565b60006001600160a01b03831615801590610be35750826001600160a01b0316846001600160a01b03161480611c2e5750611c2e8484610ac5565b80610be35750506000908152600460205260409020546001600160a01b03908116911614919050565b600080611a72858585611c8d565b600060ff8216601f81111561049357604051632cd44ac360e21b815260040160405180910390fd5b825460009081908015611dac576000611cab87610cd36001856122ba565b60408051808201909152905465ffffffffffff808216808452600160301b9092046001600160d01b031660208401529192509087161015611cff57604051632520601d60e01b815260040160405180910390fd5b805165ffffffffffff808816911603611d4b5784611d2288610cd36001866122ba565b80546001600160d01b0392909216600160301b0265ffffffffffff909216919091179055611d9c565b6040805180820190915265ffffffffffff80881682526001600160d01b0380881660208085019182528b54600181018d5560008d81529190912094519151909216600160301b029216919091179101555b602001519250839150611a779050565b50506040805180820190915265ffffffffffff80851682526001600160d01b0380851660208085019182528854600181018a5560008a815291822095519251909316600160301b029190931617920191909155905081611a77565b6001600160e01b031981168114610b2e57600080fd5b600060208284031215611e2f57600080fd5b8135610abe81611e07565b60005b83811015611e55578181015183820152602001611e3d565b50506000910152565b60008151808452611e76816020860160208601611e3a565b601f01601f19169290920160200192915050565b602081526000610abe6020830184611e5e565b600060208284031215611eaf57600080fd5b5035919050565b6001600160a01b0381168114610b2e57600080fd5b60008060408385031215611ede57600080fd5b8235611ee981611eb6565b946020939093013593505050565b600080600060608486031215611f0c57600080fd5b8335611f1781611eb6565b92506020840135611f2781611eb6565b929592945050506040919091013590565b600060208284031215611f4a57600080fd5b8135610abe81611eb6565b60ff60f81b881681526000602060e06020840152611f7660e084018a611e5e565b8381036040850152611f88818a611e5e565b606085018990526001600160a01b038816608086015260a0850187905284810360c08601528551808252602080880193509091019060005b81811015611fdc57835183529284019291840191600101611fc0565b50909c9b505050505050505050505050565b6000806040838503121561200157600080fd5b823561200c81611eb6565b91506020830135801515811461202157600080fd5b809150509250929050565b634e487b7160e01b600052604160045260246000fd5b604051601f8201601f1916810167ffffffffffffffff8111828210171561206b5761206b61202c565b604052919050565b600067ffffffffffffffff82111561208d5761208d61202c565b50601f01601f191660200190565b600080600080608085870312156120b157600080fd5b84356120bc81611eb6565b935060208501356120cc81611eb6565b925060408501359150606085013567ffffffffffffffff8111156120ef57600080fd5b8501601f8101871361210057600080fd5b803561211361210e82612073565b612042565b81815288602083850101111561212857600080fd5b8160208401602083013760006020838301015280935050505092959194509250565b60008060008060008060c0878903121561216357600080fd5b863561216e81611eb6565b95506020870135945060408701359350606087013560ff8116811461219257600080fd5b9598949750929560808101359460a0909101359350915050565b600080604083850312156121bf57600080fd5b82356121ca81611eb6565b9150602083013561202181611eb6565b600181811c908216806121ee57607f821691505b60208210810361220e57634e487b7160e01b600052602260045260246000fd5b50919050565b634e487b7160e01b600052601160045260246000fd5b60006001820161223c5761223c612214565b5060010190565b60006020828403121561225557600080fd5b815167ffffffffffffffff81111561226c57600080fd5b8201601f8101841361227d57600080fd5b805161228b61210e82612073565b8181528560208385010111156122a057600080fd5b6122b1826020830160208601611e3a565b95945050505050565b8181038181111561049357610493612214565b8082018082111561049357610493612214565b6001600160a01b038581168252841660208201526040810183905260806060820181905260009061231390830184611e5e565b9695505050505050565b60006020828403121561232f57600080fd5b8151610abe81611e07565b634e487b7160e01b600052601260045260246000fd5b634e487b7160e01b600052602160045260246000fd5b6001600160d01b0381811683821601908082111561238657612386612214565b5092915050565b6001600160d01b0382811682821603908082111561238657612386612214565b6000826123ca57634e487b7160e01b600052601260045260246000fd5b50049056fea2646970667358221220212b53690543126073ac3819b10564780362be86ee0a9d0b651836ee9d71d71e64736f6c63430008170033",
			"deployedBytecode": "0x608060405234801561001057600080fd5b50600436106101da5760003560e01c80637ecebe0011610104578063a22cb465116100a2578063c87b56dd11610071578063c87b56dd14610422578063e131fc0c14610435578063e985e9c514610448578063f2fde38b1461045b57600080fd5b8063a22cb465146103d6578063b88d4fde146103e9578063c0715888146103fc578063c3cda5201461040f57600080fd5b80638e539e8c116100de5780638e539e8c1461038957806391ddadf41461039c57806395d89b41146103bb5780639ab24eb0146103c357600080fd5b80637ecebe001461033457806384b0196e1461035d5780638da5cb5b1461037857600080fd5b80633a46b1a81161017c5780635c19a95c1161014b5780635c19a95c146102f35780636352211e1461030657806370a0823114610319578063715018a61461032c57600080fd5b80633a46b1a81461029957806342842e0e146102ac5780634bf5d7e9146102bf578063587cde1e146102c757600080fd5b8063081812fc116101b8578063081812fc14610233578063095ea7b31461025e57806323b872dd146102735780632407497e1461028657600080fd5b806301ffc9a7146101df57806306661abd1461020757806306fdde031461021e575b600080fd5b6101f26101ed366004611e1d565b61046e565b60405190151581526020015b60405180910390f35b610210600d5481565b6040519081526020016101fe565b610226610499565b6040516101fe9190611e8a565b610246610241366004611e9d565b61052b565b6040516001600160a01b0390911681526020016101fe565b61027161026c366004611ecb565b610554565b005b610271610281366004611ef7565b610563565b610271610294366004611f38565b6105f3565b6102106102a7366004611ecb565b610650565b6102716102ba366004611ef7565b6106d1565b6102266106f1565b6102466102d5366004611f38565b6001600160a01b039081166000908152600960205260409020541690565b610271610301366004611f38565b610769565b610246610314366004611e9d565b610774565b610210610327366004611f38565b61077f565b6102716107c7565b610210610342366004611f38565b6001600160a01b031660009081526008602052604090205490565b6103656107db565b6040516101fe9796959493929190611f55565b600c546001600160a01b0316610246565b610210610397366004611e9d565b610821565b6103a461088b565b60405165ffffffffffff90911681526020016101fe565b61022661089a565b6102106103d1366004611f38565b6108a9565b6102716103e4366004611fee565b6108d9565b6102716103f736600461209b565b6108e4565b61021061040a366004611f38565b6108fb565b61027161041d36600461214a565b61096a565b610226610430366004611e9d565b610a27565b600e54610246906001600160a01b031681565b6101f26104563660046121ac565b610ac5565b610271610469366004611f38565b610af3565b60006001600160e01b03198216630321f74760e01b1480610493575061049382610b31565b92915050565b6060600080546104a8906121da565b80601f01602080910402602001604051908101604052809291908181526020018280546104d4906121da565b80156105215780601f106104f657610100808354040283529160200191610521565b820191906000526020600020905b81548152906001019060200180831161050457829003601f168201915b5050505050905090565b600061053682610b81565b506000828152600460205260409020546001600160a01b0316610493565b61055f828233610bba565b5050565b6001600160a01b03821661059257604051633250574960e11b8152600060048201526024015b60405180910390fd5b600061059f838333610bc7565b9050836001600160a01b0316816001600160a01b0316146105ed576040516364283d7b60e01b81526001600160a01b0380861660048301526024820184905282166044820152606401610589565b50505050565b6105fb610beb565b600e80546001600160a01b0383166001600160a01b031990911681179091556040805133815290517fe7784d93cfbfa4408e19577e6cc0436f4dbb51214b70e100905dfce9def88c169181900360200190a250565b60008061065b61088b565b90508065ffffffffffff16831061069657604051637669fc0f60e11b81526004810184905265ffffffffffff82166024820152604401610589565b6106c06106a284610c18565b6001600160a01b0386166000908152600a6020526040902090610c4f565b6001600160d01b0316949350505050565b6106ec838383604051806020016040528060008152506108e4565b505050565b60606106fb610d05565b65ffffffffffff1661070b61088b565b65ffffffffffff1614610731576040516301bfc1c560e61b815260040160405180910390fd5b5060408051808201909152601d81527f6d6f64653d626c6f636b6e756d6265722666726f6d3d64656661756c74000000602082015290565b3361055f8183610d10565b600061049382610b81565b60006001600160a01b0382166107ab576040516322718ad960e21b815260006004820152602401610589565b506001600160a01b031660009081526003602052604090205490565b6107cf610beb565b6107d96000610d82565b565b6000606080600080600060606107ef610dd4565b6107f7610e01565b60408051600080825260208201909252600f60f81b9b939a50919850469750309650945092509050565b60008061082c61088b565b90508065ffffffffffff16831061086757604051637669fc0f60e11b81526004810184905265ffffffffffff82166024820152604401610589565b61087b61087384610c18565b600b90610c4f565b6001600160d01b03169392505050565b6000610895610d05565b905090565b6060600180546104a8906121da565b6001600160a01b0381166000908152600a602052604081206108ca90610e2e565b6001600160d01b031692915050565b61055f338383610e67565b6108ef848484610563565b6105ed84848484610f06565b6000600d6000815461090c9061222a565b9182905550905061091d828261102f565b6001600160a01b038216817f365b3162cd780731fc55a794b59494d472bc2af701007f581843a70673814698336040516001600160a01b03909116815260200160405180910390a3919050565b8342111561098e57604051632341d78760e11b815260048101859052602401610589565b604080517fe48329057bfd03d55e49b547132e39cffd9c1820ad7b9d4c5307691425d15adf60208201526001600160a01b038816918101919091526060810186905260808101859052600090610a0890610a009060a00160405160208183030381529060405280519060200120611049565b858585611076565b9050610a1481876110a4565b610a1e8188610d10565b50505050505050565b600e546060906001600160a01b031680610a51575050604080516020810190915260008152919050565b604051636d02a25560e11b8152600481018490526001600160a01b0382169063da0544aa90602401600060405180830381865afa158015610a96573d6000803e3d6000fd5b505050506040513d6000823e601f3d908101601f19168201604052610abe9190810190612243565b9392505050565b6001600160a01b03918216600090815260056020908152604080832093909416825291909152205460ff1690565b610afb610beb565b6001600160a01b038116610b2557604051631e4fbdf760e01b815260006004820152602401610589565b610b2e81610d82565b50565b60006001600160e01b031982166380ac58cd60e01b1480610b6257506001600160e01b03198216635b5e139f60e01b145b8061049357506301ffc9a760e01b6001600160e01b0319831614610493565b6000818152600260205260408120546001600160a01b03168061049357604051637e27328960e01b815260048101849052602401610589565b6106ec83838360016110f7565b600080610bd58585856111fd565b9050610be3818660016112f6565b949350505050565b600c546001600160a01b031633146107d95760405163118cdaa760e01b8152336004820152602401610589565b600065ffffffffffff821115610c4b576040516306dfcc6560e41b81526030600482015260248101839052604401610589565b5090565b815460009081816005811115610cae576000610c6a84611371565b610c7490856122ba565b60008881526020902090915081015465ffffffffffff9081169087161015610c9e57809150610cac565b610ca98160016122cd565b92505b505b6000610cbc87878585611459565b90508015610cf757610ce187610cd36001846122ba565b600091825260209091200190565b54600160301b90046001600160d01b0316610cfa565b60005b979650505050505050565b600061089543610c18565b6001600160a01b0382811660008181526009602052604080822080548686166001600160a01b0319821681179092559151919094169392849290917f3134e8a2e6d97e929a7e54011ea5485d7d196dd5f0ba4d4ef95803e8e3fc257f9190a46106ec8183610d7d866114bb565b6114c6565b600c80546001600160a01b038381166001600160a01b0319831681179093556040519116919082907f8be0079c531659141344cd1fd0a4f28419497f9722a3daafe3b4186f6b6457e090600090a35050565b60606108957f4a75696365626f782050726f6a65637473000000000000000000000000000011600661162d565b60606108957f3100000000000000000000000000000000000000000000000000000000000001600761162d565b80546000908015610e5e57610e4883610cd36001846122ba565b54600160301b90046001600160d01b0316610abe565b60009392505050565b6001600160a01b038216610e9957604051630b61174360e31b81526001600160a01b0383166004820152602401610589565b6001600160a01b03838116600081815260056020908152604080832094871680845294825291829020805460ff191686151590811790915591519182527f17307eab39ab6107e8899845ad3d59bd9653f200f220920489ca2b5937696c31910160405180910390a3505050565b6001600160a01b0383163b156105ed57604051630a85bd0160e11b81526001600160a01b0384169063150b7a0290610f489033908890879087906004016122e0565b6020604051808303816000875af1925050508015610f83575060408051601f3d908101601f19168201909252610f809181019061231d565b60015b610fec573d808015610fb1576040519150601f19603f3d011682016040523d82523d6000602084013e610fb6565b606091505b508051600003610fe457604051633250574960e11b81526001600160a01b0385166004820152602401610589565b805181602001fd5b6001600160e01b03198116630a85bd0160e11b1461102857604051633250574960e11b81526001600160a01b0385166004820152602401610589565b5050505050565b61055f8282604051806020016040528060008152506116d8565b60006104936110566116ef565b8360405161190160f01b8152600281019290925260228201526042902090565b6000806000806110888888888861181a565b92509250925061109882826118e9565b50909695505050505050565b6001600160a01b03821660009081526008602052604090208054600181019091558181146106ec576040516301d4b62360e61b81526001600160a01b038416600482015260248101829052604401610589565b808061110b57506001600160a01b03821615155b156111cd57600061111b84610b81565b90506001600160a01b038316158015906111475750826001600160a01b0316816001600160a01b031614155b801561115a57506111588184610ac5565b155b156111835760405163a9fbf51f60e01b81526001600160a01b0384166004820152602401610589565b81156111cb5783856001600160a01b0316826001600160a01b03167f8c5be1e5ebec7d5bd14f71427d1e84f3dd0314c0f7b2291e5b200ac8c7c3b92560405160405180910390a45b505b5050600090815260046020526040902080546001600160a01b0319166001600160a01b0392909216919091179055565b6000828152600260205260408120546001600160a01b039081169083161561122a5761122a8184866119a2565b6001600160a01b03811615611268576112476000856000806110f7565b6001600160a01b038116600090815260036020526040902080546000190190555b6001600160a01b03851615611297576001600160a01b0385166000908152600360205260409020805460010190555b60008481526002602052604080822080546001600160a01b0319166001600160a01b0389811691821790925591518793918516917fddf252ad1be2c89b69c2b068fc378daa952ba7f163c4a11628f55a4df523b3ef91a4949350505050565b6001600160a01b03831661131d5761131a600b611a0661131584611a12565b611a46565b50505b6001600160a01b03821661133f5761133c600b611a7f61131584611a12565b50505b6001600160a01b038381166000908152600960205260408082205485841683529120546106ec929182169116836114c6565b60008160000361138357506000919050565b6000600161139084611a8b565b901c6001901b905060018184816113a9576113a961233a565b048201901c905060018184816113c1576113c161233a565b048201901c905060018184816113d9576113d961233a565b048201901c905060018184816113f1576113f161233a565b048201901c905060018184816114095761140961233a565b048201901c905060018184816114215761142161233a565b048201901c905060018184816114395761143961233a565b048201901c9050610abe818285816114535761145361233a565b04611b1f565b60005b818310156114b35760006114708484611b35565b60008781526020902090915065ffffffffffff86169082015465ffffffffffff16111561149f578092506114ad565b6114aa8160016122cd565b93505b5061145c565b509392505050565b60006104938261077f565b816001600160a01b0316836001600160a01b0316141580156114e85750600081115b156106ec576001600160a01b0383161561158b576001600160a01b0383166000908152600a60205260408120819061152690611a7f61131586611a12565b6001600160d01b031691506001600160d01b03169150846001600160a01b03167fdec2bacdd2f05b59de34da9b523dff8be42e5e38e818c82fdb0bae774387a7248383604051611580929190918252602082015260400190565b60405180910390a250505b6001600160a01b038216156106ec576001600160a01b0382166000908152600a6020526040812081906115c490611a0661131586611a12565b6001600160d01b031691506001600160d01b03169150836001600160a01b03167fdec2bacdd2f05b59de34da9b523dff8be42e5e38e818c82fdb0bae774387a724838360405161161e929190918252602082015260400190565b60405180910390a25050505050565b606060ff83146116475761164083611b50565b9050610493565b818054611653906121da565b80601f016020809104026020016040519081016040528092919081815260200182805461167f906121da565b80156116cc5780601f106116a1576101008083540402835291602001916116cc565b820191906000526020600020905b8154815290600101906020018083116116af57829003601f168201915b50505050509050610493565b6116e28383611b8f565b6106ec6000848484610f06565b6000306001600160a01b037f0000000000000000000000004d9207abeca883161a1eaee9dabedc0001c198d71614801561174857507f0000000000000000000000000000000000000000000000000000000000aa36a746145b1561177257507f4420e578c852ced8aca9b342260dfc2481793bb9f15aad8eb54d1b79739ef75190565b610895604080517f8b73c3c69bb8fe3d512ecc4cf759cc79239f7b179b0ffacaa9a75d522b39400f60208201527f2e5c5c1c4affeaeda2d3db263faddbd323c18ac7d44a6ca994665583d3b15dad918101919091527fc89efdaa54c0f20c7adf612882df0950f5a951637e0307cdcb4c672f298b8bc660608201524660808201523060a082015260009060c00160405160208183030381529060405280519060200120905090565b600080807f7fffffffffffffffffffffffffffffff5d576e7357a4501ddfe92f46681b20a084111561185557506000915060039050826118df565b604080516000808252602082018084528a905260ff891692820192909252606081018790526080810186905260019060a0016020604051602081039080840390855afa1580156118a9573d6000803e3d6000fd5b5050604051601f1901519150506001600160a01b0381166118d5575060009250600191508290506118df565b9250600091508190505b9450945094915050565b60008260038111156118fd576118fd612350565b03611906575050565b600182600381111561191a5761191a612350565b036119385760405163f645eedf60e01b815260040160405180910390fd5b600282600381111561194c5761194c612350565b0361196d5760405163fce698f760e01b815260048101829052602401610589565b600382600381111561198157611981612350565b0361055f576040516335e2f38360e21b815260048101829052602401610589565b6119ad838383611bf4565b6106ec576001600160a01b0383166119db57604051637e27328960e01b815260048101829052602401610589565b60405163177e802f60e01b81526001600160a01b038316600482015260248101829052604401610589565b6000610abe8284612366565b60006001600160d01b03821115610c4b576040516306dfcc6560e41b815260d0600482015260248101839052604401610589565b600080611a72611a5461088b565b611a6a611a6088610e2e565b868863ffffffff16565b879190611c57565b915091505b935093915050565b6000610abe828461238d565b600080608083901c15611aa057608092831c92015b604083901c15611ab257604092831c92015b602083901c15611ac457602092831c92015b601083901c15611ad657601092831c92015b600883901c15611ae857600892831c92015b600483901c15611afa57600492831c92015b600283901c15611b0c57600292831c92015b600183901c156104935760010192915050565b6000818310611b2e5781610abe565b5090919050565b6000611b4460028484186123ad565b610abe908484166122cd565b60606000611b5d83611c65565b604080516020808252818301909252919250600091906020820181803683375050509182525060208101929092525090565b6001600160a01b038216611bb957604051633250574960e11b815260006004820152602401610589565b6000611bc783836000610bc7565b90506001600160a01b038116156106ec576040516339e3563760e11b815260006004820152602401610589565b60006001600160a01b03831615801590610be35750826001600160a01b0316846001600160a01b03161480611c2e5750611c2e8484610ac5565b80610be35750506000908152600460205260409020546001600160a01b03908116911614919050565b600080611a72858585611c8d565b600060ff8216601f81111561049357604051632cd44ac360e21b815260040160405180910390fd5b825460009081908015611dac576000611cab87610cd36001856122ba565b60408051808201909152905465ffffffffffff808216808452600160301b9092046001600160d01b031660208401529192509087161015611cff57604051632520601d60e01b815260040160405180910390fd5b805165ffffffffffff808816911603611d4b5784611d2288610cd36001866122ba565b80546001600160d01b0392909216600160301b0265ffffffffffff909216919091179055611d9c565b6040805180820190915265ffffffffffff80881682526001600160d01b0380881660208085019182528b54600181018d5560008d81529190912094519151909216600160301b029216919091179101555b602001519250839150611a779050565b50506040805180820190915265ffffffffffff80851682526001600160d01b0380851660208085019182528854600181018a5560008a815291822095519251909316600160301b029190931617920191909155905081611a77565b6001600160e01b031981168114610b2e57600080fd5b600060208284031215611e2f57600080fd5b8135610abe81611e07565b60005b83811015611e55578181015183820152602001611e3d565b50506000910152565b60008151808452611e76816020860160208601611e3a565b601f01601f19169290920160200192915050565b602081526000610abe6020830184611e5e565b600060208284031215611eaf57600080fd5b5035919050565b6001600160a01b0381168114610b2e57600080fd5b60008060408385031215611ede57600080fd5b8235611ee981611eb6565b946020939093013593505050565b600080600060608486031215611f0c57600080fd5b8335611f1781611eb6565b92506020840135611f2781611eb6565b929592945050506040919091013590565b600060208284031215611f4a57600080fd5b8135610abe81611eb6565b60ff60f81b881681526000602060e06020840152611f7660e084018a611e5e565b8381036040850152611f88818a611e5e565b606085018990526001600160a01b038816608086015260a0850187905284810360c08601528551808252602080880193509091019060005b81811015611fdc57835183529284019291840191600101611fc0565b50909c9b505050505050505050505050565b6000806040838503121561200157600080fd5b823561200c81611eb6565b91506020830135801515811461202157600080fd5b809150509250929050565b634e487b7160e01b600052604160045260246000fd5b604051601f8201601f1916810167ffffffffffffffff8111828210171561206b5761206b61202c565b604052919050565b600067ffffffffffffffff82111561208d5761208d61202c565b50601f01601f191660200190565b600080600080608085870312156120b157600080fd5b84356120bc81611eb6565b935060208501356120cc81611eb6565b925060408501359150606085013567ffffffffffffffff8111156120ef57600080fd5b8501601f8101871361210057600080fd5b803561211361210e82612073565b612042565b81815288602083850101111561212857600080fd5b8160208401602083013760006020838301015280935050505092959194509250565b60008060008060008060c0878903121561216357600080fd5b863561216e81611eb6565b95506020870135945060408701359350606087013560ff8116811461219257600080fd5b9598949750929560808101359460a0909101359350915050565b600080604083850312156121bf57600080fd5b82356121ca81611eb6565b9150602083013561202181611eb6565b600181811c908216806121ee57607f821691505b60208210810361220e57634e487b7160e01b600052602260045260246000fd5b50919050565b634e487b7160e01b600052601160045260246000fd5b60006001820161223c5761223c612214565b5060010190565b60006020828403121561225557600080fd5b815167ffffffffffffffff81111561226c57600080fd5b8201601f8101841361227d57600080fd5b805161228b61210e82612073565b8181528560208385010111156122a057600080fd5b6122b1826020830160208601611e3a565b95945050505050565b8181038181111561049357610493612214565b8082018082111561049357610493612214565b6001600160a01b038581168252841660208201526040810183905260806060820181905260009061231390830184611e5e565b9695505050505050565b60006020828403121561232f57600080fd5b8151610abe81611e07565b634e487b7160e01b600052601260045260246000fd5b634e487b7160e01b600052602160045260246000fd5b6001600160d01b0381811683821601908082111561238657612386612214565b5092915050565b6001600160d01b0382811682821603908082111561238657612386612214565b6000826123ca57634e487b7160e01b600052601260045260246000fd5b50049056fea2646970667358221220212b53690543126073ac3819b10564780362be86ee0a9d0b651836ee9d71d71e64736f6c63430008170033",
			"devdoc": {
				"kind": "dev",
				"methods": {
					"CLOCK_MODE()": {
						"details": "Machine-readable description of the clock as specified in EIP-6372."
					},
					"approve(address,uint256)": {
						"details": "See {IERC721-approve}."
					},
					"balanceOf(address)": {
						"details": "See {IERC721-balanceOf}."
					},
					"clock()": {
						"details": "Clock used for flagging checkpoints. Can be overridden to implement timestamp based checkpoints (and voting), in which case {CLOCK_MODE} should be overridden as well to match."
					},
					"constructor": {
						"params": {
							"owner": "The owner of the contract who can set metadata."
						}
					},
					"createFor(address)": {
						"details": "Anyone can create a project on an owner's behalf.",
						"params": {
							"owner": "The address that will be the owner of the project."
						},
						"returns": {
							"projectId": "The token ID of the newly created project."
						}
					},
					"delegate(address)": {
						"details": "Delegates votes from the sender to `delegatee`."
					},
					"delegateBySig(address,uint256,uint256,uint8,bytes32,bytes32)": {
						"details": "Delegates votes from signer to `delegatee`."
					},
					"delegates(address)": {
						"details": "Returns the delegate that `account` has chosen."
					},
					"eip712Domain()": {
						"details": "See {IERC-5267}."
					},
					"getApproved(uint256)": {
						"details": "See {IERC721-getApproved}."
					},
					"getPastTotalSupply(uint256)": {
						"details": "Returns the total supply of votes available at a specific moment in the past. If the `clock()` is configured to use block numbers, this will return the value at the end of the corresponding block. NOTE: This value is the sum of all available votes, which is not necessarily the sum of all delegated votes. Votes that have not been delegated are still part of total supply, even though they would not participate in a vote. Requirements: - `timepoint` must be in the past. If operating using block numbers, the block must be already mined."
					},
					"getPastVotes(address,uint256)": {
						"details": "Returns the amount of votes that `account` had at a specific moment in the past. If the `clock()` is configured to use block numbers, this will return the value at the end of the corresponding block. Requirements: - `timepoint` must be in the past. If operating using block numbers, the block must be already mined."
					},
					"getVotes(address)": {
						"details": "Returns the current amount of votes that `account` has."
					},
					"isApprovedForAll(address,address)": {
						"details": "See {IERC721-isApprovedForAll}."
					},
					"name()": {
						"details": "See {IERC721Metadata-name}."
					},
					"nonces(address)": {
						"details": "Returns the next unused nonce for an address."
					},
					"owner()": {
						"details": "Returns the address of the current owner."
					},
					"ownerOf(uint256)": {
						"details": "See {IERC721-ownerOf}."
					},
					"renounceOwnership()": {
						"details": "Leaves the contract without owner. It will not be possible to call `onlyOwner` functions. Can only be called by the current owner. NOTE: Renouncing ownership will leave the contract without an owner, thereby disabling any functionality that is only available to the owner."
					},
					"safeTransferFrom(address,address,uint256)": {
						"details": "See {IERC721-safeTransferFrom}."
					},
					"safeTransferFrom(address,address,uint256,bytes)": {
						"details": "See {IERC721-safeTransferFrom}."
					},
					"setApprovalForAll(address,bool)": {
						"details": "See {IERC721-setApprovalForAll}."
					},
					"setTokenUriResolver(address)": {
						"params": {
							"newResolver": "The address of the new resolver."
						}
					},
					"supportsInterface(bytes4)": {
						"details": "See {IERC165-supportsInterface}.",
						"params": {
							"interfaceId": "The ID of the interface to check for adherance to."
						},
						"returns": {
							"_0": "A flag indicating if the provided interface ID is supported."
						}
					},
					"symbol()": {
						"details": "See {IERC721Metadata-symbol}."
					},
					"tokenURI(uint256)": {
						"params": {
							"projectId": "The ID of the project to get a URI of."
						},
						"returns": {
							"_0": "The token URI to use for the provided `projectId`."
						}
					},
					"transferFrom(address,address,uint256)": {
						"details": "See {IERC721-transferFrom}."
					},
					"transferOwnership(address)": {
						"details": "Transfers ownership of the contract to a new account (`newOwner`). Can only be called by the current owner."
					}
				},
				"version": 1
			},
			"userdoc": {
				"kind": "user",
				"methods": {
					"count()": {
						"notice": "The number of projects that have been created using this contract."
					},
					"createFor(address)": {
						"notice": "Create a new project for the specified owner, which mints an NFT (ERC-721) into their wallet."
					},
					"setTokenUriResolver(address)": {
						"notice": "Sets the address of the resolver used to retrieve the tokenURI of projects."
					},
					"supportsInterface(bytes4)": {
						"notice": "Indicates if this contract adheres to the specified interface."
					},
					"tokenURI(uint256)": {
						"notice": "Returns the URI where the ERC-721 standard JSON of a project is hosted."
					},
					"tokenUriResolver()": {
						"notice": "The contract resolving each project ID to its ERC721 URI."
					}
				},
				"version": 1
			},
			"gitCommit": "b03f34d98eacd4484804213a3ba52efcdbe9107e",
			"sourceName": "src/JBProjects.sol",
			"chainId": "11155111",
			"linkReferences": {},
			"deployedLinkReferences": {}
		},
		{
			"_format": "sphinx-sol-ct-artifact-1",
			"merkleRoot": "0xfada22a01fc6019b369081d169c7f38ec6c9e2c67f065667d7be1b942a641e20",
			"contractName": "JBProjects",
			"address": "0x5e8a3B68ad51E2Ae55E5D7215E9e59bC0f66e33F",
			"abi": [
				{
					"type": "constructor",
					"inputs": [
						{
							"name": "owner",
							"type": "address",
							"internalType": "address"
						}
					],
					"stateMutability": "nonpayable"
				},
				{
					"type": "function",
					"name": "CLOCK_MODE",
					"inputs": [],
					"outputs": [
						{
							"name": "",
							"type": "string",
							"internalType": "string"
						}
					],
					"stateMutability": "view"
				},
				{
					"type": "function",
					"name": "approve",
					"inputs": [
						{
							"name": "to",
							"type": "address",
							"internalType": "address"
						},
						{
							"name": "tokenId",
							"type": "uint256",
							"internalType": "uint256"
						}
					],
					"outputs": [],
					"stateMutability": "nonpayable"
				},
				{
					"type": "function",
					"name": "balanceOf",
					"inputs": [
						{
							"name": "owner",
							"type": "address",
							"internalType": "address"
						}
					],
					"outputs": [
						{
							"name": "",
							"type": "uint256",
							"internalType": "uint256"
						}
					],
					"stateMutability": "view"
				},
				{
					"type": "function",
					"name": "clock",
					"inputs": [],
					"outputs": [
						{
							"name": "",
							"type": "uint48",
							"internalType": "uint48"
						}
					],
					"stateMutability": "view"
				},
				{
					"type": "function",
					"name": "count",
					"inputs": [],
					"outputs": [
						{
							"name": "",
							"type": "uint256",
							"internalType": "uint256"
						}
					],
					"stateMutability": "view"
				},
				{
					"type": "function",
					"name": "createFor",
					"inputs": [
						{
							"name": "owner",
							"type": "address",
							"internalType": "address"
						}
					],
					"outputs": [
						{
							"name": "projectId",
							"type": "uint256",
							"internalType": "uint256"
						}
					],
					"stateMutability": "nonpayable"
				},
				{
					"type": "function",
					"name": "delegate",
					"inputs": [
						{
							"name": "delegatee",
							"type": "address",
							"internalType": "address"
						}
					],
					"outputs": [],
					"stateMutability": "nonpayable"
				},
				{
					"type": "function",
					"name": "delegateBySig",
					"inputs": [
						{
							"name": "delegatee",
							"type": "address",
							"internalType": "address"
						},
						{
							"name": "nonce",
							"type": "uint256",
							"internalType": "uint256"
						},
						{
							"name": "expiry",
							"type": "uint256",
							"internalType": "uint256"
						},
						{
							"name": "v",
							"type": "uint8",
							"internalType": "uint8"
						},
						{
							"name": "r",
							"type": "bytes32",
							"internalType": "bytes32"
						},
						{
							"name": "s",
							"type": "bytes32",
							"internalType": "bytes32"
						}
					],
					"outputs": [],
					"stateMutability": "nonpayable"
				},
				{
					"type": "function",
					"name": "delegates",
					"inputs": [
						{
							"name": "account",
							"type": "address",
							"internalType": "address"
						}
					],
					"outputs": [
						{
							"name": "",
							"type": "address",
							"internalType": "address"
						}
					],
					"stateMutability": "view"
				},
				{
					"type": "function",
					"name": "eip712Domain",
					"inputs": [],
					"outputs": [
						{
							"name": "fields",
							"type": "bytes1",
							"internalType": "bytes1"
						},
						{
							"name": "name",
							"type": "string",
							"internalType": "string"
						},
						{
							"name": "version",
							"type": "string",
							"internalType": "string"
						},
						{
							"name": "chainId",
							"type": "uint256",
							"internalType": "uint256"
						},
						{
							"name": "verifyingContract",
							"type": "address",
							"internalType": "address"
						},
						{
							"name": "salt",
							"type": "bytes32",
							"internalType": "bytes32"
						},
						{
							"name": "extensions",
							"type": "uint256[]",
							"internalType": "uint256[]"
						}
					],
					"stateMutability": "view"
				},
				{
					"type": "function",
					"name": "getApproved",
					"inputs": [
						{
							"name": "tokenId",
							"type": "uint256",
							"internalType": "uint256"
						}
					],
					"outputs": [
						{
							"name": "",
							"type": "address",
							"internalType": "address"
						}
					],
					"stateMutability": "view"
				},
				{
					"type": "function",
					"name": "getPastTotalSupply",
					"inputs": [
						{
							"name": "timepoint",
							"type": "uint256",
							"internalType": "uint256"
						}
					],
					"outputs": [
						{
							"name": "",
							"type": "uint256",
							"internalType": "uint256"
						}
					],
					"stateMutability": "view"
				},
				{
					"type": "function",
					"name": "getPastVotes",
					"inputs": [
						{
							"name": "account",
							"type": "address",
							"internalType": "address"
						},
						{
							"name": "timepoint",
							"type": "uint256",
							"internalType": "uint256"
						}
					],
					"outputs": [
						{
							"name": "",
							"type": "uint256",
							"internalType": "uint256"
						}
					],
					"stateMutability": "view"
				},
				{
					"type": "function",
					"name": "getVotes",
					"inputs": [
						{
							"name": "account",
							"type": "address",
							"internalType": "address"
						}
					],
					"outputs": [
						{
							"name": "",
							"type": "uint256",
							"internalType": "uint256"
						}
					],
					"stateMutability": "view"
				},
				{
					"type": "function",
					"name": "isApprovedForAll",
					"inputs": [
						{
							"name": "owner",
							"type": "address",
							"internalType": "address"
						},
						{
							"name": "operator",
							"type": "address",
							"internalType": "address"
						}
					],
					"outputs": [
						{
							"name": "",
							"type": "bool",
							"internalType": "bool"
						}
					],
					"stateMutability": "view"
				},
				{
					"type": "function",
					"name": "name",
					"inputs": [],
					"outputs": [
						{
							"name": "",
							"type": "string",
							"internalType": "string"
						}
					],
					"stateMutability": "view"
				},
				{
					"type": "function",
					"name": "nonces",
					"inputs": [
						{
							"name": "owner",
							"type": "address",
							"internalType": "address"
						}
					],
					"outputs": [
						{
							"name": "",
							"type": "uint256",
							"internalType": "uint256"
						}
					],
					"stateMutability": "view"
				},
				{
					"type": "function",
					"name": "owner",
					"inputs": [],
					"outputs": [
						{
							"name": "",
							"type": "address",
							"internalType": "address"
						}
					],
					"stateMutability": "view"
				},
				{
					"type": "function",
					"name": "ownerOf",
					"inputs": [
						{
							"name": "tokenId",
							"type": "uint256",
							"internalType": "uint256"
						}
					],
					"outputs": [
						{
							"name": "",
							"type": "address",
							"internalType": "address"
						}
					],
					"stateMutability": "view"
				},
				{
					"type": "function",
					"name": "renounceOwnership",
					"inputs": [],
					"outputs": [],
					"stateMutability": "nonpayable"
				},
				{
					"type": "function",
					"name": "safeTransferFrom",
					"inputs": [
						{
							"name": "from",
							"type": "address",
							"internalType": "address"
						},
						{
							"name": "to",
							"type": "address",
							"internalType": "address"
						},
						{
							"name": "tokenId",
							"type": "uint256",
							"internalType": "uint256"
						}
					],
					"outputs": [],
					"stateMutability": "nonpayable"
				},
				{
					"type": "function",
					"name": "safeTransferFrom",
					"inputs": [
						{
							"name": "from",
							"type": "address",
							"internalType": "address"
						},
						{
							"name": "to",
							"type": "address",
							"internalType": "address"
						},
						{
							"name": "tokenId",
							"type": "uint256",
							"internalType": "uint256"
						},
						{
							"name": "data",
							"type": "bytes",
							"internalType": "bytes"
						}
					],
					"outputs": [],
					"stateMutability": "nonpayable"
				},
				{
					"type": "function",
					"name": "setApprovalForAll",
					"inputs": [
						{
							"name": "operator",
							"type": "address",
							"internalType": "address"
						},
						{
							"name": "approved",
							"type": "bool",
							"internalType": "bool"
						}
					],
					"outputs": [],
					"stateMutability": "nonpayable"
				},
				{
					"type": "function",
					"name": "setTokenUriResolver",
					"inputs": [
						{
							"name": "newResolver",
							"type": "address",
							"internalType": "contract IJBTokenUriResolver"
						}
					],
					"outputs": [],
					"stateMutability": "nonpayable"
				},
				{
					"type": "function",
					"name": "supportsInterface",
					"inputs": [
						{
							"name": "interfaceId",
							"type": "bytes4",
							"internalType": "bytes4"
						}
					],
					"outputs": [
						{
							"name": "",
							"type": "bool",
							"internalType": "bool"
						}
					],
					"stateMutability": "view"
				},
				{
					"type": "function",
					"name": "symbol",
					"inputs": [],
					"outputs": [
						{
							"name": "",
							"type": "string",
							"internalType": "string"
						}
					],
					"stateMutability": "view"
				},
				{
					"type": "function",
					"name": "tokenURI",
					"inputs": [
						{
							"name": "projectId",
							"type": "uint256",
							"internalType": "uint256"
						}
					],
					"outputs": [
						{
							"name": "",
							"type": "string",
							"internalType": "string"
						}
					],
					"stateMutability": "view"
				},
				{
					"type": "function",
					"name": "tokenUriResolver",
					"inputs": [],
					"outputs": [
						{
							"name": "",
							"type": "address",
							"internalType": "contract IJBTokenUriResolver"
						}
					],
					"stateMutability": "view"
				},
				{
					"type": "function",
					"name": "transferFrom",
					"inputs": [
						{
							"name": "from",
							"type": "address",
							"internalType": "address"
						},
						{
							"name": "to",
							"type": "address",
							"internalType": "address"
						},
						{
							"name": "tokenId",
							"type": "uint256",
							"internalType": "uint256"
						}
					],
					"outputs": [],
					"stateMutability": "nonpayable"
				},
				{
					"type": "function",
					"name": "transferOwnership",
					"inputs": [
						{
							"name": "newOwner",
							"type": "address",
							"internalType": "address"
						}
					],
					"outputs": [],
					"stateMutability": "nonpayable"
				},
				{
					"type": "event",
					"name": "Approval",
					"inputs": [
						{
							"name": "owner",
							"type": "address",
							"indexed": true,
							"internalType": "address"
						},
						{
							"name": "approved",
							"type": "address",
							"indexed": true,
							"internalType": "address"
						},
						{
							"name": "tokenId",
							"type": "uint256",
							"indexed": true,
							"internalType": "uint256"
						}
					],
					"anonymous": false
				},
				{
					"type": "event",
					"name": "ApprovalForAll",
					"inputs": [
						{
							"name": "owner",
							"type": "address",
							"indexed": true,
							"internalType": "address"
						},
						{
							"name": "operator",
							"type": "address",
							"indexed": true,
							"internalType": "address"
						},
						{
							"name": "approved",
							"type": "bool",
							"indexed": false,
							"internalType": "bool"
						}
					],
					"anonymous": false
				},
				{
					"type": "event",
					"name": "Create",
					"inputs": [
						{
							"name": "projectId",
							"type": "uint256",
							"indexed": true,
							"internalType": "uint256"
						},
						{
							"name": "owner",
							"type": "address",
							"indexed": true,
							"internalType": "address"
						},
						{
							"name": "caller",
							"type": "address",
							"indexed": false,
							"internalType": "address"
						}
					],
					"anonymous": false
				},
				{
					"type": "event",
					"name": "DelegateChanged",
					"inputs": [
						{
							"name": "delegator",
							"type": "address",
							"indexed": true,
							"internalType": "address"
						},
						{
							"name": "fromDelegate",
							"type": "address",
							"indexed": true,
							"internalType": "address"
						},
						{
							"name": "toDelegate",
							"type": "address",
							"indexed": true,
							"internalType": "address"
						}
					],
					"anonymous": false
				},
				{
					"type": "event",
					"name": "DelegateVotesChanged",
					"inputs": [
						{
							"name": "delegate",
							"type": "address",
							"indexed": true,
							"internalType": "address"
						},
						{
							"name": "previousVotes",
							"type": "uint256",
							"indexed": false,
							"internalType": "uint256"
						},
						{
							"name": "newVotes",
							"type": "uint256",
							"indexed": false,
							"internalType": "uint256"
						}
					],
					"anonymous": false
				},
				{
					"type": "event",
					"name": "EIP712DomainChanged",
					"inputs": [],
					"anonymous": false
				},
				{
					"type": "event",
					"name": "OwnershipTransferred",
					"inputs": [
						{
							"name": "previousOwner",
							"type": "address",
							"indexed": true,
							"internalType": "address"
						},
						{
							"name": "newOwner",
							"type": "address",
							"indexed": true,
							"internalType": "address"
						}
					],
					"anonymous": false
				},
				{
					"type": "event",
					"name": "SetTokenUriResolver",
					"inputs": [
						{
							"name": "resolver",
							"type": "address",
							"indexed": true,
							"internalType": "contract IJBTokenUriResolver"
						},
						{
							"name": "caller",
							"type": "address",
							"indexed": false,
							"internalType": "address"
						}
					],
					"anonymous": false
				},
				{
					"type": "event",
					"name": "Transfer",
					"inputs": [
						{
							"name": "from",
							"type": "address",
							"indexed": true,
							"internalType": "address"
						},
						{
							"name": "to",
							"type": "address",
							"indexed": true,
							"internalType": "address"
						},
						{
							"name": "tokenId",
							"type": "uint256",
							"indexed": true,
							"internalType": "uint256"
						}
					],
					"anonymous": false
				},
				{
					"type": "error",
					"name": "CheckpointUnorderedInsertion",
					"inputs": []
				},
				{
					"type": "error",
					"name": "ECDSAInvalidSignature",
					"inputs": []
				},
				{
					"type": "error",
					"name": "ECDSAInvalidSignatureLength",
					"inputs": [
						{
							"name": "length",
							"type": "uint256",
							"internalType": "uint256"
						}
					]
				},
				{
					"type": "error",
					"name": "ECDSAInvalidSignatureS",
					"inputs": [
						{
							"name": "s",
							"type": "bytes32",
							"internalType": "bytes32"
						}
					]
				},
				{
					"type": "error",
					"name": "ERC5805FutureLookup",
					"inputs": [
						{
							"name": "timepoint",
							"type": "uint256",
							"internalType": "uint256"
						},
						{
							"name": "clock",
							"type": "uint48",
							"internalType": "uint48"
						}
					]
				},
				{
					"type": "error",
					"name": "ERC6372InconsistentClock",
					"inputs": []
				},
				{
					"type": "error",
					"name": "ERC721IncorrectOwner",
					"inputs": [
						{
							"name": "sender",
							"type": "address",
							"internalType": "address"
						},
						{
							"name": "tokenId",
							"type": "uint256",
							"internalType": "uint256"
						},
						{
							"name": "owner",
							"type": "address",
							"internalType": "address"
						}
					]
				},
				{
					"type": "error",
					"name": "ERC721InsufficientApproval",
					"inputs": [
						{
							"name": "operator",
							"type": "address",
							"internalType": "address"
						},
						{
							"name": "tokenId",
							"type": "uint256",
							"internalType": "uint256"
						}
					]
				},
				{
					"type": "error",
					"name": "ERC721InvalidApprover",
					"inputs": [
						{
							"name": "approver",
							"type": "address",
							"internalType": "address"
						}
					]
				},
				{
					"type": "error",
					"name": "ERC721InvalidOperator",
					"inputs": [
						{
							"name": "operator",
							"type": "address",
							"internalType": "address"
						}
					]
				},
				{
					"type": "error",
					"name": "ERC721InvalidOwner",
					"inputs": [
						{
							"name": "owner",
							"type": "address",
							"internalType": "address"
						}
					]
				},
				{
					"type": "error",
					"name": "ERC721InvalidReceiver",
					"inputs": [
						{
							"name": "receiver",
							"type": "address",
							"internalType": "address"
						}
					]
				},
				{
					"type": "error",
					"name": "ERC721InvalidSender",
					"inputs": [
						{
							"name": "sender",
							"type": "address",
							"internalType": "address"
						}
					]
				},
				{
					"type": "error",
					"name": "ERC721NonexistentToken",
					"inputs": [
						{
							"name": "tokenId",
							"type": "uint256",
							"internalType": "uint256"
						}
					]
				},
				{
					"type": "error",
					"name": "InvalidAccountNonce",
					"inputs": [
						{
							"name": "account",
							"type": "address",
							"internalType": "address"
						},
						{
							"name": "currentNonce",
							"type": "uint256",
							"internalType": "uint256"
						}
					]
				},
				{
					"type": "error",
					"name": "InvalidShortString",
					"inputs": []
				},
				{
					"type": "error",
					"name": "OwnableInvalidOwner",
					"inputs": [
						{
							"name": "owner",
							"type": "address",
							"internalType": "address"
						}
					]
				},
				{
					"type": "error",
					"name": "OwnableUnauthorizedAccount",
					"inputs": [
						{
							"name": "account",
							"type": "address",
							"internalType": "address"
						}
					]
				},
				{
					"type": "error",
					"name": "SafeCastOverflowedUintDowncast",
					"inputs": [
						{
							"name": "bits",
							"type": "uint8",
							"internalType": "uint8"
						},
						{
							"name": "value",
							"type": "uint256",
							"internalType": "uint256"
						}
					]
				},
				{
					"type": "error",
					"name": "StringTooLong",
					"inputs": [
						{
							"name": "str",
							"type": "string",
							"internalType": "string"
						}
					]
				},
				{
					"type": "error",
					"name": "VotesExpiredSignature",
					"inputs": [
						{
							"name": "expiry",
							"type": "uint256",
							"internalType": "uint256"
						}
					]
				}
			],
			"solcInputHash": "89b464e120c906a6209f84c95fbfe59a",
			"receipt": {
				"blockHash": "0x037a36fe3e0f190ce88cec25d1ff1d843e978d86c6c0670fe19a0d5064e38fac",
				"blockNumber": 5479980,
				"contractAddress": null,
				"cumulativeGasUsed": "21243074",
				"from": "0xC034550B542b83BA1De312b21d1C94a9a52B1595",
				"gasPrice": "3782613113",
				"gasUsed": "10917745",
				"hash": "0xf46589ac4e4664219920b647252d41a175538ee15c00e242f3dbb8033f84d2a0",
				"index": 80,
				"logs": [
					{
						"address": "0xB5E96127D417b1B3ef8438496a38A143167209c7",
						"blockHash": "0x037a36fe3e0f190ce88cec25d1ff1d843e978d86c6c0670fe19a0d5064e38fac",
						"blockNumber": 5479980,
						"data": "0x0000000000000000000000000000000000000000000000000000000000000000",
						"index": 196,
						"topics": [
							"0x572f161235911da04685a68c06adf558fc7e4a36909dca394650e0adc19cc93d",
							"0x000000000000000000000000c034550b542b83ba1de312b21d1c94a9a52b1595",
							"0x000000000000000000000000ef1be3c049809cace5bc203bbe4ec1ab284bf75c",
							"0xb11f63e5e5c2beaf8f1c069c74c9457c1f58d6a5bb2b952c8f008df3679e1303"
						],
						"transactionHash": "0xf46589ac4e4664219920b647252d41a175538ee15c00e242f3dbb8033f84d2a0",
						"transactionIndex": 80
					},
					{
						"address": "0x1081B5AA9D9d4862A3dA4d469433FB36Ed80FA2A",
						"blockHash": "0x037a36fe3e0f190ce88cec25d1ff1d843e978d86c6c0670fe19a0d5064e38fac",
						"blockNumber": 5479980,
						"data": "0x000000000000000000000000625e7bce20bce80d426384c38831f92d453fbf29",
						"index": 197,
						"topics": [
							"0x4db17dd5e4732fb6da34a148104a592783ca119a1e7bb8829eba6cbadef0b511"
						],
						"transactionHash": "0xf46589ac4e4664219920b647252d41a175538ee15c00e242f3dbb8033f84d2a0",
						"transactionIndex": 80
					},
					{
						"address": "0x1081B5AA9D9d4862A3dA4d469433FB36Ed80FA2A",
						"blockHash": "0x037a36fe3e0f190ce88cec25d1ff1d843e978d86c6c0670fe19a0d5064e38fac",
						"blockNumber": 5479980,
						"data": "0x",
						"index": 198,
						"topics": [
							"0x6895c13664aa4f67288b25d7a21d7aaa34916e355fb9b6fae0a139a9085becb8",
							"0x000000000000000000000000ef1be3c049809cace5bc203bbe4ec1ab284bf75c"
						],
						"transactionHash": "0xf46589ac4e4664219920b647252d41a175538ee15c00e242f3dbb8033f84d2a0",
						"transactionIndex": 80
					},
					{
						"address": "0xEf1Be3C049809caCe5Bc203BBe4Ec1Ab284bF75c",
						"blockHash": "0x037a36fe3e0f190ce88cec25d1ff1d843e978d86c6c0670fe19a0d5064e38fac",
						"blockNumber": 5479980,
						"data": "0x0000000000000000000000000000000000000000000000000000000000000001",
						"index": 199,
						"topics": [
							"0xa65fb05c5808f5f389d72edeaf719ce38f4cc55c1f69ca3cbfb31c21501caa07",
							"0xfada22a01fc6019b369081d169c7f38ec6c9e2c67f065667d7be1b942a641e20"
						],
						"transactionHash": "0xf46589ac4e4664219920b647252d41a175538ee15c00e242f3dbb8033f84d2a0",
						"transactionIndex": 80
					},
					{
						"address": "0x5e8a3B68ad51E2Ae55E5D7215E9e59bC0f66e33F",
						"blockHash": "0x037a36fe3e0f190ce88cec25d1ff1d843e978d86c6c0670fe19a0d5064e38fac",
						"blockNumber": 5479980,
						"data": "0x",
						"index": 200,
						"topics": [
							"0x8be0079c531659141344cd1fd0a4f28419497f9722a3daafe3b4186f6b6457e0",
							"0x0000000000000000000000000000000000000000000000000000000000000000",
							"0x000000000000000000000000823b92d6a4b2aed4b15675c7917c9f922ea8adad"
						],
						"transactionHash": "0xf46589ac4e4664219920b647252d41a175538ee15c00e242f3dbb8033f84d2a0",
						"transactionIndex": 80
					},
					{
						"address": "0x1081B5AA9D9d4862A3dA4d469433FB36Ed80FA2A",
						"blockHash": "0x037a36fe3e0f190ce88cec25d1ff1d843e978d86c6c0670fe19a0d5064e38fac",
						"blockNumber": 5479980,
						"data": "0x0000000000000000000000005e8a3b68ad51e2ae55e5d7215e9e59bc0f66e33f",
						"index": 201,
						"topics": [
							"0x4db17dd5e4732fb6da34a148104a592783ca119a1e7bb8829eba6cbadef0b511"
						],
						"transactionHash": "0xf46589ac4e4664219920b647252d41a175538ee15c00e242f3dbb8033f84d2a0",
						"transactionIndex": 80
					},
					{
						"address": "0x1081B5AA9D9d4862A3dA4d469433FB36Ed80FA2A",
						"blockHash": "0x037a36fe3e0f190ce88cec25d1ff1d843e978d86c6c0670fe19a0d5064e38fac",
						"blockNumber": 5479980,
						"data": "0x",
						"index": 202,
						"topics": [
							"0x6895c13664aa4f67288b25d7a21d7aaa34916e355fb9b6fae0a139a9085becb8",
							"0x000000000000000000000000ef1be3c049809cace5bc203bbe4ec1ab284bf75c"
						],
						"transactionHash": "0xf46589ac4e4664219920b647252d41a175538ee15c00e242f3dbb8033f84d2a0",
						"transactionIndex": 80
					},
					{
						"address": "0xEf1Be3C049809caCe5Bc203BBe4Ec1Ab284bF75c",
						"blockHash": "0x037a36fe3e0f190ce88cec25d1ff1d843e978d86c6c0670fe19a0d5064e38fac",
						"blockNumber": 5479980,
						"data": "0x0000000000000000000000000000000000000000000000000000000000000002",
						"index": 203,
						"topics": [
							"0xa65fb05c5808f5f389d72edeaf719ce38f4cc55c1f69ca3cbfb31c21501caa07",
							"0xfada22a01fc6019b369081d169c7f38ec6c9e2c67f065667d7be1b942a641e20"
						],
						"transactionHash": "0xf46589ac4e4664219920b647252d41a175538ee15c00e242f3dbb8033f84d2a0",
						"transactionIndex": 80
					},
					{
						"address": "0xdb72998F9FfEc87e51158E81a8FD49627EB412E8",
						"blockHash": "0x037a36fe3e0f190ce88cec25d1ff1d843e978d86c6c0670fe19a0d5064e38fac",
						"blockNumber": 5479980,
						"data": "0x",
						"index": 204,
						"topics": [
							"0x8be0079c531659141344cd1fd0a4f28419497f9722a3daafe3b4186f6b6457e0",
							"0x0000000000000000000000000000000000000000000000000000000000000000",
							"0x0000000000000000000000001081b5aa9d9d4862a3da4d469433fb36ed80fa2a"
						],
						"transactionHash": "0xf46589ac4e4664219920b647252d41a175538ee15c00e242f3dbb8033f84d2a0",
						"transactionIndex": 80
					},
					{
						"address": "0x1081B5AA9D9d4862A3dA4d469433FB36Ed80FA2A",
						"blockHash": "0x037a36fe3e0f190ce88cec25d1ff1d843e978d86c6c0670fe19a0d5064e38fac",
						"blockNumber": 5479980,
						"data": "0x000000000000000000000000db72998f9ffec87e51158e81a8fd49627eb412e8",
						"index": 205,
						"topics": [
							"0x4db17dd5e4732fb6da34a148104a592783ca119a1e7bb8829eba6cbadef0b511"
						],
						"transactionHash": "0xf46589ac4e4664219920b647252d41a175538ee15c00e242f3dbb8033f84d2a0",
						"transactionIndex": 80
					},
					{
						"address": "0x1081B5AA9D9d4862A3dA4d469433FB36Ed80FA2A",
						"blockHash": "0x037a36fe3e0f190ce88cec25d1ff1d843e978d86c6c0670fe19a0d5064e38fac",
						"blockNumber": 5479980,
						"data": "0x",
						"index": 206,
						"topics": [
							"0x6895c13664aa4f67288b25d7a21d7aaa34916e355fb9b6fae0a139a9085becb8",
							"0x000000000000000000000000ef1be3c049809cace5bc203bbe4ec1ab284bf75c"
						],
						"transactionHash": "0xf46589ac4e4664219920b647252d41a175538ee15c00e242f3dbb8033f84d2a0",
						"transactionIndex": 80
					},
					{
						"address": "0xEf1Be3C049809caCe5Bc203BBe4Ec1Ab284bF75c",
						"blockHash": "0x037a36fe3e0f190ce88cec25d1ff1d843e978d86c6c0670fe19a0d5064e38fac",
						"blockNumber": 5479980,
						"data": "0x0000000000000000000000000000000000000000000000000000000000000003",
						"index": 207,
						"topics": [
							"0xa65fb05c5808f5f389d72edeaf719ce38f4cc55c1f69ca3cbfb31c21501caa07",
							"0xfada22a01fc6019b369081d169c7f38ec6c9e2c67f065667d7be1b942a641e20"
						],
						"transactionHash": "0xf46589ac4e4664219920b647252d41a175538ee15c00e242f3dbb8033f84d2a0",
						"transactionIndex": 80
					},
					{
						"address": "0x1081B5AA9D9d4862A3dA4d469433FB36Ed80FA2A",
						"blockHash": "0x037a36fe3e0f190ce88cec25d1ff1d843e978d86c6c0670fe19a0d5064e38fac",
						"blockNumber": 5479980,
						"data": "0x000000000000000000000000662b84fb924bf127804edc6d1722721dea01dd43",
						"index": 208,
						"topics": [
							"0x4db17dd5e4732fb6da34a148104a592783ca119a1e7bb8829eba6cbadef0b511"
						],
						"transactionHash": "0xf46589ac4e4664219920b647252d41a175538ee15c00e242f3dbb8033f84d2a0",
						"transactionIndex": 80
					},
					{
						"address": "0x1081B5AA9D9d4862A3dA4d469433FB36Ed80FA2A",
						"blockHash": "0x037a36fe3e0f190ce88cec25d1ff1d843e978d86c6c0670fe19a0d5064e38fac",
						"blockNumber": 5479980,
						"data": "0x",
						"index": 209,
						"topics": [
							"0x6895c13664aa4f67288b25d7a21d7aaa34916e355fb9b6fae0a139a9085becb8",
							"0x000000000000000000000000ef1be3c049809cace5bc203bbe4ec1ab284bf75c"
						],
						"transactionHash": "0xf46589ac4e4664219920b647252d41a175538ee15c00e242f3dbb8033f84d2a0",
						"transactionIndex": 80
					},
					{
						"address": "0xEf1Be3C049809caCe5Bc203BBe4Ec1Ab284bF75c",
						"blockHash": "0x037a36fe3e0f190ce88cec25d1ff1d843e978d86c6c0670fe19a0d5064e38fac",
						"blockNumber": 5479980,
						"data": "0x0000000000000000000000000000000000000000000000000000000000000004",
						"index": 210,
						"topics": [
							"0xa65fb05c5808f5f389d72edeaf719ce38f4cc55c1f69ca3cbfb31c21501caa07",
							"0xfada22a01fc6019b369081d169c7f38ec6c9e2c67f065667d7be1b942a641e20"
						],
						"transactionHash": "0xf46589ac4e4664219920b647252d41a175538ee15c00e242f3dbb8033f84d2a0",
						"transactionIndex": 80
					},
					{
						"address": "0x1081B5AA9D9d4862A3dA4d469433FB36Ed80FA2A",
						"blockHash": "0x037a36fe3e0f190ce88cec25d1ff1d843e978d86c6c0670fe19a0d5064e38fac",
						"blockNumber": 5479980,
						"data": "0x000000000000000000000000208bb810b913b647b36967ee764b3da50fb7ad33",
						"index": 211,
						"topics": [
							"0x4db17dd5e4732fb6da34a148104a592783ca119a1e7bb8829eba6cbadef0b511"
						],
						"transactionHash": "0xf46589ac4e4664219920b647252d41a175538ee15c00e242f3dbb8033f84d2a0",
						"transactionIndex": 80
					},
					{
						"address": "0x1081B5AA9D9d4862A3dA4d469433FB36Ed80FA2A",
						"blockHash": "0x037a36fe3e0f190ce88cec25d1ff1d843e978d86c6c0670fe19a0d5064e38fac",
						"blockNumber": 5479980,
						"data": "0x",
						"index": 212,
						"topics": [
							"0x6895c13664aa4f67288b25d7a21d7aaa34916e355fb9b6fae0a139a9085becb8",
							"0x000000000000000000000000ef1be3c049809cace5bc203bbe4ec1ab284bf75c"
						],
						"transactionHash": "0xf46589ac4e4664219920b647252d41a175538ee15c00e242f3dbb8033f84d2a0",
						"transactionIndex": 80
					},
					{
						"address": "0xEf1Be3C049809caCe5Bc203BBe4Ec1Ab284bF75c",
						"blockHash": "0x037a36fe3e0f190ce88cec25d1ff1d843e978d86c6c0670fe19a0d5064e38fac",
						"blockNumber": 5479980,
						"data": "0x0000000000000000000000000000000000000000000000000000000000000005",
						"index": 213,
						"topics": [
							"0xa65fb05c5808f5f389d72edeaf719ce38f4cc55c1f69ca3cbfb31c21501caa07",
							"0xfada22a01fc6019b369081d169c7f38ec6c9e2c67f065667d7be1b942a641e20"
						],
						"transactionHash": "0xf46589ac4e4664219920b647252d41a175538ee15c00e242f3dbb8033f84d2a0",
						"transactionIndex": 80
					},
					{
						"address": "0x1081B5AA9D9d4862A3dA4d469433FB36Ed80FA2A",
						"blockHash": "0x037a36fe3e0f190ce88cec25d1ff1d843e978d86c6c0670fe19a0d5064e38fac",
						"blockNumber": 5479980,
						"data": "0x000000000000000000000000bc7b4588af3ded562f8fa7b9dc299055d51e9159",
						"index": 214,
						"topics": [
							"0x4db17dd5e4732fb6da34a148104a592783ca119a1e7bb8829eba6cbadef0b511"
						],
						"transactionHash": "0xf46589ac4e4664219920b647252d41a175538ee15c00e242f3dbb8033f84d2a0",
						"transactionIndex": 80
					},
					{
						"address": "0x1081B5AA9D9d4862A3dA4d469433FB36Ed80FA2A",
						"blockHash": "0x037a36fe3e0f190ce88cec25d1ff1d843e978d86c6c0670fe19a0d5064e38fac",
						"blockNumber": 5479980,
						"data": "0x",
						"index": 215,
						"topics": [
							"0x6895c13664aa4f67288b25d7a21d7aaa34916e355fb9b6fae0a139a9085becb8",
							"0x000000000000000000000000ef1be3c049809cace5bc203bbe4ec1ab284bf75c"
						],
						"transactionHash": "0xf46589ac4e4664219920b647252d41a175538ee15c00e242f3dbb8033f84d2a0",
						"transactionIndex": 80
					},
					{
						"address": "0xEf1Be3C049809caCe5Bc203BBe4Ec1Ab284bF75c",
						"blockHash": "0x037a36fe3e0f190ce88cec25d1ff1d843e978d86c6c0670fe19a0d5064e38fac",
						"blockNumber": 5479980,
						"data": "0x0000000000000000000000000000000000000000000000000000000000000006",
						"index": 216,
						"topics": [
							"0xa65fb05c5808f5f389d72edeaf719ce38f4cc55c1f69ca3cbfb31c21501caa07",
							"0xfada22a01fc6019b369081d169c7f38ec6c9e2c67f065667d7be1b942a641e20"
						],
						"transactionHash": "0xf46589ac4e4664219920b647252d41a175538ee15c00e242f3dbb8033f84d2a0",
						"transactionIndex": 80
					},
					{
						"address": "0x1081B5AA9D9d4862A3dA4d469433FB36Ed80FA2A",
						"blockHash": "0x037a36fe3e0f190ce88cec25d1ff1d843e978d86c6c0670fe19a0d5064e38fac",
						"blockNumber": 5479980,
						"data": "0x000000000000000000000000f5b5e211b5943bee27baa1d6ac46139f13850270",
						"index": 217,
						"topics": [
							"0x4db17dd5e4732fb6da34a148104a592783ca119a1e7bb8829eba6cbadef0b511"
						],
						"transactionHash": "0xf46589ac4e4664219920b647252d41a175538ee15c00e242f3dbb8033f84d2a0",
						"transactionIndex": 80
					},
					{
						"address": "0x1081B5AA9D9d4862A3dA4d469433FB36Ed80FA2A",
						"blockHash": "0x037a36fe3e0f190ce88cec25d1ff1d843e978d86c6c0670fe19a0d5064e38fac",
						"blockNumber": 5479980,
						"data": "0x",
						"index": 218,
						"topics": [
							"0x6895c13664aa4f67288b25d7a21d7aaa34916e355fb9b6fae0a139a9085becb8",
							"0x000000000000000000000000ef1be3c049809cace5bc203bbe4ec1ab284bf75c"
						],
						"transactionHash": "0xf46589ac4e4664219920b647252d41a175538ee15c00e242f3dbb8033f84d2a0",
						"transactionIndex": 80
					},
					{
						"address": "0xEf1Be3C049809caCe5Bc203BBe4Ec1Ab284bF75c",
						"blockHash": "0x037a36fe3e0f190ce88cec25d1ff1d843e978d86c6c0670fe19a0d5064e38fac",
						"blockNumber": 5479980,
						"data": "0x0000000000000000000000000000000000000000000000000000000000000007",
						"index": 219,
						"topics": [
							"0xa65fb05c5808f5f389d72edeaf719ce38f4cc55c1f69ca3cbfb31c21501caa07",
							"0xfada22a01fc6019b369081d169c7f38ec6c9e2c67f065667d7be1b942a641e20"
						],
						"transactionHash": "0xf46589ac4e4664219920b647252d41a175538ee15c00e242f3dbb8033f84d2a0",
						"transactionIndex": 80
					}
				],
				"logsBloom": "0x00000000080010000008000000080000000000080008000000800000004000000062008000000100000000000040000000000000000000000010000000000000000000000000200400000000820000000001000000000000000200000000000000000000020000000000000000000800000000100020000000000000008000400001000000000000000100000000000002000000000000000000804000000000004000080010040008000000000000020200000000000080000000000006000000000000000000200000000008000000000000008000000000020000000020000000000000000004000000000000000200000000000000000000000000040000",
				"status": 1,
				"to": "0xB5E96127D417b1B3ef8438496a38A143167209c7"
			},
			"metadata": "{\"compiler\":{\"version\":\"0.8.23+commit.f704f362\"},\"language\":\"Solidity\",\"output\":{\"abi\":[{\"inputs\":[{\"internalType\":\"address\",\"name\":\"owner\",\"type\":\"address\"}],\"stateMutability\":\"nonpayable\",\"type\":\"constructor\"},{\"inputs\":[],\"type\":\"error\",\"name\":\"CheckpointUnorderedInsertion\"},{\"inputs\":[],\"type\":\"error\",\"name\":\"ECDSAInvalidSignature\"},{\"inputs\":[{\"internalType\":\"uint256\",\"name\":\"length\",\"type\":\"uint256\"}],\"type\":\"error\",\"name\":\"ECDSAInvalidSignatureLength\"},{\"inputs\":[{\"internalType\":\"bytes32\",\"name\":\"s\",\"type\":\"bytes32\"}],\"type\":\"error\",\"name\":\"ECDSAInvalidSignatureS\"},{\"inputs\":[{\"internalType\":\"uint256\",\"name\":\"timepoint\",\"type\":\"uint256\"},{\"internalType\":\"uint48\",\"name\":\"clock\",\"type\":\"uint48\"}],\"type\":\"error\",\"name\":\"ERC5805FutureLookup\"},{\"inputs\":[],\"type\":\"error\",\"name\":\"ERC6372InconsistentClock\"},{\"inputs\":[{\"internalType\":\"address\",\"name\":\"sender\",\"type\":\"address\"},{\"internalType\":\"uint256\",\"name\":\"tokenId\",\"type\":\"uint256\"},{\"internalType\":\"address\",\"name\":\"owner\",\"type\":\"address\"}],\"type\":\"error\",\"name\":\"ERC721IncorrectOwner\"},{\"inputs\":[{\"internalType\":\"address\",\"name\":\"operator\",\"type\":\"address\"},{\"internalType\":\"uint256\",\"name\":\"tokenId\",\"type\":\"uint256\"}],\"type\":\"error\",\"name\":\"ERC721InsufficientApproval\"},{\"inputs\":[{\"internalType\":\"address\",\"name\":\"approver\",\"type\":\"address\"}],\"type\":\"error\",\"name\":\"ERC721InvalidApprover\"},{\"inputs\":[{\"internalType\":\"address\",\"name\":\"operator\",\"type\":\"address\"}],\"type\":\"error\",\"name\":\"ERC721InvalidOperator\"},{\"inputs\":[{\"internalType\":\"address\",\"name\":\"owner\",\"type\":\"address\"}],\"type\":\"error\",\"name\":\"ERC721InvalidOwner\"},{\"inputs\":[{\"internalType\":\"address\",\"name\":\"receiver\",\"type\":\"address\"}],\"type\":\"error\",\"name\":\"ERC721InvalidReceiver\"},{\"inputs\":[{\"internalType\":\"address\",\"name\":\"sender\",\"type\":\"address\"}],\"type\":\"error\",\"name\":\"ERC721InvalidSender\"},{\"inputs\":[{\"internalType\":\"uint256\",\"name\":\"tokenId\",\"type\":\"uint256\"}],\"type\":\"error\",\"name\":\"ERC721NonexistentToken\"},{\"inputs\":[{\"internalType\":\"address\",\"name\":\"account\",\"type\":\"address\"},{\"internalType\":\"uint256\",\"name\":\"currentNonce\",\"type\":\"uint256\"}],\"type\":\"error\",\"name\":\"InvalidAccountNonce\"},{\"inputs\":[],\"type\":\"error\",\"name\":\"InvalidShortString\"},{\"inputs\":[{\"internalType\":\"address\",\"name\":\"owner\",\"type\":\"address\"}],\"type\":\"error\",\"name\":\"OwnableInvalidOwner\"},{\"inputs\":[{\"internalType\":\"address\",\"name\":\"account\",\"type\":\"address\"}],\"type\":\"error\",\"name\":\"OwnableUnauthorizedAccount\"},{\"inputs\":[{\"internalType\":\"uint8\",\"name\":\"bits\",\"type\":\"uint8\"},{\"internalType\":\"uint256\",\"name\":\"value\",\"type\":\"uint256\"}],\"type\":\"error\",\"name\":\"SafeCastOverflowedUintDowncast\"},{\"inputs\":[{\"internalType\":\"string\",\"name\":\"str\",\"type\":\"string\"}],\"type\":\"error\",\"name\":\"StringTooLong\"},{\"inputs\":[{\"internalType\":\"uint256\",\"name\":\"expiry\",\"type\":\"uint256\"}],\"type\":\"error\",\"name\":\"VotesExpiredSignature\"},{\"inputs\":[{\"internalType\":\"address\",\"name\":\"owner\",\"type\":\"address\",\"indexed\":true},{\"internalType\":\"address\",\"name\":\"approved\",\"type\":\"address\",\"indexed\":true},{\"internalType\":\"uint256\",\"name\":\"tokenId\",\"type\":\"uint256\",\"indexed\":true}],\"type\":\"event\",\"name\":\"Approval\",\"anonymous\":false},{\"inputs\":[{\"internalType\":\"address\",\"name\":\"owner\",\"type\":\"address\",\"indexed\":true},{\"internalType\":\"address\",\"name\":\"operator\",\"type\":\"address\",\"indexed\":true},{\"internalType\":\"bool\",\"name\":\"approved\",\"type\":\"bool\",\"indexed\":false}],\"type\":\"event\",\"name\":\"ApprovalForAll\",\"anonymous\":false},{\"inputs\":[{\"internalType\":\"uint256\",\"name\":\"projectId\",\"type\":\"uint256\",\"indexed\":true},{\"internalType\":\"address\",\"name\":\"owner\",\"type\":\"address\",\"indexed\":true},{\"internalType\":\"address\",\"name\":\"caller\",\"type\":\"address\",\"indexed\":false}],\"type\":\"event\",\"name\":\"Create\",\"anonymous\":false},{\"inputs\":[{\"internalType\":\"address\",\"name\":\"delegator\",\"type\":\"address\",\"indexed\":true},{\"internalType\":\"address\",\"name\":\"fromDelegate\",\"type\":\"address\",\"indexed\":true},{\"internalType\":\"address\",\"name\":\"toDelegate\",\"type\":\"address\",\"indexed\":true}],\"type\":\"event\",\"name\":\"DelegateChanged\",\"anonymous\":false},{\"inputs\":[{\"internalType\":\"address\",\"name\":\"delegate\",\"type\":\"address\",\"indexed\":true},{\"internalType\":\"uint256\",\"name\":\"previousVotes\",\"type\":\"uint256\",\"indexed\":false},{\"internalType\":\"uint256\",\"name\":\"newVotes\",\"type\":\"uint256\",\"indexed\":false}],\"type\":\"event\",\"name\":\"DelegateVotesChanged\",\"anonymous\":false},{\"inputs\":[],\"type\":\"event\",\"name\":\"EIP712DomainChanged\",\"anonymous\":false},{\"inputs\":[{\"internalType\":\"address\",\"name\":\"previousOwner\",\"type\":\"address\",\"indexed\":true},{\"internalType\":\"address\",\"name\":\"newOwner\",\"type\":\"address\",\"indexed\":true}],\"type\":\"event\",\"name\":\"OwnershipTransferred\",\"anonymous\":false},{\"inputs\":[{\"internalType\":\"contract IJBTokenUriResolver\",\"name\":\"resolver\",\"type\":\"address\",\"indexed\":true},{\"internalType\":\"address\",\"name\":\"caller\",\"type\":\"address\",\"indexed\":false}],\"type\":\"event\",\"name\":\"SetTokenUriResolver\",\"anonymous\":false},{\"inputs\":[{\"internalType\":\"address\",\"name\":\"from\",\"type\":\"address\",\"indexed\":true},{\"internalType\":\"address\",\"name\":\"to\",\"type\":\"address\",\"indexed\":true},{\"internalType\":\"uint256\",\"name\":\"tokenId\",\"type\":\"uint256\",\"indexed\":true}],\"type\":\"event\",\"name\":\"Transfer\",\"anonymous\":false},{\"inputs\":[],\"stateMutability\":\"view\",\"type\":\"function\",\"name\":\"CLOCK_MODE\",\"outputs\":[{\"internalType\":\"string\",\"name\":\"\",\"type\":\"string\"}]},{\"inputs\":[{\"internalType\":\"address\",\"name\":\"to\",\"type\":\"address\"},{\"internalType\":\"uint256\",\"name\":\"tokenId\",\"type\":\"uint256\"}],\"stateMutability\":\"nonpayable\",\"type\":\"function\",\"name\":\"approve\"},{\"inputs\":[{\"internalType\":\"address\",\"name\":\"owner\",\"type\":\"address\"}],\"stateMutability\":\"view\",\"type\":\"function\",\"name\":\"balanceOf\",\"outputs\":[{\"internalType\":\"uint256\",\"name\":\"\",\"type\":\"uint256\"}]},{\"inputs\":[],\"stateMutability\":\"view\",\"type\":\"function\",\"name\":\"clock\",\"outputs\":[{\"internalType\":\"uint48\",\"name\":\"\",\"type\":\"uint48\"}]},{\"inputs\":[],\"stateMutability\":\"view\",\"type\":\"function\",\"name\":\"count\",\"outputs\":[{\"internalType\":\"uint256\",\"name\":\"\",\"type\":\"uint256\"}]},{\"inputs\":[{\"internalType\":\"address\",\"name\":\"owner\",\"type\":\"address\"}],\"stateMutability\":\"nonpayable\",\"type\":\"function\",\"name\":\"createFor\",\"outputs\":[{\"internalType\":\"uint256\",\"name\":\"projectId\",\"type\":\"uint256\"}]},{\"inputs\":[{\"internalType\":\"address\",\"name\":\"delegatee\",\"type\":\"address\"}],\"stateMutability\":\"nonpayable\",\"type\":\"function\",\"name\":\"delegate\"},{\"inputs\":[{\"internalType\":\"address\",\"name\":\"delegatee\",\"type\":\"address\"},{\"internalType\":\"uint256\",\"name\":\"nonce\",\"type\":\"uint256\"},{\"internalType\":\"uint256\",\"name\":\"expiry\",\"type\":\"uint256\"},{\"internalType\":\"uint8\",\"name\":\"v\",\"type\":\"uint8\"},{\"internalType\":\"bytes32\",\"name\":\"r\",\"type\":\"bytes32\"},{\"internalType\":\"bytes32\",\"name\":\"s\",\"type\":\"bytes32\"}],\"stateMutability\":\"nonpayable\",\"type\":\"function\",\"name\":\"delegateBySig\"},{\"inputs\":[{\"internalType\":\"address\",\"name\":\"account\",\"type\":\"address\"}],\"stateMutability\":\"view\",\"type\":\"function\",\"name\":\"delegates\",\"outputs\":[{\"internalType\":\"address\",\"name\":\"\",\"type\":\"address\"}]},{\"inputs\":[],\"stateMutability\":\"view\",\"type\":\"function\",\"name\":\"eip712Domain\",\"outputs\":[{\"internalType\":\"bytes1\",\"name\":\"fields\",\"type\":\"bytes1\"},{\"internalType\":\"string\",\"name\":\"name\",\"type\":\"string\"},{\"internalType\":\"string\",\"name\":\"version\",\"type\":\"string\"},{\"internalType\":\"uint256\",\"name\":\"chainId\",\"type\":\"uint256\"},{\"internalType\":\"address\",\"name\":\"verifyingContract\",\"type\":\"address\"},{\"internalType\":\"bytes32\",\"name\":\"salt\",\"type\":\"bytes32\"},{\"internalType\":\"uint256[]\",\"name\":\"extensions\",\"type\":\"uint256[]\"}]},{\"inputs\":[{\"internalType\":\"uint256\",\"name\":\"tokenId\",\"type\":\"uint256\"}],\"stateMutability\":\"view\",\"type\":\"function\",\"name\":\"getApproved\",\"outputs\":[{\"internalType\":\"address\",\"name\":\"\",\"type\":\"address\"}]},{\"inputs\":[{\"internalType\":\"uint256\",\"name\":\"timepoint\",\"type\":\"uint256\"}],\"stateMutability\":\"view\",\"type\":\"function\",\"name\":\"getPastTotalSupply\",\"outputs\":[{\"internalType\":\"uint256\",\"name\":\"\",\"type\":\"uint256\"}]},{\"inputs\":[{\"internalType\":\"address\",\"name\":\"account\",\"type\":\"address\"},{\"internalType\":\"uint256\",\"name\":\"timepoint\",\"type\":\"uint256\"}],\"stateMutability\":\"view\",\"type\":\"function\",\"name\":\"getPastVotes\",\"outputs\":[{\"internalType\":\"uint256\",\"name\":\"\",\"type\":\"uint256\"}]},{\"inputs\":[{\"internalType\":\"address\",\"name\":\"account\",\"type\":\"address\"}],\"stateMutability\":\"view\",\"type\":\"function\",\"name\":\"getVotes\",\"outputs\":[{\"internalType\":\"uint256\",\"name\":\"\",\"type\":\"uint256\"}]},{\"inputs\":[{\"internalType\":\"address\",\"name\":\"owner\",\"type\":\"address\"},{\"internalType\":\"address\",\"name\":\"operator\",\"type\":\"address\"}],\"stateMutability\":\"view\",\"type\":\"function\",\"name\":\"isApprovedForAll\",\"outputs\":[{\"internalType\":\"bool\",\"name\":\"\",\"type\":\"bool\"}]},{\"inputs\":[],\"stateMutability\":\"view\",\"type\":\"function\",\"name\":\"name\",\"outputs\":[{\"internalType\":\"string\",\"name\":\"\",\"type\":\"string\"}]},{\"inputs\":[{\"internalType\":\"address\",\"name\":\"owner\",\"type\":\"address\"}],\"stateMutability\":\"view\",\"type\":\"function\",\"name\":\"nonces\",\"outputs\":[{\"internalType\":\"uint256\",\"name\":\"\",\"type\":\"uint256\"}]},{\"inputs\":[],\"stateMutability\":\"view\",\"type\":\"function\",\"name\":\"owner\",\"outputs\":[{\"internalType\":\"address\",\"name\":\"\",\"type\":\"address\"}]},{\"inputs\":[{\"internalType\":\"uint256\",\"name\":\"tokenId\",\"type\":\"uint256\"}],\"stateMutability\":\"view\",\"type\":\"function\",\"name\":\"ownerOf\",\"outputs\":[{\"internalType\":\"address\",\"name\":\"\",\"type\":\"address\"}]},{\"inputs\":[],\"stateMutability\":\"nonpayable\",\"type\":\"function\",\"name\":\"renounceOwnership\"},{\"inputs\":[{\"internalType\":\"address\",\"name\":\"from\",\"type\":\"address\"},{\"internalType\":\"address\",\"name\":\"to\",\"type\":\"address\"},{\"internalType\":\"uint256\",\"name\":\"tokenId\",\"type\":\"uint256\"}],\"stateMutability\":\"nonpayable\",\"type\":\"function\",\"name\":\"safeTransferFrom\"},{\"inputs\":[{\"internalType\":\"address\",\"name\":\"from\",\"type\":\"address\"},{\"internalType\":\"address\",\"name\":\"to\",\"type\":\"address\"},{\"internalType\":\"uint256\",\"name\":\"tokenId\",\"type\":\"uint256\"},{\"internalType\":\"bytes\",\"name\":\"data\",\"type\":\"bytes\"}],\"stateMutability\":\"nonpayable\",\"type\":\"function\",\"name\":\"safeTransferFrom\"},{\"inputs\":[{\"internalType\":\"address\",\"name\":\"operator\",\"type\":\"address\"},{\"internalType\":\"bool\",\"name\":\"approved\",\"type\":\"bool\"}],\"stateMutability\":\"nonpayable\",\"type\":\"function\",\"name\":\"setApprovalForAll\"},{\"inputs\":[{\"internalType\":\"contract IJBTokenUriResolver\",\"name\":\"newResolver\",\"type\":\"address\"}],\"stateMutability\":\"nonpayable\",\"type\":\"function\",\"name\":\"setTokenUriResolver\"},{\"inputs\":[{\"internalType\":\"bytes4\",\"name\":\"interfaceId\",\"type\":\"bytes4\"}],\"stateMutability\":\"view\",\"type\":\"function\",\"name\":\"supportsInterface\",\"outputs\":[{\"internalType\":\"bool\",\"name\":\"\",\"type\":\"bool\"}]},{\"inputs\":[],\"stateMutability\":\"view\",\"type\":\"function\",\"name\":\"symbol\",\"outputs\":[{\"internalType\":\"string\",\"name\":\"\",\"type\":\"string\"}]},{\"inputs\":[{\"internalType\":\"uint256\",\"name\":\"projectId\",\"type\":\"uint256\"}],\"stateMutability\":\"view\",\"type\":\"function\",\"name\":\"tokenURI\",\"outputs\":[{\"internalType\":\"string\",\"name\":\"\",\"type\":\"string\"}]},{\"inputs\":[],\"stateMutability\":\"view\",\"type\":\"function\",\"name\":\"tokenUriResolver\",\"outputs\":[{\"internalType\":\"contract IJBTokenUriResolver\",\"name\":\"\",\"type\":\"address\"}]},{\"inputs\":[{\"internalType\":\"address\",\"name\":\"from\",\"type\":\"address\"},{\"internalType\":\"address\",\"name\":\"to\",\"type\":\"address\"},{\"internalType\":\"uint256\",\"name\":\"tokenId\",\"type\":\"uint256\"}],\"stateMutability\":\"nonpayable\",\"type\":\"function\",\"name\":\"transferFrom\"},{\"inputs\":[{\"internalType\":\"address\",\"name\":\"newOwner\",\"type\":\"address\"}],\"stateMutability\":\"nonpayable\",\"type\":\"function\",\"name\":\"transferOwnership\"}],\"devdoc\":{\"kind\":\"dev\",\"methods\":{\"CLOCK_MODE()\":{\"details\":\"Machine-readable description of the clock as specified in EIP-6372.\"},\"approve(address,uint256)\":{\"details\":\"See {IERC721-approve}.\"},\"balanceOf(address)\":{\"details\":\"See {IERC721-balanceOf}.\"},\"clock()\":{\"details\":\"Clock used for flagging checkpoints. Can be overridden to implement timestamp based checkpoints (and voting), in which case {CLOCK_MODE} should be overridden as well to match.\"},\"constructor\":{\"params\":{\"owner\":\"The owner of the contract who can set metadata.\"}},\"createFor(address)\":{\"details\":\"Anyone can create a project on an owner's behalf.\",\"params\":{\"owner\":\"The address that will be the owner of the project.\"},\"returns\":{\"projectId\":\"The token ID of the newly created project.\"}},\"delegate(address)\":{\"details\":\"Delegates votes from the sender to `delegatee`.\"},\"delegateBySig(address,uint256,uint256,uint8,bytes32,bytes32)\":{\"details\":\"Delegates votes from signer to `delegatee`.\"},\"delegates(address)\":{\"details\":\"Returns the delegate that `account` has chosen.\"},\"eip712Domain()\":{\"details\":\"See {IERC-5267}.\"},\"getApproved(uint256)\":{\"details\":\"See {IERC721-getApproved}.\"},\"getPastTotalSupply(uint256)\":{\"details\":\"Returns the total supply of votes available at a specific moment in the past. If the `clock()` is configured to use block numbers, this will return the value at the end of the corresponding block. NOTE: This value is the sum of all available votes, which is not necessarily the sum of all delegated votes. Votes that have not been delegated are still part of total supply, even though they would not participate in a vote. Requirements: - `timepoint` must be in the past. If operating using block numbers, the block must be already mined.\"},\"getPastVotes(address,uint256)\":{\"details\":\"Returns the amount of votes that `account` had at a specific moment in the past. If the `clock()` is configured to use block numbers, this will return the value at the end of the corresponding block. Requirements: - `timepoint` must be in the past. If operating using block numbers, the block must be already mined.\"},\"getVotes(address)\":{\"details\":\"Returns the current amount of votes that `account` has.\"},\"isApprovedForAll(address,address)\":{\"details\":\"See {IERC721-isApprovedForAll}.\"},\"name()\":{\"details\":\"See {IERC721Metadata-name}.\"},\"nonces(address)\":{\"details\":\"Returns the next unused nonce for an address.\"},\"owner()\":{\"details\":\"Returns the address of the current owner.\"},\"ownerOf(uint256)\":{\"details\":\"See {IERC721-ownerOf}.\"},\"renounceOwnership()\":{\"details\":\"Leaves the contract without owner. It will not be possible to call `onlyOwner` functions. Can only be called by the current owner. NOTE: Renouncing ownership will leave the contract without an owner, thereby disabling any functionality that is only available to the owner.\"},\"safeTransferFrom(address,address,uint256)\":{\"details\":\"See {IERC721-safeTransferFrom}.\"},\"safeTransferFrom(address,address,uint256,bytes)\":{\"details\":\"See {IERC721-safeTransferFrom}.\"},\"setApprovalForAll(address,bool)\":{\"details\":\"See {IERC721-setApprovalForAll}.\"},\"setTokenUriResolver(address)\":{\"params\":{\"newResolver\":\"The address of the new resolver.\"}},\"supportsInterface(bytes4)\":{\"details\":\"See {IERC165-supportsInterface}.\",\"params\":{\"interfaceId\":\"The ID of the interface to check for adherance to.\"},\"returns\":{\"_0\":\"A flag indicating if the provided interface ID is supported.\"}},\"symbol()\":{\"details\":\"See {IERC721Metadata-symbol}.\"},\"tokenURI(uint256)\":{\"params\":{\"projectId\":\"The ID of the project to get a URI of.\"},\"returns\":{\"_0\":\"The token URI to use for the provided `projectId`.\"}},\"transferFrom(address,address,uint256)\":{\"details\":\"See {IERC721-transferFrom}.\"},\"transferOwnership(address)\":{\"details\":\"Transfers ownership of the contract to a new account (`newOwner`). Can only be called by the current owner.\"}},\"version\":1},\"userdoc\":{\"kind\":\"user\",\"methods\":{\"count()\":{\"notice\":\"The number of projects that have been created using this contract.\"},\"createFor(address)\":{\"notice\":\"Create a new project for the specified owner, which mints an NFT (ERC-721) into their wallet.\"},\"setTokenUriResolver(address)\":{\"notice\":\"Sets the address of the resolver used to retrieve the tokenURI of projects.\"},\"supportsInterface(bytes4)\":{\"notice\":\"Indicates if this contract adheres to the specified interface.\"},\"tokenURI(uint256)\":{\"notice\":\"Returns the URI where the ERC-721 standard JSON of a project is hosted.\"},\"tokenUriResolver()\":{\"notice\":\"The contract resolving each project ID to its ERC721 URI.\"}},\"version\":1}},\"settings\":{\"remappings\":[\"@bananapus/=node_modules/@bananapus/\",\"@chainlink/=node_modules/@chainlink/\",\"@eth-optimism/=node_modules/@eth-optimism/\",\"@gnosis.pm/=node_modules/@gnosis.pm/\",\"@openzeppelin/=node_modules/@openzeppelin/\",\"@prb/=node_modules/@prb/\",\"@sphinx-labs/contracts/=lib/sphinx/packages/contracts/contracts/foundry/\",\"@uniswap/=node_modules/@uniswap/\",\"ds-test/=lib/forge-std/lib/ds-test/src/\",\"forge-std/=lib/forge-std/src/\",\"hardhat/=node_modules/hardhat/\",\"solmate/=node_modules/solmate/\",\"sphinx-forge-std/=node_modules/sphinx-forge-std/\",\"sphinx-solmate/=node_modules/sphinx-solmate/\",\"sphinx/=lib/sphinx/\"],\"optimizer\":{\"enabled\":true,\"runs\":200},\"metadata\":{\"bytecodeHash\":\"ipfs\"},\"compilationTarget\":{\"src/JBProjects.sol\":\"JBProjects\"},\"evmVersion\":\"paris\",\"libraries\":{}},\"sources\":{\"node_modules/@openzeppelin/contracts/access/Ownable.sol\":{\"keccak256\":\"0xff6d0bb2e285473e5311d9d3caacb525ae3538a80758c10649a4d61029b017bb\",\"urls\":[\"bzz-raw://8ed324d3920bb545059d66ab97d43e43ee85fd3bd52e03e401f020afb0b120f6\",\"dweb:/ipfs/QmfEckWLmZkDDcoWrkEvMWhms66xwTLff9DDhegYpvHo1a\"],\"license\":\"MIT\"},\"node_modules/@openzeppelin/contracts/governance/utils/IVotes.sol\":{\"keccak256\":\"0x5e2b397ae88fd5c68e4f6762eb9f65f65c36702eb57796495f471d024ce70947\",\"urls\":[\"bzz-raw://348fc8e291d54314bb22437b532f443d5dbfb80c8cc9591567c1af6554ccf856\",\"dweb:/ipfs/QmP8ZTyitZinxcpwAHeYHhwj7u21zPpKXSiww38V74sXC2\"],\"license\":\"MIT\"},\"node_modules/@openzeppelin/contracts/governance/utils/Votes.sol\":{\"keccak256\":\"0xb8f69828d41b3594afd7a8c6393565901c205d8b5baf5bd2e42dbac637172979\",\"urls\":[\"bzz-raw://c790253821191ac46b2050d87df820d4209871f90c616381e2c2c00ff3eaac34\",\"dweb:/ipfs/QmcPETTyuZBzDRL39JNXj3SBMdx3Y9o4fPQLSZ27py5Jim\"],\"license\":\"MIT\"},\"node_modules/@openzeppelin/contracts/interfaces/IERC5267.sol\":{\"keccak256\":\"0x92aa1df62dc3d33f1656d63bede0923e0df0b706ad4137c8b10b0a8fe549fd92\",\"urls\":[\"bzz-raw://c5c0f29195ad64cbe556da8e257dac8f05f78c53f90323c0d2accf8e6922d33a\",\"dweb:/ipfs/QmQ61TED8uaCZwcbh8KkgRSsCav7x7HbcGHwHts3U4DmUP\"],\"license\":\"MIT\"},\"node_modules/@openzeppelin/contracts/interfaces/IERC5805.sol\":{\"keccak256\":\"0x4b9b89f91adbb7d3574f85394754cfb08c5b4eafca8a7061e2094a019ab8f818\",\"urls\":[\"bzz-raw://7373d5dbb8eb2381aa0883a456fac89283fcaf52f42fa805d4188f270716742a\",\"dweb:/ipfs/QmVnZDmT4ABvNhRJMaQnbCzsCA8HpyHPVaxi4fCi92LFv2\"],\"license\":\"MIT\"},\"node_modules/@openzeppelin/contracts/interfaces/IERC6372.sol\":{\"keccak256\":\"0xeb2857b7dafb7e0d8526dbfe794e6c047df2851c9e6ee91dc4a55f3c34af5d33\",\"urls\":[\"bzz-raw://49bf13f6c2a38a9bcc7b852d4e2b9cebb4068b832642cce61069cdb5f06bb2fb\",\"dweb:/ipfs/QmdKAJVE7rR2kENCZnEM1yKswrGii7WuE9gZpsQvnXJhwn\"],\"license\":\"MIT\"},\"node_modules/@openzeppelin/contracts/interfaces/draft-IERC6093.sol\":{\"keccak256\":\"0x60c65f701957fdd6faea1acb0bb45825791d473693ed9ecb34726fdfaa849dd7\",\"urls\":[\"bzz-raw://ea290300e0efc4d901244949dc4d877fd46e6c5e43dc2b26620e8efab3ab803f\",\"dweb:/ipfs/QmcLLJppxKeJWqHxE2CUkcfhuRTgHSn8J4kijcLa5MYhSt\"],\"license\":\"MIT\"},\"node_modules/@openzeppelin/contracts/token/ERC721/ERC721.sol\":{\"keccak256\":\"0x13dd061770956c8489b80cfc89d9cdfc8ea2783d953691ea037a380731d52784\",\"urls\":[\"bzz-raw://ed37f0f86e7fe31659e48c3a2a5920a92dd7f13c85cf8991fb79fe5f01e08efd\",\"dweb:/ipfs/QmUtm9bQGvjr9hHGwkPWrbgFmVqzaJcxjkaYDex2oGsonS\"],\"license\":\"MIT\"},\"node_modules/@openzeppelin/contracts/token/ERC721/IERC721.sol\":{\"keccak256\":\"0x5ef46daa3b58ef2702279d514780316efaa952915ee1aa3396f041ee2982b0b4\",\"urls\":[\"bzz-raw://2f8f2a76e23b02fc69e8cd24c3cb47da6c7af3a2d6c3a382f8ac25c6e094ade7\",\"dweb:/ipfs/QmPV4ZS4tPVv4mTCf9ejyZ1ai57EEibDRj7mN2ARDCLV5n\"],\"license\":\"MIT\"},\"node_modules/@openzeppelin/contracts/token/ERC721/IERC721Receiver.sol\":{\"keccak256\":\"0x7f7a26306c79a65fb8b3b6c757cd74660c532cd8a02e165488e30027dd34ca49\",\"urls\":[\"bzz-raw://d01e0b2b837ee2f628545e54d8715b49c7ef2befd08356c2e7f6c50dde8a1c22\",\"dweb:/ipfs/QmWBAn6y2D1xgftci97Z3qR9tQnkvwQpYwFwkTvDMvqU4i\"],\"license\":\"MIT\"},\"node_modules/@openzeppelin/contracts/token/ERC721/extensions/ERC721Votes.sol\":{\"keccak256\":\"0x51eec12bef5f18ea0bad353fbdc227c67b9082d1b459f7c87f47711ad152b0b3\",\"urls\":[\"bzz-raw://3f9142b8e720fa76191a966be6fd93a2a4357f5ac86bbb5cb050e53add32bfbe\",\"dweb:/ipfs/QmdFWtPT9PrMpQkExuDLCAELqA8yfYjQpfWKymdHdRTy2T\"],\"license\":\"MIT\"},\"node_modules/@openzeppelin/contracts/token/ERC721/extensions/IERC721Metadata.sol\":{\"keccak256\":\"0x37d1aaaa5a2908a09e9dcf56a26ddf762ecf295afb5964695937344fc6802ce1\",\"urls\":[\"bzz-raw://ed0bfc1b92153c5000e50f4021367b931bbe96372ac6facec3c4961b72053d02\",\"dweb:/ipfs/Qmbwp8VDerjS5SV1quwHH1oMXxPQ93fzfLVqJ2RCqbowGE\"],\"license\":\"MIT\"},\"node_modules/@openzeppelin/contracts/utils/Context.sol\":{\"keccak256\":\"0x493033a8d1b176a037b2cc6a04dad01a5c157722049bbecf632ca876224dd4b2\",\"urls\":[\"bzz-raw://6a708e8a5bdb1011c2c381c9a5cfd8a9a956d7d0a9dc1bd8bcdaf52f76ef2f12\",\"dweb:/ipfs/Qmax9WHBnVsZP46ZxEMNRQpLQnrdE4dK8LehML1Py8FowF\"],\"license\":\"MIT\"},\"node_modules/@openzeppelin/contracts/utils/Nonces.sol\":{\"keccak256\":\"0x0082767004fca261c332e9ad100868327a863a88ef724e844857128845ab350f\",\"urls\":[\"bzz-raw://132dce9686a54e025eb5ba5d2e48208f847a1ec3e60a3e527766d7bf53fb7f9e\",\"dweb:/ipfs/QmXn1a2nUZMpu2z6S88UoTfMVtY2YNh86iGrzJDYmMkKeZ\"],\"license\":\"MIT\"},\"node_modules/@openzeppelin/contracts/utils/ShortStrings.sol\":{\"keccak256\":\"0x18a7171df639a934592915a520ecb97c5bbc9675a1105607aac8a94e72bf62c6\",\"urls\":[\"bzz-raw://7478e1f13da69a2867ccd883001d836b75620362e743f196376d63ed0c422a1c\",\"dweb:/ipfs/QmWywcQ9TNfwtoqAxbn25d8C5VrV12PrPS9UjtGe6pL2BA\"],\"license\":\"MIT\"},\"node_modules/@openzeppelin/contracts/utils/StorageSlot.sol\":{\"keccak256\":\"0x32ba59b4b7299237c8ba56319110989d7978a039faf754793064e967e5894418\",\"urls\":[\"bzz-raw://1ae50c8b562427df610cc4540c9bf104acca7ef8e2dcae567ae7e52272281e9c\",\"dweb:/ipfs/QmTHiadFCSJUPpRjNegc5SahmeU8bAoY8i9Aq6tVscbcKR\"],\"license\":\"MIT\"},\"node_modules/@openzeppelin/contracts/utils/Strings.sol\":{\"keccak256\":\"0x55f102ea785d8399c0e58d1108e2d289506dde18abc6db1b7f68c1f9f9bc5792\",\"urls\":[\"bzz-raw://6e52e0a7765c943ef14e5bcf11e46e6139fa044be564881378349236bf2e3453\",\"dweb:/ipfs/QmZEeeXoFPW47amyP35gfzomF9DixqqTEPwzBakv6cZw6i\"],\"license\":\"MIT\"},\"node_modules/@openzeppelin/contracts/utils/cryptography/ECDSA.sol\":{\"keccak256\":\"0xeed0a08b0b091f528356cbc7245891a4c748682d4f6a18055e8e6ca77d12a6cf\",\"urls\":[\"bzz-raw://ba80ba06c8e6be852847e4c5f4492cef801feb6558ae09ed705ff2e04ea8b13c\",\"dweb:/ipfs/QmXRJDv3xHLVQCVXg1ZvR35QS9sij5y9NDWYzMfUfAdTHF\"],\"license\":\"MIT\"},\"node_modules/@openzeppelin/contracts/utils/cryptography/EIP712.sol\":{\"keccak256\":\"0x999f705a027ed6dc2d4e0df2cc4a509852c6bfd11de1c8161bf88832d0503fd0\",\"urls\":[\"bzz-raw://0798def67258d9a3cc20b2b4da7ebf351a5cefe0abfdd665d2d81f8e32f89b21\",\"dweb:/ipfs/QmPEvJosnPfzHNjKvCv2D3891mA2Ww8eUwkqrxBjuYdHCt\"],\"license\":\"MIT\"},\"node_modules/@openzeppelin/contracts/utils/cryptography/MessageHashUtils.sol\":{\"keccak256\":\"0xba333517a3add42cd35fe877656fc3dfcc9de53baa4f3aabbd6d12a92e4ea435\",\"urls\":[\"bzz-raw://2ceacff44c0fdc81e48e0e0b1db87a2076d3c1fb497341de077bf1da9f6b406c\",\"dweb:/ipfs/QmRUo1muMRAewxrKQ7TkXUtknyRoR57AyEkoPpiuZQ8FzX\"],\"license\":\"MIT\"},\"node_modules/@openzeppelin/contracts/utils/introspection/ERC165.sol\":{\"keccak256\":\"0x9e8778b14317ba9e256c30a76fd6c32b960af621987f56069e1e819c77c6a133\",\"urls\":[\"bzz-raw://1777404f1dcd0fac188e55a288724ec3c67b45288e49cc64723e95e702b49ab8\",\"dweb:/ipfs/QmZFdC626GButBApwDUvvTnUzdinevC3B24d7yyh57XkiA\"],\"license\":\"MIT\"},\"node_modules/@openzeppelin/contracts/utils/introspection/IERC165.sol\":{\"keccak256\":\"0x4296879f55019b23e135000eb36896057e7101fb7fb859c5ef690cf14643757b\",\"urls\":[\"bzz-raw://87b3541437c8c443ccd36795e56a338ed12855eec17f8da624511b8d1a7e14df\",\"dweb:/ipfs/QmeJQCtZrQjtJLr6u7ZHWeH3pBnjtLWzvRrKViAi7UZqxL\"],\"license\":\"MIT\"},\"node_modules/@openzeppelin/contracts/utils/math/Math.sol\":{\"keccak256\":\"0x005ec64c6313f0555d59e278f9a7a5ab2db5bdc72a027f255a37c327af1ec02d\",\"urls\":[\"bzz-raw://4ece9f0b9c8daca08c76b6b5405a6446b6f73b3a15fab7ff56e296cbd4a2c875\",\"dweb:/ipfs/QmQyRpyPRL5SQuAgj6SHmbir3foX65FJjbVTTQrA2EFg6L\"],\"license\":\"MIT\"},\"node_modules/@openzeppelin/contracts/utils/math/SafeCast.sol\":{\"keccak256\":\"0xe19a4d5f31d2861e7344e8e535e2feafb913d806d3e2b5fe7782741a2a7094fe\",\"urls\":[\"bzz-raw://4aed79c0fa6f0546ed02f2f683e8f77f0fd2ed7eb34d8bbf3d373c9a6d95b13c\",\"dweb:/ipfs/QmWqVz6UAVqmnWU5pqYPt1o6iDEZyPaBraAA3rKfTTSfYj\"],\"license\":\"MIT\"},\"node_modules/@openzeppelin/contracts/utils/math/SignedMath.sol\":{\"keccak256\":\"0x5f7e4076e175393767754387c962926577f1660dd9b810187b9002407656be72\",\"urls\":[\"bzz-raw://7d533a1c97cd43a57cd9c465f7ee8dd0e39ae93a8fb8ff8e5303a356b081cdcc\",\"dweb:/ipfs/QmVBEei6aTnvYNZp2CHYVNKyZS4q1KkjANfY39WVXZXVoT\"],\"license\":\"MIT\"},\"node_modules/@openzeppelin/contracts/utils/structs/Checkpoints.sol\":{\"keccak256\":\"0xbdc5e074d7dd6678f67e92b1a51a20226801a407b0e1af3da367c5d1ff4519ad\",\"urls\":[\"bzz-raw://a36cca6b22fff3db16fc789ff6c60eea71d4b156065d4d0c83a0bc5e91a77a8b\",\"dweb:/ipfs/QmYN3exd5AemxjBrN8XMB1p5LbbE16uC3sjbYjwi8AjcGR\"],\"license\":\"MIT\"},\"node_modules/@openzeppelin/contracts/utils/types/Time.sol\":{\"keccak256\":\"0xc7755af115020049e4140f224f9ee88d7e1799ffb0646f37bf0df24bf6213f58\",\"urls\":[\"bzz-raw://7f09bf94d5274334ec021f61a04659db303f31e60460e14b709c9bf187740111\",\"dweb:/ipfs/QmNvgomZYUwFAt4cZbPWAiTeSZQreGehY9BK5xyVJsUttb\"],\"license\":\"MIT\"},\"src/JBProjects.sol\":{\"keccak256\":\"0xb959e3d60bc4a8a43b9358be16549ca6d10059db3467c43703fa0c6c8e73621a\",\"urls\":[\"bzz-raw://5eb424d178e5946688c7ad6bfc7420c3c8bd7e9d5b2a0fef175462a6a4710012\",\"dweb:/ipfs/QmeXuNoYXrNZVrom4f6Mk5bcKbGk5BtRCzXKf9cpZDoCKW\"],\"license\":\"MIT\"},\"src/interfaces/IJBProjects.sol\":{\"keccak256\":\"0x85539f72c5871c53a919edc7db78931155464e9e00fccd30079b17e75820ddb9\",\"urls\":[\"bzz-raw://505466dbfbdeec77f948ce065676897a5b4a74b70bb234c1053b893c4849f3a1\",\"dweb:/ipfs/QmYBpZQub3Mv19xsRWqvzgiQSBAp4UNaKcqWQ2wwH62H95\"],\"license\":\"MIT\"},\"src/interfaces/IJBTokenUriResolver.sol\":{\"keccak256\":\"0xfa5cb00dcd6085d1ef912d071fe73c63f9478a2cd0f9d8bddaf659b6af2d0967\",\"urls\":[\"bzz-raw://282e4e7c342d65f77cde0e9a08fcaf20ef5cf379c7a48b639842c0ffd0b2afb8\",\"dweb:/ipfs/QmbnN3PEQeZaXdPLT75V1J79kMg7KqSMru37RHrL3z8Yf2\"],\"license\":\"MIT\"}},\"version\":1}",
			"args": [
				"0x823b92d6a4b2AED4b15675c7917c9f922ea8ADAD"
			],
			"bytecode": "0x6101606040526000600d553480156200001757600080fd5b5060405162002930380380620029308339810160408190526200003a91620002b5565b80604051806040016040528060118152602001704a75696365626f782050726f6a6563747360781b815250604051806040016040528060018152602001603160f81b815250604051806040016040528060118152602001704a75696365626f782050726f6a6563747360781b81525060405180604001604052806008815260200167094aa92868a849eb60c31b8152508160009081620000db91906200038e565b506001620000ea82826200038e565b50620000fc91508390506006620001e7565b610120526200010d816007620001e7565b61014052815160208084019190912060e052815190820120610100524660a0526200019b60e05161010051604080517f8b73c3c69bb8fe3d512ecc4cf759cc79239f7b179b0ffacaa9a75d522b39400f60208201529081019290925260608201524660808201523060a082015260009060c00160405160208183030381529060405280519060200120905090565b60805250503060c0526001600160a01b038116620001d457604051631e4fbdf760e01b8152600060048201526024015b60405180910390fd5b620001df8162000220565b5050620004d0565b60006020835110156200020757620001ff8362000272565b90506200021a565b816200021484826200038e565b5060ff90505b92915050565b600c80546001600160a01b038381166001600160a01b0319831681179093556040519116919082907f8be0079c531659141344cd1fd0a4f28419497f9722a3daafe3b4186f6b6457e090600090a35050565b600080829050601f81511115620002a0578260405163305a27a960e01b8152600401620001cb91906200045a565b8051620002ad82620004ab565b179392505050565b600060208284031215620002c857600080fd5b81516001600160a01b0381168114620002e057600080fd5b9392505050565b634e487b7160e01b600052604160045260246000fd5b600181811c908216806200031257607f821691505b6020821081036200033357634e487b7160e01b600052602260045260246000fd5b50919050565b601f82111562000389576000816000526020600020601f850160051c81016020861015620003645750805b601f850160051c820191505b81811015620003855782815560010162000370565b5050505b505050565b81516001600160401b03811115620003aa57620003aa620002e7565b620003c281620003bb8454620002fd565b8462000339565b602080601f831160018114620003fa5760008415620003e15750858301515b600019600386901b1c1916600185901b17855562000385565b600085815260208120601f198616915b828110156200042b578886015182559484019460019091019084016200040a565b50858210156200044a5787850151600019600388901b60f8161c191681555b5050505050600190811b01905550565b60006020808352835180602085015260005b818110156200048a578581018301518582016040015282016200046c565b506000604082860101526040601f19601f8301168501019250505092915050565b80516020808301519190811015620003335760001960209190910360031b1b16919050565b60805160a05160c05160e0516101005161012051610140516124056200052b6000396000610e0801526000610ddb015260006117c9015260006117a1015260006116fc015260006117260152600061175001526124056000f3fe608060405234801561001057600080fd5b50600436106101da5760003560e01c80637ecebe0011610104578063a22cb465116100a2578063c87b56dd11610071578063c87b56dd14610422578063e131fc0c14610435578063e985e9c514610448578063f2fde38b1461045b57600080fd5b8063a22cb465146103d6578063b88d4fde146103e9578063c0715888146103fc578063c3cda5201461040f57600080fd5b80638e539e8c116100de5780638e539e8c1461038957806391ddadf41461039c57806395d89b41146103bb5780639ab24eb0146103c357600080fd5b80637ecebe001461033457806384b0196e1461035d5780638da5cb5b1461037857600080fd5b80633a46b1a81161017c5780635c19a95c1161014b5780635c19a95c146102f35780636352211e1461030657806370a0823114610319578063715018a61461032c57600080fd5b80633a46b1a81461029957806342842e0e146102ac5780634bf5d7e9146102bf578063587cde1e146102c757600080fd5b8063081812fc116101b8578063081812fc14610233578063095ea7b31461025e57806323b872dd146102735780632407497e1461028657600080fd5b806301ffc9a7146101df57806306661abd1461020757806306fdde031461021e575b600080fd5b6101f26101ed366004611e1d565b61046e565b60405190151581526020015b60405180910390f35b610210600d5481565b6040519081526020016101fe565b610226610499565b6040516101fe9190611e8a565b610246610241366004611e9d565b61052b565b6040516001600160a01b0390911681526020016101fe565b61027161026c366004611ecb565b610554565b005b610271610281366004611ef7565b610563565b610271610294366004611f38565b6105f3565b6102106102a7366004611ecb565b610650565b6102716102ba366004611ef7565b6106d1565b6102266106f1565b6102466102d5366004611f38565b6001600160a01b039081166000908152600960205260409020541690565b610271610301366004611f38565b610769565b610246610314366004611e9d565b610774565b610210610327366004611f38565b61077f565b6102716107c7565b610210610342366004611f38565b6001600160a01b031660009081526008602052604090205490565b6103656107db565b6040516101fe9796959493929190611f55565b600c546001600160a01b0316610246565b610210610397366004611e9d565b610821565b6103a461088b565b60405165ffffffffffff90911681526020016101fe565b61022661089a565b6102106103d1366004611f38565b6108a9565b6102716103e4366004611fee565b6108d9565b6102716103f736600461209b565b6108e4565b61021061040a366004611f38565b6108fb565b61027161041d36600461214a565b61096a565b610226610430366004611e9d565b610a27565b600e54610246906001600160a01b031681565b6101f26104563660046121ac565b610ac5565b610271610469366004611f38565b610af3565b60006001600160e01b03198216630321f74760e01b1480610493575061049382610b31565b92915050565b6060600080546104a8906121da565b80601f01602080910402602001604051908101604052809291908181526020018280546104d4906121da565b80156105215780601f106104f657610100808354040283529160200191610521565b820191906000526020600020905b81548152906001019060200180831161050457829003601f168201915b5050505050905090565b600061053682610b81565b506000828152600460205260409020546001600160a01b0316610493565b61055f828233610bba565b5050565b6001600160a01b03821661059257604051633250574960e11b8152600060048201526024015b60405180910390fd5b600061059f838333610bc7565b9050836001600160a01b0316816001600160a01b0316146105ed576040516364283d7b60e01b81526001600160a01b0380861660048301526024820184905282166044820152606401610589565b50505050565b6105fb610beb565b600e80546001600160a01b0383166001600160a01b031990911681179091556040805133815290517fe7784d93cfbfa4408e19577e6cc0436f4dbb51214b70e100905dfce9def88c169181900360200190a250565b60008061065b61088b565b90508065ffffffffffff16831061069657604051637669fc0f60e11b81526004810184905265ffffffffffff82166024820152604401610589565b6106c06106a284610c18565b6001600160a01b0386166000908152600a6020526040902090610c4f565b6001600160d01b0316949350505050565b6106ec838383604051806020016040528060008152506108e4565b505050565b60606106fb610d05565b65ffffffffffff1661070b61088b565b65ffffffffffff1614610731576040516301bfc1c560e61b815260040160405180910390fd5b5060408051808201909152601d81527f6d6f64653d626c6f636b6e756d6265722666726f6d3d64656661756c74000000602082015290565b3361055f8183610d10565b600061049382610b81565b60006001600160a01b0382166107ab576040516322718ad960e21b815260006004820152602401610589565b506001600160a01b031660009081526003602052604090205490565b6107cf610beb565b6107d96000610d82565b565b6000606080600080600060606107ef610dd4565b6107f7610e01565b60408051600080825260208201909252600f60f81b9b939a50919850469750309650945092509050565b60008061082c61088b565b90508065ffffffffffff16831061086757604051637669fc0f60e11b81526004810184905265ffffffffffff82166024820152604401610589565b61087b61087384610c18565b600b90610c4f565b6001600160d01b03169392505050565b6000610895610d05565b905090565b6060600180546104a8906121da565b6001600160a01b0381166000908152600a602052604081206108ca90610e2e565b6001600160d01b031692915050565b61055f338383610e67565b6108ef848484610563565b6105ed84848484610f06565b6000600d6000815461090c9061222a565b9182905550905061091d828261102f565b6001600160a01b038216817f365b3162cd780731fc55a794b59494d472bc2af701007f581843a70673814698336040516001600160a01b03909116815260200160405180910390a3919050565b8342111561098e57604051632341d78760e11b815260048101859052602401610589565b604080517fe48329057bfd03d55e49b547132e39cffd9c1820ad7b9d4c5307691425d15adf60208201526001600160a01b038816918101919091526060810186905260808101859052600090610a0890610a009060a00160405160208183030381529060405280519060200120611049565b858585611076565b9050610a1481876110a4565b610a1e8188610d10565b50505050505050565b600e546060906001600160a01b031680610a51575050604080516020810190915260008152919050565b604051636d02a25560e11b8152600481018490526001600160a01b0382169063da0544aa90602401600060405180830381865afa158015610a96573d6000803e3d6000fd5b505050506040513d6000823e601f3d908101601f19168201604052610abe9190810190612243565b9392505050565b6001600160a01b03918216600090815260056020908152604080832093909416825291909152205460ff1690565b610afb610beb565b6001600160a01b038116610b2557604051631e4fbdf760e01b815260006004820152602401610589565b610b2e81610d82565b50565b60006001600160e01b031982166380ac58cd60e01b1480610b6257506001600160e01b03198216635b5e139f60e01b145b8061049357506301ffc9a760e01b6001600160e01b0319831614610493565b6000818152600260205260408120546001600160a01b03168061049357604051637e27328960e01b815260048101849052602401610589565b6106ec83838360016110f7565b600080610bd58585856111fd565b9050610be3818660016112f6565b949350505050565b600c546001600160a01b031633146107d95760405163118cdaa760e01b8152336004820152602401610589565b600065ffffffffffff821115610c4b576040516306dfcc6560e41b81526030600482015260248101839052604401610589565b5090565b815460009081816005811115610cae576000610c6a84611371565b610c7490856122ba565b60008881526020902090915081015465ffffffffffff9081169087161015610c9e57809150610cac565b610ca98160016122cd565b92505b505b6000610cbc87878585611459565b90508015610cf757610ce187610cd36001846122ba565b600091825260209091200190565b54600160301b90046001600160d01b0316610cfa565b60005b979650505050505050565b600061089543610c18565b6001600160a01b0382811660008181526009602052604080822080548686166001600160a01b0319821681179092559151919094169392849290917f3134e8a2e6d97e929a7e54011ea5485d7d196dd5f0ba4d4ef95803e8e3fc257f9190a46106ec8183610d7d866114bb565b6114c6565b600c80546001600160a01b038381166001600160a01b0319831681179093556040519116919082907f8be0079c531659141344cd1fd0a4f28419497f9722a3daafe3b4186f6b6457e090600090a35050565b60606108957f0000000000000000000000000000000000000000000000000000000000000000600661162d565b60606108957f0000000000000000000000000000000000000000000000000000000000000000600761162d565b80546000908015610e5e57610e4883610cd36001846122ba565b54600160301b90046001600160d01b0316610abe565b60009392505050565b6001600160a01b038216610e9957604051630b61174360e31b81526001600160a01b0383166004820152602401610589565b6001600160a01b03838116600081815260056020908152604080832094871680845294825291829020805460ff191686151590811790915591519182527f17307eab39ab6107e8899845ad3d59bd9653f200f220920489ca2b5937696c31910160405180910390a3505050565b6001600160a01b0383163b156105ed57604051630a85bd0160e11b81526001600160a01b0384169063150b7a0290610f489033908890879087906004016122e0565b6020604051808303816000875af1925050508015610f83575060408051601f3d908101601f19168201909252610f809181019061231d565b60015b610fec573d808015610fb1576040519150601f19603f3d011682016040523d82523d6000602084013e610fb6565b606091505b508051600003610fe457604051633250574960e11b81526001600160a01b0385166004820152602401610589565b805181602001fd5b6001600160e01b03198116630a85bd0160e11b1461102857604051633250574960e11b81526001600160a01b0385166004820152602401610589565b5050505050565b61055f8282604051806020016040528060008152506116d8565b60006104936110566116ef565b8360405161190160f01b8152600281019290925260228201526042902090565b6000806000806110888888888861181a565b92509250925061109882826118e9565b50909695505050505050565b6001600160a01b03821660009081526008602052604090208054600181019091558181146106ec576040516301d4b62360e61b81526001600160a01b038416600482015260248101829052604401610589565b808061110b57506001600160a01b03821615155b156111cd57600061111b84610b81565b90506001600160a01b038316158015906111475750826001600160a01b0316816001600160a01b031614155b801561115a57506111588184610ac5565b155b156111835760405163a9fbf51f60e01b81526001600160a01b0384166004820152602401610589565b81156111cb5783856001600160a01b0316826001600160a01b03167f8c5be1e5ebec7d5bd14f71427d1e84f3dd0314c0f7b2291e5b200ac8c7c3b92560405160405180910390a45b505b5050600090815260046020526040902080546001600160a01b0319166001600160a01b0392909216919091179055565b6000828152600260205260408120546001600160a01b039081169083161561122a5761122a8184866119a2565b6001600160a01b03811615611268576112476000856000806110f7565b6001600160a01b038116600090815260036020526040902080546000190190555b6001600160a01b03851615611297576001600160a01b0385166000908152600360205260409020805460010190555b60008481526002602052604080822080546001600160a01b0319166001600160a01b0389811691821790925591518793918516917fddf252ad1be2c89b69c2b068fc378daa952ba7f163c4a11628f55a4df523b3ef91a4949350505050565b6001600160a01b03831661131d5761131a600b611a0661131584611a12565b611a46565b50505b6001600160a01b03821661133f5761133c600b611a7f61131584611a12565b50505b6001600160a01b038381166000908152600960205260408082205485841683529120546106ec929182169116836114c6565b60008160000361138357506000919050565b6000600161139084611a8b565b901c6001901b905060018184816113a9576113a961233a565b048201901c905060018184816113c1576113c161233a565b048201901c905060018184816113d9576113d961233a565b048201901c905060018184816113f1576113f161233a565b048201901c905060018184816114095761140961233a565b048201901c905060018184816114215761142161233a565b048201901c905060018184816114395761143961233a565b048201901c9050610abe818285816114535761145361233a565b04611b1f565b60005b818310156114b35760006114708484611b35565b60008781526020902090915065ffffffffffff86169082015465ffffffffffff16111561149f578092506114ad565b6114aa8160016122cd565b93505b5061145c565b509392505050565b60006104938261077f565b816001600160a01b0316836001600160a01b0316141580156114e85750600081115b156106ec576001600160a01b0383161561158b576001600160a01b0383166000908152600a60205260408120819061152690611a7f61131586611a12565b6001600160d01b031691506001600160d01b03169150846001600160a01b03167fdec2bacdd2f05b59de34da9b523dff8be42e5e38e818c82fdb0bae774387a7248383604051611580929190918252602082015260400190565b60405180910390a250505b6001600160a01b038216156106ec576001600160a01b0382166000908152600a6020526040812081906115c490611a0661131586611a12565b6001600160d01b031691506001600160d01b03169150836001600160a01b03167fdec2bacdd2f05b59de34da9b523dff8be42e5e38e818c82fdb0bae774387a724838360405161161e929190918252602082015260400190565b60405180910390a25050505050565b606060ff83146116475761164083611b50565b9050610493565b818054611653906121da565b80601f016020809104026020016040519081016040528092919081815260200182805461167f906121da565b80156116cc5780601f106116a1576101008083540402835291602001916116cc565b820191906000526020600020905b8154815290600101906020018083116116af57829003601f168201915b50505050509050610493565b6116e28383611b8f565b6106ec6000848484610f06565b6000306001600160a01b037f00000000000000000000000000000000000000000000000000000000000000001614801561174857507f000000000000000000000000000000000000000000000000000000000000000046145b1561177257507f000000000000000000000000000000000000000000000000000000000000000090565b610895604080517f8b73c3c69bb8fe3d512ecc4cf759cc79239f7b179b0ffacaa9a75d522b39400f60208201527f0000000000000000000000000000000000000000000000000000000000000000918101919091527f000000000000000000000000000000000000000000000000000000000000000060608201524660808201523060a082015260009060c00160405160208183030381529060405280519060200120905090565b600080807f7fffffffffffffffffffffffffffffff5d576e7357a4501ddfe92f46681b20a084111561185557506000915060039050826118df565b604080516000808252602082018084528a905260ff891692820192909252606081018790526080810186905260019060a0016020604051602081039080840390855afa1580156118a9573d6000803e3d6000fd5b5050604051601f1901519150506001600160a01b0381166118d5575060009250600191508290506118df565b9250600091508190505b9450945094915050565b60008260038111156118fd576118fd612350565b03611906575050565b600182600381111561191a5761191a612350565b036119385760405163f645eedf60e01b815260040160405180910390fd5b600282600381111561194c5761194c612350565b0361196d5760405163fce698f760e01b815260048101829052602401610589565b600382600381111561198157611981612350565b0361055f576040516335e2f38360e21b815260048101829052602401610589565b6119ad838383611bf4565b6106ec576001600160a01b0383166119db57604051637e27328960e01b815260048101829052602401610589565b60405163177e802f60e01b81526001600160a01b038316600482015260248101829052604401610589565b6000610abe8284612366565b60006001600160d01b03821115610c4b576040516306dfcc6560e41b815260d0600482015260248101839052604401610589565b600080611a72611a5461088b565b611a6a611a6088610e2e565b868863ffffffff16565b879190611c57565b915091505b935093915050565b6000610abe828461238d565b600080608083901c15611aa057608092831c92015b604083901c15611ab257604092831c92015b602083901c15611ac457602092831c92015b601083901c15611ad657601092831c92015b600883901c15611ae857600892831c92015b600483901c15611afa57600492831c92015b600283901c15611b0c57600292831c92015b600183901c156104935760010192915050565b6000818310611b2e5781610abe565b5090919050565b6000611b4460028484186123ad565b610abe908484166122cd565b60606000611b5d83611c65565b604080516020808252818301909252919250600091906020820181803683375050509182525060208101929092525090565b6001600160a01b038216611bb957604051633250574960e11b815260006004820152602401610589565b6000611bc783836000610bc7565b90506001600160a01b038116156106ec576040516339e3563760e11b815260006004820152602401610589565b60006001600160a01b03831615801590610be35750826001600160a01b0316846001600160a01b03161480611c2e5750611c2e8484610ac5565b80610be35750506000908152600460205260409020546001600160a01b03908116911614919050565b600080611a72858585611c8d565b600060ff8216601f81111561049357604051632cd44ac360e21b815260040160405180910390fd5b825460009081908015611dac576000611cab87610cd36001856122ba565b60408051808201909152905465ffffffffffff808216808452600160301b9092046001600160d01b031660208401529192509087161015611cff57604051632520601d60e01b815260040160405180910390fd5b805165ffffffffffff808816911603611d4b5784611d2288610cd36001866122ba565b80546001600160d01b0392909216600160301b0265ffffffffffff909216919091179055611d9c565b6040805180820190915265ffffffffffff80881682526001600160d01b0380881660208085019182528b54600181018d5560008d81529190912094519151909216600160301b029216919091179101555b602001519250839150611a779050565b50506040805180820190915265ffffffffffff80851682526001600160d01b0380851660208085019182528854600181018a5560008a815291822095519251909316600160301b029190931617920191909155905081611a77565b6001600160e01b031981168114610b2e57600080fd5b600060208284031215611e2f57600080fd5b8135610abe81611e07565b60005b83811015611e55578181015183820152602001611e3d565b50506000910152565b60008151808452611e76816020860160208601611e3a565b601f01601f19169290920160200192915050565b602081526000610abe6020830184611e5e565b600060208284031215611eaf57600080fd5b5035919050565b6001600160a01b0381168114610b2e57600080fd5b60008060408385031215611ede57600080fd5b8235611ee981611eb6565b946020939093013593505050565b600080600060608486031215611f0c57600080fd5b8335611f1781611eb6565b92506020840135611f2781611eb6565b929592945050506040919091013590565b600060208284031215611f4a57600080fd5b8135610abe81611eb6565b60ff60f81b881681526000602060e06020840152611f7660e084018a611e5e565b8381036040850152611f88818a611e5e565b606085018990526001600160a01b038816608086015260a0850187905284810360c08601528551808252602080880193509091019060005b81811015611fdc57835183529284019291840191600101611fc0565b50909c9b505050505050505050505050565b6000806040838503121561200157600080fd5b823561200c81611eb6565b91506020830135801515811461202157600080fd5b809150509250929050565b634e487b7160e01b600052604160045260246000fd5b604051601f8201601f1916810167ffffffffffffffff8111828210171561206b5761206b61202c565b604052919050565b600067ffffffffffffffff82111561208d5761208d61202c565b50601f01601f191660200190565b600080600080608085870312156120b157600080fd5b84356120bc81611eb6565b935060208501356120cc81611eb6565b925060408501359150606085013567ffffffffffffffff8111156120ef57600080fd5b8501601f8101871361210057600080fd5b803561211361210e82612073565b612042565b81815288602083850101111561212857600080fd5b8160208401602083013760006020838301015280935050505092959194509250565b60008060008060008060c0878903121561216357600080fd5b863561216e81611eb6565b95506020870135945060408701359350606087013560ff8116811461219257600080fd5b9598949750929560808101359460a0909101359350915050565b600080604083850312156121bf57600080fd5b82356121ca81611eb6565b9150602083013561202181611eb6565b600181811c908216806121ee57607f821691505b60208210810361220e57634e487b7160e01b600052602260045260246000fd5b50919050565b634e487b7160e01b600052601160045260246000fd5b60006001820161223c5761223c612214565b5060010190565b60006020828403121561225557600080fd5b815167ffffffffffffffff81111561226c57600080fd5b8201601f8101841361227d57600080fd5b805161228b61210e82612073565b8181528560208385010111156122a057600080fd5b6122b1826020830160208601611e3a565b95945050505050565b8181038181111561049357610493612214565b8082018082111561049357610493612214565b6001600160a01b038581168252841660208201526040810183905260806060820181905260009061231390830184611e5e565b9695505050505050565b60006020828403121561232f57600080fd5b8151610abe81611e07565b634e487b7160e01b600052601260045260246000fd5b634e487b7160e01b600052602160045260246000fd5b6001600160d01b0381811683821601908082111561238657612386612214565b5092915050565b6001600160d01b0382811682821603908082111561238657612386612214565b6000826123ca57634e487b7160e01b600052601260045260246000fd5b50049056fea2646970667358221220212b53690543126073ac3819b10564780362be86ee0a9d0b651836ee9d71d71e64736f6c63430008170033",
			"deployedBytecode": "0x608060405234801561001057600080fd5b50600436106101da5760003560e01c80637ecebe0011610104578063a22cb465116100a2578063c87b56dd11610071578063c87b56dd14610422578063e131fc0c14610435578063e985e9c514610448578063f2fde38b1461045b57600080fd5b8063a22cb465146103d6578063b88d4fde146103e9578063c0715888146103fc578063c3cda5201461040f57600080fd5b80638e539e8c116100de5780638e539e8c1461038957806391ddadf41461039c57806395d89b41146103bb5780639ab24eb0146103c357600080fd5b80637ecebe001461033457806384b0196e1461035d5780638da5cb5b1461037857600080fd5b80633a46b1a81161017c5780635c19a95c1161014b5780635c19a95c146102f35780636352211e1461030657806370a0823114610319578063715018a61461032c57600080fd5b80633a46b1a81461029957806342842e0e146102ac5780634bf5d7e9146102bf578063587cde1e146102c757600080fd5b8063081812fc116101b8578063081812fc14610233578063095ea7b31461025e57806323b872dd146102735780632407497e1461028657600080fd5b806301ffc9a7146101df57806306661abd1461020757806306fdde031461021e575b600080fd5b6101f26101ed366004611e1d565b61046e565b60405190151581526020015b60405180910390f35b610210600d5481565b6040519081526020016101fe565b610226610499565b6040516101fe9190611e8a565b610246610241366004611e9d565b61052b565b6040516001600160a01b0390911681526020016101fe565b61027161026c366004611ecb565b610554565b005b610271610281366004611ef7565b610563565b610271610294366004611f38565b6105f3565b6102106102a7366004611ecb565b610650565b6102716102ba366004611ef7565b6106d1565b6102266106f1565b6102466102d5366004611f38565b6001600160a01b039081166000908152600960205260409020541690565b610271610301366004611f38565b610769565b610246610314366004611e9d565b610774565b610210610327366004611f38565b61077f565b6102716107c7565b610210610342366004611f38565b6001600160a01b031660009081526008602052604090205490565b6103656107db565b6040516101fe9796959493929190611f55565b600c546001600160a01b0316610246565b610210610397366004611e9d565b610821565b6103a461088b565b60405165ffffffffffff90911681526020016101fe565b61022661089a565b6102106103d1366004611f38565b6108a9565b6102716103e4366004611fee565b6108d9565b6102716103f736600461209b565b6108e4565b61021061040a366004611f38565b6108fb565b61027161041d36600461214a565b61096a565b610226610430366004611e9d565b610a27565b600e54610246906001600160a01b031681565b6101f26104563660046121ac565b610ac5565b610271610469366004611f38565b610af3565b60006001600160e01b03198216630321f74760e01b1480610493575061049382610b31565b92915050565b6060600080546104a8906121da565b80601f01602080910402602001604051908101604052809291908181526020018280546104d4906121da565b80156105215780601f106104f657610100808354040283529160200191610521565b820191906000526020600020905b81548152906001019060200180831161050457829003601f168201915b5050505050905090565b600061053682610b81565b506000828152600460205260409020546001600160a01b0316610493565b61055f828233610bba565b5050565b6001600160a01b03821661059257604051633250574960e11b8152600060048201526024015b60405180910390fd5b600061059f838333610bc7565b9050836001600160a01b0316816001600160a01b0316146105ed576040516364283d7b60e01b81526001600160a01b0380861660048301526024820184905282166044820152606401610589565b50505050565b6105fb610beb565b600e80546001600160a01b0383166001600160a01b031990911681179091556040805133815290517fe7784d93cfbfa4408e19577e6cc0436f4dbb51214b70e100905dfce9def88c169181900360200190a250565b60008061065b61088b565b90508065ffffffffffff16831061069657604051637669fc0f60e11b81526004810184905265ffffffffffff82166024820152604401610589565b6106c06106a284610c18565b6001600160a01b0386166000908152600a6020526040902090610c4f565b6001600160d01b0316949350505050565b6106ec838383604051806020016040528060008152506108e4565b505050565b60606106fb610d05565b65ffffffffffff1661070b61088b565b65ffffffffffff1614610731576040516301bfc1c560e61b815260040160405180910390fd5b5060408051808201909152601d81527f6d6f64653d626c6f636b6e756d6265722666726f6d3d64656661756c74000000602082015290565b3361055f8183610d10565b600061049382610b81565b60006001600160a01b0382166107ab576040516322718ad960e21b815260006004820152602401610589565b506001600160a01b031660009081526003602052604090205490565b6107cf610beb565b6107d96000610d82565b565b6000606080600080600060606107ef610dd4565b6107f7610e01565b60408051600080825260208201909252600f60f81b9b939a50919850469750309650945092509050565b60008061082c61088b565b90508065ffffffffffff16831061086757604051637669fc0f60e11b81526004810184905265ffffffffffff82166024820152604401610589565b61087b61087384610c18565b600b90610c4f565b6001600160d01b03169392505050565b6000610895610d05565b905090565b6060600180546104a8906121da565b6001600160a01b0381166000908152600a602052604081206108ca90610e2e565b6001600160d01b031692915050565b61055f338383610e67565b6108ef848484610563565b6105ed84848484610f06565b6000600d6000815461090c9061222a565b9182905550905061091d828261102f565b6001600160a01b038216817f365b3162cd780731fc55a794b59494d472bc2af701007f581843a70673814698336040516001600160a01b03909116815260200160405180910390a3919050565b8342111561098e57604051632341d78760e11b815260048101859052602401610589565b604080517fe48329057bfd03d55e49b547132e39cffd9c1820ad7b9d4c5307691425d15adf60208201526001600160a01b038816918101919091526060810186905260808101859052600090610a0890610a009060a00160405160208183030381529060405280519060200120611049565b858585611076565b9050610a1481876110a4565b610a1e8188610d10565b50505050505050565b600e546060906001600160a01b031680610a51575050604080516020810190915260008152919050565b604051636d02a25560e11b8152600481018490526001600160a01b0382169063da0544aa90602401600060405180830381865afa158015610a96573d6000803e3d6000fd5b505050506040513d6000823e601f3d908101601f19168201604052610abe9190810190612243565b9392505050565b6001600160a01b03918216600090815260056020908152604080832093909416825291909152205460ff1690565b610afb610beb565b6001600160a01b038116610b2557604051631e4fbdf760e01b815260006004820152602401610589565b610b2e81610d82565b50565b60006001600160e01b031982166380ac58cd60e01b1480610b6257506001600160e01b03198216635b5e139f60e01b145b8061049357506301ffc9a760e01b6001600160e01b0319831614610493565b6000818152600260205260408120546001600160a01b03168061049357604051637e27328960e01b815260048101849052602401610589565b6106ec83838360016110f7565b600080610bd58585856111fd565b9050610be3818660016112f6565b949350505050565b600c546001600160a01b031633146107d95760405163118cdaa760e01b8152336004820152602401610589565b600065ffffffffffff821115610c4b576040516306dfcc6560e41b81526030600482015260248101839052604401610589565b5090565b815460009081816005811115610cae576000610c6a84611371565b610c7490856122ba565b60008881526020902090915081015465ffffffffffff9081169087161015610c9e57809150610cac565b610ca98160016122cd565b92505b505b6000610cbc87878585611459565b90508015610cf757610ce187610cd36001846122ba565b600091825260209091200190565b54600160301b90046001600160d01b0316610cfa565b60005b979650505050505050565b600061089543610c18565b6001600160a01b0382811660008181526009602052604080822080548686166001600160a01b0319821681179092559151919094169392849290917f3134e8a2e6d97e929a7e54011ea5485d7d196dd5f0ba4d4ef95803e8e3fc257f9190a46106ec8183610d7d866114bb565b6114c6565b600c80546001600160a01b038381166001600160a01b0319831681179093556040519116919082907f8be0079c531659141344cd1fd0a4f28419497f9722a3daafe3b4186f6b6457e090600090a35050565b60606108957f4a75696365626f782050726f6a65637473000000000000000000000000000011600661162d565b60606108957f3100000000000000000000000000000000000000000000000000000000000001600761162d565b80546000908015610e5e57610e4883610cd36001846122ba565b54600160301b90046001600160d01b0316610abe565b60009392505050565b6001600160a01b038216610e9957604051630b61174360e31b81526001600160a01b0383166004820152602401610589565b6001600160a01b03838116600081815260056020908152604080832094871680845294825291829020805460ff191686151590811790915591519182527f17307eab39ab6107e8899845ad3d59bd9653f200f220920489ca2b5937696c31910160405180910390a3505050565b6001600160a01b0383163b156105ed57604051630a85bd0160e11b81526001600160a01b0384169063150b7a0290610f489033908890879087906004016122e0565b6020604051808303816000875af1925050508015610f83575060408051601f3d908101601f19168201909252610f809181019061231d565b60015b610fec573d808015610fb1576040519150601f19603f3d011682016040523d82523d6000602084013e610fb6565b606091505b508051600003610fe457604051633250574960e11b81526001600160a01b0385166004820152602401610589565b805181602001fd5b6001600160e01b03198116630a85bd0160e11b1461102857604051633250574960e11b81526001600160a01b0385166004820152602401610589565b5050505050565b61055f8282604051806020016040528060008152506116d8565b60006104936110566116ef565b8360405161190160f01b8152600281019290925260228201526042902090565b6000806000806110888888888861181a565b92509250925061109882826118e9565b50909695505050505050565b6001600160a01b03821660009081526008602052604090208054600181019091558181146106ec576040516301d4b62360e61b81526001600160a01b038416600482015260248101829052604401610589565b808061110b57506001600160a01b03821615155b156111cd57600061111b84610b81565b90506001600160a01b038316158015906111475750826001600160a01b0316816001600160a01b031614155b801561115a57506111588184610ac5565b155b156111835760405163a9fbf51f60e01b81526001600160a01b0384166004820152602401610589565b81156111cb5783856001600160a01b0316826001600160a01b03167f8c5be1e5ebec7d5bd14f71427d1e84f3dd0314c0f7b2291e5b200ac8c7c3b92560405160405180910390a45b505b5050600090815260046020526040902080546001600160a01b0319166001600160a01b0392909216919091179055565b6000828152600260205260408120546001600160a01b039081169083161561122a5761122a8184866119a2565b6001600160a01b03811615611268576112476000856000806110f7565b6001600160a01b038116600090815260036020526040902080546000190190555b6001600160a01b03851615611297576001600160a01b0385166000908152600360205260409020805460010190555b60008481526002602052604080822080546001600160a01b0319166001600160a01b0389811691821790925591518793918516917fddf252ad1be2c89b69c2b068fc378daa952ba7f163c4a11628f55a4df523b3ef91a4949350505050565b6001600160a01b03831661131d5761131a600b611a0661131584611a12565b611a46565b50505b6001600160a01b03821661133f5761133c600b611a7f61131584611a12565b50505b6001600160a01b038381166000908152600960205260408082205485841683529120546106ec929182169116836114c6565b60008160000361138357506000919050565b6000600161139084611a8b565b901c6001901b905060018184816113a9576113a961233a565b048201901c905060018184816113c1576113c161233a565b048201901c905060018184816113d9576113d961233a565b048201901c905060018184816113f1576113f161233a565b048201901c905060018184816114095761140961233a565b048201901c905060018184816114215761142161233a565b048201901c905060018184816114395761143961233a565b048201901c9050610abe818285816114535761145361233a565b04611b1f565b60005b818310156114b35760006114708484611b35565b60008781526020902090915065ffffffffffff86169082015465ffffffffffff16111561149f578092506114ad565b6114aa8160016122cd565b93505b5061145c565b509392505050565b60006104938261077f565b816001600160a01b0316836001600160a01b0316141580156114e85750600081115b156106ec576001600160a01b0383161561158b576001600160a01b0383166000908152600a60205260408120819061152690611a7f61131586611a12565b6001600160d01b031691506001600160d01b03169150846001600160a01b03167fdec2bacdd2f05b59de34da9b523dff8be42e5e38e818c82fdb0bae774387a7248383604051611580929190918252602082015260400190565b60405180910390a250505b6001600160a01b038216156106ec576001600160a01b0382166000908152600a6020526040812081906115c490611a0661131586611a12565b6001600160d01b031691506001600160d01b03169150836001600160a01b03167fdec2bacdd2f05b59de34da9b523dff8be42e5e38e818c82fdb0bae774387a724838360405161161e929190918252602082015260400190565b60405180910390a25050505050565b606060ff83146116475761164083611b50565b9050610493565b818054611653906121da565b80601f016020809104026020016040519081016040528092919081815260200182805461167f906121da565b80156116cc5780601f106116a1576101008083540402835291602001916116cc565b820191906000526020600020905b8154815290600101906020018083116116af57829003601f168201915b50505050509050610493565b6116e28383611b8f565b6106ec6000848484610f06565b6000306001600160a01b037f0000000000000000000000005e8a3b68ad51e2ae55e5d7215e9e59bc0f66e33f1614801561174857507f0000000000000000000000000000000000000000000000000000000000aa36a746145b1561177257507f4eea875644721f85f43f3e8e1bc243b079ffaca097e62b139a7b1f041ff7251390565b610895604080517f8b73c3c69bb8fe3d512ecc4cf759cc79239f7b179b0ffacaa9a75d522b39400f60208201527f2e5c5c1c4affeaeda2d3db263faddbd323c18ac7d44a6ca994665583d3b15dad918101919091527fc89efdaa54c0f20c7adf612882df0950f5a951637e0307cdcb4c672f298b8bc660608201524660808201523060a082015260009060c00160405160208183030381529060405280519060200120905090565b600080807f7fffffffffffffffffffffffffffffff5d576e7357a4501ddfe92f46681b20a084111561185557506000915060039050826118df565b604080516000808252602082018084528a905260ff891692820192909252606081018790526080810186905260019060a0016020604051602081039080840390855afa1580156118a9573d6000803e3d6000fd5b5050604051601f1901519150506001600160a01b0381166118d5575060009250600191508290506118df565b9250600091508190505b9450945094915050565b60008260038111156118fd576118fd612350565b03611906575050565b600182600381111561191a5761191a612350565b036119385760405163f645eedf60e01b815260040160405180910390fd5b600282600381111561194c5761194c612350565b0361196d5760405163fce698f760e01b815260048101829052602401610589565b600382600381111561198157611981612350565b0361055f576040516335e2f38360e21b815260048101829052602401610589565b6119ad838383611bf4565b6106ec576001600160a01b0383166119db57604051637e27328960e01b815260048101829052602401610589565b60405163177e802f60e01b81526001600160a01b038316600482015260248101829052604401610589565b6000610abe8284612366565b60006001600160d01b03821115610c4b576040516306dfcc6560e41b815260d0600482015260248101839052604401610589565b600080611a72611a5461088b565b611a6a611a6088610e2e565b868863ffffffff16565b879190611c57565b915091505b935093915050565b6000610abe828461238d565b600080608083901c15611aa057608092831c92015b604083901c15611ab257604092831c92015b602083901c15611ac457602092831c92015b601083901c15611ad657601092831c92015b600883901c15611ae857600892831c92015b600483901c15611afa57600492831c92015b600283901c15611b0c57600292831c92015b600183901c156104935760010192915050565b6000818310611b2e5781610abe565b5090919050565b6000611b4460028484186123ad565b610abe908484166122cd565b60606000611b5d83611c65565b604080516020808252818301909252919250600091906020820181803683375050509182525060208101929092525090565b6001600160a01b038216611bb957604051633250574960e11b815260006004820152602401610589565b6000611bc783836000610bc7565b90506001600160a01b038116156106ec576040516339e3563760e11b815260006004820152602401610589565b60006001600160a01b03831615801590610be35750826001600160a01b0316846001600160a01b03161480611c2e5750611c2e8484610ac5565b80610be35750506000908152600460205260409020546001600160a01b03908116911614919050565b600080611a72858585611c8d565b600060ff8216601f81111561049357604051632cd44ac360e21b815260040160405180910390fd5b825460009081908015611dac576000611cab87610cd36001856122ba565b60408051808201909152905465ffffffffffff808216808452600160301b9092046001600160d01b031660208401529192509087161015611cff57604051632520601d60e01b815260040160405180910390fd5b805165ffffffffffff808816911603611d4b5784611d2288610cd36001866122ba565b80546001600160d01b0392909216600160301b0265ffffffffffff909216919091179055611d9c565b6040805180820190915265ffffffffffff80881682526001600160d01b0380881660208085019182528b54600181018d5560008d81529190912094519151909216600160301b029216919091179101555b602001519250839150611a779050565b50506040805180820190915265ffffffffffff80851682526001600160d01b0380851660208085019182528854600181018a5560008a815291822095519251909316600160301b029190931617920191909155905081611a77565b6001600160e01b031981168114610b2e57600080fd5b600060208284031215611e2f57600080fd5b8135610abe81611e07565b60005b83811015611e55578181015183820152602001611e3d565b50506000910152565b60008151808452611e76816020860160208601611e3a565b601f01601f19169290920160200192915050565b602081526000610abe6020830184611e5e565b600060208284031215611eaf57600080fd5b5035919050565b6001600160a01b0381168114610b2e57600080fd5b60008060408385031215611ede57600080fd5b8235611ee981611eb6565b946020939093013593505050565b600080600060608486031215611f0c57600080fd5b8335611f1781611eb6565b92506020840135611f2781611eb6565b929592945050506040919091013590565b600060208284031215611f4a57600080fd5b8135610abe81611eb6565b60ff60f81b881681526000602060e06020840152611f7660e084018a611e5e565b8381036040850152611f88818a611e5e565b606085018990526001600160a01b038816608086015260a0850187905284810360c08601528551808252602080880193509091019060005b81811015611fdc57835183529284019291840191600101611fc0565b50909c9b505050505050505050505050565b6000806040838503121561200157600080fd5b823561200c81611eb6565b91506020830135801515811461202157600080fd5b809150509250929050565b634e487b7160e01b600052604160045260246000fd5b604051601f8201601f1916810167ffffffffffffffff8111828210171561206b5761206b61202c565b604052919050565b600067ffffffffffffffff82111561208d5761208d61202c565b50601f01601f191660200190565b600080600080608085870312156120b157600080fd5b84356120bc81611eb6565b935060208501356120cc81611eb6565b925060408501359150606085013567ffffffffffffffff8111156120ef57600080fd5b8501601f8101871361210057600080fd5b803561211361210e82612073565b612042565b81815288602083850101111561212857600080fd5b8160208401602083013760006020838301015280935050505092959194509250565b60008060008060008060c0878903121561216357600080fd5b863561216e81611eb6565b95506020870135945060408701359350606087013560ff8116811461219257600080fd5b9598949750929560808101359460a0909101359350915050565b600080604083850312156121bf57600080fd5b82356121ca81611eb6565b9150602083013561202181611eb6565b600181811c908216806121ee57607f821691505b60208210810361220e57634e487b7160e01b600052602260045260246000fd5b50919050565b634e487b7160e01b600052601160045260246000fd5b60006001820161223c5761223c612214565b5060010190565b60006020828403121561225557600080fd5b815167ffffffffffffffff81111561226c57600080fd5b8201601f8101841361227d57600080fd5b805161228b61210e82612073565b8181528560208385010111156122a057600080fd5b6122b1826020830160208601611e3a565b95945050505050565b8181038181111561049357610493612214565b8082018082111561049357610493612214565b6001600160a01b038581168252841660208201526040810183905260806060820181905260009061231390830184611e5e565b9695505050505050565b60006020828403121561232f57600080fd5b8151610abe81611e07565b634e487b7160e01b600052601260045260246000fd5b634e487b7160e01b600052602160045260246000fd5b6001600160d01b0381811683821601908082111561238657612386612214565b5092915050565b6001600160d01b0382811682821603908082111561238657612386612214565b6000826123ca57634e487b7160e01b600052601260045260246000fd5b50049056fea2646970667358221220212b53690543126073ac3819b10564780362be86ee0a9d0b651836ee9d71d71e64736f6c63430008170033",
			"devdoc": {
				"kind": "dev",
				"methods": {
					"CLOCK_MODE()": {
						"details": "Machine-readable description of the clock as specified in EIP-6372."
					},
					"approve(address,uint256)": {
						"details": "See {IERC721-approve}."
					},
					"balanceOf(address)": {
						"details": "See {IERC721-balanceOf}."
					},
					"clock()": {
						"details": "Clock used for flagging checkpoints. Can be overridden to implement timestamp based checkpoints (and voting), in which case {CLOCK_MODE} should be overridden as well to match."
					},
					"constructor": {
						"params": {
							"owner": "The owner of the contract who can set metadata."
						}
					},
					"createFor(address)": {
						"details": "Anyone can create a project on an owner's behalf.",
						"params": {
							"owner": "The address that will be the owner of the project."
						},
						"returns": {
							"projectId": "The token ID of the newly created project."
						}
					},
					"delegate(address)": {
						"details": "Delegates votes from the sender to `delegatee`."
					},
					"delegateBySig(address,uint256,uint256,uint8,bytes32,bytes32)": {
						"details": "Delegates votes from signer to `delegatee`."
					},
					"delegates(address)": {
						"details": "Returns the delegate that `account` has chosen."
					},
					"eip712Domain()": {
						"details": "See {IERC-5267}."
					},
					"getApproved(uint256)": {
						"details": "See {IERC721-getApproved}."
					},
					"getPastTotalSupply(uint256)": {
						"details": "Returns the total supply of votes available at a specific moment in the past. If the `clock()` is configured to use block numbers, this will return the value at the end of the corresponding block. NOTE: This value is the sum of all available votes, which is not necessarily the sum of all delegated votes. Votes that have not been delegated are still part of total supply, even though they would not participate in a vote. Requirements: - `timepoint` must be in the past. If operating using block numbers, the block must be already mined."
					},
					"getPastVotes(address,uint256)": {
						"details": "Returns the amount of votes that `account` had at a specific moment in the past. If the `clock()` is configured to use block numbers, this will return the value at the end of the corresponding block. Requirements: - `timepoint` must be in the past. If operating using block numbers, the block must be already mined."
					},
					"getVotes(address)": {
						"details": "Returns the current amount of votes that `account` has."
					},
					"isApprovedForAll(address,address)": {
						"details": "See {IERC721-isApprovedForAll}."
					},
					"name()": {
						"details": "See {IERC721Metadata-name}."
					},
					"nonces(address)": {
						"details": "Returns the next unused nonce for an address."
					},
					"owner()": {
						"details": "Returns the address of the current owner."
					},
					"ownerOf(uint256)": {
						"details": "See {IERC721-ownerOf}."
					},
					"renounceOwnership()": {
						"details": "Leaves the contract without owner. It will not be possible to call `onlyOwner` functions. Can only be called by the current owner. NOTE: Renouncing ownership will leave the contract without an owner, thereby disabling any functionality that is only available to the owner."
					},
					"safeTransferFrom(address,address,uint256)": {
						"details": "See {IERC721-safeTransferFrom}."
					},
					"safeTransferFrom(address,address,uint256,bytes)": {
						"details": "See {IERC721-safeTransferFrom}."
					},
					"setApprovalForAll(address,bool)": {
						"details": "See {IERC721-setApprovalForAll}."
					},
					"setTokenUriResolver(address)": {
						"params": {
							"newResolver": "The address of the new resolver."
						}
					},
					"supportsInterface(bytes4)": {
						"details": "See {IERC165-supportsInterface}.",
						"params": {
							"interfaceId": "The ID of the interface to check for adherance to."
						},
						"returns": {
							"_0": "A flag indicating if the provided interface ID is supported."
						}
					},
					"symbol()": {
						"details": "See {IERC721Metadata-symbol}."
					},
					"tokenURI(uint256)": {
						"params": {
							"projectId": "The ID of the project to get a URI of."
						},
						"returns": {
							"_0": "The token URI to use for the provided `projectId`."
						}
					},
					"transferFrom(address,address,uint256)": {
						"details": "See {IERC721-transferFrom}."
					},
					"transferOwnership(address)": {
						"details": "Transfers ownership of the contract to a new account (`newOwner`). Can only be called by the current owner."
					}
				},
				"version": 1
			},
			"userdoc": {
				"kind": "user",
				"methods": {
					"count()": {
						"notice": "The number of projects that have been created using this contract."
					},
					"createFor(address)": {
						"notice": "Create a new project for the specified owner, which mints an NFT (ERC-721) into their wallet."
					},
					"setTokenUriResolver(address)": {
						"notice": "Sets the address of the resolver used to retrieve the tokenURI of projects."
					},
					"supportsInterface(bytes4)": {
						"notice": "Indicates if this contract adheres to the specified interface."
					},
					"tokenURI(uint256)": {
						"notice": "Returns the URI where the ERC-721 standard JSON of a project is hosted."
					},
					"tokenUriResolver()": {
						"notice": "The contract resolving each project ID to its ERC721 URI."
					}
				},
				"version": 1
			},
			"gitCommit": "23e7dfead2a66e76f5e7c501a807ff78b09b92c3",
			"sourceName": "src/JBProjects.sol",
			"chainId": "11155111",
			"linkReferences": {},
			"deployedLinkReferences": {}
		},
		{
			"_format": "sphinx-sol-ct-artifact-1",
			"merkleRoot": "0x9e0e602421b8af18b231044c4a9fcd3210b88a991260bd2d68511776273418b9",
			"contractName": "JBProjects",
			"address": "0x45452B26fe78D2b83247279F87c847F4F4A8FCEb",
			"abi": [
				{
					"type": "constructor",
					"inputs": [
						{
							"name": "owner",
							"type": "address",
							"internalType": "address"
						}
					],
					"stateMutability": "nonpayable"
				},
				{
					"type": "function",
					"name": "CLOCK_MODE",
					"inputs": [],
					"outputs": [
						{
							"name": "",
							"type": "string",
							"internalType": "string"
						}
					],
					"stateMutability": "view"
				},
				{
					"type": "function",
					"name": "approve",
					"inputs": [
						{
							"name": "to",
							"type": "address",
							"internalType": "address"
						},
						{
							"name": "tokenId",
							"type": "uint256",
							"internalType": "uint256"
						}
					],
					"outputs": [],
					"stateMutability": "nonpayable"
				},
				{
					"type": "function",
					"name": "balanceOf",
					"inputs": [
						{
							"name": "owner",
							"type": "address",
							"internalType": "address"
						}
					],
					"outputs": [
						{
							"name": "",
							"type": "uint256",
							"internalType": "uint256"
						}
					],
					"stateMutability": "view"
				},
				{
					"type": "function",
					"name": "clock",
					"inputs": [],
					"outputs": [
						{
							"name": "",
							"type": "uint48",
							"internalType": "uint48"
						}
					],
					"stateMutability": "view"
				},
				{
					"type": "function",
					"name": "count",
					"inputs": [],
					"outputs": [
						{
							"name": "",
							"type": "uint256",
							"internalType": "uint256"
						}
					],
					"stateMutability": "view"
				},
				{
					"type": "function",
					"name": "createFor",
					"inputs": [
						{
							"name": "owner",
							"type": "address",
							"internalType": "address"
						}
					],
					"outputs": [
						{
							"name": "projectId",
							"type": "uint256",
							"internalType": "uint256"
						}
					],
					"stateMutability": "nonpayable"
				},
				{
					"type": "function",
					"name": "delegate",
					"inputs": [
						{
							"name": "delegatee",
							"type": "address",
							"internalType": "address"
						}
					],
					"outputs": [],
					"stateMutability": "nonpayable"
				},
				{
					"type": "function",
					"name": "delegateBySig",
					"inputs": [
						{
							"name": "delegatee",
							"type": "address",
							"internalType": "address"
						},
						{
							"name": "nonce",
							"type": "uint256",
							"internalType": "uint256"
						},
						{
							"name": "expiry",
							"type": "uint256",
							"internalType": "uint256"
						},
						{
							"name": "v",
							"type": "uint8",
							"internalType": "uint8"
						},
						{
							"name": "r",
							"type": "bytes32",
							"internalType": "bytes32"
						},
						{
							"name": "s",
							"type": "bytes32",
							"internalType": "bytes32"
						}
					],
					"outputs": [],
					"stateMutability": "nonpayable"
				},
				{
					"type": "function",
					"name": "delegates",
					"inputs": [
						{
							"name": "account",
							"type": "address",
							"internalType": "address"
						}
					],
					"outputs": [
						{
							"name": "",
							"type": "address",
							"internalType": "address"
						}
					],
					"stateMutability": "view"
				},
				{
					"type": "function",
					"name": "eip712Domain",
					"inputs": [],
					"outputs": [
						{
							"name": "fields",
							"type": "bytes1",
							"internalType": "bytes1"
						},
						{
							"name": "name",
							"type": "string",
							"internalType": "string"
						},
						{
							"name": "version",
							"type": "string",
							"internalType": "string"
						},
						{
							"name": "chainId",
							"type": "uint256",
							"internalType": "uint256"
						},
						{
							"name": "verifyingContract",
							"type": "address",
							"internalType": "address"
						},
						{
							"name": "salt",
							"type": "bytes32",
							"internalType": "bytes32"
						},
						{
							"name": "extensions",
							"type": "uint256[]",
							"internalType": "uint256[]"
						}
					],
					"stateMutability": "view"
				},
				{
					"type": "function",
					"name": "getApproved",
					"inputs": [
						{
							"name": "tokenId",
							"type": "uint256",
							"internalType": "uint256"
						}
					],
					"outputs": [
						{
							"name": "",
							"type": "address",
							"internalType": "address"
						}
					],
					"stateMutability": "view"
				},
				{
					"type": "function",
					"name": "getPastTotalSupply",
					"inputs": [
						{
							"name": "timepoint",
							"type": "uint256",
							"internalType": "uint256"
						}
					],
					"outputs": [
						{
							"name": "",
							"type": "uint256",
							"internalType": "uint256"
						}
					],
					"stateMutability": "view"
				},
				{
					"type": "function",
					"name": "getPastVotes",
					"inputs": [
						{
							"name": "account",
							"type": "address",
							"internalType": "address"
						},
						{
							"name": "timepoint",
							"type": "uint256",
							"internalType": "uint256"
						}
					],
					"outputs": [
						{
							"name": "",
							"type": "uint256",
							"internalType": "uint256"
						}
					],
					"stateMutability": "view"
				},
				{
					"type": "function",
					"name": "getVotes",
					"inputs": [
						{
							"name": "account",
							"type": "address",
							"internalType": "address"
						}
					],
					"outputs": [
						{
							"name": "",
							"type": "uint256",
							"internalType": "uint256"
						}
					],
					"stateMutability": "view"
				},
				{
					"type": "function",
					"name": "isApprovedForAll",
					"inputs": [
						{
							"name": "owner",
							"type": "address",
							"internalType": "address"
						},
						{
							"name": "operator",
							"type": "address",
							"internalType": "address"
						}
					],
					"outputs": [
						{
							"name": "",
							"type": "bool",
							"internalType": "bool"
						}
					],
					"stateMutability": "view"
				},
				{
					"type": "function",
					"name": "name",
					"inputs": [],
					"outputs": [
						{
							"name": "",
							"type": "string",
							"internalType": "string"
						}
					],
					"stateMutability": "view"
				},
				{
					"type": "function",
					"name": "nonces",
					"inputs": [
						{
							"name": "owner",
							"type": "address",
							"internalType": "address"
						}
					],
					"outputs": [
						{
							"name": "",
							"type": "uint256",
							"internalType": "uint256"
						}
					],
					"stateMutability": "view"
				},
				{
					"type": "function",
					"name": "owner",
					"inputs": [],
					"outputs": [
						{
							"name": "",
							"type": "address",
							"internalType": "address"
						}
					],
					"stateMutability": "view"
				},
				{
					"type": "function",
					"name": "ownerOf",
					"inputs": [
						{
							"name": "tokenId",
							"type": "uint256",
							"internalType": "uint256"
						}
					],
					"outputs": [
						{
							"name": "",
							"type": "address",
							"internalType": "address"
						}
					],
					"stateMutability": "view"
				},
				{
					"type": "function",
					"name": "renounceOwnership",
					"inputs": [],
					"outputs": [],
					"stateMutability": "nonpayable"
				},
				{
					"type": "function",
					"name": "safeTransferFrom",
					"inputs": [
						{
							"name": "from",
							"type": "address",
							"internalType": "address"
						},
						{
							"name": "to",
							"type": "address",
							"internalType": "address"
						},
						{
							"name": "tokenId",
							"type": "uint256",
							"internalType": "uint256"
						}
					],
					"outputs": [],
					"stateMutability": "nonpayable"
				},
				{
					"type": "function",
					"name": "safeTransferFrom",
					"inputs": [
						{
							"name": "from",
							"type": "address",
							"internalType": "address"
						},
						{
							"name": "to",
							"type": "address",
							"internalType": "address"
						},
						{
							"name": "tokenId",
							"type": "uint256",
							"internalType": "uint256"
						},
						{
							"name": "data",
							"type": "bytes",
							"internalType": "bytes"
						}
					],
					"outputs": [],
					"stateMutability": "nonpayable"
				},
				{
					"type": "function",
					"name": "setApprovalForAll",
					"inputs": [
						{
							"name": "operator",
							"type": "address",
							"internalType": "address"
						},
						{
							"name": "approved",
							"type": "bool",
							"internalType": "bool"
						}
					],
					"outputs": [],
					"stateMutability": "nonpayable"
				},
				{
					"type": "function",
					"name": "setTokenUriResolver",
					"inputs": [
						{
							"name": "newResolver",
							"type": "address",
							"internalType": "contract IJBTokenUriResolver"
						}
					],
					"outputs": [],
					"stateMutability": "nonpayable"
				},
				{
					"type": "function",
					"name": "supportsInterface",
					"inputs": [
						{
							"name": "interfaceId",
							"type": "bytes4",
							"internalType": "bytes4"
						}
					],
					"outputs": [
						{
							"name": "",
							"type": "bool",
							"internalType": "bool"
						}
					],
					"stateMutability": "view"
				},
				{
					"type": "function",
					"name": "symbol",
					"inputs": [],
					"outputs": [
						{
							"name": "",
							"type": "string",
							"internalType": "string"
						}
					],
					"stateMutability": "view"
				},
				{
					"type": "function",
					"name": "tokenURI",
					"inputs": [
						{
							"name": "projectId",
							"type": "uint256",
							"internalType": "uint256"
						}
					],
					"outputs": [
						{
							"name": "",
							"type": "string",
							"internalType": "string"
						}
					],
					"stateMutability": "view"
				},
				{
					"type": "function",
					"name": "tokenUriResolver",
					"inputs": [],
					"outputs": [
						{
							"name": "",
							"type": "address",
							"internalType": "contract IJBTokenUriResolver"
						}
					],
					"stateMutability": "view"
				},
				{
					"type": "function",
					"name": "transferFrom",
					"inputs": [
						{
							"name": "from",
							"type": "address",
							"internalType": "address"
						},
						{
							"name": "to",
							"type": "address",
							"internalType": "address"
						},
						{
							"name": "tokenId",
							"type": "uint256",
							"internalType": "uint256"
						}
					],
					"outputs": [],
					"stateMutability": "nonpayable"
				},
				{
					"type": "function",
					"name": "transferOwnership",
					"inputs": [
						{
							"name": "newOwner",
							"type": "address",
							"internalType": "address"
						}
					],
					"outputs": [],
					"stateMutability": "nonpayable"
				},
				{
					"type": "event",
					"name": "Approval",
					"inputs": [
						{
							"name": "owner",
							"type": "address",
							"indexed": true,
							"internalType": "address"
						},
						{
							"name": "approved",
							"type": "address",
							"indexed": true,
							"internalType": "address"
						},
						{
							"name": "tokenId",
							"type": "uint256",
							"indexed": true,
							"internalType": "uint256"
						}
					],
					"anonymous": false
				},
				{
					"type": "event",
					"name": "ApprovalForAll",
					"inputs": [
						{
							"name": "owner",
							"type": "address",
							"indexed": true,
							"internalType": "address"
						},
						{
							"name": "operator",
							"type": "address",
							"indexed": true,
							"internalType": "address"
						},
						{
							"name": "approved",
							"type": "bool",
							"indexed": false,
							"internalType": "bool"
						}
					],
					"anonymous": false
				},
				{
					"type": "event",
					"name": "Create",
					"inputs": [
						{
							"name": "projectId",
							"type": "uint256",
							"indexed": true,
							"internalType": "uint256"
						},
						{
							"name": "owner",
							"type": "address",
							"indexed": true,
							"internalType": "address"
						},
						{
							"name": "caller",
							"type": "address",
							"indexed": false,
							"internalType": "address"
						}
					],
					"anonymous": false
				},
				{
					"type": "event",
					"name": "DelegateChanged",
					"inputs": [
						{
							"name": "delegator",
							"type": "address",
							"indexed": true,
							"internalType": "address"
						},
						{
							"name": "fromDelegate",
							"type": "address",
							"indexed": true,
							"internalType": "address"
						},
						{
							"name": "toDelegate",
							"type": "address",
							"indexed": true,
							"internalType": "address"
						}
					],
					"anonymous": false
				},
				{
					"type": "event",
					"name": "DelegateVotesChanged",
					"inputs": [
						{
							"name": "delegate",
							"type": "address",
							"indexed": true,
							"internalType": "address"
						},
						{
							"name": "previousVotes",
							"type": "uint256",
							"indexed": false,
							"internalType": "uint256"
						},
						{
							"name": "newVotes",
							"type": "uint256",
							"indexed": false,
							"internalType": "uint256"
						}
					],
					"anonymous": false
				},
				{
					"type": "event",
					"name": "EIP712DomainChanged",
					"inputs": [],
					"anonymous": false
				},
				{
					"type": "event",
					"name": "OwnershipTransferred",
					"inputs": [
						{
							"name": "previousOwner",
							"type": "address",
							"indexed": true,
							"internalType": "address"
						},
						{
							"name": "newOwner",
							"type": "address",
							"indexed": true,
							"internalType": "address"
						}
					],
					"anonymous": false
				},
				{
					"type": "event",
					"name": "SetTokenUriResolver",
					"inputs": [
						{
							"name": "resolver",
							"type": "address",
							"indexed": true,
							"internalType": "contract IJBTokenUriResolver"
						},
						{
							"name": "caller",
							"type": "address",
							"indexed": false,
							"internalType": "address"
						}
					],
					"anonymous": false
				},
				{
					"type": "event",
					"name": "Transfer",
					"inputs": [
						{
							"name": "from",
							"type": "address",
							"indexed": true,
							"internalType": "address"
						},
						{
							"name": "to",
							"type": "address",
							"indexed": true,
							"internalType": "address"
						},
						{
							"name": "tokenId",
							"type": "uint256",
							"indexed": true,
							"internalType": "uint256"
						}
					],
					"anonymous": false
				},
				{
					"type": "error",
					"name": "CheckpointUnorderedInsertion",
					"inputs": []
				},
				{
					"type": "error",
					"name": "ECDSAInvalidSignature",
					"inputs": []
				},
				{
					"type": "error",
					"name": "ECDSAInvalidSignatureLength",
					"inputs": [
						{
							"name": "length",
							"type": "uint256",
							"internalType": "uint256"
						}
					]
				},
				{
					"type": "error",
					"name": "ECDSAInvalidSignatureS",
					"inputs": [
						{
							"name": "s",
							"type": "bytes32",
							"internalType": "bytes32"
						}
					]
				},
				{
					"type": "error",
					"name": "ERC5805FutureLookup",
					"inputs": [
						{
							"name": "timepoint",
							"type": "uint256",
							"internalType": "uint256"
						},
						{
							"name": "clock",
							"type": "uint48",
							"internalType": "uint48"
						}
					]
				},
				{
					"type": "error",
					"name": "ERC6372InconsistentClock",
					"inputs": []
				},
				{
					"type": "error",
					"name": "ERC721IncorrectOwner",
					"inputs": [
						{
							"name": "sender",
							"type": "address",
							"internalType": "address"
						},
						{
							"name": "tokenId",
							"type": "uint256",
							"internalType": "uint256"
						},
						{
							"name": "owner",
							"type": "address",
							"internalType": "address"
						}
					]
				},
				{
					"type": "error",
					"name": "ERC721InsufficientApproval",
					"inputs": [
						{
							"name": "operator",
							"type": "address",
							"internalType": "address"
						},
						{
							"name": "tokenId",
							"type": "uint256",
							"internalType": "uint256"
						}
					]
				},
				{
					"type": "error",
					"name": "ERC721InvalidApprover",
					"inputs": [
						{
							"name": "approver",
							"type": "address",
							"internalType": "address"
						}
					]
				},
				{
					"type": "error",
					"name": "ERC721InvalidOperator",
					"inputs": [
						{
							"name": "operator",
							"type": "address",
							"internalType": "address"
						}
					]
				},
				{
					"type": "error",
					"name": "ERC721InvalidOwner",
					"inputs": [
						{
							"name": "owner",
							"type": "address",
							"internalType": "address"
						}
					]
				},
				{
					"type": "error",
					"name": "ERC721InvalidReceiver",
					"inputs": [
						{
							"name": "receiver",
							"type": "address",
							"internalType": "address"
						}
					]
				},
				{
					"type": "error",
					"name": "ERC721InvalidSender",
					"inputs": [
						{
							"name": "sender",
							"type": "address",
							"internalType": "address"
						}
					]
				},
				{
					"type": "error",
					"name": "ERC721NonexistentToken",
					"inputs": [
						{
							"name": "tokenId",
							"type": "uint256",
							"internalType": "uint256"
						}
					]
				},
				{
					"type": "error",
					"name": "InvalidAccountNonce",
					"inputs": [
						{
							"name": "account",
							"type": "address",
							"internalType": "address"
						},
						{
							"name": "currentNonce",
							"type": "uint256",
							"internalType": "uint256"
						}
					]
				},
				{
					"type": "error",
					"name": "InvalidShortString",
					"inputs": []
				},
				{
					"type": "error",
					"name": "OwnableInvalidOwner",
					"inputs": [
						{
							"name": "owner",
							"type": "address",
							"internalType": "address"
						}
					]
				},
				{
					"type": "error",
					"name": "OwnableUnauthorizedAccount",
					"inputs": [
						{
							"name": "account",
							"type": "address",
							"internalType": "address"
						}
					]
				},
				{
					"type": "error",
					"name": "SafeCastOverflowedUintDowncast",
					"inputs": [
						{
							"name": "bits",
							"type": "uint8",
							"internalType": "uint8"
						},
						{
							"name": "value",
							"type": "uint256",
							"internalType": "uint256"
						}
					]
				},
				{
					"type": "error",
					"name": "StringTooLong",
					"inputs": [
						{
							"name": "str",
							"type": "string",
							"internalType": "string"
						}
					]
				},
				{
					"type": "error",
					"name": "VotesExpiredSignature",
					"inputs": [
						{
							"name": "expiry",
							"type": "uint256",
							"internalType": "uint256"
						}
					]
				}
			],
			"solcInputHash": "72b97eca88a7a2645b499cd15964090b",
			"receipt": {
				"blockHash": "0xacdbc6a9d760a6f21638fae13879b576cb3457993fc0f438954533a64433e431",
				"blockNumber": 5520515,
				"contractAddress": null,
				"cumulativeGasUsed": "14534019",
				"from": "0xC034550B542b83BA1De312b21d1C94a9a52B1595",
				"gasPrice": "1028577559",
				"gasUsed": "10922811",
				"hash": "0xdcf9d50f957c6e617de104398a443f0d5f4cb19b944bd08e94099f549b0a9b84",
				"index": 26,
				"logs": [
					{
						"address": "0xB5E96127D417b1B3ef8438496a38A143167209c7",
						"blockHash": "0xacdbc6a9d760a6f21638fae13879b576cb3457993fc0f438954533a64433e431",
						"blockNumber": 5520515,
						"data": "0x0000000000000000000000000000000000000000000000000000000000000000",
						"index": 60,
						"topics": [
							"0x572f161235911da04685a68c06adf558fc7e4a36909dca394650e0adc19cc93d",
							"0x000000000000000000000000c034550b542b83ba1de312b21d1c94a9a52b1595",
							"0x000000000000000000000000ef1be3c049809cace5bc203bbe4ec1ab284bf75c",
							"0xe826203c2859bde3a8661b238aebd461062cefb408003fca44a42cc6ff53a0c8"
						],
						"transactionHash": "0xdcf9d50f957c6e617de104398a443f0d5f4cb19b944bd08e94099f549b0a9b84",
						"transactionIndex": 26
					},
					{
						"address": "0x1081B5AA9D9d4862A3dA4d469433FB36Ed80FA2A",
						"blockHash": "0xacdbc6a9d760a6f21638fae13879b576cb3457993fc0f438954533a64433e431",
						"blockNumber": 5520515,
						"data": "0x000000000000000000000000a1ba58fca530d0b011646167c9eb81f54d9c9df6",
						"index": 61,
						"topics": [
							"0x4db17dd5e4732fb6da34a148104a592783ca119a1e7bb8829eba6cbadef0b511"
						],
						"transactionHash": "0xdcf9d50f957c6e617de104398a443f0d5f4cb19b944bd08e94099f549b0a9b84",
						"transactionIndex": 26
					},
					{
						"address": "0x1081B5AA9D9d4862A3dA4d469433FB36Ed80FA2A",
						"blockHash": "0xacdbc6a9d760a6f21638fae13879b576cb3457993fc0f438954533a64433e431",
						"blockNumber": 5520515,
						"data": "0x",
						"index": 62,
						"topics": [
							"0x6895c13664aa4f67288b25d7a21d7aaa34916e355fb9b6fae0a139a9085becb8",
							"0x000000000000000000000000ef1be3c049809cace5bc203bbe4ec1ab284bf75c"
						],
						"transactionHash": "0xdcf9d50f957c6e617de104398a443f0d5f4cb19b944bd08e94099f549b0a9b84",
						"transactionIndex": 26
					},
					{
						"address": "0xEf1Be3C049809caCe5Bc203BBe4Ec1Ab284bF75c",
						"blockHash": "0xacdbc6a9d760a6f21638fae13879b576cb3457993fc0f438954533a64433e431",
						"blockNumber": 5520515,
						"data": "0x0000000000000000000000000000000000000000000000000000000000000001",
						"index": 63,
						"topics": [
							"0xa65fb05c5808f5f389d72edeaf719ce38f4cc55c1f69ca3cbfb31c21501caa07",
							"0x9e0e602421b8af18b231044c4a9fcd3210b88a991260bd2d68511776273418b9"
						],
						"transactionHash": "0xdcf9d50f957c6e617de104398a443f0d5f4cb19b944bd08e94099f549b0a9b84",
						"transactionIndex": 26
					},
					{
						"address": "0x45452B26fe78D2b83247279F87c847F4F4A8FCEb",
						"blockHash": "0xacdbc6a9d760a6f21638fae13879b576cb3457993fc0f438954533a64433e431",
						"blockNumber": 5520515,
						"data": "0x",
						"index": 64,
						"topics": [
							"0x8be0079c531659141344cd1fd0a4f28419497f9722a3daafe3b4186f6b6457e0",
							"0x0000000000000000000000000000000000000000000000000000000000000000",
							"0x000000000000000000000000823b92d6a4b2aed4b15675c7917c9f922ea8adad"
						],
						"transactionHash": "0xdcf9d50f957c6e617de104398a443f0d5f4cb19b944bd08e94099f549b0a9b84",
						"transactionIndex": 26
					},
					{
						"address": "0x1081B5AA9D9d4862A3dA4d469433FB36Ed80FA2A",
						"blockHash": "0xacdbc6a9d760a6f21638fae13879b576cb3457993fc0f438954533a64433e431",
						"blockNumber": 5520515,
						"data": "0x00000000000000000000000045452b26fe78d2b83247279f87c847f4f4a8fceb",
						"index": 65,
						"topics": [
							"0x4db17dd5e4732fb6da34a148104a592783ca119a1e7bb8829eba6cbadef0b511"
						],
						"transactionHash": "0xdcf9d50f957c6e617de104398a443f0d5f4cb19b944bd08e94099f549b0a9b84",
						"transactionIndex": 26
					},
					{
						"address": "0x1081B5AA9D9d4862A3dA4d469433FB36Ed80FA2A",
						"blockHash": "0xacdbc6a9d760a6f21638fae13879b576cb3457993fc0f438954533a64433e431",
						"blockNumber": 5520515,
						"data": "0x",
						"index": 66,
						"topics": [
							"0x6895c13664aa4f67288b25d7a21d7aaa34916e355fb9b6fae0a139a9085becb8",
							"0x000000000000000000000000ef1be3c049809cace5bc203bbe4ec1ab284bf75c"
						],
						"transactionHash": "0xdcf9d50f957c6e617de104398a443f0d5f4cb19b944bd08e94099f549b0a9b84",
						"transactionIndex": 26
					},
					{
						"address": "0xEf1Be3C049809caCe5Bc203BBe4Ec1Ab284bF75c",
						"blockHash": "0xacdbc6a9d760a6f21638fae13879b576cb3457993fc0f438954533a64433e431",
						"blockNumber": 5520515,
						"data": "0x0000000000000000000000000000000000000000000000000000000000000002",
						"index": 67,
						"topics": [
							"0xa65fb05c5808f5f389d72edeaf719ce38f4cc55c1f69ca3cbfb31c21501caa07",
							"0x9e0e602421b8af18b231044c4a9fcd3210b88a991260bd2d68511776273418b9"
						],
						"transactionHash": "0xdcf9d50f957c6e617de104398a443f0d5f4cb19b944bd08e94099f549b0a9b84",
						"transactionIndex": 26
					},
					{
						"address": "0x6A6988E79a621Fc7Ea74D67a31E9cefCcC98e949",
						"blockHash": "0xacdbc6a9d760a6f21638fae13879b576cb3457993fc0f438954533a64433e431",
						"blockNumber": 5520515,
						"data": "0x",
						"index": 68,
						"topics": [
							"0x8be0079c531659141344cd1fd0a4f28419497f9722a3daafe3b4186f6b6457e0",
							"0x0000000000000000000000000000000000000000000000000000000000000000",
							"0x0000000000000000000000001081b5aa9d9d4862a3da4d469433fb36ed80fa2a"
						],
						"transactionHash": "0xdcf9d50f957c6e617de104398a443f0d5f4cb19b944bd08e94099f549b0a9b84",
						"transactionIndex": 26
					},
					{
						"address": "0x1081B5AA9D9d4862A3dA4d469433FB36Ed80FA2A",
						"blockHash": "0xacdbc6a9d760a6f21638fae13879b576cb3457993fc0f438954533a64433e431",
						"blockNumber": 5520515,
						"data": "0x0000000000000000000000006a6988e79a621fc7ea74d67a31e9cefccc98e949",
						"index": 69,
						"topics": [
							"0x4db17dd5e4732fb6da34a148104a592783ca119a1e7bb8829eba6cbadef0b511"
						],
						"transactionHash": "0xdcf9d50f957c6e617de104398a443f0d5f4cb19b944bd08e94099f549b0a9b84",
						"transactionIndex": 26
					},
					{
						"address": "0x1081B5AA9D9d4862A3dA4d469433FB36Ed80FA2A",
						"blockHash": "0xacdbc6a9d760a6f21638fae13879b576cb3457993fc0f438954533a64433e431",
						"blockNumber": 5520515,
						"data": "0x",
						"index": 70,
						"topics": [
							"0x6895c13664aa4f67288b25d7a21d7aaa34916e355fb9b6fae0a139a9085becb8",
							"0x000000000000000000000000ef1be3c049809cace5bc203bbe4ec1ab284bf75c"
						],
						"transactionHash": "0xdcf9d50f957c6e617de104398a443f0d5f4cb19b944bd08e94099f549b0a9b84",
						"transactionIndex": 26
					},
					{
						"address": "0xEf1Be3C049809caCe5Bc203BBe4Ec1Ab284bF75c",
						"blockHash": "0xacdbc6a9d760a6f21638fae13879b576cb3457993fc0f438954533a64433e431",
						"blockNumber": 5520515,
						"data": "0x0000000000000000000000000000000000000000000000000000000000000003",
						"index": 71,
						"topics": [
							"0xa65fb05c5808f5f389d72edeaf719ce38f4cc55c1f69ca3cbfb31c21501caa07",
							"0x9e0e602421b8af18b231044c4a9fcd3210b88a991260bd2d68511776273418b9"
						],
						"transactionHash": "0xdcf9d50f957c6e617de104398a443f0d5f4cb19b944bd08e94099f549b0a9b84",
						"transactionIndex": 26
					},
					{
						"address": "0x1081B5AA9D9d4862A3dA4d469433FB36Ed80FA2A",
						"blockHash": "0xacdbc6a9d760a6f21638fae13879b576cb3457993fc0f438954533a64433e431",
						"blockNumber": 5520515,
						"data": "0x00000000000000000000000059dd264e125b22fb1a6a72f943982b132253dfff",
						"index": 72,
						"topics": [
							"0x4db17dd5e4732fb6da34a148104a592783ca119a1e7bb8829eba6cbadef0b511"
						],
						"transactionHash": "0xdcf9d50f957c6e617de104398a443f0d5f4cb19b944bd08e94099f549b0a9b84",
						"transactionIndex": 26
					},
					{
						"address": "0x1081B5AA9D9d4862A3dA4d469433FB36Ed80FA2A",
						"blockHash": "0xacdbc6a9d760a6f21638fae13879b576cb3457993fc0f438954533a64433e431",
						"blockNumber": 5520515,
						"data": "0x",
						"index": 73,
						"topics": [
							"0x6895c13664aa4f67288b25d7a21d7aaa34916e355fb9b6fae0a139a9085becb8",
							"0x000000000000000000000000ef1be3c049809cace5bc203bbe4ec1ab284bf75c"
						],
						"transactionHash": "0xdcf9d50f957c6e617de104398a443f0d5f4cb19b944bd08e94099f549b0a9b84",
						"transactionIndex": 26
					},
					{
						"address": "0xEf1Be3C049809caCe5Bc203BBe4Ec1Ab284bF75c",
						"blockHash": "0xacdbc6a9d760a6f21638fae13879b576cb3457993fc0f438954533a64433e431",
						"blockNumber": 5520515,
						"data": "0x0000000000000000000000000000000000000000000000000000000000000004",
						"index": 74,
						"topics": [
							"0xa65fb05c5808f5f389d72edeaf719ce38f4cc55c1f69ca3cbfb31c21501caa07",
							"0x9e0e602421b8af18b231044c4a9fcd3210b88a991260bd2d68511776273418b9"
						],
						"transactionHash": "0xdcf9d50f957c6e617de104398a443f0d5f4cb19b944bd08e94099f549b0a9b84",
						"transactionIndex": 26
					},
					{
						"address": "0x1081B5AA9D9d4862A3dA4d469433FB36Ed80FA2A",
						"blockHash": "0xacdbc6a9d760a6f21638fae13879b576cb3457993fc0f438954533a64433e431",
						"blockNumber": 5520515,
						"data": "0x000000000000000000000000def756ef46098cb2109128d3458e01bcf58411d1",
						"index": 75,
						"topics": [
							"0x4db17dd5e4732fb6da34a148104a592783ca119a1e7bb8829eba6cbadef0b511"
						],
						"transactionHash": "0xdcf9d50f957c6e617de104398a443f0d5f4cb19b944bd08e94099f549b0a9b84",
						"transactionIndex": 26
					},
					{
						"address": "0x1081B5AA9D9d4862A3dA4d469433FB36Ed80FA2A",
						"blockHash": "0xacdbc6a9d760a6f21638fae13879b576cb3457993fc0f438954533a64433e431",
						"blockNumber": 5520515,
						"data": "0x",
						"index": 76,
						"topics": [
							"0x6895c13664aa4f67288b25d7a21d7aaa34916e355fb9b6fae0a139a9085becb8",
							"0x000000000000000000000000ef1be3c049809cace5bc203bbe4ec1ab284bf75c"
						],
						"transactionHash": "0xdcf9d50f957c6e617de104398a443f0d5f4cb19b944bd08e94099f549b0a9b84",
						"transactionIndex": 26
					},
					{
						"address": "0xEf1Be3C049809caCe5Bc203BBe4Ec1Ab284bF75c",
						"blockHash": "0xacdbc6a9d760a6f21638fae13879b576cb3457993fc0f438954533a64433e431",
						"blockNumber": 5520515,
						"data": "0x0000000000000000000000000000000000000000000000000000000000000005",
						"index": 77,
						"topics": [
							"0xa65fb05c5808f5f389d72edeaf719ce38f4cc55c1f69ca3cbfb31c21501caa07",
							"0x9e0e602421b8af18b231044c4a9fcd3210b88a991260bd2d68511776273418b9"
						],
						"transactionHash": "0xdcf9d50f957c6e617de104398a443f0d5f4cb19b944bd08e94099f549b0a9b84",
						"transactionIndex": 26
					},
					{
						"address": "0x1081B5AA9D9d4862A3dA4d469433FB36Ed80FA2A",
						"blockHash": "0xacdbc6a9d760a6f21638fae13879b576cb3457993fc0f438954533a64433e431",
						"blockNumber": 5520515,
						"data": "0x000000000000000000000000266b64c59e45cccaeea8d34758c495a0517139f0",
						"index": 78,
						"topics": [
							"0x4db17dd5e4732fb6da34a148104a592783ca119a1e7bb8829eba6cbadef0b511"
						],
						"transactionHash": "0xdcf9d50f957c6e617de104398a443f0d5f4cb19b944bd08e94099f549b0a9b84",
						"transactionIndex": 26
					},
					{
						"address": "0x1081B5AA9D9d4862A3dA4d469433FB36Ed80FA2A",
						"blockHash": "0xacdbc6a9d760a6f21638fae13879b576cb3457993fc0f438954533a64433e431",
						"blockNumber": 5520515,
						"data": "0x",
						"index": 79,
						"topics": [
							"0x6895c13664aa4f67288b25d7a21d7aaa34916e355fb9b6fae0a139a9085becb8",
							"0x000000000000000000000000ef1be3c049809cace5bc203bbe4ec1ab284bf75c"
						],
						"transactionHash": "0xdcf9d50f957c6e617de104398a443f0d5f4cb19b944bd08e94099f549b0a9b84",
						"transactionIndex": 26
					},
					{
						"address": "0xEf1Be3C049809caCe5Bc203BBe4Ec1Ab284bF75c",
						"blockHash": "0xacdbc6a9d760a6f21638fae13879b576cb3457993fc0f438954533a64433e431",
						"blockNumber": 5520515,
						"data": "0x0000000000000000000000000000000000000000000000000000000000000006",
						"index": 80,
						"topics": [
							"0xa65fb05c5808f5f389d72edeaf719ce38f4cc55c1f69ca3cbfb31c21501caa07",
							"0x9e0e602421b8af18b231044c4a9fcd3210b88a991260bd2d68511776273418b9"
						],
						"transactionHash": "0xdcf9d50f957c6e617de104398a443f0d5f4cb19b944bd08e94099f549b0a9b84",
						"transactionIndex": 26
					},
					{
						"address": "0x1081B5AA9D9d4862A3dA4d469433FB36Ed80FA2A",
						"blockHash": "0xacdbc6a9d760a6f21638fae13879b576cb3457993fc0f438954533a64433e431",
						"blockNumber": 5520515,
						"data": "0x000000000000000000000000f8ed3763480ca957316974bab8fe4258d4fd0a17",
						"index": 81,
						"topics": [
							"0x4db17dd5e4732fb6da34a148104a592783ca119a1e7bb8829eba6cbadef0b511"
						],
						"transactionHash": "0xdcf9d50f957c6e617de104398a443f0d5f4cb19b944bd08e94099f549b0a9b84",
						"transactionIndex": 26
					},
					{
						"address": "0x1081B5AA9D9d4862A3dA4d469433FB36Ed80FA2A",
						"blockHash": "0xacdbc6a9d760a6f21638fae13879b576cb3457993fc0f438954533a64433e431",
						"blockNumber": 5520515,
						"data": "0x",
						"index": 82,
						"topics": [
							"0x6895c13664aa4f67288b25d7a21d7aaa34916e355fb9b6fae0a139a9085becb8",
							"0x000000000000000000000000ef1be3c049809cace5bc203bbe4ec1ab284bf75c"
						],
						"transactionHash": "0xdcf9d50f957c6e617de104398a443f0d5f4cb19b944bd08e94099f549b0a9b84",
						"transactionIndex": 26
					},
					{
						"address": "0xEf1Be3C049809caCe5Bc203BBe4Ec1Ab284bF75c",
						"blockHash": "0xacdbc6a9d760a6f21638fae13879b576cb3457993fc0f438954533a64433e431",
						"blockNumber": 5520515,
						"data": "0x0000000000000000000000000000000000000000000000000000000000000007",
						"index": 83,
						"topics": [
							"0xa65fb05c5808f5f389d72edeaf719ce38f4cc55c1f69ca3cbfb31c21501caa07",
							"0x9e0e602421b8af18b231044c4a9fcd3210b88a991260bd2d68511776273418b9"
						],
						"transactionHash": "0xdcf9d50f957c6e617de104398a443f0d5f4cb19b944bd08e94099f549b0a9b84",
						"transactionIndex": 26
					}
				],
				"logsBloom": "0x00020000080010000008000000080000000040000008000000800000004000000060008000000000000000000040000000000000000000000000000000000002000000000000200400000000820000000001000000000002000200080000000000000000020000000000000000800800000000100020000000000000000000400001000000000000000100000000800000000000000000000000804000000000004000080010000000000000000000020200000000000080000000000006000000000000000000200002000008000000000000000000000000000000000020000000000000000004000000000000000200008000010000000000040000000000",
				"status": 1,
				"to": "0xB5E96127D417b1B3ef8438496a38A143167209c7"
			},
			"metadata": "{\"compiler\":{\"version\":\"0.8.23+commit.f704f362\"},\"language\":\"Solidity\",\"output\":{\"abi\":[{\"inputs\":[{\"internalType\":\"address\",\"name\":\"owner\",\"type\":\"address\"}],\"stateMutability\":\"nonpayable\",\"type\":\"constructor\"},{\"inputs\":[],\"type\":\"error\",\"name\":\"CheckpointUnorderedInsertion\"},{\"inputs\":[],\"type\":\"error\",\"name\":\"ECDSAInvalidSignature\"},{\"inputs\":[{\"internalType\":\"uint256\",\"name\":\"length\",\"type\":\"uint256\"}],\"type\":\"error\",\"name\":\"ECDSAInvalidSignatureLength\"},{\"inputs\":[{\"internalType\":\"bytes32\",\"name\":\"s\",\"type\":\"bytes32\"}],\"type\":\"error\",\"name\":\"ECDSAInvalidSignatureS\"},{\"inputs\":[{\"internalType\":\"uint256\",\"name\":\"timepoint\",\"type\":\"uint256\"},{\"internalType\":\"uint48\",\"name\":\"clock\",\"type\":\"uint48\"}],\"type\":\"error\",\"name\":\"ERC5805FutureLookup\"},{\"inputs\":[],\"type\":\"error\",\"name\":\"ERC6372InconsistentClock\"},{\"inputs\":[{\"internalType\":\"address\",\"name\":\"sender\",\"type\":\"address\"},{\"internalType\":\"uint256\",\"name\":\"tokenId\",\"type\":\"uint256\"},{\"internalType\":\"address\",\"name\":\"owner\",\"type\":\"address\"}],\"type\":\"error\",\"name\":\"ERC721IncorrectOwner\"},{\"inputs\":[{\"internalType\":\"address\",\"name\":\"operator\",\"type\":\"address\"},{\"internalType\":\"uint256\",\"name\":\"tokenId\",\"type\":\"uint256\"}],\"type\":\"error\",\"name\":\"ERC721InsufficientApproval\"},{\"inputs\":[{\"internalType\":\"address\",\"name\":\"approver\",\"type\":\"address\"}],\"type\":\"error\",\"name\":\"ERC721InvalidApprover\"},{\"inputs\":[{\"internalType\":\"address\",\"name\":\"operator\",\"type\":\"address\"}],\"type\":\"error\",\"name\":\"ERC721InvalidOperator\"},{\"inputs\":[{\"internalType\":\"address\",\"name\":\"owner\",\"type\":\"address\"}],\"type\":\"error\",\"name\":\"ERC721InvalidOwner\"},{\"inputs\":[{\"internalType\":\"address\",\"name\":\"receiver\",\"type\":\"address\"}],\"type\":\"error\",\"name\":\"ERC721InvalidReceiver\"},{\"inputs\":[{\"internalType\":\"address\",\"name\":\"sender\",\"type\":\"address\"}],\"type\":\"error\",\"name\":\"ERC721InvalidSender\"},{\"inputs\":[{\"internalType\":\"uint256\",\"name\":\"tokenId\",\"type\":\"uint256\"}],\"type\":\"error\",\"name\":\"ERC721NonexistentToken\"},{\"inputs\":[{\"internalType\":\"address\",\"name\":\"account\",\"type\":\"address\"},{\"internalType\":\"uint256\",\"name\":\"currentNonce\",\"type\":\"uint256\"}],\"type\":\"error\",\"name\":\"InvalidAccountNonce\"},{\"inputs\":[],\"type\":\"error\",\"name\":\"InvalidShortString\"},{\"inputs\":[{\"internalType\":\"address\",\"name\":\"owner\",\"type\":\"address\"}],\"type\":\"error\",\"name\":\"OwnableInvalidOwner\"},{\"inputs\":[{\"internalType\":\"address\",\"name\":\"account\",\"type\":\"address\"}],\"type\":\"error\",\"name\":\"OwnableUnauthorizedAccount\"},{\"inputs\":[{\"internalType\":\"uint8\",\"name\":\"bits\",\"type\":\"uint8\"},{\"internalType\":\"uint256\",\"name\":\"value\",\"type\":\"uint256\"}],\"type\":\"error\",\"name\":\"SafeCastOverflowedUintDowncast\"},{\"inputs\":[{\"internalType\":\"string\",\"name\":\"str\",\"type\":\"string\"}],\"type\":\"error\",\"name\":\"StringTooLong\"},{\"inputs\":[{\"internalType\":\"uint256\",\"name\":\"expiry\",\"type\":\"uint256\"}],\"type\":\"error\",\"name\":\"VotesExpiredSignature\"},{\"inputs\":[{\"internalType\":\"address\",\"name\":\"owner\",\"type\":\"address\",\"indexed\":true},{\"internalType\":\"address\",\"name\":\"approved\",\"type\":\"address\",\"indexed\":true},{\"internalType\":\"uint256\",\"name\":\"tokenId\",\"type\":\"uint256\",\"indexed\":true}],\"type\":\"event\",\"name\":\"Approval\",\"anonymous\":false},{\"inputs\":[{\"internalType\":\"address\",\"name\":\"owner\",\"type\":\"address\",\"indexed\":true},{\"internalType\":\"address\",\"name\":\"operator\",\"type\":\"address\",\"indexed\":true},{\"internalType\":\"bool\",\"name\":\"approved\",\"type\":\"bool\",\"indexed\":false}],\"type\":\"event\",\"name\":\"ApprovalForAll\",\"anonymous\":false},{\"inputs\":[{\"internalType\":\"uint256\",\"name\":\"projectId\",\"type\":\"uint256\",\"indexed\":true},{\"internalType\":\"address\",\"name\":\"owner\",\"type\":\"address\",\"indexed\":true},{\"internalType\":\"address\",\"name\":\"caller\",\"type\":\"address\",\"indexed\":false}],\"type\":\"event\",\"name\":\"Create\",\"anonymous\":false},{\"inputs\":[{\"internalType\":\"address\",\"name\":\"delegator\",\"type\":\"address\",\"indexed\":true},{\"internalType\":\"address\",\"name\":\"fromDelegate\",\"type\":\"address\",\"indexed\":true},{\"internalType\":\"address\",\"name\":\"toDelegate\",\"type\":\"address\",\"indexed\":true}],\"type\":\"event\",\"name\":\"DelegateChanged\",\"anonymous\":false},{\"inputs\":[{\"internalType\":\"address\",\"name\":\"delegate\",\"type\":\"address\",\"indexed\":true},{\"internalType\":\"uint256\",\"name\":\"previousVotes\",\"type\":\"uint256\",\"indexed\":false},{\"internalType\":\"uint256\",\"name\":\"newVotes\",\"type\":\"uint256\",\"indexed\":false}],\"type\":\"event\",\"name\":\"DelegateVotesChanged\",\"anonymous\":false},{\"inputs\":[],\"type\":\"event\",\"name\":\"EIP712DomainChanged\",\"anonymous\":false},{\"inputs\":[{\"internalType\":\"address\",\"name\":\"previousOwner\",\"type\":\"address\",\"indexed\":true},{\"internalType\":\"address\",\"name\":\"newOwner\",\"type\":\"address\",\"indexed\":true}],\"type\":\"event\",\"name\":\"OwnershipTransferred\",\"anonymous\":false},{\"inputs\":[{\"internalType\":\"contract IJBTokenUriResolver\",\"name\":\"resolver\",\"type\":\"address\",\"indexed\":true},{\"internalType\":\"address\",\"name\":\"caller\",\"type\":\"address\",\"indexed\":false}],\"type\":\"event\",\"name\":\"SetTokenUriResolver\",\"anonymous\":false},{\"inputs\":[{\"internalType\":\"address\",\"name\":\"from\",\"type\":\"address\",\"indexed\":true},{\"internalType\":\"address\",\"name\":\"to\",\"type\":\"address\",\"indexed\":true},{\"internalType\":\"uint256\",\"name\":\"tokenId\",\"type\":\"uint256\",\"indexed\":true}],\"type\":\"event\",\"name\":\"Transfer\",\"anonymous\":false},{\"inputs\":[],\"stateMutability\":\"view\",\"type\":\"function\",\"name\":\"CLOCK_MODE\",\"outputs\":[{\"internalType\":\"string\",\"name\":\"\",\"type\":\"string\"}]},{\"inputs\":[{\"internalType\":\"address\",\"name\":\"to\",\"type\":\"address\"},{\"internalType\":\"uint256\",\"name\":\"tokenId\",\"type\":\"uint256\"}],\"stateMutability\":\"nonpayable\",\"type\":\"function\",\"name\":\"approve\"},{\"inputs\":[{\"internalType\":\"address\",\"name\":\"owner\",\"type\":\"address\"}],\"stateMutability\":\"view\",\"type\":\"function\",\"name\":\"balanceOf\",\"outputs\":[{\"internalType\":\"uint256\",\"name\":\"\",\"type\":\"uint256\"}]},{\"inputs\":[],\"stateMutability\":\"view\",\"type\":\"function\",\"name\":\"clock\",\"outputs\":[{\"internalType\":\"uint48\",\"name\":\"\",\"type\":\"uint48\"}]},{\"inputs\":[],\"stateMutability\":\"view\",\"type\":\"function\",\"name\":\"count\",\"outputs\":[{\"internalType\":\"uint256\",\"name\":\"\",\"type\":\"uint256\"}]},{\"inputs\":[{\"internalType\":\"address\",\"name\":\"owner\",\"type\":\"address\"}],\"stateMutability\":\"nonpayable\",\"type\":\"function\",\"name\":\"createFor\",\"outputs\":[{\"internalType\":\"uint256\",\"name\":\"projectId\",\"type\":\"uint256\"}]},{\"inputs\":[{\"internalType\":\"address\",\"name\":\"delegatee\",\"type\":\"address\"}],\"stateMutability\":\"nonpayable\",\"type\":\"function\",\"name\":\"delegate\"},{\"inputs\":[{\"internalType\":\"address\",\"name\":\"delegatee\",\"type\":\"address\"},{\"internalType\":\"uint256\",\"name\":\"nonce\",\"type\":\"uint256\"},{\"internalType\":\"uint256\",\"name\":\"expiry\",\"type\":\"uint256\"},{\"internalType\":\"uint8\",\"name\":\"v\",\"type\":\"uint8\"},{\"internalType\":\"bytes32\",\"name\":\"r\",\"type\":\"bytes32\"},{\"internalType\":\"bytes32\",\"name\":\"s\",\"type\":\"bytes32\"}],\"stateMutability\":\"nonpayable\",\"type\":\"function\",\"name\":\"delegateBySig\"},{\"inputs\":[{\"internalType\":\"address\",\"name\":\"account\",\"type\":\"address\"}],\"stateMutability\":\"view\",\"type\":\"function\",\"name\":\"delegates\",\"outputs\":[{\"internalType\":\"address\",\"name\":\"\",\"type\":\"address\"}]},{\"inputs\":[],\"stateMutability\":\"view\",\"type\":\"function\",\"name\":\"eip712Domain\",\"outputs\":[{\"internalType\":\"bytes1\",\"name\":\"fields\",\"type\":\"bytes1\"},{\"internalType\":\"string\",\"name\":\"name\",\"type\":\"string\"},{\"internalType\":\"string\",\"name\":\"version\",\"type\":\"string\"},{\"internalType\":\"uint256\",\"name\":\"chainId\",\"type\":\"uint256\"},{\"internalType\":\"address\",\"name\":\"verifyingContract\",\"type\":\"address\"},{\"internalType\":\"bytes32\",\"name\":\"salt\",\"type\":\"bytes32\"},{\"internalType\":\"uint256[]\",\"name\":\"extensions\",\"type\":\"uint256[]\"}]},{\"inputs\":[{\"internalType\":\"uint256\",\"name\":\"tokenId\",\"type\":\"uint256\"}],\"stateMutability\":\"view\",\"type\":\"function\",\"name\":\"getApproved\",\"outputs\":[{\"internalType\":\"address\",\"name\":\"\",\"type\":\"address\"}]},{\"inputs\":[{\"internalType\":\"uint256\",\"name\":\"timepoint\",\"type\":\"uint256\"}],\"stateMutability\":\"view\",\"type\":\"function\",\"name\":\"getPastTotalSupply\",\"outputs\":[{\"internalType\":\"uint256\",\"name\":\"\",\"type\":\"uint256\"}]},{\"inputs\":[{\"internalType\":\"address\",\"name\":\"account\",\"type\":\"address\"},{\"internalType\":\"uint256\",\"name\":\"timepoint\",\"type\":\"uint256\"}],\"stateMutability\":\"view\",\"type\":\"function\",\"name\":\"getPastVotes\",\"outputs\":[{\"internalType\":\"uint256\",\"name\":\"\",\"type\":\"uint256\"}]},{\"inputs\":[{\"internalType\":\"address\",\"name\":\"account\",\"type\":\"address\"}],\"stateMutability\":\"view\",\"type\":\"function\",\"name\":\"getVotes\",\"outputs\":[{\"internalType\":\"uint256\",\"name\":\"\",\"type\":\"uint256\"}]},{\"inputs\":[{\"internalType\":\"address\",\"name\":\"owner\",\"type\":\"address\"},{\"internalType\":\"address\",\"name\":\"operator\",\"type\":\"address\"}],\"stateMutability\":\"view\",\"type\":\"function\",\"name\":\"isApprovedForAll\",\"outputs\":[{\"internalType\":\"bool\",\"name\":\"\",\"type\":\"bool\"}]},{\"inputs\":[],\"stateMutability\":\"view\",\"type\":\"function\",\"name\":\"name\",\"outputs\":[{\"internalType\":\"string\",\"name\":\"\",\"type\":\"string\"}]},{\"inputs\":[{\"internalType\":\"address\",\"name\":\"owner\",\"type\":\"address\"}],\"stateMutability\":\"view\",\"type\":\"function\",\"name\":\"nonces\",\"outputs\":[{\"internalType\":\"uint256\",\"name\":\"\",\"type\":\"uint256\"}]},{\"inputs\":[],\"stateMutability\":\"view\",\"type\":\"function\",\"name\":\"owner\",\"outputs\":[{\"internalType\":\"address\",\"name\":\"\",\"type\":\"address\"}]},{\"inputs\":[{\"internalType\":\"uint256\",\"name\":\"tokenId\",\"type\":\"uint256\"}],\"stateMutability\":\"view\",\"type\":\"function\",\"name\":\"ownerOf\",\"outputs\":[{\"internalType\":\"address\",\"name\":\"\",\"type\":\"address\"}]},{\"inputs\":[],\"stateMutability\":\"nonpayable\",\"type\":\"function\",\"name\":\"renounceOwnership\"},{\"inputs\":[{\"internalType\":\"address\",\"name\":\"from\",\"type\":\"address\"},{\"internalType\":\"address\",\"name\":\"to\",\"type\":\"address\"},{\"internalType\":\"uint256\",\"name\":\"tokenId\",\"type\":\"uint256\"}],\"stateMutability\":\"nonpayable\",\"type\":\"function\",\"name\":\"safeTransferFrom\"},{\"inputs\":[{\"internalType\":\"address\",\"name\":\"from\",\"type\":\"address\"},{\"internalType\":\"address\",\"name\":\"to\",\"type\":\"address\"},{\"internalType\":\"uint256\",\"name\":\"tokenId\",\"type\":\"uint256\"},{\"internalType\":\"bytes\",\"name\":\"data\",\"type\":\"bytes\"}],\"stateMutability\":\"nonpayable\",\"type\":\"function\",\"name\":\"safeTransferFrom\"},{\"inputs\":[{\"internalType\":\"address\",\"name\":\"operator\",\"type\":\"address\"},{\"internalType\":\"bool\",\"name\":\"approved\",\"type\":\"bool\"}],\"stateMutability\":\"nonpayable\",\"type\":\"function\",\"name\":\"setApprovalForAll\"},{\"inputs\":[{\"internalType\":\"contract IJBTokenUriResolver\",\"name\":\"newResolver\",\"type\":\"address\"}],\"stateMutability\":\"nonpayable\",\"type\":\"function\",\"name\":\"setTokenUriResolver\"},{\"inputs\":[{\"internalType\":\"bytes4\",\"name\":\"interfaceId\",\"type\":\"bytes4\"}],\"stateMutability\":\"view\",\"type\":\"function\",\"name\":\"supportsInterface\",\"outputs\":[{\"internalType\":\"bool\",\"name\":\"\",\"type\":\"bool\"}]},{\"inputs\":[],\"stateMutability\":\"view\",\"type\":\"function\",\"name\":\"symbol\",\"outputs\":[{\"internalType\":\"string\",\"name\":\"\",\"type\":\"string\"}]},{\"inputs\":[{\"internalType\":\"uint256\",\"name\":\"projectId\",\"type\":\"uint256\"}],\"stateMutability\":\"view\",\"type\":\"function\",\"name\":\"tokenURI\",\"outputs\":[{\"internalType\":\"string\",\"name\":\"\",\"type\":\"string\"}]},{\"inputs\":[],\"stateMutability\":\"view\",\"type\":\"function\",\"name\":\"tokenUriResolver\",\"outputs\":[{\"internalType\":\"contract IJBTokenUriResolver\",\"name\":\"\",\"type\":\"address\"}]},{\"inputs\":[{\"internalType\":\"address\",\"name\":\"from\",\"type\":\"address\"},{\"internalType\":\"address\",\"name\":\"to\",\"type\":\"address\"},{\"internalType\":\"uint256\",\"name\":\"tokenId\",\"type\":\"uint256\"}],\"stateMutability\":\"nonpayable\",\"type\":\"function\",\"name\":\"transferFrom\"},{\"inputs\":[{\"internalType\":\"address\",\"name\":\"newOwner\",\"type\":\"address\"}],\"stateMutability\":\"nonpayable\",\"type\":\"function\",\"name\":\"transferOwnership\"}],\"devdoc\":{\"kind\":\"dev\",\"methods\":{\"CLOCK_MODE()\":{\"details\":\"Machine-readable description of the clock as specified in EIP-6372.\"},\"approve(address,uint256)\":{\"details\":\"See {IERC721-approve}.\"},\"balanceOf(address)\":{\"details\":\"See {IERC721-balanceOf}.\"},\"clock()\":{\"details\":\"Clock used for flagging checkpoints. Can be overridden to implement timestamp based checkpoints (and voting), in which case {CLOCK_MODE} should be overridden as well to match.\"},\"constructor\":{\"params\":{\"owner\":\"The owner of the contract who can set metadata.\"}},\"createFor(address)\":{\"details\":\"Anyone can create a project on an owner's behalf.\",\"params\":{\"owner\":\"The address that will be the owner of the project.\"},\"returns\":{\"projectId\":\"The token ID of the newly created project.\"}},\"delegate(address)\":{\"details\":\"Delegates votes from the sender to `delegatee`.\"},\"delegateBySig(address,uint256,uint256,uint8,bytes32,bytes32)\":{\"details\":\"Delegates votes from signer to `delegatee`.\"},\"delegates(address)\":{\"details\":\"Returns the delegate that `account` has chosen.\"},\"eip712Domain()\":{\"details\":\"See {IERC-5267}.\"},\"getApproved(uint256)\":{\"details\":\"See {IERC721-getApproved}.\"},\"getPastTotalSupply(uint256)\":{\"details\":\"Returns the total supply of votes available at a specific moment in the past. If the `clock()` is configured to use block numbers, this will return the value at the end of the corresponding block. NOTE: This value is the sum of all available votes, which is not necessarily the sum of all delegated votes. Votes that have not been delegated are still part of total supply, even though they would not participate in a vote. Requirements: - `timepoint` must be in the past. If operating using block numbers, the block must be already mined.\"},\"getPastVotes(address,uint256)\":{\"details\":\"Returns the amount of votes that `account` had at a specific moment in the past. If the `clock()` is configured to use block numbers, this will return the value at the end of the corresponding block. Requirements: - `timepoint` must be in the past. If operating using block numbers, the block must be already mined.\"},\"getVotes(address)\":{\"details\":\"Returns the current amount of votes that `account` has.\"},\"isApprovedForAll(address,address)\":{\"details\":\"See {IERC721-isApprovedForAll}.\"},\"name()\":{\"details\":\"See {IERC721Metadata-name}.\"},\"nonces(address)\":{\"details\":\"Returns the next unused nonce for an address.\"},\"owner()\":{\"details\":\"Returns the address of the current owner.\"},\"ownerOf(uint256)\":{\"details\":\"See {IERC721-ownerOf}.\"},\"renounceOwnership()\":{\"details\":\"Leaves the contract without owner. It will not be possible to call `onlyOwner` functions. Can only be called by the current owner. NOTE: Renouncing ownership will leave the contract without an owner, thereby disabling any functionality that is only available to the owner.\"},\"safeTransferFrom(address,address,uint256)\":{\"details\":\"See {IERC721-safeTransferFrom}.\"},\"safeTransferFrom(address,address,uint256,bytes)\":{\"details\":\"See {IERC721-safeTransferFrom}.\"},\"setApprovalForAll(address,bool)\":{\"details\":\"See {IERC721-setApprovalForAll}.\"},\"setTokenUriResolver(address)\":{\"params\":{\"newResolver\":\"The address of the new resolver.\"}},\"supportsInterface(bytes4)\":{\"details\":\"See {IERC165-supportsInterface}.\",\"params\":{\"interfaceId\":\"The ID of the interface to check for adherance to.\"},\"returns\":{\"_0\":\"A flag indicating if the provided interface ID is supported.\"}},\"symbol()\":{\"details\":\"See {IERC721Metadata-symbol}.\"},\"tokenURI(uint256)\":{\"params\":{\"projectId\":\"The ID of the project to get a URI of.\"},\"returns\":{\"_0\":\"The token URI to use for the provided `projectId`.\"}},\"transferFrom(address,address,uint256)\":{\"details\":\"See {IERC721-transferFrom}.\"},\"transferOwnership(address)\":{\"details\":\"Transfers ownership of the contract to a new account (`newOwner`). Can only be called by the current owner.\"}},\"version\":1},\"userdoc\":{\"kind\":\"user\",\"methods\":{\"count()\":{\"notice\":\"The number of projects that have been created using this contract.\"},\"createFor(address)\":{\"notice\":\"Create a new project for the specified owner, which mints an NFT (ERC-721) into their wallet.\"},\"setTokenUriResolver(address)\":{\"notice\":\"Sets the address of the resolver used to retrieve the tokenURI of projects.\"},\"supportsInterface(bytes4)\":{\"notice\":\"Indicates if this contract adheres to the specified interface.\"},\"tokenURI(uint256)\":{\"notice\":\"Returns the URI where the ERC-721 standard JSON of a project is hosted.\"},\"tokenUriResolver()\":{\"notice\":\"The contract resolving each project ID to its ERC721 URI.\"}},\"version\":1}},\"settings\":{\"remappings\":[\"@bananapus/=node_modules/@bananapus/\",\"@chainlink/=node_modules/@chainlink/\",\"@eth-optimism/=node_modules/@eth-optimism/\",\"@gnosis.pm/=node_modules/@gnosis.pm/\",\"@openzeppelin/=node_modules/@openzeppelin/\",\"@prb/=node_modules/@prb/\",\"@sphinx-labs/contracts/=lib/sphinx/packages/contracts/contracts/foundry/\",\"@uniswap/=node_modules/@uniswap/\",\"ds-test/=lib/forge-std/lib/ds-test/src/\",\"forge-std/=lib/forge-std/src/\",\"hardhat/=node_modules/hardhat/\",\"solmate/=node_modules/solmate/\",\"sphinx-forge-std/=node_modules/sphinx-forge-std/\",\"sphinx-solmate/=node_modules/sphinx-solmate/\",\"sphinx/=lib/sphinx/\"],\"optimizer\":{\"enabled\":true,\"runs\":200},\"metadata\":{\"bytecodeHash\":\"ipfs\"},\"compilationTarget\":{\"src/JBProjects.sol\":\"JBProjects\"},\"evmVersion\":\"paris\",\"libraries\":{}},\"sources\":{\"node_modules/@openzeppelin/contracts/access/Ownable.sol\":{\"keccak256\":\"0xff6d0bb2e285473e5311d9d3caacb525ae3538a80758c10649a4d61029b017bb\",\"urls\":[\"bzz-raw://8ed324d3920bb545059d66ab97d43e43ee85fd3bd52e03e401f020afb0b120f6\",\"dweb:/ipfs/QmfEckWLmZkDDcoWrkEvMWhms66xwTLff9DDhegYpvHo1a\"],\"license\":\"MIT\"},\"node_modules/@openzeppelin/contracts/governance/utils/IVotes.sol\":{\"keccak256\":\"0x5e2b397ae88fd5c68e4f6762eb9f65f65c36702eb57796495f471d024ce70947\",\"urls\":[\"bzz-raw://348fc8e291d54314bb22437b532f443d5dbfb80c8cc9591567c1af6554ccf856\",\"dweb:/ipfs/QmP8ZTyitZinxcpwAHeYHhwj7u21zPpKXSiww38V74sXC2\"],\"license\":\"MIT\"},\"node_modules/@openzeppelin/contracts/governance/utils/Votes.sol\":{\"keccak256\":\"0xb8f69828d41b3594afd7a8c6393565901c205d8b5baf5bd2e42dbac637172979\",\"urls\":[\"bzz-raw://c790253821191ac46b2050d87df820d4209871f90c616381e2c2c00ff3eaac34\",\"dweb:/ipfs/QmcPETTyuZBzDRL39JNXj3SBMdx3Y9o4fPQLSZ27py5Jim\"],\"license\":\"MIT\"},\"node_modules/@openzeppelin/contracts/interfaces/IERC5267.sol\":{\"keccak256\":\"0x92aa1df62dc3d33f1656d63bede0923e0df0b706ad4137c8b10b0a8fe549fd92\",\"urls\":[\"bzz-raw://c5c0f29195ad64cbe556da8e257dac8f05f78c53f90323c0d2accf8e6922d33a\",\"dweb:/ipfs/QmQ61TED8uaCZwcbh8KkgRSsCav7x7HbcGHwHts3U4DmUP\"],\"license\":\"MIT\"},\"node_modules/@openzeppelin/contracts/interfaces/IERC5805.sol\":{\"keccak256\":\"0x4b9b89f91adbb7d3574f85394754cfb08c5b4eafca8a7061e2094a019ab8f818\",\"urls\":[\"bzz-raw://7373d5dbb8eb2381aa0883a456fac89283fcaf52f42fa805d4188f270716742a\",\"dweb:/ipfs/QmVnZDmT4ABvNhRJMaQnbCzsCA8HpyHPVaxi4fCi92LFv2\"],\"license\":\"MIT\"},\"node_modules/@openzeppelin/contracts/interfaces/IERC6372.sol\":{\"keccak256\":\"0xeb2857b7dafb7e0d8526dbfe794e6c047df2851c9e6ee91dc4a55f3c34af5d33\",\"urls\":[\"bzz-raw://49bf13f6c2a38a9bcc7b852d4e2b9cebb4068b832642cce61069cdb5f06bb2fb\",\"dweb:/ipfs/QmdKAJVE7rR2kENCZnEM1yKswrGii7WuE9gZpsQvnXJhwn\"],\"license\":\"MIT\"},\"node_modules/@openzeppelin/contracts/interfaces/draft-IERC6093.sol\":{\"keccak256\":\"0x60c65f701957fdd6faea1acb0bb45825791d473693ed9ecb34726fdfaa849dd7\",\"urls\":[\"bzz-raw://ea290300e0efc4d901244949dc4d877fd46e6c5e43dc2b26620e8efab3ab803f\",\"dweb:/ipfs/QmcLLJppxKeJWqHxE2CUkcfhuRTgHSn8J4kijcLa5MYhSt\"],\"license\":\"MIT\"},\"node_modules/@openzeppelin/contracts/token/ERC721/ERC721.sol\":{\"keccak256\":\"0x13dd061770956c8489b80cfc89d9cdfc8ea2783d953691ea037a380731d52784\",\"urls\":[\"bzz-raw://ed37f0f86e7fe31659e48c3a2a5920a92dd7f13c85cf8991fb79fe5f01e08efd\",\"dweb:/ipfs/QmUtm9bQGvjr9hHGwkPWrbgFmVqzaJcxjkaYDex2oGsonS\"],\"license\":\"MIT\"},\"node_modules/@openzeppelin/contracts/token/ERC721/IERC721.sol\":{\"keccak256\":\"0x5ef46daa3b58ef2702279d514780316efaa952915ee1aa3396f041ee2982b0b4\",\"urls\":[\"bzz-raw://2f8f2a76e23b02fc69e8cd24c3cb47da6c7af3a2d6c3a382f8ac25c6e094ade7\",\"dweb:/ipfs/QmPV4ZS4tPVv4mTCf9ejyZ1ai57EEibDRj7mN2ARDCLV5n\"],\"license\":\"MIT\"},\"node_modules/@openzeppelin/contracts/token/ERC721/IERC721Receiver.sol\":{\"keccak256\":\"0x7f7a26306c79a65fb8b3b6c757cd74660c532cd8a02e165488e30027dd34ca49\",\"urls\":[\"bzz-raw://d01e0b2b837ee2f628545e54d8715b49c7ef2befd08356c2e7f6c50dde8a1c22\",\"dweb:/ipfs/QmWBAn6y2D1xgftci97Z3qR9tQnkvwQpYwFwkTvDMvqU4i\"],\"license\":\"MIT\"},\"node_modules/@openzeppelin/contracts/token/ERC721/extensions/ERC721Votes.sol\":{\"keccak256\":\"0x51eec12bef5f18ea0bad353fbdc227c67b9082d1b459f7c87f47711ad152b0b3\",\"urls\":[\"bzz-raw://3f9142b8e720fa76191a966be6fd93a2a4357f5ac86bbb5cb050e53add32bfbe\",\"dweb:/ipfs/QmdFWtPT9PrMpQkExuDLCAELqA8yfYjQpfWKymdHdRTy2T\"],\"license\":\"MIT\"},\"node_modules/@openzeppelin/contracts/token/ERC721/extensions/IERC721Metadata.sol\":{\"keccak256\":\"0x37d1aaaa5a2908a09e9dcf56a26ddf762ecf295afb5964695937344fc6802ce1\",\"urls\":[\"bzz-raw://ed0bfc1b92153c5000e50f4021367b931bbe96372ac6facec3c4961b72053d02\",\"dweb:/ipfs/Qmbwp8VDerjS5SV1quwHH1oMXxPQ93fzfLVqJ2RCqbowGE\"],\"license\":\"MIT\"},\"node_modules/@openzeppelin/contracts/utils/Context.sol\":{\"keccak256\":\"0x493033a8d1b176a037b2cc6a04dad01a5c157722049bbecf632ca876224dd4b2\",\"urls\":[\"bzz-raw://6a708e8a5bdb1011c2c381c9a5cfd8a9a956d7d0a9dc1bd8bcdaf52f76ef2f12\",\"dweb:/ipfs/Qmax9WHBnVsZP46ZxEMNRQpLQnrdE4dK8LehML1Py8FowF\"],\"license\":\"MIT\"},\"node_modules/@openzeppelin/contracts/utils/Nonces.sol\":{\"keccak256\":\"0x0082767004fca261c332e9ad100868327a863a88ef724e844857128845ab350f\",\"urls\":[\"bzz-raw://132dce9686a54e025eb5ba5d2e48208f847a1ec3e60a3e527766d7bf53fb7f9e\",\"dweb:/ipfs/QmXn1a2nUZMpu2z6S88UoTfMVtY2YNh86iGrzJDYmMkKeZ\"],\"license\":\"MIT\"},\"node_modules/@openzeppelin/contracts/utils/ShortStrings.sol\":{\"keccak256\":\"0x18a7171df639a934592915a520ecb97c5bbc9675a1105607aac8a94e72bf62c6\",\"urls\":[\"bzz-raw://7478e1f13da69a2867ccd883001d836b75620362e743f196376d63ed0c422a1c\",\"dweb:/ipfs/QmWywcQ9TNfwtoqAxbn25d8C5VrV12PrPS9UjtGe6pL2BA\"],\"license\":\"MIT\"},\"node_modules/@openzeppelin/contracts/utils/StorageSlot.sol\":{\"keccak256\":\"0x32ba59b4b7299237c8ba56319110989d7978a039faf754793064e967e5894418\",\"urls\":[\"bzz-raw://1ae50c8b562427df610cc4540c9bf104acca7ef8e2dcae567ae7e52272281e9c\",\"dweb:/ipfs/QmTHiadFCSJUPpRjNegc5SahmeU8bAoY8i9Aq6tVscbcKR\"],\"license\":\"MIT\"},\"node_modules/@openzeppelin/contracts/utils/Strings.sol\":{\"keccak256\":\"0x55f102ea785d8399c0e58d1108e2d289506dde18abc6db1b7f68c1f9f9bc5792\",\"urls\":[\"bzz-raw://6e52e0a7765c943ef14e5bcf11e46e6139fa044be564881378349236bf2e3453\",\"dweb:/ipfs/QmZEeeXoFPW47amyP35gfzomF9DixqqTEPwzBakv6cZw6i\"],\"license\":\"MIT\"},\"node_modules/@openzeppelin/contracts/utils/cryptography/ECDSA.sol\":{\"keccak256\":\"0xeed0a08b0b091f528356cbc7245891a4c748682d4f6a18055e8e6ca77d12a6cf\",\"urls\":[\"bzz-raw://ba80ba06c8e6be852847e4c5f4492cef801feb6558ae09ed705ff2e04ea8b13c\",\"dweb:/ipfs/QmXRJDv3xHLVQCVXg1ZvR35QS9sij5y9NDWYzMfUfAdTHF\"],\"license\":\"MIT\"},\"node_modules/@openzeppelin/contracts/utils/cryptography/EIP712.sol\":{\"keccak256\":\"0x999f705a027ed6dc2d4e0df2cc4a509852c6bfd11de1c8161bf88832d0503fd0\",\"urls\":[\"bzz-raw://0798def67258d9a3cc20b2b4da7ebf351a5cefe0abfdd665d2d81f8e32f89b21\",\"dweb:/ipfs/QmPEvJosnPfzHNjKvCv2D3891mA2Ww8eUwkqrxBjuYdHCt\"],\"license\":\"MIT\"},\"node_modules/@openzeppelin/contracts/utils/cryptography/MessageHashUtils.sol\":{\"keccak256\":\"0xba333517a3add42cd35fe877656fc3dfcc9de53baa4f3aabbd6d12a92e4ea435\",\"urls\":[\"bzz-raw://2ceacff44c0fdc81e48e0e0b1db87a2076d3c1fb497341de077bf1da9f6b406c\",\"dweb:/ipfs/QmRUo1muMRAewxrKQ7TkXUtknyRoR57AyEkoPpiuZQ8FzX\"],\"license\":\"MIT\"},\"node_modules/@openzeppelin/contracts/utils/introspection/ERC165.sol\":{\"keccak256\":\"0x9e8778b14317ba9e256c30a76fd6c32b960af621987f56069e1e819c77c6a133\",\"urls\":[\"bzz-raw://1777404f1dcd0fac188e55a288724ec3c67b45288e49cc64723e95e702b49ab8\",\"dweb:/ipfs/QmZFdC626GButBApwDUvvTnUzdinevC3B24d7yyh57XkiA\"],\"license\":\"MIT\"},\"node_modules/@openzeppelin/contracts/utils/introspection/IERC165.sol\":{\"keccak256\":\"0x4296879f55019b23e135000eb36896057e7101fb7fb859c5ef690cf14643757b\",\"urls\":[\"bzz-raw://87b3541437c8c443ccd36795e56a338ed12855eec17f8da624511b8d1a7e14df\",\"dweb:/ipfs/QmeJQCtZrQjtJLr6u7ZHWeH3pBnjtLWzvRrKViAi7UZqxL\"],\"license\":\"MIT\"},\"node_modules/@openzeppelin/contracts/utils/math/Math.sol\":{\"keccak256\":\"0x005ec64c6313f0555d59e278f9a7a5ab2db5bdc72a027f255a37c327af1ec02d\",\"urls\":[\"bzz-raw://4ece9f0b9c8daca08c76b6b5405a6446b6f73b3a15fab7ff56e296cbd4a2c875\",\"dweb:/ipfs/QmQyRpyPRL5SQuAgj6SHmbir3foX65FJjbVTTQrA2EFg6L\"],\"license\":\"MIT\"},\"node_modules/@openzeppelin/contracts/utils/math/SafeCast.sol\":{\"keccak256\":\"0xe19a4d5f31d2861e7344e8e535e2feafb913d806d3e2b5fe7782741a2a7094fe\",\"urls\":[\"bzz-raw://4aed79c0fa6f0546ed02f2f683e8f77f0fd2ed7eb34d8bbf3d373c9a6d95b13c\",\"dweb:/ipfs/QmWqVz6UAVqmnWU5pqYPt1o6iDEZyPaBraAA3rKfTTSfYj\"],\"license\":\"MIT\"},\"node_modules/@openzeppelin/contracts/utils/math/SignedMath.sol\":{\"keccak256\":\"0x5f7e4076e175393767754387c962926577f1660dd9b810187b9002407656be72\",\"urls\":[\"bzz-raw://7d533a1c97cd43a57cd9c465f7ee8dd0e39ae93a8fb8ff8e5303a356b081cdcc\",\"dweb:/ipfs/QmVBEei6aTnvYNZp2CHYVNKyZS4q1KkjANfY39WVXZXVoT\"],\"license\":\"MIT\"},\"node_modules/@openzeppelin/contracts/utils/structs/Checkpoints.sol\":{\"keccak256\":\"0xbdc5e074d7dd6678f67e92b1a51a20226801a407b0e1af3da367c5d1ff4519ad\",\"urls\":[\"bzz-raw://a36cca6b22fff3db16fc789ff6c60eea71d4b156065d4d0c83a0bc5e91a77a8b\",\"dweb:/ipfs/QmYN3exd5AemxjBrN8XMB1p5LbbE16uC3sjbYjwi8AjcGR\"],\"license\":\"MIT\"},\"node_modules/@openzeppelin/contracts/utils/types/Time.sol\":{\"keccak256\":\"0xc7755af115020049e4140f224f9ee88d7e1799ffb0646f37bf0df24bf6213f58\",\"urls\":[\"bzz-raw://7f09bf94d5274334ec021f61a04659db303f31e60460e14b709c9bf187740111\",\"dweb:/ipfs/QmNvgomZYUwFAt4cZbPWAiTeSZQreGehY9BK5xyVJsUttb\"],\"license\":\"MIT\"},\"src/JBProjects.sol\":{\"keccak256\":\"0xb959e3d60bc4a8a43b9358be16549ca6d10059db3467c43703fa0c6c8e73621a\",\"urls\":[\"bzz-raw://5eb424d178e5946688c7ad6bfc7420c3c8bd7e9d5b2a0fef175462a6a4710012\",\"dweb:/ipfs/QmeXuNoYXrNZVrom4f6Mk5bcKbGk5BtRCzXKf9cpZDoCKW\"],\"license\":\"MIT\"},\"src/interfaces/IJBProjects.sol\":{\"keccak256\":\"0x85539f72c5871c53a919edc7db78931155464e9e00fccd30079b17e75820ddb9\",\"urls\":[\"bzz-raw://505466dbfbdeec77f948ce065676897a5b4a74b70bb234c1053b893c4849f3a1\",\"dweb:/ipfs/QmYBpZQub3Mv19xsRWqvzgiQSBAp4UNaKcqWQ2wwH62H95\"],\"license\":\"MIT\"},\"src/interfaces/IJBTokenUriResolver.sol\":{\"keccak256\":\"0xfa5cb00dcd6085d1ef912d071fe73c63f9478a2cd0f9d8bddaf659b6af2d0967\",\"urls\":[\"bzz-raw://282e4e7c342d65f77cde0e9a08fcaf20ef5cf379c7a48b639842c0ffd0b2afb8\",\"dweb:/ipfs/QmbnN3PEQeZaXdPLT75V1J79kMg7KqSMru37RHrL3z8Yf2\"],\"license\":\"MIT\"}},\"version\":1}",
			"args": [
				"0x823b92d6a4b2AED4b15675c7917c9f922ea8ADAD"
			],
			"bytecode": "0x6101606040526000600d553480156200001757600080fd5b5060405162002930380380620029308339810160408190526200003a91620002b5565b80604051806040016040528060118152602001704a75696365626f782050726f6a6563747360781b815250604051806040016040528060018152602001603160f81b815250604051806040016040528060118152602001704a75696365626f782050726f6a6563747360781b81525060405180604001604052806008815260200167094aa92868a849eb60c31b8152508160009081620000db91906200038e565b506001620000ea82826200038e565b50620000fc91508390506006620001e7565b610120526200010d816007620001e7565b61014052815160208084019190912060e052815190820120610100524660a0526200019b60e05161010051604080517f8b73c3c69bb8fe3d512ecc4cf759cc79239f7b179b0ffacaa9a75d522b39400f60208201529081019290925260608201524660808201523060a082015260009060c00160405160208183030381529060405280519060200120905090565b60805250503060c0526001600160a01b038116620001d457604051631e4fbdf760e01b8152600060048201526024015b60405180910390fd5b620001df8162000220565b5050620004d0565b60006020835110156200020757620001ff8362000272565b90506200021a565b816200021484826200038e565b5060ff90505b92915050565b600c80546001600160a01b038381166001600160a01b0319831681179093556040519116919082907f8be0079c531659141344cd1fd0a4f28419497f9722a3daafe3b4186f6b6457e090600090a35050565b600080829050601f81511115620002a0578260405163305a27a960e01b8152600401620001cb91906200045a565b8051620002ad82620004ab565b179392505050565b600060208284031215620002c857600080fd5b81516001600160a01b0381168114620002e057600080fd5b9392505050565b634e487b7160e01b600052604160045260246000fd5b600181811c908216806200031257607f821691505b6020821081036200033357634e487b7160e01b600052602260045260246000fd5b50919050565b601f82111562000389576000816000526020600020601f850160051c81016020861015620003645750805b601f850160051c820191505b81811015620003855782815560010162000370565b5050505b505050565b81516001600160401b03811115620003aa57620003aa620002e7565b620003c281620003bb8454620002fd565b8462000339565b602080601f831160018114620003fa5760008415620003e15750858301515b600019600386901b1c1916600185901b17855562000385565b600085815260208120601f198616915b828110156200042b578886015182559484019460019091019084016200040a565b50858210156200044a5787850151600019600388901b60f8161c191681555b5050505050600190811b01905550565b60006020808352835180602085015260005b818110156200048a578581018301518582016040015282016200046c565b506000604082860101526040601f19601f8301168501019250505092915050565b80516020808301519190811015620003335760001960209190910360031b1b16919050565b60805160a05160c05160e0516101005161012051610140516124056200052b6000396000610e0801526000610ddb015260006117c9015260006117a1015260006116fc015260006117260152600061175001526124056000f3fe608060405234801561001057600080fd5b50600436106101da5760003560e01c80637ecebe0011610104578063a22cb465116100a2578063c87b56dd11610071578063c87b56dd14610422578063e131fc0c14610435578063e985e9c514610448578063f2fde38b1461045b57600080fd5b8063a22cb465146103d6578063b88d4fde146103e9578063c0715888146103fc578063c3cda5201461040f57600080fd5b80638e539e8c116100de5780638e539e8c1461038957806391ddadf41461039c57806395d89b41146103bb5780639ab24eb0146103c357600080fd5b80637ecebe001461033457806384b0196e1461035d5780638da5cb5b1461037857600080fd5b80633a46b1a81161017c5780635c19a95c1161014b5780635c19a95c146102f35780636352211e1461030657806370a0823114610319578063715018a61461032c57600080fd5b80633a46b1a81461029957806342842e0e146102ac5780634bf5d7e9146102bf578063587cde1e146102c757600080fd5b8063081812fc116101b8578063081812fc14610233578063095ea7b31461025e57806323b872dd146102735780632407497e1461028657600080fd5b806301ffc9a7146101df57806306661abd1461020757806306fdde031461021e575b600080fd5b6101f26101ed366004611e1d565b61046e565b60405190151581526020015b60405180910390f35b610210600d5481565b6040519081526020016101fe565b610226610499565b6040516101fe9190611e8a565b610246610241366004611e9d565b61052b565b6040516001600160a01b0390911681526020016101fe565b61027161026c366004611ecb565b610554565b005b610271610281366004611ef7565b610563565b610271610294366004611f38565b6105f3565b6102106102a7366004611ecb565b610650565b6102716102ba366004611ef7565b6106d1565b6102266106f1565b6102466102d5366004611f38565b6001600160a01b039081166000908152600960205260409020541690565b610271610301366004611f38565b610769565b610246610314366004611e9d565b610774565b610210610327366004611f38565b61077f565b6102716107c7565b610210610342366004611f38565b6001600160a01b031660009081526008602052604090205490565b6103656107db565b6040516101fe9796959493929190611f55565b600c546001600160a01b0316610246565b610210610397366004611e9d565b610821565b6103a461088b565b60405165ffffffffffff90911681526020016101fe565b61022661089a565b6102106103d1366004611f38565b6108a9565b6102716103e4366004611fee565b6108d9565b6102716103f736600461209b565b6108e4565b61021061040a366004611f38565b6108fb565b61027161041d36600461214a565b61096a565b610226610430366004611e9d565b610a27565b600e54610246906001600160a01b031681565b6101f26104563660046121ac565b610ac5565b610271610469366004611f38565b610af3565b60006001600160e01b03198216630321f74760e01b1480610493575061049382610b31565b92915050565b6060600080546104a8906121da565b80601f01602080910402602001604051908101604052809291908181526020018280546104d4906121da565b80156105215780601f106104f657610100808354040283529160200191610521565b820191906000526020600020905b81548152906001019060200180831161050457829003601f168201915b5050505050905090565b600061053682610b81565b506000828152600460205260409020546001600160a01b0316610493565b61055f828233610bba565b5050565b6001600160a01b03821661059257604051633250574960e11b8152600060048201526024015b60405180910390fd5b600061059f838333610bc7565b9050836001600160a01b0316816001600160a01b0316146105ed576040516364283d7b60e01b81526001600160a01b0380861660048301526024820184905282166044820152606401610589565b50505050565b6105fb610beb565b600e80546001600160a01b0383166001600160a01b031990911681179091556040805133815290517fe7784d93cfbfa4408e19577e6cc0436f4dbb51214b70e100905dfce9def88c169181900360200190a250565b60008061065b61088b565b90508065ffffffffffff16831061069657604051637669fc0f60e11b81526004810184905265ffffffffffff82166024820152604401610589565b6106c06106a284610c18565b6001600160a01b0386166000908152600a6020526040902090610c4f565b6001600160d01b0316949350505050565b6106ec838383604051806020016040528060008152506108e4565b505050565b60606106fb610d05565b65ffffffffffff1661070b61088b565b65ffffffffffff1614610731576040516301bfc1c560e61b815260040160405180910390fd5b5060408051808201909152601d81527f6d6f64653d626c6f636b6e756d6265722666726f6d3d64656661756c74000000602082015290565b3361055f8183610d10565b600061049382610b81565b60006001600160a01b0382166107ab576040516322718ad960e21b815260006004820152602401610589565b506001600160a01b031660009081526003602052604090205490565b6107cf610beb565b6107d96000610d82565b565b6000606080600080600060606107ef610dd4565b6107f7610e01565b60408051600080825260208201909252600f60f81b9b939a50919850469750309650945092509050565b60008061082c61088b565b90508065ffffffffffff16831061086757604051637669fc0f60e11b81526004810184905265ffffffffffff82166024820152604401610589565b61087b61087384610c18565b600b90610c4f565b6001600160d01b03169392505050565b6000610895610d05565b905090565b6060600180546104a8906121da565b6001600160a01b0381166000908152600a602052604081206108ca90610e2e565b6001600160d01b031692915050565b61055f338383610e67565b6108ef848484610563565b6105ed84848484610f06565b6000600d6000815461090c9061222a565b9182905550905061091d828261102f565b6001600160a01b038216817f365b3162cd780731fc55a794b59494d472bc2af701007f581843a70673814698336040516001600160a01b03909116815260200160405180910390a3919050565b8342111561098e57604051632341d78760e11b815260048101859052602401610589565b604080517fe48329057bfd03d55e49b547132e39cffd9c1820ad7b9d4c5307691425d15adf60208201526001600160a01b038816918101919091526060810186905260808101859052600090610a0890610a009060a00160405160208183030381529060405280519060200120611049565b858585611076565b9050610a1481876110a4565b610a1e8188610d10565b50505050505050565b600e546060906001600160a01b031680610a51575050604080516020810190915260008152919050565b604051636d02a25560e11b8152600481018490526001600160a01b0382169063da0544aa90602401600060405180830381865afa158015610a96573d6000803e3d6000fd5b505050506040513d6000823e601f3d908101601f19168201604052610abe9190810190612243565b9392505050565b6001600160a01b03918216600090815260056020908152604080832093909416825291909152205460ff1690565b610afb610beb565b6001600160a01b038116610b2557604051631e4fbdf760e01b815260006004820152602401610589565b610b2e81610d82565b50565b60006001600160e01b031982166380ac58cd60e01b1480610b6257506001600160e01b03198216635b5e139f60e01b145b8061049357506301ffc9a760e01b6001600160e01b0319831614610493565b6000818152600260205260408120546001600160a01b03168061049357604051637e27328960e01b815260048101849052602401610589565b6106ec83838360016110f7565b600080610bd58585856111fd565b9050610be3818660016112f6565b949350505050565b600c546001600160a01b031633146107d95760405163118cdaa760e01b8152336004820152602401610589565b600065ffffffffffff821115610c4b576040516306dfcc6560e41b81526030600482015260248101839052604401610589565b5090565b815460009081816005811115610cae576000610c6a84611371565b610c7490856122ba565b60008881526020902090915081015465ffffffffffff9081169087161015610c9e57809150610cac565b610ca98160016122cd565b92505b505b6000610cbc87878585611459565b90508015610cf757610ce187610cd36001846122ba565b600091825260209091200190565b54600160301b90046001600160d01b0316610cfa565b60005b979650505050505050565b600061089543610c18565b6001600160a01b0382811660008181526009602052604080822080548686166001600160a01b0319821681179092559151919094169392849290917f3134e8a2e6d97e929a7e54011ea5485d7d196dd5f0ba4d4ef95803e8e3fc257f9190a46106ec8183610d7d866114bb565b6114c6565b600c80546001600160a01b038381166001600160a01b0319831681179093556040519116919082907f8be0079c531659141344cd1fd0a4f28419497f9722a3daafe3b4186f6b6457e090600090a35050565b60606108957f0000000000000000000000000000000000000000000000000000000000000000600661162d565b60606108957f0000000000000000000000000000000000000000000000000000000000000000600761162d565b80546000908015610e5e57610e4883610cd36001846122ba565b54600160301b90046001600160d01b0316610abe565b60009392505050565b6001600160a01b038216610e9957604051630b61174360e31b81526001600160a01b0383166004820152602401610589565b6001600160a01b03838116600081815260056020908152604080832094871680845294825291829020805460ff191686151590811790915591519182527f17307eab39ab6107e8899845ad3d59bd9653f200f220920489ca2b5937696c31910160405180910390a3505050565b6001600160a01b0383163b156105ed57604051630a85bd0160e11b81526001600160a01b0384169063150b7a0290610f489033908890879087906004016122e0565b6020604051808303816000875af1925050508015610f83575060408051601f3d908101601f19168201909252610f809181019061231d565b60015b610fec573d808015610fb1576040519150601f19603f3d011682016040523d82523d6000602084013e610fb6565b606091505b508051600003610fe457604051633250574960e11b81526001600160a01b0385166004820152602401610589565b805181602001fd5b6001600160e01b03198116630a85bd0160e11b1461102857604051633250574960e11b81526001600160a01b0385166004820152602401610589565b5050505050565b61055f8282604051806020016040528060008152506116d8565b60006104936110566116ef565b8360405161190160f01b8152600281019290925260228201526042902090565b6000806000806110888888888861181a565b92509250925061109882826118e9565b50909695505050505050565b6001600160a01b03821660009081526008602052604090208054600181019091558181146106ec576040516301d4b62360e61b81526001600160a01b038416600482015260248101829052604401610589565b808061110b57506001600160a01b03821615155b156111cd57600061111b84610b81565b90506001600160a01b038316158015906111475750826001600160a01b0316816001600160a01b031614155b801561115a57506111588184610ac5565b155b156111835760405163a9fbf51f60e01b81526001600160a01b0384166004820152602401610589565b81156111cb5783856001600160a01b0316826001600160a01b03167f8c5be1e5ebec7d5bd14f71427d1e84f3dd0314c0f7b2291e5b200ac8c7c3b92560405160405180910390a45b505b5050600090815260046020526040902080546001600160a01b0319166001600160a01b0392909216919091179055565b6000828152600260205260408120546001600160a01b039081169083161561122a5761122a8184866119a2565b6001600160a01b03811615611268576112476000856000806110f7565b6001600160a01b038116600090815260036020526040902080546000190190555b6001600160a01b03851615611297576001600160a01b0385166000908152600360205260409020805460010190555b60008481526002602052604080822080546001600160a01b0319166001600160a01b0389811691821790925591518793918516917fddf252ad1be2c89b69c2b068fc378daa952ba7f163c4a11628f55a4df523b3ef91a4949350505050565b6001600160a01b03831661131d5761131a600b611a0661131584611a12565b611a46565b50505b6001600160a01b03821661133f5761133c600b611a7f61131584611a12565b50505b6001600160a01b038381166000908152600960205260408082205485841683529120546106ec929182169116836114c6565b60008160000361138357506000919050565b6000600161139084611a8b565b901c6001901b905060018184816113a9576113a961233a565b048201901c905060018184816113c1576113c161233a565b048201901c905060018184816113d9576113d961233a565b048201901c905060018184816113f1576113f161233a565b048201901c905060018184816114095761140961233a565b048201901c905060018184816114215761142161233a565b048201901c905060018184816114395761143961233a565b048201901c9050610abe818285816114535761145361233a565b04611b1f565b60005b818310156114b35760006114708484611b35565b60008781526020902090915065ffffffffffff86169082015465ffffffffffff16111561149f578092506114ad565b6114aa8160016122cd565b93505b5061145c565b509392505050565b60006104938261077f565b816001600160a01b0316836001600160a01b0316141580156114e85750600081115b156106ec576001600160a01b0383161561158b576001600160a01b0383166000908152600a60205260408120819061152690611a7f61131586611a12565b6001600160d01b031691506001600160d01b03169150846001600160a01b03167fdec2bacdd2f05b59de34da9b523dff8be42e5e38e818c82fdb0bae774387a7248383604051611580929190918252602082015260400190565b60405180910390a250505b6001600160a01b038216156106ec576001600160a01b0382166000908152600a6020526040812081906115c490611a0661131586611a12565b6001600160d01b031691506001600160d01b03169150836001600160a01b03167fdec2bacdd2f05b59de34da9b523dff8be42e5e38e818c82fdb0bae774387a724838360405161161e929190918252602082015260400190565b60405180910390a25050505050565b606060ff83146116475761164083611b50565b9050610493565b818054611653906121da565b80601f016020809104026020016040519081016040528092919081815260200182805461167f906121da565b80156116cc5780601f106116a1576101008083540402835291602001916116cc565b820191906000526020600020905b8154815290600101906020018083116116af57829003601f168201915b50505050509050610493565b6116e28383611b8f565b6106ec6000848484610f06565b6000306001600160a01b037f00000000000000000000000000000000000000000000000000000000000000001614801561174857507f000000000000000000000000000000000000000000000000000000000000000046145b1561177257507f000000000000000000000000000000000000000000000000000000000000000090565b610895604080517f8b73c3c69bb8fe3d512ecc4cf759cc79239f7b179b0ffacaa9a75d522b39400f60208201527f0000000000000000000000000000000000000000000000000000000000000000918101919091527f000000000000000000000000000000000000000000000000000000000000000060608201524660808201523060a082015260009060c00160405160208183030381529060405280519060200120905090565b600080807f7fffffffffffffffffffffffffffffff5d576e7357a4501ddfe92f46681b20a084111561185557506000915060039050826118df565b604080516000808252602082018084528a905260ff891692820192909252606081018790526080810186905260019060a0016020604051602081039080840390855afa1580156118a9573d6000803e3d6000fd5b5050604051601f1901519150506001600160a01b0381166118d5575060009250600191508290506118df565b9250600091508190505b9450945094915050565b60008260038111156118fd576118fd612350565b03611906575050565b600182600381111561191a5761191a612350565b036119385760405163f645eedf60e01b815260040160405180910390fd5b600282600381111561194c5761194c612350565b0361196d5760405163fce698f760e01b815260048101829052602401610589565b600382600381111561198157611981612350565b0361055f576040516335e2f38360e21b815260048101829052602401610589565b6119ad838383611bf4565b6106ec576001600160a01b0383166119db57604051637e27328960e01b815260048101829052602401610589565b60405163177e802f60e01b81526001600160a01b038316600482015260248101829052604401610589565b6000610abe8284612366565b60006001600160d01b03821115610c4b576040516306dfcc6560e41b815260d0600482015260248101839052604401610589565b600080611a72611a5461088b565b611a6a611a6088610e2e565b868863ffffffff16565b879190611c57565b915091505b935093915050565b6000610abe828461238d565b600080608083901c15611aa057608092831c92015b604083901c15611ab257604092831c92015b602083901c15611ac457602092831c92015b601083901c15611ad657601092831c92015b600883901c15611ae857600892831c92015b600483901c15611afa57600492831c92015b600283901c15611b0c57600292831c92015b600183901c156104935760010192915050565b6000818310611b2e5781610abe565b5090919050565b6000611b4460028484186123ad565b610abe908484166122cd565b60606000611b5d83611c65565b604080516020808252818301909252919250600091906020820181803683375050509182525060208101929092525090565b6001600160a01b038216611bb957604051633250574960e11b815260006004820152602401610589565b6000611bc783836000610bc7565b90506001600160a01b038116156106ec576040516339e3563760e11b815260006004820152602401610589565b60006001600160a01b03831615801590610be35750826001600160a01b0316846001600160a01b03161480611c2e5750611c2e8484610ac5565b80610be35750506000908152600460205260409020546001600160a01b03908116911614919050565b600080611a72858585611c8d565b600060ff8216601f81111561049357604051632cd44ac360e21b815260040160405180910390fd5b825460009081908015611dac576000611cab87610cd36001856122ba565b60408051808201909152905465ffffffffffff808216808452600160301b9092046001600160d01b031660208401529192509087161015611cff57604051632520601d60e01b815260040160405180910390fd5b805165ffffffffffff808816911603611d4b5784611d2288610cd36001866122ba565b80546001600160d01b0392909216600160301b0265ffffffffffff909216919091179055611d9c565b6040805180820190915265ffffffffffff80881682526001600160d01b0380881660208085019182528b54600181018d5560008d81529190912094519151909216600160301b029216919091179101555b602001519250839150611a779050565b50506040805180820190915265ffffffffffff80851682526001600160d01b0380851660208085019182528854600181018a5560008a815291822095519251909316600160301b029190931617920191909155905081611a77565b6001600160e01b031981168114610b2e57600080fd5b600060208284031215611e2f57600080fd5b8135610abe81611e07565b60005b83811015611e55578181015183820152602001611e3d565b50506000910152565b60008151808452611e76816020860160208601611e3a565b601f01601f19169290920160200192915050565b602081526000610abe6020830184611e5e565b600060208284031215611eaf57600080fd5b5035919050565b6001600160a01b0381168114610b2e57600080fd5b60008060408385031215611ede57600080fd5b8235611ee981611eb6565b946020939093013593505050565b600080600060608486031215611f0c57600080fd5b8335611f1781611eb6565b92506020840135611f2781611eb6565b929592945050506040919091013590565b600060208284031215611f4a57600080fd5b8135610abe81611eb6565b60ff60f81b881681526000602060e06020840152611f7660e084018a611e5e565b8381036040850152611f88818a611e5e565b606085018990526001600160a01b038816608086015260a0850187905284810360c08601528551808252602080880193509091019060005b81811015611fdc57835183529284019291840191600101611fc0565b50909c9b505050505050505050505050565b6000806040838503121561200157600080fd5b823561200c81611eb6565b91506020830135801515811461202157600080fd5b809150509250929050565b634e487b7160e01b600052604160045260246000fd5b604051601f8201601f1916810167ffffffffffffffff8111828210171561206b5761206b61202c565b604052919050565b600067ffffffffffffffff82111561208d5761208d61202c565b50601f01601f191660200190565b600080600080608085870312156120b157600080fd5b84356120bc81611eb6565b935060208501356120cc81611eb6565b925060408501359150606085013567ffffffffffffffff8111156120ef57600080fd5b8501601f8101871361210057600080fd5b803561211361210e82612073565b612042565b81815288602083850101111561212857600080fd5b8160208401602083013760006020838301015280935050505092959194509250565b60008060008060008060c0878903121561216357600080fd5b863561216e81611eb6565b95506020870135945060408701359350606087013560ff8116811461219257600080fd5b9598949750929560808101359460a0909101359350915050565b600080604083850312156121bf57600080fd5b82356121ca81611eb6565b9150602083013561202181611eb6565b600181811c908216806121ee57607f821691505b60208210810361220e57634e487b7160e01b600052602260045260246000fd5b50919050565b634e487b7160e01b600052601160045260246000fd5b60006001820161223c5761223c612214565b5060010190565b60006020828403121561225557600080fd5b815167ffffffffffffffff81111561226c57600080fd5b8201601f8101841361227d57600080fd5b805161228b61210e82612073565b8181528560208385010111156122a057600080fd5b6122b1826020830160208601611e3a565b95945050505050565b8181038181111561049357610493612214565b8082018082111561049357610493612214565b6001600160a01b038581168252841660208201526040810183905260806060820181905260009061231390830184611e5e565b9695505050505050565b60006020828403121561232f57600080fd5b8151610abe81611e07565b634e487b7160e01b600052601260045260246000fd5b634e487b7160e01b600052602160045260246000fd5b6001600160d01b0381811683821601908082111561238657612386612214565b5092915050565b6001600160d01b0382811682821603908082111561238657612386612214565b6000826123ca57634e487b7160e01b600052601260045260246000fd5b50049056fea2646970667358221220212b53690543126073ac3819b10564780362be86ee0a9d0b651836ee9d71d71e64736f6c63430008170033",
			"deployedBytecode": "0x608060405234801561001057600080fd5b50600436106101da5760003560e01c80637ecebe0011610104578063a22cb465116100a2578063c87b56dd11610071578063c87b56dd14610422578063e131fc0c14610435578063e985e9c514610448578063f2fde38b1461045b57600080fd5b8063a22cb465146103d6578063b88d4fde146103e9578063c0715888146103fc578063c3cda5201461040f57600080fd5b80638e539e8c116100de5780638e539e8c1461038957806391ddadf41461039c57806395d89b41146103bb5780639ab24eb0146103c357600080fd5b80637ecebe001461033457806384b0196e1461035d5780638da5cb5b1461037857600080fd5b80633a46b1a81161017c5780635c19a95c1161014b5780635c19a95c146102f35780636352211e1461030657806370a0823114610319578063715018a61461032c57600080fd5b80633a46b1a81461029957806342842e0e146102ac5780634bf5d7e9146102bf578063587cde1e146102c757600080fd5b8063081812fc116101b8578063081812fc14610233578063095ea7b31461025e57806323b872dd146102735780632407497e1461028657600080fd5b806301ffc9a7146101df57806306661abd1461020757806306fdde031461021e575b600080fd5b6101f26101ed366004611e1d565b61046e565b60405190151581526020015b60405180910390f35b610210600d5481565b6040519081526020016101fe565b610226610499565b6040516101fe9190611e8a565b610246610241366004611e9d565b61052b565b6040516001600160a01b0390911681526020016101fe565b61027161026c366004611ecb565b610554565b005b610271610281366004611ef7565b610563565b610271610294366004611f38565b6105f3565b6102106102a7366004611ecb565b610650565b6102716102ba366004611ef7565b6106d1565b6102266106f1565b6102466102d5366004611f38565b6001600160a01b039081166000908152600960205260409020541690565b610271610301366004611f38565b610769565b610246610314366004611e9d565b610774565b610210610327366004611f38565b61077f565b6102716107c7565b610210610342366004611f38565b6001600160a01b031660009081526008602052604090205490565b6103656107db565b6040516101fe9796959493929190611f55565b600c546001600160a01b0316610246565b610210610397366004611e9d565b610821565b6103a461088b565b60405165ffffffffffff90911681526020016101fe565b61022661089a565b6102106103d1366004611f38565b6108a9565b6102716103e4366004611fee565b6108d9565b6102716103f736600461209b565b6108e4565b61021061040a366004611f38565b6108fb565b61027161041d36600461214a565b61096a565b610226610430366004611e9d565b610a27565b600e54610246906001600160a01b031681565b6101f26104563660046121ac565b610ac5565b610271610469366004611f38565b610af3565b60006001600160e01b03198216630321f74760e01b1480610493575061049382610b31565b92915050565b6060600080546104a8906121da565b80601f01602080910402602001604051908101604052809291908181526020018280546104d4906121da565b80156105215780601f106104f657610100808354040283529160200191610521565b820191906000526020600020905b81548152906001019060200180831161050457829003601f168201915b5050505050905090565b600061053682610b81565b506000828152600460205260409020546001600160a01b0316610493565b61055f828233610bba565b5050565b6001600160a01b03821661059257604051633250574960e11b8152600060048201526024015b60405180910390fd5b600061059f838333610bc7565b9050836001600160a01b0316816001600160a01b0316146105ed576040516364283d7b60e01b81526001600160a01b0380861660048301526024820184905282166044820152606401610589565b50505050565b6105fb610beb565b600e80546001600160a01b0383166001600160a01b031990911681179091556040805133815290517fe7784d93cfbfa4408e19577e6cc0436f4dbb51214b70e100905dfce9def88c169181900360200190a250565b60008061065b61088b565b90508065ffffffffffff16831061069657604051637669fc0f60e11b81526004810184905265ffffffffffff82166024820152604401610589565b6106c06106a284610c18565b6001600160a01b0386166000908152600a6020526040902090610c4f565b6001600160d01b0316949350505050565b6106ec838383604051806020016040528060008152506108e4565b505050565b60606106fb610d05565b65ffffffffffff1661070b61088b565b65ffffffffffff1614610731576040516301bfc1c560e61b815260040160405180910390fd5b5060408051808201909152601d81527f6d6f64653d626c6f636b6e756d6265722666726f6d3d64656661756c74000000602082015290565b3361055f8183610d10565b600061049382610b81565b60006001600160a01b0382166107ab576040516322718ad960e21b815260006004820152602401610589565b506001600160a01b031660009081526003602052604090205490565b6107cf610beb565b6107d96000610d82565b565b6000606080600080600060606107ef610dd4565b6107f7610e01565b60408051600080825260208201909252600f60f81b9b939a50919850469750309650945092509050565b60008061082c61088b565b90508065ffffffffffff16831061086757604051637669fc0f60e11b81526004810184905265ffffffffffff82166024820152604401610589565b61087b61087384610c18565b600b90610c4f565b6001600160d01b03169392505050565b6000610895610d05565b905090565b6060600180546104a8906121da565b6001600160a01b0381166000908152600a602052604081206108ca90610e2e565b6001600160d01b031692915050565b61055f338383610e67565b6108ef848484610563565b6105ed84848484610f06565b6000600d6000815461090c9061222a565b9182905550905061091d828261102f565b6001600160a01b038216817f365b3162cd780731fc55a794b59494d472bc2af701007f581843a70673814698336040516001600160a01b03909116815260200160405180910390a3919050565b8342111561098e57604051632341d78760e11b815260048101859052602401610589565b604080517fe48329057bfd03d55e49b547132e39cffd9c1820ad7b9d4c5307691425d15adf60208201526001600160a01b038816918101919091526060810186905260808101859052600090610a0890610a009060a00160405160208183030381529060405280519060200120611049565b858585611076565b9050610a1481876110a4565b610a1e8188610d10565b50505050505050565b600e546060906001600160a01b031680610a51575050604080516020810190915260008152919050565b604051636d02a25560e11b8152600481018490526001600160a01b0382169063da0544aa90602401600060405180830381865afa158015610a96573d6000803e3d6000fd5b505050506040513d6000823e601f3d908101601f19168201604052610abe9190810190612243565b9392505050565b6001600160a01b03918216600090815260056020908152604080832093909416825291909152205460ff1690565b610afb610beb565b6001600160a01b038116610b2557604051631e4fbdf760e01b815260006004820152602401610589565b610b2e81610d82565b50565b60006001600160e01b031982166380ac58cd60e01b1480610b6257506001600160e01b03198216635b5e139f60e01b145b8061049357506301ffc9a760e01b6001600160e01b0319831614610493565b6000818152600260205260408120546001600160a01b03168061049357604051637e27328960e01b815260048101849052602401610589565b6106ec83838360016110f7565b600080610bd58585856111fd565b9050610be3818660016112f6565b949350505050565b600c546001600160a01b031633146107d95760405163118cdaa760e01b8152336004820152602401610589565b600065ffffffffffff821115610c4b576040516306dfcc6560e41b81526030600482015260248101839052604401610589565b5090565b815460009081816005811115610cae576000610c6a84611371565b610c7490856122ba565b60008881526020902090915081015465ffffffffffff9081169087161015610c9e57809150610cac565b610ca98160016122cd565b92505b505b6000610cbc87878585611459565b90508015610cf757610ce187610cd36001846122ba565b600091825260209091200190565b54600160301b90046001600160d01b0316610cfa565b60005b979650505050505050565b600061089543610c18565b6001600160a01b0382811660008181526009602052604080822080548686166001600160a01b0319821681179092559151919094169392849290917f3134e8a2e6d97e929a7e54011ea5485d7d196dd5f0ba4d4ef95803e8e3fc257f9190a46106ec8183610d7d866114bb565b6114c6565b600c80546001600160a01b038381166001600160a01b0319831681179093556040519116919082907f8be0079c531659141344cd1fd0a4f28419497f9722a3daafe3b4186f6b6457e090600090a35050565b60606108957f4a75696365626f782050726f6a65637473000000000000000000000000000011600661162d565b60606108957f3100000000000000000000000000000000000000000000000000000000000001600761162d565b80546000908015610e5e57610e4883610cd36001846122ba565b54600160301b90046001600160d01b0316610abe565b60009392505050565b6001600160a01b038216610e9957604051630b61174360e31b81526001600160a01b0383166004820152602401610589565b6001600160a01b03838116600081815260056020908152604080832094871680845294825291829020805460ff191686151590811790915591519182527f17307eab39ab6107e8899845ad3d59bd9653f200f220920489ca2b5937696c31910160405180910390a3505050565b6001600160a01b0383163b156105ed57604051630a85bd0160e11b81526001600160a01b0384169063150b7a0290610f489033908890879087906004016122e0565b6020604051808303816000875af1925050508015610f83575060408051601f3d908101601f19168201909252610f809181019061231d565b60015b610fec573d808015610fb1576040519150601f19603f3d011682016040523d82523d6000602084013e610fb6565b606091505b508051600003610fe457604051633250574960e11b81526001600160a01b0385166004820152602401610589565b805181602001fd5b6001600160e01b03198116630a85bd0160e11b1461102857604051633250574960e11b81526001600160a01b0385166004820152602401610589565b5050505050565b61055f8282604051806020016040528060008152506116d8565b60006104936110566116ef565b8360405161190160f01b8152600281019290925260228201526042902090565b6000806000806110888888888861181a565b92509250925061109882826118e9565b50909695505050505050565b6001600160a01b03821660009081526008602052604090208054600181019091558181146106ec576040516301d4b62360e61b81526001600160a01b038416600482015260248101829052604401610589565b808061110b57506001600160a01b03821615155b156111cd57600061111b84610b81565b90506001600160a01b038316158015906111475750826001600160a01b0316816001600160a01b031614155b801561115a57506111588184610ac5565b155b156111835760405163a9fbf51f60e01b81526001600160a01b0384166004820152602401610589565b81156111cb5783856001600160a01b0316826001600160a01b03167f8c5be1e5ebec7d5bd14f71427d1e84f3dd0314c0f7b2291e5b200ac8c7c3b92560405160405180910390a45b505b5050600090815260046020526040902080546001600160a01b0319166001600160a01b0392909216919091179055565b6000828152600260205260408120546001600160a01b039081169083161561122a5761122a8184866119a2565b6001600160a01b03811615611268576112476000856000806110f7565b6001600160a01b038116600090815260036020526040902080546000190190555b6001600160a01b03851615611297576001600160a01b0385166000908152600360205260409020805460010190555b60008481526002602052604080822080546001600160a01b0319166001600160a01b0389811691821790925591518793918516917fddf252ad1be2c89b69c2b068fc378daa952ba7f163c4a11628f55a4df523b3ef91a4949350505050565b6001600160a01b03831661131d5761131a600b611a0661131584611a12565b611a46565b50505b6001600160a01b03821661133f5761133c600b611a7f61131584611a12565b50505b6001600160a01b038381166000908152600960205260408082205485841683529120546106ec929182169116836114c6565b60008160000361138357506000919050565b6000600161139084611a8b565b901c6001901b905060018184816113a9576113a961233a565b048201901c905060018184816113c1576113c161233a565b048201901c905060018184816113d9576113d961233a565b048201901c905060018184816113f1576113f161233a565b048201901c905060018184816114095761140961233a565b048201901c905060018184816114215761142161233a565b048201901c905060018184816114395761143961233a565b048201901c9050610abe818285816114535761145361233a565b04611b1f565b60005b818310156114b35760006114708484611b35565b60008781526020902090915065ffffffffffff86169082015465ffffffffffff16111561149f578092506114ad565b6114aa8160016122cd565b93505b5061145c565b509392505050565b60006104938261077f565b816001600160a01b0316836001600160a01b0316141580156114e85750600081115b156106ec576001600160a01b0383161561158b576001600160a01b0383166000908152600a60205260408120819061152690611a7f61131586611a12565b6001600160d01b031691506001600160d01b03169150846001600160a01b03167fdec2bacdd2f05b59de34da9b523dff8be42e5e38e818c82fdb0bae774387a7248383604051611580929190918252602082015260400190565b60405180910390a250505b6001600160a01b038216156106ec576001600160a01b0382166000908152600a6020526040812081906115c490611a0661131586611a12565b6001600160d01b031691506001600160d01b03169150836001600160a01b03167fdec2bacdd2f05b59de34da9b523dff8be42e5e38e818c82fdb0bae774387a724838360405161161e929190918252602082015260400190565b60405180910390a25050505050565b606060ff83146116475761164083611b50565b9050610493565b818054611653906121da565b80601f016020809104026020016040519081016040528092919081815260200182805461167f906121da565b80156116cc5780601f106116a1576101008083540402835291602001916116cc565b820191906000526020600020905b8154815290600101906020018083116116af57829003601f168201915b50505050509050610493565b6116e28383611b8f565b6106ec6000848484610f06565b6000306001600160a01b037f00000000000000000000000045452b26fe78d2b83247279f87c847f4f4a8fceb1614801561174857507f0000000000000000000000000000000000000000000000000000000000aa36a746145b1561177257507fed315cdb1a085710e6cc3be2c1c3842e93f8ff700ada97d0d76440a8a63827f990565b610895604080517f8b73c3c69bb8fe3d512ecc4cf759cc79239f7b179b0ffacaa9a75d522b39400f60208201527f2e5c5c1c4affeaeda2d3db263faddbd323c18ac7d44a6ca994665583d3b15dad918101919091527fc89efdaa54c0f20c7adf612882df0950f5a951637e0307cdcb4c672f298b8bc660608201524660808201523060a082015260009060c00160405160208183030381529060405280519060200120905090565b600080807f7fffffffffffffffffffffffffffffff5d576e7357a4501ddfe92f46681b20a084111561185557506000915060039050826118df565b604080516000808252602082018084528a905260ff891692820192909252606081018790526080810186905260019060a0016020604051602081039080840390855afa1580156118a9573d6000803e3d6000fd5b5050604051601f1901519150506001600160a01b0381166118d5575060009250600191508290506118df565b9250600091508190505b9450945094915050565b60008260038111156118fd576118fd612350565b03611906575050565b600182600381111561191a5761191a612350565b036119385760405163f645eedf60e01b815260040160405180910390fd5b600282600381111561194c5761194c612350565b0361196d5760405163fce698f760e01b815260048101829052602401610589565b600382600381111561198157611981612350565b0361055f576040516335e2f38360e21b815260048101829052602401610589565b6119ad838383611bf4565b6106ec576001600160a01b0383166119db57604051637e27328960e01b815260048101829052602401610589565b60405163177e802f60e01b81526001600160a01b038316600482015260248101829052604401610589565b6000610abe8284612366565b60006001600160d01b03821115610c4b576040516306dfcc6560e41b815260d0600482015260248101839052604401610589565b600080611a72611a5461088b565b611a6a611a6088610e2e565b868863ffffffff16565b879190611c57565b915091505b935093915050565b6000610abe828461238d565b600080608083901c15611aa057608092831c92015b604083901c15611ab257604092831c92015b602083901c15611ac457602092831c92015b601083901c15611ad657601092831c92015b600883901c15611ae857600892831c92015b600483901c15611afa57600492831c92015b600283901c15611b0c57600292831c92015b600183901c156104935760010192915050565b6000818310611b2e5781610abe565b5090919050565b6000611b4460028484186123ad565b610abe908484166122cd565b60606000611b5d83611c65565b604080516020808252818301909252919250600091906020820181803683375050509182525060208101929092525090565b6001600160a01b038216611bb957604051633250574960e11b815260006004820152602401610589565b6000611bc783836000610bc7565b90506001600160a01b038116156106ec576040516339e3563760e11b815260006004820152602401610589565b60006001600160a01b03831615801590610be35750826001600160a01b0316846001600160a01b03161480611c2e5750611c2e8484610ac5565b80610be35750506000908152600460205260409020546001600160a01b03908116911614919050565b600080611a72858585611c8d565b600060ff8216601f81111561049357604051632cd44ac360e21b815260040160405180910390fd5b825460009081908015611dac576000611cab87610cd36001856122ba565b60408051808201909152905465ffffffffffff808216808452600160301b9092046001600160d01b031660208401529192509087161015611cff57604051632520601d60e01b815260040160405180910390fd5b805165ffffffffffff808816911603611d4b5784611d2288610cd36001866122ba565b80546001600160d01b0392909216600160301b0265ffffffffffff909216919091179055611d9c565b6040805180820190915265ffffffffffff80881682526001600160d01b0380881660208085019182528b54600181018d5560008d81529190912094519151909216600160301b029216919091179101555b602001519250839150611a779050565b50506040805180820190915265ffffffffffff80851682526001600160d01b0380851660208085019182528854600181018a5560008a815291822095519251909316600160301b029190931617920191909155905081611a77565b6001600160e01b031981168114610b2e57600080fd5b600060208284031215611e2f57600080fd5b8135610abe81611e07565b60005b83811015611e55578181015183820152602001611e3d565b50506000910152565b60008151808452611e76816020860160208601611e3a565b601f01601f19169290920160200192915050565b602081526000610abe6020830184611e5e565b600060208284031215611eaf57600080fd5b5035919050565b6001600160a01b0381168114610b2e57600080fd5b60008060408385031215611ede57600080fd5b8235611ee981611eb6565b946020939093013593505050565b600080600060608486031215611f0c57600080fd5b8335611f1781611eb6565b92506020840135611f2781611eb6565b929592945050506040919091013590565b600060208284031215611f4a57600080fd5b8135610abe81611eb6565b60ff60f81b881681526000602060e06020840152611f7660e084018a611e5e565b8381036040850152611f88818a611e5e565b606085018990526001600160a01b038816608086015260a0850187905284810360c08601528551808252602080880193509091019060005b81811015611fdc57835183529284019291840191600101611fc0565b50909c9b505050505050505050505050565b6000806040838503121561200157600080fd5b823561200c81611eb6565b91506020830135801515811461202157600080fd5b809150509250929050565b634e487b7160e01b600052604160045260246000fd5b604051601f8201601f1916810167ffffffffffffffff8111828210171561206b5761206b61202c565b604052919050565b600067ffffffffffffffff82111561208d5761208d61202c565b50601f01601f191660200190565b600080600080608085870312156120b157600080fd5b84356120bc81611eb6565b935060208501356120cc81611eb6565b925060408501359150606085013567ffffffffffffffff8111156120ef57600080fd5b8501601f8101871361210057600080fd5b803561211361210e82612073565b612042565b81815288602083850101111561212857600080fd5b8160208401602083013760006020838301015280935050505092959194509250565b60008060008060008060c0878903121561216357600080fd5b863561216e81611eb6565b95506020870135945060408701359350606087013560ff8116811461219257600080fd5b9598949750929560808101359460a0909101359350915050565b600080604083850312156121bf57600080fd5b82356121ca81611eb6565b9150602083013561202181611eb6565b600181811c908216806121ee57607f821691505b60208210810361220e57634e487b7160e01b600052602260045260246000fd5b50919050565b634e487b7160e01b600052601160045260246000fd5b60006001820161223c5761223c612214565b5060010190565b60006020828403121561225557600080fd5b815167ffffffffffffffff81111561226c57600080fd5b8201601f8101841361227d57600080fd5b805161228b61210e82612073565b8181528560208385010111156122a057600080fd5b6122b1826020830160208601611e3a565b95945050505050565b8181038181111561049357610493612214565b8082018082111561049357610493612214565b6001600160a01b038581168252841660208201526040810183905260806060820181905260009061231390830184611e5e565b9695505050505050565b60006020828403121561232f57600080fd5b8151610abe81611e07565b634e487b7160e01b600052601260045260246000fd5b634e487b7160e01b600052602160045260246000fd5b6001600160d01b0381811683821601908082111561238657612386612214565b5092915050565b6001600160d01b0382811682821603908082111561238657612386612214565b6000826123ca57634e487b7160e01b600052601260045260246000fd5b50049056fea2646970667358221220212b53690543126073ac3819b10564780362be86ee0a9d0b651836ee9d71d71e64736f6c63430008170033",
			"devdoc": {
				"kind": "dev",
				"methods": {
					"CLOCK_MODE()": {
						"details": "Machine-readable description of the clock as specified in EIP-6372."
					},
					"approve(address,uint256)": {
						"details": "See {IERC721-approve}."
					},
					"balanceOf(address)": {
						"details": "See {IERC721-balanceOf}."
					},
					"clock()": {
						"details": "Clock used for flagging checkpoints. Can be overridden to implement timestamp based checkpoints (and voting), in which case {CLOCK_MODE} should be overridden as well to match."
					},
					"constructor": {
						"params": {
							"owner": "The owner of the contract who can set metadata."
						}
					},
					"createFor(address)": {
						"details": "Anyone can create a project on an owner's behalf.",
						"params": {
							"owner": "The address that will be the owner of the project."
						},
						"returns": {
							"projectId": "The token ID of the newly created project."
						}
					},
					"delegate(address)": {
						"details": "Delegates votes from the sender to `delegatee`."
					},
					"delegateBySig(address,uint256,uint256,uint8,bytes32,bytes32)": {
						"details": "Delegates votes from signer to `delegatee`."
					},
					"delegates(address)": {
						"details": "Returns the delegate that `account` has chosen."
					},
					"eip712Domain()": {
						"details": "See {IERC-5267}."
					},
					"getApproved(uint256)": {
						"details": "See {IERC721-getApproved}."
					},
					"getPastTotalSupply(uint256)": {
						"details": "Returns the total supply of votes available at a specific moment in the past. If the `clock()` is configured to use block numbers, this will return the value at the end of the corresponding block. NOTE: This value is the sum of all available votes, which is not necessarily the sum of all delegated votes. Votes that have not been delegated are still part of total supply, even though they would not participate in a vote. Requirements: - `timepoint` must be in the past. If operating using block numbers, the block must be already mined."
					},
					"getPastVotes(address,uint256)": {
						"details": "Returns the amount of votes that `account` had at a specific moment in the past. If the `clock()` is configured to use block numbers, this will return the value at the end of the corresponding block. Requirements: - `timepoint` must be in the past. If operating using block numbers, the block must be already mined."
					},
					"getVotes(address)": {
						"details": "Returns the current amount of votes that `account` has."
					},
					"isApprovedForAll(address,address)": {
						"details": "See {IERC721-isApprovedForAll}."
					},
					"name()": {
						"details": "See {IERC721Metadata-name}."
					},
					"nonces(address)": {
						"details": "Returns the next unused nonce for an address."
					},
					"owner()": {
						"details": "Returns the address of the current owner."
					},
					"ownerOf(uint256)": {
						"details": "See {IERC721-ownerOf}."
					},
					"renounceOwnership()": {
						"details": "Leaves the contract without owner. It will not be possible to call `onlyOwner` functions. Can only be called by the current owner. NOTE: Renouncing ownership will leave the contract without an owner, thereby disabling any functionality that is only available to the owner."
					},
					"safeTransferFrom(address,address,uint256)": {
						"details": "See {IERC721-safeTransferFrom}."
					},
					"safeTransferFrom(address,address,uint256,bytes)": {
						"details": "See {IERC721-safeTransferFrom}."
					},
					"setApprovalForAll(address,bool)": {
						"details": "See {IERC721-setApprovalForAll}."
					},
					"setTokenUriResolver(address)": {
						"params": {
							"newResolver": "The address of the new resolver."
						}
					},
					"supportsInterface(bytes4)": {
						"details": "See {IERC165-supportsInterface}.",
						"params": {
							"interfaceId": "The ID of the interface to check for adherance to."
						},
						"returns": {
							"_0": "A flag indicating if the provided interface ID is supported."
						}
					},
					"symbol()": {
						"details": "See {IERC721Metadata-symbol}."
					},
					"tokenURI(uint256)": {
						"params": {
							"projectId": "The ID of the project to get a URI of."
						},
						"returns": {
							"_0": "The token URI to use for the provided `projectId`."
						}
					},
					"transferFrom(address,address,uint256)": {
						"details": "See {IERC721-transferFrom}."
					},
					"transferOwnership(address)": {
						"details": "Transfers ownership of the contract to a new account (`newOwner`). Can only be called by the current owner."
					}
				},
				"version": 1
			},
			"userdoc": {
				"kind": "user",
				"methods": {
					"count()": {
						"notice": "The number of projects that have been created using this contract."
					},
					"createFor(address)": {
						"notice": "Create a new project for the specified owner, which mints an NFT (ERC-721) into their wallet."
					},
					"setTokenUriResolver(address)": {
						"notice": "Sets the address of the resolver used to retrieve the tokenURI of projects."
					},
					"supportsInterface(bytes4)": {
						"notice": "Indicates if this contract adheres to the specified interface."
					},
					"tokenURI(uint256)": {
						"notice": "Returns the URI where the ERC-721 standard JSON of a project is hosted."
					},
					"tokenUriResolver()": {
						"notice": "The contract resolving each project ID to its ERC721 URI."
					}
				},
				"version": 1
			},
			"gitCommit": "62158c420c722b49faeb8974b2a980f19906fb7a",
			"sourceName": "src/JBProjects.sol",
			"chainId": "11155111",
			"linkReferences": {},
			"deployedLinkReferences": {}
		},
		{
			"_format": "sphinx-sol-ct-artifact-1",
			"merkleRoot": "0xd585c33ce71711649e9771716c78530681c13a65cc62ef35805d17b1536fb647",
			"contractName": "JBProjects",
			"address": "0xE9a6F248F9f8854E9f161c84c34F2589Ec362BE9",
			"abi": [
				{
					"type": "constructor",
					"inputs": [
						{
							"name": "owner",
							"type": "address",
							"internalType": "address"
						},
						{
							"name": "feeProjectOwner",
							"type": "address",
							"internalType": "address"
						}
					],
					"stateMutability": "nonpayable"
				},
				{
					"type": "function",
					"name": "CLOCK_MODE",
					"inputs": [],
					"outputs": [
						{
							"name": "",
							"type": "string",
							"internalType": "string"
						}
					],
					"stateMutability": "view"
				},
				{
					"type": "function",
					"name": "approve",
					"inputs": [
						{
							"name": "to",
							"type": "address",
							"internalType": "address"
						},
						{
							"name": "tokenId",
							"type": "uint256",
							"internalType": "uint256"
						}
					],
					"outputs": [],
					"stateMutability": "nonpayable"
				},
				{
					"type": "function",
					"name": "balanceOf",
					"inputs": [
						{
							"name": "owner",
							"type": "address",
							"internalType": "address"
						}
					],
					"outputs": [
						{
							"name": "",
							"type": "uint256",
							"internalType": "uint256"
						}
					],
					"stateMutability": "view"
				},
				{
					"type": "function",
					"name": "clock",
					"inputs": [],
					"outputs": [
						{
							"name": "",
							"type": "uint48",
							"internalType": "uint48"
						}
					],
					"stateMutability": "view"
				},
				{
					"type": "function",
					"name": "count",
					"inputs": [],
					"outputs": [
						{
							"name": "",
							"type": "uint256",
							"internalType": "uint256"
						}
					],
					"stateMutability": "view"
				},
				{
					"type": "function",
					"name": "createFor",
					"inputs": [
						{
							"name": "owner",
							"type": "address",
							"internalType": "address"
						}
					],
					"outputs": [
						{
							"name": "projectId",
							"type": "uint256",
							"internalType": "uint256"
						}
					],
					"stateMutability": "nonpayable"
				},
				{
					"type": "function",
					"name": "delegate",
					"inputs": [
						{
							"name": "delegatee",
							"type": "address",
							"internalType": "address"
						}
					],
					"outputs": [],
					"stateMutability": "nonpayable"
				},
				{
					"type": "function",
					"name": "delegateBySig",
					"inputs": [
						{
							"name": "delegatee",
							"type": "address",
							"internalType": "address"
						},
						{
							"name": "nonce",
							"type": "uint256",
							"internalType": "uint256"
						},
						{
							"name": "expiry",
							"type": "uint256",
							"internalType": "uint256"
						},
						{
							"name": "v",
							"type": "uint8",
							"internalType": "uint8"
						},
						{
							"name": "r",
							"type": "bytes32",
							"internalType": "bytes32"
						},
						{
							"name": "s",
							"type": "bytes32",
							"internalType": "bytes32"
						}
					],
					"outputs": [],
					"stateMutability": "nonpayable"
				},
				{
					"type": "function",
					"name": "delegates",
					"inputs": [
						{
							"name": "account",
							"type": "address",
							"internalType": "address"
						}
					],
					"outputs": [
						{
							"name": "",
							"type": "address",
							"internalType": "address"
						}
					],
					"stateMutability": "view"
				},
				{
					"type": "function",
					"name": "eip712Domain",
					"inputs": [],
					"outputs": [
						{
							"name": "fields",
							"type": "bytes1",
							"internalType": "bytes1"
						},
						{
							"name": "name",
							"type": "string",
							"internalType": "string"
						},
						{
							"name": "version",
							"type": "string",
							"internalType": "string"
						},
						{
							"name": "chainId",
							"type": "uint256",
							"internalType": "uint256"
						},
						{
							"name": "verifyingContract",
							"type": "address",
							"internalType": "address"
						},
						{
							"name": "salt",
							"type": "bytes32",
							"internalType": "bytes32"
						},
						{
							"name": "extensions",
							"type": "uint256[]",
							"internalType": "uint256[]"
						}
					],
					"stateMutability": "view"
				},
				{
					"type": "function",
					"name": "getApproved",
					"inputs": [
						{
							"name": "tokenId",
							"type": "uint256",
							"internalType": "uint256"
						}
					],
					"outputs": [
						{
							"name": "",
							"type": "address",
							"internalType": "address"
						}
					],
					"stateMutability": "view"
				},
				{
					"type": "function",
					"name": "getPastTotalSupply",
					"inputs": [
						{
							"name": "timepoint",
							"type": "uint256",
							"internalType": "uint256"
						}
					],
					"outputs": [
						{
							"name": "",
							"type": "uint256",
							"internalType": "uint256"
						}
					],
					"stateMutability": "view"
				},
				{
					"type": "function",
					"name": "getPastVotes",
					"inputs": [
						{
							"name": "account",
							"type": "address",
							"internalType": "address"
						},
						{
							"name": "timepoint",
							"type": "uint256",
							"internalType": "uint256"
						}
					],
					"outputs": [
						{
							"name": "",
							"type": "uint256",
							"internalType": "uint256"
						}
					],
					"stateMutability": "view"
				},
				{
					"type": "function",
					"name": "getVotes",
					"inputs": [
						{
							"name": "account",
							"type": "address",
							"internalType": "address"
						}
					],
					"outputs": [
						{
							"name": "",
							"type": "uint256",
							"internalType": "uint256"
						}
					],
					"stateMutability": "view"
				},
				{
					"type": "function",
					"name": "isApprovedForAll",
					"inputs": [
						{
							"name": "owner",
							"type": "address",
							"internalType": "address"
						},
						{
							"name": "operator",
							"type": "address",
							"internalType": "address"
						}
					],
					"outputs": [
						{
							"name": "",
							"type": "bool",
							"internalType": "bool"
						}
					],
					"stateMutability": "view"
				},
				{
					"type": "function",
					"name": "name",
					"inputs": [],
					"outputs": [
						{
							"name": "",
							"type": "string",
							"internalType": "string"
						}
					],
					"stateMutability": "view"
				},
				{
					"type": "function",
					"name": "nonces",
					"inputs": [
						{
							"name": "owner",
							"type": "address",
							"internalType": "address"
						}
					],
					"outputs": [
						{
							"name": "",
							"type": "uint256",
							"internalType": "uint256"
						}
					],
					"stateMutability": "view"
				},
				{
					"type": "function",
					"name": "owner",
					"inputs": [],
					"outputs": [
						{
							"name": "",
							"type": "address",
							"internalType": "address"
						}
					],
					"stateMutability": "view"
				},
				{
					"type": "function",
					"name": "ownerOf",
					"inputs": [
						{
							"name": "tokenId",
							"type": "uint256",
							"internalType": "uint256"
						}
					],
					"outputs": [
						{
							"name": "",
							"type": "address",
							"internalType": "address"
						}
					],
					"stateMutability": "view"
				},
				{
					"type": "function",
					"name": "renounceOwnership",
					"inputs": [],
					"outputs": [],
					"stateMutability": "nonpayable"
				},
				{
					"type": "function",
					"name": "safeTransferFrom",
					"inputs": [
						{
							"name": "from",
							"type": "address",
							"internalType": "address"
						},
						{
							"name": "to",
							"type": "address",
							"internalType": "address"
						},
						{
							"name": "tokenId",
							"type": "uint256",
							"internalType": "uint256"
						}
					],
					"outputs": [],
					"stateMutability": "nonpayable"
				},
				{
					"type": "function",
					"name": "safeTransferFrom",
					"inputs": [
						{
							"name": "from",
							"type": "address",
							"internalType": "address"
						},
						{
							"name": "to",
							"type": "address",
							"internalType": "address"
						},
						{
							"name": "tokenId",
							"type": "uint256",
							"internalType": "uint256"
						},
						{
							"name": "data",
							"type": "bytes",
							"internalType": "bytes"
						}
					],
					"outputs": [],
					"stateMutability": "nonpayable"
				},
				{
					"type": "function",
					"name": "setApprovalForAll",
					"inputs": [
						{
							"name": "operator",
							"type": "address",
							"internalType": "address"
						},
						{
							"name": "approved",
							"type": "bool",
							"internalType": "bool"
						}
					],
					"outputs": [],
					"stateMutability": "nonpayable"
				},
				{
					"type": "function",
					"name": "setTokenUriResolver",
					"inputs": [
						{
							"name": "newResolver",
							"type": "address",
							"internalType": "contract IJBTokenUriResolver"
						}
					],
					"outputs": [],
					"stateMutability": "nonpayable"
				},
				{
					"type": "function",
					"name": "supportsInterface",
					"inputs": [
						{
							"name": "interfaceId",
							"type": "bytes4",
							"internalType": "bytes4"
						}
					],
					"outputs": [
						{
							"name": "",
							"type": "bool",
							"internalType": "bool"
						}
					],
					"stateMutability": "view"
				},
				{
					"type": "function",
					"name": "symbol",
					"inputs": [],
					"outputs": [
						{
							"name": "",
							"type": "string",
							"internalType": "string"
						}
					],
					"stateMutability": "view"
				},
				{
					"type": "function",
					"name": "tokenURI",
					"inputs": [
						{
							"name": "projectId",
							"type": "uint256",
							"internalType": "uint256"
						}
					],
					"outputs": [
						{
							"name": "",
							"type": "string",
							"internalType": "string"
						}
					],
					"stateMutability": "view"
				},
				{
					"type": "function",
					"name": "tokenUriResolver",
					"inputs": [],
					"outputs": [
						{
							"name": "",
							"type": "address",
							"internalType": "contract IJBTokenUriResolver"
						}
					],
					"stateMutability": "view"
				},
				{
					"type": "function",
					"name": "transferFrom",
					"inputs": [
						{
							"name": "from",
							"type": "address",
							"internalType": "address"
						},
						{
							"name": "to",
							"type": "address",
							"internalType": "address"
						},
						{
							"name": "tokenId",
							"type": "uint256",
							"internalType": "uint256"
						}
					],
					"outputs": [],
					"stateMutability": "nonpayable"
				},
				{
					"type": "function",
					"name": "transferOwnership",
					"inputs": [
						{
							"name": "newOwner",
							"type": "address",
							"internalType": "address"
						}
					],
					"outputs": [],
					"stateMutability": "nonpayable"
				},
				{
					"type": "event",
					"name": "Approval",
					"inputs": [
						{
							"name": "owner",
							"type": "address",
							"indexed": true,
							"internalType": "address"
						},
						{
							"name": "approved",
							"type": "address",
							"indexed": true,
							"internalType": "address"
						},
						{
							"name": "tokenId",
							"type": "uint256",
							"indexed": true,
							"internalType": "uint256"
						}
					],
					"anonymous": false
				},
				{
					"type": "event",
					"name": "ApprovalForAll",
					"inputs": [
						{
							"name": "owner",
							"type": "address",
							"indexed": true,
							"internalType": "address"
						},
						{
							"name": "operator",
							"type": "address",
							"indexed": true,
							"internalType": "address"
						},
						{
							"name": "approved",
							"type": "bool",
							"indexed": false,
							"internalType": "bool"
						}
					],
					"anonymous": false
				},
				{
					"type": "event",
					"name": "Create",
					"inputs": [
						{
							"name": "projectId",
							"type": "uint256",
							"indexed": true,
							"internalType": "uint256"
						},
						{
							"name": "owner",
							"type": "address",
							"indexed": true,
							"internalType": "address"
						},
						{
							"name": "caller",
							"type": "address",
							"indexed": false,
							"internalType": "address"
						}
					],
					"anonymous": false
				},
				{
					"type": "event",
					"name": "DelegateChanged",
					"inputs": [
						{
							"name": "delegator",
							"type": "address",
							"indexed": true,
							"internalType": "address"
						},
						{
							"name": "fromDelegate",
							"type": "address",
							"indexed": true,
							"internalType": "address"
						},
						{
							"name": "toDelegate",
							"type": "address",
							"indexed": true,
							"internalType": "address"
						}
					],
					"anonymous": false
				},
				{
					"type": "event",
					"name": "DelegateVotesChanged",
					"inputs": [
						{
							"name": "delegate",
							"type": "address",
							"indexed": true,
							"internalType": "address"
						},
						{
							"name": "previousVotes",
							"type": "uint256",
							"indexed": false,
							"internalType": "uint256"
						},
						{
							"name": "newVotes",
							"type": "uint256",
							"indexed": false,
							"internalType": "uint256"
						}
					],
					"anonymous": false
				},
				{
					"type": "event",
					"name": "EIP712DomainChanged",
					"inputs": [],
					"anonymous": false
				},
				{
					"type": "event",
					"name": "OwnershipTransferred",
					"inputs": [
						{
							"name": "previousOwner",
							"type": "address",
							"indexed": true,
							"internalType": "address"
						},
						{
							"name": "newOwner",
							"type": "address",
							"indexed": true,
							"internalType": "address"
						}
					],
					"anonymous": false
				},
				{
					"type": "event",
					"name": "SetTokenUriResolver",
					"inputs": [
						{
							"name": "resolver",
							"type": "address",
							"indexed": true,
							"internalType": "contract IJBTokenUriResolver"
						},
						{
							"name": "caller",
							"type": "address",
							"indexed": false,
							"internalType": "address"
						}
					],
					"anonymous": false
				},
				{
					"type": "event",
					"name": "Transfer",
					"inputs": [
						{
							"name": "from",
							"type": "address",
							"indexed": true,
							"internalType": "address"
						},
						{
							"name": "to",
							"type": "address",
							"indexed": true,
							"internalType": "address"
						},
						{
							"name": "tokenId",
							"type": "uint256",
							"indexed": true,
							"internalType": "uint256"
						}
					],
					"anonymous": false
				},
				{
					"type": "error",
					"name": "CheckpointUnorderedInsertion",
					"inputs": []
				},
				{
					"type": "error",
					"name": "ECDSAInvalidSignature",
					"inputs": []
				},
				{
					"type": "error",
					"name": "ECDSAInvalidSignatureLength",
					"inputs": [
						{
							"name": "length",
							"type": "uint256",
							"internalType": "uint256"
						}
					]
				},
				{
					"type": "error",
					"name": "ECDSAInvalidSignatureS",
					"inputs": [
						{
							"name": "s",
							"type": "bytes32",
							"internalType": "bytes32"
						}
					]
				},
				{
					"type": "error",
					"name": "ERC5805FutureLookup",
					"inputs": [
						{
							"name": "timepoint",
							"type": "uint256",
							"internalType": "uint256"
						},
						{
							"name": "clock",
							"type": "uint48",
							"internalType": "uint48"
						}
					]
				},
				{
					"type": "error",
					"name": "ERC6372InconsistentClock",
					"inputs": []
				},
				{
					"type": "error",
					"name": "ERC721IncorrectOwner",
					"inputs": [
						{
							"name": "sender",
							"type": "address",
							"internalType": "address"
						},
						{
							"name": "tokenId",
							"type": "uint256",
							"internalType": "uint256"
						},
						{
							"name": "owner",
							"type": "address",
							"internalType": "address"
						}
					]
				},
				{
					"type": "error",
					"name": "ERC721InsufficientApproval",
					"inputs": [
						{
							"name": "operator",
							"type": "address",
							"internalType": "address"
						},
						{
							"name": "tokenId",
							"type": "uint256",
							"internalType": "uint256"
						}
					]
				},
				{
					"type": "error",
					"name": "ERC721InvalidApprover",
					"inputs": [
						{
							"name": "approver",
							"type": "address",
							"internalType": "address"
						}
					]
				},
				{
					"type": "error",
					"name": "ERC721InvalidOperator",
					"inputs": [
						{
							"name": "operator",
							"type": "address",
							"internalType": "address"
						}
					]
				},
				{
					"type": "error",
					"name": "ERC721InvalidOwner",
					"inputs": [
						{
							"name": "owner",
							"type": "address",
							"internalType": "address"
						}
					]
				},
				{
					"type": "error",
					"name": "ERC721InvalidReceiver",
					"inputs": [
						{
							"name": "receiver",
							"type": "address",
							"internalType": "address"
						}
					]
				},
				{
					"type": "error",
					"name": "ERC721InvalidSender",
					"inputs": [
						{
							"name": "sender",
							"type": "address",
							"internalType": "address"
						}
					]
				},
				{
					"type": "error",
					"name": "ERC721NonexistentToken",
					"inputs": [
						{
							"name": "tokenId",
							"type": "uint256",
							"internalType": "uint256"
						}
					]
				},
				{
					"type": "error",
					"name": "InvalidAccountNonce",
					"inputs": [
						{
							"name": "account",
							"type": "address",
							"internalType": "address"
						},
						{
							"name": "currentNonce",
							"type": "uint256",
							"internalType": "uint256"
						}
					]
				},
				{
					"type": "error",
					"name": "InvalidShortString",
					"inputs": []
				},
				{
					"type": "error",
					"name": "OwnableInvalidOwner",
					"inputs": [
						{
							"name": "owner",
							"type": "address",
							"internalType": "address"
						}
					]
				},
				{
					"type": "error",
					"name": "OwnableUnauthorizedAccount",
					"inputs": [
						{
							"name": "account",
							"type": "address",
							"internalType": "address"
						}
					]
				},
				{
					"type": "error",
					"name": "SafeCastOverflowedUintDowncast",
					"inputs": [
						{
							"name": "bits",
							"type": "uint8",
							"internalType": "uint8"
						},
						{
							"name": "value",
							"type": "uint256",
							"internalType": "uint256"
						}
					]
				},
				{
					"type": "error",
					"name": "StringTooLong",
					"inputs": [
						{
							"name": "str",
							"type": "string",
							"internalType": "string"
						}
					]
				},
				{
					"type": "error",
					"name": "VotesExpiredSignature",
					"inputs": [
						{
							"name": "expiry",
							"type": "uint256",
							"internalType": "uint256"
						}
					]
				}
			],
			"solcInputHash": "9c8ada04ecb46a70149f6960114cde6f",
			"receipt": {
				"blockHash": "0xc2b33a61b39e2956de9ad0ae1650f6bffaa8001dd5599122a54aa18ad252b797",
				"blockNumber": 5617603,
				"contractAddress": null,
				"cumulativeGasUsed": "27130394",
				"from": "0xC034550B542b83BA1De312b21d1C94a9a52B1595",
				"gasPrice": "869416457",
				"gasUsed": "11057871",
				"hash": "0x8b30c98ccad39f23c8802d9bff667db649c844339eaade5f6892f5ceb5da3b94",
				"index": 119,
				"logs": [
					{
						"address": "0xB5E96127D417b1B3ef8438496a38A143167209c7",
						"blockHash": "0xc2b33a61b39e2956de9ad0ae1650f6bffaa8001dd5599122a54aa18ad252b797",
						"blockNumber": 5617603,
						"data": "0x0000000000000000000000000000000000000000000000000000000000000000",
						"index": 144,
						"topics": [
							"0x572f161235911da04685a68c06adf558fc7e4a36909dca394650e0adc19cc93d",
							"0x000000000000000000000000c034550b542b83ba1de312b21d1c94a9a52b1595",
							"0x000000000000000000000000ef1be3c049809cace5bc203bbe4ec1ab284bf75c",
							"0xc5212c8666c2907a266059df48729dc71c3a0cf49b2dd390bdabaab46a34cff1"
						],
						"transactionHash": "0x8b30c98ccad39f23c8802d9bff667db649c844339eaade5f6892f5ceb5da3b94",
						"transactionIndex": 119
					},
					{
						"address": "0x1081B5AA9D9d4862A3dA4d469433FB36Ed80FA2A",
						"blockHash": "0xc2b33a61b39e2956de9ad0ae1650f6bffaa8001dd5599122a54aa18ad252b797",
						"blockNumber": 5617603,
						"data": "0x000000000000000000000000953ab7f10efe861b21cfb9630768818a04742587",
						"index": 145,
						"topics": [
							"0x4db17dd5e4732fb6da34a148104a592783ca119a1e7bb8829eba6cbadef0b511"
						],
						"transactionHash": "0x8b30c98ccad39f23c8802d9bff667db649c844339eaade5f6892f5ceb5da3b94",
						"transactionIndex": 119
					},
					{
						"address": "0x1081B5AA9D9d4862A3dA4d469433FB36Ed80FA2A",
						"blockHash": "0xc2b33a61b39e2956de9ad0ae1650f6bffaa8001dd5599122a54aa18ad252b797",
						"blockNumber": 5617603,
						"data": "0x",
						"index": 146,
						"topics": [
							"0x6895c13664aa4f67288b25d7a21d7aaa34916e355fb9b6fae0a139a9085becb8",
							"0x000000000000000000000000ef1be3c049809cace5bc203bbe4ec1ab284bf75c"
						],
						"transactionHash": "0x8b30c98ccad39f23c8802d9bff667db649c844339eaade5f6892f5ceb5da3b94",
						"transactionIndex": 119
					},
					{
						"address": "0xEf1Be3C049809caCe5Bc203BBe4Ec1Ab284bF75c",
						"blockHash": "0xc2b33a61b39e2956de9ad0ae1650f6bffaa8001dd5599122a54aa18ad252b797",
						"blockNumber": 5617603,
						"data": "0x0000000000000000000000000000000000000000000000000000000000000001",
						"index": 147,
						"topics": [
							"0xa65fb05c5808f5f389d72edeaf719ce38f4cc55c1f69ca3cbfb31c21501caa07",
							"0xd585c33ce71711649e9771716c78530681c13a65cc62ef35805d17b1536fb647"
						],
						"transactionHash": "0x8b30c98ccad39f23c8802d9bff667db649c844339eaade5f6892f5ceb5da3b94",
						"transactionIndex": 119
					},
					{
						"address": "0xE9a6F248F9f8854E9f161c84c34F2589Ec362BE9",
						"blockHash": "0xc2b33a61b39e2956de9ad0ae1650f6bffaa8001dd5599122a54aa18ad252b797",
						"blockNumber": 5617603,
						"data": "0x",
						"index": 148,
						"topics": [
							"0x8be0079c531659141344cd1fd0a4f28419497f9722a3daafe3b4186f6b6457e0",
							"0x0000000000000000000000000000000000000000000000000000000000000000",
							"0x0000000000000000000000001081b5aa9d9d4862a3da4d469433fb36ed80fa2a"
						],
						"transactionHash": "0x8b30c98ccad39f23c8802d9bff667db649c844339eaade5f6892f5ceb5da3b94",
						"transactionIndex": 119
					},
					{
						"address": "0xE9a6F248F9f8854E9f161c84c34F2589Ec362BE9",
						"blockHash": "0xc2b33a61b39e2956de9ad0ae1650f6bffaa8001dd5599122a54aa18ad252b797",
						"blockNumber": 5617603,
						"data": "0x",
						"index": 149,
						"topics": [
							"0xddf252ad1be2c89b69c2b068fc378daa952ba7f163c4a11628f55a4df523b3ef",
							"0x0000000000000000000000000000000000000000000000000000000000000000",
							"0x0000000000000000000000001081b5aa9d9d4862a3da4d469433fb36ed80fa2a",
							"0x0000000000000000000000000000000000000000000000000000000000000001"
						],
						"transactionHash": "0x8b30c98ccad39f23c8802d9bff667db649c844339eaade5f6892f5ceb5da3b94",
						"transactionIndex": 119
					},
					{
						"address": "0xE9a6F248F9f8854E9f161c84c34F2589Ec362BE9",
						"blockHash": "0xc2b33a61b39e2956de9ad0ae1650f6bffaa8001dd5599122a54aa18ad252b797",
						"blockNumber": 5617603,
						"data": "0x0000000000000000000000001081b5aa9d9d4862a3da4d469433fb36ed80fa2a",
						"index": 150,
						"topics": [
							"0x365b3162cd780731fc55a794b59494d472bc2af701007f581843a70673814698",
							"0x0000000000000000000000000000000000000000000000000000000000000001",
							"0x0000000000000000000000001081b5aa9d9d4862a3da4d469433fb36ed80fa2a"
						],
						"transactionHash": "0x8b30c98ccad39f23c8802d9bff667db649c844339eaade5f6892f5ceb5da3b94",
						"transactionIndex": 119
					},
					{
						"address": "0x1081B5AA9D9d4862A3dA4d469433FB36Ed80FA2A",
						"blockHash": "0xc2b33a61b39e2956de9ad0ae1650f6bffaa8001dd5599122a54aa18ad252b797",
						"blockNumber": 5617603,
						"data": "0x000000000000000000000000e9a6f248f9f8854e9f161c84c34f2589ec362be9",
						"index": 151,
						"topics": [
							"0x4db17dd5e4732fb6da34a148104a592783ca119a1e7bb8829eba6cbadef0b511"
						],
						"transactionHash": "0x8b30c98ccad39f23c8802d9bff667db649c844339eaade5f6892f5ceb5da3b94",
						"transactionIndex": 119
					},
					{
						"address": "0x1081B5AA9D9d4862A3dA4d469433FB36Ed80FA2A",
						"blockHash": "0xc2b33a61b39e2956de9ad0ae1650f6bffaa8001dd5599122a54aa18ad252b797",
						"blockNumber": 5617603,
						"data": "0x",
						"index": 152,
						"topics": [
							"0x6895c13664aa4f67288b25d7a21d7aaa34916e355fb9b6fae0a139a9085becb8",
							"0x000000000000000000000000ef1be3c049809cace5bc203bbe4ec1ab284bf75c"
						],
						"transactionHash": "0x8b30c98ccad39f23c8802d9bff667db649c844339eaade5f6892f5ceb5da3b94",
						"transactionIndex": 119
					},
					{
						"address": "0xEf1Be3C049809caCe5Bc203BBe4Ec1Ab284bF75c",
						"blockHash": "0xc2b33a61b39e2956de9ad0ae1650f6bffaa8001dd5599122a54aa18ad252b797",
						"blockNumber": 5617603,
						"data": "0x0000000000000000000000000000000000000000000000000000000000000002",
						"index": 153,
						"topics": [
							"0xa65fb05c5808f5f389d72edeaf719ce38f4cc55c1f69ca3cbfb31c21501caa07",
							"0xd585c33ce71711649e9771716c78530681c13a65cc62ef35805d17b1536fb647"
						],
						"transactionHash": "0x8b30c98ccad39f23c8802d9bff667db649c844339eaade5f6892f5ceb5da3b94",
						"transactionIndex": 119
					},
					{
						"address": "0x71Ff91C8A27b436f7025C053c01A3F6AAE3Fc62E",
						"blockHash": "0xc2b33a61b39e2956de9ad0ae1650f6bffaa8001dd5599122a54aa18ad252b797",
						"blockNumber": 5617603,
						"data": "0x",
						"index": 154,
						"topics": [
							"0x8be0079c531659141344cd1fd0a4f28419497f9722a3daafe3b4186f6b6457e0",
							"0x0000000000000000000000000000000000000000000000000000000000000000",
							"0x0000000000000000000000001081b5aa9d9d4862a3da4d469433fb36ed80fa2a"
						],
						"transactionHash": "0x8b30c98ccad39f23c8802d9bff667db649c844339eaade5f6892f5ceb5da3b94",
						"transactionIndex": 119
					},
					{
						"address": "0x1081B5AA9D9d4862A3dA4d469433FB36Ed80FA2A",
						"blockHash": "0xc2b33a61b39e2956de9ad0ae1650f6bffaa8001dd5599122a54aa18ad252b797",
						"blockNumber": 5617603,
						"data": "0x00000000000000000000000071ff91c8a27b436f7025c053c01a3f6aae3fc62e",
						"index": 155,
						"topics": [
							"0x4db17dd5e4732fb6da34a148104a592783ca119a1e7bb8829eba6cbadef0b511"
						],
						"transactionHash": "0x8b30c98ccad39f23c8802d9bff667db649c844339eaade5f6892f5ceb5da3b94",
						"transactionIndex": 119
					},
					{
						"address": "0x1081B5AA9D9d4862A3dA4d469433FB36Ed80FA2A",
						"blockHash": "0xc2b33a61b39e2956de9ad0ae1650f6bffaa8001dd5599122a54aa18ad252b797",
						"blockNumber": 5617603,
						"data": "0x",
						"index": 156,
						"topics": [
							"0x6895c13664aa4f67288b25d7a21d7aaa34916e355fb9b6fae0a139a9085becb8",
							"0x000000000000000000000000ef1be3c049809cace5bc203bbe4ec1ab284bf75c"
						],
						"transactionHash": "0x8b30c98ccad39f23c8802d9bff667db649c844339eaade5f6892f5ceb5da3b94",
						"transactionIndex": 119
					},
					{
						"address": "0xEf1Be3C049809caCe5Bc203BBe4Ec1Ab284bF75c",
						"blockHash": "0xc2b33a61b39e2956de9ad0ae1650f6bffaa8001dd5599122a54aa18ad252b797",
						"blockNumber": 5617603,
						"data": "0x0000000000000000000000000000000000000000000000000000000000000003",
						"index": 157,
						"topics": [
							"0xa65fb05c5808f5f389d72edeaf719ce38f4cc55c1f69ca3cbfb31c21501caa07",
							"0xd585c33ce71711649e9771716c78530681c13a65cc62ef35805d17b1536fb647"
						],
						"transactionHash": "0x8b30c98ccad39f23c8802d9bff667db649c844339eaade5f6892f5ceb5da3b94",
						"transactionIndex": 119
					},
					{
						"address": "0x1081B5AA9D9d4862A3dA4d469433FB36Ed80FA2A",
						"blockHash": "0xc2b33a61b39e2956de9ad0ae1650f6bffaa8001dd5599122a54aa18ad252b797",
						"blockNumber": 5617603,
						"data": "0x000000000000000000000000c91586b6fe425d75c6b0f53daf9831811725bd2c",
						"index": 158,
						"topics": [
							"0x4db17dd5e4732fb6da34a148104a592783ca119a1e7bb8829eba6cbadef0b511"
						],
						"transactionHash": "0x8b30c98ccad39f23c8802d9bff667db649c844339eaade5f6892f5ceb5da3b94",
						"transactionIndex": 119
					},
					{
						"address": "0x1081B5AA9D9d4862A3dA4d469433FB36Ed80FA2A",
						"blockHash": "0xc2b33a61b39e2956de9ad0ae1650f6bffaa8001dd5599122a54aa18ad252b797",
						"blockNumber": 5617603,
						"data": "0x",
						"index": 159,
						"topics": [
							"0x6895c13664aa4f67288b25d7a21d7aaa34916e355fb9b6fae0a139a9085becb8",
							"0x000000000000000000000000ef1be3c049809cace5bc203bbe4ec1ab284bf75c"
						],
						"transactionHash": "0x8b30c98ccad39f23c8802d9bff667db649c844339eaade5f6892f5ceb5da3b94",
						"transactionIndex": 119
					},
					{
						"address": "0xEf1Be3C049809caCe5Bc203BBe4Ec1Ab284bF75c",
						"blockHash": "0xc2b33a61b39e2956de9ad0ae1650f6bffaa8001dd5599122a54aa18ad252b797",
						"blockNumber": 5617603,
						"data": "0x0000000000000000000000000000000000000000000000000000000000000004",
						"index": 160,
						"topics": [
							"0xa65fb05c5808f5f389d72edeaf719ce38f4cc55c1f69ca3cbfb31c21501caa07",
							"0xd585c33ce71711649e9771716c78530681c13a65cc62ef35805d17b1536fb647"
						],
						"transactionHash": "0x8b30c98ccad39f23c8802d9bff667db649c844339eaade5f6892f5ceb5da3b94",
						"transactionIndex": 119
					},
					{
						"address": "0x1081B5AA9D9d4862A3dA4d469433FB36Ed80FA2A",
						"blockHash": "0xc2b33a61b39e2956de9ad0ae1650f6bffaa8001dd5599122a54aa18ad252b797",
						"blockNumber": 5617603,
						"data": "0x00000000000000000000000076c87701d0ad2c5c3b40c36617ceba566436a69f",
						"index": 161,
						"topics": [
							"0x4db17dd5e4732fb6da34a148104a592783ca119a1e7bb8829eba6cbadef0b511"
						],
						"transactionHash": "0x8b30c98ccad39f23c8802d9bff667db649c844339eaade5f6892f5ceb5da3b94",
						"transactionIndex": 119
					},
					{
						"address": "0x1081B5AA9D9d4862A3dA4d469433FB36Ed80FA2A",
						"blockHash": "0xc2b33a61b39e2956de9ad0ae1650f6bffaa8001dd5599122a54aa18ad252b797",
						"blockNumber": 5617603,
						"data": "0x",
						"index": 162,
						"topics": [
							"0x6895c13664aa4f67288b25d7a21d7aaa34916e355fb9b6fae0a139a9085becb8",
							"0x000000000000000000000000ef1be3c049809cace5bc203bbe4ec1ab284bf75c"
						],
						"transactionHash": "0x8b30c98ccad39f23c8802d9bff667db649c844339eaade5f6892f5ceb5da3b94",
						"transactionIndex": 119
					},
					{
						"address": "0xEf1Be3C049809caCe5Bc203BBe4Ec1Ab284bF75c",
						"blockHash": "0xc2b33a61b39e2956de9ad0ae1650f6bffaa8001dd5599122a54aa18ad252b797",
						"blockNumber": 5617603,
						"data": "0x0000000000000000000000000000000000000000000000000000000000000005",
						"index": 163,
						"topics": [
							"0xa65fb05c5808f5f389d72edeaf719ce38f4cc55c1f69ca3cbfb31c21501caa07",
							"0xd585c33ce71711649e9771716c78530681c13a65cc62ef35805d17b1536fb647"
						],
						"transactionHash": "0x8b30c98ccad39f23c8802d9bff667db649c844339eaade5f6892f5ceb5da3b94",
						"transactionIndex": 119
					},
					{
						"address": "0xF11c4f44Aa6775d580F751C0956a22105E46D66C",
						"blockHash": "0xc2b33a61b39e2956de9ad0ae1650f6bffaa8001dd5599122a54aa18ad252b797",
						"blockNumber": 5617603,
						"data": "0x",
						"index": 164,
						"topics": [
							"0x8be0079c531659141344cd1fd0a4f28419497f9722a3daafe3b4186f6b6457e0",
							"0x0000000000000000000000000000000000000000000000000000000000000000",
							"0x000000000000000000000000f11c4f44aa6775d580f751c0956a22105e46d66c"
						],
						"transactionHash": "0x8b30c98ccad39f23c8802d9bff667db649c844339eaade5f6892f5ceb5da3b94",
						"transactionIndex": 119
					},
					{
						"address": "0x1081B5AA9D9d4862A3dA4d469433FB36Ed80FA2A",
						"blockHash": "0xc2b33a61b39e2956de9ad0ae1650f6bffaa8001dd5599122a54aa18ad252b797",
						"blockNumber": 5617603,
						"data": "0x000000000000000000000000f11c4f44aa6775d580f751c0956a22105e46d66c",
						"index": 165,
						"topics": [
							"0x4db17dd5e4732fb6da34a148104a592783ca119a1e7bb8829eba6cbadef0b511"
						],
						"transactionHash": "0x8b30c98ccad39f23c8802d9bff667db649c844339eaade5f6892f5ceb5da3b94",
						"transactionIndex": 119
					},
					{
						"address": "0x1081B5AA9D9d4862A3dA4d469433FB36Ed80FA2A",
						"blockHash": "0xc2b33a61b39e2956de9ad0ae1650f6bffaa8001dd5599122a54aa18ad252b797",
						"blockNumber": 5617603,
						"data": "0x",
						"index": 166,
						"topics": [
							"0x6895c13664aa4f67288b25d7a21d7aaa34916e355fb9b6fae0a139a9085becb8",
							"0x000000000000000000000000ef1be3c049809cace5bc203bbe4ec1ab284bf75c"
						],
						"transactionHash": "0x8b30c98ccad39f23c8802d9bff667db649c844339eaade5f6892f5ceb5da3b94",
						"transactionIndex": 119
					},
					{
						"address": "0xEf1Be3C049809caCe5Bc203BBe4Ec1Ab284bF75c",
						"blockHash": "0xc2b33a61b39e2956de9ad0ae1650f6bffaa8001dd5599122a54aa18ad252b797",
						"blockNumber": 5617603,
						"data": "0x0000000000000000000000000000000000000000000000000000000000000006",
						"index": 167,
						"topics": [
							"0xa65fb05c5808f5f389d72edeaf719ce38f4cc55c1f69ca3cbfb31c21501caa07",
							"0xd585c33ce71711649e9771716c78530681c13a65cc62ef35805d17b1536fb647"
						],
						"transactionHash": "0x8b30c98ccad39f23c8802d9bff667db649c844339eaade5f6892f5ceb5da3b94",
						"transactionIndex": 119
					},
					{
						"address": "0x1081B5AA9D9d4862A3dA4d469433FB36Ed80FA2A",
						"blockHash": "0xc2b33a61b39e2956de9ad0ae1650f6bffaa8001dd5599122a54aa18ad252b797",
						"blockNumber": 5617603,
						"data": "0x000000000000000000000000f25dce432b7ed1ccd5f0a2481f980862e359a092",
						"index": 168,
						"topics": [
							"0x4db17dd5e4732fb6da34a148104a592783ca119a1e7bb8829eba6cbadef0b511"
						],
						"transactionHash": "0x8b30c98ccad39f23c8802d9bff667db649c844339eaade5f6892f5ceb5da3b94",
						"transactionIndex": 119
					},
					{
						"address": "0x1081B5AA9D9d4862A3dA4d469433FB36Ed80FA2A",
						"blockHash": "0xc2b33a61b39e2956de9ad0ae1650f6bffaa8001dd5599122a54aa18ad252b797",
						"blockNumber": 5617603,
						"data": "0x",
						"index": 169,
						"topics": [
							"0x6895c13664aa4f67288b25d7a21d7aaa34916e355fb9b6fae0a139a9085becb8",
							"0x000000000000000000000000ef1be3c049809cace5bc203bbe4ec1ab284bf75c"
						],
						"transactionHash": "0x8b30c98ccad39f23c8802d9bff667db649c844339eaade5f6892f5ceb5da3b94",
						"transactionIndex": 119
					},
					{
						"address": "0xEf1Be3C049809caCe5Bc203BBe4Ec1Ab284bF75c",
						"blockHash": "0xc2b33a61b39e2956de9ad0ae1650f6bffaa8001dd5599122a54aa18ad252b797",
						"blockNumber": 5617603,
						"data": "0x0000000000000000000000000000000000000000000000000000000000000007",
						"index": 170,
						"topics": [
							"0xa65fb05c5808f5f389d72edeaf719ce38f4cc55c1f69ca3cbfb31c21501caa07",
							"0xd585c33ce71711649e9771716c78530681c13a65cc62ef35805d17b1536fb647"
						],
						"transactionHash": "0x8b30c98ccad39f23c8802d9bff667db649c844339eaade5f6892f5ceb5da3b94",
						"transactionIndex": 119
					},
					{
						"address": "0x1081B5AA9D9d4862A3dA4d469433FB36Ed80FA2A",
						"blockHash": "0xc2b33a61b39e2956de9ad0ae1650f6bffaa8001dd5599122a54aa18ad252b797",
						"blockNumber": 5617603,
						"data": "0x0000000000000000000000002ef536bf2b361b69bf21eb02ce8b11911869fa6c",
						"index": 171,
						"topics": [
							"0x4db17dd5e4732fb6da34a148104a592783ca119a1e7bb8829eba6cbadef0b511"
						],
						"transactionHash": "0x8b30c98ccad39f23c8802d9bff667db649c844339eaade5f6892f5ceb5da3b94",
						"transactionIndex": 119
					},
					{
						"address": "0x1081B5AA9D9d4862A3dA4d469433FB36Ed80FA2A",
						"blockHash": "0xc2b33a61b39e2956de9ad0ae1650f6bffaa8001dd5599122a54aa18ad252b797",
						"blockNumber": 5617603,
						"data": "0x",
						"index": 172,
						"topics": [
							"0x6895c13664aa4f67288b25d7a21d7aaa34916e355fb9b6fae0a139a9085becb8",
							"0x000000000000000000000000ef1be3c049809cace5bc203bbe4ec1ab284bf75c"
						],
						"transactionHash": "0x8b30c98ccad39f23c8802d9bff667db649c844339eaade5f6892f5ceb5da3b94",
						"transactionIndex": 119
					},
					{
						"address": "0xEf1Be3C049809caCe5Bc203BBe4Ec1Ab284bF75c",
						"blockHash": "0xc2b33a61b39e2956de9ad0ae1650f6bffaa8001dd5599122a54aa18ad252b797",
						"blockNumber": 5617603,
						"data": "0x0000000000000000000000000000000000000000000000000000000000000008",
						"index": 173,
						"topics": [
							"0xa65fb05c5808f5f389d72edeaf719ce38f4cc55c1f69ca3cbfb31c21501caa07",
							"0xd585c33ce71711649e9771716c78530681c13a65cc62ef35805d17b1536fb647"
						],
						"transactionHash": "0x8b30c98ccad39f23c8802d9bff667db649c844339eaade5f6892f5ceb5da3b94",
						"transactionIndex": 119
					}
				],
				"logsBloom": "0x00800000080010000008000000080200000000040008000000800000004000000060008000000001000000000040020000000000000000000000000000040000000000100000200420000008020000000001000000040000000200000000000000000000020000000000000000000800000000100020000010020010000200400001000800200000000100000000000000000000000000000000804000000000004000000010000000000000000000020200000000000000000000000006000000000002000000200000000008000000010100000000000020000000000060000000000000000004000000000040180200000000804000020000000000000000",
				"status": 1,
				"to": "0xB5E96127D417b1B3ef8438496a38A143167209c7"
			},
			"metadata": "{\"compiler\":{\"version\":\"0.8.23+commit.f704f362\"},\"language\":\"Solidity\",\"output\":{\"abi\":[{\"inputs\":[{\"internalType\":\"address\",\"name\":\"owner\",\"type\":\"address\"},{\"internalType\":\"address\",\"name\":\"feeProjectOwner\",\"type\":\"address\"}],\"stateMutability\":\"nonpayable\",\"type\":\"constructor\"},{\"inputs\":[],\"type\":\"error\",\"name\":\"CheckpointUnorderedInsertion\"},{\"inputs\":[],\"type\":\"error\",\"name\":\"ECDSAInvalidSignature\"},{\"inputs\":[{\"internalType\":\"uint256\",\"name\":\"length\",\"type\":\"uint256\"}],\"type\":\"error\",\"name\":\"ECDSAInvalidSignatureLength\"},{\"inputs\":[{\"internalType\":\"bytes32\",\"name\":\"s\",\"type\":\"bytes32\"}],\"type\":\"error\",\"name\":\"ECDSAInvalidSignatureS\"},{\"inputs\":[{\"internalType\":\"uint256\",\"name\":\"timepoint\",\"type\":\"uint256\"},{\"internalType\":\"uint48\",\"name\":\"clock\",\"type\":\"uint48\"}],\"type\":\"error\",\"name\":\"ERC5805FutureLookup\"},{\"inputs\":[],\"type\":\"error\",\"name\":\"ERC6372InconsistentClock\"},{\"inputs\":[{\"internalType\":\"address\",\"name\":\"sender\",\"type\":\"address\"},{\"internalType\":\"uint256\",\"name\":\"tokenId\",\"type\":\"uint256\"},{\"internalType\":\"address\",\"name\":\"owner\",\"type\":\"address\"}],\"type\":\"error\",\"name\":\"ERC721IncorrectOwner\"},{\"inputs\":[{\"internalType\":\"address\",\"name\":\"operator\",\"type\":\"address\"},{\"internalType\":\"uint256\",\"name\":\"tokenId\",\"type\":\"uint256\"}],\"type\":\"error\",\"name\":\"ERC721InsufficientApproval\"},{\"inputs\":[{\"internalType\":\"address\",\"name\":\"approver\",\"type\":\"address\"}],\"type\":\"error\",\"name\":\"ERC721InvalidApprover\"},{\"inputs\":[{\"internalType\":\"address\",\"name\":\"operator\",\"type\":\"address\"}],\"type\":\"error\",\"name\":\"ERC721InvalidOperator\"},{\"inputs\":[{\"internalType\":\"address\",\"name\":\"owner\",\"type\":\"address\"}],\"type\":\"error\",\"name\":\"ERC721InvalidOwner\"},{\"inputs\":[{\"internalType\":\"address\",\"name\":\"receiver\",\"type\":\"address\"}],\"type\":\"error\",\"name\":\"ERC721InvalidReceiver\"},{\"inputs\":[{\"internalType\":\"address\",\"name\":\"sender\",\"type\":\"address\"}],\"type\":\"error\",\"name\":\"ERC721InvalidSender\"},{\"inputs\":[{\"internalType\":\"uint256\",\"name\":\"tokenId\",\"type\":\"uint256\"}],\"type\":\"error\",\"name\":\"ERC721NonexistentToken\"},{\"inputs\":[{\"internalType\":\"address\",\"name\":\"account\",\"type\":\"address\"},{\"internalType\":\"uint256\",\"name\":\"currentNonce\",\"type\":\"uint256\"}],\"type\":\"error\",\"name\":\"InvalidAccountNonce\"},{\"inputs\":[],\"type\":\"error\",\"name\":\"InvalidShortString\"},{\"inputs\":[{\"internalType\":\"address\",\"name\":\"owner\",\"type\":\"address\"}],\"type\":\"error\",\"name\":\"OwnableInvalidOwner\"},{\"inputs\":[{\"internalType\":\"address\",\"name\":\"account\",\"type\":\"address\"}],\"type\":\"error\",\"name\":\"OwnableUnauthorizedAccount\"},{\"inputs\":[{\"internalType\":\"uint8\",\"name\":\"bits\",\"type\":\"uint8\"},{\"internalType\":\"uint256\",\"name\":\"value\",\"type\":\"uint256\"}],\"type\":\"error\",\"name\":\"SafeCastOverflowedUintDowncast\"},{\"inputs\":[{\"internalType\":\"string\",\"name\":\"str\",\"type\":\"string\"}],\"type\":\"error\",\"name\":\"StringTooLong\"},{\"inputs\":[{\"internalType\":\"uint256\",\"name\":\"expiry\",\"type\":\"uint256\"}],\"type\":\"error\",\"name\":\"VotesExpiredSignature\"},{\"inputs\":[{\"internalType\":\"address\",\"name\":\"owner\",\"type\":\"address\",\"indexed\":true},{\"internalType\":\"address\",\"name\":\"approved\",\"type\":\"address\",\"indexed\":true},{\"internalType\":\"uint256\",\"name\":\"tokenId\",\"type\":\"uint256\",\"indexed\":true}],\"type\":\"event\",\"name\":\"Approval\",\"anonymous\":false},{\"inputs\":[{\"internalType\":\"address\",\"name\":\"owner\",\"type\":\"address\",\"indexed\":true},{\"internalType\":\"address\",\"name\":\"operator\",\"type\":\"address\",\"indexed\":true},{\"internalType\":\"bool\",\"name\":\"approved\",\"type\":\"bool\",\"indexed\":false}],\"type\":\"event\",\"name\":\"ApprovalForAll\",\"anonymous\":false},{\"inputs\":[{\"internalType\":\"uint256\",\"name\":\"projectId\",\"type\":\"uint256\",\"indexed\":true},{\"internalType\":\"address\",\"name\":\"owner\",\"type\":\"address\",\"indexed\":true},{\"internalType\":\"address\",\"name\":\"caller\",\"type\":\"address\",\"indexed\":false}],\"type\":\"event\",\"name\":\"Create\",\"anonymous\":false},{\"inputs\":[{\"internalType\":\"address\",\"name\":\"delegator\",\"type\":\"address\",\"indexed\":true},{\"internalType\":\"address\",\"name\":\"fromDelegate\",\"type\":\"address\",\"indexed\":true},{\"internalType\":\"address\",\"name\":\"toDelegate\",\"type\":\"address\",\"indexed\":true}],\"type\":\"event\",\"name\":\"DelegateChanged\",\"anonymous\":false},{\"inputs\":[{\"internalType\":\"address\",\"name\":\"delegate\",\"type\":\"address\",\"indexed\":true},{\"internalType\":\"uint256\",\"name\":\"previousVotes\",\"type\":\"uint256\",\"indexed\":false},{\"internalType\":\"uint256\",\"name\":\"newVotes\",\"type\":\"uint256\",\"indexed\":false}],\"type\":\"event\",\"name\":\"DelegateVotesChanged\",\"anonymous\":false},{\"inputs\":[],\"type\":\"event\",\"name\":\"EIP712DomainChanged\",\"anonymous\":false},{\"inputs\":[{\"internalType\":\"address\",\"name\":\"previousOwner\",\"type\":\"address\",\"indexed\":true},{\"internalType\":\"address\",\"name\":\"newOwner\",\"type\":\"address\",\"indexed\":true}],\"type\":\"event\",\"name\":\"OwnershipTransferred\",\"anonymous\":false},{\"inputs\":[{\"internalType\":\"contract IJBTokenUriResolver\",\"name\":\"resolver\",\"type\":\"address\",\"indexed\":true},{\"internalType\":\"address\",\"name\":\"caller\",\"type\":\"address\",\"indexed\":false}],\"type\":\"event\",\"name\":\"SetTokenUriResolver\",\"anonymous\":false},{\"inputs\":[{\"internalType\":\"address\",\"name\":\"from\",\"type\":\"address\",\"indexed\":true},{\"internalType\":\"address\",\"name\":\"to\",\"type\":\"address\",\"indexed\":true},{\"internalType\":\"uint256\",\"name\":\"tokenId\",\"type\":\"uint256\",\"indexed\":true}],\"type\":\"event\",\"name\":\"Transfer\",\"anonymous\":false},{\"inputs\":[],\"stateMutability\":\"view\",\"type\":\"function\",\"name\":\"CLOCK_MODE\",\"outputs\":[{\"internalType\":\"string\",\"name\":\"\",\"type\":\"string\"}]},{\"inputs\":[{\"internalType\":\"address\",\"name\":\"to\",\"type\":\"address\"},{\"internalType\":\"uint256\",\"name\":\"tokenId\",\"type\":\"uint256\"}],\"stateMutability\":\"nonpayable\",\"type\":\"function\",\"name\":\"approve\"},{\"inputs\":[{\"internalType\":\"address\",\"name\":\"owner\",\"type\":\"address\"}],\"stateMutability\":\"view\",\"type\":\"function\",\"name\":\"balanceOf\",\"outputs\":[{\"internalType\":\"uint256\",\"name\":\"\",\"type\":\"uint256\"}]},{\"inputs\":[],\"stateMutability\":\"view\",\"type\":\"function\",\"name\":\"clock\",\"outputs\":[{\"internalType\":\"uint48\",\"name\":\"\",\"type\":\"uint48\"}]},{\"inputs\":[],\"stateMutability\":\"view\",\"type\":\"function\",\"name\":\"count\",\"outputs\":[{\"internalType\":\"uint256\",\"name\":\"\",\"type\":\"uint256\"}]},{\"inputs\":[{\"internalType\":\"address\",\"name\":\"owner\",\"type\":\"address\"}],\"stateMutability\":\"nonpayable\",\"type\":\"function\",\"name\":\"createFor\",\"outputs\":[{\"internalType\":\"uint256\",\"name\":\"projectId\",\"type\":\"uint256\"}]},{\"inputs\":[{\"internalType\":\"address\",\"name\":\"delegatee\",\"type\":\"address\"}],\"stateMutability\":\"nonpayable\",\"type\":\"function\",\"name\":\"delegate\"},{\"inputs\":[{\"internalType\":\"address\",\"name\":\"delegatee\",\"type\":\"address\"},{\"internalType\":\"uint256\",\"name\":\"nonce\",\"type\":\"uint256\"},{\"internalType\":\"uint256\",\"name\":\"expiry\",\"type\":\"uint256\"},{\"internalType\":\"uint8\",\"name\":\"v\",\"type\":\"uint8\"},{\"internalType\":\"bytes32\",\"name\":\"r\",\"type\":\"bytes32\"},{\"internalType\":\"bytes32\",\"name\":\"s\",\"type\":\"bytes32\"}],\"stateMutability\":\"nonpayable\",\"type\":\"function\",\"name\":\"delegateBySig\"},{\"inputs\":[{\"internalType\":\"address\",\"name\":\"account\",\"type\":\"address\"}],\"stateMutability\":\"view\",\"type\":\"function\",\"name\":\"delegates\",\"outputs\":[{\"internalType\":\"address\",\"name\":\"\",\"type\":\"address\"}]},{\"inputs\":[],\"stateMutability\":\"view\",\"type\":\"function\",\"name\":\"eip712Domain\",\"outputs\":[{\"internalType\":\"bytes1\",\"name\":\"fields\",\"type\":\"bytes1\"},{\"internalType\":\"string\",\"name\":\"name\",\"type\":\"string\"},{\"internalType\":\"string\",\"name\":\"version\",\"type\":\"string\"},{\"internalType\":\"uint256\",\"name\":\"chainId\",\"type\":\"uint256\"},{\"internalType\":\"address\",\"name\":\"verifyingContract\",\"type\":\"address\"},{\"internalType\":\"bytes32\",\"name\":\"salt\",\"type\":\"bytes32\"},{\"internalType\":\"uint256[]\",\"name\":\"extensions\",\"type\":\"uint256[]\"}]},{\"inputs\":[{\"internalType\":\"uint256\",\"name\":\"tokenId\",\"type\":\"uint256\"}],\"stateMutability\":\"view\",\"type\":\"function\",\"name\":\"getApproved\",\"outputs\":[{\"internalType\":\"address\",\"name\":\"\",\"type\":\"address\"}]},{\"inputs\":[{\"internalType\":\"uint256\",\"name\":\"timepoint\",\"type\":\"uint256\"}],\"stateMutability\":\"view\",\"type\":\"function\",\"name\":\"getPastTotalSupply\",\"outputs\":[{\"internalType\":\"uint256\",\"name\":\"\",\"type\":\"uint256\"}]},{\"inputs\":[{\"internalType\":\"address\",\"name\":\"account\",\"type\":\"address\"},{\"internalType\":\"uint256\",\"name\":\"timepoint\",\"type\":\"uint256\"}],\"stateMutability\":\"view\",\"type\":\"function\",\"name\":\"getPastVotes\",\"outputs\":[{\"internalType\":\"uint256\",\"name\":\"\",\"type\":\"uint256\"}]},{\"inputs\":[{\"internalType\":\"address\",\"name\":\"account\",\"type\":\"address\"}],\"stateMutability\":\"view\",\"type\":\"function\",\"name\":\"getVotes\",\"outputs\":[{\"internalType\":\"uint256\",\"name\":\"\",\"type\":\"uint256\"}]},{\"inputs\":[{\"internalType\":\"address\",\"name\":\"owner\",\"type\":\"address\"},{\"internalType\":\"address\",\"name\":\"operator\",\"type\":\"address\"}],\"stateMutability\":\"view\",\"type\":\"function\",\"name\":\"isApprovedForAll\",\"outputs\":[{\"internalType\":\"bool\",\"name\":\"\",\"type\":\"bool\"}]},{\"inputs\":[],\"stateMutability\":\"view\",\"type\":\"function\",\"name\":\"name\",\"outputs\":[{\"internalType\":\"string\",\"name\":\"\",\"type\":\"string\"}]},{\"inputs\":[{\"internalType\":\"address\",\"name\":\"owner\",\"type\":\"address\"}],\"stateMutability\":\"view\",\"type\":\"function\",\"name\":\"nonces\",\"outputs\":[{\"internalType\":\"uint256\",\"name\":\"\",\"type\":\"uint256\"}]},{\"inputs\":[],\"stateMutability\":\"view\",\"type\":\"function\",\"name\":\"owner\",\"outputs\":[{\"internalType\":\"address\",\"name\":\"\",\"type\":\"address\"}]},{\"inputs\":[{\"internalType\":\"uint256\",\"name\":\"tokenId\",\"type\":\"uint256\"}],\"stateMutability\":\"view\",\"type\":\"function\",\"name\":\"ownerOf\",\"outputs\":[{\"internalType\":\"address\",\"name\":\"\",\"type\":\"address\"}]},{\"inputs\":[],\"stateMutability\":\"nonpayable\",\"type\":\"function\",\"name\":\"renounceOwnership\"},{\"inputs\":[{\"internalType\":\"address\",\"name\":\"from\",\"type\":\"address\"},{\"internalType\":\"address\",\"name\":\"to\",\"type\":\"address\"},{\"internalType\":\"uint256\",\"name\":\"tokenId\",\"type\":\"uint256\"}],\"stateMutability\":\"nonpayable\",\"type\":\"function\",\"name\":\"safeTransferFrom\"},{\"inputs\":[{\"internalType\":\"address\",\"name\":\"from\",\"type\":\"address\"},{\"internalType\":\"address\",\"name\":\"to\",\"type\":\"address\"},{\"internalType\":\"uint256\",\"name\":\"tokenId\",\"type\":\"uint256\"},{\"internalType\":\"bytes\",\"name\":\"data\",\"type\":\"bytes\"}],\"stateMutability\":\"nonpayable\",\"type\":\"function\",\"name\":\"safeTransferFrom\"},{\"inputs\":[{\"internalType\":\"address\",\"name\":\"operator\",\"type\":\"address\"},{\"internalType\":\"bool\",\"name\":\"approved\",\"type\":\"bool\"}],\"stateMutability\":\"nonpayable\",\"type\":\"function\",\"name\":\"setApprovalForAll\"},{\"inputs\":[{\"internalType\":\"contract IJBTokenUriResolver\",\"name\":\"newResolver\",\"type\":\"address\"}],\"stateMutability\":\"nonpayable\",\"type\":\"function\",\"name\":\"setTokenUriResolver\"},{\"inputs\":[{\"internalType\":\"bytes4\",\"name\":\"interfaceId\",\"type\":\"bytes4\"}],\"stateMutability\":\"view\",\"type\":\"function\",\"name\":\"supportsInterface\",\"outputs\":[{\"internalType\":\"bool\",\"name\":\"\",\"type\":\"bool\"}]},{\"inputs\":[],\"stateMutability\":\"view\",\"type\":\"function\",\"name\":\"symbol\",\"outputs\":[{\"internalType\":\"string\",\"name\":\"\",\"type\":\"string\"}]},{\"inputs\":[{\"internalType\":\"uint256\",\"name\":\"projectId\",\"type\":\"uint256\"}],\"stateMutability\":\"view\",\"type\":\"function\",\"name\":\"tokenURI\",\"outputs\":[{\"internalType\":\"string\",\"name\":\"\",\"type\":\"string\"}]},{\"inputs\":[],\"stateMutability\":\"view\",\"type\":\"function\",\"name\":\"tokenUriResolver\",\"outputs\":[{\"internalType\":\"contract IJBTokenUriResolver\",\"name\":\"\",\"type\":\"address\"}]},{\"inputs\":[{\"internalType\":\"address\",\"name\":\"from\",\"type\":\"address\"},{\"internalType\":\"address\",\"name\":\"to\",\"type\":\"address\"},{\"internalType\":\"uint256\",\"name\":\"tokenId\",\"type\":\"uint256\"}],\"stateMutability\":\"nonpayable\",\"type\":\"function\",\"name\":\"transferFrom\"},{\"inputs\":[{\"internalType\":\"address\",\"name\":\"newOwner\",\"type\":\"address\"}],\"stateMutability\":\"nonpayable\",\"type\":\"function\",\"name\":\"transferOwnership\"}],\"devdoc\":{\"kind\":\"dev\",\"methods\":{\"CLOCK_MODE()\":{\"details\":\"Machine-readable description of the clock as specified in EIP-6372.\"},\"approve(address,uint256)\":{\"details\":\"See {IERC721-approve}.\"},\"balanceOf(address)\":{\"details\":\"See {IERC721-balanceOf}.\"},\"clock()\":{\"details\":\"Clock used for flagging checkpoints. Can be overridden to implement timestamp based checkpoints (and voting), in which case {CLOCK_MODE} should be overridden as well to match.\"},\"constructor\":{\"params\":{\"feeProjectOwner\":\"The address that will receive the fee-project. If `address(0)` the fee-project will not be minted.\",\"owner\":\"The owner of the contract who can set metadata.\"}},\"createFor(address)\":{\"details\":\"Anyone can create a project on an owner's behalf.\",\"params\":{\"owner\":\"The address that will be the owner of the project.\"},\"returns\":{\"projectId\":\"The token ID of the newly created project.\"}},\"delegate(address)\":{\"details\":\"Delegates votes from the sender to `delegatee`.\"},\"delegateBySig(address,uint256,uint256,uint8,bytes32,bytes32)\":{\"details\":\"Delegates votes from signer to `delegatee`.\"},\"delegates(address)\":{\"details\":\"Returns the delegate that `account` has chosen.\"},\"eip712Domain()\":{\"details\":\"See {IERC-5267}.\"},\"getApproved(uint256)\":{\"details\":\"See {IERC721-getApproved}.\"},\"getPastTotalSupply(uint256)\":{\"details\":\"Returns the total supply of votes available at a specific moment in the past. If the `clock()` is configured to use block numbers, this will return the value at the end of the corresponding block. NOTE: This value is the sum of all available votes, which is not necessarily the sum of all delegated votes. Votes that have not been delegated are still part of total supply, even though they would not participate in a vote. Requirements: - `timepoint` must be in the past. If operating using block numbers, the block must be already mined.\"},\"getPastVotes(address,uint256)\":{\"details\":\"Returns the amount of votes that `account` had at a specific moment in the past. If the `clock()` is configured to use block numbers, this will return the value at the end of the corresponding block. Requirements: - `timepoint` must be in the past. If operating using block numbers, the block must be already mined.\"},\"getVotes(address)\":{\"details\":\"Returns the current amount of votes that `account` has.\"},\"isApprovedForAll(address,address)\":{\"details\":\"See {IERC721-isApprovedForAll}.\"},\"name()\":{\"details\":\"See {IERC721Metadata-name}.\"},\"nonces(address)\":{\"details\":\"Returns the next unused nonce for an address.\"},\"owner()\":{\"details\":\"Returns the address of the current owner.\"},\"ownerOf(uint256)\":{\"details\":\"See {IERC721-ownerOf}.\"},\"renounceOwnership()\":{\"details\":\"Leaves the contract without owner. It will not be possible to call `onlyOwner` functions. Can only be called by the current owner. NOTE: Renouncing ownership will leave the contract without an owner, thereby disabling any functionality that is only available to the owner.\"},\"safeTransferFrom(address,address,uint256)\":{\"details\":\"See {IERC721-safeTransferFrom}.\"},\"safeTransferFrom(address,address,uint256,bytes)\":{\"details\":\"See {IERC721-safeTransferFrom}.\"},\"setApprovalForAll(address,bool)\":{\"details\":\"See {IERC721-setApprovalForAll}.\"},\"setTokenUriResolver(address)\":{\"params\":{\"newResolver\":\"The address of the new resolver.\"}},\"supportsInterface(bytes4)\":{\"details\":\"See {IERC165-supportsInterface}.\",\"params\":{\"interfaceId\":\"The ID of the interface to check for adherence to.\"},\"returns\":{\"_0\":\"A flag indicating if the provided interface ID is supported.\"}},\"symbol()\":{\"details\":\"See {IERC721Metadata-symbol}.\"},\"tokenURI(uint256)\":{\"params\":{\"projectId\":\"The ID of the project to get a URI of.\"},\"returns\":{\"_0\":\"The token URI to use for the provided `projectId`.\"}},\"transferFrom(address,address,uint256)\":{\"details\":\"See {IERC721-transferFrom}.\"},\"transferOwnership(address)\":{\"details\":\"Transfers ownership of the contract to a new account (`newOwner`). Can only be called by the current owner.\"}},\"version\":1},\"userdoc\":{\"kind\":\"user\",\"methods\":{\"count()\":{\"notice\":\"The number of projects that have been created using this contract.\"},\"createFor(address)\":{\"notice\":\"Create a new project for the specified owner, which mints an NFT (ERC-721) into their wallet.\"},\"setTokenUriResolver(address)\":{\"notice\":\"Sets the address of the resolver used to retrieve the tokenURI of projects.\"},\"supportsInterface(bytes4)\":{\"notice\":\"Indicates whether this contract adheres to the specified interface.\"},\"tokenURI(uint256)\":{\"notice\":\"Returns the URI where the ERC-721 standard JSON of a project is hosted.\"},\"tokenUriResolver()\":{\"notice\":\"The contract resolving each project ID to its ERC721 URI.\"}},\"version\":1}},\"settings\":{\"remappings\":[\"@bananapus/=node_modules/@bananapus/\",\"@chainlink/=node_modules/@chainlink/\",\"@eth-optimism/=node_modules/@eth-optimism/\",\"@gnosis.pm/=node_modules/@gnosis.pm/\",\"@openzeppelin/=node_modules/@openzeppelin/\",\"@prb/=node_modules/@prb/\",\"@sphinx-labs/contracts/=lib/sphinx/packages/contracts/contracts/foundry/\",\"@uniswap/=node_modules/@uniswap/\",\"ds-test/=lib/forge-std/lib/ds-test/src/\",\"forge-std/=lib/forge-std/src/\",\"hardhat/=node_modules/hardhat/\",\"solmate/=node_modules/solmate/\",\"sphinx-forge-std/=node_modules/sphinx-forge-std/\",\"sphinx-solmate/=node_modules/sphinx-solmate/\",\"sphinx/=lib/sphinx/\"],\"optimizer\":{\"enabled\":true,\"runs\":200},\"metadata\":{\"bytecodeHash\":\"ipfs\"},\"compilationTarget\":{\"src/JBProjects.sol\":\"JBProjects\"},\"evmVersion\":\"paris\",\"libraries\":{}},\"sources\":{\"node_modules/@openzeppelin/contracts/access/Ownable.sol\":{\"keccak256\":\"0xff6d0bb2e285473e5311d9d3caacb525ae3538a80758c10649a4d61029b017bb\",\"urls\":[\"bzz-raw://8ed324d3920bb545059d66ab97d43e43ee85fd3bd52e03e401f020afb0b120f6\",\"dweb:/ipfs/QmfEckWLmZkDDcoWrkEvMWhms66xwTLff9DDhegYpvHo1a\"],\"license\":\"MIT\"},\"node_modules/@openzeppelin/contracts/governance/utils/IVotes.sol\":{\"keccak256\":\"0x5e2b397ae88fd5c68e4f6762eb9f65f65c36702eb57796495f471d024ce70947\",\"urls\":[\"bzz-raw://348fc8e291d54314bb22437b532f443d5dbfb80c8cc9591567c1af6554ccf856\",\"dweb:/ipfs/QmP8ZTyitZinxcpwAHeYHhwj7u21zPpKXSiww38V74sXC2\"],\"license\":\"MIT\"},\"node_modules/@openzeppelin/contracts/governance/utils/Votes.sol\":{\"keccak256\":\"0xb8f69828d41b3594afd7a8c6393565901c205d8b5baf5bd2e42dbac637172979\",\"urls\":[\"bzz-raw://c790253821191ac46b2050d87df820d4209871f90c616381e2c2c00ff3eaac34\",\"dweb:/ipfs/QmcPETTyuZBzDRL39JNXj3SBMdx3Y9o4fPQLSZ27py5Jim\"],\"license\":\"MIT\"},\"node_modules/@openzeppelin/contracts/interfaces/IERC5267.sol\":{\"keccak256\":\"0x92aa1df62dc3d33f1656d63bede0923e0df0b706ad4137c8b10b0a8fe549fd92\",\"urls\":[\"bzz-raw://c5c0f29195ad64cbe556da8e257dac8f05f78c53f90323c0d2accf8e6922d33a\",\"dweb:/ipfs/QmQ61TED8uaCZwcbh8KkgRSsCav7x7HbcGHwHts3U4DmUP\"],\"license\":\"MIT\"},\"node_modules/@openzeppelin/contracts/interfaces/IERC5805.sol\":{\"keccak256\":\"0x4b9b89f91adbb7d3574f85394754cfb08c5b4eafca8a7061e2094a019ab8f818\",\"urls\":[\"bzz-raw://7373d5dbb8eb2381aa0883a456fac89283fcaf52f42fa805d4188f270716742a\",\"dweb:/ipfs/QmVnZDmT4ABvNhRJMaQnbCzsCA8HpyHPVaxi4fCi92LFv2\"],\"license\":\"MIT\"},\"node_modules/@openzeppelin/contracts/interfaces/IERC6372.sol\":{\"keccak256\":\"0xeb2857b7dafb7e0d8526dbfe794e6c047df2851c9e6ee91dc4a55f3c34af5d33\",\"urls\":[\"bzz-raw://49bf13f6c2a38a9bcc7b852d4e2b9cebb4068b832642cce61069cdb5f06bb2fb\",\"dweb:/ipfs/QmdKAJVE7rR2kENCZnEM1yKswrGii7WuE9gZpsQvnXJhwn\"],\"license\":\"MIT\"},\"node_modules/@openzeppelin/contracts/interfaces/draft-IERC6093.sol\":{\"keccak256\":\"0x60c65f701957fdd6faea1acb0bb45825791d473693ed9ecb34726fdfaa849dd7\",\"urls\":[\"bzz-raw://ea290300e0efc4d901244949dc4d877fd46e6c5e43dc2b26620e8efab3ab803f\",\"dweb:/ipfs/QmcLLJppxKeJWqHxE2CUkcfhuRTgHSn8J4kijcLa5MYhSt\"],\"license\":\"MIT\"},\"node_modules/@openzeppelin/contracts/token/ERC721/ERC721.sol\":{\"keccak256\":\"0x13dd061770956c8489b80cfc89d9cdfc8ea2783d953691ea037a380731d52784\",\"urls\":[\"bzz-raw://ed37f0f86e7fe31659e48c3a2a5920a92dd7f13c85cf8991fb79fe5f01e08efd\",\"dweb:/ipfs/QmUtm9bQGvjr9hHGwkPWrbgFmVqzaJcxjkaYDex2oGsonS\"],\"license\":\"MIT\"},\"node_modules/@openzeppelin/contracts/token/ERC721/IERC721.sol\":{\"keccak256\":\"0x5ef46daa3b58ef2702279d514780316efaa952915ee1aa3396f041ee2982b0b4\",\"urls\":[\"bzz-raw://2f8f2a76e23b02fc69e8cd24c3cb47da6c7af3a2d6c3a382f8ac25c6e094ade7\",\"dweb:/ipfs/QmPV4ZS4tPVv4mTCf9ejyZ1ai57EEibDRj7mN2ARDCLV5n\"],\"license\":\"MIT\"},\"node_modules/@openzeppelin/contracts/token/ERC721/IERC721Receiver.sol\":{\"keccak256\":\"0x7f7a26306c79a65fb8b3b6c757cd74660c532cd8a02e165488e30027dd34ca49\",\"urls\":[\"bzz-raw://d01e0b2b837ee2f628545e54d8715b49c7ef2befd08356c2e7f6c50dde8a1c22\",\"dweb:/ipfs/QmWBAn6y2D1xgftci97Z3qR9tQnkvwQpYwFwkTvDMvqU4i\"],\"license\":\"MIT\"},\"node_modules/@openzeppelin/contracts/token/ERC721/extensions/ERC721Votes.sol\":{\"keccak256\":\"0x51eec12bef5f18ea0bad353fbdc227c67b9082d1b459f7c87f47711ad152b0b3\",\"urls\":[\"bzz-raw://3f9142b8e720fa76191a966be6fd93a2a4357f5ac86bbb5cb050e53add32bfbe\",\"dweb:/ipfs/QmdFWtPT9PrMpQkExuDLCAELqA8yfYjQpfWKymdHdRTy2T\"],\"license\":\"MIT\"},\"node_modules/@openzeppelin/contracts/token/ERC721/extensions/IERC721Metadata.sol\":{\"keccak256\":\"0x37d1aaaa5a2908a09e9dcf56a26ddf762ecf295afb5964695937344fc6802ce1\",\"urls\":[\"bzz-raw://ed0bfc1b92153c5000e50f4021367b931bbe96372ac6facec3c4961b72053d02\",\"dweb:/ipfs/Qmbwp8VDerjS5SV1quwHH1oMXxPQ93fzfLVqJ2RCqbowGE\"],\"license\":\"MIT\"},\"node_modules/@openzeppelin/contracts/utils/Context.sol\":{\"keccak256\":\"0x493033a8d1b176a037b2cc6a04dad01a5c157722049bbecf632ca876224dd4b2\",\"urls\":[\"bzz-raw://6a708e8a5bdb1011c2c381c9a5cfd8a9a956d7d0a9dc1bd8bcdaf52f76ef2f12\",\"dweb:/ipfs/Qmax9WHBnVsZP46ZxEMNRQpLQnrdE4dK8LehML1Py8FowF\"],\"license\":\"MIT\"},\"node_modules/@openzeppelin/contracts/utils/Nonces.sol\":{\"keccak256\":\"0x0082767004fca261c332e9ad100868327a863a88ef724e844857128845ab350f\",\"urls\":[\"bzz-raw://132dce9686a54e025eb5ba5d2e48208f847a1ec3e60a3e527766d7bf53fb7f9e\",\"dweb:/ipfs/QmXn1a2nUZMpu2z6S88UoTfMVtY2YNh86iGrzJDYmMkKeZ\"],\"license\":\"MIT\"},\"node_modules/@openzeppelin/contracts/utils/ShortStrings.sol\":{\"keccak256\":\"0x18a7171df639a934592915a520ecb97c5bbc9675a1105607aac8a94e72bf62c6\",\"urls\":[\"bzz-raw://7478e1f13da69a2867ccd883001d836b75620362e743f196376d63ed0c422a1c\",\"dweb:/ipfs/QmWywcQ9TNfwtoqAxbn25d8C5VrV12PrPS9UjtGe6pL2BA\"],\"license\":\"MIT\"},\"node_modules/@openzeppelin/contracts/utils/StorageSlot.sol\":{\"keccak256\":\"0x32ba59b4b7299237c8ba56319110989d7978a039faf754793064e967e5894418\",\"urls\":[\"bzz-raw://1ae50c8b562427df610cc4540c9bf104acca7ef8e2dcae567ae7e52272281e9c\",\"dweb:/ipfs/QmTHiadFCSJUPpRjNegc5SahmeU8bAoY8i9Aq6tVscbcKR\"],\"license\":\"MIT\"},\"node_modules/@openzeppelin/contracts/utils/Strings.sol\":{\"keccak256\":\"0x55f102ea785d8399c0e58d1108e2d289506dde18abc6db1b7f68c1f9f9bc5792\",\"urls\":[\"bzz-raw://6e52e0a7765c943ef14e5bcf11e46e6139fa044be564881378349236bf2e3453\",\"dweb:/ipfs/QmZEeeXoFPW47amyP35gfzomF9DixqqTEPwzBakv6cZw6i\"],\"license\":\"MIT\"},\"node_modules/@openzeppelin/contracts/utils/cryptography/ECDSA.sol\":{\"keccak256\":\"0xeed0a08b0b091f528356cbc7245891a4c748682d4f6a18055e8e6ca77d12a6cf\",\"urls\":[\"bzz-raw://ba80ba06c8e6be852847e4c5f4492cef801feb6558ae09ed705ff2e04ea8b13c\",\"dweb:/ipfs/QmXRJDv3xHLVQCVXg1ZvR35QS9sij5y9NDWYzMfUfAdTHF\"],\"license\":\"MIT\"},\"node_modules/@openzeppelin/contracts/utils/cryptography/EIP712.sol\":{\"keccak256\":\"0x999f705a027ed6dc2d4e0df2cc4a509852c6bfd11de1c8161bf88832d0503fd0\",\"urls\":[\"bzz-raw://0798def67258d9a3cc20b2b4da7ebf351a5cefe0abfdd665d2d81f8e32f89b21\",\"dweb:/ipfs/QmPEvJosnPfzHNjKvCv2D3891mA2Ww8eUwkqrxBjuYdHCt\"],\"license\":\"MIT\"},\"node_modules/@openzeppelin/contracts/utils/cryptography/MessageHashUtils.sol\":{\"keccak256\":\"0xba333517a3add42cd35fe877656fc3dfcc9de53baa4f3aabbd6d12a92e4ea435\",\"urls\":[\"bzz-raw://2ceacff44c0fdc81e48e0e0b1db87a2076d3c1fb497341de077bf1da9f6b406c\",\"dweb:/ipfs/QmRUo1muMRAewxrKQ7TkXUtknyRoR57AyEkoPpiuZQ8FzX\"],\"license\":\"MIT\"},\"node_modules/@openzeppelin/contracts/utils/introspection/ERC165.sol\":{\"keccak256\":\"0x9e8778b14317ba9e256c30a76fd6c32b960af621987f56069e1e819c77c6a133\",\"urls\":[\"bzz-raw://1777404f1dcd0fac188e55a288724ec3c67b45288e49cc64723e95e702b49ab8\",\"dweb:/ipfs/QmZFdC626GButBApwDUvvTnUzdinevC3B24d7yyh57XkiA\"],\"license\":\"MIT\"},\"node_modules/@openzeppelin/contracts/utils/introspection/IERC165.sol\":{\"keccak256\":\"0x4296879f55019b23e135000eb36896057e7101fb7fb859c5ef690cf14643757b\",\"urls\":[\"bzz-raw://87b3541437c8c443ccd36795e56a338ed12855eec17f8da624511b8d1a7e14df\",\"dweb:/ipfs/QmeJQCtZrQjtJLr6u7ZHWeH3pBnjtLWzvRrKViAi7UZqxL\"],\"license\":\"MIT\"},\"node_modules/@openzeppelin/contracts/utils/math/Math.sol\":{\"keccak256\":\"0x005ec64c6313f0555d59e278f9a7a5ab2db5bdc72a027f255a37c327af1ec02d\",\"urls\":[\"bzz-raw://4ece9f0b9c8daca08c76b6b5405a6446b6f73b3a15fab7ff56e296cbd4a2c875\",\"dweb:/ipfs/QmQyRpyPRL5SQuAgj6SHmbir3foX65FJjbVTTQrA2EFg6L\"],\"license\":\"MIT\"},\"node_modules/@openzeppelin/contracts/utils/math/SafeCast.sol\":{\"keccak256\":\"0xe19a4d5f31d2861e7344e8e535e2feafb913d806d3e2b5fe7782741a2a7094fe\",\"urls\":[\"bzz-raw://4aed79c0fa6f0546ed02f2f683e8f77f0fd2ed7eb34d8bbf3d373c9a6d95b13c\",\"dweb:/ipfs/QmWqVz6UAVqmnWU5pqYPt1o6iDEZyPaBraAA3rKfTTSfYj\"],\"license\":\"MIT\"},\"node_modules/@openzeppelin/contracts/utils/math/SignedMath.sol\":{\"keccak256\":\"0x5f7e4076e175393767754387c962926577f1660dd9b810187b9002407656be72\",\"urls\":[\"bzz-raw://7d533a1c97cd43a57cd9c465f7ee8dd0e39ae93a8fb8ff8e5303a356b081cdcc\",\"dweb:/ipfs/QmVBEei6aTnvYNZp2CHYVNKyZS4q1KkjANfY39WVXZXVoT\"],\"license\":\"MIT\"},\"node_modules/@openzeppelin/contracts/utils/structs/Checkpoints.sol\":{\"keccak256\":\"0xbdc5e074d7dd6678f67e92b1a51a20226801a407b0e1af3da367c5d1ff4519ad\",\"urls\":[\"bzz-raw://a36cca6b22fff3db16fc789ff6c60eea71d4b156065d4d0c83a0bc5e91a77a8b\",\"dweb:/ipfs/QmYN3exd5AemxjBrN8XMB1p5LbbE16uC3sjbYjwi8AjcGR\"],\"license\":\"MIT\"},\"node_modules/@openzeppelin/contracts/utils/types/Time.sol\":{\"keccak256\":\"0xc7755af115020049e4140f224f9ee88d7e1799ffb0646f37bf0df24bf6213f58\",\"urls\":[\"bzz-raw://7f09bf94d5274334ec021f61a04659db303f31e60460e14b709c9bf187740111\",\"dweb:/ipfs/QmNvgomZYUwFAt4cZbPWAiTeSZQreGehY9BK5xyVJsUttb\"],\"license\":\"MIT\"},\"src/JBProjects.sol\":{\"keccak256\":\"0x4080dc08a3dfe2f7fba07a6f4dd3b58b0e08b37c91beda86875af3d7d117f2f2\",\"urls\":[\"bzz-raw://38b3ea6b199888ad4b4c31d4c52f640d67009f7a9c19c1a05321b4dd9d1a5823\",\"dweb:/ipfs/QmP1aro7BsCcZUBeqNCXpG6a3dB5eSmCf25qUC2KeCaFxy\"],\"license\":\"MIT\"},\"src/interfaces/IJBProjects.sol\":{\"keccak256\":\"0x735c2fb8f1fa827f054ee77f7a0ae4b312656217acb75b624d2c8fd9dc40151b\",\"urls\":[\"bzz-raw://ee7fc92299a8633a80693ae63ab494dcd125f1789487a54a39dc0e5696e5996f\",\"dweb:/ipfs/QmX7YJD4pS2XhgQb7p3JbBAXynT7YGPXcZe92BiWWRrsCL\"],\"license\":\"MIT\"},\"src/interfaces/IJBTokenUriResolver.sol\":{\"keccak256\":\"0xfa5cb00dcd6085d1ef912d071fe73c63f9478a2cd0f9d8bddaf659b6af2d0967\",\"urls\":[\"bzz-raw://282e4e7c342d65f77cde0e9a08fcaf20ef5cf379c7a48b639842c0ffd0b2afb8\",\"dweb:/ipfs/QmbnN3PEQeZaXdPLT75V1J79kMg7KqSMru37RHrL3z8Yf2\"],\"license\":\"MIT\"}},\"version\":1}",
			"args": [
				"0x1081B5AA9D9d4862A3dA4d469433FB36Ed80FA2A",
				"0x1081B5AA9D9d4862A3dA4d469433FB36Ed80FA2A"
			],
			"bytecode": "0x6101606040526000600d553480156200001757600080fd5b5060405162003553380380620035538339810160408190526200003a9162000da7565b81604051806040016040528060118152602001704a75696365626f782050726f6a6563747360781b815250604051806040016040528060018152602001603160f81b815250604051806040016040528060118152602001704a75696365626f782050726f6a6563747360781b81525060405180604001604052806008815260200167094aa92868a849eb60c31b8152508160009081620000db919062000e85565b506001620000ea828262000e85565b50620000fc9150839050600662000205565b610120526200010d81600762000205565b61014052815160208084019190912060e052815190820120610100524660a0526200019b60e05161010051604080517f8b73c3c69bb8fe3d512ecc4cf759cc79239f7b179b0ffacaa9a75d522b39400f60208201529081019290925260608201524660808201523060a082015260009060c00160405160208183030381529060405280519060200120905090565b60805250503060c0526001600160a01b038116620001d457604051631e4fbdf760e01b8152600060048201526024015b60405180910390fd5b620001df816200023e565b506001600160a01b03811615620001fd57620001fb8162000290565b505b5050620010d3565b600060208351101562000225576200021d8362000303565b905062000238565b8162000232848262000e85565b5060ff90505b92915050565b600c80546001600160a01b038381166001600160a01b0319831681179093556040519116919082907f8be0079c531659141344cd1fd0a4f28419497f9722a3daafe3b4186f6b6457e090600090a35050565b6000600d60008154620002a39062000f67565b91829055509050620002b6828262000346565b6001600160a01b038216817f365b3162cd780731fc55a794b59494d472bc2af701007f581843a70673814698336040516001600160a01b03909116815260200160405180910390a3919050565b600080829050601f8151111562000331578260405163305a27a960e01b8152600401620001cb919062000fcb565b80516200033e8262000fe0565b179392505050565b620003688282604051806020016040528060008152506200036c60201b60201c565b5050565b6200037883836200038c565b620003876000848484620003f6565b505050565b6001600160a01b038216620003b857604051633250574960e11b815260006004820152602401620001cb565b6000620003c78383836200052d565b90506001600160a01b0381161562000387576040516339e3563760e11b815260006004820152602401620001cb565b6001600160a01b0383163b156200052757604051630a85bd0160e11b81526001600160a01b0384169063150b7a02906200043b90339088908790879060040162001005565b6020604051808303816000875af192505050801562000479575060408051601f3d908101601f19168201909252620004769181019062001044565b60015b620004e7573d808015620004aa576040519150601f19603f3d011682016040523d82523d6000602084013e620004af565b606091505b508051600003620004df57604051633250574960e11b81526001600160a01b0385166004820152602401620001cb565b805181602001fd5b6001600160e01b03198116630a85bd0160e11b146200052557604051633250574960e11b81526001600160a01b0385166004820152602401620001cb565b505b50505050565b6000806200053d85858562000555565b90506200054d8186600162000654565b949350505050565b6000828152600260205260408120546001600160a01b0390811690831615620005855762000585818486620006ec565b6001600160a01b03811615620005c557620005a4600085818062000756565b6001600160a01b038116600090815260036020526040902080546000190190555b6001600160a01b03851615620005f5576001600160a01b0385166000908152600360205260409020805460010190555b60008481526002602052604080822080546001600160a01b0319166001600160a01b0389811691821790925591518793918516917fddf252ad1be2c89b69c2b068fc378daa952ba7f163c4a11628f55a4df523b3ef91a4949350505050565b6001600160a01b038316620006895762000686600b62000b316200088460201b17620006808462000899565b620008d3565b50505b6001600160a01b038216620006b857620006b5600b62000b3d6200091060201b17620006808462000899565b50505b6001600160a01b0383811660009081526009602052604080822054858416835291205462000387929182169116836200091e565b620006f983838362000a85565b62000387576001600160a01b0383166200072a57604051637e27328960e01b815260048101829052602401620001cb565b60405163177e802f60e01b81526001600160a01b038316600482015260248101829052604401620001cb565b80806200076b57506001600160a01b03821615155b15620008545760006200077e8462000b0b565b90506001600160a01b03831615801590620007ab5750826001600160a01b0316816001600160a01b031614155b8015620007de57506001600160a01b0380821660009081526005602090815260408083209387168352929052205460ff16155b15620008095760405163a9fbf51f60e01b81526001600160a01b0384166004820152602401620001cb565b8115620008525783856001600160a01b0316826001600160a01b03167f8c5be1e5ebec7d5bd14f71427d1e84f3dd0314c0f7b2291e5b200ac8c7c3b92560405160405180910390a45b505b5050600090815260046020526040902080546001600160a01b0319166001600160a01b0392909216919091179055565b600062000892828462001070565b9392505050565b60006001600160d01b03821115620008cf576040516306dfcc6560e41b815260d0600482015260248101839052604401620001cb565b5090565b60008062000903620008e462000b46565b620008fa620008f38862000b57565b868860201c565b87919062000ba6565b915091505b935093915050565b60006200089282846200109a565b816001600160a01b0316836001600160a01b031614158015620009415750600081115b1562000387576001600160a01b03831615620009e4576001600160a01b0383166000908152600a60209081526040822082916200098f919062000910901b62000b3d17620006808662000899565b6001600160d01b031691506001600160d01b03169150846001600160a01b0316600080516020620035338339815191528383604051620009d9929190918252602082015260400190565b60405180910390a250505b6001600160a01b0382161562000387576001600160a01b0382166000908152600a602090815260408220829162000a2c919062000884901b62000b3117620006808662000899565b6001600160d01b031691506001600160d01b03169150836001600160a01b031660008051602062003533833981519152838360405162000a76929190918252602082015260400190565b60405180910390a25050505050565b60006001600160a01b038316158015906200054d5750826001600160a01b0316846001600160a01b0316148062000ae157506001600160a01b0380851660009081526005602090815260408083209387168352929052205460ff165b806200054d5750506000908152600460205260409020546001600160a01b03908116911614919050565b6000818152600260205260408120546001600160a01b0316806200023857604051637e27328960e01b815260048101849052602401620001cb565b600062000b5262000bb6565b905090565b8054600090801562000b9d5762000b838362000b75600184620010bd565b600091825260209091200190565b54660100000000000090046001600160d01b031662000892565b60009392505050565b6000806200090385858562000bc3565b600062000b524362000d55565b82546000908190801562000cf657600062000be58762000b75600185620010bd565b60408051808201909152905465ffffffffffff80821680845266010000000000009092046001600160d01b03166020840152919250908716101562000c3d57604051632520601d60e01b815260040160405180910390fd5b805165ffffffffffff80881691160362000c91578462000c648862000b75600186620010bd565b80546001600160d01b039290921666010000000000000265ffffffffffff90921691909117905562000ce5565b6040805180820190915265ffffffffffff80881682526001600160d01b0380881660208085019182528b54600181018d5560008d815291909120945191519092166601000000000000029216919091179101555b602001519250839150620009089050565b50506040805180820190915265ffffffffffff80851682526001600160d01b0380851660208085019182528854600181018a5560008a815291822095519251909316660100000000000002919093161792019190915590508162000908565b600065ffffffffffff821115620008cf576040516306dfcc6560e41b81526030600482015260248101839052604401620001cb565b80516001600160a01b038116811462000da257600080fd5b919050565b6000806040838503121562000dbb57600080fd5b62000dc68362000d8a565b915062000dd66020840162000d8a565b90509250929050565b634e487b7160e01b600052604160045260246000fd5b600181811c9082168062000e0a57607f821691505b60208210810362000e2b57634e487b7160e01b600052602260045260246000fd5b50919050565b601f82111562000387576000816000526020600020601f850160051c8101602086101562000e5c5750805b601f850160051c820191505b8181101562000e7d5782815560010162000e68565b505050505050565b81516001600160401b0381111562000ea15762000ea162000ddf565b62000eb98162000eb2845462000df5565b8462000e31565b602080601f83116001811462000ef1576000841562000ed85750858301515b600019600386901b1c1916600185901b17855562000e7d565b600085815260208120601f198616915b8281101562000f225788860151825594840194600190910190840162000f01565b508582101562000f415787850151600019600388901b60f8161c191681555b5050505050600190811b01905550565b634e487b7160e01b600052601160045260246000fd5b60006001820162000f7c5762000f7c62000f51565b5060010190565b6000815180845260005b8181101562000fab5760208185018101518683018201520162000f8d565b506000602082860101526020601f19601f83011685010191505092915050565b60208152600062000892602083018462000f83565b8051602080830151919081101562000e2b5760001960209190910360031b1b16919050565b6001600160a01b03858116825284166020820152604081018390526080606082018190526000906200103a9083018462000f83565b9695505050505050565b6000602082840312156200105757600080fd5b81516001600160e01b0319811681146200089257600080fd5b6001600160d01b0381811683821601908082111562001093576200109362000f51565b5092915050565b6001600160d01b0382811682821603908082111562001093576200109362000f51565b8181038181111562000238576200023862000f51565b60805160a05160c05160e0516101005161012051610140516124056200112e6000396000610e2001526000610df3015260006117e1015260006117b9015260006117140152600061173e0152600061176801526124056000f3fe608060405234801561001057600080fd5b50600436106101da5760003560e01c80637ecebe0011610104578063a22cb465116100a2578063c87b56dd11610071578063c87b56dd14610422578063e131fc0c14610435578063e985e9c514610448578063f2fde38b1461045b57600080fd5b8063a22cb465146103d6578063b88d4fde146103e9578063c0715888146103fc578063c3cda5201461040f57600080fd5b80638e539e8c116100de5780638e539e8c1461038957806391ddadf41461039c57806395d89b41146103bb5780639ab24eb0146103c357600080fd5b80637ecebe001461033457806384b0196e1461035d5780638da5cb5b1461037857600080fd5b80633a46b1a81161017c5780635c19a95c1161014b5780635c19a95c146102f35780636352211e1461030657806370a0823114610319578063715018a61461032c57600080fd5b80633a46b1a81461029957806342842e0e146102ac5780634bf5d7e9146102bf578063587cde1e146102c757600080fd5b8063081812fc116101b8578063081812fc14610233578063095ea7b31461025e57806323b872dd146102735780632407497e1461028657600080fd5b806301ffc9a7146101df57806306661abd1461020757806306fdde031461021e575b600080fd5b6101f26101ed366004611e1d565b61046e565b60405190151581526020015b60405180910390f35b610210600d5481565b6040519081526020016101fe565b610226610499565b6040516101fe9190611e8a565b610246610241366004611e9d565b61052b565b6040516001600160a01b0390911681526020016101fe565b61027161026c366004611ecb565b610554565b005b610271610281366004611ef7565b610563565b610271610294366004611f38565b6105f3565b6102106102a7366004611ecb565b610650565b6102716102ba366004611ef7565b6106d1565b6102266106f1565b6102466102d5366004611f38565b6001600160a01b039081166000908152600960205260409020541690565b610271610301366004611f38565b610769565b610246610314366004611e9d565b610774565b610210610327366004611f38565b61077f565b6102716107c7565b610210610342366004611f38565b6001600160a01b031660009081526008602052604090205490565b6103656107db565b6040516101fe9796959493929190611f55565b600c546001600160a01b0316610246565b610210610397366004611e9d565b610821565b6103a461088b565b60405165ffffffffffff90911681526020016101fe565b61022661089a565b6102106103d1366004611f38565b6108a9565b6102716103e4366004611fee565b6108d9565b6102716103f736600461209b565b6108e4565b61021061040a366004611f38565b6108fb565b61027161041d36600461214a565b61096a565b610226610430366004611e9d565b610a27565b600e54610246906001600160a01b031681565b6101f26104563660046121ac565b610ac5565b610271610469366004611f38565b610af3565b60006001600160e01b03198216630321f74760e01b1480610493575061049382610b49565b92915050565b6060600080546104a8906121da565b80601f01602080910402602001604051908101604052809291908181526020018280546104d4906121da565b80156105215780601f106104f657610100808354040283529160200191610521565b820191906000526020600020905b81548152906001019060200180831161050457829003601f168201915b5050505050905090565b600061053682610b99565b506000828152600460205260409020546001600160a01b0316610493565b61055f828233610bd2565b5050565b6001600160a01b03821661059257604051633250574960e11b8152600060048201526024015b60405180910390fd5b600061059f838333610bdf565b9050836001600160a01b0316816001600160a01b0316146105ed576040516364283d7b60e01b81526001600160a01b0380861660048301526024820184905282166044820152606401610589565b50505050565b6105fb610c03565b600e80546001600160a01b0383166001600160a01b031990911681179091556040805133815290517fe7784d93cfbfa4408e19577e6cc0436f4dbb51214b70e100905dfce9def88c169181900360200190a250565b60008061065b61088b565b90508065ffffffffffff16831061069657604051637669fc0f60e11b81526004810184905265ffffffffffff82166024820152604401610589565b6106c06106a284610c30565b6001600160a01b0386166000908152600a6020526040902090610c67565b6001600160d01b0316949350505050565b6106ec838383604051806020016040528060008152506108e4565b505050565b60606106fb610d1d565b65ffffffffffff1661070b61088b565b65ffffffffffff1614610731576040516301bfc1c560e61b815260040160405180910390fd5b5060408051808201909152601d81527f6d6f64653d626c6f636b6e756d6265722666726f6d3d64656661756c74000000602082015290565b3361055f8183610d28565b600061049382610b99565b60006001600160a01b0382166107ab576040516322718ad960e21b815260006004820152602401610589565b506001600160a01b031660009081526003602052604090205490565b6107cf610c03565b6107d96000610d9a565b565b6000606080600080600060606107ef610dec565b6107f7610e19565b60408051600080825260208201909252600f60f81b9b939a50919850469750309650945092509050565b60008061082c61088b565b90508065ffffffffffff16831061086757604051637669fc0f60e11b81526004810184905265ffffffffffff82166024820152604401610589565b61087b61087384610c30565b600b90610c67565b6001600160d01b03169392505050565b6000610895610d1d565b905090565b6060600180546104a8906121da565b6001600160a01b0381166000908152600a602052604081206108ca90610e46565b6001600160d01b031692915050565b61055f338383610e7f565b6108ef848484610563565b6105ed84848484610f1e565b6000600d6000815461090c9061222a565b9182905550905061091d8282611047565b6001600160a01b038216817f365b3162cd780731fc55a794b59494d472bc2af701007f581843a70673814698336040516001600160a01b03909116815260200160405180910390a3919050565b8342111561098e57604051632341d78760e11b815260048101859052602401610589565b604080517fe48329057bfd03d55e49b547132e39cffd9c1820ad7b9d4c5307691425d15adf60208201526001600160a01b038816918101919091526060810186905260808101859052600090610a0890610a009060a00160405160208183030381529060405280519060200120611061565b85858561108e565b9050610a1481876110bc565b610a1e8188610d28565b50505050505050565b600e546060906001600160a01b031680610a51575050604080516020810190915260008152919050565b604051636d02a25560e11b8152600481018490526001600160a01b0382169063da0544aa90602401600060405180830381865afa158015610a96573d6000803e3d6000fd5b505050506040513d6000823e601f3d908101601f19168201604052610abe9190810190612243565b9392505050565b6001600160a01b03918216600090815260056020908152604080832093909416825291909152205460ff1690565b610afb610c03565b6001600160a01b038116610b2557604051631e4fbdf760e01b815260006004820152602401610589565b610b2e81610d9a565b50565b6000610abe82846122ba565b6000610abe82846122e1565b60006001600160e01b031982166380ac58cd60e01b1480610b7a57506001600160e01b03198216635b5e139f60e01b145b8061049357506301ffc9a760e01b6001600160e01b0319831614610493565b6000818152600260205260408120546001600160a01b03168061049357604051637e27328960e01b815260048101849052602401610589565b6106ec838383600161110f565b600080610bed858585611215565b9050610bfb8186600161130e565b949350505050565b600c546001600160a01b031633146107d95760405163118cdaa760e01b8152336004820152602401610589565b600065ffffffffffff821115610c63576040516306dfcc6560e41b81526030600482015260248101839052604401610589565b5090565b815460009081816005811115610cc6576000610c8284611389565b610c8c9085612301565b60008881526020902090915081015465ffffffffffff9081169087161015610cb657809150610cc4565b610cc1816001612314565b92505b505b6000610cd487878585611471565b90508015610d0f57610cf987610ceb600184612301565b600091825260209091200190565b54600160301b90046001600160d01b0316610d12565b60005b979650505050505050565b600061089543610c30565b6001600160a01b0382811660008181526009602052604080822080548686166001600160a01b0319821681179092559151919094169392849290917f3134e8a2e6d97e929a7e54011ea5485d7d196dd5f0ba4d4ef95803e8e3fc257f9190a46106ec8183610d95866114d3565b6114de565b600c80546001600160a01b038381166001600160a01b0319831681179093556040519116919082907f8be0079c531659141344cd1fd0a4f28419497f9722a3daafe3b4186f6b6457e090600090a35050565b60606108957f00000000000000000000000000000000000000000000000000000000000000006006611645565b60606108957f00000000000000000000000000000000000000000000000000000000000000006007611645565b80546000908015610e7657610e6083610ceb600184612301565b54600160301b90046001600160d01b0316610abe565b60009392505050565b6001600160a01b038216610eb157604051630b61174360e31b81526001600160a01b0383166004820152602401610589565b6001600160a01b03838116600081815260056020908152604080832094871680845294825291829020805460ff191686151590811790915591519182527f17307eab39ab6107e8899845ad3d59bd9653f200f220920489ca2b5937696c31910160405180910390a3505050565b6001600160a01b0383163b156105ed57604051630a85bd0160e11b81526001600160a01b0384169063150b7a0290610f60903390889087908790600401612327565b6020604051808303816000875af1925050508015610f9b575060408051601f3d908101601f19168201909252610f9891810190612364565b60015b611004573d808015610fc9576040519150601f19603f3d011682016040523d82523d6000602084013e610fce565b606091505b508051600003610ffc57604051633250574960e11b81526001600160a01b0385166004820152602401610589565b805181602001fd5b6001600160e01b03198116630a85bd0160e11b1461104057604051633250574960e11b81526001600160a01b0385166004820152602401610589565b5050505050565b61055f8282604051806020016040528060008152506116f0565b600061049361106e611707565b8360405161190160f01b8152600281019290925260228201526042902090565b6000806000806110a088888888611832565b9250925092506110b08282611901565b50909695505050505050565b6001600160a01b03821660009081526008602052604090208054600181019091558181146106ec576040516301d4b62360e61b81526001600160a01b038416600482015260248101829052604401610589565b808061112357506001600160a01b03821615155b156111e557600061113384610b99565b90506001600160a01b0383161580159061115f5750826001600160a01b0316816001600160a01b031614155b801561117257506111708184610ac5565b155b1561119b5760405163a9fbf51f60e01b81526001600160a01b0384166004820152602401610589565b81156111e35783856001600160a01b0316826001600160a01b03167f8c5be1e5ebec7d5bd14f71427d1e84f3dd0314c0f7b2291e5b200ac8c7c3b92560405160405180910390a45b505b5050600090815260046020526040902080546001600160a01b0319166001600160a01b0392909216919091179055565b6000828152600260205260408120546001600160a01b0390811690831615611242576112428184866119ba565b6001600160a01b038116156112805761125f60008560008061110f565b6001600160a01b038116600090815260036020526040902080546000190190555b6001600160a01b038516156112af576001600160a01b0385166000908152600360205260409020805460010190555b60008481526002602052604080822080546001600160a01b0319166001600160a01b0389811691821790925591518793918516917fddf252ad1be2c89b69c2b068fc378daa952ba7f163c4a11628f55a4df523b3ef91a4949350505050565b6001600160a01b03831661133557611332600b610b3161132d84611a1e565b611a52565b50505b6001600160a01b03821661135757611354600b610b3d61132d84611a1e565b50505b6001600160a01b038381166000908152600960205260408082205485841683529120546106ec929182169116836114de565b60008160000361139b57506000919050565b600060016113a884611a8b565b901c6001901b905060018184816113c1576113c1612381565b048201901c905060018184816113d9576113d9612381565b048201901c905060018184816113f1576113f1612381565b048201901c9050600181848161140957611409612381565b048201901c9050600181848161142157611421612381565b048201901c9050600181848161143957611439612381565b048201901c9050600181848161145157611451612381565b048201901c9050610abe8182858161146b5761146b612381565b04611b1f565b60005b818310156114cb5760006114888484611b35565b60008781526020902090915065ffffffffffff86169082015465ffffffffffff1611156114b7578092506114c5565b6114c2816001612314565b93505b50611474565b509392505050565b60006104938261077f565b816001600160a01b0316836001600160a01b0316141580156115005750600081115b156106ec576001600160a01b038316156115a3576001600160a01b0383166000908152600a60205260408120819061153e90610b3d61132d86611a1e565b6001600160d01b031691506001600160d01b03169150846001600160a01b03167fdec2bacdd2f05b59de34da9b523dff8be42e5e38e818c82fdb0bae774387a7248383604051611598929190918252602082015260400190565b60405180910390a250505b6001600160a01b038216156106ec576001600160a01b0382166000908152600a6020526040812081906115dc90610b3161132d86611a1e565b6001600160d01b031691506001600160d01b03169150836001600160a01b03167fdec2bacdd2f05b59de34da9b523dff8be42e5e38e818c82fdb0bae774387a7248383604051611636929190918252602082015260400190565b60405180910390a25050505050565b606060ff831461165f5761165883611b50565b9050610493565b81805461166b906121da565b80601f0160208091040260200160405190810160405280929190818152602001828054611697906121da565b80156116e45780601f106116b9576101008083540402835291602001916116e4565b820191906000526020600020905b8154815290600101906020018083116116c757829003601f168201915b50505050509050610493565b6116fa8383611b8f565b6106ec6000848484610f1e565b6000306001600160a01b037f00000000000000000000000000000000000000000000000000000000000000001614801561176057507f000000000000000000000000000000000000000000000000000000000000000046145b1561178a57507f000000000000000000000000000000000000000000000000000000000000000090565b610895604080517f8b73c3c69bb8fe3d512ecc4cf759cc79239f7b179b0ffacaa9a75d522b39400f60208201527f0000000000000000000000000000000000000000000000000000000000000000918101919091527f000000000000000000000000000000000000000000000000000000000000000060608201524660808201523060a082015260009060c00160405160208183030381529060405280519060200120905090565b600080807f7fffffffffffffffffffffffffffffff5d576e7357a4501ddfe92f46681b20a084111561186d57506000915060039050826118f7565b604080516000808252602082018084528a905260ff891692820192909252606081018790526080810186905260019060a0016020604051602081039080840390855afa1580156118c1573d6000803e3d6000fd5b5050604051601f1901519150506001600160a01b0381166118ed575060009250600191508290506118f7565b9250600091508190505b9450945094915050565b600082600381111561191557611915612397565b0361191e575050565b600182600381111561193257611932612397565b036119505760405163f645eedf60e01b815260040160405180910390fd5b600282600381111561196457611964612397565b036119855760405163fce698f760e01b815260048101829052602401610589565b600382600381111561199957611999612397565b0361055f576040516335e2f38360e21b815260048101829052602401610589565b6119c5838383611bf4565b6106ec576001600160a01b0383166119f357604051637e27328960e01b815260048101829052602401610589565b60405163177e802f60e01b81526001600160a01b038316600482015260248101829052604401610589565b60006001600160d01b03821115610c63576040516306dfcc6560e41b815260d0600482015260248101839052604401610589565b600080611a7e611a6061088b565b611a76611a6c88610e46565b868863ffffffff16565b879190611c57565b915091505b935093915050565b600080608083901c15611aa057608092831c92015b604083901c15611ab257604092831c92015b602083901c15611ac457602092831c92015b601083901c15611ad657601092831c92015b600883901c15611ae857600892831c92015b600483901c15611afa57600492831c92015b600283901c15611b0c57600292831c92015b600183901c156104935760010192915050565b6000818310611b2e5781610abe565b5090919050565b6000611b4460028484186123ad565b610abe90848416612314565b60606000611b5d83611c65565b604080516020808252818301909252919250600091906020820181803683375050509182525060208101929092525090565b6001600160a01b038216611bb957604051633250574960e11b815260006004820152602401610589565b6000611bc783836000610bdf565b90506001600160a01b038116156106ec576040516339e3563760e11b815260006004820152602401610589565b60006001600160a01b03831615801590610bfb5750826001600160a01b0316846001600160a01b03161480611c2e5750611c2e8484610ac5565b80610bfb5750506000908152600460205260409020546001600160a01b03908116911614919050565b600080611a7e858585611c8d565b600060ff8216601f81111561049357604051632cd44ac360e21b815260040160405180910390fd5b825460009081908015611dac576000611cab87610ceb600185612301565b60408051808201909152905465ffffffffffff808216808452600160301b9092046001600160d01b031660208401529192509087161015611cff57604051632520601d60e01b815260040160405180910390fd5b805165ffffffffffff808816911603611d4b5784611d2288610ceb600186612301565b80546001600160d01b0392909216600160301b0265ffffffffffff909216919091179055611d9c565b6040805180820190915265ffffffffffff80881682526001600160d01b0380881660208085019182528b54600181018d5560008d81529190912094519151909216600160301b029216919091179101555b602001519250839150611a839050565b50506040805180820190915265ffffffffffff80851682526001600160d01b0380851660208085019182528854600181018a5560008a815291822095519251909316600160301b029190931617920191909155905081611a83565b6001600160e01b031981168114610b2e57600080fd5b600060208284031215611e2f57600080fd5b8135610abe81611e07565b60005b83811015611e55578181015183820152602001611e3d565b50506000910152565b60008151808452611e76816020860160208601611e3a565b601f01601f19169290920160200192915050565b602081526000610abe6020830184611e5e565b600060208284031215611eaf57600080fd5b5035919050565b6001600160a01b0381168114610b2e57600080fd5b60008060408385031215611ede57600080fd5b8235611ee981611eb6565b946020939093013593505050565b600080600060608486031215611f0c57600080fd5b8335611f1781611eb6565b92506020840135611f2781611eb6565b929592945050506040919091013590565b600060208284031215611f4a57600080fd5b8135610abe81611eb6565b60ff60f81b881681526000602060e06020840152611f7660e084018a611e5e565b8381036040850152611f88818a611e5e565b606085018990526001600160a01b038816608086015260a0850187905284810360c08601528551808252602080880193509091019060005b81811015611fdc57835183529284019291840191600101611fc0565b50909c9b505050505050505050505050565b6000806040838503121561200157600080fd5b823561200c81611eb6565b91506020830135801515811461202157600080fd5b809150509250929050565b634e487b7160e01b600052604160045260246000fd5b604051601f8201601f1916810167ffffffffffffffff8111828210171561206b5761206b61202c565b604052919050565b600067ffffffffffffffff82111561208d5761208d61202c565b50601f01601f191660200190565b600080600080608085870312156120b157600080fd5b84356120bc81611eb6565b935060208501356120cc81611eb6565b925060408501359150606085013567ffffffffffffffff8111156120ef57600080fd5b8501601f8101871361210057600080fd5b803561211361210e82612073565b612042565b81815288602083850101111561212857600080fd5b8160208401602083013760006020838301015280935050505092959194509250565b60008060008060008060c0878903121561216357600080fd5b863561216e81611eb6565b95506020870135945060408701359350606087013560ff8116811461219257600080fd5b9598949750929560808101359460a0909101359350915050565b600080604083850312156121bf57600080fd5b82356121ca81611eb6565b9150602083013561202181611eb6565b600181811c908216806121ee57607f821691505b60208210810361220e57634e487b7160e01b600052602260045260246000fd5b50919050565b634e487b7160e01b600052601160045260246000fd5b60006001820161223c5761223c612214565b5060010190565b60006020828403121561225557600080fd5b815167ffffffffffffffff81111561226c57600080fd5b8201601f8101841361227d57600080fd5b805161228b61210e82612073565b8181528560208385010111156122a057600080fd5b6122b1826020830160208601611e3a565b95945050505050565b6001600160d01b038181168382160190808211156122da576122da612214565b5092915050565b6001600160d01b038281168282160390808211156122da576122da612214565b8181038181111561049357610493612214565b8082018082111561049357610493612214565b6001600160a01b038581168252841660208201526040810183905260806060820181905260009061235a90830184611e5e565b9695505050505050565b60006020828403121561237657600080fd5b8151610abe81611e07565b634e487b7160e01b600052601260045260246000fd5b634e487b7160e01b600052602160045260246000fd5b6000826123ca57634e487b7160e01b600052601260045260246000fd5b50049056fea26469706673582212209a253d5ab3210f62b77015e23e092667ce9875b2943a85b587dbea7c1bb4595a64736f6c63430008170033dec2bacdd2f05b59de34da9b523dff8be42e5e38e818c82fdb0bae774387a724",
			"deployedBytecode": "0x608060405234801561001057600080fd5b50600436106101da5760003560e01c80637ecebe0011610104578063a22cb465116100a2578063c87b56dd11610071578063c87b56dd14610422578063e131fc0c14610435578063e985e9c514610448578063f2fde38b1461045b57600080fd5b8063a22cb465146103d6578063b88d4fde146103e9578063c0715888146103fc578063c3cda5201461040f57600080fd5b80638e539e8c116100de5780638e539e8c1461038957806391ddadf41461039c57806395d89b41146103bb5780639ab24eb0146103c357600080fd5b80637ecebe001461033457806384b0196e1461035d5780638da5cb5b1461037857600080fd5b80633a46b1a81161017c5780635c19a95c1161014b5780635c19a95c146102f35780636352211e1461030657806370a0823114610319578063715018a61461032c57600080fd5b80633a46b1a81461029957806342842e0e146102ac5780634bf5d7e9146102bf578063587cde1e146102c757600080fd5b8063081812fc116101b8578063081812fc14610233578063095ea7b31461025e57806323b872dd146102735780632407497e1461028657600080fd5b806301ffc9a7146101df57806306661abd1461020757806306fdde031461021e575b600080fd5b6101f26101ed366004611e1d565b61046e565b60405190151581526020015b60405180910390f35b610210600d5481565b6040519081526020016101fe565b610226610499565b6040516101fe9190611e8a565b610246610241366004611e9d565b61052b565b6040516001600160a01b0390911681526020016101fe565b61027161026c366004611ecb565b610554565b005b610271610281366004611ef7565b610563565b610271610294366004611f38565b6105f3565b6102106102a7366004611ecb565b610650565b6102716102ba366004611ef7565b6106d1565b6102266106f1565b6102466102d5366004611f38565b6001600160a01b039081166000908152600960205260409020541690565b610271610301366004611f38565b610769565b610246610314366004611e9d565b610774565b610210610327366004611f38565b61077f565b6102716107c7565b610210610342366004611f38565b6001600160a01b031660009081526008602052604090205490565b6103656107db565b6040516101fe9796959493929190611f55565b600c546001600160a01b0316610246565b610210610397366004611e9d565b610821565b6103a461088b565b60405165ffffffffffff90911681526020016101fe565b61022661089a565b6102106103d1366004611f38565b6108a9565b6102716103e4366004611fee565b6108d9565b6102716103f736600461209b565b6108e4565b61021061040a366004611f38565b6108fb565b61027161041d36600461214a565b61096a565b610226610430366004611e9d565b610a27565b600e54610246906001600160a01b031681565b6101f26104563660046121ac565b610ac5565b610271610469366004611f38565b610af3565b60006001600160e01b03198216630321f74760e01b1480610493575061049382610b49565b92915050565b6060600080546104a8906121da565b80601f01602080910402602001604051908101604052809291908181526020018280546104d4906121da565b80156105215780601f106104f657610100808354040283529160200191610521565b820191906000526020600020905b81548152906001019060200180831161050457829003601f168201915b5050505050905090565b600061053682610b99565b506000828152600460205260409020546001600160a01b0316610493565b61055f828233610bd2565b5050565b6001600160a01b03821661059257604051633250574960e11b8152600060048201526024015b60405180910390fd5b600061059f838333610bdf565b9050836001600160a01b0316816001600160a01b0316146105ed576040516364283d7b60e01b81526001600160a01b0380861660048301526024820184905282166044820152606401610589565b50505050565b6105fb610c03565b600e80546001600160a01b0383166001600160a01b031990911681179091556040805133815290517fe7784d93cfbfa4408e19577e6cc0436f4dbb51214b70e100905dfce9def88c169181900360200190a250565b60008061065b61088b565b90508065ffffffffffff16831061069657604051637669fc0f60e11b81526004810184905265ffffffffffff82166024820152604401610589565b6106c06106a284610c30565b6001600160a01b0386166000908152600a6020526040902090610c67565b6001600160d01b0316949350505050565b6106ec838383604051806020016040528060008152506108e4565b505050565b60606106fb610d1d565b65ffffffffffff1661070b61088b565b65ffffffffffff1614610731576040516301bfc1c560e61b815260040160405180910390fd5b5060408051808201909152601d81527f6d6f64653d626c6f636b6e756d6265722666726f6d3d64656661756c74000000602082015290565b3361055f8183610d28565b600061049382610b99565b60006001600160a01b0382166107ab576040516322718ad960e21b815260006004820152602401610589565b506001600160a01b031660009081526003602052604090205490565b6107cf610c03565b6107d96000610d9a565b565b6000606080600080600060606107ef610dec565b6107f7610e19565b60408051600080825260208201909252600f60f81b9b939a50919850469750309650945092509050565b60008061082c61088b565b90508065ffffffffffff16831061086757604051637669fc0f60e11b81526004810184905265ffffffffffff82166024820152604401610589565b61087b61087384610c30565b600b90610c67565b6001600160d01b03169392505050565b6000610895610d1d565b905090565b6060600180546104a8906121da565b6001600160a01b0381166000908152600a602052604081206108ca90610e46565b6001600160d01b031692915050565b61055f338383610e7f565b6108ef848484610563565b6105ed84848484610f1e565b6000600d6000815461090c9061222a565b9182905550905061091d8282611047565b6001600160a01b038216817f365b3162cd780731fc55a794b59494d472bc2af701007f581843a70673814698336040516001600160a01b03909116815260200160405180910390a3919050565b8342111561098e57604051632341d78760e11b815260048101859052602401610589565b604080517fe48329057bfd03d55e49b547132e39cffd9c1820ad7b9d4c5307691425d15adf60208201526001600160a01b038816918101919091526060810186905260808101859052600090610a0890610a009060a00160405160208183030381529060405280519060200120611061565b85858561108e565b9050610a1481876110bc565b610a1e8188610d28565b50505050505050565b600e546060906001600160a01b031680610a51575050604080516020810190915260008152919050565b604051636d02a25560e11b8152600481018490526001600160a01b0382169063da0544aa90602401600060405180830381865afa158015610a96573d6000803e3d6000fd5b505050506040513d6000823e601f3d908101601f19168201604052610abe9190810190612243565b9392505050565b6001600160a01b03918216600090815260056020908152604080832093909416825291909152205460ff1690565b610afb610c03565b6001600160a01b038116610b2557604051631e4fbdf760e01b815260006004820152602401610589565b610b2e81610d9a565b50565b6000610abe82846122ba565b6000610abe82846122e1565b60006001600160e01b031982166380ac58cd60e01b1480610b7a57506001600160e01b03198216635b5e139f60e01b145b8061049357506301ffc9a760e01b6001600160e01b0319831614610493565b6000818152600260205260408120546001600160a01b03168061049357604051637e27328960e01b815260048101849052602401610589565b6106ec838383600161110f565b600080610bed858585611215565b9050610bfb8186600161130e565b949350505050565b600c546001600160a01b031633146107d95760405163118cdaa760e01b8152336004820152602401610589565b600065ffffffffffff821115610c63576040516306dfcc6560e41b81526030600482015260248101839052604401610589565b5090565b815460009081816005811115610cc6576000610c8284611389565b610c8c9085612301565b60008881526020902090915081015465ffffffffffff9081169087161015610cb657809150610cc4565b610cc1816001612314565b92505b505b6000610cd487878585611471565b90508015610d0f57610cf987610ceb600184612301565b600091825260209091200190565b54600160301b90046001600160d01b0316610d12565b60005b979650505050505050565b600061089543610c30565b6001600160a01b0382811660008181526009602052604080822080548686166001600160a01b0319821681179092559151919094169392849290917f3134e8a2e6d97e929a7e54011ea5485d7d196dd5f0ba4d4ef95803e8e3fc257f9190a46106ec8183610d95866114d3565b6114de565b600c80546001600160a01b038381166001600160a01b0319831681179093556040519116919082907f8be0079c531659141344cd1fd0a4f28419497f9722a3daafe3b4186f6b6457e090600090a35050565b60606108957f4a75696365626f782050726f6a656374730000000000000000000000000000116006611645565b60606108957f31000000000000000000000000000000000000000000000000000000000000016007611645565b80546000908015610e7657610e6083610ceb600184612301565b54600160301b90046001600160d01b0316610abe565b60009392505050565b6001600160a01b038216610eb157604051630b61174360e31b81526001600160a01b0383166004820152602401610589565b6001600160a01b03838116600081815260056020908152604080832094871680845294825291829020805460ff191686151590811790915591519182527f17307eab39ab6107e8899845ad3d59bd9653f200f220920489ca2b5937696c31910160405180910390a3505050565b6001600160a01b0383163b156105ed57604051630a85bd0160e11b81526001600160a01b0384169063150b7a0290610f60903390889087908790600401612327565b6020604051808303816000875af1925050508015610f9b575060408051601f3d908101601f19168201909252610f9891810190612364565b60015b611004573d808015610fc9576040519150601f19603f3d011682016040523d82523d6000602084013e610fce565b606091505b508051600003610ffc57604051633250574960e11b81526001600160a01b0385166004820152602401610589565b805181602001fd5b6001600160e01b03198116630a85bd0160e11b1461104057604051633250574960e11b81526001600160a01b0385166004820152602401610589565b5050505050565b61055f8282604051806020016040528060008152506116f0565b600061049361106e611707565b8360405161190160f01b8152600281019290925260228201526042902090565b6000806000806110a088888888611832565b9250925092506110b08282611901565b50909695505050505050565b6001600160a01b03821660009081526008602052604090208054600181019091558181146106ec576040516301d4b62360e61b81526001600160a01b038416600482015260248101829052604401610589565b808061112357506001600160a01b03821615155b156111e557600061113384610b99565b90506001600160a01b0383161580159061115f5750826001600160a01b0316816001600160a01b031614155b801561117257506111708184610ac5565b155b1561119b5760405163a9fbf51f60e01b81526001600160a01b0384166004820152602401610589565b81156111e35783856001600160a01b0316826001600160a01b03167f8c5be1e5ebec7d5bd14f71427d1e84f3dd0314c0f7b2291e5b200ac8c7c3b92560405160405180910390a45b505b5050600090815260046020526040902080546001600160a01b0319166001600160a01b0392909216919091179055565b6000828152600260205260408120546001600160a01b0390811690831615611242576112428184866119ba565b6001600160a01b038116156112805761125f60008560008061110f565b6001600160a01b038116600090815260036020526040902080546000190190555b6001600160a01b038516156112af576001600160a01b0385166000908152600360205260409020805460010190555b60008481526002602052604080822080546001600160a01b0319166001600160a01b0389811691821790925591518793918516917fddf252ad1be2c89b69c2b068fc378daa952ba7f163c4a11628f55a4df523b3ef91a4949350505050565b6001600160a01b03831661133557611332600b610b3161132d84611a1e565b611a52565b50505b6001600160a01b03821661135757611354600b610b3d61132d84611a1e565b50505b6001600160a01b038381166000908152600960205260408082205485841683529120546106ec929182169116836114de565b60008160000361139b57506000919050565b600060016113a884611a8b565b901c6001901b905060018184816113c1576113c1612381565b048201901c905060018184816113d9576113d9612381565b048201901c905060018184816113f1576113f1612381565b048201901c9050600181848161140957611409612381565b048201901c9050600181848161142157611421612381565b048201901c9050600181848161143957611439612381565b048201901c9050600181848161145157611451612381565b048201901c9050610abe8182858161146b5761146b612381565b04611b1f565b60005b818310156114cb5760006114888484611b35565b60008781526020902090915065ffffffffffff86169082015465ffffffffffff1611156114b7578092506114c5565b6114c2816001612314565b93505b50611474565b509392505050565b60006104938261077f565b816001600160a01b0316836001600160a01b0316141580156115005750600081115b156106ec576001600160a01b038316156115a3576001600160a01b0383166000908152600a60205260408120819061153e90610b3d61132d86611a1e565b6001600160d01b031691506001600160d01b03169150846001600160a01b03167fdec2bacdd2f05b59de34da9b523dff8be42e5e38e818c82fdb0bae774387a7248383604051611598929190918252602082015260400190565b60405180910390a250505b6001600160a01b038216156106ec576001600160a01b0382166000908152600a6020526040812081906115dc90610b3161132d86611a1e565b6001600160d01b031691506001600160d01b03169150836001600160a01b03167fdec2bacdd2f05b59de34da9b523dff8be42e5e38e818c82fdb0bae774387a7248383604051611636929190918252602082015260400190565b60405180910390a25050505050565b606060ff831461165f5761165883611b50565b9050610493565b81805461166b906121da565b80601f0160208091040260200160405190810160405280929190818152602001828054611697906121da565b80156116e45780601f106116b9576101008083540402835291602001916116e4565b820191906000526020600020905b8154815290600101906020018083116116c757829003601f168201915b50505050509050610493565b6116fa8383611b8f565b6106ec6000848484610f1e565b6000306001600160a01b037f000000000000000000000000e9a6f248f9f8854e9f161c84c34f2589ec362be91614801561176057507f0000000000000000000000000000000000000000000000000000000000aa36a746145b1561178a57507f95eebedda995fd7cf3408133855642b3f6617513430be05c7ecf4d8849f675c090565b610895604080517f8b73c3c69bb8fe3d512ecc4cf759cc79239f7b179b0ffacaa9a75d522b39400f60208201527f2e5c5c1c4affeaeda2d3db263faddbd323c18ac7d44a6ca994665583d3b15dad918101919091527fc89efdaa54c0f20c7adf612882df0950f5a951637e0307cdcb4c672f298b8bc660608201524660808201523060a082015260009060c00160405160208183030381529060405280519060200120905090565b600080807f7fffffffffffffffffffffffffffffff5d576e7357a4501ddfe92f46681b20a084111561186d57506000915060039050826118f7565b604080516000808252602082018084528a905260ff891692820192909252606081018790526080810186905260019060a0016020604051602081039080840390855afa1580156118c1573d6000803e3d6000fd5b5050604051601f1901519150506001600160a01b0381166118ed575060009250600191508290506118f7565b9250600091508190505b9450945094915050565b600082600381111561191557611915612397565b0361191e575050565b600182600381111561193257611932612397565b036119505760405163f645eedf60e01b815260040160405180910390fd5b600282600381111561196457611964612397565b036119855760405163fce698f760e01b815260048101829052602401610589565b600382600381111561199957611999612397565b0361055f576040516335e2f38360e21b815260048101829052602401610589565b6119c5838383611bf4565b6106ec576001600160a01b0383166119f357604051637e27328960e01b815260048101829052602401610589565b60405163177e802f60e01b81526001600160a01b038316600482015260248101829052604401610589565b60006001600160d01b03821115610c63576040516306dfcc6560e41b815260d0600482015260248101839052604401610589565b600080611a7e611a6061088b565b611a76611a6c88610e46565b868863ffffffff16565b879190611c57565b915091505b935093915050565b600080608083901c15611aa057608092831c92015b604083901c15611ab257604092831c92015b602083901c15611ac457602092831c92015b601083901c15611ad657601092831c92015b600883901c15611ae857600892831c92015b600483901c15611afa57600492831c92015b600283901c15611b0c57600292831c92015b600183901c156104935760010192915050565b6000818310611b2e5781610abe565b5090919050565b6000611b4460028484186123ad565b610abe90848416612314565b60606000611b5d83611c65565b604080516020808252818301909252919250600091906020820181803683375050509182525060208101929092525090565b6001600160a01b038216611bb957604051633250574960e11b815260006004820152602401610589565b6000611bc783836000610bdf565b90506001600160a01b038116156106ec576040516339e3563760e11b815260006004820152602401610589565b60006001600160a01b03831615801590610bfb5750826001600160a01b0316846001600160a01b03161480611c2e5750611c2e8484610ac5565b80610bfb5750506000908152600460205260409020546001600160a01b03908116911614919050565b600080611a7e858585611c8d565b600060ff8216601f81111561049357604051632cd44ac360e21b815260040160405180910390fd5b825460009081908015611dac576000611cab87610ceb600185612301565b60408051808201909152905465ffffffffffff808216808452600160301b9092046001600160d01b031660208401529192509087161015611cff57604051632520601d60e01b815260040160405180910390fd5b805165ffffffffffff808816911603611d4b5784611d2288610ceb600186612301565b80546001600160d01b0392909216600160301b0265ffffffffffff909216919091179055611d9c565b6040805180820190915265ffffffffffff80881682526001600160d01b0380881660208085019182528b54600181018d5560008d81529190912094519151909216600160301b029216919091179101555b602001519250839150611a839050565b50506040805180820190915265ffffffffffff80851682526001600160d01b0380851660208085019182528854600181018a5560008a815291822095519251909316600160301b029190931617920191909155905081611a83565b6001600160e01b031981168114610b2e57600080fd5b600060208284031215611e2f57600080fd5b8135610abe81611e07565b60005b83811015611e55578181015183820152602001611e3d565b50506000910152565b60008151808452611e76816020860160208601611e3a565b601f01601f19169290920160200192915050565b602081526000610abe6020830184611e5e565b600060208284031215611eaf57600080fd5b5035919050565b6001600160a01b0381168114610b2e57600080fd5b60008060408385031215611ede57600080fd5b8235611ee981611eb6565b946020939093013593505050565b600080600060608486031215611f0c57600080fd5b8335611f1781611eb6565b92506020840135611f2781611eb6565b929592945050506040919091013590565b600060208284031215611f4a57600080fd5b8135610abe81611eb6565b60ff60f81b881681526000602060e06020840152611f7660e084018a611e5e565b8381036040850152611f88818a611e5e565b606085018990526001600160a01b038816608086015260a0850187905284810360c08601528551808252602080880193509091019060005b81811015611fdc57835183529284019291840191600101611fc0565b50909c9b505050505050505050505050565b6000806040838503121561200157600080fd5b823561200c81611eb6565b91506020830135801515811461202157600080fd5b809150509250929050565b634e487b7160e01b600052604160045260246000fd5b604051601f8201601f1916810167ffffffffffffffff8111828210171561206b5761206b61202c565b604052919050565b600067ffffffffffffffff82111561208d5761208d61202c565b50601f01601f191660200190565b600080600080608085870312156120b157600080fd5b84356120bc81611eb6565b935060208501356120cc81611eb6565b925060408501359150606085013567ffffffffffffffff8111156120ef57600080fd5b8501601f8101871361210057600080fd5b803561211361210e82612073565b612042565b81815288602083850101111561212857600080fd5b8160208401602083013760006020838301015280935050505092959194509250565b60008060008060008060c0878903121561216357600080fd5b863561216e81611eb6565b95506020870135945060408701359350606087013560ff8116811461219257600080fd5b9598949750929560808101359460a0909101359350915050565b600080604083850312156121bf57600080fd5b82356121ca81611eb6565b9150602083013561202181611eb6565b600181811c908216806121ee57607f821691505b60208210810361220e57634e487b7160e01b600052602260045260246000fd5b50919050565b634e487b7160e01b600052601160045260246000fd5b60006001820161223c5761223c612214565b5060010190565b60006020828403121561225557600080fd5b815167ffffffffffffffff81111561226c57600080fd5b8201601f8101841361227d57600080fd5b805161228b61210e82612073565b8181528560208385010111156122a057600080fd5b6122b1826020830160208601611e3a565b95945050505050565b6001600160d01b038181168382160190808211156122da576122da612214565b5092915050565b6001600160d01b038281168282160390808211156122da576122da612214565b8181038181111561049357610493612214565b8082018082111561049357610493612214565b6001600160a01b038581168252841660208201526040810183905260806060820181905260009061235a90830184611e5e565b9695505050505050565b60006020828403121561237657600080fd5b8151610abe81611e07565b634e487b7160e01b600052601260045260246000fd5b634e487b7160e01b600052602160045260246000fd5b6000826123ca57634e487b7160e01b600052601260045260246000fd5b50049056fea26469706673582212209a253d5ab3210f62b77015e23e092667ce9875b2943a85b587dbea7c1bb4595a64736f6c63430008170033",
			"devdoc": {
				"kind": "dev",
				"methods": {
					"CLOCK_MODE()": {
						"details": "Machine-readable description of the clock as specified in EIP-6372."
					},
					"approve(address,uint256)": {
						"details": "See {IERC721-approve}."
					},
					"balanceOf(address)": {
						"details": "See {IERC721-balanceOf}."
					},
					"clock()": {
						"details": "Clock used for flagging checkpoints. Can be overridden to implement timestamp based checkpoints (and voting), in which case {CLOCK_MODE} should be overridden as well to match."
					},
					"constructor": {
						"params": {
							"feeProjectOwner": "The address that will receive the fee-project. If `address(0)` the fee-project will not be minted.",
							"owner": "The owner of the contract who can set metadata."
						}
					},
					"createFor(address)": {
						"details": "Anyone can create a project on an owner's behalf.",
						"params": {
							"owner": "The address that will be the owner of the project."
						},
						"returns": {
							"projectId": "The token ID of the newly created project."
						}
					},
					"delegate(address)": {
						"details": "Delegates votes from the sender to `delegatee`."
					},
					"delegateBySig(address,uint256,uint256,uint8,bytes32,bytes32)": {
						"details": "Delegates votes from signer to `delegatee`."
					},
					"delegates(address)": {
						"details": "Returns the delegate that `account` has chosen."
					},
					"eip712Domain()": {
						"details": "See {IERC-5267}."
					},
					"getApproved(uint256)": {
						"details": "See {IERC721-getApproved}."
					},
					"getPastTotalSupply(uint256)": {
						"details": "Returns the total supply of votes available at a specific moment in the past. If the `clock()` is configured to use block numbers, this will return the value at the end of the corresponding block. NOTE: This value is the sum of all available votes, which is not necessarily the sum of all delegated votes. Votes that have not been delegated are still part of total supply, even though they would not participate in a vote. Requirements: - `timepoint` must be in the past. If operating using block numbers, the block must be already mined."
					},
					"getPastVotes(address,uint256)": {
						"details": "Returns the amount of votes that `account` had at a specific moment in the past. If the `clock()` is configured to use block numbers, this will return the value at the end of the corresponding block. Requirements: - `timepoint` must be in the past. If operating using block numbers, the block must be already mined."
					},
					"getVotes(address)": {
						"details": "Returns the current amount of votes that `account` has."
					},
					"isApprovedForAll(address,address)": {
						"details": "See {IERC721-isApprovedForAll}."
					},
					"name()": {
						"details": "See {IERC721Metadata-name}."
					},
					"nonces(address)": {
						"details": "Returns the next unused nonce for an address."
					},
					"owner()": {
						"details": "Returns the address of the current owner."
					},
					"ownerOf(uint256)": {
						"details": "See {IERC721-ownerOf}."
					},
					"renounceOwnership()": {
						"details": "Leaves the contract without owner. It will not be possible to call `onlyOwner` functions. Can only be called by the current owner. NOTE: Renouncing ownership will leave the contract without an owner, thereby disabling any functionality that is only available to the owner."
					},
					"safeTransferFrom(address,address,uint256)": {
						"details": "See {IERC721-safeTransferFrom}."
					},
					"safeTransferFrom(address,address,uint256,bytes)": {
						"details": "See {IERC721-safeTransferFrom}."
					},
					"setApprovalForAll(address,bool)": {
						"details": "See {IERC721-setApprovalForAll}."
					},
					"setTokenUriResolver(address)": {
						"params": {
							"newResolver": "The address of the new resolver."
						}
					},
					"supportsInterface(bytes4)": {
						"details": "See {IERC165-supportsInterface}.",
						"params": {
							"interfaceId": "The ID of the interface to check for adherence to."
						},
						"returns": {
							"_0": "A flag indicating if the provided interface ID is supported."
						}
					},
					"symbol()": {
						"details": "See {IERC721Metadata-symbol}."
					},
					"tokenURI(uint256)": {
						"params": {
							"projectId": "The ID of the project to get a URI of."
						},
						"returns": {
							"_0": "The token URI to use for the provided `projectId`."
						}
					},
					"transferFrom(address,address,uint256)": {
						"details": "See {IERC721-transferFrom}."
					},
					"transferOwnership(address)": {
						"details": "Transfers ownership of the contract to a new account (`newOwner`). Can only be called by the current owner."
					}
				},
				"version": 1
			},
			"userdoc": {
				"kind": "user",
				"methods": {
					"count()": {
						"notice": "The number of projects that have been created using this contract."
					},
					"createFor(address)": {
						"notice": "Create a new project for the specified owner, which mints an NFT (ERC-721) into their wallet."
					},
					"setTokenUriResolver(address)": {
						"notice": "Sets the address of the resolver used to retrieve the tokenURI of projects."
					},
					"supportsInterface(bytes4)": {
						"notice": "Indicates whether this contract adheres to the specified interface."
					},
					"tokenURI(uint256)": {
						"notice": "Returns the URI where the ERC-721 standard JSON of a project is hosted."
					},
					"tokenUriResolver()": {
						"notice": "The contract resolving each project ID to its ERC721 URI."
					}
				},
				"version": 1
			},
			"gitCommit": "810aab8b9c3a0626e80bb9e6b819daaf6dcfee82",
			"sourceName": "src/JBProjects.sol",
			"chainId": "11155111",
			"linkReferences": {},
			"deployedLinkReferences": {}
		},
		{
			"_format": "sphinx-sol-ct-artifact-1",
			"merkleRoot": "0xeb3166bda3fcd69ca05fdf479239793e480a434f3066bc23b43dcbae1f55c908",
			"contractName": "JBProjects",
			"address": "0xfa679f5ecdd8bE404c1FbAa7f29aEB2b12F5B662",
			"abi": [
				{
					"type": "constructor",
					"inputs": [
						{
							"name": "owner",
							"type": "address",
							"internalType": "address"
						},
						{
							"name": "feeProjectOwner",
							"type": "address",
							"internalType": "address"
						}
					],
					"stateMutability": "nonpayable"
				},
				{
					"type": "function",
					"name": "CLOCK_MODE",
					"inputs": [],
					"outputs": [
						{
							"name": "",
							"type": "string",
							"internalType": "string"
						}
					],
					"stateMutability": "view"
				},
				{
					"type": "function",
					"name": "approve",
					"inputs": [
						{
							"name": "to",
							"type": "address",
							"internalType": "address"
						},
						{
							"name": "tokenId",
							"type": "uint256",
							"internalType": "uint256"
						}
					],
					"outputs": [],
					"stateMutability": "nonpayable"
				},
				{
					"type": "function",
					"name": "balanceOf",
					"inputs": [
						{
							"name": "owner",
							"type": "address",
							"internalType": "address"
						}
					],
					"outputs": [
						{
							"name": "",
							"type": "uint256",
							"internalType": "uint256"
						}
					],
					"stateMutability": "view"
				},
				{
					"type": "function",
					"name": "clock",
					"inputs": [],
					"outputs": [
						{
							"name": "",
							"type": "uint48",
							"internalType": "uint48"
						}
					],
					"stateMutability": "view"
				},
				{
					"type": "function",
					"name": "count",
					"inputs": [],
					"outputs": [
						{
							"name": "",
							"type": "uint256",
							"internalType": "uint256"
						}
					],
					"stateMutability": "view"
				},
				{
					"type": "function",
					"name": "createFor",
					"inputs": [
						{
							"name": "owner",
							"type": "address",
							"internalType": "address"
						}
					],
					"outputs": [
						{
							"name": "projectId",
							"type": "uint256",
							"internalType": "uint256"
						}
					],
					"stateMutability": "nonpayable"
				},
				{
					"type": "function",
					"name": "delegate",
					"inputs": [
						{
							"name": "delegatee",
							"type": "address",
							"internalType": "address"
						}
					],
					"outputs": [],
					"stateMutability": "nonpayable"
				},
				{
					"type": "function",
					"name": "delegateBySig",
					"inputs": [
						{
							"name": "delegatee",
							"type": "address",
							"internalType": "address"
						},
						{
							"name": "nonce",
							"type": "uint256",
							"internalType": "uint256"
						},
						{
							"name": "expiry",
							"type": "uint256",
							"internalType": "uint256"
						},
						{
							"name": "v",
							"type": "uint8",
							"internalType": "uint8"
						},
						{
							"name": "r",
							"type": "bytes32",
							"internalType": "bytes32"
						},
						{
							"name": "s",
							"type": "bytes32",
							"internalType": "bytes32"
						}
					],
					"outputs": [],
					"stateMutability": "nonpayable"
				},
				{
					"type": "function",
					"name": "delegates",
					"inputs": [
						{
							"name": "account",
							"type": "address",
							"internalType": "address"
						}
					],
					"outputs": [
						{
							"name": "",
							"type": "address",
							"internalType": "address"
						}
					],
					"stateMutability": "view"
				},
				{
					"type": "function",
					"name": "eip712Domain",
					"inputs": [],
					"outputs": [
						{
							"name": "fields",
							"type": "bytes1",
							"internalType": "bytes1"
						},
						{
							"name": "name",
							"type": "string",
							"internalType": "string"
						},
						{
							"name": "version",
							"type": "string",
							"internalType": "string"
						},
						{
							"name": "chainId",
							"type": "uint256",
							"internalType": "uint256"
						},
						{
							"name": "verifyingContract",
							"type": "address",
							"internalType": "address"
						},
						{
							"name": "salt",
							"type": "bytes32",
							"internalType": "bytes32"
						},
						{
							"name": "extensions",
							"type": "uint256[]",
							"internalType": "uint256[]"
						}
					],
					"stateMutability": "view"
				},
				{
					"type": "function",
					"name": "getApproved",
					"inputs": [
						{
							"name": "tokenId",
							"type": "uint256",
							"internalType": "uint256"
						}
					],
					"outputs": [
						{
							"name": "",
							"type": "address",
							"internalType": "address"
						}
					],
					"stateMutability": "view"
				},
				{
					"type": "function",
					"name": "getPastTotalSupply",
					"inputs": [
						{
							"name": "timepoint",
							"type": "uint256",
							"internalType": "uint256"
						}
					],
					"outputs": [
						{
							"name": "",
							"type": "uint256",
							"internalType": "uint256"
						}
					],
					"stateMutability": "view"
				},
				{
					"type": "function",
					"name": "getPastVotes",
					"inputs": [
						{
							"name": "account",
							"type": "address",
							"internalType": "address"
						},
						{
							"name": "timepoint",
							"type": "uint256",
							"internalType": "uint256"
						}
					],
					"outputs": [
						{
							"name": "",
							"type": "uint256",
							"internalType": "uint256"
						}
					],
					"stateMutability": "view"
				},
				{
					"type": "function",
					"name": "getVotes",
					"inputs": [
						{
							"name": "account",
							"type": "address",
							"internalType": "address"
						}
					],
					"outputs": [
						{
							"name": "",
							"type": "uint256",
							"internalType": "uint256"
						}
					],
					"stateMutability": "view"
				},
				{
					"type": "function",
					"name": "isApprovedForAll",
					"inputs": [
						{
							"name": "owner",
							"type": "address",
							"internalType": "address"
						},
						{
							"name": "operator",
							"type": "address",
							"internalType": "address"
						}
					],
					"outputs": [
						{
							"name": "",
							"type": "bool",
							"internalType": "bool"
						}
					],
					"stateMutability": "view"
				},
				{
					"type": "function",
					"name": "name",
					"inputs": [],
					"outputs": [
						{
							"name": "",
							"type": "string",
							"internalType": "string"
						}
					],
					"stateMutability": "view"
				},
				{
					"type": "function",
					"name": "nonces",
					"inputs": [
						{
							"name": "owner",
							"type": "address",
							"internalType": "address"
						}
					],
					"outputs": [
						{
							"name": "",
							"type": "uint256",
							"internalType": "uint256"
						}
					],
					"stateMutability": "view"
				},
				{
					"type": "function",
					"name": "owner",
					"inputs": [],
					"outputs": [
						{
							"name": "",
							"type": "address",
							"internalType": "address"
						}
					],
					"stateMutability": "view"
				},
				{
					"type": "function",
					"name": "ownerOf",
					"inputs": [
						{
							"name": "tokenId",
							"type": "uint256",
							"internalType": "uint256"
						}
					],
					"outputs": [
						{
							"name": "",
							"type": "address",
							"internalType": "address"
						}
					],
					"stateMutability": "view"
				},
				{
					"type": "function",
					"name": "renounceOwnership",
					"inputs": [],
					"outputs": [],
					"stateMutability": "nonpayable"
				},
				{
					"type": "function",
					"name": "safeTransferFrom",
					"inputs": [
						{
							"name": "from",
							"type": "address",
							"internalType": "address"
						},
						{
							"name": "to",
							"type": "address",
							"internalType": "address"
						},
						{
							"name": "tokenId",
							"type": "uint256",
							"internalType": "uint256"
						}
					],
					"outputs": [],
					"stateMutability": "nonpayable"
				},
				{
					"type": "function",
					"name": "safeTransferFrom",
					"inputs": [
						{
							"name": "from",
							"type": "address",
							"internalType": "address"
						},
						{
							"name": "to",
							"type": "address",
							"internalType": "address"
						},
						{
							"name": "tokenId",
							"type": "uint256",
							"internalType": "uint256"
						},
						{
							"name": "data",
							"type": "bytes",
							"internalType": "bytes"
						}
					],
					"outputs": [],
					"stateMutability": "nonpayable"
				},
				{
					"type": "function",
					"name": "setApprovalForAll",
					"inputs": [
						{
							"name": "operator",
							"type": "address",
							"internalType": "address"
						},
						{
							"name": "approved",
							"type": "bool",
							"internalType": "bool"
						}
					],
					"outputs": [],
					"stateMutability": "nonpayable"
				},
				{
					"type": "function",
					"name": "setTokenUriResolver",
					"inputs": [
						{
							"name": "newResolver",
							"type": "address",
							"internalType": "contract IJBTokenUriResolver"
						}
					],
					"outputs": [],
					"stateMutability": "nonpayable"
				},
				{
					"type": "function",
					"name": "supportsInterface",
					"inputs": [
						{
							"name": "interfaceId",
							"type": "bytes4",
							"internalType": "bytes4"
						}
					],
					"outputs": [
						{
							"name": "",
							"type": "bool",
							"internalType": "bool"
						}
					],
					"stateMutability": "view"
				},
				{
					"type": "function",
					"name": "symbol",
					"inputs": [],
					"outputs": [
						{
							"name": "",
							"type": "string",
							"internalType": "string"
						}
					],
					"stateMutability": "view"
				},
				{
					"type": "function",
					"name": "tokenURI",
					"inputs": [
						{
							"name": "projectId",
							"type": "uint256",
							"internalType": "uint256"
						}
					],
					"outputs": [
						{
							"name": "",
							"type": "string",
							"internalType": "string"
						}
					],
					"stateMutability": "view"
				},
				{
					"type": "function",
					"name": "tokenUriResolver",
					"inputs": [],
					"outputs": [
						{
							"name": "",
							"type": "address",
							"internalType": "contract IJBTokenUriResolver"
						}
					],
					"stateMutability": "view"
				},
				{
					"type": "function",
					"name": "transferFrom",
					"inputs": [
						{
							"name": "from",
							"type": "address",
							"internalType": "address"
						},
						{
							"name": "to",
							"type": "address",
							"internalType": "address"
						},
						{
							"name": "tokenId",
							"type": "uint256",
							"internalType": "uint256"
						}
					],
					"outputs": [],
					"stateMutability": "nonpayable"
				},
				{
					"type": "function",
					"name": "transferOwnership",
					"inputs": [
						{
							"name": "newOwner",
							"type": "address",
							"internalType": "address"
						}
					],
					"outputs": [],
					"stateMutability": "nonpayable"
				},
				{
					"type": "event",
					"name": "Approval",
					"inputs": [
						{
							"name": "owner",
							"type": "address",
							"indexed": true,
							"internalType": "address"
						},
						{
							"name": "approved",
							"type": "address",
							"indexed": true,
							"internalType": "address"
						},
						{
							"name": "tokenId",
							"type": "uint256",
							"indexed": true,
							"internalType": "uint256"
						}
					],
					"anonymous": false
				},
				{
					"type": "event",
					"name": "ApprovalForAll",
					"inputs": [
						{
							"name": "owner",
							"type": "address",
							"indexed": true,
							"internalType": "address"
						},
						{
							"name": "operator",
							"type": "address",
							"indexed": true,
							"internalType": "address"
						},
						{
							"name": "approved",
							"type": "bool",
							"indexed": false,
							"internalType": "bool"
						}
					],
					"anonymous": false
				},
				{
					"type": "event",
					"name": "Create",
					"inputs": [
						{
							"name": "projectId",
							"type": "uint256",
							"indexed": true,
							"internalType": "uint256"
						},
						{
							"name": "owner",
							"type": "address",
							"indexed": true,
							"internalType": "address"
						},
						{
							"name": "caller",
							"type": "address",
							"indexed": false,
							"internalType": "address"
						}
					],
					"anonymous": false
				},
				{
					"type": "event",
					"name": "DelegateChanged",
					"inputs": [
						{
							"name": "delegator",
							"type": "address",
							"indexed": true,
							"internalType": "address"
						},
						{
							"name": "fromDelegate",
							"type": "address",
							"indexed": true,
							"internalType": "address"
						},
						{
							"name": "toDelegate",
							"type": "address",
							"indexed": true,
							"internalType": "address"
						}
					],
					"anonymous": false
				},
				{
					"type": "event",
					"name": "DelegateVotesChanged",
					"inputs": [
						{
							"name": "delegate",
							"type": "address",
							"indexed": true,
							"internalType": "address"
						},
						{
							"name": "previousVotes",
							"type": "uint256",
							"indexed": false,
							"internalType": "uint256"
						},
						{
							"name": "newVotes",
							"type": "uint256",
							"indexed": false,
							"internalType": "uint256"
						}
					],
					"anonymous": false
				},
				{
					"type": "event",
					"name": "EIP712DomainChanged",
					"inputs": [],
					"anonymous": false
				},
				{
					"type": "event",
					"name": "OwnershipTransferred",
					"inputs": [
						{
							"name": "previousOwner",
							"type": "address",
							"indexed": true,
							"internalType": "address"
						},
						{
							"name": "newOwner",
							"type": "address",
							"indexed": true,
							"internalType": "address"
						}
					],
					"anonymous": false
				},
				{
					"type": "event",
					"name": "SetTokenUriResolver",
					"inputs": [
						{
							"name": "resolver",
							"type": "address",
							"indexed": true,
							"internalType": "contract IJBTokenUriResolver"
						},
						{
							"name": "caller",
							"type": "address",
							"indexed": false,
							"internalType": "address"
						}
					],
					"anonymous": false
				},
				{
					"type": "event",
					"name": "Transfer",
					"inputs": [
						{
							"name": "from",
							"type": "address",
							"indexed": true,
							"internalType": "address"
						},
						{
							"name": "to",
							"type": "address",
							"indexed": true,
							"internalType": "address"
						},
						{
							"name": "tokenId",
							"type": "uint256",
							"indexed": true,
							"internalType": "uint256"
						}
					],
					"anonymous": false
				},
				{
					"type": "error",
					"name": "CheckpointUnorderedInsertion",
					"inputs": []
				},
				{
					"type": "error",
					"name": "ECDSAInvalidSignature",
					"inputs": []
				},
				{
					"type": "error",
					"name": "ECDSAInvalidSignatureLength",
					"inputs": [
						{
							"name": "length",
							"type": "uint256",
							"internalType": "uint256"
						}
					]
				},
				{
					"type": "error",
					"name": "ECDSAInvalidSignatureS",
					"inputs": [
						{
							"name": "s",
							"type": "bytes32",
							"internalType": "bytes32"
						}
					]
				},
				{
					"type": "error",
					"name": "ERC5805FutureLookup",
					"inputs": [
						{
							"name": "timepoint",
							"type": "uint256",
							"internalType": "uint256"
						},
						{
							"name": "clock",
							"type": "uint48",
							"internalType": "uint48"
						}
					]
				},
				{
					"type": "error",
					"name": "ERC6372InconsistentClock",
					"inputs": []
				},
				{
					"type": "error",
					"name": "ERC721IncorrectOwner",
					"inputs": [
						{
							"name": "sender",
							"type": "address",
							"internalType": "address"
						},
						{
							"name": "tokenId",
							"type": "uint256",
							"internalType": "uint256"
						},
						{
							"name": "owner",
							"type": "address",
							"internalType": "address"
						}
					]
				},
				{
					"type": "error",
					"name": "ERC721InsufficientApproval",
					"inputs": [
						{
							"name": "operator",
							"type": "address",
							"internalType": "address"
						},
						{
							"name": "tokenId",
							"type": "uint256",
							"internalType": "uint256"
						}
					]
				},
				{
					"type": "error",
					"name": "ERC721InvalidApprover",
					"inputs": [
						{
							"name": "approver",
							"type": "address",
							"internalType": "address"
						}
					]
				},
				{
					"type": "error",
					"name": "ERC721InvalidOperator",
					"inputs": [
						{
							"name": "operator",
							"type": "address",
							"internalType": "address"
						}
					]
				},
				{
					"type": "error",
					"name": "ERC721InvalidOwner",
					"inputs": [
						{
							"name": "owner",
							"type": "address",
							"internalType": "address"
						}
					]
				},
				{
					"type": "error",
					"name": "ERC721InvalidReceiver",
					"inputs": [
						{
							"name": "receiver",
							"type": "address",
							"internalType": "address"
						}
					]
				},
				{
					"type": "error",
					"name": "ERC721InvalidSender",
					"inputs": [
						{
							"name": "sender",
							"type": "address",
							"internalType": "address"
						}
					]
				},
				{
					"type": "error",
					"name": "ERC721NonexistentToken",
					"inputs": [
						{
							"name": "tokenId",
							"type": "uint256",
							"internalType": "uint256"
						}
					]
				},
				{
					"type": "error",
					"name": "InvalidAccountNonce",
					"inputs": [
						{
							"name": "account",
							"type": "address",
							"internalType": "address"
						},
						{
							"name": "currentNonce",
							"type": "uint256",
							"internalType": "uint256"
						}
					]
				},
				{
					"type": "error",
					"name": "InvalidShortString",
					"inputs": []
				},
				{
					"type": "error",
					"name": "OwnableInvalidOwner",
					"inputs": [
						{
							"name": "owner",
							"type": "address",
							"internalType": "address"
						}
					]
				},
				{
					"type": "error",
					"name": "OwnableUnauthorizedAccount",
					"inputs": [
						{
							"name": "account",
							"type": "address",
							"internalType": "address"
						}
					]
				},
				{
					"type": "error",
					"name": "SafeCastOverflowedUintDowncast",
					"inputs": [
						{
							"name": "bits",
							"type": "uint8",
							"internalType": "uint8"
						},
						{
							"name": "value",
							"type": "uint256",
							"internalType": "uint256"
						}
					]
				},
				{
					"type": "error",
					"name": "StringTooLong",
					"inputs": [
						{
							"name": "str",
							"type": "string",
							"internalType": "string"
						}
					]
				},
				{
					"type": "error",
					"name": "VotesExpiredSignature",
					"inputs": [
						{
							"name": "expiry",
							"type": "uint256",
							"internalType": "uint256"
						}
					]
				}
			],
			"solcInputHash": "ca7cc2b8e77e7f12f966f059a5ca4cba",
			"receipt": {
				"blockHash": "0x7a3b244ef2b320506568f360e434fc3eab32c3e95eed2ad2765105c254870fbb",
				"blockNumber": 5671408,
				"contractAddress": null,
				"cumulativeGasUsed": "17854991",
				"from": "0xC034550B542b83BA1De312b21d1C94a9a52B1595",
				"gasPrice": "1000371034",
				"gasUsed": "11027755",
				"hash": "0xf54a9e042e28ddbdf0314cf02a3749e596d9871e960800b6aa21852ad7170be7",
				"index": 49,
				"logs": [
					{
						"address": "0xB5E96127D417b1B3ef8438496a38A143167209c7",
						"blockHash": "0x7a3b244ef2b320506568f360e434fc3eab32c3e95eed2ad2765105c254870fbb",
						"blockNumber": 5671408,
						"data": "0x0000000000000000000000000000000000000000000000000000000000000000",
						"index": 66,
						"topics": [
							"0x572f161235911da04685a68c06adf558fc7e4a36909dca394650e0adc19cc93d",
							"0x000000000000000000000000c034550b542b83ba1de312b21d1c94a9a52b1595",
							"0x000000000000000000000000ef1be3c049809cace5bc203bbe4ec1ab284bf75c",
							"0x514497bd2ece2f4689a694f24d57165de5d2f244eb268184db1378f8003344e2"
						],
						"transactionHash": "0xf54a9e042e28ddbdf0314cf02a3749e596d9871e960800b6aa21852ad7170be7",
						"transactionIndex": 49
					},
					{
						"address": "0x1081B5AA9D9d4862A3dA4d469433FB36Ed80FA2A",
						"blockHash": "0x7a3b244ef2b320506568f360e434fc3eab32c3e95eed2ad2765105c254870fbb",
						"blockNumber": 5671408,
						"data": "0x000000000000000000000000711eda44f3d42f3d255846b5ee36cf70fd912e50",
						"index": 67,
						"topics": [
							"0x4db17dd5e4732fb6da34a148104a592783ca119a1e7bb8829eba6cbadef0b511"
						],
						"transactionHash": "0xf54a9e042e28ddbdf0314cf02a3749e596d9871e960800b6aa21852ad7170be7",
						"transactionIndex": 49
					},
					{
						"address": "0x1081B5AA9D9d4862A3dA4d469433FB36Ed80FA2A",
						"blockHash": "0x7a3b244ef2b320506568f360e434fc3eab32c3e95eed2ad2765105c254870fbb",
						"blockNumber": 5671408,
						"data": "0x",
						"index": 68,
						"topics": [
							"0x6895c13664aa4f67288b25d7a21d7aaa34916e355fb9b6fae0a139a9085becb8",
							"0x000000000000000000000000ef1be3c049809cace5bc203bbe4ec1ab284bf75c"
						],
						"transactionHash": "0xf54a9e042e28ddbdf0314cf02a3749e596d9871e960800b6aa21852ad7170be7",
						"transactionIndex": 49
					},
					{
						"address": "0xEf1Be3C049809caCe5Bc203BBe4Ec1Ab284bF75c",
						"blockHash": "0x7a3b244ef2b320506568f360e434fc3eab32c3e95eed2ad2765105c254870fbb",
						"blockNumber": 5671408,
						"data": "0x0000000000000000000000000000000000000000000000000000000000000001",
						"index": 69,
						"topics": [
							"0xa65fb05c5808f5f389d72edeaf719ce38f4cc55c1f69ca3cbfb31c21501caa07",
							"0xeb3166bda3fcd69ca05fdf479239793e480a434f3066bc23b43dcbae1f55c908"
						],
						"transactionHash": "0xf54a9e042e28ddbdf0314cf02a3749e596d9871e960800b6aa21852ad7170be7",
						"transactionIndex": 49
					},
					{
						"address": "0xfa679f5ecdd8bE404c1FbAa7f29aEB2b12F5B662",
						"blockHash": "0x7a3b244ef2b320506568f360e434fc3eab32c3e95eed2ad2765105c254870fbb",
						"blockNumber": 5671408,
						"data": "0x",
						"index": 70,
						"topics": [
							"0x8be0079c531659141344cd1fd0a4f28419497f9722a3daafe3b4186f6b6457e0",
							"0x0000000000000000000000000000000000000000000000000000000000000000",
							"0x0000000000000000000000001081b5aa9d9d4862a3da4d469433fb36ed80fa2a"
						],
						"transactionHash": "0xf54a9e042e28ddbdf0314cf02a3749e596d9871e960800b6aa21852ad7170be7",
						"transactionIndex": 49
					},
					{
						"address": "0xfa679f5ecdd8bE404c1FbAa7f29aEB2b12F5B662",
						"blockHash": "0x7a3b244ef2b320506568f360e434fc3eab32c3e95eed2ad2765105c254870fbb",
						"blockNumber": 5671408,
						"data": "0x",
						"index": 71,
						"topics": [
							"0xddf252ad1be2c89b69c2b068fc378daa952ba7f163c4a11628f55a4df523b3ef",
							"0x0000000000000000000000000000000000000000000000000000000000000000",
							"0x0000000000000000000000001081b5aa9d9d4862a3da4d469433fb36ed80fa2a",
							"0x0000000000000000000000000000000000000000000000000000000000000001"
						],
						"transactionHash": "0xf54a9e042e28ddbdf0314cf02a3749e596d9871e960800b6aa21852ad7170be7",
						"transactionIndex": 49
					},
					{
						"address": "0xfa679f5ecdd8bE404c1FbAa7f29aEB2b12F5B662",
						"blockHash": "0x7a3b244ef2b320506568f360e434fc3eab32c3e95eed2ad2765105c254870fbb",
						"blockNumber": 5671408,
						"data": "0x0000000000000000000000001081b5aa9d9d4862a3da4d469433fb36ed80fa2a",
						"index": 72,
						"topics": [
							"0x365b3162cd780731fc55a794b59494d472bc2af701007f581843a70673814698",
							"0x0000000000000000000000000000000000000000000000000000000000000001",
							"0x0000000000000000000000001081b5aa9d9d4862a3da4d469433fb36ed80fa2a"
						],
						"transactionHash": "0xf54a9e042e28ddbdf0314cf02a3749e596d9871e960800b6aa21852ad7170be7",
						"transactionIndex": 49
					},
					{
						"address": "0x1081B5AA9D9d4862A3dA4d469433FB36Ed80FA2A",
						"blockHash": "0x7a3b244ef2b320506568f360e434fc3eab32c3e95eed2ad2765105c254870fbb",
						"blockNumber": 5671408,
						"data": "0x000000000000000000000000fa679f5ecdd8be404c1fbaa7f29aeb2b12f5b662",
						"index": 73,
						"topics": [
							"0x4db17dd5e4732fb6da34a148104a592783ca119a1e7bb8829eba6cbadef0b511"
						],
						"transactionHash": "0xf54a9e042e28ddbdf0314cf02a3749e596d9871e960800b6aa21852ad7170be7",
						"transactionIndex": 49
					},
					{
						"address": "0x1081B5AA9D9d4862A3dA4d469433FB36Ed80FA2A",
						"blockHash": "0x7a3b244ef2b320506568f360e434fc3eab32c3e95eed2ad2765105c254870fbb",
						"blockNumber": 5671408,
						"data": "0x",
						"index": 74,
						"topics": [
							"0x6895c13664aa4f67288b25d7a21d7aaa34916e355fb9b6fae0a139a9085becb8",
							"0x000000000000000000000000ef1be3c049809cace5bc203bbe4ec1ab284bf75c"
						],
						"transactionHash": "0xf54a9e042e28ddbdf0314cf02a3749e596d9871e960800b6aa21852ad7170be7",
						"transactionIndex": 49
					},
					{
						"address": "0xEf1Be3C049809caCe5Bc203BBe4Ec1Ab284bF75c",
						"blockHash": "0x7a3b244ef2b320506568f360e434fc3eab32c3e95eed2ad2765105c254870fbb",
						"blockNumber": 5671408,
						"data": "0x0000000000000000000000000000000000000000000000000000000000000002",
						"index": 75,
						"topics": [
							"0xa65fb05c5808f5f389d72edeaf719ce38f4cc55c1f69ca3cbfb31c21501caa07",
							"0xeb3166bda3fcd69ca05fdf479239793e480a434f3066bc23b43dcbae1f55c908"
						],
						"transactionHash": "0xf54a9e042e28ddbdf0314cf02a3749e596d9871e960800b6aa21852ad7170be7",
						"transactionIndex": 49
					},
					{
						"address": "0x44d360C8c4105f180e07668bd3374c7A6F812FAF",
						"blockHash": "0x7a3b244ef2b320506568f360e434fc3eab32c3e95eed2ad2765105c254870fbb",
						"blockNumber": 5671408,
						"data": "0x",
						"index": 76,
						"topics": [
							"0x8be0079c531659141344cd1fd0a4f28419497f9722a3daafe3b4186f6b6457e0",
							"0x0000000000000000000000000000000000000000000000000000000000000000",
							"0x0000000000000000000000001081b5aa9d9d4862a3da4d469433fb36ed80fa2a"
						],
						"transactionHash": "0xf54a9e042e28ddbdf0314cf02a3749e596d9871e960800b6aa21852ad7170be7",
						"transactionIndex": 49
					},
					{
						"address": "0x1081B5AA9D9d4862A3dA4d469433FB36Ed80FA2A",
						"blockHash": "0x7a3b244ef2b320506568f360e434fc3eab32c3e95eed2ad2765105c254870fbb",
						"blockNumber": 5671408,
						"data": "0x00000000000000000000000044d360c8c4105f180e07668bd3374c7a6f812faf",
						"index": 77,
						"topics": [
							"0x4db17dd5e4732fb6da34a148104a592783ca119a1e7bb8829eba6cbadef0b511"
						],
						"transactionHash": "0xf54a9e042e28ddbdf0314cf02a3749e596d9871e960800b6aa21852ad7170be7",
						"transactionIndex": 49
					},
					{
						"address": "0x1081B5AA9D9d4862A3dA4d469433FB36Ed80FA2A",
						"blockHash": "0x7a3b244ef2b320506568f360e434fc3eab32c3e95eed2ad2765105c254870fbb",
						"blockNumber": 5671408,
						"data": "0x",
						"index": 78,
						"topics": [
							"0x6895c13664aa4f67288b25d7a21d7aaa34916e355fb9b6fae0a139a9085becb8",
							"0x000000000000000000000000ef1be3c049809cace5bc203bbe4ec1ab284bf75c"
						],
						"transactionHash": "0xf54a9e042e28ddbdf0314cf02a3749e596d9871e960800b6aa21852ad7170be7",
						"transactionIndex": 49
					},
					{
						"address": "0xEf1Be3C049809caCe5Bc203BBe4Ec1Ab284bF75c",
						"blockHash": "0x7a3b244ef2b320506568f360e434fc3eab32c3e95eed2ad2765105c254870fbb",
						"blockNumber": 5671408,
						"data": "0x0000000000000000000000000000000000000000000000000000000000000003",
						"index": 79,
						"topics": [
							"0xa65fb05c5808f5f389d72edeaf719ce38f4cc55c1f69ca3cbfb31c21501caa07",
							"0xeb3166bda3fcd69ca05fdf479239793e480a434f3066bc23b43dcbae1f55c908"
						],
						"transactionHash": "0xf54a9e042e28ddbdf0314cf02a3749e596d9871e960800b6aa21852ad7170be7",
						"transactionIndex": 49
					},
					{
						"address": "0x1081B5AA9D9d4862A3dA4d469433FB36Ed80FA2A",
						"blockHash": "0x7a3b244ef2b320506568f360e434fc3eab32c3e95eed2ad2765105c254870fbb",
						"blockNumber": 5671408,
						"data": "0x00000000000000000000000026cb60fc2323d1a4309f35497e5a881fe1f3d2ac",
						"index": 80,
						"topics": [
							"0x4db17dd5e4732fb6da34a148104a592783ca119a1e7bb8829eba6cbadef0b511"
						],
						"transactionHash": "0xf54a9e042e28ddbdf0314cf02a3749e596d9871e960800b6aa21852ad7170be7",
						"transactionIndex": 49
					},
					{
						"address": "0x1081B5AA9D9d4862A3dA4d469433FB36Ed80FA2A",
						"blockHash": "0x7a3b244ef2b320506568f360e434fc3eab32c3e95eed2ad2765105c254870fbb",
						"blockNumber": 5671408,
						"data": "0x",
						"index": 81,
						"topics": [
							"0x6895c13664aa4f67288b25d7a21d7aaa34916e355fb9b6fae0a139a9085becb8",
							"0x000000000000000000000000ef1be3c049809cace5bc203bbe4ec1ab284bf75c"
						],
						"transactionHash": "0xf54a9e042e28ddbdf0314cf02a3749e596d9871e960800b6aa21852ad7170be7",
						"transactionIndex": 49
					},
					{
						"address": "0xEf1Be3C049809caCe5Bc203BBe4Ec1Ab284bF75c",
						"blockHash": "0x7a3b244ef2b320506568f360e434fc3eab32c3e95eed2ad2765105c254870fbb",
						"blockNumber": 5671408,
						"data": "0x0000000000000000000000000000000000000000000000000000000000000004",
						"index": 82,
						"topics": [
							"0xa65fb05c5808f5f389d72edeaf719ce38f4cc55c1f69ca3cbfb31c21501caa07",
							"0xeb3166bda3fcd69ca05fdf479239793e480a434f3066bc23b43dcbae1f55c908"
						],
						"transactionHash": "0xf54a9e042e28ddbdf0314cf02a3749e596d9871e960800b6aa21852ad7170be7",
						"transactionIndex": 49
					},
					{
						"address": "0x1081B5AA9D9d4862A3dA4d469433FB36Ed80FA2A",
						"blockHash": "0x7a3b244ef2b320506568f360e434fc3eab32c3e95eed2ad2765105c254870fbb",
						"blockNumber": 5671408,
						"data": "0x0000000000000000000000009c10f158d2cecdfb5aadd5da40abbf2c574e4323",
						"index": 83,
						"topics": [
							"0x4db17dd5e4732fb6da34a148104a592783ca119a1e7bb8829eba6cbadef0b511"
						],
						"transactionHash": "0xf54a9e042e28ddbdf0314cf02a3749e596d9871e960800b6aa21852ad7170be7",
						"transactionIndex": 49
					},
					{
						"address": "0x1081B5AA9D9d4862A3dA4d469433FB36Ed80FA2A",
						"blockHash": "0x7a3b244ef2b320506568f360e434fc3eab32c3e95eed2ad2765105c254870fbb",
						"blockNumber": 5671408,
						"data": "0x",
						"index": 84,
						"topics": [
							"0x6895c13664aa4f67288b25d7a21d7aaa34916e355fb9b6fae0a139a9085becb8",
							"0x000000000000000000000000ef1be3c049809cace5bc203bbe4ec1ab284bf75c"
						],
						"transactionHash": "0xf54a9e042e28ddbdf0314cf02a3749e596d9871e960800b6aa21852ad7170be7",
						"transactionIndex": 49
					},
					{
						"address": "0xEf1Be3C049809caCe5Bc203BBe4Ec1Ab284bF75c",
						"blockHash": "0x7a3b244ef2b320506568f360e434fc3eab32c3e95eed2ad2765105c254870fbb",
						"blockNumber": 5671408,
						"data": "0x0000000000000000000000000000000000000000000000000000000000000005",
						"index": 85,
						"topics": [
							"0xa65fb05c5808f5f389d72edeaf719ce38f4cc55c1f69ca3cbfb31c21501caa07",
							"0xeb3166bda3fcd69ca05fdf479239793e480a434f3066bc23b43dcbae1f55c908"
						],
						"transactionHash": "0xf54a9e042e28ddbdf0314cf02a3749e596d9871e960800b6aa21852ad7170be7",
						"transactionIndex": 49
					},
					{
						"address": "0xaFFAC6609245EB93123a4CEcFAf6d78A249bF127",
						"blockHash": "0x7a3b244ef2b320506568f360e434fc3eab32c3e95eed2ad2765105c254870fbb",
						"blockNumber": 5671408,
						"data": "0x",
						"index": 86,
						"topics": [
							"0x8be0079c531659141344cd1fd0a4f28419497f9722a3daafe3b4186f6b6457e0",
							"0x0000000000000000000000000000000000000000000000000000000000000000",
							"0x000000000000000000000000affac6609245eb93123a4cecfaf6d78a249bf127"
						],
						"transactionHash": "0xf54a9e042e28ddbdf0314cf02a3749e596d9871e960800b6aa21852ad7170be7",
						"transactionIndex": 49
					},
					{
						"address": "0x1081B5AA9D9d4862A3dA4d469433FB36Ed80FA2A",
						"blockHash": "0x7a3b244ef2b320506568f360e434fc3eab32c3e95eed2ad2765105c254870fbb",
						"blockNumber": 5671408,
						"data": "0x000000000000000000000000affac6609245eb93123a4cecfaf6d78a249bf127",
						"index": 87,
						"topics": [
							"0x4db17dd5e4732fb6da34a148104a592783ca119a1e7bb8829eba6cbadef0b511"
						],
						"transactionHash": "0xf54a9e042e28ddbdf0314cf02a3749e596d9871e960800b6aa21852ad7170be7",
						"transactionIndex": 49
					},
					{
						"address": "0x1081B5AA9D9d4862A3dA4d469433FB36Ed80FA2A",
						"blockHash": "0x7a3b244ef2b320506568f360e434fc3eab32c3e95eed2ad2765105c254870fbb",
						"blockNumber": 5671408,
						"data": "0x",
						"index": 88,
						"topics": [
							"0x6895c13664aa4f67288b25d7a21d7aaa34916e355fb9b6fae0a139a9085becb8",
							"0x000000000000000000000000ef1be3c049809cace5bc203bbe4ec1ab284bf75c"
						],
						"transactionHash": "0xf54a9e042e28ddbdf0314cf02a3749e596d9871e960800b6aa21852ad7170be7",
						"transactionIndex": 49
					},
					{
						"address": "0xEf1Be3C049809caCe5Bc203BBe4Ec1Ab284bF75c",
						"blockHash": "0x7a3b244ef2b320506568f360e434fc3eab32c3e95eed2ad2765105c254870fbb",
						"blockNumber": 5671408,
						"data": "0x0000000000000000000000000000000000000000000000000000000000000006",
						"index": 89,
						"topics": [
							"0xa65fb05c5808f5f389d72edeaf719ce38f4cc55c1f69ca3cbfb31c21501caa07",
							"0xeb3166bda3fcd69ca05fdf479239793e480a434f3066bc23b43dcbae1f55c908"
						],
						"transactionHash": "0xf54a9e042e28ddbdf0314cf02a3749e596d9871e960800b6aa21852ad7170be7",
						"transactionIndex": 49
					},
					{
						"address": "0x1081B5AA9D9d4862A3dA4d469433FB36Ed80FA2A",
						"blockHash": "0x7a3b244ef2b320506568f360e434fc3eab32c3e95eed2ad2765105c254870fbb",
						"blockNumber": 5671408,
						"data": "0x000000000000000000000000ee922d1cb6551d45e2d9b197ec423fb8c3c85d50",
						"index": 90,
						"topics": [
							"0x4db17dd5e4732fb6da34a148104a592783ca119a1e7bb8829eba6cbadef0b511"
						],
						"transactionHash": "0xf54a9e042e28ddbdf0314cf02a3749e596d9871e960800b6aa21852ad7170be7",
						"transactionIndex": 49
					},
					{
						"address": "0x1081B5AA9D9d4862A3dA4d469433FB36Ed80FA2A",
						"blockHash": "0x7a3b244ef2b320506568f360e434fc3eab32c3e95eed2ad2765105c254870fbb",
						"blockNumber": 5671408,
						"data": "0x",
						"index": 91,
						"topics": [
							"0x6895c13664aa4f67288b25d7a21d7aaa34916e355fb9b6fae0a139a9085becb8",
							"0x000000000000000000000000ef1be3c049809cace5bc203bbe4ec1ab284bf75c"
						],
						"transactionHash": "0xf54a9e042e28ddbdf0314cf02a3749e596d9871e960800b6aa21852ad7170be7",
						"transactionIndex": 49
					},
					{
						"address": "0xEf1Be3C049809caCe5Bc203BBe4Ec1Ab284bF75c",
						"blockHash": "0x7a3b244ef2b320506568f360e434fc3eab32c3e95eed2ad2765105c254870fbb",
						"blockNumber": 5671408,
						"data": "0x0000000000000000000000000000000000000000000000000000000000000007",
						"index": 92,
						"topics": [
							"0xa65fb05c5808f5f389d72edeaf719ce38f4cc55c1f69ca3cbfb31c21501caa07",
							"0xeb3166bda3fcd69ca05fdf479239793e480a434f3066bc23b43dcbae1f55c908"
						],
						"transactionHash": "0xf54a9e042e28ddbdf0314cf02a3749e596d9871e960800b6aa21852ad7170be7",
						"transactionIndex": 49
					},
					{
						"address": "0x1081B5AA9D9d4862A3dA4d469433FB36Ed80FA2A",
						"blockHash": "0x7a3b244ef2b320506568f360e434fc3eab32c3e95eed2ad2765105c254870fbb",
						"blockNumber": 5671408,
						"data": "0x000000000000000000000000315d47e969097635dbe460743da00096129c2457",
						"index": 93,
						"topics": [
							"0x4db17dd5e4732fb6da34a148104a592783ca119a1e7bb8829eba6cbadef0b511"
						],
						"transactionHash": "0xf54a9e042e28ddbdf0314cf02a3749e596d9871e960800b6aa21852ad7170be7",
						"transactionIndex": 49
					},
					{
						"address": "0x1081B5AA9D9d4862A3dA4d469433FB36Ed80FA2A",
						"blockHash": "0x7a3b244ef2b320506568f360e434fc3eab32c3e95eed2ad2765105c254870fbb",
						"blockNumber": 5671408,
						"data": "0x",
						"index": 94,
						"topics": [
							"0x6895c13664aa4f67288b25d7a21d7aaa34916e355fb9b6fae0a139a9085becb8",
							"0x000000000000000000000000ef1be3c049809cace5bc203bbe4ec1ab284bf75c"
						],
						"transactionHash": "0xf54a9e042e28ddbdf0314cf02a3749e596d9871e960800b6aa21852ad7170be7",
						"transactionIndex": 49
					},
					{
						"address": "0xEf1Be3C049809caCe5Bc203BBe4Ec1Ab284bF75c",
						"blockHash": "0x7a3b244ef2b320506568f360e434fc3eab32c3e95eed2ad2765105c254870fbb",
						"blockNumber": 5671408,
						"data": "0x0000000000000000000000000000000000000000000000000000000000000008",
						"index": 95,
						"topics": [
							"0xa65fb05c5808f5f389d72edeaf719ce38f4cc55c1f69ca3cbfb31c21501caa07",
							"0xeb3166bda3fcd69ca05fdf479239793e480a434f3066bc23b43dcbae1f55c908"
						],
						"transactionHash": "0xf54a9e042e28ddbdf0314cf02a3749e596d9871e960800b6aa21852ad7170be7",
						"transactionIndex": 49
					}
				],
				"logsBloom": "0x02000000080010000008000000080200000000020008000000800800004000000060008000000000000000220040000000000400000000000000000000040000000000100000220400000008020280000001000000040000000200000000000000000000020000000001000000000800000000100020000010000010002000400001000200000000000100020000000000004000000000000000804000000000004000000010000000000000080000020200000000000000000000000006000000000002000800200000000008000000010000000000000000000000000060000000000000000024000000000000000200000000000000000000000000000000",
				"status": 1,
				"to": "0xB5E96127D417b1B3ef8438496a38A143167209c7"
			},
			"metadata": "{\"compiler\":{\"version\":\"0.8.23+commit.f704f362\"},\"language\":\"Solidity\",\"output\":{\"abi\":[{\"inputs\":[{\"internalType\":\"address\",\"name\":\"owner\",\"type\":\"address\"},{\"internalType\":\"address\",\"name\":\"feeProjectOwner\",\"type\":\"address\"}],\"stateMutability\":\"nonpayable\",\"type\":\"constructor\"},{\"inputs\":[],\"type\":\"error\",\"name\":\"CheckpointUnorderedInsertion\"},{\"inputs\":[],\"type\":\"error\",\"name\":\"ECDSAInvalidSignature\"},{\"inputs\":[{\"internalType\":\"uint256\",\"name\":\"length\",\"type\":\"uint256\"}],\"type\":\"error\",\"name\":\"ECDSAInvalidSignatureLength\"},{\"inputs\":[{\"internalType\":\"bytes32\",\"name\":\"s\",\"type\":\"bytes32\"}],\"type\":\"error\",\"name\":\"ECDSAInvalidSignatureS\"},{\"inputs\":[{\"internalType\":\"uint256\",\"name\":\"timepoint\",\"type\":\"uint256\"},{\"internalType\":\"uint48\",\"name\":\"clock\",\"type\":\"uint48\"}],\"type\":\"error\",\"name\":\"ERC5805FutureLookup\"},{\"inputs\":[],\"type\":\"error\",\"name\":\"ERC6372InconsistentClock\"},{\"inputs\":[{\"internalType\":\"address\",\"name\":\"sender\",\"type\":\"address\"},{\"internalType\":\"uint256\",\"name\":\"tokenId\",\"type\":\"uint256\"},{\"internalType\":\"address\",\"name\":\"owner\",\"type\":\"address\"}],\"type\":\"error\",\"name\":\"ERC721IncorrectOwner\"},{\"inputs\":[{\"internalType\":\"address\",\"name\":\"operator\",\"type\":\"address\"},{\"internalType\":\"uint256\",\"name\":\"tokenId\",\"type\":\"uint256\"}],\"type\":\"error\",\"name\":\"ERC721InsufficientApproval\"},{\"inputs\":[{\"internalType\":\"address\",\"name\":\"approver\",\"type\":\"address\"}],\"type\":\"error\",\"name\":\"ERC721InvalidApprover\"},{\"inputs\":[{\"internalType\":\"address\",\"name\":\"operator\",\"type\":\"address\"}],\"type\":\"error\",\"name\":\"ERC721InvalidOperator\"},{\"inputs\":[{\"internalType\":\"address\",\"name\":\"owner\",\"type\":\"address\"}],\"type\":\"error\",\"name\":\"ERC721InvalidOwner\"},{\"inputs\":[{\"internalType\":\"address\",\"name\":\"receiver\",\"type\":\"address\"}],\"type\":\"error\",\"name\":\"ERC721InvalidReceiver\"},{\"inputs\":[{\"internalType\":\"address\",\"name\":\"sender\",\"type\":\"address\"}],\"type\":\"error\",\"name\":\"ERC721InvalidSender\"},{\"inputs\":[{\"internalType\":\"uint256\",\"name\":\"tokenId\",\"type\":\"uint256\"}],\"type\":\"error\",\"name\":\"ERC721NonexistentToken\"},{\"inputs\":[{\"internalType\":\"address\",\"name\":\"account\",\"type\":\"address\"},{\"internalType\":\"uint256\",\"name\":\"currentNonce\",\"type\":\"uint256\"}],\"type\":\"error\",\"name\":\"InvalidAccountNonce\"},{\"inputs\":[],\"type\":\"error\",\"name\":\"InvalidShortString\"},{\"inputs\":[{\"internalType\":\"address\",\"name\":\"owner\",\"type\":\"address\"}],\"type\":\"error\",\"name\":\"OwnableInvalidOwner\"},{\"inputs\":[{\"internalType\":\"address\",\"name\":\"account\",\"type\":\"address\"}],\"type\":\"error\",\"name\":\"OwnableUnauthorizedAccount\"},{\"inputs\":[{\"internalType\":\"uint8\",\"name\":\"bits\",\"type\":\"uint8\"},{\"internalType\":\"uint256\",\"name\":\"value\",\"type\":\"uint256\"}],\"type\":\"error\",\"name\":\"SafeCastOverflowedUintDowncast\"},{\"inputs\":[{\"internalType\":\"string\",\"name\":\"str\",\"type\":\"string\"}],\"type\":\"error\",\"name\":\"StringTooLong\"},{\"inputs\":[{\"internalType\":\"uint256\",\"name\":\"expiry\",\"type\":\"uint256\"}],\"type\":\"error\",\"name\":\"VotesExpiredSignature\"},{\"inputs\":[{\"internalType\":\"address\",\"name\":\"owner\",\"type\":\"address\",\"indexed\":true},{\"internalType\":\"address\",\"name\":\"approved\",\"type\":\"address\",\"indexed\":true},{\"internalType\":\"uint256\",\"name\":\"tokenId\",\"type\":\"uint256\",\"indexed\":true}],\"type\":\"event\",\"name\":\"Approval\",\"anonymous\":false},{\"inputs\":[{\"internalType\":\"address\",\"name\":\"owner\",\"type\":\"address\",\"indexed\":true},{\"internalType\":\"address\",\"name\":\"operator\",\"type\":\"address\",\"indexed\":true},{\"internalType\":\"bool\",\"name\":\"approved\",\"type\":\"bool\",\"indexed\":false}],\"type\":\"event\",\"name\":\"ApprovalForAll\",\"anonymous\":false},{\"inputs\":[{\"internalType\":\"uint256\",\"name\":\"projectId\",\"type\":\"uint256\",\"indexed\":true},{\"internalType\":\"address\",\"name\":\"owner\",\"type\":\"address\",\"indexed\":true},{\"internalType\":\"address\",\"name\":\"caller\",\"type\":\"address\",\"indexed\":false}],\"type\":\"event\",\"name\":\"Create\",\"anonymous\":false},{\"inputs\":[{\"internalType\":\"address\",\"name\":\"delegator\",\"type\":\"address\",\"indexed\":true},{\"internalType\":\"address\",\"name\":\"fromDelegate\",\"type\":\"address\",\"indexed\":true},{\"internalType\":\"address\",\"name\":\"toDelegate\",\"type\":\"address\",\"indexed\":true}],\"type\":\"event\",\"name\":\"DelegateChanged\",\"anonymous\":false},{\"inputs\":[{\"internalType\":\"address\",\"name\":\"delegate\",\"type\":\"address\",\"indexed\":true},{\"internalType\":\"uint256\",\"name\":\"previousVotes\",\"type\":\"uint256\",\"indexed\":false},{\"internalType\":\"uint256\",\"name\":\"newVotes\",\"type\":\"uint256\",\"indexed\":false}],\"type\":\"event\",\"name\":\"DelegateVotesChanged\",\"anonymous\":false},{\"inputs\":[],\"type\":\"event\",\"name\":\"EIP712DomainChanged\",\"anonymous\":false},{\"inputs\":[{\"internalType\":\"address\",\"name\":\"previousOwner\",\"type\":\"address\",\"indexed\":true},{\"internalType\":\"address\",\"name\":\"newOwner\",\"type\":\"address\",\"indexed\":true}],\"type\":\"event\",\"name\":\"OwnershipTransferred\",\"anonymous\":false},{\"inputs\":[{\"internalType\":\"contract IJBTokenUriResolver\",\"name\":\"resolver\",\"type\":\"address\",\"indexed\":true},{\"internalType\":\"address\",\"name\":\"caller\",\"type\":\"address\",\"indexed\":false}],\"type\":\"event\",\"name\":\"SetTokenUriResolver\",\"anonymous\":false},{\"inputs\":[{\"internalType\":\"address\",\"name\":\"from\",\"type\":\"address\",\"indexed\":true},{\"internalType\":\"address\",\"name\":\"to\",\"type\":\"address\",\"indexed\":true},{\"internalType\":\"uint256\",\"name\":\"tokenId\",\"type\":\"uint256\",\"indexed\":true}],\"type\":\"event\",\"name\":\"Transfer\",\"anonymous\":false},{\"inputs\":[],\"stateMutability\":\"view\",\"type\":\"function\",\"name\":\"CLOCK_MODE\",\"outputs\":[{\"internalType\":\"string\",\"name\":\"\",\"type\":\"string\"}]},{\"inputs\":[{\"internalType\":\"address\",\"name\":\"to\",\"type\":\"address\"},{\"internalType\":\"uint256\",\"name\":\"tokenId\",\"type\":\"uint256\"}],\"stateMutability\":\"nonpayable\",\"type\":\"function\",\"name\":\"approve\"},{\"inputs\":[{\"internalType\":\"address\",\"name\":\"owner\",\"type\":\"address\"}],\"stateMutability\":\"view\",\"type\":\"function\",\"name\":\"balanceOf\",\"outputs\":[{\"internalType\":\"uint256\",\"name\":\"\",\"type\":\"uint256\"}]},{\"inputs\":[],\"stateMutability\":\"view\",\"type\":\"function\",\"name\":\"clock\",\"outputs\":[{\"internalType\":\"uint48\",\"name\":\"\",\"type\":\"uint48\"}]},{\"inputs\":[],\"stateMutability\":\"view\",\"type\":\"function\",\"name\":\"count\",\"outputs\":[{\"internalType\":\"uint256\",\"name\":\"\",\"type\":\"uint256\"}]},{\"inputs\":[{\"internalType\":\"address\",\"name\":\"owner\",\"type\":\"address\"}],\"stateMutability\":\"nonpayable\",\"type\":\"function\",\"name\":\"createFor\",\"outputs\":[{\"internalType\":\"uint256\",\"name\":\"projectId\",\"type\":\"uint256\"}]},{\"inputs\":[{\"internalType\":\"address\",\"name\":\"delegatee\",\"type\":\"address\"}],\"stateMutability\":\"nonpayable\",\"type\":\"function\",\"name\":\"delegate\"},{\"inputs\":[{\"internalType\":\"address\",\"name\":\"delegatee\",\"type\":\"address\"},{\"internalType\":\"uint256\",\"name\":\"nonce\",\"type\":\"uint256\"},{\"internalType\":\"uint256\",\"name\":\"expiry\",\"type\":\"uint256\"},{\"internalType\":\"uint8\",\"name\":\"v\",\"type\":\"uint8\"},{\"internalType\":\"bytes32\",\"name\":\"r\",\"type\":\"bytes32\"},{\"internalType\":\"bytes32\",\"name\":\"s\",\"type\":\"bytes32\"}],\"stateMutability\":\"nonpayable\",\"type\":\"function\",\"name\":\"delegateBySig\"},{\"inputs\":[{\"internalType\":\"address\",\"name\":\"account\",\"type\":\"address\"}],\"stateMutability\":\"view\",\"type\":\"function\",\"name\":\"delegates\",\"outputs\":[{\"internalType\":\"address\",\"name\":\"\",\"type\":\"address\"}]},{\"inputs\":[],\"stateMutability\":\"view\",\"type\":\"function\",\"name\":\"eip712Domain\",\"outputs\":[{\"internalType\":\"bytes1\",\"name\":\"fields\",\"type\":\"bytes1\"},{\"internalType\":\"string\",\"name\":\"name\",\"type\":\"string\"},{\"internalType\":\"string\",\"name\":\"version\",\"type\":\"string\"},{\"internalType\":\"uint256\",\"name\":\"chainId\",\"type\":\"uint256\"},{\"internalType\":\"address\",\"name\":\"verifyingContract\",\"type\":\"address\"},{\"internalType\":\"bytes32\",\"name\":\"salt\",\"type\":\"bytes32\"},{\"internalType\":\"uint256[]\",\"name\":\"extensions\",\"type\":\"uint256[]\"}]},{\"inputs\":[{\"internalType\":\"uint256\",\"name\":\"tokenId\",\"type\":\"uint256\"}],\"stateMutability\":\"view\",\"type\":\"function\",\"name\":\"getApproved\",\"outputs\":[{\"internalType\":\"address\",\"name\":\"\",\"type\":\"address\"}]},{\"inputs\":[{\"internalType\":\"uint256\",\"name\":\"timepoint\",\"type\":\"uint256\"}],\"stateMutability\":\"view\",\"type\":\"function\",\"name\":\"getPastTotalSupply\",\"outputs\":[{\"internalType\":\"uint256\",\"name\":\"\",\"type\":\"uint256\"}]},{\"inputs\":[{\"internalType\":\"address\",\"name\":\"account\",\"type\":\"address\"},{\"internalType\":\"uint256\",\"name\":\"timepoint\",\"type\":\"uint256\"}],\"stateMutability\":\"view\",\"type\":\"function\",\"name\":\"getPastVotes\",\"outputs\":[{\"internalType\":\"uint256\",\"name\":\"\",\"type\":\"uint256\"}]},{\"inputs\":[{\"internalType\":\"address\",\"name\":\"account\",\"type\":\"address\"}],\"stateMutability\":\"view\",\"type\":\"function\",\"name\":\"getVotes\",\"outputs\":[{\"internalType\":\"uint256\",\"name\":\"\",\"type\":\"uint256\"}]},{\"inputs\":[{\"internalType\":\"address\",\"name\":\"owner\",\"type\":\"address\"},{\"internalType\":\"address\",\"name\":\"operator\",\"type\":\"address\"}],\"stateMutability\":\"view\",\"type\":\"function\",\"name\":\"isApprovedForAll\",\"outputs\":[{\"internalType\":\"bool\",\"name\":\"\",\"type\":\"bool\"}]},{\"inputs\":[],\"stateMutability\":\"view\",\"type\":\"function\",\"name\":\"name\",\"outputs\":[{\"internalType\":\"string\",\"name\":\"\",\"type\":\"string\"}]},{\"inputs\":[{\"internalType\":\"address\",\"name\":\"owner\",\"type\":\"address\"}],\"stateMutability\":\"view\",\"type\":\"function\",\"name\":\"nonces\",\"outputs\":[{\"internalType\":\"uint256\",\"name\":\"\",\"type\":\"uint256\"}]},{\"inputs\":[],\"stateMutability\":\"view\",\"type\":\"function\",\"name\":\"owner\",\"outputs\":[{\"internalType\":\"address\",\"name\":\"\",\"type\":\"address\"}]},{\"inputs\":[{\"internalType\":\"uint256\",\"name\":\"tokenId\",\"type\":\"uint256\"}],\"stateMutability\":\"view\",\"type\":\"function\",\"name\":\"ownerOf\",\"outputs\":[{\"internalType\":\"address\",\"name\":\"\",\"type\":\"address\"}]},{\"inputs\":[],\"stateMutability\":\"nonpayable\",\"type\":\"function\",\"name\":\"renounceOwnership\"},{\"inputs\":[{\"internalType\":\"address\",\"name\":\"from\",\"type\":\"address\"},{\"internalType\":\"address\",\"name\":\"to\",\"type\":\"address\"},{\"internalType\":\"uint256\",\"name\":\"tokenId\",\"type\":\"uint256\"}],\"stateMutability\":\"nonpayable\",\"type\":\"function\",\"name\":\"safeTransferFrom\"},{\"inputs\":[{\"internalType\":\"address\",\"name\":\"from\",\"type\":\"address\"},{\"internalType\":\"address\",\"name\":\"to\",\"type\":\"address\"},{\"internalType\":\"uint256\",\"name\":\"tokenId\",\"type\":\"uint256\"},{\"internalType\":\"bytes\",\"name\":\"data\",\"type\":\"bytes\"}],\"stateMutability\":\"nonpayable\",\"type\":\"function\",\"name\":\"safeTransferFrom\"},{\"inputs\":[{\"internalType\":\"address\",\"name\":\"operator\",\"type\":\"address\"},{\"internalType\":\"bool\",\"name\":\"approved\",\"type\":\"bool\"}],\"stateMutability\":\"nonpayable\",\"type\":\"function\",\"name\":\"setApprovalForAll\"},{\"inputs\":[{\"internalType\":\"contract IJBTokenUriResolver\",\"name\":\"newResolver\",\"type\":\"address\"}],\"stateMutability\":\"nonpayable\",\"type\":\"function\",\"name\":\"setTokenUriResolver\"},{\"inputs\":[{\"internalType\":\"bytes4\",\"name\":\"interfaceId\",\"type\":\"bytes4\"}],\"stateMutability\":\"view\",\"type\":\"function\",\"name\":\"supportsInterface\",\"outputs\":[{\"internalType\":\"bool\",\"name\":\"\",\"type\":\"bool\"}]},{\"inputs\":[],\"stateMutability\":\"view\",\"type\":\"function\",\"name\":\"symbol\",\"outputs\":[{\"internalType\":\"string\",\"name\":\"\",\"type\":\"string\"}]},{\"inputs\":[{\"internalType\":\"uint256\",\"name\":\"projectId\",\"type\":\"uint256\"}],\"stateMutability\":\"view\",\"type\":\"function\",\"name\":\"tokenURI\",\"outputs\":[{\"internalType\":\"string\",\"name\":\"\",\"type\":\"string\"}]},{\"inputs\":[],\"stateMutability\":\"view\",\"type\":\"function\",\"name\":\"tokenUriResolver\",\"outputs\":[{\"internalType\":\"contract IJBTokenUriResolver\",\"name\":\"\",\"type\":\"address\"}]},{\"inputs\":[{\"internalType\":\"address\",\"name\":\"from\",\"type\":\"address\"},{\"internalType\":\"address\",\"name\":\"to\",\"type\":\"address\"},{\"internalType\":\"uint256\",\"name\":\"tokenId\",\"type\":\"uint256\"}],\"stateMutability\":\"nonpayable\",\"type\":\"function\",\"name\":\"transferFrom\"},{\"inputs\":[{\"internalType\":\"address\",\"name\":\"newOwner\",\"type\":\"address\"}],\"stateMutability\":\"nonpayable\",\"type\":\"function\",\"name\":\"transferOwnership\"}],\"devdoc\":{\"kind\":\"dev\",\"methods\":{\"CLOCK_MODE()\":{\"details\":\"Machine-readable description of the clock as specified in EIP-6372.\"},\"approve(address,uint256)\":{\"details\":\"See {IERC721-approve}.\"},\"balanceOf(address)\":{\"details\":\"See {IERC721-balanceOf}.\"},\"clock()\":{\"details\":\"Clock used for flagging checkpoints. Can be overridden to implement timestamp based checkpoints (and voting), in which case {CLOCK_MODE} should be overridden as well to match.\"},\"constructor\":{\"params\":{\"feeProjectOwner\":\"The address that will receive the fee-project. If `address(0)` the fee-project will not be minted.\",\"owner\":\"The owner of the contract who can set metadata.\"}},\"createFor(address)\":{\"details\":\"Anyone can create a project on an owner's behalf.\",\"params\":{\"owner\":\"The address that will be the owner of the project.\"},\"returns\":{\"projectId\":\"The token ID of the newly created project.\"}},\"delegate(address)\":{\"details\":\"Delegates votes from the sender to `delegatee`.\"},\"delegateBySig(address,uint256,uint256,uint8,bytes32,bytes32)\":{\"details\":\"Delegates votes from signer to `delegatee`.\"},\"delegates(address)\":{\"details\":\"Returns the delegate that `account` has chosen.\"},\"eip712Domain()\":{\"details\":\"See {IERC-5267}.\"},\"getApproved(uint256)\":{\"details\":\"See {IERC721-getApproved}.\"},\"getPastTotalSupply(uint256)\":{\"details\":\"Returns the total supply of votes available at a specific moment in the past. If the `clock()` is configured to use block numbers, this will return the value at the end of the corresponding block. NOTE: This value is the sum of all available votes, which is not necessarily the sum of all delegated votes. Votes that have not been delegated are still part of total supply, even though they would not participate in a vote. Requirements: - `timepoint` must be in the past. If operating using block numbers, the block must be already mined.\"},\"getPastVotes(address,uint256)\":{\"details\":\"Returns the amount of votes that `account` had at a specific moment in the past. If the `clock()` is configured to use block numbers, this will return the value at the end of the corresponding block. Requirements: - `timepoint` must be in the past. If operating using block numbers, the block must be already mined.\"},\"getVotes(address)\":{\"details\":\"Returns the current amount of votes that `account` has.\"},\"isApprovedForAll(address,address)\":{\"details\":\"See {IERC721-isApprovedForAll}.\"},\"name()\":{\"details\":\"See {IERC721Metadata-name}.\"},\"nonces(address)\":{\"details\":\"Returns the next unused nonce for an address.\"},\"owner()\":{\"details\":\"Returns the address of the current owner.\"},\"ownerOf(uint256)\":{\"details\":\"See {IERC721-ownerOf}.\"},\"renounceOwnership()\":{\"details\":\"Leaves the contract without owner. It will not be possible to call `onlyOwner` functions. Can only be called by the current owner. NOTE: Renouncing ownership will leave the contract without an owner, thereby disabling any functionality that is only available to the owner.\"},\"safeTransferFrom(address,address,uint256)\":{\"details\":\"See {IERC721-safeTransferFrom}.\"},\"safeTransferFrom(address,address,uint256,bytes)\":{\"details\":\"See {IERC721-safeTransferFrom}.\"},\"setApprovalForAll(address,bool)\":{\"details\":\"See {IERC721-setApprovalForAll}.\"},\"setTokenUriResolver(address)\":{\"params\":{\"newResolver\":\"The address of the new resolver.\"}},\"supportsInterface(bytes4)\":{\"details\":\"See {IERC165-supportsInterface}.\",\"params\":{\"interfaceId\":\"The ID of the interface to check for adherence to.\"},\"returns\":{\"_0\":\"A flag indicating if the provided interface ID is supported.\"}},\"symbol()\":{\"details\":\"See {IERC721Metadata-symbol}.\"},\"tokenURI(uint256)\":{\"params\":{\"projectId\":\"The ID of the project to get a URI of.\"},\"returns\":{\"_0\":\"The token URI to use for the provided `projectId`.\"}},\"transferFrom(address,address,uint256)\":{\"details\":\"See {IERC721-transferFrom}.\"},\"transferOwnership(address)\":{\"details\":\"Transfers ownership of the contract to a new account (`newOwner`). Can only be called by the current owner.\"}},\"version\":1},\"userdoc\":{\"kind\":\"user\",\"methods\":{\"count()\":{\"notice\":\"The number of projects that have been created using this contract.\"},\"createFor(address)\":{\"notice\":\"Create a new project for the specified owner, which mints an NFT (ERC-721) into their wallet.\"},\"setTokenUriResolver(address)\":{\"notice\":\"Sets the address of the resolver used to retrieve the tokenURI of projects.\"},\"supportsInterface(bytes4)\":{\"notice\":\"Indicates whether this contract adheres to the specified interface.\"},\"tokenURI(uint256)\":{\"notice\":\"Returns the URI where the ERC-721 standard JSON of a project is hosted.\"},\"tokenUriResolver()\":{\"notice\":\"The contract resolving each project ID to its ERC721 URI.\"}},\"version\":1}},\"settings\":{\"remappings\":[\"@bananapus/=node_modules/@bananapus/\",\"@chainlink/=node_modules/@chainlink/\",\"@eth-optimism/=node_modules/@eth-optimism/\",\"@openzeppelin/=node_modules/@openzeppelin/\",\"@prb/=node_modules/@prb/\",\"@scroll-tech/=node_modules/@scroll-tech/\",\"@sphinx-labs/contracts/=lib/sphinx/packages/contracts/contracts/foundry/\",\"@uniswap/=node_modules/@uniswap/\",\"ds-test/=lib/forge-std/lib/ds-test/src/\",\"forge-std/=lib/forge-std/src/\",\"hardhat/=node_modules/hardhat/\",\"solmate/=node_modules/solmate/\",\"sphinx/=lib/sphinx/packages/contracts/contracts/forge-std/src/\"],\"optimizer\":{\"enabled\":true,\"runs\":200},\"metadata\":{\"bytecodeHash\":\"ipfs\"},\"compilationTarget\":{\"src/JBProjects.sol\":\"JBProjects\"},\"evmVersion\":\"paris\",\"libraries\":{}},\"sources\":{\"node_modules/@openzeppelin/contracts/access/Ownable.sol\":{\"keccak256\":\"0xff6d0bb2e285473e5311d9d3caacb525ae3538a80758c10649a4d61029b017bb\",\"urls\":[\"bzz-raw://8ed324d3920bb545059d66ab97d43e43ee85fd3bd52e03e401f020afb0b120f6\",\"dweb:/ipfs/QmfEckWLmZkDDcoWrkEvMWhms66xwTLff9DDhegYpvHo1a\"],\"license\":\"MIT\"},\"node_modules/@openzeppelin/contracts/governance/utils/IVotes.sol\":{\"keccak256\":\"0x5e2b397ae88fd5c68e4f6762eb9f65f65c36702eb57796495f471d024ce70947\",\"urls\":[\"bzz-raw://348fc8e291d54314bb22437b532f443d5dbfb80c8cc9591567c1af6554ccf856\",\"dweb:/ipfs/QmP8ZTyitZinxcpwAHeYHhwj7u21zPpKXSiww38V74sXC2\"],\"license\":\"MIT\"},\"node_modules/@openzeppelin/contracts/governance/utils/Votes.sol\":{\"keccak256\":\"0xb8f69828d41b3594afd7a8c6393565901c205d8b5baf5bd2e42dbac637172979\",\"urls\":[\"bzz-raw://c790253821191ac46b2050d87df820d4209871f90c616381e2c2c00ff3eaac34\",\"dweb:/ipfs/QmcPETTyuZBzDRL39JNXj3SBMdx3Y9o4fPQLSZ27py5Jim\"],\"license\":\"MIT\"},\"node_modules/@openzeppelin/contracts/interfaces/IERC5267.sol\":{\"keccak256\":\"0x92aa1df62dc3d33f1656d63bede0923e0df0b706ad4137c8b10b0a8fe549fd92\",\"urls\":[\"bzz-raw://c5c0f29195ad64cbe556da8e257dac8f05f78c53f90323c0d2accf8e6922d33a\",\"dweb:/ipfs/QmQ61TED8uaCZwcbh8KkgRSsCav7x7HbcGHwHts3U4DmUP\"],\"license\":\"MIT\"},\"node_modules/@openzeppelin/contracts/interfaces/IERC5805.sol\":{\"keccak256\":\"0x4b9b89f91adbb7d3574f85394754cfb08c5b4eafca8a7061e2094a019ab8f818\",\"urls\":[\"bzz-raw://7373d5dbb8eb2381aa0883a456fac89283fcaf52f42fa805d4188f270716742a\",\"dweb:/ipfs/QmVnZDmT4ABvNhRJMaQnbCzsCA8HpyHPVaxi4fCi92LFv2\"],\"license\":\"MIT\"},\"node_modules/@openzeppelin/contracts/interfaces/IERC6372.sol\":{\"keccak256\":\"0xeb2857b7dafb7e0d8526dbfe794e6c047df2851c9e6ee91dc4a55f3c34af5d33\",\"urls\":[\"bzz-raw://49bf13f6c2a38a9bcc7b852d4e2b9cebb4068b832642cce61069cdb5f06bb2fb\",\"dweb:/ipfs/QmdKAJVE7rR2kENCZnEM1yKswrGii7WuE9gZpsQvnXJhwn\"],\"license\":\"MIT\"},\"node_modules/@openzeppelin/contracts/interfaces/draft-IERC6093.sol\":{\"keccak256\":\"0x60c65f701957fdd6faea1acb0bb45825791d473693ed9ecb34726fdfaa849dd7\",\"urls\":[\"bzz-raw://ea290300e0efc4d901244949dc4d877fd46e6c5e43dc2b26620e8efab3ab803f\",\"dweb:/ipfs/QmcLLJppxKeJWqHxE2CUkcfhuRTgHSn8J4kijcLa5MYhSt\"],\"license\":\"MIT\"},\"node_modules/@openzeppelin/contracts/token/ERC721/ERC721.sol\":{\"keccak256\":\"0x13dd061770956c8489b80cfc89d9cdfc8ea2783d953691ea037a380731d52784\",\"urls\":[\"bzz-raw://ed37f0f86e7fe31659e48c3a2a5920a92dd7f13c85cf8991fb79fe5f01e08efd\",\"dweb:/ipfs/QmUtm9bQGvjr9hHGwkPWrbgFmVqzaJcxjkaYDex2oGsonS\"],\"license\":\"MIT\"},\"node_modules/@openzeppelin/contracts/token/ERC721/IERC721.sol\":{\"keccak256\":\"0x5ef46daa3b58ef2702279d514780316efaa952915ee1aa3396f041ee2982b0b4\",\"urls\":[\"bzz-raw://2f8f2a76e23b02fc69e8cd24c3cb47da6c7af3a2d6c3a382f8ac25c6e094ade7\",\"dweb:/ipfs/QmPV4ZS4tPVv4mTCf9ejyZ1ai57EEibDRj7mN2ARDCLV5n\"],\"license\":\"MIT\"},\"node_modules/@openzeppelin/contracts/token/ERC721/IERC721Receiver.sol\":{\"keccak256\":\"0x7f7a26306c79a65fb8b3b6c757cd74660c532cd8a02e165488e30027dd34ca49\",\"urls\":[\"bzz-raw://d01e0b2b837ee2f628545e54d8715b49c7ef2befd08356c2e7f6c50dde8a1c22\",\"dweb:/ipfs/QmWBAn6y2D1xgftci97Z3qR9tQnkvwQpYwFwkTvDMvqU4i\"],\"license\":\"MIT\"},\"node_modules/@openzeppelin/contracts/token/ERC721/extensions/ERC721Votes.sol\":{\"keccak256\":\"0x51eec12bef5f18ea0bad353fbdc227c67b9082d1b459f7c87f47711ad152b0b3\",\"urls\":[\"bzz-raw://3f9142b8e720fa76191a966be6fd93a2a4357f5ac86bbb5cb050e53add32bfbe\",\"dweb:/ipfs/QmdFWtPT9PrMpQkExuDLCAELqA8yfYjQpfWKymdHdRTy2T\"],\"license\":\"MIT\"},\"node_modules/@openzeppelin/contracts/token/ERC721/extensions/IERC721Metadata.sol\":{\"keccak256\":\"0x37d1aaaa5a2908a09e9dcf56a26ddf762ecf295afb5964695937344fc6802ce1\",\"urls\":[\"bzz-raw://ed0bfc1b92153c5000e50f4021367b931bbe96372ac6facec3c4961b72053d02\",\"dweb:/ipfs/Qmbwp8VDerjS5SV1quwHH1oMXxPQ93fzfLVqJ2RCqbowGE\"],\"license\":\"MIT\"},\"node_modules/@openzeppelin/contracts/utils/Context.sol\":{\"keccak256\":\"0x493033a8d1b176a037b2cc6a04dad01a5c157722049bbecf632ca876224dd4b2\",\"urls\":[\"bzz-raw://6a708e8a5bdb1011c2c381c9a5cfd8a9a956d7d0a9dc1bd8bcdaf52f76ef2f12\",\"dweb:/ipfs/Qmax9WHBnVsZP46ZxEMNRQpLQnrdE4dK8LehML1Py8FowF\"],\"license\":\"MIT\"},\"node_modules/@openzeppelin/contracts/utils/Nonces.sol\":{\"keccak256\":\"0x0082767004fca261c332e9ad100868327a863a88ef724e844857128845ab350f\",\"urls\":[\"bzz-raw://132dce9686a54e025eb5ba5d2e48208f847a1ec3e60a3e527766d7bf53fb7f9e\",\"dweb:/ipfs/QmXn1a2nUZMpu2z6S88UoTfMVtY2YNh86iGrzJDYmMkKeZ\"],\"license\":\"MIT\"},\"node_modules/@openzeppelin/contracts/utils/ShortStrings.sol\":{\"keccak256\":\"0x18a7171df639a934592915a520ecb97c5bbc9675a1105607aac8a94e72bf62c6\",\"urls\":[\"bzz-raw://7478e1f13da69a2867ccd883001d836b75620362e743f196376d63ed0c422a1c\",\"dweb:/ipfs/QmWywcQ9TNfwtoqAxbn25d8C5VrV12PrPS9UjtGe6pL2BA\"],\"license\":\"MIT\"},\"node_modules/@openzeppelin/contracts/utils/StorageSlot.sol\":{\"keccak256\":\"0x32ba59b4b7299237c8ba56319110989d7978a039faf754793064e967e5894418\",\"urls\":[\"bzz-raw://1ae50c8b562427df610cc4540c9bf104acca7ef8e2dcae567ae7e52272281e9c\",\"dweb:/ipfs/QmTHiadFCSJUPpRjNegc5SahmeU8bAoY8i9Aq6tVscbcKR\"],\"license\":\"MIT\"},\"node_modules/@openzeppelin/contracts/utils/Strings.sol\":{\"keccak256\":\"0x55f102ea785d8399c0e58d1108e2d289506dde18abc6db1b7f68c1f9f9bc5792\",\"urls\":[\"bzz-raw://6e52e0a7765c943ef14e5bcf11e46e6139fa044be564881378349236bf2e3453\",\"dweb:/ipfs/QmZEeeXoFPW47amyP35gfzomF9DixqqTEPwzBakv6cZw6i\"],\"license\":\"MIT\"},\"node_modules/@openzeppelin/contracts/utils/cryptography/ECDSA.sol\":{\"keccak256\":\"0xeed0a08b0b091f528356cbc7245891a4c748682d4f6a18055e8e6ca77d12a6cf\",\"urls\":[\"bzz-raw://ba80ba06c8e6be852847e4c5f4492cef801feb6558ae09ed705ff2e04ea8b13c\",\"dweb:/ipfs/QmXRJDv3xHLVQCVXg1ZvR35QS9sij5y9NDWYzMfUfAdTHF\"],\"license\":\"MIT\"},\"node_modules/@openzeppelin/contracts/utils/cryptography/EIP712.sol\":{\"keccak256\":\"0x999f705a027ed6dc2d4e0df2cc4a509852c6bfd11de1c8161bf88832d0503fd0\",\"urls\":[\"bzz-raw://0798def67258d9a3cc20b2b4da7ebf351a5cefe0abfdd665d2d81f8e32f89b21\",\"dweb:/ipfs/QmPEvJosnPfzHNjKvCv2D3891mA2Ww8eUwkqrxBjuYdHCt\"],\"license\":\"MIT\"},\"node_modules/@openzeppelin/contracts/utils/cryptography/MessageHashUtils.sol\":{\"keccak256\":\"0xba333517a3add42cd35fe877656fc3dfcc9de53baa4f3aabbd6d12a92e4ea435\",\"urls\":[\"bzz-raw://2ceacff44c0fdc81e48e0e0b1db87a2076d3c1fb497341de077bf1da9f6b406c\",\"dweb:/ipfs/QmRUo1muMRAewxrKQ7TkXUtknyRoR57AyEkoPpiuZQ8FzX\"],\"license\":\"MIT\"},\"node_modules/@openzeppelin/contracts/utils/introspection/ERC165.sol\":{\"keccak256\":\"0x9e8778b14317ba9e256c30a76fd6c32b960af621987f56069e1e819c77c6a133\",\"urls\":[\"bzz-raw://1777404f1dcd0fac188e55a288724ec3c67b45288e49cc64723e95e702b49ab8\",\"dweb:/ipfs/QmZFdC626GButBApwDUvvTnUzdinevC3B24d7yyh57XkiA\"],\"license\":\"MIT\"},\"node_modules/@openzeppelin/contracts/utils/introspection/IERC165.sol\":{\"keccak256\":\"0x4296879f55019b23e135000eb36896057e7101fb7fb859c5ef690cf14643757b\",\"urls\":[\"bzz-raw://87b3541437c8c443ccd36795e56a338ed12855eec17f8da624511b8d1a7e14df\",\"dweb:/ipfs/QmeJQCtZrQjtJLr6u7ZHWeH3pBnjtLWzvRrKViAi7UZqxL\"],\"license\":\"MIT\"},\"node_modules/@openzeppelin/contracts/utils/math/Math.sol\":{\"keccak256\":\"0x005ec64c6313f0555d59e278f9a7a5ab2db5bdc72a027f255a37c327af1ec02d\",\"urls\":[\"bzz-raw://4ece9f0b9c8daca08c76b6b5405a6446b6f73b3a15fab7ff56e296cbd4a2c875\",\"dweb:/ipfs/QmQyRpyPRL5SQuAgj6SHmbir3foX65FJjbVTTQrA2EFg6L\"],\"license\":\"MIT\"},\"node_modules/@openzeppelin/contracts/utils/math/SafeCast.sol\":{\"keccak256\":\"0xe19a4d5f31d2861e7344e8e535e2feafb913d806d3e2b5fe7782741a2a7094fe\",\"urls\":[\"bzz-raw://4aed79c0fa6f0546ed02f2f683e8f77f0fd2ed7eb34d8bbf3d373c9a6d95b13c\",\"dweb:/ipfs/QmWqVz6UAVqmnWU5pqYPt1o6iDEZyPaBraAA3rKfTTSfYj\"],\"license\":\"MIT\"},\"node_modules/@openzeppelin/contracts/utils/math/SignedMath.sol\":{\"keccak256\":\"0x5f7e4076e175393767754387c962926577f1660dd9b810187b9002407656be72\",\"urls\":[\"bzz-raw://7d533a1c97cd43a57cd9c465f7ee8dd0e39ae93a8fb8ff8e5303a356b081cdcc\",\"dweb:/ipfs/QmVBEei6aTnvYNZp2CHYVNKyZS4q1KkjANfY39WVXZXVoT\"],\"license\":\"MIT\"},\"node_modules/@openzeppelin/contracts/utils/structs/Checkpoints.sol\":{\"keccak256\":\"0xbdc5e074d7dd6678f67e92b1a51a20226801a407b0e1af3da367c5d1ff4519ad\",\"urls\":[\"bzz-raw://a36cca6b22fff3db16fc789ff6c60eea71d4b156065d4d0c83a0bc5e91a77a8b\",\"dweb:/ipfs/QmYN3exd5AemxjBrN8XMB1p5LbbE16uC3sjbYjwi8AjcGR\"],\"license\":\"MIT\"},\"node_modules/@openzeppelin/contracts/utils/types/Time.sol\":{\"keccak256\":\"0xc7755af115020049e4140f224f9ee88d7e1799ffb0646f37bf0df24bf6213f58\",\"urls\":[\"bzz-raw://7f09bf94d5274334ec021f61a04659db303f31e60460e14b709c9bf187740111\",\"dweb:/ipfs/QmNvgomZYUwFAt4cZbPWAiTeSZQreGehY9BK5xyVJsUttb\"],\"license\":\"MIT\"},\"src/JBProjects.sol\":{\"keccak256\":\"0x4080dc08a3dfe2f7fba07a6f4dd3b58b0e08b37c91beda86875af3d7d117f2f2\",\"urls\":[\"bzz-raw://38b3ea6b199888ad4b4c31d4c52f640d67009f7a9c19c1a05321b4dd9d1a5823\",\"dweb:/ipfs/QmP1aro7BsCcZUBeqNCXpG6a3dB5eSmCf25qUC2KeCaFxy\"],\"license\":\"MIT\"},\"src/interfaces/IJBProjects.sol\":{\"keccak256\":\"0x735c2fb8f1fa827f054ee77f7a0ae4b312656217acb75b624d2c8fd9dc40151b\",\"urls\":[\"bzz-raw://ee7fc92299a8633a80693ae63ab494dcd125f1789487a54a39dc0e5696e5996f\",\"dweb:/ipfs/QmX7YJD4pS2XhgQb7p3JbBAXynT7YGPXcZe92BiWWRrsCL\"],\"license\":\"MIT\"},\"src/interfaces/IJBTokenUriResolver.sol\":{\"keccak256\":\"0xfa5cb00dcd6085d1ef912d071fe73c63f9478a2cd0f9d8bddaf659b6af2d0967\",\"urls\":[\"bzz-raw://282e4e7c342d65f77cde0e9a08fcaf20ef5cf379c7a48b639842c0ffd0b2afb8\",\"dweb:/ipfs/QmbnN3PEQeZaXdPLT75V1J79kMg7KqSMru37RHrL3z8Yf2\"],\"license\":\"MIT\"}},\"version\":1}",
			"args": [
				"0x1081B5AA9D9d4862A3dA4d469433FB36Ed80FA2A",
				"0x1081B5AA9D9d4862A3dA4d469433FB36Ed80FA2A"
			],
			"bytecode": "0x6101606040526000600d553480156200001757600080fd5b5060405162003553380380620035538339810160408190526200003a9162000da7565b81604051806040016040528060118152602001704a75696365626f782050726f6a6563747360781b815250604051806040016040528060018152602001603160f81b815250604051806040016040528060118152602001704a75696365626f782050726f6a6563747360781b81525060405180604001604052806008815260200167094aa92868a849eb60c31b8152508160009081620000db919062000e85565b506001620000ea828262000e85565b50620000fc9150839050600662000205565b610120526200010d81600762000205565b61014052815160208084019190912060e052815190820120610100524660a0526200019b60e05161010051604080517f8b73c3c69bb8fe3d512ecc4cf759cc79239f7b179b0ffacaa9a75d522b39400f60208201529081019290925260608201524660808201523060a082015260009060c00160405160208183030381529060405280519060200120905090565b60805250503060c0526001600160a01b038116620001d457604051631e4fbdf760e01b8152600060048201526024015b60405180910390fd5b620001df816200023e565b506001600160a01b03811615620001fd57620001fb8162000290565b505b5050620010d3565b600060208351101562000225576200021d8362000303565b905062000238565b8162000232848262000e85565b5060ff90505b92915050565b600c80546001600160a01b038381166001600160a01b0319831681179093556040519116919082907f8be0079c531659141344cd1fd0a4f28419497f9722a3daafe3b4186f6b6457e090600090a35050565b6000600d60008154620002a39062000f67565b91829055509050620002b6828262000346565b6001600160a01b038216817f365b3162cd780731fc55a794b59494d472bc2af701007f581843a70673814698336040516001600160a01b03909116815260200160405180910390a3919050565b600080829050601f8151111562000331578260405163305a27a960e01b8152600401620001cb919062000fcb565b80516200033e8262000fe0565b179392505050565b620003688282604051806020016040528060008152506200036c60201b60201c565b5050565b6200037883836200038c565b620003876000848484620003f6565b505050565b6001600160a01b038216620003b857604051633250574960e11b815260006004820152602401620001cb565b6000620003c78383836200052d565b90506001600160a01b0381161562000387576040516339e3563760e11b815260006004820152602401620001cb565b6001600160a01b0383163b156200052757604051630a85bd0160e11b81526001600160a01b0384169063150b7a02906200043b90339088908790879060040162001005565b6020604051808303816000875af192505050801562000479575060408051601f3d908101601f19168201909252620004769181019062001044565b60015b620004e7573d808015620004aa576040519150601f19603f3d011682016040523d82523d6000602084013e620004af565b606091505b508051600003620004df57604051633250574960e11b81526001600160a01b0385166004820152602401620001cb565b805181602001fd5b6001600160e01b03198116630a85bd0160e11b146200052557604051633250574960e11b81526001600160a01b0385166004820152602401620001cb565b505b50505050565b6000806200053d85858562000555565b90506200054d8186600162000654565b949350505050565b6000828152600260205260408120546001600160a01b0390811690831615620005855762000585818486620006ec565b6001600160a01b03811615620005c557620005a4600085818062000756565b6001600160a01b038116600090815260036020526040902080546000190190555b6001600160a01b03851615620005f5576001600160a01b0385166000908152600360205260409020805460010190555b60008481526002602052604080822080546001600160a01b0319166001600160a01b0389811691821790925591518793918516917fddf252ad1be2c89b69c2b068fc378daa952ba7f163c4a11628f55a4df523b3ef91a4949350505050565b6001600160a01b038316620006895762000686600b62000b316200088460201b17620006808462000899565b620008d3565b50505b6001600160a01b038216620006b857620006b5600b62000b3d6200091060201b17620006808462000899565b50505b6001600160a01b0383811660009081526009602052604080822054858416835291205462000387929182169116836200091e565b620006f983838362000a85565b62000387576001600160a01b0383166200072a57604051637e27328960e01b815260048101829052602401620001cb565b60405163177e802f60e01b81526001600160a01b038316600482015260248101829052604401620001cb565b80806200076b57506001600160a01b03821615155b15620008545760006200077e8462000b0b565b90506001600160a01b03831615801590620007ab5750826001600160a01b0316816001600160a01b031614155b8015620007de57506001600160a01b0380821660009081526005602090815260408083209387168352929052205460ff16155b15620008095760405163a9fbf51f60e01b81526001600160a01b0384166004820152602401620001cb565b8115620008525783856001600160a01b0316826001600160a01b03167f8c5be1e5ebec7d5bd14f71427d1e84f3dd0314c0f7b2291e5b200ac8c7c3b92560405160405180910390a45b505b5050600090815260046020526040902080546001600160a01b0319166001600160a01b0392909216919091179055565b600062000892828462001070565b9392505050565b60006001600160d01b03821115620008cf576040516306dfcc6560e41b815260d0600482015260248101839052604401620001cb565b5090565b60008062000903620008e462000b46565b620008fa620008f38862000b57565b868860201c565b87919062000ba6565b915091505b935093915050565b60006200089282846200109a565b816001600160a01b0316836001600160a01b031614158015620009415750600081115b1562000387576001600160a01b03831615620009e4576001600160a01b0383166000908152600a60209081526040822082916200098f919062000910901b62000b3d17620006808662000899565b6001600160d01b031691506001600160d01b03169150846001600160a01b0316600080516020620035338339815191528383604051620009d9929190918252602082015260400190565b60405180910390a250505b6001600160a01b0382161562000387576001600160a01b0382166000908152600a602090815260408220829162000a2c919062000884901b62000b3117620006808662000899565b6001600160d01b031691506001600160d01b03169150836001600160a01b031660008051602062003533833981519152838360405162000a76929190918252602082015260400190565b60405180910390a25050505050565b60006001600160a01b038316158015906200054d5750826001600160a01b0316846001600160a01b0316148062000ae157506001600160a01b0380851660009081526005602090815260408083209387168352929052205460ff165b806200054d5750506000908152600460205260409020546001600160a01b03908116911614919050565b6000818152600260205260408120546001600160a01b0316806200023857604051637e27328960e01b815260048101849052602401620001cb565b600062000b5262000bb6565b905090565b8054600090801562000b9d5762000b838362000b75600184620010bd565b600091825260209091200190565b54660100000000000090046001600160d01b031662000892565b60009392505050565b6000806200090385858562000bc3565b600062000b524362000d55565b82546000908190801562000cf657600062000be58762000b75600185620010bd565b60408051808201909152905465ffffffffffff80821680845266010000000000009092046001600160d01b03166020840152919250908716101562000c3d57604051632520601d60e01b815260040160405180910390fd5b805165ffffffffffff80881691160362000c91578462000c648862000b75600186620010bd565b80546001600160d01b039290921666010000000000000265ffffffffffff90921691909117905562000ce5565b6040805180820190915265ffffffffffff80881682526001600160d01b0380881660208085019182528b54600181018d5560008d815291909120945191519092166601000000000000029216919091179101555b602001519250839150620009089050565b50506040805180820190915265ffffffffffff80851682526001600160d01b0380851660208085019182528854600181018a5560008a815291822095519251909316660100000000000002919093161792019190915590508162000908565b600065ffffffffffff821115620008cf576040516306dfcc6560e41b81526030600482015260248101839052604401620001cb565b80516001600160a01b038116811462000da257600080fd5b919050565b6000806040838503121562000dbb57600080fd5b62000dc68362000d8a565b915062000dd66020840162000d8a565b90509250929050565b634e487b7160e01b600052604160045260246000fd5b600181811c9082168062000e0a57607f821691505b60208210810362000e2b57634e487b7160e01b600052602260045260246000fd5b50919050565b601f82111562000387576000816000526020600020601f850160051c8101602086101562000e5c5750805b601f850160051c820191505b8181101562000e7d5782815560010162000e68565b505050505050565b81516001600160401b0381111562000ea15762000ea162000ddf565b62000eb98162000eb2845462000df5565b8462000e31565b602080601f83116001811462000ef1576000841562000ed85750858301515b600019600386901b1c1916600185901b17855562000e7d565b600085815260208120601f198616915b8281101562000f225788860151825594840194600190910190840162000f01565b508582101562000f415787850151600019600388901b60f8161c191681555b5050505050600190811b01905550565b634e487b7160e01b600052601160045260246000fd5b60006001820162000f7c5762000f7c62000f51565b5060010190565b6000815180845260005b8181101562000fab5760208185018101518683018201520162000f8d565b506000602082860101526020601f19601f83011685010191505092915050565b60208152600062000892602083018462000f83565b8051602080830151919081101562000e2b5760001960209190910360031b1b16919050565b6001600160a01b03858116825284166020820152604081018390526080606082018190526000906200103a9083018462000f83565b9695505050505050565b6000602082840312156200105757600080fd5b81516001600160e01b0319811681146200089257600080fd5b6001600160d01b0381811683821601908082111562001093576200109362000f51565b5092915050565b6001600160d01b0382811682821603908082111562001093576200109362000f51565b8181038181111562000238576200023862000f51565b60805160a05160c05160e0516101005161012051610140516124056200112e6000396000610e2001526000610df3015260006117e1015260006117b9015260006117140152600061173e0152600061176801526124056000f3fe608060405234801561001057600080fd5b50600436106101da5760003560e01c80637ecebe0011610104578063a22cb465116100a2578063c87b56dd11610071578063c87b56dd14610422578063e131fc0c14610435578063e985e9c514610448578063f2fde38b1461045b57600080fd5b8063a22cb465146103d6578063b88d4fde146103e9578063c0715888146103fc578063c3cda5201461040f57600080fd5b80638e539e8c116100de5780638e539e8c1461038957806391ddadf41461039c57806395d89b41146103bb5780639ab24eb0146103c357600080fd5b80637ecebe001461033457806384b0196e1461035d5780638da5cb5b1461037857600080fd5b80633a46b1a81161017c5780635c19a95c1161014b5780635c19a95c146102f35780636352211e1461030657806370a0823114610319578063715018a61461032c57600080fd5b80633a46b1a81461029957806342842e0e146102ac5780634bf5d7e9146102bf578063587cde1e146102c757600080fd5b8063081812fc116101b8578063081812fc14610233578063095ea7b31461025e57806323b872dd146102735780632407497e1461028657600080fd5b806301ffc9a7146101df57806306661abd1461020757806306fdde031461021e575b600080fd5b6101f26101ed366004611e1d565b61046e565b60405190151581526020015b60405180910390f35b610210600d5481565b6040519081526020016101fe565b610226610499565b6040516101fe9190611e8a565b610246610241366004611e9d565b61052b565b6040516001600160a01b0390911681526020016101fe565b61027161026c366004611ecb565b610554565b005b610271610281366004611ef7565b610563565b610271610294366004611f38565b6105f3565b6102106102a7366004611ecb565b610650565b6102716102ba366004611ef7565b6106d1565b6102266106f1565b6102466102d5366004611f38565b6001600160a01b039081166000908152600960205260409020541690565b610271610301366004611f38565b610769565b610246610314366004611e9d565b610774565b610210610327366004611f38565b61077f565b6102716107c7565b610210610342366004611f38565b6001600160a01b031660009081526008602052604090205490565b6103656107db565b6040516101fe9796959493929190611f55565b600c546001600160a01b0316610246565b610210610397366004611e9d565b610821565b6103a461088b565b60405165ffffffffffff90911681526020016101fe565b61022661089a565b6102106103d1366004611f38565b6108a9565b6102716103e4366004611fee565b6108d9565b6102716103f736600461209b565b6108e4565b61021061040a366004611f38565b6108fb565b61027161041d36600461214a565b61096a565b610226610430366004611e9d565b610a27565b600e54610246906001600160a01b031681565b6101f26104563660046121ac565b610ac5565b610271610469366004611f38565b610af3565b60006001600160e01b03198216630321f74760e01b1480610493575061049382610b49565b92915050565b6060600080546104a8906121da565b80601f01602080910402602001604051908101604052809291908181526020018280546104d4906121da565b80156105215780601f106104f657610100808354040283529160200191610521565b820191906000526020600020905b81548152906001019060200180831161050457829003601f168201915b5050505050905090565b600061053682610b99565b506000828152600460205260409020546001600160a01b0316610493565b61055f828233610bd2565b5050565b6001600160a01b03821661059257604051633250574960e11b8152600060048201526024015b60405180910390fd5b600061059f838333610bdf565b9050836001600160a01b0316816001600160a01b0316146105ed576040516364283d7b60e01b81526001600160a01b0380861660048301526024820184905282166044820152606401610589565b50505050565b6105fb610c03565b600e80546001600160a01b0383166001600160a01b031990911681179091556040805133815290517fe7784d93cfbfa4408e19577e6cc0436f4dbb51214b70e100905dfce9def88c169181900360200190a250565b60008061065b61088b565b90508065ffffffffffff16831061069657604051637669fc0f60e11b81526004810184905265ffffffffffff82166024820152604401610589565b6106c06106a284610c30565b6001600160a01b0386166000908152600a6020526040902090610c67565b6001600160d01b0316949350505050565b6106ec838383604051806020016040528060008152506108e4565b505050565b60606106fb610d1d565b65ffffffffffff1661070b61088b565b65ffffffffffff1614610731576040516301bfc1c560e61b815260040160405180910390fd5b5060408051808201909152601d81527f6d6f64653d626c6f636b6e756d6265722666726f6d3d64656661756c74000000602082015290565b3361055f8183610d28565b600061049382610b99565b60006001600160a01b0382166107ab576040516322718ad960e21b815260006004820152602401610589565b506001600160a01b031660009081526003602052604090205490565b6107cf610c03565b6107d96000610d9a565b565b6000606080600080600060606107ef610dec565b6107f7610e19565b60408051600080825260208201909252600f60f81b9b939a50919850469750309650945092509050565b60008061082c61088b565b90508065ffffffffffff16831061086757604051637669fc0f60e11b81526004810184905265ffffffffffff82166024820152604401610589565b61087b61087384610c30565b600b90610c67565b6001600160d01b03169392505050565b6000610895610d1d565b905090565b6060600180546104a8906121da565b6001600160a01b0381166000908152600a602052604081206108ca90610e46565b6001600160d01b031692915050565b61055f338383610e7f565b6108ef848484610563565b6105ed84848484610f1e565b6000600d6000815461090c9061222a565b9182905550905061091d8282611047565b6001600160a01b038216817f365b3162cd780731fc55a794b59494d472bc2af701007f581843a70673814698336040516001600160a01b03909116815260200160405180910390a3919050565b8342111561098e57604051632341d78760e11b815260048101859052602401610589565b604080517fe48329057bfd03d55e49b547132e39cffd9c1820ad7b9d4c5307691425d15adf60208201526001600160a01b038816918101919091526060810186905260808101859052600090610a0890610a009060a00160405160208183030381529060405280519060200120611061565b85858561108e565b9050610a1481876110bc565b610a1e8188610d28565b50505050505050565b600e546060906001600160a01b031680610a51575050604080516020810190915260008152919050565b604051636d02a25560e11b8152600481018490526001600160a01b0382169063da0544aa90602401600060405180830381865afa158015610a96573d6000803e3d6000fd5b505050506040513d6000823e601f3d908101601f19168201604052610abe9190810190612243565b9392505050565b6001600160a01b03918216600090815260056020908152604080832093909416825291909152205460ff1690565b610afb610c03565b6001600160a01b038116610b2557604051631e4fbdf760e01b815260006004820152602401610589565b610b2e81610d9a565b50565b6000610abe82846122ba565b6000610abe82846122e1565b60006001600160e01b031982166380ac58cd60e01b1480610b7a57506001600160e01b03198216635b5e139f60e01b145b8061049357506301ffc9a760e01b6001600160e01b0319831614610493565b6000818152600260205260408120546001600160a01b03168061049357604051637e27328960e01b815260048101849052602401610589565b6106ec838383600161110f565b600080610bed858585611215565b9050610bfb8186600161130e565b949350505050565b600c546001600160a01b031633146107d95760405163118cdaa760e01b8152336004820152602401610589565b600065ffffffffffff821115610c63576040516306dfcc6560e41b81526030600482015260248101839052604401610589565b5090565b815460009081816005811115610cc6576000610c8284611389565b610c8c9085612301565b60008881526020902090915081015465ffffffffffff9081169087161015610cb657809150610cc4565b610cc1816001612314565b92505b505b6000610cd487878585611471565b90508015610d0f57610cf987610ceb600184612301565b600091825260209091200190565b54600160301b90046001600160d01b0316610d12565b60005b979650505050505050565b600061089543610c30565b6001600160a01b0382811660008181526009602052604080822080548686166001600160a01b0319821681179092559151919094169392849290917f3134e8a2e6d97e929a7e54011ea5485d7d196dd5f0ba4d4ef95803e8e3fc257f9190a46106ec8183610d95866114d3565b6114de565b600c80546001600160a01b038381166001600160a01b0319831681179093556040519116919082907f8be0079c531659141344cd1fd0a4f28419497f9722a3daafe3b4186f6b6457e090600090a35050565b60606108957f00000000000000000000000000000000000000000000000000000000000000006006611645565b60606108957f00000000000000000000000000000000000000000000000000000000000000006007611645565b80546000908015610e7657610e6083610ceb600184612301565b54600160301b90046001600160d01b0316610abe565b60009392505050565b6001600160a01b038216610eb157604051630b61174360e31b81526001600160a01b0383166004820152602401610589565b6001600160a01b03838116600081815260056020908152604080832094871680845294825291829020805460ff191686151590811790915591519182527f17307eab39ab6107e8899845ad3d59bd9653f200f220920489ca2b5937696c31910160405180910390a3505050565b6001600160a01b0383163b156105ed57604051630a85bd0160e11b81526001600160a01b0384169063150b7a0290610f60903390889087908790600401612327565b6020604051808303816000875af1925050508015610f9b575060408051601f3d908101601f19168201909252610f9891810190612364565b60015b611004573d808015610fc9576040519150601f19603f3d011682016040523d82523d6000602084013e610fce565b606091505b508051600003610ffc57604051633250574960e11b81526001600160a01b0385166004820152602401610589565b805181602001fd5b6001600160e01b03198116630a85bd0160e11b1461104057604051633250574960e11b81526001600160a01b0385166004820152602401610589565b5050505050565b61055f8282604051806020016040528060008152506116f0565b600061049361106e611707565b8360405161190160f01b8152600281019290925260228201526042902090565b6000806000806110a088888888611832565b9250925092506110b08282611901565b50909695505050505050565b6001600160a01b03821660009081526008602052604090208054600181019091558181146106ec576040516301d4b62360e61b81526001600160a01b038416600482015260248101829052604401610589565b808061112357506001600160a01b03821615155b156111e557600061113384610b99565b90506001600160a01b0383161580159061115f5750826001600160a01b0316816001600160a01b031614155b801561117257506111708184610ac5565b155b1561119b5760405163a9fbf51f60e01b81526001600160a01b0384166004820152602401610589565b81156111e35783856001600160a01b0316826001600160a01b03167f8c5be1e5ebec7d5bd14f71427d1e84f3dd0314c0f7b2291e5b200ac8c7c3b92560405160405180910390a45b505b5050600090815260046020526040902080546001600160a01b0319166001600160a01b0392909216919091179055565b6000828152600260205260408120546001600160a01b0390811690831615611242576112428184866119ba565b6001600160a01b038116156112805761125f60008560008061110f565b6001600160a01b038116600090815260036020526040902080546000190190555b6001600160a01b038516156112af576001600160a01b0385166000908152600360205260409020805460010190555b60008481526002602052604080822080546001600160a01b0319166001600160a01b0389811691821790925591518793918516917fddf252ad1be2c89b69c2b068fc378daa952ba7f163c4a11628f55a4df523b3ef91a4949350505050565b6001600160a01b03831661133557611332600b610b3161132d84611a1e565b611a52565b50505b6001600160a01b03821661135757611354600b610b3d61132d84611a1e565b50505b6001600160a01b038381166000908152600960205260408082205485841683529120546106ec929182169116836114de565b60008160000361139b57506000919050565b600060016113a884611a8b565b901c6001901b905060018184816113c1576113c1612381565b048201901c905060018184816113d9576113d9612381565b048201901c905060018184816113f1576113f1612381565b048201901c9050600181848161140957611409612381565b048201901c9050600181848161142157611421612381565b048201901c9050600181848161143957611439612381565b048201901c9050600181848161145157611451612381565b048201901c9050610abe8182858161146b5761146b612381565b04611b1f565b60005b818310156114cb5760006114888484611b35565b60008781526020902090915065ffffffffffff86169082015465ffffffffffff1611156114b7578092506114c5565b6114c2816001612314565b93505b50611474565b509392505050565b60006104938261077f565b816001600160a01b0316836001600160a01b0316141580156115005750600081115b156106ec576001600160a01b038316156115a3576001600160a01b0383166000908152600a60205260408120819061153e90610b3d61132d86611a1e565b6001600160d01b031691506001600160d01b03169150846001600160a01b03167fdec2bacdd2f05b59de34da9b523dff8be42e5e38e818c82fdb0bae774387a7248383604051611598929190918252602082015260400190565b60405180910390a250505b6001600160a01b038216156106ec576001600160a01b0382166000908152600a6020526040812081906115dc90610b3161132d86611a1e565b6001600160d01b031691506001600160d01b03169150836001600160a01b03167fdec2bacdd2f05b59de34da9b523dff8be42e5e38e818c82fdb0bae774387a7248383604051611636929190918252602082015260400190565b60405180910390a25050505050565b606060ff831461165f5761165883611b50565b9050610493565b81805461166b906121da565b80601f0160208091040260200160405190810160405280929190818152602001828054611697906121da565b80156116e45780601f106116b9576101008083540402835291602001916116e4565b820191906000526020600020905b8154815290600101906020018083116116c757829003601f168201915b50505050509050610493565b6116fa8383611b8f565b6106ec6000848484610f1e565b6000306001600160a01b037f00000000000000000000000000000000000000000000000000000000000000001614801561176057507f000000000000000000000000000000000000000000000000000000000000000046145b1561178a57507f000000000000000000000000000000000000000000000000000000000000000090565b610895604080517f8b73c3c69bb8fe3d512ecc4cf759cc79239f7b179b0ffacaa9a75d522b39400f60208201527f0000000000000000000000000000000000000000000000000000000000000000918101919091527f000000000000000000000000000000000000000000000000000000000000000060608201524660808201523060a082015260009060c00160405160208183030381529060405280519060200120905090565b600080807f7fffffffffffffffffffffffffffffff5d576e7357a4501ddfe92f46681b20a084111561186d57506000915060039050826118f7565b604080516000808252602082018084528a905260ff891692820192909252606081018790526080810186905260019060a0016020604051602081039080840390855afa1580156118c1573d6000803e3d6000fd5b5050604051601f1901519150506001600160a01b0381166118ed575060009250600191508290506118f7565b9250600091508190505b9450945094915050565b600082600381111561191557611915612397565b0361191e575050565b600182600381111561193257611932612397565b036119505760405163f645eedf60e01b815260040160405180910390fd5b600282600381111561196457611964612397565b036119855760405163fce698f760e01b815260048101829052602401610589565b600382600381111561199957611999612397565b0361055f576040516335e2f38360e21b815260048101829052602401610589565b6119c5838383611bf4565b6106ec576001600160a01b0383166119f357604051637e27328960e01b815260048101829052602401610589565b60405163177e802f60e01b81526001600160a01b038316600482015260248101829052604401610589565b60006001600160d01b03821115610c63576040516306dfcc6560e41b815260d0600482015260248101839052604401610589565b600080611a7e611a6061088b565b611a76611a6c88610e46565b868863ffffffff16565b879190611c57565b915091505b935093915050565b600080608083901c15611aa057608092831c92015b604083901c15611ab257604092831c92015b602083901c15611ac457602092831c92015b601083901c15611ad657601092831c92015b600883901c15611ae857600892831c92015b600483901c15611afa57600492831c92015b600283901c15611b0c57600292831c92015b600183901c156104935760010192915050565b6000818310611b2e5781610abe565b5090919050565b6000611b4460028484186123ad565b610abe90848416612314565b60606000611b5d83611c65565b604080516020808252818301909252919250600091906020820181803683375050509182525060208101929092525090565b6001600160a01b038216611bb957604051633250574960e11b815260006004820152602401610589565b6000611bc783836000610bdf565b90506001600160a01b038116156106ec576040516339e3563760e11b815260006004820152602401610589565b60006001600160a01b03831615801590610bfb5750826001600160a01b0316846001600160a01b03161480611c2e5750611c2e8484610ac5565b80610bfb5750506000908152600460205260409020546001600160a01b03908116911614919050565b600080611a7e858585611c8d565b600060ff8216601f81111561049357604051632cd44ac360e21b815260040160405180910390fd5b825460009081908015611dac576000611cab87610ceb600185612301565b60408051808201909152905465ffffffffffff808216808452600160301b9092046001600160d01b031660208401529192509087161015611cff57604051632520601d60e01b815260040160405180910390fd5b805165ffffffffffff808816911603611d4b5784611d2288610ceb600186612301565b80546001600160d01b0392909216600160301b0265ffffffffffff909216919091179055611d9c565b6040805180820190915265ffffffffffff80881682526001600160d01b0380881660208085019182528b54600181018d5560008d81529190912094519151909216600160301b029216919091179101555b602001519250839150611a839050565b50506040805180820190915265ffffffffffff80851682526001600160d01b0380851660208085019182528854600181018a5560008a815291822095519251909316600160301b029190931617920191909155905081611a83565b6001600160e01b031981168114610b2e57600080fd5b600060208284031215611e2f57600080fd5b8135610abe81611e07565b60005b83811015611e55578181015183820152602001611e3d565b50506000910152565b60008151808452611e76816020860160208601611e3a565b601f01601f19169290920160200192915050565b602081526000610abe6020830184611e5e565b600060208284031215611eaf57600080fd5b5035919050565b6001600160a01b0381168114610b2e57600080fd5b60008060408385031215611ede57600080fd5b8235611ee981611eb6565b946020939093013593505050565b600080600060608486031215611f0c57600080fd5b8335611f1781611eb6565b92506020840135611f2781611eb6565b929592945050506040919091013590565b600060208284031215611f4a57600080fd5b8135610abe81611eb6565b60ff60f81b881681526000602060e06020840152611f7660e084018a611e5e565b8381036040850152611f88818a611e5e565b606085018990526001600160a01b038816608086015260a0850187905284810360c08601528551808252602080880193509091019060005b81811015611fdc57835183529284019291840191600101611fc0565b50909c9b505050505050505050505050565b6000806040838503121561200157600080fd5b823561200c81611eb6565b91506020830135801515811461202157600080fd5b809150509250929050565b634e487b7160e01b600052604160045260246000fd5b604051601f8201601f1916810167ffffffffffffffff8111828210171561206b5761206b61202c565b604052919050565b600067ffffffffffffffff82111561208d5761208d61202c565b50601f01601f191660200190565b600080600080608085870312156120b157600080fd5b84356120bc81611eb6565b935060208501356120cc81611eb6565b925060408501359150606085013567ffffffffffffffff8111156120ef57600080fd5b8501601f8101871361210057600080fd5b803561211361210e82612073565b612042565b81815288602083850101111561212857600080fd5b8160208401602083013760006020838301015280935050505092959194509250565b60008060008060008060c0878903121561216357600080fd5b863561216e81611eb6565b95506020870135945060408701359350606087013560ff8116811461219257600080fd5b9598949750929560808101359460a0909101359350915050565b600080604083850312156121bf57600080fd5b82356121ca81611eb6565b9150602083013561202181611eb6565b600181811c908216806121ee57607f821691505b60208210810361220e57634e487b7160e01b600052602260045260246000fd5b50919050565b634e487b7160e01b600052601160045260246000fd5b60006001820161223c5761223c612214565b5060010190565b60006020828403121561225557600080fd5b815167ffffffffffffffff81111561226c57600080fd5b8201601f8101841361227d57600080fd5b805161228b61210e82612073565b8181528560208385010111156122a057600080fd5b6122b1826020830160208601611e3a565b95945050505050565b6001600160d01b038181168382160190808211156122da576122da612214565b5092915050565b6001600160d01b038281168282160390808211156122da576122da612214565b8181038181111561049357610493612214565b8082018082111561049357610493612214565b6001600160a01b038581168252841660208201526040810183905260806060820181905260009061235a90830184611e5e565b9695505050505050565b60006020828403121561237657600080fd5b8151610abe81611e07565b634e487b7160e01b600052601260045260246000fd5b634e487b7160e01b600052602160045260246000fd5b6000826123ca57634e487b7160e01b600052601260045260246000fd5b50049056fea2646970667358221220c7b71984e540012e9480133f8fc40c669aa649b3508d771d268d2c02a09e5d7864736f6c63430008170033dec2bacdd2f05b59de34da9b523dff8be42e5e38e818c82fdb0bae774387a724",
			"deployedBytecode": "0x608060405234801561001057600080fd5b50600436106101da5760003560e01c80637ecebe0011610104578063a22cb465116100a2578063c87b56dd11610071578063c87b56dd14610422578063e131fc0c14610435578063e985e9c514610448578063f2fde38b1461045b57600080fd5b8063a22cb465146103d6578063b88d4fde146103e9578063c0715888146103fc578063c3cda5201461040f57600080fd5b80638e539e8c116100de5780638e539e8c1461038957806391ddadf41461039c57806395d89b41146103bb5780639ab24eb0146103c357600080fd5b80637ecebe001461033457806384b0196e1461035d5780638da5cb5b1461037857600080fd5b80633a46b1a81161017c5780635c19a95c1161014b5780635c19a95c146102f35780636352211e1461030657806370a0823114610319578063715018a61461032c57600080fd5b80633a46b1a81461029957806342842e0e146102ac5780634bf5d7e9146102bf578063587cde1e146102c757600080fd5b8063081812fc116101b8578063081812fc14610233578063095ea7b31461025e57806323b872dd146102735780632407497e1461028657600080fd5b806301ffc9a7146101df57806306661abd1461020757806306fdde031461021e575b600080fd5b6101f26101ed366004611e1d565b61046e565b60405190151581526020015b60405180910390f35b610210600d5481565b6040519081526020016101fe565b610226610499565b6040516101fe9190611e8a565b610246610241366004611e9d565b61052b565b6040516001600160a01b0390911681526020016101fe565b61027161026c366004611ecb565b610554565b005b610271610281366004611ef7565b610563565b610271610294366004611f38565b6105f3565b6102106102a7366004611ecb565b610650565b6102716102ba366004611ef7565b6106d1565b6102266106f1565b6102466102d5366004611f38565b6001600160a01b039081166000908152600960205260409020541690565b610271610301366004611f38565b610769565b610246610314366004611e9d565b610774565b610210610327366004611f38565b61077f565b6102716107c7565b610210610342366004611f38565b6001600160a01b031660009081526008602052604090205490565b6103656107db565b6040516101fe9796959493929190611f55565b600c546001600160a01b0316610246565b610210610397366004611e9d565b610821565b6103a461088b565b60405165ffffffffffff90911681526020016101fe565b61022661089a565b6102106103d1366004611f38565b6108a9565b6102716103e4366004611fee565b6108d9565b6102716103f736600461209b565b6108e4565b61021061040a366004611f38565b6108fb565b61027161041d36600461214a565b61096a565b610226610430366004611e9d565b610a27565b600e54610246906001600160a01b031681565b6101f26104563660046121ac565b610ac5565b610271610469366004611f38565b610af3565b60006001600160e01b03198216630321f74760e01b1480610493575061049382610b49565b92915050565b6060600080546104a8906121da565b80601f01602080910402602001604051908101604052809291908181526020018280546104d4906121da565b80156105215780601f106104f657610100808354040283529160200191610521565b820191906000526020600020905b81548152906001019060200180831161050457829003601f168201915b5050505050905090565b600061053682610b99565b506000828152600460205260409020546001600160a01b0316610493565b61055f828233610bd2565b5050565b6001600160a01b03821661059257604051633250574960e11b8152600060048201526024015b60405180910390fd5b600061059f838333610bdf565b9050836001600160a01b0316816001600160a01b0316146105ed576040516364283d7b60e01b81526001600160a01b0380861660048301526024820184905282166044820152606401610589565b50505050565b6105fb610c03565b600e80546001600160a01b0383166001600160a01b031990911681179091556040805133815290517fe7784d93cfbfa4408e19577e6cc0436f4dbb51214b70e100905dfce9def88c169181900360200190a250565b60008061065b61088b565b90508065ffffffffffff16831061069657604051637669fc0f60e11b81526004810184905265ffffffffffff82166024820152604401610589565b6106c06106a284610c30565b6001600160a01b0386166000908152600a6020526040902090610c67565b6001600160d01b0316949350505050565b6106ec838383604051806020016040528060008152506108e4565b505050565b60606106fb610d1d565b65ffffffffffff1661070b61088b565b65ffffffffffff1614610731576040516301bfc1c560e61b815260040160405180910390fd5b5060408051808201909152601d81527f6d6f64653d626c6f636b6e756d6265722666726f6d3d64656661756c74000000602082015290565b3361055f8183610d28565b600061049382610b99565b60006001600160a01b0382166107ab576040516322718ad960e21b815260006004820152602401610589565b506001600160a01b031660009081526003602052604090205490565b6107cf610c03565b6107d96000610d9a565b565b6000606080600080600060606107ef610dec565b6107f7610e19565b60408051600080825260208201909252600f60f81b9b939a50919850469750309650945092509050565b60008061082c61088b565b90508065ffffffffffff16831061086757604051637669fc0f60e11b81526004810184905265ffffffffffff82166024820152604401610589565b61087b61087384610c30565b600b90610c67565b6001600160d01b03169392505050565b6000610895610d1d565b905090565b6060600180546104a8906121da565b6001600160a01b0381166000908152600a602052604081206108ca90610e46565b6001600160d01b031692915050565b61055f338383610e7f565b6108ef848484610563565b6105ed84848484610f1e565b6000600d6000815461090c9061222a565b9182905550905061091d8282611047565b6001600160a01b038216817f365b3162cd780731fc55a794b59494d472bc2af701007f581843a70673814698336040516001600160a01b03909116815260200160405180910390a3919050565b8342111561098e57604051632341d78760e11b815260048101859052602401610589565b604080517fe48329057bfd03d55e49b547132e39cffd9c1820ad7b9d4c5307691425d15adf60208201526001600160a01b038816918101919091526060810186905260808101859052600090610a0890610a009060a00160405160208183030381529060405280519060200120611061565b85858561108e565b9050610a1481876110bc565b610a1e8188610d28565b50505050505050565b600e546060906001600160a01b031680610a51575050604080516020810190915260008152919050565b604051636d02a25560e11b8152600481018490526001600160a01b0382169063da0544aa90602401600060405180830381865afa158015610a96573d6000803e3d6000fd5b505050506040513d6000823e601f3d908101601f19168201604052610abe9190810190612243565b9392505050565b6001600160a01b03918216600090815260056020908152604080832093909416825291909152205460ff1690565b610afb610c03565b6001600160a01b038116610b2557604051631e4fbdf760e01b815260006004820152602401610589565b610b2e81610d9a565b50565b6000610abe82846122ba565b6000610abe82846122e1565b60006001600160e01b031982166380ac58cd60e01b1480610b7a57506001600160e01b03198216635b5e139f60e01b145b8061049357506301ffc9a760e01b6001600160e01b0319831614610493565b6000818152600260205260408120546001600160a01b03168061049357604051637e27328960e01b815260048101849052602401610589565b6106ec838383600161110f565b600080610bed858585611215565b9050610bfb8186600161130e565b949350505050565b600c546001600160a01b031633146107d95760405163118cdaa760e01b8152336004820152602401610589565b600065ffffffffffff821115610c63576040516306dfcc6560e41b81526030600482015260248101839052604401610589565b5090565b815460009081816005811115610cc6576000610c8284611389565b610c8c9085612301565b60008881526020902090915081015465ffffffffffff9081169087161015610cb657809150610cc4565b610cc1816001612314565b92505b505b6000610cd487878585611471565b90508015610d0f57610cf987610ceb600184612301565b600091825260209091200190565b54600160301b90046001600160d01b0316610d12565b60005b979650505050505050565b600061089543610c30565b6001600160a01b0382811660008181526009602052604080822080548686166001600160a01b0319821681179092559151919094169392849290917f3134e8a2e6d97e929a7e54011ea5485d7d196dd5f0ba4d4ef95803e8e3fc257f9190a46106ec8183610d95866114d3565b6114de565b600c80546001600160a01b038381166001600160a01b0319831681179093556040519116919082907f8be0079c531659141344cd1fd0a4f28419497f9722a3daafe3b4186f6b6457e090600090a35050565b60606108957f4a75696365626f782050726f6a656374730000000000000000000000000000116006611645565b60606108957f31000000000000000000000000000000000000000000000000000000000000016007611645565b80546000908015610e7657610e6083610ceb600184612301565b54600160301b90046001600160d01b0316610abe565b60009392505050565b6001600160a01b038216610eb157604051630b61174360e31b81526001600160a01b0383166004820152602401610589565b6001600160a01b03838116600081815260056020908152604080832094871680845294825291829020805460ff191686151590811790915591519182527f17307eab39ab6107e8899845ad3d59bd9653f200f220920489ca2b5937696c31910160405180910390a3505050565b6001600160a01b0383163b156105ed57604051630a85bd0160e11b81526001600160a01b0384169063150b7a0290610f60903390889087908790600401612327565b6020604051808303816000875af1925050508015610f9b575060408051601f3d908101601f19168201909252610f9891810190612364565b60015b611004573d808015610fc9576040519150601f19603f3d011682016040523d82523d6000602084013e610fce565b606091505b508051600003610ffc57604051633250574960e11b81526001600160a01b0385166004820152602401610589565b805181602001fd5b6001600160e01b03198116630a85bd0160e11b1461104057604051633250574960e11b81526001600160a01b0385166004820152602401610589565b5050505050565b61055f8282604051806020016040528060008152506116f0565b600061049361106e611707565b8360405161190160f01b8152600281019290925260228201526042902090565b6000806000806110a088888888611832565b9250925092506110b08282611901565b50909695505050505050565b6001600160a01b03821660009081526008602052604090208054600181019091558181146106ec576040516301d4b62360e61b81526001600160a01b038416600482015260248101829052604401610589565b808061112357506001600160a01b03821615155b156111e557600061113384610b99565b90506001600160a01b0383161580159061115f5750826001600160a01b0316816001600160a01b031614155b801561117257506111708184610ac5565b155b1561119b5760405163a9fbf51f60e01b81526001600160a01b0384166004820152602401610589565b81156111e35783856001600160a01b0316826001600160a01b03167f8c5be1e5ebec7d5bd14f71427d1e84f3dd0314c0f7b2291e5b200ac8c7c3b92560405160405180910390a45b505b5050600090815260046020526040902080546001600160a01b0319166001600160a01b0392909216919091179055565b6000828152600260205260408120546001600160a01b0390811690831615611242576112428184866119ba565b6001600160a01b038116156112805761125f60008560008061110f565b6001600160a01b038116600090815260036020526040902080546000190190555b6001600160a01b038516156112af576001600160a01b0385166000908152600360205260409020805460010190555b60008481526002602052604080822080546001600160a01b0319166001600160a01b0389811691821790925591518793918516917fddf252ad1be2c89b69c2b068fc378daa952ba7f163c4a11628f55a4df523b3ef91a4949350505050565b6001600160a01b03831661133557611332600b610b3161132d84611a1e565b611a52565b50505b6001600160a01b03821661135757611354600b610b3d61132d84611a1e565b50505b6001600160a01b038381166000908152600960205260408082205485841683529120546106ec929182169116836114de565b60008160000361139b57506000919050565b600060016113a884611a8b565b901c6001901b905060018184816113c1576113c1612381565b048201901c905060018184816113d9576113d9612381565b048201901c905060018184816113f1576113f1612381565b048201901c9050600181848161140957611409612381565b048201901c9050600181848161142157611421612381565b048201901c9050600181848161143957611439612381565b048201901c9050600181848161145157611451612381565b048201901c9050610abe8182858161146b5761146b612381565b04611b1f565b60005b818310156114cb5760006114888484611b35565b60008781526020902090915065ffffffffffff86169082015465ffffffffffff1611156114b7578092506114c5565b6114c2816001612314565b93505b50611474565b509392505050565b60006104938261077f565b816001600160a01b0316836001600160a01b0316141580156115005750600081115b156106ec576001600160a01b038316156115a3576001600160a01b0383166000908152600a60205260408120819061153e90610b3d61132d86611a1e565b6001600160d01b031691506001600160d01b03169150846001600160a01b03167fdec2bacdd2f05b59de34da9b523dff8be42e5e38e818c82fdb0bae774387a7248383604051611598929190918252602082015260400190565b60405180910390a250505b6001600160a01b038216156106ec576001600160a01b0382166000908152600a6020526040812081906115dc90610b3161132d86611a1e565b6001600160d01b031691506001600160d01b03169150836001600160a01b03167fdec2bacdd2f05b59de34da9b523dff8be42e5e38e818c82fdb0bae774387a7248383604051611636929190918252602082015260400190565b60405180910390a25050505050565b606060ff831461165f5761165883611b50565b9050610493565b81805461166b906121da565b80601f0160208091040260200160405190810160405280929190818152602001828054611697906121da565b80156116e45780601f106116b9576101008083540402835291602001916116e4565b820191906000526020600020905b8154815290600101906020018083116116c757829003601f168201915b50505050509050610493565b6116fa8383611b8f565b6106ec6000848484610f1e565b6000306001600160a01b037f000000000000000000000000fa679f5ecdd8be404c1fbaa7f29aeb2b12f5b6621614801561176057507f0000000000000000000000000000000000000000000000000000000000aa36a746145b1561178a57507f908bd5ee915916153dbac386c141b1d31569f1cf4f845a144b1eba5b7c5fa31390565b610895604080517f8b73c3c69bb8fe3d512ecc4cf759cc79239f7b179b0ffacaa9a75d522b39400f60208201527f2e5c5c1c4affeaeda2d3db263faddbd323c18ac7d44a6ca994665583d3b15dad918101919091527fc89efdaa54c0f20c7adf612882df0950f5a951637e0307cdcb4c672f298b8bc660608201524660808201523060a082015260009060c00160405160208183030381529060405280519060200120905090565b600080807f7fffffffffffffffffffffffffffffff5d576e7357a4501ddfe92f46681b20a084111561186d57506000915060039050826118f7565b604080516000808252602082018084528a905260ff891692820192909252606081018790526080810186905260019060a0016020604051602081039080840390855afa1580156118c1573d6000803e3d6000fd5b5050604051601f1901519150506001600160a01b0381166118ed575060009250600191508290506118f7565b9250600091508190505b9450945094915050565b600082600381111561191557611915612397565b0361191e575050565b600182600381111561193257611932612397565b036119505760405163f645eedf60e01b815260040160405180910390fd5b600282600381111561196457611964612397565b036119855760405163fce698f760e01b815260048101829052602401610589565b600382600381111561199957611999612397565b0361055f576040516335e2f38360e21b815260048101829052602401610589565b6119c5838383611bf4565b6106ec576001600160a01b0383166119f357604051637e27328960e01b815260048101829052602401610589565b60405163177e802f60e01b81526001600160a01b038316600482015260248101829052604401610589565b60006001600160d01b03821115610c63576040516306dfcc6560e41b815260d0600482015260248101839052604401610589565b600080611a7e611a6061088b565b611a76611a6c88610e46565b868863ffffffff16565b879190611c57565b915091505b935093915050565b600080608083901c15611aa057608092831c92015b604083901c15611ab257604092831c92015b602083901c15611ac457602092831c92015b601083901c15611ad657601092831c92015b600883901c15611ae857600892831c92015b600483901c15611afa57600492831c92015b600283901c15611b0c57600292831c92015b600183901c156104935760010192915050565b6000818310611b2e5781610abe565b5090919050565b6000611b4460028484186123ad565b610abe90848416612314565b60606000611b5d83611c65565b604080516020808252818301909252919250600091906020820181803683375050509182525060208101929092525090565b6001600160a01b038216611bb957604051633250574960e11b815260006004820152602401610589565b6000611bc783836000610bdf565b90506001600160a01b038116156106ec576040516339e3563760e11b815260006004820152602401610589565b60006001600160a01b03831615801590610bfb5750826001600160a01b0316846001600160a01b03161480611c2e5750611c2e8484610ac5565b80610bfb5750506000908152600460205260409020546001600160a01b03908116911614919050565b600080611a7e858585611c8d565b600060ff8216601f81111561049357604051632cd44ac360e21b815260040160405180910390fd5b825460009081908015611dac576000611cab87610ceb600185612301565b60408051808201909152905465ffffffffffff808216808452600160301b9092046001600160d01b031660208401529192509087161015611cff57604051632520601d60e01b815260040160405180910390fd5b805165ffffffffffff808816911603611d4b5784611d2288610ceb600186612301565b80546001600160d01b0392909216600160301b0265ffffffffffff909216919091179055611d9c565b6040805180820190915265ffffffffffff80881682526001600160d01b0380881660208085019182528b54600181018d5560008d81529190912094519151909216600160301b029216919091179101555b602001519250839150611a839050565b50506040805180820190915265ffffffffffff80851682526001600160d01b0380851660208085019182528854600181018a5560008a815291822095519251909316600160301b029190931617920191909155905081611a83565b6001600160e01b031981168114610b2e57600080fd5b600060208284031215611e2f57600080fd5b8135610abe81611e07565b60005b83811015611e55578181015183820152602001611e3d565b50506000910152565b60008151808452611e76816020860160208601611e3a565b601f01601f19169290920160200192915050565b602081526000610abe6020830184611e5e565b600060208284031215611eaf57600080fd5b5035919050565b6001600160a01b0381168114610b2e57600080fd5b60008060408385031215611ede57600080fd5b8235611ee981611eb6565b946020939093013593505050565b600080600060608486031215611f0c57600080fd5b8335611f1781611eb6565b92506020840135611f2781611eb6565b929592945050506040919091013590565b600060208284031215611f4a57600080fd5b8135610abe81611eb6565b60ff60f81b881681526000602060e06020840152611f7660e084018a611e5e565b8381036040850152611f88818a611e5e565b606085018990526001600160a01b038816608086015260a0850187905284810360c08601528551808252602080880193509091019060005b81811015611fdc57835183529284019291840191600101611fc0565b50909c9b505050505050505050505050565b6000806040838503121561200157600080fd5b823561200c81611eb6565b91506020830135801515811461202157600080fd5b809150509250929050565b634e487b7160e01b600052604160045260246000fd5b604051601f8201601f1916810167ffffffffffffffff8111828210171561206b5761206b61202c565b604052919050565b600067ffffffffffffffff82111561208d5761208d61202c565b50601f01601f191660200190565b600080600080608085870312156120b157600080fd5b84356120bc81611eb6565b935060208501356120cc81611eb6565b925060408501359150606085013567ffffffffffffffff8111156120ef57600080fd5b8501601f8101871361210057600080fd5b803561211361210e82612073565b612042565b81815288602083850101111561212857600080fd5b8160208401602083013760006020838301015280935050505092959194509250565b60008060008060008060c0878903121561216357600080fd5b863561216e81611eb6565b95506020870135945060408701359350606087013560ff8116811461219257600080fd5b9598949750929560808101359460a0909101359350915050565b600080604083850312156121bf57600080fd5b82356121ca81611eb6565b9150602083013561202181611eb6565b600181811c908216806121ee57607f821691505b60208210810361220e57634e487b7160e01b600052602260045260246000fd5b50919050565b634e487b7160e01b600052601160045260246000fd5b60006001820161223c5761223c612214565b5060010190565b60006020828403121561225557600080fd5b815167ffffffffffffffff81111561226c57600080fd5b8201601f8101841361227d57600080fd5b805161228b61210e82612073565b8181528560208385010111156122a057600080fd5b6122b1826020830160208601611e3a565b95945050505050565b6001600160d01b038181168382160190808211156122da576122da612214565b5092915050565b6001600160d01b038281168282160390808211156122da576122da612214565b8181038181111561049357610493612214565b8082018082111561049357610493612214565b6001600160a01b038581168252841660208201526040810183905260806060820181905260009061235a90830184611e5e565b9695505050505050565b60006020828403121561237657600080fd5b8151610abe81611e07565b634e487b7160e01b600052601260045260246000fd5b634e487b7160e01b600052602160045260246000fd5b6000826123ca57634e487b7160e01b600052601260045260246000fd5b50049056fea2646970667358221220c7b71984e540012e9480133f8fc40c669aa649b3508d771d268d2c02a09e5d7864736f6c63430008170033",
			"devdoc": {
				"kind": "dev",
				"methods": {
					"CLOCK_MODE()": {
						"details": "Machine-readable description of the clock as specified in EIP-6372."
					},
					"approve(address,uint256)": {
						"details": "See {IERC721-approve}."
					},
					"balanceOf(address)": {
						"details": "See {IERC721-balanceOf}."
					},
					"clock()": {
						"details": "Clock used for flagging checkpoints. Can be overridden to implement timestamp based checkpoints (and voting), in which case {CLOCK_MODE} should be overridden as well to match."
					},
					"constructor": {
						"params": {
							"feeProjectOwner": "The address that will receive the fee-project. If `address(0)` the fee-project will not be minted.",
							"owner": "The owner of the contract who can set metadata."
						}
					},
					"createFor(address)": {
						"details": "Anyone can create a project on an owner's behalf.",
						"params": {
							"owner": "The address that will be the owner of the project."
						},
						"returns": {
							"projectId": "The token ID of the newly created project."
						}
					},
					"delegate(address)": {
						"details": "Delegates votes from the sender to `delegatee`."
					},
					"delegateBySig(address,uint256,uint256,uint8,bytes32,bytes32)": {
						"details": "Delegates votes from signer to `delegatee`."
					},
					"delegates(address)": {
						"details": "Returns the delegate that `account` has chosen."
					},
					"eip712Domain()": {
						"details": "See {IERC-5267}."
					},
					"getApproved(uint256)": {
						"details": "See {IERC721-getApproved}."
					},
					"getPastTotalSupply(uint256)": {
						"details": "Returns the total supply of votes available at a specific moment in the past. If the `clock()` is configured to use block numbers, this will return the value at the end of the corresponding block. NOTE: This value is the sum of all available votes, which is not necessarily the sum of all delegated votes. Votes that have not been delegated are still part of total supply, even though they would not participate in a vote. Requirements: - `timepoint` must be in the past. If operating using block numbers, the block must be already mined."
					},
					"getPastVotes(address,uint256)": {
						"details": "Returns the amount of votes that `account` had at a specific moment in the past. If the `clock()` is configured to use block numbers, this will return the value at the end of the corresponding block. Requirements: - `timepoint` must be in the past. If operating using block numbers, the block must be already mined."
					},
					"getVotes(address)": {
						"details": "Returns the current amount of votes that `account` has."
					},
					"isApprovedForAll(address,address)": {
						"details": "See {IERC721-isApprovedForAll}."
					},
					"name()": {
						"details": "See {IERC721Metadata-name}."
					},
					"nonces(address)": {
						"details": "Returns the next unused nonce for an address."
					},
					"owner()": {
						"details": "Returns the address of the current owner."
					},
					"ownerOf(uint256)": {
						"details": "See {IERC721-ownerOf}."
					},
					"renounceOwnership()": {
						"details": "Leaves the contract without owner. It will not be possible to call `onlyOwner` functions. Can only be called by the current owner. NOTE: Renouncing ownership will leave the contract without an owner, thereby disabling any functionality that is only available to the owner."
					},
					"safeTransferFrom(address,address,uint256)": {
						"details": "See {IERC721-safeTransferFrom}."
					},
					"safeTransferFrom(address,address,uint256,bytes)": {
						"details": "See {IERC721-safeTransferFrom}."
					},
					"setApprovalForAll(address,bool)": {
						"details": "See {IERC721-setApprovalForAll}."
					},
					"setTokenUriResolver(address)": {
						"params": {
							"newResolver": "The address of the new resolver."
						}
					},
					"supportsInterface(bytes4)": {
						"details": "See {IERC165-supportsInterface}.",
						"params": {
							"interfaceId": "The ID of the interface to check for adherence to."
						},
						"returns": {
							"_0": "A flag indicating if the provided interface ID is supported."
						}
					},
					"symbol()": {
						"details": "See {IERC721Metadata-symbol}."
					},
					"tokenURI(uint256)": {
						"params": {
							"projectId": "The ID of the project to get a URI of."
						},
						"returns": {
							"_0": "The token URI to use for the provided `projectId`."
						}
					},
					"transferFrom(address,address,uint256)": {
						"details": "See {IERC721-transferFrom}."
					},
					"transferOwnership(address)": {
						"details": "Transfers ownership of the contract to a new account (`newOwner`). Can only be called by the current owner."
					}
				},
				"version": 1
			},
			"userdoc": {
				"kind": "user",
				"methods": {
					"count()": {
						"notice": "The number of projects that have been created using this contract."
					},
					"createFor(address)": {
						"notice": "Create a new project for the specified owner, which mints an NFT (ERC-721) into their wallet."
					},
					"setTokenUriResolver(address)": {
						"notice": "Sets the address of the resolver used to retrieve the tokenURI of projects."
					},
					"supportsInterface(bytes4)": {
						"notice": "Indicates whether this contract adheres to the specified interface."
					},
					"tokenURI(uint256)": {
						"notice": "Returns the URI where the ERC-721 standard JSON of a project is hosted."
					},
					"tokenUriResolver()": {
						"notice": "The contract resolving each project ID to its ERC721 URI."
					}
				},
				"version": 1
			},
			"gitCommit": "e6ea9467ae7d4f2046989fda11961b007525098a",
			"sourceName": "src/JBProjects.sol",
			"chainId": "11155111",
			"linkReferences": {},
			"deployedLinkReferences": {}
		},
		{
			"_format": "sphinx-sol-ct-artifact-1",
			"merkleRoot": "0xeb76efeb8f97c5cb80ab72b380ea5b356ede5f4abbf2a0c560104f8a80b45857",
			"contractName": "JBProjects",
			"address": "0xf9dadA4628Eb3992202CF253625d4ECebBC1592f",
			"abi": [
				{
					"type": "constructor",
					"inputs": [
						{
							"name": "owner",
							"type": "address",
							"internalType": "address"
						},
						{
							"name": "feeProjectOwner",
							"type": "address",
							"internalType": "address"
						}
					],
					"stateMutability": "nonpayable"
				},
				{
					"type": "function",
					"name": "CLOCK_MODE",
					"inputs": [],
					"outputs": [
						{
							"name": "",
							"type": "string",
							"internalType": "string"
						}
					],
					"stateMutability": "view"
				},
				{
					"type": "function",
					"name": "approve",
					"inputs": [
						{
							"name": "to",
							"type": "address",
							"internalType": "address"
						},
						{
							"name": "tokenId",
							"type": "uint256",
							"internalType": "uint256"
						}
					],
					"outputs": [],
					"stateMutability": "nonpayable"
				},
				{
					"type": "function",
					"name": "balanceOf",
					"inputs": [
						{
							"name": "owner",
							"type": "address",
							"internalType": "address"
						}
					],
					"outputs": [
						{
							"name": "",
							"type": "uint256",
							"internalType": "uint256"
						}
					],
					"stateMutability": "view"
				},
				{
					"type": "function",
					"name": "clock",
					"inputs": [],
					"outputs": [
						{
							"name": "",
							"type": "uint48",
							"internalType": "uint48"
						}
					],
					"stateMutability": "view"
				},
				{
					"type": "function",
					"name": "count",
					"inputs": [],
					"outputs": [
						{
							"name": "",
							"type": "uint256",
							"internalType": "uint256"
						}
					],
					"stateMutability": "view"
				},
				{
					"type": "function",
					"name": "createFor",
					"inputs": [
						{
							"name": "owner",
							"type": "address",
							"internalType": "address"
						}
					],
					"outputs": [
						{
							"name": "projectId",
							"type": "uint256",
							"internalType": "uint256"
						}
					],
					"stateMutability": "nonpayable"
				},
				{
					"type": "function",
					"name": "delegate",
					"inputs": [
						{
							"name": "delegatee",
							"type": "address",
							"internalType": "address"
						}
					],
					"outputs": [],
					"stateMutability": "nonpayable"
				},
				{
					"type": "function",
					"name": "delegateBySig",
					"inputs": [
						{
							"name": "delegatee",
							"type": "address",
							"internalType": "address"
						},
						{
							"name": "nonce",
							"type": "uint256",
							"internalType": "uint256"
						},
						{
							"name": "expiry",
							"type": "uint256",
							"internalType": "uint256"
						},
						{
							"name": "v",
							"type": "uint8",
							"internalType": "uint8"
						},
						{
							"name": "r",
							"type": "bytes32",
							"internalType": "bytes32"
						},
						{
							"name": "s",
							"type": "bytes32",
							"internalType": "bytes32"
						}
					],
					"outputs": [],
					"stateMutability": "nonpayable"
				},
				{
					"type": "function",
					"name": "delegates",
					"inputs": [
						{
							"name": "account",
							"type": "address",
							"internalType": "address"
						}
					],
					"outputs": [
						{
							"name": "",
							"type": "address",
							"internalType": "address"
						}
					],
					"stateMutability": "view"
				},
				{
					"type": "function",
					"name": "eip712Domain",
					"inputs": [],
					"outputs": [
						{
							"name": "fields",
							"type": "bytes1",
							"internalType": "bytes1"
						},
						{
							"name": "name",
							"type": "string",
							"internalType": "string"
						},
						{
							"name": "version",
							"type": "string",
							"internalType": "string"
						},
						{
							"name": "chainId",
							"type": "uint256",
							"internalType": "uint256"
						},
						{
							"name": "verifyingContract",
							"type": "address",
							"internalType": "address"
						},
						{
							"name": "salt",
							"type": "bytes32",
							"internalType": "bytes32"
						},
						{
							"name": "extensions",
							"type": "uint256[]",
							"internalType": "uint256[]"
						}
					],
					"stateMutability": "view"
				},
				{
					"type": "function",
					"name": "getApproved",
					"inputs": [
						{
							"name": "tokenId",
							"type": "uint256",
							"internalType": "uint256"
						}
					],
					"outputs": [
						{
							"name": "",
							"type": "address",
							"internalType": "address"
						}
					],
					"stateMutability": "view"
				},
				{
					"type": "function",
					"name": "getPastTotalSupply",
					"inputs": [
						{
							"name": "timepoint",
							"type": "uint256",
							"internalType": "uint256"
						}
					],
					"outputs": [
						{
							"name": "",
							"type": "uint256",
							"internalType": "uint256"
						}
					],
					"stateMutability": "view"
				},
				{
					"type": "function",
					"name": "getPastVotes",
					"inputs": [
						{
							"name": "account",
							"type": "address",
							"internalType": "address"
						},
						{
							"name": "timepoint",
							"type": "uint256",
							"internalType": "uint256"
						}
					],
					"outputs": [
						{
							"name": "",
							"type": "uint256",
							"internalType": "uint256"
						}
					],
					"stateMutability": "view"
				},
				{
					"type": "function",
					"name": "getVotes",
					"inputs": [
						{
							"name": "account",
							"type": "address",
							"internalType": "address"
						}
					],
					"outputs": [
						{
							"name": "",
							"type": "uint256",
							"internalType": "uint256"
						}
					],
					"stateMutability": "view"
				},
				{
					"type": "function",
					"name": "isApprovedForAll",
					"inputs": [
						{
							"name": "owner",
							"type": "address",
							"internalType": "address"
						},
						{
							"name": "operator",
							"type": "address",
							"internalType": "address"
						}
					],
					"outputs": [
						{
							"name": "",
							"type": "bool",
							"internalType": "bool"
						}
					],
					"stateMutability": "view"
				},
				{
					"type": "function",
					"name": "name",
					"inputs": [],
					"outputs": [
						{
							"name": "",
							"type": "string",
							"internalType": "string"
						}
					],
					"stateMutability": "view"
				},
				{
					"type": "function",
					"name": "nonces",
					"inputs": [
						{
							"name": "owner",
							"type": "address",
							"internalType": "address"
						}
					],
					"outputs": [
						{
							"name": "",
							"type": "uint256",
							"internalType": "uint256"
						}
					],
					"stateMutability": "view"
				},
				{
					"type": "function",
					"name": "owner",
					"inputs": [],
					"outputs": [
						{
							"name": "",
							"type": "address",
							"internalType": "address"
						}
					],
					"stateMutability": "view"
				},
				{
					"type": "function",
					"name": "ownerOf",
					"inputs": [
						{
							"name": "tokenId",
							"type": "uint256",
							"internalType": "uint256"
						}
					],
					"outputs": [
						{
							"name": "",
							"type": "address",
							"internalType": "address"
						}
					],
					"stateMutability": "view"
				},
				{
					"type": "function",
					"name": "renounceOwnership",
					"inputs": [],
					"outputs": [],
					"stateMutability": "nonpayable"
				},
				{
					"type": "function",
					"name": "safeTransferFrom",
					"inputs": [
						{
							"name": "from",
							"type": "address",
							"internalType": "address"
						},
						{
							"name": "to",
							"type": "address",
							"internalType": "address"
						},
						{
							"name": "tokenId",
							"type": "uint256",
							"internalType": "uint256"
						}
					],
					"outputs": [],
					"stateMutability": "nonpayable"
				},
				{
					"type": "function",
					"name": "safeTransferFrom",
					"inputs": [
						{
							"name": "from",
							"type": "address",
							"internalType": "address"
						},
						{
							"name": "to",
							"type": "address",
							"internalType": "address"
						},
						{
							"name": "tokenId",
							"type": "uint256",
							"internalType": "uint256"
						},
						{
							"name": "data",
							"type": "bytes",
							"internalType": "bytes"
						}
					],
					"outputs": [],
					"stateMutability": "nonpayable"
				},
				{
					"type": "function",
					"name": "setApprovalForAll",
					"inputs": [
						{
							"name": "operator",
							"type": "address",
							"internalType": "address"
						},
						{
							"name": "approved",
							"type": "bool",
							"internalType": "bool"
						}
					],
					"outputs": [],
					"stateMutability": "nonpayable"
				},
				{
					"type": "function",
					"name": "setTokenUriResolver",
					"inputs": [
						{
							"name": "newResolver",
							"type": "address",
							"internalType": "contract IJBTokenUriResolver"
						}
					],
					"outputs": [],
					"stateMutability": "nonpayable"
				},
				{
					"type": "function",
					"name": "supportsInterface",
					"inputs": [
						{
							"name": "interfaceId",
							"type": "bytes4",
							"internalType": "bytes4"
						}
					],
					"outputs": [
						{
							"name": "",
							"type": "bool",
							"internalType": "bool"
						}
					],
					"stateMutability": "view"
				},
				{
					"type": "function",
					"name": "symbol",
					"inputs": [],
					"outputs": [
						{
							"name": "",
							"type": "string",
							"internalType": "string"
						}
					],
					"stateMutability": "view"
				},
				{
					"type": "function",
					"name": "tokenURI",
					"inputs": [
						{
							"name": "projectId",
							"type": "uint256",
							"internalType": "uint256"
						}
					],
					"outputs": [
						{
							"name": "",
							"type": "string",
							"internalType": "string"
						}
					],
					"stateMutability": "view"
				},
				{
					"type": "function",
					"name": "tokenUriResolver",
					"inputs": [],
					"outputs": [
						{
							"name": "",
							"type": "address",
							"internalType": "contract IJBTokenUriResolver"
						}
					],
					"stateMutability": "view"
				},
				{
					"type": "function",
					"name": "transferFrom",
					"inputs": [
						{
							"name": "from",
							"type": "address",
							"internalType": "address"
						},
						{
							"name": "to",
							"type": "address",
							"internalType": "address"
						},
						{
							"name": "tokenId",
							"type": "uint256",
							"internalType": "uint256"
						}
					],
					"outputs": [],
					"stateMutability": "nonpayable"
				},
				{
					"type": "function",
					"name": "transferOwnership",
					"inputs": [
						{
							"name": "newOwner",
							"type": "address",
							"internalType": "address"
						}
					],
					"outputs": [],
					"stateMutability": "nonpayable"
				},
				{
					"type": "event",
					"name": "Approval",
					"inputs": [
						{
							"name": "owner",
							"type": "address",
							"indexed": true,
							"internalType": "address"
						},
						{
							"name": "approved",
							"type": "address",
							"indexed": true,
							"internalType": "address"
						},
						{
							"name": "tokenId",
							"type": "uint256",
							"indexed": true,
							"internalType": "uint256"
						}
					],
					"anonymous": false
				},
				{
					"type": "event",
					"name": "ApprovalForAll",
					"inputs": [
						{
							"name": "owner",
							"type": "address",
							"indexed": true,
							"internalType": "address"
						},
						{
							"name": "operator",
							"type": "address",
							"indexed": true,
							"internalType": "address"
						},
						{
							"name": "approved",
							"type": "bool",
							"indexed": false,
							"internalType": "bool"
						}
					],
					"anonymous": false
				},
				{
					"type": "event",
					"name": "Create",
					"inputs": [
						{
							"name": "projectId",
							"type": "uint256",
							"indexed": true,
							"internalType": "uint256"
						},
						{
							"name": "owner",
							"type": "address",
							"indexed": true,
							"internalType": "address"
						},
						{
							"name": "caller",
							"type": "address",
							"indexed": false,
							"internalType": "address"
						}
					],
					"anonymous": false
				},
				{
					"type": "event",
					"name": "DelegateChanged",
					"inputs": [
						{
							"name": "delegator",
							"type": "address",
							"indexed": true,
							"internalType": "address"
						},
						{
							"name": "fromDelegate",
							"type": "address",
							"indexed": true,
							"internalType": "address"
						},
						{
							"name": "toDelegate",
							"type": "address",
							"indexed": true,
							"internalType": "address"
						}
					],
					"anonymous": false
				},
				{
					"type": "event",
					"name": "DelegateVotesChanged",
					"inputs": [
						{
							"name": "delegate",
							"type": "address",
							"indexed": true,
							"internalType": "address"
						},
						{
							"name": "previousVotes",
							"type": "uint256",
							"indexed": false,
							"internalType": "uint256"
						},
						{
							"name": "newVotes",
							"type": "uint256",
							"indexed": false,
							"internalType": "uint256"
						}
					],
					"anonymous": false
				},
				{
					"type": "event",
					"name": "EIP712DomainChanged",
					"inputs": [],
					"anonymous": false
				},
				{
					"type": "event",
					"name": "OwnershipTransferred",
					"inputs": [
						{
							"name": "previousOwner",
							"type": "address",
							"indexed": true,
							"internalType": "address"
						},
						{
							"name": "newOwner",
							"type": "address",
							"indexed": true,
							"internalType": "address"
						}
					],
					"anonymous": false
				},
				{
					"type": "event",
					"name": "SetTokenUriResolver",
					"inputs": [
						{
							"name": "resolver",
							"type": "address",
							"indexed": true,
							"internalType": "contract IJBTokenUriResolver"
						},
						{
							"name": "caller",
							"type": "address",
							"indexed": false,
							"internalType": "address"
						}
					],
					"anonymous": false
				},
				{
					"type": "event",
					"name": "Transfer",
					"inputs": [
						{
							"name": "from",
							"type": "address",
							"indexed": true,
							"internalType": "address"
						},
						{
							"name": "to",
							"type": "address",
							"indexed": true,
							"internalType": "address"
						},
						{
							"name": "tokenId",
							"type": "uint256",
							"indexed": true,
							"internalType": "uint256"
						}
					],
					"anonymous": false
				},
				{
					"type": "error",
					"name": "CheckpointUnorderedInsertion",
					"inputs": []
				},
				{
					"type": "error",
					"name": "ECDSAInvalidSignature",
					"inputs": []
				},
				{
					"type": "error",
					"name": "ECDSAInvalidSignatureLength",
					"inputs": [
						{
							"name": "length",
							"type": "uint256",
							"internalType": "uint256"
						}
					]
				},
				{
					"type": "error",
					"name": "ECDSAInvalidSignatureS",
					"inputs": [
						{
							"name": "s",
							"type": "bytes32",
							"internalType": "bytes32"
						}
					]
				},
				{
					"type": "error",
					"name": "ERC5805FutureLookup",
					"inputs": [
						{
							"name": "timepoint",
							"type": "uint256",
							"internalType": "uint256"
						},
						{
							"name": "clock",
							"type": "uint48",
							"internalType": "uint48"
						}
					]
				},
				{
					"type": "error",
					"name": "ERC6372InconsistentClock",
					"inputs": []
				},
				{
					"type": "error",
					"name": "ERC721IncorrectOwner",
					"inputs": [
						{
							"name": "sender",
							"type": "address",
							"internalType": "address"
						},
						{
							"name": "tokenId",
							"type": "uint256",
							"internalType": "uint256"
						},
						{
							"name": "owner",
							"type": "address",
							"internalType": "address"
						}
					]
				},
				{
					"type": "error",
					"name": "ERC721InsufficientApproval",
					"inputs": [
						{
							"name": "operator",
							"type": "address",
							"internalType": "address"
						},
						{
							"name": "tokenId",
							"type": "uint256",
							"internalType": "uint256"
						}
					]
				},
				{
					"type": "error",
					"name": "ERC721InvalidApprover",
					"inputs": [
						{
							"name": "approver",
							"type": "address",
							"internalType": "address"
						}
					]
				},
				{
					"type": "error",
					"name": "ERC721InvalidOperator",
					"inputs": [
						{
							"name": "operator",
							"type": "address",
							"internalType": "address"
						}
					]
				},
				{
					"type": "error",
					"name": "ERC721InvalidOwner",
					"inputs": [
						{
							"name": "owner",
							"type": "address",
							"internalType": "address"
						}
					]
				},
				{
					"type": "error",
					"name": "ERC721InvalidReceiver",
					"inputs": [
						{
							"name": "receiver",
							"type": "address",
							"internalType": "address"
						}
					]
				},
				{
					"type": "error",
					"name": "ERC721InvalidSender",
					"inputs": [
						{
							"name": "sender",
							"type": "address",
							"internalType": "address"
						}
					]
				},
				{
					"type": "error",
					"name": "ERC721NonexistentToken",
					"inputs": [
						{
							"name": "tokenId",
							"type": "uint256",
							"internalType": "uint256"
						}
					]
				},
				{
					"type": "error",
					"name": "InvalidAccountNonce",
					"inputs": [
						{
							"name": "account",
							"type": "address",
							"internalType": "address"
						},
						{
							"name": "currentNonce",
							"type": "uint256",
							"internalType": "uint256"
						}
					]
				},
				{
					"type": "error",
					"name": "InvalidShortString",
					"inputs": []
				},
				{
					"type": "error",
					"name": "OwnableInvalidOwner",
					"inputs": [
						{
							"name": "owner",
							"type": "address",
							"internalType": "address"
						}
					]
				},
				{
					"type": "error",
					"name": "OwnableUnauthorizedAccount",
					"inputs": [
						{
							"name": "account",
							"type": "address",
							"internalType": "address"
						}
					]
				},
				{
					"type": "error",
					"name": "SafeCastOverflowedUintDowncast",
					"inputs": [
						{
							"name": "bits",
							"type": "uint8",
							"internalType": "uint8"
						},
						{
							"name": "value",
							"type": "uint256",
							"internalType": "uint256"
						}
					]
				},
				{
					"type": "error",
					"name": "StringTooLong",
					"inputs": [
						{
							"name": "str",
							"type": "string",
							"internalType": "string"
						}
					]
				},
				{
					"type": "error",
					"name": "VotesExpiredSignature",
					"inputs": [
						{
							"name": "expiry",
							"type": "uint256",
							"internalType": "uint256"
						}
					]
				}
			],
			"solcInputHash": "5d4c706d93c97620ff427d8d75b46099",
			"receipt": {
				"blockHash": "0x15af9d6b613e63aa67a94bdab9aac70d9515662d508294a3992abd6846a9971d",
				"blockNumber": 5748756,
				"contractAddress": null,
				"cumulativeGasUsed": "20436692",
				"from": "0xC034550B542b83BA1De312b21d1C94a9a52B1595",
				"gasPrice": "475718",
				"gasUsed": "11016827",
				"hash": "0x5a09e5bb337ef9da18886855ff6ef7f2397eda53fa96bec55caa6beecf9f7cd7",
				"index": 74,
				"logs": [
					{
						"address": "0xB5E96127D417b1B3ef8438496a38A143167209c7",
						"blockHash": "0x15af9d6b613e63aa67a94bdab9aac70d9515662d508294a3992abd6846a9971d",
						"blockNumber": 5748756,
						"data": "0x0000000000000000000000000000000000000000000000000000000000000000",
						"index": 110,
						"topics": [
							"0x572f161235911da04685a68c06adf558fc7e4a36909dca394650e0adc19cc93d",
							"0x000000000000000000000000c034550b542b83ba1de312b21d1c94a9a52b1595",
							"0x000000000000000000000000ef1be3c049809cace5bc203bbe4ec1ab284bf75c",
							"0x7a34cf5b53d21a59bfe3f6e4fe29cca1268d2254084cc87e3d35a0987580ce59"
						],
						"transactionHash": "0x5a09e5bb337ef9da18886855ff6ef7f2397eda53fa96bec55caa6beecf9f7cd7",
						"transactionIndex": 74
					},
					{
						"address": "0x1081B5AA9D9d4862A3dA4d469433FB36Ed80FA2A",
						"blockHash": "0x15af9d6b613e63aa67a94bdab9aac70d9515662d508294a3992abd6846a9971d",
						"blockNumber": 5748756,
						"data": "0x",
						"index": 111,
						"topics": [
							"0x6895c13664aa4f67288b25d7a21d7aaa34916e355fb9b6fae0a139a9085becb8",
							"0x000000000000000000000000ef1be3c049809cace5bc203bbe4ec1ab284bf75c"
						],
						"transactionHash": "0x5a09e5bb337ef9da18886855ff6ef7f2397eda53fa96bec55caa6beecf9f7cd7",
						"transactionIndex": 74
					},
					{
						"address": "0xEf1Be3C049809caCe5Bc203BBe4Ec1Ab284bF75c",
						"blockHash": "0x15af9d6b613e63aa67a94bdab9aac70d9515662d508294a3992abd6846a9971d",
						"blockNumber": 5748756,
						"data": "0x0000000000000000000000000000000000000000000000000000000000000001",
						"index": 112,
						"topics": [
							"0xa65fb05c5808f5f389d72edeaf719ce38f4cc55c1f69ca3cbfb31c21501caa07",
							"0xeb76efeb8f97c5cb80ab72b380ea5b356ede5f4abbf2a0c560104f8a80b45857"
						],
						"transactionHash": "0x5a09e5bb337ef9da18886855ff6ef7f2397eda53fa96bec55caa6beecf9f7cd7",
						"transactionIndex": 74
					},
					{
						"address": "0xf9dadA4628Eb3992202CF253625d4ECebBC1592f",
						"blockHash": "0x15af9d6b613e63aa67a94bdab9aac70d9515662d508294a3992abd6846a9971d",
						"blockNumber": 5748756,
						"data": "0x",
						"index": 113,
						"topics": [
							"0x8be0079c531659141344cd1fd0a4f28419497f9722a3daafe3b4186f6b6457e0",
							"0x0000000000000000000000000000000000000000000000000000000000000000",
							"0x0000000000000000000000001081b5aa9d9d4862a3da4d469433fb36ed80fa2a"
						],
						"transactionHash": "0x5a09e5bb337ef9da18886855ff6ef7f2397eda53fa96bec55caa6beecf9f7cd7",
						"transactionIndex": 74
					},
					{
						"address": "0xf9dadA4628Eb3992202CF253625d4ECebBC1592f",
						"blockHash": "0x15af9d6b613e63aa67a94bdab9aac70d9515662d508294a3992abd6846a9971d",
						"blockNumber": 5748756,
						"data": "0x",
						"index": 114,
						"topics": [
							"0xddf252ad1be2c89b69c2b068fc378daa952ba7f163c4a11628f55a4df523b3ef",
							"0x0000000000000000000000000000000000000000000000000000000000000000",
							"0x0000000000000000000000001081b5aa9d9d4862a3da4d469433fb36ed80fa2a",
							"0x0000000000000000000000000000000000000000000000000000000000000001"
						],
						"transactionHash": "0x5a09e5bb337ef9da18886855ff6ef7f2397eda53fa96bec55caa6beecf9f7cd7",
						"transactionIndex": 74
					},
					{
						"address": "0xf9dadA4628Eb3992202CF253625d4ECebBC1592f",
						"blockHash": "0x15af9d6b613e63aa67a94bdab9aac70d9515662d508294a3992abd6846a9971d",
						"blockNumber": 5748756,
						"data": "0x0000000000000000000000004e59b44847b379578588920ca78fbf26c0b4956c",
						"index": 115,
						"topics": [
							"0x365b3162cd780731fc55a794b59494d472bc2af701007f581843a70673814698",
							"0x0000000000000000000000000000000000000000000000000000000000000001",
							"0x0000000000000000000000001081b5aa9d9d4862a3da4d469433fb36ed80fa2a"
						],
						"transactionHash": "0x5a09e5bb337ef9da18886855ff6ef7f2397eda53fa96bec55caa6beecf9f7cd7",
						"transactionIndex": 74
					},
					{
						"address": "0x1081B5AA9D9d4862A3dA4d469433FB36Ed80FA2A",
						"blockHash": "0x15af9d6b613e63aa67a94bdab9aac70d9515662d508294a3992abd6846a9971d",
						"blockNumber": 5748756,
						"data": "0x",
						"index": 116,
						"topics": [
							"0x6895c13664aa4f67288b25d7a21d7aaa34916e355fb9b6fae0a139a9085becb8",
							"0x000000000000000000000000ef1be3c049809cace5bc203bbe4ec1ab284bf75c"
						],
						"transactionHash": "0x5a09e5bb337ef9da18886855ff6ef7f2397eda53fa96bec55caa6beecf9f7cd7",
						"transactionIndex": 74
					},
					{
						"address": "0xEf1Be3C049809caCe5Bc203BBe4Ec1Ab284bF75c",
						"blockHash": "0x15af9d6b613e63aa67a94bdab9aac70d9515662d508294a3992abd6846a9971d",
						"blockNumber": 5748756,
						"data": "0x0000000000000000000000000000000000000000000000000000000000000002",
						"index": 117,
						"topics": [
							"0xa65fb05c5808f5f389d72edeaf719ce38f4cc55c1f69ca3cbfb31c21501caa07",
							"0xeb76efeb8f97c5cb80ab72b380ea5b356ede5f4abbf2a0c560104f8a80b45857"
						],
						"transactionHash": "0x5a09e5bb337ef9da18886855ff6ef7f2397eda53fa96bec55caa6beecf9f7cd7",
						"transactionIndex": 74
					},
					{
						"address": "0xCD8c4da77dfb15C05486D3F71Ee4C2C0dfdbc94e",
						"blockHash": "0x15af9d6b613e63aa67a94bdab9aac70d9515662d508294a3992abd6846a9971d",
						"blockNumber": 5748756,
						"data": "0x",
						"index": 118,
						"topics": [
							"0x8be0079c531659141344cd1fd0a4f28419497f9722a3daafe3b4186f6b6457e0",
							"0x0000000000000000000000000000000000000000000000000000000000000000",
							"0x0000000000000000000000001081b5aa9d9d4862a3da4d469433fb36ed80fa2a"
						],
						"transactionHash": "0x5a09e5bb337ef9da18886855ff6ef7f2397eda53fa96bec55caa6beecf9f7cd7",
						"transactionIndex": 74
					},
					{
						"address": "0x1081B5AA9D9d4862A3dA4d469433FB36Ed80FA2A",
						"blockHash": "0x15af9d6b613e63aa67a94bdab9aac70d9515662d508294a3992abd6846a9971d",
						"blockNumber": 5748756,
						"data": "0x",
						"index": 119,
						"topics": [
							"0x6895c13664aa4f67288b25d7a21d7aaa34916e355fb9b6fae0a139a9085becb8",
							"0x000000000000000000000000ef1be3c049809cace5bc203bbe4ec1ab284bf75c"
						],
						"transactionHash": "0x5a09e5bb337ef9da18886855ff6ef7f2397eda53fa96bec55caa6beecf9f7cd7",
						"transactionIndex": 74
					},
					{
						"address": "0xEf1Be3C049809caCe5Bc203BBe4Ec1Ab284bF75c",
						"blockHash": "0x15af9d6b613e63aa67a94bdab9aac70d9515662d508294a3992abd6846a9971d",
						"blockNumber": 5748756,
						"data": "0x0000000000000000000000000000000000000000000000000000000000000003",
						"index": 120,
						"topics": [
							"0xa65fb05c5808f5f389d72edeaf719ce38f4cc55c1f69ca3cbfb31c21501caa07",
							"0xeb76efeb8f97c5cb80ab72b380ea5b356ede5f4abbf2a0c560104f8a80b45857"
						],
						"transactionHash": "0x5a09e5bb337ef9da18886855ff6ef7f2397eda53fa96bec55caa6beecf9f7cd7",
						"transactionIndex": 74
					},
					{
						"address": "0x1081B5AA9D9d4862A3dA4d469433FB36Ed80FA2A",
						"blockHash": "0x15af9d6b613e63aa67a94bdab9aac70d9515662d508294a3992abd6846a9971d",
						"blockNumber": 5748756,
						"data": "0x",
						"index": 121,
						"topics": [
							"0x6895c13664aa4f67288b25d7a21d7aaa34916e355fb9b6fae0a139a9085becb8",
							"0x000000000000000000000000ef1be3c049809cace5bc203bbe4ec1ab284bf75c"
						],
						"transactionHash": "0x5a09e5bb337ef9da18886855ff6ef7f2397eda53fa96bec55caa6beecf9f7cd7",
						"transactionIndex": 74
					},
					{
						"address": "0xEf1Be3C049809caCe5Bc203BBe4Ec1Ab284bF75c",
						"blockHash": "0x15af9d6b613e63aa67a94bdab9aac70d9515662d508294a3992abd6846a9971d",
						"blockNumber": 5748756,
						"data": "0x0000000000000000000000000000000000000000000000000000000000000004",
						"index": 122,
						"topics": [
							"0xa65fb05c5808f5f389d72edeaf719ce38f4cc55c1f69ca3cbfb31c21501caa07",
							"0xeb76efeb8f97c5cb80ab72b380ea5b356ede5f4abbf2a0c560104f8a80b45857"
						],
						"transactionHash": "0x5a09e5bb337ef9da18886855ff6ef7f2397eda53fa96bec55caa6beecf9f7cd7",
						"transactionIndex": 74
					},
					{
						"address": "0x1081B5AA9D9d4862A3dA4d469433FB36Ed80FA2A",
						"blockHash": "0x15af9d6b613e63aa67a94bdab9aac70d9515662d508294a3992abd6846a9971d",
						"blockNumber": 5748756,
						"data": "0x",
						"index": 123,
						"topics": [
							"0x6895c13664aa4f67288b25d7a21d7aaa34916e355fb9b6fae0a139a9085becb8",
							"0x000000000000000000000000ef1be3c049809cace5bc203bbe4ec1ab284bf75c"
						],
						"transactionHash": "0x5a09e5bb337ef9da18886855ff6ef7f2397eda53fa96bec55caa6beecf9f7cd7",
						"transactionIndex": 74
					},
					{
						"address": "0xEf1Be3C049809caCe5Bc203BBe4Ec1Ab284bF75c",
						"blockHash": "0x15af9d6b613e63aa67a94bdab9aac70d9515662d508294a3992abd6846a9971d",
						"blockNumber": 5748756,
						"data": "0x0000000000000000000000000000000000000000000000000000000000000005",
						"index": 124,
						"topics": [
							"0xa65fb05c5808f5f389d72edeaf719ce38f4cc55c1f69ca3cbfb31c21501caa07",
							"0xeb76efeb8f97c5cb80ab72b380ea5b356ede5f4abbf2a0c560104f8a80b45857"
						],
						"transactionHash": "0x5a09e5bb337ef9da18886855ff6ef7f2397eda53fa96bec55caa6beecf9f7cd7",
						"transactionIndex": 74
					},
					{
						"address": "0x0496459b91e393950C4c5B71a0D5CAcA81710759",
						"blockHash": "0x15af9d6b613e63aa67a94bdab9aac70d9515662d508294a3992abd6846a9971d",
						"blockNumber": 5748756,
						"data": "0x",
						"index": 125,
						"topics": [
							"0x8be0079c531659141344cd1fd0a4f28419497f9722a3daafe3b4186f6b6457e0",
							"0x0000000000000000000000000000000000000000000000000000000000000000",
							"0x0000000000000000000000000496459b91e393950c4c5b71a0d5caca81710759"
						],
						"transactionHash": "0x5a09e5bb337ef9da18886855ff6ef7f2397eda53fa96bec55caa6beecf9f7cd7",
						"transactionIndex": 74
					},
					{
						"address": "0x1081B5AA9D9d4862A3dA4d469433FB36Ed80FA2A",
						"blockHash": "0x15af9d6b613e63aa67a94bdab9aac70d9515662d508294a3992abd6846a9971d",
						"blockNumber": 5748756,
						"data": "0x",
						"index": 126,
						"topics": [
							"0x6895c13664aa4f67288b25d7a21d7aaa34916e355fb9b6fae0a139a9085becb8",
							"0x000000000000000000000000ef1be3c049809cace5bc203bbe4ec1ab284bf75c"
						],
						"transactionHash": "0x5a09e5bb337ef9da18886855ff6ef7f2397eda53fa96bec55caa6beecf9f7cd7",
						"transactionIndex": 74
					},
					{
						"address": "0xEf1Be3C049809caCe5Bc203BBe4Ec1Ab284bF75c",
						"blockHash": "0x15af9d6b613e63aa67a94bdab9aac70d9515662d508294a3992abd6846a9971d",
						"blockNumber": 5748756,
						"data": "0x0000000000000000000000000000000000000000000000000000000000000006",
						"index": 127,
						"topics": [
							"0xa65fb05c5808f5f389d72edeaf719ce38f4cc55c1f69ca3cbfb31c21501caa07",
							"0xeb76efeb8f97c5cb80ab72b380ea5b356ede5f4abbf2a0c560104f8a80b45857"
						],
						"transactionHash": "0x5a09e5bb337ef9da18886855ff6ef7f2397eda53fa96bec55caa6beecf9f7cd7",
						"transactionIndex": 74
					},
					{
						"address": "0x1081B5AA9D9d4862A3dA4d469433FB36Ed80FA2A",
						"blockHash": "0x15af9d6b613e63aa67a94bdab9aac70d9515662d508294a3992abd6846a9971d",
						"blockNumber": 5748756,
						"data": "0x",
						"index": 128,
						"topics": [
							"0x6895c13664aa4f67288b25d7a21d7aaa34916e355fb9b6fae0a139a9085becb8",
							"0x000000000000000000000000ef1be3c049809cace5bc203bbe4ec1ab284bf75c"
						],
						"transactionHash": "0x5a09e5bb337ef9da18886855ff6ef7f2397eda53fa96bec55caa6beecf9f7cd7",
						"transactionIndex": 74
					},
					{
						"address": "0xEf1Be3C049809caCe5Bc203BBe4Ec1Ab284bF75c",
						"blockHash": "0x15af9d6b613e63aa67a94bdab9aac70d9515662d508294a3992abd6846a9971d",
						"blockNumber": 5748756,
						"data": "0x0000000000000000000000000000000000000000000000000000000000000007",
						"index": 129,
						"topics": [
							"0xa65fb05c5808f5f389d72edeaf719ce38f4cc55c1f69ca3cbfb31c21501caa07",
							"0xeb76efeb8f97c5cb80ab72b380ea5b356ede5f4abbf2a0c560104f8a80b45857"
						],
						"transactionHash": "0x5a09e5bb337ef9da18886855ff6ef7f2397eda53fa96bec55caa6beecf9f7cd7",
						"transactionIndex": 74
					},
					{
						"address": "0x1081B5AA9D9d4862A3dA4d469433FB36Ed80FA2A",
						"blockHash": "0x15af9d6b613e63aa67a94bdab9aac70d9515662d508294a3992abd6846a9971d",
						"blockNumber": 5748756,
						"data": "0x",
						"index": 130,
						"topics": [
							"0x6895c13664aa4f67288b25d7a21d7aaa34916e355fb9b6fae0a139a9085becb8",
							"0x000000000000000000000000ef1be3c049809cace5bc203bbe4ec1ab284bf75c"
						],
						"transactionHash": "0x5a09e5bb337ef9da18886855ff6ef7f2397eda53fa96bec55caa6beecf9f7cd7",
						"transactionIndex": 74
					},
					{
						"address": "0xEf1Be3C049809caCe5Bc203BBe4Ec1Ab284bF75c",
						"blockHash": "0x15af9d6b613e63aa67a94bdab9aac70d9515662d508294a3992abd6846a9971d",
						"blockNumber": 5748756,
						"data": "0x0000000000000000000000000000000000000000000000000000000000000008",
						"index": 131,
						"topics": [
							"0xa65fb05c5808f5f389d72edeaf719ce38f4cc55c1f69ca3cbfb31c21501caa07",
							"0xeb76efeb8f97c5cb80ab72b380ea5b356ede5f4abbf2a0c560104f8a80b45857"
						],
						"transactionHash": "0x5a09e5bb337ef9da18886855ff6ef7f2397eda53fa96bec55caa6beecf9f7cd7",
						"transactionIndex": 74
					}
				],
				"logsBloom": "0x00000000080010000008000000080200000000000008000000800000004000000060008000000000000000000040000000000000000000000000000000040010000000100000202400000008000800000401000000040000000200000000000000000000020000000000000000000800000000100000000000000010000000400001000000000000000100010000000000000000000840000000800020000000004000000010000000000000000000020200000000000000000000400016001000800002000800200000000008000000010000000000000000000000000060000000000000008004000008000000000200000000000000000000000400000100",
				"status": 1,
				"to": "0xB5E96127D417b1B3ef8438496a38A143167209c7"
			},
			"metadata": "{\"compiler\":{\"version\":\"0.8.23+commit.f704f362\"},\"language\":\"Solidity\",\"output\":{\"abi\":[{\"inputs\":[{\"internalType\":\"address\",\"name\":\"owner\",\"type\":\"address\"},{\"internalType\":\"address\",\"name\":\"feeProjectOwner\",\"type\":\"address\"}],\"stateMutability\":\"nonpayable\",\"type\":\"constructor\"},{\"inputs\":[],\"type\":\"error\",\"name\":\"CheckpointUnorderedInsertion\"},{\"inputs\":[],\"type\":\"error\",\"name\":\"ECDSAInvalidSignature\"},{\"inputs\":[{\"internalType\":\"uint256\",\"name\":\"length\",\"type\":\"uint256\"}],\"type\":\"error\",\"name\":\"ECDSAInvalidSignatureLength\"},{\"inputs\":[{\"internalType\":\"bytes32\",\"name\":\"s\",\"type\":\"bytes32\"}],\"type\":\"error\",\"name\":\"ECDSAInvalidSignatureS\"},{\"inputs\":[{\"internalType\":\"uint256\",\"name\":\"timepoint\",\"type\":\"uint256\"},{\"internalType\":\"uint48\",\"name\":\"clock\",\"type\":\"uint48\"}],\"type\":\"error\",\"name\":\"ERC5805FutureLookup\"},{\"inputs\":[],\"type\":\"error\",\"name\":\"ERC6372InconsistentClock\"},{\"inputs\":[{\"internalType\":\"address\",\"name\":\"sender\",\"type\":\"address\"},{\"internalType\":\"uint256\",\"name\":\"tokenId\",\"type\":\"uint256\"},{\"internalType\":\"address\",\"name\":\"owner\",\"type\":\"address\"}],\"type\":\"error\",\"name\":\"ERC721IncorrectOwner\"},{\"inputs\":[{\"internalType\":\"address\",\"name\":\"operator\",\"type\":\"address\"},{\"internalType\":\"uint256\",\"name\":\"tokenId\",\"type\":\"uint256\"}],\"type\":\"error\",\"name\":\"ERC721InsufficientApproval\"},{\"inputs\":[{\"internalType\":\"address\",\"name\":\"approver\",\"type\":\"address\"}],\"type\":\"error\",\"name\":\"ERC721InvalidApprover\"},{\"inputs\":[{\"internalType\":\"address\",\"name\":\"operator\",\"type\":\"address\"}],\"type\":\"error\",\"name\":\"ERC721InvalidOperator\"},{\"inputs\":[{\"internalType\":\"address\",\"name\":\"owner\",\"type\":\"address\"}],\"type\":\"error\",\"name\":\"ERC721InvalidOwner\"},{\"inputs\":[{\"internalType\":\"address\",\"name\":\"receiver\",\"type\":\"address\"}],\"type\":\"error\",\"name\":\"ERC721InvalidReceiver\"},{\"inputs\":[{\"internalType\":\"address\",\"name\":\"sender\",\"type\":\"address\"}],\"type\":\"error\",\"name\":\"ERC721InvalidSender\"},{\"inputs\":[{\"internalType\":\"uint256\",\"name\":\"tokenId\",\"type\":\"uint256\"}],\"type\":\"error\",\"name\":\"ERC721NonexistentToken\"},{\"inputs\":[{\"internalType\":\"address\",\"name\":\"account\",\"type\":\"address\"},{\"internalType\":\"uint256\",\"name\":\"currentNonce\",\"type\":\"uint256\"}],\"type\":\"error\",\"name\":\"InvalidAccountNonce\"},{\"inputs\":[],\"type\":\"error\",\"name\":\"InvalidShortString\"},{\"inputs\":[{\"internalType\":\"address\",\"name\":\"owner\",\"type\":\"address\"}],\"type\":\"error\",\"name\":\"OwnableInvalidOwner\"},{\"inputs\":[{\"internalType\":\"address\",\"name\":\"account\",\"type\":\"address\"}],\"type\":\"error\",\"name\":\"OwnableUnauthorizedAccount\"},{\"inputs\":[{\"internalType\":\"uint8\",\"name\":\"bits\",\"type\":\"uint8\"},{\"internalType\":\"uint256\",\"name\":\"value\",\"type\":\"uint256\"}],\"type\":\"error\",\"name\":\"SafeCastOverflowedUintDowncast\"},{\"inputs\":[{\"internalType\":\"string\",\"name\":\"str\",\"type\":\"string\"}],\"type\":\"error\",\"name\":\"StringTooLong\"},{\"inputs\":[{\"internalType\":\"uint256\",\"name\":\"expiry\",\"type\":\"uint256\"}],\"type\":\"error\",\"name\":\"VotesExpiredSignature\"},{\"inputs\":[{\"internalType\":\"address\",\"name\":\"owner\",\"type\":\"address\",\"indexed\":true},{\"internalType\":\"address\",\"name\":\"approved\",\"type\":\"address\",\"indexed\":true},{\"internalType\":\"uint256\",\"name\":\"tokenId\",\"type\":\"uint256\",\"indexed\":true}],\"type\":\"event\",\"name\":\"Approval\",\"anonymous\":false},{\"inputs\":[{\"internalType\":\"address\",\"name\":\"owner\",\"type\":\"address\",\"indexed\":true},{\"internalType\":\"address\",\"name\":\"operator\",\"type\":\"address\",\"indexed\":true},{\"internalType\":\"bool\",\"name\":\"approved\",\"type\":\"bool\",\"indexed\":false}],\"type\":\"event\",\"name\":\"ApprovalForAll\",\"anonymous\":false},{\"inputs\":[{\"internalType\":\"uint256\",\"name\":\"projectId\",\"type\":\"uint256\",\"indexed\":true},{\"internalType\":\"address\",\"name\":\"owner\",\"type\":\"address\",\"indexed\":true},{\"internalType\":\"address\",\"name\":\"caller\",\"type\":\"address\",\"indexed\":false}],\"type\":\"event\",\"name\":\"Create\",\"anonymous\":false},{\"inputs\":[{\"internalType\":\"address\",\"name\":\"delegator\",\"type\":\"address\",\"indexed\":true},{\"internalType\":\"address\",\"name\":\"fromDelegate\",\"type\":\"address\",\"indexed\":true},{\"internalType\":\"address\",\"name\":\"toDelegate\",\"type\":\"address\",\"indexed\":true}],\"type\":\"event\",\"name\":\"DelegateChanged\",\"anonymous\":false},{\"inputs\":[{\"internalType\":\"address\",\"name\":\"delegate\",\"type\":\"address\",\"indexed\":true},{\"internalType\":\"uint256\",\"name\":\"previousVotes\",\"type\":\"uint256\",\"indexed\":false},{\"internalType\":\"uint256\",\"name\":\"newVotes\",\"type\":\"uint256\",\"indexed\":false}],\"type\":\"event\",\"name\":\"DelegateVotesChanged\",\"anonymous\":false},{\"inputs\":[],\"type\":\"event\",\"name\":\"EIP712DomainChanged\",\"anonymous\":false},{\"inputs\":[{\"internalType\":\"address\",\"name\":\"previousOwner\",\"type\":\"address\",\"indexed\":true},{\"internalType\":\"address\",\"name\":\"newOwner\",\"type\":\"address\",\"indexed\":true}],\"type\":\"event\",\"name\":\"OwnershipTransferred\",\"anonymous\":false},{\"inputs\":[{\"internalType\":\"contract IJBTokenUriResolver\",\"name\":\"resolver\",\"type\":\"address\",\"indexed\":true},{\"internalType\":\"address\",\"name\":\"caller\",\"type\":\"address\",\"indexed\":false}],\"type\":\"event\",\"name\":\"SetTokenUriResolver\",\"anonymous\":false},{\"inputs\":[{\"internalType\":\"address\",\"name\":\"from\",\"type\":\"address\",\"indexed\":true},{\"internalType\":\"address\",\"name\":\"to\",\"type\":\"address\",\"indexed\":true},{\"internalType\":\"uint256\",\"name\":\"tokenId\",\"type\":\"uint256\",\"indexed\":true}],\"type\":\"event\",\"name\":\"Transfer\",\"anonymous\":false},{\"inputs\":[],\"stateMutability\":\"view\",\"type\":\"function\",\"name\":\"CLOCK_MODE\",\"outputs\":[{\"internalType\":\"string\",\"name\":\"\",\"type\":\"string\"}]},{\"inputs\":[{\"internalType\":\"address\",\"name\":\"to\",\"type\":\"address\"},{\"internalType\":\"uint256\",\"name\":\"tokenId\",\"type\":\"uint256\"}],\"stateMutability\":\"nonpayable\",\"type\":\"function\",\"name\":\"approve\"},{\"inputs\":[{\"internalType\":\"address\",\"name\":\"owner\",\"type\":\"address\"}],\"stateMutability\":\"view\",\"type\":\"function\",\"name\":\"balanceOf\",\"outputs\":[{\"internalType\":\"uint256\",\"name\":\"\",\"type\":\"uint256\"}]},{\"inputs\":[],\"stateMutability\":\"view\",\"type\":\"function\",\"name\":\"clock\",\"outputs\":[{\"internalType\":\"uint48\",\"name\":\"\",\"type\":\"uint48\"}]},{\"inputs\":[],\"stateMutability\":\"view\",\"type\":\"function\",\"name\":\"count\",\"outputs\":[{\"internalType\":\"uint256\",\"name\":\"\",\"type\":\"uint256\"}]},{\"inputs\":[{\"internalType\":\"address\",\"name\":\"owner\",\"type\":\"address\"}],\"stateMutability\":\"nonpayable\",\"type\":\"function\",\"name\":\"createFor\",\"outputs\":[{\"internalType\":\"uint256\",\"name\":\"projectId\",\"type\":\"uint256\"}]},{\"inputs\":[{\"internalType\":\"address\",\"name\":\"delegatee\",\"type\":\"address\"}],\"stateMutability\":\"nonpayable\",\"type\":\"function\",\"name\":\"delegate\"},{\"inputs\":[{\"internalType\":\"address\",\"name\":\"delegatee\",\"type\":\"address\"},{\"internalType\":\"uint256\",\"name\":\"nonce\",\"type\":\"uint256\"},{\"internalType\":\"uint256\",\"name\":\"expiry\",\"type\":\"uint256\"},{\"internalType\":\"uint8\",\"name\":\"v\",\"type\":\"uint8\"},{\"internalType\":\"bytes32\",\"name\":\"r\",\"type\":\"bytes32\"},{\"internalType\":\"bytes32\",\"name\":\"s\",\"type\":\"bytes32\"}],\"stateMutability\":\"nonpayable\",\"type\":\"function\",\"name\":\"delegateBySig\"},{\"inputs\":[{\"internalType\":\"address\",\"name\":\"account\",\"type\":\"address\"}],\"stateMutability\":\"view\",\"type\":\"function\",\"name\":\"delegates\",\"outputs\":[{\"internalType\":\"address\",\"name\":\"\",\"type\":\"address\"}]},{\"inputs\":[],\"stateMutability\":\"view\",\"type\":\"function\",\"name\":\"eip712Domain\",\"outputs\":[{\"internalType\":\"bytes1\",\"name\":\"fields\",\"type\":\"bytes1\"},{\"internalType\":\"string\",\"name\":\"name\",\"type\":\"string\"},{\"internalType\":\"string\",\"name\":\"version\",\"type\":\"string\"},{\"internalType\":\"uint256\",\"name\":\"chainId\",\"type\":\"uint256\"},{\"internalType\":\"address\",\"name\":\"verifyingContract\",\"type\":\"address\"},{\"internalType\":\"bytes32\",\"name\":\"salt\",\"type\":\"bytes32\"},{\"internalType\":\"uint256[]\",\"name\":\"extensions\",\"type\":\"uint256[]\"}]},{\"inputs\":[{\"internalType\":\"uint256\",\"name\":\"tokenId\",\"type\":\"uint256\"}],\"stateMutability\":\"view\",\"type\":\"function\",\"name\":\"getApproved\",\"outputs\":[{\"internalType\":\"address\",\"name\":\"\",\"type\":\"address\"}]},{\"inputs\":[{\"internalType\":\"uint256\",\"name\":\"timepoint\",\"type\":\"uint256\"}],\"stateMutability\":\"view\",\"type\":\"function\",\"name\":\"getPastTotalSupply\",\"outputs\":[{\"internalType\":\"uint256\",\"name\":\"\",\"type\":\"uint256\"}]},{\"inputs\":[{\"internalType\":\"address\",\"name\":\"account\",\"type\":\"address\"},{\"internalType\":\"uint256\",\"name\":\"timepoint\",\"type\":\"uint256\"}],\"stateMutability\":\"view\",\"type\":\"function\",\"name\":\"getPastVotes\",\"outputs\":[{\"internalType\":\"uint256\",\"name\":\"\",\"type\":\"uint256\"}]},{\"inputs\":[{\"internalType\":\"address\",\"name\":\"account\",\"type\":\"address\"}],\"stateMutability\":\"view\",\"type\":\"function\",\"name\":\"getVotes\",\"outputs\":[{\"internalType\":\"uint256\",\"name\":\"\",\"type\":\"uint256\"}]},{\"inputs\":[{\"internalType\":\"address\",\"name\":\"owner\",\"type\":\"address\"},{\"internalType\":\"address\",\"name\":\"operator\",\"type\":\"address\"}],\"stateMutability\":\"view\",\"type\":\"function\",\"name\":\"isApprovedForAll\",\"outputs\":[{\"internalType\":\"bool\",\"name\":\"\",\"type\":\"bool\"}]},{\"inputs\":[],\"stateMutability\":\"view\",\"type\":\"function\",\"name\":\"name\",\"outputs\":[{\"internalType\":\"string\",\"name\":\"\",\"type\":\"string\"}]},{\"inputs\":[{\"internalType\":\"address\",\"name\":\"owner\",\"type\":\"address\"}],\"stateMutability\":\"view\",\"type\":\"function\",\"name\":\"nonces\",\"outputs\":[{\"internalType\":\"uint256\",\"name\":\"\",\"type\":\"uint256\"}]},{\"inputs\":[],\"stateMutability\":\"view\",\"type\":\"function\",\"name\":\"owner\",\"outputs\":[{\"internalType\":\"address\",\"name\":\"\",\"type\":\"address\"}]},{\"inputs\":[{\"internalType\":\"uint256\",\"name\":\"tokenId\",\"type\":\"uint256\"}],\"stateMutability\":\"view\",\"type\":\"function\",\"name\":\"ownerOf\",\"outputs\":[{\"internalType\":\"address\",\"name\":\"\",\"type\":\"address\"}]},{\"inputs\":[],\"stateMutability\":\"nonpayable\",\"type\":\"function\",\"name\":\"renounceOwnership\"},{\"inputs\":[{\"internalType\":\"address\",\"name\":\"from\",\"type\":\"address\"},{\"internalType\":\"address\",\"name\":\"to\",\"type\":\"address\"},{\"internalType\":\"uint256\",\"name\":\"tokenId\",\"type\":\"uint256\"}],\"stateMutability\":\"nonpayable\",\"type\":\"function\",\"name\":\"safeTransferFrom\"},{\"inputs\":[{\"internalType\":\"address\",\"name\":\"from\",\"type\":\"address\"},{\"internalType\":\"address\",\"name\":\"to\",\"type\":\"address\"},{\"internalType\":\"uint256\",\"name\":\"tokenId\",\"type\":\"uint256\"},{\"internalType\":\"bytes\",\"name\":\"data\",\"type\":\"bytes\"}],\"stateMutability\":\"nonpayable\",\"type\":\"function\",\"name\":\"safeTransferFrom\"},{\"inputs\":[{\"internalType\":\"address\",\"name\":\"operator\",\"type\":\"address\"},{\"internalType\":\"bool\",\"name\":\"approved\",\"type\":\"bool\"}],\"stateMutability\":\"nonpayable\",\"type\":\"function\",\"name\":\"setApprovalForAll\"},{\"inputs\":[{\"internalType\":\"contract IJBTokenUriResolver\",\"name\":\"newResolver\",\"type\":\"address\"}],\"stateMutability\":\"nonpayable\",\"type\":\"function\",\"name\":\"setTokenUriResolver\"},{\"inputs\":[{\"internalType\":\"bytes4\",\"name\":\"interfaceId\",\"type\":\"bytes4\"}],\"stateMutability\":\"view\",\"type\":\"function\",\"name\":\"supportsInterface\",\"outputs\":[{\"internalType\":\"bool\",\"name\":\"\",\"type\":\"bool\"}]},{\"inputs\":[],\"stateMutability\":\"view\",\"type\":\"function\",\"name\":\"symbol\",\"outputs\":[{\"internalType\":\"string\",\"name\":\"\",\"type\":\"string\"}]},{\"inputs\":[{\"internalType\":\"uint256\",\"name\":\"projectId\",\"type\":\"uint256\"}],\"stateMutability\":\"view\",\"type\":\"function\",\"name\":\"tokenURI\",\"outputs\":[{\"internalType\":\"string\",\"name\":\"\",\"type\":\"string\"}]},{\"inputs\":[],\"stateMutability\":\"view\",\"type\":\"function\",\"name\":\"tokenUriResolver\",\"outputs\":[{\"internalType\":\"contract IJBTokenUriResolver\",\"name\":\"\",\"type\":\"address\"}]},{\"inputs\":[{\"internalType\":\"address\",\"name\":\"from\",\"type\":\"address\"},{\"internalType\":\"address\",\"name\":\"to\",\"type\":\"address\"},{\"internalType\":\"uint256\",\"name\":\"tokenId\",\"type\":\"uint256\"}],\"stateMutability\":\"nonpayable\",\"type\":\"function\",\"name\":\"transferFrom\"},{\"inputs\":[{\"internalType\":\"address\",\"name\":\"newOwner\",\"type\":\"address\"}],\"stateMutability\":\"nonpayable\",\"type\":\"function\",\"name\":\"transferOwnership\"}],\"devdoc\":{\"kind\":\"dev\",\"methods\":{\"CLOCK_MODE()\":{\"details\":\"Machine-readable description of the clock as specified in EIP-6372.\"},\"approve(address,uint256)\":{\"details\":\"See {IERC721-approve}.\"},\"balanceOf(address)\":{\"details\":\"See {IERC721-balanceOf}.\"},\"clock()\":{\"details\":\"Clock used for flagging checkpoints. Can be overridden to implement timestamp based checkpoints (and voting), in which case {CLOCK_MODE} should be overridden as well to match.\"},\"constructor\":{\"params\":{\"feeProjectOwner\":\"The address that will receive the fee-project. If `address(0)` the fee-project will not be minted.\",\"owner\":\"The owner of the contract who can set metadata.\"}},\"createFor(address)\":{\"details\":\"Anyone can create a project on an owner's behalf.\",\"params\":{\"owner\":\"The address that will be the owner of the project.\"},\"returns\":{\"projectId\":\"The token ID of the newly created project.\"}},\"delegate(address)\":{\"details\":\"Delegates votes from the sender to `delegatee`.\"},\"delegateBySig(address,uint256,uint256,uint8,bytes32,bytes32)\":{\"details\":\"Delegates votes from signer to `delegatee`.\"},\"delegates(address)\":{\"details\":\"Returns the delegate that `account` has chosen.\"},\"eip712Domain()\":{\"details\":\"See {IERC-5267}.\"},\"getApproved(uint256)\":{\"details\":\"See {IERC721-getApproved}.\"},\"getPastTotalSupply(uint256)\":{\"details\":\"Returns the total supply of votes available at a specific moment in the past. If the `clock()` is configured to use block numbers, this will return the value at the end of the corresponding block. NOTE: This value is the sum of all available votes, which is not necessarily the sum of all delegated votes. Votes that have not been delegated are still part of total supply, even though they would not participate in a vote. Requirements: - `timepoint` must be in the past. If operating using block numbers, the block must be already mined.\"},\"getPastVotes(address,uint256)\":{\"details\":\"Returns the amount of votes that `account` had at a specific moment in the past. If the `clock()` is configured to use block numbers, this will return the value at the end of the corresponding block. Requirements: - `timepoint` must be in the past. If operating using block numbers, the block must be already mined.\"},\"getVotes(address)\":{\"details\":\"Returns the current amount of votes that `account` has.\"},\"isApprovedForAll(address,address)\":{\"details\":\"See {IERC721-isApprovedForAll}.\"},\"name()\":{\"details\":\"See {IERC721Metadata-name}.\"},\"nonces(address)\":{\"details\":\"Returns the next unused nonce for an address.\"},\"owner()\":{\"details\":\"Returns the address of the current owner.\"},\"ownerOf(uint256)\":{\"details\":\"See {IERC721-ownerOf}.\"},\"renounceOwnership()\":{\"details\":\"Leaves the contract without owner. It will not be possible to call `onlyOwner` functions. Can only be called by the current owner. NOTE: Renouncing ownership will leave the contract without an owner, thereby disabling any functionality that is only available to the owner.\"},\"safeTransferFrom(address,address,uint256)\":{\"details\":\"See {IERC721-safeTransferFrom}.\"},\"safeTransferFrom(address,address,uint256,bytes)\":{\"details\":\"See {IERC721-safeTransferFrom}.\"},\"setApprovalForAll(address,bool)\":{\"details\":\"See {IERC721-setApprovalForAll}.\"},\"setTokenUriResolver(address)\":{\"params\":{\"newResolver\":\"The address of the new resolver.\"}},\"supportsInterface(bytes4)\":{\"details\":\"See {IERC165-supportsInterface}.\",\"params\":{\"interfaceId\":\"The ID of the interface to check for adherence to.\"},\"returns\":{\"_0\":\"A flag indicating if the provided interface ID is supported.\"}},\"symbol()\":{\"details\":\"See {IERC721Metadata-symbol}.\"},\"tokenURI(uint256)\":{\"params\":{\"projectId\":\"The ID of the project to get a URI of.\"},\"returns\":{\"_0\":\"The token URI to use for the provided `projectId`.\"}},\"transferFrom(address,address,uint256)\":{\"details\":\"See {IERC721-transferFrom}.\"},\"transferOwnership(address)\":{\"details\":\"Transfers ownership of the contract to a new account (`newOwner`). Can only be called by the current owner.\"}},\"version\":1},\"userdoc\":{\"kind\":\"user\",\"methods\":{\"count()\":{\"notice\":\"The number of projects that have been created using this contract.\"},\"createFor(address)\":{\"notice\":\"Create a new project for the specified owner, which mints an NFT (ERC-721) into their wallet.\"},\"setTokenUriResolver(address)\":{\"notice\":\"Sets the address of the resolver used to retrieve the tokenURI of projects.\"},\"supportsInterface(bytes4)\":{\"notice\":\"Indicates whether this contract adheres to the specified interface.\"},\"tokenURI(uint256)\":{\"notice\":\"Returns the URI where the ERC-721 standard JSON of a project is hosted.\"},\"tokenUriResolver()\":{\"notice\":\"The contract resolving each project ID to its ERC721 URI.\"}},\"version\":1}},\"settings\":{\"remappings\":[\"@bananapus/=node_modules/@bananapus/\",\"@chainlink/=node_modules/@chainlink/\",\"@eth-optimism/=node_modules/@eth-optimism/\",\"@openzeppelin/=node_modules/@openzeppelin/\",\"@prb/=node_modules/@prb/\",\"@scroll-tech/=node_modules/@scroll-tech/\",\"@sphinx-labs/contracts/=lib/sphinx/packages/contracts/contracts/foundry/\",\"@uniswap/=node_modules/@uniswap/\",\"ds-test/=lib/forge-std/lib/ds-test/src/\",\"forge-std/=lib/forge-std/src/\",\"hardhat/=node_modules/hardhat/\",\"solmate/=node_modules/solmate/\",\"sphinx/=lib/sphinx/\"],\"optimizer\":{\"enabled\":true,\"runs\":200},\"metadata\":{\"bytecodeHash\":\"ipfs\"},\"compilationTarget\":{\"src/JBProjects.sol\":\"JBProjects\"},\"evmVersion\":\"paris\",\"libraries\":{}},\"sources\":{\"node_modules/@openzeppelin/contracts/access/Ownable.sol\":{\"keccak256\":\"0xff6d0bb2e285473e5311d9d3caacb525ae3538a80758c10649a4d61029b017bb\",\"urls\":[\"bzz-raw://8ed324d3920bb545059d66ab97d43e43ee85fd3bd52e03e401f020afb0b120f6\",\"dweb:/ipfs/QmfEckWLmZkDDcoWrkEvMWhms66xwTLff9DDhegYpvHo1a\"],\"license\":\"MIT\"},\"node_modules/@openzeppelin/contracts/governance/utils/IVotes.sol\":{\"keccak256\":\"0x5e2b397ae88fd5c68e4f6762eb9f65f65c36702eb57796495f471d024ce70947\",\"urls\":[\"bzz-raw://348fc8e291d54314bb22437b532f443d5dbfb80c8cc9591567c1af6554ccf856\",\"dweb:/ipfs/QmP8ZTyitZinxcpwAHeYHhwj7u21zPpKXSiww38V74sXC2\"],\"license\":\"MIT\"},\"node_modules/@openzeppelin/contracts/governance/utils/Votes.sol\":{\"keccak256\":\"0xb8f69828d41b3594afd7a8c6393565901c205d8b5baf5bd2e42dbac637172979\",\"urls\":[\"bzz-raw://c790253821191ac46b2050d87df820d4209871f90c616381e2c2c00ff3eaac34\",\"dweb:/ipfs/QmcPETTyuZBzDRL39JNXj3SBMdx3Y9o4fPQLSZ27py5Jim\"],\"license\":\"MIT\"},\"node_modules/@openzeppelin/contracts/interfaces/IERC5267.sol\":{\"keccak256\":\"0x92aa1df62dc3d33f1656d63bede0923e0df0b706ad4137c8b10b0a8fe549fd92\",\"urls\":[\"bzz-raw://c5c0f29195ad64cbe556da8e257dac8f05f78c53f90323c0d2accf8e6922d33a\",\"dweb:/ipfs/QmQ61TED8uaCZwcbh8KkgRSsCav7x7HbcGHwHts3U4DmUP\"],\"license\":\"MIT\"},\"node_modules/@openzeppelin/contracts/interfaces/IERC5805.sol\":{\"keccak256\":\"0x4b9b89f91adbb7d3574f85394754cfb08c5b4eafca8a7061e2094a019ab8f818\",\"urls\":[\"bzz-raw://7373d5dbb8eb2381aa0883a456fac89283fcaf52f42fa805d4188f270716742a\",\"dweb:/ipfs/QmVnZDmT4ABvNhRJMaQnbCzsCA8HpyHPVaxi4fCi92LFv2\"],\"license\":\"MIT\"},\"node_modules/@openzeppelin/contracts/interfaces/IERC6372.sol\":{\"keccak256\":\"0xeb2857b7dafb7e0d8526dbfe794e6c047df2851c9e6ee91dc4a55f3c34af5d33\",\"urls\":[\"bzz-raw://49bf13f6c2a38a9bcc7b852d4e2b9cebb4068b832642cce61069cdb5f06bb2fb\",\"dweb:/ipfs/QmdKAJVE7rR2kENCZnEM1yKswrGii7WuE9gZpsQvnXJhwn\"],\"license\":\"MIT\"},\"node_modules/@openzeppelin/contracts/interfaces/draft-IERC6093.sol\":{\"keccak256\":\"0x60c65f701957fdd6faea1acb0bb45825791d473693ed9ecb34726fdfaa849dd7\",\"urls\":[\"bzz-raw://ea290300e0efc4d901244949dc4d877fd46e6c5e43dc2b26620e8efab3ab803f\",\"dweb:/ipfs/QmcLLJppxKeJWqHxE2CUkcfhuRTgHSn8J4kijcLa5MYhSt\"],\"license\":\"MIT\"},\"node_modules/@openzeppelin/contracts/token/ERC721/ERC721.sol\":{\"keccak256\":\"0x13dd061770956c8489b80cfc89d9cdfc8ea2783d953691ea037a380731d52784\",\"urls\":[\"bzz-raw://ed37f0f86e7fe31659e48c3a2a5920a92dd7f13c85cf8991fb79fe5f01e08efd\",\"dweb:/ipfs/QmUtm9bQGvjr9hHGwkPWrbgFmVqzaJcxjkaYDex2oGsonS\"],\"license\":\"MIT\"},\"node_modules/@openzeppelin/contracts/token/ERC721/IERC721.sol\":{\"keccak256\":\"0x5ef46daa3b58ef2702279d514780316efaa952915ee1aa3396f041ee2982b0b4\",\"urls\":[\"bzz-raw://2f8f2a76e23b02fc69e8cd24c3cb47da6c7af3a2d6c3a382f8ac25c6e094ade7\",\"dweb:/ipfs/QmPV4ZS4tPVv4mTCf9ejyZ1ai57EEibDRj7mN2ARDCLV5n\"],\"license\":\"MIT\"},\"node_modules/@openzeppelin/contracts/token/ERC721/IERC721Receiver.sol\":{\"keccak256\":\"0x7f7a26306c79a65fb8b3b6c757cd74660c532cd8a02e165488e30027dd34ca49\",\"urls\":[\"bzz-raw://d01e0b2b837ee2f628545e54d8715b49c7ef2befd08356c2e7f6c50dde8a1c22\",\"dweb:/ipfs/QmWBAn6y2D1xgftci97Z3qR9tQnkvwQpYwFwkTvDMvqU4i\"],\"license\":\"MIT\"},\"node_modules/@openzeppelin/contracts/token/ERC721/extensions/ERC721Votes.sol\":{\"keccak256\":\"0x51eec12bef5f18ea0bad353fbdc227c67b9082d1b459f7c87f47711ad152b0b3\",\"urls\":[\"bzz-raw://3f9142b8e720fa76191a966be6fd93a2a4357f5ac86bbb5cb050e53add32bfbe\",\"dweb:/ipfs/QmdFWtPT9PrMpQkExuDLCAELqA8yfYjQpfWKymdHdRTy2T\"],\"license\":\"MIT\"},\"node_modules/@openzeppelin/contracts/token/ERC721/extensions/IERC721Metadata.sol\":{\"keccak256\":\"0x37d1aaaa5a2908a09e9dcf56a26ddf762ecf295afb5964695937344fc6802ce1\",\"urls\":[\"bzz-raw://ed0bfc1b92153c5000e50f4021367b931bbe96372ac6facec3c4961b72053d02\",\"dweb:/ipfs/Qmbwp8VDerjS5SV1quwHH1oMXxPQ93fzfLVqJ2RCqbowGE\"],\"license\":\"MIT\"},\"node_modules/@openzeppelin/contracts/utils/Context.sol\":{\"keccak256\":\"0x493033a8d1b176a037b2cc6a04dad01a5c157722049bbecf632ca876224dd4b2\",\"urls\":[\"bzz-raw://6a708e8a5bdb1011c2c381c9a5cfd8a9a956d7d0a9dc1bd8bcdaf52f76ef2f12\",\"dweb:/ipfs/Qmax9WHBnVsZP46ZxEMNRQpLQnrdE4dK8LehML1Py8FowF\"],\"license\":\"MIT\"},\"node_modules/@openzeppelin/contracts/utils/Nonces.sol\":{\"keccak256\":\"0x0082767004fca261c332e9ad100868327a863a88ef724e844857128845ab350f\",\"urls\":[\"bzz-raw://132dce9686a54e025eb5ba5d2e48208f847a1ec3e60a3e527766d7bf53fb7f9e\",\"dweb:/ipfs/QmXn1a2nUZMpu2z6S88UoTfMVtY2YNh86iGrzJDYmMkKeZ\"],\"license\":\"MIT\"},\"node_modules/@openzeppelin/contracts/utils/ShortStrings.sol\":{\"keccak256\":\"0x18a7171df639a934592915a520ecb97c5bbc9675a1105607aac8a94e72bf62c6\",\"urls\":[\"bzz-raw://7478e1f13da69a2867ccd883001d836b75620362e743f196376d63ed0c422a1c\",\"dweb:/ipfs/QmWywcQ9TNfwtoqAxbn25d8C5VrV12PrPS9UjtGe6pL2BA\"],\"license\":\"MIT\"},\"node_modules/@openzeppelin/contracts/utils/StorageSlot.sol\":{\"keccak256\":\"0x32ba59b4b7299237c8ba56319110989d7978a039faf754793064e967e5894418\",\"urls\":[\"bzz-raw://1ae50c8b562427df610cc4540c9bf104acca7ef8e2dcae567ae7e52272281e9c\",\"dweb:/ipfs/QmTHiadFCSJUPpRjNegc5SahmeU8bAoY8i9Aq6tVscbcKR\"],\"license\":\"MIT\"},\"node_modules/@openzeppelin/contracts/utils/Strings.sol\":{\"keccak256\":\"0x55f102ea785d8399c0e58d1108e2d289506dde18abc6db1b7f68c1f9f9bc5792\",\"urls\":[\"bzz-raw://6e52e0a7765c943ef14e5bcf11e46e6139fa044be564881378349236bf2e3453\",\"dweb:/ipfs/QmZEeeXoFPW47amyP35gfzomF9DixqqTEPwzBakv6cZw6i\"],\"license\":\"MIT\"},\"node_modules/@openzeppelin/contracts/utils/cryptography/ECDSA.sol\":{\"keccak256\":\"0xeed0a08b0b091f528356cbc7245891a4c748682d4f6a18055e8e6ca77d12a6cf\",\"urls\":[\"bzz-raw://ba80ba06c8e6be852847e4c5f4492cef801feb6558ae09ed705ff2e04ea8b13c\",\"dweb:/ipfs/QmXRJDv3xHLVQCVXg1ZvR35QS9sij5y9NDWYzMfUfAdTHF\"],\"license\":\"MIT\"},\"node_modules/@openzeppelin/contracts/utils/cryptography/EIP712.sol\":{\"keccak256\":\"0x999f705a027ed6dc2d4e0df2cc4a509852c6bfd11de1c8161bf88832d0503fd0\",\"urls\":[\"bzz-raw://0798def67258d9a3cc20b2b4da7ebf351a5cefe0abfdd665d2d81f8e32f89b21\",\"dweb:/ipfs/QmPEvJosnPfzHNjKvCv2D3891mA2Ww8eUwkqrxBjuYdHCt\"],\"license\":\"MIT\"},\"node_modules/@openzeppelin/contracts/utils/cryptography/MessageHashUtils.sol\":{\"keccak256\":\"0xba333517a3add42cd35fe877656fc3dfcc9de53baa4f3aabbd6d12a92e4ea435\",\"urls\":[\"bzz-raw://2ceacff44c0fdc81e48e0e0b1db87a2076d3c1fb497341de077bf1da9f6b406c\",\"dweb:/ipfs/QmRUo1muMRAewxrKQ7TkXUtknyRoR57AyEkoPpiuZQ8FzX\"],\"license\":\"MIT\"},\"node_modules/@openzeppelin/contracts/utils/introspection/ERC165.sol\":{\"keccak256\":\"0x9e8778b14317ba9e256c30a76fd6c32b960af621987f56069e1e819c77c6a133\",\"urls\":[\"bzz-raw://1777404f1dcd0fac188e55a288724ec3c67b45288e49cc64723e95e702b49ab8\",\"dweb:/ipfs/QmZFdC626GButBApwDUvvTnUzdinevC3B24d7yyh57XkiA\"],\"license\":\"MIT\"},\"node_modules/@openzeppelin/contracts/utils/introspection/IERC165.sol\":{\"keccak256\":\"0x4296879f55019b23e135000eb36896057e7101fb7fb859c5ef690cf14643757b\",\"urls\":[\"bzz-raw://87b3541437c8c443ccd36795e56a338ed12855eec17f8da624511b8d1a7e14df\",\"dweb:/ipfs/QmeJQCtZrQjtJLr6u7ZHWeH3pBnjtLWzvRrKViAi7UZqxL\"],\"license\":\"MIT\"},\"node_modules/@openzeppelin/contracts/utils/math/Math.sol\":{\"keccak256\":\"0x005ec64c6313f0555d59e278f9a7a5ab2db5bdc72a027f255a37c327af1ec02d\",\"urls\":[\"bzz-raw://4ece9f0b9c8daca08c76b6b5405a6446b6f73b3a15fab7ff56e296cbd4a2c875\",\"dweb:/ipfs/QmQyRpyPRL5SQuAgj6SHmbir3foX65FJjbVTTQrA2EFg6L\"],\"license\":\"MIT\"},\"node_modules/@openzeppelin/contracts/utils/math/SafeCast.sol\":{\"keccak256\":\"0xe19a4d5f31d2861e7344e8e535e2feafb913d806d3e2b5fe7782741a2a7094fe\",\"urls\":[\"bzz-raw://4aed79c0fa6f0546ed02f2f683e8f77f0fd2ed7eb34d8bbf3d373c9a6d95b13c\",\"dweb:/ipfs/QmWqVz6UAVqmnWU5pqYPt1o6iDEZyPaBraAA3rKfTTSfYj\"],\"license\":\"MIT\"},\"node_modules/@openzeppelin/contracts/utils/math/SignedMath.sol\":{\"keccak256\":\"0x5f7e4076e175393767754387c962926577f1660dd9b810187b9002407656be72\",\"urls\":[\"bzz-raw://7d533a1c97cd43a57cd9c465f7ee8dd0e39ae93a8fb8ff8e5303a356b081cdcc\",\"dweb:/ipfs/QmVBEei6aTnvYNZp2CHYVNKyZS4q1KkjANfY39WVXZXVoT\"],\"license\":\"MIT\"},\"node_modules/@openzeppelin/contracts/utils/structs/Checkpoints.sol\":{\"keccak256\":\"0xbdc5e074d7dd6678f67e92b1a51a20226801a407b0e1af3da367c5d1ff4519ad\",\"urls\":[\"bzz-raw://a36cca6b22fff3db16fc789ff6c60eea71d4b156065d4d0c83a0bc5e91a77a8b\",\"dweb:/ipfs/QmYN3exd5AemxjBrN8XMB1p5LbbE16uC3sjbYjwi8AjcGR\"],\"license\":\"MIT\"},\"node_modules/@openzeppelin/contracts/utils/types/Time.sol\":{\"keccak256\":\"0xc7755af115020049e4140f224f9ee88d7e1799ffb0646f37bf0df24bf6213f58\",\"urls\":[\"bzz-raw://7f09bf94d5274334ec021f61a04659db303f31e60460e14b709c9bf187740111\",\"dweb:/ipfs/QmNvgomZYUwFAt4cZbPWAiTeSZQreGehY9BK5xyVJsUttb\"],\"license\":\"MIT\"},\"src/JBProjects.sol\":{\"keccak256\":\"0x4080dc08a3dfe2f7fba07a6f4dd3b58b0e08b37c91beda86875af3d7d117f2f2\",\"urls\":[\"bzz-raw://38b3ea6b199888ad4b4c31d4c52f640d67009f7a9c19c1a05321b4dd9d1a5823\",\"dweb:/ipfs/QmP1aro7BsCcZUBeqNCXpG6a3dB5eSmCf25qUC2KeCaFxy\"],\"license\":\"MIT\"},\"src/interfaces/IJBProjects.sol\":{\"keccak256\":\"0x735c2fb8f1fa827f054ee77f7a0ae4b312656217acb75b624d2c8fd9dc40151b\",\"urls\":[\"bzz-raw://ee7fc92299a8633a80693ae63ab494dcd125f1789487a54a39dc0e5696e5996f\",\"dweb:/ipfs/QmX7YJD4pS2XhgQb7p3JbBAXynT7YGPXcZe92BiWWRrsCL\"],\"license\":\"MIT\"},\"src/interfaces/IJBTokenUriResolver.sol\":{\"keccak256\":\"0xfa5cb00dcd6085d1ef912d071fe73c63f9478a2cd0f9d8bddaf659b6af2d0967\",\"urls\":[\"bzz-raw://282e4e7c342d65f77cde0e9a08fcaf20ef5cf379c7a48b639842c0ffd0b2afb8\",\"dweb:/ipfs/QmbnN3PEQeZaXdPLT75V1J79kMg7KqSMru37RHrL3z8Yf2\"],\"license\":\"MIT\"}},\"version\":1}",
			"args": [
				"0x1081B5AA9D9d4862A3dA4d469433FB36Ed80FA2A",
				"0x1081B5AA9D9d4862A3dA4d469433FB36Ed80FA2A"
			],
			"bytecode": "0x6101606040526000600d553480156200001757600080fd5b5060405162003553380380620035538339810160408190526200003a9162000da7565b81604051806040016040528060118152602001704a75696365626f782050726f6a6563747360781b815250604051806040016040528060018152602001603160f81b815250604051806040016040528060118152602001704a75696365626f782050726f6a6563747360781b81525060405180604001604052806008815260200167094aa92868a849eb60c31b8152508160009081620000db919062000e85565b506001620000ea828262000e85565b50620000fc9150839050600662000205565b610120526200010d81600762000205565b61014052815160208084019190912060e052815190820120610100524660a0526200019b60e05161010051604080517f8b73c3c69bb8fe3d512ecc4cf759cc79239f7b179b0ffacaa9a75d522b39400f60208201529081019290925260608201524660808201523060a082015260009060c00160405160208183030381529060405280519060200120905090565b60805250503060c0526001600160a01b038116620001d457604051631e4fbdf760e01b8152600060048201526024015b60405180910390fd5b620001df816200023e565b506001600160a01b03811615620001fd57620001fb8162000290565b505b5050620010d3565b600060208351101562000225576200021d8362000303565b905062000238565b8162000232848262000e85565b5060ff90505b92915050565b600c80546001600160a01b038381166001600160a01b0319831681179093556040519116919082907f8be0079c531659141344cd1fd0a4f28419497f9722a3daafe3b4186f6b6457e090600090a35050565b6000600d60008154620002a39062000f67565b91829055509050620002b6828262000346565b6001600160a01b038216817f365b3162cd780731fc55a794b59494d472bc2af701007f581843a70673814698336040516001600160a01b03909116815260200160405180910390a3919050565b600080829050601f8151111562000331578260405163305a27a960e01b8152600401620001cb919062000fcb565b80516200033e8262000fe0565b179392505050565b620003688282604051806020016040528060008152506200036c60201b60201c565b5050565b6200037883836200038c565b620003876000848484620003f6565b505050565b6001600160a01b038216620003b857604051633250574960e11b815260006004820152602401620001cb565b6000620003c78383836200052d565b90506001600160a01b0381161562000387576040516339e3563760e11b815260006004820152602401620001cb565b6001600160a01b0383163b156200052757604051630a85bd0160e11b81526001600160a01b0384169063150b7a02906200043b90339088908790879060040162001005565b6020604051808303816000875af192505050801562000479575060408051601f3d908101601f19168201909252620004769181019062001044565b60015b620004e7573d808015620004aa576040519150601f19603f3d011682016040523d82523d6000602084013e620004af565b606091505b508051600003620004df57604051633250574960e11b81526001600160a01b0385166004820152602401620001cb565b805181602001fd5b6001600160e01b03198116630a85bd0160e11b146200052557604051633250574960e11b81526001600160a01b0385166004820152602401620001cb565b505b50505050565b6000806200053d85858562000555565b90506200054d8186600162000654565b949350505050565b6000828152600260205260408120546001600160a01b0390811690831615620005855762000585818486620006ec565b6001600160a01b03811615620005c557620005a4600085818062000756565b6001600160a01b038116600090815260036020526040902080546000190190555b6001600160a01b03851615620005f5576001600160a01b0385166000908152600360205260409020805460010190555b60008481526002602052604080822080546001600160a01b0319166001600160a01b0389811691821790925591518793918516917fddf252ad1be2c89b69c2b068fc378daa952ba7f163c4a11628f55a4df523b3ef91a4949350505050565b6001600160a01b038316620006895762000686600b62000b316200088460201b17620006808462000899565b620008d3565b50505b6001600160a01b038216620006b857620006b5600b62000b3d6200091060201b17620006808462000899565b50505b6001600160a01b0383811660009081526009602052604080822054858416835291205462000387929182169116836200091e565b620006f983838362000a85565b62000387576001600160a01b0383166200072a57604051637e27328960e01b815260048101829052602401620001cb565b60405163177e802f60e01b81526001600160a01b038316600482015260248101829052604401620001cb565b80806200076b57506001600160a01b03821615155b15620008545760006200077e8462000b0b565b90506001600160a01b03831615801590620007ab5750826001600160a01b0316816001600160a01b031614155b8015620007de57506001600160a01b0380821660009081526005602090815260408083209387168352929052205460ff16155b15620008095760405163a9fbf51f60e01b81526001600160a01b0384166004820152602401620001cb565b8115620008525783856001600160a01b0316826001600160a01b03167f8c5be1e5ebec7d5bd14f71427d1e84f3dd0314c0f7b2291e5b200ac8c7c3b92560405160405180910390a45b505b5050600090815260046020526040902080546001600160a01b0319166001600160a01b0392909216919091179055565b600062000892828462001070565b9392505050565b60006001600160d01b03821115620008cf576040516306dfcc6560e41b815260d0600482015260248101839052604401620001cb565b5090565b60008062000903620008e462000b46565b620008fa620008f38862000b57565b868860201c565b87919062000ba6565b915091505b935093915050565b60006200089282846200109a565b816001600160a01b0316836001600160a01b031614158015620009415750600081115b1562000387576001600160a01b03831615620009e4576001600160a01b0383166000908152600a60209081526040822082916200098f919062000910901b62000b3d17620006808662000899565b6001600160d01b031691506001600160d01b03169150846001600160a01b0316600080516020620035338339815191528383604051620009d9929190918252602082015260400190565b60405180910390a250505b6001600160a01b0382161562000387576001600160a01b0382166000908152600a602090815260408220829162000a2c919062000884901b62000b3117620006808662000899565b6001600160d01b031691506001600160d01b03169150836001600160a01b031660008051602062003533833981519152838360405162000a76929190918252602082015260400190565b60405180910390a25050505050565b60006001600160a01b038316158015906200054d5750826001600160a01b0316846001600160a01b0316148062000ae157506001600160a01b0380851660009081526005602090815260408083209387168352929052205460ff165b806200054d5750506000908152600460205260409020546001600160a01b03908116911614919050565b6000818152600260205260408120546001600160a01b0316806200023857604051637e27328960e01b815260048101849052602401620001cb565b600062000b5262000bb6565b905090565b8054600090801562000b9d5762000b838362000b75600184620010bd565b600091825260209091200190565b54660100000000000090046001600160d01b031662000892565b60009392505050565b6000806200090385858562000bc3565b600062000b524362000d55565b82546000908190801562000cf657600062000be58762000b75600185620010bd565b60408051808201909152905465ffffffffffff80821680845266010000000000009092046001600160d01b03166020840152919250908716101562000c3d57604051632520601d60e01b815260040160405180910390fd5b805165ffffffffffff80881691160362000c91578462000c648862000b75600186620010bd565b80546001600160d01b039290921666010000000000000265ffffffffffff90921691909117905562000ce5565b6040805180820190915265ffffffffffff80881682526001600160d01b0380881660208085019182528b54600181018d5560008d815291909120945191519092166601000000000000029216919091179101555b602001519250839150620009089050565b50506040805180820190915265ffffffffffff80851682526001600160d01b0380851660208085019182528854600181018a5560008a815291822095519251909316660100000000000002919093161792019190915590508162000908565b600065ffffffffffff821115620008cf576040516306dfcc6560e41b81526030600482015260248101839052604401620001cb565b80516001600160a01b038116811462000da257600080fd5b919050565b6000806040838503121562000dbb57600080fd5b62000dc68362000d8a565b915062000dd66020840162000d8a565b90509250929050565b634e487b7160e01b600052604160045260246000fd5b600181811c9082168062000e0a57607f821691505b60208210810362000e2b57634e487b7160e01b600052602260045260246000fd5b50919050565b601f82111562000387576000816000526020600020601f850160051c8101602086101562000e5c5750805b601f850160051c820191505b8181101562000e7d5782815560010162000e68565b505050505050565b81516001600160401b0381111562000ea15762000ea162000ddf565b62000eb98162000eb2845462000df5565b8462000e31565b602080601f83116001811462000ef1576000841562000ed85750858301515b600019600386901b1c1916600185901b17855562000e7d565b600085815260208120601f198616915b8281101562000f225788860151825594840194600190910190840162000f01565b508582101562000f415787850151600019600388901b60f8161c191681555b5050505050600190811b01905550565b634e487b7160e01b600052601160045260246000fd5b60006001820162000f7c5762000f7c62000f51565b5060010190565b6000815180845260005b8181101562000fab5760208185018101518683018201520162000f8d565b506000602082860101526020601f19601f83011685010191505092915050565b60208152600062000892602083018462000f83565b8051602080830151919081101562000e2b5760001960209190910360031b1b16919050565b6001600160a01b03858116825284166020820152604081018390526080606082018190526000906200103a9083018462000f83565b9695505050505050565b6000602082840312156200105757600080fd5b81516001600160e01b0319811681146200089257600080fd5b6001600160d01b0381811683821601908082111562001093576200109362000f51565b5092915050565b6001600160d01b0382811682821603908082111562001093576200109362000f51565b8181038181111562000238576200023862000f51565b60805160a05160c05160e0516101005161012051610140516124056200112e6000396000610e2001526000610df3015260006117e1015260006117b9015260006117140152600061173e0152600061176801526124056000f3fe608060405234801561001057600080fd5b50600436106101da5760003560e01c80637ecebe0011610104578063a22cb465116100a2578063c87b56dd11610071578063c87b56dd14610422578063e131fc0c14610435578063e985e9c514610448578063f2fde38b1461045b57600080fd5b8063a22cb465146103d6578063b88d4fde146103e9578063c0715888146103fc578063c3cda5201461040f57600080fd5b80638e539e8c116100de5780638e539e8c1461038957806391ddadf41461039c57806395d89b41146103bb5780639ab24eb0146103c357600080fd5b80637ecebe001461033457806384b0196e1461035d5780638da5cb5b1461037857600080fd5b80633a46b1a81161017c5780635c19a95c1161014b5780635c19a95c146102f35780636352211e1461030657806370a0823114610319578063715018a61461032c57600080fd5b80633a46b1a81461029957806342842e0e146102ac5780634bf5d7e9146102bf578063587cde1e146102c757600080fd5b8063081812fc116101b8578063081812fc14610233578063095ea7b31461025e57806323b872dd146102735780632407497e1461028657600080fd5b806301ffc9a7146101df57806306661abd1461020757806306fdde031461021e575b600080fd5b6101f26101ed366004611e1d565b61046e565b60405190151581526020015b60405180910390f35b610210600d5481565b6040519081526020016101fe565b610226610499565b6040516101fe9190611e8a565b610246610241366004611e9d565b61052b565b6040516001600160a01b0390911681526020016101fe565b61027161026c366004611ecb565b610554565b005b610271610281366004611ef7565b610563565b610271610294366004611f38565b6105f3565b6102106102a7366004611ecb565b610650565b6102716102ba366004611ef7565b6106d1565b6102266106f1565b6102466102d5366004611f38565b6001600160a01b039081166000908152600960205260409020541690565b610271610301366004611f38565b610769565b610246610314366004611e9d565b610774565b610210610327366004611f38565b61077f565b6102716107c7565b610210610342366004611f38565b6001600160a01b031660009081526008602052604090205490565b6103656107db565b6040516101fe9796959493929190611f55565b600c546001600160a01b0316610246565b610210610397366004611e9d565b610821565b6103a461088b565b60405165ffffffffffff90911681526020016101fe565b61022661089a565b6102106103d1366004611f38565b6108a9565b6102716103e4366004611fee565b6108d9565b6102716103f736600461209b565b6108e4565b61021061040a366004611f38565b6108fb565b61027161041d36600461214a565b61096a565b610226610430366004611e9d565b610a27565b600e54610246906001600160a01b031681565b6101f26104563660046121ac565b610ac5565b610271610469366004611f38565b610af3565b60006001600160e01b03198216630321f74760e01b1480610493575061049382610b49565b92915050565b6060600080546104a8906121da565b80601f01602080910402602001604051908101604052809291908181526020018280546104d4906121da565b80156105215780601f106104f657610100808354040283529160200191610521565b820191906000526020600020905b81548152906001019060200180831161050457829003601f168201915b5050505050905090565b600061053682610b99565b506000828152600460205260409020546001600160a01b0316610493565b61055f828233610bd2565b5050565b6001600160a01b03821661059257604051633250574960e11b8152600060048201526024015b60405180910390fd5b600061059f838333610bdf565b9050836001600160a01b0316816001600160a01b0316146105ed576040516364283d7b60e01b81526001600160a01b0380861660048301526024820184905282166044820152606401610589565b50505050565b6105fb610c03565b600e80546001600160a01b0383166001600160a01b031990911681179091556040805133815290517fe7784d93cfbfa4408e19577e6cc0436f4dbb51214b70e100905dfce9def88c169181900360200190a250565b60008061065b61088b565b90508065ffffffffffff16831061069657604051637669fc0f60e11b81526004810184905265ffffffffffff82166024820152604401610589565b6106c06106a284610c30565b6001600160a01b0386166000908152600a6020526040902090610c67565b6001600160d01b0316949350505050565b6106ec838383604051806020016040528060008152506108e4565b505050565b60606106fb610d1d565b65ffffffffffff1661070b61088b565b65ffffffffffff1614610731576040516301bfc1c560e61b815260040160405180910390fd5b5060408051808201909152601d81527f6d6f64653d626c6f636b6e756d6265722666726f6d3d64656661756c74000000602082015290565b3361055f8183610d28565b600061049382610b99565b60006001600160a01b0382166107ab576040516322718ad960e21b815260006004820152602401610589565b506001600160a01b031660009081526003602052604090205490565b6107cf610c03565b6107d96000610d9a565b565b6000606080600080600060606107ef610dec565b6107f7610e19565b60408051600080825260208201909252600f60f81b9b939a50919850469750309650945092509050565b60008061082c61088b565b90508065ffffffffffff16831061086757604051637669fc0f60e11b81526004810184905265ffffffffffff82166024820152604401610589565b61087b61087384610c30565b600b90610c67565b6001600160d01b03169392505050565b6000610895610d1d565b905090565b6060600180546104a8906121da565b6001600160a01b0381166000908152600a602052604081206108ca90610e46565b6001600160d01b031692915050565b61055f338383610e7f565b6108ef848484610563565b6105ed84848484610f1e565b6000600d6000815461090c9061222a565b9182905550905061091d8282611047565b6001600160a01b038216817f365b3162cd780731fc55a794b59494d472bc2af701007f581843a70673814698336040516001600160a01b03909116815260200160405180910390a3919050565b8342111561098e57604051632341d78760e11b815260048101859052602401610589565b604080517fe48329057bfd03d55e49b547132e39cffd9c1820ad7b9d4c5307691425d15adf60208201526001600160a01b038816918101919091526060810186905260808101859052600090610a0890610a009060a00160405160208183030381529060405280519060200120611061565b85858561108e565b9050610a1481876110bc565b610a1e8188610d28565b50505050505050565b600e546060906001600160a01b031680610a51575050604080516020810190915260008152919050565b604051636d02a25560e11b8152600481018490526001600160a01b0382169063da0544aa90602401600060405180830381865afa158015610a96573d6000803e3d6000fd5b505050506040513d6000823e601f3d908101601f19168201604052610abe9190810190612243565b9392505050565b6001600160a01b03918216600090815260056020908152604080832093909416825291909152205460ff1690565b610afb610c03565b6001600160a01b038116610b2557604051631e4fbdf760e01b815260006004820152602401610589565b610b2e81610d9a565b50565b6000610abe82846122ba565b6000610abe82846122e1565b60006001600160e01b031982166380ac58cd60e01b1480610b7a57506001600160e01b03198216635b5e139f60e01b145b8061049357506301ffc9a760e01b6001600160e01b0319831614610493565b6000818152600260205260408120546001600160a01b03168061049357604051637e27328960e01b815260048101849052602401610589565b6106ec838383600161110f565b600080610bed858585611215565b9050610bfb8186600161130e565b949350505050565b600c546001600160a01b031633146107d95760405163118cdaa760e01b8152336004820152602401610589565b600065ffffffffffff821115610c63576040516306dfcc6560e41b81526030600482015260248101839052604401610589565b5090565b815460009081816005811115610cc6576000610c8284611389565b610c8c9085612301565b60008881526020902090915081015465ffffffffffff9081169087161015610cb657809150610cc4565b610cc1816001612314565b92505b505b6000610cd487878585611471565b90508015610d0f57610cf987610ceb600184612301565b600091825260209091200190565b54600160301b90046001600160d01b0316610d12565b60005b979650505050505050565b600061089543610c30565b6001600160a01b0382811660008181526009602052604080822080548686166001600160a01b0319821681179092559151919094169392849290917f3134e8a2e6d97e929a7e54011ea5485d7d196dd5f0ba4d4ef95803e8e3fc257f9190a46106ec8183610d95866114d3565b6114de565b600c80546001600160a01b038381166001600160a01b0319831681179093556040519116919082907f8be0079c531659141344cd1fd0a4f28419497f9722a3daafe3b4186f6b6457e090600090a35050565b60606108957f00000000000000000000000000000000000000000000000000000000000000006006611645565b60606108957f00000000000000000000000000000000000000000000000000000000000000006007611645565b80546000908015610e7657610e6083610ceb600184612301565b54600160301b90046001600160d01b0316610abe565b60009392505050565b6001600160a01b038216610eb157604051630b61174360e31b81526001600160a01b0383166004820152602401610589565b6001600160a01b03838116600081815260056020908152604080832094871680845294825291829020805460ff191686151590811790915591519182527f17307eab39ab6107e8899845ad3d59bd9653f200f220920489ca2b5937696c31910160405180910390a3505050565b6001600160a01b0383163b156105ed57604051630a85bd0160e11b81526001600160a01b0384169063150b7a0290610f60903390889087908790600401612327565b6020604051808303816000875af1925050508015610f9b575060408051601f3d908101601f19168201909252610f9891810190612364565b60015b611004573d808015610fc9576040519150601f19603f3d011682016040523d82523d6000602084013e610fce565b606091505b508051600003610ffc57604051633250574960e11b81526001600160a01b0385166004820152602401610589565b805181602001fd5b6001600160e01b03198116630a85bd0160e11b1461104057604051633250574960e11b81526001600160a01b0385166004820152602401610589565b5050505050565b61055f8282604051806020016040528060008152506116f0565b600061049361106e611707565b8360405161190160f01b8152600281019290925260228201526042902090565b6000806000806110a088888888611832565b9250925092506110b08282611901565b50909695505050505050565b6001600160a01b03821660009081526008602052604090208054600181019091558181146106ec576040516301d4b62360e61b81526001600160a01b038416600482015260248101829052604401610589565b808061112357506001600160a01b03821615155b156111e557600061113384610b99565b90506001600160a01b0383161580159061115f5750826001600160a01b0316816001600160a01b031614155b801561117257506111708184610ac5565b155b1561119b5760405163a9fbf51f60e01b81526001600160a01b0384166004820152602401610589565b81156111e35783856001600160a01b0316826001600160a01b03167f8c5be1e5ebec7d5bd14f71427d1e84f3dd0314c0f7b2291e5b200ac8c7c3b92560405160405180910390a45b505b5050600090815260046020526040902080546001600160a01b0319166001600160a01b0392909216919091179055565b6000828152600260205260408120546001600160a01b0390811690831615611242576112428184866119ba565b6001600160a01b038116156112805761125f60008560008061110f565b6001600160a01b038116600090815260036020526040902080546000190190555b6001600160a01b038516156112af576001600160a01b0385166000908152600360205260409020805460010190555b60008481526002602052604080822080546001600160a01b0319166001600160a01b0389811691821790925591518793918516917fddf252ad1be2c89b69c2b068fc378daa952ba7f163c4a11628f55a4df523b3ef91a4949350505050565b6001600160a01b03831661133557611332600b610b3161132d84611a1e565b611a52565b50505b6001600160a01b03821661135757611354600b610b3d61132d84611a1e565b50505b6001600160a01b038381166000908152600960205260408082205485841683529120546106ec929182169116836114de565b60008160000361139b57506000919050565b600060016113a884611a8b565b901c6001901b905060018184816113c1576113c1612381565b048201901c905060018184816113d9576113d9612381565b048201901c905060018184816113f1576113f1612381565b048201901c9050600181848161140957611409612381565b048201901c9050600181848161142157611421612381565b048201901c9050600181848161143957611439612381565b048201901c9050600181848161145157611451612381565b048201901c9050610abe8182858161146b5761146b612381565b04611b1f565b60005b818310156114cb5760006114888484611b35565b60008781526020902090915065ffffffffffff86169082015465ffffffffffff1611156114b7578092506114c5565b6114c2816001612314565b93505b50611474565b509392505050565b60006104938261077f565b816001600160a01b0316836001600160a01b0316141580156115005750600081115b156106ec576001600160a01b038316156115a3576001600160a01b0383166000908152600a60205260408120819061153e90610b3d61132d86611a1e565b6001600160d01b031691506001600160d01b03169150846001600160a01b03167fdec2bacdd2f05b59de34da9b523dff8be42e5e38e818c82fdb0bae774387a7248383604051611598929190918252602082015260400190565b60405180910390a250505b6001600160a01b038216156106ec576001600160a01b0382166000908152600a6020526040812081906115dc90610b3161132d86611a1e565b6001600160d01b031691506001600160d01b03169150836001600160a01b03167fdec2bacdd2f05b59de34da9b523dff8be42e5e38e818c82fdb0bae774387a7248383604051611636929190918252602082015260400190565b60405180910390a25050505050565b606060ff831461165f5761165883611b50565b9050610493565b81805461166b906121da565b80601f0160208091040260200160405190810160405280929190818152602001828054611697906121da565b80156116e45780601f106116b9576101008083540402835291602001916116e4565b820191906000526020600020905b8154815290600101906020018083116116c757829003601f168201915b50505050509050610493565b6116fa8383611b8f565b6106ec6000848484610f1e565b6000306001600160a01b037f00000000000000000000000000000000000000000000000000000000000000001614801561176057507f000000000000000000000000000000000000000000000000000000000000000046145b1561178a57507f000000000000000000000000000000000000000000000000000000000000000090565b610895604080517f8b73c3c69bb8fe3d512ecc4cf759cc79239f7b179b0ffacaa9a75d522b39400f60208201527f0000000000000000000000000000000000000000000000000000000000000000918101919091527f000000000000000000000000000000000000000000000000000000000000000060608201524660808201523060a082015260009060c00160405160208183030381529060405280519060200120905090565b600080807f7fffffffffffffffffffffffffffffff5d576e7357a4501ddfe92f46681b20a084111561186d57506000915060039050826118f7565b604080516000808252602082018084528a905260ff891692820192909252606081018790526080810186905260019060a0016020604051602081039080840390855afa1580156118c1573d6000803e3d6000fd5b5050604051601f1901519150506001600160a01b0381166118ed575060009250600191508290506118f7565b9250600091508190505b9450945094915050565b600082600381111561191557611915612397565b0361191e575050565b600182600381111561193257611932612397565b036119505760405163f645eedf60e01b815260040160405180910390fd5b600282600381111561196457611964612397565b036119855760405163fce698f760e01b815260048101829052602401610589565b600382600381111561199957611999612397565b0361055f576040516335e2f38360e21b815260048101829052602401610589565b6119c5838383611bf4565b6106ec576001600160a01b0383166119f357604051637e27328960e01b815260048101829052602401610589565b60405163177e802f60e01b81526001600160a01b038316600482015260248101829052604401610589565b60006001600160d01b03821115610c63576040516306dfcc6560e41b815260d0600482015260248101839052604401610589565b600080611a7e611a6061088b565b611a76611a6c88610e46565b868863ffffffff16565b879190611c57565b915091505b935093915050565b600080608083901c15611aa057608092831c92015b604083901c15611ab257604092831c92015b602083901c15611ac457602092831c92015b601083901c15611ad657601092831c92015b600883901c15611ae857600892831c92015b600483901c15611afa57600492831c92015b600283901c15611b0c57600292831c92015b600183901c156104935760010192915050565b6000818310611b2e5781610abe565b5090919050565b6000611b4460028484186123ad565b610abe90848416612314565b60606000611b5d83611c65565b604080516020808252818301909252919250600091906020820181803683375050509182525060208101929092525090565b6001600160a01b038216611bb957604051633250574960e11b815260006004820152602401610589565b6000611bc783836000610bdf565b90506001600160a01b038116156106ec576040516339e3563760e11b815260006004820152602401610589565b60006001600160a01b03831615801590610bfb5750826001600160a01b0316846001600160a01b03161480611c2e5750611c2e8484610ac5565b80610bfb5750506000908152600460205260409020546001600160a01b03908116911614919050565b600080611a7e858585611c8d565b600060ff8216601f81111561049357604051632cd44ac360e21b815260040160405180910390fd5b825460009081908015611dac576000611cab87610ceb600185612301565b60408051808201909152905465ffffffffffff808216808452600160301b9092046001600160d01b031660208401529192509087161015611cff57604051632520601d60e01b815260040160405180910390fd5b805165ffffffffffff808816911603611d4b5784611d2288610ceb600186612301565b80546001600160d01b0392909216600160301b0265ffffffffffff909216919091179055611d9c565b6040805180820190915265ffffffffffff80881682526001600160d01b0380881660208085019182528b54600181018d5560008d81529190912094519151909216600160301b029216919091179101555b602001519250839150611a839050565b50506040805180820190915265ffffffffffff80851682526001600160d01b0380851660208085019182528854600181018a5560008a815291822095519251909316600160301b029190931617920191909155905081611a83565b6001600160e01b031981168114610b2e57600080fd5b600060208284031215611e2f57600080fd5b8135610abe81611e07565b60005b83811015611e55578181015183820152602001611e3d565b50506000910152565b60008151808452611e76816020860160208601611e3a565b601f01601f19169290920160200192915050565b602081526000610abe6020830184611e5e565b600060208284031215611eaf57600080fd5b5035919050565b6001600160a01b0381168114610b2e57600080fd5b60008060408385031215611ede57600080fd5b8235611ee981611eb6565b946020939093013593505050565b600080600060608486031215611f0c57600080fd5b8335611f1781611eb6565b92506020840135611f2781611eb6565b929592945050506040919091013590565b600060208284031215611f4a57600080fd5b8135610abe81611eb6565b60ff60f81b881681526000602060e06020840152611f7660e084018a611e5e565b8381036040850152611f88818a611e5e565b606085018990526001600160a01b038816608086015260a0850187905284810360c08601528551808252602080880193509091019060005b81811015611fdc57835183529284019291840191600101611fc0565b50909c9b505050505050505050505050565b6000806040838503121561200157600080fd5b823561200c81611eb6565b91506020830135801515811461202157600080fd5b809150509250929050565b634e487b7160e01b600052604160045260246000fd5b604051601f8201601f1916810167ffffffffffffffff8111828210171561206b5761206b61202c565b604052919050565b600067ffffffffffffffff82111561208d5761208d61202c565b50601f01601f191660200190565b600080600080608085870312156120b157600080fd5b84356120bc81611eb6565b935060208501356120cc81611eb6565b925060408501359150606085013567ffffffffffffffff8111156120ef57600080fd5b8501601f8101871361210057600080fd5b803561211361210e82612073565b612042565b81815288602083850101111561212857600080fd5b8160208401602083013760006020838301015280935050505092959194509250565b60008060008060008060c0878903121561216357600080fd5b863561216e81611eb6565b95506020870135945060408701359350606087013560ff8116811461219257600080fd5b9598949750929560808101359460a0909101359350915050565b600080604083850312156121bf57600080fd5b82356121ca81611eb6565b9150602083013561202181611eb6565b600181811c908216806121ee57607f821691505b60208210810361220e57634e487b7160e01b600052602260045260246000fd5b50919050565b634e487b7160e01b600052601160045260246000fd5b60006001820161223c5761223c612214565b5060010190565b60006020828403121561225557600080fd5b815167ffffffffffffffff81111561226c57600080fd5b8201601f8101841361227d57600080fd5b805161228b61210e82612073565b8181528560208385010111156122a057600080fd5b6122b1826020830160208601611e3a565b95945050505050565b6001600160d01b038181168382160190808211156122da576122da612214565b5092915050565b6001600160d01b038281168282160390808211156122da576122da612214565b8181038181111561049357610493612214565b8082018082111561049357610493612214565b6001600160a01b038581168252841660208201526040810183905260806060820181905260009061235a90830184611e5e565b9695505050505050565b60006020828403121561237657600080fd5b8151610abe81611e07565b634e487b7160e01b600052601260045260246000fd5b634e487b7160e01b600052602160045260246000fd5b6000826123ca57634e487b7160e01b600052601260045260246000fd5b50049056fea26469706673582212206f1cfa324927d31b2efbcf8e911a8b1bdce2da7092d596e0a77f30bcfe6d256364736f6c63430008170033dec2bacdd2f05b59de34da9b523dff8be42e5e38e818c82fdb0bae774387a724",
			"deployedBytecode": "0x608060405234801561001057600080fd5b50600436106101da5760003560e01c80637ecebe0011610104578063a22cb465116100a2578063c87b56dd11610071578063c87b56dd14610422578063e131fc0c14610435578063e985e9c514610448578063f2fde38b1461045b57600080fd5b8063a22cb465146103d6578063b88d4fde146103e9578063c0715888146103fc578063c3cda5201461040f57600080fd5b80638e539e8c116100de5780638e539e8c1461038957806391ddadf41461039c57806395d89b41146103bb5780639ab24eb0146103c357600080fd5b80637ecebe001461033457806384b0196e1461035d5780638da5cb5b1461037857600080fd5b80633a46b1a81161017c5780635c19a95c1161014b5780635c19a95c146102f35780636352211e1461030657806370a0823114610319578063715018a61461032c57600080fd5b80633a46b1a81461029957806342842e0e146102ac5780634bf5d7e9146102bf578063587cde1e146102c757600080fd5b8063081812fc116101b8578063081812fc14610233578063095ea7b31461025e57806323b872dd146102735780632407497e1461028657600080fd5b806301ffc9a7146101df57806306661abd1461020757806306fdde031461021e575b600080fd5b6101f26101ed366004611e1d565b61046e565b60405190151581526020015b60405180910390f35b610210600d5481565b6040519081526020016101fe565b610226610499565b6040516101fe9190611e8a565b610246610241366004611e9d565b61052b565b6040516001600160a01b0390911681526020016101fe565b61027161026c366004611ecb565b610554565b005b610271610281366004611ef7565b610563565b610271610294366004611f38565b6105f3565b6102106102a7366004611ecb565b610650565b6102716102ba366004611ef7565b6106d1565b6102266106f1565b6102466102d5366004611f38565b6001600160a01b039081166000908152600960205260409020541690565b610271610301366004611f38565b610769565b610246610314366004611e9d565b610774565b610210610327366004611f38565b61077f565b6102716107c7565b610210610342366004611f38565b6001600160a01b031660009081526008602052604090205490565b6103656107db565b6040516101fe9796959493929190611f55565b600c546001600160a01b0316610246565b610210610397366004611e9d565b610821565b6103a461088b565b60405165ffffffffffff90911681526020016101fe565b61022661089a565b6102106103d1366004611f38565b6108a9565b6102716103e4366004611fee565b6108d9565b6102716103f736600461209b565b6108e4565b61021061040a366004611f38565b6108fb565b61027161041d36600461214a565b61096a565b610226610430366004611e9d565b610a27565b600e54610246906001600160a01b031681565b6101f26104563660046121ac565b610ac5565b610271610469366004611f38565b610af3565b60006001600160e01b03198216630321f74760e01b1480610493575061049382610b49565b92915050565b6060600080546104a8906121da565b80601f01602080910402602001604051908101604052809291908181526020018280546104d4906121da565b80156105215780601f106104f657610100808354040283529160200191610521565b820191906000526020600020905b81548152906001019060200180831161050457829003601f168201915b5050505050905090565b600061053682610b99565b506000828152600460205260409020546001600160a01b0316610493565b61055f828233610bd2565b5050565b6001600160a01b03821661059257604051633250574960e11b8152600060048201526024015b60405180910390fd5b600061059f838333610bdf565b9050836001600160a01b0316816001600160a01b0316146105ed576040516364283d7b60e01b81526001600160a01b0380861660048301526024820184905282166044820152606401610589565b50505050565b6105fb610c03565b600e80546001600160a01b0383166001600160a01b031990911681179091556040805133815290517fe7784d93cfbfa4408e19577e6cc0436f4dbb51214b70e100905dfce9def88c169181900360200190a250565b60008061065b61088b565b90508065ffffffffffff16831061069657604051637669fc0f60e11b81526004810184905265ffffffffffff82166024820152604401610589565b6106c06106a284610c30565b6001600160a01b0386166000908152600a6020526040902090610c67565b6001600160d01b0316949350505050565b6106ec838383604051806020016040528060008152506108e4565b505050565b60606106fb610d1d565b65ffffffffffff1661070b61088b565b65ffffffffffff1614610731576040516301bfc1c560e61b815260040160405180910390fd5b5060408051808201909152601d81527f6d6f64653d626c6f636b6e756d6265722666726f6d3d64656661756c74000000602082015290565b3361055f8183610d28565b600061049382610b99565b60006001600160a01b0382166107ab576040516322718ad960e21b815260006004820152602401610589565b506001600160a01b031660009081526003602052604090205490565b6107cf610c03565b6107d96000610d9a565b565b6000606080600080600060606107ef610dec565b6107f7610e19565b60408051600080825260208201909252600f60f81b9b939a50919850469750309650945092509050565b60008061082c61088b565b90508065ffffffffffff16831061086757604051637669fc0f60e11b81526004810184905265ffffffffffff82166024820152604401610589565b61087b61087384610c30565b600b90610c67565b6001600160d01b03169392505050565b6000610895610d1d565b905090565b6060600180546104a8906121da565b6001600160a01b0381166000908152600a602052604081206108ca90610e46565b6001600160d01b031692915050565b61055f338383610e7f565b6108ef848484610563565b6105ed84848484610f1e565b6000600d6000815461090c9061222a565b9182905550905061091d8282611047565b6001600160a01b038216817f365b3162cd780731fc55a794b59494d472bc2af701007f581843a70673814698336040516001600160a01b03909116815260200160405180910390a3919050565b8342111561098e57604051632341d78760e11b815260048101859052602401610589565b604080517fe48329057bfd03d55e49b547132e39cffd9c1820ad7b9d4c5307691425d15adf60208201526001600160a01b038816918101919091526060810186905260808101859052600090610a0890610a009060a00160405160208183030381529060405280519060200120611061565b85858561108e565b9050610a1481876110bc565b610a1e8188610d28565b50505050505050565b600e546060906001600160a01b031680610a51575050604080516020810190915260008152919050565b604051636d02a25560e11b8152600481018490526001600160a01b0382169063da0544aa90602401600060405180830381865afa158015610a96573d6000803e3d6000fd5b505050506040513d6000823e601f3d908101601f19168201604052610abe9190810190612243565b9392505050565b6001600160a01b03918216600090815260056020908152604080832093909416825291909152205460ff1690565b610afb610c03565b6001600160a01b038116610b2557604051631e4fbdf760e01b815260006004820152602401610589565b610b2e81610d9a565b50565b6000610abe82846122ba565b6000610abe82846122e1565b60006001600160e01b031982166380ac58cd60e01b1480610b7a57506001600160e01b03198216635b5e139f60e01b145b8061049357506301ffc9a760e01b6001600160e01b0319831614610493565b6000818152600260205260408120546001600160a01b03168061049357604051637e27328960e01b815260048101849052602401610589565b6106ec838383600161110f565b600080610bed858585611215565b9050610bfb8186600161130e565b949350505050565b600c546001600160a01b031633146107d95760405163118cdaa760e01b8152336004820152602401610589565b600065ffffffffffff821115610c63576040516306dfcc6560e41b81526030600482015260248101839052604401610589565b5090565b815460009081816005811115610cc6576000610c8284611389565b610c8c9085612301565b60008881526020902090915081015465ffffffffffff9081169087161015610cb657809150610cc4565b610cc1816001612314565b92505b505b6000610cd487878585611471565b90508015610d0f57610cf987610ceb600184612301565b600091825260209091200190565b54600160301b90046001600160d01b0316610d12565b60005b979650505050505050565b600061089543610c30565b6001600160a01b0382811660008181526009602052604080822080548686166001600160a01b0319821681179092559151919094169392849290917f3134e8a2e6d97e929a7e54011ea5485d7d196dd5f0ba4d4ef95803e8e3fc257f9190a46106ec8183610d95866114d3565b6114de565b600c80546001600160a01b038381166001600160a01b0319831681179093556040519116919082907f8be0079c531659141344cd1fd0a4f28419497f9722a3daafe3b4186f6b6457e090600090a35050565b60606108957f4a75696365626f782050726f6a656374730000000000000000000000000000116006611645565b60606108957f31000000000000000000000000000000000000000000000000000000000000016007611645565b80546000908015610e7657610e6083610ceb600184612301565b54600160301b90046001600160d01b0316610abe565b60009392505050565b6001600160a01b038216610eb157604051630b61174360e31b81526001600160a01b0383166004820152602401610589565b6001600160a01b03838116600081815260056020908152604080832094871680845294825291829020805460ff191686151590811790915591519182527f17307eab39ab6107e8899845ad3d59bd9653f200f220920489ca2b5937696c31910160405180910390a3505050565b6001600160a01b0383163b156105ed57604051630a85bd0160e11b81526001600160a01b0384169063150b7a0290610f60903390889087908790600401612327565b6020604051808303816000875af1925050508015610f9b575060408051601f3d908101601f19168201909252610f9891810190612364565b60015b611004573d808015610fc9576040519150601f19603f3d011682016040523d82523d6000602084013e610fce565b606091505b508051600003610ffc57604051633250574960e11b81526001600160a01b0385166004820152602401610589565b805181602001fd5b6001600160e01b03198116630a85bd0160e11b1461104057604051633250574960e11b81526001600160a01b0385166004820152602401610589565b5050505050565b61055f8282604051806020016040528060008152506116f0565b600061049361106e611707565b8360405161190160f01b8152600281019290925260228201526042902090565b6000806000806110a088888888611832565b9250925092506110b08282611901565b50909695505050505050565b6001600160a01b03821660009081526008602052604090208054600181019091558181146106ec576040516301d4b62360e61b81526001600160a01b038416600482015260248101829052604401610589565b808061112357506001600160a01b03821615155b156111e557600061113384610b99565b90506001600160a01b0383161580159061115f5750826001600160a01b0316816001600160a01b031614155b801561117257506111708184610ac5565b155b1561119b5760405163a9fbf51f60e01b81526001600160a01b0384166004820152602401610589565b81156111e35783856001600160a01b0316826001600160a01b03167f8c5be1e5ebec7d5bd14f71427d1e84f3dd0314c0f7b2291e5b200ac8c7c3b92560405160405180910390a45b505b5050600090815260046020526040902080546001600160a01b0319166001600160a01b0392909216919091179055565b6000828152600260205260408120546001600160a01b0390811690831615611242576112428184866119ba565b6001600160a01b038116156112805761125f60008560008061110f565b6001600160a01b038116600090815260036020526040902080546000190190555b6001600160a01b038516156112af576001600160a01b0385166000908152600360205260409020805460010190555b60008481526002602052604080822080546001600160a01b0319166001600160a01b0389811691821790925591518793918516917fddf252ad1be2c89b69c2b068fc378daa952ba7f163c4a11628f55a4df523b3ef91a4949350505050565b6001600160a01b03831661133557611332600b610b3161132d84611a1e565b611a52565b50505b6001600160a01b03821661135757611354600b610b3d61132d84611a1e565b50505b6001600160a01b038381166000908152600960205260408082205485841683529120546106ec929182169116836114de565b60008160000361139b57506000919050565b600060016113a884611a8b565b901c6001901b905060018184816113c1576113c1612381565b048201901c905060018184816113d9576113d9612381565b048201901c905060018184816113f1576113f1612381565b048201901c9050600181848161140957611409612381565b048201901c9050600181848161142157611421612381565b048201901c9050600181848161143957611439612381565b048201901c9050600181848161145157611451612381565b048201901c9050610abe8182858161146b5761146b612381565b04611b1f565b60005b818310156114cb5760006114888484611b35565b60008781526020902090915065ffffffffffff86169082015465ffffffffffff1611156114b7578092506114c5565b6114c2816001612314565b93505b50611474565b509392505050565b60006104938261077f565b816001600160a01b0316836001600160a01b0316141580156115005750600081115b156106ec576001600160a01b038316156115a3576001600160a01b0383166000908152600a60205260408120819061153e90610b3d61132d86611a1e565b6001600160d01b031691506001600160d01b03169150846001600160a01b03167fdec2bacdd2f05b59de34da9b523dff8be42e5e38e818c82fdb0bae774387a7248383604051611598929190918252602082015260400190565b60405180910390a250505b6001600160a01b038216156106ec576001600160a01b0382166000908152600a6020526040812081906115dc90610b3161132d86611a1e565b6001600160d01b031691506001600160d01b03169150836001600160a01b03167fdec2bacdd2f05b59de34da9b523dff8be42e5e38e818c82fdb0bae774387a7248383604051611636929190918252602082015260400190565b60405180910390a25050505050565b606060ff831461165f5761165883611b50565b9050610493565b81805461166b906121da565b80601f0160208091040260200160405190810160405280929190818152602001828054611697906121da565b80156116e45780601f106116b9576101008083540402835291602001916116e4565b820191906000526020600020905b8154815290600101906020018083116116c757829003601f168201915b50505050509050610493565b6116fa8383611b8f565b6106ec6000848484610f1e565b6000306001600160a01b037f000000000000000000000000f9dada4628eb3992202cf253625d4ecebbc1592f1614801561176057507f0000000000000000000000000000000000000000000000000000000000aa36a746145b1561178a57507ff5fe73e76dcb23f8aeb67c2f0726e220896440f8d301710d743889f633c9a68f90565b610895604080517f8b73c3c69bb8fe3d512ecc4cf759cc79239f7b179b0ffacaa9a75d522b39400f60208201527f2e5c5c1c4affeaeda2d3db263faddbd323c18ac7d44a6ca994665583d3b15dad918101919091527fc89efdaa54c0f20c7adf612882df0950f5a951637e0307cdcb4c672f298b8bc660608201524660808201523060a082015260009060c00160405160208183030381529060405280519060200120905090565b600080807f7fffffffffffffffffffffffffffffff5d576e7357a4501ddfe92f46681b20a084111561186d57506000915060039050826118f7565b604080516000808252602082018084528a905260ff891692820192909252606081018790526080810186905260019060a0016020604051602081039080840390855afa1580156118c1573d6000803e3d6000fd5b5050604051601f1901519150506001600160a01b0381166118ed575060009250600191508290506118f7565b9250600091508190505b9450945094915050565b600082600381111561191557611915612397565b0361191e575050565b600182600381111561193257611932612397565b036119505760405163f645eedf60e01b815260040160405180910390fd5b600282600381111561196457611964612397565b036119855760405163fce698f760e01b815260048101829052602401610589565b600382600381111561199957611999612397565b0361055f576040516335e2f38360e21b815260048101829052602401610589565b6119c5838383611bf4565b6106ec576001600160a01b0383166119f357604051637e27328960e01b815260048101829052602401610589565b60405163177e802f60e01b81526001600160a01b038316600482015260248101829052604401610589565b60006001600160d01b03821115610c63576040516306dfcc6560e41b815260d0600482015260248101839052604401610589565b600080611a7e611a6061088b565b611a76611a6c88610e46565b868863ffffffff16565b879190611c57565b915091505b935093915050565b600080608083901c15611aa057608092831c92015b604083901c15611ab257604092831c92015b602083901c15611ac457602092831c92015b601083901c15611ad657601092831c92015b600883901c15611ae857600892831c92015b600483901c15611afa57600492831c92015b600283901c15611b0c57600292831c92015b600183901c156104935760010192915050565b6000818310611b2e5781610abe565b5090919050565b6000611b4460028484186123ad565b610abe90848416612314565b60606000611b5d83611c65565b604080516020808252818301909252919250600091906020820181803683375050509182525060208101929092525090565b6001600160a01b038216611bb957604051633250574960e11b815260006004820152602401610589565b6000611bc783836000610bdf565b90506001600160a01b038116156106ec576040516339e3563760e11b815260006004820152602401610589565b60006001600160a01b03831615801590610bfb5750826001600160a01b0316846001600160a01b03161480611c2e5750611c2e8484610ac5565b80610bfb5750506000908152600460205260409020546001600160a01b03908116911614919050565b600080611a7e858585611c8d565b600060ff8216601f81111561049357604051632cd44ac360e21b815260040160405180910390fd5b825460009081908015611dac576000611cab87610ceb600185612301565b60408051808201909152905465ffffffffffff808216808452600160301b9092046001600160d01b031660208401529192509087161015611cff57604051632520601d60e01b815260040160405180910390fd5b805165ffffffffffff808816911603611d4b5784611d2288610ceb600186612301565b80546001600160d01b0392909216600160301b0265ffffffffffff909216919091179055611d9c565b6040805180820190915265ffffffffffff80881682526001600160d01b0380881660208085019182528b54600181018d5560008d81529190912094519151909216600160301b029216919091179101555b602001519250839150611a839050565b50506040805180820190915265ffffffffffff80851682526001600160d01b0380851660208085019182528854600181018a5560008a815291822095519251909316600160301b029190931617920191909155905081611a83565b6001600160e01b031981168114610b2e57600080fd5b600060208284031215611e2f57600080fd5b8135610abe81611e07565b60005b83811015611e55578181015183820152602001611e3d565b50506000910152565b60008151808452611e76816020860160208601611e3a565b601f01601f19169290920160200192915050565b602081526000610abe6020830184611e5e565b600060208284031215611eaf57600080fd5b5035919050565b6001600160a01b0381168114610b2e57600080fd5b60008060408385031215611ede57600080fd5b8235611ee981611eb6565b946020939093013593505050565b600080600060608486031215611f0c57600080fd5b8335611f1781611eb6565b92506020840135611f2781611eb6565b929592945050506040919091013590565b600060208284031215611f4a57600080fd5b8135610abe81611eb6565b60ff60f81b881681526000602060e06020840152611f7660e084018a611e5e565b8381036040850152611f88818a611e5e565b606085018990526001600160a01b038816608086015260a0850187905284810360c08601528551808252602080880193509091019060005b81811015611fdc57835183529284019291840191600101611fc0565b50909c9b505050505050505050505050565b6000806040838503121561200157600080fd5b823561200c81611eb6565b91506020830135801515811461202157600080fd5b809150509250929050565b634e487b7160e01b600052604160045260246000fd5b604051601f8201601f1916810167ffffffffffffffff8111828210171561206b5761206b61202c565b604052919050565b600067ffffffffffffffff82111561208d5761208d61202c565b50601f01601f191660200190565b600080600080608085870312156120b157600080fd5b84356120bc81611eb6565b935060208501356120cc81611eb6565b925060408501359150606085013567ffffffffffffffff8111156120ef57600080fd5b8501601f8101871361210057600080fd5b803561211361210e82612073565b612042565b81815288602083850101111561212857600080fd5b8160208401602083013760006020838301015280935050505092959194509250565b60008060008060008060c0878903121561216357600080fd5b863561216e81611eb6565b95506020870135945060408701359350606087013560ff8116811461219257600080fd5b9598949750929560808101359460a0909101359350915050565b600080604083850312156121bf57600080fd5b82356121ca81611eb6565b9150602083013561202181611eb6565b600181811c908216806121ee57607f821691505b60208210810361220e57634e487b7160e01b600052602260045260246000fd5b50919050565b634e487b7160e01b600052601160045260246000fd5b60006001820161223c5761223c612214565b5060010190565b60006020828403121561225557600080fd5b815167ffffffffffffffff81111561226c57600080fd5b8201601f8101841361227d57600080fd5b805161228b61210e82612073565b8181528560208385010111156122a057600080fd5b6122b1826020830160208601611e3a565b95945050505050565b6001600160d01b038181168382160190808211156122da576122da612214565b5092915050565b6001600160d01b038281168282160390808211156122da576122da612214565b8181038181111561049357610493612214565b8082018082111561049357610493612214565b6001600160a01b038581168252841660208201526040810183905260806060820181905260009061235a90830184611e5e565b9695505050505050565b60006020828403121561237657600080fd5b8151610abe81611e07565b634e487b7160e01b600052601260045260246000fd5b634e487b7160e01b600052602160045260246000fd5b6000826123ca57634e487b7160e01b600052601260045260246000fd5b50049056fea26469706673582212206f1cfa324927d31b2efbcf8e911a8b1bdce2da7092d596e0a77f30bcfe6d256364736f6c63430008170033",
			"devdoc": {
				"kind": "dev",
				"methods": {
					"CLOCK_MODE()": {
						"details": "Machine-readable description of the clock as specified in EIP-6372."
					},
					"approve(address,uint256)": {
						"details": "See {IERC721-approve}."
					},
					"balanceOf(address)": {
						"details": "See {IERC721-balanceOf}."
					},
					"clock()": {
						"details": "Clock used for flagging checkpoints. Can be overridden to implement timestamp based checkpoints (and voting), in which case {CLOCK_MODE} should be overridden as well to match."
					},
					"constructor": {
						"params": {
							"feeProjectOwner": "The address that will receive the fee-project. If `address(0)` the fee-project will not be minted.",
							"owner": "The owner of the contract who can set metadata."
						}
					},
					"createFor(address)": {
						"details": "Anyone can create a project on an owner's behalf.",
						"params": {
							"owner": "The address that will be the owner of the project."
						},
						"returns": {
							"projectId": "The token ID of the newly created project."
						}
					},
					"delegate(address)": {
						"details": "Delegates votes from the sender to `delegatee`."
					},
					"delegateBySig(address,uint256,uint256,uint8,bytes32,bytes32)": {
						"details": "Delegates votes from signer to `delegatee`."
					},
					"delegates(address)": {
						"details": "Returns the delegate that `account` has chosen."
					},
					"eip712Domain()": {
						"details": "See {IERC-5267}."
					},
					"getApproved(uint256)": {
						"details": "See {IERC721-getApproved}."
					},
					"getPastTotalSupply(uint256)": {
						"details": "Returns the total supply of votes available at a specific moment in the past. If the `clock()` is configured to use block numbers, this will return the value at the end of the corresponding block. NOTE: This value is the sum of all available votes, which is not necessarily the sum of all delegated votes. Votes that have not been delegated are still part of total supply, even though they would not participate in a vote. Requirements: - `timepoint` must be in the past. If operating using block numbers, the block must be already mined."
					},
					"getPastVotes(address,uint256)": {
						"details": "Returns the amount of votes that `account` had at a specific moment in the past. If the `clock()` is configured to use block numbers, this will return the value at the end of the corresponding block. Requirements: - `timepoint` must be in the past. If operating using block numbers, the block must be already mined."
					},
					"getVotes(address)": {
						"details": "Returns the current amount of votes that `account` has."
					},
					"isApprovedForAll(address,address)": {
						"details": "See {IERC721-isApprovedForAll}."
					},
					"name()": {
						"details": "See {IERC721Metadata-name}."
					},
					"nonces(address)": {
						"details": "Returns the next unused nonce for an address."
					},
					"owner()": {
						"details": "Returns the address of the current owner."
					},
					"ownerOf(uint256)": {
						"details": "See {IERC721-ownerOf}."
					},
					"renounceOwnership()": {
						"details": "Leaves the contract without owner. It will not be possible to call `onlyOwner` functions. Can only be called by the current owner. NOTE: Renouncing ownership will leave the contract without an owner, thereby disabling any functionality that is only available to the owner."
					},
					"safeTransferFrom(address,address,uint256)": {
						"details": "See {IERC721-safeTransferFrom}."
					},
					"safeTransferFrom(address,address,uint256,bytes)": {
						"details": "See {IERC721-safeTransferFrom}."
					},
					"setApprovalForAll(address,bool)": {
						"details": "See {IERC721-setApprovalForAll}."
					},
					"setTokenUriResolver(address)": {
						"params": {
							"newResolver": "The address of the new resolver."
						}
					},
					"supportsInterface(bytes4)": {
						"details": "See {IERC165-supportsInterface}.",
						"params": {
							"interfaceId": "The ID of the interface to check for adherence to."
						},
						"returns": {
							"_0": "A flag indicating if the provided interface ID is supported."
						}
					},
					"symbol()": {
						"details": "See {IERC721Metadata-symbol}."
					},
					"tokenURI(uint256)": {
						"params": {
							"projectId": "The ID of the project to get a URI of."
						},
						"returns": {
							"_0": "The token URI to use for the provided `projectId`."
						}
					},
					"transferFrom(address,address,uint256)": {
						"details": "See {IERC721-transferFrom}."
					},
					"transferOwnership(address)": {
						"details": "Transfers ownership of the contract to a new account (`newOwner`). Can only be called by the current owner."
					}
				},
				"version": 1
			},
			"userdoc": {
				"kind": "user",
				"methods": {
					"count()": {
						"notice": "The number of projects that have been created using this contract."
					},
					"createFor(address)": {
						"notice": "Create a new project for the specified owner, which mints an NFT (ERC-721) into their wallet."
					},
					"setTokenUriResolver(address)": {
						"notice": "Sets the address of the resolver used to retrieve the tokenURI of projects."
					},
					"supportsInterface(bytes4)": {
						"notice": "Indicates whether this contract adheres to the specified interface."
					},
					"tokenURI(uint256)": {
						"notice": "Returns the URI where the ERC-721 standard JSON of a project is hosted."
					},
					"tokenUriResolver()": {
						"notice": "The contract resolving each project ID to its ERC721 URI."
					}
				},
				"version": 1
			},
			"gitCommit": "8e6924651d1e8038d6c2982d6d0c09a070b141a7",
			"sourceName": "src/JBProjects.sol",
			"chainId": "11155111",
			"linkReferences": {},
			"deployedLinkReferences": {}
		},
		{
			"_format": "sphinx-sol-ct-artifact-1",
			"merkleRoot": "0x1c031ac0217a16bc8b880bc3a6e637a3fb319bf6343a8af2f9d37587d2ef9836",
			"contractName": "JBProjects",
			"address": "0x2ca466eB84DD69A99E25d10BBbdA6e1B3c562c49",
			"abi": [
				{
					"type": "constructor",
					"inputs": [
						{
							"name": "owner",
							"type": "address",
							"internalType": "address"
						},
						{
							"name": "feeProjectOwner",
							"type": "address",
							"internalType": "address"
						}
					],
					"stateMutability": "nonpayable"
				},
				{
					"type": "function",
					"name": "CLOCK_MODE",
					"inputs": [],
					"outputs": [
						{
							"name": "",
							"type": "string",
							"internalType": "string"
						}
					],
					"stateMutability": "view"
				},
				{
					"type": "function",
					"name": "approve",
					"inputs": [
						{
							"name": "to",
							"type": "address",
							"internalType": "address"
						},
						{
							"name": "tokenId",
							"type": "uint256",
							"internalType": "uint256"
						}
					],
					"outputs": [],
					"stateMutability": "nonpayable"
				},
				{
					"type": "function",
					"name": "balanceOf",
					"inputs": [
						{
							"name": "owner",
							"type": "address",
							"internalType": "address"
						}
					],
					"outputs": [
						{
							"name": "",
							"type": "uint256",
							"internalType": "uint256"
						}
					],
					"stateMutability": "view"
				},
				{
					"type": "function",
					"name": "clock",
					"inputs": [],
					"outputs": [
						{
							"name": "",
							"type": "uint48",
							"internalType": "uint48"
						}
					],
					"stateMutability": "view"
				},
				{
					"type": "function",
					"name": "count",
					"inputs": [],
					"outputs": [
						{
							"name": "",
							"type": "uint256",
							"internalType": "uint256"
						}
					],
					"stateMutability": "view"
				},
				{
					"type": "function",
					"name": "createFor",
					"inputs": [
						{
							"name": "owner",
							"type": "address",
							"internalType": "address"
						}
					],
					"outputs": [
						{
							"name": "projectId",
							"type": "uint256",
							"internalType": "uint256"
						}
					],
					"stateMutability": "nonpayable"
				},
				{
					"type": "function",
					"name": "delegate",
					"inputs": [
						{
							"name": "delegatee",
							"type": "address",
							"internalType": "address"
						}
					],
					"outputs": [],
					"stateMutability": "nonpayable"
				},
				{
					"type": "function",
					"name": "delegateBySig",
					"inputs": [
						{
							"name": "delegatee",
							"type": "address",
							"internalType": "address"
						},
						{
							"name": "nonce",
							"type": "uint256",
							"internalType": "uint256"
						},
						{
							"name": "expiry",
							"type": "uint256",
							"internalType": "uint256"
						},
						{
							"name": "v",
							"type": "uint8",
							"internalType": "uint8"
						},
						{
							"name": "r",
							"type": "bytes32",
							"internalType": "bytes32"
						},
						{
							"name": "s",
							"type": "bytes32",
							"internalType": "bytes32"
						}
					],
					"outputs": [],
					"stateMutability": "nonpayable"
				},
				{
					"type": "function",
					"name": "delegates",
					"inputs": [
						{
							"name": "account",
							"type": "address",
							"internalType": "address"
						}
					],
					"outputs": [
						{
							"name": "",
							"type": "address",
							"internalType": "address"
						}
					],
					"stateMutability": "view"
				},
				{
					"type": "function",
					"name": "eip712Domain",
					"inputs": [],
					"outputs": [
						{
							"name": "fields",
							"type": "bytes1",
							"internalType": "bytes1"
						},
						{
							"name": "name",
							"type": "string",
							"internalType": "string"
						},
						{
							"name": "version",
							"type": "string",
							"internalType": "string"
						},
						{
							"name": "chainId",
							"type": "uint256",
							"internalType": "uint256"
						},
						{
							"name": "verifyingContract",
							"type": "address",
							"internalType": "address"
						},
						{
							"name": "salt",
							"type": "bytes32",
							"internalType": "bytes32"
						},
						{
							"name": "extensions",
							"type": "uint256[]",
							"internalType": "uint256[]"
						}
					],
					"stateMutability": "view"
				},
				{
					"type": "function",
					"name": "getApproved",
					"inputs": [
						{
							"name": "tokenId",
							"type": "uint256",
							"internalType": "uint256"
						}
					],
					"outputs": [
						{
							"name": "",
							"type": "address",
							"internalType": "address"
						}
					],
					"stateMutability": "view"
				},
				{
					"type": "function",
					"name": "getPastTotalSupply",
					"inputs": [
						{
							"name": "timepoint",
							"type": "uint256",
							"internalType": "uint256"
						}
					],
					"outputs": [
						{
							"name": "",
							"type": "uint256",
							"internalType": "uint256"
						}
					],
					"stateMutability": "view"
				},
				{
					"type": "function",
					"name": "getPastVotes",
					"inputs": [
						{
							"name": "account",
							"type": "address",
							"internalType": "address"
						},
						{
							"name": "timepoint",
							"type": "uint256",
							"internalType": "uint256"
						}
					],
					"outputs": [
						{
							"name": "",
							"type": "uint256",
							"internalType": "uint256"
						}
					],
					"stateMutability": "view"
				},
				{
					"type": "function",
					"name": "getVotes",
					"inputs": [
						{
							"name": "account",
							"type": "address",
							"internalType": "address"
						}
					],
					"outputs": [
						{
							"name": "",
							"type": "uint256",
							"internalType": "uint256"
						}
					],
					"stateMutability": "view"
				},
				{
					"type": "function",
					"name": "isApprovedForAll",
					"inputs": [
						{
							"name": "owner",
							"type": "address",
							"internalType": "address"
						},
						{
							"name": "operator",
							"type": "address",
							"internalType": "address"
						}
					],
					"outputs": [
						{
							"name": "",
							"type": "bool",
							"internalType": "bool"
						}
					],
					"stateMutability": "view"
				},
				{
					"type": "function",
					"name": "name",
					"inputs": [],
					"outputs": [
						{
							"name": "",
							"type": "string",
							"internalType": "string"
						}
					],
					"stateMutability": "view"
				},
				{
					"type": "function",
					"name": "nonces",
					"inputs": [
						{
							"name": "owner",
							"type": "address",
							"internalType": "address"
						}
					],
					"outputs": [
						{
							"name": "",
							"type": "uint256",
							"internalType": "uint256"
						}
					],
					"stateMutability": "view"
				},
				{
					"type": "function",
					"name": "owner",
					"inputs": [],
					"outputs": [
						{
							"name": "",
							"type": "address",
							"internalType": "address"
						}
					],
					"stateMutability": "view"
				},
				{
					"type": "function",
					"name": "ownerOf",
					"inputs": [
						{
							"name": "tokenId",
							"type": "uint256",
							"internalType": "uint256"
						}
					],
					"outputs": [
						{
							"name": "",
							"type": "address",
							"internalType": "address"
						}
					],
					"stateMutability": "view"
				},
				{
					"type": "function",
					"name": "renounceOwnership",
					"inputs": [],
					"outputs": [],
					"stateMutability": "nonpayable"
				},
				{
					"type": "function",
					"name": "safeTransferFrom",
					"inputs": [
						{
							"name": "from",
							"type": "address",
							"internalType": "address"
						},
						{
							"name": "to",
							"type": "address",
							"internalType": "address"
						},
						{
							"name": "tokenId",
							"type": "uint256",
							"internalType": "uint256"
						}
					],
					"outputs": [],
					"stateMutability": "nonpayable"
				},
				{
					"type": "function",
					"name": "safeTransferFrom",
					"inputs": [
						{
							"name": "from",
							"type": "address",
							"internalType": "address"
						},
						{
							"name": "to",
							"type": "address",
							"internalType": "address"
						},
						{
							"name": "tokenId",
							"type": "uint256",
							"internalType": "uint256"
						},
						{
							"name": "data",
							"type": "bytes",
							"internalType": "bytes"
						}
					],
					"outputs": [],
					"stateMutability": "nonpayable"
				},
				{
					"type": "function",
					"name": "setApprovalForAll",
					"inputs": [
						{
							"name": "operator",
							"type": "address",
							"internalType": "address"
						},
						{
							"name": "approved",
							"type": "bool",
							"internalType": "bool"
						}
					],
					"outputs": [],
					"stateMutability": "nonpayable"
				},
				{
					"type": "function",
					"name": "setTokenUriResolver",
					"inputs": [
						{
							"name": "newResolver",
							"type": "address",
							"internalType": "contract IJBTokenUriResolver"
						}
					],
					"outputs": [],
					"stateMutability": "nonpayable"
				},
				{
					"type": "function",
					"name": "supportsInterface",
					"inputs": [
						{
							"name": "interfaceId",
							"type": "bytes4",
							"internalType": "bytes4"
						}
					],
					"outputs": [
						{
							"name": "",
							"type": "bool",
							"internalType": "bool"
						}
					],
					"stateMutability": "view"
				},
				{
					"type": "function",
					"name": "symbol",
					"inputs": [],
					"outputs": [
						{
							"name": "",
							"type": "string",
							"internalType": "string"
						}
					],
					"stateMutability": "view"
				},
				{
					"type": "function",
					"name": "tokenURI",
					"inputs": [
						{
							"name": "projectId",
							"type": "uint256",
							"internalType": "uint256"
						}
					],
					"outputs": [
						{
							"name": "",
							"type": "string",
							"internalType": "string"
						}
					],
					"stateMutability": "view"
				},
				{
					"type": "function",
					"name": "tokenUriResolver",
					"inputs": [],
					"outputs": [
						{
							"name": "",
							"type": "address",
							"internalType": "contract IJBTokenUriResolver"
						}
					],
					"stateMutability": "view"
				},
				{
					"type": "function",
					"name": "transferFrom",
					"inputs": [
						{
							"name": "from",
							"type": "address",
							"internalType": "address"
						},
						{
							"name": "to",
							"type": "address",
							"internalType": "address"
						},
						{
							"name": "tokenId",
							"type": "uint256",
							"internalType": "uint256"
						}
					],
					"outputs": [],
					"stateMutability": "nonpayable"
				},
				{
					"type": "function",
					"name": "transferOwnership",
					"inputs": [
						{
							"name": "newOwner",
							"type": "address",
							"internalType": "address"
						}
					],
					"outputs": [],
					"stateMutability": "nonpayable"
				},
				{
					"type": "event",
					"name": "Approval",
					"inputs": [
						{
							"name": "owner",
							"type": "address",
							"indexed": true,
							"internalType": "address"
						},
						{
							"name": "approved",
							"type": "address",
							"indexed": true,
							"internalType": "address"
						},
						{
							"name": "tokenId",
							"type": "uint256",
							"indexed": true,
							"internalType": "uint256"
						}
					],
					"anonymous": false
				},
				{
					"type": "event",
					"name": "ApprovalForAll",
					"inputs": [
						{
							"name": "owner",
							"type": "address",
							"indexed": true,
							"internalType": "address"
						},
						{
							"name": "operator",
							"type": "address",
							"indexed": true,
							"internalType": "address"
						},
						{
							"name": "approved",
							"type": "bool",
							"indexed": false,
							"internalType": "bool"
						}
					],
					"anonymous": false
				},
				{
					"type": "event",
					"name": "Create",
					"inputs": [
						{
							"name": "projectId",
							"type": "uint256",
							"indexed": true,
							"internalType": "uint256"
						},
						{
							"name": "owner",
							"type": "address",
							"indexed": true,
							"internalType": "address"
						},
						{
							"name": "caller",
							"type": "address",
							"indexed": false,
							"internalType": "address"
						}
					],
					"anonymous": false
				},
				{
					"type": "event",
					"name": "DelegateChanged",
					"inputs": [
						{
							"name": "delegator",
							"type": "address",
							"indexed": true,
							"internalType": "address"
						},
						{
							"name": "fromDelegate",
							"type": "address",
							"indexed": true,
							"internalType": "address"
						},
						{
							"name": "toDelegate",
							"type": "address",
							"indexed": true,
							"internalType": "address"
						}
					],
					"anonymous": false
				},
				{
					"type": "event",
					"name": "DelegateVotesChanged",
					"inputs": [
						{
							"name": "delegate",
							"type": "address",
							"indexed": true,
							"internalType": "address"
						},
						{
							"name": "previousVotes",
							"type": "uint256",
							"indexed": false,
							"internalType": "uint256"
						},
						{
							"name": "newVotes",
							"type": "uint256",
							"indexed": false,
							"internalType": "uint256"
						}
					],
					"anonymous": false
				},
				{
					"type": "event",
					"name": "EIP712DomainChanged",
					"inputs": [],
					"anonymous": false
				},
				{
					"type": "event",
					"name": "OwnershipTransferred",
					"inputs": [
						{
							"name": "previousOwner",
							"type": "address",
							"indexed": true,
							"internalType": "address"
						},
						{
							"name": "newOwner",
							"type": "address",
							"indexed": true,
							"internalType": "address"
						}
					],
					"anonymous": false
				},
				{
					"type": "event",
					"name": "SetTokenUriResolver",
					"inputs": [
						{
							"name": "resolver",
							"type": "address",
							"indexed": true,
							"internalType": "contract IJBTokenUriResolver"
						},
						{
							"name": "caller",
							"type": "address",
							"indexed": false,
							"internalType": "address"
						}
					],
					"anonymous": false
				},
				{
					"type": "event",
					"name": "Transfer",
					"inputs": [
						{
							"name": "from",
							"type": "address",
							"indexed": true,
							"internalType": "address"
						},
						{
							"name": "to",
							"type": "address",
							"indexed": true,
							"internalType": "address"
						},
						{
							"name": "tokenId",
							"type": "uint256",
							"indexed": true,
							"internalType": "uint256"
						}
					],
					"anonymous": false
				},
				{
					"type": "error",
					"name": "CheckpointUnorderedInsertion",
					"inputs": []
				},
				{
					"type": "error",
					"name": "ECDSAInvalidSignature",
					"inputs": []
				},
				{
					"type": "error",
					"name": "ECDSAInvalidSignatureLength",
					"inputs": [
						{
							"name": "length",
							"type": "uint256",
							"internalType": "uint256"
						}
					]
				},
				{
					"type": "error",
					"name": "ECDSAInvalidSignatureS",
					"inputs": [
						{
							"name": "s",
							"type": "bytes32",
							"internalType": "bytes32"
						}
					]
				},
				{
					"type": "error",
					"name": "ERC5805FutureLookup",
					"inputs": [
						{
							"name": "timepoint",
							"type": "uint256",
							"internalType": "uint256"
						},
						{
							"name": "clock",
							"type": "uint48",
							"internalType": "uint48"
						}
					]
				},
				{
					"type": "error",
					"name": "ERC6372InconsistentClock",
					"inputs": []
				},
				{
					"type": "error",
					"name": "ERC721IncorrectOwner",
					"inputs": [
						{
							"name": "sender",
							"type": "address",
							"internalType": "address"
						},
						{
							"name": "tokenId",
							"type": "uint256",
							"internalType": "uint256"
						},
						{
							"name": "owner",
							"type": "address",
							"internalType": "address"
						}
					]
				},
				{
					"type": "error",
					"name": "ERC721InsufficientApproval",
					"inputs": [
						{
							"name": "operator",
							"type": "address",
							"internalType": "address"
						},
						{
							"name": "tokenId",
							"type": "uint256",
							"internalType": "uint256"
						}
					]
				},
				{
					"type": "error",
					"name": "ERC721InvalidApprover",
					"inputs": [
						{
							"name": "approver",
							"type": "address",
							"internalType": "address"
						}
					]
				},
				{
					"type": "error",
					"name": "ERC721InvalidOperator",
					"inputs": [
						{
							"name": "operator",
							"type": "address",
							"internalType": "address"
						}
					]
				},
				{
					"type": "error",
					"name": "ERC721InvalidOwner",
					"inputs": [
						{
							"name": "owner",
							"type": "address",
							"internalType": "address"
						}
					]
				},
				{
					"type": "error",
					"name": "ERC721InvalidReceiver",
					"inputs": [
						{
							"name": "receiver",
							"type": "address",
							"internalType": "address"
						}
					]
				},
				{
					"type": "error",
					"name": "ERC721InvalidSender",
					"inputs": [
						{
							"name": "sender",
							"type": "address",
							"internalType": "address"
						}
					]
				},
				{
					"type": "error",
					"name": "ERC721NonexistentToken",
					"inputs": [
						{
							"name": "tokenId",
							"type": "uint256",
							"internalType": "uint256"
						}
					]
				},
				{
					"type": "error",
					"name": "InvalidAccountNonce",
					"inputs": [
						{
							"name": "account",
							"type": "address",
							"internalType": "address"
						},
						{
							"name": "currentNonce",
							"type": "uint256",
							"internalType": "uint256"
						}
					]
				},
				{
					"type": "error",
					"name": "InvalidShortString",
					"inputs": []
				},
				{
					"type": "error",
					"name": "OwnableInvalidOwner",
					"inputs": [
						{
							"name": "owner",
							"type": "address",
							"internalType": "address"
						}
					]
				},
				{
					"type": "error",
					"name": "OwnableUnauthorizedAccount",
					"inputs": [
						{
							"name": "account",
							"type": "address",
							"internalType": "address"
						}
					]
				},
				{
					"type": "error",
					"name": "SafeCastOverflowedUintDowncast",
					"inputs": [
						{
							"name": "bits",
							"type": "uint8",
							"internalType": "uint8"
						},
						{
							"name": "value",
							"type": "uint256",
							"internalType": "uint256"
						}
					]
				},
				{
					"type": "error",
					"name": "StringTooLong",
					"inputs": [
						{
							"name": "str",
							"type": "string",
							"internalType": "string"
						}
					]
				},
				{
					"type": "error",
					"name": "VotesExpiredSignature",
					"inputs": [
						{
							"name": "expiry",
							"type": "uint256",
							"internalType": "uint256"
						}
					]
				}
			],
			"solcInputHash": "5d7a79485a8a4fd8d39819ca7cc29822",
			"receipt": {
				"blockHash": "0xd7e8a5e444c838aaf54c798a1d5d50b949bcbc9fc3fafc4e95d90051a2bdd716",
				"blockNumber": 5822433,
				"contractAddress": null,
				"cumulativeGasUsed": "24974523",
				"from": "0xC034550B542b83BA1De312b21d1C94a9a52B1595",
				"gasPrice": "39238122146",
				"gasUsed": "11008727",
				"hash": "0xe8b9f2f06fa3e1424debc2e540e008426d3ec89f8a7a451274fd80f8ff626008",
				"index": 125,
				"logs": [
					{
						"address": "0xB5E96127D417b1B3ef8438496a38A143167209c7",
						"blockHash": "0xd7e8a5e444c838aaf54c798a1d5d50b949bcbc9fc3fafc4e95d90051a2bdd716",
						"blockNumber": 5822433,
						"data": "0x0000000000000000000000000000000000000000000000000000000000000000",
						"index": 217,
						"topics": [
							"0x572f161235911da04685a68c06adf558fc7e4a36909dca394650e0adc19cc93d",
							"0x000000000000000000000000c034550b542b83ba1de312b21d1c94a9a52b1595",
							"0x000000000000000000000000ef1be3c049809cace5bc203bbe4ec1ab284bf75c",
							"0x7d72c30d99b3361e6a64dd3043af44fc7ee6b0b3992aae3426633d4466b31dae"
						],
						"transactionHash": "0xe8b9f2f06fa3e1424debc2e540e008426d3ec89f8a7a451274fd80f8ff626008",
						"transactionIndex": 125
					},
					{
						"address": "0x1081B5AA9D9d4862A3dA4d469433FB36Ed80FA2A",
						"blockHash": "0xd7e8a5e444c838aaf54c798a1d5d50b949bcbc9fc3fafc4e95d90051a2bdd716",
						"blockNumber": 5822433,
						"data": "0x",
						"index": 218,
						"topics": [
							"0x6895c13664aa4f67288b25d7a21d7aaa34916e355fb9b6fae0a139a9085becb8",
							"0x000000000000000000000000ef1be3c049809cace5bc203bbe4ec1ab284bf75c"
						],
						"transactionHash": "0xe8b9f2f06fa3e1424debc2e540e008426d3ec89f8a7a451274fd80f8ff626008",
						"transactionIndex": 125
					},
					{
						"address": "0xEf1Be3C049809caCe5Bc203BBe4Ec1Ab284bF75c",
						"blockHash": "0xd7e8a5e444c838aaf54c798a1d5d50b949bcbc9fc3fafc4e95d90051a2bdd716",
						"blockNumber": 5822433,
						"data": "0x0000000000000000000000000000000000000000000000000000000000000001",
						"index": 219,
						"topics": [
							"0xa65fb05c5808f5f389d72edeaf719ce38f4cc55c1f69ca3cbfb31c21501caa07",
							"0x1c031ac0217a16bc8b880bc3a6e637a3fb319bf6343a8af2f9d37587d2ef9836"
						],
						"transactionHash": "0xe8b9f2f06fa3e1424debc2e540e008426d3ec89f8a7a451274fd80f8ff626008",
						"transactionIndex": 125
					},
					{
						"address": "0x2ca466eB84DD69A99E25d10BBbdA6e1B3c562c49",
						"blockHash": "0xd7e8a5e444c838aaf54c798a1d5d50b949bcbc9fc3fafc4e95d90051a2bdd716",
						"blockNumber": 5822433,
						"data": "0x",
						"index": 220,
						"topics": [
							"0x8be0079c531659141344cd1fd0a4f28419497f9722a3daafe3b4186f6b6457e0",
							"0x0000000000000000000000000000000000000000000000000000000000000000",
							"0x0000000000000000000000001081b5aa9d9d4862a3da4d469433fb36ed80fa2a"
						],
						"transactionHash": "0xe8b9f2f06fa3e1424debc2e540e008426d3ec89f8a7a451274fd80f8ff626008",
						"transactionIndex": 125
					},
					{
						"address": "0x2ca466eB84DD69A99E25d10BBbdA6e1B3c562c49",
						"blockHash": "0xd7e8a5e444c838aaf54c798a1d5d50b949bcbc9fc3fafc4e95d90051a2bdd716",
						"blockNumber": 5822433,
						"data": "0x",
						"index": 221,
						"topics": [
							"0xddf252ad1be2c89b69c2b068fc378daa952ba7f163c4a11628f55a4df523b3ef",
							"0x0000000000000000000000000000000000000000000000000000000000000000",
							"0x0000000000000000000000001081b5aa9d9d4862a3da4d469433fb36ed80fa2a",
							"0x0000000000000000000000000000000000000000000000000000000000000001"
						],
						"transactionHash": "0xe8b9f2f06fa3e1424debc2e540e008426d3ec89f8a7a451274fd80f8ff626008",
						"transactionIndex": 125
					},
					{
						"address": "0x2ca466eB84DD69A99E25d10BBbdA6e1B3c562c49",
						"blockHash": "0xd7e8a5e444c838aaf54c798a1d5d50b949bcbc9fc3fafc4e95d90051a2bdd716",
						"blockNumber": 5822433,
						"data": "0x0000000000000000000000004e59b44847b379578588920ca78fbf26c0b4956c",
						"index": 222,
						"topics": [
							"0x365b3162cd780731fc55a794b59494d472bc2af701007f581843a70673814698",
							"0x0000000000000000000000000000000000000000000000000000000000000001",
							"0x0000000000000000000000001081b5aa9d9d4862a3da4d469433fb36ed80fa2a"
						],
						"transactionHash": "0xe8b9f2f06fa3e1424debc2e540e008426d3ec89f8a7a451274fd80f8ff626008",
						"transactionIndex": 125
					},
					{
						"address": "0x1081B5AA9D9d4862A3dA4d469433FB36Ed80FA2A",
						"blockHash": "0xd7e8a5e444c838aaf54c798a1d5d50b949bcbc9fc3fafc4e95d90051a2bdd716",
						"blockNumber": 5822433,
						"data": "0x",
						"index": 223,
						"topics": [
							"0x6895c13664aa4f67288b25d7a21d7aaa34916e355fb9b6fae0a139a9085becb8",
							"0x000000000000000000000000ef1be3c049809cace5bc203bbe4ec1ab284bf75c"
						],
						"transactionHash": "0xe8b9f2f06fa3e1424debc2e540e008426d3ec89f8a7a451274fd80f8ff626008",
						"transactionIndex": 125
					},
					{
						"address": "0xEf1Be3C049809caCe5Bc203BBe4Ec1Ab284bF75c",
						"blockHash": "0xd7e8a5e444c838aaf54c798a1d5d50b949bcbc9fc3fafc4e95d90051a2bdd716",
						"blockNumber": 5822433,
						"data": "0x0000000000000000000000000000000000000000000000000000000000000002",
						"index": 224,
						"topics": [
							"0xa65fb05c5808f5f389d72edeaf719ce38f4cc55c1f69ca3cbfb31c21501caa07",
							"0x1c031ac0217a16bc8b880bc3a6e637a3fb319bf6343a8af2f9d37587d2ef9836"
						],
						"transactionHash": "0xe8b9f2f06fa3e1424debc2e540e008426d3ec89f8a7a451274fd80f8ff626008",
						"transactionIndex": 125
					},
					{
						"address": "0xCd7112aE7c3b2505F0795c1ba965e5694c25d696",
						"blockHash": "0xd7e8a5e444c838aaf54c798a1d5d50b949bcbc9fc3fafc4e95d90051a2bdd716",
						"blockNumber": 5822433,
						"data": "0x",
						"index": 225,
						"topics": [
							"0x8be0079c531659141344cd1fd0a4f28419497f9722a3daafe3b4186f6b6457e0",
							"0x0000000000000000000000000000000000000000000000000000000000000000",
							"0x0000000000000000000000001081b5aa9d9d4862a3da4d469433fb36ed80fa2a"
						],
						"transactionHash": "0xe8b9f2f06fa3e1424debc2e540e008426d3ec89f8a7a451274fd80f8ff626008",
						"transactionIndex": 125
					},
					{
						"address": "0x1081B5AA9D9d4862A3dA4d469433FB36Ed80FA2A",
						"blockHash": "0xd7e8a5e444c838aaf54c798a1d5d50b949bcbc9fc3fafc4e95d90051a2bdd716",
						"blockNumber": 5822433,
						"data": "0x",
						"index": 226,
						"topics": [
							"0x6895c13664aa4f67288b25d7a21d7aaa34916e355fb9b6fae0a139a9085becb8",
							"0x000000000000000000000000ef1be3c049809cace5bc203bbe4ec1ab284bf75c"
						],
						"transactionHash": "0xe8b9f2f06fa3e1424debc2e540e008426d3ec89f8a7a451274fd80f8ff626008",
						"transactionIndex": 125
					},
					{
						"address": "0xEf1Be3C049809caCe5Bc203BBe4Ec1Ab284bF75c",
						"blockHash": "0xd7e8a5e444c838aaf54c798a1d5d50b949bcbc9fc3fafc4e95d90051a2bdd716",
						"blockNumber": 5822433,
						"data": "0x0000000000000000000000000000000000000000000000000000000000000003",
						"index": 227,
						"topics": [
							"0xa65fb05c5808f5f389d72edeaf719ce38f4cc55c1f69ca3cbfb31c21501caa07",
							"0x1c031ac0217a16bc8b880bc3a6e637a3fb319bf6343a8af2f9d37587d2ef9836"
						],
						"transactionHash": "0xe8b9f2f06fa3e1424debc2e540e008426d3ec89f8a7a451274fd80f8ff626008",
						"transactionIndex": 125
					},
					{
						"address": "0x1081B5AA9D9d4862A3dA4d469433FB36Ed80FA2A",
						"blockHash": "0xd7e8a5e444c838aaf54c798a1d5d50b949bcbc9fc3fafc4e95d90051a2bdd716",
						"blockNumber": 5822433,
						"data": "0x",
						"index": 228,
						"topics": [
							"0x6895c13664aa4f67288b25d7a21d7aaa34916e355fb9b6fae0a139a9085becb8",
							"0x000000000000000000000000ef1be3c049809cace5bc203bbe4ec1ab284bf75c"
						],
						"transactionHash": "0xe8b9f2f06fa3e1424debc2e540e008426d3ec89f8a7a451274fd80f8ff626008",
						"transactionIndex": 125
					},
					{
						"address": "0xEf1Be3C049809caCe5Bc203BBe4Ec1Ab284bF75c",
						"blockHash": "0xd7e8a5e444c838aaf54c798a1d5d50b949bcbc9fc3fafc4e95d90051a2bdd716",
						"blockNumber": 5822433,
						"data": "0x0000000000000000000000000000000000000000000000000000000000000004",
						"index": 229,
						"topics": [
							"0xa65fb05c5808f5f389d72edeaf719ce38f4cc55c1f69ca3cbfb31c21501caa07",
							"0x1c031ac0217a16bc8b880bc3a6e637a3fb319bf6343a8af2f9d37587d2ef9836"
						],
						"transactionHash": "0xe8b9f2f06fa3e1424debc2e540e008426d3ec89f8a7a451274fd80f8ff626008",
						"transactionIndex": 125
					},
					{
						"address": "0x1081B5AA9D9d4862A3dA4d469433FB36Ed80FA2A",
						"blockHash": "0xd7e8a5e444c838aaf54c798a1d5d50b949bcbc9fc3fafc4e95d90051a2bdd716",
						"blockNumber": 5822433,
						"data": "0x",
						"index": 230,
						"topics": [
							"0x6895c13664aa4f67288b25d7a21d7aaa34916e355fb9b6fae0a139a9085becb8",
							"0x000000000000000000000000ef1be3c049809cace5bc203bbe4ec1ab284bf75c"
						],
						"transactionHash": "0xe8b9f2f06fa3e1424debc2e540e008426d3ec89f8a7a451274fd80f8ff626008",
						"transactionIndex": 125
					},
					{
						"address": "0xEf1Be3C049809caCe5Bc203BBe4Ec1Ab284bF75c",
						"blockHash": "0xd7e8a5e444c838aaf54c798a1d5d50b949bcbc9fc3fafc4e95d90051a2bdd716",
						"blockNumber": 5822433,
						"data": "0x0000000000000000000000000000000000000000000000000000000000000005",
						"index": 231,
						"topics": [
							"0xa65fb05c5808f5f389d72edeaf719ce38f4cc55c1f69ca3cbfb31c21501caa07",
							"0x1c031ac0217a16bc8b880bc3a6e637a3fb319bf6343a8af2f9d37587d2ef9836"
						],
						"transactionHash": "0xe8b9f2f06fa3e1424debc2e540e008426d3ec89f8a7a451274fd80f8ff626008",
						"transactionIndex": 125
					},
					{
						"address": "0xf8febDbCC8ACfb46BfB59e7695F77d8eA653a69d",
						"blockHash": "0xd7e8a5e444c838aaf54c798a1d5d50b949bcbc9fc3fafc4e95d90051a2bdd716",
						"blockNumber": 5822433,
						"data": "0x",
						"index": 232,
						"topics": [
							"0x8be0079c531659141344cd1fd0a4f28419497f9722a3daafe3b4186f6b6457e0",
							"0x0000000000000000000000000000000000000000000000000000000000000000",
							"0x000000000000000000000000f8febdbcc8acfb46bfb59e7695f77d8ea653a69d"
						],
						"transactionHash": "0xe8b9f2f06fa3e1424debc2e540e008426d3ec89f8a7a451274fd80f8ff626008",
						"transactionIndex": 125
					},
					{
						"address": "0x1081B5AA9D9d4862A3dA4d469433FB36Ed80FA2A",
						"blockHash": "0xd7e8a5e444c838aaf54c798a1d5d50b949bcbc9fc3fafc4e95d90051a2bdd716",
						"blockNumber": 5822433,
						"data": "0x",
						"index": 233,
						"topics": [
							"0x6895c13664aa4f67288b25d7a21d7aaa34916e355fb9b6fae0a139a9085becb8",
							"0x000000000000000000000000ef1be3c049809cace5bc203bbe4ec1ab284bf75c"
						],
						"transactionHash": "0xe8b9f2f06fa3e1424debc2e540e008426d3ec89f8a7a451274fd80f8ff626008",
						"transactionIndex": 125
					},
					{
						"address": "0xEf1Be3C049809caCe5Bc203BBe4Ec1Ab284bF75c",
						"blockHash": "0xd7e8a5e444c838aaf54c798a1d5d50b949bcbc9fc3fafc4e95d90051a2bdd716",
						"blockNumber": 5822433,
						"data": "0x0000000000000000000000000000000000000000000000000000000000000006",
						"index": 234,
						"topics": [
							"0xa65fb05c5808f5f389d72edeaf719ce38f4cc55c1f69ca3cbfb31c21501caa07",
							"0x1c031ac0217a16bc8b880bc3a6e637a3fb319bf6343a8af2f9d37587d2ef9836"
						],
						"transactionHash": "0xe8b9f2f06fa3e1424debc2e540e008426d3ec89f8a7a451274fd80f8ff626008",
						"transactionIndex": 125
					},
					{
						"address": "0x1081B5AA9D9d4862A3dA4d469433FB36Ed80FA2A",
						"blockHash": "0xd7e8a5e444c838aaf54c798a1d5d50b949bcbc9fc3fafc4e95d90051a2bdd716",
						"blockNumber": 5822433,
						"data": "0x",
						"index": 235,
						"topics": [
							"0x6895c13664aa4f67288b25d7a21d7aaa34916e355fb9b6fae0a139a9085becb8",
							"0x000000000000000000000000ef1be3c049809cace5bc203bbe4ec1ab284bf75c"
						],
						"transactionHash": "0xe8b9f2f06fa3e1424debc2e540e008426d3ec89f8a7a451274fd80f8ff626008",
						"transactionIndex": 125
					},
					{
						"address": "0xEf1Be3C049809caCe5Bc203BBe4Ec1Ab284bF75c",
						"blockHash": "0xd7e8a5e444c838aaf54c798a1d5d50b949bcbc9fc3fafc4e95d90051a2bdd716",
						"blockNumber": 5822433,
						"data": "0x0000000000000000000000000000000000000000000000000000000000000007",
						"index": 236,
						"topics": [
							"0xa65fb05c5808f5f389d72edeaf719ce38f4cc55c1f69ca3cbfb31c21501caa07",
							"0x1c031ac0217a16bc8b880bc3a6e637a3fb319bf6343a8af2f9d37587d2ef9836"
						],
						"transactionHash": "0xe8b9f2f06fa3e1424debc2e540e008426d3ec89f8a7a451274fd80f8ff626008",
						"transactionIndex": 125
					},
					{
						"address": "0x1081B5AA9D9d4862A3dA4d469433FB36Ed80FA2A",
						"blockHash": "0xd7e8a5e444c838aaf54c798a1d5d50b949bcbc9fc3fafc4e95d90051a2bdd716",
						"blockNumber": 5822433,
						"data": "0x",
						"index": 237,
						"topics": [
							"0x6895c13664aa4f67288b25d7a21d7aaa34916e355fb9b6fae0a139a9085becb8",
							"0x000000000000000000000000ef1be3c049809cace5bc203bbe4ec1ab284bf75c"
						],
						"transactionHash": "0xe8b9f2f06fa3e1424debc2e540e008426d3ec89f8a7a451274fd80f8ff626008",
						"transactionIndex": 125
					},
					{
						"address": "0xEf1Be3C049809caCe5Bc203BBe4Ec1Ab284bF75c",
						"blockHash": "0xd7e8a5e444c838aaf54c798a1d5d50b949bcbc9fc3fafc4e95d90051a2bdd716",
						"blockNumber": 5822433,
						"data": "0x0000000000000000000000000000000000000000000000000000000000000008",
						"index": 238,
						"topics": [
							"0xa65fb05c5808f5f389d72edeaf719ce38f4cc55c1f69ca3cbfb31c21501caa07",
							"0x1c031ac0217a16bc8b880bc3a6e637a3fb319bf6343a8af2f9d37587d2ef9836"
						],
						"transactionHash": "0xe8b9f2f06fa3e1424debc2e540e008426d3ec89f8a7a451274fd80f8ff626008",
						"transactionIndex": 125
					}
				],
				"logsBloom": "0x000000000800100000080000000802000000000000080000008000000040000000600080000000000000000000404000000000000000000000000000000400000000001080002004000000080102000000010000000c0000000200080000000000020000020000000000000000000800080000100000000000000010000000400011800200000000000100000000000000000000000000000000800000000000004000000010000000000000000000020200000000080000012080000006000000000002000000200000000008000000010000000000000000000000000060000000000000000004000000000000000200000000000000000040100000000000",
				"status": 1,
				"to": "0xB5E96127D417b1B3ef8438496a38A143167209c7"
			},
			"metadata": "{\"compiler\":{\"version\":\"0.8.23+commit.f704f362\"},\"language\":\"Solidity\",\"output\":{\"abi\":[{\"inputs\":[{\"internalType\":\"address\",\"name\":\"owner\",\"type\":\"address\"},{\"internalType\":\"address\",\"name\":\"feeProjectOwner\",\"type\":\"address\"}],\"stateMutability\":\"nonpayable\",\"type\":\"constructor\"},{\"inputs\":[],\"type\":\"error\",\"name\":\"CheckpointUnorderedInsertion\"},{\"inputs\":[],\"type\":\"error\",\"name\":\"ECDSAInvalidSignature\"},{\"inputs\":[{\"internalType\":\"uint256\",\"name\":\"length\",\"type\":\"uint256\"}],\"type\":\"error\",\"name\":\"ECDSAInvalidSignatureLength\"},{\"inputs\":[{\"internalType\":\"bytes32\",\"name\":\"s\",\"type\":\"bytes32\"}],\"type\":\"error\",\"name\":\"ECDSAInvalidSignatureS\"},{\"inputs\":[{\"internalType\":\"uint256\",\"name\":\"timepoint\",\"type\":\"uint256\"},{\"internalType\":\"uint48\",\"name\":\"clock\",\"type\":\"uint48\"}],\"type\":\"error\",\"name\":\"ERC5805FutureLookup\"},{\"inputs\":[],\"type\":\"error\",\"name\":\"ERC6372InconsistentClock\"},{\"inputs\":[{\"internalType\":\"address\",\"name\":\"sender\",\"type\":\"address\"},{\"internalType\":\"uint256\",\"name\":\"tokenId\",\"type\":\"uint256\"},{\"internalType\":\"address\",\"name\":\"owner\",\"type\":\"address\"}],\"type\":\"error\",\"name\":\"ERC721IncorrectOwner\"},{\"inputs\":[{\"internalType\":\"address\",\"name\":\"operator\",\"type\":\"address\"},{\"internalType\":\"uint256\",\"name\":\"tokenId\",\"type\":\"uint256\"}],\"type\":\"error\",\"name\":\"ERC721InsufficientApproval\"},{\"inputs\":[{\"internalType\":\"address\",\"name\":\"approver\",\"type\":\"address\"}],\"type\":\"error\",\"name\":\"ERC721InvalidApprover\"},{\"inputs\":[{\"internalType\":\"address\",\"name\":\"operator\",\"type\":\"address\"}],\"type\":\"error\",\"name\":\"ERC721InvalidOperator\"},{\"inputs\":[{\"internalType\":\"address\",\"name\":\"owner\",\"type\":\"address\"}],\"type\":\"error\",\"name\":\"ERC721InvalidOwner\"},{\"inputs\":[{\"internalType\":\"address\",\"name\":\"receiver\",\"type\":\"address\"}],\"type\":\"error\",\"name\":\"ERC721InvalidReceiver\"},{\"inputs\":[{\"internalType\":\"address\",\"name\":\"sender\",\"type\":\"address\"}],\"type\":\"error\",\"name\":\"ERC721InvalidSender\"},{\"inputs\":[{\"internalType\":\"uint256\",\"name\":\"tokenId\",\"type\":\"uint256\"}],\"type\":\"error\",\"name\":\"ERC721NonexistentToken\"},{\"inputs\":[{\"internalType\":\"address\",\"name\":\"account\",\"type\":\"address\"},{\"internalType\":\"uint256\",\"name\":\"currentNonce\",\"type\":\"uint256\"}],\"type\":\"error\",\"name\":\"InvalidAccountNonce\"},{\"inputs\":[],\"type\":\"error\",\"name\":\"InvalidShortString\"},{\"inputs\":[{\"internalType\":\"address\",\"name\":\"owner\",\"type\":\"address\"}],\"type\":\"error\",\"name\":\"OwnableInvalidOwner\"},{\"inputs\":[{\"internalType\":\"address\",\"name\":\"account\",\"type\":\"address\"}],\"type\":\"error\",\"name\":\"OwnableUnauthorizedAccount\"},{\"inputs\":[{\"internalType\":\"uint8\",\"name\":\"bits\",\"type\":\"uint8\"},{\"internalType\":\"uint256\",\"name\":\"value\",\"type\":\"uint256\"}],\"type\":\"error\",\"name\":\"SafeCastOverflowedUintDowncast\"},{\"inputs\":[{\"internalType\":\"string\",\"name\":\"str\",\"type\":\"string\"}],\"type\":\"error\",\"name\":\"StringTooLong\"},{\"inputs\":[{\"internalType\":\"uint256\",\"name\":\"expiry\",\"type\":\"uint256\"}],\"type\":\"error\",\"name\":\"VotesExpiredSignature\"},{\"inputs\":[{\"internalType\":\"address\",\"name\":\"owner\",\"type\":\"address\",\"indexed\":true},{\"internalType\":\"address\",\"name\":\"approved\",\"type\":\"address\",\"indexed\":true},{\"internalType\":\"uint256\",\"name\":\"tokenId\",\"type\":\"uint256\",\"indexed\":true}],\"type\":\"event\",\"name\":\"Approval\",\"anonymous\":false},{\"inputs\":[{\"internalType\":\"address\",\"name\":\"owner\",\"type\":\"address\",\"indexed\":true},{\"internalType\":\"address\",\"name\":\"operator\",\"type\":\"address\",\"indexed\":true},{\"internalType\":\"bool\",\"name\":\"approved\",\"type\":\"bool\",\"indexed\":false}],\"type\":\"event\",\"name\":\"ApprovalForAll\",\"anonymous\":false},{\"inputs\":[{\"internalType\":\"uint256\",\"name\":\"projectId\",\"type\":\"uint256\",\"indexed\":true},{\"internalType\":\"address\",\"name\":\"owner\",\"type\":\"address\",\"indexed\":true},{\"internalType\":\"address\",\"name\":\"caller\",\"type\":\"address\",\"indexed\":false}],\"type\":\"event\",\"name\":\"Create\",\"anonymous\":false},{\"inputs\":[{\"internalType\":\"address\",\"name\":\"delegator\",\"type\":\"address\",\"indexed\":true},{\"internalType\":\"address\",\"name\":\"fromDelegate\",\"type\":\"address\",\"indexed\":true},{\"internalType\":\"address\",\"name\":\"toDelegate\",\"type\":\"address\",\"indexed\":true}],\"type\":\"event\",\"name\":\"DelegateChanged\",\"anonymous\":false},{\"inputs\":[{\"internalType\":\"address\",\"name\":\"delegate\",\"type\":\"address\",\"indexed\":true},{\"internalType\":\"uint256\",\"name\":\"previousVotes\",\"type\":\"uint256\",\"indexed\":false},{\"internalType\":\"uint256\",\"name\":\"newVotes\",\"type\":\"uint256\",\"indexed\":false}],\"type\":\"event\",\"name\":\"DelegateVotesChanged\",\"anonymous\":false},{\"inputs\":[],\"type\":\"event\",\"name\":\"EIP712DomainChanged\",\"anonymous\":false},{\"inputs\":[{\"internalType\":\"address\",\"name\":\"previousOwner\",\"type\":\"address\",\"indexed\":true},{\"internalType\":\"address\",\"name\":\"newOwner\",\"type\":\"address\",\"indexed\":true}],\"type\":\"event\",\"name\":\"OwnershipTransferred\",\"anonymous\":false},{\"inputs\":[{\"internalType\":\"contract IJBTokenUriResolver\",\"name\":\"resolver\",\"type\":\"address\",\"indexed\":true},{\"internalType\":\"address\",\"name\":\"caller\",\"type\":\"address\",\"indexed\":false}],\"type\":\"event\",\"name\":\"SetTokenUriResolver\",\"anonymous\":false},{\"inputs\":[{\"internalType\":\"address\",\"name\":\"from\",\"type\":\"address\",\"indexed\":true},{\"internalType\":\"address\",\"name\":\"to\",\"type\":\"address\",\"indexed\":true},{\"internalType\":\"uint256\",\"name\":\"tokenId\",\"type\":\"uint256\",\"indexed\":true}],\"type\":\"event\",\"name\":\"Transfer\",\"anonymous\":false},{\"inputs\":[],\"stateMutability\":\"view\",\"type\":\"function\",\"name\":\"CLOCK_MODE\",\"outputs\":[{\"internalType\":\"string\",\"name\":\"\",\"type\":\"string\"}]},{\"inputs\":[{\"internalType\":\"address\",\"name\":\"to\",\"type\":\"address\"},{\"internalType\":\"uint256\",\"name\":\"tokenId\",\"type\":\"uint256\"}],\"stateMutability\":\"nonpayable\",\"type\":\"function\",\"name\":\"approve\"},{\"inputs\":[{\"internalType\":\"address\",\"name\":\"owner\",\"type\":\"address\"}],\"stateMutability\":\"view\",\"type\":\"function\",\"name\":\"balanceOf\",\"outputs\":[{\"internalType\":\"uint256\",\"name\":\"\",\"type\":\"uint256\"}]},{\"inputs\":[],\"stateMutability\":\"view\",\"type\":\"function\",\"name\":\"clock\",\"outputs\":[{\"internalType\":\"uint48\",\"name\":\"\",\"type\":\"uint48\"}]},{\"inputs\":[],\"stateMutability\":\"view\",\"type\":\"function\",\"name\":\"count\",\"outputs\":[{\"internalType\":\"uint256\",\"name\":\"\",\"type\":\"uint256\"}]},{\"inputs\":[{\"internalType\":\"address\",\"name\":\"owner\",\"type\":\"address\"}],\"stateMutability\":\"nonpayable\",\"type\":\"function\",\"name\":\"createFor\",\"outputs\":[{\"internalType\":\"uint256\",\"name\":\"projectId\",\"type\":\"uint256\"}]},{\"inputs\":[{\"internalType\":\"address\",\"name\":\"delegatee\",\"type\":\"address\"}],\"stateMutability\":\"nonpayable\",\"type\":\"function\",\"name\":\"delegate\"},{\"inputs\":[{\"internalType\":\"address\",\"name\":\"delegatee\",\"type\":\"address\"},{\"internalType\":\"uint256\",\"name\":\"nonce\",\"type\":\"uint256\"},{\"internalType\":\"uint256\",\"name\":\"expiry\",\"type\":\"uint256\"},{\"internalType\":\"uint8\",\"name\":\"v\",\"type\":\"uint8\"},{\"internalType\":\"bytes32\",\"name\":\"r\",\"type\":\"bytes32\"},{\"internalType\":\"bytes32\",\"name\":\"s\",\"type\":\"bytes32\"}],\"stateMutability\":\"nonpayable\",\"type\":\"function\",\"name\":\"delegateBySig\"},{\"inputs\":[{\"internalType\":\"address\",\"name\":\"account\",\"type\":\"address\"}],\"stateMutability\":\"view\",\"type\":\"function\",\"name\":\"delegates\",\"outputs\":[{\"internalType\":\"address\",\"name\":\"\",\"type\":\"address\"}]},{\"inputs\":[],\"stateMutability\":\"view\",\"type\":\"function\",\"name\":\"eip712Domain\",\"outputs\":[{\"internalType\":\"bytes1\",\"name\":\"fields\",\"type\":\"bytes1\"},{\"internalType\":\"string\",\"name\":\"name\",\"type\":\"string\"},{\"internalType\":\"string\",\"name\":\"version\",\"type\":\"string\"},{\"internalType\":\"uint256\",\"name\":\"chainId\",\"type\":\"uint256\"},{\"internalType\":\"address\",\"name\":\"verifyingContract\",\"type\":\"address\"},{\"internalType\":\"bytes32\",\"name\":\"salt\",\"type\":\"bytes32\"},{\"internalType\":\"uint256[]\",\"name\":\"extensions\",\"type\":\"uint256[]\"}]},{\"inputs\":[{\"internalType\":\"uint256\",\"name\":\"tokenId\",\"type\":\"uint256\"}],\"stateMutability\":\"view\",\"type\":\"function\",\"name\":\"getApproved\",\"outputs\":[{\"internalType\":\"address\",\"name\":\"\",\"type\":\"address\"}]},{\"inputs\":[{\"internalType\":\"uint256\",\"name\":\"timepoint\",\"type\":\"uint256\"}],\"stateMutability\":\"view\",\"type\":\"function\",\"name\":\"getPastTotalSupply\",\"outputs\":[{\"internalType\":\"uint256\",\"name\":\"\",\"type\":\"uint256\"}]},{\"inputs\":[{\"internalType\":\"address\",\"name\":\"account\",\"type\":\"address\"},{\"internalType\":\"uint256\",\"name\":\"timepoint\",\"type\":\"uint256\"}],\"stateMutability\":\"view\",\"type\":\"function\",\"name\":\"getPastVotes\",\"outputs\":[{\"internalType\":\"uint256\",\"name\":\"\",\"type\":\"uint256\"}]},{\"inputs\":[{\"internalType\":\"address\",\"name\":\"account\",\"type\":\"address\"}],\"stateMutability\":\"view\",\"type\":\"function\",\"name\":\"getVotes\",\"outputs\":[{\"internalType\":\"uint256\",\"name\":\"\",\"type\":\"uint256\"}]},{\"inputs\":[{\"internalType\":\"address\",\"name\":\"owner\",\"type\":\"address\"},{\"internalType\":\"address\",\"name\":\"operator\",\"type\":\"address\"}],\"stateMutability\":\"view\",\"type\":\"function\",\"name\":\"isApprovedForAll\",\"outputs\":[{\"internalType\":\"bool\",\"name\":\"\",\"type\":\"bool\"}]},{\"inputs\":[],\"stateMutability\":\"view\",\"type\":\"function\",\"name\":\"name\",\"outputs\":[{\"internalType\":\"string\",\"name\":\"\",\"type\":\"string\"}]},{\"inputs\":[{\"internalType\":\"address\",\"name\":\"owner\",\"type\":\"address\"}],\"stateMutability\":\"view\",\"type\":\"function\",\"name\":\"nonces\",\"outputs\":[{\"internalType\":\"uint256\",\"name\":\"\",\"type\":\"uint256\"}]},{\"inputs\":[],\"stateMutability\":\"view\",\"type\":\"function\",\"name\":\"owner\",\"outputs\":[{\"internalType\":\"address\",\"name\":\"\",\"type\":\"address\"}]},{\"inputs\":[{\"internalType\":\"uint256\",\"name\":\"tokenId\",\"type\":\"uint256\"}],\"stateMutability\":\"view\",\"type\":\"function\",\"name\":\"ownerOf\",\"outputs\":[{\"internalType\":\"address\",\"name\":\"\",\"type\":\"address\"}]},{\"inputs\":[],\"stateMutability\":\"nonpayable\",\"type\":\"function\",\"name\":\"renounceOwnership\"},{\"inputs\":[{\"internalType\":\"address\",\"name\":\"from\",\"type\":\"address\"},{\"internalType\":\"address\",\"name\":\"to\",\"type\":\"address\"},{\"internalType\":\"uint256\",\"name\":\"tokenId\",\"type\":\"uint256\"}],\"stateMutability\":\"nonpayable\",\"type\":\"function\",\"name\":\"safeTransferFrom\"},{\"inputs\":[{\"internalType\":\"address\",\"name\":\"from\",\"type\":\"address\"},{\"internalType\":\"address\",\"name\":\"to\",\"type\":\"address\"},{\"internalType\":\"uint256\",\"name\":\"tokenId\",\"type\":\"uint256\"},{\"internalType\":\"bytes\",\"name\":\"data\",\"type\":\"bytes\"}],\"stateMutability\":\"nonpayable\",\"type\":\"function\",\"name\":\"safeTransferFrom\"},{\"inputs\":[{\"internalType\":\"address\",\"name\":\"operator\",\"type\":\"address\"},{\"internalType\":\"bool\",\"name\":\"approved\",\"type\":\"bool\"}],\"stateMutability\":\"nonpayable\",\"type\":\"function\",\"name\":\"setApprovalForAll\"},{\"inputs\":[{\"internalType\":\"contract IJBTokenUriResolver\",\"name\":\"newResolver\",\"type\":\"address\"}],\"stateMutability\":\"nonpayable\",\"type\":\"function\",\"name\":\"setTokenUriResolver\"},{\"inputs\":[{\"internalType\":\"bytes4\",\"name\":\"interfaceId\",\"type\":\"bytes4\"}],\"stateMutability\":\"view\",\"type\":\"function\",\"name\":\"supportsInterface\",\"outputs\":[{\"internalType\":\"bool\",\"name\":\"\",\"type\":\"bool\"}]},{\"inputs\":[],\"stateMutability\":\"view\",\"type\":\"function\",\"name\":\"symbol\",\"outputs\":[{\"internalType\":\"string\",\"name\":\"\",\"type\":\"string\"}]},{\"inputs\":[{\"internalType\":\"uint256\",\"name\":\"projectId\",\"type\":\"uint256\"}],\"stateMutability\":\"view\",\"type\":\"function\",\"name\":\"tokenURI\",\"outputs\":[{\"internalType\":\"string\",\"name\":\"\",\"type\":\"string\"}]},{\"inputs\":[],\"stateMutability\":\"view\",\"type\":\"function\",\"name\":\"tokenUriResolver\",\"outputs\":[{\"internalType\":\"contract IJBTokenUriResolver\",\"name\":\"\",\"type\":\"address\"}]},{\"inputs\":[{\"internalType\":\"address\",\"name\":\"from\",\"type\":\"address\"},{\"internalType\":\"address\",\"name\":\"to\",\"type\":\"address\"},{\"internalType\":\"uint256\",\"name\":\"tokenId\",\"type\":\"uint256\"}],\"stateMutability\":\"nonpayable\",\"type\":\"function\",\"name\":\"transferFrom\"},{\"inputs\":[{\"internalType\":\"address\",\"name\":\"newOwner\",\"type\":\"address\"}],\"stateMutability\":\"nonpayable\",\"type\":\"function\",\"name\":\"transferOwnership\"}],\"devdoc\":{\"kind\":\"dev\",\"methods\":{\"CLOCK_MODE()\":{\"details\":\"Machine-readable description of the clock as specified in EIP-6372.\"},\"approve(address,uint256)\":{\"details\":\"See {IERC721-approve}.\"},\"balanceOf(address)\":{\"details\":\"See {IERC721-balanceOf}.\"},\"clock()\":{\"details\":\"Clock used for flagging checkpoints. Can be overridden to implement timestamp based checkpoints (and voting), in which case {CLOCK_MODE} should be overridden as well to match.\"},\"constructor\":{\"params\":{\"feeProjectOwner\":\"The address that will receive the fee-project. If `address(0)` the fee-project will not be minted.\",\"owner\":\"The owner of the contract who can set metadata.\"}},\"createFor(address)\":{\"details\":\"Anyone can create a project on an owner's behalf.\",\"params\":{\"owner\":\"The address that will be the owner of the project.\"},\"returns\":{\"projectId\":\"The token ID of the newly created project.\"}},\"delegate(address)\":{\"details\":\"Delegates votes from the sender to `delegatee`.\"},\"delegateBySig(address,uint256,uint256,uint8,bytes32,bytes32)\":{\"details\":\"Delegates votes from signer to `delegatee`.\"},\"delegates(address)\":{\"details\":\"Returns the delegate that `account` has chosen.\"},\"eip712Domain()\":{\"details\":\"See {IERC-5267}.\"},\"getApproved(uint256)\":{\"details\":\"See {IERC721-getApproved}.\"},\"getPastTotalSupply(uint256)\":{\"details\":\"Returns the total supply of votes available at a specific moment in the past. If the `clock()` is configured to use block numbers, this will return the value at the end of the corresponding block. NOTE: This value is the sum of all available votes, which is not necessarily the sum of all delegated votes. Votes that have not been delegated are still part of total supply, even though they would not participate in a vote. Requirements: - `timepoint` must be in the past. If operating using block numbers, the block must be already mined.\"},\"getPastVotes(address,uint256)\":{\"details\":\"Returns the amount of votes that `account` had at a specific moment in the past. If the `clock()` is configured to use block numbers, this will return the value at the end of the corresponding block. Requirements: - `timepoint` must be in the past. If operating using block numbers, the block must be already mined.\"},\"getVotes(address)\":{\"details\":\"Returns the current amount of votes that `account` has.\"},\"isApprovedForAll(address,address)\":{\"details\":\"See {IERC721-isApprovedForAll}.\"},\"name()\":{\"details\":\"See {IERC721Metadata-name}.\"},\"nonces(address)\":{\"details\":\"Returns the next unused nonce for an address.\"},\"owner()\":{\"details\":\"Returns the address of the current owner.\"},\"ownerOf(uint256)\":{\"details\":\"See {IERC721-ownerOf}.\"},\"renounceOwnership()\":{\"details\":\"Leaves the contract without owner. It will not be possible to call `onlyOwner` functions. Can only be called by the current owner. NOTE: Renouncing ownership will leave the contract without an owner, thereby disabling any functionality that is only available to the owner.\"},\"safeTransferFrom(address,address,uint256)\":{\"details\":\"See {IERC721-safeTransferFrom}.\"},\"safeTransferFrom(address,address,uint256,bytes)\":{\"details\":\"See {IERC721-safeTransferFrom}.\"},\"setApprovalForAll(address,bool)\":{\"details\":\"See {IERC721-setApprovalForAll}.\"},\"setTokenUriResolver(address)\":{\"params\":{\"newResolver\":\"The address of the new resolver.\"}},\"supportsInterface(bytes4)\":{\"details\":\"See {IERC165-supportsInterface}.\",\"params\":{\"interfaceId\":\"The ID of the interface to check for adherence to.\"},\"returns\":{\"_0\":\"A flag indicating if the provided interface ID is supported.\"}},\"symbol()\":{\"details\":\"See {IERC721Metadata-symbol}.\"},\"tokenURI(uint256)\":{\"params\":{\"projectId\":\"The ID of the project to get a URI of.\"},\"returns\":{\"_0\":\"The token URI to use for the provided `projectId`.\"}},\"transferFrom(address,address,uint256)\":{\"details\":\"See {IERC721-transferFrom}.\"},\"transferOwnership(address)\":{\"details\":\"Transfers ownership of the contract to a new account (`newOwner`). Can only be called by the current owner.\"}},\"version\":1},\"userdoc\":{\"kind\":\"user\",\"methods\":{\"count()\":{\"notice\":\"The number of projects that have been created using this contract.\"},\"createFor(address)\":{\"notice\":\"Create a new project for the specified owner, which mints an NFT (ERC-721) into their wallet.\"},\"setTokenUriResolver(address)\":{\"notice\":\"Sets the address of the resolver used to retrieve the tokenURI of projects.\"},\"supportsInterface(bytes4)\":{\"notice\":\"Indicates whether this contract adheres to the specified interface.\"},\"tokenURI(uint256)\":{\"notice\":\"Returns the URI where the ERC-721 standard JSON of a project is hosted.\"},\"tokenUriResolver()\":{\"notice\":\"The contract resolving each project ID to its ERC721 URI.\"}},\"version\":1}},\"settings\":{\"remappings\":[\"@bananapus/=node_modules/@bananapus/\",\"@chainlink/=node_modules/@chainlink/\",\"@eth-optimism/=node_modules/@eth-optimism/\",\"@openzeppelin/=node_modules/@openzeppelin/\",\"@prb/=node_modules/@prb/\",\"@scroll-tech/=node_modules/@scroll-tech/\",\"@sphinx-labs/contracts/=lib/sphinx/packages/contracts/contracts/foundry/\",\"@uniswap/=node_modules/@uniswap/\",\"ds-test/=lib/forge-std/lib/ds-test/src/\",\"forge-std/=lib/forge-std/src/\",\"hardhat/=node_modules/hardhat/\",\"solmate/=node_modules/solmate/\",\"sphinx/=lib/sphinx/\"],\"optimizer\":{\"enabled\":true,\"runs\":200},\"metadata\":{\"bytecodeHash\":\"ipfs\"},\"compilationTarget\":{\"src/JBProjects.sol\":\"JBProjects\"},\"evmVersion\":\"paris\",\"libraries\":{}},\"sources\":{\"node_modules/@openzeppelin/contracts/access/Ownable.sol\":{\"keccak256\":\"0xff6d0bb2e285473e5311d9d3caacb525ae3538a80758c10649a4d61029b017bb\",\"urls\":[\"bzz-raw://8ed324d3920bb545059d66ab97d43e43ee85fd3bd52e03e401f020afb0b120f6\",\"dweb:/ipfs/QmfEckWLmZkDDcoWrkEvMWhms66xwTLff9DDhegYpvHo1a\"],\"license\":\"MIT\"},\"node_modules/@openzeppelin/contracts/governance/utils/IVotes.sol\":{\"keccak256\":\"0x5e2b397ae88fd5c68e4f6762eb9f65f65c36702eb57796495f471d024ce70947\",\"urls\":[\"bzz-raw://348fc8e291d54314bb22437b532f443d5dbfb80c8cc9591567c1af6554ccf856\",\"dweb:/ipfs/QmP8ZTyitZinxcpwAHeYHhwj7u21zPpKXSiww38V74sXC2\"],\"license\":\"MIT\"},\"node_modules/@openzeppelin/contracts/governance/utils/Votes.sol\":{\"keccak256\":\"0xb8f69828d41b3594afd7a8c6393565901c205d8b5baf5bd2e42dbac637172979\",\"urls\":[\"bzz-raw://c790253821191ac46b2050d87df820d4209871f90c616381e2c2c00ff3eaac34\",\"dweb:/ipfs/QmcPETTyuZBzDRL39JNXj3SBMdx3Y9o4fPQLSZ27py5Jim\"],\"license\":\"MIT\"},\"node_modules/@openzeppelin/contracts/interfaces/IERC5267.sol\":{\"keccak256\":\"0x92aa1df62dc3d33f1656d63bede0923e0df0b706ad4137c8b10b0a8fe549fd92\",\"urls\":[\"bzz-raw://c5c0f29195ad64cbe556da8e257dac8f05f78c53f90323c0d2accf8e6922d33a\",\"dweb:/ipfs/QmQ61TED8uaCZwcbh8KkgRSsCav7x7HbcGHwHts3U4DmUP\"],\"license\":\"MIT\"},\"node_modules/@openzeppelin/contracts/interfaces/IERC5805.sol\":{\"keccak256\":\"0x4b9b89f91adbb7d3574f85394754cfb08c5b4eafca8a7061e2094a019ab8f818\",\"urls\":[\"bzz-raw://7373d5dbb8eb2381aa0883a456fac89283fcaf52f42fa805d4188f270716742a\",\"dweb:/ipfs/QmVnZDmT4ABvNhRJMaQnbCzsCA8HpyHPVaxi4fCi92LFv2\"],\"license\":\"MIT\"},\"node_modules/@openzeppelin/contracts/interfaces/IERC6372.sol\":{\"keccak256\":\"0xeb2857b7dafb7e0d8526dbfe794e6c047df2851c9e6ee91dc4a55f3c34af5d33\",\"urls\":[\"bzz-raw://49bf13f6c2a38a9bcc7b852d4e2b9cebb4068b832642cce61069cdb5f06bb2fb\",\"dweb:/ipfs/QmdKAJVE7rR2kENCZnEM1yKswrGii7WuE9gZpsQvnXJhwn\"],\"license\":\"MIT\"},\"node_modules/@openzeppelin/contracts/interfaces/draft-IERC6093.sol\":{\"keccak256\":\"0x60c65f701957fdd6faea1acb0bb45825791d473693ed9ecb34726fdfaa849dd7\",\"urls\":[\"bzz-raw://ea290300e0efc4d901244949dc4d877fd46e6c5e43dc2b26620e8efab3ab803f\",\"dweb:/ipfs/QmcLLJppxKeJWqHxE2CUkcfhuRTgHSn8J4kijcLa5MYhSt\"],\"license\":\"MIT\"},\"node_modules/@openzeppelin/contracts/token/ERC721/ERC721.sol\":{\"keccak256\":\"0x13dd061770956c8489b80cfc89d9cdfc8ea2783d953691ea037a380731d52784\",\"urls\":[\"bzz-raw://ed37f0f86e7fe31659e48c3a2a5920a92dd7f13c85cf8991fb79fe5f01e08efd\",\"dweb:/ipfs/QmUtm9bQGvjr9hHGwkPWrbgFmVqzaJcxjkaYDex2oGsonS\"],\"license\":\"MIT\"},\"node_modules/@openzeppelin/contracts/token/ERC721/IERC721.sol\":{\"keccak256\":\"0x5ef46daa3b58ef2702279d514780316efaa952915ee1aa3396f041ee2982b0b4\",\"urls\":[\"bzz-raw://2f8f2a76e23b02fc69e8cd24c3cb47da6c7af3a2d6c3a382f8ac25c6e094ade7\",\"dweb:/ipfs/QmPV4ZS4tPVv4mTCf9ejyZ1ai57EEibDRj7mN2ARDCLV5n\"],\"license\":\"MIT\"},\"node_modules/@openzeppelin/contracts/token/ERC721/IERC721Receiver.sol\":{\"keccak256\":\"0x7f7a26306c79a65fb8b3b6c757cd74660c532cd8a02e165488e30027dd34ca49\",\"urls\":[\"bzz-raw://d01e0b2b837ee2f628545e54d8715b49c7ef2befd08356c2e7f6c50dde8a1c22\",\"dweb:/ipfs/QmWBAn6y2D1xgftci97Z3qR9tQnkvwQpYwFwkTvDMvqU4i\"],\"license\":\"MIT\"},\"node_modules/@openzeppelin/contracts/token/ERC721/extensions/ERC721Votes.sol\":{\"keccak256\":\"0x51eec12bef5f18ea0bad353fbdc227c67b9082d1b459f7c87f47711ad152b0b3\",\"urls\":[\"bzz-raw://3f9142b8e720fa76191a966be6fd93a2a4357f5ac86bbb5cb050e53add32bfbe\",\"dweb:/ipfs/QmdFWtPT9PrMpQkExuDLCAELqA8yfYjQpfWKymdHdRTy2T\"],\"license\":\"MIT\"},\"node_modules/@openzeppelin/contracts/token/ERC721/extensions/IERC721Metadata.sol\":{\"keccak256\":\"0x37d1aaaa5a2908a09e9dcf56a26ddf762ecf295afb5964695937344fc6802ce1\",\"urls\":[\"bzz-raw://ed0bfc1b92153c5000e50f4021367b931bbe96372ac6facec3c4961b72053d02\",\"dweb:/ipfs/Qmbwp8VDerjS5SV1quwHH1oMXxPQ93fzfLVqJ2RCqbowGE\"],\"license\":\"MIT\"},\"node_modules/@openzeppelin/contracts/utils/Context.sol\":{\"keccak256\":\"0x493033a8d1b176a037b2cc6a04dad01a5c157722049bbecf632ca876224dd4b2\",\"urls\":[\"bzz-raw://6a708e8a5bdb1011c2c381c9a5cfd8a9a956d7d0a9dc1bd8bcdaf52f76ef2f12\",\"dweb:/ipfs/Qmax9WHBnVsZP46ZxEMNRQpLQnrdE4dK8LehML1Py8FowF\"],\"license\":\"MIT\"},\"node_modules/@openzeppelin/contracts/utils/Nonces.sol\":{\"keccak256\":\"0x0082767004fca261c332e9ad100868327a863a88ef724e844857128845ab350f\",\"urls\":[\"bzz-raw://132dce9686a54e025eb5ba5d2e48208f847a1ec3e60a3e527766d7bf53fb7f9e\",\"dweb:/ipfs/QmXn1a2nUZMpu2z6S88UoTfMVtY2YNh86iGrzJDYmMkKeZ\"],\"license\":\"MIT\"},\"node_modules/@openzeppelin/contracts/utils/ShortStrings.sol\":{\"keccak256\":\"0x18a7171df639a934592915a520ecb97c5bbc9675a1105607aac8a94e72bf62c6\",\"urls\":[\"bzz-raw://7478e1f13da69a2867ccd883001d836b75620362e743f196376d63ed0c422a1c\",\"dweb:/ipfs/QmWywcQ9TNfwtoqAxbn25d8C5VrV12PrPS9UjtGe6pL2BA\"],\"license\":\"MIT\"},\"node_modules/@openzeppelin/contracts/utils/StorageSlot.sol\":{\"keccak256\":\"0x32ba59b4b7299237c8ba56319110989d7978a039faf754793064e967e5894418\",\"urls\":[\"bzz-raw://1ae50c8b562427df610cc4540c9bf104acca7ef8e2dcae567ae7e52272281e9c\",\"dweb:/ipfs/QmTHiadFCSJUPpRjNegc5SahmeU8bAoY8i9Aq6tVscbcKR\"],\"license\":\"MIT\"},\"node_modules/@openzeppelin/contracts/utils/Strings.sol\":{\"keccak256\":\"0x55f102ea785d8399c0e58d1108e2d289506dde18abc6db1b7f68c1f9f9bc5792\",\"urls\":[\"bzz-raw://6e52e0a7765c943ef14e5bcf11e46e6139fa044be564881378349236bf2e3453\",\"dweb:/ipfs/QmZEeeXoFPW47amyP35gfzomF9DixqqTEPwzBakv6cZw6i\"],\"license\":\"MIT\"},\"node_modules/@openzeppelin/contracts/utils/cryptography/ECDSA.sol\":{\"keccak256\":\"0xeed0a08b0b091f528356cbc7245891a4c748682d4f6a18055e8e6ca77d12a6cf\",\"urls\":[\"bzz-raw://ba80ba06c8e6be852847e4c5f4492cef801feb6558ae09ed705ff2e04ea8b13c\",\"dweb:/ipfs/QmXRJDv3xHLVQCVXg1ZvR35QS9sij5y9NDWYzMfUfAdTHF\"],\"license\":\"MIT\"},\"node_modules/@openzeppelin/contracts/utils/cryptography/EIP712.sol\":{\"keccak256\":\"0x999f705a027ed6dc2d4e0df2cc4a509852c6bfd11de1c8161bf88832d0503fd0\",\"urls\":[\"bzz-raw://0798def67258d9a3cc20b2b4da7ebf351a5cefe0abfdd665d2d81f8e32f89b21\",\"dweb:/ipfs/QmPEvJosnPfzHNjKvCv2D3891mA2Ww8eUwkqrxBjuYdHCt\"],\"license\":\"MIT\"},\"node_modules/@openzeppelin/contracts/utils/cryptography/MessageHashUtils.sol\":{\"keccak256\":\"0xba333517a3add42cd35fe877656fc3dfcc9de53baa4f3aabbd6d12a92e4ea435\",\"urls\":[\"bzz-raw://2ceacff44c0fdc81e48e0e0b1db87a2076d3c1fb497341de077bf1da9f6b406c\",\"dweb:/ipfs/QmRUo1muMRAewxrKQ7TkXUtknyRoR57AyEkoPpiuZQ8FzX\"],\"license\":\"MIT\"},\"node_modules/@openzeppelin/contracts/utils/introspection/ERC165.sol\":{\"keccak256\":\"0x9e8778b14317ba9e256c30a76fd6c32b960af621987f56069e1e819c77c6a133\",\"urls\":[\"bzz-raw://1777404f1dcd0fac188e55a288724ec3c67b45288e49cc64723e95e702b49ab8\",\"dweb:/ipfs/QmZFdC626GButBApwDUvvTnUzdinevC3B24d7yyh57XkiA\"],\"license\":\"MIT\"},\"node_modules/@openzeppelin/contracts/utils/introspection/IERC165.sol\":{\"keccak256\":\"0x4296879f55019b23e135000eb36896057e7101fb7fb859c5ef690cf14643757b\",\"urls\":[\"bzz-raw://87b3541437c8c443ccd36795e56a338ed12855eec17f8da624511b8d1a7e14df\",\"dweb:/ipfs/QmeJQCtZrQjtJLr6u7ZHWeH3pBnjtLWzvRrKViAi7UZqxL\"],\"license\":\"MIT\"},\"node_modules/@openzeppelin/contracts/utils/math/Math.sol\":{\"keccak256\":\"0x005ec64c6313f0555d59e278f9a7a5ab2db5bdc72a027f255a37c327af1ec02d\",\"urls\":[\"bzz-raw://4ece9f0b9c8daca08c76b6b5405a6446b6f73b3a15fab7ff56e296cbd4a2c875\",\"dweb:/ipfs/QmQyRpyPRL5SQuAgj6SHmbir3foX65FJjbVTTQrA2EFg6L\"],\"license\":\"MIT\"},\"node_modules/@openzeppelin/contracts/utils/math/SafeCast.sol\":{\"keccak256\":\"0xe19a4d5f31d2861e7344e8e535e2feafb913d806d3e2b5fe7782741a2a7094fe\",\"urls\":[\"bzz-raw://4aed79c0fa6f0546ed02f2f683e8f77f0fd2ed7eb34d8bbf3d373c9a6d95b13c\",\"dweb:/ipfs/QmWqVz6UAVqmnWU5pqYPt1o6iDEZyPaBraAA3rKfTTSfYj\"],\"license\":\"MIT\"},\"node_modules/@openzeppelin/contracts/utils/math/SignedMath.sol\":{\"keccak256\":\"0x5f7e4076e175393767754387c962926577f1660dd9b810187b9002407656be72\",\"urls\":[\"bzz-raw://7d533a1c97cd43a57cd9c465f7ee8dd0e39ae93a8fb8ff8e5303a356b081cdcc\",\"dweb:/ipfs/QmVBEei6aTnvYNZp2CHYVNKyZS4q1KkjANfY39WVXZXVoT\"],\"license\":\"MIT\"},\"node_modules/@openzeppelin/contracts/utils/structs/Checkpoints.sol\":{\"keccak256\":\"0xbdc5e074d7dd6678f67e92b1a51a20226801a407b0e1af3da367c5d1ff4519ad\",\"urls\":[\"bzz-raw://a36cca6b22fff3db16fc789ff6c60eea71d4b156065d4d0c83a0bc5e91a77a8b\",\"dweb:/ipfs/QmYN3exd5AemxjBrN8XMB1p5LbbE16uC3sjbYjwi8AjcGR\"],\"license\":\"MIT\"},\"node_modules/@openzeppelin/contracts/utils/types/Time.sol\":{\"keccak256\":\"0xc7755af115020049e4140f224f9ee88d7e1799ffb0646f37bf0df24bf6213f58\",\"urls\":[\"bzz-raw://7f09bf94d5274334ec021f61a04659db303f31e60460e14b709c9bf187740111\",\"dweb:/ipfs/QmNvgomZYUwFAt4cZbPWAiTeSZQreGehY9BK5xyVJsUttb\"],\"license\":\"MIT\"},\"src/JBProjects.sol\":{\"keccak256\":\"0x4080dc08a3dfe2f7fba07a6f4dd3b58b0e08b37c91beda86875af3d7d117f2f2\",\"urls\":[\"bzz-raw://38b3ea6b199888ad4b4c31d4c52f640d67009f7a9c19c1a05321b4dd9d1a5823\",\"dweb:/ipfs/QmP1aro7BsCcZUBeqNCXpG6a3dB5eSmCf25qUC2KeCaFxy\"],\"license\":\"MIT\"},\"src/interfaces/IJBProjects.sol\":{\"keccak256\":\"0x735c2fb8f1fa827f054ee77f7a0ae4b312656217acb75b624d2c8fd9dc40151b\",\"urls\":[\"bzz-raw://ee7fc92299a8633a80693ae63ab494dcd125f1789487a54a39dc0e5696e5996f\",\"dweb:/ipfs/QmX7YJD4pS2XhgQb7p3JbBAXynT7YGPXcZe92BiWWRrsCL\"],\"license\":\"MIT\"},\"src/interfaces/IJBTokenUriResolver.sol\":{\"keccak256\":\"0xfa5cb00dcd6085d1ef912d071fe73c63f9478a2cd0f9d8bddaf659b6af2d0967\",\"urls\":[\"bzz-raw://282e4e7c342d65f77cde0e9a08fcaf20ef5cf379c7a48b639842c0ffd0b2afb8\",\"dweb:/ipfs/QmbnN3PEQeZaXdPLT75V1J79kMg7KqSMru37RHrL3z8Yf2\"],\"license\":\"MIT\"}},\"version\":1}",
			"args": [
				"0x1081B5AA9D9d4862A3dA4d469433FB36Ed80FA2A",
				"0x1081B5AA9D9d4862A3dA4d469433FB36Ed80FA2A"
			],
			"bytecode": "0x6101606040526000600d553480156200001757600080fd5b5060405162003553380380620035538339810160408190526200003a9162000da7565b81604051806040016040528060118152602001704a75696365626f782050726f6a6563747360781b815250604051806040016040528060018152602001603160f81b815250604051806040016040528060118152602001704a75696365626f782050726f6a6563747360781b81525060405180604001604052806008815260200167094aa92868a849eb60c31b8152508160009081620000db919062000e85565b506001620000ea828262000e85565b50620000fc9150839050600662000205565b610120526200010d81600762000205565b61014052815160208084019190912060e052815190820120610100524660a0526200019b60e05161010051604080517f8b73c3c69bb8fe3d512ecc4cf759cc79239f7b179b0ffacaa9a75d522b39400f60208201529081019290925260608201524660808201523060a082015260009060c00160405160208183030381529060405280519060200120905090565b60805250503060c0526001600160a01b038116620001d457604051631e4fbdf760e01b8152600060048201526024015b60405180910390fd5b620001df816200023e565b506001600160a01b03811615620001fd57620001fb8162000290565b505b5050620010d3565b600060208351101562000225576200021d8362000303565b905062000238565b8162000232848262000e85565b5060ff90505b92915050565b600c80546001600160a01b038381166001600160a01b0319831681179093556040519116919082907f8be0079c531659141344cd1fd0a4f28419497f9722a3daafe3b4186f6b6457e090600090a35050565b6000600d60008154620002a39062000f67565b91829055509050620002b6828262000346565b6001600160a01b038216817f365b3162cd780731fc55a794b59494d472bc2af701007f581843a70673814698336040516001600160a01b03909116815260200160405180910390a3919050565b600080829050601f8151111562000331578260405163305a27a960e01b8152600401620001cb919062000fcb565b80516200033e8262000fe0565b179392505050565b620003688282604051806020016040528060008152506200036c60201b60201c565b5050565b6200037883836200038c565b620003876000848484620003f6565b505050565b6001600160a01b038216620003b857604051633250574960e11b815260006004820152602401620001cb565b6000620003c78383836200052d565b90506001600160a01b0381161562000387576040516339e3563760e11b815260006004820152602401620001cb565b6001600160a01b0383163b156200052757604051630a85bd0160e11b81526001600160a01b0384169063150b7a02906200043b90339088908790879060040162001005565b6020604051808303816000875af192505050801562000479575060408051601f3d908101601f19168201909252620004769181019062001044565b60015b620004e7573d808015620004aa576040519150601f19603f3d011682016040523d82523d6000602084013e620004af565b606091505b508051600003620004df57604051633250574960e11b81526001600160a01b0385166004820152602401620001cb565b805181602001fd5b6001600160e01b03198116630a85bd0160e11b146200052557604051633250574960e11b81526001600160a01b0385166004820152602401620001cb565b505b50505050565b6000806200053d85858562000555565b90506200054d8186600162000654565b949350505050565b6000828152600260205260408120546001600160a01b0390811690831615620005855762000585818486620006ec565b6001600160a01b03811615620005c557620005a4600085818062000756565b6001600160a01b038116600090815260036020526040902080546000190190555b6001600160a01b03851615620005f5576001600160a01b0385166000908152600360205260409020805460010190555b60008481526002602052604080822080546001600160a01b0319166001600160a01b0389811691821790925591518793918516917fddf252ad1be2c89b69c2b068fc378daa952ba7f163c4a11628f55a4df523b3ef91a4949350505050565b6001600160a01b038316620006895762000686600b62000b316200088460201b17620006808462000899565b620008d3565b50505b6001600160a01b038216620006b857620006b5600b62000b3d6200091060201b17620006808462000899565b50505b6001600160a01b0383811660009081526009602052604080822054858416835291205462000387929182169116836200091e565b620006f983838362000a85565b62000387576001600160a01b0383166200072a57604051637e27328960e01b815260048101829052602401620001cb565b60405163177e802f60e01b81526001600160a01b038316600482015260248101829052604401620001cb565b80806200076b57506001600160a01b03821615155b15620008545760006200077e8462000b0b565b90506001600160a01b03831615801590620007ab5750826001600160a01b0316816001600160a01b031614155b8015620007de57506001600160a01b0380821660009081526005602090815260408083209387168352929052205460ff16155b15620008095760405163a9fbf51f60e01b81526001600160a01b0384166004820152602401620001cb565b8115620008525783856001600160a01b0316826001600160a01b03167f8c5be1e5ebec7d5bd14f71427d1e84f3dd0314c0f7b2291e5b200ac8c7c3b92560405160405180910390a45b505b5050600090815260046020526040902080546001600160a01b0319166001600160a01b0392909216919091179055565b600062000892828462001070565b9392505050565b60006001600160d01b03821115620008cf576040516306dfcc6560e41b815260d0600482015260248101839052604401620001cb565b5090565b60008062000903620008e462000b46565b620008fa620008f38862000b57565b868860201c565b87919062000ba6565b915091505b935093915050565b60006200089282846200109a565b816001600160a01b0316836001600160a01b031614158015620009415750600081115b1562000387576001600160a01b03831615620009e4576001600160a01b0383166000908152600a60209081526040822082916200098f919062000910901b62000b3d17620006808662000899565b6001600160d01b031691506001600160d01b03169150846001600160a01b0316600080516020620035338339815191528383604051620009d9929190918252602082015260400190565b60405180910390a250505b6001600160a01b0382161562000387576001600160a01b0382166000908152600a602090815260408220829162000a2c919062000884901b62000b3117620006808662000899565b6001600160d01b031691506001600160d01b03169150836001600160a01b031660008051602062003533833981519152838360405162000a76929190918252602082015260400190565b60405180910390a25050505050565b60006001600160a01b038316158015906200054d5750826001600160a01b0316846001600160a01b0316148062000ae157506001600160a01b0380851660009081526005602090815260408083209387168352929052205460ff165b806200054d5750506000908152600460205260409020546001600160a01b03908116911614919050565b6000818152600260205260408120546001600160a01b0316806200023857604051637e27328960e01b815260048101849052602401620001cb565b600062000b5262000bb6565b905090565b8054600090801562000b9d5762000b838362000b75600184620010bd565b600091825260209091200190565b54660100000000000090046001600160d01b031662000892565b60009392505050565b6000806200090385858562000bc3565b600062000b524362000d55565b82546000908190801562000cf657600062000be58762000b75600185620010bd565b60408051808201909152905465ffffffffffff80821680845266010000000000009092046001600160d01b03166020840152919250908716101562000c3d57604051632520601d60e01b815260040160405180910390fd5b805165ffffffffffff80881691160362000c91578462000c648862000b75600186620010bd565b80546001600160d01b039290921666010000000000000265ffffffffffff90921691909117905562000ce5565b6040805180820190915265ffffffffffff80881682526001600160d01b0380881660208085019182528b54600181018d5560008d815291909120945191519092166601000000000000029216919091179101555b602001519250839150620009089050565b50506040805180820190915265ffffffffffff80851682526001600160d01b0380851660208085019182528854600181018a5560008a815291822095519251909316660100000000000002919093161792019190915590508162000908565b600065ffffffffffff821115620008cf576040516306dfcc6560e41b81526030600482015260248101839052604401620001cb565b80516001600160a01b038116811462000da257600080fd5b919050565b6000806040838503121562000dbb57600080fd5b62000dc68362000d8a565b915062000dd66020840162000d8a565b90509250929050565b634e487b7160e01b600052604160045260246000fd5b600181811c9082168062000e0a57607f821691505b60208210810362000e2b57634e487b7160e01b600052602260045260246000fd5b50919050565b601f82111562000387576000816000526020600020601f850160051c8101602086101562000e5c5750805b601f850160051c820191505b8181101562000e7d5782815560010162000e68565b505050505050565b81516001600160401b0381111562000ea15762000ea162000ddf565b62000eb98162000eb2845462000df5565b8462000e31565b602080601f83116001811462000ef1576000841562000ed85750858301515b600019600386901b1c1916600185901b17855562000e7d565b600085815260208120601f198616915b8281101562000f225788860151825594840194600190910190840162000f01565b508582101562000f415787850151600019600388901b60f8161c191681555b5050505050600190811b01905550565b634e487b7160e01b600052601160045260246000fd5b60006001820162000f7c5762000f7c62000f51565b5060010190565b6000815180845260005b8181101562000fab5760208185018101518683018201520162000f8d565b506000602082860101526020601f19601f83011685010191505092915050565b60208152600062000892602083018462000f83565b8051602080830151919081101562000e2b5760001960209190910360031b1b16919050565b6001600160a01b03858116825284166020820152604081018390526080606082018190526000906200103a9083018462000f83565b9695505050505050565b6000602082840312156200105757600080fd5b81516001600160e01b0319811681146200089257600080fd5b6001600160d01b0381811683821601908082111562001093576200109362000f51565b5092915050565b6001600160d01b0382811682821603908082111562001093576200109362000f51565b8181038181111562000238576200023862000f51565b60805160a05160c05160e0516101005161012051610140516124056200112e6000396000610e2001526000610df3015260006117e1015260006117b9015260006117140152600061173e0152600061176801526124056000f3fe608060405234801561001057600080fd5b50600436106101da5760003560e01c80637ecebe0011610104578063a22cb465116100a2578063c87b56dd11610071578063c87b56dd14610422578063e131fc0c14610435578063e985e9c514610448578063f2fde38b1461045b57600080fd5b8063a22cb465146103d6578063b88d4fde146103e9578063c0715888146103fc578063c3cda5201461040f57600080fd5b80638e539e8c116100de5780638e539e8c1461038957806391ddadf41461039c57806395d89b41146103bb5780639ab24eb0146103c357600080fd5b80637ecebe001461033457806384b0196e1461035d5780638da5cb5b1461037857600080fd5b80633a46b1a81161017c5780635c19a95c1161014b5780635c19a95c146102f35780636352211e1461030657806370a0823114610319578063715018a61461032c57600080fd5b80633a46b1a81461029957806342842e0e146102ac5780634bf5d7e9146102bf578063587cde1e146102c757600080fd5b8063081812fc116101b8578063081812fc14610233578063095ea7b31461025e57806323b872dd146102735780632407497e1461028657600080fd5b806301ffc9a7146101df57806306661abd1461020757806306fdde031461021e575b600080fd5b6101f26101ed366004611e1d565b61046e565b60405190151581526020015b60405180910390f35b610210600d5481565b6040519081526020016101fe565b610226610499565b6040516101fe9190611e8a565b610246610241366004611e9d565b61052b565b6040516001600160a01b0390911681526020016101fe565b61027161026c366004611ecb565b610554565b005b610271610281366004611ef7565b610563565b610271610294366004611f38565b6105f3565b6102106102a7366004611ecb565b610650565b6102716102ba366004611ef7565b6106d1565b6102266106f1565b6102466102d5366004611f38565b6001600160a01b039081166000908152600960205260409020541690565b610271610301366004611f38565b610769565b610246610314366004611e9d565b610774565b610210610327366004611f38565b61077f565b6102716107c7565b610210610342366004611f38565b6001600160a01b031660009081526008602052604090205490565b6103656107db565b6040516101fe9796959493929190611f55565b600c546001600160a01b0316610246565b610210610397366004611e9d565b610821565b6103a461088b565b60405165ffffffffffff90911681526020016101fe565b61022661089a565b6102106103d1366004611f38565b6108a9565b6102716103e4366004611fee565b6108d9565b6102716103f736600461209b565b6108e4565b61021061040a366004611f38565b6108fb565b61027161041d36600461214a565b61096a565b610226610430366004611e9d565b610a27565b600e54610246906001600160a01b031681565b6101f26104563660046121ac565b610ac5565b610271610469366004611f38565b610af3565b60006001600160e01b03198216630321f74760e01b1480610493575061049382610b49565b92915050565b6060600080546104a8906121da565b80601f01602080910402602001604051908101604052809291908181526020018280546104d4906121da565b80156105215780601f106104f657610100808354040283529160200191610521565b820191906000526020600020905b81548152906001019060200180831161050457829003601f168201915b5050505050905090565b600061053682610b99565b506000828152600460205260409020546001600160a01b0316610493565b61055f828233610bd2565b5050565b6001600160a01b03821661059257604051633250574960e11b8152600060048201526024015b60405180910390fd5b600061059f838333610bdf565b9050836001600160a01b0316816001600160a01b0316146105ed576040516364283d7b60e01b81526001600160a01b0380861660048301526024820184905282166044820152606401610589565b50505050565b6105fb610c03565b600e80546001600160a01b0383166001600160a01b031990911681179091556040805133815290517fe7784d93cfbfa4408e19577e6cc0436f4dbb51214b70e100905dfce9def88c169181900360200190a250565b60008061065b61088b565b90508065ffffffffffff16831061069657604051637669fc0f60e11b81526004810184905265ffffffffffff82166024820152604401610589565b6106c06106a284610c30565b6001600160a01b0386166000908152600a6020526040902090610c67565b6001600160d01b0316949350505050565b6106ec838383604051806020016040528060008152506108e4565b505050565b60606106fb610d1d565b65ffffffffffff1661070b61088b565b65ffffffffffff1614610731576040516301bfc1c560e61b815260040160405180910390fd5b5060408051808201909152601d81527f6d6f64653d626c6f636b6e756d6265722666726f6d3d64656661756c74000000602082015290565b3361055f8183610d28565b600061049382610b99565b60006001600160a01b0382166107ab576040516322718ad960e21b815260006004820152602401610589565b506001600160a01b031660009081526003602052604090205490565b6107cf610c03565b6107d96000610d9a565b565b6000606080600080600060606107ef610dec565b6107f7610e19565b60408051600080825260208201909252600f60f81b9b939a50919850469750309650945092509050565b60008061082c61088b565b90508065ffffffffffff16831061086757604051637669fc0f60e11b81526004810184905265ffffffffffff82166024820152604401610589565b61087b61087384610c30565b600b90610c67565b6001600160d01b03169392505050565b6000610895610d1d565b905090565b6060600180546104a8906121da565b6001600160a01b0381166000908152600a602052604081206108ca90610e46565b6001600160d01b031692915050565b61055f338383610e7f565b6108ef848484610563565b6105ed84848484610f1e565b6000600d6000815461090c9061222a565b9182905550905061091d8282611047565b6001600160a01b038216817f365b3162cd780731fc55a794b59494d472bc2af701007f581843a70673814698336040516001600160a01b03909116815260200160405180910390a3919050565b8342111561098e57604051632341d78760e11b815260048101859052602401610589565b604080517fe48329057bfd03d55e49b547132e39cffd9c1820ad7b9d4c5307691425d15adf60208201526001600160a01b038816918101919091526060810186905260808101859052600090610a0890610a009060a00160405160208183030381529060405280519060200120611061565b85858561108e565b9050610a1481876110bc565b610a1e8188610d28565b50505050505050565b600e546060906001600160a01b031680610a51575050604080516020810190915260008152919050565b604051636d02a25560e11b8152600481018490526001600160a01b0382169063da0544aa90602401600060405180830381865afa158015610a96573d6000803e3d6000fd5b505050506040513d6000823e601f3d908101601f19168201604052610abe9190810190612243565b9392505050565b6001600160a01b03918216600090815260056020908152604080832093909416825291909152205460ff1690565b610afb610c03565b6001600160a01b038116610b2557604051631e4fbdf760e01b815260006004820152602401610589565b610b2e81610d9a565b50565b6000610abe82846122ba565b6000610abe82846122e1565b60006001600160e01b031982166380ac58cd60e01b1480610b7a57506001600160e01b03198216635b5e139f60e01b145b8061049357506301ffc9a760e01b6001600160e01b0319831614610493565b6000818152600260205260408120546001600160a01b03168061049357604051637e27328960e01b815260048101849052602401610589565b6106ec838383600161110f565b600080610bed858585611215565b9050610bfb8186600161130e565b949350505050565b600c546001600160a01b031633146107d95760405163118cdaa760e01b8152336004820152602401610589565b600065ffffffffffff821115610c63576040516306dfcc6560e41b81526030600482015260248101839052604401610589565b5090565b815460009081816005811115610cc6576000610c8284611389565b610c8c9085612301565b60008881526020902090915081015465ffffffffffff9081169087161015610cb657809150610cc4565b610cc1816001612314565b92505b505b6000610cd487878585611471565b90508015610d0f57610cf987610ceb600184612301565b600091825260209091200190565b54600160301b90046001600160d01b0316610d12565b60005b979650505050505050565b600061089543610c30565b6001600160a01b0382811660008181526009602052604080822080548686166001600160a01b0319821681179092559151919094169392849290917f3134e8a2e6d97e929a7e54011ea5485d7d196dd5f0ba4d4ef95803e8e3fc257f9190a46106ec8183610d95866114d3565b6114de565b600c80546001600160a01b038381166001600160a01b0319831681179093556040519116919082907f8be0079c531659141344cd1fd0a4f28419497f9722a3daafe3b4186f6b6457e090600090a35050565b60606108957f00000000000000000000000000000000000000000000000000000000000000006006611645565b60606108957f00000000000000000000000000000000000000000000000000000000000000006007611645565b80546000908015610e7657610e6083610ceb600184612301565b54600160301b90046001600160d01b0316610abe565b60009392505050565b6001600160a01b038216610eb157604051630b61174360e31b81526001600160a01b0383166004820152602401610589565b6001600160a01b03838116600081815260056020908152604080832094871680845294825291829020805460ff191686151590811790915591519182527f17307eab39ab6107e8899845ad3d59bd9653f200f220920489ca2b5937696c31910160405180910390a3505050565b6001600160a01b0383163b156105ed57604051630a85bd0160e11b81526001600160a01b0384169063150b7a0290610f60903390889087908790600401612327565b6020604051808303816000875af1925050508015610f9b575060408051601f3d908101601f19168201909252610f9891810190612364565b60015b611004573d808015610fc9576040519150601f19603f3d011682016040523d82523d6000602084013e610fce565b606091505b508051600003610ffc57604051633250574960e11b81526001600160a01b0385166004820152602401610589565b805181602001fd5b6001600160e01b03198116630a85bd0160e11b1461104057604051633250574960e11b81526001600160a01b0385166004820152602401610589565b5050505050565b61055f8282604051806020016040528060008152506116f0565b600061049361106e611707565b8360405161190160f01b8152600281019290925260228201526042902090565b6000806000806110a088888888611832565b9250925092506110b08282611901565b50909695505050505050565b6001600160a01b03821660009081526008602052604090208054600181019091558181146106ec576040516301d4b62360e61b81526001600160a01b038416600482015260248101829052604401610589565b808061112357506001600160a01b03821615155b156111e557600061113384610b99565b90506001600160a01b0383161580159061115f5750826001600160a01b0316816001600160a01b031614155b801561117257506111708184610ac5565b155b1561119b5760405163a9fbf51f60e01b81526001600160a01b0384166004820152602401610589565b81156111e35783856001600160a01b0316826001600160a01b03167f8c5be1e5ebec7d5bd14f71427d1e84f3dd0314c0f7b2291e5b200ac8c7c3b92560405160405180910390a45b505b5050600090815260046020526040902080546001600160a01b0319166001600160a01b0392909216919091179055565b6000828152600260205260408120546001600160a01b0390811690831615611242576112428184866119ba565b6001600160a01b038116156112805761125f60008560008061110f565b6001600160a01b038116600090815260036020526040902080546000190190555b6001600160a01b038516156112af576001600160a01b0385166000908152600360205260409020805460010190555b60008481526002602052604080822080546001600160a01b0319166001600160a01b0389811691821790925591518793918516917fddf252ad1be2c89b69c2b068fc378daa952ba7f163c4a11628f55a4df523b3ef91a4949350505050565b6001600160a01b03831661133557611332600b610b3161132d84611a1e565b611a52565b50505b6001600160a01b03821661135757611354600b610b3d61132d84611a1e565b50505b6001600160a01b038381166000908152600960205260408082205485841683529120546106ec929182169116836114de565b60008160000361139b57506000919050565b600060016113a884611a8b565b901c6001901b905060018184816113c1576113c1612381565b048201901c905060018184816113d9576113d9612381565b048201901c905060018184816113f1576113f1612381565b048201901c9050600181848161140957611409612381565b048201901c9050600181848161142157611421612381565b048201901c9050600181848161143957611439612381565b048201901c9050600181848161145157611451612381565b048201901c9050610abe8182858161146b5761146b612381565b04611b1f565b60005b818310156114cb5760006114888484611b35565b60008781526020902090915065ffffffffffff86169082015465ffffffffffff1611156114b7578092506114c5565b6114c2816001612314565b93505b50611474565b509392505050565b60006104938261077f565b816001600160a01b0316836001600160a01b0316141580156115005750600081115b156106ec576001600160a01b038316156115a3576001600160a01b0383166000908152600a60205260408120819061153e90610b3d61132d86611a1e565b6001600160d01b031691506001600160d01b03169150846001600160a01b03167fdec2bacdd2f05b59de34da9b523dff8be42e5e38e818c82fdb0bae774387a7248383604051611598929190918252602082015260400190565b60405180910390a250505b6001600160a01b038216156106ec576001600160a01b0382166000908152600a6020526040812081906115dc90610b3161132d86611a1e565b6001600160d01b031691506001600160d01b03169150836001600160a01b03167fdec2bacdd2f05b59de34da9b523dff8be42e5e38e818c82fdb0bae774387a7248383604051611636929190918252602082015260400190565b60405180910390a25050505050565b606060ff831461165f5761165883611b50565b9050610493565b81805461166b906121da565b80601f0160208091040260200160405190810160405280929190818152602001828054611697906121da565b80156116e45780601f106116b9576101008083540402835291602001916116e4565b820191906000526020600020905b8154815290600101906020018083116116c757829003601f168201915b50505050509050610493565b6116fa8383611b8f565b6106ec6000848484610f1e565b6000306001600160a01b037f00000000000000000000000000000000000000000000000000000000000000001614801561176057507f000000000000000000000000000000000000000000000000000000000000000046145b1561178a57507f000000000000000000000000000000000000000000000000000000000000000090565b610895604080517f8b73c3c69bb8fe3d512ecc4cf759cc79239f7b179b0ffacaa9a75d522b39400f60208201527f0000000000000000000000000000000000000000000000000000000000000000918101919091527f000000000000000000000000000000000000000000000000000000000000000060608201524660808201523060a082015260009060c00160405160208183030381529060405280519060200120905090565b600080807f7fffffffffffffffffffffffffffffff5d576e7357a4501ddfe92f46681b20a084111561186d57506000915060039050826118f7565b604080516000808252602082018084528a905260ff891692820192909252606081018790526080810186905260019060a0016020604051602081039080840390855afa1580156118c1573d6000803e3d6000fd5b5050604051601f1901519150506001600160a01b0381166118ed575060009250600191508290506118f7565b9250600091508190505b9450945094915050565b600082600381111561191557611915612397565b0361191e575050565b600182600381111561193257611932612397565b036119505760405163f645eedf60e01b815260040160405180910390fd5b600282600381111561196457611964612397565b036119855760405163fce698f760e01b815260048101829052602401610589565b600382600381111561199957611999612397565b0361055f576040516335e2f38360e21b815260048101829052602401610589565b6119c5838383611bf4565b6106ec576001600160a01b0383166119f357604051637e27328960e01b815260048101829052602401610589565b60405163177e802f60e01b81526001600160a01b038316600482015260248101829052604401610589565b60006001600160d01b03821115610c63576040516306dfcc6560e41b815260d0600482015260248101839052604401610589565b600080611a7e611a6061088b565b611a76611a6c88610e46565b868863ffffffff16565b879190611c57565b915091505b935093915050565b600080608083901c15611aa057608092831c92015b604083901c15611ab257604092831c92015b602083901c15611ac457602092831c92015b601083901c15611ad657601092831c92015b600883901c15611ae857600892831c92015b600483901c15611afa57600492831c92015b600283901c15611b0c57600292831c92015b600183901c156104935760010192915050565b6000818310611b2e5781610abe565b5090919050565b6000611b4460028484186123ad565b610abe90848416612314565b60606000611b5d83611c65565b604080516020808252818301909252919250600091906020820181803683375050509182525060208101929092525090565b6001600160a01b038216611bb957604051633250574960e11b815260006004820152602401610589565b6000611bc783836000610bdf565b90506001600160a01b038116156106ec576040516339e3563760e11b815260006004820152602401610589565b60006001600160a01b03831615801590610bfb5750826001600160a01b0316846001600160a01b03161480611c2e5750611c2e8484610ac5565b80610bfb5750506000908152600460205260409020546001600160a01b03908116911614919050565b600080611a7e858585611c8d565b600060ff8216601f81111561049357604051632cd44ac360e21b815260040160405180910390fd5b825460009081908015611dac576000611cab87610ceb600185612301565b60408051808201909152905465ffffffffffff808216808452600160301b9092046001600160d01b031660208401529192509087161015611cff57604051632520601d60e01b815260040160405180910390fd5b805165ffffffffffff808816911603611d4b5784611d2288610ceb600186612301565b80546001600160d01b0392909216600160301b0265ffffffffffff909216919091179055611d9c565b6040805180820190915265ffffffffffff80881682526001600160d01b0380881660208085019182528b54600181018d5560008d81529190912094519151909216600160301b029216919091179101555b602001519250839150611a839050565b50506040805180820190915265ffffffffffff80851682526001600160d01b0380851660208085019182528854600181018a5560008a815291822095519251909316600160301b029190931617920191909155905081611a83565b6001600160e01b031981168114610b2e57600080fd5b600060208284031215611e2f57600080fd5b8135610abe81611e07565b60005b83811015611e55578181015183820152602001611e3d565b50506000910152565b60008151808452611e76816020860160208601611e3a565b601f01601f19169290920160200192915050565b602081526000610abe6020830184611e5e565b600060208284031215611eaf57600080fd5b5035919050565b6001600160a01b0381168114610b2e57600080fd5b60008060408385031215611ede57600080fd5b8235611ee981611eb6565b946020939093013593505050565b600080600060608486031215611f0c57600080fd5b8335611f1781611eb6565b92506020840135611f2781611eb6565b929592945050506040919091013590565b600060208284031215611f4a57600080fd5b8135610abe81611eb6565b60ff60f81b881681526000602060e06020840152611f7660e084018a611e5e565b8381036040850152611f88818a611e5e565b606085018990526001600160a01b038816608086015260a0850187905284810360c08601528551808252602080880193509091019060005b81811015611fdc57835183529284019291840191600101611fc0565b50909c9b505050505050505050505050565b6000806040838503121561200157600080fd5b823561200c81611eb6565b91506020830135801515811461202157600080fd5b809150509250929050565b634e487b7160e01b600052604160045260246000fd5b604051601f8201601f1916810167ffffffffffffffff8111828210171561206b5761206b61202c565b604052919050565b600067ffffffffffffffff82111561208d5761208d61202c565b50601f01601f191660200190565b600080600080608085870312156120b157600080fd5b84356120bc81611eb6565b935060208501356120cc81611eb6565b925060408501359150606085013567ffffffffffffffff8111156120ef57600080fd5b8501601f8101871361210057600080fd5b803561211361210e82612073565b612042565b81815288602083850101111561212857600080fd5b8160208401602083013760006020838301015280935050505092959194509250565b60008060008060008060c0878903121561216357600080fd5b863561216e81611eb6565b95506020870135945060408701359350606087013560ff8116811461219257600080fd5b9598949750929560808101359460a0909101359350915050565b600080604083850312156121bf57600080fd5b82356121ca81611eb6565b9150602083013561202181611eb6565b600181811c908216806121ee57607f821691505b60208210810361220e57634e487b7160e01b600052602260045260246000fd5b50919050565b634e487b7160e01b600052601160045260246000fd5b60006001820161223c5761223c612214565b5060010190565b60006020828403121561225557600080fd5b815167ffffffffffffffff81111561226c57600080fd5b8201601f8101841361227d57600080fd5b805161228b61210e82612073565b8181528560208385010111156122a057600080fd5b6122b1826020830160208601611e3a565b95945050505050565b6001600160d01b038181168382160190808211156122da576122da612214565b5092915050565b6001600160d01b038281168282160390808211156122da576122da612214565b8181038181111561049357610493612214565b8082018082111561049357610493612214565b6001600160a01b038581168252841660208201526040810183905260806060820181905260009061235a90830184611e5e565b9695505050505050565b60006020828403121561237657600080fd5b8151610abe81611e07565b634e487b7160e01b600052601260045260246000fd5b634e487b7160e01b600052602160045260246000fd5b6000826123ca57634e487b7160e01b600052601260045260246000fd5b50049056fea26469706673582212206f1cfa324927d31b2efbcf8e911a8b1bdce2da7092d596e0a77f30bcfe6d256364736f6c63430008170033dec2bacdd2f05b59de34da9b523dff8be42e5e38e818c82fdb0bae774387a724",
			"deployedBytecode": "0x608060405234801561001057600080fd5b50600436106101da5760003560e01c80637ecebe0011610104578063a22cb465116100a2578063c87b56dd11610071578063c87b56dd14610422578063e131fc0c14610435578063e985e9c514610448578063f2fde38b1461045b57600080fd5b8063a22cb465146103d6578063b88d4fde146103e9578063c0715888146103fc578063c3cda5201461040f57600080fd5b80638e539e8c116100de5780638e539e8c1461038957806391ddadf41461039c57806395d89b41146103bb5780639ab24eb0146103c357600080fd5b80637ecebe001461033457806384b0196e1461035d5780638da5cb5b1461037857600080fd5b80633a46b1a81161017c5780635c19a95c1161014b5780635c19a95c146102f35780636352211e1461030657806370a0823114610319578063715018a61461032c57600080fd5b80633a46b1a81461029957806342842e0e146102ac5780634bf5d7e9146102bf578063587cde1e146102c757600080fd5b8063081812fc116101b8578063081812fc14610233578063095ea7b31461025e57806323b872dd146102735780632407497e1461028657600080fd5b806301ffc9a7146101df57806306661abd1461020757806306fdde031461021e575b600080fd5b6101f26101ed366004611e1d565b61046e565b60405190151581526020015b60405180910390f35b610210600d5481565b6040519081526020016101fe565b610226610499565b6040516101fe9190611e8a565b610246610241366004611e9d565b61052b565b6040516001600160a01b0390911681526020016101fe565b61027161026c366004611ecb565b610554565b005b610271610281366004611ef7565b610563565b610271610294366004611f38565b6105f3565b6102106102a7366004611ecb565b610650565b6102716102ba366004611ef7565b6106d1565b6102266106f1565b6102466102d5366004611f38565b6001600160a01b039081166000908152600960205260409020541690565b610271610301366004611f38565b610769565b610246610314366004611e9d565b610774565b610210610327366004611f38565b61077f565b6102716107c7565b610210610342366004611f38565b6001600160a01b031660009081526008602052604090205490565b6103656107db565b6040516101fe9796959493929190611f55565b600c546001600160a01b0316610246565b610210610397366004611e9d565b610821565b6103a461088b565b60405165ffffffffffff90911681526020016101fe565b61022661089a565b6102106103d1366004611f38565b6108a9565b6102716103e4366004611fee565b6108d9565b6102716103f736600461209b565b6108e4565b61021061040a366004611f38565b6108fb565b61027161041d36600461214a565b61096a565b610226610430366004611e9d565b610a27565b600e54610246906001600160a01b031681565b6101f26104563660046121ac565b610ac5565b610271610469366004611f38565b610af3565b60006001600160e01b03198216630321f74760e01b1480610493575061049382610b49565b92915050565b6060600080546104a8906121da565b80601f01602080910402602001604051908101604052809291908181526020018280546104d4906121da565b80156105215780601f106104f657610100808354040283529160200191610521565b820191906000526020600020905b81548152906001019060200180831161050457829003601f168201915b5050505050905090565b600061053682610b99565b506000828152600460205260409020546001600160a01b0316610493565b61055f828233610bd2565b5050565b6001600160a01b03821661059257604051633250574960e11b8152600060048201526024015b60405180910390fd5b600061059f838333610bdf565b9050836001600160a01b0316816001600160a01b0316146105ed576040516364283d7b60e01b81526001600160a01b0380861660048301526024820184905282166044820152606401610589565b50505050565b6105fb610c03565b600e80546001600160a01b0383166001600160a01b031990911681179091556040805133815290517fe7784d93cfbfa4408e19577e6cc0436f4dbb51214b70e100905dfce9def88c169181900360200190a250565b60008061065b61088b565b90508065ffffffffffff16831061069657604051637669fc0f60e11b81526004810184905265ffffffffffff82166024820152604401610589565b6106c06106a284610c30565b6001600160a01b0386166000908152600a6020526040902090610c67565b6001600160d01b0316949350505050565b6106ec838383604051806020016040528060008152506108e4565b505050565b60606106fb610d1d565b65ffffffffffff1661070b61088b565b65ffffffffffff1614610731576040516301bfc1c560e61b815260040160405180910390fd5b5060408051808201909152601d81527f6d6f64653d626c6f636b6e756d6265722666726f6d3d64656661756c74000000602082015290565b3361055f8183610d28565b600061049382610b99565b60006001600160a01b0382166107ab576040516322718ad960e21b815260006004820152602401610589565b506001600160a01b031660009081526003602052604090205490565b6107cf610c03565b6107d96000610d9a565b565b6000606080600080600060606107ef610dec565b6107f7610e19565b60408051600080825260208201909252600f60f81b9b939a50919850469750309650945092509050565b60008061082c61088b565b90508065ffffffffffff16831061086757604051637669fc0f60e11b81526004810184905265ffffffffffff82166024820152604401610589565b61087b61087384610c30565b600b90610c67565b6001600160d01b03169392505050565b6000610895610d1d565b905090565b6060600180546104a8906121da565b6001600160a01b0381166000908152600a602052604081206108ca90610e46565b6001600160d01b031692915050565b61055f338383610e7f565b6108ef848484610563565b6105ed84848484610f1e565b6000600d6000815461090c9061222a565b9182905550905061091d8282611047565b6001600160a01b038216817f365b3162cd780731fc55a794b59494d472bc2af701007f581843a70673814698336040516001600160a01b03909116815260200160405180910390a3919050565b8342111561098e57604051632341d78760e11b815260048101859052602401610589565b604080517fe48329057bfd03d55e49b547132e39cffd9c1820ad7b9d4c5307691425d15adf60208201526001600160a01b038816918101919091526060810186905260808101859052600090610a0890610a009060a00160405160208183030381529060405280519060200120611061565b85858561108e565b9050610a1481876110bc565b610a1e8188610d28565b50505050505050565b600e546060906001600160a01b031680610a51575050604080516020810190915260008152919050565b604051636d02a25560e11b8152600481018490526001600160a01b0382169063da0544aa90602401600060405180830381865afa158015610a96573d6000803e3d6000fd5b505050506040513d6000823e601f3d908101601f19168201604052610abe9190810190612243565b9392505050565b6001600160a01b03918216600090815260056020908152604080832093909416825291909152205460ff1690565b610afb610c03565b6001600160a01b038116610b2557604051631e4fbdf760e01b815260006004820152602401610589565b610b2e81610d9a565b50565b6000610abe82846122ba565b6000610abe82846122e1565b60006001600160e01b031982166380ac58cd60e01b1480610b7a57506001600160e01b03198216635b5e139f60e01b145b8061049357506301ffc9a760e01b6001600160e01b0319831614610493565b6000818152600260205260408120546001600160a01b03168061049357604051637e27328960e01b815260048101849052602401610589565b6106ec838383600161110f565b600080610bed858585611215565b9050610bfb8186600161130e565b949350505050565b600c546001600160a01b031633146107d95760405163118cdaa760e01b8152336004820152602401610589565b600065ffffffffffff821115610c63576040516306dfcc6560e41b81526030600482015260248101839052604401610589565b5090565b815460009081816005811115610cc6576000610c8284611389565b610c8c9085612301565b60008881526020902090915081015465ffffffffffff9081169087161015610cb657809150610cc4565b610cc1816001612314565b92505b505b6000610cd487878585611471565b90508015610d0f57610cf987610ceb600184612301565b600091825260209091200190565b54600160301b90046001600160d01b0316610d12565b60005b979650505050505050565b600061089543610c30565b6001600160a01b0382811660008181526009602052604080822080548686166001600160a01b0319821681179092559151919094169392849290917f3134e8a2e6d97e929a7e54011ea5485d7d196dd5f0ba4d4ef95803e8e3fc257f9190a46106ec8183610d95866114d3565b6114de565b600c80546001600160a01b038381166001600160a01b0319831681179093556040519116919082907f8be0079c531659141344cd1fd0a4f28419497f9722a3daafe3b4186f6b6457e090600090a35050565b60606108957f4a75696365626f782050726f6a656374730000000000000000000000000000116006611645565b60606108957f31000000000000000000000000000000000000000000000000000000000000016007611645565b80546000908015610e7657610e6083610ceb600184612301565b54600160301b90046001600160d01b0316610abe565b60009392505050565b6001600160a01b038216610eb157604051630b61174360e31b81526001600160a01b0383166004820152602401610589565b6001600160a01b03838116600081815260056020908152604080832094871680845294825291829020805460ff191686151590811790915591519182527f17307eab39ab6107e8899845ad3d59bd9653f200f220920489ca2b5937696c31910160405180910390a3505050565b6001600160a01b0383163b156105ed57604051630a85bd0160e11b81526001600160a01b0384169063150b7a0290610f60903390889087908790600401612327565b6020604051808303816000875af1925050508015610f9b575060408051601f3d908101601f19168201909252610f9891810190612364565b60015b611004573d808015610fc9576040519150601f19603f3d011682016040523d82523d6000602084013e610fce565b606091505b508051600003610ffc57604051633250574960e11b81526001600160a01b0385166004820152602401610589565b805181602001fd5b6001600160e01b03198116630a85bd0160e11b1461104057604051633250574960e11b81526001600160a01b0385166004820152602401610589565b5050505050565b61055f8282604051806020016040528060008152506116f0565b600061049361106e611707565b8360405161190160f01b8152600281019290925260228201526042902090565b6000806000806110a088888888611832565b9250925092506110b08282611901565b50909695505050505050565b6001600160a01b03821660009081526008602052604090208054600181019091558181146106ec576040516301d4b62360e61b81526001600160a01b038416600482015260248101829052604401610589565b808061112357506001600160a01b03821615155b156111e557600061113384610b99565b90506001600160a01b0383161580159061115f5750826001600160a01b0316816001600160a01b031614155b801561117257506111708184610ac5565b155b1561119b5760405163a9fbf51f60e01b81526001600160a01b0384166004820152602401610589565b81156111e35783856001600160a01b0316826001600160a01b03167f8c5be1e5ebec7d5bd14f71427d1e84f3dd0314c0f7b2291e5b200ac8c7c3b92560405160405180910390a45b505b5050600090815260046020526040902080546001600160a01b0319166001600160a01b0392909216919091179055565b6000828152600260205260408120546001600160a01b0390811690831615611242576112428184866119ba565b6001600160a01b038116156112805761125f60008560008061110f565b6001600160a01b038116600090815260036020526040902080546000190190555b6001600160a01b038516156112af576001600160a01b0385166000908152600360205260409020805460010190555b60008481526002602052604080822080546001600160a01b0319166001600160a01b0389811691821790925591518793918516917fddf252ad1be2c89b69c2b068fc378daa952ba7f163c4a11628f55a4df523b3ef91a4949350505050565b6001600160a01b03831661133557611332600b610b3161132d84611a1e565b611a52565b50505b6001600160a01b03821661135757611354600b610b3d61132d84611a1e565b50505b6001600160a01b038381166000908152600960205260408082205485841683529120546106ec929182169116836114de565b60008160000361139b57506000919050565b600060016113a884611a8b565b901c6001901b905060018184816113c1576113c1612381565b048201901c905060018184816113d9576113d9612381565b048201901c905060018184816113f1576113f1612381565b048201901c9050600181848161140957611409612381565b048201901c9050600181848161142157611421612381565b048201901c9050600181848161143957611439612381565b048201901c9050600181848161145157611451612381565b048201901c9050610abe8182858161146b5761146b612381565b04611b1f565b60005b818310156114cb5760006114888484611b35565b60008781526020902090915065ffffffffffff86169082015465ffffffffffff1611156114b7578092506114c5565b6114c2816001612314565b93505b50611474565b509392505050565b60006104938261077f565b816001600160a01b0316836001600160a01b0316141580156115005750600081115b156106ec576001600160a01b038316156115a3576001600160a01b0383166000908152600a60205260408120819061153e90610b3d61132d86611a1e565b6001600160d01b031691506001600160d01b03169150846001600160a01b03167fdec2bacdd2f05b59de34da9b523dff8be42e5e38e818c82fdb0bae774387a7248383604051611598929190918252602082015260400190565b60405180910390a250505b6001600160a01b038216156106ec576001600160a01b0382166000908152600a6020526040812081906115dc90610b3161132d86611a1e565b6001600160d01b031691506001600160d01b03169150836001600160a01b03167fdec2bacdd2f05b59de34da9b523dff8be42e5e38e818c82fdb0bae774387a7248383604051611636929190918252602082015260400190565b60405180910390a25050505050565b606060ff831461165f5761165883611b50565b9050610493565b81805461166b906121da565b80601f0160208091040260200160405190810160405280929190818152602001828054611697906121da565b80156116e45780601f106116b9576101008083540402835291602001916116e4565b820191906000526020600020905b8154815290600101906020018083116116c757829003601f168201915b50505050509050610493565b6116fa8383611b8f565b6106ec6000848484610f1e565b6000306001600160a01b037f0000000000000000000000002ca466eb84dd69a99e25d10bbbda6e1b3c562c491614801561176057507f0000000000000000000000000000000000000000000000000000000000aa36a746145b1561178a57507faec1df1797ab8445970ae164ab09c97a8bf2c64d2a393b1a8227e1235d45df5290565b610895604080517f8b73c3c69bb8fe3d512ecc4cf759cc79239f7b179b0ffacaa9a75d522b39400f60208201527f2e5c5c1c4affeaeda2d3db263faddbd323c18ac7d44a6ca994665583d3b15dad918101919091527fc89efdaa54c0f20c7adf612882df0950f5a951637e0307cdcb4c672f298b8bc660608201524660808201523060a082015260009060c00160405160208183030381529060405280519060200120905090565b600080807f7fffffffffffffffffffffffffffffff5d576e7357a4501ddfe92f46681b20a084111561186d57506000915060039050826118f7565b604080516000808252602082018084528a905260ff891692820192909252606081018790526080810186905260019060a0016020604051602081039080840390855afa1580156118c1573d6000803e3d6000fd5b5050604051601f1901519150506001600160a01b0381166118ed575060009250600191508290506118f7565b9250600091508190505b9450945094915050565b600082600381111561191557611915612397565b0361191e575050565b600182600381111561193257611932612397565b036119505760405163f645eedf60e01b815260040160405180910390fd5b600282600381111561196457611964612397565b036119855760405163fce698f760e01b815260048101829052602401610589565b600382600381111561199957611999612397565b0361055f576040516335e2f38360e21b815260048101829052602401610589565b6119c5838383611bf4565b6106ec576001600160a01b0383166119f357604051637e27328960e01b815260048101829052602401610589565b60405163177e802f60e01b81526001600160a01b038316600482015260248101829052604401610589565b60006001600160d01b03821115610c63576040516306dfcc6560e41b815260d0600482015260248101839052604401610589565b600080611a7e611a6061088b565b611a76611a6c88610e46565b868863ffffffff16565b879190611c57565b915091505b935093915050565b600080608083901c15611aa057608092831c92015b604083901c15611ab257604092831c92015b602083901c15611ac457602092831c92015b601083901c15611ad657601092831c92015b600883901c15611ae857600892831c92015b600483901c15611afa57600492831c92015b600283901c15611b0c57600292831c92015b600183901c156104935760010192915050565b6000818310611b2e5781610abe565b5090919050565b6000611b4460028484186123ad565b610abe90848416612314565b60606000611b5d83611c65565b604080516020808252818301909252919250600091906020820181803683375050509182525060208101929092525090565b6001600160a01b038216611bb957604051633250574960e11b815260006004820152602401610589565b6000611bc783836000610bdf565b90506001600160a01b038116156106ec576040516339e3563760e11b815260006004820152602401610589565b60006001600160a01b03831615801590610bfb5750826001600160a01b0316846001600160a01b03161480611c2e5750611c2e8484610ac5565b80610bfb5750506000908152600460205260409020546001600160a01b03908116911614919050565b600080611a7e858585611c8d565b600060ff8216601f81111561049357604051632cd44ac360e21b815260040160405180910390fd5b825460009081908015611dac576000611cab87610ceb600185612301565b60408051808201909152905465ffffffffffff808216808452600160301b9092046001600160d01b031660208401529192509087161015611cff57604051632520601d60e01b815260040160405180910390fd5b805165ffffffffffff808816911603611d4b5784611d2288610ceb600186612301565b80546001600160d01b0392909216600160301b0265ffffffffffff909216919091179055611d9c565b6040805180820190915265ffffffffffff80881682526001600160d01b0380881660208085019182528b54600181018d5560008d81529190912094519151909216600160301b029216919091179101555b602001519250839150611a839050565b50506040805180820190915265ffffffffffff80851682526001600160d01b0380851660208085019182528854600181018a5560008a815291822095519251909316600160301b029190931617920191909155905081611a83565b6001600160e01b031981168114610b2e57600080fd5b600060208284031215611e2f57600080fd5b8135610abe81611e07565b60005b83811015611e55578181015183820152602001611e3d565b50506000910152565b60008151808452611e76816020860160208601611e3a565b601f01601f19169290920160200192915050565b602081526000610abe6020830184611e5e565b600060208284031215611eaf57600080fd5b5035919050565b6001600160a01b0381168114610b2e57600080fd5b60008060408385031215611ede57600080fd5b8235611ee981611eb6565b946020939093013593505050565b600080600060608486031215611f0c57600080fd5b8335611f1781611eb6565b92506020840135611f2781611eb6565b929592945050506040919091013590565b600060208284031215611f4a57600080fd5b8135610abe81611eb6565b60ff60f81b881681526000602060e06020840152611f7660e084018a611e5e565b8381036040850152611f88818a611e5e565b606085018990526001600160a01b038816608086015260a0850187905284810360c08601528551808252602080880193509091019060005b81811015611fdc57835183529284019291840191600101611fc0565b50909c9b505050505050505050505050565b6000806040838503121561200157600080fd5b823561200c81611eb6565b91506020830135801515811461202157600080fd5b809150509250929050565b634e487b7160e01b600052604160045260246000fd5b604051601f8201601f1916810167ffffffffffffffff8111828210171561206b5761206b61202c565b604052919050565b600067ffffffffffffffff82111561208d5761208d61202c565b50601f01601f191660200190565b600080600080608085870312156120b157600080fd5b84356120bc81611eb6565b935060208501356120cc81611eb6565b925060408501359150606085013567ffffffffffffffff8111156120ef57600080fd5b8501601f8101871361210057600080fd5b803561211361210e82612073565b612042565b81815288602083850101111561212857600080fd5b8160208401602083013760006020838301015280935050505092959194509250565b60008060008060008060c0878903121561216357600080fd5b863561216e81611eb6565b95506020870135945060408701359350606087013560ff8116811461219257600080fd5b9598949750929560808101359460a0909101359350915050565b600080604083850312156121bf57600080fd5b82356121ca81611eb6565b9150602083013561202181611eb6565b600181811c908216806121ee57607f821691505b60208210810361220e57634e487b7160e01b600052602260045260246000fd5b50919050565b634e487b7160e01b600052601160045260246000fd5b60006001820161223c5761223c612214565b5060010190565b60006020828403121561225557600080fd5b815167ffffffffffffffff81111561226c57600080fd5b8201601f8101841361227d57600080fd5b805161228b61210e82612073565b8181528560208385010111156122a057600080fd5b6122b1826020830160208601611e3a565b95945050505050565b6001600160d01b038181168382160190808211156122da576122da612214565b5092915050565b6001600160d01b038281168282160390808211156122da576122da612214565b8181038181111561049357610493612214565b8082018082111561049357610493612214565b6001600160a01b038581168252841660208201526040810183905260806060820181905260009061235a90830184611e5e565b9695505050505050565b60006020828403121561237657600080fd5b8151610abe81611e07565b634e487b7160e01b600052601260045260246000fd5b634e487b7160e01b600052602160045260246000fd5b6000826123ca57634e487b7160e01b600052601260045260246000fd5b50049056fea26469706673582212206f1cfa324927d31b2efbcf8e911a8b1bdce2da7092d596e0a77f30bcfe6d256364736f6c63430008170033",
			"devdoc": {
				"kind": "dev",
				"methods": {
					"CLOCK_MODE()": {
						"details": "Machine-readable description of the clock as specified in EIP-6372."
					},
					"approve(address,uint256)": {
						"details": "See {IERC721-approve}."
					},
					"balanceOf(address)": {
						"details": "See {IERC721-balanceOf}."
					},
					"clock()": {
						"details": "Clock used for flagging checkpoints. Can be overridden to implement timestamp based checkpoints (and voting), in which case {CLOCK_MODE} should be overridden as well to match."
					},
					"constructor": {
						"params": {
							"feeProjectOwner": "The address that will receive the fee-project. If `address(0)` the fee-project will not be minted.",
							"owner": "The owner of the contract who can set metadata."
						}
					},
					"createFor(address)": {
						"details": "Anyone can create a project on an owner's behalf.",
						"params": {
							"owner": "The address that will be the owner of the project."
						},
						"returns": {
							"projectId": "The token ID of the newly created project."
						}
					},
					"delegate(address)": {
						"details": "Delegates votes from the sender to `delegatee`."
					},
					"delegateBySig(address,uint256,uint256,uint8,bytes32,bytes32)": {
						"details": "Delegates votes from signer to `delegatee`."
					},
					"delegates(address)": {
						"details": "Returns the delegate that `account` has chosen."
					},
					"eip712Domain()": {
						"details": "See {IERC-5267}."
					},
					"getApproved(uint256)": {
						"details": "See {IERC721-getApproved}."
					},
					"getPastTotalSupply(uint256)": {
						"details": "Returns the total supply of votes available at a specific moment in the past. If the `clock()` is configured to use block numbers, this will return the value at the end of the corresponding block. NOTE: This value is the sum of all available votes, which is not necessarily the sum of all delegated votes. Votes that have not been delegated are still part of total supply, even though they would not participate in a vote. Requirements: - `timepoint` must be in the past. If operating using block numbers, the block must be already mined."
					},
					"getPastVotes(address,uint256)": {
						"details": "Returns the amount of votes that `account` had at a specific moment in the past. If the `clock()` is configured to use block numbers, this will return the value at the end of the corresponding block. Requirements: - `timepoint` must be in the past. If operating using block numbers, the block must be already mined."
					},
					"getVotes(address)": {
						"details": "Returns the current amount of votes that `account` has."
					},
					"isApprovedForAll(address,address)": {
						"details": "See {IERC721-isApprovedForAll}."
					},
					"name()": {
						"details": "See {IERC721Metadata-name}."
					},
					"nonces(address)": {
						"details": "Returns the next unused nonce for an address."
					},
					"owner()": {
						"details": "Returns the address of the current owner."
					},
					"ownerOf(uint256)": {
						"details": "See {IERC721-ownerOf}."
					},
					"renounceOwnership()": {
						"details": "Leaves the contract without owner. It will not be possible to call `onlyOwner` functions. Can only be called by the current owner. NOTE: Renouncing ownership will leave the contract without an owner, thereby disabling any functionality that is only available to the owner."
					},
					"safeTransferFrom(address,address,uint256)": {
						"details": "See {IERC721-safeTransferFrom}."
					},
					"safeTransferFrom(address,address,uint256,bytes)": {
						"details": "See {IERC721-safeTransferFrom}."
					},
					"setApprovalForAll(address,bool)": {
						"details": "See {IERC721-setApprovalForAll}."
					},
					"setTokenUriResolver(address)": {
						"params": {
							"newResolver": "The address of the new resolver."
						}
					},
					"supportsInterface(bytes4)": {
						"details": "See {IERC165-supportsInterface}.",
						"params": {
							"interfaceId": "The ID of the interface to check for adherence to."
						},
						"returns": {
							"_0": "A flag indicating if the provided interface ID is supported."
						}
					},
					"symbol()": {
						"details": "See {IERC721Metadata-symbol}."
					},
					"tokenURI(uint256)": {
						"params": {
							"projectId": "The ID of the project to get a URI of."
						},
						"returns": {
							"_0": "The token URI to use for the provided `projectId`."
						}
					},
					"transferFrom(address,address,uint256)": {
						"details": "See {IERC721-transferFrom}."
					},
					"transferOwnership(address)": {
						"details": "Transfers ownership of the contract to a new account (`newOwner`). Can only be called by the current owner."
					}
				},
				"version": 1
			},
			"userdoc": {
				"kind": "user",
				"methods": {
					"count()": {
						"notice": "The number of projects that have been created using this contract."
					},
					"createFor(address)": {
						"notice": "Create a new project for the specified owner, which mints an NFT (ERC-721) into their wallet."
					},
					"setTokenUriResolver(address)": {
						"notice": "Sets the address of the resolver used to retrieve the tokenURI of projects."
					},
					"supportsInterface(bytes4)": {
						"notice": "Indicates whether this contract adheres to the specified interface."
					},
					"tokenURI(uint256)": {
						"notice": "Returns the URI where the ERC-721 standard JSON of a project is hosted."
					},
					"tokenUriResolver()": {
						"notice": "The contract resolving each project ID to its ERC721 URI."
					}
				},
				"version": 1
			},
			"gitCommit": "cfb1d4cd4e79bed840a9c8fcd17a0f397da3e3bf",
			"sourceName": "src/JBProjects.sol",
			"chainId": "11155111",
			"linkReferences": {},
			"deployedLinkReferences": {}
		},
		{
			"_format": "sphinx-sol-ct-artifact-1",
			"merkleRoot": "0x11830f0fb7ad6b482466bf66cc24181095df70d9395bc2c496d5a5bd11e611a7",
			"contractName": "JBProjects",
			"address": "0xC99C2fCc0dC51dd0dAd1fd7B58236bB4d73bAaa8",
			"abi": [
				{
					"type": "constructor",
					"inputs": [
						{
							"name": "owner",
							"type": "address",
							"internalType": "address"
						},
						{
							"name": "feeProjectOwner",
							"type": "address",
							"internalType": "address"
						}
					],
					"stateMutability": "nonpayable"
				},
				{
					"type": "function",
					"name": "approve",
					"inputs": [
						{
							"name": "to",
							"type": "address",
							"internalType": "address"
						},
						{
							"name": "tokenId",
							"type": "uint256",
							"internalType": "uint256"
						}
					],
					"outputs": [],
					"stateMutability": "nonpayable"
				},
				{
					"type": "function",
					"name": "balanceOf",
					"inputs": [
						{
							"name": "owner",
							"type": "address",
							"internalType": "address"
						}
					],
					"outputs": [
						{
							"name": "",
							"type": "uint256",
							"internalType": "uint256"
						}
					],
					"stateMutability": "view"
				},
				{
					"type": "function",
					"name": "count",
					"inputs": [],
					"outputs": [
						{
							"name": "",
							"type": "uint256",
							"internalType": "uint256"
						}
					],
					"stateMutability": "view"
				},
				{
					"type": "function",
					"name": "createFor",
					"inputs": [
						{
							"name": "owner",
							"type": "address",
							"internalType": "address"
						}
					],
					"outputs": [
						{
							"name": "projectId",
							"type": "uint256",
							"internalType": "uint256"
						}
					],
					"stateMutability": "nonpayable"
				},
				{
					"type": "function",
					"name": "getApproved",
					"inputs": [
						{
							"name": "tokenId",
							"type": "uint256",
							"internalType": "uint256"
						}
					],
					"outputs": [
						{
							"name": "",
							"type": "address",
							"internalType": "address"
						}
					],
					"stateMutability": "view"
				},
				{
					"type": "function",
					"name": "isApprovedForAll",
					"inputs": [
						{
							"name": "owner",
							"type": "address",
							"internalType": "address"
						},
						{
							"name": "operator",
							"type": "address",
							"internalType": "address"
						}
					],
					"outputs": [
						{
							"name": "",
							"type": "bool",
							"internalType": "bool"
						}
					],
					"stateMutability": "view"
				},
				{
					"type": "function",
					"name": "name",
					"inputs": [],
					"outputs": [
						{
							"name": "",
							"type": "string",
							"internalType": "string"
						}
					],
					"stateMutability": "view"
				},
				{
					"type": "function",
					"name": "owner",
					"inputs": [],
					"outputs": [
						{
							"name": "",
							"type": "address",
							"internalType": "address"
						}
					],
					"stateMutability": "view"
				},
				{
					"type": "function",
					"name": "ownerOf",
					"inputs": [
						{
							"name": "tokenId",
							"type": "uint256",
							"internalType": "uint256"
						}
					],
					"outputs": [
						{
							"name": "",
							"type": "address",
							"internalType": "address"
						}
					],
					"stateMutability": "view"
				},
				{
					"type": "function",
					"name": "renounceOwnership",
					"inputs": [],
					"outputs": [],
					"stateMutability": "nonpayable"
				},
				{
					"type": "function",
					"name": "safeTransferFrom",
					"inputs": [
						{
							"name": "from",
							"type": "address",
							"internalType": "address"
						},
						{
							"name": "to",
							"type": "address",
							"internalType": "address"
						},
						{
							"name": "tokenId",
							"type": "uint256",
							"internalType": "uint256"
						}
					],
					"outputs": [],
					"stateMutability": "nonpayable"
				},
				{
					"type": "function",
					"name": "safeTransferFrom",
					"inputs": [
						{
							"name": "from",
							"type": "address",
							"internalType": "address"
						},
						{
							"name": "to",
							"type": "address",
							"internalType": "address"
						},
						{
							"name": "tokenId",
							"type": "uint256",
							"internalType": "uint256"
						},
						{
							"name": "data",
							"type": "bytes",
							"internalType": "bytes"
						}
					],
					"outputs": [],
					"stateMutability": "nonpayable"
				},
				{
					"type": "function",
					"name": "setApprovalForAll",
					"inputs": [
						{
							"name": "operator",
							"type": "address",
							"internalType": "address"
						},
						{
							"name": "approved",
							"type": "bool",
							"internalType": "bool"
						}
					],
					"outputs": [],
					"stateMutability": "nonpayable"
				},
				{
					"type": "function",
					"name": "setTokenUriResolver",
					"inputs": [
						{
							"name": "newResolver",
							"type": "address",
							"internalType": "contract IJBTokenUriResolver"
						}
					],
					"outputs": [],
					"stateMutability": "nonpayable"
				},
				{
					"type": "function",
					"name": "supportsInterface",
					"inputs": [
						{
							"name": "interfaceId",
							"type": "bytes4",
							"internalType": "bytes4"
						}
					],
					"outputs": [
						{
							"name": "",
							"type": "bool",
							"internalType": "bool"
						}
					],
					"stateMutability": "view"
				},
				{
					"type": "function",
					"name": "symbol",
					"inputs": [],
					"outputs": [
						{
							"name": "",
							"type": "string",
							"internalType": "string"
						}
					],
					"stateMutability": "view"
				},
				{
					"type": "function",
					"name": "tokenURI",
					"inputs": [
						{
							"name": "projectId",
							"type": "uint256",
							"internalType": "uint256"
						}
					],
					"outputs": [
						{
							"name": "",
							"type": "string",
							"internalType": "string"
						}
					],
					"stateMutability": "view"
				},
				{
					"type": "function",
					"name": "tokenUriResolver",
					"inputs": [],
					"outputs": [
						{
							"name": "",
							"type": "address",
							"internalType": "contract IJBTokenUriResolver"
						}
					],
					"stateMutability": "view"
				},
				{
					"type": "function",
					"name": "transferFrom",
					"inputs": [
						{
							"name": "from",
							"type": "address",
							"internalType": "address"
						},
						{
							"name": "to",
							"type": "address",
							"internalType": "address"
						},
						{
							"name": "tokenId",
							"type": "uint256",
							"internalType": "uint256"
						}
					],
					"outputs": [],
					"stateMutability": "nonpayable"
				},
				{
					"type": "function",
					"name": "transferOwnership",
					"inputs": [
						{
							"name": "newOwner",
							"type": "address",
							"internalType": "address"
						}
					],
					"outputs": [],
					"stateMutability": "nonpayable"
				},
				{
					"type": "event",
					"name": "Approval",
					"inputs": [
						{
							"name": "owner",
							"type": "address",
							"indexed": true,
							"internalType": "address"
						},
						{
							"name": "approved",
							"type": "address",
							"indexed": true,
							"internalType": "address"
						},
						{
							"name": "tokenId",
							"type": "uint256",
							"indexed": true,
							"internalType": "uint256"
						}
					],
					"anonymous": false
				},
				{
					"type": "event",
					"name": "ApprovalForAll",
					"inputs": [
						{
							"name": "owner",
							"type": "address",
							"indexed": true,
							"internalType": "address"
						},
						{
							"name": "operator",
							"type": "address",
							"indexed": true,
							"internalType": "address"
						},
						{
							"name": "approved",
							"type": "bool",
							"indexed": false,
							"internalType": "bool"
						}
					],
					"anonymous": false
				},
				{
					"type": "event",
					"name": "Create",
					"inputs": [
						{
							"name": "projectId",
							"type": "uint256",
							"indexed": true,
							"internalType": "uint256"
						},
						{
							"name": "owner",
							"type": "address",
							"indexed": true,
							"internalType": "address"
						},
						{
							"name": "caller",
							"type": "address",
							"indexed": false,
							"internalType": "address"
						}
					],
					"anonymous": false
				},
				{
					"type": "event",
					"name": "OwnershipTransferred",
					"inputs": [
						{
							"name": "previousOwner",
							"type": "address",
							"indexed": true,
							"internalType": "address"
						},
						{
							"name": "newOwner",
							"type": "address",
							"indexed": true,
							"internalType": "address"
						}
					],
					"anonymous": false
				},
				{
					"type": "event",
					"name": "SetTokenUriResolver",
					"inputs": [
						{
							"name": "resolver",
							"type": "address",
							"indexed": true,
							"internalType": "contract IJBTokenUriResolver"
						},
						{
							"name": "caller",
							"type": "address",
							"indexed": false,
							"internalType": "address"
						}
					],
					"anonymous": false
				},
				{
					"type": "event",
					"name": "Transfer",
					"inputs": [
						{
							"name": "from",
							"type": "address",
							"indexed": true,
							"internalType": "address"
						},
						{
							"name": "to",
							"type": "address",
							"indexed": true,
							"internalType": "address"
						},
						{
							"name": "tokenId",
							"type": "uint256",
							"indexed": true,
							"internalType": "uint256"
						}
					],
					"anonymous": false
				},
				{
					"type": "error",
					"name": "ERC721IncorrectOwner",
					"inputs": [
						{
							"name": "sender",
							"type": "address",
							"internalType": "address"
						},
						{
							"name": "tokenId",
							"type": "uint256",
							"internalType": "uint256"
						},
						{
							"name": "owner",
							"type": "address",
							"internalType": "address"
						}
					]
				},
				{
					"type": "error",
					"name": "ERC721InsufficientApproval",
					"inputs": [
						{
							"name": "operator",
							"type": "address",
							"internalType": "address"
						},
						{
							"name": "tokenId",
							"type": "uint256",
							"internalType": "uint256"
						}
					]
				},
				{
					"type": "error",
					"name": "ERC721InvalidApprover",
					"inputs": [
						{
							"name": "approver",
							"type": "address",
							"internalType": "address"
						}
					]
				},
				{
					"type": "error",
					"name": "ERC721InvalidOperator",
					"inputs": [
						{
							"name": "operator",
							"type": "address",
							"internalType": "address"
						}
					]
				},
				{
					"type": "error",
					"name": "ERC721InvalidOwner",
					"inputs": [
						{
							"name": "owner",
							"type": "address",
							"internalType": "address"
						}
					]
				},
				{
					"type": "error",
					"name": "ERC721InvalidReceiver",
					"inputs": [
						{
							"name": "receiver",
							"type": "address",
							"internalType": "address"
						}
					]
				},
				{
					"type": "error",
					"name": "ERC721InvalidSender",
					"inputs": [
						{
							"name": "sender",
							"type": "address",
							"internalType": "address"
						}
					]
				},
				{
					"type": "error",
					"name": "ERC721NonexistentToken",
					"inputs": [
						{
							"name": "tokenId",
							"type": "uint256",
							"internalType": "uint256"
						}
					]
				},
				{
					"type": "error",
					"name": "OwnableInvalidOwner",
					"inputs": [
						{
							"name": "owner",
							"type": "address",
							"internalType": "address"
						}
					]
				},
				{
					"type": "error",
					"name": "OwnableUnauthorizedAccount",
					"inputs": [
						{
							"name": "account",
							"type": "address",
							"internalType": "address"
						}
					]
				}
			],
			"solcInputHash": "d72d671cb704a380777b1be08dd807eb",
			"receipt": {
				"blockHash": "0x13cc920a541c0e0881002b039f9d281ae8a829fbdd5d6d9566a3560ac5ba28cb",
				"blockNumber": 6033692,
				"contractAddress": null,
				"cumulativeGasUsed": "16220478",
				"from": "0xC034550B542b83BA1De312b21d1C94a9a52B1595",
				"gasPrice": "3812153474",
				"gasUsed": "9908580",
				"hash": "0x2e2dc0647a65802517ec21f3e7a085fc5b8472098a138e902c1df15bec9a642f",
				"index": 58,
				"logs": [
					{
						"address": "0xB5E96127D417b1B3ef8438496a38A143167209c7",
						"blockHash": "0x13cc920a541c0e0881002b039f9d281ae8a829fbdd5d6d9566a3560ac5ba28cb",
						"blockNumber": 6033692,
						"data": "0x0000000000000000000000000000000000000000000000000000000000000000",
						"index": 113,
						"topics": [
							"0x572f161235911da04685a68c06adf558fc7e4a36909dca394650e0adc19cc93d",
							"0x000000000000000000000000c034550b542b83ba1de312b21d1c94a9a52b1595",
							"0x000000000000000000000000ef1be3c049809cace5bc203bbe4ec1ab284bf75c",
							"0x7d5dee35f88f325d117661f420aba0f49efbda8e9dd192c65033d21d8f7b717a"
						],
						"transactionHash": "0x2e2dc0647a65802517ec21f3e7a085fc5b8472098a138e902c1df15bec9a642f",
						"transactionIndex": 58
					},
					{
						"address": "0x1081B5AA9D9d4862A3dA4d469433FB36Ed80FA2A",
						"blockHash": "0x13cc920a541c0e0881002b039f9d281ae8a829fbdd5d6d9566a3560ac5ba28cb",
						"blockNumber": 6033692,
						"data": "0x",
						"index": 114,
						"topics": [
							"0x6895c13664aa4f67288b25d7a21d7aaa34916e355fb9b6fae0a139a9085becb8",
							"0x000000000000000000000000ef1be3c049809cace5bc203bbe4ec1ab284bf75c"
						],
						"transactionHash": "0x2e2dc0647a65802517ec21f3e7a085fc5b8472098a138e902c1df15bec9a642f",
						"transactionIndex": 58
					},
					{
						"address": "0xEf1Be3C049809caCe5Bc203BBe4Ec1Ab284bF75c",
						"blockHash": "0x13cc920a541c0e0881002b039f9d281ae8a829fbdd5d6d9566a3560ac5ba28cb",
						"blockNumber": 6033692,
						"data": "0x0000000000000000000000000000000000000000000000000000000000000001",
						"index": 115,
						"topics": [
							"0xa65fb05c5808f5f389d72edeaf719ce38f4cc55c1f69ca3cbfb31c21501caa07",
							"0x11830f0fb7ad6b482466bf66cc24181095df70d9395bc2c496d5a5bd11e611a7"
						],
						"transactionHash": "0x2e2dc0647a65802517ec21f3e7a085fc5b8472098a138e902c1df15bec9a642f",
						"transactionIndex": 58
					},
					{
						"address": "0xC99C2fCc0dC51dd0dAd1fd7B58236bB4d73bAaa8",
						"blockHash": "0x13cc920a541c0e0881002b039f9d281ae8a829fbdd5d6d9566a3560ac5ba28cb",
						"blockNumber": 6033692,
						"data": "0x",
						"index": 116,
						"topics": [
							"0x8be0079c531659141344cd1fd0a4f28419497f9722a3daafe3b4186f6b6457e0",
							"0x0000000000000000000000000000000000000000000000000000000000000000",
							"0x0000000000000000000000001081b5aa9d9d4862a3da4d469433fb36ed80fa2a"
						],
						"transactionHash": "0x2e2dc0647a65802517ec21f3e7a085fc5b8472098a138e902c1df15bec9a642f",
						"transactionIndex": 58
					},
					{
						"address": "0xC99C2fCc0dC51dd0dAd1fd7B58236bB4d73bAaa8",
						"blockHash": "0x13cc920a541c0e0881002b039f9d281ae8a829fbdd5d6d9566a3560ac5ba28cb",
						"blockNumber": 6033692,
						"data": "0x",
						"index": 117,
						"topics": [
							"0xddf252ad1be2c89b69c2b068fc378daa952ba7f163c4a11628f55a4df523b3ef",
							"0x0000000000000000000000000000000000000000000000000000000000000000",
							"0x0000000000000000000000001081b5aa9d9d4862a3da4d469433fb36ed80fa2a",
							"0x0000000000000000000000000000000000000000000000000000000000000001"
						],
						"transactionHash": "0x2e2dc0647a65802517ec21f3e7a085fc5b8472098a138e902c1df15bec9a642f",
						"transactionIndex": 58
					},
					{
						"address": "0xC99C2fCc0dC51dd0dAd1fd7B58236bB4d73bAaa8",
						"blockHash": "0x13cc920a541c0e0881002b039f9d281ae8a829fbdd5d6d9566a3560ac5ba28cb",
						"blockNumber": 6033692,
						"data": "0x0000000000000000000000004e59b44847b379578588920ca78fbf26c0b4956c",
						"index": 118,
						"topics": [
							"0x365b3162cd780731fc55a794b59494d472bc2af701007f581843a70673814698",
							"0x0000000000000000000000000000000000000000000000000000000000000001",
							"0x0000000000000000000000001081b5aa9d9d4862a3da4d469433fb36ed80fa2a"
						],
						"transactionHash": "0x2e2dc0647a65802517ec21f3e7a085fc5b8472098a138e902c1df15bec9a642f",
						"transactionIndex": 58
					},
					{
						"address": "0x1081B5AA9D9d4862A3dA4d469433FB36Ed80FA2A",
						"blockHash": "0x13cc920a541c0e0881002b039f9d281ae8a829fbdd5d6d9566a3560ac5ba28cb",
						"blockNumber": 6033692,
						"data": "0x",
						"index": 119,
						"topics": [
							"0x6895c13664aa4f67288b25d7a21d7aaa34916e355fb9b6fae0a139a9085becb8",
							"0x000000000000000000000000ef1be3c049809cace5bc203bbe4ec1ab284bf75c"
						],
						"transactionHash": "0x2e2dc0647a65802517ec21f3e7a085fc5b8472098a138e902c1df15bec9a642f",
						"transactionIndex": 58
					},
					{
						"address": "0xEf1Be3C049809caCe5Bc203BBe4Ec1Ab284bF75c",
						"blockHash": "0x13cc920a541c0e0881002b039f9d281ae8a829fbdd5d6d9566a3560ac5ba28cb",
						"blockNumber": 6033692,
						"data": "0x0000000000000000000000000000000000000000000000000000000000000002",
						"index": 120,
						"topics": [
							"0xa65fb05c5808f5f389d72edeaf719ce38f4cc55c1f69ca3cbfb31c21501caa07",
							"0x11830f0fb7ad6b482466bf66cc24181095df70d9395bc2c496d5a5bd11e611a7"
						],
						"transactionHash": "0x2e2dc0647a65802517ec21f3e7a085fc5b8472098a138e902c1df15bec9a642f",
						"transactionIndex": 58
					},
					{
						"address": "0xc9cb7a0BAB7569b5B6De26A679D107D4D412B349",
						"blockHash": "0x13cc920a541c0e0881002b039f9d281ae8a829fbdd5d6d9566a3560ac5ba28cb",
						"blockNumber": 6033692,
						"data": "0x",
						"index": 121,
						"topics": [
							"0x8be0079c531659141344cd1fd0a4f28419497f9722a3daafe3b4186f6b6457e0",
							"0x0000000000000000000000000000000000000000000000000000000000000000",
							"0x0000000000000000000000001081b5aa9d9d4862a3da4d469433fb36ed80fa2a"
						],
						"transactionHash": "0x2e2dc0647a65802517ec21f3e7a085fc5b8472098a138e902c1df15bec9a642f",
						"transactionIndex": 58
					},
					{
						"address": "0x1081B5AA9D9d4862A3dA4d469433FB36Ed80FA2A",
						"blockHash": "0x13cc920a541c0e0881002b039f9d281ae8a829fbdd5d6d9566a3560ac5ba28cb",
						"blockNumber": 6033692,
						"data": "0x",
						"index": 122,
						"topics": [
							"0x6895c13664aa4f67288b25d7a21d7aaa34916e355fb9b6fae0a139a9085becb8",
							"0x000000000000000000000000ef1be3c049809cace5bc203bbe4ec1ab284bf75c"
						],
						"transactionHash": "0x2e2dc0647a65802517ec21f3e7a085fc5b8472098a138e902c1df15bec9a642f",
						"transactionIndex": 58
					},
					{
						"address": "0xEf1Be3C049809caCe5Bc203BBe4Ec1Ab284bF75c",
						"blockHash": "0x13cc920a541c0e0881002b039f9d281ae8a829fbdd5d6d9566a3560ac5ba28cb",
						"blockNumber": 6033692,
						"data": "0x0000000000000000000000000000000000000000000000000000000000000003",
						"index": 123,
						"topics": [
							"0xa65fb05c5808f5f389d72edeaf719ce38f4cc55c1f69ca3cbfb31c21501caa07",
							"0x11830f0fb7ad6b482466bf66cc24181095df70d9395bc2c496d5a5bd11e611a7"
						],
						"transactionHash": "0x2e2dc0647a65802517ec21f3e7a085fc5b8472098a138e902c1df15bec9a642f",
						"transactionIndex": 58
					},
					{
						"address": "0x1081B5AA9D9d4862A3dA4d469433FB36Ed80FA2A",
						"blockHash": "0x13cc920a541c0e0881002b039f9d281ae8a829fbdd5d6d9566a3560ac5ba28cb",
						"blockNumber": 6033692,
						"data": "0x",
						"index": 124,
						"topics": [
							"0x6895c13664aa4f67288b25d7a21d7aaa34916e355fb9b6fae0a139a9085becb8",
							"0x000000000000000000000000ef1be3c049809cace5bc203bbe4ec1ab284bf75c"
						],
						"transactionHash": "0x2e2dc0647a65802517ec21f3e7a085fc5b8472098a138e902c1df15bec9a642f",
						"transactionIndex": 58
					},
					{
						"address": "0xEf1Be3C049809caCe5Bc203BBe4Ec1Ab284bF75c",
						"blockHash": "0x13cc920a541c0e0881002b039f9d281ae8a829fbdd5d6d9566a3560ac5ba28cb",
						"blockNumber": 6033692,
						"data": "0x0000000000000000000000000000000000000000000000000000000000000004",
						"index": 125,
						"topics": [
							"0xa65fb05c5808f5f389d72edeaf719ce38f4cc55c1f69ca3cbfb31c21501caa07",
							"0x11830f0fb7ad6b482466bf66cc24181095df70d9395bc2c496d5a5bd11e611a7"
						],
						"transactionHash": "0x2e2dc0647a65802517ec21f3e7a085fc5b8472098a138e902c1df15bec9a642f",
						"transactionIndex": 58
					},
					{
						"address": "0x1081B5AA9D9d4862A3dA4d469433FB36Ed80FA2A",
						"blockHash": "0x13cc920a541c0e0881002b039f9d281ae8a829fbdd5d6d9566a3560ac5ba28cb",
						"blockNumber": 6033692,
						"data": "0x",
						"index": 126,
						"topics": [
							"0x6895c13664aa4f67288b25d7a21d7aaa34916e355fb9b6fae0a139a9085becb8",
							"0x000000000000000000000000ef1be3c049809cace5bc203bbe4ec1ab284bf75c"
						],
						"transactionHash": "0x2e2dc0647a65802517ec21f3e7a085fc5b8472098a138e902c1df15bec9a642f",
						"transactionIndex": 58
					},
					{
						"address": "0xEf1Be3C049809caCe5Bc203BBe4Ec1Ab284bF75c",
						"blockHash": "0x13cc920a541c0e0881002b039f9d281ae8a829fbdd5d6d9566a3560ac5ba28cb",
						"blockNumber": 6033692,
						"data": "0x0000000000000000000000000000000000000000000000000000000000000005",
						"index": 127,
						"topics": [
							"0xa65fb05c5808f5f389d72edeaf719ce38f4cc55c1f69ca3cbfb31c21501caa07",
							"0x11830f0fb7ad6b482466bf66cc24181095df70d9395bc2c496d5a5bd11e611a7"
						],
						"transactionHash": "0x2e2dc0647a65802517ec21f3e7a085fc5b8472098a138e902c1df15bec9a642f",
						"transactionIndex": 58
					},
					{
						"address": "0x139dB16d4Ecc256cF0DaeD2705671165e1878047",
						"blockHash": "0x13cc920a541c0e0881002b039f9d281ae8a829fbdd5d6d9566a3560ac5ba28cb",
						"blockNumber": 6033692,
						"data": "0x",
						"index": 128,
						"topics": [
							"0x8be0079c531659141344cd1fd0a4f28419497f9722a3daafe3b4186f6b6457e0",
							"0x0000000000000000000000000000000000000000000000000000000000000000",
							"0x000000000000000000000000139db16d4ecc256cf0daed2705671165e1878047"
						],
						"transactionHash": "0x2e2dc0647a65802517ec21f3e7a085fc5b8472098a138e902c1df15bec9a642f",
						"transactionIndex": 58
					},
					{
						"address": "0x1081B5AA9D9d4862A3dA4d469433FB36Ed80FA2A",
						"blockHash": "0x13cc920a541c0e0881002b039f9d281ae8a829fbdd5d6d9566a3560ac5ba28cb",
						"blockNumber": 6033692,
						"data": "0x",
						"index": 129,
						"topics": [
							"0x6895c13664aa4f67288b25d7a21d7aaa34916e355fb9b6fae0a139a9085becb8",
							"0x000000000000000000000000ef1be3c049809cace5bc203bbe4ec1ab284bf75c"
						],
						"transactionHash": "0x2e2dc0647a65802517ec21f3e7a085fc5b8472098a138e902c1df15bec9a642f",
						"transactionIndex": 58
					},
					{
						"address": "0xEf1Be3C049809caCe5Bc203BBe4Ec1Ab284bF75c",
						"blockHash": "0x13cc920a541c0e0881002b039f9d281ae8a829fbdd5d6d9566a3560ac5ba28cb",
						"blockNumber": 6033692,
						"data": "0x0000000000000000000000000000000000000000000000000000000000000006",
						"index": 130,
						"topics": [
							"0xa65fb05c5808f5f389d72edeaf719ce38f4cc55c1f69ca3cbfb31c21501caa07",
							"0x11830f0fb7ad6b482466bf66cc24181095df70d9395bc2c496d5a5bd11e611a7"
						],
						"transactionHash": "0x2e2dc0647a65802517ec21f3e7a085fc5b8472098a138e902c1df15bec9a642f",
						"transactionIndex": 58
					},
					{
						"address": "0x1081B5AA9D9d4862A3dA4d469433FB36Ed80FA2A",
						"blockHash": "0x13cc920a541c0e0881002b039f9d281ae8a829fbdd5d6d9566a3560ac5ba28cb",
						"blockNumber": 6033692,
						"data": "0x",
						"index": 131,
						"topics": [
							"0x6895c13664aa4f67288b25d7a21d7aaa34916e355fb9b6fae0a139a9085becb8",
							"0x000000000000000000000000ef1be3c049809cace5bc203bbe4ec1ab284bf75c"
						],
						"transactionHash": "0x2e2dc0647a65802517ec21f3e7a085fc5b8472098a138e902c1df15bec9a642f",
						"transactionIndex": 58
					},
					{
						"address": "0xEf1Be3C049809caCe5Bc203BBe4Ec1Ab284bF75c",
						"blockHash": "0x13cc920a541c0e0881002b039f9d281ae8a829fbdd5d6d9566a3560ac5ba28cb",
						"blockNumber": 6033692,
						"data": "0x0000000000000000000000000000000000000000000000000000000000000007",
						"index": 132,
						"topics": [
							"0xa65fb05c5808f5f389d72edeaf719ce38f4cc55c1f69ca3cbfb31c21501caa07",
							"0x11830f0fb7ad6b482466bf66cc24181095df70d9395bc2c496d5a5bd11e611a7"
						],
						"transactionHash": "0x2e2dc0647a65802517ec21f3e7a085fc5b8472098a138e902c1df15bec9a642f",
						"transactionIndex": 58
					},
					{
						"address": "0x1081B5AA9D9d4862A3dA4d469433FB36Ed80FA2A",
						"blockHash": "0x13cc920a541c0e0881002b039f9d281ae8a829fbdd5d6d9566a3560ac5ba28cb",
						"blockNumber": 6033692,
						"data": "0x",
						"index": 133,
						"topics": [
							"0x6895c13664aa4f67288b25d7a21d7aaa34916e355fb9b6fae0a139a9085becb8",
							"0x000000000000000000000000ef1be3c049809cace5bc203bbe4ec1ab284bf75c"
						],
						"transactionHash": "0x2e2dc0647a65802517ec21f3e7a085fc5b8472098a138e902c1df15bec9a642f",
						"transactionIndex": 58
					},
					{
						"address": "0xEf1Be3C049809caCe5Bc203BBe4Ec1Ab284bF75c",
						"blockHash": "0x13cc920a541c0e0881002b039f9d281ae8a829fbdd5d6d9566a3560ac5ba28cb",
						"blockNumber": 6033692,
						"data": "0x0000000000000000000000000000000000000000000000000000000000000008",
						"index": 134,
						"topics": [
							"0xa65fb05c5808f5f389d72edeaf719ce38f4cc55c1f69ca3cbfb31c21501caa07",
							"0x11830f0fb7ad6b482466bf66cc24181095df70d9395bc2c496d5a5bd11e611a7"
						],
						"transactionHash": "0x2e2dc0647a65802517ec21f3e7a085fc5b8472098a138e902c1df15bec9a642f",
						"transactionIndex": 58
					}
				],
				"logsBloom": "0x00000000080010000028000001080200000000000008000080800000004000080060008000000000000080000040200000000000000000000000000000040000010000100400200400000008000000000001000000040000000200000000000200000000020000000000000000000800000000100000400000000010000000400001000000000000000100000000000000000000000000000200800000400000004000040010000000000000000000020200000000000000000000000006000000000002000000200000000008000000010000800020000000000000000060000020000000000004000000000000000200000000040000000000000000000000",
				"status": 1,
				"to": "0xB5E96127D417b1B3ef8438496a38A143167209c7"
			},
			"metadata": "{\"compiler\":{\"version\":\"0.8.23+commit.f704f362\"},\"language\":\"Solidity\",\"output\":{\"abi\":[{\"inputs\":[{\"internalType\":\"address\",\"name\":\"owner\",\"type\":\"address\"},{\"internalType\":\"address\",\"name\":\"feeProjectOwner\",\"type\":\"address\"}],\"stateMutability\":\"nonpayable\",\"type\":\"constructor\"},{\"inputs\":[{\"internalType\":\"address\",\"name\":\"sender\",\"type\":\"address\"},{\"internalType\":\"uint256\",\"name\":\"tokenId\",\"type\":\"uint256\"},{\"internalType\":\"address\",\"name\":\"owner\",\"type\":\"address\"}],\"type\":\"error\",\"name\":\"ERC721IncorrectOwner\"},{\"inputs\":[{\"internalType\":\"address\",\"name\":\"operator\",\"type\":\"address\"},{\"internalType\":\"uint256\",\"name\":\"tokenId\",\"type\":\"uint256\"}],\"type\":\"error\",\"name\":\"ERC721InsufficientApproval\"},{\"inputs\":[{\"internalType\":\"address\",\"name\":\"approver\",\"type\":\"address\"}],\"type\":\"error\",\"name\":\"ERC721InvalidApprover\"},{\"inputs\":[{\"internalType\":\"address\",\"name\":\"operator\",\"type\":\"address\"}],\"type\":\"error\",\"name\":\"ERC721InvalidOperator\"},{\"inputs\":[{\"internalType\":\"address\",\"name\":\"owner\",\"type\":\"address\"}],\"type\":\"error\",\"name\":\"ERC721InvalidOwner\"},{\"inputs\":[{\"internalType\":\"address\",\"name\":\"receiver\",\"type\":\"address\"}],\"type\":\"error\",\"name\":\"ERC721InvalidReceiver\"},{\"inputs\":[{\"internalType\":\"address\",\"name\":\"sender\",\"type\":\"address\"}],\"type\":\"error\",\"name\":\"ERC721InvalidSender\"},{\"inputs\":[{\"internalType\":\"uint256\",\"name\":\"tokenId\",\"type\":\"uint256\"}],\"type\":\"error\",\"name\":\"ERC721NonexistentToken\"},{\"inputs\":[{\"internalType\":\"address\",\"name\":\"owner\",\"type\":\"address\"}],\"type\":\"error\",\"name\":\"OwnableInvalidOwner\"},{\"inputs\":[{\"internalType\":\"address\",\"name\":\"account\",\"type\":\"address\"}],\"type\":\"error\",\"name\":\"OwnableUnauthorizedAccount\"},{\"inputs\":[{\"internalType\":\"address\",\"name\":\"owner\",\"type\":\"address\",\"indexed\":true},{\"internalType\":\"address\",\"name\":\"approved\",\"type\":\"address\",\"indexed\":true},{\"internalType\":\"uint256\",\"name\":\"tokenId\",\"type\":\"uint256\",\"indexed\":true}],\"type\":\"event\",\"name\":\"Approval\",\"anonymous\":false},{\"inputs\":[{\"internalType\":\"address\",\"name\":\"owner\",\"type\":\"address\",\"indexed\":true},{\"internalType\":\"address\",\"name\":\"operator\",\"type\":\"address\",\"indexed\":true},{\"internalType\":\"bool\",\"name\":\"approved\",\"type\":\"bool\",\"indexed\":false}],\"type\":\"event\",\"name\":\"ApprovalForAll\",\"anonymous\":false},{\"inputs\":[{\"internalType\":\"uint256\",\"name\":\"projectId\",\"type\":\"uint256\",\"indexed\":true},{\"internalType\":\"address\",\"name\":\"owner\",\"type\":\"address\",\"indexed\":true},{\"internalType\":\"address\",\"name\":\"caller\",\"type\":\"address\",\"indexed\":false}],\"type\":\"event\",\"name\":\"Create\",\"anonymous\":false},{\"inputs\":[{\"internalType\":\"address\",\"name\":\"previousOwner\",\"type\":\"address\",\"indexed\":true},{\"internalType\":\"address\",\"name\":\"newOwner\",\"type\":\"address\",\"indexed\":true}],\"type\":\"event\",\"name\":\"OwnershipTransferred\",\"anonymous\":false},{\"inputs\":[{\"internalType\":\"contract IJBTokenUriResolver\",\"name\":\"resolver\",\"type\":\"address\",\"indexed\":true},{\"internalType\":\"address\",\"name\":\"caller\",\"type\":\"address\",\"indexed\":false}],\"type\":\"event\",\"name\":\"SetTokenUriResolver\",\"anonymous\":false},{\"inputs\":[{\"internalType\":\"address\",\"name\":\"from\",\"type\":\"address\",\"indexed\":true},{\"internalType\":\"address\",\"name\":\"to\",\"type\":\"address\",\"indexed\":true},{\"internalType\":\"uint256\",\"name\":\"tokenId\",\"type\":\"uint256\",\"indexed\":true}],\"type\":\"event\",\"name\":\"Transfer\",\"anonymous\":false},{\"inputs\":[{\"internalType\":\"address\",\"name\":\"to\",\"type\":\"address\"},{\"internalType\":\"uint256\",\"name\":\"tokenId\",\"type\":\"uint256\"}],\"stateMutability\":\"nonpayable\",\"type\":\"function\",\"name\":\"approve\"},{\"inputs\":[{\"internalType\":\"address\",\"name\":\"owner\",\"type\":\"address\"}],\"stateMutability\":\"view\",\"type\":\"function\",\"name\":\"balanceOf\",\"outputs\":[{\"internalType\":\"uint256\",\"name\":\"\",\"type\":\"uint256\"}]},{\"inputs\":[],\"stateMutability\":\"view\",\"type\":\"function\",\"name\":\"count\",\"outputs\":[{\"internalType\":\"uint256\",\"name\":\"\",\"type\":\"uint256\"}]},{\"inputs\":[{\"internalType\":\"address\",\"name\":\"owner\",\"type\":\"address\"}],\"stateMutability\":\"nonpayable\",\"type\":\"function\",\"name\":\"createFor\",\"outputs\":[{\"internalType\":\"uint256\",\"name\":\"projectId\",\"type\":\"uint256\"}]},{\"inputs\":[{\"internalType\":\"uint256\",\"name\":\"tokenId\",\"type\":\"uint256\"}],\"stateMutability\":\"view\",\"type\":\"function\",\"name\":\"getApproved\",\"outputs\":[{\"internalType\":\"address\",\"name\":\"\",\"type\":\"address\"}]},{\"inputs\":[{\"internalType\":\"address\",\"name\":\"owner\",\"type\":\"address\"},{\"internalType\":\"address\",\"name\":\"operator\",\"type\":\"address\"}],\"stateMutability\":\"view\",\"type\":\"function\",\"name\":\"isApprovedForAll\",\"outputs\":[{\"internalType\":\"bool\",\"name\":\"\",\"type\":\"bool\"}]},{\"inputs\":[],\"stateMutability\":\"view\",\"type\":\"function\",\"name\":\"name\",\"outputs\":[{\"internalType\":\"string\",\"name\":\"\",\"type\":\"string\"}]},{\"inputs\":[],\"stateMutability\":\"view\",\"type\":\"function\",\"name\":\"owner\",\"outputs\":[{\"internalType\":\"address\",\"name\":\"\",\"type\":\"address\"}]},{\"inputs\":[{\"internalType\":\"uint256\",\"name\":\"tokenId\",\"type\":\"uint256\"}],\"stateMutability\":\"view\",\"type\":\"function\",\"name\":\"ownerOf\",\"outputs\":[{\"internalType\":\"address\",\"name\":\"\",\"type\":\"address\"}]},{\"inputs\":[],\"stateMutability\":\"nonpayable\",\"type\":\"function\",\"name\":\"renounceOwnership\"},{\"inputs\":[{\"internalType\":\"address\",\"name\":\"from\",\"type\":\"address\"},{\"internalType\":\"address\",\"name\":\"to\",\"type\":\"address\"},{\"internalType\":\"uint256\",\"name\":\"tokenId\",\"type\":\"uint256\"}],\"stateMutability\":\"nonpayable\",\"type\":\"function\",\"name\":\"safeTransferFrom\"},{\"inputs\":[{\"internalType\":\"address\",\"name\":\"from\",\"type\":\"address\"},{\"internalType\":\"address\",\"name\":\"to\",\"type\":\"address\"},{\"internalType\":\"uint256\",\"name\":\"tokenId\",\"type\":\"uint256\"},{\"internalType\":\"bytes\",\"name\":\"data\",\"type\":\"bytes\"}],\"stateMutability\":\"nonpayable\",\"type\":\"function\",\"name\":\"safeTransferFrom\"},{\"inputs\":[{\"internalType\":\"address\",\"name\":\"operator\",\"type\":\"address\"},{\"internalType\":\"bool\",\"name\":\"approved\",\"type\":\"bool\"}],\"stateMutability\":\"nonpayable\",\"type\":\"function\",\"name\":\"setApprovalForAll\"},{\"inputs\":[{\"internalType\":\"contract IJBTokenUriResolver\",\"name\":\"newResolver\",\"type\":\"address\"}],\"stateMutability\":\"nonpayable\",\"type\":\"function\",\"name\":\"setTokenUriResolver\"},{\"inputs\":[{\"internalType\":\"bytes4\",\"name\":\"interfaceId\",\"type\":\"bytes4\"}],\"stateMutability\":\"view\",\"type\":\"function\",\"name\":\"supportsInterface\",\"outputs\":[{\"internalType\":\"bool\",\"name\":\"\",\"type\":\"bool\"}]},{\"inputs\":[],\"stateMutability\":\"view\",\"type\":\"function\",\"name\":\"symbol\",\"outputs\":[{\"internalType\":\"string\",\"name\":\"\",\"type\":\"string\"}]},{\"inputs\":[{\"internalType\":\"uint256\",\"name\":\"projectId\",\"type\":\"uint256\"}],\"stateMutability\":\"view\",\"type\":\"function\",\"name\":\"tokenURI\",\"outputs\":[{\"internalType\":\"string\",\"name\":\"\",\"type\":\"string\"}]},{\"inputs\":[],\"stateMutability\":\"view\",\"type\":\"function\",\"name\":\"tokenUriResolver\",\"outputs\":[{\"internalType\":\"contract IJBTokenUriResolver\",\"name\":\"\",\"type\":\"address\"}]},{\"inputs\":[{\"internalType\":\"address\",\"name\":\"from\",\"type\":\"address\"},{\"internalType\":\"address\",\"name\":\"to\",\"type\":\"address\"},{\"internalType\":\"uint256\",\"name\":\"tokenId\",\"type\":\"uint256\"}],\"stateMutability\":\"nonpayable\",\"type\":\"function\",\"name\":\"transferFrom\"},{\"inputs\":[{\"internalType\":\"address\",\"name\":\"newOwner\",\"type\":\"address\"}],\"stateMutability\":\"nonpayable\",\"type\":\"function\",\"name\":\"transferOwnership\"}],\"devdoc\":{\"kind\":\"dev\",\"methods\":{\"approve(address,uint256)\":{\"details\":\"See {IERC721-approve}.\"},\"balanceOf(address)\":{\"details\":\"See {IERC721-balanceOf}.\"},\"constructor\":{\"params\":{\"feeProjectOwner\":\"The address that will receive the fee-project. If `address(0)` the fee-project will not be minted.\",\"owner\":\"The owner of the contract who can set metadata.\"}},\"createFor(address)\":{\"details\":\"Anyone can create a project on an owner's behalf.\",\"params\":{\"owner\":\"The address that will be the owner of the project.\"},\"returns\":{\"projectId\":\"The token ID of the newly created project.\"}},\"getApproved(uint256)\":{\"details\":\"See {IERC721-getApproved}.\"},\"isApprovedForAll(address,address)\":{\"details\":\"See {IERC721-isApprovedForAll}.\"},\"name()\":{\"details\":\"See {IERC721Metadata-name}.\"},\"owner()\":{\"details\":\"Returns the address of the current owner.\"},\"ownerOf(uint256)\":{\"details\":\"See {IERC721-ownerOf}.\"},\"renounceOwnership()\":{\"details\":\"Leaves the contract without owner. It will not be possible to call `onlyOwner` functions. Can only be called by the current owner. NOTE: Renouncing ownership will leave the contract without an owner, thereby disabling any functionality that is only available to the owner.\"},\"safeTransferFrom(address,address,uint256)\":{\"details\":\"See {IERC721-safeTransferFrom}.\"},\"safeTransferFrom(address,address,uint256,bytes)\":{\"details\":\"See {IERC721-safeTransferFrom}.\"},\"setApprovalForAll(address,bool)\":{\"details\":\"See {IERC721-setApprovalForAll}.\"},\"setTokenUriResolver(address)\":{\"params\":{\"newResolver\":\"The address of the new resolver.\"}},\"supportsInterface(bytes4)\":{\"details\":\"See {IERC165-supportsInterface}.\",\"params\":{\"interfaceId\":\"The ID of the interface to check for adherence to.\"},\"returns\":{\"_0\":\"A flag indicating if the provided interface ID is supported.\"}},\"symbol()\":{\"details\":\"See {IERC721Metadata-symbol}.\"},\"tokenURI(uint256)\":{\"params\":{\"projectId\":\"The ID of the project to get a URI of.\"},\"returns\":{\"_0\":\"The token URI to use for the provided `projectId`.\"}},\"transferFrom(address,address,uint256)\":{\"details\":\"See {IERC721-transferFrom}.\"},\"transferOwnership(address)\":{\"details\":\"Transfers ownership of the contract to a new account (`newOwner`). Can only be called by the current owner.\"}},\"version\":1},\"userdoc\":{\"kind\":\"user\",\"methods\":{\"count()\":{\"notice\":\"The number of projects that have been created using this contract.\"},\"createFor(address)\":{\"notice\":\"Create a new project for the specified owner, which mints an NFT (ERC-721) into their wallet.\"},\"setTokenUriResolver(address)\":{\"notice\":\"Sets the address of the resolver used to retrieve the tokenURI of projects.\"},\"supportsInterface(bytes4)\":{\"notice\":\"Indicates whether this contract adheres to the specified interface.\"},\"tokenURI(uint256)\":{\"notice\":\"Returns the URI where the ERC-721 standard JSON of a project is hosted.\"},\"tokenUriResolver()\":{\"notice\":\"The contract resolving each project ID to its ERC721 URI.\"}},\"version\":1}},\"settings\":{\"remappings\":[\"@bananapus/=node_modules/@bananapus/\",\"@chainlink/=node_modules/@chainlink/\",\"@eth-optimism/=node_modules/@eth-optimism/\",\"@openzeppelin/=node_modules/@openzeppelin/\",\"@prb/=node_modules/@prb/\",\"@scroll-tech/=node_modules/@scroll-tech/\",\"@sphinx-labs/contracts/=lib/sphinx/packages/contracts/contracts/foundry/\",\"@uniswap/=node_modules/@uniswap/\",\"ds-test/=lib/forge-std/lib/ds-test/src/\",\"forge-std/=lib/forge-std/src/\",\"hardhat/=node_modules/hardhat/\",\"solmate/=node_modules/solmate/\",\"sphinx/=lib/sphinx/\"],\"optimizer\":{\"enabled\":true,\"runs\":200},\"metadata\":{\"bytecodeHash\":\"ipfs\"},\"compilationTarget\":{\"src/JBProjects.sol\":\"JBProjects\"},\"evmVersion\":\"paris\",\"libraries\":{}},\"sources\":{\"node_modules/@openzeppelin/contracts/access/Ownable.sol\":{\"keccak256\":\"0xff6d0bb2e285473e5311d9d3caacb525ae3538a80758c10649a4d61029b017bb\",\"urls\":[\"bzz-raw://8ed324d3920bb545059d66ab97d43e43ee85fd3bd52e03e401f020afb0b120f6\",\"dweb:/ipfs/QmfEckWLmZkDDcoWrkEvMWhms66xwTLff9DDhegYpvHo1a\"],\"license\":\"MIT\"},\"node_modules/@openzeppelin/contracts/interfaces/IERC5267.sol\":{\"keccak256\":\"0x92aa1df62dc3d33f1656d63bede0923e0df0b706ad4137c8b10b0a8fe549fd92\",\"urls\":[\"bzz-raw://c5c0f29195ad64cbe556da8e257dac8f05f78c53f90323c0d2accf8e6922d33a\",\"dweb:/ipfs/QmQ61TED8uaCZwcbh8KkgRSsCav7x7HbcGHwHts3U4DmUP\"],\"license\":\"MIT\"},\"node_modules/@openzeppelin/contracts/interfaces/draft-IERC6093.sol\":{\"keccak256\":\"0x60c65f701957fdd6faea1acb0bb45825791d473693ed9ecb34726fdfaa849dd7\",\"urls\":[\"bzz-raw://ea290300e0efc4d901244949dc4d877fd46e6c5e43dc2b26620e8efab3ab803f\",\"dweb:/ipfs/QmcLLJppxKeJWqHxE2CUkcfhuRTgHSn8J4kijcLa5MYhSt\"],\"license\":\"MIT\"},\"node_modules/@openzeppelin/contracts/token/ERC721/ERC721.sol\":{\"keccak256\":\"0x13dd061770956c8489b80cfc89d9cdfc8ea2783d953691ea037a380731d52784\",\"urls\":[\"bzz-raw://ed37f0f86e7fe31659e48c3a2a5920a92dd7f13c85cf8991fb79fe5f01e08efd\",\"dweb:/ipfs/QmUtm9bQGvjr9hHGwkPWrbgFmVqzaJcxjkaYDex2oGsonS\"],\"license\":\"MIT\"},\"node_modules/@openzeppelin/contracts/token/ERC721/IERC721.sol\":{\"keccak256\":\"0x5ef46daa3b58ef2702279d514780316efaa952915ee1aa3396f041ee2982b0b4\",\"urls\":[\"bzz-raw://2f8f2a76e23b02fc69e8cd24c3cb47da6c7af3a2d6c3a382f8ac25c6e094ade7\",\"dweb:/ipfs/QmPV4ZS4tPVv4mTCf9ejyZ1ai57EEibDRj7mN2ARDCLV5n\"],\"license\":\"MIT\"},\"node_modules/@openzeppelin/contracts/token/ERC721/IERC721Receiver.sol\":{\"keccak256\":\"0x7f7a26306c79a65fb8b3b6c757cd74660c532cd8a02e165488e30027dd34ca49\",\"urls\":[\"bzz-raw://d01e0b2b837ee2f628545e54d8715b49c7ef2befd08356c2e7f6c50dde8a1c22\",\"dweb:/ipfs/QmWBAn6y2D1xgftci97Z3qR9tQnkvwQpYwFwkTvDMvqU4i\"],\"license\":\"MIT\"},\"node_modules/@openzeppelin/contracts/token/ERC721/extensions/IERC721Metadata.sol\":{\"keccak256\":\"0x37d1aaaa5a2908a09e9dcf56a26ddf762ecf295afb5964695937344fc6802ce1\",\"urls\":[\"bzz-raw://ed0bfc1b92153c5000e50f4021367b931bbe96372ac6facec3c4961b72053d02\",\"dweb:/ipfs/Qmbwp8VDerjS5SV1quwHH1oMXxPQ93fzfLVqJ2RCqbowGE\"],\"license\":\"MIT\"},\"node_modules/@openzeppelin/contracts/utils/Context.sol\":{\"keccak256\":\"0x493033a8d1b176a037b2cc6a04dad01a5c157722049bbecf632ca876224dd4b2\",\"urls\":[\"bzz-raw://6a708e8a5bdb1011c2c381c9a5cfd8a9a956d7d0a9dc1bd8bcdaf52f76ef2f12\",\"dweb:/ipfs/Qmax9WHBnVsZP46ZxEMNRQpLQnrdE4dK8LehML1Py8FowF\"],\"license\":\"MIT\"},\"node_modules/@openzeppelin/contracts/utils/ShortStrings.sol\":{\"keccak256\":\"0x18a7171df639a934592915a520ecb97c5bbc9675a1105607aac8a94e72bf62c6\",\"urls\":[\"bzz-raw://7478e1f13da69a2867ccd883001d836b75620362e743f196376d63ed0c422a1c\",\"dweb:/ipfs/QmWywcQ9TNfwtoqAxbn25d8C5VrV12PrPS9UjtGe6pL2BA\"],\"license\":\"MIT\"},\"node_modules/@openzeppelin/contracts/utils/StorageSlot.sol\":{\"keccak256\":\"0x32ba59b4b7299237c8ba56319110989d7978a039faf754793064e967e5894418\",\"urls\":[\"bzz-raw://1ae50c8b562427df610cc4540c9bf104acca7ef8e2dcae567ae7e52272281e9c\",\"dweb:/ipfs/QmTHiadFCSJUPpRjNegc5SahmeU8bAoY8i9Aq6tVscbcKR\"],\"license\":\"MIT\"},\"node_modules/@openzeppelin/contracts/utils/Strings.sol\":{\"keccak256\":\"0x55f102ea785d8399c0e58d1108e2d289506dde18abc6db1b7f68c1f9f9bc5792\",\"urls\":[\"bzz-raw://6e52e0a7765c943ef14e5bcf11e46e6139fa044be564881378349236bf2e3453\",\"dweb:/ipfs/QmZEeeXoFPW47amyP35gfzomF9DixqqTEPwzBakv6cZw6i\"],\"license\":\"MIT\"},\"node_modules/@openzeppelin/contracts/utils/cryptography/EIP712.sol\":{\"keccak256\":\"0x999f705a027ed6dc2d4e0df2cc4a509852c6bfd11de1c8161bf88832d0503fd0\",\"urls\":[\"bzz-raw://0798def67258d9a3cc20b2b4da7ebf351a5cefe0abfdd665d2d81f8e32f89b21\",\"dweb:/ipfs/QmPEvJosnPfzHNjKvCv2D3891mA2Ww8eUwkqrxBjuYdHCt\"],\"license\":\"MIT\"},\"node_modules/@openzeppelin/contracts/utils/cryptography/MessageHashUtils.sol\":{\"keccak256\":\"0xba333517a3add42cd35fe877656fc3dfcc9de53baa4f3aabbd6d12a92e4ea435\",\"urls\":[\"bzz-raw://2ceacff44c0fdc81e48e0e0b1db87a2076d3c1fb497341de077bf1da9f6b406c\",\"dweb:/ipfs/QmRUo1muMRAewxrKQ7TkXUtknyRoR57AyEkoPpiuZQ8FzX\"],\"license\":\"MIT\"},\"node_modules/@openzeppelin/contracts/utils/introspection/ERC165.sol\":{\"keccak256\":\"0x9e8778b14317ba9e256c30a76fd6c32b960af621987f56069e1e819c77c6a133\",\"urls\":[\"bzz-raw://1777404f1dcd0fac188e55a288724ec3c67b45288e49cc64723e95e702b49ab8\",\"dweb:/ipfs/QmZFdC626GButBApwDUvvTnUzdinevC3B24d7yyh57XkiA\"],\"license\":\"MIT\"},\"node_modules/@openzeppelin/contracts/utils/introspection/IERC165.sol\":{\"keccak256\":\"0x4296879f55019b23e135000eb36896057e7101fb7fb859c5ef690cf14643757b\",\"urls\":[\"bzz-raw://87b3541437c8c443ccd36795e56a338ed12855eec17f8da624511b8d1a7e14df\",\"dweb:/ipfs/QmeJQCtZrQjtJLr6u7ZHWeH3pBnjtLWzvRrKViAi7UZqxL\"],\"license\":\"MIT\"},\"node_modules/@openzeppelin/contracts/utils/math/Math.sol\":{\"keccak256\":\"0x005ec64c6313f0555d59e278f9a7a5ab2db5bdc72a027f255a37c327af1ec02d\",\"urls\":[\"bzz-raw://4ece9f0b9c8daca08c76b6b5405a6446b6f73b3a15fab7ff56e296cbd4a2c875\",\"dweb:/ipfs/QmQyRpyPRL5SQuAgj6SHmbir3foX65FJjbVTTQrA2EFg6L\"],\"license\":\"MIT\"},\"node_modules/@openzeppelin/contracts/utils/math/SignedMath.sol\":{\"keccak256\":\"0x5f7e4076e175393767754387c962926577f1660dd9b810187b9002407656be72\",\"urls\":[\"bzz-raw://7d533a1c97cd43a57cd9c465f7ee8dd0e39ae93a8fb8ff8e5303a356b081cdcc\",\"dweb:/ipfs/QmVBEei6aTnvYNZp2CHYVNKyZS4q1KkjANfY39WVXZXVoT\"],\"license\":\"MIT\"},\"src/JBProjects.sol\":{\"keccak256\":\"0x0b5e7d20e22b862ddf35d62dc03eef832b4374b39e2e345cf772d5bd8d6dbad2\",\"urls\":[\"bzz-raw://734a8ab6f477c9c27d4f631a63b9d083b1cea292ff2faa65f024a607eba560af\",\"dweb:/ipfs/QmcHqTnfs3vHaJ4m6jkmqWZ8wx58GaYYxgKPxV46xYegkr\"],\"license\":\"MIT\"},\"src/interfaces/IJBProjects.sol\":{\"keccak256\":\"0x735c2fb8f1fa827f054ee77f7a0ae4b312656217acb75b624d2c8fd9dc40151b\",\"urls\":[\"bzz-raw://ee7fc92299a8633a80693ae63ab494dcd125f1789487a54a39dc0e5696e5996f\",\"dweb:/ipfs/QmX7YJD4pS2XhgQb7p3JbBAXynT7YGPXcZe92BiWWRrsCL\"],\"license\":\"MIT\"},\"src/interfaces/IJBTokenUriResolver.sol\":{\"keccak256\":\"0xfa5cb00dcd6085d1ef912d071fe73c63f9478a2cd0f9d8bddaf659b6af2d0967\",\"urls\":[\"bzz-raw://282e4e7c342d65f77cde0e9a08fcaf20ef5cf379c7a48b639842c0ffd0b2afb8\",\"dweb:/ipfs/QmbnN3PEQeZaXdPLT75V1J79kMg7KqSMru37RHrL3z8Yf2\"],\"license\":\"MIT\"}},\"version\":1}",
			"args": [
				"0x1081B5AA9D9d4862A3dA4d469433FB36Ed80FA2A",
				"0x1081B5AA9D9d4862A3dA4d469433FB36Ed80FA2A"
			],
			"bytecode": "0x608060405260006007553480156200001657600080fd5b5060405162001b1538038062001b15833981016040819052620000399162000733565b81604051806040016040528060118152602001704a75696365626f782050726f6a6563747360781b81525060405180604001604052806008815260200167094aa92868a849eb60c31b815250816000908162000096919062000811565b506001620000a5828262000811565b5050506001600160a01b038116620000d857604051631e4fbdf760e01b8152600060048201526024015b60405180910390fd5b620000e38162000109565b506001600160a01b038116156200010157620000ff816200015b565b505b5050620009ac565b600680546001600160a01b038381166001600160a01b0319831681179093556040519116919082907f8be0079c531659141344cd1fd0a4f28419497f9722a3daafe3b4186f6b6457e090600090a35050565b60006007600081546200016e90620008dd565b91829055509050620001818282620001ce565b6001600160a01b038216817f365b3162cd780731fc55a794b59494d472bc2af701007f581843a70673814698336040516001600160a01b03909116815260200160405180910390a3919050565b620001f0828260405180602001604052806000815250620001f460201b60201c565b5050565b62000200838362000214565b6200020f60008484846200027e565b505050565b6001600160a01b0382166200024057604051633250574960e11b815260006004820152602401620000cf565b60006200024f838383620003b5565b90506001600160a01b038116156200020f576040516339e3563760e11b815260006004820152602401620000cf565b6001600160a01b0383163b15620003af57604051630a85bd0160e11b81526001600160a01b0384169063150b7a0290620002c390339088908790879060040162000905565b6020604051808303816000875af192505050801562000301575060408051601f3d908101601f19168201909252620002fe9181019062000979565b60015b6200036f573d80801562000332576040519150601f19603f3d011682016040523d82523d6000602084013e62000337565b606091505b5080516000036200036757604051633250574960e11b81526001600160a01b0385166004820152602401620000cf565b805181602001fd5b6001600160e01b03198116630a85bd0160e11b14620003ad57604051633250574960e11b81526001600160a01b0385166004820152602401620000cf565b505b50505050565b6000828152600260205260408120546001600160a01b0390811690831615620003e557620003e5818486620004b4565b6001600160a01b0381161562000425576200040460008581806200051e565b6001600160a01b038116600090815260036020526040902080546000190190555b6001600160a01b0385161562000455576001600160a01b0385166000908152600360205260409020805460010190555b60008481526002602052604080822080546001600160a01b0319166001600160a01b0389811691821790925591518793918516917fddf252ad1be2c89b69c2b068fc378daa952ba7f163c4a11628f55a4df523b3ef91a4949350505050565b620004c18383836200064c565b6200020f576001600160a01b038316620004f257604051637e27328960e01b815260048101829052602401620000cf565b60405163177e802f60e01b81526001600160a01b038316600482015260248101829052604401620000cf565b80806200053357506001600160a01b03821615155b156200061c5760006200054684620006d5565b90506001600160a01b03831615801590620005735750826001600160a01b0316816001600160a01b031614155b8015620005a657506001600160a01b0380821660009081526005602090815260408083209387168352929052205460ff16155b15620005d15760405163a9fbf51f60e01b81526001600160a01b0384166004820152602401620000cf565b81156200061a5783856001600160a01b0316826001600160a01b03167f8c5be1e5ebec7d5bd14f71427d1e84f3dd0314c0f7b2291e5b200ac8c7c3b92560405160405180910390a45b505b5050600090815260046020526040902080546001600160a01b0319166001600160a01b0392909216919091179055565b60006001600160a01b03831615801590620006cd5750826001600160a01b0316846001600160a01b03161480620006a857506001600160a01b0380851660009081526005602090815260408083209387168352929052205460ff165b80620006cd57506000828152600460205260409020546001600160a01b038481169116145b949350505050565b6000818152600260205260408120546001600160a01b0316806200071057604051637e27328960e01b815260048101849052602401620000cf565b92915050565b80516001600160a01b03811681146200072e57600080fd5b919050565b600080604083850312156200074757600080fd5b620007528362000716565b9150620007626020840162000716565b90509250929050565b634e487b7160e01b600052604160045260246000fd5b600181811c908216806200079657607f821691505b602082108103620007b757634e487b7160e01b600052602260045260246000fd5b50919050565b601f8211156200020f576000816000526020600020601f850160051c81016020861015620007e85750805b601f850160051c820191505b818110156200080957828155600101620007f4565b505050505050565b81516001600160401b038111156200082d576200082d6200076b565b62000845816200083e845462000781565b84620007bd565b602080601f8311600181146200087d5760008415620008645750858301515b600019600386901b1c1916600185901b17855562000809565b600085815260208120601f198616915b82811015620008ae578886015182559484019460019091019084016200088d565b5085821015620008cd5787850151600019600388901b60f8161c191681555b5050505050600190811b01905550565b600060018201620008fe57634e487b7160e01b600052601160045260246000fd5b5060010190565b600060018060a01b03808716835260208187166020850152856040850152608060608501528451915081608085015260005b82811015620009555785810182015185820160a00152810162000937565b5050600060a0828501015260a0601f19601f83011684010191505095945050505050565b6000602082840312156200098c57600080fd5b81516001600160e01b031981168114620009a557600080fd5b9392505050565b61115980620009bc6000396000f3fe608060405234801561001057600080fd5b506004361061012c5760003560e01c8063715018a6116100ad578063c071588811610071578063c07158881461026b578063c87b56dd1461027e578063e131fc0c14610291578063e985e9c5146102a4578063f2fde38b146102b757600080fd5b8063715018a6146102245780638da5cb5b1461022c57806395d89b411461023d578063a22cb46514610245578063b88d4fde1461025857600080fd5b806323b872dd116100f457806323b872dd146101c55780632407497e146101d857806342842e0e146101eb5780636352211e146101fe57806370a082311461021157600080fd5b806301ffc9a71461013157806306661abd1461015957806306fdde0314610170578063081812fc14610185578063095ea7b3146101b0575b600080fd5b61014461013f366004610d2f565b6102ca565b60405190151581526020015b60405180910390f35b61016260075481565b604051908152602001610150565b6101786102f5565b6040516101509190610d9c565b610198610193366004610daf565b610387565b6040516001600160a01b039091168152602001610150565b6101c36101be366004610ddd565b6103b0565b005b6101c36101d3366004610e09565b6103bf565b6101c36101e6366004610e4a565b61044f565b6101c36101f9366004610e09565b6104ac565b61019861020c366004610daf565b6104cc565b61016261021f366004610e4a565b6104d7565b6101c361051f565b6006546001600160a01b0316610198565b610178610533565b6101c3610253366004610e67565b610542565b6101c3610266366004610f14565b61054d565b610162610279366004610e4a565b610564565b61017861028c366004610daf565b6105d3565b600854610198906001600160a01b031681565b6101446102b2366004610fc3565b610671565b6101c36102c5366004610e4a565b61069f565b60006001600160e01b03198216630321f74760e01b14806102ef57506102ef826106dd565b92915050565b60606000805461030490610ff1565b80601f016020809104026020016040519081016040528092919081815260200182805461033090610ff1565b801561037d5780601f106103525761010080835404028352916020019161037d565b820191906000526020600020905b81548152906001019060200180831161036057829003601f168201915b5050505050905090565b60006103928261072d565b506000828152600460205260409020546001600160a01b03166102ef565b6103bb828233610766565b5050565b6001600160a01b0382166103ee57604051633250574960e11b8152600060048201526024015b60405180910390fd5b60006103fb838333610773565b9050836001600160a01b0316816001600160a01b031614610449576040516364283d7b60e01b81526001600160a01b03808616600483015260248201849052821660448201526064016103e5565b50505050565b61045761086c565b600880546001600160a01b0383166001600160a01b031990911681179091556040805133815290517fe7784d93cfbfa4408e19577e6cc0436f4dbb51214b70e100905dfce9def88c169181900360200190a250565b6104c78383836040518060200160405280600081525061054d565b505050565b60006102ef8261072d565b60006001600160a01b038216610503576040516322718ad960e21b8152600060048201526024016103e5565b506001600160a01b031660009081526003602052604090205490565b61052761086c565b6105316000610899565b565b60606001805461030490610ff1565b6103bb3383836108eb565b6105588484846103bf565b6104498484848461098a565b60006007600081546105759061102b565b918290555090506105868282610ab3565b6001600160a01b038216817f365b3162cd780731fc55a794b59494d472bc2af701007f581843a70673814698336040516001600160a01b03909116815260200160405180910390a3919050565b6008546060906001600160a01b0316806105fd575050604080516020810190915260008152919050565b604051636d02a25560e11b8152600481018490526001600160a01b0382169063da0544aa90602401600060405180830381865afa158015610642573d6000803e3d6000fd5b505050506040513d6000823e601f3d908101601f1916820160405261066a9190810190611052565b9392505050565b6001600160a01b03918216600090815260056020908152604080832093909416825291909152205460ff1690565b6106a761086c565b6001600160a01b0381166106d157604051631e4fbdf760e01b8152600060048201526024016103e5565b6106da81610899565b50565b60006001600160e01b031982166380ac58cd60e01b148061070e57506001600160e01b03198216635b5e139f60e01b145b806102ef57506301ffc9a760e01b6001600160e01b03198316146102ef565b6000818152600260205260408120546001600160a01b0316806102ef57604051637e27328960e01b8152600481018490526024016103e5565b6104c78383836001610acd565b6000828152600260205260408120546001600160a01b03908116908316156107a0576107a0818486610bd3565b6001600160a01b038116156107de576107bd600085600080610acd565b6001600160a01b038116600090815260036020526040902080546000190190555b6001600160a01b0385161561080d576001600160a01b0385166000908152600360205260409020805460010190555b60008481526002602052604080822080546001600160a01b0319166001600160a01b0389811691821790925591518793918516917fddf252ad1be2c89b69c2b068fc378daa952ba7f163c4a11628f55a4df523b3ef91a4949350505050565b6006546001600160a01b031633146105315760405163118cdaa760e01b81523360048201526024016103e5565b600680546001600160a01b038381166001600160a01b0319831681179093556040519116919082907f8be0079c531659141344cd1fd0a4f28419497f9722a3daafe3b4186f6b6457e090600090a35050565b6001600160a01b03821661091d57604051630b61174360e31b81526001600160a01b03831660048201526024016103e5565b6001600160a01b03838116600081815260056020908152604080832094871680845294825291829020805460ff191686151590811790915591519182527f17307eab39ab6107e8899845ad3d59bd9653f200f220920489ca2b5937696c31910160405180910390a3505050565b6001600160a01b0383163b1561044957604051630a85bd0160e11b81526001600160a01b0384169063150b7a02906109cc9033908890879087906004016110c9565b6020604051808303816000875af1925050508015610a07575060408051601f3d908101601f19168201909252610a0491810190611106565b60015b610a70573d808015610a35576040519150601f19603f3d011682016040523d82523d6000602084013e610a3a565b606091505b508051600003610a6857604051633250574960e11b81526001600160a01b03851660048201526024016103e5565b805181602001fd5b6001600160e01b03198116630a85bd0160e11b14610aac57604051633250574960e11b81526001600160a01b03851660048201526024016103e5565b5050505050565b6103bb828260405180602001604052806000815250610c37565b8080610ae157506001600160a01b03821615155b15610ba3576000610af18461072d565b90506001600160a01b03831615801590610b1d5750826001600160a01b0316816001600160a01b031614155b8015610b305750610b2e8184610671565b155b15610b595760405163a9fbf51f60e01b81526001600160a01b03841660048201526024016103e5565b8115610ba15783856001600160a01b0316826001600160a01b03167f8c5be1e5ebec7d5bd14f71427d1e84f3dd0314c0f7b2291e5b200ac8c7c3b92560405160405180910390a45b505b5050600090815260046020526040902080546001600160a01b0319166001600160a01b0392909216919091179055565b610bde838383610c4e565b6104c7576001600160a01b038316610c0c57604051637e27328960e01b8152600481018290526024016103e5565b60405163177e802f60e01b81526001600160a01b0383166004820152602481018290526044016103e5565b610c418383610cb4565b6104c7600084848461098a565b60006001600160a01b03831615801590610cac5750826001600160a01b0316846001600160a01b03161480610c885750610c888484610671565b80610cac57506000828152600460205260409020546001600160a01b038481169116145b949350505050565b6001600160a01b038216610cde57604051633250574960e11b8152600060048201526024016103e5565b6000610cec83836000610773565b90506001600160a01b038116156104c7576040516339e3563760e11b8152600060048201526024016103e5565b6001600160e01b0319811681146106da57600080fd5b600060208284031215610d4157600080fd5b813561066a81610d19565b60005b83811015610d67578181015183820152602001610d4f565b50506000910152565b60008151808452610d88816020860160208601610d4c565b601f01601f19169290920160200192915050565b60208152600061066a6020830184610d70565b600060208284031215610dc157600080fd5b5035919050565b6001600160a01b03811681146106da57600080fd5b60008060408385031215610df057600080fd5b8235610dfb81610dc8565b946020939093013593505050565b600080600060608486031215610e1e57600080fd5b8335610e2981610dc8565b92506020840135610e3981610dc8565b929592945050506040919091013590565b600060208284031215610e5c57600080fd5b813561066a81610dc8565b60008060408385031215610e7a57600080fd5b8235610e8581610dc8565b915060208301358015158114610e9a57600080fd5b809150509250929050565b634e487b7160e01b600052604160045260246000fd5b604051601f8201601f1916810167ffffffffffffffff81118282101715610ee457610ee4610ea5565b604052919050565b600067ffffffffffffffff821115610f0657610f06610ea5565b50601f01601f191660200190565b60008060008060808587031215610f2a57600080fd5b8435610f3581610dc8565b93506020850135610f4581610dc8565b925060408501359150606085013567ffffffffffffffff811115610f6857600080fd5b8501601f81018713610f7957600080fd5b8035610f8c610f8782610eec565b610ebb565b818152886020838501011115610fa157600080fd5b8160208401602083013760006020838301015280935050505092959194509250565b60008060408385031215610fd657600080fd5b8235610fe181610dc8565b91506020830135610e9a81610dc8565b600181811c9082168061100557607f821691505b60208210810361102557634e487b7160e01b600052602260045260246000fd5b50919050565b60006001820161104b57634e487b7160e01b600052601160045260246000fd5b5060010190565b60006020828403121561106457600080fd5b815167ffffffffffffffff81111561107b57600080fd5b8201601f8101841361108c57600080fd5b805161109a610f8782610eec565b8181528560208385010111156110af57600080fd5b6110c0826020830160208601610d4c565b95945050505050565b6001600160a01b03858116825284166020820152604081018390526080606082018190526000906110fc90830184610d70565b9695505050505050565b60006020828403121561111857600080fd5b815161066a81610d1956fea26469706673582212203e83cf26c373cd4957825511c27ef6991daa1da003688f7fabe9731b27c2fa9464736f6c63430008170033",
			"deployedBytecode": "0x608060405234801561001057600080fd5b506004361061012c5760003560e01c8063715018a6116100ad578063c071588811610071578063c07158881461026b578063c87b56dd1461027e578063e131fc0c14610291578063e985e9c5146102a4578063f2fde38b146102b757600080fd5b8063715018a6146102245780638da5cb5b1461022c57806395d89b411461023d578063a22cb46514610245578063b88d4fde1461025857600080fd5b806323b872dd116100f457806323b872dd146101c55780632407497e146101d857806342842e0e146101eb5780636352211e146101fe57806370a082311461021157600080fd5b806301ffc9a71461013157806306661abd1461015957806306fdde0314610170578063081812fc14610185578063095ea7b3146101b0575b600080fd5b61014461013f366004610d2f565b6102ca565b60405190151581526020015b60405180910390f35b61016260075481565b604051908152602001610150565b6101786102f5565b6040516101509190610d9c565b610198610193366004610daf565b610387565b6040516001600160a01b039091168152602001610150565b6101c36101be366004610ddd565b6103b0565b005b6101c36101d3366004610e09565b6103bf565b6101c36101e6366004610e4a565b61044f565b6101c36101f9366004610e09565b6104ac565b61019861020c366004610daf565b6104cc565b61016261021f366004610e4a565b6104d7565b6101c361051f565b6006546001600160a01b0316610198565b610178610533565b6101c3610253366004610e67565b610542565b6101c3610266366004610f14565b61054d565b610162610279366004610e4a565b610564565b61017861028c366004610daf565b6105d3565b600854610198906001600160a01b031681565b6101446102b2366004610fc3565b610671565b6101c36102c5366004610e4a565b61069f565b60006001600160e01b03198216630321f74760e01b14806102ef57506102ef826106dd565b92915050565b60606000805461030490610ff1565b80601f016020809104026020016040519081016040528092919081815260200182805461033090610ff1565b801561037d5780601f106103525761010080835404028352916020019161037d565b820191906000526020600020905b81548152906001019060200180831161036057829003601f168201915b5050505050905090565b60006103928261072d565b506000828152600460205260409020546001600160a01b03166102ef565b6103bb828233610766565b5050565b6001600160a01b0382166103ee57604051633250574960e11b8152600060048201526024015b60405180910390fd5b60006103fb838333610773565b9050836001600160a01b0316816001600160a01b031614610449576040516364283d7b60e01b81526001600160a01b03808616600483015260248201849052821660448201526064016103e5565b50505050565b61045761086c565b600880546001600160a01b0383166001600160a01b031990911681179091556040805133815290517fe7784d93cfbfa4408e19577e6cc0436f4dbb51214b70e100905dfce9def88c169181900360200190a250565b6104c78383836040518060200160405280600081525061054d565b505050565b60006102ef8261072d565b60006001600160a01b038216610503576040516322718ad960e21b8152600060048201526024016103e5565b506001600160a01b031660009081526003602052604090205490565b61052761086c565b6105316000610899565b565b60606001805461030490610ff1565b6103bb3383836108eb565b6105588484846103bf565b6104498484848461098a565b60006007600081546105759061102b565b918290555090506105868282610ab3565b6001600160a01b038216817f365b3162cd780731fc55a794b59494d472bc2af701007f581843a70673814698336040516001600160a01b03909116815260200160405180910390a3919050565b6008546060906001600160a01b0316806105fd575050604080516020810190915260008152919050565b604051636d02a25560e11b8152600481018490526001600160a01b0382169063da0544aa90602401600060405180830381865afa158015610642573d6000803e3d6000fd5b505050506040513d6000823e601f3d908101601f1916820160405261066a9190810190611052565b9392505050565b6001600160a01b03918216600090815260056020908152604080832093909416825291909152205460ff1690565b6106a761086c565b6001600160a01b0381166106d157604051631e4fbdf760e01b8152600060048201526024016103e5565b6106da81610899565b50565b60006001600160e01b031982166380ac58cd60e01b148061070e57506001600160e01b03198216635b5e139f60e01b145b806102ef57506301ffc9a760e01b6001600160e01b03198316146102ef565b6000818152600260205260408120546001600160a01b0316806102ef57604051637e27328960e01b8152600481018490526024016103e5565b6104c78383836001610acd565b6000828152600260205260408120546001600160a01b03908116908316156107a0576107a0818486610bd3565b6001600160a01b038116156107de576107bd600085600080610acd565b6001600160a01b038116600090815260036020526040902080546000190190555b6001600160a01b0385161561080d576001600160a01b0385166000908152600360205260409020805460010190555b60008481526002602052604080822080546001600160a01b0319166001600160a01b0389811691821790925591518793918516917fddf252ad1be2c89b69c2b068fc378daa952ba7f163c4a11628f55a4df523b3ef91a4949350505050565b6006546001600160a01b031633146105315760405163118cdaa760e01b81523360048201526024016103e5565b600680546001600160a01b038381166001600160a01b0319831681179093556040519116919082907f8be0079c531659141344cd1fd0a4f28419497f9722a3daafe3b4186f6b6457e090600090a35050565b6001600160a01b03821661091d57604051630b61174360e31b81526001600160a01b03831660048201526024016103e5565b6001600160a01b03838116600081815260056020908152604080832094871680845294825291829020805460ff191686151590811790915591519182527f17307eab39ab6107e8899845ad3d59bd9653f200f220920489ca2b5937696c31910160405180910390a3505050565b6001600160a01b0383163b1561044957604051630a85bd0160e11b81526001600160a01b0384169063150b7a02906109cc9033908890879087906004016110c9565b6020604051808303816000875af1925050508015610a07575060408051601f3d908101601f19168201909252610a0491810190611106565b60015b610a70573d808015610a35576040519150601f19603f3d011682016040523d82523d6000602084013e610a3a565b606091505b508051600003610a6857604051633250574960e11b81526001600160a01b03851660048201526024016103e5565b805181602001fd5b6001600160e01b03198116630a85bd0160e11b14610aac57604051633250574960e11b81526001600160a01b03851660048201526024016103e5565b5050505050565b6103bb828260405180602001604052806000815250610c37565b8080610ae157506001600160a01b03821615155b15610ba3576000610af18461072d565b90506001600160a01b03831615801590610b1d5750826001600160a01b0316816001600160a01b031614155b8015610b305750610b2e8184610671565b155b15610b595760405163a9fbf51f60e01b81526001600160a01b03841660048201526024016103e5565b8115610ba15783856001600160a01b0316826001600160a01b03167f8c5be1e5ebec7d5bd14f71427d1e84f3dd0314c0f7b2291e5b200ac8c7c3b92560405160405180910390a45b505b5050600090815260046020526040902080546001600160a01b0319166001600160a01b0392909216919091179055565b610bde838383610c4e565b6104c7576001600160a01b038316610c0c57604051637e27328960e01b8152600481018290526024016103e5565b60405163177e802f60e01b81526001600160a01b0383166004820152602481018290526044016103e5565b610c418383610cb4565b6104c7600084848461098a565b60006001600160a01b03831615801590610cac5750826001600160a01b0316846001600160a01b03161480610c885750610c888484610671565b80610cac57506000828152600460205260409020546001600160a01b038481169116145b949350505050565b6001600160a01b038216610cde57604051633250574960e11b8152600060048201526024016103e5565b6000610cec83836000610773565b90506001600160a01b038116156104c7576040516339e3563760e11b8152600060048201526024016103e5565b6001600160e01b0319811681146106da57600080fd5b600060208284031215610d4157600080fd5b813561066a81610d19565b60005b83811015610d67578181015183820152602001610d4f565b50506000910152565b60008151808452610d88816020860160208601610d4c565b601f01601f19169290920160200192915050565b60208152600061066a6020830184610d70565b600060208284031215610dc157600080fd5b5035919050565b6001600160a01b03811681146106da57600080fd5b60008060408385031215610df057600080fd5b8235610dfb81610dc8565b946020939093013593505050565b600080600060608486031215610e1e57600080fd5b8335610e2981610dc8565b92506020840135610e3981610dc8565b929592945050506040919091013590565b600060208284031215610e5c57600080fd5b813561066a81610dc8565b60008060408385031215610e7a57600080fd5b8235610e8581610dc8565b915060208301358015158114610e9a57600080fd5b809150509250929050565b634e487b7160e01b600052604160045260246000fd5b604051601f8201601f1916810167ffffffffffffffff81118282101715610ee457610ee4610ea5565b604052919050565b600067ffffffffffffffff821115610f0657610f06610ea5565b50601f01601f191660200190565b60008060008060808587031215610f2a57600080fd5b8435610f3581610dc8565b93506020850135610f4581610dc8565b925060408501359150606085013567ffffffffffffffff811115610f6857600080fd5b8501601f81018713610f7957600080fd5b8035610f8c610f8782610eec565b610ebb565b818152886020838501011115610fa157600080fd5b8160208401602083013760006020838301015280935050505092959194509250565b60008060408385031215610fd657600080fd5b8235610fe181610dc8565b91506020830135610e9a81610dc8565b600181811c9082168061100557607f821691505b60208210810361102557634e487b7160e01b600052602260045260246000fd5b50919050565b60006001820161104b57634e487b7160e01b600052601160045260246000fd5b5060010190565b60006020828403121561106457600080fd5b815167ffffffffffffffff81111561107b57600080fd5b8201601f8101841361108c57600080fd5b805161109a610f8782610eec565b8181528560208385010111156110af57600080fd5b6110c0826020830160208601610d4c565b95945050505050565b6001600160a01b03858116825284166020820152604081018390526080606082018190526000906110fc90830184610d70565b9695505050505050565b60006020828403121561111857600080fd5b815161066a81610d1956fea26469706673582212203e83cf26c373cd4957825511c27ef6991daa1da003688f7fabe9731b27c2fa9464736f6c63430008170033",
			"devdoc": {
				"kind": "dev",
				"methods": {
					"approve(address,uint256)": {
						"details": "See {IERC721-approve}."
					},
					"balanceOf(address)": {
						"details": "See {IERC721-balanceOf}."
					},
					"constructor": {
						"params": {
							"feeProjectOwner": "The address that will receive the fee-project. If `address(0)` the fee-project will not be minted.",
							"owner": "The owner of the contract who can set metadata."
						}
					},
					"createFor(address)": {
						"details": "Anyone can create a project on an owner's behalf.",
						"params": {
							"owner": "The address that will be the owner of the project."
						},
						"returns": {
							"projectId": "The token ID of the newly created project."
						}
					},
					"getApproved(uint256)": {
						"details": "See {IERC721-getApproved}."
					},
					"isApprovedForAll(address,address)": {
						"details": "See {IERC721-isApprovedForAll}."
					},
					"name()": {
						"details": "See {IERC721Metadata-name}."
					},
					"owner()": {
						"details": "Returns the address of the current owner."
					},
					"ownerOf(uint256)": {
						"details": "See {IERC721-ownerOf}."
					},
					"renounceOwnership()": {
						"details": "Leaves the contract without owner. It will not be possible to call `onlyOwner` functions. Can only be called by the current owner. NOTE: Renouncing ownership will leave the contract without an owner, thereby disabling any functionality that is only available to the owner."
					},
					"safeTransferFrom(address,address,uint256)": {
						"details": "See {IERC721-safeTransferFrom}."
					},
					"safeTransferFrom(address,address,uint256,bytes)": {
						"details": "See {IERC721-safeTransferFrom}."
					},
					"setApprovalForAll(address,bool)": {
						"details": "See {IERC721-setApprovalForAll}."
					},
					"setTokenUriResolver(address)": {
						"params": {
							"newResolver": "The address of the new resolver."
						}
					},
					"supportsInterface(bytes4)": {
						"details": "See {IERC165-supportsInterface}.",
						"params": {
							"interfaceId": "The ID of the interface to check for adherence to."
						},
						"returns": {
							"_0": "A flag indicating if the provided interface ID is supported."
						}
					},
					"symbol()": {
						"details": "See {IERC721Metadata-symbol}."
					},
					"tokenURI(uint256)": {
						"params": {
							"projectId": "The ID of the project to get a URI of."
						},
						"returns": {
							"_0": "The token URI to use for the provided `projectId`."
						}
					},
					"transferFrom(address,address,uint256)": {
						"details": "See {IERC721-transferFrom}."
					},
					"transferOwnership(address)": {
						"details": "Transfers ownership of the contract to a new account (`newOwner`). Can only be called by the current owner."
					}
				},
				"version": 1
			},
			"userdoc": {
				"kind": "user",
				"methods": {
					"count()": {
						"notice": "The number of projects that have been created using this contract."
					},
					"createFor(address)": {
						"notice": "Create a new project for the specified owner, which mints an NFT (ERC-721) into their wallet."
					},
					"setTokenUriResolver(address)": {
						"notice": "Sets the address of the resolver used to retrieve the tokenURI of projects."
					},
					"supportsInterface(bytes4)": {
						"notice": "Indicates whether this contract adheres to the specified interface."
					},
					"tokenURI(uint256)": {
						"notice": "Returns the URI where the ERC-721 standard JSON of a project is hosted."
					},
					"tokenUriResolver()": {
						"notice": "The contract resolving each project ID to its ERC721 URI."
					}
				},
				"version": 1
			},
			"gitCommit": "bc6005ccb14408c1b996cf6facda0642da82e682",
			"sourceName": "src/JBProjects.sol",
			"chainId": "11155111",
			"linkReferences": {},
			"deployedLinkReferences": {}
		}
	]
}