{
	"_format": "sphinx-sol-ct-artifact-1",
	"merkleRoot": "0x9e0e602421b8af18b231044c4a9fcd3210b88a991260bd2d68511776273418b9",
	"contractName": "JBRulesets",
	"address": "0xDef756Ef46098Cb2109128D3458e01bcf58411D1",
	"abi": [
		{
			"type": "constructor",
			"inputs": [
				{
					"name": "directory",
					"type": "address",
					"internalType": "contract IJBDirectory"
				}
			],
			"stateMutability": "nonpayable"
		},
		{
			"type": "function",
			"name": "DIRECTORY",
			"inputs": [],
			"outputs": [
				{
					"name": "",
					"type": "address",
					"internalType": "contract IJBDirectory"
				}
			],
			"stateMutability": "view"
		},
		{
			"type": "function",
			"name": "currentApprovalStatusForLatestRulesetOf",
			"inputs": [
				{
					"name": "projectId",
					"type": "uint256",
					"internalType": "uint256"
				}
			],
			"outputs": [
				{
					"name": "",
					"type": "uint8",
					"internalType": "enum JBApprovalStatus"
				}
			],
			"stateMutability": "view"
		},
		{
			"type": "function",
			"name": "currentOf",
			"inputs": [
				{
					"name": "projectId",
					"type": "uint256",
					"internalType": "uint256"
				}
			],
			"outputs": [
				{
					"name": "ruleset",
					"type": "tuple",
					"internalType": "struct JBRuleset",
					"components": [
						{
							"name": "cycleNumber",
							"type": "uint256",
							"internalType": "uint256"
						},
						{
							"name": "id",
							"type": "uint256",
							"internalType": "uint256"
						},
						{
							"name": "basedOnId",
							"type": "uint256",
							"internalType": "uint256"
						},
						{
							"name": "start",
							"type": "uint256",
							"internalType": "uint256"
						},
						{
							"name": "duration",
							"type": "uint256",
							"internalType": "uint256"
						},
						{
							"name": "weight",
							"type": "uint256",
							"internalType": "uint256"
						},
						{
							"name": "decayRate",
							"type": "uint256",
							"internalType": "uint256"
						},
						{
							"name": "approvalHook",
							"type": "address",
							"internalType": "contract IJBRulesetApprovalHook"
						},
						{
							"name": "metadata",
							"type": "uint256",
							"internalType": "uint256"
						}
					]
				}
			],
			"stateMutability": "view"
		},
		{
			"type": "function",
			"name": "getRulesetOf",
			"inputs": [
				{
					"name": "projectId",
					"type": "uint256",
					"internalType": "uint256"
				},
				{
					"name": "rulesetId",
					"type": "uint256",
					"internalType": "uint256"
				}
			],
			"outputs": [
				{
					"name": "ruleset",
					"type": "tuple",
					"internalType": "struct JBRuleset",
					"components": [
						{
							"name": "cycleNumber",
							"type": "uint256",
							"internalType": "uint256"
						},
						{
							"name": "id",
							"type": "uint256",
							"internalType": "uint256"
						},
						{
							"name": "basedOnId",
							"type": "uint256",
							"internalType": "uint256"
						},
						{
							"name": "start",
							"type": "uint256",
							"internalType": "uint256"
						},
						{
							"name": "duration",
							"type": "uint256",
							"internalType": "uint256"
						},
						{
							"name": "weight",
							"type": "uint256",
							"internalType": "uint256"
						},
						{
							"name": "decayRate",
							"type": "uint256",
							"internalType": "uint256"
						},
						{
							"name": "approvalHook",
							"type": "address",
							"internalType": "contract IJBRulesetApprovalHook"
						},
						{
							"name": "metadata",
							"type": "uint256",
							"internalType": "uint256"
						}
					]
				}
			],
			"stateMutability": "view"
		},
		{
			"type": "function",
			"name": "latestQueuedRulesetOf",
			"inputs": [
				{
					"name": "projectId",
					"type": "uint256",
					"internalType": "uint256"
				}
			],
			"outputs": [
				{
					"name": "ruleset",
					"type": "tuple",
					"internalType": "struct JBRuleset",
					"components": [
						{
							"name": "cycleNumber",
							"type": "uint256",
							"internalType": "uint256"
						},
						{
							"name": "id",
							"type": "uint256",
							"internalType": "uint256"
						},
						{
							"name": "basedOnId",
							"type": "uint256",
							"internalType": "uint256"
						},
						{
							"name": "start",
							"type": "uint256",
							"internalType": "uint256"
						},
						{
							"name": "duration",
							"type": "uint256",
							"internalType": "uint256"
						},
						{
							"name": "weight",
							"type": "uint256",
							"internalType": "uint256"
						},
						{
							"name": "decayRate",
							"type": "uint256",
							"internalType": "uint256"
						},
						{
							"name": "approvalHook",
							"type": "address",
							"internalType": "contract IJBRulesetApprovalHook"
						},
						{
							"name": "metadata",
							"type": "uint256",
							"internalType": "uint256"
						}
					]
				},
				{
					"name": "approvalStatus",
					"type": "uint8",
					"internalType": "enum JBApprovalStatus"
				}
			],
			"stateMutability": "view"
		},
		{
			"type": "function",
			"name": "latestRulesetIdOf",
			"inputs": [
				{
					"name": "projectId",
					"type": "uint256",
					"internalType": "uint256"
				}
			],
			"outputs": [
				{
					"name": "",
					"type": "uint256",
					"internalType": "uint256"
				}
			],
			"stateMutability": "view"
		},
		{
			"type": "function",
			"name": "queueFor",
			"inputs": [
				{
					"name": "projectId",
					"type": "uint256",
					"internalType": "uint256"
				},
				{
					"name": "duration",
					"type": "uint256",
					"internalType": "uint256"
				},
				{
					"name": "weight",
					"type": "uint256",
					"internalType": "uint256"
				},
				{
					"name": "decayRate",
					"type": "uint256",
					"internalType": "uint256"
				},
				{
					"name": "approvalHook",
					"type": "address",
					"internalType": "contract IJBRulesetApprovalHook"
				},
				{
					"name": "metadata",
					"type": "uint256",
					"internalType": "uint256"
				},
				{
					"name": "mustStartAtOrAfter",
					"type": "uint256",
					"internalType": "uint256"
				}
			],
			"outputs": [
				{
					"name": "",
					"type": "tuple",
					"internalType": "struct JBRuleset",
					"components": [
						{
							"name": "cycleNumber",
							"type": "uint256",
							"internalType": "uint256"
						},
						{
							"name": "id",
							"type": "uint256",
							"internalType": "uint256"
						},
						{
							"name": "basedOnId",
							"type": "uint256",
							"internalType": "uint256"
						},
						{
							"name": "start",
							"type": "uint256",
							"internalType": "uint256"
						},
						{
							"name": "duration",
							"type": "uint256",
							"internalType": "uint256"
						},
						{
							"name": "weight",
							"type": "uint256",
							"internalType": "uint256"
						},
						{
							"name": "decayRate",
							"type": "uint256",
							"internalType": "uint256"
						},
						{
							"name": "approvalHook",
							"type": "address",
							"internalType": "contract IJBRulesetApprovalHook"
						},
						{
							"name": "metadata",
							"type": "uint256",
							"internalType": "uint256"
						}
					]
				}
			],
			"stateMutability": "nonpayable"
		},
		{
			"type": "function",
			"name": "rulesetsOf",
			"inputs": [
				{
					"name": "projectId",
					"type": "uint256",
					"internalType": "uint256"
				},
				{
					"name": "startingId",
					"type": "uint256",
					"internalType": "uint256"
				},
				{
					"name": "size",
					"type": "uint256",
					"internalType": "uint256"
				}
			],
			"outputs": [
				{
					"name": "rulesets",
					"type": "tuple[]",
					"internalType": "struct JBRuleset[]",
					"components": [
						{
							"name": "cycleNumber",
							"type": "uint256",
							"internalType": "uint256"
						},
						{
							"name": "id",
							"type": "uint256",
							"internalType": "uint256"
						},
						{
							"name": "basedOnId",
							"type": "uint256",
							"internalType": "uint256"
						},
						{
							"name": "start",
							"type": "uint256",
							"internalType": "uint256"
						},
						{
							"name": "duration",
							"type": "uint256",
							"internalType": "uint256"
						},
						{
							"name": "weight",
							"type": "uint256",
							"internalType": "uint256"
						},
						{
							"name": "decayRate",
							"type": "uint256",
							"internalType": "uint256"
						},
						{
							"name": "approvalHook",
							"type": "address",
							"internalType": "contract IJBRulesetApprovalHook"
						},
						{
							"name": "metadata",
							"type": "uint256",
							"internalType": "uint256"
						}
					]
				}
			],
			"stateMutability": "view"
		},
		{
			"type": "function",
			"name": "upcomingRulesetOf",
			"inputs": [
				{
					"name": "projectId",
					"type": "uint256",
					"internalType": "uint256"
				}
			],
			"outputs": [
				{
					"name": "ruleset",
					"type": "tuple",
					"internalType": "struct JBRuleset",
					"components": [
						{
							"name": "cycleNumber",
							"type": "uint256",
							"internalType": "uint256"
						},
						{
							"name": "id",
							"type": "uint256",
							"internalType": "uint256"
						},
						{
							"name": "basedOnId",
							"type": "uint256",
							"internalType": "uint256"
						},
						{
							"name": "start",
							"type": "uint256",
							"internalType": "uint256"
						},
						{
							"name": "duration",
							"type": "uint256",
							"internalType": "uint256"
						},
						{
							"name": "weight",
							"type": "uint256",
							"internalType": "uint256"
						},
						{
							"name": "decayRate",
							"type": "uint256",
							"internalType": "uint256"
						},
						{
							"name": "approvalHook",
							"type": "address",
							"internalType": "contract IJBRulesetApprovalHook"
						},
						{
							"name": "metadata",
							"type": "uint256",
							"internalType": "uint256"
						}
					]
				}
			],
			"stateMutability": "view"
		},
		{
			"type": "function",
			"name": "updateRulesetWeightCache",
			"inputs": [
				{
					"name": "projectId",
					"type": "uint256",
					"internalType": "uint256"
				}
			],
			"outputs": [],
			"stateMutability": "nonpayable"
		},
		{
			"type": "event",
			"name": "RulesetInitialized",
			"inputs": [
				{
					"name": "rulesetId",
					"type": "uint256",
					"indexed": true,
					"internalType": "uint256"
				},
				{
					"name": "projectId",
					"type": "uint256",
					"indexed": true,
					"internalType": "uint256"
				},
				{
					"name": "basedOnId",
					"type": "uint256",
					"indexed": true,
					"internalType": "uint256"
				}
			],
			"anonymous": false
		},
		{
			"type": "event",
			"name": "RulesetQueued",
			"inputs": [
				{
					"name": "rulesetId",
					"type": "uint256",
					"indexed": true,
					"internalType": "uint256"
				},
				{
					"name": "projectId",
					"type": "uint256",
					"indexed": true,
					"internalType": "uint256"
				},
				{
					"name": "duration",
					"type": "uint256",
					"indexed": false,
					"internalType": "uint256"
				},
				{
					"name": "weight",
					"type": "uint256",
					"indexed": false,
					"internalType": "uint256"
				},
				{
					"name": "decayRate",
					"type": "uint256",
					"indexed": false,
					"internalType": "uint256"
				},
				{
					"name": "hook",
					"type": "address",
					"indexed": false,
					"internalType": "contract IJBRulesetApprovalHook"
				},
				{
					"name": "metadata",
					"type": "uint256",
					"indexed": false,
					"internalType": "uint256"
				},
				{
					"name": "mustStartAtOrAfter",
					"type": "uint256",
					"indexed": false,
					"internalType": "uint256"
				},
				{
					"name": "caller",
					"type": "address",
					"indexed": false,
					"internalType": "address"
				}
			],
			"anonymous": false
		},
		{
			"type": "error",
			"name": "BLOCK_ALREADY_CONTAINS_RULESET",
			"inputs": []
		},
		{
			"type": "error",
			"name": "CONTROLLER_UNAUTHORIZED",
			"inputs": []
		},
		{
			"type": "error",
			"name": "INVALID_DECAY_RATE",
			"inputs": []
		},
		{
			"type": "error",
			"name": "INVALID_RULESET_APPROVAL_HOOK",
			"inputs": []
		},
		{
			"type": "error",
			"name": "INVALID_RULESET_DURATION",
			"inputs": []
		},
		{
			"type": "error",
			"name": "INVALID_RULESET_END_TIME",
			"inputs": []
		},
		{
			"type": "error",
			"name": "INVALID_WEIGHT",
			"inputs": []
		},
		{
			"type": "error",
			"name": "PRBMath_MulDiv_Overflow",
			"inputs": [
				{
					"name": "x",
					"type": "uint256",
					"internalType": "uint256"
				},
				{
					"name": "y",
					"type": "uint256",
					"internalType": "uint256"
				},
				{
					"name": "denominator",
					"type": "uint256",
					"internalType": "uint256"
				}
			]
		}
	],
	"solcInputHash": "72b97eca88a7a2645b499cd15964090b",
	"args": [
		"0x6A6988E79a621Fc7Ea74D67a31E9cefCcC98e949"
	],
	"bytecode": "0x60a060405234801561001057600080fd5b5060405161195c38038061195c83398101604081905261002f91610040565b6001600160a01b0316608052610070565b60006020828403121561005257600080fd5b81516001600160a01b038116811461006957600080fd5b9392505050565b6080516118ca61009260003960008181610125015261039501526118ca6000f3fe608060405234801561001057600080fd5b506004361061009e5760003560e01c80638b04533a116100665780638b04533a1461015f578063b51d624414610174578063c02c63ad14610194578063c1ec61ee146101a7578063d7e1ec88146101c857600080fd5b806325a61d5c146100a357806333f5bd0a146100cc57806343a266c2146100fa57806370174dcc1461010d57806388bc2ef314610120575b600080fd5b6100b66100b1366004611547565b6101e8565b6040516100c391906115c8565b60405180910390f35b6100ec6100da3660046115d7565b60006020819052908152604090205481565b6040519081526020016100c3565b6100b66101083660046115d7565b610203565b6100b661011b366004611608565b61036b565b6101477f000000000000000000000000000000000000000000000000000000000000000081565b6040516001600160a01b0390911681526020016100c3565b61017261016d3660046115d7565b6106ec565b005b610187610182366004611667565b6107d3565b6040516100c39190611693565b6100b66101a23660046115d7565b610903565b6101ba6101b53660046115d7565b610aa4565b6040516100c392919061171a565b6101db6101d63660046115d7565b610ae7565b6040516100c39190611737565b6101f06114f2565b6101fa8383610b1b565b90505b92915050565b61020b6114f2565b600082815260208190526040812054900361022b576101fd600080610b1b565b600061023683610be0565b905080156102ae576102488382610b1b565b915060006102568484610c6c565b9050600481600581111561026c5761026c6116e2565b148061028957506000816005811115610287576102876116e2565b145b15610295575050919050565b826040015191506102a68483610b1b565b925050610346565b506000828152602081905260409020546102c88382610b1b565b915060006102d68484610c6c565b90505b60048160058111156102ed576102ed6116e2565b1415801561030d5750600081600581111561030a5761030a6116e2565b14155b8061031b5750826060015142105b1561034457826040015191506103318483610b1b565b925061033d8484610c6c565b90506102d9565b505b81608001516000036103585750919050565b61036483836001610c86565b9392505050565b6103736114f2565b604051632eec7b5560e11b815260048101899052889033906001600160a01b037f00000000000000000000000000000000000000000000000000000000000000001690635dd8f6aa90602401602060405180830381865afa1580156103dc573d6000803e3d6000fd5b505050506040513d601f19601f820116820180604052508101906104009190611745565b6001600160a01b03161461042757604051632adfdd0560e21b815260040160405180910390fd5b63ffffffff88111561044c57604051631525af6b60e31b815260040160405180910390fd5b633b9aca0086111561047157604051637027d73760e01b815260040160405180910390fd5b6affffffffffffffffffffff87111561049d5760405163698f22ad60e01b815260040160405180910390fd5b826000036104a9574292505b66ffffffffffffff6104bb8985611778565b11156104da5760405163acc92f5b60e01b815260040160405180910390fd5b6001600160a01b038516156105b857846001600160a01b03163b6000036105145760405163a903807d60e01b815260040160405180910390fd5b6040516301ffc9a760e01b8152634b80c8df60e01b60048201526001600160a01b038616906301ffc9a790602401602060405180830381865afa92505050801561057b575060408051601f3d908101601f191682019092526105789181019061178b565b60015b6105985760405163a903807d60e01b815260040160405180910390fd5b806105b65760405163a903807d60e01b815260040160405180910390fd5b505b60008981526020819052604081205490428210156105d657426105e1565b6105e1826001611778565b90506105ef8b828b88610d56565b6001600160a01b038716151580610606575060008a115b806106115750600088115b156106485760008b8152600160209081526040808320848452909152902060c089901b60a08c901b6001600160a01b038a16171790555b851561066b5760008b815260036020908152604080832084845290915290208690555b604080518b8152602081018b90529081018990526001600160a01b03881660608201526080810187905260a081018690523360c08201528b9082907f11a490bebff1beffe4bdd210894aca6ea5049427ce4b3c48865717677199cb079060e00160405180910390a36106dd8b82610b1b565b9b9a5050505050505050505050565b600081815260208190526040812054610706908390610b1b565b905080608001516000148061071d575060c0810151155b15610726575050565b600082815260046020908152604080832084830151845290915281206080830151600182015491929161075c9061c35090611778565b61076691906117ad565b83606001516107759190611778565b905060008142106107865781610788565b425b9050600084606001518261079c91906117c4565b90506000856080015182816107b3576107b36117d7565b0490506107c1878785610fa9565b85556001909401939093555050505050565b6060826000036107ef5760008481526020819052604090205492505b6000806107fc8686610b1b565b90505b60208101511580159061081157508382105b156108385781610820816117ed565b925050610831868260400151610b1b565b90506107ff565b8167ffffffffffffffff81111561085157610851611806565b60405190808252806020026020018201604052801561088a57816020015b6108776114f2565b81526020019060019003908161086f5790505b5092508160000361089c575050610364565b6108a68686610b1b565b905060005b828110156108f9578184826108bf816117ed565b9350815181106108d1576108d161181c565b60200260200101819052508281146108f4576108f1878360400151610b1b565b91505b6108ab565b5050509392505050565b61090b6114f2565b600082815260208190526040812054900361092b576101fd600080610b1b565b6000610936836110ae565b9050600081156109c65761094a8483610b1b565b92506109568484610c6c565b9050600481600581111561096c5761096c6116e2565b148061098957506003816005811115610987576109876116e2565b145b806109a5575060008160058111156109a3576109a36116e2565b145b156109b1575050919050565b6109bf848460400151610b1b565b9250610a04565b6000848152602081905260409020546109e0908590610b1b565b92505b4283606001511115610a04576109fd848460400151610b1b565b92506109e3565b8260800151600003610a2357610a1b600080610b1b565b949350505050565b610a2d8484610c6c565b90506004816005811115610a4357610a436116e2565b1480610a6057506000816005811115610a5e57610a5e6116e2565b145b15610a7157610a1b84846000610c86565b610a7f848460400151610b1b565b92508260800151600003610a9857610a1b600080610b1b565b610a1b84846000610c86565b610aac6114f2565b600082815260208190526040812054610ac58482610b1b565b9250610adf84846020015185606001518660400151611170565b915050915091565b60008181526020819052604081205481610b018483610b1b565b9050610a1b84826020015183606001518460400151611170565b610b236114f2565b81156101fd57602081810183905260008481526002825260408082208583528352808220546affffffffffffffffffffff811660a080870191909152605882901c66ffffffffffffff90811684880152609083901c16606087015260c89190911c8552868352600184528183208684528452818320546001600160a01b03811660e08701529081901c63ffffffff908116608087015260c091821c1690850152948152600382528481209381529290529190205461010082015290565b60008181526020819052604081205481610bfa8483610b1b565b90505b608081015115801590610c23575080608001518160600151610c1f9190611778565b4210155b15610c32575060009392505050565b80606001514210610c4857602001519392505050565b610c56848260400151610b1b565b8051909150600003610bfd575060009392505050565b60006101fa83836020015184606001518560400151611170565b610c8e6114f2565b60008215610cb5576080840151610ca590426117c4565b610cb0906001611778565b610cc0565b610cc0426001611778565b90506000610cce8583611234565b90506000610cdc86836112c0565b9050604051806101200160405280828152602001876020015181526020018760400151815260200183815260200187608001518152602001610d1f898986610fa9565b81526020018760c0015181526020018760e001516001600160a01b0316815260200187610100015181525093505050509392505050565b60008481526020819052604081205490819003610d8a57610d8485610d7c600080610b1b565b868587611312565b50610fa3565b6000610d968683610b1b565b90506000610da48783610c6c565b905081606001514210158015610dcc57506004816005811115610dc957610dc96116e2565b14155b8015610dea57506000816005811115610de757610de76116e2565b14155b80610e335750816060015142108015610e15575081608001518260600151610e129190611778565b84105b8015610e3357506004816005811115610e3057610e306116e2565b14155b80610eb95750816060015142108015610e5f575081608001518260600151610e5b9190611778565b8410155b8015610e7d57506004816005811115610e7a57610e7a6116e2565b14155b8015610e9b57506003816005811115610e9857610e986116e2565b14155b8015610eb957506000816005811115610eb657610eb66116e2565b14155b15610ecf57610ecc878360400151610b1b565b91505b85826020015103610ef35760405163dad3de1760e01b815260040160405180910390fd5b60e08201516000906001600160a01b031615610f7e578260e001516001600160a01b0316631be052896040518163ffffffff1660e01b8152600401602060405180830381865afa158015610f4b573d6000803e3d6000fd5b505050506040513d601f19601f82011682018060405250810190610f6f9190611832565b610f799088611778565b610f81565b60005b9050610f9e888489888511610f965788610f98565b845b8a611312565b505050505b50505050565b60008260800151600003610fe457610fdd8360a001518460c00151633b9aca00610fd391906117c4565b633b9aca0061141a565b9050610364565b5060a082015160c08301511561036457600083606001518361100691906117c4565b905060008460800151828161101d5761101d6117d7565b0490506103e881111561107b5760008681526004602090815260408083208883015184528252918290208251808401909352805483526001015490820181905215611079578051602082015190945061107690836117c4565b91505b505b60005b818110156108f95761109e848760c00151633b9aca00610fd391906117c4565b935083156108f95760010161107e565b600081815260208190526040812054906110c88383610b1b565b9050806060015142106110de5750600092915050565b80516001036110ed5750919050565b60408101516110fa6114f2565b6111048583610b1b565b905080606001514210156111255780602001519350806040015191506110fa565b61112f8585610b1b565b9250806080015160001415801561115857508060800151836060015161115591906117c4565b42105b1561116857506000949350505050565b505050919050565b60008160000361118257506000610a1b565b600061118e8684610b1b565b60e08101519091506001600160a01b03166111ad576000915050610a1b565b60e08101516040516328304d2b60e11b81526004810188905260248101879052604481018690526001600160a01b03909116906350609a5690606401602060405180830381865afa158015611206573d6000803e3d6000fd5b505050506040513d601f19601f8201168201806040525081019061122a919061184b565b9695505050505050565b600082608001516000036112495750806101fd565b60008360800151846060015161125f9190611778565b905082811061126f5790506101fd565b608084015160009061128183866117c4565b61128b919061186c565b905061129781856117c4565b92505b828411156112b85760808501516112b19084611778565b925061129a565b505092915050565b600082608001516000036112e25782516112db906001611778565b90506101fd565b60008360600151836112f491906117c4565b90508360800151816113069190611880565b8451610a1b9190611778565b83516000036113545760208085015160008781526002835260408082208783529093529190912060589190911b8217609084901b17600160c81b1790556113d2565b60006113608584611234565b90506000821161137a57611375868683610fa9565b61138b565b81600114611388578161138b565b60005b9150600061139986836112c0565b60208088015160008a81526002835260408082208a83529093529190912060589190911b8517609085901b1760c883901b179055905050505b6000858152602081815260408083208690559086015190519091879186917ffda207e5d149787155cf9596283f246f082d4744a57e37dda99146e5dcc542bb91a45050505050565b60008080600019858709858702925082811083820303915050806000036114545783828161144a5761144a6117d7565b0492505050610364565b83811061148957604051630c740aef60e31b815260048101879052602481018690526044810185905260640160405180910390fd5b60008486880960026001871981018816978890046003810283188082028403028082028403028082028403028082028403028082028403029081029092039091026000889003889004909101858311909403939093029303949094049190911702949350505050565b6040518061012001604052806000815260200160008152602001600081526020016000815260200160008152602001600081526020016000815260200160006001600160a01b03168152602001600081525090565b6000806040838503121561155a57600080fd5b50508035926020909101359150565b805182526020808201519083015260408082015190830152606080820151908301526080808201519083015260a0808201519083015260c0808201519083015260e0808201516001600160a01b03169083015261010090810151910152565b61012081016101fd8284611569565b6000602082840312156115e957600080fd5b5035919050565b6001600160a01b038116811461160557600080fd5b50565b600080600080600080600060e0888a03121561162357600080fd5b87359650602088013595506040880135945060608801359350608088013561164a816115f0565b9699959850939692959460a0840135945060c09093013592915050565b60008060006060848603121561167c57600080fd5b505081359360208301359350604090920135919050565b6020808252825182820181905260009190848201906040850190845b818110156116d6576116c2838551611569565b9284019261012092909201916001016116af565b50909695505050505050565b634e487b7160e01b600052602160045260246000fd5b6006811061171657634e487b7160e01b600052602160045260246000fd5b9052565b61014081016117298285611569565b6103646101208301846116f8565b602081016101fd82846116f8565b60006020828403121561175757600080fd5b8151610364816115f0565b634e487b7160e01b600052601160045260246000fd5b808201808211156101fd576101fd611762565b60006020828403121561179d57600080fd5b8151801515811461036457600080fd5b80820281158282048414176101fd576101fd611762565b818103818111156101fd576101fd611762565b634e487b7160e01b600052601260045260246000fd5b6000600182016117ff576117ff611762565b5060010190565b634e487b7160e01b600052604160045260246000fd5b634e487b7160e01b600052603260045260246000fd5b60006020828403121561184457600080fd5b5051919050565b60006020828403121561185d57600080fd5b81516006811061036457600080fd5b60008261187b5761187b6117d7565b500690565b60008261188f5761188f6117d7565b50049056fea2646970667358221220b2ae58572f72f49705dde0127d136b3d95d4b37dd6ebd4a2e30eb44f6b572a8b64736f6c63430008170033",
	"deployedBytecode": "0x608060405234801561001057600080fd5b506004361061009e5760003560e01c80638b04533a116100665780638b04533a1461015f578063b51d624414610174578063c02c63ad14610194578063c1ec61ee146101a7578063d7e1ec88146101c857600080fd5b806325a61d5c146100a357806333f5bd0a146100cc57806343a266c2146100fa57806370174dcc1461010d57806388bc2ef314610120575b600080fd5b6100b66100b1366004611547565b6101e8565b6040516100c391906115c8565b60405180910390f35b6100ec6100da3660046115d7565b60006020819052908152604090205481565b6040519081526020016100c3565b6100b66101083660046115d7565b610203565b6100b661011b366004611608565b61036b565b6101477f0000000000000000000000006a6988e79a621fc7ea74d67a31e9cefccc98e94981565b6040516001600160a01b0390911681526020016100c3565b61017261016d3660046115d7565b6106ec565b005b610187610182366004611667565b6107d3565b6040516100c39190611693565b6100b66101a23660046115d7565b610903565b6101ba6101b53660046115d7565b610aa4565b6040516100c392919061171a565b6101db6101d63660046115d7565b610ae7565b6040516100c39190611737565b6101f06114f2565b6101fa8383610b1b565b90505b92915050565b61020b6114f2565b600082815260208190526040812054900361022b576101fd600080610b1b565b600061023683610be0565b905080156102ae576102488382610b1b565b915060006102568484610c6c565b9050600481600581111561026c5761026c6116e2565b148061028957506000816005811115610287576102876116e2565b145b15610295575050919050565b826040015191506102a68483610b1b565b925050610346565b506000828152602081905260409020546102c88382610b1b565b915060006102d68484610c6c565b90505b60048160058111156102ed576102ed6116e2565b1415801561030d5750600081600581111561030a5761030a6116e2565b14155b8061031b5750826060015142105b1561034457826040015191506103318483610b1b565b925061033d8484610c6c565b90506102d9565b505b81608001516000036103585750919050565b61036483836001610c86565b9392505050565b6103736114f2565b604051632eec7b5560e11b815260048101899052889033906001600160a01b037f0000000000000000000000006a6988e79a621fc7ea74d67a31e9cefccc98e9491690635dd8f6aa90602401602060405180830381865afa1580156103dc573d6000803e3d6000fd5b505050506040513d601f19601f820116820180604052508101906104009190611745565b6001600160a01b03161461042757604051632adfdd0560e21b815260040160405180910390fd5b63ffffffff88111561044c57604051631525af6b60e31b815260040160405180910390fd5b633b9aca0086111561047157604051637027d73760e01b815260040160405180910390fd5b6affffffffffffffffffffff87111561049d5760405163698f22ad60e01b815260040160405180910390fd5b826000036104a9574292505b66ffffffffffffff6104bb8985611778565b11156104da5760405163acc92f5b60e01b815260040160405180910390fd5b6001600160a01b038516156105b857846001600160a01b03163b6000036105145760405163a903807d60e01b815260040160405180910390fd5b6040516301ffc9a760e01b8152634b80c8df60e01b60048201526001600160a01b038616906301ffc9a790602401602060405180830381865afa92505050801561057b575060408051601f3d908101601f191682019092526105789181019061178b565b60015b6105985760405163a903807d60e01b815260040160405180910390fd5b806105b65760405163a903807d60e01b815260040160405180910390fd5b505b60008981526020819052604081205490428210156105d657426105e1565b6105e1826001611778565b90506105ef8b828b88610d56565b6001600160a01b038716151580610606575060008a115b806106115750600088115b156106485760008b8152600160209081526040808320848452909152902060c089901b60a08c901b6001600160a01b038a16171790555b851561066b5760008b815260036020908152604080832084845290915290208690555b604080518b8152602081018b90529081018990526001600160a01b03881660608201526080810187905260a081018690523360c08201528b9082907f11a490bebff1beffe4bdd210894aca6ea5049427ce4b3c48865717677199cb079060e00160405180910390a36106dd8b82610b1b565b9b9a5050505050505050505050565b600081815260208190526040812054610706908390610b1b565b905080608001516000148061071d575060c0810151155b15610726575050565b600082815260046020908152604080832084830151845290915281206080830151600182015491929161075c9061c35090611778565b61076691906117ad565b83606001516107759190611778565b905060008142106107865781610788565b425b9050600084606001518261079c91906117c4565b90506000856080015182816107b3576107b36117d7565b0490506107c1878785610fa9565b85556001909401939093555050505050565b6060826000036107ef5760008481526020819052604090205492505b6000806107fc8686610b1b565b90505b60208101511580159061081157508382105b156108385781610820816117ed565b925050610831868260400151610b1b565b90506107ff565b8167ffffffffffffffff81111561085157610851611806565b60405190808252806020026020018201604052801561088a57816020015b6108776114f2565b81526020019060019003908161086f5790505b5092508160000361089c575050610364565b6108a68686610b1b565b905060005b828110156108f9578184826108bf816117ed565b9350815181106108d1576108d161181c565b60200260200101819052508281146108f4576108f1878360400151610b1b565b91505b6108ab565b5050509392505050565b61090b6114f2565b600082815260208190526040812054900361092b576101fd600080610b1b565b6000610936836110ae565b9050600081156109c65761094a8483610b1b565b92506109568484610c6c565b9050600481600581111561096c5761096c6116e2565b148061098957506003816005811115610987576109876116e2565b145b806109a5575060008160058111156109a3576109a36116e2565b145b156109b1575050919050565b6109bf848460400151610b1b565b9250610a04565b6000848152602081905260409020546109e0908590610b1b565b92505b4283606001511115610a04576109fd848460400151610b1b565b92506109e3565b8260800151600003610a2357610a1b600080610b1b565b949350505050565b610a2d8484610c6c565b90506004816005811115610a4357610a436116e2565b1480610a6057506000816005811115610a5e57610a5e6116e2565b145b15610a7157610a1b84846000610c86565b610a7f848460400151610b1b565b92508260800151600003610a9857610a1b600080610b1b565b610a1b84846000610c86565b610aac6114f2565b600082815260208190526040812054610ac58482610b1b565b9250610adf84846020015185606001518660400151611170565b915050915091565b60008181526020819052604081205481610b018483610b1b565b9050610a1b84826020015183606001518460400151611170565b610b236114f2565b81156101fd57602081810183905260008481526002825260408082208583528352808220546affffffffffffffffffffff811660a080870191909152605882901c66ffffffffffffff90811684880152609083901c16606087015260c89190911c8552868352600184528183208684528452818320546001600160a01b03811660e08701529081901c63ffffffff908116608087015260c091821c1690850152948152600382528481209381529290529190205461010082015290565b60008181526020819052604081205481610bfa8483610b1b565b90505b608081015115801590610c23575080608001518160600151610c1f9190611778565b4210155b15610c32575060009392505050565b80606001514210610c4857602001519392505050565b610c56848260400151610b1b565b8051909150600003610bfd575060009392505050565b60006101fa83836020015184606001518560400151611170565b610c8e6114f2565b60008215610cb5576080840151610ca590426117c4565b610cb0906001611778565b610cc0565b610cc0426001611778565b90506000610cce8583611234565b90506000610cdc86836112c0565b9050604051806101200160405280828152602001876020015181526020018760400151815260200183815260200187608001518152602001610d1f898986610fa9565b81526020018760c0015181526020018760e001516001600160a01b0316815260200187610100015181525093505050509392505050565b60008481526020819052604081205490819003610d8a57610d8485610d7c600080610b1b565b868587611312565b50610fa3565b6000610d968683610b1b565b90506000610da48783610c6c565b905081606001514210158015610dcc57506004816005811115610dc957610dc96116e2565b14155b8015610dea57506000816005811115610de757610de76116e2565b14155b80610e335750816060015142108015610e15575081608001518260600151610e129190611778565b84105b8015610e3357506004816005811115610e3057610e306116e2565b14155b80610eb95750816060015142108015610e5f575081608001518260600151610e5b9190611778565b8410155b8015610e7d57506004816005811115610e7a57610e7a6116e2565b14155b8015610e9b57506003816005811115610e9857610e986116e2565b14155b8015610eb957506000816005811115610eb657610eb66116e2565b14155b15610ecf57610ecc878360400151610b1b565b91505b85826020015103610ef35760405163dad3de1760e01b815260040160405180910390fd5b60e08201516000906001600160a01b031615610f7e578260e001516001600160a01b0316631be052896040518163ffffffff1660e01b8152600401602060405180830381865afa158015610f4b573d6000803e3d6000fd5b505050506040513d601f19601f82011682018060405250810190610f6f9190611832565b610f799088611778565b610f81565b60005b9050610f9e888489888511610f965788610f98565b845b8a611312565b505050505b50505050565b60008260800151600003610fe457610fdd8360a001518460c00151633b9aca00610fd391906117c4565b633b9aca0061141a565b9050610364565b5060a082015160c08301511561036457600083606001518361100691906117c4565b905060008460800151828161101d5761101d6117d7565b0490506103e881111561107b5760008681526004602090815260408083208883015184528252918290208251808401909352805483526001015490820181905215611079578051602082015190945061107690836117c4565b91505b505b60005b818110156108f95761109e848760c00151633b9aca00610fd391906117c4565b935083156108f95760010161107e565b600081815260208190526040812054906110c88383610b1b565b9050806060015142106110de5750600092915050565b80516001036110ed5750919050565b60408101516110fa6114f2565b6111048583610b1b565b905080606001514210156111255780602001519350806040015191506110fa565b61112f8585610b1b565b9250806080015160001415801561115857508060800151836060015161115591906117c4565b42105b1561116857506000949350505050565b505050919050565b60008160000361118257506000610a1b565b600061118e8684610b1b565b60e08101519091506001600160a01b03166111ad576000915050610a1b565b60e08101516040516328304d2b60e11b81526004810188905260248101879052604481018690526001600160a01b03909116906350609a5690606401602060405180830381865afa158015611206573d6000803e3d6000fd5b505050506040513d601f19601f8201168201806040525081019061122a919061184b565b9695505050505050565b600082608001516000036112495750806101fd565b60008360800151846060015161125f9190611778565b905082811061126f5790506101fd565b608084015160009061128183866117c4565b61128b919061186c565b905061129781856117c4565b92505b828411156112b85760808501516112b19084611778565b925061129a565b505092915050565b600082608001516000036112e25782516112db906001611778565b90506101fd565b60008360600151836112f491906117c4565b90508360800151816113069190611880565b8451610a1b9190611778565b83516000036113545760208085015160008781526002835260408082208783529093529190912060589190911b8217609084901b17600160c81b1790556113d2565b60006113608584611234565b90506000821161137a57611375868683610fa9565b61138b565b81600114611388578161138b565b60005b9150600061139986836112c0565b60208088015160008a81526002835260408082208a83529093529190912060589190911b8517609085901b1760c883901b179055905050505b6000858152602081815260408083208690559086015190519091879186917ffda207e5d149787155cf9596283f246f082d4744a57e37dda99146e5dcc542bb91a45050505050565b60008080600019858709858702925082811083820303915050806000036114545783828161144a5761144a6117d7565b0492505050610364565b83811061148957604051630c740aef60e31b815260048101879052602481018690526044810185905260640160405180910390fd5b60008486880960026001871981018816978890046003810283188082028403028082028403028082028403028082028403028082028403029081029092039091026000889003889004909101858311909403939093029303949094049190911702949350505050565b6040518061012001604052806000815260200160008152602001600081526020016000815260200160008152602001600081526020016000815260200160006001600160a01b03168152602001600081525090565b6000806040838503121561155a57600080fd5b50508035926020909101359150565b805182526020808201519083015260408082015190830152606080820151908301526080808201519083015260a0808201519083015260c0808201519083015260e0808201516001600160a01b03169083015261010090810151910152565b61012081016101fd8284611569565b6000602082840312156115e957600080fd5b5035919050565b6001600160a01b038116811461160557600080fd5b50565b600080600080600080600060e0888a03121561162357600080fd5b87359650602088013595506040880135945060608801359350608088013561164a816115f0565b9699959850939692959460a0840135945060c09093013592915050565b60008060006060848603121561167c57600080fd5b505081359360208301359350604090920135919050565b6020808252825182820181905260009190848201906040850190845b818110156116d6576116c2838551611569565b9284019261012092909201916001016116af565b50909695505050505050565b634e487b7160e01b600052602160045260246000fd5b6006811061171657634e487b7160e01b600052602160045260246000fd5b9052565b61014081016117298285611569565b6103646101208301846116f8565b602081016101fd82846116f8565b60006020828403121561175757600080fd5b8151610364816115f0565b634e487b7160e01b600052601160045260246000fd5b808201808211156101fd576101fd611762565b60006020828403121561179d57600080fd5b8151801515811461036457600080fd5b80820281158282048414176101fd576101fd611762565b818103818111156101fd576101fd611762565b634e487b7160e01b600052601260045260246000fd5b6000600182016117ff576117ff611762565b5060010190565b634e487b7160e01b600052604160045260246000fd5b634e487b7160e01b600052603260045260246000fd5b60006020828403121561184457600080fd5b5051919050565b60006020828403121561185d57600080fd5b81516006811061036457600080fd5b60008261187b5761187b6117d7565b500690565b60008261188f5761188f6117d7565b50049056fea2646970667358221220b2ae58572f72f49705dde0127d136b3d95d4b37dd6ebd4a2e30eb44f6b572a8b64736f6c63430008170033",
	"devdoc": {
		"kind": "dev",
		"methods": {
			"constructor": {
				"params": {
					"directory": "A contract storing directories of terminals and controllers for each project."
				}
			},
			"currentApprovalStatusForLatestRulesetOf(uint256)": {
				"params": {
					"projectId": "The ID of the project to check the approval status of."
				},
				"returns": {
					"_0": "The project's current approval status."
				}
			},
			"currentOf(uint256)": {
				"details": "If a current ruleset of the project is not found, returns an empty ruleset with all properties set to 0.",
				"params": {
					"projectId": "The ID of the project to get the current ruleset of."
				},
				"returns": {
					"ruleset": "The project's current ruleset."
				}
			},
			"getRulesetOf(uint256,uint256)": {
				"params": {
					"projectId": "The ID of the project to which the ruleset belongs.",
					"rulesetId": "The ID of the ruleset to get the struct of."
				},
				"returns": {
					"ruleset": "The ruleset struct."
				}
			},
			"latestQueuedRulesetOf(uint256)": {
				"details": "Returns struct and status for the ruleset initialized furthest in the future (at the end of the rulset queue).",
				"params": {
					"projectId": "The ID of the project to get the latest queued ruleset of."
				},
				"returns": {
					"approvalStatus": "The approval hook's status for the ruleset.",
					"ruleset": "The project's latest queued ruleset's struct."
				}
			},
			"queueFor(uint256,uint256,uint256,uint256,address,uint256,uint256)": {
				"details": "Only a project's current controller can queue its rulesets.",
				"params": {
					"approvalHook": "An address of a contract that says whether a proposed ruleset should be accepted or rejected. It can be used to create rules around how a project owner can change ruleset parameters over time.",
					"decayRate": "A percent by how much the `weight` of the subsequent ruleset should be reduced, if the project owner hasn't queued the subsequent ruleset with an explicit `weight`. If it's 0, each ruleset will have equal weight. If the number is 90%, the next ruleset will have a 10% smaller weight. This weight is out of `JBConstants.MAX_DECAY_RATE`.",
					"duration": "The number of seconds the ruleset lasts for, after which a new ruleset will start. A duration of 0 means that the ruleset will stay active until the project owner explicitly issues a reconfiguration, at which point a new ruleset will immediately start with the updated properties. If the duration is greater than 0, a project owner cannot make changes to a ruleset's parameters while it is active – any proposed changes will apply to the subsequent ruleset. If no changes are proposed, a ruleset rolls over to another one with the same properties but new `start` timestamp and a decayed `weight`.",
					"metadata": "Arbitrary extra data to associate with this ruleset. This metadata is not used by `JBRulesets`.",
					"mustStartAtOrAfter": "The earliest time the ruleset can start. The ruleset cannot start before this timestamp.",
					"projectId": "The ID of the project the ruleset is being queued for.",
					"weight": "A fixed point number with 18 decimals that contracts can use to base arbitrary calculations on. For example, payment terminals can use this to determine how many tokens should be minted when a payment is received."
				},
				"returns": {
					"_0": "The struct of the new ruleset."
				}
			},
			"rulesetsOf(uint256,uint256,uint256)": {
				"params": {
					"projectId": "The ID of the project to get the rulesets of.",
					"size": "The maximum number of rulesets to return.",
					"startingId": "The ID of the ruleset to begin with. This will be the latest ruleset in the result. If 0 is passed, the project's latest ruleset will be used."
				},
				"returns": {
					"rulesets": "The rulesets as an array of `JBRuleset` structs."
				}
			},
			"upcomingRulesetOf(uint256)": {
				"details": "If an upcoming ruleset is not found for the project, returns an empty ruleset with all properties set to 0.",
				"params": {
					"projectId": "The ID of the project to get the upcoming ruleset of."
				},
				"returns": {
					"ruleset": "The struct for the project's upcoming ruleset."
				}
			},
			"updateRulesetWeightCache(uint256)": {
				"params": {
					"projectId": "The ID of the project having its ruleset weight cached."
				}
			}
		},
		"version": 1
	},
	"userdoc": {
		"kind": "user",
		"methods": {
			"DIRECTORY()": {
				"notice": "The directory of terminals and controllers for projects."
			},
			"currentApprovalStatusForLatestRulesetOf(uint256)": {
				"notice": "The current approval status of a given project's latest ruleset."
			},
			"currentOf(uint256)": {
				"notice": "The ruleset that is currently active for the specified project."
			},
			"getRulesetOf(uint256,uint256)": {
				"notice": "Get the ruleset struct for a given `rulesetId` and `projectId`."
			},
			"latestQueuedRulesetOf(uint256)": {
				"notice": "The latest ruleset queued for a project. Returns the ruleset's struct and its current approval status."
			},
			"latestRulesetIdOf(uint256)": {
				"notice": "The ID of the ruleset with the latest start time for a specific project, whether the ruleset has been approved or not."
			},
			"queueFor(uint256,uint256,uint256,uint256,address,uint256,uint256)": {
				"notice": "Queues the upcoming approvable ruleset for the specified project."
			},
			"rulesetsOf(uint256,uint256,uint256)": {
				"notice": "Get an array of a project's rulesets up to a maximum array size, sorted from latest to earliest."
			},
			"upcomingRulesetOf(uint256)": {
				"notice": "The ruleset that's up next for a project."
			},
			"updateRulesetWeightCache(uint256)": {
				"notice": "Cache the value of the ruleset weight."
			}
		},
		"version": 1
	},
	"gitCommit": "62158c420c722b49faeb8974b2a980f19906fb7a",
	"sourceName": "src/JBRulesets.sol",
	"chainId": "11155111",
	"linkReferences": {},
	"deployedLinkReferences": {},
	"history": [
		{
			"_format": "sphinx-sol-ct-artifact-1",
			"merkleRoot": "0x58025795c33f9e0121b492c9ea8dc31dc6803cc81b9066cd376333e802464741",
			"contractName": "JBRulesets",
			"address": "0x1Eb7799d3A230A0440F0d6C477256Df8d425AdBb",
			"abi": [
				{
					"type": "constructor",
					"inputs": [
						{
							"name": "directory",
							"type": "address",
							"internalType": "contract IJBDirectory"
						}
					],
					"stateMutability": "nonpayable"
				},
				{
					"type": "function",
					"name": "DIRECTORY",
					"inputs": [],
					"outputs": [
						{
							"name": "",
							"type": "address",
							"internalType": "contract IJBDirectory"
						}
					],
					"stateMutability": "view"
				},
				{
					"type": "function",
					"name": "currentApprovalStatusForLatestRulesetOf",
					"inputs": [
						{
							"name": "projectId",
							"type": "uint256",
							"internalType": "uint256"
						}
					],
					"outputs": [
						{
							"name": "",
							"type": "uint8",
							"internalType": "enum JBApprovalStatus"
						}
					],
					"stateMutability": "view"
				},
				{
					"type": "function",
					"name": "currentOf",
					"inputs": [
						{
							"name": "projectId",
							"type": "uint256",
							"internalType": "uint256"
						}
					],
					"outputs": [
						{
							"name": "ruleset",
							"type": "tuple",
							"internalType": "struct JBRuleset",
							"components": [
								{
									"name": "cycleNumber",
									"type": "uint256",
									"internalType": "uint256"
								},
								{
									"name": "id",
									"type": "uint256",
									"internalType": "uint256"
								},
								{
									"name": "basedOnId",
									"type": "uint256",
									"internalType": "uint256"
								},
								{
									"name": "start",
									"type": "uint256",
									"internalType": "uint256"
								},
								{
									"name": "duration",
									"type": "uint256",
									"internalType": "uint256"
								},
								{
									"name": "weight",
									"type": "uint256",
									"internalType": "uint256"
								},
								{
									"name": "decayRate",
									"type": "uint256",
									"internalType": "uint256"
								},
								{
									"name": "approvalHook",
									"type": "address",
									"internalType": "contract IJBRulesetApprovalHook"
								},
								{
									"name": "metadata",
									"type": "uint256",
									"internalType": "uint256"
								}
							]
						}
					],
					"stateMutability": "view"
				},
				{
					"type": "function",
					"name": "getRulesetOf",
					"inputs": [
						{
							"name": "projectId",
							"type": "uint256",
							"internalType": "uint256"
						},
						{
							"name": "rulesetId",
							"type": "uint256",
							"internalType": "uint256"
						}
					],
					"outputs": [
						{
							"name": "ruleset",
							"type": "tuple",
							"internalType": "struct JBRuleset",
							"components": [
								{
									"name": "cycleNumber",
									"type": "uint256",
									"internalType": "uint256"
								},
								{
									"name": "id",
									"type": "uint256",
									"internalType": "uint256"
								},
								{
									"name": "basedOnId",
									"type": "uint256",
									"internalType": "uint256"
								},
								{
									"name": "start",
									"type": "uint256",
									"internalType": "uint256"
								},
								{
									"name": "duration",
									"type": "uint256",
									"internalType": "uint256"
								},
								{
									"name": "weight",
									"type": "uint256",
									"internalType": "uint256"
								},
								{
									"name": "decayRate",
									"type": "uint256",
									"internalType": "uint256"
								},
								{
									"name": "approvalHook",
									"type": "address",
									"internalType": "contract IJBRulesetApprovalHook"
								},
								{
									"name": "metadata",
									"type": "uint256",
									"internalType": "uint256"
								}
							]
						}
					],
					"stateMutability": "view"
				},
				{
					"type": "function",
					"name": "latestQueuedRulesetOf",
					"inputs": [
						{
							"name": "projectId",
							"type": "uint256",
							"internalType": "uint256"
						}
					],
					"outputs": [
						{
							"name": "ruleset",
							"type": "tuple",
							"internalType": "struct JBRuleset",
							"components": [
								{
									"name": "cycleNumber",
									"type": "uint256",
									"internalType": "uint256"
								},
								{
									"name": "id",
									"type": "uint256",
									"internalType": "uint256"
								},
								{
									"name": "basedOnId",
									"type": "uint256",
									"internalType": "uint256"
								},
								{
									"name": "start",
									"type": "uint256",
									"internalType": "uint256"
								},
								{
									"name": "duration",
									"type": "uint256",
									"internalType": "uint256"
								},
								{
									"name": "weight",
									"type": "uint256",
									"internalType": "uint256"
								},
								{
									"name": "decayRate",
									"type": "uint256",
									"internalType": "uint256"
								},
								{
									"name": "approvalHook",
									"type": "address",
									"internalType": "contract IJBRulesetApprovalHook"
								},
								{
									"name": "metadata",
									"type": "uint256",
									"internalType": "uint256"
								}
							]
						},
						{
							"name": "approvalStatus",
							"type": "uint8",
							"internalType": "enum JBApprovalStatus"
						}
					],
					"stateMutability": "view"
				},
				{
					"type": "function",
					"name": "latestRulesetIdOf",
					"inputs": [
						{
							"name": "projectId",
							"type": "uint256",
							"internalType": "uint256"
						}
					],
					"outputs": [
						{
							"name": "",
							"type": "uint256",
							"internalType": "uint256"
						}
					],
					"stateMutability": "view"
				},
				{
					"type": "function",
					"name": "queueFor",
					"inputs": [
						{
							"name": "projectId",
							"type": "uint256",
							"internalType": "uint256"
						},
						{
							"name": "duration",
							"type": "uint256",
							"internalType": "uint256"
						},
						{
							"name": "weight",
							"type": "uint256",
							"internalType": "uint256"
						},
						{
							"name": "decayRate",
							"type": "uint256",
							"internalType": "uint256"
						},
						{
							"name": "approvalHook",
							"type": "address",
							"internalType": "contract IJBRulesetApprovalHook"
						},
						{
							"name": "metadata",
							"type": "uint256",
							"internalType": "uint256"
						},
						{
							"name": "mustStartAtOrAfter",
							"type": "uint256",
							"internalType": "uint256"
						}
					],
					"outputs": [
						{
							"name": "",
							"type": "tuple",
							"internalType": "struct JBRuleset",
							"components": [
								{
									"name": "cycleNumber",
									"type": "uint256",
									"internalType": "uint256"
								},
								{
									"name": "id",
									"type": "uint256",
									"internalType": "uint256"
								},
								{
									"name": "basedOnId",
									"type": "uint256",
									"internalType": "uint256"
								},
								{
									"name": "start",
									"type": "uint256",
									"internalType": "uint256"
								},
								{
									"name": "duration",
									"type": "uint256",
									"internalType": "uint256"
								},
								{
									"name": "weight",
									"type": "uint256",
									"internalType": "uint256"
								},
								{
									"name": "decayRate",
									"type": "uint256",
									"internalType": "uint256"
								},
								{
									"name": "approvalHook",
									"type": "address",
									"internalType": "contract IJBRulesetApprovalHook"
								},
								{
									"name": "metadata",
									"type": "uint256",
									"internalType": "uint256"
								}
							]
						}
					],
					"stateMutability": "nonpayable"
				},
				{
					"type": "function",
					"name": "rulesetsOf",
					"inputs": [
						{
							"name": "projectId",
							"type": "uint256",
							"internalType": "uint256"
						},
						{
							"name": "startingId",
							"type": "uint256",
							"internalType": "uint256"
						},
						{
							"name": "size",
							"type": "uint256",
							"internalType": "uint256"
						}
					],
					"outputs": [
						{
							"name": "rulesets",
							"type": "tuple[]",
							"internalType": "struct JBRuleset[]",
							"components": [
								{
									"name": "cycleNumber",
									"type": "uint256",
									"internalType": "uint256"
								},
								{
									"name": "id",
									"type": "uint256",
									"internalType": "uint256"
								},
								{
									"name": "basedOnId",
									"type": "uint256",
									"internalType": "uint256"
								},
								{
									"name": "start",
									"type": "uint256",
									"internalType": "uint256"
								},
								{
									"name": "duration",
									"type": "uint256",
									"internalType": "uint256"
								},
								{
									"name": "weight",
									"type": "uint256",
									"internalType": "uint256"
								},
								{
									"name": "decayRate",
									"type": "uint256",
									"internalType": "uint256"
								},
								{
									"name": "approvalHook",
									"type": "address",
									"internalType": "contract IJBRulesetApprovalHook"
								},
								{
									"name": "metadata",
									"type": "uint256",
									"internalType": "uint256"
								}
							]
						}
					],
					"stateMutability": "view"
				},
				{
					"type": "function",
					"name": "upcomingRulesetOf",
					"inputs": [
						{
							"name": "projectId",
							"type": "uint256",
							"internalType": "uint256"
						}
					],
					"outputs": [
						{
							"name": "ruleset",
							"type": "tuple",
							"internalType": "struct JBRuleset",
							"components": [
								{
									"name": "cycleNumber",
									"type": "uint256",
									"internalType": "uint256"
								},
								{
									"name": "id",
									"type": "uint256",
									"internalType": "uint256"
								},
								{
									"name": "basedOnId",
									"type": "uint256",
									"internalType": "uint256"
								},
								{
									"name": "start",
									"type": "uint256",
									"internalType": "uint256"
								},
								{
									"name": "duration",
									"type": "uint256",
									"internalType": "uint256"
								},
								{
									"name": "weight",
									"type": "uint256",
									"internalType": "uint256"
								},
								{
									"name": "decayRate",
									"type": "uint256",
									"internalType": "uint256"
								},
								{
									"name": "approvalHook",
									"type": "address",
									"internalType": "contract IJBRulesetApprovalHook"
								},
								{
									"name": "metadata",
									"type": "uint256",
									"internalType": "uint256"
								}
							]
						}
					],
					"stateMutability": "view"
				},
				{
					"type": "function",
					"name": "updateRulesetWeightCache",
					"inputs": [
						{
							"name": "projectId",
							"type": "uint256",
							"internalType": "uint256"
						}
					],
					"outputs": [],
					"stateMutability": "nonpayable"
				},
				{
					"type": "event",
					"name": "RulesetInitialized",
					"inputs": [
						{
							"name": "rulesetId",
							"type": "uint256",
							"indexed": true,
							"internalType": "uint256"
						},
						{
							"name": "projectId",
							"type": "uint256",
							"indexed": true,
							"internalType": "uint256"
						},
						{
							"name": "basedOnId",
							"type": "uint256",
							"indexed": true,
							"internalType": "uint256"
						}
					],
					"anonymous": false
				},
				{
					"type": "event",
					"name": "RulesetQueued",
					"inputs": [
						{
							"name": "rulesetId",
							"type": "uint256",
							"indexed": true,
							"internalType": "uint256"
						},
						{
							"name": "projectId",
							"type": "uint256",
							"indexed": true,
							"internalType": "uint256"
						},
						{
							"name": "duration",
							"type": "uint256",
							"indexed": false,
							"internalType": "uint256"
						},
						{
							"name": "weight",
							"type": "uint256",
							"indexed": false,
							"internalType": "uint256"
						},
						{
							"name": "decayRate",
							"type": "uint256",
							"indexed": false,
							"internalType": "uint256"
						},
						{
							"name": "hook",
							"type": "address",
							"indexed": false,
							"internalType": "contract IJBRulesetApprovalHook"
						},
						{
							"name": "metadata",
							"type": "uint256",
							"indexed": false,
							"internalType": "uint256"
						},
						{
							"name": "mustStartAtOrAfter",
							"type": "uint256",
							"indexed": false,
							"internalType": "uint256"
						},
						{
							"name": "caller",
							"type": "address",
							"indexed": false,
							"internalType": "address"
						}
					],
					"anonymous": false
				},
				{
					"type": "error",
					"name": "BLOCK_ALREADY_CONTAINS_RULESET",
					"inputs": []
				},
				{
					"type": "error",
					"name": "CONTROLLER_UNAUTHORIZED",
					"inputs": []
				},
				{
					"type": "error",
					"name": "INVALID_DECAY_RATE",
					"inputs": []
				},
				{
					"type": "error",
					"name": "INVALID_RULESET_APPROVAL_HOOK",
					"inputs": []
				},
				{
					"type": "error",
					"name": "INVALID_RULESET_DURATION",
					"inputs": []
				},
				{
					"type": "error",
					"name": "INVALID_RULESET_END_TIME",
					"inputs": []
				},
				{
					"type": "error",
					"name": "INVALID_WEIGHT",
					"inputs": []
				},
				{
					"type": "error",
					"name": "PRBMath_MulDiv_Overflow",
					"inputs": [
						{
							"name": "x",
							"type": "uint256",
							"internalType": "uint256"
						},
						{
							"name": "y",
							"type": "uint256",
							"internalType": "uint256"
						},
						{
							"name": "denominator",
							"type": "uint256",
							"internalType": "uint256"
						}
					]
				}
			],
			"solcInputHash": "b2112d617c776ac2cceb92d11c578094",
			"receipt": {
				"blockHash": "0x16052471b9ac7e9479f3215906569bb1ea5bef1c2e1f4d933dac32f884627b01",
				"blockNumber": 5424380,
				"contractAddress": null,
				"cumulativeGasUsed": "24376581",
				"from": "0xC034550B542b83BA1De312b21d1C94a9a52B1595",
				"gasPrice": "1012207646",
				"gasUsed": "10946934",
				"hash": "0x19bc5315bba2caaac4e6e9a41cf902def8a609aaca80787f6e96f6f41bbd4439",
				"index": 89,
				"logs": [
					{
						"address": "0xB5E96127D417b1B3ef8438496a38A143167209c7",
						"blockHash": "0x16052471b9ac7e9479f3215906569bb1ea5bef1c2e1f4d933dac32f884627b01",
						"blockNumber": 5424380,
						"data": "0x0000000000000000000000000000000000000000000000000000000000000000",
						"index": 146,
						"topics": [
							"0x572f161235911da04685a68c06adf558fc7e4a36909dca394650e0adc19cc93d",
							"0x000000000000000000000000c034550b542b83ba1de312b21d1c94a9a52b1595",
							"0x000000000000000000000000ef1be3c049809cace5bc203bbe4ec1ab284bf75c",
							"0x382284f5d783cda733be9c0662007769be4127911b33bf59cf0fc970f0906943"
						],
						"transactionHash": "0x19bc5315bba2caaac4e6e9a41cf902def8a609aaca80787f6e96f6f41bbd4439",
						"transactionIndex": 89
					},
					{
						"address": "0x1081B5AA9D9d4862A3dA4d469433FB36Ed80FA2A",
						"blockHash": "0x16052471b9ac7e9479f3215906569bb1ea5bef1c2e1f4d933dac32f884627b01",
						"blockNumber": 5424380,
						"data": "0x",
						"index": 147,
						"topics": [
							"0x6895c13664aa4f67288b25d7a21d7aaa34916e355fb9b6fae0a139a9085becb8",
							"0x000000000000000000000000ef1be3c049809cace5bc203bbe4ec1ab284bf75c"
						],
						"transactionHash": "0x19bc5315bba2caaac4e6e9a41cf902def8a609aaca80787f6e96f6f41bbd4439",
						"transactionIndex": 89
					},
					{
						"address": "0xEf1Be3C049809caCe5Bc203BBe4Ec1Ab284bF75c",
						"blockHash": "0x16052471b9ac7e9479f3215906569bb1ea5bef1c2e1f4d933dac32f884627b01",
						"blockNumber": 5424380,
						"data": "0x0000000000000000000000000000000000000000000000000000000000000001",
						"index": 148,
						"topics": [
							"0xa65fb05c5808f5f389d72edeaf719ce38f4cc55c1f69ca3cbfb31c21501caa07",
							"0x58025795c33f9e0121b492c9ea8dc31dc6803cc81b9066cd376333e802464741"
						],
						"transactionHash": "0x19bc5315bba2caaac4e6e9a41cf902def8a609aaca80787f6e96f6f41bbd4439",
						"transactionIndex": 89
					},
					{
						"address": "0x1081B5AA9D9d4862A3dA4d469433FB36Ed80FA2A",
						"blockHash": "0x16052471b9ac7e9479f3215906569bb1ea5bef1c2e1f4d933dac32f884627b01",
						"blockNumber": 5424380,
						"data": "0x000000000000000000000000ba24624ae5dc821866e9e71ed050412ef01e2fe6",
						"index": 149,
						"topics": [
							"0x4db17dd5e4732fb6da34a148104a592783ca119a1e7bb8829eba6cbadef0b511"
						],
						"transactionHash": "0x19bc5315bba2caaac4e6e9a41cf902def8a609aaca80787f6e96f6f41bbd4439",
						"transactionIndex": 89
					},
					{
						"address": "0x1081B5AA9D9d4862A3dA4d469433FB36Ed80FA2A",
						"blockHash": "0x16052471b9ac7e9479f3215906569bb1ea5bef1c2e1f4d933dac32f884627b01",
						"blockNumber": 5424380,
						"data": "0x",
						"index": 150,
						"topics": [
							"0x6895c13664aa4f67288b25d7a21d7aaa34916e355fb9b6fae0a139a9085becb8",
							"0x000000000000000000000000ef1be3c049809cace5bc203bbe4ec1ab284bf75c"
						],
						"transactionHash": "0x19bc5315bba2caaac4e6e9a41cf902def8a609aaca80787f6e96f6f41bbd4439",
						"transactionIndex": 89
					},
					{
						"address": "0xEf1Be3C049809caCe5Bc203BBe4Ec1Ab284bF75c",
						"blockHash": "0x16052471b9ac7e9479f3215906569bb1ea5bef1c2e1f4d933dac32f884627b01",
						"blockNumber": 5424380,
						"data": "0x0000000000000000000000000000000000000000000000000000000000000002",
						"index": 151,
						"topics": [
							"0xa65fb05c5808f5f389d72edeaf719ce38f4cc55c1f69ca3cbfb31c21501caa07",
							"0x58025795c33f9e0121b492c9ea8dc31dc6803cc81b9066cd376333e802464741"
						],
						"transactionHash": "0x19bc5315bba2caaac4e6e9a41cf902def8a609aaca80787f6e96f6f41bbd4439",
						"transactionIndex": 89
					},
					{
						"address": "0x4d9207aBEcA883161A1eAee9DaBeDC0001c198d7",
						"blockHash": "0x16052471b9ac7e9479f3215906569bb1ea5bef1c2e1f4d933dac32f884627b01",
						"blockNumber": 5424380,
						"data": "0x",
						"index": 152,
						"topics": [
							"0x8be0079c531659141344cd1fd0a4f28419497f9722a3daafe3b4186f6b6457e0",
							"0x0000000000000000000000000000000000000000000000000000000000000000",
							"0x000000000000000000000000823b92d6a4b2aed4b15675c7917c9f922ea8adad"
						],
						"transactionHash": "0x19bc5315bba2caaac4e6e9a41cf902def8a609aaca80787f6e96f6f41bbd4439",
						"transactionIndex": 89
					},
					{
						"address": "0x1081B5AA9D9d4862A3dA4d469433FB36Ed80FA2A",
						"blockHash": "0x16052471b9ac7e9479f3215906569bb1ea5bef1c2e1f4d933dac32f884627b01",
						"blockNumber": 5424380,
						"data": "0x0000000000000000000000004d9207abeca883161a1eaee9dabedc0001c198d7",
						"index": 153,
						"topics": [
							"0x4db17dd5e4732fb6da34a148104a592783ca119a1e7bb8829eba6cbadef0b511"
						],
						"transactionHash": "0x19bc5315bba2caaac4e6e9a41cf902def8a609aaca80787f6e96f6f41bbd4439",
						"transactionIndex": 89
					},
					{
						"address": "0x1081B5AA9D9d4862A3dA4d469433FB36Ed80FA2A",
						"blockHash": "0x16052471b9ac7e9479f3215906569bb1ea5bef1c2e1f4d933dac32f884627b01",
						"blockNumber": 5424380,
						"data": "0x",
						"index": 154,
						"topics": [
							"0x6895c13664aa4f67288b25d7a21d7aaa34916e355fb9b6fae0a139a9085becb8",
							"0x000000000000000000000000ef1be3c049809cace5bc203bbe4ec1ab284bf75c"
						],
						"transactionHash": "0x19bc5315bba2caaac4e6e9a41cf902def8a609aaca80787f6e96f6f41bbd4439",
						"transactionIndex": 89
					},
					{
						"address": "0xEf1Be3C049809caCe5Bc203BBe4Ec1Ab284bF75c",
						"blockHash": "0x16052471b9ac7e9479f3215906569bb1ea5bef1c2e1f4d933dac32f884627b01",
						"blockNumber": 5424380,
						"data": "0x0000000000000000000000000000000000000000000000000000000000000003",
						"index": 155,
						"topics": [
							"0xa65fb05c5808f5f389d72edeaf719ce38f4cc55c1f69ca3cbfb31c21501caa07",
							"0x58025795c33f9e0121b492c9ea8dc31dc6803cc81b9066cd376333e802464741"
						],
						"transactionHash": "0x19bc5315bba2caaac4e6e9a41cf902def8a609aaca80787f6e96f6f41bbd4439",
						"transactionIndex": 89
					},
					{
						"address": "0x18017cfeD48E1dC0Adc445cEF8A9e6AfFCb330DA",
						"blockHash": "0x16052471b9ac7e9479f3215906569bb1ea5bef1c2e1f4d933dac32f884627b01",
						"blockNumber": 5424380,
						"data": "0x",
						"index": 156,
						"topics": [
							"0x8be0079c531659141344cd1fd0a4f28419497f9722a3daafe3b4186f6b6457e0",
							"0x0000000000000000000000000000000000000000000000000000000000000000",
							"0x0000000000000000000000001081b5aa9d9d4862a3da4d469433fb36ed80fa2a"
						],
						"transactionHash": "0x19bc5315bba2caaac4e6e9a41cf902def8a609aaca80787f6e96f6f41bbd4439",
						"transactionIndex": 89
					},
					{
						"address": "0x1081B5AA9D9d4862A3dA4d469433FB36Ed80FA2A",
						"blockHash": "0x16052471b9ac7e9479f3215906569bb1ea5bef1c2e1f4d933dac32f884627b01",
						"blockNumber": 5424380,
						"data": "0x00000000000000000000000018017cfed48e1dc0adc445cef8a9e6affcb330da",
						"index": 157,
						"topics": [
							"0x4db17dd5e4732fb6da34a148104a592783ca119a1e7bb8829eba6cbadef0b511"
						],
						"transactionHash": "0x19bc5315bba2caaac4e6e9a41cf902def8a609aaca80787f6e96f6f41bbd4439",
						"transactionIndex": 89
					},
					{
						"address": "0x1081B5AA9D9d4862A3dA4d469433FB36Ed80FA2A",
						"blockHash": "0x16052471b9ac7e9479f3215906569bb1ea5bef1c2e1f4d933dac32f884627b01",
						"blockNumber": 5424380,
						"data": "0x",
						"index": 158,
						"topics": [
							"0x6895c13664aa4f67288b25d7a21d7aaa34916e355fb9b6fae0a139a9085becb8",
							"0x000000000000000000000000ef1be3c049809cace5bc203bbe4ec1ab284bf75c"
						],
						"transactionHash": "0x19bc5315bba2caaac4e6e9a41cf902def8a609aaca80787f6e96f6f41bbd4439",
						"transactionIndex": 89
					},
					{
						"address": "0xEf1Be3C049809caCe5Bc203BBe4Ec1Ab284bF75c",
						"blockHash": "0x16052471b9ac7e9479f3215906569bb1ea5bef1c2e1f4d933dac32f884627b01",
						"blockNumber": 5424380,
						"data": "0x0000000000000000000000000000000000000000000000000000000000000004",
						"index": 159,
						"topics": [
							"0xa65fb05c5808f5f389d72edeaf719ce38f4cc55c1f69ca3cbfb31c21501caa07",
							"0x58025795c33f9e0121b492c9ea8dc31dc6803cc81b9066cd376333e802464741"
						],
						"transactionHash": "0x19bc5315bba2caaac4e6e9a41cf902def8a609aaca80787f6e96f6f41bbd4439",
						"transactionIndex": 89
					},
					{
						"address": "0x1081B5AA9D9d4862A3dA4d469433FB36Ed80FA2A",
						"blockHash": "0x16052471b9ac7e9479f3215906569bb1ea5bef1c2e1f4d933dac32f884627b01",
						"blockNumber": 5424380,
						"data": "0x0000000000000000000000007cb4a75d21c45d1a0a0333bfa626f54636c84da5",
						"index": 160,
						"topics": [
							"0x4db17dd5e4732fb6da34a148104a592783ca119a1e7bb8829eba6cbadef0b511"
						],
						"transactionHash": "0x19bc5315bba2caaac4e6e9a41cf902def8a609aaca80787f6e96f6f41bbd4439",
						"transactionIndex": 89
					},
					{
						"address": "0x1081B5AA9D9d4862A3dA4d469433FB36Ed80FA2A",
						"blockHash": "0x16052471b9ac7e9479f3215906569bb1ea5bef1c2e1f4d933dac32f884627b01",
						"blockNumber": 5424380,
						"data": "0x",
						"index": 161,
						"topics": [
							"0x6895c13664aa4f67288b25d7a21d7aaa34916e355fb9b6fae0a139a9085becb8",
							"0x000000000000000000000000ef1be3c049809cace5bc203bbe4ec1ab284bf75c"
						],
						"transactionHash": "0x19bc5315bba2caaac4e6e9a41cf902def8a609aaca80787f6e96f6f41bbd4439",
						"transactionIndex": 89
					},
					{
						"address": "0xEf1Be3C049809caCe5Bc203BBe4Ec1Ab284bF75c",
						"blockHash": "0x16052471b9ac7e9479f3215906569bb1ea5bef1c2e1f4d933dac32f884627b01",
						"blockNumber": 5424380,
						"data": "0x0000000000000000000000000000000000000000000000000000000000000005",
						"index": 162,
						"topics": [
							"0xa65fb05c5808f5f389d72edeaf719ce38f4cc55c1f69ca3cbfb31c21501caa07",
							"0x58025795c33f9e0121b492c9ea8dc31dc6803cc81b9066cd376333e802464741"
						],
						"transactionHash": "0x19bc5315bba2caaac4e6e9a41cf902def8a609aaca80787f6e96f6f41bbd4439",
						"transactionIndex": 89
					},
					{
						"address": "0x1081B5AA9D9d4862A3dA4d469433FB36Ed80FA2A",
						"blockHash": "0x16052471b9ac7e9479f3215906569bb1ea5bef1c2e1f4d933dac32f884627b01",
						"blockNumber": 5424380,
						"data": "0x0000000000000000000000001eb7799d3a230a0440f0d6c477256df8d425adbb",
						"index": 163,
						"topics": [
							"0x4db17dd5e4732fb6da34a148104a592783ca119a1e7bb8829eba6cbadef0b511"
						],
						"transactionHash": "0x19bc5315bba2caaac4e6e9a41cf902def8a609aaca80787f6e96f6f41bbd4439",
						"transactionIndex": 89
					},
					{
						"address": "0x1081B5AA9D9d4862A3dA4d469433FB36Ed80FA2A",
						"blockHash": "0x16052471b9ac7e9479f3215906569bb1ea5bef1c2e1f4d933dac32f884627b01",
						"blockNumber": 5424380,
						"data": "0x",
						"index": 164,
						"topics": [
							"0x6895c13664aa4f67288b25d7a21d7aaa34916e355fb9b6fae0a139a9085becb8",
							"0x000000000000000000000000ef1be3c049809cace5bc203bbe4ec1ab284bf75c"
						],
						"transactionHash": "0x19bc5315bba2caaac4e6e9a41cf902def8a609aaca80787f6e96f6f41bbd4439",
						"transactionIndex": 89
					},
					{
						"address": "0xEf1Be3C049809caCe5Bc203BBe4Ec1Ab284bF75c",
						"blockHash": "0x16052471b9ac7e9479f3215906569bb1ea5bef1c2e1f4d933dac32f884627b01",
						"blockNumber": 5424380,
						"data": "0x0000000000000000000000000000000000000000000000000000000000000006",
						"index": 165,
						"topics": [
							"0xa65fb05c5808f5f389d72edeaf719ce38f4cc55c1f69ca3cbfb31c21501caa07",
							"0x58025795c33f9e0121b492c9ea8dc31dc6803cc81b9066cd376333e802464741"
						],
						"transactionHash": "0x19bc5315bba2caaac4e6e9a41cf902def8a609aaca80787f6e96f6f41bbd4439",
						"transactionIndex": 89
					},
					{
						"address": "0x1081B5AA9D9d4862A3dA4d469433FB36Ed80FA2A",
						"blockHash": "0x16052471b9ac7e9479f3215906569bb1ea5bef1c2e1f4d933dac32f884627b01",
						"blockNumber": 5424380,
						"data": "0x0000000000000000000000003295c9c7374e583cb2e6ed455eaf9908022159d0",
						"index": 166,
						"topics": [
							"0x4db17dd5e4732fb6da34a148104a592783ca119a1e7bb8829eba6cbadef0b511"
						],
						"transactionHash": "0x19bc5315bba2caaac4e6e9a41cf902def8a609aaca80787f6e96f6f41bbd4439",
						"transactionIndex": 89
					},
					{
						"address": "0x1081B5AA9D9d4862A3dA4d469433FB36Ed80FA2A",
						"blockHash": "0x16052471b9ac7e9479f3215906569bb1ea5bef1c2e1f4d933dac32f884627b01",
						"blockNumber": 5424380,
						"data": "0x",
						"index": 167,
						"topics": [
							"0x6895c13664aa4f67288b25d7a21d7aaa34916e355fb9b6fae0a139a9085becb8",
							"0x000000000000000000000000ef1be3c049809cace5bc203bbe4ec1ab284bf75c"
						],
						"transactionHash": "0x19bc5315bba2caaac4e6e9a41cf902def8a609aaca80787f6e96f6f41bbd4439",
						"transactionIndex": 89
					},
					{
						"address": "0xEf1Be3C049809caCe5Bc203BBe4Ec1Ab284bF75c",
						"blockHash": "0x16052471b9ac7e9479f3215906569bb1ea5bef1c2e1f4d933dac32f884627b01",
						"blockNumber": 5424380,
						"data": "0x0000000000000000000000000000000000000000000000000000000000000007",
						"index": 168,
						"topics": [
							"0xa65fb05c5808f5f389d72edeaf719ce38f4cc55c1f69ca3cbfb31c21501caa07",
							"0x58025795c33f9e0121b492c9ea8dc31dc6803cc81b9066cd376333e802464741"
						],
						"transactionHash": "0x19bc5315bba2caaac4e6e9a41cf902def8a609aaca80787f6e96f6f41bbd4439",
						"transactionIndex": 89
					},
					{
						"address": "0x1081B5AA9D9d4862A3dA4d469433FB36Ed80FA2A",
						"blockHash": "0x16052471b9ac7e9479f3215906569bb1ea5bef1c2e1f4d933dac32f884627b01",
						"blockNumber": 5424380,
						"data": "0x0000000000000000000000002fd39295dd948dfbb8aa7e2508ea5fc15096682b",
						"index": 169,
						"topics": [
							"0x4db17dd5e4732fb6da34a148104a592783ca119a1e7bb8829eba6cbadef0b511"
						],
						"transactionHash": "0x19bc5315bba2caaac4e6e9a41cf902def8a609aaca80787f6e96f6f41bbd4439",
						"transactionIndex": 89
					},
					{
						"address": "0x1081B5AA9D9d4862A3dA4d469433FB36Ed80FA2A",
						"blockHash": "0x16052471b9ac7e9479f3215906569bb1ea5bef1c2e1f4d933dac32f884627b01",
						"blockNumber": 5424380,
						"data": "0x",
						"index": 170,
						"topics": [
							"0x6895c13664aa4f67288b25d7a21d7aaa34916e355fb9b6fae0a139a9085becb8",
							"0x000000000000000000000000ef1be3c049809cace5bc203bbe4ec1ab284bf75c"
						],
						"transactionHash": "0x19bc5315bba2caaac4e6e9a41cf902def8a609aaca80787f6e96f6f41bbd4439",
						"transactionIndex": 89
					},
					{
						"address": "0xEf1Be3C049809caCe5Bc203BBe4Ec1Ab284bF75c",
						"blockHash": "0x16052471b9ac7e9479f3215906569bb1ea5bef1c2e1f4d933dac32f884627b01",
						"blockNumber": 5424380,
						"data": "0x0000000000000000000000000000000000000000000000000000000000000008",
						"index": 171,
						"topics": [
							"0xa65fb05c5808f5f389d72edeaf719ce38f4cc55c1f69ca3cbfb31c21501caa07",
							"0x58025795c33f9e0121b492c9ea8dc31dc6803cc81b9066cd376333e802464741"
						],
						"transactionHash": "0x19bc5315bba2caaac4e6e9a41cf902def8a609aaca80787f6e96f6f41bbd4439",
						"transactionIndex": 89
					}
				],
				"logsBloom": "0x00000000080010008208000000080000000000000008000000800000004000000060008000000000000000000040000000000000000000000000000000000000000000000000200400000008820000000001000020000000000200000000000000000000020000000000000000000800000000100020000000000008000000400001000200000000000100800000000000080000000000000000804000000000004000080010000000002000000000020200000000400080000000000006000080000000000000200080000008000000000000000000000000000000000020000000000000000004000000000000000200000000000000000000000000000000",
				"status": 1,
				"to": "0xB5E96127D417b1B3ef8438496a38A143167209c7"
			},
			"metadata": "{\"compiler\":{\"version\":\"0.8.23+commit.f704f362\"},\"language\":\"Solidity\",\"output\":{\"abi\":[{\"inputs\":[{\"internalType\":\"contract IJBDirectory\",\"name\":\"directory\",\"type\":\"address\"}],\"stateMutability\":\"nonpayable\",\"type\":\"constructor\"},{\"inputs\":[],\"type\":\"error\",\"name\":\"BLOCK_ALREADY_CONTAINS_RULESET\"},{\"inputs\":[],\"type\":\"error\",\"name\":\"CONTROLLER_UNAUTHORIZED\"},{\"inputs\":[],\"type\":\"error\",\"name\":\"INVALID_DECAY_RATE\"},{\"inputs\":[],\"type\":\"error\",\"name\":\"INVALID_RULESET_APPROVAL_HOOK\"},{\"inputs\":[],\"type\":\"error\",\"name\":\"INVALID_RULESET_DURATION\"},{\"inputs\":[],\"type\":\"error\",\"name\":\"INVALID_RULESET_END_TIME\"},{\"inputs\":[],\"type\":\"error\",\"name\":\"INVALID_WEIGHT\"},{\"inputs\":[{\"internalType\":\"uint256\",\"name\":\"x\",\"type\":\"uint256\"},{\"internalType\":\"uint256\",\"name\":\"y\",\"type\":\"uint256\"},{\"internalType\":\"uint256\",\"name\":\"denominator\",\"type\":\"uint256\"}],\"type\":\"error\",\"name\":\"PRBMath_MulDiv_Overflow\"},{\"inputs\":[{\"internalType\":\"uint256\",\"name\":\"rulesetId\",\"type\":\"uint256\",\"indexed\":true},{\"internalType\":\"uint256\",\"name\":\"projectId\",\"type\":\"uint256\",\"indexed\":true},{\"internalType\":\"uint256\",\"name\":\"basedOnId\",\"type\":\"uint256\",\"indexed\":true}],\"type\":\"event\",\"name\":\"RulesetInitialized\",\"anonymous\":false},{\"inputs\":[{\"internalType\":\"uint256\",\"name\":\"rulesetId\",\"type\":\"uint256\",\"indexed\":true},{\"internalType\":\"uint256\",\"name\":\"projectId\",\"type\":\"uint256\",\"indexed\":true},{\"internalType\":\"uint256\",\"name\":\"duration\",\"type\":\"uint256\",\"indexed\":false},{\"internalType\":\"uint256\",\"name\":\"weight\",\"type\":\"uint256\",\"indexed\":false},{\"internalType\":\"uint256\",\"name\":\"decayRate\",\"type\":\"uint256\",\"indexed\":false},{\"internalType\":\"contract IJBRulesetApprovalHook\",\"name\":\"hook\",\"type\":\"address\",\"indexed\":false},{\"internalType\":\"uint256\",\"name\":\"metadata\",\"type\":\"uint256\",\"indexed\":false},{\"internalType\":\"uint256\",\"name\":\"mustStartAtOrAfter\",\"type\":\"uint256\",\"indexed\":false},{\"internalType\":\"address\",\"name\":\"caller\",\"type\":\"address\",\"indexed\":false}],\"type\":\"event\",\"name\":\"RulesetQueued\",\"anonymous\":false},{\"inputs\":[],\"stateMutability\":\"view\",\"type\":\"function\",\"name\":\"DIRECTORY\",\"outputs\":[{\"internalType\":\"contract IJBDirectory\",\"name\":\"\",\"type\":\"address\"}]},{\"inputs\":[{\"internalType\":\"uint256\",\"name\":\"projectId\",\"type\":\"uint256\"}],\"stateMutability\":\"view\",\"type\":\"function\",\"name\":\"currentApprovalStatusForLatestRulesetOf\",\"outputs\":[{\"internalType\":\"enum JBApprovalStatus\",\"name\":\"\",\"type\":\"uint8\"}]},{\"inputs\":[{\"internalType\":\"uint256\",\"name\":\"projectId\",\"type\":\"uint256\"}],\"stateMutability\":\"view\",\"type\":\"function\",\"name\":\"currentOf\",\"outputs\":[{\"internalType\":\"struct JBRuleset\",\"name\":\"ruleset\",\"type\":\"tuple\",\"components\":[{\"internalType\":\"uint256\",\"name\":\"cycleNumber\",\"type\":\"uint256\"},{\"internalType\":\"uint256\",\"name\":\"id\",\"type\":\"uint256\"},{\"internalType\":\"uint256\",\"name\":\"basedOnId\",\"type\":\"uint256\"},{\"internalType\":\"uint256\",\"name\":\"start\",\"type\":\"uint256\"},{\"internalType\":\"uint256\",\"name\":\"duration\",\"type\":\"uint256\"},{\"internalType\":\"uint256\",\"name\":\"weight\",\"type\":\"uint256\"},{\"internalType\":\"uint256\",\"name\":\"decayRate\",\"type\":\"uint256\"},{\"internalType\":\"contract IJBRulesetApprovalHook\",\"name\":\"approvalHook\",\"type\":\"address\"},{\"internalType\":\"uint256\",\"name\":\"metadata\",\"type\":\"uint256\"}]}]},{\"inputs\":[{\"internalType\":\"uint256\",\"name\":\"projectId\",\"type\":\"uint256\"},{\"internalType\":\"uint256\",\"name\":\"rulesetId\",\"type\":\"uint256\"}],\"stateMutability\":\"view\",\"type\":\"function\",\"name\":\"getRulesetOf\",\"outputs\":[{\"internalType\":\"struct JBRuleset\",\"name\":\"ruleset\",\"type\":\"tuple\",\"components\":[{\"internalType\":\"uint256\",\"name\":\"cycleNumber\",\"type\":\"uint256\"},{\"internalType\":\"uint256\",\"name\":\"id\",\"type\":\"uint256\"},{\"internalType\":\"uint256\",\"name\":\"basedOnId\",\"type\":\"uint256\"},{\"internalType\":\"uint256\",\"name\":\"start\",\"type\":\"uint256\"},{\"internalType\":\"uint256\",\"name\":\"duration\",\"type\":\"uint256\"},{\"internalType\":\"uint256\",\"name\":\"weight\",\"type\":\"uint256\"},{\"internalType\":\"uint256\",\"name\":\"decayRate\",\"type\":\"uint256\"},{\"internalType\":\"contract IJBRulesetApprovalHook\",\"name\":\"approvalHook\",\"type\":\"address\"},{\"internalType\":\"uint256\",\"name\":\"metadata\",\"type\":\"uint256\"}]}]},{\"inputs\":[{\"internalType\":\"uint256\",\"name\":\"projectId\",\"type\":\"uint256\"}],\"stateMutability\":\"view\",\"type\":\"function\",\"name\":\"latestQueuedRulesetOf\",\"outputs\":[{\"internalType\":\"struct JBRuleset\",\"name\":\"ruleset\",\"type\":\"tuple\",\"components\":[{\"internalType\":\"uint256\",\"name\":\"cycleNumber\",\"type\":\"uint256\"},{\"internalType\":\"uint256\",\"name\":\"id\",\"type\":\"uint256\"},{\"internalType\":\"uint256\",\"name\":\"basedOnId\",\"type\":\"uint256\"},{\"internalType\":\"uint256\",\"name\":\"start\",\"type\":\"uint256\"},{\"internalType\":\"uint256\",\"name\":\"duration\",\"type\":\"uint256\"},{\"internalType\":\"uint256\",\"name\":\"weight\",\"type\":\"uint256\"},{\"internalType\":\"uint256\",\"name\":\"decayRate\",\"type\":\"uint256\"},{\"internalType\":\"contract IJBRulesetApprovalHook\",\"name\":\"approvalHook\",\"type\":\"address\"},{\"internalType\":\"uint256\",\"name\":\"metadata\",\"type\":\"uint256\"}]},{\"internalType\":\"enum JBApprovalStatus\",\"name\":\"approvalStatus\",\"type\":\"uint8\"}]},{\"inputs\":[{\"internalType\":\"uint256\",\"name\":\"projectId\",\"type\":\"uint256\"}],\"stateMutability\":\"view\",\"type\":\"function\",\"name\":\"latestRulesetIdOf\",\"outputs\":[{\"internalType\":\"uint256\",\"name\":\"\",\"type\":\"uint256\"}]},{\"inputs\":[{\"internalType\":\"uint256\",\"name\":\"projectId\",\"type\":\"uint256\"},{\"internalType\":\"uint256\",\"name\":\"duration\",\"type\":\"uint256\"},{\"internalType\":\"uint256\",\"name\":\"weight\",\"type\":\"uint256\"},{\"internalType\":\"uint256\",\"name\":\"decayRate\",\"type\":\"uint256\"},{\"internalType\":\"contract IJBRulesetApprovalHook\",\"name\":\"approvalHook\",\"type\":\"address\"},{\"internalType\":\"uint256\",\"name\":\"metadata\",\"type\":\"uint256\"},{\"internalType\":\"uint256\",\"name\":\"mustStartAtOrAfter\",\"type\":\"uint256\"}],\"stateMutability\":\"nonpayable\",\"type\":\"function\",\"name\":\"queueFor\",\"outputs\":[{\"internalType\":\"struct JBRuleset\",\"name\":\"\",\"type\":\"tuple\",\"components\":[{\"internalType\":\"uint256\",\"name\":\"cycleNumber\",\"type\":\"uint256\"},{\"internalType\":\"uint256\",\"name\":\"id\",\"type\":\"uint256\"},{\"internalType\":\"uint256\",\"name\":\"basedOnId\",\"type\":\"uint256\"},{\"internalType\":\"uint256\",\"name\":\"start\",\"type\":\"uint256\"},{\"internalType\":\"uint256\",\"name\":\"duration\",\"type\":\"uint256\"},{\"internalType\":\"uint256\",\"name\":\"weight\",\"type\":\"uint256\"},{\"internalType\":\"uint256\",\"name\":\"decayRate\",\"type\":\"uint256\"},{\"internalType\":\"contract IJBRulesetApprovalHook\",\"name\":\"approvalHook\",\"type\":\"address\"},{\"internalType\":\"uint256\",\"name\":\"metadata\",\"type\":\"uint256\"}]}]},{\"inputs\":[{\"internalType\":\"uint256\",\"name\":\"projectId\",\"type\":\"uint256\"},{\"internalType\":\"uint256\",\"name\":\"startingId\",\"type\":\"uint256\"},{\"internalType\":\"uint256\",\"name\":\"size\",\"type\":\"uint256\"}],\"stateMutability\":\"view\",\"type\":\"function\",\"name\":\"rulesetsOf\",\"outputs\":[{\"internalType\":\"struct JBRuleset[]\",\"name\":\"rulesets\",\"type\":\"tuple[]\",\"components\":[{\"internalType\":\"uint256\",\"name\":\"cycleNumber\",\"type\":\"uint256\"},{\"internalType\":\"uint256\",\"name\":\"id\",\"type\":\"uint256\"},{\"internalType\":\"uint256\",\"name\":\"basedOnId\",\"type\":\"uint256\"},{\"internalType\":\"uint256\",\"name\":\"start\",\"type\":\"uint256\"},{\"internalType\":\"uint256\",\"name\":\"duration\",\"type\":\"uint256\"},{\"internalType\":\"uint256\",\"name\":\"weight\",\"type\":\"uint256\"},{\"internalType\":\"uint256\",\"name\":\"decayRate\",\"type\":\"uint256\"},{\"internalType\":\"contract IJBRulesetApprovalHook\",\"name\":\"approvalHook\",\"type\":\"address\"},{\"internalType\":\"uint256\",\"name\":\"metadata\",\"type\":\"uint256\"}]}]},{\"inputs\":[{\"internalType\":\"uint256\",\"name\":\"projectId\",\"type\":\"uint256\"}],\"stateMutability\":\"view\",\"type\":\"function\",\"name\":\"upcomingRulesetOf\",\"outputs\":[{\"internalType\":\"struct JBRuleset\",\"name\":\"ruleset\",\"type\":\"tuple\",\"components\":[{\"internalType\":\"uint256\",\"name\":\"cycleNumber\",\"type\":\"uint256\"},{\"internalType\":\"uint256\",\"name\":\"id\",\"type\":\"uint256\"},{\"internalType\":\"uint256\",\"name\":\"basedOnId\",\"type\":\"uint256\"},{\"internalType\":\"uint256\",\"name\":\"start\",\"type\":\"uint256\"},{\"internalType\":\"uint256\",\"name\":\"duration\",\"type\":\"uint256\"},{\"internalType\":\"uint256\",\"name\":\"weight\",\"type\":\"uint256\"},{\"internalType\":\"uint256\",\"name\":\"decayRate\",\"type\":\"uint256\"},{\"internalType\":\"contract IJBRulesetApprovalHook\",\"name\":\"approvalHook\",\"type\":\"address\"},{\"internalType\":\"uint256\",\"name\":\"metadata\",\"type\":\"uint256\"}]}]},{\"inputs\":[{\"internalType\":\"uint256\",\"name\":\"projectId\",\"type\":\"uint256\"}],\"stateMutability\":\"nonpayable\",\"type\":\"function\",\"name\":\"updateRulesetWeightCache\"}],\"devdoc\":{\"kind\":\"dev\",\"methods\":{\"constructor\":{\"params\":{\"directory\":\"A contract storing directories of terminals and controllers for each project.\"}},\"currentApprovalStatusForLatestRulesetOf(uint256)\":{\"params\":{\"projectId\":\"The ID of the project to check the approval status of.\"},\"returns\":{\"_0\":\"The project's current approval status.\"}},\"currentOf(uint256)\":{\"details\":\"If a current ruleset of the project is not found, returns an empty ruleset with all properties set to 0.\",\"params\":{\"projectId\":\"The ID of the project to get the current ruleset of.\"},\"returns\":{\"ruleset\":\"The project's current ruleset.\"}},\"getRulesetOf(uint256,uint256)\":{\"params\":{\"projectId\":\"The ID of the project to which the ruleset belongs.\",\"rulesetId\":\"The ID of the ruleset to get the struct of.\"},\"returns\":{\"ruleset\":\"The ruleset struct.\"}},\"latestQueuedRulesetOf(uint256)\":{\"details\":\"Returns struct and status for the ruleset initialized furthest in the future (at the end of the rulset queue).\",\"params\":{\"projectId\":\"The ID of the project to get the latest queued ruleset of.\"},\"returns\":{\"approvalStatus\":\"The approval hook's status for the ruleset.\",\"ruleset\":\"The project's latest queued ruleset's struct.\"}},\"queueFor(uint256,uint256,uint256,uint256,address,uint256,uint256)\":{\"details\":\"Only a project's current controller can queue its rulesets.\",\"params\":{\"approvalHook\":\"An address of a contract that says whether a proposed ruleset should be accepted or rejected. It can be used to create rules around how a project owner can change ruleset parameters over time.\",\"decayRate\":\"A percent by how much the `weight` of the subsequent ruleset should be reduced, if the project owner hasn't queued the subsequent ruleset with an explicit `weight`. If it's 0, each ruleset will have equal weight. If the number is 90%, the next ruleset will have a 10% smaller weight. This weight is out of `JBConstants.MAX_DECAY_RATE`.\",\"duration\":\"The number of seconds the ruleset lasts for, after which a new ruleset will start. A duration of 0 means that the ruleset will stay active until the project owner explicitly issues a reconfiguration, at which point a new ruleset will immediately start with the updated properties. If the duration is greater than 0, a project owner cannot make changes to a ruleset's parameters while it is active – any proposed changes will apply to the subsequent ruleset. If no changes are proposed, a ruleset rolls over to another one with the same properties but new `start` timestamp and a decayed `weight`.\",\"metadata\":\"Arbitrary extra data to associate with this ruleset. This metadata is not used by `JBRulesets`.\",\"mustStartAtOrAfter\":\"The earliest time the ruleset can start. The ruleset cannot start before this timestamp.\",\"projectId\":\"The ID of the project the ruleset is being queued for.\",\"weight\":\"A fixed point number with 18 decimals that contracts can use to base arbitrary calculations on. For example, payment terminals can use this to determine how many tokens should be minted when a payment is received.\"},\"returns\":{\"_0\":\"The struct of the new ruleset.\"}},\"rulesetsOf(uint256,uint256,uint256)\":{\"params\":{\"projectId\":\"The ID of the project to get the rulesets of.\",\"size\":\"The maximum number of rulesets to return.\",\"startingId\":\"The ID of the ruleset to begin with. This will be the latest ruleset in the result. If 0 is passed, the project's latest ruleset will be used.\"},\"returns\":{\"rulesets\":\"The rulesets as an array of `JBRuleset` structs.\"}},\"upcomingRulesetOf(uint256)\":{\"details\":\"If an upcoming ruleset is not found for the project, returns an empty ruleset with all properties set to 0.\",\"params\":{\"projectId\":\"The ID of the project to get the upcoming ruleset of.\"},\"returns\":{\"ruleset\":\"The struct for the project's upcoming ruleset.\"}},\"updateRulesetWeightCache(uint256)\":{\"params\":{\"projectId\":\"The ID of the project having its ruleset weight cached.\"}}},\"version\":1},\"userdoc\":{\"kind\":\"user\",\"methods\":{\"DIRECTORY()\":{\"notice\":\"The directory of terminals and controllers for projects.\"},\"currentApprovalStatusForLatestRulesetOf(uint256)\":{\"notice\":\"The current approval status of a given project's latest ruleset.\"},\"currentOf(uint256)\":{\"notice\":\"The ruleset that is currently active for the specified project.\"},\"getRulesetOf(uint256,uint256)\":{\"notice\":\"Get the ruleset struct for a given `rulesetId` and `projectId`.\"},\"latestQueuedRulesetOf(uint256)\":{\"notice\":\"The latest ruleset queued for a project. Returns the ruleset's struct and its current approval status.\"},\"latestRulesetIdOf(uint256)\":{\"notice\":\"The ID of the ruleset with the latest start time for a specific project, whether the ruleset has been approved or not.\"},\"queueFor(uint256,uint256,uint256,uint256,address,uint256,uint256)\":{\"notice\":\"Queues the upcoming approvable ruleset for the specified project.\"},\"rulesetsOf(uint256,uint256,uint256)\":{\"notice\":\"Get an array of a project's rulesets up to a maximum array size, sorted from latest to earliest.\"},\"upcomingRulesetOf(uint256)\":{\"notice\":\"The ruleset that's up next for a project.\"},\"updateRulesetWeightCache(uint256)\":{\"notice\":\"Cache the value of the ruleset weight.\"}},\"version\":1}},\"settings\":{\"remappings\":[\"@bananapus/=node_modules/@bananapus/\",\"@chainlink/=node_modules/@chainlink/\",\"@eth-optimism/=node_modules/@eth-optimism/\",\"@gnosis.pm/=node_modules/@gnosis.pm/\",\"@openzeppelin/=node_modules/@openzeppelin/\",\"@prb/=node_modules/@prb/\",\"@sphinx-labs/contracts/=lib/sphinx/packages/contracts/contracts/foundry/\",\"@uniswap/=node_modules/@uniswap/\",\"ds-test/=lib/forge-std/lib/ds-test/src/\",\"forge-std/=lib/forge-std/src/\",\"hardhat/=node_modules/hardhat/\",\"solmate/=node_modules/solmate/\",\"sphinx-forge-std/=node_modules/sphinx-forge-std/\",\"sphinx-solmate/=node_modules/sphinx-solmate/\",\"sphinx/=lib/sphinx/\"],\"optimizer\":{\"enabled\":true,\"runs\":200},\"metadata\":{\"bytecodeHash\":\"ipfs\"},\"compilationTarget\":{\"src/JBRulesets.sol\":\"JBRulesets\"},\"evmVersion\":\"paris\",\"libraries\":{}},\"sources\":{\"node_modules/@openzeppelin/contracts/token/ERC721/IERC721.sol\":{\"keccak256\":\"0x5ef46daa3b58ef2702279d514780316efaa952915ee1aa3396f041ee2982b0b4\",\"urls\":[\"bzz-raw://2f8f2a76e23b02fc69e8cd24c3cb47da6c7af3a2d6c3a382f8ac25c6e094ade7\",\"dweb:/ipfs/QmPV4ZS4tPVv4mTCf9ejyZ1ai57EEibDRj7mN2ARDCLV5n\"],\"license\":\"MIT\"},\"node_modules/@openzeppelin/contracts/utils/introspection/IERC165.sol\":{\"keccak256\":\"0x4296879f55019b23e135000eb36896057e7101fb7fb859c5ef690cf14643757b\",\"urls\":[\"bzz-raw://87b3541437c8c443ccd36795e56a338ed12855eec17f8da624511b8d1a7e14df\",\"dweb:/ipfs/QmeJQCtZrQjtJLr6u7ZHWeH3pBnjtLWzvRrKViAi7UZqxL\"],\"license\":\"MIT\"},\"node_modules/@prb/math/src/Common.sol\":{\"keccak256\":\"0xaa374e2c26cc93e8c22a6953804ee05f811597ef5fa82f76824378b22944778b\",\"urls\":[\"bzz-raw://279c732e161d623cf4d8a9519ca4c42c0c2db99842d0eb2a20c10fde3fa722c9\",\"dweb:/ipfs/QmVViuUXbinQGqtG5M21SgVzKihiCbFUChd4tDhtvwRmxH\"],\"license\":\"MIT\"},\"src/JBRulesets.sol\":{\"keccak256\":\"0xd92f2897151637ec46f1a70d39ce45670ce3aafb03f3539240a943994fd0444b\",\"urls\":[\"bzz-raw://50415496ef3025d2d7c466d9b7888f0797f42877b401567b5dd3fe9e7ba95f62\",\"dweb:/ipfs/QmXqzzjpDRgJHEmkWm2h7HMVaLEEQ7pnvHNh86gkSsDQiv\"],\"license\":\"MIT\"},\"src/abstract/JBControlled.sol\":{\"keccak256\":\"0xdbaab889d033617969b7e0b453564e8eb76acb54e65b22289fff6fac90599d64\",\"urls\":[\"bzz-raw://860d67885d8095d49694a5c6c933ff0ad048a3db72412412b04e6b14c0fc8c59\",\"dweb:/ipfs/QmRHV7RdjwbQHtjpUxhNgnWzzES5X9duVTUPtCnJYrvjjc\"],\"license\":\"MIT\"},\"src/enums/JBApprovalStatus.sol\":{\"keccak256\":\"0x61c69b6bac7d24b566d87cda23a77e4ca9cdb87200b106aba8534cb9a0973e33\",\"urls\":[\"bzz-raw://6a9ca7249de76f77a8252eefe6bd1b63d47952f25a2acfa2c8db967cdff4470c\",\"dweb:/ipfs/QmaxSxptRQNj8bNy96EreENmrnRWdKmhyihBcxyWzBX5BN\"],\"license\":\"MIT\"},\"src/interfaces/IJBControlled.sol\":{\"keccak256\":\"0x79fb8de7b3f809f1c3c7189f578b7331ec4dfe3350151d5b50240ecb3a2a907b\",\"urls\":[\"bzz-raw://45c82240dd4f0e9aec00d0d86f6b44bdda231db098ebdac17e922771b3e6f342\",\"dweb:/ipfs/QmPUvT8HZeVenrZDpP14HsZofaXPJjih8UAd35rTg3tU7E\"],\"license\":\"MIT\"},\"src/interfaces/IJBDirectory.sol\":{\"keccak256\":\"0xd15957cc32974cde4f9f194b92574df2ad8a7aeec049d947136ce3381f9145f6\",\"urls\":[\"bzz-raw://7543e5cbde75ff777b16067016ff9ac5e995752842f03662137eb4ef3fc3c868\",\"dweb:/ipfs/QmPJZAmqNKRcj1JQ4Kc9hExbMtPPzrRB5hZ787utCfBmXg\"],\"license\":\"MIT\"},\"src/interfaces/IJBPayHook.sol\":{\"keccak256\":\"0xe24aa2ca52f7a5f24f24ccae101cfc94d0f76705b2d23222f87c7852f8be4267\",\"urls\":[\"bzz-raw://6888140e9a7d4156fd22635654d5d08e21819af8b0356b5415f37b75083b3eb9\",\"dweb:/ipfs/QmbuwBNhar7rEbRhTJPiyo5PVsfaM5nqLow9NAkHhyvjV5\"],\"license\":\"MIT\"},\"src/interfaces/IJBProjects.sol\":{\"keccak256\":\"0x85539f72c5871c53a919edc7db78931155464e9e00fccd30079b17e75820ddb9\",\"urls\":[\"bzz-raw://505466dbfbdeec77f948ce065676897a5b4a74b70bb234c1053b893c4849f3a1\",\"dweb:/ipfs/QmYBpZQub3Mv19xsRWqvzgiQSBAp4UNaKcqWQ2wwH62H95\"],\"license\":\"MIT\"},\"src/interfaces/IJBRulesetApprovalHook.sol\":{\"keccak256\":\"0x5e9f921a6aa5d9396a12bbc0a878c3f5e8ae0a4ce8a3abe0de12e300718838d7\",\"urls\":[\"bzz-raw://6c9f0610f5bbe07554a1bdc39041be1284c20d81d930bec1eee2d374b86e03f4\",\"dweb:/ipfs/QmPH57wBoPERwDWkBCcj9c5tEUdeeLNe2kv1oFM7cTKVrd\"],\"license\":\"MIT\"},\"src/interfaces/IJBRulesets.sol\":{\"keccak256\":\"0xda1a9aef337cf9fede3f638ffa58aea2815b87fde0f79628834aa03af9f582d7\",\"urls\":[\"bzz-raw://7941690ba6d94500474978ff0f02ecc56335eae5937759878e25cc1ac30a8ecc\",\"dweb:/ipfs/QmZFc7wof6PzfBTkVyNkjaQrQbjc36CK4uC3Ee2vgihqyK\"],\"license\":\"MIT\"},\"src/interfaces/IJBTokenUriResolver.sol\":{\"keccak256\":\"0xfa5cb00dcd6085d1ef912d071fe73c63f9478a2cd0f9d8bddaf659b6af2d0967\",\"urls\":[\"bzz-raw://282e4e7c342d65f77cde0e9a08fcaf20ef5cf379c7a48b639842c0ffd0b2afb8\",\"dweb:/ipfs/QmbnN3PEQeZaXdPLT75V1J79kMg7KqSMru37RHrL3z8Yf2\"],\"license\":\"MIT\"},\"src/interfaces/terminal/IJBTerminal.sol\":{\"keccak256\":\"0x36f23bc27e56fa86d100281a75f5a6ce73f39f32e6a1667ce69f902da1d005ee\",\"urls\":[\"bzz-raw://e8ffa2e264fa12444799cb5706ca577034f3f8be9ff7a2f072981de6a61d706d\",\"dweb:/ipfs/QmR6gQDymvk8JQ77J8VxpFD1Hnxga4w7LLiRvAT3m4LG6T\"],\"license\":\"MIT\"},\"src/libraries/JBConstants.sol\":{\"keccak256\":\"0x9d3a9a953f859d8ec79a599577f8972de6da7199cc1bfa7fdad017d4d722bcb4\",\"urls\":[\"bzz-raw://f151fcb53a8d2684eff8b9e56ac790bcbcadd8199a4fd4d17c5b224b22936722\",\"dweb:/ipfs/QmdAz1ZtCE8nTiC4AxQNLfJhnY3ndGum2Lbef7seKdvTdR\"],\"license\":\"MIT\"},\"src/structs/JBAccountingContext.sol\":{\"keccak256\":\"0x2907ff54d1e903cc7e0390dd88c3975884702dc2673642aacbe22b66560b56de\",\"urls\":[\"bzz-raw://a66a5381ce877b32f0e0058ceeaf843e9b6b2bc8af666c0c9f4a9d01091da004\",\"dweb:/ipfs/QmQynCetUr37dBkS1YwDS8evxuXGiqanW6THmeUxXtim8w\"],\"license\":\"MIT\"},\"src/structs/JBAfterPayRecordedContext.sol\":{\"keccak256\":\"0xd26c3a774ff38be79064085970454fe2603a23a638c76270d5b1b3829206c3e8\",\"urls\":[\"bzz-raw://3b55dbe3bf1ef625b7ca04efab3de35406e6041d5b3d82c7265469c500e2b702\",\"dweb:/ipfs/QmUdBDo4Lt3mcsFcsXT2mqq3czFwZjQJFPLM89YA2VtD7k\"],\"license\":\"MIT\"},\"src/structs/JBRuleset.sol\":{\"keccak256\":\"0x15b2bf3174d84846a91ccbf5a344dfb125b55ed9cf50102db8d6868844225189\",\"urls\":[\"bzz-raw://647416b025dbd941094db89cbc69f755c155bd6c87be3f322394ccc4a8e0442d\",\"dweb:/ipfs/QmTCL9xcHnxQ4t5AmCPoZvXDUPW5xhzhyyXYbkMdyg44au\"],\"license\":\"MIT\"},\"src/structs/JBRulesetWeightCache.sol\":{\"keccak256\":\"0x20da9376d0b4b24f7bfb049ac13991ac4a9f5676c3bae5c6fb049a78239d1529\",\"urls\":[\"bzz-raw://11f9b1b4373ce700b82e4159bd6688115aae349996f73d3571abf99fa8cdb1aa\",\"dweb:/ipfs/QmV8DxuoUskd6frKLhT61Sq4VTCygrcS6jbXHJU9KmHX1h\"],\"license\":\"MIT\"},\"src/structs/JBTokenAmount.sol\":{\"keccak256\":\"0x5cf0626b73a596c1e2da17c89ae039a7c0374310b060d48568d3b6c11fbe6180\",\"urls\":[\"bzz-raw://63348b50be95e2995409394a17caffc563a646f0972650a1230bf864fbd3219b\",\"dweb:/ipfs/QmZXZpS3SbFD5nWaCauf6AqbEhLURv5qsKHpThBvQgDU6u\"],\"license\":\"MIT\"}},\"version\":1}",
			"args": [
				"0x18017cfeD48E1dC0Adc445cEF8A9e6AfFCb330DA"
			],
			"bytecode": "0x60a060405234801561001057600080fd5b5060405161195c38038061195c83398101604081905261002f91610040565b6001600160a01b0316608052610070565b60006020828403121561005257600080fd5b81516001600160a01b038116811461006957600080fd5b9392505050565b6080516118ca61009260003960008181610125015261039501526118ca6000f3fe608060405234801561001057600080fd5b506004361061009e5760003560e01c80638b04533a116100665780638b04533a1461015f578063b51d624414610174578063c02c63ad14610194578063c1ec61ee146101a7578063d7e1ec88146101c857600080fd5b806325a61d5c146100a357806333f5bd0a146100cc57806343a266c2146100fa57806370174dcc1461010d57806388bc2ef314610120575b600080fd5b6100b66100b1366004611547565b6101e8565b6040516100c391906115c8565b60405180910390f35b6100ec6100da3660046115d7565b60006020819052908152604090205481565b6040519081526020016100c3565b6100b66101083660046115d7565b610203565b6100b661011b366004611608565b61036b565b6101477f000000000000000000000000000000000000000000000000000000000000000081565b6040516001600160a01b0390911681526020016100c3565b61017261016d3660046115d7565b6106ec565b005b610187610182366004611667565b6107d3565b6040516100c39190611693565b6100b66101a23660046115d7565b610903565b6101ba6101b53660046115d7565b610aa4565b6040516100c392919061171a565b6101db6101d63660046115d7565b610ae7565b6040516100c39190611737565b6101f06114f2565b6101fa8383610b1b565b90505b92915050565b61020b6114f2565b600082815260208190526040812054900361022b576101fd600080610b1b565b600061023683610be0565b905080156102ae576102488382610b1b565b915060006102568484610c6c565b9050600481600581111561026c5761026c6116e2565b148061028957506000816005811115610287576102876116e2565b145b15610295575050919050565b826040015191506102a68483610b1b565b925050610346565b506000828152602081905260409020546102c88382610b1b565b915060006102d68484610c6c565b90505b60048160058111156102ed576102ed6116e2565b1415801561030d5750600081600581111561030a5761030a6116e2565b14155b8061031b5750826060015142105b1561034457826040015191506103318483610b1b565b925061033d8484610c6c565b90506102d9565b505b81608001516000036103585750919050565b61036483836001610c86565b9392505050565b6103736114f2565b604051632eec7b5560e11b815260048101899052889033906001600160a01b037f00000000000000000000000000000000000000000000000000000000000000001690635dd8f6aa90602401602060405180830381865afa1580156103dc573d6000803e3d6000fd5b505050506040513d601f19601f820116820180604052508101906104009190611745565b6001600160a01b03161461042757604051632adfdd0560e21b815260040160405180910390fd5b63ffffffff88111561044c57604051631525af6b60e31b815260040160405180910390fd5b633b9aca0086111561047157604051637027d73760e01b815260040160405180910390fd5b6affffffffffffffffffffff87111561049d5760405163698f22ad60e01b815260040160405180910390fd5b826000036104a9574292505b66ffffffffffffff6104bb8985611778565b11156104da5760405163acc92f5b60e01b815260040160405180910390fd5b6001600160a01b038516156105b857846001600160a01b03163b6000036105145760405163a903807d60e01b815260040160405180910390fd5b6040516301ffc9a760e01b8152634b80c8df60e01b60048201526001600160a01b038616906301ffc9a790602401602060405180830381865afa92505050801561057b575060408051601f3d908101601f191682019092526105789181019061178b565b60015b6105985760405163a903807d60e01b815260040160405180910390fd5b806105b65760405163a903807d60e01b815260040160405180910390fd5b505b60008981526020819052604081205490428210156105d657426105e1565b6105e1826001611778565b90506105ef8b828b88610d56565b6001600160a01b038716151580610606575060008a115b806106115750600088115b156106485760008b8152600160209081526040808320848452909152902060c089901b60a08c901b6001600160a01b038a16171790555b851561066b5760008b815260036020908152604080832084845290915290208690555b604080518b8152602081018b90529081018990526001600160a01b03881660608201526080810187905260a081018690523360c08201528b9082907f11a490bebff1beffe4bdd210894aca6ea5049427ce4b3c48865717677199cb079060e00160405180910390a36106dd8b82610b1b565b9b9a5050505050505050505050565b600081815260208190526040812054610706908390610b1b565b905080608001516000148061071d575060c0810151155b15610726575050565b600082815260046020908152604080832084830151845290915281206080830151600182015491929161075c9061c35090611778565b61076691906117ad565b83606001516107759190611778565b905060008142106107865781610788565b425b9050600084606001518261079c91906117c4565b90506000856080015182816107b3576107b36117d7565b0490506107c1878785610fa9565b85556001909401939093555050505050565b6060826000036107ef5760008481526020819052604090205492505b6000806107fc8686610b1b565b90505b60208101511580159061081157508382105b156108385781610820816117ed565b925050610831868260400151610b1b565b90506107ff565b8167ffffffffffffffff81111561085157610851611806565b60405190808252806020026020018201604052801561088a57816020015b6108776114f2565b81526020019060019003908161086f5790505b5092508160000361089c575050610364565b6108a68686610b1b565b905060005b828110156108f9578184826108bf816117ed565b9350815181106108d1576108d161181c565b60200260200101819052508281146108f4576108f1878360400151610b1b565b91505b6108ab565b5050509392505050565b61090b6114f2565b600082815260208190526040812054900361092b576101fd600080610b1b565b6000610936836110ae565b9050600081156109c65761094a8483610b1b565b92506109568484610c6c565b9050600481600581111561096c5761096c6116e2565b148061098957506003816005811115610987576109876116e2565b145b806109a5575060008160058111156109a3576109a36116e2565b145b156109b1575050919050565b6109bf848460400151610b1b565b9250610a04565b6000848152602081905260409020546109e0908590610b1b565b92505b4283606001511115610a04576109fd848460400151610b1b565b92506109e3565b8260800151600003610a2357610a1b600080610b1b565b949350505050565b610a2d8484610c6c565b90506004816005811115610a4357610a436116e2565b1480610a6057506000816005811115610a5e57610a5e6116e2565b145b15610a7157610a1b84846000610c86565b610a7f848460400151610b1b565b92508260800151600003610a9857610a1b600080610b1b565b610a1b84846000610c86565b610aac6114f2565b600082815260208190526040812054610ac58482610b1b565b9250610adf84846020015185606001518660400151611170565b915050915091565b60008181526020819052604081205481610b018483610b1b565b9050610a1b84826020015183606001518460400151611170565b610b236114f2565b81156101fd57602081810183905260008481526002825260408082208583528352808220546affffffffffffffffffffff811660a080870191909152605882901c66ffffffffffffff90811684880152609083901c16606087015260c89190911c8552868352600184528183208684528452818320546001600160a01b03811660e08701529081901c63ffffffff908116608087015260c091821c1690850152948152600382528481209381529290529190205461010082015290565b60008181526020819052604081205481610bfa8483610b1b565b90505b608081015115801590610c23575080608001518160600151610c1f9190611778565b4210155b15610c32575060009392505050565b80606001514210610c4857602001519392505050565b610c56848260400151610b1b565b8051909150600003610bfd575060009392505050565b60006101fa83836020015184606001518560400151611170565b610c8e6114f2565b60008215610cb5576080840151610ca590426117c4565b610cb0906001611778565b610cc0565b610cc0426001611778565b90506000610cce8583611234565b90506000610cdc86836112c0565b9050604051806101200160405280828152602001876020015181526020018760400151815260200183815260200187608001518152602001610d1f898986610fa9565b81526020018760c0015181526020018760e001516001600160a01b0316815260200187610100015181525093505050509392505050565b60008481526020819052604081205490819003610d8a57610d8485610d7c600080610b1b565b868587611312565b50610fa3565b6000610d968683610b1b565b90506000610da48783610c6c565b905081606001514210158015610dcc57506004816005811115610dc957610dc96116e2565b14155b8015610dea57506000816005811115610de757610de76116e2565b14155b80610e335750816060015142108015610e15575081608001518260600151610e129190611778565b84105b8015610e3357506004816005811115610e3057610e306116e2565b14155b80610eb95750816060015142108015610e5f575081608001518260600151610e5b9190611778565b8410155b8015610e7d57506004816005811115610e7a57610e7a6116e2565b14155b8015610e9b57506003816005811115610e9857610e986116e2565b14155b8015610eb957506000816005811115610eb657610eb66116e2565b14155b15610ecf57610ecc878360400151610b1b565b91505b85826020015103610ef35760405163dad3de1760e01b815260040160405180910390fd5b60e08201516000906001600160a01b031615610f7e578260e001516001600160a01b0316631be052896040518163ffffffff1660e01b8152600401602060405180830381865afa158015610f4b573d6000803e3d6000fd5b505050506040513d601f19601f82011682018060405250810190610f6f9190611832565b610f799088611778565b610f81565b60005b9050610f9e888489888511610f965788610f98565b845b8a611312565b505050505b50505050565b60008260800151600003610fe457610fdd8360a001518460c00151633b9aca00610fd391906117c4565b633b9aca0061141a565b9050610364565b5060a082015160c08301511561036457600083606001518361100691906117c4565b905060008460800151828161101d5761101d6117d7565b0490506103e881111561107b5760008681526004602090815260408083208883015184528252918290208251808401909352805483526001015490820181905215611079578051602082015190945061107690836117c4565b91505b505b60005b818110156108f95761109e848760c00151633b9aca00610fd391906117c4565b935083156108f95760010161107e565b600081815260208190526040812054906110c88383610b1b565b9050806060015142106110de5750600092915050565b80516001036110ed5750919050565b60408101516110fa6114f2565b6111048583610b1b565b905080606001514210156111255780602001519350806040015191506110fa565b61112f8585610b1b565b9250806080015160001415801561115857508060800151836060015161115591906117c4565b42105b1561116857506000949350505050565b505050919050565b60008160000361118257506000610a1b565b600061118e8684610b1b565b60e08101519091506001600160a01b03166111ad576000915050610a1b565b60e08101516040516328304d2b60e11b81526004810188905260248101879052604481018690526001600160a01b03909116906350609a5690606401602060405180830381865afa158015611206573d6000803e3d6000fd5b505050506040513d601f19601f8201168201806040525081019061122a919061184b565b9695505050505050565b600082608001516000036112495750806101fd565b60008360800151846060015161125f9190611778565b905082811061126f5790506101fd565b608084015160009061128183866117c4565b61128b919061186c565b905061129781856117c4565b92505b828411156112b85760808501516112b19084611778565b925061129a565b505092915050565b600082608001516000036112e25782516112db906001611778565b90506101fd565b60008360600151836112f491906117c4565b90508360800151816113069190611880565b8451610a1b9190611778565b83516000036113545760208085015160008781526002835260408082208783529093529190912060589190911b8217609084901b17600160c81b1790556113d2565b60006113608584611234565b90506000821161137a57611375868683610fa9565b61138b565b81600114611388578161138b565b60005b9150600061139986836112c0565b60208088015160008a81526002835260408082208a83529093529190912060589190911b8517609085901b1760c883901b179055905050505b6000858152602081815260408083208690559086015190519091879186917ffda207e5d149787155cf9596283f246f082d4744a57e37dda99146e5dcc542bb91a45050505050565b60008080600019858709858702925082811083820303915050806000036114545783828161144a5761144a6117d7565b0492505050610364565b83811061148957604051630c740aef60e31b815260048101879052602481018690526044810185905260640160405180910390fd5b60008486880960026001871981018816978890046003810283188082028403028082028403028082028403028082028403028082028403029081029092039091026000889003889004909101858311909403939093029303949094049190911702949350505050565b6040518061012001604052806000815260200160008152602001600081526020016000815260200160008152602001600081526020016000815260200160006001600160a01b03168152602001600081525090565b6000806040838503121561155a57600080fd5b50508035926020909101359150565b805182526020808201519083015260408082015190830152606080820151908301526080808201519083015260a0808201519083015260c0808201519083015260e0808201516001600160a01b03169083015261010090810151910152565b61012081016101fd8284611569565b6000602082840312156115e957600080fd5b5035919050565b6001600160a01b038116811461160557600080fd5b50565b600080600080600080600060e0888a03121561162357600080fd5b87359650602088013595506040880135945060608801359350608088013561164a816115f0565b9699959850939692959460a0840135945060c09093013592915050565b60008060006060848603121561167c57600080fd5b505081359360208301359350604090920135919050565b6020808252825182820181905260009190848201906040850190845b818110156116d6576116c2838551611569565b9284019261012092909201916001016116af565b50909695505050505050565b634e487b7160e01b600052602160045260246000fd5b6006811061171657634e487b7160e01b600052602160045260246000fd5b9052565b61014081016117298285611569565b6103646101208301846116f8565b602081016101fd82846116f8565b60006020828403121561175757600080fd5b8151610364816115f0565b634e487b7160e01b600052601160045260246000fd5b808201808211156101fd576101fd611762565b60006020828403121561179d57600080fd5b8151801515811461036457600080fd5b80820281158282048414176101fd576101fd611762565b818103818111156101fd576101fd611762565b634e487b7160e01b600052601260045260246000fd5b6000600182016117ff576117ff611762565b5060010190565b634e487b7160e01b600052604160045260246000fd5b634e487b7160e01b600052603260045260246000fd5b60006020828403121561184457600080fd5b5051919050565b60006020828403121561185d57600080fd5b81516006811061036457600080fd5b60008261187b5761187b6117d7565b500690565b60008261188f5761188f6117d7565b50049056fea2646970667358221220b2ae58572f72f49705dde0127d136b3d95d4b37dd6ebd4a2e30eb44f6b572a8b64736f6c63430008170033",
			"deployedBytecode": "0x608060405234801561001057600080fd5b506004361061009e5760003560e01c80638b04533a116100665780638b04533a1461015f578063b51d624414610174578063c02c63ad14610194578063c1ec61ee146101a7578063d7e1ec88146101c857600080fd5b806325a61d5c146100a357806333f5bd0a146100cc57806343a266c2146100fa57806370174dcc1461010d57806388bc2ef314610120575b600080fd5b6100b66100b1366004611547565b6101e8565b6040516100c391906115c8565b60405180910390f35b6100ec6100da3660046115d7565b60006020819052908152604090205481565b6040519081526020016100c3565b6100b66101083660046115d7565b610203565b6100b661011b366004611608565b61036b565b6101477f00000000000000000000000018017cfed48e1dc0adc445cef8a9e6affcb330da81565b6040516001600160a01b0390911681526020016100c3565b61017261016d3660046115d7565b6106ec565b005b610187610182366004611667565b6107d3565b6040516100c39190611693565b6100b66101a23660046115d7565b610903565b6101ba6101b53660046115d7565b610aa4565b6040516100c392919061171a565b6101db6101d63660046115d7565b610ae7565b6040516100c39190611737565b6101f06114f2565b6101fa8383610b1b565b90505b92915050565b61020b6114f2565b600082815260208190526040812054900361022b576101fd600080610b1b565b600061023683610be0565b905080156102ae576102488382610b1b565b915060006102568484610c6c565b9050600481600581111561026c5761026c6116e2565b148061028957506000816005811115610287576102876116e2565b145b15610295575050919050565b826040015191506102a68483610b1b565b925050610346565b506000828152602081905260409020546102c88382610b1b565b915060006102d68484610c6c565b90505b60048160058111156102ed576102ed6116e2565b1415801561030d5750600081600581111561030a5761030a6116e2565b14155b8061031b5750826060015142105b1561034457826040015191506103318483610b1b565b925061033d8484610c6c565b90506102d9565b505b81608001516000036103585750919050565b61036483836001610c86565b9392505050565b6103736114f2565b604051632eec7b5560e11b815260048101899052889033906001600160a01b037f00000000000000000000000018017cfed48e1dc0adc445cef8a9e6affcb330da1690635dd8f6aa90602401602060405180830381865afa1580156103dc573d6000803e3d6000fd5b505050506040513d601f19601f820116820180604052508101906104009190611745565b6001600160a01b03161461042757604051632adfdd0560e21b815260040160405180910390fd5b63ffffffff88111561044c57604051631525af6b60e31b815260040160405180910390fd5b633b9aca0086111561047157604051637027d73760e01b815260040160405180910390fd5b6affffffffffffffffffffff87111561049d5760405163698f22ad60e01b815260040160405180910390fd5b826000036104a9574292505b66ffffffffffffff6104bb8985611778565b11156104da5760405163acc92f5b60e01b815260040160405180910390fd5b6001600160a01b038516156105b857846001600160a01b03163b6000036105145760405163a903807d60e01b815260040160405180910390fd5b6040516301ffc9a760e01b8152634b80c8df60e01b60048201526001600160a01b038616906301ffc9a790602401602060405180830381865afa92505050801561057b575060408051601f3d908101601f191682019092526105789181019061178b565b60015b6105985760405163a903807d60e01b815260040160405180910390fd5b806105b65760405163a903807d60e01b815260040160405180910390fd5b505b60008981526020819052604081205490428210156105d657426105e1565b6105e1826001611778565b90506105ef8b828b88610d56565b6001600160a01b038716151580610606575060008a115b806106115750600088115b156106485760008b8152600160209081526040808320848452909152902060c089901b60a08c901b6001600160a01b038a16171790555b851561066b5760008b815260036020908152604080832084845290915290208690555b604080518b8152602081018b90529081018990526001600160a01b03881660608201526080810187905260a081018690523360c08201528b9082907f11a490bebff1beffe4bdd210894aca6ea5049427ce4b3c48865717677199cb079060e00160405180910390a36106dd8b82610b1b565b9b9a5050505050505050505050565b600081815260208190526040812054610706908390610b1b565b905080608001516000148061071d575060c0810151155b15610726575050565b600082815260046020908152604080832084830151845290915281206080830151600182015491929161075c9061c35090611778565b61076691906117ad565b83606001516107759190611778565b905060008142106107865781610788565b425b9050600084606001518261079c91906117c4565b90506000856080015182816107b3576107b36117d7565b0490506107c1878785610fa9565b85556001909401939093555050505050565b6060826000036107ef5760008481526020819052604090205492505b6000806107fc8686610b1b565b90505b60208101511580159061081157508382105b156108385781610820816117ed565b925050610831868260400151610b1b565b90506107ff565b8167ffffffffffffffff81111561085157610851611806565b60405190808252806020026020018201604052801561088a57816020015b6108776114f2565b81526020019060019003908161086f5790505b5092508160000361089c575050610364565b6108a68686610b1b565b905060005b828110156108f9578184826108bf816117ed565b9350815181106108d1576108d161181c565b60200260200101819052508281146108f4576108f1878360400151610b1b565b91505b6108ab565b5050509392505050565b61090b6114f2565b600082815260208190526040812054900361092b576101fd600080610b1b565b6000610936836110ae565b9050600081156109c65761094a8483610b1b565b92506109568484610c6c565b9050600481600581111561096c5761096c6116e2565b148061098957506003816005811115610987576109876116e2565b145b806109a5575060008160058111156109a3576109a36116e2565b145b156109b1575050919050565b6109bf848460400151610b1b565b9250610a04565b6000848152602081905260409020546109e0908590610b1b565b92505b4283606001511115610a04576109fd848460400151610b1b565b92506109e3565b8260800151600003610a2357610a1b600080610b1b565b949350505050565b610a2d8484610c6c565b90506004816005811115610a4357610a436116e2565b1480610a6057506000816005811115610a5e57610a5e6116e2565b145b15610a7157610a1b84846000610c86565b610a7f848460400151610b1b565b92508260800151600003610a9857610a1b600080610b1b565b610a1b84846000610c86565b610aac6114f2565b600082815260208190526040812054610ac58482610b1b565b9250610adf84846020015185606001518660400151611170565b915050915091565b60008181526020819052604081205481610b018483610b1b565b9050610a1b84826020015183606001518460400151611170565b610b236114f2565b81156101fd57602081810183905260008481526002825260408082208583528352808220546affffffffffffffffffffff811660a080870191909152605882901c66ffffffffffffff90811684880152609083901c16606087015260c89190911c8552868352600184528183208684528452818320546001600160a01b03811660e08701529081901c63ffffffff908116608087015260c091821c1690850152948152600382528481209381529290529190205461010082015290565b60008181526020819052604081205481610bfa8483610b1b565b90505b608081015115801590610c23575080608001518160600151610c1f9190611778565b4210155b15610c32575060009392505050565b80606001514210610c4857602001519392505050565b610c56848260400151610b1b565b8051909150600003610bfd575060009392505050565b60006101fa83836020015184606001518560400151611170565b610c8e6114f2565b60008215610cb5576080840151610ca590426117c4565b610cb0906001611778565b610cc0565b610cc0426001611778565b90506000610cce8583611234565b90506000610cdc86836112c0565b9050604051806101200160405280828152602001876020015181526020018760400151815260200183815260200187608001518152602001610d1f898986610fa9565b81526020018760c0015181526020018760e001516001600160a01b0316815260200187610100015181525093505050509392505050565b60008481526020819052604081205490819003610d8a57610d8485610d7c600080610b1b565b868587611312565b50610fa3565b6000610d968683610b1b565b90506000610da48783610c6c565b905081606001514210158015610dcc57506004816005811115610dc957610dc96116e2565b14155b8015610dea57506000816005811115610de757610de76116e2565b14155b80610e335750816060015142108015610e15575081608001518260600151610e129190611778565b84105b8015610e3357506004816005811115610e3057610e306116e2565b14155b80610eb95750816060015142108015610e5f575081608001518260600151610e5b9190611778565b8410155b8015610e7d57506004816005811115610e7a57610e7a6116e2565b14155b8015610e9b57506003816005811115610e9857610e986116e2565b14155b8015610eb957506000816005811115610eb657610eb66116e2565b14155b15610ecf57610ecc878360400151610b1b565b91505b85826020015103610ef35760405163dad3de1760e01b815260040160405180910390fd5b60e08201516000906001600160a01b031615610f7e578260e001516001600160a01b0316631be052896040518163ffffffff1660e01b8152600401602060405180830381865afa158015610f4b573d6000803e3d6000fd5b505050506040513d601f19601f82011682018060405250810190610f6f9190611832565b610f799088611778565b610f81565b60005b9050610f9e888489888511610f965788610f98565b845b8a611312565b505050505b50505050565b60008260800151600003610fe457610fdd8360a001518460c00151633b9aca00610fd391906117c4565b633b9aca0061141a565b9050610364565b5060a082015160c08301511561036457600083606001518361100691906117c4565b905060008460800151828161101d5761101d6117d7565b0490506103e881111561107b5760008681526004602090815260408083208883015184528252918290208251808401909352805483526001015490820181905215611079578051602082015190945061107690836117c4565b91505b505b60005b818110156108f95761109e848760c00151633b9aca00610fd391906117c4565b935083156108f95760010161107e565b600081815260208190526040812054906110c88383610b1b565b9050806060015142106110de5750600092915050565b80516001036110ed5750919050565b60408101516110fa6114f2565b6111048583610b1b565b905080606001514210156111255780602001519350806040015191506110fa565b61112f8585610b1b565b9250806080015160001415801561115857508060800151836060015161115591906117c4565b42105b1561116857506000949350505050565b505050919050565b60008160000361118257506000610a1b565b600061118e8684610b1b565b60e08101519091506001600160a01b03166111ad576000915050610a1b565b60e08101516040516328304d2b60e11b81526004810188905260248101879052604481018690526001600160a01b03909116906350609a5690606401602060405180830381865afa158015611206573d6000803e3d6000fd5b505050506040513d601f19601f8201168201806040525081019061122a919061184b565b9695505050505050565b600082608001516000036112495750806101fd565b60008360800151846060015161125f9190611778565b905082811061126f5790506101fd565b608084015160009061128183866117c4565b61128b919061186c565b905061129781856117c4565b92505b828411156112b85760808501516112b19084611778565b925061129a565b505092915050565b600082608001516000036112e25782516112db906001611778565b90506101fd565b60008360600151836112f491906117c4565b90508360800151816113069190611880565b8451610a1b9190611778565b83516000036113545760208085015160008781526002835260408082208783529093529190912060589190911b8217609084901b17600160c81b1790556113d2565b60006113608584611234565b90506000821161137a57611375868683610fa9565b61138b565b81600114611388578161138b565b60005b9150600061139986836112c0565b60208088015160008a81526002835260408082208a83529093529190912060589190911b8517609085901b1760c883901b179055905050505b6000858152602081815260408083208690559086015190519091879186917ffda207e5d149787155cf9596283f246f082d4744a57e37dda99146e5dcc542bb91a45050505050565b60008080600019858709858702925082811083820303915050806000036114545783828161144a5761144a6117d7565b0492505050610364565b83811061148957604051630c740aef60e31b815260048101879052602481018690526044810185905260640160405180910390fd5b60008486880960026001871981018816978890046003810283188082028403028082028403028082028403028082028403028082028403029081029092039091026000889003889004909101858311909403939093029303949094049190911702949350505050565b6040518061012001604052806000815260200160008152602001600081526020016000815260200160008152602001600081526020016000815260200160006001600160a01b03168152602001600081525090565b6000806040838503121561155a57600080fd5b50508035926020909101359150565b805182526020808201519083015260408082015190830152606080820151908301526080808201519083015260a0808201519083015260c0808201519083015260e0808201516001600160a01b03169083015261010090810151910152565b61012081016101fd8284611569565b6000602082840312156115e957600080fd5b5035919050565b6001600160a01b038116811461160557600080fd5b50565b600080600080600080600060e0888a03121561162357600080fd5b87359650602088013595506040880135945060608801359350608088013561164a816115f0565b9699959850939692959460a0840135945060c09093013592915050565b60008060006060848603121561167c57600080fd5b505081359360208301359350604090920135919050565b6020808252825182820181905260009190848201906040850190845b818110156116d6576116c2838551611569565b9284019261012092909201916001016116af565b50909695505050505050565b634e487b7160e01b600052602160045260246000fd5b6006811061171657634e487b7160e01b600052602160045260246000fd5b9052565b61014081016117298285611569565b6103646101208301846116f8565b602081016101fd82846116f8565b60006020828403121561175757600080fd5b8151610364816115f0565b634e487b7160e01b600052601160045260246000fd5b808201808211156101fd576101fd611762565b60006020828403121561179d57600080fd5b8151801515811461036457600080fd5b80820281158282048414176101fd576101fd611762565b818103818111156101fd576101fd611762565b634e487b7160e01b600052601260045260246000fd5b6000600182016117ff576117ff611762565b5060010190565b634e487b7160e01b600052604160045260246000fd5b634e487b7160e01b600052603260045260246000fd5b60006020828403121561184457600080fd5b5051919050565b60006020828403121561185d57600080fd5b81516006811061036457600080fd5b60008261187b5761187b6117d7565b500690565b60008261188f5761188f6117d7565b50049056fea2646970667358221220b2ae58572f72f49705dde0127d136b3d95d4b37dd6ebd4a2e30eb44f6b572a8b64736f6c63430008170033",
			"devdoc": {
				"kind": "dev",
				"methods": {
					"constructor": {
						"params": {
							"directory": "A contract storing directories of terminals and controllers for each project."
						}
					},
					"currentApprovalStatusForLatestRulesetOf(uint256)": {
						"params": {
							"projectId": "The ID of the project to check the approval status of."
						},
						"returns": {
							"_0": "The project's current approval status."
						}
					},
					"currentOf(uint256)": {
						"details": "If a current ruleset of the project is not found, returns an empty ruleset with all properties set to 0.",
						"params": {
							"projectId": "The ID of the project to get the current ruleset of."
						},
						"returns": {
							"ruleset": "The project's current ruleset."
						}
					},
					"getRulesetOf(uint256,uint256)": {
						"params": {
							"projectId": "The ID of the project to which the ruleset belongs.",
							"rulesetId": "The ID of the ruleset to get the struct of."
						},
						"returns": {
							"ruleset": "The ruleset struct."
						}
					},
					"latestQueuedRulesetOf(uint256)": {
						"details": "Returns struct and status for the ruleset initialized furthest in the future (at the end of the rulset queue).",
						"params": {
							"projectId": "The ID of the project to get the latest queued ruleset of."
						},
						"returns": {
							"approvalStatus": "The approval hook's status for the ruleset.",
							"ruleset": "The project's latest queued ruleset's struct."
						}
					},
					"queueFor(uint256,uint256,uint256,uint256,address,uint256,uint256)": {
						"details": "Only a project's current controller can queue its rulesets.",
						"params": {
							"approvalHook": "An address of a contract that says whether a proposed ruleset should be accepted or rejected. It can be used to create rules around how a project owner can change ruleset parameters over time.",
							"decayRate": "A percent by how much the `weight` of the subsequent ruleset should be reduced, if the project owner hasn't queued the subsequent ruleset with an explicit `weight`. If it's 0, each ruleset will have equal weight. If the number is 90%, the next ruleset will have a 10% smaller weight. This weight is out of `JBConstants.MAX_DECAY_RATE`.",
							"duration": "The number of seconds the ruleset lasts for, after which a new ruleset will start. A duration of 0 means that the ruleset will stay active until the project owner explicitly issues a reconfiguration, at which point a new ruleset will immediately start with the updated properties. If the duration is greater than 0, a project owner cannot make changes to a ruleset's parameters while it is active – any proposed changes will apply to the subsequent ruleset. If no changes are proposed, a ruleset rolls over to another one with the same properties but new `start` timestamp and a decayed `weight`.",
							"metadata": "Arbitrary extra data to associate with this ruleset. This metadata is not used by `JBRulesets`.",
							"mustStartAtOrAfter": "The earliest time the ruleset can start. The ruleset cannot start before this timestamp.",
							"projectId": "The ID of the project the ruleset is being queued for.",
							"weight": "A fixed point number with 18 decimals that contracts can use to base arbitrary calculations on. For example, payment terminals can use this to determine how many tokens should be minted when a payment is received."
						},
						"returns": {
							"_0": "The struct of the new ruleset."
						}
					},
					"rulesetsOf(uint256,uint256,uint256)": {
						"params": {
							"projectId": "The ID of the project to get the rulesets of.",
							"size": "The maximum number of rulesets to return.",
							"startingId": "The ID of the ruleset to begin with. This will be the latest ruleset in the result. If 0 is passed, the project's latest ruleset will be used."
						},
						"returns": {
							"rulesets": "The rulesets as an array of `JBRuleset` structs."
						}
					},
					"upcomingRulesetOf(uint256)": {
						"details": "If an upcoming ruleset is not found for the project, returns an empty ruleset with all properties set to 0.",
						"params": {
							"projectId": "The ID of the project to get the upcoming ruleset of."
						},
						"returns": {
							"ruleset": "The struct for the project's upcoming ruleset."
						}
					},
					"updateRulesetWeightCache(uint256)": {
						"params": {
							"projectId": "The ID of the project having its ruleset weight cached."
						}
					}
				},
				"version": 1
			},
			"userdoc": {
				"kind": "user",
				"methods": {
					"DIRECTORY()": {
						"notice": "The directory of terminals and controllers for projects."
					},
					"currentApprovalStatusForLatestRulesetOf(uint256)": {
						"notice": "The current approval status of a given project's latest ruleset."
					},
					"currentOf(uint256)": {
						"notice": "The ruleset that is currently active for the specified project."
					},
					"getRulesetOf(uint256,uint256)": {
						"notice": "Get the ruleset struct for a given `rulesetId` and `projectId`."
					},
					"latestQueuedRulesetOf(uint256)": {
						"notice": "The latest ruleset queued for a project. Returns the ruleset's struct and its current approval status."
					},
					"latestRulesetIdOf(uint256)": {
						"notice": "The ID of the ruleset with the latest start time for a specific project, whether the ruleset has been approved or not."
					},
					"queueFor(uint256,uint256,uint256,uint256,address,uint256,uint256)": {
						"notice": "Queues the upcoming approvable ruleset for the specified project."
					},
					"rulesetsOf(uint256,uint256,uint256)": {
						"notice": "Get an array of a project's rulesets up to a maximum array size, sorted from latest to earliest."
					},
					"upcomingRulesetOf(uint256)": {
						"notice": "The ruleset that's up next for a project."
					},
					"updateRulesetWeightCache(uint256)": {
						"notice": "Cache the value of the ruleset weight."
					}
				},
				"version": 1
			},
			"gitCommit": "b03f34d98eacd4484804213a3ba52efcdbe9107e",
			"sourceName": "src/JBRulesets.sol",
			"chainId": "11155111",
			"linkReferences": {},
			"deployedLinkReferences": {}
		}
	]
}