{
	"_format": "sphinx-sol-ct-artifact-1",
	"merkleRoot": "0x1c031ac0217a16bc8b880bc3a6e637a3fb319bf6343a8af2f9d37587d2ef9836",
	"contractName": "JBController",
	"address": "0xFF7e1C600b8af88De885A7c68C3e737401082423",
	"abi": [
		{
			"type": "constructor",
			"inputs": [
				{
					"name": "permissions",
					"type": "address",
					"internalType": "contract IJBPermissions"
				},
				{
					"name": "projects",
					"type": "address",
					"internalType": "contract IJBProjects"
				},
				{
					"name": "directory",
					"type": "address",
					"internalType": "contract IJBDirectory"
				},
				{
					"name": "rulesets",
					"type": "address",
					"internalType": "contract IJBRulesets"
				},
				{
					"name": "tokens",
					"type": "address",
					"internalType": "contract IJBTokens"
				},
				{
					"name": "splits",
					"type": "address",
					"internalType": "contract IJBSplits"
				},
				{
					"name": "fundAccessLimits",
					"type": "address",
					"internalType": "contract IJBFundAccessLimits"
				},
				{
					"name": "trustedForwarder",
					"type": "address",
					"internalType": "address"
				}
			],
			"stateMutability": "nonpayable"
		},
		{
			"type": "function",
			"name": "DIRECTORY",
			"inputs": [],
			"outputs": [
				{
					"name": "",
					"type": "address",
					"internalType": "contract IJBDirectory"
				}
			],
			"stateMutability": "view"
		},
		{
			"type": "function",
			"name": "FUND_ACCESS_LIMITS",
			"inputs": [],
			"outputs": [
				{
					"name": "",
					"type": "address",
					"internalType": "contract IJBFundAccessLimits"
				}
			],
			"stateMutability": "view"
		},
		{
			"type": "function",
			"name": "PERMISSIONS",
			"inputs": [],
			"outputs": [
				{
					"name": "",
					"type": "address",
					"internalType": "contract IJBPermissions"
				}
			],
			"stateMutability": "view"
		},
		{
			"type": "function",
			"name": "PROJECTS",
			"inputs": [],
			"outputs": [
				{
					"name": "",
					"type": "address",
					"internalType": "contract IJBProjects"
				}
			],
			"stateMutability": "view"
		},
		{
			"type": "function",
			"name": "RULESETS",
			"inputs": [],
			"outputs": [
				{
					"name": "",
					"type": "address",
					"internalType": "contract IJBRulesets"
				}
			],
			"stateMutability": "view"
		},
		{
			"type": "function",
			"name": "SPLITS",
			"inputs": [],
			"outputs": [
				{
					"name": "",
					"type": "address",
					"internalType": "contract IJBSplits"
				}
			],
			"stateMutability": "view"
		},
		{
			"type": "function",
			"name": "TOKENS",
			"inputs": [],
			"outputs": [
				{
					"name": "",
					"type": "address",
					"internalType": "contract IJBTokens"
				}
			],
			"stateMutability": "view"
		},
		{
			"type": "function",
			"name": "burnTokensOf",
			"inputs": [
				{
					"name": "holder",
					"type": "address",
					"internalType": "address"
				},
				{
					"name": "projectId",
					"type": "uint256",
					"internalType": "uint256"
				},
				{
					"name": "tokenCount",
					"type": "uint256",
					"internalType": "uint256"
				},
				{
					"name": "memo",
					"type": "string",
					"internalType": "string"
				}
			],
			"outputs": [],
			"stateMutability": "nonpayable"
		},
		{
			"type": "function",
			"name": "claimTokensFor",
			"inputs": [
				{
					"name": "holder",
					"type": "address",
					"internalType": "address"
				},
				{
					"name": "projectId",
					"type": "uint256",
					"internalType": "uint256"
				},
				{
					"name": "amount",
					"type": "uint256",
					"internalType": "uint256"
				},
				{
					"name": "beneficiary",
					"type": "address",
					"internalType": "address"
				}
			],
			"outputs": [],
			"stateMutability": "nonpayable"
		},
		{
			"type": "function",
			"name": "currentRulesetOf",
			"inputs": [
				{
					"name": "projectId",
					"type": "uint256",
					"internalType": "uint256"
				}
			],
			"outputs": [
				{
					"name": "ruleset",
					"type": "tuple",
					"internalType": "struct JBRuleset",
					"components": [
						{
							"name": "cycleNumber",
							"type": "uint256",
							"internalType": "uint256"
						},
						{
							"name": "id",
							"type": "uint256",
							"internalType": "uint256"
						},
						{
							"name": "basedOnId",
							"type": "uint256",
							"internalType": "uint256"
						},
						{
							"name": "start",
							"type": "uint256",
							"internalType": "uint256"
						},
						{
							"name": "duration",
							"type": "uint256",
							"internalType": "uint256"
						},
						{
							"name": "weight",
							"type": "uint256",
							"internalType": "uint256"
						},
						{
							"name": "decayRate",
							"type": "uint256",
							"internalType": "uint256"
						},
						{
							"name": "approvalHook",
							"type": "address",
							"internalType": "contract IJBRulesetApprovalHook"
						},
						{
							"name": "metadata",
							"type": "uint256",
							"internalType": "uint256"
						}
					]
				},
				{
					"name": "metadata",
					"type": "tuple",
					"internalType": "struct JBRulesetMetadata",
					"components": [
						{
							"name": "reservedRate",
							"type": "uint256",
							"internalType": "uint256"
						},
						{
							"name": "redemptionRate",
							"type": "uint256",
							"internalType": "uint256"
						},
						{
							"name": "baseCurrency",
							"type": "uint256",
							"internalType": "uint256"
						},
						{
							"name": "pausePay",
							"type": "bool",
							"internalType": "bool"
						},
						{
							"name": "pauseCreditTransfers",
							"type": "bool",
							"internalType": "bool"
						},
						{
							"name": "allowOwnerMinting",
							"type": "bool",
							"internalType": "bool"
						},
						{
							"name": "allowTerminalMigration",
							"type": "bool",
							"internalType": "bool"
						},
						{
							"name": "allowSetTerminals",
							"type": "bool",
							"internalType": "bool"
						},
						{
							"name": "allowControllerMigration",
							"type": "bool",
							"internalType": "bool"
						},
						{
							"name": "allowSetController",
							"type": "bool",
							"internalType": "bool"
						},
						{
							"name": "holdFees",
							"type": "bool",
							"internalType": "bool"
						},
						{
							"name": "useTotalSurplusForRedemptions",
							"type": "bool",
							"internalType": "bool"
						},
						{
							"name": "useDataHookForPay",
							"type": "bool",
							"internalType": "bool"
						},
						{
							"name": "useDataHookForRedeem",
							"type": "bool",
							"internalType": "bool"
						},
						{
							"name": "dataHook",
							"type": "address",
							"internalType": "address"
						},
						{
							"name": "metadata",
							"type": "uint256",
							"internalType": "uint256"
						}
					]
				}
			],
			"stateMutability": "view"
		},
		{
			"type": "function",
			"name": "deployERC20For",
			"inputs": [
				{
					"name": "projectId",
					"type": "uint256",
					"internalType": "uint256"
				},
				{
					"name": "name",
					"type": "string",
					"internalType": "string"
				},
				{
					"name": "symbol",
					"type": "string",
					"internalType": "string"
				},
				{
					"name": "salt",
					"type": "bytes32",
					"internalType": "bytes32"
				}
			],
			"outputs": [
				{
					"name": "token",
					"type": "address",
					"internalType": "contract IJBToken"
				}
			],
			"stateMutability": "nonpayable"
		},
		{
			"type": "function",
			"name": "getRulesetOf",
			"inputs": [
				{
					"name": "projectId",
					"type": "uint256",
					"internalType": "uint256"
				},
				{
					"name": "rulesetId",
					"type": "uint256",
					"internalType": "uint256"
				}
			],
			"outputs": [
				{
					"name": "ruleset",
					"type": "tuple",
					"internalType": "struct JBRuleset",
					"components": [
						{
							"name": "cycleNumber",
							"type": "uint256",
							"internalType": "uint256"
						},
						{
							"name": "id",
							"type": "uint256",
							"internalType": "uint256"
						},
						{
							"name": "basedOnId",
							"type": "uint256",
							"internalType": "uint256"
						},
						{
							"name": "start",
							"type": "uint256",
							"internalType": "uint256"
						},
						{
							"name": "duration",
							"type": "uint256",
							"internalType": "uint256"
						},
						{
							"name": "weight",
							"type": "uint256",
							"internalType": "uint256"
						},
						{
							"name": "decayRate",
							"type": "uint256",
							"internalType": "uint256"
						},
						{
							"name": "approvalHook",
							"type": "address",
							"internalType": "contract IJBRulesetApprovalHook"
						},
						{
							"name": "metadata",
							"type": "uint256",
							"internalType": "uint256"
						}
					]
				},
				{
					"name": "metadata",
					"type": "tuple",
					"internalType": "struct JBRulesetMetadata",
					"components": [
						{
							"name": "reservedRate",
							"type": "uint256",
							"internalType": "uint256"
						},
						{
							"name": "redemptionRate",
							"type": "uint256",
							"internalType": "uint256"
						},
						{
							"name": "baseCurrency",
							"type": "uint256",
							"internalType": "uint256"
						},
						{
							"name": "pausePay",
							"type": "bool",
							"internalType": "bool"
						},
						{
							"name": "pauseCreditTransfers",
							"type": "bool",
							"internalType": "bool"
						},
						{
							"name": "allowOwnerMinting",
							"type": "bool",
							"internalType": "bool"
						},
						{
							"name": "allowTerminalMigration",
							"type": "bool",
							"internalType": "bool"
						},
						{
							"name": "allowSetTerminals",
							"type": "bool",
							"internalType": "bool"
						},
						{
							"name": "allowControllerMigration",
							"type": "bool",
							"internalType": "bool"
						},
						{
							"name": "allowSetController",
							"type": "bool",
							"internalType": "bool"
						},
						{
							"name": "holdFees",
							"type": "bool",
							"internalType": "bool"
						},
						{
							"name": "useTotalSurplusForRedemptions",
							"type": "bool",
							"internalType": "bool"
						},
						{
							"name": "useDataHookForPay",
							"type": "bool",
							"internalType": "bool"
						},
						{
							"name": "useDataHookForRedeem",
							"type": "bool",
							"internalType": "bool"
						},
						{
							"name": "dataHook",
							"type": "address",
							"internalType": "address"
						},
						{
							"name": "metadata",
							"type": "uint256",
							"internalType": "uint256"
						}
					]
				}
			],
			"stateMutability": "view"
		},
		{
			"type": "function",
			"name": "isTrustedForwarder",
			"inputs": [
				{
					"name": "forwarder",
					"type": "address",
					"internalType": "address"
				}
			],
			"outputs": [
				{
					"name": "",
					"type": "bool",
					"internalType": "bool"
				}
			],
			"stateMutability": "view"
		},
		{
			"type": "function",
			"name": "latestQueuedRulesetOf",
			"inputs": [
				{
					"name": "projectId",
					"type": "uint256",
					"internalType": "uint256"
				}
			],
			"outputs": [
				{
					"name": "ruleset",
					"type": "tuple",
					"internalType": "struct JBRuleset",
					"components": [
						{
							"name": "cycleNumber",
							"type": "uint256",
							"internalType": "uint256"
						},
						{
							"name": "id",
							"type": "uint256",
							"internalType": "uint256"
						},
						{
							"name": "basedOnId",
							"type": "uint256",
							"internalType": "uint256"
						},
						{
							"name": "start",
							"type": "uint256",
							"internalType": "uint256"
						},
						{
							"name": "duration",
							"type": "uint256",
							"internalType": "uint256"
						},
						{
							"name": "weight",
							"type": "uint256",
							"internalType": "uint256"
						},
						{
							"name": "decayRate",
							"type": "uint256",
							"internalType": "uint256"
						},
						{
							"name": "approvalHook",
							"type": "address",
							"internalType": "contract IJBRulesetApprovalHook"
						},
						{
							"name": "metadata",
							"type": "uint256",
							"internalType": "uint256"
						}
					]
				},
				{
					"name": "metadata",
					"type": "tuple",
					"internalType": "struct JBRulesetMetadata",
					"components": [
						{
							"name": "reservedRate",
							"type": "uint256",
							"internalType": "uint256"
						},
						{
							"name": "redemptionRate",
							"type": "uint256",
							"internalType": "uint256"
						},
						{
							"name": "baseCurrency",
							"type": "uint256",
							"internalType": "uint256"
						},
						{
							"name": "pausePay",
							"type": "bool",
							"internalType": "bool"
						},
						{
							"name": "pauseCreditTransfers",
							"type": "bool",
							"internalType": "bool"
						},
						{
							"name": "allowOwnerMinting",
							"type": "bool",
							"internalType": "bool"
						},
						{
							"name": "allowTerminalMigration",
							"type": "bool",
							"internalType": "bool"
						},
						{
							"name": "allowSetTerminals",
							"type": "bool",
							"internalType": "bool"
						},
						{
							"name": "allowControllerMigration",
							"type": "bool",
							"internalType": "bool"
						},
						{
							"name": "allowSetController",
							"type": "bool",
							"internalType": "bool"
						},
						{
							"name": "holdFees",
							"type": "bool",
							"internalType": "bool"
						},
						{
							"name": "useTotalSurplusForRedemptions",
							"type": "bool",
							"internalType": "bool"
						},
						{
							"name": "useDataHookForPay",
							"type": "bool",
							"internalType": "bool"
						},
						{
							"name": "useDataHookForRedeem",
							"type": "bool",
							"internalType": "bool"
						},
						{
							"name": "dataHook",
							"type": "address",
							"internalType": "address"
						},
						{
							"name": "metadata",
							"type": "uint256",
							"internalType": "uint256"
						}
					]
				},
				{
					"name": "approvalStatus",
					"type": "uint8",
					"internalType": "enum JBApprovalStatus"
				}
			],
			"stateMutability": "view"
		},
		{
			"type": "function",
			"name": "launchProjectFor",
			"inputs": [
				{
					"name": "owner",
					"type": "address",
					"internalType": "address"
				},
				{
					"name": "projectUri",
					"type": "string",
					"internalType": "string"
				},
				{
					"name": "rulesetConfigurations",
					"type": "tuple[]",
					"internalType": "struct JBRulesetConfig[]",
					"components": [
						{
							"name": "mustStartAtOrAfter",
							"type": "uint256",
							"internalType": "uint256"
						},
						{
							"name": "duration",
							"type": "uint256",
							"internalType": "uint256"
						},
						{
							"name": "weight",
							"type": "uint256",
							"internalType": "uint256"
						},
						{
							"name": "decayRate",
							"type": "uint256",
							"internalType": "uint256"
						},
						{
							"name": "approvalHook",
							"type": "address",
							"internalType": "contract IJBRulesetApprovalHook"
						},
						{
							"name": "metadata",
							"type": "tuple",
							"internalType": "struct JBRulesetMetadata",
							"components": [
								{
									"name": "reservedRate",
									"type": "uint256",
									"internalType": "uint256"
								},
								{
									"name": "redemptionRate",
									"type": "uint256",
									"internalType": "uint256"
								},
								{
									"name": "baseCurrency",
									"type": "uint256",
									"internalType": "uint256"
								},
								{
									"name": "pausePay",
									"type": "bool",
									"internalType": "bool"
								},
								{
									"name": "pauseCreditTransfers",
									"type": "bool",
									"internalType": "bool"
								},
								{
									"name": "allowOwnerMinting",
									"type": "bool",
									"internalType": "bool"
								},
								{
									"name": "allowTerminalMigration",
									"type": "bool",
									"internalType": "bool"
								},
								{
									"name": "allowSetTerminals",
									"type": "bool",
									"internalType": "bool"
								},
								{
									"name": "allowControllerMigration",
									"type": "bool",
									"internalType": "bool"
								},
								{
									"name": "allowSetController",
									"type": "bool",
									"internalType": "bool"
								},
								{
									"name": "holdFees",
									"type": "bool",
									"internalType": "bool"
								},
								{
									"name": "useTotalSurplusForRedemptions",
									"type": "bool",
									"internalType": "bool"
								},
								{
									"name": "useDataHookForPay",
									"type": "bool",
									"internalType": "bool"
								},
								{
									"name": "useDataHookForRedeem",
									"type": "bool",
									"internalType": "bool"
								},
								{
									"name": "dataHook",
									"type": "address",
									"internalType": "address"
								},
								{
									"name": "metadata",
									"type": "uint256",
									"internalType": "uint256"
								}
							]
						},
						{
							"name": "splitGroups",
							"type": "tuple[]",
							"internalType": "struct JBSplitGroup[]",
							"components": [
								{
									"name": "groupId",
									"type": "uint256",
									"internalType": "uint256"
								},
								{
									"name": "splits",
									"type": "tuple[]",
									"internalType": "struct JBSplit[]",
									"components": [
										{
											"name": "preferAddToBalance",
											"type": "bool",
											"internalType": "bool"
										},
										{
											"name": "percent",
											"type": "uint256",
											"internalType": "uint256"
										},
										{
											"name": "projectId",
											"type": "uint256",
											"internalType": "uint256"
										},
										{
											"name": "beneficiary",
											"type": "address",
											"internalType": "address payable"
										},
										{
											"name": "lockedUntil",
											"type": "uint256",
											"internalType": "uint256"
										},
										{
											"name": "hook",
											"type": "address",
											"internalType": "contract IJBSplitHook"
										}
									]
								}
							]
						},
						{
							"name": "fundAccessLimitGroups",
							"type": "tuple[]",
							"internalType": "struct JBFundAccessLimitGroup[]",
							"components": [
								{
									"name": "terminal",
									"type": "address",
									"internalType": "address"
								},
								{
									"name": "token",
									"type": "address",
									"internalType": "address"
								},
								{
									"name": "payoutLimits",
									"type": "tuple[]",
									"internalType": "struct JBCurrencyAmount[]",
									"components": [
										{
											"name": "amount",
											"type": "uint256",
											"internalType": "uint256"
										},
										{
											"name": "currency",
											"type": "uint256",
											"internalType": "uint256"
										}
									]
								},
								{
									"name": "surplusAllowances",
									"type": "tuple[]",
									"internalType": "struct JBCurrencyAmount[]",
									"components": [
										{
											"name": "amount",
											"type": "uint256",
											"internalType": "uint256"
										},
										{
											"name": "currency",
											"type": "uint256",
											"internalType": "uint256"
										}
									]
								}
							]
						}
					]
				},
				{
					"name": "terminalConfigurations",
					"type": "tuple[]",
					"internalType": "struct JBTerminalConfig[]",
					"components": [
						{
							"name": "terminal",
							"type": "address",
							"internalType": "contract IJBTerminal"
						},
						{
							"name": "tokensToAccept",
							"type": "address[]",
							"internalType": "address[]"
						}
					]
				},
				{
					"name": "memo",
					"type": "string",
					"internalType": "string"
				}
			],
			"outputs": [
				{
					"name": "projectId",
					"type": "uint256",
					"internalType": "uint256"
				}
			],
			"stateMutability": "nonpayable"
		},
		{
			"type": "function",
			"name": "launchRulesetsFor",
			"inputs": [
				{
					"name": "projectId",
					"type": "uint256",
					"internalType": "uint256"
				},
				{
					"name": "rulesetConfigurations",
					"type": "tuple[]",
					"internalType": "struct JBRulesetConfig[]",
					"components": [
						{
							"name": "mustStartAtOrAfter",
							"type": "uint256",
							"internalType": "uint256"
						},
						{
							"name": "duration",
							"type": "uint256",
							"internalType": "uint256"
						},
						{
							"name": "weight",
							"type": "uint256",
							"internalType": "uint256"
						},
						{
							"name": "decayRate",
							"type": "uint256",
							"internalType": "uint256"
						},
						{
							"name": "approvalHook",
							"type": "address",
							"internalType": "contract IJBRulesetApprovalHook"
						},
						{
							"name": "metadata",
							"type": "tuple",
							"internalType": "struct JBRulesetMetadata",
							"components": [
								{
									"name": "reservedRate",
									"type": "uint256",
									"internalType": "uint256"
								},
								{
									"name": "redemptionRate",
									"type": "uint256",
									"internalType": "uint256"
								},
								{
									"name": "baseCurrency",
									"type": "uint256",
									"internalType": "uint256"
								},
								{
									"name": "pausePay",
									"type": "bool",
									"internalType": "bool"
								},
								{
									"name": "pauseCreditTransfers",
									"type": "bool",
									"internalType": "bool"
								},
								{
									"name": "allowOwnerMinting",
									"type": "bool",
									"internalType": "bool"
								},
								{
									"name": "allowTerminalMigration",
									"type": "bool",
									"internalType": "bool"
								},
								{
									"name": "allowSetTerminals",
									"type": "bool",
									"internalType": "bool"
								},
								{
									"name": "allowControllerMigration",
									"type": "bool",
									"internalType": "bool"
								},
								{
									"name": "allowSetController",
									"type": "bool",
									"internalType": "bool"
								},
								{
									"name": "holdFees",
									"type": "bool",
									"internalType": "bool"
								},
								{
									"name": "useTotalSurplusForRedemptions",
									"type": "bool",
									"internalType": "bool"
								},
								{
									"name": "useDataHookForPay",
									"type": "bool",
									"internalType": "bool"
								},
								{
									"name": "useDataHookForRedeem",
									"type": "bool",
									"internalType": "bool"
								},
								{
									"name": "dataHook",
									"type": "address",
									"internalType": "address"
								},
								{
									"name": "metadata",
									"type": "uint256",
									"internalType": "uint256"
								}
							]
						},
						{
							"name": "splitGroups",
							"type": "tuple[]",
							"internalType": "struct JBSplitGroup[]",
							"components": [
								{
									"name": "groupId",
									"type": "uint256",
									"internalType": "uint256"
								},
								{
									"name": "splits",
									"type": "tuple[]",
									"internalType": "struct JBSplit[]",
									"components": [
										{
											"name": "preferAddToBalance",
											"type": "bool",
											"internalType": "bool"
										},
										{
											"name": "percent",
											"type": "uint256",
											"internalType": "uint256"
										},
										{
											"name": "projectId",
											"type": "uint256",
											"internalType": "uint256"
										},
										{
											"name": "beneficiary",
											"type": "address",
											"internalType": "address payable"
										},
										{
											"name": "lockedUntil",
											"type": "uint256",
											"internalType": "uint256"
										},
										{
											"name": "hook",
											"type": "address",
											"internalType": "contract IJBSplitHook"
										}
									]
								}
							]
						},
						{
							"name": "fundAccessLimitGroups",
							"type": "tuple[]",
							"internalType": "struct JBFundAccessLimitGroup[]",
							"components": [
								{
									"name": "terminal",
									"type": "address",
									"internalType": "address"
								},
								{
									"name": "token",
									"type": "address",
									"internalType": "address"
								},
								{
									"name": "payoutLimits",
									"type": "tuple[]",
									"internalType": "struct JBCurrencyAmount[]",
									"components": [
										{
											"name": "amount",
											"type": "uint256",
											"internalType": "uint256"
										},
										{
											"name": "currency",
											"type": "uint256",
											"internalType": "uint256"
										}
									]
								},
								{
									"name": "surplusAllowances",
									"type": "tuple[]",
									"internalType": "struct JBCurrencyAmount[]",
									"components": [
										{
											"name": "amount",
											"type": "uint256",
											"internalType": "uint256"
										},
										{
											"name": "currency",
											"type": "uint256",
											"internalType": "uint256"
										}
									]
								}
							]
						}
					]
				},
				{
					"name": "terminalConfigurations",
					"type": "tuple[]",
					"internalType": "struct JBTerminalConfig[]",
					"components": [
						{
							"name": "terminal",
							"type": "address",
							"internalType": "contract IJBTerminal"
						},
						{
							"name": "tokensToAccept",
							"type": "address[]",
							"internalType": "address[]"
						}
					]
				},
				{
					"name": "memo",
					"type": "string",
					"internalType": "string"
				}
			],
			"outputs": [
				{
					"name": "rulesetId",
					"type": "uint256",
					"internalType": "uint256"
				}
			],
			"stateMutability": "nonpayable"
		},
		{
			"type": "function",
			"name": "migrateController",
			"inputs": [
				{
					"name": "projectId",
					"type": "uint256",
					"internalType": "uint256"
				},
				{
					"name": "to",
					"type": "address",
					"internalType": "contract IJBMigratable"
				}
			],
			"outputs": [],
			"stateMutability": "nonpayable"
		},
		{
			"type": "function",
			"name": "mintTokensOf",
			"inputs": [
				{
					"name": "projectId",
					"type": "uint256",
					"internalType": "uint256"
				},
				{
					"name": "tokenCount",
					"type": "uint256",
					"internalType": "uint256"
				},
				{
					"name": "beneficiary",
					"type": "address",
					"internalType": "address"
				},
				{
					"name": "memo",
					"type": "string",
					"internalType": "string"
				},
				{
					"name": "useReservedRate",
					"type": "bool",
					"internalType": "bool"
				}
			],
			"outputs": [
				{
					"name": "beneficiaryTokenCount",
					"type": "uint256",
					"internalType": "uint256"
				}
			],
			"stateMutability": "nonpayable"
		},
		{
			"type": "function",
			"name": "payReservedTokenToTerminal",
			"inputs": [
				{
					"name": "terminal",
					"type": "address",
					"internalType": "contract IJBTerminal"
				},
				{
					"name": "projectId",
					"type": "uint256",
					"internalType": "uint256"
				},
				{
					"name": "token",
					"type": "address",
					"internalType": "contract IJBToken"
				},
				{
					"name": "splitAmount",
					"type": "uint256",
					"internalType": "uint256"
				},
				{
					"name": "beneficiary",
					"type": "address",
					"internalType": "address"
				},
				{
					"name": "metadata",
					"type": "bytes",
					"internalType": "bytes"
				}
			],
			"outputs": [],
			"stateMutability": "nonpayable"
		},
		{
			"type": "function",
			"name": "pendingReservedTokenBalanceOf",
			"inputs": [
				{
					"name": "projectId",
					"type": "uint256",
					"internalType": "uint256"
				}
			],
			"outputs": [
				{
					"name": "",
					"type": "uint256",
					"internalType": "uint256"
				}
			],
			"stateMutability": "view"
		},
		{
			"type": "function",
			"name": "queueRulesetsOf",
			"inputs": [
				{
					"name": "projectId",
					"type": "uint256",
					"internalType": "uint256"
				},
				{
					"name": "rulesetConfigurations",
					"type": "tuple[]",
					"internalType": "struct JBRulesetConfig[]",
					"components": [
						{
							"name": "mustStartAtOrAfter",
							"type": "uint256",
							"internalType": "uint256"
						},
						{
							"name": "duration",
							"type": "uint256",
							"internalType": "uint256"
						},
						{
							"name": "weight",
							"type": "uint256",
							"internalType": "uint256"
						},
						{
							"name": "decayRate",
							"type": "uint256",
							"internalType": "uint256"
						},
						{
							"name": "approvalHook",
							"type": "address",
							"internalType": "contract IJBRulesetApprovalHook"
						},
						{
							"name": "metadata",
							"type": "tuple",
							"internalType": "struct JBRulesetMetadata",
							"components": [
								{
									"name": "reservedRate",
									"type": "uint256",
									"internalType": "uint256"
								},
								{
									"name": "redemptionRate",
									"type": "uint256",
									"internalType": "uint256"
								},
								{
									"name": "baseCurrency",
									"type": "uint256",
									"internalType": "uint256"
								},
								{
									"name": "pausePay",
									"type": "bool",
									"internalType": "bool"
								},
								{
									"name": "pauseCreditTransfers",
									"type": "bool",
									"internalType": "bool"
								},
								{
									"name": "allowOwnerMinting",
									"type": "bool",
									"internalType": "bool"
								},
								{
									"name": "allowTerminalMigration",
									"type": "bool",
									"internalType": "bool"
								},
								{
									"name": "allowSetTerminals",
									"type": "bool",
									"internalType": "bool"
								},
								{
									"name": "allowControllerMigration",
									"type": "bool",
									"internalType": "bool"
								},
								{
									"name": "allowSetController",
									"type": "bool",
									"internalType": "bool"
								},
								{
									"name": "holdFees",
									"type": "bool",
									"internalType": "bool"
								},
								{
									"name": "useTotalSurplusForRedemptions",
									"type": "bool",
									"internalType": "bool"
								},
								{
									"name": "useDataHookForPay",
									"type": "bool",
									"internalType": "bool"
								},
								{
									"name": "useDataHookForRedeem",
									"type": "bool",
									"internalType": "bool"
								},
								{
									"name": "dataHook",
									"type": "address",
									"internalType": "address"
								},
								{
									"name": "metadata",
									"type": "uint256",
									"internalType": "uint256"
								}
							]
						},
						{
							"name": "splitGroups",
							"type": "tuple[]",
							"internalType": "struct JBSplitGroup[]",
							"components": [
								{
									"name": "groupId",
									"type": "uint256",
									"internalType": "uint256"
								},
								{
									"name": "splits",
									"type": "tuple[]",
									"internalType": "struct JBSplit[]",
									"components": [
										{
											"name": "preferAddToBalance",
											"type": "bool",
											"internalType": "bool"
										},
										{
											"name": "percent",
											"type": "uint256",
											"internalType": "uint256"
										},
										{
											"name": "projectId",
											"type": "uint256",
											"internalType": "uint256"
										},
										{
											"name": "beneficiary",
											"type": "address",
											"internalType": "address payable"
										},
										{
											"name": "lockedUntil",
											"type": "uint256",
											"internalType": "uint256"
										},
										{
											"name": "hook",
											"type": "address",
											"internalType": "contract IJBSplitHook"
										}
									]
								}
							]
						},
						{
							"name": "fundAccessLimitGroups",
							"type": "tuple[]",
							"internalType": "struct JBFundAccessLimitGroup[]",
							"components": [
								{
									"name": "terminal",
									"type": "address",
									"internalType": "address"
								},
								{
									"name": "token",
									"type": "address",
									"internalType": "address"
								},
								{
									"name": "payoutLimits",
									"type": "tuple[]",
									"internalType": "struct JBCurrencyAmount[]",
									"components": [
										{
											"name": "amount",
											"type": "uint256",
											"internalType": "uint256"
										},
										{
											"name": "currency",
											"type": "uint256",
											"internalType": "uint256"
										}
									]
								},
								{
									"name": "surplusAllowances",
									"type": "tuple[]",
									"internalType": "struct JBCurrencyAmount[]",
									"components": [
										{
											"name": "amount",
											"type": "uint256",
											"internalType": "uint256"
										},
										{
											"name": "currency",
											"type": "uint256",
											"internalType": "uint256"
										}
									]
								}
							]
						}
					]
				},
				{
					"name": "memo",
					"type": "string",
					"internalType": "string"
				}
			],
			"outputs": [
				{
					"name": "rulesetId",
					"type": "uint256",
					"internalType": "uint256"
				}
			],
			"stateMutability": "nonpayable"
		},
		{
			"type": "function",
			"name": "receiveMigrationFrom",
			"inputs": [
				{
					"name": "from",
					"type": "address",
					"internalType": "contract IERC165"
				},
				{
					"name": "projectId",
					"type": "uint256",
					"internalType": "uint256"
				}
			],
			"outputs": [],
			"stateMutability": "nonpayable"
		},
		{
			"type": "function",
			"name": "rulesetsOf",
			"inputs": [
				{
					"name": "projectId",
					"type": "uint256",
					"internalType": "uint256"
				},
				{
					"name": "startingId",
					"type": "uint256",
					"internalType": "uint256"
				},
				{
					"name": "size",
					"type": "uint256",
					"internalType": "uint256"
				}
			],
			"outputs": [
				{
					"name": "rulesets",
					"type": "tuple[]",
					"internalType": "struct JBRulesetWithMetadata[]",
					"components": [
						{
							"name": "ruleset",
							"type": "tuple",
							"internalType": "struct JBRuleset",
							"components": [
								{
									"name": "cycleNumber",
									"type": "uint256",
									"internalType": "uint256"
								},
								{
									"name": "id",
									"type": "uint256",
									"internalType": "uint256"
								},
								{
									"name": "basedOnId",
									"type": "uint256",
									"internalType": "uint256"
								},
								{
									"name": "start",
									"type": "uint256",
									"internalType": "uint256"
								},
								{
									"name": "duration",
									"type": "uint256",
									"internalType": "uint256"
								},
								{
									"name": "weight",
									"type": "uint256",
									"internalType": "uint256"
								},
								{
									"name": "decayRate",
									"type": "uint256",
									"internalType": "uint256"
								},
								{
									"name": "approvalHook",
									"type": "address",
									"internalType": "contract IJBRulesetApprovalHook"
								},
								{
									"name": "metadata",
									"type": "uint256",
									"internalType": "uint256"
								}
							]
						},
						{
							"name": "metadata",
							"type": "tuple",
							"internalType": "struct JBRulesetMetadata",
							"components": [
								{
									"name": "reservedRate",
									"type": "uint256",
									"internalType": "uint256"
								},
								{
									"name": "redemptionRate",
									"type": "uint256",
									"internalType": "uint256"
								},
								{
									"name": "baseCurrency",
									"type": "uint256",
									"internalType": "uint256"
								},
								{
									"name": "pausePay",
									"type": "bool",
									"internalType": "bool"
								},
								{
									"name": "pauseCreditTransfers",
									"type": "bool",
									"internalType": "bool"
								},
								{
									"name": "allowOwnerMinting",
									"type": "bool",
									"internalType": "bool"
								},
								{
									"name": "allowTerminalMigration",
									"type": "bool",
									"internalType": "bool"
								},
								{
									"name": "allowSetTerminals",
									"type": "bool",
									"internalType": "bool"
								},
								{
									"name": "allowControllerMigration",
									"type": "bool",
									"internalType": "bool"
								},
								{
									"name": "allowSetController",
									"type": "bool",
									"internalType": "bool"
								},
								{
									"name": "holdFees",
									"type": "bool",
									"internalType": "bool"
								},
								{
									"name": "useTotalSurplusForRedemptions",
									"type": "bool",
									"internalType": "bool"
								},
								{
									"name": "useDataHookForPay",
									"type": "bool",
									"internalType": "bool"
								},
								{
									"name": "useDataHookForRedeem",
									"type": "bool",
									"internalType": "bool"
								},
								{
									"name": "dataHook",
									"type": "address",
									"internalType": "address"
								},
								{
									"name": "metadata",
									"type": "uint256",
									"internalType": "uint256"
								}
							]
						}
					]
				}
			],
			"stateMutability": "view"
		},
		{
			"type": "function",
			"name": "sendReservedTokensToSplitsOf",
			"inputs": [
				{
					"name": "projectId",
					"type": "uint256",
					"internalType": "uint256"
				}
			],
			"outputs": [
				{
					"name": "",
					"type": "uint256",
					"internalType": "uint256"
				}
			],
			"stateMutability": "nonpayable"
		},
		{
			"type": "function",
			"name": "setControllerAllowed",
			"inputs": [
				{
					"name": "projectId",
					"type": "uint256",
					"internalType": "uint256"
				}
			],
			"outputs": [
				{
					"name": "",
					"type": "bool",
					"internalType": "bool"
				}
			],
			"stateMutability": "view"
		},
		{
			"type": "function",
			"name": "setSplitGroupsOf",
			"inputs": [
				{
					"name": "projectId",
					"type": "uint256",
					"internalType": "uint256"
				},
				{
					"name": "rulesetId",
					"type": "uint256",
					"internalType": "uint256"
				},
				{
					"name": "splitGroups",
					"type": "tuple[]",
					"internalType": "struct JBSplitGroup[]",
					"components": [
						{
							"name": "groupId",
							"type": "uint256",
							"internalType": "uint256"
						},
						{
							"name": "splits",
							"type": "tuple[]",
							"internalType": "struct JBSplit[]",
							"components": [
								{
									"name": "preferAddToBalance",
									"type": "bool",
									"internalType": "bool"
								},
								{
									"name": "percent",
									"type": "uint256",
									"internalType": "uint256"
								},
								{
									"name": "projectId",
									"type": "uint256",
									"internalType": "uint256"
								},
								{
									"name": "beneficiary",
									"type": "address",
									"internalType": "address payable"
								},
								{
									"name": "lockedUntil",
									"type": "uint256",
									"internalType": "uint256"
								},
								{
									"name": "hook",
									"type": "address",
									"internalType": "contract IJBSplitHook"
								}
							]
						}
					]
				}
			],
			"outputs": [],
			"stateMutability": "nonpayable"
		},
		{
			"type": "function",
			"name": "setTerminalsAllowed",
			"inputs": [
				{
					"name": "projectId",
					"type": "uint256",
					"internalType": "uint256"
				}
			],
			"outputs": [
				{
					"name": "",
					"type": "bool",
					"internalType": "bool"
				}
			],
			"stateMutability": "view"
		},
		{
			"type": "function",
			"name": "setTokenFor",
			"inputs": [
				{
					"name": "projectId",
					"type": "uint256",
					"internalType": "uint256"
				},
				{
					"name": "token",
					"type": "address",
					"internalType": "contract IJBToken"
				}
			],
			"outputs": [],
			"stateMutability": "nonpayable"
		},
		{
			"type": "function",
			"name": "setUriOf",
			"inputs": [
				{
					"name": "projectId",
					"type": "uint256",
					"internalType": "uint256"
				},
				{
					"name": "metadata",
					"type": "string",
					"internalType": "string"
				}
			],
			"outputs": [],
			"stateMutability": "nonpayable"
		},
		{
			"type": "function",
			"name": "supportsInterface",
			"inputs": [
				{
					"name": "interfaceId",
					"type": "bytes4",
					"internalType": "bytes4"
				}
			],
			"outputs": [
				{
					"name": "",
					"type": "bool",
					"internalType": "bool"
				}
			],
			"stateMutability": "view"
		},
		{
			"type": "function",
			"name": "totalTokenSupplyWithReservedTokensOf",
			"inputs": [
				{
					"name": "projectId",
					"type": "uint256",
					"internalType": "uint256"
				}
			],
			"outputs": [
				{
					"name": "",
					"type": "uint256",
					"internalType": "uint256"
				}
			],
			"stateMutability": "view"
		},
		{
			"type": "function",
			"name": "transferCreditsFrom",
			"inputs": [
				{
					"name": "holder",
					"type": "address",
					"internalType": "address"
				},
				{
					"name": "projectId",
					"type": "uint256",
					"internalType": "uint256"
				},
				{
					"name": "recipient",
					"type": "address",
					"internalType": "address"
				},
				{
					"name": "amount",
					"type": "uint256",
					"internalType": "uint256"
				}
			],
			"outputs": [],
			"stateMutability": "nonpayable"
		},
		{
			"type": "function",
			"name": "trustedForwarder",
			"inputs": [],
			"outputs": [
				{
					"name": "",
					"type": "address",
					"internalType": "address"
				}
			],
			"stateMutability": "view"
		},
		{
			"type": "function",
			"name": "upcomingRulesetOf",
			"inputs": [
				{
					"name": "projectId",
					"type": "uint256",
					"internalType": "uint256"
				}
			],
			"outputs": [
				{
					"name": "ruleset",
					"type": "tuple",
					"internalType": "struct JBRuleset",
					"components": [
						{
							"name": "cycleNumber",
							"type": "uint256",
							"internalType": "uint256"
						},
						{
							"name": "id",
							"type": "uint256",
							"internalType": "uint256"
						},
						{
							"name": "basedOnId",
							"type": "uint256",
							"internalType": "uint256"
						},
						{
							"name": "start",
							"type": "uint256",
							"internalType": "uint256"
						},
						{
							"name": "duration",
							"type": "uint256",
							"internalType": "uint256"
						},
						{
							"name": "weight",
							"type": "uint256",
							"internalType": "uint256"
						},
						{
							"name": "decayRate",
							"type": "uint256",
							"internalType": "uint256"
						},
						{
							"name": "approvalHook",
							"type": "address",
							"internalType": "contract IJBRulesetApprovalHook"
						},
						{
							"name": "metadata",
							"type": "uint256",
							"internalType": "uint256"
						}
					]
				},
				{
					"name": "metadata",
					"type": "tuple",
					"internalType": "struct JBRulesetMetadata",
					"components": [
						{
							"name": "reservedRate",
							"type": "uint256",
							"internalType": "uint256"
						},
						{
							"name": "redemptionRate",
							"type": "uint256",
							"internalType": "uint256"
						},
						{
							"name": "baseCurrency",
							"type": "uint256",
							"internalType": "uint256"
						},
						{
							"name": "pausePay",
							"type": "bool",
							"internalType": "bool"
						},
						{
							"name": "pauseCreditTransfers",
							"type": "bool",
							"internalType": "bool"
						},
						{
							"name": "allowOwnerMinting",
							"type": "bool",
							"internalType": "bool"
						},
						{
							"name": "allowTerminalMigration",
							"type": "bool",
							"internalType": "bool"
						},
						{
							"name": "allowSetTerminals",
							"type": "bool",
							"internalType": "bool"
						},
						{
							"name": "allowControllerMigration",
							"type": "bool",
							"internalType": "bool"
						},
						{
							"name": "allowSetController",
							"type": "bool",
							"internalType": "bool"
						},
						{
							"name": "holdFees",
							"type": "bool",
							"internalType": "bool"
						},
						{
							"name": "useTotalSurplusForRedemptions",
							"type": "bool",
							"internalType": "bool"
						},
						{
							"name": "useDataHookForPay",
							"type": "bool",
							"internalType": "bool"
						},
						{
							"name": "useDataHookForRedeem",
							"type": "bool",
							"internalType": "bool"
						},
						{
							"name": "dataHook",
							"type": "address",
							"internalType": "address"
						},
						{
							"name": "metadata",
							"type": "uint256",
							"internalType": "uint256"
						}
					]
				}
			],
			"stateMutability": "view"
		},
		{
			"type": "function",
			"name": "uriOf",
			"inputs": [
				{
					"name": "projectId",
					"type": "uint256",
					"internalType": "uint256"
				}
			],
			"outputs": [
				{
					"name": "",
					"type": "string",
					"internalType": "string"
				}
			],
			"stateMutability": "view"
		},
		{
			"type": "event",
			"name": "BurnTokens",
			"inputs": [
				{
					"name": "holder",
					"type": "address",
					"indexed": true,
					"internalType": "address"
				},
				{
					"name": "projectId",
					"type": "uint256",
					"indexed": true,
					"internalType": "uint256"
				},
				{
					"name": "tokenCount",
					"type": "uint256",
					"indexed": false,
					"internalType": "uint256"
				},
				{
					"name": "memo",
					"type": "string",
					"indexed": false,
					"internalType": "string"
				},
				{
					"name": "caller",
					"type": "address",
					"indexed": false,
					"internalType": "address"
				}
			],
			"anonymous": false
		},
		{
			"type": "event",
			"name": "LaunchProject",
			"inputs": [
				{
					"name": "rulesetId",
					"type": "uint256",
					"indexed": false,
					"internalType": "uint256"
				},
				{
					"name": "projectId",
					"type": "uint256",
					"indexed": false,
					"internalType": "uint256"
				},
				{
					"name": "metadata",
					"type": "string",
					"indexed": false,
					"internalType": "string"
				},
				{
					"name": "memo",
					"type": "string",
					"indexed": false,
					"internalType": "string"
				},
				{
					"name": "caller",
					"type": "address",
					"indexed": false,
					"internalType": "address"
				}
			],
			"anonymous": false
		},
		{
			"type": "event",
			"name": "LaunchRulesets",
			"inputs": [
				{
					"name": "rulesetId",
					"type": "uint256",
					"indexed": false,
					"internalType": "uint256"
				},
				{
					"name": "projectId",
					"type": "uint256",
					"indexed": false,
					"internalType": "uint256"
				},
				{
					"name": "memo",
					"type": "string",
					"indexed": false,
					"internalType": "string"
				},
				{
					"name": "caller",
					"type": "address",
					"indexed": false,
					"internalType": "address"
				}
			],
			"anonymous": false
		},
		{
			"type": "event",
			"name": "MigrateController",
			"inputs": [
				{
					"name": "projectId",
					"type": "uint256",
					"indexed": true,
					"internalType": "uint256"
				},
				{
					"name": "to",
					"type": "address",
					"indexed": false,
					"internalType": "contract IJBMigratable"
				},
				{
					"name": "caller",
					"type": "address",
					"indexed": false,
					"internalType": "address"
				}
			],
			"anonymous": false
		},
		{
			"type": "event",
			"name": "MintTokens",
			"inputs": [
				{
					"name": "beneficiary",
					"type": "address",
					"indexed": true,
					"internalType": "address"
				},
				{
					"name": "projectId",
					"type": "uint256",
					"indexed": true,
					"internalType": "uint256"
				},
				{
					"name": "tokenCount",
					"type": "uint256",
					"indexed": false,
					"internalType": "uint256"
				},
				{
					"name": "beneficiaryTokenCount",
					"type": "uint256",
					"indexed": false,
					"internalType": "uint256"
				},
				{
					"name": "memo",
					"type": "string",
					"indexed": false,
					"internalType": "string"
				},
				{
					"name": "reservedRate",
					"type": "uint256",
					"indexed": false,
					"internalType": "uint256"
				},
				{
					"name": "caller",
					"type": "address",
					"indexed": false,
					"internalType": "address"
				}
			],
			"anonymous": false
		},
		{
			"type": "event",
			"name": "PrepMigration",
			"inputs": [
				{
					"name": "projectId",
					"type": "uint256",
					"indexed": true,
					"internalType": "uint256"
				},
				{
					"name": "from",
					"type": "address",
					"indexed": false,
					"internalType": "address"
				},
				{
					"name": "caller",
					"type": "address",
					"indexed": false,
					"internalType": "address"
				}
			],
			"anonymous": false
		},
		{
			"type": "event",
			"name": "QueueRulesets",
			"inputs": [
				{
					"name": "rulesetId",
					"type": "uint256",
					"indexed": false,
					"internalType": "uint256"
				},
				{
					"name": "projectId",
					"type": "uint256",
					"indexed": false,
					"internalType": "uint256"
				},
				{
					"name": "memo",
					"type": "string",
					"indexed": false,
					"internalType": "string"
				},
				{
					"name": "caller",
					"type": "address",
					"indexed": false,
					"internalType": "address"
				}
			],
			"anonymous": false
		},
		{
			"type": "event",
			"name": "ReservedDistributionReverted",
			"inputs": [
				{
					"name": "projectId",
					"type": "uint256",
					"indexed": true,
					"internalType": "uint256"
				},
				{
					"name": "split",
					"type": "tuple",
					"indexed": false,
					"internalType": "struct JBSplit",
					"components": [
						{
							"name": "preferAddToBalance",
							"type": "bool",
							"internalType": "bool"
						},
						{
							"name": "percent",
							"type": "uint256",
							"internalType": "uint256"
						},
						{
							"name": "projectId",
							"type": "uint256",
							"internalType": "uint256"
						},
						{
							"name": "beneficiary",
							"type": "address",
							"internalType": "address payable"
						},
						{
							"name": "lockedUntil",
							"type": "uint256",
							"internalType": "uint256"
						},
						{
							"name": "hook",
							"type": "address",
							"internalType": "contract IJBSplitHook"
						}
					]
				},
				{
					"name": "amount",
					"type": "uint256",
					"indexed": false,
					"internalType": "uint256"
				},
				{
					"name": "reason",
					"type": "bytes",
					"indexed": false,
					"internalType": "bytes"
				},
				{
					"name": "caller",
					"type": "address",
					"indexed": false,
					"internalType": "address"
				}
			],
			"anonymous": false
		},
		{
			"type": "event",
			"name": "SendReservedTokensToSplit",
			"inputs": [
				{
					"name": "projectId",
					"type": "uint256",
					"indexed": true,
					"internalType": "uint256"
				},
				{
					"name": "rulesetId",
					"type": "uint256",
					"indexed": true,
					"internalType": "uint256"
				},
				{
					"name": "group",
					"type": "uint256",
					"indexed": true,
					"internalType": "uint256"
				},
				{
					"name": "split",
					"type": "tuple",
					"indexed": false,
					"internalType": "struct JBSplit",
					"components": [
						{
							"name": "preferAddToBalance",
							"type": "bool",
							"internalType": "bool"
						},
						{
							"name": "percent",
							"type": "uint256",
							"internalType": "uint256"
						},
						{
							"name": "projectId",
							"type": "uint256",
							"internalType": "uint256"
						},
						{
							"name": "beneficiary",
							"type": "address",
							"internalType": "address payable"
						},
						{
							"name": "lockedUntil",
							"type": "uint256",
							"internalType": "uint256"
						},
						{
							"name": "hook",
							"type": "address",
							"internalType": "contract IJBSplitHook"
						}
					]
				},
				{
					"name": "tokenCount",
					"type": "uint256",
					"indexed": false,
					"internalType": "uint256"
				},
				{
					"name": "caller",
					"type": "address",
					"indexed": false,
					"internalType": "address"
				}
			],
			"anonymous": false
		},
		{
			"type": "event",
			"name": "SendReservedTokensToSplits",
			"inputs": [
				{
					"name": "rulesetId",
					"type": "uint256",
					"indexed": true,
					"internalType": "uint256"
				},
				{
					"name": "rulesetCycleNumber",
					"type": "uint256",
					"indexed": true,
					"internalType": "uint256"
				},
				{
					"name": "projectId",
					"type": "uint256",
					"indexed": true,
					"internalType": "uint256"
				},
				{
					"name": "beneficiary",
					"type": "address",
					"indexed": false,
					"internalType": "address"
				},
				{
					"name": "tokenCount",
					"type": "uint256",
					"indexed": false,
					"internalType": "uint256"
				},
				{
					"name": "beneficiaryTokenCount",
					"type": "uint256",
					"indexed": false,
					"internalType": "uint256"
				},
				{
					"name": "caller",
					"type": "address",
					"indexed": false,
					"internalType": "address"
				}
			],
			"anonymous": false
		},
		{
			"type": "event",
			"name": "SetMetadata",
			"inputs": [
				{
					"name": "projectId",
					"type": "uint256",
					"indexed": true,
					"internalType": "uint256"
				},
				{
					"name": "metadata",
					"type": "string",
					"indexed": false,
					"internalType": "string"
				},
				{
					"name": "caller",
					"type": "address",
					"indexed": false,
					"internalType": "address"
				}
			],
			"anonymous": false
		},
		{
			"type": "error",
			"name": "AddressEmptyCode",
			"inputs": [
				{
					"name": "target",
					"type": "address",
					"internalType": "address"
				}
			]
		},
		{
			"type": "error",
			"name": "AddressInsufficientBalance",
			"inputs": [
				{
					"name": "account",
					"type": "address",
					"internalType": "address"
				}
			]
		},
		{
			"type": "error",
			"name": "CONTROLLER_MIGRATION_NOT_ALLOWED",
			"inputs": []
		},
		{
			"type": "error",
			"name": "CREDIT_TRANSFERS_PAUSED",
			"inputs": []
		},
		{
			"type": "error",
			"name": "FailedInnerCall",
			"inputs": []
		},
		{
			"type": "error",
			"name": "INVALID_BASE_CURRENCY",
			"inputs": []
		},
		{
			"type": "error",
			"name": "INVALID_REDEMPTION_RATE",
			"inputs": []
		},
		{
			"type": "error",
			"name": "INVALID_RESERVED_RATE",
			"inputs": []
		},
		{
			"type": "error",
			"name": "MINT_NOT_ALLOWED_AND_NOT_TERMINAL_OR_HOOK",
			"inputs": []
		},
		{
			"type": "error",
			"name": "NO_BURNABLE_TOKENS",
			"inputs": []
		},
		{
			"type": "error",
			"name": "NO_RESERVED_TOKENS",
			"inputs": []
		},
		{
			"type": "error",
			"name": "PRBMath_MulDiv_Overflow",
			"inputs": [
				{
					"name": "x",
					"type": "uint256",
					"internalType": "uint256"
				},
				{
					"name": "y",
					"type": "uint256",
					"internalType": "uint256"
				},
				{
					"name": "denominator",
					"type": "uint256",
					"internalType": "uint256"
				}
			]
		},
		{
			"type": "error",
			"name": "RULESETS_ALREADY_LAUNCHED",
			"inputs": []
		},
		{
			"type": "error",
			"name": "RULESETS_ARRAY_EMPTY",
			"inputs": []
		},
		{
			"type": "error",
			"name": "SafeERC20FailedOperation",
			"inputs": [
				{
					"name": "token",
					"type": "address",
					"internalType": "address"
				}
			]
		},
		{
			"type": "error",
			"name": "UNAUTHORIZED",
			"inputs": []
		},
		{
			"type": "error",
			"name": "ZERO_TOKENS_TO_MINT",
			"inputs": []
		}
	],
	"solcInputHash": "5d7a79485a8a4fd8d39819ca7cc29822",
	"args": [
		"0x6B8340b759d72E08b3fb674B48547E80631007cb",
		"0x2ca466eB84DD69A99E25d10BBbdA6e1B3c562c49",
		"0xCd7112aE7c3b2505F0795c1ba965e5694c25d696",
		"0xEac995E09d18A0E7C44d4cf0c7c85400666524cF",
		"0x4207C2a3491D2f3AE33609588DDFEBEb8EEbcB6E",
		"0xD685A38eA59b8Fca6dfed1AF41924a9B327af936",
		"0xDD9aA62CC22C8292FdAb5430e65ccbb772aC85B3",
		"0xB2b5841DBeF766d4b521221732F9B618fCf34A87"
	],
	"bytecode": "0x6101806040523480156200001257600080fd5b5060405162005dcc38038062005dcc83398101604081905262000035916200008b565b6001600160a01b03978816608052871660a05294861660c05292851660e0529084166101005283166101205282166101405216610160526200014c565b6001600160a01b03811681146200008857600080fd5b50565b600080600080600080600080610100898b031215620000a957600080fd5b8851620000b68162000072565b60208a0151909850620000c98162000072565b60408a0151909750620000dc8162000072565b60608a0151909650620000ef8162000072565b60808a0151909550620001028162000072565b60a08a0151909450620001158162000072565b60c08a0151909350620001288162000072565b60e08a01519092506200013b8162000072565b809150509295985092959890939650565b60805160a05160c05160e05161010051610120516101405161016051615aa762000325600039600081816105da01526126ae0152600081816102de015281816122fd0152818161262701526131d901526000818161028c01528181610cae01528181610de301528181611189015281816115800152818161183601528181612152015281816123f301528181612ab4015281816132ca0152818161334c015281816134af015281816135fa01528181613681015261383001526000818161056601528181610a4001528181610be501528181610d3701528181610f0e01528181611325015281816117000152818161175e015281816118cb01528181611a3501528181611a9501528181611d110152818161251f01526129610152600081816104450152818161076f01528181610aee0152818161149f01528181611ba201528181611e1201528181611f52015281816128980152613561015260008181610326015281816106c1015281816109ac01528181610e7a015281816110a901528181611230015281816113c701528181611da20152818161226b0152818161235201526129ff0152600081816103c40152818161041c015261314b0152600081816105b301528181612cb30152612d5c0152615aa76000f3fe608060405234801561001057600080fd5b50600436106102115760003560e01c80637da0a87711610125578063c02c63ad116100ad578063d4a1b4b11161007c578063d4a1b4b114610561578063dd5f214a14610588578063f12b64a51461059b578063f434c914146105ae578063ffa08244146105d557600080fd5b8063c02c63ad14610506578063c1ec61ee14610519578063c5b19b0e1461053b578063c7fb92de1461054e57600080fd5b8063a2d532e6116100f4578063a2d532e61461048d578063a312889b146104a0578063b1a50e33146104c0578063b1e6d2a1146104d3578063b51d6244146104e657600080fd5b80637da0a8771461041a57806388bc2ef31461044057806399d25a3414610467578063a0d8e2a91461047a57600080fd5b8063293c4999116101a85780634da781a9116101775780634da781a91461038e5780635338fd9e146103a1578063572b6c05146103b457806358178191146103f4578063702a39771461040757600080fd5b8063293c499914610321578063303f5dfa14610348578063399755711461035b578063419296261461037b57600080fd5b80631d831d5c116101e45780631d831d5c146102875780631ea7bc8c146102c65780631f47ce69146102d957806325a61d5c1461030057600080fd5b806301ffc9a7146102165780630634bae91461023e578063090db2f11461025f5780630a1181ed14610272575b600080fd5b610229610224366004613c9d565b6105fc565b60405190151581526020015b60405180910390f35b61025161024c366004613f10565b61069f565b604051908152602001610235565b61025161026d366004613fdf565b610842565b610285610280366004613ff8565b61084d565b005b6102ae7f000000000000000000000000000000000000000000000000000000000000000081565b6040516001600160a01b039091168152602001610235565b6102516102d4366004614086565b610970565b6102ae7f000000000000000000000000000000000000000000000000000000000000000081565b61031361030e366004614121565b610bb8565b60405161023592919061428c565b6102ae7f000000000000000000000000000000000000000000000000000000000000000081565b6102856103563660046142a9565b610c6d565b610251610369366004613fdf565b60006020819052908152604090205481565b610313610389366004613fdf565b610d11565b61025161039c366004613fdf565b610dbe565b6102856103af3660046142f3565b610e60565b6102296103c2366004614323565b7f00000000000000000000000000000000000000000000000000000000000000006001600160a01b0390811691161490565b6102ae610402366004614340565b611084565b6102856104153660046143c1565b611216565b7f00000000000000000000000000000000000000000000000000000000000000006102ae565b6102ae7f000000000000000000000000000000000000000000000000000000000000000081565b610229610475366004613fdf565b611300565b61025161048836600461440c565b6113a2565b61028561049b366004614485565b611496565b6104b36104ae366004613fdf565b611641565b604051610235919061452d565b6102296104ce366004613fdf565b6116db565b6102856104e1366004614540565b611739565b6104f96104f4366004614588565b611899565b60405161023591906145b4565b610313610514366004613fdf565b611a0f565b61052c610527366004613fdf565b611a6c565b60405161023593929190614617565b610285610549366004614661565b611b20565b61025161055c3660046146a6565b611ccb565b6102ae7f000000000000000000000000000000000000000000000000000000000000000081565b610285610596366004614721565b612251565b6102856105a93660046142f3565b612338565b6102ae7f000000000000000000000000000000000000000000000000000000000000000081565b6102ae7f000000000000000000000000000000000000000000000000000000000000000081565b60006001600160e01b03198216631519df1760e21b148061062d57506001600160e01b031982166334ce2c7b60e21b145b8061064857506001600160e01b03198216632877540760e01b145b8061066357506001600160e01b031982166362d8cd8760e11b145b8061067e57506001600160e01b03198216633d0d324560e21b145b8061069957506001600160e01b031982166301ffc9a760e01b145b92915050565b60405163180e2b1160e31b81526001600160a01b0389811660048301526000917f00000000000000000000000000000000000000000000000000000000000000009091169063c0715888906024016020604051808303816000875af115801561070c573d6000803e3d6000fd5b505050506040513d601f19601f820116820180604052508101906107309190614773565b90508615610753576000818152600160205260409020610751888a8361480e565b505b6040516338a73f9960e11b8152600481018290523060248201527f00000000000000000000000000000000000000000000000000000000000000006001600160a01b03169063714e7f3290604401600060405180830381600087803b1580156107bb57600080fd5b505af11580156107cf573d6000803e3d6000fd5b5050505060006107e0828888612453565b90506107ed828686612744565b7f8dac501f24f52bda9ebdfa6a1789878c1d1e23823c771f7d52b5ba41261b0f4581838b8b8761081b612909565b60405161082d969594939291906148f7565b60405180910390a15098975050505050505050565b600061069982612918565b33301461085957600080fd5b61086d6001600160a01b0386168886612b91565b60405163fef4325760e01b81526001600160a01b0388169063fef43257906108a69089908990899089906000908a908a90600401614945565b6020604051808303816000875af11580156108c5573d6000803e3d6000fd5b505050506040513d601f19601f820116820180604052508101906108e99190614773565b50604051636eb1769f60e11b81523060048201526001600160a01b03888116602483015286169063dd62ed3e90604401602060405180830381865afa158015610936573d6000803e3d6000fd5b505050506040513d601f19601f8201168201806040525081019061095a9190614773565b15610967576109676149a0565b50505050505050565b600084810361099257604051631ec6004f60e01b815260040160405180910390fd5b6040516331a9108f60e11b815260048101889052610a27907f00000000000000000000000000000000000000000000000000000000000000006001600160a01b031690636352211e90602401602060405180830381865afa1580156109fb573d6000803e3d6000fd5b505050506040513d601f19601f82011682018060405250810190610a1f91906149b6565b886002612c55565b6040516319fade8560e11b8152600481018890526000907f00000000000000000000000000000000000000000000000000000000000000006001600160a01b0316906333f5bd0a90602401602060405180830381865afa158015610a8f573d6000803e3d6000fd5b505050506040513d601f19601f82011682018060405250810190610ab39190614773565b1115610ad257604051639115381560e01b815260040160405180910390fd5b6040516338a73f9960e11b8152600481018890523060248201527f00000000000000000000000000000000000000000000000000000000000000006001600160a01b03169063714e7f3290604401600060405180830381600087803b158015610b3a57600080fd5b505af1158015610b4e573d6000803e3d6000fd5b50505050610b5d878787612453565b9050610b6a878585612744565b7f23164adda696b19106c2eef50ba44461997682bf5aeb9fdb383117fa9952cc75818884610b96612909565b604051610ba694939291906149d3565b60405180910390a19695505050505050565b610bc0613b4b565b610bc8613ba0565b604051630969875760e21b815260048101859052602481018490527f00000000000000000000000000000000000000000000000000000000000000006001600160a01b0316906325a61d5c9060440161012060405180830381865afa158015610c35573d6000803e3d6000fd5b505050506040513d601f19601f82011682018060405250810190610c599190614a96565b9150610c6482612de7565b90509250929050565b610c798484600b612c55565b60405163181faefd60e11b81526001600160a01b038581166004830152602482018590526044820184905282811660648301527f0000000000000000000000000000000000000000000000000000000000000000169063303f5dfa906084015b600060405180830381600087803b158015610cf357600080fd5b505af1158015610d07573d6000803e3d6000fd5b5050505050505050565b610d19613b4b565b610d21613ba0565b6040516321d1336160e11b8152600481018490527f00000000000000000000000000000000000000000000000000000000000000006001600160a01b0316906343a266c2906024015b61012060405180830381865afa158015610d88573d6000803e3d6000fd5b505050506040513d601f19601f82011682018060405250810190610dac9190614a96565b9150610db782612de7565b9050915091565b6000818152602081905260408082205490516375b0d9cd60e01b8152600481018490527f00000000000000000000000000000000000000000000000000000000000000006001600160a01b0316906375b0d9cd90602401602060405180830381865afa158015610e32573d6000803e3d6000fd5b505050506040513d601f19601f82011682018060405250810190610e569190614773565b6106999190614ac9565b6040516331a9108f60e11b815260048101839052610ef5907f00000000000000000000000000000000000000000000000000000000000000006001600160a01b031690636352211e90602401602060405180830381865afa158015610ec9573d6000803e3d6000fd5b505050506040513d601f19601f82011682018060405250810190610eed91906149b6565b836004612c55565b6040516321d1336160e11b8152600481018390526000907f00000000000000000000000000000000000000000000000000000000000000006001600160a01b0316906343a266c29060240161012060405180830381865afa158015610f5e573d6000803e3d6000fd5b505050506040513d601f19601f82011682018060405250810190610f829190614a96565b61010081015190915060491c600190811614610fb15760405163719d422360e11b815260040160405180910390fd5b60008381526020819052604090205415610fd057610fce83612918565b505b6040516362d8cd8760e11b8152306004820152602481018490526001600160a01b0383169063c5b19b0e90604401600060405180830381600087803b15801561101857600080fd5b505af115801561102c573d6000803e3d6000fd5b50505050827f6d2afe69329448f0491521e53921343cc696596a49f64a5502a27935e6a482f98361105b612909565b604080516001600160a01b039384168152929091166020830152015b60405180910390a2505050565b6040516331a9108f60e11b81526004810187905260009061111c906001600160a01b037f00000000000000000000000000000000000000000000000000000000000000001690636352211e90602401602060405180830381865afa1580156110f0573d6000803e3d6000fd5b505050506040513d601f19601f8201168201806040525081019061111491906149b6565b886007612c55565b81156111725761112a612909565b8260405160200161115992919060609290921b6bffffffffffffffffffffffff19168252601482015260340190565b6040516020818303038152906040528051906020012091505b604051635817819160e01b81526001600160a01b037f000000000000000000000000000000000000000000000000000000000000000016906358178191906111c8908a908a908a908a908a908a90600401614adc565b6020604051808303816000875af11580156111e7573d6000803e3d6000fd5b505050506040513d601f19601f8201168201806040525081019061120b91906149b6565b979650505050505050565b6040516331a9108f60e11b8152600481018490526112ab907f00000000000000000000000000000000000000000000000000000000000000006001600160a01b031690636352211e90602401602060405180830381865afa15801561127f573d6000803e3d6000fd5b505050506040513d601f19601f820116820180604052508101906112a391906149b6565b846006612c55565b60008381526001602052604090206112c482848361480e565b50827f76f445b3718cf71aa0c056105beab456eba31f72f5cc5a60fde060fd14ea168483836112f1612909565b60405161107793929190614b1d565b6040516321d1336160e11b815260048101829052600090611397906001600160a01b037f000000000000000000000000000000000000000000000000000000000000000016906343a266c2906024015b61012060405180830381865afa15801561136e573d6000803e3d6000fd5b505050506040513d601f19601f820116820180604052508101906113929190614a96565b612de7565b610120015192915050565b6040516331a9108f60e11b81526004810186905260009061143a906001600160a01b037f00000000000000000000000000000000000000000000000000000000000000001690636352211e90602401602060405180830381865afa15801561140e573d6000803e3d6000fd5b505050506040513d601f19601f8201168201806040525081019061143291906149b6565b876002612c55565b611445868686612453565b90507f24d02d612b06648bfa2000859f3de7e6f336139eaf5877c24b0d21320625286281878585611474612909565b604051611485959493929190614b49565b60405180910390a195945050505050565b6115488585600a7f00000000000000000000000000000000000000000000000000000000000000006001600160a01b0316636e49181f896114d5612909565b6040516001600160e01b031960e085901b16815260048101929092526001600160a01b03166024820152604401602060405180830381865afa15801561151f573d6000803e3d6000fd5b505050506040513d601f19601f820116820180604052508101906115439190614b83565b612ef6565b8260000361156957604051637b38547b60e01b815260040160405180910390fd5b60405163124d91e560e01b81526001600160a01b037f0000000000000000000000000000000000000000000000000000000000000000169063124d91e5906115b990889088908890600401614ba0565b600060405180830381600087803b1580156115d357600080fd5b505af11580156115e7573d6000803e3d6000fd5b5050505083856001600160a01b03167fdf04e13ee4fcd48a81ab2fd114757093740a3efa9b6475d86e05878b4c59d079858585611622612909565b6040516116329493929190614bc1565b60405180910390a35050505050565b6001602052600090815260409020805461165a9061478c565b80601f01602080910402602001604051908101604052809291908181526020018280546116869061478c565b80156116d35780601f106116a8576101008083540402835291602001916116d3565b820191906000526020600020905b8154815290600101906020018083116116b657829003601f168201915b505050505081565b6040516321d1336160e11b81526004810182905260009061172f906001600160a01b037f000000000000000000000000000000000000000000000000000000000000000016906343a266c290602401611350565b60e0015192915050565b6117458484600c612c55565b6040516321d1336160e11b8152600481018490526000907f00000000000000000000000000000000000000000000000000000000000000006001600160a01b0316906343a266c29060240161012060405180830381865afa1580156117ae573d6000803e3d6000fd5b505050506040513d601f19601f820116820180604052508101906117d29190614a96565b61010081015190915060451c6001908116036118015760405163063a016960e01b815260040160405180910390fd5b60405163b1e6d2a160e01b81526001600160a01b038681166004830152602482018690528481166044830152606482018490527f0000000000000000000000000000000000000000000000000000000000000000169063b1e6d2a190608401600060405180830381600087803b15801561187a57600080fd5b505af115801561188e573d6000803e3d6000fd5b505050505050505050565b604051632d47589160e21b81526004810184905260248101839052604481018290526060906000906001600160a01b037f0000000000000000000000000000000000000000000000000000000000000000169063b51d624490606401600060405180830381865afa158015611912573d6000803e3d6000fd5b505050506040513d6000823e601f3d908101601f1916820160405261193a9190810190614c17565b8051909150806001600160401b0381111561195757611957613d78565b60405190808252806020026020018201604052801561199057816020015b61197d613c24565b8152602001906001900390816119755790505b50925061199b613b4b565b60005b82811015611a04578381815181106119b8576119b8614cb7565b6020026020010151915060405180604001604052808381526020016119dc84612de7565b8152508582815181106119f1576119f1614cb7565b602090810291909101015260010161199e565b505050509392505050565b611a17613b4b565b611a1f613ba0565b60405163c02c63ad60e01b8152600481018490527f00000000000000000000000000000000000000000000000000000000000000006001600160a01b03169063c02c63ad90602401610d6a565b611a74613b4b565b611a7c613ba0565b6040516360f630f760e11b8152600481018490526000907f00000000000000000000000000000000000000000000000000000000000000006001600160a01b03169063c1ec61ee9060240161014060405180830381865afa158015611ae5573d6000803e3d6000fd5b505050506040513d601f19601f82011682018060405250810190611b099190614ccd565b9093509050611b1783612de7565b91509193909250565b6040516301ffc9a760e01b81526334ce2c7b60e21b60048201526001600160a01b038316906301ffc9a790602401602060405180830381865afa158015611b6b573d6000803e3d6000fd5b505050506040513d601f19601f82011682018060405250810190611b8f9190614b83565b8015611c3a5750816001600160a01b03167f00000000000000000000000000000000000000000000000000000000000000006001600160a01b0316635dd8f6aa836040518263ffffffff1660e01b8152600401611bee91815260200190565b602060405180830381865afa158015611c0b573d6000803e3d6000fd5b505050506040513d601f19601f82011682018060405250810190611c2f91906149b6565b6001600160a01b0316145b15611cc75760405163a312889b60e01b8152600481018290526001600160a01b0383169063a312889b90602401600060405180830381865afa158015611c84573d6000803e3d6000fd5b505050506040513d6000823e601f3d908101601f19168201604052611cac9190810190614d00565b600082815260016020526040902090611cc59082614d6d565b505b5050565b600085600003611cee576040516327f44f9560e21b815260040160405180910390fd5b6040516321d1336160e11b81526004810188905260009081906001600160a01b037f000000000000000000000000000000000000000000000000000000000000000016906343a266c29060240161012060405180830381865afa158015611d59573d6000803e3d6000fd5b505050506040513d601f19601f82011682018060405250810190611d7d9190614a96565b6040516331a9108f60e11b8152600481018b9052909150611f2a906001600160a01b037f00000000000000000000000000000000000000000000000000000000000000001690636352211e90602401602060405180830381865afa158015611de9573d6000803e3d6000fd5b505050506040513d601f19601f82011682018060405250810190611e0d91906149b6565b8a60097f00000000000000000000000000000000000000000000000000000000000000006001600160a01b0316636e49181f8e611e48612909565b6040516001600160e01b031960e085901b16815260048101929092526001600160a01b03166024820152604401602060405180830381865afa158015611e92573d6000803e3d6000fd5b505050506040513d601f19601f82011682018060405250810190611eb69190614b83565b80611ee15750610100850151604f1c6001600160a01b0316611ed6612909565b6001600160a01b0316145b8061154357506000611ef8866101000151604f1c90565b6001600160a01b0316141580156115435750610100850151604f1c6001600160a01b031663677ce0888e6114d5612909565b602081015115801590611f49575061010081015160461c600190811614155b8015611ff857507f00000000000000000000000000000000000000000000000000000000000000006001600160a01b0316636e49181f8a611f88612909565b6040516001600160e01b031960e085901b16815260048101929092526001600160a01b03166024820152604401602060405180830381865afa158015611fd2573d6000803e3d6000fd5b505050506040513d601f19601f82011682018060405250810190611ff69190614b83565b155b80156120255750610100810151604f1c6001600160a01b0316612019612909565b6001600160a01b031614155b80156120dd5750600061203d826101000151604f1c90565b6001600160a01b031614806120dd5750610100810151604f1c6001600160a01b031663677ce0888a61206d612909565b6040516001600160e01b031960e085901b16815260048101929092526001600160a01b03166024820152604401602060405180830381865afa1580156120b7573d6000803e3d6000fd5b505050506040513d601f19601f820116820180604052508101906120db9190614b83565b155b156120fb57604051633022e3df60e11b815260040160405180910390fd5b83612107576000612115565b61010081015160041c61ffff165b915061271082146121be576121388861213084612710614e2c565b612710612f06565b60405163aab68bdb60e01b81529093506001600160a01b037f0000000000000000000000000000000000000000000000000000000000000000169063aab68bdb9061218b908a908d908890600401614ba0565b600060405180830381600087803b1580156121a557600080fd5b505af11580156121b9573d6000803e3d6000fd5b505050505b81156121f2576121ce8389614e2c565b60008a815260208190526040812080549091906121ec908490614ac9565b90915550505b88876001600160a01b03167fe6fee9c572244c0c2238c3112ac12d411750a7ee00eeebd32521c3e5a666c14b8a868a8a8861222b612909565b60405161223d96959493929190614e3f565b60405180910390a350509695505050505050565b6040516331a9108f60e11b8152600481018590526122e6907f00000000000000000000000000000000000000000000000000000000000000006001600160a01b031690636352211e90602401602060405180830381865afa1580156122ba573d6000803e3d6000fd5b505050506040513d601f19601f820116820180604052508101906122de91906149b6565b856011612c55565b604051636eaf90a560e11b81526001600160a01b037f0000000000000000000000000000000000000000000000000000000000000000169063dd5f214a90610cd9908790879087908790600401614e82565b6040516331a9108f60e11b8152600481018390526123cd907f00000000000000000000000000000000000000000000000000000000000000006001600160a01b031690636352211e90602401602060405180830381865afa1580156123a1573d6000803e3d6000fd5b505050506040513d601f19601f820116820180604052508101906123c591906149b6565b836008612c55565b60405163f12b64a560e01b8152600481018390526001600160a01b0382811660248301527f0000000000000000000000000000000000000000000000000000000000000000169063f12b64a590604401600060405180830381600087803b15801561243757600080fd5b505af115801561244b573d6000803e3d6000fd5b505050505050565b60008161245e613c49565b60005b8281101561273a5785858281811061247b5761247b614cb7565b905060200281019061248d9190614fd8565b6124969061541e565b91506127108260a001516000015111156124c357604051635623289560e01b815260040160405180910390fd5b6127108260a001516020015111156124ee57604051639db9ee9360e01b815260040160405180910390fd5b60a08201516040015163ffffffff101561251b5760405163e83c625560e01b815260040160405180910390fd5b60007f00000000000000000000000000000000000000000000000000000000000000006001600160a01b03166370174dcc89856020015186604001518760600151886080015161256e8a60a00151612fe5565b8a5160405160e089901b6001600160e01b031916815260048101979097526024870195909552604486019390935260648501919091526001600160a01b0316608484015260a483015260c482015260e401610120604051808303816000875af11580156125df573d6000803e3d6000fd5b505050506040513d601f19601f820116820180604052508101906126039190614a96565b602081015160c0850151604051636eaf90a560e11b81529293506001600160a01b037f0000000000000000000000000000000000000000000000000000000000000000169263dd5f214a9261265c928d92600401615520565b600060405180830381600087803b15801561267657600080fd5b505af115801561268a573d6000803e3d6000fd5b505050602082015160e085015160405163971e467760e01b81526001600160a01b037f000000000000000000000000000000000000000000000000000000000000000016935063971e4677926126e4928d92600401615622565b600060405180830381600087803b1580156126fe57600080fd5b505af1158015612712573d6000803e3d6000fd5b505050506001846127239190614e2c565b820361273157806020015194505b50600101612461565b5050509392505050565b806000816001600160401b0381111561275f5761275f613d78565b604051908082528060200260200182016040528015612788578160200160208202803683370190505b5060408051808201909152600081526060602082015290915060005b8381101561287a578585828181106127be576127be614cb7565b90506020028101906127d091906156c8565b6127d9906156de565b8051602082015160405163263a91ff60e21b81529294506001600160a01b03909116916398ea47fc91612811918b9190600401615795565b600060405180830381600087803b15801561282b57600080fd5b505af115801561283f573d6000803e3d6000fd5b50505050816000015183828151811061285a5761285a614cb7565b6001600160a01b03909216602092830291909101909101526001016127a4565b50821561244b5760405163104373fb60e31b81526001600160a01b037f0000000000000000000000000000000000000000000000000000000000000000169063821b9fd8906128cf9089908690600401615795565b600060405180830381600087803b1580156128e957600080fd5b505af11580156128fd573d6000803e3d6000fd5b50505050505050505050565b600061291361313b565b905090565b60008181526020819052604081205490819003612948576040516318615bc360e31b815260040160405180910390fd5b6040516321d1336160e11b8152600481018390526000907f00000000000000000000000000000000000000000000000000000000000000006001600160a01b0316906343a266c29060240161012060405180830381865afa1580156129b1573d6000803e3d6000fd5b505050506040513d601f19601f820116820180604052508101906129d59190614a96565b600084815260208190526040808220829055516331a9108f60e11b815260048101869052919250907f00000000000000000000000000000000000000000000000000000000000000006001600160a01b031690636352211e90602401602060405180830381865afa158015612a4e573d6000803e3d6000fd5b505050506040513d601f19601f82011682018060405250810190612a7291906149b6565b905060008315612a9257612a8d8584602001516001876131b0565b612a95565b60005b90508015612b205760405163aab68bdb60e01b81526001600160a01b037f0000000000000000000000000000000000000000000000000000000000000000169063aab68bdb90612aed90859089908690600401614ba0565b600060405180830381600087803b158015612b0757600080fd5b505af1158015612b1b573d6000803e3d6000fd5b505050505b84836000015184602001517f32411cac611c47cfe73afc187645c9cf3aec828d5f91780138d8421378fc0edb858886612b57612909565b604080516001600160a01b0395861681526020810194909452830191909152909116606082015260800160405180910390a4505050919050565b604080516001600160a01b038416602482015260448082018490528251808303909101815260649091019091526020810180516001600160e01b031663095ea7b360e01b179052612be28482613905565b612c4f576040516001600160a01b03848116602483015260006044830152612c4591869182169063095ea7b3906064015b604051602081830303815290604052915060e01b6020820180516001600160e01b0383818316178352505050506139ad565b612c4f84826139ad565b50505050565b6000612c5f612909565b9050836001600160a01b0316816001600160a01b031614158015612d20575060405163c161c93f60e01b81526001600160a01b038281166004830152858116602483015260448201859052606482018490527f0000000000000000000000000000000000000000000000000000000000000000169063c161c93f90608401602060405180830381865afa158015612cfa573d6000803e3d6000fd5b505050506040513d601f19601f82011682018060405250810190612d1e9190614b83565b155b8015612dc9575060405163c161c93f60e01b81526001600160a01b038281166004830152858116602483015260006044830152606482018490527f0000000000000000000000000000000000000000000000000000000000000000169063c161c93f90608401602060405180830381865afa158015612da3573d6000803e3d6000fd5b505050506040513d601f19601f82011682018060405250810190612dc79190614b83565b155b15612c4f5760405163075fd2b160e01b815260040160405180910390fd5b612def613ba0565b506040805161020081018252610100928301805160041c61ffff9081168352815160141c81166020840152815160241c63ffffffff16938301939093528051600160449190911c811681146060840152815160451c811681146080840152815160461c8116811460a0840152815160471c8116811460c0840152815160481c8116811460e0840152815160491c81168114948301949094528051604a1c841684146101208301528051604b1c841684146101408301528051604c1c841684146101608301528051604d1c841684146101808301528051604e1c84169093146101a08201528251604f1c6001600160a01b03166101c0820152915160ef1c166101e082015290565b80612c4f57612c4f848484612c55565b6000808060001985870985870292508281108382030391505080600003612f4057838281612f3657612f366157ee565b0492505050612fde565b838110612f7657604051630c740aef60e31b81526004810187905260248101869052604481018590526064015b60405180910390fd5b600084868809851960019081018716968790049682860381900495909211909303600082900391909104909201919091029190911760038402600290811880860282030280860282030280860282030280860282030280860282030280860290910302029150505b9392505050565b805160208201516040830151606084015160249190911b60149290921b60049390931b929092171760011790156130225768100000000000000000175b8160800151156130385768200000000000000000175b8160a001511561304e5768400000000000000000175b8160c00151156130645768800000000000000000175b8160e001511561307b576901000000000000000000175b81610100015115613093576902000000000000000000175b816101200151156130ab576904000000000000000000175b816101400151156130c3576908000000000000000000175b816101600151156130db576910000000000000000000175b816101800151156130f3576920000000000000000000175b816101a001511561310b576940000000000000000000175b6101c08201516101e09092015160ef1b6980000000000000000000600160ef1b03604f9390931b92909216171790565b6000366014336001600160a01b037f0000000000000000000000000000000000000000000000000000000000000000161480156131785750808210155b156131a85760003661318a8385614e2c565b613195928290615804565b61319e9161582e565b60601c9250505090565b339250505090565b6040516369e11cc560e01b815260048101859052602481018490526044810183905281906000907f00000000000000000000000000000000000000000000000000000000000000006001600160a01b0316906369e11cc590606401600060405180830381865afa158015613228573d6000803e3d6000fd5b505050506040513d6000823e601f3d908101601f191682016040526132509190810190615863565b805190915060005b818110156138fa57600083828151811061327457613274614cb7565b602002602001015190506000613293878360200151633b9aca00612f06565b905080156138ab5760a08201516001600160a01b0316156134605760a082015160405163aab68bdb60e01b81526001600160a01b037f0000000000000000000000000000000000000000000000000000000000000000169163aab68bdb9161330291908e908690600401614ba0565b600060405180830381600087803b15801561331c57600080fd5b505af1158015613330573d6000803e3d6000fd5b505060405163ea78803f60e01b8152600481018d9052600092507f00000000000000000000000000000000000000000000000000000000000000006001600160a01b0316915063ea78803f90602401602060405180830381865afa15801561339c573d6000803e3d6000fd5b505050506040513d601f19601f820116820180604052508101906133c091906149b6565b90508260a001516001600160a01b03166312903a856040518060c00160405280846001600160a01b03168152602001858152602001601281526020018e81526020018c8152602001868152506040518263ffffffff1660e01b8152600401613428919061594d565b600060405180830381600087803b15801561344257600080fd5b505af1158015613456573d6000803e3d6000fd5b505050505061389e565b60608201516000906001600160a01b03166134825761347d612909565b613488565b82606001515b905082604001516000146138195760405163ea78803f60e01b8152600481018c90526000907f00000000000000000000000000000000000000000000000000000000000000006001600160a01b03169063ea78803f90602401602060405180830381865afa1580156134fe573d6000803e3d6000fd5b505050506040513d601f19601f8201168201806040525081019061352291906149b6565b905060006001600160a01b038216156135d1576040858101519051630862026560e41b815260048101919091526001600160a01b0383811660248301527f00000000000000000000000000000000000000000000000000000000000000001690638620265090604401602060405180830381865afa1580156135a8573d6000803e3d6000fd5b505050506040513d601f19601f820116820180604052508101906135cc91906149b6565b6135d4565b60005b90506001600160a01b03821615806135f357506001600160a01b038116155b1561367f577f00000000000000000000000000000000000000000000000000000000000000006001600160a01b031663aab68bdb848f876040518463ffffffff1660e01b815260040161364893929190614ba0565b600060405180830381600087803b15801561366257600080fd5b505af1158015613676573d6000803e3d6000fd5b50505050613812565b7f00000000000000000000000000000000000000000000000000000000000000006001600160a01b031663aab68bdb308f876040518463ffffffff1660e01b81526004016136cf93929190614ba0565b600060405180830381600087803b1580156136e957600080fd5b505af11580156136fd573d6000803e3d6000fd5b5050505060008d60405160200161371691815260200190565b60408051601f1981840301815282825290880151630a1181ed60e01b83529092503091630a1181ed916137569186919088908b908b9089906004016159a1565b600060405180830381600087803b15801561377057600080fd5b505af1925050508015613781575060015b613810573d8080156137af576040519150601f19603f3d011682016040523d82523d6000602084013e6137b4565b606091505b506137c96001600160a01b0385168688613a10565b8e7feb1c69f596057b3b93b14d290bc52c6ddc7b7fa47184a8be88a30c656eac83e88888846137f6612909565b60405161380694939291906159ef565b60405180910390a2505b505b505061389c565b60405163aab68bdb60e01b81526001600160a01b037f0000000000000000000000000000000000000000000000000000000000000000169063aab68bdb906138699084908f908790600401614ba0565b600060405180830381600087803b15801561388357600080fd5b505af1158015613897573d6000803e3d6000fd5b505050505b505b6138a88187614e2c565b95505b87898b7f5b9f38b2a849d80d4925a023ac038581d16642209624dc7b8353077d36a7682485856138d9612909565b6040516138e893929190615a31565b60405180910390a45050600101613258565b505050949350505050565b6000806000846001600160a01b0316846040516139229190615a5f565b6000604051808303816000865af19150503d806000811461395f576040519150601f19603f3d011682016040523d82523d6000602084013e613964565b606091505b509150915081801561398e57508051158061398e57508080602001905181019061398e9190614b83565b80156139a457506000856001600160a01b03163b115b95945050505050565b60006139c26001600160a01b03841683613a41565b905080516000141580156139e75750808060200190518101906139e59190614b83565b155b15611cc557604051635274afe760e01b81526001600160a01b0384166004820152602401612f6d565b6040516001600160a01b03838116602483015260448201839052611cc591859182169063a9059cbb90606401612c13565b6060612fde8383600084600080856001600160a01b03168486604051613a679190615a5f565b60006040518083038185875af1925050503d8060008114613aa4576040519150601f19603f3d011682016040523d82523d6000602084013e613aa9565b606091505b5091509150613ab9868383613ac3565b9695505050505050565b606082613ad857613ad382613b1f565b612fde565b8151158015613aef57506001600160a01b0384163b155b15613b1857604051639996b31560e01b81526001600160a01b0385166004820152602401612f6d565b5080612fde565b805115613b2f5780518082602001fd5b604051630a12f52160e11b815260040160405180910390fd5b50565b6040518061012001604052806000815260200160008152602001600081526020016000815260200160008152602001600081526020016000815260200160006001600160a01b03168152602001600081525090565b6040805161020081018252600080825260208201819052918101829052606081018290526080810182905260a0810182905260c0810182905260e08101829052610100810182905261012081018290526101408101829052610160810182905261018081018290526101a081018290526101c081018290526101e081019190915290565b6040518060400160405280613c37613b4b565b8152602001613c44613ba0565b905290565b6040518061010001604052806000815260200160008152602001600081526020016000815260200160006001600160a01b03168152602001613c89613ba0565b815260200160608152602001606081525090565b600060208284031215613caf57600080fd5b81356001600160e01b031981168114612fde57600080fd5b6001600160a01b0381168114613b4857600080fd5b8035613ce781613cc7565b919050565b60008083601f840112613cfe57600080fd5b5081356001600160401b03811115613d1557600080fd5b602083019150836020828501011115613d2d57600080fd5b9250929050565b60008083601f840112613d4657600080fd5b5081356001600160401b03811115613d5d57600080fd5b6020830191508360208260051b8501011115613d2d57600080fd5b634e487b7160e01b600052604160045260246000fd5b60405161012081016001600160401b0381118282101715613db157613db1613d78565b60405290565b60405161020081016001600160401b0381118282101715613db157613db1613d78565b604080519081016001600160401b0381118282101715613db157613db1613d78565b60405160c081016001600160401b0381118282101715613db157613db1613d78565b604051608081016001600160401b0381118282101715613db157613db1613d78565b60405161010081016001600160401b0381118282101715613db157613db1613d78565b604051601f8201601f191681016001600160401b0381118282101715613e8b57613e8b613d78565b604052919050565b60006001600160401b03821115613eac57613eac613d78565b50601f01601f191660200190565b600082601f830112613ecb57600080fd5b8135613ede613ed982613e93565b613e63565b818152846020838601011115613ef357600080fd5b816020850160208301376000918101602001919091529392505050565b60008060008060008060008060a0898b031215613f2c57600080fd5b8835613f3781613cc7565b975060208901356001600160401b0380821115613f5357600080fd5b613f5f8c838d01613cec565b909950975060408b0135915080821115613f7857600080fd5b613f848c838d01613d34565b909750955060608b0135915080821115613f9d57600080fd5b613fa98c838d01613d34565b909550935060808b0135915080821115613fc257600080fd5b50613fcf8b828c01613eba565b9150509295985092959890939650565b600060208284031215613ff157600080fd5b5035919050565b600080600080600080600060c0888a03121561401357600080fd5b873561401e81613cc7565b965060208801359550604088013561403581613cc7565b945060608801359350608088013561404c81613cc7565b925060a08801356001600160401b0381111561406757600080fd5b6140738a828b01613cec565b989b979a50959850939692959293505050565b6000806000806000806080878903121561409f57600080fd5b8635955060208701356001600160401b03808211156140bd57600080fd5b6140c98a838b01613d34565b909750955060408901359150808211156140e257600080fd5b6140ee8a838b01613d34565b9095509350606089013591508082111561410757600080fd5b5061411489828a01613eba565b9150509295509295509295565b6000806040838503121561413457600080fd5b50508035926020909101359150565b805182526020808201519083015260408082015190830152606080820151908301526080808201519083015260a0808201519083015260c0808201519083015260e0808201516001600160a01b03169083015261010090810151910152565b80518252602081015160208301526040810151604083015260608101516141cd606084018215159052565b5060808101516141e1608084018215159052565b5060a08101516141f560a084018215159052565b5060c081015161420960c084018215159052565b5060e081015161421d60e084018215159052565b5061010081810151151590830152610120808201511515908301526101408082015115159083015261016080820151151590830152610180808201511515908301526101a0808201511515908301526101c0808201516001600160a01b0316908301526101e090810151910152565b610320810161429b8285614143565b612fde6101208301846141a2565b600080600080608085870312156142bf57600080fd5b84356142ca81613cc7565b9350602085013592506040850135915060608501356142e881613cc7565b939692955090935050565b6000806040838503121561430657600080fd5b82359150602083013561431881613cc7565b809150509250929050565b60006020828403121561433557600080fd5b8135612fde81613cc7565b6000806000806000806080878903121561435957600080fd5b8635955060208701356001600160401b038082111561437757600080fd5b6143838a838b01613cec565b9097509550604089013591508082111561439c57600080fd5b506143a989828a01613cec565b979a9699509497949695606090950135949350505050565b6000806000604084860312156143d657600080fd5b8335925060208401356001600160401b038111156143f357600080fd5b6143ff86828701613cec565b9497909650939450505050565b60008060008060006060868803121561442457600080fd5b8535945060208601356001600160401b038082111561444257600080fd5b61444e89838a01613d34565b9096509450604088013591508082111561446757600080fd5b5061447488828901613cec565b969995985093965092949392505050565b60008060008060006080868803121561449d57600080fd5b85356144a881613cc7565b9450602086013593506040860135925060608601356001600160401b038111156144d157600080fd5b61447488828901613cec565b60005b838110156144f85781810151838201526020016144e0565b50506000910152565b600081518084526145198160208601602086016144dd565b601f01601f19169290920160200192915050565b602081526000612fde6020830184614501565b6000806000806080858703121561455657600080fd5b843561456181613cc7565b935060208501359250604085013561457881613cc7565b9396929550929360600135925050565b60008060006060848603121561459d57600080fd5b505081359360208301359350604090920135919050565b6020808252825182820181905260009190848201906040850190845b8181101561460b5783516145e5848251614143565b8501516145f66101208501826141a2565b509284019261032092909201916001016145d0565b50909695505050505050565b61034081016146268286614143565b6146346101208301856141a2565b6006831061465257634e487b7160e01b600052602160045260246000fd5b82610320830152949350505050565b6000806040838503121561467457600080fd5b823561467f81613cc7565b946020939093013593505050565b8015158114613b4857600080fd5b8035613ce78161468d565b60008060008060008060a087890312156146bf57600080fd5b863595506020870135945060408701356146d881613cc7565b935060608701356001600160401b038111156146f357600080fd5b6146ff89828a01613cec565b90945092505060808701356147138161468d565b809150509295509295509295565b6000806000806060858703121561473757600080fd5b843593506020850135925060408501356001600160401b0381111561475b57600080fd5b61476787828801613d34565b95989497509550505050565b60006020828403121561478557600080fd5b5051919050565b600181811c908216806147a057607f821691505b6020821081036147c057634e487b7160e01b600052602260045260246000fd5b50919050565b601f821115611cc5576000816000526020600020601f850160051c810160208610156147ef5750805b601f850160051c820191505b8181101561244b578281556001016147fb565b6001600160401b0383111561482557614825613d78565b61483983614833835461478c565b836147c6565b6000601f84116001811461486d57600085156148555750838201355b600019600387901b1c1916600186901b1783556148c7565b600083815260209020601f19861690835b8281101561489e578685013582556020948501946001909201910161487e565b50868210156148bb5760001960f88860031b161c19848701351681555b505060018560011b0183555b5050505050565b81835281816020850137506000828201602090810191909152601f909101601f19169091010190565b86815285602082015260a06040820152600061491760a0830186886148ce565b82810360608401526149298186614501565b91505060018060a01b0383166080830152979650505050505050565b878152600060018060a01b03808916602084015287604084015280871660608401525084608083015260e060a0830152600060e08301526101008060c084015261499281840185876148ce565b9a9950505050505050505050565b634e487b7160e01b600052600160045260246000fd5b6000602082840312156149c857600080fd5b8151612fde81613cc7565b8481528360208201526080604082015260006149f26080830185614501565b905060018060a01b038316606083015295945050505050565b8051613ce781613cc7565b60006101208284031215614a2957600080fd5b614a31613d8e565b9050815181526020820151602082015260408201516040820152606082015160608201526080820151608082015260a082015160a082015260c082015160c0820152614a7f60e08301614a0b565b60e082015261010080830151818301525092915050565b60006101208284031215614aa957600080fd5b612fde8383614a16565b634e487b7160e01b600052601160045260246000fd5b8082018082111561069957610699614ab3565b868152608060208201526000614af66080830187896148ce565b8281036040840152614b098186886148ce565b915050826060830152979650505050505050565b604081526000614b316040830185876148ce565b905060018060a01b0383166020830152949350505050565b858152846020820152608060408201526000614b696080830185876148ce565b905060018060a01b03831660608301529695505050505050565b600060208284031215614b9557600080fd5b8151612fde8161468d565b6001600160a01b039390931683526020830191909152604082015260600190565b848152606060208201526000614bdb6060830185876148ce565b905060018060a01b038316604083015295945050505050565b60006001600160401b03821115614c0d57614c0d613d78565b5060051b60200190565b60006020808385031215614c2a57600080fd5b82516001600160401b03811115614c4057600080fd5b8301601f81018513614c5157600080fd5b8051614c5f613ed982614bf4565b808282526020820191506101206020818502860101935088841115614c8357600080fd5b6020850194505b83851015614cab57614c9c8986614a16565b83529384019391850191614c8a565b50979650505050505050565b634e487b7160e01b600052603260045260246000fd5b6000806101408385031215614ce157600080fd5b614ceb8484614a16565b91506101208301516006811061431857600080fd5b600060208284031215614d1257600080fd5b81516001600160401b03811115614d2857600080fd5b8201601f81018413614d3957600080fd5b8051614d47613ed982613e93565b818152856020838501011115614d5c57600080fd5b6139a48260208301602086016144dd565b81516001600160401b03811115614d8657614d86613d78565b614d9a81614d94845461478c565b846147c6565b602080601f831160018114614dcf5760008415614db75750858301515b600019600386901b1c1916600185901b17855561244b565b600085815260208120601f198616915b82811015614dfe57888601518255948401946001909101908401614ddf565b5085821015614e1c5787850151600019600388901b60f8161c191681555b5050505050600190811b01905550565b8181038181111561069957610699614ab3565b86815285602082015260a060408201526000614e5f60a0830186886148ce565b6060830194909452506001600160a01b0391909116608090910152949350505050565b6000606080830187845260208781860152604060606040870152828784526080935060808701905060808860051b8801018960005b8a811015614fc657898303607f190184528135368d9003603e19018112614edd57600080fd5b8c01803584528386018782013536839003601e19018112614efd57600080fd5b9091018781019190356001600160401b03811115614f1a57600080fd5b60c08082023603841315614f2d57600080fd5b868a01899052918190526000918b87015b82841015614fb0578435614f518161468d565b15158152848b01358b820152898501358a8201528c850135614f7281613cc7565b6001600160a01b03908116828f0152858d01358d83015260a09086820135614f9981613cc7565b169082015293810193600193909301928101614f3e565b978a019796505050928701925050600101614eb7565b50909c9b505050505050505050505050565b600082356102de19833603018112614fef57600080fd5b9190910192915050565b6000610200828403121561500c57600080fd5b615014613db7565b905081358152602082013560208201526040820135604082015261503a6060830161469b565b606082015261504b6080830161469b565b608082015261505c60a0830161469b565b60a082015261506d60c0830161469b565b60c082015261507e60e0830161469b565b60e082015261010061509181840161469b565b908201526101206150a383820161469b565b908201526101406150b583820161469b565b908201526101606150c783820161469b565b908201526101806150d983820161469b565b908201526101a06150eb83820161469b565b908201526101c06150fd838201613cdc565b81830152506101e080830135818301525092915050565b600082601f83011261512557600080fd5b81356020615135613ed983614bf4565b82815260059290921b8401810191818101908684111561515457600080fd5b8286015b8481101561528d5780356001600160401b038082111561517757600080fd5b908801906040828b03601f190181131561519057600080fd5b615198613dda565b87840135815281840135838111156151af57600080fd5b8085019450508b603f8501126151c457600080fd5b8784013592506151d6613ed984614bf4565b83815260c09093028401820192888101908d8511156151f457600080fd5b948301945b848610156152785760c0868f03121561521157600080fd5b615219613dfc565b86356152248161468d565b8152868b01358b8201528487013585820152606087013561524481613cc7565b60608201526080878101359082015260a087013561526181613cc7565b60a0820152825260c09590950194908901906151f9565b828a0152508652505050918301918301615158565b509695505050505050565b600082601f8301126152a957600080fd5b813560206152b9613ed983614bf4565b82815260069290921b840181019181810190868411156152d857600080fd5b8286015b8481101561528d57604081890312156152f55760008081fd5b6152fd613dda565b8135815284820135858201528352918301916040016152dc565b600082601f83011261532857600080fd5b81356020615338613ed983614bf4565b82815260059290921b8401810191818101908684111561535757600080fd5b8286015b8481101561528d5780356001600160401b038082111561537b5760008081fd5b908801906080828b03601f19018113156153955760008081fd5b61539d613e1e565b878401356153aa81613cc7565b81526040848101356153bb81613cc7565b828a0152606085810135858111156153d35760008081fd5b6153e18f8c838a0101615298565b84840152509285013592848411156153fb57600091508182fd5b6154098e8b86890101615298565b9083015250865250505091830191830161535b565b60006102e0823603121561543157600080fd5b615439613e40565b8235815260208301356020820152604083013560408201526060830135606082015261546760808401613cdc565b60808201526154793660a08501614ff9565b60a08201526102a08301356001600160401b038082111561549957600080fd5b6154a536838701615114565b60c08401526102c08501359150808211156154bf57600080fd5b506154cc36828601615317565b60e08301525092915050565b80511515825260208082015190830152604080820151908301526060808201516001600160a01b03908116918401919091526080808301519084015260a09182015116910152565b600060608083018684526020868186015260406060604087015282875180855260808801915060808160051b89010194508389016000805b838110156155c9578a8803607f190185528251805189528701518789018790528051878a018190529088019083908b8b01905b808310156155b45761559e8285516154d8565b60c0820191508a8401935060018301925061558b565b50995050509386019391860191600101615558565b50959c9b505050505050505050505050565b60008151808452602080850194506020840160005b838110156156175781518051885283015183880152604090960195908201906001016155f0565b509495945050505050565b60006060808301868452602086818601526040606060408701528287518085526080945060808801915060808160051b890101848a0160005b83811015614fc6578a8303607f19018552815180516001600160a01b039081168552888201511688850152868101518785018a905261569c8a8601826155db565b918b0151858303868d01529190506156b481836155db565b96890196945050509086019060010161565b565b60008235603e19833603018112614fef57600080fd5b6000604082360312156156f057600080fd5b6156f8613dda565b823561570381613cc7565b81526020838101356001600160401b0381111561571f57600080fd5b840136601f82011261573057600080fd5b803561573e613ed982614bf4565b81815260059190911b8201830190838101903683111561575d57600080fd5b928401925b8284101561578457833561577581613cc7565b82529284019290840190615762565b938501939093525091949350505050565b60006040820184835260206040602085015281855180845260608601915060208701935060005b818110156157e15784516001600160a01b0316835293830193918301916001016157bc565b5090979650505050505050565b634e487b7160e01b600052601260045260246000fd5b6000808585111561581457600080fd5b8386111561582157600080fd5b5050820193919092039150565b6bffffffffffffffffffffffff19813581811691601485101561585b5780818660140360031b1b83161692505b505092915050565b6000602080838503121561587657600080fd5b82516001600160401b0381111561588c57600080fd5b8301601f8101851361589d57600080fd5b80516158ab613ed982614bf4565b81815260c091820283018401918482019190888411156158ca57600080fd5b938501935b83851015614cab5780858a0312156158e75760008081fd5b6158ef613dfc565b85516158fa8161468d565b815285870151878201526040808701519082015260608087015161591d81613cc7565b908201526080868101519082015260a08087015161593a81613cc7565b90820152835293840193918501916158cf565b81516001600160a01b031681526020808301519082015260408083015190820152606080830151908201526080808301519082015260a08281015161016083019161599a908401826154d8565b5092915050565b6001600160a01b038781168252602082018790528581166040830152606082018590528316608082015260c060a082018190526000906159e390830184614501565b98975050505050505050565b60006101206159fe83886154d8565b8560c08401528060e0840152615a1681840186614501565b91505060018060a01b03831661010083015295945050505050565b6101008101615a4082866154d8565b60c08201939093526001600160a01b039190911660e090910152919050565b60008251614fef8184602087016144dd56fea26469706673582212200aefd98dfbe6d44cb4e770046bc1d9bcd2a16d2a5d23eeae4a580e6e523a128764736f6c63430008170033",
	"deployedBytecode": "0x608060405234801561001057600080fd5b50600436106102115760003560e01c80637da0a87711610125578063c02c63ad116100ad578063d4a1b4b11161007c578063d4a1b4b114610561578063dd5f214a14610588578063f12b64a51461059b578063f434c914146105ae578063ffa08244146105d557600080fd5b8063c02c63ad14610506578063c1ec61ee14610519578063c5b19b0e1461053b578063c7fb92de1461054e57600080fd5b8063a2d532e6116100f4578063a2d532e61461048d578063a312889b146104a0578063b1a50e33146104c0578063b1e6d2a1146104d3578063b51d6244146104e657600080fd5b80637da0a8771461041a57806388bc2ef31461044057806399d25a3414610467578063a0d8e2a91461047a57600080fd5b8063293c4999116101a85780634da781a9116101775780634da781a91461038e5780635338fd9e146103a1578063572b6c05146103b457806358178191146103f4578063702a39771461040757600080fd5b8063293c499914610321578063303f5dfa14610348578063399755711461035b578063419296261461037b57600080fd5b80631d831d5c116101e45780631d831d5c146102875780631ea7bc8c146102c65780631f47ce69146102d957806325a61d5c1461030057600080fd5b806301ffc9a7146102165780630634bae91461023e578063090db2f11461025f5780630a1181ed14610272575b600080fd5b610229610224366004613c9d565b6105fc565b60405190151581526020015b60405180910390f35b61025161024c366004613f10565b61069f565b604051908152602001610235565b61025161026d366004613fdf565b610842565b610285610280366004613ff8565b61084d565b005b6102ae7f0000000000000000000000004207c2a3491d2f3ae33609588ddfebeb8eebcb6e81565b6040516001600160a01b039091168152602001610235565b6102516102d4366004614086565b610970565b6102ae7f000000000000000000000000d685a38ea59b8fca6dfed1af41924a9b327af93681565b61031361030e366004614121565b610bb8565b60405161023592919061428c565b6102ae7f0000000000000000000000002ca466eb84dd69a99e25d10bbbda6e1b3c562c4981565b6102856103563660046142a9565b610c6d565b610251610369366004613fdf565b60006020819052908152604090205481565b610313610389366004613fdf565b610d11565b61025161039c366004613fdf565b610dbe565b6102856103af3660046142f3565b610e60565b6102296103c2366004614323565b7f000000000000000000000000b2b5841dbef766d4b521221732f9b618fcf34a876001600160a01b0390811691161490565b6102ae610402366004614340565b611084565b6102856104153660046143c1565b611216565b7f000000000000000000000000b2b5841dbef766d4b521221732f9b618fcf34a876102ae565b6102ae7f000000000000000000000000cd7112ae7c3b2505f0795c1ba965e5694c25d69681565b610229610475366004613fdf565b611300565b61025161048836600461440c565b6113a2565b61028561049b366004614485565b611496565b6104b36104ae366004613fdf565b611641565b604051610235919061452d565b6102296104ce366004613fdf565b6116db565b6102856104e1366004614540565b611739565b6104f96104f4366004614588565b611899565b60405161023591906145b4565b610313610514366004613fdf565b611a0f565b61052c610527366004613fdf565b611a6c565b60405161023593929190614617565b610285610549366004614661565b611b20565b61025161055c3660046146a6565b611ccb565b6102ae7f000000000000000000000000eac995e09d18a0e7c44d4cf0c7c85400666524cf81565b610285610596366004614721565b612251565b6102856105a93660046142f3565b612338565b6102ae7f0000000000000000000000006b8340b759d72e08b3fb674b48547e80631007cb81565b6102ae7f000000000000000000000000dd9aa62cc22c8292fdab5430e65ccbb772ac85b381565b60006001600160e01b03198216631519df1760e21b148061062d57506001600160e01b031982166334ce2c7b60e21b145b8061064857506001600160e01b03198216632877540760e01b145b8061066357506001600160e01b031982166362d8cd8760e11b145b8061067e57506001600160e01b03198216633d0d324560e21b145b8061069957506001600160e01b031982166301ffc9a760e01b145b92915050565b60405163180e2b1160e31b81526001600160a01b0389811660048301526000917f0000000000000000000000002ca466eb84dd69a99e25d10bbbda6e1b3c562c499091169063c0715888906024016020604051808303816000875af115801561070c573d6000803e3d6000fd5b505050506040513d601f19601f820116820180604052508101906107309190614773565b90508615610753576000818152600160205260409020610751888a8361480e565b505b6040516338a73f9960e11b8152600481018290523060248201527f000000000000000000000000cd7112ae7c3b2505f0795c1ba965e5694c25d6966001600160a01b03169063714e7f3290604401600060405180830381600087803b1580156107bb57600080fd5b505af11580156107cf573d6000803e3d6000fd5b5050505060006107e0828888612453565b90506107ed828686612744565b7f8dac501f24f52bda9ebdfa6a1789878c1d1e23823c771f7d52b5ba41261b0f4581838b8b8761081b612909565b60405161082d969594939291906148f7565b60405180910390a15098975050505050505050565b600061069982612918565b33301461085957600080fd5b61086d6001600160a01b0386168886612b91565b60405163fef4325760e01b81526001600160a01b0388169063fef43257906108a69089908990899089906000908a908a90600401614945565b6020604051808303816000875af11580156108c5573d6000803e3d6000fd5b505050506040513d601f19601f820116820180604052508101906108e99190614773565b50604051636eb1769f60e11b81523060048201526001600160a01b03888116602483015286169063dd62ed3e90604401602060405180830381865afa158015610936573d6000803e3d6000fd5b505050506040513d601f19601f8201168201806040525081019061095a9190614773565b15610967576109676149a0565b50505050505050565b600084810361099257604051631ec6004f60e01b815260040160405180910390fd5b6040516331a9108f60e11b815260048101889052610a27907f0000000000000000000000002ca466eb84dd69a99e25d10bbbda6e1b3c562c496001600160a01b031690636352211e90602401602060405180830381865afa1580156109fb573d6000803e3d6000fd5b505050506040513d601f19601f82011682018060405250810190610a1f91906149b6565b886002612c55565b6040516319fade8560e11b8152600481018890526000907f000000000000000000000000eac995e09d18a0e7c44d4cf0c7c85400666524cf6001600160a01b0316906333f5bd0a90602401602060405180830381865afa158015610a8f573d6000803e3d6000fd5b505050506040513d601f19601f82011682018060405250810190610ab39190614773565b1115610ad257604051639115381560e01b815260040160405180910390fd5b6040516338a73f9960e11b8152600481018890523060248201527f000000000000000000000000cd7112ae7c3b2505f0795c1ba965e5694c25d6966001600160a01b03169063714e7f3290604401600060405180830381600087803b158015610b3a57600080fd5b505af1158015610b4e573d6000803e3d6000fd5b50505050610b5d878787612453565b9050610b6a878585612744565b7f23164adda696b19106c2eef50ba44461997682bf5aeb9fdb383117fa9952cc75818884610b96612909565b604051610ba694939291906149d3565b60405180910390a19695505050505050565b610bc0613b4b565b610bc8613ba0565b604051630969875760e21b815260048101859052602481018490527f000000000000000000000000eac995e09d18a0e7c44d4cf0c7c85400666524cf6001600160a01b0316906325a61d5c9060440161012060405180830381865afa158015610c35573d6000803e3d6000fd5b505050506040513d601f19601f82011682018060405250810190610c599190614a96565b9150610c6482612de7565b90509250929050565b610c798484600b612c55565b60405163181faefd60e11b81526001600160a01b038581166004830152602482018590526044820184905282811660648301527f0000000000000000000000004207c2a3491d2f3ae33609588ddfebeb8eebcb6e169063303f5dfa906084015b600060405180830381600087803b158015610cf357600080fd5b505af1158015610d07573d6000803e3d6000fd5b5050505050505050565b610d19613b4b565b610d21613ba0565b6040516321d1336160e11b8152600481018490527f000000000000000000000000eac995e09d18a0e7c44d4cf0c7c85400666524cf6001600160a01b0316906343a266c2906024015b61012060405180830381865afa158015610d88573d6000803e3d6000fd5b505050506040513d601f19601f82011682018060405250810190610dac9190614a96565b9150610db782612de7565b9050915091565b6000818152602081905260408082205490516375b0d9cd60e01b8152600481018490527f0000000000000000000000004207c2a3491d2f3ae33609588ddfebeb8eebcb6e6001600160a01b0316906375b0d9cd90602401602060405180830381865afa158015610e32573d6000803e3d6000fd5b505050506040513d601f19601f82011682018060405250810190610e569190614773565b6106999190614ac9565b6040516331a9108f60e11b815260048101839052610ef5907f0000000000000000000000002ca466eb84dd69a99e25d10bbbda6e1b3c562c496001600160a01b031690636352211e90602401602060405180830381865afa158015610ec9573d6000803e3d6000fd5b505050506040513d601f19601f82011682018060405250810190610eed91906149b6565b836004612c55565b6040516321d1336160e11b8152600481018390526000907f000000000000000000000000eac995e09d18a0e7c44d4cf0c7c85400666524cf6001600160a01b0316906343a266c29060240161012060405180830381865afa158015610f5e573d6000803e3d6000fd5b505050506040513d601f19601f82011682018060405250810190610f829190614a96565b61010081015190915060491c600190811614610fb15760405163719d422360e11b815260040160405180910390fd5b60008381526020819052604090205415610fd057610fce83612918565b505b6040516362d8cd8760e11b8152306004820152602481018490526001600160a01b0383169063c5b19b0e90604401600060405180830381600087803b15801561101857600080fd5b505af115801561102c573d6000803e3d6000fd5b50505050827f6d2afe69329448f0491521e53921343cc696596a49f64a5502a27935e6a482f98361105b612909565b604080516001600160a01b039384168152929091166020830152015b60405180910390a2505050565b6040516331a9108f60e11b81526004810187905260009061111c906001600160a01b037f0000000000000000000000002ca466eb84dd69a99e25d10bbbda6e1b3c562c491690636352211e90602401602060405180830381865afa1580156110f0573d6000803e3d6000fd5b505050506040513d601f19601f8201168201806040525081019061111491906149b6565b886007612c55565b81156111725761112a612909565b8260405160200161115992919060609290921b6bffffffffffffffffffffffff19168252601482015260340190565b6040516020818303038152906040528051906020012091505b604051635817819160e01b81526001600160a01b037f0000000000000000000000004207c2a3491d2f3ae33609588ddfebeb8eebcb6e16906358178191906111c8908a908a908a908a908a908a90600401614adc565b6020604051808303816000875af11580156111e7573d6000803e3d6000fd5b505050506040513d601f19601f8201168201806040525081019061120b91906149b6565b979650505050505050565b6040516331a9108f60e11b8152600481018490526112ab907f0000000000000000000000002ca466eb84dd69a99e25d10bbbda6e1b3c562c496001600160a01b031690636352211e90602401602060405180830381865afa15801561127f573d6000803e3d6000fd5b505050506040513d601f19601f820116820180604052508101906112a391906149b6565b846006612c55565b60008381526001602052604090206112c482848361480e565b50827f76f445b3718cf71aa0c056105beab456eba31f72f5cc5a60fde060fd14ea168483836112f1612909565b60405161107793929190614b1d565b6040516321d1336160e11b815260048101829052600090611397906001600160a01b037f000000000000000000000000eac995e09d18a0e7c44d4cf0c7c85400666524cf16906343a266c2906024015b61012060405180830381865afa15801561136e573d6000803e3d6000fd5b505050506040513d601f19601f820116820180604052508101906113929190614a96565b612de7565b610120015192915050565b6040516331a9108f60e11b81526004810186905260009061143a906001600160a01b037f0000000000000000000000002ca466eb84dd69a99e25d10bbbda6e1b3c562c491690636352211e90602401602060405180830381865afa15801561140e573d6000803e3d6000fd5b505050506040513d601f19601f8201168201806040525081019061143291906149b6565b876002612c55565b611445868686612453565b90507f24d02d612b06648bfa2000859f3de7e6f336139eaf5877c24b0d21320625286281878585611474612909565b604051611485959493929190614b49565b60405180910390a195945050505050565b6115488585600a7f000000000000000000000000cd7112ae7c3b2505f0795c1ba965e5694c25d6966001600160a01b0316636e49181f896114d5612909565b6040516001600160e01b031960e085901b16815260048101929092526001600160a01b03166024820152604401602060405180830381865afa15801561151f573d6000803e3d6000fd5b505050506040513d601f19601f820116820180604052508101906115439190614b83565b612ef6565b8260000361156957604051637b38547b60e01b815260040160405180910390fd5b60405163124d91e560e01b81526001600160a01b037f0000000000000000000000004207c2a3491d2f3ae33609588ddfebeb8eebcb6e169063124d91e5906115b990889088908890600401614ba0565b600060405180830381600087803b1580156115d357600080fd5b505af11580156115e7573d6000803e3d6000fd5b5050505083856001600160a01b03167fdf04e13ee4fcd48a81ab2fd114757093740a3efa9b6475d86e05878b4c59d079858585611622612909565b6040516116329493929190614bc1565b60405180910390a35050505050565b6001602052600090815260409020805461165a9061478c565b80601f01602080910402602001604051908101604052809291908181526020018280546116869061478c565b80156116d35780601f106116a8576101008083540402835291602001916116d3565b820191906000526020600020905b8154815290600101906020018083116116b657829003601f168201915b505050505081565b6040516321d1336160e11b81526004810182905260009061172f906001600160a01b037f000000000000000000000000eac995e09d18a0e7c44d4cf0c7c85400666524cf16906343a266c290602401611350565b60e0015192915050565b6117458484600c612c55565b6040516321d1336160e11b8152600481018490526000907f000000000000000000000000eac995e09d18a0e7c44d4cf0c7c85400666524cf6001600160a01b0316906343a266c29060240161012060405180830381865afa1580156117ae573d6000803e3d6000fd5b505050506040513d601f19601f820116820180604052508101906117d29190614a96565b61010081015190915060451c6001908116036118015760405163063a016960e01b815260040160405180910390fd5b60405163b1e6d2a160e01b81526001600160a01b038681166004830152602482018690528481166044830152606482018490527f0000000000000000000000004207c2a3491d2f3ae33609588ddfebeb8eebcb6e169063b1e6d2a190608401600060405180830381600087803b15801561187a57600080fd5b505af115801561188e573d6000803e3d6000fd5b505050505050505050565b604051632d47589160e21b81526004810184905260248101839052604481018290526060906000906001600160a01b037f000000000000000000000000eac995e09d18a0e7c44d4cf0c7c85400666524cf169063b51d624490606401600060405180830381865afa158015611912573d6000803e3d6000fd5b505050506040513d6000823e601f3d908101601f1916820160405261193a9190810190614c17565b8051909150806001600160401b0381111561195757611957613d78565b60405190808252806020026020018201604052801561199057816020015b61197d613c24565b8152602001906001900390816119755790505b50925061199b613b4b565b60005b82811015611a04578381815181106119b8576119b8614cb7565b6020026020010151915060405180604001604052808381526020016119dc84612de7565b8152508582815181106119f1576119f1614cb7565b602090810291909101015260010161199e565b505050509392505050565b611a17613b4b565b611a1f613ba0565b60405163c02c63ad60e01b8152600481018490527f000000000000000000000000eac995e09d18a0e7c44d4cf0c7c85400666524cf6001600160a01b03169063c02c63ad90602401610d6a565b611a74613b4b565b611a7c613ba0565b6040516360f630f760e11b8152600481018490526000907f000000000000000000000000eac995e09d18a0e7c44d4cf0c7c85400666524cf6001600160a01b03169063c1ec61ee9060240161014060405180830381865afa158015611ae5573d6000803e3d6000fd5b505050506040513d601f19601f82011682018060405250810190611b099190614ccd565b9093509050611b1783612de7565b91509193909250565b6040516301ffc9a760e01b81526334ce2c7b60e21b60048201526001600160a01b038316906301ffc9a790602401602060405180830381865afa158015611b6b573d6000803e3d6000fd5b505050506040513d601f19601f82011682018060405250810190611b8f9190614b83565b8015611c3a5750816001600160a01b03167f000000000000000000000000cd7112ae7c3b2505f0795c1ba965e5694c25d6966001600160a01b0316635dd8f6aa836040518263ffffffff1660e01b8152600401611bee91815260200190565b602060405180830381865afa158015611c0b573d6000803e3d6000fd5b505050506040513d601f19601f82011682018060405250810190611c2f91906149b6565b6001600160a01b0316145b15611cc75760405163a312889b60e01b8152600481018290526001600160a01b0383169063a312889b90602401600060405180830381865afa158015611c84573d6000803e3d6000fd5b505050506040513d6000823e601f3d908101601f19168201604052611cac9190810190614d00565b600082815260016020526040902090611cc59082614d6d565b505b5050565b600085600003611cee576040516327f44f9560e21b815260040160405180910390fd5b6040516321d1336160e11b81526004810188905260009081906001600160a01b037f000000000000000000000000eac995e09d18a0e7c44d4cf0c7c85400666524cf16906343a266c29060240161012060405180830381865afa158015611d59573d6000803e3d6000fd5b505050506040513d601f19601f82011682018060405250810190611d7d9190614a96565b6040516331a9108f60e11b8152600481018b9052909150611f2a906001600160a01b037f0000000000000000000000002ca466eb84dd69a99e25d10bbbda6e1b3c562c491690636352211e90602401602060405180830381865afa158015611de9573d6000803e3d6000fd5b505050506040513d601f19601f82011682018060405250810190611e0d91906149b6565b8a60097f000000000000000000000000cd7112ae7c3b2505f0795c1ba965e5694c25d6966001600160a01b0316636e49181f8e611e48612909565b6040516001600160e01b031960e085901b16815260048101929092526001600160a01b03166024820152604401602060405180830381865afa158015611e92573d6000803e3d6000fd5b505050506040513d601f19601f82011682018060405250810190611eb69190614b83565b80611ee15750610100850151604f1c6001600160a01b0316611ed6612909565b6001600160a01b0316145b8061154357506000611ef8866101000151604f1c90565b6001600160a01b0316141580156115435750610100850151604f1c6001600160a01b031663677ce0888e6114d5612909565b602081015115801590611f49575061010081015160461c600190811614155b8015611ff857507f000000000000000000000000cd7112ae7c3b2505f0795c1ba965e5694c25d6966001600160a01b0316636e49181f8a611f88612909565b6040516001600160e01b031960e085901b16815260048101929092526001600160a01b03166024820152604401602060405180830381865afa158015611fd2573d6000803e3d6000fd5b505050506040513d601f19601f82011682018060405250810190611ff69190614b83565b155b80156120255750610100810151604f1c6001600160a01b0316612019612909565b6001600160a01b031614155b80156120dd5750600061203d826101000151604f1c90565b6001600160a01b031614806120dd5750610100810151604f1c6001600160a01b031663677ce0888a61206d612909565b6040516001600160e01b031960e085901b16815260048101929092526001600160a01b03166024820152604401602060405180830381865afa1580156120b7573d6000803e3d6000fd5b505050506040513d601f19601f820116820180604052508101906120db9190614b83565b155b156120fb57604051633022e3df60e11b815260040160405180910390fd5b83612107576000612115565b61010081015160041c61ffff165b915061271082146121be576121388861213084612710614e2c565b612710612f06565b60405163aab68bdb60e01b81529093506001600160a01b037f0000000000000000000000004207c2a3491d2f3ae33609588ddfebeb8eebcb6e169063aab68bdb9061218b908a908d908890600401614ba0565b600060405180830381600087803b1580156121a557600080fd5b505af11580156121b9573d6000803e3d6000fd5b505050505b81156121f2576121ce8389614e2c565b60008a815260208190526040812080549091906121ec908490614ac9565b90915550505b88876001600160a01b03167fe6fee9c572244c0c2238c3112ac12d411750a7ee00eeebd32521c3e5a666c14b8a868a8a8861222b612909565b60405161223d96959493929190614e3f565b60405180910390a350509695505050505050565b6040516331a9108f60e11b8152600481018590526122e6907f0000000000000000000000002ca466eb84dd69a99e25d10bbbda6e1b3c562c496001600160a01b031690636352211e90602401602060405180830381865afa1580156122ba573d6000803e3d6000fd5b505050506040513d601f19601f820116820180604052508101906122de91906149b6565b856011612c55565b604051636eaf90a560e11b81526001600160a01b037f000000000000000000000000d685a38ea59b8fca6dfed1af41924a9b327af936169063dd5f214a90610cd9908790879087908790600401614e82565b6040516331a9108f60e11b8152600481018390526123cd907f0000000000000000000000002ca466eb84dd69a99e25d10bbbda6e1b3c562c496001600160a01b031690636352211e90602401602060405180830381865afa1580156123a1573d6000803e3d6000fd5b505050506040513d601f19601f820116820180604052508101906123c591906149b6565b836008612c55565b60405163f12b64a560e01b8152600481018390526001600160a01b0382811660248301527f0000000000000000000000004207c2a3491d2f3ae33609588ddfebeb8eebcb6e169063f12b64a590604401600060405180830381600087803b15801561243757600080fd5b505af115801561244b573d6000803e3d6000fd5b505050505050565b60008161245e613c49565b60005b8281101561273a5785858281811061247b5761247b614cb7565b905060200281019061248d9190614fd8565b6124969061541e565b91506127108260a001516000015111156124c357604051635623289560e01b815260040160405180910390fd5b6127108260a001516020015111156124ee57604051639db9ee9360e01b815260040160405180910390fd5b60a08201516040015163ffffffff101561251b5760405163e83c625560e01b815260040160405180910390fd5b60007f000000000000000000000000eac995e09d18a0e7c44d4cf0c7c85400666524cf6001600160a01b03166370174dcc89856020015186604001518760600151886080015161256e8a60a00151612fe5565b8a5160405160e089901b6001600160e01b031916815260048101979097526024870195909552604486019390935260648501919091526001600160a01b0316608484015260a483015260c482015260e401610120604051808303816000875af11580156125df573d6000803e3d6000fd5b505050506040513d601f19601f820116820180604052508101906126039190614a96565b602081015160c0850151604051636eaf90a560e11b81529293506001600160a01b037f000000000000000000000000d685a38ea59b8fca6dfed1af41924a9b327af936169263dd5f214a9261265c928d92600401615520565b600060405180830381600087803b15801561267657600080fd5b505af115801561268a573d6000803e3d6000fd5b505050602082015160e085015160405163971e467760e01b81526001600160a01b037f000000000000000000000000dd9aa62cc22c8292fdab5430e65ccbb772ac85b316935063971e4677926126e4928d92600401615622565b600060405180830381600087803b1580156126fe57600080fd5b505af1158015612712573d6000803e3d6000fd5b505050506001846127239190614e2c565b820361273157806020015194505b50600101612461565b5050509392505050565b806000816001600160401b0381111561275f5761275f613d78565b604051908082528060200260200182016040528015612788578160200160208202803683370190505b5060408051808201909152600081526060602082015290915060005b8381101561287a578585828181106127be576127be614cb7565b90506020028101906127d091906156c8565b6127d9906156de565b8051602082015160405163263a91ff60e21b81529294506001600160a01b03909116916398ea47fc91612811918b9190600401615795565b600060405180830381600087803b15801561282b57600080fd5b505af115801561283f573d6000803e3d6000fd5b50505050816000015183828151811061285a5761285a614cb7565b6001600160a01b03909216602092830291909101909101526001016127a4565b50821561244b5760405163104373fb60e31b81526001600160a01b037f000000000000000000000000cd7112ae7c3b2505f0795c1ba965e5694c25d696169063821b9fd8906128cf9089908690600401615795565b600060405180830381600087803b1580156128e957600080fd5b505af11580156128fd573d6000803e3d6000fd5b50505050505050505050565b600061291361313b565b905090565b60008181526020819052604081205490819003612948576040516318615bc360e31b815260040160405180910390fd5b6040516321d1336160e11b8152600481018390526000907f000000000000000000000000eac995e09d18a0e7c44d4cf0c7c85400666524cf6001600160a01b0316906343a266c29060240161012060405180830381865afa1580156129b1573d6000803e3d6000fd5b505050506040513d601f19601f820116820180604052508101906129d59190614a96565b600084815260208190526040808220829055516331a9108f60e11b815260048101869052919250907f0000000000000000000000002ca466eb84dd69a99e25d10bbbda6e1b3c562c496001600160a01b031690636352211e90602401602060405180830381865afa158015612a4e573d6000803e3d6000fd5b505050506040513d601f19601f82011682018060405250810190612a7291906149b6565b905060008315612a9257612a8d8584602001516001876131b0565b612a95565b60005b90508015612b205760405163aab68bdb60e01b81526001600160a01b037f0000000000000000000000004207c2a3491d2f3ae33609588ddfebeb8eebcb6e169063aab68bdb90612aed90859089908690600401614ba0565b600060405180830381600087803b158015612b0757600080fd5b505af1158015612b1b573d6000803e3d6000fd5b505050505b84836000015184602001517f32411cac611c47cfe73afc187645c9cf3aec828d5f91780138d8421378fc0edb858886612b57612909565b604080516001600160a01b0395861681526020810194909452830191909152909116606082015260800160405180910390a4505050919050565b604080516001600160a01b038416602482015260448082018490528251808303909101815260649091019091526020810180516001600160e01b031663095ea7b360e01b179052612be28482613905565b612c4f576040516001600160a01b03848116602483015260006044830152612c4591869182169063095ea7b3906064015b604051602081830303815290604052915060e01b6020820180516001600160e01b0383818316178352505050506139ad565b612c4f84826139ad565b50505050565b6000612c5f612909565b9050836001600160a01b0316816001600160a01b031614158015612d20575060405163c161c93f60e01b81526001600160a01b038281166004830152858116602483015260448201859052606482018490527f0000000000000000000000006b8340b759d72e08b3fb674b48547e80631007cb169063c161c93f90608401602060405180830381865afa158015612cfa573d6000803e3d6000fd5b505050506040513d601f19601f82011682018060405250810190612d1e9190614b83565b155b8015612dc9575060405163c161c93f60e01b81526001600160a01b038281166004830152858116602483015260006044830152606482018490527f0000000000000000000000006b8340b759d72e08b3fb674b48547e80631007cb169063c161c93f90608401602060405180830381865afa158015612da3573d6000803e3d6000fd5b505050506040513d601f19601f82011682018060405250810190612dc79190614b83565b155b15612c4f5760405163075fd2b160e01b815260040160405180910390fd5b612def613ba0565b506040805161020081018252610100928301805160041c61ffff9081168352815160141c81166020840152815160241c63ffffffff16938301939093528051600160449190911c811681146060840152815160451c811681146080840152815160461c8116811460a0840152815160471c8116811460c0840152815160481c8116811460e0840152815160491c81168114948301949094528051604a1c841684146101208301528051604b1c841684146101408301528051604c1c841684146101608301528051604d1c841684146101808301528051604e1c84169093146101a08201528251604f1c6001600160a01b03166101c0820152915160ef1c166101e082015290565b80612c4f57612c4f848484612c55565b6000808060001985870985870292508281108382030391505080600003612f4057838281612f3657612f366157ee565b0492505050612fde565b838110612f7657604051630c740aef60e31b81526004810187905260248101869052604481018590526064015b60405180910390fd5b600084868809851960019081018716968790049682860381900495909211909303600082900391909104909201919091029190911760038402600290811880860282030280860282030280860282030280860282030280860282030280860290910302029150505b9392505050565b805160208201516040830151606084015160249190911b60149290921b60049390931b929092171760011790156130225768100000000000000000175b8160800151156130385768200000000000000000175b8160a001511561304e5768400000000000000000175b8160c00151156130645768800000000000000000175b8160e001511561307b576901000000000000000000175b81610100015115613093576902000000000000000000175b816101200151156130ab576904000000000000000000175b816101400151156130c3576908000000000000000000175b816101600151156130db576910000000000000000000175b816101800151156130f3576920000000000000000000175b816101a001511561310b576940000000000000000000175b6101c08201516101e09092015160ef1b6980000000000000000000600160ef1b03604f9390931b92909216171790565b6000366014336001600160a01b037f000000000000000000000000b2b5841dbef766d4b521221732f9b618fcf34a87161480156131785750808210155b156131a85760003661318a8385614e2c565b613195928290615804565b61319e9161582e565b60601c9250505090565b339250505090565b6040516369e11cc560e01b815260048101859052602481018490526044810183905281906000907f000000000000000000000000d685a38ea59b8fca6dfed1af41924a9b327af9366001600160a01b0316906369e11cc590606401600060405180830381865afa158015613228573d6000803e3d6000fd5b505050506040513d6000823e601f3d908101601f191682016040526132509190810190615863565b805190915060005b818110156138fa57600083828151811061327457613274614cb7565b602002602001015190506000613293878360200151633b9aca00612f06565b905080156138ab5760a08201516001600160a01b0316156134605760a082015160405163aab68bdb60e01b81526001600160a01b037f0000000000000000000000004207c2a3491d2f3ae33609588ddfebeb8eebcb6e169163aab68bdb9161330291908e908690600401614ba0565b600060405180830381600087803b15801561331c57600080fd5b505af1158015613330573d6000803e3d6000fd5b505060405163ea78803f60e01b8152600481018d9052600092507f0000000000000000000000004207c2a3491d2f3ae33609588ddfebeb8eebcb6e6001600160a01b0316915063ea78803f90602401602060405180830381865afa15801561339c573d6000803e3d6000fd5b505050506040513d601f19601f820116820180604052508101906133c091906149b6565b90508260a001516001600160a01b03166312903a856040518060c00160405280846001600160a01b03168152602001858152602001601281526020018e81526020018c8152602001868152506040518263ffffffff1660e01b8152600401613428919061594d565b600060405180830381600087803b15801561344257600080fd5b505af1158015613456573d6000803e3d6000fd5b505050505061389e565b60608201516000906001600160a01b03166134825761347d612909565b613488565b82606001515b905082604001516000146138195760405163ea78803f60e01b8152600481018c90526000907f0000000000000000000000004207c2a3491d2f3ae33609588ddfebeb8eebcb6e6001600160a01b03169063ea78803f90602401602060405180830381865afa1580156134fe573d6000803e3d6000fd5b505050506040513d601f19601f8201168201806040525081019061352291906149b6565b905060006001600160a01b038216156135d1576040858101519051630862026560e41b815260048101919091526001600160a01b0383811660248301527f000000000000000000000000cd7112ae7c3b2505f0795c1ba965e5694c25d6961690638620265090604401602060405180830381865afa1580156135a8573d6000803e3d6000fd5b505050506040513d601f19601f820116820180604052508101906135cc91906149b6565b6135d4565b60005b90506001600160a01b03821615806135f357506001600160a01b038116155b1561367f577f0000000000000000000000004207c2a3491d2f3ae33609588ddfebeb8eebcb6e6001600160a01b031663aab68bdb848f876040518463ffffffff1660e01b815260040161364893929190614ba0565b600060405180830381600087803b15801561366257600080fd5b505af1158015613676573d6000803e3d6000fd5b50505050613812565b7f0000000000000000000000004207c2a3491d2f3ae33609588ddfebeb8eebcb6e6001600160a01b031663aab68bdb308f876040518463ffffffff1660e01b81526004016136cf93929190614ba0565b600060405180830381600087803b1580156136e957600080fd5b505af11580156136fd573d6000803e3d6000fd5b5050505060008d60405160200161371691815260200190565b60408051601f1981840301815282825290880151630a1181ed60e01b83529092503091630a1181ed916137569186919088908b908b9089906004016159a1565b600060405180830381600087803b15801561377057600080fd5b505af1925050508015613781575060015b613810573d8080156137af576040519150601f19603f3d011682016040523d82523d6000602084013e6137b4565b606091505b506137c96001600160a01b0385168688613a10565b8e7feb1c69f596057b3b93b14d290bc52c6ddc7b7fa47184a8be88a30c656eac83e88888846137f6612909565b60405161380694939291906159ef565b60405180910390a2505b505b505061389c565b60405163aab68bdb60e01b81526001600160a01b037f0000000000000000000000004207c2a3491d2f3ae33609588ddfebeb8eebcb6e169063aab68bdb906138699084908f908790600401614ba0565b600060405180830381600087803b15801561388357600080fd5b505af1158015613897573d6000803e3d6000fd5b505050505b505b6138a88187614e2c565b95505b87898b7f5b9f38b2a849d80d4925a023ac038581d16642209624dc7b8353077d36a7682485856138d9612909565b6040516138e893929190615a31565b60405180910390a45050600101613258565b505050949350505050565b6000806000846001600160a01b0316846040516139229190615a5f565b6000604051808303816000865af19150503d806000811461395f576040519150601f19603f3d011682016040523d82523d6000602084013e613964565b606091505b509150915081801561398e57508051158061398e57508080602001905181019061398e9190614b83565b80156139a457506000856001600160a01b03163b115b95945050505050565b60006139c26001600160a01b03841683613a41565b905080516000141580156139e75750808060200190518101906139e59190614b83565b155b15611cc557604051635274afe760e01b81526001600160a01b0384166004820152602401612f6d565b6040516001600160a01b03838116602483015260448201839052611cc591859182169063a9059cbb90606401612c13565b6060612fde8383600084600080856001600160a01b03168486604051613a679190615a5f565b60006040518083038185875af1925050503d8060008114613aa4576040519150601f19603f3d011682016040523d82523d6000602084013e613aa9565b606091505b5091509150613ab9868383613ac3565b9695505050505050565b606082613ad857613ad382613b1f565b612fde565b8151158015613aef57506001600160a01b0384163b155b15613b1857604051639996b31560e01b81526001600160a01b0385166004820152602401612f6d565b5080612fde565b805115613b2f5780518082602001fd5b604051630a12f52160e11b815260040160405180910390fd5b50565b6040518061012001604052806000815260200160008152602001600081526020016000815260200160008152602001600081526020016000815260200160006001600160a01b03168152602001600081525090565b6040805161020081018252600080825260208201819052918101829052606081018290526080810182905260a0810182905260c0810182905260e08101829052610100810182905261012081018290526101408101829052610160810182905261018081018290526101a081018290526101c081018290526101e081019190915290565b6040518060400160405280613c37613b4b565b8152602001613c44613ba0565b905290565b6040518061010001604052806000815260200160008152602001600081526020016000815260200160006001600160a01b03168152602001613c89613ba0565b815260200160608152602001606081525090565b600060208284031215613caf57600080fd5b81356001600160e01b031981168114612fde57600080fd5b6001600160a01b0381168114613b4857600080fd5b8035613ce781613cc7565b919050565b60008083601f840112613cfe57600080fd5b5081356001600160401b03811115613d1557600080fd5b602083019150836020828501011115613d2d57600080fd5b9250929050565b60008083601f840112613d4657600080fd5b5081356001600160401b03811115613d5d57600080fd5b6020830191508360208260051b8501011115613d2d57600080fd5b634e487b7160e01b600052604160045260246000fd5b60405161012081016001600160401b0381118282101715613db157613db1613d78565b60405290565b60405161020081016001600160401b0381118282101715613db157613db1613d78565b604080519081016001600160401b0381118282101715613db157613db1613d78565b60405160c081016001600160401b0381118282101715613db157613db1613d78565b604051608081016001600160401b0381118282101715613db157613db1613d78565b60405161010081016001600160401b0381118282101715613db157613db1613d78565b604051601f8201601f191681016001600160401b0381118282101715613e8b57613e8b613d78565b604052919050565b60006001600160401b03821115613eac57613eac613d78565b50601f01601f191660200190565b600082601f830112613ecb57600080fd5b8135613ede613ed982613e93565b613e63565b818152846020838601011115613ef357600080fd5b816020850160208301376000918101602001919091529392505050565b60008060008060008060008060a0898b031215613f2c57600080fd5b8835613f3781613cc7565b975060208901356001600160401b0380821115613f5357600080fd5b613f5f8c838d01613cec565b909950975060408b0135915080821115613f7857600080fd5b613f848c838d01613d34565b909750955060608b0135915080821115613f9d57600080fd5b613fa98c838d01613d34565b909550935060808b0135915080821115613fc257600080fd5b50613fcf8b828c01613eba565b9150509295985092959890939650565b600060208284031215613ff157600080fd5b5035919050565b600080600080600080600060c0888a03121561401357600080fd5b873561401e81613cc7565b965060208801359550604088013561403581613cc7565b945060608801359350608088013561404c81613cc7565b925060a08801356001600160401b0381111561406757600080fd5b6140738a828b01613cec565b989b979a50959850939692959293505050565b6000806000806000806080878903121561409f57600080fd5b8635955060208701356001600160401b03808211156140bd57600080fd5b6140c98a838b01613d34565b909750955060408901359150808211156140e257600080fd5b6140ee8a838b01613d34565b9095509350606089013591508082111561410757600080fd5b5061411489828a01613eba565b9150509295509295509295565b6000806040838503121561413457600080fd5b50508035926020909101359150565b805182526020808201519083015260408082015190830152606080820151908301526080808201519083015260a0808201519083015260c0808201519083015260e0808201516001600160a01b03169083015261010090810151910152565b80518252602081015160208301526040810151604083015260608101516141cd606084018215159052565b5060808101516141e1608084018215159052565b5060a08101516141f560a084018215159052565b5060c081015161420960c084018215159052565b5060e081015161421d60e084018215159052565b5061010081810151151590830152610120808201511515908301526101408082015115159083015261016080820151151590830152610180808201511515908301526101a0808201511515908301526101c0808201516001600160a01b0316908301526101e090810151910152565b610320810161429b8285614143565b612fde6101208301846141a2565b600080600080608085870312156142bf57600080fd5b84356142ca81613cc7565b9350602085013592506040850135915060608501356142e881613cc7565b939692955090935050565b6000806040838503121561430657600080fd5b82359150602083013561431881613cc7565b809150509250929050565b60006020828403121561433557600080fd5b8135612fde81613cc7565b6000806000806000806080878903121561435957600080fd5b8635955060208701356001600160401b038082111561437757600080fd5b6143838a838b01613cec565b9097509550604089013591508082111561439c57600080fd5b506143a989828a01613cec565b979a9699509497949695606090950135949350505050565b6000806000604084860312156143d657600080fd5b8335925060208401356001600160401b038111156143f357600080fd5b6143ff86828701613cec565b9497909650939450505050565b60008060008060006060868803121561442457600080fd5b8535945060208601356001600160401b038082111561444257600080fd5b61444e89838a01613d34565b9096509450604088013591508082111561446757600080fd5b5061447488828901613cec565b969995985093965092949392505050565b60008060008060006080868803121561449d57600080fd5b85356144a881613cc7565b9450602086013593506040860135925060608601356001600160401b038111156144d157600080fd5b61447488828901613cec565b60005b838110156144f85781810151838201526020016144e0565b50506000910152565b600081518084526145198160208601602086016144dd565b601f01601f19169290920160200192915050565b602081526000612fde6020830184614501565b6000806000806080858703121561455657600080fd5b843561456181613cc7565b935060208501359250604085013561457881613cc7565b9396929550929360600135925050565b60008060006060848603121561459d57600080fd5b505081359360208301359350604090920135919050565b6020808252825182820181905260009190848201906040850190845b8181101561460b5783516145e5848251614143565b8501516145f66101208501826141a2565b509284019261032092909201916001016145d0565b50909695505050505050565b61034081016146268286614143565b6146346101208301856141a2565b6006831061465257634e487b7160e01b600052602160045260246000fd5b82610320830152949350505050565b6000806040838503121561467457600080fd5b823561467f81613cc7565b946020939093013593505050565b8015158114613b4857600080fd5b8035613ce78161468d565b60008060008060008060a087890312156146bf57600080fd5b863595506020870135945060408701356146d881613cc7565b935060608701356001600160401b038111156146f357600080fd5b6146ff89828a01613cec565b90945092505060808701356147138161468d565b809150509295509295509295565b6000806000806060858703121561473757600080fd5b843593506020850135925060408501356001600160401b0381111561475b57600080fd5b61476787828801613d34565b95989497509550505050565b60006020828403121561478557600080fd5b5051919050565b600181811c908216806147a057607f821691505b6020821081036147c057634e487b7160e01b600052602260045260246000fd5b50919050565b601f821115611cc5576000816000526020600020601f850160051c810160208610156147ef5750805b601f850160051c820191505b8181101561244b578281556001016147fb565b6001600160401b0383111561482557614825613d78565b61483983614833835461478c565b836147c6565b6000601f84116001811461486d57600085156148555750838201355b600019600387901b1c1916600186901b1783556148c7565b600083815260209020601f19861690835b8281101561489e578685013582556020948501946001909201910161487e565b50868210156148bb5760001960f88860031b161c19848701351681555b505060018560011b0183555b5050505050565b81835281816020850137506000828201602090810191909152601f909101601f19169091010190565b86815285602082015260a06040820152600061491760a0830186886148ce565b82810360608401526149298186614501565b91505060018060a01b0383166080830152979650505050505050565b878152600060018060a01b03808916602084015287604084015280871660608401525084608083015260e060a0830152600060e08301526101008060c084015261499281840185876148ce565b9a9950505050505050505050565b634e487b7160e01b600052600160045260246000fd5b6000602082840312156149c857600080fd5b8151612fde81613cc7565b8481528360208201526080604082015260006149f26080830185614501565b905060018060a01b038316606083015295945050505050565b8051613ce781613cc7565b60006101208284031215614a2957600080fd5b614a31613d8e565b9050815181526020820151602082015260408201516040820152606082015160608201526080820151608082015260a082015160a082015260c082015160c0820152614a7f60e08301614a0b565b60e082015261010080830151818301525092915050565b60006101208284031215614aa957600080fd5b612fde8383614a16565b634e487b7160e01b600052601160045260246000fd5b8082018082111561069957610699614ab3565b868152608060208201526000614af66080830187896148ce565b8281036040840152614b098186886148ce565b915050826060830152979650505050505050565b604081526000614b316040830185876148ce565b905060018060a01b0383166020830152949350505050565b858152846020820152608060408201526000614b696080830185876148ce565b905060018060a01b03831660608301529695505050505050565b600060208284031215614b9557600080fd5b8151612fde8161468d565b6001600160a01b039390931683526020830191909152604082015260600190565b848152606060208201526000614bdb6060830185876148ce565b905060018060a01b038316604083015295945050505050565b60006001600160401b03821115614c0d57614c0d613d78565b5060051b60200190565b60006020808385031215614c2a57600080fd5b82516001600160401b03811115614c4057600080fd5b8301601f81018513614c5157600080fd5b8051614c5f613ed982614bf4565b808282526020820191506101206020818502860101935088841115614c8357600080fd5b6020850194505b83851015614cab57614c9c8986614a16565b83529384019391850191614c8a565b50979650505050505050565b634e487b7160e01b600052603260045260246000fd5b6000806101408385031215614ce157600080fd5b614ceb8484614a16565b91506101208301516006811061431857600080fd5b600060208284031215614d1257600080fd5b81516001600160401b03811115614d2857600080fd5b8201601f81018413614d3957600080fd5b8051614d47613ed982613e93565b818152856020838501011115614d5c57600080fd5b6139a48260208301602086016144dd565b81516001600160401b03811115614d8657614d86613d78565b614d9a81614d94845461478c565b846147c6565b602080601f831160018114614dcf5760008415614db75750858301515b600019600386901b1c1916600185901b17855561244b565b600085815260208120601f198616915b82811015614dfe57888601518255948401946001909101908401614ddf565b5085821015614e1c5787850151600019600388901b60f8161c191681555b5050505050600190811b01905550565b8181038181111561069957610699614ab3565b86815285602082015260a060408201526000614e5f60a0830186886148ce565b6060830194909452506001600160a01b0391909116608090910152949350505050565b6000606080830187845260208781860152604060606040870152828784526080935060808701905060808860051b8801018960005b8a811015614fc657898303607f190184528135368d9003603e19018112614edd57600080fd5b8c01803584528386018782013536839003601e19018112614efd57600080fd5b9091018781019190356001600160401b03811115614f1a57600080fd5b60c08082023603841315614f2d57600080fd5b868a01899052918190526000918b87015b82841015614fb0578435614f518161468d565b15158152848b01358b820152898501358a8201528c850135614f7281613cc7565b6001600160a01b03908116828f0152858d01358d83015260a09086820135614f9981613cc7565b169082015293810193600193909301928101614f3e565b978a019796505050928701925050600101614eb7565b50909c9b505050505050505050505050565b600082356102de19833603018112614fef57600080fd5b9190910192915050565b6000610200828403121561500c57600080fd5b615014613db7565b905081358152602082013560208201526040820135604082015261503a6060830161469b565b606082015261504b6080830161469b565b608082015261505c60a0830161469b565b60a082015261506d60c0830161469b565b60c082015261507e60e0830161469b565b60e082015261010061509181840161469b565b908201526101206150a383820161469b565b908201526101406150b583820161469b565b908201526101606150c783820161469b565b908201526101806150d983820161469b565b908201526101a06150eb83820161469b565b908201526101c06150fd838201613cdc565b81830152506101e080830135818301525092915050565b600082601f83011261512557600080fd5b81356020615135613ed983614bf4565b82815260059290921b8401810191818101908684111561515457600080fd5b8286015b8481101561528d5780356001600160401b038082111561517757600080fd5b908801906040828b03601f190181131561519057600080fd5b615198613dda565b87840135815281840135838111156151af57600080fd5b8085019450508b603f8501126151c457600080fd5b8784013592506151d6613ed984614bf4565b83815260c09093028401820192888101908d8511156151f457600080fd5b948301945b848610156152785760c0868f03121561521157600080fd5b615219613dfc565b86356152248161468d565b8152868b01358b8201528487013585820152606087013561524481613cc7565b60608201526080878101359082015260a087013561526181613cc7565b60a0820152825260c09590950194908901906151f9565b828a0152508652505050918301918301615158565b509695505050505050565b600082601f8301126152a957600080fd5b813560206152b9613ed983614bf4565b82815260069290921b840181019181810190868411156152d857600080fd5b8286015b8481101561528d57604081890312156152f55760008081fd5b6152fd613dda565b8135815284820135858201528352918301916040016152dc565b600082601f83011261532857600080fd5b81356020615338613ed983614bf4565b82815260059290921b8401810191818101908684111561535757600080fd5b8286015b8481101561528d5780356001600160401b038082111561537b5760008081fd5b908801906080828b03601f19018113156153955760008081fd5b61539d613e1e565b878401356153aa81613cc7565b81526040848101356153bb81613cc7565b828a0152606085810135858111156153d35760008081fd5b6153e18f8c838a0101615298565b84840152509285013592848411156153fb57600091508182fd5b6154098e8b86890101615298565b9083015250865250505091830191830161535b565b60006102e0823603121561543157600080fd5b615439613e40565b8235815260208301356020820152604083013560408201526060830135606082015261546760808401613cdc565b60808201526154793660a08501614ff9565b60a08201526102a08301356001600160401b038082111561549957600080fd5b6154a536838701615114565b60c08401526102c08501359150808211156154bf57600080fd5b506154cc36828601615317565b60e08301525092915050565b80511515825260208082015190830152604080820151908301526060808201516001600160a01b03908116918401919091526080808301519084015260a09182015116910152565b600060608083018684526020868186015260406060604087015282875180855260808801915060808160051b89010194508389016000805b838110156155c9578a8803607f190185528251805189528701518789018790528051878a018190529088019083908b8b01905b808310156155b45761559e8285516154d8565b60c0820191508a8401935060018301925061558b565b50995050509386019391860191600101615558565b50959c9b505050505050505050505050565b60008151808452602080850194506020840160005b838110156156175781518051885283015183880152604090960195908201906001016155f0565b509495945050505050565b60006060808301868452602086818601526040606060408701528287518085526080945060808801915060808160051b890101848a0160005b83811015614fc6578a8303607f19018552815180516001600160a01b039081168552888201511688850152868101518785018a905261569c8a8601826155db565b918b0151858303868d01529190506156b481836155db565b96890196945050509086019060010161565b565b60008235603e19833603018112614fef57600080fd5b6000604082360312156156f057600080fd5b6156f8613dda565b823561570381613cc7565b81526020838101356001600160401b0381111561571f57600080fd5b840136601f82011261573057600080fd5b803561573e613ed982614bf4565b81815260059190911b8201830190838101903683111561575d57600080fd5b928401925b8284101561578457833561577581613cc7565b82529284019290840190615762565b938501939093525091949350505050565b60006040820184835260206040602085015281855180845260608601915060208701935060005b818110156157e15784516001600160a01b0316835293830193918301916001016157bc565b5090979650505050505050565b634e487b7160e01b600052601260045260246000fd5b6000808585111561581457600080fd5b8386111561582157600080fd5b5050820193919092039150565b6bffffffffffffffffffffffff19813581811691601485101561585b5780818660140360031b1b83161692505b505092915050565b6000602080838503121561587657600080fd5b82516001600160401b0381111561588c57600080fd5b8301601f8101851361589d57600080fd5b80516158ab613ed982614bf4565b81815260c091820283018401918482019190888411156158ca57600080fd5b938501935b83851015614cab5780858a0312156158e75760008081fd5b6158ef613dfc565b85516158fa8161468d565b815285870151878201526040808701519082015260608087015161591d81613cc7565b908201526080868101519082015260a08087015161593a81613cc7565b90820152835293840193918501916158cf565b81516001600160a01b031681526020808301519082015260408083015190820152606080830151908201526080808301519082015260a08281015161016083019161599a908401826154d8565b5092915050565b6001600160a01b038781168252602082018790528581166040830152606082018590528316608082015260c060a082018190526000906159e390830184614501565b98975050505050505050565b60006101206159fe83886154d8565b8560c08401528060e0840152615a1681840186614501565b91505060018060a01b03831661010083015295945050505050565b6101008101615a4082866154d8565b60c08201939093526001600160a01b039190911660e090910152919050565b60008251614fef8184602087016144dd56fea26469706673582212200aefd98dfbe6d44cb4e770046bc1d9bcd2a16d2a5d23eeae4a580e6e523a128764736f6c63430008170033",
	"devdoc": {
		"kind": "dev",
		"methods": {
			"burnTokensOf(address,uint256,uint256,string)": {
				"details": "Can only be called by the holder, an address with the holder's permission to `BURN_TOKENS`, or a project's terminal.",
				"params": {
					"holder": "The address whose tokens are being burned.",
					"memo": "A memo to pass along to the emitted event.",
					"projectId": "The ID of the project whose tokens are being burned.",
					"tokenCount": "The number of tokens to burn."
				}
			},
			"claimTokensFor(address,uint256,uint256,address)": {
				"details": "Can only be called by the credit holder or an address with the holder's permission to `CLAIM_TOKENS`.",
				"params": {
					"amount": "The amount of tokens to claim.",
					"beneficiary": "The account the claimed tokens will go to.",
					"holder": "The address to redeem credits from.",
					"projectId": "The ID of the project whose tokens are being claimed."
				}
			},
			"constructor": {
				"params": {
					"directory": "A contract storing directories of terminals and controllers for each project.",
					"fundAccessLimits": "A contract that stores fund access limits for each project.",
					"permissions": "A contract storing permissions.",
					"projects": "A contract which mints ERC-721s that represent project ownership and transfers.",
					"rulesets": "A contract storing and managing project rulesets.",
					"splits": "A contract that stores splits for each project.",
					"tokens": "A contract that manages token minting and burning."
				}
			},
			"currentRulesetOf(uint256)": {
				"params": {
					"projectId": "The ID of the project to get the current ruleset of."
				},
				"returns": {
					"metadata": "The current ruleset's metadata.",
					"ruleset": "The current ruleset's struct."
				}
			},
			"deployERC20For(uint256,string,string,bytes32)": {
				"details": "Deploys the project's ERC-20 contract.Can only be called by the project's owner or an address with the owner's permission to `DEPLOY_ERC20`.",
				"params": {
					"name": "The ERC-20's name.",
					"projectId": "The ID of the project to deploy the ERC-20 for.",
					"symbol": "The ERC-20's symbol."
				},
				"returns": {
					"token": "The address of the token that was deployed."
				}
			},
			"getRulesetOf(uint256,uint256)": {
				"params": {
					"projectId": "The ID of the project the ruleset belongs to."
				},
				"returns": {
					"metadata": "The ruleset's metadata.",
					"ruleset": "The ruleset's struct."
				}
			},
			"isTrustedForwarder(address)": {
				"details": "Indicates whether any particular address is the trusted forwarder."
			},
			"latestQueuedRulesetOf(uint256)": {
				"details": "The 'latest queued ruleset' is the ruleset initialized furthest in the future (at the end of the ruleset queue).",
				"params": {
					"projectId": "The ID of the project to get the latest ruleset of."
				},
				"returns": {
					"approvalStatus": "The ruleset's approval status.",
					"metadata": "The ruleset's metadata.",
					"ruleset": "The struct for the project's latest queued ruleset."
				}
			},
			"launchProjectFor(address,string,(uint256,uint256,uint256,uint256,address,(uint256,uint256,uint256,bool,bool,bool,bool,bool,bool,bool,bool,bool,bool,bool,address,uint256),(uint256,(bool,uint256,uint256,address,uint256,address)[])[],(address,address,(uint256,uint256)[],(uint256,uint256)[])[])[],(address,address[])[],string)": {
				"details": "This will mint the project's ERC-721 to the `owner`'s address, queue the specified rulesets, and set up the specified splits and terminals. Each operation within this transaction can be done in sequence separately.Anyone can deploy a project to any `owner`'s address.",
				"params": {
					"memo": "A memo to pass along to the emitted event.",
					"owner": "The project's owner. The project ERC-721 will be minted to this address.",
					"projectUri": "The project's metadata URI. This is typically an IPFS hash, optionally with the `ipfs://` prefix. This can be updated by the project's owner.",
					"rulesetConfigurations": "The rulesets to queue.",
					"terminalConfigurations": "The terminals to set up for the project."
				},
				"returns": {
					"projectId": "The project's ID."
				}
			},
			"launchRulesetsFor(uint256,(uint256,uint256,uint256,uint256,address,(uint256,uint256,uint256,bool,bool,bool,bool,bool,bool,bool,bool,bool,bool,bool,address,uint256),(uint256,(bool,uint256,uint256,address,uint256,address)[])[],(address,address,(uint256,uint256)[],(uint256,uint256)[])[])[],(address,address[])[],string)": {
				"details": "Each operation within this transaction can be done in sequence separately.Can only be called by the project's owner or an address with the owner's permission to `QUEUE_RULESETS`.",
				"params": {
					"memo": "A memo to pass along to the emitted event.",
					"projectId": "The ID of the project to launch rulesets for.",
					"rulesetConfigurations": "The rulesets to queue.",
					"terminalConfigurations": "The terminals to set up."
				},
				"returns": {
					"rulesetId": "The ID of the last successfully queued ruleset."
				}
			},
			"migrateController(uint256,address)": {
				"details": "Can only be called by the project's owner or an address with the owner's permission to `MIGRATE_CONTROLLER`.",
				"params": {
					"projectId": "The ID of the project to migrate.",
					"to": "The controller to migrate the project to."
				}
			},
			"mintTokensOf(uint256,uint256,address,string,bool)": {
				"details": "Can only be called by the project's owner, an address with the owner's permission to `MINT_TOKENS`, one of the project's terminals, or the project's data hook.If the ruleset's metadata has `allowOwnerMinting` set to `false`, this function can only be called by the project's terminals or data hook.",
				"params": {
					"beneficiary": "The address which will receive the (non-reserved) tokens.",
					"memo": "A memo to pass along to the emitted event.",
					"projectId": "The ID of the project whose tokens are being minted.",
					"tokenCount": "The number of tokens to mint, including any reserved tokens.",
					"useReservedRate": "Whether to apply the ruleset's reserved rate."
				},
				"returns": {
					"beneficiaryTokenCount": "The number of tokens minted for the `beneficiary`."
				}
			},
			"payReservedTokenToTerminal(address,uint256,address,uint256,address,bytes)": {
				"details": "Can only be called by this controller.",
				"params": {
					"beneficiary": "The payment's beneficiary.",
					"metadata": "The pay metadata sent to the terminal.",
					"projectId": "The ID of the project being paid.",
					"splitAmount": "The amount of tokens being paid.",
					"terminal": "The terminal to pay.",
					"token": "The token being paid with."
				}
			},
			"queueRulesetsOf(uint256,(uint256,uint256,uint256,uint256,address,(uint256,uint256,uint256,bool,bool,bool,bool,bool,bool,bool,bool,bool,bool,bool,address,uint256),(uint256,(bool,uint256,uint256,address,uint256,address)[])[],(address,address,(uint256,uint256)[],(uint256,uint256)[])[])[],string)": {
				"details": "Can only be called by the project's owner or an address with the owner's permission to `QUEUE_RULESETS`.",
				"params": {
					"memo": "A memo to pass along to the emitted event.",
					"projectId": "The ID of the project to queue rulesets for.",
					"rulesetConfigurations": "The rulesets to queue."
				},
				"returns": {
					"rulesetId": "The ID of the last ruleset which was successfully queued."
				}
			},
			"receiveMigrationFrom(address,uint256)": {
				"details": "This controller should not be the project's controller yet.",
				"params": {
					"from": "The controller being migrated from.",
					"projectId": "The ID of the project that will migrate to this controller."
				}
			},
			"rulesetsOf(uint256,uint256,uint256)": {
				"params": {
					"projectId": "The ID of the project to get the rulesets of.",
					"size": "The maximum number of rulesets to return.",
					"startingId": "The ID of the ruleset to begin with. This will be the latest ruleset in the result. If the `startingId` is 0, passed, the project's latest ruleset will be used."
				},
				"returns": {
					"rulesets": "The array of rulesets with their metadata."
				}
			},
			"sendReservedTokensToSplitsOf(uint256)": {
				"details": "If the project has no reserved token splits, or if they don't add up to 100%, leftover tokens are sent to the project's owner.",
				"params": {
					"projectId": "The ID of the project to send reserved tokens for."
				},
				"returns": {
					"_0": "The amount of reserved tokens minted and sent."
				}
			},
			"setControllerAllowed(uint256)": {
				"params": {
					"projectId": "The ID of the project to check."
				},
				"returns": {
					"_0": "A `bool` which is true if the project allows controllers to be set."
				}
			},
			"setSplitGroupsOf(uint256,uint256,(uint256,(bool,uint256,uint256,address,uint256,address)[])[])": {
				"details": "Can only be called by the project's owner or an address with the owner's permission to `SET_SPLIT_GROUPS`.",
				"params": {
					"projectId": "The ID of the project to set the split groups of.",
					"rulesetId": "The ID of the ruleset the split groups should be active in. Use a `rulesetId` of 0 to set the default split groups, which are used when a ruleset has no splits set. If there are no default splits and no splits are set, all splits are sent to the project's owner.",
					"splitGroups": "An array of split groups to set."
				}
			},
			"setTerminalsAllowed(uint256)": {
				"params": {
					"projectId": "The ID of the project to check."
				},
				"returns": {
					"_0": "A `bool` which is true if the project allows terminals to be set."
				}
			},
			"setTokenFor(uint256,address)": {
				"details": "Can only be called by the project's owner or an address with the owner's permission to `SET_TOKEN`.",
				"params": {
					"projectId": "The ID of the project to set the token of.",
					"token": "The new token's address."
				}
			},
			"setUriOf(uint256,string)": {
				"details": "This is typically an IPFS hash, optionally with an `ipfs://` prefix.Can only be called by the project's owner or an address with the owner's permission to `SET_PROJECT_METADATA`.",
				"params": {
					"metadata": "The metadata URI to set.",
					"projectId": "The ID of the project to set the metadata URI of."
				}
			},
			"supportsInterface(bytes4)": {
				"details": "See {IERC165-supportsInterface}.",
				"params": {
					"interfaceId": "The ID of the interface to check for adherence to."
				},
				"returns": {
					"_0": "A flag indicating if the provided interface ID is supported."
				}
			},
			"totalTokenSupplyWithReservedTokensOf(uint256)": {
				"params": {
					"projectId": "The ID of the project to get the total token supply of."
				},
				"returns": {
					"_0": "The total supply of the project's token, including pending reserved tokens."
				}
			},
			"transferCreditsFrom(address,uint256,address,uint256)": {
				"details": "Can only be called by the credit holder or an address with the holder's permission to `TRANSFER_CREDITS`.",
				"params": {
					"amount": "The amount of credits to transfer.",
					"holder": "The address to transfer credits from.",
					"projectId": "The ID of the project whose credits are being transferred.",
					"recipient": "The address to transfer credits to."
				}
			},
			"trustedForwarder()": {
				"details": "Returns the address of the trusted forwarder."
			},
			"upcomingRulesetOf(uint256)": {
				"details": "If an upcoming ruleset isn't found, returns an empty ruleset with all properties set to 0.",
				"params": {
					"projectId": "The ID of the project to get the next ruleset of."
				},
				"returns": {
					"metadata": "The upcoming ruleset's metadata.",
					"ruleset": "The upcoming ruleset's struct."
				}
			}
		},
		"version": 1
	},
	"userdoc": {
		"kind": "user",
		"methods": {
			"DIRECTORY()": {
				"notice": "The directory of terminals and controllers for projects."
			},
			"FUND_ACCESS_LIMITS()": {
				"notice": "A contract that stores fund access limits for each project."
			},
			"PERMISSIONS()": {
				"notice": "A contract storing permissions."
			},
			"PROJECTS()": {
				"notice": "Mints ERC-721s that represent project ownership and transfers."
			},
			"RULESETS()": {
				"notice": "The contract storing and managing project rulesets."
			},
			"SPLITS()": {
				"notice": "The contract that stores splits for each project."
			},
			"TOKENS()": {
				"notice": "The contract that manages token minting and burning."
			},
			"burnTokensOf(address,uint256,uint256,string)": {
				"notice": "Burns a project's tokens or credits from the specific holder's balance."
			},
			"claimTokensFor(address,uint256,uint256,address)": {
				"notice": "Redeem credits to claim tokens into a `beneficiary`'s account."
			},
			"currentRulesetOf(uint256)": {
				"notice": "A project's currently active ruleset and its metadata."
			},
			"deployERC20For(uint256,string,string,bytes32)": {
				"notice": "Deploys an ERC-20 token for a project. It will be used when claiming tokens (with credits)."
			},
			"getRulesetOf(uint256,uint256)": {
				"notice": "Get the `JBRuleset` and `JBRulesetMetadata` corresponding to the specified `rulesetId`."
			},
			"latestQueuedRulesetOf(uint256)": {
				"notice": "Gets the latest ruleset queued for a project, its approval status, and its metadata."
			},
			"launchProjectFor(address,string,(uint256,uint256,uint256,uint256,address,(uint256,uint256,uint256,bool,bool,bool,bool,bool,bool,bool,bool,bool,bool,bool,address,uint256),(uint256,(bool,uint256,uint256,address,uint256,address)[])[],(address,address,(uint256,uint256)[],(uint256,uint256)[])[])[],(address,address[])[],string)": {
				"notice": "Creates a project."
			},
			"launchRulesetsFor(uint256,(uint256,uint256,uint256,uint256,address,(uint256,uint256,uint256,bool,bool,bool,bool,bool,bool,bool,bool,bool,bool,bool,address,uint256),(uint256,(bool,uint256,uint256,address,uint256,address)[])[],(address,address,(uint256,uint256)[],(uint256,uint256)[])[])[],(address,address[])[],string)": {
				"notice": "Queue a project's initial rulesets and set up terminals for it. Projects which already have rulesets should use `queueRulesetsOf(...)`."
			},
			"migrateController(uint256,address)": {
				"notice": "Migrate a project from this controller to another one."
			},
			"mintTokensOf(uint256,uint256,address,string,bool)": {
				"notice": "Add new project tokens or credits to the specified beneficiary's balance. Optionally, reserve a portion according to the ruleset's reserved rate."
			},
			"payReservedTokenToTerminal(address,uint256,address,uint256,address,bytes)": {
				"notice": "When a project receives reserved tokens, if it has a terminal for the token, this is used to pay the terminal."
			},
			"pendingReservedTokenBalanceOf(uint256)": {
				"notice": "A project's unrealized reserved token balance (i.e. reserved tokens which haven't been sent out to the reserved token split group yet)."
			},
			"queueRulesetsOf(uint256,(uint256,uint256,uint256,uint256,address,(uint256,uint256,uint256,bool,bool,bool,bool,bool,bool,bool,bool,bool,bool,bool,address,uint256),(uint256,(bool,uint256,uint256,address,uint256,address)[])[],(address,address,(uint256,uint256)[],(uint256,uint256)[])[])[],string)": {
				"notice": "Add one or more rulesets to the end of a project's ruleset queue. Rulesets take effect after the previous ruleset in the queue ends, and only if they are approved by the previous ruleset's approval hook."
			},
			"receiveMigrationFrom(address,uint256)": {
				"notice": "Prepares this controller to receive a project being migrated from another controller."
			},
			"rulesetsOf(uint256,uint256,uint256)": {
				"notice": "Get an array of a project's rulesets (with metadata) up to a maximum array size, sorted from latest to earliest."
			},
			"sendReservedTokensToSplitsOf(uint256)": {
				"notice": "Sends a project's pending reserved tokens to its reserved token splits."
			},
			"setControllerAllowed(uint256)": {
				"notice": "Check whether the project's controller can currently be set."
			},
			"setSplitGroupsOf(uint256,uint256,(uint256,(bool,uint256,uint256,address,uint256,address)[])[])": {
				"notice": "Sets a project's split groups. The new split groups must include any current splits which are locked."
			},
			"setTerminalsAllowed(uint256)": {
				"notice": "Check whether the project's terminals can currently be set."
			},
			"setTokenFor(uint256,address)": {
				"notice": "Set a project's token. If the project's token is already set, this will revert."
			},
			"setUriOf(uint256,string)": {
				"notice": "Set a project's metadata URI."
			},
			"supportsInterface(bytes4)": {
				"notice": "Indicates whether this contract adheres to the specified interface."
			},
			"totalTokenSupplyWithReservedTokensOf(uint256)": {
				"notice": "Gets the a project token's total supply, including pending reserved tokens."
			},
			"transferCreditsFrom(address,uint256,address,uint256)": {
				"notice": "Allows a credit holder to transfer credits to another address."
			},
			"upcomingRulesetOf(uint256)": {
				"notice": "A project's next ruleset along with its metadata."
			},
			"uriOf(uint256)": {
				"notice": "The metadata URI for each project. This is typically an IPFS hash, optionally with an `ipfs://` prefix."
			}
		},
		"version": 1
	},
	"gitCommit": "cfb1d4cd4e79bed840a9c8fcd17a0f397da3e3bf",
	"sourceName": "src/JBController.sol",
	"chainId": "421614",
	"linkReferences": {},
	"deployedLinkReferences": {},
	"history": [
		{
			"_format": "sphinx-sol-ct-artifact-1",
			"merkleRoot": "0xeb76efeb8f97c5cb80ab72b380ea5b356ede5f4abbf2a0c560104f8a80b45857",
			"contractName": "JBController",
			"address": "0x799D42391ed21894b105590300EEd66255d72225",
			"abi": [
				{
					"type": "constructor",
					"inputs": [
						{
							"name": "permissions",
							"type": "address",
							"internalType": "contract IJBPermissions"
						},
						{
							"name": "projects",
							"type": "address",
							"internalType": "contract IJBProjects"
						},
						{
							"name": "directory",
							"type": "address",
							"internalType": "contract IJBDirectory"
						},
						{
							"name": "rulesets",
							"type": "address",
							"internalType": "contract IJBRulesets"
						},
						{
							"name": "tokens",
							"type": "address",
							"internalType": "contract IJBTokens"
						},
						{
							"name": "splits",
							"type": "address",
							"internalType": "contract IJBSplits"
						},
						{
							"name": "fundAccessLimits",
							"type": "address",
							"internalType": "contract IJBFundAccessLimits"
						},
						{
							"name": "trustedForwarder",
							"type": "address",
							"internalType": "address"
						}
					],
					"stateMutability": "nonpayable"
				},
				{
					"type": "function",
					"name": "DIRECTORY",
					"inputs": [],
					"outputs": [
						{
							"name": "",
							"type": "address",
							"internalType": "contract IJBDirectory"
						}
					],
					"stateMutability": "view"
				},
				{
					"type": "function",
					"name": "FUND_ACCESS_LIMITS",
					"inputs": [],
					"outputs": [
						{
							"name": "",
							"type": "address",
							"internalType": "contract IJBFundAccessLimits"
						}
					],
					"stateMutability": "view"
				},
				{
					"type": "function",
					"name": "PERMISSIONS",
					"inputs": [],
					"outputs": [
						{
							"name": "",
							"type": "address",
							"internalType": "contract IJBPermissions"
						}
					],
					"stateMutability": "view"
				},
				{
					"type": "function",
					"name": "PROJECTS",
					"inputs": [],
					"outputs": [
						{
							"name": "",
							"type": "address",
							"internalType": "contract IJBProjects"
						}
					],
					"stateMutability": "view"
				},
				{
					"type": "function",
					"name": "RULESETS",
					"inputs": [],
					"outputs": [
						{
							"name": "",
							"type": "address",
							"internalType": "contract IJBRulesets"
						}
					],
					"stateMutability": "view"
				},
				{
					"type": "function",
					"name": "SPLITS",
					"inputs": [],
					"outputs": [
						{
							"name": "",
							"type": "address",
							"internalType": "contract IJBSplits"
						}
					],
					"stateMutability": "view"
				},
				{
					"type": "function",
					"name": "TOKENS",
					"inputs": [],
					"outputs": [
						{
							"name": "",
							"type": "address",
							"internalType": "contract IJBTokens"
						}
					],
					"stateMutability": "view"
				},
				{
					"type": "function",
					"name": "burnTokensOf",
					"inputs": [
						{
							"name": "holder",
							"type": "address",
							"internalType": "address"
						},
						{
							"name": "projectId",
							"type": "uint256",
							"internalType": "uint256"
						},
						{
							"name": "tokenCount",
							"type": "uint256",
							"internalType": "uint256"
						},
						{
							"name": "memo",
							"type": "string",
							"internalType": "string"
						}
					],
					"outputs": [],
					"stateMutability": "nonpayable"
				},
				{
					"type": "function",
					"name": "claimTokensFor",
					"inputs": [
						{
							"name": "holder",
							"type": "address",
							"internalType": "address"
						},
						{
							"name": "projectId",
							"type": "uint256",
							"internalType": "uint256"
						},
						{
							"name": "amount",
							"type": "uint256",
							"internalType": "uint256"
						},
						{
							"name": "beneficiary",
							"type": "address",
							"internalType": "address"
						}
					],
					"outputs": [],
					"stateMutability": "nonpayable"
				},
				{
					"type": "function",
					"name": "currentRulesetOf",
					"inputs": [
						{
							"name": "projectId",
							"type": "uint256",
							"internalType": "uint256"
						}
					],
					"outputs": [
						{
							"name": "ruleset",
							"type": "tuple",
							"internalType": "struct JBRuleset",
							"components": [
								{
									"name": "cycleNumber",
									"type": "uint256",
									"internalType": "uint256"
								},
								{
									"name": "id",
									"type": "uint256",
									"internalType": "uint256"
								},
								{
									"name": "basedOnId",
									"type": "uint256",
									"internalType": "uint256"
								},
								{
									"name": "start",
									"type": "uint256",
									"internalType": "uint256"
								},
								{
									"name": "duration",
									"type": "uint256",
									"internalType": "uint256"
								},
								{
									"name": "weight",
									"type": "uint256",
									"internalType": "uint256"
								},
								{
									"name": "decayRate",
									"type": "uint256",
									"internalType": "uint256"
								},
								{
									"name": "approvalHook",
									"type": "address",
									"internalType": "contract IJBRulesetApprovalHook"
								},
								{
									"name": "metadata",
									"type": "uint256",
									"internalType": "uint256"
								}
							]
						},
						{
							"name": "metadata",
							"type": "tuple",
							"internalType": "struct JBRulesetMetadata",
							"components": [
								{
									"name": "reservedRate",
									"type": "uint256",
									"internalType": "uint256"
								},
								{
									"name": "redemptionRate",
									"type": "uint256",
									"internalType": "uint256"
								},
								{
									"name": "baseCurrency",
									"type": "uint256",
									"internalType": "uint256"
								},
								{
									"name": "pausePay",
									"type": "bool",
									"internalType": "bool"
								},
								{
									"name": "pauseCreditTransfers",
									"type": "bool",
									"internalType": "bool"
								},
								{
									"name": "allowOwnerMinting",
									"type": "bool",
									"internalType": "bool"
								},
								{
									"name": "allowTerminalMigration",
									"type": "bool",
									"internalType": "bool"
								},
								{
									"name": "allowSetTerminals",
									"type": "bool",
									"internalType": "bool"
								},
								{
									"name": "allowControllerMigration",
									"type": "bool",
									"internalType": "bool"
								},
								{
									"name": "allowSetController",
									"type": "bool",
									"internalType": "bool"
								},
								{
									"name": "holdFees",
									"type": "bool",
									"internalType": "bool"
								},
								{
									"name": "useTotalSurplusForRedemptions",
									"type": "bool",
									"internalType": "bool"
								},
								{
									"name": "useDataHookForPay",
									"type": "bool",
									"internalType": "bool"
								},
								{
									"name": "useDataHookForRedeem",
									"type": "bool",
									"internalType": "bool"
								},
								{
									"name": "dataHook",
									"type": "address",
									"internalType": "address"
								},
								{
									"name": "metadata",
									"type": "uint256",
									"internalType": "uint256"
								}
							]
						}
					],
					"stateMutability": "view"
				},
				{
					"type": "function",
					"name": "deployERC20For",
					"inputs": [
						{
							"name": "projectId",
							"type": "uint256",
							"internalType": "uint256"
						},
						{
							"name": "name",
							"type": "string",
							"internalType": "string"
						},
						{
							"name": "symbol",
							"type": "string",
							"internalType": "string"
						},
						{
							"name": "salt",
							"type": "bytes32",
							"internalType": "bytes32"
						}
					],
					"outputs": [
						{
							"name": "token",
							"type": "address",
							"internalType": "contract IJBToken"
						}
					],
					"stateMutability": "nonpayable"
				},
				{
					"type": "function",
					"name": "getRulesetOf",
					"inputs": [
						{
							"name": "projectId",
							"type": "uint256",
							"internalType": "uint256"
						},
						{
							"name": "rulesetId",
							"type": "uint256",
							"internalType": "uint256"
						}
					],
					"outputs": [
						{
							"name": "ruleset",
							"type": "tuple",
							"internalType": "struct JBRuleset",
							"components": [
								{
									"name": "cycleNumber",
									"type": "uint256",
									"internalType": "uint256"
								},
								{
									"name": "id",
									"type": "uint256",
									"internalType": "uint256"
								},
								{
									"name": "basedOnId",
									"type": "uint256",
									"internalType": "uint256"
								},
								{
									"name": "start",
									"type": "uint256",
									"internalType": "uint256"
								},
								{
									"name": "duration",
									"type": "uint256",
									"internalType": "uint256"
								},
								{
									"name": "weight",
									"type": "uint256",
									"internalType": "uint256"
								},
								{
									"name": "decayRate",
									"type": "uint256",
									"internalType": "uint256"
								},
								{
									"name": "approvalHook",
									"type": "address",
									"internalType": "contract IJBRulesetApprovalHook"
								},
								{
									"name": "metadata",
									"type": "uint256",
									"internalType": "uint256"
								}
							]
						},
						{
							"name": "metadata",
							"type": "tuple",
							"internalType": "struct JBRulesetMetadata",
							"components": [
								{
									"name": "reservedRate",
									"type": "uint256",
									"internalType": "uint256"
								},
								{
									"name": "redemptionRate",
									"type": "uint256",
									"internalType": "uint256"
								},
								{
									"name": "baseCurrency",
									"type": "uint256",
									"internalType": "uint256"
								},
								{
									"name": "pausePay",
									"type": "bool",
									"internalType": "bool"
								},
								{
									"name": "pauseCreditTransfers",
									"type": "bool",
									"internalType": "bool"
								},
								{
									"name": "allowOwnerMinting",
									"type": "bool",
									"internalType": "bool"
								},
								{
									"name": "allowTerminalMigration",
									"type": "bool",
									"internalType": "bool"
								},
								{
									"name": "allowSetTerminals",
									"type": "bool",
									"internalType": "bool"
								},
								{
									"name": "allowControllerMigration",
									"type": "bool",
									"internalType": "bool"
								},
								{
									"name": "allowSetController",
									"type": "bool",
									"internalType": "bool"
								},
								{
									"name": "holdFees",
									"type": "bool",
									"internalType": "bool"
								},
								{
									"name": "useTotalSurplusForRedemptions",
									"type": "bool",
									"internalType": "bool"
								},
								{
									"name": "useDataHookForPay",
									"type": "bool",
									"internalType": "bool"
								},
								{
									"name": "useDataHookForRedeem",
									"type": "bool",
									"internalType": "bool"
								},
								{
									"name": "dataHook",
									"type": "address",
									"internalType": "address"
								},
								{
									"name": "metadata",
									"type": "uint256",
									"internalType": "uint256"
								}
							]
						}
					],
					"stateMutability": "view"
				},
				{
					"type": "function",
					"name": "isTrustedForwarder",
					"inputs": [
						{
							"name": "forwarder",
							"type": "address",
							"internalType": "address"
						}
					],
					"outputs": [
						{
							"name": "",
							"type": "bool",
							"internalType": "bool"
						}
					],
					"stateMutability": "view"
				},
				{
					"type": "function",
					"name": "latestQueuedRulesetOf",
					"inputs": [
						{
							"name": "projectId",
							"type": "uint256",
							"internalType": "uint256"
						}
					],
					"outputs": [
						{
							"name": "ruleset",
							"type": "tuple",
							"internalType": "struct JBRuleset",
							"components": [
								{
									"name": "cycleNumber",
									"type": "uint256",
									"internalType": "uint256"
								},
								{
									"name": "id",
									"type": "uint256",
									"internalType": "uint256"
								},
								{
									"name": "basedOnId",
									"type": "uint256",
									"internalType": "uint256"
								},
								{
									"name": "start",
									"type": "uint256",
									"internalType": "uint256"
								},
								{
									"name": "duration",
									"type": "uint256",
									"internalType": "uint256"
								},
								{
									"name": "weight",
									"type": "uint256",
									"internalType": "uint256"
								},
								{
									"name": "decayRate",
									"type": "uint256",
									"internalType": "uint256"
								},
								{
									"name": "approvalHook",
									"type": "address",
									"internalType": "contract IJBRulesetApprovalHook"
								},
								{
									"name": "metadata",
									"type": "uint256",
									"internalType": "uint256"
								}
							]
						},
						{
							"name": "metadata",
							"type": "tuple",
							"internalType": "struct JBRulesetMetadata",
							"components": [
								{
									"name": "reservedRate",
									"type": "uint256",
									"internalType": "uint256"
								},
								{
									"name": "redemptionRate",
									"type": "uint256",
									"internalType": "uint256"
								},
								{
									"name": "baseCurrency",
									"type": "uint256",
									"internalType": "uint256"
								},
								{
									"name": "pausePay",
									"type": "bool",
									"internalType": "bool"
								},
								{
									"name": "pauseCreditTransfers",
									"type": "bool",
									"internalType": "bool"
								},
								{
									"name": "allowOwnerMinting",
									"type": "bool",
									"internalType": "bool"
								},
								{
									"name": "allowTerminalMigration",
									"type": "bool",
									"internalType": "bool"
								},
								{
									"name": "allowSetTerminals",
									"type": "bool",
									"internalType": "bool"
								},
								{
									"name": "allowControllerMigration",
									"type": "bool",
									"internalType": "bool"
								},
								{
									"name": "allowSetController",
									"type": "bool",
									"internalType": "bool"
								},
								{
									"name": "holdFees",
									"type": "bool",
									"internalType": "bool"
								},
								{
									"name": "useTotalSurplusForRedemptions",
									"type": "bool",
									"internalType": "bool"
								},
								{
									"name": "useDataHookForPay",
									"type": "bool",
									"internalType": "bool"
								},
								{
									"name": "useDataHookForRedeem",
									"type": "bool",
									"internalType": "bool"
								},
								{
									"name": "dataHook",
									"type": "address",
									"internalType": "address"
								},
								{
									"name": "metadata",
									"type": "uint256",
									"internalType": "uint256"
								}
							]
						},
						{
							"name": "approvalStatus",
							"type": "uint8",
							"internalType": "enum JBApprovalStatus"
						}
					],
					"stateMutability": "view"
				},
				{
					"type": "function",
					"name": "launchProjectFor",
					"inputs": [
						{
							"name": "owner",
							"type": "address",
							"internalType": "address"
						},
						{
							"name": "projectUri",
							"type": "string",
							"internalType": "string"
						},
						{
							"name": "rulesetConfigurations",
							"type": "tuple[]",
							"internalType": "struct JBRulesetConfig[]",
							"components": [
								{
									"name": "mustStartAtOrAfter",
									"type": "uint256",
									"internalType": "uint256"
								},
								{
									"name": "duration",
									"type": "uint256",
									"internalType": "uint256"
								},
								{
									"name": "weight",
									"type": "uint256",
									"internalType": "uint256"
								},
								{
									"name": "decayRate",
									"type": "uint256",
									"internalType": "uint256"
								},
								{
									"name": "approvalHook",
									"type": "address",
									"internalType": "contract IJBRulesetApprovalHook"
								},
								{
									"name": "metadata",
									"type": "tuple",
									"internalType": "struct JBRulesetMetadata",
									"components": [
										{
											"name": "reservedRate",
											"type": "uint256",
											"internalType": "uint256"
										},
										{
											"name": "redemptionRate",
											"type": "uint256",
											"internalType": "uint256"
										},
										{
											"name": "baseCurrency",
											"type": "uint256",
											"internalType": "uint256"
										},
										{
											"name": "pausePay",
											"type": "bool",
											"internalType": "bool"
										},
										{
											"name": "pauseCreditTransfers",
											"type": "bool",
											"internalType": "bool"
										},
										{
											"name": "allowOwnerMinting",
											"type": "bool",
											"internalType": "bool"
										},
										{
											"name": "allowTerminalMigration",
											"type": "bool",
											"internalType": "bool"
										},
										{
											"name": "allowSetTerminals",
											"type": "bool",
											"internalType": "bool"
										},
										{
											"name": "allowControllerMigration",
											"type": "bool",
											"internalType": "bool"
										},
										{
											"name": "allowSetController",
											"type": "bool",
											"internalType": "bool"
										},
										{
											"name": "holdFees",
											"type": "bool",
											"internalType": "bool"
										},
										{
											"name": "useTotalSurplusForRedemptions",
											"type": "bool",
											"internalType": "bool"
										},
										{
											"name": "useDataHookForPay",
											"type": "bool",
											"internalType": "bool"
										},
										{
											"name": "useDataHookForRedeem",
											"type": "bool",
											"internalType": "bool"
										},
										{
											"name": "dataHook",
											"type": "address",
											"internalType": "address"
										},
										{
											"name": "metadata",
											"type": "uint256",
											"internalType": "uint256"
										}
									]
								},
								{
									"name": "splitGroups",
									"type": "tuple[]",
									"internalType": "struct JBSplitGroup[]",
									"components": [
										{
											"name": "groupId",
											"type": "uint256",
											"internalType": "uint256"
										},
										{
											"name": "splits",
											"type": "tuple[]",
											"internalType": "struct JBSplit[]",
											"components": [
												{
													"name": "preferAddToBalance",
													"type": "bool",
													"internalType": "bool"
												},
												{
													"name": "percent",
													"type": "uint256",
													"internalType": "uint256"
												},
												{
													"name": "projectId",
													"type": "uint256",
													"internalType": "uint256"
												},
												{
													"name": "beneficiary",
													"type": "address",
													"internalType": "address payable"
												},
												{
													"name": "lockedUntil",
													"type": "uint256",
													"internalType": "uint256"
												},
												{
													"name": "hook",
													"type": "address",
													"internalType": "contract IJBSplitHook"
												}
											]
										}
									]
								},
								{
									"name": "fundAccessLimitGroups",
									"type": "tuple[]",
									"internalType": "struct JBFundAccessLimitGroup[]",
									"components": [
										{
											"name": "terminal",
											"type": "address",
											"internalType": "address"
										},
										{
											"name": "token",
											"type": "address",
											"internalType": "address"
										},
										{
											"name": "payoutLimits",
											"type": "tuple[]",
											"internalType": "struct JBCurrencyAmount[]",
											"components": [
												{
													"name": "amount",
													"type": "uint256",
													"internalType": "uint256"
												},
												{
													"name": "currency",
													"type": "uint256",
													"internalType": "uint256"
												}
											]
										},
										{
											"name": "surplusAllowances",
											"type": "tuple[]",
											"internalType": "struct JBCurrencyAmount[]",
											"components": [
												{
													"name": "amount",
													"type": "uint256",
													"internalType": "uint256"
												},
												{
													"name": "currency",
													"type": "uint256",
													"internalType": "uint256"
												}
											]
										}
									]
								}
							]
						},
						{
							"name": "terminalConfigurations",
							"type": "tuple[]",
							"internalType": "struct JBTerminalConfig[]",
							"components": [
								{
									"name": "terminal",
									"type": "address",
									"internalType": "contract IJBTerminal"
								},
								{
									"name": "tokensToAccept",
									"type": "address[]",
									"internalType": "address[]"
								}
							]
						},
						{
							"name": "memo",
							"type": "string",
							"internalType": "string"
						}
					],
					"outputs": [
						{
							"name": "projectId",
							"type": "uint256",
							"internalType": "uint256"
						}
					],
					"stateMutability": "nonpayable"
				},
				{
					"type": "function",
					"name": "launchRulesetsFor",
					"inputs": [
						{
							"name": "projectId",
							"type": "uint256",
							"internalType": "uint256"
						},
						{
							"name": "rulesetConfigurations",
							"type": "tuple[]",
							"internalType": "struct JBRulesetConfig[]",
							"components": [
								{
									"name": "mustStartAtOrAfter",
									"type": "uint256",
									"internalType": "uint256"
								},
								{
									"name": "duration",
									"type": "uint256",
									"internalType": "uint256"
								},
								{
									"name": "weight",
									"type": "uint256",
									"internalType": "uint256"
								},
								{
									"name": "decayRate",
									"type": "uint256",
									"internalType": "uint256"
								},
								{
									"name": "approvalHook",
									"type": "address",
									"internalType": "contract IJBRulesetApprovalHook"
								},
								{
									"name": "metadata",
									"type": "tuple",
									"internalType": "struct JBRulesetMetadata",
									"components": [
										{
											"name": "reservedRate",
											"type": "uint256",
											"internalType": "uint256"
										},
										{
											"name": "redemptionRate",
											"type": "uint256",
											"internalType": "uint256"
										},
										{
											"name": "baseCurrency",
											"type": "uint256",
											"internalType": "uint256"
										},
										{
											"name": "pausePay",
											"type": "bool",
											"internalType": "bool"
										},
										{
											"name": "pauseCreditTransfers",
											"type": "bool",
											"internalType": "bool"
										},
										{
											"name": "allowOwnerMinting",
											"type": "bool",
											"internalType": "bool"
										},
										{
											"name": "allowTerminalMigration",
											"type": "bool",
											"internalType": "bool"
										},
										{
											"name": "allowSetTerminals",
											"type": "bool",
											"internalType": "bool"
										},
										{
											"name": "allowControllerMigration",
											"type": "bool",
											"internalType": "bool"
										},
										{
											"name": "allowSetController",
											"type": "bool",
											"internalType": "bool"
										},
										{
											"name": "holdFees",
											"type": "bool",
											"internalType": "bool"
										},
										{
											"name": "useTotalSurplusForRedemptions",
											"type": "bool",
											"internalType": "bool"
										},
										{
											"name": "useDataHookForPay",
											"type": "bool",
											"internalType": "bool"
										},
										{
											"name": "useDataHookForRedeem",
											"type": "bool",
											"internalType": "bool"
										},
										{
											"name": "dataHook",
											"type": "address",
											"internalType": "address"
										},
										{
											"name": "metadata",
											"type": "uint256",
											"internalType": "uint256"
										}
									]
								},
								{
									"name": "splitGroups",
									"type": "tuple[]",
									"internalType": "struct JBSplitGroup[]",
									"components": [
										{
											"name": "groupId",
											"type": "uint256",
											"internalType": "uint256"
										},
										{
											"name": "splits",
											"type": "tuple[]",
											"internalType": "struct JBSplit[]",
											"components": [
												{
													"name": "preferAddToBalance",
													"type": "bool",
													"internalType": "bool"
												},
												{
													"name": "percent",
													"type": "uint256",
													"internalType": "uint256"
												},
												{
													"name": "projectId",
													"type": "uint256",
													"internalType": "uint256"
												},
												{
													"name": "beneficiary",
													"type": "address",
													"internalType": "address payable"
												},
												{
													"name": "lockedUntil",
													"type": "uint256",
													"internalType": "uint256"
												},
												{
													"name": "hook",
													"type": "address",
													"internalType": "contract IJBSplitHook"
												}
											]
										}
									]
								},
								{
									"name": "fundAccessLimitGroups",
									"type": "tuple[]",
									"internalType": "struct JBFundAccessLimitGroup[]",
									"components": [
										{
											"name": "terminal",
											"type": "address",
											"internalType": "address"
										},
										{
											"name": "token",
											"type": "address",
											"internalType": "address"
										},
										{
											"name": "payoutLimits",
											"type": "tuple[]",
											"internalType": "struct JBCurrencyAmount[]",
											"components": [
												{
													"name": "amount",
													"type": "uint256",
													"internalType": "uint256"
												},
												{
													"name": "currency",
													"type": "uint256",
													"internalType": "uint256"
												}
											]
										},
										{
											"name": "surplusAllowances",
											"type": "tuple[]",
											"internalType": "struct JBCurrencyAmount[]",
											"components": [
												{
													"name": "amount",
													"type": "uint256",
													"internalType": "uint256"
												},
												{
													"name": "currency",
													"type": "uint256",
													"internalType": "uint256"
												}
											]
										}
									]
								}
							]
						},
						{
							"name": "terminalConfigurations",
							"type": "tuple[]",
							"internalType": "struct JBTerminalConfig[]",
							"components": [
								{
									"name": "terminal",
									"type": "address",
									"internalType": "contract IJBTerminal"
								},
								{
									"name": "tokensToAccept",
									"type": "address[]",
									"internalType": "address[]"
								}
							]
						},
						{
							"name": "memo",
							"type": "string",
							"internalType": "string"
						}
					],
					"outputs": [
						{
							"name": "rulesetId",
							"type": "uint256",
							"internalType": "uint256"
						}
					],
					"stateMutability": "nonpayable"
				},
				{
					"type": "function",
					"name": "migrateController",
					"inputs": [
						{
							"name": "projectId",
							"type": "uint256",
							"internalType": "uint256"
						},
						{
							"name": "to",
							"type": "address",
							"internalType": "contract IJBMigratable"
						}
					],
					"outputs": [],
					"stateMutability": "nonpayable"
				},
				{
					"type": "function",
					"name": "mintTokensOf",
					"inputs": [
						{
							"name": "projectId",
							"type": "uint256",
							"internalType": "uint256"
						},
						{
							"name": "tokenCount",
							"type": "uint256",
							"internalType": "uint256"
						},
						{
							"name": "beneficiary",
							"type": "address",
							"internalType": "address"
						},
						{
							"name": "memo",
							"type": "string",
							"internalType": "string"
						},
						{
							"name": "useReservedRate",
							"type": "bool",
							"internalType": "bool"
						}
					],
					"outputs": [
						{
							"name": "beneficiaryTokenCount",
							"type": "uint256",
							"internalType": "uint256"
						}
					],
					"stateMutability": "nonpayable"
				},
				{
					"type": "function",
					"name": "payReservedTokenToTerminal",
					"inputs": [
						{
							"name": "terminal",
							"type": "address",
							"internalType": "contract IJBTerminal"
						},
						{
							"name": "projectId",
							"type": "uint256",
							"internalType": "uint256"
						},
						{
							"name": "token",
							"type": "address",
							"internalType": "contract IJBToken"
						},
						{
							"name": "splitAmount",
							"type": "uint256",
							"internalType": "uint256"
						},
						{
							"name": "beneficiary",
							"type": "address",
							"internalType": "address"
						},
						{
							"name": "metadata",
							"type": "bytes",
							"internalType": "bytes"
						}
					],
					"outputs": [],
					"stateMutability": "nonpayable"
				},
				{
					"type": "function",
					"name": "pendingReservedTokenBalanceOf",
					"inputs": [
						{
							"name": "projectId",
							"type": "uint256",
							"internalType": "uint256"
						}
					],
					"outputs": [
						{
							"name": "",
							"type": "uint256",
							"internalType": "uint256"
						}
					],
					"stateMutability": "view"
				},
				{
					"type": "function",
					"name": "queueRulesetsOf",
					"inputs": [
						{
							"name": "projectId",
							"type": "uint256",
							"internalType": "uint256"
						},
						{
							"name": "rulesetConfigurations",
							"type": "tuple[]",
							"internalType": "struct JBRulesetConfig[]",
							"components": [
								{
									"name": "mustStartAtOrAfter",
									"type": "uint256",
									"internalType": "uint256"
								},
								{
									"name": "duration",
									"type": "uint256",
									"internalType": "uint256"
								},
								{
									"name": "weight",
									"type": "uint256",
									"internalType": "uint256"
								},
								{
									"name": "decayRate",
									"type": "uint256",
									"internalType": "uint256"
								},
								{
									"name": "approvalHook",
									"type": "address",
									"internalType": "contract IJBRulesetApprovalHook"
								},
								{
									"name": "metadata",
									"type": "tuple",
									"internalType": "struct JBRulesetMetadata",
									"components": [
										{
											"name": "reservedRate",
											"type": "uint256",
											"internalType": "uint256"
										},
										{
											"name": "redemptionRate",
											"type": "uint256",
											"internalType": "uint256"
										},
										{
											"name": "baseCurrency",
											"type": "uint256",
											"internalType": "uint256"
										},
										{
											"name": "pausePay",
											"type": "bool",
											"internalType": "bool"
										},
										{
											"name": "pauseCreditTransfers",
											"type": "bool",
											"internalType": "bool"
										},
										{
											"name": "allowOwnerMinting",
											"type": "bool",
											"internalType": "bool"
										},
										{
											"name": "allowTerminalMigration",
											"type": "bool",
											"internalType": "bool"
										},
										{
											"name": "allowSetTerminals",
											"type": "bool",
											"internalType": "bool"
										},
										{
											"name": "allowControllerMigration",
											"type": "bool",
											"internalType": "bool"
										},
										{
											"name": "allowSetController",
											"type": "bool",
											"internalType": "bool"
										},
										{
											"name": "holdFees",
											"type": "bool",
											"internalType": "bool"
										},
										{
											"name": "useTotalSurplusForRedemptions",
											"type": "bool",
											"internalType": "bool"
										},
										{
											"name": "useDataHookForPay",
											"type": "bool",
											"internalType": "bool"
										},
										{
											"name": "useDataHookForRedeem",
											"type": "bool",
											"internalType": "bool"
										},
										{
											"name": "dataHook",
											"type": "address",
											"internalType": "address"
										},
										{
											"name": "metadata",
											"type": "uint256",
											"internalType": "uint256"
										}
									]
								},
								{
									"name": "splitGroups",
									"type": "tuple[]",
									"internalType": "struct JBSplitGroup[]",
									"components": [
										{
											"name": "groupId",
											"type": "uint256",
											"internalType": "uint256"
										},
										{
											"name": "splits",
											"type": "tuple[]",
											"internalType": "struct JBSplit[]",
											"components": [
												{
													"name": "preferAddToBalance",
													"type": "bool",
													"internalType": "bool"
												},
												{
													"name": "percent",
													"type": "uint256",
													"internalType": "uint256"
												},
												{
													"name": "projectId",
													"type": "uint256",
													"internalType": "uint256"
												},
												{
													"name": "beneficiary",
													"type": "address",
													"internalType": "address payable"
												},
												{
													"name": "lockedUntil",
													"type": "uint256",
													"internalType": "uint256"
												},
												{
													"name": "hook",
													"type": "address",
													"internalType": "contract IJBSplitHook"
												}
											]
										}
									]
								},
								{
									"name": "fundAccessLimitGroups",
									"type": "tuple[]",
									"internalType": "struct JBFundAccessLimitGroup[]",
									"components": [
										{
											"name": "terminal",
											"type": "address",
											"internalType": "address"
										},
										{
											"name": "token",
											"type": "address",
											"internalType": "address"
										},
										{
											"name": "payoutLimits",
											"type": "tuple[]",
											"internalType": "struct JBCurrencyAmount[]",
											"components": [
												{
													"name": "amount",
													"type": "uint256",
													"internalType": "uint256"
												},
												{
													"name": "currency",
													"type": "uint256",
													"internalType": "uint256"
												}
											]
										},
										{
											"name": "surplusAllowances",
											"type": "tuple[]",
											"internalType": "struct JBCurrencyAmount[]",
											"components": [
												{
													"name": "amount",
													"type": "uint256",
													"internalType": "uint256"
												},
												{
													"name": "currency",
													"type": "uint256",
													"internalType": "uint256"
												}
											]
										}
									]
								}
							]
						},
						{
							"name": "memo",
							"type": "string",
							"internalType": "string"
						}
					],
					"outputs": [
						{
							"name": "rulesetId",
							"type": "uint256",
							"internalType": "uint256"
						}
					],
					"stateMutability": "nonpayable"
				},
				{
					"type": "function",
					"name": "receiveMigrationFrom",
					"inputs": [
						{
							"name": "from",
							"type": "address",
							"internalType": "contract IERC165"
						},
						{
							"name": "projectId",
							"type": "uint256",
							"internalType": "uint256"
						}
					],
					"outputs": [],
					"stateMutability": "nonpayable"
				},
				{
					"type": "function",
					"name": "rulesetsOf",
					"inputs": [
						{
							"name": "projectId",
							"type": "uint256",
							"internalType": "uint256"
						},
						{
							"name": "startingId",
							"type": "uint256",
							"internalType": "uint256"
						},
						{
							"name": "size",
							"type": "uint256",
							"internalType": "uint256"
						}
					],
					"outputs": [
						{
							"name": "rulesets",
							"type": "tuple[]",
							"internalType": "struct JBRulesetWithMetadata[]",
							"components": [
								{
									"name": "ruleset",
									"type": "tuple",
									"internalType": "struct JBRuleset",
									"components": [
										{
											"name": "cycleNumber",
											"type": "uint256",
											"internalType": "uint256"
										},
										{
											"name": "id",
											"type": "uint256",
											"internalType": "uint256"
										},
										{
											"name": "basedOnId",
											"type": "uint256",
											"internalType": "uint256"
										},
										{
											"name": "start",
											"type": "uint256",
											"internalType": "uint256"
										},
										{
											"name": "duration",
											"type": "uint256",
											"internalType": "uint256"
										},
										{
											"name": "weight",
											"type": "uint256",
											"internalType": "uint256"
										},
										{
											"name": "decayRate",
											"type": "uint256",
											"internalType": "uint256"
										},
										{
											"name": "approvalHook",
											"type": "address",
											"internalType": "contract IJBRulesetApprovalHook"
										},
										{
											"name": "metadata",
											"type": "uint256",
											"internalType": "uint256"
										}
									]
								},
								{
									"name": "metadata",
									"type": "tuple",
									"internalType": "struct JBRulesetMetadata",
									"components": [
										{
											"name": "reservedRate",
											"type": "uint256",
											"internalType": "uint256"
										},
										{
											"name": "redemptionRate",
											"type": "uint256",
											"internalType": "uint256"
										},
										{
											"name": "baseCurrency",
											"type": "uint256",
											"internalType": "uint256"
										},
										{
											"name": "pausePay",
											"type": "bool",
											"internalType": "bool"
										},
										{
											"name": "pauseCreditTransfers",
											"type": "bool",
											"internalType": "bool"
										},
										{
											"name": "allowOwnerMinting",
											"type": "bool",
											"internalType": "bool"
										},
										{
											"name": "allowTerminalMigration",
											"type": "bool",
											"internalType": "bool"
										},
										{
											"name": "allowSetTerminals",
											"type": "bool",
											"internalType": "bool"
										},
										{
											"name": "allowControllerMigration",
											"type": "bool",
											"internalType": "bool"
										},
										{
											"name": "allowSetController",
											"type": "bool",
											"internalType": "bool"
										},
										{
											"name": "holdFees",
											"type": "bool",
											"internalType": "bool"
										},
										{
											"name": "useTotalSurplusForRedemptions",
											"type": "bool",
											"internalType": "bool"
										},
										{
											"name": "useDataHookForPay",
											"type": "bool",
											"internalType": "bool"
										},
										{
											"name": "useDataHookForRedeem",
											"type": "bool",
											"internalType": "bool"
										},
										{
											"name": "dataHook",
											"type": "address",
											"internalType": "address"
										},
										{
											"name": "metadata",
											"type": "uint256",
											"internalType": "uint256"
										}
									]
								}
							]
						}
					],
					"stateMutability": "view"
				},
				{
					"type": "function",
					"name": "sendReservedTokensToSplitsOf",
					"inputs": [
						{
							"name": "projectId",
							"type": "uint256",
							"internalType": "uint256"
						}
					],
					"outputs": [
						{
							"name": "",
							"type": "uint256",
							"internalType": "uint256"
						}
					],
					"stateMutability": "nonpayable"
				},
				{
					"type": "function",
					"name": "setControllerAllowed",
					"inputs": [
						{
							"name": "projectId",
							"type": "uint256",
							"internalType": "uint256"
						}
					],
					"outputs": [
						{
							"name": "",
							"type": "bool",
							"internalType": "bool"
						}
					],
					"stateMutability": "view"
				},
				{
					"type": "function",
					"name": "setSplitGroupsOf",
					"inputs": [
						{
							"name": "projectId",
							"type": "uint256",
							"internalType": "uint256"
						},
						{
							"name": "rulesetId",
							"type": "uint256",
							"internalType": "uint256"
						},
						{
							"name": "splitGroups",
							"type": "tuple[]",
							"internalType": "struct JBSplitGroup[]",
							"components": [
								{
									"name": "groupId",
									"type": "uint256",
									"internalType": "uint256"
								},
								{
									"name": "splits",
									"type": "tuple[]",
									"internalType": "struct JBSplit[]",
									"components": [
										{
											"name": "preferAddToBalance",
											"type": "bool",
											"internalType": "bool"
										},
										{
											"name": "percent",
											"type": "uint256",
											"internalType": "uint256"
										},
										{
											"name": "projectId",
											"type": "uint256",
											"internalType": "uint256"
										},
										{
											"name": "beneficiary",
											"type": "address",
											"internalType": "address payable"
										},
										{
											"name": "lockedUntil",
											"type": "uint256",
											"internalType": "uint256"
										},
										{
											"name": "hook",
											"type": "address",
											"internalType": "contract IJBSplitHook"
										}
									]
								}
							]
						}
					],
					"outputs": [],
					"stateMutability": "nonpayable"
				},
				{
					"type": "function",
					"name": "setTerminalsAllowed",
					"inputs": [
						{
							"name": "projectId",
							"type": "uint256",
							"internalType": "uint256"
						}
					],
					"outputs": [
						{
							"name": "",
							"type": "bool",
							"internalType": "bool"
						}
					],
					"stateMutability": "view"
				},
				{
					"type": "function",
					"name": "setTokenFor",
					"inputs": [
						{
							"name": "projectId",
							"type": "uint256",
							"internalType": "uint256"
						},
						{
							"name": "token",
							"type": "address",
							"internalType": "contract IJBToken"
						}
					],
					"outputs": [],
					"stateMutability": "nonpayable"
				},
				{
					"type": "function",
					"name": "setUriOf",
					"inputs": [
						{
							"name": "projectId",
							"type": "uint256",
							"internalType": "uint256"
						},
						{
							"name": "metadata",
							"type": "string",
							"internalType": "string"
						}
					],
					"outputs": [],
					"stateMutability": "nonpayable"
				},
				{
					"type": "function",
					"name": "supportsInterface",
					"inputs": [
						{
							"name": "interfaceId",
							"type": "bytes4",
							"internalType": "bytes4"
						}
					],
					"outputs": [
						{
							"name": "",
							"type": "bool",
							"internalType": "bool"
						}
					],
					"stateMutability": "view"
				},
				{
					"type": "function",
					"name": "totalTokenSupplyWithReservedTokensOf",
					"inputs": [
						{
							"name": "projectId",
							"type": "uint256",
							"internalType": "uint256"
						}
					],
					"outputs": [
						{
							"name": "",
							"type": "uint256",
							"internalType": "uint256"
						}
					],
					"stateMutability": "view"
				},
				{
					"type": "function",
					"name": "transferCreditsFrom",
					"inputs": [
						{
							"name": "holder",
							"type": "address",
							"internalType": "address"
						},
						{
							"name": "projectId",
							"type": "uint256",
							"internalType": "uint256"
						},
						{
							"name": "recipient",
							"type": "address",
							"internalType": "address"
						},
						{
							"name": "amount",
							"type": "uint256",
							"internalType": "uint256"
						}
					],
					"outputs": [],
					"stateMutability": "nonpayable"
				},
				{
					"type": "function",
					"name": "trustedForwarder",
					"inputs": [],
					"outputs": [
						{
							"name": "",
							"type": "address",
							"internalType": "address"
						}
					],
					"stateMutability": "view"
				},
				{
					"type": "function",
					"name": "upcomingRulesetOf",
					"inputs": [
						{
							"name": "projectId",
							"type": "uint256",
							"internalType": "uint256"
						}
					],
					"outputs": [
						{
							"name": "ruleset",
							"type": "tuple",
							"internalType": "struct JBRuleset",
							"components": [
								{
									"name": "cycleNumber",
									"type": "uint256",
									"internalType": "uint256"
								},
								{
									"name": "id",
									"type": "uint256",
									"internalType": "uint256"
								},
								{
									"name": "basedOnId",
									"type": "uint256",
									"internalType": "uint256"
								},
								{
									"name": "start",
									"type": "uint256",
									"internalType": "uint256"
								},
								{
									"name": "duration",
									"type": "uint256",
									"internalType": "uint256"
								},
								{
									"name": "weight",
									"type": "uint256",
									"internalType": "uint256"
								},
								{
									"name": "decayRate",
									"type": "uint256",
									"internalType": "uint256"
								},
								{
									"name": "approvalHook",
									"type": "address",
									"internalType": "contract IJBRulesetApprovalHook"
								},
								{
									"name": "metadata",
									"type": "uint256",
									"internalType": "uint256"
								}
							]
						},
						{
							"name": "metadata",
							"type": "tuple",
							"internalType": "struct JBRulesetMetadata",
							"components": [
								{
									"name": "reservedRate",
									"type": "uint256",
									"internalType": "uint256"
								},
								{
									"name": "redemptionRate",
									"type": "uint256",
									"internalType": "uint256"
								},
								{
									"name": "baseCurrency",
									"type": "uint256",
									"internalType": "uint256"
								},
								{
									"name": "pausePay",
									"type": "bool",
									"internalType": "bool"
								},
								{
									"name": "pauseCreditTransfers",
									"type": "bool",
									"internalType": "bool"
								},
								{
									"name": "allowOwnerMinting",
									"type": "bool",
									"internalType": "bool"
								},
								{
									"name": "allowTerminalMigration",
									"type": "bool",
									"internalType": "bool"
								},
								{
									"name": "allowSetTerminals",
									"type": "bool",
									"internalType": "bool"
								},
								{
									"name": "allowControllerMigration",
									"type": "bool",
									"internalType": "bool"
								},
								{
									"name": "allowSetController",
									"type": "bool",
									"internalType": "bool"
								},
								{
									"name": "holdFees",
									"type": "bool",
									"internalType": "bool"
								},
								{
									"name": "useTotalSurplusForRedemptions",
									"type": "bool",
									"internalType": "bool"
								},
								{
									"name": "useDataHookForPay",
									"type": "bool",
									"internalType": "bool"
								},
								{
									"name": "useDataHookForRedeem",
									"type": "bool",
									"internalType": "bool"
								},
								{
									"name": "dataHook",
									"type": "address",
									"internalType": "address"
								},
								{
									"name": "metadata",
									"type": "uint256",
									"internalType": "uint256"
								}
							]
						}
					],
					"stateMutability": "view"
				},
				{
					"type": "function",
					"name": "uriOf",
					"inputs": [
						{
							"name": "projectId",
							"type": "uint256",
							"internalType": "uint256"
						}
					],
					"outputs": [
						{
							"name": "",
							"type": "string",
							"internalType": "string"
						}
					],
					"stateMutability": "view"
				},
				{
					"type": "event",
					"name": "BurnTokens",
					"inputs": [
						{
							"name": "holder",
							"type": "address",
							"indexed": true,
							"internalType": "address"
						},
						{
							"name": "projectId",
							"type": "uint256",
							"indexed": true,
							"internalType": "uint256"
						},
						{
							"name": "tokenCount",
							"type": "uint256",
							"indexed": false,
							"internalType": "uint256"
						},
						{
							"name": "memo",
							"type": "string",
							"indexed": false,
							"internalType": "string"
						},
						{
							"name": "caller",
							"type": "address",
							"indexed": false,
							"internalType": "address"
						}
					],
					"anonymous": false
				},
				{
					"type": "event",
					"name": "LaunchProject",
					"inputs": [
						{
							"name": "rulesetId",
							"type": "uint256",
							"indexed": false,
							"internalType": "uint256"
						},
						{
							"name": "projectId",
							"type": "uint256",
							"indexed": false,
							"internalType": "uint256"
						},
						{
							"name": "metadata",
							"type": "string",
							"indexed": false,
							"internalType": "string"
						},
						{
							"name": "memo",
							"type": "string",
							"indexed": false,
							"internalType": "string"
						},
						{
							"name": "caller",
							"type": "address",
							"indexed": false,
							"internalType": "address"
						}
					],
					"anonymous": false
				},
				{
					"type": "event",
					"name": "LaunchRulesets",
					"inputs": [
						{
							"name": "rulesetId",
							"type": "uint256",
							"indexed": false,
							"internalType": "uint256"
						},
						{
							"name": "projectId",
							"type": "uint256",
							"indexed": false,
							"internalType": "uint256"
						},
						{
							"name": "memo",
							"type": "string",
							"indexed": false,
							"internalType": "string"
						},
						{
							"name": "caller",
							"type": "address",
							"indexed": false,
							"internalType": "address"
						}
					],
					"anonymous": false
				},
				{
					"type": "event",
					"name": "MigrateController",
					"inputs": [
						{
							"name": "projectId",
							"type": "uint256",
							"indexed": true,
							"internalType": "uint256"
						},
						{
							"name": "to",
							"type": "address",
							"indexed": false,
							"internalType": "contract IJBMigratable"
						},
						{
							"name": "caller",
							"type": "address",
							"indexed": false,
							"internalType": "address"
						}
					],
					"anonymous": false
				},
				{
					"type": "event",
					"name": "MintTokens",
					"inputs": [
						{
							"name": "beneficiary",
							"type": "address",
							"indexed": true,
							"internalType": "address"
						},
						{
							"name": "projectId",
							"type": "uint256",
							"indexed": true,
							"internalType": "uint256"
						},
						{
							"name": "tokenCount",
							"type": "uint256",
							"indexed": false,
							"internalType": "uint256"
						},
						{
							"name": "beneficiaryTokenCount",
							"type": "uint256",
							"indexed": false,
							"internalType": "uint256"
						},
						{
							"name": "memo",
							"type": "string",
							"indexed": false,
							"internalType": "string"
						},
						{
							"name": "reservedRate",
							"type": "uint256",
							"indexed": false,
							"internalType": "uint256"
						},
						{
							"name": "caller",
							"type": "address",
							"indexed": false,
							"internalType": "address"
						}
					],
					"anonymous": false
				},
				{
					"type": "event",
					"name": "PrepMigration",
					"inputs": [
						{
							"name": "projectId",
							"type": "uint256",
							"indexed": true,
							"internalType": "uint256"
						},
						{
							"name": "from",
							"type": "address",
							"indexed": false,
							"internalType": "address"
						},
						{
							"name": "caller",
							"type": "address",
							"indexed": false,
							"internalType": "address"
						}
					],
					"anonymous": false
				},
				{
					"type": "event",
					"name": "QueueRulesets",
					"inputs": [
						{
							"name": "rulesetId",
							"type": "uint256",
							"indexed": false,
							"internalType": "uint256"
						},
						{
							"name": "projectId",
							"type": "uint256",
							"indexed": false,
							"internalType": "uint256"
						},
						{
							"name": "memo",
							"type": "string",
							"indexed": false,
							"internalType": "string"
						},
						{
							"name": "caller",
							"type": "address",
							"indexed": false,
							"internalType": "address"
						}
					],
					"anonymous": false
				},
				{
					"type": "event",
					"name": "ReservedDistributionReverted",
					"inputs": [
						{
							"name": "projectId",
							"type": "uint256",
							"indexed": true,
							"internalType": "uint256"
						},
						{
							"name": "split",
							"type": "tuple",
							"indexed": false,
							"internalType": "struct JBSplit",
							"components": [
								{
									"name": "preferAddToBalance",
									"type": "bool",
									"internalType": "bool"
								},
								{
									"name": "percent",
									"type": "uint256",
									"internalType": "uint256"
								},
								{
									"name": "projectId",
									"type": "uint256",
									"internalType": "uint256"
								},
								{
									"name": "beneficiary",
									"type": "address",
									"internalType": "address payable"
								},
								{
									"name": "lockedUntil",
									"type": "uint256",
									"internalType": "uint256"
								},
								{
									"name": "hook",
									"type": "address",
									"internalType": "contract IJBSplitHook"
								}
							]
						},
						{
							"name": "amount",
							"type": "uint256",
							"indexed": false,
							"internalType": "uint256"
						},
						{
							"name": "reason",
							"type": "bytes",
							"indexed": false,
							"internalType": "bytes"
						},
						{
							"name": "caller",
							"type": "address",
							"indexed": false,
							"internalType": "address"
						}
					],
					"anonymous": false
				},
				{
					"type": "event",
					"name": "SendReservedTokensToSplit",
					"inputs": [
						{
							"name": "projectId",
							"type": "uint256",
							"indexed": true,
							"internalType": "uint256"
						},
						{
							"name": "rulesetId",
							"type": "uint256",
							"indexed": true,
							"internalType": "uint256"
						},
						{
							"name": "group",
							"type": "uint256",
							"indexed": true,
							"internalType": "uint256"
						},
						{
							"name": "split",
							"type": "tuple",
							"indexed": false,
							"internalType": "struct JBSplit",
							"components": [
								{
									"name": "preferAddToBalance",
									"type": "bool",
									"internalType": "bool"
								},
								{
									"name": "percent",
									"type": "uint256",
									"internalType": "uint256"
								},
								{
									"name": "projectId",
									"type": "uint256",
									"internalType": "uint256"
								},
								{
									"name": "beneficiary",
									"type": "address",
									"internalType": "address payable"
								},
								{
									"name": "lockedUntil",
									"type": "uint256",
									"internalType": "uint256"
								},
								{
									"name": "hook",
									"type": "address",
									"internalType": "contract IJBSplitHook"
								}
							]
						},
						{
							"name": "tokenCount",
							"type": "uint256",
							"indexed": false,
							"internalType": "uint256"
						},
						{
							"name": "caller",
							"type": "address",
							"indexed": false,
							"internalType": "address"
						}
					],
					"anonymous": false
				},
				{
					"type": "event",
					"name": "SendReservedTokensToSplits",
					"inputs": [
						{
							"name": "rulesetId",
							"type": "uint256",
							"indexed": true,
							"internalType": "uint256"
						},
						{
							"name": "rulesetCycleNumber",
							"type": "uint256",
							"indexed": true,
							"internalType": "uint256"
						},
						{
							"name": "projectId",
							"type": "uint256",
							"indexed": true,
							"internalType": "uint256"
						},
						{
							"name": "beneficiary",
							"type": "address",
							"indexed": false,
							"internalType": "address"
						},
						{
							"name": "tokenCount",
							"type": "uint256",
							"indexed": false,
							"internalType": "uint256"
						},
						{
							"name": "beneficiaryTokenCount",
							"type": "uint256",
							"indexed": false,
							"internalType": "uint256"
						},
						{
							"name": "caller",
							"type": "address",
							"indexed": false,
							"internalType": "address"
						}
					],
					"anonymous": false
				},
				{
					"type": "event",
					"name": "SetMetadata",
					"inputs": [
						{
							"name": "projectId",
							"type": "uint256",
							"indexed": true,
							"internalType": "uint256"
						},
						{
							"name": "metadata",
							"type": "string",
							"indexed": false,
							"internalType": "string"
						},
						{
							"name": "caller",
							"type": "address",
							"indexed": false,
							"internalType": "address"
						}
					],
					"anonymous": false
				},
				{
					"type": "error",
					"name": "AddressEmptyCode",
					"inputs": [
						{
							"name": "target",
							"type": "address",
							"internalType": "address"
						}
					]
				},
				{
					"type": "error",
					"name": "AddressInsufficientBalance",
					"inputs": [
						{
							"name": "account",
							"type": "address",
							"internalType": "address"
						}
					]
				},
				{
					"type": "error",
					"name": "CONTROLLER_MIGRATION_NOT_ALLOWED",
					"inputs": []
				},
				{
					"type": "error",
					"name": "CREDIT_TRANSFERS_PAUSED",
					"inputs": []
				},
				{
					"type": "error",
					"name": "FailedInnerCall",
					"inputs": []
				},
				{
					"type": "error",
					"name": "INVALID_BASE_CURRENCY",
					"inputs": []
				},
				{
					"type": "error",
					"name": "INVALID_REDEMPTION_RATE",
					"inputs": []
				},
				{
					"type": "error",
					"name": "INVALID_RESERVED_RATE",
					"inputs": []
				},
				{
					"type": "error",
					"name": "MINT_NOT_ALLOWED_AND_NOT_TERMINAL_OR_HOOK",
					"inputs": []
				},
				{
					"type": "error",
					"name": "NO_BURNABLE_TOKENS",
					"inputs": []
				},
				{
					"type": "error",
					"name": "NO_RESERVED_TOKENS",
					"inputs": []
				},
				{
					"type": "error",
					"name": "PRBMath_MulDiv_Overflow",
					"inputs": [
						{
							"name": "x",
							"type": "uint256",
							"internalType": "uint256"
						},
						{
							"name": "y",
							"type": "uint256",
							"internalType": "uint256"
						},
						{
							"name": "denominator",
							"type": "uint256",
							"internalType": "uint256"
						}
					]
				},
				{
					"type": "error",
					"name": "RULESETS_ALREADY_LAUNCHED",
					"inputs": []
				},
				{
					"type": "error",
					"name": "RULESETS_ARRAY_EMPTY",
					"inputs": []
				},
				{
					"type": "error",
					"name": "SafeERC20FailedOperation",
					"inputs": [
						{
							"name": "token",
							"type": "address",
							"internalType": "address"
						}
					]
				},
				{
					"type": "error",
					"name": "UNAUTHORIZED",
					"inputs": []
				},
				{
					"type": "error",
					"name": "ZERO_TOKENS_TO_MINT",
					"inputs": []
				}
			],
			"solcInputHash": "5d4c706d93c97620ff427d8d75b46099",
			"receipt": {
				"blockHash": "0xf749c53b5492be39e458b3de7fb8e6a5953c2d684f30b58c0b88812bf8132171",
				"blockNumber": 36129245,
				"contractAddress": null,
				"cumulativeGasUsed": "6934495",
				"from": "0xC034550B542b83BA1De312b21d1C94a9a52B1595",
				"gasPrice": "606570000",
				"gasUsed": "5374003",
				"hash": "0x9aac5110273e95fa5caa2d163b2ba2765a9aa6720c4bc1453e97f416477a53f4",
				"index": 2,
				"logs": [
					{
						"address": "0xB5E96127D417b1B3ef8438496a38A143167209c7",
						"blockHash": "0xf749c53b5492be39e458b3de7fb8e6a5953c2d684f30b58c0b88812bf8132171",
						"blockNumber": 36129245,
						"data": "0x0000000000000000000000000000000000000000000000000000000000000000",
						"index": 5,
						"topics": [
							"0x572f161235911da04685a68c06adf558fc7e4a36909dca394650e0adc19cc93d",
							"0x000000000000000000000000c034550b542b83ba1de312b21d1c94a9a52b1595",
							"0x000000000000000000000000ef1be3c049809cace5bc203bbe4ec1ab284bf75c",
							"0xb595c1d85aab0c3deae137e62888672c39c30ea2c53043e1ee5b41ed6722f665"
						],
						"transactionHash": "0x9aac5110273e95fa5caa2d163b2ba2765a9aa6720c4bc1453e97f416477a53f4",
						"transactionIndex": 2
					},
					{
						"address": "0x1081B5AA9D9d4862A3dA4d469433FB36Ed80FA2A",
						"blockHash": "0xf749c53b5492be39e458b3de7fb8e6a5953c2d684f30b58c0b88812bf8132171",
						"blockNumber": 36129245,
						"data": "0x",
						"index": 6,
						"topics": [
							"0x6895c13664aa4f67288b25d7a21d7aaa34916e355fb9b6fae0a139a9085becb8",
							"0x000000000000000000000000ef1be3c049809cace5bc203bbe4ec1ab284bf75c"
						],
						"transactionHash": "0x9aac5110273e95fa5caa2d163b2ba2765a9aa6720c4bc1453e97f416477a53f4",
						"transactionIndex": 2
					},
					{
						"address": "0xEf1Be3C049809caCe5Bc203BBe4Ec1Ab284bF75c",
						"blockHash": "0xf749c53b5492be39e458b3de7fb8e6a5953c2d684f30b58c0b88812bf8132171",
						"blockNumber": 36129245,
						"data": "0x0000000000000000000000000000000000000000000000000000000000000009",
						"index": 7,
						"topics": [
							"0xa65fb05c5808f5f389d72edeaf719ce38f4cc55c1f69ca3cbfb31c21501caa07",
							"0xeb76efeb8f97c5cb80ab72b380ea5b356ede5f4abbf2a0c560104f8a80b45857"
						],
						"transactionHash": "0x9aac5110273e95fa5caa2d163b2ba2765a9aa6720c4bc1453e97f416477a53f4",
						"transactionIndex": 2
					}
				],
				"logsBloom": "0x00000000080010000008000000080000000000000008000800000000004000000040008000000000000000000040000000000000000000000000000000000000000000800000200400000000000000000400000000000000000000000000000000000000000000000000000000000000000000100000000000000000000000000001000000000000000100000000000000000000000000000000800020000000004000000010000000000000000000020200000000000000000000000006000000000000000800200000000008000010000000000000000000000000000000000000000000000000000000000000000200000000000000000000000000000000",
				"status": 1,
				"to": "0xB5E96127D417b1B3ef8438496a38A143167209c7"
			},
			"metadata": "{\"compiler\":{\"version\":\"0.8.23+commit.f704f362\"},\"language\":\"Solidity\",\"output\":{\"abi\":[{\"inputs\":[{\"internalType\":\"contract IJBPermissions\",\"name\":\"permissions\",\"type\":\"address\"},{\"internalType\":\"contract IJBProjects\",\"name\":\"projects\",\"type\":\"address\"},{\"internalType\":\"contract IJBDirectory\",\"name\":\"directory\",\"type\":\"address\"},{\"internalType\":\"contract IJBRulesets\",\"name\":\"rulesets\",\"type\":\"address\"},{\"internalType\":\"contract IJBTokens\",\"name\":\"tokens\",\"type\":\"address\"},{\"internalType\":\"contract IJBSplits\",\"name\":\"splits\",\"type\":\"address\"},{\"internalType\":\"contract IJBFundAccessLimits\",\"name\":\"fundAccessLimits\",\"type\":\"address\"},{\"internalType\":\"address\",\"name\":\"trustedForwarder\",\"type\":\"address\"}],\"stateMutability\":\"nonpayable\",\"type\":\"constructor\"},{\"inputs\":[{\"internalType\":\"address\",\"name\":\"target\",\"type\":\"address\"}],\"type\":\"error\",\"name\":\"AddressEmptyCode\"},{\"inputs\":[{\"internalType\":\"address\",\"name\":\"account\",\"type\":\"address\"}],\"type\":\"error\",\"name\":\"AddressInsufficientBalance\"},{\"inputs\":[],\"type\":\"error\",\"name\":\"CONTROLLER_MIGRATION_NOT_ALLOWED\"},{\"inputs\":[],\"type\":\"error\",\"name\":\"CREDIT_TRANSFERS_PAUSED\"},{\"inputs\":[],\"type\":\"error\",\"name\":\"FailedInnerCall\"},{\"inputs\":[],\"type\":\"error\",\"name\":\"INVALID_BASE_CURRENCY\"},{\"inputs\":[],\"type\":\"error\",\"name\":\"INVALID_REDEMPTION_RATE\"},{\"inputs\":[],\"type\":\"error\",\"name\":\"INVALID_RESERVED_RATE\"},{\"inputs\":[],\"type\":\"error\",\"name\":\"MINT_NOT_ALLOWED_AND_NOT_TERMINAL_OR_HOOK\"},{\"inputs\":[],\"type\":\"error\",\"name\":\"NO_BURNABLE_TOKENS\"},{\"inputs\":[],\"type\":\"error\",\"name\":\"NO_RESERVED_TOKENS\"},{\"inputs\":[{\"internalType\":\"uint256\",\"name\":\"x\",\"type\":\"uint256\"},{\"internalType\":\"uint256\",\"name\":\"y\",\"type\":\"uint256\"},{\"internalType\":\"uint256\",\"name\":\"denominator\",\"type\":\"uint256\"}],\"type\":\"error\",\"name\":\"PRBMath_MulDiv_Overflow\"},{\"inputs\":[],\"type\":\"error\",\"name\":\"RULESETS_ALREADY_LAUNCHED\"},{\"inputs\":[],\"type\":\"error\",\"name\":\"RULESETS_ARRAY_EMPTY\"},{\"inputs\":[{\"internalType\":\"address\",\"name\":\"token\",\"type\":\"address\"}],\"type\":\"error\",\"name\":\"SafeERC20FailedOperation\"},{\"inputs\":[],\"type\":\"error\",\"name\":\"UNAUTHORIZED\"},{\"inputs\":[],\"type\":\"error\",\"name\":\"ZERO_TOKENS_TO_MINT\"},{\"inputs\":[{\"internalType\":\"address\",\"name\":\"holder\",\"type\":\"address\",\"indexed\":true},{\"internalType\":\"uint256\",\"name\":\"projectId\",\"type\":\"uint256\",\"indexed\":true},{\"internalType\":\"uint256\",\"name\":\"tokenCount\",\"type\":\"uint256\",\"indexed\":false},{\"internalType\":\"string\",\"name\":\"memo\",\"type\":\"string\",\"indexed\":false},{\"internalType\":\"address\",\"name\":\"caller\",\"type\":\"address\",\"indexed\":false}],\"type\":\"event\",\"name\":\"BurnTokens\",\"anonymous\":false},{\"inputs\":[{\"internalType\":\"uint256\",\"name\":\"rulesetId\",\"type\":\"uint256\",\"indexed\":false},{\"internalType\":\"uint256\",\"name\":\"projectId\",\"type\":\"uint256\",\"indexed\":false},{\"internalType\":\"string\",\"name\":\"metadata\",\"type\":\"string\",\"indexed\":false},{\"internalType\":\"string\",\"name\":\"memo\",\"type\":\"string\",\"indexed\":false},{\"internalType\":\"address\",\"name\":\"caller\",\"type\":\"address\",\"indexed\":false}],\"type\":\"event\",\"name\":\"LaunchProject\",\"anonymous\":false},{\"inputs\":[{\"internalType\":\"uint256\",\"name\":\"rulesetId\",\"type\":\"uint256\",\"indexed\":false},{\"internalType\":\"uint256\",\"name\":\"projectId\",\"type\":\"uint256\",\"indexed\":false},{\"internalType\":\"string\",\"name\":\"memo\",\"type\":\"string\",\"indexed\":false},{\"internalType\":\"address\",\"name\":\"caller\",\"type\":\"address\",\"indexed\":false}],\"type\":\"event\",\"name\":\"LaunchRulesets\",\"anonymous\":false},{\"inputs\":[{\"internalType\":\"uint256\",\"name\":\"projectId\",\"type\":\"uint256\",\"indexed\":true},{\"internalType\":\"contract IJBMigratable\",\"name\":\"to\",\"type\":\"address\",\"indexed\":false},{\"internalType\":\"address\",\"name\":\"caller\",\"type\":\"address\",\"indexed\":false}],\"type\":\"event\",\"name\":\"MigrateController\",\"anonymous\":false},{\"inputs\":[{\"internalType\":\"address\",\"name\":\"beneficiary\",\"type\":\"address\",\"indexed\":true},{\"internalType\":\"uint256\",\"name\":\"projectId\",\"type\":\"uint256\",\"indexed\":true},{\"internalType\":\"uint256\",\"name\":\"tokenCount\",\"type\":\"uint256\",\"indexed\":false},{\"internalType\":\"uint256\",\"name\":\"beneficiaryTokenCount\",\"type\":\"uint256\",\"indexed\":false},{\"internalType\":\"string\",\"name\":\"memo\",\"type\":\"string\",\"indexed\":false},{\"internalType\":\"uint256\",\"name\":\"reservedRate\",\"type\":\"uint256\",\"indexed\":false},{\"internalType\":\"address\",\"name\":\"caller\",\"type\":\"address\",\"indexed\":false}],\"type\":\"event\",\"name\":\"MintTokens\",\"anonymous\":false},{\"inputs\":[{\"internalType\":\"uint256\",\"name\":\"projectId\",\"type\":\"uint256\",\"indexed\":true},{\"internalType\":\"address\",\"name\":\"from\",\"type\":\"address\",\"indexed\":false},{\"internalType\":\"address\",\"name\":\"caller\",\"type\":\"address\",\"indexed\":false}],\"type\":\"event\",\"name\":\"PrepMigration\",\"anonymous\":false},{\"inputs\":[{\"internalType\":\"uint256\",\"name\":\"rulesetId\",\"type\":\"uint256\",\"indexed\":false},{\"internalType\":\"uint256\",\"name\":\"projectId\",\"type\":\"uint256\",\"indexed\":false},{\"internalType\":\"string\",\"name\":\"memo\",\"type\":\"string\",\"indexed\":false},{\"internalType\":\"address\",\"name\":\"caller\",\"type\":\"address\",\"indexed\":false}],\"type\":\"event\",\"name\":\"QueueRulesets\",\"anonymous\":false},{\"inputs\":[{\"internalType\":\"uint256\",\"name\":\"projectId\",\"type\":\"uint256\",\"indexed\":true},{\"internalType\":\"struct JBSplit\",\"name\":\"split\",\"type\":\"tuple\",\"components\":[{\"internalType\":\"bool\",\"name\":\"preferAddToBalance\",\"type\":\"bool\"},{\"internalType\":\"uint256\",\"name\":\"percent\",\"type\":\"uint256\"},{\"internalType\":\"uint256\",\"name\":\"projectId\",\"type\":\"uint256\"},{\"internalType\":\"address payable\",\"name\":\"beneficiary\",\"type\":\"address\"},{\"internalType\":\"uint256\",\"name\":\"lockedUntil\",\"type\":\"uint256\"},{\"internalType\":\"contract IJBSplitHook\",\"name\":\"hook\",\"type\":\"address\"}],\"indexed\":false},{\"internalType\":\"uint256\",\"name\":\"amount\",\"type\":\"uint256\",\"indexed\":false},{\"internalType\":\"bytes\",\"name\":\"reason\",\"type\":\"bytes\",\"indexed\":false},{\"internalType\":\"address\",\"name\":\"caller\",\"type\":\"address\",\"indexed\":false}],\"type\":\"event\",\"name\":\"ReservedDistributionReverted\",\"anonymous\":false},{\"inputs\":[{\"internalType\":\"uint256\",\"name\":\"projectId\",\"type\":\"uint256\",\"indexed\":true},{\"internalType\":\"uint256\",\"name\":\"rulesetId\",\"type\":\"uint256\",\"indexed\":true},{\"internalType\":\"uint256\",\"name\":\"group\",\"type\":\"uint256\",\"indexed\":true},{\"internalType\":\"struct JBSplit\",\"name\":\"split\",\"type\":\"tuple\",\"components\":[{\"internalType\":\"bool\",\"name\":\"preferAddToBalance\",\"type\":\"bool\"},{\"internalType\":\"uint256\",\"name\":\"percent\",\"type\":\"uint256\"},{\"internalType\":\"uint256\",\"name\":\"projectId\",\"type\":\"uint256\"},{\"internalType\":\"address payable\",\"name\":\"beneficiary\",\"type\":\"address\"},{\"internalType\":\"uint256\",\"name\":\"lockedUntil\",\"type\":\"uint256\"},{\"internalType\":\"contract IJBSplitHook\",\"name\":\"hook\",\"type\":\"address\"}],\"indexed\":false},{\"internalType\":\"uint256\",\"name\":\"tokenCount\",\"type\":\"uint256\",\"indexed\":false},{\"internalType\":\"address\",\"name\":\"caller\",\"type\":\"address\",\"indexed\":false}],\"type\":\"event\",\"name\":\"SendReservedTokensToSplit\",\"anonymous\":false},{\"inputs\":[{\"internalType\":\"uint256\",\"name\":\"rulesetId\",\"type\":\"uint256\",\"indexed\":true},{\"internalType\":\"uint256\",\"name\":\"rulesetCycleNumber\",\"type\":\"uint256\",\"indexed\":true},{\"internalType\":\"uint256\",\"name\":\"projectId\",\"type\":\"uint256\",\"indexed\":true},{\"internalType\":\"address\",\"name\":\"beneficiary\",\"type\":\"address\",\"indexed\":false},{\"internalType\":\"uint256\",\"name\":\"tokenCount\",\"type\":\"uint256\",\"indexed\":false},{\"internalType\":\"uint256\",\"name\":\"beneficiaryTokenCount\",\"type\":\"uint256\",\"indexed\":false},{\"internalType\":\"address\",\"name\":\"caller\",\"type\":\"address\",\"indexed\":false}],\"type\":\"event\",\"name\":\"SendReservedTokensToSplits\",\"anonymous\":false},{\"inputs\":[{\"internalType\":\"uint256\",\"name\":\"projectId\",\"type\":\"uint256\",\"indexed\":true},{\"internalType\":\"string\",\"name\":\"metadata\",\"type\":\"string\",\"indexed\":false},{\"internalType\":\"address\",\"name\":\"caller\",\"type\":\"address\",\"indexed\":false}],\"type\":\"event\",\"name\":\"SetMetadata\",\"anonymous\":false},{\"inputs\":[],\"stateMutability\":\"view\",\"type\":\"function\",\"name\":\"DIRECTORY\",\"outputs\":[{\"internalType\":\"contract IJBDirectory\",\"name\":\"\",\"type\":\"address\"}]},{\"inputs\":[],\"stateMutability\":\"view\",\"type\":\"function\",\"name\":\"FUND_ACCESS_LIMITS\",\"outputs\":[{\"internalType\":\"contract IJBFundAccessLimits\",\"name\":\"\",\"type\":\"address\"}]},{\"inputs\":[],\"stateMutability\":\"view\",\"type\":\"function\",\"name\":\"PERMISSIONS\",\"outputs\":[{\"internalType\":\"contract IJBPermissions\",\"name\":\"\",\"type\":\"address\"}]},{\"inputs\":[],\"stateMutability\":\"view\",\"type\":\"function\",\"name\":\"PROJECTS\",\"outputs\":[{\"internalType\":\"contract IJBProjects\",\"name\":\"\",\"type\":\"address\"}]},{\"inputs\":[],\"stateMutability\":\"view\",\"type\":\"function\",\"name\":\"RULESETS\",\"outputs\":[{\"internalType\":\"contract IJBRulesets\",\"name\":\"\",\"type\":\"address\"}]},{\"inputs\":[],\"stateMutability\":\"view\",\"type\":\"function\",\"name\":\"SPLITS\",\"outputs\":[{\"internalType\":\"contract IJBSplits\",\"name\":\"\",\"type\":\"address\"}]},{\"inputs\":[],\"stateMutability\":\"view\",\"type\":\"function\",\"name\":\"TOKENS\",\"outputs\":[{\"internalType\":\"contract IJBTokens\",\"name\":\"\",\"type\":\"address\"}]},{\"inputs\":[{\"internalType\":\"address\",\"name\":\"holder\",\"type\":\"address\"},{\"internalType\":\"uint256\",\"name\":\"projectId\",\"type\":\"uint256\"},{\"internalType\":\"uint256\",\"name\":\"tokenCount\",\"type\":\"uint256\"},{\"internalType\":\"string\",\"name\":\"memo\",\"type\":\"string\"}],\"stateMutability\":\"nonpayable\",\"type\":\"function\",\"name\":\"burnTokensOf\"},{\"inputs\":[{\"internalType\":\"address\",\"name\":\"holder\",\"type\":\"address\"},{\"internalType\":\"uint256\",\"name\":\"projectId\",\"type\":\"uint256\"},{\"internalType\":\"uint256\",\"name\":\"amount\",\"type\":\"uint256\"},{\"internalType\":\"address\",\"name\":\"beneficiary\",\"type\":\"address\"}],\"stateMutability\":\"nonpayable\",\"type\":\"function\",\"name\":\"claimTokensFor\"},{\"inputs\":[{\"internalType\":\"uint256\",\"name\":\"projectId\",\"type\":\"uint256\"}],\"stateMutability\":\"view\",\"type\":\"function\",\"name\":\"currentRulesetOf\",\"outputs\":[{\"internalType\":\"struct JBRuleset\",\"name\":\"ruleset\",\"type\":\"tuple\",\"components\":[{\"internalType\":\"uint256\",\"name\":\"cycleNumber\",\"type\":\"uint256\"},{\"internalType\":\"uint256\",\"name\":\"id\",\"type\":\"uint256\"},{\"internalType\":\"uint256\",\"name\":\"basedOnId\",\"type\":\"uint256\"},{\"internalType\":\"uint256\",\"name\":\"start\",\"type\":\"uint256\"},{\"internalType\":\"uint256\",\"name\":\"duration\",\"type\":\"uint256\"},{\"internalType\":\"uint256\",\"name\":\"weight\",\"type\":\"uint256\"},{\"internalType\":\"uint256\",\"name\":\"decayRate\",\"type\":\"uint256\"},{\"internalType\":\"contract IJBRulesetApprovalHook\",\"name\":\"approvalHook\",\"type\":\"address\"},{\"internalType\":\"uint256\",\"name\":\"metadata\",\"type\":\"uint256\"}]},{\"internalType\":\"struct JBRulesetMetadata\",\"name\":\"metadata\",\"type\":\"tuple\",\"components\":[{\"internalType\":\"uint256\",\"name\":\"reservedRate\",\"type\":\"uint256\"},{\"internalType\":\"uint256\",\"name\":\"redemptionRate\",\"type\":\"uint256\"},{\"internalType\":\"uint256\",\"name\":\"baseCurrency\",\"type\":\"uint256\"},{\"internalType\":\"bool\",\"name\":\"pausePay\",\"type\":\"bool\"},{\"internalType\":\"bool\",\"name\":\"pauseCreditTransfers\",\"type\":\"bool\"},{\"internalType\":\"bool\",\"name\":\"allowOwnerMinting\",\"type\":\"bool\"},{\"internalType\":\"bool\",\"name\":\"allowTerminalMigration\",\"type\":\"bool\"},{\"internalType\":\"bool\",\"name\":\"allowSetTerminals\",\"type\":\"bool\"},{\"internalType\":\"bool\",\"name\":\"allowControllerMigration\",\"type\":\"bool\"},{\"internalType\":\"bool\",\"name\":\"allowSetController\",\"type\":\"bool\"},{\"internalType\":\"bool\",\"name\":\"holdFees\",\"type\":\"bool\"},{\"internalType\":\"bool\",\"name\":\"useTotalSurplusForRedemptions\",\"type\":\"bool\"},{\"internalType\":\"bool\",\"name\":\"useDataHookForPay\",\"type\":\"bool\"},{\"internalType\":\"bool\",\"name\":\"useDataHookForRedeem\",\"type\":\"bool\"},{\"internalType\":\"address\",\"name\":\"dataHook\",\"type\":\"address\"},{\"internalType\":\"uint256\",\"name\":\"metadata\",\"type\":\"uint256\"}]}]},{\"inputs\":[{\"internalType\":\"uint256\",\"name\":\"projectId\",\"type\":\"uint256\"},{\"internalType\":\"string\",\"name\":\"name\",\"type\":\"string\"},{\"internalType\":\"string\",\"name\":\"symbol\",\"type\":\"string\"},{\"internalType\":\"bytes32\",\"name\":\"salt\",\"type\":\"bytes32\"}],\"stateMutability\":\"nonpayable\",\"type\":\"function\",\"name\":\"deployERC20For\",\"outputs\":[{\"internalType\":\"contract IJBToken\",\"name\":\"token\",\"type\":\"address\"}]},{\"inputs\":[{\"internalType\":\"uint256\",\"name\":\"projectId\",\"type\":\"uint256\"},{\"internalType\":\"uint256\",\"name\":\"rulesetId\",\"type\":\"uint256\"}],\"stateMutability\":\"view\",\"type\":\"function\",\"name\":\"getRulesetOf\",\"outputs\":[{\"internalType\":\"struct JBRuleset\",\"name\":\"ruleset\",\"type\":\"tuple\",\"components\":[{\"internalType\":\"uint256\",\"name\":\"cycleNumber\",\"type\":\"uint256\"},{\"internalType\":\"uint256\",\"name\":\"id\",\"type\":\"uint256\"},{\"internalType\":\"uint256\",\"name\":\"basedOnId\",\"type\":\"uint256\"},{\"internalType\":\"uint256\",\"name\":\"start\",\"type\":\"uint256\"},{\"internalType\":\"uint256\",\"name\":\"duration\",\"type\":\"uint256\"},{\"internalType\":\"uint256\",\"name\":\"weight\",\"type\":\"uint256\"},{\"internalType\":\"uint256\",\"name\":\"decayRate\",\"type\":\"uint256\"},{\"internalType\":\"contract IJBRulesetApprovalHook\",\"name\":\"approvalHook\",\"type\":\"address\"},{\"internalType\":\"uint256\",\"name\":\"metadata\",\"type\":\"uint256\"}]},{\"internalType\":\"struct JBRulesetMetadata\",\"name\":\"metadata\",\"type\":\"tuple\",\"components\":[{\"internalType\":\"uint256\",\"name\":\"reservedRate\",\"type\":\"uint256\"},{\"internalType\":\"uint256\",\"name\":\"redemptionRate\",\"type\":\"uint256\"},{\"internalType\":\"uint256\",\"name\":\"baseCurrency\",\"type\":\"uint256\"},{\"internalType\":\"bool\",\"name\":\"pausePay\",\"type\":\"bool\"},{\"internalType\":\"bool\",\"name\":\"pauseCreditTransfers\",\"type\":\"bool\"},{\"internalType\":\"bool\",\"name\":\"allowOwnerMinting\",\"type\":\"bool\"},{\"internalType\":\"bool\",\"name\":\"allowTerminalMigration\",\"type\":\"bool\"},{\"internalType\":\"bool\",\"name\":\"allowSetTerminals\",\"type\":\"bool\"},{\"internalType\":\"bool\",\"name\":\"allowControllerMigration\",\"type\":\"bool\"},{\"internalType\":\"bool\",\"name\":\"allowSetController\",\"type\":\"bool\"},{\"internalType\":\"bool\",\"name\":\"holdFees\",\"type\":\"bool\"},{\"internalType\":\"bool\",\"name\":\"useTotalSurplusForRedemptions\",\"type\":\"bool\"},{\"internalType\":\"bool\",\"name\":\"useDataHookForPay\",\"type\":\"bool\"},{\"internalType\":\"bool\",\"name\":\"useDataHookForRedeem\",\"type\":\"bool\"},{\"internalType\":\"address\",\"name\":\"dataHook\",\"type\":\"address\"},{\"internalType\":\"uint256\",\"name\":\"metadata\",\"type\":\"uint256\"}]}]},{\"inputs\":[{\"internalType\":\"address\",\"name\":\"forwarder\",\"type\":\"address\"}],\"stateMutability\":\"view\",\"type\":\"function\",\"name\":\"isTrustedForwarder\",\"outputs\":[{\"internalType\":\"bool\",\"name\":\"\",\"type\":\"bool\"}]},{\"inputs\":[{\"internalType\":\"uint256\",\"name\":\"projectId\",\"type\":\"uint256\"}],\"stateMutability\":\"view\",\"type\":\"function\",\"name\":\"latestQueuedRulesetOf\",\"outputs\":[{\"internalType\":\"struct JBRuleset\",\"name\":\"ruleset\",\"type\":\"tuple\",\"components\":[{\"internalType\":\"uint256\",\"name\":\"cycleNumber\",\"type\":\"uint256\"},{\"internalType\":\"uint256\",\"name\":\"id\",\"type\":\"uint256\"},{\"internalType\":\"uint256\",\"name\":\"basedOnId\",\"type\":\"uint256\"},{\"internalType\":\"uint256\",\"name\":\"start\",\"type\":\"uint256\"},{\"internalType\":\"uint256\",\"name\":\"duration\",\"type\":\"uint256\"},{\"internalType\":\"uint256\",\"name\":\"weight\",\"type\":\"uint256\"},{\"internalType\":\"uint256\",\"name\":\"decayRate\",\"type\":\"uint256\"},{\"internalType\":\"contract IJBRulesetApprovalHook\",\"name\":\"approvalHook\",\"type\":\"address\"},{\"internalType\":\"uint256\",\"name\":\"metadata\",\"type\":\"uint256\"}]},{\"internalType\":\"struct JBRulesetMetadata\",\"name\":\"metadata\",\"type\":\"tuple\",\"components\":[{\"internalType\":\"uint256\",\"name\":\"reservedRate\",\"type\":\"uint256\"},{\"internalType\":\"uint256\",\"name\":\"redemptionRate\",\"type\":\"uint256\"},{\"internalType\":\"uint256\",\"name\":\"baseCurrency\",\"type\":\"uint256\"},{\"internalType\":\"bool\",\"name\":\"pausePay\",\"type\":\"bool\"},{\"internalType\":\"bool\",\"name\":\"pauseCreditTransfers\",\"type\":\"bool\"},{\"internalType\":\"bool\",\"name\":\"allowOwnerMinting\",\"type\":\"bool\"},{\"internalType\":\"bool\",\"name\":\"allowTerminalMigration\",\"type\":\"bool\"},{\"internalType\":\"bool\",\"name\":\"allowSetTerminals\",\"type\":\"bool\"},{\"internalType\":\"bool\",\"name\":\"allowControllerMigration\",\"type\":\"bool\"},{\"internalType\":\"bool\",\"name\":\"allowSetController\",\"type\":\"bool\"},{\"internalType\":\"bool\",\"name\":\"holdFees\",\"type\":\"bool\"},{\"internalType\":\"bool\",\"name\":\"useTotalSurplusForRedemptions\",\"type\":\"bool\"},{\"internalType\":\"bool\",\"name\":\"useDataHookForPay\",\"type\":\"bool\"},{\"internalType\":\"bool\",\"name\":\"useDataHookForRedeem\",\"type\":\"bool\"},{\"internalType\":\"address\",\"name\":\"dataHook\",\"type\":\"address\"},{\"internalType\":\"uint256\",\"name\":\"metadata\",\"type\":\"uint256\"}]},{\"internalType\":\"enum JBApprovalStatus\",\"name\":\"approvalStatus\",\"type\":\"uint8\"}]},{\"inputs\":[{\"internalType\":\"address\",\"name\":\"owner\",\"type\":\"address\"},{\"internalType\":\"string\",\"name\":\"projectUri\",\"type\":\"string\"},{\"internalType\":\"struct JBRulesetConfig[]\",\"name\":\"rulesetConfigurations\",\"type\":\"tuple[]\",\"components\":[{\"internalType\":\"uint256\",\"name\":\"mustStartAtOrAfter\",\"type\":\"uint256\"},{\"internalType\":\"uint256\",\"name\":\"duration\",\"type\":\"uint256\"},{\"internalType\":\"uint256\",\"name\":\"weight\",\"type\":\"uint256\"},{\"internalType\":\"uint256\",\"name\":\"decayRate\",\"type\":\"uint256\"},{\"internalType\":\"contract IJBRulesetApprovalHook\",\"name\":\"approvalHook\",\"type\":\"address\"},{\"internalType\":\"struct JBRulesetMetadata\",\"name\":\"metadata\",\"type\":\"tuple\",\"components\":[{\"internalType\":\"uint256\",\"name\":\"reservedRate\",\"type\":\"uint256\"},{\"internalType\":\"uint256\",\"name\":\"redemptionRate\",\"type\":\"uint256\"},{\"internalType\":\"uint256\",\"name\":\"baseCurrency\",\"type\":\"uint256\"},{\"internalType\":\"bool\",\"name\":\"pausePay\",\"type\":\"bool\"},{\"internalType\":\"bool\",\"name\":\"pauseCreditTransfers\",\"type\":\"bool\"},{\"internalType\":\"bool\",\"name\":\"allowOwnerMinting\",\"type\":\"bool\"},{\"internalType\":\"bool\",\"name\":\"allowTerminalMigration\",\"type\":\"bool\"},{\"internalType\":\"bool\",\"name\":\"allowSetTerminals\",\"type\":\"bool\"},{\"internalType\":\"bool\",\"name\":\"allowControllerMigration\",\"type\":\"bool\"},{\"internalType\":\"bool\",\"name\":\"allowSetController\",\"type\":\"bool\"},{\"internalType\":\"bool\",\"name\":\"holdFees\",\"type\":\"bool\"},{\"internalType\":\"bool\",\"name\":\"useTotalSurplusForRedemptions\",\"type\":\"bool\"},{\"internalType\":\"bool\",\"name\":\"useDataHookForPay\",\"type\":\"bool\"},{\"internalType\":\"bool\",\"name\":\"useDataHookForRedeem\",\"type\":\"bool\"},{\"internalType\":\"address\",\"name\":\"dataHook\",\"type\":\"address\"},{\"internalType\":\"uint256\",\"name\":\"metadata\",\"type\":\"uint256\"}]},{\"internalType\":\"struct JBSplitGroup[]\",\"name\":\"splitGroups\",\"type\":\"tuple[]\",\"components\":[{\"internalType\":\"uint256\",\"name\":\"groupId\",\"type\":\"uint256\"},{\"internalType\":\"struct JBSplit[]\",\"name\":\"splits\",\"type\":\"tuple[]\",\"components\":[{\"internalType\":\"bool\",\"name\":\"preferAddToBalance\",\"type\":\"bool\"},{\"internalType\":\"uint256\",\"name\":\"percent\",\"type\":\"uint256\"},{\"internalType\":\"uint256\",\"name\":\"projectId\",\"type\":\"uint256\"},{\"internalType\":\"address payable\",\"name\":\"beneficiary\",\"type\":\"address\"},{\"internalType\":\"uint256\",\"name\":\"lockedUntil\",\"type\":\"uint256\"},{\"internalType\":\"contract IJBSplitHook\",\"name\":\"hook\",\"type\":\"address\"}]}]},{\"internalType\":\"struct JBFundAccessLimitGroup[]\",\"name\":\"fundAccessLimitGroups\",\"type\":\"tuple[]\",\"components\":[{\"internalType\":\"address\",\"name\":\"terminal\",\"type\":\"address\"},{\"internalType\":\"address\",\"name\":\"token\",\"type\":\"address\"},{\"internalType\":\"struct JBCurrencyAmount[]\",\"name\":\"payoutLimits\",\"type\":\"tuple[]\",\"components\":[{\"internalType\":\"uint256\",\"name\":\"amount\",\"type\":\"uint256\"},{\"internalType\":\"uint256\",\"name\":\"currency\",\"type\":\"uint256\"}]},{\"internalType\":\"struct JBCurrencyAmount[]\",\"name\":\"surplusAllowances\",\"type\":\"tuple[]\",\"components\":[{\"internalType\":\"uint256\",\"name\":\"amount\",\"type\":\"uint256\"},{\"internalType\":\"uint256\",\"name\":\"currency\",\"type\":\"uint256\"}]}]}]},{\"internalType\":\"struct JBTerminalConfig[]\",\"name\":\"terminalConfigurations\",\"type\":\"tuple[]\",\"components\":[{\"internalType\":\"contract IJBTerminal\",\"name\":\"terminal\",\"type\":\"address\"},{\"internalType\":\"address[]\",\"name\":\"tokensToAccept\",\"type\":\"address[]\"}]},{\"internalType\":\"string\",\"name\":\"memo\",\"type\":\"string\"}],\"stateMutability\":\"nonpayable\",\"type\":\"function\",\"name\":\"launchProjectFor\",\"outputs\":[{\"internalType\":\"uint256\",\"name\":\"projectId\",\"type\":\"uint256\"}]},{\"inputs\":[{\"internalType\":\"uint256\",\"name\":\"projectId\",\"type\":\"uint256\"},{\"internalType\":\"struct JBRulesetConfig[]\",\"name\":\"rulesetConfigurations\",\"type\":\"tuple[]\",\"components\":[{\"internalType\":\"uint256\",\"name\":\"mustStartAtOrAfter\",\"type\":\"uint256\"},{\"internalType\":\"uint256\",\"name\":\"duration\",\"type\":\"uint256\"},{\"internalType\":\"uint256\",\"name\":\"weight\",\"type\":\"uint256\"},{\"internalType\":\"uint256\",\"name\":\"decayRate\",\"type\":\"uint256\"},{\"internalType\":\"contract IJBRulesetApprovalHook\",\"name\":\"approvalHook\",\"type\":\"address\"},{\"internalType\":\"struct JBRulesetMetadata\",\"name\":\"metadata\",\"type\":\"tuple\",\"components\":[{\"internalType\":\"uint256\",\"name\":\"reservedRate\",\"type\":\"uint256\"},{\"internalType\":\"uint256\",\"name\":\"redemptionRate\",\"type\":\"uint256\"},{\"internalType\":\"uint256\",\"name\":\"baseCurrency\",\"type\":\"uint256\"},{\"internalType\":\"bool\",\"name\":\"pausePay\",\"type\":\"bool\"},{\"internalType\":\"bool\",\"name\":\"pauseCreditTransfers\",\"type\":\"bool\"},{\"internalType\":\"bool\",\"name\":\"allowOwnerMinting\",\"type\":\"bool\"},{\"internalType\":\"bool\",\"name\":\"allowTerminalMigration\",\"type\":\"bool\"},{\"internalType\":\"bool\",\"name\":\"allowSetTerminals\",\"type\":\"bool\"},{\"internalType\":\"bool\",\"name\":\"allowControllerMigration\",\"type\":\"bool\"},{\"internalType\":\"bool\",\"name\":\"allowSetController\",\"type\":\"bool\"},{\"internalType\":\"bool\",\"name\":\"holdFees\",\"type\":\"bool\"},{\"internalType\":\"bool\",\"name\":\"useTotalSurplusForRedemptions\",\"type\":\"bool\"},{\"internalType\":\"bool\",\"name\":\"useDataHookForPay\",\"type\":\"bool\"},{\"internalType\":\"bool\",\"name\":\"useDataHookForRedeem\",\"type\":\"bool\"},{\"internalType\":\"address\",\"name\":\"dataHook\",\"type\":\"address\"},{\"internalType\":\"uint256\",\"name\":\"metadata\",\"type\":\"uint256\"}]},{\"internalType\":\"struct JBSplitGroup[]\",\"name\":\"splitGroups\",\"type\":\"tuple[]\",\"components\":[{\"internalType\":\"uint256\",\"name\":\"groupId\",\"type\":\"uint256\"},{\"internalType\":\"struct JBSplit[]\",\"name\":\"splits\",\"type\":\"tuple[]\",\"components\":[{\"internalType\":\"bool\",\"name\":\"preferAddToBalance\",\"type\":\"bool\"},{\"internalType\":\"uint256\",\"name\":\"percent\",\"type\":\"uint256\"},{\"internalType\":\"uint256\",\"name\":\"projectId\",\"type\":\"uint256\"},{\"internalType\":\"address payable\",\"name\":\"beneficiary\",\"type\":\"address\"},{\"internalType\":\"uint256\",\"name\":\"lockedUntil\",\"type\":\"uint256\"},{\"internalType\":\"contract IJBSplitHook\",\"name\":\"hook\",\"type\":\"address\"}]}]},{\"internalType\":\"struct JBFundAccessLimitGroup[]\",\"name\":\"fundAccessLimitGroups\",\"type\":\"tuple[]\",\"components\":[{\"internalType\":\"address\",\"name\":\"terminal\",\"type\":\"address\"},{\"internalType\":\"address\",\"name\":\"token\",\"type\":\"address\"},{\"internalType\":\"struct JBCurrencyAmount[]\",\"name\":\"payoutLimits\",\"type\":\"tuple[]\",\"components\":[{\"internalType\":\"uint256\",\"name\":\"amount\",\"type\":\"uint256\"},{\"internalType\":\"uint256\",\"name\":\"currency\",\"type\":\"uint256\"}]},{\"internalType\":\"struct JBCurrencyAmount[]\",\"name\":\"surplusAllowances\",\"type\":\"tuple[]\",\"components\":[{\"internalType\":\"uint256\",\"name\":\"amount\",\"type\":\"uint256\"},{\"internalType\":\"uint256\",\"name\":\"currency\",\"type\":\"uint256\"}]}]}]},{\"internalType\":\"struct JBTerminalConfig[]\",\"name\":\"terminalConfigurations\",\"type\":\"tuple[]\",\"components\":[{\"internalType\":\"contract IJBTerminal\",\"name\":\"terminal\",\"type\":\"address\"},{\"internalType\":\"address[]\",\"name\":\"tokensToAccept\",\"type\":\"address[]\"}]},{\"internalType\":\"string\",\"name\":\"memo\",\"type\":\"string\"}],\"stateMutability\":\"nonpayable\",\"type\":\"function\",\"name\":\"launchRulesetsFor\",\"outputs\":[{\"internalType\":\"uint256\",\"name\":\"rulesetId\",\"type\":\"uint256\"}]},{\"inputs\":[{\"internalType\":\"uint256\",\"name\":\"projectId\",\"type\":\"uint256\"},{\"internalType\":\"contract IJBMigratable\",\"name\":\"to\",\"type\":\"address\"}],\"stateMutability\":\"nonpayable\",\"type\":\"function\",\"name\":\"migrateController\"},{\"inputs\":[{\"internalType\":\"uint256\",\"name\":\"projectId\",\"type\":\"uint256\"},{\"internalType\":\"uint256\",\"name\":\"tokenCount\",\"type\":\"uint256\"},{\"internalType\":\"address\",\"name\":\"beneficiary\",\"type\":\"address\"},{\"internalType\":\"string\",\"name\":\"memo\",\"type\":\"string\"},{\"internalType\":\"bool\",\"name\":\"useReservedRate\",\"type\":\"bool\"}],\"stateMutability\":\"nonpayable\",\"type\":\"function\",\"name\":\"mintTokensOf\",\"outputs\":[{\"internalType\":\"uint256\",\"name\":\"beneficiaryTokenCount\",\"type\":\"uint256\"}]},{\"inputs\":[{\"internalType\":\"contract IJBTerminal\",\"name\":\"terminal\",\"type\":\"address\"},{\"internalType\":\"uint256\",\"name\":\"projectId\",\"type\":\"uint256\"},{\"internalType\":\"contract IJBToken\",\"name\":\"token\",\"type\":\"address\"},{\"internalType\":\"uint256\",\"name\":\"splitAmount\",\"type\":\"uint256\"},{\"internalType\":\"address\",\"name\":\"beneficiary\",\"type\":\"address\"},{\"internalType\":\"bytes\",\"name\":\"metadata\",\"type\":\"bytes\"}],\"stateMutability\":\"nonpayable\",\"type\":\"function\",\"name\":\"payReservedTokenToTerminal\"},{\"inputs\":[{\"internalType\":\"uint256\",\"name\":\"projectId\",\"type\":\"uint256\"}],\"stateMutability\":\"view\",\"type\":\"function\",\"name\":\"pendingReservedTokenBalanceOf\",\"outputs\":[{\"internalType\":\"uint256\",\"name\":\"\",\"type\":\"uint256\"}]},{\"inputs\":[{\"internalType\":\"uint256\",\"name\":\"projectId\",\"type\":\"uint256\"},{\"internalType\":\"struct JBRulesetConfig[]\",\"name\":\"rulesetConfigurations\",\"type\":\"tuple[]\",\"components\":[{\"internalType\":\"uint256\",\"name\":\"mustStartAtOrAfter\",\"type\":\"uint256\"},{\"internalType\":\"uint256\",\"name\":\"duration\",\"type\":\"uint256\"},{\"internalType\":\"uint256\",\"name\":\"weight\",\"type\":\"uint256\"},{\"internalType\":\"uint256\",\"name\":\"decayRate\",\"type\":\"uint256\"},{\"internalType\":\"contract IJBRulesetApprovalHook\",\"name\":\"approvalHook\",\"type\":\"address\"},{\"internalType\":\"struct JBRulesetMetadata\",\"name\":\"metadata\",\"type\":\"tuple\",\"components\":[{\"internalType\":\"uint256\",\"name\":\"reservedRate\",\"type\":\"uint256\"},{\"internalType\":\"uint256\",\"name\":\"redemptionRate\",\"type\":\"uint256\"},{\"internalType\":\"uint256\",\"name\":\"baseCurrency\",\"type\":\"uint256\"},{\"internalType\":\"bool\",\"name\":\"pausePay\",\"type\":\"bool\"},{\"internalType\":\"bool\",\"name\":\"pauseCreditTransfers\",\"type\":\"bool\"},{\"internalType\":\"bool\",\"name\":\"allowOwnerMinting\",\"type\":\"bool\"},{\"internalType\":\"bool\",\"name\":\"allowTerminalMigration\",\"type\":\"bool\"},{\"internalType\":\"bool\",\"name\":\"allowSetTerminals\",\"type\":\"bool\"},{\"internalType\":\"bool\",\"name\":\"allowControllerMigration\",\"type\":\"bool\"},{\"internalType\":\"bool\",\"name\":\"allowSetController\",\"type\":\"bool\"},{\"internalType\":\"bool\",\"name\":\"holdFees\",\"type\":\"bool\"},{\"internalType\":\"bool\",\"name\":\"useTotalSurplusForRedemptions\",\"type\":\"bool\"},{\"internalType\":\"bool\",\"name\":\"useDataHookForPay\",\"type\":\"bool\"},{\"internalType\":\"bool\",\"name\":\"useDataHookForRedeem\",\"type\":\"bool\"},{\"internalType\":\"address\",\"name\":\"dataHook\",\"type\":\"address\"},{\"internalType\":\"uint256\",\"name\":\"metadata\",\"type\":\"uint256\"}]},{\"internalType\":\"struct JBSplitGroup[]\",\"name\":\"splitGroups\",\"type\":\"tuple[]\",\"components\":[{\"internalType\":\"uint256\",\"name\":\"groupId\",\"type\":\"uint256\"},{\"internalType\":\"struct JBSplit[]\",\"name\":\"splits\",\"type\":\"tuple[]\",\"components\":[{\"internalType\":\"bool\",\"name\":\"preferAddToBalance\",\"type\":\"bool\"},{\"internalType\":\"uint256\",\"name\":\"percent\",\"type\":\"uint256\"},{\"internalType\":\"uint256\",\"name\":\"projectId\",\"type\":\"uint256\"},{\"internalType\":\"address payable\",\"name\":\"beneficiary\",\"type\":\"address\"},{\"internalType\":\"uint256\",\"name\":\"lockedUntil\",\"type\":\"uint256\"},{\"internalType\":\"contract IJBSplitHook\",\"name\":\"hook\",\"type\":\"address\"}]}]},{\"internalType\":\"struct JBFundAccessLimitGroup[]\",\"name\":\"fundAccessLimitGroups\",\"type\":\"tuple[]\",\"components\":[{\"internalType\":\"address\",\"name\":\"terminal\",\"type\":\"address\"},{\"internalType\":\"address\",\"name\":\"token\",\"type\":\"address\"},{\"internalType\":\"struct JBCurrencyAmount[]\",\"name\":\"payoutLimits\",\"type\":\"tuple[]\",\"components\":[{\"internalType\":\"uint256\",\"name\":\"amount\",\"type\":\"uint256\"},{\"internalType\":\"uint256\",\"name\":\"currency\",\"type\":\"uint256\"}]},{\"internalType\":\"struct JBCurrencyAmount[]\",\"name\":\"surplusAllowances\",\"type\":\"tuple[]\",\"components\":[{\"internalType\":\"uint256\",\"name\":\"amount\",\"type\":\"uint256\"},{\"internalType\":\"uint256\",\"name\":\"currency\",\"type\":\"uint256\"}]}]}]},{\"internalType\":\"string\",\"name\":\"memo\",\"type\":\"string\"}],\"stateMutability\":\"nonpayable\",\"type\":\"function\",\"name\":\"queueRulesetsOf\",\"outputs\":[{\"internalType\":\"uint256\",\"name\":\"rulesetId\",\"type\":\"uint256\"}]},{\"inputs\":[{\"internalType\":\"contract IERC165\",\"name\":\"from\",\"type\":\"address\"},{\"internalType\":\"uint256\",\"name\":\"projectId\",\"type\":\"uint256\"}],\"stateMutability\":\"nonpayable\",\"type\":\"function\",\"name\":\"receiveMigrationFrom\"},{\"inputs\":[{\"internalType\":\"uint256\",\"name\":\"projectId\",\"type\":\"uint256\"},{\"internalType\":\"uint256\",\"name\":\"startingId\",\"type\":\"uint256\"},{\"internalType\":\"uint256\",\"name\":\"size\",\"type\":\"uint256\"}],\"stateMutability\":\"view\",\"type\":\"function\",\"name\":\"rulesetsOf\",\"outputs\":[{\"internalType\":\"struct JBRulesetWithMetadata[]\",\"name\":\"rulesets\",\"type\":\"tuple[]\",\"components\":[{\"internalType\":\"struct JBRuleset\",\"name\":\"ruleset\",\"type\":\"tuple\",\"components\":[{\"internalType\":\"uint256\",\"name\":\"cycleNumber\",\"type\":\"uint256\"},{\"internalType\":\"uint256\",\"name\":\"id\",\"type\":\"uint256\"},{\"internalType\":\"uint256\",\"name\":\"basedOnId\",\"type\":\"uint256\"},{\"internalType\":\"uint256\",\"name\":\"start\",\"type\":\"uint256\"},{\"internalType\":\"uint256\",\"name\":\"duration\",\"type\":\"uint256\"},{\"internalType\":\"uint256\",\"name\":\"weight\",\"type\":\"uint256\"},{\"internalType\":\"uint256\",\"name\":\"decayRate\",\"type\":\"uint256\"},{\"internalType\":\"contract IJBRulesetApprovalHook\",\"name\":\"approvalHook\",\"type\":\"address\"},{\"internalType\":\"uint256\",\"name\":\"metadata\",\"type\":\"uint256\"}]},{\"internalType\":\"struct JBRulesetMetadata\",\"name\":\"metadata\",\"type\":\"tuple\",\"components\":[{\"internalType\":\"uint256\",\"name\":\"reservedRate\",\"type\":\"uint256\"},{\"internalType\":\"uint256\",\"name\":\"redemptionRate\",\"type\":\"uint256\"},{\"internalType\":\"uint256\",\"name\":\"baseCurrency\",\"type\":\"uint256\"},{\"internalType\":\"bool\",\"name\":\"pausePay\",\"type\":\"bool\"},{\"internalType\":\"bool\",\"name\":\"pauseCreditTransfers\",\"type\":\"bool\"},{\"internalType\":\"bool\",\"name\":\"allowOwnerMinting\",\"type\":\"bool\"},{\"internalType\":\"bool\",\"name\":\"allowTerminalMigration\",\"type\":\"bool\"},{\"internalType\":\"bool\",\"name\":\"allowSetTerminals\",\"type\":\"bool\"},{\"internalType\":\"bool\",\"name\":\"allowControllerMigration\",\"type\":\"bool\"},{\"internalType\":\"bool\",\"name\":\"allowSetController\",\"type\":\"bool\"},{\"internalType\":\"bool\",\"name\":\"holdFees\",\"type\":\"bool\"},{\"internalType\":\"bool\",\"name\":\"useTotalSurplusForRedemptions\",\"type\":\"bool\"},{\"internalType\":\"bool\",\"name\":\"useDataHookForPay\",\"type\":\"bool\"},{\"internalType\":\"bool\",\"name\":\"useDataHookForRedeem\",\"type\":\"bool\"},{\"internalType\":\"address\",\"name\":\"dataHook\",\"type\":\"address\"},{\"internalType\":\"uint256\",\"name\":\"metadata\",\"type\":\"uint256\"}]}]}]},{\"inputs\":[{\"internalType\":\"uint256\",\"name\":\"projectId\",\"type\":\"uint256\"}],\"stateMutability\":\"nonpayable\",\"type\":\"function\",\"name\":\"sendReservedTokensToSplitsOf\",\"outputs\":[{\"internalType\":\"uint256\",\"name\":\"\",\"type\":\"uint256\"}]},{\"inputs\":[{\"internalType\":\"uint256\",\"name\":\"projectId\",\"type\":\"uint256\"}],\"stateMutability\":\"view\",\"type\":\"function\",\"name\":\"setControllerAllowed\",\"outputs\":[{\"internalType\":\"bool\",\"name\":\"\",\"type\":\"bool\"}]},{\"inputs\":[{\"internalType\":\"uint256\",\"name\":\"projectId\",\"type\":\"uint256\"},{\"internalType\":\"uint256\",\"name\":\"rulesetId\",\"type\":\"uint256\"},{\"internalType\":\"struct JBSplitGroup[]\",\"name\":\"splitGroups\",\"type\":\"tuple[]\",\"components\":[{\"internalType\":\"uint256\",\"name\":\"groupId\",\"type\":\"uint256\"},{\"internalType\":\"struct JBSplit[]\",\"name\":\"splits\",\"type\":\"tuple[]\",\"components\":[{\"internalType\":\"bool\",\"name\":\"preferAddToBalance\",\"type\":\"bool\"},{\"internalType\":\"uint256\",\"name\":\"percent\",\"type\":\"uint256\"},{\"internalType\":\"uint256\",\"name\":\"projectId\",\"type\":\"uint256\"},{\"internalType\":\"address payable\",\"name\":\"beneficiary\",\"type\":\"address\"},{\"internalType\":\"uint256\",\"name\":\"lockedUntil\",\"type\":\"uint256\"},{\"internalType\":\"contract IJBSplitHook\",\"name\":\"hook\",\"type\":\"address\"}]}]}],\"stateMutability\":\"nonpayable\",\"type\":\"function\",\"name\":\"setSplitGroupsOf\"},{\"inputs\":[{\"internalType\":\"uint256\",\"name\":\"projectId\",\"type\":\"uint256\"}],\"stateMutability\":\"view\",\"type\":\"function\",\"name\":\"setTerminalsAllowed\",\"outputs\":[{\"internalType\":\"bool\",\"name\":\"\",\"type\":\"bool\"}]},{\"inputs\":[{\"internalType\":\"uint256\",\"name\":\"projectId\",\"type\":\"uint256\"},{\"internalType\":\"contract IJBToken\",\"name\":\"token\",\"type\":\"address\"}],\"stateMutability\":\"nonpayable\",\"type\":\"function\",\"name\":\"setTokenFor\"},{\"inputs\":[{\"internalType\":\"uint256\",\"name\":\"projectId\",\"type\":\"uint256\"},{\"internalType\":\"string\",\"name\":\"metadata\",\"type\":\"string\"}],\"stateMutability\":\"nonpayable\",\"type\":\"function\",\"name\":\"setUriOf\"},{\"inputs\":[{\"internalType\":\"bytes4\",\"name\":\"interfaceId\",\"type\":\"bytes4\"}],\"stateMutability\":\"view\",\"type\":\"function\",\"name\":\"supportsInterface\",\"outputs\":[{\"internalType\":\"bool\",\"name\":\"\",\"type\":\"bool\"}]},{\"inputs\":[{\"internalType\":\"uint256\",\"name\":\"projectId\",\"type\":\"uint256\"}],\"stateMutability\":\"view\",\"type\":\"function\",\"name\":\"totalTokenSupplyWithReservedTokensOf\",\"outputs\":[{\"internalType\":\"uint256\",\"name\":\"\",\"type\":\"uint256\"}]},{\"inputs\":[{\"internalType\":\"address\",\"name\":\"holder\",\"type\":\"address\"},{\"internalType\":\"uint256\",\"name\":\"projectId\",\"type\":\"uint256\"},{\"internalType\":\"address\",\"name\":\"recipient\",\"type\":\"address\"},{\"internalType\":\"uint256\",\"name\":\"amount\",\"type\":\"uint256\"}],\"stateMutability\":\"nonpayable\",\"type\":\"function\",\"name\":\"transferCreditsFrom\"},{\"inputs\":[],\"stateMutability\":\"view\",\"type\":\"function\",\"name\":\"trustedForwarder\",\"outputs\":[{\"internalType\":\"address\",\"name\":\"\",\"type\":\"address\"}]},{\"inputs\":[{\"internalType\":\"uint256\",\"name\":\"projectId\",\"type\":\"uint256\"}],\"stateMutability\":\"view\",\"type\":\"function\",\"name\":\"upcomingRulesetOf\",\"outputs\":[{\"internalType\":\"struct JBRuleset\",\"name\":\"ruleset\",\"type\":\"tuple\",\"components\":[{\"internalType\":\"uint256\",\"name\":\"cycleNumber\",\"type\":\"uint256\"},{\"internalType\":\"uint256\",\"name\":\"id\",\"type\":\"uint256\"},{\"internalType\":\"uint256\",\"name\":\"basedOnId\",\"type\":\"uint256\"},{\"internalType\":\"uint256\",\"name\":\"start\",\"type\":\"uint256\"},{\"internalType\":\"uint256\",\"name\":\"duration\",\"type\":\"uint256\"},{\"internalType\":\"uint256\",\"name\":\"weight\",\"type\":\"uint256\"},{\"internalType\":\"uint256\",\"name\":\"decayRate\",\"type\":\"uint256\"},{\"internalType\":\"contract IJBRulesetApprovalHook\",\"name\":\"approvalHook\",\"type\":\"address\"},{\"internalType\":\"uint256\",\"name\":\"metadata\",\"type\":\"uint256\"}]},{\"internalType\":\"struct JBRulesetMetadata\",\"name\":\"metadata\",\"type\":\"tuple\",\"components\":[{\"internalType\":\"uint256\",\"name\":\"reservedRate\",\"type\":\"uint256\"},{\"internalType\":\"uint256\",\"name\":\"redemptionRate\",\"type\":\"uint256\"},{\"internalType\":\"uint256\",\"name\":\"baseCurrency\",\"type\":\"uint256\"},{\"internalType\":\"bool\",\"name\":\"pausePay\",\"type\":\"bool\"},{\"internalType\":\"bool\",\"name\":\"pauseCreditTransfers\",\"type\":\"bool\"},{\"internalType\":\"bool\",\"name\":\"allowOwnerMinting\",\"type\":\"bool\"},{\"internalType\":\"bool\",\"name\":\"allowTerminalMigration\",\"type\":\"bool\"},{\"internalType\":\"bool\",\"name\":\"allowSetTerminals\",\"type\":\"bool\"},{\"internalType\":\"bool\",\"name\":\"allowControllerMigration\",\"type\":\"bool\"},{\"internalType\":\"bool\",\"name\":\"allowSetController\",\"type\":\"bool\"},{\"internalType\":\"bool\",\"name\":\"holdFees\",\"type\":\"bool\"},{\"internalType\":\"bool\",\"name\":\"useTotalSurplusForRedemptions\",\"type\":\"bool\"},{\"internalType\":\"bool\",\"name\":\"useDataHookForPay\",\"type\":\"bool\"},{\"internalType\":\"bool\",\"name\":\"useDataHookForRedeem\",\"type\":\"bool\"},{\"internalType\":\"address\",\"name\":\"dataHook\",\"type\":\"address\"},{\"internalType\":\"uint256\",\"name\":\"metadata\",\"type\":\"uint256\"}]}]},{\"inputs\":[{\"internalType\":\"uint256\",\"name\":\"projectId\",\"type\":\"uint256\"}],\"stateMutability\":\"view\",\"type\":\"function\",\"name\":\"uriOf\",\"outputs\":[{\"internalType\":\"string\",\"name\":\"\",\"type\":\"string\"}]}],\"devdoc\":{\"kind\":\"dev\",\"methods\":{\"burnTokensOf(address,uint256,uint256,string)\":{\"details\":\"Can only be called by the holder, an address with the holder's permission to `BURN_TOKENS`, or a project's terminal.\",\"params\":{\"holder\":\"The address whose tokens are being burned.\",\"memo\":\"A memo to pass along to the emitted event.\",\"projectId\":\"The ID of the project whose tokens are being burned.\",\"tokenCount\":\"The number of tokens to burn.\"}},\"claimTokensFor(address,uint256,uint256,address)\":{\"details\":\"Can only be called by the credit holder or an address with the holder's permission to `CLAIM_TOKENS`.\",\"params\":{\"amount\":\"The amount of tokens to claim.\",\"beneficiary\":\"The account the claimed tokens will go to.\",\"holder\":\"The address to redeem credits from.\",\"projectId\":\"The ID of the project whose tokens are being claimed.\"}},\"constructor\":{\"params\":{\"directory\":\"A contract storing directories of terminals and controllers for each project.\",\"fundAccessLimits\":\"A contract that stores fund access limits for each project.\",\"permissions\":\"A contract storing permissions.\",\"projects\":\"A contract which mints ERC-721s that represent project ownership and transfers.\",\"rulesets\":\"A contract storing and managing project rulesets.\",\"splits\":\"A contract that stores splits for each project.\",\"tokens\":\"A contract that manages token minting and burning.\"}},\"currentRulesetOf(uint256)\":{\"params\":{\"projectId\":\"The ID of the project to get the current ruleset of.\"},\"returns\":{\"metadata\":\"The current ruleset's metadata.\",\"ruleset\":\"The current ruleset's struct.\"}},\"deployERC20For(uint256,string,string,bytes32)\":{\"details\":\"Deploys the project's ERC-20 contract.Can only be called by the project's owner or an address with the owner's permission to `DEPLOY_ERC20`.\",\"params\":{\"name\":\"The ERC-20's name.\",\"projectId\":\"The ID of the project to deploy the ERC-20 for.\",\"symbol\":\"The ERC-20's symbol.\"},\"returns\":{\"token\":\"The address of the token that was deployed.\"}},\"getRulesetOf(uint256,uint256)\":{\"params\":{\"projectId\":\"The ID of the project the ruleset belongs to.\"},\"returns\":{\"metadata\":\"The ruleset's metadata.\",\"ruleset\":\"The ruleset's struct.\"}},\"isTrustedForwarder(address)\":{\"details\":\"Indicates whether any particular address is the trusted forwarder.\"},\"latestQueuedRulesetOf(uint256)\":{\"details\":\"The 'latest queued ruleset' is the ruleset initialized furthest in the future (at the end of the ruleset queue).\",\"params\":{\"projectId\":\"The ID of the project to get the latest ruleset of.\"},\"returns\":{\"approvalStatus\":\"The ruleset's approval status.\",\"metadata\":\"The ruleset's metadata.\",\"ruleset\":\"The struct for the project's latest queued ruleset.\"}},\"launchProjectFor(address,string,(uint256,uint256,uint256,uint256,address,(uint256,uint256,uint256,bool,bool,bool,bool,bool,bool,bool,bool,bool,bool,bool,address,uint256),(uint256,(bool,uint256,uint256,address,uint256,address)[])[],(address,address,(uint256,uint256)[],(uint256,uint256)[])[])[],(address,address[])[],string)\":{\"details\":\"This will mint the project's ERC-721 to the `owner`'s address, queue the specified rulesets, and set up the specified splits and terminals. Each operation within this transaction can be done in sequence separately.Anyone can deploy a project to any `owner`'s address.\",\"params\":{\"memo\":\"A memo to pass along to the emitted event.\",\"owner\":\"The project's owner. The project ERC-721 will be minted to this address.\",\"projectUri\":\"The project's metadata URI. This is typically an IPFS hash, optionally with the `ipfs://` prefix. This can be updated by the project's owner.\",\"rulesetConfigurations\":\"The rulesets to queue.\",\"terminalConfigurations\":\"The terminals to set up for the project.\"},\"returns\":{\"projectId\":\"The project's ID.\"}},\"launchRulesetsFor(uint256,(uint256,uint256,uint256,uint256,address,(uint256,uint256,uint256,bool,bool,bool,bool,bool,bool,bool,bool,bool,bool,bool,address,uint256),(uint256,(bool,uint256,uint256,address,uint256,address)[])[],(address,address,(uint256,uint256)[],(uint256,uint256)[])[])[],(address,address[])[],string)\":{\"details\":\"Each operation within this transaction can be done in sequence separately.Can only be called by the project's owner or an address with the owner's permission to `QUEUE_RULESETS`.\",\"params\":{\"memo\":\"A memo to pass along to the emitted event.\",\"projectId\":\"The ID of the project to launch rulesets for.\",\"rulesetConfigurations\":\"The rulesets to queue.\",\"terminalConfigurations\":\"The terminals to set up.\"},\"returns\":{\"rulesetId\":\"The ID of the last successfully queued ruleset.\"}},\"migrateController(uint256,address)\":{\"details\":\"Can only be called by the project's owner or an address with the owner's permission to `MIGRATE_CONTROLLER`.\",\"params\":{\"projectId\":\"The ID of the project to migrate.\",\"to\":\"The controller to migrate the project to.\"}},\"mintTokensOf(uint256,uint256,address,string,bool)\":{\"details\":\"Can only be called by the project's owner, an address with the owner's permission to `MINT_TOKENS`, one of the project's terminals, or the project's data hook.If the ruleset's metadata has `allowOwnerMinting` set to `false`, this function can only be called by the project's terminals or data hook.\",\"params\":{\"beneficiary\":\"The address which will receive the (non-reserved) tokens.\",\"memo\":\"A memo to pass along to the emitted event.\",\"projectId\":\"The ID of the project whose tokens are being minted.\",\"tokenCount\":\"The number of tokens to mint, including any reserved tokens.\",\"useReservedRate\":\"Whether to apply the ruleset's reserved rate.\"},\"returns\":{\"beneficiaryTokenCount\":\"The number of tokens minted for the `beneficiary`.\"}},\"payReservedTokenToTerminal(address,uint256,address,uint256,address,bytes)\":{\"details\":\"Can only be called by this controller.\",\"params\":{\"beneficiary\":\"The payment's beneficiary.\",\"metadata\":\"The pay metadata sent to the terminal.\",\"projectId\":\"The ID of the project being paid.\",\"splitAmount\":\"The amount of tokens being paid.\",\"terminal\":\"The terminal to pay.\",\"token\":\"The token being paid with.\"}},\"queueRulesetsOf(uint256,(uint256,uint256,uint256,uint256,address,(uint256,uint256,uint256,bool,bool,bool,bool,bool,bool,bool,bool,bool,bool,bool,address,uint256),(uint256,(bool,uint256,uint256,address,uint256,address)[])[],(address,address,(uint256,uint256)[],(uint256,uint256)[])[])[],string)\":{\"details\":\"Can only be called by the project's owner or an address with the owner's permission to `QUEUE_RULESETS`.\",\"params\":{\"memo\":\"A memo to pass along to the emitted event.\",\"projectId\":\"The ID of the project to queue rulesets for.\",\"rulesetConfigurations\":\"The rulesets to queue.\"},\"returns\":{\"rulesetId\":\"The ID of the last ruleset which was successfully queued.\"}},\"receiveMigrationFrom(address,uint256)\":{\"details\":\"This controller should not be the project's controller yet.\",\"params\":{\"from\":\"The controller being migrated from.\",\"projectId\":\"The ID of the project that will migrate to this controller.\"}},\"rulesetsOf(uint256,uint256,uint256)\":{\"params\":{\"projectId\":\"The ID of the project to get the rulesets of.\",\"size\":\"The maximum number of rulesets to return.\",\"startingId\":\"The ID of the ruleset to begin with. This will be the latest ruleset in the result. If the `startingId` is 0, passed, the project's latest ruleset will be used.\"},\"returns\":{\"rulesets\":\"The array of rulesets with their metadata.\"}},\"sendReservedTokensToSplitsOf(uint256)\":{\"details\":\"If the project has no reserved token splits, or if they don't add up to 100%, leftover tokens are sent to the project's owner.\",\"params\":{\"projectId\":\"The ID of the project to send reserved tokens for.\"},\"returns\":{\"_0\":\"The amount of reserved tokens minted and sent.\"}},\"setControllerAllowed(uint256)\":{\"params\":{\"projectId\":\"The ID of the project to check.\"},\"returns\":{\"_0\":\"A `bool` which is true if the project allows controllers to be set.\"}},\"setSplitGroupsOf(uint256,uint256,(uint256,(bool,uint256,uint256,address,uint256,address)[])[])\":{\"details\":\"Can only be called by the project's owner or an address with the owner's permission to `SET_SPLIT_GROUPS`.\",\"params\":{\"projectId\":\"The ID of the project to set the split groups of.\",\"rulesetId\":\"The ID of the ruleset the split groups should be active in. Use a `rulesetId` of 0 to set the default split groups, which are used when a ruleset has no splits set. If there are no default splits and no splits are set, all splits are sent to the project's owner.\",\"splitGroups\":\"An array of split groups to set.\"}},\"setTerminalsAllowed(uint256)\":{\"params\":{\"projectId\":\"The ID of the project to check.\"},\"returns\":{\"_0\":\"A `bool` which is true if the project allows terminals to be set.\"}},\"setTokenFor(uint256,address)\":{\"details\":\"Can only be called by the project's owner or an address with the owner's permission to `SET_TOKEN`.\",\"params\":{\"projectId\":\"The ID of the project to set the token of.\",\"token\":\"The new token's address.\"}},\"setUriOf(uint256,string)\":{\"details\":\"This is typically an IPFS hash, optionally with an `ipfs://` prefix.Can only be called by the project's owner or an address with the owner's permission to `SET_PROJECT_METADATA`.\",\"params\":{\"metadata\":\"The metadata URI to set.\",\"projectId\":\"The ID of the project to set the metadata URI of.\"}},\"supportsInterface(bytes4)\":{\"details\":\"See {IERC165-supportsInterface}.\",\"params\":{\"interfaceId\":\"The ID of the interface to check for adherence to.\"},\"returns\":{\"_0\":\"A flag indicating if the provided interface ID is supported.\"}},\"totalTokenSupplyWithReservedTokensOf(uint256)\":{\"params\":{\"projectId\":\"The ID of the project to get the total token supply of.\"},\"returns\":{\"_0\":\"The total supply of the project's token, including pending reserved tokens.\"}},\"transferCreditsFrom(address,uint256,address,uint256)\":{\"details\":\"Can only be called by the credit holder or an address with the holder's permission to `TRANSFER_CREDITS`.\",\"params\":{\"amount\":\"The amount of credits to transfer.\",\"holder\":\"The address to transfer credits from.\",\"projectId\":\"The ID of the project whose credits are being transferred.\",\"recipient\":\"The address to transfer credits to.\"}},\"trustedForwarder()\":{\"details\":\"Returns the address of the trusted forwarder.\"},\"upcomingRulesetOf(uint256)\":{\"details\":\"If an upcoming ruleset isn't found, returns an empty ruleset with all properties set to 0.\",\"params\":{\"projectId\":\"The ID of the project to get the next ruleset of.\"},\"returns\":{\"metadata\":\"The upcoming ruleset's metadata.\",\"ruleset\":\"The upcoming ruleset's struct.\"}}},\"version\":1},\"userdoc\":{\"kind\":\"user\",\"methods\":{\"DIRECTORY()\":{\"notice\":\"The directory of terminals and controllers for projects.\"},\"FUND_ACCESS_LIMITS()\":{\"notice\":\"A contract that stores fund access limits for each project.\"},\"PERMISSIONS()\":{\"notice\":\"A contract storing permissions.\"},\"PROJECTS()\":{\"notice\":\"Mints ERC-721s that represent project ownership and transfers.\"},\"RULESETS()\":{\"notice\":\"The contract storing and managing project rulesets.\"},\"SPLITS()\":{\"notice\":\"The contract that stores splits for each project.\"},\"TOKENS()\":{\"notice\":\"The contract that manages token minting and burning.\"},\"burnTokensOf(address,uint256,uint256,string)\":{\"notice\":\"Burns a project's tokens or credits from the specific holder's balance.\"},\"claimTokensFor(address,uint256,uint256,address)\":{\"notice\":\"Redeem credits to claim tokens into a `beneficiary`'s account.\"},\"currentRulesetOf(uint256)\":{\"notice\":\"A project's currently active ruleset and its metadata.\"},\"deployERC20For(uint256,string,string,bytes32)\":{\"notice\":\"Deploys an ERC-20 token for a project. It will be used when claiming tokens (with credits).\"},\"getRulesetOf(uint256,uint256)\":{\"notice\":\"Get the `JBRuleset` and `JBRulesetMetadata` corresponding to the specified `rulesetId`.\"},\"latestQueuedRulesetOf(uint256)\":{\"notice\":\"Gets the latest ruleset queued for a project, its approval status, and its metadata.\"},\"launchProjectFor(address,string,(uint256,uint256,uint256,uint256,address,(uint256,uint256,uint256,bool,bool,bool,bool,bool,bool,bool,bool,bool,bool,bool,address,uint256),(uint256,(bool,uint256,uint256,address,uint256,address)[])[],(address,address,(uint256,uint256)[],(uint256,uint256)[])[])[],(address,address[])[],string)\":{\"notice\":\"Creates a project.\"},\"launchRulesetsFor(uint256,(uint256,uint256,uint256,uint256,address,(uint256,uint256,uint256,bool,bool,bool,bool,bool,bool,bool,bool,bool,bool,bool,address,uint256),(uint256,(bool,uint256,uint256,address,uint256,address)[])[],(address,address,(uint256,uint256)[],(uint256,uint256)[])[])[],(address,address[])[],string)\":{\"notice\":\"Queue a project's initial rulesets and set up terminals for it. Projects which already have rulesets should use `queueRulesetsOf(...)`.\"},\"migrateController(uint256,address)\":{\"notice\":\"Migrate a project from this controller to another one.\"},\"mintTokensOf(uint256,uint256,address,string,bool)\":{\"notice\":\"Add new project tokens or credits to the specified beneficiary's balance. Optionally, reserve a portion according to the ruleset's reserved rate.\"},\"payReservedTokenToTerminal(address,uint256,address,uint256,address,bytes)\":{\"notice\":\"When a project receives reserved tokens, if it has a terminal for the token, this is used to pay the terminal.\"},\"pendingReservedTokenBalanceOf(uint256)\":{\"notice\":\"A project's unrealized reserved token balance (i.e. reserved tokens which haven't been sent out to the reserved token split group yet).\"},\"queueRulesetsOf(uint256,(uint256,uint256,uint256,uint256,address,(uint256,uint256,uint256,bool,bool,bool,bool,bool,bool,bool,bool,bool,bool,bool,address,uint256),(uint256,(bool,uint256,uint256,address,uint256,address)[])[],(address,address,(uint256,uint256)[],(uint256,uint256)[])[])[],string)\":{\"notice\":\"Add one or more rulesets to the end of a project's ruleset queue. Rulesets take effect after the previous ruleset in the queue ends, and only if they are approved by the previous ruleset's approval hook.\"},\"receiveMigrationFrom(address,uint256)\":{\"notice\":\"Prepares this controller to receive a project being migrated from another controller.\"},\"rulesetsOf(uint256,uint256,uint256)\":{\"notice\":\"Get an array of a project's rulesets (with metadata) up to a maximum array size, sorted from latest to earliest.\"},\"sendReservedTokensToSplitsOf(uint256)\":{\"notice\":\"Sends a project's pending reserved tokens to its reserved token splits.\"},\"setControllerAllowed(uint256)\":{\"notice\":\"Check whether the project's controller can currently be set.\"},\"setSplitGroupsOf(uint256,uint256,(uint256,(bool,uint256,uint256,address,uint256,address)[])[])\":{\"notice\":\"Sets a project's split groups. The new split groups must include any current splits which are locked.\"},\"setTerminalsAllowed(uint256)\":{\"notice\":\"Check whether the project's terminals can currently be set.\"},\"setTokenFor(uint256,address)\":{\"notice\":\"Set a project's token. If the project's token is already set, this will revert.\"},\"setUriOf(uint256,string)\":{\"notice\":\"Set a project's metadata URI.\"},\"supportsInterface(bytes4)\":{\"notice\":\"Indicates whether this contract adheres to the specified interface.\"},\"totalTokenSupplyWithReservedTokensOf(uint256)\":{\"notice\":\"Gets the a project token's total supply, including pending reserved tokens.\"},\"transferCreditsFrom(address,uint256,address,uint256)\":{\"notice\":\"Allows a credit holder to transfer credits to another address.\"},\"upcomingRulesetOf(uint256)\":{\"notice\":\"A project's next ruleset along with its metadata.\"},\"uriOf(uint256)\":{\"notice\":\"The metadata URI for each project. This is typically an IPFS hash, optionally with an `ipfs://` prefix.\"}},\"version\":1}},\"settings\":{\"remappings\":[\"@bananapus/=node_modules/@bananapus/\",\"@chainlink/=node_modules/@chainlink/\",\"@eth-optimism/=node_modules/@eth-optimism/\",\"@openzeppelin/=node_modules/@openzeppelin/\",\"@prb/=node_modules/@prb/\",\"@scroll-tech/=node_modules/@scroll-tech/\",\"@sphinx-labs/contracts/=lib/sphinx/packages/contracts/contracts/foundry/\",\"@uniswap/=node_modules/@uniswap/\",\"ds-test/=lib/forge-std/lib/ds-test/src/\",\"forge-std/=lib/forge-std/src/\",\"hardhat/=node_modules/hardhat/\",\"solmate/=node_modules/solmate/\",\"sphinx/=lib/sphinx/\"],\"optimizer\":{\"enabled\":true,\"runs\":200},\"metadata\":{\"bytecodeHash\":\"ipfs\"},\"compilationTarget\":{\"src/JBController.sol\":\"JBController\"},\"evmVersion\":\"paris\",\"libraries\":{}},\"sources\":{\"node_modules/@bananapus/permission-ids/src/JBPermissionIds.sol\":{\"keccak256\":\"0xf61109f6b217a80d5e5391f548fb6f2e451f7dbee3fabfc04cf17e88722203bc\",\"urls\":[\"bzz-raw://ac776ab1cd621c22bd7973471acdfa187f3abc659ad9a3ef6ed10b6447dfcf9c\",\"dweb:/ipfs/QmYLbaHt68qcuMzkiKpe96jMjiWUq1F3u8yMhxmZ3pnnWu\"],\"license\":\"MIT\"},\"node_modules/@openzeppelin/contracts/metatx/ERC2771Context.sol\":{\"keccak256\":\"0x98256cf37b71a69b2f5a8a6fe975ea03590dff703102bd141a830f94e8adebf6\",\"urls\":[\"bzz-raw://6251fe1f6a1e45e6d619d150c123afc88b8646b38ee26a136efa9a6988a31d3f\",\"dweb:/ipfs/QmeXDT85wSZdP31wkz3ah3KhponCiksJLP5o2LR5e1JxcK\"],\"license\":\"MIT\"},\"node_modules/@openzeppelin/contracts/token/ERC20/IERC20.sol\":{\"keccak256\":\"0xc6a8ff0ea489379b61faa647490411b80102578440ab9d84e9a957cc12164e70\",\"urls\":[\"bzz-raw://0ea104e577e63faea3b69c415637e99e755dcbf64c5833d7140c35a714d6d90c\",\"dweb:/ipfs/Qmau6x4Ns9XdyynRCNNp3RhLqijJjFm7z5fyZazfYFGYdq\"],\"license\":\"MIT\"},\"node_modules/@openzeppelin/contracts/token/ERC20/extensions/IERC20Permit.sol\":{\"keccak256\":\"0x6008dabfe393240d73d7dd7688033f72740d570aa422254d29a7dce8568f3aff\",\"urls\":[\"bzz-raw://f5196ec75139918c6c7bb4251b36395e668f1fa6d206beba7e7520e74913940d\",\"dweb:/ipfs/QmSyqjksXxmm2mCG6qRd1yuwLykypkSVBbnBnGqJRcuJMi\"],\"license\":\"MIT\"},\"node_modules/@openzeppelin/contracts/token/ERC20/utils/SafeERC20.sol\":{\"keccak256\":\"0x37bb49513c49c87c4642a891b13b63571bc87013dde806617aa1efb54605f386\",\"urls\":[\"bzz-raw://b3036b3a83b7c48f96641f2a9002b9f2dcb6a5958dd670894ada21ae8229b3d0\",\"dweb:/ipfs/QmUNfSBdoVtjhETaUJCYcaC7pTMgbhht926tJ2uXJbiVd3\"],\"license\":\"MIT\"},\"node_modules/@openzeppelin/contracts/token/ERC721/IERC721.sol\":{\"keccak256\":\"0x5ef46daa3b58ef2702279d514780316efaa952915ee1aa3396f041ee2982b0b4\",\"urls\":[\"bzz-raw://2f8f2a76e23b02fc69e8cd24c3cb47da6c7af3a2d6c3a382f8ac25c6e094ade7\",\"dweb:/ipfs/QmPV4ZS4tPVv4mTCf9ejyZ1ai57EEibDRj7mN2ARDCLV5n\"],\"license\":\"MIT\"},\"node_modules/@openzeppelin/contracts/utils/Address.sol\":{\"keccak256\":\"0xc300fa83999c2c466f69cfaa6398540169d91b051ff7b013196f526589e17499\",\"urls\":[\"bzz-raw://b32a3f30e5fc755fbded19db4ba3ef686811933ae07084313095666154877bf0\",\"dweb:/ipfs/QmV1hoYPcZaNhSVAV84sN3eJ5WahmvNYYpStJvttKfzRjf\"],\"license\":\"MIT\"},\"node_modules/@openzeppelin/contracts/utils/Context.sol\":{\"keccak256\":\"0x493033a8d1b176a037b2cc6a04dad01a5c157722049bbecf632ca876224dd4b2\",\"urls\":[\"bzz-raw://6a708e8a5bdb1011c2c381c9a5cfd8a9a956d7d0a9dc1bd8bcdaf52f76ef2f12\",\"dweb:/ipfs/Qmax9WHBnVsZP46ZxEMNRQpLQnrdE4dK8LehML1Py8FowF\"],\"license\":\"MIT\"},\"node_modules/@openzeppelin/contracts/utils/introspection/IERC165.sol\":{\"keccak256\":\"0x4296879f55019b23e135000eb36896057e7101fb7fb859c5ef690cf14643757b\",\"urls\":[\"bzz-raw://87b3541437c8c443ccd36795e56a338ed12855eec17f8da624511b8d1a7e14df\",\"dweb:/ipfs/QmeJQCtZrQjtJLr6u7ZHWeH3pBnjtLWzvRrKViAi7UZqxL\"],\"license\":\"MIT\"},\"node_modules/@prb/math/src/Common.sol\":{\"keccak256\":\"0xaa374e2c26cc93e8c22a6953804ee05f811597ef5fa82f76824378b22944778b\",\"urls\":[\"bzz-raw://279c732e161d623cf4d8a9519ca4c42c0c2db99842d0eb2a20c10fde3fa722c9\",\"dweb:/ipfs/QmVViuUXbinQGqtG5M21SgVzKihiCbFUChd4tDhtvwRmxH\"],\"license\":\"MIT\"},\"src/JBController.sol\":{\"keccak256\":\"0xdc9e29645672a2c580d52710026bc8b6c887debe25bd63404d56d0436622e002\",\"urls\":[\"bzz-raw://d8b1e67aaec1de490becb965d32539f770c4c4a20a8c42669aede8755a6f650f\",\"dweb:/ipfs/QmYiXcuhT1ddyGpsnhtxmLrz5So3FnvBdC2WL37aknVL4V\"],\"license\":\"MIT\"},\"src/abstract/JBPermissioned.sol\":{\"keccak256\":\"0xe08c8a7eeac9d1c7c2e0db6d5b98d1af09889300835a3d47d9f29319fecce703\",\"urls\":[\"bzz-raw://42645cf52bcc45053ef650790916faed5d0a74cecef336b217433fdd2c5c4166\",\"dweb:/ipfs/QmdMmxG1tSGucQwz4LYbVnuj7HU23YvqLH6xfrNWv5Bmus\"],\"license\":\"MIT\"},\"src/enums/JBApprovalStatus.sol\":{\"keccak256\":\"0x61c69b6bac7d24b566d87cda23a77e4ca9cdb87200b106aba8534cb9a0973e33\",\"urls\":[\"bzz-raw://6a9ca7249de76f77a8252eefe6bd1b63d47952f25a2acfa2c8db967cdff4470c\",\"dweb:/ipfs/QmaxSxptRQNj8bNy96EreENmrnRWdKmhyihBcxyWzBX5BN\"],\"license\":\"MIT\"},\"src/interfaces/IJBController.sol\":{\"keccak256\":\"0xe0b84058192f89e461c4b604388aa11a2f92f0f9969fb70fb3c18706d6f3e16b\",\"urls\":[\"bzz-raw://984fdcff63a17ccab65ff7723a628967e40965fcb4d47909cf8e314e8f044576\",\"dweb:/ipfs/QmaaHZWuaaH3oYxCDrip1rr4u4H1XtR3RcwwKAE73GAqkd\"],\"license\":\"MIT\"},\"src/interfaces/IJBDirectory.sol\":{\"keccak256\":\"0x9cc380844aef60078ee47a61861e55a29c4a8c947efd556ebd36e6909f7b9d62\",\"urls\":[\"bzz-raw://9f5190ec8b6683d9781ee6e9eedcc91294753242748875d4a06349077e4cbaaf\",\"dweb:/ipfs/QmTQrPuXT9TCA4txwrperMeXSGvGxP8iokUK47f62F388i\"],\"license\":\"MIT\"},\"src/interfaces/IJBDirectoryAccessControl.sol\":{\"keccak256\":\"0x1e67f56849320a46f834aaa9bd62b170ff8ada7b224b4a81136193740fa0be4d\",\"urls\":[\"bzz-raw://ea8fbcec44abfe49d137bcae129b67e5479d6b17879301f88534c8a7fab00be4\",\"dweb:/ipfs/QmT6wrtYX4GRpffHUzupNwYebJ1dqkkKZLEewWsoyunsqw\"],\"license\":\"MIT\"},\"src/interfaces/IJBFundAccessLimits.sol\":{\"keccak256\":\"0xf5fd6bdd723b60d490ccbe22cdf1cfe43663d23e6ee48badcd1b71e3282cb16b\",\"urls\":[\"bzz-raw://fe692f0b843ea5fccdfcb68f4ec16e1c0add945bb74b303c9866342be0e31fbf\",\"dweb:/ipfs/QmSRmzpgp3DhNEhNDiLsSu7yEiTeywbzEFbwyGyDazjgKt\"],\"license\":\"MIT\"},\"src/interfaces/IJBMigratable.sol\":{\"keccak256\":\"0xd69bd5aba01a68d82c303ef3adde47532abcace030a94296c3ea6988b401789c\",\"urls\":[\"bzz-raw://88f11a1c89899327746beba4fc830abf3ac2eb9c152c778e884a6eed6564971f\",\"dweb:/ipfs/QmTpKhSTVewpz7VyKcz6BJwH2LFKMwT7Qi5HNWmjEjwsdK\"],\"license\":\"MIT\"},\"src/interfaces/IJBPayHook.sol\":{\"keccak256\":\"0x9438866782c652c2942f4d114e35f393cd3c8b0334abce8387eed90bca35e8b2\",\"urls\":[\"bzz-raw://cfd99daf57213f92325aad7d7d16e98476d38e870470e95ba01e3ae3cdecc95d\",\"dweb:/ipfs/QmUKKAVGf7ki8BHksr99tFcRW8APveeB5tNH63ctTbbCW8\"],\"license\":\"MIT\"},\"src/interfaces/IJBPermissioned.sol\":{\"keccak256\":\"0x5b038d4dee116584e88b230920e56d48e135053e3f7e5642eaea14a775c1dad7\",\"urls\":[\"bzz-raw://19e43102f349fd4a1da1c0943ffb8f2950007fe4bb4bb7e8f74fc142575d091b\",\"dweb:/ipfs/QmXHAt4KzDTdDZgDDefEXH2WKi7NcfkJb9R7nxW5uDqsNp\"],\"license\":\"MIT\"},\"src/interfaces/IJBPermissions.sol\":{\"keccak256\":\"0x18870e500edf0fbadc353e273a5574701fb80466376b908c65e7cc3f11044d4d\",\"urls\":[\"bzz-raw://352a47c45853aec80e7acf0d286ade3106eb4cb456776b28a3c2f3f1091bed90\",\"dweb:/ipfs/QmQeYd3YbudYZy2hfbfht9kwhxhw4tuuLKMEYy9UY6dcSy\"],\"license\":\"MIT\"},\"src/interfaces/IJBProjectUriRegistry.sol\":{\"keccak256\":\"0x2799475228987e4f8334ac33d3935f759c9b8133db7383b4f622dde7a5dc0502\",\"urls\":[\"bzz-raw://d751731740f45df74eea48c9667e847ee2cddb2980ab4939c86bd17e6c6ed89b\",\"dweb:/ipfs/QmXW8SLTuhdUpfn7pRpdsYdcyuim8RTyagU37ULcj5UZhT\"],\"license\":\"MIT\"},\"src/interfaces/IJBProjects.sol\":{\"keccak256\":\"0x735c2fb8f1fa827f054ee77f7a0ae4b312656217acb75b624d2c8fd9dc40151b\",\"urls\":[\"bzz-raw://ee7fc92299a8633a80693ae63ab494dcd125f1789487a54a39dc0e5696e5996f\",\"dweb:/ipfs/QmX7YJD4pS2XhgQb7p3JbBAXynT7YGPXcZe92BiWWRrsCL\"],\"license\":\"MIT\"},\"src/interfaces/IJBRedeemHook.sol\":{\"keccak256\":\"0x8ab46fcd7d0e739661eb76056ad93ff99106f38420ef0b4eb97fa9f4bb71a68a\",\"urls\":[\"bzz-raw://0ef96fcb7ad26281d444d8e0c677b25114fdd63b1c172d477e030dce8ba53b62\",\"dweb:/ipfs/Qmcx1jRQuwU4pZFuLxsSsx4oMbRaDfktHrPnXextgbWc5m\"],\"license\":\"MIT\"},\"src/interfaces/IJBRulesetApprovalHook.sol\":{\"keccak256\":\"0x592e95d159494421c6b1bcb362d0cee1df0132921697351304e9cd7af4fbd386\",\"urls\":[\"bzz-raw://5bebfd5fa67c1b6ea16fa2e76e9520e9dfe52a579f48dd94d0c2ec45f78ad178\",\"dweb:/ipfs/QmRUawEGtfYoYSHmHELGhvJoWuMsxLPKtqAXgsrb7fJboP\"],\"license\":\"MIT\"},\"src/interfaces/IJBRulesetDataHook.sol\":{\"keccak256\":\"0x13b4b9f4b847f62442da1c1a59b399f8f201b31a28edb96aa5a8a78ad57c24d0\",\"urls\":[\"bzz-raw://4fcd00b77d0f40cf6d5ee6590b6ef4ee1f606e89ae4c4faed3710fb462108f8e\",\"dweb:/ipfs/QmeoE54DQ3eGw9EDXfN7aTMmEjubAtirahmytDijo6GSeE\"],\"license\":\"MIT\"},\"src/interfaces/IJBRulesets.sol\":{\"keccak256\":\"0xd3f817d22ecbe24da63c552c069bf0c4fbbf3bcd5c3b5633002afd24aacf6882\",\"urls\":[\"bzz-raw://c1185aec0f6b6f0f4d93ffeeed0972ccf38420b00fe570b5e1838ed2b1f5db49\",\"dweb:/ipfs/QmWz36azGTFnjFXpFSh6BHt4nactgjtF64L3PeTqs4ZqSR\"],\"license\":\"MIT\"},\"src/interfaces/IJBSplitHook.sol\":{\"keccak256\":\"0xeb8dfac7a4b81897a1c3b5d0d853a406bcff33720fb187d5ca5bb3dcc0ba3a12\",\"urls\":[\"bzz-raw://36aaeef6107cfe5b0127e063ea215aac7200f8af02e28a48e61111abd3254688\",\"dweb:/ipfs/QmQ8yQANXnhQCAWBGKsKCDsJ3A8hnTKNg5tyo79GfWXTcV\"],\"license\":\"MIT\"},\"src/interfaces/IJBSplits.sol\":{\"keccak256\":\"0x92deeb9e22ce2aaafc608b85e9250b8ea2deed1ebf64b7442038b157b2bfe0e6\",\"urls\":[\"bzz-raw://08bf29f0c13c2e8be46065277f67e44ecaea960cb5474f13775eece0672566c2\",\"dweb:/ipfs/QmeGu9C6tuBjfmeizmpzptxgGmch6Mbtm34NFwZxzMvqc4\"],\"license\":\"MIT\"},\"src/interfaces/IJBTerminal.sol\":{\"keccak256\":\"0x19dc9bf8cbdc8f13ee5da9dc3a87047eacb94a3fc19740a286c1f0bad2cc39ca\",\"urls\":[\"bzz-raw://0b05ae6fda9a85672508232fd992b8a5f5ffd8096622eeb12c8a7b3317eb3867\",\"dweb:/ipfs/QmNh9Quj37BXYGdTdcCD1Q58PchRsE5TLbEZep56qS3MpV\"],\"license\":\"MIT\"},\"src/interfaces/IJBToken.sol\":{\"keccak256\":\"0x71b1f9c3a0edd41910f77396e0be2c65596571176d53eb87e887c3c0da56c0fb\",\"urls\":[\"bzz-raw://6e956f0582f4525e83d845ee9b4a89959abc4f821414f6accbbee5b38960482d\",\"dweb:/ipfs/QmbSvjgmCgnfVmcCTGu8XwrV1Rufsf3M8hB8unFq6fTMdH\"],\"license\":\"MIT\"},\"src/interfaces/IJBTokenUriResolver.sol\":{\"keccak256\":\"0xfa5cb00dcd6085d1ef912d071fe73c63f9478a2cd0f9d8bddaf659b6af2d0967\",\"urls\":[\"bzz-raw://282e4e7c342d65f77cde0e9a08fcaf20ef5cf379c7a48b639842c0ffd0b2afb8\",\"dweb:/ipfs/QmbnN3PEQeZaXdPLT75V1J79kMg7KqSMru37RHrL3z8Yf2\"],\"license\":\"MIT\"},\"src/interfaces/IJBTokens.sol\":{\"keccak256\":\"0x6fd67af915dd541d9547c8297aa9ae269690e4ee23531db43f021bcacec6076f\",\"urls\":[\"bzz-raw://2e5e11954e9ab2319fffccb6563f3db400b8f7760d4ffe2165048a02c9c37fa6\",\"dweb:/ipfs/QmbDXtV83dK8EfiTjsTRf55R2XqPZzDKcjtYbW8sxQ5CFm\"],\"license\":\"MIT\"},\"src/libraries/JBConstants.sol\":{\"keccak256\":\"0x9d3a9a953f859d8ec79a599577f8972de6da7199cc1bfa7fdad017d4d722bcb4\",\"urls\":[\"bzz-raw://f151fcb53a8d2684eff8b9e56ac790bcbcadd8199a4fd4d17c5b224b22936722\",\"dweb:/ipfs/QmdAz1ZtCE8nTiC4AxQNLfJhnY3ndGum2Lbef7seKdvTdR\"],\"license\":\"MIT\"},\"src/libraries/JBRulesetMetadataResolver.sol\":{\"keccak256\":\"0x83f25c531d9e212379b4326fd93bf658a0f6d0e839bbd67bff7b66b9b55fb670\",\"urls\":[\"bzz-raw://3eb4a41ececec705febac7b799d7224e67f12761ae3975d49dd8bddaac608ecd\",\"dweb:/ipfs/QmNgL5VccDhP5xofEcGWNKk3v4KG23wGF9vc3d4YJ5MLnv\"],\"license\":\"MIT\"},\"src/libraries/JBSplitGroupIds.sol\":{\"keccak256\":\"0x932ca2645d443f04f86c8ffb27b5c58c4fbdc7b5a145fba1d43f1db9bd488a0f\",\"urls\":[\"bzz-raw://fa412d2c5726a868a258cd518648726b0784ab7ac7566376b82ba09680f66227\",\"dweb:/ipfs/QmZvfjBt7PQzTWNzrhysyHBegUbbu4aY2xDzBGnwqMaqnF\"],\"license\":\"MIT\"},\"src/structs/JBAccountingContext.sol\":{\"keccak256\":\"0x2907ff54d1e903cc7e0390dd88c3975884702dc2673642aacbe22b66560b56de\",\"urls\":[\"bzz-raw://a66a5381ce877b32f0e0058ceeaf843e9b6b2bc8af666c0c9f4a9d01091da004\",\"dweb:/ipfs/QmQynCetUr37dBkS1YwDS8evxuXGiqanW6THmeUxXtim8w\"],\"license\":\"MIT\"},\"src/structs/JBAfterPayRecordedContext.sol\":{\"keccak256\":\"0xd26c3a774ff38be79064085970454fe2603a23a638c76270d5b1b3829206c3e8\",\"urls\":[\"bzz-raw://3b55dbe3bf1ef625b7ca04efab3de35406e6041d5b3d82c7265469c500e2b702\",\"dweb:/ipfs/QmUdBDo4Lt3mcsFcsXT2mqq3czFwZjQJFPLM89YA2VtD7k\"],\"license\":\"MIT\"},\"src/structs/JBAfterRedeemRecordedContext.sol\":{\"keccak256\":\"0x521f5d23a36f0da72362cd84890cc867bd83baa8dc836ba6c5066d51dba2f163\",\"urls\":[\"bzz-raw://6cc461313286dde62d045d6288e87bae5032e035796326f5b1ed6218e58aa9da\",\"dweb:/ipfs/QmQS2AkQwf2ANQieDuaUnpJEdXChoLv4CCbZqHkfywYPSR\"],\"license\":\"MIT\"},\"src/structs/JBBeforePayRecordedContext.sol\":{\"keccak256\":\"0x5b04e814da83c7e83ff892ab07eaad6abce6f7b85a75f8da9380e9fc3470bc81\",\"urls\":[\"bzz-raw://11c889aab993fce3e3cc2dedc15fc30dd367e7fef9b7b1bfd6a6a9f248781731\",\"dweb:/ipfs/QmVVtydCD1azeWhGLxA1hthxfLyKzMHZ1eVzCz3a3R5dLy\"],\"license\":\"MIT\"},\"src/structs/JBBeforeRedeemRecordedContext.sol\":{\"keccak256\":\"0x73eadaf6827e82f6ccbe3a1e2b2b7fc6c59cef471f73335041b30ddcc000989d\",\"urls\":[\"bzz-raw://2f3ee84662eed565dbdaed406ef836fffaf55cccd417575578152e5085d0b1f2\",\"dweb:/ipfs/QmaJGFS7hxJsiUdKvbv5BKhSwceDEzKBnt7t5YeNWvYgMK\"],\"license\":\"MIT\"},\"src/structs/JBCurrencyAmount.sol\":{\"keccak256\":\"0x12fe4b43f4824994624d4fe0abbd88c3fe7867fd637edb65c7f456dab27e2d6e\",\"urls\":[\"bzz-raw://8003a3e8f932cf891e86b827e67c9d31b0d34c2712e18c2bc333cfe5284ba6d5\",\"dweb:/ipfs/QmSoA6RsDcSnNzk6CB7KZtALkHmeSDAi2g6fg3TDmLDkWX\"],\"license\":\"MIT\"},\"src/structs/JBFundAccessLimitGroup.sol\":{\"keccak256\":\"0x9fdaa8d017b72da25f583700a444a86849df053f7fb8eac874ec5139bcf651e5\",\"urls\":[\"bzz-raw://c8e44c49ee444a98424a0dbeb6897a76a0bf00d88a613f62ac2012afdac754ee\",\"dweb:/ipfs/QmdYkAiRi5bXM1YYNkc7BiqimHSFodMGn1cjHR5hcpm4xH\"],\"license\":\"MIT\"},\"src/structs/JBPayHookSpecification.sol\":{\"keccak256\":\"0x955f0bfca97300b9e5927dc181753830ee362f83fa9ca32a90daade32aa0cfd5\",\"urls\":[\"bzz-raw://f517af1597c7c40f8d3da53f7a6684a3e162950a16559d6bf6ea3b727bb11546\",\"dweb:/ipfs/QmRWo2ZTYXmVZTzNJDYhsJNsEaHphjpUfx9eNz2cciyz86\"],\"license\":\"MIT\"},\"src/structs/JBPermissionsData.sol\":{\"keccak256\":\"0x8f0f69a6ebf5f3704e3dfcb3712fb9d3f94ae7c1ab89bf3e37bad42a3e7a0487\",\"urls\":[\"bzz-raw://57b0c5e52843e2217082889ed47b4da3943e0da4590d5768dcebfe3edad4a6b8\",\"dweb:/ipfs/QmRz48vuWLw81kUP836rh1qzqWiJFGbksgRUA9xGEDNKTY\"],\"license\":\"MIT\"},\"src/structs/JBRedeemHookSpecification.sol\":{\"keccak256\":\"0x673d16ee1a91bf8de3b37e57284e60451b70a9c2d748c9cdc7a151f5624af18f\",\"urls\":[\"bzz-raw://ceeb5e81effa0f076c5630c756dfcf1548d09f822b255a0a6ee01e54de8c8ae2\",\"dweb:/ipfs/QmSMoMNPRhPMnuJNvWa6S59XRfycGz9o2ApNp63bUW6TdX\"],\"license\":\"MIT\"},\"src/structs/JBRuleset.sol\":{\"keccak256\":\"0x15b2bf3174d84846a91ccbf5a344dfb125b55ed9cf50102db8d6868844225189\",\"urls\":[\"bzz-raw://647416b025dbd941094db89cbc69f755c155bd6c87be3f322394ccc4a8e0442d\",\"dweb:/ipfs/QmTCL9xcHnxQ4t5AmCPoZvXDUPW5xhzhyyXYbkMdyg44au\"],\"license\":\"MIT\"},\"src/structs/JBRulesetConfig.sol\":{\"keccak256\":\"0x0be470df286939259a6b98bc71459e661e81d56a58226d6a574ae1484f8f8e6c\",\"urls\":[\"bzz-raw://64592c279ba7518ac180c835a539897163f299a439065f2cc8aa54086a2c9ad7\",\"dweb:/ipfs/QmaEepVvFJdXcDBMMr7SQYjZSDJXPtCca95kQY5rZbra6U\"],\"license\":\"MIT\"},\"src/structs/JBRulesetMetadata.sol\":{\"keccak256\":\"0xfea54c9f98416d2aa05309e7ff76967d6968a614850a1e33e48fde793ea8b514\",\"urls\":[\"bzz-raw://bf55386cbab90dbc1296b2b0cbfdc217a4500d67702e4a093a4c78bd127ecd5c\",\"dweb:/ipfs/QmTRq9mZrNSXu7oCZwti4JbBFrbY6A5msRqi9RbtL49NAj\"],\"license\":\"MIT\"},\"src/structs/JBRulesetWithMetadata.sol\":{\"keccak256\":\"0x1bcfadf20488f6df65227f8d4d0fbf9b7539456a2389567f7fe3900d23289bc3\",\"urls\":[\"bzz-raw://0a15c399a71e5373f8c0484c6d6b83521eda31e063a2c53e4c5cec4e74550343\",\"dweb:/ipfs/QmQwi8zkjoTVXbK89NeETYimWCacTrNsesJdpLSvGdqMPX\"],\"license\":\"MIT\"},\"src/structs/JBSplit.sol\":{\"keccak256\":\"0x1d40fa4f1c911a53b9139f3d44d27cb58fa5c5d2cd793c7a21ccf52b9e61f848\",\"urls\":[\"bzz-raw://9897d2c29fc65fe16e4eac0b7b8b6fd8ef0b0cc501986f7f0c3a78c4ec1dbb60\",\"dweb:/ipfs/QmXcHoVjCYWWCz4hm2KZ6JxtB4YNq7jmXa2evLkga59Xwq\"],\"license\":\"MIT\"},\"src/structs/JBSplitGroup.sol\":{\"keccak256\":\"0xda7da6e88aac2906c7ea4027660088daf217edc632bebca4d72795aae8921564\",\"urls\":[\"bzz-raw://ae1939d17e94cb51484f31ce64cf0df990445a338fb9b38d39a7baf28275ae4a\",\"dweb:/ipfs/QmUhPnJiWnYhFdtLvZnrPopAdbYXxETpGjvxjPDignpTGY\"],\"license\":\"MIT\"},\"src/structs/JBSplitHookContext.sol\":{\"keccak256\":\"0xfe34e6860b00ca93d71f44e72882281b2c57c31303151af05795c74cfdd2e51d\",\"urls\":[\"bzz-raw://08acab094888e9c929b6f6f972d89ddbb31e5867675e7e7c602d25fcb2c0f402\",\"dweb:/ipfs/QmPNdXM185cTyXQSodVr4JMviHx88jrWu7dipgkp9xTNgJ\"],\"license\":\"MIT\"},\"src/structs/JBTerminalConfig.sol\":{\"keccak256\":\"0xd162f3821a1ccafbc8d7d108369e39ac3048445a8c7fe7a3fa97a6343f9eefaa\",\"urls\":[\"bzz-raw://82172ea0407b6d9edc45e408c7e8edb8e129adf49a94349fe3a5862da9bc044e\",\"dweb:/ipfs/QmWheF5Tjq2hcabnSzfYqdFHUA1YxYEdAPZaRw9N166V1d\"],\"license\":\"MIT\"},\"src/structs/JBTokenAmount.sol\":{\"keccak256\":\"0x5cf0626b73a596c1e2da17c89ae039a7c0374310b060d48568d3b6c11fbe6180\",\"urls\":[\"bzz-raw://63348b50be95e2995409394a17caffc563a646f0972650a1230bf864fbd3219b\",\"dweb:/ipfs/QmZXZpS3SbFD5nWaCauf6AqbEhLURv5qsKHpThBvQgDU6u\"],\"license\":\"MIT\"}},\"version\":1}",
			"args": [
				"0x1e2E8562b635fe19978640C784e47865A83d6605",
				"0xf9dadA4628Eb3992202CF253625d4ECebBC1592f",
				"0xCD8c4da77dfb15C05486D3F71Ee4C2C0dfdbc94e",
				"0x077044a51C5481544Acf8BCB654f68E13F167B9f",
				"0x792b79adb4Aa06edDabd6ddef5EE06dCb946F436",
				"0xf271e7329eD20B9b61BD5A13593e1F5bB6098644",
				"0xFC33a725b53856208fe911E25b72C6E46DC95aad",
				"0xB2b5841DBeF766d4b521221732F9B618fCf34A87"
			],
			"bytecode": "0x6101806040523480156200001257600080fd5b5060405162005dcc38038062005dcc83398101604081905262000035916200008b565b6001600160a01b03978816608052871660a05294861660c05292851660e0529084166101005283166101205282166101405216610160526200014c565b6001600160a01b03811681146200008857600080fd5b50565b600080600080600080600080610100898b031215620000a957600080fd5b8851620000b68162000072565b60208a0151909850620000c98162000072565b60408a0151909750620000dc8162000072565b60608a0151909650620000ef8162000072565b60808a0151909550620001028162000072565b60a08a0151909450620001158162000072565b60c08a0151909350620001288162000072565b60e08a01519092506200013b8162000072565b809150509295985092959890939650565b60805160a05160c05160e05161010051610120516101405161016051615aa762000325600039600081816105da01526126ae0152600081816102de015281816122fd0152818161262701526131d901526000818161028c01528181610cae01528181610de301528181611189015281816115800152818161183601528181612152015281816123f301528181612ab4015281816132ca0152818161334c015281816134af015281816135fa01528181613681015261383001526000818161056601528181610a4001528181610be501528181610d3701528181610f0e01528181611325015281816117000152818161175e015281816118cb01528181611a3501528181611a9501528181611d110152818161251f01526129610152600081816104450152818161076f01528181610aee0152818161149f01528181611ba201528181611e1201528181611f52015281816128980152613561015260008181610326015281816106c1015281816109ac01528181610e7a015281816110a901528181611230015281816113c701528181611da20152818161226b0152818161235201526129ff0152600081816103c40152818161041c015261314b0152600081816105b301528181612cb30152612d5c0152615aa76000f3fe608060405234801561001057600080fd5b50600436106102115760003560e01c80637da0a87711610125578063c02c63ad116100ad578063d4a1b4b11161007c578063d4a1b4b114610561578063dd5f214a14610588578063f12b64a51461059b578063f434c914146105ae578063ffa08244146105d557600080fd5b8063c02c63ad14610506578063c1ec61ee14610519578063c5b19b0e1461053b578063c7fb92de1461054e57600080fd5b8063a2d532e6116100f4578063a2d532e61461048d578063a312889b146104a0578063b1a50e33146104c0578063b1e6d2a1146104d3578063b51d6244146104e657600080fd5b80637da0a8771461041a57806388bc2ef31461044057806399d25a3414610467578063a0d8e2a91461047a57600080fd5b8063293c4999116101a85780634da781a9116101775780634da781a91461038e5780635338fd9e146103a1578063572b6c05146103b457806358178191146103f4578063702a39771461040757600080fd5b8063293c499914610321578063303f5dfa14610348578063399755711461035b578063419296261461037b57600080fd5b80631d831d5c116101e45780631d831d5c146102875780631ea7bc8c146102c65780631f47ce69146102d957806325a61d5c1461030057600080fd5b806301ffc9a7146102165780630634bae91461023e578063090db2f11461025f5780630a1181ed14610272575b600080fd5b610229610224366004613c9d565b6105fc565b60405190151581526020015b60405180910390f35b61025161024c366004613f10565b61069f565b604051908152602001610235565b61025161026d366004613fdf565b610842565b610285610280366004613ff8565b61084d565b005b6102ae7f000000000000000000000000000000000000000000000000000000000000000081565b6040516001600160a01b039091168152602001610235565b6102516102d4366004614086565b610970565b6102ae7f000000000000000000000000000000000000000000000000000000000000000081565b61031361030e366004614121565b610bb8565b60405161023592919061428c565b6102ae7f000000000000000000000000000000000000000000000000000000000000000081565b6102856103563660046142a9565b610c6d565b610251610369366004613fdf565b60006020819052908152604090205481565b610313610389366004613fdf565b610d11565b61025161039c366004613fdf565b610dbe565b6102856103af3660046142f3565b610e60565b6102296103c2366004614323565b7f00000000000000000000000000000000000000000000000000000000000000006001600160a01b0390811691161490565b6102ae610402366004614340565b611084565b6102856104153660046143c1565b611216565b7f00000000000000000000000000000000000000000000000000000000000000006102ae565b6102ae7f000000000000000000000000000000000000000000000000000000000000000081565b610229610475366004613fdf565b611300565b61025161048836600461440c565b6113a2565b61028561049b366004614485565b611496565b6104b36104ae366004613fdf565b611641565b604051610235919061452d565b6102296104ce366004613fdf565b6116db565b6102856104e1366004614540565b611739565b6104f96104f4366004614588565b611899565b60405161023591906145b4565b610313610514366004613fdf565b611a0f565b61052c610527366004613fdf565b611a6c565b60405161023593929190614617565b610285610549366004614661565b611b20565b61025161055c3660046146a6565b611ccb565b6102ae7f000000000000000000000000000000000000000000000000000000000000000081565b610285610596366004614721565b612251565b6102856105a93660046142f3565b612338565b6102ae7f000000000000000000000000000000000000000000000000000000000000000081565b6102ae7f000000000000000000000000000000000000000000000000000000000000000081565b60006001600160e01b03198216631519df1760e21b148061062d57506001600160e01b031982166334ce2c7b60e21b145b8061064857506001600160e01b03198216632877540760e01b145b8061066357506001600160e01b031982166362d8cd8760e11b145b8061067e57506001600160e01b03198216633d0d324560e21b145b8061069957506001600160e01b031982166301ffc9a760e01b145b92915050565b60405163180e2b1160e31b81526001600160a01b0389811660048301526000917f00000000000000000000000000000000000000000000000000000000000000009091169063c0715888906024016020604051808303816000875af115801561070c573d6000803e3d6000fd5b505050506040513d601f19601f820116820180604052508101906107309190614773565b90508615610753576000818152600160205260409020610751888a8361480e565b505b6040516338a73f9960e11b8152600481018290523060248201527f00000000000000000000000000000000000000000000000000000000000000006001600160a01b03169063714e7f3290604401600060405180830381600087803b1580156107bb57600080fd5b505af11580156107cf573d6000803e3d6000fd5b5050505060006107e0828888612453565b90506107ed828686612744565b7f8dac501f24f52bda9ebdfa6a1789878c1d1e23823c771f7d52b5ba41261b0f4581838b8b8761081b612909565b60405161082d969594939291906148f7565b60405180910390a15098975050505050505050565b600061069982612918565b33301461085957600080fd5b61086d6001600160a01b0386168886612b91565b60405163fef4325760e01b81526001600160a01b0388169063fef43257906108a69089908990899089906000908a908a90600401614945565b6020604051808303816000875af11580156108c5573d6000803e3d6000fd5b505050506040513d601f19601f820116820180604052508101906108e99190614773565b50604051636eb1769f60e11b81523060048201526001600160a01b03888116602483015286169063dd62ed3e90604401602060405180830381865afa158015610936573d6000803e3d6000fd5b505050506040513d601f19601f8201168201806040525081019061095a9190614773565b15610967576109676149a0565b50505050505050565b600084810361099257604051631ec6004f60e01b815260040160405180910390fd5b6040516331a9108f60e11b815260048101889052610a27907f00000000000000000000000000000000000000000000000000000000000000006001600160a01b031690636352211e90602401602060405180830381865afa1580156109fb573d6000803e3d6000fd5b505050506040513d601f19601f82011682018060405250810190610a1f91906149b6565b886002612c55565b6040516319fade8560e11b8152600481018890526000907f00000000000000000000000000000000000000000000000000000000000000006001600160a01b0316906333f5bd0a90602401602060405180830381865afa158015610a8f573d6000803e3d6000fd5b505050506040513d601f19601f82011682018060405250810190610ab39190614773565b1115610ad257604051639115381560e01b815260040160405180910390fd5b6040516338a73f9960e11b8152600481018890523060248201527f00000000000000000000000000000000000000000000000000000000000000006001600160a01b03169063714e7f3290604401600060405180830381600087803b158015610b3a57600080fd5b505af1158015610b4e573d6000803e3d6000fd5b50505050610b5d878787612453565b9050610b6a878585612744565b7f23164adda696b19106c2eef50ba44461997682bf5aeb9fdb383117fa9952cc75818884610b96612909565b604051610ba694939291906149d3565b60405180910390a19695505050505050565b610bc0613b4b565b610bc8613ba0565b604051630969875760e21b815260048101859052602481018490527f00000000000000000000000000000000000000000000000000000000000000006001600160a01b0316906325a61d5c9060440161012060405180830381865afa158015610c35573d6000803e3d6000fd5b505050506040513d601f19601f82011682018060405250810190610c599190614a96565b9150610c6482612de7565b90509250929050565b610c798484600b612c55565b60405163181faefd60e11b81526001600160a01b038581166004830152602482018590526044820184905282811660648301527f0000000000000000000000000000000000000000000000000000000000000000169063303f5dfa906084015b600060405180830381600087803b158015610cf357600080fd5b505af1158015610d07573d6000803e3d6000fd5b5050505050505050565b610d19613b4b565b610d21613ba0565b6040516321d1336160e11b8152600481018490527f00000000000000000000000000000000000000000000000000000000000000006001600160a01b0316906343a266c2906024015b61012060405180830381865afa158015610d88573d6000803e3d6000fd5b505050506040513d601f19601f82011682018060405250810190610dac9190614a96565b9150610db782612de7565b9050915091565b6000818152602081905260408082205490516375b0d9cd60e01b8152600481018490527f00000000000000000000000000000000000000000000000000000000000000006001600160a01b0316906375b0d9cd90602401602060405180830381865afa158015610e32573d6000803e3d6000fd5b505050506040513d601f19601f82011682018060405250810190610e569190614773565b6106999190614ac9565b6040516331a9108f60e11b815260048101839052610ef5907f00000000000000000000000000000000000000000000000000000000000000006001600160a01b031690636352211e90602401602060405180830381865afa158015610ec9573d6000803e3d6000fd5b505050506040513d601f19601f82011682018060405250810190610eed91906149b6565b836004612c55565b6040516321d1336160e11b8152600481018390526000907f00000000000000000000000000000000000000000000000000000000000000006001600160a01b0316906343a266c29060240161012060405180830381865afa158015610f5e573d6000803e3d6000fd5b505050506040513d601f19601f82011682018060405250810190610f829190614a96565b61010081015190915060491c600190811614610fb15760405163719d422360e11b815260040160405180910390fd5b60008381526020819052604090205415610fd057610fce83612918565b505b6040516362d8cd8760e11b8152306004820152602481018490526001600160a01b0383169063c5b19b0e90604401600060405180830381600087803b15801561101857600080fd5b505af115801561102c573d6000803e3d6000fd5b50505050827f6d2afe69329448f0491521e53921343cc696596a49f64a5502a27935e6a482f98361105b612909565b604080516001600160a01b039384168152929091166020830152015b60405180910390a2505050565b6040516331a9108f60e11b81526004810187905260009061111c906001600160a01b037f00000000000000000000000000000000000000000000000000000000000000001690636352211e90602401602060405180830381865afa1580156110f0573d6000803e3d6000fd5b505050506040513d601f19601f8201168201806040525081019061111491906149b6565b886007612c55565b81156111725761112a612909565b8260405160200161115992919060609290921b6bffffffffffffffffffffffff19168252601482015260340190565b6040516020818303038152906040528051906020012091505b604051635817819160e01b81526001600160a01b037f000000000000000000000000000000000000000000000000000000000000000016906358178191906111c8908a908a908a908a908a908a90600401614adc565b6020604051808303816000875af11580156111e7573d6000803e3d6000fd5b505050506040513d601f19601f8201168201806040525081019061120b91906149b6565b979650505050505050565b6040516331a9108f60e11b8152600481018490526112ab907f00000000000000000000000000000000000000000000000000000000000000006001600160a01b031690636352211e90602401602060405180830381865afa15801561127f573d6000803e3d6000fd5b505050506040513d601f19601f820116820180604052508101906112a391906149b6565b846006612c55565b60008381526001602052604090206112c482848361480e565b50827f76f445b3718cf71aa0c056105beab456eba31f72f5cc5a60fde060fd14ea168483836112f1612909565b60405161107793929190614b1d565b6040516321d1336160e11b815260048101829052600090611397906001600160a01b037f000000000000000000000000000000000000000000000000000000000000000016906343a266c2906024015b61012060405180830381865afa15801561136e573d6000803e3d6000fd5b505050506040513d601f19601f820116820180604052508101906113929190614a96565b612de7565b610120015192915050565b6040516331a9108f60e11b81526004810186905260009061143a906001600160a01b037f00000000000000000000000000000000000000000000000000000000000000001690636352211e90602401602060405180830381865afa15801561140e573d6000803e3d6000fd5b505050506040513d601f19601f8201168201806040525081019061143291906149b6565b876002612c55565b611445868686612453565b90507f24d02d612b06648bfa2000859f3de7e6f336139eaf5877c24b0d21320625286281878585611474612909565b604051611485959493929190614b49565b60405180910390a195945050505050565b6115488585600a7f00000000000000000000000000000000000000000000000000000000000000006001600160a01b0316636e49181f896114d5612909565b6040516001600160e01b031960e085901b16815260048101929092526001600160a01b03166024820152604401602060405180830381865afa15801561151f573d6000803e3d6000fd5b505050506040513d601f19601f820116820180604052508101906115439190614b83565b612ef6565b8260000361156957604051637b38547b60e01b815260040160405180910390fd5b60405163124d91e560e01b81526001600160a01b037f0000000000000000000000000000000000000000000000000000000000000000169063124d91e5906115b990889088908890600401614ba0565b600060405180830381600087803b1580156115d357600080fd5b505af11580156115e7573d6000803e3d6000fd5b5050505083856001600160a01b03167fdf04e13ee4fcd48a81ab2fd114757093740a3efa9b6475d86e05878b4c59d079858585611622612909565b6040516116329493929190614bc1565b60405180910390a35050505050565b6001602052600090815260409020805461165a9061478c565b80601f01602080910402602001604051908101604052809291908181526020018280546116869061478c565b80156116d35780601f106116a8576101008083540402835291602001916116d3565b820191906000526020600020905b8154815290600101906020018083116116b657829003601f168201915b505050505081565b6040516321d1336160e11b81526004810182905260009061172f906001600160a01b037f000000000000000000000000000000000000000000000000000000000000000016906343a266c290602401611350565b60e0015192915050565b6117458484600c612c55565b6040516321d1336160e11b8152600481018490526000907f00000000000000000000000000000000000000000000000000000000000000006001600160a01b0316906343a266c29060240161012060405180830381865afa1580156117ae573d6000803e3d6000fd5b505050506040513d601f19601f820116820180604052508101906117d29190614a96565b61010081015190915060451c6001908116036118015760405163063a016960e01b815260040160405180910390fd5b60405163b1e6d2a160e01b81526001600160a01b038681166004830152602482018690528481166044830152606482018490527f0000000000000000000000000000000000000000000000000000000000000000169063b1e6d2a190608401600060405180830381600087803b15801561187a57600080fd5b505af115801561188e573d6000803e3d6000fd5b505050505050505050565b604051632d47589160e21b81526004810184905260248101839052604481018290526060906000906001600160a01b037f0000000000000000000000000000000000000000000000000000000000000000169063b51d624490606401600060405180830381865afa158015611912573d6000803e3d6000fd5b505050506040513d6000823e601f3d908101601f1916820160405261193a9190810190614c17565b8051909150806001600160401b0381111561195757611957613d78565b60405190808252806020026020018201604052801561199057816020015b61197d613c24565b8152602001906001900390816119755790505b50925061199b613b4b565b60005b82811015611a04578381815181106119b8576119b8614cb7565b6020026020010151915060405180604001604052808381526020016119dc84612de7565b8152508582815181106119f1576119f1614cb7565b602090810291909101015260010161199e565b505050509392505050565b611a17613b4b565b611a1f613ba0565b60405163c02c63ad60e01b8152600481018490527f00000000000000000000000000000000000000000000000000000000000000006001600160a01b03169063c02c63ad90602401610d6a565b611a74613b4b565b611a7c613ba0565b6040516360f630f760e11b8152600481018490526000907f00000000000000000000000000000000000000000000000000000000000000006001600160a01b03169063c1ec61ee9060240161014060405180830381865afa158015611ae5573d6000803e3d6000fd5b505050506040513d601f19601f82011682018060405250810190611b099190614ccd565b9093509050611b1783612de7565b91509193909250565b6040516301ffc9a760e01b81526334ce2c7b60e21b60048201526001600160a01b038316906301ffc9a790602401602060405180830381865afa158015611b6b573d6000803e3d6000fd5b505050506040513d601f19601f82011682018060405250810190611b8f9190614b83565b8015611c3a5750816001600160a01b03167f00000000000000000000000000000000000000000000000000000000000000006001600160a01b0316635dd8f6aa836040518263ffffffff1660e01b8152600401611bee91815260200190565b602060405180830381865afa158015611c0b573d6000803e3d6000fd5b505050506040513d601f19601f82011682018060405250810190611c2f91906149b6565b6001600160a01b0316145b15611cc75760405163a312889b60e01b8152600481018290526001600160a01b0383169063a312889b90602401600060405180830381865afa158015611c84573d6000803e3d6000fd5b505050506040513d6000823e601f3d908101601f19168201604052611cac9190810190614d00565b600082815260016020526040902090611cc59082614d6d565b505b5050565b600085600003611cee576040516327f44f9560e21b815260040160405180910390fd5b6040516321d1336160e11b81526004810188905260009081906001600160a01b037f000000000000000000000000000000000000000000000000000000000000000016906343a266c29060240161012060405180830381865afa158015611d59573d6000803e3d6000fd5b505050506040513d601f19601f82011682018060405250810190611d7d9190614a96565b6040516331a9108f60e11b8152600481018b9052909150611f2a906001600160a01b037f00000000000000000000000000000000000000000000000000000000000000001690636352211e90602401602060405180830381865afa158015611de9573d6000803e3d6000fd5b505050506040513d601f19601f82011682018060405250810190611e0d91906149b6565b8a60097f00000000000000000000000000000000000000000000000000000000000000006001600160a01b0316636e49181f8e611e48612909565b6040516001600160e01b031960e085901b16815260048101929092526001600160a01b03166024820152604401602060405180830381865afa158015611e92573d6000803e3d6000fd5b505050506040513d601f19601f82011682018060405250810190611eb69190614b83565b80611ee15750610100850151604f1c6001600160a01b0316611ed6612909565b6001600160a01b0316145b8061154357506000611ef8866101000151604f1c90565b6001600160a01b0316141580156115435750610100850151604f1c6001600160a01b031663677ce0888e6114d5612909565b602081015115801590611f49575061010081015160461c600190811614155b8015611ff857507f00000000000000000000000000000000000000000000000000000000000000006001600160a01b0316636e49181f8a611f88612909565b6040516001600160e01b031960e085901b16815260048101929092526001600160a01b03166024820152604401602060405180830381865afa158015611fd2573d6000803e3d6000fd5b505050506040513d601f19601f82011682018060405250810190611ff69190614b83565b155b80156120255750610100810151604f1c6001600160a01b0316612019612909565b6001600160a01b031614155b80156120dd5750600061203d826101000151604f1c90565b6001600160a01b031614806120dd5750610100810151604f1c6001600160a01b031663677ce0888a61206d612909565b6040516001600160e01b031960e085901b16815260048101929092526001600160a01b03166024820152604401602060405180830381865afa1580156120b7573d6000803e3d6000fd5b505050506040513d601f19601f820116820180604052508101906120db9190614b83565b155b156120fb57604051633022e3df60e11b815260040160405180910390fd5b83612107576000612115565b61010081015160041c61ffff165b915061271082146121be576121388861213084612710614e2c565b612710612f06565b60405163aab68bdb60e01b81529093506001600160a01b037f0000000000000000000000000000000000000000000000000000000000000000169063aab68bdb9061218b908a908d908890600401614ba0565b600060405180830381600087803b1580156121a557600080fd5b505af11580156121b9573d6000803e3d6000fd5b505050505b81156121f2576121ce8389614e2c565b60008a815260208190526040812080549091906121ec908490614ac9565b90915550505b88876001600160a01b03167fe6fee9c572244c0c2238c3112ac12d411750a7ee00eeebd32521c3e5a666c14b8a868a8a8861222b612909565b60405161223d96959493929190614e3f565b60405180910390a350509695505050505050565b6040516331a9108f60e11b8152600481018590526122e6907f00000000000000000000000000000000000000000000000000000000000000006001600160a01b031690636352211e90602401602060405180830381865afa1580156122ba573d6000803e3d6000fd5b505050506040513d601f19601f820116820180604052508101906122de91906149b6565b856011612c55565b604051636eaf90a560e11b81526001600160a01b037f0000000000000000000000000000000000000000000000000000000000000000169063dd5f214a90610cd9908790879087908790600401614e82565b6040516331a9108f60e11b8152600481018390526123cd907f00000000000000000000000000000000000000000000000000000000000000006001600160a01b031690636352211e90602401602060405180830381865afa1580156123a1573d6000803e3d6000fd5b505050506040513d601f19601f820116820180604052508101906123c591906149b6565b836008612c55565b60405163f12b64a560e01b8152600481018390526001600160a01b0382811660248301527f0000000000000000000000000000000000000000000000000000000000000000169063f12b64a590604401600060405180830381600087803b15801561243757600080fd5b505af115801561244b573d6000803e3d6000fd5b505050505050565b60008161245e613c49565b60005b8281101561273a5785858281811061247b5761247b614cb7565b905060200281019061248d9190614fd8565b6124969061541e565b91506127108260a001516000015111156124c357604051635623289560e01b815260040160405180910390fd5b6127108260a001516020015111156124ee57604051639db9ee9360e01b815260040160405180910390fd5b60a08201516040015163ffffffff101561251b5760405163e83c625560e01b815260040160405180910390fd5b60007f00000000000000000000000000000000000000000000000000000000000000006001600160a01b03166370174dcc89856020015186604001518760600151886080015161256e8a60a00151612fe5565b8a5160405160e089901b6001600160e01b031916815260048101979097526024870195909552604486019390935260648501919091526001600160a01b0316608484015260a483015260c482015260e401610120604051808303816000875af11580156125df573d6000803e3d6000fd5b505050506040513d601f19601f820116820180604052508101906126039190614a96565b602081015160c0850151604051636eaf90a560e11b81529293506001600160a01b037f0000000000000000000000000000000000000000000000000000000000000000169263dd5f214a9261265c928d92600401615520565b600060405180830381600087803b15801561267657600080fd5b505af115801561268a573d6000803e3d6000fd5b505050602082015160e085015160405163971e467760e01b81526001600160a01b037f000000000000000000000000000000000000000000000000000000000000000016935063971e4677926126e4928d92600401615622565b600060405180830381600087803b1580156126fe57600080fd5b505af1158015612712573d6000803e3d6000fd5b505050506001846127239190614e2c565b820361273157806020015194505b50600101612461565b5050509392505050565b806000816001600160401b0381111561275f5761275f613d78565b604051908082528060200260200182016040528015612788578160200160208202803683370190505b5060408051808201909152600081526060602082015290915060005b8381101561287a578585828181106127be576127be614cb7565b90506020028101906127d091906156c8565b6127d9906156de565b8051602082015160405163263a91ff60e21b81529294506001600160a01b03909116916398ea47fc91612811918b9190600401615795565b600060405180830381600087803b15801561282b57600080fd5b505af115801561283f573d6000803e3d6000fd5b50505050816000015183828151811061285a5761285a614cb7565b6001600160a01b03909216602092830291909101909101526001016127a4565b50821561244b5760405163104373fb60e31b81526001600160a01b037f0000000000000000000000000000000000000000000000000000000000000000169063821b9fd8906128cf9089908690600401615795565b600060405180830381600087803b1580156128e957600080fd5b505af11580156128fd573d6000803e3d6000fd5b50505050505050505050565b600061291361313b565b905090565b60008181526020819052604081205490819003612948576040516318615bc360e31b815260040160405180910390fd5b6040516321d1336160e11b8152600481018390526000907f00000000000000000000000000000000000000000000000000000000000000006001600160a01b0316906343a266c29060240161012060405180830381865afa1580156129b1573d6000803e3d6000fd5b505050506040513d601f19601f820116820180604052508101906129d59190614a96565b600084815260208190526040808220829055516331a9108f60e11b815260048101869052919250907f00000000000000000000000000000000000000000000000000000000000000006001600160a01b031690636352211e90602401602060405180830381865afa158015612a4e573d6000803e3d6000fd5b505050506040513d601f19601f82011682018060405250810190612a7291906149b6565b905060008315612a9257612a8d8584602001516001876131b0565b612a95565b60005b90508015612b205760405163aab68bdb60e01b81526001600160a01b037f0000000000000000000000000000000000000000000000000000000000000000169063aab68bdb90612aed90859089908690600401614ba0565b600060405180830381600087803b158015612b0757600080fd5b505af1158015612b1b573d6000803e3d6000fd5b505050505b84836000015184602001517f32411cac611c47cfe73afc187645c9cf3aec828d5f91780138d8421378fc0edb858886612b57612909565b604080516001600160a01b0395861681526020810194909452830191909152909116606082015260800160405180910390a4505050919050565b604080516001600160a01b038416602482015260448082018490528251808303909101815260649091019091526020810180516001600160e01b031663095ea7b360e01b179052612be28482613905565b612c4f576040516001600160a01b03848116602483015260006044830152612c4591869182169063095ea7b3906064015b604051602081830303815290604052915060e01b6020820180516001600160e01b0383818316178352505050506139ad565b612c4f84826139ad565b50505050565b6000612c5f612909565b9050836001600160a01b0316816001600160a01b031614158015612d20575060405163c161c93f60e01b81526001600160a01b038281166004830152858116602483015260448201859052606482018490527f0000000000000000000000000000000000000000000000000000000000000000169063c161c93f90608401602060405180830381865afa158015612cfa573d6000803e3d6000fd5b505050506040513d601f19601f82011682018060405250810190612d1e9190614b83565b155b8015612dc9575060405163c161c93f60e01b81526001600160a01b038281166004830152858116602483015260006044830152606482018490527f0000000000000000000000000000000000000000000000000000000000000000169063c161c93f90608401602060405180830381865afa158015612da3573d6000803e3d6000fd5b505050506040513d601f19601f82011682018060405250810190612dc79190614b83565b155b15612c4f5760405163075fd2b160e01b815260040160405180910390fd5b612def613ba0565b506040805161020081018252610100928301805160041c61ffff9081168352815160141c81166020840152815160241c63ffffffff16938301939093528051600160449190911c811681146060840152815160451c811681146080840152815160461c8116811460a0840152815160471c8116811460c0840152815160481c8116811460e0840152815160491c81168114948301949094528051604a1c841684146101208301528051604b1c841684146101408301528051604c1c841684146101608301528051604d1c841684146101808301528051604e1c84169093146101a08201528251604f1c6001600160a01b03166101c0820152915160ef1c166101e082015290565b80612c4f57612c4f848484612c55565b6000808060001985870985870292508281108382030391505080600003612f4057838281612f3657612f366157ee565b0492505050612fde565b838110612f7657604051630c740aef60e31b81526004810187905260248101869052604481018590526064015b60405180910390fd5b600084868809851960019081018716968790049682860381900495909211909303600082900391909104909201919091029190911760038402600290811880860282030280860282030280860282030280860282030280860282030280860290910302029150505b9392505050565b805160208201516040830151606084015160249190911b60149290921b60049390931b929092171760011790156130225768100000000000000000175b8160800151156130385768200000000000000000175b8160a001511561304e5768400000000000000000175b8160c00151156130645768800000000000000000175b8160e001511561307b576901000000000000000000175b81610100015115613093576902000000000000000000175b816101200151156130ab576904000000000000000000175b816101400151156130c3576908000000000000000000175b816101600151156130db576910000000000000000000175b816101800151156130f3576920000000000000000000175b816101a001511561310b576940000000000000000000175b6101c08201516101e09092015160ef1b6980000000000000000000600160ef1b03604f9390931b92909216171790565b6000366014336001600160a01b037f0000000000000000000000000000000000000000000000000000000000000000161480156131785750808210155b156131a85760003661318a8385614e2c565b613195928290615804565b61319e9161582e565b60601c9250505090565b339250505090565b6040516369e11cc560e01b815260048101859052602481018490526044810183905281906000907f00000000000000000000000000000000000000000000000000000000000000006001600160a01b0316906369e11cc590606401600060405180830381865afa158015613228573d6000803e3d6000fd5b505050506040513d6000823e601f3d908101601f191682016040526132509190810190615863565b805190915060005b818110156138fa57600083828151811061327457613274614cb7565b602002602001015190506000613293878360200151633b9aca00612f06565b905080156138ab5760a08201516001600160a01b0316156134605760a082015160405163aab68bdb60e01b81526001600160a01b037f0000000000000000000000000000000000000000000000000000000000000000169163aab68bdb9161330291908e908690600401614ba0565b600060405180830381600087803b15801561331c57600080fd5b505af1158015613330573d6000803e3d6000fd5b505060405163ea78803f60e01b8152600481018d9052600092507f00000000000000000000000000000000000000000000000000000000000000006001600160a01b0316915063ea78803f90602401602060405180830381865afa15801561339c573d6000803e3d6000fd5b505050506040513d601f19601f820116820180604052508101906133c091906149b6565b90508260a001516001600160a01b03166312903a856040518060c00160405280846001600160a01b03168152602001858152602001601281526020018e81526020018c8152602001868152506040518263ffffffff1660e01b8152600401613428919061594d565b600060405180830381600087803b15801561344257600080fd5b505af1158015613456573d6000803e3d6000fd5b505050505061389e565b60608201516000906001600160a01b03166134825761347d612909565b613488565b82606001515b905082604001516000146138195760405163ea78803f60e01b8152600481018c90526000907f00000000000000000000000000000000000000000000000000000000000000006001600160a01b03169063ea78803f90602401602060405180830381865afa1580156134fe573d6000803e3d6000fd5b505050506040513d601f19601f8201168201806040525081019061352291906149b6565b905060006001600160a01b038216156135d1576040858101519051630862026560e41b815260048101919091526001600160a01b0383811660248301527f00000000000000000000000000000000000000000000000000000000000000001690638620265090604401602060405180830381865afa1580156135a8573d6000803e3d6000fd5b505050506040513d601f19601f820116820180604052508101906135cc91906149b6565b6135d4565b60005b90506001600160a01b03821615806135f357506001600160a01b038116155b1561367f577f00000000000000000000000000000000000000000000000000000000000000006001600160a01b031663aab68bdb848f876040518463ffffffff1660e01b815260040161364893929190614ba0565b600060405180830381600087803b15801561366257600080fd5b505af1158015613676573d6000803e3d6000fd5b50505050613812565b7f00000000000000000000000000000000000000000000000000000000000000006001600160a01b031663aab68bdb308f876040518463ffffffff1660e01b81526004016136cf93929190614ba0565b600060405180830381600087803b1580156136e957600080fd5b505af11580156136fd573d6000803e3d6000fd5b5050505060008d60405160200161371691815260200190565b60408051601f1981840301815282825290880151630a1181ed60e01b83529092503091630a1181ed916137569186919088908b908b9089906004016159a1565b600060405180830381600087803b15801561377057600080fd5b505af1925050508015613781575060015b613810573d8080156137af576040519150601f19603f3d011682016040523d82523d6000602084013e6137b4565b606091505b506137c96001600160a01b0385168688613a10565b8e7feb1c69f596057b3b93b14d290bc52c6ddc7b7fa47184a8be88a30c656eac83e88888846137f6612909565b60405161380694939291906159ef565b60405180910390a2505b505b505061389c565b60405163aab68bdb60e01b81526001600160a01b037f0000000000000000000000000000000000000000000000000000000000000000169063aab68bdb906138699084908f908790600401614ba0565b600060405180830381600087803b15801561388357600080fd5b505af1158015613897573d6000803e3d6000fd5b505050505b505b6138a88187614e2c565b95505b87898b7f5b9f38b2a849d80d4925a023ac038581d16642209624dc7b8353077d36a7682485856138d9612909565b6040516138e893929190615a31565b60405180910390a45050600101613258565b505050949350505050565b6000806000846001600160a01b0316846040516139229190615a5f565b6000604051808303816000865af19150503d806000811461395f576040519150601f19603f3d011682016040523d82523d6000602084013e613964565b606091505b509150915081801561398e57508051158061398e57508080602001905181019061398e9190614b83565b80156139a457506000856001600160a01b03163b115b95945050505050565b60006139c26001600160a01b03841683613a41565b905080516000141580156139e75750808060200190518101906139e59190614b83565b155b15611cc557604051635274afe760e01b81526001600160a01b0384166004820152602401612f6d565b6040516001600160a01b03838116602483015260448201839052611cc591859182169063a9059cbb90606401612c13565b6060612fde8383600084600080856001600160a01b03168486604051613a679190615a5f565b60006040518083038185875af1925050503d8060008114613aa4576040519150601f19603f3d011682016040523d82523d6000602084013e613aa9565b606091505b5091509150613ab9868383613ac3565b9695505050505050565b606082613ad857613ad382613b1f565b612fde565b8151158015613aef57506001600160a01b0384163b155b15613b1857604051639996b31560e01b81526001600160a01b0385166004820152602401612f6d565b5080612fde565b805115613b2f5780518082602001fd5b604051630a12f52160e11b815260040160405180910390fd5b50565b6040518061012001604052806000815260200160008152602001600081526020016000815260200160008152602001600081526020016000815260200160006001600160a01b03168152602001600081525090565b6040805161020081018252600080825260208201819052918101829052606081018290526080810182905260a0810182905260c0810182905260e08101829052610100810182905261012081018290526101408101829052610160810182905261018081018290526101a081018290526101c081018290526101e081019190915290565b6040518060400160405280613c37613b4b565b8152602001613c44613ba0565b905290565b6040518061010001604052806000815260200160008152602001600081526020016000815260200160006001600160a01b03168152602001613c89613ba0565b815260200160608152602001606081525090565b600060208284031215613caf57600080fd5b81356001600160e01b031981168114612fde57600080fd5b6001600160a01b0381168114613b4857600080fd5b8035613ce781613cc7565b919050565b60008083601f840112613cfe57600080fd5b5081356001600160401b03811115613d1557600080fd5b602083019150836020828501011115613d2d57600080fd5b9250929050565b60008083601f840112613d4657600080fd5b5081356001600160401b03811115613d5d57600080fd5b6020830191508360208260051b8501011115613d2d57600080fd5b634e487b7160e01b600052604160045260246000fd5b60405161012081016001600160401b0381118282101715613db157613db1613d78565b60405290565b60405161020081016001600160401b0381118282101715613db157613db1613d78565b604080519081016001600160401b0381118282101715613db157613db1613d78565b60405160c081016001600160401b0381118282101715613db157613db1613d78565b604051608081016001600160401b0381118282101715613db157613db1613d78565b60405161010081016001600160401b0381118282101715613db157613db1613d78565b604051601f8201601f191681016001600160401b0381118282101715613e8b57613e8b613d78565b604052919050565b60006001600160401b03821115613eac57613eac613d78565b50601f01601f191660200190565b600082601f830112613ecb57600080fd5b8135613ede613ed982613e93565b613e63565b818152846020838601011115613ef357600080fd5b816020850160208301376000918101602001919091529392505050565b60008060008060008060008060a0898b031215613f2c57600080fd5b8835613f3781613cc7565b975060208901356001600160401b0380821115613f5357600080fd5b613f5f8c838d01613cec565b909950975060408b0135915080821115613f7857600080fd5b613f848c838d01613d34565b909750955060608b0135915080821115613f9d57600080fd5b613fa98c838d01613d34565b909550935060808b0135915080821115613fc257600080fd5b50613fcf8b828c01613eba565b9150509295985092959890939650565b600060208284031215613ff157600080fd5b5035919050565b600080600080600080600060c0888a03121561401357600080fd5b873561401e81613cc7565b965060208801359550604088013561403581613cc7565b945060608801359350608088013561404c81613cc7565b925060a08801356001600160401b0381111561406757600080fd5b6140738a828b01613cec565b989b979a50959850939692959293505050565b6000806000806000806080878903121561409f57600080fd5b8635955060208701356001600160401b03808211156140bd57600080fd5b6140c98a838b01613d34565b909750955060408901359150808211156140e257600080fd5b6140ee8a838b01613d34565b9095509350606089013591508082111561410757600080fd5b5061411489828a01613eba565b9150509295509295509295565b6000806040838503121561413457600080fd5b50508035926020909101359150565b805182526020808201519083015260408082015190830152606080820151908301526080808201519083015260a0808201519083015260c0808201519083015260e0808201516001600160a01b03169083015261010090810151910152565b80518252602081015160208301526040810151604083015260608101516141cd606084018215159052565b5060808101516141e1608084018215159052565b5060a08101516141f560a084018215159052565b5060c081015161420960c084018215159052565b5060e081015161421d60e084018215159052565b5061010081810151151590830152610120808201511515908301526101408082015115159083015261016080820151151590830152610180808201511515908301526101a0808201511515908301526101c0808201516001600160a01b0316908301526101e090810151910152565b610320810161429b8285614143565b612fde6101208301846141a2565b600080600080608085870312156142bf57600080fd5b84356142ca81613cc7565b9350602085013592506040850135915060608501356142e881613cc7565b939692955090935050565b6000806040838503121561430657600080fd5b82359150602083013561431881613cc7565b809150509250929050565b60006020828403121561433557600080fd5b8135612fde81613cc7565b6000806000806000806080878903121561435957600080fd5b8635955060208701356001600160401b038082111561437757600080fd5b6143838a838b01613cec565b9097509550604089013591508082111561439c57600080fd5b506143a989828a01613cec565b979a9699509497949695606090950135949350505050565b6000806000604084860312156143d657600080fd5b8335925060208401356001600160401b038111156143f357600080fd5b6143ff86828701613cec565b9497909650939450505050565b60008060008060006060868803121561442457600080fd5b8535945060208601356001600160401b038082111561444257600080fd5b61444e89838a01613d34565b9096509450604088013591508082111561446757600080fd5b5061447488828901613cec565b969995985093965092949392505050565b60008060008060006080868803121561449d57600080fd5b85356144a881613cc7565b9450602086013593506040860135925060608601356001600160401b038111156144d157600080fd5b61447488828901613cec565b60005b838110156144f85781810151838201526020016144e0565b50506000910152565b600081518084526145198160208601602086016144dd565b601f01601f19169290920160200192915050565b602081526000612fde6020830184614501565b6000806000806080858703121561455657600080fd5b843561456181613cc7565b935060208501359250604085013561457881613cc7565b9396929550929360600135925050565b60008060006060848603121561459d57600080fd5b505081359360208301359350604090920135919050565b6020808252825182820181905260009190848201906040850190845b8181101561460b5783516145e5848251614143565b8501516145f66101208501826141a2565b509284019261032092909201916001016145d0565b50909695505050505050565b61034081016146268286614143565b6146346101208301856141a2565b6006831061465257634e487b7160e01b600052602160045260246000fd5b82610320830152949350505050565b6000806040838503121561467457600080fd5b823561467f81613cc7565b946020939093013593505050565b8015158114613b4857600080fd5b8035613ce78161468d565b60008060008060008060a087890312156146bf57600080fd5b863595506020870135945060408701356146d881613cc7565b935060608701356001600160401b038111156146f357600080fd5b6146ff89828a01613cec565b90945092505060808701356147138161468d565b809150509295509295509295565b6000806000806060858703121561473757600080fd5b843593506020850135925060408501356001600160401b0381111561475b57600080fd5b61476787828801613d34565b95989497509550505050565b60006020828403121561478557600080fd5b5051919050565b600181811c908216806147a057607f821691505b6020821081036147c057634e487b7160e01b600052602260045260246000fd5b50919050565b601f821115611cc5576000816000526020600020601f850160051c810160208610156147ef5750805b601f850160051c820191505b8181101561244b578281556001016147fb565b6001600160401b0383111561482557614825613d78565b61483983614833835461478c565b836147c6565b6000601f84116001811461486d57600085156148555750838201355b600019600387901b1c1916600186901b1783556148c7565b600083815260209020601f19861690835b8281101561489e578685013582556020948501946001909201910161487e565b50868210156148bb5760001960f88860031b161c19848701351681555b505060018560011b0183555b5050505050565b81835281816020850137506000828201602090810191909152601f909101601f19169091010190565b86815285602082015260a06040820152600061491760a0830186886148ce565b82810360608401526149298186614501565b91505060018060a01b0383166080830152979650505050505050565b878152600060018060a01b03808916602084015287604084015280871660608401525084608083015260e060a0830152600060e08301526101008060c084015261499281840185876148ce565b9a9950505050505050505050565b634e487b7160e01b600052600160045260246000fd5b6000602082840312156149c857600080fd5b8151612fde81613cc7565b8481528360208201526080604082015260006149f26080830185614501565b905060018060a01b038316606083015295945050505050565b8051613ce781613cc7565b60006101208284031215614a2957600080fd5b614a31613d8e565b9050815181526020820151602082015260408201516040820152606082015160608201526080820151608082015260a082015160a082015260c082015160c0820152614a7f60e08301614a0b565b60e082015261010080830151818301525092915050565b60006101208284031215614aa957600080fd5b612fde8383614a16565b634e487b7160e01b600052601160045260246000fd5b8082018082111561069957610699614ab3565b868152608060208201526000614af66080830187896148ce565b8281036040840152614b098186886148ce565b915050826060830152979650505050505050565b604081526000614b316040830185876148ce565b905060018060a01b0383166020830152949350505050565b858152846020820152608060408201526000614b696080830185876148ce565b905060018060a01b03831660608301529695505050505050565b600060208284031215614b9557600080fd5b8151612fde8161468d565b6001600160a01b039390931683526020830191909152604082015260600190565b848152606060208201526000614bdb6060830185876148ce565b905060018060a01b038316604083015295945050505050565b60006001600160401b03821115614c0d57614c0d613d78565b5060051b60200190565b60006020808385031215614c2a57600080fd5b82516001600160401b03811115614c4057600080fd5b8301601f81018513614c5157600080fd5b8051614c5f613ed982614bf4565b808282526020820191506101206020818502860101935088841115614c8357600080fd5b6020850194505b83851015614cab57614c9c8986614a16565b83529384019391850191614c8a565b50979650505050505050565b634e487b7160e01b600052603260045260246000fd5b6000806101408385031215614ce157600080fd5b614ceb8484614a16565b91506101208301516006811061431857600080fd5b600060208284031215614d1257600080fd5b81516001600160401b03811115614d2857600080fd5b8201601f81018413614d3957600080fd5b8051614d47613ed982613e93565b818152856020838501011115614d5c57600080fd5b6139a48260208301602086016144dd565b81516001600160401b03811115614d8657614d86613d78565b614d9a81614d94845461478c565b846147c6565b602080601f831160018114614dcf5760008415614db75750858301515b600019600386901b1c1916600185901b17855561244b565b600085815260208120601f198616915b82811015614dfe57888601518255948401946001909101908401614ddf565b5085821015614e1c5787850151600019600388901b60f8161c191681555b5050505050600190811b01905550565b8181038181111561069957610699614ab3565b86815285602082015260a060408201526000614e5f60a0830186886148ce565b6060830194909452506001600160a01b0391909116608090910152949350505050565b6000606080830187845260208781860152604060606040870152828784526080935060808701905060808860051b8801018960005b8a811015614fc657898303607f190184528135368d9003603e19018112614edd57600080fd5b8c01803584528386018782013536839003601e19018112614efd57600080fd5b9091018781019190356001600160401b03811115614f1a57600080fd5b60c08082023603841315614f2d57600080fd5b868a01899052918190526000918b87015b82841015614fb0578435614f518161468d565b15158152848b01358b820152898501358a8201528c850135614f7281613cc7565b6001600160a01b03908116828f0152858d01358d83015260a09086820135614f9981613cc7565b169082015293810193600193909301928101614f3e565b978a019796505050928701925050600101614eb7565b50909c9b505050505050505050505050565b600082356102de19833603018112614fef57600080fd5b9190910192915050565b6000610200828403121561500c57600080fd5b615014613db7565b905081358152602082013560208201526040820135604082015261503a6060830161469b565b606082015261504b6080830161469b565b608082015261505c60a0830161469b565b60a082015261506d60c0830161469b565b60c082015261507e60e0830161469b565b60e082015261010061509181840161469b565b908201526101206150a383820161469b565b908201526101406150b583820161469b565b908201526101606150c783820161469b565b908201526101806150d983820161469b565b908201526101a06150eb83820161469b565b908201526101c06150fd838201613cdc565b81830152506101e080830135818301525092915050565b600082601f83011261512557600080fd5b81356020615135613ed983614bf4565b82815260059290921b8401810191818101908684111561515457600080fd5b8286015b8481101561528d5780356001600160401b038082111561517757600080fd5b908801906040828b03601f190181131561519057600080fd5b615198613dda565b87840135815281840135838111156151af57600080fd5b8085019450508b603f8501126151c457600080fd5b8784013592506151d6613ed984614bf4565b83815260c09093028401820192888101908d8511156151f457600080fd5b948301945b848610156152785760c0868f03121561521157600080fd5b615219613dfc565b86356152248161468d565b8152868b01358b8201528487013585820152606087013561524481613cc7565b60608201526080878101359082015260a087013561526181613cc7565b60a0820152825260c09590950194908901906151f9565b828a0152508652505050918301918301615158565b509695505050505050565b600082601f8301126152a957600080fd5b813560206152b9613ed983614bf4565b82815260069290921b840181019181810190868411156152d857600080fd5b8286015b8481101561528d57604081890312156152f55760008081fd5b6152fd613dda565b8135815284820135858201528352918301916040016152dc565b600082601f83011261532857600080fd5b81356020615338613ed983614bf4565b82815260059290921b8401810191818101908684111561535757600080fd5b8286015b8481101561528d5780356001600160401b038082111561537b5760008081fd5b908801906080828b03601f19018113156153955760008081fd5b61539d613e1e565b878401356153aa81613cc7565b81526040848101356153bb81613cc7565b828a0152606085810135858111156153d35760008081fd5b6153e18f8c838a0101615298565b84840152509285013592848411156153fb57600091508182fd5b6154098e8b86890101615298565b9083015250865250505091830191830161535b565b60006102e0823603121561543157600080fd5b615439613e40565b8235815260208301356020820152604083013560408201526060830135606082015261546760808401613cdc565b60808201526154793660a08501614ff9565b60a08201526102a08301356001600160401b038082111561549957600080fd5b6154a536838701615114565b60c08401526102c08501359150808211156154bf57600080fd5b506154cc36828601615317565b60e08301525092915050565b80511515825260208082015190830152604080820151908301526060808201516001600160a01b03908116918401919091526080808301519084015260a09182015116910152565b600060608083018684526020868186015260406060604087015282875180855260808801915060808160051b89010194508389016000805b838110156155c9578a8803607f190185528251805189528701518789018790528051878a018190529088019083908b8b01905b808310156155b45761559e8285516154d8565b60c0820191508a8401935060018301925061558b565b50995050509386019391860191600101615558565b50959c9b505050505050505050505050565b60008151808452602080850194506020840160005b838110156156175781518051885283015183880152604090960195908201906001016155f0565b509495945050505050565b60006060808301868452602086818601526040606060408701528287518085526080945060808801915060808160051b890101848a0160005b83811015614fc6578a8303607f19018552815180516001600160a01b039081168552888201511688850152868101518785018a905261569c8a8601826155db565b918b0151858303868d01529190506156b481836155db565b96890196945050509086019060010161565b565b60008235603e19833603018112614fef57600080fd5b6000604082360312156156f057600080fd5b6156f8613dda565b823561570381613cc7565b81526020838101356001600160401b0381111561571f57600080fd5b840136601f82011261573057600080fd5b803561573e613ed982614bf4565b81815260059190911b8201830190838101903683111561575d57600080fd5b928401925b8284101561578457833561577581613cc7565b82529284019290840190615762565b938501939093525091949350505050565b60006040820184835260206040602085015281855180845260608601915060208701935060005b818110156157e15784516001600160a01b0316835293830193918301916001016157bc565b5090979650505050505050565b634e487b7160e01b600052601260045260246000fd5b6000808585111561581457600080fd5b8386111561582157600080fd5b5050820193919092039150565b6bffffffffffffffffffffffff19813581811691601485101561585b5780818660140360031b1b83161692505b505092915050565b6000602080838503121561587657600080fd5b82516001600160401b0381111561588c57600080fd5b8301601f8101851361589d57600080fd5b80516158ab613ed982614bf4565b81815260c091820283018401918482019190888411156158ca57600080fd5b938501935b83851015614cab5780858a0312156158e75760008081fd5b6158ef613dfc565b85516158fa8161468d565b815285870151878201526040808701519082015260608087015161591d81613cc7565b908201526080868101519082015260a08087015161593a81613cc7565b90820152835293840193918501916158cf565b81516001600160a01b031681526020808301519082015260408083015190820152606080830151908201526080808301519082015260a08281015161016083019161599a908401826154d8565b5092915050565b6001600160a01b038781168252602082018790528581166040830152606082018590528316608082015260c060a082018190526000906159e390830184614501565b98975050505050505050565b60006101206159fe83886154d8565b8560c08401528060e0840152615a1681840186614501565b91505060018060a01b03831661010083015295945050505050565b6101008101615a4082866154d8565b60c08201939093526001600160a01b039190911660e090910152919050565b60008251614fef8184602087016144dd56fea26469706673582212200aefd98dfbe6d44cb4e770046bc1d9bcd2a16d2a5d23eeae4a580e6e523a128764736f6c63430008170033",
			"deployedBytecode": "0x608060405234801561001057600080fd5b50600436106102115760003560e01c80637da0a87711610125578063c02c63ad116100ad578063d4a1b4b11161007c578063d4a1b4b114610561578063dd5f214a14610588578063f12b64a51461059b578063f434c914146105ae578063ffa08244146105d557600080fd5b8063c02c63ad14610506578063c1ec61ee14610519578063c5b19b0e1461053b578063c7fb92de1461054e57600080fd5b8063a2d532e6116100f4578063a2d532e61461048d578063a312889b146104a0578063b1a50e33146104c0578063b1e6d2a1146104d3578063b51d6244146104e657600080fd5b80637da0a8771461041a57806388bc2ef31461044057806399d25a3414610467578063a0d8e2a91461047a57600080fd5b8063293c4999116101a85780634da781a9116101775780634da781a91461038e5780635338fd9e146103a1578063572b6c05146103b457806358178191146103f4578063702a39771461040757600080fd5b8063293c499914610321578063303f5dfa14610348578063399755711461035b578063419296261461037b57600080fd5b80631d831d5c116101e45780631d831d5c146102875780631ea7bc8c146102c65780631f47ce69146102d957806325a61d5c1461030057600080fd5b806301ffc9a7146102165780630634bae91461023e578063090db2f11461025f5780630a1181ed14610272575b600080fd5b610229610224366004613c9d565b6105fc565b60405190151581526020015b60405180910390f35b61025161024c366004613f10565b61069f565b604051908152602001610235565b61025161026d366004613fdf565b610842565b610285610280366004613ff8565b61084d565b005b6102ae7f000000000000000000000000792b79adb4aa06eddabd6ddef5ee06dcb946f43681565b6040516001600160a01b039091168152602001610235565b6102516102d4366004614086565b610970565b6102ae7f000000000000000000000000f271e7329ed20b9b61bd5a13593e1f5bb609864481565b61031361030e366004614121565b610bb8565b60405161023592919061428c565b6102ae7f000000000000000000000000f9dada4628eb3992202cf253625d4ecebbc1592f81565b6102856103563660046142a9565b610c6d565b610251610369366004613fdf565b60006020819052908152604090205481565b610313610389366004613fdf565b610d11565b61025161039c366004613fdf565b610dbe565b6102856103af3660046142f3565b610e60565b6102296103c2366004614323565b7f000000000000000000000000b2b5841dbef766d4b521221732f9b618fcf34a876001600160a01b0390811691161490565b6102ae610402366004614340565b611084565b6102856104153660046143c1565b611216565b7f000000000000000000000000b2b5841dbef766d4b521221732f9b618fcf34a876102ae565b6102ae7f000000000000000000000000cd8c4da77dfb15c05486d3f71ee4c2c0dfdbc94e81565b610229610475366004613fdf565b611300565b61025161048836600461440c565b6113a2565b61028561049b366004614485565b611496565b6104b36104ae366004613fdf565b611641565b604051610235919061452d565b6102296104ce366004613fdf565b6116db565b6102856104e1366004614540565b611739565b6104f96104f4366004614588565b611899565b60405161023591906145b4565b610313610514366004613fdf565b611a0f565b61052c610527366004613fdf565b611a6c565b60405161023593929190614617565b610285610549366004614661565b611b20565b61025161055c3660046146a6565b611ccb565b6102ae7f000000000000000000000000077044a51c5481544acf8bcb654f68e13f167b9f81565b610285610596366004614721565b612251565b6102856105a93660046142f3565b612338565b6102ae7f0000000000000000000000001e2e8562b635fe19978640c784e47865a83d660581565b6102ae7f000000000000000000000000fc33a725b53856208fe911e25b72c6e46dc95aad81565b60006001600160e01b03198216631519df1760e21b148061062d57506001600160e01b031982166334ce2c7b60e21b145b8061064857506001600160e01b03198216632877540760e01b145b8061066357506001600160e01b031982166362d8cd8760e11b145b8061067e57506001600160e01b03198216633d0d324560e21b145b8061069957506001600160e01b031982166301ffc9a760e01b145b92915050565b60405163180e2b1160e31b81526001600160a01b0389811660048301526000917f000000000000000000000000f9dada4628eb3992202cf253625d4ecebbc1592f9091169063c0715888906024016020604051808303816000875af115801561070c573d6000803e3d6000fd5b505050506040513d601f19601f820116820180604052508101906107309190614773565b90508615610753576000818152600160205260409020610751888a8361480e565b505b6040516338a73f9960e11b8152600481018290523060248201527f000000000000000000000000cd8c4da77dfb15c05486d3f71ee4c2c0dfdbc94e6001600160a01b03169063714e7f3290604401600060405180830381600087803b1580156107bb57600080fd5b505af11580156107cf573d6000803e3d6000fd5b5050505060006107e0828888612453565b90506107ed828686612744565b7f8dac501f24f52bda9ebdfa6a1789878c1d1e23823c771f7d52b5ba41261b0f4581838b8b8761081b612909565b60405161082d969594939291906148f7565b60405180910390a15098975050505050505050565b600061069982612918565b33301461085957600080fd5b61086d6001600160a01b0386168886612b91565b60405163fef4325760e01b81526001600160a01b0388169063fef43257906108a69089908990899089906000908a908a90600401614945565b6020604051808303816000875af11580156108c5573d6000803e3d6000fd5b505050506040513d601f19601f820116820180604052508101906108e99190614773565b50604051636eb1769f60e11b81523060048201526001600160a01b03888116602483015286169063dd62ed3e90604401602060405180830381865afa158015610936573d6000803e3d6000fd5b505050506040513d601f19601f8201168201806040525081019061095a9190614773565b15610967576109676149a0565b50505050505050565b600084810361099257604051631ec6004f60e01b815260040160405180910390fd5b6040516331a9108f60e11b815260048101889052610a27907f000000000000000000000000f9dada4628eb3992202cf253625d4ecebbc1592f6001600160a01b031690636352211e90602401602060405180830381865afa1580156109fb573d6000803e3d6000fd5b505050506040513d601f19601f82011682018060405250810190610a1f91906149b6565b886002612c55565b6040516319fade8560e11b8152600481018890526000907f000000000000000000000000077044a51c5481544acf8bcb654f68e13f167b9f6001600160a01b0316906333f5bd0a90602401602060405180830381865afa158015610a8f573d6000803e3d6000fd5b505050506040513d601f19601f82011682018060405250810190610ab39190614773565b1115610ad257604051639115381560e01b815260040160405180910390fd5b6040516338a73f9960e11b8152600481018890523060248201527f000000000000000000000000cd8c4da77dfb15c05486d3f71ee4c2c0dfdbc94e6001600160a01b03169063714e7f3290604401600060405180830381600087803b158015610b3a57600080fd5b505af1158015610b4e573d6000803e3d6000fd5b50505050610b5d878787612453565b9050610b6a878585612744565b7f23164adda696b19106c2eef50ba44461997682bf5aeb9fdb383117fa9952cc75818884610b96612909565b604051610ba694939291906149d3565b60405180910390a19695505050505050565b610bc0613b4b565b610bc8613ba0565b604051630969875760e21b815260048101859052602481018490527f000000000000000000000000077044a51c5481544acf8bcb654f68e13f167b9f6001600160a01b0316906325a61d5c9060440161012060405180830381865afa158015610c35573d6000803e3d6000fd5b505050506040513d601f19601f82011682018060405250810190610c599190614a96565b9150610c6482612de7565b90509250929050565b610c798484600b612c55565b60405163181faefd60e11b81526001600160a01b038581166004830152602482018590526044820184905282811660648301527f000000000000000000000000792b79adb4aa06eddabd6ddef5ee06dcb946f436169063303f5dfa906084015b600060405180830381600087803b158015610cf357600080fd5b505af1158015610d07573d6000803e3d6000fd5b5050505050505050565b610d19613b4b565b610d21613ba0565b6040516321d1336160e11b8152600481018490527f000000000000000000000000077044a51c5481544acf8bcb654f68e13f167b9f6001600160a01b0316906343a266c2906024015b61012060405180830381865afa158015610d88573d6000803e3d6000fd5b505050506040513d601f19601f82011682018060405250810190610dac9190614a96565b9150610db782612de7565b9050915091565b6000818152602081905260408082205490516375b0d9cd60e01b8152600481018490527f000000000000000000000000792b79adb4aa06eddabd6ddef5ee06dcb946f4366001600160a01b0316906375b0d9cd90602401602060405180830381865afa158015610e32573d6000803e3d6000fd5b505050506040513d601f19601f82011682018060405250810190610e569190614773565b6106999190614ac9565b6040516331a9108f60e11b815260048101839052610ef5907f000000000000000000000000f9dada4628eb3992202cf253625d4ecebbc1592f6001600160a01b031690636352211e90602401602060405180830381865afa158015610ec9573d6000803e3d6000fd5b505050506040513d601f19601f82011682018060405250810190610eed91906149b6565b836004612c55565b6040516321d1336160e11b8152600481018390526000907f000000000000000000000000077044a51c5481544acf8bcb654f68e13f167b9f6001600160a01b0316906343a266c29060240161012060405180830381865afa158015610f5e573d6000803e3d6000fd5b505050506040513d601f19601f82011682018060405250810190610f829190614a96565b61010081015190915060491c600190811614610fb15760405163719d422360e11b815260040160405180910390fd5b60008381526020819052604090205415610fd057610fce83612918565b505b6040516362d8cd8760e11b8152306004820152602481018490526001600160a01b0383169063c5b19b0e90604401600060405180830381600087803b15801561101857600080fd5b505af115801561102c573d6000803e3d6000fd5b50505050827f6d2afe69329448f0491521e53921343cc696596a49f64a5502a27935e6a482f98361105b612909565b604080516001600160a01b039384168152929091166020830152015b60405180910390a2505050565b6040516331a9108f60e11b81526004810187905260009061111c906001600160a01b037f000000000000000000000000f9dada4628eb3992202cf253625d4ecebbc1592f1690636352211e90602401602060405180830381865afa1580156110f0573d6000803e3d6000fd5b505050506040513d601f19601f8201168201806040525081019061111491906149b6565b886007612c55565b81156111725761112a612909565b8260405160200161115992919060609290921b6bffffffffffffffffffffffff19168252601482015260340190565b6040516020818303038152906040528051906020012091505b604051635817819160e01b81526001600160a01b037f000000000000000000000000792b79adb4aa06eddabd6ddef5ee06dcb946f43616906358178191906111c8908a908a908a908a908a908a90600401614adc565b6020604051808303816000875af11580156111e7573d6000803e3d6000fd5b505050506040513d601f19601f8201168201806040525081019061120b91906149b6565b979650505050505050565b6040516331a9108f60e11b8152600481018490526112ab907f000000000000000000000000f9dada4628eb3992202cf253625d4ecebbc1592f6001600160a01b031690636352211e90602401602060405180830381865afa15801561127f573d6000803e3d6000fd5b505050506040513d601f19601f820116820180604052508101906112a391906149b6565b846006612c55565b60008381526001602052604090206112c482848361480e565b50827f76f445b3718cf71aa0c056105beab456eba31f72f5cc5a60fde060fd14ea168483836112f1612909565b60405161107793929190614b1d565b6040516321d1336160e11b815260048101829052600090611397906001600160a01b037f000000000000000000000000077044a51c5481544acf8bcb654f68e13f167b9f16906343a266c2906024015b61012060405180830381865afa15801561136e573d6000803e3d6000fd5b505050506040513d601f19601f820116820180604052508101906113929190614a96565b612de7565b610120015192915050565b6040516331a9108f60e11b81526004810186905260009061143a906001600160a01b037f000000000000000000000000f9dada4628eb3992202cf253625d4ecebbc1592f1690636352211e90602401602060405180830381865afa15801561140e573d6000803e3d6000fd5b505050506040513d601f19601f8201168201806040525081019061143291906149b6565b876002612c55565b611445868686612453565b90507f24d02d612b06648bfa2000859f3de7e6f336139eaf5877c24b0d21320625286281878585611474612909565b604051611485959493929190614b49565b60405180910390a195945050505050565b6115488585600a7f000000000000000000000000cd8c4da77dfb15c05486d3f71ee4c2c0dfdbc94e6001600160a01b0316636e49181f896114d5612909565b6040516001600160e01b031960e085901b16815260048101929092526001600160a01b03166024820152604401602060405180830381865afa15801561151f573d6000803e3d6000fd5b505050506040513d601f19601f820116820180604052508101906115439190614b83565b612ef6565b8260000361156957604051637b38547b60e01b815260040160405180910390fd5b60405163124d91e560e01b81526001600160a01b037f000000000000000000000000792b79adb4aa06eddabd6ddef5ee06dcb946f436169063124d91e5906115b990889088908890600401614ba0565b600060405180830381600087803b1580156115d357600080fd5b505af11580156115e7573d6000803e3d6000fd5b5050505083856001600160a01b03167fdf04e13ee4fcd48a81ab2fd114757093740a3efa9b6475d86e05878b4c59d079858585611622612909565b6040516116329493929190614bc1565b60405180910390a35050505050565b6001602052600090815260409020805461165a9061478c565b80601f01602080910402602001604051908101604052809291908181526020018280546116869061478c565b80156116d35780601f106116a8576101008083540402835291602001916116d3565b820191906000526020600020905b8154815290600101906020018083116116b657829003601f168201915b505050505081565b6040516321d1336160e11b81526004810182905260009061172f906001600160a01b037f000000000000000000000000077044a51c5481544acf8bcb654f68e13f167b9f16906343a266c290602401611350565b60e0015192915050565b6117458484600c612c55565b6040516321d1336160e11b8152600481018490526000907f000000000000000000000000077044a51c5481544acf8bcb654f68e13f167b9f6001600160a01b0316906343a266c29060240161012060405180830381865afa1580156117ae573d6000803e3d6000fd5b505050506040513d601f19601f820116820180604052508101906117d29190614a96565b61010081015190915060451c6001908116036118015760405163063a016960e01b815260040160405180910390fd5b60405163b1e6d2a160e01b81526001600160a01b038681166004830152602482018690528481166044830152606482018490527f000000000000000000000000792b79adb4aa06eddabd6ddef5ee06dcb946f436169063b1e6d2a190608401600060405180830381600087803b15801561187a57600080fd5b505af115801561188e573d6000803e3d6000fd5b505050505050505050565b604051632d47589160e21b81526004810184905260248101839052604481018290526060906000906001600160a01b037f000000000000000000000000077044a51c5481544acf8bcb654f68e13f167b9f169063b51d624490606401600060405180830381865afa158015611912573d6000803e3d6000fd5b505050506040513d6000823e601f3d908101601f1916820160405261193a9190810190614c17565b8051909150806001600160401b0381111561195757611957613d78565b60405190808252806020026020018201604052801561199057816020015b61197d613c24565b8152602001906001900390816119755790505b50925061199b613b4b565b60005b82811015611a04578381815181106119b8576119b8614cb7565b6020026020010151915060405180604001604052808381526020016119dc84612de7565b8152508582815181106119f1576119f1614cb7565b602090810291909101015260010161199e565b505050509392505050565b611a17613b4b565b611a1f613ba0565b60405163c02c63ad60e01b8152600481018490527f000000000000000000000000077044a51c5481544acf8bcb654f68e13f167b9f6001600160a01b03169063c02c63ad90602401610d6a565b611a74613b4b565b611a7c613ba0565b6040516360f630f760e11b8152600481018490526000907f000000000000000000000000077044a51c5481544acf8bcb654f68e13f167b9f6001600160a01b03169063c1ec61ee9060240161014060405180830381865afa158015611ae5573d6000803e3d6000fd5b505050506040513d601f19601f82011682018060405250810190611b099190614ccd565b9093509050611b1783612de7565b91509193909250565b6040516301ffc9a760e01b81526334ce2c7b60e21b60048201526001600160a01b038316906301ffc9a790602401602060405180830381865afa158015611b6b573d6000803e3d6000fd5b505050506040513d601f19601f82011682018060405250810190611b8f9190614b83565b8015611c3a5750816001600160a01b03167f000000000000000000000000cd8c4da77dfb15c05486d3f71ee4c2c0dfdbc94e6001600160a01b0316635dd8f6aa836040518263ffffffff1660e01b8152600401611bee91815260200190565b602060405180830381865afa158015611c0b573d6000803e3d6000fd5b505050506040513d601f19601f82011682018060405250810190611c2f91906149b6565b6001600160a01b0316145b15611cc75760405163a312889b60e01b8152600481018290526001600160a01b0383169063a312889b90602401600060405180830381865afa158015611c84573d6000803e3d6000fd5b505050506040513d6000823e601f3d908101601f19168201604052611cac9190810190614d00565b600082815260016020526040902090611cc59082614d6d565b505b5050565b600085600003611cee576040516327f44f9560e21b815260040160405180910390fd5b6040516321d1336160e11b81526004810188905260009081906001600160a01b037f000000000000000000000000077044a51c5481544acf8bcb654f68e13f167b9f16906343a266c29060240161012060405180830381865afa158015611d59573d6000803e3d6000fd5b505050506040513d601f19601f82011682018060405250810190611d7d9190614a96565b6040516331a9108f60e11b8152600481018b9052909150611f2a906001600160a01b037f000000000000000000000000f9dada4628eb3992202cf253625d4ecebbc1592f1690636352211e90602401602060405180830381865afa158015611de9573d6000803e3d6000fd5b505050506040513d601f19601f82011682018060405250810190611e0d91906149b6565b8a60097f000000000000000000000000cd8c4da77dfb15c05486d3f71ee4c2c0dfdbc94e6001600160a01b0316636e49181f8e611e48612909565b6040516001600160e01b031960e085901b16815260048101929092526001600160a01b03166024820152604401602060405180830381865afa158015611e92573d6000803e3d6000fd5b505050506040513d601f19601f82011682018060405250810190611eb69190614b83565b80611ee15750610100850151604f1c6001600160a01b0316611ed6612909565b6001600160a01b0316145b8061154357506000611ef8866101000151604f1c90565b6001600160a01b0316141580156115435750610100850151604f1c6001600160a01b031663677ce0888e6114d5612909565b602081015115801590611f49575061010081015160461c600190811614155b8015611ff857507f000000000000000000000000cd8c4da77dfb15c05486d3f71ee4c2c0dfdbc94e6001600160a01b0316636e49181f8a611f88612909565b6040516001600160e01b031960e085901b16815260048101929092526001600160a01b03166024820152604401602060405180830381865afa158015611fd2573d6000803e3d6000fd5b505050506040513d601f19601f82011682018060405250810190611ff69190614b83565b155b80156120255750610100810151604f1c6001600160a01b0316612019612909565b6001600160a01b031614155b80156120dd5750600061203d826101000151604f1c90565b6001600160a01b031614806120dd5750610100810151604f1c6001600160a01b031663677ce0888a61206d612909565b6040516001600160e01b031960e085901b16815260048101929092526001600160a01b03166024820152604401602060405180830381865afa1580156120b7573d6000803e3d6000fd5b505050506040513d601f19601f820116820180604052508101906120db9190614b83565b155b156120fb57604051633022e3df60e11b815260040160405180910390fd5b83612107576000612115565b61010081015160041c61ffff165b915061271082146121be576121388861213084612710614e2c565b612710612f06565b60405163aab68bdb60e01b81529093506001600160a01b037f000000000000000000000000792b79adb4aa06eddabd6ddef5ee06dcb946f436169063aab68bdb9061218b908a908d908890600401614ba0565b600060405180830381600087803b1580156121a557600080fd5b505af11580156121b9573d6000803e3d6000fd5b505050505b81156121f2576121ce8389614e2c565b60008a815260208190526040812080549091906121ec908490614ac9565b90915550505b88876001600160a01b03167fe6fee9c572244c0c2238c3112ac12d411750a7ee00eeebd32521c3e5a666c14b8a868a8a8861222b612909565b60405161223d96959493929190614e3f565b60405180910390a350509695505050505050565b6040516331a9108f60e11b8152600481018590526122e6907f000000000000000000000000f9dada4628eb3992202cf253625d4ecebbc1592f6001600160a01b031690636352211e90602401602060405180830381865afa1580156122ba573d6000803e3d6000fd5b505050506040513d601f19601f820116820180604052508101906122de91906149b6565b856011612c55565b604051636eaf90a560e11b81526001600160a01b037f000000000000000000000000f271e7329ed20b9b61bd5a13593e1f5bb6098644169063dd5f214a90610cd9908790879087908790600401614e82565b6040516331a9108f60e11b8152600481018390526123cd907f000000000000000000000000f9dada4628eb3992202cf253625d4ecebbc1592f6001600160a01b031690636352211e90602401602060405180830381865afa1580156123a1573d6000803e3d6000fd5b505050506040513d601f19601f820116820180604052508101906123c591906149b6565b836008612c55565b60405163f12b64a560e01b8152600481018390526001600160a01b0382811660248301527f000000000000000000000000792b79adb4aa06eddabd6ddef5ee06dcb946f436169063f12b64a590604401600060405180830381600087803b15801561243757600080fd5b505af115801561244b573d6000803e3d6000fd5b505050505050565b60008161245e613c49565b60005b8281101561273a5785858281811061247b5761247b614cb7565b905060200281019061248d9190614fd8565b6124969061541e565b91506127108260a001516000015111156124c357604051635623289560e01b815260040160405180910390fd5b6127108260a001516020015111156124ee57604051639db9ee9360e01b815260040160405180910390fd5b60a08201516040015163ffffffff101561251b5760405163e83c625560e01b815260040160405180910390fd5b60007f000000000000000000000000077044a51c5481544acf8bcb654f68e13f167b9f6001600160a01b03166370174dcc89856020015186604001518760600151886080015161256e8a60a00151612fe5565b8a5160405160e089901b6001600160e01b031916815260048101979097526024870195909552604486019390935260648501919091526001600160a01b0316608484015260a483015260c482015260e401610120604051808303816000875af11580156125df573d6000803e3d6000fd5b505050506040513d601f19601f820116820180604052508101906126039190614a96565b602081015160c0850151604051636eaf90a560e11b81529293506001600160a01b037f000000000000000000000000f271e7329ed20b9b61bd5a13593e1f5bb6098644169263dd5f214a9261265c928d92600401615520565b600060405180830381600087803b15801561267657600080fd5b505af115801561268a573d6000803e3d6000fd5b505050602082015160e085015160405163971e467760e01b81526001600160a01b037f000000000000000000000000fc33a725b53856208fe911e25b72c6e46dc95aad16935063971e4677926126e4928d92600401615622565b600060405180830381600087803b1580156126fe57600080fd5b505af1158015612712573d6000803e3d6000fd5b505050506001846127239190614e2c565b820361273157806020015194505b50600101612461565b5050509392505050565b806000816001600160401b0381111561275f5761275f613d78565b604051908082528060200260200182016040528015612788578160200160208202803683370190505b5060408051808201909152600081526060602082015290915060005b8381101561287a578585828181106127be576127be614cb7565b90506020028101906127d091906156c8565b6127d9906156de565b8051602082015160405163263a91ff60e21b81529294506001600160a01b03909116916398ea47fc91612811918b9190600401615795565b600060405180830381600087803b15801561282b57600080fd5b505af115801561283f573d6000803e3d6000fd5b50505050816000015183828151811061285a5761285a614cb7565b6001600160a01b03909216602092830291909101909101526001016127a4565b50821561244b5760405163104373fb60e31b81526001600160a01b037f000000000000000000000000cd8c4da77dfb15c05486d3f71ee4c2c0dfdbc94e169063821b9fd8906128cf9089908690600401615795565b600060405180830381600087803b1580156128e957600080fd5b505af11580156128fd573d6000803e3d6000fd5b50505050505050505050565b600061291361313b565b905090565b60008181526020819052604081205490819003612948576040516318615bc360e31b815260040160405180910390fd5b6040516321d1336160e11b8152600481018390526000907f000000000000000000000000077044a51c5481544acf8bcb654f68e13f167b9f6001600160a01b0316906343a266c29060240161012060405180830381865afa1580156129b1573d6000803e3d6000fd5b505050506040513d601f19601f820116820180604052508101906129d59190614a96565b600084815260208190526040808220829055516331a9108f60e11b815260048101869052919250907f000000000000000000000000f9dada4628eb3992202cf253625d4ecebbc1592f6001600160a01b031690636352211e90602401602060405180830381865afa158015612a4e573d6000803e3d6000fd5b505050506040513d601f19601f82011682018060405250810190612a7291906149b6565b905060008315612a9257612a8d8584602001516001876131b0565b612a95565b60005b90508015612b205760405163aab68bdb60e01b81526001600160a01b037f000000000000000000000000792b79adb4aa06eddabd6ddef5ee06dcb946f436169063aab68bdb90612aed90859089908690600401614ba0565b600060405180830381600087803b158015612b0757600080fd5b505af1158015612b1b573d6000803e3d6000fd5b505050505b84836000015184602001517f32411cac611c47cfe73afc187645c9cf3aec828d5f91780138d8421378fc0edb858886612b57612909565b604080516001600160a01b0395861681526020810194909452830191909152909116606082015260800160405180910390a4505050919050565b604080516001600160a01b038416602482015260448082018490528251808303909101815260649091019091526020810180516001600160e01b031663095ea7b360e01b179052612be28482613905565b612c4f576040516001600160a01b03848116602483015260006044830152612c4591869182169063095ea7b3906064015b604051602081830303815290604052915060e01b6020820180516001600160e01b0383818316178352505050506139ad565b612c4f84826139ad565b50505050565b6000612c5f612909565b9050836001600160a01b0316816001600160a01b031614158015612d20575060405163c161c93f60e01b81526001600160a01b038281166004830152858116602483015260448201859052606482018490527f0000000000000000000000001e2e8562b635fe19978640c784e47865a83d6605169063c161c93f90608401602060405180830381865afa158015612cfa573d6000803e3d6000fd5b505050506040513d601f19601f82011682018060405250810190612d1e9190614b83565b155b8015612dc9575060405163c161c93f60e01b81526001600160a01b038281166004830152858116602483015260006044830152606482018490527f0000000000000000000000001e2e8562b635fe19978640c784e47865a83d6605169063c161c93f90608401602060405180830381865afa158015612da3573d6000803e3d6000fd5b505050506040513d601f19601f82011682018060405250810190612dc79190614b83565b155b15612c4f5760405163075fd2b160e01b815260040160405180910390fd5b612def613ba0565b506040805161020081018252610100928301805160041c61ffff9081168352815160141c81166020840152815160241c63ffffffff16938301939093528051600160449190911c811681146060840152815160451c811681146080840152815160461c8116811460a0840152815160471c8116811460c0840152815160481c8116811460e0840152815160491c81168114948301949094528051604a1c841684146101208301528051604b1c841684146101408301528051604c1c841684146101608301528051604d1c841684146101808301528051604e1c84169093146101a08201528251604f1c6001600160a01b03166101c0820152915160ef1c166101e082015290565b80612c4f57612c4f848484612c55565b6000808060001985870985870292508281108382030391505080600003612f4057838281612f3657612f366157ee565b0492505050612fde565b838110612f7657604051630c740aef60e31b81526004810187905260248101869052604481018590526064015b60405180910390fd5b600084868809851960019081018716968790049682860381900495909211909303600082900391909104909201919091029190911760038402600290811880860282030280860282030280860282030280860282030280860282030280860290910302029150505b9392505050565b805160208201516040830151606084015160249190911b60149290921b60049390931b929092171760011790156130225768100000000000000000175b8160800151156130385768200000000000000000175b8160a001511561304e5768400000000000000000175b8160c00151156130645768800000000000000000175b8160e001511561307b576901000000000000000000175b81610100015115613093576902000000000000000000175b816101200151156130ab576904000000000000000000175b816101400151156130c3576908000000000000000000175b816101600151156130db576910000000000000000000175b816101800151156130f3576920000000000000000000175b816101a001511561310b576940000000000000000000175b6101c08201516101e09092015160ef1b6980000000000000000000600160ef1b03604f9390931b92909216171790565b6000366014336001600160a01b037f000000000000000000000000b2b5841dbef766d4b521221732f9b618fcf34a87161480156131785750808210155b156131a85760003661318a8385614e2c565b613195928290615804565b61319e9161582e565b60601c9250505090565b339250505090565b6040516369e11cc560e01b815260048101859052602481018490526044810183905281906000907f000000000000000000000000f271e7329ed20b9b61bd5a13593e1f5bb60986446001600160a01b0316906369e11cc590606401600060405180830381865afa158015613228573d6000803e3d6000fd5b505050506040513d6000823e601f3d908101601f191682016040526132509190810190615863565b805190915060005b818110156138fa57600083828151811061327457613274614cb7565b602002602001015190506000613293878360200151633b9aca00612f06565b905080156138ab5760a08201516001600160a01b0316156134605760a082015160405163aab68bdb60e01b81526001600160a01b037f000000000000000000000000792b79adb4aa06eddabd6ddef5ee06dcb946f436169163aab68bdb9161330291908e908690600401614ba0565b600060405180830381600087803b15801561331c57600080fd5b505af1158015613330573d6000803e3d6000fd5b505060405163ea78803f60e01b8152600481018d9052600092507f000000000000000000000000792b79adb4aa06eddabd6ddef5ee06dcb946f4366001600160a01b0316915063ea78803f90602401602060405180830381865afa15801561339c573d6000803e3d6000fd5b505050506040513d601f19601f820116820180604052508101906133c091906149b6565b90508260a001516001600160a01b03166312903a856040518060c00160405280846001600160a01b03168152602001858152602001601281526020018e81526020018c8152602001868152506040518263ffffffff1660e01b8152600401613428919061594d565b600060405180830381600087803b15801561344257600080fd5b505af1158015613456573d6000803e3d6000fd5b505050505061389e565b60608201516000906001600160a01b03166134825761347d612909565b613488565b82606001515b905082604001516000146138195760405163ea78803f60e01b8152600481018c90526000907f000000000000000000000000792b79adb4aa06eddabd6ddef5ee06dcb946f4366001600160a01b03169063ea78803f90602401602060405180830381865afa1580156134fe573d6000803e3d6000fd5b505050506040513d601f19601f8201168201806040525081019061352291906149b6565b905060006001600160a01b038216156135d1576040858101519051630862026560e41b815260048101919091526001600160a01b0383811660248301527f000000000000000000000000cd8c4da77dfb15c05486d3f71ee4c2c0dfdbc94e1690638620265090604401602060405180830381865afa1580156135a8573d6000803e3d6000fd5b505050506040513d601f19601f820116820180604052508101906135cc91906149b6565b6135d4565b60005b90506001600160a01b03821615806135f357506001600160a01b038116155b1561367f577f000000000000000000000000792b79adb4aa06eddabd6ddef5ee06dcb946f4366001600160a01b031663aab68bdb848f876040518463ffffffff1660e01b815260040161364893929190614ba0565b600060405180830381600087803b15801561366257600080fd5b505af1158015613676573d6000803e3d6000fd5b50505050613812565b7f000000000000000000000000792b79adb4aa06eddabd6ddef5ee06dcb946f4366001600160a01b031663aab68bdb308f876040518463ffffffff1660e01b81526004016136cf93929190614ba0565b600060405180830381600087803b1580156136e957600080fd5b505af11580156136fd573d6000803e3d6000fd5b5050505060008d60405160200161371691815260200190565b60408051601f1981840301815282825290880151630a1181ed60e01b83529092503091630a1181ed916137569186919088908b908b9089906004016159a1565b600060405180830381600087803b15801561377057600080fd5b505af1925050508015613781575060015b613810573d8080156137af576040519150601f19603f3d011682016040523d82523d6000602084013e6137b4565b606091505b506137c96001600160a01b0385168688613a10565b8e7feb1c69f596057b3b93b14d290bc52c6ddc7b7fa47184a8be88a30c656eac83e88888846137f6612909565b60405161380694939291906159ef565b60405180910390a2505b505b505061389c565b60405163aab68bdb60e01b81526001600160a01b037f000000000000000000000000792b79adb4aa06eddabd6ddef5ee06dcb946f436169063aab68bdb906138699084908f908790600401614ba0565b600060405180830381600087803b15801561388357600080fd5b505af1158015613897573d6000803e3d6000fd5b505050505b505b6138a88187614e2c565b95505b87898b7f5b9f38b2a849d80d4925a023ac038581d16642209624dc7b8353077d36a7682485856138d9612909565b6040516138e893929190615a31565b60405180910390a45050600101613258565b505050949350505050565b6000806000846001600160a01b0316846040516139229190615a5f565b6000604051808303816000865af19150503d806000811461395f576040519150601f19603f3d011682016040523d82523d6000602084013e613964565b606091505b509150915081801561398e57508051158061398e57508080602001905181019061398e9190614b83565b80156139a457506000856001600160a01b03163b115b95945050505050565b60006139c26001600160a01b03841683613a41565b905080516000141580156139e75750808060200190518101906139e59190614b83565b155b15611cc557604051635274afe760e01b81526001600160a01b0384166004820152602401612f6d565b6040516001600160a01b03838116602483015260448201839052611cc591859182169063a9059cbb90606401612c13565b6060612fde8383600084600080856001600160a01b03168486604051613a679190615a5f565b60006040518083038185875af1925050503d8060008114613aa4576040519150601f19603f3d011682016040523d82523d6000602084013e613aa9565b606091505b5091509150613ab9868383613ac3565b9695505050505050565b606082613ad857613ad382613b1f565b612fde565b8151158015613aef57506001600160a01b0384163b155b15613b1857604051639996b31560e01b81526001600160a01b0385166004820152602401612f6d565b5080612fde565b805115613b2f5780518082602001fd5b604051630a12f52160e11b815260040160405180910390fd5b50565b6040518061012001604052806000815260200160008152602001600081526020016000815260200160008152602001600081526020016000815260200160006001600160a01b03168152602001600081525090565b6040805161020081018252600080825260208201819052918101829052606081018290526080810182905260a0810182905260c0810182905260e08101829052610100810182905261012081018290526101408101829052610160810182905261018081018290526101a081018290526101c081018290526101e081019190915290565b6040518060400160405280613c37613b4b565b8152602001613c44613ba0565b905290565b6040518061010001604052806000815260200160008152602001600081526020016000815260200160006001600160a01b03168152602001613c89613ba0565b815260200160608152602001606081525090565b600060208284031215613caf57600080fd5b81356001600160e01b031981168114612fde57600080fd5b6001600160a01b0381168114613b4857600080fd5b8035613ce781613cc7565b919050565b60008083601f840112613cfe57600080fd5b5081356001600160401b03811115613d1557600080fd5b602083019150836020828501011115613d2d57600080fd5b9250929050565b60008083601f840112613d4657600080fd5b5081356001600160401b03811115613d5d57600080fd5b6020830191508360208260051b8501011115613d2d57600080fd5b634e487b7160e01b600052604160045260246000fd5b60405161012081016001600160401b0381118282101715613db157613db1613d78565b60405290565b60405161020081016001600160401b0381118282101715613db157613db1613d78565b604080519081016001600160401b0381118282101715613db157613db1613d78565b60405160c081016001600160401b0381118282101715613db157613db1613d78565b604051608081016001600160401b0381118282101715613db157613db1613d78565b60405161010081016001600160401b0381118282101715613db157613db1613d78565b604051601f8201601f191681016001600160401b0381118282101715613e8b57613e8b613d78565b604052919050565b60006001600160401b03821115613eac57613eac613d78565b50601f01601f191660200190565b600082601f830112613ecb57600080fd5b8135613ede613ed982613e93565b613e63565b818152846020838601011115613ef357600080fd5b816020850160208301376000918101602001919091529392505050565b60008060008060008060008060a0898b031215613f2c57600080fd5b8835613f3781613cc7565b975060208901356001600160401b0380821115613f5357600080fd5b613f5f8c838d01613cec565b909950975060408b0135915080821115613f7857600080fd5b613f848c838d01613d34565b909750955060608b0135915080821115613f9d57600080fd5b613fa98c838d01613d34565b909550935060808b0135915080821115613fc257600080fd5b50613fcf8b828c01613eba565b9150509295985092959890939650565b600060208284031215613ff157600080fd5b5035919050565b600080600080600080600060c0888a03121561401357600080fd5b873561401e81613cc7565b965060208801359550604088013561403581613cc7565b945060608801359350608088013561404c81613cc7565b925060a08801356001600160401b0381111561406757600080fd5b6140738a828b01613cec565b989b979a50959850939692959293505050565b6000806000806000806080878903121561409f57600080fd5b8635955060208701356001600160401b03808211156140bd57600080fd5b6140c98a838b01613d34565b909750955060408901359150808211156140e257600080fd5b6140ee8a838b01613d34565b9095509350606089013591508082111561410757600080fd5b5061411489828a01613eba565b9150509295509295509295565b6000806040838503121561413457600080fd5b50508035926020909101359150565b805182526020808201519083015260408082015190830152606080820151908301526080808201519083015260a0808201519083015260c0808201519083015260e0808201516001600160a01b03169083015261010090810151910152565b80518252602081015160208301526040810151604083015260608101516141cd606084018215159052565b5060808101516141e1608084018215159052565b5060a08101516141f560a084018215159052565b5060c081015161420960c084018215159052565b5060e081015161421d60e084018215159052565b5061010081810151151590830152610120808201511515908301526101408082015115159083015261016080820151151590830152610180808201511515908301526101a0808201511515908301526101c0808201516001600160a01b0316908301526101e090810151910152565b610320810161429b8285614143565b612fde6101208301846141a2565b600080600080608085870312156142bf57600080fd5b84356142ca81613cc7565b9350602085013592506040850135915060608501356142e881613cc7565b939692955090935050565b6000806040838503121561430657600080fd5b82359150602083013561431881613cc7565b809150509250929050565b60006020828403121561433557600080fd5b8135612fde81613cc7565b6000806000806000806080878903121561435957600080fd5b8635955060208701356001600160401b038082111561437757600080fd5b6143838a838b01613cec565b9097509550604089013591508082111561439c57600080fd5b506143a989828a01613cec565b979a9699509497949695606090950135949350505050565b6000806000604084860312156143d657600080fd5b8335925060208401356001600160401b038111156143f357600080fd5b6143ff86828701613cec565b9497909650939450505050565b60008060008060006060868803121561442457600080fd5b8535945060208601356001600160401b038082111561444257600080fd5b61444e89838a01613d34565b9096509450604088013591508082111561446757600080fd5b5061447488828901613cec565b969995985093965092949392505050565b60008060008060006080868803121561449d57600080fd5b85356144a881613cc7565b9450602086013593506040860135925060608601356001600160401b038111156144d157600080fd5b61447488828901613cec565b60005b838110156144f85781810151838201526020016144e0565b50506000910152565b600081518084526145198160208601602086016144dd565b601f01601f19169290920160200192915050565b602081526000612fde6020830184614501565b6000806000806080858703121561455657600080fd5b843561456181613cc7565b935060208501359250604085013561457881613cc7565b9396929550929360600135925050565b60008060006060848603121561459d57600080fd5b505081359360208301359350604090920135919050565b6020808252825182820181905260009190848201906040850190845b8181101561460b5783516145e5848251614143565b8501516145f66101208501826141a2565b509284019261032092909201916001016145d0565b50909695505050505050565b61034081016146268286614143565b6146346101208301856141a2565b6006831061465257634e487b7160e01b600052602160045260246000fd5b82610320830152949350505050565b6000806040838503121561467457600080fd5b823561467f81613cc7565b946020939093013593505050565b8015158114613b4857600080fd5b8035613ce78161468d565b60008060008060008060a087890312156146bf57600080fd5b863595506020870135945060408701356146d881613cc7565b935060608701356001600160401b038111156146f357600080fd5b6146ff89828a01613cec565b90945092505060808701356147138161468d565b809150509295509295509295565b6000806000806060858703121561473757600080fd5b843593506020850135925060408501356001600160401b0381111561475b57600080fd5b61476787828801613d34565b95989497509550505050565b60006020828403121561478557600080fd5b5051919050565b600181811c908216806147a057607f821691505b6020821081036147c057634e487b7160e01b600052602260045260246000fd5b50919050565b601f821115611cc5576000816000526020600020601f850160051c810160208610156147ef5750805b601f850160051c820191505b8181101561244b578281556001016147fb565b6001600160401b0383111561482557614825613d78565b61483983614833835461478c565b836147c6565b6000601f84116001811461486d57600085156148555750838201355b600019600387901b1c1916600186901b1783556148c7565b600083815260209020601f19861690835b8281101561489e578685013582556020948501946001909201910161487e565b50868210156148bb5760001960f88860031b161c19848701351681555b505060018560011b0183555b5050505050565b81835281816020850137506000828201602090810191909152601f909101601f19169091010190565b86815285602082015260a06040820152600061491760a0830186886148ce565b82810360608401526149298186614501565b91505060018060a01b0383166080830152979650505050505050565b878152600060018060a01b03808916602084015287604084015280871660608401525084608083015260e060a0830152600060e08301526101008060c084015261499281840185876148ce565b9a9950505050505050505050565b634e487b7160e01b600052600160045260246000fd5b6000602082840312156149c857600080fd5b8151612fde81613cc7565b8481528360208201526080604082015260006149f26080830185614501565b905060018060a01b038316606083015295945050505050565b8051613ce781613cc7565b60006101208284031215614a2957600080fd5b614a31613d8e565b9050815181526020820151602082015260408201516040820152606082015160608201526080820151608082015260a082015160a082015260c082015160c0820152614a7f60e08301614a0b565b60e082015261010080830151818301525092915050565b60006101208284031215614aa957600080fd5b612fde8383614a16565b634e487b7160e01b600052601160045260246000fd5b8082018082111561069957610699614ab3565b868152608060208201526000614af66080830187896148ce565b8281036040840152614b098186886148ce565b915050826060830152979650505050505050565b604081526000614b316040830185876148ce565b905060018060a01b0383166020830152949350505050565b858152846020820152608060408201526000614b696080830185876148ce565b905060018060a01b03831660608301529695505050505050565b600060208284031215614b9557600080fd5b8151612fde8161468d565b6001600160a01b039390931683526020830191909152604082015260600190565b848152606060208201526000614bdb6060830185876148ce565b905060018060a01b038316604083015295945050505050565b60006001600160401b03821115614c0d57614c0d613d78565b5060051b60200190565b60006020808385031215614c2a57600080fd5b82516001600160401b03811115614c4057600080fd5b8301601f81018513614c5157600080fd5b8051614c5f613ed982614bf4565b808282526020820191506101206020818502860101935088841115614c8357600080fd5b6020850194505b83851015614cab57614c9c8986614a16565b83529384019391850191614c8a565b50979650505050505050565b634e487b7160e01b600052603260045260246000fd5b6000806101408385031215614ce157600080fd5b614ceb8484614a16565b91506101208301516006811061431857600080fd5b600060208284031215614d1257600080fd5b81516001600160401b03811115614d2857600080fd5b8201601f81018413614d3957600080fd5b8051614d47613ed982613e93565b818152856020838501011115614d5c57600080fd5b6139a48260208301602086016144dd565b81516001600160401b03811115614d8657614d86613d78565b614d9a81614d94845461478c565b846147c6565b602080601f831160018114614dcf5760008415614db75750858301515b600019600386901b1c1916600185901b17855561244b565b600085815260208120601f198616915b82811015614dfe57888601518255948401946001909101908401614ddf565b5085821015614e1c5787850151600019600388901b60f8161c191681555b5050505050600190811b01905550565b8181038181111561069957610699614ab3565b86815285602082015260a060408201526000614e5f60a0830186886148ce565b6060830194909452506001600160a01b0391909116608090910152949350505050565b6000606080830187845260208781860152604060606040870152828784526080935060808701905060808860051b8801018960005b8a811015614fc657898303607f190184528135368d9003603e19018112614edd57600080fd5b8c01803584528386018782013536839003601e19018112614efd57600080fd5b9091018781019190356001600160401b03811115614f1a57600080fd5b60c08082023603841315614f2d57600080fd5b868a01899052918190526000918b87015b82841015614fb0578435614f518161468d565b15158152848b01358b820152898501358a8201528c850135614f7281613cc7565b6001600160a01b03908116828f0152858d01358d83015260a09086820135614f9981613cc7565b169082015293810193600193909301928101614f3e565b978a019796505050928701925050600101614eb7565b50909c9b505050505050505050505050565b600082356102de19833603018112614fef57600080fd5b9190910192915050565b6000610200828403121561500c57600080fd5b615014613db7565b905081358152602082013560208201526040820135604082015261503a6060830161469b565b606082015261504b6080830161469b565b608082015261505c60a0830161469b565b60a082015261506d60c0830161469b565b60c082015261507e60e0830161469b565b60e082015261010061509181840161469b565b908201526101206150a383820161469b565b908201526101406150b583820161469b565b908201526101606150c783820161469b565b908201526101806150d983820161469b565b908201526101a06150eb83820161469b565b908201526101c06150fd838201613cdc565b81830152506101e080830135818301525092915050565b600082601f83011261512557600080fd5b81356020615135613ed983614bf4565b82815260059290921b8401810191818101908684111561515457600080fd5b8286015b8481101561528d5780356001600160401b038082111561517757600080fd5b908801906040828b03601f190181131561519057600080fd5b615198613dda565b87840135815281840135838111156151af57600080fd5b8085019450508b603f8501126151c457600080fd5b8784013592506151d6613ed984614bf4565b83815260c09093028401820192888101908d8511156151f457600080fd5b948301945b848610156152785760c0868f03121561521157600080fd5b615219613dfc565b86356152248161468d565b8152868b01358b8201528487013585820152606087013561524481613cc7565b60608201526080878101359082015260a087013561526181613cc7565b60a0820152825260c09590950194908901906151f9565b828a0152508652505050918301918301615158565b509695505050505050565b600082601f8301126152a957600080fd5b813560206152b9613ed983614bf4565b82815260069290921b840181019181810190868411156152d857600080fd5b8286015b8481101561528d57604081890312156152f55760008081fd5b6152fd613dda565b8135815284820135858201528352918301916040016152dc565b600082601f83011261532857600080fd5b81356020615338613ed983614bf4565b82815260059290921b8401810191818101908684111561535757600080fd5b8286015b8481101561528d5780356001600160401b038082111561537b5760008081fd5b908801906080828b03601f19018113156153955760008081fd5b61539d613e1e565b878401356153aa81613cc7565b81526040848101356153bb81613cc7565b828a0152606085810135858111156153d35760008081fd5b6153e18f8c838a0101615298565b84840152509285013592848411156153fb57600091508182fd5b6154098e8b86890101615298565b9083015250865250505091830191830161535b565b60006102e0823603121561543157600080fd5b615439613e40565b8235815260208301356020820152604083013560408201526060830135606082015261546760808401613cdc565b60808201526154793660a08501614ff9565b60a08201526102a08301356001600160401b038082111561549957600080fd5b6154a536838701615114565b60c08401526102c08501359150808211156154bf57600080fd5b506154cc36828601615317565b60e08301525092915050565b80511515825260208082015190830152604080820151908301526060808201516001600160a01b03908116918401919091526080808301519084015260a09182015116910152565b600060608083018684526020868186015260406060604087015282875180855260808801915060808160051b89010194508389016000805b838110156155c9578a8803607f190185528251805189528701518789018790528051878a018190529088019083908b8b01905b808310156155b45761559e8285516154d8565b60c0820191508a8401935060018301925061558b565b50995050509386019391860191600101615558565b50959c9b505050505050505050505050565b60008151808452602080850194506020840160005b838110156156175781518051885283015183880152604090960195908201906001016155f0565b509495945050505050565b60006060808301868452602086818601526040606060408701528287518085526080945060808801915060808160051b890101848a0160005b83811015614fc6578a8303607f19018552815180516001600160a01b039081168552888201511688850152868101518785018a905261569c8a8601826155db565b918b0151858303868d01529190506156b481836155db565b96890196945050509086019060010161565b565b60008235603e19833603018112614fef57600080fd5b6000604082360312156156f057600080fd5b6156f8613dda565b823561570381613cc7565b81526020838101356001600160401b0381111561571f57600080fd5b840136601f82011261573057600080fd5b803561573e613ed982614bf4565b81815260059190911b8201830190838101903683111561575d57600080fd5b928401925b8284101561578457833561577581613cc7565b82529284019290840190615762565b938501939093525091949350505050565b60006040820184835260206040602085015281855180845260608601915060208701935060005b818110156157e15784516001600160a01b0316835293830193918301916001016157bc565b5090979650505050505050565b634e487b7160e01b600052601260045260246000fd5b6000808585111561581457600080fd5b8386111561582157600080fd5b5050820193919092039150565b6bffffffffffffffffffffffff19813581811691601485101561585b5780818660140360031b1b83161692505b505092915050565b6000602080838503121561587657600080fd5b82516001600160401b0381111561588c57600080fd5b8301601f8101851361589d57600080fd5b80516158ab613ed982614bf4565b81815260c091820283018401918482019190888411156158ca57600080fd5b938501935b83851015614cab5780858a0312156158e75760008081fd5b6158ef613dfc565b85516158fa8161468d565b815285870151878201526040808701519082015260608087015161591d81613cc7565b908201526080868101519082015260a08087015161593a81613cc7565b90820152835293840193918501916158cf565b81516001600160a01b031681526020808301519082015260408083015190820152606080830151908201526080808301519082015260a08281015161016083019161599a908401826154d8565b5092915050565b6001600160a01b038781168252602082018790528581166040830152606082018590528316608082015260c060a082018190526000906159e390830184614501565b98975050505050505050565b60006101206159fe83886154d8565b8560c08401528060e0840152615a1681840186614501565b91505060018060a01b03831661010083015295945050505050565b6101008101615a4082866154d8565b60c08201939093526001600160a01b039190911660e090910152919050565b60008251614fef8184602087016144dd56fea26469706673582212200aefd98dfbe6d44cb4e770046bc1d9bcd2a16d2a5d23eeae4a580e6e523a128764736f6c63430008170033",
			"devdoc": {
				"kind": "dev",
				"methods": {
					"burnTokensOf(address,uint256,uint256,string)": {
						"details": "Can only be called by the holder, an address with the holder's permission to `BURN_TOKENS`, or a project's terminal.",
						"params": {
							"holder": "The address whose tokens are being burned.",
							"memo": "A memo to pass along to the emitted event.",
							"projectId": "The ID of the project whose tokens are being burned.",
							"tokenCount": "The number of tokens to burn."
						}
					},
					"claimTokensFor(address,uint256,uint256,address)": {
						"details": "Can only be called by the credit holder or an address with the holder's permission to `CLAIM_TOKENS`.",
						"params": {
							"amount": "The amount of tokens to claim.",
							"beneficiary": "The account the claimed tokens will go to.",
							"holder": "The address to redeem credits from.",
							"projectId": "The ID of the project whose tokens are being claimed."
						}
					},
					"constructor": {
						"params": {
							"directory": "A contract storing directories of terminals and controllers for each project.",
							"fundAccessLimits": "A contract that stores fund access limits for each project.",
							"permissions": "A contract storing permissions.",
							"projects": "A contract which mints ERC-721s that represent project ownership and transfers.",
							"rulesets": "A contract storing and managing project rulesets.",
							"splits": "A contract that stores splits for each project.",
							"tokens": "A contract that manages token minting and burning."
						}
					},
					"currentRulesetOf(uint256)": {
						"params": {
							"projectId": "The ID of the project to get the current ruleset of."
						},
						"returns": {
							"metadata": "The current ruleset's metadata.",
							"ruleset": "The current ruleset's struct."
						}
					},
					"deployERC20For(uint256,string,string,bytes32)": {
						"details": "Deploys the project's ERC-20 contract.Can only be called by the project's owner or an address with the owner's permission to `DEPLOY_ERC20`.",
						"params": {
							"name": "The ERC-20's name.",
							"projectId": "The ID of the project to deploy the ERC-20 for.",
							"symbol": "The ERC-20's symbol."
						},
						"returns": {
							"token": "The address of the token that was deployed."
						}
					},
					"getRulesetOf(uint256,uint256)": {
						"params": {
							"projectId": "The ID of the project the ruleset belongs to."
						},
						"returns": {
							"metadata": "The ruleset's metadata.",
							"ruleset": "The ruleset's struct."
						}
					},
					"isTrustedForwarder(address)": {
						"details": "Indicates whether any particular address is the trusted forwarder."
					},
					"latestQueuedRulesetOf(uint256)": {
						"details": "The 'latest queued ruleset' is the ruleset initialized furthest in the future (at the end of the ruleset queue).",
						"params": {
							"projectId": "The ID of the project to get the latest ruleset of."
						},
						"returns": {
							"approvalStatus": "The ruleset's approval status.",
							"metadata": "The ruleset's metadata.",
							"ruleset": "The struct for the project's latest queued ruleset."
						}
					},
					"launchProjectFor(address,string,(uint256,uint256,uint256,uint256,address,(uint256,uint256,uint256,bool,bool,bool,bool,bool,bool,bool,bool,bool,bool,bool,address,uint256),(uint256,(bool,uint256,uint256,address,uint256,address)[])[],(address,address,(uint256,uint256)[],(uint256,uint256)[])[])[],(address,address[])[],string)": {
						"details": "This will mint the project's ERC-721 to the `owner`'s address, queue the specified rulesets, and set up the specified splits and terminals. Each operation within this transaction can be done in sequence separately.Anyone can deploy a project to any `owner`'s address.",
						"params": {
							"memo": "A memo to pass along to the emitted event.",
							"owner": "The project's owner. The project ERC-721 will be minted to this address.",
							"projectUri": "The project's metadata URI. This is typically an IPFS hash, optionally with the `ipfs://` prefix. This can be updated by the project's owner.",
							"rulesetConfigurations": "The rulesets to queue.",
							"terminalConfigurations": "The terminals to set up for the project."
						},
						"returns": {
							"projectId": "The project's ID."
						}
					},
					"launchRulesetsFor(uint256,(uint256,uint256,uint256,uint256,address,(uint256,uint256,uint256,bool,bool,bool,bool,bool,bool,bool,bool,bool,bool,bool,address,uint256),(uint256,(bool,uint256,uint256,address,uint256,address)[])[],(address,address,(uint256,uint256)[],(uint256,uint256)[])[])[],(address,address[])[],string)": {
						"details": "Each operation within this transaction can be done in sequence separately.Can only be called by the project's owner or an address with the owner's permission to `QUEUE_RULESETS`.",
						"params": {
							"memo": "A memo to pass along to the emitted event.",
							"projectId": "The ID of the project to launch rulesets for.",
							"rulesetConfigurations": "The rulesets to queue.",
							"terminalConfigurations": "The terminals to set up."
						},
						"returns": {
							"rulesetId": "The ID of the last successfully queued ruleset."
						}
					},
					"migrateController(uint256,address)": {
						"details": "Can only be called by the project's owner or an address with the owner's permission to `MIGRATE_CONTROLLER`.",
						"params": {
							"projectId": "The ID of the project to migrate.",
							"to": "The controller to migrate the project to."
						}
					},
					"mintTokensOf(uint256,uint256,address,string,bool)": {
						"details": "Can only be called by the project's owner, an address with the owner's permission to `MINT_TOKENS`, one of the project's terminals, or the project's data hook.If the ruleset's metadata has `allowOwnerMinting` set to `false`, this function can only be called by the project's terminals or data hook.",
						"params": {
							"beneficiary": "The address which will receive the (non-reserved) tokens.",
							"memo": "A memo to pass along to the emitted event.",
							"projectId": "The ID of the project whose tokens are being minted.",
							"tokenCount": "The number of tokens to mint, including any reserved tokens.",
							"useReservedRate": "Whether to apply the ruleset's reserved rate."
						},
						"returns": {
							"beneficiaryTokenCount": "The number of tokens minted for the `beneficiary`."
						}
					},
					"payReservedTokenToTerminal(address,uint256,address,uint256,address,bytes)": {
						"details": "Can only be called by this controller.",
						"params": {
							"beneficiary": "The payment's beneficiary.",
							"metadata": "The pay metadata sent to the terminal.",
							"projectId": "The ID of the project being paid.",
							"splitAmount": "The amount of tokens being paid.",
							"terminal": "The terminal to pay.",
							"token": "The token being paid with."
						}
					},
					"queueRulesetsOf(uint256,(uint256,uint256,uint256,uint256,address,(uint256,uint256,uint256,bool,bool,bool,bool,bool,bool,bool,bool,bool,bool,bool,address,uint256),(uint256,(bool,uint256,uint256,address,uint256,address)[])[],(address,address,(uint256,uint256)[],(uint256,uint256)[])[])[],string)": {
						"details": "Can only be called by the project's owner or an address with the owner's permission to `QUEUE_RULESETS`.",
						"params": {
							"memo": "A memo to pass along to the emitted event.",
							"projectId": "The ID of the project to queue rulesets for.",
							"rulesetConfigurations": "The rulesets to queue."
						},
						"returns": {
							"rulesetId": "The ID of the last ruleset which was successfully queued."
						}
					},
					"receiveMigrationFrom(address,uint256)": {
						"details": "This controller should not be the project's controller yet.",
						"params": {
							"from": "The controller being migrated from.",
							"projectId": "The ID of the project that will migrate to this controller."
						}
					},
					"rulesetsOf(uint256,uint256,uint256)": {
						"params": {
							"projectId": "The ID of the project to get the rulesets of.",
							"size": "The maximum number of rulesets to return.",
							"startingId": "The ID of the ruleset to begin with. This will be the latest ruleset in the result. If the `startingId` is 0, passed, the project's latest ruleset will be used."
						},
						"returns": {
							"rulesets": "The array of rulesets with their metadata."
						}
					},
					"sendReservedTokensToSplitsOf(uint256)": {
						"details": "If the project has no reserved token splits, or if they don't add up to 100%, leftover tokens are sent to the project's owner.",
						"params": {
							"projectId": "The ID of the project to send reserved tokens for."
						},
						"returns": {
							"_0": "The amount of reserved tokens minted and sent."
						}
					},
					"setControllerAllowed(uint256)": {
						"params": {
							"projectId": "The ID of the project to check."
						},
						"returns": {
							"_0": "A `bool` which is true if the project allows controllers to be set."
						}
					},
					"setSplitGroupsOf(uint256,uint256,(uint256,(bool,uint256,uint256,address,uint256,address)[])[])": {
						"details": "Can only be called by the project's owner or an address with the owner's permission to `SET_SPLIT_GROUPS`.",
						"params": {
							"projectId": "The ID of the project to set the split groups of.",
							"rulesetId": "The ID of the ruleset the split groups should be active in. Use a `rulesetId` of 0 to set the default split groups, which are used when a ruleset has no splits set. If there are no default splits and no splits are set, all splits are sent to the project's owner.",
							"splitGroups": "An array of split groups to set."
						}
					},
					"setTerminalsAllowed(uint256)": {
						"params": {
							"projectId": "The ID of the project to check."
						},
						"returns": {
							"_0": "A `bool` which is true if the project allows terminals to be set."
						}
					},
					"setTokenFor(uint256,address)": {
						"details": "Can only be called by the project's owner or an address with the owner's permission to `SET_TOKEN`.",
						"params": {
							"projectId": "The ID of the project to set the token of.",
							"token": "The new token's address."
						}
					},
					"setUriOf(uint256,string)": {
						"details": "This is typically an IPFS hash, optionally with an `ipfs://` prefix.Can only be called by the project's owner or an address with the owner's permission to `SET_PROJECT_METADATA`.",
						"params": {
							"metadata": "The metadata URI to set.",
							"projectId": "The ID of the project to set the metadata URI of."
						}
					},
					"supportsInterface(bytes4)": {
						"details": "See {IERC165-supportsInterface}.",
						"params": {
							"interfaceId": "The ID of the interface to check for adherence to."
						},
						"returns": {
							"_0": "A flag indicating if the provided interface ID is supported."
						}
					},
					"totalTokenSupplyWithReservedTokensOf(uint256)": {
						"params": {
							"projectId": "The ID of the project to get the total token supply of."
						},
						"returns": {
							"_0": "The total supply of the project's token, including pending reserved tokens."
						}
					},
					"transferCreditsFrom(address,uint256,address,uint256)": {
						"details": "Can only be called by the credit holder or an address with the holder's permission to `TRANSFER_CREDITS`.",
						"params": {
							"amount": "The amount of credits to transfer.",
							"holder": "The address to transfer credits from.",
							"projectId": "The ID of the project whose credits are being transferred.",
							"recipient": "The address to transfer credits to."
						}
					},
					"trustedForwarder()": {
						"details": "Returns the address of the trusted forwarder."
					},
					"upcomingRulesetOf(uint256)": {
						"details": "If an upcoming ruleset isn't found, returns an empty ruleset with all properties set to 0.",
						"params": {
							"projectId": "The ID of the project to get the next ruleset of."
						},
						"returns": {
							"metadata": "The upcoming ruleset's metadata.",
							"ruleset": "The upcoming ruleset's struct."
						}
					}
				},
				"version": 1
			},
			"userdoc": {
				"kind": "user",
				"methods": {
					"DIRECTORY()": {
						"notice": "The directory of terminals and controllers for projects."
					},
					"FUND_ACCESS_LIMITS()": {
						"notice": "A contract that stores fund access limits for each project."
					},
					"PERMISSIONS()": {
						"notice": "A contract storing permissions."
					},
					"PROJECTS()": {
						"notice": "Mints ERC-721s that represent project ownership and transfers."
					},
					"RULESETS()": {
						"notice": "The contract storing and managing project rulesets."
					},
					"SPLITS()": {
						"notice": "The contract that stores splits for each project."
					},
					"TOKENS()": {
						"notice": "The contract that manages token minting and burning."
					},
					"burnTokensOf(address,uint256,uint256,string)": {
						"notice": "Burns a project's tokens or credits from the specific holder's balance."
					},
					"claimTokensFor(address,uint256,uint256,address)": {
						"notice": "Redeem credits to claim tokens into a `beneficiary`'s account."
					},
					"currentRulesetOf(uint256)": {
						"notice": "A project's currently active ruleset and its metadata."
					},
					"deployERC20For(uint256,string,string,bytes32)": {
						"notice": "Deploys an ERC-20 token for a project. It will be used when claiming tokens (with credits)."
					},
					"getRulesetOf(uint256,uint256)": {
						"notice": "Get the `JBRuleset` and `JBRulesetMetadata` corresponding to the specified `rulesetId`."
					},
					"latestQueuedRulesetOf(uint256)": {
						"notice": "Gets the latest ruleset queued for a project, its approval status, and its metadata."
					},
					"launchProjectFor(address,string,(uint256,uint256,uint256,uint256,address,(uint256,uint256,uint256,bool,bool,bool,bool,bool,bool,bool,bool,bool,bool,bool,address,uint256),(uint256,(bool,uint256,uint256,address,uint256,address)[])[],(address,address,(uint256,uint256)[],(uint256,uint256)[])[])[],(address,address[])[],string)": {
						"notice": "Creates a project."
					},
					"launchRulesetsFor(uint256,(uint256,uint256,uint256,uint256,address,(uint256,uint256,uint256,bool,bool,bool,bool,bool,bool,bool,bool,bool,bool,bool,address,uint256),(uint256,(bool,uint256,uint256,address,uint256,address)[])[],(address,address,(uint256,uint256)[],(uint256,uint256)[])[])[],(address,address[])[],string)": {
						"notice": "Queue a project's initial rulesets and set up terminals for it. Projects which already have rulesets should use `queueRulesetsOf(...)`."
					},
					"migrateController(uint256,address)": {
						"notice": "Migrate a project from this controller to another one."
					},
					"mintTokensOf(uint256,uint256,address,string,bool)": {
						"notice": "Add new project tokens or credits to the specified beneficiary's balance. Optionally, reserve a portion according to the ruleset's reserved rate."
					},
					"payReservedTokenToTerminal(address,uint256,address,uint256,address,bytes)": {
						"notice": "When a project receives reserved tokens, if it has a terminal for the token, this is used to pay the terminal."
					},
					"pendingReservedTokenBalanceOf(uint256)": {
						"notice": "A project's unrealized reserved token balance (i.e. reserved tokens which haven't been sent out to the reserved token split group yet)."
					},
					"queueRulesetsOf(uint256,(uint256,uint256,uint256,uint256,address,(uint256,uint256,uint256,bool,bool,bool,bool,bool,bool,bool,bool,bool,bool,bool,address,uint256),(uint256,(bool,uint256,uint256,address,uint256,address)[])[],(address,address,(uint256,uint256)[],(uint256,uint256)[])[])[],string)": {
						"notice": "Add one or more rulesets to the end of a project's ruleset queue. Rulesets take effect after the previous ruleset in the queue ends, and only if they are approved by the previous ruleset's approval hook."
					},
					"receiveMigrationFrom(address,uint256)": {
						"notice": "Prepares this controller to receive a project being migrated from another controller."
					},
					"rulesetsOf(uint256,uint256,uint256)": {
						"notice": "Get an array of a project's rulesets (with metadata) up to a maximum array size, sorted from latest to earliest."
					},
					"sendReservedTokensToSplitsOf(uint256)": {
						"notice": "Sends a project's pending reserved tokens to its reserved token splits."
					},
					"setControllerAllowed(uint256)": {
						"notice": "Check whether the project's controller can currently be set."
					},
					"setSplitGroupsOf(uint256,uint256,(uint256,(bool,uint256,uint256,address,uint256,address)[])[])": {
						"notice": "Sets a project's split groups. The new split groups must include any current splits which are locked."
					},
					"setTerminalsAllowed(uint256)": {
						"notice": "Check whether the project's terminals can currently be set."
					},
					"setTokenFor(uint256,address)": {
						"notice": "Set a project's token. If the project's token is already set, this will revert."
					},
					"setUriOf(uint256,string)": {
						"notice": "Set a project's metadata URI."
					},
					"supportsInterface(bytes4)": {
						"notice": "Indicates whether this contract adheres to the specified interface."
					},
					"totalTokenSupplyWithReservedTokensOf(uint256)": {
						"notice": "Gets the a project token's total supply, including pending reserved tokens."
					},
					"transferCreditsFrom(address,uint256,address,uint256)": {
						"notice": "Allows a credit holder to transfer credits to another address."
					},
					"upcomingRulesetOf(uint256)": {
						"notice": "A project's next ruleset along with its metadata."
					},
					"uriOf(uint256)": {
						"notice": "The metadata URI for each project. This is typically an IPFS hash, optionally with an `ipfs://` prefix."
					}
				},
				"version": 1
			},
			"gitCommit": "8e6924651d1e8038d6c2982d6d0c09a070b141a7",
			"sourceName": "src/JBController.sol",
			"chainId": "421614",
			"linkReferences": {},
			"deployedLinkReferences": {}
		}
	]
}