{
	"format": "sphinx-sol-ct-artifact-1",
	"merkleRoot": "0x4742494b19c99572462a9efb4b9b72ca88e91637671854bd9440155743947131",
	"address": "0xd7ce0fe638e02a31fc7c8c231684d85ad9b2ca3d",
	"sourceName": "src/periphery/JBDeadline1Day.sol",
	"contractName": "JBDeadline1Day",
	"chainId": "0x66eee",
	"abi": [
		{
			"inputs": [],
			"stateMutability": "nonpayable",
			"type": "constructor"
		},
		{
			"inputs": [],
			"name": "DURATION",
			"outputs": [
				{
					"internalType": "uint256",
					"name": "",
					"type": "uint256"
				}
			],
			"stateMutability": "view",
			"type": "function"
		},
		{
			"inputs": [
				{
					"internalType": "uint256",
					"name": "",
					"type": "uint256"
				},
				{
					"internalType": "uint256",
					"name": "rulesetId",
					"type": "uint256"
				},
				{
					"internalType": "uint256",
					"name": "start",
					"type": "uint256"
				}
			],
			"name": "approvalStatusOf",
			"outputs": [
				{
					"internalType": "enum JBApprovalStatus",
					"name": "",
					"type": "uint8"
				}
			],
			"stateMutability": "view",
			"type": "function"
		},
		{
			"inputs": [
				{
					"internalType": "bytes4",
					"name": "interfaceId",
					"type": "bytes4"
				}
			],
			"name": "supportsInterface",
			"outputs": [
				{
					"internalType": "bool",
					"name": "",
					"type": "bool"
				}
			],
			"stateMutability": "view",
			"type": "function"
		}
	],
	"args": [],
	"solcInputHash": "5d51894f92a28e136c3e0b602172e6f6",
	"bytecode": "0x60a060405234801561001057600080fd5b506201518060805260805161022d6100406000396000818160730152818161010e0152610138015261022d6000f3fe608060405234801561001057600080fd5b50600436106100415760003560e01c806301ffc9a7146100465780631be052891461006e57806350609a56146100a3575b600080fd5b610059610054366004610179565b6100c3565b60405190151581526020015b60405180910390f35b6100957f000000000000000000000000000000000000000000000000000000000000000081565b604051908152602001610065565b6100b66100b13660046101a3565b6100fa565b60405161006591906101cf565b60006001600160e01b03198216634b80c8df60e01b14806100f457506001600160e01b031982166301ffc9a760e01b145b92915050565b60008183111561010c57506005610172565b7f00000000000000000000000000000000000000000000000000000000000000008383031061016c57817f000000000000000000000000000000000000000000000000000000000000000042011061016557600461016f565b600361016f565b60055b90505b9392505050565b60006020828403121561018b57600080fd5b81356001600160e01b03198116811461017257600080fd5b6000806000606084860312156101b857600080fd5b505081359360208301359350604090920135919050565b60208101600683106101f157634e487b7160e01b600052602160045260246000fd5b9190529056fea264697066735822122032d652678bd4375a307278e2d304ebe7050d62156c261d391a6d50364d69538864736f6c63430008170033",
	"deployedBytecode": "0x608060405234801561001057600080fd5b50600436106100415760003560e01c806301ffc9a7146100465780631be052891461006e57806350609a56146100a3575b600080fd5b610059610054366004610179565b6100c3565b60405190151581526020015b60405180910390f35b6100957f000000000000000000000000000000000000000000000000000000000001518081565b604051908152602001610065565b6100b66100b13660046101a3565b6100fa565b60405161006591906101cf565b60006001600160e01b03198216634b80c8df60e01b14806100f457506001600160e01b031982166301ffc9a760e01b145b92915050565b60008183111561010c57506005610172565b7f00000000000000000000000000000000000000000000000000000000000151808383031061016c57817f000000000000000000000000000000000000000000000000000000000001518042011061016557600461016f565b600361016f565b60055b90505b9392505050565b60006020828403121561018b57600080fd5b81356001600160e01b03198116811461017257600080fd5b6000806000606084860312156101b857600080fd5b505081359360208301359350604090920135919050565b60208101600683106101f157634e487b7160e01b600052602160045260246000fd5b9190529056fea264697066735822122032d652678bd4375a307278e2d304ebe7050d62156c261d391a6d50364d69538864736f6c63430008170033",
	"gitCommit": "c664e5b34db8181e8ee22c8a07c22dc687da5623"
}