{
	"_format": "sphinx-sol-ct-artifact-1",
	"merkleRoot": "0xeb76efeb8f97c5cb80ab72b380ea5b356ede5f4abbf2a0c560104f8a80b45857",
	"contractName": "JBDirectory",
	"address": "0xCD8c4da77dfb15C05486D3F71Ee4C2C0dfdbc94e",
	"abi": [
		{
			"type": "constructor",
			"inputs": [
				{
					"name": "permissions",
					"type": "address",
					"internalType": "contract IJBPermissions"
				},
				{
					"name": "projects",
					"type": "address",
					"internalType": "contract IJBProjects"
				},
				{
					"name": "owner",
					"type": "address",
					"internalType": "address"
				}
			],
			"stateMutability": "nonpayable"
		},
		{
			"type": "function",
			"name": "PERMISSIONS",
			"inputs": [],
			"outputs": [
				{
					"name": "",
					"type": "address",
					"internalType": "contract IJBPermissions"
				}
			],
			"stateMutability": "view"
		},
		{
			"type": "function",
			"name": "PROJECTS",
			"inputs": [],
			"outputs": [
				{
					"name": "",
					"type": "address",
					"internalType": "contract IJBProjects"
				}
			],
			"stateMutability": "view"
		},
		{
			"type": "function",
			"name": "controllerOf",
			"inputs": [
				{
					"name": "projectId",
					"type": "uint256",
					"internalType": "uint256"
				}
			],
			"outputs": [
				{
					"name": "",
					"type": "address",
					"internalType": "contract IERC165"
				}
			],
			"stateMutability": "view"
		},
		{
			"type": "function",
			"name": "isAllowedToSetFirstController",
			"inputs": [
				{
					"name": "addr",
					"type": "address",
					"internalType": "address"
				}
			],
			"outputs": [
				{
					"name": "",
					"type": "bool",
					"internalType": "bool"
				}
			],
			"stateMutability": "view"
		},
		{
			"type": "function",
			"name": "isTerminalOf",
			"inputs": [
				{
					"name": "projectId",
					"type": "uint256",
					"internalType": "uint256"
				},
				{
					"name": "terminal",
					"type": "address",
					"internalType": "contract IJBTerminal"
				}
			],
			"outputs": [
				{
					"name": "",
					"type": "bool",
					"internalType": "bool"
				}
			],
			"stateMutability": "view"
		},
		{
			"type": "function",
			"name": "owner",
			"inputs": [],
			"outputs": [
				{
					"name": "",
					"type": "address",
					"internalType": "address"
				}
			],
			"stateMutability": "view"
		},
		{
			"type": "function",
			"name": "primaryTerminalOf",
			"inputs": [
				{
					"name": "projectId",
					"type": "uint256",
					"internalType": "uint256"
				},
				{
					"name": "token",
					"type": "address",
					"internalType": "address"
				}
			],
			"outputs": [
				{
					"name": "",
					"type": "address",
					"internalType": "contract IJBTerminal"
				}
			],
			"stateMutability": "view"
		},
		{
			"type": "function",
			"name": "renounceOwnership",
			"inputs": [],
			"outputs": [],
			"stateMutability": "nonpayable"
		},
		{
			"type": "function",
			"name": "setControllerOf",
			"inputs": [
				{
					"name": "projectId",
					"type": "uint256",
					"internalType": "uint256"
				},
				{
					"name": "controller",
					"type": "address",
					"internalType": "contract IERC165"
				}
			],
			"outputs": [],
			"stateMutability": "nonpayable"
		},
		{
			"type": "function",
			"name": "setIsAllowedToSetFirstController",
			"inputs": [
				{
					"name": "addr",
					"type": "address",
					"internalType": "address"
				},
				{
					"name": "flag",
					"type": "bool",
					"internalType": "bool"
				}
			],
			"outputs": [],
			"stateMutability": "nonpayable"
		},
		{
			"type": "function",
			"name": "setPrimaryTerminalOf",
			"inputs": [
				{
					"name": "projectId",
					"type": "uint256",
					"internalType": "uint256"
				},
				{
					"name": "token",
					"type": "address",
					"internalType": "address"
				},
				{
					"name": "terminal",
					"type": "address",
					"internalType": "contract IJBTerminal"
				}
			],
			"outputs": [],
			"stateMutability": "nonpayable"
		},
		{
			"type": "function",
			"name": "setTerminalsOf",
			"inputs": [
				{
					"name": "projectId",
					"type": "uint256",
					"internalType": "uint256"
				},
				{
					"name": "terminals",
					"type": "address[]",
					"internalType": "contract IJBTerminal[]"
				}
			],
			"outputs": [],
			"stateMutability": "nonpayable"
		},
		{
			"type": "function",
			"name": "terminalsOf",
			"inputs": [
				{
					"name": "projectId",
					"type": "uint256",
					"internalType": "uint256"
				}
			],
			"outputs": [
				{
					"name": "",
					"type": "address[]",
					"internalType": "contract IJBTerminal[]"
				}
			],
			"stateMutability": "view"
		},
		{
			"type": "function",
			"name": "transferOwnership",
			"inputs": [
				{
					"name": "newOwner",
					"type": "address",
					"internalType": "address"
				}
			],
			"outputs": [],
			"stateMutability": "nonpayable"
		},
		{
			"type": "event",
			"name": "AddTerminal",
			"inputs": [
				{
					"name": "projectId",
					"type": "uint256",
					"indexed": true,
					"internalType": "uint256"
				},
				{
					"name": "terminal",
					"type": "address",
					"indexed": true,
					"internalType": "contract IJBTerminal"
				},
				{
					"name": "caller",
					"type": "address",
					"indexed": false,
					"internalType": "address"
				}
			],
			"anonymous": false
		},
		{
			"type": "event",
			"name": "OwnershipTransferred",
			"inputs": [
				{
					"name": "previousOwner",
					"type": "address",
					"indexed": true,
					"internalType": "address"
				},
				{
					"name": "newOwner",
					"type": "address",
					"indexed": true,
					"internalType": "address"
				}
			],
			"anonymous": false
		},
		{
			"type": "event",
			"name": "SetController",
			"inputs": [
				{
					"name": "projectId",
					"type": "uint256",
					"indexed": true,
					"internalType": "uint256"
				},
				{
					"name": "controller",
					"type": "address",
					"indexed": true,
					"internalType": "contract IERC165"
				},
				{
					"name": "caller",
					"type": "address",
					"indexed": false,
					"internalType": "address"
				}
			],
			"anonymous": false
		},
		{
			"type": "event",
			"name": "SetIsAllowedToSetFirstController",
			"inputs": [
				{
					"name": "addr",
					"type": "address",
					"indexed": true,
					"internalType": "address"
				},
				{
					"name": "flag",
					"type": "bool",
					"indexed": true,
					"internalType": "bool"
				},
				{
					"name": "caller",
					"type": "address",
					"indexed": false,
					"internalType": "address"
				}
			],
			"anonymous": false
		},
		{
			"type": "event",
			"name": "SetPrimaryTerminal",
			"inputs": [
				{
					"name": "projectId",
					"type": "uint256",
					"indexed": true,
					"internalType": "uint256"
				},
				{
					"name": "token",
					"type": "address",
					"indexed": true,
					"internalType": "address"
				},
				{
					"name": "terminal",
					"type": "address",
					"indexed": true,
					"internalType": "contract IJBTerminal"
				},
				{
					"name": "caller",
					"type": "address",
					"indexed": false,
					"internalType": "address"
				}
			],
			"anonymous": false
		},
		{
			"type": "event",
			"name": "SetTerminals",
			"inputs": [
				{
					"name": "projectId",
					"type": "uint256",
					"indexed": true,
					"internalType": "uint256"
				},
				{
					"name": "terminals",
					"type": "address[]",
					"indexed": false,
					"internalType": "contract IJBTerminal[]"
				},
				{
					"name": "caller",
					"type": "address",
					"indexed": false,
					"internalType": "address"
				}
			],
			"anonymous": false
		},
		{
			"type": "error",
			"name": "DUPLICATE_TERMINALS",
			"inputs": []
		},
		{
			"type": "error",
			"name": "INVALID_PROJECT_ID_IN_DIRECTORY",
			"inputs": []
		},
		{
			"type": "error",
			"name": "OwnableInvalidOwner",
			"inputs": [
				{
					"name": "owner",
					"type": "address",
					"internalType": "address"
				}
			]
		},
		{
			"type": "error",
			"name": "OwnableUnauthorizedAccount",
			"inputs": [
				{
					"name": "account",
					"type": "address",
					"internalType": "address"
				}
			]
		},
		{
			"type": "error",
			"name": "SET_CONTROLLER_NOT_ALLOWED",
			"inputs": []
		},
		{
			"type": "error",
			"name": "SET_TERMINALS_NOT_ALLOWED",
			"inputs": []
		},
		{
			"type": "error",
			"name": "TOKEN_NOT_ACCEPTED",
			"inputs": []
		},
		{
			"type": "error",
			"name": "UNAUTHORIZED",
			"inputs": []
		}
	],
	"solcInputHash": "5d4c706d93c97620ff427d8d75b46099",
	"args": [
		"0x1e2E8562b635fe19978640C784e47865A83d6605",
		"0xf9dadA4628Eb3992202CF253625d4ECebBC1592f",
		"0x1081B5AA9D9d4862A3dA4d469433FB36Ed80FA2A"
	],
	"bytecode": "0x60c06040523480156200001157600080fd5b5060405162001654380380620016548339810160408190526200003491620000f4565b6001600160a01b03808416608052819081166200006b57604051631e4fbdf760e01b81526000600482015260240160405180910390fd5b62000076816200008b565b50506001600160a01b031660a0525062000148565b600080546001600160a01b038381166001600160a01b0319831681178455604051919092169283917f8be0079c531659141344cd1fd0a4f28419497f9722a3daafe3b4186f6b6457e09190a35050565b6001600160a01b0381168114620000f157600080fd5b50565b6000806000606084860312156200010a57600080fd5b83516200011781620000db565b60208501519093506200012a81620000db565b60408501519092506200013d81620000db565b809150509250925092565b60805160a0516114bd620001976000396000818160f401528181610290015281816104be0152818161057201526107cd01526000818161025401528181610d470152610df001526114bd6000f3fe608060405234801561001057600080fd5b50600436106100ea5760003560e01c8063862026501161008c578063c5664e2111610066578063c5664e21146101f9578063d17541531461021c578063f2fde38b1461023c578063f434c9141461024f57600080fd5b806386202650146101c25780638da5cb5b146101d5578063a1ed3175146101e657600080fd5b80636e49181f116100c85780636e49181f14610171578063714e7f3214610194578063715018a6146101a7578063821b9fd8146101af57600080fd5b8063293c4999146100ef5780635dd8f6aa1461013357806363d0850a1461015c575b600080fd5b6101167f000000000000000000000000000000000000000000000000000000000000000081565b6040516001600160a01b0390911681526020015b60405180910390f35b61011661014136600461113f565b6001602052600090815260409020546001600160a01b031681565b61016f61016a36600461116d565b610276565b005b61018461017f3660046111af565b610425565b604051901515815260200161012a565b61016f6101a23660046111af565b6104a4565b61016f61079f565b61016f6101bd3660046111df565b6107b3565b6101166101d03660046111af565b610ab8565b6000546001600160a01b0316610116565b61016f6101f436600461126c565b610be4565b61018461020736600461129a565b60026020526000908152604090205460ff1681565b61022f61022a36600461113f565b610c4e565b60405161012a91906112be565b61016f61024a36600461129a565b610cba565b6101167f000000000000000000000000000000000000000000000000000000000000000081565b6040516331a9108f60e11b81526004810184905261030b907f00000000000000000000000000000000000000000000000000000000000000006001600160a01b031690636352211e90602401602060405180830381865afa1580156102df573d6000803e3d6000fd5b505050506040513d601f19601f82011682018060405250810190610303919061130b565b84600f610cfd565b604051633a01714f60e01b8152600481018490526001600160a01b03838116602483015260009190831690633a01714f90604401606060405180830381865afa15801561035c573d6000803e3d6000fd5b505050506040513d601f19601f820116820180604052508101906103809190611328565b516001600160a01b0316036103a857604051630faa917b60e11b815260040160405180910390fd5b6103b28382610e81565b60008381526004602090815260408083206001600160a01b038681168086529184529382902080546001600160a01b03191694861694851790559051338152909186917fc670a502bbb9f8a4315f95eca901a9f99b65f89a2eb5705a58050e5c00f9d672910160405180910390a4505050565b600082815260036020526040812054815b8181101561049757600085815260036020526040902080546001600160a01b03861691908390811061046a5761046a6113b7565b6000918252602090912001546001600160a01b03160361048f5760019250505061049e565b600101610436565b5060009150505b92915050565b6040516331a9108f60e11b81526004810183905261056f907f00000000000000000000000000000000000000000000000000000000000000006001600160a01b031690636352211e90602401602060405180830381865afa15801561050d573d6000803e3d6000fd5b505050506040513d601f19601f82011682018060405250810190610531919061130b565b336000908152600260205260409020548490600d9060ff16801561056a57506000868152600160205260409020546001600160a01b0316155b61103a565b817f00000000000000000000000000000000000000000000000000000000000000006001600160a01b03166306661abd6040518163ffffffff1660e01b8152600401602060405180830381865afa1580156105ce573d6000803e3d6000fd5b505050506040513d601f19601f820116820180604052508101906105f291906113cd565b101561061157604051634a283a5360e11b815260040160405180910390fd5b6000828152600160205260408120546001600160a01b0316908115806106a357506040516301ffc9a760e01b8152632877540760e01b60048201526001600160a01b038316906301ffc9a790602401602060405180830381865afa15801561067d573d6000803e3d6000fd5b505050506040513d601f19601f820116820180604052508101906106a191906113e6565b155b61071557604051632674968d60e21b8152600481018590526001600160a01b038316906399d25a3490602401602060405180830381865afa1580156106ec573d6000803e3d6000fd5b505050506040513d601f19601f8201168201806040525081019061071091906113e6565b610718565b60015b9050806107385760405163a33db4cb60e01b815260040160405180910390fd5b60008481526001602090815260409182902080546001600160a01b0319166001600160a01b038716908117909155915133815286917f7f9a7dcb234c909a09de2f344661ad9e5b24067adb97c908647c2edcbb121c3091015b60405180910390a350505050565b6107a761104a565b6107b16000611077565b565b6040516331a9108f60e11b815260048101849052610864907f00000000000000000000000000000000000000000000000000000000000000006001600160a01b031690636352211e90602401602060405180830381865afa15801561081c573d6000803e3d6000fd5b505050506040513d601f19601f82011682018060405250810190610840919061130b565b6000858152600160205260409020548590600e906001600160a01b0316331461103a565b6000838152600160205260408082205490516301ffc9a760e01b8152632877540760e01b60048201526001600160a01b03909116919082906301ffc9a790602401602060405180830381865afa1580156108c2573d6000803e3d6000fd5b505050506040513d601f19601f820116820180604052508101906108e691906113e6565b1580610956575060405163b1a50e3360e01b8152600481018690526001600160a01b0383169063b1a50e3390602401602060405180830381865afa158015610932573d6000803e3d6000fd5b505050506040513d601f19601f8201168201806040525081019061095691906113e6565b6000868152600160205260409020549091506001600160a01b0316331480159061097e575080155b1561099c576040516375fef35f60e11b815260040160405180910390fd5b60008581526003602052604090206109b59085856110c7565b50826001811115610a745760005b81811015610a725760006109d8826001611403565b90505b82811015610a69578686828181106109f5576109f56113b7565b9050602002016020810190610a0a919061129a565b6001600160a01b0316878784818110610a2557610a256113b7565b9050602002016020810190610a3a919061129a565b6001600160a01b031603610a6157604051633e3830ab60e11b815260040160405180910390fd5b6001016109db565b506001016109c3565b505b857fb648241d83df6540fc10f2acc641e4bf80a1e84e7ae2f1f6b0ad204b8fee635b868633604051610aa893929190611424565b60405180910390a2505050505050565b60008281526004602090815260408083206001600160a01b0380861685529252822054168015801590610af05750610af08482610425565b15610afc57905061049e565b600084815260036020526040812054905b81811015610bd8576000868152600360205260408120805483908110610b3557610b356113b7565b6000918252602082200154604051633a01714f60e01b8152600481018a90526001600160a01b03898116602483015290911692508290633a01714f90604401606060405180830381865afa158015610b91573d6000803e3d6000fd5b505050506040513d601f19601f82011682018060405250810190610bb59190611328565b516001600160a01b031614610bcf57935061049e92505050565b50600101610b0d565b50600095945050505050565b610bec61104a565b6001600160a01b038216600081815260026020908152604091829020805460ff191685151590811790915591513381529192917f11207664cc48b0fa81c8674795f1d8f642960f38d5d2d305ad813093bed85fab910160405180910390a35050565b600081815260036020908152604091829020805483518184028101840190945280845260609392830182828015610cae57602002820191906000526020600020905b81546001600160a01b03168152600190910190602001808311610c90575b50505050509050919050565b610cc261104a565b6001600160a01b038116610cf157604051631e4fbdf760e01b8152600060048201526024015b60405180910390fd5b610cfa81611077565b50565b336001600160a01b0384168114801590610db4575060405163c161c93f60e01b81526001600160a01b038281166004830152858116602483015260448201859052606482018490527f0000000000000000000000000000000000000000000000000000000000000000169063c161c93f90608401602060405180830381865afa158015610d8e573d6000803e3d6000fd5b505050506040513d601f19601f82011682018060405250810190610db291906113e6565b155b8015610e5d575060405163c161c93f60e01b81526001600160a01b038281166004830152858116602483015260006044830152606482018490527f0000000000000000000000000000000000000000000000000000000000000000169063c161c93f90608401602060405180830381865afa158015610e37573d6000803e3d6000fd5b505050506040513d601f19601f82011682018060405250810190610e5b91906113e6565b155b15610e7b5760405163075fd2b160e01b815260040160405180910390fd5b50505050565b610e8b8282610425565b15610e94575050565b6000828152600160205260408082205490516301ffc9a760e01b8152632877540760e01b60048201526001600160a01b03909116919082906301ffc9a790602401602060405180830381865afa158015610ef2573d6000803e3d6000fd5b505050506040513d601f19601f82011682018060405250810190610f1691906113e6565b1580610f86575060405163b1a50e3360e01b8152600481018590526001600160a01b0383169063b1a50e3390602401602060405180830381865afa158015610f62573d6000803e3d6000fd5b505050506040513d601f19601f82011682018060405250810190610f8691906113e6565b6000858152600160205260409020549091506001600160a01b03163314801590610fae575080155b15610fcc576040516375fef35f60e11b815260040160405180910390fd5b600084815260036020908152604080832080546001810182559084529282902090920180546001600160a01b0319166001600160a01b038716908117909155915133815286917f409bccc07b7cf7807930526a24318212d614c59f2dde05a017a41efee144e7c89101610791565b80610e7b57610e7b848484610cfd565b6000546001600160a01b031633146107b15760405163118cdaa760e01b8152336004820152602401610ce8565b600080546001600160a01b038381166001600160a01b0319831681178455604051919092169283917f8be0079c531659141344cd1fd0a4f28419497f9722a3daafe3b4186f6b6457e09190a35050565b82805482825590600052602060002090810192821561111a579160200282015b8281111561111a5781546001600160a01b0319166001600160a01b038435161782556020909201916001909101906110e7565b5061112692915061112a565b5090565b5b80821115611126576000815560010161112b565b60006020828403121561115157600080fd5b5035919050565b6001600160a01b0381168114610cfa57600080fd5b60008060006060848603121561118257600080fd5b83359250602084013561119481611158565b915060408401356111a481611158565b809150509250925092565b600080604083850312156111c257600080fd5b8235915060208301356111d481611158565b809150509250929050565b6000806000604084860312156111f457600080fd5b83359250602084013567ffffffffffffffff8082111561121357600080fd5b818601915086601f83011261122757600080fd5b81358181111561123657600080fd5b8760208260051b850101111561124b57600080fd5b6020830194508093505050509250925092565b8015158114610cfa57600080fd5b6000806040838503121561127f57600080fd5b823561128a81611158565b915060208301356111d48161125e565b6000602082840312156112ac57600080fd5b81356112b781611158565b9392505050565b6020808252825182820181905260009190848201906040850190845b818110156112ff5783516001600160a01b0316835292840192918401916001016112da565b50909695505050505050565b60006020828403121561131d57600080fd5b81516112b781611158565b60006060828403121561133a57600080fd5b6040516060810181811067ffffffffffffffff8211171561136b57634e487b7160e01b600052604160045260246000fd5b604052825161137981611158565b8152602083015160ff8116811461138f57600080fd5b6020820152604083015163ffffffff811681146113ab57600080fd5b60408201529392505050565b634e487b7160e01b600052603260045260246000fd5b6000602082840312156113df57600080fd5b5051919050565b6000602082840312156113f857600080fd5b81516112b78161125e565b8082018082111561049e57634e487b7160e01b600052601160045260246000fd5b6040808252810183905260008460608301825b8681101561146757823561144a81611158565b6001600160a01b0316825260209283019290910190600101611437565b506001600160a01b0394909416602093909301929092525090939250505056fea2646970667358221220cd22bf41610c854893081950d7c56d0f89b9d4000e5dc1a3d86c6391a7db805464736f6c63430008170033",
	"deployedBytecode": "0x608060405234801561001057600080fd5b50600436106100ea5760003560e01c8063862026501161008c578063c5664e2111610066578063c5664e21146101f9578063d17541531461021c578063f2fde38b1461023c578063f434c9141461024f57600080fd5b806386202650146101c25780638da5cb5b146101d5578063a1ed3175146101e657600080fd5b80636e49181f116100c85780636e49181f14610171578063714e7f3214610194578063715018a6146101a7578063821b9fd8146101af57600080fd5b8063293c4999146100ef5780635dd8f6aa1461013357806363d0850a1461015c575b600080fd5b6101167f000000000000000000000000f9dada4628eb3992202cf253625d4ecebbc1592f81565b6040516001600160a01b0390911681526020015b60405180910390f35b61011661014136600461113f565b6001602052600090815260409020546001600160a01b031681565b61016f61016a36600461116d565b610276565b005b61018461017f3660046111af565b610425565b604051901515815260200161012a565b61016f6101a23660046111af565b6104a4565b61016f61079f565b61016f6101bd3660046111df565b6107b3565b6101166101d03660046111af565b610ab8565b6000546001600160a01b0316610116565b61016f6101f436600461126c565b610be4565b61018461020736600461129a565b60026020526000908152604090205460ff1681565b61022f61022a36600461113f565b610c4e565b60405161012a91906112be565b61016f61024a36600461129a565b610cba565b6101167f0000000000000000000000001e2e8562b635fe19978640c784e47865a83d660581565b6040516331a9108f60e11b81526004810184905261030b907f000000000000000000000000f9dada4628eb3992202cf253625d4ecebbc1592f6001600160a01b031690636352211e90602401602060405180830381865afa1580156102df573d6000803e3d6000fd5b505050506040513d601f19601f82011682018060405250810190610303919061130b565b84600f610cfd565b604051633a01714f60e01b8152600481018490526001600160a01b03838116602483015260009190831690633a01714f90604401606060405180830381865afa15801561035c573d6000803e3d6000fd5b505050506040513d601f19601f820116820180604052508101906103809190611328565b516001600160a01b0316036103a857604051630faa917b60e11b815260040160405180910390fd5b6103b28382610e81565b60008381526004602090815260408083206001600160a01b038681168086529184529382902080546001600160a01b03191694861694851790559051338152909186917fc670a502bbb9f8a4315f95eca901a9f99b65f89a2eb5705a58050e5c00f9d672910160405180910390a4505050565b600082815260036020526040812054815b8181101561049757600085815260036020526040902080546001600160a01b03861691908390811061046a5761046a6113b7565b6000918252602090912001546001600160a01b03160361048f5760019250505061049e565b600101610436565b5060009150505b92915050565b6040516331a9108f60e11b81526004810183905261056f907f000000000000000000000000f9dada4628eb3992202cf253625d4ecebbc1592f6001600160a01b031690636352211e90602401602060405180830381865afa15801561050d573d6000803e3d6000fd5b505050506040513d601f19601f82011682018060405250810190610531919061130b565b336000908152600260205260409020548490600d9060ff16801561056a57506000868152600160205260409020546001600160a01b0316155b61103a565b817f000000000000000000000000f9dada4628eb3992202cf253625d4ecebbc1592f6001600160a01b03166306661abd6040518163ffffffff1660e01b8152600401602060405180830381865afa1580156105ce573d6000803e3d6000fd5b505050506040513d601f19601f820116820180604052508101906105f291906113cd565b101561061157604051634a283a5360e11b815260040160405180910390fd5b6000828152600160205260408120546001600160a01b0316908115806106a357506040516301ffc9a760e01b8152632877540760e01b60048201526001600160a01b038316906301ffc9a790602401602060405180830381865afa15801561067d573d6000803e3d6000fd5b505050506040513d601f19601f820116820180604052508101906106a191906113e6565b155b61071557604051632674968d60e21b8152600481018590526001600160a01b038316906399d25a3490602401602060405180830381865afa1580156106ec573d6000803e3d6000fd5b505050506040513d601f19601f8201168201806040525081019061071091906113e6565b610718565b60015b9050806107385760405163a33db4cb60e01b815260040160405180910390fd5b60008481526001602090815260409182902080546001600160a01b0319166001600160a01b038716908117909155915133815286917f7f9a7dcb234c909a09de2f344661ad9e5b24067adb97c908647c2edcbb121c3091015b60405180910390a350505050565b6107a761104a565b6107b16000611077565b565b6040516331a9108f60e11b815260048101849052610864907f000000000000000000000000f9dada4628eb3992202cf253625d4ecebbc1592f6001600160a01b031690636352211e90602401602060405180830381865afa15801561081c573d6000803e3d6000fd5b505050506040513d601f19601f82011682018060405250810190610840919061130b565b6000858152600160205260409020548590600e906001600160a01b0316331461103a565b6000838152600160205260408082205490516301ffc9a760e01b8152632877540760e01b60048201526001600160a01b03909116919082906301ffc9a790602401602060405180830381865afa1580156108c2573d6000803e3d6000fd5b505050506040513d601f19601f820116820180604052508101906108e691906113e6565b1580610956575060405163b1a50e3360e01b8152600481018690526001600160a01b0383169063b1a50e3390602401602060405180830381865afa158015610932573d6000803e3d6000fd5b505050506040513d601f19601f8201168201806040525081019061095691906113e6565b6000868152600160205260409020549091506001600160a01b0316331480159061097e575080155b1561099c576040516375fef35f60e11b815260040160405180910390fd5b60008581526003602052604090206109b59085856110c7565b50826001811115610a745760005b81811015610a725760006109d8826001611403565b90505b82811015610a69578686828181106109f5576109f56113b7565b9050602002016020810190610a0a919061129a565b6001600160a01b0316878784818110610a2557610a256113b7565b9050602002016020810190610a3a919061129a565b6001600160a01b031603610a6157604051633e3830ab60e11b815260040160405180910390fd5b6001016109db565b506001016109c3565b505b857fb648241d83df6540fc10f2acc641e4bf80a1e84e7ae2f1f6b0ad204b8fee635b868633604051610aa893929190611424565b60405180910390a2505050505050565b60008281526004602090815260408083206001600160a01b0380861685529252822054168015801590610af05750610af08482610425565b15610afc57905061049e565b600084815260036020526040812054905b81811015610bd8576000868152600360205260408120805483908110610b3557610b356113b7565b6000918252602082200154604051633a01714f60e01b8152600481018a90526001600160a01b03898116602483015290911692508290633a01714f90604401606060405180830381865afa158015610b91573d6000803e3d6000fd5b505050506040513d601f19601f82011682018060405250810190610bb59190611328565b516001600160a01b031614610bcf57935061049e92505050565b50600101610b0d565b50600095945050505050565b610bec61104a565b6001600160a01b038216600081815260026020908152604091829020805460ff191685151590811790915591513381529192917f11207664cc48b0fa81c8674795f1d8f642960f38d5d2d305ad813093bed85fab910160405180910390a35050565b600081815260036020908152604091829020805483518184028101840190945280845260609392830182828015610cae57602002820191906000526020600020905b81546001600160a01b03168152600190910190602001808311610c90575b50505050509050919050565b610cc261104a565b6001600160a01b038116610cf157604051631e4fbdf760e01b8152600060048201526024015b60405180910390fd5b610cfa81611077565b50565b336001600160a01b0384168114801590610db4575060405163c161c93f60e01b81526001600160a01b038281166004830152858116602483015260448201859052606482018490527f0000000000000000000000001e2e8562b635fe19978640c784e47865a83d6605169063c161c93f90608401602060405180830381865afa158015610d8e573d6000803e3d6000fd5b505050506040513d601f19601f82011682018060405250810190610db291906113e6565b155b8015610e5d575060405163c161c93f60e01b81526001600160a01b038281166004830152858116602483015260006044830152606482018490527f0000000000000000000000001e2e8562b635fe19978640c784e47865a83d6605169063c161c93f90608401602060405180830381865afa158015610e37573d6000803e3d6000fd5b505050506040513d601f19601f82011682018060405250810190610e5b91906113e6565b155b15610e7b5760405163075fd2b160e01b815260040160405180910390fd5b50505050565b610e8b8282610425565b15610e94575050565b6000828152600160205260408082205490516301ffc9a760e01b8152632877540760e01b60048201526001600160a01b03909116919082906301ffc9a790602401602060405180830381865afa158015610ef2573d6000803e3d6000fd5b505050506040513d601f19601f82011682018060405250810190610f1691906113e6565b1580610f86575060405163b1a50e3360e01b8152600481018590526001600160a01b0383169063b1a50e3390602401602060405180830381865afa158015610f62573d6000803e3d6000fd5b505050506040513d601f19601f82011682018060405250810190610f8691906113e6565b6000858152600160205260409020549091506001600160a01b03163314801590610fae575080155b15610fcc576040516375fef35f60e11b815260040160405180910390fd5b600084815260036020908152604080832080546001810182559084529282902090920180546001600160a01b0319166001600160a01b038716908117909155915133815286917f409bccc07b7cf7807930526a24318212d614c59f2dde05a017a41efee144e7c89101610791565b80610e7b57610e7b848484610cfd565b6000546001600160a01b031633146107b15760405163118cdaa760e01b8152336004820152602401610ce8565b600080546001600160a01b038381166001600160a01b0319831681178455604051919092169283917f8be0079c531659141344cd1fd0a4f28419497f9722a3daafe3b4186f6b6457e09190a35050565b82805482825590600052602060002090810192821561111a579160200282015b8281111561111a5781546001600160a01b0319166001600160a01b038435161782556020909201916001909101906110e7565b5061112692915061112a565b5090565b5b80821115611126576000815560010161112b565b60006020828403121561115157600080fd5b5035919050565b6001600160a01b0381168114610cfa57600080fd5b60008060006060848603121561118257600080fd5b83359250602084013561119481611158565b915060408401356111a481611158565b809150509250925092565b600080604083850312156111c257600080fd5b8235915060208301356111d481611158565b809150509250929050565b6000806000604084860312156111f457600080fd5b83359250602084013567ffffffffffffffff8082111561121357600080fd5b818601915086601f83011261122757600080fd5b81358181111561123657600080fd5b8760208260051b850101111561124b57600080fd5b6020830194508093505050509250925092565b8015158114610cfa57600080fd5b6000806040838503121561127f57600080fd5b823561128a81611158565b915060208301356111d48161125e565b6000602082840312156112ac57600080fd5b81356112b781611158565b9392505050565b6020808252825182820181905260009190848201906040850190845b818110156112ff5783516001600160a01b0316835292840192918401916001016112da565b50909695505050505050565b60006020828403121561131d57600080fd5b81516112b781611158565b60006060828403121561133a57600080fd5b6040516060810181811067ffffffffffffffff8211171561136b57634e487b7160e01b600052604160045260246000fd5b604052825161137981611158565b8152602083015160ff8116811461138f57600080fd5b6020820152604083015163ffffffff811681146113ab57600080fd5b60408201529392505050565b634e487b7160e01b600052603260045260246000fd5b6000602082840312156113df57600080fd5b5051919050565b6000602082840312156113f857600080fd5b81516112b78161125e565b8082018082111561049e57634e487b7160e01b600052601160045260246000fd5b6040808252810183905260008460608301825b8681101561146757823561144a81611158565b6001600160a01b0316825260209283019290910190600101611437565b506001600160a01b0394909416602093909301929092525090939250505056fea2646970667358221220cd22bf41610c854893081950d7c56d0f89b9d4000e5dc1a3d86c6391a7db805464736f6c63430008170033",
	"devdoc": {
		"kind": "dev",
		"methods": {
			"constructor": {
				"params": {
					"owner": "The address that will own the contract.",
					"permissions": "A contract storing permissions.",
					"projects": "A contract which mints ERC-721s that represent project ownership and transfers."
				}
			},
			"isTerminalOf(uint256,address)": {
				"params": {
					"projectId": "The ID of the project to check.",
					"terminal": "The terminal to check for."
				},
				"returns": {
					"_0": "A flag indicating whether the project uses the terminal."
				}
			},
			"owner()": {
				"details": "Returns the address of the current owner."
			},
			"primaryTerminalOf(uint256,address)": {
				"details": "Returns the first terminal that accepts the token if the project hasn't explicitly set a primary terminal for it.Returns the zero address if no terminal accepts the token.",
				"params": {
					"projectId": "The ID of the project to get the primary terminal of.",
					"token": "The token that the terminal accepts."
				},
				"returns": {
					"_0": "The primary terminal's address."
				}
			},
			"renounceOwnership()": {
				"details": "Leaves the contract without owner. It will not be possible to call `onlyOwner` functions. Can only be called by the current owner. NOTE: Renouncing ownership will leave the contract without an owner, thereby disabling any functionality that is only available to the owner."
			},
			"setControllerOf(uint256,address)": {
				"details": "Can only be called if: - The ruleset's metadata has `allowSetController` enabled, and the message's sender is the project's owner or an address with the owner's permission to `SET_CONTROLLER`. - OR the message's sender is the project's current controller. - OR an address which `isAllowedToSetFirstController` is setting a project's first controller.",
				"params": {
					"controller": "The address of the controller to set.",
					"projectId": "The ID of the project whose controller is being set."
				}
			},
			"setIsAllowedToSetFirstController(address,bool)": {
				"details": "Only this contract's owner can call this function.These addresses are vetted controllers as well as contracts designed to launch new projects.A project can set its own controller without being on this list.If you would like to add an address/contract to this list, please reach out to this contract's owner.",
				"params": {
					"addr": "The address to allow or not allow.",
					"flag": "Whether the address is allowed to set first controllers for projects. Use `true` to allow and `false` to not allow."
				}
			},
			"setPrimaryTerminalOf(uint256,address,address)": {
				"details": "The primary terminal for a token is where payments in that token are routed to by default.This is useful in cases where a project has multiple terminals which accept the same token.Can only be called by the project's owner, or an address with the owner's permission to `SET_PRIMARY_TERMINAL`.",
				"params": {
					"projectId": "The ID of the project whose primary terminal is being set.",
					"terminal": "The terminal being set as the primary terminal.",
					"token": "The token to set the primary terminal for."
				}
			},
			"setTerminalsOf(uint256,address[])": {
				"details": "Can only be called by the project's owner, an address with the owner's permission to `SET_TERMINALS`, or the project's controller.Unless the caller is the project's controller, the project's ruleset must allow setting terminals.",
				"params": {
					"projectId": "The ID of the project whose terminals are being set.",
					"terminals": "An array of terminal addresses to set for the project."
				}
			},
			"terminalsOf(uint256)": {
				"params": {
					"projectId": "The ID of the project to get the terminals of."
				},
				"returns": {
					"_0": "An array of the project's terminal addresses."
				}
			},
			"transferOwnership(address)": {
				"details": "Transfers ownership of the contract to a new account (`newOwner`). Can only be called by the current owner."
			}
		},
		"version": 1
	},
	"userdoc": {
		"kind": "user",
		"methods": {
			"PERMISSIONS()": {
				"notice": "A contract storing permissions."
			},
			"PROJECTS()": {
				"notice": "Mints ERC-721s that represent project ownership and transfers."
			},
			"controllerOf(uint256)": {
				"notice": "The specified project's controller, which dictates how its terminals interact with its tokens and rulesets."
			},
			"isAllowedToSetFirstController(address)": {
				"notice": "Whether the specified address is allowed to set a project's first controller on their behalf."
			},
			"isTerminalOf(uint256,address)": {
				"notice": "Check if a project uses a specific terminal."
			},
			"primaryTerminalOf(uint256,address)": {
				"notice": "The primary terminal that a project uses for the specified token."
			},
			"setControllerOf(uint256,address)": {
				"notice": "Set a project's controller. Controllers manage how terminals interact with tokens and rulesets."
			},
			"setIsAllowedToSetFirstController(address,bool)": {
				"notice": "Add or remove an address/contract from a list of trusted addresses which are allowed to set a first controller for projects."
			},
			"setPrimaryTerminalOf(uint256,address,address)": {
				"notice": "Set a project's primary terminal for a token."
			},
			"setTerminalsOf(uint256,address[])": {
				"notice": "Set a project's terminals."
			},
			"terminalsOf(uint256)": {
				"notice": "The specified project's terminals."
			}
		},
		"version": 1
	},
	"gitCommit": "8e6924651d1e8038d6c2982d6d0c09a070b141a7",
	"sourceName": "src/JBDirectory.sol",
	"chainId": "421614",
	"linkReferences": {},
	"deployedLinkReferences": {},
	"history": []
}