{
	"_format": "sphinx-sol-ct-artifact-1",
	"merkleRoot": "0x123f1bc4575ae34f66b049504b9f2424a2da7f85841998278be509533930c45d",
	"address": "0xfc89e55dbe954bc33a55ec92a61acda9aaeaacb7",
	"sourceName": "src/JBController.sol",
	"contractName": "JBController",
	"chainId": "0xaa37dc",
	"abi": [
		{
			"inputs": [
				{
					"internalType": "contract IJBDirectory",
					"name": "directory",
					"type": "address"
				},
				{
					"internalType": "contract IJBFundAccessLimits",
					"name": "fundAccessLimits",
					"type": "address"
				},
				{
					"internalType": "contract IJBPermissions",
					"name": "permissions",
					"type": "address"
				},
				{
					"internalType": "contract IJBPrices",
					"name": "prices",
					"type": "address"
				},
				{
					"internalType": "contract IJBProjects",
					"name": "projects",
					"type": "address"
				},
				{
					"internalType": "contract IJBRulesets",
					"name": "rulesets",
					"type": "address"
				},
				{
					"internalType": "contract IJBSplits",
					"name": "splits",
					"type": "address"
				},
				{
					"internalType": "contract IJBTokens",
					"name": "tokens",
					"type": "address"
				},
				{
					"internalType": "address",
					"name": "trustedForwarder",
					"type": "address"
				}
			],
			"stateMutability": "nonpayable",
			"type": "constructor"
		},
		{
			"inputs": [],
			"name": "DIRECTORY",
			"outputs": [
				{
					"internalType": "contract IJBDirectory",
					"name": "",
					"type": "address"
				}
			],
			"stateMutability": "view",
			"type": "function"
		},
		{
			"inputs": [],
			"name": "FUND_ACCESS_LIMITS",
			"outputs": [
				{
					"internalType": "contract IJBFundAccessLimits",
					"name": "",
					"type": "address"
				}
			],
			"stateMutability": "view",
			"type": "function"
		},
		{
			"inputs": [],
			"name": "PERMISSIONS",
			"outputs": [
				{
					"internalType": "contract IJBPermissions",
					"name": "",
					"type": "address"
				}
			],
			"stateMutability": "view",
			"type": "function"
		},
		{
			"inputs": [],
			"name": "PRICES",
			"outputs": [
				{
					"internalType": "contract IJBPrices",
					"name": "",
					"type": "address"
				}
			],
			"stateMutability": "view",
			"type": "function"
		},
		{
			"inputs": [],
			"name": "PROJECTS",
			"outputs": [
				{
					"internalType": "contract IJBProjects",
					"name": "",
					"type": "address"
				}
			],
			"stateMutability": "view",
			"type": "function"
		},
		{
			"inputs": [],
			"name": "RULESETS",
			"outputs": [
				{
					"internalType": "contract IJBRulesets",
					"name": "",
					"type": "address"
				}
			],
			"stateMutability": "view",
			"type": "function"
		},
		{
			"inputs": [],
			"name": "SPLITS",
			"outputs": [
				{
					"internalType": "contract IJBSplits",
					"name": "",
					"type": "address"
				}
			],
			"stateMutability": "view",
			"type": "function"
		},
		{
			"inputs": [],
			"name": "TOKENS",
			"outputs": [
				{
					"internalType": "contract IJBTokens",
					"name": "",
					"type": "address"
				}
			],
			"stateMutability": "view",
			"type": "function"
		},
		{
			"inputs": [
				{
					"internalType": "uint256",
					"name": "projectId",
					"type": "uint256"
				},
				{
					"internalType": "uint256",
					"name": "pricingCurrency",
					"type": "uint256"
				},
				{
					"internalType": "uint256",
					"name": "unitCurrency",
					"type": "uint256"
				},
				{
					"internalType": "contract IJBPriceFeed",
					"name": "feed",
					"type": "address"
				}
			],
			"name": "addPriceFeed",
			"outputs": [],
			"stateMutability": "nonpayable",
			"type": "function"
		},
		{
			"inputs": [
				{
					"internalType": "uint256",
					"name": "projectId",
					"type": "uint256"
				},
				{
					"internalType": "uint256",
					"name": "startingId",
					"type": "uint256"
				},
				{
					"internalType": "uint256",
					"name": "size",
					"type": "uint256"
				}
			],
			"name": "allRulesetsOf",
			"outputs": [
				{
					"components": [
						{
							"components": [
								{
									"internalType": "uint48",
									"name": "cycleNumber",
									"type": "uint48"
								},
								{
									"internalType": "uint48",
									"name": "id",
									"type": "uint48"
								},
								{
									"internalType": "uint48",
									"name": "basedOnId",
									"type": "uint48"
								},
								{
									"internalType": "uint48",
									"name": "start",
									"type": "uint48"
								},
								{
									"internalType": "uint32",
									"name": "duration",
									"type": "uint32"
								},
								{
									"internalType": "uint112",
									"name": "weight",
									"type": "uint112"
								},
								{
									"internalType": "uint32",
									"name": "weightCutPercent",
									"type": "uint32"
								},
								{
									"internalType": "contract IJBRulesetApprovalHook",
									"name": "approvalHook",
									"type": "address"
								},
								{
									"internalType": "uint256",
									"name": "metadata",
									"type": "uint256"
								}
							],
							"internalType": "struct JBRuleset",
							"name": "ruleset",
							"type": "tuple"
						},
						{
							"components": [
								{
									"internalType": "uint16",
									"name": "reservedPercent",
									"type": "uint16"
								},
								{
									"internalType": "uint16",
									"name": "cashOutTaxRate",
									"type": "uint16"
								},
								{
									"internalType": "uint32",
									"name": "baseCurrency",
									"type": "uint32"
								},
								{
									"internalType": "bool",
									"name": "pausePay",
									"type": "bool"
								},
								{
									"internalType": "bool",
									"name": "pauseCreditTransfers",
									"type": "bool"
								},
								{
									"internalType": "bool",
									"name": "allowOwnerMinting",
									"type": "bool"
								},
								{
									"internalType": "bool",
									"name": "allowSetCustomToken",
									"type": "bool"
								},
								{
									"internalType": "bool",
									"name": "allowTerminalMigration",
									"type": "bool"
								},
								{
									"internalType": "bool",
									"name": "allowSetTerminals",
									"type": "bool"
								},
								{
									"internalType": "bool",
									"name": "allowSetController",
									"type": "bool"
								},
								{
									"internalType": "bool",
									"name": "allowAddAccountingContext",
									"type": "bool"
								},
								{
									"internalType": "bool",
									"name": "allowAddPriceFeed",
									"type": "bool"
								},
								{
									"internalType": "bool",
									"name": "ownerMustSendPayouts",
									"type": "bool"
								},
								{
									"internalType": "bool",
									"name": "holdFees",
									"type": "bool"
								},
								{
									"internalType": "bool",
									"name": "useTotalSurplusForCashOuts",
									"type": "bool"
								},
								{
									"internalType": "bool",
									"name": "useDataHookForPay",
									"type": "bool"
								},
								{
									"internalType": "bool",
									"name": "useDataHookForCashOut",
									"type": "bool"
								},
								{
									"internalType": "address",
									"name": "dataHook",
									"type": "address"
								},
								{
									"internalType": "uint16",
									"name": "metadata",
									"type": "uint16"
								}
							],
							"internalType": "struct JBRulesetMetadata",
							"name": "metadata",
							"type": "tuple"
						}
					],
					"internalType": "struct JBRulesetWithMetadata[]",
					"name": "rulesets",
					"type": "tuple[]"
				}
			],
			"stateMutability": "view",
			"type": "function"
		},
		{
			"inputs": [
				{
					"internalType": "contract IERC165",
					"name": "from",
					"type": "address"
				},
				{
					"internalType": "uint256",
					"name": "projectId",
					"type": "uint256"
				}
			],
			"name": "beforeReceiveMigrationFrom",
			"outputs": [],
			"stateMutability": "nonpayable",
			"type": "function"
		},
		{
			"inputs": [
				{
					"internalType": "address",
					"name": "holder",
					"type": "address"
				},
				{
					"internalType": "uint256",
					"name": "projectId",
					"type": "uint256"
				},
				{
					"internalType": "uint256",
					"name": "tokenCount",
					"type": "uint256"
				},
				{
					"internalType": "string",
					"name": "memo",
					"type": "string"
				}
			],
			"name": "burnTokensOf",
			"outputs": [],
			"stateMutability": "nonpayable",
			"type": "function"
		},
		{
			"inputs": [
				{
					"internalType": "address",
					"name": "holder",
					"type": "address"
				},
				{
					"internalType": "uint256",
					"name": "projectId",
					"type": "uint256"
				},
				{
					"internalType": "uint256",
					"name": "tokenCount",
					"type": "uint256"
				},
				{
					"internalType": "address",
					"name": "beneficiary",
					"type": "address"
				}
			],
			"name": "claimTokensFor",
			"outputs": [],
			"stateMutability": "nonpayable",
			"type": "function"
		},
		{
			"inputs": [
				{
					"internalType": "uint256",
					"name": "projectId",
					"type": "uint256"
				}
			],
			"name": "currentRulesetOf",
			"outputs": [
				{
					"components": [
						{
							"internalType": "uint48",
							"name": "cycleNumber",
							"type": "uint48"
						},
						{
							"internalType": "uint48",
							"name": "id",
							"type": "uint48"
						},
						{
							"internalType": "uint48",
							"name": "basedOnId",
							"type": "uint48"
						},
						{
							"internalType": "uint48",
							"name": "start",
							"type": "uint48"
						},
						{
							"internalType": "uint32",
							"name": "duration",
							"type": "uint32"
						},
						{
							"internalType": "uint112",
							"name": "weight",
							"type": "uint112"
						},
						{
							"internalType": "uint32",
							"name": "weightCutPercent",
							"type": "uint32"
						},
						{
							"internalType": "contract IJBRulesetApprovalHook",
							"name": "approvalHook",
							"type": "address"
						},
						{
							"internalType": "uint256",
							"name": "metadata",
							"type": "uint256"
						}
					],
					"internalType": "struct JBRuleset",
					"name": "ruleset",
					"type": "tuple"
				},
				{
					"components": [
						{
							"internalType": "uint16",
							"name": "reservedPercent",
							"type": "uint16"
						},
						{
							"internalType": "uint16",
							"name": "cashOutTaxRate",
							"type": "uint16"
						},
						{
							"internalType": "uint32",
							"name": "baseCurrency",
							"type": "uint32"
						},
						{
							"internalType": "bool",
							"name": "pausePay",
							"type": "bool"
						},
						{
							"internalType": "bool",
							"name": "pauseCreditTransfers",
							"type": "bool"
						},
						{
							"internalType": "bool",
							"name": "allowOwnerMinting",
							"type": "bool"
						},
						{
							"internalType": "bool",
							"name": "allowSetCustomToken",
							"type": "bool"
						},
						{
							"internalType": "bool",
							"name": "allowTerminalMigration",
							"type": "bool"
						},
						{
							"internalType": "bool",
							"name": "allowSetTerminals",
							"type": "bool"
						},
						{
							"internalType": "bool",
							"name": "allowSetController",
							"type": "bool"
						},
						{
							"internalType": "bool",
							"name": "allowAddAccountingContext",
							"type": "bool"
						},
						{
							"internalType": "bool",
							"name": "allowAddPriceFeed",
							"type": "bool"
						},
						{
							"internalType": "bool",
							"name": "ownerMustSendPayouts",
							"type": "bool"
						},
						{
							"internalType": "bool",
							"name": "holdFees",
							"type": "bool"
						},
						{
							"internalType": "bool",
							"name": "useTotalSurplusForCashOuts",
							"type": "bool"
						},
						{
							"internalType": "bool",
							"name": "useDataHookForPay",
							"type": "bool"
						},
						{
							"internalType": "bool",
							"name": "useDataHookForCashOut",
							"type": "bool"
						},
						{
							"internalType": "address",
							"name": "dataHook",
							"type": "address"
						},
						{
							"internalType": "uint16",
							"name": "metadata",
							"type": "uint16"
						}
					],
					"internalType": "struct JBRulesetMetadata",
					"name": "metadata",
					"type": "tuple"
				}
			],
			"stateMutability": "view",
			"type": "function"
		},
		{
			"inputs": [
				{
					"internalType": "uint256",
					"name": "projectId",
					"type": "uint256"
				},
				{
					"internalType": "string",
					"name": "name",
					"type": "string"
				},
				{
					"internalType": "string",
					"name": "symbol",
					"type": "string"
				},
				{
					"internalType": "bytes32",
					"name": "salt",
					"type": "bytes32"
				}
			],
			"name": "deployERC20For",
			"outputs": [
				{
					"internalType": "contract IJBToken",
					"name": "token",
					"type": "address"
				}
			],
			"stateMutability": "nonpayable",
			"type": "function"
		},
		{
			"inputs": [
				{
					"internalType": "contract IJBTerminal",
					"name": "terminal",
					"type": "address"
				},
				{
					"internalType": "uint256",
					"name": "projectId",
					"type": "uint256"
				},
				{
					"internalType": "contract IJBToken",
					"name": "token",
					"type": "address"
				},
				{
					"internalType": "uint256",
					"name": "splitTokenCount",
					"type": "uint256"
				},
				{
					"internalType": "address",
					"name": "beneficiary",
					"type": "address"
				},
				{
					"internalType": "bytes",
					"name": "metadata",
					"type": "bytes"
				}
			],
			"name": "executePayReservedTokenToTerminal",
			"outputs": [],
			"stateMutability": "nonpayable",
			"type": "function"
		},
		{
			"inputs": [
				{
					"internalType": "uint256",
					"name": "projectId",
					"type": "uint256"
				},
				{
					"internalType": "uint256",
					"name": "rulesetId",
					"type": "uint256"
				}
			],
			"name": "getRulesetOf",
			"outputs": [
				{
					"components": [
						{
							"internalType": "uint48",
							"name": "cycleNumber",
							"type": "uint48"
						},
						{
							"internalType": "uint48",
							"name": "id",
							"type": "uint48"
						},
						{
							"internalType": "uint48",
							"name": "basedOnId",
							"type": "uint48"
						},
						{
							"internalType": "uint48",
							"name": "start",
							"type": "uint48"
						},
						{
							"internalType": "uint32",
							"name": "duration",
							"type": "uint32"
						},
						{
							"internalType": "uint112",
							"name": "weight",
							"type": "uint112"
						},
						{
							"internalType": "uint32",
							"name": "weightCutPercent",
							"type": "uint32"
						},
						{
							"internalType": "contract IJBRulesetApprovalHook",
							"name": "approvalHook",
							"type": "address"
						},
						{
							"internalType": "uint256",
							"name": "metadata",
							"type": "uint256"
						}
					],
					"internalType": "struct JBRuleset",
					"name": "ruleset",
					"type": "tuple"
				},
				{
					"components": [
						{
							"internalType": "uint16",
							"name": "reservedPercent",
							"type": "uint16"
						},
						{
							"internalType": "uint16",
							"name": "cashOutTaxRate",
							"type": "uint16"
						},
						{
							"internalType": "uint32",
							"name": "baseCurrency",
							"type": "uint32"
						},
						{
							"internalType": "bool",
							"name": "pausePay",
							"type": "bool"
						},
						{
							"internalType": "bool",
							"name": "pauseCreditTransfers",
							"type": "bool"
						},
						{
							"internalType": "bool",
							"name": "allowOwnerMinting",
							"type": "bool"
						},
						{
							"internalType": "bool",
							"name": "allowSetCustomToken",
							"type": "bool"
						},
						{
							"internalType": "bool",
							"name": "allowTerminalMigration",
							"type": "bool"
						},
						{
							"internalType": "bool",
							"name": "allowSetTerminals",
							"type": "bool"
						},
						{
							"internalType": "bool",
							"name": "allowSetController",
							"type": "bool"
						},
						{
							"internalType": "bool",
							"name": "allowAddAccountingContext",
							"type": "bool"
						},
						{
							"internalType": "bool",
							"name": "allowAddPriceFeed",
							"type": "bool"
						},
						{
							"internalType": "bool",
							"name": "ownerMustSendPayouts",
							"type": "bool"
						},
						{
							"internalType": "bool",
							"name": "holdFees",
							"type": "bool"
						},
						{
							"internalType": "bool",
							"name": "useTotalSurplusForCashOuts",
							"type": "bool"
						},
						{
							"internalType": "bool",
							"name": "useDataHookForPay",
							"type": "bool"
						},
						{
							"internalType": "bool",
							"name": "useDataHookForCashOut",
							"type": "bool"
						},
						{
							"internalType": "address",
							"name": "dataHook",
							"type": "address"
						},
						{
							"internalType": "uint16",
							"name": "metadata",
							"type": "uint16"
						}
					],
					"internalType": "struct JBRulesetMetadata",
					"name": "metadata",
					"type": "tuple"
				}
			],
			"stateMutability": "view",
			"type": "function"
		},
		{
			"inputs": [
				{
					"internalType": "address",
					"name": "forwarder",
					"type": "address"
				}
			],
			"name": "isTrustedForwarder",
			"outputs": [
				{
					"internalType": "bool",
					"name": "",
					"type": "bool"
				}
			],
			"stateMutability": "view",
			"type": "function"
		},
		{
			"inputs": [
				{
					"internalType": "uint256",
					"name": "projectId",
					"type": "uint256"
				}
			],
			"name": "latestQueuedRulesetOf",
			"outputs": [
				{
					"components": [
						{
							"internalType": "uint48",
							"name": "cycleNumber",
							"type": "uint48"
						},
						{
							"internalType": "uint48",
							"name": "id",
							"type": "uint48"
						},
						{
							"internalType": "uint48",
							"name": "basedOnId",
							"type": "uint48"
						},
						{
							"internalType": "uint48",
							"name": "start",
							"type": "uint48"
						},
						{
							"internalType": "uint32",
							"name": "duration",
							"type": "uint32"
						},
						{
							"internalType": "uint112",
							"name": "weight",
							"type": "uint112"
						},
						{
							"internalType": "uint32",
							"name": "weightCutPercent",
							"type": "uint32"
						},
						{
							"internalType": "contract IJBRulesetApprovalHook",
							"name": "approvalHook",
							"type": "address"
						},
						{
							"internalType": "uint256",
							"name": "metadata",
							"type": "uint256"
						}
					],
					"internalType": "struct JBRuleset",
					"name": "ruleset",
					"type": "tuple"
				},
				{
					"components": [
						{
							"internalType": "uint16",
							"name": "reservedPercent",
							"type": "uint16"
						},
						{
							"internalType": "uint16",
							"name": "cashOutTaxRate",
							"type": "uint16"
						},
						{
							"internalType": "uint32",
							"name": "baseCurrency",
							"type": "uint32"
						},
						{
							"internalType": "bool",
							"name": "pausePay",
							"type": "bool"
						},
						{
							"internalType": "bool",
							"name": "pauseCreditTransfers",
							"type": "bool"
						},
						{
							"internalType": "bool",
							"name": "allowOwnerMinting",
							"type": "bool"
						},
						{
							"internalType": "bool",
							"name": "allowSetCustomToken",
							"type": "bool"
						},
						{
							"internalType": "bool",
							"name": "allowTerminalMigration",
							"type": "bool"
						},
						{
							"internalType": "bool",
							"name": "allowSetTerminals",
							"type": "bool"
						},
						{
							"internalType": "bool",
							"name": "allowSetController",
							"type": "bool"
						},
						{
							"internalType": "bool",
							"name": "allowAddAccountingContext",
							"type": "bool"
						},
						{
							"internalType": "bool",
							"name": "allowAddPriceFeed",
							"type": "bool"
						},
						{
							"internalType": "bool",
							"name": "ownerMustSendPayouts",
							"type": "bool"
						},
						{
							"internalType": "bool",
							"name": "holdFees",
							"type": "bool"
						},
						{
							"internalType": "bool",
							"name": "useTotalSurplusForCashOuts",
							"type": "bool"
						},
						{
							"internalType": "bool",
							"name": "useDataHookForPay",
							"type": "bool"
						},
						{
							"internalType": "bool",
							"name": "useDataHookForCashOut",
							"type": "bool"
						},
						{
							"internalType": "address",
							"name": "dataHook",
							"type": "address"
						},
						{
							"internalType": "uint16",
							"name": "metadata",
							"type": "uint16"
						}
					],
					"internalType": "struct JBRulesetMetadata",
					"name": "metadata",
					"type": "tuple"
				},
				{
					"internalType": "enum JBApprovalStatus",
					"name": "approvalStatus",
					"type": "uint8"
				}
			],
			"stateMutability": "view",
			"type": "function"
		},
		{
			"inputs": [
				{
					"internalType": "address",
					"name": "owner",
					"type": "address"
				},
				{
					"internalType": "string",
					"name": "projectUri",
					"type": "string"
				},
				{
					"components": [
						{
							"internalType": "uint48",
							"name": "mustStartAtOrAfter",
							"type": "uint48"
						},
						{
							"internalType": "uint32",
							"name": "duration",
							"type": "uint32"
						},
						{
							"internalType": "uint112",
							"name": "weight",
							"type": "uint112"
						},
						{
							"internalType": "uint32",
							"name": "weightCutPercent",
							"type": "uint32"
						},
						{
							"internalType": "contract IJBRulesetApprovalHook",
							"name": "approvalHook",
							"type": "address"
						},
						{
							"components": [
								{
									"internalType": "uint16",
									"name": "reservedPercent",
									"type": "uint16"
								},
								{
									"internalType": "uint16",
									"name": "cashOutTaxRate",
									"type": "uint16"
								},
								{
									"internalType": "uint32",
									"name": "baseCurrency",
									"type": "uint32"
								},
								{
									"internalType": "bool",
									"name": "pausePay",
									"type": "bool"
								},
								{
									"internalType": "bool",
									"name": "pauseCreditTransfers",
									"type": "bool"
								},
								{
									"internalType": "bool",
									"name": "allowOwnerMinting",
									"type": "bool"
								},
								{
									"internalType": "bool",
									"name": "allowSetCustomToken",
									"type": "bool"
								},
								{
									"internalType": "bool",
									"name": "allowTerminalMigration",
									"type": "bool"
								},
								{
									"internalType": "bool",
									"name": "allowSetTerminals",
									"type": "bool"
								},
								{
									"internalType": "bool",
									"name": "allowSetController",
									"type": "bool"
								},
								{
									"internalType": "bool",
									"name": "allowAddAccountingContext",
									"type": "bool"
								},
								{
									"internalType": "bool",
									"name": "allowAddPriceFeed",
									"type": "bool"
								},
								{
									"internalType": "bool",
									"name": "ownerMustSendPayouts",
									"type": "bool"
								},
								{
									"internalType": "bool",
									"name": "holdFees",
									"type": "bool"
								},
								{
									"internalType": "bool",
									"name": "useTotalSurplusForCashOuts",
									"type": "bool"
								},
								{
									"internalType": "bool",
									"name": "useDataHookForPay",
									"type": "bool"
								},
								{
									"internalType": "bool",
									"name": "useDataHookForCashOut",
									"type": "bool"
								},
								{
									"internalType": "address",
									"name": "dataHook",
									"type": "address"
								},
								{
									"internalType": "uint16",
									"name": "metadata",
									"type": "uint16"
								}
							],
							"internalType": "struct JBRulesetMetadata",
							"name": "metadata",
							"type": "tuple"
						},
						{
							"components": [
								{
									"internalType": "uint256",
									"name": "groupId",
									"type": "uint256"
								},
								{
									"components": [
										{
											"internalType": "uint32",
											"name": "percent",
											"type": "uint32"
										},
										{
											"internalType": "uint64",
											"name": "projectId",
											"type": "uint64"
										},
										{
											"internalType": "address payable",
											"name": "beneficiary",
											"type": "address"
										},
										{
											"internalType": "bool",
											"name": "preferAddToBalance",
											"type": "bool"
										},
										{
											"internalType": "uint48",
											"name": "lockedUntil",
											"type": "uint48"
										},
										{
											"internalType": "contract IJBSplitHook",
											"name": "hook",
											"type": "address"
										}
									],
									"internalType": "struct JBSplit[]",
									"name": "splits",
									"type": "tuple[]"
								}
							],
							"internalType": "struct JBSplitGroup[]",
							"name": "splitGroups",
							"type": "tuple[]"
						},
						{
							"components": [
								{
									"internalType": "address",
									"name": "terminal",
									"type": "address"
								},
								{
									"internalType": "address",
									"name": "token",
									"type": "address"
								},
								{
									"components": [
										{
											"internalType": "uint224",
											"name": "amount",
											"type": "uint224"
										},
										{
											"internalType": "uint32",
											"name": "currency",
											"type": "uint32"
										}
									],
									"internalType": "struct JBCurrencyAmount[]",
									"name": "payoutLimits",
									"type": "tuple[]"
								},
								{
									"components": [
										{
											"internalType": "uint224",
											"name": "amount",
											"type": "uint224"
										},
										{
											"internalType": "uint32",
											"name": "currency",
											"type": "uint32"
										}
									],
									"internalType": "struct JBCurrencyAmount[]",
									"name": "surplusAllowances",
									"type": "tuple[]"
								}
							],
							"internalType": "struct JBFundAccessLimitGroup[]",
							"name": "fundAccessLimitGroups",
							"type": "tuple[]"
						}
					],
					"internalType": "struct JBRulesetConfig[]",
					"name": "rulesetConfigurations",
					"type": "tuple[]"
				},
				{
					"components": [
						{
							"internalType": "contract IJBTerminal",
							"name": "terminal",
							"type": "address"
						},
						{
							"components": [
								{
									"internalType": "address",
									"name": "token",
									"type": "address"
								},
								{
									"internalType": "uint8",
									"name": "decimals",
									"type": "uint8"
								},
								{
									"internalType": "uint32",
									"name": "currency",
									"type": "uint32"
								}
							],
							"internalType": "struct JBAccountingContext[]",
							"name": "accountingContextsToAccept",
							"type": "tuple[]"
						}
					],
					"internalType": "struct JBTerminalConfig[]",
					"name": "terminalConfigurations",
					"type": "tuple[]"
				},
				{
					"internalType": "string",
					"name": "memo",
					"type": "string"
				}
			],
			"name": "launchProjectFor",
			"outputs": [
				{
					"internalType": "uint256",
					"name": "projectId",
					"type": "uint256"
				}
			],
			"stateMutability": "nonpayable",
			"type": "function"
		},
		{
			"inputs": [
				{
					"internalType": "uint256",
					"name": "projectId",
					"type": "uint256"
				},
				{
					"components": [
						{
							"internalType": "uint48",
							"name": "mustStartAtOrAfter",
							"type": "uint48"
						},
						{
							"internalType": "uint32",
							"name": "duration",
							"type": "uint32"
						},
						{
							"internalType": "uint112",
							"name": "weight",
							"type": "uint112"
						},
						{
							"internalType": "uint32",
							"name": "weightCutPercent",
							"type": "uint32"
						},
						{
							"internalType": "contract IJBRulesetApprovalHook",
							"name": "approvalHook",
							"type": "address"
						},
						{
							"components": [
								{
									"internalType": "uint16",
									"name": "reservedPercent",
									"type": "uint16"
								},
								{
									"internalType": "uint16",
									"name": "cashOutTaxRate",
									"type": "uint16"
								},
								{
									"internalType": "uint32",
									"name": "baseCurrency",
									"type": "uint32"
								},
								{
									"internalType": "bool",
									"name": "pausePay",
									"type": "bool"
								},
								{
									"internalType": "bool",
									"name": "pauseCreditTransfers",
									"type": "bool"
								},
								{
									"internalType": "bool",
									"name": "allowOwnerMinting",
									"type": "bool"
								},
								{
									"internalType": "bool",
									"name": "allowSetCustomToken",
									"type": "bool"
								},
								{
									"internalType": "bool",
									"name": "allowTerminalMigration",
									"type": "bool"
								},
								{
									"internalType": "bool",
									"name": "allowSetTerminals",
									"type": "bool"
								},
								{
									"internalType": "bool",
									"name": "allowSetController",
									"type": "bool"
								},
								{
									"internalType": "bool",
									"name": "allowAddAccountingContext",
									"type": "bool"
								},
								{
									"internalType": "bool",
									"name": "allowAddPriceFeed",
									"type": "bool"
								},
								{
									"internalType": "bool",
									"name": "ownerMustSendPayouts",
									"type": "bool"
								},
								{
									"internalType": "bool",
									"name": "holdFees",
									"type": "bool"
								},
								{
									"internalType": "bool",
									"name": "useTotalSurplusForCashOuts",
									"type": "bool"
								},
								{
									"internalType": "bool",
									"name": "useDataHookForPay",
									"type": "bool"
								},
								{
									"internalType": "bool",
									"name": "useDataHookForCashOut",
									"type": "bool"
								},
								{
									"internalType": "address",
									"name": "dataHook",
									"type": "address"
								},
								{
									"internalType": "uint16",
									"name": "metadata",
									"type": "uint16"
								}
							],
							"internalType": "struct JBRulesetMetadata",
							"name": "metadata",
							"type": "tuple"
						},
						{
							"components": [
								{
									"internalType": "uint256",
									"name": "groupId",
									"type": "uint256"
								},
								{
									"components": [
										{
											"internalType": "uint32",
											"name": "percent",
											"type": "uint32"
										},
										{
											"internalType": "uint64",
											"name": "projectId",
											"type": "uint64"
										},
										{
											"internalType": "address payable",
											"name": "beneficiary",
											"type": "address"
										},
										{
											"internalType": "bool",
											"name": "preferAddToBalance",
											"type": "bool"
										},
										{
											"internalType": "uint48",
											"name": "lockedUntil",
											"type": "uint48"
										},
										{
											"internalType": "contract IJBSplitHook",
											"name": "hook",
											"type": "address"
										}
									],
									"internalType": "struct JBSplit[]",
									"name": "splits",
									"type": "tuple[]"
								}
							],
							"internalType": "struct JBSplitGroup[]",
							"name": "splitGroups",
							"type": "tuple[]"
						},
						{
							"components": [
								{
									"internalType": "address",
									"name": "terminal",
									"type": "address"
								},
								{
									"internalType": "address",
									"name": "token",
									"type": "address"
								},
								{
									"components": [
										{
											"internalType": "uint224",
											"name": "amount",
											"type": "uint224"
										},
										{
											"internalType": "uint32",
											"name": "currency",
											"type": "uint32"
										}
									],
									"internalType": "struct JBCurrencyAmount[]",
									"name": "payoutLimits",
									"type": "tuple[]"
								},
								{
									"components": [
										{
											"internalType": "uint224",
											"name": "amount",
											"type": "uint224"
										},
										{
											"internalType": "uint32",
											"name": "currency",
											"type": "uint32"
										}
									],
									"internalType": "struct JBCurrencyAmount[]",
									"name": "surplusAllowances",
									"type": "tuple[]"
								}
							],
							"internalType": "struct JBFundAccessLimitGroup[]",
							"name": "fundAccessLimitGroups",
							"type": "tuple[]"
						}
					],
					"internalType": "struct JBRulesetConfig[]",
					"name": "rulesetConfigurations",
					"type": "tuple[]"
				},
				{
					"components": [
						{
							"internalType": "contract IJBTerminal",
							"name": "terminal",
							"type": "address"
						},
						{
							"components": [
								{
									"internalType": "address",
									"name": "token",
									"type": "address"
								},
								{
									"internalType": "uint8",
									"name": "decimals",
									"type": "uint8"
								},
								{
									"internalType": "uint32",
									"name": "currency",
									"type": "uint32"
								}
							],
							"internalType": "struct JBAccountingContext[]",
							"name": "accountingContextsToAccept",
							"type": "tuple[]"
						}
					],
					"internalType": "struct JBTerminalConfig[]",
					"name": "terminalConfigurations",
					"type": "tuple[]"
				},
				{
					"internalType": "string",
					"name": "memo",
					"type": "string"
				}
			],
			"name": "launchRulesetsFor",
			"outputs": [
				{
					"internalType": "uint256",
					"name": "rulesetId",
					"type": "uint256"
				}
			],
			"stateMutability": "nonpayable",
			"type": "function"
		},
		{
			"inputs": [
				{
					"internalType": "uint256",
					"name": "projectId",
					"type": "uint256"
				},
				{
					"internalType": "contract IERC165",
					"name": "to",
					"type": "address"
				}
			],
			"name": "migrate",
			"outputs": [],
			"stateMutability": "nonpayable",
			"type": "function"
		},
		{
			"inputs": [
				{
					"internalType": "uint256",
					"name": "projectId",
					"type": "uint256"
				},
				{
					"internalType": "uint256",
					"name": "tokenCount",
					"type": "uint256"
				},
				{
					"internalType": "address",
					"name": "beneficiary",
					"type": "address"
				},
				{
					"internalType": "string",
					"name": "memo",
					"type": "string"
				},
				{
					"internalType": "bool",
					"name": "useReservedPercent",
					"type": "bool"
				}
			],
			"name": "mintTokensOf",
			"outputs": [
				{
					"internalType": "uint256",
					"name": "beneficiaryTokenCount",
					"type": "uint256"
				}
			],
			"stateMutability": "nonpayable",
			"type": "function"
		},
		{
			"inputs": [
				{
					"internalType": "uint256",
					"name": "projectId",
					"type": "uint256"
				}
			],
			"name": "pendingReservedTokenBalanceOf",
			"outputs": [
				{
					"internalType": "uint256",
					"name": "",
					"type": "uint256"
				}
			],
			"stateMutability": "view",
			"type": "function"
		},
		{
			"inputs": [
				{
					"internalType": "uint256",
					"name": "projectId",
					"type": "uint256"
				},
				{
					"components": [
						{
							"internalType": "uint48",
							"name": "mustStartAtOrAfter",
							"type": "uint48"
						},
						{
							"internalType": "uint32",
							"name": "duration",
							"type": "uint32"
						},
						{
							"internalType": "uint112",
							"name": "weight",
							"type": "uint112"
						},
						{
							"internalType": "uint32",
							"name": "weightCutPercent",
							"type": "uint32"
						},
						{
							"internalType": "contract IJBRulesetApprovalHook",
							"name": "approvalHook",
							"type": "address"
						},
						{
							"components": [
								{
									"internalType": "uint16",
									"name": "reservedPercent",
									"type": "uint16"
								},
								{
									"internalType": "uint16",
									"name": "cashOutTaxRate",
									"type": "uint16"
								},
								{
									"internalType": "uint32",
									"name": "baseCurrency",
									"type": "uint32"
								},
								{
									"internalType": "bool",
									"name": "pausePay",
									"type": "bool"
								},
								{
									"internalType": "bool",
									"name": "pauseCreditTransfers",
									"type": "bool"
								},
								{
									"internalType": "bool",
									"name": "allowOwnerMinting",
									"type": "bool"
								},
								{
									"internalType": "bool",
									"name": "allowSetCustomToken",
									"type": "bool"
								},
								{
									"internalType": "bool",
									"name": "allowTerminalMigration",
									"type": "bool"
								},
								{
									"internalType": "bool",
									"name": "allowSetTerminals",
									"type": "bool"
								},
								{
									"internalType": "bool",
									"name": "allowSetController",
									"type": "bool"
								},
								{
									"internalType": "bool",
									"name": "allowAddAccountingContext",
									"type": "bool"
								},
								{
									"internalType": "bool",
									"name": "allowAddPriceFeed",
									"type": "bool"
								},
								{
									"internalType": "bool",
									"name": "ownerMustSendPayouts",
									"type": "bool"
								},
								{
									"internalType": "bool",
									"name": "holdFees",
									"type": "bool"
								},
								{
									"internalType": "bool",
									"name": "useTotalSurplusForCashOuts",
									"type": "bool"
								},
								{
									"internalType": "bool",
									"name": "useDataHookForPay",
									"type": "bool"
								},
								{
									"internalType": "bool",
									"name": "useDataHookForCashOut",
									"type": "bool"
								},
								{
									"internalType": "address",
									"name": "dataHook",
									"type": "address"
								},
								{
									"internalType": "uint16",
									"name": "metadata",
									"type": "uint16"
								}
							],
							"internalType": "struct JBRulesetMetadata",
							"name": "metadata",
							"type": "tuple"
						},
						{
							"components": [
								{
									"internalType": "uint256",
									"name": "groupId",
									"type": "uint256"
								},
								{
									"components": [
										{
											"internalType": "uint32",
											"name": "percent",
											"type": "uint32"
										},
										{
											"internalType": "uint64",
											"name": "projectId",
											"type": "uint64"
										},
										{
											"internalType": "address payable",
											"name": "beneficiary",
											"type": "address"
										},
										{
											"internalType": "bool",
											"name": "preferAddToBalance",
											"type": "bool"
										},
										{
											"internalType": "uint48",
											"name": "lockedUntil",
											"type": "uint48"
										},
										{
											"internalType": "contract IJBSplitHook",
											"name": "hook",
											"type": "address"
										}
									],
									"internalType": "struct JBSplit[]",
									"name": "splits",
									"type": "tuple[]"
								}
							],
							"internalType": "struct JBSplitGroup[]",
							"name": "splitGroups",
							"type": "tuple[]"
						},
						{
							"components": [
								{
									"internalType": "address",
									"name": "terminal",
									"type": "address"
								},
								{
									"internalType": "address",
									"name": "token",
									"type": "address"
								},
								{
									"components": [
										{
											"internalType": "uint224",
											"name": "amount",
											"type": "uint224"
										},
										{
											"internalType": "uint32",
											"name": "currency",
											"type": "uint32"
										}
									],
									"internalType": "struct JBCurrencyAmount[]",
									"name": "payoutLimits",
									"type": "tuple[]"
								},
								{
									"components": [
										{
											"internalType": "uint224",
											"name": "amount",
											"type": "uint224"
										},
										{
											"internalType": "uint32",
											"name": "currency",
											"type": "uint32"
										}
									],
									"internalType": "struct JBCurrencyAmount[]",
									"name": "surplusAllowances",
									"type": "tuple[]"
								}
							],
							"internalType": "struct JBFundAccessLimitGroup[]",
							"name": "fundAccessLimitGroups",
							"type": "tuple[]"
						}
					],
					"internalType": "struct JBRulesetConfig[]",
					"name": "rulesetConfigurations",
					"type": "tuple[]"
				},
				{
					"internalType": "string",
					"name": "memo",
					"type": "string"
				}
			],
			"name": "queueRulesetsOf",
			"outputs": [
				{
					"internalType": "uint256",
					"name": "rulesetId",
					"type": "uint256"
				}
			],
			"stateMutability": "nonpayable",
			"type": "function"
		},
		{
			"inputs": [
				{
					"internalType": "uint256",
					"name": "projectId",
					"type": "uint256"
				}
			],
			"name": "sendReservedTokensToSplitsOf",
			"outputs": [
				{
					"internalType": "uint256",
					"name": "",
					"type": "uint256"
				}
			],
			"stateMutability": "nonpayable",
			"type": "function"
		},
		{
			"inputs": [
				{
					"internalType": "uint256",
					"name": "projectId",
					"type": "uint256"
				}
			],
			"name": "setControllerAllowed",
			"outputs": [
				{
					"internalType": "bool",
					"name": "",
					"type": "bool"
				}
			],
			"stateMutability": "view",
			"type": "function"
		},
		{
			"inputs": [
				{
					"internalType": "uint256",
					"name": "projectId",
					"type": "uint256"
				},
				{
					"internalType": "uint256",
					"name": "rulesetId",
					"type": "uint256"
				},
				{
					"components": [
						{
							"internalType": "uint256",
							"name": "groupId",
							"type": "uint256"
						},
						{
							"components": [
								{
									"internalType": "uint32",
									"name": "percent",
									"type": "uint32"
								},
								{
									"internalType": "uint64",
									"name": "projectId",
									"type": "uint64"
								},
								{
									"internalType": "address payable",
									"name": "beneficiary",
									"type": "address"
								},
								{
									"internalType": "bool",
									"name": "preferAddToBalance",
									"type": "bool"
								},
								{
									"internalType": "uint48",
									"name": "lockedUntil",
									"type": "uint48"
								},
								{
									"internalType": "contract IJBSplitHook",
									"name": "hook",
									"type": "address"
								}
							],
							"internalType": "struct JBSplit[]",
							"name": "splits",
							"type": "tuple[]"
						}
					],
					"internalType": "struct JBSplitGroup[]",
					"name": "splitGroups",
					"type": "tuple[]"
				}
			],
			"name": "setSplitGroupsOf",
			"outputs": [],
			"stateMutability": "nonpayable",
			"type": "function"
		},
		{
			"inputs": [
				{
					"internalType": "uint256",
					"name": "projectId",
					"type": "uint256"
				}
			],
			"name": "setTerminalsAllowed",
			"outputs": [
				{
					"internalType": "bool",
					"name": "",
					"type": "bool"
				}
			],
			"stateMutability": "view",
			"type": "function"
		},
		{
			"inputs": [
				{
					"internalType": "uint256",
					"name": "projectId",
					"type": "uint256"
				},
				{
					"internalType": "contract IJBToken",
					"name": "token",
					"type": "address"
				}
			],
			"name": "setTokenFor",
			"outputs": [],
			"stateMutability": "nonpayable",
			"type": "function"
		},
		{
			"inputs": [
				{
					"internalType": "uint256",
					"name": "projectId",
					"type": "uint256"
				},
				{
					"internalType": "string",
					"name": "uri",
					"type": "string"
				}
			],
			"name": "setUriOf",
			"outputs": [],
			"stateMutability": "nonpayable",
			"type": "function"
		},
		{
			"inputs": [
				{
					"internalType": "bytes4",
					"name": "interfaceId",
					"type": "bytes4"
				}
			],
			"name": "supportsInterface",
			"outputs": [
				{
					"internalType": "bool",
					"name": "",
					"type": "bool"
				}
			],
			"stateMutability": "pure",
			"type": "function"
		},
		{
			"inputs": [
				{
					"internalType": "uint256",
					"name": "projectId",
					"type": "uint256"
				}
			],
			"name": "totalTokenSupplyWithReservedTokensOf",
			"outputs": [
				{
					"internalType": "uint256",
					"name": "",
					"type": "uint256"
				}
			],
			"stateMutability": "view",
			"type": "function"
		},
		{
			"inputs": [
				{
					"internalType": "address",
					"name": "holder",
					"type": "address"
				},
				{
					"internalType": "uint256",
					"name": "projectId",
					"type": "uint256"
				},
				{
					"internalType": "address",
					"name": "recipient",
					"type": "address"
				},
				{
					"internalType": "uint256",
					"name": "creditCount",
					"type": "uint256"
				}
			],
			"name": "transferCreditsFrom",
			"outputs": [],
			"stateMutability": "nonpayable",
			"type": "function"
		},
		{
			"inputs": [],
			"name": "trustedForwarder",
			"outputs": [
				{
					"internalType": "address",
					"name": "",
					"type": "address"
				}
			],
			"stateMutability": "view",
			"type": "function"
		},
		{
			"inputs": [
				{
					"internalType": "uint256",
					"name": "projectId",
					"type": "uint256"
				}
			],
			"name": "upcomingRulesetOf",
			"outputs": [
				{
					"components": [
						{
							"internalType": "uint48",
							"name": "cycleNumber",
							"type": "uint48"
						},
						{
							"internalType": "uint48",
							"name": "id",
							"type": "uint48"
						},
						{
							"internalType": "uint48",
							"name": "basedOnId",
							"type": "uint48"
						},
						{
							"internalType": "uint48",
							"name": "start",
							"type": "uint48"
						},
						{
							"internalType": "uint32",
							"name": "duration",
							"type": "uint32"
						},
						{
							"internalType": "uint112",
							"name": "weight",
							"type": "uint112"
						},
						{
							"internalType": "uint32",
							"name": "weightCutPercent",
							"type": "uint32"
						},
						{
							"internalType": "contract IJBRulesetApprovalHook",
							"name": "approvalHook",
							"type": "address"
						},
						{
							"internalType": "uint256",
							"name": "metadata",
							"type": "uint256"
						}
					],
					"internalType": "struct JBRuleset",
					"name": "ruleset",
					"type": "tuple"
				},
				{
					"components": [
						{
							"internalType": "uint16",
							"name": "reservedPercent",
							"type": "uint16"
						},
						{
							"internalType": "uint16",
							"name": "cashOutTaxRate",
							"type": "uint16"
						},
						{
							"internalType": "uint32",
							"name": "baseCurrency",
							"type": "uint32"
						},
						{
							"internalType": "bool",
							"name": "pausePay",
							"type": "bool"
						},
						{
							"internalType": "bool",
							"name": "pauseCreditTransfers",
							"type": "bool"
						},
						{
							"internalType": "bool",
							"name": "allowOwnerMinting",
							"type": "bool"
						},
						{
							"internalType": "bool",
							"name": "allowSetCustomToken",
							"type": "bool"
						},
						{
							"internalType": "bool",
							"name": "allowTerminalMigration",
							"type": "bool"
						},
						{
							"internalType": "bool",
							"name": "allowSetTerminals",
							"type": "bool"
						},
						{
							"internalType": "bool",
							"name": "allowSetController",
							"type": "bool"
						},
						{
							"internalType": "bool",
							"name": "allowAddAccountingContext",
							"type": "bool"
						},
						{
							"internalType": "bool",
							"name": "allowAddPriceFeed",
							"type": "bool"
						},
						{
							"internalType": "bool",
							"name": "ownerMustSendPayouts",
							"type": "bool"
						},
						{
							"internalType": "bool",
							"name": "holdFees",
							"type": "bool"
						},
						{
							"internalType": "bool",
							"name": "useTotalSurplusForCashOuts",
							"type": "bool"
						},
						{
							"internalType": "bool",
							"name": "useDataHookForPay",
							"type": "bool"
						},
						{
							"internalType": "bool",
							"name": "useDataHookForCashOut",
							"type": "bool"
						},
						{
							"internalType": "address",
							"name": "dataHook",
							"type": "address"
						},
						{
							"internalType": "uint16",
							"name": "metadata",
							"type": "uint16"
						}
					],
					"internalType": "struct JBRulesetMetadata",
					"name": "metadata",
					"type": "tuple"
				}
			],
			"stateMutability": "view",
			"type": "function"
		},
		{
			"inputs": [
				{
					"internalType": "uint256",
					"name": "projectId",
					"type": "uint256"
				}
			],
			"name": "uriOf",
			"outputs": [
				{
					"internalType": "string",
					"name": "",
					"type": "string"
				}
			],
			"stateMutability": "view",
			"type": "function"
		},
		{
			"anonymous": false,
			"inputs": [
				{
					"indexed": true,
					"internalType": "address",
					"name": "holder",
					"type": "address"
				},
				{
					"indexed": true,
					"internalType": "uint256",
					"name": "projectId",
					"type": "uint256"
				},
				{
					"indexed": false,
					"internalType": "uint256",
					"name": "tokenCount",
					"type": "uint256"
				},
				{
					"indexed": false,
					"internalType": "string",
					"name": "memo",
					"type": "string"
				},
				{
					"indexed": false,
					"internalType": "address",
					"name": "caller",
					"type": "address"
				}
			],
			"name": "BurnTokens",
			"type": "event"
		},
		{
			"anonymous": false,
			"inputs": [
				{
					"indexed": false,
					"internalType": "uint256",
					"name": "rulesetId",
					"type": "uint256"
				},
				{
					"indexed": false,
					"internalType": "uint256",
					"name": "projectId",
					"type": "uint256"
				},
				{
					"indexed": false,
					"internalType": "string",
					"name": "projectUri",
					"type": "string"
				},
				{
					"indexed": false,
					"internalType": "string",
					"name": "memo",
					"type": "string"
				},
				{
					"indexed": false,
					"internalType": "address",
					"name": "caller",
					"type": "address"
				}
			],
			"name": "LaunchProject",
			"type": "event"
		},
		{
			"anonymous": false,
			"inputs": [
				{
					"indexed": false,
					"internalType": "uint256",
					"name": "rulesetId",
					"type": "uint256"
				},
				{
					"indexed": false,
					"internalType": "uint256",
					"name": "projectId",
					"type": "uint256"
				},
				{
					"indexed": false,
					"internalType": "string",
					"name": "memo",
					"type": "string"
				},
				{
					"indexed": false,
					"internalType": "address",
					"name": "caller",
					"type": "address"
				}
			],
			"name": "LaunchRulesets",
			"type": "event"
		},
		{
			"anonymous": false,
			"inputs": [
				{
					"indexed": true,
					"internalType": "uint256",
					"name": "projectId",
					"type": "uint256"
				},
				{
					"indexed": false,
					"internalType": "contract IERC165",
					"name": "to",
					"type": "address"
				},
				{
					"indexed": false,
					"internalType": "address",
					"name": "caller",
					"type": "address"
				}
			],
			"name": "Migrate",
			"type": "event"
		},
		{
			"anonymous": false,
			"inputs": [
				{
					"indexed": true,
					"internalType": "address",
					"name": "beneficiary",
					"type": "address"
				},
				{
					"indexed": true,
					"internalType": "uint256",
					"name": "projectId",
					"type": "uint256"
				},
				{
					"indexed": false,
					"internalType": "uint256",
					"name": "tokenCount",
					"type": "uint256"
				},
				{
					"indexed": false,
					"internalType": "uint256",
					"name": "beneficiaryTokenCount",
					"type": "uint256"
				},
				{
					"indexed": false,
					"internalType": "string",
					"name": "memo",
					"type": "string"
				},
				{
					"indexed": false,
					"internalType": "uint256",
					"name": "reservedPercent",
					"type": "uint256"
				},
				{
					"indexed": false,
					"internalType": "address",
					"name": "caller",
					"type": "address"
				}
			],
			"name": "MintTokens",
			"type": "event"
		},
		{
			"anonymous": false,
			"inputs": [
				{
					"indexed": true,
					"internalType": "uint256",
					"name": "projectId",
					"type": "uint256"
				},
				{
					"indexed": false,
					"internalType": "address",
					"name": "from",
					"type": "address"
				},
				{
					"indexed": false,
					"internalType": "address",
					"name": "caller",
					"type": "address"
				}
			],
			"name": "PrepMigration",
			"type": "event"
		},
		{
			"anonymous": false,
			"inputs": [
				{
					"indexed": false,
					"internalType": "uint256",
					"name": "rulesetId",
					"type": "uint256"
				},
				{
					"indexed": false,
					"internalType": "uint256",
					"name": "projectId",
					"type": "uint256"
				},
				{
					"indexed": false,
					"internalType": "string",
					"name": "memo",
					"type": "string"
				},
				{
					"indexed": false,
					"internalType": "address",
					"name": "caller",
					"type": "address"
				}
			],
			"name": "QueueRulesets",
			"type": "event"
		},
		{
			"anonymous": false,
			"inputs": [
				{
					"indexed": true,
					"internalType": "uint256",
					"name": "projectId",
					"type": "uint256"
				},
				{
					"components": [
						{
							"internalType": "uint32",
							"name": "percent",
							"type": "uint32"
						},
						{
							"internalType": "uint64",
							"name": "projectId",
							"type": "uint64"
						},
						{
							"internalType": "address payable",
							"name": "beneficiary",
							"type": "address"
						},
						{
							"internalType": "bool",
							"name": "preferAddToBalance",
							"type": "bool"
						},
						{
							"internalType": "uint48",
							"name": "lockedUntil",
							"type": "uint48"
						},
						{
							"internalType": "contract IJBSplitHook",
							"name": "hook",
							"type": "address"
						}
					],
					"indexed": false,
					"internalType": "struct JBSplit",
					"name": "split",
					"type": "tuple"
				},
				{
					"indexed": false,
					"internalType": "uint256",
					"name": "tokenCount",
					"type": "uint256"
				},
				{
					"indexed": false,
					"internalType": "bytes",
					"name": "reason",
					"type": "bytes"
				},
				{
					"indexed": false,
					"internalType": "address",
					"name": "caller",
					"type": "address"
				}
			],
			"name": "ReservedDistributionReverted",
			"type": "event"
		},
		{
			"anonymous": false,
			"inputs": [
				{
					"indexed": true,
					"internalType": "uint256",
					"name": "projectId",
					"type": "uint256"
				},
				{
					"indexed": true,
					"internalType": "uint256",
					"name": "rulesetId",
					"type": "uint256"
				},
				{
					"indexed": true,
					"internalType": "uint256",
					"name": "groupId",
					"type": "uint256"
				},
				{
					"components": [
						{
							"internalType": "uint32",
							"name": "percent",
							"type": "uint32"
						},
						{
							"internalType": "uint64",
							"name": "projectId",
							"type": "uint64"
						},
						{
							"internalType": "address payable",
							"name": "beneficiary",
							"type": "address"
						},
						{
							"internalType": "bool",
							"name": "preferAddToBalance",
							"type": "bool"
						},
						{
							"internalType": "uint48",
							"name": "lockedUntil",
							"type": "uint48"
						},
						{
							"internalType": "contract IJBSplitHook",
							"name": "hook",
							"type": "address"
						}
					],
					"indexed": false,
					"internalType": "struct JBSplit",
					"name": "split",
					"type": "tuple"
				},
				{
					"indexed": false,
					"internalType": "uint256",
					"name": "tokenCount",
					"type": "uint256"
				},
				{
					"indexed": false,
					"internalType": "address",
					"name": "caller",
					"type": "address"
				}
			],
			"name": "SendReservedTokensToSplit",
			"type": "event"
		},
		{
			"anonymous": false,
			"inputs": [
				{
					"indexed": true,
					"internalType": "uint256",
					"name": "rulesetId",
					"type": "uint256"
				},
				{
					"indexed": true,
					"internalType": "uint256",
					"name": "rulesetCycleNumber",
					"type": "uint256"
				},
				{
					"indexed": true,
					"internalType": "uint256",
					"name": "projectId",
					"type": "uint256"
				},
				{
					"indexed": false,
					"internalType": "address",
					"name": "owner",
					"type": "address"
				},
				{
					"indexed": false,
					"internalType": "uint256",
					"name": "tokenCount",
					"type": "uint256"
				},
				{
					"indexed": false,
					"internalType": "uint256",
					"name": "leftoverAmount",
					"type": "uint256"
				},
				{
					"indexed": false,
					"internalType": "address",
					"name": "caller",
					"type": "address"
				}
			],
			"name": "SendReservedTokensToSplits",
			"type": "event"
		},
		{
			"anonymous": false,
			"inputs": [
				{
					"indexed": true,
					"internalType": "uint256",
					"name": "projectId",
					"type": "uint256"
				},
				{
					"indexed": false,
					"internalType": "string",
					"name": "uri",
					"type": "string"
				},
				{
					"indexed": false,
					"internalType": "address",
					"name": "caller",
					"type": "address"
				}
			],
			"name": "SetUri",
			"type": "event"
		},
		{
			"inputs": [],
			"name": "JBController_AddingPriceFeedNotAllowed",
			"type": "error"
		},
		{
			"inputs": [],
			"name": "JBController_CreditTransfersPaused",
			"type": "error"
		},
		{
			"inputs": [
				{
					"internalType": "uint256",
					"name": "rate",
					"type": "uint256"
				},
				{
					"internalType": "uint256",
					"name": "limit",
					"type": "uint256"
				}
			],
			"name": "JBController_InvalidCashOutTaxRate",
			"type": "error"
		},
		{
			"inputs": [
				{
					"internalType": "uint256",
					"name": "percent",
					"type": "uint256"
				},
				{
					"internalType": "uint256",
					"name": "limit",
					"type": "uint256"
				}
			],
			"name": "JBController_InvalidReservedPercent",
			"type": "error"
		},
		{
			"inputs": [],
			"name": "JBController_MintNotAllowedAndNotTerminalOrHook",
			"type": "error"
		},
		{
			"inputs": [],
			"name": "JBController_NoReservedTokens",
			"type": "error"
		},
		{
			"inputs": [
				{
					"internalType": "address",
					"name": "sender",
					"type": "address"
				},
				{
					"internalType": "contract IJBDirectory",
					"name": "directory",
					"type": "address"
				}
			],
			"name": "JBController_OnlyDirectory",
			"type": "error"
		},
		{
			"inputs": [],
			"name": "JBController_RulesetSetTokenNotAllowed",
			"type": "error"
		},
		{
			"inputs": [],
			"name": "JBController_RulesetsAlreadyLaunched",
			"type": "error"
		},
		{
			"inputs": [],
			"name": "JBController_RulesetsArrayEmpty",
			"type": "error"
		},
		{
			"inputs": [],
			"name": "JBController_ZeroTokensToBurn",
			"type": "error"
		},
		{
			"inputs": [],
			"name": "JBController_ZeroTokensToMint",
			"type": "error"
		},
		{
			"inputs": [
				{
					"internalType": "address",
					"name": "account",
					"type": "address"
				},
				{
					"internalType": "address",
					"name": "sender",
					"type": "address"
				},
				{
					"internalType": "uint256",
					"name": "projectId",
					"type": "uint256"
				},
				{
					"internalType": "uint256",
					"name": "permissionId",
					"type": "uint256"
				}
			],
			"name": "JBPermissioned_Unauthorized",
			"type": "error"
		},
		{
			"inputs": [
				{
					"internalType": "uint256",
					"name": "x",
					"type": "uint256"
				},
				{
					"internalType": "uint256",
					"name": "y",
					"type": "uint256"
				},
				{
					"internalType": "uint256",
					"name": "denominator",
					"type": "uint256"
				}
			],
			"name": "PRBMath_MulDiv_Overflow",
			"type": "error"
		},
		{
			"inputs": [
				{
					"internalType": "address",
					"name": "token",
					"type": "address"
				}
			],
			"name": "SafeERC20FailedOperation",
			"type": "error"
		}
	],
	"args": [],
	"solcInputHash": "132ec6b0ef0c1ee9ba00f21461046d9a",
	"bytecode": "0x6101a06040523480156200001257600080fd5b5060405162005c2e38038062005c2e833981016040819052620000359162000092565b6001600160a01b03968716608052861660a05296851660c05294841660e0529183166101005282166101205281166101405290811661016052166101805262000169565b6001600160a01b03811681146200008f57600080fd5b50565b60008060008060008060008060006101208a8c031215620000b257600080fd5b8951620000bf8162000079565b60208b0151909950620000d28162000079565b60408b0151909850620000e58162000079565b60608b0151909750620000f88162000079565b60808b01519096506200010b8162000079565b60a08b01519095506200011e8162000079565b60c08b0151909450620001318162000079565b60e08b0151909350620001448162000079565b6101008b0151909250620001588162000079565b809150509295985092959850929598565b60805160a05160c05160e0516101005161012051610140516101605161018051615919620003156000396000818161027a0152818161095701528181610ee201528181611064015281816116a70152818161180e01528181611b0f01528181611ec50152818161213501528181613245015261339b0152600081816102e0015281816115aa0152818161284d0152612e5d0152600081816105a30152818161072701528181610c32015281816112c90152818161187f015281816125e30152818161272c0152612bc3015260008181610328015281816107c9015281816109f601528181610b0901528181610b9e01528181610f840152818161111301528181611421015281816115180152818161195e01528181611dcb015261209f0152600081816102b901526108b201526000818161062a01526128d40152600081816104b501528181610ce001528181610db801528181610dfa015281816111c101528181611c2e01528181611c8401528181612ac101528181612b21015261306f0152600081816104010152818161048c01526135840152600081816105f0015261251901526159196000f3fe608060405234801561001057600080fd5b50600436106102275760003560e01c80636567b40611610130578063b1e6d2a1116100b8578063f0118e181161007c578063f0118e18146105c5578063f12b64a5146105d8578063f434c914146105eb578063fb61b4e314610612578063ffa082441461062557600080fd5b8063b1e6d2a114610543578063c02c63ad14610556578063c1ec61ee14610569578063c7fb92de1461058b578063d4a1b4b11461059e57600080fd5b80638a36dffd116100ff5780638a36dffd146104d757806399d25a34146104ea578063a2d532e6146104fd578063a312889b14610510578063b1a50e331461053057600080fd5b80636567b40614610457578063702a3977146104775780637da0a8771461048a57806388bc2ef3146104b057600080fd5b80633141db70116101b3578063419296261161018257806341929626146103cb5780634da781a9146103de578063572b6c05146103f157806358178191146104315780635c7465e51461044457600080fd5b80633141db701461037257806339284f35146103855780633997557114610398578063405b84fa146103b857600080fd5b80631f47ce69116101fa5780631f47ce69146102db57806325a61d5c14610302578063293c4999146103235780632fa902031461034a578063303f5dfa1461035f57600080fd5b806301ffc9a71461022c578063090db2f1146102545780631d831d5c146102755780631eabcd34146102b4575b600080fd5b61023f61023a3660046137e7565b61064c565b60405190151581526020015b60405180910390f35b610267610262366004613811565b6106ef565b60405190815260200161024b565b61029c7f000000000000000000000000000000000000000000000000000000000000000081565b6040516001600160a01b03909116815260200161024b565b61029c7f000000000000000000000000000000000000000000000000000000000000000081565b61029c7f000000000000000000000000000000000000000000000000000000000000000081565b61031561031036600461382a565b6106fa565b60405161024b929190613a36565b61029c7f000000000000000000000000000000000000000000000000000000000000000081565b61035d610358366004613a6b565b6107af565b005b61035d61036d366004613abc565b610916565b610267610380366004613b87565b6109ba565b610267610393366004613c00565b610acd565b6102676103a6366004613811565b60006020819052908152604090205481565b61035d6103c6366004613ca3565b610dad565b6103156103d9366004613811565b610e92565b6102676103ec366004613811565b610ebd565b61023f6103ff366004613cd3565b7f00000000000000000000000000000000000000000000000000000000000000006001600160a01b0390811691161490565b61029c61043f366004613cf0565b610f5f565b610267610452366004613d71565b6110f1565b61046a610465366004613e49565b611297565b60405161024b9190613e75565b61035d610485366004613ed8565b611407565b7f000000000000000000000000000000000000000000000000000000000000000061029c565b61029c7f000000000000000000000000000000000000000000000000000000000000000081565b61035d6104e5366004613f23565b6114fe565b61023f6104f8366004613811565b6115e5565b61035d61050b366004613f75565b611603565b61052361051e366004613811565b6116e0565b60405161024b919061401d565b61023f61053e366004613811565b61177a565b61035d610551366004614030565b611793565b610315610564366004613811565b61183d565b61057c610577366004613811565b611856565b60405161024b93929190614078565b6102676105993660046140db565b61190a565b61029c7f000000000000000000000000000000000000000000000000000000000000000081565b61035d6105d3366004614156565b611c20565b61035d6105e6366004613ca3565b611db1565b61029c7f000000000000000000000000000000000000000000000000000000000000000081565b61035d610620366004614182565b611f26565b61029c7f000000000000000000000000000000000000000000000000000000000000000081565b60006001600160e01b03198216635709f28160e01b148061067d57506001600160e01b031982166334ce2c7b60e21b145b8061069857506001600160e01b03198216632877540760e01b145b806106b357506001600160e01b03198216635825057160e11b145b806106ce57506001600160e01b03198216633d0d324560e21b145b806106e957506001600160e01b031982166301ffc9a760e01b145b92915050565b60006106e982612040565b6107026136da565b61070a613726565b604051630969875760e21b815260048101859052602481018490527f00000000000000000000000000000000000000000000000000000000000000006001600160a01b0316906325a61d5c9060440161012060405180830381865afa158015610777573d6000803e3d6000fd5b505050506040513d601f19601f8201168201806040525081019061079b9190614452565b91506107a682612273565b90509250929050565b6040516331a9108f60e11b815260048101859052610844907f00000000000000000000000000000000000000000000000000000000000000006001600160a01b031690636352211e90602401602060405180830381865afa158015610818573d6000803e3d6000fd5b505050506040513d601f19601f8201168201806040525081019061083c919061446f565b8560126124ad565b600061084f856125c5565b610100810151909150604c1c60019081161461087e576040516383d788ab60e01b815260040160405180910390fd5b60405163c6081d7160e01b81526004810186905260248101859052604481018490526001600160a01b0383811660648301527f0000000000000000000000000000000000000000000000000000000000000000169063c6081d71906084015b600060405180830381600087803b1580156108f757600080fd5b505af115801561090b573d6000803e3d6000fd5b505050505050505050565b6109228484600b6124ad565b60405163181faefd60e11b81526001600160a01b038581166004830152602482018590526044820184905282811660648301527f0000000000000000000000000000000000000000000000000000000000000000169063303f5dfa906084015b600060405180830381600087803b15801561099c57600080fd5b505af11580156109b0573d6000803e3d6000fd5b5050505050505050565b60008381036109dc57604051632b72d06560e01b815260040160405180910390fd5b6040516331a9108f60e11b815260048101879052610a71907f00000000000000000000000000000000000000000000000000000000000000006001600160a01b031690636352211e90602401602060405180830381865afa158015610a45573d6000803e3d6000fd5b505050506040513d601f19601f82011682018060405250810190610a69919061446f565b8760026124ad565b610a7c868686612658565b90507f24d02d612b06648bfa2000859f3de7e6f336139eaf5877c24b0d21320625286281878585610aab612972565b604051610abc9594939291906144b5565b60405180910390a195945050505050565b6000858103610aef57604051632b72d06560e01b815260040160405180910390fd5b6040516331a9108f60e11b815260048101899052610b84907f00000000000000000000000000000000000000000000000000000000000000006001600160a01b031690636352211e90602401602060405180830381865afa158015610b58573d6000803e3d6000fd5b505050506040513d601f19601f82011682018060405250810190610b7c919061446f565b8960026124ad565b6040516331a9108f60e11b815260048101899052610c19907f00000000000000000000000000000000000000000000000000000000000000006001600160a01b031690636352211e90602401602060405180830381865afa158015610bed573d6000803e3d6000fd5b505050506040513d601f19601f82011682018060405250810190610c11919061446f565b89600e6124ad565b6040516319fade8560e11b8152600481018990526000907f00000000000000000000000000000000000000000000000000000000000000006001600160a01b0316906333f5bd0a90602401602060405180830381865afa158015610c81573d6000803e3d6000fd5b505050506040513d601f19601f82011682018060405250810190610ca591906144ef565b1115610cc4576040516319d957db60e01b815260040160405180910390fd5b6040516338a73f9960e11b8152600481018990523060248201527f00000000000000000000000000000000000000000000000000000000000000006001600160a01b03169063714e7f3290604401600060405180830381600087803b158015610d2c57600080fd5b505af1158015610d40573d6000803e3d6000fd5b50505050610d4f888686612981565b610d5a888888612658565b90507f23164adda696b19106c2eef50ba44461997682bf5aeb9fdb383117fa9952cc7581898585610d89612972565b604051610d9a9594939291906144b5565b60405180910390a1979650505050505050565b336001600160a01b037f00000000000000000000000000000000000000000000000000000000000000001614610e2c57604051639653dbed60e01b81523360048201526001600160a01b037f00000000000000000000000000000000000000000000000000000000000000001660248201526044015b60405180910390fd5b604080516001600160a01b038316815233602082015283917f01f954abace731a88ab86e71186040cc2be49fe517ea06bc0d24f25b82b83456910160405180910390a260008281526020819052604090205415610e8e57610e8c82612040565b505b5050565b610e9a6136da565b610ea2613726565b610eab836125c5565b9150610eb682612273565b9050915091565b6000818152602081905260408082205490516375b0d9cd60e01b8152600481018490527f00000000000000000000000000000000000000000000000000000000000000006001600160a01b0316906375b0d9cd90602401602060405180830381865afa158015610f31573d6000803e3d6000fd5b505050506040513d601f19601f82011682018060405250810190610f5591906144ef565b6106e9919061451e565b6040516331a9108f60e11b815260048101879052600090610ff7906001600160a01b037f00000000000000000000000000000000000000000000000000000000000000001690636352211e90602401602060405180830381865afa158015610fcb573d6000803e3d6000fd5b505050506040513d601f19601f82011682018060405250810190610fef919061446f565b8860076124ad565b811561104d57611005612972565b8260405160200161103492919060609290921b6bffffffffffffffffffffffff19168252601482015260340190565b6040516020818303038152906040528051906020012091505b604051635817819160e01b81526001600160a01b037f000000000000000000000000000000000000000000000000000000000000000016906358178191906110a3908a908a908a908a908a908a90600401614531565b6020604051808303816000875af11580156110c2573d6000803e3d6000fd5b505050506040513d601f19601f820116820180604052508101906110e6919061446f565b979650505050505050565b60405163180e2b1160e31b81526001600160a01b038a811660048301526000917f00000000000000000000000000000000000000000000000000000000000000009091169063c0715888906024016020604051808303816000875af115801561115e573d6000803e3d6000fd5b505050506040513d601f19601f8201168201806040525081019061118291906144ef565b905087156111a55760008181526001602052604090206111a3898b836145fc565b505b6040516338a73f9960e11b8152600481018290523060248201527f00000000000000000000000000000000000000000000000000000000000000006001600160a01b03169063714e7f3290604401600060405180830381600087803b15801561120d57600080fd5b505af1158015611221573d6000803e3d6000fd5b50505050611230818686612981565b600061123d828989612658565b90507f8dac501f24f52bda9ebdfa6a1789878c1d1e23823c771f7d52b5ba41261b0f4581838c8c888861126e612972565b60405161128197969594939291906146bc565b60405180910390a1509998505050505050505050565b6040516301fd03bb60e71b81526004810184905260248101839052604481018290526060906000906001600160a01b037f0000000000000000000000000000000000000000000000000000000000000000169063fe81dd8090606401600060405180830381865afa158015611310573d6000803e3d6000fd5b505050506040513d6000823e601f3d908101601f19168201604052611338919081019061472f565b8051909150806001600160401b03811115611355576113556141fd565b60405190808252806020026020018201604052801561138e57816020015b61137b6137c2565b8152602001906001900390816113735790505b50925060005b818110156113fd5760008382815181106113b0576113b06147d4565b6020026020010151905060405180604001604052808281526020016113d483612273565b8152508583815181106113e9576113e96147d4565b602090810291909101015250600101611394565b5050509392505050565b6040516331a9108f60e11b81526004810184905261149c907f00000000000000000000000000000000000000000000000000000000000000006001600160a01b031690636352211e90602401602060405180830381865afa158015611470573d6000803e3d6000fd5b505050506040513d601f19601f82011682018060405250810190611494919061446f565b8460066124ad565b60008381526001602052604090206114b58284836145fc565b50827f0f3d240fe5efaeda774d27bf0425f932ddd2098297b26de8070d6c8bef534b1683836114e2612972565b6040516114f1939291906147ea565b60405180910390a2505050565b6040516331a9108f60e11b815260048101859052611593907f00000000000000000000000000000000000000000000000000000000000000006001600160a01b031690636352211e90602401602060405180830381865afa158015611567573d6000803e3d6000fd5b505050506040513d601f19601f8201168201806040525081019061158b919061446f565b8560116124ad565b604051638a36dffd60e01b81526001600160a01b037f00000000000000000000000000000000000000000000000000000000000000001690638a36dffd90610982908790879087908790600401614841565b60006115f86115f3836125c5565b612273565b610120015192915050565b6116208585600a61161b82611616612972565b612af8565b612b95565b82600003611641576040516346545c9960e11b815260040160405180910390fd5b83856001600160a01b03167fdf04e13ee4fcd48a81ab2fd114757093740a3efa9b6475d86e05878b4c59d079858585611678612972565b60405161168894939291906149c5565b60405180910390a360405163124d91e560e01b81526001600160a01b037f0000000000000000000000000000000000000000000000000000000000000000169063124d91e5906108dd908890889088906004016149f8565b600160205260009081526040902080546116f990614572565b80601f016020809104026020016040519081016040528092919081815260200182805461172590614572565b80156117725780601f1061174757610100808354040283529160200191611772565b820191906000526020600020905b81548152906001019060200180831161175557829003601f168201915b505050505081565b60006117886115f3836125c5565b610100015192915050565b61179f8484600c6124ad565b60006117aa846125c5565b61010081015190915060451c6001908116036117d957604051636af4c57760e01b815260040160405180910390fd5b60405163b1e6d2a160e01b81526001600160a01b038681166004830152602482018690528481166044830152606482018490527f0000000000000000000000000000000000000000000000000000000000000000169063b1e6d2a1906084016108dd565b6118456136da565b61184d613726565b610eab83612ba5565b61185e6136da565b611866613726565b60405163855a54ed60e01b8152600481018490526000907f00000000000000000000000000000000000000000000000000000000000000006001600160a01b03169063855a54ed9060240161014060405180830381865afa1580156118cf573d6000803e3d6000fd5b505050506040513d601f19601f820116820180604052508101906118f39190614a19565b909350905061190183612273565b91509193909250565b60008560000361192d5760405163064fae8d60e41b815260040160405180910390fd5b600080611939896125c5565b6040516331a9108f60e11b8152600481018b9052909150611a1b906001600160a01b037f00000000000000000000000000000000000000000000000000000000000000001690636352211e90602401602060405180830381865afa1580156119a5573d6000803e3d6000fd5b505050506040513d601f19601f820116820180604052508101906119c9919061446f565b8a60096119d882611616612972565b80611a03575061010085015160521c6001600160a01b03166119f8612972565b6001600160a01b0316145b8061161b575061161b8d86611a16612972565b612bfa565b602081015165ffffffffffff1615801590611a42575061010081015160461c600190811614155b8015611a575750611a5589611616612972565b155b8015611a84575061010081015160521c6001600160a01b0316611a78612972565b6001600160a01b031614155b8015611a9a5750611a988982611a16612972565b155b15611ab857604051632475c19d60e21b815260040160405180910390fd5b83611ac4576000611ace565b61010081015160041c5b61ffff1691506127108214611b8d57611af588611aed84612710614a4c565b612710612ca2565b60405163aab68bdb60e01b81529093506001600160a01b037f0000000000000000000000000000000000000000000000000000000000000000169063aab68bdb90611b48908a908d9088906004016149f8565b6020604051808303816000875af1158015611b67573d6000803e3d6000fd5b505050506040513d601f19601f82011682018060405250810190611b8b919061446f565b505b88876001600160a01b03167fe6fee9c572244c0c2238c3112ac12d411750a7ee00eeebd32521c3e5a666c14b8a868a8a88611bc6612972565b604051611bd896959493929190614a5f565b60405180910390a38115611c1457611bf08389614a4c565b60008a81526020819052604081208054909190611c0e90849061451e565b90915550505b50509695505050505050565b6000611c2a612972565b90507f00000000000000000000000000000000000000000000000000000000000000006001600160a01b0316816001600160a01b031614611cb157604051639653dbed60e01b81526001600160a01b0380831660048301527f0000000000000000000000000000000000000000000000000000000000000000166024820152604401610e23565b6040516301ffc9a760e01b81526334ce2c7b60e21b60048201526001600160a01b038416906301ffc9a790602401602060405180830381865afa158015611cfc573d6000803e3d6000fd5b505050506040513d601f19601f82011682018060405250810190611d209190614aa2565b15610e8c5760405163a312889b60e01b8152600481018390526001600160a01b0384169063a312889b90602401600060405180830381865afa158015611d6a573d6000803e3d6000fd5b505050506040513d6000823e601f3d908101601f19168201604052611d929190810190614abf565b600083815260016020526040902090611dab9082614b52565b50505050565b6040516331a9108f60e11b815260048101839052611e46907f00000000000000000000000000000000000000000000000000000000000000006001600160a01b031690636352211e90602401602060405180830381865afa158015611e1a573d6000803e3d6000fd5b505050506040513d601f19601f82011682018060405250810190611e3e919061446f565b8360086124ad565b6000611e51836125c5565b9050806020015165ffffffffffff16600003611e7357611e7083612ba5565b90505b61010081015160471c600190811614611e9f57604051631b6846ab60e01b815260040160405180910390fd5b60405163f12b64a560e01b8152600481018490526001600160a01b0383811660248301527f0000000000000000000000000000000000000000000000000000000000000000169063f12b64a590604401600060405180830381600087803b158015611f0957600080fd5b505af1158015611f1d573d6000803e3d6000fd5b50505050505050565b333014611f3257600080fd5b611f466001600160a01b0386168886612d76565b60405163fef4325760e01b81526001600160a01b0388169063fef4325790611f7f9089908990899089906000908a908a90600401614c11565b6020604051808303816000875af1158015611f9e573d6000803e3d6000fd5b505050506040513d601f19601f82011682018060405250810190611fc291906144ef565b50604051636eb1769f60e11b81523060048201526001600160a01b03888116602483015286169063dd62ed3e90604401602060405180830381865afa15801561200f573d6000803e3d6000fd5b505050506040513d601f19601f8201168201806040525081019061203391906144ef565b15611f1d57611f1d614c6c565b60008181526020819052604081205490819003612070576040516364d7bdaf60e01b815260040160405180910390fd5b600061207b836125c5565b6040516331a9108f60e11b8152600481018590529091506000906001600160a01b037f00000000000000000000000000000000000000000000000000000000000000001690636352211e90602401602060405180830381865afa1580156120e6573d6000803e3d6000fd5b505050506040513d601f19601f8201168201806040525081019061210a919061446f565b6000858152602081905260408082208290555163aab68bdb60e01b8152919250906001600160a01b037f0000000000000000000000000000000000000000000000000000000000000000169063aab68bdb9061216e903090899089906004016149f8565b6020604051808303816000875af115801561218d573d6000803e3d6000fd5b505050506040513d601f19601f820116820180604052508101906121b1919061446f565b9050600084156121da576121d586856020015165ffffffffffff1660018886612e34565b6121dd565b60005b905080156121f1576121f186828585613340565b85846000015165ffffffffffff16856020015165ffffffffffff167f32411cac611c47cfe73afc187645c9cf3aec828d5f91780138d8421378fc0edb868986612238612972565b604080516001600160a01b0395861681526020810194909452830191909152909116606082015260800160405180910390a450505050919050565b61227b613726565b60405180610260016040528061229684610100015160041c90565b61ffff1681526020016122ae84610100015160141c90565b61ffff1681526020016122c684610100015160241c90565b63ffffffff1681526020016122e8846101000151600160449190911c81161490565b15158152602001612306846101000151600160459190911c81161490565b15158152602001612324846101000151600160469190911c81161490565b15158152602001612342846101000151600160479190911c81161490565b15158152602001612360846101000151600160489190911c81161490565b1515815260200161237e846101000151600160499190911c81161490565b1515815260200161239c8461010001516001604a9190911c81161490565b151581526020016123ba8461010001516001604b9190911c81161490565b151581526020016123d88461010001516001604c9190911c81161490565b151581526020016123f68461010001516001604d9190911c81161490565b151581526020016124148461010001516001604e9190911c81161490565b151581526020016124328461010001516001604f9190911c81161490565b15158152602001612450846101000151600160509190911c81161490565b1515815260200161246e846101000151600160519190911c81161490565b1515815260200161248484610100015160521c90565b6001600160a01b031681526020016124a184610100015160f21c90565b61ffff16905292915050565b60006124b7612972565b9050836001600160a01b0316816001600160a01b0316141580156125865750604051631a45b42760e11b81526001600160a01b0382811660048301528581166024830152604482018590526064820184905260016084830181905260a48301527f0000000000000000000000000000000000000000000000000000000000000000169063348b684e9060c401602060405180830381865afa158015612560573d6000803e3d6000fd5b505050506040513d601f19601f820116820180604052508101906125849190614aa2565b155b15611dab57604051631326f75560e11b81526001600160a01b038086166004830152821660248201526044810184905260648101839052608401610e23565b6125cd6136da565b6040516321d1336160e11b8152600481018390527f00000000000000000000000000000000000000000000000000000000000000006001600160a01b0316906343a266c2906024015b61012060405180830381865afa158015612634573d6000803e3d6000fd5b505050506040513d601f19601f820116820180604052508101906106e99190614452565b6000805b8281101561296a576000848483818110612678576126786147d4565b905060200281019061268a9190614c82565b6126939061516f565b905061271061ffff168160a001516000015161ffff1611156126dd5760a08101515160405163a162453f60e01b815261ffff90911660048201526127106024820152604401610e23565b61271061ffff168160a001516020015161ffff1611156127285760a0810151602001516040516318e037d360e11b815261ffff90911660048201526127106024820152604401610e23565b60007f00000000000000000000000000000000000000000000000000000000000000006001600160a01b03166370174dcc88846020015185604001518660600151876080015161277b8960a001516133ca565b895160405160e089901b6001600160e01b0319168152600481019790975263ffffffff95861660248801526001600160701b0390941660448701529390911660648501526001600160a01b0316608484015260a483019190915265ffffffffffff1660c482015260e401610120604051808303816000875af1158015612805573d6000803e3d6000fd5b505050506040513d601f19601f820116820180604052508101906128299190614452565b602081015160c0840151604051638a36dffd60e01b81529293506001600160a01b037f00000000000000000000000000000000000000000000000000000000000000001692638a36dffd92612882928c926004016152a4565b600060405180830381600087803b15801561289c57600080fd5b505af11580156128b0573d6000803e3d6000fd5b505050602082015160e08401516040516323c620f360e21b81526001600160a01b037f0000000000000000000000000000000000000000000000000000000000000000169350638f1883cc9261290a928c926004016153bd565b600060405180830381600087803b15801561292457600080fd5b505af1158015612938573d6000803e3d6000fd5b5061294a925060019150879050614a4c565b830361296057806020015165ffffffffffff1693505b505060010161265c565b509392505050565b600061297c613574565b905090565b6000816001600160401b0381111561299b5761299b6141fd565b6040519080825280602002602001820160405280156129c4578160200160208202803683370190505b50905060005b82811015612aa35760008484838181106129e6576129e66147d4565b90506020028101906129f8919061546b565b612a0190615481565b805160208201516040516304a6e43960e31b81529293506001600160a01b039091169163253721c891612a39918a919060040161557e565b600060405180830381600087803b158015612a5357600080fd5b505af1158015612a67573d6000803e3d6000fd5b505050508060000151838381518110612a8257612a826147d4565b6001600160a01b0390921660209283029190910190910152506001016129ca565b508115611dab5760405163104373fb60e31b81526001600160a01b037f0000000000000000000000000000000000000000000000000000000000000000169063821b9fd89061098290879085906004016155f6565b604051636e49181f60e01b8152600481018390526001600160a01b0382811660248301526000917f000000000000000000000000000000000000000000000000000000000000000090911690636e49181f90604401602060405180830381865afa158015612b6a573d6000803e3d6000fd5b505050506040513d601f19601f82011682018060405250810190612b8e9190614aa2565b9392505050565b80611dab57611dab8484846124ad565b612bad6136da565b604051631735e2c560e11b8152600481018390527f00000000000000000000000000000000000000000000000000000000000000006001600160a01b031690632e6bc58a90602401612616565b600080612c0c84610100015160521c90565b6001600160a01b031614158015612c9a575061010083015160521c604051630cef9c1160e31b8152600481018690526001600160a01b038481166024830152919091169063677ce08890604401602060405180830381865afa158015612c76573d6000803e3d6000fd5b505050506040513d601f19601f82011682018060405250810190612c9a9190614aa2565b949350505050565b6000808060001985870985870292508281108382030391505080600003612cdc57838281612cd257612cd261564f565b0492505050612b8e565b838110612d0d57604051630c740aef60e31b8152600481018790526024810186905260448101859052606401610e23565b60008486880960026001871981018816978890046003810283188082028403028082028403028082028403028082028403028082028403029081029092039091026000889003889004909101858311909403939093029303949094049190911702949350505050565b604080516001600160a01b038416602482015260448082018490528251808303909101815260649091019091526020810180516001600160e01b031663095ea7b360e01b179052612dc784826135e9565b611dab576040516001600160a01b03848116602483015260006044830152612e2a91869182169063095ea7b3906064015b604051602081830303815290604052915060e01b6020820180516001600160e01b038381831617835250505050613638565b611dab8482613638565b6040516369e11cc560e01b815260048101869052602481018590526044810184905282906000907f00000000000000000000000000000000000000000000000000000000000000006001600160a01b0316906369e11cc590606401600060405180830381865afa158015612eac573d6000803e3d6000fd5b505050506040513d6000823e601f3d908101601f19168201604052612ed49190810190615665565b805190915060005b81811015613334576000838281518110612ef857612ef86147d4565b602002602001015190506000612f2388836000015163ffffffff16633b9aca0063ffffffff16612ca2565b905080156132e55760a08201516001600160a01b031615612feb57612f4e8b828460a001518a613340565b8160a001516001600160a01b031663c5a093886040518060c001604052808a6001600160a01b03168152602001848152602001601281526020018e81526020018c8152602001858152506040518263ffffffff1660e01b8152600401612fb4919061576a565b600060405180830381600087803b158015612fce57600080fd5b505af1158015612fe2573d6000803e3d6000fd5b505050506132d8565b60408201516000906001600160a01b031661300d57613008612972565b613013565b82604001515b905082602001516001600160401b03166000146132305760006001600160a01b038916156130df576020840151604051630862026560e41b81526001600160401b0390911660048201526001600160a01b038a811660248301527f00000000000000000000000000000000000000000000000000000000000000001690638620265090604401602060405180830381865afa1580156130b6573d6000803e3d6000fd5b505050506040513d601f19601f820116820180604052508101906130da919061446f565b6130e2565b60005b90506001600160a01b038916158061310157506001600160a01b038116155b15613117576131128d84848c613340565b61322a565b60008d60405160200161312c91815260200190565b60408051601f1981840301815290829052602087015163fb61b4e360e01b8352909250309163fb61b4e39161316e918691908f908a908a9089906004016157be565b600060405180830381600087803b15801561318857600080fd5b505af1925050508015613199575060015b613228573d8080156131c7576040519150601f19603f3d011682016040523d82523d6000602084013e6131cc565b606091505b508e7fdba24f3504238ca84f6411d16a14bb7ae54061b0a80892bf93eb5a8912ed73558787846131fa612972565b60405161320a9493929190615814565b60405180910390a26132266001600160a01b038c1685876136a9565b505b505b506132d6565b61deac196001600160a01b038216016132ca577f00000000000000000000000000000000000000000000000000000000000000006001600160a01b031663124d91e5308e856040518463ffffffff1660e01b8152600401613293939291906149f8565b600060405180830381600087803b1580156132ad57600080fd5b505af11580156132c1573d6000803e3d6000fd5b505050506132d6565b6132d68c83838b613340565b505b6132e28187614a4c565b95505b888a8c7fbfcad5a78fa104a30927810dfb51a41d1119d43ce12be27620ab589e1273cebe8585613313612972565b60405161332293929190615856565b60405180910390a45050600101612edc565b50505095945050505050565b6001600160a01b03811615613368576133636001600160a01b03821683856136a9565b611dab565b60405163b1e6d2a160e01b8152306004820152602481018590526001600160a01b038381166044830152606482018590527f0000000000000000000000000000000000000000000000000000000000000000169063b1e6d2a190608401610982565b6000600190506004826000015161ffff16901b811790506014826020015161ffff16901b811790506024826040015163ffffffff16901b8117905081606001511561341b5768100000000000000000175b8160800151156134315768200000000000000000175b8160a00151156134475768400000000000000000175b8160c001511561345d5768800000000000000000175b8160e0015115613474576901000000000000000000175b8161010001511561348c576902000000000000000000175b816101200151156134a4576904000000000000000000175b816101400151156134bc576908000000000000000000175b816101600151156134d4576910000000000000000000175b816101800151156134ec576920000000000000000000175b816101a0015115613504576940000000000000000000175b816101c001511561351c576980000000000000000000175b816101e001511561352e57600160501b175b8161020001511561354057600160511b175b6102208201516102409092015160529290921b600160521b600160f21b03161760f29190911b6001600160f21b0319161790565b6000366014336001600160a01b037f0000000000000000000000000000000000000000000000000000000000000000161480156135b15750808210155b156135e1576000366135c38385614a4c565b6135ce928290615884565b6135d7916158ae565b60601c9250505090565b339250505090565b6000806000806020600086516020880160008a5af192503d9150600051905082801561362e5750811561361f578060011461362e565b6000866001600160a01b03163b115b9695505050505050565b600080602060008451602086016000885af18061365b576040513d6000823e3d81fd5b50506000513d91508115613673578060011415613680565b6001600160a01b0384163b155b15611dab57604051635274afe760e01b81526001600160a01b0385166004820152602401610e23565b6040516001600160a01b03838116602483015260448201839052610e8c91859182169063a9059cbb90606401612df8565b6040805161012081018252600080825260208201819052918101829052606081018290526080810182905260a0810182905260c0810182905260e0810182905261010081019190915290565b6040805161026081018252600080825260208201819052918101829052606081018290526080810182905260a0810182905260c0810182905260e08101829052610100810182905261012081018290526101408101829052610160810182905261018081018290526101a081018290526101c081018290526101e081018290526102008101829052610220810182905261024081019190915290565b60405180604001604052806137d56136da565b81526020016137e2613726565b905290565b6000602082840312156137f957600080fd5b81356001600160e01b031981168114612b8e57600080fd5b60006020828403121561382357600080fd5b5035919050565b6000806040838503121561383d57600080fd5b50508035926020909101359150565b65ffffffffffff80825116835280602083015116602084015280604083015116604084015250606081015161388b606084018265ffffffffffff169052565b5060808101516138a3608084018263ffffffff169052565b5060a08101516138be60a08401826001600160701b03169052565b5060c08101516138d660c084018263ffffffff169052565b5060e08101516138f160e08401826001600160a01b03169052565b5061010090810151910152565b805161ffff168252602081015161391b602084018261ffff169052565b506040810151613933604084018263ffffffff169052565b506060810151613947606084018215159052565b50608081015161395b608084018215159052565b5060a081015161396f60a084018215159052565b5060c081015161398360c084018215159052565b5060e081015161399760e084018215159052565b5061010081810151151590830152610120808201511515908301526101408082015115159083015261016080820151151590830152610180808201511515908301526101a0808201511515908301526101c0808201511515908301526101e08082015115159083015261020080820151151590830152610220808201516001600160a01b0316908301526102408082015161ffff811682850152611dab565b6103808101613a45828561384c565b612b8e6101208301846138fe565b6001600160a01b0381168114613a6857600080fd5b50565b60008060008060808587031215613a8157600080fd5b8435935060208501359250604085013591506060850135613aa181613a53565b939692955090935050565b8035613ab781613a53565b919050565b60008060008060808587031215613ad257600080fd5b8435613add81613a53565b935060208501359250604085013591506060850135613aa181613a53565b60008083601f840112613b0d57600080fd5b5081356001600160401b03811115613b2457600080fd5b6020830191508360208260051b8501011115613b3f57600080fd5b9250929050565b60008083601f840112613b5857600080fd5b5081356001600160401b03811115613b6f57600080fd5b602083019150836020828501011115613b3f57600080fd5b600080600080600060608688031215613b9f57600080fd5b8535945060208601356001600160401b0380821115613bbd57600080fd5b613bc989838a01613afb565b90965094506040880135915080821115613be257600080fd5b50613bef88828901613b46565b969995985093965092949392505050565b60008060008060008060006080888a031215613c1b57600080fd5b8735965060208801356001600160401b0380821115613c3957600080fd5b613c458b838c01613afb565b909850965060408a0135915080821115613c5e57600080fd5b613c6a8b838c01613afb565b909650945060608a0135915080821115613c8357600080fd5b50613c908a828b01613b46565b989b979a50959850939692959293505050565b60008060408385031215613cb657600080fd5b823591506020830135613cc881613a53565b809150509250929050565b600060208284031215613ce557600080fd5b8135612b8e81613a53565b60008060008060008060808789031215613d0957600080fd5b8635955060208701356001600160401b0380821115613d2757600080fd5b613d338a838b01613b46565b90975095506040890135915080821115613d4c57600080fd5b50613d5989828a01613b46565b979a9699509497949695606090950135949350505050565b600080600080600080600080600060a08a8c031215613d8f57600080fd5b8935613d9a81613a53565b985060208a01356001600160401b0380821115613db657600080fd5b613dc28d838e01613b46565b909a50985060408c0135915080821115613ddb57600080fd5b613de78d838e01613afb565b909850965060608c0135915080821115613e0057600080fd5b613e0c8d838e01613afb565b909650945060808c0135915080821115613e2557600080fd5b50613e328c828d01613b46565b915080935050809150509295985092959850929598565b600080600060608486031215613e5e57600080fd5b505081359360208301359350604090920135919050565b6020808252825182820181905260009190848201906040850190845b81811015613ecc578351613ea684825161384c565b850151613eb76101208501826138fe565b50928401926103809290920191600101613e91565b50909695505050505050565b600080600060408486031215613eed57600080fd5b8335925060208401356001600160401b03811115613f0a57600080fd5b613f1686828701613b46565b9497909650939450505050565b60008060008060608587031215613f3957600080fd5b843593506020850135925060408501356001600160401b03811115613f5d57600080fd5b613f6987828801613afb565b95989497509550505050565b600080600080600060808688031215613f8d57600080fd5b8535613f9881613a53565b9450602086013593506040860135925060608601356001600160401b03811115613fc157600080fd5b613bef88828901613b46565b60005b83811015613fe8578181015183820152602001613fd0565b50506000910152565b60008151808452614009816020860160208601613fcd565b601f01601f19169290920160200192915050565b602081526000612b8e6020830184613ff1565b6000806000806080858703121561404657600080fd5b843561405181613a53565b935060208501359250604085013561406881613a53565b9396929550929360600135925050565b6103a08101614087828661384c565b6140956101208301856138fe565b600683106140b357634e487b7160e01b600052602160045260246000fd5b82610380830152949350505050565b8015158114613a6857600080fd5b8035613ab7816140c2565b60008060008060008060a087890312156140f457600080fd5b8635955060208701359450604087013561410d81613a53565b935060608701356001600160401b0381111561412857600080fd5b61413489828a01613b46565b9094509250506080870135614148816140c2565b809150509295509295509295565b6000806040838503121561416957600080fd5b823561417481613a53565b946020939093013593505050565b600080600080600080600060c0888a03121561419d57600080fd5b87356141a881613a53565b96506020880135955060408801356141bf81613a53565b94506060880135935060808801356141d681613a53565b925060a08801356001600160401b038111156141f157600080fd5b613c908a828b01613b46565b634e487b7160e01b600052604160045260246000fd5b60405161012081016001600160401b0381118282101715614236576142366141fd565b60405290565b60405161026081016001600160401b0381118282101715614236576142366141fd565b604080519081016001600160401b0381118282101715614236576142366141fd565b60405160c081016001600160401b0381118282101715614236576142366141fd565b604051608081016001600160401b0381118282101715614236576142366141fd565b60405161010081016001600160401b0381118282101715614236576142366141fd565b604051606081016001600160401b0381118282101715614236576142366141fd565b604051601f8201601f191681016001600160401b0381118282101715614332576143326141fd565b604052919050565b65ffffffffffff81168114613a6857600080fd5b8051613ab78161433a565b63ffffffff81168114613a6857600080fd5b8051613ab781614359565b6001600160701b0381168114613a6857600080fd5b8051613ab781614376565b8051613ab781613a53565b600061012082840312156143b457600080fd5b6143bc614213565b90506143c78261434e565b81526143d56020830161434e565b60208201526143e66040830161434e565b60408201526143f76060830161434e565b60608201526144086080830161436b565b608082015261441960a0830161438b565b60a082015261442a60c0830161436b565b60c082015261443b60e08301614396565b60e082015261010080830151818301525092915050565b6000610120828403121561446557600080fd5b612b8e83836143a1565b60006020828403121561448157600080fd5b8151612b8e81613a53565b81835281816020850137506000828201602090810191909152601f909101601f19169091010190565b8581528460208201526080604082015260006144d560808301858761448c565b905060018060a01b03831660608301529695505050505050565b60006020828403121561450157600080fd5b5051919050565b634e487b7160e01b600052601160045260246000fd5b808201808211156106e9576106e9614508565b86815260806020820152600061454b60808301878961448c565b828103604084015261455e81868861448c565b915050826060830152979650505050505050565b600181811c9082168061458657607f821691505b6020821081036145a657634e487b7160e01b600052602260045260246000fd5b50919050565b601f821115610e8c576000816000526020600020601f850160051c810160208610156145d55750805b601f850160051c820191505b818110156145f4578281556001016145e1565b505050505050565b6001600160401b03831115614613576146136141fd565b614627836146218354614572565b836145ac565b6000601f84116001811461465b57600085156146435750838201355b600019600387901b1c1916600186901b1783556146b5565b600083815260209020601f19861690835b8281101561468c578685013582556020948501946001909201910161466c565b50868210156146a95760001960f88860031b161c19848701351681555b505060018560011b0183555b5050505050565b87815286602082015260a0604082015260006146dc60a08301878961448c565b82810360608401526146ef81868861448c565b91505060018060a01b038316608083015298975050505050505050565b60006001600160401b03821115614725576147256141fd565b5060051b60200190565b6000602080838503121561474257600080fd5b82516001600160401b0381111561475857600080fd5b8301601f8101851361476957600080fd5b805161477c6147778261470c565b61430a565b8082825260208201915061012060208185028601019350888411156147a057600080fd5b6020850194505b838510156147c8576147b989866143a1565b835293840193918501916147a7565b50979650505050505050565b634e487b7160e01b600052603260045260246000fd5b6040815260006147fe60408301858761448c565b905060018060a01b0383166020830152949350505050565b8035613ab781614359565b6001600160401b0381168114613a6857600080fd5b8035613ab78161433a565b6000606080830187845260208781860152604060606040870152828784526080935060808701905060808860051b8801018960005b8a8110156149b357898303607f190184528135368d9003603e1901811261489c57600080fd5b8c01803584528386018782013536839003601e190181126148bc57600080fd5b9091018781019190356001600160401b03808211156148da57600080fd5b60c080830236038513156148ed57600080fd5b878b018a9052928290526000928c88015b8385101561499c57853561491181614359565b63ffffffff168152858c013561492681614821565b8316818d0152858b013561493981613a53565b6001600160a01b0316818c0152858e0135614953816140c2565b1515818f0152614964868e01614836565b65ffffffffffff168d82015260a061497d878201613aac565b6001600160a01b031690820152948101946001949094019381016148fe565b988b01989750505093880193505050600101614876565b50909c9b505050505050505050505050565b8481526060602082015260006149df60608301858761448c565b905060018060a01b038316604083015295945050505050565b6001600160a01b039390931683526020830191909152604082015260600190565b6000806101408385031215614a2d57600080fd5b614a3784846143a1565b915061012083015160068110613cc857600080fd5b818103818111156106e9576106e9614508565b86815285602082015260a060408201526000614a7f60a08301868861448c565b6060830194909452506001600160a01b0391909116608090910152949350505050565b600060208284031215614ab457600080fd5b8151612b8e816140c2565b600060208284031215614ad157600080fd5b81516001600160401b0380821115614ae857600080fd5b818401915084601f830112614afc57600080fd5b815181811115614b0e57614b0e6141fd565b614b21601f8201601f191660200161430a565b9150808252856020828501011115614b3857600080fd5b614b49816020840160208601613fcd565b50949350505050565b81516001600160401b03811115614b6b57614b6b6141fd565b614b7f81614b798454614572565b846145ac565b602080601f831160018114614bb45760008415614b9c5750858301515b600019600386901b1c1916600185901b1785556145f4565b600085815260208120601f198616915b82811015614be357888601518255948401946001909101908401614bc4565b5085821015614c015787850151600019600388901b60f8161c191681555b5050505050600190811b01905550565b878152600060018060a01b03808916602084015287604084015280871660608401525084608083015260e060a0830152600060e08301526101008060c0840152614c5e818401858761448c565b9a9950505050505050505050565b634e487b7160e01b600052600160045260246000fd5b6000823561033e19833603018112614c9957600080fd5b9190910192915050565b8035613ab781614376565b803561ffff81168114613ab757600080fd5b60006102608284031215614cd357600080fd5b614cdb61423c565b9050614ce682614cae565b8152614cf460208301614cae565b6020820152614d0560408301614816565b6040820152614d16606083016140d0565b6060820152614d27608083016140d0565b6080820152614d3860a083016140d0565b60a0820152614d4960c083016140d0565b60c0820152614d5a60e083016140d0565b60e0820152610100614d6d8184016140d0565b90820152610120614d7f8382016140d0565b90820152610140614d918382016140d0565b90820152610160614da38382016140d0565b90820152610180614db58382016140d0565b908201526101a0614dc78382016140d0565b908201526101c0614dd98382016140d0565b908201526101e0614deb8382016140d0565b90820152610200614dfd8382016140d0565b90820152610220614e0f838201613aac565b90820152610240614e21838201614cae565b9082015292915050565b600082601f830112614e3c57600080fd5b81356020614e4c6147778361470c565b82815260059290921b84018101918181019086841115614e6b57600080fd5b8286015b84811015614fbf5780356001600160401b0380821115614e8e57600080fd5b908801906040828b03601f1901811315614ea757600080fd5b614eaf61425f565b8784013581528184013583811115614ec657600080fd5b8085019450508b603f850112614edb57600080fd5b878401359250614eed6147778461470c565b83815260c09093028401820192888101908d851115614f0b57600080fd5b948301945b84861015614faa5760c0868f031215614f2857600080fd5b614f30614281565b8635614f3b81614359565b8152868b0135614f4a81614821565b818c015286850135614f5b81613a53565b818601526060870135614f6d816140c2565b60608201526080870135614f808161433a565b608082015260a0870135614f9381613a53565b60a0820152825260c0959095019490890190614f10565b828a0152508652505050918301918301614e6f565b509695505050505050565b600082601f830112614fdb57600080fd5b81356020614feb6147778361470c565b82815260069290921b8401810191818101908684111561500a57600080fd5b8286015b84811015614fbf57604081890312156150275760008081fd5b61502f61425f565b81356001600160e01b03811681146150475760008081fd5b81528185013561505681614359565b8186015283529183019160400161500e565b600082601f83011261507957600080fd5b813560206150896147778361470c565b82815260059290921b840181019181810190868411156150a857600080fd5b8286015b84811015614fbf5780356001600160401b03808211156150cc5760008081fd5b908801906080828b03601f19018113156150e65760008081fd5b6150ee6142a3565b878401356150fb81613a53565b815260408481013561510c81613a53565b828a0152606085810135858111156151245760008081fd5b6151328f8c838a0101614fca565b848401525092850135928484111561514c57600091508182fd5b61515a8e8b86890101614fca565b908301525086525050509183019183016150ac565b6000610340823603121561518257600080fd5b61518a6142c5565b61519383614836565b81526151a160208401614816565b60208201526151b260408401614ca3565b60408201526151c360608401614816565b60608201526151d460808401613aac565b60808201526151e63660a08501614cc0565b60a08201526103008301356001600160401b038082111561520657600080fd5b61521236838701614e2b565b60c084015261032085013591508082111561522c57600080fd5b5061523936828601615068565b60e08301525092915050565b805163ffffffff1682526020808201516001600160401b0316908301526040808201516001600160a01b039081169184019190915260608083015115159084015260808083015165ffffffffffff169084015260a09182015116910152565b60006060808301868452602065ffffffffffff87168186015260406060604087015282875180855260808801915060808160051b89010194508389016000805b83811015615355578a8803607f190185528251805189528701518789018790528051878a018190529088019083908b8b01905b808310156153405761532a828551615245565b60c0820191508a84019350600183019250615317565b509950505093860193918601916001016152e4565b50959c9b505050505050505050505050565b60008151808452602080850194506020840160005b838110156153b257815180516001600160e01b0316885283015163ffffffff16838801526040909601959082019060010161537c565b509495945050505050565b60006060808301868452602065ffffffffffff8716818601526040606060408701528287518085526080945060808801915060808160051b890101848a0160005b838110156149b3578a8303607f19018552815180516001600160a01b039081168552888201511688850152868101518785018a905261543f8a860182615367565b918b0151858303868d01529190506154578183615367565b9689019694505050908601906001016153fe565b60008235603e19833603018112614c9957600080fd5b6000604080833603121561549457600080fd5b61549c61425f565b83356154a781613a53565b81526020848101356001600160401b038111156154c357600080fd5b850136601f8201126154d457600080fd5b80356154e26147778261470c565b8181526060918202830184019184820191903684111561550157600080fd5b938501935b8385101561556b5780853603121561551e5760008081fd5b6155266142e8565b853561553181613a53565b81528587013560ff811681146155475760008081fd5b818801528589013561555881614359565b818a015283529384019391850191615506565b5093850193909352509195945050505050565b60006040808301858452602060406020860152818651808452606093506060870191506020880160005b828110156155e757815180516001600160a01b031685528581015160ff168686015287015163ffffffff168785015292850192908401906001016155a8565b50919998505050505050505050565b60006040820184835260206040602085015281855180845260608601915060208701935060005b818110156156425784516001600160a01b03168352938301939183019160010161561d565b5090979650505050505050565b634e487b7160e01b600052601260045260246000fd5b6000602080838503121561567857600080fd5b82516001600160401b0381111561568e57600080fd5b8301601f8101851361569f57600080fd5b80516156ad6147778261470c565b81815260c091820283018401918482019190888411156156cc57600080fd5b938501935b838510156147c85780858a0312156156e95760008081fd5b6156f1614281565b85516156fc81614359565b81528587015161570b81614821565b8188015260408681015161571e81613a53565b90820152606086810151615731816140c2565b908201526080868101516157448161433a565b9082015260a08681015161575781613a53565b90820152835293840193918501916156d1565b81516001600160a01b031681526020808301519082015260408083015190820152606080830151908201526080808301519082015260a0828101516101608301916157b790840182615245565b5092915050565b6001600160a01b0387811682526001600160401b03871660208301528581166040830152606082018590528316608082015260c060a0820181905260009061580890830184613ff1565b98975050505050505050565b60006101206158238388615245565b8560c08401528060e084015261583b81840186613ff1565b91505060018060a01b03831661010083015295945050505050565b61010081016158658286615245565b60c08201939093526001600160a01b039190911660e090910152919050565b6000808585111561589457600080fd5b838611156158a157600080fd5b5050820193919092039150565b6bffffffffffffffffffffffff1981358181169160148510156158db5780818660140360031b1b83161692505b50509291505056fea2646970667358221220e47a917a722a55d39c230307c4cd275c10049322c40500668f190d35403b7b1f64736f6c63430008170033",
	"deployedBytecode": "0x",
	"gitCommit": "6069b006093f34ddd15e4d10271676cf9e160b49"
}