{
	"_format": "sphinx-sol-ct-artifact-1",
	"merkleRoot": "0xecb722e952abd0c88b199c7b6d0e32c15eac38bf919588daeaef55a0b9f73b56",
	"contractName": "JBController",
	"address": "0x74688Ef633BB1990e806b1F5f8F16e19abA22bEB",
	"abi": [
		{
			"type": "constructor",
			"inputs": [
				{
					"name": "permissions",
					"type": "address",
					"internalType": "contract IJBPermissions"
				},
				{
					"name": "projects",
					"type": "address",
					"internalType": "contract IJBProjects"
				},
				{
					"name": "directory",
					"type": "address",
					"internalType": "contract IJBDirectory"
				},
				{
					"name": "rulesets",
					"type": "address",
					"internalType": "contract IJBRulesets"
				},
				{
					"name": "tokens",
					"type": "address",
					"internalType": "contract IJBTokens"
				},
				{
					"name": "splits",
					"type": "address",
					"internalType": "contract IJBSplits"
				},
				{
					"name": "fundAccessLimits",
					"type": "address",
					"internalType": "contract IJBFundAccessLimits"
				},
				{
					"name": "trustedForwarder",
					"type": "address",
					"internalType": "address"
				}
			],
			"stateMutability": "nonpayable"
		},
		{
			"type": "function",
			"name": "DIRECTORY",
			"inputs": [],
			"outputs": [
				{
					"name": "",
					"type": "address",
					"internalType": "contract IJBDirectory"
				}
			],
			"stateMutability": "view"
		},
		{
			"type": "function",
			"name": "FUND_ACCESS_LIMITS",
			"inputs": [],
			"outputs": [
				{
					"name": "",
					"type": "address",
					"internalType": "contract IJBFundAccessLimits"
				}
			],
			"stateMutability": "view"
		},
		{
			"type": "function",
			"name": "PERMISSIONS",
			"inputs": [],
			"outputs": [
				{
					"name": "",
					"type": "address",
					"internalType": "contract IJBPermissions"
				}
			],
			"stateMutability": "view"
		},
		{
			"type": "function",
			"name": "PROJECTS",
			"inputs": [],
			"outputs": [
				{
					"name": "",
					"type": "address",
					"internalType": "contract IJBProjects"
				}
			],
			"stateMutability": "view"
		},
		{
			"type": "function",
			"name": "RULESETS",
			"inputs": [],
			"outputs": [
				{
					"name": "",
					"type": "address",
					"internalType": "contract IJBRulesets"
				}
			],
			"stateMutability": "view"
		},
		{
			"type": "function",
			"name": "SPLITS",
			"inputs": [],
			"outputs": [
				{
					"name": "",
					"type": "address",
					"internalType": "contract IJBSplits"
				}
			],
			"stateMutability": "view"
		},
		{
			"type": "function",
			"name": "TOKENS",
			"inputs": [],
			"outputs": [
				{
					"name": "",
					"type": "address",
					"internalType": "contract IJBTokens"
				}
			],
			"stateMutability": "view"
		},
		{
			"type": "function",
			"name": "burnTokensOf",
			"inputs": [
				{
					"name": "holder",
					"type": "address",
					"internalType": "address"
				},
				{
					"name": "projectId",
					"type": "uint256",
					"internalType": "uint256"
				},
				{
					"name": "tokenCount",
					"type": "uint256",
					"internalType": "uint256"
				},
				{
					"name": "memo",
					"type": "string",
					"internalType": "string"
				}
			],
			"outputs": [],
			"stateMutability": "nonpayable"
		},
		{
			"type": "function",
			"name": "claimTokensFor",
			"inputs": [
				{
					"name": "holder",
					"type": "address",
					"internalType": "address"
				},
				{
					"name": "projectId",
					"type": "uint256",
					"internalType": "uint256"
				},
				{
					"name": "amount",
					"type": "uint256",
					"internalType": "uint256"
				},
				{
					"name": "beneficiary",
					"type": "address",
					"internalType": "address"
				}
			],
			"outputs": [],
			"stateMutability": "nonpayable"
		},
		{
			"type": "function",
			"name": "currentRulesetOf",
			"inputs": [
				{
					"name": "projectId",
					"type": "uint256",
					"internalType": "uint256"
				}
			],
			"outputs": [
				{
					"name": "ruleset",
					"type": "tuple",
					"internalType": "struct JBRuleset",
					"components": [
						{
							"name": "cycleNumber",
							"type": "uint256",
							"internalType": "uint256"
						},
						{
							"name": "id",
							"type": "uint256",
							"internalType": "uint256"
						},
						{
							"name": "basedOnId",
							"type": "uint256",
							"internalType": "uint256"
						},
						{
							"name": "start",
							"type": "uint256",
							"internalType": "uint256"
						},
						{
							"name": "duration",
							"type": "uint256",
							"internalType": "uint256"
						},
						{
							"name": "weight",
							"type": "uint256",
							"internalType": "uint256"
						},
						{
							"name": "decayRate",
							"type": "uint256",
							"internalType": "uint256"
						},
						{
							"name": "approvalHook",
							"type": "address",
							"internalType": "contract IJBRulesetApprovalHook"
						},
						{
							"name": "metadata",
							"type": "uint256",
							"internalType": "uint256"
						}
					]
				},
				{
					"name": "metadata",
					"type": "tuple",
					"internalType": "struct JBRulesetMetadata",
					"components": [
						{
							"name": "reservedRate",
							"type": "uint256",
							"internalType": "uint256"
						},
						{
							"name": "redemptionRate",
							"type": "uint256",
							"internalType": "uint256"
						},
						{
							"name": "baseCurrency",
							"type": "uint256",
							"internalType": "uint256"
						},
						{
							"name": "pausePay",
							"type": "bool",
							"internalType": "bool"
						},
						{
							"name": "pauseCreditTransfers",
							"type": "bool",
							"internalType": "bool"
						},
						{
							"name": "allowOwnerMinting",
							"type": "bool",
							"internalType": "bool"
						},
						{
							"name": "allowSetCustomToken",
							"type": "bool",
							"internalType": "bool"
						},
						{
							"name": "allowTerminalMigration",
							"type": "bool",
							"internalType": "bool"
						},
						{
							"name": "allowSetTerminals",
							"type": "bool",
							"internalType": "bool"
						},
						{
							"name": "allowSetController",
							"type": "bool",
							"internalType": "bool"
						},
						{
							"name": "ownerMustSendPayouts",
							"type": "bool",
							"internalType": "bool"
						},
						{
							"name": "holdFees",
							"type": "bool",
							"internalType": "bool"
						},
						{
							"name": "useTotalSurplusForRedemptions",
							"type": "bool",
							"internalType": "bool"
						},
						{
							"name": "useDataHookForPay",
							"type": "bool",
							"internalType": "bool"
						},
						{
							"name": "useDataHookForRedeem",
							"type": "bool",
							"internalType": "bool"
						},
						{
							"name": "dataHook",
							"type": "address",
							"internalType": "address"
						},
						{
							"name": "metadata",
							"type": "uint256",
							"internalType": "uint256"
						}
					]
				}
			],
			"stateMutability": "view"
		},
		{
			"type": "function",
			"name": "deployERC20For",
			"inputs": [
				{
					"name": "projectId",
					"type": "uint256",
					"internalType": "uint256"
				},
				{
					"name": "name",
					"type": "string",
					"internalType": "string"
				},
				{
					"name": "symbol",
					"type": "string",
					"internalType": "string"
				},
				{
					"name": "salt",
					"type": "bytes32",
					"internalType": "bytes32"
				}
			],
			"outputs": [
				{
					"name": "token",
					"type": "address",
					"internalType": "contract IJBToken"
				}
			],
			"stateMutability": "nonpayable"
		},
		{
			"type": "function",
			"name": "getRulesetOf",
			"inputs": [
				{
					"name": "projectId",
					"type": "uint256",
					"internalType": "uint256"
				},
				{
					"name": "rulesetId",
					"type": "uint256",
					"internalType": "uint256"
				}
			],
			"outputs": [
				{
					"name": "ruleset",
					"type": "tuple",
					"internalType": "struct JBRuleset",
					"components": [
						{
							"name": "cycleNumber",
							"type": "uint256",
							"internalType": "uint256"
						},
						{
							"name": "id",
							"type": "uint256",
							"internalType": "uint256"
						},
						{
							"name": "basedOnId",
							"type": "uint256",
							"internalType": "uint256"
						},
						{
							"name": "start",
							"type": "uint256",
							"internalType": "uint256"
						},
						{
							"name": "duration",
							"type": "uint256",
							"internalType": "uint256"
						},
						{
							"name": "weight",
							"type": "uint256",
							"internalType": "uint256"
						},
						{
							"name": "decayRate",
							"type": "uint256",
							"internalType": "uint256"
						},
						{
							"name": "approvalHook",
							"type": "address",
							"internalType": "contract IJBRulesetApprovalHook"
						},
						{
							"name": "metadata",
							"type": "uint256",
							"internalType": "uint256"
						}
					]
				},
				{
					"name": "metadata",
					"type": "tuple",
					"internalType": "struct JBRulesetMetadata",
					"components": [
						{
							"name": "reservedRate",
							"type": "uint256",
							"internalType": "uint256"
						},
						{
							"name": "redemptionRate",
							"type": "uint256",
							"internalType": "uint256"
						},
						{
							"name": "baseCurrency",
							"type": "uint256",
							"internalType": "uint256"
						},
						{
							"name": "pausePay",
							"type": "bool",
							"internalType": "bool"
						},
						{
							"name": "pauseCreditTransfers",
							"type": "bool",
							"internalType": "bool"
						},
						{
							"name": "allowOwnerMinting",
							"type": "bool",
							"internalType": "bool"
						},
						{
							"name": "allowSetCustomToken",
							"type": "bool",
							"internalType": "bool"
						},
						{
							"name": "allowTerminalMigration",
							"type": "bool",
							"internalType": "bool"
						},
						{
							"name": "allowSetTerminals",
							"type": "bool",
							"internalType": "bool"
						},
						{
							"name": "allowSetController",
							"type": "bool",
							"internalType": "bool"
						},
						{
							"name": "ownerMustSendPayouts",
							"type": "bool",
							"internalType": "bool"
						},
						{
							"name": "holdFees",
							"type": "bool",
							"internalType": "bool"
						},
						{
							"name": "useTotalSurplusForRedemptions",
							"type": "bool",
							"internalType": "bool"
						},
						{
							"name": "useDataHookForPay",
							"type": "bool",
							"internalType": "bool"
						},
						{
							"name": "useDataHookForRedeem",
							"type": "bool",
							"internalType": "bool"
						},
						{
							"name": "dataHook",
							"type": "address",
							"internalType": "address"
						},
						{
							"name": "metadata",
							"type": "uint256",
							"internalType": "uint256"
						}
					]
				}
			],
			"stateMutability": "view"
		},
		{
			"type": "function",
			"name": "isTrustedForwarder",
			"inputs": [
				{
					"name": "forwarder",
					"type": "address",
					"internalType": "address"
				}
			],
			"outputs": [
				{
					"name": "",
					"type": "bool",
					"internalType": "bool"
				}
			],
			"stateMutability": "view"
		},
		{
			"type": "function",
			"name": "latestQueuedRulesetOf",
			"inputs": [
				{
					"name": "projectId",
					"type": "uint256",
					"internalType": "uint256"
				}
			],
			"outputs": [
				{
					"name": "ruleset",
					"type": "tuple",
					"internalType": "struct JBRuleset",
					"components": [
						{
							"name": "cycleNumber",
							"type": "uint256",
							"internalType": "uint256"
						},
						{
							"name": "id",
							"type": "uint256",
							"internalType": "uint256"
						},
						{
							"name": "basedOnId",
							"type": "uint256",
							"internalType": "uint256"
						},
						{
							"name": "start",
							"type": "uint256",
							"internalType": "uint256"
						},
						{
							"name": "duration",
							"type": "uint256",
							"internalType": "uint256"
						},
						{
							"name": "weight",
							"type": "uint256",
							"internalType": "uint256"
						},
						{
							"name": "decayRate",
							"type": "uint256",
							"internalType": "uint256"
						},
						{
							"name": "approvalHook",
							"type": "address",
							"internalType": "contract IJBRulesetApprovalHook"
						},
						{
							"name": "metadata",
							"type": "uint256",
							"internalType": "uint256"
						}
					]
				},
				{
					"name": "metadata",
					"type": "tuple",
					"internalType": "struct JBRulesetMetadata",
					"components": [
						{
							"name": "reservedRate",
							"type": "uint256",
							"internalType": "uint256"
						},
						{
							"name": "redemptionRate",
							"type": "uint256",
							"internalType": "uint256"
						},
						{
							"name": "baseCurrency",
							"type": "uint256",
							"internalType": "uint256"
						},
						{
							"name": "pausePay",
							"type": "bool",
							"internalType": "bool"
						},
						{
							"name": "pauseCreditTransfers",
							"type": "bool",
							"internalType": "bool"
						},
						{
							"name": "allowOwnerMinting",
							"type": "bool",
							"internalType": "bool"
						},
						{
							"name": "allowSetCustomToken",
							"type": "bool",
							"internalType": "bool"
						},
						{
							"name": "allowTerminalMigration",
							"type": "bool",
							"internalType": "bool"
						},
						{
							"name": "allowSetTerminals",
							"type": "bool",
							"internalType": "bool"
						},
						{
							"name": "allowSetController",
							"type": "bool",
							"internalType": "bool"
						},
						{
							"name": "ownerMustSendPayouts",
							"type": "bool",
							"internalType": "bool"
						},
						{
							"name": "holdFees",
							"type": "bool",
							"internalType": "bool"
						},
						{
							"name": "useTotalSurplusForRedemptions",
							"type": "bool",
							"internalType": "bool"
						},
						{
							"name": "useDataHookForPay",
							"type": "bool",
							"internalType": "bool"
						},
						{
							"name": "useDataHookForRedeem",
							"type": "bool",
							"internalType": "bool"
						},
						{
							"name": "dataHook",
							"type": "address",
							"internalType": "address"
						},
						{
							"name": "metadata",
							"type": "uint256",
							"internalType": "uint256"
						}
					]
				},
				{
					"name": "approvalStatus",
					"type": "uint8",
					"internalType": "enum JBApprovalStatus"
				}
			],
			"stateMutability": "view"
		},
		{
			"type": "function",
			"name": "launchProjectFor",
			"inputs": [
				{
					"name": "owner",
					"type": "address",
					"internalType": "address"
				},
				{
					"name": "projectUri",
					"type": "string",
					"internalType": "string"
				},
				{
					"name": "rulesetConfigurations",
					"type": "tuple[]",
					"internalType": "struct JBRulesetConfig[]",
					"components": [
						{
							"name": "mustStartAtOrAfter",
							"type": "uint256",
							"internalType": "uint256"
						},
						{
							"name": "duration",
							"type": "uint256",
							"internalType": "uint256"
						},
						{
							"name": "weight",
							"type": "uint256",
							"internalType": "uint256"
						},
						{
							"name": "decayRate",
							"type": "uint256",
							"internalType": "uint256"
						},
						{
							"name": "approvalHook",
							"type": "address",
							"internalType": "contract IJBRulesetApprovalHook"
						},
						{
							"name": "metadata",
							"type": "tuple",
							"internalType": "struct JBRulesetMetadata",
							"components": [
								{
									"name": "reservedRate",
									"type": "uint256",
									"internalType": "uint256"
								},
								{
									"name": "redemptionRate",
									"type": "uint256",
									"internalType": "uint256"
								},
								{
									"name": "baseCurrency",
									"type": "uint256",
									"internalType": "uint256"
								},
								{
									"name": "pausePay",
									"type": "bool",
									"internalType": "bool"
								},
								{
									"name": "pauseCreditTransfers",
									"type": "bool",
									"internalType": "bool"
								},
								{
									"name": "allowOwnerMinting",
									"type": "bool",
									"internalType": "bool"
								},
								{
									"name": "allowSetCustomToken",
									"type": "bool",
									"internalType": "bool"
								},
								{
									"name": "allowTerminalMigration",
									"type": "bool",
									"internalType": "bool"
								},
								{
									"name": "allowSetTerminals",
									"type": "bool",
									"internalType": "bool"
								},
								{
									"name": "allowSetController",
									"type": "bool",
									"internalType": "bool"
								},
								{
									"name": "ownerMustSendPayouts",
									"type": "bool",
									"internalType": "bool"
								},
								{
									"name": "holdFees",
									"type": "bool",
									"internalType": "bool"
								},
								{
									"name": "useTotalSurplusForRedemptions",
									"type": "bool",
									"internalType": "bool"
								},
								{
									"name": "useDataHookForPay",
									"type": "bool",
									"internalType": "bool"
								},
								{
									"name": "useDataHookForRedeem",
									"type": "bool",
									"internalType": "bool"
								},
								{
									"name": "dataHook",
									"type": "address",
									"internalType": "address"
								},
								{
									"name": "metadata",
									"type": "uint256",
									"internalType": "uint256"
								}
							]
						},
						{
							"name": "splitGroups",
							"type": "tuple[]",
							"internalType": "struct JBSplitGroup[]",
							"components": [
								{
									"name": "groupId",
									"type": "uint256",
									"internalType": "uint256"
								},
								{
									"name": "splits",
									"type": "tuple[]",
									"internalType": "struct JBSplit[]",
									"components": [
										{
											"name": "preferAddToBalance",
											"type": "bool",
											"internalType": "bool"
										},
										{
											"name": "percent",
											"type": "uint256",
											"internalType": "uint256"
										},
										{
											"name": "projectId",
											"type": "uint256",
											"internalType": "uint256"
										},
										{
											"name": "beneficiary",
											"type": "address",
											"internalType": "address payable"
										},
										{
											"name": "lockedUntil",
											"type": "uint256",
											"internalType": "uint256"
										},
										{
											"name": "hook",
											"type": "address",
											"internalType": "contract IJBSplitHook"
										}
									]
								}
							]
						},
						{
							"name": "fundAccessLimitGroups",
							"type": "tuple[]",
							"internalType": "struct JBFundAccessLimitGroup[]",
							"components": [
								{
									"name": "terminal",
									"type": "address",
									"internalType": "address"
								},
								{
									"name": "token",
									"type": "address",
									"internalType": "address"
								},
								{
									"name": "payoutLimits",
									"type": "tuple[]",
									"internalType": "struct JBCurrencyAmount[]",
									"components": [
										{
											"name": "amount",
											"type": "uint256",
											"internalType": "uint256"
										},
										{
											"name": "currency",
											"type": "uint256",
											"internalType": "uint256"
										}
									]
								},
								{
									"name": "surplusAllowances",
									"type": "tuple[]",
									"internalType": "struct JBCurrencyAmount[]",
									"components": [
										{
											"name": "amount",
											"type": "uint256",
											"internalType": "uint256"
										},
										{
											"name": "currency",
											"type": "uint256",
											"internalType": "uint256"
										}
									]
								}
							]
						}
					]
				},
				{
					"name": "terminalConfigurations",
					"type": "tuple[]",
					"internalType": "struct JBTerminalConfig[]",
					"components": [
						{
							"name": "terminal",
							"type": "address",
							"internalType": "contract IJBTerminal"
						},
						{
							"name": "tokensToAccept",
							"type": "address[]",
							"internalType": "address[]"
						}
					]
				},
				{
					"name": "memo",
					"type": "string",
					"internalType": "string"
				}
			],
			"outputs": [
				{
					"name": "projectId",
					"type": "uint256",
					"internalType": "uint256"
				}
			],
			"stateMutability": "nonpayable"
		},
		{
			"type": "function",
			"name": "launchRulesetsFor",
			"inputs": [
				{
					"name": "projectId",
					"type": "uint256",
					"internalType": "uint256"
				},
				{
					"name": "rulesetConfigurations",
					"type": "tuple[]",
					"internalType": "struct JBRulesetConfig[]",
					"components": [
						{
							"name": "mustStartAtOrAfter",
							"type": "uint256",
							"internalType": "uint256"
						},
						{
							"name": "duration",
							"type": "uint256",
							"internalType": "uint256"
						},
						{
							"name": "weight",
							"type": "uint256",
							"internalType": "uint256"
						},
						{
							"name": "decayRate",
							"type": "uint256",
							"internalType": "uint256"
						},
						{
							"name": "approvalHook",
							"type": "address",
							"internalType": "contract IJBRulesetApprovalHook"
						},
						{
							"name": "metadata",
							"type": "tuple",
							"internalType": "struct JBRulesetMetadata",
							"components": [
								{
									"name": "reservedRate",
									"type": "uint256",
									"internalType": "uint256"
								},
								{
									"name": "redemptionRate",
									"type": "uint256",
									"internalType": "uint256"
								},
								{
									"name": "baseCurrency",
									"type": "uint256",
									"internalType": "uint256"
								},
								{
									"name": "pausePay",
									"type": "bool",
									"internalType": "bool"
								},
								{
									"name": "pauseCreditTransfers",
									"type": "bool",
									"internalType": "bool"
								},
								{
									"name": "allowOwnerMinting",
									"type": "bool",
									"internalType": "bool"
								},
								{
									"name": "allowSetCustomToken",
									"type": "bool",
									"internalType": "bool"
								},
								{
									"name": "allowTerminalMigration",
									"type": "bool",
									"internalType": "bool"
								},
								{
									"name": "allowSetTerminals",
									"type": "bool",
									"internalType": "bool"
								},
								{
									"name": "allowSetController",
									"type": "bool",
									"internalType": "bool"
								},
								{
									"name": "ownerMustSendPayouts",
									"type": "bool",
									"internalType": "bool"
								},
								{
									"name": "holdFees",
									"type": "bool",
									"internalType": "bool"
								},
								{
									"name": "useTotalSurplusForRedemptions",
									"type": "bool",
									"internalType": "bool"
								},
								{
									"name": "useDataHookForPay",
									"type": "bool",
									"internalType": "bool"
								},
								{
									"name": "useDataHookForRedeem",
									"type": "bool",
									"internalType": "bool"
								},
								{
									"name": "dataHook",
									"type": "address",
									"internalType": "address"
								},
								{
									"name": "metadata",
									"type": "uint256",
									"internalType": "uint256"
								}
							]
						},
						{
							"name": "splitGroups",
							"type": "tuple[]",
							"internalType": "struct JBSplitGroup[]",
							"components": [
								{
									"name": "groupId",
									"type": "uint256",
									"internalType": "uint256"
								},
								{
									"name": "splits",
									"type": "tuple[]",
									"internalType": "struct JBSplit[]",
									"components": [
										{
											"name": "preferAddToBalance",
											"type": "bool",
											"internalType": "bool"
										},
										{
											"name": "percent",
											"type": "uint256",
											"internalType": "uint256"
										},
										{
											"name": "projectId",
											"type": "uint256",
											"internalType": "uint256"
										},
										{
											"name": "beneficiary",
											"type": "address",
											"internalType": "address payable"
										},
										{
											"name": "lockedUntil",
											"type": "uint256",
											"internalType": "uint256"
										},
										{
											"name": "hook",
											"type": "address",
											"internalType": "contract IJBSplitHook"
										}
									]
								}
							]
						},
						{
							"name": "fundAccessLimitGroups",
							"type": "tuple[]",
							"internalType": "struct JBFundAccessLimitGroup[]",
							"components": [
								{
									"name": "terminal",
									"type": "address",
									"internalType": "address"
								},
								{
									"name": "token",
									"type": "address",
									"internalType": "address"
								},
								{
									"name": "payoutLimits",
									"type": "tuple[]",
									"internalType": "struct JBCurrencyAmount[]",
									"components": [
										{
											"name": "amount",
											"type": "uint256",
											"internalType": "uint256"
										},
										{
											"name": "currency",
											"type": "uint256",
											"internalType": "uint256"
										}
									]
								},
								{
									"name": "surplusAllowances",
									"type": "tuple[]",
									"internalType": "struct JBCurrencyAmount[]",
									"components": [
										{
											"name": "amount",
											"type": "uint256",
											"internalType": "uint256"
										},
										{
											"name": "currency",
											"type": "uint256",
											"internalType": "uint256"
										}
									]
								}
							]
						}
					]
				},
				{
					"name": "terminalConfigurations",
					"type": "tuple[]",
					"internalType": "struct JBTerminalConfig[]",
					"components": [
						{
							"name": "terminal",
							"type": "address",
							"internalType": "contract IJBTerminal"
						},
						{
							"name": "tokensToAccept",
							"type": "address[]",
							"internalType": "address[]"
						}
					]
				},
				{
					"name": "memo",
					"type": "string",
					"internalType": "string"
				}
			],
			"outputs": [
				{
					"name": "rulesetId",
					"type": "uint256",
					"internalType": "uint256"
				}
			],
			"stateMutability": "nonpayable"
		},
		{
			"type": "function",
			"name": "migrate",
			"inputs": [
				{
					"name": "projectId",
					"type": "uint256",
					"internalType": "uint256"
				},
				{
					"name": "to",
					"type": "address",
					"internalType": "contract IERC165"
				}
			],
			"outputs": [],
			"stateMutability": "nonpayable"
		},
		{
			"type": "function",
			"name": "mintTokensOf",
			"inputs": [
				{
					"name": "projectId",
					"type": "uint256",
					"internalType": "uint256"
				},
				{
					"name": "tokenCount",
					"type": "uint256",
					"internalType": "uint256"
				},
				{
					"name": "beneficiary",
					"type": "address",
					"internalType": "address"
				},
				{
					"name": "memo",
					"type": "string",
					"internalType": "string"
				},
				{
					"name": "useReservedRate",
					"type": "bool",
					"internalType": "bool"
				}
			],
			"outputs": [
				{
					"name": "beneficiaryTokenCount",
					"type": "uint256",
					"internalType": "uint256"
				}
			],
			"stateMutability": "nonpayable"
		},
		{
			"type": "function",
			"name": "payReservedTokenToTerminal",
			"inputs": [
				{
					"name": "terminal",
					"type": "address",
					"internalType": "contract IJBTerminal"
				},
				{
					"name": "projectId",
					"type": "uint256",
					"internalType": "uint256"
				},
				{
					"name": "token",
					"type": "address",
					"internalType": "contract IJBToken"
				},
				{
					"name": "splitAmount",
					"type": "uint256",
					"internalType": "uint256"
				},
				{
					"name": "beneficiary",
					"type": "address",
					"internalType": "address"
				},
				{
					"name": "metadata",
					"type": "bytes",
					"internalType": "bytes"
				}
			],
			"outputs": [],
			"stateMutability": "nonpayable"
		},
		{
			"type": "function",
			"name": "pendingReservedTokenBalanceOf",
			"inputs": [
				{
					"name": "projectId",
					"type": "uint256",
					"internalType": "uint256"
				}
			],
			"outputs": [
				{
					"name": "",
					"type": "uint256",
					"internalType": "uint256"
				}
			],
			"stateMutability": "view"
		},
		{
			"type": "function",
			"name": "queueRulesetsOf",
			"inputs": [
				{
					"name": "projectId",
					"type": "uint256",
					"internalType": "uint256"
				},
				{
					"name": "rulesetConfigurations",
					"type": "tuple[]",
					"internalType": "struct JBRulesetConfig[]",
					"components": [
						{
							"name": "mustStartAtOrAfter",
							"type": "uint256",
							"internalType": "uint256"
						},
						{
							"name": "duration",
							"type": "uint256",
							"internalType": "uint256"
						},
						{
							"name": "weight",
							"type": "uint256",
							"internalType": "uint256"
						},
						{
							"name": "decayRate",
							"type": "uint256",
							"internalType": "uint256"
						},
						{
							"name": "approvalHook",
							"type": "address",
							"internalType": "contract IJBRulesetApprovalHook"
						},
						{
							"name": "metadata",
							"type": "tuple",
							"internalType": "struct JBRulesetMetadata",
							"components": [
								{
									"name": "reservedRate",
									"type": "uint256",
									"internalType": "uint256"
								},
								{
									"name": "redemptionRate",
									"type": "uint256",
									"internalType": "uint256"
								},
								{
									"name": "baseCurrency",
									"type": "uint256",
									"internalType": "uint256"
								},
								{
									"name": "pausePay",
									"type": "bool",
									"internalType": "bool"
								},
								{
									"name": "pauseCreditTransfers",
									"type": "bool",
									"internalType": "bool"
								},
								{
									"name": "allowOwnerMinting",
									"type": "bool",
									"internalType": "bool"
								},
								{
									"name": "allowSetCustomToken",
									"type": "bool",
									"internalType": "bool"
								},
								{
									"name": "allowTerminalMigration",
									"type": "bool",
									"internalType": "bool"
								},
								{
									"name": "allowSetTerminals",
									"type": "bool",
									"internalType": "bool"
								},
								{
									"name": "allowSetController",
									"type": "bool",
									"internalType": "bool"
								},
								{
									"name": "ownerMustSendPayouts",
									"type": "bool",
									"internalType": "bool"
								},
								{
									"name": "holdFees",
									"type": "bool",
									"internalType": "bool"
								},
								{
									"name": "useTotalSurplusForRedemptions",
									"type": "bool",
									"internalType": "bool"
								},
								{
									"name": "useDataHookForPay",
									"type": "bool",
									"internalType": "bool"
								},
								{
									"name": "useDataHookForRedeem",
									"type": "bool",
									"internalType": "bool"
								},
								{
									"name": "dataHook",
									"type": "address",
									"internalType": "address"
								},
								{
									"name": "metadata",
									"type": "uint256",
									"internalType": "uint256"
								}
							]
						},
						{
							"name": "splitGroups",
							"type": "tuple[]",
							"internalType": "struct JBSplitGroup[]",
							"components": [
								{
									"name": "groupId",
									"type": "uint256",
									"internalType": "uint256"
								},
								{
									"name": "splits",
									"type": "tuple[]",
									"internalType": "struct JBSplit[]",
									"components": [
										{
											"name": "preferAddToBalance",
											"type": "bool",
											"internalType": "bool"
										},
										{
											"name": "percent",
											"type": "uint256",
											"internalType": "uint256"
										},
										{
											"name": "projectId",
											"type": "uint256",
											"internalType": "uint256"
										},
										{
											"name": "beneficiary",
											"type": "address",
											"internalType": "address payable"
										},
										{
											"name": "lockedUntil",
											"type": "uint256",
											"internalType": "uint256"
										},
										{
											"name": "hook",
											"type": "address",
											"internalType": "contract IJBSplitHook"
										}
									]
								}
							]
						},
						{
							"name": "fundAccessLimitGroups",
							"type": "tuple[]",
							"internalType": "struct JBFundAccessLimitGroup[]",
							"components": [
								{
									"name": "terminal",
									"type": "address",
									"internalType": "address"
								},
								{
									"name": "token",
									"type": "address",
									"internalType": "address"
								},
								{
									"name": "payoutLimits",
									"type": "tuple[]",
									"internalType": "struct JBCurrencyAmount[]",
									"components": [
										{
											"name": "amount",
											"type": "uint256",
											"internalType": "uint256"
										},
										{
											"name": "currency",
											"type": "uint256",
											"internalType": "uint256"
										}
									]
								},
								{
									"name": "surplusAllowances",
									"type": "tuple[]",
									"internalType": "struct JBCurrencyAmount[]",
									"components": [
										{
											"name": "amount",
											"type": "uint256",
											"internalType": "uint256"
										},
										{
											"name": "currency",
											"type": "uint256",
											"internalType": "uint256"
										}
									]
								}
							]
						}
					]
				},
				{
					"name": "memo",
					"type": "string",
					"internalType": "string"
				}
			],
			"outputs": [
				{
					"name": "rulesetId",
					"type": "uint256",
					"internalType": "uint256"
				}
			],
			"stateMutability": "nonpayable"
		},
		{
			"type": "function",
			"name": "receiveMigrationFrom",
			"inputs": [
				{
					"name": "from",
					"type": "address",
					"internalType": "contract IERC165"
				},
				{
					"name": "projectId",
					"type": "uint256",
					"internalType": "uint256"
				}
			],
			"outputs": [],
			"stateMutability": "nonpayable"
		},
		{
			"type": "function",
			"name": "rulesetsOf",
			"inputs": [
				{
					"name": "projectId",
					"type": "uint256",
					"internalType": "uint256"
				},
				{
					"name": "startingId",
					"type": "uint256",
					"internalType": "uint256"
				},
				{
					"name": "size",
					"type": "uint256",
					"internalType": "uint256"
				}
			],
			"outputs": [
				{
					"name": "rulesets",
					"type": "tuple[]",
					"internalType": "struct JBRulesetWithMetadata[]",
					"components": [
						{
							"name": "ruleset",
							"type": "tuple",
							"internalType": "struct JBRuleset",
							"components": [
								{
									"name": "cycleNumber",
									"type": "uint256",
									"internalType": "uint256"
								},
								{
									"name": "id",
									"type": "uint256",
									"internalType": "uint256"
								},
								{
									"name": "basedOnId",
									"type": "uint256",
									"internalType": "uint256"
								},
								{
									"name": "start",
									"type": "uint256",
									"internalType": "uint256"
								},
								{
									"name": "duration",
									"type": "uint256",
									"internalType": "uint256"
								},
								{
									"name": "weight",
									"type": "uint256",
									"internalType": "uint256"
								},
								{
									"name": "decayRate",
									"type": "uint256",
									"internalType": "uint256"
								},
								{
									"name": "approvalHook",
									"type": "address",
									"internalType": "contract IJBRulesetApprovalHook"
								},
								{
									"name": "metadata",
									"type": "uint256",
									"internalType": "uint256"
								}
							]
						},
						{
							"name": "metadata",
							"type": "tuple",
							"internalType": "struct JBRulesetMetadata",
							"components": [
								{
									"name": "reservedRate",
									"type": "uint256",
									"internalType": "uint256"
								},
								{
									"name": "redemptionRate",
									"type": "uint256",
									"internalType": "uint256"
								},
								{
									"name": "baseCurrency",
									"type": "uint256",
									"internalType": "uint256"
								},
								{
									"name": "pausePay",
									"type": "bool",
									"internalType": "bool"
								},
								{
									"name": "pauseCreditTransfers",
									"type": "bool",
									"internalType": "bool"
								},
								{
									"name": "allowOwnerMinting",
									"type": "bool",
									"internalType": "bool"
								},
								{
									"name": "allowSetCustomToken",
									"type": "bool",
									"internalType": "bool"
								},
								{
									"name": "allowTerminalMigration",
									"type": "bool",
									"internalType": "bool"
								},
								{
									"name": "allowSetTerminals",
									"type": "bool",
									"internalType": "bool"
								},
								{
									"name": "allowSetController",
									"type": "bool",
									"internalType": "bool"
								},
								{
									"name": "ownerMustSendPayouts",
									"type": "bool",
									"internalType": "bool"
								},
								{
									"name": "holdFees",
									"type": "bool",
									"internalType": "bool"
								},
								{
									"name": "useTotalSurplusForRedemptions",
									"type": "bool",
									"internalType": "bool"
								},
								{
									"name": "useDataHookForPay",
									"type": "bool",
									"internalType": "bool"
								},
								{
									"name": "useDataHookForRedeem",
									"type": "bool",
									"internalType": "bool"
								},
								{
									"name": "dataHook",
									"type": "address",
									"internalType": "address"
								},
								{
									"name": "metadata",
									"type": "uint256",
									"internalType": "uint256"
								}
							]
						}
					]
				}
			],
			"stateMutability": "view"
		},
		{
			"type": "function",
			"name": "sendReservedTokensToSplitsOf",
			"inputs": [
				{
					"name": "projectId",
					"type": "uint256",
					"internalType": "uint256"
				}
			],
			"outputs": [
				{
					"name": "",
					"type": "uint256",
					"internalType": "uint256"
				}
			],
			"stateMutability": "nonpayable"
		},
		{
			"type": "function",
			"name": "setControllerAllowed",
			"inputs": [
				{
					"name": "projectId",
					"type": "uint256",
					"internalType": "uint256"
				}
			],
			"outputs": [
				{
					"name": "",
					"type": "bool",
					"internalType": "bool"
				}
			],
			"stateMutability": "view"
		},
		{
			"type": "function",
			"name": "setSplitGroupsOf",
			"inputs": [
				{
					"name": "projectId",
					"type": "uint256",
					"internalType": "uint256"
				},
				{
					"name": "rulesetId",
					"type": "uint256",
					"internalType": "uint256"
				},
				{
					"name": "splitGroups",
					"type": "tuple[]",
					"internalType": "struct JBSplitGroup[]",
					"components": [
						{
							"name": "groupId",
							"type": "uint256",
							"internalType": "uint256"
						},
						{
							"name": "splits",
							"type": "tuple[]",
							"internalType": "struct JBSplit[]",
							"components": [
								{
									"name": "preferAddToBalance",
									"type": "bool",
									"internalType": "bool"
								},
								{
									"name": "percent",
									"type": "uint256",
									"internalType": "uint256"
								},
								{
									"name": "projectId",
									"type": "uint256",
									"internalType": "uint256"
								},
								{
									"name": "beneficiary",
									"type": "address",
									"internalType": "address payable"
								},
								{
									"name": "lockedUntil",
									"type": "uint256",
									"internalType": "uint256"
								},
								{
									"name": "hook",
									"type": "address",
									"internalType": "contract IJBSplitHook"
								}
							]
						}
					]
				}
			],
			"outputs": [],
			"stateMutability": "nonpayable"
		},
		{
			"type": "function",
			"name": "setTerminalsAllowed",
			"inputs": [
				{
					"name": "projectId",
					"type": "uint256",
					"internalType": "uint256"
				}
			],
			"outputs": [
				{
					"name": "",
					"type": "bool",
					"internalType": "bool"
				}
			],
			"stateMutability": "view"
		},
		{
			"type": "function",
			"name": "setTokenFor",
			"inputs": [
				{
					"name": "projectId",
					"type": "uint256",
					"internalType": "uint256"
				},
				{
					"name": "token",
					"type": "address",
					"internalType": "contract IJBToken"
				}
			],
			"outputs": [],
			"stateMutability": "nonpayable"
		},
		{
			"type": "function",
			"name": "setUriOf",
			"inputs": [
				{
					"name": "projectId",
					"type": "uint256",
					"internalType": "uint256"
				},
				{
					"name": "metadata",
					"type": "string",
					"internalType": "string"
				}
			],
			"outputs": [],
			"stateMutability": "nonpayable"
		},
		{
			"type": "function",
			"name": "supportsInterface",
			"inputs": [
				{
					"name": "interfaceId",
					"type": "bytes4",
					"internalType": "bytes4"
				}
			],
			"outputs": [
				{
					"name": "",
					"type": "bool",
					"internalType": "bool"
				}
			],
			"stateMutability": "view"
		},
		{
			"type": "function",
			"name": "totalTokenSupplyWithReservedTokensOf",
			"inputs": [
				{
					"name": "projectId",
					"type": "uint256",
					"internalType": "uint256"
				}
			],
			"outputs": [
				{
					"name": "",
					"type": "uint256",
					"internalType": "uint256"
				}
			],
			"stateMutability": "view"
		},
		{
			"type": "function",
			"name": "transferCreditsFrom",
			"inputs": [
				{
					"name": "holder",
					"type": "address",
					"internalType": "address"
				},
				{
					"name": "projectId",
					"type": "uint256",
					"internalType": "uint256"
				},
				{
					"name": "recipient",
					"type": "address",
					"internalType": "address"
				},
				{
					"name": "amount",
					"type": "uint256",
					"internalType": "uint256"
				}
			],
			"outputs": [],
			"stateMutability": "nonpayable"
		},
		{
			"type": "function",
			"name": "trustedForwarder",
			"inputs": [],
			"outputs": [
				{
					"name": "",
					"type": "address",
					"internalType": "address"
				}
			],
			"stateMutability": "view"
		},
		{
			"type": "function",
			"name": "upcomingRulesetOf",
			"inputs": [
				{
					"name": "projectId",
					"type": "uint256",
					"internalType": "uint256"
				}
			],
			"outputs": [
				{
					"name": "ruleset",
					"type": "tuple",
					"internalType": "struct JBRuleset",
					"components": [
						{
							"name": "cycleNumber",
							"type": "uint256",
							"internalType": "uint256"
						},
						{
							"name": "id",
							"type": "uint256",
							"internalType": "uint256"
						},
						{
							"name": "basedOnId",
							"type": "uint256",
							"internalType": "uint256"
						},
						{
							"name": "start",
							"type": "uint256",
							"internalType": "uint256"
						},
						{
							"name": "duration",
							"type": "uint256",
							"internalType": "uint256"
						},
						{
							"name": "weight",
							"type": "uint256",
							"internalType": "uint256"
						},
						{
							"name": "decayRate",
							"type": "uint256",
							"internalType": "uint256"
						},
						{
							"name": "approvalHook",
							"type": "address",
							"internalType": "contract IJBRulesetApprovalHook"
						},
						{
							"name": "metadata",
							"type": "uint256",
							"internalType": "uint256"
						}
					]
				},
				{
					"name": "metadata",
					"type": "tuple",
					"internalType": "struct JBRulesetMetadata",
					"components": [
						{
							"name": "reservedRate",
							"type": "uint256",
							"internalType": "uint256"
						},
						{
							"name": "redemptionRate",
							"type": "uint256",
							"internalType": "uint256"
						},
						{
							"name": "baseCurrency",
							"type": "uint256",
							"internalType": "uint256"
						},
						{
							"name": "pausePay",
							"type": "bool",
							"internalType": "bool"
						},
						{
							"name": "pauseCreditTransfers",
							"type": "bool",
							"internalType": "bool"
						},
						{
							"name": "allowOwnerMinting",
							"type": "bool",
							"internalType": "bool"
						},
						{
							"name": "allowSetCustomToken",
							"type": "bool",
							"internalType": "bool"
						},
						{
							"name": "allowTerminalMigration",
							"type": "bool",
							"internalType": "bool"
						},
						{
							"name": "allowSetTerminals",
							"type": "bool",
							"internalType": "bool"
						},
						{
							"name": "allowSetController",
							"type": "bool",
							"internalType": "bool"
						},
						{
							"name": "ownerMustSendPayouts",
							"type": "bool",
							"internalType": "bool"
						},
						{
							"name": "holdFees",
							"type": "bool",
							"internalType": "bool"
						},
						{
							"name": "useTotalSurplusForRedemptions",
							"type": "bool",
							"internalType": "bool"
						},
						{
							"name": "useDataHookForPay",
							"type": "bool",
							"internalType": "bool"
						},
						{
							"name": "useDataHookForRedeem",
							"type": "bool",
							"internalType": "bool"
						},
						{
							"name": "dataHook",
							"type": "address",
							"internalType": "address"
						},
						{
							"name": "metadata",
							"type": "uint256",
							"internalType": "uint256"
						}
					]
				}
			],
			"stateMutability": "view"
		},
		{
			"type": "function",
			"name": "uriOf",
			"inputs": [
				{
					"name": "projectId",
					"type": "uint256",
					"internalType": "uint256"
				}
			],
			"outputs": [
				{
					"name": "",
					"type": "string",
					"internalType": "string"
				}
			],
			"stateMutability": "view"
		},
		{
			"type": "event",
			"name": "BurnTokens",
			"inputs": [
				{
					"name": "holder",
					"type": "address",
					"indexed": true,
					"internalType": "address"
				},
				{
					"name": "projectId",
					"type": "uint256",
					"indexed": true,
					"internalType": "uint256"
				},
				{
					"name": "tokenCount",
					"type": "uint256",
					"indexed": false,
					"internalType": "uint256"
				},
				{
					"name": "memo",
					"type": "string",
					"indexed": false,
					"internalType": "string"
				},
				{
					"name": "caller",
					"type": "address",
					"indexed": false,
					"internalType": "address"
				}
			],
			"anonymous": false
		},
		{
			"type": "event",
			"name": "LaunchProject",
			"inputs": [
				{
					"name": "rulesetId",
					"type": "uint256",
					"indexed": false,
					"internalType": "uint256"
				},
				{
					"name": "projectId",
					"type": "uint256",
					"indexed": false,
					"internalType": "uint256"
				},
				{
					"name": "metadata",
					"type": "string",
					"indexed": false,
					"internalType": "string"
				},
				{
					"name": "memo",
					"type": "string",
					"indexed": false,
					"internalType": "string"
				},
				{
					"name": "caller",
					"type": "address",
					"indexed": false,
					"internalType": "address"
				}
			],
			"anonymous": false
		},
		{
			"type": "event",
			"name": "LaunchRulesets",
			"inputs": [
				{
					"name": "rulesetId",
					"type": "uint256",
					"indexed": false,
					"internalType": "uint256"
				},
				{
					"name": "projectId",
					"type": "uint256",
					"indexed": false,
					"internalType": "uint256"
				},
				{
					"name": "memo",
					"type": "string",
					"indexed": false,
					"internalType": "string"
				},
				{
					"name": "caller",
					"type": "address",
					"indexed": false,
					"internalType": "address"
				}
			],
			"anonymous": false
		},
		{
			"type": "event",
			"name": "Migrate",
			"inputs": [
				{
					"name": "projectId",
					"type": "uint256",
					"indexed": true,
					"internalType": "uint256"
				},
				{
					"name": "to",
					"type": "address",
					"indexed": false,
					"internalType": "contract IERC165"
				},
				{
					"name": "caller",
					"type": "address",
					"indexed": false,
					"internalType": "address"
				}
			],
			"anonymous": false
		},
		{
			"type": "event",
			"name": "MintTokens",
			"inputs": [
				{
					"name": "beneficiary",
					"type": "address",
					"indexed": true,
					"internalType": "address"
				},
				{
					"name": "projectId",
					"type": "uint256",
					"indexed": true,
					"internalType": "uint256"
				},
				{
					"name": "tokenCount",
					"type": "uint256",
					"indexed": false,
					"internalType": "uint256"
				},
				{
					"name": "beneficiaryTokenCount",
					"type": "uint256",
					"indexed": false,
					"internalType": "uint256"
				},
				{
					"name": "memo",
					"type": "string",
					"indexed": false,
					"internalType": "string"
				},
				{
					"name": "reservedRate",
					"type": "uint256",
					"indexed": false,
					"internalType": "uint256"
				},
				{
					"name": "caller",
					"type": "address",
					"indexed": false,
					"internalType": "address"
				}
			],
			"anonymous": false
		},
		{
			"type": "event",
			"name": "PrepMigration",
			"inputs": [
				{
					"name": "projectId",
					"type": "uint256",
					"indexed": true,
					"internalType": "uint256"
				},
				{
					"name": "from",
					"type": "address",
					"indexed": false,
					"internalType": "address"
				},
				{
					"name": "caller",
					"type": "address",
					"indexed": false,
					"internalType": "address"
				}
			],
			"anonymous": false
		},
		{
			"type": "event",
			"name": "QueueRulesets",
			"inputs": [
				{
					"name": "rulesetId",
					"type": "uint256",
					"indexed": false,
					"internalType": "uint256"
				},
				{
					"name": "projectId",
					"type": "uint256",
					"indexed": false,
					"internalType": "uint256"
				},
				{
					"name": "memo",
					"type": "string",
					"indexed": false,
					"internalType": "string"
				},
				{
					"name": "caller",
					"type": "address",
					"indexed": false,
					"internalType": "address"
				}
			],
			"anonymous": false
		},
		{
			"type": "event",
			"name": "ReservedDistributionReverted",
			"inputs": [
				{
					"name": "projectId",
					"type": "uint256",
					"indexed": true,
					"internalType": "uint256"
				},
				{
					"name": "split",
					"type": "tuple",
					"indexed": false,
					"internalType": "struct JBSplit",
					"components": [
						{
							"name": "preferAddToBalance",
							"type": "bool",
							"internalType": "bool"
						},
						{
							"name": "percent",
							"type": "uint256",
							"internalType": "uint256"
						},
						{
							"name": "projectId",
							"type": "uint256",
							"internalType": "uint256"
						},
						{
							"name": "beneficiary",
							"type": "address",
							"internalType": "address payable"
						},
						{
							"name": "lockedUntil",
							"type": "uint256",
							"internalType": "uint256"
						},
						{
							"name": "hook",
							"type": "address",
							"internalType": "contract IJBSplitHook"
						}
					]
				},
				{
					"name": "amount",
					"type": "uint256",
					"indexed": false,
					"internalType": "uint256"
				},
				{
					"name": "reason",
					"type": "bytes",
					"indexed": false,
					"internalType": "bytes"
				},
				{
					"name": "caller",
					"type": "address",
					"indexed": false,
					"internalType": "address"
				}
			],
			"anonymous": false
		},
		{
			"type": "event",
			"name": "SendReservedTokensToSplit",
			"inputs": [
				{
					"name": "projectId",
					"type": "uint256",
					"indexed": true,
					"internalType": "uint256"
				},
				{
					"name": "rulesetId",
					"type": "uint256",
					"indexed": true,
					"internalType": "uint256"
				},
				{
					"name": "group",
					"type": "uint256",
					"indexed": true,
					"internalType": "uint256"
				},
				{
					"name": "split",
					"type": "tuple",
					"indexed": false,
					"internalType": "struct JBSplit",
					"components": [
						{
							"name": "preferAddToBalance",
							"type": "bool",
							"internalType": "bool"
						},
						{
							"name": "percent",
							"type": "uint256",
							"internalType": "uint256"
						},
						{
							"name": "projectId",
							"type": "uint256",
							"internalType": "uint256"
						},
						{
							"name": "beneficiary",
							"type": "address",
							"internalType": "address payable"
						},
						{
							"name": "lockedUntil",
							"type": "uint256",
							"internalType": "uint256"
						},
						{
							"name": "hook",
							"type": "address",
							"internalType": "contract IJBSplitHook"
						}
					]
				},
				{
					"name": "tokenCount",
					"type": "uint256",
					"indexed": false,
					"internalType": "uint256"
				},
				{
					"name": "caller",
					"type": "address",
					"indexed": false,
					"internalType": "address"
				}
			],
			"anonymous": false
		},
		{
			"type": "event",
			"name": "SendReservedTokensToSplits",
			"inputs": [
				{
					"name": "rulesetId",
					"type": "uint256",
					"indexed": true,
					"internalType": "uint256"
				},
				{
					"name": "rulesetCycleNumber",
					"type": "uint256",
					"indexed": true,
					"internalType": "uint256"
				},
				{
					"name": "projectId",
					"type": "uint256",
					"indexed": true,
					"internalType": "uint256"
				},
				{
					"name": "beneficiary",
					"type": "address",
					"indexed": false,
					"internalType": "address"
				},
				{
					"name": "tokenCount",
					"type": "uint256",
					"indexed": false,
					"internalType": "uint256"
				},
				{
					"name": "beneficiaryTokenCount",
					"type": "uint256",
					"indexed": false,
					"internalType": "uint256"
				},
				{
					"name": "caller",
					"type": "address",
					"indexed": false,
					"internalType": "address"
				}
			],
			"anonymous": false
		},
		{
			"type": "event",
			"name": "SetMetadata",
			"inputs": [
				{
					"name": "projectId",
					"type": "uint256",
					"indexed": true,
					"internalType": "uint256"
				},
				{
					"name": "metadata",
					"type": "string",
					"indexed": false,
					"internalType": "string"
				},
				{
					"name": "caller",
					"type": "address",
					"indexed": false,
					"internalType": "address"
				}
			],
			"anonymous": false
		},
		{
			"type": "error",
			"name": "AddressEmptyCode",
			"inputs": [
				{
					"name": "target",
					"type": "address",
					"internalType": "address"
				}
			]
		},
		{
			"type": "error",
			"name": "AddressInsufficientBalance",
			"inputs": [
				{
					"name": "account",
					"type": "address",
					"internalType": "address"
				}
			]
		},
		{
			"type": "error",
			"name": "CONTROLLER_MIGRATION_NOT_ALLOWED",
			"inputs": []
		},
		{
			"type": "error",
			"name": "CREDIT_TRANSFERS_PAUSED",
			"inputs": []
		},
		{
			"type": "error",
			"name": "FailedInnerCall",
			"inputs": []
		},
		{
			"type": "error",
			"name": "INVALID_BASE_CURRENCY",
			"inputs": []
		},
		{
			"type": "error",
			"name": "INVALID_REDEMPTION_RATE",
			"inputs": []
		},
		{
			"type": "error",
			"name": "INVALID_RESERVED_RATE",
			"inputs": []
		},
		{
			"type": "error",
			"name": "MINT_NOT_ALLOWED_AND_NOT_TERMINAL_OR_HOOK",
			"inputs": []
		},
		{
			"type": "error",
			"name": "NO_BURNABLE_TOKENS",
			"inputs": []
		},
		{
			"type": "error",
			"name": "NO_RESERVED_TOKENS",
			"inputs": []
		},
		{
			"type": "error",
			"name": "PRBMath_MulDiv_Overflow",
			"inputs": [
				{
					"name": "x",
					"type": "uint256",
					"internalType": "uint256"
				},
				{
					"name": "y",
					"type": "uint256",
					"internalType": "uint256"
				},
				{
					"name": "denominator",
					"type": "uint256",
					"internalType": "uint256"
				}
			]
		},
		{
			"type": "error",
			"name": "RULESETS_ALREADY_LAUNCHED",
			"inputs": []
		},
		{
			"type": "error",
			"name": "RULESETS_ARRAY_EMPTY",
			"inputs": []
		},
		{
			"type": "error",
			"name": "RULESET_SET_TOKEN_DISABLED",
			"inputs": []
		},
		{
			"type": "error",
			"name": "SafeERC20FailedOperation",
			"inputs": [
				{
					"name": "token",
					"type": "address",
					"internalType": "address"
				}
			]
		},
		{
			"type": "error",
			"name": "UNAUTHORIZED",
			"inputs": []
		},
		{
			"type": "error",
			"name": "ZERO_TOKENS_TO_MINT",
			"inputs": []
		}
	],
	"solcInputHash": "57a1d4be1e647efb0f1dadcd0304e29e",
	"args": [
		"0x4475B99b2f6F06c5048fe8c3839dFe2E5d744e65",
		"0x0DD4C75A29147a662656535808b033abC568e33B",
		"0x317E962828ddBb27576f6F0cA89Adc3cd56Ed8Cc",
		"0x8e4B8F9eAf7dd02f87e30D4F0A4a5f06d1553e2C",
		"0x4AB442694fBA157Eae62BCa398A4A3dC2e36dCcD",
		"0x20d892d9296A4d69E94C202f5C41a299Da72B117",
		"0xF9fa80220977Aa898BA2F129E58F139B03aBeEe6",
		"0xB2b5841DBeF766d4b521221732F9B618fCf34A87"
	],
	"bytecode": "0x6101806040523480156200001257600080fd5b5060405162005ed938038062005ed983398101604081905262000035916200008b565b6001600160a01b03978816608052871660a05294861660c05292851660e0529084166101005283166101205282166101405216610160526200014c565b6001600160a01b03811681146200008857600080fd5b50565b600080600080600080600080610100898b031215620000a957600080fd5b8851620000b68162000072565b60208a0151909850620000c98162000072565b60408a0151909750620000dc8162000072565b60608a0151909650620000ef8162000072565b60808a0151909550620001028162000072565b60a08a0151909450620001158162000072565b60c08a0151909350620001288162000072565b60e08a01519092506200013b8162000072565b809150509295985092959890939650565b60805160a05160c05160e05161010051610120516101405161016051615bad6200032c600039600081816105da0152612c310152600081816102b80152818161230001528181612baa01526130db01526000818161027901528181610ba001528181610e5901528181610fdb0152818161148e01528181611745015281816121550152818161254a0152818161273e015281816131cc0152818161324e015281816133b1015281816134fc0152818161358301526137320152600081816105660152818161093201528181610ad701528181610dad015281816111840152818161160e0152818161166d015281816117da0152818161194401528181611a9801528181611d14015281816123e901528181612481015281816125eb0152612aa2015260008181610432015281816109e001528181610c0e015281816112d1015281816113ad01528181611ba501528181611e1501528181611f5501528181612e1b0152613463015260008181610313015281816108090152818161089e01528181610efb0152818161108201528181611223015281816119a001528181611da50152818161226e0152818161235501526126890152600081816103b1015281816104090152613a8a0152600081816105b3015261294b0152615bad6000f3fe608060405234801561001057600080fd5b50600436106102115760003560e01c806388bc2ef311610125578063c0512031116100ad578063d4a1b4b11161007c578063d4a1b4b114610561578063dd5f214a14610588578063f12b64a51461059b578063f434c914146105ae578063ffa08244146105d557600080fd5b8063c051203114610506578063c1ec61ee14610519578063c5b19b0e1461053b578063c7fb92de1461054e57600080fd5b8063a312889b116100f4578063a312889b1461048d578063b1a50e33146104ad578063b1e6d2a1146104c0578063b51d6244146104d3578063c02c63ad146104f357600080fd5b806388bc2ef31461042d57806399d25a34146104545780639e14fb8014610467578063a2d532e61461047a57600080fd5b8063303f5dfa116101a85780634da781a9116101775780634da781a91461038e578063572b6c05146103a157806358178191146103e1578063702a3977146103f45780637da0a8771461040757600080fd5b8063303f5dfa146103355780633997557114610348578063405b84fa14610368578063419296261461037b57600080fd5b80631f47ce69116101e45780631f47ce69146102b357806321df42e8146102da57806325a61d5c146102ed578063293c49991461030e57600080fd5b806301ffc9a714610216578063090db2f11461023e5780630a1181ed1461025f5780631d831d5c14610274575b600080fd5b610229610224366004613d84565b6105fc565b60405190151581526020015b60405180910390f35b61025161024c366004613dae565b61069f565b604051908152602001610235565b61027261026d366004613e34565b6106aa565b005b61029b7f000000000000000000000000000000000000000000000000000000000000000081565b6040516001600160a01b039091168152602001610235565b61029b7f000000000000000000000000000000000000000000000000000000000000000081565b6102516102e836600461409e565b6107cd565b6103006102fb366004614139565b610aaa565b6040516102359291906142b1565b61029b7f000000000000000000000000000000000000000000000000000000000000000081565b6102726103433660046142ce565b610b5f565b610251610356366004613dae565b60006020819052908152604090205481565b610272610376366004614318565b610c03565b610300610389366004613dae565b610d87565b61025161039c366004613dae565b610e34565b6102296103af366004614348565b7f00000000000000000000000000000000000000000000000000000000000000006001600160a01b0390811691161490565b61029b6103ef366004614365565b610ed6565b6102726104023660046143e6565b611068565b7f000000000000000000000000000000000000000000000000000000000000000061029b565b61029b7f000000000000000000000000000000000000000000000000000000000000000081565b610229610462366004613dae565b61115f565b610251610475366004614431565b611201565b610272610488366004614500565b6113a4565b6104a061049b366004613dae565b61154f565b60405161023591906145b9565b6102296104bb366004613dae565b6115e9565b6102726104ce3660046145cc565b611648565b6104e66104e1366004614614565b6117a8565b6040516102359190614640565b610300610501366004613dae565b61191e565b6102516105143660046146a3565b61197b565b61052c610527366004613dae565b611a6f565b6040516102359392919061470b565b610272610549366004614755565b611b23565b61025161055c36600461479a565b611cce565b61029b7f000000000000000000000000000000000000000000000000000000000000000081565b610272610596366004614815565b612254565b6102726105a9366004614318565b61233b565b61029b7f000000000000000000000000000000000000000000000000000000000000000081565b61029b7f000000000000000000000000000000000000000000000000000000000000000081565b60006001600160e01b0319821663c08efc5760e01b148061062d57506001600160e01b031982166334ce2c7b60e21b145b8061064857506001600160e01b03198216632877540760e01b145b8061066357506001600160e01b0319821663217a87fd60e21b145b8061067e57506001600160e01b03198216633d0d324560e21b145b8061069957506001600160e01b031982166301ffc9a760e01b145b92915050565b6000610699826125a2565b3330146106b657600080fd5b6106ca6001600160a01b038616888661281b565b60405163fef4325760e01b81526001600160a01b0388169063fef43257906107039089908990899089906000908a908a90600401614890565b6020604051808303816000875af1158015610722573d6000803e3d6000fd5b505050506040513d601f19601f8201168201806040525081019061074691906148eb565b50604051636eb1769f60e11b81523060048201526001600160a01b03888116602483015286169063dd62ed3e90604401602060405180830381865afa158015610793573d6000803e3d6000fd5b505050506040513d601f19601f820116820180604052508101906107b791906148eb565b156107c4576107c4614904565b50505050505050565b60008481036107ef57604051631ec6004f60e01b815260040160405180910390fd5b6040516331a9108f60e11b815260048101889052610884907f00000000000000000000000000000000000000000000000000000000000000006001600160a01b031690636352211e90602401602060405180830381865afa158015610858573d6000803e3d6000fd5b505050506040513d601f19601f8201168201806040525081019061087c919061491a565b8860026128df565b6040516331a9108f60e11b815260048101889052610919907f00000000000000000000000000000000000000000000000000000000000000006001600160a01b031690636352211e90602401602060405180830381865afa1580156108ed573d6000803e3d6000fd5b505050506040513d601f19601f82011682018060405250810190610911919061491a565b88600e6128df565b6040516319fade8560e11b8152600481018890526000907f00000000000000000000000000000000000000000000000000000000000000006001600160a01b0316906333f5bd0a90602401602060405180830381865afa158015610981573d6000803e3d6000fd5b505050506040513d601f19601f820116820180604052508101906109a591906148eb565b11156109c457604051639115381560e01b815260040160405180910390fd5b6040516338a73f9960e11b8152600481018890523060248201527f00000000000000000000000000000000000000000000000000000000000000006001600160a01b03169063714e7f3290604401600060405180830381600087803b158015610a2c57600080fd5b505af1158015610a40573d6000803e3d6000fd5b50505050610a4f8787876129d6565b9050610a5c878585612cc7565b7f23164adda696b19106c2eef50ba44461997682bf5aeb9fdb383117fa9952cc75818884610a88612e8d565b604051610a989493929190614937565b60405180910390a19695505050505050565b610ab2613c2a565b610aba613c7f565b604051630969875760e21b815260048101859052602481018490527f00000000000000000000000000000000000000000000000000000000000000006001600160a01b0316906325a61d5c9060440161012060405180830381865afa158015610b27573d6000803e3d6000fd5b505050506040513d601f19601f82011682018060405250810190610b4b91906149fa565b9150610b5682612e9c565b90509250929050565b610b6b8484600b6128df565b60405163181faefd60e11b81526001600160a01b038581166004830152602482018590526044820184905282811660648301527f0000000000000000000000000000000000000000000000000000000000000000169063303f5dfa906084015b600060405180830381600087803b158015610be557600080fd5b505af1158015610bf9573d6000803e3d6000fd5b5050505050505050565b336001600160a01b037f00000000000000000000000000000000000000000000000000000000000000001614610c4c5760405163075fd2b160e01b815260040160405180910390fd5b60008281526020819052604090205415610c6b57610c69826125a2565b505b6040516301ffc9a760e01b815263217a87fd60e21b60048201526001600160a01b038216906301ffc9a790602401602060405180830381865afa158015610cb6573d6000803e3d6000fd5b505050506040513d601f19601f82011682018060405250810190610cda9190614a17565b15610d40576040516362d8cd8760e11b8152306004820152602481018390526001600160a01b0382169063c5b19b0e90604401600060405180830381600087803b158015610d2757600080fd5b505af1158015610d3b573d6000803e3d6000fd5b505050505b604080516001600160a01b038316815233602082015283917f01f954abace731a88ab86e71186040cc2be49fe517ea06bc0d24f25b82b83456910160405180910390a25050565b610d8f613c2a565b610d97613c7f565b6040516321d1336160e11b8152600481018490527f00000000000000000000000000000000000000000000000000000000000000006001600160a01b0316906343a266c2906024015b61012060405180830381865afa158015610dfe573d6000803e3d6000fd5b505050506040513d601f19601f82011682018060405250810190610e2291906149fa565b9150610e2d82612e9c565b9050915091565b6000818152602081905260408082205490516375b0d9cd60e01b8152600481018490527f00000000000000000000000000000000000000000000000000000000000000006001600160a01b0316906375b0d9cd90602401602060405180830381865afa158015610ea8573d6000803e3d6000fd5b505050506040513d601f19601f82011682018060405250810190610ecc91906148eb565b6106999190614a4a565b6040516331a9108f60e11b815260048101879052600090610f6e906001600160a01b037f00000000000000000000000000000000000000000000000000000000000000001690636352211e90602401602060405180830381865afa158015610f42573d6000803e3d6000fd5b505050506040513d601f19601f82011682018060405250810190610f66919061491a565b8860076128df565b8115610fc457610f7c612e8d565b82604051602001610fab92919060609290921b6bffffffffffffffffffffffff19168252601482015260340190565b6040516020818303038152906040528051906020012091505b604051635817819160e01b81526001600160a01b037f0000000000000000000000000000000000000000000000000000000000000000169063581781919061101a908a908a908a908a908a908a90600401614a5d565b6020604051808303816000875af1158015611039573d6000803e3d6000fd5b505050506040513d601f19601f8201168201806040525081019061105d919061491a565b979650505050505050565b6040516331a9108f60e11b8152600481018490526110fd907f00000000000000000000000000000000000000000000000000000000000000006001600160a01b031690636352211e90602401602060405180830381865afa1580156110d1573d6000803e3d6000fd5b505050506040513d601f19601f820116820180604052508101906110f5919061491a565b8460066128df565b6000838152600160205260409020611116828483614b20565b50827f76f445b3718cf71aa0c056105beab456eba31f72f5cc5a60fde060fd14ea16848383611143612e8d565b60405161115293929190614be0565b60405180910390a2505050565b6040516321d1336160e11b8152600481018290526000906111f6906001600160a01b037f000000000000000000000000000000000000000000000000000000000000000016906343a266c2906024015b61012060405180830381865afa1580156111cd573d6000803e3d6000fd5b505050506040513d601f19601f820116820180604052508101906111f191906149fa565b612e9c565b610120015192915050565b60405163180e2b1160e31b81526001600160a01b0389811660048301526000917f00000000000000000000000000000000000000000000000000000000000000009091169063c0715888906024016020604051808303816000875af115801561126e573d6000803e3d6000fd5b505050506040513d601f19601f8201168201806040525081019061129291906148eb565b905086156112b55760008181526001602052604090206112b3888a83614b20565b505b6040516338a73f9960e11b8152600481018290523060248201527f00000000000000000000000000000000000000000000000000000000000000006001600160a01b03169063714e7f3290604401600060405180830381600087803b15801561131d57600080fd5b505af1158015611331573d6000803e3d6000fd5b5050505060006113428288886129d6565b905061134f828686612cc7565b7f8dac501f24f52bda9ebdfa6a1789878c1d1e23823c771f7d52b5ba41261b0f4581838b8b8761137d612e8d565b60405161138f96959493929190614c0c565b60405180910390a15098975050505050505050565b6114568585600a7f00000000000000000000000000000000000000000000000000000000000000006001600160a01b0316636e49181f896113e3612e8d565b6040516001600160e01b031960e085901b16815260048101929092526001600160a01b03166024820152604401602060405180830381865afa15801561142d573d6000803e3d6000fd5b505050506040513d601f19601f820116820180604052508101906114519190614a17565b612fc3565b8260000361147757604051637b38547b60e01b815260040160405180910390fd5b60405163124d91e560e01b81526001600160a01b037f0000000000000000000000000000000000000000000000000000000000000000169063124d91e5906114c790889088908890600401614c5a565b600060405180830381600087803b1580156114e157600080fd5b505af11580156114f5573d6000803e3d6000fd5b5050505083856001600160a01b03167fdf04e13ee4fcd48a81ab2fd114757093740a3efa9b6475d86e05878b4c59d079858585611530612e8d565b6040516115409493929190614c7b565b60405180910390a35050505050565b6001602052600090815260409020805461156890614a9e565b80601f016020809104026020016040519081016040528092919081815260200182805461159490614a9e565b80156115e15780601f106115b6576101008083540402835291602001916115e1565b820191906000526020600020905b8154815290600101906020018083116115c457829003601f168201915b505050505081565b6040516321d1336160e11b81526004810182905260009061163d906001600160a01b037f000000000000000000000000000000000000000000000000000000000000000016906343a266c2906024016111af565b610100015192915050565b6116548484600c6128df565b6040516321d1336160e11b8152600481018490526000907f00000000000000000000000000000000000000000000000000000000000000006001600160a01b0316906343a266c29060240161012060405180830381865afa1580156116bd573d6000803e3d6000fd5b505050506040513d601f19601f820116820180604052508101906116e191906149fa565b61010081015190915060451c6001908116036117105760405163063a016960e01b815260040160405180910390fd5b60405163b1e6d2a160e01b81526001600160a01b038681166004830152602482018690528481166044830152606482018490527f0000000000000000000000000000000000000000000000000000000000000000169063b1e6d2a190608401600060405180830381600087803b15801561178957600080fd5b505af115801561179d573d6000803e3d6000fd5b505050505050505050565b604051632d47589160e21b81526004810184905260248101839052604481018290526060906000906001600160a01b037f0000000000000000000000000000000000000000000000000000000000000000169063b51d624490606401600060405180830381865afa158015611821573d6000803e3d6000fd5b505050506040513d6000823e601f3d908101601f191682016040526118499190810190614cd1565b8051909150806001600160401b0381111561186657611866613f06565b60405190808252806020026020018201604052801561189f57816020015b61188c613d0b565b8152602001906001900390816118845790505b5092506118aa613c2a565b60005b82811015611913578381815181106118c7576118c7614d71565b6020026020010151915060405180604001604052808381526020016118eb84612e9c565b81525085828151811061190057611900614d71565b60209081029190910101526001016118ad565b505050509392505050565b611926613c2a565b61192e613c7f565b604051631735e2c560e11b8152600481018490527f00000000000000000000000000000000000000000000000000000000000000006001600160a01b031690632e6bc58a90602401610de0565b6040516331a9108f60e11b815260048101869052600090611a13906001600160a01b037f00000000000000000000000000000000000000000000000000000000000000001690636352211e90602401602060405180830381865afa1580156119e7573d6000803e3d6000fd5b505050506040513d601f19601f82011682018060405250810190611a0b919061491a565b8760026128df565b611a1e8686866129d6565b90507f24d02d612b06648bfa2000859f3de7e6f336139eaf5877c24b0d21320625286281878585611a4d612e8d565b604051611a5e959493929190614d87565b60405180910390a195945050505050565b611a77613c2a565b611a7f613c7f565b60405163855a54ed60e01b8152600481018490526000907f00000000000000000000000000000000000000000000000000000000000000006001600160a01b03169063855a54ed9060240161014060405180830381865afa158015611ae8573d6000803e3d6000fd5b505050506040513d601f19601f82011682018060405250810190611b0c9190614dc1565b9093509050611b1a83612e9c565b91509193909250565b6040516301ffc9a760e01b81526334ce2c7b60e21b60048201526001600160a01b038316906301ffc9a790602401602060405180830381865afa158015611b6e573d6000803e3d6000fd5b505050506040513d601f19601f82011682018060405250810190611b929190614a17565b8015611c3d5750816001600160a01b03167f00000000000000000000000000000000000000000000000000000000000000006001600160a01b0316635dd8f6aa836040518263ffffffff1660e01b8152600401611bf191815260200190565b602060405180830381865afa158015611c0e573d6000803e3d6000fd5b505050506040513d601f19601f82011682018060405250810190611c32919061491a565b6001600160a01b0316145b15611cca5760405163a312889b60e01b8152600481018290526001600160a01b0383169063a312889b90602401600060405180830381865afa158015611c87573d6000803e3d6000fd5b505050506040513d6000823e601f3d908101601f19168201604052611caf9190810190614df4565b600082815260016020526040902090611cc89082614e61565b505b5050565b600085600003611cf1576040516327f44f9560e21b815260040160405180910390fd5b6040516321d1336160e11b81526004810188905260009081906001600160a01b037f000000000000000000000000000000000000000000000000000000000000000016906343a266c29060240161012060405180830381865afa158015611d5c573d6000803e3d6000fd5b505050506040513d601f19601f82011682018060405250810190611d8091906149fa565b6040516331a9108f60e11b8152600481018b9052909150611f2d906001600160a01b037f00000000000000000000000000000000000000000000000000000000000000001690636352211e90602401602060405180830381865afa158015611dec573d6000803e3d6000fd5b505050506040513d601f19601f82011682018060405250810190611e10919061491a565b8a60097f00000000000000000000000000000000000000000000000000000000000000006001600160a01b0316636e49181f8e611e4b612e8d565b6040516001600160e01b031960e085901b16815260048101929092526001600160a01b03166024820152604401602060405180830381865afa158015611e95573d6000803e3d6000fd5b505050506040513d601f19601f82011682018060405250810190611eb99190614a17565b80611ee4575061010085015160501c6001600160a01b0316611ed9612e8d565b6001600160a01b0316145b8061145157506000611efb86610100015160501c90565b6001600160a01b031614158015611451575061010085015160501c6001600160a01b031663677ce0888e6113e3612e8d565b602081015115801590611f4c575061010081015160461c600190811614155b8015611ffb57507f00000000000000000000000000000000000000000000000000000000000000006001600160a01b0316636e49181f8a611f8b612e8d565b6040516001600160e01b031960e085901b16815260048101929092526001600160a01b03166024820152604401602060405180830381865afa158015611fd5573d6000803e3d6000fd5b505050506040513d601f19601f82011682018060405250810190611ff99190614a17565b155b8015612028575061010081015160501c6001600160a01b031661201c612e8d565b6001600160a01b031614155b80156120e05750600061204082610100015160501c90565b6001600160a01b031614806120e0575061010081015160501c6001600160a01b031663677ce0888a612070612e8d565b6040516001600160e01b031960e085901b16815260048101929092526001600160a01b03166024820152604401602060405180830381865afa1580156120ba573d6000803e3d6000fd5b505050506040513d601f19601f820116820180604052508101906120de9190614a17565b155b156120fe57604051633022e3df60e11b815260040160405180910390fd5b8361210a576000612118565b61010081015160041c61ffff165b915061271082146121c15761213b8861213384612710614f20565b612710612fd3565b60405163aab68bdb60e01b81529093506001600160a01b037f0000000000000000000000000000000000000000000000000000000000000000169063aab68bdb9061218e908a908d908890600401614c5a565b600060405180830381600087803b1580156121a857600080fd5b505af11580156121bc573d6000803e3d6000fd5b505050505b81156121f5576121d18389614f20565b60008a815260208190526040812080549091906121ef908490614a4a565b90915550505b88876001600160a01b03167fe6fee9c572244c0c2238c3112ac12d411750a7ee00eeebd32521c3e5a666c14b8a868a8a8861222e612e8d565b60405161224096959493929190614f33565b60405180910390a350509695505050505050565b6040516331a9108f60e11b8152600481018590526122e9907f00000000000000000000000000000000000000000000000000000000000000006001600160a01b031690636352211e90602401602060405180830381865afa1580156122bd573d6000803e3d6000fd5b505050506040513d601f19601f820116820180604052508101906122e1919061491a565b8560116128df565b604051636eaf90a560e11b81526001600160a01b037f0000000000000000000000000000000000000000000000000000000000000000169063dd5f214a90610bcb908790879087908790600401614f76565b6040516331a9108f60e11b8152600481018390526123d0907f00000000000000000000000000000000000000000000000000000000000000006001600160a01b031690636352211e90602401602060405180830381865afa1580156123a4573d6000803e3d6000fd5b505050506040513d601f19601f820116820180604052508101906123c8919061491a565b8360086128df565b6040516321d1336160e11b8152600481018390526000907f00000000000000000000000000000000000000000000000000000000000000006001600160a01b0316906343a266c29060240161012060405180830381865afa158015612439573d6000803e3d6000fd5b505050506040513d601f19601f8201168201806040525081019061245d91906149fa565b905080602001516000036124f857604051631735e2c560e11b8152600481018490527f00000000000000000000000000000000000000000000000000000000000000006001600160a01b031690632e6bc58a9060240161012060405180830381865afa1580156124d1573d6000803e3d6000fd5b505050506040513d601f19601f820116820180604052508101906124f591906149fa565b90505b61010081015160471c600190811614612524576040516345d4504960e11b815260040160405180910390fd5b60405163f12b64a560e01b8152600481018490526001600160a01b0383811660248301527f0000000000000000000000000000000000000000000000000000000000000000169063f12b64a590604401600060405180830381600087803b15801561258e57600080fd5b505af11580156107c4573d6000803e3d6000fd5b600081815260208190526040812054908190036125d2576040516318615bc360e31b815260040160405180910390fd5b6040516321d1336160e11b8152600481018390526000907f00000000000000000000000000000000000000000000000000000000000000006001600160a01b0316906343a266c29060240161012060405180830381865afa15801561263b573d6000803e3d6000fd5b505050506040513d601f19601f8201168201806040525081019061265f91906149fa565b600084815260208190526040808220829055516331a9108f60e11b815260048101869052919250907f00000000000000000000000000000000000000000000000000000000000000006001600160a01b031690636352211e90602401602060405180830381865afa1580156126d8573d6000803e3d6000fd5b505050506040513d601f19601f820116820180604052508101906126fc919061491a565b90506000831561271c576127178584602001516001876130b2565b61271f565b60005b905080156127aa5760405163aab68bdb60e01b81526001600160a01b037f0000000000000000000000000000000000000000000000000000000000000000169063aab68bdb9061277790859089908690600401614c5a565b600060405180830381600087803b15801561279157600080fd5b505af11580156127a5573d6000803e3d6000fd5b505050505b84836000015184602001517f32411cac611c47cfe73afc187645c9cf3aec828d5f91780138d8421378fc0edb8588866127e1612e8d565b604080516001600160a01b0395861681526020810194909452830191909152909116606082015260800160405180910390a4505050919050565b604080516001600160a01b038416602482015260448082018490528251808303909101815260649091019091526020810180516001600160e01b031663095ea7b360e01b17905261286c8482613807565b6128d9576040516001600160a01b038481166024830152600060448301526128cf91869182169063095ea7b3906064015b604051602081830303815290604052915060e01b6020820180516001600160e01b0383818316178352505050506138af565b6128d984826138af565b50505050565b60006128e9612e8d565b9050836001600160a01b0316816001600160a01b0316141580156129b85750604051631a45b42760e11b81526001600160a01b0382811660048301528581166024830152604482018590526064820184905260016084830181905260a48301527f0000000000000000000000000000000000000000000000000000000000000000169063348b684e9060c401602060405180830381865afa158015612992573d6000803e3d6000fd5b505050506040513d601f19601f820116820180604052508101906129b69190614a17565b155b156128d95760405163075fd2b160e01b815260040160405180910390fd5b6000816129e1613d30565b60005b82811015612cbd578585828181106129fe576129fe614d71565b9050602002810190612a1091906150cc565b612a1990615524565b91506127108260a00151600001511115612a4657604051635623289560e01b815260040160405180910390fd5b6127108260a00151602001511115612a7157604051639db9ee9360e01b815260040160405180910390fd5b60a08201516040015163ffffffff1015612a9e5760405163e83c625560e01b815260040160405180910390fd5b60007f00000000000000000000000000000000000000000000000000000000000000006001600160a01b03166370174dcc898560200151866040015187606001518860800151612af18a60a00151613912565b8a5160405160e089901b6001600160e01b031916815260048101979097526024870195909552604486019390935260648501919091526001600160a01b0316608484015260a483015260c482015260e401610120604051808303816000875af1158015612b62573d6000803e3d6000fd5b505050506040513d601f19601f82011682018060405250810190612b8691906149fa565b602081015160c0850151604051636eaf90a560e11b81529293506001600160a01b037f0000000000000000000000000000000000000000000000000000000000000000169263dd5f214a92612bdf928d92600401615626565b600060405180830381600087803b158015612bf957600080fd5b505af1158015612c0d573d6000803e3d6000fd5b505050602082015160e085015160405163971e467760e01b81526001600160a01b037f000000000000000000000000000000000000000000000000000000000000000016935063971e467792612c67928d92600401615728565b600060405180830381600087803b158015612c8157600080fd5b505af1158015612c95573d6000803e3d6000fd5b50505050600184612ca69190614f20565b8203612cb457806020015194505b506001016129e4565b5050509392505050565b806000816001600160401b03811115612ce257612ce2613f06565b604051908082528060200260200182016040528015612d0b578160200160208202803683370190505b5060408051808201909152600081526060602082015290915060005b83811015612dfd57858582818110612d4157612d41614d71565b9050602002810190612d5391906157ce565b612d5c906157e4565b8051602082015160405163263a91ff60e21b81529294506001600160a01b03909116916398ea47fc91612d94918b919060040161589b565b600060405180830381600087803b158015612dae57600080fd5b505af1158015612dc2573d6000803e3d6000fd5b505050508160000151838281518110612ddd57612ddd614d71565b6001600160a01b0390921660209283029190910190910152600101612d27565b508215612e855760405163104373fb60e31b81526001600160a01b037f0000000000000000000000000000000000000000000000000000000000000000169063821b9fd890612e52908990869060040161589b565b600060405180830381600087803b158015612e6c57600080fd5b505af1158015612e80573d6000803e3d6000fd5b505050505b505050505050565b6000612e97613a7a565b905090565b612ea4613c7f565b6040805161022081018252610100848101805160041c61ffff9081168452815160141c166020840152805160241c63ffffffff16938301939093528251600160449190911c811681146060840152835160451c811681146080840152835160461c8116811460a0840152835160471c8116811460c0840152835160481c8116811460e0840152835160491c81168114918301919091528251604a1c811681146101208301528251604b1c811681146101408301528251604c1c811681146101608301528251604d1c811681146101808301528251604e1c811681146101a08301528251604f1c8116146101c082015290516101e082019060501c6001600160a01b03168152602001612fbb84610100015160f01c90565b905292915050565b806128d9576128d98484846128df565b600080806000198587098587029250828110838203039150508060000361300d57838281613003576130036158f4565b04925050506130ab565b83811061304357604051630c740aef60e31b81526004810187905260248101869052604481018590526064015b60405180910390fd5b600084868809851960019081018716968790049682860381900495909211909303600082900391909104909201919091029190911760038402600290811880860282030280860282030280860282030280860282030280860282030280860290910302029150505b9392505050565b6040516369e11cc560e01b815260048101859052602481018490526044810183905281906000907f00000000000000000000000000000000000000000000000000000000000000006001600160a01b0316906369e11cc590606401600060405180830381865afa15801561312a573d6000803e3d6000fd5b505050506040513d6000823e601f3d908101601f19168201604052613152919081019061590a565b805190915060005b818110156137fc57600083828151811061317657613176614d71565b602002602001015190506000613195878360200151633b9aca00612fd3565b905080156137ad5760a08201516001600160a01b0316156133625760a082015160405163aab68bdb60e01b81526001600160a01b037f0000000000000000000000000000000000000000000000000000000000000000169163aab68bdb9161320491908e908690600401614c5a565b600060405180830381600087803b15801561321e57600080fd5b505af1158015613232573d6000803e3d6000fd5b505060405163ea78803f60e01b8152600481018d9052600092507f00000000000000000000000000000000000000000000000000000000000000006001600160a01b0316915063ea78803f90602401602060405180830381865afa15801561329e573d6000803e3d6000fd5b505050506040513d601f19601f820116820180604052508101906132c2919061491a565b90508260a001516001600160a01b03166312903a856040518060c00160405280846001600160a01b03168152602001858152602001601281526020018e81526020018c8152602001868152506040518263ffffffff1660e01b815260040161332a91906159f4565b600060405180830381600087803b15801561334457600080fd5b505af1158015613358573d6000803e3d6000fd5b50505050506137a0565b60608201516000906001600160a01b03166133845761337f612e8d565b61338a565b82606001515b9050826040015160001461371b5760405163ea78803f60e01b8152600481018c90526000907f00000000000000000000000000000000000000000000000000000000000000006001600160a01b03169063ea78803f90602401602060405180830381865afa158015613400573d6000803e3d6000fd5b505050506040513d601f19601f82011682018060405250810190613424919061491a565b905060006001600160a01b038216156134d3576040858101519051630862026560e41b815260048101919091526001600160a01b0383811660248301527f00000000000000000000000000000000000000000000000000000000000000001690638620265090604401602060405180830381865afa1580156134aa573d6000803e3d6000fd5b505050506040513d601f19601f820116820180604052508101906134ce919061491a565b6134d6565b60005b90506001600160a01b03821615806134f557506001600160a01b038116155b15613581577f00000000000000000000000000000000000000000000000000000000000000006001600160a01b031663aab68bdb848f876040518463ffffffff1660e01b815260040161354a93929190614c5a565b600060405180830381600087803b15801561356457600080fd5b505af1158015613578573d6000803e3d6000fd5b50505050613714565b7f00000000000000000000000000000000000000000000000000000000000000006001600160a01b031663aab68bdb308f876040518463ffffffff1660e01b81526004016135d193929190614c5a565b600060405180830381600087803b1580156135eb57600080fd5b505af11580156135ff573d6000803e3d6000fd5b5050505060008d60405160200161361891815260200190565b60408051601f1981840301815282825290880151630a1181ed60e01b83529092503091630a1181ed916136589186919088908b908b908990600401615a48565b600060405180830381600087803b15801561367257600080fd5b505af1925050508015613683575060015b613712573d8080156136b1576040519150601f19603f3d011682016040523d82523d6000602084013e6136b6565b606091505b506136cb6001600160a01b0385168688613aef565b8e7feb1c69f596057b3b93b14d290bc52c6ddc7b7fa47184a8be88a30c656eac83e88888846136f8612e8d565b6040516137089493929190615a96565b60405180910390a2505b505b505061379e565b60405163aab68bdb60e01b81526001600160a01b037f0000000000000000000000000000000000000000000000000000000000000000169063aab68bdb9061376b9084908f908790600401614c5a565b600060405180830381600087803b15801561378557600080fd5b505af1158015613799573d6000803e3d6000fd5b505050505b505b6137aa8187614f20565b95505b87898b7f5b9f38b2a849d80d4925a023ac038581d16642209624dc7b8353077d36a7682485856137db612e8d565b6040516137ea93929190615ad8565b60405180910390a4505060010161315a565b505050949350505050565b6000806000846001600160a01b0316846040516138249190615b06565b6000604051808303816000865af19150503d8060008114613861576040519150601f19603f3d011682016040523d82523d6000602084013e613866565b606091505b50915091508180156138905750805115806138905750808060200190518101906138909190614a17565b80156138a657506000856001600160a01b03163b115b95945050505050565b60006138c46001600160a01b03841683613b20565b905080516000141580156138e95750808060200190518101906138e79190614a17565b155b15611cc857604051635274afe760e01b81526001600160a01b038416600482015260240161303a565b805160208201516040830151606084015160249190911b60149290921b60049390931b9290921717600117901561394f5768100000000000000000175b8160800151156139655768200000000000000000175b8160a001511561397b5768400000000000000000175b8160c00151156139915768800000000000000000175b8160e00151156139a8576901000000000000000000175b816101000151156139c0576902000000000000000000175b816101200151156139d8576904000000000000000000175b816101400151156139f0576908000000000000000000175b81610160015115613a08576910000000000000000000175b81610180015115613a20576920000000000000000000175b816101a0015115613a38576940000000000000000000175b816101c0015115613a50576980000000000000000000175b6101e08201516102009092015160f01b600160501b600160f01b0360509390931b92909216171790565b6000366014336001600160a01b037f000000000000000000000000000000000000000000000000000000000000000016148015613ab75750808210155b15613ae757600036613ac98385614f20565b613ad4928290615b18565b613add91615b42565b60601c9250505090565b339250505090565b6040516001600160a01b03838116602483015260448201839052611cc891859182169063a9059cbb9060640161289d565b60606130ab8383600084600080856001600160a01b03168486604051613b469190615b06565b60006040518083038185875af1925050503d8060008114613b83576040519150601f19603f3d011682016040523d82523d6000602084013e613b88565b606091505b5091509150613b98868383613ba2565b9695505050505050565b606082613bb757613bb282613bfe565b6130ab565b8151158015613bce57506001600160a01b0384163b155b15613bf757604051639996b31560e01b81526001600160a01b038516600482015260240161303a565b50806130ab565b805115613c0e5780518082602001fd5b604051630a12f52160e11b815260040160405180910390fd5b50565b6040518061012001604052806000815260200160008152602001600081526020016000815260200160008152602001600081526020016000815260200160006001600160a01b03168152602001600081525090565b6040805161022081018252600080825260208201819052918101829052606081018290526080810182905260a0810182905260c0810182905260e08101829052610100810182905261012081018290526101408101829052610160810182905261018081018290526101a081018290526101c081018290526101e0810182905261020081019190915290565b6040518060400160405280613d1e613c2a565b8152602001613d2b613c7f565b905290565b6040518061010001604052806000815260200160008152602001600081526020016000815260200160006001600160a01b03168152602001613d70613c7f565b815260200160608152602001606081525090565b600060208284031215613d9657600080fd5b81356001600160e01b0319811681146130ab57600080fd5b600060208284031215613dc057600080fd5b5035919050565b6001600160a01b0381168114613c2757600080fd5b8035613de781613dc7565b919050565b60008083601f840112613dfe57600080fd5b5081356001600160401b03811115613e1557600080fd5b602083019150836020828501011115613e2d57600080fd5b9250929050565b600080600080600080600060c0888a031215613e4f57600080fd5b8735613e5a81613dc7565b9650602088013595506040880135613e7181613dc7565b9450606088013593506080880135613e8881613dc7565b925060a08801356001600160401b03811115613ea357600080fd5b613eaf8a828b01613dec565b989b979a50959850939692959293505050565b60008083601f840112613ed457600080fd5b5081356001600160401b03811115613eeb57600080fd5b6020830191508360208260051b8501011115613e2d57600080fd5b634e487b7160e01b600052604160045260246000fd5b60405161012081016001600160401b0381118282101715613f3f57613f3f613f06565b60405290565b60405161022081016001600160401b0381118282101715613f3f57613f3f613f06565b604080519081016001600160401b0381118282101715613f3f57613f3f613f06565b60405160c081016001600160401b0381118282101715613f3f57613f3f613f06565b604051608081016001600160401b0381118282101715613f3f57613f3f613f06565b60405161010081016001600160401b0381118282101715613f3f57613f3f613f06565b604051601f8201601f191681016001600160401b038111828210171561401957614019613f06565b604052919050565b60006001600160401b0382111561403a5761403a613f06565b50601f01601f191660200190565b600082601f83011261405957600080fd5b813561406c61406782614021565b613ff1565b81815284602083860101111561408157600080fd5b816020850160208301376000918101602001919091529392505050565b600080600080600080608087890312156140b757600080fd5b8635955060208701356001600160401b03808211156140d557600080fd5b6140e18a838b01613ec2565b909750955060408901359150808211156140fa57600080fd5b6141068a838b01613ec2565b9095509350606089013591508082111561411f57600080fd5b5061412c89828a01614048565b9150509295509295509295565b6000806040838503121561414c57600080fd5b50508035926020909101359150565b805182526020808201519083015260408082015190830152606080820151908301526080808201519083015260a0808201519083015260c0808201519083015260e0808201516001600160a01b03169083015261010090810151910152565b80518252602081015160208301526040810151604083015260608101516141e5606084018215159052565b5060808101516141f9608084018215159052565b5060a081015161420d60a084018215159052565b5060c081015161422160c084018215159052565b5060e081015161423560e084018215159052565b5061010081810151151590830152610120808201511515908301526101408082015115159083015261016080820151151590830152610180808201511515908301526101a0808201511515908301526101c0808201511515908301526101e0808201516001600160a01b03169083015261020090810151910152565b61034081016142c0828561415b565b6130ab6101208301846141ba565b600080600080608085870312156142e457600080fd5b84356142ef81613dc7565b93506020850135925060408501359150606085013561430d81613dc7565b939692955090935050565b6000806040838503121561432b57600080fd5b82359150602083013561433d81613dc7565b809150509250929050565b60006020828403121561435a57600080fd5b81356130ab81613dc7565b6000806000806000806080878903121561437e57600080fd5b8635955060208701356001600160401b038082111561439c57600080fd5b6143a88a838b01613dec565b909750955060408901359150808211156143c157600080fd5b506143ce89828a01613dec565b979a9699509497949695606090950135949350505050565b6000806000604084860312156143fb57600080fd5b8335925060208401356001600160401b0381111561441857600080fd5b61442486828701613dec565b9497909650939450505050565b60008060008060008060008060a0898b03121561444d57600080fd5b883561445881613dc7565b975060208901356001600160401b038082111561447457600080fd5b6144808c838d01613dec565b909950975060408b013591508082111561449957600080fd5b6144a58c838d01613ec2565b909750955060608b01359150808211156144be57600080fd5b6144ca8c838d01613ec2565b909550935060808b01359150808211156144e357600080fd5b506144f08b828c01614048565b9150509295985092959890939650565b60008060008060006080868803121561451857600080fd5b853561452381613dc7565b9450602086013593506040860135925060608601356001600160401b0381111561454c57600080fd5b61455888828901613dec565b969995985093965092949392505050565b60005b8381101561458457818101518382015260200161456c565b50506000910152565b600081518084526145a5816020860160208601614569565b601f01601f19169290920160200192915050565b6020815260006130ab602083018461458d565b600080600080608085870312156145e257600080fd5b84356145ed81613dc7565b935060208501359250604085013561460481613dc7565b9396929550929360600135925050565b60008060006060848603121561462957600080fd5b505081359360208301359350604090920135919050565b6020808252825182820181905260009190848201906040850190845b8181101561469757835161467184825161415b565b8501516146826101208501826141ba565b5092840192610340929092019160010161465c565b50909695505050505050565b6000806000806000606086880312156146bb57600080fd5b8535945060208601356001600160401b03808211156146d957600080fd5b6146e589838a01613ec2565b909650945060408801359150808211156146fe57600080fd5b5061455888828901613dec565b610360810161471a828661415b565b6147286101208301856141ba565b6006831061474657634e487b7160e01b600052602160045260246000fd5b82610340830152949350505050565b6000806040838503121561476857600080fd5b823561477381613dc7565b946020939093013593505050565b8015158114613c2757600080fd5b8035613de781614781565b60008060008060008060a087890312156147b357600080fd5b863595506020870135945060408701356147cc81613dc7565b935060608701356001600160401b038111156147e757600080fd5b6147f389828a01613dec565b909450925050608087013561480781614781565b809150509295509295509295565b6000806000806060858703121561482b57600080fd5b843593506020850135925060408501356001600160401b0381111561484f57600080fd5b61485b87828801613ec2565b95989497509550505050565b81835281816020850137506000828201602090810191909152601f909101601f19169091010190565b878152600060018060a01b03808916602084015287604084015280871660608401525084608083015260e060a0830152600060e08301526101008060c08401526148dd8184018587614867565b9a9950505050505050505050565b6000602082840312156148fd57600080fd5b5051919050565b634e487b7160e01b600052600160045260246000fd5b60006020828403121561492c57600080fd5b81516130ab81613dc7565b848152836020820152608060408201526000614956608083018561458d565b905060018060a01b038316606083015295945050505050565b8051613de781613dc7565b6000610120828403121561498d57600080fd5b614995613f1c565b9050815181526020820151602082015260408201516040820152606082015160608201526080820151608082015260a082015160a082015260c082015160c08201526149e360e0830161496f565b60e082015261010080830151818301525092915050565b60006101208284031215614a0d57600080fd5b6130ab838361497a565b600060208284031215614a2957600080fd5b81516130ab81614781565b634e487b7160e01b600052601160045260246000fd5b8082018082111561069957610699614a34565b868152608060208201526000614a77608083018789614867565b8281036040840152614a8a818688614867565b915050826060830152979650505050505050565b600181811c90821680614ab257607f821691505b602082108103614ad257634e487b7160e01b600052602260045260246000fd5b50919050565b601f821115611cc8576000816000526020600020601f850160051c81016020861015614b015750805b601f850160051c820191505b81811015612e8557828155600101614b0d565b6001600160401b03831115614b3757614b37613f06565b614b4b83614b458354614a9e565b83614ad8565b6000601f841160018114614b7f5760008515614b675750838201355b600019600387901b1c1916600186901b178355614bd9565b600083815260209020601f19861690835b82811015614bb05786850135825560209485019460019092019101614b90565b5086821015614bcd5760001960f88860031b161c19848701351681555b505060018560011b0183555b5050505050565b604081526000614bf4604083018587614867565b905060018060a01b0383166020830152949350505050565b86815285602082015260a060408201526000614c2c60a083018688614867565b8281036060840152614c3e818661458d565b91505060018060a01b0383166080830152979650505050505050565b6001600160a01b039390931683526020830191909152604082015260600190565b848152606060208201526000614c95606083018587614867565b905060018060a01b038316604083015295945050505050565b60006001600160401b03821115614cc757614cc7613f06565b5060051b60200190565b60006020808385031215614ce457600080fd5b82516001600160401b03811115614cfa57600080fd5b8301601f81018513614d0b57600080fd5b8051614d1961406782614cae565b808282526020820191506101206020818502860101935088841115614d3d57600080fd5b6020850194505b83851015614d6557614d56898661497a565b83529384019391850191614d44565b50979650505050505050565b634e487b7160e01b600052603260045260246000fd5b858152846020820152608060408201526000614da7608083018587614867565b905060018060a01b03831660608301529695505050505050565b6000806101408385031215614dd557600080fd5b614ddf848461497a565b91506101208301516006811061433d57600080fd5b600060208284031215614e0657600080fd5b81516001600160401b03811115614e1c57600080fd5b8201601f81018413614e2d57600080fd5b8051614e3b61406782614021565b818152856020838501011115614e5057600080fd5b6138a6826020830160208601614569565b81516001600160401b03811115614e7a57614e7a613f06565b614e8e81614e888454614a9e565b84614ad8565b602080601f831160018114614ec35760008415614eab5750858301515b600019600386901b1c1916600185901b178555612e85565b600085815260208120601f198616915b82811015614ef257888601518255948401946001909101908401614ed3565b5085821015614f105787850151600019600388901b60f8161c191681555b5050505050600190811b01905550565b8181038181111561069957610699614a34565b86815285602082015260a060408201526000614f5360a083018688614867565b6060830194909452506001600160a01b0391909116608090910152949350505050565b6000606080830187845260208781860152604060606040870152828784526080935060808701905060808860051b8801018960005b8a8110156150ba57898303607f190184528135368d9003603e19018112614fd157600080fd5b8c01803584528386018782013536839003601e19018112614ff157600080fd5b9091018781019190356001600160401b0381111561500e57600080fd5b60c0808202360384131561502157600080fd5b868a01899052918190526000918b87015b828410156150a457843561504581614781565b15158152848b01358b820152898501358a8201528c85013561506681613dc7565b6001600160a01b03908116828f0152858d01358d83015260a0908682013561508d81613dc7565b169082015293810193600193909301928101615032565b978a019796505050928701925050600101614fab565b50909c9b505050505050505050505050565b600082356102fe198336030181126150e357600080fd5b9190910192915050565b6000610220828403121561510057600080fd5b615108613f45565b905081358152602082013560208201526040820135604082015261512e6060830161478f565b606082015261513f6080830161478f565b608082015261515060a0830161478f565b60a082015261516160c0830161478f565b60c082015261517260e0830161478f565b60e082015261010061518581840161478f565b9082015261012061519783820161478f565b908201526101406151a983820161478f565b908201526101606151bb83820161478f565b908201526101806151cd83820161478f565b908201526101a06151df83820161478f565b908201526101c06151f183820161478f565b908201526101e0615203838201613ddc565b818301525061020080830135818301525092915050565b600082601f83011261522b57600080fd5b8135602061523b61406783614cae565b82815260059290921b8401810191818101908684111561525a57600080fd5b8286015b848110156153935780356001600160401b038082111561527d57600080fd5b908801906040828b03601f190181131561529657600080fd5b61529e613f68565b87840135815281840135838111156152b557600080fd5b8085019450508b603f8501126152ca57600080fd5b8784013592506152dc61406784614cae565b83815260c09093028401820192888101908d8511156152fa57600080fd5b948301945b8486101561537e5760c0868f03121561531757600080fd5b61531f613f8a565b863561532a81614781565b8152868b01358b8201528487013585820152606087013561534a81613dc7565b60608201526080878101359082015260a087013561536781613dc7565b60a0820152825260c09590950194908901906152ff565b828a015250865250505091830191830161525e565b509695505050505050565b600082601f8301126153af57600080fd5b813560206153bf61406783614cae565b82815260069290921b840181019181810190868411156153de57600080fd5b8286015b8481101561539357604081890312156153fb5760008081fd5b615403613f68565b8135815284820135858201528352918301916040016153e2565b600082601f83011261542e57600080fd5b8135602061543e61406783614cae565b82815260059290921b8401810191818101908684111561545d57600080fd5b8286015b848110156153935780356001600160401b03808211156154815760008081fd5b908801906080828b03601f190181131561549b5760008081fd5b6154a3613fac565b878401356154b081613dc7565b81526040848101356154c181613dc7565b828a0152606085810135858111156154d95760008081fd5b6154e78f8c838a010161539e565b848401525092850135928484111561550157600091508182fd5b61550f8e8b8689010161539e565b90830152508652505050918301918301615461565b6000610300823603121561553757600080fd5b61553f613fce565b8235815260208301356020820152604083013560408201526060830135606082015261556d60808401613ddc565b608082015261557f3660a085016150ed565b60a08201526102c08301356001600160401b038082111561559f57600080fd5b6155ab3683870161521a565b60c08401526102e08501359150808211156155c557600080fd5b506155d23682860161541d565b60e08301525092915050565b80511515825260208082015190830152604080820151908301526060808201516001600160a01b03908116918401919091526080808301519084015260a09182015116910152565b600060608083018684526020868186015260406060604087015282875180855260808801915060808160051b89010194508389016000805b838110156156cf578a8803607f190185528251805189528701518789018790528051878a018190529088019083908b8b01905b808310156156ba576156a48285516155de565b60c0820191508a84019350600183019250615691565b5099505050938601939186019160010161565e565b50959c9b505050505050505050505050565b60008151808452602080850194506020840160005b8381101561571d5781518051885283015183880152604090960195908201906001016156f6565b509495945050505050565b60006060808301868452602086818601526040606060408701528287518085526080945060808801915060808160051b890101848a0160005b838110156150ba578a8303607f19018552815180516001600160a01b039081168552888201511688850152868101518785018a90526157a28a8601826156e1565b918b0151858303868d01529190506157ba81836156e1565b968901969450505090860190600101615761565b60008235603e198336030181126150e357600080fd5b6000604082360312156157f657600080fd5b6157fe613f68565b823561580981613dc7565b81526020838101356001600160401b0381111561582557600080fd5b840136601f82011261583657600080fd5b803561584461406782614cae565b81815260059190911b8201830190838101903683111561586357600080fd5b928401925b8284101561588a57833561587b81613dc7565b82529284019290840190615868565b938501939093525091949350505050565b60006040820184835260206040602085015281855180845260608601915060208701935060005b818110156158e75784516001600160a01b0316835293830193918301916001016158c2565b5090979650505050505050565b634e487b7160e01b600052601260045260246000fd5b6000602080838503121561591d57600080fd5b82516001600160401b0381111561593357600080fd5b8301601f8101851361594457600080fd5b805161595261406782614cae565b81815260c0918202830184019184820191908884111561597157600080fd5b938501935b83851015614d655780858a03121561598e5760008081fd5b615996613f8a565b85516159a181614781565b81528587015187820152604080870151908201526060808701516159c481613dc7565b908201526080868101519082015260a0808701516159e181613dc7565b9082015283529384019391850191615976565b81516001600160a01b031681526020808301519082015260408083015190820152606080830151908201526080808301519082015260a082810151610160830191615a41908401826155de565b5092915050565b6001600160a01b038781168252602082018790528581166040830152606082018590528316608082015260c060a08201819052600090615a8a9083018461458d565b98975050505050505050565b6000610120615aa583886155de565b8560c08401528060e0840152615abd8184018661458d565b91505060018060a01b03831661010083015295945050505050565b6101008101615ae782866155de565b60c08201939093526001600160a01b039190911660e090910152919050565b600082516150e3818460208701614569565b60008085851115615b2857600080fd5b83861115615b3557600080fd5b5050820193919092039150565b6bffffffffffffffffffffffff198135818116916014851015615b6f5780818660140360031b1b83161692505b50509291505056fea26469706673582212201fc3f7d9c8002205fad2c25b683b3bd7874d9c5c24f88e51ef6cbef873b5741b64736f6c63430008170033",
	"deployedBytecode": "0x608060405234801561001057600080fd5b50600436106102115760003560e01c806388bc2ef311610125578063c0512031116100ad578063d4a1b4b11161007c578063d4a1b4b114610561578063dd5f214a14610588578063f12b64a51461059b578063f434c914146105ae578063ffa08244146105d557600080fd5b8063c051203114610506578063c1ec61ee14610519578063c5b19b0e1461053b578063c7fb92de1461054e57600080fd5b8063a312889b116100f4578063a312889b1461048d578063b1a50e33146104ad578063b1e6d2a1146104c0578063b51d6244146104d3578063c02c63ad146104f357600080fd5b806388bc2ef31461042d57806399d25a34146104545780639e14fb8014610467578063a2d532e61461047a57600080fd5b8063303f5dfa116101a85780634da781a9116101775780634da781a91461038e578063572b6c05146103a157806358178191146103e1578063702a3977146103f45780637da0a8771461040757600080fd5b8063303f5dfa146103355780633997557114610348578063405b84fa14610368578063419296261461037b57600080fd5b80631f47ce69116101e45780631f47ce69146102b357806321df42e8146102da57806325a61d5c146102ed578063293c49991461030e57600080fd5b806301ffc9a714610216578063090db2f11461023e5780630a1181ed1461025f5780631d831d5c14610274575b600080fd5b610229610224366004613d84565b6105fc565b60405190151581526020015b60405180910390f35b61025161024c366004613dae565b61069f565b604051908152602001610235565b61027261026d366004613e34565b6106aa565b005b61029b7f0000000000000000000000004ab442694fba157eae62bca398a4a3dc2e36dccd81565b6040516001600160a01b039091168152602001610235565b61029b7f00000000000000000000000020d892d9296a4d69e94c202f5c41a299da72b11781565b6102516102e836600461409e565b6107cd565b6103006102fb366004614139565b610aaa565b6040516102359291906142b1565b61029b7f0000000000000000000000000dd4c75a29147a662656535808b033abc568e33b81565b6102726103433660046142ce565b610b5f565b610251610356366004613dae565b60006020819052908152604090205481565b610272610376366004614318565b610c03565b610300610389366004613dae565b610d87565b61025161039c366004613dae565b610e34565b6102296103af366004614348565b7f000000000000000000000000b2b5841dbef766d4b521221732f9b618fcf34a876001600160a01b0390811691161490565b61029b6103ef366004614365565b610ed6565b6102726104023660046143e6565b611068565b7f000000000000000000000000b2b5841dbef766d4b521221732f9b618fcf34a8761029b565b61029b7f000000000000000000000000317e962828ddbb27576f6f0ca89adc3cd56ed8cc81565b610229610462366004613dae565b61115f565b610251610475366004614431565b611201565b610272610488366004614500565b6113a4565b6104a061049b366004613dae565b61154f565b60405161023591906145b9565b6102296104bb366004613dae565b6115e9565b6102726104ce3660046145cc565b611648565b6104e66104e1366004614614565b6117a8565b6040516102359190614640565b610300610501366004613dae565b61191e565b6102516105143660046146a3565b61197b565b61052c610527366004613dae565b611a6f565b6040516102359392919061470b565b610272610549366004614755565b611b23565b61025161055c36600461479a565b611cce565b61029b7f0000000000000000000000008e4b8f9eaf7dd02f87e30d4f0a4a5f06d1553e2c81565b610272610596366004614815565b612254565b6102726105a9366004614318565b61233b565b61029b7f0000000000000000000000004475b99b2f6f06c5048fe8c3839dfe2e5d744e6581565b61029b7f000000000000000000000000f9fa80220977aa898ba2f129e58f139b03abeee681565b60006001600160e01b0319821663c08efc5760e01b148061062d57506001600160e01b031982166334ce2c7b60e21b145b8061064857506001600160e01b03198216632877540760e01b145b8061066357506001600160e01b0319821663217a87fd60e21b145b8061067e57506001600160e01b03198216633d0d324560e21b145b8061069957506001600160e01b031982166301ffc9a760e01b145b92915050565b6000610699826125a2565b3330146106b657600080fd5b6106ca6001600160a01b038616888661281b565b60405163fef4325760e01b81526001600160a01b0388169063fef43257906107039089908990899089906000908a908a90600401614890565b6020604051808303816000875af1158015610722573d6000803e3d6000fd5b505050506040513d601f19601f8201168201806040525081019061074691906148eb565b50604051636eb1769f60e11b81523060048201526001600160a01b03888116602483015286169063dd62ed3e90604401602060405180830381865afa158015610793573d6000803e3d6000fd5b505050506040513d601f19601f820116820180604052508101906107b791906148eb565b156107c4576107c4614904565b50505050505050565b60008481036107ef57604051631ec6004f60e01b815260040160405180910390fd5b6040516331a9108f60e11b815260048101889052610884907f0000000000000000000000000dd4c75a29147a662656535808b033abc568e33b6001600160a01b031690636352211e90602401602060405180830381865afa158015610858573d6000803e3d6000fd5b505050506040513d601f19601f8201168201806040525081019061087c919061491a565b8860026128df565b6040516331a9108f60e11b815260048101889052610919907f0000000000000000000000000dd4c75a29147a662656535808b033abc568e33b6001600160a01b031690636352211e90602401602060405180830381865afa1580156108ed573d6000803e3d6000fd5b505050506040513d601f19601f82011682018060405250810190610911919061491a565b88600e6128df565b6040516319fade8560e11b8152600481018890526000907f0000000000000000000000008e4b8f9eaf7dd02f87e30d4f0a4a5f06d1553e2c6001600160a01b0316906333f5bd0a90602401602060405180830381865afa158015610981573d6000803e3d6000fd5b505050506040513d601f19601f820116820180604052508101906109a591906148eb565b11156109c457604051639115381560e01b815260040160405180910390fd5b6040516338a73f9960e11b8152600481018890523060248201527f000000000000000000000000317e962828ddbb27576f6f0ca89adc3cd56ed8cc6001600160a01b03169063714e7f3290604401600060405180830381600087803b158015610a2c57600080fd5b505af1158015610a40573d6000803e3d6000fd5b50505050610a4f8787876129d6565b9050610a5c878585612cc7565b7f23164adda696b19106c2eef50ba44461997682bf5aeb9fdb383117fa9952cc75818884610a88612e8d565b604051610a989493929190614937565b60405180910390a19695505050505050565b610ab2613c2a565b610aba613c7f565b604051630969875760e21b815260048101859052602481018490527f0000000000000000000000008e4b8f9eaf7dd02f87e30d4f0a4a5f06d1553e2c6001600160a01b0316906325a61d5c9060440161012060405180830381865afa158015610b27573d6000803e3d6000fd5b505050506040513d601f19601f82011682018060405250810190610b4b91906149fa565b9150610b5682612e9c565b90509250929050565b610b6b8484600b6128df565b60405163181faefd60e11b81526001600160a01b038581166004830152602482018590526044820184905282811660648301527f0000000000000000000000004ab442694fba157eae62bca398a4a3dc2e36dccd169063303f5dfa906084015b600060405180830381600087803b158015610be557600080fd5b505af1158015610bf9573d6000803e3d6000fd5b5050505050505050565b336001600160a01b037f000000000000000000000000317e962828ddbb27576f6f0ca89adc3cd56ed8cc1614610c4c5760405163075fd2b160e01b815260040160405180910390fd5b60008281526020819052604090205415610c6b57610c69826125a2565b505b6040516301ffc9a760e01b815263217a87fd60e21b60048201526001600160a01b038216906301ffc9a790602401602060405180830381865afa158015610cb6573d6000803e3d6000fd5b505050506040513d601f19601f82011682018060405250810190610cda9190614a17565b15610d40576040516362d8cd8760e11b8152306004820152602481018390526001600160a01b0382169063c5b19b0e90604401600060405180830381600087803b158015610d2757600080fd5b505af1158015610d3b573d6000803e3d6000fd5b505050505b604080516001600160a01b038316815233602082015283917f01f954abace731a88ab86e71186040cc2be49fe517ea06bc0d24f25b82b83456910160405180910390a25050565b610d8f613c2a565b610d97613c7f565b6040516321d1336160e11b8152600481018490527f0000000000000000000000008e4b8f9eaf7dd02f87e30d4f0a4a5f06d1553e2c6001600160a01b0316906343a266c2906024015b61012060405180830381865afa158015610dfe573d6000803e3d6000fd5b505050506040513d601f19601f82011682018060405250810190610e2291906149fa565b9150610e2d82612e9c565b9050915091565b6000818152602081905260408082205490516375b0d9cd60e01b8152600481018490527f0000000000000000000000004ab442694fba157eae62bca398a4a3dc2e36dccd6001600160a01b0316906375b0d9cd90602401602060405180830381865afa158015610ea8573d6000803e3d6000fd5b505050506040513d601f19601f82011682018060405250810190610ecc91906148eb565b6106999190614a4a565b6040516331a9108f60e11b815260048101879052600090610f6e906001600160a01b037f0000000000000000000000000dd4c75a29147a662656535808b033abc568e33b1690636352211e90602401602060405180830381865afa158015610f42573d6000803e3d6000fd5b505050506040513d601f19601f82011682018060405250810190610f66919061491a565b8860076128df565b8115610fc457610f7c612e8d565b82604051602001610fab92919060609290921b6bffffffffffffffffffffffff19168252601482015260340190565b6040516020818303038152906040528051906020012091505b604051635817819160e01b81526001600160a01b037f0000000000000000000000004ab442694fba157eae62bca398a4a3dc2e36dccd169063581781919061101a908a908a908a908a908a908a90600401614a5d565b6020604051808303816000875af1158015611039573d6000803e3d6000fd5b505050506040513d601f19601f8201168201806040525081019061105d919061491a565b979650505050505050565b6040516331a9108f60e11b8152600481018490526110fd907f0000000000000000000000000dd4c75a29147a662656535808b033abc568e33b6001600160a01b031690636352211e90602401602060405180830381865afa1580156110d1573d6000803e3d6000fd5b505050506040513d601f19601f820116820180604052508101906110f5919061491a565b8460066128df565b6000838152600160205260409020611116828483614b20565b50827f76f445b3718cf71aa0c056105beab456eba31f72f5cc5a60fde060fd14ea16848383611143612e8d565b60405161115293929190614be0565b60405180910390a2505050565b6040516321d1336160e11b8152600481018290526000906111f6906001600160a01b037f0000000000000000000000008e4b8f9eaf7dd02f87e30d4f0a4a5f06d1553e2c16906343a266c2906024015b61012060405180830381865afa1580156111cd573d6000803e3d6000fd5b505050506040513d601f19601f820116820180604052508101906111f191906149fa565b612e9c565b610120015192915050565b60405163180e2b1160e31b81526001600160a01b0389811660048301526000917f0000000000000000000000000dd4c75a29147a662656535808b033abc568e33b9091169063c0715888906024016020604051808303816000875af115801561126e573d6000803e3d6000fd5b505050506040513d601f19601f8201168201806040525081019061129291906148eb565b905086156112b55760008181526001602052604090206112b3888a83614b20565b505b6040516338a73f9960e11b8152600481018290523060248201527f000000000000000000000000317e962828ddbb27576f6f0ca89adc3cd56ed8cc6001600160a01b03169063714e7f3290604401600060405180830381600087803b15801561131d57600080fd5b505af1158015611331573d6000803e3d6000fd5b5050505060006113428288886129d6565b905061134f828686612cc7565b7f8dac501f24f52bda9ebdfa6a1789878c1d1e23823c771f7d52b5ba41261b0f4581838b8b8761137d612e8d565b60405161138f96959493929190614c0c565b60405180910390a15098975050505050505050565b6114568585600a7f000000000000000000000000317e962828ddbb27576f6f0ca89adc3cd56ed8cc6001600160a01b0316636e49181f896113e3612e8d565b6040516001600160e01b031960e085901b16815260048101929092526001600160a01b03166024820152604401602060405180830381865afa15801561142d573d6000803e3d6000fd5b505050506040513d601f19601f820116820180604052508101906114519190614a17565b612fc3565b8260000361147757604051637b38547b60e01b815260040160405180910390fd5b60405163124d91e560e01b81526001600160a01b037f0000000000000000000000004ab442694fba157eae62bca398a4a3dc2e36dccd169063124d91e5906114c790889088908890600401614c5a565b600060405180830381600087803b1580156114e157600080fd5b505af11580156114f5573d6000803e3d6000fd5b5050505083856001600160a01b03167fdf04e13ee4fcd48a81ab2fd114757093740a3efa9b6475d86e05878b4c59d079858585611530612e8d565b6040516115409493929190614c7b565b60405180910390a35050505050565b6001602052600090815260409020805461156890614a9e565b80601f016020809104026020016040519081016040528092919081815260200182805461159490614a9e565b80156115e15780601f106115b6576101008083540402835291602001916115e1565b820191906000526020600020905b8154815290600101906020018083116115c457829003601f168201915b505050505081565b6040516321d1336160e11b81526004810182905260009061163d906001600160a01b037f0000000000000000000000008e4b8f9eaf7dd02f87e30d4f0a4a5f06d1553e2c16906343a266c2906024016111af565b610100015192915050565b6116548484600c6128df565b6040516321d1336160e11b8152600481018490526000907f0000000000000000000000008e4b8f9eaf7dd02f87e30d4f0a4a5f06d1553e2c6001600160a01b0316906343a266c29060240161012060405180830381865afa1580156116bd573d6000803e3d6000fd5b505050506040513d601f19601f820116820180604052508101906116e191906149fa565b61010081015190915060451c6001908116036117105760405163063a016960e01b815260040160405180910390fd5b60405163b1e6d2a160e01b81526001600160a01b038681166004830152602482018690528481166044830152606482018490527f0000000000000000000000004ab442694fba157eae62bca398a4a3dc2e36dccd169063b1e6d2a190608401600060405180830381600087803b15801561178957600080fd5b505af115801561179d573d6000803e3d6000fd5b505050505050505050565b604051632d47589160e21b81526004810184905260248101839052604481018290526060906000906001600160a01b037f0000000000000000000000008e4b8f9eaf7dd02f87e30d4f0a4a5f06d1553e2c169063b51d624490606401600060405180830381865afa158015611821573d6000803e3d6000fd5b505050506040513d6000823e601f3d908101601f191682016040526118499190810190614cd1565b8051909150806001600160401b0381111561186657611866613f06565b60405190808252806020026020018201604052801561189f57816020015b61188c613d0b565b8152602001906001900390816118845790505b5092506118aa613c2a565b60005b82811015611913578381815181106118c7576118c7614d71565b6020026020010151915060405180604001604052808381526020016118eb84612e9c565b81525085828151811061190057611900614d71565b60209081029190910101526001016118ad565b505050509392505050565b611926613c2a565b61192e613c7f565b604051631735e2c560e11b8152600481018490527f0000000000000000000000008e4b8f9eaf7dd02f87e30d4f0a4a5f06d1553e2c6001600160a01b031690632e6bc58a90602401610de0565b6040516331a9108f60e11b815260048101869052600090611a13906001600160a01b037f0000000000000000000000000dd4c75a29147a662656535808b033abc568e33b1690636352211e90602401602060405180830381865afa1580156119e7573d6000803e3d6000fd5b505050506040513d601f19601f82011682018060405250810190611a0b919061491a565b8760026128df565b611a1e8686866129d6565b90507f24d02d612b06648bfa2000859f3de7e6f336139eaf5877c24b0d21320625286281878585611a4d612e8d565b604051611a5e959493929190614d87565b60405180910390a195945050505050565b611a77613c2a565b611a7f613c7f565b60405163855a54ed60e01b8152600481018490526000907f0000000000000000000000008e4b8f9eaf7dd02f87e30d4f0a4a5f06d1553e2c6001600160a01b03169063855a54ed9060240161014060405180830381865afa158015611ae8573d6000803e3d6000fd5b505050506040513d601f19601f82011682018060405250810190611b0c9190614dc1565b9093509050611b1a83612e9c565b91509193909250565b6040516301ffc9a760e01b81526334ce2c7b60e21b60048201526001600160a01b038316906301ffc9a790602401602060405180830381865afa158015611b6e573d6000803e3d6000fd5b505050506040513d601f19601f82011682018060405250810190611b929190614a17565b8015611c3d5750816001600160a01b03167f000000000000000000000000317e962828ddbb27576f6f0ca89adc3cd56ed8cc6001600160a01b0316635dd8f6aa836040518263ffffffff1660e01b8152600401611bf191815260200190565b602060405180830381865afa158015611c0e573d6000803e3d6000fd5b505050506040513d601f19601f82011682018060405250810190611c32919061491a565b6001600160a01b0316145b15611cca5760405163a312889b60e01b8152600481018290526001600160a01b0383169063a312889b90602401600060405180830381865afa158015611c87573d6000803e3d6000fd5b505050506040513d6000823e601f3d908101601f19168201604052611caf9190810190614df4565b600082815260016020526040902090611cc89082614e61565b505b5050565b600085600003611cf1576040516327f44f9560e21b815260040160405180910390fd5b6040516321d1336160e11b81526004810188905260009081906001600160a01b037f0000000000000000000000008e4b8f9eaf7dd02f87e30d4f0a4a5f06d1553e2c16906343a266c29060240161012060405180830381865afa158015611d5c573d6000803e3d6000fd5b505050506040513d601f19601f82011682018060405250810190611d8091906149fa565b6040516331a9108f60e11b8152600481018b9052909150611f2d906001600160a01b037f0000000000000000000000000dd4c75a29147a662656535808b033abc568e33b1690636352211e90602401602060405180830381865afa158015611dec573d6000803e3d6000fd5b505050506040513d601f19601f82011682018060405250810190611e10919061491a565b8a60097f000000000000000000000000317e962828ddbb27576f6f0ca89adc3cd56ed8cc6001600160a01b0316636e49181f8e611e4b612e8d565b6040516001600160e01b031960e085901b16815260048101929092526001600160a01b03166024820152604401602060405180830381865afa158015611e95573d6000803e3d6000fd5b505050506040513d601f19601f82011682018060405250810190611eb99190614a17565b80611ee4575061010085015160501c6001600160a01b0316611ed9612e8d565b6001600160a01b0316145b8061145157506000611efb86610100015160501c90565b6001600160a01b031614158015611451575061010085015160501c6001600160a01b031663677ce0888e6113e3612e8d565b602081015115801590611f4c575061010081015160461c600190811614155b8015611ffb57507f000000000000000000000000317e962828ddbb27576f6f0ca89adc3cd56ed8cc6001600160a01b0316636e49181f8a611f8b612e8d565b6040516001600160e01b031960e085901b16815260048101929092526001600160a01b03166024820152604401602060405180830381865afa158015611fd5573d6000803e3d6000fd5b505050506040513d601f19601f82011682018060405250810190611ff99190614a17565b155b8015612028575061010081015160501c6001600160a01b031661201c612e8d565b6001600160a01b031614155b80156120e05750600061204082610100015160501c90565b6001600160a01b031614806120e0575061010081015160501c6001600160a01b031663677ce0888a612070612e8d565b6040516001600160e01b031960e085901b16815260048101929092526001600160a01b03166024820152604401602060405180830381865afa1580156120ba573d6000803e3d6000fd5b505050506040513d601f19601f820116820180604052508101906120de9190614a17565b155b156120fe57604051633022e3df60e11b815260040160405180910390fd5b8361210a576000612118565b61010081015160041c61ffff165b915061271082146121c15761213b8861213384612710614f20565b612710612fd3565b60405163aab68bdb60e01b81529093506001600160a01b037f0000000000000000000000004ab442694fba157eae62bca398a4a3dc2e36dccd169063aab68bdb9061218e908a908d908890600401614c5a565b600060405180830381600087803b1580156121a857600080fd5b505af11580156121bc573d6000803e3d6000fd5b505050505b81156121f5576121d18389614f20565b60008a815260208190526040812080549091906121ef908490614a4a565b90915550505b88876001600160a01b03167fe6fee9c572244c0c2238c3112ac12d411750a7ee00eeebd32521c3e5a666c14b8a868a8a8861222e612e8d565b60405161224096959493929190614f33565b60405180910390a350509695505050505050565b6040516331a9108f60e11b8152600481018590526122e9907f0000000000000000000000000dd4c75a29147a662656535808b033abc568e33b6001600160a01b031690636352211e90602401602060405180830381865afa1580156122bd573d6000803e3d6000fd5b505050506040513d601f19601f820116820180604052508101906122e1919061491a565b8560116128df565b604051636eaf90a560e11b81526001600160a01b037f00000000000000000000000020d892d9296a4d69e94c202f5c41a299da72b117169063dd5f214a90610bcb908790879087908790600401614f76565b6040516331a9108f60e11b8152600481018390526123d0907f0000000000000000000000000dd4c75a29147a662656535808b033abc568e33b6001600160a01b031690636352211e90602401602060405180830381865afa1580156123a4573d6000803e3d6000fd5b505050506040513d601f19601f820116820180604052508101906123c8919061491a565b8360086128df565b6040516321d1336160e11b8152600481018390526000907f0000000000000000000000008e4b8f9eaf7dd02f87e30d4f0a4a5f06d1553e2c6001600160a01b0316906343a266c29060240161012060405180830381865afa158015612439573d6000803e3d6000fd5b505050506040513d601f19601f8201168201806040525081019061245d91906149fa565b905080602001516000036124f857604051631735e2c560e11b8152600481018490527f0000000000000000000000008e4b8f9eaf7dd02f87e30d4f0a4a5f06d1553e2c6001600160a01b031690632e6bc58a9060240161012060405180830381865afa1580156124d1573d6000803e3d6000fd5b505050506040513d601f19601f820116820180604052508101906124f591906149fa565b90505b61010081015160471c600190811614612524576040516345d4504960e11b815260040160405180910390fd5b60405163f12b64a560e01b8152600481018490526001600160a01b0383811660248301527f0000000000000000000000004ab442694fba157eae62bca398a4a3dc2e36dccd169063f12b64a590604401600060405180830381600087803b15801561258e57600080fd5b505af11580156107c4573d6000803e3d6000fd5b600081815260208190526040812054908190036125d2576040516318615bc360e31b815260040160405180910390fd5b6040516321d1336160e11b8152600481018390526000907f0000000000000000000000008e4b8f9eaf7dd02f87e30d4f0a4a5f06d1553e2c6001600160a01b0316906343a266c29060240161012060405180830381865afa15801561263b573d6000803e3d6000fd5b505050506040513d601f19601f8201168201806040525081019061265f91906149fa565b600084815260208190526040808220829055516331a9108f60e11b815260048101869052919250907f0000000000000000000000000dd4c75a29147a662656535808b033abc568e33b6001600160a01b031690636352211e90602401602060405180830381865afa1580156126d8573d6000803e3d6000fd5b505050506040513d601f19601f820116820180604052508101906126fc919061491a565b90506000831561271c576127178584602001516001876130b2565b61271f565b60005b905080156127aa5760405163aab68bdb60e01b81526001600160a01b037f0000000000000000000000004ab442694fba157eae62bca398a4a3dc2e36dccd169063aab68bdb9061277790859089908690600401614c5a565b600060405180830381600087803b15801561279157600080fd5b505af11580156127a5573d6000803e3d6000fd5b505050505b84836000015184602001517f32411cac611c47cfe73afc187645c9cf3aec828d5f91780138d8421378fc0edb8588866127e1612e8d565b604080516001600160a01b0395861681526020810194909452830191909152909116606082015260800160405180910390a4505050919050565b604080516001600160a01b038416602482015260448082018490528251808303909101815260649091019091526020810180516001600160e01b031663095ea7b360e01b17905261286c8482613807565b6128d9576040516001600160a01b038481166024830152600060448301526128cf91869182169063095ea7b3906064015b604051602081830303815290604052915060e01b6020820180516001600160e01b0383818316178352505050506138af565b6128d984826138af565b50505050565b60006128e9612e8d565b9050836001600160a01b0316816001600160a01b0316141580156129b85750604051631a45b42760e11b81526001600160a01b0382811660048301528581166024830152604482018590526064820184905260016084830181905260a48301527f0000000000000000000000004475b99b2f6f06c5048fe8c3839dfe2e5d744e65169063348b684e9060c401602060405180830381865afa158015612992573d6000803e3d6000fd5b505050506040513d601f19601f820116820180604052508101906129b69190614a17565b155b156128d95760405163075fd2b160e01b815260040160405180910390fd5b6000816129e1613d30565b60005b82811015612cbd578585828181106129fe576129fe614d71565b9050602002810190612a1091906150cc565b612a1990615524565b91506127108260a00151600001511115612a4657604051635623289560e01b815260040160405180910390fd5b6127108260a00151602001511115612a7157604051639db9ee9360e01b815260040160405180910390fd5b60a08201516040015163ffffffff1015612a9e5760405163e83c625560e01b815260040160405180910390fd5b60007f0000000000000000000000008e4b8f9eaf7dd02f87e30d4f0a4a5f06d1553e2c6001600160a01b03166370174dcc898560200151866040015187606001518860800151612af18a60a00151613912565b8a5160405160e089901b6001600160e01b031916815260048101979097526024870195909552604486019390935260648501919091526001600160a01b0316608484015260a483015260c482015260e401610120604051808303816000875af1158015612b62573d6000803e3d6000fd5b505050506040513d601f19601f82011682018060405250810190612b8691906149fa565b602081015160c0850151604051636eaf90a560e11b81529293506001600160a01b037f00000000000000000000000020d892d9296a4d69e94c202f5c41a299da72b117169263dd5f214a92612bdf928d92600401615626565b600060405180830381600087803b158015612bf957600080fd5b505af1158015612c0d573d6000803e3d6000fd5b505050602082015160e085015160405163971e467760e01b81526001600160a01b037f000000000000000000000000f9fa80220977aa898ba2f129e58f139b03abeee616935063971e467792612c67928d92600401615728565b600060405180830381600087803b158015612c8157600080fd5b505af1158015612c95573d6000803e3d6000fd5b50505050600184612ca69190614f20565b8203612cb457806020015194505b506001016129e4565b5050509392505050565b806000816001600160401b03811115612ce257612ce2613f06565b604051908082528060200260200182016040528015612d0b578160200160208202803683370190505b5060408051808201909152600081526060602082015290915060005b83811015612dfd57858582818110612d4157612d41614d71565b9050602002810190612d5391906157ce565b612d5c906157e4565b8051602082015160405163263a91ff60e21b81529294506001600160a01b03909116916398ea47fc91612d94918b919060040161589b565b600060405180830381600087803b158015612dae57600080fd5b505af1158015612dc2573d6000803e3d6000fd5b505050508160000151838281518110612ddd57612ddd614d71565b6001600160a01b0390921660209283029190910190910152600101612d27565b508215612e855760405163104373fb60e31b81526001600160a01b037f000000000000000000000000317e962828ddbb27576f6f0ca89adc3cd56ed8cc169063821b9fd890612e52908990869060040161589b565b600060405180830381600087803b158015612e6c57600080fd5b505af1158015612e80573d6000803e3d6000fd5b505050505b505050505050565b6000612e97613a7a565b905090565b612ea4613c7f565b6040805161022081018252610100848101805160041c61ffff9081168452815160141c166020840152805160241c63ffffffff16938301939093528251600160449190911c811681146060840152835160451c811681146080840152835160461c8116811460a0840152835160471c8116811460c0840152835160481c8116811460e0840152835160491c81168114918301919091528251604a1c811681146101208301528251604b1c811681146101408301528251604c1c811681146101608301528251604d1c811681146101808301528251604e1c811681146101a08301528251604f1c8116146101c082015290516101e082019060501c6001600160a01b03168152602001612fbb84610100015160f01c90565b905292915050565b806128d9576128d98484846128df565b600080806000198587098587029250828110838203039150508060000361300d57838281613003576130036158f4565b04925050506130ab565b83811061304357604051630c740aef60e31b81526004810187905260248101869052604481018590526064015b60405180910390fd5b600084868809851960019081018716968790049682860381900495909211909303600082900391909104909201919091029190911760038402600290811880860282030280860282030280860282030280860282030280860282030280860290910302029150505b9392505050565b6040516369e11cc560e01b815260048101859052602481018490526044810183905281906000907f00000000000000000000000020d892d9296a4d69e94c202f5c41a299da72b1176001600160a01b0316906369e11cc590606401600060405180830381865afa15801561312a573d6000803e3d6000fd5b505050506040513d6000823e601f3d908101601f19168201604052613152919081019061590a565b805190915060005b818110156137fc57600083828151811061317657613176614d71565b602002602001015190506000613195878360200151633b9aca00612fd3565b905080156137ad5760a08201516001600160a01b0316156133625760a082015160405163aab68bdb60e01b81526001600160a01b037f0000000000000000000000004ab442694fba157eae62bca398a4a3dc2e36dccd169163aab68bdb9161320491908e908690600401614c5a565b600060405180830381600087803b15801561321e57600080fd5b505af1158015613232573d6000803e3d6000fd5b505060405163ea78803f60e01b8152600481018d9052600092507f0000000000000000000000004ab442694fba157eae62bca398a4a3dc2e36dccd6001600160a01b0316915063ea78803f90602401602060405180830381865afa15801561329e573d6000803e3d6000fd5b505050506040513d601f19601f820116820180604052508101906132c2919061491a565b90508260a001516001600160a01b03166312903a856040518060c00160405280846001600160a01b03168152602001858152602001601281526020018e81526020018c8152602001868152506040518263ffffffff1660e01b815260040161332a91906159f4565b600060405180830381600087803b15801561334457600080fd5b505af1158015613358573d6000803e3d6000fd5b50505050506137a0565b60608201516000906001600160a01b03166133845761337f612e8d565b61338a565b82606001515b9050826040015160001461371b5760405163ea78803f60e01b8152600481018c90526000907f0000000000000000000000004ab442694fba157eae62bca398a4a3dc2e36dccd6001600160a01b03169063ea78803f90602401602060405180830381865afa158015613400573d6000803e3d6000fd5b505050506040513d601f19601f82011682018060405250810190613424919061491a565b905060006001600160a01b038216156134d3576040858101519051630862026560e41b815260048101919091526001600160a01b0383811660248301527f000000000000000000000000317e962828ddbb27576f6f0ca89adc3cd56ed8cc1690638620265090604401602060405180830381865afa1580156134aa573d6000803e3d6000fd5b505050506040513d601f19601f820116820180604052508101906134ce919061491a565b6134d6565b60005b90506001600160a01b03821615806134f557506001600160a01b038116155b15613581577f0000000000000000000000004ab442694fba157eae62bca398a4a3dc2e36dccd6001600160a01b031663aab68bdb848f876040518463ffffffff1660e01b815260040161354a93929190614c5a565b600060405180830381600087803b15801561356457600080fd5b505af1158015613578573d6000803e3d6000fd5b50505050613714565b7f0000000000000000000000004ab442694fba157eae62bca398a4a3dc2e36dccd6001600160a01b031663aab68bdb308f876040518463ffffffff1660e01b81526004016135d193929190614c5a565b600060405180830381600087803b1580156135eb57600080fd5b505af11580156135ff573d6000803e3d6000fd5b5050505060008d60405160200161361891815260200190565b60408051601f1981840301815282825290880151630a1181ed60e01b83529092503091630a1181ed916136589186919088908b908b908990600401615a48565b600060405180830381600087803b15801561367257600080fd5b505af1925050508015613683575060015b613712573d8080156136b1576040519150601f19603f3d011682016040523d82523d6000602084013e6136b6565b606091505b506136cb6001600160a01b0385168688613aef565b8e7feb1c69f596057b3b93b14d290bc52c6ddc7b7fa47184a8be88a30c656eac83e88888846136f8612e8d565b6040516137089493929190615a96565b60405180910390a2505b505b505061379e565b60405163aab68bdb60e01b81526001600160a01b037f0000000000000000000000004ab442694fba157eae62bca398a4a3dc2e36dccd169063aab68bdb9061376b9084908f908790600401614c5a565b600060405180830381600087803b15801561378557600080fd5b505af1158015613799573d6000803e3d6000fd5b505050505b505b6137aa8187614f20565b95505b87898b7f5b9f38b2a849d80d4925a023ac038581d16642209624dc7b8353077d36a7682485856137db612e8d565b6040516137ea93929190615ad8565b60405180910390a4505060010161315a565b505050949350505050565b6000806000846001600160a01b0316846040516138249190615b06565b6000604051808303816000865af19150503d8060008114613861576040519150601f19603f3d011682016040523d82523d6000602084013e613866565b606091505b50915091508180156138905750805115806138905750808060200190518101906138909190614a17565b80156138a657506000856001600160a01b03163b115b95945050505050565b60006138c46001600160a01b03841683613b20565b905080516000141580156138e95750808060200190518101906138e79190614a17565b155b15611cc857604051635274afe760e01b81526001600160a01b038416600482015260240161303a565b805160208201516040830151606084015160249190911b60149290921b60049390931b9290921717600117901561394f5768100000000000000000175b8160800151156139655768200000000000000000175b8160a001511561397b5768400000000000000000175b8160c00151156139915768800000000000000000175b8160e00151156139a8576901000000000000000000175b816101000151156139c0576902000000000000000000175b816101200151156139d8576904000000000000000000175b816101400151156139f0576908000000000000000000175b81610160015115613a08576910000000000000000000175b81610180015115613a20576920000000000000000000175b816101a0015115613a38576940000000000000000000175b816101c0015115613a50576980000000000000000000175b6101e08201516102009092015160f01b600160501b600160f01b0360509390931b92909216171790565b6000366014336001600160a01b037f000000000000000000000000b2b5841dbef766d4b521221732f9b618fcf34a8716148015613ab75750808210155b15613ae757600036613ac98385614f20565b613ad4928290615b18565b613add91615b42565b60601c9250505090565b339250505090565b6040516001600160a01b03838116602483015260448201839052611cc891859182169063a9059cbb9060640161289d565b60606130ab8383600084600080856001600160a01b03168486604051613b469190615b06565b60006040518083038185875af1925050503d8060008114613b83576040519150601f19603f3d011682016040523d82523d6000602084013e613b88565b606091505b5091509150613b98868383613ba2565b9695505050505050565b606082613bb757613bb282613bfe565b6130ab565b8151158015613bce57506001600160a01b0384163b155b15613bf757604051639996b31560e01b81526001600160a01b038516600482015260240161303a565b50806130ab565b805115613c0e5780518082602001fd5b604051630a12f52160e11b815260040160405180910390fd5b50565b6040518061012001604052806000815260200160008152602001600081526020016000815260200160008152602001600081526020016000815260200160006001600160a01b03168152602001600081525090565b6040805161022081018252600080825260208201819052918101829052606081018290526080810182905260a0810182905260c0810182905260e08101829052610100810182905261012081018290526101408101829052610160810182905261018081018290526101a081018290526101c081018290526101e0810182905261020081019190915290565b6040518060400160405280613d1e613c2a565b8152602001613d2b613c7f565b905290565b6040518061010001604052806000815260200160008152602001600081526020016000815260200160006001600160a01b03168152602001613d70613c7f565b815260200160608152602001606081525090565b600060208284031215613d9657600080fd5b81356001600160e01b0319811681146130ab57600080fd5b600060208284031215613dc057600080fd5b5035919050565b6001600160a01b0381168114613c2757600080fd5b8035613de781613dc7565b919050565b60008083601f840112613dfe57600080fd5b5081356001600160401b03811115613e1557600080fd5b602083019150836020828501011115613e2d57600080fd5b9250929050565b600080600080600080600060c0888a031215613e4f57600080fd5b8735613e5a81613dc7565b9650602088013595506040880135613e7181613dc7565b9450606088013593506080880135613e8881613dc7565b925060a08801356001600160401b03811115613ea357600080fd5b613eaf8a828b01613dec565b989b979a50959850939692959293505050565b60008083601f840112613ed457600080fd5b5081356001600160401b03811115613eeb57600080fd5b6020830191508360208260051b8501011115613e2d57600080fd5b634e487b7160e01b600052604160045260246000fd5b60405161012081016001600160401b0381118282101715613f3f57613f3f613f06565b60405290565b60405161022081016001600160401b0381118282101715613f3f57613f3f613f06565b604080519081016001600160401b0381118282101715613f3f57613f3f613f06565b60405160c081016001600160401b0381118282101715613f3f57613f3f613f06565b604051608081016001600160401b0381118282101715613f3f57613f3f613f06565b60405161010081016001600160401b0381118282101715613f3f57613f3f613f06565b604051601f8201601f191681016001600160401b038111828210171561401957614019613f06565b604052919050565b60006001600160401b0382111561403a5761403a613f06565b50601f01601f191660200190565b600082601f83011261405957600080fd5b813561406c61406782614021565b613ff1565b81815284602083860101111561408157600080fd5b816020850160208301376000918101602001919091529392505050565b600080600080600080608087890312156140b757600080fd5b8635955060208701356001600160401b03808211156140d557600080fd5b6140e18a838b01613ec2565b909750955060408901359150808211156140fa57600080fd5b6141068a838b01613ec2565b9095509350606089013591508082111561411f57600080fd5b5061412c89828a01614048565b9150509295509295509295565b6000806040838503121561414c57600080fd5b50508035926020909101359150565b805182526020808201519083015260408082015190830152606080820151908301526080808201519083015260a0808201519083015260c0808201519083015260e0808201516001600160a01b03169083015261010090810151910152565b80518252602081015160208301526040810151604083015260608101516141e5606084018215159052565b5060808101516141f9608084018215159052565b5060a081015161420d60a084018215159052565b5060c081015161422160c084018215159052565b5060e081015161423560e084018215159052565b5061010081810151151590830152610120808201511515908301526101408082015115159083015261016080820151151590830152610180808201511515908301526101a0808201511515908301526101c0808201511515908301526101e0808201516001600160a01b03169083015261020090810151910152565b61034081016142c0828561415b565b6130ab6101208301846141ba565b600080600080608085870312156142e457600080fd5b84356142ef81613dc7565b93506020850135925060408501359150606085013561430d81613dc7565b939692955090935050565b6000806040838503121561432b57600080fd5b82359150602083013561433d81613dc7565b809150509250929050565b60006020828403121561435a57600080fd5b81356130ab81613dc7565b6000806000806000806080878903121561437e57600080fd5b8635955060208701356001600160401b038082111561439c57600080fd5b6143a88a838b01613dec565b909750955060408901359150808211156143c157600080fd5b506143ce89828a01613dec565b979a9699509497949695606090950135949350505050565b6000806000604084860312156143fb57600080fd5b8335925060208401356001600160401b0381111561441857600080fd5b61442486828701613dec565b9497909650939450505050565b60008060008060008060008060a0898b03121561444d57600080fd5b883561445881613dc7565b975060208901356001600160401b038082111561447457600080fd5b6144808c838d01613dec565b909950975060408b013591508082111561449957600080fd5b6144a58c838d01613ec2565b909750955060608b01359150808211156144be57600080fd5b6144ca8c838d01613ec2565b909550935060808b01359150808211156144e357600080fd5b506144f08b828c01614048565b9150509295985092959890939650565b60008060008060006080868803121561451857600080fd5b853561452381613dc7565b9450602086013593506040860135925060608601356001600160401b0381111561454c57600080fd5b61455888828901613dec565b969995985093965092949392505050565b60005b8381101561458457818101518382015260200161456c565b50506000910152565b600081518084526145a5816020860160208601614569565b601f01601f19169290920160200192915050565b6020815260006130ab602083018461458d565b600080600080608085870312156145e257600080fd5b84356145ed81613dc7565b935060208501359250604085013561460481613dc7565b9396929550929360600135925050565b60008060006060848603121561462957600080fd5b505081359360208301359350604090920135919050565b6020808252825182820181905260009190848201906040850190845b8181101561469757835161467184825161415b565b8501516146826101208501826141ba565b5092840192610340929092019160010161465c565b50909695505050505050565b6000806000806000606086880312156146bb57600080fd5b8535945060208601356001600160401b03808211156146d957600080fd5b6146e589838a01613ec2565b909650945060408801359150808211156146fe57600080fd5b5061455888828901613dec565b610360810161471a828661415b565b6147286101208301856141ba565b6006831061474657634e487b7160e01b600052602160045260246000fd5b82610340830152949350505050565b6000806040838503121561476857600080fd5b823561477381613dc7565b946020939093013593505050565b8015158114613c2757600080fd5b8035613de781614781565b60008060008060008060a087890312156147b357600080fd5b863595506020870135945060408701356147cc81613dc7565b935060608701356001600160401b038111156147e757600080fd5b6147f389828a01613dec565b909450925050608087013561480781614781565b809150509295509295509295565b6000806000806060858703121561482b57600080fd5b843593506020850135925060408501356001600160401b0381111561484f57600080fd5b61485b87828801613ec2565b95989497509550505050565b81835281816020850137506000828201602090810191909152601f909101601f19169091010190565b878152600060018060a01b03808916602084015287604084015280871660608401525084608083015260e060a0830152600060e08301526101008060c08401526148dd8184018587614867565b9a9950505050505050505050565b6000602082840312156148fd57600080fd5b5051919050565b634e487b7160e01b600052600160045260246000fd5b60006020828403121561492c57600080fd5b81516130ab81613dc7565b848152836020820152608060408201526000614956608083018561458d565b905060018060a01b038316606083015295945050505050565b8051613de781613dc7565b6000610120828403121561498d57600080fd5b614995613f1c565b9050815181526020820151602082015260408201516040820152606082015160608201526080820151608082015260a082015160a082015260c082015160c08201526149e360e0830161496f565b60e082015261010080830151818301525092915050565b60006101208284031215614a0d57600080fd5b6130ab838361497a565b600060208284031215614a2957600080fd5b81516130ab81614781565b634e487b7160e01b600052601160045260246000fd5b8082018082111561069957610699614a34565b868152608060208201526000614a77608083018789614867565b8281036040840152614a8a818688614867565b915050826060830152979650505050505050565b600181811c90821680614ab257607f821691505b602082108103614ad257634e487b7160e01b600052602260045260246000fd5b50919050565b601f821115611cc8576000816000526020600020601f850160051c81016020861015614b015750805b601f850160051c820191505b81811015612e8557828155600101614b0d565b6001600160401b03831115614b3757614b37613f06565b614b4b83614b458354614a9e565b83614ad8565b6000601f841160018114614b7f5760008515614b675750838201355b600019600387901b1c1916600186901b178355614bd9565b600083815260209020601f19861690835b82811015614bb05786850135825560209485019460019092019101614b90565b5086821015614bcd5760001960f88860031b161c19848701351681555b505060018560011b0183555b5050505050565b604081526000614bf4604083018587614867565b905060018060a01b0383166020830152949350505050565b86815285602082015260a060408201526000614c2c60a083018688614867565b8281036060840152614c3e818661458d565b91505060018060a01b0383166080830152979650505050505050565b6001600160a01b039390931683526020830191909152604082015260600190565b848152606060208201526000614c95606083018587614867565b905060018060a01b038316604083015295945050505050565b60006001600160401b03821115614cc757614cc7613f06565b5060051b60200190565b60006020808385031215614ce457600080fd5b82516001600160401b03811115614cfa57600080fd5b8301601f81018513614d0b57600080fd5b8051614d1961406782614cae565b808282526020820191506101206020818502860101935088841115614d3d57600080fd5b6020850194505b83851015614d6557614d56898661497a565b83529384019391850191614d44565b50979650505050505050565b634e487b7160e01b600052603260045260246000fd5b858152846020820152608060408201526000614da7608083018587614867565b905060018060a01b03831660608301529695505050505050565b6000806101408385031215614dd557600080fd5b614ddf848461497a565b91506101208301516006811061433d57600080fd5b600060208284031215614e0657600080fd5b81516001600160401b03811115614e1c57600080fd5b8201601f81018413614e2d57600080fd5b8051614e3b61406782614021565b818152856020838501011115614e5057600080fd5b6138a6826020830160208601614569565b81516001600160401b03811115614e7a57614e7a613f06565b614e8e81614e888454614a9e565b84614ad8565b602080601f831160018114614ec35760008415614eab5750858301515b600019600386901b1c1916600185901b178555612e85565b600085815260208120601f198616915b82811015614ef257888601518255948401946001909101908401614ed3565b5085821015614f105787850151600019600388901b60f8161c191681555b5050505050600190811b01905550565b8181038181111561069957610699614a34565b86815285602082015260a060408201526000614f5360a083018688614867565b6060830194909452506001600160a01b0391909116608090910152949350505050565b6000606080830187845260208781860152604060606040870152828784526080935060808701905060808860051b8801018960005b8a8110156150ba57898303607f190184528135368d9003603e19018112614fd157600080fd5b8c01803584528386018782013536839003601e19018112614ff157600080fd5b9091018781019190356001600160401b0381111561500e57600080fd5b60c0808202360384131561502157600080fd5b868a01899052918190526000918b87015b828410156150a457843561504581614781565b15158152848b01358b820152898501358a8201528c85013561506681613dc7565b6001600160a01b03908116828f0152858d01358d83015260a0908682013561508d81613dc7565b169082015293810193600193909301928101615032565b978a019796505050928701925050600101614fab565b50909c9b505050505050505050505050565b600082356102fe198336030181126150e357600080fd5b9190910192915050565b6000610220828403121561510057600080fd5b615108613f45565b905081358152602082013560208201526040820135604082015261512e6060830161478f565b606082015261513f6080830161478f565b608082015261515060a0830161478f565b60a082015261516160c0830161478f565b60c082015261517260e0830161478f565b60e082015261010061518581840161478f565b9082015261012061519783820161478f565b908201526101406151a983820161478f565b908201526101606151bb83820161478f565b908201526101806151cd83820161478f565b908201526101a06151df83820161478f565b908201526101c06151f183820161478f565b908201526101e0615203838201613ddc565b818301525061020080830135818301525092915050565b600082601f83011261522b57600080fd5b8135602061523b61406783614cae565b82815260059290921b8401810191818101908684111561525a57600080fd5b8286015b848110156153935780356001600160401b038082111561527d57600080fd5b908801906040828b03601f190181131561529657600080fd5b61529e613f68565b87840135815281840135838111156152b557600080fd5b8085019450508b603f8501126152ca57600080fd5b8784013592506152dc61406784614cae565b83815260c09093028401820192888101908d8511156152fa57600080fd5b948301945b8486101561537e5760c0868f03121561531757600080fd5b61531f613f8a565b863561532a81614781565b8152868b01358b8201528487013585820152606087013561534a81613dc7565b60608201526080878101359082015260a087013561536781613dc7565b60a0820152825260c09590950194908901906152ff565b828a015250865250505091830191830161525e565b509695505050505050565b600082601f8301126153af57600080fd5b813560206153bf61406783614cae565b82815260069290921b840181019181810190868411156153de57600080fd5b8286015b8481101561539357604081890312156153fb5760008081fd5b615403613f68565b8135815284820135858201528352918301916040016153e2565b600082601f83011261542e57600080fd5b8135602061543e61406783614cae565b82815260059290921b8401810191818101908684111561545d57600080fd5b8286015b848110156153935780356001600160401b03808211156154815760008081fd5b908801906080828b03601f190181131561549b5760008081fd5b6154a3613fac565b878401356154b081613dc7565b81526040848101356154c181613dc7565b828a0152606085810135858111156154d95760008081fd5b6154e78f8c838a010161539e565b848401525092850135928484111561550157600091508182fd5b61550f8e8b8689010161539e565b90830152508652505050918301918301615461565b6000610300823603121561553757600080fd5b61553f613fce565b8235815260208301356020820152604083013560408201526060830135606082015261556d60808401613ddc565b608082015261557f3660a085016150ed565b60a08201526102c08301356001600160401b038082111561559f57600080fd5b6155ab3683870161521a565b60c08401526102e08501359150808211156155c557600080fd5b506155d23682860161541d565b60e08301525092915050565b80511515825260208082015190830152604080820151908301526060808201516001600160a01b03908116918401919091526080808301519084015260a09182015116910152565b600060608083018684526020868186015260406060604087015282875180855260808801915060808160051b89010194508389016000805b838110156156cf578a8803607f190185528251805189528701518789018790528051878a018190529088019083908b8b01905b808310156156ba576156a48285516155de565b60c0820191508a84019350600183019250615691565b5099505050938601939186019160010161565e565b50959c9b505050505050505050505050565b60008151808452602080850194506020840160005b8381101561571d5781518051885283015183880152604090960195908201906001016156f6565b509495945050505050565b60006060808301868452602086818601526040606060408701528287518085526080945060808801915060808160051b890101848a0160005b838110156150ba578a8303607f19018552815180516001600160a01b039081168552888201511688850152868101518785018a90526157a28a8601826156e1565b918b0151858303868d01529190506157ba81836156e1565b968901969450505090860190600101615761565b60008235603e198336030181126150e357600080fd5b6000604082360312156157f657600080fd5b6157fe613f68565b823561580981613dc7565b81526020838101356001600160401b0381111561582557600080fd5b840136601f82011261583657600080fd5b803561584461406782614cae565b81815260059190911b8201830190838101903683111561586357600080fd5b928401925b8284101561588a57833561587b81613dc7565b82529284019290840190615868565b938501939093525091949350505050565b60006040820184835260206040602085015281855180845260608601915060208701935060005b818110156158e75784516001600160a01b0316835293830193918301916001016158c2565b5090979650505050505050565b634e487b7160e01b600052601260045260246000fd5b6000602080838503121561591d57600080fd5b82516001600160401b0381111561593357600080fd5b8301601f8101851361594457600080fd5b805161595261406782614cae565b81815260c0918202830184019184820191908884111561597157600080fd5b938501935b83851015614d655780858a03121561598e5760008081fd5b615996613f8a565b85516159a181614781565b81528587015187820152604080870151908201526060808701516159c481613dc7565b908201526080868101519082015260a0808701516159e181613dc7565b9082015283529384019391850191615976565b81516001600160a01b031681526020808301519082015260408083015190820152606080830151908201526080808301519082015260a082810151610160830191615a41908401826155de565b5092915050565b6001600160a01b038781168252602082018790528581166040830152606082018590528316608082015260c060a08201819052600090615a8a9083018461458d565b98975050505050505050565b6000610120615aa583886155de565b8560c08401528060e0840152615abd8184018661458d565b91505060018060a01b03831661010083015295945050505050565b6101008101615ae782866155de565b60c08201939093526001600160a01b039190911660e090910152919050565b600082516150e3818460208701614569565b60008085851115615b2857600080fd5b83861115615b3557600080fd5b5050820193919092039150565b6bffffffffffffffffffffffff198135818116916014851015615b6f5780818660140360031b1b83161692505b50509291505056fea26469706673582212201fc3f7d9c8002205fad2c25b683b3bd7874d9c5c24f88e51ef6cbef873b5741b64736f6c63430008170033",
	"devdoc": {
		"kind": "dev",
		"methods": {
			"burnTokensOf(address,uint256,uint256,string)": {
				"details": "Can only be called by the holder, an address with the holder's permission to `BURN_TOKENS`, or a project's terminal.",
				"params": {
					"holder": "The address whose tokens are being burned.",
					"memo": "A memo to pass along to the emitted event.",
					"projectId": "The ID of the project whose tokens are being burned.",
					"tokenCount": "The number of tokens to burn."
				}
			},
			"claimTokensFor(address,uint256,uint256,address)": {
				"details": "Can only be called by the credit holder or an address with the holder's permission to `CLAIM_TOKENS`.",
				"params": {
					"amount": "The amount of tokens to claim.",
					"beneficiary": "The account the claimed tokens will go to.",
					"holder": "The address to redeem credits from.",
					"projectId": "The ID of the project whose tokens are being claimed."
				}
			},
			"constructor": {
				"params": {
					"directory": "A contract storing directories of terminals and controllers for each project.",
					"fundAccessLimits": "A contract that stores fund access limits for each project.",
					"permissions": "A contract storing permissions.",
					"projects": "A contract which mints ERC-721s that represent project ownership and transfers.",
					"rulesets": "A contract storing and managing project rulesets.",
					"splits": "A contract that stores splits for each project.",
					"tokens": "A contract that manages token minting and burning."
				}
			},
			"currentRulesetOf(uint256)": {
				"params": {
					"projectId": "The ID of the project to get the current ruleset of."
				},
				"returns": {
					"metadata": "The current ruleset's metadata.",
					"ruleset": "The current ruleset's struct."
				}
			},
			"deployERC20For(uint256,string,string,bytes32)": {
				"details": "Deploys the project's ERC-20 contract.Can only be called by the project's owner or an address with the owner's permission to `DEPLOY_ERC20`.",
				"params": {
					"name": "The ERC-20's name.",
					"projectId": "The ID of the project to deploy the ERC-20 for.",
					"symbol": "The ERC-20's symbol."
				},
				"returns": {
					"token": "The address of the token that was deployed."
				}
			},
			"getRulesetOf(uint256,uint256)": {
				"params": {
					"projectId": "The ID of the project the ruleset belongs to."
				},
				"returns": {
					"metadata": "The ruleset's metadata.",
					"ruleset": "The ruleset's struct."
				}
			},
			"isTrustedForwarder(address)": {
				"details": "Indicates whether any particular address is the trusted forwarder."
			},
			"latestQueuedRulesetOf(uint256)": {
				"details": "The 'latest queued ruleset' is the ruleset initialized furthest in the future (at the end of the ruleset queue).",
				"params": {
					"projectId": "The ID of the project to get the latest ruleset of."
				},
				"returns": {
					"approvalStatus": "The ruleset's approval status.",
					"metadata": "The ruleset's metadata.",
					"ruleset": "The struct for the project's latest queued ruleset."
				}
			},
			"launchProjectFor(address,string,(uint256,uint256,uint256,uint256,address,(uint256,uint256,uint256,bool,bool,bool,bool,bool,bool,bool,bool,bool,bool,bool,bool,address,uint256),(uint256,(bool,uint256,uint256,address,uint256,address)[])[],(address,address,(uint256,uint256)[],(uint256,uint256)[])[])[],(address,address[])[],string)": {
				"details": "This will mint the project's ERC-721 to the `owner`'s address, queue the specified rulesets, and set up the specified splits and terminals. Each operation within this transaction can be done in sequence separately.Anyone can deploy a project to any `owner`'s address.",
				"params": {
					"memo": "A memo to pass along to the emitted event.",
					"owner": "The project's owner. The project ERC-721 will be minted to this address.",
					"projectUri": "The project's metadata URI. This is typically an IPFS hash, optionally with the `ipfs://` prefix. This can be updated by the project's owner.",
					"rulesetConfigurations": "The rulesets to queue.",
					"terminalConfigurations": "The terminals to set up for the project."
				},
				"returns": {
					"projectId": "The project's ID."
				}
			},
			"launchRulesetsFor(uint256,(uint256,uint256,uint256,uint256,address,(uint256,uint256,uint256,bool,bool,bool,bool,bool,bool,bool,bool,bool,bool,bool,bool,address,uint256),(uint256,(bool,uint256,uint256,address,uint256,address)[])[],(address,address,(uint256,uint256)[],(uint256,uint256)[])[])[],(address,address[])[],string)": {
				"details": "Each operation within this transaction can be done in sequence separately.Can only be called by the project's owner or an address with the owner's permission to `QUEUE_RULESETS`.",
				"params": {
					"memo": "A memo to pass along to the emitted event.",
					"projectId": "The ID of the project to launch rulesets for.",
					"rulesetConfigurations": "The rulesets to queue.",
					"terminalConfigurations": "The terminals to set up."
				},
				"returns": {
					"rulesetId": "The ID of the last successfully queued ruleset."
				}
			},
			"migrate(uint256,address)": {
				"details": "Can only be called by the directory.",
				"params": {
					"projectId": "The ID of the project to migrate.",
					"to": "The controller to migrate the project to."
				}
			},
			"mintTokensOf(uint256,uint256,address,string,bool)": {
				"details": "Can only be called by the project's owner, an address with the owner's permission to `MINT_TOKENS`, one of the project's terminals, or the project's data hook.If the ruleset's metadata has `allowOwnerMinting` set to `false`, this function can only be called by the project's terminals or data hook.",
				"params": {
					"beneficiary": "The address which will receive the (non-reserved) tokens.",
					"memo": "A memo to pass along to the emitted event.",
					"projectId": "The ID of the project whose tokens are being minted.",
					"tokenCount": "The number of tokens to mint, including any reserved tokens.",
					"useReservedRate": "Whether to apply the ruleset's reserved rate."
				},
				"returns": {
					"beneficiaryTokenCount": "The number of tokens minted for the `beneficiary`."
				}
			},
			"payReservedTokenToTerminal(address,uint256,address,uint256,address,bytes)": {
				"details": "Can only be called by this controller.",
				"params": {
					"beneficiary": "The payment's beneficiary.",
					"metadata": "The pay metadata sent to the terminal.",
					"projectId": "The ID of the project being paid.",
					"splitAmount": "The amount of tokens being paid.",
					"terminal": "The terminal to pay.",
					"token": "The token being paid with."
				}
			},
			"queueRulesetsOf(uint256,(uint256,uint256,uint256,uint256,address,(uint256,uint256,uint256,bool,bool,bool,bool,bool,bool,bool,bool,bool,bool,bool,bool,address,uint256),(uint256,(bool,uint256,uint256,address,uint256,address)[])[],(address,address,(uint256,uint256)[],(uint256,uint256)[])[])[],string)": {
				"details": "Can only be called by the project's owner or an address with the owner's permission to `QUEUE_RULESETS`.",
				"params": {
					"memo": "A memo to pass along to the emitted event.",
					"projectId": "The ID of the project to queue rulesets for.",
					"rulesetConfigurations": "The rulesets to queue."
				},
				"returns": {
					"rulesetId": "The ID of the last ruleset which was successfully queued."
				}
			},
			"receiveMigrationFrom(address,uint256)": {
				"details": "This controller should not be the project's controller yet.",
				"params": {
					"from": "The controller being migrated from.",
					"projectId": "The ID of the project that will migrate to this controller."
				}
			},
			"rulesetsOf(uint256,uint256,uint256)": {
				"params": {
					"projectId": "The ID of the project to get the rulesets of.",
					"size": "The maximum number of rulesets to return.",
					"startingId": "The ID of the ruleset to begin with. This will be the latest ruleset in the result. If the `startingId` is 0, passed, the project's latest ruleset will be used."
				},
				"returns": {
					"rulesets": "The array of rulesets with their metadata."
				}
			},
			"sendReservedTokensToSplitsOf(uint256)": {
				"details": "If the project has no reserved token splits, or if they don't add up to 100%, leftover tokens are sent to the project's owner.",
				"params": {
					"projectId": "The ID of the project to send reserved tokens for."
				},
				"returns": {
					"_0": "The amount of reserved tokens minted and sent."
				}
			},
			"setControllerAllowed(uint256)": {
				"params": {
					"projectId": "The ID of the project to check."
				},
				"returns": {
					"_0": "A `bool` which is true if the project allows controllers to be set."
				}
			},
			"setSplitGroupsOf(uint256,uint256,(uint256,(bool,uint256,uint256,address,uint256,address)[])[])": {
				"details": "Can only be called by the project's owner or an address with the owner's permission to `SET_SPLIT_GROUPS`.",
				"params": {
					"projectId": "The ID of the project to set the split groups of.",
					"rulesetId": "The ID of the ruleset the split groups should be active in. Use a `rulesetId` of 0 to set the default split groups, which are used when a ruleset has no splits set. If there are no default splits and no splits are set, all splits are sent to the project's owner.",
					"splitGroups": "An array of split groups to set."
				}
			},
			"setTerminalsAllowed(uint256)": {
				"params": {
					"projectId": "The ID of the project to check."
				},
				"returns": {
					"_0": "A `bool` which is true if the project allows terminals to be set."
				}
			},
			"setTokenFor(uint256,address)": {
				"details": "Can only be called by the project's owner or an address with the owner's permission to `SET_TOKEN`.",
				"params": {
					"projectId": "The ID of the project to set the token of.",
					"token": "The new token's address."
				}
			},
			"setUriOf(uint256,string)": {
				"details": "This is typically an IPFS hash, optionally with an `ipfs://` prefix.Can only be called by the project's owner or an address with the owner's permission to `SET_PROJECT_METADATA`.",
				"params": {
					"metadata": "The metadata URI to set.",
					"projectId": "The ID of the project to set the metadata URI of."
				}
			},
			"supportsInterface(bytes4)": {
				"details": "See {IERC165-supportsInterface}.",
				"params": {
					"interfaceId": "The ID of the interface to check for adherence to."
				},
				"returns": {
					"_0": "A flag indicating if the provided interface ID is supported."
				}
			},
			"totalTokenSupplyWithReservedTokensOf(uint256)": {
				"params": {
					"projectId": "The ID of the project to get the total token supply of."
				},
				"returns": {
					"_0": "The total supply of the project's token, including pending reserved tokens."
				}
			},
			"transferCreditsFrom(address,uint256,address,uint256)": {
				"details": "Can only be called by the credit holder or an address with the holder's permission to `TRANSFER_CREDITS`.",
				"params": {
					"amount": "The amount of credits to transfer.",
					"holder": "The address to transfer credits from.",
					"projectId": "The ID of the project whose credits are being transferred.",
					"recipient": "The address to transfer credits to."
				}
			},
			"trustedForwarder()": {
				"details": "Returns the address of the trusted forwarder."
			},
			"upcomingRulesetOf(uint256)": {
				"details": "If an upcoming ruleset isn't found, returns an empty ruleset with all properties set to 0.",
				"params": {
					"projectId": "The ID of the project to get the next ruleset of."
				},
				"returns": {
					"metadata": "The upcoming ruleset's metadata.",
					"ruleset": "The upcoming ruleset's struct."
				}
			}
		},
		"version": 1
	},
	"userdoc": {
		"kind": "user",
		"methods": {
			"DIRECTORY()": {
				"notice": "The directory of terminals and controllers for projects."
			},
			"FUND_ACCESS_LIMITS()": {
				"notice": "A contract that stores fund access limits for each project."
			},
			"PERMISSIONS()": {
				"notice": "A contract storing permissions."
			},
			"PROJECTS()": {
				"notice": "Mints ERC-721s that represent project ownership and transfers."
			},
			"RULESETS()": {
				"notice": "The contract storing and managing project rulesets."
			},
			"SPLITS()": {
				"notice": "The contract that stores splits for each project."
			},
			"TOKENS()": {
				"notice": "The contract that manages token minting and burning."
			},
			"burnTokensOf(address,uint256,uint256,string)": {
				"notice": "Burns a project's tokens or credits from the specific holder's balance."
			},
			"claimTokensFor(address,uint256,uint256,address)": {
				"notice": "Redeem credits to claim tokens into a `beneficiary`'s account."
			},
			"currentRulesetOf(uint256)": {
				"notice": "A project's currently active ruleset and its metadata."
			},
			"deployERC20For(uint256,string,string,bytes32)": {
				"notice": "Deploys an ERC-20 token for a project. It will be used when claiming tokens (with credits)."
			},
			"getRulesetOf(uint256,uint256)": {
				"notice": "Get the `JBRuleset` and `JBRulesetMetadata` corresponding to the specified `rulesetId`."
			},
			"latestQueuedRulesetOf(uint256)": {
				"notice": "Gets the latest ruleset queued for a project, its approval status, and its metadata."
			},
			"launchProjectFor(address,string,(uint256,uint256,uint256,uint256,address,(uint256,uint256,uint256,bool,bool,bool,bool,bool,bool,bool,bool,bool,bool,bool,bool,address,uint256),(uint256,(bool,uint256,uint256,address,uint256,address)[])[],(address,address,(uint256,uint256)[],(uint256,uint256)[])[])[],(address,address[])[],string)": {
				"notice": "Creates a project."
			},
			"launchRulesetsFor(uint256,(uint256,uint256,uint256,uint256,address,(uint256,uint256,uint256,bool,bool,bool,bool,bool,bool,bool,bool,bool,bool,bool,bool,address,uint256),(uint256,(bool,uint256,uint256,address,uint256,address)[])[],(address,address,(uint256,uint256)[],(uint256,uint256)[])[])[],(address,address[])[],string)": {
				"notice": "Queue a project's initial rulesets and set up terminals for it. Projects which already have rulesets should use `queueRulesetsOf(...)`."
			},
			"migrate(uint256,address)": {
				"notice": "Migrate a project from this controller to another one."
			},
			"mintTokensOf(uint256,uint256,address,string,bool)": {
				"notice": "Add new project tokens or credits to the specified beneficiary's balance. Optionally, reserve a portion according to the ruleset's reserved rate."
			},
			"payReservedTokenToTerminal(address,uint256,address,uint256,address,bytes)": {
				"notice": "When a project receives reserved tokens, if it has a terminal for the token, this is used to pay the terminal."
			},
			"pendingReservedTokenBalanceOf(uint256)": {
				"notice": "A project's unrealized reserved token balance (i.e. reserved tokens which haven't been sent out to the reserved token split group yet)."
			},
			"queueRulesetsOf(uint256,(uint256,uint256,uint256,uint256,address,(uint256,uint256,uint256,bool,bool,bool,bool,bool,bool,bool,bool,bool,bool,bool,bool,address,uint256),(uint256,(bool,uint256,uint256,address,uint256,address)[])[],(address,address,(uint256,uint256)[],(uint256,uint256)[])[])[],string)": {
				"notice": "Add one or more rulesets to the end of a project's ruleset queue. Rulesets take effect after the previous ruleset in the queue ends, and only if they are approved by the previous ruleset's approval hook."
			},
			"receiveMigrationFrom(address,uint256)": {
				"notice": "Prepares this controller to receive a project being migrated from another controller."
			},
			"rulesetsOf(uint256,uint256,uint256)": {
				"notice": "Get an array of a project's rulesets (with metadata) up to a maximum array size, sorted from latest to earliest."
			},
			"sendReservedTokensToSplitsOf(uint256)": {
				"notice": "Sends a project's pending reserved tokens to its reserved token splits."
			},
			"setControllerAllowed(uint256)": {
				"notice": "Check whether the project's controller can currently be set."
			},
			"setSplitGroupsOf(uint256,uint256,(uint256,(bool,uint256,uint256,address,uint256,address)[])[])": {
				"notice": "Sets a project's split groups. The new split groups must include any current splits which are locked."
			},
			"setTerminalsAllowed(uint256)": {
				"notice": "Check whether the project's terminals can currently be set."
			},
			"setTokenFor(uint256,address)": {
				"notice": "Set a project's token. If the project's token is already set, this will revert."
			},
			"setUriOf(uint256,string)": {
				"notice": "Set a project's metadata URI."
			},
			"supportsInterface(bytes4)": {
				"notice": "Indicates whether this contract adheres to the specified interface."
			},
			"totalTokenSupplyWithReservedTokensOf(uint256)": {
				"notice": "Gets the a project token's total supply, including pending reserved tokens."
			},
			"transferCreditsFrom(address,uint256,address,uint256)": {
				"notice": "Allows a credit holder to transfer credits to another address."
			},
			"upcomingRulesetOf(uint256)": {
				"notice": "A project's next ruleset along with its metadata."
			},
			"uriOf(uint256)": {
				"notice": "The metadata URI for each project. This is typically an IPFS hash, optionally with an `ipfs://` prefix."
			}
		},
		"version": 1
	},
	"gitCommit": "a991cc8048c2498c20ee78dc68456d84b45f9e4f",
	"sourceName": "src/JBController.sol",
	"chainId": "11155420",
	"linkReferences": {},
	"deployedLinkReferences": {},
	"history": []
}