{
	"_format": "sphinx-sol-ct-artifact-1",
	"merkleRoot": "0x8c1e54f97e42f2fa46b303de8b66ce6570e2965386dfe42a48a5be441f2b885e",
	"contractName": "JBMultiTerminal",
	"address": "0x1550602eC905956b7A01F1fa5eE1c7D84BdcB738",
	"abi": [
		{
			"type": "constructor",
			"inputs": [
				{
					"name": "permissions",
					"type": "address",
					"internalType": "contract IJBPermissions"
				},
				{
					"name": "projects",
					"type": "address",
					"internalType": "contract IJBProjects"
				},
				{
					"name": "splits",
					"type": "address",
					"internalType": "contract IJBSplits"
				},
				{
					"name": "store",
					"type": "address",
					"internalType": "contract IJBTerminalStore"
				},
				{
					"name": "feelessAddresses",
					"type": "address",
					"internalType": "contract IJBFeelessAddresses"
				},
				{
					"name": "permit2",
					"type": "address",
					"internalType": "contract IPermit2"
				},
				{
					"name": "trustedForwarder",
					"type": "address",
					"internalType": "address"
				}
			],
			"stateMutability": "nonpayable"
		},
		{
			"type": "function",
			"name": "DIRECTORY",
			"inputs": [],
			"outputs": [
				{
					"name": "",
					"type": "address",
					"internalType": "contract IJBDirectory"
				}
			],
			"stateMutability": "view"
		},
		{
			"type": "function",
			"name": "FEE",
			"inputs": [],
			"outputs": [
				{
					"name": "",
					"type": "uint256",
					"internalType": "uint256"
				}
			],
			"stateMutability": "view"
		},
		{
			"type": "function",
			"name": "FEELESS_ADDRESSES",
			"inputs": [],
			"outputs": [
				{
					"name": "",
					"type": "address",
					"internalType": "contract IJBFeelessAddresses"
				}
			],
			"stateMutability": "view"
		},
		{
			"type": "function",
			"name": "PERMISSIONS",
			"inputs": [],
			"outputs": [
				{
					"name": "",
					"type": "address",
					"internalType": "contract IJBPermissions"
				}
			],
			"stateMutability": "view"
		},
		{
			"type": "function",
			"name": "PERMIT2",
			"inputs": [],
			"outputs": [
				{
					"name": "",
					"type": "address",
					"internalType": "contract IPermit2"
				}
			],
			"stateMutability": "view"
		},
		{
			"type": "function",
			"name": "PROJECTS",
			"inputs": [],
			"outputs": [
				{
					"name": "",
					"type": "address",
					"internalType": "contract IJBProjects"
				}
			],
			"stateMutability": "view"
		},
		{
			"type": "function",
			"name": "RULESETS",
			"inputs": [],
			"outputs": [
				{
					"name": "",
					"type": "address",
					"internalType": "contract IJBRulesets"
				}
			],
			"stateMutability": "view"
		},
		{
			"type": "function",
			"name": "SPLITS",
			"inputs": [],
			"outputs": [
				{
					"name": "",
					"type": "address",
					"internalType": "contract IJBSplits"
				}
			],
			"stateMutability": "view"
		},
		{
			"type": "function",
			"name": "STORE",
			"inputs": [],
			"outputs": [
				{
					"name": "",
					"type": "address",
					"internalType": "contract IJBTerminalStore"
				}
			],
			"stateMutability": "view"
		},
		{
			"type": "function",
			"name": "accountingContextForTokenOf",
			"inputs": [
				{
					"name": "projectId",
					"type": "uint256",
					"internalType": "uint256"
				},
				{
					"name": "token",
					"type": "address",
					"internalType": "address"
				}
			],
			"outputs": [
				{
					"name": "",
					"type": "tuple",
					"internalType": "struct JBAccountingContext",
					"components": [
						{
							"name": "token",
							"type": "address",
							"internalType": "address"
						},
						{
							"name": "decimals",
							"type": "uint8",
							"internalType": "uint8"
						},
						{
							"name": "currency",
							"type": "uint32",
							"internalType": "uint32"
						}
					]
				}
			],
			"stateMutability": "view"
		},
		{
			"type": "function",
			"name": "accountingContextsOf",
			"inputs": [
				{
					"name": "projectId",
					"type": "uint256",
					"internalType": "uint256"
				}
			],
			"outputs": [
				{
					"name": "",
					"type": "tuple[]",
					"internalType": "struct JBAccountingContext[]",
					"components": [
						{
							"name": "token",
							"type": "address",
							"internalType": "address"
						},
						{
							"name": "decimals",
							"type": "uint8",
							"internalType": "uint8"
						},
						{
							"name": "currency",
							"type": "uint32",
							"internalType": "uint32"
						}
					]
				}
			],
			"stateMutability": "view"
		},
		{
			"type": "function",
			"name": "addAccountingContextsFor",
			"inputs": [
				{
					"name": "projectId",
					"type": "uint256",
					"internalType": "uint256"
				},
				{
					"name": "accountingContexts",
					"type": "tuple[]",
					"internalType": "struct JBAccountingContext[]",
					"components": [
						{
							"name": "token",
							"type": "address",
							"internalType": "address"
						},
						{
							"name": "decimals",
							"type": "uint8",
							"internalType": "uint8"
						},
						{
							"name": "currency",
							"type": "uint32",
							"internalType": "uint32"
						}
					]
				}
			],
			"outputs": [],
			"stateMutability": "nonpayable"
		},
		{
			"type": "function",
			"name": "addToBalanceOf",
			"inputs": [
				{
					"name": "projectId",
					"type": "uint256",
					"internalType": "uint256"
				},
				{
					"name": "token",
					"type": "address",
					"internalType": "address"
				},
				{
					"name": "amount",
					"type": "uint256",
					"internalType": "uint256"
				},
				{
					"name": "shouldReturnHeldFees",
					"type": "bool",
					"internalType": "bool"
				},
				{
					"name": "memo",
					"type": "string",
					"internalType": "string"
				},
				{
					"name": "metadata",
					"type": "bytes",
					"internalType": "bytes"
				}
			],
			"outputs": [],
			"stateMutability": "payable"
		},
		{
			"type": "function",
			"name": "currentSurplusOf",
			"inputs": [
				{
					"name": "projectId",
					"type": "uint256",
					"internalType": "uint256"
				},
				{
					"name": "decimals",
					"type": "uint256",
					"internalType": "uint256"
				},
				{
					"name": "currency",
					"type": "uint256",
					"internalType": "uint256"
				}
			],
			"outputs": [
				{
					"name": "",
					"type": "uint256",
					"internalType": "uint256"
				}
			],
			"stateMutability": "view"
		},
		{
			"type": "function",
			"name": "executePayout",
			"inputs": [
				{
					"name": "split",
					"type": "tuple",
					"internalType": "struct JBSplit",
					"components": [
						{
							"name": "preferAddToBalance",
							"type": "bool",
							"internalType": "bool"
						},
						{
							"name": "percent",
							"type": "uint32",
							"internalType": "uint32"
						},
						{
							"name": "projectId",
							"type": "uint56",
							"internalType": "uint56"
						},
						{
							"name": "beneficiary",
							"type": "address",
							"internalType": "address payable"
						},
						{
							"name": "lockedUntil",
							"type": "uint48",
							"internalType": "uint48"
						},
						{
							"name": "hook",
							"type": "address",
							"internalType": "contract IJBSplitHook"
						}
					]
				},
				{
					"name": "projectId",
					"type": "uint256",
					"internalType": "uint256"
				},
				{
					"name": "token",
					"type": "address",
					"internalType": "address"
				},
				{
					"name": "amount",
					"type": "uint256",
					"internalType": "uint256"
				},
				{
					"name": "originalMessageSender",
					"type": "address",
					"internalType": "address"
				}
			],
			"outputs": [
				{
					"name": "netPayoutAmount",
					"type": "uint256",
					"internalType": "uint256"
				}
			],
			"stateMutability": "nonpayable"
		},
		{
			"type": "function",
			"name": "executeProcessFee",
			"inputs": [
				{
					"name": "projectId",
					"type": "uint256",
					"internalType": "uint256"
				},
				{
					"name": "token",
					"type": "address",
					"internalType": "address"
				},
				{
					"name": "amount",
					"type": "uint256",
					"internalType": "uint256"
				},
				{
					"name": "beneficiary",
					"type": "address",
					"internalType": "address"
				},
				{
					"name": "feeTerminal",
					"type": "address",
					"internalType": "contract IJBTerminal"
				}
			],
			"outputs": [],
			"stateMutability": "nonpayable"
		},
		{
			"type": "function",
			"name": "heldFeesOf",
			"inputs": [
				{
					"name": "projectId",
					"type": "uint256",
					"internalType": "uint256"
				},
				{
					"name": "token",
					"type": "address",
					"internalType": "address"
				}
			],
			"outputs": [
				{
					"name": "",
					"type": "tuple[]",
					"internalType": "struct JBFee[]",
					"components": [
						{
							"name": "amount",
							"type": "uint256",
							"internalType": "uint256"
						},
						{
							"name": "beneficiary",
							"type": "address",
							"internalType": "address"
						},
						{
							"name": "unlockTimestamp",
							"type": "uint48",
							"internalType": "uint48"
						}
					]
				}
			],
			"stateMutability": "view"
		},
		{
			"type": "function",
			"name": "isTrustedForwarder",
			"inputs": [
				{
					"name": "forwarder",
					"type": "address",
					"internalType": "address"
				}
			],
			"outputs": [
				{
					"name": "",
					"type": "bool",
					"internalType": "bool"
				}
			],
			"stateMutability": "view"
		},
		{
			"type": "function",
			"name": "migrateBalanceOf",
			"inputs": [
				{
					"name": "projectId",
					"type": "uint256",
					"internalType": "uint256"
				},
				{
					"name": "token",
					"type": "address",
					"internalType": "address"
				},
				{
					"name": "to",
					"type": "address",
					"internalType": "contract IJBTerminal"
				}
			],
			"outputs": [
				{
					"name": "balance",
					"type": "uint256",
					"internalType": "uint256"
				}
			],
			"stateMutability": "nonpayable"
		},
		{
			"type": "function",
			"name": "pay",
			"inputs": [
				{
					"name": "projectId",
					"type": "uint256",
					"internalType": "uint256"
				},
				{
					"name": "token",
					"type": "address",
					"internalType": "address"
				},
				{
					"name": "amount",
					"type": "uint256",
					"internalType": "uint256"
				},
				{
					"name": "beneficiary",
					"type": "address",
					"internalType": "address"
				},
				{
					"name": "minReturnedTokens",
					"type": "uint256",
					"internalType": "uint256"
				},
				{
					"name": "memo",
					"type": "string",
					"internalType": "string"
				},
				{
					"name": "metadata",
					"type": "bytes",
					"internalType": "bytes"
				}
			],
			"outputs": [
				{
					"name": "beneficiaryTokenCount",
					"type": "uint256",
					"internalType": "uint256"
				}
			],
			"stateMutability": "payable"
		},
		{
			"type": "function",
			"name": "processHeldFeesOf",
			"inputs": [
				{
					"name": "projectId",
					"type": "uint256",
					"internalType": "uint256"
				},
				{
					"name": "token",
					"type": "address",
					"internalType": "address"
				}
			],
			"outputs": [],
			"stateMutability": "nonpayable"
		},
		{
			"type": "function",
			"name": "redeemTokensOf",
			"inputs": [
				{
					"name": "holder",
					"type": "address",
					"internalType": "address"
				},
				{
					"name": "projectId",
					"type": "uint256",
					"internalType": "uint256"
				},
				{
					"name": "tokenToReclaim",
					"type": "address",
					"internalType": "address"
				},
				{
					"name": "redeemCount",
					"type": "uint256",
					"internalType": "uint256"
				},
				{
					"name": "minTokensReclaimed",
					"type": "uint256",
					"internalType": "uint256"
				},
				{
					"name": "beneficiary",
					"type": "address",
					"internalType": "address payable"
				},
				{
					"name": "metadata",
					"type": "bytes",
					"internalType": "bytes"
				}
			],
			"outputs": [
				{
					"name": "reclaimAmount",
					"type": "uint256",
					"internalType": "uint256"
				}
			],
			"stateMutability": "nonpayable"
		},
		{
			"type": "function",
			"name": "sendPayoutsOf",
			"inputs": [
				{
					"name": "projectId",
					"type": "uint256",
					"internalType": "uint256"
				},
				{
					"name": "token",
					"type": "address",
					"internalType": "address"
				},
				{
					"name": "amount",
					"type": "uint256",
					"internalType": "uint256"
				},
				{
					"name": "currency",
					"type": "uint256",
					"internalType": "uint256"
				},
				{
					"name": "minTokensPaidOut",
					"type": "uint256",
					"internalType": "uint256"
				}
			],
			"outputs": [
				{
					"name": "amountPaidOut",
					"type": "uint256",
					"internalType": "uint256"
				}
			],
			"stateMutability": "nonpayable"
		},
		{
			"type": "function",
			"name": "supportsInterface",
			"inputs": [
				{
					"name": "interfaceId",
					"type": "bytes4",
					"internalType": "bytes4"
				}
			],
			"outputs": [
				{
					"name": "",
					"type": "bool",
					"internalType": "bool"
				}
			],
			"stateMutability": "pure"
		},
		{
			"type": "function",
			"name": "trustedForwarder",
			"inputs": [],
			"outputs": [
				{
					"name": "",
					"type": "address",
					"internalType": "address"
				}
			],
			"stateMutability": "view"
		},
		{
			"type": "function",
			"name": "useAllowanceOf",
			"inputs": [
				{
					"name": "projectId",
					"type": "uint256",
					"internalType": "uint256"
				},
				{
					"name": "token",
					"type": "address",
					"internalType": "address"
				},
				{
					"name": "amount",
					"type": "uint256",
					"internalType": "uint256"
				},
				{
					"name": "currency",
					"type": "uint256",
					"internalType": "uint256"
				},
				{
					"name": "minTokensPaidOut",
					"type": "uint256",
					"internalType": "uint256"
				},
				{
					"name": "beneficiary",
					"type": "address",
					"internalType": "address payable"
				},
				{
					"name": "memo",
					"type": "string",
					"internalType": "string"
				}
			],
			"outputs": [
				{
					"name": "amountPaidOut",
					"type": "uint256",
					"internalType": "uint256"
				}
			],
			"stateMutability": "nonpayable"
		},
		{
			"type": "event",
			"name": "AddToBalance",
			"inputs": [
				{
					"name": "projectId",
					"type": "uint256",
					"indexed": true,
					"internalType": "uint256"
				},
				{
					"name": "amount",
					"type": "uint256",
					"indexed": false,
					"internalType": "uint256"
				},
				{
					"name": "unlockedFees",
					"type": "uint256",
					"indexed": false,
					"internalType": "uint256"
				},
				{
					"name": "memo",
					"type": "string",
					"indexed": false,
					"internalType": "string"
				},
				{
					"name": "metadata",
					"type": "bytes",
					"indexed": false,
					"internalType": "bytes"
				},
				{
					"name": "caller",
					"type": "address",
					"indexed": false,
					"internalType": "address"
				}
			],
			"anonymous": false
		},
		{
			"type": "event",
			"name": "FeeReverted",
			"inputs": [
				{
					"name": "projectId",
					"type": "uint256",
					"indexed": true,
					"internalType": "uint256"
				},
				{
					"name": "token",
					"type": "address",
					"indexed": true,
					"internalType": "address"
				},
				{
					"name": "feeProjectId",
					"type": "uint256",
					"indexed": true,
					"internalType": "uint256"
				},
				{
					"name": "amount",
					"type": "uint256",
					"indexed": false,
					"internalType": "uint256"
				},
				{
					"name": "reason",
					"type": "bytes",
					"indexed": false,
					"internalType": "bytes"
				},
				{
					"name": "caller",
					"type": "address",
					"indexed": false,
					"internalType": "address"
				}
			],
			"anonymous": false
		},
		{
			"type": "event",
			"name": "HoldFee",
			"inputs": [
				{
					"name": "projectId",
					"type": "uint256",
					"indexed": true,
					"internalType": "uint256"
				},
				{
					"name": "token",
					"type": "address",
					"indexed": true,
					"internalType": "address"
				},
				{
					"name": "amount",
					"type": "uint256",
					"indexed": true,
					"internalType": "uint256"
				},
				{
					"name": "fee",
					"type": "uint256",
					"indexed": false,
					"internalType": "uint256"
				},
				{
					"name": "beneficiary",
					"type": "address",
					"indexed": false,
					"internalType": "address"
				},
				{
					"name": "caller",
					"type": "address",
					"indexed": false,
					"internalType": "address"
				}
			],
			"anonymous": false
		},
		{
			"type": "event",
			"name": "HookAfterRecordPay",
			"inputs": [
				{
					"name": "hook",
					"type": "address",
					"indexed": true,
					"internalType": "contract IJBPayHook"
				},
				{
					"name": "context",
					"type": "tuple",
					"indexed": false,
					"internalType": "struct JBAfterPayRecordedContext",
					"components": [
						{
							"name": "payer",
							"type": "address",
							"internalType": "address"
						},
						{
							"name": "projectId",
							"type": "uint256",
							"internalType": "uint256"
						},
						{
							"name": "rulesetId",
							"type": "uint256",
							"internalType": "uint256"
						},
						{
							"name": "amount",
							"type": "tuple",
							"internalType": "struct JBTokenAmount",
							"components": [
								{
									"name": "token",
									"type": "address",
									"internalType": "address"
								},
								{
									"name": "decimals",
									"type": "uint8",
									"internalType": "uint8"
								},
								{
									"name": "currency",
									"type": "uint32",
									"internalType": "uint32"
								},
								{
									"name": "value",
									"type": "uint256",
									"internalType": "uint256"
								}
							]
						},
						{
							"name": "forwardedAmount",
							"type": "tuple",
							"internalType": "struct JBTokenAmount",
							"components": [
								{
									"name": "token",
									"type": "address",
									"internalType": "address"
								},
								{
									"name": "decimals",
									"type": "uint8",
									"internalType": "uint8"
								},
								{
									"name": "currency",
									"type": "uint32",
									"internalType": "uint32"
								},
								{
									"name": "value",
									"type": "uint256",
									"internalType": "uint256"
								}
							]
						},
						{
							"name": "weight",
							"type": "uint256",
							"internalType": "uint256"
						},
						{
							"name": "projectTokenCount",
							"type": "uint256",
							"internalType": "uint256"
						},
						{
							"name": "beneficiary",
							"type": "address",
							"internalType": "address"
						},
						{
							"name": "hookMetadata",
							"type": "bytes",
							"internalType": "bytes"
						},
						{
							"name": "payerMetadata",
							"type": "bytes",
							"internalType": "bytes"
						}
					]
				},
				{
					"name": "specificationAmount",
					"type": "uint256",
					"indexed": false,
					"internalType": "uint256"
				},
				{
					"name": "caller",
					"type": "address",
					"indexed": false,
					"internalType": "address"
				}
			],
			"anonymous": false
		},
		{
			"type": "event",
			"name": "HookAfterRecordRedeem",
			"inputs": [
				{
					"name": "hook",
					"type": "address",
					"indexed": true,
					"internalType": "contract IJBRedeemHook"
				},
				{
					"name": "context",
					"type": "tuple",
					"indexed": false,
					"internalType": "struct JBAfterRedeemRecordedContext",
					"components": [
						{
							"name": "holder",
							"type": "address",
							"internalType": "address"
						},
						{
							"name": "projectId",
							"type": "uint256",
							"internalType": "uint256"
						},
						{
							"name": "rulesetId",
							"type": "uint256",
							"internalType": "uint256"
						},
						{
							"name": "redeemCount",
							"type": "uint256",
							"internalType": "uint256"
						},
						{
							"name": "reclaimedAmount",
							"type": "tuple",
							"internalType": "struct JBTokenAmount",
							"components": [
								{
									"name": "token",
									"type": "address",
									"internalType": "address"
								},
								{
									"name": "decimals",
									"type": "uint8",
									"internalType": "uint8"
								},
								{
									"name": "currency",
									"type": "uint32",
									"internalType": "uint32"
								},
								{
									"name": "value",
									"type": "uint256",
									"internalType": "uint256"
								}
							]
						},
						{
							"name": "forwardedAmount",
							"type": "tuple",
							"internalType": "struct JBTokenAmount",
							"components": [
								{
									"name": "token",
									"type": "address",
									"internalType": "address"
								},
								{
									"name": "decimals",
									"type": "uint8",
									"internalType": "uint8"
								},
								{
									"name": "currency",
									"type": "uint32",
									"internalType": "uint32"
								},
								{
									"name": "value",
									"type": "uint256",
									"internalType": "uint256"
								}
							]
						},
						{
							"name": "redemptionRate",
							"type": "uint256",
							"internalType": "uint256"
						},
						{
							"name": "beneficiary",
							"type": "address",
							"internalType": "address payable"
						},
						{
							"name": "hookMetadata",
							"type": "bytes",
							"internalType": "bytes"
						},
						{
							"name": "redeemerMetadata",
							"type": "bytes",
							"internalType": "bytes"
						}
					]
				},
				{
					"name": "specificationAmount",
					"type": "uint256",
					"indexed": false,
					"internalType": "uint256"
				},
				{
					"name": "fee",
					"type": "uint256",
					"indexed": false,
					"internalType": "uint256"
				},
				{
					"name": "caller",
					"type": "address",
					"indexed": false,
					"internalType": "address"
				}
			],
			"anonymous": false
		},
		{
			"type": "event",
			"name": "MigrateTerminal",
			"inputs": [
				{
					"name": "projectId",
					"type": "uint256",
					"indexed": true,
					"internalType": "uint256"
				},
				{
					"name": "token",
					"type": "address",
					"indexed": true,
					"internalType": "address"
				},
				{
					"name": "to",
					"type": "address",
					"indexed": true,
					"internalType": "contract IJBTerminal"
				},
				{
					"name": "amount",
					"type": "uint256",
					"indexed": false,
					"internalType": "uint256"
				},
				{
					"name": "caller",
					"type": "address",
					"indexed": false,
					"internalType": "address"
				}
			],
			"anonymous": false
		},
		{
			"type": "event",
			"name": "Pay",
			"inputs": [
				{
					"name": "rulesetId",
					"type": "uint256",
					"indexed": true,
					"internalType": "uint256"
				},
				{
					"name": "rulesetCycleNumber",
					"type": "uint256",
					"indexed": true,
					"internalType": "uint256"
				},
				{
					"name": "projectId",
					"type": "uint256",
					"indexed": true,
					"internalType": "uint256"
				},
				{
					"name": "payer",
					"type": "address",
					"indexed": false,
					"internalType": "address"
				},
				{
					"name": "beneficiary",
					"type": "address",
					"indexed": false,
					"internalType": "address"
				},
				{
					"name": "amount",
					"type": "uint256",
					"indexed": false,
					"internalType": "uint256"
				},
				{
					"name": "beneficiaryTokenCount",
					"type": "uint256",
					"indexed": false,
					"internalType": "uint256"
				},
				{
					"name": "memo",
					"type": "string",
					"indexed": false,
					"internalType": "string"
				},
				{
					"name": "metadata",
					"type": "bytes",
					"indexed": false,
					"internalType": "bytes"
				},
				{
					"name": "caller",
					"type": "address",
					"indexed": false,
					"internalType": "address"
				}
			],
			"anonymous": false
		},
		{
			"type": "event",
			"name": "PayoutReverted",
			"inputs": [
				{
					"name": "projectId",
					"type": "uint256",
					"indexed": true,
					"internalType": "uint256"
				},
				{
					"name": "split",
					"type": "tuple",
					"indexed": false,
					"internalType": "struct JBSplit",
					"components": [
						{
							"name": "preferAddToBalance",
							"type": "bool",
							"internalType": "bool"
						},
						{
							"name": "percent",
							"type": "uint32",
							"internalType": "uint32"
						},
						{
							"name": "projectId",
							"type": "uint56",
							"internalType": "uint56"
						},
						{
							"name": "beneficiary",
							"type": "address",
							"internalType": "address payable"
						},
						{
							"name": "lockedUntil",
							"type": "uint48",
							"internalType": "uint48"
						},
						{
							"name": "hook",
							"type": "address",
							"internalType": "contract IJBSplitHook"
						}
					]
				},
				{
					"name": "amount",
					"type": "uint256",
					"indexed": false,
					"internalType": "uint256"
				},
				{
					"name": "reason",
					"type": "bytes",
					"indexed": false,
					"internalType": "bytes"
				},
				{
					"name": "caller",
					"type": "address",
					"indexed": false,
					"internalType": "address"
				}
			],
			"anonymous": false
		},
		{
			"type": "event",
			"name": "ProcessFee",
			"inputs": [
				{
					"name": "projectId",
					"type": "uint256",
					"indexed": true,
					"internalType": "uint256"
				},
				{
					"name": "token",
					"type": "address",
					"indexed": true,
					"internalType": "address"
				},
				{
					"name": "amount",
					"type": "uint256",
					"indexed": true,
					"internalType": "uint256"
				},
				{
					"name": "wasHeld",
					"type": "bool",
					"indexed": false,
					"internalType": "bool"
				},
				{
					"name": "beneficiary",
					"type": "address",
					"indexed": false,
					"internalType": "address"
				},
				{
					"name": "caller",
					"type": "address",
					"indexed": false,
					"internalType": "address"
				}
			],
			"anonymous": false
		},
		{
			"type": "event",
			"name": "RedeemTokens",
			"inputs": [
				{
					"name": "rulesetId",
					"type": "uint256",
					"indexed": true,
					"internalType": "uint256"
				},
				{
					"name": "rulesetCycleNumber",
					"type": "uint256",
					"indexed": true,
					"internalType": "uint256"
				},
				{
					"name": "projectId",
					"type": "uint256",
					"indexed": true,
					"internalType": "uint256"
				},
				{
					"name": "holder",
					"type": "address",
					"indexed": false,
					"internalType": "address"
				},
				{
					"name": "beneficiary",
					"type": "address",
					"indexed": false,
					"internalType": "address"
				},
				{
					"name": "tokenCount",
					"type": "uint256",
					"indexed": false,
					"internalType": "uint256"
				},
				{
					"name": "redemptionRate",
					"type": "uint256",
					"indexed": false,
					"internalType": "uint256"
				},
				{
					"name": "reclaimedAmount",
					"type": "uint256",
					"indexed": false,
					"internalType": "uint256"
				},
				{
					"name": "metadata",
					"type": "bytes",
					"indexed": false,
					"internalType": "bytes"
				},
				{
					"name": "caller",
					"type": "address",
					"indexed": false,
					"internalType": "address"
				}
			],
			"anonymous": false
		},
		{
			"type": "event",
			"name": "ReturnHeldFees",
			"inputs": [
				{
					"name": "projectId",
					"type": "uint256",
					"indexed": true,
					"internalType": "uint256"
				},
				{
					"name": "token",
					"type": "address",
					"indexed": true,
					"internalType": "address"
				},
				{
					"name": "amount",
					"type": "uint256",
					"indexed": true,
					"internalType": "uint256"
				},
				{
					"name": "returnedFees",
					"type": "uint256",
					"indexed": false,
					"internalType": "uint256"
				},
				{
					"name": "leftoverAmount",
					"type": "uint256",
					"indexed": false,
					"internalType": "uint256"
				},
				{
					"name": "caller",
					"type": "address",
					"indexed": false,
					"internalType": "address"
				}
			],
			"anonymous": false
		},
		{
			"type": "event",
			"name": "SendPayoutToSplit",
			"inputs": [
				{
					"name": "projectId",
					"type": "uint256",
					"indexed": true,
					"internalType": "uint256"
				},
				{
					"name": "rulesetId",
					"type": "uint256",
					"indexed": true,
					"internalType": "uint256"
				},
				{
					"name": "group",
					"type": "uint256",
					"indexed": true,
					"internalType": "uint256"
				},
				{
					"name": "split",
					"type": "tuple",
					"indexed": false,
					"internalType": "struct JBSplit",
					"components": [
						{
							"name": "preferAddToBalance",
							"type": "bool",
							"internalType": "bool"
						},
						{
							"name": "percent",
							"type": "uint32",
							"internalType": "uint32"
						},
						{
							"name": "projectId",
							"type": "uint56",
							"internalType": "uint56"
						},
						{
							"name": "beneficiary",
							"type": "address",
							"internalType": "address payable"
						},
						{
							"name": "lockedUntil",
							"type": "uint48",
							"internalType": "uint48"
						},
						{
							"name": "hook",
							"type": "address",
							"internalType": "contract IJBSplitHook"
						}
					]
				},
				{
					"name": "amount",
					"type": "uint256",
					"indexed": false,
					"internalType": "uint256"
				},
				{
					"name": "netAmount",
					"type": "uint256",
					"indexed": false,
					"internalType": "uint256"
				},
				{
					"name": "caller",
					"type": "address",
					"indexed": false,
					"internalType": "address"
				}
			],
			"anonymous": false
		},
		{
			"type": "event",
			"name": "SendPayouts",
			"inputs": [
				{
					"name": "rulesetId",
					"type": "uint256",
					"indexed": true,
					"internalType": "uint256"
				},
				{
					"name": "rulesetCycleNumber",
					"type": "uint256",
					"indexed": true,
					"internalType": "uint256"
				},
				{
					"name": "projectId",
					"type": "uint256",
					"indexed": true,
					"internalType": "uint256"
				},
				{
					"name": "beneficiary",
					"type": "address",
					"indexed": false,
					"internalType": "address"
				},
				{
					"name": "amount",
					"type": "uint256",
					"indexed": false,
					"internalType": "uint256"
				},
				{
					"name": "amountPaidOut",
					"type": "uint256",
					"indexed": false,
					"internalType": "uint256"
				},
				{
					"name": "fee",
					"type": "uint256",
					"indexed": false,
					"internalType": "uint256"
				},
				{
					"name": "beneficiaryDistributionAmount",
					"type": "uint256",
					"indexed": false,
					"internalType": "uint256"
				},
				{
					"name": "caller",
					"type": "address",
					"indexed": false,
					"internalType": "address"
				}
			],
			"anonymous": false
		},
		{
			"type": "event",
			"name": "SetAccountingContext",
			"inputs": [
				{
					"name": "projectId",
					"type": "uint256",
					"indexed": true,
					"internalType": "uint256"
				},
				{
					"name": "context",
					"type": "tuple",
					"indexed": false,
					"internalType": "struct JBAccountingContext",
					"components": [
						{
							"name": "token",
							"type": "address",
							"internalType": "address"
						},
						{
							"name": "decimals",
							"type": "uint8",
							"internalType": "uint8"
						},
						{
							"name": "currency",
							"type": "uint32",
							"internalType": "uint32"
						}
					]
				},
				{
					"name": "caller",
					"type": "address",
					"indexed": false,
					"internalType": "address"
				}
			],
			"anonymous": false
		},
		{
			"type": "event",
			"name": "UseAllowance",
			"inputs": [
				{
					"name": "rulesetId",
					"type": "uint256",
					"indexed": true,
					"internalType": "uint256"
				},
				{
					"name": "rulesetCycleNumber",
					"type": "uint256",
					"indexed": true,
					"internalType": "uint256"
				},
				{
					"name": "projectId",
					"type": "uint256",
					"indexed": true,
					"internalType": "uint256"
				},
				{
					"name": "beneficiary",
					"type": "address",
					"indexed": false,
					"internalType": "address"
				},
				{
					"name": "amount",
					"type": "uint256",
					"indexed": false,
					"internalType": "uint256"
				},
				{
					"name": "amountPaidOut",
					"type": "uint256",
					"indexed": false,
					"internalType": "uint256"
				},
				{
					"name": "netAmountPaidOut",
					"type": "uint256",
					"indexed": false,
					"internalType": "uint256"
				},
				{
					"name": "memo",
					"type": "string",
					"indexed": false,
					"internalType": "string"
				},
				{
					"name": "caller",
					"type": "address",
					"indexed": false,
					"internalType": "address"
				}
			],
			"anonymous": false
		},
		{
			"type": "error",
			"name": "ACCOUNTING_CONTEXT_ALREADY_SET",
			"inputs": []
		},
		{
			"type": "error",
			"name": "ADDING_ACCOUNTING_CONTEXT_NOT_ALLOWED",
			"inputs": []
		},
		{
			"type": "error",
			"name": "AddressEmptyCode",
			"inputs": [
				{
					"name": "target",
					"type": "address",
					"internalType": "address"
				}
			]
		},
		{
			"type": "error",
			"name": "AddressInsufficientBalance",
			"inputs": [
				{
					"name": "account",
					"type": "address",
					"internalType": "address"
				}
			]
		},
		{
			"type": "error",
			"name": "FEE_TERMINAL_NOT_FOUND",
			"inputs": []
		},
		{
			"type": "error",
			"name": "FailedInnerCall",
			"inputs": []
		},
		{
			"type": "error",
			"name": "INVALID_ACCOUNTING_CONTEXT_CURRENCY",
			"inputs": []
		},
		{
			"type": "error",
			"name": "INVALID_ACCOUNTING_CONTEXT_DECIMALS",
			"inputs": []
		},
		{
			"type": "error",
			"name": "NO_MSG_VALUE_ALLOWED",
			"inputs": []
		},
		{
			"type": "error",
			"name": "OVERFLOW_ALERT",
			"inputs": []
		},
		{
			"type": "error",
			"name": "PERMIT_ALLOWANCE_NOT_ENOUGH",
			"inputs": []
		},
		{
			"type": "error",
			"name": "PRBMath_MulDiv_Overflow",
			"inputs": [
				{
					"name": "x",
					"type": "uint256",
					"internalType": "uint256"
				},
				{
					"name": "y",
					"type": "uint256",
					"internalType": "uint256"
				},
				{
					"name": "denominator",
					"type": "uint256",
					"internalType": "uint256"
				}
			]
		},
		{
			"type": "error",
			"name": "RECIPIENT_PROJECT_TERMINAL_NOT_FOUND",
			"inputs": []
		},
		{
			"type": "error",
			"name": "SPLIT_HOOK_INVALID",
			"inputs": []
		},
		{
			"type": "error",
			"name": "SafeERC20FailedOperation",
			"inputs": [
				{
					"name": "token",
					"type": "address",
					"internalType": "address"
				}
			]
		},
		{
			"type": "error",
			"name": "TERMINAL_TOKENS_INCOMPATIBLE",
			"inputs": []
		},
		{
			"type": "error",
			"name": "TOKEN_NOT_ACCEPTED",
			"inputs": []
		},
		{
			"type": "error",
			"name": "UNAUTHORIZED",
			"inputs": []
		},
		{
			"type": "error",
			"name": "UNDER_MIN_RETURNED_TOKENS",
			"inputs": []
		},
		{
			"type": "error",
			"name": "UNDER_MIN_TOKENS_PAID_OUT",
			"inputs": []
		},
		{
			"type": "error",
			"name": "UNDER_MIN_TOKENS_RECLAIMED",
			"inputs": []
		}
	],
	"solcInputHash": "bc31b432e39dd35a364a5343da785c2b",
	"args": [
		"0xcfBA13b8DCb2bb4f84C5d2704882009a539Bee9A",
		"0xf8Ea7BA8d990646420123fEAa2447B534Ab2f53c",
		"0x29f42DcF58D94204a94A22999aEeAf4E106C32bC",
		"0xeD0a1e01504710a5e40524060d2C8CE64Fa20e7C",
		"0xDA54651D13e680931628C82B30D03A908C2591Cb",
		"0x000000000022D473030F116dDEE9F6B43aC78BA3",
		"0xB2b5841DBeF766d4b521221732F9B618fCf34A87"
	],
	"bytecode": "0x6101a06040523480156200001257600080fd5b506040516200636f3803806200636f833981016040819052620000359162000176565b6001600160a01b0380881660805280821660a05286811660c052604080516388bc2ef360e01b81529051918616916388bc2ef3916004808201926020929091908290030181865afa1580156200008f573d6000803e3d6000fd5b505050506040513d601f19601f82011682018060405250810190620000b5919062000221565b6001600160a01b0390811660e052858116610100526040805163d4a1b4b160e01b815290519186169163d4a1b4b1916004808201926020929091908290030181865afa1580156200010a573d6000803e3d6000fd5b505050506040513d601f19601f8201168201806040525081019062000130919062000221565b6001600160a01b039081166101605293841661012052509082166101405216610180525062000248915050565b6001600160a01b03811681146200017357600080fd5b50565b600080600080600080600060e0888a0312156200019257600080fd5b87516200019f816200015d565b6020890151909750620001b2816200015d565b6040890151909650620001c5816200015d565b6060890151909550620001d8816200015d565b6080890151909450620001eb816200015d565b60a0890151909350620001fe816200015d565b60c089015190925062000211816200015d565b8091505092959891949750929550565b6000602082840312156200023457600080fd5b815162000241816200015d565b9392505050565b60805160a05160c05160e0516101005161012051610140516101605161018051615ff9620003766000396000818161047e01528181611dd8015261221d0152600081816105c1015261080f01526000818161044a0152611a5601526000818161035c015281816115400152818161175d0152818161232b015281816125430152818161281201528181612ab301528181612e960152818161343d01526145420152600081816101cd0152613f710152600081816104e501528181610f6d0152818161199c01528181611f450152613c3501526000818161023b01528181610757015281816113c00152818161161d015281816125df01528181612b650152612bf90152600081816103c8015281816104af0152613075015260008181610615015261247e0152615ff96000f3fe6080604052600436106101815760003560e01c80636afdd850116100d1578063c57981b51161008a578063d4a1b4b111610064578063d4a1b4b1146105af578063e28b5411146105e3578063f434c91414610603578063fef432571461063757600080fd5b8063c57981b51461055a578063cc6801271461056f578063cfaf58391461058f57600080fd5b80636afdd8501461046c5780637da0a877146104a057806388bc2ef3146104d35780639e6eec0514610507578063b62d17cf1461051a578063bb7214fe1461053a57600080fd5b80634ff513ab1161013e578063572b6c0511610118578063572b6c05146103ab5780635f912e56146103f857806362ef303614610418578063659a20471461043857600080fd5b80634ff513ab1461031c578063507f14651461034a578063515a92931461037e57600080fd5b806301ffc9a7146101865780631f47ce69146101bb578063253721c814610207578063293c49991461022957806333b306101461025d5780633a01714f1461028a575b600080fd5b34801561019257600080fd5b506101a66101a136600461483d565b61064a565b60405190151581526020015b60405180910390f35b3480156101c757600080fd5b506101ef7f000000000000000000000000000000000000000000000000000000000000000081565b6040516001600160a01b0390911681526020016101b2565b34801561021357600080fd5b50610227610222366004614867565b61073d565b005b34801561023557600080fd5b506101ef7f000000000000000000000000000000000000000000000000000000000000000081565b34801561026957600080fd5b5061027d6102783660046148fa565b610c93565b6040516101b2919061492a565b34801561029657600080fd5b5061030f6102a53660046148fa565b6040805160608082018352600080835260208084018290529284018190529485528482528285206001600160a01b03948516865282529382902082519485018352549283168452600160a01b830460ff1690840152600160a81b90910463ffffffff169082015290565b6040516101b291906149bf565b34801561032857600080fd5b5061033c6103373660046149cd565b610d3d565b6040519081526020016101b2565b34801561035657600080fd5b506101ef7f000000000000000000000000000000000000000000000000000000000000000081565b34801561038a57600080fd5b5061039e610399366004614a35565b6111d9565b6040516101b29190614a94565b3480156103b757600080fd5b506101a66103c6366004614aa7565b7f00000000000000000000000000000000000000000000000000000000000000006001600160a01b0390811691161490565b34801561040457600080fd5b50610227610413366004614ac4565b611273565b34801561042457600080fd5b506102276104333660046148fa565b6112fe565b34801561044457600080fd5b506101ef7f000000000000000000000000000000000000000000000000000000000000000081565b34801561047857600080fd5b506101ef7f000000000000000000000000000000000000000000000000000000000000000081565b3480156104ac57600080fd5b507f00000000000000000000000000000000000000000000000000000000000000006101ef565b3480156104df57600080fd5b506101ef7f000000000000000000000000000000000000000000000000000000000000000081565b610227610515366004614b64565b61130e565b34801561052657600080fd5b5061033c610535366004614c0b565b61139b565b34801561054657600080fd5b5061033c610555366004614c85565b6114a6565b34801561056657600080fd5b5061033c601981565b34801561057b57600080fd5b5061033c61058a366004614ce1565b61151b565b34801561059b57600080fd5b5061033c6105aa366004614d0d565b6115c7565b3480156105bb57600080fd5b506101ef7f000000000000000000000000000000000000000000000000000000000000000081565b3480156105ef57600080fd5b5061033c6105fe366004614d55565b6115f8565b34801561060f57600080fd5b506101ef7f000000000000000000000000000000000000000000000000000000000000000081565b61033c610645366004614d97565b6118c6565b60006001600160e01b03198216633a1909d760e01b148061067b57506001600160e01b03198216633d0d324560e21b145b8061069557506001600160e01b031982166201549760e41b145b806106b057506001600160e01b03198216635db90a7f60e11b145b806106cb57506001600160e01b031982166336775c5d60e01b145b806106e657506001600160e01b031982166306afdd8560e41b145b8061070157506001600160e01b03198216633a1909d760e01b145b8061071c57506001600160e01b031982166357175cc160e11b145b8061073757506001600160e01b031982166301ffc9a760e01b145b92915050565b6040516331a9108f60e11b8152600481018490526107f6907f00000000000000000000000000000000000000000000000000000000000000006001600160a01b031690636352211e90602401602060405180830381865afa1580156107a6573d6000803e3d6000fd5b505050506040513d601f19601f820116820180604052508101906107ca9190614e4a565b8460136107d682611983565b6001600160a01b03166107e7611a0f565b6001600160a01b031614611a1e565b6040516321d1336160e11b8152600481018490526000907f00000000000000000000000000000000000000000000000000000000000000006001600160a01b0316906343a266c29060240161012060405180830381865afa15801561085f573d6000803e3d6000fd5b505050506040513d601f19601f820116820180604052508101906108839190615050565b9050806020015165ffffffffffff166000141580156108ae5750610100810151604b1c600190811614155b156108cc5760405163999dc13360e01b815260040160405180910390fd5b6040805160608101825260008082526020820181905291810182905283915b82811015610c8a578585828181106109055761090561506d565b90506060020180360381019061091b9190615092565b60008881526020818152604080832084516001600160a01b039081168552925290912080549294509116156109635760405163b83f909160e01b815260040160405180910390fd5b82516000906001600160a01b031661eeee1480156109895750836020015160ff16601214155b1561099657506001610aa0565b83516001600160a01b031661eeee14610aa05783516040516301ffc9a760e01b815263a219a02560e01b60048201526001600160a01b03909116906301ffc9a790602401602060405180830381865afa925050508015610a13575060408051601f3d908101601f19168201909252610a10918101906150e6565b60015b15610aa057808015610a94575084600001516001600160a01b031663313ce5676040518163ffffffff1660e01b8152600401602060405180830381865afa158015610a62573d6000803e3d6000fd5b505050506040513d601f19601f82011682018060405250810190610a869190615103565b60ff16856020015160ff1614155b15610a9e57600191505b505b8015610abf5760405163181b8fcf60e01b815260040160405180910390fd5b836040015163ffffffff16600003610aea57604051639088580360e01b815260040160405180910390fd5b83600001518260000160006101000a8154816001600160a01b0302191690836001600160a01b0316021790555083602001518260000160146101000a81548160ff021916908360ff16021790555083604001518260000160156101000a81548163ffffffff021916908363ffffffff160217905550600160008a815260200190815260200160002082908060018154018082558091505060019003906000526020600020016000909190919091506000820160009054906101000a90046001600160a01b03168160000160006101000a8154816001600160a01b0302191690836001600160a01b031602179055506000820160149054906101000a900460ff168160000160146101000a81548160ff021916908360ff1602179055506000820160159054906101000a900463ffffffff168160000160156101000a81548163ffffffff021916908363ffffffff1602179055505050887fec91efc21eddd12fa66398fea3251c0e0b95bc53f0cdde2cd2c52e94bf11e07883610c6a611a0f565b604051610c7892919061514b565b60405180910390a250506001016108eb565b50505050505050565b60008281526002602090815260408083206001600160a01b03851684528252808320805482518185028101850190935280835260609492939192909184015b82821015610d315760008481526020908190206040805160608101825260028602909201805483526001908101546001600160a01b03811684860152600160a01b900465ffffffffffff16918301919091529083529092019101610cd2565b50505050905092915050565b6000333014610d4b57600080fd5b50816000610d5f60c0880160a08901614aa7565b6001600160a01b031614610f4357610d7d60c0870160a08801614aa7565b6040516301ffc9a760e01b815262dcdc5760e41b60048201526001600160a01b0391909116906301ffc9a790602401602060405180830381865afa158015610dc9573d6000803e3d6000fd5b505050506040513d601f19601f82011682018060405250810190610ded91906150e6565b610e0a57604051639a2c4ffd60e01b815260040160405180910390fd5b610e22610e1d60c0880160a08901614aa7565b611a34565b610e3e57610e31836019611ac3565b610e3b9082615187565b90505b6040805160c0810182526001600160a01b0386168082526020808301859052600089815280825284812083825290915283812054600160a01b900460ff169383019390935260608201889052608082015260a08101610ea2368a90038a018a6151af565b90529050610ec0610eb960c0890160a08a01614aa7565b8684611ae5565b6000610ecc8684611b16565b9050610ede60c0890160a08a01614aa7565b6001600160a01b0316630dcdc57082846040518363ffffffff1660e01b8152600401610f0a919061529b565b6000604051808303818588803b158015610f2357600080fd5b505af1158015610f37573d6000803e3d6000fd5b505050505050506111d0565b610f5360608701604088016152ef565b66ffffffffffffff16156111645760006001600160a01b037f0000000000000000000000000000000000000000000000000000000000000000166386202650610fa260608a0160408b016152ef565b6040516001600160e01b031960e084901b16815266ffffffffffffff90911660048201526001600160a01b0388166024820152604401602060405180830381865afa158015610ff5573d6000803e3d6000fd5b505050506040513d601f19601f820116820180604052508101906110199190614e4a565b90506001600160a01b0381166110425760405163e847fa5d60e01b815260040160405180910390fd5b6001600160a01b0381163014801590611061575061105f81611a34565b155b1561107e57611071846019611ac3565b61107b9083615187565b91505b6001600160a01b038116301461109957611099818684611ae5565b6000866040516020016110ae91815260200190565b60408051601f1981840301815291905290506110cd602089018961530c565b156110fc576110f7826110e660608b0160408c016152ef565b66ffffffffffffff16888685611b37565b61115d565b60008061110f60808b0160608c01614aa7565b6001600160a01b0316036111235784611133565b61113360808a0160608b01614aa7565b905061115b8361114960608c0160408d016152ef565b66ffffffffffffff1689878587611be9565b505b50506111d0565b6000806111776080890160608a01614aa7565b6001600160a01b03160361118b578261119b565b61119b6080880160608901614aa7565b90506111a681611a34565b6111c2576111b5846019611ac3565b6111bf9083615187565b91505b6111ce30828785611ca6565b505b95945050505050565b606060016000838152602001908152602001600020805480602002602001604051908101604052809291908181526020016000905b8282101561126857600084815260209081902060408051606081018252918501546001600160a01b0381168352600160a01b810460ff1683850152600160a81b900463ffffffff169082015282526001909201910161120e565b505050509050919050565b33301461127f57600080fd5b6001600160a01b0381166112a657604051633636ca0360e21b815260040160405180910390fd5b6001600160a01b03811630146112c1576112c1818585611ae5565b6000856040516020016112d691815260200190565b60405160208183030381529060405290506112f682600187878786611be9565b505050505050565b61130a82826000611e30565b5050565b61139188886113208b8b8b888861208e565b8888888080601f01602080910402602001604051908101604052809392919081815260200183838082843760009201919091525050604080516020601f8c018190048102820181019092528a815292508a915089908190840183828082843760009201919091525061230692505050565b5050505050505050565b6040516331a9108f60e11b815260048101899052600090611433906001600160a01b037f00000000000000000000000000000000000000000000000000000000000000001690636352211e90602401602060405180830381865afa158015611407573d6000803e3d6000fd5b505050506040513d601f19601f8201168201806040525081019061142b9190614e4a565b8a6010612412565b611477898989898888888080601f01602080910402602001604051908101604052809392919081815260200183838082843760009201919091525061250992505050565b90508481101561149a57604051633a78ee9360e11b815260040160405180910390fd5b98975050505050505050565b60006114b489896003612412565b6114f8898989898888888080601f01602080910402602001604051908101604052809392919081815260200183838082843760009201919091525061271592505050565b90508481101561149a576040516302bde58760e61b815260040160405180910390fd5b600083815260016020526040808220905163d60d1a0960e01b81526001600160a01b037f0000000000000000000000000000000000000000000000000000000000000000169163d60d1a099161157c91309189919089908990600401615329565b602060405180830381865afa158015611599573d6000803e3d6000fd5b505050506040513d601f19601f820116820180604052508101906115bd919061539a565b90505b9392505050565b60006115d586868686612a79565b9050818110156111d057604051633a78ee9360e11b815260040160405180910390fd5b6040516331a9108f60e11b815260048101849052600090611690906001600160a01b037f00000000000000000000000000000000000000000000000000000000000000001690636352211e90602401602060405180830381865afa158015611664573d6000803e3d6000fd5b505050506040513d601f19601f820116820180604052508101906116889190614e4a565b856005612412565b604051633a01714f60e01b8152600481018590526001600160a01b038481166024830152831690633a01714f90604401606060405180830381865afa1580156116dd573d6000803e3d6000fd5b505050506040513d601f19601f8201168201806040525081019061170191906153b3565b6040015163ffffffff1660000361172b5760405163581010ed60e01b815260040160405180910390fd5b61173784846001611e30565b6040516319781e2360e01b8152600481018590526001600160a01b0384811660248301527f000000000000000000000000000000000000000000000000000000000000000016906319781e23906044016020604051808303816000875af11580156117a6573d6000803e3d6000fd5b505050506040513d601f19601f820116820180604052508101906117ca919061539a565b90508015611860576117dd828483611ae5565b60006117e98483611b16565b6040805160208101825260008082529151639e6eec0560e01b81529293506001600160a01b03861692639e6eec0592859261182c928b928b928a9260040161544b565b6000604051808303818588803b15801561184557600080fd5b505af1158015611859573d6000803e3d6000fd5b5050505050505b816001600160a01b0316836001600160a01b0316857ff0aa72bb9c2a07cf43281bfe8c525ba320fdc71e18b54c9f93ab22ce074af7f68461189f611a0f565b604080519283526001600160a01b0390911660208301520160405180910390a49392505050565b60006119538a8a6118da8d8d8d898961208e565b6118e2611a0f565b8b8a8a8080601f01602080910402602001604051908101604052809392919081815260200183838082843760009201919091525050604080516020601f8e018190048102820181019092528c815292508c91508b9081908401838280828437600092019190915250612d7892505050565b905085811015611976576040516370dc561160e11b815260040160405180910390fd5b9998505050505050505050565b604051632eec7b5560e11b8152600481018290526000907f00000000000000000000000000000000000000000000000000000000000000006001600160a01b031690635dd8f6aa90602401602060405180830381865afa1580156119eb573d6000803e3d6000fd5b505050506040513d601f19601f820116820180604052508101906107379190614e4a565b6000611a19613065565b905090565b80611a2e57611a2e848484612412565b50505050565b60405163ae74a1b560e01b81526001600160a01b0382811660048301526000917f00000000000000000000000000000000000000000000000000000000000000009091169063ae74a1b590602401602060405180830381865afa158015611a9f573d6000803e3d6000fd5b505050506040513d601f19601f8201168201806040525081019061073791906150e6565b6000611adb836103e8611ad68186615499565b6130da565b6115c09084615187565b61eeed196001600160a01b03831601611afd57505050565b611b116001600160a01b03831684836131b3565b505050565b60006001600160a01b03831661eeee14611b315760006115c0565b50919050565b306001600160a01b03861603611b6a57611b6584848460006040518060200160405280600081525086612306565b611be2565b6000611b768484611b16565b9050856001600160a01b0316639e6eec05828787876000886040518763ffffffff1660e01b8152600401611bae95949392919061544b565b6000604051808303818588803b158015611bc757600080fd5b505af1158015611bdb573d6000803e3d6000fd5b5050505050505b5050505050565b306001600160a01b03871603611c1d57611c1785858530866040518060200160405280600081525087612d78565b506112f6565b6000611c298585611b16565b9050866001600160a01b031663fef4325782888888886000896040518863ffffffff1660e01b8152600401611c63969594939291906154ac565b60206040518083038185885af1158015611c81573d6000803e3d6000fd5b50505050506040513d601f19601f82011682018060405250810190611391919061539a565b61eeed196001600160a01b03831601611cc857611cc3838261323d565b611a2e565b306001600160a01b03851603611cec57611cc36001600160a01b03831684836132d4565b604051636eb1769f60e11b81526001600160a01b03858116600483015230602483015282919084169063dd62ed3e90604401602060405180830381865afa158015611d3b573d6000803e3d6000fd5b505050506040513d601f19601f82011682018060405250810190611d5f919061539a565b10611d7957611cc36001600160a01b038316858584613333565b6001600160a01b03811115611da157604051633062f38960e11b815260040160405180910390fd5b604051631b63c28b60e11b81526001600160a01b0385811660048301528481166024830152828116604483015283811660648301527f000000000000000000000000000000000000000000000000000000000000000016906336c7851690608401600060405180830381600087803b158015611e1c57600080fd5b505af1158015611391573d6000803e3d6000fd5b60008381526002602090815260408083206001600160a01b0386168452825280832080548251818502810185019093528083529192909190849084015b82821015611ecc5760008481526020908190206040805160608101825260028602909201805483526001908101546001600160a01b03811684860152600160a01b900465ffffffffffff16918301919091529083529092019101611e6d565b50505060008681526002602090815260408083206001600160a01b03891684529091528120929350611eff9291506147a5565b8051604080516060810182526000808252602082018190528183018190529151630862026560e41b8152600160048201526001600160a01b0387811660248301529192917f00000000000000000000000000000000000000000000000000000000000000001690638620265090604401602060405180830381865afa158015611f8c573d6000803e3d6000fd5b505050506040513d601f19601f82011682018060405250810190611fb09190614e4a565b905060005b8381101561139157848181518110611fcf57611fcf61506d565b6020026020010151925085158015611ff2575042836040015165ffffffffffff16115b1561206f5760008881526002602081815260408084206001600160a01b03808d16865290835281852080546001818101835591875295849020895196909502909401948555918701519390920180549287015165ffffffffffff16600160a01b026001600160d01b03199093169390911692909217179055612086565b61208688888560000151866020015186600161336c565b600101611fb5565b6000858152602081815260408083206001600160a01b0388811685529252822054166120cd57604051630faa917b60e11b815260040160405180910390fd5b61eeed196001600160a01b038616016120e75750346111d0565b341561210657604051635e7e9adf60e11b815260040160405180910390fd5b600080612170612134604051806040016040528060078152602001663832b936b4ba1960c91b815250613557565b86868080601f01602080910402602001604051908101604052809392919081815260200183838082843760009201919091525061356b92505050565b9150915081156122d257600081806020019051810190612190919061555b565b90508681602001516001600160a01b031610156121c0576040516317e415a160e11b815260040160405180910390fd5b6040805160e0810182526001600160a01b03808b166060808401918252602086810151841660808601528686015165ffffffffffff90811660a08701529187015190911660c08501529083523090830152835192820192909252907f000000000000000000000000000000000000000000000000000000000000000016632b67b57061224a611a0f565b8385608001516040518463ffffffff1660e01b815260040161226e9392919061560a565b600060405180830381600087803b15801561228857600080fd5b505af1925050508015612299575060015b6122cf573d8080156122c7576040519150601f19603f3d011682016040523d82523d6000602084013e6122cc565b606091505b50505b50505b60006122dd88613711565b90506122f26122ea611a0f565b308a8a611ca6565b806122fc89613711565b6119769190615187565b60008361231457600061231f565b61231f878787613799565b90506001600160a01b037f0000000000000000000000000000000000000000000000000000000000000000166351fc1735888861235c858a615499565b6040516001600160e01b031960e086901b16815260048101939093526001600160a01b0390911660248301526044820152606401600060405180830381600087803b1580156123aa57600080fd5b505af11580156123be573d6000803e3d6000fd5b50505050867f9ecaf7fc3dfffd6867c175d6e684b1f1e3aef019398ba8db2c1ffab4a09db253868386866123f0611a0f565b60405161240195949392919061567e565b60405180910390a250505050505050565b600061241c611a0f565b9050836001600160a01b0316816001600160a01b0316141580156124eb5750604051631a45b42760e11b81526001600160a01b0382811660048301528581166024830152604482018590526064820184905260016084830181905260a48301527f0000000000000000000000000000000000000000000000000000000000000000169063348b684e9060c401602060405180830381865afa1580156124c5573d6000803e3d6000fd5b505050506040513d601f19601f820116820180604052508101906124e991906150e6565b155b15611a2e5760405163075fd2b160e01b815260040160405180910390fd5b60006125136147c6565b6000888152602081815260408083206001600160a01b038b81168552925291829020915163060f2bdf60e31b81527f0000000000000000000000000000000000000000000000000000000000000000909116916330795ef89161257e918c918b908b906004016156ca565b610140604051808303816000875af115801561259e573d6000803e3d6000fd5b505050506040513d601f19601f820116820180604052508101906125c291906156f0565b9250905060006125d3610e1d611a0f565b612685576126808989857f00000000000000000000000000000000000000000000000000000000000000006001600160a01b0316636352211e8e6040518263ffffffff1660e01b815260040161262b91815260200190565b602060405180830381865afa158015612648573d6000803e3d6000fd5b505050506040513d601f19601f8201168201806040525081019061266c9190614e4a565b610100870151604e1c600190811614613aec565b612688565b60005b6126929084615187565b905080156126a6576126a630868a84611ca6565b88826000015165ffffffffffff16836020015165ffffffffffff167f8657a0c05a68a912c23c1bd00124afaa8c669063b046bd9bfd22b21d573c5e6d888b88878b6126ef611a0f565b6040516127019695949392919061571f565b60405180910390a450509695505050505050565b600061271f6147c6565b6000878152602081815260408083206001600160a01b038a8116855290835281842082516060808201855291549283168152600160a01b830460ff1681860152600160a81b90920463ffffffff16828401528b855260018452828520805484518187028101870190955280855291959492938593909290849084015b828210156127f557600084815260209081902060408051606081018252918501546001600160a01b0381168352600160a01b810460ff1683850152600160a81b900463ffffffff169082015282526001909201910161279b565b5050604051630d346b8160e01b8152929350506001600160a01b037f00000000000000000000000000000000000000000000000000000000000000001691630d346b819150612852908f908f908e90889088908f90600401615769565b6000604051808303816000875af1158015612871573d6000803e3d6000fd5b505050506040513d6000823e601f3d908101601f1916820160405261289991908101906157de565b9198509196509450925050871561292d576128b38a611983565b60405163516a997360e11b81526001600160a01b038d81166004830152602482018d9052604482018b90526080606483015260006084830152919091169063a2d532e69060a401600060405180830381600087803b15801561291457600080fd5b505af1158015612928573d6000803e3d6000fd5b505050505b600085156129885761293e88611a34565b15801561294d57506127108314155b156129765761295c8682615499565b9050612969866019611ac3565b6129739087615187565b95505b85156129885761298830898c89611ca6565b8351156129e7576129da8b60405180608001604052808d6001600160a01b03168152602001856020015160ff168152602001856040015163ffffffff168152602001898152508e8c8b8a898f8c613cb3565b6129e49082615499565b90505b806000036129f6576000612a04565b612a048b8b838b6000613aec565b508a856000015165ffffffffffff16866020015165ffffffffffff167f9565fc8bdd4f45a73582d1163dbe522a4fb0c4dbb882b5e66269f70101a2509a8f8c8e898d8f612a4f611a0f565b604051612a62979695949392919061590f565b60405180910390a450505050509695505050505050565b6000612a836147c6565b6000868152602081815260408083206001600160a01b038981168552925291829020915163181241e760e31b81527f00000000000000000000000000000000000000000000000000000000000000009091169163c0920f3891612aee918a91899089906004016156ca565b610140604051808303816000875af1158015612b0e573d6000803e3d6000fd5b505050506040513d601f19601f82011682018060405250810190612b3291906156f0565b610100820151909350909150604d1c600190811603612be0576040516331a9108f60e11b815260048101879052612be0907f00000000000000000000000000000000000000000000000000000000000000006001600160a01b031690636352211e90602401602060405180830381865afa158015612bb4573d6000803e3d6000fd5b505050506040513d601f19601f82011682018060405250810190612bd89190614e4a565b876004612412565b6040516331a9108f60e11b8152600481018790526000907f00000000000000000000000000000000000000000000000000000000000000006001600160a01b031690636352211e90602401602060405180830381865afa158015612c48573d6000803e3d6000fd5b505050506040513d601f19601f82011682018060405250810190612c6c9190614e4a565b9050600080612c898989866020015165ffffffffffff1688613f37565b90925090506000612cb58a8a612c9f8686615499565b6101008901518890604e1c600190811614613aec565b905060008315612ce257612cca846019611ac3565b612cd49085615187565b9050612ce230868c84611ca6565b8a866000015165ffffffffffff16876020015165ffffffffffff167fda42c5c18ef97738d10c32811895add569670a6fcbe9627ea198d446f3be6dea888d8c8888612d2b611a0f565b604080516001600160a01b03978816815260208101969096528501939093526060840191909152608083015290911660a082015260c00160405180910390a4505050505050949350505050565b604080516080810182526000808252602082018190529181018290526060810182905260008060008b815260200190815260200160002060008a6001600160a01b03166001600160a01b031681526020019081526020016000206040518060600160405290816000820160009054906101000a90046001600160a01b03166001600160a01b03166001600160a01b031681526020016000820160149054906101000a900460ff1660ff1660ff1681526020016000820160159054906101000a900463ffffffff1663ffffffff1663ffffffff1681525050905060405180608001604052808a6001600160a01b03168152602001826020015160ff168152602001826040015163ffffffff1681526020018981525091505060008060007f00000000000000000000000000000000000000000000000000000000000000006001600160a01b031663c59dfadb8a868f8c8b6040518663ffffffff1660e01b8152600401612ee8959493929190615997565b6000604051808303816000875af1158015612f07573d6000803e3d6000fd5b505050506040513d6000823e601f3d908101601f19168201604052612f2f91908101906159d9565b92509250925081600014612fda57612f468c611983565b6040516363fdc96f60e11b8152600481018e9052602481018490526001600160a01b038a8116604483015260a06064830152600060a483015260016084830152919091169063c7fb92de9060c4016020604051808303816000875af1158015612fb3573d6000803e3d6000fd5b505050506040513d601f19601f82011682018060405250810190612fd7919061539a565b94505b805115612ff157612ff18c82868c878d8b8d61410f565b8b836000015165ffffffffffff16846020015165ffffffffffff167f133161f1c9161488f777ab9a26aae91d47c0d9a3fafb398960f138db02c737978c8c8f8b8e8e61303b611a0f565b60405161304e9796959493929190615af8565b60405180910390a450505050979650505050505050565b6000366014336001600160a01b037f0000000000000000000000000000000000000000000000000000000000000000161480156130a25750808210155b156130d2576000366130b48385615187565b6130bf928290615b58565b6130c891615b82565b60601c9250505090565b339250505090565b60008080600019858709858702925082811083820303915050806000036131145783828161310a5761310a615bb7565b04925050506115c0565b83811061314a57604051630c740aef60e31b81526004810187905260248101869052604481018590526064015b60405180910390fd5b60008486880960026001871981018816978890046003810283188082028403028082028403028082028403028082028403028082028403029081029092039091026000889003889004909101858311909403939093029303949094049190911702949350505050565b604051636eb1769f60e11b81523060048201526001600160a01b0383811660248301526000919085169063dd62ed3e90604401602060405180830381865afa158015613203573d6000803e3d6000fd5b505050506040513d601f19601f82011682018060405250810190613227919061539a565b9050611a2e84846132388585615499565b61432e565b804710156132605760405163cd78605960e01b8152306004820152602401613141565b6000826001600160a01b03168260405160006040518083038185875af1925050503d80600081146132ad576040519150601f19603f3d011682016040523d82523d6000602084013e6132b2565b606091505b5050905080611b1157604051630a12f52160e11b815260040160405180910390fd5b6040516001600160a01b03838116602483015260448201839052611b1191859182169063a9059cbb906064015b604051602081830303815290604052915060e01b6020820180516001600160e01b0383818316178352505050506143ba565b6040516001600160a01b038481166024830152838116604483015260648201839052611a2e9186918216906323b872dd90608401613301565b604051632fc8972b60e11b8152600481018790526001600160a01b038087166024830152604482018690528085166064830152831660848201523090635f912e569060a401600060405180830381600087803b1580156133cb57600080fd5b505af19250505080156133dc575060015b6134ee573d80801561340a576040519150601f19603f3d011682016040523d82523d6000602084013e61340f565b606091505b506040516351fc173560e01b8152600481018890526001600160a01b038781166024830152604482018790527f000000000000000000000000000000000000000000000000000000000000000016906351fc173590606401600060405180830381600087803b15801561348157600080fd5b505af1158015613495573d6000803e3d6000fd5b505050506001866001600160a01b0316887f4b73f3c5cfb174c9d0494138d07ff8ee3aa400df46327d9893ed5ac122dd558a88856134d1611a0f565b6040516134e093929190615bcd565b60405180910390a4506112f6565b83856001600160a01b0316877fb514e730b3f8ad3aa94b6857bcc5ff4a46954bdcf8c4b0346705b1d0ac7a43258487613525611a0f565b6040805193151584526001600160a01b03928316602085015291169082015260600160405180910390a4505050505050565b805160208201206000903060601b18610737565b600060606025835111613590575050604080516020810190915260008082529061370a565b60008361359f60046020615499565b815181106135af576135af61506d565b0160209081015160f81c91505b6000856135ca600484615499565b815181106135da576135da61506d565b01602001516001600160f81b0319161480159061360057506135fd602083615bfe565b81105b1561370757600085613613600484615499565b815181106136235761362361506d565b016020908101518784019091015160f89190911c91506001600160e01b0319808916908216036136fd57600061365a602086615bfe565b613665600986615499565b10158061369a575087613679600986615499565b815181106136895761368961506d565b01602001516001600160f81b031916155b6136d3576020886136ac600987615499565b815181106136bc576136bc61506d565b01602001516136ce919060f81c615bfe565b6136d6565b87515b905060016136ef896136e9602087615bfe565b8461441d565b96509650505050505061370a565b50506005016135bc565b50505b9250929050565b60006001600160a01b03821661eeee14613792576040516370a0823160e01b81523060048201526001600160a01b038316906370a0823190602401602060405180830381865afa158015613769573d6000803e3d6000fd5b505050506040513d601f19601f8201168201806040525081019061378d919061539a565b610737565b4792915050565b60008381526002602090815260408083206001600160a01b0386168452825280832080548251818502810185019093528083528493849084015b828210156138325760008481526020908190206040805160608101825260028602909201805483526001908101546001600160a01b03811684860152600160a01b900465ffffffffffff169183019190915290835290920191016137d3565b50505060008781526002602090815260408083206001600160a01b038a16845290915281209293506138659291506147a5565b8051604080516060810182526000808252602082018190529181018290528592915b82811015613a82578481815181106138a1576138a161506d565b602002602001015191508360000361392b5760008981526002602081815260408084206001600160a01b03808e16865290835281852080546001818101835591875295849020885196909502909401948555918601519390920180549286015165ffffffffffff16600160a01b026001600160d01b03199093169390911692909217179055613a7a565b600061393c83600001516019611ac3565b905060008184600001516139509190615187565b905080861061396757968101969485900394613a77565b613972866019614463565b9150600260008c815260200190815260200160002060008b6001600160a01b03166001600160a01b031681526020019081526020016000206040518060600160405280888403815260200186602001516001600160a01b03168152602001866040015165ffffffffffff1681525090806001815401808255809150506001900390600052602060002090600202016000909190919091506000820151816000015560208201518160010160006101000a8154816001600160a01b0302191690836001600160a01b0316021790555060408201518160010160146101000a81548165ffffffffffff021916908365ffffffffffff16021790555050508188019750600095505b50505b600101613887565b5085876001600160a01b0316897fedc5125503c021a73fd7d8ed0c2456b296be2c88f39fbed068bd091cef7ca43d8887613aba611a0f565b6040805193845260208401929092526001600160a01b03169082015260600160405180910390a4505050509392505050565b6000613af9846019611ac3565b90508115613c0c5760008681526002602090815260408083206001600160a01b03808a168552908352928190208151606081018352888152938716928401929092529091908101613b4d6224ea0042615499565b65ffffffffffff908116909152825460018181018555600094855260209485902084516002909302019182559383015193018054604090930151909116600160a01b026001600160d01b03199092166001600160a01b039384161791909117905584908616877fef9cd8fc3b61b64b44042ada0a8a3ede1649bc1b112673da228120f13bf1381e601987613bdf611a0f565b604080519384526001600160a01b03928316602085015291169082015260600160405180910390a46111d0565b604051630862026560e41b8152600160048201526001600160a01b0386811660248301526000917f000000000000000000000000000000000000000000000000000000000000000090911690638620265090604401602060405180830381865afa158015613c7e573d6000803e3d6000fd5b505050506040513d601f19601f82011682018060405250810190613ca29190614e4a565b90506111ce8787848785600061336c565b6000806040518061014001604052808a6001600160a01b031681526020018c8152602001876020015165ffffffffffff1681526020018981526020018b81526020018b8152602001868152602001856001600160a01b03168152602001604051806020016040528060008152508152602001888152509050600083519050613d5e604051806060016040528060006001600160a01b0316815260200160008152602001606081525090565b60005b82811015613f2657858181518110613d7b57613d7b61506d565b602002602001015191506000613d948360000151611a34565b613dac57613da783602001516019611ac3565b613daf565b60005b90508015613dde576020830151613dc69087615499565b95508083602001818151613dda9190615187565b9052505b60405180608001604052808f600001516001600160a01b031681526020018f6020015160ff1681526020018f6040015163ffffffff16815260200184602001518152508560a001819052508260400151856101000181905250613e4e83600001518f600001518560200151611ae5565b6000613e628f600001518560200151611b16565b8451604051631727f03960e01b81529192506001600160a01b031690631727f039908390613e94908a90600401615cc0565b6000604051808303818588803b158015613ead57600080fd5b505af1158015613ec1573d6000803e3d6000fd5b505050505083600001516001600160a01b03167f3dc4bcf15d77035ba58aff65ebae2b29daccddfc22b9dcf03638e3f727577b0587866020015185613f04611a0f565b604051613f149493929190615cd3565b60405180910390a25050600101613d61565b505050509998505050505050505050565b6040516369e11cc560e01b815260048101859052602481018390526001600160a01b0384811660448301526000918291633b9aca009183917f000000000000000000000000000000000000000000000000000000000000000016906369e11cc590606401600060405180830381865afa158015613fb8573d6000803e3d6000fd5b505050506040513d6000823e601f3d908101601f19168201604052613fe09190810190615d0b565b80516040805160c081018252600080825260208201819052918101829052606081018290526080810182905260a08101919091529192509060005b828110156140fe578381815181106140355761403561506d565b60200260200101519150600061405689846020015163ffffffff16886130da565b90506000614066848e8e85614472565b905080158015906140775750818114155b15614089576140868289615499565b97505b811561409557818a0399505b836020015163ffffffff16870396508b6001600160a01b03168b8e7f527d1f65cc7cbc5b19926d6b040f10ec7f946968eced5ecf248d2f4f2c28f5f68786866140dc611a0f565b6040516140ec9493929190615e1c565b60405180910390a4505060010161401b565b508695505050505094509492505050565b6000604051806101400160405280876001600160a01b031681526020018a8152602001866020015165ffffffffffff1681526020018881526020018881526020018660a001516001600160701b03168152602001848152602001856001600160a01b031681526020016040518060200160405280600081525081526020018381525090506000885190506141c6604051806060016040528060006001600160a01b0316815260200160008152602001606081525090565b60005b82811015614320578a81815181106141e3576141e361506d565b60209081029190910181015160408051608080820183528e516001600160a01b031682528e85015160ff16828601528e83015163ffffffff1682840152938301805160608301529388015281015161010087015280518c51925191945061424b929091611ae5565b600061425f8b600001518460200151611b16565b835160405163099bfcc360e11b81529192506001600160a01b031690631337f986908390614291908990600401615ee0565b6000604051808303818588803b1580156142aa57600080fd5b505af11580156142be573d6000803e3d6000fd5b505050505082600001516001600160a01b03167fb1ed2cd5f80d2005b57f16c4c1a1c8ee500b96725924cad83e44f32f05f400c0868560200151614300611a0f565b60405161430f93929190615ef3565b60405180910390a2506001016141c9565b505050505050505050505050565b604080516001600160a01b038416602482015260448082018490528251808303909101815260649091019091526020810180516001600160e01b031663095ea7b360e01b17905261437f84826145f8565b611a2e576040516001600160a01b038481166024830152600060448301526143b491869182169063095ea7b390606401613301565b611a2e84825b60006143cf6001600160a01b0384168361469b565b905080516000141580156143f45750808060200190518101906143f291906150e6565b155b15611b1157604051635274afe760e01b81526001600160a01b0384166004820152602401613141565b60608282036040519150602081830101604052808252508260208501016020820160005b84811015614459578281015182820152602001614441565b5050509392505050565b60006115c083836103e86130da565b600030634ff513ab86868686614486611a0f565b6040518663ffffffff1660e01b81526004016144a6959493929190615f26565b6020604051808303816000875af19250505080156144e1575060408051601f3d908101601f191682019092526144de9181019061539a565b60015b6145ed573d80801561450f576040519150601f19603f3d011682016040523d82523d6000602084013e614514565b606091505b506040516351fc173560e01b8152600481018690526001600160a01b038581166024830152604482018590527f000000000000000000000000000000000000000000000000000000000000000016906351fc173590606401600060405180830381600087803b15801561458657600080fd5b505af115801561459a573d6000803e3d6000fd5b50505050847f7d1404acd9b8028cb88963a50aeeb83774d101e993a7fd89967afbc2d94c33fb8785846145cb611a0f565b6040516145db9493929190615f65565b60405180910390a260009150506145f0565b90505b949350505050565b6000806000846001600160a01b0316846040516146159190615fa7565b6000604051808303816000865af19150503d8060008114614652576040519150601f19603f3d011682016040523d82523d6000602084013e614657565b606091505b509150915081801561468157508051158061468157508080602001905181019061468191906150e6565b80156111d05750505050506001600160a01b03163b151590565b60606115c08383600084600080856001600160a01b031684866040516146c19190615fa7565b60006040518083038185875af1925050503d80600081146146fe576040519150601f19603f3d011682016040523d82523d6000602084013e614703565b606091505b509150915061471386838361471d565b9695505050505050565b6060826147325761472d82614779565b6115c0565b815115801561474957506001600160a01b0384163b155b1561477257604051639996b31560e01b81526001600160a01b0385166004820152602401613141565b50806115c0565b8051156147895780518082602001fd5b604051630a12f52160e11b815260040160405180910390fd5b50565b50805460008255600202906000526020600020908101906147a29190614812565b6040805161012081018252600080825260208201819052918101829052606081018290526080810182905260a0810182905260c0810182905260e0810182905261010081019190915290565b5b8082111561483957600081556001810180546001600160d01b0319169055600201614813565b5090565b60006020828403121561484f57600080fd5b81356001600160e01b0319811681146115c057600080fd5b60008060006040848603121561487c57600080fd5b8335925060208401356001600160401b038082111561489a57600080fd5b818601915086601f8301126148ae57600080fd5b8135818111156148bd57600080fd5b8760206060830285010111156148d257600080fd5b6020830194508093505050509250925092565b6001600160a01b03811681146147a257600080fd5b6000806040838503121561490d57600080fd5b82359150602083013561491f816148e5565b809150509250929050565b602080825282518282018190526000919060409081850190868401855b8281101561498757815180518552868101516001600160a01b03168786015285015165ffffffffffff168585015260609093019290850190600101614947565b5091979650505050505050565b80516001600160a01b0316825260208082015160ff169083015260409081015163ffffffff16910152565b606081016107378284614994565b60008060008060008587036101408112156149e757600080fd5b60c08112156149f557600080fd5b5085945060c0860135935060e0860135614a0e816148e5565b92506101008601359150610120860135614a27816148e5565b809150509295509295909350565b600060208284031215614a4757600080fd5b5035919050565b60008151808452602080850194506020840160005b83811015614a8957614a76878351614994565b6060969096019590820190600101614a63565b509495945050505050565b6020815260006115c06020830184614a4e565b600060208284031215614ab957600080fd5b81356115c0816148e5565b600080600080600060a08688031215614adc57600080fd5b853594506020860135614aee816148e5565b9350604086013592506060860135614b05816148e5565b91506080860135614a27816148e5565b80151581146147a257600080fd5b60008083601f840112614b3557600080fd5b5081356001600160401b03811115614b4c57600080fd5b60208301915083602082850101111561370a57600080fd5b60008060008060008060008060c0898b031215614b8057600080fd5b883597506020890135614b92816148e5565b9650604089013595506060890135614ba981614b15565b945060808901356001600160401b0380821115614bc557600080fd5b614bd18c838d01614b23565b909650945060a08b0135915080821115614bea57600080fd5b50614bf78b828c01614b23565b999c989b5096995094979396929594505050565b60008060008060008060008060e0898b031215614c2757600080fd5b883597506020890135614c39816148e5565b965060408901359550606089013594506080890135935060a0890135614c5e816148e5565b925060c08901356001600160401b03811115614c7957600080fd5b614bf78b828c01614b23565b60008060008060008060008060e0898b031215614ca157600080fd5b8835614cac816148e5565b9750602089013596506040890135614cc3816148e5565b9550606089013594506080890135935060a0890135614c5e816148e5565b600080600060608486031215614cf657600080fd5b505081359360208301359350604090920135919050565b600080600080600060a08688031215614d2557600080fd5b853594506020860135614d37816148e5565b94979496505050506040830135926060810135926080909101359150565b600080600060608486031215614d6a57600080fd5b833592506020840135614d7c816148e5565b91506040840135614d8c816148e5565b809150509250925092565b600080600080600080600080600060e08a8c031215614db557600080fd5b8935985060208a0135614dc7816148e5565b975060408a0135965060608a0135614dde816148e5565b955060808a0135945060a08a01356001600160401b0380821115614e0157600080fd5b614e0d8d838e01614b23565b909650945060c08c0135915080821115614e2657600080fd5b50614e338c828d01614b23565b915080935050809150509295985092959850929598565b600060208284031215614e5c57600080fd5b81516115c0816148e5565b634e487b7160e01b600052604160045260246000fd5b60405161012081016001600160401b0381118282101715614ea057614ea0614e67565b60405290565b604051606081016001600160401b0381118282101715614ea057614ea0614e67565b60405160c081016001600160401b0381118282101715614ea057614ea0614e67565b60405160a081016001600160401b0381118282101715614ea057614ea0614e67565b604051601f8201601f191681016001600160401b0381118282101715614f3457614f34614e67565b604052919050565b65ffffffffffff811681146147a257600080fd5b8051614f5b81614f3c565b919050565b63ffffffff811681146147a257600080fd5b8051614f5b81614f60565b80516001600160701b0381168114614f5b57600080fd5b8051614f5b816148e5565b60006101208284031215614fb257600080fd5b614fba614e7d565b9050614fc582614f50565b8152614fd360208301614f50565b6020820152614fe460408301614f50565b6040820152614ff560608301614f50565b606082015261500660808301614f72565b608082015261501760a08301614f7d565b60a082015261502860c08301614f72565b60c082015261503960e08301614f94565b60e082015261010080830151818301525092915050565b6000610120828403121561506357600080fd5b6115c08383614f9f565b634e487b7160e01b600052603260045260246000fd5b60ff811681146147a257600080fd5b6000606082840312156150a457600080fd5b6150ac614ea6565b82356150b7816148e5565b815260208301356150c781615083565b602082015260408301356150da81614f60565b60408201529392505050565b6000602082840312156150f857600080fd5b81516115c081614b15565b60006020828403121561511557600080fd5b81516115c081615083565b546001600160a01b038116825260a081901c60ff16602083015260a81c63ffffffff16604090910152565b608081016151598285615120565b6001600160a01b039290921660609190910152919050565b634e487b7160e01b600052601160045260246000fd5b8181038181111561073757610737615171565b66ffffffffffffff811681146147a257600080fd5b600060c082840312156151c157600080fd5b6151c9614ec8565b82356151d481614b15565b815260208301356151e481614f60565b602082015260408301356151f78161519a565b6040820152606083013561520a816148e5565b6060820152608083013561521d81614f3c565b608082015260a0830135615230816148e5565b60a08201529392505050565b80511515825260208082015163ffffffff169083015260408082015166ffffffffffffff16908301526060808201516001600160a01b039081169184019190915260808083015165ffffffffffff169084015260a09182015116910152565b81516001600160a01b031681526020808301519082015260408083015190820152606080830151908201526080808301519082015260a0828101516101608301916152e89084018261523c565b5092915050565b60006020828403121561530157600080fd5b81356115c08161519a565b60006020828403121561531e57600080fd5b81356115c081614b15565b6001600160a01b0386168152602080820186905260a060408301819052855490830181905260008681529182209060c0840190835b81811015615383576153708385615120565b600193840193606093909301920161535e565b505060608401959095525050608001529392505050565b6000602082840312156153ac57600080fd5b5051919050565b6000606082840312156153c557600080fd5b6153cd614ea6565b82516153d8816148e5565b815260208301516153e881615083565b602082015260408301516150da81614f60565b60005b838110156154165781810151838201526020016153fe565b50506000910152565b600081518084526154378160208601602086016153fb565b601f01601f19169290920160200192915050565b85815260018060a01b0385166020820152836040820152821515606082015260c06080820152600060c082015260e060a0820152600061548e60e083018461541f565b979650505050505050565b8082018082111561073757610737615171565b868152600060018060a01b03808816602084015286604084015280861660608401525083608083015260e060a0830152600060e08301526101008060c08401526119768184018561541f565b600082601f83011261550957600080fd5b81516001600160401b0381111561552257615522614e67565b615535601f8201601f1916602001614f0c565b81815284602083860101111561554a57600080fd5b6145f08260208301602087016153fb565b60006020828403121561556d57600080fd5b81516001600160401b038082111561558457600080fd5b9083019060a0828603121561559857600080fd5b6155a0614eea565b8251815260208301516155b2816148e5565b602082015260408301516155c581614f3c565b604082015260608301516155d881614f3c565b60608201526080830151828111156155ef57600080fd5b6155fb878286016154f8565b60808301525095945050505050565b600061010060018060a01b0380871684528551818151166020860152816020820151166040860152604081015165ffffffffffff80821660608801528060608401511660808801525050508060208701511660a085015250604085015160c08401528060e08401526147138184018561541f565b85815284602082015260a06040820152600061569d60a083018661541f565b82810360608401526156af818661541f565b91505060018060a01b03831660808301529695505050505050565b84815260c081016156de6020830186615120565b608082019390935260a0015292915050565b600080610140838503121561570457600080fd5b61570e8484614f9f565b915061012083015190509250929050565b600060018060a01b03808916835287602084015286604084015285606084015260c0608084015261575360c084018661541f565b915080841660a084015250979650505050505050565b6001600160a01b0387168152602081018690526040810185905260006101006157956060840187614994565b8060c08401526157a781840186614a4e565b905082810360e0840152611976818561541f565b60006001600160401b038211156157d4576157d4614e67565b5060051b60200190565b60008060008061018085870312156157f557600080fd5b6157ff8686614f9f565b9350610120850151925061014085015191506101608501516001600160401b038082111561582c57600080fd5b818701915087601f83011261584057600080fd5b815161585361584e826157bb565b614f0c565b8082825260208201915060208360051b86010192508a83111561587557600080fd5b602085015b838110156158ff5780518581111561589157600080fd5b86016060818e03601f190112156158a757600080fd5b6158af614ea6565b60208201516158bd816148e5565b8152604082015160208201526060820151878111156158db57600080fd5b6158ea8f6020838601016154f8565b6040830152508452506020928301920161587a565b50979a9699509497505050505050565b600060018060a01b03808a168352808916602084015287604084015286606084015285608084015260e060a084015261594b60e084018661541f565b915080841660c08401525098975050505050505050565b80516001600160a01b0316825260208082015160ff169083015260408082015163ffffffff1690830152606090810151910152565b6001600160a01b038681168252600090610100906159b86020850189615962565b8660a085015280861660c0850152508060e084015261149a8184018561541f565b600080600061016084860312156159ef57600080fd5b6159f98585614f9f565b925061012084015191506101408401516001600160401b0380821115615a1e57600080fd5b818601915086601f830112615a3257600080fd5b81516020615a4261584e836157bb565b82815260059290921b8401810191818101908a841115615a6157600080fd5b8286015b84811015615ae757805186811115615a7c57600080fd5b87016060818e03601f19011215615a9257600080fd5b615a9a614ea6565b85820151615aa7816148e5565b8152604082015186820152606082015188811115615ac55760008081fd5b615ad38f88838601016154f8565b604083015250845250918301918301615a65565b508096505050505050509250925092565b600060018060a01b03808a168352808916602084015287604084015286606084015260e06080840152615b2e60e084018761541f565b83810360a0850152615b40818761541f565b92505080841660c08401525098975050505050505050565b60008085851115615b6857600080fd5b83861115615b7557600080fd5b5050820193919092039150565b6bffffffffffffffffffffffff198135818116916014851015615baf5780818660140360031b1b83161692505b505092915050565b634e487b7160e01b600052601260045260246000fd5b838152606060208201526000615be6606083018561541f565b905060018060a01b0383166040830152949350505050565b808202811582820484141761073757610737615171565b80516001600160a01b0316825260006102006020830151602085015260408301516040850152606083015160608501526080830151615c576080860182615962565b5060a0830151610100615c6c81870183615962565b60c085015161018087015260e08501516001600160a01b03166101a08701528401516101c086018390529050615ca48286018261541f565b9150506101208301518482036101e08601526111d0828261541f565b6020815260006115c06020830184615c15565b608081526000615ce66080830187615c15565b60208301959095525060408101929092526001600160a01b0316606090910152919050565b60006020808385031215615d1e57600080fd5b82516001600160401b03811115615d3457600080fd5b8301601f81018513615d4557600080fd5b8051615d5361584e826157bb565b81815260c09182028301840191848201919088841115615d7257600080fd5b938501935b83851015615e105780858a031215615d8f5760008081fd5b615d97614ec8565b8551615da281614b15565b815285870151615db181614f60565b81880152604086810151615dc48161519a565b90820152606086810151615dd7816148e5565b90820152608086810151615dea81614f3c565b9082015260a086810151615dfd816148e5565b9082015283529384019391850191615d77565b50979650505050505050565b6101208101615e2b828761523c565b60c082019490945260e08101929092526001600160a01b031661010090910152919050565b80516001600160a01b03168252600061020060208301516020850152604083015160408501526060830151615e886060860182615962565b506080830151615e9b60e0860182615962565b5060a083015161016085015260c083015161018085015260e08301516001600160a01b03166101a08501526101008301516101c08501829052615ca48286018261541f565b6020815260006115c06020830184615e50565b606081526000615f066060830186615e50565b6020830194909452506001600160a01b0391909116604090910152919050565b6101408101615f35828861523c565b60c08201959095526001600160a01b0393841660e082015261010081019290925290911661012090910152919050565b6000610120615f74838861523c565b8560c08401528060e0840152615f8c8184018661541f565b91505060018060a01b03831661010083015295945050505050565b60008251615fb98184602087016153fb565b919091019291505056fea2646970667358221220842684856becb92d161bf20101a356e75aedc1761eace8545d6e60e9a2da996864736f6c63430008170033",
	"deployedBytecode": "0x6080604052600436106101815760003560e01c80636afdd850116100d1578063c57981b51161008a578063d4a1b4b111610064578063d4a1b4b1146105af578063e28b5411146105e3578063f434c91414610603578063fef432571461063757600080fd5b8063c57981b51461055a578063cc6801271461056f578063cfaf58391461058f57600080fd5b80636afdd8501461046c5780637da0a877146104a057806388bc2ef3146104d35780639e6eec0514610507578063b62d17cf1461051a578063bb7214fe1461053a57600080fd5b80634ff513ab1161013e578063572b6c0511610118578063572b6c05146103ab5780635f912e56146103f857806362ef303614610418578063659a20471461043857600080fd5b80634ff513ab1461031c578063507f14651461034a578063515a92931461037e57600080fd5b806301ffc9a7146101865780631f47ce69146101bb578063253721c814610207578063293c49991461022957806333b306101461025d5780633a01714f1461028a575b600080fd5b34801561019257600080fd5b506101a66101a136600461483d565b61064a565b60405190151581526020015b60405180910390f35b3480156101c757600080fd5b506101ef7f00000000000000000000000029f42dcf58d94204a94a22999aeeaf4e106c32bc81565b6040516001600160a01b0390911681526020016101b2565b34801561021357600080fd5b50610227610222366004614867565b61073d565b005b34801561023557600080fd5b506101ef7f000000000000000000000000f8ea7ba8d990646420123feaa2447b534ab2f53c81565b34801561026957600080fd5b5061027d6102783660046148fa565b610c93565b6040516101b2919061492a565b34801561029657600080fd5b5061030f6102a53660046148fa565b6040805160608082018352600080835260208084018290529284018190529485528482528285206001600160a01b03948516865282529382902082519485018352549283168452600160a01b830460ff1690840152600160a81b90910463ffffffff169082015290565b6040516101b291906149bf565b34801561032857600080fd5b5061033c6103373660046149cd565b610d3d565b6040519081526020016101b2565b34801561035657600080fd5b506101ef7f000000000000000000000000ed0a1e01504710a5e40524060d2c8ce64fa20e7c81565b34801561038a57600080fd5b5061039e610399366004614a35565b6111d9565b6040516101b29190614a94565b3480156103b757600080fd5b506101a66103c6366004614aa7565b7f000000000000000000000000b2b5841dbef766d4b521221732f9b618fcf34a876001600160a01b0390811691161490565b34801561040457600080fd5b50610227610413366004614ac4565b611273565b34801561042457600080fd5b506102276104333660046148fa565b6112fe565b34801561044457600080fd5b506101ef7f000000000000000000000000da54651d13e680931628c82b30d03a908c2591cb81565b34801561047857600080fd5b506101ef7f000000000000000000000000000000000022d473030f116ddee9f6b43ac78ba381565b3480156104ac57600080fd5b507f000000000000000000000000b2b5841dbef766d4b521221732f9b618fcf34a876101ef565b3480156104df57600080fd5b506101ef7f000000000000000000000000877e8e31ed1bf9f628efa25636c5bc9dd83baa7781565b610227610515366004614b64565b61130e565b34801561052657600080fd5b5061033c610535366004614c0b565b61139b565b34801561054657600080fd5b5061033c610555366004614c85565b6114a6565b34801561056657600080fd5b5061033c601981565b34801561057b57600080fd5b5061033c61058a366004614ce1565b61151b565b34801561059b57600080fd5b5061033c6105aa366004614d0d565b6115c7565b3480156105bb57600080fd5b506101ef7f00000000000000000000000063c60a4231c9ae673948f8a70305d42bf170912f81565b3480156105ef57600080fd5b5061033c6105fe366004614d55565b6115f8565b34801561060f57600080fd5b506101ef7f000000000000000000000000cfba13b8dcb2bb4f84c5d2704882009a539bee9a81565b61033c610645366004614d97565b6118c6565b60006001600160e01b03198216633a1909d760e01b148061067b57506001600160e01b03198216633d0d324560e21b145b8061069557506001600160e01b031982166201549760e41b145b806106b057506001600160e01b03198216635db90a7f60e11b145b806106cb57506001600160e01b031982166336775c5d60e01b145b806106e657506001600160e01b031982166306afdd8560e41b145b8061070157506001600160e01b03198216633a1909d760e01b145b8061071c57506001600160e01b031982166357175cc160e11b145b8061073757506001600160e01b031982166301ffc9a760e01b145b92915050565b6040516331a9108f60e11b8152600481018490526107f6907f000000000000000000000000f8ea7ba8d990646420123feaa2447b534ab2f53c6001600160a01b031690636352211e90602401602060405180830381865afa1580156107a6573d6000803e3d6000fd5b505050506040513d601f19601f820116820180604052508101906107ca9190614e4a565b8460136107d682611983565b6001600160a01b03166107e7611a0f565b6001600160a01b031614611a1e565b6040516321d1336160e11b8152600481018490526000907f00000000000000000000000063c60a4231c9ae673948f8a70305d42bf170912f6001600160a01b0316906343a266c29060240161012060405180830381865afa15801561085f573d6000803e3d6000fd5b505050506040513d601f19601f820116820180604052508101906108839190615050565b9050806020015165ffffffffffff166000141580156108ae5750610100810151604b1c600190811614155b156108cc5760405163999dc13360e01b815260040160405180910390fd5b6040805160608101825260008082526020820181905291810182905283915b82811015610c8a578585828181106109055761090561506d565b90506060020180360381019061091b9190615092565b60008881526020818152604080832084516001600160a01b039081168552925290912080549294509116156109635760405163b83f909160e01b815260040160405180910390fd5b82516000906001600160a01b031661eeee1480156109895750836020015160ff16601214155b1561099657506001610aa0565b83516001600160a01b031661eeee14610aa05783516040516301ffc9a760e01b815263a219a02560e01b60048201526001600160a01b03909116906301ffc9a790602401602060405180830381865afa925050508015610a13575060408051601f3d908101601f19168201909252610a10918101906150e6565b60015b15610aa057808015610a94575084600001516001600160a01b031663313ce5676040518163ffffffff1660e01b8152600401602060405180830381865afa158015610a62573d6000803e3d6000fd5b505050506040513d601f19601f82011682018060405250810190610a869190615103565b60ff16856020015160ff1614155b15610a9e57600191505b505b8015610abf5760405163181b8fcf60e01b815260040160405180910390fd5b836040015163ffffffff16600003610aea57604051639088580360e01b815260040160405180910390fd5b83600001518260000160006101000a8154816001600160a01b0302191690836001600160a01b0316021790555083602001518260000160146101000a81548160ff021916908360ff16021790555083604001518260000160156101000a81548163ffffffff021916908363ffffffff160217905550600160008a815260200190815260200160002082908060018154018082558091505060019003906000526020600020016000909190919091506000820160009054906101000a90046001600160a01b03168160000160006101000a8154816001600160a01b0302191690836001600160a01b031602179055506000820160149054906101000a900460ff168160000160146101000a81548160ff021916908360ff1602179055506000820160159054906101000a900463ffffffff168160000160156101000a81548163ffffffff021916908363ffffffff1602179055505050887fec91efc21eddd12fa66398fea3251c0e0b95bc53f0cdde2cd2c52e94bf11e07883610c6a611a0f565b604051610c7892919061514b565b60405180910390a250506001016108eb565b50505050505050565b60008281526002602090815260408083206001600160a01b03851684528252808320805482518185028101850190935280835260609492939192909184015b82821015610d315760008481526020908190206040805160608101825260028602909201805483526001908101546001600160a01b03811684860152600160a01b900465ffffffffffff16918301919091529083529092019101610cd2565b50505050905092915050565b6000333014610d4b57600080fd5b50816000610d5f60c0880160a08901614aa7565b6001600160a01b031614610f4357610d7d60c0870160a08801614aa7565b6040516301ffc9a760e01b815262dcdc5760e41b60048201526001600160a01b0391909116906301ffc9a790602401602060405180830381865afa158015610dc9573d6000803e3d6000fd5b505050506040513d601f19601f82011682018060405250810190610ded91906150e6565b610e0a57604051639a2c4ffd60e01b815260040160405180910390fd5b610e22610e1d60c0880160a08901614aa7565b611a34565b610e3e57610e31836019611ac3565b610e3b9082615187565b90505b6040805160c0810182526001600160a01b0386168082526020808301859052600089815280825284812083825290915283812054600160a01b900460ff169383019390935260608201889052608082015260a08101610ea2368a90038a018a6151af565b90529050610ec0610eb960c0890160a08a01614aa7565b8684611ae5565b6000610ecc8684611b16565b9050610ede60c0890160a08a01614aa7565b6001600160a01b0316630dcdc57082846040518363ffffffff1660e01b8152600401610f0a919061529b565b6000604051808303818588803b158015610f2357600080fd5b505af1158015610f37573d6000803e3d6000fd5b505050505050506111d0565b610f5360608701604088016152ef565b66ffffffffffffff16156111645760006001600160a01b037f000000000000000000000000877e8e31ed1bf9f628efa25636c5bc9dd83baa77166386202650610fa260608a0160408b016152ef565b6040516001600160e01b031960e084901b16815266ffffffffffffff90911660048201526001600160a01b0388166024820152604401602060405180830381865afa158015610ff5573d6000803e3d6000fd5b505050506040513d601f19601f820116820180604052508101906110199190614e4a565b90506001600160a01b0381166110425760405163e847fa5d60e01b815260040160405180910390fd5b6001600160a01b0381163014801590611061575061105f81611a34565b155b1561107e57611071846019611ac3565b61107b9083615187565b91505b6001600160a01b038116301461109957611099818684611ae5565b6000866040516020016110ae91815260200190565b60408051601f1981840301815291905290506110cd602089018961530c565b156110fc576110f7826110e660608b0160408c016152ef565b66ffffffffffffff16888685611b37565b61115d565b60008061110f60808b0160608c01614aa7565b6001600160a01b0316036111235784611133565b61113360808a0160608b01614aa7565b905061115b8361114960608c0160408d016152ef565b66ffffffffffffff1689878587611be9565b505b50506111d0565b6000806111776080890160608a01614aa7565b6001600160a01b03160361118b578261119b565b61119b6080880160608901614aa7565b90506111a681611a34565b6111c2576111b5846019611ac3565b6111bf9083615187565b91505b6111ce30828785611ca6565b505b95945050505050565b606060016000838152602001908152602001600020805480602002602001604051908101604052809291908181526020016000905b8282101561126857600084815260209081902060408051606081018252918501546001600160a01b0381168352600160a01b810460ff1683850152600160a81b900463ffffffff169082015282526001909201910161120e565b505050509050919050565b33301461127f57600080fd5b6001600160a01b0381166112a657604051633636ca0360e21b815260040160405180910390fd5b6001600160a01b03811630146112c1576112c1818585611ae5565b6000856040516020016112d691815260200190565b60405160208183030381529060405290506112f682600187878786611be9565b505050505050565b61130a82826000611e30565b5050565b61139188886113208b8b8b888861208e565b8888888080601f01602080910402602001604051908101604052809392919081815260200183838082843760009201919091525050604080516020601f8c018190048102820181019092528a815292508a915089908190840183828082843760009201919091525061230692505050565b5050505050505050565b6040516331a9108f60e11b815260048101899052600090611433906001600160a01b037f000000000000000000000000f8ea7ba8d990646420123feaa2447b534ab2f53c1690636352211e90602401602060405180830381865afa158015611407573d6000803e3d6000fd5b505050506040513d601f19601f8201168201806040525081019061142b9190614e4a565b8a6010612412565b611477898989898888888080601f01602080910402602001604051908101604052809392919081815260200183838082843760009201919091525061250992505050565b90508481101561149a57604051633a78ee9360e11b815260040160405180910390fd5b98975050505050505050565b60006114b489896003612412565b6114f8898989898888888080601f01602080910402602001604051908101604052809392919081815260200183838082843760009201919091525061271592505050565b90508481101561149a576040516302bde58760e61b815260040160405180910390fd5b600083815260016020526040808220905163d60d1a0960e01b81526001600160a01b037f000000000000000000000000ed0a1e01504710a5e40524060d2c8ce64fa20e7c169163d60d1a099161157c91309189919089908990600401615329565b602060405180830381865afa158015611599573d6000803e3d6000fd5b505050506040513d601f19601f820116820180604052508101906115bd919061539a565b90505b9392505050565b60006115d586868686612a79565b9050818110156111d057604051633a78ee9360e11b815260040160405180910390fd5b6040516331a9108f60e11b815260048101849052600090611690906001600160a01b037f000000000000000000000000f8ea7ba8d990646420123feaa2447b534ab2f53c1690636352211e90602401602060405180830381865afa158015611664573d6000803e3d6000fd5b505050506040513d601f19601f820116820180604052508101906116889190614e4a565b856005612412565b604051633a01714f60e01b8152600481018590526001600160a01b038481166024830152831690633a01714f90604401606060405180830381865afa1580156116dd573d6000803e3d6000fd5b505050506040513d601f19601f8201168201806040525081019061170191906153b3565b6040015163ffffffff1660000361172b5760405163581010ed60e01b815260040160405180910390fd5b61173784846001611e30565b6040516319781e2360e01b8152600481018590526001600160a01b0384811660248301527f000000000000000000000000ed0a1e01504710a5e40524060d2c8ce64fa20e7c16906319781e23906044016020604051808303816000875af11580156117a6573d6000803e3d6000fd5b505050506040513d601f19601f820116820180604052508101906117ca919061539a565b90508015611860576117dd828483611ae5565b60006117e98483611b16565b6040805160208101825260008082529151639e6eec0560e01b81529293506001600160a01b03861692639e6eec0592859261182c928b928b928a9260040161544b565b6000604051808303818588803b15801561184557600080fd5b505af1158015611859573d6000803e3d6000fd5b5050505050505b816001600160a01b0316836001600160a01b0316857ff0aa72bb9c2a07cf43281bfe8c525ba320fdc71e18b54c9f93ab22ce074af7f68461189f611a0f565b604080519283526001600160a01b0390911660208301520160405180910390a49392505050565b60006119538a8a6118da8d8d8d898961208e565b6118e2611a0f565b8b8a8a8080601f01602080910402602001604051908101604052809392919081815260200183838082843760009201919091525050604080516020601f8e018190048102820181019092528c815292508c91508b9081908401838280828437600092019190915250612d7892505050565b905085811015611976576040516370dc561160e11b815260040160405180910390fd5b9998505050505050505050565b604051632eec7b5560e11b8152600481018290526000907f000000000000000000000000877e8e31ed1bf9f628efa25636c5bc9dd83baa776001600160a01b031690635dd8f6aa90602401602060405180830381865afa1580156119eb573d6000803e3d6000fd5b505050506040513d601f19601f820116820180604052508101906107379190614e4a565b6000611a19613065565b905090565b80611a2e57611a2e848484612412565b50505050565b60405163ae74a1b560e01b81526001600160a01b0382811660048301526000917f000000000000000000000000da54651d13e680931628c82b30d03a908c2591cb9091169063ae74a1b590602401602060405180830381865afa158015611a9f573d6000803e3d6000fd5b505050506040513d601f19601f8201168201806040525081019061073791906150e6565b6000611adb836103e8611ad68186615499565b6130da565b6115c09084615187565b61eeed196001600160a01b03831601611afd57505050565b611b116001600160a01b03831684836131b3565b505050565b60006001600160a01b03831661eeee14611b315760006115c0565b50919050565b306001600160a01b03861603611b6a57611b6584848460006040518060200160405280600081525086612306565b611be2565b6000611b768484611b16565b9050856001600160a01b0316639e6eec05828787876000886040518763ffffffff1660e01b8152600401611bae95949392919061544b565b6000604051808303818588803b158015611bc757600080fd5b505af1158015611bdb573d6000803e3d6000fd5b5050505050505b5050505050565b306001600160a01b03871603611c1d57611c1785858530866040518060200160405280600081525087612d78565b506112f6565b6000611c298585611b16565b9050866001600160a01b031663fef4325782888888886000896040518863ffffffff1660e01b8152600401611c63969594939291906154ac565b60206040518083038185885af1158015611c81573d6000803e3d6000fd5b50505050506040513d601f19601f82011682018060405250810190611391919061539a565b61eeed196001600160a01b03831601611cc857611cc3838261323d565b611a2e565b306001600160a01b03851603611cec57611cc36001600160a01b03831684836132d4565b604051636eb1769f60e11b81526001600160a01b03858116600483015230602483015282919084169063dd62ed3e90604401602060405180830381865afa158015611d3b573d6000803e3d6000fd5b505050506040513d601f19601f82011682018060405250810190611d5f919061539a565b10611d7957611cc36001600160a01b038316858584613333565b6001600160a01b03811115611da157604051633062f38960e11b815260040160405180910390fd5b604051631b63c28b60e11b81526001600160a01b0385811660048301528481166024830152828116604483015283811660648301527f000000000000000000000000000000000022d473030f116ddee9f6b43ac78ba316906336c7851690608401600060405180830381600087803b158015611e1c57600080fd5b505af1158015611391573d6000803e3d6000fd5b60008381526002602090815260408083206001600160a01b0386168452825280832080548251818502810185019093528083529192909190849084015b82821015611ecc5760008481526020908190206040805160608101825260028602909201805483526001908101546001600160a01b03811684860152600160a01b900465ffffffffffff16918301919091529083529092019101611e6d565b50505060008681526002602090815260408083206001600160a01b03891684529091528120929350611eff9291506147a5565b8051604080516060810182526000808252602082018190528183018190529151630862026560e41b8152600160048201526001600160a01b0387811660248301529192917f000000000000000000000000877e8e31ed1bf9f628efa25636c5bc9dd83baa771690638620265090604401602060405180830381865afa158015611f8c573d6000803e3d6000fd5b505050506040513d601f19601f82011682018060405250810190611fb09190614e4a565b905060005b8381101561139157848181518110611fcf57611fcf61506d565b6020026020010151925085158015611ff2575042836040015165ffffffffffff16115b1561206f5760008881526002602081815260408084206001600160a01b03808d16865290835281852080546001818101835591875295849020895196909502909401948555918701519390920180549287015165ffffffffffff16600160a01b026001600160d01b03199093169390911692909217179055612086565b61208688888560000151866020015186600161336c565b600101611fb5565b6000858152602081815260408083206001600160a01b0388811685529252822054166120cd57604051630faa917b60e11b815260040160405180910390fd5b61eeed196001600160a01b038616016120e75750346111d0565b341561210657604051635e7e9adf60e11b815260040160405180910390fd5b600080612170612134604051806040016040528060078152602001663832b936b4ba1960c91b815250613557565b86868080601f01602080910402602001604051908101604052809392919081815260200183838082843760009201919091525061356b92505050565b9150915081156122d257600081806020019051810190612190919061555b565b90508681602001516001600160a01b031610156121c0576040516317e415a160e11b815260040160405180910390fd5b6040805160e0810182526001600160a01b03808b166060808401918252602086810151841660808601528686015165ffffffffffff90811660a08701529187015190911660c08501529083523090830152835192820192909252907f000000000000000000000000000000000022d473030f116ddee9f6b43ac78ba316632b67b57061224a611a0f565b8385608001516040518463ffffffff1660e01b815260040161226e9392919061560a565b600060405180830381600087803b15801561228857600080fd5b505af1925050508015612299575060015b6122cf573d8080156122c7576040519150601f19603f3d011682016040523d82523d6000602084013e6122cc565b606091505b50505b50505b60006122dd88613711565b90506122f26122ea611a0f565b308a8a611ca6565b806122fc89613711565b6119769190615187565b60008361231457600061231f565b61231f878787613799565b90506001600160a01b037f000000000000000000000000ed0a1e01504710a5e40524060d2c8ce64fa20e7c166351fc1735888861235c858a615499565b6040516001600160e01b031960e086901b16815260048101939093526001600160a01b0390911660248301526044820152606401600060405180830381600087803b1580156123aa57600080fd5b505af11580156123be573d6000803e3d6000fd5b50505050867f9ecaf7fc3dfffd6867c175d6e684b1f1e3aef019398ba8db2c1ffab4a09db253868386866123f0611a0f565b60405161240195949392919061567e565b60405180910390a250505050505050565b600061241c611a0f565b9050836001600160a01b0316816001600160a01b0316141580156124eb5750604051631a45b42760e11b81526001600160a01b0382811660048301528581166024830152604482018590526064820184905260016084830181905260a48301527f000000000000000000000000cfba13b8dcb2bb4f84c5d2704882009a539bee9a169063348b684e9060c401602060405180830381865afa1580156124c5573d6000803e3d6000fd5b505050506040513d601f19601f820116820180604052508101906124e991906150e6565b155b15611a2e5760405163075fd2b160e01b815260040160405180910390fd5b60006125136147c6565b6000888152602081815260408083206001600160a01b038b81168552925291829020915163060f2bdf60e31b81527f000000000000000000000000ed0a1e01504710a5e40524060d2c8ce64fa20e7c909116916330795ef89161257e918c918b908b906004016156ca565b610140604051808303816000875af115801561259e573d6000803e3d6000fd5b505050506040513d601f19601f820116820180604052508101906125c291906156f0565b9250905060006125d3610e1d611a0f565b612685576126808989857f000000000000000000000000f8ea7ba8d990646420123feaa2447b534ab2f53c6001600160a01b0316636352211e8e6040518263ffffffff1660e01b815260040161262b91815260200190565b602060405180830381865afa158015612648573d6000803e3d6000fd5b505050506040513d601f19601f8201168201806040525081019061266c9190614e4a565b610100870151604e1c600190811614613aec565b612688565b60005b6126929084615187565b905080156126a6576126a630868a84611ca6565b88826000015165ffffffffffff16836020015165ffffffffffff167f8657a0c05a68a912c23c1bd00124afaa8c669063b046bd9bfd22b21d573c5e6d888b88878b6126ef611a0f565b6040516127019695949392919061571f565b60405180910390a450509695505050505050565b600061271f6147c6565b6000878152602081815260408083206001600160a01b038a8116855290835281842082516060808201855291549283168152600160a01b830460ff1681860152600160a81b90920463ffffffff16828401528b855260018452828520805484518187028101870190955280855291959492938593909290849084015b828210156127f557600084815260209081902060408051606081018252918501546001600160a01b0381168352600160a01b810460ff1683850152600160a81b900463ffffffff169082015282526001909201910161279b565b5050604051630d346b8160e01b8152929350506001600160a01b037f000000000000000000000000ed0a1e01504710a5e40524060d2c8ce64fa20e7c1691630d346b819150612852908f908f908e90889088908f90600401615769565b6000604051808303816000875af1158015612871573d6000803e3d6000fd5b505050506040513d6000823e601f3d908101601f1916820160405261289991908101906157de565b9198509196509450925050871561292d576128b38a611983565b60405163516a997360e11b81526001600160a01b038d81166004830152602482018d9052604482018b90526080606483015260006084830152919091169063a2d532e69060a401600060405180830381600087803b15801561291457600080fd5b505af1158015612928573d6000803e3d6000fd5b505050505b600085156129885761293e88611a34565b15801561294d57506127108314155b156129765761295c8682615499565b9050612969866019611ac3565b6129739087615187565b95505b85156129885761298830898c89611ca6565b8351156129e7576129da8b60405180608001604052808d6001600160a01b03168152602001856020015160ff168152602001856040015163ffffffff168152602001898152508e8c8b8a898f8c613cb3565b6129e49082615499565b90505b806000036129f6576000612a04565b612a048b8b838b6000613aec565b508a856000015165ffffffffffff16866020015165ffffffffffff167f9565fc8bdd4f45a73582d1163dbe522a4fb0c4dbb882b5e66269f70101a2509a8f8c8e898d8f612a4f611a0f565b604051612a62979695949392919061590f565b60405180910390a450505050509695505050505050565b6000612a836147c6565b6000868152602081815260408083206001600160a01b038981168552925291829020915163181241e760e31b81527f000000000000000000000000ed0a1e01504710a5e40524060d2c8ce64fa20e7c9091169163c0920f3891612aee918a91899089906004016156ca565b610140604051808303816000875af1158015612b0e573d6000803e3d6000fd5b505050506040513d601f19601f82011682018060405250810190612b3291906156f0565b610100820151909350909150604d1c600190811603612be0576040516331a9108f60e11b815260048101879052612be0907f000000000000000000000000f8ea7ba8d990646420123feaa2447b534ab2f53c6001600160a01b031690636352211e90602401602060405180830381865afa158015612bb4573d6000803e3d6000fd5b505050506040513d601f19601f82011682018060405250810190612bd89190614e4a565b876004612412565b6040516331a9108f60e11b8152600481018790526000907f000000000000000000000000f8ea7ba8d990646420123feaa2447b534ab2f53c6001600160a01b031690636352211e90602401602060405180830381865afa158015612c48573d6000803e3d6000fd5b505050506040513d601f19601f82011682018060405250810190612c6c9190614e4a565b9050600080612c898989866020015165ffffffffffff1688613f37565b90925090506000612cb58a8a612c9f8686615499565b6101008901518890604e1c600190811614613aec565b905060008315612ce257612cca846019611ac3565b612cd49085615187565b9050612ce230868c84611ca6565b8a866000015165ffffffffffff16876020015165ffffffffffff167fda42c5c18ef97738d10c32811895add569670a6fcbe9627ea198d446f3be6dea888d8c8888612d2b611a0f565b604080516001600160a01b03978816815260208101969096528501939093526060840191909152608083015290911660a082015260c00160405180910390a4505050505050949350505050565b604080516080810182526000808252602082018190529181018290526060810182905260008060008b815260200190815260200160002060008a6001600160a01b03166001600160a01b031681526020019081526020016000206040518060600160405290816000820160009054906101000a90046001600160a01b03166001600160a01b03166001600160a01b031681526020016000820160149054906101000a900460ff1660ff1660ff1681526020016000820160159054906101000a900463ffffffff1663ffffffff1663ffffffff1681525050905060405180608001604052808a6001600160a01b03168152602001826020015160ff168152602001826040015163ffffffff1681526020018981525091505060008060007f000000000000000000000000ed0a1e01504710a5e40524060d2c8ce64fa20e7c6001600160a01b031663c59dfadb8a868f8c8b6040518663ffffffff1660e01b8152600401612ee8959493929190615997565b6000604051808303816000875af1158015612f07573d6000803e3d6000fd5b505050506040513d6000823e601f3d908101601f19168201604052612f2f91908101906159d9565b92509250925081600014612fda57612f468c611983565b6040516363fdc96f60e11b8152600481018e9052602481018490526001600160a01b038a8116604483015260a06064830152600060a483015260016084830152919091169063c7fb92de9060c4016020604051808303816000875af1158015612fb3573d6000803e3d6000fd5b505050506040513d601f19601f82011682018060405250810190612fd7919061539a565b94505b805115612ff157612ff18c82868c878d8b8d61410f565b8b836000015165ffffffffffff16846020015165ffffffffffff167f133161f1c9161488f777ab9a26aae91d47c0d9a3fafb398960f138db02c737978c8c8f8b8e8e61303b611a0f565b60405161304e9796959493929190615af8565b60405180910390a450505050979650505050505050565b6000366014336001600160a01b037f000000000000000000000000b2b5841dbef766d4b521221732f9b618fcf34a87161480156130a25750808210155b156130d2576000366130b48385615187565b6130bf928290615b58565b6130c891615b82565b60601c9250505090565b339250505090565b60008080600019858709858702925082811083820303915050806000036131145783828161310a5761310a615bb7565b04925050506115c0565b83811061314a57604051630c740aef60e31b81526004810187905260248101869052604481018590526064015b60405180910390fd5b60008486880960026001871981018816978890046003810283188082028403028082028403028082028403028082028403028082028403029081029092039091026000889003889004909101858311909403939093029303949094049190911702949350505050565b604051636eb1769f60e11b81523060048201526001600160a01b0383811660248301526000919085169063dd62ed3e90604401602060405180830381865afa158015613203573d6000803e3d6000fd5b505050506040513d601f19601f82011682018060405250810190613227919061539a565b9050611a2e84846132388585615499565b61432e565b804710156132605760405163cd78605960e01b8152306004820152602401613141565b6000826001600160a01b03168260405160006040518083038185875af1925050503d80600081146132ad576040519150601f19603f3d011682016040523d82523d6000602084013e6132b2565b606091505b5050905080611b1157604051630a12f52160e11b815260040160405180910390fd5b6040516001600160a01b03838116602483015260448201839052611b1191859182169063a9059cbb906064015b604051602081830303815290604052915060e01b6020820180516001600160e01b0383818316178352505050506143ba565b6040516001600160a01b038481166024830152838116604483015260648201839052611a2e9186918216906323b872dd90608401613301565b604051632fc8972b60e11b8152600481018790526001600160a01b038087166024830152604482018690528085166064830152831660848201523090635f912e569060a401600060405180830381600087803b1580156133cb57600080fd5b505af19250505080156133dc575060015b6134ee573d80801561340a576040519150601f19603f3d011682016040523d82523d6000602084013e61340f565b606091505b506040516351fc173560e01b8152600481018890526001600160a01b038781166024830152604482018790527f000000000000000000000000ed0a1e01504710a5e40524060d2c8ce64fa20e7c16906351fc173590606401600060405180830381600087803b15801561348157600080fd5b505af1158015613495573d6000803e3d6000fd5b505050506001866001600160a01b0316887f4b73f3c5cfb174c9d0494138d07ff8ee3aa400df46327d9893ed5ac122dd558a88856134d1611a0f565b6040516134e093929190615bcd565b60405180910390a4506112f6565b83856001600160a01b0316877fb514e730b3f8ad3aa94b6857bcc5ff4a46954bdcf8c4b0346705b1d0ac7a43258487613525611a0f565b6040805193151584526001600160a01b03928316602085015291169082015260600160405180910390a4505050505050565b805160208201206000903060601b18610737565b600060606025835111613590575050604080516020810190915260008082529061370a565b60008361359f60046020615499565b815181106135af576135af61506d565b0160209081015160f81c91505b6000856135ca600484615499565b815181106135da576135da61506d565b01602001516001600160f81b0319161480159061360057506135fd602083615bfe565b81105b1561370757600085613613600484615499565b815181106136235761362361506d565b016020908101518784019091015160f89190911c91506001600160e01b0319808916908216036136fd57600061365a602086615bfe565b613665600986615499565b10158061369a575087613679600986615499565b815181106136895761368961506d565b01602001516001600160f81b031916155b6136d3576020886136ac600987615499565b815181106136bc576136bc61506d565b01602001516136ce919060f81c615bfe565b6136d6565b87515b905060016136ef896136e9602087615bfe565b8461441d565b96509650505050505061370a565b50506005016135bc565b50505b9250929050565b60006001600160a01b03821661eeee14613792576040516370a0823160e01b81523060048201526001600160a01b038316906370a0823190602401602060405180830381865afa158015613769573d6000803e3d6000fd5b505050506040513d601f19601f8201168201806040525081019061378d919061539a565b610737565b4792915050565b60008381526002602090815260408083206001600160a01b0386168452825280832080548251818502810185019093528083528493849084015b828210156138325760008481526020908190206040805160608101825260028602909201805483526001908101546001600160a01b03811684860152600160a01b900465ffffffffffff169183019190915290835290920191016137d3565b50505060008781526002602090815260408083206001600160a01b038a16845290915281209293506138659291506147a5565b8051604080516060810182526000808252602082018190529181018290528592915b82811015613a82578481815181106138a1576138a161506d565b602002602001015191508360000361392b5760008981526002602081815260408084206001600160a01b03808e16865290835281852080546001818101835591875295849020885196909502909401948555918601519390920180549286015165ffffffffffff16600160a01b026001600160d01b03199093169390911692909217179055613a7a565b600061393c83600001516019611ac3565b905060008184600001516139509190615187565b905080861061396757968101969485900394613a77565b613972866019614463565b9150600260008c815260200190815260200160002060008b6001600160a01b03166001600160a01b031681526020019081526020016000206040518060600160405280888403815260200186602001516001600160a01b03168152602001866040015165ffffffffffff1681525090806001815401808255809150506001900390600052602060002090600202016000909190919091506000820151816000015560208201518160010160006101000a8154816001600160a01b0302191690836001600160a01b0316021790555060408201518160010160146101000a81548165ffffffffffff021916908365ffffffffffff16021790555050508188019750600095505b50505b600101613887565b5085876001600160a01b0316897fedc5125503c021a73fd7d8ed0c2456b296be2c88f39fbed068bd091cef7ca43d8887613aba611a0f565b6040805193845260208401929092526001600160a01b03169082015260600160405180910390a4505050509392505050565b6000613af9846019611ac3565b90508115613c0c5760008681526002602090815260408083206001600160a01b03808a168552908352928190208151606081018352888152938716928401929092529091908101613b4d6224ea0042615499565b65ffffffffffff908116909152825460018181018555600094855260209485902084516002909302019182559383015193018054604090930151909116600160a01b026001600160d01b03199092166001600160a01b039384161791909117905584908616877fef9cd8fc3b61b64b44042ada0a8a3ede1649bc1b112673da228120f13bf1381e601987613bdf611a0f565b604080519384526001600160a01b03928316602085015291169082015260600160405180910390a46111d0565b604051630862026560e41b8152600160048201526001600160a01b0386811660248301526000917f000000000000000000000000877e8e31ed1bf9f628efa25636c5bc9dd83baa7790911690638620265090604401602060405180830381865afa158015613c7e573d6000803e3d6000fd5b505050506040513d601f19601f82011682018060405250810190613ca29190614e4a565b90506111ce8787848785600061336c565b6000806040518061014001604052808a6001600160a01b031681526020018c8152602001876020015165ffffffffffff1681526020018981526020018b81526020018b8152602001868152602001856001600160a01b03168152602001604051806020016040528060008152508152602001888152509050600083519050613d5e604051806060016040528060006001600160a01b0316815260200160008152602001606081525090565b60005b82811015613f2657858181518110613d7b57613d7b61506d565b602002602001015191506000613d948360000151611a34565b613dac57613da783602001516019611ac3565b613daf565b60005b90508015613dde576020830151613dc69087615499565b95508083602001818151613dda9190615187565b9052505b60405180608001604052808f600001516001600160a01b031681526020018f6020015160ff1681526020018f6040015163ffffffff16815260200184602001518152508560a001819052508260400151856101000181905250613e4e83600001518f600001518560200151611ae5565b6000613e628f600001518560200151611b16565b8451604051631727f03960e01b81529192506001600160a01b031690631727f039908390613e94908a90600401615cc0565b6000604051808303818588803b158015613ead57600080fd5b505af1158015613ec1573d6000803e3d6000fd5b505050505083600001516001600160a01b03167f3dc4bcf15d77035ba58aff65ebae2b29daccddfc22b9dcf03638e3f727577b0587866020015185613f04611a0f565b604051613f149493929190615cd3565b60405180910390a25050600101613d61565b505050509998505050505050505050565b6040516369e11cc560e01b815260048101859052602481018390526001600160a01b0384811660448301526000918291633b9aca009183917f00000000000000000000000029f42dcf58d94204a94a22999aeeaf4e106c32bc16906369e11cc590606401600060405180830381865afa158015613fb8573d6000803e3d6000fd5b505050506040513d6000823e601f3d908101601f19168201604052613fe09190810190615d0b565b80516040805160c081018252600080825260208201819052918101829052606081018290526080810182905260a08101919091529192509060005b828110156140fe578381815181106140355761403561506d565b60200260200101519150600061405689846020015163ffffffff16886130da565b90506000614066848e8e85614472565b905080158015906140775750818114155b15614089576140868289615499565b97505b811561409557818a0399505b836020015163ffffffff16870396508b6001600160a01b03168b8e7f527d1f65cc7cbc5b19926d6b040f10ec7f946968eced5ecf248d2f4f2c28f5f68786866140dc611a0f565b6040516140ec9493929190615e1c565b60405180910390a4505060010161401b565b508695505050505094509492505050565b6000604051806101400160405280876001600160a01b031681526020018a8152602001866020015165ffffffffffff1681526020018881526020018881526020018660a001516001600160701b03168152602001848152602001856001600160a01b031681526020016040518060200160405280600081525081526020018381525090506000885190506141c6604051806060016040528060006001600160a01b0316815260200160008152602001606081525090565b60005b82811015614320578a81815181106141e3576141e361506d565b60209081029190910181015160408051608080820183528e516001600160a01b031682528e85015160ff16828601528e83015163ffffffff1682840152938301805160608301529388015281015161010087015280518c51925191945061424b929091611ae5565b600061425f8b600001518460200151611b16565b835160405163099bfcc360e11b81529192506001600160a01b031690631337f986908390614291908990600401615ee0565b6000604051808303818588803b1580156142aa57600080fd5b505af11580156142be573d6000803e3d6000fd5b505050505082600001516001600160a01b03167fb1ed2cd5f80d2005b57f16c4c1a1c8ee500b96725924cad83e44f32f05f400c0868560200151614300611a0f565b60405161430f93929190615ef3565b60405180910390a2506001016141c9565b505050505050505050505050565b604080516001600160a01b038416602482015260448082018490528251808303909101815260649091019091526020810180516001600160e01b031663095ea7b360e01b17905261437f84826145f8565b611a2e576040516001600160a01b038481166024830152600060448301526143b491869182169063095ea7b390606401613301565b611a2e84825b60006143cf6001600160a01b0384168361469b565b905080516000141580156143f45750808060200190518101906143f291906150e6565b155b15611b1157604051635274afe760e01b81526001600160a01b0384166004820152602401613141565b60608282036040519150602081830101604052808252508260208501016020820160005b84811015614459578281015182820152602001614441565b5050509392505050565b60006115c083836103e86130da565b600030634ff513ab86868686614486611a0f565b6040518663ffffffff1660e01b81526004016144a6959493929190615f26565b6020604051808303816000875af19250505080156144e1575060408051601f3d908101601f191682019092526144de9181019061539a565b60015b6145ed573d80801561450f576040519150601f19603f3d011682016040523d82523d6000602084013e614514565b606091505b506040516351fc173560e01b8152600481018690526001600160a01b038581166024830152604482018590527f000000000000000000000000ed0a1e01504710a5e40524060d2c8ce64fa20e7c16906351fc173590606401600060405180830381600087803b15801561458657600080fd5b505af115801561459a573d6000803e3d6000fd5b50505050847f7d1404acd9b8028cb88963a50aeeb83774d101e993a7fd89967afbc2d94c33fb8785846145cb611a0f565b6040516145db9493929190615f65565b60405180910390a260009150506145f0565b90505b949350505050565b6000806000846001600160a01b0316846040516146159190615fa7565b6000604051808303816000865af19150503d8060008114614652576040519150601f19603f3d011682016040523d82523d6000602084013e614657565b606091505b509150915081801561468157508051158061468157508080602001905181019061468191906150e6565b80156111d05750505050506001600160a01b03163b151590565b60606115c08383600084600080856001600160a01b031684866040516146c19190615fa7565b60006040518083038185875af1925050503d80600081146146fe576040519150601f19603f3d011682016040523d82523d6000602084013e614703565b606091505b509150915061471386838361471d565b9695505050505050565b6060826147325761472d82614779565b6115c0565b815115801561474957506001600160a01b0384163b155b1561477257604051639996b31560e01b81526001600160a01b0385166004820152602401613141565b50806115c0565b8051156147895780518082602001fd5b604051630a12f52160e11b815260040160405180910390fd5b50565b50805460008255600202906000526020600020908101906147a29190614812565b6040805161012081018252600080825260208201819052918101829052606081018290526080810182905260a0810182905260c0810182905260e0810182905261010081019190915290565b5b8082111561483957600081556001810180546001600160d01b0319169055600201614813565b5090565b60006020828403121561484f57600080fd5b81356001600160e01b0319811681146115c057600080fd5b60008060006040848603121561487c57600080fd5b8335925060208401356001600160401b038082111561489a57600080fd5b818601915086601f8301126148ae57600080fd5b8135818111156148bd57600080fd5b8760206060830285010111156148d257600080fd5b6020830194508093505050509250925092565b6001600160a01b03811681146147a257600080fd5b6000806040838503121561490d57600080fd5b82359150602083013561491f816148e5565b809150509250929050565b602080825282518282018190526000919060409081850190868401855b8281101561498757815180518552868101516001600160a01b03168786015285015165ffffffffffff168585015260609093019290850190600101614947565b5091979650505050505050565b80516001600160a01b0316825260208082015160ff169083015260409081015163ffffffff16910152565b606081016107378284614994565b60008060008060008587036101408112156149e757600080fd5b60c08112156149f557600080fd5b5085945060c0860135935060e0860135614a0e816148e5565b92506101008601359150610120860135614a27816148e5565b809150509295509295909350565b600060208284031215614a4757600080fd5b5035919050565b60008151808452602080850194506020840160005b83811015614a8957614a76878351614994565b6060969096019590820190600101614a63565b509495945050505050565b6020815260006115c06020830184614a4e565b600060208284031215614ab957600080fd5b81356115c0816148e5565b600080600080600060a08688031215614adc57600080fd5b853594506020860135614aee816148e5565b9350604086013592506060860135614b05816148e5565b91506080860135614a27816148e5565b80151581146147a257600080fd5b60008083601f840112614b3557600080fd5b5081356001600160401b03811115614b4c57600080fd5b60208301915083602082850101111561370a57600080fd5b60008060008060008060008060c0898b031215614b8057600080fd5b883597506020890135614b92816148e5565b9650604089013595506060890135614ba981614b15565b945060808901356001600160401b0380821115614bc557600080fd5b614bd18c838d01614b23565b909650945060a08b0135915080821115614bea57600080fd5b50614bf78b828c01614b23565b999c989b5096995094979396929594505050565b60008060008060008060008060e0898b031215614c2757600080fd5b883597506020890135614c39816148e5565b965060408901359550606089013594506080890135935060a0890135614c5e816148e5565b925060c08901356001600160401b03811115614c7957600080fd5b614bf78b828c01614b23565b60008060008060008060008060e0898b031215614ca157600080fd5b8835614cac816148e5565b9750602089013596506040890135614cc3816148e5565b9550606089013594506080890135935060a0890135614c5e816148e5565b600080600060608486031215614cf657600080fd5b505081359360208301359350604090920135919050565b600080600080600060a08688031215614d2557600080fd5b853594506020860135614d37816148e5565b94979496505050506040830135926060810135926080909101359150565b600080600060608486031215614d6a57600080fd5b833592506020840135614d7c816148e5565b91506040840135614d8c816148e5565b809150509250925092565b600080600080600080600080600060e08a8c031215614db557600080fd5b8935985060208a0135614dc7816148e5565b975060408a0135965060608a0135614dde816148e5565b955060808a0135945060a08a01356001600160401b0380821115614e0157600080fd5b614e0d8d838e01614b23565b909650945060c08c0135915080821115614e2657600080fd5b50614e338c828d01614b23565b915080935050809150509295985092959850929598565b600060208284031215614e5c57600080fd5b81516115c0816148e5565b634e487b7160e01b600052604160045260246000fd5b60405161012081016001600160401b0381118282101715614ea057614ea0614e67565b60405290565b604051606081016001600160401b0381118282101715614ea057614ea0614e67565b60405160c081016001600160401b0381118282101715614ea057614ea0614e67565b60405160a081016001600160401b0381118282101715614ea057614ea0614e67565b604051601f8201601f191681016001600160401b0381118282101715614f3457614f34614e67565b604052919050565b65ffffffffffff811681146147a257600080fd5b8051614f5b81614f3c565b919050565b63ffffffff811681146147a257600080fd5b8051614f5b81614f60565b80516001600160701b0381168114614f5b57600080fd5b8051614f5b816148e5565b60006101208284031215614fb257600080fd5b614fba614e7d565b9050614fc582614f50565b8152614fd360208301614f50565b6020820152614fe460408301614f50565b6040820152614ff560608301614f50565b606082015261500660808301614f72565b608082015261501760a08301614f7d565b60a082015261502860c08301614f72565b60c082015261503960e08301614f94565b60e082015261010080830151818301525092915050565b6000610120828403121561506357600080fd5b6115c08383614f9f565b634e487b7160e01b600052603260045260246000fd5b60ff811681146147a257600080fd5b6000606082840312156150a457600080fd5b6150ac614ea6565b82356150b7816148e5565b815260208301356150c781615083565b602082015260408301356150da81614f60565b60408201529392505050565b6000602082840312156150f857600080fd5b81516115c081614b15565b60006020828403121561511557600080fd5b81516115c081615083565b546001600160a01b038116825260a081901c60ff16602083015260a81c63ffffffff16604090910152565b608081016151598285615120565b6001600160a01b039290921660609190910152919050565b634e487b7160e01b600052601160045260246000fd5b8181038181111561073757610737615171565b66ffffffffffffff811681146147a257600080fd5b600060c082840312156151c157600080fd5b6151c9614ec8565b82356151d481614b15565b815260208301356151e481614f60565b602082015260408301356151f78161519a565b6040820152606083013561520a816148e5565b6060820152608083013561521d81614f3c565b608082015260a0830135615230816148e5565b60a08201529392505050565b80511515825260208082015163ffffffff169083015260408082015166ffffffffffffff16908301526060808201516001600160a01b039081169184019190915260808083015165ffffffffffff169084015260a09182015116910152565b81516001600160a01b031681526020808301519082015260408083015190820152606080830151908201526080808301519082015260a0828101516101608301916152e89084018261523c565b5092915050565b60006020828403121561530157600080fd5b81356115c08161519a565b60006020828403121561531e57600080fd5b81356115c081614b15565b6001600160a01b0386168152602080820186905260a060408301819052855490830181905260008681529182209060c0840190835b81811015615383576153708385615120565b600193840193606093909301920161535e565b505060608401959095525050608001529392505050565b6000602082840312156153ac57600080fd5b5051919050565b6000606082840312156153c557600080fd5b6153cd614ea6565b82516153d8816148e5565b815260208301516153e881615083565b602082015260408301516150da81614f60565b60005b838110156154165781810151838201526020016153fe565b50506000910152565b600081518084526154378160208601602086016153fb565b601f01601f19169290920160200192915050565b85815260018060a01b0385166020820152836040820152821515606082015260c06080820152600060c082015260e060a0820152600061548e60e083018461541f565b979650505050505050565b8082018082111561073757610737615171565b868152600060018060a01b03808816602084015286604084015280861660608401525083608083015260e060a0830152600060e08301526101008060c08401526119768184018561541f565b600082601f83011261550957600080fd5b81516001600160401b0381111561552257615522614e67565b615535601f8201601f1916602001614f0c565b81815284602083860101111561554a57600080fd5b6145f08260208301602087016153fb565b60006020828403121561556d57600080fd5b81516001600160401b038082111561558457600080fd5b9083019060a0828603121561559857600080fd5b6155a0614eea565b8251815260208301516155b2816148e5565b602082015260408301516155c581614f3c565b604082015260608301516155d881614f3c565b60608201526080830151828111156155ef57600080fd5b6155fb878286016154f8565b60808301525095945050505050565b600061010060018060a01b0380871684528551818151166020860152816020820151166040860152604081015165ffffffffffff80821660608801528060608401511660808801525050508060208701511660a085015250604085015160c08401528060e08401526147138184018561541f565b85815284602082015260a06040820152600061569d60a083018661541f565b82810360608401526156af818661541f565b91505060018060a01b03831660808301529695505050505050565b84815260c081016156de6020830186615120565b608082019390935260a0015292915050565b600080610140838503121561570457600080fd5b61570e8484614f9f565b915061012083015190509250929050565b600060018060a01b03808916835287602084015286604084015285606084015260c0608084015261575360c084018661541f565b915080841660a084015250979650505050505050565b6001600160a01b0387168152602081018690526040810185905260006101006157956060840187614994565b8060c08401526157a781840186614a4e565b905082810360e0840152611976818561541f565b60006001600160401b038211156157d4576157d4614e67565b5060051b60200190565b60008060008061018085870312156157f557600080fd5b6157ff8686614f9f565b9350610120850151925061014085015191506101608501516001600160401b038082111561582c57600080fd5b818701915087601f83011261584057600080fd5b815161585361584e826157bb565b614f0c565b8082825260208201915060208360051b86010192508a83111561587557600080fd5b602085015b838110156158ff5780518581111561589157600080fd5b86016060818e03601f190112156158a757600080fd5b6158af614ea6565b60208201516158bd816148e5565b8152604082015160208201526060820151878111156158db57600080fd5b6158ea8f6020838601016154f8565b6040830152508452506020928301920161587a565b50979a9699509497505050505050565b600060018060a01b03808a168352808916602084015287604084015286606084015285608084015260e060a084015261594b60e084018661541f565b915080841660c08401525098975050505050505050565b80516001600160a01b0316825260208082015160ff169083015260408082015163ffffffff1690830152606090810151910152565b6001600160a01b038681168252600090610100906159b86020850189615962565b8660a085015280861660c0850152508060e084015261149a8184018561541f565b600080600061016084860312156159ef57600080fd5b6159f98585614f9f565b925061012084015191506101408401516001600160401b0380821115615a1e57600080fd5b818601915086601f830112615a3257600080fd5b81516020615a4261584e836157bb565b82815260059290921b8401810191818101908a841115615a6157600080fd5b8286015b84811015615ae757805186811115615a7c57600080fd5b87016060818e03601f19011215615a9257600080fd5b615a9a614ea6565b85820151615aa7816148e5565b8152604082015186820152606082015188811115615ac55760008081fd5b615ad38f88838601016154f8565b604083015250845250918301918301615a65565b508096505050505050509250925092565b600060018060a01b03808a168352808916602084015287604084015286606084015260e06080840152615b2e60e084018761541f565b83810360a0850152615b40818761541f565b92505080841660c08401525098975050505050505050565b60008085851115615b6857600080fd5b83861115615b7557600080fd5b5050820193919092039150565b6bffffffffffffffffffffffff198135818116916014851015615baf5780818660140360031b1b83161692505b505092915050565b634e487b7160e01b600052601260045260246000fd5b838152606060208201526000615be6606083018561541f565b905060018060a01b0383166040830152949350505050565b808202811582820484141761073757610737615171565b80516001600160a01b0316825260006102006020830151602085015260408301516040850152606083015160608501526080830151615c576080860182615962565b5060a0830151610100615c6c81870183615962565b60c085015161018087015260e08501516001600160a01b03166101a08701528401516101c086018390529050615ca48286018261541f565b9150506101208301518482036101e08601526111d0828261541f565b6020815260006115c06020830184615c15565b608081526000615ce66080830187615c15565b60208301959095525060408101929092526001600160a01b0316606090910152919050565b60006020808385031215615d1e57600080fd5b82516001600160401b03811115615d3457600080fd5b8301601f81018513615d4557600080fd5b8051615d5361584e826157bb565b81815260c09182028301840191848201919088841115615d7257600080fd5b938501935b83851015615e105780858a031215615d8f5760008081fd5b615d97614ec8565b8551615da281614b15565b815285870151615db181614f60565b81880152604086810151615dc48161519a565b90820152606086810151615dd7816148e5565b90820152608086810151615dea81614f3c565b9082015260a086810151615dfd816148e5565b9082015283529384019391850191615d77565b50979650505050505050565b6101208101615e2b828761523c565b60c082019490945260e08101929092526001600160a01b031661010090910152919050565b80516001600160a01b03168252600061020060208301516020850152604083015160408501526060830151615e886060860182615962565b506080830151615e9b60e0860182615962565b5060a083015161016085015260c083015161018085015260e08301516001600160a01b03166101a08501526101008301516101c08501829052615ca48286018261541f565b6020815260006115c06020830184615e50565b606081526000615f066060830186615e50565b6020830194909452506001600160a01b0391909116604090910152919050565b6101408101615f35828861523c565b60c08201959095526001600160a01b0393841660e082015261010081019290925290911661012090910152919050565b6000610120615f74838861523c565b8560c08401528060e0840152615f8c8184018661541f565b91505060018060a01b03831661010083015295945050505050565b60008251615fb98184602087016153fb565b919091019291505056fea2646970667358221220842684856becb92d161bf20101a356e75aedc1761eace8545d6e60e9a2da996864736f6c63430008170033",
	"devdoc": {
		"kind": "dev",
		"methods": {
			"accountingContextForTokenOf(uint256,address)": {
				"details": "See the `JBAccountingContext` struct for more information.",
				"params": {
					"projectId": "The ID of the project to get token accounting context of.",
					"token": "The token to check the accounting context of."
				},
				"returns": {
					"_0": "The token's accounting context for the token."
				}
			},
			"accountingContextsOf(uint256)": {
				"params": {
					"projectId": "The ID of the project to get the accepted tokens of."
				},
				"returns": {
					"_0": "tokenContexts The accounting contexts of the accepted tokens."
				}
			},
			"addAccountingContextsFor(uint256,(address,uint8,uint32)[])": {
				"details": "Only a project's owner, an operator with the `ADD_ACCOUNTING_CONTEXTS` permission from that owner, or a project's controller can add accounting contexts for the project.",
				"params": {
					"accountingContexts": "The accounting contexts to add.",
					"projectId": "The ID of the project having to add accounting contexts for."
				}
			},
			"addToBalanceOf(uint256,address,uint256,bool,string,bytes)": {
				"details": "Adding to balance can unlock held fees if `shouldUnlockHeldFees` is true.",
				"params": {
					"amount": "The amount of tokens to add to the balance, as a fixed point number with the same number of decimals as this terminal. If this is a native token terminal, this is ignored and `msg.value` is used instead.",
					"memo": "A memo to pass along to the emitted event.",
					"metadata": "Extra data to pass along to the emitted event.",
					"projectId": "The ID of the project to add funds to the balance of.",
					"shouldReturnHeldFees": "A flag indicating if held fees should be returned based on the amount being added.",
					"token": "The token being added to the balance."
				}
			},
			"constructor": {
				"params": {
					"feelessAddresses": "A contract that stores addresses that shouldn't incur fees when being paid towards or from.",
					"permissions": "A contract storing permissions.",
					"permit2": "A permit2 utility.",
					"projects": "A contract which mints ERC-721s that represent project ownership and transfers.",
					"splits": "A contract that stores splits for each project.",
					"store": "A contract that stores the terminal's data.",
					"trustedForwarder": "A trusted forwarder of transactions to this contract."
				}
			},
			"currentSurplusOf(uint256,uint256,uint256)": {
				"details": "This total surplus only includes tokens that the project accepts (as returned by `accountingContextsOf(...)`).",
				"params": {
					"currency": "The currency to express the returned value in terms of.",
					"decimals": "The number of decimals to include in the fixed point returned value.",
					"projectId": "The ID of the project to get the current total surplus of."
				},
				"returns": {
					"_0": "The current surplus amount the project has in this terminal, in terms of `currency` and with the specified number of decimals."
				}
			},
			"executePayout((bool,uint32,uint56,address,uint48,address),uint256,address,uint256,address)": {
				"details": "Only accepts calls from this terminal itself.",
				"params": {
					"amount": "The total amount being paid to the split, as a fixed point number with the same number of decimals as this terminal.",
					"projectId": "The ID of the project the split belongs to.",
					"split": "The split to pay.",
					"token": "The address of the token being paid to the split."
				},
				"returns": {
					"netPayoutAmount": "The amount sent to the split after subtracting fees."
				}
			},
			"executeProcessFee(uint256,address,uint256,address,address)": {
				"details": "Only accepts calls from this terminal itself.",
				"params": {
					"amount": "The fee amount, as a fixed point number with 18 decimals.",
					"beneficiary": "The address to mint tokens to (from the project which receives fees), and pass along to the ruleset's data hook and pay hook if applicable.",
					"feeTerminal": "The terminal that'll receive the fees.",
					"projectId": "The ID of the project paying the fee.",
					"token": "The token the fee is being paid in."
				}
			},
			"heldFeesOf(uint256,address)": {
				"details": "Projects can temporarily hold fees and unlock them later by adding funds to the project's balance.Held fees can be processed at any time by this terminal's owner.",
				"params": {
					"projectId": "The ID of the project that is holding fees.",
					"token": "The token that the fees are held in."
				}
			},
			"isTrustedForwarder(address)": {
				"details": "Indicates whether any particular address is the trusted forwarder."
			},
			"migrateBalanceOf(uint256,address,address)": {
				"details": "Only a project's owner or an operator with the `MIGRATE_TERMINAL` permission from that owner can migrate the project's terminal.",
				"params": {
					"projectId": "The ID of the project being migrated.",
					"to": "The terminal contract being migrated to, which will receive the project's funds and operations.",
					"token": "The address of the token being migrated."
				},
				"returns": {
					"balance": "The amount of funds that were migrated, as a fixed point number with the same amount of decimals as this terminal."
				}
			},
			"pay(uint256,address,uint256,address,uint256,string,bytes)": {
				"params": {
					"amount": "The amount of terminal tokens being received, as a fixed point number with the same number of decimals as this terminal. If this terminal's token is native, this is ignored and `msg.value` is used in its place.",
					"beneficiary": "The address to mint tokens to, and pass along to the ruleset's data hook and pay hook if applicable.",
					"memo": "A memo to pass along to the emitted event.",
					"metadata": "Bytes to pass along to the emitted event, as well as the data hook and pay hook if applicable.",
					"minReturnedTokens": "The minimum number of project tokens expected in return for this payment, as a fixed point number with the same number of decimals as this terminal. If the amount of tokens minted for the beneficiary would be less than this amount, the payment is reverted.",
					"projectId": "The ID of the project being paid.",
					"token": "The token being paid."
				},
				"returns": {
					"beneficiaryTokenCount": "The number of tokens minted to the beneficiary, as a fixed point number with 18 decimals."
				}
			},
			"processHeldFeesOf(uint256,address)": {
				"params": {
					"projectId": "The ID of the project to process held fees for.",
					"token": "The token to process held fees for."
				}
			},
			"redeemTokensOf(address,uint256,address,uint256,uint256,address,bytes)": {
				"details": "Only a token's holder or an operator with the `REDEEM_TOKENS` permission from that holder can redeem those tokens.",
				"params": {
					"beneficiary": "The address to send the reclaimed terminal tokens to, and to pass along to the ruleset's data hook and redeem hook if applicable.",
					"holder": "The account whose tokens are being redeemed.",
					"metadata": "Bytes to send along to the emitted event, as well as the data hook and redeem hook if applicable.",
					"minTokensReclaimed": "The minimum number of terminal tokens expected in return, as a fixed point number with the same number of decimals as this terminal. If the amount of tokens minted for the beneficiary would be less than this amount, the redemption is reverted.",
					"projectId": "The ID of the project the project tokens belong to.",
					"redeemCount": "The number of project tokens to redeem, as a fixed point number with 18 decimals.",
					"tokenToReclaim": "The token being reclaimed."
				},
				"returns": {
					"reclaimAmount": "The amount of terminal tokens that the project tokens were redeemed for, as a fixed point number with 18 decimals."
				}
			},
			"sendPayoutsOf(uint256,address,uint256,uint256,uint256)": {
				"details": "If the percentages of the splits in the project's payout split group do not add up to 100%, the remainder is sent to the project's owner.Anyone can send payouts on a project's behalf. Projects can include a wildcard split (a split with no `hook`, `projectId`, or `beneficiary`) to send funds to the `_msgSender()` which calls this function. This can be used to incentivize calling this function.payouts sent to addresses which aren't feeless incur the protocol fee.Payouts a projects don't incur fees if its terminal is feeless.",
				"params": {
					"amount": "The total number of terminal tokens to send, as a fixed point number with same number of decimals as this terminal.",
					"currency": "The expected currency of the payouts being sent. Must match the currency of one of the project's current ruleset's payout limits.",
					"minTokensPaidOut": "The minimum number of terminal tokens that the `amount` should be worth (if expressed in terms of this terminal's currency), as a fixed point number with the same number of decimals as this terminal. If the amount of tokens paid out would be less than this amount, the send is reverted.",
					"projectId": "The ID of the project having its payouts sent.",
					"token": "The token being sent."
				},
				"returns": {
					"amountPaidOut": "The total amount paid out."
				}
			},
			"supportsInterface(bytes4)": {
				"details": "See {IERC165-supportsInterface}.",
				"params": {
					"interfaceId": "The ID of the interface to check for adherence to."
				},
				"returns": {
					"_0": "A flag indicating if the provided interface ID is supported."
				}
			},
			"trustedForwarder()": {
				"details": "Returns the address of the trusted forwarder."
			},
			"useAllowanceOf(uint256,address,uint256,uint256,uint256,address,string)": {
				"details": "Only a project's owner or an operator with the `USE_ALLOWANCE` permission from that owner can use the surplus allowance.Incurs the protocol fee unless the caller is a feeless address.",
				"params": {
					"amount": "The amount of terminal tokens to use from the project's current surplus allowance, as a fixed point number with the same amount of decimals as this terminal.",
					"beneficiary": "The address to send the surplus funds to.",
					"currency": "The expected currency of the amount being paid out. Must match the currency of one of the project's current ruleset's surplus allowances.",
					"memo": "A memo to pass along to the emitted event.",
					"minTokensPaidOut": "The minimum number of terminal tokens that should be used from the surplus allowance (including fees), as a fixed point number with 18 decimals. If the amount of surplus used would be less than this amount, the transaction is reverted.",
					"projectId": "The ID of the project to use the surplus allowance of.",
					"token": "The token being paid out from the surplus."
				},
				"returns": {
					"amountPaidOut": "The number of tokens that were sent to the beneficiary, as a fixed point number with the same amount of decimals as the terminal."
				}
			}
		},
		"version": 1
	},
	"userdoc": {
		"kind": "user",
		"methods": {
			"DIRECTORY()": {
				"notice": "The directory of terminals and controllers for PROJECTS."
			},
			"FEE()": {
				"notice": "This terminal's fee (as a fraction out of `JBConstants.MAX_FEE`)."
			},
			"FEELESS_ADDRESSES()": {
				"notice": "The contract that stores addresses that shouldn't incur fees when being paid towards or from."
			},
			"PERMISSIONS()": {
				"notice": "A contract storing permissions."
			},
			"PERMIT2()": {
				"notice": "The permit2 utility."
			},
			"PROJECTS()": {
				"notice": "Mints ERC-721s that represent project ownership and transfers."
			},
			"RULESETS()": {
				"notice": "The contract storing and managing project rulesets."
			},
			"SPLITS()": {
				"notice": "The contract that stores splits for each project."
			},
			"STORE()": {
				"notice": "The contract that stores and manages the terminal's data."
			},
			"accountingContextForTokenOf(uint256,address)": {
				"notice": "A project's accounting context for a token."
			},
			"accountingContextsOf(uint256)": {
				"notice": "The tokens accepted by a project."
			},
			"addAccountingContextsFor(uint256,(address,uint8,uint32)[])": {
				"notice": "Adds accounting contexts for a project to this terminal so the project can begin accepting the tokens in those contexts."
			},
			"addToBalanceOf(uint256,address,uint256,bool,string,bytes)": {
				"notice": "Adds funds to a project's balance without minting tokens."
			},
			"currentSurplusOf(uint256,uint256,uint256)": {
				"notice": "Gets the total current surplus amount in this terminal for a project, in terms of a given currency."
			},
			"executePayout((bool,uint32,uint56,address,uint48,address),uint256,address,uint256,address)": {
				"notice": "Executes a payout to a split."
			},
			"executeProcessFee(uint256,address,uint256,address,address)": {
				"notice": "Process a specified amount of fees for a project."
			},
			"heldFeesOf(uint256,address)": {
				"notice": "Fees that are being held for a project."
			},
			"migrateBalanceOf(uint256,address,address)": {
				"notice": "Migrate a project's funds and operations to a new terminal that accepts the same token type."
			},
			"pay(uint256,address,uint256,address,uint256,string,bytes)": {
				"notice": "Pay a project with tokens."
			},
			"processHeldFeesOf(uint256,address)": {
				"notice": "Process any fees that are being held for the project."
			},
			"redeemTokensOf(address,uint256,address,uint256,uint256,address,bytes)": {
				"notice": "Holders can redeem a project's tokens to reclaim some of that project's surplus tokens, or to trigger rules determined by the current ruleset's data hook and redeem hook."
			},
			"sendPayoutsOf(uint256,address,uint256,uint256,uint256)": {
				"notice": "Sends payouts to a project's current payout split group, according to its ruleset, up to its current payout limit."
			},
			"supportsInterface(bytes4)": {
				"notice": "Indicates whether this contract adheres to the specified interface."
			},
			"useAllowanceOf(uint256,address,uint256,uint256,uint256,address,string)": {
				"notice": "Allows a project to pay out funds from its surplus up to the current surplus allowance."
			}
		},
		"version": 1
	},
	"gitCommit": "e3340aaa68ab5ad0b72000354da5d8180b61e01c",
	"sourceName": "src/JBMultiTerminal.sol",
	"chainId": "11155420",
	"linkReferences": {},
	"deployedLinkReferences": {},
	"history": []
}