{
	"_format": "sphinx-sol-ct-artifact-1",
	"merkleRoot": "0x8c1e54f97e42f2fa46b303de8b66ce6570e2965386dfe42a48a5be441f2b885e",
	"contractName": "JBProjects",
	"address": "0xf8Ea7BA8d990646420123fEAa2447B534Ab2f53c",
	"abi": [
		{
			"type": "constructor",
			"inputs": [
				{
					"name": "owner",
					"type": "address",
					"internalType": "address"
				},
				{
					"name": "feeProjectOwner",
					"type": "address",
					"internalType": "address"
				}
			],
			"stateMutability": "nonpayable"
		},
		{
			"type": "function",
			"name": "approve",
			"inputs": [
				{
					"name": "to",
					"type": "address",
					"internalType": "address"
				},
				{
					"name": "tokenId",
					"type": "uint256",
					"internalType": "uint256"
				}
			],
			"outputs": [],
			"stateMutability": "nonpayable"
		},
		{
			"type": "function",
			"name": "balanceOf",
			"inputs": [
				{
					"name": "owner",
					"type": "address",
					"internalType": "address"
				}
			],
			"outputs": [
				{
					"name": "",
					"type": "uint256",
					"internalType": "uint256"
				}
			],
			"stateMutability": "view"
		},
		{
			"type": "function",
			"name": "count",
			"inputs": [],
			"outputs": [
				{
					"name": "",
					"type": "uint256",
					"internalType": "uint256"
				}
			],
			"stateMutability": "view"
		},
		{
			"type": "function",
			"name": "createFor",
			"inputs": [
				{
					"name": "owner",
					"type": "address",
					"internalType": "address"
				}
			],
			"outputs": [
				{
					"name": "projectId",
					"type": "uint256",
					"internalType": "uint256"
				}
			],
			"stateMutability": "nonpayable"
		},
		{
			"type": "function",
			"name": "getApproved",
			"inputs": [
				{
					"name": "tokenId",
					"type": "uint256",
					"internalType": "uint256"
				}
			],
			"outputs": [
				{
					"name": "",
					"type": "address",
					"internalType": "address"
				}
			],
			"stateMutability": "view"
		},
		{
			"type": "function",
			"name": "isApprovedForAll",
			"inputs": [
				{
					"name": "owner",
					"type": "address",
					"internalType": "address"
				},
				{
					"name": "operator",
					"type": "address",
					"internalType": "address"
				}
			],
			"outputs": [
				{
					"name": "",
					"type": "bool",
					"internalType": "bool"
				}
			],
			"stateMutability": "view"
		},
		{
			"type": "function",
			"name": "name",
			"inputs": [],
			"outputs": [
				{
					"name": "",
					"type": "string",
					"internalType": "string"
				}
			],
			"stateMutability": "view"
		},
		{
			"type": "function",
			"name": "owner",
			"inputs": [],
			"outputs": [
				{
					"name": "",
					"type": "address",
					"internalType": "address"
				}
			],
			"stateMutability": "view"
		},
		{
			"type": "function",
			"name": "ownerOf",
			"inputs": [
				{
					"name": "tokenId",
					"type": "uint256",
					"internalType": "uint256"
				}
			],
			"outputs": [
				{
					"name": "",
					"type": "address",
					"internalType": "address"
				}
			],
			"stateMutability": "view"
		},
		{
			"type": "function",
			"name": "renounceOwnership",
			"inputs": [],
			"outputs": [],
			"stateMutability": "nonpayable"
		},
		{
			"type": "function",
			"name": "safeTransferFrom",
			"inputs": [
				{
					"name": "from",
					"type": "address",
					"internalType": "address"
				},
				{
					"name": "to",
					"type": "address",
					"internalType": "address"
				},
				{
					"name": "tokenId",
					"type": "uint256",
					"internalType": "uint256"
				}
			],
			"outputs": [],
			"stateMutability": "nonpayable"
		},
		{
			"type": "function",
			"name": "safeTransferFrom",
			"inputs": [
				{
					"name": "from",
					"type": "address",
					"internalType": "address"
				},
				{
					"name": "to",
					"type": "address",
					"internalType": "address"
				},
				{
					"name": "tokenId",
					"type": "uint256",
					"internalType": "uint256"
				},
				{
					"name": "data",
					"type": "bytes",
					"internalType": "bytes"
				}
			],
			"outputs": [],
			"stateMutability": "nonpayable"
		},
		{
			"type": "function",
			"name": "setApprovalForAll",
			"inputs": [
				{
					"name": "operator",
					"type": "address",
					"internalType": "address"
				},
				{
					"name": "approved",
					"type": "bool",
					"internalType": "bool"
				}
			],
			"outputs": [],
			"stateMutability": "nonpayable"
		},
		{
			"type": "function",
			"name": "setTokenUriResolver",
			"inputs": [
				{
					"name": "newResolver",
					"type": "address",
					"internalType": "contract IJBTokenUriResolver"
				}
			],
			"outputs": [],
			"stateMutability": "nonpayable"
		},
		{
			"type": "function",
			"name": "supportsInterface",
			"inputs": [
				{
					"name": "interfaceId",
					"type": "bytes4",
					"internalType": "bytes4"
				}
			],
			"outputs": [
				{
					"name": "",
					"type": "bool",
					"internalType": "bool"
				}
			],
			"stateMutability": "view"
		},
		{
			"type": "function",
			"name": "symbol",
			"inputs": [],
			"outputs": [
				{
					"name": "",
					"type": "string",
					"internalType": "string"
				}
			],
			"stateMutability": "view"
		},
		{
			"type": "function",
			"name": "tokenURI",
			"inputs": [
				{
					"name": "projectId",
					"type": "uint256",
					"internalType": "uint256"
				}
			],
			"outputs": [
				{
					"name": "",
					"type": "string",
					"internalType": "string"
				}
			],
			"stateMutability": "view"
		},
		{
			"type": "function",
			"name": "tokenUriResolver",
			"inputs": [],
			"outputs": [
				{
					"name": "",
					"type": "address",
					"internalType": "contract IJBTokenUriResolver"
				}
			],
			"stateMutability": "view"
		},
		{
			"type": "function",
			"name": "transferFrom",
			"inputs": [
				{
					"name": "from",
					"type": "address",
					"internalType": "address"
				},
				{
					"name": "to",
					"type": "address",
					"internalType": "address"
				},
				{
					"name": "tokenId",
					"type": "uint256",
					"internalType": "uint256"
				}
			],
			"outputs": [],
			"stateMutability": "nonpayable"
		},
		{
			"type": "function",
			"name": "transferOwnership",
			"inputs": [
				{
					"name": "newOwner",
					"type": "address",
					"internalType": "address"
				}
			],
			"outputs": [],
			"stateMutability": "nonpayable"
		},
		{
			"type": "event",
			"name": "Approval",
			"inputs": [
				{
					"name": "owner",
					"type": "address",
					"indexed": true,
					"internalType": "address"
				},
				{
					"name": "approved",
					"type": "address",
					"indexed": true,
					"internalType": "address"
				},
				{
					"name": "tokenId",
					"type": "uint256",
					"indexed": true,
					"internalType": "uint256"
				}
			],
			"anonymous": false
		},
		{
			"type": "event",
			"name": "ApprovalForAll",
			"inputs": [
				{
					"name": "owner",
					"type": "address",
					"indexed": true,
					"internalType": "address"
				},
				{
					"name": "operator",
					"type": "address",
					"indexed": true,
					"internalType": "address"
				},
				{
					"name": "approved",
					"type": "bool",
					"indexed": false,
					"internalType": "bool"
				}
			],
			"anonymous": false
		},
		{
			"type": "event",
			"name": "Create",
			"inputs": [
				{
					"name": "projectId",
					"type": "uint256",
					"indexed": true,
					"internalType": "uint256"
				},
				{
					"name": "owner",
					"type": "address",
					"indexed": true,
					"internalType": "address"
				},
				{
					"name": "caller",
					"type": "address",
					"indexed": false,
					"internalType": "address"
				}
			],
			"anonymous": false
		},
		{
			"type": "event",
			"name": "OwnershipTransferred",
			"inputs": [
				{
					"name": "previousOwner",
					"type": "address",
					"indexed": true,
					"internalType": "address"
				},
				{
					"name": "newOwner",
					"type": "address",
					"indexed": true,
					"internalType": "address"
				}
			],
			"anonymous": false
		},
		{
			"type": "event",
			"name": "SetTokenUriResolver",
			"inputs": [
				{
					"name": "resolver",
					"type": "address",
					"indexed": true,
					"internalType": "contract IJBTokenUriResolver"
				},
				{
					"name": "caller",
					"type": "address",
					"indexed": false,
					"internalType": "address"
				}
			],
			"anonymous": false
		},
		{
			"type": "event",
			"name": "Transfer",
			"inputs": [
				{
					"name": "from",
					"type": "address",
					"indexed": true,
					"internalType": "address"
				},
				{
					"name": "to",
					"type": "address",
					"indexed": true,
					"internalType": "address"
				},
				{
					"name": "tokenId",
					"type": "uint256",
					"indexed": true,
					"internalType": "uint256"
				}
			],
			"anonymous": false
		},
		{
			"type": "error",
			"name": "ERC721IncorrectOwner",
			"inputs": [
				{
					"name": "sender",
					"type": "address",
					"internalType": "address"
				},
				{
					"name": "tokenId",
					"type": "uint256",
					"internalType": "uint256"
				},
				{
					"name": "owner",
					"type": "address",
					"internalType": "address"
				}
			]
		},
		{
			"type": "error",
			"name": "ERC721InsufficientApproval",
			"inputs": [
				{
					"name": "operator",
					"type": "address",
					"internalType": "address"
				},
				{
					"name": "tokenId",
					"type": "uint256",
					"internalType": "uint256"
				}
			]
		},
		{
			"type": "error",
			"name": "ERC721InvalidApprover",
			"inputs": [
				{
					"name": "approver",
					"type": "address",
					"internalType": "address"
				}
			]
		},
		{
			"type": "error",
			"name": "ERC721InvalidOperator",
			"inputs": [
				{
					"name": "operator",
					"type": "address",
					"internalType": "address"
				}
			]
		},
		{
			"type": "error",
			"name": "ERC721InvalidOwner",
			"inputs": [
				{
					"name": "owner",
					"type": "address",
					"internalType": "address"
				}
			]
		},
		{
			"type": "error",
			"name": "ERC721InvalidReceiver",
			"inputs": [
				{
					"name": "receiver",
					"type": "address",
					"internalType": "address"
				}
			]
		},
		{
			"type": "error",
			"name": "ERC721InvalidSender",
			"inputs": [
				{
					"name": "sender",
					"type": "address",
					"internalType": "address"
				}
			]
		},
		{
			"type": "error",
			"name": "ERC721NonexistentToken",
			"inputs": [
				{
					"name": "tokenId",
					"type": "uint256",
					"internalType": "uint256"
				}
			]
		},
		{
			"type": "error",
			"name": "OwnableInvalidOwner",
			"inputs": [
				{
					"name": "owner",
					"type": "address",
					"internalType": "address"
				}
			]
		},
		{
			"type": "error",
			"name": "OwnableUnauthorizedAccount",
			"inputs": [
				{
					"name": "account",
					"type": "address",
					"internalType": "address"
				}
			]
		}
	],
	"solcInputHash": "bc31b432e39dd35a364a5343da785c2b",
	"args": [
		"0xd72a3b02a39CFE137346444E5fbb5fF297B4d1b1",
		"0xd72a3b02a39CFE137346444E5fbb5fF297B4d1b1"
	],
	"bytecode": "0x608060405260006007553480156200001657600080fd5b5060405162001b1538038062001b15833981016040819052620000399162000733565b81604051806040016040528060118152602001704a75696365626f782050726f6a6563747360781b81525060405180604001604052806008815260200167094aa92868a849eb60c31b815250816000908162000096919062000811565b506001620000a5828262000811565b5050506001600160a01b038116620000d857604051631e4fbdf760e01b8152600060048201526024015b60405180910390fd5b620000e38162000109565b506001600160a01b038116156200010157620000ff816200015b565b505b5050620009ac565b600680546001600160a01b038381166001600160a01b0319831681179093556040519116919082907f8be0079c531659141344cd1fd0a4f28419497f9722a3daafe3b4186f6b6457e090600090a35050565b60006007600081546200016e90620008dd565b91829055509050620001818282620001ce565b6001600160a01b038216817f365b3162cd780731fc55a794b59494d472bc2af701007f581843a70673814698336040516001600160a01b03909116815260200160405180910390a3919050565b620001f0828260405180602001604052806000815250620001f460201b60201c565b5050565b62000200838362000214565b6200020f60008484846200027e565b505050565b6001600160a01b0382166200024057604051633250574960e11b815260006004820152602401620000cf565b60006200024f838383620003b5565b90506001600160a01b038116156200020f576040516339e3563760e11b815260006004820152602401620000cf565b6001600160a01b0383163b15620003af57604051630a85bd0160e11b81526001600160a01b0384169063150b7a0290620002c390339088908790879060040162000905565b6020604051808303816000875af192505050801562000301575060408051601f3d908101601f19168201909252620002fe9181019062000979565b60015b6200036f573d80801562000332576040519150601f19603f3d011682016040523d82523d6000602084013e62000337565b606091505b5080516000036200036757604051633250574960e11b81526001600160a01b0385166004820152602401620000cf565b805181602001fd5b6001600160e01b03198116630a85bd0160e11b14620003ad57604051633250574960e11b81526001600160a01b0385166004820152602401620000cf565b505b50505050565b6000828152600260205260408120546001600160a01b0390811690831615620003e557620003e5818486620004b4565b6001600160a01b0381161562000425576200040460008581806200051e565b6001600160a01b038116600090815260036020526040902080546000190190555b6001600160a01b0385161562000455576001600160a01b0385166000908152600360205260409020805460010190555b60008481526002602052604080822080546001600160a01b0319166001600160a01b0389811691821790925591518793918516917fddf252ad1be2c89b69c2b068fc378daa952ba7f163c4a11628f55a4df523b3ef91a4949350505050565b620004c18383836200064c565b6200020f576001600160a01b038316620004f257604051637e27328960e01b815260048101829052602401620000cf565b60405163177e802f60e01b81526001600160a01b038316600482015260248101829052604401620000cf565b80806200053357506001600160a01b03821615155b156200061c5760006200054684620006d5565b90506001600160a01b03831615801590620005735750826001600160a01b0316816001600160a01b031614155b8015620005a657506001600160a01b0380821660009081526005602090815260408083209387168352929052205460ff16155b15620005d15760405163a9fbf51f60e01b81526001600160a01b0384166004820152602401620000cf565b81156200061a5783856001600160a01b0316826001600160a01b03167f8c5be1e5ebec7d5bd14f71427d1e84f3dd0314c0f7b2291e5b200ac8c7c3b92560405160405180910390a45b505b5050600090815260046020526040902080546001600160a01b0319166001600160a01b0392909216919091179055565b60006001600160a01b03831615801590620006cd5750826001600160a01b0316846001600160a01b03161480620006a857506001600160a01b0380851660009081526005602090815260408083209387168352929052205460ff165b80620006cd57506000828152600460205260409020546001600160a01b038481169116145b949350505050565b6000818152600260205260408120546001600160a01b0316806200071057604051637e27328960e01b815260048101849052602401620000cf565b92915050565b80516001600160a01b03811681146200072e57600080fd5b919050565b600080604083850312156200074757600080fd5b620007528362000716565b9150620007626020840162000716565b90509250929050565b634e487b7160e01b600052604160045260246000fd5b600181811c908216806200079657607f821691505b602082108103620007b757634e487b7160e01b600052602260045260246000fd5b50919050565b601f8211156200020f576000816000526020600020601f850160051c81016020861015620007e85750805b601f850160051c820191505b818110156200080957828155600101620007f4565b505050505050565b81516001600160401b038111156200082d576200082d6200076b565b62000845816200083e845462000781565b84620007bd565b602080601f8311600181146200087d5760008415620008645750858301515b600019600386901b1c1916600185901b17855562000809565b600085815260208120601f198616915b82811015620008ae578886015182559484019460019091019084016200088d565b5085821015620008cd5787850151600019600388901b60f8161c191681555b5050505050600190811b01905550565b600060018201620008fe57634e487b7160e01b600052601160045260246000fd5b5060010190565b600060018060a01b03808716835260208187166020850152856040850152608060608501528451915081608085015260005b82811015620009555785810182015185820160a00152810162000937565b5050600060a0828501015260a0601f19601f83011684010191505095945050505050565b6000602082840312156200098c57600080fd5b81516001600160e01b031981168114620009a557600080fd5b9392505050565b61115980620009bc6000396000f3fe608060405234801561001057600080fd5b506004361061012c5760003560e01c8063715018a6116100ad578063c071588811610071578063c07158881461026b578063c87b56dd1461027e578063e131fc0c14610291578063e985e9c5146102a4578063f2fde38b146102b757600080fd5b8063715018a6146102245780638da5cb5b1461022c57806395d89b411461023d578063a22cb46514610245578063b88d4fde1461025857600080fd5b806323b872dd116100f457806323b872dd146101c55780632407497e146101d857806342842e0e146101eb5780636352211e146101fe57806370a082311461021157600080fd5b806301ffc9a71461013157806306661abd1461015957806306fdde0314610170578063081812fc14610185578063095ea7b3146101b0575b600080fd5b61014461013f366004610d2f565b6102ca565b60405190151581526020015b60405180910390f35b61016260075481565b604051908152602001610150565b6101786102f5565b6040516101509190610d9c565b610198610193366004610daf565b610387565b6040516001600160a01b039091168152602001610150565b6101c36101be366004610ddd565b6103b0565b005b6101c36101d3366004610e09565b6103bf565b6101c36101e6366004610e4a565b61044f565b6101c36101f9366004610e09565b6104ac565b61019861020c366004610daf565b6104cc565b61016261021f366004610e4a565b6104d7565b6101c361051f565b6006546001600160a01b0316610198565b610178610533565b6101c3610253366004610e67565b610542565b6101c3610266366004610f14565b61054d565b610162610279366004610e4a565b610564565b61017861028c366004610daf565b6105d3565b600854610198906001600160a01b031681565b6101446102b2366004610fc3565b610671565b6101c36102c5366004610e4a565b61069f565b60006001600160e01b03198216630321f74760e01b14806102ef57506102ef826106dd565b92915050565b60606000805461030490610ff1565b80601f016020809104026020016040519081016040528092919081815260200182805461033090610ff1565b801561037d5780601f106103525761010080835404028352916020019161037d565b820191906000526020600020905b81548152906001019060200180831161036057829003601f168201915b5050505050905090565b60006103928261072d565b506000828152600460205260409020546001600160a01b03166102ef565b6103bb828233610766565b5050565b6001600160a01b0382166103ee57604051633250574960e11b8152600060048201526024015b60405180910390fd5b60006103fb838333610773565b9050836001600160a01b0316816001600160a01b031614610449576040516364283d7b60e01b81526001600160a01b03808616600483015260248201849052821660448201526064016103e5565b50505050565b61045761086c565b600880546001600160a01b0383166001600160a01b031990911681179091556040805133815290517fe7784d93cfbfa4408e19577e6cc0436f4dbb51214b70e100905dfce9def88c169181900360200190a250565b6104c78383836040518060200160405280600081525061054d565b505050565b60006102ef8261072d565b60006001600160a01b038216610503576040516322718ad960e21b8152600060048201526024016103e5565b506001600160a01b031660009081526003602052604090205490565b61052761086c565b6105316000610899565b565b60606001805461030490610ff1565b6103bb3383836108eb565b6105588484846103bf565b6104498484848461098a565b60006007600081546105759061102b565b918290555090506105868282610ab3565b6001600160a01b038216817f365b3162cd780731fc55a794b59494d472bc2af701007f581843a70673814698336040516001600160a01b03909116815260200160405180910390a3919050565b6008546060906001600160a01b0316806105fd575050604080516020810190915260008152919050565b604051636d02a25560e11b8152600481018490526001600160a01b0382169063da0544aa90602401600060405180830381865afa158015610642573d6000803e3d6000fd5b505050506040513d6000823e601f3d908101601f1916820160405261066a9190810190611052565b9392505050565b6001600160a01b03918216600090815260056020908152604080832093909416825291909152205460ff1690565b6106a761086c565b6001600160a01b0381166106d157604051631e4fbdf760e01b8152600060048201526024016103e5565b6106da81610899565b50565b60006001600160e01b031982166380ac58cd60e01b148061070e57506001600160e01b03198216635b5e139f60e01b145b806102ef57506301ffc9a760e01b6001600160e01b03198316146102ef565b6000818152600260205260408120546001600160a01b0316806102ef57604051637e27328960e01b8152600481018490526024016103e5565b6104c78383836001610acd565b6000828152600260205260408120546001600160a01b03908116908316156107a0576107a0818486610bd3565b6001600160a01b038116156107de576107bd600085600080610acd565b6001600160a01b038116600090815260036020526040902080546000190190555b6001600160a01b0385161561080d576001600160a01b0385166000908152600360205260409020805460010190555b60008481526002602052604080822080546001600160a01b0319166001600160a01b0389811691821790925591518793918516917fddf252ad1be2c89b69c2b068fc378daa952ba7f163c4a11628f55a4df523b3ef91a4949350505050565b6006546001600160a01b031633146105315760405163118cdaa760e01b81523360048201526024016103e5565b600680546001600160a01b038381166001600160a01b0319831681179093556040519116919082907f8be0079c531659141344cd1fd0a4f28419497f9722a3daafe3b4186f6b6457e090600090a35050565b6001600160a01b03821661091d57604051630b61174360e31b81526001600160a01b03831660048201526024016103e5565b6001600160a01b03838116600081815260056020908152604080832094871680845294825291829020805460ff191686151590811790915591519182527f17307eab39ab6107e8899845ad3d59bd9653f200f220920489ca2b5937696c31910160405180910390a3505050565b6001600160a01b0383163b1561044957604051630a85bd0160e11b81526001600160a01b0384169063150b7a02906109cc9033908890879087906004016110c9565b6020604051808303816000875af1925050508015610a07575060408051601f3d908101601f19168201909252610a0491810190611106565b60015b610a70573d808015610a35576040519150601f19603f3d011682016040523d82523d6000602084013e610a3a565b606091505b508051600003610a6857604051633250574960e11b81526001600160a01b03851660048201526024016103e5565b805181602001fd5b6001600160e01b03198116630a85bd0160e11b14610aac57604051633250574960e11b81526001600160a01b03851660048201526024016103e5565b5050505050565b6103bb828260405180602001604052806000815250610c37565b8080610ae157506001600160a01b03821615155b15610ba3576000610af18461072d565b90506001600160a01b03831615801590610b1d5750826001600160a01b0316816001600160a01b031614155b8015610b305750610b2e8184610671565b155b15610b595760405163a9fbf51f60e01b81526001600160a01b03841660048201526024016103e5565b8115610ba15783856001600160a01b0316826001600160a01b03167f8c5be1e5ebec7d5bd14f71427d1e84f3dd0314c0f7b2291e5b200ac8c7c3b92560405160405180910390a45b505b5050600090815260046020526040902080546001600160a01b0319166001600160a01b0392909216919091179055565b610bde838383610c4e565b6104c7576001600160a01b038316610c0c57604051637e27328960e01b8152600481018290526024016103e5565b60405163177e802f60e01b81526001600160a01b0383166004820152602481018290526044016103e5565b610c418383610cb4565b6104c7600084848461098a565b60006001600160a01b03831615801590610cac5750826001600160a01b0316846001600160a01b03161480610c885750610c888484610671565b80610cac57506000828152600460205260409020546001600160a01b038481169116145b949350505050565b6001600160a01b038216610cde57604051633250574960e11b8152600060048201526024016103e5565b6000610cec83836000610773565b90506001600160a01b038116156104c7576040516339e3563760e11b8152600060048201526024016103e5565b6001600160e01b0319811681146106da57600080fd5b600060208284031215610d4157600080fd5b813561066a81610d19565b60005b83811015610d67578181015183820152602001610d4f565b50506000910152565b60008151808452610d88816020860160208601610d4c565b601f01601f19169290920160200192915050565b60208152600061066a6020830184610d70565b600060208284031215610dc157600080fd5b5035919050565b6001600160a01b03811681146106da57600080fd5b60008060408385031215610df057600080fd5b8235610dfb81610dc8565b946020939093013593505050565b600080600060608486031215610e1e57600080fd5b8335610e2981610dc8565b92506020840135610e3981610dc8565b929592945050506040919091013590565b600060208284031215610e5c57600080fd5b813561066a81610dc8565b60008060408385031215610e7a57600080fd5b8235610e8581610dc8565b915060208301358015158114610e9a57600080fd5b809150509250929050565b634e487b7160e01b600052604160045260246000fd5b604051601f8201601f1916810167ffffffffffffffff81118282101715610ee457610ee4610ea5565b604052919050565b600067ffffffffffffffff821115610f0657610f06610ea5565b50601f01601f191660200190565b60008060008060808587031215610f2a57600080fd5b8435610f3581610dc8565b93506020850135610f4581610dc8565b925060408501359150606085013567ffffffffffffffff811115610f6857600080fd5b8501601f81018713610f7957600080fd5b8035610f8c610f8782610eec565b610ebb565b818152886020838501011115610fa157600080fd5b8160208401602083013760006020838301015280935050505092959194509250565b60008060408385031215610fd657600080fd5b8235610fe181610dc8565b91506020830135610e9a81610dc8565b600181811c9082168061100557607f821691505b60208210810361102557634e487b7160e01b600052602260045260246000fd5b50919050565b60006001820161104b57634e487b7160e01b600052601160045260246000fd5b5060010190565b60006020828403121561106457600080fd5b815167ffffffffffffffff81111561107b57600080fd5b8201601f8101841361108c57600080fd5b805161109a610f8782610eec565b8181528560208385010111156110af57600080fd5b6110c0826020830160208601610d4c565b95945050505050565b6001600160a01b03858116825284166020820152604081018390526080606082018190526000906110fc90830184610d70565b9695505050505050565b60006020828403121561111857600080fd5b815161066a81610d1956fea26469706673582212203e83cf26c373cd4957825511c27ef6991daa1da003688f7fabe9731b27c2fa9464736f6c63430008170033",
	"devdoc": {
		"kind": "dev",
		"methods": {
			"approve(address,uint256)": {
				"details": "See {IERC721-approve}."
			},
			"balanceOf(address)": {
				"details": "See {IERC721-balanceOf}."
			},
			"constructor": {
				"params": {
					"feeProjectOwner": "The address that will receive the fee-project. If `address(0)` the fee-project will not be minted.",
					"owner": "The owner of the contract who can set metadata."
				}
			},
			"createFor(address)": {
				"details": "Anyone can create a project on an owner's behalf.",
				"params": {
					"owner": "The address that will be the owner of the project."
				},
				"returns": {
					"projectId": "The token ID of the newly created project."
				}
			},
			"getApproved(uint256)": {
				"details": "See {IERC721-getApproved}."
			},
			"isApprovedForAll(address,address)": {
				"details": "See {IERC721-isApprovedForAll}."
			},
			"name()": {
				"details": "See {IERC721Metadata-name}."
			},
			"owner()": {
				"details": "Returns the address of the current owner."
			},
			"ownerOf(uint256)": {
				"details": "See {IERC721-ownerOf}."
			},
			"renounceOwnership()": {
				"details": "Leaves the contract without owner. It will not be possible to call `onlyOwner` functions. Can only be called by the current owner. NOTE: Renouncing ownership will leave the contract without an owner, thereby disabling any functionality that is only available to the owner."
			},
			"safeTransferFrom(address,address,uint256)": {
				"details": "See {IERC721-safeTransferFrom}."
			},
			"safeTransferFrom(address,address,uint256,bytes)": {
				"details": "See {IERC721-safeTransferFrom}."
			},
			"setApprovalForAll(address,bool)": {
				"details": "See {IERC721-setApprovalForAll}."
			},
			"setTokenUriResolver(address)": {
				"params": {
					"newResolver": "The address of the new resolver."
				}
			},
			"supportsInterface(bytes4)": {
				"details": "See {IERC165-supportsInterface}.",
				"params": {
					"interfaceId": "The ID of the interface to check for adherence to."
				},
				"returns": {
					"_0": "A flag indicating if the provided interface ID is supported."
				}
			},
			"symbol()": {
				"details": "See {IERC721Metadata-symbol}."
			},
			"tokenURI(uint256)": {
				"params": {
					"projectId": "The ID of the project to get a URI of."
				},
				"returns": {
					"_0": "The token URI to use for the provided `projectId`."
				}
			},
			"transferFrom(address,address,uint256)": {
				"details": "See {IERC721-transferFrom}."
			},
			"transferOwnership(address)": {
				"details": "Transfers ownership of the contract to a new account (`newOwner`). Can only be called by the current owner."
			}
		},
		"version": 1
	},
	"userdoc": {
		"kind": "user",
		"methods": {
			"count()": {
				"notice": "The number of projects that have been created using this contract."
			},
			"createFor(address)": {
				"notice": "Create a new project for the specified owner, which mints an NFT (ERC-721) into their wallet."
			},
			"setTokenUriResolver(address)": {
				"notice": "Sets the address of the resolver used to retrieve the tokenURI of projects."
			},
			"supportsInterface(bytes4)": {
				"notice": "Indicates whether this contract adheres to the specified interface."
			},
			"tokenURI(uint256)": {
				"notice": "Returns the URI where the ERC-721 standard JSON of a project is hosted."
			},
			"tokenUriResolver()": {
				"notice": "The contract resolving each project ID to its ERC721 URI."
			}
		},
		"version": 1
	},
	"gitCommit": "e3340aaa68ab5ad0b72000354da5d8180b61e01c",
	"sourceName": "src/JBProjects.sol",
	"chainId": "11155420",
	"linkReferences": {},
	"deployedLinkReferences": {},
	"history": []
}