{
	"_format": "sphinx-sol-ct-artifact-1",
	"merkleRoot": "0xf2f568380a2bcc4e7f89e08ff84563991af602cb04fda6b9476ae81ed75161f7",
	"contractName": "JBRulesets",
	"address": "0xaE02b43798E4c23e3a6Ffe570ea1612d0e7F5069",
	"abi": [
		{
			"type": "constructor",
			"inputs": [
				{
					"name": "directory",
					"type": "address",
					"internalType": "contract IJBDirectory"
				}
			],
			"stateMutability": "nonpayable"
		},
		{
			"type": "function",
			"name": "DIRECTORY",
			"inputs": [],
			"outputs": [
				{
					"name": "",
					"type": "address",
					"internalType": "contract IJBDirectory"
				}
			],
			"stateMutability": "view"
		},
		{
			"type": "function",
			"name": "currentApprovalStatusForLatestRulesetOf",
			"inputs": [
				{
					"name": "projectId",
					"type": "uint256",
					"internalType": "uint256"
				}
			],
			"outputs": [
				{
					"name": "",
					"type": "uint8",
					"internalType": "enum JBApprovalStatus"
				}
			],
			"stateMutability": "view"
		},
		{
			"type": "function",
			"name": "currentOf",
			"inputs": [
				{
					"name": "projectId",
					"type": "uint256",
					"internalType": "uint256"
				}
			],
			"outputs": [
				{
					"name": "ruleset",
					"type": "tuple",
					"internalType": "struct JBRuleset",
					"components": [
						{
							"name": "cycleNumber",
							"type": "uint48",
							"internalType": "uint48"
						},
						{
							"name": "id",
							"type": "uint48",
							"internalType": "uint48"
						},
						{
							"name": "basedOnId",
							"type": "uint48",
							"internalType": "uint48"
						},
						{
							"name": "start",
							"type": "uint48",
							"internalType": "uint48"
						},
						{
							"name": "duration",
							"type": "uint32",
							"internalType": "uint32"
						},
						{
							"name": "weight",
							"type": "uint112",
							"internalType": "uint112"
						},
						{
							"name": "decayPercent",
							"type": "uint32",
							"internalType": "uint32"
						},
						{
							"name": "approvalHook",
							"type": "address",
							"internalType": "contract IJBRulesetApprovalHook"
						},
						{
							"name": "metadata",
							"type": "uint256",
							"internalType": "uint256"
						}
					]
				}
			],
			"stateMutability": "view"
		},
		{
			"type": "function",
			"name": "getRulesetOf",
			"inputs": [
				{
					"name": "projectId",
					"type": "uint256",
					"internalType": "uint256"
				},
				{
					"name": "rulesetId",
					"type": "uint256",
					"internalType": "uint256"
				}
			],
			"outputs": [
				{
					"name": "ruleset",
					"type": "tuple",
					"internalType": "struct JBRuleset",
					"components": [
						{
							"name": "cycleNumber",
							"type": "uint48",
							"internalType": "uint48"
						},
						{
							"name": "id",
							"type": "uint48",
							"internalType": "uint48"
						},
						{
							"name": "basedOnId",
							"type": "uint48",
							"internalType": "uint48"
						},
						{
							"name": "start",
							"type": "uint48",
							"internalType": "uint48"
						},
						{
							"name": "duration",
							"type": "uint32",
							"internalType": "uint32"
						},
						{
							"name": "weight",
							"type": "uint112",
							"internalType": "uint112"
						},
						{
							"name": "decayPercent",
							"type": "uint32",
							"internalType": "uint32"
						},
						{
							"name": "approvalHook",
							"type": "address",
							"internalType": "contract IJBRulesetApprovalHook"
						},
						{
							"name": "metadata",
							"type": "uint256",
							"internalType": "uint256"
						}
					]
				}
			],
			"stateMutability": "view"
		},
		{
			"type": "function",
			"name": "latestQueuedOf",
			"inputs": [
				{
					"name": "projectId",
					"type": "uint256",
					"internalType": "uint256"
				}
			],
			"outputs": [
				{
					"name": "ruleset",
					"type": "tuple",
					"internalType": "struct JBRuleset",
					"components": [
						{
							"name": "cycleNumber",
							"type": "uint48",
							"internalType": "uint48"
						},
						{
							"name": "id",
							"type": "uint48",
							"internalType": "uint48"
						},
						{
							"name": "basedOnId",
							"type": "uint48",
							"internalType": "uint48"
						},
						{
							"name": "start",
							"type": "uint48",
							"internalType": "uint48"
						},
						{
							"name": "duration",
							"type": "uint32",
							"internalType": "uint32"
						},
						{
							"name": "weight",
							"type": "uint112",
							"internalType": "uint112"
						},
						{
							"name": "decayPercent",
							"type": "uint32",
							"internalType": "uint32"
						},
						{
							"name": "approvalHook",
							"type": "address",
							"internalType": "contract IJBRulesetApprovalHook"
						},
						{
							"name": "metadata",
							"type": "uint256",
							"internalType": "uint256"
						}
					]
				},
				{
					"name": "approvalStatus",
					"type": "uint8",
					"internalType": "enum JBApprovalStatus"
				}
			],
			"stateMutability": "view"
		},
		{
			"type": "function",
			"name": "latestRulesetIdOf",
			"inputs": [
				{
					"name": "projectId",
					"type": "uint256",
					"internalType": "uint256"
				}
			],
			"outputs": [
				{
					"name": "",
					"type": "uint256",
					"internalType": "uint256"
				}
			],
			"stateMutability": "view"
		},
		{
			"type": "function",
			"name": "queueFor",
			"inputs": [
				{
					"name": "projectId",
					"type": "uint256",
					"internalType": "uint256"
				},
				{
					"name": "duration",
					"type": "uint256",
					"internalType": "uint256"
				},
				{
					"name": "weight",
					"type": "uint256",
					"internalType": "uint256"
				},
				{
					"name": "decayPercent",
					"type": "uint256",
					"internalType": "uint256"
				},
				{
					"name": "approvalHook",
					"type": "address",
					"internalType": "contract IJBRulesetApprovalHook"
				},
				{
					"name": "metadata",
					"type": "uint256",
					"internalType": "uint256"
				},
				{
					"name": "mustStartAtOrAfter",
					"type": "uint256",
					"internalType": "uint256"
				}
			],
			"outputs": [
				{
					"name": "",
					"type": "tuple",
					"internalType": "struct JBRuleset",
					"components": [
						{
							"name": "cycleNumber",
							"type": "uint48",
							"internalType": "uint48"
						},
						{
							"name": "id",
							"type": "uint48",
							"internalType": "uint48"
						},
						{
							"name": "basedOnId",
							"type": "uint48",
							"internalType": "uint48"
						},
						{
							"name": "start",
							"type": "uint48",
							"internalType": "uint48"
						},
						{
							"name": "duration",
							"type": "uint32",
							"internalType": "uint32"
						},
						{
							"name": "weight",
							"type": "uint112",
							"internalType": "uint112"
						},
						{
							"name": "decayPercent",
							"type": "uint32",
							"internalType": "uint32"
						},
						{
							"name": "approvalHook",
							"type": "address",
							"internalType": "contract IJBRulesetApprovalHook"
						},
						{
							"name": "metadata",
							"type": "uint256",
							"internalType": "uint256"
						}
					]
				}
			],
			"stateMutability": "nonpayable"
		},
		{
			"type": "function",
			"name": "rulesetsOf",
			"inputs": [
				{
					"name": "projectId",
					"type": "uint256",
					"internalType": "uint256"
				},
				{
					"name": "startingId",
					"type": "uint256",
					"internalType": "uint256"
				},
				{
					"name": "size",
					"type": "uint256",
					"internalType": "uint256"
				}
			],
			"outputs": [
				{
					"name": "rulesets",
					"type": "tuple[]",
					"internalType": "struct JBRuleset[]",
					"components": [
						{
							"name": "cycleNumber",
							"type": "uint48",
							"internalType": "uint48"
						},
						{
							"name": "id",
							"type": "uint48",
							"internalType": "uint48"
						},
						{
							"name": "basedOnId",
							"type": "uint48",
							"internalType": "uint48"
						},
						{
							"name": "start",
							"type": "uint48",
							"internalType": "uint48"
						},
						{
							"name": "duration",
							"type": "uint32",
							"internalType": "uint32"
						},
						{
							"name": "weight",
							"type": "uint112",
							"internalType": "uint112"
						},
						{
							"name": "decayPercent",
							"type": "uint32",
							"internalType": "uint32"
						},
						{
							"name": "approvalHook",
							"type": "address",
							"internalType": "contract IJBRulesetApprovalHook"
						},
						{
							"name": "metadata",
							"type": "uint256",
							"internalType": "uint256"
						}
					]
				}
			],
			"stateMutability": "view"
		},
		{
			"type": "function",
			"name": "upcomingOf",
			"inputs": [
				{
					"name": "projectId",
					"type": "uint256",
					"internalType": "uint256"
				}
			],
			"outputs": [
				{
					"name": "ruleset",
					"type": "tuple",
					"internalType": "struct JBRuleset",
					"components": [
						{
							"name": "cycleNumber",
							"type": "uint48",
							"internalType": "uint48"
						},
						{
							"name": "id",
							"type": "uint48",
							"internalType": "uint48"
						},
						{
							"name": "basedOnId",
							"type": "uint48",
							"internalType": "uint48"
						},
						{
							"name": "start",
							"type": "uint48",
							"internalType": "uint48"
						},
						{
							"name": "duration",
							"type": "uint32",
							"internalType": "uint32"
						},
						{
							"name": "weight",
							"type": "uint112",
							"internalType": "uint112"
						},
						{
							"name": "decayPercent",
							"type": "uint32",
							"internalType": "uint32"
						},
						{
							"name": "approvalHook",
							"type": "address",
							"internalType": "contract IJBRulesetApprovalHook"
						},
						{
							"name": "metadata",
							"type": "uint256",
							"internalType": "uint256"
						}
					]
				}
			],
			"stateMutability": "view"
		},
		{
			"type": "function",
			"name": "updateRulesetWeightCache",
			"inputs": [
				{
					"name": "projectId",
					"type": "uint256",
					"internalType": "uint256"
				}
			],
			"outputs": [],
			"stateMutability": "nonpayable"
		},
		{
			"type": "event",
			"name": "RulesetInitialized",
			"inputs": [
				{
					"name": "rulesetId",
					"type": "uint256",
					"indexed": true,
					"internalType": "uint256"
				},
				{
					"name": "projectId",
					"type": "uint256",
					"indexed": true,
					"internalType": "uint256"
				},
				{
					"name": "basedOnId",
					"type": "uint256",
					"indexed": true,
					"internalType": "uint256"
				}
			],
			"anonymous": false
		},
		{
			"type": "event",
			"name": "RulesetQueued",
			"inputs": [
				{
					"name": "rulesetId",
					"type": "uint256",
					"indexed": true,
					"internalType": "uint256"
				},
				{
					"name": "projectId",
					"type": "uint256",
					"indexed": true,
					"internalType": "uint256"
				},
				{
					"name": "duration",
					"type": "uint256",
					"indexed": false,
					"internalType": "uint256"
				},
				{
					"name": "weight",
					"type": "uint256",
					"indexed": false,
					"internalType": "uint256"
				},
				{
					"name": "decayPercent",
					"type": "uint256",
					"indexed": false,
					"internalType": "uint256"
				},
				{
					"name": "hook",
					"type": "address",
					"indexed": false,
					"internalType": "contract IJBRulesetApprovalHook"
				},
				{
					"name": "metadata",
					"type": "uint256",
					"indexed": false,
					"internalType": "uint256"
				},
				{
					"name": "mustStartAtOrAfter",
					"type": "uint256",
					"indexed": false,
					"internalType": "uint256"
				},
				{
					"name": "caller",
					"type": "address",
					"indexed": false,
					"internalType": "address"
				}
			],
			"anonymous": false
		},
		{
			"type": "error",
			"name": "CONTROLLER_UNAUTHORIZED",
			"inputs": []
		},
		{
			"type": "error",
			"name": "INVALID_DECAY_PERCENT",
			"inputs": []
		},
		{
			"type": "error",
			"name": "INVALID_RULESET_APPROVAL_HOOK",
			"inputs": []
		},
		{
			"type": "error",
			"name": "INVALID_RULESET_DURATION",
			"inputs": []
		},
		{
			"type": "error",
			"name": "INVALID_RULESET_END_TIME",
			"inputs": []
		},
		{
			"type": "error",
			"name": "INVALID_WEIGHT",
			"inputs": []
		},
		{
			"type": "error",
			"name": "PRBMath_MulDiv_Overflow",
			"inputs": [
				{
					"name": "x",
					"type": "uint256",
					"internalType": "uint256"
				},
				{
					"name": "y",
					"type": "uint256",
					"internalType": "uint256"
				},
				{
					"name": "denominator",
					"type": "uint256",
					"internalType": "uint256"
				}
			]
		}
	],
	"solcInputHash": "b34eb54cebcd0145c48d9e3a1ef16244",
	"args": [
		"0x992f9e3a81c77Cb940A29311558343E1AC66c40F"
	],
	"bytecode": "0x60a060405234801561001057600080fd5b50604051611cc8380380611cc883398101604081905261002f91610040565b6001600160a01b0316608052610070565b60006020828403121561005257600080fd5b81516001600160a01b038116811461006957600080fd5b9392505050565b608051611c36610092600039600081816101590152610f5a0152611c366000f3fe608060405234801561001057600080fd5b506004361061009e5760003560e01c8063855a54ed11610066578063855a54ed1461013357806388bc2ef3146101545780638b04533a14610193578063b51d6244146101a8578063d7e1ec88146101c857600080fd5b806325a61d5c146100a35780632e6bc58a146100cc57806333f5bd0a146100df57806343a266c21461010d57806370174dcc14610120575b600080fd5b6100b66100b1366004611801565b6101e8565b6040516100c391906118d5565b60405180910390f35b6100b66100da3660046118e4565b610203565b6100ff6100ed3660046118e4565b60006020819052908152604090205481565b6040519081526020016100c3565b6100b661011b3660046118e4565b6103d0565b6100b661012e366004611912565b610556565b6101466101413660046118e4565b610828565b6040516100c39291906119a9565b61017b7f000000000000000000000000000000000000000000000000000000000000000081565b6040516001600160a01b0390911681526020016100c3565b6101a66101a13660046118e4565b610883565b005b6101bb6101b63660046119c6565b6109e0565b6040516100c391906119f2565b6101db6101d63660046118e4565b610b28565b6040516100c39190611a41565b6101f06117b5565b6101fa8383610b74565b90505b92915050565b61020b6117b5565b600082815260208190526040812054900361022b576101fd600080610b74565b600061023683610c37565b9050600081156102ce5761024a8483610b74565b92506102568484610d3d565b9050600481600581111561026c5761026c611971565b14806102895750600381600581111561028757610287611971565b145b806102a5575060008160058111156102a3576102a3611971565b145b156102b1575050919050565b6102c784846040015165ffffffffffff16610b74565b925061031c565b6000848152602081905260409020546102e8908590610b74565b92505b42836060015165ffffffffffff16111561031c5761031584846040015165ffffffffffff16610b74565b92506102eb565b826080015163ffffffff1660000361034157610339600080610b74565b949350505050565b61034b8484610d3d565b9050600481600581111561036157610361611971565b148061037e5750600081600581111561037c5761037c611971565b145b1561038f5761033984846000610d6f565b6103a584846040015165ffffffffffff16610b74565b9250826080015163ffffffff166000036103c457610339600080610b74565b61033984846000610d6f565b6103d86117b5565b60008281526020819052604081205490036103f8576101fd600080610b74565b600061040383610e7a565b90508015610483576104158382610b74565b915060006104238484610d3d565b9050600481600581111561043957610439611971565b14806104565750600081600581111561045457610454611971565b145b15610462575050919050565b826040015165ffffffffffff16915061047b8483610b74565b92505061052b565b5060008281526020819052604090205461049d8382610b74565b915060006104ab8484610d3d565b90505b60048160058111156104c2576104c2611971565b141580156104e2575060008160058111156104df576104df611971565b14155b806104f85750826060015165ffffffffffff1642105b1561052957826040015165ffffffffffff1691506105168483610b74565b92506105228484610d3d565b90506104ae565b505b816080015163ffffffff166000036105435750919050565b61054f83836001610d6f565b9392505050565b61055e6117b5565b8761056881610f3a565b63ffffffff88111561058d57604051631525af6b60e31b815260040160405180910390fd5b633b9aca008611156105b25760405163ad33716f60e01b815260040160405180910390fd5b6001600160701b038711156105da5760405163698f22ad60e01b815260040160405180910390fd5b826000036105e6574292505b65ffffffffffff6105f78985611a65565b11156106165760405163acc92f5b60e01b815260040160405180910390fd5b6001600160a01b038516156106f457846001600160a01b03163b6000036106505760405163a903807d60e01b815260040160405180910390fd5b6040516301ffc9a760e01b8152634b80c8df60e01b60048201526001600160a01b038616906301ffc9a790602401602060405180830381865afa9250505080156106b7575060408051601f3d908101601f191682019092526106b491810190611a78565b60015b6106d45760405163a903807d60e01b815260040160405180910390fd5b806106f25760405163a903807d60e01b815260040160405180910390fd5b505b6000898152602081905260408120549042821015610712574261071d565b61071d826001611a65565b905061072b8b828b88610fef565b6001600160a01b038716151580610742575060008a115b8061074d5750600088115b156107845760008b8152600160209081526040808320848452909152902060c089901b60a08c901b6001600160a01b038a16171790555b85156107a75760008b815260036020908152604080832084845290915290208690555b604080518b8152602081018b90529081018990526001600160a01b03881660608201526080810187905260a081018690523360c08201528b9082907f11a490bebff1beffe4bdd210894aca6ea5049427ce4b3c48865717677199cb079060e00160405180910390a36108198b82610b74565b9b9a5050505050505050505050565b6108306117b5565b6000828152602081905260408120546108498482610b74565b925061087b84846020015165ffffffffffff16856060015165ffffffffffff16866040015165ffffffffffff1661125a565b915050915091565b60008181526020819052604081205461089d908390610b74565b9050806080015163ffffffff16600014806108c0575060c081015163ffffffff16155b156108c9575050565b60008281526004602090815260408083208483015165ffffffffffff16845290915281206080830151600182015491929163ffffffff909116906109199061c350906001600160a81b0316611a65565b6109239190611a9a565b836060015165ffffffffffff1661093a9190611a65565b9050600081421061094b578161094d565b425b90506000846060015165ffffffffffff16826109699190611ab1565b90506000856080015163ffffffff16828161098657610986611ac4565b04905061099487878561131e565b85546dffffffffffffffffffffffffffff19166001600160701b0391909116178555600190940180546001600160a81b0319166001600160a81b03909516949094179093555050505050565b6060826000036109fc5760008481526020819052604090205492505b600080610a098686610b74565b90505b602081015165ffffffffffff1615801590610a2657508382105b15610a555781610a3581611ada565b925050610a4e86826040015165ffffffffffff16610b74565b9050610a0c565b8167ffffffffffffffff811115610a6e57610a6e611af3565b604051908082528060200260200182016040528015610aa757816020015b610a946117b5565b815260200190600190039081610a8c5790505b50925081600003610ab957505061054f565b610ac38686610b74565b905060005b82811015610b1e57818482610adc81611ada565b935081518110610aee57610aee611b09565b6020026020010181905250828114610b1957610b1687836040015165ffffffffffff16610b74565b91505b610ac8565b5050509392505050565b60008181526020819052604081205481610b428483610b74565b905061033984826020015165ffffffffffff16836060015165ffffffffffff16846040015165ffffffffffff1661125a565b610b7c6117b5565b81156101fd5765ffffffffffff82811660208381019190915260008581526002825260408082208683528352808220546001600160701b03811660a080880191909152607082901c86168388015281811c909516606087015260d01c8552868252600183528082208683528352808220546001600160a01b03811660e08701529384901c63ffffffff908116608087015260c094851c1693850193909352948552600381528185209385529290925291205461010082015290565b60008181526020819052604081205490610c518383610b74565b9050806060015165ffffffffffff164210610c6f5750600092915050565b805165ffffffffffff16600103610c865750919050565b604081015165ffffffffffff16610c9b6117b5565b610ca58583610b74565b9050806060015165ffffffffffff16421015610cde57806020015165ffffffffffff169350806040015165ffffffffffff169150610c9b565b610ce88585610b74565b9250806080015163ffffffff16600014158015610d255750806080015163ffffffff168360600151610d1a9190611b1f565b65ffffffffffff1642105b15610d3557506000949350505050565b505050919050565b60006101fa83836020015165ffffffffffff16846060015165ffffffffffff16856040015165ffffffffffff1661125a565b610d776117b5565b60008215610da4576080840151610d949063ffffffff1642611ab1565b610d9f906001611a65565b610daf565b610daf426001611a65565b90506000610dbd8583611486565b90506000610dcb8683611532565b90506040518061012001604052808265ffffffffffff168152602001876020015165ffffffffffff168152602001876040015165ffffffffffff1681526020018365ffffffffffff168152602001876080015163ffffffff168152602001610e3489898661131e565b6001600160701b031681526020018760c0015163ffffffff1681526020018760e001516001600160a01b0316815260200187610100015181525093505050509392505050565b60008181526020819052604081205481610e948483610b74565b90505b608081015163ffffffff1615801590610ed15750806080015163ffffffff168160600151610ec59190611b45565b65ffffffffffff164210155b15610ee0575060009392505050565b806060015165ffffffffffff164210610f06576020015165ffffffffffff169392505050565b610f1c84826040015165ffffffffffff16610b74565b805190915065ffffffffffff16600003610e97575060009392505050565b604051632eec7b5560e11b81526004810182905233906001600160a01b037f00000000000000000000000000000000000000000000000000000000000000001690635dd8f6aa90602401602060405180830381865afa158015610fa1573d6000803e3d6000fd5b505050506040513d601f19601f82011682018060405250810190610fc59190611b64565b6001600160a01b031614610fec57604051632adfdd0560e21b815260040160405180910390fd5b50565b600084815260208190526040812054908190036110235761101d85611015600080610b74565b8685876115a8565b50611254565b600061102f8683610b74565b9050600061103d8783610d3d565b9050816060015165ffffffffffff16421015801561106d5750600481600581111561106a5761106a611971565b14155b801561108b5750600081600581111561108857611088611971565b14155b806110ea5750816060015165ffffffffffff16421080156110cc5750816080015163ffffffff1682606001516110c19190611b45565b65ffffffffffff1684105b80156110ea575060048160058111156110e7576110e7611971565b14155b806111865750816060015165ffffffffffff164210801561112c5750816080015163ffffffff1682606001516111209190611b45565b65ffffffffffff168410155b801561114a5750600481600581111561114757611147611971565b14155b80156111685750600381600581111561116557611165611971565b14155b80156111865750600081600581111561118357611183611971565b14155b156111a4576111a187836040015165ffffffffffff16610b74565b91505b60e08201516000906001600160a01b03161561122f578260e001516001600160a01b0316631be052896040518163ffffffff1660e01b8152600401602060405180830381865afa1580156111fc573d6000803e3d6000fd5b505050506040513d601f19601f820116820180604052508101906112209190611b81565b61122a9088611a65565b611232565b60005b905061124f8884898885116112475788611249565b845b8a6115a8565b505050505b50505050565b60008160000361126c57506000610339565b60006112788684610b74565b60e08101519091506001600160a01b0316611297576000915050610339565b60e08101516040516328304d2b60e11b81526004810188905260248101879052604481018690526001600160a01b03909116906350609a5690606401602060405180830381865afa1580156112f0573d6000803e3d6000fd5b505050506040513d601f19601f820116820180604052508101906113149190611b9a565b9695505050505050565b6000826080015163ffffffff1660000361136e576113678360a001516001600160701b03168460c00151633b9aca006113579190611bbb565b63ffffffff16633b9aca006116dd565b905061054f565b8260a001516001600160701b031690508260c0015163ffffffff166000031561054f576000836060015165ffffffffffff16836113ab9190611ab1565b90506000846080015163ffffffff1682816113c8576113c8611ac4565b0490506103e88111156114535760008681526004602090815260408083208883015165ffffffffffff168452825291829020825180840190935280546001600160701b03168352600101546001600160a81b03169082018190521561145157805160208201516001600160701b03909116945061144e906001600160a81b031683611ab1565b91505b505b60005b81811015610b1e57611476848760c00151633b9aca006113579190611bbb565b93508315610b1e57600101611456565b6000826080015163ffffffff166000036114a15750806101fd565b6000836080015163ffffffff1684606001516114bd9190611b45565b65ffffffffffff1690508281106114d55790506101fd565b608084015160009063ffffffff166114ed8386611ab1565b6114f79190611bd8565b90506115038185611ab1565b92505b8284111561152a5760808501516115239063ffffffff1684611a65565b9250611506565b505092915050565b6000826080015163ffffffff16600003611562578251611553906001611b45565b65ffffffffffff1690506101fd565b6000836060015165ffffffffffff168361157c9190611ab1565b9050836080015163ffffffff16816115949190611bec565b8451610339919065ffffffffffff16611a65565b835165ffffffffffff166000036116005760208085015160008781526002835260408082208783529093529190912065ffffffffffff60701b60709290921b91909116821760a084901b17600160d01b17905561168c565b600061160c8584611486565b9050600082116116265761162186868361131e565b611637565b816001146116345781611637565b60005b915060006116458683611532565b60208088015160008a81526002835260408082208a83529093529190912065ffffffffffff60701b60709290921b91909116851760a085901b1760d083901b179055905050505b60008581526020818152604080832086905590860151905165ffffffffffff90911691879186917ffda207e5d149787155cf9596283f246f082d4744a57e37dda99146e5dcc542bb91a45050505050565b60008080600019858709858702925082811083820303915050806000036117175783828161170d5761170d611ac4565b049250505061054f565b83811061174c57604051630c740aef60e31b815260048101879052602481018690526044810185905260640160405180910390fd5b60008486880960026001871981018816978890046003810283188082028403028082028403028082028403028082028403028082028403029081029092039091026000889003889004909101858311909403939093029303949094049190911702949350505050565b6040805161012081018252600080825260208201819052918101829052606081018290526080810182905260a0810182905260c0810182905260e0810182905261010081019190915290565b6000806040838503121561181457600080fd5b50508035926020909101359150565b65ffffffffffff808251168352806020830151166020840152806040830151166040840152506060810151611862606084018265ffffffffffff169052565b50608081015161187a608084018263ffffffff169052565b5060a081015161189560a08401826001600160701b03169052565b5060c08101516118ad60c084018263ffffffff169052565b5060e08101516118c860e08401826001600160a01b03169052565b5061010090810151910152565b61012081016101fd8284611823565b6000602082840312156118f657600080fd5b5035919050565b6001600160a01b0381168114610fec57600080fd5b600080600080600080600060e0888a03121561192d57600080fd5b873596506020880135955060408801359450606088013593506080880135611954816118fd565b9699959850939692959460a0840135945060c09093013592915050565b634e487b7160e01b600052602160045260246000fd5b600681106119a557634e487b7160e01b600052602160045260246000fd5b9052565b61014081016119b88285611823565b61054f610120830184611987565b6000806000606084860312156119db57600080fd5b505081359360208301359350604090920135919050565b6020808252825182820181905260009190848201906040850190845b81811015611a3557611a21838551611823565b928401926101209290920191600101611a0e565b50909695505050505050565b602081016101fd8284611987565b634e487b7160e01b600052601160045260246000fd5b808201808211156101fd576101fd611a4f565b600060208284031215611a8a57600080fd5b8151801515811461054f57600080fd5b80820281158282048414176101fd576101fd611a4f565b818103818111156101fd576101fd611a4f565b634e487b7160e01b600052601260045260246000fd5b600060018201611aec57611aec611a4f565b5060010190565b634e487b7160e01b600052604160045260246000fd5b634e487b7160e01b600052603260045260246000fd5b65ffffffffffff828116828216039080821115611b3e57611b3e611a4f565b5092915050565b65ffffffffffff818116838216019080821115611b3e57611b3e611a4f565b600060208284031215611b7657600080fd5b815161054f816118fd565b600060208284031215611b9357600080fd5b5051919050565b600060208284031215611bac57600080fd5b81516006811061054f57600080fd5b63ffffffff828116828216039080821115611b3e57611b3e611a4f565b600082611be757611be7611ac4565b500690565b600082611bfb57611bfb611ac4565b50049056fea2646970667358221220b2624cb7a0d6c83bcf2735b0cfdc0ae364062e6d25994ecd749086bca630f8cc64736f6c63430008170033",
	"deployedBytecode": "0x608060405234801561001057600080fd5b506004361061009e5760003560e01c8063855a54ed11610066578063855a54ed1461013357806388bc2ef3146101545780638b04533a14610193578063b51d6244146101a8578063d7e1ec88146101c857600080fd5b806325a61d5c146100a35780632e6bc58a146100cc57806333f5bd0a146100df57806343a266c21461010d57806370174dcc14610120575b600080fd5b6100b66100b1366004611801565b6101e8565b6040516100c391906118d5565b60405180910390f35b6100b66100da3660046118e4565b610203565b6100ff6100ed3660046118e4565b60006020819052908152604090205481565b6040519081526020016100c3565b6100b661011b3660046118e4565b6103d0565b6100b661012e366004611912565b610556565b6101466101413660046118e4565b610828565b6040516100c39291906119a9565b61017b7f000000000000000000000000992f9e3a81c77cb940a29311558343e1ac66c40f81565b6040516001600160a01b0390911681526020016100c3565b6101a66101a13660046118e4565b610883565b005b6101bb6101b63660046119c6565b6109e0565b6040516100c391906119f2565b6101db6101d63660046118e4565b610b28565b6040516100c39190611a41565b6101f06117b5565b6101fa8383610b74565b90505b92915050565b61020b6117b5565b600082815260208190526040812054900361022b576101fd600080610b74565b600061023683610c37565b9050600081156102ce5761024a8483610b74565b92506102568484610d3d565b9050600481600581111561026c5761026c611971565b14806102895750600381600581111561028757610287611971565b145b806102a5575060008160058111156102a3576102a3611971565b145b156102b1575050919050565b6102c784846040015165ffffffffffff16610b74565b925061031c565b6000848152602081905260409020546102e8908590610b74565b92505b42836060015165ffffffffffff16111561031c5761031584846040015165ffffffffffff16610b74565b92506102eb565b826080015163ffffffff1660000361034157610339600080610b74565b949350505050565b61034b8484610d3d565b9050600481600581111561036157610361611971565b148061037e5750600081600581111561037c5761037c611971565b145b1561038f5761033984846000610d6f565b6103a584846040015165ffffffffffff16610b74565b9250826080015163ffffffff166000036103c457610339600080610b74565b61033984846000610d6f565b6103d86117b5565b60008281526020819052604081205490036103f8576101fd600080610b74565b600061040383610e7a565b90508015610483576104158382610b74565b915060006104238484610d3d565b9050600481600581111561043957610439611971565b14806104565750600081600581111561045457610454611971565b145b15610462575050919050565b826040015165ffffffffffff16915061047b8483610b74565b92505061052b565b5060008281526020819052604090205461049d8382610b74565b915060006104ab8484610d3d565b90505b60048160058111156104c2576104c2611971565b141580156104e2575060008160058111156104df576104df611971565b14155b806104f85750826060015165ffffffffffff1642105b1561052957826040015165ffffffffffff1691506105168483610b74565b92506105228484610d3d565b90506104ae565b505b816080015163ffffffff166000036105435750919050565b61054f83836001610d6f565b9392505050565b61055e6117b5565b8761056881610f3a565b63ffffffff88111561058d57604051631525af6b60e31b815260040160405180910390fd5b633b9aca008611156105b25760405163ad33716f60e01b815260040160405180910390fd5b6001600160701b038711156105da5760405163698f22ad60e01b815260040160405180910390fd5b826000036105e6574292505b65ffffffffffff6105f78985611a65565b11156106165760405163acc92f5b60e01b815260040160405180910390fd5b6001600160a01b038516156106f457846001600160a01b03163b6000036106505760405163a903807d60e01b815260040160405180910390fd5b6040516301ffc9a760e01b8152634b80c8df60e01b60048201526001600160a01b038616906301ffc9a790602401602060405180830381865afa9250505080156106b7575060408051601f3d908101601f191682019092526106b491810190611a78565b60015b6106d45760405163a903807d60e01b815260040160405180910390fd5b806106f25760405163a903807d60e01b815260040160405180910390fd5b505b6000898152602081905260408120549042821015610712574261071d565b61071d826001611a65565b905061072b8b828b88610fef565b6001600160a01b038716151580610742575060008a115b8061074d5750600088115b156107845760008b8152600160209081526040808320848452909152902060c089901b60a08c901b6001600160a01b038a16171790555b85156107a75760008b815260036020908152604080832084845290915290208690555b604080518b8152602081018b90529081018990526001600160a01b03881660608201526080810187905260a081018690523360c08201528b9082907f11a490bebff1beffe4bdd210894aca6ea5049427ce4b3c48865717677199cb079060e00160405180910390a36108198b82610b74565b9b9a5050505050505050505050565b6108306117b5565b6000828152602081905260408120546108498482610b74565b925061087b84846020015165ffffffffffff16856060015165ffffffffffff16866040015165ffffffffffff1661125a565b915050915091565b60008181526020819052604081205461089d908390610b74565b9050806080015163ffffffff16600014806108c0575060c081015163ffffffff16155b156108c9575050565b60008281526004602090815260408083208483015165ffffffffffff16845290915281206080830151600182015491929163ffffffff909116906109199061c350906001600160a81b0316611a65565b6109239190611a9a565b836060015165ffffffffffff1661093a9190611a65565b9050600081421061094b578161094d565b425b90506000846060015165ffffffffffff16826109699190611ab1565b90506000856080015163ffffffff16828161098657610986611ac4565b04905061099487878561131e565b85546dffffffffffffffffffffffffffff19166001600160701b0391909116178555600190940180546001600160a81b0319166001600160a81b03909516949094179093555050505050565b6060826000036109fc5760008481526020819052604090205492505b600080610a098686610b74565b90505b602081015165ffffffffffff1615801590610a2657508382105b15610a555781610a3581611ada565b925050610a4e86826040015165ffffffffffff16610b74565b9050610a0c565b8167ffffffffffffffff811115610a6e57610a6e611af3565b604051908082528060200260200182016040528015610aa757816020015b610a946117b5565b815260200190600190039081610a8c5790505b50925081600003610ab957505061054f565b610ac38686610b74565b905060005b82811015610b1e57818482610adc81611ada565b935081518110610aee57610aee611b09565b6020026020010181905250828114610b1957610b1687836040015165ffffffffffff16610b74565b91505b610ac8565b5050509392505050565b60008181526020819052604081205481610b428483610b74565b905061033984826020015165ffffffffffff16836060015165ffffffffffff16846040015165ffffffffffff1661125a565b610b7c6117b5565b81156101fd5765ffffffffffff82811660208381019190915260008581526002825260408082208683528352808220546001600160701b03811660a080880191909152607082901c86168388015281811c909516606087015260d01c8552868252600183528082208683528352808220546001600160a01b03811660e08701529384901c63ffffffff908116608087015260c094851c1693850193909352948552600381528185209385529290925291205461010082015290565b60008181526020819052604081205490610c518383610b74565b9050806060015165ffffffffffff164210610c6f5750600092915050565b805165ffffffffffff16600103610c865750919050565b604081015165ffffffffffff16610c9b6117b5565b610ca58583610b74565b9050806060015165ffffffffffff16421015610cde57806020015165ffffffffffff169350806040015165ffffffffffff169150610c9b565b610ce88585610b74565b9250806080015163ffffffff16600014158015610d255750806080015163ffffffff168360600151610d1a9190611b1f565b65ffffffffffff1642105b15610d3557506000949350505050565b505050919050565b60006101fa83836020015165ffffffffffff16846060015165ffffffffffff16856040015165ffffffffffff1661125a565b610d776117b5565b60008215610da4576080840151610d949063ffffffff1642611ab1565b610d9f906001611a65565b610daf565b610daf426001611a65565b90506000610dbd8583611486565b90506000610dcb8683611532565b90506040518061012001604052808265ffffffffffff168152602001876020015165ffffffffffff168152602001876040015165ffffffffffff1681526020018365ffffffffffff168152602001876080015163ffffffff168152602001610e3489898661131e565b6001600160701b031681526020018760c0015163ffffffff1681526020018760e001516001600160a01b0316815260200187610100015181525093505050509392505050565b60008181526020819052604081205481610e948483610b74565b90505b608081015163ffffffff1615801590610ed15750806080015163ffffffff168160600151610ec59190611b45565b65ffffffffffff164210155b15610ee0575060009392505050565b806060015165ffffffffffff164210610f06576020015165ffffffffffff169392505050565b610f1c84826040015165ffffffffffff16610b74565b805190915065ffffffffffff16600003610e97575060009392505050565b604051632eec7b5560e11b81526004810182905233906001600160a01b037f000000000000000000000000992f9e3a81c77cb940a29311558343e1ac66c40f1690635dd8f6aa90602401602060405180830381865afa158015610fa1573d6000803e3d6000fd5b505050506040513d601f19601f82011682018060405250810190610fc59190611b64565b6001600160a01b031614610fec57604051632adfdd0560e21b815260040160405180910390fd5b50565b600084815260208190526040812054908190036110235761101d85611015600080610b74565b8685876115a8565b50611254565b600061102f8683610b74565b9050600061103d8783610d3d565b9050816060015165ffffffffffff16421015801561106d5750600481600581111561106a5761106a611971565b14155b801561108b5750600081600581111561108857611088611971565b14155b806110ea5750816060015165ffffffffffff16421080156110cc5750816080015163ffffffff1682606001516110c19190611b45565b65ffffffffffff1684105b80156110ea575060048160058111156110e7576110e7611971565b14155b806111865750816060015165ffffffffffff164210801561112c5750816080015163ffffffff1682606001516111209190611b45565b65ffffffffffff168410155b801561114a5750600481600581111561114757611147611971565b14155b80156111685750600381600581111561116557611165611971565b14155b80156111865750600081600581111561118357611183611971565b14155b156111a4576111a187836040015165ffffffffffff16610b74565b91505b60e08201516000906001600160a01b03161561122f578260e001516001600160a01b0316631be052896040518163ffffffff1660e01b8152600401602060405180830381865afa1580156111fc573d6000803e3d6000fd5b505050506040513d601f19601f820116820180604052508101906112209190611b81565b61122a9088611a65565b611232565b60005b905061124f8884898885116112475788611249565b845b8a6115a8565b505050505b50505050565b60008160000361126c57506000610339565b60006112788684610b74565b60e08101519091506001600160a01b0316611297576000915050610339565b60e08101516040516328304d2b60e11b81526004810188905260248101879052604481018690526001600160a01b03909116906350609a5690606401602060405180830381865afa1580156112f0573d6000803e3d6000fd5b505050506040513d601f19601f820116820180604052508101906113149190611b9a565b9695505050505050565b6000826080015163ffffffff1660000361136e576113678360a001516001600160701b03168460c00151633b9aca006113579190611bbb565b63ffffffff16633b9aca006116dd565b905061054f565b8260a001516001600160701b031690508260c0015163ffffffff166000031561054f576000836060015165ffffffffffff16836113ab9190611ab1565b90506000846080015163ffffffff1682816113c8576113c8611ac4565b0490506103e88111156114535760008681526004602090815260408083208883015165ffffffffffff168452825291829020825180840190935280546001600160701b03168352600101546001600160a81b03169082018190521561145157805160208201516001600160701b03909116945061144e906001600160a81b031683611ab1565b91505b505b60005b81811015610b1e57611476848760c00151633b9aca006113579190611bbb565b93508315610b1e57600101611456565b6000826080015163ffffffff166000036114a15750806101fd565b6000836080015163ffffffff1684606001516114bd9190611b45565b65ffffffffffff1690508281106114d55790506101fd565b608084015160009063ffffffff166114ed8386611ab1565b6114f79190611bd8565b90506115038185611ab1565b92505b8284111561152a5760808501516115239063ffffffff1684611a65565b9250611506565b505092915050565b6000826080015163ffffffff16600003611562578251611553906001611b45565b65ffffffffffff1690506101fd565b6000836060015165ffffffffffff168361157c9190611ab1565b9050836080015163ffffffff16816115949190611bec565b8451610339919065ffffffffffff16611a65565b835165ffffffffffff166000036116005760208085015160008781526002835260408082208783529093529190912065ffffffffffff60701b60709290921b91909116821760a084901b17600160d01b17905561168c565b600061160c8584611486565b9050600082116116265761162186868361131e565b611637565b816001146116345781611637565b60005b915060006116458683611532565b60208088015160008a81526002835260408082208a83529093529190912065ffffffffffff60701b60709290921b91909116851760a085901b1760d083901b179055905050505b60008581526020818152604080832086905590860151905165ffffffffffff90911691879186917ffda207e5d149787155cf9596283f246f082d4744a57e37dda99146e5dcc542bb91a45050505050565b60008080600019858709858702925082811083820303915050806000036117175783828161170d5761170d611ac4565b049250505061054f565b83811061174c57604051630c740aef60e31b815260048101879052602481018690526044810185905260640160405180910390fd5b60008486880960026001871981018816978890046003810283188082028403028082028403028082028403028082028403028082028403029081029092039091026000889003889004909101858311909403939093029303949094049190911702949350505050565b6040805161012081018252600080825260208201819052918101829052606081018290526080810182905260a0810182905260c0810182905260e0810182905261010081019190915290565b6000806040838503121561181457600080fd5b50508035926020909101359150565b65ffffffffffff808251168352806020830151166020840152806040830151166040840152506060810151611862606084018265ffffffffffff169052565b50608081015161187a608084018263ffffffff169052565b5060a081015161189560a08401826001600160701b03169052565b5060c08101516118ad60c084018263ffffffff169052565b5060e08101516118c860e08401826001600160a01b03169052565b5061010090810151910152565b61012081016101fd8284611823565b6000602082840312156118f657600080fd5b5035919050565b6001600160a01b0381168114610fec57600080fd5b600080600080600080600060e0888a03121561192d57600080fd5b873596506020880135955060408801359450606088013593506080880135611954816118fd565b9699959850939692959460a0840135945060c09093013592915050565b634e487b7160e01b600052602160045260246000fd5b600681106119a557634e487b7160e01b600052602160045260246000fd5b9052565b61014081016119b88285611823565b61054f610120830184611987565b6000806000606084860312156119db57600080fd5b505081359360208301359350604090920135919050565b6020808252825182820181905260009190848201906040850190845b81811015611a3557611a21838551611823565b928401926101209290920191600101611a0e565b50909695505050505050565b602081016101fd8284611987565b634e487b7160e01b600052601160045260246000fd5b808201808211156101fd576101fd611a4f565b600060208284031215611a8a57600080fd5b8151801515811461054f57600080fd5b80820281158282048414176101fd576101fd611a4f565b818103818111156101fd576101fd611a4f565b634e487b7160e01b600052601260045260246000fd5b600060018201611aec57611aec611a4f565b5060010190565b634e487b7160e01b600052604160045260246000fd5b634e487b7160e01b600052603260045260246000fd5b65ffffffffffff828116828216039080821115611b3e57611b3e611a4f565b5092915050565b65ffffffffffff818116838216019080821115611b3e57611b3e611a4f565b600060208284031215611b7657600080fd5b815161054f816118fd565b600060208284031215611b9357600080fd5b5051919050565b600060208284031215611bac57600080fd5b81516006811061054f57600080fd5b63ffffffff828116828216039080821115611b3e57611b3e611a4f565b600082611be757611be7611ac4565b500690565b600082611bfb57611bfb611ac4565b50049056fea2646970667358221220b2624cb7a0d6c83bcf2735b0cfdc0ae364062e6d25994ecd749086bca630f8cc64736f6c63430008170033",
	"devdoc": {
		"kind": "dev",
		"methods": {
			"constructor": {
				"params": {
					"directory": "A contract storing directories of terminals and controllers for each project."
				}
			},
			"currentApprovalStatusForLatestRulesetOf(uint256)": {
				"params": {
					"projectId": "The ID of the project to check the approval status of."
				},
				"returns": {
					"_0": "The project's current approval status."
				}
			},
			"currentOf(uint256)": {
				"details": "If a current ruleset of the project is not found, returns an empty ruleset with all properties set to 0.",
				"params": {
					"projectId": "The ID of the project to get the current ruleset of."
				},
				"returns": {
					"ruleset": "The project's current ruleset."
				}
			},
			"getRulesetOf(uint256,uint256)": {
				"params": {
					"projectId": "The ID of the project to which the ruleset belongs.",
					"rulesetId": "The ID of the ruleset to get the struct of."
				},
				"returns": {
					"ruleset": "The ruleset struct."
				}
			},
			"latestQueuedOf(uint256)": {
				"details": "Returns struct and status for the ruleset initialized furthest in the future (at the end of the rulset queue).",
				"params": {
					"projectId": "The ID of the project to get the latest queued ruleset of."
				},
				"returns": {
					"approvalStatus": "The approval hook's status for the ruleset.",
					"ruleset": "The project's latest queued ruleset's struct."
				}
			},
			"queueFor(uint256,uint256,uint256,uint256,address,uint256,uint256)": {
				"details": "Only a project's current controller can queue its rulesets.",
				"params": {
					"approvalHook": "A contract which dictates whether a proposed ruleset should be accepted or rejected. It can be used to constrain a project owner's ability to change ruleset parameters over time.",
					"decayPercent": "A fraction (out of `JBConstants.MAX_DECAY_PERCENT`) to reduce the next ruleset's `weight` by. - If a ruleset specifies a non-zero `weight`, the `decayPercent` does not apply. - If the `decayPercent` is 0, the `weight` stays the same. - If the `decayPercent` is 10% of `JBConstants.MAX_DECAY_PERCENT`, next ruleset's `weight` will be 90% of the current one.",
					"duration": "The number of seconds the ruleset lasts for, after which a new ruleset starts. - A `duration` of 0 means this ruleset will remain active until the project owner queues a new ruleset. That new ruleset will start immediately. - A ruleset with a non-zero `duration` applies until the duration ends – any newly queued rulesets will be *queued* to take effect afterwards. - If a duration ends and no new rulesets are queued, the ruleset rolls over to a new ruleset with the same rules (except for a new `start` timestamp and a decayed `weight`).",
					"metadata": "Arbitrary extra data to associate with this ruleset. This metadata is not used by `JBRulesets`.",
					"mustStartAtOrAfter": "The earliest time the ruleset can start. The ruleset cannot start before this timestamp.",
					"projectId": "The ID of the project to queue the ruleset for.",
					"weight": "A fixed point number with 18 decimals that contracts can use to base arbitrary calculations on. Payment terminals generally use this to determine how many tokens should be minted when the project is paid."
				},
				"returns": {
					"_0": "The struct of the new ruleset."
				}
			},
			"rulesetsOf(uint256,uint256,uint256)": {
				"params": {
					"projectId": "The ID of the project to get the rulesets of.",
					"size": "The maximum number of rulesets to return.",
					"startingId": "The ID of the ruleset to begin with. This will be the latest ruleset in the result. If 0 is passed, the project's latest ruleset will be used."
				},
				"returns": {
					"rulesets": "The rulesets as an array of `JBRuleset` structs."
				}
			},
			"upcomingOf(uint256)": {
				"details": "If an upcoming ruleset is not found for the project, returns an empty ruleset with all properties set to 0.",
				"params": {
					"projectId": "The ID of the project to get the upcoming ruleset of."
				},
				"returns": {
					"ruleset": "The struct for the project's upcoming ruleset."
				}
			},
			"updateRulesetWeightCache(uint256)": {
				"params": {
					"projectId": "The ID of the project having its ruleset weight cached."
				}
			}
		},
		"version": 1
	},
	"userdoc": {
		"kind": "user",
		"methods": {
			"DIRECTORY()": {
				"notice": "The directory of terminals and controllers for projects."
			},
			"currentApprovalStatusForLatestRulesetOf(uint256)": {
				"notice": "The current approval status of a given project's latest ruleset."
			},
			"currentOf(uint256)": {
				"notice": "The ruleset that is currently active for the specified project."
			},
			"getRulesetOf(uint256,uint256)": {
				"notice": "Get the ruleset struct for a given `rulesetId` and `projectId`."
			},
			"latestQueuedOf(uint256)": {
				"notice": "The latest ruleset queued for a project. Returns the ruleset's struct and its current approval status."
			},
			"latestRulesetIdOf(uint256)": {
				"notice": "The ID of the ruleset with the latest start time for a specific project, whether the ruleset has been approved or not."
			},
			"queueFor(uint256,uint256,uint256,uint256,address,uint256,uint256)": {
				"notice": "Queues the upcoming approvable ruleset for the specified project."
			},
			"rulesetsOf(uint256,uint256,uint256)": {
				"notice": "Get an array of a project's rulesets up to a maximum array size, sorted from latest to earliest."
			},
			"upcomingOf(uint256)": {
				"notice": "The ruleset that's up next for a project."
			},
			"updateRulesetWeightCache(uint256)": {
				"notice": "Cache the value of the ruleset weight."
			}
		},
		"version": 1
	},
	"gitCommit": "897be4ac937fa10ecfddb2c6008cf3edd084beef",
	"sourceName": "src/JBRulesets.sol",
	"chainId": "11155420",
	"linkReferences": {},
	"deployedLinkReferences": {},
	"history": []
}