{
	"_format": "sphinx-sol-ct-artifact-1",
	"merkleRoot": "0x732be88c08b5a2d625882757714ef23a3a10316e007749118eaca4a956dc9f8a",
	"contractName": "JBSplits",
	"address": "0x53A4354b7c6f83b0b2B7d559451a5180a410aB25",
	"abi": [
		{
			"type": "constructor",
			"inputs": [
				{
					"name": "directory",
					"type": "address",
					"internalType": "contract IJBDirectory"
				}
			],
			"stateMutability": "nonpayable"
		},
		{
			"type": "function",
			"name": "DIRECTORY",
			"inputs": [],
			"outputs": [
				{
					"name": "",
					"type": "address",
					"internalType": "contract IJBDirectory"
				}
			],
			"stateMutability": "view"
		},
		{
			"type": "function",
			"name": "FALLBACK_RULESET_ID",
			"inputs": [],
			"outputs": [
				{
					"name": "",
					"type": "uint256",
					"internalType": "uint256"
				}
			],
			"stateMutability": "view"
		},
		{
			"type": "function",
			"name": "setSplitGroupsOf",
			"inputs": [
				{
					"name": "projectId",
					"type": "uint256",
					"internalType": "uint256"
				},
				{
					"name": "rulesetId",
					"type": "uint256",
					"internalType": "uint256"
				},
				{
					"name": "splitGroups",
					"type": "tuple[]",
					"internalType": "struct JBSplitGroup[]",
					"components": [
						{
							"name": "groupId",
							"type": "uint256",
							"internalType": "uint256"
						},
						{
							"name": "splits",
							"type": "tuple[]",
							"internalType": "struct JBSplit[]",
							"components": [
								{
									"name": "preferAddToBalance",
									"type": "bool",
									"internalType": "bool"
								},
								{
									"name": "percent",
									"type": "uint32",
									"internalType": "uint32"
								},
								{
									"name": "projectId",
									"type": "uint56",
									"internalType": "uint56"
								},
								{
									"name": "beneficiary",
									"type": "address",
									"internalType": "address payable"
								},
								{
									"name": "lockedUntil",
									"type": "uint48",
									"internalType": "uint48"
								},
								{
									"name": "hook",
									"type": "address",
									"internalType": "contract IJBSplitHook"
								}
							]
						}
					]
				}
			],
			"outputs": [],
			"stateMutability": "nonpayable"
		},
		{
			"type": "function",
			"name": "splitsOf",
			"inputs": [
				{
					"name": "projectId",
					"type": "uint256",
					"internalType": "uint256"
				},
				{
					"name": "rulesetId",
					"type": "uint256",
					"internalType": "uint256"
				},
				{
					"name": "groupId",
					"type": "uint256",
					"internalType": "uint256"
				}
			],
			"outputs": [
				{
					"name": "splits",
					"type": "tuple[]",
					"internalType": "struct JBSplit[]",
					"components": [
						{
							"name": "preferAddToBalance",
							"type": "bool",
							"internalType": "bool"
						},
						{
							"name": "percent",
							"type": "uint32",
							"internalType": "uint32"
						},
						{
							"name": "projectId",
							"type": "uint56",
							"internalType": "uint56"
						},
						{
							"name": "beneficiary",
							"type": "address",
							"internalType": "address payable"
						},
						{
							"name": "lockedUntil",
							"type": "uint48",
							"internalType": "uint48"
						},
						{
							"name": "hook",
							"type": "address",
							"internalType": "contract IJBSplitHook"
						}
					]
				}
			],
			"stateMutability": "view"
		},
		{
			"type": "event",
			"name": "SetSplit",
			"inputs": [
				{
					"name": "projectId",
					"type": "uint256",
					"indexed": true,
					"internalType": "uint256"
				},
				{
					"name": "rulesetId",
					"type": "uint256",
					"indexed": true,
					"internalType": "uint256"
				},
				{
					"name": "groupId",
					"type": "uint256",
					"indexed": true,
					"internalType": "uint256"
				},
				{
					"name": "split",
					"type": "tuple",
					"indexed": false,
					"internalType": "struct JBSplit",
					"components": [
						{
							"name": "preferAddToBalance",
							"type": "bool",
							"internalType": "bool"
						},
						{
							"name": "percent",
							"type": "uint32",
							"internalType": "uint32"
						},
						{
							"name": "projectId",
							"type": "uint56",
							"internalType": "uint56"
						},
						{
							"name": "beneficiary",
							"type": "address",
							"internalType": "address payable"
						},
						{
							"name": "lockedUntil",
							"type": "uint48",
							"internalType": "uint48"
						},
						{
							"name": "hook",
							"type": "address",
							"internalType": "contract IJBSplitHook"
						}
					]
				},
				{
					"name": "caller",
					"type": "address",
					"indexed": false,
					"internalType": "address"
				}
			],
			"anonymous": false
		},
		{
			"type": "error",
			"name": "JBControlled_ControllerUnauthorized",
			"inputs": [
				{
					"name": "controller",
					"type": "address",
					"internalType": "address"
				}
			]
		},
		{
			"type": "error",
			"name": "JBSplits_PreviousLockedSplitsNotIncluded",
			"inputs": []
		},
		{
			"type": "error",
			"name": "JBSplits_TotalPercentExceeds100",
			"inputs": []
		},
		{
			"type": "error",
			"name": "JBSplits_ZeroSplitPercent",
			"inputs": []
		}
	],
	"solcInputHash": "b6c351fd96634234999dc102235e550e",
	"args": [
		"0x5ADb234602D074064C216C1fDB23c6c2031F0C75"
	],
	"bytecode": "0x60a060405234801561001057600080fd5b50604051610d8d380380610d8d83398101604081905261002f91610040565b6001600160a01b0316608052610070565b60006020828403121561005257600080fd5b81516001600160a01b038116811461006957600080fd5b9392505050565b608051610cf56100986000396000818160910152818161033a01526103c90152610cf56000f3fe608060405234801561001057600080fd5b506004361061004c5760003560e01c80635963b80b1461005157806369e11cc51461006c57806388bc2ef31461008c578063ed115957146100cb575b600080fd5b610059600081565b6040519081526020015b60405180910390f35b61007f61007a3660046108a0565b6100e0565b604051610063919061092b565b6100b37f000000000000000000000000000000000000000000000000000000000000000081565b6040516001600160a01b039091168152602001610063565b6100de6100d9366004610979565b61010e565b005b60606100ed848484610179565b905080516000036101075761010484600084610179565b90505b9392505050565b836101188161031a565b60005b82811015610171576000848483818110610137576101376109fc565b90506020028101906101499190610a12565b61015290610b17565b9050610168878783600001518460200151610468565b5060010161011b565b505050505050565b600083815260026020908152604080832085845282528083208484529091528120546060918167ffffffffffffffff8111156101b7576101b7610a32565b60405190808252806020026020018201604052801561021757816020015b6040805160c08101825260008082526020808301829052928201819052606082018190526080820181905260a082015282526000199092019101816101d55790505b50905060005b828110156103105760008781526020818152604080832089845282528083208884528252808320848452825280832054815160c0810183526080810185905260a0810185905260018083168114825282811c63ffffffff1682860152602183901c66ffffffffffffff1682850152605983901c6001600160a01b031660608301528c865284528285208b865284528285208a8652845282852086865290935292205480156102e75765ffffffffffff811660808301526001600160a01b03603082901c1660a08301525b818585815181106102fa576102fa6109fc565b602090810291909101015250505060010161021d565b5095945050505050565b604051632eec7b5560e11b81526004810182905233906001600160a01b037f00000000000000000000000000000000000000000000000000000000000000001690635dd8f6aa90602401602060405180830381865afa158015610381573d6000803e3d6000fd5b505050506040513d601f19601f820116820180604052508101906103a59190610c5b565b6001600160a01b03161461046557604051632eec7b5560e11b8152600481018290527f00000000000000000000000000000000000000000000000000000000000000006001600160a01b031690635dd8f6aa90602401602060405180830381865afa158015610418573d6000803e3d6000fd5b505050506040513d601f19601f8201168201806040525081019061043c9190610c5b565b604051639a007b3960e01b81526001600160a01b03909116600482015260240160405180910390fd5b50565b6000610475858585610179565b805190915060005b818110156104ff57828181518110610497576104976109fc565b60200260200101516080015165ffffffffffff16421080156104d957506104d7848483815181106104ca576104ca6109fc565b6020026020010151610790565b155b156104f757604051630d69be0f60e41b815260040160405180910390fd5b60010161047d565b508251600090815b81811015610760576000868281518110610523576105236109fc565b60200260200101519050806020015163ffffffff16600003610558576040516346c75bfb60e01b815260040160405180910390fd5b602081015161056d9063ffffffff1685610c78565b9350633b9aca0084111561059457604051638d7ab86f60e01b815260040160405180910390fd5b8051600090156105a2575060015b6001826020015163ffffffff16901b63ffffffff16811790506021826040015166ffffffffffffff16901b66ffffffffffffff1681179050605982606001516001600160a01b0316901b81179050806000808d815260200190815260200160002060008c815260200190815260200160002060008b81526020019081526020016000206000858152602001908152602001600020819055506000826080015165ffffffffffff161180610661575060a08201516001600160a01b031615155b156106c057608082015160a083015160008d81526001602090815260408083208f845282528083208e84528252808320888452909152902065ffffffffffff90921660309190911b6601000000000000600160d01b031617905561071a565b60008b81526001602090815260408083208d845282528083208c845282528083208684529091529020541561071a5760008b81526001602090815260408083208d845282528083208c845282528083208684529091528120555b888a8c7fc66a2cfdab00bc4875c6ae146351d5a8a14cc1225572844a88fca6c427d39ca8853360405161074e929190610c99565b60405180910390a45050600101610507565b506000978852600260209081526040808a20988a5297815287892096895295909552505050919092209190915550565b8151600090815b818110156108935760008582815181106107b3576107b36109fc565b60200260200101519050846020015163ffffffff16816020015163ffffffff161480156107f9575084606001516001600160a01b031681606001516001600160a01b0316145b801561081e57508460a001516001600160a01b03168160a001516001600160a01b0316145b80156108435750846040015166ffffffffffffff16816040015166ffffffffffffff16145b80156108555750845181511515901515145b80156108795750846080015165ffffffffffff16816080015165ffffffffffff1610155b1561088a576001935050505061089a565b50600101610797565b5060009150505b92915050565b6000806000606084860312156108b557600080fd5b505081359360208301359350604090920135919050565b80511515825260208082015163ffffffff169083015260408082015166ffffffffffffff16908301526060808201516001600160a01b039081169184019190915260808083015165ffffffffffff169084015260a09182015116910152565b6020808252825182820181905260009190848201906040850190845b8181101561096d5761095a8385516108cc565b9284019260c09290920191600101610947565b50909695505050505050565b6000806000806060858703121561098f57600080fd5b8435935060208501359250604085013567ffffffffffffffff808211156109b557600080fd5b818701915087601f8301126109c957600080fd5b8135818111156109d857600080fd5b8860208260051b85010111156109ed57600080fd5b95989497505060200194505050565b634e487b7160e01b600052603260045260246000fd5b60008235603e19833603018112610a2857600080fd5b9190910192915050565b634e487b7160e01b600052604160045260246000fd5b6040805190810167ffffffffffffffff81118282101715610a6b57610a6b610a32565b60405290565b60405160c0810167ffffffffffffffff81118282101715610a6b57610a6b610a32565b604051601f8201601f1916810167ffffffffffffffff81118282101715610abd57610abd610a32565b604052919050565b803566ffffffffffffff81168114610adc57600080fd5b919050565b6001600160a01b038116811461046557600080fd5b8035610adc81610ae1565b803565ffffffffffff81168114610adc57600080fd5b60006040808336031215610b2a57600080fd5b610b32610a48565b8335815260208085013567ffffffffffffffff80821115610b5257600080fd5b9086019036601f830112610b6557600080fd5b813581811115610b7757610b77610a32565b610b85848260051b01610a94565b818152848101925060c0918202840185019136831115610ba457600080fd5b938501935b82851015610c4857808536031215610bc15760008081fd5b610bc9610a71565b85358015158114610bda5760008081fd5b81528587013563ffffffff81168114610bf35760008081fd5b81880152610c02868a01610ac5565b898201526060610c13818801610af6565b908201526080610c24878201610b01565b9082015260a0610c35878201610af6565b9082015284529384019392850192610ba9565b5093850193909352509195945050505050565b600060208284031215610c6d57600080fd5b815161010781610ae1565b8082018082111561089a57634e487b7160e01b600052601160045260246000fd5b60e08101610ca782856108cc565b6001600160a01b039290921660c0919091015291905056fea26469706673582212209917d8569e2a7dce1c4b19975a2ad6ecc36d182d22c1dbaa460030a189ec7a5964736f6c63430008170033",
	"deployedBytecode": "0x608060405234801561001057600080fd5b506004361061004c5760003560e01c80635963b80b1461005157806369e11cc51461006c57806388bc2ef31461008c578063ed115957146100cb575b600080fd5b610059600081565b6040519081526020015b60405180910390f35b61007f61007a3660046108a0565b6100e0565b604051610063919061092b565b6100b37f0000000000000000000000005adb234602d074064c216c1fdb23c6c2031f0c7581565b6040516001600160a01b039091168152602001610063565b6100de6100d9366004610979565b61010e565b005b60606100ed848484610179565b905080516000036101075761010484600084610179565b90505b9392505050565b836101188161031a565b60005b82811015610171576000848483818110610137576101376109fc565b90506020028101906101499190610a12565b61015290610b17565b9050610168878783600001518460200151610468565b5060010161011b565b505050505050565b600083815260026020908152604080832085845282528083208484529091528120546060918167ffffffffffffffff8111156101b7576101b7610a32565b60405190808252806020026020018201604052801561021757816020015b6040805160c08101825260008082526020808301829052928201819052606082018190526080820181905260a082015282526000199092019101816101d55790505b50905060005b828110156103105760008781526020818152604080832089845282528083208884528252808320848452825280832054815160c0810183526080810185905260a0810185905260018083168114825282811c63ffffffff1682860152602183901c66ffffffffffffff1682850152605983901c6001600160a01b031660608301528c865284528285208b865284528285208a8652845282852086865290935292205480156102e75765ffffffffffff811660808301526001600160a01b03603082901c1660a08301525b818585815181106102fa576102fa6109fc565b602090810291909101015250505060010161021d565b5095945050505050565b604051632eec7b5560e11b81526004810182905233906001600160a01b037f0000000000000000000000005adb234602d074064c216c1fdb23c6c2031f0c751690635dd8f6aa90602401602060405180830381865afa158015610381573d6000803e3d6000fd5b505050506040513d601f19601f820116820180604052508101906103a59190610c5b565b6001600160a01b03161461046557604051632eec7b5560e11b8152600481018290527f0000000000000000000000005adb234602d074064c216c1fdb23c6c2031f0c756001600160a01b031690635dd8f6aa90602401602060405180830381865afa158015610418573d6000803e3d6000fd5b505050506040513d601f19601f8201168201806040525081019061043c9190610c5b565b604051639a007b3960e01b81526001600160a01b03909116600482015260240160405180910390fd5b50565b6000610475858585610179565b805190915060005b818110156104ff57828181518110610497576104976109fc565b60200260200101516080015165ffffffffffff16421080156104d957506104d7848483815181106104ca576104ca6109fc565b6020026020010151610790565b155b156104f757604051630d69be0f60e41b815260040160405180910390fd5b60010161047d565b508251600090815b81811015610760576000868281518110610523576105236109fc565b60200260200101519050806020015163ffffffff16600003610558576040516346c75bfb60e01b815260040160405180910390fd5b602081015161056d9063ffffffff1685610c78565b9350633b9aca0084111561059457604051638d7ab86f60e01b815260040160405180910390fd5b8051600090156105a2575060015b6001826020015163ffffffff16901b63ffffffff16811790506021826040015166ffffffffffffff16901b66ffffffffffffff1681179050605982606001516001600160a01b0316901b81179050806000808d815260200190815260200160002060008c815260200190815260200160002060008b81526020019081526020016000206000858152602001908152602001600020819055506000826080015165ffffffffffff161180610661575060a08201516001600160a01b031615155b156106c057608082015160a083015160008d81526001602090815260408083208f845282528083208e84528252808320888452909152902065ffffffffffff90921660309190911b6601000000000000600160d01b031617905561071a565b60008b81526001602090815260408083208d845282528083208c845282528083208684529091529020541561071a5760008b81526001602090815260408083208d845282528083208c845282528083208684529091528120555b888a8c7fc66a2cfdab00bc4875c6ae146351d5a8a14cc1225572844a88fca6c427d39ca8853360405161074e929190610c99565b60405180910390a45050600101610507565b506000978852600260209081526040808a20988a5297815287892096895295909552505050919092209190915550565b8151600090815b818110156108935760008582815181106107b3576107b36109fc565b60200260200101519050846020015163ffffffff16816020015163ffffffff161480156107f9575084606001516001600160a01b031681606001516001600160a01b0316145b801561081e57508460a001516001600160a01b03168160a001516001600160a01b0316145b80156108435750846040015166ffffffffffffff16816040015166ffffffffffffff16145b80156108555750845181511515901515145b80156108795750846080015165ffffffffffff16816080015165ffffffffffff1610155b1561088a576001935050505061089a565b50600101610797565b5060009150505b92915050565b6000806000606084860312156108b557600080fd5b505081359360208301359350604090920135919050565b80511515825260208082015163ffffffff169083015260408082015166ffffffffffffff16908301526060808201516001600160a01b039081169184019190915260808083015165ffffffffffff169084015260a09182015116910152565b6020808252825182820181905260009190848201906040850190845b8181101561096d5761095a8385516108cc565b9284019260c09290920191600101610947565b50909695505050505050565b6000806000806060858703121561098f57600080fd5b8435935060208501359250604085013567ffffffffffffffff808211156109b557600080fd5b818701915087601f8301126109c957600080fd5b8135818111156109d857600080fd5b8860208260051b85010111156109ed57600080fd5b95989497505060200194505050565b634e487b7160e01b600052603260045260246000fd5b60008235603e19833603018112610a2857600080fd5b9190910192915050565b634e487b7160e01b600052604160045260246000fd5b6040805190810167ffffffffffffffff81118282101715610a6b57610a6b610a32565b60405290565b60405160c0810167ffffffffffffffff81118282101715610a6b57610a6b610a32565b604051601f8201601f1916810167ffffffffffffffff81118282101715610abd57610abd610a32565b604052919050565b803566ffffffffffffff81168114610adc57600080fd5b919050565b6001600160a01b038116811461046557600080fd5b8035610adc81610ae1565b803565ffffffffffff81168114610adc57600080fd5b60006040808336031215610b2a57600080fd5b610b32610a48565b8335815260208085013567ffffffffffffffff80821115610b5257600080fd5b9086019036601f830112610b6557600080fd5b813581811115610b7757610b77610a32565b610b85848260051b01610a94565b818152848101925060c0918202840185019136831115610ba457600080fd5b938501935b82851015610c4857808536031215610bc15760008081fd5b610bc9610a71565b85358015158114610bda5760008081fd5b81528587013563ffffffff81168114610bf35760008081fd5b81880152610c02868a01610ac5565b898201526060610c13818801610af6565b908201526080610c24878201610b01565b9082015260a0610c35878201610af6565b9082015284529384019392850192610ba9565b5093850193909352509195945050505050565b600060208284031215610c6d57600080fd5b815161010781610ae1565b8082018082111561089a57634e487b7160e01b600052601160045260246000fd5b60e08101610ca782856108cc565b6001600160a01b039290921660c0919091015291905056fea26469706673582212209917d8569e2a7dce1c4b19975a2ad6ecc36d182d22c1dbaa460030a189ec7a5964736f6c63430008170033",
	"devdoc": {
		"kind": "dev",
		"methods": {
			"constructor": {
				"params": {
					"directory": "A contract storing directories of terminals and controllers for each project."
				}
			},
			"setSplitGroupsOf(uint256,uint256,(uint256,(bool,uint32,uint56,address,uint48,address)[])[])": {
				"details": "Only a project's controller can set its splits.The new split groups must include any currently set splits that are locked.",
				"params": {
					"projectId": "The ID of the project to set the split groups of.",
					"rulesetId": "The ID of the ruleset the split groups should be active in. Send 0 to set the default split that'll be active if no ruleset has specific splits set. The default's default is the project's owner.",
					"splitGroups": "An array of split groups to set."
				}
			},
			"splitsOf(uint256,uint256,uint256)": {
				"details": "If splits aren't found at the given `rulesetId`, they'll be sought in the FALLBACK_RULESET_ID of 0.",
				"params": {
					"groupId": "The identifying group of the splits.",
					"projectId": "The ID of the project to get splits for.",
					"rulesetId": "An identifier within which the returned splits should be considered active."
				},
				"returns": {
					"splits": "An array of all splits for the project."
				}
			}
		},
		"version": 1
	},
	"userdoc": {
		"kind": "user",
		"methods": {
			"DIRECTORY()": {
				"notice": "The directory of terminals and controllers for projects."
			},
			"FALLBACK_RULESET_ID()": {
				"notice": "The ID of the ruleset that will be checked if nothing was found in the provided rulesetId."
			},
			"setSplitGroupsOf(uint256,uint256,(uint256,(bool,uint32,uint56,address,uint48,address)[])[])": {
				"notice": "Sets a project's split groups."
			},
			"splitsOf(uint256,uint256,uint256)": {
				"notice": "Get the split structs for the specified project ID, within the specified ruleset, for the specified group. The splits stored at ruleset 0 are used by default during a ruleset if the splits for the specific ruleset aren't set."
			}
		},
		"version": 1
	},
	"gitCommit": "621b4728594b015d227adf08d7af07a2ea0ba570",
	"sourceName": "src/JBSplits.sol",
	"chainId": "11155420",
	"linkReferences": {},
	"deployedLinkReferences": {},
	"history": []
}