{
	"_format": "sphinx-sol-ct-artifact-1",
	"merkleRoot": "0xf2f568380a2bcc4e7f89e08ff84563991af602cb04fda6b9476ae81ed75161f7",
	"contractName": "JBTerminalStore",
	"address": "0x79af7C714203A6A0Fd424E0A1E2df9aeD5Fa8241",
	"abi": [
		{
			"type": "constructor",
			"inputs": [
				{
					"name": "directory",
					"type": "address",
					"internalType": "contract IJBDirectory"
				},
				{
					"name": "rulesets",
					"type": "address",
					"internalType": "contract IJBRulesets"
				},
				{
					"name": "prices",
					"type": "address",
					"internalType": "contract IJBPrices"
				}
			],
			"stateMutability": "nonpayable"
		},
		{
			"type": "function",
			"name": "DIRECTORY",
			"inputs": [],
			"outputs": [
				{
					"name": "",
					"type": "address",
					"internalType": "contract IJBDirectory"
				}
			],
			"stateMutability": "view"
		},
		{
			"type": "function",
			"name": "PRICES",
			"inputs": [],
			"outputs": [
				{
					"name": "",
					"type": "address",
					"internalType": "contract IJBPrices"
				}
			],
			"stateMutability": "view"
		},
		{
			"type": "function",
			"name": "RULESETS",
			"inputs": [],
			"outputs": [
				{
					"name": "",
					"type": "address",
					"internalType": "contract IJBRulesets"
				}
			],
			"stateMutability": "view"
		},
		{
			"type": "function",
			"name": "balanceOf",
			"inputs": [
				{
					"name": "terminal",
					"type": "address",
					"internalType": "address"
				},
				{
					"name": "projectId",
					"type": "uint256",
					"internalType": "uint256"
				},
				{
					"name": "token",
					"type": "address",
					"internalType": "address"
				}
			],
			"outputs": [
				{
					"name": "",
					"type": "uint256",
					"internalType": "uint256"
				}
			],
			"stateMutability": "view"
		},
		{
			"type": "function",
			"name": "currentReclaimableSurplusOf",
			"inputs": [
				{
					"name": "terminal",
					"type": "address",
					"internalType": "address"
				},
				{
					"name": "projectId",
					"type": "uint256",
					"internalType": "uint256"
				},
				{
					"name": "accountingContexts",
					"type": "tuple[]",
					"internalType": "struct JBAccountingContext[]",
					"components": [
						{
							"name": "token",
							"type": "address",
							"internalType": "address"
						},
						{
							"name": "decimals",
							"type": "uint8",
							"internalType": "uint8"
						},
						{
							"name": "currency",
							"type": "uint32",
							"internalType": "uint32"
						}
					]
				},
				{
					"name": "decimals",
					"type": "uint256",
					"internalType": "uint256"
				},
				{
					"name": "currency",
					"type": "uint256",
					"internalType": "uint256"
				},
				{
					"name": "tokensRedeemed",
					"type": "uint256",
					"internalType": "uint256"
				},
				{
					"name": "useTotalSurplus",
					"type": "bool",
					"internalType": "bool"
				}
			],
			"outputs": [
				{
					"name": "",
					"type": "uint256",
					"internalType": "uint256"
				}
			],
			"stateMutability": "view"
		},
		{
			"type": "function",
			"name": "currentReclaimableSurplusOf",
			"inputs": [
				{
					"name": "projectId",
					"type": "uint256",
					"internalType": "uint256"
				},
				{
					"name": "tokensRedeemed",
					"type": "uint256",
					"internalType": "uint256"
				},
				{
					"name": "totalSupply",
					"type": "uint256",
					"internalType": "uint256"
				},
				{
					"name": "surplus",
					"type": "uint256",
					"internalType": "uint256"
				}
			],
			"outputs": [
				{
					"name": "",
					"type": "uint256",
					"internalType": "uint256"
				}
			],
			"stateMutability": "view"
		},
		{
			"type": "function",
			"name": "currentSurplusOf",
			"inputs": [
				{
					"name": "terminal",
					"type": "address",
					"internalType": "address"
				},
				{
					"name": "projectId",
					"type": "uint256",
					"internalType": "uint256"
				},
				{
					"name": "accountingContexts",
					"type": "tuple[]",
					"internalType": "struct JBAccountingContext[]",
					"components": [
						{
							"name": "token",
							"type": "address",
							"internalType": "address"
						},
						{
							"name": "decimals",
							"type": "uint8",
							"internalType": "uint8"
						},
						{
							"name": "currency",
							"type": "uint32",
							"internalType": "uint32"
						}
					]
				},
				{
					"name": "decimals",
					"type": "uint256",
					"internalType": "uint256"
				},
				{
					"name": "currency",
					"type": "uint256",
					"internalType": "uint256"
				}
			],
			"outputs": [
				{
					"name": "",
					"type": "uint256",
					"internalType": "uint256"
				}
			],
			"stateMutability": "view"
		},
		{
			"type": "function",
			"name": "currentTotalSurplusOf",
			"inputs": [
				{
					"name": "projectId",
					"type": "uint256",
					"internalType": "uint256"
				},
				{
					"name": "decimals",
					"type": "uint256",
					"internalType": "uint256"
				},
				{
					"name": "currency",
					"type": "uint256",
					"internalType": "uint256"
				}
			],
			"outputs": [
				{
					"name": "",
					"type": "uint256",
					"internalType": "uint256"
				}
			],
			"stateMutability": "view"
		},
		{
			"type": "function",
			"name": "recordAddedBalanceFor",
			"inputs": [
				{
					"name": "projectId",
					"type": "uint256",
					"internalType": "uint256"
				},
				{
					"name": "token",
					"type": "address",
					"internalType": "address"
				},
				{
					"name": "amount",
					"type": "uint256",
					"internalType": "uint256"
				}
			],
			"outputs": [],
			"stateMutability": "nonpayable"
		},
		{
			"type": "function",
			"name": "recordPaymentFrom",
			"inputs": [
				{
					"name": "payer",
					"type": "address",
					"internalType": "address"
				},
				{
					"name": "amount",
					"type": "tuple",
					"internalType": "struct JBTokenAmount",
					"components": [
						{
							"name": "token",
							"type": "address",
							"internalType": "address"
						},
						{
							"name": "decimals",
							"type": "uint8",
							"internalType": "uint8"
						},
						{
							"name": "currency",
							"type": "uint32",
							"internalType": "uint32"
						},
						{
							"name": "value",
							"type": "uint256",
							"internalType": "uint256"
						}
					]
				},
				{
					"name": "projectId",
					"type": "uint256",
					"internalType": "uint256"
				},
				{
					"name": "beneficiary",
					"type": "address",
					"internalType": "address"
				},
				{
					"name": "metadata",
					"type": "bytes",
					"internalType": "bytes"
				}
			],
			"outputs": [
				{
					"name": "ruleset",
					"type": "tuple",
					"internalType": "struct JBRuleset",
					"components": [
						{
							"name": "cycleNumber",
							"type": "uint48",
							"internalType": "uint48"
						},
						{
							"name": "id",
							"type": "uint48",
							"internalType": "uint48"
						},
						{
							"name": "basedOnId",
							"type": "uint48",
							"internalType": "uint48"
						},
						{
							"name": "start",
							"type": "uint48",
							"internalType": "uint48"
						},
						{
							"name": "duration",
							"type": "uint32",
							"internalType": "uint32"
						},
						{
							"name": "weight",
							"type": "uint112",
							"internalType": "uint112"
						},
						{
							"name": "decayPercent",
							"type": "uint32",
							"internalType": "uint32"
						},
						{
							"name": "approvalHook",
							"type": "address",
							"internalType": "contract IJBRulesetApprovalHook"
						},
						{
							"name": "metadata",
							"type": "uint256",
							"internalType": "uint256"
						}
					]
				},
				{
					"name": "tokenCount",
					"type": "uint256",
					"internalType": "uint256"
				},
				{
					"name": "hookSpecifications",
					"type": "tuple[]",
					"internalType": "struct JBPayHookSpecification[]",
					"components": [
						{
							"name": "hook",
							"type": "address",
							"internalType": "contract IJBPayHook"
						},
						{
							"name": "amount",
							"type": "uint256",
							"internalType": "uint256"
						},
						{
							"name": "metadata",
							"type": "bytes",
							"internalType": "bytes"
						}
					]
				}
			],
			"stateMutability": "nonpayable"
		},
		{
			"type": "function",
			"name": "recordPayoutFor",
			"inputs": [
				{
					"name": "projectId",
					"type": "uint256",
					"internalType": "uint256"
				},
				{
					"name": "accountingContext",
					"type": "tuple",
					"internalType": "struct JBAccountingContext",
					"components": [
						{
							"name": "token",
							"type": "address",
							"internalType": "address"
						},
						{
							"name": "decimals",
							"type": "uint8",
							"internalType": "uint8"
						},
						{
							"name": "currency",
							"type": "uint32",
							"internalType": "uint32"
						}
					]
				},
				{
					"name": "amount",
					"type": "uint256",
					"internalType": "uint256"
				},
				{
					"name": "currency",
					"type": "uint256",
					"internalType": "uint256"
				}
			],
			"outputs": [
				{
					"name": "ruleset",
					"type": "tuple",
					"internalType": "struct JBRuleset",
					"components": [
						{
							"name": "cycleNumber",
							"type": "uint48",
							"internalType": "uint48"
						},
						{
							"name": "id",
							"type": "uint48",
							"internalType": "uint48"
						},
						{
							"name": "basedOnId",
							"type": "uint48",
							"internalType": "uint48"
						},
						{
							"name": "start",
							"type": "uint48",
							"internalType": "uint48"
						},
						{
							"name": "duration",
							"type": "uint32",
							"internalType": "uint32"
						},
						{
							"name": "weight",
							"type": "uint112",
							"internalType": "uint112"
						},
						{
							"name": "decayPercent",
							"type": "uint32",
							"internalType": "uint32"
						},
						{
							"name": "approvalHook",
							"type": "address",
							"internalType": "contract IJBRulesetApprovalHook"
						},
						{
							"name": "metadata",
							"type": "uint256",
							"internalType": "uint256"
						}
					]
				},
				{
					"name": "amountPaidOut",
					"type": "uint256",
					"internalType": "uint256"
				}
			],
			"stateMutability": "nonpayable"
		},
		{
			"type": "function",
			"name": "recordRedemptionFor",
			"inputs": [
				{
					"name": "holder",
					"type": "address",
					"internalType": "address"
				},
				{
					"name": "projectId",
					"type": "uint256",
					"internalType": "uint256"
				},
				{
					"name": "redeemCount",
					"type": "uint256",
					"internalType": "uint256"
				},
				{
					"name": "accountingContext",
					"type": "tuple",
					"internalType": "struct JBAccountingContext",
					"components": [
						{
							"name": "token",
							"type": "address",
							"internalType": "address"
						},
						{
							"name": "decimals",
							"type": "uint8",
							"internalType": "uint8"
						},
						{
							"name": "currency",
							"type": "uint32",
							"internalType": "uint32"
						}
					]
				},
				{
					"name": "balanceAccountingContexts",
					"type": "tuple[]",
					"internalType": "struct JBAccountingContext[]",
					"components": [
						{
							"name": "token",
							"type": "address",
							"internalType": "address"
						},
						{
							"name": "decimals",
							"type": "uint8",
							"internalType": "uint8"
						},
						{
							"name": "currency",
							"type": "uint32",
							"internalType": "uint32"
						}
					]
				},
				{
					"name": "metadata",
					"type": "bytes",
					"internalType": "bytes"
				}
			],
			"outputs": [
				{
					"name": "ruleset",
					"type": "tuple",
					"internalType": "struct JBRuleset",
					"components": [
						{
							"name": "cycleNumber",
							"type": "uint48",
							"internalType": "uint48"
						},
						{
							"name": "id",
							"type": "uint48",
							"internalType": "uint48"
						},
						{
							"name": "basedOnId",
							"type": "uint48",
							"internalType": "uint48"
						},
						{
							"name": "start",
							"type": "uint48",
							"internalType": "uint48"
						},
						{
							"name": "duration",
							"type": "uint32",
							"internalType": "uint32"
						},
						{
							"name": "weight",
							"type": "uint112",
							"internalType": "uint112"
						},
						{
							"name": "decayPercent",
							"type": "uint32",
							"internalType": "uint32"
						},
						{
							"name": "approvalHook",
							"type": "address",
							"internalType": "contract IJBRulesetApprovalHook"
						},
						{
							"name": "metadata",
							"type": "uint256",
							"internalType": "uint256"
						}
					]
				},
				{
					"name": "reclaimAmount",
					"type": "uint256",
					"internalType": "uint256"
				},
				{
					"name": "redemptionRate",
					"type": "uint256",
					"internalType": "uint256"
				},
				{
					"name": "hookSpecifications",
					"type": "tuple[]",
					"internalType": "struct JBRedeemHookSpecification[]",
					"components": [
						{
							"name": "hook",
							"type": "address",
							"internalType": "contract IJBRedeemHook"
						},
						{
							"name": "amount",
							"type": "uint256",
							"internalType": "uint256"
						},
						{
							"name": "metadata",
							"type": "bytes",
							"internalType": "bytes"
						}
					]
				}
			],
			"stateMutability": "nonpayable"
		},
		{
			"type": "function",
			"name": "recordTerminalMigration",
			"inputs": [
				{
					"name": "projectId",
					"type": "uint256",
					"internalType": "uint256"
				},
				{
					"name": "token",
					"type": "address",
					"internalType": "address"
				}
			],
			"outputs": [
				{
					"name": "balance",
					"type": "uint256",
					"internalType": "uint256"
				}
			],
			"stateMutability": "nonpayable"
		},
		{
			"type": "function",
			"name": "recordUsedAllowanceOf",
			"inputs": [
				{
					"name": "projectId",
					"type": "uint256",
					"internalType": "uint256"
				},
				{
					"name": "accountingContext",
					"type": "tuple",
					"internalType": "struct JBAccountingContext",
					"components": [
						{
							"name": "token",
							"type": "address",
							"internalType": "address"
						},
						{
							"name": "decimals",
							"type": "uint8",
							"internalType": "uint8"
						},
						{
							"name": "currency",
							"type": "uint32",
							"internalType": "uint32"
						}
					]
				},
				{
					"name": "amount",
					"type": "uint256",
					"internalType": "uint256"
				},
				{
					"name": "currency",
					"type": "uint256",
					"internalType": "uint256"
				}
			],
			"outputs": [
				{
					"name": "ruleset",
					"type": "tuple",
					"internalType": "struct JBRuleset",
					"components": [
						{
							"name": "cycleNumber",
							"type": "uint48",
							"internalType": "uint48"
						},
						{
							"name": "id",
							"type": "uint48",
							"internalType": "uint48"
						},
						{
							"name": "basedOnId",
							"type": "uint48",
							"internalType": "uint48"
						},
						{
							"name": "start",
							"type": "uint48",
							"internalType": "uint48"
						},
						{
							"name": "duration",
							"type": "uint32",
							"internalType": "uint32"
						},
						{
							"name": "weight",
							"type": "uint112",
							"internalType": "uint112"
						},
						{
							"name": "decayPercent",
							"type": "uint32",
							"internalType": "uint32"
						},
						{
							"name": "approvalHook",
							"type": "address",
							"internalType": "contract IJBRulesetApprovalHook"
						},
						{
							"name": "metadata",
							"type": "uint256",
							"internalType": "uint256"
						}
					]
				},
				{
					"name": "usedAmount",
					"type": "uint256",
					"internalType": "uint256"
				}
			],
			"stateMutability": "nonpayable"
		},
		{
			"type": "function",
			"name": "usedPayoutLimitOf",
			"inputs": [
				{
					"name": "terminal",
					"type": "address",
					"internalType": "address"
				},
				{
					"name": "projectId",
					"type": "uint256",
					"internalType": "uint256"
				},
				{
					"name": "token",
					"type": "address",
					"internalType": "address"
				},
				{
					"name": "rulesetCycleNumber",
					"type": "uint256",
					"internalType": "uint256"
				},
				{
					"name": "currency",
					"type": "uint256",
					"internalType": "uint256"
				}
			],
			"outputs": [
				{
					"name": "",
					"type": "uint256",
					"internalType": "uint256"
				}
			],
			"stateMutability": "view"
		},
		{
			"type": "function",
			"name": "usedSurplusAllowanceOf",
			"inputs": [
				{
					"name": "terminal",
					"type": "address",
					"internalType": "address"
				},
				{
					"name": "projectId",
					"type": "uint256",
					"internalType": "uint256"
				},
				{
					"name": "token",
					"type": "address",
					"internalType": "address"
				},
				{
					"name": "rulesetId",
					"type": "uint256",
					"internalType": "uint256"
				},
				{
					"name": "currency",
					"type": "uint256",
					"internalType": "uint256"
				}
			],
			"outputs": [
				{
					"name": "",
					"type": "uint256",
					"internalType": "uint256"
				}
			],
			"stateMutability": "view"
		},
		{
			"type": "error",
			"name": "INADEQUATE_CONTROLLER_ALLOWANCE",
			"inputs": []
		},
		{
			"type": "error",
			"name": "INADEQUATE_TERMINAL_STORE_BALANCE",
			"inputs": []
		},
		{
			"type": "error",
			"name": "INSUFFICIENT_TOKENS",
			"inputs": []
		},
		{
			"type": "error",
			"name": "INVALID_AMOUNT_TO_SEND_HOOK",
			"inputs": []
		},
		{
			"type": "error",
			"name": "INVALID_RULESET",
			"inputs": []
		},
		{
			"type": "error",
			"name": "PAYOUT_LIMIT_EXCEEDED",
			"inputs": []
		},
		{
			"type": "error",
			"name": "PRBMath_MulDiv_Overflow",
			"inputs": [
				{
					"name": "x",
					"type": "uint256",
					"internalType": "uint256"
				},
				{
					"name": "y",
					"type": "uint256",
					"internalType": "uint256"
				},
				{
					"name": "denominator",
					"type": "uint256",
					"internalType": "uint256"
				}
			]
		},
		{
			"type": "error",
			"name": "RULESET_PAYMENT_PAUSED",
			"inputs": []
		},
		{
			"type": "error",
			"name": "ReentrancyGuardReentrantCall",
			"inputs": []
		},
		{
			"type": "error",
			"name": "TERMINAL_MIGRATION_NOT_ALLOWED",
			"inputs": []
		}
	],
	"solcInputHash": "b34eb54cebcd0145c48d9e3a1ef16244",
	"args": [
		"0x992f9e3a81c77Cb940A29311558343E1AC66c40F",
		"0xaE02b43798E4c23e3a6Ffe570ea1612d0e7F5069",
		"0xB989eeecf03a0e5a06099F1a381e66493bFeeDEA"
	],
	"bytecode": "0x60e06040523480156200001157600080fd5b5060405162003a5638038062003a56833981016040819052620000349162000070565b60016000556001600160a01b0392831660805290821660a0521660c052620000c4565b6001600160a01b03811681146200006d57600080fd5b50565b6000806000606084860312156200008657600080fd5b8351620000938162000057565b6020850151909350620000a68162000057565b6040850151909250620000b98162000057565b809150509250925092565b60805160a05160c0516138e4620001726000396000818161015701528181610dbd01528181611c820152818161228701526125b301526000818161031601528181610376015281816109d201528181610ad9015281816110e80152818161135d015281816114330152818161189c0152611e1501526000818161023f015281816104eb01528181610be3015281816111fb0152818161153b01528181611f5001526122e901526138e46000f3fe608060405234801561001057600080fd5b50600436106101005760003560e01c80638e86e7a411610097578063c0920f3811610066578063c0920f38146102dc578063c59dfadb146102ef578063d4a1b4b114610311578063d60d1a091461033857600080fd5b80638e86e7a4146102615780639e0a5d5914610274578063ab5f3a0114610287578063b7cc53b31461029a57600080fd5b8063467f4cb9116100d3578063467f4cb9146101b257806351fc1735146101e3578063568ecef1146101f857806388bc2ef31461023a57600080fd5b80630d346b811461010557806319781e23146101315780631eabcd341461015257806330795ef814610191575b600080fd5b61011861011336600461283a565b61034b565b6040516101289493929190612a20565b60405180910390f35b61014461013f366004612ad3565b6109af565b604051908152602001610128565b6101797f000000000000000000000000000000000000000000000000000000000000000081565b6040516001600160a01b039091168152602001610128565b6101a461019f366004612b03565b610ab1565b604051610128929190612b3f565b6101446101c0366004612b5c565b600160209081526000938452604080852082529284528284209052825290205481565b6101f66101f1366004612b9e565b611056565b005b610144610206366004612bd6565b6003602090815260009586526040808720825294865284862081529285528385208352908452828420909152825290205481565b6101797f000000000000000000000000000000000000000000000000000000000000000081565b61014461026f366004612c28565b6110c5565b610144610282366004612cbc565b611322565b610144610295366004612cee565b6113f4565b6101446102a8366004612bd6565b6002602090815260009586526040808720825294865284862081529285528385208352908452828420909152825290205481565b6101a46102ea366004612b03565b61140b565b6103026102fd366004612d1a565b611872565b60405161012893929190612dd7565b6101797f000000000000000000000000000000000000000000000000000000000000000081565b610144610346366004612e81565b611da8565b610353612699565b6000806060610360611ea1565b6040516321d1336160e11b8152600481018b90527f00000000000000000000000000000000000000000000000000000000000000006001600160a01b0316906343a266c29060240161012060405180830381865afa1580156103c6573d6000803e3d6000fd5b505050506040513d601f19601f820116820180604052508101906103ea9190612f48565b610100810151909450600090604f1c60019081161461049557610490338c8a8a808060200260200160405190810160405280939291908181526020016000905b82821015610456576104476060830286013681900381019061300a565b8152602001906001019061042a565b5050505050888d602001602081019061046f919061305c565b60ff168e60400160208101906104859190613077565b63ffffffff16611ecb565b6104c7565b6104c78b6104a960408c0160208d0161305c565b60ff166104bc60608d0160408e01613077565b63ffffffff16611f2d565b604051632eec7b5560e11b8152600481018d90529091506000906001600160a01b037f00000000000000000000000000000000000000000000000000000000000000001690635dd8f6aa90602401602060405180830381865afa158015610532573d6000803e3d6000fd5b505050506040513d601f19601f820116820180604052508101906105569190613094565b6001600160a01b0316634da781a98d6040518263ffffffff1660e01b815260040161058391815260200190565b602060405180830381865afa1580156105a0573d6000803e3d6000fd5b505050506040513d601f19601f820116820180604052508101906105c491906130b1565b9050808b11156105e657604051625c579160e91b815260040160405180910390fd5b61010086015160511c60019081161480156106195750600061060d87610100015160521c90565b6001600160a01b031614155b156107b0576000604051806101400160405280336001600160a01b031681526020018f6001600160a01b031681526020018e66ffffffffffffff168152602001886020015165ffffffffffff1681526020018d815260200183815260200160405180608001604052808e600001602081019061069591906130ca565b6001600160a01b031681526020018e60200160208101906106b6919061305c565b60ff1681526020018e60400160208101906106d19190613077565b63ffffffff1681526020018681525081526020016106fc8961010001516001604f9190911c81161490565b1515815260200161071289610100015160141c90565b61ffff168152602001899052905061072f87610100015160521c90565b6001600160a01b031663cd817cd0826040518263ffffffff1660e01b815260040161075a91906130e7565b600060405180830381865afa158015610777573d6000803e3d6000fd5b505050506040513d6000823e601f3d908101601f1916820160405261079f9190810190613225565b919e50919650945091506107c09050565b61010086015160141c61ffff1693505b81156107d5576107d2828c8387612082565b94505b825185901561082e57835160005b8181101561082b5760008682815181106107ff576107ff613345565b6020026020010151602001519050806000146108225761081f8185613371565b93505b506001016107e3565b50505b60016000336001600160a01b03166001600160a01b0316815260200190815260200160002060008e815260200190815260200160002060008c600001602081019061087991906130ca565b6001600160a01b03166001600160a01b03168152602001908152602001600020548111156108ba57604051630a9128e560e21b815260040160405180910390fd5b8015610994578060016000336001600160a01b03166001600160a01b0316815260200190815260200160002060008f815260200190815260200160002060008d600001602081019061090c91906130ca565b6001600160a01b03166001600160a01b03168152602001908152602001600020540360016000336001600160a01b03166001600160a01b0316815260200190815260200160002060008f815260200190815260200160002060008d600001602081019061097991906130ca565b6001600160a01b031681526020810191909152604001600020555b5050506109a16001600055565b975097509750979350505050565b60006109b9611ea1565b6040516321d1336160e11b8152600481018490526000907f00000000000000000000000000000000000000000000000000000000000000006001600160a01b0316906343a266c29060240161012060405180830381865afa158015610a22573d6000803e3d6000fd5b505050506040513d601f19601f82011682018060405250810190610a469190612f48565b61010081015190915060481c600190811614610a75576040516383455bbb60e01b815260040160405180910390fd5b505033600090815260016020818152604080842086855282528084206001600160a01b0386168552909152822080549083905591555b92915050565b610ab9612699565b6000610ac3611ea1565b6040516321d1336160e11b8152600481018790527f00000000000000000000000000000000000000000000000000000000000000006001600160a01b0316906343a266c29060240161012060405180830381865afa158015610b29573d6000803e3d6000fd5b505050506040513d601f19601f82011682018060405250810190610b4d9190612f48565b3360009081526003602090815260408083208a845282528220929450909186918390610b7b908a018a6130ca565b6001600160a01b03168152602080820192909252604090810160009081208784015165ffffffffffff1682528352818120888252909252902054610bbf9190613371565b604051632eec7b5560e11b8152600481018990529091506000906001600160a01b037f00000000000000000000000000000000000000000000000000000000000000001690635dd8f6aa90602401602060405180830381865afa158015610c2a573d6000803e3d6000fd5b505050506040513d601f19601f82011682018060405250810190610c4e9190613094565b6001600160a01b031663ffa082446040518163ffffffff1660e01b8152600401602060405180830381865afa158015610c8b573d6000803e3d6000fd5b505050506040513d601f19601f82011682018060405250810190610caf9190613094565b6001600160a01b03166329ed16cd898660200151338b6000016020810190610cd791906130ca565b6040516001600160e01b031960e087901b168152600481019490945265ffffffffffff90921660248401526001600160a01b0390811660448401521660648201526084810188905260a401602060405180830381865afa158015610d3f573d6000803e3d6000fd5b505050506040513d601f19601f82011682018060405250810190610d6391906130b1565b905080821180610d71575080155b15610d8f57604051635b76558960e11b815260040160405180910390fd5b610d9f6060880160408901613077565b63ffffffff168514610e8457610e7f86610dbb6012600a613468565b7f00000000000000000000000000000000000000000000000000000000000000006001600160a01b0316633be273fa8c8a8d6040016020810190610dff9190613077565b6040516001600160e01b031960e086901b1681526004810193909352602483019190915263ffffffff166044820152601260648201526084015b602060405180830381865afa158015610e56573d6000803e3d6000fd5b505050506040513d601f19601f82011682018060405250810190610e7a91906130b1565b6120f5565b610e86565b855b60408051600180825281830190925291945060009190816020015b6040805160608101825260008082526020808301829052928201528252600019909201910181610ea1579050509050610edf3689900389018961300a565b81600081518110610ef257610ef2613345565b6020026020010181905250610f2d338a83888c6020016020810190610f17919061305c565b60ff168d60400160208101906104859190613077565b841115610f4d57604051630a9128e560e21b815260040160405180910390fd5b3360009081526003602090815260408083208c84528252822085929091610f76908c018c6130ca565b6001600160a01b03168152602080820192909252604090810160009081208984015165ffffffffffff16825283528181208a8252835281812093909355338352600182528083208c84528252822086929091610fd4908c018c6130ca565b6001600160a01b03166001600160a01b0316815260200190815260200160002054610fff9190613474565b3360009081526001602090815260408083208d8452825282209190611026908c018c6130ca565b6001600160a01b031681526020810191909152604001600020555061104d91506120ee9050565b94509492505050565b33600090815260016020908152604080832086845282528083206001600160a01b038616845290915290205461108d908290613371565b3360009081526001602090815260408083209683529581528582206001600160a01b0395909516825293909352929091209190915550565b6040516321d1336160e11b81526004810188905260009081906001600160a01b037f000000000000000000000000000000000000000000000000000000000000000016906343a266c29060240161012060405180830381865afa158015611130573d6000803e3d6000fd5b505050506040513d601f19601f820116820180604052508101906111549190612f48565b90506000836111c2576111bd8b8b8b8b808060200260200160405190810160405280939291908181526020016000905b828210156111b0576111a16060830286013681900381019061300a565b81526020019060010190611184565b5050505050858b8b611ecb565b6111cd565b6111cd8a8888611f2d565b9050806000036111e257600092505050611316565b604051632eec7b5560e11b8152600481018b90526000907f00000000000000000000000000000000000000000000000000000000000000006001600160a01b031690635dd8f6aa90602401602060405180830381865afa15801561124a573d6000803e3d6000fd5b505050506040513d601f19601f8201168201806040525081019061126e9190613094565b6001600160a01b0316634da781a98c6040518263ffffffff1660e01b815260040161129b91815260200190565b602060405180830381865afa1580156112b8573d6000803e3d6000fd5b505050506040513d601f19601f820116820180604052508101906112dc91906130b1565b9050808611156112f25760009350505050611316565b61131082878361130787610100015160141c90565b61ffff16612082565b93505050505b98975050505050505050565b600081600003611334575060006113ec565b82841115611344575060006113ec565b6040516321d1336160e11b8152600481018690526000907f00000000000000000000000000000000000000000000000000000000000000006001600160a01b0316906343a266c29060240161012060405180830381865afa1580156113ad573d6000803e3d6000fd5b505050506040513d601f19601f820116820180604052508101906113d19190612f48565b90506113e883868661130785610100015160141c90565b9150505b949350505050565b6000611401848484611f2d565b90505b9392505050565b611413612699565b600061141d611ea1565b6040516321d1336160e11b8152600481018790527f00000000000000000000000000000000000000000000000000000000000000006001600160a01b0316906343a266c29060240161012060405180830381865afa158015611483573d6000803e3d6000fd5b505050506040513d601f19601f820116820180604052508101906114a79190612f48565b3360009081526002602090815260408083208a8452825282209294509091869183906114d5908a018a6130ca565b6001600160a01b0316815260208082019290925260409081016000908120875165ffffffffffff16825283528181208882529092529020546115179190613371565b604051632eec7b5560e11b8152600481018990529091506000906001600160a01b037f00000000000000000000000000000000000000000000000000000000000000001690635dd8f6aa90602401602060405180830381865afa158015611582573d6000803e3d6000fd5b505050506040513d601f19601f820116820180604052508101906115a69190613094565b6001600160a01b031663ffa082446040518163ffffffff1660e01b8152600401602060405180830381865afa1580156115e3573d6000803e3d6000fd5b505050506040513d601f19601f820116820180604052508101906116079190613094565b6001600160a01b0316638ca53ccd898660200151338b600001602081019061162f91906130ca565b6040516001600160e01b031960e087901b168152600481019490945265ffffffffffff90921660248401526001600160a01b0390811660448401521660648201526084810188905260a401602060405180830381865afa158015611697573d6000803e3d6000fd5b505050506040513d601f19601f820116820180604052508101906116bb91906130b1565b9050808211806116c9575080155b156116e757604051630f2114d360e11b815260040160405180910390fd5b6116f76060880160408901613077565b63ffffffff1685146117185761171386610dbb6012600a613468565b61171a565b855b3360009081526001602090815260408083208c845282528220929550611742908a018a6130ca565b6001600160a01b03166001600160a01b031681526020019081526020016000205483111561178357604051630a9128e560e21b815260040160405180910390fd5b3360009081526002602090815260408083208b845282528220849290916117ac908b018b6130ca565b6001600160a01b0316815260208082019290925260409081016000908120885165ffffffffffff1682528352818120898252835281812093909355338352600182528083208b84528252822085929091611808908b018b6130ca565b6001600160a01b031681526020808201929092526040908101600090812054338252600184528282208d8352845291812093909103929161184b908b018b6130ca565b6001600160a01b031681526020810191909152604001600020555061104d90506001600055565b61187a612699565b60006060611886611ea1565b6040516321d1336160e11b8152600481018890527f00000000000000000000000000000000000000000000000000000000000000006001600160a01b0316906343a266c29060240161012060405180830381865afa1580156118ec573d6000803e3d6000fd5b505050506040513d601f19601f820116820180604052508101906119109190612f48565b805190935065ffffffffffff1660000361193d57604051631bcf786760e11b815260040160405180910390fd5b61010083015160441c600190811603611969576040516358c8f01960e11b815260040160405180910390fd5b61010083015160009060501c600190811614801561199f5750600061199385610100015160521c90565b6001600160a01b031614155b15611af95760408051610120810182523381526001600160a01b038c16602082015260009181016119d5368d90038d018d613487565b81526020018a66ffffffffffffff168152602001866020015165ffffffffffff168152602001896001600160a01b031681526020018660a001516001600160701b03168152602001611a2c87610100015160041c90565b61ffff16815260200188888080601f01602080910402602001604051908101604052809392919081815260200183838082843760009201919091525050509152509050611a7e85610100015160521c90565b6001600160a01b0316638cc35846826040518263ffffffff1660e01b8152600401611aa99190613502565b600060405180830381865afa158015611ac6573d6000803e3d6000fd5b505050506040513d6000823e601f3d908101601f19168201604052611aee91908101906135e0565b93509150611b099050565b5060a08301516001600160701b03165b815160608a0135908015611b855760005b81811015611b83576000858281518110611b3657611b36613345565b602002602001015160200151905080600014611b7a5783811115611b6d5760405163cd40dac160e01b815260040160405180910390fd5b611b778185613474565b93505b50600101611b1a565b505b508960600135600003611b9e575060009250611d929050565b8015611c3a573360009081526001602090815260408083208c84528252822083929091611bcd908e018e6130ca565b6001600160a01b03166001600160a01b0316815260200190815260200160002054611bf89190613371565b3360009081526001602090815260408083208d8452825282209190611c1f908e018e6130ca565b6001600160a01b031681526020810191909152604001600020555b81600003611c4e575060009250611d929050565b6000611c5f86610100015160241c90565b63ffffffff16611c7560608d0160408e01613077565b63ffffffff1614611d60577f00000000000000000000000000000000000000000000000000000000000000006001600160a01b0316633be273fa8b8d6040016020810190611cc39190613077565b6101008a015160241c8f6020016020810190611cdf919061305c565b6040516001600160e01b031960e087901b168152600481019490945263ffffffff92831660248501529116604483015260ff166064820152608401602060405180830381865afa158015611d37573d6000803e3d6000fd5b505050506040513d601f19601f82011682018060405250810190611d5b91906130b1565b611d7b565b611d7060408c0160208d0161305c565b611d7b90600a6136ed565b9050611d8c8b6060013584836120f5565b94505050505b611d9c6001600055565b96509650969350505050565b6000611e9487878787808060200260200160405190810160405280939291908181526020016000905b82821015611dfd57611dee6060830286013681900381019061300a565b81526020019060010190611dd1565b50506040516321d1336160e11b8152600481018e90527f00000000000000000000000000000000000000000000000000000000000000006001600160a01b031693506343a266c29250602401905061012060405180830381865afa158015611e69573d6000803e3d6000fd5b505050506040513d601f19601f82011682018060405250810190611e8d9190612f48565b8787611ecb565b90505b9695505050505050565b600260005403611ec457604051633ee5aeb560e01b815260040160405180910390fd5b6002600055565b8351600090815b81811015611f21576000611f038a8a8a8581518110611ef357611ef3613345565b60200260200101518a8a8a6121cd565b90508015611f1857611f158185613371565b93505b50600101611ed2565b50509695505050505050565b60405163d175415360e01b81526004810184905260009081906001600160a01b037f0000000000000000000000000000000000000000000000000000000000000000169063d175415390602401600060405180830381865afa158015611f97573d6000803e3d6000fd5b505050506040513d6000823e601f3d908101601f19168201604052611fbf91908101906136fc565b805190915060005b8181101561207857828181518110611fe157611fe1613345565b602090810291909101015160405163cc68012760e01b81526004810189905260248101889052604481018790526001600160a01b039091169063cc68012790606401602060405180830381865afa158015612040573d6000803e3d6000fd5b505050506040513d601f19601f8201168201806040525081019061206491906130b1565b61206e9085613371565b9350600101611fc7565b5050509392505050565b600081600003612094575060006113ec565b8284036120a25750836113ec565b60006120af8686866120f5565b905061270f1983016120c25790506113ec565b6113e8816120dc876120d687612710613474565b886120f5565b6120e69086613371565b6127106120f5565b6001600055565b600080806000198587098587029250828110838203039150508060000361212f5783828161212557612125613795565b0492505050611404565b83811061216457604051630c740aef60e31b815260048101879052602481018690526044810185905260640160405180910390fd5b60008486880960026001871981018816978890046003810283188082028403028082028403028082028403028082028403028082028403029081029092039091026000889003889004909101858311909403939093029303949094049190911702949350505050565b6001600160a01b038087166000908152600160209081526040808320898452825280832088519094168352928152919020549085015160ff1683146122235761221e81866020015160ff168561263c565b612225565b805b905080158061223d575081856040015163ffffffff16145b6122c3576122be816122516012600a613468565b6040888101519051631df139fd60e11b8152600481018b905263ffffffff909116602482015260448101869052601260648201527f00000000000000000000000000000000000000000000000000000000000000006001600160a01b031690633be273fa90608401610e39565b6122c5565b805b604051632eec7b5560e11b8152600481018890529091506000906001600160a01b037f00000000000000000000000000000000000000000000000000000000000000001690635dd8f6aa90602401602060405180830381865afa158015612330573d6000803e3d6000fd5b505050506040513d601f19601f820116820180604052508101906123549190613094565b6001600160a01b031663ffa082446040518163ffffffff1660e01b8152600401602060405180830381865afa158015612391573d6000803e3d6000fd5b505050506040513d601f19601f820116820180604052508101906123b59190613094565b60208601518751604051634c8cafef60e11b8152600481018b905265ffffffffffff90921660248301526001600160a01b038b81166044840152908116606483015291909116906399195fde90608401600060405180830381865afa158015612422573d6000803e3d6000fd5b505050506040513d6000823e601f3d908101601f1916820160405261244a91908101906137ab565b6040805180820190915260008082526020820152909150815160005b8181101561262e5783818151811061248057612480613345565b6020908102919091018101516001600160a01b03808e1660009081526002845260408082208f835285528082208e5190931682529184528181208c5165ffffffffffff16825284528181208385015163ffffffff1682529093529091205481519194506124f5916001600160e01b0316613474565b6001600160e01b03168352602089015160ff1687146125325761252d83600001516001600160e01b03168a6020015160ff168961263c565b612535565b82515b6001600160e01b03168084521580612556575085836020015163ffffffff16145b6125e75782516125e2906001600160e01b03166125756012600a613468565b6020860151604051631df139fd60e11b8152600481018f905263ffffffff9091166024820152604481018a9052601260648201526001600160a01b037f00000000000000000000000000000000000000000000000000000000000000001690633be273fa90608401610e39565b6125ea565b82515b6001600160e01b0316808452851115612619578251612612906001600160e01b031686613474565b9450612626565b6000945050505050611e97565b600101612466565b505050509695505050505050565b600082820361264c575082611404565b8282111561267a5761265e8383613474565b61266990600a613468565b6126739085613875565b9050611404565b6126848284613474565b61268f90600a613468565b612673908561388c565b6040805161012081018252600080825260208201819052918101829052606081018290526080810182905260a0810182905260c0810182905260e0810182905261010081019190915290565b6001600160a01b03811681146126fa57600080fd5b50565b60006060828403121561270f57600080fd5b50919050565b60008083601f84011261272757600080fd5b5081356001600160401b0381111561273e57600080fd5b60208301915083602060608302850101111561275957600080fd5b9250929050565b634e487b7160e01b600052604160045260246000fd5b60405161012081016001600160401b038111828210171561279957612799612760565b60405290565b604051606081016001600160401b038111828210171561279957612799612760565b604080519081016001600160401b038111828210171561279957612799612760565b604051601f8201601f191681016001600160401b038111828210171561280b5761280b612760565b604052919050565b60006001600160401b0382111561282c5761282c612760565b50601f01601f191660200190565b6000806000806000806000610100888a03121561285657600080fd5b8735612861816126e5565b9650602088013595506040880135945061287e8960608a016126fd565b935060c08801356001600160401b038082111561289a57600080fd5b6128a68b838c01612715565b909550935060e08a01359150808211156128bf57600080fd5b508801601f81018a136128d157600080fd5b80356128e46128df82612813565b6127e3565b8181528b60208385010111156128f957600080fd5b8160208401602083013760006020838301015280935050505092959891949750929550565b65ffffffffffff80825116835280602083015116602084015280604083015116604084015250606081015161295d606084018265ffffffffffff169052565b506080810151612975608084018263ffffffff169052565b5060a081015161299060a08401826001600160701b03169052565b5060c08101516129a860c084018263ffffffff169052565b5060e08101516129c360e08401826001600160a01b03169052565b5061010090810151910152565b60005b838110156129eb5781810151838201526020016129d3565b50506000910152565b60008151808452612a0c8160208601602086016129d0565b601f01601f19169290920160200192915050565b6000610180808301612a32848961291e565b86610120850152856101408501528161016085015280915084518082526101a091508185019250818160051b8601019150602080870160005b83811015612ac35787850361019f19018652815180516001600160a01b031686528381015184870152604090810151606091870182905290612aaf818801836129f4565b978501979650505090820190600101612a6b565b50929a9950505050505050505050565b60008060408385031215612ae657600080fd5b823591506020830135612af8816126e5565b809150509250929050565b60008060008060c08587031215612b1957600080fd5b84359350612b2a86602087016126fd565b939693955050505060808201359160a0013590565b6101408101612b4e828561291e565b826101208301529392505050565b600080600060608486031215612b7157600080fd5b8335612b7c816126e5565b9250602084013591506040840135612b93816126e5565b809150509250925092565b600080600060608486031215612bb357600080fd5b833592506020840135612bc5816126e5565b929592945050506040919091013590565b600080600080600060a08688031215612bee57600080fd5b8535612bf9816126e5565b9450602086013593506040860135612c10816126e5565b94979396509394606081013594506080013592915050565b60008060008060008060008060e0898b031215612c4457600080fd5b8835612c4f816126e5565b97506020890135965060408901356001600160401b03811115612c7157600080fd5b612c7d8b828c01612715565b909750955050606089013593506080890135925060a0890135915060c08901358015158114612cab57600080fd5b809150509295985092959890939650565b60008060008060808587031215612cd257600080fd5b5050823594602084013594506040840135936060013592509050565b600080600060608486031215612d0357600080fd5b505081359360208301359350604090920135919050565b600080600080600080868803610100811215612d3557600080fd5b8735612d40816126e5565b96506080601f1982011215612d5457600080fd5b5060208701945060a0870135935060c0870135612d70816126e5565b925060e08701356001600160401b0380821115612d8c57600080fd5b818901915089601f830112612da057600080fd5b813581811115612daf57600080fd5b8a6020828501011115612dc157600080fd5b6020830194508093505050509295509295509295565b6000610160808301612de9848861291e565b610120840186905261014084019190915283519081905261018080840191600581901b850190910190602080870160005b83811015612e725787850361017f19018652815180516001600160a01b031686528381015184870152604090810151606091870182905290612e5e818801836129f4565b978501979650505090820190600101612e1a565b50929998505050505050505050565b60008060008060008060a08789031215612e9a57600080fd5b8635612ea5816126e5565b95506020870135945060408701356001600160401b03811115612ec757600080fd5b612ed389828a01612715565b979a9699509760608101359660809091013595509350505050565b805165ffffffffffff81168114612f0457600080fd5b919050565b63ffffffff811681146126fa57600080fd5b8051612f0481612f09565b80516001600160701b0381168114612f0457600080fd5b8051612f04816126e5565b60006101208284031215612f5b57600080fd5b612f63612776565b612f6c83612eee565b8152612f7a60208401612eee565b6020820152612f8b60408401612eee565b6040820152612f9c60608401612eee565b6060820152612fad60808401612f1b565b6080820152612fbe60a08401612f26565b60a0820152612fcf60c08401612f1b565b60c0820152612fe060e08401612f3d565b60e0820152610100928301519281019290925250919050565b803560ff81168114612f0457600080fd5b60006060828403121561301c57600080fd5b61302461279f565b823561302f816126e5565b815261303d60208401612ff9565b6020820152604083013561305081612f09565b60408201529392505050565b60006020828403121561306e57600080fd5b61140482612ff9565b60006020828403121561308957600080fd5b813561140481612f09565b6000602082840312156130a657600080fd5b8151611404816126e5565b6000602082840312156130c357600080fd5b5051919050565b6000602082840312156130dc57600080fd5b8135611404816126e5565b602081526131016020820183516001600160a01b03169052565b6000602083015161311d60408401826001600160a01b03169052565b506040830151606083015260608301516080830152608083015160a083015260a083015160c083015260c083015161318860e084018280516001600160a01b0316825260208082015160ff169083015260408082015163ffffffff1690830152606090810151910152565b5060e083015115156101608301526101008301516101808301526101208301516101a0808401526113ec6101c08401826129f4565b60006001600160401b038211156131d6576131d6612760565b5060051b60200190565b600082601f8301126131f157600080fd5b81516131ff6128df82612813565b81815284602083860101111561321457600080fd5b6113ec8260208301602087016129d0565b6000806000806080858703121561323b57600080fd5b84519350602085015192506040850151915060608501516001600160401b038082111561326757600080fd5b818701915087601f83011261327b57600080fd5b81516132896128df826131bd565b8082825260208201915060208360051b86010192508a8311156132ab57600080fd5b602085015b83811015613335578051858111156132c757600080fd5b86016060818e03601f190112156132dd57600080fd5b6132e561279f565b60208201516132f3816126e5565b81526040820151602082015260608201518781111561331157600080fd5b6133208f6020838601016131e0565b604083015250845250602092830192016132b0565b50979a9699509497505050505050565b634e487b7160e01b600052603260045260246000fd5b634e487b7160e01b600052601160045260246000fd5b80820180821115610aab57610aab61335b565b600181815b808511156133bf5781600019048211156133a5576133a561335b565b808516156133b257918102915b93841c9390800290613389565b509250929050565b6000826133d657506001610aab565b816133e357506000610aab565b81600181146133f957600281146134035761341f565b6001915050610aab565b60ff8411156134145761341461335b565b50506001821b610aab565b5060208310610133831016604e8410600b8410161715613442575081810a610aab565b61344c8383613384565b80600019048211156134605761346061335b565b029392505050565b600061140483836133c7565b81810381811115610aab57610aab61335b565b60006080828403121561349957600080fd5b604051608081018181106001600160401b03821117156134bb576134bb612760565b60405282356134c9816126e5565b81526134d760208401612ff9565b602082015260408301356134ea81612f09565b60408201526060928301359281019290925250919050565b6020815261351c6020820183516001600160a01b03169052565b6000602083015161353860408401826001600160a01b03169052565b50604083015161357b606084018280516001600160a01b0316825260208082015160ff169083015260408082015163ffffffff1690830152606090810151910152565b50606083015160e08301526080830151610100818185015260a085015191506135b06101208501836001600160a01b03169052565b60c085015161014085015260e08501516101608501528401516101808085015290506113ec6101a08401826129f4565b600080604083850312156135f357600080fd5b825191506020808401516001600160401b038082111561361257600080fd5b818601915086601f83011261362657600080fd5b81516136346128df826131bd565b81815260059190911b8301840190848101908983111561365357600080fd5b8585015b838110156136dc5780518581111561366f5760008081fd5b86016060818d03601f19018113156136875760008081fd5b61368f61279f565b8983015161369c816126e5565b815260408301518a8201529082015190878211156136ba5760008081fd5b6136c88e8b848601016131e0565b604082015285525050918601918601613657565b508096505050505050509250929050565b600061140460ff8416836133c7565b6000602080838503121561370f57600080fd5b82516001600160401b0381111561372557600080fd5b8301601f8101851361373657600080fd5b80516137446128df826131bd565b81815260059190911b8201830190838101908783111561376357600080fd5b928401925b8284101561378a57835161377b816126e5565b82529284019290840190613768565b979650505050505050565b634e487b7160e01b600052601260045260246000fd5b600060208083850312156137be57600080fd5b82516001600160401b038111156137d457600080fd5b8301601f810185136137e557600080fd5b80516137f36128df826131bd565b81815260069190911b8201830190838101908783111561381257600080fd5b928401925b8284101561378a57604084890312156138305760008081fd5b6138386127c1565b84516001600160e01b03811681146138505760008081fd5b81528486015161385f81612f09565b8187015282526040939093019290840190613817565b8082028115828204841417610aab57610aab61335b565b6000826138a957634e487b7160e01b600052601260045260246000fd5b50049056fea2646970667358221220931a8e98bfcaef0f2a16cdf16966c06ac762efd930a0d2da31eb7e35ad65c38464736f6c63430008170033",
	"deployedBytecode": "0x608060405234801561001057600080fd5b50600436106101005760003560e01c80638e86e7a411610097578063c0920f3811610066578063c0920f38146102dc578063c59dfadb146102ef578063d4a1b4b114610311578063d60d1a091461033857600080fd5b80638e86e7a4146102615780639e0a5d5914610274578063ab5f3a0114610287578063b7cc53b31461029a57600080fd5b8063467f4cb9116100d3578063467f4cb9146101b257806351fc1735146101e3578063568ecef1146101f857806388bc2ef31461023a57600080fd5b80630d346b811461010557806319781e23146101315780631eabcd341461015257806330795ef814610191575b600080fd5b61011861011336600461283a565b61034b565b6040516101289493929190612a20565b60405180910390f35b61014461013f366004612ad3565b6109af565b604051908152602001610128565b6101797f000000000000000000000000b989eeecf03a0e5a06099f1a381e66493bfeedea81565b6040516001600160a01b039091168152602001610128565b6101a461019f366004612b03565b610ab1565b604051610128929190612b3f565b6101446101c0366004612b5c565b600160209081526000938452604080852082529284528284209052825290205481565b6101f66101f1366004612b9e565b611056565b005b610144610206366004612bd6565b6003602090815260009586526040808720825294865284862081529285528385208352908452828420909152825290205481565b6101797f000000000000000000000000992f9e3a81c77cb940a29311558343e1ac66c40f81565b61014461026f366004612c28565b6110c5565b610144610282366004612cbc565b611322565b610144610295366004612cee565b6113f4565b6101446102a8366004612bd6565b6002602090815260009586526040808720825294865284862081529285528385208352908452828420909152825290205481565b6101a46102ea366004612b03565b61140b565b6103026102fd366004612d1a565b611872565b60405161012893929190612dd7565b6101797f000000000000000000000000ae02b43798e4c23e3a6ffe570ea1612d0e7f506981565b610144610346366004612e81565b611da8565b610353612699565b6000806060610360611ea1565b6040516321d1336160e11b8152600481018b90527f000000000000000000000000ae02b43798e4c23e3a6ffe570ea1612d0e7f50696001600160a01b0316906343a266c29060240161012060405180830381865afa1580156103c6573d6000803e3d6000fd5b505050506040513d601f19601f820116820180604052508101906103ea9190612f48565b610100810151909450600090604f1c60019081161461049557610490338c8a8a808060200260200160405190810160405280939291908181526020016000905b82821015610456576104476060830286013681900381019061300a565b8152602001906001019061042a565b5050505050888d602001602081019061046f919061305c565b60ff168e60400160208101906104859190613077565b63ffffffff16611ecb565b6104c7565b6104c78b6104a960408c0160208d0161305c565b60ff166104bc60608d0160408e01613077565b63ffffffff16611f2d565b604051632eec7b5560e11b8152600481018d90529091506000906001600160a01b037f000000000000000000000000992f9e3a81c77cb940a29311558343e1ac66c40f1690635dd8f6aa90602401602060405180830381865afa158015610532573d6000803e3d6000fd5b505050506040513d601f19601f820116820180604052508101906105569190613094565b6001600160a01b0316634da781a98d6040518263ffffffff1660e01b815260040161058391815260200190565b602060405180830381865afa1580156105a0573d6000803e3d6000fd5b505050506040513d601f19601f820116820180604052508101906105c491906130b1565b9050808b11156105e657604051625c579160e91b815260040160405180910390fd5b61010086015160511c60019081161480156106195750600061060d87610100015160521c90565b6001600160a01b031614155b156107b0576000604051806101400160405280336001600160a01b031681526020018f6001600160a01b031681526020018e66ffffffffffffff168152602001886020015165ffffffffffff1681526020018d815260200183815260200160405180608001604052808e600001602081019061069591906130ca565b6001600160a01b031681526020018e60200160208101906106b6919061305c565b60ff1681526020018e60400160208101906106d19190613077565b63ffffffff1681526020018681525081526020016106fc8961010001516001604f9190911c81161490565b1515815260200161071289610100015160141c90565b61ffff168152602001899052905061072f87610100015160521c90565b6001600160a01b031663cd817cd0826040518263ffffffff1660e01b815260040161075a91906130e7565b600060405180830381865afa158015610777573d6000803e3d6000fd5b505050506040513d6000823e601f3d908101601f1916820160405261079f9190810190613225565b919e50919650945091506107c09050565b61010086015160141c61ffff1693505b81156107d5576107d2828c8387612082565b94505b825185901561082e57835160005b8181101561082b5760008682815181106107ff576107ff613345565b6020026020010151602001519050806000146108225761081f8185613371565b93505b506001016107e3565b50505b60016000336001600160a01b03166001600160a01b0316815260200190815260200160002060008e815260200190815260200160002060008c600001602081019061087991906130ca565b6001600160a01b03166001600160a01b03168152602001908152602001600020548111156108ba57604051630a9128e560e21b815260040160405180910390fd5b8015610994578060016000336001600160a01b03166001600160a01b0316815260200190815260200160002060008f815260200190815260200160002060008d600001602081019061090c91906130ca565b6001600160a01b03166001600160a01b03168152602001908152602001600020540360016000336001600160a01b03166001600160a01b0316815260200190815260200160002060008f815260200190815260200160002060008d600001602081019061097991906130ca565b6001600160a01b031681526020810191909152604001600020555b5050506109a16001600055565b975097509750979350505050565b60006109b9611ea1565b6040516321d1336160e11b8152600481018490526000907f000000000000000000000000ae02b43798e4c23e3a6ffe570ea1612d0e7f50696001600160a01b0316906343a266c29060240161012060405180830381865afa158015610a22573d6000803e3d6000fd5b505050506040513d601f19601f82011682018060405250810190610a469190612f48565b61010081015190915060481c600190811614610a75576040516383455bbb60e01b815260040160405180910390fd5b505033600090815260016020818152604080842086855282528084206001600160a01b0386168552909152822080549083905591555b92915050565b610ab9612699565b6000610ac3611ea1565b6040516321d1336160e11b8152600481018790527f000000000000000000000000ae02b43798e4c23e3a6ffe570ea1612d0e7f50696001600160a01b0316906343a266c29060240161012060405180830381865afa158015610b29573d6000803e3d6000fd5b505050506040513d601f19601f82011682018060405250810190610b4d9190612f48565b3360009081526003602090815260408083208a845282528220929450909186918390610b7b908a018a6130ca565b6001600160a01b03168152602080820192909252604090810160009081208784015165ffffffffffff1682528352818120888252909252902054610bbf9190613371565b604051632eec7b5560e11b8152600481018990529091506000906001600160a01b037f000000000000000000000000992f9e3a81c77cb940a29311558343e1ac66c40f1690635dd8f6aa90602401602060405180830381865afa158015610c2a573d6000803e3d6000fd5b505050506040513d601f19601f82011682018060405250810190610c4e9190613094565b6001600160a01b031663ffa082446040518163ffffffff1660e01b8152600401602060405180830381865afa158015610c8b573d6000803e3d6000fd5b505050506040513d601f19601f82011682018060405250810190610caf9190613094565b6001600160a01b03166329ed16cd898660200151338b6000016020810190610cd791906130ca565b6040516001600160e01b031960e087901b168152600481019490945265ffffffffffff90921660248401526001600160a01b0390811660448401521660648201526084810188905260a401602060405180830381865afa158015610d3f573d6000803e3d6000fd5b505050506040513d601f19601f82011682018060405250810190610d6391906130b1565b905080821180610d71575080155b15610d8f57604051635b76558960e11b815260040160405180910390fd5b610d9f6060880160408901613077565b63ffffffff168514610e8457610e7f86610dbb6012600a613468565b7f000000000000000000000000b989eeecf03a0e5a06099f1a381e66493bfeedea6001600160a01b0316633be273fa8c8a8d6040016020810190610dff9190613077565b6040516001600160e01b031960e086901b1681526004810193909352602483019190915263ffffffff166044820152601260648201526084015b602060405180830381865afa158015610e56573d6000803e3d6000fd5b505050506040513d601f19601f82011682018060405250810190610e7a91906130b1565b6120f5565b610e86565b855b60408051600180825281830190925291945060009190816020015b6040805160608101825260008082526020808301829052928201528252600019909201910181610ea1579050509050610edf3689900389018961300a565b81600081518110610ef257610ef2613345565b6020026020010181905250610f2d338a83888c6020016020810190610f17919061305c565b60ff168d60400160208101906104859190613077565b841115610f4d57604051630a9128e560e21b815260040160405180910390fd5b3360009081526003602090815260408083208c84528252822085929091610f76908c018c6130ca565b6001600160a01b03168152602080820192909252604090810160009081208984015165ffffffffffff16825283528181208a8252835281812093909355338352600182528083208c84528252822086929091610fd4908c018c6130ca565b6001600160a01b03166001600160a01b0316815260200190815260200160002054610fff9190613474565b3360009081526001602090815260408083208d8452825282209190611026908c018c6130ca565b6001600160a01b031681526020810191909152604001600020555061104d91506120ee9050565b94509492505050565b33600090815260016020908152604080832086845282528083206001600160a01b038616845290915290205461108d908290613371565b3360009081526001602090815260408083209683529581528582206001600160a01b0395909516825293909352929091209190915550565b6040516321d1336160e11b81526004810188905260009081906001600160a01b037f000000000000000000000000ae02b43798e4c23e3a6ffe570ea1612d0e7f506916906343a266c29060240161012060405180830381865afa158015611130573d6000803e3d6000fd5b505050506040513d601f19601f820116820180604052508101906111549190612f48565b90506000836111c2576111bd8b8b8b8b808060200260200160405190810160405280939291908181526020016000905b828210156111b0576111a16060830286013681900381019061300a565b81526020019060010190611184565b5050505050858b8b611ecb565b6111cd565b6111cd8a8888611f2d565b9050806000036111e257600092505050611316565b604051632eec7b5560e11b8152600481018b90526000907f000000000000000000000000992f9e3a81c77cb940a29311558343e1ac66c40f6001600160a01b031690635dd8f6aa90602401602060405180830381865afa15801561124a573d6000803e3d6000fd5b505050506040513d601f19601f8201168201806040525081019061126e9190613094565b6001600160a01b0316634da781a98c6040518263ffffffff1660e01b815260040161129b91815260200190565b602060405180830381865afa1580156112b8573d6000803e3d6000fd5b505050506040513d601f19601f820116820180604052508101906112dc91906130b1565b9050808611156112f25760009350505050611316565b61131082878361130787610100015160141c90565b61ffff16612082565b93505050505b98975050505050505050565b600081600003611334575060006113ec565b82841115611344575060006113ec565b6040516321d1336160e11b8152600481018690526000907f000000000000000000000000ae02b43798e4c23e3a6ffe570ea1612d0e7f50696001600160a01b0316906343a266c29060240161012060405180830381865afa1580156113ad573d6000803e3d6000fd5b505050506040513d601f19601f820116820180604052508101906113d19190612f48565b90506113e883868661130785610100015160141c90565b9150505b949350505050565b6000611401848484611f2d565b90505b9392505050565b611413612699565b600061141d611ea1565b6040516321d1336160e11b8152600481018790527f000000000000000000000000ae02b43798e4c23e3a6ffe570ea1612d0e7f50696001600160a01b0316906343a266c29060240161012060405180830381865afa158015611483573d6000803e3d6000fd5b505050506040513d601f19601f820116820180604052508101906114a79190612f48565b3360009081526002602090815260408083208a8452825282209294509091869183906114d5908a018a6130ca565b6001600160a01b0316815260208082019290925260409081016000908120875165ffffffffffff16825283528181208882529092529020546115179190613371565b604051632eec7b5560e11b8152600481018990529091506000906001600160a01b037f000000000000000000000000992f9e3a81c77cb940a29311558343e1ac66c40f1690635dd8f6aa90602401602060405180830381865afa158015611582573d6000803e3d6000fd5b505050506040513d601f19601f820116820180604052508101906115a69190613094565b6001600160a01b031663ffa082446040518163ffffffff1660e01b8152600401602060405180830381865afa1580156115e3573d6000803e3d6000fd5b505050506040513d601f19601f820116820180604052508101906116079190613094565b6001600160a01b0316638ca53ccd898660200151338b600001602081019061162f91906130ca565b6040516001600160e01b031960e087901b168152600481019490945265ffffffffffff90921660248401526001600160a01b0390811660448401521660648201526084810188905260a401602060405180830381865afa158015611697573d6000803e3d6000fd5b505050506040513d601f19601f820116820180604052508101906116bb91906130b1565b9050808211806116c9575080155b156116e757604051630f2114d360e11b815260040160405180910390fd5b6116f76060880160408901613077565b63ffffffff1685146117185761171386610dbb6012600a613468565b61171a565b855b3360009081526001602090815260408083208c845282528220929550611742908a018a6130ca565b6001600160a01b03166001600160a01b031681526020019081526020016000205483111561178357604051630a9128e560e21b815260040160405180910390fd5b3360009081526002602090815260408083208b845282528220849290916117ac908b018b6130ca565b6001600160a01b0316815260208082019290925260409081016000908120885165ffffffffffff1682528352818120898252835281812093909355338352600182528083208b84528252822085929091611808908b018b6130ca565b6001600160a01b031681526020808201929092526040908101600090812054338252600184528282208d8352845291812093909103929161184b908b018b6130ca565b6001600160a01b031681526020810191909152604001600020555061104d90506001600055565b61187a612699565b60006060611886611ea1565b6040516321d1336160e11b8152600481018890527f000000000000000000000000ae02b43798e4c23e3a6ffe570ea1612d0e7f50696001600160a01b0316906343a266c29060240161012060405180830381865afa1580156118ec573d6000803e3d6000fd5b505050506040513d601f19601f820116820180604052508101906119109190612f48565b805190935065ffffffffffff1660000361193d57604051631bcf786760e11b815260040160405180910390fd5b61010083015160441c600190811603611969576040516358c8f01960e11b815260040160405180910390fd5b61010083015160009060501c600190811614801561199f5750600061199385610100015160521c90565b6001600160a01b031614155b15611af95760408051610120810182523381526001600160a01b038c16602082015260009181016119d5368d90038d018d613487565b81526020018a66ffffffffffffff168152602001866020015165ffffffffffff168152602001896001600160a01b031681526020018660a001516001600160701b03168152602001611a2c87610100015160041c90565b61ffff16815260200188888080601f01602080910402602001604051908101604052809392919081815260200183838082843760009201919091525050509152509050611a7e85610100015160521c90565b6001600160a01b0316638cc35846826040518263ffffffff1660e01b8152600401611aa99190613502565b600060405180830381865afa158015611ac6573d6000803e3d6000fd5b505050506040513d6000823e601f3d908101601f19168201604052611aee91908101906135e0565b93509150611b099050565b5060a08301516001600160701b03165b815160608a0135908015611b855760005b81811015611b83576000858281518110611b3657611b36613345565b602002602001015160200151905080600014611b7a5783811115611b6d5760405163cd40dac160e01b815260040160405180910390fd5b611b778185613474565b93505b50600101611b1a565b505b508960600135600003611b9e575060009250611d929050565b8015611c3a573360009081526001602090815260408083208c84528252822083929091611bcd908e018e6130ca565b6001600160a01b03166001600160a01b0316815260200190815260200160002054611bf89190613371565b3360009081526001602090815260408083208d8452825282209190611c1f908e018e6130ca565b6001600160a01b031681526020810191909152604001600020555b81600003611c4e575060009250611d929050565b6000611c5f86610100015160241c90565b63ffffffff16611c7560608d0160408e01613077565b63ffffffff1614611d60577f000000000000000000000000b989eeecf03a0e5a06099f1a381e66493bfeedea6001600160a01b0316633be273fa8b8d6040016020810190611cc39190613077565b6101008a015160241c8f6020016020810190611cdf919061305c565b6040516001600160e01b031960e087901b168152600481019490945263ffffffff92831660248501529116604483015260ff166064820152608401602060405180830381865afa158015611d37573d6000803e3d6000fd5b505050506040513d601f19601f82011682018060405250810190611d5b91906130b1565b611d7b565b611d7060408c0160208d0161305c565b611d7b90600a6136ed565b9050611d8c8b6060013584836120f5565b94505050505b611d9c6001600055565b96509650969350505050565b6000611e9487878787808060200260200160405190810160405280939291908181526020016000905b82821015611dfd57611dee6060830286013681900381019061300a565b81526020019060010190611dd1565b50506040516321d1336160e11b8152600481018e90527f000000000000000000000000ae02b43798e4c23e3a6ffe570ea1612d0e7f50696001600160a01b031693506343a266c29250602401905061012060405180830381865afa158015611e69573d6000803e3d6000fd5b505050506040513d601f19601f82011682018060405250810190611e8d9190612f48565b8787611ecb565b90505b9695505050505050565b600260005403611ec457604051633ee5aeb560e01b815260040160405180910390fd5b6002600055565b8351600090815b81811015611f21576000611f038a8a8a8581518110611ef357611ef3613345565b60200260200101518a8a8a6121cd565b90508015611f1857611f158185613371565b93505b50600101611ed2565b50509695505050505050565b60405163d175415360e01b81526004810184905260009081906001600160a01b037f000000000000000000000000992f9e3a81c77cb940a29311558343e1ac66c40f169063d175415390602401600060405180830381865afa158015611f97573d6000803e3d6000fd5b505050506040513d6000823e601f3d908101601f19168201604052611fbf91908101906136fc565b805190915060005b8181101561207857828181518110611fe157611fe1613345565b602090810291909101015160405163cc68012760e01b81526004810189905260248101889052604481018790526001600160a01b039091169063cc68012790606401602060405180830381865afa158015612040573d6000803e3d6000fd5b505050506040513d601f19601f8201168201806040525081019061206491906130b1565b61206e9085613371565b9350600101611fc7565b5050509392505050565b600081600003612094575060006113ec565b8284036120a25750836113ec565b60006120af8686866120f5565b905061270f1983016120c25790506113ec565b6113e8816120dc876120d687612710613474565b886120f5565b6120e69086613371565b6127106120f5565b6001600055565b600080806000198587098587029250828110838203039150508060000361212f5783828161212557612125613795565b0492505050611404565b83811061216457604051630c740aef60e31b815260048101879052602481018690526044810185905260640160405180910390fd5b60008486880960026001871981018816978890046003810283188082028403028082028403028082028403028082028403028082028403029081029092039091026000889003889004909101858311909403939093029303949094049190911702949350505050565b6001600160a01b038087166000908152600160209081526040808320898452825280832088519094168352928152919020549085015160ff1683146122235761221e81866020015160ff168561263c565b612225565b805b905080158061223d575081856040015163ffffffff16145b6122c3576122be816122516012600a613468565b6040888101519051631df139fd60e11b8152600481018b905263ffffffff909116602482015260448101869052601260648201527f000000000000000000000000b989eeecf03a0e5a06099f1a381e66493bfeedea6001600160a01b031690633be273fa90608401610e39565b6122c5565b805b604051632eec7b5560e11b8152600481018890529091506000906001600160a01b037f000000000000000000000000992f9e3a81c77cb940a29311558343e1ac66c40f1690635dd8f6aa90602401602060405180830381865afa158015612330573d6000803e3d6000fd5b505050506040513d601f19601f820116820180604052508101906123549190613094565b6001600160a01b031663ffa082446040518163ffffffff1660e01b8152600401602060405180830381865afa158015612391573d6000803e3d6000fd5b505050506040513d601f19601f820116820180604052508101906123b59190613094565b60208601518751604051634c8cafef60e11b8152600481018b905265ffffffffffff90921660248301526001600160a01b038b81166044840152908116606483015291909116906399195fde90608401600060405180830381865afa158015612422573d6000803e3d6000fd5b505050506040513d6000823e601f3d908101601f1916820160405261244a91908101906137ab565b6040805180820190915260008082526020820152909150815160005b8181101561262e5783818151811061248057612480613345565b6020908102919091018101516001600160a01b03808e1660009081526002845260408082208f835285528082208e5190931682529184528181208c5165ffffffffffff16825284528181208385015163ffffffff1682529093529091205481519194506124f5916001600160e01b0316613474565b6001600160e01b03168352602089015160ff1687146125325761252d83600001516001600160e01b03168a6020015160ff168961263c565b612535565b82515b6001600160e01b03168084521580612556575085836020015163ffffffff16145b6125e75782516125e2906001600160e01b03166125756012600a613468565b6020860151604051631df139fd60e11b8152600481018f905263ffffffff9091166024820152604481018a9052601260648201526001600160a01b037f000000000000000000000000b989eeecf03a0e5a06099f1a381e66493bfeedea1690633be273fa90608401610e39565b6125ea565b82515b6001600160e01b0316808452851115612619578251612612906001600160e01b031686613474565b9450612626565b6000945050505050611e97565b600101612466565b505050509695505050505050565b600082820361264c575082611404565b8282111561267a5761265e8383613474565b61266990600a613468565b6126739085613875565b9050611404565b6126848284613474565b61268f90600a613468565b612673908561388c565b6040805161012081018252600080825260208201819052918101829052606081018290526080810182905260a0810182905260c0810182905260e0810182905261010081019190915290565b6001600160a01b03811681146126fa57600080fd5b50565b60006060828403121561270f57600080fd5b50919050565b60008083601f84011261272757600080fd5b5081356001600160401b0381111561273e57600080fd5b60208301915083602060608302850101111561275957600080fd5b9250929050565b634e487b7160e01b600052604160045260246000fd5b60405161012081016001600160401b038111828210171561279957612799612760565b60405290565b604051606081016001600160401b038111828210171561279957612799612760565b604080519081016001600160401b038111828210171561279957612799612760565b604051601f8201601f191681016001600160401b038111828210171561280b5761280b612760565b604052919050565b60006001600160401b0382111561282c5761282c612760565b50601f01601f191660200190565b6000806000806000806000610100888a03121561285657600080fd5b8735612861816126e5565b9650602088013595506040880135945061287e8960608a016126fd565b935060c08801356001600160401b038082111561289a57600080fd5b6128a68b838c01612715565b909550935060e08a01359150808211156128bf57600080fd5b508801601f81018a136128d157600080fd5b80356128e46128df82612813565b6127e3565b8181528b60208385010111156128f957600080fd5b8160208401602083013760006020838301015280935050505092959891949750929550565b65ffffffffffff80825116835280602083015116602084015280604083015116604084015250606081015161295d606084018265ffffffffffff169052565b506080810151612975608084018263ffffffff169052565b5060a081015161299060a08401826001600160701b03169052565b5060c08101516129a860c084018263ffffffff169052565b5060e08101516129c360e08401826001600160a01b03169052565b5061010090810151910152565b60005b838110156129eb5781810151838201526020016129d3565b50506000910152565b60008151808452612a0c8160208601602086016129d0565b601f01601f19169290920160200192915050565b6000610180808301612a32848961291e565b86610120850152856101408501528161016085015280915084518082526101a091508185019250818160051b8601019150602080870160005b83811015612ac35787850361019f19018652815180516001600160a01b031686528381015184870152604090810151606091870182905290612aaf818801836129f4565b978501979650505090820190600101612a6b565b50929a9950505050505050505050565b60008060408385031215612ae657600080fd5b823591506020830135612af8816126e5565b809150509250929050565b60008060008060c08587031215612b1957600080fd5b84359350612b2a86602087016126fd565b939693955050505060808201359160a0013590565b6101408101612b4e828561291e565b826101208301529392505050565b600080600060608486031215612b7157600080fd5b8335612b7c816126e5565b9250602084013591506040840135612b93816126e5565b809150509250925092565b600080600060608486031215612bb357600080fd5b833592506020840135612bc5816126e5565b929592945050506040919091013590565b600080600080600060a08688031215612bee57600080fd5b8535612bf9816126e5565b9450602086013593506040860135612c10816126e5565b94979396509394606081013594506080013592915050565b60008060008060008060008060e0898b031215612c4457600080fd5b8835612c4f816126e5565b97506020890135965060408901356001600160401b03811115612c7157600080fd5b612c7d8b828c01612715565b909750955050606089013593506080890135925060a0890135915060c08901358015158114612cab57600080fd5b809150509295985092959890939650565b60008060008060808587031215612cd257600080fd5b5050823594602084013594506040840135936060013592509050565b600080600060608486031215612d0357600080fd5b505081359360208301359350604090920135919050565b600080600080600080868803610100811215612d3557600080fd5b8735612d40816126e5565b96506080601f1982011215612d5457600080fd5b5060208701945060a0870135935060c0870135612d70816126e5565b925060e08701356001600160401b0380821115612d8c57600080fd5b818901915089601f830112612da057600080fd5b813581811115612daf57600080fd5b8a6020828501011115612dc157600080fd5b6020830194508093505050509295509295509295565b6000610160808301612de9848861291e565b610120840186905261014084019190915283519081905261018080840191600581901b850190910190602080870160005b83811015612e725787850361017f19018652815180516001600160a01b031686528381015184870152604090810151606091870182905290612e5e818801836129f4565b978501979650505090820190600101612e1a565b50929998505050505050505050565b60008060008060008060a08789031215612e9a57600080fd5b8635612ea5816126e5565b95506020870135945060408701356001600160401b03811115612ec757600080fd5b612ed389828a01612715565b979a9699509760608101359660809091013595509350505050565b805165ffffffffffff81168114612f0457600080fd5b919050565b63ffffffff811681146126fa57600080fd5b8051612f0481612f09565b80516001600160701b0381168114612f0457600080fd5b8051612f04816126e5565b60006101208284031215612f5b57600080fd5b612f63612776565b612f6c83612eee565b8152612f7a60208401612eee565b6020820152612f8b60408401612eee565b6040820152612f9c60608401612eee565b6060820152612fad60808401612f1b565b6080820152612fbe60a08401612f26565b60a0820152612fcf60c08401612f1b565b60c0820152612fe060e08401612f3d565b60e0820152610100928301519281019290925250919050565b803560ff81168114612f0457600080fd5b60006060828403121561301c57600080fd5b61302461279f565b823561302f816126e5565b815261303d60208401612ff9565b6020820152604083013561305081612f09565b60408201529392505050565b60006020828403121561306e57600080fd5b61140482612ff9565b60006020828403121561308957600080fd5b813561140481612f09565b6000602082840312156130a657600080fd5b8151611404816126e5565b6000602082840312156130c357600080fd5b5051919050565b6000602082840312156130dc57600080fd5b8135611404816126e5565b602081526131016020820183516001600160a01b03169052565b6000602083015161311d60408401826001600160a01b03169052565b506040830151606083015260608301516080830152608083015160a083015260a083015160c083015260c083015161318860e084018280516001600160a01b0316825260208082015160ff169083015260408082015163ffffffff1690830152606090810151910152565b5060e083015115156101608301526101008301516101808301526101208301516101a0808401526113ec6101c08401826129f4565b60006001600160401b038211156131d6576131d6612760565b5060051b60200190565b600082601f8301126131f157600080fd5b81516131ff6128df82612813565b81815284602083860101111561321457600080fd5b6113ec8260208301602087016129d0565b6000806000806080858703121561323b57600080fd5b84519350602085015192506040850151915060608501516001600160401b038082111561326757600080fd5b818701915087601f83011261327b57600080fd5b81516132896128df826131bd565b8082825260208201915060208360051b86010192508a8311156132ab57600080fd5b602085015b83811015613335578051858111156132c757600080fd5b86016060818e03601f190112156132dd57600080fd5b6132e561279f565b60208201516132f3816126e5565b81526040820151602082015260608201518781111561331157600080fd5b6133208f6020838601016131e0565b604083015250845250602092830192016132b0565b50979a9699509497505050505050565b634e487b7160e01b600052603260045260246000fd5b634e487b7160e01b600052601160045260246000fd5b80820180821115610aab57610aab61335b565b600181815b808511156133bf5781600019048211156133a5576133a561335b565b808516156133b257918102915b93841c9390800290613389565b509250929050565b6000826133d657506001610aab565b816133e357506000610aab565b81600181146133f957600281146134035761341f565b6001915050610aab565b60ff8411156134145761341461335b565b50506001821b610aab565b5060208310610133831016604e8410600b8410161715613442575081810a610aab565b61344c8383613384565b80600019048211156134605761346061335b565b029392505050565b600061140483836133c7565b81810381811115610aab57610aab61335b565b60006080828403121561349957600080fd5b604051608081018181106001600160401b03821117156134bb576134bb612760565b60405282356134c9816126e5565b81526134d760208401612ff9565b602082015260408301356134ea81612f09565b60408201526060928301359281019290925250919050565b6020815261351c6020820183516001600160a01b03169052565b6000602083015161353860408401826001600160a01b03169052565b50604083015161357b606084018280516001600160a01b0316825260208082015160ff169083015260408082015163ffffffff1690830152606090810151910152565b50606083015160e08301526080830151610100818185015260a085015191506135b06101208501836001600160a01b03169052565b60c085015161014085015260e08501516101608501528401516101808085015290506113ec6101a08401826129f4565b600080604083850312156135f357600080fd5b825191506020808401516001600160401b038082111561361257600080fd5b818601915086601f83011261362657600080fd5b81516136346128df826131bd565b81815260059190911b8301840190848101908983111561365357600080fd5b8585015b838110156136dc5780518581111561366f5760008081fd5b86016060818d03601f19018113156136875760008081fd5b61368f61279f565b8983015161369c816126e5565b815260408301518a8201529082015190878211156136ba5760008081fd5b6136c88e8b848601016131e0565b604082015285525050918601918601613657565b508096505050505050509250929050565b600061140460ff8416836133c7565b6000602080838503121561370f57600080fd5b82516001600160401b0381111561372557600080fd5b8301601f8101851361373657600080fd5b80516137446128df826131bd565b81815260059190911b8201830190838101908783111561376357600080fd5b928401925b8284101561378a57835161377b816126e5565b82529284019290840190613768565b979650505050505050565b634e487b7160e01b600052601260045260246000fd5b600060208083850312156137be57600080fd5b82516001600160401b038111156137d457600080fd5b8301601f810185136137e557600080fd5b80516137f36128df826131bd565b81815260069190911b8201830190838101908783111561381257600080fd5b928401925b8284101561378a57604084890312156138305760008081fd5b6138386127c1565b84516001600160e01b03811681146138505760008081fd5b81528486015161385f81612f09565b8187015282526040939093019290840190613817565b8082028115828204841417610aab57610aab61335b565b6000826138a957634e487b7160e01b600052601260045260246000fd5b50049056fea2646970667358221220931a8e98bfcaef0f2a16cdf16966c06ac762efd930a0d2da31eb7e35ad65c38464736f6c63430008170033",
	"devdoc": {
		"kind": "dev",
		"methods": {
			"constructor": {
				"params": {
					"directory": "A contract storing directories of terminals and controllers for each project.",
					"prices": "A contract that exposes price feeds.",
					"rulesets": "A contract storing and managing project rulesets."
				}
			},
			"currentReclaimableSurplusOf(address,uint256,(address,uint8,uint32)[],uint256,uint256,uint256,bool)": {
				"details": "The returned amount in terms of the specified `terminal`'s base currency.The returned amount is represented as a fixed point number with the same amount of decimals as the specified terminal.",
				"params": {
					"accountingContexts": "The accounting contexts of the surplus terminal tokens that would be reclaimed",
					"currency": "The currency that the resulting number will be in terms of.",
					"decimals": "The number of decimals to include in the resulting fixed point number.",
					"projectId": "The ID of the project whose tokens would be redeemed.",
					"terminal": "The terminal that would be redeemed from. If `useTotalSurplus` is true, this is ignored.",
					"tokensRedeemed": "The number of tokens that would be redeemed, as a fixed point number with 18 decimals.",
					"useTotalSurplus": "Whether the total surplus should be summed across all of the project's terminals. If false, only the `terminal`'s surplus is used."
				},
				"returns": {
					"_0": "The amount of surplus terminal tokens that would be reclaimed by redeeming `tokensRedeemed` tokens."
				}
			},
			"currentReclaimableSurplusOf(uint256,uint256,uint256,uint256)": {
				"params": {
					"projectId": "The ID of the project whose project tokens would be redeemed.",
					"surplus": "The total terminal token surplus amount, as a fixed point number.",
					"tokensRedeemed": "The number of project tokens that would be redeemed, as a fixed point number with 18 decimals.",
					"totalSupply": "The total project token supply, as a fixed point number with 18 decimals."
				},
				"returns": {
					"_0": "The number of surplus terminal tokens that would be reclaimed, as a fixed point number with the same number of decimals as the provided `surplus`."
				}
			},
			"currentSurplusOf(address,uint256,(address,uint8,uint32)[],uint256,uint256)": {
				"details": "The surplus is the amount of funds a project has in a terminal in excess of its payout limit.The surplus is represented as a fixed point number with the same amount of decimals as the specified terminal.",
				"params": {
					"accountingContexts": "The accounting contexts of tokens whose balances should contribute to the surplus being calculated.",
					"currency": "The currency the resulting amount should be in terms of.",
					"decimals": "The number of decimals to expect in the resulting fixed point number.",
					"projectId": "The ID of the project to get surplus for.",
					"terminal": "The terminal the surplus is being calculated for."
				},
				"returns": {
					"_0": "The current surplus amount the project has in the specified terminal."
				}
			},
			"currentTotalSurplusOf(uint256,uint256,uint256)": {
				"params": {
					"currency": "The currency that the total surplus should be in terms of.",
					"decimals": "The number of decimals that the fixed point surplus should include.",
					"projectId": "The ID of the project to get the total surplus for."
				},
				"returns": {
					"_0": "The current total surplus amount that the project has across all terminals."
				}
			},
			"recordAddedBalanceFor(uint256,address,uint256)": {
				"params": {
					"amount": "The amount of terminal tokens added, as a fixed point number with the same amount of decimals as its relative terminal.",
					"projectId": "The ID of the project which funds are being added to the balance of.",
					"token": "The token being added to the balance."
				}
			},
			"recordPaymentFrom(address,(address,uint8,uint32,uint256),uint256,address,bytes)": {
				"details": "Mints the project's tokens according to values provided by the ruleset's data hook. If the ruleset has no data hook, mints tokens in proportion with the amount paid.",
				"params": {
					"amount": "The amount of tokens being paid. Includes the token being paid, their value, the number of decimals included, and the currency of the amount.",
					"beneficiary": "The address that should be the beneficiary of anything the payment yields (including project tokens minted by the payment).",
					"metadata": "Bytes to send to the data hook, if the project's current ruleset specifies one.",
					"payer": "The address that made the payment to the terminal.",
					"projectId": "The ID of the project being paid."
				},
				"returns": {
					"hookSpecifications": "A list of pay hooks, including data and amounts to send to them. The terminal should fulfill these specifications.",
					"ruleset": "The ruleset the payment was made during, as a `JBRuleset` struct.",
					"tokenCount": "The number of project tokens that were minted, as a fixed point number with 18 decimals."
				}
			},
			"recordPayoutFor(uint256,(address,uint8,uint32),uint256,uint256)": {
				"params": {
					"accountingContext": "The context of the token being paid out.",
					"amount": "The amount to pay out (use from the payout limit), as a fixed point number.",
					"currency": "The currency of the `amount`. This must match the project's current ruleset's currency.",
					"projectId": "The ID of the project that is paying out funds."
				},
				"returns": {
					"amountPaidOut": "The amount of terminal tokens paid out, as a fixed point number with the same amount of decimals as its relative terminal.",
					"ruleset": "The ruleset the payout was made during, as a `JBRuleset` struct."
				}
			},
			"recordRedemptionFor(address,uint256,uint256,(address,uint8,uint32),(address,uint8,uint32)[],bytes)": {
				"details": "Redeems the project's tokens according to values provided by the ruleset's data hook. If the ruleset has no data hook, redeems tokens along a redemption bonding curve that is a function of the number of tokens being burned.",
				"params": {
					"accountingContext": "The accounting context of the token being reclaimed by the redemption.",
					"balanceAccountingContexts": "The accounting contexts of the tokens whose balances should contribute to the surplus being reclaimed from.",
					"holder": "The account that is redeeming tokens.",
					"metadata": "Bytes to send to the data hook, if the project's current ruleset specifies one.",
					"projectId": "The ID of the project being redeemed from.",
					"redeemCount": "The number of project tokens to redeem, as a fixed point number with 18 decimals."
				},
				"returns": {
					"hookSpecifications": "A list of redeem hooks, including data and amounts to send to them. The terminal should fulfill these specifications.",
					"reclaimAmount": "The amount of tokens reclaimed from the terminal, as a fixed point number with 18 decimals.",
					"redemptionRate": "The redemption rate influencing the reclaim amount.",
					"ruleset": "The ruleset during the redemption was made during, as a `JBRuleset` struct. This ruleset will have a redemption rate provided by the redemption hook if applicable."
				}
			},
			"recordTerminalMigration(uint256,address)": {
				"params": {
					"projectId": "The ID of the project being migrated.",
					"token": "The token being migrated."
				},
				"returns": {
					"balance": "The project's current balance (which is being migrated), as a fixed point number with the same amount of decimals as its relative terminal."
				}
			},
			"recordUsedAllowanceOf(uint256,(address,uint8,uint32),uint256,uint256)": {
				"details": "When surplus allowance is \"used\", it is taken out of the project's surplus within a terminal.",
				"params": {
					"accountingContext": "The accounting context of the token whose balances should contribute to the surplus allowance being reclaimed from.",
					"amount": "The amount to use from the surplus allowance, as a fixed point number.",
					"currency": "The currency of the `amount`. Must match the currency of the surplus allowance.",
					"projectId": "The ID of the project to use the surplus allowance of."
				},
				"returns": {
					"ruleset": "The ruleset during the surplus allowance is being used during, as a `JBRuleset` struct.",
					"usedAmount": "The amount of terminal tokens used, as a fixed point number with the same amount of decimals as its relative terminal."
				}
			}
		},
		"version": 1
	},
	"userdoc": {
		"kind": "user",
		"methods": {
			"DIRECTORY()": {
				"notice": "The directory of terminals and controllers for projects."
			},
			"PRICES()": {
				"notice": "The contract that exposes price feeds."
			},
			"RULESETS()": {
				"notice": "The contract storing and managing project rulesets."
			},
			"balanceOf(address,uint256,address)": {
				"notice": "A project's balance of a specific token within a terminal."
			},
			"currentReclaimableSurplusOf(address,uint256,(address,uint8,uint32)[],uint256,uint256,uint256,bool)": {
				"notice": "Returns the number of surplus terminal tokens that would be reclaimed from a terminal by redeeming a given number of tokens, based on the total token supply and total surplus."
			},
			"currentReclaimableSurplusOf(uint256,uint256,uint256,uint256)": {
				"notice": "Returns the number of surplus terminal tokens that would be reclaimed by redeeming a given project's tokens based on its current ruleset and the given total project token supply and total terminal token surplus."
			},
			"currentSurplusOf(address,uint256,(address,uint8,uint32)[],uint256,uint256)": {
				"notice": "Gets the current surplus amount in a terminal for a specified project."
			},
			"currentTotalSurplusOf(uint256,uint256,uint256)": {
				"notice": "Gets the current surplus amount for a specified project across all terminals."
			},
			"recordAddedBalanceFor(uint256,address,uint256)": {
				"notice": "Records funds being added to a project's balance."
			},
			"recordPaymentFrom(address,(address,uint8,uint32,uint256),uint256,address,bytes)": {
				"notice": "Records a payment to a project."
			},
			"recordPayoutFor(uint256,(address,uint8,uint32),uint256,uint256)": {
				"notice": "Records a payout from a project."
			},
			"recordRedemptionFor(address,uint256,uint256,(address,uint8,uint32),(address,uint8,uint32)[],bytes)": {
				"notice": "Records a redemption from a project."
			},
			"recordTerminalMigration(uint256,address)": {
				"notice": "Records the migration of funds from this store."
			},
			"recordUsedAllowanceOf(uint256,(address,uint8,uint32),uint256,uint256)": {
				"notice": "Records a use of a project's surplus allowance."
			},
			"usedPayoutLimitOf(address,uint256,address,uint256,uint256)": {
				"notice": "The currency-denominated amount of funds that a project has already paid out from its payout limit during the current ruleset for each terminal, in terms of the payout limit's currency."
			},
			"usedSurplusAllowanceOf(address,uint256,address,uint256,uint256)": {
				"notice": "The currency-denominated amounts of funds that a project has used from its surplus allowance during the current ruleset for each terminal, in terms of the surplus allowance's currency."
			}
		},
		"version": 1
	},
	"gitCommit": "897be4ac937fa10ecfddb2c6008cf3edd084beef",
	"sourceName": "src/JBTerminalStore.sol",
	"chainId": "11155420",
	"linkReferences": {},
	"deployedLinkReferences": {},
	"history": []
}