{
	"_format": "sphinx-sol-ct-artifact-1",
	"merkleRoot": "0x2eed67fcf1763eec7ef14ca888c00e6e0d2358663046a3e4367e42ef35bdfba4",
	"contractName": "JBTerminalStore",
	"address": "0xf36a63951A49a9708f007F23B077751be80fFE11",
	"abi": [
		{
			"type": "constructor",
			"inputs": [
				{
					"name": "directory",
					"type": "address",
					"internalType": "contract IJBDirectory"
				},
				{
					"name": "prices",
					"type": "address",
					"internalType": "contract IJBPrices"
				},
				{
					"name": "rulesets",
					"type": "address",
					"internalType": "contract IJBRulesets"
				}
			],
			"stateMutability": "nonpayable"
		},
		{
			"type": "function",
			"name": "DIRECTORY",
			"inputs": [],
			"outputs": [
				{
					"name": "",
					"type": "address",
					"internalType": "contract IJBDirectory"
				}
			],
			"stateMutability": "view"
		},
		{
			"type": "function",
			"name": "PRICES",
			"inputs": [],
			"outputs": [
				{
					"name": "",
					"type": "address",
					"internalType": "contract IJBPrices"
				}
			],
			"stateMutability": "view"
		},
		{
			"type": "function",
			"name": "RULESETS",
			"inputs": [],
			"outputs": [
				{
					"name": "",
					"type": "address",
					"internalType": "contract IJBRulesets"
				}
			],
			"stateMutability": "view"
		},
		{
			"type": "function",
			"name": "balanceOf",
			"inputs": [
				{
					"name": "terminal",
					"type": "address",
					"internalType": "address"
				},
				{
					"name": "projectId",
					"type": "uint256",
					"internalType": "uint256"
				},
				{
					"name": "token",
					"type": "address",
					"internalType": "address"
				}
			],
			"outputs": [
				{
					"name": "",
					"type": "uint256",
					"internalType": "uint256"
				}
			],
			"stateMutability": "view"
		},
		{
			"type": "function",
			"name": "currentReclaimableSurplusOf",
			"inputs": [
				{
					"name": "terminal",
					"type": "address",
					"internalType": "address"
				},
				{
					"name": "projectId",
					"type": "uint256",
					"internalType": "uint256"
				},
				{
					"name": "accountingContexts",
					"type": "tuple[]",
					"internalType": "struct JBAccountingContext[]",
					"components": [
						{
							"name": "token",
							"type": "address",
							"internalType": "address"
						},
						{
							"name": "decimals",
							"type": "uint8",
							"internalType": "uint8"
						},
						{
							"name": "currency",
							"type": "uint32",
							"internalType": "uint32"
						}
					]
				},
				{
					"name": "decimals",
					"type": "uint256",
					"internalType": "uint256"
				},
				{
					"name": "currency",
					"type": "uint256",
					"internalType": "uint256"
				},
				{
					"name": "tokensRedeemed",
					"type": "uint256",
					"internalType": "uint256"
				},
				{
					"name": "useTotalSurplus",
					"type": "bool",
					"internalType": "bool"
				}
			],
			"outputs": [
				{
					"name": "",
					"type": "uint256",
					"internalType": "uint256"
				}
			],
			"stateMutability": "view"
		},
		{
			"type": "function",
			"name": "currentReclaimableSurplusOf",
			"inputs": [
				{
					"name": "projectId",
					"type": "uint256",
					"internalType": "uint256"
				},
				{
					"name": "tokensRedeemed",
					"type": "uint256",
					"internalType": "uint256"
				},
				{
					"name": "totalSupply",
					"type": "uint256",
					"internalType": "uint256"
				},
				{
					"name": "surplus",
					"type": "uint256",
					"internalType": "uint256"
				}
			],
			"outputs": [
				{
					"name": "",
					"type": "uint256",
					"internalType": "uint256"
				}
			],
			"stateMutability": "view"
		},
		{
			"type": "function",
			"name": "currentSurplusOf",
			"inputs": [
				{
					"name": "terminal",
					"type": "address",
					"internalType": "address"
				},
				{
					"name": "projectId",
					"type": "uint256",
					"internalType": "uint256"
				},
				{
					"name": "accountingContexts",
					"type": "tuple[]",
					"internalType": "struct JBAccountingContext[]",
					"components": [
						{
							"name": "token",
							"type": "address",
							"internalType": "address"
						},
						{
							"name": "decimals",
							"type": "uint8",
							"internalType": "uint8"
						},
						{
							"name": "currency",
							"type": "uint32",
							"internalType": "uint32"
						}
					]
				},
				{
					"name": "decimals",
					"type": "uint256",
					"internalType": "uint256"
				},
				{
					"name": "currency",
					"type": "uint256",
					"internalType": "uint256"
				}
			],
			"outputs": [
				{
					"name": "",
					"type": "uint256",
					"internalType": "uint256"
				}
			],
			"stateMutability": "view"
		},
		{
			"type": "function",
			"name": "currentTotalSurplusOf",
			"inputs": [
				{
					"name": "projectId",
					"type": "uint256",
					"internalType": "uint256"
				},
				{
					"name": "decimals",
					"type": "uint256",
					"internalType": "uint256"
				},
				{
					"name": "currency",
					"type": "uint256",
					"internalType": "uint256"
				}
			],
			"outputs": [
				{
					"name": "",
					"type": "uint256",
					"internalType": "uint256"
				}
			],
			"stateMutability": "view"
		},
		{
			"type": "function",
			"name": "recordAddedBalanceFor",
			"inputs": [
				{
					"name": "projectId",
					"type": "uint256",
					"internalType": "uint256"
				},
				{
					"name": "token",
					"type": "address",
					"internalType": "address"
				},
				{
					"name": "amount",
					"type": "uint256",
					"internalType": "uint256"
				}
			],
			"outputs": [],
			"stateMutability": "nonpayable"
		},
		{
			"type": "function",
			"name": "recordPaymentFrom",
			"inputs": [
				{
					"name": "payer",
					"type": "address",
					"internalType": "address"
				},
				{
					"name": "amount",
					"type": "tuple",
					"internalType": "struct JBTokenAmount",
					"components": [
						{
							"name": "token",
							"type": "address",
							"internalType": "address"
						},
						{
							"name": "decimals",
							"type": "uint8",
							"internalType": "uint8"
						},
						{
							"name": "currency",
							"type": "uint32",
							"internalType": "uint32"
						},
						{
							"name": "value",
							"type": "uint256",
							"internalType": "uint256"
						}
					]
				},
				{
					"name": "projectId",
					"type": "uint256",
					"internalType": "uint256"
				},
				{
					"name": "beneficiary",
					"type": "address",
					"internalType": "address"
				},
				{
					"name": "metadata",
					"type": "bytes",
					"internalType": "bytes"
				}
			],
			"outputs": [
				{
					"name": "ruleset",
					"type": "tuple",
					"internalType": "struct JBRuleset",
					"components": [
						{
							"name": "cycleNumber",
							"type": "uint48",
							"internalType": "uint48"
						},
						{
							"name": "id",
							"type": "uint48",
							"internalType": "uint48"
						},
						{
							"name": "basedOnId",
							"type": "uint48",
							"internalType": "uint48"
						},
						{
							"name": "start",
							"type": "uint48",
							"internalType": "uint48"
						},
						{
							"name": "duration",
							"type": "uint32",
							"internalType": "uint32"
						},
						{
							"name": "weight",
							"type": "uint112",
							"internalType": "uint112"
						},
						{
							"name": "decayPercent",
							"type": "uint32",
							"internalType": "uint32"
						},
						{
							"name": "approvalHook",
							"type": "address",
							"internalType": "contract IJBRulesetApprovalHook"
						},
						{
							"name": "metadata",
							"type": "uint256",
							"internalType": "uint256"
						}
					]
				},
				{
					"name": "tokenCount",
					"type": "uint256",
					"internalType": "uint256"
				},
				{
					"name": "hookSpecifications",
					"type": "tuple[]",
					"internalType": "struct JBPayHookSpecification[]",
					"components": [
						{
							"name": "hook",
							"type": "address",
							"internalType": "contract IJBPayHook"
						},
						{
							"name": "amount",
							"type": "uint256",
							"internalType": "uint256"
						},
						{
							"name": "metadata",
							"type": "bytes",
							"internalType": "bytes"
						}
					]
				}
			],
			"stateMutability": "nonpayable"
		},
		{
			"type": "function",
			"name": "recordPayoutFor",
			"inputs": [
				{
					"name": "projectId",
					"type": "uint256",
					"internalType": "uint256"
				},
				{
					"name": "accountingContext",
					"type": "tuple",
					"internalType": "struct JBAccountingContext",
					"components": [
						{
							"name": "token",
							"type": "address",
							"internalType": "address"
						},
						{
							"name": "decimals",
							"type": "uint8",
							"internalType": "uint8"
						},
						{
							"name": "currency",
							"type": "uint32",
							"internalType": "uint32"
						}
					]
				},
				{
					"name": "amount",
					"type": "uint256",
					"internalType": "uint256"
				},
				{
					"name": "currency",
					"type": "uint256",
					"internalType": "uint256"
				}
			],
			"outputs": [
				{
					"name": "ruleset",
					"type": "tuple",
					"internalType": "struct JBRuleset",
					"components": [
						{
							"name": "cycleNumber",
							"type": "uint48",
							"internalType": "uint48"
						},
						{
							"name": "id",
							"type": "uint48",
							"internalType": "uint48"
						},
						{
							"name": "basedOnId",
							"type": "uint48",
							"internalType": "uint48"
						},
						{
							"name": "start",
							"type": "uint48",
							"internalType": "uint48"
						},
						{
							"name": "duration",
							"type": "uint32",
							"internalType": "uint32"
						},
						{
							"name": "weight",
							"type": "uint112",
							"internalType": "uint112"
						},
						{
							"name": "decayPercent",
							"type": "uint32",
							"internalType": "uint32"
						},
						{
							"name": "approvalHook",
							"type": "address",
							"internalType": "contract IJBRulesetApprovalHook"
						},
						{
							"name": "metadata",
							"type": "uint256",
							"internalType": "uint256"
						}
					]
				},
				{
					"name": "amountPaidOut",
					"type": "uint256",
					"internalType": "uint256"
				}
			],
			"stateMutability": "nonpayable"
		},
		{
			"type": "function",
			"name": "recordRedemptionFor",
			"inputs": [
				{
					"name": "holder",
					"type": "address",
					"internalType": "address"
				},
				{
					"name": "projectId",
					"type": "uint256",
					"internalType": "uint256"
				},
				{
					"name": "redeemCount",
					"type": "uint256",
					"internalType": "uint256"
				},
				{
					"name": "accountingContext",
					"type": "tuple",
					"internalType": "struct JBAccountingContext",
					"components": [
						{
							"name": "token",
							"type": "address",
							"internalType": "address"
						},
						{
							"name": "decimals",
							"type": "uint8",
							"internalType": "uint8"
						},
						{
							"name": "currency",
							"type": "uint32",
							"internalType": "uint32"
						}
					]
				},
				{
					"name": "balanceAccountingContexts",
					"type": "tuple[]",
					"internalType": "struct JBAccountingContext[]",
					"components": [
						{
							"name": "token",
							"type": "address",
							"internalType": "address"
						},
						{
							"name": "decimals",
							"type": "uint8",
							"internalType": "uint8"
						},
						{
							"name": "currency",
							"type": "uint32",
							"internalType": "uint32"
						}
					]
				},
				{
					"name": "metadata",
					"type": "bytes",
					"internalType": "bytes"
				}
			],
			"outputs": [
				{
					"name": "ruleset",
					"type": "tuple",
					"internalType": "struct JBRuleset",
					"components": [
						{
							"name": "cycleNumber",
							"type": "uint48",
							"internalType": "uint48"
						},
						{
							"name": "id",
							"type": "uint48",
							"internalType": "uint48"
						},
						{
							"name": "basedOnId",
							"type": "uint48",
							"internalType": "uint48"
						},
						{
							"name": "start",
							"type": "uint48",
							"internalType": "uint48"
						},
						{
							"name": "duration",
							"type": "uint32",
							"internalType": "uint32"
						},
						{
							"name": "weight",
							"type": "uint112",
							"internalType": "uint112"
						},
						{
							"name": "decayPercent",
							"type": "uint32",
							"internalType": "uint32"
						},
						{
							"name": "approvalHook",
							"type": "address",
							"internalType": "contract IJBRulesetApprovalHook"
						},
						{
							"name": "metadata",
							"type": "uint256",
							"internalType": "uint256"
						}
					]
				},
				{
					"name": "reclaimAmount",
					"type": "uint256",
					"internalType": "uint256"
				},
				{
					"name": "redemptionRate",
					"type": "uint256",
					"internalType": "uint256"
				},
				{
					"name": "hookSpecifications",
					"type": "tuple[]",
					"internalType": "struct JBRedeemHookSpecification[]",
					"components": [
						{
							"name": "hook",
							"type": "address",
							"internalType": "contract IJBRedeemHook"
						},
						{
							"name": "amount",
							"type": "uint256",
							"internalType": "uint256"
						},
						{
							"name": "metadata",
							"type": "bytes",
							"internalType": "bytes"
						}
					]
				}
			],
			"stateMutability": "nonpayable"
		},
		{
			"type": "function",
			"name": "recordTerminalMigration",
			"inputs": [
				{
					"name": "projectId",
					"type": "uint256",
					"internalType": "uint256"
				},
				{
					"name": "token",
					"type": "address",
					"internalType": "address"
				}
			],
			"outputs": [
				{
					"name": "balance",
					"type": "uint256",
					"internalType": "uint256"
				}
			],
			"stateMutability": "nonpayable"
		},
		{
			"type": "function",
			"name": "recordUsedAllowanceOf",
			"inputs": [
				{
					"name": "projectId",
					"type": "uint256",
					"internalType": "uint256"
				},
				{
					"name": "accountingContext",
					"type": "tuple",
					"internalType": "struct JBAccountingContext",
					"components": [
						{
							"name": "token",
							"type": "address",
							"internalType": "address"
						},
						{
							"name": "decimals",
							"type": "uint8",
							"internalType": "uint8"
						},
						{
							"name": "currency",
							"type": "uint32",
							"internalType": "uint32"
						}
					]
				},
				{
					"name": "amount",
					"type": "uint256",
					"internalType": "uint256"
				},
				{
					"name": "currency",
					"type": "uint256",
					"internalType": "uint256"
				}
			],
			"outputs": [
				{
					"name": "ruleset",
					"type": "tuple",
					"internalType": "struct JBRuleset",
					"components": [
						{
							"name": "cycleNumber",
							"type": "uint48",
							"internalType": "uint48"
						},
						{
							"name": "id",
							"type": "uint48",
							"internalType": "uint48"
						},
						{
							"name": "basedOnId",
							"type": "uint48",
							"internalType": "uint48"
						},
						{
							"name": "start",
							"type": "uint48",
							"internalType": "uint48"
						},
						{
							"name": "duration",
							"type": "uint32",
							"internalType": "uint32"
						},
						{
							"name": "weight",
							"type": "uint112",
							"internalType": "uint112"
						},
						{
							"name": "decayPercent",
							"type": "uint32",
							"internalType": "uint32"
						},
						{
							"name": "approvalHook",
							"type": "address",
							"internalType": "contract IJBRulesetApprovalHook"
						},
						{
							"name": "metadata",
							"type": "uint256",
							"internalType": "uint256"
						}
					]
				},
				{
					"name": "usedAmount",
					"type": "uint256",
					"internalType": "uint256"
				}
			],
			"stateMutability": "nonpayable"
		},
		{
			"type": "function",
			"name": "usedPayoutLimitOf",
			"inputs": [
				{
					"name": "terminal",
					"type": "address",
					"internalType": "address"
				},
				{
					"name": "projectId",
					"type": "uint256",
					"internalType": "uint256"
				},
				{
					"name": "token",
					"type": "address",
					"internalType": "address"
				},
				{
					"name": "rulesetCycleNumber",
					"type": "uint256",
					"internalType": "uint256"
				},
				{
					"name": "currency",
					"type": "uint256",
					"internalType": "uint256"
				}
			],
			"outputs": [
				{
					"name": "",
					"type": "uint256",
					"internalType": "uint256"
				}
			],
			"stateMutability": "view"
		},
		{
			"type": "function",
			"name": "usedSurplusAllowanceOf",
			"inputs": [
				{
					"name": "terminal",
					"type": "address",
					"internalType": "address"
				},
				{
					"name": "projectId",
					"type": "uint256",
					"internalType": "uint256"
				},
				{
					"name": "token",
					"type": "address",
					"internalType": "address"
				},
				{
					"name": "rulesetId",
					"type": "uint256",
					"internalType": "uint256"
				},
				{
					"name": "currency",
					"type": "uint256",
					"internalType": "uint256"
				}
			],
			"outputs": [
				{
					"name": "",
					"type": "uint256",
					"internalType": "uint256"
				}
			],
			"stateMutability": "view"
		},
		{
			"type": "error",
			"name": "JBTerminalStore_InadequateControllerAllowance",
			"inputs": [
				{
					"name": "amount",
					"type": "uint256",
					"internalType": "uint256"
				},
				{
					"name": "allowance",
					"type": "uint256",
					"internalType": "uint256"
				}
			]
		},
		{
			"type": "error",
			"name": "JBTerminalStore_InadequateControllerPayoutLimit",
			"inputs": [
				{
					"name": "amount",
					"type": "uint256",
					"internalType": "uint256"
				},
				{
					"name": "limit",
					"type": "uint256",
					"internalType": "uint256"
				}
			]
		},
		{
			"type": "error",
			"name": "JBTerminalStore_InadequateTerminalStoreBalance",
			"inputs": [
				{
					"name": "amount",
					"type": "uint256",
					"internalType": "uint256"
				},
				{
					"name": "balance",
					"type": "uint256",
					"internalType": "uint256"
				}
			]
		},
		{
			"type": "error",
			"name": "JBTerminalStore_InsufficientTokens",
			"inputs": [
				{
					"name": "count",
					"type": "uint256",
					"internalType": "uint256"
				},
				{
					"name": "totalSupply",
					"type": "uint256",
					"internalType": "uint256"
				}
			]
		},
		{
			"type": "error",
			"name": "JBTerminalStore_InvalidAmountToForwardHook",
			"inputs": [
				{
					"name": "amount",
					"type": "uint256",
					"internalType": "uint256"
				},
				{
					"name": "paidAmount",
					"type": "uint256",
					"internalType": "uint256"
				}
			]
		},
		{
			"type": "error",
			"name": "JBTerminalStore_RulesetNotFound",
			"inputs": []
		},
		{
			"type": "error",
			"name": "JBTerminalStore_RulesetPaymentPaused",
			"inputs": []
		},
		{
			"type": "error",
			"name": "JBTerminalStore_TerminalMigrationNotAllowed",
			"inputs": []
		},
		{
			"type": "error",
			"name": "PRBMath_MulDiv_Overflow",
			"inputs": [
				{
					"name": "x",
					"type": "uint256",
					"internalType": "uint256"
				},
				{
					"name": "y",
					"type": "uint256",
					"internalType": "uint256"
				},
				{
					"name": "denominator",
					"type": "uint256",
					"internalType": "uint256"
				}
			]
		}
	],
	"solcInputHash": "b89bde0fe29395f67edeac33d37789f7",
	"args": [
		"0xE0B2860344bA476e12eD1d559656dA9D04F1AD22",
		"0x7769087dcaB8C6124a4305511b90582431F10e53",
		"0x8De478a6071AD66Bf99c770AEA0cEdcDDDa72F43"
	],
	"bytecode": "0x60e06040523480156200001157600080fd5b5060405162003b9638038062003b9683398101604081905262000034916200006b565b6001600160a01b0392831660805290821660a0521660c052620000bf565b6001600160a01b03811681146200006857600080fd5b50565b6000806000606084860312156200008157600080fd5b83516200008e8162000052565b6020850151909350620000a18162000052565b6040850151909250620000b48162000052565b809150509250925092565b60805160a05160c051613a1b6200017b600039600081816103150152818161035901528181610ad801528181610bcc015281816111da015281816114de0152818161164001528181611ab9015261202601526000818161015701528181610c7801528181611e9d015281816123ca01526126e401526000818161023e015281816104b60152818161057701528181610f89015281816112d80152818161137c0152818161157d015281816118cc015261242c0152613a1b6000f3fe608060405234801561001057600080fd5b50600436106101005760003560e01c80638e86e7a411610097578063c0920f3811610066578063c0920f38146102db578063c59dfadb146102ee578063d4a1b4b114610310578063d60d1a091461033757600080fd5b80638e86e7a4146102605780639e0a5d5914610273578063ab5f3a0114610286578063b7cc53b31461029957600080fd5b8063467f4cb9116100d3578063467f4cb9146101b257806351fc1735146101e2578063568ecef1146101f757806388bc2ef31461023957600080fd5b80630d346b811461010557806319781e23146101315780631eabcd341461015257806330795ef814610191575b600080fd5b61011861011336600461296b565b61034a565b6040516101289493929190612b51565b60405180910390f35b61014461013f366004612c04565b610ab5565b604051908152602001610128565b6101797f000000000000000000000000000000000000000000000000000000000000000081565b6040516001600160a01b039091168152602001610128565b6101a461019f366004612c34565b610bab565b604051610128929190612c70565b6101446101c0366004612c8d565b6000602081815293815260408082208552928152828120909352825290205481565b6101f56101f0366004612ccf565b61114c565b005b610144610205366004612d07565b6002602090815260009586526040808720825294865284862081529285528385208352908452828420909152825290205481565b6101797f000000000000000000000000000000000000000000000000000000000000000081565b61014461026e366004612d59565b6111b7565b610144610281366004612ded565b6114a3565b610144610294366004612e1f565b611575565b6101446102a7366004612d07565b6001602090815260009586526040808720825294865284862081529285528385208352908452828420909152825290205481565b6101a46102e9366004612c34565b61161f565b6103016102fc366004612e4b565b611a8d565b60405161012893929190612f08565b6101797f000000000000000000000000000000000000000000000000000000000000000081565b610144610345366004612fb2565b611fb9565b6103526127ca565b60008060607f00000000000000000000000000000000000000000000000000000000000000006001600160a01b03166343a266c28b6040518263ffffffff1660e01b81526004016103a591815260200190565b61012060405180830381865afa1580156103c3573d6000803e3d6000fd5b505050506040513d601f19601f820116820180604052508101906103e79190613079565b61010081015190945060009060501c6001908116146104925761048d338c8a8a808060200260200160405190810160405280939291908181526020016000905b82821015610453576104446060830286013681900381019061313b565b81526020019060010190610427565b5050505050888d602001602081019061046c919061318d565b60ff168e604001602081019061048291906131a8565b63ffffffff166120b2565b610553565b60405163d175415360e01b8152600481018c9052610553908c906001600160a01b037f0000000000000000000000000000000000000000000000000000000000000000169063d175415390602401600060405180830381865afa1580156104fd573d6000803e3d6000fd5b505050506040513d6000823e601f3d908101601f1916820160405261052591908101906131e8565b61053560408d0160208e0161318d565b60ff1661054860608e0160408f016131a8565b63ffffffff16612114565b604051632eec7b5560e11b8152600481018d90529091506000906001600160a01b037f00000000000000000000000000000000000000000000000000000000000000001690635dd8f6aa90602401602060405180830381865afa1580156105be573d6000803e3d6000fd5b505050506040513d601f19601f820116820180604052508101906105e29190613281565b6001600160a01b0316634da781a98d6040518263ffffffff1660e01b815260040161060f91815260200190565b602060405180830381865afa15801561062c573d6000803e3d6000fd5b505050506040513d601f19601f82011682018060405250810190610650919061329e565b9050808b1115610682576040516376fd574b60e11b8152600481018c9052602481018290526044015b60405180910390fd5b61010086015160521c60019081161480156106b5575060006106a987610100015160531c90565b6001600160a01b031614155b1561084c576000604051806101400160405280336001600160a01b031681526020018f6001600160a01b031681526020018e66ffffffffffffff168152602001886020015165ffffffffffff1681526020018d815260200183815260200160405180608001604052808e600001602081019061073191906132b7565b6001600160a01b031681526020018e6020016020810190610752919061318d565b60ff1681526020018e604001602081019061076d91906131a8565b63ffffffff168152602001868152508152602001610798896101000151600160509190911c81161490565b151581526020016107ae89610100015160141c90565b61ffff16815260200189905290506107cb87610100015160531c90565b6001600160a01b031663cd817cd0826040518263ffffffff1660e01b81526004016107f691906132d4565b600060405180830381865afa158015610813573d6000803e3d6000fd5b505050506040513d6000823e601f3d908101601f1916820160405261083b91908101906133ef565b919e509196509450915061085c9050565b61010086015160141c61ffff1693505b81156108715761086e828c83876121d6565b94505b82518590156108ca57835160005b818110156108c757600086828151811061089b5761089b61350f565b6020026020010151602001519050806000146108be576108bb818561353b565b93505b5060010161087f565b50505b600080336001600160a01b03166001600160a01b0316815260200190815260200160002060008e815260200190815260200160002060008c600001602081019061091491906132b7565b6001600160a01b03166001600160a01b03168152602001908152602001600020548111156109cc5780600080336001600160a01b03166001600160a01b0316815260200190815260200160002060008f815260200190815260200160002060008d600001602081019061098791906132b7565b6001600160a01b03166001600160a01b0316815260200190815260200160002054604051634fd2cdcd60e11b8152600401610679929190918252602082015260400190565b8015610aa45780600080336001600160a01b03166001600160a01b0316815260200190815260200160002060008f815260200190815260200160002060008d6000016020810190610a1d91906132b7565b6001600160a01b03166001600160a01b031681526020019081526020016000205403600080336001600160a01b03166001600160a01b0316815260200190815260200160002060008f815260200190815260200160002060008d6000016020810190610a8991906132b7565b6001600160a01b031681526020810191909152604001600020555b505050975097509750979350505050565b6040516321d1336160e11b81526004810183905260009081906001600160a01b037f000000000000000000000000000000000000000000000000000000000000000016906343a266c29060240161012060405180830381865afa158015610b20573d6000803e3d6000fd5b505050506040513d601f19601f82011682018060405250810190610b449190613079565b61010081015190915060481c600190811614610b7357604051632ac449f360e01b815260040160405180910390fd5b5050336000908152602081815260408083209483529381528382206001600160a01b0393909316825291909152908120805491905590565b610bb36127ca565b6040516321d1336160e11b8152600481018690526000907f00000000000000000000000000000000000000000000000000000000000000006001600160a01b0316906343a266c29060240161012060405180830381865afa158015610c1c573d6000803e3d6000fd5b505050506040513d601f19601f82011682018060405250810190610c409190613079565b9150610c5260608601604087016131a8565b63ffffffff168314610d3457610d2f84610c6e6012600a613638565b6001600160a01b037f000000000000000000000000000000000000000000000000000000000000000016633be273fa8a88610caf60608d0160408e016131a8565b6040516001600160e01b031960e086901b1681526004810193909352602483019190915263ffffffff166044820152601260648201526084015b602060405180830381865afa158015610d06573d6000803e3d6000fd5b505050506040513d601f19601f82011682018060405250810190610d2a919061329e565b61223e565b610d36565b835b60408051600180825281830190925291925060009190816020015b6040805160608101825260008082526020808301829052928201528252600019909201910181610d51579050509050610d8f3687900387018761313b565b81600081518110610da257610da261350f565b60200260200101819052506000610ddc338984878b6020016020810190610dc9919061318d565b60ff1661048260608e0160408f016131a8565b905080831115610e0957604051634fd2cdcd60e11b81526004810184905260248101829052604401610679565b336000908152602081815260408083208b84528252822085929091610e30908b018b6132b7565b6001600160a01b03166001600160a01b0316815260200190815260200160002054610e5b9190613644565b336000908152602081815260408083208c8452825282209190610e80908b018b6132b7565b6001600160a01b031681526020808201929092526040908101600090812093909355338352600282528083208b84528252822088918390610ec3908c018c6132b7565b6001600160a01b03168152602080820192909252604090810160009081208984015165ffffffffffff16825283528181208a8252909252902054610f07919061353b565b3360009081526002602090815260408083208d84528252822092935083929190610f33908c018c6132b7565b6001600160a01b039081168252602080830193909352604091820160009081208a85015165ffffffffffff16825284528281208b82529093528183209390935551632eec7b5560e11b8152600481018c905290917f00000000000000000000000000000000000000000000000000000000000000001690635dd8f6aa90602401602060405180830381865afa158015610fd0573d6000803e3d6000fd5b505050506040513d601f19601f82011682018060405250810190610ff49190613281565b6001600160a01b031663ffa082446040518163ffffffff1660e01b8152600401602060405180830381865afa158015611031573d6000803e3d6000fd5b505050506040513d601f19601f820116820180604052508101906110559190613281565b6001600160a01b03166329ed16cd8b8860200151338d600001602081019061107d91906132b7565b6040516001600160e01b031960e087901b168152600481019490945265ffffffffffff90921660248401526001600160a01b039081166044840152166064820152608481018a905260a401602060405180830381865afa1580156110e5573d6000803e3d6000fd5b505050506040513d601f19601f82011682018060405250810190611109919061329e565b905080821180611117575080155b1561113f57604051631913147f60e01b81526004810183905260248101829052604401610679565b5050505094509492505050565b3360009081526020818152604080832086845282528083206001600160a01b038616845290915290205461118190829061353b565b336000908152602081815260408083209683529581528582206001600160a01b0395909516825293909352929091209190915550565b6040516321d1336160e11b81526004810188905260009081906001600160a01b037f000000000000000000000000000000000000000000000000000000000000000016906343a266c29060240161012060405180830381865afa158015611222573d6000803e3d6000fd5b505050506040513d601f19601f820116820180604052508101906112469190613079565b90506000836112b4576112af8b8b8b8b808060200260200160405190810160405280939291908181526020016000905b828210156112a2576112936060830286013681900381019061313b565b81526020019060010190611276565b5050505050858b8b6120b2565b61134e565b60405163d175415360e01b8152600481018b905261134e908b906001600160a01b037f0000000000000000000000000000000000000000000000000000000000000000169063d175415390602401600060405180830381865afa15801561131f573d6000803e3d6000fd5b505050506040513d6000823e601f3d908101601f1916820160405261134791908101906131e8565b8989612114565b90508060000361136357600092505050611497565b604051632eec7b5560e11b8152600481018b90526000907f00000000000000000000000000000000000000000000000000000000000000006001600160a01b031690635dd8f6aa90602401602060405180830381865afa1580156113cb573d6000803e3d6000fd5b505050506040513d601f19601f820116820180604052508101906113ef9190613281565b6001600160a01b0316634da781a98c6040518263ffffffff1660e01b815260040161141c91815260200190565b602060405180830381865afa158015611439573d6000803e3d6000fd5b505050506040513d601f19601f8201168201806040525081019061145d919061329e565b9050808611156114735760009350505050611497565b61149182878361148887610100015160141c90565b61ffff166121d6565b93505050505b98975050505050505050565b6000816000036114b55750600061156d565b828411156114c55750600061156d565b6040516321d1336160e11b8152600481018690526000907f00000000000000000000000000000000000000000000000000000000000000006001600160a01b0316906343a266c29060240161012060405180830381865afa15801561152e573d6000803e3d6000fd5b505050506040513d601f19601f820116820180604052508101906115529190613079565b905061156983868661148885610100015160141c90565b9150505b949350505050565b6000611615847f00000000000000000000000000000000000000000000000000000000000000006001600160a01b031663d1754153876040518263ffffffff1660e01b81526004016115c991815260200190565b600060405180830381865afa1580156115e6573d6000803e3d6000fd5b505050506040513d6000823e601f3d908101601f1916820160405261160e91908101906131e8565b8585612114565b90505b9392505050565b6116276127ca565b6040516321d1336160e11b8152600481018690526000907f00000000000000000000000000000000000000000000000000000000000000006001600160a01b0316906343a266c29060240161012060405180830381865afa158015611690573d6000803e3d6000fd5b505050506040513d601f19601f820116820180604052508101906116b49190613079565b91506116c660608601604087016131a8565b63ffffffff1683146116e7576116e284610c6e6012600a613638565b6116e9565b835b336000908152602081815260408083208a84528252822092935061170f908801886132b7565b6001600160a01b03166001600160a01b031681526020019081526020016000205481111561175e57336000908152602081815260408083208984528252822083929091610987908901896132b7565b336000908152602081815260408083208984528252822083929091611785908901896132b7565b6001600160a01b0316815260208082019290925260409081016000908120543382528184528282208b835284529181209390910392916117c7908901896132b7565b6001600160a01b03168152602080820192909252604090810160009081209390935533835260018252808320898452825282208691839061180a908a018a6132b7565b6001600160a01b0316815260208082019290925260409081016000908120875165ffffffffffff168252835281812088825290925290205461184c919061353b565b3360009081526001602090815260408083208b84528252822092935083929190611878908a018a6132b7565b6001600160a01b03908116825260208083019390935260409182016000908120885165ffffffffffff16825284528281208982529093528183209390935551632eec7b5560e11b8152600481018a905290917f00000000000000000000000000000000000000000000000000000000000000001690635dd8f6aa90602401602060405180830381865afa158015611913573d6000803e3d6000fd5b505050506040513d601f19601f820116820180604052508101906119379190613281565b6001600160a01b031663ffa082446040518163ffffffff1660e01b8152600401602060405180830381865afa158015611974573d6000803e3d6000fd5b505050506040513d601f19601f820116820180604052508101906119989190613281565b6001600160a01b0316638ca53ccd898660200151338b60000160208101906119c091906132b7565b6040516001600160e01b031960e087901b168152600481019490945265ffffffffffff90921660248401526001600160a01b0390811660448401521660648201526084810188905260a401602060405180830381865afa158015611a28573d6000803e3d6000fd5b505050506040513d601f19601f82011682018060405250810190611a4c919061329e565b905080821180611a5a575080155b15611a82576040516306dfadfd60e21b81526004810183905260248101829052604401610679565b505094509492505050565b611a956127ca565b6040516321d1336160e11b8152600481018690526000906060906001600160a01b037f000000000000000000000000000000000000000000000000000000000000000016906343a266c29060240161012060405180830381865afa158015611b01573d6000803e3d6000fd5b505050506040513d601f19601f82011682018060405250810190611b259190613079565b805190935065ffffffffffff16600003611b525760405163ab28886760e01b815260040160405180910390fd5b61010083015160441c600190811603611b7e576040516316900c7560e21b815260040160405180910390fd5b61010083015160009060511c6001908116148015611bb457506000611ba885610100015160531c90565b6001600160a01b031614155b15611d0e5760408051610120810182523381526001600160a01b038c1660208201526000918101611bea368d90038d018d613657565b81526020018a66ffffffffffffff168152602001866020015165ffffffffffff168152602001896001600160a01b031681526020018660a001516001600160701b03168152602001611c4187610100015160041c90565b61ffff16815260200188888080601f01602080910402602001604051908101604052809392919081815260200183838082843760009201919091525050509152509050611c9385610100015160531c90565b6001600160a01b0316638cc35846826040518263ffffffff1660e01b8152600401611cbe91906136d2565b600060405180830381865afa158015611cdb573d6000803e3d6000fd5b505050506040513d6000823e601f3d908101601f19168201604052611d0391908101906137b0565b93509150611d1e9050565b5060a08301516001600160701b03165b815160608a0135908015611da45760005b81811015611da2576000858281518110611d4b57611d4b61350f565b602002602001015160200151905080600014611d995783811115611d8c576040516301a3406160e01b81526004810182905260248101859052604401610679565b611d968185613644565b93505b50600101611d2f565b505b508960600135600003611dbd575060009250611fad9050565b8015611e5557336000908152602081815260408083208c84528252822083929091611dea908e018e6132b7565b6001600160a01b03166001600160a01b0316815260200190815260200160002054611e15919061353b565b336000908152602081815260408083208d8452825282209190611e3a908e018e6132b7565b6001600160a01b031681526020810191909152604001600020555b81600003611e69575060009250611fad9050565b6000611e7a86610100015160241c90565b63ffffffff16611e9060608d0160408e016131a8565b63ffffffff1614611f7b577f00000000000000000000000000000000000000000000000000000000000000006001600160a01b0316633be273fa8b8d6040016020810190611ede91906131a8565b6101008a015160241c8f6020016020810190611efa919061318d565b6040516001600160e01b031960e087901b168152600481019490945263ffffffff92831660248501529116604483015260ff166064820152608401602060405180830381865afa158015611f52573d6000803e3d6000fd5b505050506040513d601f19601f82011682018060405250810190611f76919061329e565b611f96565b611f8b60408c0160208d0161318d565b611f9690600a6138bd565b9050611fa78b60600135848361223e565b94505050505b96509650969350505050565b60006120a587878787808060200260200160405190810160405280939291908181526020016000905b8282101561200e57611fff6060830286013681900381019061313b565b81526020019060010190611fe2565b50506040516321d1336160e11b8152600481018e90527f00000000000000000000000000000000000000000000000000000000000000006001600160a01b031693506343a266c29250602401905061012060405180830381865afa15801561207a573d6000803e3d6000fd5b505050506040513d601f19601f8201168201806040525081019061209e9190613079565b87876120b2565b90505b9695505050505050565b8351600090815b818110156121085760006120ea8a8a8a85815181106120da576120da61350f565b60200260200101518a8a8a612312565b905080156120ff576120fc818561353b565b93505b506001016120b9565b50509695505050505050565b8251600090815b818110156121cc578581815181106121355761213561350f565b602090810291909101015160405163cc68012760e01b81526004810189905260248101879052604481018690526001600160a01b039091169063cc68012790606401602060405180830381865afa158015612194573d6000803e3d6000fd5b505050506040513d601f19601f820116820180604052508101906121b8919061329e565b6121c2908461353b565b925060010161211b565b5050949350505050565b6000816000036121e85750600061156d565b8284106121f657508361156d565b600061220386868661223e565b905061270f19830161221657905061156d565b6115698161223061222986612710613644565b888861223e565b61223a908661353b565b6127105b60008080600019858709858702925082811083820303915050806000036122785783828161226e5761226e6138cc565b0492505050611618565b8381106122a957604051630c740aef60e31b8152600481018790526024810186905260448101859052606401610679565b60008486880960026001871981018816978890046003810283188082028403028082028403028082028403028082028403028082028403029081029092039091026000889003889004909101858311909403939093029303949094049190911702949350505050565b6001600160a01b03808716600090815260208181526040808320898452825280832088519094168352928152919020549085015160ff1683146123665761236181866020015160ff168561276d565b612368565b805b9050801580612380575081856040015163ffffffff16145b61240657612401816123946012600a613638565b6040888101519051631df139fd60e11b8152600481018b905263ffffffff909116602482015260448101869052601260648201527f00000000000000000000000000000000000000000000000000000000000000006001600160a01b031690633be273fa90608401610ce9565b612408565b805b604051632eec7b5560e11b8152600481018890529091506000906001600160a01b037f00000000000000000000000000000000000000000000000000000000000000001690635dd8f6aa90602401602060405180830381865afa158015612473573d6000803e3d6000fd5b505050506040513d601f19601f820116820180604052508101906124979190613281565b6001600160a01b031663ffa082446040518163ffffffff1660e01b8152600401602060405180830381865afa1580156124d4573d6000803e3d6000fd5b505050506040513d601f19601f820116820180604052508101906124f89190613281565b60208601518751604051634c8cafef60e11b8152600481018b905265ffffffffffff90921660248301526001600160a01b038b81166044840152908116606483015291909116906399195fde90608401600060405180830381865afa158015612565573d6000803e3d6000fd5b505050506040513d6000823e601f3d908101601f1916820160405261258d91908101906138e2565b805190915060005b818110156127605760008382815181106125b1576125b161350f565b6020908102919091018101516001600160a01b03808e1660009081526001845260408082208f835285528082208e5190931682529184528181208c5165ffffffffffff16825284528181208385015163ffffffff168252909352909120548151919250612626916001600160e01b0316613644565b6001600160e01b03168152602089015160ff1687146126635761265e81600001516001600160e01b03168a6020015160ff168961276d565b612666565b80515b6001600160e01b03168082521580612687575085816020015163ffffffff16145b612718578051612713906001600160e01b03166126a66012600a613638565b6020840151604051631df139fd60e11b8152600481018f905263ffffffff9091166024820152604481018a9052601260648201526001600160a01b037f00000000000000000000000000000000000000000000000000000000000000001690633be273fa90608401610ce9565b61271b565b80515b6001600160e01b031680825285111561274a578051612743906001600160e01b031686613644565b9450612757565b60009450505050506120a8565b50600101612595565b5050509695505050505050565b600082820361277d575082611618565b828211156127ab5761278f8383613644565b61279a90600a613638565b6127a490856139ac565b9050611618565b6127b58284613644565b6127c090600a613638565b6127a490856139c3565b6040805161012081018252600080825260208201819052918101829052606081018290526080810182905260a0810182905260c0810182905260e0810182905261010081019190915290565b6001600160a01b038116811461282b57600080fd5b50565b60006060828403121561284057600080fd5b50919050565b60008083601f84011261285857600080fd5b5081356001600160401b0381111561286f57600080fd5b60208301915083602060608302850101111561288a57600080fd5b9250929050565b634e487b7160e01b600052604160045260246000fd5b60405161012081016001600160401b03811182821017156128ca576128ca612891565b60405290565b604051606081016001600160401b03811182821017156128ca576128ca612891565b604080519081016001600160401b03811182821017156128ca576128ca612891565b604051601f8201601f191681016001600160401b038111828210171561293c5761293c612891565b604052919050565b60006001600160401b0382111561295d5761295d612891565b50601f01601f191660200190565b6000806000806000806000610100888a03121561298757600080fd5b873561299281612816565b965060208801359550604088013594506129af8960608a0161282e565b935060c08801356001600160401b03808211156129cb57600080fd5b6129d78b838c01612846565b909550935060e08a01359150808211156129f057600080fd5b508801601f81018a13612a0257600080fd5b8035612a15612a1082612944565b612914565b8181528b6020838501011115612a2a57600080fd5b8160208401602083013760006020838301015280935050505092959891949750929550565b65ffffffffffff808251168352806020830151166020840152806040830151166040840152506060810151612a8e606084018265ffffffffffff169052565b506080810151612aa6608084018263ffffffff169052565b5060a0810151612ac160a08401826001600160701b03169052565b5060c0810151612ad960c084018263ffffffff169052565b5060e0810151612af460e08401826001600160a01b03169052565b5061010090810151910152565b60005b83811015612b1c578181015183820152602001612b04565b50506000910152565b60008151808452612b3d816020860160208601612b01565b601f01601f19169290920160200192915050565b6000610180808301612b638489612a4f565b86610120850152856101408501528161016085015280915084518082526101a091508185019250818160051b8601019150602080870160005b83811015612bf45787850361019f19018652815180516001600160a01b031686528381015184870152604090810151606091870182905290612be081880183612b25565b978501979650505090820190600101612b9c565b50929a9950505050505050505050565b60008060408385031215612c1757600080fd5b823591506020830135612c2981612816565b809150509250929050565b60008060008060c08587031215612c4a57600080fd5b84359350612c5b866020870161282e565b939693955050505060808201359160a0013590565b6101408101612c7f8285612a4f565b826101208301529392505050565b600080600060608486031215612ca257600080fd5b8335612cad81612816565b9250602084013591506040840135612cc481612816565b809150509250925092565b600080600060608486031215612ce457600080fd5b833592506020840135612cf681612816565b929592945050506040919091013590565b600080600080600060a08688031215612d1f57600080fd5b8535612d2a81612816565b9450602086013593506040860135612d4181612816565b94979396509394606081013594506080013592915050565b60008060008060008060008060e0898b031215612d7557600080fd5b8835612d8081612816565b97506020890135965060408901356001600160401b03811115612da257600080fd5b612dae8b828c01612846565b909750955050606089013593506080890135925060a0890135915060c08901358015158114612ddc57600080fd5b809150509295985092959890939650565b60008060008060808587031215612e0357600080fd5b5050823594602084013594506040840135936060013592509050565b600080600060608486031215612e3457600080fd5b505081359360208301359350604090920135919050565b600080600080600080868803610100811215612e6657600080fd5b8735612e7181612816565b96506080601f1982011215612e8557600080fd5b5060208701945060a0870135935060c0870135612ea181612816565b925060e08701356001600160401b0380821115612ebd57600080fd5b818901915089601f830112612ed157600080fd5b813581811115612ee057600080fd5b8a6020828501011115612ef257600080fd5b6020830194508093505050509295509295509295565b6000610160808301612f1a8488612a4f565b610120840186905261014084019190915283519081905261018080840191600581901b850190910190602080870160005b83811015612fa35787850361017f19018652815180516001600160a01b031686528381015184870152604090810151606091870182905290612f8f81880183612b25565b978501979650505090820190600101612f4b565b50929998505050505050505050565b60008060008060008060a08789031215612fcb57600080fd5b8635612fd681612816565b95506020870135945060408701356001600160401b03811115612ff857600080fd5b61300489828a01612846565b979a9699509760608101359660809091013595509350505050565b805165ffffffffffff8116811461303557600080fd5b919050565b63ffffffff8116811461282b57600080fd5b80516130358161303a565b80516001600160701b038116811461303557600080fd5b805161303581612816565b6000610120828403121561308c57600080fd5b6130946128a7565b61309d8361301f565b81526130ab6020840161301f565b60208201526130bc6040840161301f565b60408201526130cd6060840161301f565b60608201526130de6080840161304c565b60808201526130ef60a08401613057565b60a082015261310060c0840161304c565b60c082015261311160e0840161306e565b60e0820152610100928301519281019290925250919050565b803560ff8116811461303557600080fd5b60006060828403121561314d57600080fd5b6131556128d0565b823561316081612816565b815261316e6020840161312a565b602082015260408301356131818161303a565b60408201529392505050565b60006020828403121561319f57600080fd5b6116188261312a565b6000602082840312156131ba57600080fd5b81356116188161303a565b60006001600160401b038211156131de576131de612891565b5060051b60200190565b600060208083850312156131fb57600080fd5b82516001600160401b0381111561321157600080fd5b8301601f8101851361322257600080fd5b8051613230612a10826131c5565b81815260059190911b8201830190838101908783111561324f57600080fd5b928401925b8284101561327657835161326781612816565b82529284019290840190613254565b979650505050505050565b60006020828403121561329357600080fd5b815161161881612816565b6000602082840312156132b057600080fd5b5051919050565b6000602082840312156132c957600080fd5b813561161881612816565b602081526132ee6020820183516001600160a01b03169052565b6000602083015161330a60408401826001600160a01b03169052565b506040830151606083015260608301516080830152608083015160a083015260a083015160c083015260c083015161337560e084018280516001600160a01b0316825260208082015160ff169083015260408082015163ffffffff1690830152606090810151910152565b5060e083015115156101608301526101008301516101808301526101208301516101a08084015261156d6101c0840182612b25565b600082601f8301126133bb57600080fd5b81516133c9612a1082612944565b8181528460208386010111156133de57600080fd5b61156d826020830160208701612b01565b6000806000806080858703121561340557600080fd5b84519350602085015192506040850151915060608501516001600160401b038082111561343157600080fd5b818701915087601f83011261344557600080fd5b8151613453612a10826131c5565b8082825260208201915060208360051b86010192508a83111561347557600080fd5b602085015b838110156134ff5780518581111561349157600080fd5b86016060818e03601f190112156134a757600080fd5b6134af6128d0565b60208201516134bd81612816565b8152604082015160208201526060820151878111156134db57600080fd5b6134ea8f6020838601016133aa565b6040830152508452506020928301920161347a565b50979a9699509497505050505050565b634e487b7160e01b600052603260045260246000fd5b634e487b7160e01b600052601160045260246000fd5b8082018082111561354e5761354e613525565b92915050565b600181815b8085111561358f57816000190482111561357557613575613525565b8085161561358257918102915b93841c9390800290613559565b509250929050565b6000826135a65750600161354e565b816135b35750600061354e565b81600181146135c957600281146135d3576135ef565b600191505061354e565b60ff8411156135e4576135e4613525565b50506001821b61354e565b5060208310610133831016604e8410600b8410161715613612575081810a61354e565b61361c8383613554565b806000190482111561363057613630613525565b029392505050565b60006116188383613597565b8181038181111561354e5761354e613525565b60006080828403121561366957600080fd5b604051608081018181106001600160401b038211171561368b5761368b612891565b604052823561369981612816565b81526136a76020840161312a565b602082015260408301356136ba8161303a565b60408201526060928301359281019290925250919050565b602081526136ec6020820183516001600160a01b03169052565b6000602083015161370860408401826001600160a01b03169052565b50604083015161374b606084018280516001600160a01b0316825260208082015160ff169083015260408082015163ffffffff1690830152606090810151910152565b50606083015160e08301526080830151610100818185015260a085015191506137806101208501836001600160a01b03169052565b60c085015161014085015260e085015161016085015284015161018080850152905061156d6101a0840182612b25565b600080604083850312156137c357600080fd5b825191506020808401516001600160401b03808211156137e257600080fd5b818601915086601f8301126137f657600080fd5b8151613804612a10826131c5565b81815260059190911b8301840190848101908983111561382357600080fd5b8585015b838110156138ac5780518581111561383f5760008081fd5b86016060818d03601f19018113156138575760008081fd5b61385f6128d0565b8983015161386c81612816565b815260408301518a82015290820151908782111561388a5760008081fd5b6138988e8b848601016133aa565b604082015285525050918601918601613827565b508096505050505050509250929050565b600061161860ff841683613597565b634e487b7160e01b600052601260045260246000fd5b600060208083850312156138f557600080fd5b82516001600160401b0381111561390b57600080fd5b8301601f8101851361391c57600080fd5b805161392a612a10826131c5565b81815260069190911b8201830190838101908783111561394957600080fd5b928401925b8284101561327657604084890312156139675760008081fd5b61396f6128f2565b84516001600160e01b03811681146139875760008081fd5b8152848601516139968161303a565b818701528252604093909301929084019061394e565b808202811582820484141761354e5761354e613525565b6000826139e057634e487b7160e01b600052601260045260246000fd5b50049056fea2646970667358221220fd6552c642f12453f4cc6d6438d5ccfef877b40c48c2e5b8bcc4f329a6db1c6164736f6c63430008170033",
	"deployedBytecode": "0x608060405234801561001057600080fd5b50600436106101005760003560e01c80638e86e7a411610097578063c0920f3811610066578063c0920f38146102db578063c59dfadb146102ee578063d4a1b4b114610310578063d60d1a091461033757600080fd5b80638e86e7a4146102605780639e0a5d5914610273578063ab5f3a0114610286578063b7cc53b31461029957600080fd5b8063467f4cb9116100d3578063467f4cb9146101b257806351fc1735146101e2578063568ecef1146101f757806388bc2ef31461023957600080fd5b80630d346b811461010557806319781e23146101315780631eabcd341461015257806330795ef814610191575b600080fd5b61011861011336600461296b565b61034a565b6040516101289493929190612b51565b60405180910390f35b61014461013f366004612c04565b610ab5565b604051908152602001610128565b6101797f0000000000000000000000007769087dcab8c6124a4305511b90582431f10e5381565b6040516001600160a01b039091168152602001610128565b6101a461019f366004612c34565b610bab565b604051610128929190612c70565b6101446101c0366004612c8d565b6000602081815293815260408082208552928152828120909352825290205481565b6101f56101f0366004612ccf565b61114c565b005b610144610205366004612d07565b6002602090815260009586526040808720825294865284862081529285528385208352908452828420909152825290205481565b6101797f000000000000000000000000e0b2860344ba476e12ed1d559656da9d04f1ad2281565b61014461026e366004612d59565b6111b7565b610144610281366004612ded565b6114a3565b610144610294366004612e1f565b611575565b6101446102a7366004612d07565b6001602090815260009586526040808720825294865284862081529285528385208352908452828420909152825290205481565b6101a46102e9366004612c34565b61161f565b6103016102fc366004612e4b565b611a8d565b60405161012893929190612f08565b6101797f0000000000000000000000008de478a6071ad66bf99c770aea0cedcddda72f4381565b610144610345366004612fb2565b611fb9565b6103526127ca565b60008060607f0000000000000000000000008de478a6071ad66bf99c770aea0cedcddda72f436001600160a01b03166343a266c28b6040518263ffffffff1660e01b81526004016103a591815260200190565b61012060405180830381865afa1580156103c3573d6000803e3d6000fd5b505050506040513d601f19601f820116820180604052508101906103e79190613079565b61010081015190945060009060501c6001908116146104925761048d338c8a8a808060200260200160405190810160405280939291908181526020016000905b82821015610453576104446060830286013681900381019061313b565b81526020019060010190610427565b5050505050888d602001602081019061046c919061318d565b60ff168e604001602081019061048291906131a8565b63ffffffff166120b2565b610553565b60405163d175415360e01b8152600481018c9052610553908c906001600160a01b037f000000000000000000000000e0b2860344ba476e12ed1d559656da9d04f1ad22169063d175415390602401600060405180830381865afa1580156104fd573d6000803e3d6000fd5b505050506040513d6000823e601f3d908101601f1916820160405261052591908101906131e8565b61053560408d0160208e0161318d565b60ff1661054860608e0160408f016131a8565b63ffffffff16612114565b604051632eec7b5560e11b8152600481018d90529091506000906001600160a01b037f000000000000000000000000e0b2860344ba476e12ed1d559656da9d04f1ad221690635dd8f6aa90602401602060405180830381865afa1580156105be573d6000803e3d6000fd5b505050506040513d601f19601f820116820180604052508101906105e29190613281565b6001600160a01b0316634da781a98d6040518263ffffffff1660e01b815260040161060f91815260200190565b602060405180830381865afa15801561062c573d6000803e3d6000fd5b505050506040513d601f19601f82011682018060405250810190610650919061329e565b9050808b1115610682576040516376fd574b60e11b8152600481018c9052602481018290526044015b60405180910390fd5b61010086015160521c60019081161480156106b5575060006106a987610100015160531c90565b6001600160a01b031614155b1561084c576000604051806101400160405280336001600160a01b031681526020018f6001600160a01b031681526020018e66ffffffffffffff168152602001886020015165ffffffffffff1681526020018d815260200183815260200160405180608001604052808e600001602081019061073191906132b7565b6001600160a01b031681526020018e6020016020810190610752919061318d565b60ff1681526020018e604001602081019061076d91906131a8565b63ffffffff168152602001868152508152602001610798896101000151600160509190911c81161490565b151581526020016107ae89610100015160141c90565b61ffff16815260200189905290506107cb87610100015160531c90565b6001600160a01b031663cd817cd0826040518263ffffffff1660e01b81526004016107f691906132d4565b600060405180830381865afa158015610813573d6000803e3d6000fd5b505050506040513d6000823e601f3d908101601f1916820160405261083b91908101906133ef565b919e509196509450915061085c9050565b61010086015160141c61ffff1693505b81156108715761086e828c83876121d6565b94505b82518590156108ca57835160005b818110156108c757600086828151811061089b5761089b61350f565b6020026020010151602001519050806000146108be576108bb818561353b565b93505b5060010161087f565b50505b600080336001600160a01b03166001600160a01b0316815260200190815260200160002060008e815260200190815260200160002060008c600001602081019061091491906132b7565b6001600160a01b03166001600160a01b03168152602001908152602001600020548111156109cc5780600080336001600160a01b03166001600160a01b0316815260200190815260200160002060008f815260200190815260200160002060008d600001602081019061098791906132b7565b6001600160a01b03166001600160a01b0316815260200190815260200160002054604051634fd2cdcd60e11b8152600401610679929190918252602082015260400190565b8015610aa45780600080336001600160a01b03166001600160a01b0316815260200190815260200160002060008f815260200190815260200160002060008d6000016020810190610a1d91906132b7565b6001600160a01b03166001600160a01b031681526020019081526020016000205403600080336001600160a01b03166001600160a01b0316815260200190815260200160002060008f815260200190815260200160002060008d6000016020810190610a8991906132b7565b6001600160a01b031681526020810191909152604001600020555b505050975097509750979350505050565b6040516321d1336160e11b81526004810183905260009081906001600160a01b037f0000000000000000000000008de478a6071ad66bf99c770aea0cedcddda72f4316906343a266c29060240161012060405180830381865afa158015610b20573d6000803e3d6000fd5b505050506040513d601f19601f82011682018060405250810190610b449190613079565b61010081015190915060481c600190811614610b7357604051632ac449f360e01b815260040160405180910390fd5b5050336000908152602081815260408083209483529381528382206001600160a01b0393909316825291909152908120805491905590565b610bb36127ca565b6040516321d1336160e11b8152600481018690526000907f0000000000000000000000008de478a6071ad66bf99c770aea0cedcddda72f436001600160a01b0316906343a266c29060240161012060405180830381865afa158015610c1c573d6000803e3d6000fd5b505050506040513d601f19601f82011682018060405250810190610c409190613079565b9150610c5260608601604087016131a8565b63ffffffff168314610d3457610d2f84610c6e6012600a613638565b6001600160a01b037f0000000000000000000000007769087dcab8c6124a4305511b90582431f10e5316633be273fa8a88610caf60608d0160408e016131a8565b6040516001600160e01b031960e086901b1681526004810193909352602483019190915263ffffffff166044820152601260648201526084015b602060405180830381865afa158015610d06573d6000803e3d6000fd5b505050506040513d601f19601f82011682018060405250810190610d2a919061329e565b61223e565b610d36565b835b60408051600180825281830190925291925060009190816020015b6040805160608101825260008082526020808301829052928201528252600019909201910181610d51579050509050610d8f3687900387018761313b565b81600081518110610da257610da261350f565b60200260200101819052506000610ddc338984878b6020016020810190610dc9919061318d565b60ff1661048260608e0160408f016131a8565b905080831115610e0957604051634fd2cdcd60e11b81526004810184905260248101829052604401610679565b336000908152602081815260408083208b84528252822085929091610e30908b018b6132b7565b6001600160a01b03166001600160a01b0316815260200190815260200160002054610e5b9190613644565b336000908152602081815260408083208c8452825282209190610e80908b018b6132b7565b6001600160a01b031681526020808201929092526040908101600090812093909355338352600282528083208b84528252822088918390610ec3908c018c6132b7565b6001600160a01b03168152602080820192909252604090810160009081208984015165ffffffffffff16825283528181208a8252909252902054610f07919061353b565b3360009081526002602090815260408083208d84528252822092935083929190610f33908c018c6132b7565b6001600160a01b039081168252602080830193909352604091820160009081208a85015165ffffffffffff16825284528281208b82529093528183209390935551632eec7b5560e11b8152600481018c905290917f000000000000000000000000e0b2860344ba476e12ed1d559656da9d04f1ad221690635dd8f6aa90602401602060405180830381865afa158015610fd0573d6000803e3d6000fd5b505050506040513d601f19601f82011682018060405250810190610ff49190613281565b6001600160a01b031663ffa082446040518163ffffffff1660e01b8152600401602060405180830381865afa158015611031573d6000803e3d6000fd5b505050506040513d601f19601f820116820180604052508101906110559190613281565b6001600160a01b03166329ed16cd8b8860200151338d600001602081019061107d91906132b7565b6040516001600160e01b031960e087901b168152600481019490945265ffffffffffff90921660248401526001600160a01b039081166044840152166064820152608481018a905260a401602060405180830381865afa1580156110e5573d6000803e3d6000fd5b505050506040513d601f19601f82011682018060405250810190611109919061329e565b905080821180611117575080155b1561113f57604051631913147f60e01b81526004810183905260248101829052604401610679565b5050505094509492505050565b3360009081526020818152604080832086845282528083206001600160a01b038616845290915290205461118190829061353b565b336000908152602081815260408083209683529581528582206001600160a01b0395909516825293909352929091209190915550565b6040516321d1336160e11b81526004810188905260009081906001600160a01b037f0000000000000000000000008de478a6071ad66bf99c770aea0cedcddda72f4316906343a266c29060240161012060405180830381865afa158015611222573d6000803e3d6000fd5b505050506040513d601f19601f820116820180604052508101906112469190613079565b90506000836112b4576112af8b8b8b8b808060200260200160405190810160405280939291908181526020016000905b828210156112a2576112936060830286013681900381019061313b565b81526020019060010190611276565b5050505050858b8b6120b2565b61134e565b60405163d175415360e01b8152600481018b905261134e908b906001600160a01b037f000000000000000000000000e0b2860344ba476e12ed1d559656da9d04f1ad22169063d175415390602401600060405180830381865afa15801561131f573d6000803e3d6000fd5b505050506040513d6000823e601f3d908101601f1916820160405261134791908101906131e8565b8989612114565b90508060000361136357600092505050611497565b604051632eec7b5560e11b8152600481018b90526000907f000000000000000000000000e0b2860344ba476e12ed1d559656da9d04f1ad226001600160a01b031690635dd8f6aa90602401602060405180830381865afa1580156113cb573d6000803e3d6000fd5b505050506040513d601f19601f820116820180604052508101906113ef9190613281565b6001600160a01b0316634da781a98c6040518263ffffffff1660e01b815260040161141c91815260200190565b602060405180830381865afa158015611439573d6000803e3d6000fd5b505050506040513d601f19601f8201168201806040525081019061145d919061329e565b9050808611156114735760009350505050611497565b61149182878361148887610100015160141c90565b61ffff166121d6565b93505050505b98975050505050505050565b6000816000036114b55750600061156d565b828411156114c55750600061156d565b6040516321d1336160e11b8152600481018690526000907f0000000000000000000000008de478a6071ad66bf99c770aea0cedcddda72f436001600160a01b0316906343a266c29060240161012060405180830381865afa15801561152e573d6000803e3d6000fd5b505050506040513d601f19601f820116820180604052508101906115529190613079565b905061156983868661148885610100015160141c90565b9150505b949350505050565b6000611615847f000000000000000000000000e0b2860344ba476e12ed1d559656da9d04f1ad226001600160a01b031663d1754153876040518263ffffffff1660e01b81526004016115c991815260200190565b600060405180830381865afa1580156115e6573d6000803e3d6000fd5b505050506040513d6000823e601f3d908101601f1916820160405261160e91908101906131e8565b8585612114565b90505b9392505050565b6116276127ca565b6040516321d1336160e11b8152600481018690526000907f0000000000000000000000008de478a6071ad66bf99c770aea0cedcddda72f436001600160a01b0316906343a266c29060240161012060405180830381865afa158015611690573d6000803e3d6000fd5b505050506040513d601f19601f820116820180604052508101906116b49190613079565b91506116c660608601604087016131a8565b63ffffffff1683146116e7576116e284610c6e6012600a613638565b6116e9565b835b336000908152602081815260408083208a84528252822092935061170f908801886132b7565b6001600160a01b03166001600160a01b031681526020019081526020016000205481111561175e57336000908152602081815260408083208984528252822083929091610987908901896132b7565b336000908152602081815260408083208984528252822083929091611785908901896132b7565b6001600160a01b0316815260208082019290925260409081016000908120543382528184528282208b835284529181209390910392916117c7908901896132b7565b6001600160a01b03168152602080820192909252604090810160009081209390935533835260018252808320898452825282208691839061180a908a018a6132b7565b6001600160a01b0316815260208082019290925260409081016000908120875165ffffffffffff168252835281812088825290925290205461184c919061353b565b3360009081526001602090815260408083208b84528252822092935083929190611878908a018a6132b7565b6001600160a01b03908116825260208083019390935260409182016000908120885165ffffffffffff16825284528281208982529093528183209390935551632eec7b5560e11b8152600481018a905290917f000000000000000000000000e0b2860344ba476e12ed1d559656da9d04f1ad221690635dd8f6aa90602401602060405180830381865afa158015611913573d6000803e3d6000fd5b505050506040513d601f19601f820116820180604052508101906119379190613281565b6001600160a01b031663ffa082446040518163ffffffff1660e01b8152600401602060405180830381865afa158015611974573d6000803e3d6000fd5b505050506040513d601f19601f820116820180604052508101906119989190613281565b6001600160a01b0316638ca53ccd898660200151338b60000160208101906119c091906132b7565b6040516001600160e01b031960e087901b168152600481019490945265ffffffffffff90921660248401526001600160a01b0390811660448401521660648201526084810188905260a401602060405180830381865afa158015611a28573d6000803e3d6000fd5b505050506040513d601f19601f82011682018060405250810190611a4c919061329e565b905080821180611a5a575080155b15611a82576040516306dfadfd60e21b81526004810183905260248101829052604401610679565b505094509492505050565b611a956127ca565b6040516321d1336160e11b8152600481018690526000906060906001600160a01b037f0000000000000000000000008de478a6071ad66bf99c770aea0cedcddda72f4316906343a266c29060240161012060405180830381865afa158015611b01573d6000803e3d6000fd5b505050506040513d601f19601f82011682018060405250810190611b259190613079565b805190935065ffffffffffff16600003611b525760405163ab28886760e01b815260040160405180910390fd5b61010083015160441c600190811603611b7e576040516316900c7560e21b815260040160405180910390fd5b61010083015160009060511c6001908116148015611bb457506000611ba885610100015160531c90565b6001600160a01b031614155b15611d0e5760408051610120810182523381526001600160a01b038c1660208201526000918101611bea368d90038d018d613657565b81526020018a66ffffffffffffff168152602001866020015165ffffffffffff168152602001896001600160a01b031681526020018660a001516001600160701b03168152602001611c4187610100015160041c90565b61ffff16815260200188888080601f01602080910402602001604051908101604052809392919081815260200183838082843760009201919091525050509152509050611c9385610100015160531c90565b6001600160a01b0316638cc35846826040518263ffffffff1660e01b8152600401611cbe91906136d2565b600060405180830381865afa158015611cdb573d6000803e3d6000fd5b505050506040513d6000823e601f3d908101601f19168201604052611d0391908101906137b0565b93509150611d1e9050565b5060a08301516001600160701b03165b815160608a0135908015611da45760005b81811015611da2576000858281518110611d4b57611d4b61350f565b602002602001015160200151905080600014611d995783811115611d8c576040516301a3406160e01b81526004810182905260248101859052604401610679565b611d968185613644565b93505b50600101611d2f565b505b508960600135600003611dbd575060009250611fad9050565b8015611e5557336000908152602081815260408083208c84528252822083929091611dea908e018e6132b7565b6001600160a01b03166001600160a01b0316815260200190815260200160002054611e15919061353b565b336000908152602081815260408083208d8452825282209190611e3a908e018e6132b7565b6001600160a01b031681526020810191909152604001600020555b81600003611e69575060009250611fad9050565b6000611e7a86610100015160241c90565b63ffffffff16611e9060608d0160408e016131a8565b63ffffffff1614611f7b577f0000000000000000000000007769087dcab8c6124a4305511b90582431f10e536001600160a01b0316633be273fa8b8d6040016020810190611ede91906131a8565b6101008a015160241c8f6020016020810190611efa919061318d565b6040516001600160e01b031960e087901b168152600481019490945263ffffffff92831660248501529116604483015260ff166064820152608401602060405180830381865afa158015611f52573d6000803e3d6000fd5b505050506040513d601f19601f82011682018060405250810190611f76919061329e565b611f96565b611f8b60408c0160208d0161318d565b611f9690600a6138bd565b9050611fa78b60600135848361223e565b94505050505b96509650969350505050565b60006120a587878787808060200260200160405190810160405280939291908181526020016000905b8282101561200e57611fff6060830286013681900381019061313b565b81526020019060010190611fe2565b50506040516321d1336160e11b8152600481018e90527f0000000000000000000000008de478a6071ad66bf99c770aea0cedcddda72f436001600160a01b031693506343a266c29250602401905061012060405180830381865afa15801561207a573d6000803e3d6000fd5b505050506040513d601f19601f8201168201806040525081019061209e9190613079565b87876120b2565b90505b9695505050505050565b8351600090815b818110156121085760006120ea8a8a8a85815181106120da576120da61350f565b60200260200101518a8a8a612312565b905080156120ff576120fc818561353b565b93505b506001016120b9565b50509695505050505050565b8251600090815b818110156121cc578581815181106121355761213561350f565b602090810291909101015160405163cc68012760e01b81526004810189905260248101879052604481018690526001600160a01b039091169063cc68012790606401602060405180830381865afa158015612194573d6000803e3d6000fd5b505050506040513d601f19601f820116820180604052508101906121b8919061329e565b6121c2908461353b565b925060010161211b565b5050949350505050565b6000816000036121e85750600061156d565b8284106121f657508361156d565b600061220386868661223e565b905061270f19830161221657905061156d565b6115698161223061222986612710613644565b888861223e565b61223a908661353b565b6127105b60008080600019858709858702925082811083820303915050806000036122785783828161226e5761226e6138cc565b0492505050611618565b8381106122a957604051630c740aef60e31b8152600481018790526024810186905260448101859052606401610679565b60008486880960026001871981018816978890046003810283188082028403028082028403028082028403028082028403028082028403029081029092039091026000889003889004909101858311909403939093029303949094049190911702949350505050565b6001600160a01b03808716600090815260208181526040808320898452825280832088519094168352928152919020549085015160ff1683146123665761236181866020015160ff168561276d565b612368565b805b9050801580612380575081856040015163ffffffff16145b61240657612401816123946012600a613638565b6040888101519051631df139fd60e11b8152600481018b905263ffffffff909116602482015260448101869052601260648201527f0000000000000000000000007769087dcab8c6124a4305511b90582431f10e536001600160a01b031690633be273fa90608401610ce9565b612408565b805b604051632eec7b5560e11b8152600481018890529091506000906001600160a01b037f000000000000000000000000e0b2860344ba476e12ed1d559656da9d04f1ad221690635dd8f6aa90602401602060405180830381865afa158015612473573d6000803e3d6000fd5b505050506040513d601f19601f820116820180604052508101906124979190613281565b6001600160a01b031663ffa082446040518163ffffffff1660e01b8152600401602060405180830381865afa1580156124d4573d6000803e3d6000fd5b505050506040513d601f19601f820116820180604052508101906124f89190613281565b60208601518751604051634c8cafef60e11b8152600481018b905265ffffffffffff90921660248301526001600160a01b038b81166044840152908116606483015291909116906399195fde90608401600060405180830381865afa158015612565573d6000803e3d6000fd5b505050506040513d6000823e601f3d908101601f1916820160405261258d91908101906138e2565b805190915060005b818110156127605760008382815181106125b1576125b161350f565b6020908102919091018101516001600160a01b03808e1660009081526001845260408082208f835285528082208e5190931682529184528181208c5165ffffffffffff16825284528181208385015163ffffffff168252909352909120548151919250612626916001600160e01b0316613644565b6001600160e01b03168152602089015160ff1687146126635761265e81600001516001600160e01b03168a6020015160ff168961276d565b612666565b80515b6001600160e01b03168082521580612687575085816020015163ffffffff16145b612718578051612713906001600160e01b03166126a66012600a613638565b6020840151604051631df139fd60e11b8152600481018f905263ffffffff9091166024820152604481018a9052601260648201526001600160a01b037f0000000000000000000000007769087dcab8c6124a4305511b90582431f10e531690633be273fa90608401610ce9565b61271b565b80515b6001600160e01b031680825285111561274a578051612743906001600160e01b031686613644565b9450612757565b60009450505050506120a8565b50600101612595565b5050509695505050505050565b600082820361277d575082611618565b828211156127ab5761278f8383613644565b61279a90600a613638565b6127a490856139ac565b9050611618565b6127b58284613644565b6127c090600a613638565b6127a490856139c3565b6040805161012081018252600080825260208201819052918101829052606081018290526080810182905260a0810182905260c0810182905260e0810182905261010081019190915290565b6001600160a01b038116811461282b57600080fd5b50565b60006060828403121561284057600080fd5b50919050565b60008083601f84011261285857600080fd5b5081356001600160401b0381111561286f57600080fd5b60208301915083602060608302850101111561288a57600080fd5b9250929050565b634e487b7160e01b600052604160045260246000fd5b60405161012081016001600160401b03811182821017156128ca576128ca612891565b60405290565b604051606081016001600160401b03811182821017156128ca576128ca612891565b604080519081016001600160401b03811182821017156128ca576128ca612891565b604051601f8201601f191681016001600160401b038111828210171561293c5761293c612891565b604052919050565b60006001600160401b0382111561295d5761295d612891565b50601f01601f191660200190565b6000806000806000806000610100888a03121561298757600080fd5b873561299281612816565b965060208801359550604088013594506129af8960608a0161282e565b935060c08801356001600160401b03808211156129cb57600080fd5b6129d78b838c01612846565b909550935060e08a01359150808211156129f057600080fd5b508801601f81018a13612a0257600080fd5b8035612a15612a1082612944565b612914565b8181528b6020838501011115612a2a57600080fd5b8160208401602083013760006020838301015280935050505092959891949750929550565b65ffffffffffff808251168352806020830151166020840152806040830151166040840152506060810151612a8e606084018265ffffffffffff169052565b506080810151612aa6608084018263ffffffff169052565b5060a0810151612ac160a08401826001600160701b03169052565b5060c0810151612ad960c084018263ffffffff169052565b5060e0810151612af460e08401826001600160a01b03169052565b5061010090810151910152565b60005b83811015612b1c578181015183820152602001612b04565b50506000910152565b60008151808452612b3d816020860160208601612b01565b601f01601f19169290920160200192915050565b6000610180808301612b638489612a4f565b86610120850152856101408501528161016085015280915084518082526101a091508185019250818160051b8601019150602080870160005b83811015612bf45787850361019f19018652815180516001600160a01b031686528381015184870152604090810151606091870182905290612be081880183612b25565b978501979650505090820190600101612b9c565b50929a9950505050505050505050565b60008060408385031215612c1757600080fd5b823591506020830135612c2981612816565b809150509250929050565b60008060008060c08587031215612c4a57600080fd5b84359350612c5b866020870161282e565b939693955050505060808201359160a0013590565b6101408101612c7f8285612a4f565b826101208301529392505050565b600080600060608486031215612ca257600080fd5b8335612cad81612816565b9250602084013591506040840135612cc481612816565b809150509250925092565b600080600060608486031215612ce457600080fd5b833592506020840135612cf681612816565b929592945050506040919091013590565b600080600080600060a08688031215612d1f57600080fd5b8535612d2a81612816565b9450602086013593506040860135612d4181612816565b94979396509394606081013594506080013592915050565b60008060008060008060008060e0898b031215612d7557600080fd5b8835612d8081612816565b97506020890135965060408901356001600160401b03811115612da257600080fd5b612dae8b828c01612846565b909750955050606089013593506080890135925060a0890135915060c08901358015158114612ddc57600080fd5b809150509295985092959890939650565b60008060008060808587031215612e0357600080fd5b5050823594602084013594506040840135936060013592509050565b600080600060608486031215612e3457600080fd5b505081359360208301359350604090920135919050565b600080600080600080868803610100811215612e6657600080fd5b8735612e7181612816565b96506080601f1982011215612e8557600080fd5b5060208701945060a0870135935060c0870135612ea181612816565b925060e08701356001600160401b0380821115612ebd57600080fd5b818901915089601f830112612ed157600080fd5b813581811115612ee057600080fd5b8a6020828501011115612ef257600080fd5b6020830194508093505050509295509295509295565b6000610160808301612f1a8488612a4f565b610120840186905261014084019190915283519081905261018080840191600581901b850190910190602080870160005b83811015612fa35787850361017f19018652815180516001600160a01b031686528381015184870152604090810151606091870182905290612f8f81880183612b25565b978501979650505090820190600101612f4b565b50929998505050505050505050565b60008060008060008060a08789031215612fcb57600080fd5b8635612fd681612816565b95506020870135945060408701356001600160401b03811115612ff857600080fd5b61300489828a01612846565b979a9699509760608101359660809091013595509350505050565b805165ffffffffffff8116811461303557600080fd5b919050565b63ffffffff8116811461282b57600080fd5b80516130358161303a565b80516001600160701b038116811461303557600080fd5b805161303581612816565b6000610120828403121561308c57600080fd5b6130946128a7565b61309d8361301f565b81526130ab6020840161301f565b60208201526130bc6040840161301f565b60408201526130cd6060840161301f565b60608201526130de6080840161304c565b60808201526130ef60a08401613057565b60a082015261310060c0840161304c565b60c082015261311160e0840161306e565b60e0820152610100928301519281019290925250919050565b803560ff8116811461303557600080fd5b60006060828403121561314d57600080fd5b6131556128d0565b823561316081612816565b815261316e6020840161312a565b602082015260408301356131818161303a565b60408201529392505050565b60006020828403121561319f57600080fd5b6116188261312a565b6000602082840312156131ba57600080fd5b81356116188161303a565b60006001600160401b038211156131de576131de612891565b5060051b60200190565b600060208083850312156131fb57600080fd5b82516001600160401b0381111561321157600080fd5b8301601f8101851361322257600080fd5b8051613230612a10826131c5565b81815260059190911b8201830190838101908783111561324f57600080fd5b928401925b8284101561327657835161326781612816565b82529284019290840190613254565b979650505050505050565b60006020828403121561329357600080fd5b815161161881612816565b6000602082840312156132b057600080fd5b5051919050565b6000602082840312156132c957600080fd5b813561161881612816565b602081526132ee6020820183516001600160a01b03169052565b6000602083015161330a60408401826001600160a01b03169052565b506040830151606083015260608301516080830152608083015160a083015260a083015160c083015260c083015161337560e084018280516001600160a01b0316825260208082015160ff169083015260408082015163ffffffff1690830152606090810151910152565b5060e083015115156101608301526101008301516101808301526101208301516101a08084015261156d6101c0840182612b25565b600082601f8301126133bb57600080fd5b81516133c9612a1082612944565b8181528460208386010111156133de57600080fd5b61156d826020830160208701612b01565b6000806000806080858703121561340557600080fd5b84519350602085015192506040850151915060608501516001600160401b038082111561343157600080fd5b818701915087601f83011261344557600080fd5b8151613453612a10826131c5565b8082825260208201915060208360051b86010192508a83111561347557600080fd5b602085015b838110156134ff5780518581111561349157600080fd5b86016060818e03601f190112156134a757600080fd5b6134af6128d0565b60208201516134bd81612816565b8152604082015160208201526060820151878111156134db57600080fd5b6134ea8f6020838601016133aa565b6040830152508452506020928301920161347a565b50979a9699509497505050505050565b634e487b7160e01b600052603260045260246000fd5b634e487b7160e01b600052601160045260246000fd5b8082018082111561354e5761354e613525565b92915050565b600181815b8085111561358f57816000190482111561357557613575613525565b8085161561358257918102915b93841c9390800290613559565b509250929050565b6000826135a65750600161354e565b816135b35750600061354e565b81600181146135c957600281146135d3576135ef565b600191505061354e565b60ff8411156135e4576135e4613525565b50506001821b61354e565b5060208310610133831016604e8410600b8410161715613612575081810a61354e565b61361c8383613554565b806000190482111561363057613630613525565b029392505050565b60006116188383613597565b8181038181111561354e5761354e613525565b60006080828403121561366957600080fd5b604051608081018181106001600160401b038211171561368b5761368b612891565b604052823561369981612816565b81526136a76020840161312a565b602082015260408301356136ba8161303a565b60408201526060928301359281019290925250919050565b602081526136ec6020820183516001600160a01b03169052565b6000602083015161370860408401826001600160a01b03169052565b50604083015161374b606084018280516001600160a01b0316825260208082015160ff169083015260408082015163ffffffff1690830152606090810151910152565b50606083015160e08301526080830151610100818185015260a085015191506137806101208501836001600160a01b03169052565b60c085015161014085015260e085015161016085015284015161018080850152905061156d6101a0840182612b25565b600080604083850312156137c357600080fd5b825191506020808401516001600160401b03808211156137e257600080fd5b818601915086601f8301126137f657600080fd5b8151613804612a10826131c5565b81815260059190911b8301840190848101908983111561382357600080fd5b8585015b838110156138ac5780518581111561383f5760008081fd5b86016060818d03601f19018113156138575760008081fd5b61385f6128d0565b8983015161386c81612816565b815260408301518a82015290820151908782111561388a5760008081fd5b6138988e8b848601016133aa565b604082015285525050918601918601613827565b508096505050505050509250929050565b600061161860ff841683613597565b634e487b7160e01b600052601260045260246000fd5b600060208083850312156138f557600080fd5b82516001600160401b0381111561390b57600080fd5b8301601f8101851361391c57600080fd5b805161392a612a10826131c5565b81815260069190911b8201830190838101908783111561394957600080fd5b928401925b8284101561327657604084890312156139675760008081fd5b61396f6128f2565b84516001600160e01b03811681146139875760008081fd5b8152848601516139968161303a565b818701528252604093909301929084019061394e565b808202811582820484141761354e5761354e613525565b6000826139e057634e487b7160e01b600052601260045260246000fd5b50049056fea2646970667358221220fd6552c642f12453f4cc6d6438d5ccfef877b40c48c2e5b8bcc4f329a6db1c6164736f6c63430008170033",
	"devdoc": {
		"kind": "dev",
		"methods": {
			"constructor": {
				"params": {
					"directory": "A contract storing directories of terminals and controllers for each project.",
					"prices": "A contract that exposes price feeds.",
					"rulesets": "A contract storing and managing project rulesets."
				}
			},
			"currentReclaimableSurplusOf(address,uint256,(address,uint8,uint32)[],uint256,uint256,uint256,bool)": {
				"details": "The returned amount in terms of the specified `terminal`'s base currency.The returned amount is represented as a fixed point number with the same amount of decimals as the specified terminal.",
				"params": {
					"accountingContexts": "The accounting contexts of the surplus terminal tokens that would be reclaimed",
					"currency": "The currency that the resulting number will be in terms of.",
					"decimals": "The number of decimals to include in the resulting fixed point number.",
					"projectId": "The ID of the project whose tokens would be redeemed.",
					"terminal": "The terminal that would be redeemed from. If `useTotalSurplus` is true, this is ignored.",
					"tokensRedeemed": "The number of tokens that would be redeemed, as a fixed point number with 18 decimals.",
					"useTotalSurplus": "Whether the total surplus should be summed across all of the project's terminals. If false, only the `terminal`'s surplus is used."
				},
				"returns": {
					"_0": "The amount of surplus terminal tokens that would be reclaimed by redeeming `tokensRedeemed` tokens."
				}
			},
			"currentReclaimableSurplusOf(uint256,uint256,uint256,uint256)": {
				"params": {
					"projectId": "The ID of the project whose project tokens would be redeemed.",
					"surplus": "The total terminal token surplus amount, as a fixed point number.",
					"tokensRedeemed": "The number of project tokens that would be redeemed, as a fixed point number with 18 decimals.",
					"totalSupply": "The total project token supply, as a fixed point number with 18 decimals."
				},
				"returns": {
					"_0": "The number of surplus terminal tokens that would be reclaimed, as a fixed point number with the same number of decimals as the provided `surplus`."
				}
			},
			"currentSurplusOf(address,uint256,(address,uint8,uint32)[],uint256,uint256)": {
				"details": "The surplus is the amount of funds a project has in a terminal in excess of its payout limit.The surplus is represented as a fixed point number with the same amount of decimals as the specified terminal.",
				"params": {
					"accountingContexts": "The accounting contexts of tokens whose balances should contribute to the surplus being calculated.",
					"currency": "The currency the resulting amount should be in terms of.",
					"decimals": "The number of decimals to expect in the resulting fixed point number.",
					"projectId": "The ID of the project to get surplus for.",
					"terminal": "The terminal the surplus is being calculated for."
				},
				"returns": {
					"_0": "The current surplus amount the project has in the specified terminal."
				}
			},
			"currentTotalSurplusOf(uint256,uint256,uint256)": {
				"params": {
					"currency": "The currency that the total surplus should be in terms of.",
					"decimals": "The number of decimals that the fixed point surplus should include.",
					"projectId": "The ID of the project to get the total surplus for."
				},
				"returns": {
					"_0": "The current total surplus amount that the project has across all terminals."
				}
			},
			"recordAddedBalanceFor(uint256,address,uint256)": {
				"params": {
					"amount": "The amount of terminal tokens added, as a fixed point number with the same amount of decimals as its relative terminal.",
					"projectId": "The ID of the project which funds are being added to the balance of.",
					"token": "The token being added to the balance."
				}
			},
			"recordPaymentFrom(address,(address,uint8,uint32,uint256),uint256,address,bytes)": {
				"details": "Mints the project's tokens according to values provided by the ruleset's data hook. If the ruleset has no data hook, mints tokens in proportion with the amount paid.",
				"params": {
					"amount": "The amount of tokens being paid. Includes the token being paid, their value, the number of decimals included, and the currency of the amount.",
					"beneficiary": "The address that should be the beneficiary of anything the payment yields (including project tokens minted by the payment).",
					"metadata": "Bytes to send to the data hook, if the project's current ruleset specifies one.",
					"payer": "The address that made the payment to the terminal.",
					"projectId": "The ID of the project being paid."
				},
				"returns": {
					"hookSpecifications": "A list of pay hooks, including data and amounts to send to them. The terminal should fulfill these specifications.",
					"ruleset": "The ruleset the payment was made during, as a `JBRuleset` struct.",
					"tokenCount": "The number of project tokens that were minted, as a fixed point number with 18 decimals."
				}
			},
			"recordPayoutFor(uint256,(address,uint8,uint32),uint256,uint256)": {
				"params": {
					"accountingContext": "The context of the token being paid out.",
					"amount": "The amount to pay out (use from the payout limit), as a fixed point number.",
					"currency": "The currency of the `amount`. This must match the project's current ruleset's currency.",
					"projectId": "The ID of the project that is paying out funds."
				},
				"returns": {
					"amountPaidOut": "The amount of terminal tokens paid out, as a fixed point number with the same amount of decimals as its relative terminal.",
					"ruleset": "The ruleset the payout was made during, as a `JBRuleset` struct."
				}
			},
			"recordRedemptionFor(address,uint256,uint256,(address,uint8,uint32),(address,uint8,uint32)[],bytes)": {
				"details": "Redeems the project's tokens according to values provided by the ruleset's data hook. If the ruleset has no data hook, redeems tokens along a redemption bonding curve that is a function of the number of tokens being burned.",
				"params": {
					"accountingContext": "The accounting context of the token being reclaimed by the redemption.",
					"balanceAccountingContexts": "The accounting contexts of the tokens whose balances should contribute to the surplus being reclaimed from.",
					"holder": "The account that is redeeming tokens.",
					"metadata": "Bytes to send to the data hook, if the project's current ruleset specifies one.",
					"projectId": "The ID of the project being redeemed from.",
					"redeemCount": "The number of project tokens to redeem, as a fixed point number with 18 decimals."
				},
				"returns": {
					"hookSpecifications": "A list of redeem hooks, including data and amounts to send to them. The terminal should fulfill these specifications.",
					"reclaimAmount": "The amount of tokens reclaimed from the terminal, as a fixed point number with 18 decimals.",
					"redemptionRate": "The redemption rate influencing the reclaim amount.",
					"ruleset": "The ruleset during the redemption was made during, as a `JBRuleset` struct. This ruleset will have a redemption rate provided by the redemption hook if applicable."
				}
			},
			"recordTerminalMigration(uint256,address)": {
				"params": {
					"projectId": "The ID of the project being migrated.",
					"token": "The token being migrated."
				},
				"returns": {
					"balance": "The project's current balance (which is being migrated), as a fixed point number with the same amount of decimals as its relative terminal."
				}
			},
			"recordUsedAllowanceOf(uint256,(address,uint8,uint32),uint256,uint256)": {
				"details": "When surplus allowance is \"used\", it is taken out of the project's surplus within a terminal.",
				"params": {
					"accountingContext": "The accounting context of the token whose balances should contribute to the surplus allowance being reclaimed from.",
					"amount": "The amount to use from the surplus allowance, as a fixed point number.",
					"currency": "The currency of the `amount`. Must match the currency of the surplus allowance.",
					"projectId": "The ID of the project to use the surplus allowance of."
				},
				"returns": {
					"ruleset": "The ruleset during the surplus allowance is being used during, as a `JBRuleset` struct.",
					"usedAmount": "The amount of terminal tokens used, as a fixed point number with the same amount of decimals as its relative terminal."
				}
			}
		},
		"version": 1
	},
	"userdoc": {
		"kind": "user",
		"methods": {
			"DIRECTORY()": {
				"notice": "The directory of terminals and controllers for projects."
			},
			"PRICES()": {
				"notice": "The contract that exposes price feeds."
			},
			"RULESETS()": {
				"notice": "The contract storing and managing project rulesets."
			},
			"balanceOf(address,uint256,address)": {
				"notice": "A project's balance of a specific token within a terminal."
			},
			"currentReclaimableSurplusOf(address,uint256,(address,uint8,uint32)[],uint256,uint256,uint256,bool)": {
				"notice": "Returns the number of surplus terminal tokens that would be reclaimed from a terminal by redeeming a given number of tokens, based on the total token supply and total surplus."
			},
			"currentReclaimableSurplusOf(uint256,uint256,uint256,uint256)": {
				"notice": "Returns the number of surplus terminal tokens that would be reclaimed by redeeming a given project's tokens based on its current ruleset and the given total project token supply and total terminal token surplus."
			},
			"currentSurplusOf(address,uint256,(address,uint8,uint32)[],uint256,uint256)": {
				"notice": "Gets the current surplus amount in a terminal for a specified project."
			},
			"currentTotalSurplusOf(uint256,uint256,uint256)": {
				"notice": "Gets the current surplus amount for a specified project across all terminals."
			},
			"recordAddedBalanceFor(uint256,address,uint256)": {
				"notice": "Records funds being added to a project's balance."
			},
			"recordPaymentFrom(address,(address,uint8,uint32,uint256),uint256,address,bytes)": {
				"notice": "Records a payment to a project."
			},
			"recordPayoutFor(uint256,(address,uint8,uint32),uint256,uint256)": {
				"notice": "Records a payout from a project."
			},
			"recordRedemptionFor(address,uint256,uint256,(address,uint8,uint32),(address,uint8,uint32)[],bytes)": {
				"notice": "Records a redemption from a project."
			},
			"recordTerminalMigration(uint256,address)": {
				"notice": "Records the migration of funds from this store."
			},
			"recordUsedAllowanceOf(uint256,(address,uint8,uint32),uint256,uint256)": {
				"notice": "Records a use of a project's surplus allowance."
			},
			"usedPayoutLimitOf(address,uint256,address,uint256,uint256)": {
				"notice": "The currency-denominated amount of funds that a project has already paid out from its payout limit during the current ruleset for each terminal, in terms of the payout limit's currency."
			},
			"usedSurplusAllowanceOf(address,uint256,address,uint256,uint256)": {
				"notice": "The currency-denominated amounts of funds that a project has used from its surplus allowance during the current ruleset for each terminal, in terms of the surplus allowance's currency."
			}
		},
		"version": 1
	},
	"gitCommit": "265dad3852d04d03aba15963b8c2fd79653719f9",
	"sourceName": "src/JBTerminalStore.sol",
	"chainId": "11155420",
	"linkReferences": {},
	"deployedLinkReferences": {},
	"history": []
}