{
	"_format": "sphinx-sol-ct-artifact-1",
	"merkleRoot": "0x8c1e54f97e42f2fa46b303de8b66ce6570e2965386dfe42a48a5be441f2b885e",
	"contractName": "JBTokens",
	"address": "0x665e69377f544B2e257462d13C83DFaeE79335ca",
	"abi": [
		{
			"type": "constructor",
			"inputs": [
				{
					"name": "directory",
					"type": "address",
					"internalType": "contract IJBDirectory"
				},
				{
					"name": "token",
					"type": "address",
					"internalType": "contract IJBToken"
				}
			],
			"stateMutability": "nonpayable"
		},
		{
			"type": "function",
			"name": "DIRECTORY",
			"inputs": [],
			"outputs": [
				{
					"name": "",
					"type": "address",
					"internalType": "contract IJBDirectory"
				}
			],
			"stateMutability": "view"
		},
		{
			"type": "function",
			"name": "TOKEN",
			"inputs": [],
			"outputs": [
				{
					"name": "",
					"type": "address",
					"internalType": "contract IJBToken"
				}
			],
			"stateMutability": "view"
		},
		{
			"type": "function",
			"name": "burnFrom",
			"inputs": [
				{
					"name": "holder",
					"type": "address",
					"internalType": "address"
				},
				{
					"name": "projectId",
					"type": "uint256",
					"internalType": "uint256"
				},
				{
					"name": "amount",
					"type": "uint256",
					"internalType": "uint256"
				}
			],
			"outputs": [],
			"stateMutability": "nonpayable"
		},
		{
			"type": "function",
			"name": "claimTokensFor",
			"inputs": [
				{
					"name": "holder",
					"type": "address",
					"internalType": "address"
				},
				{
					"name": "projectId",
					"type": "uint256",
					"internalType": "uint256"
				},
				{
					"name": "amount",
					"type": "uint256",
					"internalType": "uint256"
				},
				{
					"name": "beneficiary",
					"type": "address",
					"internalType": "address"
				}
			],
			"outputs": [],
			"stateMutability": "nonpayable"
		},
		{
			"type": "function",
			"name": "creditBalanceOf",
			"inputs": [
				{
					"name": "holder",
					"type": "address",
					"internalType": "address"
				},
				{
					"name": "projectId",
					"type": "uint256",
					"internalType": "uint256"
				}
			],
			"outputs": [
				{
					"name": "",
					"type": "uint256",
					"internalType": "uint256"
				}
			],
			"stateMutability": "view"
		},
		{
			"type": "function",
			"name": "deployERC20For",
			"inputs": [
				{
					"name": "projectId",
					"type": "uint256",
					"internalType": "uint256"
				},
				{
					"name": "name",
					"type": "string",
					"internalType": "string"
				},
				{
					"name": "symbol",
					"type": "string",
					"internalType": "string"
				},
				{
					"name": "salt",
					"type": "bytes32",
					"internalType": "bytes32"
				}
			],
			"outputs": [
				{
					"name": "token",
					"type": "address",
					"internalType": "contract IJBToken"
				}
			],
			"stateMutability": "nonpayable"
		},
		{
			"type": "function",
			"name": "mintFor",
			"inputs": [
				{
					"name": "holder",
					"type": "address",
					"internalType": "address"
				},
				{
					"name": "projectId",
					"type": "uint256",
					"internalType": "uint256"
				},
				{
					"name": "amount",
					"type": "uint256",
					"internalType": "uint256"
				}
			],
			"outputs": [],
			"stateMutability": "nonpayable"
		},
		{
			"type": "function",
			"name": "projectIdOf",
			"inputs": [
				{
					"name": "token",
					"type": "address",
					"internalType": "contract IJBToken"
				}
			],
			"outputs": [
				{
					"name": "",
					"type": "uint256",
					"internalType": "uint256"
				}
			],
			"stateMutability": "view"
		},
		{
			"type": "function",
			"name": "setTokenFor",
			"inputs": [
				{
					"name": "projectId",
					"type": "uint256",
					"internalType": "uint256"
				},
				{
					"name": "token",
					"type": "address",
					"internalType": "contract IJBToken"
				}
			],
			"outputs": [],
			"stateMutability": "nonpayable"
		},
		{
			"type": "function",
			"name": "tokenOf",
			"inputs": [
				{
					"name": "projectId",
					"type": "uint256",
					"internalType": "uint256"
				}
			],
			"outputs": [
				{
					"name": "",
					"type": "address",
					"internalType": "contract IJBToken"
				}
			],
			"stateMutability": "view"
		},
		{
			"type": "function",
			"name": "totalBalanceOf",
			"inputs": [
				{
					"name": "holder",
					"type": "address",
					"internalType": "address"
				},
				{
					"name": "projectId",
					"type": "uint256",
					"internalType": "uint256"
				}
			],
			"outputs": [
				{
					"name": "balance",
					"type": "uint256",
					"internalType": "uint256"
				}
			],
			"stateMutability": "view"
		},
		{
			"type": "function",
			"name": "totalCreditSupplyOf",
			"inputs": [
				{
					"name": "projectId",
					"type": "uint256",
					"internalType": "uint256"
				}
			],
			"outputs": [
				{
					"name": "",
					"type": "uint256",
					"internalType": "uint256"
				}
			],
			"stateMutability": "view"
		},
		{
			"type": "function",
			"name": "totalSupplyOf",
			"inputs": [
				{
					"name": "projectId",
					"type": "uint256",
					"internalType": "uint256"
				}
			],
			"outputs": [
				{
					"name": "totalSupply",
					"type": "uint256",
					"internalType": "uint256"
				}
			],
			"stateMutability": "view"
		},
		{
			"type": "function",
			"name": "transferCreditsFrom",
			"inputs": [
				{
					"name": "holder",
					"type": "address",
					"internalType": "address"
				},
				{
					"name": "projectId",
					"type": "uint256",
					"internalType": "uint256"
				},
				{
					"name": "recipient",
					"type": "address",
					"internalType": "address"
				},
				{
					"name": "amount",
					"type": "uint256",
					"internalType": "uint256"
				}
			],
			"outputs": [],
			"stateMutability": "nonpayable"
		},
		{
			"type": "event",
			"name": "Burn",
			"inputs": [
				{
					"name": "holder",
					"type": "address",
					"indexed": true,
					"internalType": "address"
				},
				{
					"name": "projectId",
					"type": "uint256",
					"indexed": true,
					"internalType": "uint256"
				},
				{
					"name": "amount",
					"type": "uint256",
					"indexed": false,
					"internalType": "uint256"
				},
				{
					"name": "initialCreditBalance",
					"type": "uint256",
					"indexed": false,
					"internalType": "uint256"
				},
				{
					"name": "initialTokenBalance",
					"type": "uint256",
					"indexed": false,
					"internalType": "uint256"
				},
				{
					"name": "caller",
					"type": "address",
					"indexed": false,
					"internalType": "address"
				}
			],
			"anonymous": false
		},
		{
			"type": "event",
			"name": "ClaimTokens",
			"inputs": [
				{
					"name": "holder",
					"type": "address",
					"indexed": true,
					"internalType": "address"
				},
				{
					"name": "projectId",
					"type": "uint256",
					"indexed": true,
					"internalType": "uint256"
				},
				{
					"name": "initialCreditBalance",
					"type": "uint256",
					"indexed": false,
					"internalType": "uint256"
				},
				{
					"name": "amount",
					"type": "uint256",
					"indexed": false,
					"internalType": "uint256"
				},
				{
					"name": "beneficiary",
					"type": "address",
					"indexed": false,
					"internalType": "address"
				},
				{
					"name": "caller",
					"type": "address",
					"indexed": false,
					"internalType": "address"
				}
			],
			"anonymous": false
		},
		{
			"type": "event",
			"name": "DeployERC20",
			"inputs": [
				{
					"name": "projectId",
					"type": "uint256",
					"indexed": true,
					"internalType": "uint256"
				},
				{
					"name": "token",
					"type": "address",
					"indexed": true,
					"internalType": "contract IJBToken"
				},
				{
					"name": "name",
					"type": "string",
					"indexed": false,
					"internalType": "string"
				},
				{
					"name": "symbol",
					"type": "string",
					"indexed": false,
					"internalType": "string"
				},
				{
					"name": "salt",
					"type": "bytes32",
					"indexed": false,
					"internalType": "bytes32"
				},
				{
					"name": "caller",
					"type": "address",
					"indexed": false,
					"internalType": "address"
				}
			],
			"anonymous": false
		},
		{
			"type": "event",
			"name": "Mint",
			"inputs": [
				{
					"name": "holder",
					"type": "address",
					"indexed": true,
					"internalType": "address"
				},
				{
					"name": "projectId",
					"type": "uint256",
					"indexed": true,
					"internalType": "uint256"
				},
				{
					"name": "amount",
					"type": "uint256",
					"indexed": false,
					"internalType": "uint256"
				},
				{
					"name": "tokensWereClaimed",
					"type": "bool",
					"indexed": false,
					"internalType": "bool"
				},
				{
					"name": "caller",
					"type": "address",
					"indexed": false,
					"internalType": "address"
				}
			],
			"anonymous": false
		},
		{
			"type": "event",
			"name": "SetToken",
			"inputs": [
				{
					"name": "projectId",
					"type": "uint256",
					"indexed": true,
					"internalType": "uint256"
				},
				{
					"name": "newToken",
					"type": "address",
					"indexed": true,
					"internalType": "contract IJBToken"
				},
				{
					"name": "caller",
					"type": "address",
					"indexed": false,
					"internalType": "address"
				}
			],
			"anonymous": false
		},
		{
			"type": "event",
			"name": "TransferCredits",
			"inputs": [
				{
					"name": "holder",
					"type": "address",
					"indexed": true,
					"internalType": "address"
				},
				{
					"name": "projectId",
					"type": "uint256",
					"indexed": true,
					"internalType": "uint256"
				},
				{
					"name": "recipient",
					"type": "address",
					"indexed": true,
					"internalType": "address"
				},
				{
					"name": "amount",
					"type": "uint256",
					"indexed": false,
					"internalType": "uint256"
				},
				{
					"name": "caller",
					"type": "address",
					"indexed": false,
					"internalType": "address"
				}
			],
			"anonymous": false
		},
		{
			"type": "error",
			"name": "CONTROLLER_UNAUTHORIZED",
			"inputs": []
		},
		{
			"type": "error",
			"name": "EMPTY_NAME",
			"inputs": []
		},
		{
			"type": "error",
			"name": "EMPTY_SYMBOL",
			"inputs": []
		},
		{
			"type": "error",
			"name": "EMPTY_TOKEN",
			"inputs": []
		},
		{
			"type": "error",
			"name": "ERC1167FailedCreateClone",
			"inputs": []
		},
		{
			"type": "error",
			"name": "INSUFFICIENT_CREDITS",
			"inputs": []
		},
		{
			"type": "error",
			"name": "INSUFFICIENT_FUNDS",
			"inputs": []
		},
		{
			"type": "error",
			"name": "OVERFLOW_ALERT",
			"inputs": []
		},
		{
			"type": "error",
			"name": "PROJECT_ALREADY_HAS_TOKEN",
			"inputs": []
		},
		{
			"type": "error",
			"name": "RECIPIENT_ZERO_ADDRESS",
			"inputs": []
		},
		{
			"type": "error",
			"name": "TOKENS_MUST_HAVE_18_DECIMALS",
			"inputs": []
		},
		{
			"type": "error",
			"name": "TOKEN_ALREADY_SET",
			"inputs": []
		},
		{
			"type": "error",
			"name": "TOKEN_NOT_FOUND",
			"inputs": []
		}
	],
	"solcInputHash": "bc31b432e39dd35a364a5343da785c2b",
	"args": [
		"0x877e8e31eD1Bf9F628EfA25636c5bC9Dd83BAA77",
		"0xdAF6006d533E0DD71F50d88da53B3994D56b135e"
	],
	"bytecode": "0x60c060405234801561001057600080fd5b5060405161141a38038061141a83398101604081905261002f9161005e565b6001600160a01b039182166080521660a052610098565b6001600160a01b038116811461005b57600080fd5b50565b6000806040838503121561007157600080fd5b825161007c81610046565b602084015190925061008d81610046565b809150509250929050565b60805160a0516113486100d2600039600081816101ad015281816106f3015261073b0152600081816101e70152610e0c01526113486000f3fe608060405234801561001057600080fd5b50600436106100ea5760003560e01c8063878003b81161008c578063b1e6d2a111610066578063b1e6d2a11461021c578063c6c116bd1461022f578063ea78803f1461025a578063f12b64a51461028357600080fd5b8063878003b8146101cf57806388bc2ef3146101e2578063aab68bdb1461020957600080fd5b806358178191116100c8578063581781911461014a57806366d542161461017557806375b0d9cd1461019557806382bfefc8146101a857600080fd5b80630f85421b146100ef578063124d91e514610122578063303f5dfa14610137575b600080fd5b61010f6100fd366004610f9c565b60016020526000908152604090205481565b6040519081526020015b60405180910390f35b610135610130366004610fc0565b610296565b005b610135610145366004610ff5565b6104db565b61015d610158366004611088565b610651565b6040516001600160a01b039091168152602001610119565b61010f61018336600461110a565b60026020526000908152604090205481565b61010f6101a336600461110a565b61084e565b61015d7f000000000000000000000000000000000000000000000000000000000000000081565b61010f6101dd366004611123565b6108ec565b61015d7f000000000000000000000000000000000000000000000000000000000000000081565b610135610217366004610fc0565b6109a0565b61013561022a36600461114f565b610b2e565b61010f61023d366004611123565b600360209081526000928352604080842090915290825290205481565b61015d61026836600461110a565b6000602081905290815260409020546001600160a01b031681565b610135610291366004611197565b610c5a565b816102a081610dec565b600083815260208181526040808320546001600160a01b03888116855260038452828520888652909352908320549116918215610346576040516370a0823160e01b81526001600160a01b0388811660048301528416906370a0823190602401602060405180830381865afa15801561031d573d6000803e3d6000fd5b505050506040513d601f19601f8201168201806040525081019061034191906111c7565b610349565b60005b905061035582826111f6565b85111561037557604051631cf2628760e31b815260040160405180910390fd5b600081156103925785831061038b57600061038f565b8286035b90505b808603868214610413576001600160a01b03891660009081526003602090815260408083208b84529091529020546103cb908290611209565b6001600160a01b038a1660009081526003602090815260408083208c8452825280832093909355600290522054610403908290611209565b6000898152600260205260409020555b811561047c57604051632770a7eb60e21b81526001600160a01b038a8116600483015260248201849052861690639dc29fac90604401600060405180830381600087803b15801561046357600080fd5b505af1158015610477573d6000803e3d6000fd5b505050505b604080518881526020810186905290810184905233606082015288906001600160a01b038b16907fa6a919b3314fbbdb84c4a64d62f381f104d0c1747b789163262d2fcfeec292689060800160405180910390a3505050505050505050565b826104e581610dec565b6000848152602081905260409020546001600160a01b03168061051b576040516339e231e760e11b815260040160405180910390fd5b6001600160a01b0386166000908152600360209081526040808320888452909152902054848110156105605760405163db446d8360e01b815260040160405180910390fd5b6001600160a01b0387811660009081526003602090815260408083208a84528252808320898603905560029091529081902080548890039055516340c10f1960e01b8152858216600482015260248101879052908316906340c10f1990604401600060405180830381600087803b1580156105da57600080fd5b505af11580156105ee573d6000803e3d6000fd5b505060408051848152602081018990526001600160a01b038881168284015233606083015291518a9450918b1692507fde5600808a2321d39207ba773327f7a932a4b0b019107fb5a95618006cd0ff00919081900360800190a350505050505050565b60008661065d81610dec565b600086900361067f576040516392bf449d60e01b815260040160405180910390fd5b60008490036106a15760405163571431a760e01b815260040160405180910390fd5b6000888152602081905260409020546001600160a01b0316156106d7576040516329518c2b60e21b815260040160405180910390fd5b82156107365760408051336020820152908101849052610731907f00000000000000000000000000000000000000000000000000000000000000009060600160405160208183030381529060405280519060200120610ea1565b61075f565b61075f7f0000000000000000000000000000000000000000000000000000000000000000610f15565b60008981526020818152604080832080546001600160a01b0319166001600160a01b0386169081179091558084526001909252918290208b905590516303bf912560e11b81529193509063077f224a906107c5908a908a908a908a903090600401611245565b600060405180830381600087803b1580156107df57600080fd5b505af11580156107f3573d6000803e3d6000fd5b50505050816001600160a01b0316887fb4510654a5884cae50948507300dc482833ed1446cef375e064bef00b6b4ba4e89898989893360405161083b96959493929190611287565b60405180910390a3509695505050505050565b60008181526002602090815260408083205491839052909120546001600160a01b031680156108e657806001600160a01b03166318160ddd6040518163ffffffff1660e01b8152600401602060405180830381865afa1580156108b5573d6000803e3d6000fd5b505050506040513d601f19601f820116820180604052508101906108d991906111c7565b6108e390836111f6565b91505b50919050565b6001600160a01b03808316600090815260036020908152604080832085845282528083205491839052909120549091168015610999576040516370a0823160e01b81526001600160a01b0385811660048301528216906370a0823190602401602060405180830381865afa158015610968573d6000803e3d6000fd5b505050506040513d601f19601f8201168201806040525081019061098c91906111c7565b61099690836111f6565b91505b5092915050565b816109aa81610dec565b6000838152602081905260409020546001600160a01b03168015801590610a32576040516340c10f1960e01b81526001600160a01b038781166004830152602482018690528316906340c10f1990604401600060405180830381600087803b158015610a1557600080fd5b505af1158015610a29573d6000803e3d6000fd5b50505050610aa9565b6001600160a01b0386166000908152600360209081526040808320888452909152902054610a619085906111f6565b6001600160a01b0387166000908152600360209081526040808320898452825280832093909355600290522054610a999085906111f6565b6000868152600260205260409020555b6001600160d01b03610aba8661084e565b1115610ad957604051633062f38960e11b815260040160405180910390fd5b6040805185815282151560208201523381830152905186916001600160a01b038916917f0153be209252ccc3b70df14d55d2cc93fa5a74e263b163d9a1caf45152fd0e869181900360600190a3505050505050565b82610b3881610dec565b6001600160a01b038316610b5f5760405163c6587bab60e01b815260040160405180910390fd5b6001600160a01b038516600090815260036020908152604080832087845290915290205480831115610ba45760405163db446d8360e01b815260040160405180910390fd5b6001600160a01b0380871660009081526003602081815260408084208a855282528084208887039055938816835290815282822088835290522054610bea9084906111f6565b6001600160a01b0385811660008181526003602090815260408083208b84528252918290209490945580518781523394810194909452909288928a16917f6d86dde1e9f07a2ad1e0f3e611b7bb8343d629126c5ca73f1a5951177d87143f910160405180910390a4505050505050565b81610c6481610dec565b6001600160a01b038216610c8b576040516324679e7b60e01b815260040160405180910390fd5b6000838152602081905260409020546001600160a01b031615610cc15760405163934c465560e01b815260040160405180910390fd5b6001600160a01b03821660009081526001602052604090205415610cf85760405163934c465560e01b815260040160405180910390fd5b816001600160a01b031663313ce5676040518163ffffffff1660e01b8152600401602060405180830381865afa158015610d36573d6000803e3d6000fd5b505050506040513d601f19601f82011682018060405250810190610d5a91906112d2565b60ff16601214610d7d57604051632b70e32560e21b815260040160405180910390fd5b60008381526020818152604080832080546001600160a01b0319166001600160a01b03871690811790915580845260018352928190208690555133815285917f768e177d7f9dac714049e6d43d9ac533cf0c6cc23cddcfe642bfd7a18bee3772910160405180910390a3505050565b604051632eec7b5560e11b81526004810182905233906001600160a01b037f00000000000000000000000000000000000000000000000000000000000000001690635dd8f6aa90602401602060405180830381865afa158015610e53573d6000803e3d6000fd5b505050506040513d601f19601f82011682018060405250810190610e7791906112f5565b6001600160a01b031614610e9e57604051632adfdd0560e21b815260040160405180910390fd5b50565b6000763d602d80600a3d3981f3363d3d373d3d3d363d730000008360601b60e81c176000526e5af43d82803e903d91602b57fd5bf38360781b1760205281603760096000f590506001600160a01b038116610f0f576040516330be1a3d60e21b815260040160405180910390fd5b92915050565b6000763d602d80600a3d3981f3363d3d373d3d3d363d730000008260601b60e81c176000526e5af43d82803e903d91602b57fd5bf38260781b17602052603760096000f090506001600160a01b038116610f82576040516330be1a3d60e21b815260040160405180910390fd5b919050565b6001600160a01b0381168114610e9e57600080fd5b600060208284031215610fae57600080fd5b8135610fb981610f87565b9392505050565b600080600060608486031215610fd557600080fd5b8335610fe081610f87565b95602085013595506040909401359392505050565b6000806000806080858703121561100b57600080fd5b843561101681610f87565b93506020850135925060408501359150606085013561103481610f87565b939692955090935050565b60008083601f84011261105157600080fd5b50813567ffffffffffffffff81111561106957600080fd5b60208301915083602082850101111561108157600080fd5b9250929050565b600080600080600080608087890312156110a157600080fd5b86359550602087013567ffffffffffffffff808211156110c057600080fd5b6110cc8a838b0161103f565b909750955060408901359150808211156110e557600080fd5b506110f289828a0161103f565b979a9699509497949695606090950135949350505050565b60006020828403121561111c57600080fd5b5035919050565b6000806040838503121561113657600080fd5b823561114181610f87565b946020939093013593505050565b6000806000806080858703121561116557600080fd5b843561117081610f87565b935060208501359250604085013561118781610f87565b9396929550929360600135925050565b600080604083850312156111aa57600080fd5b8235915060208301356111bc81610f87565b809150509250929050565b6000602082840312156111d957600080fd5b5051919050565b634e487b7160e01b600052601160045260246000fd5b80820180821115610f0f57610f0f6111e0565b81810381811115610f0f57610f0f6111e0565b81835281816020850137506000828201602090810191909152601f909101601f19169091010190565b60608152600061125960608301878961121c565b828103602084015261126c81868861121c565b91505060018060a01b03831660408301529695505050505050565b60808152600061129b60808301888a61121c565b82810360208401526112ae81878961121c565b604084019590955250506001600160a01b0391909116606090910152949350505050565b6000602082840312156112e457600080fd5b815160ff81168114610fb957600080fd5b60006020828403121561130757600080fd5b8151610fb981610f8756fea2646970667358221220633572b535b10689893d60adcf6735e0dd2860a26a0d6581848d8d198b20c34164736f6c63430008170033",
	"deployedBytecode": "0x608060405234801561001057600080fd5b50600436106100ea5760003560e01c8063878003b81161008c578063b1e6d2a111610066578063b1e6d2a11461021c578063c6c116bd1461022f578063ea78803f1461025a578063f12b64a51461028357600080fd5b8063878003b8146101cf57806388bc2ef3146101e2578063aab68bdb1461020957600080fd5b806358178191116100c8578063581781911461014a57806366d542161461017557806375b0d9cd1461019557806382bfefc8146101a857600080fd5b80630f85421b146100ef578063124d91e514610122578063303f5dfa14610137575b600080fd5b61010f6100fd366004610f9c565b60016020526000908152604090205481565b6040519081526020015b60405180910390f35b610135610130366004610fc0565b610296565b005b610135610145366004610ff5565b6104db565b61015d610158366004611088565b610651565b6040516001600160a01b039091168152602001610119565b61010f61018336600461110a565b60026020526000908152604090205481565b61010f6101a336600461110a565b61084e565b61015d7f000000000000000000000000daf6006d533e0dd71f50d88da53b3994d56b135e81565b61010f6101dd366004611123565b6108ec565b61015d7f000000000000000000000000877e8e31ed1bf9f628efa25636c5bc9dd83baa7781565b610135610217366004610fc0565b6109a0565b61013561022a36600461114f565b610b2e565b61010f61023d366004611123565b600360209081526000928352604080842090915290825290205481565b61015d61026836600461110a565b6000602081905290815260409020546001600160a01b031681565b610135610291366004611197565b610c5a565b816102a081610dec565b600083815260208181526040808320546001600160a01b03888116855260038452828520888652909352908320549116918215610346576040516370a0823160e01b81526001600160a01b0388811660048301528416906370a0823190602401602060405180830381865afa15801561031d573d6000803e3d6000fd5b505050506040513d601f19601f8201168201806040525081019061034191906111c7565b610349565b60005b905061035582826111f6565b85111561037557604051631cf2628760e31b815260040160405180910390fd5b600081156103925785831061038b57600061038f565b8286035b90505b808603868214610413576001600160a01b03891660009081526003602090815260408083208b84529091529020546103cb908290611209565b6001600160a01b038a1660009081526003602090815260408083208c8452825280832093909355600290522054610403908290611209565b6000898152600260205260409020555b811561047c57604051632770a7eb60e21b81526001600160a01b038a8116600483015260248201849052861690639dc29fac90604401600060405180830381600087803b15801561046357600080fd5b505af1158015610477573d6000803e3d6000fd5b505050505b604080518881526020810186905290810184905233606082015288906001600160a01b038b16907fa6a919b3314fbbdb84c4a64d62f381f104d0c1747b789163262d2fcfeec292689060800160405180910390a3505050505050505050565b826104e581610dec565b6000848152602081905260409020546001600160a01b03168061051b576040516339e231e760e11b815260040160405180910390fd5b6001600160a01b0386166000908152600360209081526040808320888452909152902054848110156105605760405163db446d8360e01b815260040160405180910390fd5b6001600160a01b0387811660009081526003602090815260408083208a84528252808320898603905560029091529081902080548890039055516340c10f1960e01b8152858216600482015260248101879052908316906340c10f1990604401600060405180830381600087803b1580156105da57600080fd5b505af11580156105ee573d6000803e3d6000fd5b505060408051848152602081018990526001600160a01b038881168284015233606083015291518a9450918b1692507fde5600808a2321d39207ba773327f7a932a4b0b019107fb5a95618006cd0ff00919081900360800190a350505050505050565b60008661065d81610dec565b600086900361067f576040516392bf449d60e01b815260040160405180910390fd5b60008490036106a15760405163571431a760e01b815260040160405180910390fd5b6000888152602081905260409020546001600160a01b0316156106d7576040516329518c2b60e21b815260040160405180910390fd5b82156107365760408051336020820152908101849052610731907f000000000000000000000000daf6006d533e0dd71f50d88da53b3994d56b135e9060600160405160208183030381529060405280519060200120610ea1565b61075f565b61075f7f000000000000000000000000daf6006d533e0dd71f50d88da53b3994d56b135e610f15565b60008981526020818152604080832080546001600160a01b0319166001600160a01b0386169081179091558084526001909252918290208b905590516303bf912560e11b81529193509063077f224a906107c5908a908a908a908a903090600401611245565b600060405180830381600087803b1580156107df57600080fd5b505af11580156107f3573d6000803e3d6000fd5b50505050816001600160a01b0316887fb4510654a5884cae50948507300dc482833ed1446cef375e064bef00b6b4ba4e89898989893360405161083b96959493929190611287565b60405180910390a3509695505050505050565b60008181526002602090815260408083205491839052909120546001600160a01b031680156108e657806001600160a01b03166318160ddd6040518163ffffffff1660e01b8152600401602060405180830381865afa1580156108b5573d6000803e3d6000fd5b505050506040513d601f19601f820116820180604052508101906108d991906111c7565b6108e390836111f6565b91505b50919050565b6001600160a01b03808316600090815260036020908152604080832085845282528083205491839052909120549091168015610999576040516370a0823160e01b81526001600160a01b0385811660048301528216906370a0823190602401602060405180830381865afa158015610968573d6000803e3d6000fd5b505050506040513d601f19601f8201168201806040525081019061098c91906111c7565b61099690836111f6565b91505b5092915050565b816109aa81610dec565b6000838152602081905260409020546001600160a01b03168015801590610a32576040516340c10f1960e01b81526001600160a01b038781166004830152602482018690528316906340c10f1990604401600060405180830381600087803b158015610a1557600080fd5b505af1158015610a29573d6000803e3d6000fd5b50505050610aa9565b6001600160a01b0386166000908152600360209081526040808320888452909152902054610a619085906111f6565b6001600160a01b0387166000908152600360209081526040808320898452825280832093909355600290522054610a999085906111f6565b6000868152600260205260409020555b6001600160d01b03610aba8661084e565b1115610ad957604051633062f38960e11b815260040160405180910390fd5b6040805185815282151560208201523381830152905186916001600160a01b038916917f0153be209252ccc3b70df14d55d2cc93fa5a74e263b163d9a1caf45152fd0e869181900360600190a3505050505050565b82610b3881610dec565b6001600160a01b038316610b5f5760405163c6587bab60e01b815260040160405180910390fd5b6001600160a01b038516600090815260036020908152604080832087845290915290205480831115610ba45760405163db446d8360e01b815260040160405180910390fd5b6001600160a01b0380871660009081526003602081815260408084208a855282528084208887039055938816835290815282822088835290522054610bea9084906111f6565b6001600160a01b0385811660008181526003602090815260408083208b84528252918290209490945580518781523394810194909452909288928a16917f6d86dde1e9f07a2ad1e0f3e611b7bb8343d629126c5ca73f1a5951177d87143f910160405180910390a4505050505050565b81610c6481610dec565b6001600160a01b038216610c8b576040516324679e7b60e01b815260040160405180910390fd5b6000838152602081905260409020546001600160a01b031615610cc15760405163934c465560e01b815260040160405180910390fd5b6001600160a01b03821660009081526001602052604090205415610cf85760405163934c465560e01b815260040160405180910390fd5b816001600160a01b031663313ce5676040518163ffffffff1660e01b8152600401602060405180830381865afa158015610d36573d6000803e3d6000fd5b505050506040513d601f19601f82011682018060405250810190610d5a91906112d2565b60ff16601214610d7d57604051632b70e32560e21b815260040160405180910390fd5b60008381526020818152604080832080546001600160a01b0319166001600160a01b03871690811790915580845260018352928190208690555133815285917f768e177d7f9dac714049e6d43d9ac533cf0c6cc23cddcfe642bfd7a18bee3772910160405180910390a3505050565b604051632eec7b5560e11b81526004810182905233906001600160a01b037f000000000000000000000000877e8e31ed1bf9f628efa25636c5bc9dd83baa771690635dd8f6aa90602401602060405180830381865afa158015610e53573d6000803e3d6000fd5b505050506040513d601f19601f82011682018060405250810190610e7791906112f5565b6001600160a01b031614610e9e57604051632adfdd0560e21b815260040160405180910390fd5b50565b6000763d602d80600a3d3981f3363d3d373d3d3d363d730000008360601b60e81c176000526e5af43d82803e903d91602b57fd5bf38360781b1760205281603760096000f590506001600160a01b038116610f0f576040516330be1a3d60e21b815260040160405180910390fd5b92915050565b6000763d602d80600a3d3981f3363d3d373d3d3d363d730000008260601b60e81c176000526e5af43d82803e903d91602b57fd5bf38260781b17602052603760096000f090506001600160a01b038116610f82576040516330be1a3d60e21b815260040160405180910390fd5b919050565b6001600160a01b0381168114610e9e57600080fd5b600060208284031215610fae57600080fd5b8135610fb981610f87565b9392505050565b600080600060608486031215610fd557600080fd5b8335610fe081610f87565b95602085013595506040909401359392505050565b6000806000806080858703121561100b57600080fd5b843561101681610f87565b93506020850135925060408501359150606085013561103481610f87565b939692955090935050565b60008083601f84011261105157600080fd5b50813567ffffffffffffffff81111561106957600080fd5b60208301915083602082850101111561108157600080fd5b9250929050565b600080600080600080608087890312156110a157600080fd5b86359550602087013567ffffffffffffffff808211156110c057600080fd5b6110cc8a838b0161103f565b909750955060408901359150808211156110e557600080fd5b506110f289828a0161103f565b979a9699509497949695606090950135949350505050565b60006020828403121561111c57600080fd5b5035919050565b6000806040838503121561113657600080fd5b823561114181610f87565b946020939093013593505050565b6000806000806080858703121561116557600080fd5b843561117081610f87565b935060208501359250604085013561118781610f87565b9396929550929360600135925050565b600080604083850312156111aa57600080fd5b8235915060208301356111bc81610f87565b809150509250929050565b6000602082840312156111d957600080fd5b5051919050565b634e487b7160e01b600052601160045260246000fd5b80820180821115610f0f57610f0f6111e0565b81810381811115610f0f57610f0f6111e0565b81835281816020850137506000828201602090810191909152601f909101601f19169091010190565b60608152600061125960608301878961121c565b828103602084015261126c81868861121c565b91505060018060a01b03831660408301529695505050505050565b60808152600061129b60808301888a61121c565b82810360208401526112ae81878961121c565b604084019590955250506001600160a01b0391909116606090910152949350505050565b6000602082840312156112e457600080fd5b815160ff81168114610fb957600080fd5b60006020828403121561130757600080fd5b8151610fb981610f8756fea2646970667358221220633572b535b10689893d60adcf6735e0dd2860a26a0d6581848d8d198b20c34164736f6c63430008170033",
	"devdoc": {
		"kind": "dev",
		"methods": {
			"burnFrom(address,uint256,uint256)": {
				"details": "Credits are burned first, then tokens are burned.Only a project's current controller can burn its tokens.",
				"params": {
					"amount": "The amount of tokens to burn.",
					"holder": "The address that owns the tokens which are being burned.",
					"projectId": "The ID of the project to the burned tokens belong to."
				}
			},
			"claimTokensFor(address,uint256,uint256,address)": {
				"details": "Only a project's controller can claim that project's tokens.",
				"params": {
					"amount": "The amount of tokens to claim.",
					"beneficiary": "The account into which the claimed tokens will go.",
					"holder": "The owner of the credits being redeemed.",
					"projectId": "The ID of the project whose tokens are being claimed."
				}
			},
			"constructor": {
				"params": {
					"directory": "A contract storing directories of terminals and controllers for each project.",
					"token": "The implementation of the token contract that project can deploy."
				}
			},
			"deployERC20For(uint256,string,string,bytes32)": {
				"details": "Deploys a project's ERC-20 token contract.Only a project's controller can deploy its token.",
				"params": {
					"name": "The ERC-20's name.",
					"projectId": "The ID of the project to deploy an ERC-20 token for.",
					"salt": "The salt used for ERC-1167 clone deployment. Pass a non-zero salt for deterministic deployment based on `msg.sender` and the `TOKEN` implementation address.",
					"symbol": "The ERC-20's symbol."
				},
				"returns": {
					"token": "The address of the token that was deployed."
				}
			},
			"mintFor(address,uint256,uint256)": {
				"details": "Only a project's current controller can mint its tokens.",
				"params": {
					"amount": "The amount of tokens to mint.",
					"holder": "The address receiving the new tokens.",
					"projectId": "The ID of the project to which the tokens belong."
				}
			},
			"setTokenFor(uint256,address)": {
				"details": "Only a project's controller can set its token.",
				"params": {
					"projectId": "The ID of the project to set the token of.",
					"token": "The new token's address."
				}
			},
			"totalBalanceOf(address,uint256)": {
				"params": {
					"holder": "The holder to get a balance for.",
					"projectId": "The project to get the `_holder`s balance for."
				},
				"returns": {
					"balance": "The combined token and token credit balance of the `_holder"
				}
			},
			"totalSupplyOf(uint256)": {
				"params": {
					"projectId": "The ID of the project to get the total supply of."
				},
				"returns": {
					"totalSupply": "The total supply of the project's tokens and token credits."
				}
			},
			"transferCreditsFrom(address,uint256,address,uint256)": {
				"details": "Only a project's controller can transfer credits for that project.",
				"params": {
					"amount": "The amount of credits to transfer.",
					"holder": "The address to transfer credits from.",
					"projectId": "The ID of the project whose credits are being transferred.",
					"recipient": "The recipient of the credits."
				}
			}
		},
		"version": 1
	},
	"userdoc": {
		"kind": "user",
		"methods": {
			"DIRECTORY()": {
				"notice": "The directory of terminals and controllers for projects."
			},
			"burnFrom(address,uint256,uint256)": {
				"notice": "Burns (destroys) credits or tokens."
			},
			"claimTokensFor(address,uint256,uint256,address)": {
				"notice": "Redeem credits to claim tokens into a holder's wallet."
			},
			"creditBalanceOf(address,uint256)": {
				"notice": "Each holder's credit balance for each project."
			},
			"deployERC20For(uint256,string,string,bytes32)": {
				"notice": "Deploys an ERC-20 token for a project. It will be used when claiming tokens."
			},
			"mintFor(address,uint256,uint256)": {
				"notice": "Mint (create) new tokens or credits."
			},
			"projectIdOf(address)": {
				"notice": "Each token's project."
			},
			"setTokenFor(uint256,address)": {
				"notice": "Set a project's token if not already set."
			},
			"tokenOf(uint256)": {
				"notice": "Each project's attached token contract."
			},
			"totalBalanceOf(address,uint256)": {
				"notice": "The total balance a holder has for a specified project, including both tokens and token credits."
			},
			"totalCreditSupplyOf(uint256)": {
				"notice": "The total supply of credits for each project."
			},
			"totalSupplyOf(uint256)": {
				"notice": "The total supply for a specific project, including both tokens and token credits."
			},
			"transferCreditsFrom(address,uint256,address,uint256)": {
				"notice": "Allows a holder to transfer credits to another account."
			}
		},
		"version": 1
	},
	"gitCommit": "e3340aaa68ab5ad0b72000354da5d8180b61e01c",
	"sourceName": "src/JBTokens.sol",
	"chainId": "11155420",
	"linkReferences": {},
	"deployedLinkReferences": {},
	"history": []
}